{
	"data": {
		"bytecode": {
			"linkReferences": {},
			"object": "6080604052601c60025560326003553480156200001b57600080fd5b50604051620050f4380380620050f48339810160408190526200003e916200067e565b6004805462010000600160b01b031916620100006001600160a01b038b160217905562000071878787878787876200007f565b505050505050505062000997565b6200008a87620002dc565b1562000270576040516200009e9062000433565b604051809103906000f080158015620000bb573d6000803e3d6000fd5b50600660006101000a8154816001600160a01b0302191690836001600160a01b031602179055508686866001604051620000f59062000441565b620001049493929190620007f0565b604051809103906000f08015801562000121573d6000803e3d6000fd5b50600580546001600160a01b0319166001600160a01b0392909216918217905560405163544d043160e11b815263a89a0862906200016b9033906001908990899060040162000875565b600060405180830381600087803b1580156200018657600080fd5b505af11580156200019b573d6000803e3d6000fd5b505060055460405163544d043160e11b81526001600160a01b03909116925063a89a08629150620001d89033906001908790879060040162000875565b600060405180830381600087803b158015620001f357600080fd5b505af115801562000208573d6000803e3d6000fd5b505088516200022192506000915060208a01906200044f565b506200026a60006040518060400160405280601581526020017f436f6e73756c746174696f6e2063726561746564210000000000000000000000815250620003c360201b60201c565b620002d3565b60405162461bcd60e51b815260206004820152602e60248201527f4f6e65206f72206d6f72652075736572732063616e277420637265617465206160448201526d20636f6e73756c746174696f6e2160901b606482015260840160405180910390fd5b50505050505050565b60006001815b8351811015620003bc57600460029054906101000a90046001600160a01b03166001600160a01b031663297027d5858381518110620003255762000325620008b7565b60200260200101516040518263ffffffff1660e01b81526004016200035991906001600160a01b0391909116815260200190565b602060405180830381865afa15801562000377573d6000803e3d6000fd5b505050506040513d601f19601f820116820180604052508101906200039d9190620008cd565b620003a757600091505b80620003b381620008f8565b915050620002e2565b5092915050565b60045460405133917ffc6f5e211098b443015ccb625104a41f61e97a80dd9b8734242a9a8c3eecc8dc91620004009160ff1690869086906200095b565b60405180910390a26004805483919060ff191660018360058111156200042a576200042a62000922565b02179055505050565b6107448062001f9f83390190565b612a1180620026e383390190565b828054828255906000526020600020908101928215620004a7579160200282015b82811115620004a757825182546001600160a01b0319166001600160a01b0390911617825560209092019160019091019062000470565b50620004b5929150620004b9565b5090565b5b80821115620004b55760008155600101620004ba565b6001600160a01b0381168114620004e657600080fd5b50565b8051620004f681620004d0565b919050565b634e487b7160e01b600052604160045260246000fd5b604051601f8201601f191681016001600160401b03811182821017156200053c576200053c620004fb565b604052919050565b600082601f8301126200055657600080fd5b815160206001600160401b03821115620005745762000574620004fb565b8160051b6200058582820162000511565b9283528481018201928281019087851115620005a057600080fd5b83870192505b84831015620005cc578251620005bc81620004d0565b82529183019190830190620005a6565b979650505050505050565b60005b83811015620005f4578181015183820152602001620005da565b8381111562000604576000848401525b50505050565b600082601f8301126200061c57600080fd5b81516001600160401b03811115620006385762000638620004fb565b6200064d601f8201601f191660200162000511565b8181528460208386010111156200066357600080fd5b62000676826020830160208701620005d7565b949350505050565b600080600080600080600080610100898b0312156200069c57600080fd5b620006a789620004e9565b60208a01519098506001600160401b0380821115620006c557600080fd5b620006d38c838d0162000544565b985060408b0151915080821115620006ea57600080fd5b620006f88c838d016200060a565b975060608b01519150808211156200070f57600080fd5b6200071d8c838d016200060a565b965060808b01519150808211156200073457600080fd5b620007428c838d016200060a565b955060a08b01519150808211156200075957600080fd5b620007678c838d016200060a565b945060c08b01519150808211156200077e57600080fd5b6200078c8c838d016200060a565b935060e08b0151915080821115620007a357600080fd5b50620007b28b828c016200060a565b9150509295985092959890939650565b60008151808452620007dc816020860160208601620005d7565b601f01601f19169290920160200192915050565b6080808252855190820181905260009060209060a0840190828901845b82811015620008345781516001600160a01b0316845292840192908401906001016200080d565b505050838103828501526200084a8188620007c2565b9150508281036040840152620008618186620007c2565b915050821515606083015295945050505050565b6001600160a01b03851681528315156020820152608060408201819052600090620008a390830185620007c2565b8281036060840152620005cc8185620007c2565b634e487b7160e01b600052603260045260246000fd5b600060208284031215620008e057600080fd5b81518015158114620008f157600080fd5b9392505050565b60006000198214156200091b57634e487b7160e01b600052601160045260246000fd5b5060010190565b634e487b7160e01b600052602160045260246000fd5b600681106200095757634e487b7160e01b600052602160045260246000fd5b9052565b62000967818562000938565b62000976602082018462000938565b6060604082015260006200098e6060830184620007c2565b95945050505050565b6115f880620009a76000396000f3fe608060405234801561001057600080fd5b506004361061014d5760003560e01c806396e3f4c5116100c3578063d0f3725f1161007c578063d0f3725f14610278578063de29278914610280578063defb4dd614610288578063e53d8f1d14610290578063f3e4e38514610298578063f53cabf6146102ab57600080fd5b806396e3f4c51461021f578063a49da4b314610227578063c19d93fb14610230578063c2e862b41461024a578063c36e4e6c1461025d578063ca368f041461027057600080fd5b806341c12a701161011557806341c12a70146101d757806349aa4ee2146101e15780636a8bc3bd146101e957806377a1736b146101f15780637fe63d701461020457806389a713c31461021757600080fd5b8063025e7c2714610152578063102533c114610182578063159e7064146101985780632fd0d870146101b05780633e422f5f146101b8575b600080fd5b610165610160366004611057565b6102be565b6040516001600160a01b0390911681526020015b60405180910390f35b61018a6102e8565b604051908152602001610179565b6101a0610393565b6040519015158152602001610179565b61018a61051b565b6004546101ca90610100900460ff1681565b6040516101799190611096565b6101df61058e565b005b6101df610634565b6101df61072e565b6101df6101ff366004611152565b6107c8565b6101a0610212366004611152565b610903565b61018a6109de565b6101a0610a73565b61018a60025481565b60045461023d9060ff1681565b6040516101799190611205565b610165610258366004611057565b610b24565b6101a061026b366004611152565b610b34565b6101df610c08565b6101a0610ca0565b6101ca610cda565b61018a610d17565b6101a0610db2565b6101df6102a6366004611152565b610dd2565b6101a06102b9366004611152565b610ea6565b600081815481106102ce57600080fd5b6000918252602090912001546001600160a01b0316905081565b600080600560009054906101000a90046001600160a01b03166001600160a01b031663cc2ee1966040518163ffffffff1660e01b8152600401600060405180830381865afa15801561033e573d6000803e3d6000fd5b505050506040513d6000823e601f3d908101601f1916820160405261036691908101906112d5565b905060008160008151811061037d5761037d611431565b602090810291909101015160c001519392505050565b6004805460405163056909b760e01b815233928101839052600092916201000090046001600160a01b03169063056909b790602401602060405180830381865afa1580156103e5573d6000803e3d6000fd5b505050506040513d601f19601f820116820180604052508101906104099190611447565b80610487575060048054604051637d26bd5760e11b81526001600160a01b0384811693820193909352620100009091049091169063fa4d7aae90602401602060405180830381865afa158015610463573d6000803e3d6000fd5b505050506040513d601f19601f820116820180604052508101906104879190611447565b8061050657506004805460405163297027d560e01b81526001600160a01b0384811693820193909352620100009091049091169063297027d5906024015b602060405180830381865afa1580156104e2573d6000803e3d6000fd5b505050506040513d601f19601f820116820180604052508101906105069190611447565b1561051357600191505090565b600091505090565b600554604080516311174a2960e01b815290516000926001600160a01b0316916311174a299160048083019260209291908290030181865afa158015610565573d6000803e3d6000fd5b505050506040513d601f19601f820116820180604052508101906105899190611469565b905090565b60008060045460ff1660058111156105a8576105a8611070565b14806105ca5750600160045460ff1660058111156105c8576105c8611070565b145b806105eb5750600260045460ff1660058111156105e9576105e9611070565b145b15610600576105f8610a73565b610600575060015b806106265760405162461bcd60e51b815260040161061d90611482565b60405180910390fd5b6106316103e9610f7a565b50565b60008060045460ff16600581111561064e5761064e611070565b14806106705750600160045460ff16600581111561066e5761066e611070565b145b806106915750600260045460ff16600581111561068f5761068f611070565b145b156106a65761069e610a73565b6106a6575060015b806106c35760405162461bcd60e51b815260040161061d90611482565b600560009054906101000a90046001600160a01b03166001600160a01b031663d9f3a5c16040518163ffffffff1660e01b8152600401600060405180830381600087803b15801561071357600080fd5b505af1158015610727573d6000803e3d6000fd5b5050505050565b60008060045460ff16600581111561074857610748611070565b148061076a5750600160045460ff16600581111561076857610768611070565b145b8061078b5750600260045460ff16600581111561078957610789611070565b145b156107a057610798610a73565b6107a0575060015b806107bd5760405162461bcd60e51b815260040161061d90611482565b6106316103e8610f7a565b600060045460ff1660058111156107e1576107e1611070565b141561087f576107f081610903565b1561081857610631600160405180606001604052806024815260200161157e60249139610fc0565b60405162461bcd60e51b815260206004820152603660248201527f4f6e6c79204d656d62657273206f662074686520636f756e63696c2063616e2060448201527530b8383937bb329031b7b739bab63a30ba34b7b7399760511b606482015260840161061d565b60405162461bcd60e51b815260206004820152604d60248201527f436f6e73756c746174696f6e206973206e6f7420696e2074686520274372656160448201527f7465642720737461746520616e642063616e207468657265666f7265206e6f7460648201526c1031329030b8383937bb32b21760991b608482015260a40161061d565b60006001815b83518110156109d757600460029054906101000a90046001600160a01b03166001600160a01b031663fa4d7aae85838151811061094857610948611431565b60200260200101516040518263ffffffff1660e01b815260040161097b91906001600160a01b0391909116815260200190565b602060405180830381865afa158015610998573d6000803e3d6000fd5b505050506040513d601f19601f820116820180604052508101906109bc9190611447565b6109c557600091505b806109cf816114dc565b915050610909565b5092915050565b600080600560009054906101000a90046001600160a01b03166001600160a01b031663cc2ee1966040518163ffffffff1660e01b8152600401600060405180830381865afa158015610a34573d6000803e3d6000fd5b505050506040513d6000823e601f3d908101601f19168201604052610a5c91908101906112d5565b905060008160018151811061037d5761037d611431565b600254600090819042908290610a8c90620151806114f7565b600560009054906101000a90046001600160a01b03166001600160a01b031663b90c1dbb6040518163ffffffff1660e01b8152600401602060405180830381865afa158015610adf573d6000803e3d6000fd5b505050506040513d601f19601f82011682018060405250810190610b039190611469565b610b0d9190611516565b905080821115610b1c57600192505b509092915050565b600181815481106102ce57600080fd5b60006001815b83518110156109d757600460029054906101000a90046001600160a01b03166001600160a01b031663297027d5858381518110610b7957610b79611431565b60200260200101516040518263ffffffff1660e01b8152600401610bac91906001600160a01b0391909116815260200190565b602060405180830381865afa158015610bc9573d6000803e3d6000fd5b505050506040513d601f19601f82011682018060405250810190610bed9190611447565b610bf657600091505b80610c00816114dc565b915050610b3a565b610c10610ca0565b15610c3a57610c3860026040518060600160405280602181526020016115a26021913961102b565b565b60405162461bcd60e51b815260206004820152603560248201527f4f6e6c79204d656d62657273206f662074686520636f756e63696c2063616e2060448201527431b0b731b2b61031b7b739bab63a30ba34b7b7399760591b606482015260840161061d565b60048054604051637d26bd5760e11b815233928101839052600092916201000090046001600160a01b03169063fa4d7aae906024016104c5565b60008080610ce66102e8565b90506000610cf26109de565b905080821415610d055760029250610b1c565b80821015610b1c575060019392505050565b600080610d2261051b565b6006546003549192506001600160a01b03169063fd3bad5290610d4590846114f7565b6040516001600160e01b031960e084901b168152600481019190915260646024820152604401602060405180830381865afa158015610d88573d6000803e3d6000fd5b505050506040513d601f19601f82011682018060405250810190610dac9190611469565b91505090565b600080610dbd61051b565b90506000610dc9610d17565b90911192915050565b600160045460ff166005811115610deb57610deb611070565b1415610e2257610dfa81610b34565b1561081857610631600260405180606001604052806024815260200161157e60249139610fc0565b60405162461bcd60e51b815260206004820152604d60248201527f436f6e73756c746174696f6e206973206e6f7420696e2074686520274170707260448201527f6f7665642720737461746520616e642063616e207468657265666f7265206e6f60648201526c3a1031329039ba30b93a32b21760991b608482015260a40161061d565b60006001815b83518110156109d757600460029054906101000a90046001600160a01b03166001600160a01b031663297027d5858381518110610eeb57610eeb611431565b60200260200101516040518263ffffffff1660e01b8152600401610f1e91906001600160a01b0391909116815260200190565b602060405180830381865afa158015610f3b573d6000803e3d6000fd5b505050506040513d601f19601f82011682018060405250810190610f5f9190611447565b610f6857600091505b80610f72816114dc565b915050610eac565b60055460405163191a5f8b60e21b8152600481018390526001600160a01b03909116906364697e2c90602401600060405180830381600087803b15801561071357600080fd5b60045460405133917ffc6f5e211098b443015ccb625104a41f61e97a80dd9b8734242a9a8c3eecc8dc91610ffb9160ff16908690869061152e565b60405180910390a26004805483919060ff1916600183600581111561102257611022611070565b02179055505050565b611036600582610fc0565b6004805483919061ff00191661010083600281111561102257611022611070565b60006020828403121561106957600080fd5b5035919050565b634e487b7160e01b600052602160045260246000fd5b6003811061063157610631611070565b602081016110a383611086565b91905290565b634e487b7160e01b600052604160045260246000fd5b60405160e0810167ffffffffffffffff811182821017156110e2576110e26110a9565b60405290565b604051601f8201601f1916810167ffffffffffffffff81118282101715611111576111116110a9565b604052919050565b600067ffffffffffffffff821115611133576111336110a9565b5060051b60200190565b6001600160a01b038116811461063157600080fd5b6000602080838503121561116557600080fd5b823567ffffffffffffffff81111561117c57600080fd5b8301601f8101851361118d57600080fd5b80356111a061119b82611119565b6110e8565b81815260059190911b820183019083810190878311156111bf57600080fd5b928401925b828410156111e65783356111d78161113d565b825292840192908401906111c4565b979650505050505050565b6006811061120157611201611070565b9052565b6020810161121382846111f1565b92915050565b80516112248161113d565b919050565b8051801515811461122457600080fd5b60005b8381101561125457818101518382015260200161123c565b83811115611263576000848401525b50505050565b600082601f83011261127a57600080fd5b815167ffffffffffffffff811115611294576112946110a9565b6112a7601f8201601f19166020016110e8565b8181528460208386010111156112bc57600080fd5b6112cd826020830160208701611239565b949350505050565b600060208083850312156112e857600080fd5b825167ffffffffffffffff8082111561130057600080fd5b818501915085601f83011261131457600080fd5b815161132261119b82611119565b81815260059190911b8301840190848101908883111561134157600080fd5b8585015b838110156114245780518581111561135c57600080fd5b860160e0818c03601f190112156113735760008081fd5b61137b6110bf565b888201518152604061138e818401611219565b8a830152606061139f818501611219565b82840152608091506113b2828501611229565b9083015260a083810151898111156113ca5760008081fd5b6113d88f8d83880101611269565b838501525060c0915081840151898111156113f35760008081fd5b6114018f8d83880101611269565b918401919091525060e09290920151918101919091528352918601918601611345565b5098975050505050505050565b634e487b7160e01b600052603260045260246000fd5b60006020828403121561145957600080fd5b61146282611229565b9392505050565b60006020828403121561147b57600080fd5b5051919050565b60208082526024908201527f54686520706f6c6c206d75737420626520696e20616e206163746976652073746040820152636174652160e01b606082015260800190565b634e487b7160e01b600052601160045260246000fd5b60006000198214156114f0576114f06114c6565b5060010190565b6000816000190483118215151615611511576115116114c6565b500290565b60008219821115611529576115296114c6565b500190565b61153881856111f1565b61154560208201846111f1565b6060604082015260008251806060840152611567816080850160208701611239565b601f01601f19169190910160800194935050505056fe436f756e63696c2068617320617070726f76656420746865207265666572656e64756d21436f6e73756c746174696f6e2063616e63656c656420627920436f756e63696c21a2646970667358221220b764c1e13eee107d65b5c9accde0dc12f73471046fc3237d0ad7a6a806dd401f64736f6c634300080c0033608060405234801561001057600080fd5b50610724806100206000396000f3fe608060405234801561001057600080fd5b506004361061004c5760003560e01c80632c6e75981461005157806369f9ad2f1461007a578063efc6c18c146100a6578063fd3bad52146100bc575b600080fd5b61006461005f3660046103a6565b6100cf565b60405161007191906103cf565b60405180910390f35b61008d61008836600461043d565b6102d9565b6040516001600160f81b03199091168152602001610071565b6100ae61030f565b604051908152602001610071565b6100ae6100ca36600461045a565b610371565b60408051602880825260608281019093526000919060208201818036833701905050905060005b60148110156102d257600061010c826013610492565b6101179060086104a9565b6101229060026105ac565b610135906001600160a01b0387166105d5565b60f81b9050600060108260f81c61014c91906105e9565b60f81b905060008160f81c6010610163919061060b565b8360f81c610171919061062c565b6040516369f9ad2f60e01b81526001600160f81b03198416600482015260f89190911b915030906369f9ad2f90602401602060405180830381865afa1580156101be573d6000803e3d6000fd5b505050506040513d601f19601f820116820180604052508101906101e2919061064f565b856101ee8660026104a9565b815181106101fe576101fe61066c565b60200101906001600160f81b031916908160001a9053506040516369f9ad2f60e01b81526001600160f81b03198216600482015230906369f9ad2f90602401602060405180830381865afa15801561025a573d6000803e3d6000fd5b505050506040513d601f19601f8201168201806040525081019061027e919061064f565b8561028a8660026104a9565b610295906001610682565b815181106102a5576102a561066c565b60200101906001600160f81b031916908160001a90535050505080806102ca9061069a565b9150506100f6565b5092915050565b6000600a60f883901c1015610300576102f760f883901c60306106b5565b60f81b92915050565b6102f760f883901c60576106b5565b604080516000602080830182905242838501524460608085019190915241901b6bffffffffffffffffffffffff19166080840152835180840360740181526094909301909352815191909201208190816103688161069a565b50909392505050565b60008061037e83856105d5565b905061038a83856106da565b1561039d5761039a816001610682565b90505b90505b92915050565b6000602082840312156103b857600080fd5b81356001600160a01b038116811461039d57600080fd5b600060208083528351808285015260005b818110156103fc578581018301518582016040015282016103e0565b8181111561040e576000604083870101525b50601f01601f1916929092016040019392505050565b6001600160f81b03198116811461043a57600080fd5b50565b60006020828403121561044f57600080fd5b813561039d81610424565b6000806040838503121561046d57600080fd5b50508035926020909101359150565b634e487b7160e01b600052601160045260246000fd5b6000828210156104a4576104a461047c565b500390565b60008160001904831182151516156104c3576104c361047c565b500290565b600181815b808511156105035781600019048211156104e9576104e961047c565b808516156104f657918102915b93841c93908002906104cd565b509250929050565b60008261051a575060016103a0565b81610527575060006103a0565b816001811461053d576002811461054757610563565b60019150506103a0565b60ff8411156105585761055861047c565b50506001821b6103a0565b5060208310610133831016604e8410600b8410161715610586575081810a6103a0565b61059083836104c8565b80600019048211156105a4576105a461047c565b029392505050565b60006105b8838361050b565b9392505050565b634e487b7160e01b600052601260045260246000fd5b6000826105e4576105e46105bf565b500490565b600060ff8316806105fc576105fc6105bf565b8060ff84160491505092915050565b600060ff821660ff84168160ff04811182151516156105a4576105a461047c565b600060ff821660ff8416808210156106465761064661047c565b90039392505050565b60006020828403121561066157600080fd5b815161039d81610424565b634e487b7160e01b600052603260045260246000fd5b600082198211156106955761069561047c565b500190565b60006000198214156106ae576106ae61047c565b5060010190565b600060ff821660ff84168060ff038211156106d2576106d261047c565b019392505050565b6000826106e9576106e96105bf565b50069056fea2646970667358221220c46253c53ef194d63f41c93fb107170a66c061ef365dbf58b0782a6a752fbe5164736f6c634300080c003360806040523480156200001157600080fd5b5060405162002a1138038062002a118339810160408190526200003491620004cd565b6040516200004290620002bb565b604051809103906000f0801580156200005f573d6000803e3d6000fd5b50600980546001600160a01b0319166001600160a01b03929092169190911790556200008e8484848462000099565b5050505050620006de565b60095460408051633bf1b06360e21b815290516000926001600160a01b03169163efc6c18c9160048083019260209291908290030181865afa158015620000e4573d6000803e3d6000fd5b505050506040513d601f19601f820116820180604052508101906200010a9190620005f9565b600055835162000122906002906020870190620002c9565b50825162000138906003906020860190620002c9565b504260045584516200015290600190602088019062000358565b506007805461ffff19166101008415150217905560408051808201909152600d81526c506f6c6c20637265617465642160981b60208201526200019890600190620001a4565b50600054949350505050565b816003811115620001b957620001b962000613565b60075460ff166003811115620001d357620001d362000613565b14620002495760075460405133917ffc6f5e211098b443015ccb625104a41f61e97a80dd9b8734242a9a8c3eecc8dc91620002169160ff1690869086906200064c565b60405180910390a26007805483919060ff1916600183600381111562000240576200024062000613565b02179055505050565b60405162461bcd60e51b815260206004820152603660248201527f5374617465206e6f74206368616e6765642e204e65772073746174652069732060448201527f7468652073616d65206173206f6c642073746174652100000000000000000000606482015260840160405180910390fd5b61074480620022cd83390190565b828054620002d790620006a1565b90600052602060002090601f016020900481019282620002fb576000855562000346565b82601f106200031657805160ff191683800117855562000346565b8280016001018555821562000346579182015b828111156200034657825182559160200191906001019062000329565b5062000354929150620003b0565b5090565b82805482825590600052602060002090810192821562000346579160200282015b828111156200034657825182546001600160a01b0319166001600160a01b0390911617825560209092019160019091019062000379565b5b80821115620003545760008155600101620003b1565b634e487b7160e01b600052604160045260246000fd5b604051601f8201601f191681016001600160401b0381118282101715620004085762000408620003c7565b604052919050565b60005b838110156200042d57818101518382015260200162000413565b838111156200043d576000848401525b50505050565b600082601f8301126200045557600080fd5b81516001600160401b03811115620004715762000471620003c7565b62000486601f8201601f1916602001620003dd565b8181528460208386010111156200049c57600080fd5b620004af82602083016020870162000410565b949350505050565b80518015158114620004c857600080fd5b919050565b60008060008060808587031215620004e457600080fd5b84516001600160401b0380821115620004fc57600080fd5b818701915087601f8301126200051157600080fd5b8151602082821115620005285762000528620003c7565b8160051b62000539828201620003dd565b928352848101820192828101908c8511156200055457600080fd5b958301955b848710156200058e57865192506001600160a01b03831683146200057d5760008081fd5b828252958301959083019062000559565b928b015192995091945050505080821115620005a957600080fd5b620005b78883890162000443565b94506040870151915080821115620005ce57600080fd5b50620005dd8782880162000443565b925050620005ee60608601620004b7565b905092959194509250565b6000602082840312156200060c57600080fd5b5051919050565b634e487b7160e01b600052602160045260246000fd5b600481106200064857634e487b7160e01b600052602160045260246000fd5b9052565b62000658818562000629565b62000667602082018462000629565b60606040820152600082518060608401526200068b81608085016020870162000410565b601f01601f191691909101608001949350505050565b600181811c90821680620006b657607f821691505b60208210811415620006d857634e487b7160e01b600052602260045260246000fd5b50919050565b611bdf80620006ee6000396000f3fe608060405234801561001057600080fd5b50600436106101735760003560e01c80637284e416116100de578063c19d93fb11610097578063d9f3a5c111610071578063d9f3a5c1146102e8578063ddd7531b146102f0578063e0a96cd614610303578063ff3c1a8f1461031857600080fd5b8063c19d93fb14610297578063cc2ee196146102b1578063d4b5f16a146102c657600080fd5b80637284e41614610258578063a6bd5427146101b2578063a89a086214610260578063af640d0f14610273578063b1689a4b1461027c578063b90c1dbb1461028f57600080fd5b806342169e481161013057806342169e48146102075780634a79d50c146102105780634f4a311514610218578063517b70421461022b57806362a5af3b1461023d57806364697e2c1461024557600080fd5b8063025e7c27146101785780630f15f4c0146101a857806311174a29146101b25780631a092541146101c45780632f2770db146101d9578063409e2205146101e1575b600080fd5b61018b610186366004611591565b610320565b6040516001600160a01b0390911681526020015b60405180910390f35b6101b061034a565b005b6006545b60405190815260200161019f565b6101cc610404565b60405161019f91906115f7565b6101b0610496565b6101f46101ef366004611591565b610543565b60405161019f9796959493929190611611565b6101b660065481565b6101cc6106b5565b6101b0610226366004611591565b610743565b6101b661023936600461176a565b5190565b6101b0610804565b6101b0610253366004611591565b6108af565b6101cc610ae3565b6101b061026e366004611845565b610af0565b6101b660005481565b6101b061028a366004611591565b610d2d565b6004546101b6565b6007546102a49060ff1681565b60405161019f9190611902565b6102b9610fe1565b60405161019f9190611916565b6007546102d890610100900460ff1681565b604051901515815260200161019f565b6101b06111b3565b6101b06102fe366004611591565b6112da565b6102d861031136600461176a565b6060015190565b6101cc61133a565b6001818154811061033057600080fd5b6000918252602090912001546001600160a01b0316905081565b600160005b6001548110156103a3576001818154811061036c5761036c6119e3565b6000918252602090912001546001600160a01b031633141561039157600191506103a3565b8061039b81611a0f565b91505061034f565b506001811515146103cf5760405162461bcd60e51b81526004016103c690611a2a565b60405180910390fd5b61040160016040518060400160405280600f81526020016e506f6c6c206163746976617465642160881b815250611349565b50565b60606003805461041390611a6c565b80601f016020809104026020016040519081016040528092919081815260200182805461043f90611a6c565b801561048c5780601f106104615761010080835404028352916020019161048c565b820191906000526020600020905b81548152906001019060200180831161046f57829003601f168201915b5050505050905090565b600160005b6001548110156104ef57600181815481106104b8576104b86119e3565b6000918252602090912001546001600160a01b03163314156104dd57600191506104ef565b806104e781611a0f565b91505061049b565b506001811515146105125760405162461bcd60e51b81526004016103c690611a2a565b61040160036040518060400160405280600e81526020016d506f6c6c2064697361626c65642160901b815250611349565b6005818154811061055357600080fd5b600091825260209091206006909102018054600182015460028301546003840180549395506001600160a01b039283169492821693600160a01b90920460ff16929161059e90611a6c565b80601f01602080910402602001604051908101604052809291908181526020018280546105ca90611a6c565b80156106175780601f106105ec57610100808354040283529160200191610617565b820191906000526020600020905b8154815290600101906020018083116105fa57829003601f168201915b50505050509080600401805461062c90611a6c565b80601f016020809104026020016040519081016040528092919081815260200182805461065890611a6c565b80156106a55780601f1061067a576101008083540402835291602001916106a5565b820191906000526020600020905b81548152906001019060200180831161068857829003601f168201915b5050505050908060050154905087565b600280546106c290611a6c565b80601f01602080910402602001604051908101604052809291908181526020018280546106ee90611a6c565b801561073b5780601f106107105761010080835404028352916020019161073b565b820191906000526020600020905b81548152906001019060200180831161071e57829003601f168201915b505050505081565b60005b6005548110156107cf578160058281548110610764576107646119e3565b90600052602060002090600602016000015414156107bd57600060058281548110610791576107916119e3565b906000526020600020906006020160020160146101000a81548160ff0219169083151502179055505050565b806107c781611a0f565b915050610746565b5060405162461bcd60e51b8152602060048201526009602482015268139bdd08199bdd5b9960ba1b60448201526064016103c6565b600160005b60015481101561085d5760018181548110610826576108266119e3565b6000918252602090912001546001600160a01b031633141561084b576001915061085d565b8061085581611a0f565b915050610809565b506001811515146108805760405162461bcd60e51b81526004016103c690611a2a565b61040160026040518060400160405280600c81526020016b506f6c6c2066726f7a656e2160a01b815250611349565b600160075460ff1660038111156108c8576108c86118ca565b146108e55760405162461bcd60e51b81526004016103c690611aa7565b3360006108f183611449565b6002810154909150600160a01b900460ff1615610aa3576001600160a01b0382166000908152600860205260409020805461096057838160008154811061093a5761093a6119e3565b6000918252602082200191909155600680549161095683611a0f565b9190505550610a86565b600754610100900460ff1615610a0f57600081600081548110610985576109856119e3565b90600052602060002001549050600061099d82611449565b9050818614156109bf5760405162461bcd60e51b81526004016103c690611aeb565b6005810180549060006109d183611b2d565b909155505060408051602080820183528882526001600160a01b0388166000908152600890915291909120610a079160016114be565b505050610a86565b60005b8154811015610a6f576000828281548110610a2f57610a2f6119e3565b9060005260206000200154905085811415610a5c5760405162461bcd60e51b81526004016103c690611aeb565b5080610a6781611a0f565b915050610a12565b508054600181018255600082815260209020018490555b600582018054906000610a9883611a0f565b919050555050505050565b60405162461bcd60e51b81526020600482015260156024820152744f7074696f6e206973206e6f74206163746976652160581b60448201526064016103c6565b600380546106c290611a6c565b600160075460ff166003811115610b0957610b096118ca565b14610b265760405162461bcd60e51b81526004016103c690611aa7565b600160005b600154811015610b7f5760018181548110610b4857610b486119e3565b6000918252602090912001546001600160a01b0316331415610b6d5760019150610b7f565b80610b7781611a0f565b915050610b2b565b50600181151514610ba25760405162461bcd60e51b81526004016103c690611a2a565b6005543390600090610bb6906103e8611b44565b6040805160e0810182528281526001600160a01b03808b1660208084019182528783169484019485528b151560608501908152608085018c815260a086018c9052600060c08701819052600580546001810182559152865160069091027f036b6384b5eca791c62761152d0c79bb0604c104a5fb6f4eb0703f3154bb3db0810191825594517f036b6384b5eca791c62761152d0c79bb0604c104a5fb6f4eb0703f3154bb3db1860180549188166001600160a01b031990921691909117905596517f036b6384b5eca791c62761152d0c79bb0604c104a5fb6f4eb0703f3154bb3db28501805493511515600160a01b026001600160a81b0319909416919096161791909117909355915180519596509294859493610cfa937f036b6384b5eca791c62761152d0c79bb0604c104a5fb6f4eb0703f3154bb3db3909301920190611509565b5060a08201518051610d16916004840191602090910190611509565b5060c0820151816005015550505050505050505050565b600160075460ff166003811115610d4657610d466118ca565b14610d635760405162461bcd60e51b81526004016103c690611aa7565b33600090815260086020908152604080832080548251818502810185019093528083528493830182828015610db757602002820191906000526020600020905b815481526020019060010190808311610da3575b5050835193945050508115159050610e095760405162461bcd60e51b8152602060048201526015602482015274155cd95c88191a59081b9bdd081d9bdd19481e595d605a1b60448201526064016103c6565b600754610100900460ff1615610e455760408051600080825260208201909252600680549194509091610e3b83611b2d565b9190505550610f4c565b6000805b82811015610efb576000848281518110610e6557610e656119e3565b60200260200101519050848281518110610e8157610e816119e3565b6020026020010151811415610ee85760019250610e9e8385611b5c565b821015610ee85784610eb1836001611b44565b81518110610ec157610ec16119e3565b6020026020010151858381518110610edb57610edb6119e3565b6020026020010181815250505b5080610ef381611a0f565b915050610e49565b8115610f2d578360018551610f109190611b5c565b81518110610f2057610f206119e3565b6020026020010160008152505b8351610f495760068054906000610f4383611b2d565b91905055505b50505b6000610f5785611449565b6005810180549192506000610f6b83611b2d565b90915550503360009081526008602090815260409091208451610f90928601906114be565b50600193505082610fdb5760405162461bcd60e51b8152602060048201526015602482015274556e61626c6520746f2072656d6f766520766f746560581b60448201526064016103c6565b50505050565b60606005805480602002602001604051908101604052809291908181526020016000905b828210156111aa5760008481526020908190206040805160e081018252600686029092018054835260018101546001600160a01b0390811694840194909452600281015493841691830191909152600160a01b90920460ff161515606082015260038201805491929160808401919061107d90611a6c565b80601f01602080910402602001604051908101604052809291908181526020018280546110a990611a6c565b80156110f65780601f106110cb576101008083540402835291602001916110f6565b820191906000526020600020905b8154815290600101906020018083116110d957829003601f168201915b5050505050815260200160048201805461110f90611a6c565b80601f016020809104026020016040519081016040528092919081815260200182805461113b90611a6c565b80156111885780601f1061115d57610100808354040283529160200191611188565b820191906000526020600020905b81548152906001019060200180831161116b57829003601f168201915b5050505050815260200160058201548152505081526020019060010190611005565b50505050905090565b600160075460ff1660038111156111cc576111cc6118ca565b146111e95760405162461bcd60e51b81526004016103c690611aa7565b600754610100900460ff166112545760405162461bcd60e51b815260206004820152602b60248201527f506c656173652070726f7669646520776869636820766f74652073686f756c6460448201526a081899481c995b5bdd995960aa1b60648201526084016103c6565b600a600655336000908152600860209081526040808320805482518185028101850190935280835291929091908301828280156112b057602002820191906000526020600020905b81548152602001906001019080831161129c575b50505050509050610401816000815181106112cd576112cd6119e3565b6020026020010151610d2d565b60005b6005548110156107cf5781600582815481106112fb576112fb6119e3565b906000526020600020906006020160000154141561132857600160058281548110610791576107916119e3565b8061133281611a0f565b9150506112dd565b60606002805461041390611a6c565b81600381111561135b5761135b6118ca565b60075460ff166003811115611372576113726118ca565b146113e25760075460405133917ffc6f5e211098b443015ccb625104a41f61e97a80dd9b8734242a9a8c3eecc8dc916113b29160ff169086908690611b73565b60405180910390a26007805483919060ff191660018360038111156113d9576113d96118ca565b02179055505050565b60405162461bcd60e51b815260206004820152603660248201527f5374617465206e6f74206368616e6765642e204e6577207374617465206973206044820152757468652073616d65206173206f6c642073746174652160501b60648201526084016103c6565b6000805b6005548110156107cf57826005828154811061146b5761146b6119e3565b90600052602060002090600602016000015414156114ac5760058181548110611496576114966119e3565b9060005260206000209060060201915050919050565b806114b681611a0f565b91505061144d565b8280548282559060005260206000209081019282156114f9579160200282015b828111156114f95782518255916020019190600101906114de565b5061150592915061157c565b5090565b82805461151590611a6c565b90600052602060002090601f01602090048101928261153757600085556114f9565b82601f1061155057805160ff19168380011785556114f9565b828001600101855582156114f957918201828111156114f95782518255916020019190600101906114de565b5b80821115611505576000815560010161157d565b6000602082840312156115a357600080fd5b5035919050565b6000815180845260005b818110156115d0576020818501810151868301820152016115b4565b818111156115e2576000602083870101525b50601f01601f19169290920160200192915050565b60208152600061160a60208301846115aa565b9392505050565b8781526001600160a01b03878116602083015286166040820152841515606082015260e06080820181905260009061164b908301866115aa565b82810360a084015261165d81866115aa565b9150508260c083015298975050505050505050565b634e487b7160e01b600052604160045260246000fd5b60405160e0810167ffffffffffffffff811182821017156116ab576116ab611672565b60405290565b80356001600160a01b03811681146116c857600080fd5b919050565b803580151581146116c857600080fd5b600082601f8301126116ee57600080fd5b813567ffffffffffffffff8082111561170957611709611672565b604051601f8301601f19908116603f0116810190828211818310171561173157611731611672565b8160405283815286602085880101111561174a57600080fd5b836020870160208301376000602085830101528094505050505092915050565b60006020828403121561177c57600080fd5b813567ffffffffffffffff8082111561179457600080fd5b9083019060e082860312156117a857600080fd5b6117b0611688565b823581526117c0602084016116b1565b60208201526117d1604084016116b1565b60408201526117e2606084016116cd565b60608201526080830135828111156117f957600080fd5b611805878286016116dd565b60808301525060a08301358281111561181d57600080fd5b611829878286016116dd565b60a08301525060c083013560c082015280935050505092915050565b6000806000806080858703121561185b57600080fd5b611864856116b1565b9350611872602086016116cd565b9250604085013567ffffffffffffffff8082111561188f57600080fd5b61189b888389016116dd565b935060608701359150808211156118b157600080fd5b506118be878288016116dd565b91505092959194509250565b634e487b7160e01b600052602160045260246000fd5b600481106118fe57634e487b7160e01b600052602160045260246000fd5b9052565b6020810161191082846118e0565b92915050565b60006020808301818452808551808352604092508286019150828160051b87010184880160005b838110156119d557888303603f19018552815180518452878101516001600160a01b039081168986015287820151168785015260608082015115159085015260808082015160e08287018190529190611998838801826115aa565b9250505060a080830151868303828801526119b383826115aa565b60c094850151979094019690965250509487019492509086019060010161193d565b509098975050505050505050565b634e487b7160e01b600052603260045260246000fd5b634e487b7160e01b600052601160045260246000fd5b6000600019821415611a2357611a236119f9565b5060010190565b60208082526022908201527f4f6e6c79206f776e6572732063616e2063616c6c20746869732066756e63746960408201526137b760f11b606082015260800190565b600181811c90821680611a8057607f821691505b60208210811415611aa157634e487b7160e01b600052602260045260246000fd5b50919050565b60208082526024908201527f54686520706f6c6c206d75737420626520696e20616e2061637469766520737460408201526330ba329760e11b606082015260800190565b60208082526022908201527f5573657220616c726561647920766f74656420666f722074686973206f70746960408201526137b760f11b606082015260800190565b600081611b3c57611b3c6119f9565b506000190190565b60008219821115611b5757611b576119f9565b500190565b600082821015611b6e57611b6e6119f9565b500390565b611b7d81856118e0565b611b8a60208201846118e0565b606060408201526000611ba060608301846115aa565b9594505050505056fea26469706673582212204cd4cddeead17ecd8012d1ddb670697ccf5f0f2a84d319fa7f2eb7c54cbe4e9564736f6c634300080c0033608060405234801561001057600080fd5b50610724806100206000396000f3fe608060405234801561001057600080fd5b506004361061004c5760003560e01c80632c6e75981461005157806369f9ad2f1461007a578063efc6c18c146100a6578063fd3bad52146100bc575b600080fd5b61006461005f3660046103a6565b6100cf565b60405161007191906103cf565b60405180910390f35b61008d61008836600461043d565b6102d9565b6040516001600160f81b03199091168152602001610071565b6100ae61030f565b604051908152602001610071565b6100ae6100ca36600461045a565b610371565b60408051602880825260608281019093526000919060208201818036833701905050905060005b60148110156102d257600061010c826013610492565b6101179060086104a9565b6101229060026105ac565b610135906001600160a01b0387166105d5565b60f81b9050600060108260f81c61014c91906105e9565b60f81b905060008160f81c6010610163919061060b565b8360f81c610171919061062c565b6040516369f9ad2f60e01b81526001600160f81b03198416600482015260f89190911b915030906369f9ad2f90602401602060405180830381865afa1580156101be573d6000803e3d6000fd5b505050506040513d601f19601f820116820180604052508101906101e2919061064f565b856101ee8660026104a9565b815181106101fe576101fe61066c565b60200101906001600160f81b031916908160001a9053506040516369f9ad2f60e01b81526001600160f81b03198216600482015230906369f9ad2f90602401602060405180830381865afa15801561025a573d6000803e3d6000fd5b505050506040513d601f19601f8201168201806040525081019061027e919061064f565b8561028a8660026104a9565b610295906001610682565b815181106102a5576102a561066c565b60200101906001600160f81b031916908160001a90535050505080806102ca9061069a565b9150506100f6565b5092915050565b6000600a60f883901c1015610300576102f760f883901c60306106b5565b60f81b92915050565b6102f760f883901c60576106b5565b604080516000602080830182905242838501524460608085019190915241901b6bffffffffffffffffffffffff19166080840152835180840360740181526094909301909352815191909201208190816103688161069a565b50909392505050565b60008061037e83856105d5565b905061038a83856106da565b1561039d5761039a816001610682565b90505b90505b92915050565b6000602082840312156103b857600080fd5b81356001600160a01b038116811461039d57600080fd5b600060208083528351808285015260005b818110156103fc578581018301518582016040015282016103e0565b8181111561040e576000604083870101525b50601f01601f1916929092016040019392505050565b6001600160f81b03198116811461043a57600080fd5b50565b60006020828403121561044f57600080fd5b813561039d81610424565b6000806040838503121561046d57600080fd5b50508035926020909101359150565b634e487b7160e01b600052601160045260246000fd5b6000828210156104a4576104a461047c565b500390565b60008160001904831182151516156104c3576104c361047c565b500290565b600181815b808511156105035781600019048211156104e9576104e961047c565b808516156104f657918102915b93841c93908002906104cd565b509250929050565b60008261051a575060016103a0565b81610527575060006103a0565b816001811461053d576002811461054757610563565b60019150506103a0565b60ff8411156105585761055861047c565b50506001821b6103a0565b5060208310610133831016604e8410600b8410161715610586575081810a6103a0565b61059083836104c8565b80600019048211156105a4576105a461047c565b029392505050565b60006105b8838361050b565b9392505050565b634e487b7160e01b600052601260045260246000fd5b6000826105e4576105e46105bf565b500490565b600060ff8316806105fc576105fc6105bf565b8060ff84160491505092915050565b600060ff821660ff84168160ff04811182151516156105a4576105a461047c565b600060ff821660ff8416808210156106465761064661047c565b90039392505050565b60006020828403121561066157600080fd5b815161039d81610424565b634e487b7160e01b600052603260045260246000fd5b600082198211156106955761069561047c565b500190565b60006000198214156106ae576106ae61047c565b5060010190565b600060ff821660ff84168060ff038211156106d2576106d261047c565b019392505050565b6000826106e9576106e96105bf565b50069056fea2646970667358221220c46253c53ef194d63f41c93fb107170a66c061ef365dbf58b0782a6a752fbe5164736f6c634300080c0033",
			"opcodes": "PUSH1 0x80 PUSH1 0x40 MSTORE PUSH1 0x1C PUSH1 0x2 SSTORE PUSH1 0x32 PUSH1 0x3 SSTORE CALLVALUE DUP1 ISZERO PUSH3 0x1B JUMPI PUSH1 0x0 DUP1 REVERT JUMPDEST POP PUSH1 0x40 MLOAD PUSH3 0x50F4 CODESIZE SUB DUP1 PUSH3 0x50F4 DUP4 CODECOPY DUP2 ADD PUSH1 0x40 DUP2 SWAP1 MSTORE PUSH3 0x3E SWAP2 PUSH3 0x67E JUMP JUMPDEST PUSH1 0x4 DUP1 SLOAD PUSH3 0x10000 PUSH1 0x1 PUSH1 0xB0 SHL SUB NOT AND PUSH3 0x10000 PUSH1 0x1 PUSH1 0x1 PUSH1 0xA0 SHL SUB DUP12 AND MUL OR SWAP1 SSTORE PUSH3 0x71 DUP8 DUP8 DUP8 DUP8 DUP8 DUP8 DUP8 PUSH3 0x7F JUMP JUMPDEST POP POP POP POP POP POP POP POP PUSH3 0x997 JUMP JUMPDEST PUSH3 0x8A DUP8 PUSH3 0x2DC JUMP JUMPDEST ISZERO PUSH3 0x270 JUMPI PUSH1 0x40 MLOAD PUSH3 0x9E SWAP1 PUSH3 0x433 JUMP JUMPDEST PUSH1 0x40 MLOAD DUP1 SWAP2 SUB SWAP1 PUSH1 0x0 CREATE DUP1 ISZERO DUP1 ISZERO PUSH3 0xBB JUMPI RETURNDATASIZE PUSH1 0x0 DUP1 RETURNDATACOPY RETURNDATASIZE PUSH1 0x0 REVERT JUMPDEST POP PUSH1 0x6 PUSH1 0x0 PUSH2 0x100 EXP DUP2 SLOAD DUP2 PUSH1 0x1 PUSH1 0x1 PUSH1 0xA0 SHL SUB MUL NOT AND SWAP1 DUP4 PUSH1 0x1 PUSH1 0x1 PUSH1 0xA0 SHL SUB AND MUL OR SWAP1 SSTORE POP DUP7 DUP7 DUP7 PUSH1 0x1 PUSH1 0x40 MLOAD PUSH3 0xF5 SWAP1 PUSH3 0x441 JUMP JUMPDEST PUSH3 0x104 SWAP5 SWAP4 SWAP3 SWAP2 SWAP1 PUSH3 0x7F0 JUMP JUMPDEST PUSH1 0x40 MLOAD DUP1 SWAP2 SUB SWAP1 PUSH1 0x0 CREATE DUP1 ISZERO DUP1 ISZERO PUSH3 0x121 JUMPI RETURNDATASIZE PUSH1 0x0 DUP1 RETURNDATACOPY RETURNDATASIZE PUSH1 0x0 REVERT JUMPDEST POP PUSH1 0x5 DUP1 SLOAD PUSH1 0x1 PUSH1 0x1 PUSH1 0xA0 SHL SUB NOT AND PUSH1 0x1 PUSH1 0x1 PUSH1 0xA0 SHL SUB SWAP3 SWAP1 SWAP3 AND SWAP2 DUP3 OR SWAP1 SSTORE PUSH1 0x40 MLOAD PUSH4 0x544D0431 PUSH1 0xE1 SHL DUP2 MSTORE PUSH4 0xA89A0862 SWAP1 PUSH3 0x16B SWAP1 CALLER SWAP1 PUSH1 0x1 SWAP1 DUP10 SWAP1 DUP10 SWAP1 PUSH1 0x4 ADD PUSH3 0x875 JUMP JUMPDEST PUSH1 0x0 PUSH1 0x40 MLOAD DUP1 DUP4 SUB DUP2 PUSH1 0x0 DUP8 DUP1 EXTCODESIZE ISZERO DUP1 ISZERO PUSH3 0x186 JUMPI PUSH1 0x0 DUP1 REVERT JUMPDEST POP GAS CALL ISZERO DUP1 ISZERO PUSH3 0x19B JUMPI RETURNDATASIZE PUSH1 0x0 DUP1 RETURNDATACOPY RETURNDATASIZE PUSH1 0x0 REVERT JUMPDEST POP POP PUSH1 0x5 SLOAD PUSH1 0x40 MLOAD PUSH4 0x544D0431 PUSH1 0xE1 SHL DUP2 MSTORE PUSH1 0x1 PUSH1 0x1 PUSH1 0xA0 SHL SUB SWAP1 SWAP2 AND SWAP3 POP PUSH4 0xA89A0862 SWAP2 POP PUSH3 0x1D8 SWAP1 CALLER SWAP1 PUSH1 0x1 SWAP1 DUP8 SWAP1 DUP8 SWAP1 PUSH1 0x4 ADD PUSH3 0x875 JUMP JUMPDEST PUSH1 0x0 PUSH1 0x40 MLOAD DUP1 DUP4 SUB DUP2 PUSH1 0x0 DUP8 DUP1 EXTCODESIZE ISZERO DUP1 ISZERO PUSH3 0x1F3 JUMPI PUSH1 0x0 DUP1 REVERT JUMPDEST POP GAS CALL ISZERO DUP1 ISZERO PUSH3 0x208 JUMPI RETURNDATASIZE PUSH1 0x0 DUP1 RETURNDATACOPY RETURNDATASIZE PUSH1 0x0 REVERT JUMPDEST POP POP DUP9 MLOAD PUSH3 0x221 SWAP3 POP PUSH1 0x0 SWAP2 POP PUSH1 0x20 DUP11 ADD SWAP1 PUSH3 0x44F JUMP JUMPDEST POP PUSH3 0x26A PUSH1 0x0 PUSH1 0x40 MLOAD DUP1 PUSH1 0x40 ADD PUSH1 0x40 MSTORE DUP1 PUSH1 0x15 DUP2 MSTORE PUSH1 0x20 ADD PUSH32 0x436F6E73756C746174696F6E2063726561746564210000000000000000000000 DUP2 MSTORE POP PUSH3 0x3C3 PUSH1 0x20 SHL PUSH1 0x20 SHR JUMP JUMPDEST PUSH3 0x2D3 JUMP JUMPDEST PUSH1 0x40 MLOAD PUSH3 0x461BCD PUSH1 0xE5 SHL DUP2 MSTORE PUSH1 0x20 PUSH1 0x4 DUP3 ADD MSTORE PUSH1 0x2E PUSH1 0x24 DUP3 ADD MSTORE PUSH32 0x4F6E65206F72206D6F72652075736572732063616E2774206372656174652061 PUSH1 0x44 DUP3 ADD MSTORE PUSH14 0x20636F6E73756C746174696F6E21 PUSH1 0x90 SHL PUSH1 0x64 DUP3 ADD MSTORE PUSH1 0x84 ADD PUSH1 0x40 MLOAD DUP1 SWAP2 SUB SWAP1 REVERT JUMPDEST POP POP POP POP POP POP POP JUMP JUMPDEST PUSH1 0x0 PUSH1 0x1 DUP2 JUMPDEST DUP4 MLOAD DUP2 LT ISZERO PUSH3 0x3BC JUMPI PUSH1 0x4 PUSH1 0x2 SWAP1 SLOAD SWAP1 PUSH2 0x100 EXP SWAP1 DIV PUSH1 0x1 PUSH1 0x1 PUSH1 0xA0 SHL SUB AND PUSH1 0x1 PUSH1 0x1 PUSH1 0xA0 SHL SUB AND PUSH4 0x297027D5 DUP6 DUP4 DUP2 MLOAD DUP2 LT PUSH3 0x325 JUMPI PUSH3 0x325 PUSH3 0x8B7 JUMP JUMPDEST PUSH1 0x20 MUL PUSH1 0x20 ADD ADD MLOAD PUSH1 0x40 MLOAD DUP3 PUSH4 0xFFFFFFFF AND PUSH1 0xE0 SHL DUP2 MSTORE PUSH1 0x4 ADD PUSH3 0x359 SWAP2 SWAP1 PUSH1 0x1 PUSH1 0x1 PUSH1 0xA0 SHL SUB SWAP2 SWAP1 SWAP2 AND DUP2 MSTORE PUSH1 0x20 ADD SWAP1 JUMP JUMPDEST PUSH1 0x20 PUSH1 0x40 MLOAD DUP1 DUP4 SUB DUP2 DUP7 GAS STATICCALL ISZERO DUP1 ISZERO PUSH3 0x377 JUMPI RETURNDATASIZE PUSH1 0x0 DUP1 RETURNDATACOPY RETURNDATASIZE PUSH1 0x0 REVERT JUMPDEST POP POP POP POP PUSH1 0x40 MLOAD RETURNDATASIZE PUSH1 0x1F NOT PUSH1 0x1F DUP3 ADD AND DUP3 ADD DUP1 PUSH1 0x40 MSTORE POP DUP2 ADD SWAP1 PUSH3 0x39D SWAP2 SWAP1 PUSH3 0x8CD JUMP JUMPDEST PUSH3 0x3A7 JUMPI PUSH1 0x0 SWAP2 POP JUMPDEST DUP1 PUSH3 0x3B3 DUP2 PUSH3 0x8F8 JUMP JUMPDEST SWAP2 POP POP PUSH3 0x2E2 JUMP JUMPDEST POP SWAP3 SWAP2 POP POP JUMP JUMPDEST PUSH1 0x4 SLOAD PUSH1 0x40 MLOAD CALLER SWAP2 PUSH32 0xFC6F5E211098B443015CCB625104A41F61E97A80DD9B8734242A9A8C3EECC8DC SWAP2 PUSH3 0x400 SWAP2 PUSH1 0xFF AND SWAP1 DUP7 SWAP1 DUP7 SWAP1 PUSH3 0x95B JUMP JUMPDEST PUSH1 0x40 MLOAD DUP1 SWAP2 SUB SWAP1 LOG2 PUSH1 0x4 DUP1 SLOAD DUP4 SWAP2 SWAP1 PUSH1 0xFF NOT AND PUSH1 0x1 DUP4 PUSH1 0x5 DUP2 GT ISZERO PUSH3 0x42A JUMPI PUSH3 0x42A PUSH3 0x922 JUMP JUMPDEST MUL OR SWAP1 SSTORE POP POP POP JUMP JUMPDEST PUSH2 0x744 DUP1 PUSH3 0x1F9F DUP4 CODECOPY ADD SWAP1 JUMP JUMPDEST PUSH2 0x2A11 DUP1 PUSH3 0x26E3 DUP4 CODECOPY ADD SWAP1 JUMP JUMPDEST DUP3 DUP1 SLOAD DUP3 DUP3 SSTORE SWAP1 PUSH1 0x0 MSTORE PUSH1 0x20 PUSH1 0x0 KECCAK256 SWAP1 DUP2 ADD SWAP3 DUP3 ISZERO PUSH3 0x4A7 JUMPI SWAP2 PUSH1 0x20 MUL DUP3 ADD JUMPDEST DUP3 DUP2 GT ISZERO PUSH3 0x4A7 JUMPI DUP3 MLOAD DUP3 SLOAD PUSH1 0x1 PUSH1 0x1 PUSH1 0xA0 SHL SUB NOT AND PUSH1 0x1 PUSH1 0x1 PUSH1 0xA0 SHL SUB SWAP1 SWAP2 AND OR DUP3 SSTORE PUSH1 0x20 SWAP1 SWAP3 ADD SWAP2 PUSH1 0x1 SWAP1 SWAP2 ADD SWAP1 PUSH3 0x470 JUMP JUMPDEST POP PUSH3 0x4B5 SWAP3 SWAP2 POP PUSH3 0x4B9 JUMP JUMPDEST POP SWAP1 JUMP JUMPDEST JUMPDEST DUP1 DUP3 GT ISZERO PUSH3 0x4B5 JUMPI PUSH1 0x0 DUP2 SSTORE PUSH1 0x1 ADD PUSH3 0x4BA JUMP JUMPDEST PUSH1 0x1 PUSH1 0x1 PUSH1 0xA0 SHL SUB DUP2 AND DUP2 EQ PUSH3 0x4E6 JUMPI PUSH1 0x0 DUP1 REVERT JUMPDEST POP JUMP JUMPDEST DUP1 MLOAD PUSH3 0x4F6 DUP2 PUSH3 0x4D0 JUMP JUMPDEST SWAP2 SWAP1 POP JUMP JUMPDEST PUSH4 0x4E487B71 PUSH1 0xE0 SHL PUSH1 0x0 MSTORE PUSH1 0x41 PUSH1 0x4 MSTORE PUSH1 0x24 PUSH1 0x0 REVERT JUMPDEST PUSH1 0x40 MLOAD PUSH1 0x1F DUP3 ADD PUSH1 0x1F NOT AND DUP2 ADD PUSH1 0x1 PUSH1 0x1 PUSH1 0x40 SHL SUB DUP2 GT DUP3 DUP3 LT OR ISZERO PUSH3 0x53C JUMPI PUSH3 0x53C PUSH3 0x4FB JUMP JUMPDEST PUSH1 0x40 MSTORE SWAP2 SWAP1 POP JUMP JUMPDEST PUSH1 0x0 DUP3 PUSH1 0x1F DUP4 ADD SLT PUSH3 0x556 JUMPI PUSH1 0x0 DUP1 REVERT JUMPDEST DUP2 MLOAD PUSH1 0x20 PUSH1 0x1 PUSH1 0x1 PUSH1 0x40 SHL SUB DUP3 GT ISZERO PUSH3 0x574 JUMPI PUSH3 0x574 PUSH3 0x4FB JUMP JUMPDEST DUP2 PUSH1 0x5 SHL PUSH3 0x585 DUP3 DUP3 ADD PUSH3 0x511 JUMP JUMPDEST SWAP3 DUP4 MSTORE DUP5 DUP2 ADD DUP3 ADD SWAP3 DUP3 DUP2 ADD SWAP1 DUP8 DUP6 GT ISZERO PUSH3 0x5A0 JUMPI PUSH1 0x0 DUP1 REVERT JUMPDEST DUP4 DUP8 ADD SWAP3 POP JUMPDEST DUP5 DUP4 LT ISZERO PUSH3 0x5CC JUMPI DUP3 MLOAD PUSH3 0x5BC DUP2 PUSH3 0x4D0 JUMP JUMPDEST DUP3 MSTORE SWAP2 DUP4 ADD SWAP2 SWAP1 DUP4 ADD SWAP1 PUSH3 0x5A6 JUMP JUMPDEST SWAP8 SWAP7 POP POP POP POP POP POP POP JUMP JUMPDEST PUSH1 0x0 JUMPDEST DUP4 DUP2 LT ISZERO PUSH3 0x5F4 JUMPI DUP2 DUP2 ADD MLOAD DUP4 DUP3 ADD MSTORE PUSH1 0x20 ADD PUSH3 0x5DA JUMP JUMPDEST DUP4 DUP2 GT ISZERO PUSH3 0x604 JUMPI PUSH1 0x0 DUP5 DUP5 ADD MSTORE JUMPDEST POP POP POP POP JUMP JUMPDEST PUSH1 0x0 DUP3 PUSH1 0x1F DUP4 ADD SLT PUSH3 0x61C JUMPI PUSH1 0x0 DUP1 REVERT JUMPDEST DUP2 MLOAD PUSH1 0x1 PUSH1 0x1 PUSH1 0x40 SHL SUB DUP2 GT ISZERO PUSH3 0x638 JUMPI PUSH3 0x638 PUSH3 0x4FB JUMP JUMPDEST PUSH3 0x64D PUSH1 0x1F DUP3 ADD PUSH1 0x1F NOT AND PUSH1 0x20 ADD PUSH3 0x511 JUMP JUMPDEST DUP2 DUP2 MSTORE DUP5 PUSH1 0x20 DUP4 DUP7 ADD ADD GT ISZERO PUSH3 0x663 JUMPI PUSH1 0x0 DUP1 REVERT JUMPDEST PUSH3 0x676 DUP3 PUSH1 0x20 DUP4 ADD PUSH1 0x20 DUP8 ADD PUSH3 0x5D7 JUMP JUMPDEST SWAP5 SWAP4 POP POP POP POP JUMP JUMPDEST PUSH1 0x0 DUP1 PUSH1 0x0 DUP1 PUSH1 0x0 DUP1 PUSH1 0x0 DUP1 PUSH2 0x100 DUP10 DUP12 SUB SLT ISZERO PUSH3 0x69C JUMPI PUSH1 0x0 DUP1 REVERT JUMPDEST PUSH3 0x6A7 DUP10 PUSH3 0x4E9 JUMP JUMPDEST PUSH1 0x20 DUP11 ADD MLOAD SWAP1 SWAP9 POP PUSH1 0x1 PUSH1 0x1 PUSH1 0x40 SHL SUB DUP1 DUP3 GT ISZERO PUSH3 0x6C5 JUMPI PUSH1 0x0 DUP1 REVERT JUMPDEST PUSH3 0x6D3 DUP13 DUP4 DUP14 ADD PUSH3 0x544 JUMP JUMPDEST SWAP9 POP PUSH1 0x40 DUP12 ADD MLOAD SWAP2 POP DUP1 DUP3 GT ISZERO PUSH3 0x6EA JUMPI PUSH1 0x0 DUP1 REVERT JUMPDEST PUSH3 0x6F8 DUP13 DUP4 DUP14 ADD PUSH3 0x60A JUMP JUMPDEST SWAP8 POP PUSH1 0x60 DUP12 ADD MLOAD SWAP2 POP DUP1 DUP3 GT ISZERO PUSH3 0x70F JUMPI PUSH1 0x0 DUP1 REVERT JUMPDEST PUSH3 0x71D DUP13 DUP4 DUP14 ADD PUSH3 0x60A JUMP JUMPDEST SWAP7 POP PUSH1 0x80 DUP12 ADD MLOAD SWAP2 POP DUP1 DUP3 GT ISZERO PUSH3 0x734 JUMPI PUSH1 0x0 DUP1 REVERT JUMPDEST PUSH3 0x742 DUP13 DUP4 DUP14 ADD PUSH3 0x60A JUMP JUMPDEST SWAP6 POP PUSH1 0xA0 DUP12 ADD MLOAD SWAP2 POP DUP1 DUP3 GT ISZERO PUSH3 0x759 JUMPI PUSH1 0x0 DUP1 REVERT JUMPDEST PUSH3 0x767 DUP13 DUP4 DUP14 ADD PUSH3 0x60A JUMP JUMPDEST SWAP5 POP PUSH1 0xC0 DUP12 ADD MLOAD SWAP2 POP DUP1 DUP3 GT ISZERO PUSH3 0x77E JUMPI PUSH1 0x0 DUP1 REVERT JUMPDEST PUSH3 0x78C DUP13 DUP4 DUP14 ADD PUSH3 0x60A JUMP JUMPDEST SWAP4 POP PUSH1 0xE0 DUP12 ADD MLOAD SWAP2 POP DUP1 DUP3 GT ISZERO PUSH3 0x7A3 JUMPI PUSH1 0x0 DUP1 REVERT JUMPDEST POP PUSH3 0x7B2 DUP12 DUP3 DUP13 ADD PUSH3 0x60A JUMP JUMPDEST SWAP2 POP POP SWAP3 SWAP6 SWAP9 POP SWAP3 SWAP6 SWAP9 SWAP1 SWAP4 SWAP7 POP JUMP JUMPDEST PUSH1 0x0 DUP2 MLOAD DUP1 DUP5 MSTORE PUSH3 0x7DC DUP2 PUSH1 0x20 DUP7 ADD PUSH1 0x20 DUP7 ADD PUSH3 0x5D7 JUMP JUMPDEST PUSH1 0x1F ADD PUSH1 0x1F NOT AND SWAP3 SWAP1 SWAP3 ADD PUSH1 0x20 ADD SWAP3 SWAP2 POP POP JUMP JUMPDEST PUSH1 0x80 DUP1 DUP3 MSTORE DUP6 MLOAD SWAP1 DUP3 ADD DUP2 SWAP1 MSTORE PUSH1 0x0 SWAP1 PUSH1 0x20 SWAP1 PUSH1 0xA0 DUP5 ADD SWAP1 DUP3 DUP10 ADD DUP5 JUMPDEST DUP3 DUP2 LT ISZERO PUSH3 0x834 JUMPI DUP2 MLOAD PUSH1 0x1 PUSH1 0x1 PUSH1 0xA0 SHL SUB AND DUP5 MSTORE SWAP3 DUP5 ADD SWAP3 SWAP1 DUP5 ADD SWAP1 PUSH1 0x1 ADD PUSH3 0x80D JUMP JUMPDEST POP POP POP DUP4 DUP2 SUB DUP3 DUP6 ADD MSTORE PUSH3 0x84A DUP2 DUP9 PUSH3 0x7C2 JUMP JUMPDEST SWAP2 POP POP DUP3 DUP2 SUB PUSH1 0x40 DUP5 ADD MSTORE PUSH3 0x861 DUP2 DUP7 PUSH3 0x7C2 JUMP JUMPDEST SWAP2 POP POP DUP3 ISZERO ISZERO PUSH1 0x60 DUP4 ADD MSTORE SWAP6 SWAP5 POP POP POP POP POP JUMP JUMPDEST PUSH1 0x1 PUSH1 0x1 PUSH1 0xA0 SHL SUB DUP6 AND DUP2 MSTORE DUP4 ISZERO ISZERO PUSH1 0x20 DUP3 ADD MSTORE PUSH1 0x80 PUSH1 0x40 DUP3 ADD DUP2 SWAP1 MSTORE PUSH1 0x0 SWAP1 PUSH3 0x8A3 SWAP1 DUP4 ADD DUP6 PUSH3 0x7C2 JUMP JUMPDEST DUP3 DUP2 SUB PUSH1 0x60 DUP5 ADD MSTORE PUSH3 0x5CC DUP2 DUP6 PUSH3 0x7C2 JUMP JUMPDEST PUSH4 0x4E487B71 PUSH1 0xE0 SHL PUSH1 0x0 MSTORE PUSH1 0x32 PUSH1 0x4 MSTORE PUSH1 0x24 PUSH1 0x0 REVERT JUMPDEST PUSH1 0x0 PUSH1 0x20 DUP3 DUP5 SUB SLT ISZERO PUSH3 0x8E0 JUMPI PUSH1 0x0 DUP1 REVERT JUMPDEST DUP2 MLOAD DUP1 ISZERO ISZERO DUP2 EQ PUSH3 0x8F1 JUMPI PUSH1 0x0 DUP1 REVERT JUMPDEST SWAP4 SWAP3 POP POP POP JUMP JUMPDEST PUSH1 0x0 PUSH1 0x0 NOT DUP3 EQ ISZERO PUSH3 0x91B JUMPI PUSH4 0x4E487B71 PUSH1 0xE0 SHL PUSH1 0x0 MSTORE PUSH1 0x11 PUSH1 0x4 MSTORE PUSH1 0x24 PUSH1 0x0 REVERT JUMPDEST POP PUSH1 0x1 ADD SWAP1 JUMP JUMPDEST PUSH4 0x4E487B71 PUSH1 0xE0 SHL PUSH1 0x0 MSTORE PUSH1 0x21 PUSH1 0x4 MSTORE PUSH1 0x24 PUSH1 0x0 REVERT JUMPDEST PUSH1 0x6 DUP2 LT PUSH3 0x957 JUMPI PUSH4 0x4E487B71 PUSH1 0xE0 SHL PUSH1 0x0 MSTORE PUSH1 0x21 PUSH1 0x4 MSTORE PUSH1 0x24 PUSH1 0x0 REVERT JUMPDEST SWAP1 MSTORE JUMP JUMPDEST PUSH3 0x967 DUP2 DUP6 PUSH3 0x938 JUMP JUMPDEST PUSH3 0x976 PUSH1 0x20 DUP3 ADD DUP5 PUSH3 0x938 JUMP JUMPDEST PUSH1 0x60 PUSH1 0x40 DUP3 ADD MSTORE PUSH1 0x0 PUSH3 0x98E PUSH1 0x60 DUP4 ADD DUP5 PUSH3 0x7C2 JUMP JUMPDEST SWAP6 SWAP5 POP POP POP POP POP JUMP JUMPDEST PUSH2 0x15F8 DUP1 PUSH3 0x9A7 PUSH1 0x0 CODECOPY PUSH1 0x0 RETURN INVALID PUSH1 0x80 PUSH1 0x40 MSTORE CALLVALUE DUP1 ISZERO PUSH2 0x10 JUMPI PUSH1 0x0 DUP1 REVERT JUMPDEST POP PUSH1 0x4 CALLDATASIZE LT PUSH2 0x14D JUMPI PUSH1 0x0 CALLDATALOAD PUSH1 0xE0 SHR DUP1 PUSH4 0x96E3F4C5 GT PUSH2 0xC3 JUMPI DUP1 PUSH4 0xD0F3725F GT PUSH2 0x7C JUMPI DUP1 PUSH4 0xD0F3725F EQ PUSH2 0x278 JUMPI DUP1 PUSH4 0xDE292789 EQ PUSH2 0x280 JUMPI DUP1 PUSH4 0xDEFB4DD6 EQ PUSH2 0x288 JUMPI DUP1 PUSH4 0xE53D8F1D EQ PUSH2 0x290 JUMPI DUP1 PUSH4 0xF3E4E385 EQ PUSH2 0x298 JUMPI DUP1 PUSH4 0xF53CABF6 EQ PUSH2 0x2AB JUMPI PUSH1 0x0 DUP1 REVERT JUMPDEST DUP1 PUSH4 0x96E3F4C5 EQ PUSH2 0x21F JUMPI DUP1 PUSH4 0xA49DA4B3 EQ PUSH2 0x227 JUMPI DUP1 PUSH4 0xC19D93FB EQ PUSH2 0x230 JUMPI DUP1 PUSH4 0xC2E862B4 EQ PUSH2 0x24A JUMPI DUP1 PUSH4 0xC36E4E6C EQ PUSH2 0x25D JUMPI DUP1 PUSH4 0xCA368F04 EQ PUSH2 0x270 JUMPI PUSH1 0x0 DUP1 REVERT JUMPDEST DUP1 PUSH4 0x41C12A70 GT PUSH2 0x115 JUMPI DUP1 PUSH4 0x41C12A70 EQ PUSH2 0x1D7 JUMPI DUP1 PUSH4 0x49AA4EE2 EQ PUSH2 0x1E1 JUMPI DUP1 PUSH4 0x6A8BC3BD EQ PUSH2 0x1E9 JUMPI DUP1 PUSH4 0x77A1736B EQ PUSH2 0x1F1 JUMPI DUP1 PUSH4 0x7FE63D70 EQ PUSH2 0x204 JUMPI DUP1 PUSH4 0x89A713C3 EQ PUSH2 0x217 JUMPI PUSH1 0x0 DUP1 REVERT JUMPDEST DUP1 PUSH4 0x25E7C27 EQ PUSH2 0x152 JUMPI DUP1 PUSH4 0x102533C1 EQ PUSH2 0x182 JUMPI DUP1 PUSH4 0x159E7064 EQ PUSH2 0x198 JUMPI DUP1 PUSH4 0x2FD0D870 EQ PUSH2 0x1B0 JUMPI DUP1 PUSH4 0x3E422F5F EQ PUSH2 0x1B8 JUMPI JUMPDEST PUSH1 0x0 DUP1 REVERT JUMPDEST PUSH2 0x165 PUSH2 0x160 CALLDATASIZE PUSH1 0x4 PUSH2 0x1057 JUMP JUMPDEST PUSH2 0x2BE JUMP JUMPDEST PUSH1 0x40 MLOAD PUSH1 0x1 PUSH1 0x1 PUSH1 0xA0 SHL SUB SWAP1 SWAP2 AND DUP2 MSTORE PUSH1 0x20 ADD JUMPDEST PUSH1 0x40 MLOAD DUP1 SWAP2 SUB SWAP1 RETURN JUMPDEST PUSH2 0x18A PUSH2 0x2E8 JUMP JUMPDEST PUSH1 0x40 MLOAD SWAP1 DUP2 MSTORE PUSH1 0x20 ADD PUSH2 0x179 JUMP JUMPDEST PUSH2 0x1A0 PUSH2 0x393 JUMP JUMPDEST PUSH1 0x40 MLOAD SWAP1 ISZERO ISZERO DUP2 MSTORE PUSH1 0x20 ADD PUSH2 0x179 JUMP JUMPDEST PUSH2 0x18A PUSH2 0x51B JUMP JUMPDEST PUSH1 0x4 SLOAD PUSH2 0x1CA SWAP1 PUSH2 0x100 SWAP1 DIV PUSH1 0xFF AND DUP2 JUMP JUMPDEST PUSH1 0x40 MLOAD PUSH2 0x179 SWAP2 SWAP1 PUSH2 0x1096 JUMP JUMPDEST PUSH2 0x1DF PUSH2 0x58E JUMP JUMPDEST STOP JUMPDEST PUSH2 0x1DF PUSH2 0x634 JUMP JUMPDEST PUSH2 0x1DF PUSH2 0x72E JUMP JUMPDEST PUSH2 0x1DF PUSH2 0x1FF CALLDATASIZE PUSH1 0x4 PUSH2 0x1152 JUMP JUMPDEST PUSH2 0x7C8 JUMP JUMPDEST PUSH2 0x1A0 PUSH2 0x212 CALLDATASIZE PUSH1 0x4 PUSH2 0x1152 JUMP JUMPDEST PUSH2 0x903 JUMP JUMPDEST PUSH2 0x18A PUSH2 0x9DE JUMP JUMPDEST PUSH2 0x1A0 PUSH2 0xA73 JUMP JUMPDEST PUSH2 0x18A PUSH1 0x2 SLOAD DUP2 JUMP JUMPDEST PUSH1 0x4 SLOAD PUSH2 0x23D SWAP1 PUSH1 0xFF AND DUP2 JUMP JUMPDEST PUSH1 0x40 MLOAD PUSH2 0x179 SWAP2 SWAP1 PUSH2 0x1205 JUMP JUMPDEST PUSH2 0x165 PUSH2 0x258 CALLDATASIZE PUSH1 0x4 PUSH2 0x1057 JUMP JUMPDEST PUSH2 0xB24 JUMP JUMPDEST PUSH2 0x1A0 PUSH2 0x26B CALLDATASIZE PUSH1 0x4 PUSH2 0x1152 JUMP JUMPDEST PUSH2 0xB34 JUMP JUMPDEST PUSH2 0x1DF PUSH2 0xC08 JUMP JUMPDEST PUSH2 0x1A0 PUSH2 0xCA0 JUMP JUMPDEST PUSH2 0x1CA PUSH2 0xCDA JUMP JUMPDEST PUSH2 0x18A PUSH2 0xD17 JUMP JUMPDEST PUSH2 0x1A0 PUSH2 0xDB2 JUMP JUMPDEST PUSH2 0x1DF PUSH2 0x2A6 CALLDATASIZE PUSH1 0x4 PUSH2 0x1152 JUMP JUMPDEST PUSH2 0xDD2 JUMP JUMPDEST PUSH2 0x1A0 PUSH2 0x2B9 CALLDATASIZE PUSH1 0x4 PUSH2 0x1152 JUMP JUMPDEST PUSH2 0xEA6 JUMP JUMPDEST PUSH1 0x0 DUP2 DUP2 SLOAD DUP2 LT PUSH2 0x2CE JUMPI PUSH1 0x0 DUP1 REVERT JUMPDEST PUSH1 0x0 SWAP2 DUP3 MSTORE PUSH1 0x20 SWAP1 SWAP2 KECCAK256 ADD SLOAD PUSH1 0x1 PUSH1 0x1 PUSH1 0xA0 SHL SUB AND SWAP1 POP DUP2 JUMP JUMPDEST PUSH1 0x0 DUP1 PUSH1 0x5 PUSH1 0x0 SWAP1 SLOAD SWAP1 PUSH2 0x100 EXP SWAP1 DIV PUSH1 0x1 PUSH1 0x1 PUSH1 0xA0 SHL SUB AND PUSH1 0x1 PUSH1 0x1 PUSH1 0xA0 SHL SUB AND PUSH4 0xCC2EE196 PUSH1 0x40 MLOAD DUP2 PUSH4 0xFFFFFFFF AND PUSH1 0xE0 SHL DUP2 MSTORE PUSH1 0x4 ADD PUSH1 0x0 PUSH1 0x40 MLOAD DUP1 DUP4 SUB DUP2 DUP7 GAS STATICCALL ISZERO DUP1 ISZERO PUSH2 0x33E JUMPI RETURNDATASIZE PUSH1 0x0 DUP1 RETURNDATACOPY RETURNDATASIZE PUSH1 0x0 REVERT JUMPDEST POP POP POP POP PUSH1 0x40 MLOAD RETURNDATASIZE PUSH1 0x0 DUP3 RETURNDATACOPY PUSH1 0x1F RETURNDATASIZE SWAP1 DUP2 ADD PUSH1 0x1F NOT AND DUP3 ADD PUSH1 0x40 MSTORE PUSH2 0x366 SWAP2 SWAP1 DUP2 ADD SWAP1 PUSH2 0x12D5 JUMP JUMPDEST SWAP1 POP PUSH1 0x0 DUP2 PUSH1 0x0 DUP2 MLOAD DUP2 LT PUSH2 0x37D JUMPI PUSH2 0x37D PUSH2 0x1431 JUMP JUMPDEST PUSH1 0x20 SWAP1 DUP2 MUL SWAP2 SWAP1 SWAP2 ADD ADD MLOAD PUSH1 0xC0 ADD MLOAD SWAP4 SWAP3 POP POP POP JUMP JUMPDEST PUSH1 0x4 DUP1 SLOAD PUSH1 0x40 MLOAD PUSH4 0x56909B7 PUSH1 0xE0 SHL DUP2 MSTORE CALLER SWAP3 DUP2 ADD DUP4 SWAP1 MSTORE PUSH1 0x0 SWAP3 SWAP2 PUSH3 0x10000 SWAP1 DIV PUSH1 0x1 PUSH1 0x1 PUSH1 0xA0 SHL SUB AND SWAP1 PUSH4 0x56909B7 SWAP1 PUSH1 0x24 ADD PUSH1 0x20 PUSH1 0x40 MLOAD DUP1 DUP4 SUB DUP2 DUP7 GAS STATICCALL ISZERO DUP1 ISZERO PUSH2 0x3E5 JUMPI RETURNDATASIZE PUSH1 0x0 DUP1 RETURNDATACOPY RETURNDATASIZE PUSH1 0x0 REVERT JUMPDEST POP POP POP POP PUSH1 0x40 MLOAD RETURNDATASIZE PUSH1 0x1F NOT PUSH1 0x1F DUP3 ADD AND DUP3 ADD DUP1 PUSH1 0x40 MSTORE POP DUP2 ADD SWAP1 PUSH2 0x409 SWAP2 SWAP1 PUSH2 0x1447 JUMP JUMPDEST DUP1 PUSH2 0x487 JUMPI POP PUSH1 0x4 DUP1 SLOAD PUSH1 0x40 MLOAD PUSH4 0x7D26BD57 PUSH1 0xE1 SHL DUP2 MSTORE PUSH1 0x1 PUSH1 0x1 PUSH1 0xA0 SHL SUB DUP5 DUP2 AND SWAP4 DUP3 ADD SWAP4 SWAP1 SWAP4 MSTORE PUSH3 0x10000 SWAP1 SWAP2 DIV SWAP1 SWAP2 AND SWAP1 PUSH4 0xFA4D7AAE SWAP1 PUSH1 0x24 ADD PUSH1 0x20 PUSH1 0x40 MLOAD DUP1 DUP4 SUB DUP2 DUP7 GAS STATICCALL ISZERO DUP1 ISZERO PUSH2 0x463 JUMPI RETURNDATASIZE PUSH1 0x0 DUP1 RETURNDATACOPY RETURNDATASIZE PUSH1 0x0 REVERT JUMPDEST POP POP POP POP PUSH1 0x40 MLOAD RETURNDATASIZE PUSH1 0x1F NOT PUSH1 0x1F DUP3 ADD AND DUP3 ADD DUP1 PUSH1 0x40 MSTORE POP DUP2 ADD SWAP1 PUSH2 0x487 SWAP2 SWAP1 PUSH2 0x1447 JUMP JUMPDEST DUP1 PUSH2 0x506 JUMPI POP PUSH1 0x4 DUP1 SLOAD PUSH1 0x40 MLOAD PUSH4 0x297027D5 PUSH1 0xE0 SHL DUP2 MSTORE PUSH1 0x1 PUSH1 0x1 PUSH1 0xA0 SHL SUB DUP5 DUP2 AND SWAP4 DUP3 ADD SWAP4 SWAP1 SWAP4 MSTORE PUSH3 0x10000 SWAP1 SWAP2 DIV SWAP1 SWAP2 AND SWAP1 PUSH4 0x297027D5 SWAP1 PUSH1 0x24 ADD JUMPDEST PUSH1 0x20 PUSH1 0x40 MLOAD DUP1 DUP4 SUB DUP2 DUP7 GAS STATICCALL ISZERO DUP1 ISZERO PUSH2 0x4E2 JUMPI RETURNDATASIZE PUSH1 0x0 DUP1 RETURNDATACOPY RETURNDATASIZE PUSH1 0x0 REVERT JUMPDEST POP POP POP POP PUSH1 0x40 MLOAD RETURNDATASIZE PUSH1 0x1F NOT PUSH1 0x1F DUP3 ADD AND DUP3 ADD DUP1 PUSH1 0x40 MSTORE POP DUP2 ADD SWAP1 PUSH2 0x506 SWAP2 SWAP1 PUSH2 0x1447 JUMP JUMPDEST ISZERO PUSH2 0x513 JUMPI PUSH1 0x1 SWAP2 POP POP SWAP1 JUMP JUMPDEST PUSH1 0x0 SWAP2 POP POP SWAP1 JUMP JUMPDEST PUSH1 0x5 SLOAD PUSH1 0x40 DUP1 MLOAD PUSH4 0x11174A29 PUSH1 0xE0 SHL DUP2 MSTORE SWAP1 MLOAD PUSH1 0x0 SWAP3 PUSH1 0x1 PUSH1 0x1 PUSH1 0xA0 SHL SUB AND SWAP2 PUSH4 0x11174A29 SWAP2 PUSH1 0x4 DUP1 DUP4 ADD SWAP3 PUSH1 0x20 SWAP3 SWAP2 SWAP1 DUP3 SWAP1 SUB ADD DUP2 DUP7 GAS STATICCALL ISZERO DUP1 ISZERO PUSH2 0x565 JUMPI RETURNDATASIZE PUSH1 0x0 DUP1 RETURNDATACOPY RETURNDATASIZE PUSH1 0x0 REVERT JUMPDEST POP POP POP POP PUSH1 0x40 MLOAD RETURNDATASIZE PUSH1 0x1F NOT PUSH1 0x1F DUP3 ADD AND DUP3 ADD DUP1 PUSH1 0x40 MSTORE POP DUP2 ADD SWAP1 PUSH2 0x589 SWAP2 SWAP1 PUSH2 0x1469 JUMP JUMPDEST SWAP1 POP SWAP1 JUMP JUMPDEST PUSH1 0x0 DUP1 PUSH1 0x4 SLOAD PUSH1 0xFF AND PUSH1 0x5 DUP2 GT ISZERO PUSH2 0x5A8 JUMPI PUSH2 0x5A8 PUSH2 0x1070 JUMP JUMPDEST EQ DUP1 PUSH2 0x5CA JUMPI POP PUSH1 0x1 PUSH1 0x4 SLOAD PUSH1 0xFF AND PUSH1 0x5 DUP2 GT ISZERO PUSH2 0x5C8 JUMPI PUSH2 0x5C8 PUSH2 0x1070 JUMP JUMPDEST EQ JUMPDEST DUP1 PUSH2 0x5EB JUMPI POP PUSH1 0x2 PUSH1 0x4 SLOAD PUSH1 0xFF AND PUSH1 0x5 DUP2 GT ISZERO PUSH2 0x5E9 JUMPI PUSH2 0x5E9 PUSH2 0x1070 JUMP JUMPDEST EQ JUMPDEST ISZERO PUSH2 0x600 JUMPI PUSH2 0x5F8 PUSH2 0xA73 JUMP JUMPDEST PUSH2 0x600 JUMPI POP PUSH1 0x1 JUMPDEST DUP1 PUSH2 0x626 JUMPI PUSH1 0x40 MLOAD PUSH3 0x461BCD PUSH1 0xE5 SHL DUP2 MSTORE PUSH1 0x4 ADD PUSH2 0x61D SWAP1 PUSH2 0x1482 JUMP JUMPDEST PUSH1 0x40 MLOAD DUP1 SWAP2 SUB SWAP1 REVERT JUMPDEST PUSH2 0x631 PUSH2 0x3E9 PUSH2 0xF7A JUMP JUMPDEST POP JUMP JUMPDEST PUSH1 0x0 DUP1 PUSH1 0x4 SLOAD PUSH1 0xFF AND PUSH1 0x5 DUP2 GT ISZERO PUSH2 0x64E JUMPI PUSH2 0x64E PUSH2 0x1070 JUMP JUMPDEST EQ DUP1 PUSH2 0x670 JUMPI POP PUSH1 0x1 PUSH1 0x4 SLOAD PUSH1 0xFF AND PUSH1 0x5 DUP2 GT ISZERO PUSH2 0x66E JUMPI PUSH2 0x66E PUSH2 0x1070 JUMP JUMPDEST EQ JUMPDEST DUP1 PUSH2 0x691 JUMPI POP PUSH1 0x2 PUSH1 0x4 SLOAD PUSH1 0xFF AND PUSH1 0x5 DUP2 GT ISZERO PUSH2 0x68F JUMPI PUSH2 0x68F PUSH2 0x1070 JUMP JUMPDEST EQ JUMPDEST ISZERO PUSH2 0x6A6 JUMPI PUSH2 0x69E PUSH2 0xA73 JUMP JUMPDEST PUSH2 0x6A6 JUMPI POP PUSH1 0x1 JUMPDEST DUP1 PUSH2 0x6C3 JUMPI PUSH1 0x40 MLOAD PUSH3 0x461BCD PUSH1 0xE5 SHL DUP2 MSTORE PUSH1 0x4 ADD PUSH2 0x61D SWAP1 PUSH2 0x1482 JUMP JUMPDEST PUSH1 0x5 PUSH1 0x0 SWAP1 SLOAD SWAP1 PUSH2 0x100 EXP SWAP1 DIV PUSH1 0x1 PUSH1 0x1 PUSH1 0xA0 SHL SUB AND PUSH1 0x1 PUSH1 0x1 PUSH1 0xA0 SHL SUB AND PUSH4 0xD9F3A5C1 PUSH1 0x40 MLOAD DUP2 PUSH4 0xFFFFFFFF AND PUSH1 0xE0 SHL DUP2 MSTORE PUSH1 0x4 ADD PUSH1 0x0 PUSH1 0x40 MLOAD DUP1 DUP4 SUB DUP2 PUSH1 0x0 DUP8 DUP1 EXTCODESIZE ISZERO DUP1 ISZERO PUSH2 0x713 JUMPI PUSH1 0x0 DUP1 REVERT JUMPDEST POP GAS CALL ISZERO DUP1 ISZERO PUSH2 0x727 JUMPI RETURNDATASIZE PUSH1 0x0 DUP1 RETURNDATACOPY RETURNDATASIZE PUSH1 0x0 REVERT JUMPDEST POP POP POP POP POP JUMP JUMPDEST PUSH1 0x0 DUP1 PUSH1 0x4 SLOAD PUSH1 0xFF AND PUSH1 0x5 DUP2 GT ISZERO PUSH2 0x748 JUMPI PUSH2 0x748 PUSH2 0x1070 JUMP JUMPDEST EQ DUP1 PUSH2 0x76A JUMPI POP PUSH1 0x1 PUSH1 0x4 SLOAD PUSH1 0xFF AND PUSH1 0x5 DUP2 GT ISZERO PUSH2 0x768 JUMPI PUSH2 0x768 PUSH2 0x1070 JUMP JUMPDEST EQ JUMPDEST DUP1 PUSH2 0x78B JUMPI POP PUSH1 0x2 PUSH1 0x4 SLOAD PUSH1 0xFF AND PUSH1 0x5 DUP2 GT ISZERO PUSH2 0x789 JUMPI PUSH2 0x789 PUSH2 0x1070 JUMP JUMPDEST EQ JUMPDEST ISZERO PUSH2 0x7A0 JUMPI PUSH2 0x798 PUSH2 0xA73 JUMP JUMPDEST PUSH2 0x7A0 JUMPI POP PUSH1 0x1 JUMPDEST DUP1 PUSH2 0x7BD JUMPI PUSH1 0x40 MLOAD PUSH3 0x461BCD PUSH1 0xE5 SHL DUP2 MSTORE PUSH1 0x4 ADD PUSH2 0x61D SWAP1 PUSH2 0x1482 JUMP JUMPDEST PUSH2 0x631 PUSH2 0x3E8 PUSH2 0xF7A JUMP JUMPDEST PUSH1 0x0 PUSH1 0x4 SLOAD PUSH1 0xFF AND PUSH1 0x5 DUP2 GT ISZERO PUSH2 0x7E1 JUMPI PUSH2 0x7E1 PUSH2 0x1070 JUMP JUMPDEST EQ ISZERO PUSH2 0x87F JUMPI PUSH2 0x7F0 DUP2 PUSH2 0x903 JUMP JUMPDEST ISZERO PUSH2 0x818 JUMPI PUSH2 0x631 PUSH1 0x1 PUSH1 0x40 MLOAD DUP1 PUSH1 0x60 ADD PUSH1 0x40 MSTORE DUP1 PUSH1 0x24 DUP2 MSTORE PUSH1 0x20 ADD PUSH2 0x157E PUSH1 0x24 SWAP2 CODECOPY PUSH2 0xFC0 JUMP JUMPDEST PUSH1 0x40 MLOAD PUSH3 0x461BCD PUSH1 0xE5 SHL DUP2 MSTORE PUSH1 0x20 PUSH1 0x4 DUP3 ADD MSTORE PUSH1 0x36 PUSH1 0x24 DUP3 ADD MSTORE PUSH32 0x4F6E6C79204D656D62657273206F662074686520636F756E63696C2063616E20 PUSH1 0x44 DUP3 ADD MSTORE PUSH22 0x30B8383937BB329031B7B739BAB63A30BA34B7B73997 PUSH1 0x51 SHL PUSH1 0x64 DUP3 ADD MSTORE PUSH1 0x84 ADD PUSH2 0x61D JUMP JUMPDEST PUSH1 0x40 MLOAD PUSH3 0x461BCD PUSH1 0xE5 SHL DUP2 MSTORE PUSH1 0x20 PUSH1 0x4 DUP3 ADD MSTORE PUSH1 0x4D PUSH1 0x24 DUP3 ADD MSTORE PUSH32 0x436F6E73756C746174696F6E206973206E6F7420696E20746865202743726561 PUSH1 0x44 DUP3 ADD MSTORE PUSH32 0x7465642720737461746520616E642063616E207468657265666F7265206E6F74 PUSH1 0x64 DUP3 ADD MSTORE PUSH13 0x1031329030B8383937BB32B217 PUSH1 0x99 SHL PUSH1 0x84 DUP3 ADD MSTORE PUSH1 0xA4 ADD PUSH2 0x61D JUMP JUMPDEST PUSH1 0x0 PUSH1 0x1 DUP2 JUMPDEST DUP4 MLOAD DUP2 LT ISZERO PUSH2 0x9D7 JUMPI PUSH1 0x4 PUSH1 0x2 SWAP1 SLOAD SWAP1 PUSH2 0x100 EXP SWAP1 DIV PUSH1 0x1 PUSH1 0x1 PUSH1 0xA0 SHL SUB AND PUSH1 0x1 PUSH1 0x1 PUSH1 0xA0 SHL SUB AND PUSH4 0xFA4D7AAE DUP6 DUP4 DUP2 MLOAD DUP2 LT PUSH2 0x948 JUMPI PUSH2 0x948 PUSH2 0x1431 JUMP JUMPDEST PUSH1 0x20 MUL PUSH1 0x20 ADD ADD MLOAD PUSH1 0x40 MLOAD DUP3 PUSH4 0xFFFFFFFF AND PUSH1 0xE0 SHL DUP2 MSTORE PUSH1 0x4 ADD PUSH2 0x97B SWAP2 SWAP1 PUSH1 0x1 PUSH1 0x1 PUSH1 0xA0 SHL SUB SWAP2 SWAP1 SWAP2 AND DUP2 MSTORE PUSH1 0x20 ADD SWAP1 JUMP JUMPDEST PUSH1 0x20 PUSH1 0x40 MLOAD DUP1 DUP4 SUB DUP2 DUP7 GAS STATICCALL ISZERO DUP1 ISZERO PUSH2 0x998 JUMPI RETURNDATASIZE PUSH1 0x0 DUP1 RETURNDATACOPY RETURNDATASIZE PUSH1 0x0 REVERT JUMPDEST POP POP POP POP PUSH1 0x40 MLOAD RETURNDATASIZE PUSH1 0x1F NOT PUSH1 0x1F DUP3 ADD AND DUP3 ADD DUP1 PUSH1 0x40 MSTORE POP DUP2 ADD SWAP1 PUSH2 0x9BC SWAP2 SWAP1 PUSH2 0x1447 JUMP JUMPDEST PUSH2 0x9C5 JUMPI PUSH1 0x0 SWAP2 POP JUMPDEST DUP1 PUSH2 0x9CF DUP2 PUSH2 0x14DC JUMP JUMPDEST SWAP2 POP POP PUSH2 0x909 JUMP JUMPDEST POP SWAP3 SWAP2 POP POP JUMP JUMPDEST PUSH1 0x0 DUP1 PUSH1 0x5 PUSH1 0x0 SWAP1 SLOAD SWAP1 PUSH2 0x100 EXP SWAP1 DIV PUSH1 0x1 PUSH1 0x1 PUSH1 0xA0 SHL SUB AND PUSH1 0x1 PUSH1 0x1 PUSH1 0xA0 SHL SUB AND PUSH4 0xCC2EE196 PUSH1 0x40 MLOAD DUP2 PUSH4 0xFFFFFFFF AND PUSH1 0xE0 SHL DUP2 MSTORE PUSH1 0x4 ADD PUSH1 0x0 PUSH1 0x40 MLOAD DUP1 DUP4 SUB DUP2 DUP7 GAS STATICCALL ISZERO DUP1 ISZERO PUSH2 0xA34 JUMPI RETURNDATASIZE PUSH1 0x0 DUP1 RETURNDATACOPY RETURNDATASIZE PUSH1 0x0 REVERT JUMPDEST POP POP POP POP PUSH1 0x40 MLOAD RETURNDATASIZE PUSH1 0x0 DUP3 RETURNDATACOPY PUSH1 0x1F RETURNDATASIZE SWAP1 DUP2 ADD PUSH1 0x1F NOT AND DUP3 ADD PUSH1 0x40 MSTORE PUSH2 0xA5C SWAP2 SWAP1 DUP2 ADD SWAP1 PUSH2 0x12D5 JUMP JUMPDEST SWAP1 POP PUSH1 0x0 DUP2 PUSH1 0x1 DUP2 MLOAD DUP2 LT PUSH2 0x37D JUMPI PUSH2 0x37D PUSH2 0x1431 JUMP JUMPDEST PUSH1 0x2 SLOAD PUSH1 0x0 SWAP1 DUP2 SWAP1 TIMESTAMP SWAP1 DUP3 SWAP1 PUSH2 0xA8C SWAP1 PUSH3 0x15180 PUSH2 0x14F7 JUMP JUMPDEST PUSH1 0x5 PUSH1 0x0 SWAP1 SLOAD SWAP1 PUSH2 0x100 EXP SWAP1 DIV PUSH1 0x1 PUSH1 0x1 PUSH1 0xA0 SHL SUB AND PUSH1 0x1 PUSH1 0x1 PUSH1 0xA0 SHL SUB AND PUSH4 0xB90C1DBB PUSH1 0x40 MLOAD DUP2 PUSH4 0xFFFFFFFF AND PUSH1 0xE0 SHL DUP2 MSTORE PUSH1 0x4 ADD PUSH1 0x20 PUSH1 0x40 MLOAD DUP1 DUP4 SUB DUP2 DUP7 GAS STATICCALL ISZERO DUP1 ISZERO PUSH2 0xADF JUMPI RETURNDATASIZE PUSH1 0x0 DUP1 RETURNDATACOPY RETURNDATASIZE PUSH1 0x0 REVERT JUMPDEST POP POP POP POP PUSH1 0x40 MLOAD RETURNDATASIZE PUSH1 0x1F NOT PUSH1 0x1F DUP3 ADD AND DUP3 ADD DUP1 PUSH1 0x40 MSTORE POP DUP2 ADD SWAP1 PUSH2 0xB03 SWAP2 SWAP1 PUSH2 0x1469 JUMP JUMPDEST PUSH2 0xB0D SWAP2 SWAP1 PUSH2 0x1516 JUMP JUMPDEST SWAP1 POP DUP1 DUP3 GT ISZERO PUSH2 0xB1C JUMPI PUSH1 0x1 SWAP3 POP JUMPDEST POP SWAP1 SWAP3 SWAP2 POP POP JUMP JUMPDEST PUSH1 0x1 DUP2 DUP2 SLOAD DUP2 LT PUSH2 0x2CE JUMPI PUSH1 0x0 DUP1 REVERT JUMPDEST PUSH1 0x0 PUSH1 0x1 DUP2 JUMPDEST DUP4 MLOAD DUP2 LT ISZERO PUSH2 0x9D7 JUMPI PUSH1 0x4 PUSH1 0x2 SWAP1 SLOAD SWAP1 PUSH2 0x100 EXP SWAP1 DIV PUSH1 0x1 PUSH1 0x1 PUSH1 0xA0 SHL SUB AND PUSH1 0x1 PUSH1 0x1 PUSH1 0xA0 SHL SUB AND PUSH4 0x297027D5 DUP6 DUP4 DUP2 MLOAD DUP2 LT PUSH2 0xB79 JUMPI PUSH2 0xB79 PUSH2 0x1431 JUMP JUMPDEST PUSH1 0x20 MUL PUSH1 0x20 ADD ADD MLOAD PUSH1 0x40 MLOAD DUP3 PUSH4 0xFFFFFFFF AND PUSH1 0xE0 SHL DUP2 MSTORE PUSH1 0x4 ADD PUSH2 0xBAC SWAP2 SWAP1 PUSH1 0x1 PUSH1 0x1 PUSH1 0xA0 SHL SUB SWAP2 SWAP1 SWAP2 AND DUP2 MSTORE PUSH1 0x20 ADD SWAP1 JUMP JUMPDEST PUSH1 0x20 PUSH1 0x40 MLOAD DUP1 DUP4 SUB DUP2 DUP7 GAS STATICCALL ISZERO DUP1 ISZERO PUSH2 0xBC9 JUMPI RETURNDATASIZE PUSH1 0x0 DUP1 RETURNDATACOPY RETURNDATASIZE PUSH1 0x0 REVERT JUMPDEST POP POP POP POP PUSH1 0x40 MLOAD RETURNDATASIZE PUSH1 0x1F NOT PUSH1 0x1F DUP3 ADD AND DUP3 ADD DUP1 PUSH1 0x40 MSTORE POP DUP2 ADD SWAP1 PUSH2 0xBED SWAP2 SWAP1 PUSH2 0x1447 JUMP JUMPDEST PUSH2 0xBF6 JUMPI PUSH1 0x0 SWAP2 POP JUMPDEST DUP1 PUSH2 0xC00 DUP2 PUSH2 0x14DC JUMP JUMPDEST SWAP2 POP POP PUSH2 0xB3A JUMP JUMPDEST PUSH2 0xC10 PUSH2 0xCA0 JUMP JUMPDEST ISZERO PUSH2 0xC3A JUMPI PUSH2 0xC38 PUSH1 0x2 PUSH1 0x40 MLOAD DUP1 PUSH1 0x60 ADD PUSH1 0x40 MSTORE DUP1 PUSH1 0x21 DUP2 MSTORE PUSH1 0x20 ADD PUSH2 0x15A2 PUSH1 0x21 SWAP2 CODECOPY PUSH2 0x102B JUMP JUMPDEST JUMP JUMPDEST PUSH1 0x40 MLOAD PUSH3 0x461BCD PUSH1 0xE5 SHL DUP2 MSTORE PUSH1 0x20 PUSH1 0x4 DUP3 ADD MSTORE PUSH1 0x35 PUSH1 0x24 DUP3 ADD MSTORE PUSH32 0x4F6E6C79204D656D62657273206F662074686520636F756E63696C2063616E20 PUSH1 0x44 DUP3 ADD MSTORE PUSH21 0x31B0B731B2B61031B7B739BAB63A30BA34B7B73997 PUSH1 0x59 SHL PUSH1 0x64 DUP3 ADD MSTORE PUSH1 0x84 ADD PUSH2 0x61D JUMP JUMPDEST PUSH1 0x4 DUP1 SLOAD PUSH1 0x40 MLOAD PUSH4 0x7D26BD57 PUSH1 0xE1 SHL DUP2 MSTORE CALLER SWAP3 DUP2 ADD DUP4 SWAP1 MSTORE PUSH1 0x0 SWAP3 SWAP2 PUSH3 0x10000 SWAP1 DIV PUSH1 0x1 PUSH1 0x1 PUSH1 0xA0 SHL SUB AND SWAP1 PUSH4 0xFA4D7AAE SWAP1 PUSH1 0x24 ADD PUSH2 0x4C5 JUMP JUMPDEST PUSH1 0x0 DUP1 DUP1 PUSH2 0xCE6 PUSH2 0x2E8 JUMP JUMPDEST SWAP1 POP PUSH1 0x0 PUSH2 0xCF2 PUSH2 0x9DE JUMP JUMPDEST SWAP1 POP DUP1 DUP3 EQ ISZERO PUSH2 0xD05 JUMPI PUSH1 0x2 SWAP3 POP PUSH2 0xB1C JUMP JUMPDEST DUP1 DUP3 LT ISZERO PUSH2 0xB1C JUMPI POP PUSH1 0x1 SWAP4 SWAP3 POP POP POP JUMP JUMPDEST PUSH1 0x0 DUP1 PUSH2 0xD22 PUSH2 0x51B JUMP JUMPDEST PUSH1 0x6 SLOAD PUSH1 0x3 SLOAD SWAP2 SWAP3 POP PUSH1 0x1 PUSH1 0x1 PUSH1 0xA0 SHL SUB AND SWAP1 PUSH4 0xFD3BAD52 SWAP1 PUSH2 0xD45 SWAP1 DUP5 PUSH2 0x14F7 JUMP JUMPDEST PUSH1 0x40 MLOAD PUSH1 0x1 PUSH1 0x1 PUSH1 0xE0 SHL SUB NOT PUSH1 0xE0 DUP5 SWAP1 SHL AND DUP2 MSTORE PUSH1 0x4 DUP2 ADD SWAP2 SWAP1 SWAP2 MSTORE PUSH1 0x64 PUSH1 0x24 DUP3 ADD MSTORE PUSH1 0x44 ADD PUSH1 0x20 PUSH1 0x40 MLOAD DUP1 DUP4 SUB DUP2 DUP7 GAS STATICCALL ISZERO DUP1 ISZERO PUSH2 0xD88 JUMPI RETURNDATASIZE PUSH1 0x0 DUP1 RETURNDATACOPY RETURNDATASIZE PUSH1 0x0 REVERT JUMPDEST POP POP POP POP PUSH1 0x40 MLOAD RETURNDATASIZE PUSH1 0x1F NOT PUSH1 0x1F DUP3 ADD AND DUP3 ADD DUP1 PUSH1 0x40 MSTORE POP DUP2 ADD SWAP1 PUSH2 0xDAC SWAP2 SWAP1 PUSH2 0x1469 JUMP JUMPDEST SWAP2 POP POP SWAP1 JUMP JUMPDEST PUSH1 0x0 DUP1 PUSH2 0xDBD PUSH2 0x51B JUMP JUMPDEST SWAP1 POP PUSH1 0x0 PUSH2 0xDC9 PUSH2 0xD17 JUMP JUMPDEST SWAP1 SWAP2 GT SWAP3 SWAP2 POP POP JUMP JUMPDEST PUSH1 0x1 PUSH1 0x4 SLOAD PUSH1 0xFF AND PUSH1 0x5 DUP2 GT ISZERO PUSH2 0xDEB JUMPI PUSH2 0xDEB PUSH2 0x1070 JUMP JUMPDEST EQ ISZERO PUSH2 0xE22 JUMPI PUSH2 0xDFA DUP2 PUSH2 0xB34 JUMP JUMPDEST ISZERO PUSH2 0x818 JUMPI PUSH2 0x631 PUSH1 0x2 PUSH1 0x40 MLOAD DUP1 PUSH1 0x60 ADD PUSH1 0x40 MSTORE DUP1 PUSH1 0x24 DUP2 MSTORE PUSH1 0x20 ADD PUSH2 0x157E PUSH1 0x24 SWAP2 CODECOPY PUSH2 0xFC0 JUMP JUMPDEST PUSH1 0x40 MLOAD PUSH3 0x461BCD PUSH1 0xE5 SHL DUP2 MSTORE PUSH1 0x20 PUSH1 0x4 DUP3 ADD MSTORE PUSH1 0x4D PUSH1 0x24 DUP3 ADD MSTORE PUSH32 0x436F6E73756C746174696F6E206973206E6F7420696E20746865202741707072 PUSH1 0x44 DUP3 ADD MSTORE PUSH32 0x6F7665642720737461746520616E642063616E207468657265666F7265206E6F PUSH1 0x64 DUP3 ADD MSTORE PUSH13 0x3A1031329039BA30B93A32B217 PUSH1 0x99 SHL PUSH1 0x84 DUP3 ADD MSTORE PUSH1 0xA4 ADD PUSH2 0x61D JUMP JUMPDEST PUSH1 0x0 PUSH1 0x1 DUP2 JUMPDEST DUP4 MLOAD DUP2 LT ISZERO PUSH2 0x9D7 JUMPI PUSH1 0x4 PUSH1 0x2 SWAP1 SLOAD SWAP1 PUSH2 0x100 EXP SWAP1 DIV PUSH1 0x1 PUSH1 0x1 PUSH1 0xA0 SHL SUB AND PUSH1 0x1 PUSH1 0x1 PUSH1 0xA0 SHL SUB AND PUSH4 0x297027D5 DUP6 DUP4 DUP2 MLOAD DUP2 LT PUSH2 0xEEB JUMPI PUSH2 0xEEB PUSH2 0x1431 JUMP JUMPDEST PUSH1 0x20 MUL PUSH1 0x20 ADD ADD MLOAD PUSH1 0x40 MLOAD DUP3 PUSH4 0xFFFFFFFF AND PUSH1 0xE0 SHL DUP2 MSTORE PUSH1 0x4 ADD PUSH2 0xF1E SWAP2 SWAP1 PUSH1 0x1 PUSH1 0x1 PUSH1 0xA0 SHL SUB SWAP2 SWAP1 SWAP2 AND DUP2 MSTORE PUSH1 0x20 ADD SWAP1 JUMP JUMPDEST PUSH1 0x20 PUSH1 0x40 MLOAD DUP1 DUP4 SUB DUP2 DUP7 GAS STATICCALL ISZERO DUP1 ISZERO PUSH2 0xF3B JUMPI RETURNDATASIZE PUSH1 0x0 DUP1 RETURNDATACOPY RETURNDATASIZE PUSH1 0x0 REVERT JUMPDEST POP POP POP POP PUSH1 0x40 MLOAD RETURNDATASIZE PUSH1 0x1F NOT PUSH1 0x1F DUP3 ADD AND DUP3 ADD DUP1 PUSH1 0x40 MSTORE POP DUP2 ADD SWAP1 PUSH2 0xF5F SWAP2 SWAP1 PUSH2 0x1447 JUMP JUMPDEST PUSH2 0xF68 JUMPI PUSH1 0x0 SWAP2 POP JUMPDEST DUP1 PUSH2 0xF72 DUP2 PUSH2 0x14DC JUMP JUMPDEST SWAP2 POP POP PUSH2 0xEAC JUMP JUMPDEST PUSH1 0x5 SLOAD PUSH1 0x40 MLOAD PUSH4 0x191A5F8B PUSH1 0xE2 SHL DUP2 MSTORE PUSH1 0x4 DUP2 ADD DUP4 SWAP1 MSTORE PUSH1 0x1 PUSH1 0x1 PUSH1 0xA0 SHL SUB SWAP1 SWAP2 AND SWAP1 PUSH4 0x64697E2C SWAP1 PUSH1 0x24 ADD PUSH1 0x0 PUSH1 0x40 MLOAD DUP1 DUP4 SUB DUP2 PUSH1 0x0 DUP8 DUP1 EXTCODESIZE ISZERO DUP1 ISZERO PUSH2 0x713 JUMPI PUSH1 0x0 DUP1 REVERT JUMPDEST PUSH1 0x4 SLOAD PUSH1 0x40 MLOAD CALLER SWAP2 PUSH32 0xFC6F5E211098B443015CCB625104A41F61E97A80DD9B8734242A9A8C3EECC8DC SWAP2 PUSH2 0xFFB SWAP2 PUSH1 0xFF AND SWAP1 DUP7 SWAP1 DUP7 SWAP1 PUSH2 0x152E JUMP JUMPDEST PUSH1 0x40 MLOAD DUP1 SWAP2 SUB SWAP1 LOG2 PUSH1 0x4 DUP1 SLOAD DUP4 SWAP2 SWAP1 PUSH1 0xFF NOT AND PUSH1 0x1 DUP4 PUSH1 0x5 DUP2 GT ISZERO PUSH2 0x1022 JUMPI PUSH2 0x1022 PUSH2 0x1070 JUMP JUMPDEST MUL OR SWAP1 SSTORE POP POP POP JUMP JUMPDEST PUSH2 0x1036 PUSH1 0x5 DUP3 PUSH2 0xFC0 JUMP JUMPDEST PUSH1 0x4 DUP1 SLOAD DUP4 SWAP2 SWAP1 PUSH2 0xFF00 NOT AND PUSH2 0x100 DUP4 PUSH1 0x2 DUP2 GT ISZERO PUSH2 0x1022 JUMPI PUSH2 0x1022 PUSH2 0x1070 JUMP JUMPDEST PUSH1 0x0 PUSH1 0x20 DUP3 DUP5 SUB SLT ISZERO PUSH2 0x1069 JUMPI PUSH1 0x0 DUP1 REVERT JUMPDEST POP CALLDATALOAD SWAP2 SWAP1 POP JUMP JUMPDEST PUSH4 0x4E487B71 PUSH1 0xE0 SHL PUSH1 0x0 MSTORE PUSH1 0x21 PUSH1 0x4 MSTORE PUSH1 0x24 PUSH1 0x0 REVERT JUMPDEST PUSH1 0x3 DUP2 LT PUSH2 0x631 JUMPI PUSH2 0x631 PUSH2 0x1070 JUMP JUMPDEST PUSH1 0x20 DUP2 ADD PUSH2 0x10A3 DUP4 PUSH2 0x1086 JUMP JUMPDEST SWAP2 SWAP1 MSTORE SWAP1 JUMP JUMPDEST PUSH4 0x4E487B71 PUSH1 0xE0 SHL PUSH1 0x0 MSTORE PUSH1 0x41 PUSH1 0x4 MSTORE PUSH1 0x24 PUSH1 0x0 REVERT JUMPDEST PUSH1 0x40 MLOAD PUSH1 0xE0 DUP2 ADD PUSH8 0xFFFFFFFFFFFFFFFF DUP2 GT DUP3 DUP3 LT OR ISZERO PUSH2 0x10E2 JUMPI PUSH2 0x10E2 PUSH2 0x10A9 JUMP JUMPDEST PUSH1 0x40 MSTORE SWAP1 JUMP JUMPDEST PUSH1 0x40 MLOAD PUSH1 0x1F DUP3 ADD PUSH1 0x1F NOT AND DUP2 ADD PUSH8 0xFFFFFFFFFFFFFFFF DUP2 GT DUP3 DUP3 LT OR ISZERO PUSH2 0x1111 JUMPI PUSH2 0x1111 PUSH2 0x10A9 JUMP JUMPDEST PUSH1 0x40 MSTORE SWAP2 SWAP1 POP JUMP JUMPDEST PUSH1 0x0 PUSH8 0xFFFFFFFFFFFFFFFF DUP3 GT ISZERO PUSH2 0x1133 JUMPI PUSH2 0x1133 PUSH2 0x10A9 JUMP JUMPDEST POP PUSH1 0x5 SHL PUSH1 0x20 ADD SWAP1 JUMP JUMPDEST PUSH1 0x1 PUSH1 0x1 PUSH1 0xA0 SHL SUB DUP2 AND DUP2 EQ PUSH2 0x631 JUMPI PUSH1 0x0 DUP1 REVERT JUMPDEST PUSH1 0x0 PUSH1 0x20 DUP1 DUP4 DUP6 SUB SLT ISZERO PUSH2 0x1165 JUMPI PUSH1 0x0 DUP1 REVERT JUMPDEST DUP3 CALLDATALOAD PUSH8 0xFFFFFFFFFFFFFFFF DUP2 GT ISZERO PUSH2 0x117C JUMPI PUSH1 0x0 DUP1 REVERT JUMPDEST DUP4 ADD PUSH1 0x1F DUP2 ADD DUP6 SGT PUSH2 0x118D JUMPI PUSH1 0x0 DUP1 REVERT JUMPDEST DUP1 CALLDATALOAD PUSH2 0x11A0 PUSH2 0x119B DUP3 PUSH2 0x1119 JUMP JUMPDEST PUSH2 0x10E8 JUMP JUMPDEST DUP2 DUP2 MSTORE PUSH1 0x5 SWAP2 SWAP1 SWAP2 SHL DUP3 ADD DUP4 ADD SWAP1 DUP4 DUP2 ADD SWAP1 DUP8 DUP4 GT ISZERO PUSH2 0x11BF JUMPI PUSH1 0x0 DUP1 REVERT JUMPDEST SWAP3 DUP5 ADD SWAP3 JUMPDEST DUP3 DUP5 LT ISZERO PUSH2 0x11E6 JUMPI DUP4 CALLDATALOAD PUSH2 0x11D7 DUP2 PUSH2 0x113D JUMP JUMPDEST DUP3 MSTORE SWAP3 DUP5 ADD SWAP3 SWAP1 DUP5 ADD SWAP1 PUSH2 0x11C4 JUMP JUMPDEST SWAP8 SWAP7 POP POP POP POP POP POP POP JUMP JUMPDEST PUSH1 0x6 DUP2 LT PUSH2 0x1201 JUMPI PUSH2 0x1201 PUSH2 0x1070 JUMP JUMPDEST SWAP1 MSTORE JUMP JUMPDEST PUSH1 0x20 DUP2 ADD PUSH2 0x1213 DUP3 DUP5 PUSH2 0x11F1 JUMP JUMPDEST SWAP3 SWAP2 POP POP JUMP JUMPDEST DUP1 MLOAD PUSH2 0x1224 DUP2 PUSH2 0x113D JUMP JUMPDEST SWAP2 SWAP1 POP JUMP JUMPDEST DUP1 MLOAD DUP1 ISZERO ISZERO DUP2 EQ PUSH2 0x1224 JUMPI PUSH1 0x0 DUP1 REVERT JUMPDEST PUSH1 0x0 JUMPDEST DUP4 DUP2 LT ISZERO PUSH2 0x1254 JUMPI DUP2 DUP2 ADD MLOAD DUP4 DUP3 ADD MSTORE PUSH1 0x20 ADD PUSH2 0x123C JUMP JUMPDEST DUP4 DUP2 GT ISZERO PUSH2 0x1263 JUMPI PUSH1 0x0 DUP5 DUP5 ADD MSTORE JUMPDEST POP POP POP POP JUMP JUMPDEST PUSH1 0x0 DUP3 PUSH1 0x1F DUP4 ADD SLT PUSH2 0x127A JUMPI PUSH1 0x0 DUP1 REVERT JUMPDEST DUP2 MLOAD PUSH8 0xFFFFFFFFFFFFFFFF DUP2 GT ISZERO PUSH2 0x1294 JUMPI PUSH2 0x1294 PUSH2 0x10A9 JUMP JUMPDEST PUSH2 0x12A7 PUSH1 0x1F DUP3 ADD PUSH1 0x1F NOT AND PUSH1 0x20 ADD PUSH2 0x10E8 JUMP JUMPDEST DUP2 DUP2 MSTORE DUP5 PUSH1 0x20 DUP4 DUP7 ADD ADD GT ISZERO PUSH2 0x12BC JUMPI PUSH1 0x0 DUP1 REVERT JUMPDEST PUSH2 0x12CD DUP3 PUSH1 0x20 DUP4 ADD PUSH1 0x20 DUP8 ADD PUSH2 0x1239 JUMP JUMPDEST SWAP5 SWAP4 POP POP POP POP JUMP JUMPDEST PUSH1 0x0 PUSH1 0x20 DUP1 DUP4 DUP6 SUB SLT ISZERO PUSH2 0x12E8 JUMPI PUSH1 0x0 DUP1 REVERT JUMPDEST DUP3 MLOAD PUSH8 0xFFFFFFFFFFFFFFFF DUP1 DUP3 GT ISZERO PUSH2 0x1300 JUMPI PUSH1 0x0 DUP1 REVERT JUMPDEST DUP2 DUP6 ADD SWAP2 POP DUP6 PUSH1 0x1F DUP4 ADD SLT PUSH2 0x1314 JUMPI PUSH1 0x0 DUP1 REVERT JUMPDEST DUP2 MLOAD PUSH2 0x1322 PUSH2 0x119B DUP3 PUSH2 0x1119 JUMP JUMPDEST DUP2 DUP2 MSTORE PUSH1 0x5 SWAP2 SWAP1 SWAP2 SHL DUP4 ADD DUP5 ADD SWAP1 DUP5 DUP2 ADD SWAP1 DUP9 DUP4 GT ISZERO PUSH2 0x1341 JUMPI PUSH1 0x0 DUP1 REVERT JUMPDEST DUP6 DUP6 ADD JUMPDEST DUP4 DUP2 LT ISZERO PUSH2 0x1424 JUMPI DUP1 MLOAD DUP6 DUP2 GT ISZERO PUSH2 0x135C JUMPI PUSH1 0x0 DUP1 REVERT JUMPDEST DUP7 ADD PUSH1 0xE0 DUP2 DUP13 SUB PUSH1 0x1F NOT ADD SLT ISZERO PUSH2 0x1373 JUMPI PUSH1 0x0 DUP1 DUP2 REVERT JUMPDEST PUSH2 0x137B PUSH2 0x10BF JUMP JUMPDEST DUP9 DUP3 ADD MLOAD DUP2 MSTORE PUSH1 0x40 PUSH2 0x138E DUP2 DUP5 ADD PUSH2 0x1219 JUMP JUMPDEST DUP11 DUP4 ADD MSTORE PUSH1 0x60 PUSH2 0x139F DUP2 DUP6 ADD PUSH2 0x1219 JUMP JUMPDEST DUP3 DUP5 ADD MSTORE PUSH1 0x80 SWAP2 POP PUSH2 0x13B2 DUP3 DUP6 ADD PUSH2 0x1229 JUMP JUMPDEST SWAP1 DUP4 ADD MSTORE PUSH1 0xA0 DUP4 DUP2 ADD MLOAD DUP10 DUP2 GT ISZERO PUSH2 0x13CA JUMPI PUSH1 0x0 DUP1 DUP2 REVERT JUMPDEST PUSH2 0x13D8 DUP16 DUP14 DUP4 DUP9 ADD ADD PUSH2 0x1269 JUMP JUMPDEST DUP4 DUP6 ADD MSTORE POP PUSH1 0xC0 SWAP2 POP DUP2 DUP5 ADD MLOAD DUP10 DUP2 GT ISZERO PUSH2 0x13F3 JUMPI PUSH1 0x0 DUP1 DUP2 REVERT JUMPDEST PUSH2 0x1401 DUP16 DUP14 DUP4 DUP9 ADD ADD PUSH2 0x1269 JUMP JUMPDEST SWAP2 DUP5 ADD SWAP2 SWAP1 SWAP2 MSTORE POP PUSH1 0xE0 SWAP3 SWAP1 SWAP3 ADD MLOAD SWAP2 DUP2 ADD SWAP2 SWAP1 SWAP2 MSTORE DUP4 MSTORE SWAP2 DUP7 ADD SWAP2 DUP7 ADD PUSH2 0x1345 JUMP JUMPDEST POP SWAP9 SWAP8 POP POP POP POP POP POP POP POP JUMP JUMPDEST PUSH4 0x4E487B71 PUSH1 0xE0 SHL PUSH1 0x0 MSTORE PUSH1 0x32 PUSH1 0x4 MSTORE PUSH1 0x24 PUSH1 0x0 REVERT JUMPDEST PUSH1 0x0 PUSH1 0x20 DUP3 DUP5 SUB SLT ISZERO PUSH2 0x1459 JUMPI PUSH1 0x0 DUP1 REVERT JUMPDEST PUSH2 0x1462 DUP3 PUSH2 0x1229 JUMP JUMPDEST SWAP4 SWAP3 POP POP POP JUMP JUMPDEST PUSH1 0x0 PUSH1 0x20 DUP3 DUP5 SUB SLT ISZERO PUSH2 0x147B JUMPI PUSH1 0x0 DUP1 REVERT JUMPDEST POP MLOAD SWAP2 SWAP1 POP JUMP JUMPDEST PUSH1 0x20 DUP1 DUP3 MSTORE PUSH1 0x24 SWAP1 DUP3 ADD MSTORE PUSH32 0x54686520706F6C6C206D75737420626520696E20616E20616374697665207374 PUSH1 0x40 DUP3 ADD MSTORE PUSH4 0x61746521 PUSH1 0xE0 SHL PUSH1 0x60 DUP3 ADD MSTORE PUSH1 0x80 ADD SWAP1 JUMP JUMPDEST PUSH4 0x4E487B71 PUSH1 0xE0 SHL PUSH1 0x0 MSTORE PUSH1 0x11 PUSH1 0x4 MSTORE PUSH1 0x24 PUSH1 0x0 REVERT JUMPDEST PUSH1 0x0 PUSH1 0x0 NOT DUP3 EQ ISZERO PUSH2 0x14F0 JUMPI PUSH2 0x14F0 PUSH2 0x14C6 JUMP JUMPDEST POP PUSH1 0x1 ADD SWAP1 JUMP JUMPDEST PUSH1 0x0 DUP2 PUSH1 0x0 NOT DIV DUP4 GT DUP3 ISZERO ISZERO AND ISZERO PUSH2 0x1511 JUMPI PUSH2 0x1511 PUSH2 0x14C6 JUMP JUMPDEST POP MUL SWAP1 JUMP JUMPDEST PUSH1 0x0 DUP3 NOT DUP3 GT ISZERO PUSH2 0x1529 JUMPI PUSH2 0x1529 PUSH2 0x14C6 JUMP JUMPDEST POP ADD SWAP1 JUMP JUMPDEST PUSH2 0x1538 DUP2 DUP6 PUSH2 0x11F1 JUMP JUMPDEST PUSH2 0x1545 PUSH1 0x20 DUP3 ADD DUP5 PUSH2 0x11F1 JUMP JUMPDEST PUSH1 0x60 PUSH1 0x40 DUP3 ADD MSTORE PUSH1 0x0 DUP3 MLOAD DUP1 PUSH1 0x60 DUP5 ADD MSTORE PUSH2 0x1567 DUP2 PUSH1 0x80 DUP6 ADD PUSH1 0x20 DUP8 ADD PUSH2 0x1239 JUMP JUMPDEST PUSH1 0x1F ADD PUSH1 0x1F NOT AND SWAP2 SWAP1 SWAP2 ADD PUSH1 0x80 ADD SWAP5 SWAP4 POP POP POP POP JUMP INVALID NUMBER PUSH16 0x756E63696C2068617320617070726F76 PUSH6 0x642074686520 PUSH19 0x65666572656E64756D21436F6E73756C746174 PUSH10 0x6F6E2063616E63656C65 PUSH5 0x2062792043 PUSH16 0x756E63696C21A2646970667358221220 0xB7 PUSH5 0xC1E13EEE10 PUSH30 0x65B5C9ACCDE0DC12F73471046FC3237D0AD7A6A806DD401F64736F6C6343 STOP ADDMOD 0xC STOP CALLER PUSH1 0x80 PUSH1 0x40 MSTORE CALLVALUE DUP1 ISZERO PUSH2 0x10 JUMPI PUSH1 0x0 DUP1 REVERT JUMPDEST POP PUSH2 0x724 DUP1 PUSH2 0x20 PUSH1 0x0 CODECOPY PUSH1 0x0 RETURN INVALID PUSH1 0x80 PUSH1 0x40 MSTORE CALLVALUE DUP1 ISZERO PUSH2 0x10 JUMPI PUSH1 0x0 DUP1 REVERT JUMPDEST POP PUSH1 0x4 CALLDATASIZE LT PUSH2 0x4C JUMPI PUSH1 0x0 CALLDATALOAD PUSH1 0xE0 SHR DUP1 PUSH4 0x2C6E7598 EQ PUSH2 0x51 JUMPI DUP1 PUSH4 0x69F9AD2F EQ PUSH2 0x7A JUMPI DUP1 PUSH4 0xEFC6C18C EQ PUSH2 0xA6 JUMPI DUP1 PUSH4 0xFD3BAD52 EQ PUSH2 0xBC JUMPI JUMPDEST PUSH1 0x0 DUP1 REVERT JUMPDEST PUSH2 0x64 PUSH2 0x5F CALLDATASIZE PUSH1 0x4 PUSH2 0x3A6 JUMP JUMPDEST PUSH2 0xCF JUMP JUMPDEST PUSH1 0x40 MLOAD PUSH2 0x71 SWAP2 SWAP1 PUSH2 0x3CF JUMP JUMPDEST PUSH1 0x40 MLOAD DUP1 SWAP2 SUB SWAP1 RETURN JUMPDEST PUSH2 0x8D PUSH2 0x88 CALLDATASIZE PUSH1 0x4 PUSH2 0x43D JUMP JUMPDEST PUSH2 0x2D9 JUMP JUMPDEST PUSH1 0x40 MLOAD PUSH1 0x1 PUSH1 0x1 PUSH1 0xF8 SHL SUB NOT SWAP1 SWAP2 AND DUP2 MSTORE PUSH1 0x20 ADD PUSH2 0x71 JUMP JUMPDEST PUSH2 0xAE PUSH2 0x30F JUMP JUMPDEST PUSH1 0x40 MLOAD SWAP1 DUP2 MSTORE PUSH1 0x20 ADD PUSH2 0x71 JUMP JUMPDEST PUSH2 0xAE PUSH2 0xCA CALLDATASIZE PUSH1 0x4 PUSH2 0x45A JUMP JUMPDEST PUSH2 0x371 JUMP JUMPDEST PUSH1 0x40 DUP1 MLOAD PUSH1 0x28 DUP1 DUP3 MSTORE PUSH1 0x60 DUP3 DUP2 ADD SWAP1 SWAP4 MSTORE PUSH1 0x0 SWAP2 SWAP1 PUSH1 0x20 DUP3 ADD DUP2 DUP1 CALLDATASIZE DUP4 CALLDATACOPY ADD SWAP1 POP POP SWAP1 POP PUSH1 0x0 JUMPDEST PUSH1 0x14 DUP2 LT ISZERO PUSH2 0x2D2 JUMPI PUSH1 0x0 PUSH2 0x10C DUP3 PUSH1 0x13 PUSH2 0x492 JUMP JUMPDEST PUSH2 0x117 SWAP1 PUSH1 0x8 PUSH2 0x4A9 JUMP JUMPDEST PUSH2 0x122 SWAP1 PUSH1 0x2 PUSH2 0x5AC JUMP JUMPDEST PUSH2 0x135 SWAP1 PUSH1 0x1 PUSH1 0x1 PUSH1 0xA0 SHL SUB DUP8 AND PUSH2 0x5D5 JUMP JUMPDEST PUSH1 0xF8 SHL SWAP1 POP PUSH1 0x0 PUSH1 0x10 DUP3 PUSH1 0xF8 SHR PUSH2 0x14C SWAP2 SWAP1 PUSH2 0x5E9 JUMP JUMPDEST PUSH1 0xF8 SHL SWAP1 POP PUSH1 0x0 DUP2 PUSH1 0xF8 SHR PUSH1 0x10 PUSH2 0x163 SWAP2 SWAP1 PUSH2 0x60B JUMP JUMPDEST DUP4 PUSH1 0xF8 SHR PUSH2 0x171 SWAP2 SWAP1 PUSH2 0x62C JUMP JUMPDEST PUSH1 0x40 MLOAD PUSH4 0x69F9AD2F PUSH1 0xE0 SHL DUP2 MSTORE PUSH1 0x1 PUSH1 0x1 PUSH1 0xF8 SHL SUB NOT DUP5 AND PUSH1 0x4 DUP3 ADD MSTORE PUSH1 0xF8 SWAP2 SWAP1 SWAP2 SHL SWAP2 POP ADDRESS SWAP1 PUSH4 0x69F9AD2F SWAP1 PUSH1 0x24 ADD PUSH1 0x20 PUSH1 0x40 MLOAD DUP1 DUP4 SUB DUP2 DUP7 GAS STATICCALL ISZERO DUP1 ISZERO PUSH2 0x1BE JUMPI RETURNDATASIZE PUSH1 0x0 DUP1 RETURNDATACOPY RETURNDATASIZE PUSH1 0x0 REVERT JUMPDEST POP POP POP POP PUSH1 0x40 MLOAD RETURNDATASIZE PUSH1 0x1F NOT PUSH1 0x1F DUP3 ADD AND DUP3 ADD DUP1 PUSH1 0x40 MSTORE POP DUP2 ADD SWAP1 PUSH2 0x1E2 SWAP2 SWAP1 PUSH2 0x64F JUMP JUMPDEST DUP6 PUSH2 0x1EE DUP7 PUSH1 0x2 PUSH2 0x4A9 JUMP JUMPDEST DUP2 MLOAD DUP2 LT PUSH2 0x1FE JUMPI PUSH2 0x1FE PUSH2 0x66C JUMP JUMPDEST PUSH1 0x20 ADD ADD SWAP1 PUSH1 0x1 PUSH1 0x1 PUSH1 0xF8 SHL SUB NOT AND SWAP1 DUP2 PUSH1 0x0 BYTE SWAP1 MSTORE8 POP PUSH1 0x40 MLOAD PUSH4 0x69F9AD2F PUSH1 0xE0 SHL DUP2 MSTORE PUSH1 0x1 PUSH1 0x1 PUSH1 0xF8 SHL SUB NOT DUP3 AND PUSH1 0x4 DUP3 ADD MSTORE ADDRESS SWAP1 PUSH4 0x69F9AD2F SWAP1 PUSH1 0x24 ADD PUSH1 0x20 PUSH1 0x40 MLOAD DUP1 DUP4 SUB DUP2 DUP7 GAS STATICCALL ISZERO DUP1 ISZERO PUSH2 0x25A JUMPI RETURNDATASIZE PUSH1 0x0 DUP1 RETURNDATACOPY RETURNDATASIZE PUSH1 0x0 REVERT JUMPDEST POP POP POP POP PUSH1 0x40 MLOAD RETURNDATASIZE PUSH1 0x1F NOT PUSH1 0x1F DUP3 ADD AND DUP3 ADD DUP1 PUSH1 0x40 MSTORE POP DUP2 ADD SWAP1 PUSH2 0x27E SWAP2 SWAP1 PUSH2 0x64F JUMP JUMPDEST DUP6 PUSH2 0x28A DUP7 PUSH1 0x2 PUSH2 0x4A9 JUMP JUMPDEST PUSH2 0x295 SWAP1 PUSH1 0x1 PUSH2 0x682 JUMP JUMPDEST DUP2 MLOAD DUP2 LT PUSH2 0x2A5 JUMPI PUSH2 0x2A5 PUSH2 0x66C JUMP JUMPDEST PUSH1 0x20 ADD ADD SWAP1 PUSH1 0x1 PUSH1 0x1 PUSH1 0xF8 SHL SUB NOT AND SWAP1 DUP2 PUSH1 0x0 BYTE SWAP1 MSTORE8 POP POP POP POP DUP1 DUP1 PUSH2 0x2CA SWAP1 PUSH2 0x69A JUMP JUMPDEST SWAP2 POP POP PUSH2 0xF6 JUMP JUMPDEST POP SWAP3 SWAP2 POP POP JUMP JUMPDEST PUSH1 0x0 PUSH1 0xA PUSH1 0xF8 DUP4 SWAP1 SHR LT ISZERO PUSH2 0x300 JUMPI PUSH2 0x2F7 PUSH1 0xF8 DUP4 SWAP1 SHR PUSH1 0x30 PUSH2 0x6B5 JUMP JUMPDEST PUSH1 0xF8 SHL SWAP3 SWAP2 POP POP JUMP JUMPDEST PUSH2 0x2F7 PUSH1 0xF8 DUP4 SWAP1 SHR PUSH1 0x57 PUSH2 0x6B5 JUMP JUMPDEST PUSH1 0x40 DUP1 MLOAD PUSH1 0x0 PUSH1 0x20 DUP1 DUP4 ADD DUP3 SWAP1 MSTORE TIMESTAMP DUP4 DUP6 ADD MSTORE DIFFICULTY PUSH1 0x60 DUP1 DUP6 ADD SWAP2 SWAP1 SWAP2 MSTORE COINBASE SWAP1 SHL PUSH12 0xFFFFFFFFFFFFFFFFFFFFFFFF NOT AND PUSH1 0x80 DUP5 ADD MSTORE DUP4 MLOAD DUP1 DUP5 SUB PUSH1 0x74 ADD DUP2 MSTORE PUSH1 0x94 SWAP1 SWAP4 ADD SWAP1 SWAP4 MSTORE DUP2 MLOAD SWAP2 SWAP1 SWAP3 ADD KECCAK256 DUP2 SWAP1 DUP2 PUSH2 0x368 DUP2 PUSH2 0x69A JUMP JUMPDEST POP SWAP1 SWAP4 SWAP3 POP POP POP JUMP JUMPDEST PUSH1 0x0 DUP1 PUSH2 0x37E DUP4 DUP6 PUSH2 0x5D5 JUMP JUMPDEST SWAP1 POP PUSH2 0x38A DUP4 DUP6 PUSH2 0x6DA JUMP JUMPDEST ISZERO PUSH2 0x39D JUMPI PUSH2 0x39A DUP2 PUSH1 0x1 PUSH2 0x682 JUMP JUMPDEST SWAP1 POP JUMPDEST SWAP1 POP JUMPDEST SWAP3 SWAP2 POP POP JUMP JUMPDEST PUSH1 0x0 PUSH1 0x20 DUP3 DUP5 SUB SLT ISZERO PUSH2 0x3B8 JUMPI PUSH1 0x0 DUP1 REVERT JUMPDEST DUP2 CALLDATALOAD PUSH1 0x1 PUSH1 0x1 PUSH1 0xA0 SHL SUB DUP2 AND DUP2 EQ PUSH2 0x39D JUMPI PUSH1 0x0 DUP1 REVERT JUMPDEST PUSH1 0x0 PUSH1 0x20 DUP1 DUP4 MSTORE DUP4 MLOAD DUP1 DUP3 DUP6 ADD MSTORE PUSH1 0x0 JUMPDEST DUP2 DUP2 LT ISZERO PUSH2 0x3FC JUMPI DUP6 DUP2 ADD DUP4 ADD MLOAD DUP6 DUP3 ADD PUSH1 0x40 ADD MSTORE DUP3 ADD PUSH2 0x3E0 JUMP JUMPDEST DUP2 DUP2 GT ISZERO PUSH2 0x40E JUMPI PUSH1 0x0 PUSH1 0x40 DUP4 DUP8 ADD ADD MSTORE JUMPDEST POP PUSH1 0x1F ADD PUSH1 0x1F NOT AND SWAP3 SWAP1 SWAP3 ADD PUSH1 0x40 ADD SWAP4 SWAP3 POP POP POP JUMP JUMPDEST PUSH1 0x1 PUSH1 0x1 PUSH1 0xF8 SHL SUB NOT DUP2 AND DUP2 EQ PUSH2 0x43A JUMPI PUSH1 0x0 DUP1 REVERT JUMPDEST POP JUMP JUMPDEST PUSH1 0x0 PUSH1 0x20 DUP3 DUP5 SUB SLT ISZERO PUSH2 0x44F JUMPI PUSH1 0x0 DUP1 REVERT JUMPDEST DUP2 CALLDATALOAD PUSH2 0x39D DUP2 PUSH2 0x424 JUMP JUMPDEST PUSH1 0x0 DUP1 PUSH1 0x40 DUP4 DUP6 SUB SLT ISZERO PUSH2 0x46D JUMPI PUSH1 0x0 DUP1 REVERT JUMPDEST POP POP DUP1 CALLDATALOAD SWAP3 PUSH1 0x20 SWAP1 SWAP2 ADD CALLDATALOAD SWAP2 POP JUMP JUMPDEST PUSH4 0x4E487B71 PUSH1 0xE0 SHL PUSH1 0x0 MSTORE PUSH1 0x11 PUSH1 0x4 MSTORE PUSH1 0x24 PUSH1 0x0 REVERT JUMPDEST PUSH1 0x0 DUP3 DUP3 LT ISZERO PUSH2 0x4A4 JUMPI PUSH2 0x4A4 PUSH2 0x47C JUMP JUMPDEST POP SUB SWAP1 JUMP JUMPDEST PUSH1 0x0 DUP2 PUSH1 0x0 NOT DIV DUP4 GT DUP3 ISZERO ISZERO AND ISZERO PUSH2 0x4C3 JUMPI PUSH2 0x4C3 PUSH2 0x47C JUMP JUMPDEST POP MUL SWAP1 JUMP JUMPDEST PUSH1 0x1 DUP2 DUP2 JUMPDEST DUP1 DUP6 GT ISZERO PUSH2 0x503 JUMPI DUP2 PUSH1 0x0 NOT DIV DUP3 GT ISZERO PUSH2 0x4E9 JUMPI PUSH2 0x4E9 PUSH2 0x47C JUMP JUMPDEST DUP1 DUP6 AND ISZERO PUSH2 0x4F6 JUMPI SWAP2 DUP2 MUL SWAP2 JUMPDEST SWAP4 DUP5 SHR SWAP4 SWAP1 DUP1 MUL SWAP1 PUSH2 0x4CD JUMP JUMPDEST POP SWAP3 POP SWAP3 SWAP1 POP JUMP JUMPDEST PUSH1 0x0 DUP3 PUSH2 0x51A JUMPI POP PUSH1 0x1 PUSH2 0x3A0 JUMP JUMPDEST DUP2 PUSH2 0x527 JUMPI POP PUSH1 0x0 PUSH2 0x3A0 JUMP JUMPDEST DUP2 PUSH1 0x1 DUP2 EQ PUSH2 0x53D JUMPI PUSH1 0x2 DUP2 EQ PUSH2 0x547 JUMPI PUSH2 0x563 JUMP JUMPDEST PUSH1 0x1 SWAP2 POP POP PUSH2 0x3A0 JUMP JUMPDEST PUSH1 0xFF DUP5 GT ISZERO PUSH2 0x558 JUMPI PUSH2 0x558 PUSH2 0x47C JUMP JUMPDEST POP POP PUSH1 0x1 DUP3 SHL PUSH2 0x3A0 JUMP JUMPDEST POP PUSH1 0x20 DUP4 LT PUSH2 0x133 DUP4 LT AND PUSH1 0x4E DUP5 LT PUSH1 0xB DUP5 LT AND OR ISZERO PUSH2 0x586 JUMPI POP DUP2 DUP2 EXP PUSH2 0x3A0 JUMP JUMPDEST PUSH2 0x590 DUP4 DUP4 PUSH2 0x4C8 JUMP JUMPDEST DUP1 PUSH1 0x0 NOT DIV DUP3 GT ISZERO PUSH2 0x5A4 JUMPI PUSH2 0x5A4 PUSH2 0x47C JUMP JUMPDEST MUL SWAP4 SWAP3 POP POP POP JUMP JUMPDEST PUSH1 0x0 PUSH2 0x5B8 DUP4 DUP4 PUSH2 0x50B JUMP JUMPDEST SWAP4 SWAP3 POP POP POP JUMP JUMPDEST PUSH4 0x4E487B71 PUSH1 0xE0 SHL PUSH1 0x0 MSTORE PUSH1 0x12 PUSH1 0x4 MSTORE PUSH1 0x24 PUSH1 0x0 REVERT JUMPDEST PUSH1 0x0 DUP3 PUSH2 0x5E4 JUMPI PUSH2 0x5E4 PUSH2 0x5BF JUMP JUMPDEST POP DIV SWAP1 JUMP JUMPDEST PUSH1 0x0 PUSH1 0xFF DUP4 AND DUP1 PUSH2 0x5FC JUMPI PUSH2 0x5FC PUSH2 0x5BF JUMP JUMPDEST DUP1 PUSH1 0xFF DUP5 AND DIV SWAP2 POP POP SWAP3 SWAP2 POP POP JUMP JUMPDEST PUSH1 0x0 PUSH1 0xFF DUP3 AND PUSH1 0xFF DUP5 AND DUP2 PUSH1 0xFF DIV DUP2 GT DUP3 ISZERO ISZERO AND ISZERO PUSH2 0x5A4 JUMPI PUSH2 0x5A4 PUSH2 0x47C JUMP JUMPDEST PUSH1 0x0 PUSH1 0xFF DUP3 AND PUSH1 0xFF DUP5 AND DUP1 DUP3 LT ISZERO PUSH2 0x646 JUMPI PUSH2 0x646 PUSH2 0x47C JUMP JUMPDEST SWAP1 SUB SWAP4 SWAP3 POP POP POP JUMP JUMPDEST PUSH1 0x0 PUSH1 0x20 DUP3 DUP5 SUB SLT ISZERO PUSH2 0x661 JUMPI PUSH1 0x0 DUP1 REVERT JUMPDEST DUP2 MLOAD PUSH2 0x39D DUP2 PUSH2 0x424 JUMP JUMPDEST PUSH4 0x4E487B71 PUSH1 0xE0 SHL PUSH1 0x0 MSTORE PUSH1 0x32 PUSH1 0x4 MSTORE PUSH1 0x24 PUSH1 0x0 REVERT JUMPDEST PUSH1 0x0 DUP3 NOT DUP3 GT ISZERO PUSH2 0x695 JUMPI PUSH2 0x695 PUSH2 0x47C JUMP JUMPDEST POP ADD SWAP1 JUMP JUMPDEST PUSH1 0x0 PUSH1 0x0 NOT DUP3 EQ ISZERO PUSH2 0x6AE JUMPI PUSH2 0x6AE PUSH2 0x47C JUMP JUMPDEST POP PUSH1 0x1 ADD SWAP1 JUMP JUMPDEST PUSH1 0x0 PUSH1 0xFF DUP3 AND PUSH1 0xFF DUP5 AND DUP1 PUSH1 0xFF SUB DUP3 GT ISZERO PUSH2 0x6D2 JUMPI PUSH2 0x6D2 PUSH2 0x47C JUMP JUMPDEST ADD SWAP4 SWAP3 POP POP POP JUMP JUMPDEST PUSH1 0x0 DUP3 PUSH2 0x6E9 JUMPI PUSH2 0x6E9 PUSH2 0x5BF JUMP JUMPDEST POP MOD SWAP1 JUMP INVALID LOG2 PUSH5 0x6970667358 0x22 SLT KECCAK256 0xC4 PUSH3 0x53C53E CALL SWAP5 0xD6 EXTCODEHASH COINBASE 0xC9 EXTCODEHASH 0xB1 SMOD OR EXP PUSH7 0xC061EF365DBF58 0xB0 PUSH25 0x2A6A752FBE5164736F6C634300080C00336080604052348015 PUSH3 0x11 JUMPI PUSH1 0x0 DUP1 REVERT JUMPDEST POP PUSH1 0x40 MLOAD PUSH3 0x2A11 CODESIZE SUB DUP1 PUSH3 0x2A11 DUP4 CODECOPY DUP2 ADD PUSH1 0x40 DUP2 SWAP1 MSTORE PUSH3 0x34 SWAP2 PUSH3 0x4CD JUMP JUMPDEST PUSH1 0x40 MLOAD PUSH3 0x42 SWAP1 PUSH3 0x2BB JUMP JUMPDEST PUSH1 0x40 MLOAD DUP1 SWAP2 SUB SWAP1 PUSH1 0x0 CREATE DUP1 ISZERO DUP1 ISZERO PUSH3 0x5F JUMPI RETURNDATASIZE PUSH1 0x0 DUP1 RETURNDATACOPY RETURNDATASIZE PUSH1 0x0 REVERT JUMPDEST POP PUSH1 0x9 DUP1 SLOAD PUSH1 0x1 PUSH1 0x1 PUSH1 0xA0 SHL SUB NOT AND PUSH1 0x1 PUSH1 0x1 PUSH1 0xA0 SHL SUB SWAP3 SWAP1 SWAP3 AND SWAP2 SWAP1 SWAP2 OR SWAP1 SSTORE PUSH3 0x8E DUP5 DUP5 DUP5 DUP5 PUSH3 0x99 JUMP JUMPDEST POP POP POP POP POP PUSH3 0x6DE JUMP JUMPDEST PUSH1 0x9 SLOAD PUSH1 0x40 DUP1 MLOAD PUSH4 0x3BF1B063 PUSH1 0xE2 SHL DUP2 MSTORE SWAP1 MLOAD PUSH1 0x0 SWAP3 PUSH1 0x1 PUSH1 0x1 PUSH1 0xA0 SHL SUB AND SWAP2 PUSH4 0xEFC6C18C SWAP2 PUSH1 0x4 DUP1 DUP4 ADD SWAP3 PUSH1 0x20 SWAP3 SWAP2 SWAP1 DUP3 SWAP1 SUB ADD DUP2 DUP7 GAS STATICCALL ISZERO DUP1 ISZERO PUSH3 0xE4 JUMPI RETURNDATASIZE PUSH1 0x0 DUP1 RETURNDATACOPY RETURNDATASIZE PUSH1 0x0 REVERT JUMPDEST POP POP POP POP PUSH1 0x40 MLOAD RETURNDATASIZE PUSH1 0x1F NOT PUSH1 0x1F DUP3 ADD AND DUP3 ADD DUP1 PUSH1 0x40 MSTORE POP DUP2 ADD SWAP1 PUSH3 0x10A SWAP2 SWAP1 PUSH3 0x5F9 JUMP JUMPDEST PUSH1 0x0 SSTORE DUP4 MLOAD PUSH3 0x122 SWAP1 PUSH1 0x2 SWAP1 PUSH1 0x20 DUP8 ADD SWAP1 PUSH3 0x2C9 JUMP JUMPDEST POP DUP3 MLOAD PUSH3 0x138 SWAP1 PUSH1 0x3 SWAP1 PUSH1 0x20 DUP7 ADD SWAP1 PUSH3 0x2C9 JUMP JUMPDEST POP TIMESTAMP PUSH1 0x4 SSTORE DUP5 MLOAD PUSH3 0x152 SWAP1 PUSH1 0x1 SWAP1 PUSH1 0x20 DUP9 ADD SWAP1 PUSH3 0x358 JUMP JUMPDEST POP PUSH1 0x7 DUP1 SLOAD PUSH2 0xFFFF NOT AND PUSH2 0x100 DUP5 ISZERO ISZERO MUL OR SWAP1 SSTORE PUSH1 0x40 DUP1 MLOAD DUP1 DUP3 ADD SWAP1 SWAP2 MSTORE PUSH1 0xD DUP2 MSTORE PUSH13 0x506F6C6C206372656174656421 PUSH1 0x98 SHL PUSH1 0x20 DUP3 ADD MSTORE PUSH3 0x198 SWAP1 PUSH1 0x1 SWAP1 PUSH3 0x1A4 JUMP JUMPDEST POP PUSH1 0x0 SLOAD SWAP5 SWAP4 POP POP POP POP JUMP JUMPDEST DUP2 PUSH1 0x3 DUP2 GT ISZERO PUSH3 0x1B9 JUMPI PUSH3 0x1B9 PUSH3 0x613 JUMP JUMPDEST PUSH1 0x7 SLOAD PUSH1 0xFF AND PUSH1 0x3 DUP2 GT ISZERO PUSH3 0x1D3 JUMPI PUSH3 0x1D3 PUSH3 0x613 JUMP JUMPDEST EQ PUSH3 0x249 JUMPI PUSH1 0x7 SLOAD PUSH1 0x40 MLOAD CALLER SWAP2 PUSH32 0xFC6F5E211098B443015CCB625104A41F61E97A80DD9B8734242A9A8C3EECC8DC SWAP2 PUSH3 0x216 SWAP2 PUSH1 0xFF AND SWAP1 DUP7 SWAP1 DUP7 SWAP1 PUSH3 0x64C JUMP JUMPDEST PUSH1 0x40 MLOAD DUP1 SWAP2 SUB SWAP1 LOG2 PUSH1 0x7 DUP1 SLOAD DUP4 SWAP2 SWAP1 PUSH1 0xFF NOT AND PUSH1 0x1 DUP4 PUSH1 0x3 DUP2 GT ISZERO PUSH3 0x240 JUMPI PUSH3 0x240 PUSH3 0x613 JUMP JUMPDEST MUL OR SWAP1 SSTORE POP POP POP JUMP JUMPDEST PUSH1 0x40 MLOAD PUSH3 0x461BCD PUSH1 0xE5 SHL DUP2 MSTORE PUSH1 0x20 PUSH1 0x4 DUP3 ADD MSTORE PUSH1 0x36 PUSH1 0x24 DUP3 ADD MSTORE PUSH32 0x5374617465206E6F74206368616E6765642E204E657720737461746520697320 PUSH1 0x44 DUP3 ADD MSTORE PUSH32 0x7468652073616D65206173206F6C642073746174652100000000000000000000 PUSH1 0x64 DUP3 ADD MSTORE PUSH1 0x84 ADD PUSH1 0x40 MLOAD DUP1 SWAP2 SUB SWAP1 REVERT JUMPDEST PUSH2 0x744 DUP1 PUSH3 0x22CD DUP4 CODECOPY ADD SWAP1 JUMP JUMPDEST DUP3 DUP1 SLOAD PUSH3 0x2D7 SWAP1 PUSH3 0x6A1 JUMP JUMPDEST SWAP1 PUSH1 0x0 MSTORE PUSH1 0x20 PUSH1 0x0 KECCAK256 SWAP1 PUSH1 0x1F ADD PUSH1 0x20 SWAP1 DIV DUP2 ADD SWAP3 DUP3 PUSH3 0x2FB JUMPI PUSH1 0x0 DUP6 SSTORE PUSH3 0x346 JUMP JUMPDEST DUP3 PUSH1 0x1F LT PUSH3 0x316 JUMPI DUP1 MLOAD PUSH1 0xFF NOT AND DUP4 DUP1 ADD OR DUP6 SSTORE PUSH3 0x346 JUMP JUMPDEST DUP3 DUP1 ADD PUSH1 0x1 ADD DUP6 SSTORE DUP3 ISZERO PUSH3 0x346 JUMPI SWAP2 DUP3 ADD JUMPDEST DUP3 DUP2 GT ISZERO PUSH3 0x346 JUMPI DUP3 MLOAD DUP3 SSTORE SWAP2 PUSH1 0x20 ADD SWAP2 SWAP1 PUSH1 0x1 ADD SWAP1 PUSH3 0x329 JUMP JUMPDEST POP PUSH3 0x354 SWAP3 SWAP2 POP PUSH3 0x3B0 JUMP JUMPDEST POP SWAP1 JUMP JUMPDEST DUP3 DUP1 SLOAD DUP3 DUP3 SSTORE SWAP1 PUSH1 0x0 MSTORE PUSH1 0x20 PUSH1 0x0 KECCAK256 SWAP1 DUP2 ADD SWAP3 DUP3 ISZERO PUSH3 0x346 JUMPI SWAP2 PUSH1 0x20 MUL DUP3 ADD JUMPDEST DUP3 DUP2 GT ISZERO PUSH3 0x346 JUMPI DUP3 MLOAD DUP3 SLOAD PUSH1 0x1 PUSH1 0x1 PUSH1 0xA0 SHL SUB NOT AND PUSH1 0x1 PUSH1 0x1 PUSH1 0xA0 SHL SUB SWAP1 SWAP2 AND OR DUP3 SSTORE PUSH1 0x20 SWAP1 SWAP3 ADD SWAP2 PUSH1 0x1 SWAP1 SWAP2 ADD SWAP1 PUSH3 0x379 JUMP JUMPDEST JUMPDEST DUP1 DUP3 GT ISZERO PUSH3 0x354 JUMPI PUSH1 0x0 DUP2 SSTORE PUSH1 0x1 ADD PUSH3 0x3B1 JUMP JUMPDEST PUSH4 0x4E487B71 PUSH1 0xE0 SHL PUSH1 0x0 MSTORE PUSH1 0x41 PUSH1 0x4 MSTORE PUSH1 0x24 PUSH1 0x0 REVERT JUMPDEST PUSH1 0x40 MLOAD PUSH1 0x1F DUP3 ADD PUSH1 0x1F NOT AND DUP2 ADD PUSH1 0x1 PUSH1 0x1 PUSH1 0x40 SHL SUB DUP2 GT DUP3 DUP3 LT OR ISZERO PUSH3 0x408 JUMPI PUSH3 0x408 PUSH3 0x3C7 JUMP JUMPDEST PUSH1 0x40 MSTORE SWAP2 SWAP1 POP JUMP JUMPDEST PUSH1 0x0 JUMPDEST DUP4 DUP2 LT ISZERO PUSH3 0x42D JUMPI DUP2 DUP2 ADD MLOAD DUP4 DUP3 ADD MSTORE PUSH1 0x20 ADD PUSH3 0x413 JUMP JUMPDEST DUP4 DUP2 GT ISZERO PUSH3 0x43D JUMPI PUSH1 0x0 DUP5 DUP5 ADD MSTORE JUMPDEST POP POP POP POP JUMP JUMPDEST PUSH1 0x0 DUP3 PUSH1 0x1F DUP4 ADD SLT PUSH3 0x455 JUMPI PUSH1 0x0 DUP1 REVERT JUMPDEST DUP2 MLOAD PUSH1 0x1 PUSH1 0x1 PUSH1 0x40 SHL SUB DUP2 GT ISZERO PUSH3 0x471 JUMPI PUSH3 0x471 PUSH3 0x3C7 JUMP JUMPDEST PUSH3 0x486 PUSH1 0x1F DUP3 ADD PUSH1 0x1F NOT AND PUSH1 0x20 ADD PUSH3 0x3DD JUMP JUMPDEST DUP2 DUP2 MSTORE DUP5 PUSH1 0x20 DUP4 DUP7 ADD ADD GT ISZERO PUSH3 0x49C JUMPI PUSH1 0x0 DUP1 REVERT JUMPDEST PUSH3 0x4AF DUP3 PUSH1 0x20 DUP4 ADD PUSH1 0x20 DUP8 ADD PUSH3 0x410 JUMP JUMPDEST SWAP5 SWAP4 POP POP POP POP JUMP JUMPDEST DUP1 MLOAD DUP1 ISZERO ISZERO DUP2 EQ PUSH3 0x4C8 JUMPI PUSH1 0x0 DUP1 REVERT JUMPDEST SWAP2 SWAP1 POP JUMP JUMPDEST PUSH1 0x0 DUP1 PUSH1 0x0 DUP1 PUSH1 0x80 DUP6 DUP8 SUB SLT ISZERO PUSH3 0x4E4 JUMPI PUSH1 0x0 DUP1 REVERT JUMPDEST DUP5 MLOAD PUSH1 0x1 PUSH1 0x1 PUSH1 0x40 SHL SUB DUP1 DUP3 GT ISZERO PUSH3 0x4FC JUMPI PUSH1 0x0 DUP1 REVERT JUMPDEST DUP2 DUP8 ADD SWAP2 POP DUP8 PUSH1 0x1F DUP4 ADD SLT PUSH3 0x511 JUMPI PUSH1 0x0 DUP1 REVERT JUMPDEST DUP2 MLOAD PUSH1 0x20 DUP3 DUP3 GT ISZERO PUSH3 0x528 JUMPI PUSH3 0x528 PUSH3 0x3C7 JUMP JUMPDEST DUP2 PUSH1 0x5 SHL PUSH3 0x539 DUP3 DUP3 ADD PUSH3 0x3DD JUMP JUMPDEST SWAP3 DUP4 MSTORE DUP5 DUP2 ADD DUP3 ADD SWAP3 DUP3 DUP2 ADD SWAP1 DUP13 DUP6 GT ISZERO PUSH3 0x554 JUMPI PUSH1 0x0 DUP1 REVERT JUMPDEST SWAP6 DUP4 ADD SWAP6 JUMPDEST DUP5 DUP8 LT ISZERO PUSH3 0x58E JUMPI DUP7 MLOAD SWAP3 POP PUSH1 0x1 PUSH1 0x1 PUSH1 0xA0 SHL SUB DUP4 AND DUP4 EQ PUSH3 0x57D JUMPI PUSH1 0x0 DUP1 DUP2 REVERT JUMPDEST DUP3 DUP3 MSTORE SWAP6 DUP4 ADD SWAP6 SWAP1 DUP4 ADD SWAP1 PUSH3 0x559 JUMP JUMPDEST SWAP3 DUP12 ADD MLOAD SWAP3 SWAP10 POP SWAP2 SWAP5 POP POP POP POP DUP1 DUP3 GT ISZERO PUSH3 0x5A9 JUMPI PUSH1 0x0 DUP1 REVERT JUMPDEST PUSH3 0x5B7 DUP9 DUP4 DUP10 ADD PUSH3 0x443 JUMP JUMPDEST SWAP5 POP PUSH1 0x40 DUP8 ADD MLOAD SWAP2 POP DUP1 DUP3 GT ISZERO PUSH3 0x5CE JUMPI PUSH1 0x0 DUP1 REVERT JUMPDEST POP PUSH3 0x5DD DUP8 DUP3 DUP9 ADD PUSH3 0x443 JUMP JUMPDEST SWAP3 POP POP PUSH3 0x5EE PUSH1 0x60 DUP7 ADD PUSH3 0x4B7 JUMP JUMPDEST SWAP1 POP SWAP3 SWAP6 SWAP2 SWAP5 POP SWAP3 POP JUMP JUMPDEST PUSH1 0x0 PUSH1 0x20 DUP3 DUP5 SUB SLT ISZERO PUSH3 0x60C JUMPI PUSH1 0x0 DUP1 REVERT JUMPDEST POP MLOAD SWAP2 SWAP1 POP JUMP JUMPDEST PUSH4 0x4E487B71 PUSH1 0xE0 SHL PUSH1 0x0 MSTORE PUSH1 0x21 PUSH1 0x4 MSTORE PUSH1 0x24 PUSH1 0x0 REVERT JUMPDEST PUSH1 0x4 DUP2 LT PUSH3 0x648 JUMPI PUSH4 0x4E487B71 PUSH1 0xE0 SHL PUSH1 0x0 MSTORE PUSH1 0x21 PUSH1 0x4 MSTORE PUSH1 0x24 PUSH1 0x0 REVERT JUMPDEST SWAP1 MSTORE JUMP JUMPDEST PUSH3 0x658 DUP2 DUP6 PUSH3 0x629 JUMP JUMPDEST PUSH3 0x667 PUSH1 0x20 DUP3 ADD DUP5 PUSH3 0x629 JUMP JUMPDEST PUSH1 0x60 PUSH1 0x40 DUP3 ADD MSTORE PUSH1 0x0 DUP3 MLOAD DUP1 PUSH1 0x60 DUP5 ADD MSTORE PUSH3 0x68B DUP2 PUSH1 0x80 DUP6 ADD PUSH1 0x20 DUP8 ADD PUSH3 0x410 JUMP JUMPDEST PUSH1 0x1F ADD PUSH1 0x1F NOT AND SWAP2 SWAP1 SWAP2 ADD PUSH1 0x80 ADD SWAP5 SWAP4 POP POP POP POP JUMP JUMPDEST PUSH1 0x1 DUP2 DUP2 SHR SWAP1 DUP3 AND DUP1 PUSH3 0x6B6 JUMPI PUSH1 0x7F DUP3 AND SWAP2 POP JUMPDEST PUSH1 0x20 DUP3 LT DUP2 EQ ISZERO PUSH3 0x6D8 JUMPI PUSH4 0x4E487B71 PUSH1 0xE0 SHL PUSH1 0x0 MSTORE PUSH1 0x22 PUSH1 0x4 MSTORE PUSH1 0x24 PUSH1 0x0 REVERT JUMPDEST POP SWAP2 SWAP1 POP JUMP JUMPDEST PUSH2 0x1BDF DUP1 PUSH3 0x6EE PUSH1 0x0 CODECOPY PUSH1 0x0 RETURN INVALID PUSH1 0x80 PUSH1 0x40 MSTORE CALLVALUE DUP1 ISZERO PUSH2 0x10 JUMPI PUSH1 0x0 DUP1 REVERT JUMPDEST POP PUSH1 0x4 CALLDATASIZE LT PUSH2 0x173 JUMPI PUSH1 0x0 CALLDATALOAD PUSH1 0xE0 SHR DUP1 PUSH4 0x7284E416 GT PUSH2 0xDE JUMPI DUP1 PUSH4 0xC19D93FB GT PUSH2 0x97 JUMPI DUP1 PUSH4 0xD9F3A5C1 GT PUSH2 0x71 JUMPI DUP1 PUSH4 0xD9F3A5C1 EQ PUSH2 0x2E8 JUMPI DUP1 PUSH4 0xDDD7531B EQ PUSH2 0x2F0 JUMPI DUP1 PUSH4 0xE0A96CD6 EQ PUSH2 0x303 JUMPI DUP1 PUSH4 0xFF3C1A8F EQ PUSH2 0x318 JUMPI PUSH1 0x0 DUP1 REVERT JUMPDEST DUP1 PUSH4 0xC19D93FB EQ PUSH2 0x297 JUMPI DUP1 PUSH4 0xCC2EE196 EQ PUSH2 0x2B1 JUMPI DUP1 PUSH4 0xD4B5F16A EQ PUSH2 0x2C6 JUMPI PUSH1 0x0 DUP1 REVERT JUMPDEST DUP1 PUSH4 0x7284E416 EQ PUSH2 0x258 JUMPI DUP1 PUSH4 0xA6BD5427 EQ PUSH2 0x1B2 JUMPI DUP1 PUSH4 0xA89A0862 EQ PUSH2 0x260 JUMPI DUP1 PUSH4 0xAF640D0F EQ PUSH2 0x273 JUMPI DUP1 PUSH4 0xB1689A4B EQ PUSH2 0x27C JUMPI DUP1 PUSH4 0xB90C1DBB EQ PUSH2 0x28F JUMPI PUSH1 0x0 DUP1 REVERT JUMPDEST DUP1 PUSH4 0x42169E48 GT PUSH2 0x130 JUMPI DUP1 PUSH4 0x42169E48 EQ PUSH2 0x207 JUMPI DUP1 PUSH4 0x4A79D50C EQ PUSH2 0x210 JUMPI DUP1 PUSH4 0x4F4A3115 EQ PUSH2 0x218 JUMPI DUP1 PUSH4 0x517B7042 EQ PUSH2 0x22B JUMPI DUP1 PUSH4 0x62A5AF3B EQ PUSH2 0x23D JUMPI DUP1 PUSH4 0x64697E2C EQ PUSH2 0x245 JUMPI PUSH1 0x0 DUP1 REVERT JUMPDEST DUP1 PUSH4 0x25E7C27 EQ PUSH2 0x178 JUMPI DUP1 PUSH4 0xF15F4C0 EQ PUSH2 0x1A8 JUMPI DUP1 PUSH4 0x11174A29 EQ PUSH2 0x1B2 JUMPI DUP1 PUSH4 0x1A092541 EQ PUSH2 0x1C4 JUMPI DUP1 PUSH4 0x2F2770DB EQ PUSH2 0x1D9 JUMPI DUP1 PUSH4 0x409E2205 EQ PUSH2 0x1E1 JUMPI JUMPDEST PUSH1 0x0 DUP1 REVERT JUMPDEST PUSH2 0x18B PUSH2 0x186 CALLDATASIZE PUSH1 0x4 PUSH2 0x1591 JUMP JUMPDEST PUSH2 0x320 JUMP JUMPDEST PUSH1 0x40 MLOAD PUSH1 0x1 PUSH1 0x1 PUSH1 0xA0 SHL SUB SWAP1 SWAP2 AND DUP2 MSTORE PUSH1 0x20 ADD JUMPDEST PUSH1 0x40 MLOAD DUP1 SWAP2 SUB SWAP1 RETURN JUMPDEST PUSH2 0x1B0 PUSH2 0x34A JUMP JUMPDEST STOP JUMPDEST PUSH1 0x6 SLOAD JUMPDEST PUSH1 0x40 MLOAD SWAP1 DUP2 MSTORE PUSH1 0x20 ADD PUSH2 0x19F JUMP JUMPDEST PUSH2 0x1CC PUSH2 0x404 JUMP JUMPDEST PUSH1 0x40 MLOAD PUSH2 0x19F SWAP2 SWAP1 PUSH2 0x15F7 JUMP JUMPDEST PUSH2 0x1B0 PUSH2 0x496 JUMP JUMPDEST PUSH2 0x1F4 PUSH2 0x1EF CALLDATASIZE PUSH1 0x4 PUSH2 0x1591 JUMP JUMPDEST PUSH2 0x543 JUMP JUMPDEST PUSH1 0x40 MLOAD PUSH2 0x19F SWAP8 SWAP7 SWAP6 SWAP5 SWAP4 SWAP3 SWAP2 SWAP1 PUSH2 0x1611 JUMP JUMPDEST PUSH2 0x1B6 PUSH1 0x6 SLOAD DUP2 JUMP JUMPDEST PUSH2 0x1CC PUSH2 0x6B5 JUMP JUMPDEST PUSH2 0x1B0 PUSH2 0x226 CALLDATASIZE PUSH1 0x4 PUSH2 0x1591 JUMP JUMPDEST PUSH2 0x743 JUMP JUMPDEST PUSH2 0x1B6 PUSH2 0x239 CALLDATASIZE PUSH1 0x4 PUSH2 0x176A JUMP JUMPDEST MLOAD SWAP1 JUMP JUMPDEST PUSH2 0x1B0 PUSH2 0x804 JUMP JUMPDEST PUSH2 0x1B0 PUSH2 0x253 CALLDATASIZE PUSH1 0x4 PUSH2 0x1591 JUMP JUMPDEST PUSH2 0x8AF JUMP JUMPDEST PUSH2 0x1CC PUSH2 0xAE3 JUMP JUMPDEST PUSH2 0x1B0 PUSH2 0x26E CALLDATASIZE PUSH1 0x4 PUSH2 0x1845 JUMP JUMPDEST PUSH2 0xAF0 JUMP JUMPDEST PUSH2 0x1B6 PUSH1 0x0 SLOAD DUP2 JUMP JUMPDEST PUSH2 0x1B0 PUSH2 0x28A CALLDATASIZE PUSH1 0x4 PUSH2 0x1591 JUMP JUMPDEST PUSH2 0xD2D JUMP JUMPDEST PUSH1 0x4 SLOAD PUSH2 0x1B6 JUMP JUMPDEST PUSH1 0x7 SLOAD PUSH2 0x2A4 SWAP1 PUSH1 0xFF AND DUP2 JUMP JUMPDEST PUSH1 0x40 MLOAD PUSH2 0x19F SWAP2 SWAP1 PUSH2 0x1902 JUMP JUMPDEST PUSH2 0x2B9 PUSH2 0xFE1 JUMP JUMPDEST PUSH1 0x40 MLOAD PUSH2 0x19F SWAP2 SWAP1 PUSH2 0x1916 JUMP JUMPDEST PUSH1 0x7 SLOAD PUSH2 0x2D8 SWAP1 PUSH2 0x100 SWAP1 DIV PUSH1 0xFF AND DUP2 JUMP JUMPDEST PUSH1 0x40 MLOAD SWAP1 ISZERO ISZERO DUP2 MSTORE PUSH1 0x20 ADD PUSH2 0x19F JUMP JUMPDEST PUSH2 0x1B0 PUSH2 0x11B3 JUMP JUMPDEST PUSH2 0x1B0 PUSH2 0x2FE CALLDATASIZE PUSH1 0x4 PUSH2 0x1591 JUMP JUMPDEST PUSH2 0x12DA JUMP JUMPDEST PUSH2 0x2D8 PUSH2 0x311 CALLDATASIZE PUSH1 0x4 PUSH2 0x176A JUMP JUMPDEST PUSH1 0x60 ADD MLOAD SWAP1 JUMP JUMPDEST PUSH2 0x1CC PUSH2 0x133A JUMP JUMPDEST PUSH1 0x1 DUP2 DUP2 SLOAD DUP2 LT PUSH2 0x330 JUMPI PUSH1 0x0 DUP1 REVERT JUMPDEST PUSH1 0x0 SWAP2 DUP3 MSTORE PUSH1 0x20 SWAP1 SWAP2 KECCAK256 ADD SLOAD PUSH1 0x1 PUSH1 0x1 PUSH1 0xA0 SHL SUB AND SWAP1 POP DUP2 JUMP JUMPDEST PUSH1 0x1 PUSH1 0x0 JUMPDEST PUSH1 0x1 SLOAD DUP2 LT ISZERO PUSH2 0x3A3 JUMPI PUSH1 0x1 DUP2 DUP2 SLOAD DUP2 LT PUSH2 0x36C JUMPI PUSH2 0x36C PUSH2 0x19E3 JUMP JUMPDEST PUSH1 0x0 SWAP2 DUP3 MSTORE PUSH1 0x20 SWAP1 SWAP2 KECCAK256 ADD SLOAD PUSH1 0x1 PUSH1 0x1 PUSH1 0xA0 SHL SUB AND CALLER EQ ISZERO PUSH2 0x391 JUMPI PUSH1 0x1 SWAP2 POP PUSH2 0x3A3 JUMP JUMPDEST DUP1 PUSH2 0x39B DUP2 PUSH2 0x1A0F JUMP JUMPDEST SWAP2 POP POP PUSH2 0x34F JUMP JUMPDEST POP PUSH1 0x1 DUP2 ISZERO ISZERO EQ PUSH2 0x3CF JUMPI PUSH1 0x40 MLOAD PUSH3 0x461BCD PUSH1 0xE5 SHL DUP2 MSTORE PUSH1 0x4 ADD PUSH2 0x3C6 SWAP1 PUSH2 0x1A2A JUMP JUMPDEST PUSH1 0x40 MLOAD DUP1 SWAP2 SUB SWAP1 REVERT JUMPDEST PUSH2 0x401 PUSH1 0x1 PUSH1 0x40 MLOAD DUP1 PUSH1 0x40 ADD PUSH1 0x40 MSTORE DUP1 PUSH1 0xF DUP2 MSTORE PUSH1 0x20 ADD PUSH15 0x506F6C6C2061637469766174656421 PUSH1 0x88 SHL DUP2 MSTORE POP PUSH2 0x1349 JUMP JUMPDEST POP JUMP JUMPDEST PUSH1 0x60 PUSH1 0x3 DUP1 SLOAD PUSH2 0x413 SWAP1 PUSH2 0x1A6C JUMP JUMPDEST DUP1 PUSH1 0x1F ADD PUSH1 0x20 DUP1 SWAP2 DIV MUL PUSH1 0x20 ADD PUSH1 0x40 MLOAD SWAP1 DUP2 ADD PUSH1 0x40 MSTORE DUP1 SWAP3 SWAP2 SWAP1 DUP2 DUP2 MSTORE PUSH1 0x20 ADD DUP3 DUP1 SLOAD PUSH2 0x43F SWAP1 PUSH2 0x1A6C JUMP JUMPDEST DUP1 ISZERO PUSH2 0x48C JUMPI DUP1 PUSH1 0x1F LT PUSH2 0x461 JUMPI PUSH2 0x100 DUP1 DUP4 SLOAD DIV MUL DUP4 MSTORE SWAP2 PUSH1 0x20 ADD SWAP2 PUSH2 0x48C JUMP JUMPDEST DUP3 ADD SWAP2 SWAP1 PUSH1 0x0 MSTORE PUSH1 0x20 PUSH1 0x0 KECCAK256 SWAP1 JUMPDEST DUP2 SLOAD DUP2 MSTORE SWAP1 PUSH1 0x1 ADD SWAP1 PUSH1 0x20 ADD DUP1 DUP4 GT PUSH2 0x46F JUMPI DUP3 SWAP1 SUB PUSH1 0x1F AND DUP3 ADD SWAP2 JUMPDEST POP POP POP POP POP SWAP1 POP SWAP1 JUMP JUMPDEST PUSH1 0x1 PUSH1 0x0 JUMPDEST PUSH1 0x1 SLOAD DUP2 LT ISZERO PUSH2 0x4EF JUMPI PUSH1 0x1 DUP2 DUP2 SLOAD DUP2 LT PUSH2 0x4B8 JUMPI PUSH2 0x4B8 PUSH2 0x19E3 JUMP JUMPDEST PUSH1 0x0 SWAP2 DUP3 MSTORE PUSH1 0x20 SWAP1 SWAP2 KECCAK256 ADD SLOAD PUSH1 0x1 PUSH1 0x1 PUSH1 0xA0 SHL SUB AND CALLER EQ ISZERO PUSH2 0x4DD JUMPI PUSH1 0x1 SWAP2 POP PUSH2 0x4EF JUMP JUMPDEST DUP1 PUSH2 0x4E7 DUP2 PUSH2 0x1A0F JUMP JUMPDEST SWAP2 POP POP PUSH2 0x49B JUMP JUMPDEST POP PUSH1 0x1 DUP2 ISZERO ISZERO EQ PUSH2 0x512 JUMPI PUSH1 0x40 MLOAD PUSH3 0x461BCD PUSH1 0xE5 SHL DUP2 MSTORE PUSH1 0x4 ADD PUSH2 0x3C6 SWAP1 PUSH2 0x1A2A JUMP JUMPDEST PUSH2 0x401 PUSH1 0x3 PUSH1 0x40 MLOAD DUP1 PUSH1 0x40 ADD PUSH1 0x40 MSTORE DUP1 PUSH1 0xE DUP2 MSTORE PUSH1 0x20 ADD PUSH14 0x506F6C6C2064697361626C656421 PUSH1 0x90 SHL DUP2 MSTORE POP PUSH2 0x1349 JUMP JUMPDEST PUSH1 0x5 DUP2 DUP2 SLOAD DUP2 LT PUSH2 0x553 JUMPI PUSH1 0x0 DUP1 REVERT JUMPDEST PUSH1 0x0 SWAP2 DUP3 MSTORE PUSH1 0x20 SWAP1 SWAP2 KECCAK256 PUSH1 0x6 SWAP1 SWAP2 MUL ADD DUP1 SLOAD PUSH1 0x1 DUP3 ADD SLOAD PUSH1 0x2 DUP4 ADD SLOAD PUSH1 0x3 DUP5 ADD DUP1 SLOAD SWAP4 SWAP6 POP PUSH1 0x1 PUSH1 0x1 PUSH1 0xA0 SHL SUB SWAP3 DUP4 AND SWAP5 SWAP3 DUP3 AND SWAP4 PUSH1 0x1 PUSH1 0xA0 SHL SWAP1 SWAP3 DIV PUSH1 0xFF AND SWAP3 SWAP2 PUSH2 0x59E SWAP1 PUSH2 0x1A6C JUMP JUMPDEST DUP1 PUSH1 0x1F ADD PUSH1 0x20 DUP1 SWAP2 DIV MUL PUSH1 0x20 ADD PUSH1 0x40 MLOAD SWAP1 DUP2 ADD PUSH1 0x40 MSTORE DUP1 SWAP3 SWAP2 SWAP1 DUP2 DUP2 MSTORE PUSH1 0x20 ADD DUP3 DUP1 SLOAD PUSH2 0x5CA SWAP1 PUSH2 0x1A6C JUMP JUMPDEST DUP1 ISZERO PUSH2 0x617 JUMPI DUP1 PUSH1 0x1F LT PUSH2 0x5EC JUMPI PUSH2 0x100 DUP1 DUP4 SLOAD DIV MUL DUP4 MSTORE SWAP2 PUSH1 0x20 ADD SWAP2 PUSH2 0x617 JUMP JUMPDEST DUP3 ADD SWAP2 SWAP1 PUSH1 0x0 MSTORE PUSH1 0x20 PUSH1 0x0 KECCAK256 SWAP1 JUMPDEST DUP2 SLOAD DUP2 MSTORE SWAP1 PUSH1 0x1 ADD SWAP1 PUSH1 0x20 ADD DUP1 DUP4 GT PUSH2 0x5FA JUMPI DUP3 SWAP1 SUB PUSH1 0x1F AND DUP3 ADD SWAP2 JUMPDEST POP POP POP POP POP SWAP1 DUP1 PUSH1 0x4 ADD DUP1 SLOAD PUSH2 0x62C SWAP1 PUSH2 0x1A6C JUMP JUMPDEST DUP1 PUSH1 0x1F ADD PUSH1 0x20 DUP1 SWAP2 DIV MUL PUSH1 0x20 ADD PUSH1 0x40 MLOAD SWAP1 DUP2 ADD PUSH1 0x40 MSTORE DUP1 SWAP3 SWAP2 SWAP1 DUP2 DUP2 MSTORE PUSH1 0x20 ADD DUP3 DUP1 SLOAD PUSH2 0x658 SWAP1 PUSH2 0x1A6C JUMP JUMPDEST DUP1 ISZERO PUSH2 0x6A5 JUMPI DUP1 PUSH1 0x1F LT PUSH2 0x67A JUMPI PUSH2 0x100 DUP1 DUP4 SLOAD DIV MUL DUP4 MSTORE SWAP2 PUSH1 0x20 ADD SWAP2 PUSH2 0x6A5 JUMP JUMPDEST DUP3 ADD SWAP2 SWAP1 PUSH1 0x0 MSTORE PUSH1 0x20 PUSH1 0x0 KECCAK256 SWAP1 JUMPDEST DUP2 SLOAD DUP2 MSTORE SWAP1 PUSH1 0x1 ADD SWAP1 PUSH1 0x20 ADD DUP1 DUP4 GT PUSH2 0x688 JUMPI DUP3 SWAP1 SUB PUSH1 0x1F AND DUP3 ADD SWAP2 JUMPDEST POP POP POP POP POP SWAP1 DUP1 PUSH1 0x5 ADD SLOAD SWAP1 POP DUP8 JUMP JUMPDEST PUSH1 0x2 DUP1 SLOAD PUSH2 0x6C2 SWAP1 PUSH2 0x1A6C JUMP JUMPDEST DUP1 PUSH1 0x1F ADD PUSH1 0x20 DUP1 SWAP2 DIV MUL PUSH1 0x20 ADD PUSH1 0x40 MLOAD SWAP1 DUP2 ADD PUSH1 0x40 MSTORE DUP1 SWAP3 SWAP2 SWAP1 DUP2 DUP2 MSTORE PUSH1 0x20 ADD DUP3 DUP1 SLOAD PUSH2 0x6EE SWAP1 PUSH2 0x1A6C JUMP JUMPDEST DUP1 ISZERO PUSH2 0x73B JUMPI DUP1 PUSH1 0x1F LT PUSH2 0x710 JUMPI PUSH2 0x100 DUP1 DUP4 SLOAD DIV MUL DUP4 MSTORE SWAP2 PUSH1 0x20 ADD SWAP2 PUSH2 0x73B JUMP JUMPDEST DUP3 ADD SWAP2 SWAP1 PUSH1 0x0 MSTORE PUSH1 0x20 PUSH1 0x0 KECCAK256 SWAP1 JUMPDEST DUP2 SLOAD DUP2 MSTORE SWAP1 PUSH1 0x1 ADD SWAP1 PUSH1 0x20 ADD DUP1 DUP4 GT PUSH2 0x71E JUMPI DUP3 SWAP1 SUB PUSH1 0x1F AND DUP3 ADD SWAP2 JUMPDEST POP POP POP POP POP DUP2 JUMP JUMPDEST PUSH1 0x0 JUMPDEST PUSH1 0x5 SLOAD DUP2 LT ISZERO PUSH2 0x7CF JUMPI DUP2 PUSH1 0x5 DUP3 DUP2 SLOAD DUP2 LT PUSH2 0x764 JUMPI PUSH2 0x764 PUSH2 0x19E3 JUMP JUMPDEST SWAP1 PUSH1 0x0 MSTORE PUSH1 0x20 PUSH1 0x0 KECCAK256 SWAP1 PUSH1 0x6 MUL ADD PUSH1 0x0 ADD SLOAD EQ ISZERO PUSH2 0x7BD JUMPI PUSH1 0x0 PUSH1 0x5 DUP3 DUP2 SLOAD DUP2 LT PUSH2 0x791 JUMPI PUSH2 0x791 PUSH2 0x19E3 JUMP JUMPDEST SWAP1 PUSH1 0x0 MSTORE PUSH1 0x20 PUSH1 0x0 KECCAK256 SWAP1 PUSH1 0x6 MUL ADD PUSH1 0x2 ADD PUSH1 0x14 PUSH2 0x100 EXP DUP2 SLOAD DUP2 PUSH1 0xFF MUL NOT AND SWAP1 DUP4 ISZERO ISZERO MUL OR SWAP1 SSTORE POP POP POP JUMP JUMPDEST DUP1 PUSH2 0x7C7 DUP2 PUSH2 0x1A0F JUMP JUMPDEST SWAP2 POP POP PUSH2 0x746 JUMP JUMPDEST POP PUSH1 0x40 MLOAD PUSH3 0x461BCD PUSH1 0xE5 SHL DUP2 MSTORE PUSH1 0x20 PUSH1 0x4 DUP3 ADD MSTORE PUSH1 0x9 PUSH1 0x24 DUP3 ADD MSTORE PUSH9 0x139BDD08199BDD5B99 PUSH1 0xBA SHL PUSH1 0x44 DUP3 ADD MSTORE PUSH1 0x64 ADD PUSH2 0x3C6 JUMP JUMPDEST PUSH1 0x1 PUSH1 0x0 JUMPDEST PUSH1 0x1 SLOAD DUP2 LT ISZERO PUSH2 0x85D JUMPI PUSH1 0x1 DUP2 DUP2 SLOAD DUP2 LT PUSH2 0x826 JUMPI PUSH2 0x826 PUSH2 0x19E3 JUMP JUMPDEST PUSH1 0x0 SWAP2 DUP3 MSTORE PUSH1 0x20 SWAP1 SWAP2 KECCAK256 ADD SLOAD PUSH1 0x1 PUSH1 0x1 PUSH1 0xA0 SHL SUB AND CALLER EQ ISZERO PUSH2 0x84B JUMPI PUSH1 0x1 SWAP2 POP PUSH2 0x85D JUMP JUMPDEST DUP1 PUSH2 0x855 DUP2 PUSH2 0x1A0F JUMP JUMPDEST SWAP2 POP POP PUSH2 0x809 JUMP JUMPDEST POP PUSH1 0x1 DUP2 ISZERO ISZERO EQ PUSH2 0x880 JUMPI PUSH1 0x40 MLOAD PUSH3 0x461BCD PUSH1 0xE5 SHL DUP2 MSTORE PUSH1 0x4 ADD PUSH2 0x3C6 SWAP1 PUSH2 0x1A2A JUMP JUMPDEST PUSH2 0x401 PUSH1 0x2 PUSH1 0x40 MLOAD DUP1 PUSH1 0x40 ADD PUSH1 0x40 MSTORE DUP1 PUSH1 0xC DUP2 MSTORE PUSH1 0x20 ADD PUSH12 0x506F6C6C2066726F7A656E21 PUSH1 0xA0 SHL DUP2 MSTORE POP PUSH2 0x1349 JUMP JUMPDEST PUSH1 0x1 PUSH1 0x7 SLOAD PUSH1 0xFF AND PUSH1 0x3 DUP2 GT ISZERO PUSH2 0x8C8 JUMPI PUSH2 0x8C8 PUSH2 0x18CA JUMP JUMPDEST EQ PUSH2 0x8E5 JUMPI PUSH1 0x40 MLOAD PUSH3 0x461BCD PUSH1 0xE5 SHL DUP2 MSTORE PUSH1 0x4 ADD PUSH2 0x3C6 SWAP1 PUSH2 0x1AA7 JUMP JUMPDEST CALLER PUSH1 0x0 PUSH2 0x8F1 DUP4 PUSH2 0x1449 JUMP JUMPDEST PUSH1 0x2 DUP2 ADD SLOAD SWAP1 SWAP2 POP PUSH1 0x1 PUSH1 0xA0 SHL SWAP1 DIV PUSH1 0xFF AND ISZERO PUSH2 0xAA3 JUMPI PUSH1 0x1 PUSH1 0x1 PUSH1 0xA0 SHL SUB DUP3 AND PUSH1 0x0 SWAP1 DUP2 MSTORE PUSH1 0x8 PUSH1 0x20 MSTORE PUSH1 0x40 SWAP1 KECCAK256 DUP1 SLOAD PUSH2 0x960 JUMPI DUP4 DUP2 PUSH1 0x0 DUP2 SLOAD DUP2 LT PUSH2 0x93A JUMPI PUSH2 0x93A PUSH2 0x19E3 JUMP JUMPDEST PUSH1 0x0 SWAP2 DUP3 MSTORE PUSH1 0x20 DUP3 KECCAK256 ADD SWAP2 SWAP1 SWAP2 SSTORE PUSH1 0x6 DUP1 SLOAD SWAP2 PUSH2 0x956 DUP4 PUSH2 0x1A0F JUMP JUMPDEST SWAP2 SWAP1 POP SSTORE POP PUSH2 0xA86 JUMP JUMPDEST PUSH1 0x7 SLOAD PUSH2 0x100 SWAP1 DIV PUSH1 0xFF AND ISZERO PUSH2 0xA0F JUMPI PUSH1 0x0 DUP2 PUSH1 0x0 DUP2 SLOAD DUP2 LT PUSH2 0x985 JUMPI PUSH2 0x985 PUSH2 0x19E3 JUMP JUMPDEST SWAP1 PUSH1 0x0 MSTORE PUSH1 0x20 PUSH1 0x0 KECCAK256 ADD SLOAD SWAP1 POP PUSH1 0x0 PUSH2 0x99D DUP3 PUSH2 0x1449 JUMP JUMPDEST SWAP1 POP DUP2 DUP7 EQ ISZERO PUSH2 0x9BF JUMPI PUSH1 0x40 MLOAD PUSH3 0x461BCD PUSH1 0xE5 SHL DUP2 MSTORE PUSH1 0x4 ADD PUSH2 0x3C6 SWAP1 PUSH2 0x1AEB JUMP JUMPDEST PUSH1 0x5 DUP2 ADD DUP1 SLOAD SWAP1 PUSH1 0x0 PUSH2 0x9D1 DUP4 PUSH2 0x1B2D JUMP JUMPDEST SWAP1 SWAP2 SSTORE POP POP PUSH1 0x40 DUP1 MLOAD PUSH1 0x20 DUP1 DUP3 ADD DUP4 MSTORE DUP9 DUP3 MSTORE PUSH1 0x1 PUSH1 0x1 PUSH1 0xA0 SHL SUB DUP9 AND PUSH1 0x0 SWAP1 DUP2 MSTORE PUSH1 0x8 SWAP1 SWAP2 MSTORE SWAP2 SWAP1 SWAP2 KECCAK256 PUSH2 0xA07 SWAP2 PUSH1 0x1 PUSH2 0x14BE JUMP JUMPDEST POP POP POP PUSH2 0xA86 JUMP JUMPDEST PUSH1 0x0 JUMPDEST DUP2 SLOAD DUP2 LT ISZERO PUSH2 0xA6F JUMPI PUSH1 0x0 DUP3 DUP3 DUP2 SLOAD DUP2 LT PUSH2 0xA2F JUMPI PUSH2 0xA2F PUSH2 0x19E3 JUMP JUMPDEST SWAP1 PUSH1 0x0 MSTORE PUSH1 0x20 PUSH1 0x0 KECCAK256 ADD SLOAD SWAP1 POP DUP6 DUP2 EQ ISZERO PUSH2 0xA5C JUMPI PUSH1 0x40 MLOAD PUSH3 0x461BCD PUSH1 0xE5 SHL DUP2 MSTORE PUSH1 0x4 ADD PUSH2 0x3C6 SWAP1 PUSH2 0x1AEB JUMP JUMPDEST POP DUP1 PUSH2 0xA67 DUP2 PUSH2 0x1A0F JUMP JUMPDEST SWAP2 POP POP PUSH2 0xA12 JUMP JUMPDEST POP DUP1 SLOAD PUSH1 0x1 DUP2 ADD DUP3 SSTORE PUSH1 0x0 DUP3 DUP2 MSTORE PUSH1 0x20 SWAP1 KECCAK256 ADD DUP5 SWAP1 SSTORE JUMPDEST PUSH1 0x5 DUP3 ADD DUP1 SLOAD SWAP1 PUSH1 0x0 PUSH2 0xA98 DUP4 PUSH2 0x1A0F JUMP JUMPDEST SWAP2 SWAP1 POP SSTORE POP POP POP POP POP JUMP JUMPDEST PUSH1 0x40 MLOAD PUSH3 0x461BCD PUSH1 0xE5 SHL DUP2 MSTORE PUSH1 0x20 PUSH1 0x4 DUP3 ADD MSTORE PUSH1 0x15 PUSH1 0x24 DUP3 ADD MSTORE PUSH21 0x4F7074696F6E206973206E6F742061637469766521 PUSH1 0x58 SHL PUSH1 0x44 DUP3 ADD MSTORE PUSH1 0x64 ADD PUSH2 0x3C6 JUMP JUMPDEST PUSH1 0x3 DUP1 SLOAD PUSH2 0x6C2 SWAP1 PUSH2 0x1A6C JUMP JUMPDEST PUSH1 0x1 PUSH1 0x7 SLOAD PUSH1 0xFF AND PUSH1 0x3 DUP2 GT ISZERO PUSH2 0xB09 JUMPI PUSH2 0xB09 PUSH2 0x18CA JUMP JUMPDEST EQ PUSH2 0xB26 JUMPI PUSH1 0x40 MLOAD PUSH3 0x461BCD PUSH1 0xE5 SHL DUP2 MSTORE PUSH1 0x4 ADD PUSH2 0x3C6 SWAP1 PUSH2 0x1AA7 JUMP JUMPDEST PUSH1 0x1 PUSH1 0x0 JUMPDEST PUSH1 0x1 SLOAD DUP2 LT ISZERO PUSH2 0xB7F JUMPI PUSH1 0x1 DUP2 DUP2 SLOAD DUP2 LT PUSH2 0xB48 JUMPI PUSH2 0xB48 PUSH2 0x19E3 JUMP JUMPDEST PUSH1 0x0 SWAP2 DUP3 MSTORE PUSH1 0x20 SWAP1 SWAP2 KECCAK256 ADD SLOAD PUSH1 0x1 PUSH1 0x1 PUSH1 0xA0 SHL SUB AND CALLER EQ ISZERO PUSH2 0xB6D JUMPI PUSH1 0x1 SWAP2 POP PUSH2 0xB7F JUMP JUMPDEST DUP1 PUSH2 0xB77 DUP2 PUSH2 0x1A0F JUMP JUMPDEST SWAP2 POP POP PUSH2 0xB2B JUMP JUMPDEST POP PUSH1 0x1 DUP2 ISZERO ISZERO EQ PUSH2 0xBA2 JUMPI PUSH1 0x40 MLOAD PUSH3 0x461BCD PUSH1 0xE5 SHL DUP2 MSTORE PUSH1 0x4 ADD PUSH2 0x3C6 SWAP1 PUSH2 0x1A2A JUMP JUMPDEST PUSH1 0x5 SLOAD CALLER SWAP1 PUSH1 0x0 SWAP1 PUSH2 0xBB6 SWAP1 PUSH2 0x3E8 PUSH2 0x1B44 JUMP JUMPDEST PUSH1 0x40 DUP1 MLOAD PUSH1 0xE0 DUP2 ADD DUP3 MSTORE DUP3 DUP2 MSTORE PUSH1 0x1 PUSH1 0x1 PUSH1 0xA0 SHL SUB DUP1 DUP12 AND PUSH1 0x20 DUP1 DUP5 ADD SWAP2 DUP3 MSTORE DUP8 DUP4 AND SWAP5 DUP5 ADD SWAP5 DUP6 MSTORE DUP12 ISZERO ISZERO PUSH1 0x60 DUP6 ADD SWAP1 DUP2 MSTORE PUSH1 0x80 DUP6 ADD DUP13 DUP2 MSTORE PUSH1 0xA0 DUP7 ADD DUP13 SWAP1 MSTORE PUSH1 0x0 PUSH1 0xC0 DUP8 ADD DUP2 SWAP1 MSTORE PUSH1 0x5 DUP1 SLOAD PUSH1 0x1 DUP2 ADD DUP3 SSTORE SWAP2 MSTORE DUP7 MLOAD PUSH1 0x6 SWAP1 SWAP2 MUL PUSH32 0x36B6384B5ECA791C62761152D0C79BB0604C104A5FB6F4EB0703F3154BB3DB0 DUP2 ADD SWAP2 DUP3 SSTORE SWAP5 MLOAD PUSH32 0x36B6384B5ECA791C62761152D0C79BB0604C104A5FB6F4EB0703F3154BB3DB1 DUP7 ADD DUP1 SLOAD SWAP2 DUP9 AND PUSH1 0x1 PUSH1 0x1 PUSH1 0xA0 SHL SUB NOT SWAP1 SWAP3 AND SWAP2 SWAP1 SWAP2 OR SWAP1 SSTORE SWAP7 MLOAD PUSH32 0x36B6384B5ECA791C62761152D0C79BB0604C104A5FB6F4EB0703F3154BB3DB2 DUP6 ADD DUP1 SLOAD SWAP4 MLOAD ISZERO ISZERO PUSH1 0x1 PUSH1 0xA0 SHL MUL PUSH1 0x1 PUSH1 0x1 PUSH1 0xA8 SHL SUB NOT SWAP1 SWAP5 AND SWAP2 SWAP1 SWAP7 AND OR SWAP2 SWAP1 SWAP2 OR SWAP1 SWAP4 SSTORE SWAP2 MLOAD DUP1 MLOAD SWAP6 SWAP7 POP SWAP3 SWAP5 DUP6 SWAP5 SWAP4 PUSH2 0xCFA SWAP4 PUSH32 0x36B6384B5ECA791C62761152D0C79BB0604C104A5FB6F4EB0703F3154BB3DB3 SWAP1 SWAP4 ADD SWAP3 ADD SWAP1 PUSH2 0x1509 JUMP JUMPDEST POP PUSH1 0xA0 DUP3 ADD MLOAD DUP1 MLOAD PUSH2 0xD16 SWAP2 PUSH1 0x4 DUP5 ADD SWAP2 PUSH1 0x20 SWAP1 SWAP2 ADD SWAP1 PUSH2 0x1509 JUMP JUMPDEST POP PUSH1 0xC0 DUP3 ADD MLOAD DUP2 PUSH1 0x5 ADD SSTORE POP POP POP POP POP POP POP POP POP POP JUMP JUMPDEST PUSH1 0x1 PUSH1 0x7 SLOAD PUSH1 0xFF AND PUSH1 0x3 DUP2 GT ISZERO PUSH2 0xD46 JUMPI PUSH2 0xD46 PUSH2 0x18CA JUMP JUMPDEST EQ PUSH2 0xD63 JUMPI PUSH1 0x40 MLOAD PUSH3 0x461BCD PUSH1 0xE5 SHL DUP2 MSTORE PUSH1 0x4 ADD PUSH2 0x3C6 SWAP1 PUSH2 0x1AA7 JUMP JUMPDEST CALLER PUSH1 0x0 SWAP1 DUP2 MSTORE PUSH1 0x8 PUSH1 0x20 SWAP1 DUP2 MSTORE PUSH1 0x40 DUP1 DUP4 KECCAK256 DUP1 SLOAD DUP3 MLOAD DUP2 DUP6 MUL DUP2 ADD DUP6 ADD SWAP1 SWAP4 MSTORE DUP1 DUP4 MSTORE DUP5 SWAP4 DUP4 ADD DUP3 DUP3 DUP1 ISZERO PUSH2 0xDB7 JUMPI PUSH1 0x20 MUL DUP3 ADD SWAP2 SWAP1 PUSH1 0x0 MSTORE PUSH1 0x20 PUSH1 0x0 KECCAK256 SWAP1 JUMPDEST DUP2 SLOAD DUP2 MSTORE PUSH1 0x20 ADD SWAP1 PUSH1 0x1 ADD SWAP1 DUP1 DUP4 GT PUSH2 0xDA3 JUMPI JUMPDEST POP POP DUP4 MLOAD SWAP4 SWAP5 POP POP POP DUP2 ISZERO ISZERO SWAP1 POP PUSH2 0xE09 JUMPI PUSH1 0x40 MLOAD PUSH3 0x461BCD PUSH1 0xE5 SHL DUP2 MSTORE PUSH1 0x20 PUSH1 0x4 DUP3 ADD MSTORE PUSH1 0x15 PUSH1 0x24 DUP3 ADD MSTORE PUSH21 0x155CD95C88191A59081B9BDD081D9BDD19481E595D PUSH1 0x5A SHL PUSH1 0x44 DUP3 ADD MSTORE PUSH1 0x64 ADD PUSH2 0x3C6 JUMP JUMPDEST PUSH1 0x7 SLOAD PUSH2 0x100 SWAP1 DIV PUSH1 0xFF AND ISZERO PUSH2 0xE45 JUMPI PUSH1 0x40 DUP1 MLOAD PUSH1 0x0 DUP1 DUP3 MSTORE PUSH1 0x20 DUP3 ADD SWAP1 SWAP3 MSTORE PUSH1 0x6 DUP1 SLOAD SWAP2 SWAP5 POP SWAP1 SWAP2 PUSH2 0xE3B DUP4 PUSH2 0x1B2D JUMP JUMPDEST SWAP2 SWAP1 POP SSTORE POP PUSH2 0xF4C JUMP JUMPDEST PUSH1 0x0 DUP1 JUMPDEST DUP3 DUP2 LT ISZERO PUSH2 0xEFB JUMPI PUSH1 0x0 DUP5 DUP3 DUP2 MLOAD DUP2 LT PUSH2 0xE65 JUMPI PUSH2 0xE65 PUSH2 0x19E3 JUMP JUMPDEST PUSH1 0x20 MUL PUSH1 0x20 ADD ADD MLOAD SWAP1 POP DUP5 DUP3 DUP2 MLOAD DUP2 LT PUSH2 0xE81 JUMPI PUSH2 0xE81 PUSH2 0x19E3 JUMP JUMPDEST PUSH1 0x20 MUL PUSH1 0x20 ADD ADD MLOAD DUP2 EQ ISZERO PUSH2 0xEE8 JUMPI PUSH1 0x1 SWAP3 POP PUSH2 0xE9E DUP4 DUP6 PUSH2 0x1B5C JUMP JUMPDEST DUP3 LT ISZERO PUSH2 0xEE8 JUMPI DUP5 PUSH2 0xEB1 DUP4 PUSH1 0x1 PUSH2 0x1B44 JUMP JUMPDEST DUP2 MLOAD DUP2 LT PUSH2 0xEC1 JUMPI PUSH2 0xEC1 PUSH2 0x19E3 JUMP JUMPDEST PUSH1 0x20 MUL PUSH1 0x20 ADD ADD MLOAD DUP6 DUP4 DUP2 MLOAD DUP2 LT PUSH2 0xEDB JUMPI PUSH2 0xEDB PUSH2 0x19E3 JUMP JUMPDEST PUSH1 0x20 MUL PUSH1 0x20 ADD ADD DUP2 DUP2 MSTORE POP POP JUMPDEST POP DUP1 PUSH2 0xEF3 DUP2 PUSH2 0x1A0F JUMP JUMPDEST SWAP2 POP POP PUSH2 0xE49 JUMP JUMPDEST DUP2 ISZERO PUSH2 0xF2D JUMPI DUP4 PUSH1 0x1 DUP6 MLOAD PUSH2 0xF10 SWAP2 SWAP1 PUSH2 0x1B5C JUMP JUMPDEST DUP2 MLOAD DUP2 LT PUSH2 0xF20 JUMPI PUSH2 0xF20 PUSH2 0x19E3 JUMP JUMPDEST PUSH1 0x20 MUL PUSH1 0x20 ADD ADD PUSH1 0x0 DUP2 MSTORE POP JUMPDEST DUP4 MLOAD PUSH2 0xF49 JUMPI PUSH1 0x6 DUP1 SLOAD SWAP1 PUSH1 0x0 PUSH2 0xF43 DUP4 PUSH2 0x1B2D JUMP JUMPDEST SWAP2 SWAP1 POP SSTORE POP JUMPDEST POP POP JUMPDEST PUSH1 0x0 PUSH2 0xF57 DUP6 PUSH2 0x1449 JUMP JUMPDEST PUSH1 0x5 DUP2 ADD DUP1 SLOAD SWAP2 SWAP3 POP PUSH1 0x0 PUSH2 0xF6B DUP4 PUSH2 0x1B2D JUMP JUMPDEST SWAP1 SWAP2 SSTORE POP POP CALLER PUSH1 0x0 SWAP1 DUP2 MSTORE PUSH1 0x8 PUSH1 0x20 SWAP1 DUP2 MSTORE PUSH1 0x40 SWAP1 SWAP2 KECCAK256 DUP5 MLOAD PUSH2 0xF90 SWAP3 DUP7 ADD SWAP1 PUSH2 0x14BE JUMP JUMPDEST POP PUSH1 0x1 SWAP4 POP POP DUP3 PUSH2 0xFDB JUMPI PUSH1 0x40 MLOAD PUSH3 0x461BCD PUSH1 0xE5 SHL DUP2 MSTORE PUSH1 0x20 PUSH1 0x4 DUP3 ADD MSTORE PUSH1 0x15 PUSH1 0x24 DUP3 ADD MSTORE PUSH21 0x556E61626C6520746F2072656D6F766520766F7465 PUSH1 0x58 SHL PUSH1 0x44 DUP3 ADD MSTORE PUSH1 0x64 ADD PUSH2 0x3C6 JUMP JUMPDEST POP POP POP POP JUMP JUMPDEST PUSH1 0x60 PUSH1 0x5 DUP1 SLOAD DUP1 PUSH1 0x20 MUL PUSH1 0x20 ADD PUSH1 0x40 MLOAD SWAP1 DUP2 ADD PUSH1 0x40 MSTORE DUP1 SWAP3 SWAP2 SWAP1 DUP2 DUP2 MSTORE PUSH1 0x20 ADD PUSH1 0x0 SWAP1 JUMPDEST DUP3 DUP3 LT ISZERO PUSH2 0x11AA JUMPI PUSH1 0x0 DUP5 DUP2 MSTORE PUSH1 0x20 SWAP1 DUP2 SWAP1 KECCAK256 PUSH1 0x40 DUP1 MLOAD PUSH1 0xE0 DUP2 ADD DUP3 MSTORE PUSH1 0x6 DUP7 MUL SWAP1 SWAP3 ADD DUP1 SLOAD DUP4 MSTORE PUSH1 0x1 DUP2 ADD SLOAD PUSH1 0x1 PUSH1 0x1 PUSH1 0xA0 SHL SUB SWAP1 DUP2 AND SWAP5 DUP5 ADD SWAP5 SWAP1 SWAP5 MSTORE PUSH1 0x2 DUP2 ADD SLOAD SWAP4 DUP5 AND SWAP2 DUP4 ADD SWAP2 SWAP1 SWAP2 MSTORE PUSH1 0x1 PUSH1 0xA0 SHL SWAP1 SWAP3 DIV PUSH1 0xFF AND ISZERO ISZERO PUSH1 0x60 DUP3 ADD MSTORE PUSH1 0x3 DUP3 ADD DUP1 SLOAD SWAP2 SWAP3 SWAP2 PUSH1 0x80 DUP5 ADD SWAP2 SWAP1 PUSH2 0x107D SWAP1 PUSH2 0x1A6C JUMP JUMPDEST DUP1 PUSH1 0x1F ADD PUSH1 0x20 DUP1 SWAP2 DIV MUL PUSH1 0x20 ADD PUSH1 0x40 MLOAD SWAP1 DUP2 ADD PUSH1 0x40 MSTORE DUP1 SWAP3 SWAP2 SWAP1 DUP2 DUP2 MSTORE PUSH1 0x20 ADD DUP3 DUP1 SLOAD PUSH2 0x10A9 SWAP1 PUSH2 0x1A6C JUMP JUMPDEST DUP1 ISZERO PUSH2 0x10F6 JUMPI DUP1 PUSH1 0x1F LT PUSH2 0x10CB JUMPI PUSH2 0x100 DUP1 DUP4 SLOAD DIV MUL DUP4 MSTORE SWAP2 PUSH1 0x20 ADD SWAP2 PUSH2 0x10F6 JUMP JUMPDEST DUP3 ADD SWAP2 SWAP1 PUSH1 0x0 MSTORE PUSH1 0x20 PUSH1 0x0 KECCAK256 SWAP1 JUMPDEST DUP2 SLOAD DUP2 MSTORE SWAP1 PUSH1 0x1 ADD SWAP1 PUSH1 0x20 ADD DUP1 DUP4 GT PUSH2 0x10D9 JUMPI DUP3 SWAP1 SUB PUSH1 0x1F AND DUP3 ADD SWAP2 JUMPDEST POP POP POP POP POP DUP2 MSTORE PUSH1 0x20 ADD PUSH1 0x4 DUP3 ADD DUP1 SLOAD PUSH2 0x110F SWAP1 PUSH2 0x1A6C JUMP JUMPDEST DUP1 PUSH1 0x1F ADD PUSH1 0x20 DUP1 SWAP2 DIV MUL PUSH1 0x20 ADD PUSH1 0x40 MLOAD SWAP1 DUP2 ADD PUSH1 0x40 MSTORE DUP1 SWAP3 SWAP2 SWAP1 DUP2 DUP2 MSTORE PUSH1 0x20 ADD DUP3 DUP1 SLOAD PUSH2 0x113B SWAP1 PUSH2 0x1A6C JUMP JUMPDEST DUP1 ISZERO PUSH2 0x1188 JUMPI DUP1 PUSH1 0x1F LT PUSH2 0x115D JUMPI PUSH2 0x100 DUP1 DUP4 SLOAD DIV MUL DUP4 MSTORE SWAP2 PUSH1 0x20 ADD SWAP2 PUSH2 0x1188 JUMP JUMPDEST DUP3 ADD SWAP2 SWAP1 PUSH1 0x0 MSTORE PUSH1 0x20 PUSH1 0x0 KECCAK256 SWAP1 JUMPDEST DUP2 SLOAD DUP2 MSTORE SWAP1 PUSH1 0x1 ADD SWAP1 PUSH1 0x20 ADD DUP1 DUP4 GT PUSH2 0x116B JUMPI DUP3 SWAP1 SUB PUSH1 0x1F AND DUP3 ADD SWAP2 JUMPDEST POP POP POP POP POP DUP2 MSTORE PUSH1 0x20 ADD PUSH1 0x5 DUP3 ADD SLOAD DUP2 MSTORE POP POP DUP2 MSTORE PUSH1 0x20 ADD SWAP1 PUSH1 0x1 ADD SWAP1 PUSH2 0x1005 JUMP JUMPDEST POP POP POP POP SWAP1 POP SWAP1 JUMP JUMPDEST PUSH1 0x1 PUSH1 0x7 SLOAD PUSH1 0xFF AND PUSH1 0x3 DUP2 GT ISZERO PUSH2 0x11CC JUMPI PUSH2 0x11CC PUSH2 0x18CA JUMP JUMPDEST EQ PUSH2 0x11E9 JUMPI PUSH1 0x40 MLOAD PUSH3 0x461BCD PUSH1 0xE5 SHL DUP2 MSTORE PUSH1 0x4 ADD PUSH2 0x3C6 SWAP1 PUSH2 0x1AA7 JUMP JUMPDEST PUSH1 0x7 SLOAD PUSH2 0x100 SWAP1 DIV PUSH1 0xFF AND PUSH2 0x1254 JUMPI PUSH1 0x40 MLOAD PUSH3 0x461BCD PUSH1 0xE5 SHL DUP2 MSTORE PUSH1 0x20 PUSH1 0x4 DUP3 ADD MSTORE PUSH1 0x2B PUSH1 0x24 DUP3 ADD MSTORE PUSH32 0x506C656173652070726F7669646520776869636820766F74652073686F756C64 PUSH1 0x44 DUP3 ADD MSTORE PUSH11 0x81899481C995B5BDD9959 PUSH1 0xAA SHL PUSH1 0x64 DUP3 ADD MSTORE PUSH1 0x84 ADD PUSH2 0x3C6 JUMP JUMPDEST PUSH1 0xA PUSH1 0x6 SSTORE CALLER PUSH1 0x0 SWAP1 DUP2 MSTORE PUSH1 0x8 PUSH1 0x20 SWAP1 DUP2 MSTORE PUSH1 0x40 DUP1 DUP4 KECCAK256 DUP1 SLOAD DUP3 MLOAD DUP2 DUP6 MUL DUP2 ADD DUP6 ADD SWAP1 SWAP4 MSTORE DUP1 DUP4 MSTORE SWAP2 SWAP3 SWAP1 SWAP2 SWAP1 DUP4 ADD DUP3 DUP3 DUP1 ISZERO PUSH2 0x12B0 JUMPI PUSH1 0x20 MUL DUP3 ADD SWAP2 SWAP1 PUSH1 0x0 MSTORE PUSH1 0x20 PUSH1 0x0 KECCAK256 SWAP1 JUMPDEST DUP2 SLOAD DUP2 MSTORE PUSH1 0x20 ADD SWAP1 PUSH1 0x1 ADD SWAP1 DUP1 DUP4 GT PUSH2 0x129C JUMPI JUMPDEST POP POP POP POP POP SWAP1 POP PUSH2 0x401 DUP2 PUSH1 0x0 DUP2 MLOAD DUP2 LT PUSH2 0x12CD JUMPI PUSH2 0x12CD PUSH2 0x19E3 JUMP JUMPDEST PUSH1 0x20 MUL PUSH1 0x20 ADD ADD MLOAD PUSH2 0xD2D JUMP JUMPDEST PUSH1 0x0 JUMPDEST PUSH1 0x5 SLOAD DUP2 LT ISZERO PUSH2 0x7CF JUMPI DUP2 PUSH1 0x5 DUP3 DUP2 SLOAD DUP2 LT PUSH2 0x12FB JUMPI PUSH2 0x12FB PUSH2 0x19E3 JUMP JUMPDEST SWAP1 PUSH1 0x0 MSTORE PUSH1 0x20 PUSH1 0x0 KECCAK256 SWAP1 PUSH1 0x6 MUL ADD PUSH1 0x0 ADD SLOAD EQ ISZERO PUSH2 0x1328 JUMPI PUSH1 0x1 PUSH1 0x5 DUP3 DUP2 SLOAD DUP2 LT PUSH2 0x791 JUMPI PUSH2 0x791 PUSH2 0x19E3 JUMP JUMPDEST DUP1 PUSH2 0x1332 DUP2 PUSH2 0x1A0F JUMP JUMPDEST SWAP2 POP POP PUSH2 0x12DD JUMP JUMPDEST PUSH1 0x60 PUSH1 0x2 DUP1 SLOAD PUSH2 0x413 SWAP1 PUSH2 0x1A6C JUMP JUMPDEST DUP2 PUSH1 0x3 DUP2 GT ISZERO PUSH2 0x135B JUMPI PUSH2 0x135B PUSH2 0x18CA JUMP JUMPDEST PUSH1 0x7 SLOAD PUSH1 0xFF AND PUSH1 0x3 DUP2 GT ISZERO PUSH2 0x1372 JUMPI PUSH2 0x1372 PUSH2 0x18CA JUMP JUMPDEST EQ PUSH2 0x13E2 JUMPI PUSH1 0x7 SLOAD PUSH1 0x40 MLOAD CALLER SWAP2 PUSH32 0xFC6F5E211098B443015CCB625104A41F61E97A80DD9B8734242A9A8C3EECC8DC SWAP2 PUSH2 0x13B2 SWAP2 PUSH1 0xFF AND SWAP1 DUP7 SWAP1 DUP7 SWAP1 PUSH2 0x1B73 JUMP JUMPDEST PUSH1 0x40 MLOAD DUP1 SWAP2 SUB SWAP1 LOG2 PUSH1 0x7 DUP1 SLOAD DUP4 SWAP2 SWAP1 PUSH1 0xFF NOT AND PUSH1 0x1 DUP4 PUSH1 0x3 DUP2 GT ISZERO PUSH2 0x13D9 JUMPI PUSH2 0x13D9 PUSH2 0x18CA JUMP JUMPDEST MUL OR SWAP1 SSTORE POP POP POP JUMP JUMPDEST PUSH1 0x40 MLOAD PUSH3 0x461BCD PUSH1 0xE5 SHL DUP2 MSTORE PUSH1 0x20 PUSH1 0x4 DUP3 ADD MSTORE PUSH1 0x36 PUSH1 0x24 DUP3 ADD MSTORE PUSH32 0x5374617465206E6F74206368616E6765642E204E657720737461746520697320 PUSH1 0x44 DUP3 ADD MSTORE PUSH22 0x7468652073616D65206173206F6C6420737461746521 PUSH1 0x50 SHL PUSH1 0x64 DUP3 ADD MSTORE PUSH1 0x84 ADD PUSH2 0x3C6 JUMP JUMPDEST PUSH1 0x0 DUP1 JUMPDEST PUSH1 0x5 SLOAD DUP2 LT ISZERO PUSH2 0x7CF JUMPI DUP3 PUSH1 0x5 DUP3 DUP2 SLOAD DUP2 LT PUSH2 0x146B JUMPI PUSH2 0x146B PUSH2 0x19E3 JUMP JUMPDEST SWAP1 PUSH1 0x0 MSTORE PUSH1 0x20 PUSH1 0x0 KECCAK256 SWAP1 PUSH1 0x6 MUL ADD PUSH1 0x0 ADD SLOAD EQ ISZERO PUSH2 0x14AC JUMPI PUSH1 0x5 DUP2 DUP2 SLOAD DUP2 LT PUSH2 0x1496 JUMPI PUSH2 0x1496 PUSH2 0x19E3 JUMP JUMPDEST SWAP1 PUSH1 0x0 MSTORE PUSH1 0x20 PUSH1 0x0 KECCAK256 SWAP1 PUSH1 0x6 MUL ADD SWAP2 POP POP SWAP2 SWAP1 POP JUMP JUMPDEST DUP1 PUSH2 0x14B6 DUP2 PUSH2 0x1A0F JUMP JUMPDEST SWAP2 POP POP PUSH2 0x144D JUMP JUMPDEST DUP3 DUP1 SLOAD DUP3 DUP3 SSTORE SWAP1 PUSH1 0x0 MSTORE PUSH1 0x20 PUSH1 0x0 KECCAK256 SWAP1 DUP2 ADD SWAP3 DUP3 ISZERO PUSH2 0x14F9 JUMPI SWAP2 PUSH1 0x20 MUL DUP3 ADD JUMPDEST DUP3 DUP2 GT ISZERO PUSH2 0x14F9 JUMPI DUP3 MLOAD DUP3 SSTORE SWAP2 PUSH1 0x20 ADD SWAP2 SWAP1 PUSH1 0x1 ADD SWAP1 PUSH2 0x14DE JUMP JUMPDEST POP PUSH2 0x1505 SWAP3 SWAP2 POP PUSH2 0x157C JUMP JUMPDEST POP SWAP1 JUMP JUMPDEST DUP3 DUP1 SLOAD PUSH2 0x1515 SWAP1 PUSH2 0x1A6C JUMP JUMPDEST SWAP1 PUSH1 0x0 MSTORE PUSH1 0x20 PUSH1 0x0 KECCAK256 SWAP1 PUSH1 0x1F ADD PUSH1 0x20 SWAP1 DIV DUP2 ADD SWAP3 DUP3 PUSH2 0x1537 JUMPI PUSH1 0x0 DUP6 SSTORE PUSH2 0x14F9 JUMP JUMPDEST DUP3 PUSH1 0x1F LT PUSH2 0x1550 JUMPI DUP1 MLOAD PUSH1 0xFF NOT AND DUP4 DUP1 ADD OR DUP6 SSTORE PUSH2 0x14F9 JUMP JUMPDEST DUP3 DUP1 ADD PUSH1 0x1 ADD DUP6 SSTORE DUP3 ISZERO PUSH2 0x14F9 JUMPI SWAP2 DUP3 ADD DUP3 DUP2 GT ISZERO PUSH2 0x14F9 JUMPI DUP3 MLOAD DUP3 SSTORE SWAP2 PUSH1 0x20 ADD SWAP2 SWAP1 PUSH1 0x1 ADD SWAP1 PUSH2 0x14DE JUMP JUMPDEST JUMPDEST DUP1 DUP3 GT ISZERO PUSH2 0x1505 JUMPI PUSH1 0x0 DUP2 SSTORE PUSH1 0x1 ADD PUSH2 0x157D JUMP JUMPDEST PUSH1 0x0 PUSH1 0x20 DUP3 DUP5 SUB SLT ISZERO PUSH2 0x15A3 JUMPI PUSH1 0x0 DUP1 REVERT JUMPDEST POP CALLDATALOAD SWAP2 SWAP1 POP JUMP JUMPDEST PUSH1 0x0 DUP2 MLOAD DUP1 DUP5 MSTORE PUSH1 0x0 JUMPDEST DUP2 DUP2 LT ISZERO PUSH2 0x15D0 JUMPI PUSH1 0x20 DUP2 DUP6 ADD DUP2 ADD MLOAD DUP7 DUP4 ADD DUP3 ADD MSTORE ADD PUSH2 0x15B4 JUMP JUMPDEST DUP2 DUP2 GT ISZERO PUSH2 0x15E2 JUMPI PUSH1 0x0 PUSH1 0x20 DUP4 DUP8 ADD ADD MSTORE JUMPDEST POP PUSH1 0x1F ADD PUSH1 0x1F NOT AND SWAP3 SWAP1 SWAP3 ADD PUSH1 0x20 ADD SWAP3 SWAP2 POP POP JUMP JUMPDEST PUSH1 0x20 DUP2 MSTORE PUSH1 0x0 PUSH2 0x160A PUSH1 0x20 DUP4 ADD DUP5 PUSH2 0x15AA JUMP JUMPDEST SWAP4 SWAP3 POP POP POP JUMP JUMPDEST DUP8 DUP2 MSTORE PUSH1 0x1 PUSH1 0x1 PUSH1 0xA0 SHL SUB DUP8 DUP2 AND PUSH1 0x20 DUP4 ADD MSTORE DUP7 AND PUSH1 0x40 DUP3 ADD MSTORE DUP5 ISZERO ISZERO PUSH1 0x60 DUP3 ADD MSTORE PUSH1 0xE0 PUSH1 0x80 DUP3 ADD DUP2 SWAP1 MSTORE PUSH1 0x0 SWAP1 PUSH2 0x164B SWAP1 DUP4 ADD DUP7 PUSH2 0x15AA JUMP JUMPDEST DUP3 DUP2 SUB PUSH1 0xA0 DUP5 ADD MSTORE PUSH2 0x165D DUP2 DUP7 PUSH2 0x15AA JUMP JUMPDEST SWAP2 POP POP DUP3 PUSH1 0xC0 DUP4 ADD MSTORE SWAP9 SWAP8 POP POP POP POP POP POP POP POP JUMP JUMPDEST PUSH4 0x4E487B71 PUSH1 0xE0 SHL PUSH1 0x0 MSTORE PUSH1 0x41 PUSH1 0x4 MSTORE PUSH1 0x24 PUSH1 0x0 REVERT JUMPDEST PUSH1 0x40 MLOAD PUSH1 0xE0 DUP2 ADD PUSH8 0xFFFFFFFFFFFFFFFF DUP2 GT DUP3 DUP3 LT OR ISZERO PUSH2 0x16AB JUMPI PUSH2 0x16AB PUSH2 0x1672 JUMP JUMPDEST PUSH1 0x40 MSTORE SWAP1 JUMP JUMPDEST DUP1 CALLDATALOAD PUSH1 0x1 PUSH1 0x1 PUSH1 0xA0 SHL SUB DUP2 AND DUP2 EQ PUSH2 0x16C8 JUMPI PUSH1 0x0 DUP1 REVERT JUMPDEST SWAP2 SWAP1 POP JUMP JUMPDEST DUP1 CALLDATALOAD DUP1 ISZERO ISZERO DUP2 EQ PUSH2 0x16C8 JUMPI PUSH1 0x0 DUP1 REVERT JUMPDEST PUSH1 0x0 DUP3 PUSH1 0x1F DUP4 ADD SLT PUSH2 0x16EE JUMPI PUSH1 0x0 DUP1 REVERT JUMPDEST DUP2 CALLDATALOAD PUSH8 0xFFFFFFFFFFFFFFFF DUP1 DUP3 GT ISZERO PUSH2 0x1709 JUMPI PUSH2 0x1709 PUSH2 0x1672 JUMP JUMPDEST PUSH1 0x40 MLOAD PUSH1 0x1F DUP4 ADD PUSH1 0x1F NOT SWAP1 DUP2 AND PUSH1 0x3F ADD AND DUP2 ADD SWAP1 DUP3 DUP3 GT DUP2 DUP4 LT OR ISZERO PUSH2 0x1731 JUMPI PUSH2 0x1731 PUSH2 0x1672 JUMP JUMPDEST DUP2 PUSH1 0x40 MSTORE DUP4 DUP2 MSTORE DUP7 PUSH1 0x20 DUP6 DUP9 ADD ADD GT ISZERO PUSH2 0x174A JUMPI PUSH1 0x0 DUP1 REVERT JUMPDEST DUP4 PUSH1 0x20 DUP8 ADD PUSH1 0x20 DUP4 ADD CALLDATACOPY PUSH1 0x0 PUSH1 0x20 DUP6 DUP4 ADD ADD MSTORE DUP1 SWAP5 POP POP POP POP POP SWAP3 SWAP2 POP POP JUMP JUMPDEST PUSH1 0x0 PUSH1 0x20 DUP3 DUP5 SUB SLT ISZERO PUSH2 0x177C JUMPI PUSH1 0x0 DUP1 REVERT JUMPDEST DUP2 CALLDATALOAD PUSH8 0xFFFFFFFFFFFFFFFF DUP1 DUP3 GT ISZERO PUSH2 0x1794 JUMPI PUSH1 0x0 DUP1 REVERT JUMPDEST SWAP1 DUP4 ADD SWAP1 PUSH1 0xE0 DUP3 DUP7 SUB SLT ISZERO PUSH2 0x17A8 JUMPI PUSH1 0x0 DUP1 REVERT JUMPDEST PUSH2 0x17B0 PUSH2 0x1688 JUMP JUMPDEST DUP3 CALLDATALOAD DUP2 MSTORE PUSH2 0x17C0 PUSH1 0x20 DUP5 ADD PUSH2 0x16B1 JUMP JUMPDEST PUSH1 0x20 DUP3 ADD MSTORE PUSH2 0x17D1 PUSH1 0x40 DUP5 ADD PUSH2 0x16B1 JUMP JUMPDEST PUSH1 0x40 DUP3 ADD MSTORE PUSH2 0x17E2 PUSH1 0x60 DUP5 ADD PUSH2 0x16CD JUMP JUMPDEST PUSH1 0x60 DUP3 ADD MSTORE PUSH1 0x80 DUP4 ADD CALLDATALOAD DUP3 DUP2 GT ISZERO PUSH2 0x17F9 JUMPI PUSH1 0x0 DUP1 REVERT JUMPDEST PUSH2 0x1805 DUP8 DUP3 DUP7 ADD PUSH2 0x16DD JUMP JUMPDEST PUSH1 0x80 DUP4 ADD MSTORE POP PUSH1 0xA0 DUP4 ADD CALLDATALOAD DUP3 DUP2 GT ISZERO PUSH2 0x181D JUMPI PUSH1 0x0 DUP1 REVERT JUMPDEST PUSH2 0x1829 DUP8 DUP3 DUP7 ADD PUSH2 0x16DD JUMP JUMPDEST PUSH1 0xA0 DUP4 ADD MSTORE POP PUSH1 0xC0 DUP4 ADD CALLDATALOAD PUSH1 0xC0 DUP3 ADD MSTORE DUP1 SWAP4 POP POP POP POP SWAP3 SWAP2 POP POP JUMP JUMPDEST PUSH1 0x0 DUP1 PUSH1 0x0 DUP1 PUSH1 0x80 DUP6 DUP8 SUB SLT ISZERO PUSH2 0x185B JUMPI PUSH1 0x0 DUP1 REVERT JUMPDEST PUSH2 0x1864 DUP6 PUSH2 0x16B1 JUMP JUMPDEST SWAP4 POP PUSH2 0x1872 PUSH1 0x20 DUP7 ADD PUSH2 0x16CD JUMP JUMPDEST SWAP3 POP PUSH1 0x40 DUP6 ADD CALLDATALOAD PUSH8 0xFFFFFFFFFFFFFFFF DUP1 DUP3 GT ISZERO PUSH2 0x188F JUMPI PUSH1 0x0 DUP1 REVERT JUMPDEST PUSH2 0x189B DUP9 DUP4 DUP10 ADD PUSH2 0x16DD JUMP JUMPDEST SWAP4 POP PUSH1 0x60 DUP8 ADD CALLDATALOAD SWAP2 POP DUP1 DUP3 GT ISZERO PUSH2 0x18B1 JUMPI PUSH1 0x0 DUP1 REVERT JUMPDEST POP PUSH2 0x18BE DUP8 DUP3 DUP9 ADD PUSH2 0x16DD JUMP JUMPDEST SWAP2 POP POP SWAP3 SWAP6 SWAP2 SWAP5 POP SWAP3 POP JUMP JUMPDEST PUSH4 0x4E487B71 PUSH1 0xE0 SHL PUSH1 0x0 MSTORE PUSH1 0x21 PUSH1 0x4 MSTORE PUSH1 0x24 PUSH1 0x0 REVERT JUMPDEST PUSH1 0x4 DUP2 LT PUSH2 0x18FE JUMPI PUSH4 0x4E487B71 PUSH1 0xE0 SHL PUSH1 0x0 MSTORE PUSH1 0x21 PUSH1 0x4 MSTORE PUSH1 0x24 PUSH1 0x0 REVERT JUMPDEST SWAP1 MSTORE JUMP JUMPDEST PUSH1 0x20 DUP2 ADD PUSH2 0x1910 DUP3 DUP5 PUSH2 0x18E0 JUMP JUMPDEST SWAP3 SWAP2 POP POP JUMP JUMPDEST PUSH1 0x0 PUSH1 0x20 DUP1 DUP4 ADD DUP2 DUP5 MSTORE DUP1 DUP6 MLOAD DUP1 DUP4 MSTORE PUSH1 0x40 SWAP3 POP DUP3 DUP7 ADD SWAP2 POP DUP3 DUP2 PUSH1 0x5 SHL DUP8 ADD ADD DUP5 DUP9 ADD PUSH1 0x0 JUMPDEST DUP4 DUP2 LT ISZERO PUSH2 0x19D5 JUMPI DUP9 DUP4 SUB PUSH1 0x3F NOT ADD DUP6 MSTORE DUP2 MLOAD DUP1 MLOAD DUP5 MSTORE DUP8 DUP2 ADD MLOAD PUSH1 0x1 PUSH1 0x1 PUSH1 0xA0 SHL SUB SWAP1 DUP2 AND DUP10 DUP7 ADD MSTORE DUP8 DUP3 ADD MLOAD AND DUP8 DUP6 ADD MSTORE PUSH1 0x60 DUP1 DUP3 ADD MLOAD ISZERO ISZERO SWAP1 DUP6 ADD MSTORE PUSH1 0x80 DUP1 DUP3 ADD MLOAD PUSH1 0xE0 DUP3 DUP8 ADD DUP2 SWAP1 MSTORE SWAP2 SWAP1 PUSH2 0x1998 DUP4 DUP9 ADD DUP3 PUSH2 0x15AA JUMP JUMPDEST SWAP3 POP POP POP PUSH1 0xA0 DUP1 DUP4 ADD MLOAD DUP7 DUP4 SUB DUP3 DUP9 ADD MSTORE PUSH2 0x19B3 DUP4 DUP3 PUSH2 0x15AA JUMP JUMPDEST PUSH1 0xC0 SWAP5 DUP6 ADD MLOAD SWAP8 SWAP1 SWAP5 ADD SWAP7 SWAP1 SWAP7 MSTORE POP POP SWAP5 DUP8 ADD SWAP5 SWAP3 POP SWAP1 DUP7 ADD SWAP1 PUSH1 0x1 ADD PUSH2 0x193D JUMP JUMPDEST POP SWAP1 SWAP9 SWAP8 POP POP POP POP POP POP POP POP JUMP JUMPDEST PUSH4 0x4E487B71 PUSH1 0xE0 SHL PUSH1 0x0 MSTORE PUSH1 0x32 PUSH1 0x4 MSTORE PUSH1 0x24 PUSH1 0x0 REVERT JUMPDEST PUSH4 0x4E487B71 PUSH1 0xE0 SHL PUSH1 0x0 MSTORE PUSH1 0x11 PUSH1 0x4 MSTORE PUSH1 0x24 PUSH1 0x0 REVERT JUMPDEST PUSH1 0x0 PUSH1 0x0 NOT DUP3 EQ ISZERO PUSH2 0x1A23 JUMPI PUSH2 0x1A23 PUSH2 0x19F9 JUMP JUMPDEST POP PUSH1 0x1 ADD SWAP1 JUMP JUMPDEST PUSH1 0x20 DUP1 DUP3 MSTORE PUSH1 0x22 SWAP1 DUP3 ADD MSTORE PUSH32 0x4F6E6C79206F776E6572732063616E2063616C6C20746869732066756E637469 PUSH1 0x40 DUP3 ADD MSTORE PUSH2 0x37B7 PUSH1 0xF1 SHL PUSH1 0x60 DUP3 ADD MSTORE PUSH1 0x80 ADD SWAP1 JUMP JUMPDEST PUSH1 0x1 DUP2 DUP2 SHR SWAP1 DUP3 AND DUP1 PUSH2 0x1A80 JUMPI PUSH1 0x7F DUP3 AND SWAP2 POP JUMPDEST PUSH1 0x20 DUP3 LT DUP2 EQ ISZERO PUSH2 0x1AA1 JUMPI PUSH4 0x4E487B71 PUSH1 0xE0 SHL PUSH1 0x0 MSTORE PUSH1 0x22 PUSH1 0x4 MSTORE PUSH1 0x24 PUSH1 0x0 REVERT JUMPDEST POP SWAP2 SWAP1 POP JUMP JUMPDEST PUSH1 0x20 DUP1 DUP3 MSTORE PUSH1 0x24 SWAP1 DUP3 ADD MSTORE PUSH32 0x54686520706F6C6C206D75737420626520696E20616E20616374697665207374 PUSH1 0x40 DUP3 ADD MSTORE PUSH4 0x30BA3297 PUSH1 0xE1 SHL PUSH1 0x60 DUP3 ADD MSTORE PUSH1 0x80 ADD SWAP1 JUMP JUMPDEST PUSH1 0x20 DUP1 DUP3 MSTORE PUSH1 0x22 SWAP1 DUP3 ADD MSTORE PUSH32 0x5573657220616C726561647920766F74656420666F722074686973206F707469 PUSH1 0x40 DUP3 ADD MSTORE PUSH2 0x37B7 PUSH1 0xF1 SHL PUSH1 0x60 DUP3 ADD MSTORE PUSH1 0x80 ADD SWAP1 JUMP JUMPDEST PUSH1 0x0 DUP2 PUSH2 0x1B3C JUMPI PUSH2 0x1B3C PUSH2 0x19F9 JUMP JUMPDEST POP PUSH1 0x0 NOT ADD SWAP1 JUMP JUMPDEST PUSH1 0x0 DUP3 NOT DUP3 GT ISZERO PUSH2 0x1B57 JUMPI PUSH2 0x1B57 PUSH2 0x19F9 JUMP JUMPDEST POP ADD SWAP1 JUMP JUMPDEST PUSH1 0x0 DUP3 DUP3 LT ISZERO PUSH2 0x1B6E JUMPI PUSH2 0x1B6E PUSH2 0x19F9 JUMP JUMPDEST POP SUB SWAP1 JUMP JUMPDEST PUSH2 0x1B7D DUP2 DUP6 PUSH2 0x18E0 JUMP JUMPDEST PUSH2 0x1B8A PUSH1 0x20 DUP3 ADD DUP5 PUSH2 0x18E0 JUMP JUMPDEST PUSH1 0x60 PUSH1 0x40 DUP3 ADD MSTORE PUSH1 0x0 PUSH2 0x1BA0 PUSH1 0x60 DUP4 ADD DUP5 PUSH2 0x15AA JUMP JUMPDEST SWAP6 SWAP5 POP POP POP POP POP JUMP INVALID LOG2 PUSH5 0x6970667358 0x22 SLT KECCAK256 0x4C 0xD4 0xCD 0xDE 0xEA 0xD1 PUSH31 0xCD8012D1DDB670697CCF5F0F2A84D319FA7F2EB7C54CBE4E9564736F6C6343 STOP ADDMOD 0xC STOP CALLER PUSH1 0x80 PUSH1 0x40 MSTORE CALLVALUE DUP1 ISZERO PUSH2 0x10 JUMPI PUSH1 0x0 DUP1 REVERT JUMPDEST POP PUSH2 0x724 DUP1 PUSH2 0x20 PUSH1 0x0 CODECOPY PUSH1 0x0 RETURN INVALID PUSH1 0x80 PUSH1 0x40 MSTORE CALLVALUE DUP1 ISZERO PUSH2 0x10 JUMPI PUSH1 0x0 DUP1 REVERT JUMPDEST POP PUSH1 0x4 CALLDATASIZE LT PUSH2 0x4C JUMPI PUSH1 0x0 CALLDATALOAD PUSH1 0xE0 SHR DUP1 PUSH4 0x2C6E7598 EQ PUSH2 0x51 JUMPI DUP1 PUSH4 0x69F9AD2F EQ PUSH2 0x7A JUMPI DUP1 PUSH4 0xEFC6C18C EQ PUSH2 0xA6 JUMPI DUP1 PUSH4 0xFD3BAD52 EQ PUSH2 0xBC JUMPI JUMPDEST PUSH1 0x0 DUP1 REVERT JUMPDEST PUSH2 0x64 PUSH2 0x5F CALLDATASIZE PUSH1 0x4 PUSH2 0x3A6 JUMP JUMPDEST PUSH2 0xCF JUMP JUMPDEST PUSH1 0x40 MLOAD PUSH2 0x71 SWAP2 SWAP1 PUSH2 0x3CF JUMP JUMPDEST PUSH1 0x40 MLOAD DUP1 SWAP2 SUB SWAP1 RETURN JUMPDEST PUSH2 0x8D PUSH2 0x88 CALLDATASIZE PUSH1 0x4 PUSH2 0x43D JUMP JUMPDEST PUSH2 0x2D9 JUMP JUMPDEST PUSH1 0x40 MLOAD PUSH1 0x1 PUSH1 0x1 PUSH1 0xF8 SHL SUB NOT SWAP1 SWAP2 AND DUP2 MSTORE PUSH1 0x20 ADD PUSH2 0x71 JUMP JUMPDEST PUSH2 0xAE PUSH2 0x30F JUMP JUMPDEST PUSH1 0x40 MLOAD SWAP1 DUP2 MSTORE PUSH1 0x20 ADD PUSH2 0x71 JUMP JUMPDEST PUSH2 0xAE PUSH2 0xCA CALLDATASIZE PUSH1 0x4 PUSH2 0x45A JUMP JUMPDEST PUSH2 0x371 JUMP JUMPDEST PUSH1 0x40 DUP1 MLOAD PUSH1 0x28 DUP1 DUP3 MSTORE PUSH1 0x60 DUP3 DUP2 ADD SWAP1 SWAP4 MSTORE PUSH1 0x0 SWAP2 SWAP1 PUSH1 0x20 DUP3 ADD DUP2 DUP1 CALLDATASIZE DUP4 CALLDATACOPY ADD SWAP1 POP POP SWAP1 POP PUSH1 0x0 JUMPDEST PUSH1 0x14 DUP2 LT ISZERO PUSH2 0x2D2 JUMPI PUSH1 0x0 PUSH2 0x10C DUP3 PUSH1 0x13 PUSH2 0x492 JUMP JUMPDEST PUSH2 0x117 SWAP1 PUSH1 0x8 PUSH2 0x4A9 JUMP JUMPDEST PUSH2 0x122 SWAP1 PUSH1 0x2 PUSH2 0x5AC JUMP JUMPDEST PUSH2 0x135 SWAP1 PUSH1 0x1 PUSH1 0x1 PUSH1 0xA0 SHL SUB DUP8 AND PUSH2 0x5D5 JUMP JUMPDEST PUSH1 0xF8 SHL SWAP1 POP PUSH1 0x0 PUSH1 0x10 DUP3 PUSH1 0xF8 SHR PUSH2 0x14C SWAP2 SWAP1 PUSH2 0x5E9 JUMP JUMPDEST PUSH1 0xF8 SHL SWAP1 POP PUSH1 0x0 DUP2 PUSH1 0xF8 SHR PUSH1 0x10 PUSH2 0x163 SWAP2 SWAP1 PUSH2 0x60B JUMP JUMPDEST DUP4 PUSH1 0xF8 SHR PUSH2 0x171 SWAP2 SWAP1 PUSH2 0x62C JUMP JUMPDEST PUSH1 0x40 MLOAD PUSH4 0x69F9AD2F PUSH1 0xE0 SHL DUP2 MSTORE PUSH1 0x1 PUSH1 0x1 PUSH1 0xF8 SHL SUB NOT DUP5 AND PUSH1 0x4 DUP3 ADD MSTORE PUSH1 0xF8 SWAP2 SWAP1 SWAP2 SHL SWAP2 POP ADDRESS SWAP1 PUSH4 0x69F9AD2F SWAP1 PUSH1 0x24 ADD PUSH1 0x20 PUSH1 0x40 MLOAD DUP1 DUP4 SUB DUP2 DUP7 GAS STATICCALL ISZERO DUP1 ISZERO PUSH2 0x1BE JUMPI RETURNDATASIZE PUSH1 0x0 DUP1 RETURNDATACOPY RETURNDATASIZE PUSH1 0x0 REVERT JUMPDEST POP POP POP POP PUSH1 0x40 MLOAD RETURNDATASIZE PUSH1 0x1F NOT PUSH1 0x1F DUP3 ADD AND DUP3 ADD DUP1 PUSH1 0x40 MSTORE POP DUP2 ADD SWAP1 PUSH2 0x1E2 SWAP2 SWAP1 PUSH2 0x64F JUMP JUMPDEST DUP6 PUSH2 0x1EE DUP7 PUSH1 0x2 PUSH2 0x4A9 JUMP JUMPDEST DUP2 MLOAD DUP2 LT PUSH2 0x1FE JUMPI PUSH2 0x1FE PUSH2 0x66C JUMP JUMPDEST PUSH1 0x20 ADD ADD SWAP1 PUSH1 0x1 PUSH1 0x1 PUSH1 0xF8 SHL SUB NOT AND SWAP1 DUP2 PUSH1 0x0 BYTE SWAP1 MSTORE8 POP PUSH1 0x40 MLOAD PUSH4 0x69F9AD2F PUSH1 0xE0 SHL DUP2 MSTORE PUSH1 0x1 PUSH1 0x1 PUSH1 0xF8 SHL SUB NOT DUP3 AND PUSH1 0x4 DUP3 ADD MSTORE ADDRESS SWAP1 PUSH4 0x69F9AD2F SWAP1 PUSH1 0x24 ADD PUSH1 0x20 PUSH1 0x40 MLOAD DUP1 DUP4 SUB DUP2 DUP7 GAS STATICCALL ISZERO DUP1 ISZERO PUSH2 0x25A JUMPI RETURNDATASIZE PUSH1 0x0 DUP1 RETURNDATACOPY RETURNDATASIZE PUSH1 0x0 REVERT JUMPDEST POP POP POP POP PUSH1 0x40 MLOAD RETURNDATASIZE PUSH1 0x1F NOT PUSH1 0x1F DUP3 ADD AND DUP3 ADD DUP1 PUSH1 0x40 MSTORE POP DUP2 ADD SWAP1 PUSH2 0x27E SWAP2 SWAP1 PUSH2 0x64F JUMP JUMPDEST DUP6 PUSH2 0x28A DUP7 PUSH1 0x2 PUSH2 0x4A9 JUMP JUMPDEST PUSH2 0x295 SWAP1 PUSH1 0x1 PUSH2 0x682 JUMP JUMPDEST DUP2 MLOAD DUP2 LT PUSH2 0x2A5 JUMPI PUSH2 0x2A5 PUSH2 0x66C JUMP JUMPDEST PUSH1 0x20 ADD ADD SWAP1 PUSH1 0x1 PUSH1 0x1 PUSH1 0xF8 SHL SUB NOT AND SWAP1 DUP2 PUSH1 0x0 BYTE SWAP1 MSTORE8 POP POP POP POP DUP1 DUP1 PUSH2 0x2CA SWAP1 PUSH2 0x69A JUMP JUMPDEST SWAP2 POP POP PUSH2 0xF6 JUMP JUMPDEST POP SWAP3 SWAP2 POP POP JUMP JUMPDEST PUSH1 0x0 PUSH1 0xA PUSH1 0xF8 DUP4 SWAP1 SHR LT ISZERO PUSH2 0x300 JUMPI PUSH2 0x2F7 PUSH1 0xF8 DUP4 SWAP1 SHR PUSH1 0x30 PUSH2 0x6B5 JUMP JUMPDEST PUSH1 0xF8 SHL SWAP3 SWAP2 POP POP JUMP JUMPDEST PUSH2 0x2F7 PUSH1 0xF8 DUP4 SWAP1 SHR PUSH1 0x57 PUSH2 0x6B5 JUMP JUMPDEST PUSH1 0x40 DUP1 MLOAD PUSH1 0x0 PUSH1 0x20 DUP1 DUP4 ADD DUP3 SWAP1 MSTORE TIMESTAMP DUP4 DUP6 ADD MSTORE DIFFICULTY PUSH1 0x60 DUP1 DUP6 ADD SWAP2 SWAP1 SWAP2 MSTORE COINBASE SWAP1 SHL PUSH12 0xFFFFFFFFFFFFFFFFFFFFFFFF NOT AND PUSH1 0x80 DUP5 ADD MSTORE DUP4 MLOAD DUP1 DUP5 SUB PUSH1 0x74 ADD DUP2 MSTORE PUSH1 0x94 SWAP1 SWAP4 ADD SWAP1 SWAP4 MSTORE DUP2 MLOAD SWAP2 SWAP1 SWAP3 ADD KECCAK256 DUP2 SWAP1 DUP2 PUSH2 0x368 DUP2 PUSH2 0x69A JUMP JUMPDEST POP SWAP1 SWAP4 SWAP3 POP POP POP JUMP JUMPDEST PUSH1 0x0 DUP1 PUSH2 0x37E DUP4 DUP6 PUSH2 0x5D5 JUMP JUMPDEST SWAP1 POP PUSH2 0x38A DUP4 DUP6 PUSH2 0x6DA JUMP JUMPDEST ISZERO PUSH2 0x39D JUMPI PUSH2 0x39A DUP2 PUSH1 0x1 PUSH2 0x682 JUMP JUMPDEST SWAP1 POP JUMPDEST SWAP1 POP JUMPDEST SWAP3 SWAP2 POP POP JUMP JUMPDEST PUSH1 0x0 PUSH1 0x20 DUP3 DUP5 SUB SLT ISZERO PUSH2 0x3B8 JUMPI PUSH1 0x0 DUP1 REVERT JUMPDEST DUP2 CALLDATALOAD PUSH1 0x1 PUSH1 0x1 PUSH1 0xA0 SHL SUB DUP2 AND DUP2 EQ PUSH2 0x39D JUMPI PUSH1 0x0 DUP1 REVERT JUMPDEST PUSH1 0x0 PUSH1 0x20 DUP1 DUP4 MSTORE DUP4 MLOAD DUP1 DUP3 DUP6 ADD MSTORE PUSH1 0x0 JUMPDEST DUP2 DUP2 LT ISZERO PUSH2 0x3FC JUMPI DUP6 DUP2 ADD DUP4 ADD MLOAD DUP6 DUP3 ADD PUSH1 0x40 ADD MSTORE DUP3 ADD PUSH2 0x3E0 JUMP JUMPDEST DUP2 DUP2 GT ISZERO PUSH2 0x40E JUMPI PUSH1 0x0 PUSH1 0x40 DUP4 DUP8 ADD ADD MSTORE JUMPDEST POP PUSH1 0x1F ADD PUSH1 0x1F NOT AND SWAP3 SWAP1 SWAP3 ADD PUSH1 0x40 ADD SWAP4 SWAP3 POP POP POP JUMP JUMPDEST PUSH1 0x1 PUSH1 0x1 PUSH1 0xF8 SHL SUB NOT DUP2 AND DUP2 EQ PUSH2 0x43A JUMPI PUSH1 0x0 DUP1 REVERT JUMPDEST POP JUMP JUMPDEST PUSH1 0x0 PUSH1 0x20 DUP3 DUP5 SUB SLT ISZERO PUSH2 0x44F JUMPI PUSH1 0x0 DUP1 REVERT JUMPDEST DUP2 CALLDATALOAD PUSH2 0x39D DUP2 PUSH2 0x424 JUMP JUMPDEST PUSH1 0x0 DUP1 PUSH1 0x40 DUP4 DUP6 SUB SLT ISZERO PUSH2 0x46D JUMPI PUSH1 0x0 DUP1 REVERT JUMPDEST POP POP DUP1 CALLDATALOAD SWAP3 PUSH1 0x20 SWAP1 SWAP2 ADD CALLDATALOAD SWAP2 POP JUMP JUMPDEST PUSH4 0x4E487B71 PUSH1 0xE0 SHL PUSH1 0x0 MSTORE PUSH1 0x11 PUSH1 0x4 MSTORE PUSH1 0x24 PUSH1 0x0 REVERT JUMPDEST PUSH1 0x0 DUP3 DUP3 LT ISZERO PUSH2 0x4A4 JUMPI PUSH2 0x4A4 PUSH2 0x47C JUMP JUMPDEST POP SUB SWAP1 JUMP JUMPDEST PUSH1 0x0 DUP2 PUSH1 0x0 NOT DIV DUP4 GT DUP3 ISZERO ISZERO AND ISZERO PUSH2 0x4C3 JUMPI PUSH2 0x4C3 PUSH2 0x47C JUMP JUMPDEST POP MUL SWAP1 JUMP JUMPDEST PUSH1 0x1 DUP2 DUP2 JUMPDEST DUP1 DUP6 GT ISZERO PUSH2 0x503 JUMPI DUP2 PUSH1 0x0 NOT DIV DUP3 GT ISZERO PUSH2 0x4E9 JUMPI PUSH2 0x4E9 PUSH2 0x47C JUMP JUMPDEST DUP1 DUP6 AND ISZERO PUSH2 0x4F6 JUMPI SWAP2 DUP2 MUL SWAP2 JUMPDEST SWAP4 DUP5 SHR SWAP4 SWAP1 DUP1 MUL SWAP1 PUSH2 0x4CD JUMP JUMPDEST POP SWAP3 POP SWAP3 SWAP1 POP JUMP JUMPDEST PUSH1 0x0 DUP3 PUSH2 0x51A JUMPI POP PUSH1 0x1 PUSH2 0x3A0 JUMP JUMPDEST DUP2 PUSH2 0x527 JUMPI POP PUSH1 0x0 PUSH2 0x3A0 JUMP JUMPDEST DUP2 PUSH1 0x1 DUP2 EQ PUSH2 0x53D JUMPI PUSH1 0x2 DUP2 EQ PUSH2 0x547 JUMPI PUSH2 0x563 JUMP JUMPDEST PUSH1 0x1 SWAP2 POP POP PUSH2 0x3A0 JUMP JUMPDEST PUSH1 0xFF DUP5 GT ISZERO PUSH2 0x558 JUMPI PUSH2 0x558 PUSH2 0x47C JUMP JUMPDEST POP POP PUSH1 0x1 DUP3 SHL PUSH2 0x3A0 JUMP JUMPDEST POP PUSH1 0x20 DUP4 LT PUSH2 0x133 DUP4 LT AND PUSH1 0x4E DUP5 LT PUSH1 0xB DUP5 LT AND OR ISZERO PUSH2 0x586 JUMPI POP DUP2 DUP2 EXP PUSH2 0x3A0 JUMP JUMPDEST PUSH2 0x590 DUP4 DUP4 PUSH2 0x4C8 JUMP JUMPDEST DUP1 PUSH1 0x0 NOT DIV DUP3 GT ISZERO PUSH2 0x5A4 JUMPI PUSH2 0x5A4 PUSH2 0x47C JUMP JUMPDEST MUL SWAP4 SWAP3 POP POP POP JUMP JUMPDEST PUSH1 0x0 PUSH2 0x5B8 DUP4 DUP4 PUSH2 0x50B JUMP JUMPDEST SWAP4 SWAP3 POP POP POP JUMP JUMPDEST PUSH4 0x4E487B71 PUSH1 0xE0 SHL PUSH1 0x0 MSTORE PUSH1 0x12 PUSH1 0x4 MSTORE PUSH1 0x24 PUSH1 0x0 REVERT JUMPDEST PUSH1 0x0 DUP3 PUSH2 0x5E4 JUMPI PUSH2 0x5E4 PUSH2 0x5BF JUMP JUMPDEST POP DIV SWAP1 JUMP JUMPDEST PUSH1 0x0 PUSH1 0xFF DUP4 AND DUP1 PUSH2 0x5FC JUMPI PUSH2 0x5FC PUSH2 0x5BF JUMP JUMPDEST DUP1 PUSH1 0xFF DUP5 AND DIV SWAP2 POP POP SWAP3 SWAP2 POP POP JUMP JUMPDEST PUSH1 0x0 PUSH1 0xFF DUP3 AND PUSH1 0xFF DUP5 AND DUP2 PUSH1 0xFF DIV DUP2 GT DUP3 ISZERO ISZERO AND ISZERO PUSH2 0x5A4 JUMPI PUSH2 0x5A4 PUSH2 0x47C JUMP JUMPDEST PUSH1 0x0 PUSH1 0xFF DUP3 AND PUSH1 0xFF DUP5 AND DUP1 DUP3 LT ISZERO PUSH2 0x646 JUMPI PUSH2 0x646 PUSH2 0x47C JUMP JUMPDEST SWAP1 SUB SWAP4 SWAP3 POP POP POP JUMP JUMPDEST PUSH1 0x0 PUSH1 0x20 DUP3 DUP5 SUB SLT ISZERO PUSH2 0x661 JUMPI PUSH1 0x0 DUP1 REVERT JUMPDEST DUP2 MLOAD PUSH2 0x39D DUP2 PUSH2 0x424 JUMP JUMPDEST PUSH4 0x4E487B71 PUSH1 0xE0 SHL PUSH1 0x0 MSTORE PUSH1 0x32 PUSH1 0x4 MSTORE PUSH1 0x24 PUSH1 0x0 REVERT JUMPDEST PUSH1 0x0 DUP3 NOT DUP3 GT ISZERO PUSH2 0x695 JUMPI PUSH2 0x695 PUSH2 0x47C JUMP JUMPDEST POP ADD SWAP1 JUMP JUMPDEST PUSH1 0x0 PUSH1 0x0 NOT DUP3 EQ ISZERO PUSH2 0x6AE JUMPI PUSH2 0x6AE PUSH2 0x47C JUMP JUMPDEST POP PUSH1 0x1 ADD SWAP1 JUMP JUMPDEST PUSH1 0x0 PUSH1 0xFF DUP3 AND PUSH1 0xFF DUP5 AND DUP1 PUSH1 0xFF SUB DUP3 GT ISZERO PUSH2 0x6D2 JUMPI PUSH2 0x6D2 PUSH2 0x47C JUMP JUMPDEST ADD SWAP4 SWAP3 POP POP POP JUMP JUMPDEST PUSH1 0x0 DUP3 PUSH2 0x6E9 JUMPI PUSH2 0x6E9 PUSH2 0x5BF JUMP JUMPDEST POP MOD SWAP1 JUMP INVALID LOG2 PUSH5 0x6970667358 0x22 SLT KECCAK256 0xC4 PUSH3 0x53C53E CALL SWAP5 0xD6 EXTCODEHASH COINBASE 0xC9 EXTCODEHASH 0xB1 SMOD OR EXP PUSH7 0xC061EF365DBF58 0xB0 PUSH25 0x2A6A752FBE5164736F6C634300080C00330000000000000000 "
		},
		"gasEstimates": {
			"creation": {
				"codeDepositCost": "1124800",
				"executionCost": "infinite",
				"totalCost": "infinite"
			},
			"external": {
				"approve(address[])": "infinite",
				"canApprove(address[])": "infinite",
				"canCancel()": "infinite",
				"canCreate(address[])": "infinite",
				"canStart(address[])": "infinite",
				"canVote()": "infinite",
				"cancelByCouncil()": "infinite",
				"cancelationReason()": "2503",
				"daysOpen()": "2340",
				"getConfirmCount()": "infinite",
				"getMinimalVoterTurnout()": "infinite",
				"getRejectCount()": "infinite",
				"getResult()": "infinite",
				"getVoterTurnout()": "infinite",
				"guaranteers(uint256)": "4692",
				"hasDeadlinePassed()": "infinite",
				"hasMinimumVoterTurnout()": "infinite",
				"owners(uint256)": "4627",
				"removeVote()": "infinite",
				"start(address[])": "infinite",
				"state()": "2452",
				"voteAye()": "infinite",
				"voteNo()": "infinite"
			},
			"internal": {
				"cancel(enum Consultation.CancelationReason,string memory)": "infinite",
				"create(address[] memory,string memory,string memory,string memory,string memory,string memory,string memory)": "infinite",
				"finish()": "infinite",
				"setState(enum Consultation.State,string memory)": "infinite",
				"vote(uint256)": "infinite"
			}
		},
		"methodIdentifiers": {
			"approve(address[])": "77a1736b",
			"canApprove(address[])": "7fe63d70",
			"canCancel()": "d0f3725f",
			"canCreate(address[])": "f53cabf6",
			"canStart(address[])": "c36e4e6c",
			"canVote()": "159e7064",
			"cancelByCouncil()": "ca368f04",
			"cancelationReason()": "3e422f5f",
			"daysOpen()": "a49da4b3",
			"getConfirmCount()": "102533c1",
			"getMinimalVoterTurnout()": "defb4dd6",
			"getRejectCount()": "89a713c3",
			"getResult()": "de292789",
			"getVoterTurnout()": "2fd0d870",
			"guaranteers(uint256)": "c2e862b4",
			"hasDeadlinePassed()": "96e3f4c5",
			"hasMinimumVoterTurnout()": "e53d8f1d",
			"owners(uint256)": "025e7c27",
			"removeVote()": "49aa4ee2",
			"start(address[])": "f3e4e385",
			"state()": "c19d93fb",
			"voteAye()": "6a8bc3bd",
			"voteNo()": "41c12a70"
		}
	},
	"abi": [
		{
			"inputs": [
				{
					"internalType": "contract AccountManagement",
					"name": "_accMngAddress",
					"type": "address"
				},
				{
					"internalType": "address[]",
					"name": "_owners",
					"type": "address[]"
				},
				{
					"internalType": "string",
					"name": "_title",
					"type": "string"
				},
				{
					"internalType": "string",
					"name": "_description",
					"type": "string"
				},
				{
					"internalType": "string",
					"name": "_confirmTitle",
					"type": "string"
				},
				{
					"internalType": "string",
					"name": "_confirmDescription",
					"type": "string"
				},
				{
					"internalType": "string",
					"name": "_rejectTitle",
					"type": "string"
				},
				{
					"internalType": "string",
					"name": "_rejectDescription",
					"type": "string"
				}
			],
			"stateMutability": "nonpayable",
			"type": "constructor"
		},
		{
			"anonymous": false,
			"inputs": [
				{
					"indexed": true,
					"internalType": "address",
					"name": "_by",
					"type": "address"
				},
				{
					"indexed": false,
					"internalType": "enum Consultation.State",
					"name": "oldState",
					"type": "uint8"
				},
				{
					"indexed": false,
					"internalType": "enum Consultation.State",
					"name": "newState",
					"type": "uint8"
				},
				{
					"indexed": false,
					"internalType": "string",
					"name": "description",
					"type": "string"
				}
			],
			"name": "StateChanged",
			"type": "event"
		},
		{
			"inputs": [
				{
					"internalType": "address[]",
					"name": "_guaranteers",
					"type": "address[]"
				}
			],
			"name": "approve",
			"outputs": [],
			"stateMutability": "nonpayable",
			"type": "function"
		},
		{
			"inputs": [
				{
					"internalType": "address[]",
					"name": "_guaranteers",
					"type": "address[]"
				}
			],
			"name": "canApprove",
			"outputs": [
				{
					"internalType": "bool",
					"name": "",
					"type": "bool"
				}
			],
			"stateMutability": "view",
			"type": "function"
		},
		{
			"inputs": [],
			"name": "canCancel",
			"outputs": [
				{
					"internalType": "bool",
					"name": "",
					"type": "bool"
				}
			],
			"stateMutability": "view",
			"type": "function"
		},
		{
			"inputs": [
				{
					"internalType": "address[]",
					"name": "_creators",
					"type": "address[]"
				}
			],
			"name": "canCreate",
			"outputs": [
				{
					"internalType": "bool",
					"name": "",
					"type": "bool"
				}
			],
			"stateMutability": "view",
			"type": "function"
		},
		{
			"inputs": [
				{
					"internalType": "address[]",
					"name": "_creators",
					"type": "address[]"
				}
			],
			"name": "canStart",
			"outputs": [
				{
					"internalType": "bool",
					"name": "",
					"type": "bool"
				}
			],
			"stateMutability": "view",
			"type": "function"
		},
		{
			"inputs": [],
			"name": "canVote",
			"outputs": [
				{
					"internalType": "bool",
					"name": "",
					"type": "bool"
				}
			],
			"stateMutability": "view",
			"type": "function"
		},
		{
			"inputs": [],
			"name": "cancelByCouncil",
			"outputs": [],
			"stateMutability": "nonpayable",
			"type": "function"
		},
		{
			"inputs": [],
			"name": "cancelationReason",
			"outputs": [
				{
					"internalType": "enum Consultation.CancelationReason",
					"name": "",
					"type": "uint8"
				}
			],
			"stateMutability": "view",
			"type": "function"
		},
		{
			"inputs": [],
			"name": "daysOpen",
			"outputs": [
				{
					"internalType": "uint256",
					"name": "",
					"type": "uint256"
				}
			],
			"stateMutability": "view",
			"type": "function"
		},
		{
			"inputs": [],
			"name": "getConfirmCount",
			"outputs": [
				{
					"internalType": "uint256",
					"name": "",
					"type": "uint256"
				}
			],
			"stateMutability": "view",
			"type": "function"
		},
		{
			"inputs": [],
			"name": "getMinimalVoterTurnout",
			"outputs": [
				{
					"internalType": "uint256",
					"name": "",
					"type": "uint256"
				}
			],
			"stateMutability": "view",
			"type": "function"
		},
		{
			"inputs": [],
			"name": "getRejectCount",
			"outputs": [
				{
					"internalType": "uint256",
					"name": "",
					"type": "uint256"
				}
			],
			"stateMutability": "view",
			"type": "function"
		},
		{
			"inputs": [],
			"name": "getResult",
			"outputs": [
				{
					"internalType": "enum Consultation.Result",
					"name": "",
					"type": "uint8"
				}
			],
			"stateMutability": "view",
			"type": "function"
		},
		{
			"inputs": [],
			"name": "getVoterTurnout",
			"outputs": [
				{
					"internalType": "uint256",
					"name": "",
					"type": "uint256"
				}
			],
			"stateMutability": "view",
			"type": "function"
		},
		{
			"inputs": [
				{
					"internalType": "uint256",
					"name": "",
					"type": "uint256"
				}
			],
			"name": "guaranteers",
			"outputs": [
				{
					"internalType": "address",
					"name": "",
					"type": "address"
				}
			],
			"stateMutability": "view",
			"type": "function"
		},
		{
			"inputs": [],
			"name": "hasDeadlinePassed",
			"outputs": [
				{
					"internalType": "bool",
					"name": "",
					"type": "bool"
				}
			],
			"stateMutability": "view",
			"type": "function"
		},
		{
			"inputs": [],
			"name": "hasMinimumVoterTurnout",
			"outputs": [
				{
					"internalType": "bool",
					"name": "",
					"type": "bool"
				}
			],
			"stateMutability": "view",
			"type": "function"
		},
		{
			"inputs": [
				{
					"internalType": "uint256",
					"name": "",
					"type": "uint256"
				}
			],
			"name": "owners",
			"outputs": [
				{
					"internalType": "address",
					"name": "",
					"type": "address"
				}
			],
			"stateMutability": "view",
			"type": "function"
		},
		{
			"inputs": [],
			"name": "removeVote",
			"outputs": [],
			"stateMutability": "nonpayable",
			"type": "function"
		},
		{
			"inputs": [
				{
					"internalType": "address[]",
					"name": "_leaders",
					"type": "address[]"
				}
			],
			"name": "start",
			"outputs": [],
			"stateMutability": "nonpayable",
			"type": "function"
		},
		{
			"inputs": [],
			"name": "state",
			"outputs": [
				{
					"internalType": "enum Consultation.State",
					"name": "",
					"type": "uint8"
				}
			],
			"stateMutability": "view",
			"type": "function"
		},
		{
			"inputs": [],
			"name": "voteAye",
			"outputs": [],
			"stateMutability": "nonpayable",
			"type": "function"
		},
		{
			"inputs": [],
			"name": "voteNo",
			"outputs": [],
			"stateMutability": "nonpayable",
			"type": "function"
		}
	]
}