{
	"data": {
		"bytecode": {
			"linkReferences": {},
			"object": "6080604052601c6002556032600355600160045534801561001f57600080fd5b5061b68e80620000306000396000f3fe60806040523480156200001157600080fd5b5060043610620002385760003560e01c806396e3f4c51162000135578063c36e4e6c11620000bd578063e53d8f1d1162000087578063e53d8f1d14620005d9578063ed57bcb714620005fb578063f53cabf6146200061d578063f7e5b82b1462000653578063fd350b7414620006755762000238565b8063c36e4e6c1462000553578063d0f3725f1462000589578063defb4dd614620005ab578063e134665514620005cd5762000238565b8063bea3ff4411620000ff578063bea3ff4414620004a3578063c026a05e14620004d9578063c19d93fb14620004fb578063c2e862b4146200051d5762000238565b806396e3f4c5146200041d5780639c162409146200043f578063a49da4b3146200045f578063ada8961614620004815762000238565b806349aa4ee211620001c55780636c6c32d0116200018f5780636c6c32d014620003a35780637aa485d014620003af5780637dd4a94514620003cf5780637fe63d7014620003db5780639017386414620004115762000238565b806349aa4ee2146200034757806358e549f0146200035357806362d73eb81462000375578063687b995d14620003815762000238565b80632fd0d87011620002075780632fd0d87014620002c357806336c8c5ee14620002e55780633acd75f814620003055780633e422f5f14620003255762000238565b8063025e7c27146200023d578063107d40351462000273578063159e7064146200027f5780631f164aa714620002a1575b600080fd5b6200025b600480360381019062000255919062004249565b62000681565b6040516200026a9190620042c0565b60405180910390f35b6200027d620006c1565b005b6200028962000852565b604051620002989190620042fa565b60405180910390f35b620002ab62000a65565b604051620002ba91906200456f565b60405180910390f35b620002cd62000b05565b604051620002dc9190620045a4565b60405180910390f35b620003036004803603810190620002fd919062004249565b62000ba0565b005b6200032360048036038101906200031d9190620045f2565b62000ce5565b005b6200032f62000f78565b6040516200033e9190620046a4565b60405180910390f35b6200035162000f8b565b005b6200035d620010bc565b6040516200036c9190620042fa565b60405180910390f35b6200037f620012cf565b005b6200038b620014fb565b6040516200039a91906200456f565b60405180910390f35b620003ad620016a3565b005b620003cd6004803603810190620003c7919062004249565b62001834565b005b620003d962001968565b005b620003f96004803603810190620003f3919062004825565b62001fc8565b604051620004089190620042fa565b60405180910390f35b6200041b620020c4565b005b62000427620022e5565b604051620004369190620042fa565b60405180910390f35b6200045d600480360381019062000457919062004249565b620023bf565b005b6200046962002504565b604051620004789190620045a4565b60405180910390f35b6200048b6200250a565b6040516200049a9190620042fa565b60405180910390f35b620004c16004803603810190620004bb9190620045f2565b6200271d565b604051620004d09190620042fa565b60405180910390f35b620004e36200284c565b604051620004f291906200456f565b60405180910390f35b62000505620029cb565b604051620005149190620048c7565b60405180910390f35b6200053b600480360381019062000535919062004249565b620029de565b6040516200054a9190620042c0565b60405180910390f35b6200057160048036038101906200056b919062004825565b62002a1e565b604051620005809190620042fa565b60405180910390f35b6200059362002b1a565b604051620005a29190620042fa565b60405180910390f35b620005b562002bdb565b604051620005c49190620045a4565b60405180910390f35b620005d762002ca3565b005b620005e362002fb4565b604051620005f29190620042fa565b60405180910390f35b6200060562002fdb565b6040516200061491906200456f565b60405180910390f35b6200063b600480360381019062000635919062004825565b620030fe565b6040516200064a9190620042fa565b60405180910390f35b6200065d620031fa565b6040516200066c91906200456f565b60405180910390f35b6200067f62003455565b005b600081815481106200069257600080fd5b906000526020600020016000915054906101000a900473ffffffffffffffffffffffffffffffffffffffff1681565b600660039054906101000a900473ffffffffffffffffffffffffffffffffffffffff1673ffffffffffffffffffffffffffffffffffffffff1663fa4d7aae336040518263ffffffff1660e01b81526004016200071e9190620042c0565b602060405180830381865afa1580156200073c573d6000803e3d6000fd5b505050506040513d601f19601f8201168201806040525081019062000762919062004915565b620007a4576040517f08c379a00000000000000000000000000000000000000000000000000000000081526004016200079b90620049ce565b60405180910390fd5b60006005811115620007bb57620007ba62004624565b5b600660019054906101000a900460ff166005811115620007e057620007df62004624565b5b141562000813576200080d60016040518060600160405280602481526020016200b5d260249139620038df565b62000850565b6040517f08c379a0000000000000000000000000000000000000000000000000000000008152600401620008479062004a8c565b60405180910390fd5b565b600080339050600660039054906101000a900473ffffffffffffffffffffffffffffffffffffffff1673ffffffffffffffffffffffffffffffffffffffff1663056909b7826040518263ffffffff1660e01b8152600401620008b59190620042c0565b602060405180830381865afa158015620008d3573d6000803e3d6000fd5b505050506040513d601f19601f82011682018060405250810190620008f9919062004915565b80620009a25750600660039054906101000a900473ffffffffffffffffffffffffffffffffffffffff1673ffffffffffffffffffffffffffffffffffffffff1663fa4d7aae826040518263ffffffff1660e01b81526004016200095d9190620042c0565b602060405180830381865afa1580156200097b573d6000803e3d6000fd5b505050506040513d601f19601f82011682018060405250810190620009a1919062004915565b5b8062000a4b5750600660039054906101000a900473ffffffffffffffffffffffffffffffffffffffff1673ffffffffffffffffffffffffffffffffffffffff1663297027d5826040518263ffffffff1660e01b815260040162000a069190620042c0565b602060405180830381865afa15801562000a24573d6000803e3d6000fd5b505050506040513d601f19601f8201168201806040525081019062000a4a919062004915565b5b1562000a5c57600191505062000a62565b60009150505b90565b6060600760009054906101000a900473ffffffffffffffffffffffffffffffffffffffff1673ffffffffffffffffffffffffffffffffffffffff1663cc2ee1966040518163ffffffff1660e01b8152600401600060405180830381865afa15801562000ad5573d6000803e3d6000fd5b505050506040513d6000823e3d601f19601f8201168201806040525081019062000b00919062004d9b565b905090565b6000600760009054906101000a900473ffffffffffffffffffffffffffffffffffffffff1673ffffffffffffffffffffffffffffffffffffffff166311174a296040518163ffffffff1660e01b8152600401602060405180830381865afa15801562000b75573d6000803e3d6000fd5b505050506040513d601f19601f8201168201806040525081019062000b9b919062004dec565b905090565b60006002600581111562000bb95762000bb862004624565b5b600660019054906101000a900460ff16600581111562000bde5762000bdd62004624565b5b141562000bfa5762000bef620022e5565b62000bf957600190505b5b8062000c3d576040517f08c379a000000000000000000000000000000000000000000000000000000000815260040162000c349062004e94565b60405180910390fd5b62000c4762000852565b1562000ce157600860009054906101000a900473ffffffffffffffffffffffffffffffffffffffff1673ffffffffffffffffffffffffffffffffffffffff166344d5e03c33846040518363ffffffff1660e01b815260040162000cac92919062004eb6565b600060405180830381600087803b15801562000cc757600080fd5b505af115801562000cdc573d6000803e3d6000fd5b505050505b5050565b600080600581111562000cfd5762000cfc62004624565b5b600660019054906101000a900460ff16600581111562000d225762000d2162004624565b5b141562000d3e5762000d33620022e5565b62000d3d57600190505b5b8062000d81576040517f08c379a000000000000000000000000000000000000000000000000000000000815260040162000d789062004f59565b60405180910390fd5b62000d8b620010bc565b1562000f375762000d9c826200271d565b62000ef4576000600660039054906101000a900473ffffffffffffffffffffffffffffffffffffffff1673ffffffffffffffffffffffffffffffffffffffff16636f77926b846040518263ffffffff1660e01b815260040162000e009190620042c0565b600060405180830381865afa15801562000e1e573d6000803e3d6000fd5b505050506040513d6000823e3d601f19601f8201168201806040525081019062000e4991906200510f565b9050600760009054906101000a900473ffffffffffffffffffffffffffffffffffffffff1673ffffffffffffffffffffffffffffffffffffffff1663dfecf96b33856000856020015186604001516040518663ffffffff1660e01b815260040162000eb9959493929190620051a1565b600060405180830381600087803b15801562000ed457600080fd5b505af115801562000ee9573d6000803e3d6000fd5b505050505062000f31565b6040517f08c379a000000000000000000000000000000000000000000000000000000000815260040162000f28906200525c565b60405180910390fd5b62000f74565b6040517f08c379a000000000000000000000000000000000000000000000000000000000815260040162000f6b90620052ce565b60405180910390fd5b5050565b600660029054906101000a900460ff1681565b60006002600581111562000fa45762000fa362004624565b5b600660019054906101000a900460ff16600581111562000fc95762000fc862004624565b5b141562000fe55762000fda620022e5565b62000fe457600190505b5b8062001028576040517f08c379a00000000000000000000000000000000000000000000000000000000081526004016200101f9062004e94565b60405180910390fd5b600760009054906101000a900473ffffffffffffffffffffffffffffffffffffffff1673ffffffffffffffffffffffffffffffffffffffff16633fd00b0d336040518263ffffffff1660e01b8152600401620010859190620042c0565b600060405180830381600087803b158015620010a057600080fd5b505af1158015620010b5573d6000803e3d6000fd5b5050505050565b600080339050600660039054906101000a900473ffffffffffffffffffffffffffffffffffffffff1673ffffffffffffffffffffffffffffffffffffffff1663056909b7826040518263ffffffff1660e01b81526004016200111f9190620042c0565b602060405180830381865afa1580156200113d573d6000803e3d6000fd5b505050506040513d601f19601f8201168201806040525081019062001163919062004915565b806200120c5750600660039054906101000a900473ffffffffffffffffffffffffffffffffffffffff1673ffffffffffffffffffffffffffffffffffffffff1663fa4d7aae826040518263ffffffff1660e01b8152600401620011c79190620042c0565b602060405180830381865afa158015620011e5573d6000803e3d6000fd5b505050506040513d601f19601f820116820180604052508101906200120b919062004915565b5b80620012b55750600660039054906101000a900473ffffffffffffffffffffffffffffffffffffffff1673ffffffffffffffffffffffffffffffffffffffff1663297027d5826040518263ffffffff1660e01b8152600401620012709190620042c0565b602060405180830381865afa1580156200128e573d6000803e3d6000fd5b505050506040513d601f19601f82011682018060405250810190620012b4919062004915565b5b15620012c6576001915050620012cc565b60009150505b90565b600660039054906101000a900473ffffffffffffffffffffffffffffffffffffffff1673ffffffffffffffffffffffffffffffffffffffff1663fa4d7aae336040518263ffffffff1660e01b81526004016200132c9190620042c0565b602060405180830381865afa1580156200134a573d6000803e3d6000fd5b505050506040513d601f19601f8201168201806040525081019062001370919062004915565b620013b2576040517f08c379a0000000000000000000000000000000000000000000000000000000008152600401620013a990620049ce565b60405180910390fd5b60016005811115620013c957620013c862004624565b5b600660019054906101000a900460ff166005811115620013ee57620013ed62004624565b5b1415620014bc57620013ff62003973565b600760009054906101000a900473ffffffffffffffffffffffffffffffffffffffff1673ffffffffffffffffffffffffffffffffffffffff1663e6c09edf336040518263ffffffff1660e01b81526004016200145c9190620042c0565b600060405180830381600087803b1580156200147757600080fd5b505af11580156200148c573d6000803e3d6000fd5b50505050620014b660026040518060600160405280602481526020016200b5d260249139620038df565b620014f9565b6040517f08c379a0000000000000000000000000000000000000000000000000000000008152600401620014f09062004a8c565b60405180910390fd5b565b60606000600760009054906101000a900473ffffffffffffffffffffffffffffffffffffffff1673ffffffffffffffffffffffffffffffffffffffff1663cc2ee1966040518163ffffffff1660e01b8152600401600060405180830381865afa1580156200156d573d6000803e3d6000fd5b505050506040513d6000823e3d601f19601f8201168201806040525081019062001598919062004d9b565b90506000815167ffffffffffffffff811115620015ba57620015b9620046c6565b5b604051908082528060200260200182016040528015620015f757816020015b620015e3620040c5565b815260200190600190039081620015d95790505b5090506000805b835181101562001696578381815181106200161e576200161d620052f0565b5b602002602001015160600151156200168057838181518110620016465762001645620052f0565b5b6020026020010151838381518110620016645762001663620052f0565b5b602002602001018190525081806200167c906200534e565b9250505b80806200168d906200534e565b915050620015fe565b5080825281935050505090565b600660039054906101000a900473ffffffffffffffffffffffffffffffffffffffff1673ffffffffffffffffffffffffffffffffffffffff1663fa4d7aae336040518263ffffffff1660e01b8152600401620017009190620042c0565b602060405180830381865afa1580156200171e573d6000803e3d6000fd5b505050506040513d601f19601f8201168201806040525081019062001744919062004915565b62001786576040517f08c379a00000000000000000000000000000000000000000000000000000000081526004016200177d90620049ce565b60405180910390fd5b600360058111156200179d576200179c62004624565b5b600660019054906101000a900460ff166005811115620017c257620017c162004624565b5b1415620017f557620017ef60046040518060600160405280602481526020016200b5d260249139620038df565b62001832565b6040517f08c379a0000000000000000000000000000000000000000000000000000000008152600401620018299062005412565b60405180910390fd5b565b6000600160058111156200184d576200184c62004624565b5b600660019054906101000a900460ff16600581111562001872576200187162004624565b5b14156200188e5762001883620022e5565b6200188d57600190505b5b80620018d1576040517f08c379a0000000000000000000000000000000000000000000000000000000008152600401620018c89062004e94565b60405180910390fd5b600760009054906101000a900473ffffffffffffffffffffffffffffffffffffffff1673ffffffffffffffffffffffffffffffffffffffff166316db2a7a33846040518363ffffffff1660e01b81526004016200193092919062004eb6565b600060405180830381600087803b1580156200194b57600080fd5b505af115801562001960573d6000803e3d6000fd5b505050505050565b6000604051806101400160405280735b38da6a701c568545dcfcb03fcb875f56beddc473ffffffffffffffffffffffffffffffffffffffff1673ffffffffffffffffffffffffffffffffffffffff16815260200173ab8483f64d9c6d1ecf9b849ae677dd3315835cb273ffffffffffffffffffffffffffffffffffffffff1673ffffffffffffffffffffffffffffffffffffffff168152602001734b20993bc481177ec7e8f571cecae8a9e22c02db73ffffffffffffffffffffffffffffffffffffffff1673ffffffffffffffffffffffffffffffffffffffff1681526020017378731d3ca6b7e34ac0f824c42a7cc18a495cabab73ffffffffffffffffffffffffffffffffffffffff1673ffffffffffffffffffffffffffffffffffffffff16815260200173617f2e2fd72fd9d5503197092ac168c91465e7f273ffffffffffffffffffffffffffffffffffffffff1673ffffffffffffffffffffffffffffffffffffffff1681526020017317f6ad8ef982297579c203069c1dbffe4348c37273ffffffffffffffffffffffffffffffffffffffff1673ffffffffffffffffffffffffffffffffffffffff168152602001735c6b0f7bf3e7ce046039bd8fabdfd3f9f502167873ffffffffffffffffffffffffffffffffffffffff1673ffffffffffffffffffffffffffffffffffffffff1681526020017303c6fced478cbbc9a4fab34ef9f40767739d1ff773ffffffffffffffffffffffffffffffffffffffff1673ffffffffffffffffffffffffffffffffffffffff168152602001731ae0ea34a72d944a8c7603ffb3ec30a6669e454c73ffffffffffffffffffffffffffffffffffffffff1673ffffffffffffffffffffffffffffffffffffffff16815260200173ca35b7d915458ef540ade6068dfe2f44e8fa733c73ffffffffffffffffffffffffffffffffffffffff1673ffffffffffffffffffffffffffffffffffffffff1681525090506000600367ffffffffffffffff81111562001c525762001c51620046c6565b5b60405190808252806020026020018201604052801562001c815781602001602082028036833780820191505090505b50905073617f2e2fd72fd9d5503197092ac168c91465e7f28160008151811062001cb05762001caf620052f0565b5b602002602001019073ffffffffffffffffffffffffffffffffffffffff16908173ffffffffffffffffffffffffffffffffffffffff16815250507317f6ad8ef982297579c203069c1dbffe4348c3728160018151811062001d165762001d15620052f0565b5b602002602001019073ffffffffffffffffffffffffffffffffffffffff16908173ffffffffffffffffffffffffffffffffffffffff1681525050735c6b0f7bf3e7ce046039bd8fabdfd3f9f50216788160028151811062001d7c5762001d7b620052f0565b5b602002602001019073ffffffffffffffffffffffffffffffffffffffff16908173ffffffffffffffffffffffffffffffffffffffff1681525050736e111eaf89bbfc1210f413f63f0a35d34a75243f600660036101000a81548173ffffffffffffffffffffffffffffffffffffffff021916908373ffffffffffffffffffffffffffffffffffffffff16021790555060006040518060400160405280601481526020017f456c656374206e6577206c656164657273686970000000000000000000000000815250905060006040518060600160405280602b81526020016200b62e602b91399050600080600290506000600167ffffffffffffffff81111562001e8a5762001e89620046c6565b5b60405190808252806020026020018201604052801562001eb95781602001602082028036833780820191505090505b509050735b38da6a701c568545dcfcb03fcb875f56beddc48160008151811062001ee85762001ee7620052f0565b5b602002602001019073ffffffffffffffffffffffffffffffffffffffff16908173ffffffffffffffffffffffffffffffffffffffff168152505062001f31818686868662003d2d565b62001f7360006040518060400160405280601581526020017f436f6e73756c746174696f6e2063726561746564210000000000000000000000815250620038df565b60005b865181101562001fbe5762001fa887828151811062001f9a5762001f99620052f0565b5b602002602001015162000ce5565b808062001fb5906200534e565b91505062001f76565b5050505050505050565b6000806001905060005b8351811015620020ba57600660039054906101000a900473ffffffffffffffffffffffffffffffffffffffff1673ffffffffffffffffffffffffffffffffffffffff1663fa4d7aae85838151811062002030576200202f620052f0565b5b60200260200101516040518263ffffffff1660e01b8152600401620020569190620042c0565b602060405180830381865afa15801562002074573d6000803e3d6000fd5b505050506040513d601f19601f820116820180604052508101906200209a919062004915565b620020a457600091505b8080620020b1906200534e565b91505062001fd2565b5080915050919050565b600660039054906101000a900473ffffffffffffffffffffffffffffffffffffffff1673ffffffffffffffffffffffffffffffffffffffff1663fa4d7aae336040518263ffffffff1660e01b8152600401620021219190620042c0565b602060405180830381865afa1580156200213f573d6000803e3d6000fd5b505050506040513d601f19601f8201168201806040525081019062002165919062004915565b620021a7576040517f08c379a00000000000000000000000000000000000000000000000000000000081526004016200219e90620049ce565b60405180910390fd5b60026005811115620021be57620021bd62004624565b5b600660019054906101000a900460ff166005811115620021e357620021e262004624565b5b1415620022a657620021f462002fb4565b1562002226576200222060036040518060600160405280602481526020016200b5d260249139620038df565b620022a0565b62002230620022e5565b1562002262576200225c60016040518060600160405280603881526020016200b5f66038913962003fa4565b6200229f565b6040517f08c379a00000000000000000000000000000000000000000000000000000000081526004016200229690620054aa565b60405180910390fd5b5b620022e3565b6040517f08c379a0000000000000000000000000000000000000000000000000000000008152600401620022da9062005542565b60405180910390fd5b565b60008060009050600042905060006201518060025462002306919062005564565b600760009054906101000a900473ffffffffffffffffffffffffffffffffffffffff1673ffffffffffffffffffffffffffffffffffffffff1663b90c1dbb6040518163ffffffff1660e01b8152600401602060405180830381865afa15801562002374573d6000803e3d6000fd5b505050506040513d601f19601f820116820180604052508101906200239a919062004dec565b620023a69190620055c5565b905080821115620023b657600192505b82935050505090565b600060016005811115620023d857620023d762004624565b5b600660019054906101000a900460ff166005811115620023fd57620023fc62004624565b5b141562002419576200240e620022e5565b6200241857600190505b5b806200245c576040517f08c379a0000000000000000000000000000000000000000000000000000000008152600401620024539062004e94565b60405180910390fd5b620024666200250a565b156200250057600760009054906101000a900473ffffffffffffffffffffffffffffffffffffffff1673ffffffffffffffffffffffffffffffffffffffff166344d5e03c33846040518363ffffffff1660e01b8152600401620024cb92919062004eb6565b600060405180830381600087803b158015620024e657600080fd5b505af1158015620024fb573d6000803e3d6000fd5b505050505b5050565b60025481565b600080339050600660039054906101000a900473ffffffffffffffffffffffffffffffffffffffff1673ffffffffffffffffffffffffffffffffffffffff1663056909b7826040518263ffffffff1660e01b81526004016200256d9190620042c0565b602060405180830381865afa1580156200258b573d6000803e3d6000fd5b505050506040513d601f19601f82011682018060405250810190620025b1919062004915565b806200265a5750600660039054906101000a900473ffffffffffffffffffffffffffffffffffffffff1673ffffffffffffffffffffffffffffffffffffffff1663fa4d7aae826040518263ffffffff1660e01b8152600401620026159190620042c0565b602060405180830381865afa15801562002633573d6000803e3d6000fd5b505050506040513d601f19601f8201168201806040525081019062002659919062004915565b5b80620027035750600660039054906101000a900473ffffffffffffffffffffffffffffffffffffffff1673ffffffffffffffffffffffffffffffffffffffff1663297027d5826040518263ffffffff1660e01b8152600401620026be9190620042c0565b602060405180830381865afa158015620026dc573d6000803e3d6000fd5b505050506040513d601f19601f8201168201806040525081019062002702919062004915565b5b15620027145760019150506200271a565b60009150505b90565b600080600760009054906101000a900473ffffffffffffffffffffffffffffffffffffffff1673ffffffffffffffffffffffffffffffffffffffff1663cc2ee1966040518163ffffffff1660e01b8152600401600060405180830381865afa1580156200278e573d6000803e3d6000fd5b505050506040513d6000823e3d601f19601f82011682018060405250810190620027b9919062004d9b565b905060005b81518110156200284057818181518110620027de57620027dd620052f0565b5b60200260200101516020015173ffffffffffffffffffffffffffffffffffffffff168473ffffffffffffffffffffffffffffffffffffffff1614156200282a5760019250505062002847565b808062002837906200534e565b915050620027be565b5060009150505b919050565b6060600860009054906101000a900473ffffffffffffffffffffffffffffffffffffffff1673ffffffffffffffffffffffffffffffffffffffff1663c467a69c6040518163ffffffff1660e01b81526004016020604051808303816000875af1158015620028be573d6000803e3d6000fd5b505050506040513d601f19601f82011682018060405250810190620028e4919062004915565b156200298b57600860009054906101000a900473ffffffffffffffffffffffffffffffffffffffff1673ffffffffffffffffffffffffffffffffffffffff1663cc2ee1966040518163ffffffff1660e01b8152600401600060405180830381865afa15801562002958573d6000803e3d6000fd5b505050506040513d6000823e3d601f19601f8201168201806040525081019062002983919062004d9b565b9050620029c8565b6040517f08c379a0000000000000000000000000000000000000000000000000000000008152600401620029bf9062005672565b60405180910390fd5b90565b600660019054906101000a900460ff1681565b60018181548110620029ef57600080fd5b906000526020600020016000915054906101000a900473ffffffffffffffffffffffffffffffffffffffff1681565b6000806001905060005b835181101562002b1057600660039054906101000a900473ffffffffffffffffffffffffffffffffffffffff1673ffffffffffffffffffffffffffffffffffffffff1663fa4d7aae85838151811062002a865762002a85620052f0565b5b60200260200101516040518263ffffffff1660e01b815260040162002aac9190620042c0565b602060405180830381865afa15801562002aca573d6000803e3d6000fd5b505050506040513d601f19601f8201168201806040525081019062002af0919062004915565b62002afa57600091505b808062002b07906200534e565b91505062002a28565b5080915050919050565b600080339050600660039054906101000a900473ffffffffffffffffffffffffffffffffffffffff1673ffffffffffffffffffffffffffffffffffffffff1663fa4d7aae826040518263ffffffff1660e01b815260040162002b7d9190620042c0565b602060405180830381865afa15801562002b9b573d6000803e3d6000fd5b505050506040513d601f19601f8201168201806040525081019062002bc1919062004915565b1562002bd257600191505062002bd8565b60009150505b90565b60008062002be862000b05565b9050600960009054906101000a900473ffffffffffffffffffffffffffffffffffffffff1673ffffffffffffffffffffffffffffffffffffffff1663fd3bad526003548362002c38919062005564565b60646040518363ffffffff1660e01b815260040162002c59929190620056e1565b602060405180830381865afa15801562002c77573d6000803e3d6000fd5b505050506040513d601f19601f8201168201806040525081019062002c9d919062004dec565b91505090565b600080600581111562002cbb5762002cba62004624565b5b600660019054906101000a900460ff16600581111562002ce05762002cdf62004624565b5b141562002cfc5762002cf1620022e5565b62002cfb57600190505b5b8062002d3f576040517f08c379a000000000000000000000000000000000000000000000000000000000815260040162002d369062004f59565b60405180910390fd5b6000600760009054906101000a900473ffffffffffffffffffffffffffffffffffffffff1673ffffffffffffffffffffffffffffffffffffffff1663cc2ee1966040518163ffffffff1660e01b8152600401600060405180830381865afa15801562002daf573d6000803e3d6000fd5b505050506040513d6000823e3d601f19601f8201168201806040525081019062002dda919062004d9b565b905060005b815181101562002f735781818151811062002dff5762002dfe620052f0565b5b60200260200101516020015173ffffffffffffffffffffffffffffffffffffffff163373ffffffffffffffffffffffffffffffffffffffff16141562002f5d5781818151811062002e555762002e54620052f0565b5b60200260200101516060015162002f2057600760009054906101000a900473ffffffffffffffffffffffffffffffffffffffff1673ffffffffffffffffffffffffffffffffffffffff1663ddd7531b83838151811062002eba5762002eb9620052f0565b5b6020026020010151600001516040518263ffffffff1660e01b815260040162002ee49190620045a4565b600060405180830381600087803b15801562002eff57600080fd5b505af115801562002f14573d6000803e3d6000fd5b50505050505062002fb1565b6040517f08c379a000000000000000000000000000000000000000000000000000000000815260040162002f549062005784565b60405180910390fd5b808062002f6a906200534e565b91505062002ddf565b506040517f08c379a000000000000000000000000000000000000000000000000000000000815260040162002fa890620057f6565b60405180910390fd5b50565b60008062002fc162000b05565b9050600062002fcf62002bdb565b90508082119250505090565b6060600062002fe9620014fb565b90506000815167ffffffffffffffff8111156200300b576200300a620046c6565b5b6040519080825280602002602001820160405280156200304857816020015b62003034620040c5565b8152602001906001900390816200302a5790505b5090506000805b8351811015620030f1576000848281518110620030715762003070620052f0565b5b602002602001015160c001519050600454811115620030da57848281518110620030a0576200309f620052f0565b5b6020026020010151848481518110620030be57620030bd620052f0565b5b60200260200101819052508280620030d6906200534e565b9350505b508080620030e8906200534e565b9150506200304f565b5080825281935050505090565b6000806001905060005b8351811015620031f057600660039054906101000a900473ffffffffffffffffffffffffffffffffffffffff1673ffffffffffffffffffffffffffffffffffffffff1663297027d5858381518110620031665762003165620052f0565b5b60200260200101516040518263ffffffff1660e01b81526004016200318c9190620042c0565b602060405180830381865afa158015620031aa573d6000803e3d6000fd5b505050506040513d601f19601f82011682018060405250810190620031d0919062004915565b620031da57600091505b8080620031e7906200534e565b91505062003108565b5080915050919050565b6060600860009054906101000a900473ffffffffffffffffffffffffffffffffffffffff1673ffffffffffffffffffffffffffffffffffffffff1663c467a69c6040518163ffffffff1660e01b81526004016020604051808303816000875af11580156200326c573d6000803e3d6000fd5b505050506040513d601f19601f8201168201806040525081019062003292919062004915565b620032d4576040517f08c379a0000000000000000000000000000000000000000000000000000000008152600401620032cb9062005672565b60405180910390fd5b6000620032e06200284c565b90506000815167ffffffffffffffff811115620033025762003301620046c6565b5b6040519080825280602002602001820160405280156200333f57816020015b6200332b620040c5565b815260200190600190039081620033215790505b5090506200334c620040c5565b60008060005b855181101562003446576000868281518110620033745762003373620052f0565b5b602002602001015160c0015190506005548310620033df578460c00151811115620033d957868281518110620033af57620033ae620052f0565b5b6020026020010151868581518110620033cd57620033cc620052f0565b5b60200260200101819052505b6200342f565b868281518110620033f557620033f4620052f0565b5b6020026020010151868481518110620034135762003412620052f0565b5b602002602001018190525082806200342b906200534e565b9350505b5080806200343d906200534e565b91505062003352565b50808452839550505050505090565b600360058111156200346c576200346b62004624565b5b600660019054906101000a900460ff16600581111562003491576200349062004624565b5b1415620038a0576000620034a4620031fa565b90506000815167ffffffffffffffff811115620034c657620034c5620046c6565b5b604051908082528060200260200182016040528015620034f55781602001602082028036833780820191505090505b50905060005b82518110156200358d578281815181106200351b576200351a620052f0565b5b6020026020010151602001518282815181106200353d576200353c620052f0565b5b602002602001019073ffffffffffffffffffffffffffffffffffffffff16908173ffffffffffffffffffffffffffffffffffffffff1681525050808062003584906200534e565b915050620034fb565b5060006003811115620035a557620035a462004624565b5b600660009054906101000a900460ff166003811115620035ca57620035c962004624565b5b141562003715576000600660039054906101000a900473ffffffffffffffffffffffffffffffffffffffff1673ffffffffffffffffffffffffffffffffffffffff166320e05d9c836040518263ffffffff1660e01b8152600401620036309190620058d5565b600060405180830381865afa1580156200364e573d6000803e3d6000fd5b505050506040513d6000823e3d601f19601f8201168201806040525081019062003679919062005a2e565b9050600660039054906101000a900473ffffffffffffffffffffffffffffffffffffffff1673ffffffffffffffffffffffffffffffffffffffff16633d0a8a3433836040518363ffffffff1660e01b8152600401620036da92919062005b50565b600060405180830381600087803b158015620036f557600080fd5b505af11580156200370a573d6000803e3d6000fd5b505050505062003898565b600160038111156200372c576200372b62004624565b5b600660009054906101000a900460ff16600381111562003751576200375062004624565b5b141562003897576000600660039054906101000a900473ffffffffffffffffffffffffffffffffffffffff1673ffffffffffffffffffffffffffffffffffffffff1663d41450b6836040518263ffffffff1660e01b8152600401620037b79190620058d5565b600060405180830381865afa158015620037d5573d6000803e3d6000fd5b505050506040513d6000823e3d601f19601f8201168201806040525081019062003800919062005c12565b9050600660039054906101000a900473ffffffffffffffffffffffffffffffffffffffff1673ffffffffffffffffffffffffffffffffffffffff16638ad63c0133836040518363ffffffff1660e01b81526004016200386192919062005cb9565b600060405180830381600087803b1580156200387c57600080fd5b505af115801562003891573d6000803e3d6000fd5b50505050505b5b5050620038dd565b6040517f08c379a0000000000000000000000000000000000000000000000000000000008152600401620038d49062005d3d565b60405180910390fd5b565b3373ffffffffffffffffffffffffffffffffffffffff167ffc6f5e211098b443015ccb625104a41f61e97a80dd9b8734242a9a8c3eecc8dc600660019054906101000a900460ff1684846040516200393a9392919062005d5f565b60405180910390a281600660016101000a81548160ff021916908360058111156200396a576200396962004624565b5b02179055505050565b600660039054906101000a900473ffffffffffffffffffffffffffffffffffffffff1673ffffffffffffffffffffffffffffffffffffffff1663fa4d7aae336040518263ffffffff1660e01b8152600401620039d09190620042c0565b602060405180830381865afa158015620039ee573d6000803e3d6000fd5b505050506040513d601f19601f8201168201806040525081019062003a14919062004915565b62003a56576040517f08c379a000000000000000000000000000000000000000000000000000000000815260040162003a4d90620049ce565b60405180910390fd5b6000600760009054906101000a900473ffffffffffffffffffffffffffffffffffffffff1673ffffffffffffffffffffffffffffffffffffffff1663ff3c1a8f6040518163ffffffff1660e01b8152600401600060405180830381865afa15801562003ac6573d6000803e3d6000fd5b505050506040513d6000823e3d601f19601f8201168201806040525081019062003af1919062005da3565b90506000600760009054906101000a900473ffffffffffffffffffffffffffffffffffffffff1673ffffffffffffffffffffffffffffffffffffffff16631a0925416040518163ffffffff1660e01b8152600401600060405180830381865afa15801562003b63573d6000803e3d6000fd5b505050506040513d6000823e3d601f19601f8201168201806040525081019062003b8e919062005da3565b905060008282600160405162003ba49062004130565b62003bb3949392919062005ef4565b604051809103906000f08015801562003bd0573d6000803e3d6000fd5b50600860006101000a81548173ffffffffffffffffffffffffffffffffffffffff021916908373ffffffffffffffffffffffffffffffffffffffff160217905550600062003c1d62002fdb565b905060005b815181101562003d2757600082828151811062003c445762003c43620052f0565b5b6020026020010151905060008160200151905060008260200151905060008360800151905060008460a001519050600860009054906101000a900473ffffffffffffffffffffffffffffffffffffffff1673ffffffffffffffffffffffffffffffffffffffff1663dfecf96b8486600186866040518663ffffffff1660e01b815260040162003cd8959493929190620051a1565b600060405180830381600087803b15801562003cf357600080fd5b505af115801562003d08573d6000803e3d6000fd5b505050505050505050808062003d1e906200534e565b91505062003c22565b50505050565b600660039054906101000a900473ffffffffffffffffffffffffffffffffffffffff1673ffffffffffffffffffffffffffffffffffffffff1663fa4d7aae336040518263ffffffff1660e01b815260040162003d8a9190620042c0565b602060405180830381865afa15801562003da8573d6000803e3d6000fd5b505050506040513d601f19601f8201168201806040525081019062003dce919062004915565b62003e10576040517f08c379a000000000000000000000000000000000000000000000000000000000815260040162003e0790620049ce565b60405180910390fd5b62003e1b85620030fe565b1562003f605760405162003e2f906200413e565b604051809103906000f08015801562003e4c573d6000803e3d6000fd5b50600960006101000a81548173ffffffffffffffffffffffffffffffffffffffff021916908373ffffffffffffffffffffffffffffffffffffffff160217905550848484600060405162003ea09062004130565b62003eaf949392919062005f56565b604051809103906000f08015801562003ecc573d6000803e3d6000fd5b50600760006101000a81548173ffffffffffffffffffffffffffffffffffffffff021916908373ffffffffffffffffffffffffffffffffffffffff160217905550846000908051906020019062003f259291906200414c565b5081600660006101000a81548160ff0219169083600381111562003f4e5762003f4d62004624565b5b02179055508060058190555062003f9d565b6040517f08c379a000000000000000000000000000000000000000000000000000000000815260040162003f94906200602e565b60405180910390fd5b5050505050565b600660039054906101000a900473ffffffffffffffffffffffffffffffffffffffff1673ffffffffffffffffffffffffffffffffffffffff1663fa4d7aae336040518263ffffffff1660e01b8152600401620040019190620042c0565b602060405180830381865afa1580156200401f573d6000803e3d6000fd5b505050506040513d601f19601f8201168201806040525081019062004045919062004915565b62004087576040517f08c379a00000000000000000000000000000000000000000000000000000000081526004016200407e90620049ce565b60405180910390fd5b62004094600582620038df565b81600660026101000a81548160ff02191690836002811115620040bc57620040bb62004624565b5b02179055505050565b6040518060e0016040528060008152602001600073ffffffffffffffffffffffffffffffffffffffff168152602001600073ffffffffffffffffffffffffffffffffffffffff1681526020016000151581526020016060815260200160608152602001600081525090565b614829806200605183390190565b610d58806200a87a83390190565b828054828255906000526020600020908101928215620041c8579160200282015b82811115620041c75782518260006101000a81548173ffffffffffffffffffffffffffffffffffffffff021916908373ffffffffffffffffffffffffffffffffffffffff160217905550916020019190600101906200416d565b5b509050620041d79190620041db565b5090565b5b80821115620041f6576000816000905550600101620041dc565b5090565b6000604051905090565b600080fd5b600080fd5b6000819050919050565b62004223816200420e565b81146200422f57600080fd5b50565b600081359050620042438162004218565b92915050565b60006020828403121562004262576200426162004204565b5b6000620042728482850162004232565b91505092915050565b600073ffffffffffffffffffffffffffffffffffffffff82169050919050565b6000620042a8826200427b565b9050919050565b620042ba816200429b565b82525050565b6000602082019050620042d76000830184620042af565b92915050565b60008115159050919050565b620042f481620042dd565b82525050565b6000602082019050620043116000830184620042e9565b92915050565b600081519050919050565b600082825260208201905092915050565b6000819050602082019050919050565b6200434e816200420e565b82525050565b6200435f816200429b565b82525050565b6200437081620042dd565b82525050565b600081519050919050565b600082825260208201905092915050565b60005b83811015620043b257808201518184015260208101905062004395565b83811115620043c2576000848401525b50505050565b6000601f19601f8301169050919050565b6000620043e68262004376565b620043f2818562004381565b93506200440481856020860162004392565b6200440f81620043c8565b840191505092915050565b600060e08301600083015162004434600086018262004343565b50602083015162004449602086018262004354565b5060408301516200445e604086018262004354565b50606083015162004473606086018262004365565b50608083015184820360808601526200448d8282620043d9565b91505060a083015184820360a0860152620044a98282620043d9565b91505060c0830151620044c060c086018262004343565b508091505092915050565b6000620044d983836200441a565b905092915050565b6000602082019050919050565b6000620044fb8262004317565b62004507818562004322565b9350836020820285016200451b8562004333565b8060005b858110156200455d57848403895281516200453b8582620044cb565b94506200454883620044e1565b925060208a019950506001810190506200451f565b50829750879550505050505092915050565b600060208201905081810360008301526200458b8184620044ee565b905092915050565b6200459e816200420e565b82525050565b6000602082019050620045bb600083018462004593565b92915050565b620045cc816200429b565b8114620045d857600080fd5b50565b600081359050620045ec81620045c1565b92915050565b6000602082840312156200460b576200460a62004204565b5b60006200461b84828501620045db565b91505092915050565b7f4e487b7100000000000000000000000000000000000000000000000000000000600052602160045260246000fd5b6003811062004667576200466662004624565b5b50565b60008190506200467a8262004653565b919050565b60006200468c826200466a565b9050919050565b6200469e816200467f565b82525050565b6000602082019050620046bb600083018462004693565b92915050565b600080fd5b7f4e487b7100000000000000000000000000000000000000000000000000000000600052604160045260246000fd5b6200470082620043c8565b810181811067ffffffffffffffff82111715620047225762004721620046c6565b5b80604052505050565b600062004737620041fa565b9050620047458282620046f5565b919050565b600067ffffffffffffffff821115620047685762004767620046c6565b5b602082029050602081019050919050565b600080fd5b6000620047956200478f846200474a565b6200472b565b90508083825260208201905060208402830185811115620047bb57620047ba62004779565b5b835b81811015620047e85780620047d38882620045db565b845260208401935050602081019050620047bd565b5050509392505050565b600082601f8301126200480a5762004809620046c1565b5b81356200481c8482602086016200477e565b91505092915050565b6000602082840312156200483e576200483d62004204565b5b600082013567ffffffffffffffff8111156200485f576200485e62004209565b5b6200486d84828501620047f2565b91505092915050565b600681106200488a576200488962004624565b5b50565b60008190506200489d8262004876565b919050565b6000620048af826200488d565b9050919050565b620048c181620048a2565b82525050565b6000602082019050620048de6000830184620048b6565b92915050565b620048ef81620042dd565b8114620048fb57600080fd5b50565b6000815190506200490f81620048e4565b92915050565b6000602082840312156200492e576200492d62004204565b5b60006200493e84828501620048fe565b91505092915050565b600082825260208201905092915050565b7f4f6e6c7920636f756e63656c6f72732063616e2075736520746869732066756e60008201527f6374696f6e000000000000000000000000000000000000000000000000000000602082015250565b6000620049b660258362004947565b9150620049c38262004958565b604082019050919050565b60006020820190508181036000830152620049e981620049a7565b9050919050565b7f436f6e73756c746174696f6e206973206e6f7420696e2074686520274170707260008201527f6f7665642720737461746520616e642063616e207468657265666f7265206e6f60208201527f7420626520737461727465642e00000000000000000000000000000000000000604082015250565b600062004a74604d8362004947565b915062004a8182620049f0565b606082019050919050565b6000602082019050818103600083015262004aa78162004a65565b9050919050565b600067ffffffffffffffff82111562004acc5762004acb620046c6565b5b602082029050602081019050919050565b600080fd5b600080fd5b60008151905062004af88162004218565b92915050565b60008151905062004b0f81620045c1565b92915050565b600080fd5b600067ffffffffffffffff82111562004b385762004b37620046c6565b5b62004b4382620043c8565b9050602081019050919050565b600062004b6762004b618462004b1a565b6200472b565b90508281526020810184848401111562004b865762004b8562004b15565b5b62004b9384828562004392565b509392505050565b600082601f83011262004bb35762004bb2620046c1565b5b815162004bc584826020860162004b50565b91505092915050565b600060e0828403121562004be75762004be662004add565b5b62004bf360e06200472b565b9050600062004c058482850162004ae7565b600083015250602062004c1b8482850162004afe565b602083015250604062004c318482850162004afe565b604083015250606062004c4784828501620048fe565b606083015250608082015167ffffffffffffffff81111562004c6e5762004c6d62004ae2565b5b62004c7c8482850162004b9b565b60808301525060a082015167ffffffffffffffff81111562004ca35762004ca262004ae2565b5b62004cb18482850162004b9b565b60a08301525060c062004cc78482850162004ae7565b60c08301525092915050565b600062004cea62004ce48462004aae565b6200472b565b9050808382526020820190506020840283018581111562004d105762004d0f62004779565b5b835b8181101562004d5e57805167ffffffffffffffff81111562004d395762004d38620046c1565b5b80860162004d48898262004bce565b8552602085019450505060208101905062004d12565b5050509392505050565b600082601f83011262004d805762004d7f620046c1565b5b815162004d9284826020860162004cd3565b91505092915050565b60006020828403121562004db45762004db362004204565b5b600082015167ffffffffffffffff81111562004dd55762004dd462004209565b5b62004de38482850162004d68565b91505092915050565b60006020828403121562004e055762004e0462004204565b5b600062004e158482850162004ae7565b91505092915050565b7f54686520706f6c6c206d7573742062652070726573656c656374696f6e20737460008201527f6174652100000000000000000000000000000000000000000000000000000000602082015250565b600062004e7c60248362004947565b915062004e898262004e1e565b604082019050919050565b6000602082019050818103600083015262004eaf8162004e6d565b9050919050565b600060408201905062004ecd6000830185620042af565b62004edc602083018462004593565b9392505050565b7f54686520706f6c6c206d75737420626520696e20616e2061637469766520737460008201527f6174652100000000000000000000000000000000000000000000000000000000602082015250565b600062004f4160248362004947565b915062004f4e8262004ee3565b604082019050919050565b6000602082019050818103600083015262004f748162004f32565b9050919050565b60006080828403121562004f945762004f9362004add565b5b62004fa060806200472b565b9050600062004fb284828501620048fe565b600083015250602062004fc884828501620048fe565b602083015250604062004fde84828501620048fe565b604083015250606062004ff484828501620048fe565b60608301525092915050565b600061012082840312156200501a576200501962004add565b5b6200502660c06200472b565b90506000620050388482850162004afe565b600083015250602082015167ffffffffffffffff8111156200505f576200505e62004ae2565b5b6200506d8482850162004b9b565b602083015250604082015167ffffffffffffffff81111562005094576200509362004ae2565b5b620050a28482850162004b9b565b604083015250606082015167ffffffffffffffff811115620050c957620050c862004ae2565b5b620050d78482850162004b9b565b6060830152506080620050ed84828501620048fe565b60808301525060a0620051038482850162004f7b565b60a08301525092915050565b60006020828403121562005128576200512762004204565b5b600082015167ffffffffffffffff81111562005149576200514862004209565b5b620051578482850162005000565b91505092915050565b60006200516d8262004376565b62005179818562004947565b93506200518b81856020860162004392565b6200519681620043c8565b840191505092915050565b600060a082019050620051b86000830188620042af565b620051c76020830187620042af565b620051d66040830186620042e9565b8181036060830152620051ea818562005160565b9050818103608083015262005200818462005160565b90509695505050505050565b7f43616e64696461746520616c7265616479206e6f6d696e617465642100000000600082015250565b600062005244601c8362004947565b915062005251826200520c565b602082019050919050565b60006020820190508181036000830152620052778162005235565b9050919050565b7f4e6f2073756666696369656e7420726967687473210000000000000000000000600082015250565b6000620052b660158362004947565b9150620052c3826200527e565b602082019050919050565b60006020820190508181036000830152620052e981620052a7565b9050919050565b7f4e487b7100000000000000000000000000000000000000000000000000000000600052603260045260246000fd5b7f4e487b7100000000000000000000000000000000000000000000000000000000600052601160045260246000fd5b60006200535b826200420e565b91507fffffffffffffffffffffffffffffffffffffffffffffffffffffffffffffffff8214156200539157620053906200531f565b5b600182019050919050565b7f436f6e73756c746174696f6e206973206e6f7420696e207468652027454c454360008201527f544544272073746174652e000000000000000000000000000000000000000000602082015250565b6000620053fa602b8362004947565b915062005407826200539c565b604082019050919050565b600060208201905081810360008301526200542d81620053eb565b9050919050565b7f436f6e73756c746174696f6e20686173206e6f742072656163686564206d696e60008201527f696d756d20766f746572207475726e6f75742e00000000000000000000000000602082015250565b60006200549260338362004947565b91506200549f8262005434565b604082019050919050565b60006020820190508181036000830152620054c58162005483565b9050919050565b7f436f6e73756c746174696f6e206973206e6f7420696e207468652027454c454360008201527f54494f4e272073746174652e0000000000000000000000000000000000000000602082015250565b60006200552a602c8362004947565b91506200553782620054cc565b604082019050919050565b600060208201905081810360008301526200555d816200551b565b9050919050565b600062005571826200420e565b91506200557e836200420e565b9250817fffffffffffffffffffffffffffffffffffffffffffffffffffffffffffffffff0483118215151615620055ba57620055b96200531f565b5b828202905092915050565b6000620055d2826200420e565b9150620055df836200420e565b9250827fffffffffffffffffffffffffffffffffffffffffffffffffffffffffffffffff038211156200561757620056166200531f565b5b828201905092915050565b7f456c656374696f6e20686173206e6f7420737461727465640000000000000000600082015250565b60006200565a60188362004947565b9150620056678262005622565b602082019050919050565b600060208201905081810360008301526200568d816200564b565b9050919050565b6000819050919050565b6000819050919050565b6000620056c9620056c3620056bd8462005694565b6200569e565b6200420e565b9050919050565b620056db81620056a8565b82525050565b6000604082019050620056f8600083018562004593565b620057076020830184620056d0565b9392505050565b7f43616e64696461747572652077617320616c726561647920616363657074656460008201527f2100000000000000000000000000000000000000000000000000000000000000602082015250565b60006200576c60218362004947565b915062005779826200570e565b604082019050919050565b600060208201905081810360008301526200579f816200575d565b9050919050565b7f43616e646964617465206973206e6f74206e6f6d696e61746564210000000000600082015250565b6000620057de601b8362004947565b9150620057eb82620057a6565b602082019050919050565b600060208201905081810360008301526200581181620057cf565b9050919050565b600081519050919050565b600082825260208201905092915050565b6000819050602082019050919050565b600062005852838362004354565b60208301905092915050565b6000602082019050919050565b6000620058788262005818565b62005884818562005823565b9350620058918362005834565b8060005b83811015620058c8578151620058ac888262005844565b9750620058b9836200585e565b92505060018101905062005895565b5085935050505092915050565b60006020820190508181036000830152620058f181846200586b565b905092915050565b6000620059106200590a846200474a565b6200472b565b9050808382526020820190506020840283018581111562005936576200593562004779565b5b835b818110156200596357806200594e888262004afe565b84526020840193505060208101905062005938565b5050509392505050565b600082601f830112620059855762005984620046c1565b5b815162005997848260208601620058f9565b91505092915050565b600060608284031215620059b957620059b862004add565b5b620059c560606200472b565b9050600082015167ffffffffffffffff811115620059e857620059e762004ae2565b5b620059f6848285016200596d565b600083015250602062005a0c8482850162004ae7565b602083015250604062005a2284828501620048fe565b60408301525092915050565b60006020828403121562005a475762005a4662004204565b5b600082015167ffffffffffffffff81111562005a685762005a6762004209565b5b62005a7684828501620059a0565b91505092915050565b600082825260208201905092915050565b600062005a9d8262005818565b62005aa9818562005a7f565b935062005ab68362005834565b8060005b8381101562005aed57815162005ad1888262005844565b975062005ade836200585e565b92505060018101905062005aba565b5085935050505092915050565b6000606083016000830151848203600086015262005b19828262005a90565b915050602083015162005b30602086018262004343565b50604083015162005b45604086018262004365565b508091505092915050565b600060408201905062005b676000830185620042af565b818103602083015262005b7b818462005afa565b90509392505050565b60006060828403121562005b9d5762005b9c62004add565b5b62005ba960606200472b565b9050600082015167ffffffffffffffff81111562005bcc5762005bcb62004ae2565b5b62005bda848285016200596d565b600083015250602062005bf08482850162004ae7565b602083015250604062005c0684828501620048fe565b60408301525092915050565b60006020828403121562005c2b5762005c2a62004204565b5b600082015167ffffffffffffffff81111562005c4c5762005c4b62004209565b5b62005c5a8482850162005b84565b91505092915050565b6000606083016000830151848203600086015262005c82828262005a90565b915050602083015162005c99602086018262004343565b50604083015162005cae604086018262004365565b508091505092915050565b600060408201905062005cd06000830185620042af565b818103602083015262005ce4818462005c63565b90509392505050565b7f456c656374696f6e206973206e6f7420696e20737461746520454c4543544544600082015250565b600062005d2560208362004947565b915062005d328262005ced565b602082019050919050565b6000602082019050818103600083015262005d588162005d16565b9050919050565b600060608201905062005d766000830186620048b6565b62005d856020830185620048b6565b818103604083015262005d99818462005160565b9050949350505050565b60006020828403121562005dbc5762005dbb62004204565b5b600082015167ffffffffffffffff81111562005ddd5762005ddc62004209565b5b62005deb8482850162004b9b565b91505092915050565b600081549050919050565b60008190508160005260206000209050919050565b60008160001c9050919050565b600073ffffffffffffffffffffffffffffffffffffffff82169050919050565b600062005e5862005e528362005e14565b62005e21565b9050919050565b600062005e6d825462005e41565b9050919050565b6000600182019050919050565b600062005e8e8262005df4565b62005e9a818562005823565b935062005ea78362005dff565b8060005b8381101562005ee75762005ebf8262005e5f565b62005ecb888262005844565b975062005ed88362005e74565b92505060018101905062005eab565b5085935050505092915050565b6000608082019050818103600083015262005f10818762005e81565b9050818103602083015262005f26818662005160565b9050818103604083015262005f3c818562005160565b905062005f4d6060830184620042e9565b95945050505050565b6000608082019050818103600083015262005f7281876200586b565b9050818103602083015262005f88818662005160565b9050818103604083015262005f9e818562005160565b905062005faf6060830184620042e9565b95945050505050565b7f4f6e65206f72206d6f72652075736572732063616e277420637265617465206160008201527f20636f6e73756c746174696f6e21000000000000000000000000000000000000602082015250565b600062006016602e8362004947565b9150620060238262005fb8565b604082019050919050565b60006020820190508181036000830152620060498162006007565b905091905056fe60806040523480156200001157600080fd5b5060405162004829380380620048298339818101604052810190620000379190620007cc565b604051620000459062000365565b604051809103906000f08015801562000062573d6000803e3d6000fd5b50600960006101000a81548173ffffffffffffffffffffffffffffffffffffffff021916908373ffffffffffffffffffffffffffffffffffffffff160217905550620000b784848484620000c260201b60201c565b505050505062000b26565b6000600960009054906101000a900473ffffffffffffffffffffffffffffffffffffffff1673ffffffffffffffffffffffffffffffffffffffff1663efc6c18c6040518163ffffffff1660e01b8152600401602060405180830381865afa15801562000132573d6000803e3d6000fd5b505050506040513d601f19601f82011682018060405250810190620001589190620008d6565b60008190555083600290805190602001906200017692919062000373565b5082600390805190602001906200018f92919062000373565b50426004819055508460019080519060200190620001af92919062000404565b506000600760006101000a81548160ff02191690836002811115620001d957620001d862000908565b5b021790555081600760016101000a81548160ff0219169083151502179055506200024060016040518060400160405280600d81526020017f506f6c6c206372656174656421000000000000000000000000000000000000008152506200024d60201b60201c565b6000549050949350505050565b81600281111562000263576200026262000908565b5b600760009054906101000a900460ff16600281111562000288576200028762000908565b5b1462000324573373ffffffffffffffffffffffffffffffffffffffff167ffc6f5e211098b443015ccb625104a41f61e97a80dd9b8734242a9a8c3eecc8dc600760009054906101000a900460ff168484604051620002e993929190620009e5565b60405180910390a281600760006101000a81548160ff0219169083600281111562000319576200031862000908565b5b021790555062000361565b6040517f08c379a0000000000000000000000000000000000000000000000000000000008152600401620003589062000a9f565b60405180910390fd5b5050565b610d588062003ad183390190565b828054620003819062000af0565b90600052602060002090601f016020900481019282620003a55760008555620003f1565b82601f10620003c057805160ff1916838001178555620003f1565b82800160010185558215620003f1579182015b82811115620003f0578251825591602001919060010190620003d3565b5b50905062000400919062000493565b5090565b82805482825590600052602060002090810192821562000480579160200282015b828111156200047f5782518260006101000a81548173ffffffffffffffffffffffffffffffffffffffff021916908373ffffffffffffffffffffffffffffffffffffffff1602179055509160200191906001019062000425565b5b5090506200048f919062000493565b5090565b5b80821115620004ae57600081600090555060010162000494565b5090565b6000604051905090565b600080fd5b600080fd5b600080fd5b6000601f19601f8301169050919050565b7f4e487b7100000000000000000000000000000000000000000000000000000000600052604160045260246000fd5b6200051682620004cb565b810181811067ffffffffffffffff82111715620005385762000537620004dc565b5b80604052505050565b60006200054d620004b2565b90506200055b82826200050b565b919050565b600067ffffffffffffffff8211156200057e576200057d620004dc565b5b602082029050602081019050919050565b600080fd5b600073ffffffffffffffffffffffffffffffffffffffff82169050919050565b6000620005c18262000594565b9050919050565b620005d381620005b4565b8114620005df57600080fd5b50565b600081519050620005f381620005c8565b92915050565b6000620006106200060a8462000560565b62000541565b905080838252602082019050602084028301858111156200063657620006356200058f565b5b835b818110156200066357806200064e8882620005e2565b84526020840193505060208101905062000638565b5050509392505050565b600082601f830112620006855762000684620004c6565b5b815162000697848260208601620005f9565b91505092915050565b600080fd5b600067ffffffffffffffff821115620006c357620006c2620004dc565b5b620006ce82620004cb565b9050602081019050919050565b60005b83811015620006fb578082015181840152602081019050620006de565b838111156200070b576000848401525b50505050565b6000620007286200072284620006a5565b62000541565b905082815260208101848484011115620007475762000746620006a0565b5b62000754848285620006db565b509392505050565b600082601f830112620007745762000773620004c6565b5b81516200078684826020860162000711565b91505092915050565b60008115159050919050565b620007a6816200078f565b8114620007b257600080fd5b50565b600081519050620007c6816200079b565b92915050565b60008060008060808587031215620007e957620007e8620004bc565b5b600085015167ffffffffffffffff8111156200080a5762000809620004c1565b5b62000818878288016200066d565b945050602085015167ffffffffffffffff8111156200083c576200083b620004c1565b5b6200084a878288016200075c565b935050604085015167ffffffffffffffff8111156200086e576200086d620004c1565b5b6200087c878288016200075c565b92505060606200088f87828801620007b5565b91505092959194509250565b6000819050919050565b620008b0816200089b565b8114620008bc57600080fd5b50565b600081519050620008d081620008a5565b92915050565b600060208284031215620008ef57620008ee620004bc565b5b6000620008ff84828501620008bf565b91505092915050565b7f4e487b7100000000000000000000000000000000000000000000000000000000600052602160045260246000fd5b600381106200094b576200094a62000908565b5b50565b60008190506200095e8262000937565b919050565b600062000970826200094e565b9050919050565b620009828162000963565b82525050565b600081519050919050565b600082825260208201905092915050565b6000620009b18262000988565b620009bd818562000993565b9350620009cf818560208601620006db565b620009da81620004cb565b840191505092915050565b6000606082019050620009fc600083018662000977565b62000a0b602083018562000977565b818103604083015262000a1f8184620009a4565b9050949350505050565b7f5374617465206e6f74206368616e6765642e204e65772073746174652069732060008201527f7468652073616d65206173206f6c642073746174652100000000000000000000602082015250565b600062000a8760368362000993565b915062000a948262000a29565b604082019050919050565b6000602082019050818103600083015262000aba8162000a78565b9050919050565b7f4e487b7100000000000000000000000000000000000000000000000000000000600052602260045260246000fd5b6000600282049050600182168062000b0957607f821691505b6020821081141562000b205762000b1f62000ac1565b5b50919050565b612f9b8062000b366000396000f3fe608060405234801561001057600080fd5b50600436106101585760003560e01c8063af640d0f116100c3578063ddd7531b1161007c578063ddd7531b1461037f578063dfecf96b1461039b578063e6c09edf146103b7578063fc55e4e8146103d3578063fc81897714610403578063ff3c1a8f1461041f57610158565b8063af640d0f146102cb578063b90c1dbb146102e9578063c19d93fb14610307578063c467a69c14610325578063cc2ee19614610343578063d4b5f16a1461036157610158565b806342169e481161011557806342169e481461021d57806344d5e03c1461023b5780634a79d50c146102575780634f4a3115146102755780637284e4161461029157806373b1a0f1146102af57610158565b8063025e7c271461015d57806311174a291461018d57806316db2a7a146101ab5780631a092541146101c75780631c5a9d9c146101e55780633fd00b0d14610201575b600080fd5b61017760048036038101906101729190612075565b61043d565b60405161018491906120e3565b60405180910390f35b61019561047c565b6040516101a2919061210d565b60405180910390f35b6101c560048036038101906101c09190612154565b610486565b005b6101cf610825565b6040516101dc919061222d565b60405180910390f35b6101ff60048036038101906101fa919061224f565b6108b7565b005b61021b6004803603810190610216919061224f565b6109e9565b005b610225610b69565b604051610232919061210d565b60405180910390f35b61025560048036038101906102509190612154565b610b6f565b005b61025f610f53565b60405161026c919061222d565b60405180910390f35b61028f600480360381019061028a9190612075565b610fe1565b005b6102996110b4565b6040516102a6919061222d565b60405180910390f35b6102c960048036038101906102c4919061224f565b611142565b005b6102d36111b0565b6040516102e09190612295565b60405180910390f35b6102f16111b6565b6040516102fe919061210d565b60405180910390f35b61030f6111c0565b60405161031c9190612327565b60405180910390f35b61032d6111d3565b60405161033a919061235d565b60405180910390f35b61034b611211565b6040516103589190612554565b60405180910390f35b61036961146f565b604051610376919061235d565b60405180910390f35b61039960048036038101906103949190612075565b611482565b005b6103b560048036038101906103b091906126d7565b611555565b005b6103d160048036038101906103cc919061224f565b61186a565b005b6103ed60048036038101906103e89190612075565b61199c565b6040516103fa919061282d565b60405180910390f35b61041d6004803603810190610418919061224f565b611bbe565b005b610427611c2c565b604051610434919061222d565b60405180910390f35b6001818154811061044d57600080fd5b906000526020600020016000915054906101000a900473ffffffffffffffffffffffffffffffffffffffff1681565b6000600654905090565b6001600281111561049a576104996122b0565b5b600760009054906101000a900460ff1660028111156104bc576104bb6122b0565b5b146104fc576040517f08c379a00000000000000000000000000000000000000000000000000000000081526004016104f3906128c1565b60405180910390fd5b600080600860008573ffffffffffffffffffffffffffffffffffffffff1673ffffffffffffffffffffffffffffffffffffffff16815260200190815260200160002080548060200260200160405190810160405280929190818152602001828054801561058857602002820191906000526020600020905b815481526020019060010190808311610574575b505050505090506000815114156105d4576040517f08c379a00000000000000000000000000000000000000000000000000000000081526004016105cb9061292d565b60405180910390fd5b600760019054906101000a900460ff161561063a57600067ffffffffffffffff811115610604576106036125ac565b5b6040519080825280602002602001820160405280156106325781602001602082028036833780820191505090505b50905061073c565b6000805b82518110156106dd5782818151811061065a5761065961294d565b5b60200260200101518514156106ca57600191506001835161067b91906129ab565b8110156106c9578260018261069091906129df565b815181106106a1576106a061294d565b5b60200260200101518382815181106106bc576106bb61294d565b5b6020026020010181815250505b5b80806106d590612a35565b91505061063e565b81156106fe576000600184516106f391906129ab565b905080845250610739565b6040517f08c379a000000000000000000000000000000000000000000000000000000000815260040161073090612af0565b60405180910390fd5b50505b600061074784611cbe565b905080600501600081548092919061075e90612b10565b9190505550600082511415610786576006600081548092919061078090612b10565b91905055505b81600860008773ffffffffffffffffffffffffffffffffffffffff1673ffffffffffffffffffffffffffffffffffffffff16815260200190815260200160002090805190602001906107d9929190611e83565b5060019250508161081f576040517f08c379a000000000000000000000000000000000000000000000000000000000815260040161081690612b86565b60405180910390fd5b50505050565b60606003805461083490612bd5565b80601f016020809104026020016040519081016040528092919081815260200182805461086090612bd5565b80156108ad5780601f10610882576101008083540402835291602001916108ad565b820191906000526020600020905b81548152906001019060200180831161089057829003601f168201915b5050505050905090565b8060006001905060005b60018054905081101561095c57600181815481106108e2576108e161294d565b5b9060005260206000200160009054906101000a900473ffffffffffffffffffffffffffffffffffffffff1673ffffffffffffffffffffffffffffffffffffffff168373ffffffffffffffffffffffffffffffffffffffff161415610949576001915061095c565b808061095490612a35565b9150506108c1565b5060011515811515146109a4576040517f08c379a000000000000000000000000000000000000000000000000000000000815260040161099b90612c79565b60405180910390fd5b6109e460016040518060400160405280600f81526020017f506f6c6c20616374697661746564210000000000000000000000000000000000815250611d7a565b505050565b600160028111156109fd576109fc6122b0565b5b600760009054906101000a900460ff166002811115610a1f57610a1e6122b0565b5b14610a5f576040517f08c379a0000000000000000000000000000000000000000000000000000000008152600401610a56906128c1565b60405180910390fd5b600760019054906101000a900460ff16610aae576040517f08c379a0000000000000000000000000000000000000000000000000000000008152600401610aa590612d0b565b60405180910390fd5b6000600860008373ffffffffffffffffffffffffffffffffffffffff1673ffffffffffffffffffffffffffffffffffffffff168152602001908152602001600020805480602002602001604051908101604052809291908181526020018280548015610b3957602002820191906000526020600020905b815481526020019060010190808311610b25575b50505050509050610b658282600081518110610b5857610b5761294d565b5b6020026020010151610486565b5050565b60065481565b60016002811115610b8357610b826122b0565b5b600760009054906101000a900460ff166002811115610ba557610ba46122b0565b5b14610be5576040517f08c379a0000000000000000000000000000000000000000000000000000000008152600401610bdc906128c1565b60405180910390fd5b6000610bf082611cbe565b90508060020160149054906101000a900460ff1615610f13576000600860008573ffffffffffffffffffffffffffffffffffffffff1673ffffffffffffffffffffffffffffffffffffffff1681526020019081526020016000209050600081805490501415610d3a576000600167ffffffffffffffff811115610c7657610c756125ac565b5b604051908082528060200260200182016040528015610ca45781602001602082028036833780820191505090505b5090508381600081518110610cbc57610cbb61294d565b5b60200260200101818152505080600860008773ffffffffffffffffffffffffffffffffffffffff1673ffffffffffffffffffffffffffffffffffffffff1681526020019081526020016000209080519060200190610d1b929190611e83565b5060066000815480929190610d2f90612a35565b919050555050610ef3565b600760019054906101000a900460ff1615610e4057600081600081548110610d6557610d6461294d565b5b906000526020600020015490506000610d7d82611cbe565b905081851415610dc2576040517f08c379a0000000000000000000000000000000000000000000000000000000008152600401610db990612d9d565b60405180910390fd5b806005016000815480929190610dd790612b10565b9190505550604051806020016040528086815250600860008873ffffffffffffffffffffffffffffffffffffffff1673ffffffffffffffffffffffffffffffffffffffff168152602001908152602001600020906001610e38929190611ed0565b505050610ef2565b60005b8180549050811015610ec8576000828281548110610e6457610e6361294d565b5b9060005260206000200154905084811415610eb4576040517f08c379a0000000000000000000000000000000000000000000000000000000008152600401610eab90612d9d565b60405180910390fd5b508080610ec090612a35565b915050610e43565b50808390806001815401808255809150506001900390600052602060002001600090919091909150555b5b816005016000815480929190610f0890612a35565b919050555050610f4e565b6040517f08c379a0000000000000000000000000000000000000000000000000000000008152600401610f4590612e09565b60405180910390fd5b505050565b60028054610f6090612bd5565b80601f0160208091040260200160405190810160405280929190818152602001828054610f8c90612bd5565b8015610fd95780601f10610fae57610100808354040283529160200191610fd9565b820191906000526020600020905b815481529060010190602001808311610fbc57829003601f168201915b505050505081565b60005b6005805490508110156110755781600582815481106110065761100561294d565b5b9060005260206000209060060201600001541415611062576000600582815481106110345761103361294d565b5b906000526020600020906006020160020160146101000a81548160ff021916908315150217905550506110b1565b808061106d90612a35565b915050610fe4565b506040517f08c379a00000000000000000000000000000000000000000000000000000000081526004016110a890612e75565b60405180910390fd5b50565b600380546110c190612bd5565b80601f01602080910402602001604051908101604052809291908181526020018280546110ed90612bd5565b801561113a5780601f1061110f5761010080835404028352916020019161113a565b820191906000526020600020905b81548152906001019060200180831161111d57829003601f168201915b505050505081565b3073ffffffffffffffffffffffffffffffffffffffff1663e6c09edf826040518263ffffffff1660e01b815260040161117b91906120e3565b600060405180830381600087803b15801561119557600080fd5b505af11580156111a9573d6000803e3d6000fd5b5050505050565b60005481565b6000600454905090565b600760009054906101000a900460ff1681565b6000600160028111156111e9576111e86122b0565b5b600760009054906101000a900460ff16600281111561120b5761120a6122b0565b5b14905090565b60606005805480602002602001604051908101604052809291908181526020016000905b8282101561146657838290600052602060002090600602016040518060e0016040529081600082015481526020016001820160009054906101000a900473ffffffffffffffffffffffffffffffffffffffff1673ffffffffffffffffffffffffffffffffffffffff1673ffffffffffffffffffffffffffffffffffffffff1681526020016002820160009054906101000a900473ffffffffffffffffffffffffffffffffffffffff1673ffffffffffffffffffffffffffffffffffffffff1673ffffffffffffffffffffffffffffffffffffffff1681526020016002820160149054906101000a900460ff1615151515815260200160038201805461133990612bd5565b80601f016020809104026020016040519081016040528092919081815260200182805461136590612bd5565b80156113b25780601f10611387576101008083540402835291602001916113b2565b820191906000526020600020905b81548152906001019060200180831161139557829003601f168201915b505050505081526020016004820180546113cb90612bd5565b80601f01602080910402602001604051908101604052809291908181526020018280546113f790612bd5565b80156114445780601f1061141957610100808354040283529160200191611444565b820191906000526020600020905b81548152906001019060200180831161142757829003601f168201915b5050505050815260200160058201548152505081526020019060010190611235565b50505050905090565b600760019054906101000a900460ff1681565b60005b6005805490508110156115165781600582815481106114a7576114a661294d565b5b9060005260206000209060060201600001541415611503576001600582815481106114d5576114d461294d565b5b906000526020600020906006020160020160146101000a81548160ff02191690831515021790555050611552565b808061150e90612a35565b915050611485565b506040517f08c379a000000000000000000000000000000000000000000000000000000000815260040161154990612e75565b60405180910390fd5b50565b60016002811115611569576115686122b0565b5b600760009054906101000a900460ff16600281111561158b5761158a6122b0565b5b146115cb576040517f08c379a00000000000000000000000000000000000000000000000000000000081526004016115c2906128c1565b60405180910390fd5b8460006001905060005b60018054905081101561167057600181815481106115f6576115f561294d565b5b9060005260206000200160009054906101000a900473ffffffffffffffffffffffffffffffffffffffff1673ffffffffffffffffffffffffffffffffffffffff168373ffffffffffffffffffffffffffffffffffffffff16141561165d5760019150611670565b808061166890612a35565b9150506115d5565b5060011515811515146116b8576040517f08c379a00000000000000000000000000000000000000000000000000000000081526004016116af90612c79565b60405180910390fd5b60006103e86005805490506116cd91906129df565b905060006040518060e001604052808381526020018973ffffffffffffffffffffffffffffffffffffffff1681526020018a73ffffffffffffffffffffffffffffffffffffffff16815260200188151581526020018781526020018681526020016000815250905060058190806001815401808255809150506001900390600052602060002090600602016000909190919091506000820151816000015560208201518160010160006101000a81548173ffffffffffffffffffffffffffffffffffffffff021916908373ffffffffffffffffffffffffffffffffffffffff16021790555060408201518160020160006101000a81548173ffffffffffffffffffffffffffffffffffffffff021916908373ffffffffffffffffffffffffffffffffffffffff16021790555060608201518160020160146101000a81548160ff0219169083151502179055506080820151816003019080519060200190611835929190611f1d565b5060a0820151816004019080519060200190611852929190611f1d565b5060c082015181600501555050505050505050505050565b8060006001905060005b60018054905081101561190f57600181815481106118955761189461294d565b5b9060005260206000200160009054906101000a900473ffffffffffffffffffffffffffffffffffffffff1673ffffffffffffffffffffffffffffffffffffffff168373ffffffffffffffffffffffffffffffffffffffff1614156118fc576001915061190f565b808061190790612a35565b915050611874565b506001151581151514611957576040517f08c379a000000000000000000000000000000000000000000000000000000000815260040161194e90612c79565b60405180910390fd5b61199760026040518060400160405280600e81526020017f506f6c6c2064697361626c656421000000000000000000000000000000000000815250611d7a565b505050565b6119a4611fa3565b6119ad82611cbe565b6040518060e0016040529081600082015481526020016001820160009054906101000a900473ffffffffffffffffffffffffffffffffffffffff1673ffffffffffffffffffffffffffffffffffffffff1673ffffffffffffffffffffffffffffffffffffffff1681526020016002820160009054906101000a900473ffffffffffffffffffffffffffffffffffffffff1673ffffffffffffffffffffffffffffffffffffffff1673ffffffffffffffffffffffffffffffffffffffff1681526020016002820160149054906101000a900460ff16151515158152602001600382018054611a9990612bd5565b80601f0160208091040260200160405190810160405280929190818152602001828054611ac590612bd5565b8015611b125780601f10611ae757610100808354040283529160200191611b12565b820191906000526020600020905b815481529060010190602001808311611af557829003601f168201915b50505050508152602001600482018054611b2b90612bd5565b80601f0160208091040260200160405190810160405280929190818152602001828054611b5790612bd5565b8015611ba45780601f10611b7957610100808354040283529160200191611ba4565b820191906000526020600020905b815481529060010190602001808311611b8757829003601f168201915b505050505081526020016005820154815250509050919050565b3073ffffffffffffffffffffffffffffffffffffffff16631c5a9d9c826040518263ffffffff1660e01b8152600401611bf791906120e3565b600060405180830381600087803b158015611c1157600080fd5b505af1158015611c25573d6000803e3d6000fd5b5050505050565b606060028054611c3b90612bd5565b80601f0160208091040260200160405190810160405280929190818152602001828054611c6790612bd5565b8015611cb45780601f10611c8957610100808354040283529160200191611cb4565b820191906000526020600020905b815481529060010190602001808311611c9757829003601f168201915b5050505050905090565b6000805b600580549050811015611d39578260058281548110611ce457611ce361294d565b5b9060005260206000209060060201600001541415611d265760058181548110611d1057611d0f61294d565b5b9060005260206000209060060201915050611d75565b8080611d3190612a35565b915050611cc2565b506040517f08c379a0000000000000000000000000000000000000000000000000000000008152600401611d6c90612e75565b60405180910390fd5b919050565b816002811115611d8d57611d8c6122b0565b5b600760009054906101000a900460ff166002811115611daf57611dae6122b0565b5b14611e44573373ffffffffffffffffffffffffffffffffffffffff167ffc6f5e211098b443015ccb625104a41f61e97a80dd9b8734242a9a8c3eecc8dc600760009054906101000a900460ff168484604051611e0d93929190612e95565b60405180910390a281600760006101000a81548160ff02191690836002811115611e3a57611e396122b0565b5b0217905550611e7f565b6040517f08c379a0000000000000000000000000000000000000000000000000000000008152600401611e7690612f45565b60405180910390fd5b5050565b828054828255906000526020600020908101928215611ebf579160200282015b82811115611ebe578251825591602001919060010190611ea3565b5b509050611ecc919061200e565b5090565b828054828255906000526020600020908101928215611f0c579160200282015b82811115611f0b578251825591602001919060010190611ef0565b5b509050611f19919061200e565b5090565b828054611f2990612bd5565b90600052602060002090601f016020900481019282611f4b5760008555611f92565b82601f10611f6457805160ff1916838001178555611f92565b82800160010185558215611f92579182015b82811115611f91578251825591602001919060010190611f76565b5b509050611f9f919061200e565b5090565b6040518060e0016040528060008152602001600073ffffffffffffffffffffffffffffffffffffffff168152602001600073ffffffffffffffffffffffffffffffffffffffff1681526020016000151581526020016060815260200160608152602001600081525090565b5b8082111561202757600081600090555060010161200f565b5090565b6000604051905090565b600080fd5b600080fd5b6000819050919050565b6120528161203f565b811461205d57600080fd5b50565b60008135905061206f81612049565b92915050565b60006020828403121561208b5761208a612035565b5b600061209984828501612060565b91505092915050565b600073ffffffffffffffffffffffffffffffffffffffff82169050919050565b60006120cd826120a2565b9050919050565b6120dd816120c2565b82525050565b60006020820190506120f860008301846120d4565b92915050565b6121078161203f565b82525050565b600060208201905061212260008301846120fe565b92915050565b612131816120c2565b811461213c57600080fd5b50565b60008135905061214e81612128565b92915050565b6000806040838503121561216b5761216a612035565b5b60006121798582860161213f565b925050602061218a85828601612060565b9150509250929050565b600081519050919050565b600082825260208201905092915050565b60005b838110156121ce5780820151818401526020810190506121b3565b838111156121dd576000848401525b50505050565b6000601f19601f8301169050919050565b60006121ff82612194565b612209818561219f565b93506122198185602086016121b0565b612222816121e3565b840191505092915050565b6000602082019050818103600083015261224781846121f4565b905092915050565b60006020828403121561226557612264612035565b5b60006122738482850161213f565b91505092915050565b6000819050919050565b61228f8161227c565b82525050565b60006020820190506122aa6000830184612286565b92915050565b7f4e487b7100000000000000000000000000000000000000000000000000000000600052602160045260246000fd5b600381106122f0576122ef6122b0565b5b50565b6000819050612301826122df565b919050565b6000612311826122f3565b9050919050565b61232181612306565b82525050565b600060208201905061233c6000830184612318565b92915050565b60008115159050919050565b61235781612342565b82525050565b6000602082019050612372600083018461234e565b92915050565b600081519050919050565b600082825260208201905092915050565b6000819050602082019050919050565b6123ad8161203f565b82525050565b6123bc816120c2565b82525050565b6123cb81612342565b82525050565b600082825260208201905092915050565b60006123ed82612194565b6123f781856123d1565b93506124078185602086016121b0565b612410816121e3565b840191505092915050565b600060e08301600083015161243360008601826123a4565b50602083015161244660208601826123b3565b50604083015161245960408601826123b3565b50606083015161246c60608601826123c2565b506080830151848203608086015261248482826123e2565b91505060a083015184820360a086015261249e82826123e2565b91505060c08301516124b360c08601826123a4565b508091505092915050565b60006124ca838361241b565b905092915050565b6000602082019050919050565b60006124ea82612378565b6124f48185612383565b93508360208202850161250685612394565b8060005b85811015612542578484038952815161252385826124be565b945061252e836124d2565b925060208a0199505060018101905061250a565b50829750879550505050505092915050565b6000602082019050818103600083015261256e81846124df565b905092915050565b61257f81612342565b811461258a57600080fd5b50565b60008135905061259c81612576565b92915050565b600080fd5b600080fd5b7f4e487b7100000000000000000000000000000000000000000000000000000000600052604160045260246000fd5b6125e4826121e3565b810181811067ffffffffffffffff82111715612603576126026125ac565b5b80604052505050565b600061261661202b565b905061262282826125db565b919050565b600067ffffffffffffffff821115612642576126416125ac565b5b61264b826121e3565b9050602081019050919050565b82818337600083830152505050565b600061267a61267584612627565b61260c565b905082815260208101848484011115612696576126956125a7565b5b6126a1848285612658565b509392505050565b600082601f8301126126be576126bd6125a2565b5b81356126ce848260208601612667565b91505092915050565b600080600080600060a086880312156126f3576126f2612035565b5b60006127018882890161213f565b95505060206127128882890161213f565b94505060406127238882890161258d565b935050606086013567ffffffffffffffff8111156127445761274361203a565b5b612750888289016126a9565b925050608086013567ffffffffffffffff8111156127715761277061203a565b5b61277d888289016126a9565b9150509295509295909350565b600060e0830160008301516127a260008601826123a4565b5060208301516127b560208601826123b3565b5060408301516127c860408601826123b3565b5060608301516127db60608601826123c2565b50608083015184820360808601526127f382826123e2565b91505060a083015184820360a086015261280d82826123e2565b91505060c083015161282260c08601826123a4565b508091505092915050565b60006020820190508181036000830152612847818461278a565b905092915050565b7f54686520706f6c6c206d75737420626520696e20616e2061637469766520737460008201527f6174652e00000000000000000000000000000000000000000000000000000000602082015250565b60006128ab60248361219f565b91506128b68261284f565b604082019050919050565b600060208201905081810360008301526128da8161289e565b9050919050565b7f5573657220646964206e6f7420766f7465207965740000000000000000000000600082015250565b600061291760158361219f565b9150612922826128e1565b602082019050919050565b600060208201905081810360008301526129468161290a565b9050919050565b7f4e487b7100000000000000000000000000000000000000000000000000000000600052603260045260246000fd5b7f4e487b7100000000000000000000000000000000000000000000000000000000600052601160045260246000fd5b60006129b68261203f565b91506129c18361203f565b9250828210156129d4576129d361297c565b5b828203905092915050565b60006129ea8261203f565b91506129f58361203f565b9250827fffffffffffffffffffffffffffffffffffffffffffffffffffffffffffffffff03821115612a2a57612a2961297c565b5b828201905092915050565b6000612a408261203f565b91507fffffffffffffffffffffffffffffffffffffffffffffffffffffffffffffffff821415612a7357612a7261297c565b5b600182019050919050565b7f5573657220646964206e6f7420766f746520666f722074686973206f7074696f60008201527f6e207965742e0000000000000000000000000000000000000000000000000000602082015250565b6000612ada60268361219f565b9150612ae582612a7e565b604082019050919050565b60006020820190508181036000830152612b0981612acd565b9050919050565b6000612b1b8261203f565b91506000821415612b2f57612b2e61297c565b5b600182039050919050565b7f556e61626c6520746f2072656d6f766520766f74650000000000000000000000600082015250565b6000612b7060158361219f565b9150612b7b82612b3a565b602082019050919050565b60006020820190508181036000830152612b9f81612b63565b9050919050565b7f4e487b7100000000000000000000000000000000000000000000000000000000600052602260045260246000fd5b60006002820490506001821680612bed57607f821691505b60208210811415612c0157612c00612ba6565b5b50919050565b7f4f6e6c79206f776e6572732063616e2063616c6c20746869732066756e63746960008201527f6f6e000000000000000000000000000000000000000000000000000000000000602082015250565b6000612c6360228361219f565b9150612c6e82612c07565b604082019050919050565b60006020820190508181036000830152612c9281612c56565b9050919050565b7f506c656173652070726f7669646520776869636820766f74652073686f756c6460008201527f2062652072656d6f766564000000000000000000000000000000000000000000602082015250565b6000612cf5602b8361219f565b9150612d0082612c99565b604082019050919050565b60006020820190508181036000830152612d2481612ce8565b9050919050565b7f5573657220616c726561647920766f74656420666f722074686973206f70746960008201527f6f6e000000000000000000000000000000000000000000000000000000000000602082015250565b6000612d8760228361219f565b9150612d9282612d2b565b604082019050919050565b60006020820190508181036000830152612db681612d7a565b9050919050565b7f4f7074696f6e206973206e6f7420616374697665210000000000000000000000600082015250565b6000612df360158361219f565b9150612dfe82612dbd565b602082019050919050565b60006020820190508181036000830152612e2281612de6565b9050919050565b7f4e6f7420666f756e640000000000000000000000000000000000000000000000600082015250565b6000612e5f60098361219f565b9150612e6a82612e29565b602082019050919050565b60006020820190508181036000830152612e8e81612e52565b9050919050565b6000606082019050612eaa6000830186612318565b612eb76020830185612318565b8181036040830152612ec981846121f4565b9050949350505050565b7f5374617465206e6f74206368616e6765642e204e65772073746174652069732060008201527f7468652073616d65206173206f6c642073746174652100000000000000000000602082015250565b6000612f2f60368361219f565b9150612f3a82612ed3565b604082019050919050565b60006020820190508181036000830152612f5e81612f22565b905091905056fea264697066735822122058aad7758e7d25ae698e72ebd42bfbf39961975b12c969e8c6956bd0874e01eb64736f6c634300080c0033608060405234801561001057600080fd5b50610d38806100206000396000f3fe608060405234801561001057600080fd5b506004361061004c5760003560e01c80632c6e75981461005157806369f9ad2f14610081578063efc6c18c146100b1578063fd3bad52146100cf575b600080fd5b61006b600480360381019061006691906104df565b6100ff565b60405161007891906105a5565b60405180910390f35b61009b6004803603810190610096919061061f565b6103a4565b6040516100a8919061065b565b60405180910390f35b6100b96103ea565b6040516100c6919061068f565b60405180910390f35b6100e960048036038101906100e491906106e0565b61043e565b6040516100f6919061072f565b60405180910390f35b60606000602867ffffffffffffffff81111561011e5761011d61074a565b5b6040519080825280601f01601f1916602001820160405280156101505781602001600182028036833780820191505090505b50905060005b601481101561039a57600081601361016e91906107a8565b600861017a91906107dc565b60026101869190610969565b8573ffffffffffffffffffffffffffffffffffffffff166101a791906109e3565b60f81b9050600060108260f81c6101be9190610a21565b60f81b905060008160f81c60106101d59190610a52565b8360f81c6101e39190610a8d565b60f81b90503073ffffffffffffffffffffffffffffffffffffffff166369f9ad2f836040518263ffffffff1660e01b8152600401610221919061065b565b602060405180830381865afa15801561023e573d6000803e3d6000fd5b505050506040513d601f19601f820116820180604052508101906102629190610ad6565b8585600261027091906107dc565b8151811061028157610280610b03565b5b60200101907effffffffffffffffffffffffffffffffffffffffffffffffffffffffffffff1916908160001a9053503073ffffffffffffffffffffffffffffffffffffffff166369f9ad2f826040518263ffffffff1660e01b81526004016102e9919061065b565b602060405180830381865afa158015610306573d6000803e3d6000fd5b505050506040513d601f19601f8201168201806040525081019061032a9190610ad6565b85600186600261033a91906107dc565b6103449190610b32565b8151811061035557610354610b03565b5b60200101907effffffffffffffffffffffffffffffffffffffffffffffffffffffffffffff1916908160001a905350505050808061039290610b88565b915050610156565b5080915050919050565b6000600a8260f81c60ff1610156103cf5760308260f81c6103c59190610bd1565b60f81b90506103e5565b60578260f81c6103df9190610bd1565b60f81b90505b919050565b6000806000905060008142444160405160200161040a9493929190610c83565b6040516020818303038152906040528051906020012060001c9050818061043090610b88565b9250508060001b9250505090565b600080828461044d91906109e3565b90506000838561045d9190610cd1565b146104725760018161046f9190610b32565b90505b8091505092915050565b600080fd5b600073ffffffffffffffffffffffffffffffffffffffff82169050919050565b60006104ac82610481565b9050919050565b6104bc816104a1565b81146104c757600080fd5b50565b6000813590506104d9816104b3565b92915050565b6000602082840312156104f5576104f461047c565b5b6000610503848285016104ca565b91505092915050565b600081519050919050565b600082825260208201905092915050565b60005b8381101561054657808201518184015260208101905061052b565b83811115610555576000848401525b50505050565b6000601f19601f8301169050919050565b60006105778261050c565b6105818185610517565b9350610591818560208601610528565b61059a8161055b565b840191505092915050565b600060208201905081810360008301526105bf818461056c565b905092915050565b60007fff0000000000000000000000000000000000000000000000000000000000000082169050919050565b6105fc816105c7565b811461060757600080fd5b50565b600081359050610619816105f3565b92915050565b6000602082840312156106355761063461047c565b5b60006106438482850161060a565b91505092915050565b610655816105c7565b82525050565b6000602082019050610670600083018461064c565b92915050565b6000819050919050565b61068981610676565b82525050565b60006020820190506106a46000830184610680565b92915050565b6000819050919050565b6106bd816106aa565b81146106c857600080fd5b50565b6000813590506106da816106b4565b92915050565b600080604083850312156106f7576106f661047c565b5b6000610705858286016106cb565b9250506020610716858286016106cb565b9150509250929050565b610729816106aa565b82525050565b60006020820190506107446000830184610720565b92915050565b7f4e487b7100000000000000000000000000000000000000000000000000000000600052604160045260246000fd5b7f4e487b7100000000000000000000000000000000000000000000000000000000600052601160045260246000fd5b60006107b3826106aa565b91506107be836106aa565b9250828210156107d1576107d0610779565b5b828203905092915050565b60006107e7826106aa565b91506107f2836106aa565b9250817fffffffffffffffffffffffffffffffffffffffffffffffffffffffffffffffff048311821515161561082b5761082a610779565b5b828202905092915050565b60008160011c9050919050565b6000808291508390505b600185111561088d5780860481111561086957610868610779565b5b60018516156108785780820291505b808102905061088685610836565b945061084d565b94509492505050565b6000826108a65760019050610962565b816108b45760009050610962565b81600181146108ca57600281146108d457610903565b6001915050610962565b60ff8411156108e6576108e5610779565b5b8360020a9150848211156108fd576108fc610779565b5b50610962565b5060208310610133831016604e8410600b84101617156109385782820a90508381111561093357610932610779565b5b610962565b6109458484846001610843565b9250905081840481111561095c5761095b610779565b5b81810290505b9392505050565b6000610974826106aa565b915061097f836106aa565b92506109ac7fffffffffffffffffffffffffffffffffffffffffffffffffffffffffffffffff8484610896565b905092915050565b7f4e487b7100000000000000000000000000000000000000000000000000000000600052601260045260246000fd5b60006109ee826106aa565b91506109f9836106aa565b925082610a0957610a086109b4565b5b828204905092915050565b600060ff82169050919050565b6000610a2c82610a14565b9150610a3783610a14565b925082610a4757610a466109b4565b5b828204905092915050565b6000610a5d82610a14565b9150610a6883610a14565b92508160ff0483118215151615610a8257610a81610779565b5b828202905092915050565b6000610a9882610a14565b9150610aa383610a14565b925082821015610ab657610ab5610779565b5b828203905092915050565b600081519050610ad0816105f3565b92915050565b600060208284031215610aec57610aeb61047c565b5b6000610afa84828501610ac1565b91505092915050565b7f4e487b7100000000000000000000000000000000000000000000000000000000600052603260045260246000fd5b6000610b3d826106aa565b9150610b48836106aa565b9250827fffffffffffffffffffffffffffffffffffffffffffffffffffffffffffffffff03821115610b7d57610b7c610779565b5b828201905092915050565b6000610b93826106aa565b91507fffffffffffffffffffffffffffffffffffffffffffffffffffffffffffffffff821415610bc657610bc5610779565b5b600182019050919050565b6000610bdc82610a14565b9150610be783610a14565b92508260ff03821115610bfd57610bfc610779565b5b828201905092915050565b6000819050919050565b610c23610c1e826106aa565b610c08565b82525050565b6000610c3482610481565b9050919050565b60008160601b9050919050565b6000610c5382610c3b565b9050919050565b6000610c6582610c48565b9050919050565b610c7d610c7882610c29565b610c5a565b82525050565b6000610c8f8287610c12565b602082019150610c9f8286610c12565b602082019150610caf8285610c12565b602082019150610cbf8284610c6c565b60148201915081905095945050505050565b6000610cdc826106aa565b9150610ce7836106aa565b925082610cf757610cf66109b4565b5b82820690509291505056fea2646970667358221220afdabdb32a7fce47c4c67b84dd14c00ddd90189c2e876036d806ed9ae30bf64264736f6c634300080c0033608060405234801561001057600080fd5b50610d38806100206000396000f3fe608060405234801561001057600080fd5b506004361061004c5760003560e01c80632c6e75981461005157806369f9ad2f14610081578063efc6c18c146100b1578063fd3bad52146100cf575b600080fd5b61006b600480360381019061006691906104df565b6100ff565b60405161007891906105a5565b60405180910390f35b61009b6004803603810190610096919061061f565b6103a4565b6040516100a8919061065b565b60405180910390f35b6100b96103ea565b6040516100c6919061068f565b60405180910390f35b6100e960048036038101906100e491906106e0565b61043e565b6040516100f6919061072f565b60405180910390f35b60606000602867ffffffffffffffff81111561011e5761011d61074a565b5b6040519080825280601f01601f1916602001820160405280156101505781602001600182028036833780820191505090505b50905060005b601481101561039a57600081601361016e91906107a8565b600861017a91906107dc565b60026101869190610969565b8573ffffffffffffffffffffffffffffffffffffffff166101a791906109e3565b60f81b9050600060108260f81c6101be9190610a21565b60f81b905060008160f81c60106101d59190610a52565b8360f81c6101e39190610a8d565b60f81b90503073ffffffffffffffffffffffffffffffffffffffff166369f9ad2f836040518263ffffffff1660e01b8152600401610221919061065b565b602060405180830381865afa15801561023e573d6000803e3d6000fd5b505050506040513d601f19601f820116820180604052508101906102629190610ad6565b8585600261027091906107dc565b8151811061028157610280610b03565b5b60200101907effffffffffffffffffffffffffffffffffffffffffffffffffffffffffffff1916908160001a9053503073ffffffffffffffffffffffffffffffffffffffff166369f9ad2f826040518263ffffffff1660e01b81526004016102e9919061065b565b602060405180830381865afa158015610306573d6000803e3d6000fd5b505050506040513d601f19601f8201168201806040525081019061032a9190610ad6565b85600186600261033a91906107dc565b6103449190610b32565b8151811061035557610354610b03565b5b60200101907effffffffffffffffffffffffffffffffffffffffffffffffffffffffffffff1916908160001a905350505050808061039290610b88565b915050610156565b5080915050919050565b6000600a8260f81c60ff1610156103cf5760308260f81c6103c59190610bd1565b60f81b90506103e5565b60578260f81c6103df9190610bd1565b60f81b90505b919050565b6000806000905060008142444160405160200161040a9493929190610c83565b6040516020818303038152906040528051906020012060001c9050818061043090610b88565b9250508060001b9250505090565b600080828461044d91906109e3565b90506000838561045d9190610cd1565b146104725760018161046f9190610b32565b90505b8091505092915050565b600080fd5b600073ffffffffffffffffffffffffffffffffffffffff82169050919050565b60006104ac82610481565b9050919050565b6104bc816104a1565b81146104c757600080fd5b50565b6000813590506104d9816104b3565b92915050565b6000602082840312156104f5576104f461047c565b5b6000610503848285016104ca565b91505092915050565b600081519050919050565b600082825260208201905092915050565b60005b8381101561054657808201518184015260208101905061052b565b83811115610555576000848401525b50505050565b6000601f19601f8301169050919050565b60006105778261050c565b6105818185610517565b9350610591818560208601610528565b61059a8161055b565b840191505092915050565b600060208201905081810360008301526105bf818461056c565b905092915050565b60007fff0000000000000000000000000000000000000000000000000000000000000082169050919050565b6105fc816105c7565b811461060757600080fd5b50565b600081359050610619816105f3565b92915050565b6000602082840312156106355761063461047c565b5b60006106438482850161060a565b91505092915050565b610655816105c7565b82525050565b6000602082019050610670600083018461064c565b92915050565b6000819050919050565b61068981610676565b82525050565b60006020820190506106a46000830184610680565b92915050565b6000819050919050565b6106bd816106aa565b81146106c857600080fd5b50565b6000813590506106da816106b4565b92915050565b600080604083850312156106f7576106f661047c565b5b6000610705858286016106cb565b9250506020610716858286016106cb565b9150509250929050565b610729816106aa565b82525050565b60006020820190506107446000830184610720565b92915050565b7f4e487b7100000000000000000000000000000000000000000000000000000000600052604160045260246000fd5b7f4e487b7100000000000000000000000000000000000000000000000000000000600052601160045260246000fd5b60006107b3826106aa565b91506107be836106aa565b9250828210156107d1576107d0610779565b5b828203905092915050565b60006107e7826106aa565b91506107f2836106aa565b9250817fffffffffffffffffffffffffffffffffffffffffffffffffffffffffffffffff048311821515161561082b5761082a610779565b5b828202905092915050565b60008160011c9050919050565b6000808291508390505b600185111561088d5780860481111561086957610868610779565b5b60018516156108785780820291505b808102905061088685610836565b945061084d565b94509492505050565b6000826108a65760019050610962565b816108b45760009050610962565b81600181146108ca57600281146108d457610903565b6001915050610962565b60ff8411156108e6576108e5610779565b5b8360020a9150848211156108fd576108fc610779565b5b50610962565b5060208310610133831016604e8410600b84101617156109385782820a90508381111561093357610932610779565b5b610962565b6109458484846001610843565b9250905081840481111561095c5761095b610779565b5b81810290505b9392505050565b6000610974826106aa565b915061097f836106aa565b92506109ac7fffffffffffffffffffffffffffffffffffffffffffffffffffffffffffffffff8484610896565b905092915050565b7f4e487b7100000000000000000000000000000000000000000000000000000000600052601260045260246000fd5b60006109ee826106aa565b91506109f9836106aa565b925082610a0957610a086109b4565b5b828204905092915050565b600060ff82169050919050565b6000610a2c82610a14565b9150610a3783610a14565b925082610a4757610a466109b4565b5b828204905092915050565b6000610a5d82610a14565b9150610a6883610a14565b92508160ff0483118215151615610a8257610a81610779565b5b828202905092915050565b6000610a9882610a14565b9150610aa383610a14565b925082821015610ab657610ab5610779565b5b828203905092915050565b600081519050610ad0816105f3565b92915050565b600060208284031215610aec57610aeb61047c565b5b6000610afa84828501610ac1565b91505092915050565b7f4e487b7100000000000000000000000000000000000000000000000000000000600052603260045260246000fd5b6000610b3d826106aa565b9150610b48836106aa565b9250827fffffffffffffffffffffffffffffffffffffffffffffffffffffffffffffffff03821115610b7d57610b7c610779565b5b828201905092915050565b6000610b93826106aa565b91507fffffffffffffffffffffffffffffffffffffffffffffffffffffffffffffffff821415610bc657610bc5610779565b5b600182019050919050565b6000610bdc82610a14565b9150610be783610a14565b92508260ff03821115610bfd57610bfc610779565b5b828201905092915050565b6000819050919050565b610c23610c1e826106aa565b610c08565b82525050565b6000610c3482610481565b9050919050565b60008160601b9050919050565b6000610c5382610c3b565b9050919050565b6000610c6582610c48565b9050919050565b610c7d610c7882610c29565b610c5a565b82525050565b6000610c8f8287610c12565b602082019150610c9f8286610c12565b602082019150610caf8285610c12565b602082019150610cbf8284610c6c565b60148201915081905095945050505050565b6000610cdc826106aa565b9150610ce7836106aa565b925082610cf757610cf66109b4565b5b82820690509291505056fea2646970667358221220afdabdb32a7fce47c4c67b84dd14c00ddd90189c2e876036d806ed9ae30bf64264736f6c634300080c0033436f756e63696c2068617320617070726f76656420746865207265666572656e64756d21436f6e73756c746174696f6e2063616e63656c65643a20566f746572207475726e6f757420686173206265656e20746f6f20736d616c6c2141206e6577206c65616465727368697020626f6172642073686f756c6420626520696e7374697475746564a2646970667358221220fe9366ca5d65e4c140ab122aed62c4ed8ea8f49caf8cfc69821e8e2481fdafc464736f6c634300080c0033",
			"opcodes": "PUSH1 0x80 PUSH1 0x40 MSTORE PUSH1 0x1C PUSH1 0x2 SSTORE PUSH1 0x32 PUSH1 0x3 SSTORE PUSH1 0x1 PUSH1 0x4 SSTORE CALLVALUE DUP1 ISZERO PUSH2 0x1F JUMPI PUSH1 0x0 DUP1 REVERT JUMPDEST POP PUSH2 0xB68E DUP1 PUSH3 0x30 PUSH1 0x0 CODECOPY PUSH1 0x0 RETURN INVALID PUSH1 0x80 PUSH1 0x40 MSTORE CALLVALUE DUP1 ISZERO PUSH3 0x11 JUMPI PUSH1 0x0 DUP1 REVERT JUMPDEST POP PUSH1 0x4 CALLDATASIZE LT PUSH3 0x238 JUMPI PUSH1 0x0 CALLDATALOAD PUSH1 0xE0 SHR DUP1 PUSH4 0x96E3F4C5 GT PUSH3 0x135 JUMPI DUP1 PUSH4 0xC36E4E6C GT PUSH3 0xBD JUMPI DUP1 PUSH4 0xE53D8F1D GT PUSH3 0x87 JUMPI DUP1 PUSH4 0xE53D8F1D EQ PUSH3 0x5D9 JUMPI DUP1 PUSH4 0xED57BCB7 EQ PUSH3 0x5FB JUMPI DUP1 PUSH4 0xF53CABF6 EQ PUSH3 0x61D JUMPI DUP1 PUSH4 0xF7E5B82B EQ PUSH3 0x653 JUMPI DUP1 PUSH4 0xFD350B74 EQ PUSH3 0x675 JUMPI PUSH3 0x238 JUMP JUMPDEST DUP1 PUSH4 0xC36E4E6C EQ PUSH3 0x553 JUMPI DUP1 PUSH4 0xD0F3725F EQ PUSH3 0x589 JUMPI DUP1 PUSH4 0xDEFB4DD6 EQ PUSH3 0x5AB JUMPI DUP1 PUSH4 0xE1346655 EQ PUSH3 0x5CD JUMPI PUSH3 0x238 JUMP JUMPDEST DUP1 PUSH4 0xBEA3FF44 GT PUSH3 0xFF JUMPI DUP1 PUSH4 0xBEA3FF44 EQ PUSH3 0x4A3 JUMPI DUP1 PUSH4 0xC026A05E EQ PUSH3 0x4D9 JUMPI DUP1 PUSH4 0xC19D93FB EQ PUSH3 0x4FB JUMPI DUP1 PUSH4 0xC2E862B4 EQ PUSH3 0x51D JUMPI PUSH3 0x238 JUMP JUMPDEST DUP1 PUSH4 0x96E3F4C5 EQ PUSH3 0x41D JUMPI DUP1 PUSH4 0x9C162409 EQ PUSH3 0x43F JUMPI DUP1 PUSH4 0xA49DA4B3 EQ PUSH3 0x45F JUMPI DUP1 PUSH4 0xADA89616 EQ PUSH3 0x481 JUMPI PUSH3 0x238 JUMP JUMPDEST DUP1 PUSH4 0x49AA4EE2 GT PUSH3 0x1C5 JUMPI DUP1 PUSH4 0x6C6C32D0 GT PUSH3 0x18F JUMPI DUP1 PUSH4 0x6C6C32D0 EQ PUSH3 0x3A3 JUMPI DUP1 PUSH4 0x7AA485D0 EQ PUSH3 0x3AF JUMPI DUP1 PUSH4 0x7DD4A945 EQ PUSH3 0x3CF JUMPI DUP1 PUSH4 0x7FE63D70 EQ PUSH3 0x3DB JUMPI DUP1 PUSH4 0x90173864 EQ PUSH3 0x411 JUMPI PUSH3 0x238 JUMP JUMPDEST DUP1 PUSH4 0x49AA4EE2 EQ PUSH3 0x347 JUMPI DUP1 PUSH4 0x58E549F0 EQ PUSH3 0x353 JUMPI DUP1 PUSH4 0x62D73EB8 EQ PUSH3 0x375 JUMPI DUP1 PUSH4 0x687B995D EQ PUSH3 0x381 JUMPI PUSH3 0x238 JUMP JUMPDEST DUP1 PUSH4 0x2FD0D870 GT PUSH3 0x207 JUMPI DUP1 PUSH4 0x2FD0D870 EQ PUSH3 0x2C3 JUMPI DUP1 PUSH4 0x36C8C5EE EQ PUSH3 0x2E5 JUMPI DUP1 PUSH4 0x3ACD75F8 EQ PUSH3 0x305 JUMPI DUP1 PUSH4 0x3E422F5F EQ PUSH3 0x325 JUMPI PUSH3 0x238 JUMP JUMPDEST DUP1 PUSH4 0x25E7C27 EQ PUSH3 0x23D JUMPI DUP1 PUSH4 0x107D4035 EQ PUSH3 0x273 JUMPI DUP1 PUSH4 0x159E7064 EQ PUSH3 0x27F JUMPI DUP1 PUSH4 0x1F164AA7 EQ PUSH3 0x2A1 JUMPI JUMPDEST PUSH1 0x0 DUP1 REVERT JUMPDEST PUSH3 0x25B PUSH1 0x4 DUP1 CALLDATASIZE SUB DUP2 ADD SWAP1 PUSH3 0x255 SWAP2 SWAP1 PUSH3 0x4249 JUMP JUMPDEST PUSH3 0x681 JUMP JUMPDEST PUSH1 0x40 MLOAD PUSH3 0x26A SWAP2 SWAP1 PUSH3 0x42C0 JUMP JUMPDEST PUSH1 0x40 MLOAD DUP1 SWAP2 SUB SWAP1 RETURN JUMPDEST PUSH3 0x27D PUSH3 0x6C1 JUMP JUMPDEST STOP JUMPDEST PUSH3 0x289 PUSH3 0x852 JUMP JUMPDEST PUSH1 0x40 MLOAD PUSH3 0x298 SWAP2 SWAP1 PUSH3 0x42FA JUMP JUMPDEST PUSH1 0x40 MLOAD DUP1 SWAP2 SUB SWAP1 RETURN JUMPDEST PUSH3 0x2AB PUSH3 0xA65 JUMP JUMPDEST PUSH1 0x40 MLOAD PUSH3 0x2BA SWAP2 SWAP1 PUSH3 0x456F JUMP JUMPDEST PUSH1 0x40 MLOAD DUP1 SWAP2 SUB SWAP1 RETURN JUMPDEST PUSH3 0x2CD PUSH3 0xB05 JUMP JUMPDEST PUSH1 0x40 MLOAD PUSH3 0x2DC SWAP2 SWAP1 PUSH3 0x45A4 JUMP JUMPDEST PUSH1 0x40 MLOAD DUP1 SWAP2 SUB SWAP1 RETURN JUMPDEST PUSH3 0x303 PUSH1 0x4 DUP1 CALLDATASIZE SUB DUP2 ADD SWAP1 PUSH3 0x2FD SWAP2 SWAP1 PUSH3 0x4249 JUMP JUMPDEST PUSH3 0xBA0 JUMP JUMPDEST STOP JUMPDEST PUSH3 0x323 PUSH1 0x4 DUP1 CALLDATASIZE SUB DUP2 ADD SWAP1 PUSH3 0x31D SWAP2 SWAP1 PUSH3 0x45F2 JUMP JUMPDEST PUSH3 0xCE5 JUMP JUMPDEST STOP JUMPDEST PUSH3 0x32F PUSH3 0xF78 JUMP JUMPDEST PUSH1 0x40 MLOAD PUSH3 0x33E SWAP2 SWAP1 PUSH3 0x46A4 JUMP JUMPDEST PUSH1 0x40 MLOAD DUP1 SWAP2 SUB SWAP1 RETURN JUMPDEST PUSH3 0x351 PUSH3 0xF8B JUMP JUMPDEST STOP JUMPDEST PUSH3 0x35D PUSH3 0x10BC JUMP JUMPDEST PUSH1 0x40 MLOAD PUSH3 0x36C SWAP2 SWAP1 PUSH3 0x42FA JUMP JUMPDEST PUSH1 0x40 MLOAD DUP1 SWAP2 SUB SWAP1 RETURN JUMPDEST PUSH3 0x37F PUSH3 0x12CF JUMP JUMPDEST STOP JUMPDEST PUSH3 0x38B PUSH3 0x14FB JUMP JUMPDEST PUSH1 0x40 MLOAD PUSH3 0x39A SWAP2 SWAP1 PUSH3 0x456F JUMP JUMPDEST PUSH1 0x40 MLOAD DUP1 SWAP2 SUB SWAP1 RETURN JUMPDEST PUSH3 0x3AD PUSH3 0x16A3 JUMP JUMPDEST STOP JUMPDEST PUSH3 0x3CD PUSH1 0x4 DUP1 CALLDATASIZE SUB DUP2 ADD SWAP1 PUSH3 0x3C7 SWAP2 SWAP1 PUSH3 0x4249 JUMP JUMPDEST PUSH3 0x1834 JUMP JUMPDEST STOP JUMPDEST PUSH3 0x3D9 PUSH3 0x1968 JUMP JUMPDEST STOP JUMPDEST PUSH3 0x3F9 PUSH1 0x4 DUP1 CALLDATASIZE SUB DUP2 ADD SWAP1 PUSH3 0x3F3 SWAP2 SWAP1 PUSH3 0x4825 JUMP JUMPDEST PUSH3 0x1FC8 JUMP JUMPDEST PUSH1 0x40 MLOAD PUSH3 0x408 SWAP2 SWAP1 PUSH3 0x42FA JUMP JUMPDEST PUSH1 0x40 MLOAD DUP1 SWAP2 SUB SWAP1 RETURN JUMPDEST PUSH3 0x41B PUSH3 0x20C4 JUMP JUMPDEST STOP JUMPDEST PUSH3 0x427 PUSH3 0x22E5 JUMP JUMPDEST PUSH1 0x40 MLOAD PUSH3 0x436 SWAP2 SWAP1 PUSH3 0x42FA JUMP JUMPDEST PUSH1 0x40 MLOAD DUP1 SWAP2 SUB SWAP1 RETURN JUMPDEST PUSH3 0x45D PUSH1 0x4 DUP1 CALLDATASIZE SUB DUP2 ADD SWAP1 PUSH3 0x457 SWAP2 SWAP1 PUSH3 0x4249 JUMP JUMPDEST PUSH3 0x23BF JUMP JUMPDEST STOP JUMPDEST PUSH3 0x469 PUSH3 0x2504 JUMP JUMPDEST PUSH1 0x40 MLOAD PUSH3 0x478 SWAP2 SWAP1 PUSH3 0x45A4 JUMP JUMPDEST PUSH1 0x40 MLOAD DUP1 SWAP2 SUB SWAP1 RETURN JUMPDEST PUSH3 0x48B PUSH3 0x250A JUMP JUMPDEST PUSH1 0x40 MLOAD PUSH3 0x49A SWAP2 SWAP1 PUSH3 0x42FA JUMP JUMPDEST PUSH1 0x40 MLOAD DUP1 SWAP2 SUB SWAP1 RETURN JUMPDEST PUSH3 0x4C1 PUSH1 0x4 DUP1 CALLDATASIZE SUB DUP2 ADD SWAP1 PUSH3 0x4BB SWAP2 SWAP1 PUSH3 0x45F2 JUMP JUMPDEST PUSH3 0x271D JUMP JUMPDEST PUSH1 0x40 MLOAD PUSH3 0x4D0 SWAP2 SWAP1 PUSH3 0x42FA JUMP JUMPDEST PUSH1 0x40 MLOAD DUP1 SWAP2 SUB SWAP1 RETURN JUMPDEST PUSH3 0x4E3 PUSH3 0x284C JUMP JUMPDEST PUSH1 0x40 MLOAD PUSH3 0x4F2 SWAP2 SWAP1 PUSH3 0x456F JUMP JUMPDEST PUSH1 0x40 MLOAD DUP1 SWAP2 SUB SWAP1 RETURN JUMPDEST PUSH3 0x505 PUSH3 0x29CB JUMP JUMPDEST PUSH1 0x40 MLOAD PUSH3 0x514 SWAP2 SWAP1 PUSH3 0x48C7 JUMP JUMPDEST PUSH1 0x40 MLOAD DUP1 SWAP2 SUB SWAP1 RETURN JUMPDEST PUSH3 0x53B PUSH1 0x4 DUP1 CALLDATASIZE SUB DUP2 ADD SWAP1 PUSH3 0x535 SWAP2 SWAP1 PUSH3 0x4249 JUMP JUMPDEST PUSH3 0x29DE JUMP JUMPDEST PUSH1 0x40 MLOAD PUSH3 0x54A SWAP2 SWAP1 PUSH3 0x42C0 JUMP JUMPDEST PUSH1 0x40 MLOAD DUP1 SWAP2 SUB SWAP1 RETURN JUMPDEST PUSH3 0x571 PUSH1 0x4 DUP1 CALLDATASIZE SUB DUP2 ADD SWAP1 PUSH3 0x56B SWAP2 SWAP1 PUSH3 0x4825 JUMP JUMPDEST PUSH3 0x2A1E JUMP JUMPDEST PUSH1 0x40 MLOAD PUSH3 0x580 SWAP2 SWAP1 PUSH3 0x42FA JUMP JUMPDEST PUSH1 0x40 MLOAD DUP1 SWAP2 SUB SWAP1 RETURN JUMPDEST PUSH3 0x593 PUSH3 0x2B1A JUMP JUMPDEST PUSH1 0x40 MLOAD PUSH3 0x5A2 SWAP2 SWAP1 PUSH3 0x42FA JUMP JUMPDEST PUSH1 0x40 MLOAD DUP1 SWAP2 SUB SWAP1 RETURN JUMPDEST PUSH3 0x5B5 PUSH3 0x2BDB JUMP JUMPDEST PUSH1 0x40 MLOAD PUSH3 0x5C4 SWAP2 SWAP1 PUSH3 0x45A4 JUMP JUMPDEST PUSH1 0x40 MLOAD DUP1 SWAP2 SUB SWAP1 RETURN JUMPDEST PUSH3 0x5D7 PUSH3 0x2CA3 JUMP JUMPDEST STOP JUMPDEST PUSH3 0x5E3 PUSH3 0x2FB4 JUMP JUMPDEST PUSH1 0x40 MLOAD PUSH3 0x5F2 SWAP2 SWAP1 PUSH3 0x42FA JUMP JUMPDEST PUSH1 0x40 MLOAD DUP1 SWAP2 SUB SWAP1 RETURN JUMPDEST PUSH3 0x605 PUSH3 0x2FDB JUMP JUMPDEST PUSH1 0x40 MLOAD PUSH3 0x614 SWAP2 SWAP1 PUSH3 0x456F JUMP JUMPDEST PUSH1 0x40 MLOAD DUP1 SWAP2 SUB SWAP1 RETURN JUMPDEST PUSH3 0x63B PUSH1 0x4 DUP1 CALLDATASIZE SUB DUP2 ADD SWAP1 PUSH3 0x635 SWAP2 SWAP1 PUSH3 0x4825 JUMP JUMPDEST PUSH3 0x30FE JUMP JUMPDEST PUSH1 0x40 MLOAD PUSH3 0x64A SWAP2 SWAP1 PUSH3 0x42FA JUMP JUMPDEST PUSH1 0x40 MLOAD DUP1 SWAP2 SUB SWAP1 RETURN JUMPDEST PUSH3 0x65D PUSH3 0x31FA JUMP JUMPDEST PUSH1 0x40 MLOAD PUSH3 0x66C SWAP2 SWAP1 PUSH3 0x456F JUMP JUMPDEST PUSH1 0x40 MLOAD DUP1 SWAP2 SUB SWAP1 RETURN JUMPDEST PUSH3 0x67F PUSH3 0x3455 JUMP JUMPDEST STOP JUMPDEST PUSH1 0x0 DUP2 DUP2 SLOAD DUP2 LT PUSH3 0x692 JUMPI PUSH1 0x0 DUP1 REVERT JUMPDEST SWAP1 PUSH1 0x0 MSTORE PUSH1 0x20 PUSH1 0x0 KECCAK256 ADD PUSH1 0x0 SWAP2 POP SLOAD SWAP1 PUSH2 0x100 EXP SWAP1 DIV PUSH20 0xFFFFFFFFFFFFFFFFFFFFFFFFFFFFFFFFFFFFFFFF AND DUP2 JUMP JUMPDEST PUSH1 0x6 PUSH1 0x3 SWAP1 SLOAD SWAP1 PUSH2 0x100 EXP SWAP1 DIV PUSH20 0xFFFFFFFFFFFFFFFFFFFFFFFFFFFFFFFFFFFFFFFF AND PUSH20 0xFFFFFFFFFFFFFFFFFFFFFFFFFFFFFFFFFFFFFFFF AND PUSH4 0xFA4D7AAE CALLER PUSH1 0x40 MLOAD DUP3 PUSH4 0xFFFFFFFF AND PUSH1 0xE0 SHL DUP2 MSTORE PUSH1 0x4 ADD PUSH3 0x71E SWAP2 SWAP1 PUSH3 0x42C0 JUMP JUMPDEST PUSH1 0x20 PUSH1 0x40 MLOAD DUP1 DUP4 SUB DUP2 DUP7 GAS STATICCALL ISZERO DUP1 ISZERO PUSH3 0x73C JUMPI RETURNDATASIZE PUSH1 0x0 DUP1 RETURNDATACOPY RETURNDATASIZE PUSH1 0x0 REVERT JUMPDEST POP POP POP POP PUSH1 0x40 MLOAD RETURNDATASIZE PUSH1 0x1F NOT PUSH1 0x1F DUP3 ADD AND DUP3 ADD DUP1 PUSH1 0x40 MSTORE POP DUP2 ADD SWAP1 PUSH3 0x762 SWAP2 SWAP1 PUSH3 0x4915 JUMP JUMPDEST PUSH3 0x7A4 JUMPI PUSH1 0x40 MLOAD PUSH32 0x8C379A000000000000000000000000000000000000000000000000000000000 DUP2 MSTORE PUSH1 0x4 ADD PUSH3 0x79B SWAP1 PUSH3 0x49CE JUMP JUMPDEST PUSH1 0x40 MLOAD DUP1 SWAP2 SUB SWAP1 REVERT JUMPDEST PUSH1 0x0 PUSH1 0x5 DUP2 GT ISZERO PUSH3 0x7BB JUMPI PUSH3 0x7BA PUSH3 0x4624 JUMP JUMPDEST JUMPDEST PUSH1 0x6 PUSH1 0x1 SWAP1 SLOAD SWAP1 PUSH2 0x100 EXP SWAP1 DIV PUSH1 0xFF AND PUSH1 0x5 DUP2 GT ISZERO PUSH3 0x7E0 JUMPI PUSH3 0x7DF PUSH3 0x4624 JUMP JUMPDEST JUMPDEST EQ ISZERO PUSH3 0x813 JUMPI PUSH3 0x80D PUSH1 0x1 PUSH1 0x40 MLOAD DUP1 PUSH1 0x60 ADD PUSH1 0x40 MSTORE DUP1 PUSH1 0x24 DUP2 MSTORE PUSH1 0x20 ADD PUSH3 0xB5D2 PUSH1 0x24 SWAP2 CODECOPY PUSH3 0x38DF JUMP JUMPDEST PUSH3 0x850 JUMP JUMPDEST PUSH1 0x40 MLOAD PUSH32 0x8C379A000000000000000000000000000000000000000000000000000000000 DUP2 MSTORE PUSH1 0x4 ADD PUSH3 0x847 SWAP1 PUSH3 0x4A8C JUMP JUMPDEST PUSH1 0x40 MLOAD DUP1 SWAP2 SUB SWAP1 REVERT JUMPDEST JUMP JUMPDEST PUSH1 0x0 DUP1 CALLER SWAP1 POP PUSH1 0x6 PUSH1 0x3 SWAP1 SLOAD SWAP1 PUSH2 0x100 EXP SWAP1 DIV PUSH20 0xFFFFFFFFFFFFFFFFFFFFFFFFFFFFFFFFFFFFFFFF AND PUSH20 0xFFFFFFFFFFFFFFFFFFFFFFFFFFFFFFFFFFFFFFFF AND PUSH4 0x56909B7 DUP3 PUSH1 0x40 MLOAD DUP3 PUSH4 0xFFFFFFFF AND PUSH1 0xE0 SHL DUP2 MSTORE PUSH1 0x4 ADD PUSH3 0x8B5 SWAP2 SWAP1 PUSH3 0x42C0 JUMP JUMPDEST PUSH1 0x20 PUSH1 0x40 MLOAD DUP1 DUP4 SUB DUP2 DUP7 GAS STATICCALL ISZERO DUP1 ISZERO PUSH3 0x8D3 JUMPI RETURNDATASIZE PUSH1 0x0 DUP1 RETURNDATACOPY RETURNDATASIZE PUSH1 0x0 REVERT JUMPDEST POP POP POP POP PUSH1 0x40 MLOAD RETURNDATASIZE PUSH1 0x1F NOT PUSH1 0x1F DUP3 ADD AND DUP3 ADD DUP1 PUSH1 0x40 MSTORE POP DUP2 ADD SWAP1 PUSH3 0x8F9 SWAP2 SWAP1 PUSH3 0x4915 JUMP JUMPDEST DUP1 PUSH3 0x9A2 JUMPI POP PUSH1 0x6 PUSH1 0x3 SWAP1 SLOAD SWAP1 PUSH2 0x100 EXP SWAP1 DIV PUSH20 0xFFFFFFFFFFFFFFFFFFFFFFFFFFFFFFFFFFFFFFFF AND PUSH20 0xFFFFFFFFFFFFFFFFFFFFFFFFFFFFFFFFFFFFFFFF AND PUSH4 0xFA4D7AAE DUP3 PUSH1 0x40 MLOAD DUP3 PUSH4 0xFFFFFFFF AND PUSH1 0xE0 SHL DUP2 MSTORE PUSH1 0x4 ADD PUSH3 0x95D SWAP2 SWAP1 PUSH3 0x42C0 JUMP JUMPDEST PUSH1 0x20 PUSH1 0x40 MLOAD DUP1 DUP4 SUB DUP2 DUP7 GAS STATICCALL ISZERO DUP1 ISZERO PUSH3 0x97B JUMPI RETURNDATASIZE PUSH1 0x0 DUP1 RETURNDATACOPY RETURNDATASIZE PUSH1 0x0 REVERT JUMPDEST POP POP POP POP PUSH1 0x40 MLOAD RETURNDATASIZE PUSH1 0x1F NOT PUSH1 0x1F DUP3 ADD AND DUP3 ADD DUP1 PUSH1 0x40 MSTORE POP DUP2 ADD SWAP1 PUSH3 0x9A1 SWAP2 SWAP1 PUSH3 0x4915 JUMP JUMPDEST JUMPDEST DUP1 PUSH3 0xA4B JUMPI POP PUSH1 0x6 PUSH1 0x3 SWAP1 SLOAD SWAP1 PUSH2 0x100 EXP SWAP1 DIV PUSH20 0xFFFFFFFFFFFFFFFFFFFFFFFFFFFFFFFFFFFFFFFF AND PUSH20 0xFFFFFFFFFFFFFFFFFFFFFFFFFFFFFFFFFFFFFFFF AND PUSH4 0x297027D5 DUP3 PUSH1 0x40 MLOAD DUP3 PUSH4 0xFFFFFFFF AND PUSH1 0xE0 SHL DUP2 MSTORE PUSH1 0x4 ADD PUSH3 0xA06 SWAP2 SWAP1 PUSH3 0x42C0 JUMP JUMPDEST PUSH1 0x20 PUSH1 0x40 MLOAD DUP1 DUP4 SUB DUP2 DUP7 GAS STATICCALL ISZERO DUP1 ISZERO PUSH3 0xA24 JUMPI RETURNDATASIZE PUSH1 0x0 DUP1 RETURNDATACOPY RETURNDATASIZE PUSH1 0x0 REVERT JUMPDEST POP POP POP POP PUSH1 0x40 MLOAD RETURNDATASIZE PUSH1 0x1F NOT PUSH1 0x1F DUP3 ADD AND DUP3 ADD DUP1 PUSH1 0x40 MSTORE POP DUP2 ADD SWAP1 PUSH3 0xA4A SWAP2 SWAP1 PUSH3 0x4915 JUMP JUMPDEST JUMPDEST ISZERO PUSH3 0xA5C JUMPI PUSH1 0x1 SWAP2 POP POP PUSH3 0xA62 JUMP JUMPDEST PUSH1 0x0 SWAP2 POP POP JUMPDEST SWAP1 JUMP JUMPDEST PUSH1 0x60 PUSH1 0x7 PUSH1 0x0 SWAP1 SLOAD SWAP1 PUSH2 0x100 EXP SWAP1 DIV PUSH20 0xFFFFFFFFFFFFFFFFFFFFFFFFFFFFFFFFFFFFFFFF AND PUSH20 0xFFFFFFFFFFFFFFFFFFFFFFFFFFFFFFFFFFFFFFFF AND PUSH4 0xCC2EE196 PUSH1 0x40 MLOAD DUP2 PUSH4 0xFFFFFFFF AND PUSH1 0xE0 SHL DUP2 MSTORE PUSH1 0x4 ADD PUSH1 0x0 PUSH1 0x40 MLOAD DUP1 DUP4 SUB DUP2 DUP7 GAS STATICCALL ISZERO DUP1 ISZERO PUSH3 0xAD5 JUMPI RETURNDATASIZE PUSH1 0x0 DUP1 RETURNDATACOPY RETURNDATASIZE PUSH1 0x0 REVERT JUMPDEST POP POP POP POP PUSH1 0x40 MLOAD RETURNDATASIZE PUSH1 0x0 DUP3 RETURNDATACOPY RETURNDATASIZE PUSH1 0x1F NOT PUSH1 0x1F DUP3 ADD AND DUP3 ADD DUP1 PUSH1 0x40 MSTORE POP DUP2 ADD SWAP1 PUSH3 0xB00 SWAP2 SWAP1 PUSH3 0x4D9B JUMP JUMPDEST SWAP1 POP SWAP1 JUMP JUMPDEST PUSH1 0x0 PUSH1 0x7 PUSH1 0x0 SWAP1 SLOAD SWAP1 PUSH2 0x100 EXP SWAP1 DIV PUSH20 0xFFFFFFFFFFFFFFFFFFFFFFFFFFFFFFFFFFFFFFFF AND PUSH20 0xFFFFFFFFFFFFFFFFFFFFFFFFFFFFFFFFFFFFFFFF AND PUSH4 0x11174A29 PUSH1 0x40 MLOAD DUP2 PUSH4 0xFFFFFFFF AND PUSH1 0xE0 SHL DUP2 MSTORE PUSH1 0x4 ADD PUSH1 0x20 PUSH1 0x40 MLOAD DUP1 DUP4 SUB DUP2 DUP7 GAS STATICCALL ISZERO DUP1 ISZERO PUSH3 0xB75 JUMPI RETURNDATASIZE PUSH1 0x0 DUP1 RETURNDATACOPY RETURNDATASIZE PUSH1 0x0 REVERT JUMPDEST POP POP POP POP PUSH1 0x40 MLOAD RETURNDATASIZE PUSH1 0x1F NOT PUSH1 0x1F DUP3 ADD AND DUP3 ADD DUP1 PUSH1 0x40 MSTORE POP DUP2 ADD SWAP1 PUSH3 0xB9B SWAP2 SWAP1 PUSH3 0x4DEC JUMP JUMPDEST SWAP1 POP SWAP1 JUMP JUMPDEST PUSH1 0x0 PUSH1 0x2 PUSH1 0x5 DUP2 GT ISZERO PUSH3 0xBB9 JUMPI PUSH3 0xBB8 PUSH3 0x4624 JUMP JUMPDEST JUMPDEST PUSH1 0x6 PUSH1 0x1 SWAP1 SLOAD SWAP1 PUSH2 0x100 EXP SWAP1 DIV PUSH1 0xFF AND PUSH1 0x5 DUP2 GT ISZERO PUSH3 0xBDE JUMPI PUSH3 0xBDD PUSH3 0x4624 JUMP JUMPDEST JUMPDEST EQ ISZERO PUSH3 0xBFA JUMPI PUSH3 0xBEF PUSH3 0x22E5 JUMP JUMPDEST PUSH3 0xBF9 JUMPI PUSH1 0x1 SWAP1 POP JUMPDEST JUMPDEST DUP1 PUSH3 0xC3D JUMPI PUSH1 0x40 MLOAD PUSH32 0x8C379A000000000000000000000000000000000000000000000000000000000 DUP2 MSTORE PUSH1 0x4 ADD PUSH3 0xC34 SWAP1 PUSH3 0x4E94 JUMP JUMPDEST PUSH1 0x40 MLOAD DUP1 SWAP2 SUB SWAP1 REVERT JUMPDEST PUSH3 0xC47 PUSH3 0x852 JUMP JUMPDEST ISZERO PUSH3 0xCE1 JUMPI PUSH1 0x8 PUSH1 0x0 SWAP1 SLOAD SWAP1 PUSH2 0x100 EXP SWAP1 DIV PUSH20 0xFFFFFFFFFFFFFFFFFFFFFFFFFFFFFFFFFFFFFFFF AND PUSH20 0xFFFFFFFFFFFFFFFFFFFFFFFFFFFFFFFFFFFFFFFF AND PUSH4 0x44D5E03C CALLER DUP5 PUSH1 0x40 MLOAD DUP4 PUSH4 0xFFFFFFFF AND PUSH1 0xE0 SHL DUP2 MSTORE PUSH1 0x4 ADD PUSH3 0xCAC SWAP3 SWAP2 SWAP1 PUSH3 0x4EB6 JUMP JUMPDEST PUSH1 0x0 PUSH1 0x40 MLOAD DUP1 DUP4 SUB DUP2 PUSH1 0x0 DUP8 DUP1 EXTCODESIZE ISZERO DUP1 ISZERO PUSH3 0xCC7 JUMPI PUSH1 0x0 DUP1 REVERT JUMPDEST POP GAS CALL ISZERO DUP1 ISZERO PUSH3 0xCDC JUMPI RETURNDATASIZE PUSH1 0x0 DUP1 RETURNDATACOPY RETURNDATASIZE PUSH1 0x0 REVERT JUMPDEST POP POP POP POP JUMPDEST POP POP JUMP JUMPDEST PUSH1 0x0 DUP1 PUSH1 0x5 DUP2 GT ISZERO PUSH3 0xCFD JUMPI PUSH3 0xCFC PUSH3 0x4624 JUMP JUMPDEST JUMPDEST PUSH1 0x6 PUSH1 0x1 SWAP1 SLOAD SWAP1 PUSH2 0x100 EXP SWAP1 DIV PUSH1 0xFF AND PUSH1 0x5 DUP2 GT ISZERO PUSH3 0xD22 JUMPI PUSH3 0xD21 PUSH3 0x4624 JUMP JUMPDEST JUMPDEST EQ ISZERO PUSH3 0xD3E JUMPI PUSH3 0xD33 PUSH3 0x22E5 JUMP JUMPDEST PUSH3 0xD3D JUMPI PUSH1 0x1 SWAP1 POP JUMPDEST JUMPDEST DUP1 PUSH3 0xD81 JUMPI PUSH1 0x40 MLOAD PUSH32 0x8C379A000000000000000000000000000000000000000000000000000000000 DUP2 MSTORE PUSH1 0x4 ADD PUSH3 0xD78 SWAP1 PUSH3 0x4F59 JUMP JUMPDEST PUSH1 0x40 MLOAD DUP1 SWAP2 SUB SWAP1 REVERT JUMPDEST PUSH3 0xD8B PUSH3 0x10BC JUMP JUMPDEST ISZERO PUSH3 0xF37 JUMPI PUSH3 0xD9C DUP3 PUSH3 0x271D JUMP JUMPDEST PUSH3 0xEF4 JUMPI PUSH1 0x0 PUSH1 0x6 PUSH1 0x3 SWAP1 SLOAD SWAP1 PUSH2 0x100 EXP SWAP1 DIV PUSH20 0xFFFFFFFFFFFFFFFFFFFFFFFFFFFFFFFFFFFFFFFF AND PUSH20 0xFFFFFFFFFFFFFFFFFFFFFFFFFFFFFFFFFFFFFFFF AND PUSH4 0x6F77926B DUP5 PUSH1 0x40 MLOAD DUP3 PUSH4 0xFFFFFFFF AND PUSH1 0xE0 SHL DUP2 MSTORE PUSH1 0x4 ADD PUSH3 0xE00 SWAP2 SWAP1 PUSH3 0x42C0 JUMP JUMPDEST PUSH1 0x0 PUSH1 0x40 MLOAD DUP1 DUP4 SUB DUP2 DUP7 GAS STATICCALL ISZERO DUP1 ISZERO PUSH3 0xE1E JUMPI RETURNDATASIZE PUSH1 0x0 DUP1 RETURNDATACOPY RETURNDATASIZE PUSH1 0x0 REVERT JUMPDEST POP POP POP POP PUSH1 0x40 MLOAD RETURNDATASIZE PUSH1 0x0 DUP3 RETURNDATACOPY RETURNDATASIZE PUSH1 0x1F NOT PUSH1 0x1F DUP3 ADD AND DUP3 ADD DUP1 PUSH1 0x40 MSTORE POP DUP2 ADD SWAP1 PUSH3 0xE49 SWAP2 SWAP1 PUSH3 0x510F JUMP JUMPDEST SWAP1 POP PUSH1 0x7 PUSH1 0x0 SWAP1 SLOAD SWAP1 PUSH2 0x100 EXP SWAP1 DIV PUSH20 0xFFFFFFFFFFFFFFFFFFFFFFFFFFFFFFFFFFFFFFFF AND PUSH20 0xFFFFFFFFFFFFFFFFFFFFFFFFFFFFFFFFFFFFFFFF AND PUSH4 0xDFECF96B CALLER DUP6 PUSH1 0x0 DUP6 PUSH1 0x20 ADD MLOAD DUP7 PUSH1 0x40 ADD MLOAD PUSH1 0x40 MLOAD DUP7 PUSH4 0xFFFFFFFF AND PUSH1 0xE0 SHL DUP2 MSTORE PUSH1 0x4 ADD PUSH3 0xEB9 SWAP6 SWAP5 SWAP4 SWAP3 SWAP2 SWAP1 PUSH3 0x51A1 JUMP JUMPDEST PUSH1 0x0 PUSH1 0x40 MLOAD DUP1 DUP4 SUB DUP2 PUSH1 0x0 DUP8 DUP1 EXTCODESIZE ISZERO DUP1 ISZERO PUSH3 0xED4 JUMPI PUSH1 0x0 DUP1 REVERT JUMPDEST POP GAS CALL ISZERO DUP1 ISZERO PUSH3 0xEE9 JUMPI RETURNDATASIZE PUSH1 0x0 DUP1 RETURNDATACOPY RETURNDATASIZE PUSH1 0x0 REVERT JUMPDEST POP POP POP POP POP PUSH3 0xF31 JUMP JUMPDEST PUSH1 0x40 MLOAD PUSH32 0x8C379A000000000000000000000000000000000000000000000000000000000 DUP2 MSTORE PUSH1 0x4 ADD PUSH3 0xF28 SWAP1 PUSH3 0x525C JUMP JUMPDEST PUSH1 0x40 MLOAD DUP1 SWAP2 SUB SWAP1 REVERT JUMPDEST PUSH3 0xF74 JUMP JUMPDEST PUSH1 0x40 MLOAD PUSH32 0x8C379A000000000000000000000000000000000000000000000000000000000 DUP2 MSTORE PUSH1 0x4 ADD PUSH3 0xF6B SWAP1 PUSH3 0x52CE JUMP JUMPDEST PUSH1 0x40 MLOAD DUP1 SWAP2 SUB SWAP1 REVERT JUMPDEST POP POP JUMP JUMPDEST PUSH1 0x6 PUSH1 0x2 SWAP1 SLOAD SWAP1 PUSH2 0x100 EXP SWAP1 DIV PUSH1 0xFF AND DUP2 JUMP JUMPDEST PUSH1 0x0 PUSH1 0x2 PUSH1 0x5 DUP2 GT ISZERO PUSH3 0xFA4 JUMPI PUSH3 0xFA3 PUSH3 0x4624 JUMP JUMPDEST JUMPDEST PUSH1 0x6 PUSH1 0x1 SWAP1 SLOAD SWAP1 PUSH2 0x100 EXP SWAP1 DIV PUSH1 0xFF AND PUSH1 0x5 DUP2 GT ISZERO PUSH3 0xFC9 JUMPI PUSH3 0xFC8 PUSH3 0x4624 JUMP JUMPDEST JUMPDEST EQ ISZERO PUSH3 0xFE5 JUMPI PUSH3 0xFDA PUSH3 0x22E5 JUMP JUMPDEST PUSH3 0xFE4 JUMPI PUSH1 0x1 SWAP1 POP JUMPDEST JUMPDEST DUP1 PUSH3 0x1028 JUMPI PUSH1 0x40 MLOAD PUSH32 0x8C379A000000000000000000000000000000000000000000000000000000000 DUP2 MSTORE PUSH1 0x4 ADD PUSH3 0x101F SWAP1 PUSH3 0x4E94 JUMP JUMPDEST PUSH1 0x40 MLOAD DUP1 SWAP2 SUB SWAP1 REVERT JUMPDEST PUSH1 0x7 PUSH1 0x0 SWAP1 SLOAD SWAP1 PUSH2 0x100 EXP SWAP1 DIV PUSH20 0xFFFFFFFFFFFFFFFFFFFFFFFFFFFFFFFFFFFFFFFF AND PUSH20 0xFFFFFFFFFFFFFFFFFFFFFFFFFFFFFFFFFFFFFFFF AND PUSH4 0x3FD00B0D CALLER PUSH1 0x40 MLOAD DUP3 PUSH4 0xFFFFFFFF AND PUSH1 0xE0 SHL DUP2 MSTORE PUSH1 0x4 ADD PUSH3 0x1085 SWAP2 SWAP1 PUSH3 0x42C0 JUMP JUMPDEST PUSH1 0x0 PUSH1 0x40 MLOAD DUP1 DUP4 SUB DUP2 PUSH1 0x0 DUP8 DUP1 EXTCODESIZE ISZERO DUP1 ISZERO PUSH3 0x10A0 JUMPI PUSH1 0x0 DUP1 REVERT JUMPDEST POP GAS CALL ISZERO DUP1 ISZERO PUSH3 0x10B5 JUMPI RETURNDATASIZE PUSH1 0x0 DUP1 RETURNDATACOPY RETURNDATASIZE PUSH1 0x0 REVERT JUMPDEST POP POP POP POP POP JUMP JUMPDEST PUSH1 0x0 DUP1 CALLER SWAP1 POP PUSH1 0x6 PUSH1 0x3 SWAP1 SLOAD SWAP1 PUSH2 0x100 EXP SWAP1 DIV PUSH20 0xFFFFFFFFFFFFFFFFFFFFFFFFFFFFFFFFFFFFFFFF AND PUSH20 0xFFFFFFFFFFFFFFFFFFFFFFFFFFFFFFFFFFFFFFFF AND PUSH4 0x56909B7 DUP3 PUSH1 0x40 MLOAD DUP3 PUSH4 0xFFFFFFFF AND PUSH1 0xE0 SHL DUP2 MSTORE PUSH1 0x4 ADD PUSH3 0x111F SWAP2 SWAP1 PUSH3 0x42C0 JUMP JUMPDEST PUSH1 0x20 PUSH1 0x40 MLOAD DUP1 DUP4 SUB DUP2 DUP7 GAS STATICCALL ISZERO DUP1 ISZERO PUSH3 0x113D JUMPI RETURNDATASIZE PUSH1 0x0 DUP1 RETURNDATACOPY RETURNDATASIZE PUSH1 0x0 REVERT JUMPDEST POP POP POP POP PUSH1 0x40 MLOAD RETURNDATASIZE PUSH1 0x1F NOT PUSH1 0x1F DUP3 ADD AND DUP3 ADD DUP1 PUSH1 0x40 MSTORE POP DUP2 ADD SWAP1 PUSH3 0x1163 SWAP2 SWAP1 PUSH3 0x4915 JUMP JUMPDEST DUP1 PUSH3 0x120C JUMPI POP PUSH1 0x6 PUSH1 0x3 SWAP1 SLOAD SWAP1 PUSH2 0x100 EXP SWAP1 DIV PUSH20 0xFFFFFFFFFFFFFFFFFFFFFFFFFFFFFFFFFFFFFFFF AND PUSH20 0xFFFFFFFFFFFFFFFFFFFFFFFFFFFFFFFFFFFFFFFF AND PUSH4 0xFA4D7AAE DUP3 PUSH1 0x40 MLOAD DUP3 PUSH4 0xFFFFFFFF AND PUSH1 0xE0 SHL DUP2 MSTORE PUSH1 0x4 ADD PUSH3 0x11C7 SWAP2 SWAP1 PUSH3 0x42C0 JUMP JUMPDEST PUSH1 0x20 PUSH1 0x40 MLOAD DUP1 DUP4 SUB DUP2 DUP7 GAS STATICCALL ISZERO DUP1 ISZERO PUSH3 0x11E5 JUMPI RETURNDATASIZE PUSH1 0x0 DUP1 RETURNDATACOPY RETURNDATASIZE PUSH1 0x0 REVERT JUMPDEST POP POP POP POP PUSH1 0x40 MLOAD RETURNDATASIZE PUSH1 0x1F NOT PUSH1 0x1F DUP3 ADD AND DUP3 ADD DUP1 PUSH1 0x40 MSTORE POP DUP2 ADD SWAP1 PUSH3 0x120B SWAP2 SWAP1 PUSH3 0x4915 JUMP JUMPDEST JUMPDEST DUP1 PUSH3 0x12B5 JUMPI POP PUSH1 0x6 PUSH1 0x3 SWAP1 SLOAD SWAP1 PUSH2 0x100 EXP SWAP1 DIV PUSH20 0xFFFFFFFFFFFFFFFFFFFFFFFFFFFFFFFFFFFFFFFF AND PUSH20 0xFFFFFFFFFFFFFFFFFFFFFFFFFFFFFFFFFFFFFFFF AND PUSH4 0x297027D5 DUP3 PUSH1 0x40 MLOAD DUP3 PUSH4 0xFFFFFFFF AND PUSH1 0xE0 SHL DUP2 MSTORE PUSH1 0x4 ADD PUSH3 0x1270 SWAP2 SWAP1 PUSH3 0x42C0 JUMP JUMPDEST PUSH1 0x20 PUSH1 0x40 MLOAD DUP1 DUP4 SUB DUP2 DUP7 GAS STATICCALL ISZERO DUP1 ISZERO PUSH3 0x128E JUMPI RETURNDATASIZE PUSH1 0x0 DUP1 RETURNDATACOPY RETURNDATASIZE PUSH1 0x0 REVERT JUMPDEST POP POP POP POP PUSH1 0x40 MLOAD RETURNDATASIZE PUSH1 0x1F NOT PUSH1 0x1F DUP3 ADD AND DUP3 ADD DUP1 PUSH1 0x40 MSTORE POP DUP2 ADD SWAP1 PUSH3 0x12B4 SWAP2 SWAP1 PUSH3 0x4915 JUMP JUMPDEST JUMPDEST ISZERO PUSH3 0x12C6 JUMPI PUSH1 0x1 SWAP2 POP POP PUSH3 0x12CC JUMP JUMPDEST PUSH1 0x0 SWAP2 POP POP JUMPDEST SWAP1 JUMP JUMPDEST PUSH1 0x6 PUSH1 0x3 SWAP1 SLOAD SWAP1 PUSH2 0x100 EXP SWAP1 DIV PUSH20 0xFFFFFFFFFFFFFFFFFFFFFFFFFFFFFFFFFFFFFFFF AND PUSH20 0xFFFFFFFFFFFFFFFFFFFFFFFFFFFFFFFFFFFFFFFF AND PUSH4 0xFA4D7AAE CALLER PUSH1 0x40 MLOAD DUP3 PUSH4 0xFFFFFFFF AND PUSH1 0xE0 SHL DUP2 MSTORE PUSH1 0x4 ADD PUSH3 0x132C SWAP2 SWAP1 PUSH3 0x42C0 JUMP JUMPDEST PUSH1 0x20 PUSH1 0x40 MLOAD DUP1 DUP4 SUB DUP2 DUP7 GAS STATICCALL ISZERO DUP1 ISZERO PUSH3 0x134A JUMPI RETURNDATASIZE PUSH1 0x0 DUP1 RETURNDATACOPY RETURNDATASIZE PUSH1 0x0 REVERT JUMPDEST POP POP POP POP PUSH1 0x40 MLOAD RETURNDATASIZE PUSH1 0x1F NOT PUSH1 0x1F DUP3 ADD AND DUP3 ADD DUP1 PUSH1 0x40 MSTORE POP DUP2 ADD SWAP1 PUSH3 0x1370 SWAP2 SWAP1 PUSH3 0x4915 JUMP JUMPDEST PUSH3 0x13B2 JUMPI PUSH1 0x40 MLOAD PUSH32 0x8C379A000000000000000000000000000000000000000000000000000000000 DUP2 MSTORE PUSH1 0x4 ADD PUSH3 0x13A9 SWAP1 PUSH3 0x49CE JUMP JUMPDEST PUSH1 0x40 MLOAD DUP1 SWAP2 SUB SWAP1 REVERT JUMPDEST PUSH1 0x1 PUSH1 0x5 DUP2 GT ISZERO PUSH3 0x13C9 JUMPI PUSH3 0x13C8 PUSH3 0x4624 JUMP JUMPDEST JUMPDEST PUSH1 0x6 PUSH1 0x1 SWAP1 SLOAD SWAP1 PUSH2 0x100 EXP SWAP1 DIV PUSH1 0xFF AND PUSH1 0x5 DUP2 GT ISZERO PUSH3 0x13EE JUMPI PUSH3 0x13ED PUSH3 0x4624 JUMP JUMPDEST JUMPDEST EQ ISZERO PUSH3 0x14BC JUMPI PUSH3 0x13FF PUSH3 0x3973 JUMP JUMPDEST PUSH1 0x7 PUSH1 0x0 SWAP1 SLOAD SWAP1 PUSH2 0x100 EXP SWAP1 DIV PUSH20 0xFFFFFFFFFFFFFFFFFFFFFFFFFFFFFFFFFFFFFFFF AND PUSH20 0xFFFFFFFFFFFFFFFFFFFFFFFFFFFFFFFFFFFFFFFF AND PUSH4 0xE6C09EDF CALLER PUSH1 0x40 MLOAD DUP3 PUSH4 0xFFFFFFFF AND PUSH1 0xE0 SHL DUP2 MSTORE PUSH1 0x4 ADD PUSH3 0x145C SWAP2 SWAP1 PUSH3 0x42C0 JUMP JUMPDEST PUSH1 0x0 PUSH1 0x40 MLOAD DUP1 DUP4 SUB DUP2 PUSH1 0x0 DUP8 DUP1 EXTCODESIZE ISZERO DUP1 ISZERO PUSH3 0x1477 JUMPI PUSH1 0x0 DUP1 REVERT JUMPDEST POP GAS CALL ISZERO DUP1 ISZERO PUSH3 0x148C JUMPI RETURNDATASIZE PUSH1 0x0 DUP1 RETURNDATACOPY RETURNDATASIZE PUSH1 0x0 REVERT JUMPDEST POP POP POP POP PUSH3 0x14B6 PUSH1 0x2 PUSH1 0x40 MLOAD DUP1 PUSH1 0x60 ADD PUSH1 0x40 MSTORE DUP1 PUSH1 0x24 DUP2 MSTORE PUSH1 0x20 ADD PUSH3 0xB5D2 PUSH1 0x24 SWAP2 CODECOPY PUSH3 0x38DF JUMP JUMPDEST PUSH3 0x14F9 JUMP JUMPDEST PUSH1 0x40 MLOAD PUSH32 0x8C379A000000000000000000000000000000000000000000000000000000000 DUP2 MSTORE PUSH1 0x4 ADD PUSH3 0x14F0 SWAP1 PUSH3 0x4A8C JUMP JUMPDEST PUSH1 0x40 MLOAD DUP1 SWAP2 SUB SWAP1 REVERT JUMPDEST JUMP JUMPDEST PUSH1 0x60 PUSH1 0x0 PUSH1 0x7 PUSH1 0x0 SWAP1 SLOAD SWAP1 PUSH2 0x100 EXP SWAP1 DIV PUSH20 0xFFFFFFFFFFFFFFFFFFFFFFFFFFFFFFFFFFFFFFFF AND PUSH20 0xFFFFFFFFFFFFFFFFFFFFFFFFFFFFFFFFFFFFFFFF AND PUSH4 0xCC2EE196 PUSH1 0x40 MLOAD DUP2 PUSH4 0xFFFFFFFF AND PUSH1 0xE0 SHL DUP2 MSTORE PUSH1 0x4 ADD PUSH1 0x0 PUSH1 0x40 MLOAD DUP1 DUP4 SUB DUP2 DUP7 GAS STATICCALL ISZERO DUP1 ISZERO PUSH3 0x156D JUMPI RETURNDATASIZE PUSH1 0x0 DUP1 RETURNDATACOPY RETURNDATASIZE PUSH1 0x0 REVERT JUMPDEST POP POP POP POP PUSH1 0x40 MLOAD RETURNDATASIZE PUSH1 0x0 DUP3 RETURNDATACOPY RETURNDATASIZE PUSH1 0x1F NOT PUSH1 0x1F DUP3 ADD AND DUP3 ADD DUP1 PUSH1 0x40 MSTORE POP DUP2 ADD SWAP1 PUSH3 0x1598 SWAP2 SWAP1 PUSH3 0x4D9B JUMP JUMPDEST SWAP1 POP PUSH1 0x0 DUP2 MLOAD PUSH8 0xFFFFFFFFFFFFFFFF DUP2 GT ISZERO PUSH3 0x15BA JUMPI PUSH3 0x15B9 PUSH3 0x46C6 JUMP JUMPDEST JUMPDEST PUSH1 0x40 MLOAD SWAP1 DUP1 DUP3 MSTORE DUP1 PUSH1 0x20 MUL PUSH1 0x20 ADD DUP3 ADD PUSH1 0x40 MSTORE DUP1 ISZERO PUSH3 0x15F7 JUMPI DUP2 PUSH1 0x20 ADD JUMPDEST PUSH3 0x15E3 PUSH3 0x40C5 JUMP JUMPDEST DUP2 MSTORE PUSH1 0x20 ADD SWAP1 PUSH1 0x1 SWAP1 SUB SWAP1 DUP2 PUSH3 0x15D9 JUMPI SWAP1 POP JUMPDEST POP SWAP1 POP PUSH1 0x0 DUP1 JUMPDEST DUP4 MLOAD DUP2 LT ISZERO PUSH3 0x1696 JUMPI DUP4 DUP2 DUP2 MLOAD DUP2 LT PUSH3 0x161E JUMPI PUSH3 0x161D PUSH3 0x52F0 JUMP JUMPDEST JUMPDEST PUSH1 0x20 MUL PUSH1 0x20 ADD ADD MLOAD PUSH1 0x60 ADD MLOAD ISZERO PUSH3 0x1680 JUMPI DUP4 DUP2 DUP2 MLOAD DUP2 LT PUSH3 0x1646 JUMPI PUSH3 0x1645 PUSH3 0x52F0 JUMP JUMPDEST JUMPDEST PUSH1 0x20 MUL PUSH1 0x20 ADD ADD MLOAD DUP4 DUP4 DUP2 MLOAD DUP2 LT PUSH3 0x1664 JUMPI PUSH3 0x1663 PUSH3 0x52F0 JUMP JUMPDEST JUMPDEST PUSH1 0x20 MUL PUSH1 0x20 ADD ADD DUP2 SWAP1 MSTORE POP DUP2 DUP1 PUSH3 0x167C SWAP1 PUSH3 0x534E JUMP JUMPDEST SWAP3 POP POP JUMPDEST DUP1 DUP1 PUSH3 0x168D SWAP1 PUSH3 0x534E JUMP JUMPDEST SWAP2 POP POP PUSH3 0x15FE JUMP JUMPDEST POP DUP1 DUP3 MSTORE DUP2 SWAP4 POP POP POP POP SWAP1 JUMP JUMPDEST PUSH1 0x6 PUSH1 0x3 SWAP1 SLOAD SWAP1 PUSH2 0x100 EXP SWAP1 DIV PUSH20 0xFFFFFFFFFFFFFFFFFFFFFFFFFFFFFFFFFFFFFFFF AND PUSH20 0xFFFFFFFFFFFFFFFFFFFFFFFFFFFFFFFFFFFFFFFF AND PUSH4 0xFA4D7AAE CALLER PUSH1 0x40 MLOAD DUP3 PUSH4 0xFFFFFFFF AND PUSH1 0xE0 SHL DUP2 MSTORE PUSH1 0x4 ADD PUSH3 0x1700 SWAP2 SWAP1 PUSH3 0x42C0 JUMP JUMPDEST PUSH1 0x20 PUSH1 0x40 MLOAD DUP1 DUP4 SUB DUP2 DUP7 GAS STATICCALL ISZERO DUP1 ISZERO PUSH3 0x171E JUMPI RETURNDATASIZE PUSH1 0x0 DUP1 RETURNDATACOPY RETURNDATASIZE PUSH1 0x0 REVERT JUMPDEST POP POP POP POP PUSH1 0x40 MLOAD RETURNDATASIZE PUSH1 0x1F NOT PUSH1 0x1F DUP3 ADD AND DUP3 ADD DUP1 PUSH1 0x40 MSTORE POP DUP2 ADD SWAP1 PUSH3 0x1744 SWAP2 SWAP1 PUSH3 0x4915 JUMP JUMPDEST PUSH3 0x1786 JUMPI PUSH1 0x40 MLOAD PUSH32 0x8C379A000000000000000000000000000000000000000000000000000000000 DUP2 MSTORE PUSH1 0x4 ADD PUSH3 0x177D SWAP1 PUSH3 0x49CE JUMP JUMPDEST PUSH1 0x40 MLOAD DUP1 SWAP2 SUB SWAP1 REVERT JUMPDEST PUSH1 0x3 PUSH1 0x5 DUP2 GT ISZERO PUSH3 0x179D JUMPI PUSH3 0x179C PUSH3 0x4624 JUMP JUMPDEST JUMPDEST PUSH1 0x6 PUSH1 0x1 SWAP1 SLOAD SWAP1 PUSH2 0x100 EXP SWAP1 DIV PUSH1 0xFF AND PUSH1 0x5 DUP2 GT ISZERO PUSH3 0x17C2 JUMPI PUSH3 0x17C1 PUSH3 0x4624 JUMP JUMPDEST JUMPDEST EQ ISZERO PUSH3 0x17F5 JUMPI PUSH3 0x17EF PUSH1 0x4 PUSH1 0x40 MLOAD DUP1 PUSH1 0x60 ADD PUSH1 0x40 MSTORE DUP1 PUSH1 0x24 DUP2 MSTORE PUSH1 0x20 ADD PUSH3 0xB5D2 PUSH1 0x24 SWAP2 CODECOPY PUSH3 0x38DF JUMP JUMPDEST PUSH3 0x1832 JUMP JUMPDEST PUSH1 0x40 MLOAD PUSH32 0x8C379A000000000000000000000000000000000000000000000000000000000 DUP2 MSTORE PUSH1 0x4 ADD PUSH3 0x1829 SWAP1 PUSH3 0x5412 JUMP JUMPDEST PUSH1 0x40 MLOAD DUP1 SWAP2 SUB SWAP1 REVERT JUMPDEST JUMP JUMPDEST PUSH1 0x0 PUSH1 0x1 PUSH1 0x5 DUP2 GT ISZERO PUSH3 0x184D JUMPI PUSH3 0x184C PUSH3 0x4624 JUMP JUMPDEST JUMPDEST PUSH1 0x6 PUSH1 0x1 SWAP1 SLOAD SWAP1 PUSH2 0x100 EXP SWAP1 DIV PUSH1 0xFF AND PUSH1 0x5 DUP2 GT ISZERO PUSH3 0x1872 JUMPI PUSH3 0x1871 PUSH3 0x4624 JUMP JUMPDEST JUMPDEST EQ ISZERO PUSH3 0x188E JUMPI PUSH3 0x1883 PUSH3 0x22E5 JUMP JUMPDEST PUSH3 0x188D JUMPI PUSH1 0x1 SWAP1 POP JUMPDEST JUMPDEST DUP1 PUSH3 0x18D1 JUMPI PUSH1 0x40 MLOAD PUSH32 0x8C379A000000000000000000000000000000000000000000000000000000000 DUP2 MSTORE PUSH1 0x4 ADD PUSH3 0x18C8 SWAP1 PUSH3 0x4E94 JUMP JUMPDEST PUSH1 0x40 MLOAD DUP1 SWAP2 SUB SWAP1 REVERT JUMPDEST PUSH1 0x7 PUSH1 0x0 SWAP1 SLOAD SWAP1 PUSH2 0x100 EXP SWAP1 DIV PUSH20 0xFFFFFFFFFFFFFFFFFFFFFFFFFFFFFFFFFFFFFFFF AND PUSH20 0xFFFFFFFFFFFFFFFFFFFFFFFFFFFFFFFFFFFFFFFF AND PUSH4 0x16DB2A7A CALLER DUP5 PUSH1 0x40 MLOAD DUP4 PUSH4 0xFFFFFFFF AND PUSH1 0xE0 SHL DUP2 MSTORE PUSH1 0x4 ADD PUSH3 0x1930 SWAP3 SWAP2 SWAP1 PUSH3 0x4EB6 JUMP JUMPDEST PUSH1 0x0 PUSH1 0x40 MLOAD DUP1 DUP4 SUB DUP2 PUSH1 0x0 DUP8 DUP1 EXTCODESIZE ISZERO DUP1 ISZERO PUSH3 0x194B JUMPI PUSH1 0x0 DUP1 REVERT JUMPDEST POP GAS CALL ISZERO DUP1 ISZERO PUSH3 0x1960 JUMPI RETURNDATASIZE PUSH1 0x0 DUP1 RETURNDATACOPY RETURNDATASIZE PUSH1 0x0 REVERT JUMPDEST POP POP POP POP POP POP JUMP JUMPDEST PUSH1 0x0 PUSH1 0x40 MLOAD DUP1 PUSH2 0x140 ADD PUSH1 0x40 MSTORE DUP1 PUSH20 0x5B38DA6A701C568545DCFCB03FCB875F56BEDDC4 PUSH20 0xFFFFFFFFFFFFFFFFFFFFFFFFFFFFFFFFFFFFFFFF AND PUSH20 0xFFFFFFFFFFFFFFFFFFFFFFFFFFFFFFFFFFFFFFFF AND DUP2 MSTORE PUSH1 0x20 ADD PUSH20 0xAB8483F64D9C6D1ECF9B849AE677DD3315835CB2 PUSH20 0xFFFFFFFFFFFFFFFFFFFFFFFFFFFFFFFFFFFFFFFF AND PUSH20 0xFFFFFFFFFFFFFFFFFFFFFFFFFFFFFFFFFFFFFFFF AND DUP2 MSTORE PUSH1 0x20 ADD PUSH20 0x4B20993BC481177EC7E8F571CECAE8A9E22C02DB PUSH20 0xFFFFFFFFFFFFFFFFFFFFFFFFFFFFFFFFFFFFFFFF AND PUSH20 0xFFFFFFFFFFFFFFFFFFFFFFFFFFFFFFFFFFFFFFFF AND DUP2 MSTORE PUSH1 0x20 ADD PUSH20 0x78731D3CA6B7E34AC0F824C42A7CC18A495CABAB PUSH20 0xFFFFFFFFFFFFFFFFFFFFFFFFFFFFFFFFFFFFFFFF AND PUSH20 0xFFFFFFFFFFFFFFFFFFFFFFFFFFFFFFFFFFFFFFFF AND DUP2 MSTORE PUSH1 0x20 ADD PUSH20 0x617F2E2FD72FD9D5503197092AC168C91465E7F2 PUSH20 0xFFFFFFFFFFFFFFFFFFFFFFFFFFFFFFFFFFFFFFFF AND PUSH20 0xFFFFFFFFFFFFFFFFFFFFFFFFFFFFFFFFFFFFFFFF AND DUP2 MSTORE PUSH1 0x20 ADD PUSH20 0x17F6AD8EF982297579C203069C1DBFFE4348C372 PUSH20 0xFFFFFFFFFFFFFFFFFFFFFFFFFFFFFFFFFFFFFFFF AND PUSH20 0xFFFFFFFFFFFFFFFFFFFFFFFFFFFFFFFFFFFFFFFF AND DUP2 MSTORE PUSH1 0x20 ADD PUSH20 0x5C6B0F7BF3E7CE046039BD8FABDFD3F9F5021678 PUSH20 0xFFFFFFFFFFFFFFFFFFFFFFFFFFFFFFFFFFFFFFFF AND PUSH20 0xFFFFFFFFFFFFFFFFFFFFFFFFFFFFFFFFFFFFFFFF AND DUP2 MSTORE PUSH1 0x20 ADD PUSH20 0x3C6FCED478CBBC9A4FAB34EF9F40767739D1FF7 PUSH20 0xFFFFFFFFFFFFFFFFFFFFFFFFFFFFFFFFFFFFFFFF AND PUSH20 0xFFFFFFFFFFFFFFFFFFFFFFFFFFFFFFFFFFFFFFFF AND DUP2 MSTORE PUSH1 0x20 ADD PUSH20 0x1AE0EA34A72D944A8C7603FFB3EC30A6669E454C PUSH20 0xFFFFFFFFFFFFFFFFFFFFFFFFFFFFFFFFFFFFFFFF AND PUSH20 0xFFFFFFFFFFFFFFFFFFFFFFFFFFFFFFFFFFFFFFFF AND DUP2 MSTORE PUSH1 0x20 ADD PUSH20 0xCA35B7D915458EF540ADE6068DFE2F44E8FA733C PUSH20 0xFFFFFFFFFFFFFFFFFFFFFFFFFFFFFFFFFFFFFFFF AND PUSH20 0xFFFFFFFFFFFFFFFFFFFFFFFFFFFFFFFFFFFFFFFF AND DUP2 MSTORE POP SWAP1 POP PUSH1 0x0 PUSH1 0x3 PUSH8 0xFFFFFFFFFFFFFFFF DUP2 GT ISZERO PUSH3 0x1C52 JUMPI PUSH3 0x1C51 PUSH3 0x46C6 JUMP JUMPDEST JUMPDEST PUSH1 0x40 MLOAD SWAP1 DUP1 DUP3 MSTORE DUP1 PUSH1 0x20 MUL PUSH1 0x20 ADD DUP3 ADD PUSH1 0x40 MSTORE DUP1 ISZERO PUSH3 0x1C81 JUMPI DUP2 PUSH1 0x20 ADD PUSH1 0x20 DUP3 MUL DUP1 CALLDATASIZE DUP4 CALLDATACOPY DUP1 DUP3 ADD SWAP2 POP POP SWAP1 POP JUMPDEST POP SWAP1 POP PUSH20 0x617F2E2FD72FD9D5503197092AC168C91465E7F2 DUP2 PUSH1 0x0 DUP2 MLOAD DUP2 LT PUSH3 0x1CB0 JUMPI PUSH3 0x1CAF PUSH3 0x52F0 JUMP JUMPDEST JUMPDEST PUSH1 0x20 MUL PUSH1 0x20 ADD ADD SWAP1 PUSH20 0xFFFFFFFFFFFFFFFFFFFFFFFFFFFFFFFFFFFFFFFF AND SWAP1 DUP2 PUSH20 0xFFFFFFFFFFFFFFFFFFFFFFFFFFFFFFFFFFFFFFFF AND DUP2 MSTORE POP POP PUSH20 0x17F6AD8EF982297579C203069C1DBFFE4348C372 DUP2 PUSH1 0x1 DUP2 MLOAD DUP2 LT PUSH3 0x1D16 JUMPI PUSH3 0x1D15 PUSH3 0x52F0 JUMP JUMPDEST JUMPDEST PUSH1 0x20 MUL PUSH1 0x20 ADD ADD SWAP1 PUSH20 0xFFFFFFFFFFFFFFFFFFFFFFFFFFFFFFFFFFFFFFFF AND SWAP1 DUP2 PUSH20 0xFFFFFFFFFFFFFFFFFFFFFFFFFFFFFFFFFFFFFFFF AND DUP2 MSTORE POP POP PUSH20 0x5C6B0F7BF3E7CE046039BD8FABDFD3F9F5021678 DUP2 PUSH1 0x2 DUP2 MLOAD DUP2 LT PUSH3 0x1D7C JUMPI PUSH3 0x1D7B PUSH3 0x52F0 JUMP JUMPDEST JUMPDEST PUSH1 0x20 MUL PUSH1 0x20 ADD ADD SWAP1 PUSH20 0xFFFFFFFFFFFFFFFFFFFFFFFFFFFFFFFFFFFFFFFF AND SWAP1 DUP2 PUSH20 0xFFFFFFFFFFFFFFFFFFFFFFFFFFFFFFFFFFFFFFFF AND DUP2 MSTORE POP POP PUSH20 0x6E111EAF89BBFC1210F413F63F0A35D34A75243F PUSH1 0x6 PUSH1 0x3 PUSH2 0x100 EXP DUP2 SLOAD DUP2 PUSH20 0xFFFFFFFFFFFFFFFFFFFFFFFFFFFFFFFFFFFFFFFF MUL NOT AND SWAP1 DUP4 PUSH20 0xFFFFFFFFFFFFFFFFFFFFFFFFFFFFFFFFFFFFFFFF AND MUL OR SWAP1 SSTORE POP PUSH1 0x0 PUSH1 0x40 MLOAD DUP1 PUSH1 0x40 ADD PUSH1 0x40 MSTORE DUP1 PUSH1 0x14 DUP2 MSTORE PUSH1 0x20 ADD PUSH32 0x456C656374206E6577206C656164657273686970000000000000000000000000 DUP2 MSTORE POP SWAP1 POP PUSH1 0x0 PUSH1 0x40 MLOAD DUP1 PUSH1 0x60 ADD PUSH1 0x40 MSTORE DUP1 PUSH1 0x2B DUP2 MSTORE PUSH1 0x20 ADD PUSH3 0xB62E PUSH1 0x2B SWAP2 CODECOPY SWAP1 POP PUSH1 0x0 DUP1 PUSH1 0x2 SWAP1 POP PUSH1 0x0 PUSH1 0x1 PUSH8 0xFFFFFFFFFFFFFFFF DUP2 GT ISZERO PUSH3 0x1E8A JUMPI PUSH3 0x1E89 PUSH3 0x46C6 JUMP JUMPDEST JUMPDEST PUSH1 0x40 MLOAD SWAP1 DUP1 DUP3 MSTORE DUP1 PUSH1 0x20 MUL PUSH1 0x20 ADD DUP3 ADD PUSH1 0x40 MSTORE DUP1 ISZERO PUSH3 0x1EB9 JUMPI DUP2 PUSH1 0x20 ADD PUSH1 0x20 DUP3 MUL DUP1 CALLDATASIZE DUP4 CALLDATACOPY DUP1 DUP3 ADD SWAP2 POP POP SWAP1 POP JUMPDEST POP SWAP1 POP PUSH20 0x5B38DA6A701C568545DCFCB03FCB875F56BEDDC4 DUP2 PUSH1 0x0 DUP2 MLOAD DUP2 LT PUSH3 0x1EE8 JUMPI PUSH3 0x1EE7 PUSH3 0x52F0 JUMP JUMPDEST JUMPDEST PUSH1 0x20 MUL PUSH1 0x20 ADD ADD SWAP1 PUSH20 0xFFFFFFFFFFFFFFFFFFFFFFFFFFFFFFFFFFFFFFFF AND SWAP1 DUP2 PUSH20 0xFFFFFFFFFFFFFFFFFFFFFFFFFFFFFFFFFFFFFFFF AND DUP2 MSTORE POP POP PUSH3 0x1F31 DUP2 DUP7 DUP7 DUP7 DUP7 PUSH3 0x3D2D JUMP JUMPDEST PUSH3 0x1F73 PUSH1 0x0 PUSH1 0x40 MLOAD DUP1 PUSH1 0x40 ADD PUSH1 0x40 MSTORE DUP1 PUSH1 0x15 DUP2 MSTORE PUSH1 0x20 ADD PUSH32 0x436F6E73756C746174696F6E2063726561746564210000000000000000000000 DUP2 MSTORE POP PUSH3 0x38DF JUMP JUMPDEST PUSH1 0x0 JUMPDEST DUP7 MLOAD DUP2 LT ISZERO PUSH3 0x1FBE JUMPI PUSH3 0x1FA8 DUP8 DUP3 DUP2 MLOAD DUP2 LT PUSH3 0x1F9A JUMPI PUSH3 0x1F99 PUSH3 0x52F0 JUMP JUMPDEST JUMPDEST PUSH1 0x20 MUL PUSH1 0x20 ADD ADD MLOAD PUSH3 0xCE5 JUMP JUMPDEST DUP1 DUP1 PUSH3 0x1FB5 SWAP1 PUSH3 0x534E JUMP JUMPDEST SWAP2 POP POP PUSH3 0x1F76 JUMP JUMPDEST POP POP POP POP POP POP POP POP JUMP JUMPDEST PUSH1 0x0 DUP1 PUSH1 0x1 SWAP1 POP PUSH1 0x0 JUMPDEST DUP4 MLOAD DUP2 LT ISZERO PUSH3 0x20BA JUMPI PUSH1 0x6 PUSH1 0x3 SWAP1 SLOAD SWAP1 PUSH2 0x100 EXP SWAP1 DIV PUSH20 0xFFFFFFFFFFFFFFFFFFFFFFFFFFFFFFFFFFFFFFFF AND PUSH20 0xFFFFFFFFFFFFFFFFFFFFFFFFFFFFFFFFFFFFFFFF AND PUSH4 0xFA4D7AAE DUP6 DUP4 DUP2 MLOAD DUP2 LT PUSH3 0x2030 JUMPI PUSH3 0x202F PUSH3 0x52F0 JUMP JUMPDEST JUMPDEST PUSH1 0x20 MUL PUSH1 0x20 ADD ADD MLOAD PUSH1 0x40 MLOAD DUP3 PUSH4 0xFFFFFFFF AND PUSH1 0xE0 SHL DUP2 MSTORE PUSH1 0x4 ADD PUSH3 0x2056 SWAP2 SWAP1 PUSH3 0x42C0 JUMP JUMPDEST PUSH1 0x20 PUSH1 0x40 MLOAD DUP1 DUP4 SUB DUP2 DUP7 GAS STATICCALL ISZERO DUP1 ISZERO PUSH3 0x2074 JUMPI RETURNDATASIZE PUSH1 0x0 DUP1 RETURNDATACOPY RETURNDATASIZE PUSH1 0x0 REVERT JUMPDEST POP POP POP POP PUSH1 0x40 MLOAD RETURNDATASIZE PUSH1 0x1F NOT PUSH1 0x1F DUP3 ADD AND DUP3 ADD DUP1 PUSH1 0x40 MSTORE POP DUP2 ADD SWAP1 PUSH3 0x209A SWAP2 SWAP1 PUSH3 0x4915 JUMP JUMPDEST PUSH3 0x20A4 JUMPI PUSH1 0x0 SWAP2 POP JUMPDEST DUP1 DUP1 PUSH3 0x20B1 SWAP1 PUSH3 0x534E JUMP JUMPDEST SWAP2 POP POP PUSH3 0x1FD2 JUMP JUMPDEST POP DUP1 SWAP2 POP POP SWAP2 SWAP1 POP JUMP JUMPDEST PUSH1 0x6 PUSH1 0x3 SWAP1 SLOAD SWAP1 PUSH2 0x100 EXP SWAP1 DIV PUSH20 0xFFFFFFFFFFFFFFFFFFFFFFFFFFFFFFFFFFFFFFFF AND PUSH20 0xFFFFFFFFFFFFFFFFFFFFFFFFFFFFFFFFFFFFFFFF AND PUSH4 0xFA4D7AAE CALLER PUSH1 0x40 MLOAD DUP3 PUSH4 0xFFFFFFFF AND PUSH1 0xE0 SHL DUP2 MSTORE PUSH1 0x4 ADD PUSH3 0x2121 SWAP2 SWAP1 PUSH3 0x42C0 JUMP JUMPDEST PUSH1 0x20 PUSH1 0x40 MLOAD DUP1 DUP4 SUB DUP2 DUP7 GAS STATICCALL ISZERO DUP1 ISZERO PUSH3 0x213F JUMPI RETURNDATASIZE PUSH1 0x0 DUP1 RETURNDATACOPY RETURNDATASIZE PUSH1 0x0 REVERT JUMPDEST POP POP POP POP PUSH1 0x40 MLOAD RETURNDATASIZE PUSH1 0x1F NOT PUSH1 0x1F DUP3 ADD AND DUP3 ADD DUP1 PUSH1 0x40 MSTORE POP DUP2 ADD SWAP1 PUSH3 0x2165 SWAP2 SWAP1 PUSH3 0x4915 JUMP JUMPDEST PUSH3 0x21A7 JUMPI PUSH1 0x40 MLOAD PUSH32 0x8C379A000000000000000000000000000000000000000000000000000000000 DUP2 MSTORE PUSH1 0x4 ADD PUSH3 0x219E SWAP1 PUSH3 0x49CE JUMP JUMPDEST PUSH1 0x40 MLOAD DUP1 SWAP2 SUB SWAP1 REVERT JUMPDEST PUSH1 0x2 PUSH1 0x5 DUP2 GT ISZERO PUSH3 0x21BE JUMPI PUSH3 0x21BD PUSH3 0x4624 JUMP JUMPDEST JUMPDEST PUSH1 0x6 PUSH1 0x1 SWAP1 SLOAD SWAP1 PUSH2 0x100 EXP SWAP1 DIV PUSH1 0xFF AND PUSH1 0x5 DUP2 GT ISZERO PUSH3 0x21E3 JUMPI PUSH3 0x21E2 PUSH3 0x4624 JUMP JUMPDEST JUMPDEST EQ ISZERO PUSH3 0x22A6 JUMPI PUSH3 0x21F4 PUSH3 0x2FB4 JUMP JUMPDEST ISZERO PUSH3 0x2226 JUMPI PUSH3 0x2220 PUSH1 0x3 PUSH1 0x40 MLOAD DUP1 PUSH1 0x60 ADD PUSH1 0x40 MSTORE DUP1 PUSH1 0x24 DUP2 MSTORE PUSH1 0x20 ADD PUSH3 0xB5D2 PUSH1 0x24 SWAP2 CODECOPY PUSH3 0x38DF JUMP JUMPDEST PUSH3 0x22A0 JUMP JUMPDEST PUSH3 0x2230 PUSH3 0x22E5 JUMP JUMPDEST ISZERO PUSH3 0x2262 JUMPI PUSH3 0x225C PUSH1 0x1 PUSH1 0x40 MLOAD DUP1 PUSH1 0x60 ADD PUSH1 0x40 MSTORE DUP1 PUSH1 0x38 DUP2 MSTORE PUSH1 0x20 ADD PUSH3 0xB5F6 PUSH1 0x38 SWAP2 CODECOPY PUSH3 0x3FA4 JUMP JUMPDEST PUSH3 0x229F JUMP JUMPDEST PUSH1 0x40 MLOAD PUSH32 0x8C379A000000000000000000000000000000000000000000000000000000000 DUP2 MSTORE PUSH1 0x4 ADD PUSH3 0x2296 SWAP1 PUSH3 0x54AA JUMP JUMPDEST PUSH1 0x40 MLOAD DUP1 SWAP2 SUB SWAP1 REVERT JUMPDEST JUMPDEST PUSH3 0x22E3 JUMP JUMPDEST PUSH1 0x40 MLOAD PUSH32 0x8C379A000000000000000000000000000000000000000000000000000000000 DUP2 MSTORE PUSH1 0x4 ADD PUSH3 0x22DA SWAP1 PUSH3 0x5542 JUMP JUMPDEST PUSH1 0x40 MLOAD DUP1 SWAP2 SUB SWAP1 REVERT JUMPDEST JUMP JUMPDEST PUSH1 0x0 DUP1 PUSH1 0x0 SWAP1 POP PUSH1 0x0 TIMESTAMP SWAP1 POP PUSH1 0x0 PUSH3 0x15180 PUSH1 0x2 SLOAD PUSH3 0x2306 SWAP2 SWAP1 PUSH3 0x5564 JUMP JUMPDEST PUSH1 0x7 PUSH1 0x0 SWAP1 SLOAD SWAP1 PUSH2 0x100 EXP SWAP1 DIV PUSH20 0xFFFFFFFFFFFFFFFFFFFFFFFFFFFFFFFFFFFFFFFF AND PUSH20 0xFFFFFFFFFFFFFFFFFFFFFFFFFFFFFFFFFFFFFFFF AND PUSH4 0xB90C1DBB PUSH1 0x40 MLOAD DUP2 PUSH4 0xFFFFFFFF AND PUSH1 0xE0 SHL DUP2 MSTORE PUSH1 0x4 ADD PUSH1 0x20 PUSH1 0x40 MLOAD DUP1 DUP4 SUB DUP2 DUP7 GAS STATICCALL ISZERO DUP1 ISZERO PUSH3 0x2374 JUMPI RETURNDATASIZE PUSH1 0x0 DUP1 RETURNDATACOPY RETURNDATASIZE PUSH1 0x0 REVERT JUMPDEST POP POP POP POP PUSH1 0x40 MLOAD RETURNDATASIZE PUSH1 0x1F NOT PUSH1 0x1F DUP3 ADD AND DUP3 ADD DUP1 PUSH1 0x40 MSTORE POP DUP2 ADD SWAP1 PUSH3 0x239A SWAP2 SWAP1 PUSH3 0x4DEC JUMP JUMPDEST PUSH3 0x23A6 SWAP2 SWAP1 PUSH3 0x55C5 JUMP JUMPDEST SWAP1 POP DUP1 DUP3 GT ISZERO PUSH3 0x23B6 JUMPI PUSH1 0x1 SWAP3 POP JUMPDEST DUP3 SWAP4 POP POP POP POP SWAP1 JUMP JUMPDEST PUSH1 0x0 PUSH1 0x1 PUSH1 0x5 DUP2 GT ISZERO PUSH3 0x23D8 JUMPI PUSH3 0x23D7 PUSH3 0x4624 JUMP JUMPDEST JUMPDEST PUSH1 0x6 PUSH1 0x1 SWAP1 SLOAD SWAP1 PUSH2 0x100 EXP SWAP1 DIV PUSH1 0xFF AND PUSH1 0x5 DUP2 GT ISZERO PUSH3 0x23FD JUMPI PUSH3 0x23FC PUSH3 0x4624 JUMP JUMPDEST JUMPDEST EQ ISZERO PUSH3 0x2419 JUMPI PUSH3 0x240E PUSH3 0x22E5 JUMP JUMPDEST PUSH3 0x2418 JUMPI PUSH1 0x1 SWAP1 POP JUMPDEST JUMPDEST DUP1 PUSH3 0x245C JUMPI PUSH1 0x40 MLOAD PUSH32 0x8C379A000000000000000000000000000000000000000000000000000000000 DUP2 MSTORE PUSH1 0x4 ADD PUSH3 0x2453 SWAP1 PUSH3 0x4E94 JUMP JUMPDEST PUSH1 0x40 MLOAD DUP1 SWAP2 SUB SWAP1 REVERT JUMPDEST PUSH3 0x2466 PUSH3 0x250A JUMP JUMPDEST ISZERO PUSH3 0x2500 JUMPI PUSH1 0x7 PUSH1 0x0 SWAP1 SLOAD SWAP1 PUSH2 0x100 EXP SWAP1 DIV PUSH20 0xFFFFFFFFFFFFFFFFFFFFFFFFFFFFFFFFFFFFFFFF AND PUSH20 0xFFFFFFFFFFFFFFFFFFFFFFFFFFFFFFFFFFFFFFFF AND PUSH4 0x44D5E03C CALLER DUP5 PUSH1 0x40 MLOAD DUP4 PUSH4 0xFFFFFFFF AND PUSH1 0xE0 SHL DUP2 MSTORE PUSH1 0x4 ADD PUSH3 0x24CB SWAP3 SWAP2 SWAP1 PUSH3 0x4EB6 JUMP JUMPDEST PUSH1 0x0 PUSH1 0x40 MLOAD DUP1 DUP4 SUB DUP2 PUSH1 0x0 DUP8 DUP1 EXTCODESIZE ISZERO DUP1 ISZERO PUSH3 0x24E6 JUMPI PUSH1 0x0 DUP1 REVERT JUMPDEST POP GAS CALL ISZERO DUP1 ISZERO PUSH3 0x24FB JUMPI RETURNDATASIZE PUSH1 0x0 DUP1 RETURNDATACOPY RETURNDATASIZE PUSH1 0x0 REVERT JUMPDEST POP POP POP POP JUMPDEST POP POP JUMP JUMPDEST PUSH1 0x2 SLOAD DUP2 JUMP JUMPDEST PUSH1 0x0 DUP1 CALLER SWAP1 POP PUSH1 0x6 PUSH1 0x3 SWAP1 SLOAD SWAP1 PUSH2 0x100 EXP SWAP1 DIV PUSH20 0xFFFFFFFFFFFFFFFFFFFFFFFFFFFFFFFFFFFFFFFF AND PUSH20 0xFFFFFFFFFFFFFFFFFFFFFFFFFFFFFFFFFFFFFFFF AND PUSH4 0x56909B7 DUP3 PUSH1 0x40 MLOAD DUP3 PUSH4 0xFFFFFFFF AND PUSH1 0xE0 SHL DUP2 MSTORE PUSH1 0x4 ADD PUSH3 0x256D SWAP2 SWAP1 PUSH3 0x42C0 JUMP JUMPDEST PUSH1 0x20 PUSH1 0x40 MLOAD DUP1 DUP4 SUB DUP2 DUP7 GAS STATICCALL ISZERO DUP1 ISZERO PUSH3 0x258B JUMPI RETURNDATASIZE PUSH1 0x0 DUP1 RETURNDATACOPY RETURNDATASIZE PUSH1 0x0 REVERT JUMPDEST POP POP POP POP PUSH1 0x40 MLOAD RETURNDATASIZE PUSH1 0x1F NOT PUSH1 0x1F DUP3 ADD AND DUP3 ADD DUP1 PUSH1 0x40 MSTORE POP DUP2 ADD SWAP1 PUSH3 0x25B1 SWAP2 SWAP1 PUSH3 0x4915 JUMP JUMPDEST DUP1 PUSH3 0x265A JUMPI POP PUSH1 0x6 PUSH1 0x3 SWAP1 SLOAD SWAP1 PUSH2 0x100 EXP SWAP1 DIV PUSH20 0xFFFFFFFFFFFFFFFFFFFFFFFFFFFFFFFFFFFFFFFF AND PUSH20 0xFFFFFFFFFFFFFFFFFFFFFFFFFFFFFFFFFFFFFFFF AND PUSH4 0xFA4D7AAE DUP3 PUSH1 0x40 MLOAD DUP3 PUSH4 0xFFFFFFFF AND PUSH1 0xE0 SHL DUP2 MSTORE PUSH1 0x4 ADD PUSH3 0x2615 SWAP2 SWAP1 PUSH3 0x42C0 JUMP JUMPDEST PUSH1 0x20 PUSH1 0x40 MLOAD DUP1 DUP4 SUB DUP2 DUP7 GAS STATICCALL ISZERO DUP1 ISZERO PUSH3 0x2633 JUMPI RETURNDATASIZE PUSH1 0x0 DUP1 RETURNDATACOPY RETURNDATASIZE PUSH1 0x0 REVERT JUMPDEST POP POP POP POP PUSH1 0x40 MLOAD RETURNDATASIZE PUSH1 0x1F NOT PUSH1 0x1F DUP3 ADD AND DUP3 ADD DUP1 PUSH1 0x40 MSTORE POP DUP2 ADD SWAP1 PUSH3 0x2659 SWAP2 SWAP1 PUSH3 0x4915 JUMP JUMPDEST JUMPDEST DUP1 PUSH3 0x2703 JUMPI POP PUSH1 0x6 PUSH1 0x3 SWAP1 SLOAD SWAP1 PUSH2 0x100 EXP SWAP1 DIV PUSH20 0xFFFFFFFFFFFFFFFFFFFFFFFFFFFFFFFFFFFFFFFF AND PUSH20 0xFFFFFFFFFFFFFFFFFFFFFFFFFFFFFFFFFFFFFFFF AND PUSH4 0x297027D5 DUP3 PUSH1 0x40 MLOAD DUP3 PUSH4 0xFFFFFFFF AND PUSH1 0xE0 SHL DUP2 MSTORE PUSH1 0x4 ADD PUSH3 0x26BE SWAP2 SWAP1 PUSH3 0x42C0 JUMP JUMPDEST PUSH1 0x20 PUSH1 0x40 MLOAD DUP1 DUP4 SUB DUP2 DUP7 GAS STATICCALL ISZERO DUP1 ISZERO PUSH3 0x26DC JUMPI RETURNDATASIZE PUSH1 0x0 DUP1 RETURNDATACOPY RETURNDATASIZE PUSH1 0x0 REVERT JUMPDEST POP POP POP POP PUSH1 0x40 MLOAD RETURNDATASIZE PUSH1 0x1F NOT PUSH1 0x1F DUP3 ADD AND DUP3 ADD DUP1 PUSH1 0x40 MSTORE POP DUP2 ADD SWAP1 PUSH3 0x2702 SWAP2 SWAP1 PUSH3 0x4915 JUMP JUMPDEST JUMPDEST ISZERO PUSH3 0x2714 JUMPI PUSH1 0x1 SWAP2 POP POP PUSH3 0x271A JUMP JUMPDEST PUSH1 0x0 SWAP2 POP POP JUMPDEST SWAP1 JUMP JUMPDEST PUSH1 0x0 DUP1 PUSH1 0x7 PUSH1 0x0 SWAP1 SLOAD SWAP1 PUSH2 0x100 EXP SWAP1 DIV PUSH20 0xFFFFFFFFFFFFFFFFFFFFFFFFFFFFFFFFFFFFFFFF AND PUSH20 0xFFFFFFFFFFFFFFFFFFFFFFFFFFFFFFFFFFFFFFFF AND PUSH4 0xCC2EE196 PUSH1 0x40 MLOAD DUP2 PUSH4 0xFFFFFFFF AND PUSH1 0xE0 SHL DUP2 MSTORE PUSH1 0x4 ADD PUSH1 0x0 PUSH1 0x40 MLOAD DUP1 DUP4 SUB DUP2 DUP7 GAS STATICCALL ISZERO DUP1 ISZERO PUSH3 0x278E JUMPI RETURNDATASIZE PUSH1 0x0 DUP1 RETURNDATACOPY RETURNDATASIZE PUSH1 0x0 REVERT JUMPDEST POP POP POP POP PUSH1 0x40 MLOAD RETURNDATASIZE PUSH1 0x0 DUP3 RETURNDATACOPY RETURNDATASIZE PUSH1 0x1F NOT PUSH1 0x1F DUP3 ADD AND DUP3 ADD DUP1 PUSH1 0x40 MSTORE POP DUP2 ADD SWAP1 PUSH3 0x27B9 SWAP2 SWAP1 PUSH3 0x4D9B JUMP JUMPDEST SWAP1 POP PUSH1 0x0 JUMPDEST DUP2 MLOAD DUP2 LT ISZERO PUSH3 0x2840 JUMPI DUP2 DUP2 DUP2 MLOAD DUP2 LT PUSH3 0x27DE JUMPI PUSH3 0x27DD PUSH3 0x52F0 JUMP JUMPDEST JUMPDEST PUSH1 0x20 MUL PUSH1 0x20 ADD ADD MLOAD PUSH1 0x20 ADD MLOAD PUSH20 0xFFFFFFFFFFFFFFFFFFFFFFFFFFFFFFFFFFFFFFFF AND DUP5 PUSH20 0xFFFFFFFFFFFFFFFFFFFFFFFFFFFFFFFFFFFFFFFF AND EQ ISZERO PUSH3 0x282A JUMPI PUSH1 0x1 SWAP3 POP POP POP PUSH3 0x2847 JUMP JUMPDEST DUP1 DUP1 PUSH3 0x2837 SWAP1 PUSH3 0x534E JUMP JUMPDEST SWAP2 POP POP PUSH3 0x27BE JUMP JUMPDEST POP PUSH1 0x0 SWAP2 POP POP JUMPDEST SWAP2 SWAP1 POP JUMP JUMPDEST PUSH1 0x60 PUSH1 0x8 PUSH1 0x0 SWAP1 SLOAD SWAP1 PUSH2 0x100 EXP SWAP1 DIV PUSH20 0xFFFFFFFFFFFFFFFFFFFFFFFFFFFFFFFFFFFFFFFF AND PUSH20 0xFFFFFFFFFFFFFFFFFFFFFFFFFFFFFFFFFFFFFFFF AND PUSH4 0xC467A69C PUSH1 0x40 MLOAD DUP2 PUSH4 0xFFFFFFFF AND PUSH1 0xE0 SHL DUP2 MSTORE PUSH1 0x4 ADD PUSH1 0x20 PUSH1 0x40 MLOAD DUP1 DUP4 SUB DUP2 PUSH1 0x0 DUP8 GAS CALL ISZERO DUP1 ISZERO PUSH3 0x28BE JUMPI RETURNDATASIZE PUSH1 0x0 DUP1 RETURNDATACOPY RETURNDATASIZE PUSH1 0x0 REVERT JUMPDEST POP POP POP POP PUSH1 0x40 MLOAD RETURNDATASIZE PUSH1 0x1F NOT PUSH1 0x1F DUP3 ADD AND DUP3 ADD DUP1 PUSH1 0x40 MSTORE POP DUP2 ADD SWAP1 PUSH3 0x28E4 SWAP2 SWAP1 PUSH3 0x4915 JUMP JUMPDEST ISZERO PUSH3 0x298B JUMPI PUSH1 0x8 PUSH1 0x0 SWAP1 SLOAD SWAP1 PUSH2 0x100 EXP SWAP1 DIV PUSH20 0xFFFFFFFFFFFFFFFFFFFFFFFFFFFFFFFFFFFFFFFF AND PUSH20 0xFFFFFFFFFFFFFFFFFFFFFFFFFFFFFFFFFFFFFFFF AND PUSH4 0xCC2EE196 PUSH1 0x40 MLOAD DUP2 PUSH4 0xFFFFFFFF AND PUSH1 0xE0 SHL DUP2 MSTORE PUSH1 0x4 ADD PUSH1 0x0 PUSH1 0x40 MLOAD DUP1 DUP4 SUB DUP2 DUP7 GAS STATICCALL ISZERO DUP1 ISZERO PUSH3 0x2958 JUMPI RETURNDATASIZE PUSH1 0x0 DUP1 RETURNDATACOPY RETURNDATASIZE PUSH1 0x0 REVERT JUMPDEST POP POP POP POP PUSH1 0x40 MLOAD RETURNDATASIZE PUSH1 0x0 DUP3 RETURNDATACOPY RETURNDATASIZE PUSH1 0x1F NOT PUSH1 0x1F DUP3 ADD AND DUP3 ADD DUP1 PUSH1 0x40 MSTORE POP DUP2 ADD SWAP1 PUSH3 0x2983 SWAP2 SWAP1 PUSH3 0x4D9B JUMP JUMPDEST SWAP1 POP PUSH3 0x29C8 JUMP JUMPDEST PUSH1 0x40 MLOAD PUSH32 0x8C379A000000000000000000000000000000000000000000000000000000000 DUP2 MSTORE PUSH1 0x4 ADD PUSH3 0x29BF SWAP1 PUSH3 0x5672 JUMP JUMPDEST PUSH1 0x40 MLOAD DUP1 SWAP2 SUB SWAP1 REVERT JUMPDEST SWAP1 JUMP JUMPDEST PUSH1 0x6 PUSH1 0x1 SWAP1 SLOAD SWAP1 PUSH2 0x100 EXP SWAP1 DIV PUSH1 0xFF AND DUP2 JUMP JUMPDEST PUSH1 0x1 DUP2 DUP2 SLOAD DUP2 LT PUSH3 0x29EF JUMPI PUSH1 0x0 DUP1 REVERT JUMPDEST SWAP1 PUSH1 0x0 MSTORE PUSH1 0x20 PUSH1 0x0 KECCAK256 ADD PUSH1 0x0 SWAP2 POP SLOAD SWAP1 PUSH2 0x100 EXP SWAP1 DIV PUSH20 0xFFFFFFFFFFFFFFFFFFFFFFFFFFFFFFFFFFFFFFFF AND DUP2 JUMP JUMPDEST PUSH1 0x0 DUP1 PUSH1 0x1 SWAP1 POP PUSH1 0x0 JUMPDEST DUP4 MLOAD DUP2 LT ISZERO PUSH3 0x2B10 JUMPI PUSH1 0x6 PUSH1 0x3 SWAP1 SLOAD SWAP1 PUSH2 0x100 EXP SWAP1 DIV PUSH20 0xFFFFFFFFFFFFFFFFFFFFFFFFFFFFFFFFFFFFFFFF AND PUSH20 0xFFFFFFFFFFFFFFFFFFFFFFFFFFFFFFFFFFFFFFFF AND PUSH4 0xFA4D7AAE DUP6 DUP4 DUP2 MLOAD DUP2 LT PUSH3 0x2A86 JUMPI PUSH3 0x2A85 PUSH3 0x52F0 JUMP JUMPDEST JUMPDEST PUSH1 0x20 MUL PUSH1 0x20 ADD ADD MLOAD PUSH1 0x40 MLOAD DUP3 PUSH4 0xFFFFFFFF AND PUSH1 0xE0 SHL DUP2 MSTORE PUSH1 0x4 ADD PUSH3 0x2AAC SWAP2 SWAP1 PUSH3 0x42C0 JUMP JUMPDEST PUSH1 0x20 PUSH1 0x40 MLOAD DUP1 DUP4 SUB DUP2 DUP7 GAS STATICCALL ISZERO DUP1 ISZERO PUSH3 0x2ACA JUMPI RETURNDATASIZE PUSH1 0x0 DUP1 RETURNDATACOPY RETURNDATASIZE PUSH1 0x0 REVERT JUMPDEST POP POP POP POP PUSH1 0x40 MLOAD RETURNDATASIZE PUSH1 0x1F NOT PUSH1 0x1F DUP3 ADD AND DUP3 ADD DUP1 PUSH1 0x40 MSTORE POP DUP2 ADD SWAP1 PUSH3 0x2AF0 SWAP2 SWAP1 PUSH3 0x4915 JUMP JUMPDEST PUSH3 0x2AFA JUMPI PUSH1 0x0 SWAP2 POP JUMPDEST DUP1 DUP1 PUSH3 0x2B07 SWAP1 PUSH3 0x534E JUMP JUMPDEST SWAP2 POP POP PUSH3 0x2A28 JUMP JUMPDEST POP DUP1 SWAP2 POP POP SWAP2 SWAP1 POP JUMP JUMPDEST PUSH1 0x0 DUP1 CALLER SWAP1 POP PUSH1 0x6 PUSH1 0x3 SWAP1 SLOAD SWAP1 PUSH2 0x100 EXP SWAP1 DIV PUSH20 0xFFFFFFFFFFFFFFFFFFFFFFFFFFFFFFFFFFFFFFFF AND PUSH20 0xFFFFFFFFFFFFFFFFFFFFFFFFFFFFFFFFFFFFFFFF AND PUSH4 0xFA4D7AAE DUP3 PUSH1 0x40 MLOAD DUP3 PUSH4 0xFFFFFFFF AND PUSH1 0xE0 SHL DUP2 MSTORE PUSH1 0x4 ADD PUSH3 0x2B7D SWAP2 SWAP1 PUSH3 0x42C0 JUMP JUMPDEST PUSH1 0x20 PUSH1 0x40 MLOAD DUP1 DUP4 SUB DUP2 DUP7 GAS STATICCALL ISZERO DUP1 ISZERO PUSH3 0x2B9B JUMPI RETURNDATASIZE PUSH1 0x0 DUP1 RETURNDATACOPY RETURNDATASIZE PUSH1 0x0 REVERT JUMPDEST POP POP POP POP PUSH1 0x40 MLOAD RETURNDATASIZE PUSH1 0x1F NOT PUSH1 0x1F DUP3 ADD AND DUP3 ADD DUP1 PUSH1 0x40 MSTORE POP DUP2 ADD SWAP1 PUSH3 0x2BC1 SWAP2 SWAP1 PUSH3 0x4915 JUMP JUMPDEST ISZERO PUSH3 0x2BD2 JUMPI PUSH1 0x1 SWAP2 POP POP PUSH3 0x2BD8 JUMP JUMPDEST PUSH1 0x0 SWAP2 POP POP JUMPDEST SWAP1 JUMP JUMPDEST PUSH1 0x0 DUP1 PUSH3 0x2BE8 PUSH3 0xB05 JUMP JUMPDEST SWAP1 POP PUSH1 0x9 PUSH1 0x0 SWAP1 SLOAD SWAP1 PUSH2 0x100 EXP SWAP1 DIV PUSH20 0xFFFFFFFFFFFFFFFFFFFFFFFFFFFFFFFFFFFFFFFF AND PUSH20 0xFFFFFFFFFFFFFFFFFFFFFFFFFFFFFFFFFFFFFFFF AND PUSH4 0xFD3BAD52 PUSH1 0x3 SLOAD DUP4 PUSH3 0x2C38 SWAP2 SWAP1 PUSH3 0x5564 JUMP JUMPDEST PUSH1 0x64 PUSH1 0x40 MLOAD DUP4 PUSH4 0xFFFFFFFF AND PUSH1 0xE0 SHL DUP2 MSTORE PUSH1 0x4 ADD PUSH3 0x2C59 SWAP3 SWAP2 SWAP1 PUSH3 0x56E1 JUMP JUMPDEST PUSH1 0x20 PUSH1 0x40 MLOAD DUP1 DUP4 SUB DUP2 DUP7 GAS STATICCALL ISZERO DUP1 ISZERO PUSH3 0x2C77 JUMPI RETURNDATASIZE PUSH1 0x0 DUP1 RETURNDATACOPY RETURNDATASIZE PUSH1 0x0 REVERT JUMPDEST POP POP POP POP PUSH1 0x40 MLOAD RETURNDATASIZE PUSH1 0x1F NOT PUSH1 0x1F DUP3 ADD AND DUP3 ADD DUP1 PUSH1 0x40 MSTORE POP DUP2 ADD SWAP1 PUSH3 0x2C9D SWAP2 SWAP1 PUSH3 0x4DEC JUMP JUMPDEST SWAP2 POP POP SWAP1 JUMP JUMPDEST PUSH1 0x0 DUP1 PUSH1 0x5 DUP2 GT ISZERO PUSH3 0x2CBB JUMPI PUSH3 0x2CBA PUSH3 0x4624 JUMP JUMPDEST JUMPDEST PUSH1 0x6 PUSH1 0x1 SWAP1 SLOAD SWAP1 PUSH2 0x100 EXP SWAP1 DIV PUSH1 0xFF AND PUSH1 0x5 DUP2 GT ISZERO PUSH3 0x2CE0 JUMPI PUSH3 0x2CDF PUSH3 0x4624 JUMP JUMPDEST JUMPDEST EQ ISZERO PUSH3 0x2CFC JUMPI PUSH3 0x2CF1 PUSH3 0x22E5 JUMP JUMPDEST PUSH3 0x2CFB JUMPI PUSH1 0x1 SWAP1 POP JUMPDEST JUMPDEST DUP1 PUSH3 0x2D3F JUMPI PUSH1 0x40 MLOAD PUSH32 0x8C379A000000000000000000000000000000000000000000000000000000000 DUP2 MSTORE PUSH1 0x4 ADD PUSH3 0x2D36 SWAP1 PUSH3 0x4F59 JUMP JUMPDEST PUSH1 0x40 MLOAD DUP1 SWAP2 SUB SWAP1 REVERT JUMPDEST PUSH1 0x0 PUSH1 0x7 PUSH1 0x0 SWAP1 SLOAD SWAP1 PUSH2 0x100 EXP SWAP1 DIV PUSH20 0xFFFFFFFFFFFFFFFFFFFFFFFFFFFFFFFFFFFFFFFF AND PUSH20 0xFFFFFFFFFFFFFFFFFFFFFFFFFFFFFFFFFFFFFFFF AND PUSH4 0xCC2EE196 PUSH1 0x40 MLOAD DUP2 PUSH4 0xFFFFFFFF AND PUSH1 0xE0 SHL DUP2 MSTORE PUSH1 0x4 ADD PUSH1 0x0 PUSH1 0x40 MLOAD DUP1 DUP4 SUB DUP2 DUP7 GAS STATICCALL ISZERO DUP1 ISZERO PUSH3 0x2DAF JUMPI RETURNDATASIZE PUSH1 0x0 DUP1 RETURNDATACOPY RETURNDATASIZE PUSH1 0x0 REVERT JUMPDEST POP POP POP POP PUSH1 0x40 MLOAD RETURNDATASIZE PUSH1 0x0 DUP3 RETURNDATACOPY RETURNDATASIZE PUSH1 0x1F NOT PUSH1 0x1F DUP3 ADD AND DUP3 ADD DUP1 PUSH1 0x40 MSTORE POP DUP2 ADD SWAP1 PUSH3 0x2DDA SWAP2 SWAP1 PUSH3 0x4D9B JUMP JUMPDEST SWAP1 POP PUSH1 0x0 JUMPDEST DUP2 MLOAD DUP2 LT ISZERO PUSH3 0x2F73 JUMPI DUP2 DUP2 DUP2 MLOAD DUP2 LT PUSH3 0x2DFF JUMPI PUSH3 0x2DFE PUSH3 0x52F0 JUMP JUMPDEST JUMPDEST PUSH1 0x20 MUL PUSH1 0x20 ADD ADD MLOAD PUSH1 0x20 ADD MLOAD PUSH20 0xFFFFFFFFFFFFFFFFFFFFFFFFFFFFFFFFFFFFFFFF AND CALLER PUSH20 0xFFFFFFFFFFFFFFFFFFFFFFFFFFFFFFFFFFFFFFFF AND EQ ISZERO PUSH3 0x2F5D JUMPI DUP2 DUP2 DUP2 MLOAD DUP2 LT PUSH3 0x2E55 JUMPI PUSH3 0x2E54 PUSH3 0x52F0 JUMP JUMPDEST JUMPDEST PUSH1 0x20 MUL PUSH1 0x20 ADD ADD MLOAD PUSH1 0x60 ADD MLOAD PUSH3 0x2F20 JUMPI PUSH1 0x7 PUSH1 0x0 SWAP1 SLOAD SWAP1 PUSH2 0x100 EXP SWAP1 DIV PUSH20 0xFFFFFFFFFFFFFFFFFFFFFFFFFFFFFFFFFFFFFFFF AND PUSH20 0xFFFFFFFFFFFFFFFFFFFFFFFFFFFFFFFFFFFFFFFF AND PUSH4 0xDDD7531B DUP4 DUP4 DUP2 MLOAD DUP2 LT PUSH3 0x2EBA JUMPI PUSH3 0x2EB9 PUSH3 0x52F0 JUMP JUMPDEST JUMPDEST PUSH1 0x20 MUL PUSH1 0x20 ADD ADD MLOAD PUSH1 0x0 ADD MLOAD PUSH1 0x40 MLOAD DUP3 PUSH4 0xFFFFFFFF AND PUSH1 0xE0 SHL DUP2 MSTORE PUSH1 0x4 ADD PUSH3 0x2EE4 SWAP2 SWAP1 PUSH3 0x45A4 JUMP JUMPDEST PUSH1 0x0 PUSH1 0x40 MLOAD DUP1 DUP4 SUB DUP2 PUSH1 0x0 DUP8 DUP1 EXTCODESIZE ISZERO DUP1 ISZERO PUSH3 0x2EFF JUMPI PUSH1 0x0 DUP1 REVERT JUMPDEST POP GAS CALL ISZERO DUP1 ISZERO PUSH3 0x2F14 JUMPI RETURNDATASIZE PUSH1 0x0 DUP1 RETURNDATACOPY RETURNDATASIZE PUSH1 0x0 REVERT JUMPDEST POP POP POP POP POP POP PUSH3 0x2FB1 JUMP JUMPDEST PUSH1 0x40 MLOAD PUSH32 0x8C379A000000000000000000000000000000000000000000000000000000000 DUP2 MSTORE PUSH1 0x4 ADD PUSH3 0x2F54 SWAP1 PUSH3 0x5784 JUMP JUMPDEST PUSH1 0x40 MLOAD DUP1 SWAP2 SUB SWAP1 REVERT JUMPDEST DUP1 DUP1 PUSH3 0x2F6A SWAP1 PUSH3 0x534E JUMP JUMPDEST SWAP2 POP POP PUSH3 0x2DDF JUMP JUMPDEST POP PUSH1 0x40 MLOAD PUSH32 0x8C379A000000000000000000000000000000000000000000000000000000000 DUP2 MSTORE PUSH1 0x4 ADD PUSH3 0x2FA8 SWAP1 PUSH3 0x57F6 JUMP JUMPDEST PUSH1 0x40 MLOAD DUP1 SWAP2 SUB SWAP1 REVERT JUMPDEST POP JUMP JUMPDEST PUSH1 0x0 DUP1 PUSH3 0x2FC1 PUSH3 0xB05 JUMP JUMPDEST SWAP1 POP PUSH1 0x0 PUSH3 0x2FCF PUSH3 0x2BDB JUMP JUMPDEST SWAP1 POP DUP1 DUP3 GT SWAP3 POP POP POP SWAP1 JUMP JUMPDEST PUSH1 0x60 PUSH1 0x0 PUSH3 0x2FE9 PUSH3 0x14FB JUMP JUMPDEST SWAP1 POP PUSH1 0x0 DUP2 MLOAD PUSH8 0xFFFFFFFFFFFFFFFF DUP2 GT ISZERO PUSH3 0x300B JUMPI PUSH3 0x300A PUSH3 0x46C6 JUMP JUMPDEST JUMPDEST PUSH1 0x40 MLOAD SWAP1 DUP1 DUP3 MSTORE DUP1 PUSH1 0x20 MUL PUSH1 0x20 ADD DUP3 ADD PUSH1 0x40 MSTORE DUP1 ISZERO PUSH3 0x3048 JUMPI DUP2 PUSH1 0x20 ADD JUMPDEST PUSH3 0x3034 PUSH3 0x40C5 JUMP JUMPDEST DUP2 MSTORE PUSH1 0x20 ADD SWAP1 PUSH1 0x1 SWAP1 SUB SWAP1 DUP2 PUSH3 0x302A JUMPI SWAP1 POP JUMPDEST POP SWAP1 POP PUSH1 0x0 DUP1 JUMPDEST DUP4 MLOAD DUP2 LT ISZERO PUSH3 0x30F1 JUMPI PUSH1 0x0 DUP5 DUP3 DUP2 MLOAD DUP2 LT PUSH3 0x3071 JUMPI PUSH3 0x3070 PUSH3 0x52F0 JUMP JUMPDEST JUMPDEST PUSH1 0x20 MUL PUSH1 0x20 ADD ADD MLOAD PUSH1 0xC0 ADD MLOAD SWAP1 POP PUSH1 0x4 SLOAD DUP2 GT ISZERO PUSH3 0x30DA JUMPI DUP5 DUP3 DUP2 MLOAD DUP2 LT PUSH3 0x30A0 JUMPI PUSH3 0x309F PUSH3 0x52F0 JUMP JUMPDEST JUMPDEST PUSH1 0x20 MUL PUSH1 0x20 ADD ADD MLOAD DUP5 DUP5 DUP2 MLOAD DUP2 LT PUSH3 0x30BE JUMPI PUSH3 0x30BD PUSH3 0x52F0 JUMP JUMPDEST JUMPDEST PUSH1 0x20 MUL PUSH1 0x20 ADD ADD DUP2 SWAP1 MSTORE POP DUP3 DUP1 PUSH3 0x30D6 SWAP1 PUSH3 0x534E JUMP JUMPDEST SWAP4 POP POP JUMPDEST POP DUP1 DUP1 PUSH3 0x30E8 SWAP1 PUSH3 0x534E JUMP JUMPDEST SWAP2 POP POP PUSH3 0x304F JUMP JUMPDEST POP DUP1 DUP3 MSTORE DUP2 SWAP4 POP POP POP POP SWAP1 JUMP JUMPDEST PUSH1 0x0 DUP1 PUSH1 0x1 SWAP1 POP PUSH1 0x0 JUMPDEST DUP4 MLOAD DUP2 LT ISZERO PUSH3 0x31F0 JUMPI PUSH1 0x6 PUSH1 0x3 SWAP1 SLOAD SWAP1 PUSH2 0x100 EXP SWAP1 DIV PUSH20 0xFFFFFFFFFFFFFFFFFFFFFFFFFFFFFFFFFFFFFFFF AND PUSH20 0xFFFFFFFFFFFFFFFFFFFFFFFFFFFFFFFFFFFFFFFF AND PUSH4 0x297027D5 DUP6 DUP4 DUP2 MLOAD DUP2 LT PUSH3 0x3166 JUMPI PUSH3 0x3165 PUSH3 0x52F0 JUMP JUMPDEST JUMPDEST PUSH1 0x20 MUL PUSH1 0x20 ADD ADD MLOAD PUSH1 0x40 MLOAD DUP3 PUSH4 0xFFFFFFFF AND PUSH1 0xE0 SHL DUP2 MSTORE PUSH1 0x4 ADD PUSH3 0x318C SWAP2 SWAP1 PUSH3 0x42C0 JUMP JUMPDEST PUSH1 0x20 PUSH1 0x40 MLOAD DUP1 DUP4 SUB DUP2 DUP7 GAS STATICCALL ISZERO DUP1 ISZERO PUSH3 0x31AA JUMPI RETURNDATASIZE PUSH1 0x0 DUP1 RETURNDATACOPY RETURNDATASIZE PUSH1 0x0 REVERT JUMPDEST POP POP POP POP PUSH1 0x40 MLOAD RETURNDATASIZE PUSH1 0x1F NOT PUSH1 0x1F DUP3 ADD AND DUP3 ADD DUP1 PUSH1 0x40 MSTORE POP DUP2 ADD SWAP1 PUSH3 0x31D0 SWAP2 SWAP1 PUSH3 0x4915 JUMP JUMPDEST PUSH3 0x31DA JUMPI PUSH1 0x0 SWAP2 POP JUMPDEST DUP1 DUP1 PUSH3 0x31E7 SWAP1 PUSH3 0x534E JUMP JUMPDEST SWAP2 POP POP PUSH3 0x3108 JUMP JUMPDEST POP DUP1 SWAP2 POP POP SWAP2 SWAP1 POP JUMP JUMPDEST PUSH1 0x60 PUSH1 0x8 PUSH1 0x0 SWAP1 SLOAD SWAP1 PUSH2 0x100 EXP SWAP1 DIV PUSH20 0xFFFFFFFFFFFFFFFFFFFFFFFFFFFFFFFFFFFFFFFF AND PUSH20 0xFFFFFFFFFFFFFFFFFFFFFFFFFFFFFFFFFFFFFFFF AND PUSH4 0xC467A69C PUSH1 0x40 MLOAD DUP2 PUSH4 0xFFFFFFFF AND PUSH1 0xE0 SHL DUP2 MSTORE PUSH1 0x4 ADD PUSH1 0x20 PUSH1 0x40 MLOAD DUP1 DUP4 SUB DUP2 PUSH1 0x0 DUP8 GAS CALL ISZERO DUP1 ISZERO PUSH3 0x326C JUMPI RETURNDATASIZE PUSH1 0x0 DUP1 RETURNDATACOPY RETURNDATASIZE PUSH1 0x0 REVERT JUMPDEST POP POP POP POP PUSH1 0x40 MLOAD RETURNDATASIZE PUSH1 0x1F NOT PUSH1 0x1F DUP3 ADD AND DUP3 ADD DUP1 PUSH1 0x40 MSTORE POP DUP2 ADD SWAP1 PUSH3 0x3292 SWAP2 SWAP1 PUSH3 0x4915 JUMP JUMPDEST PUSH3 0x32D4 JUMPI PUSH1 0x40 MLOAD PUSH32 0x8C379A000000000000000000000000000000000000000000000000000000000 DUP2 MSTORE PUSH1 0x4 ADD PUSH3 0x32CB SWAP1 PUSH3 0x5672 JUMP JUMPDEST PUSH1 0x40 MLOAD DUP1 SWAP2 SUB SWAP1 REVERT JUMPDEST PUSH1 0x0 PUSH3 0x32E0 PUSH3 0x284C JUMP JUMPDEST SWAP1 POP PUSH1 0x0 DUP2 MLOAD PUSH8 0xFFFFFFFFFFFFFFFF DUP2 GT ISZERO PUSH3 0x3302 JUMPI PUSH3 0x3301 PUSH3 0x46C6 JUMP JUMPDEST JUMPDEST PUSH1 0x40 MLOAD SWAP1 DUP1 DUP3 MSTORE DUP1 PUSH1 0x20 MUL PUSH1 0x20 ADD DUP3 ADD PUSH1 0x40 MSTORE DUP1 ISZERO PUSH3 0x333F JUMPI DUP2 PUSH1 0x20 ADD JUMPDEST PUSH3 0x332B PUSH3 0x40C5 JUMP JUMPDEST DUP2 MSTORE PUSH1 0x20 ADD SWAP1 PUSH1 0x1 SWAP1 SUB SWAP1 DUP2 PUSH3 0x3321 JUMPI SWAP1 POP JUMPDEST POP SWAP1 POP PUSH3 0x334C PUSH3 0x40C5 JUMP JUMPDEST PUSH1 0x0 DUP1 PUSH1 0x0 JUMPDEST DUP6 MLOAD DUP2 LT ISZERO PUSH3 0x3446 JUMPI PUSH1 0x0 DUP7 DUP3 DUP2 MLOAD DUP2 LT PUSH3 0x3374 JUMPI PUSH3 0x3373 PUSH3 0x52F0 JUMP JUMPDEST JUMPDEST PUSH1 0x20 MUL PUSH1 0x20 ADD ADD MLOAD PUSH1 0xC0 ADD MLOAD SWAP1 POP PUSH1 0x5 SLOAD DUP4 LT PUSH3 0x33DF JUMPI DUP5 PUSH1 0xC0 ADD MLOAD DUP2 GT ISZERO PUSH3 0x33D9 JUMPI DUP7 DUP3 DUP2 MLOAD DUP2 LT PUSH3 0x33AF JUMPI PUSH3 0x33AE PUSH3 0x52F0 JUMP JUMPDEST JUMPDEST PUSH1 0x20 MUL PUSH1 0x20 ADD ADD MLOAD DUP7 DUP6 DUP2 MLOAD DUP2 LT PUSH3 0x33CD JUMPI PUSH3 0x33CC PUSH3 0x52F0 JUMP JUMPDEST JUMPDEST PUSH1 0x20 MUL PUSH1 0x20 ADD ADD DUP2 SWAP1 MSTORE POP JUMPDEST PUSH3 0x342F JUMP JUMPDEST DUP7 DUP3 DUP2 MLOAD DUP2 LT PUSH3 0x33F5 JUMPI PUSH3 0x33F4 PUSH3 0x52F0 JUMP JUMPDEST JUMPDEST PUSH1 0x20 MUL PUSH1 0x20 ADD ADD MLOAD DUP7 DUP5 DUP2 MLOAD DUP2 LT PUSH3 0x3413 JUMPI PUSH3 0x3412 PUSH3 0x52F0 JUMP JUMPDEST JUMPDEST PUSH1 0x20 MUL PUSH1 0x20 ADD ADD DUP2 SWAP1 MSTORE POP DUP3 DUP1 PUSH3 0x342B SWAP1 PUSH3 0x534E JUMP JUMPDEST SWAP4 POP POP JUMPDEST POP DUP1 DUP1 PUSH3 0x343D SWAP1 PUSH3 0x534E JUMP JUMPDEST SWAP2 POP POP PUSH3 0x3352 JUMP JUMPDEST POP DUP1 DUP5 MSTORE DUP4 SWAP6 POP POP POP POP POP POP SWAP1 JUMP JUMPDEST PUSH1 0x3 PUSH1 0x5 DUP2 GT ISZERO PUSH3 0x346C JUMPI PUSH3 0x346B PUSH3 0x4624 JUMP JUMPDEST JUMPDEST PUSH1 0x6 PUSH1 0x1 SWAP1 SLOAD SWAP1 PUSH2 0x100 EXP SWAP1 DIV PUSH1 0xFF AND PUSH1 0x5 DUP2 GT ISZERO PUSH3 0x3491 JUMPI PUSH3 0x3490 PUSH3 0x4624 JUMP JUMPDEST JUMPDEST EQ ISZERO PUSH3 0x38A0 JUMPI PUSH1 0x0 PUSH3 0x34A4 PUSH3 0x31FA JUMP JUMPDEST SWAP1 POP PUSH1 0x0 DUP2 MLOAD PUSH8 0xFFFFFFFFFFFFFFFF DUP2 GT ISZERO PUSH3 0x34C6 JUMPI PUSH3 0x34C5 PUSH3 0x46C6 JUMP JUMPDEST JUMPDEST PUSH1 0x40 MLOAD SWAP1 DUP1 DUP3 MSTORE DUP1 PUSH1 0x20 MUL PUSH1 0x20 ADD DUP3 ADD PUSH1 0x40 MSTORE DUP1 ISZERO PUSH3 0x34F5 JUMPI DUP2 PUSH1 0x20 ADD PUSH1 0x20 DUP3 MUL DUP1 CALLDATASIZE DUP4 CALLDATACOPY DUP1 DUP3 ADD SWAP2 POP POP SWAP1 POP JUMPDEST POP SWAP1 POP PUSH1 0x0 JUMPDEST DUP3 MLOAD DUP2 LT ISZERO PUSH3 0x358D JUMPI DUP3 DUP2 DUP2 MLOAD DUP2 LT PUSH3 0x351B JUMPI PUSH3 0x351A PUSH3 0x52F0 JUMP JUMPDEST JUMPDEST PUSH1 0x20 MUL PUSH1 0x20 ADD ADD MLOAD PUSH1 0x20 ADD MLOAD DUP3 DUP3 DUP2 MLOAD DUP2 LT PUSH3 0x353D JUMPI PUSH3 0x353C PUSH3 0x52F0 JUMP JUMPDEST JUMPDEST PUSH1 0x20 MUL PUSH1 0x20 ADD ADD SWAP1 PUSH20 0xFFFFFFFFFFFFFFFFFFFFFFFFFFFFFFFFFFFFFFFF AND SWAP1 DUP2 PUSH20 0xFFFFFFFFFFFFFFFFFFFFFFFFFFFFFFFFFFFFFFFF AND DUP2 MSTORE POP POP DUP1 DUP1 PUSH3 0x3584 SWAP1 PUSH3 0x534E JUMP JUMPDEST SWAP2 POP POP PUSH3 0x34FB JUMP JUMPDEST POP PUSH1 0x0 PUSH1 0x3 DUP2 GT ISZERO PUSH3 0x35A5 JUMPI PUSH3 0x35A4 PUSH3 0x4624 JUMP JUMPDEST JUMPDEST PUSH1 0x6 PUSH1 0x0 SWAP1 SLOAD SWAP1 PUSH2 0x100 EXP SWAP1 DIV PUSH1 0xFF AND PUSH1 0x3 DUP2 GT ISZERO PUSH3 0x35CA JUMPI PUSH3 0x35C9 PUSH3 0x4624 JUMP JUMPDEST JUMPDEST EQ ISZERO PUSH3 0x3715 JUMPI PUSH1 0x0 PUSH1 0x6 PUSH1 0x3 SWAP1 SLOAD SWAP1 PUSH2 0x100 EXP SWAP1 DIV PUSH20 0xFFFFFFFFFFFFFFFFFFFFFFFFFFFFFFFFFFFFFFFF AND PUSH20 0xFFFFFFFFFFFFFFFFFFFFFFFFFFFFFFFFFFFFFFFF AND PUSH4 0x20E05D9C DUP4 PUSH1 0x40 MLOAD DUP3 PUSH4 0xFFFFFFFF AND PUSH1 0xE0 SHL DUP2 MSTORE PUSH1 0x4 ADD PUSH3 0x3630 SWAP2 SWAP1 PUSH3 0x58D5 JUMP JUMPDEST PUSH1 0x0 PUSH1 0x40 MLOAD DUP1 DUP4 SUB DUP2 DUP7 GAS STATICCALL ISZERO DUP1 ISZERO PUSH3 0x364E JUMPI RETURNDATASIZE PUSH1 0x0 DUP1 RETURNDATACOPY RETURNDATASIZE PUSH1 0x0 REVERT JUMPDEST POP POP POP POP PUSH1 0x40 MLOAD RETURNDATASIZE PUSH1 0x0 DUP3 RETURNDATACOPY RETURNDATASIZE PUSH1 0x1F NOT PUSH1 0x1F DUP3 ADD AND DUP3 ADD DUP1 PUSH1 0x40 MSTORE POP DUP2 ADD SWAP1 PUSH3 0x3679 SWAP2 SWAP1 PUSH3 0x5A2E JUMP JUMPDEST SWAP1 POP PUSH1 0x6 PUSH1 0x3 SWAP1 SLOAD SWAP1 PUSH2 0x100 EXP SWAP1 DIV PUSH20 0xFFFFFFFFFFFFFFFFFFFFFFFFFFFFFFFFFFFFFFFF AND PUSH20 0xFFFFFFFFFFFFFFFFFFFFFFFFFFFFFFFFFFFFFFFF AND PUSH4 0x3D0A8A34 CALLER DUP4 PUSH1 0x40 MLOAD DUP4 PUSH4 0xFFFFFFFF AND PUSH1 0xE0 SHL DUP2 MSTORE PUSH1 0x4 ADD PUSH3 0x36DA SWAP3 SWAP2 SWAP1 PUSH3 0x5B50 JUMP JUMPDEST PUSH1 0x0 PUSH1 0x40 MLOAD DUP1 DUP4 SUB DUP2 PUSH1 0x0 DUP8 DUP1 EXTCODESIZE ISZERO DUP1 ISZERO PUSH3 0x36F5 JUMPI PUSH1 0x0 DUP1 REVERT JUMPDEST POP GAS CALL ISZERO DUP1 ISZERO PUSH3 0x370A JUMPI RETURNDATASIZE PUSH1 0x0 DUP1 RETURNDATACOPY RETURNDATASIZE PUSH1 0x0 REVERT JUMPDEST POP POP POP POP POP PUSH3 0x3898 JUMP JUMPDEST PUSH1 0x1 PUSH1 0x3 DUP2 GT ISZERO PUSH3 0x372C JUMPI PUSH3 0x372B PUSH3 0x4624 JUMP JUMPDEST JUMPDEST PUSH1 0x6 PUSH1 0x0 SWAP1 SLOAD SWAP1 PUSH2 0x100 EXP SWAP1 DIV PUSH1 0xFF AND PUSH1 0x3 DUP2 GT ISZERO PUSH3 0x3751 JUMPI PUSH3 0x3750 PUSH3 0x4624 JUMP JUMPDEST JUMPDEST EQ ISZERO PUSH3 0x3897 JUMPI PUSH1 0x0 PUSH1 0x6 PUSH1 0x3 SWAP1 SLOAD SWAP1 PUSH2 0x100 EXP SWAP1 DIV PUSH20 0xFFFFFFFFFFFFFFFFFFFFFFFFFFFFFFFFFFFFFFFF AND PUSH20 0xFFFFFFFFFFFFFFFFFFFFFFFFFFFFFFFFFFFFFFFF AND PUSH4 0xD41450B6 DUP4 PUSH1 0x40 MLOAD DUP3 PUSH4 0xFFFFFFFF AND PUSH1 0xE0 SHL DUP2 MSTORE PUSH1 0x4 ADD PUSH3 0x37B7 SWAP2 SWAP1 PUSH3 0x58D5 JUMP JUMPDEST PUSH1 0x0 PUSH1 0x40 MLOAD DUP1 DUP4 SUB DUP2 DUP7 GAS STATICCALL ISZERO DUP1 ISZERO PUSH3 0x37D5 JUMPI RETURNDATASIZE PUSH1 0x0 DUP1 RETURNDATACOPY RETURNDATASIZE PUSH1 0x0 REVERT JUMPDEST POP POP POP POP PUSH1 0x40 MLOAD RETURNDATASIZE PUSH1 0x0 DUP3 RETURNDATACOPY RETURNDATASIZE PUSH1 0x1F NOT PUSH1 0x1F DUP3 ADD AND DUP3 ADD DUP1 PUSH1 0x40 MSTORE POP DUP2 ADD SWAP1 PUSH3 0x3800 SWAP2 SWAP1 PUSH3 0x5C12 JUMP JUMPDEST SWAP1 POP PUSH1 0x6 PUSH1 0x3 SWAP1 SLOAD SWAP1 PUSH2 0x100 EXP SWAP1 DIV PUSH20 0xFFFFFFFFFFFFFFFFFFFFFFFFFFFFFFFFFFFFFFFF AND PUSH20 0xFFFFFFFFFFFFFFFFFFFFFFFFFFFFFFFFFFFFFFFF AND PUSH4 0x8AD63C01 CALLER DUP4 PUSH1 0x40 MLOAD DUP4 PUSH4 0xFFFFFFFF AND PUSH1 0xE0 SHL DUP2 MSTORE PUSH1 0x4 ADD PUSH3 0x3861 SWAP3 SWAP2 SWAP1 PUSH3 0x5CB9 JUMP JUMPDEST PUSH1 0x0 PUSH1 0x40 MLOAD DUP1 DUP4 SUB DUP2 PUSH1 0x0 DUP8 DUP1 EXTCODESIZE ISZERO DUP1 ISZERO PUSH3 0x387C JUMPI PUSH1 0x0 DUP1 REVERT JUMPDEST POP GAS CALL ISZERO DUP1 ISZERO PUSH3 0x3891 JUMPI RETURNDATASIZE PUSH1 0x0 DUP1 RETURNDATACOPY RETURNDATASIZE PUSH1 0x0 REVERT JUMPDEST POP POP POP POP POP JUMPDEST JUMPDEST POP POP PUSH3 0x38DD JUMP JUMPDEST PUSH1 0x40 MLOAD PUSH32 0x8C379A000000000000000000000000000000000000000000000000000000000 DUP2 MSTORE PUSH1 0x4 ADD PUSH3 0x38D4 SWAP1 PUSH3 0x5D3D JUMP JUMPDEST PUSH1 0x40 MLOAD DUP1 SWAP2 SUB SWAP1 REVERT JUMPDEST JUMP JUMPDEST CALLER PUSH20 0xFFFFFFFFFFFFFFFFFFFFFFFFFFFFFFFFFFFFFFFF AND PUSH32 0xFC6F5E211098B443015CCB625104A41F61E97A80DD9B8734242A9A8C3EECC8DC PUSH1 0x6 PUSH1 0x1 SWAP1 SLOAD SWAP1 PUSH2 0x100 EXP SWAP1 DIV PUSH1 0xFF AND DUP5 DUP5 PUSH1 0x40 MLOAD PUSH3 0x393A SWAP4 SWAP3 SWAP2 SWAP1 PUSH3 0x5D5F JUMP JUMPDEST PUSH1 0x40 MLOAD DUP1 SWAP2 SUB SWAP1 LOG2 DUP2 PUSH1 0x6 PUSH1 0x1 PUSH2 0x100 EXP DUP2 SLOAD DUP2 PUSH1 0xFF MUL NOT AND SWAP1 DUP4 PUSH1 0x5 DUP2 GT ISZERO PUSH3 0x396A JUMPI PUSH3 0x3969 PUSH3 0x4624 JUMP JUMPDEST JUMPDEST MUL OR SWAP1 SSTORE POP POP POP JUMP JUMPDEST PUSH1 0x6 PUSH1 0x3 SWAP1 SLOAD SWAP1 PUSH2 0x100 EXP SWAP1 DIV PUSH20 0xFFFFFFFFFFFFFFFFFFFFFFFFFFFFFFFFFFFFFFFF AND PUSH20 0xFFFFFFFFFFFFFFFFFFFFFFFFFFFFFFFFFFFFFFFF AND PUSH4 0xFA4D7AAE CALLER PUSH1 0x40 MLOAD DUP3 PUSH4 0xFFFFFFFF AND PUSH1 0xE0 SHL DUP2 MSTORE PUSH1 0x4 ADD PUSH3 0x39D0 SWAP2 SWAP1 PUSH3 0x42C0 JUMP JUMPDEST PUSH1 0x20 PUSH1 0x40 MLOAD DUP1 DUP4 SUB DUP2 DUP7 GAS STATICCALL ISZERO DUP1 ISZERO PUSH3 0x39EE JUMPI RETURNDATASIZE PUSH1 0x0 DUP1 RETURNDATACOPY RETURNDATASIZE PUSH1 0x0 REVERT JUMPDEST POP POP POP POP PUSH1 0x40 MLOAD RETURNDATASIZE PUSH1 0x1F NOT PUSH1 0x1F DUP3 ADD AND DUP3 ADD DUP1 PUSH1 0x40 MSTORE POP DUP2 ADD SWAP1 PUSH3 0x3A14 SWAP2 SWAP1 PUSH3 0x4915 JUMP JUMPDEST PUSH3 0x3A56 JUMPI PUSH1 0x40 MLOAD PUSH32 0x8C379A000000000000000000000000000000000000000000000000000000000 DUP2 MSTORE PUSH1 0x4 ADD PUSH3 0x3A4D SWAP1 PUSH3 0x49CE JUMP JUMPDEST PUSH1 0x40 MLOAD DUP1 SWAP2 SUB SWAP1 REVERT JUMPDEST PUSH1 0x0 PUSH1 0x7 PUSH1 0x0 SWAP1 SLOAD SWAP1 PUSH2 0x100 EXP SWAP1 DIV PUSH20 0xFFFFFFFFFFFFFFFFFFFFFFFFFFFFFFFFFFFFFFFF AND PUSH20 0xFFFFFFFFFFFFFFFFFFFFFFFFFFFFFFFFFFFFFFFF AND PUSH4 0xFF3C1A8F PUSH1 0x40 MLOAD DUP2 PUSH4 0xFFFFFFFF AND PUSH1 0xE0 SHL DUP2 MSTORE PUSH1 0x4 ADD PUSH1 0x0 PUSH1 0x40 MLOAD DUP1 DUP4 SUB DUP2 DUP7 GAS STATICCALL ISZERO DUP1 ISZERO PUSH3 0x3AC6 JUMPI RETURNDATASIZE PUSH1 0x0 DUP1 RETURNDATACOPY RETURNDATASIZE PUSH1 0x0 REVERT JUMPDEST POP POP POP POP PUSH1 0x40 MLOAD RETURNDATASIZE PUSH1 0x0 DUP3 RETURNDATACOPY RETURNDATASIZE PUSH1 0x1F NOT PUSH1 0x1F DUP3 ADD AND DUP3 ADD DUP1 PUSH1 0x40 MSTORE POP DUP2 ADD SWAP1 PUSH3 0x3AF1 SWAP2 SWAP1 PUSH3 0x5DA3 JUMP JUMPDEST SWAP1 POP PUSH1 0x0 PUSH1 0x7 PUSH1 0x0 SWAP1 SLOAD SWAP1 PUSH2 0x100 EXP SWAP1 DIV PUSH20 0xFFFFFFFFFFFFFFFFFFFFFFFFFFFFFFFFFFFFFFFF AND PUSH20 0xFFFFFFFFFFFFFFFFFFFFFFFFFFFFFFFFFFFFFFFF AND PUSH4 0x1A092541 PUSH1 0x40 MLOAD DUP2 PUSH4 0xFFFFFFFF AND PUSH1 0xE0 SHL DUP2 MSTORE PUSH1 0x4 ADD PUSH1 0x0 PUSH1 0x40 MLOAD DUP1 DUP4 SUB DUP2 DUP7 GAS STATICCALL ISZERO DUP1 ISZERO PUSH3 0x3B63 JUMPI RETURNDATASIZE PUSH1 0x0 DUP1 RETURNDATACOPY RETURNDATASIZE PUSH1 0x0 REVERT JUMPDEST POP POP POP POP PUSH1 0x40 MLOAD RETURNDATASIZE PUSH1 0x0 DUP3 RETURNDATACOPY RETURNDATASIZE PUSH1 0x1F NOT PUSH1 0x1F DUP3 ADD AND DUP3 ADD DUP1 PUSH1 0x40 MSTORE POP DUP2 ADD SWAP1 PUSH3 0x3B8E SWAP2 SWAP1 PUSH3 0x5DA3 JUMP JUMPDEST SWAP1 POP PUSH1 0x0 DUP3 DUP3 PUSH1 0x1 PUSH1 0x40 MLOAD PUSH3 0x3BA4 SWAP1 PUSH3 0x4130 JUMP JUMPDEST PUSH3 0x3BB3 SWAP5 SWAP4 SWAP3 SWAP2 SWAP1 PUSH3 0x5EF4 JUMP JUMPDEST PUSH1 0x40 MLOAD DUP1 SWAP2 SUB SWAP1 PUSH1 0x0 CREATE DUP1 ISZERO DUP1 ISZERO PUSH3 0x3BD0 JUMPI RETURNDATASIZE PUSH1 0x0 DUP1 RETURNDATACOPY RETURNDATASIZE PUSH1 0x0 REVERT JUMPDEST POP PUSH1 0x8 PUSH1 0x0 PUSH2 0x100 EXP DUP2 SLOAD DUP2 PUSH20 0xFFFFFFFFFFFFFFFFFFFFFFFFFFFFFFFFFFFFFFFF MUL NOT AND SWAP1 DUP4 PUSH20 0xFFFFFFFFFFFFFFFFFFFFFFFFFFFFFFFFFFFFFFFF AND MUL OR SWAP1 SSTORE POP PUSH1 0x0 PUSH3 0x3C1D PUSH3 0x2FDB JUMP JUMPDEST SWAP1 POP PUSH1 0x0 JUMPDEST DUP2 MLOAD DUP2 LT ISZERO PUSH3 0x3D27 JUMPI PUSH1 0x0 DUP3 DUP3 DUP2 MLOAD DUP2 LT PUSH3 0x3C44 JUMPI PUSH3 0x3C43 PUSH3 0x52F0 JUMP JUMPDEST JUMPDEST PUSH1 0x20 MUL PUSH1 0x20 ADD ADD MLOAD SWAP1 POP PUSH1 0x0 DUP2 PUSH1 0x20 ADD MLOAD SWAP1 POP PUSH1 0x0 DUP3 PUSH1 0x20 ADD MLOAD SWAP1 POP PUSH1 0x0 DUP4 PUSH1 0x80 ADD MLOAD SWAP1 POP PUSH1 0x0 DUP5 PUSH1 0xA0 ADD MLOAD SWAP1 POP PUSH1 0x8 PUSH1 0x0 SWAP1 SLOAD SWAP1 PUSH2 0x100 EXP SWAP1 DIV PUSH20 0xFFFFFFFFFFFFFFFFFFFFFFFFFFFFFFFFFFFFFFFF AND PUSH20 0xFFFFFFFFFFFFFFFFFFFFFFFFFFFFFFFFFFFFFFFF AND PUSH4 0xDFECF96B DUP5 DUP7 PUSH1 0x1 DUP7 DUP7 PUSH1 0x40 MLOAD DUP7 PUSH4 0xFFFFFFFF AND PUSH1 0xE0 SHL DUP2 MSTORE PUSH1 0x4 ADD PUSH3 0x3CD8 SWAP6 SWAP5 SWAP4 SWAP3 SWAP2 SWAP1 PUSH3 0x51A1 JUMP JUMPDEST PUSH1 0x0 PUSH1 0x40 MLOAD DUP1 DUP4 SUB DUP2 PUSH1 0x0 DUP8 DUP1 EXTCODESIZE ISZERO DUP1 ISZERO PUSH3 0x3CF3 JUMPI PUSH1 0x0 DUP1 REVERT JUMPDEST POP GAS CALL ISZERO DUP1 ISZERO PUSH3 0x3D08 JUMPI RETURNDATASIZE PUSH1 0x0 DUP1 RETURNDATACOPY RETURNDATASIZE PUSH1 0x0 REVERT JUMPDEST POP POP POP POP POP POP POP POP POP DUP1 DUP1 PUSH3 0x3D1E SWAP1 PUSH3 0x534E JUMP JUMPDEST SWAP2 POP POP PUSH3 0x3C22 JUMP JUMPDEST POP POP POP POP JUMP JUMPDEST PUSH1 0x6 PUSH1 0x3 SWAP1 SLOAD SWAP1 PUSH2 0x100 EXP SWAP1 DIV PUSH20 0xFFFFFFFFFFFFFFFFFFFFFFFFFFFFFFFFFFFFFFFF AND PUSH20 0xFFFFFFFFFFFFFFFFFFFFFFFFFFFFFFFFFFFFFFFF AND PUSH4 0xFA4D7AAE CALLER PUSH1 0x40 MLOAD DUP3 PUSH4 0xFFFFFFFF AND PUSH1 0xE0 SHL DUP2 MSTORE PUSH1 0x4 ADD PUSH3 0x3D8A SWAP2 SWAP1 PUSH3 0x42C0 JUMP JUMPDEST PUSH1 0x20 PUSH1 0x40 MLOAD DUP1 DUP4 SUB DUP2 DUP7 GAS STATICCALL ISZERO DUP1 ISZERO PUSH3 0x3DA8 JUMPI RETURNDATASIZE PUSH1 0x0 DUP1 RETURNDATACOPY RETURNDATASIZE PUSH1 0x0 REVERT JUMPDEST POP POP POP POP PUSH1 0x40 MLOAD RETURNDATASIZE PUSH1 0x1F NOT PUSH1 0x1F DUP3 ADD AND DUP3 ADD DUP1 PUSH1 0x40 MSTORE POP DUP2 ADD SWAP1 PUSH3 0x3DCE SWAP2 SWAP1 PUSH3 0x4915 JUMP JUMPDEST PUSH3 0x3E10 JUMPI PUSH1 0x40 MLOAD PUSH32 0x8C379A000000000000000000000000000000000000000000000000000000000 DUP2 MSTORE PUSH1 0x4 ADD PUSH3 0x3E07 SWAP1 PUSH3 0x49CE JUMP JUMPDEST PUSH1 0x40 MLOAD DUP1 SWAP2 SUB SWAP1 REVERT JUMPDEST PUSH3 0x3E1B DUP6 PUSH3 0x30FE JUMP JUMPDEST ISZERO PUSH3 0x3F60 JUMPI PUSH1 0x40 MLOAD PUSH3 0x3E2F SWAP1 PUSH3 0x413E JUMP JUMPDEST PUSH1 0x40 MLOAD DUP1 SWAP2 SUB SWAP1 PUSH1 0x0 CREATE DUP1 ISZERO DUP1 ISZERO PUSH3 0x3E4C JUMPI RETURNDATASIZE PUSH1 0x0 DUP1 RETURNDATACOPY RETURNDATASIZE PUSH1 0x0 REVERT JUMPDEST POP PUSH1 0x9 PUSH1 0x0 PUSH2 0x100 EXP DUP2 SLOAD DUP2 PUSH20 0xFFFFFFFFFFFFFFFFFFFFFFFFFFFFFFFFFFFFFFFF MUL NOT AND SWAP1 DUP4 PUSH20 0xFFFFFFFFFFFFFFFFFFFFFFFFFFFFFFFFFFFFFFFF AND MUL OR SWAP1 SSTORE POP DUP5 DUP5 DUP5 PUSH1 0x0 PUSH1 0x40 MLOAD PUSH3 0x3EA0 SWAP1 PUSH3 0x4130 JUMP JUMPDEST PUSH3 0x3EAF SWAP5 SWAP4 SWAP3 SWAP2 SWAP1 PUSH3 0x5F56 JUMP JUMPDEST PUSH1 0x40 MLOAD DUP1 SWAP2 SUB SWAP1 PUSH1 0x0 CREATE DUP1 ISZERO DUP1 ISZERO PUSH3 0x3ECC JUMPI RETURNDATASIZE PUSH1 0x0 DUP1 RETURNDATACOPY RETURNDATASIZE PUSH1 0x0 REVERT JUMPDEST POP PUSH1 0x7 PUSH1 0x0 PUSH2 0x100 EXP DUP2 SLOAD DUP2 PUSH20 0xFFFFFFFFFFFFFFFFFFFFFFFFFFFFFFFFFFFFFFFF MUL NOT AND SWAP1 DUP4 PUSH20 0xFFFFFFFFFFFFFFFFFFFFFFFFFFFFFFFFFFFFFFFF AND MUL OR SWAP1 SSTORE POP DUP5 PUSH1 0x0 SWAP1 DUP1 MLOAD SWAP1 PUSH1 0x20 ADD SWAP1 PUSH3 0x3F25 SWAP3 SWAP2 SWAP1 PUSH3 0x414C JUMP JUMPDEST POP DUP2 PUSH1 0x6 PUSH1 0x0 PUSH2 0x100 EXP DUP2 SLOAD DUP2 PUSH1 0xFF MUL NOT AND SWAP1 DUP4 PUSH1 0x3 DUP2 GT ISZERO PUSH3 0x3F4E JUMPI PUSH3 0x3F4D PUSH3 0x4624 JUMP JUMPDEST JUMPDEST MUL OR SWAP1 SSTORE POP DUP1 PUSH1 0x5 DUP2 SWAP1 SSTORE POP PUSH3 0x3F9D JUMP JUMPDEST PUSH1 0x40 MLOAD PUSH32 0x8C379A000000000000000000000000000000000000000000000000000000000 DUP2 MSTORE PUSH1 0x4 ADD PUSH3 0x3F94 SWAP1 PUSH3 0x602E JUMP JUMPDEST PUSH1 0x40 MLOAD DUP1 SWAP2 SUB SWAP1 REVERT JUMPDEST POP POP POP POP POP JUMP JUMPDEST PUSH1 0x6 PUSH1 0x3 SWAP1 SLOAD SWAP1 PUSH2 0x100 EXP SWAP1 DIV PUSH20 0xFFFFFFFFFFFFFFFFFFFFFFFFFFFFFFFFFFFFFFFF AND PUSH20 0xFFFFFFFFFFFFFFFFFFFFFFFFFFFFFFFFFFFFFFFF AND PUSH4 0xFA4D7AAE CALLER PUSH1 0x40 MLOAD DUP3 PUSH4 0xFFFFFFFF AND PUSH1 0xE0 SHL DUP2 MSTORE PUSH1 0x4 ADD PUSH3 0x4001 SWAP2 SWAP1 PUSH3 0x42C0 JUMP JUMPDEST PUSH1 0x20 PUSH1 0x40 MLOAD DUP1 DUP4 SUB DUP2 DUP7 GAS STATICCALL ISZERO DUP1 ISZERO PUSH3 0x401F JUMPI RETURNDATASIZE PUSH1 0x0 DUP1 RETURNDATACOPY RETURNDATASIZE PUSH1 0x0 REVERT JUMPDEST POP POP POP POP PUSH1 0x40 MLOAD RETURNDATASIZE PUSH1 0x1F NOT PUSH1 0x1F DUP3 ADD AND DUP3 ADD DUP1 PUSH1 0x40 MSTORE POP DUP2 ADD SWAP1 PUSH3 0x4045 SWAP2 SWAP1 PUSH3 0x4915 JUMP JUMPDEST PUSH3 0x4087 JUMPI PUSH1 0x40 MLOAD PUSH32 0x8C379A000000000000000000000000000000000000000000000000000000000 DUP2 MSTORE PUSH1 0x4 ADD PUSH3 0x407E SWAP1 PUSH3 0x49CE JUMP JUMPDEST PUSH1 0x40 MLOAD DUP1 SWAP2 SUB SWAP1 REVERT JUMPDEST PUSH3 0x4094 PUSH1 0x5 DUP3 PUSH3 0x38DF JUMP JUMPDEST DUP2 PUSH1 0x6 PUSH1 0x2 PUSH2 0x100 EXP DUP2 SLOAD DUP2 PUSH1 0xFF MUL NOT AND SWAP1 DUP4 PUSH1 0x2 DUP2 GT ISZERO PUSH3 0x40BC JUMPI PUSH3 0x40BB PUSH3 0x4624 JUMP JUMPDEST JUMPDEST MUL OR SWAP1 SSTORE POP POP POP JUMP JUMPDEST PUSH1 0x40 MLOAD DUP1 PUSH1 0xE0 ADD PUSH1 0x40 MSTORE DUP1 PUSH1 0x0 DUP2 MSTORE PUSH1 0x20 ADD PUSH1 0x0 PUSH20 0xFFFFFFFFFFFFFFFFFFFFFFFFFFFFFFFFFFFFFFFF AND DUP2 MSTORE PUSH1 0x20 ADD PUSH1 0x0 PUSH20 0xFFFFFFFFFFFFFFFFFFFFFFFFFFFFFFFFFFFFFFFF AND DUP2 MSTORE PUSH1 0x20 ADD PUSH1 0x0 ISZERO ISZERO DUP2 MSTORE PUSH1 0x20 ADD PUSH1 0x60 DUP2 MSTORE PUSH1 0x20 ADD PUSH1 0x60 DUP2 MSTORE PUSH1 0x20 ADD PUSH1 0x0 DUP2 MSTORE POP SWAP1 JUMP JUMPDEST PUSH2 0x4829 DUP1 PUSH3 0x6051 DUP4 CODECOPY ADD SWAP1 JUMP JUMPDEST PUSH2 0xD58 DUP1 PUSH3 0xA87A DUP4 CODECOPY ADD SWAP1 JUMP JUMPDEST DUP3 DUP1 SLOAD DUP3 DUP3 SSTORE SWAP1 PUSH1 0x0 MSTORE PUSH1 0x20 PUSH1 0x0 KECCAK256 SWAP1 DUP2 ADD SWAP3 DUP3 ISZERO PUSH3 0x41C8 JUMPI SWAP2 PUSH1 0x20 MUL DUP3 ADD JUMPDEST DUP3 DUP2 GT ISZERO PUSH3 0x41C7 JUMPI DUP3 MLOAD DUP3 PUSH1 0x0 PUSH2 0x100 EXP DUP2 SLOAD DUP2 PUSH20 0xFFFFFFFFFFFFFFFFFFFFFFFFFFFFFFFFFFFFFFFF MUL NOT AND SWAP1 DUP4 PUSH20 0xFFFFFFFFFFFFFFFFFFFFFFFFFFFFFFFFFFFFFFFF AND MUL OR SWAP1 SSTORE POP SWAP2 PUSH1 0x20 ADD SWAP2 SWAP1 PUSH1 0x1 ADD SWAP1 PUSH3 0x416D JUMP JUMPDEST JUMPDEST POP SWAP1 POP PUSH3 0x41D7 SWAP2 SWAP1 PUSH3 0x41DB JUMP JUMPDEST POP SWAP1 JUMP JUMPDEST JUMPDEST DUP1 DUP3 GT ISZERO PUSH3 0x41F6 JUMPI PUSH1 0x0 DUP2 PUSH1 0x0 SWAP1 SSTORE POP PUSH1 0x1 ADD PUSH3 0x41DC JUMP JUMPDEST POP SWAP1 JUMP JUMPDEST PUSH1 0x0 PUSH1 0x40 MLOAD SWAP1 POP SWAP1 JUMP JUMPDEST PUSH1 0x0 DUP1 REVERT JUMPDEST PUSH1 0x0 DUP1 REVERT JUMPDEST PUSH1 0x0 DUP2 SWAP1 POP SWAP2 SWAP1 POP JUMP JUMPDEST PUSH3 0x4223 DUP2 PUSH3 0x420E JUMP JUMPDEST DUP2 EQ PUSH3 0x422F JUMPI PUSH1 0x0 DUP1 REVERT JUMPDEST POP JUMP JUMPDEST PUSH1 0x0 DUP2 CALLDATALOAD SWAP1 POP PUSH3 0x4243 DUP2 PUSH3 0x4218 JUMP JUMPDEST SWAP3 SWAP2 POP POP JUMP JUMPDEST PUSH1 0x0 PUSH1 0x20 DUP3 DUP5 SUB SLT ISZERO PUSH3 0x4262 JUMPI PUSH3 0x4261 PUSH3 0x4204 JUMP JUMPDEST JUMPDEST PUSH1 0x0 PUSH3 0x4272 DUP5 DUP3 DUP6 ADD PUSH3 0x4232 JUMP JUMPDEST SWAP2 POP POP SWAP3 SWAP2 POP POP JUMP JUMPDEST PUSH1 0x0 PUSH20 0xFFFFFFFFFFFFFFFFFFFFFFFFFFFFFFFFFFFFFFFF DUP3 AND SWAP1 POP SWAP2 SWAP1 POP JUMP JUMPDEST PUSH1 0x0 PUSH3 0x42A8 DUP3 PUSH3 0x427B JUMP JUMPDEST SWAP1 POP SWAP2 SWAP1 POP JUMP JUMPDEST PUSH3 0x42BA DUP2 PUSH3 0x429B JUMP JUMPDEST DUP3 MSTORE POP POP JUMP JUMPDEST PUSH1 0x0 PUSH1 0x20 DUP3 ADD SWAP1 POP PUSH3 0x42D7 PUSH1 0x0 DUP4 ADD DUP5 PUSH3 0x42AF JUMP JUMPDEST SWAP3 SWAP2 POP POP JUMP JUMPDEST PUSH1 0x0 DUP2 ISZERO ISZERO SWAP1 POP SWAP2 SWAP1 POP JUMP JUMPDEST PUSH3 0x42F4 DUP2 PUSH3 0x42DD JUMP JUMPDEST DUP3 MSTORE POP POP JUMP JUMPDEST PUSH1 0x0 PUSH1 0x20 DUP3 ADD SWAP1 POP PUSH3 0x4311 PUSH1 0x0 DUP4 ADD DUP5 PUSH3 0x42E9 JUMP JUMPDEST SWAP3 SWAP2 POP POP JUMP JUMPDEST PUSH1 0x0 DUP2 MLOAD SWAP1 POP SWAP2 SWAP1 POP JUMP JUMPDEST PUSH1 0x0 DUP3 DUP3 MSTORE PUSH1 0x20 DUP3 ADD SWAP1 POP SWAP3 SWAP2 POP POP JUMP JUMPDEST PUSH1 0x0 DUP2 SWAP1 POP PUSH1 0x20 DUP3 ADD SWAP1 POP SWAP2 SWAP1 POP JUMP JUMPDEST PUSH3 0x434E DUP2 PUSH3 0x420E JUMP JUMPDEST DUP3 MSTORE POP POP JUMP JUMPDEST PUSH3 0x435F DUP2 PUSH3 0x429B JUMP JUMPDEST DUP3 MSTORE POP POP JUMP JUMPDEST PUSH3 0x4370 DUP2 PUSH3 0x42DD JUMP JUMPDEST DUP3 MSTORE POP POP JUMP JUMPDEST PUSH1 0x0 DUP2 MLOAD SWAP1 POP SWAP2 SWAP1 POP JUMP JUMPDEST PUSH1 0x0 DUP3 DUP3 MSTORE PUSH1 0x20 DUP3 ADD SWAP1 POP SWAP3 SWAP2 POP POP JUMP JUMPDEST PUSH1 0x0 JUMPDEST DUP4 DUP2 LT ISZERO PUSH3 0x43B2 JUMPI DUP1 DUP3 ADD MLOAD DUP2 DUP5 ADD MSTORE PUSH1 0x20 DUP2 ADD SWAP1 POP PUSH3 0x4395 JUMP JUMPDEST DUP4 DUP2 GT ISZERO PUSH3 0x43C2 JUMPI PUSH1 0x0 DUP5 DUP5 ADD MSTORE JUMPDEST POP POP POP POP JUMP JUMPDEST PUSH1 0x0 PUSH1 0x1F NOT PUSH1 0x1F DUP4 ADD AND SWAP1 POP SWAP2 SWAP1 POP JUMP JUMPDEST PUSH1 0x0 PUSH3 0x43E6 DUP3 PUSH3 0x4376 JUMP JUMPDEST PUSH3 0x43F2 DUP2 DUP6 PUSH3 0x4381 JUMP JUMPDEST SWAP4 POP PUSH3 0x4404 DUP2 DUP6 PUSH1 0x20 DUP7 ADD PUSH3 0x4392 JUMP JUMPDEST PUSH3 0x440F DUP2 PUSH3 0x43C8 JUMP JUMPDEST DUP5 ADD SWAP2 POP POP SWAP3 SWAP2 POP POP JUMP JUMPDEST PUSH1 0x0 PUSH1 0xE0 DUP4 ADD PUSH1 0x0 DUP4 ADD MLOAD PUSH3 0x4434 PUSH1 0x0 DUP7 ADD DUP3 PUSH3 0x4343 JUMP JUMPDEST POP PUSH1 0x20 DUP4 ADD MLOAD PUSH3 0x4449 PUSH1 0x20 DUP7 ADD DUP3 PUSH3 0x4354 JUMP JUMPDEST POP PUSH1 0x40 DUP4 ADD MLOAD PUSH3 0x445E PUSH1 0x40 DUP7 ADD DUP3 PUSH3 0x4354 JUMP JUMPDEST POP PUSH1 0x60 DUP4 ADD MLOAD PUSH3 0x4473 PUSH1 0x60 DUP7 ADD DUP3 PUSH3 0x4365 JUMP JUMPDEST POP PUSH1 0x80 DUP4 ADD MLOAD DUP5 DUP3 SUB PUSH1 0x80 DUP7 ADD MSTORE PUSH3 0x448D DUP3 DUP3 PUSH3 0x43D9 JUMP JUMPDEST SWAP2 POP POP PUSH1 0xA0 DUP4 ADD MLOAD DUP5 DUP3 SUB PUSH1 0xA0 DUP7 ADD MSTORE PUSH3 0x44A9 DUP3 DUP3 PUSH3 0x43D9 JUMP JUMPDEST SWAP2 POP POP PUSH1 0xC0 DUP4 ADD MLOAD PUSH3 0x44C0 PUSH1 0xC0 DUP7 ADD DUP3 PUSH3 0x4343 JUMP JUMPDEST POP DUP1 SWAP2 POP POP SWAP3 SWAP2 POP POP JUMP JUMPDEST PUSH1 0x0 PUSH3 0x44D9 DUP4 DUP4 PUSH3 0x441A JUMP JUMPDEST SWAP1 POP SWAP3 SWAP2 POP POP JUMP JUMPDEST PUSH1 0x0 PUSH1 0x20 DUP3 ADD SWAP1 POP SWAP2 SWAP1 POP JUMP JUMPDEST PUSH1 0x0 PUSH3 0x44FB DUP3 PUSH3 0x4317 JUMP JUMPDEST PUSH3 0x4507 DUP2 DUP6 PUSH3 0x4322 JUMP JUMPDEST SWAP4 POP DUP4 PUSH1 0x20 DUP3 MUL DUP6 ADD PUSH3 0x451B DUP6 PUSH3 0x4333 JUMP JUMPDEST DUP1 PUSH1 0x0 JUMPDEST DUP6 DUP2 LT ISZERO PUSH3 0x455D JUMPI DUP5 DUP5 SUB DUP10 MSTORE DUP2 MLOAD PUSH3 0x453B DUP6 DUP3 PUSH3 0x44CB JUMP JUMPDEST SWAP5 POP PUSH3 0x4548 DUP4 PUSH3 0x44E1 JUMP JUMPDEST SWAP3 POP PUSH1 0x20 DUP11 ADD SWAP10 POP POP PUSH1 0x1 DUP2 ADD SWAP1 POP PUSH3 0x451F JUMP JUMPDEST POP DUP3 SWAP8 POP DUP8 SWAP6 POP POP POP POP POP POP SWAP3 SWAP2 POP POP JUMP JUMPDEST PUSH1 0x0 PUSH1 0x20 DUP3 ADD SWAP1 POP DUP2 DUP2 SUB PUSH1 0x0 DUP4 ADD MSTORE PUSH3 0x458B DUP2 DUP5 PUSH3 0x44EE JUMP JUMPDEST SWAP1 POP SWAP3 SWAP2 POP POP JUMP JUMPDEST PUSH3 0x459E DUP2 PUSH3 0x420E JUMP JUMPDEST DUP3 MSTORE POP POP JUMP JUMPDEST PUSH1 0x0 PUSH1 0x20 DUP3 ADD SWAP1 POP PUSH3 0x45BB PUSH1 0x0 DUP4 ADD DUP5 PUSH3 0x4593 JUMP JUMPDEST SWAP3 SWAP2 POP POP JUMP JUMPDEST PUSH3 0x45CC DUP2 PUSH3 0x429B JUMP JUMPDEST DUP2 EQ PUSH3 0x45D8 JUMPI PUSH1 0x0 DUP1 REVERT JUMPDEST POP JUMP JUMPDEST PUSH1 0x0 DUP2 CALLDATALOAD SWAP1 POP PUSH3 0x45EC DUP2 PUSH3 0x45C1 JUMP JUMPDEST SWAP3 SWAP2 POP POP JUMP JUMPDEST PUSH1 0x0 PUSH1 0x20 DUP3 DUP5 SUB SLT ISZERO PUSH3 0x460B JUMPI PUSH3 0x460A PUSH3 0x4204 JUMP JUMPDEST JUMPDEST PUSH1 0x0 PUSH3 0x461B DUP5 DUP3 DUP6 ADD PUSH3 0x45DB JUMP JUMPDEST SWAP2 POP POP SWAP3 SWAP2 POP POP JUMP JUMPDEST PUSH32 0x4E487B7100000000000000000000000000000000000000000000000000000000 PUSH1 0x0 MSTORE PUSH1 0x21 PUSH1 0x4 MSTORE PUSH1 0x24 PUSH1 0x0 REVERT JUMPDEST PUSH1 0x3 DUP2 LT PUSH3 0x4667 JUMPI PUSH3 0x4666 PUSH3 0x4624 JUMP JUMPDEST JUMPDEST POP JUMP JUMPDEST PUSH1 0x0 DUP2 SWAP1 POP PUSH3 0x467A DUP3 PUSH3 0x4653 JUMP JUMPDEST SWAP2 SWAP1 POP JUMP JUMPDEST PUSH1 0x0 PUSH3 0x468C DUP3 PUSH3 0x466A JUMP JUMPDEST SWAP1 POP SWAP2 SWAP1 POP JUMP JUMPDEST PUSH3 0x469E DUP2 PUSH3 0x467F JUMP JUMPDEST DUP3 MSTORE POP POP JUMP JUMPDEST PUSH1 0x0 PUSH1 0x20 DUP3 ADD SWAP1 POP PUSH3 0x46BB PUSH1 0x0 DUP4 ADD DUP5 PUSH3 0x4693 JUMP JUMPDEST SWAP3 SWAP2 POP POP JUMP JUMPDEST PUSH1 0x0 DUP1 REVERT JUMPDEST PUSH32 0x4E487B7100000000000000000000000000000000000000000000000000000000 PUSH1 0x0 MSTORE PUSH1 0x41 PUSH1 0x4 MSTORE PUSH1 0x24 PUSH1 0x0 REVERT JUMPDEST PUSH3 0x4700 DUP3 PUSH3 0x43C8 JUMP JUMPDEST DUP2 ADD DUP2 DUP2 LT PUSH8 0xFFFFFFFFFFFFFFFF DUP3 GT OR ISZERO PUSH3 0x4722 JUMPI PUSH3 0x4721 PUSH3 0x46C6 JUMP JUMPDEST JUMPDEST DUP1 PUSH1 0x40 MSTORE POP POP POP JUMP JUMPDEST PUSH1 0x0 PUSH3 0x4737 PUSH3 0x41FA JUMP JUMPDEST SWAP1 POP PUSH3 0x4745 DUP3 DUP3 PUSH3 0x46F5 JUMP JUMPDEST SWAP2 SWAP1 POP JUMP JUMPDEST PUSH1 0x0 PUSH8 0xFFFFFFFFFFFFFFFF DUP3 GT ISZERO PUSH3 0x4768 JUMPI PUSH3 0x4767 PUSH3 0x46C6 JUMP JUMPDEST JUMPDEST PUSH1 0x20 DUP3 MUL SWAP1 POP PUSH1 0x20 DUP2 ADD SWAP1 POP SWAP2 SWAP1 POP JUMP JUMPDEST PUSH1 0x0 DUP1 REVERT JUMPDEST PUSH1 0x0 PUSH3 0x4795 PUSH3 0x478F DUP5 PUSH3 0x474A JUMP JUMPDEST PUSH3 0x472B JUMP JUMPDEST SWAP1 POP DUP1 DUP4 DUP3 MSTORE PUSH1 0x20 DUP3 ADD SWAP1 POP PUSH1 0x20 DUP5 MUL DUP4 ADD DUP6 DUP2 GT ISZERO PUSH3 0x47BB JUMPI PUSH3 0x47BA PUSH3 0x4779 JUMP JUMPDEST JUMPDEST DUP4 JUMPDEST DUP2 DUP2 LT ISZERO PUSH3 0x47E8 JUMPI DUP1 PUSH3 0x47D3 DUP9 DUP3 PUSH3 0x45DB JUMP JUMPDEST DUP5 MSTORE PUSH1 0x20 DUP5 ADD SWAP4 POP POP PUSH1 0x20 DUP2 ADD SWAP1 POP PUSH3 0x47BD JUMP JUMPDEST POP POP POP SWAP4 SWAP3 POP POP POP JUMP JUMPDEST PUSH1 0x0 DUP3 PUSH1 0x1F DUP4 ADD SLT PUSH3 0x480A JUMPI PUSH3 0x4809 PUSH3 0x46C1 JUMP JUMPDEST JUMPDEST DUP2 CALLDATALOAD PUSH3 0x481C DUP5 DUP3 PUSH1 0x20 DUP7 ADD PUSH3 0x477E JUMP JUMPDEST SWAP2 POP POP SWAP3 SWAP2 POP POP JUMP JUMPDEST PUSH1 0x0 PUSH1 0x20 DUP3 DUP5 SUB SLT ISZERO PUSH3 0x483E JUMPI PUSH3 0x483D PUSH3 0x4204 JUMP JUMPDEST JUMPDEST PUSH1 0x0 DUP3 ADD CALLDATALOAD PUSH8 0xFFFFFFFFFFFFFFFF DUP2 GT ISZERO PUSH3 0x485F JUMPI PUSH3 0x485E PUSH3 0x4209 JUMP JUMPDEST JUMPDEST PUSH3 0x486D DUP5 DUP3 DUP6 ADD PUSH3 0x47F2 JUMP JUMPDEST SWAP2 POP POP SWAP3 SWAP2 POP POP JUMP JUMPDEST PUSH1 0x6 DUP2 LT PUSH3 0x488A JUMPI PUSH3 0x4889 PUSH3 0x4624 JUMP JUMPDEST JUMPDEST POP JUMP JUMPDEST PUSH1 0x0 DUP2 SWAP1 POP PUSH3 0x489D DUP3 PUSH3 0x4876 JUMP JUMPDEST SWAP2 SWAP1 POP JUMP JUMPDEST PUSH1 0x0 PUSH3 0x48AF DUP3 PUSH3 0x488D JUMP JUMPDEST SWAP1 POP SWAP2 SWAP1 POP JUMP JUMPDEST PUSH3 0x48C1 DUP2 PUSH3 0x48A2 JUMP JUMPDEST DUP3 MSTORE POP POP JUMP JUMPDEST PUSH1 0x0 PUSH1 0x20 DUP3 ADD SWAP1 POP PUSH3 0x48DE PUSH1 0x0 DUP4 ADD DUP5 PUSH3 0x48B6 JUMP JUMPDEST SWAP3 SWAP2 POP POP JUMP JUMPDEST PUSH3 0x48EF DUP2 PUSH3 0x42DD JUMP JUMPDEST DUP2 EQ PUSH3 0x48FB JUMPI PUSH1 0x0 DUP1 REVERT JUMPDEST POP JUMP JUMPDEST PUSH1 0x0 DUP2 MLOAD SWAP1 POP PUSH3 0x490F DUP2 PUSH3 0x48E4 JUMP JUMPDEST SWAP3 SWAP2 POP POP JUMP JUMPDEST PUSH1 0x0 PUSH1 0x20 DUP3 DUP5 SUB SLT ISZERO PUSH3 0x492E JUMPI PUSH3 0x492D PUSH3 0x4204 JUMP JUMPDEST JUMPDEST PUSH1 0x0 PUSH3 0x493E DUP5 DUP3 DUP6 ADD PUSH3 0x48FE JUMP JUMPDEST SWAP2 POP POP SWAP3 SWAP2 POP POP JUMP JUMPDEST PUSH1 0x0 DUP3 DUP3 MSTORE PUSH1 0x20 DUP3 ADD SWAP1 POP SWAP3 SWAP2 POP POP JUMP JUMPDEST PUSH32 0x4F6E6C7920636F756E63656C6F72732063616E2075736520746869732066756E PUSH1 0x0 DUP3 ADD MSTORE PUSH32 0x6374696F6E000000000000000000000000000000000000000000000000000000 PUSH1 0x20 DUP3 ADD MSTORE POP JUMP JUMPDEST PUSH1 0x0 PUSH3 0x49B6 PUSH1 0x25 DUP4 PUSH3 0x4947 JUMP JUMPDEST SWAP2 POP PUSH3 0x49C3 DUP3 PUSH3 0x4958 JUMP JUMPDEST PUSH1 0x40 DUP3 ADD SWAP1 POP SWAP2 SWAP1 POP JUMP JUMPDEST PUSH1 0x0 PUSH1 0x20 DUP3 ADD SWAP1 POP DUP2 DUP2 SUB PUSH1 0x0 DUP4 ADD MSTORE PUSH3 0x49E9 DUP2 PUSH3 0x49A7 JUMP JUMPDEST SWAP1 POP SWAP2 SWAP1 POP JUMP JUMPDEST PUSH32 0x436F6E73756C746174696F6E206973206E6F7420696E20746865202741707072 PUSH1 0x0 DUP3 ADD MSTORE PUSH32 0x6F7665642720737461746520616E642063616E207468657265666F7265206E6F PUSH1 0x20 DUP3 ADD MSTORE PUSH32 0x7420626520737461727465642E00000000000000000000000000000000000000 PUSH1 0x40 DUP3 ADD MSTORE POP JUMP JUMPDEST PUSH1 0x0 PUSH3 0x4A74 PUSH1 0x4D DUP4 PUSH3 0x4947 JUMP JUMPDEST SWAP2 POP PUSH3 0x4A81 DUP3 PUSH3 0x49F0 JUMP JUMPDEST PUSH1 0x60 DUP3 ADD SWAP1 POP SWAP2 SWAP1 POP JUMP JUMPDEST PUSH1 0x0 PUSH1 0x20 DUP3 ADD SWAP1 POP DUP2 DUP2 SUB PUSH1 0x0 DUP4 ADD MSTORE PUSH3 0x4AA7 DUP2 PUSH3 0x4A65 JUMP JUMPDEST SWAP1 POP SWAP2 SWAP1 POP JUMP JUMPDEST PUSH1 0x0 PUSH8 0xFFFFFFFFFFFFFFFF DUP3 GT ISZERO PUSH3 0x4ACC JUMPI PUSH3 0x4ACB PUSH3 0x46C6 JUMP JUMPDEST JUMPDEST PUSH1 0x20 DUP3 MUL SWAP1 POP PUSH1 0x20 DUP2 ADD SWAP1 POP SWAP2 SWAP1 POP JUMP JUMPDEST PUSH1 0x0 DUP1 REVERT JUMPDEST PUSH1 0x0 DUP1 REVERT JUMPDEST PUSH1 0x0 DUP2 MLOAD SWAP1 POP PUSH3 0x4AF8 DUP2 PUSH3 0x4218 JUMP JUMPDEST SWAP3 SWAP2 POP POP JUMP JUMPDEST PUSH1 0x0 DUP2 MLOAD SWAP1 POP PUSH3 0x4B0F DUP2 PUSH3 0x45C1 JUMP JUMPDEST SWAP3 SWAP2 POP POP JUMP JUMPDEST PUSH1 0x0 DUP1 REVERT JUMPDEST PUSH1 0x0 PUSH8 0xFFFFFFFFFFFFFFFF DUP3 GT ISZERO PUSH3 0x4B38 JUMPI PUSH3 0x4B37 PUSH3 0x46C6 JUMP JUMPDEST JUMPDEST PUSH3 0x4B43 DUP3 PUSH3 0x43C8 JUMP JUMPDEST SWAP1 POP PUSH1 0x20 DUP2 ADD SWAP1 POP SWAP2 SWAP1 POP JUMP JUMPDEST PUSH1 0x0 PUSH3 0x4B67 PUSH3 0x4B61 DUP5 PUSH3 0x4B1A JUMP JUMPDEST PUSH3 0x472B JUMP JUMPDEST SWAP1 POP DUP3 DUP2 MSTORE PUSH1 0x20 DUP2 ADD DUP5 DUP5 DUP5 ADD GT ISZERO PUSH3 0x4B86 JUMPI PUSH3 0x4B85 PUSH3 0x4B15 JUMP JUMPDEST JUMPDEST PUSH3 0x4B93 DUP5 DUP3 DUP6 PUSH3 0x4392 JUMP JUMPDEST POP SWAP4 SWAP3 POP POP POP JUMP JUMPDEST PUSH1 0x0 DUP3 PUSH1 0x1F DUP4 ADD SLT PUSH3 0x4BB3 JUMPI PUSH3 0x4BB2 PUSH3 0x46C1 JUMP JUMPDEST JUMPDEST DUP2 MLOAD PUSH3 0x4BC5 DUP5 DUP3 PUSH1 0x20 DUP7 ADD PUSH3 0x4B50 JUMP JUMPDEST SWAP2 POP POP SWAP3 SWAP2 POP POP JUMP JUMPDEST PUSH1 0x0 PUSH1 0xE0 DUP3 DUP5 SUB SLT ISZERO PUSH3 0x4BE7 JUMPI PUSH3 0x4BE6 PUSH3 0x4ADD JUMP JUMPDEST JUMPDEST PUSH3 0x4BF3 PUSH1 0xE0 PUSH3 0x472B JUMP JUMPDEST SWAP1 POP PUSH1 0x0 PUSH3 0x4C05 DUP5 DUP3 DUP6 ADD PUSH3 0x4AE7 JUMP JUMPDEST PUSH1 0x0 DUP4 ADD MSTORE POP PUSH1 0x20 PUSH3 0x4C1B DUP5 DUP3 DUP6 ADD PUSH3 0x4AFE JUMP JUMPDEST PUSH1 0x20 DUP4 ADD MSTORE POP PUSH1 0x40 PUSH3 0x4C31 DUP5 DUP3 DUP6 ADD PUSH3 0x4AFE JUMP JUMPDEST PUSH1 0x40 DUP4 ADD MSTORE POP PUSH1 0x60 PUSH3 0x4C47 DUP5 DUP3 DUP6 ADD PUSH3 0x48FE JUMP JUMPDEST PUSH1 0x60 DUP4 ADD MSTORE POP PUSH1 0x80 DUP3 ADD MLOAD PUSH8 0xFFFFFFFFFFFFFFFF DUP2 GT ISZERO PUSH3 0x4C6E JUMPI PUSH3 0x4C6D PUSH3 0x4AE2 JUMP JUMPDEST JUMPDEST PUSH3 0x4C7C DUP5 DUP3 DUP6 ADD PUSH3 0x4B9B JUMP JUMPDEST PUSH1 0x80 DUP4 ADD MSTORE POP PUSH1 0xA0 DUP3 ADD MLOAD PUSH8 0xFFFFFFFFFFFFFFFF DUP2 GT ISZERO PUSH3 0x4CA3 JUMPI PUSH3 0x4CA2 PUSH3 0x4AE2 JUMP JUMPDEST JUMPDEST PUSH3 0x4CB1 DUP5 DUP3 DUP6 ADD PUSH3 0x4B9B JUMP JUMPDEST PUSH1 0xA0 DUP4 ADD MSTORE POP PUSH1 0xC0 PUSH3 0x4CC7 DUP5 DUP3 DUP6 ADD PUSH3 0x4AE7 JUMP JUMPDEST PUSH1 0xC0 DUP4 ADD MSTORE POP SWAP3 SWAP2 POP POP JUMP JUMPDEST PUSH1 0x0 PUSH3 0x4CEA PUSH3 0x4CE4 DUP5 PUSH3 0x4AAE JUMP JUMPDEST PUSH3 0x472B JUMP JUMPDEST SWAP1 POP DUP1 DUP4 DUP3 MSTORE PUSH1 0x20 DUP3 ADD SWAP1 POP PUSH1 0x20 DUP5 MUL DUP4 ADD DUP6 DUP2 GT ISZERO PUSH3 0x4D10 JUMPI PUSH3 0x4D0F PUSH3 0x4779 JUMP JUMPDEST JUMPDEST DUP4 JUMPDEST DUP2 DUP2 LT ISZERO PUSH3 0x4D5E JUMPI DUP1 MLOAD PUSH8 0xFFFFFFFFFFFFFFFF DUP2 GT ISZERO PUSH3 0x4D39 JUMPI PUSH3 0x4D38 PUSH3 0x46C1 JUMP JUMPDEST JUMPDEST DUP1 DUP7 ADD PUSH3 0x4D48 DUP10 DUP3 PUSH3 0x4BCE JUMP JUMPDEST DUP6 MSTORE PUSH1 0x20 DUP6 ADD SWAP5 POP POP POP PUSH1 0x20 DUP2 ADD SWAP1 POP PUSH3 0x4D12 JUMP JUMPDEST POP POP POP SWAP4 SWAP3 POP POP POP JUMP JUMPDEST PUSH1 0x0 DUP3 PUSH1 0x1F DUP4 ADD SLT PUSH3 0x4D80 JUMPI PUSH3 0x4D7F PUSH3 0x46C1 JUMP JUMPDEST JUMPDEST DUP2 MLOAD PUSH3 0x4D92 DUP5 DUP3 PUSH1 0x20 DUP7 ADD PUSH3 0x4CD3 JUMP JUMPDEST SWAP2 POP POP SWAP3 SWAP2 POP POP JUMP JUMPDEST PUSH1 0x0 PUSH1 0x20 DUP3 DUP5 SUB SLT ISZERO PUSH3 0x4DB4 JUMPI PUSH3 0x4DB3 PUSH3 0x4204 JUMP JUMPDEST JUMPDEST PUSH1 0x0 DUP3 ADD MLOAD PUSH8 0xFFFFFFFFFFFFFFFF DUP2 GT ISZERO PUSH3 0x4DD5 JUMPI PUSH3 0x4DD4 PUSH3 0x4209 JUMP JUMPDEST JUMPDEST PUSH3 0x4DE3 DUP5 DUP3 DUP6 ADD PUSH3 0x4D68 JUMP JUMPDEST SWAP2 POP POP SWAP3 SWAP2 POP POP JUMP JUMPDEST PUSH1 0x0 PUSH1 0x20 DUP3 DUP5 SUB SLT ISZERO PUSH3 0x4E05 JUMPI PUSH3 0x4E04 PUSH3 0x4204 JUMP JUMPDEST JUMPDEST PUSH1 0x0 PUSH3 0x4E15 DUP5 DUP3 DUP6 ADD PUSH3 0x4AE7 JUMP JUMPDEST SWAP2 POP POP SWAP3 SWAP2 POP POP JUMP JUMPDEST PUSH32 0x54686520706F6C6C206D7573742062652070726573656C656374696F6E207374 PUSH1 0x0 DUP3 ADD MSTORE PUSH32 0x6174652100000000000000000000000000000000000000000000000000000000 PUSH1 0x20 DUP3 ADD MSTORE POP JUMP JUMPDEST PUSH1 0x0 PUSH3 0x4E7C PUSH1 0x24 DUP4 PUSH3 0x4947 JUMP JUMPDEST SWAP2 POP PUSH3 0x4E89 DUP3 PUSH3 0x4E1E JUMP JUMPDEST PUSH1 0x40 DUP3 ADD SWAP1 POP SWAP2 SWAP1 POP JUMP JUMPDEST PUSH1 0x0 PUSH1 0x20 DUP3 ADD SWAP1 POP DUP2 DUP2 SUB PUSH1 0x0 DUP4 ADD MSTORE PUSH3 0x4EAF DUP2 PUSH3 0x4E6D JUMP JUMPDEST SWAP1 POP SWAP2 SWAP1 POP JUMP JUMPDEST PUSH1 0x0 PUSH1 0x40 DUP3 ADD SWAP1 POP PUSH3 0x4ECD PUSH1 0x0 DUP4 ADD DUP6 PUSH3 0x42AF JUMP JUMPDEST PUSH3 0x4EDC PUSH1 0x20 DUP4 ADD DUP5 PUSH3 0x4593 JUMP JUMPDEST SWAP4 SWAP3 POP POP POP JUMP JUMPDEST PUSH32 0x54686520706F6C6C206D75737420626520696E20616E20616374697665207374 PUSH1 0x0 DUP3 ADD MSTORE PUSH32 0x6174652100000000000000000000000000000000000000000000000000000000 PUSH1 0x20 DUP3 ADD MSTORE POP JUMP JUMPDEST PUSH1 0x0 PUSH3 0x4F41 PUSH1 0x24 DUP4 PUSH3 0x4947 JUMP JUMPDEST SWAP2 POP PUSH3 0x4F4E DUP3 PUSH3 0x4EE3 JUMP JUMPDEST PUSH1 0x40 DUP3 ADD SWAP1 POP SWAP2 SWAP1 POP JUMP JUMPDEST PUSH1 0x0 PUSH1 0x20 DUP3 ADD SWAP1 POP DUP2 DUP2 SUB PUSH1 0x0 DUP4 ADD MSTORE PUSH3 0x4F74 DUP2 PUSH3 0x4F32 JUMP JUMPDEST SWAP1 POP SWAP2 SWAP1 POP JUMP JUMPDEST PUSH1 0x0 PUSH1 0x80 DUP3 DUP5 SUB SLT ISZERO PUSH3 0x4F94 JUMPI PUSH3 0x4F93 PUSH3 0x4ADD JUMP JUMPDEST JUMPDEST PUSH3 0x4FA0 PUSH1 0x80 PUSH3 0x472B JUMP JUMPDEST SWAP1 POP PUSH1 0x0 PUSH3 0x4FB2 DUP5 DUP3 DUP6 ADD PUSH3 0x48FE JUMP JUMPDEST PUSH1 0x0 DUP4 ADD MSTORE POP PUSH1 0x20 PUSH3 0x4FC8 DUP5 DUP3 DUP6 ADD PUSH3 0x48FE JUMP JUMPDEST PUSH1 0x20 DUP4 ADD MSTORE POP PUSH1 0x40 PUSH3 0x4FDE DUP5 DUP3 DUP6 ADD PUSH3 0x48FE JUMP JUMPDEST PUSH1 0x40 DUP4 ADD MSTORE POP PUSH1 0x60 PUSH3 0x4FF4 DUP5 DUP3 DUP6 ADD PUSH3 0x48FE JUMP JUMPDEST PUSH1 0x60 DUP4 ADD MSTORE POP SWAP3 SWAP2 POP POP JUMP JUMPDEST PUSH1 0x0 PUSH2 0x120 DUP3 DUP5 SUB SLT ISZERO PUSH3 0x501A JUMPI PUSH3 0x5019 PUSH3 0x4ADD JUMP JUMPDEST JUMPDEST PUSH3 0x5026 PUSH1 0xC0 PUSH3 0x472B JUMP JUMPDEST SWAP1 POP PUSH1 0x0 PUSH3 0x5038 DUP5 DUP3 DUP6 ADD PUSH3 0x4AFE JUMP JUMPDEST PUSH1 0x0 DUP4 ADD MSTORE POP PUSH1 0x20 DUP3 ADD MLOAD PUSH8 0xFFFFFFFFFFFFFFFF DUP2 GT ISZERO PUSH3 0x505F JUMPI PUSH3 0x505E PUSH3 0x4AE2 JUMP JUMPDEST JUMPDEST PUSH3 0x506D DUP5 DUP3 DUP6 ADD PUSH3 0x4B9B JUMP JUMPDEST PUSH1 0x20 DUP4 ADD MSTORE POP PUSH1 0x40 DUP3 ADD MLOAD PUSH8 0xFFFFFFFFFFFFFFFF DUP2 GT ISZERO PUSH3 0x5094 JUMPI PUSH3 0x5093 PUSH3 0x4AE2 JUMP JUMPDEST JUMPDEST PUSH3 0x50A2 DUP5 DUP3 DUP6 ADD PUSH3 0x4B9B JUMP JUMPDEST PUSH1 0x40 DUP4 ADD MSTORE POP PUSH1 0x60 DUP3 ADD MLOAD PUSH8 0xFFFFFFFFFFFFFFFF DUP2 GT ISZERO PUSH3 0x50C9 JUMPI PUSH3 0x50C8 PUSH3 0x4AE2 JUMP JUMPDEST JUMPDEST PUSH3 0x50D7 DUP5 DUP3 DUP6 ADD PUSH3 0x4B9B JUMP JUMPDEST PUSH1 0x60 DUP4 ADD MSTORE POP PUSH1 0x80 PUSH3 0x50ED DUP5 DUP3 DUP6 ADD PUSH3 0x48FE JUMP JUMPDEST PUSH1 0x80 DUP4 ADD MSTORE POP PUSH1 0xA0 PUSH3 0x5103 DUP5 DUP3 DUP6 ADD PUSH3 0x4F7B JUMP JUMPDEST PUSH1 0xA0 DUP4 ADD MSTORE POP SWAP3 SWAP2 POP POP JUMP JUMPDEST PUSH1 0x0 PUSH1 0x20 DUP3 DUP5 SUB SLT ISZERO PUSH3 0x5128 JUMPI PUSH3 0x5127 PUSH3 0x4204 JUMP JUMPDEST JUMPDEST PUSH1 0x0 DUP3 ADD MLOAD PUSH8 0xFFFFFFFFFFFFFFFF DUP2 GT ISZERO PUSH3 0x5149 JUMPI PUSH3 0x5148 PUSH3 0x4209 JUMP JUMPDEST JUMPDEST PUSH3 0x5157 DUP5 DUP3 DUP6 ADD PUSH3 0x5000 JUMP JUMPDEST SWAP2 POP POP SWAP3 SWAP2 POP POP JUMP JUMPDEST PUSH1 0x0 PUSH3 0x516D DUP3 PUSH3 0x4376 JUMP JUMPDEST PUSH3 0x5179 DUP2 DUP6 PUSH3 0x4947 JUMP JUMPDEST SWAP4 POP PUSH3 0x518B DUP2 DUP6 PUSH1 0x20 DUP7 ADD PUSH3 0x4392 JUMP JUMPDEST PUSH3 0x5196 DUP2 PUSH3 0x43C8 JUMP JUMPDEST DUP5 ADD SWAP2 POP POP SWAP3 SWAP2 POP POP JUMP JUMPDEST PUSH1 0x0 PUSH1 0xA0 DUP3 ADD SWAP1 POP PUSH3 0x51B8 PUSH1 0x0 DUP4 ADD DUP9 PUSH3 0x42AF JUMP JUMPDEST PUSH3 0x51C7 PUSH1 0x20 DUP4 ADD DUP8 PUSH3 0x42AF JUMP JUMPDEST PUSH3 0x51D6 PUSH1 0x40 DUP4 ADD DUP7 PUSH3 0x42E9 JUMP JUMPDEST DUP2 DUP2 SUB PUSH1 0x60 DUP4 ADD MSTORE PUSH3 0x51EA DUP2 DUP6 PUSH3 0x5160 JUMP JUMPDEST SWAP1 POP DUP2 DUP2 SUB PUSH1 0x80 DUP4 ADD MSTORE PUSH3 0x5200 DUP2 DUP5 PUSH3 0x5160 JUMP JUMPDEST SWAP1 POP SWAP7 SWAP6 POP POP POP POP POP POP JUMP JUMPDEST PUSH32 0x43616E64696461746520616C7265616479206E6F6D696E617465642100000000 PUSH1 0x0 DUP3 ADD MSTORE POP JUMP JUMPDEST PUSH1 0x0 PUSH3 0x5244 PUSH1 0x1C DUP4 PUSH3 0x4947 JUMP JUMPDEST SWAP2 POP PUSH3 0x5251 DUP3 PUSH3 0x520C JUMP JUMPDEST PUSH1 0x20 DUP3 ADD SWAP1 POP SWAP2 SWAP1 POP JUMP JUMPDEST PUSH1 0x0 PUSH1 0x20 DUP3 ADD SWAP1 POP DUP2 DUP2 SUB PUSH1 0x0 DUP4 ADD MSTORE PUSH3 0x5277 DUP2 PUSH3 0x5235 JUMP JUMPDEST SWAP1 POP SWAP2 SWAP1 POP JUMP JUMPDEST PUSH32 0x4E6F2073756666696369656E7420726967687473210000000000000000000000 PUSH1 0x0 DUP3 ADD MSTORE POP JUMP JUMPDEST PUSH1 0x0 PUSH3 0x52B6 PUSH1 0x15 DUP4 PUSH3 0x4947 JUMP JUMPDEST SWAP2 POP PUSH3 0x52C3 DUP3 PUSH3 0x527E JUMP JUMPDEST PUSH1 0x20 DUP3 ADD SWAP1 POP SWAP2 SWAP1 POP JUMP JUMPDEST PUSH1 0x0 PUSH1 0x20 DUP3 ADD SWAP1 POP DUP2 DUP2 SUB PUSH1 0x0 DUP4 ADD MSTORE PUSH3 0x52E9 DUP2 PUSH3 0x52A7 JUMP JUMPDEST SWAP1 POP SWAP2 SWAP1 POP JUMP JUMPDEST PUSH32 0x4E487B7100000000000000000000000000000000000000000000000000000000 PUSH1 0x0 MSTORE PUSH1 0x32 PUSH1 0x4 MSTORE PUSH1 0x24 PUSH1 0x0 REVERT JUMPDEST PUSH32 0x4E487B7100000000000000000000000000000000000000000000000000000000 PUSH1 0x0 MSTORE PUSH1 0x11 PUSH1 0x4 MSTORE PUSH1 0x24 PUSH1 0x0 REVERT JUMPDEST PUSH1 0x0 PUSH3 0x535B DUP3 PUSH3 0x420E JUMP JUMPDEST SWAP2 POP PUSH32 0xFFFFFFFFFFFFFFFFFFFFFFFFFFFFFFFFFFFFFFFFFFFFFFFFFFFFFFFFFFFFFFFF DUP3 EQ ISZERO PUSH3 0x5391 JUMPI PUSH3 0x5390 PUSH3 0x531F JUMP JUMPDEST JUMPDEST PUSH1 0x1 DUP3 ADD SWAP1 POP SWAP2 SWAP1 POP JUMP JUMPDEST PUSH32 0x436F6E73756C746174696F6E206973206E6F7420696E207468652027454C4543 PUSH1 0x0 DUP3 ADD MSTORE PUSH32 0x544544272073746174652E000000000000000000000000000000000000000000 PUSH1 0x20 DUP3 ADD MSTORE POP JUMP JUMPDEST PUSH1 0x0 PUSH3 0x53FA PUSH1 0x2B DUP4 PUSH3 0x4947 JUMP JUMPDEST SWAP2 POP PUSH3 0x5407 DUP3 PUSH3 0x539C JUMP JUMPDEST PUSH1 0x40 DUP3 ADD SWAP1 POP SWAP2 SWAP1 POP JUMP JUMPDEST PUSH1 0x0 PUSH1 0x20 DUP3 ADD SWAP1 POP DUP2 DUP2 SUB PUSH1 0x0 DUP4 ADD MSTORE PUSH3 0x542D DUP2 PUSH3 0x53EB JUMP JUMPDEST SWAP1 POP SWAP2 SWAP1 POP JUMP JUMPDEST PUSH32 0x436F6E73756C746174696F6E20686173206E6F742072656163686564206D696E PUSH1 0x0 DUP3 ADD MSTORE PUSH32 0x696D756D20766F746572207475726E6F75742E00000000000000000000000000 PUSH1 0x20 DUP3 ADD MSTORE POP JUMP JUMPDEST PUSH1 0x0 PUSH3 0x5492 PUSH1 0x33 DUP4 PUSH3 0x4947 JUMP JUMPDEST SWAP2 POP PUSH3 0x549F DUP3 PUSH3 0x5434 JUMP JUMPDEST PUSH1 0x40 DUP3 ADD SWAP1 POP SWAP2 SWAP1 POP JUMP JUMPDEST PUSH1 0x0 PUSH1 0x20 DUP3 ADD SWAP1 POP DUP2 DUP2 SUB PUSH1 0x0 DUP4 ADD MSTORE PUSH3 0x54C5 DUP2 PUSH3 0x5483 JUMP JUMPDEST SWAP1 POP SWAP2 SWAP1 POP JUMP JUMPDEST PUSH32 0x436F6E73756C746174696F6E206973206E6F7420696E207468652027454C4543 PUSH1 0x0 DUP3 ADD MSTORE PUSH32 0x54494F4E272073746174652E0000000000000000000000000000000000000000 PUSH1 0x20 DUP3 ADD MSTORE POP JUMP JUMPDEST PUSH1 0x0 PUSH3 0x552A PUSH1 0x2C DUP4 PUSH3 0x4947 JUMP JUMPDEST SWAP2 POP PUSH3 0x5537 DUP3 PUSH3 0x54CC JUMP JUMPDEST PUSH1 0x40 DUP3 ADD SWAP1 POP SWAP2 SWAP1 POP JUMP JUMPDEST PUSH1 0x0 PUSH1 0x20 DUP3 ADD SWAP1 POP DUP2 DUP2 SUB PUSH1 0x0 DUP4 ADD MSTORE PUSH3 0x555D DUP2 PUSH3 0x551B JUMP JUMPDEST SWAP1 POP SWAP2 SWAP1 POP JUMP JUMPDEST PUSH1 0x0 PUSH3 0x5571 DUP3 PUSH3 0x420E JUMP JUMPDEST SWAP2 POP PUSH3 0x557E DUP4 PUSH3 0x420E JUMP JUMPDEST SWAP3 POP DUP2 PUSH32 0xFFFFFFFFFFFFFFFFFFFFFFFFFFFFFFFFFFFFFFFFFFFFFFFFFFFFFFFFFFFFFFFF DIV DUP4 GT DUP3 ISZERO ISZERO AND ISZERO PUSH3 0x55BA JUMPI PUSH3 0x55B9 PUSH3 0x531F JUMP JUMPDEST JUMPDEST DUP3 DUP3 MUL SWAP1 POP SWAP3 SWAP2 POP POP JUMP JUMPDEST PUSH1 0x0 PUSH3 0x55D2 DUP3 PUSH3 0x420E JUMP JUMPDEST SWAP2 POP PUSH3 0x55DF DUP4 PUSH3 0x420E JUMP JUMPDEST SWAP3 POP DUP3 PUSH32 0xFFFFFFFFFFFFFFFFFFFFFFFFFFFFFFFFFFFFFFFFFFFFFFFFFFFFFFFFFFFFFFFF SUB DUP3 GT ISZERO PUSH3 0x5617 JUMPI PUSH3 0x5616 PUSH3 0x531F JUMP JUMPDEST JUMPDEST DUP3 DUP3 ADD SWAP1 POP SWAP3 SWAP2 POP POP JUMP JUMPDEST PUSH32 0x456C656374696F6E20686173206E6F7420737461727465640000000000000000 PUSH1 0x0 DUP3 ADD MSTORE POP JUMP JUMPDEST PUSH1 0x0 PUSH3 0x565A PUSH1 0x18 DUP4 PUSH3 0x4947 JUMP JUMPDEST SWAP2 POP PUSH3 0x5667 DUP3 PUSH3 0x5622 JUMP JUMPDEST PUSH1 0x20 DUP3 ADD SWAP1 POP SWAP2 SWAP1 POP JUMP JUMPDEST PUSH1 0x0 PUSH1 0x20 DUP3 ADD SWAP1 POP DUP2 DUP2 SUB PUSH1 0x0 DUP4 ADD MSTORE PUSH3 0x568D DUP2 PUSH3 0x564B JUMP JUMPDEST SWAP1 POP SWAP2 SWAP1 POP JUMP JUMPDEST PUSH1 0x0 DUP2 SWAP1 POP SWAP2 SWAP1 POP JUMP JUMPDEST PUSH1 0x0 DUP2 SWAP1 POP SWAP2 SWAP1 POP JUMP JUMPDEST PUSH1 0x0 PUSH3 0x56C9 PUSH3 0x56C3 PUSH3 0x56BD DUP5 PUSH3 0x5694 JUMP JUMPDEST PUSH3 0x569E JUMP JUMPDEST PUSH3 0x420E JUMP JUMPDEST SWAP1 POP SWAP2 SWAP1 POP JUMP JUMPDEST PUSH3 0x56DB DUP2 PUSH3 0x56A8 JUMP JUMPDEST DUP3 MSTORE POP POP JUMP JUMPDEST PUSH1 0x0 PUSH1 0x40 DUP3 ADD SWAP1 POP PUSH3 0x56F8 PUSH1 0x0 DUP4 ADD DUP6 PUSH3 0x4593 JUMP JUMPDEST PUSH3 0x5707 PUSH1 0x20 DUP4 ADD DUP5 PUSH3 0x56D0 JUMP JUMPDEST SWAP4 SWAP3 POP POP POP JUMP JUMPDEST PUSH32 0x43616E64696461747572652077617320616C7265616479206163636570746564 PUSH1 0x0 DUP3 ADD MSTORE PUSH32 0x2100000000000000000000000000000000000000000000000000000000000000 PUSH1 0x20 DUP3 ADD MSTORE POP JUMP JUMPDEST PUSH1 0x0 PUSH3 0x576C PUSH1 0x21 DUP4 PUSH3 0x4947 JUMP JUMPDEST SWAP2 POP PUSH3 0x5779 DUP3 PUSH3 0x570E JUMP JUMPDEST PUSH1 0x40 DUP3 ADD SWAP1 POP SWAP2 SWAP1 POP JUMP JUMPDEST PUSH1 0x0 PUSH1 0x20 DUP3 ADD SWAP1 POP DUP2 DUP2 SUB PUSH1 0x0 DUP4 ADD MSTORE PUSH3 0x579F DUP2 PUSH3 0x575D JUMP JUMPDEST SWAP1 POP SWAP2 SWAP1 POP JUMP JUMPDEST PUSH32 0x43616E646964617465206973206E6F74206E6F6D696E61746564210000000000 PUSH1 0x0 DUP3 ADD MSTORE POP JUMP JUMPDEST PUSH1 0x0 PUSH3 0x57DE PUSH1 0x1B DUP4 PUSH3 0x4947 JUMP JUMPDEST SWAP2 POP PUSH3 0x57EB DUP3 PUSH3 0x57A6 JUMP JUMPDEST PUSH1 0x20 DUP3 ADD SWAP1 POP SWAP2 SWAP1 POP JUMP JUMPDEST PUSH1 0x0 PUSH1 0x20 DUP3 ADD SWAP1 POP DUP2 DUP2 SUB PUSH1 0x0 DUP4 ADD MSTORE PUSH3 0x5811 DUP2 PUSH3 0x57CF JUMP JUMPDEST SWAP1 POP SWAP2 SWAP1 POP JUMP JUMPDEST PUSH1 0x0 DUP2 MLOAD SWAP1 POP SWAP2 SWAP1 POP JUMP JUMPDEST PUSH1 0x0 DUP3 DUP3 MSTORE PUSH1 0x20 DUP3 ADD SWAP1 POP SWAP3 SWAP2 POP POP JUMP JUMPDEST PUSH1 0x0 DUP2 SWAP1 POP PUSH1 0x20 DUP3 ADD SWAP1 POP SWAP2 SWAP1 POP JUMP JUMPDEST PUSH1 0x0 PUSH3 0x5852 DUP4 DUP4 PUSH3 0x4354 JUMP JUMPDEST PUSH1 0x20 DUP4 ADD SWAP1 POP SWAP3 SWAP2 POP POP JUMP JUMPDEST PUSH1 0x0 PUSH1 0x20 DUP3 ADD SWAP1 POP SWAP2 SWAP1 POP JUMP JUMPDEST PUSH1 0x0 PUSH3 0x5878 DUP3 PUSH3 0x5818 JUMP JUMPDEST PUSH3 0x5884 DUP2 DUP6 PUSH3 0x5823 JUMP JUMPDEST SWAP4 POP PUSH3 0x5891 DUP4 PUSH3 0x5834 JUMP JUMPDEST DUP1 PUSH1 0x0 JUMPDEST DUP4 DUP2 LT ISZERO PUSH3 0x58C8 JUMPI DUP2 MLOAD PUSH3 0x58AC DUP9 DUP3 PUSH3 0x5844 JUMP JUMPDEST SWAP8 POP PUSH3 0x58B9 DUP4 PUSH3 0x585E JUMP JUMPDEST SWAP3 POP POP PUSH1 0x1 DUP2 ADD SWAP1 POP PUSH3 0x5895 JUMP JUMPDEST POP DUP6 SWAP4 POP POP POP POP SWAP3 SWAP2 POP POP JUMP JUMPDEST PUSH1 0x0 PUSH1 0x20 DUP3 ADD SWAP1 POP DUP2 DUP2 SUB PUSH1 0x0 DUP4 ADD MSTORE PUSH3 0x58F1 DUP2 DUP5 PUSH3 0x586B JUMP JUMPDEST SWAP1 POP SWAP3 SWAP2 POP POP JUMP JUMPDEST PUSH1 0x0 PUSH3 0x5910 PUSH3 0x590A DUP5 PUSH3 0x474A JUMP JUMPDEST PUSH3 0x472B JUMP JUMPDEST SWAP1 POP DUP1 DUP4 DUP3 MSTORE PUSH1 0x20 DUP3 ADD SWAP1 POP PUSH1 0x20 DUP5 MUL DUP4 ADD DUP6 DUP2 GT ISZERO PUSH3 0x5936 JUMPI PUSH3 0x5935 PUSH3 0x4779 JUMP JUMPDEST JUMPDEST DUP4 JUMPDEST DUP2 DUP2 LT ISZERO PUSH3 0x5963 JUMPI DUP1 PUSH3 0x594E DUP9 DUP3 PUSH3 0x4AFE JUMP JUMPDEST DUP5 MSTORE PUSH1 0x20 DUP5 ADD SWAP4 POP POP PUSH1 0x20 DUP2 ADD SWAP1 POP PUSH3 0x5938 JUMP JUMPDEST POP POP POP SWAP4 SWAP3 POP POP POP JUMP JUMPDEST PUSH1 0x0 DUP3 PUSH1 0x1F DUP4 ADD SLT PUSH3 0x5985 JUMPI PUSH3 0x5984 PUSH3 0x46C1 JUMP JUMPDEST JUMPDEST DUP2 MLOAD PUSH3 0x5997 DUP5 DUP3 PUSH1 0x20 DUP7 ADD PUSH3 0x58F9 JUMP JUMPDEST SWAP2 POP POP SWAP3 SWAP2 POP POP JUMP JUMPDEST PUSH1 0x0 PUSH1 0x60 DUP3 DUP5 SUB SLT ISZERO PUSH3 0x59B9 JUMPI PUSH3 0x59B8 PUSH3 0x4ADD JUMP JUMPDEST JUMPDEST PUSH3 0x59C5 PUSH1 0x60 PUSH3 0x472B JUMP JUMPDEST SWAP1 POP PUSH1 0x0 DUP3 ADD MLOAD PUSH8 0xFFFFFFFFFFFFFFFF DUP2 GT ISZERO PUSH3 0x59E8 JUMPI PUSH3 0x59E7 PUSH3 0x4AE2 JUMP JUMPDEST JUMPDEST PUSH3 0x59F6 DUP5 DUP3 DUP6 ADD PUSH3 0x596D JUMP JUMPDEST PUSH1 0x0 DUP4 ADD MSTORE POP PUSH1 0x20 PUSH3 0x5A0C DUP5 DUP3 DUP6 ADD PUSH3 0x4AE7 JUMP JUMPDEST PUSH1 0x20 DUP4 ADD MSTORE POP PUSH1 0x40 PUSH3 0x5A22 DUP5 DUP3 DUP6 ADD PUSH3 0x48FE JUMP JUMPDEST PUSH1 0x40 DUP4 ADD MSTORE POP SWAP3 SWAP2 POP POP JUMP JUMPDEST PUSH1 0x0 PUSH1 0x20 DUP3 DUP5 SUB SLT ISZERO PUSH3 0x5A47 JUMPI PUSH3 0x5A46 PUSH3 0x4204 JUMP JUMPDEST JUMPDEST PUSH1 0x0 DUP3 ADD MLOAD PUSH8 0xFFFFFFFFFFFFFFFF DUP2 GT ISZERO PUSH3 0x5A68 JUMPI PUSH3 0x5A67 PUSH3 0x4209 JUMP JUMPDEST JUMPDEST PUSH3 0x5A76 DUP5 DUP3 DUP6 ADD PUSH3 0x59A0 JUMP JUMPDEST SWAP2 POP POP SWAP3 SWAP2 POP POP JUMP JUMPDEST PUSH1 0x0 DUP3 DUP3 MSTORE PUSH1 0x20 DUP3 ADD SWAP1 POP SWAP3 SWAP2 POP POP JUMP JUMPDEST PUSH1 0x0 PUSH3 0x5A9D DUP3 PUSH3 0x5818 JUMP JUMPDEST PUSH3 0x5AA9 DUP2 DUP6 PUSH3 0x5A7F JUMP JUMPDEST SWAP4 POP PUSH3 0x5AB6 DUP4 PUSH3 0x5834 JUMP JUMPDEST DUP1 PUSH1 0x0 JUMPDEST DUP4 DUP2 LT ISZERO PUSH3 0x5AED JUMPI DUP2 MLOAD PUSH3 0x5AD1 DUP9 DUP3 PUSH3 0x5844 JUMP JUMPDEST SWAP8 POP PUSH3 0x5ADE DUP4 PUSH3 0x585E JUMP JUMPDEST SWAP3 POP POP PUSH1 0x1 DUP2 ADD SWAP1 POP PUSH3 0x5ABA JUMP JUMPDEST POP DUP6 SWAP4 POP POP POP POP SWAP3 SWAP2 POP POP JUMP JUMPDEST PUSH1 0x0 PUSH1 0x60 DUP4 ADD PUSH1 0x0 DUP4 ADD MLOAD DUP5 DUP3 SUB PUSH1 0x0 DUP7 ADD MSTORE PUSH3 0x5B19 DUP3 DUP3 PUSH3 0x5A90 JUMP JUMPDEST SWAP2 POP POP PUSH1 0x20 DUP4 ADD MLOAD PUSH3 0x5B30 PUSH1 0x20 DUP7 ADD DUP3 PUSH3 0x4343 JUMP JUMPDEST POP PUSH1 0x40 DUP4 ADD MLOAD PUSH3 0x5B45 PUSH1 0x40 DUP7 ADD DUP3 PUSH3 0x4365 JUMP JUMPDEST POP DUP1 SWAP2 POP POP SWAP3 SWAP2 POP POP JUMP JUMPDEST PUSH1 0x0 PUSH1 0x40 DUP3 ADD SWAP1 POP PUSH3 0x5B67 PUSH1 0x0 DUP4 ADD DUP6 PUSH3 0x42AF JUMP JUMPDEST DUP2 DUP2 SUB PUSH1 0x20 DUP4 ADD MSTORE PUSH3 0x5B7B DUP2 DUP5 PUSH3 0x5AFA JUMP JUMPDEST SWAP1 POP SWAP4 SWAP3 POP POP POP JUMP JUMPDEST PUSH1 0x0 PUSH1 0x60 DUP3 DUP5 SUB SLT ISZERO PUSH3 0x5B9D JUMPI PUSH3 0x5B9C PUSH3 0x4ADD JUMP JUMPDEST JUMPDEST PUSH3 0x5BA9 PUSH1 0x60 PUSH3 0x472B JUMP JUMPDEST SWAP1 POP PUSH1 0x0 DUP3 ADD MLOAD PUSH8 0xFFFFFFFFFFFFFFFF DUP2 GT ISZERO PUSH3 0x5BCC JUMPI PUSH3 0x5BCB PUSH3 0x4AE2 JUMP JUMPDEST JUMPDEST PUSH3 0x5BDA DUP5 DUP3 DUP6 ADD PUSH3 0x596D JUMP JUMPDEST PUSH1 0x0 DUP4 ADD MSTORE POP PUSH1 0x20 PUSH3 0x5BF0 DUP5 DUP3 DUP6 ADD PUSH3 0x4AE7 JUMP JUMPDEST PUSH1 0x20 DUP4 ADD MSTORE POP PUSH1 0x40 PUSH3 0x5C06 DUP5 DUP3 DUP6 ADD PUSH3 0x48FE JUMP JUMPDEST PUSH1 0x40 DUP4 ADD MSTORE POP SWAP3 SWAP2 POP POP JUMP JUMPDEST PUSH1 0x0 PUSH1 0x20 DUP3 DUP5 SUB SLT ISZERO PUSH3 0x5C2B JUMPI PUSH3 0x5C2A PUSH3 0x4204 JUMP JUMPDEST JUMPDEST PUSH1 0x0 DUP3 ADD MLOAD PUSH8 0xFFFFFFFFFFFFFFFF DUP2 GT ISZERO PUSH3 0x5C4C JUMPI PUSH3 0x5C4B PUSH3 0x4209 JUMP JUMPDEST JUMPDEST PUSH3 0x5C5A DUP5 DUP3 DUP6 ADD PUSH3 0x5B84 JUMP JUMPDEST SWAP2 POP POP SWAP3 SWAP2 POP POP JUMP JUMPDEST PUSH1 0x0 PUSH1 0x60 DUP4 ADD PUSH1 0x0 DUP4 ADD MLOAD DUP5 DUP3 SUB PUSH1 0x0 DUP7 ADD MSTORE PUSH3 0x5C82 DUP3 DUP3 PUSH3 0x5A90 JUMP JUMPDEST SWAP2 POP POP PUSH1 0x20 DUP4 ADD MLOAD PUSH3 0x5C99 PUSH1 0x20 DUP7 ADD DUP3 PUSH3 0x4343 JUMP JUMPDEST POP PUSH1 0x40 DUP4 ADD MLOAD PUSH3 0x5CAE PUSH1 0x40 DUP7 ADD DUP3 PUSH3 0x4365 JUMP JUMPDEST POP DUP1 SWAP2 POP POP SWAP3 SWAP2 POP POP JUMP JUMPDEST PUSH1 0x0 PUSH1 0x40 DUP3 ADD SWAP1 POP PUSH3 0x5CD0 PUSH1 0x0 DUP4 ADD DUP6 PUSH3 0x42AF JUMP JUMPDEST DUP2 DUP2 SUB PUSH1 0x20 DUP4 ADD MSTORE PUSH3 0x5CE4 DUP2 DUP5 PUSH3 0x5C63 JUMP JUMPDEST SWAP1 POP SWAP4 SWAP3 POP POP POP JUMP JUMPDEST PUSH32 0x456C656374696F6E206973206E6F7420696E20737461746520454C4543544544 PUSH1 0x0 DUP3 ADD MSTORE POP JUMP JUMPDEST PUSH1 0x0 PUSH3 0x5D25 PUSH1 0x20 DUP4 PUSH3 0x4947 JUMP JUMPDEST SWAP2 POP PUSH3 0x5D32 DUP3 PUSH3 0x5CED JUMP JUMPDEST PUSH1 0x20 DUP3 ADD SWAP1 POP SWAP2 SWAP1 POP JUMP JUMPDEST PUSH1 0x0 PUSH1 0x20 DUP3 ADD SWAP1 POP DUP2 DUP2 SUB PUSH1 0x0 DUP4 ADD MSTORE PUSH3 0x5D58 DUP2 PUSH3 0x5D16 JUMP JUMPDEST SWAP1 POP SWAP2 SWAP1 POP JUMP JUMPDEST PUSH1 0x0 PUSH1 0x60 DUP3 ADD SWAP1 POP PUSH3 0x5D76 PUSH1 0x0 DUP4 ADD DUP7 PUSH3 0x48B6 JUMP JUMPDEST PUSH3 0x5D85 PUSH1 0x20 DUP4 ADD DUP6 PUSH3 0x48B6 JUMP JUMPDEST DUP2 DUP2 SUB PUSH1 0x40 DUP4 ADD MSTORE PUSH3 0x5D99 DUP2 DUP5 PUSH3 0x5160 JUMP JUMPDEST SWAP1 POP SWAP5 SWAP4 POP POP POP POP JUMP JUMPDEST PUSH1 0x0 PUSH1 0x20 DUP3 DUP5 SUB SLT ISZERO PUSH3 0x5DBC JUMPI PUSH3 0x5DBB PUSH3 0x4204 JUMP JUMPDEST JUMPDEST PUSH1 0x0 DUP3 ADD MLOAD PUSH8 0xFFFFFFFFFFFFFFFF DUP2 GT ISZERO PUSH3 0x5DDD JUMPI PUSH3 0x5DDC PUSH3 0x4209 JUMP JUMPDEST JUMPDEST PUSH3 0x5DEB DUP5 DUP3 DUP6 ADD PUSH3 0x4B9B JUMP JUMPDEST SWAP2 POP POP SWAP3 SWAP2 POP POP JUMP JUMPDEST PUSH1 0x0 DUP2 SLOAD SWAP1 POP SWAP2 SWAP1 POP JUMP JUMPDEST PUSH1 0x0 DUP2 SWAP1 POP DUP2 PUSH1 0x0 MSTORE PUSH1 0x20 PUSH1 0x0 KECCAK256 SWAP1 POP SWAP2 SWAP1 POP JUMP JUMPDEST PUSH1 0x0 DUP2 PUSH1 0x0 SHR SWAP1 POP SWAP2 SWAP1 POP JUMP JUMPDEST PUSH1 0x0 PUSH20 0xFFFFFFFFFFFFFFFFFFFFFFFFFFFFFFFFFFFFFFFF DUP3 AND SWAP1 POP SWAP2 SWAP1 POP JUMP JUMPDEST PUSH1 0x0 PUSH3 0x5E58 PUSH3 0x5E52 DUP4 PUSH3 0x5E14 JUMP JUMPDEST PUSH3 0x5E21 JUMP JUMPDEST SWAP1 POP SWAP2 SWAP1 POP JUMP JUMPDEST PUSH1 0x0 PUSH3 0x5E6D DUP3 SLOAD PUSH3 0x5E41 JUMP JUMPDEST SWAP1 POP SWAP2 SWAP1 POP JUMP JUMPDEST PUSH1 0x0 PUSH1 0x1 DUP3 ADD SWAP1 POP SWAP2 SWAP1 POP JUMP JUMPDEST PUSH1 0x0 PUSH3 0x5E8E DUP3 PUSH3 0x5DF4 JUMP JUMPDEST PUSH3 0x5E9A DUP2 DUP6 PUSH3 0x5823 JUMP JUMPDEST SWAP4 POP PUSH3 0x5EA7 DUP4 PUSH3 0x5DFF JUMP JUMPDEST DUP1 PUSH1 0x0 JUMPDEST DUP4 DUP2 LT ISZERO PUSH3 0x5EE7 JUMPI PUSH3 0x5EBF DUP3 PUSH3 0x5E5F JUMP JUMPDEST PUSH3 0x5ECB DUP9 DUP3 PUSH3 0x5844 JUMP JUMPDEST SWAP8 POP PUSH3 0x5ED8 DUP4 PUSH3 0x5E74 JUMP JUMPDEST SWAP3 POP POP PUSH1 0x1 DUP2 ADD SWAP1 POP PUSH3 0x5EAB JUMP JUMPDEST POP DUP6 SWAP4 POP POP POP POP SWAP3 SWAP2 POP POP JUMP JUMPDEST PUSH1 0x0 PUSH1 0x80 DUP3 ADD SWAP1 POP DUP2 DUP2 SUB PUSH1 0x0 DUP4 ADD MSTORE PUSH3 0x5F10 DUP2 DUP8 PUSH3 0x5E81 JUMP JUMPDEST SWAP1 POP DUP2 DUP2 SUB PUSH1 0x20 DUP4 ADD MSTORE PUSH3 0x5F26 DUP2 DUP7 PUSH3 0x5160 JUMP JUMPDEST SWAP1 POP DUP2 DUP2 SUB PUSH1 0x40 DUP4 ADD MSTORE PUSH3 0x5F3C DUP2 DUP6 PUSH3 0x5160 JUMP JUMPDEST SWAP1 POP PUSH3 0x5F4D PUSH1 0x60 DUP4 ADD DUP5 PUSH3 0x42E9 JUMP JUMPDEST SWAP6 SWAP5 POP POP POP POP POP JUMP JUMPDEST PUSH1 0x0 PUSH1 0x80 DUP3 ADD SWAP1 POP DUP2 DUP2 SUB PUSH1 0x0 DUP4 ADD MSTORE PUSH3 0x5F72 DUP2 DUP8 PUSH3 0x586B JUMP JUMPDEST SWAP1 POP DUP2 DUP2 SUB PUSH1 0x20 DUP4 ADD MSTORE PUSH3 0x5F88 DUP2 DUP7 PUSH3 0x5160 JUMP JUMPDEST SWAP1 POP DUP2 DUP2 SUB PUSH1 0x40 DUP4 ADD MSTORE PUSH3 0x5F9E DUP2 DUP6 PUSH3 0x5160 JUMP JUMPDEST SWAP1 POP PUSH3 0x5FAF PUSH1 0x60 DUP4 ADD DUP5 PUSH3 0x42E9 JUMP JUMPDEST SWAP6 SWAP5 POP POP POP POP POP JUMP JUMPDEST PUSH32 0x4F6E65206F72206D6F72652075736572732063616E2774206372656174652061 PUSH1 0x0 DUP3 ADD MSTORE PUSH32 0x20636F6E73756C746174696F6E21000000000000000000000000000000000000 PUSH1 0x20 DUP3 ADD MSTORE POP JUMP JUMPDEST PUSH1 0x0 PUSH3 0x6016 PUSH1 0x2E DUP4 PUSH3 0x4947 JUMP JUMPDEST SWAP2 POP PUSH3 0x6023 DUP3 PUSH3 0x5FB8 JUMP JUMPDEST PUSH1 0x40 DUP3 ADD SWAP1 POP SWAP2 SWAP1 POP JUMP JUMPDEST PUSH1 0x0 PUSH1 0x20 DUP3 ADD SWAP1 POP DUP2 DUP2 SUB PUSH1 0x0 DUP4 ADD MSTORE PUSH3 0x6049 DUP2 PUSH3 0x6007 JUMP JUMPDEST SWAP1 POP SWAP2 SWAP1 POP JUMP INVALID PUSH1 0x80 PUSH1 0x40 MSTORE CALLVALUE DUP1 ISZERO PUSH3 0x11 JUMPI PUSH1 0x0 DUP1 REVERT JUMPDEST POP PUSH1 0x40 MLOAD PUSH3 0x4829 CODESIZE SUB DUP1 PUSH3 0x4829 DUP4 CODECOPY DUP2 DUP2 ADD PUSH1 0x40 MSTORE DUP2 ADD SWAP1 PUSH3 0x37 SWAP2 SWAP1 PUSH3 0x7CC JUMP JUMPDEST PUSH1 0x40 MLOAD PUSH3 0x45 SWAP1 PUSH3 0x365 JUMP JUMPDEST PUSH1 0x40 MLOAD DUP1 SWAP2 SUB SWAP1 PUSH1 0x0 CREATE DUP1 ISZERO DUP1 ISZERO PUSH3 0x62 JUMPI RETURNDATASIZE PUSH1 0x0 DUP1 RETURNDATACOPY RETURNDATASIZE PUSH1 0x0 REVERT JUMPDEST POP PUSH1 0x9 PUSH1 0x0 PUSH2 0x100 EXP DUP2 SLOAD DUP2 PUSH20 0xFFFFFFFFFFFFFFFFFFFFFFFFFFFFFFFFFFFFFFFF MUL NOT AND SWAP1 DUP4 PUSH20 0xFFFFFFFFFFFFFFFFFFFFFFFFFFFFFFFFFFFFFFFF AND MUL OR SWAP1 SSTORE POP PUSH3 0xB7 DUP5 DUP5 DUP5 DUP5 PUSH3 0xC2 PUSH1 0x20 SHL PUSH1 0x20 SHR JUMP JUMPDEST POP POP POP POP POP PUSH3 0xB26 JUMP JUMPDEST PUSH1 0x0 PUSH1 0x9 PUSH1 0x0 SWAP1 SLOAD SWAP1 PUSH2 0x100 EXP SWAP1 DIV PUSH20 0xFFFFFFFFFFFFFFFFFFFFFFFFFFFFFFFFFFFFFFFF AND PUSH20 0xFFFFFFFFFFFFFFFFFFFFFFFFFFFFFFFFFFFFFFFF AND PUSH4 0xEFC6C18C PUSH1 0x40 MLOAD DUP2 PUSH4 0xFFFFFFFF AND PUSH1 0xE0 SHL DUP2 MSTORE PUSH1 0x4 ADD PUSH1 0x20 PUSH1 0x40 MLOAD DUP1 DUP4 SUB DUP2 DUP7 GAS STATICCALL ISZERO DUP1 ISZERO PUSH3 0x132 JUMPI RETURNDATASIZE PUSH1 0x0 DUP1 RETURNDATACOPY RETURNDATASIZE PUSH1 0x0 REVERT JUMPDEST POP POP POP POP PUSH1 0x40 MLOAD RETURNDATASIZE PUSH1 0x1F NOT PUSH1 0x1F DUP3 ADD AND DUP3 ADD DUP1 PUSH1 0x40 MSTORE POP DUP2 ADD SWAP1 PUSH3 0x158 SWAP2 SWAP1 PUSH3 0x8D6 JUMP JUMPDEST PUSH1 0x0 DUP2 SWAP1 SSTORE POP DUP4 PUSH1 0x2 SWAP1 DUP1 MLOAD SWAP1 PUSH1 0x20 ADD SWAP1 PUSH3 0x176 SWAP3 SWAP2 SWAP1 PUSH3 0x373 JUMP JUMPDEST POP DUP3 PUSH1 0x3 SWAP1 DUP1 MLOAD SWAP1 PUSH1 0x20 ADD SWAP1 PUSH3 0x18F SWAP3 SWAP2 SWAP1 PUSH3 0x373 JUMP JUMPDEST POP TIMESTAMP PUSH1 0x4 DUP2 SWAP1 SSTORE POP DUP5 PUSH1 0x1 SWAP1 DUP1 MLOAD SWAP1 PUSH1 0x20 ADD SWAP1 PUSH3 0x1AF SWAP3 SWAP2 SWAP1 PUSH3 0x404 JUMP JUMPDEST POP PUSH1 0x0 PUSH1 0x7 PUSH1 0x0 PUSH2 0x100 EXP DUP2 SLOAD DUP2 PUSH1 0xFF MUL NOT AND SWAP1 DUP4 PUSH1 0x2 DUP2 GT ISZERO PUSH3 0x1D9 JUMPI PUSH3 0x1D8 PUSH3 0x908 JUMP JUMPDEST JUMPDEST MUL OR SWAP1 SSTORE POP DUP2 PUSH1 0x7 PUSH1 0x1 PUSH2 0x100 EXP DUP2 SLOAD DUP2 PUSH1 0xFF MUL NOT AND SWAP1 DUP4 ISZERO ISZERO MUL OR SWAP1 SSTORE POP PUSH3 0x240 PUSH1 0x1 PUSH1 0x40 MLOAD DUP1 PUSH1 0x40 ADD PUSH1 0x40 MSTORE DUP1 PUSH1 0xD DUP2 MSTORE PUSH1 0x20 ADD PUSH32 0x506F6C6C20637265617465642100000000000000000000000000000000000000 DUP2 MSTORE POP PUSH3 0x24D PUSH1 0x20 SHL PUSH1 0x20 SHR JUMP JUMPDEST PUSH1 0x0 SLOAD SWAP1 POP SWAP5 SWAP4 POP POP POP POP JUMP JUMPDEST DUP2 PUSH1 0x2 DUP2 GT ISZERO PUSH3 0x263 JUMPI PUSH3 0x262 PUSH3 0x908 JUMP JUMPDEST JUMPDEST PUSH1 0x7 PUSH1 0x0 SWAP1 SLOAD SWAP1 PUSH2 0x100 EXP SWAP1 DIV PUSH1 0xFF AND PUSH1 0x2 DUP2 GT ISZERO PUSH3 0x288 JUMPI PUSH3 0x287 PUSH3 0x908 JUMP JUMPDEST JUMPDEST EQ PUSH3 0x324 JUMPI CALLER PUSH20 0xFFFFFFFFFFFFFFFFFFFFFFFFFFFFFFFFFFFFFFFF AND PUSH32 0xFC6F5E211098B443015CCB625104A41F61E97A80DD9B8734242A9A8C3EECC8DC PUSH1 0x7 PUSH1 0x0 SWAP1 SLOAD SWAP1 PUSH2 0x100 EXP SWAP1 DIV PUSH1 0xFF AND DUP5 DUP5 PUSH1 0x40 MLOAD PUSH3 0x2E9 SWAP4 SWAP3 SWAP2 SWAP1 PUSH3 0x9E5 JUMP JUMPDEST PUSH1 0x40 MLOAD DUP1 SWAP2 SUB SWAP1 LOG2 DUP2 PUSH1 0x7 PUSH1 0x0 PUSH2 0x100 EXP DUP2 SLOAD DUP2 PUSH1 0xFF MUL NOT AND SWAP1 DUP4 PUSH1 0x2 DUP2 GT ISZERO PUSH3 0x319 JUMPI PUSH3 0x318 PUSH3 0x908 JUMP JUMPDEST JUMPDEST MUL OR SWAP1 SSTORE POP PUSH3 0x361 JUMP JUMPDEST PUSH1 0x40 MLOAD PUSH32 0x8C379A000000000000000000000000000000000000000000000000000000000 DUP2 MSTORE PUSH1 0x4 ADD PUSH3 0x358 SWAP1 PUSH3 0xA9F JUMP JUMPDEST PUSH1 0x40 MLOAD DUP1 SWAP2 SUB SWAP1 REVERT JUMPDEST POP POP JUMP JUMPDEST PUSH2 0xD58 DUP1 PUSH3 0x3AD1 DUP4 CODECOPY ADD SWAP1 JUMP JUMPDEST DUP3 DUP1 SLOAD PUSH3 0x381 SWAP1 PUSH3 0xAF0 JUMP JUMPDEST SWAP1 PUSH1 0x0 MSTORE PUSH1 0x20 PUSH1 0x0 KECCAK256 SWAP1 PUSH1 0x1F ADD PUSH1 0x20 SWAP1 DIV DUP2 ADD SWAP3 DUP3 PUSH3 0x3A5 JUMPI PUSH1 0x0 DUP6 SSTORE PUSH3 0x3F1 JUMP JUMPDEST DUP3 PUSH1 0x1F LT PUSH3 0x3C0 JUMPI DUP1 MLOAD PUSH1 0xFF NOT AND DUP4 DUP1 ADD OR DUP6 SSTORE PUSH3 0x3F1 JUMP JUMPDEST DUP3 DUP1 ADD PUSH1 0x1 ADD DUP6 SSTORE DUP3 ISZERO PUSH3 0x3F1 JUMPI SWAP2 DUP3 ADD JUMPDEST DUP3 DUP2 GT ISZERO PUSH3 0x3F0 JUMPI DUP3 MLOAD DUP3 SSTORE SWAP2 PUSH1 0x20 ADD SWAP2 SWAP1 PUSH1 0x1 ADD SWAP1 PUSH3 0x3D3 JUMP JUMPDEST JUMPDEST POP SWAP1 POP PUSH3 0x400 SWAP2 SWAP1 PUSH3 0x493 JUMP JUMPDEST POP SWAP1 JUMP JUMPDEST DUP3 DUP1 SLOAD DUP3 DUP3 SSTORE SWAP1 PUSH1 0x0 MSTORE PUSH1 0x20 PUSH1 0x0 KECCAK256 SWAP1 DUP2 ADD SWAP3 DUP3 ISZERO PUSH3 0x480 JUMPI SWAP2 PUSH1 0x20 MUL DUP3 ADD JUMPDEST DUP3 DUP2 GT ISZERO PUSH3 0x47F JUMPI DUP3 MLOAD DUP3 PUSH1 0x0 PUSH2 0x100 EXP DUP2 SLOAD DUP2 PUSH20 0xFFFFFFFFFFFFFFFFFFFFFFFFFFFFFFFFFFFFFFFF MUL NOT AND SWAP1 DUP4 PUSH20 0xFFFFFFFFFFFFFFFFFFFFFFFFFFFFFFFFFFFFFFFF AND MUL OR SWAP1 SSTORE POP SWAP2 PUSH1 0x20 ADD SWAP2 SWAP1 PUSH1 0x1 ADD SWAP1 PUSH3 0x425 JUMP JUMPDEST JUMPDEST POP SWAP1 POP PUSH3 0x48F SWAP2 SWAP1 PUSH3 0x493 JUMP JUMPDEST POP SWAP1 JUMP JUMPDEST JUMPDEST DUP1 DUP3 GT ISZERO PUSH3 0x4AE JUMPI PUSH1 0x0 DUP2 PUSH1 0x0 SWAP1 SSTORE POP PUSH1 0x1 ADD PUSH3 0x494 JUMP JUMPDEST POP SWAP1 JUMP JUMPDEST PUSH1 0x0 PUSH1 0x40 MLOAD SWAP1 POP SWAP1 JUMP JUMPDEST PUSH1 0x0 DUP1 REVERT JUMPDEST PUSH1 0x0 DUP1 REVERT JUMPDEST PUSH1 0x0 DUP1 REVERT JUMPDEST PUSH1 0x0 PUSH1 0x1F NOT PUSH1 0x1F DUP4 ADD AND SWAP1 POP SWAP2 SWAP1 POP JUMP JUMPDEST PUSH32 0x4E487B7100000000000000000000000000000000000000000000000000000000 PUSH1 0x0 MSTORE PUSH1 0x41 PUSH1 0x4 MSTORE PUSH1 0x24 PUSH1 0x0 REVERT JUMPDEST PUSH3 0x516 DUP3 PUSH3 0x4CB JUMP JUMPDEST DUP2 ADD DUP2 DUP2 LT PUSH8 0xFFFFFFFFFFFFFFFF DUP3 GT OR ISZERO PUSH3 0x538 JUMPI PUSH3 0x537 PUSH3 0x4DC JUMP JUMPDEST JUMPDEST DUP1 PUSH1 0x40 MSTORE POP POP POP JUMP JUMPDEST PUSH1 0x0 PUSH3 0x54D PUSH3 0x4B2 JUMP JUMPDEST SWAP1 POP PUSH3 0x55B DUP3 DUP3 PUSH3 0x50B JUMP JUMPDEST SWAP2 SWAP1 POP JUMP JUMPDEST PUSH1 0x0 PUSH8 0xFFFFFFFFFFFFFFFF DUP3 GT ISZERO PUSH3 0x57E JUMPI PUSH3 0x57D PUSH3 0x4DC JUMP JUMPDEST JUMPDEST PUSH1 0x20 DUP3 MUL SWAP1 POP PUSH1 0x20 DUP2 ADD SWAP1 POP SWAP2 SWAP1 POP JUMP JUMPDEST PUSH1 0x0 DUP1 REVERT JUMPDEST PUSH1 0x0 PUSH20 0xFFFFFFFFFFFFFFFFFFFFFFFFFFFFFFFFFFFFFFFF DUP3 AND SWAP1 POP SWAP2 SWAP1 POP JUMP JUMPDEST PUSH1 0x0 PUSH3 0x5C1 DUP3 PUSH3 0x594 JUMP JUMPDEST SWAP1 POP SWAP2 SWAP1 POP JUMP JUMPDEST PUSH3 0x5D3 DUP2 PUSH3 0x5B4 JUMP JUMPDEST DUP2 EQ PUSH3 0x5DF JUMPI PUSH1 0x0 DUP1 REVERT JUMPDEST POP JUMP JUMPDEST PUSH1 0x0 DUP2 MLOAD SWAP1 POP PUSH3 0x5F3 DUP2 PUSH3 0x5C8 JUMP JUMPDEST SWAP3 SWAP2 POP POP JUMP JUMPDEST PUSH1 0x0 PUSH3 0x610 PUSH3 0x60A DUP5 PUSH3 0x560 JUMP JUMPDEST PUSH3 0x541 JUMP JUMPDEST SWAP1 POP DUP1 DUP4 DUP3 MSTORE PUSH1 0x20 DUP3 ADD SWAP1 POP PUSH1 0x20 DUP5 MUL DUP4 ADD DUP6 DUP2 GT ISZERO PUSH3 0x636 JUMPI PUSH3 0x635 PUSH3 0x58F JUMP JUMPDEST JUMPDEST DUP4 JUMPDEST DUP2 DUP2 LT ISZERO PUSH3 0x663 JUMPI DUP1 PUSH3 0x64E DUP9 DUP3 PUSH3 0x5E2 JUMP JUMPDEST DUP5 MSTORE PUSH1 0x20 DUP5 ADD SWAP4 POP POP PUSH1 0x20 DUP2 ADD SWAP1 POP PUSH3 0x638 JUMP JUMPDEST POP POP POP SWAP4 SWAP3 POP POP POP JUMP JUMPDEST PUSH1 0x0 DUP3 PUSH1 0x1F DUP4 ADD SLT PUSH3 0x685 JUMPI PUSH3 0x684 PUSH3 0x4C6 JUMP JUMPDEST JUMPDEST DUP2 MLOAD PUSH3 0x697 DUP5 DUP3 PUSH1 0x20 DUP7 ADD PUSH3 0x5F9 JUMP JUMPDEST SWAP2 POP POP SWAP3 SWAP2 POP POP JUMP JUMPDEST PUSH1 0x0 DUP1 REVERT JUMPDEST PUSH1 0x0 PUSH8 0xFFFFFFFFFFFFFFFF DUP3 GT ISZERO PUSH3 0x6C3 JUMPI PUSH3 0x6C2 PUSH3 0x4DC JUMP JUMPDEST JUMPDEST PUSH3 0x6CE DUP3 PUSH3 0x4CB JUMP JUMPDEST SWAP1 POP PUSH1 0x20 DUP2 ADD SWAP1 POP SWAP2 SWAP1 POP JUMP JUMPDEST PUSH1 0x0 JUMPDEST DUP4 DUP2 LT ISZERO PUSH3 0x6FB JUMPI DUP1 DUP3 ADD MLOAD DUP2 DUP5 ADD MSTORE PUSH1 0x20 DUP2 ADD SWAP1 POP PUSH3 0x6DE JUMP JUMPDEST DUP4 DUP2 GT ISZERO PUSH3 0x70B JUMPI PUSH1 0x0 DUP5 DUP5 ADD MSTORE JUMPDEST POP POP POP POP JUMP JUMPDEST PUSH1 0x0 PUSH3 0x728 PUSH3 0x722 DUP5 PUSH3 0x6A5 JUMP JUMPDEST PUSH3 0x541 JUMP JUMPDEST SWAP1 POP DUP3 DUP2 MSTORE PUSH1 0x20 DUP2 ADD DUP5 DUP5 DUP5 ADD GT ISZERO PUSH3 0x747 JUMPI PUSH3 0x746 PUSH3 0x6A0 JUMP JUMPDEST JUMPDEST PUSH3 0x754 DUP5 DUP3 DUP6 PUSH3 0x6DB JUMP JUMPDEST POP SWAP4 SWAP3 POP POP POP JUMP JUMPDEST PUSH1 0x0 DUP3 PUSH1 0x1F DUP4 ADD SLT PUSH3 0x774 JUMPI PUSH3 0x773 PUSH3 0x4C6 JUMP JUMPDEST JUMPDEST DUP2 MLOAD PUSH3 0x786 DUP5 DUP3 PUSH1 0x20 DUP7 ADD PUSH3 0x711 JUMP JUMPDEST SWAP2 POP POP SWAP3 SWAP2 POP POP JUMP JUMPDEST PUSH1 0x0 DUP2 ISZERO ISZERO SWAP1 POP SWAP2 SWAP1 POP JUMP JUMPDEST PUSH3 0x7A6 DUP2 PUSH3 0x78F JUMP JUMPDEST DUP2 EQ PUSH3 0x7B2 JUMPI PUSH1 0x0 DUP1 REVERT JUMPDEST POP JUMP JUMPDEST PUSH1 0x0 DUP2 MLOAD SWAP1 POP PUSH3 0x7C6 DUP2 PUSH3 0x79B JUMP JUMPDEST SWAP3 SWAP2 POP POP JUMP JUMPDEST PUSH1 0x0 DUP1 PUSH1 0x0 DUP1 PUSH1 0x80 DUP6 DUP8 SUB SLT ISZERO PUSH3 0x7E9 JUMPI PUSH3 0x7E8 PUSH3 0x4BC JUMP JUMPDEST JUMPDEST PUSH1 0x0 DUP6 ADD MLOAD PUSH8 0xFFFFFFFFFFFFFFFF DUP2 GT ISZERO PUSH3 0x80A JUMPI PUSH3 0x809 PUSH3 0x4C1 JUMP JUMPDEST JUMPDEST PUSH3 0x818 DUP8 DUP3 DUP9 ADD PUSH3 0x66D JUMP JUMPDEST SWAP5 POP POP PUSH1 0x20 DUP6 ADD MLOAD PUSH8 0xFFFFFFFFFFFFFFFF DUP2 GT ISZERO PUSH3 0x83C JUMPI PUSH3 0x83B PUSH3 0x4C1 JUMP JUMPDEST JUMPDEST PUSH3 0x84A DUP8 DUP3 DUP9 ADD PUSH3 0x75C JUMP JUMPDEST SWAP4 POP POP PUSH1 0x40 DUP6 ADD MLOAD PUSH8 0xFFFFFFFFFFFFFFFF DUP2 GT ISZERO PUSH3 0x86E JUMPI PUSH3 0x86D PUSH3 0x4C1 JUMP JUMPDEST JUMPDEST PUSH3 0x87C DUP8 DUP3 DUP9 ADD PUSH3 0x75C JUMP JUMPDEST SWAP3 POP POP PUSH1 0x60 PUSH3 0x88F DUP8 DUP3 DUP9 ADD PUSH3 0x7B5 JUMP JUMPDEST SWAP2 POP POP SWAP3 SWAP6 SWAP2 SWAP5 POP SWAP3 POP JUMP JUMPDEST PUSH1 0x0 DUP2 SWAP1 POP SWAP2 SWAP1 POP JUMP JUMPDEST PUSH3 0x8B0 DUP2 PUSH3 0x89B JUMP JUMPDEST DUP2 EQ PUSH3 0x8BC JUMPI PUSH1 0x0 DUP1 REVERT JUMPDEST POP JUMP JUMPDEST PUSH1 0x0 DUP2 MLOAD SWAP1 POP PUSH3 0x8D0 DUP2 PUSH3 0x8A5 JUMP JUMPDEST SWAP3 SWAP2 POP POP JUMP JUMPDEST PUSH1 0x0 PUSH1 0x20 DUP3 DUP5 SUB SLT ISZERO PUSH3 0x8EF JUMPI PUSH3 0x8EE PUSH3 0x4BC JUMP JUMPDEST JUMPDEST PUSH1 0x0 PUSH3 0x8FF DUP5 DUP3 DUP6 ADD PUSH3 0x8BF JUMP JUMPDEST SWAP2 POP POP SWAP3 SWAP2 POP POP JUMP JUMPDEST PUSH32 0x4E487B7100000000000000000000000000000000000000000000000000000000 PUSH1 0x0 MSTORE PUSH1 0x21 PUSH1 0x4 MSTORE PUSH1 0x24 PUSH1 0x0 REVERT JUMPDEST PUSH1 0x3 DUP2 LT PUSH3 0x94B JUMPI PUSH3 0x94A PUSH3 0x908 JUMP JUMPDEST JUMPDEST POP JUMP JUMPDEST PUSH1 0x0 DUP2 SWAP1 POP PUSH3 0x95E DUP3 PUSH3 0x937 JUMP JUMPDEST SWAP2 SWAP1 POP JUMP JUMPDEST PUSH1 0x0 PUSH3 0x970 DUP3 PUSH3 0x94E JUMP JUMPDEST SWAP1 POP SWAP2 SWAP1 POP JUMP JUMPDEST PUSH3 0x982 DUP2 PUSH3 0x963 JUMP JUMPDEST DUP3 MSTORE POP POP JUMP JUMPDEST PUSH1 0x0 DUP2 MLOAD SWAP1 POP SWAP2 SWAP1 POP JUMP JUMPDEST PUSH1 0x0 DUP3 DUP3 MSTORE PUSH1 0x20 DUP3 ADD SWAP1 POP SWAP3 SWAP2 POP POP JUMP JUMPDEST PUSH1 0x0 PUSH3 0x9B1 DUP3 PUSH3 0x988 JUMP JUMPDEST PUSH3 0x9BD DUP2 DUP6 PUSH3 0x993 JUMP JUMPDEST SWAP4 POP PUSH3 0x9CF DUP2 DUP6 PUSH1 0x20 DUP7 ADD PUSH3 0x6DB JUMP JUMPDEST PUSH3 0x9DA DUP2 PUSH3 0x4CB JUMP JUMPDEST DUP5 ADD SWAP2 POP POP SWAP3 SWAP2 POP POP JUMP JUMPDEST PUSH1 0x0 PUSH1 0x60 DUP3 ADD SWAP1 POP PUSH3 0x9FC PUSH1 0x0 DUP4 ADD DUP7 PUSH3 0x977 JUMP JUMPDEST PUSH3 0xA0B PUSH1 0x20 DUP4 ADD DUP6 PUSH3 0x977 JUMP JUMPDEST DUP2 DUP2 SUB PUSH1 0x40 DUP4 ADD MSTORE PUSH3 0xA1F DUP2 DUP5 PUSH3 0x9A4 JUMP JUMPDEST SWAP1 POP SWAP5 SWAP4 POP POP POP POP JUMP JUMPDEST PUSH32 0x5374617465206E6F74206368616E6765642E204E657720737461746520697320 PUSH1 0x0 DUP3 ADD MSTORE PUSH32 0x7468652073616D65206173206F6C642073746174652100000000000000000000 PUSH1 0x20 DUP3 ADD MSTORE POP JUMP JUMPDEST PUSH1 0x0 PUSH3 0xA87 PUSH1 0x36 DUP4 PUSH3 0x993 JUMP JUMPDEST SWAP2 POP PUSH3 0xA94 DUP3 PUSH3 0xA29 JUMP JUMPDEST PUSH1 0x40 DUP3 ADD SWAP1 POP SWAP2 SWAP1 POP JUMP JUMPDEST PUSH1 0x0 PUSH1 0x20 DUP3 ADD SWAP1 POP DUP2 DUP2 SUB PUSH1 0x0 DUP4 ADD MSTORE PUSH3 0xABA DUP2 PUSH3 0xA78 JUMP JUMPDEST SWAP1 POP SWAP2 SWAP1 POP JUMP JUMPDEST PUSH32 0x4E487B7100000000000000000000000000000000000000000000000000000000 PUSH1 0x0 MSTORE PUSH1 0x22 PUSH1 0x4 MSTORE PUSH1 0x24 PUSH1 0x0 REVERT JUMPDEST PUSH1 0x0 PUSH1 0x2 DUP3 DIV SWAP1 POP PUSH1 0x1 DUP3 AND DUP1 PUSH3 0xB09 JUMPI PUSH1 0x7F DUP3 AND SWAP2 POP JUMPDEST PUSH1 0x20 DUP3 LT DUP2 EQ ISZERO PUSH3 0xB20 JUMPI PUSH3 0xB1F PUSH3 0xAC1 JUMP JUMPDEST JUMPDEST POP SWAP2 SWAP1 POP JUMP JUMPDEST PUSH2 0x2F9B DUP1 PUSH3 0xB36 PUSH1 0x0 CODECOPY PUSH1 0x0 RETURN INVALID PUSH1 0x80 PUSH1 0x40 MSTORE CALLVALUE DUP1 ISZERO PUSH2 0x10 JUMPI PUSH1 0x0 DUP1 REVERT JUMPDEST POP PUSH1 0x4 CALLDATASIZE LT PUSH2 0x158 JUMPI PUSH1 0x0 CALLDATALOAD PUSH1 0xE0 SHR DUP1 PUSH4 0xAF640D0F GT PUSH2 0xC3 JUMPI DUP1 PUSH4 0xDDD7531B GT PUSH2 0x7C JUMPI DUP1 PUSH4 0xDDD7531B EQ PUSH2 0x37F JUMPI DUP1 PUSH4 0xDFECF96B EQ PUSH2 0x39B JUMPI DUP1 PUSH4 0xE6C09EDF EQ PUSH2 0x3B7 JUMPI DUP1 PUSH4 0xFC55E4E8 EQ PUSH2 0x3D3 JUMPI DUP1 PUSH4 0xFC818977 EQ PUSH2 0x403 JUMPI DUP1 PUSH4 0xFF3C1A8F EQ PUSH2 0x41F JUMPI PUSH2 0x158 JUMP JUMPDEST DUP1 PUSH4 0xAF640D0F EQ PUSH2 0x2CB JUMPI DUP1 PUSH4 0xB90C1DBB EQ PUSH2 0x2E9 JUMPI DUP1 PUSH4 0xC19D93FB EQ PUSH2 0x307 JUMPI DUP1 PUSH4 0xC467A69C EQ PUSH2 0x325 JUMPI DUP1 PUSH4 0xCC2EE196 EQ PUSH2 0x343 JUMPI DUP1 PUSH4 0xD4B5F16A EQ PUSH2 0x361 JUMPI PUSH2 0x158 JUMP JUMPDEST DUP1 PUSH4 0x42169E48 GT PUSH2 0x115 JUMPI DUP1 PUSH4 0x42169E48 EQ PUSH2 0x21D JUMPI DUP1 PUSH4 0x44D5E03C EQ PUSH2 0x23B JUMPI DUP1 PUSH4 0x4A79D50C EQ PUSH2 0x257 JUMPI DUP1 PUSH4 0x4F4A3115 EQ PUSH2 0x275 JUMPI DUP1 PUSH4 0x7284E416 EQ PUSH2 0x291 JUMPI DUP1 PUSH4 0x73B1A0F1 EQ PUSH2 0x2AF JUMPI PUSH2 0x158 JUMP JUMPDEST DUP1 PUSH4 0x25E7C27 EQ PUSH2 0x15D JUMPI DUP1 PUSH4 0x11174A29 EQ PUSH2 0x18D JUMPI DUP1 PUSH4 0x16DB2A7A EQ PUSH2 0x1AB JUMPI DUP1 PUSH4 0x1A092541 EQ PUSH2 0x1C7 JUMPI DUP1 PUSH4 0x1C5A9D9C EQ PUSH2 0x1E5 JUMPI DUP1 PUSH4 0x3FD00B0D EQ PUSH2 0x201 JUMPI JUMPDEST PUSH1 0x0 DUP1 REVERT JUMPDEST PUSH2 0x177 PUSH1 0x4 DUP1 CALLDATASIZE SUB DUP2 ADD SWAP1 PUSH2 0x172 SWAP2 SWAP1 PUSH2 0x2075 JUMP JUMPDEST PUSH2 0x43D JUMP JUMPDEST PUSH1 0x40 MLOAD PUSH2 0x184 SWAP2 SWAP1 PUSH2 0x20E3 JUMP JUMPDEST PUSH1 0x40 MLOAD DUP1 SWAP2 SUB SWAP1 RETURN JUMPDEST PUSH2 0x195 PUSH2 0x47C JUMP JUMPDEST PUSH1 0x40 MLOAD PUSH2 0x1A2 SWAP2 SWAP1 PUSH2 0x210D JUMP JUMPDEST PUSH1 0x40 MLOAD DUP1 SWAP2 SUB SWAP1 RETURN JUMPDEST PUSH2 0x1C5 PUSH1 0x4 DUP1 CALLDATASIZE SUB DUP2 ADD SWAP1 PUSH2 0x1C0 SWAP2 SWAP1 PUSH2 0x2154 JUMP JUMPDEST PUSH2 0x486 JUMP JUMPDEST STOP JUMPDEST PUSH2 0x1CF PUSH2 0x825 JUMP JUMPDEST PUSH1 0x40 MLOAD PUSH2 0x1DC SWAP2 SWAP1 PUSH2 0x222D JUMP JUMPDEST PUSH1 0x40 MLOAD DUP1 SWAP2 SUB SWAP1 RETURN JUMPDEST PUSH2 0x1FF PUSH1 0x4 DUP1 CALLDATASIZE SUB DUP2 ADD SWAP1 PUSH2 0x1FA SWAP2 SWAP1 PUSH2 0x224F JUMP JUMPDEST PUSH2 0x8B7 JUMP JUMPDEST STOP JUMPDEST PUSH2 0x21B PUSH1 0x4 DUP1 CALLDATASIZE SUB DUP2 ADD SWAP1 PUSH2 0x216 SWAP2 SWAP1 PUSH2 0x224F JUMP JUMPDEST PUSH2 0x9E9 JUMP JUMPDEST STOP JUMPDEST PUSH2 0x225 PUSH2 0xB69 JUMP JUMPDEST PUSH1 0x40 MLOAD PUSH2 0x232 SWAP2 SWAP1 PUSH2 0x210D JUMP JUMPDEST PUSH1 0x40 MLOAD DUP1 SWAP2 SUB SWAP1 RETURN JUMPDEST PUSH2 0x255 PUSH1 0x4 DUP1 CALLDATASIZE SUB DUP2 ADD SWAP1 PUSH2 0x250 SWAP2 SWAP1 PUSH2 0x2154 JUMP JUMPDEST PUSH2 0xB6F JUMP JUMPDEST STOP JUMPDEST PUSH2 0x25F PUSH2 0xF53 JUMP JUMPDEST PUSH1 0x40 MLOAD PUSH2 0x26C SWAP2 SWAP1 PUSH2 0x222D JUMP JUMPDEST PUSH1 0x40 MLOAD DUP1 SWAP2 SUB SWAP1 RETURN JUMPDEST PUSH2 0x28F PUSH1 0x4 DUP1 CALLDATASIZE SUB DUP2 ADD SWAP1 PUSH2 0x28A SWAP2 SWAP1 PUSH2 0x2075 JUMP JUMPDEST PUSH2 0xFE1 JUMP JUMPDEST STOP JUMPDEST PUSH2 0x299 PUSH2 0x10B4 JUMP JUMPDEST PUSH1 0x40 MLOAD PUSH2 0x2A6 SWAP2 SWAP1 PUSH2 0x222D JUMP JUMPDEST PUSH1 0x40 MLOAD DUP1 SWAP2 SUB SWAP1 RETURN JUMPDEST PUSH2 0x2C9 PUSH1 0x4 DUP1 CALLDATASIZE SUB DUP2 ADD SWAP1 PUSH2 0x2C4 SWAP2 SWAP1 PUSH2 0x224F JUMP JUMPDEST PUSH2 0x1142 JUMP JUMPDEST STOP JUMPDEST PUSH2 0x2D3 PUSH2 0x11B0 JUMP JUMPDEST PUSH1 0x40 MLOAD PUSH2 0x2E0 SWAP2 SWAP1 PUSH2 0x2295 JUMP JUMPDEST PUSH1 0x40 MLOAD DUP1 SWAP2 SUB SWAP1 RETURN JUMPDEST PUSH2 0x2F1 PUSH2 0x11B6 JUMP JUMPDEST PUSH1 0x40 MLOAD PUSH2 0x2FE SWAP2 SWAP1 PUSH2 0x210D JUMP JUMPDEST PUSH1 0x40 MLOAD DUP1 SWAP2 SUB SWAP1 RETURN JUMPDEST PUSH2 0x30F PUSH2 0x11C0 JUMP JUMPDEST PUSH1 0x40 MLOAD PUSH2 0x31C SWAP2 SWAP1 PUSH2 0x2327 JUMP JUMPDEST PUSH1 0x40 MLOAD DUP1 SWAP2 SUB SWAP1 RETURN JUMPDEST PUSH2 0x32D PUSH2 0x11D3 JUMP JUMPDEST PUSH1 0x40 MLOAD PUSH2 0x33A SWAP2 SWAP1 PUSH2 0x235D JUMP JUMPDEST PUSH1 0x40 MLOAD DUP1 SWAP2 SUB SWAP1 RETURN JUMPDEST PUSH2 0x34B PUSH2 0x1211 JUMP JUMPDEST PUSH1 0x40 MLOAD PUSH2 0x358 SWAP2 SWAP1 PUSH2 0x2554 JUMP JUMPDEST PUSH1 0x40 MLOAD DUP1 SWAP2 SUB SWAP1 RETURN JUMPDEST PUSH2 0x369 PUSH2 0x146F JUMP JUMPDEST PUSH1 0x40 MLOAD PUSH2 0x376 SWAP2 SWAP1 PUSH2 0x235D JUMP JUMPDEST PUSH1 0x40 MLOAD DUP1 SWAP2 SUB SWAP1 RETURN JUMPDEST PUSH2 0x399 PUSH1 0x4 DUP1 CALLDATASIZE SUB DUP2 ADD SWAP1 PUSH2 0x394 SWAP2 SWAP1 PUSH2 0x2075 JUMP JUMPDEST PUSH2 0x1482 JUMP JUMPDEST STOP JUMPDEST PUSH2 0x3B5 PUSH1 0x4 DUP1 CALLDATASIZE SUB DUP2 ADD SWAP1 PUSH2 0x3B0 SWAP2 SWAP1 PUSH2 0x26D7 JUMP JUMPDEST PUSH2 0x1555 JUMP JUMPDEST STOP JUMPDEST PUSH2 0x3D1 PUSH1 0x4 DUP1 CALLDATASIZE SUB DUP2 ADD SWAP1 PUSH2 0x3CC SWAP2 SWAP1 PUSH2 0x224F JUMP JUMPDEST PUSH2 0x186A JUMP JUMPDEST STOP JUMPDEST PUSH2 0x3ED PUSH1 0x4 DUP1 CALLDATASIZE SUB DUP2 ADD SWAP1 PUSH2 0x3E8 SWAP2 SWAP1 PUSH2 0x2075 JUMP JUMPDEST PUSH2 0x199C JUMP JUMPDEST PUSH1 0x40 MLOAD PUSH2 0x3FA SWAP2 SWAP1 PUSH2 0x282D JUMP JUMPDEST PUSH1 0x40 MLOAD DUP1 SWAP2 SUB SWAP1 RETURN JUMPDEST PUSH2 0x41D PUSH1 0x4 DUP1 CALLDATASIZE SUB DUP2 ADD SWAP1 PUSH2 0x418 SWAP2 SWAP1 PUSH2 0x224F JUMP JUMPDEST PUSH2 0x1BBE JUMP JUMPDEST STOP JUMPDEST PUSH2 0x427 PUSH2 0x1C2C JUMP JUMPDEST PUSH1 0x40 MLOAD PUSH2 0x434 SWAP2 SWAP1 PUSH2 0x222D JUMP JUMPDEST PUSH1 0x40 MLOAD DUP1 SWAP2 SUB SWAP1 RETURN JUMPDEST PUSH1 0x1 DUP2 DUP2 SLOAD DUP2 LT PUSH2 0x44D JUMPI PUSH1 0x0 DUP1 REVERT JUMPDEST SWAP1 PUSH1 0x0 MSTORE PUSH1 0x20 PUSH1 0x0 KECCAK256 ADD PUSH1 0x0 SWAP2 POP SLOAD SWAP1 PUSH2 0x100 EXP SWAP1 DIV PUSH20 0xFFFFFFFFFFFFFFFFFFFFFFFFFFFFFFFFFFFFFFFF AND DUP2 JUMP JUMPDEST PUSH1 0x0 PUSH1 0x6 SLOAD SWAP1 POP SWAP1 JUMP JUMPDEST PUSH1 0x1 PUSH1 0x2 DUP2 GT ISZERO PUSH2 0x49A JUMPI PUSH2 0x499 PUSH2 0x22B0 JUMP JUMPDEST JUMPDEST PUSH1 0x7 PUSH1 0x0 SWAP1 SLOAD SWAP1 PUSH2 0x100 EXP SWAP1 DIV PUSH1 0xFF AND PUSH1 0x2 DUP2 GT ISZERO PUSH2 0x4BC JUMPI PUSH2 0x4BB PUSH2 0x22B0 JUMP JUMPDEST JUMPDEST EQ PUSH2 0x4FC JUMPI PUSH1 0x40 MLOAD PUSH32 0x8C379A000000000000000000000000000000000000000000000000000000000 DUP2 MSTORE PUSH1 0x4 ADD PUSH2 0x4F3 SWAP1 PUSH2 0x28C1 JUMP JUMPDEST PUSH1 0x40 MLOAD DUP1 SWAP2 SUB SWAP1 REVERT JUMPDEST PUSH1 0x0 DUP1 PUSH1 0x8 PUSH1 0x0 DUP6 PUSH20 0xFFFFFFFFFFFFFFFFFFFFFFFFFFFFFFFFFFFFFFFF AND PUSH20 0xFFFFFFFFFFFFFFFFFFFFFFFFFFFFFFFFFFFFFFFF AND DUP2 MSTORE PUSH1 0x20 ADD SWAP1 DUP2 MSTORE PUSH1 0x20 ADD PUSH1 0x0 KECCAK256 DUP1 SLOAD DUP1 PUSH1 0x20 MUL PUSH1 0x20 ADD PUSH1 0x40 MLOAD SWAP1 DUP2 ADD PUSH1 0x40 MSTORE DUP1 SWAP3 SWAP2 SWAP1 DUP2 DUP2 MSTORE PUSH1 0x20 ADD DUP3 DUP1 SLOAD DUP1 ISZERO PUSH2 0x588 JUMPI PUSH1 0x20 MUL DUP3 ADD SWAP2 SWAP1 PUSH1 0x0 MSTORE PUSH1 0x20 PUSH1 0x0 KECCAK256 SWAP1 JUMPDEST DUP2 SLOAD DUP2 MSTORE PUSH1 0x20 ADD SWAP1 PUSH1 0x1 ADD SWAP1 DUP1 DUP4 GT PUSH2 0x574 JUMPI JUMPDEST POP POP POP POP POP SWAP1 POP PUSH1 0x0 DUP2 MLOAD EQ ISZERO PUSH2 0x5D4 JUMPI PUSH1 0x40 MLOAD PUSH32 0x8C379A000000000000000000000000000000000000000000000000000000000 DUP2 MSTORE PUSH1 0x4 ADD PUSH2 0x5CB SWAP1 PUSH2 0x292D JUMP JUMPDEST PUSH1 0x40 MLOAD DUP1 SWAP2 SUB SWAP1 REVERT JUMPDEST PUSH1 0x7 PUSH1 0x1 SWAP1 SLOAD SWAP1 PUSH2 0x100 EXP SWAP1 DIV PUSH1 0xFF AND ISZERO PUSH2 0x63A JUMPI PUSH1 0x0 PUSH8 0xFFFFFFFFFFFFFFFF DUP2 GT ISZERO PUSH2 0x604 JUMPI PUSH2 0x603 PUSH2 0x25AC JUMP JUMPDEST JUMPDEST PUSH1 0x40 MLOAD SWAP1 DUP1 DUP3 MSTORE DUP1 PUSH1 0x20 MUL PUSH1 0x20 ADD DUP3 ADD PUSH1 0x40 MSTORE DUP1 ISZERO PUSH2 0x632 JUMPI DUP2 PUSH1 0x20 ADD PUSH1 0x20 DUP3 MUL DUP1 CALLDATASIZE DUP4 CALLDATACOPY DUP1 DUP3 ADD SWAP2 POP POP SWAP1 POP JUMPDEST POP SWAP1 POP PUSH2 0x73C JUMP JUMPDEST PUSH1 0x0 DUP1 JUMPDEST DUP3 MLOAD DUP2 LT ISZERO PUSH2 0x6DD JUMPI DUP3 DUP2 DUP2 MLOAD DUP2 LT PUSH2 0x65A JUMPI PUSH2 0x659 PUSH2 0x294D JUMP JUMPDEST JUMPDEST PUSH1 0x20 MUL PUSH1 0x20 ADD ADD MLOAD DUP6 EQ ISZERO PUSH2 0x6CA JUMPI PUSH1 0x1 SWAP2 POP PUSH1 0x1 DUP4 MLOAD PUSH2 0x67B SWAP2 SWAP1 PUSH2 0x29AB JUMP JUMPDEST DUP2 LT ISZERO PUSH2 0x6C9 JUMPI DUP3 PUSH1 0x1 DUP3 PUSH2 0x690 SWAP2 SWAP1 PUSH2 0x29DF JUMP JUMPDEST DUP2 MLOAD DUP2 LT PUSH2 0x6A1 JUMPI PUSH2 0x6A0 PUSH2 0x294D JUMP JUMPDEST JUMPDEST PUSH1 0x20 MUL PUSH1 0x20 ADD ADD MLOAD DUP4 DUP3 DUP2 MLOAD DUP2 LT PUSH2 0x6BC JUMPI PUSH2 0x6BB PUSH2 0x294D JUMP JUMPDEST JUMPDEST PUSH1 0x20 MUL PUSH1 0x20 ADD ADD DUP2 DUP2 MSTORE POP POP JUMPDEST JUMPDEST DUP1 DUP1 PUSH2 0x6D5 SWAP1 PUSH2 0x2A35 JUMP JUMPDEST SWAP2 POP POP PUSH2 0x63E JUMP JUMPDEST DUP2 ISZERO PUSH2 0x6FE JUMPI PUSH1 0x0 PUSH1 0x1 DUP5 MLOAD PUSH2 0x6F3 SWAP2 SWAP1 PUSH2 0x29AB JUMP JUMPDEST SWAP1 POP DUP1 DUP5 MSTORE POP PUSH2 0x739 JUMP JUMPDEST PUSH1 0x40 MLOAD PUSH32 0x8C379A000000000000000000000000000000000000000000000000000000000 DUP2 MSTORE PUSH1 0x4 ADD PUSH2 0x730 SWAP1 PUSH2 0x2AF0 JUMP JUMPDEST PUSH1 0x40 MLOAD DUP1 SWAP2 SUB SWAP1 REVERT JUMPDEST POP POP JUMPDEST PUSH1 0x0 PUSH2 0x747 DUP5 PUSH2 0x1CBE JUMP JUMPDEST SWAP1 POP DUP1 PUSH1 0x5 ADD PUSH1 0x0 DUP2 SLOAD DUP1 SWAP3 SWAP2 SWAP1 PUSH2 0x75E SWAP1 PUSH2 0x2B10 JUMP JUMPDEST SWAP2 SWAP1 POP SSTORE POP PUSH1 0x0 DUP3 MLOAD EQ ISZERO PUSH2 0x786 JUMPI PUSH1 0x6 PUSH1 0x0 DUP2 SLOAD DUP1 SWAP3 SWAP2 SWAP1 PUSH2 0x780 SWAP1 PUSH2 0x2B10 JUMP JUMPDEST SWAP2 SWAP1 POP SSTORE POP JUMPDEST DUP2 PUSH1 0x8 PUSH1 0x0 DUP8 PUSH20 0xFFFFFFFFFFFFFFFFFFFFFFFFFFFFFFFFFFFFFFFF AND PUSH20 0xFFFFFFFFFFFFFFFFFFFFFFFFFFFFFFFFFFFFFFFF AND DUP2 MSTORE PUSH1 0x20 ADD SWAP1 DUP2 MSTORE PUSH1 0x20 ADD PUSH1 0x0 KECCAK256 SWAP1 DUP1 MLOAD SWAP1 PUSH1 0x20 ADD SWAP1 PUSH2 0x7D9 SWAP3 SWAP2 SWAP1 PUSH2 0x1E83 JUMP JUMPDEST POP PUSH1 0x1 SWAP3 POP POP DUP2 PUSH2 0x81F JUMPI PUSH1 0x40 MLOAD PUSH32 0x8C379A000000000000000000000000000000000000000000000000000000000 DUP2 MSTORE PUSH1 0x4 ADD PUSH2 0x816 SWAP1 PUSH2 0x2B86 JUMP JUMPDEST PUSH1 0x40 MLOAD DUP1 SWAP2 SUB SWAP1 REVERT JUMPDEST POP POP POP POP JUMP JUMPDEST PUSH1 0x60 PUSH1 0x3 DUP1 SLOAD PUSH2 0x834 SWAP1 PUSH2 0x2BD5 JUMP JUMPDEST DUP1 PUSH1 0x1F ADD PUSH1 0x20 DUP1 SWAP2 DIV MUL PUSH1 0x20 ADD PUSH1 0x40 MLOAD SWAP1 DUP2 ADD PUSH1 0x40 MSTORE DUP1 SWAP3 SWAP2 SWAP1 DUP2 DUP2 MSTORE PUSH1 0x20 ADD DUP3 DUP1 SLOAD PUSH2 0x860 SWAP1 PUSH2 0x2BD5 JUMP JUMPDEST DUP1 ISZERO PUSH2 0x8AD JUMPI DUP1 PUSH1 0x1F LT PUSH2 0x882 JUMPI PUSH2 0x100 DUP1 DUP4 SLOAD DIV MUL DUP4 MSTORE SWAP2 PUSH1 0x20 ADD SWAP2 PUSH2 0x8AD JUMP JUMPDEST DUP3 ADD SWAP2 SWAP1 PUSH1 0x0 MSTORE PUSH1 0x20 PUSH1 0x0 KECCAK256 SWAP1 JUMPDEST DUP2 SLOAD DUP2 MSTORE SWAP1 PUSH1 0x1 ADD SWAP1 PUSH1 0x20 ADD DUP1 DUP4 GT PUSH2 0x890 JUMPI DUP3 SWAP1 SUB PUSH1 0x1F AND DUP3 ADD SWAP2 JUMPDEST POP POP POP POP POP SWAP1 POP SWAP1 JUMP JUMPDEST DUP1 PUSH1 0x0 PUSH1 0x1 SWAP1 POP PUSH1 0x0 JUMPDEST PUSH1 0x1 DUP1 SLOAD SWAP1 POP DUP2 LT ISZERO PUSH2 0x95C JUMPI PUSH1 0x1 DUP2 DUP2 SLOAD DUP2 LT PUSH2 0x8E2 JUMPI PUSH2 0x8E1 PUSH2 0x294D JUMP JUMPDEST JUMPDEST SWAP1 PUSH1 0x0 MSTORE PUSH1 0x20 PUSH1 0x0 KECCAK256 ADD PUSH1 0x0 SWAP1 SLOAD SWAP1 PUSH2 0x100 EXP SWAP1 DIV PUSH20 0xFFFFFFFFFFFFFFFFFFFFFFFFFFFFFFFFFFFFFFFF AND PUSH20 0xFFFFFFFFFFFFFFFFFFFFFFFFFFFFFFFFFFFFFFFF AND DUP4 PUSH20 0xFFFFFFFFFFFFFFFFFFFFFFFFFFFFFFFFFFFFFFFF AND EQ ISZERO PUSH2 0x949 JUMPI PUSH1 0x1 SWAP2 POP PUSH2 0x95C JUMP JUMPDEST DUP1 DUP1 PUSH2 0x954 SWAP1 PUSH2 0x2A35 JUMP JUMPDEST SWAP2 POP POP PUSH2 0x8C1 JUMP JUMPDEST POP PUSH1 0x1 ISZERO ISZERO DUP2 ISZERO ISZERO EQ PUSH2 0x9A4 JUMPI PUSH1 0x40 MLOAD PUSH32 0x8C379A000000000000000000000000000000000000000000000000000000000 DUP2 MSTORE PUSH1 0x4 ADD PUSH2 0x99B SWAP1 PUSH2 0x2C79 JUMP JUMPDEST PUSH1 0x40 MLOAD DUP1 SWAP2 SUB SWAP1 REVERT JUMPDEST PUSH2 0x9E4 PUSH1 0x1 PUSH1 0x40 MLOAD DUP1 PUSH1 0x40 ADD PUSH1 0x40 MSTORE DUP1 PUSH1 0xF DUP2 MSTORE PUSH1 0x20 ADD PUSH32 0x506F6C6C20616374697661746564210000000000000000000000000000000000 DUP2 MSTORE POP PUSH2 0x1D7A JUMP JUMPDEST POP POP POP JUMP JUMPDEST PUSH1 0x1 PUSH1 0x2 DUP2 GT ISZERO PUSH2 0x9FD JUMPI PUSH2 0x9FC PUSH2 0x22B0 JUMP JUMPDEST JUMPDEST PUSH1 0x7 PUSH1 0x0 SWAP1 SLOAD SWAP1 PUSH2 0x100 EXP SWAP1 DIV PUSH1 0xFF AND PUSH1 0x2 DUP2 GT ISZERO PUSH2 0xA1F JUMPI PUSH2 0xA1E PUSH2 0x22B0 JUMP JUMPDEST JUMPDEST EQ PUSH2 0xA5F JUMPI PUSH1 0x40 MLOAD PUSH32 0x8C379A000000000000000000000000000000000000000000000000000000000 DUP2 MSTORE PUSH1 0x4 ADD PUSH2 0xA56 SWAP1 PUSH2 0x28C1 JUMP JUMPDEST PUSH1 0x40 MLOAD DUP1 SWAP2 SUB SWAP1 REVERT JUMPDEST PUSH1 0x7 PUSH1 0x1 SWAP1 SLOAD SWAP1 PUSH2 0x100 EXP SWAP1 DIV PUSH1 0xFF AND PUSH2 0xAAE JUMPI PUSH1 0x40 MLOAD PUSH32 0x8C379A000000000000000000000000000000000000000000000000000000000 DUP2 MSTORE PUSH1 0x4 ADD PUSH2 0xAA5 SWAP1 PUSH2 0x2D0B JUMP JUMPDEST PUSH1 0x40 MLOAD DUP1 SWAP2 SUB SWAP1 REVERT JUMPDEST PUSH1 0x0 PUSH1 0x8 PUSH1 0x0 DUP4 PUSH20 0xFFFFFFFFFFFFFFFFFFFFFFFFFFFFFFFFFFFFFFFF AND PUSH20 0xFFFFFFFFFFFFFFFFFFFFFFFFFFFFFFFFFFFFFFFF AND DUP2 MSTORE PUSH1 0x20 ADD SWAP1 DUP2 MSTORE PUSH1 0x20 ADD PUSH1 0x0 KECCAK256 DUP1 SLOAD DUP1 PUSH1 0x20 MUL PUSH1 0x20 ADD PUSH1 0x40 MLOAD SWAP1 DUP2 ADD PUSH1 0x40 MSTORE DUP1 SWAP3 SWAP2 SWAP1 DUP2 DUP2 MSTORE PUSH1 0x20 ADD DUP3 DUP1 SLOAD DUP1 ISZERO PUSH2 0xB39 JUMPI PUSH1 0x20 MUL DUP3 ADD SWAP2 SWAP1 PUSH1 0x0 MSTORE PUSH1 0x20 PUSH1 0x0 KECCAK256 SWAP1 JUMPDEST DUP2 SLOAD DUP2 MSTORE PUSH1 0x20 ADD SWAP1 PUSH1 0x1 ADD SWAP1 DUP1 DUP4 GT PUSH2 0xB25 JUMPI JUMPDEST POP POP POP POP POP SWAP1 POP PUSH2 0xB65 DUP3 DUP3 PUSH1 0x0 DUP2 MLOAD DUP2 LT PUSH2 0xB58 JUMPI PUSH2 0xB57 PUSH2 0x294D JUMP JUMPDEST JUMPDEST PUSH1 0x20 MUL PUSH1 0x20 ADD ADD MLOAD PUSH2 0x486 JUMP JUMPDEST POP POP JUMP JUMPDEST PUSH1 0x6 SLOAD DUP2 JUMP JUMPDEST PUSH1 0x1 PUSH1 0x2 DUP2 GT ISZERO PUSH2 0xB83 JUMPI PUSH2 0xB82 PUSH2 0x22B0 JUMP JUMPDEST JUMPDEST PUSH1 0x7 PUSH1 0x0 SWAP1 SLOAD SWAP1 PUSH2 0x100 EXP SWAP1 DIV PUSH1 0xFF AND PUSH1 0x2 DUP2 GT ISZERO PUSH2 0xBA5 JUMPI PUSH2 0xBA4 PUSH2 0x22B0 JUMP JUMPDEST JUMPDEST EQ PUSH2 0xBE5 JUMPI PUSH1 0x40 MLOAD PUSH32 0x8C379A000000000000000000000000000000000000000000000000000000000 DUP2 MSTORE PUSH1 0x4 ADD PUSH2 0xBDC SWAP1 PUSH2 0x28C1 JUMP JUMPDEST PUSH1 0x40 MLOAD DUP1 SWAP2 SUB SWAP1 REVERT JUMPDEST PUSH1 0x0 PUSH2 0xBF0 DUP3 PUSH2 0x1CBE JUMP JUMPDEST SWAP1 POP DUP1 PUSH1 0x2 ADD PUSH1 0x14 SWAP1 SLOAD SWAP1 PUSH2 0x100 EXP SWAP1 DIV PUSH1 0xFF AND ISZERO PUSH2 0xF13 JUMPI PUSH1 0x0 PUSH1 0x8 PUSH1 0x0 DUP6 PUSH20 0xFFFFFFFFFFFFFFFFFFFFFFFFFFFFFFFFFFFFFFFF AND PUSH20 0xFFFFFFFFFFFFFFFFFFFFFFFFFFFFFFFFFFFFFFFF AND DUP2 MSTORE PUSH1 0x20 ADD SWAP1 DUP2 MSTORE PUSH1 0x20 ADD PUSH1 0x0 KECCAK256 SWAP1 POP PUSH1 0x0 DUP2 DUP1 SLOAD SWAP1 POP EQ ISZERO PUSH2 0xD3A JUMPI PUSH1 0x0 PUSH1 0x1 PUSH8 0xFFFFFFFFFFFFFFFF DUP2 GT ISZERO PUSH2 0xC76 JUMPI PUSH2 0xC75 PUSH2 0x25AC JUMP JUMPDEST JUMPDEST PUSH1 0x40 MLOAD SWAP1 DUP1 DUP3 MSTORE DUP1 PUSH1 0x20 MUL PUSH1 0x20 ADD DUP3 ADD PUSH1 0x40 MSTORE DUP1 ISZERO PUSH2 0xCA4 JUMPI DUP2 PUSH1 0x20 ADD PUSH1 0x20 DUP3 MUL DUP1 CALLDATASIZE DUP4 CALLDATACOPY DUP1 DUP3 ADD SWAP2 POP POP SWAP1 POP JUMPDEST POP SWAP1 POP DUP4 DUP2 PUSH1 0x0 DUP2 MLOAD DUP2 LT PUSH2 0xCBC JUMPI PUSH2 0xCBB PUSH2 0x294D JUMP JUMPDEST JUMPDEST PUSH1 0x20 MUL PUSH1 0x20 ADD ADD DUP2 DUP2 MSTORE POP POP DUP1 PUSH1 0x8 PUSH1 0x0 DUP8 PUSH20 0xFFFFFFFFFFFFFFFFFFFFFFFFFFFFFFFFFFFFFFFF AND PUSH20 0xFFFFFFFFFFFFFFFFFFFFFFFFFFFFFFFFFFFFFFFF AND DUP2 MSTORE PUSH1 0x20 ADD SWAP1 DUP2 MSTORE PUSH1 0x20 ADD PUSH1 0x0 KECCAK256 SWAP1 DUP1 MLOAD SWAP1 PUSH1 0x20 ADD SWAP1 PUSH2 0xD1B SWAP3 SWAP2 SWAP1 PUSH2 0x1E83 JUMP JUMPDEST POP PUSH1 0x6 PUSH1 0x0 DUP2 SLOAD DUP1 SWAP3 SWAP2 SWAP1 PUSH2 0xD2F SWAP1 PUSH2 0x2A35 JUMP JUMPDEST SWAP2 SWAP1 POP SSTORE POP POP PUSH2 0xEF3 JUMP JUMPDEST PUSH1 0x7 PUSH1 0x1 SWAP1 SLOAD SWAP1 PUSH2 0x100 EXP SWAP1 DIV PUSH1 0xFF AND ISZERO PUSH2 0xE40 JUMPI PUSH1 0x0 DUP2 PUSH1 0x0 DUP2 SLOAD DUP2 LT PUSH2 0xD65 JUMPI PUSH2 0xD64 PUSH2 0x294D JUMP JUMPDEST JUMPDEST SWAP1 PUSH1 0x0 MSTORE PUSH1 0x20 PUSH1 0x0 KECCAK256 ADD SLOAD SWAP1 POP PUSH1 0x0 PUSH2 0xD7D DUP3 PUSH2 0x1CBE JUMP JUMPDEST SWAP1 POP DUP2 DUP6 EQ ISZERO PUSH2 0xDC2 JUMPI PUSH1 0x40 MLOAD PUSH32 0x8C379A000000000000000000000000000000000000000000000000000000000 DUP2 MSTORE PUSH1 0x4 ADD PUSH2 0xDB9 SWAP1 PUSH2 0x2D9D JUMP JUMPDEST PUSH1 0x40 MLOAD DUP1 SWAP2 SUB SWAP1 REVERT JUMPDEST DUP1 PUSH1 0x5 ADD PUSH1 0x0 DUP2 SLOAD DUP1 SWAP3 SWAP2 SWAP1 PUSH2 0xDD7 SWAP1 PUSH2 0x2B10 JUMP JUMPDEST SWAP2 SWAP1 POP SSTORE POP PUSH1 0x40 MLOAD DUP1 PUSH1 0x20 ADD PUSH1 0x40 MSTORE DUP1 DUP7 DUP2 MSTORE POP PUSH1 0x8 PUSH1 0x0 DUP9 PUSH20 0xFFFFFFFFFFFFFFFFFFFFFFFFFFFFFFFFFFFFFFFF AND PUSH20 0xFFFFFFFFFFFFFFFFFFFFFFFFFFFFFFFFFFFFFFFF AND DUP2 MSTORE PUSH1 0x20 ADD SWAP1 DUP2 MSTORE PUSH1 0x20 ADD PUSH1 0x0 KECCAK256 SWAP1 PUSH1 0x1 PUSH2 0xE38 SWAP3 SWAP2 SWAP1 PUSH2 0x1ED0 JUMP JUMPDEST POP POP POP PUSH2 0xEF2 JUMP JUMPDEST PUSH1 0x0 JUMPDEST DUP2 DUP1 SLOAD SWAP1 POP DUP2 LT ISZERO PUSH2 0xEC8 JUMPI PUSH1 0x0 DUP3 DUP3 DUP2 SLOAD DUP2 LT PUSH2 0xE64 JUMPI PUSH2 0xE63 PUSH2 0x294D JUMP JUMPDEST JUMPDEST SWAP1 PUSH1 0x0 MSTORE PUSH1 0x20 PUSH1 0x0 KECCAK256 ADD SLOAD SWAP1 POP DUP5 DUP2 EQ ISZERO PUSH2 0xEB4 JUMPI PUSH1 0x40 MLOAD PUSH32 0x8C379A000000000000000000000000000000000000000000000000000000000 DUP2 MSTORE PUSH1 0x4 ADD PUSH2 0xEAB SWAP1 PUSH2 0x2D9D JUMP JUMPDEST PUSH1 0x40 MLOAD DUP1 SWAP2 SUB SWAP1 REVERT JUMPDEST POP DUP1 DUP1 PUSH2 0xEC0 SWAP1 PUSH2 0x2A35 JUMP JUMPDEST SWAP2 POP POP PUSH2 0xE43 JUMP JUMPDEST POP DUP1 DUP4 SWAP1 DUP1 PUSH1 0x1 DUP2 SLOAD ADD DUP1 DUP3 SSTORE DUP1 SWAP2 POP POP PUSH1 0x1 SWAP1 SUB SWAP1 PUSH1 0x0 MSTORE PUSH1 0x20 PUSH1 0x0 KECCAK256 ADD PUSH1 0x0 SWAP1 SWAP2 SWAP1 SWAP2 SWAP1 SWAP2 POP SSTORE JUMPDEST JUMPDEST DUP2 PUSH1 0x5 ADD PUSH1 0x0 DUP2 SLOAD DUP1 SWAP3 SWAP2 SWAP1 PUSH2 0xF08 SWAP1 PUSH2 0x2A35 JUMP JUMPDEST SWAP2 SWAP1 POP SSTORE POP POP PUSH2 0xF4E JUMP JUMPDEST PUSH1 0x40 MLOAD PUSH32 0x8C379A000000000000000000000000000000000000000000000000000000000 DUP2 MSTORE PUSH1 0x4 ADD PUSH2 0xF45 SWAP1 PUSH2 0x2E09 JUMP JUMPDEST PUSH1 0x40 MLOAD DUP1 SWAP2 SUB SWAP1 REVERT JUMPDEST POP POP POP JUMP JUMPDEST PUSH1 0x2 DUP1 SLOAD PUSH2 0xF60 SWAP1 PUSH2 0x2BD5 JUMP JUMPDEST DUP1 PUSH1 0x1F ADD PUSH1 0x20 DUP1 SWAP2 DIV MUL PUSH1 0x20 ADD PUSH1 0x40 MLOAD SWAP1 DUP2 ADD PUSH1 0x40 MSTORE DUP1 SWAP3 SWAP2 SWAP1 DUP2 DUP2 MSTORE PUSH1 0x20 ADD DUP3 DUP1 SLOAD PUSH2 0xF8C SWAP1 PUSH2 0x2BD5 JUMP JUMPDEST DUP1 ISZERO PUSH2 0xFD9 JUMPI DUP1 PUSH1 0x1F LT PUSH2 0xFAE JUMPI PUSH2 0x100 DUP1 DUP4 SLOAD DIV MUL DUP4 MSTORE SWAP2 PUSH1 0x20 ADD SWAP2 PUSH2 0xFD9 JUMP JUMPDEST DUP3 ADD SWAP2 SWAP1 PUSH1 0x0 MSTORE PUSH1 0x20 PUSH1 0x0 KECCAK256 SWAP1 JUMPDEST DUP2 SLOAD DUP2 MSTORE SWAP1 PUSH1 0x1 ADD SWAP1 PUSH1 0x20 ADD DUP1 DUP4 GT PUSH2 0xFBC JUMPI DUP3 SWAP1 SUB PUSH1 0x1F AND DUP3 ADD SWAP2 JUMPDEST POP POP POP POP POP DUP2 JUMP JUMPDEST PUSH1 0x0 JUMPDEST PUSH1 0x5 DUP1 SLOAD SWAP1 POP DUP2 LT ISZERO PUSH2 0x1075 JUMPI DUP2 PUSH1 0x5 DUP3 DUP2 SLOAD DUP2 LT PUSH2 0x1006 JUMPI PUSH2 0x1005 PUSH2 0x294D JUMP JUMPDEST JUMPDEST SWAP1 PUSH1 0x0 MSTORE PUSH1 0x20 PUSH1 0x0 KECCAK256 SWAP1 PUSH1 0x6 MUL ADD PUSH1 0x0 ADD SLOAD EQ ISZERO PUSH2 0x1062 JUMPI PUSH1 0x0 PUSH1 0x5 DUP3 DUP2 SLOAD DUP2 LT PUSH2 0x1034 JUMPI PUSH2 0x1033 PUSH2 0x294D JUMP JUMPDEST JUMPDEST SWAP1 PUSH1 0x0 MSTORE PUSH1 0x20 PUSH1 0x0 KECCAK256 SWAP1 PUSH1 0x6 MUL ADD PUSH1 0x2 ADD PUSH1 0x14 PUSH2 0x100 EXP DUP2 SLOAD DUP2 PUSH1 0xFF MUL NOT AND SWAP1 DUP4 ISZERO ISZERO MUL OR SWAP1 SSTORE POP POP PUSH2 0x10B1 JUMP JUMPDEST DUP1 DUP1 PUSH2 0x106D SWAP1 PUSH2 0x2A35 JUMP JUMPDEST SWAP2 POP POP PUSH2 0xFE4 JUMP JUMPDEST POP PUSH1 0x40 MLOAD PUSH32 0x8C379A000000000000000000000000000000000000000000000000000000000 DUP2 MSTORE PUSH1 0x4 ADD PUSH2 0x10A8 SWAP1 PUSH2 0x2E75 JUMP JUMPDEST PUSH1 0x40 MLOAD DUP1 SWAP2 SUB SWAP1 REVERT JUMPDEST POP JUMP JUMPDEST PUSH1 0x3 DUP1 SLOAD PUSH2 0x10C1 SWAP1 PUSH2 0x2BD5 JUMP JUMPDEST DUP1 PUSH1 0x1F ADD PUSH1 0x20 DUP1 SWAP2 DIV MUL PUSH1 0x20 ADD PUSH1 0x40 MLOAD SWAP1 DUP2 ADD PUSH1 0x40 MSTORE DUP1 SWAP3 SWAP2 SWAP1 DUP2 DUP2 MSTORE PUSH1 0x20 ADD DUP3 DUP1 SLOAD PUSH2 0x10ED SWAP1 PUSH2 0x2BD5 JUMP JUMPDEST DUP1 ISZERO PUSH2 0x113A JUMPI DUP1 PUSH1 0x1F LT PUSH2 0x110F JUMPI PUSH2 0x100 DUP1 DUP4 SLOAD DIV MUL DUP4 MSTORE SWAP2 PUSH1 0x20 ADD SWAP2 PUSH2 0x113A JUMP JUMPDEST DUP3 ADD SWAP2 SWAP1 PUSH1 0x0 MSTORE PUSH1 0x20 PUSH1 0x0 KECCAK256 SWAP1 JUMPDEST DUP2 SLOAD DUP2 MSTORE SWAP1 PUSH1 0x1 ADD SWAP1 PUSH1 0x20 ADD DUP1 DUP4 GT PUSH2 0x111D JUMPI DUP3 SWAP1 SUB PUSH1 0x1F AND DUP3 ADD SWAP2 JUMPDEST POP POP POP POP POP DUP2 JUMP JUMPDEST ADDRESS PUSH20 0xFFFFFFFFFFFFFFFFFFFFFFFFFFFFFFFFFFFFFFFF AND PUSH4 0xE6C09EDF DUP3 PUSH1 0x40 MLOAD DUP3 PUSH4 0xFFFFFFFF AND PUSH1 0xE0 SHL DUP2 MSTORE PUSH1 0x4 ADD PUSH2 0x117B SWAP2 SWAP1 PUSH2 0x20E3 JUMP JUMPDEST PUSH1 0x0 PUSH1 0x40 MLOAD DUP1 DUP4 SUB DUP2 PUSH1 0x0 DUP8 DUP1 EXTCODESIZE ISZERO DUP1 ISZERO PUSH2 0x1195 JUMPI PUSH1 0x0 DUP1 REVERT JUMPDEST POP GAS CALL ISZERO DUP1 ISZERO PUSH2 0x11A9 JUMPI RETURNDATASIZE PUSH1 0x0 DUP1 RETURNDATACOPY RETURNDATASIZE PUSH1 0x0 REVERT JUMPDEST POP POP POP POP POP JUMP JUMPDEST PUSH1 0x0 SLOAD DUP2 JUMP JUMPDEST PUSH1 0x0 PUSH1 0x4 SLOAD SWAP1 POP SWAP1 JUMP JUMPDEST PUSH1 0x7 PUSH1 0x0 SWAP1 SLOAD SWAP1 PUSH2 0x100 EXP SWAP1 DIV PUSH1 0xFF AND DUP2 JUMP JUMPDEST PUSH1 0x0 PUSH1 0x1 PUSH1 0x2 DUP2 GT ISZERO PUSH2 0x11E9 JUMPI PUSH2 0x11E8 PUSH2 0x22B0 JUMP JUMPDEST JUMPDEST PUSH1 0x7 PUSH1 0x0 SWAP1 SLOAD SWAP1 PUSH2 0x100 EXP SWAP1 DIV PUSH1 0xFF AND PUSH1 0x2 DUP2 GT ISZERO PUSH2 0x120B JUMPI PUSH2 0x120A PUSH2 0x22B0 JUMP JUMPDEST JUMPDEST EQ SWAP1 POP SWAP1 JUMP JUMPDEST PUSH1 0x60 PUSH1 0x5 DUP1 SLOAD DUP1 PUSH1 0x20 MUL PUSH1 0x20 ADD PUSH1 0x40 MLOAD SWAP1 DUP2 ADD PUSH1 0x40 MSTORE DUP1 SWAP3 SWAP2 SWAP1 DUP2 DUP2 MSTORE PUSH1 0x20 ADD PUSH1 0x0 SWAP1 JUMPDEST DUP3 DUP3 LT ISZERO PUSH2 0x1466 JUMPI DUP4 DUP3 SWAP1 PUSH1 0x0 MSTORE PUSH1 0x20 PUSH1 0x0 KECCAK256 SWAP1 PUSH1 0x6 MUL ADD PUSH1 0x40 MLOAD DUP1 PUSH1 0xE0 ADD PUSH1 0x40 MSTORE SWAP1 DUP2 PUSH1 0x0 DUP3 ADD SLOAD DUP2 MSTORE PUSH1 0x20 ADD PUSH1 0x1 DUP3 ADD PUSH1 0x0 SWAP1 SLOAD SWAP1 PUSH2 0x100 EXP SWAP1 DIV PUSH20 0xFFFFFFFFFFFFFFFFFFFFFFFFFFFFFFFFFFFFFFFF AND PUSH20 0xFFFFFFFFFFFFFFFFFFFFFFFFFFFFFFFFFFFFFFFF AND PUSH20 0xFFFFFFFFFFFFFFFFFFFFFFFFFFFFFFFFFFFFFFFF AND DUP2 MSTORE PUSH1 0x20 ADD PUSH1 0x2 DUP3 ADD PUSH1 0x0 SWAP1 SLOAD SWAP1 PUSH2 0x100 EXP SWAP1 DIV PUSH20 0xFFFFFFFFFFFFFFFFFFFFFFFFFFFFFFFFFFFFFFFF AND PUSH20 0xFFFFFFFFFFFFFFFFFFFFFFFFFFFFFFFFFFFFFFFF AND PUSH20 0xFFFFFFFFFFFFFFFFFFFFFFFFFFFFFFFFFFFFFFFF AND DUP2 MSTORE PUSH1 0x20 ADD PUSH1 0x2 DUP3 ADD PUSH1 0x14 SWAP1 SLOAD SWAP1 PUSH2 0x100 EXP SWAP1 DIV PUSH1 0xFF AND ISZERO ISZERO ISZERO ISZERO DUP2 MSTORE PUSH1 0x20 ADD PUSH1 0x3 DUP3 ADD DUP1 SLOAD PUSH2 0x1339 SWAP1 PUSH2 0x2BD5 JUMP JUMPDEST DUP1 PUSH1 0x1F ADD PUSH1 0x20 DUP1 SWAP2 DIV MUL PUSH1 0x20 ADD PUSH1 0x40 MLOAD SWAP1 DUP2 ADD PUSH1 0x40 MSTORE DUP1 SWAP3 SWAP2 SWAP1 DUP2 DUP2 MSTORE PUSH1 0x20 ADD DUP3 DUP1 SLOAD PUSH2 0x1365 SWAP1 PUSH2 0x2BD5 JUMP JUMPDEST DUP1 ISZERO PUSH2 0x13B2 JUMPI DUP1 PUSH1 0x1F LT PUSH2 0x1387 JUMPI PUSH2 0x100 DUP1 DUP4 SLOAD DIV MUL DUP4 MSTORE SWAP2 PUSH1 0x20 ADD SWAP2 PUSH2 0x13B2 JUMP JUMPDEST DUP3 ADD SWAP2 SWAP1 PUSH1 0x0 MSTORE PUSH1 0x20 PUSH1 0x0 KECCAK256 SWAP1 JUMPDEST DUP2 SLOAD DUP2 MSTORE SWAP1 PUSH1 0x1 ADD SWAP1 PUSH1 0x20 ADD DUP1 DUP4 GT PUSH2 0x1395 JUMPI DUP3 SWAP1 SUB PUSH1 0x1F AND DUP3 ADD SWAP2 JUMPDEST POP POP POP POP POP DUP2 MSTORE PUSH1 0x20 ADD PUSH1 0x4 DUP3 ADD DUP1 SLOAD PUSH2 0x13CB SWAP1 PUSH2 0x2BD5 JUMP JUMPDEST DUP1 PUSH1 0x1F ADD PUSH1 0x20 DUP1 SWAP2 DIV MUL PUSH1 0x20 ADD PUSH1 0x40 MLOAD SWAP1 DUP2 ADD PUSH1 0x40 MSTORE DUP1 SWAP3 SWAP2 SWAP1 DUP2 DUP2 MSTORE PUSH1 0x20 ADD DUP3 DUP1 SLOAD PUSH2 0x13F7 SWAP1 PUSH2 0x2BD5 JUMP JUMPDEST DUP1 ISZERO PUSH2 0x1444 JUMPI DUP1 PUSH1 0x1F LT PUSH2 0x1419 JUMPI PUSH2 0x100 DUP1 DUP4 SLOAD DIV MUL DUP4 MSTORE SWAP2 PUSH1 0x20 ADD SWAP2 PUSH2 0x1444 JUMP JUMPDEST DUP3 ADD SWAP2 SWAP1 PUSH1 0x0 MSTORE PUSH1 0x20 PUSH1 0x0 KECCAK256 SWAP1 JUMPDEST DUP2 SLOAD DUP2 MSTORE SWAP1 PUSH1 0x1 ADD SWAP1 PUSH1 0x20 ADD DUP1 DUP4 GT PUSH2 0x1427 JUMPI DUP3 SWAP1 SUB PUSH1 0x1F AND DUP3 ADD SWAP2 JUMPDEST POP POP POP POP POP DUP2 MSTORE PUSH1 0x20 ADD PUSH1 0x5 DUP3 ADD SLOAD DUP2 MSTORE POP POP DUP2 MSTORE PUSH1 0x20 ADD SWAP1 PUSH1 0x1 ADD SWAP1 PUSH2 0x1235 JUMP JUMPDEST POP POP POP POP SWAP1 POP SWAP1 JUMP JUMPDEST PUSH1 0x7 PUSH1 0x1 SWAP1 SLOAD SWAP1 PUSH2 0x100 EXP SWAP1 DIV PUSH1 0xFF AND DUP2 JUMP JUMPDEST PUSH1 0x0 JUMPDEST PUSH1 0x5 DUP1 SLOAD SWAP1 POP DUP2 LT ISZERO PUSH2 0x1516 JUMPI DUP2 PUSH1 0x5 DUP3 DUP2 SLOAD DUP2 LT PUSH2 0x14A7 JUMPI PUSH2 0x14A6 PUSH2 0x294D JUMP JUMPDEST JUMPDEST SWAP1 PUSH1 0x0 MSTORE PUSH1 0x20 PUSH1 0x0 KECCAK256 SWAP1 PUSH1 0x6 MUL ADD PUSH1 0x0 ADD SLOAD EQ ISZERO PUSH2 0x1503 JUMPI PUSH1 0x1 PUSH1 0x5 DUP3 DUP2 SLOAD DUP2 LT PUSH2 0x14D5 JUMPI PUSH2 0x14D4 PUSH2 0x294D JUMP JUMPDEST JUMPDEST SWAP1 PUSH1 0x0 MSTORE PUSH1 0x20 PUSH1 0x0 KECCAK256 SWAP1 PUSH1 0x6 MUL ADD PUSH1 0x2 ADD PUSH1 0x14 PUSH2 0x100 EXP DUP2 SLOAD DUP2 PUSH1 0xFF MUL NOT AND SWAP1 DUP4 ISZERO ISZERO MUL OR SWAP1 SSTORE POP POP PUSH2 0x1552 JUMP JUMPDEST DUP1 DUP1 PUSH2 0x150E SWAP1 PUSH2 0x2A35 JUMP JUMPDEST SWAP2 POP POP PUSH2 0x1485 JUMP JUMPDEST POP PUSH1 0x40 MLOAD PUSH32 0x8C379A000000000000000000000000000000000000000000000000000000000 DUP2 MSTORE PUSH1 0x4 ADD PUSH2 0x1549 SWAP1 PUSH2 0x2E75 JUMP JUMPDEST PUSH1 0x40 MLOAD DUP1 SWAP2 SUB SWAP1 REVERT JUMPDEST POP JUMP JUMPDEST PUSH1 0x1 PUSH1 0x2 DUP2 GT ISZERO PUSH2 0x1569 JUMPI PUSH2 0x1568 PUSH2 0x22B0 JUMP JUMPDEST JUMPDEST PUSH1 0x7 PUSH1 0x0 SWAP1 SLOAD SWAP1 PUSH2 0x100 EXP SWAP1 DIV PUSH1 0xFF AND PUSH1 0x2 DUP2 GT ISZERO PUSH2 0x158B JUMPI PUSH2 0x158A PUSH2 0x22B0 JUMP JUMPDEST JUMPDEST EQ PUSH2 0x15CB JUMPI PUSH1 0x40 MLOAD PUSH32 0x8C379A000000000000000000000000000000000000000000000000000000000 DUP2 MSTORE PUSH1 0x4 ADD PUSH2 0x15C2 SWAP1 PUSH2 0x28C1 JUMP JUMPDEST PUSH1 0x40 MLOAD DUP1 SWAP2 SUB SWAP1 REVERT JUMPDEST DUP5 PUSH1 0x0 PUSH1 0x1 SWAP1 POP PUSH1 0x0 JUMPDEST PUSH1 0x1 DUP1 SLOAD SWAP1 POP DUP2 LT ISZERO PUSH2 0x1670 JUMPI PUSH1 0x1 DUP2 DUP2 SLOAD DUP2 LT PUSH2 0x15F6 JUMPI PUSH2 0x15F5 PUSH2 0x294D JUMP JUMPDEST JUMPDEST SWAP1 PUSH1 0x0 MSTORE PUSH1 0x20 PUSH1 0x0 KECCAK256 ADD PUSH1 0x0 SWAP1 SLOAD SWAP1 PUSH2 0x100 EXP SWAP1 DIV PUSH20 0xFFFFFFFFFFFFFFFFFFFFFFFFFFFFFFFFFFFFFFFF AND PUSH20 0xFFFFFFFFFFFFFFFFFFFFFFFFFFFFFFFFFFFFFFFF AND DUP4 PUSH20 0xFFFFFFFFFFFFFFFFFFFFFFFFFFFFFFFFFFFFFFFF AND EQ ISZERO PUSH2 0x165D JUMPI PUSH1 0x1 SWAP2 POP PUSH2 0x1670 JUMP JUMPDEST DUP1 DUP1 PUSH2 0x1668 SWAP1 PUSH2 0x2A35 JUMP JUMPDEST SWAP2 POP POP PUSH2 0x15D5 JUMP JUMPDEST POP PUSH1 0x1 ISZERO ISZERO DUP2 ISZERO ISZERO EQ PUSH2 0x16B8 JUMPI PUSH1 0x40 MLOAD PUSH32 0x8C379A000000000000000000000000000000000000000000000000000000000 DUP2 MSTORE PUSH1 0x4 ADD PUSH2 0x16AF SWAP1 PUSH2 0x2C79 JUMP JUMPDEST PUSH1 0x40 MLOAD DUP1 SWAP2 SUB SWAP1 REVERT JUMPDEST PUSH1 0x0 PUSH2 0x3E8 PUSH1 0x5 DUP1 SLOAD SWAP1 POP PUSH2 0x16CD SWAP2 SWAP1 PUSH2 0x29DF JUMP JUMPDEST SWAP1 POP PUSH1 0x0 PUSH1 0x40 MLOAD DUP1 PUSH1 0xE0 ADD PUSH1 0x40 MSTORE DUP1 DUP4 DUP2 MSTORE PUSH1 0x20 ADD DUP10 PUSH20 0xFFFFFFFFFFFFFFFFFFFFFFFFFFFFFFFFFFFFFFFF AND DUP2 MSTORE PUSH1 0x20 ADD DUP11 PUSH20 0xFFFFFFFFFFFFFFFFFFFFFFFFFFFFFFFFFFFFFFFF AND DUP2 MSTORE PUSH1 0x20 ADD DUP9 ISZERO ISZERO DUP2 MSTORE PUSH1 0x20 ADD DUP8 DUP2 MSTORE PUSH1 0x20 ADD DUP7 DUP2 MSTORE PUSH1 0x20 ADD PUSH1 0x0 DUP2 MSTORE POP SWAP1 POP PUSH1 0x5 DUP2 SWAP1 DUP1 PUSH1 0x1 DUP2 SLOAD ADD DUP1 DUP3 SSTORE DUP1 SWAP2 POP POP PUSH1 0x1 SWAP1 SUB SWAP1 PUSH1 0x0 MSTORE PUSH1 0x20 PUSH1 0x0 KECCAK256 SWAP1 PUSH1 0x6 MUL ADD PUSH1 0x0 SWAP1 SWAP2 SWAP1 SWAP2 SWAP1 SWAP2 POP PUSH1 0x0 DUP3 ADD MLOAD DUP2 PUSH1 0x0 ADD SSTORE PUSH1 0x20 DUP3 ADD MLOAD DUP2 PUSH1 0x1 ADD PUSH1 0x0 PUSH2 0x100 EXP DUP2 SLOAD DUP2 PUSH20 0xFFFFFFFFFFFFFFFFFFFFFFFFFFFFFFFFFFFFFFFF MUL NOT AND SWAP1 DUP4 PUSH20 0xFFFFFFFFFFFFFFFFFFFFFFFFFFFFFFFFFFFFFFFF AND MUL OR SWAP1 SSTORE POP PUSH1 0x40 DUP3 ADD MLOAD DUP2 PUSH1 0x2 ADD PUSH1 0x0 PUSH2 0x100 EXP DUP2 SLOAD DUP2 PUSH20 0xFFFFFFFFFFFFFFFFFFFFFFFFFFFFFFFFFFFFFFFF MUL NOT AND SWAP1 DUP4 PUSH20 0xFFFFFFFFFFFFFFFFFFFFFFFFFFFFFFFFFFFFFFFF AND MUL OR SWAP1 SSTORE POP PUSH1 0x60 DUP3 ADD MLOAD DUP2 PUSH1 0x2 ADD PUSH1 0x14 PUSH2 0x100 EXP DUP2 SLOAD DUP2 PUSH1 0xFF MUL NOT AND SWAP1 DUP4 ISZERO ISZERO MUL OR SWAP1 SSTORE POP PUSH1 0x80 DUP3 ADD MLOAD DUP2 PUSH1 0x3 ADD SWAP1 DUP1 MLOAD SWAP1 PUSH1 0x20 ADD SWAP1 PUSH2 0x1835 SWAP3 SWAP2 SWAP1 PUSH2 0x1F1D JUMP JUMPDEST POP PUSH1 0xA0 DUP3 ADD MLOAD DUP2 PUSH1 0x4 ADD SWAP1 DUP1 MLOAD SWAP1 PUSH1 0x20 ADD SWAP1 PUSH2 0x1852 SWAP3 SWAP2 SWAP1 PUSH2 0x1F1D JUMP JUMPDEST POP PUSH1 0xC0 DUP3 ADD MLOAD DUP2 PUSH1 0x5 ADD SSTORE POP POP POP POP POP POP POP POP POP POP POP JUMP JUMPDEST DUP1 PUSH1 0x0 PUSH1 0x1 SWAP1 POP PUSH1 0x0 JUMPDEST PUSH1 0x1 DUP1 SLOAD SWAP1 POP DUP2 LT ISZERO PUSH2 0x190F JUMPI PUSH1 0x1 DUP2 DUP2 SLOAD DUP2 LT PUSH2 0x1895 JUMPI PUSH2 0x1894 PUSH2 0x294D JUMP JUMPDEST JUMPDEST SWAP1 PUSH1 0x0 MSTORE PUSH1 0x20 PUSH1 0x0 KECCAK256 ADD PUSH1 0x0 SWAP1 SLOAD SWAP1 PUSH2 0x100 EXP SWAP1 DIV PUSH20 0xFFFFFFFFFFFFFFFFFFFFFFFFFFFFFFFFFFFFFFFF AND PUSH20 0xFFFFFFFFFFFFFFFFFFFFFFFFFFFFFFFFFFFFFFFF AND DUP4 PUSH20 0xFFFFFFFFFFFFFFFFFFFFFFFFFFFFFFFFFFFFFFFF AND EQ ISZERO PUSH2 0x18FC JUMPI PUSH1 0x1 SWAP2 POP PUSH2 0x190F JUMP JUMPDEST DUP1 DUP1 PUSH2 0x1907 SWAP1 PUSH2 0x2A35 JUMP JUMPDEST SWAP2 POP POP PUSH2 0x1874 JUMP JUMPDEST POP PUSH1 0x1 ISZERO ISZERO DUP2 ISZERO ISZERO EQ PUSH2 0x1957 JUMPI PUSH1 0x40 MLOAD PUSH32 0x8C379A000000000000000000000000000000000000000000000000000000000 DUP2 MSTORE PUSH1 0x4 ADD PUSH2 0x194E SWAP1 PUSH2 0x2C79 JUMP JUMPDEST PUSH1 0x40 MLOAD DUP1 SWAP2 SUB SWAP1 REVERT JUMPDEST PUSH2 0x1997 PUSH1 0x2 PUSH1 0x40 MLOAD DUP1 PUSH1 0x40 ADD PUSH1 0x40 MSTORE DUP1 PUSH1 0xE DUP2 MSTORE PUSH1 0x20 ADD PUSH32 0x506F6C6C2064697361626C656421000000000000000000000000000000000000 DUP2 MSTORE POP PUSH2 0x1D7A JUMP JUMPDEST POP POP POP JUMP JUMPDEST PUSH2 0x19A4 PUSH2 0x1FA3 JUMP JUMPDEST PUSH2 0x19AD DUP3 PUSH2 0x1CBE JUMP JUMPDEST PUSH1 0x40 MLOAD DUP1 PUSH1 0xE0 ADD PUSH1 0x40 MSTORE SWAP1 DUP2 PUSH1 0x0 DUP3 ADD SLOAD DUP2 MSTORE PUSH1 0x20 ADD PUSH1 0x1 DUP3 ADD PUSH1 0x0 SWAP1 SLOAD SWAP1 PUSH2 0x100 EXP SWAP1 DIV PUSH20 0xFFFFFFFFFFFFFFFFFFFFFFFFFFFFFFFFFFFFFFFF AND PUSH20 0xFFFFFFFFFFFFFFFFFFFFFFFFFFFFFFFFFFFFFFFF AND PUSH20 0xFFFFFFFFFFFFFFFFFFFFFFFFFFFFFFFFFFFFFFFF AND DUP2 MSTORE PUSH1 0x20 ADD PUSH1 0x2 DUP3 ADD PUSH1 0x0 SWAP1 SLOAD SWAP1 PUSH2 0x100 EXP SWAP1 DIV PUSH20 0xFFFFFFFFFFFFFFFFFFFFFFFFFFFFFFFFFFFFFFFF AND PUSH20 0xFFFFFFFFFFFFFFFFFFFFFFFFFFFFFFFFFFFFFFFF AND PUSH20 0xFFFFFFFFFFFFFFFFFFFFFFFFFFFFFFFFFFFFFFFF AND DUP2 MSTORE PUSH1 0x20 ADD PUSH1 0x2 DUP3 ADD PUSH1 0x14 SWAP1 SLOAD SWAP1 PUSH2 0x100 EXP SWAP1 DIV PUSH1 0xFF AND ISZERO ISZERO ISZERO ISZERO DUP2 MSTORE PUSH1 0x20 ADD PUSH1 0x3 DUP3 ADD DUP1 SLOAD PUSH2 0x1A99 SWAP1 PUSH2 0x2BD5 JUMP JUMPDEST DUP1 PUSH1 0x1F ADD PUSH1 0x20 DUP1 SWAP2 DIV MUL PUSH1 0x20 ADD PUSH1 0x40 MLOAD SWAP1 DUP2 ADD PUSH1 0x40 MSTORE DUP1 SWAP3 SWAP2 SWAP1 DUP2 DUP2 MSTORE PUSH1 0x20 ADD DUP3 DUP1 SLOAD PUSH2 0x1AC5 SWAP1 PUSH2 0x2BD5 JUMP JUMPDEST DUP1 ISZERO PUSH2 0x1B12 JUMPI DUP1 PUSH1 0x1F LT PUSH2 0x1AE7 JUMPI PUSH2 0x100 DUP1 DUP4 SLOAD DIV MUL DUP4 MSTORE SWAP2 PUSH1 0x20 ADD SWAP2 PUSH2 0x1B12 JUMP JUMPDEST DUP3 ADD SWAP2 SWAP1 PUSH1 0x0 MSTORE PUSH1 0x20 PUSH1 0x0 KECCAK256 SWAP1 JUMPDEST DUP2 SLOAD DUP2 MSTORE SWAP1 PUSH1 0x1 ADD SWAP1 PUSH1 0x20 ADD DUP1 DUP4 GT PUSH2 0x1AF5 JUMPI DUP3 SWAP1 SUB PUSH1 0x1F AND DUP3 ADD SWAP2 JUMPDEST POP POP POP POP POP DUP2 MSTORE PUSH1 0x20 ADD PUSH1 0x4 DUP3 ADD DUP1 SLOAD PUSH2 0x1B2B SWAP1 PUSH2 0x2BD5 JUMP JUMPDEST DUP1 PUSH1 0x1F ADD PUSH1 0x20 DUP1 SWAP2 DIV MUL PUSH1 0x20 ADD PUSH1 0x40 MLOAD SWAP1 DUP2 ADD PUSH1 0x40 MSTORE DUP1 SWAP3 SWAP2 SWAP1 DUP2 DUP2 MSTORE PUSH1 0x20 ADD DUP3 DUP1 SLOAD PUSH2 0x1B57 SWAP1 PUSH2 0x2BD5 JUMP JUMPDEST DUP1 ISZERO PUSH2 0x1BA4 JUMPI DUP1 PUSH1 0x1F LT PUSH2 0x1B79 JUMPI PUSH2 0x100 DUP1 DUP4 SLOAD DIV MUL DUP4 MSTORE SWAP2 PUSH1 0x20 ADD SWAP2 PUSH2 0x1BA4 JUMP JUMPDEST DUP3 ADD SWAP2 SWAP1 PUSH1 0x0 MSTORE PUSH1 0x20 PUSH1 0x0 KECCAK256 SWAP1 JUMPDEST DUP2 SLOAD DUP2 MSTORE SWAP1 PUSH1 0x1 ADD SWAP1 PUSH1 0x20 ADD DUP1 DUP4 GT PUSH2 0x1B87 JUMPI DUP3 SWAP1 SUB PUSH1 0x1F AND DUP3 ADD SWAP2 JUMPDEST POP POP POP POP POP DUP2 MSTORE PUSH1 0x20 ADD PUSH1 0x5 DUP3 ADD SLOAD DUP2 MSTORE POP POP SWAP1 POP SWAP2 SWAP1 POP JUMP JUMPDEST ADDRESS PUSH20 0xFFFFFFFFFFFFFFFFFFFFFFFFFFFFFFFFFFFFFFFF AND PUSH4 0x1C5A9D9C DUP3 PUSH1 0x40 MLOAD DUP3 PUSH4 0xFFFFFFFF AND PUSH1 0xE0 SHL DUP2 MSTORE PUSH1 0x4 ADD PUSH2 0x1BF7 SWAP2 SWAP1 PUSH2 0x20E3 JUMP JUMPDEST PUSH1 0x0 PUSH1 0x40 MLOAD DUP1 DUP4 SUB DUP2 PUSH1 0x0 DUP8 DUP1 EXTCODESIZE ISZERO DUP1 ISZERO PUSH2 0x1C11 JUMPI PUSH1 0x0 DUP1 REVERT JUMPDEST POP GAS CALL ISZERO DUP1 ISZERO PUSH2 0x1C25 JUMPI RETURNDATASIZE PUSH1 0x0 DUP1 RETURNDATACOPY RETURNDATASIZE PUSH1 0x0 REVERT JUMPDEST POP POP POP POP POP JUMP JUMPDEST PUSH1 0x60 PUSH1 0x2 DUP1 SLOAD PUSH2 0x1C3B SWAP1 PUSH2 0x2BD5 JUMP JUMPDEST DUP1 PUSH1 0x1F ADD PUSH1 0x20 DUP1 SWAP2 DIV MUL PUSH1 0x20 ADD PUSH1 0x40 MLOAD SWAP1 DUP2 ADD PUSH1 0x40 MSTORE DUP1 SWAP3 SWAP2 SWAP1 DUP2 DUP2 MSTORE PUSH1 0x20 ADD DUP3 DUP1 SLOAD PUSH2 0x1C67 SWAP1 PUSH2 0x2BD5 JUMP JUMPDEST DUP1 ISZERO PUSH2 0x1CB4 JUMPI DUP1 PUSH1 0x1F LT PUSH2 0x1C89 JUMPI PUSH2 0x100 DUP1 DUP4 SLOAD DIV MUL DUP4 MSTORE SWAP2 PUSH1 0x20 ADD SWAP2 PUSH2 0x1CB4 JUMP JUMPDEST DUP3 ADD SWAP2 SWAP1 PUSH1 0x0 MSTORE PUSH1 0x20 PUSH1 0x0 KECCAK256 SWAP1 JUMPDEST DUP2 SLOAD DUP2 MSTORE SWAP1 PUSH1 0x1 ADD SWAP1 PUSH1 0x20 ADD DUP1 DUP4 GT PUSH2 0x1C97 JUMPI DUP3 SWAP1 SUB PUSH1 0x1F AND DUP3 ADD SWAP2 JUMPDEST POP POP POP POP POP SWAP1 POP SWAP1 JUMP JUMPDEST PUSH1 0x0 DUP1 JUMPDEST PUSH1 0x5 DUP1 SLOAD SWAP1 POP DUP2 LT ISZERO PUSH2 0x1D39 JUMPI DUP3 PUSH1 0x5 DUP3 DUP2 SLOAD DUP2 LT PUSH2 0x1CE4 JUMPI PUSH2 0x1CE3 PUSH2 0x294D JUMP JUMPDEST JUMPDEST SWAP1 PUSH1 0x0 MSTORE PUSH1 0x20 PUSH1 0x0 KECCAK256 SWAP1 PUSH1 0x6 MUL ADD PUSH1 0x0 ADD SLOAD EQ ISZERO PUSH2 0x1D26 JUMPI PUSH1 0x5 DUP2 DUP2 SLOAD DUP2 LT PUSH2 0x1D10 JUMPI PUSH2 0x1D0F PUSH2 0x294D JUMP JUMPDEST JUMPDEST SWAP1 PUSH1 0x0 MSTORE PUSH1 0x20 PUSH1 0x0 KECCAK256 SWAP1 PUSH1 0x6 MUL ADD SWAP2 POP POP PUSH2 0x1D75 JUMP JUMPDEST DUP1 DUP1 PUSH2 0x1D31 SWAP1 PUSH2 0x2A35 JUMP JUMPDEST SWAP2 POP POP PUSH2 0x1CC2 JUMP JUMPDEST POP PUSH1 0x40 MLOAD PUSH32 0x8C379A000000000000000000000000000000000000000000000000000000000 DUP2 MSTORE PUSH1 0x4 ADD PUSH2 0x1D6C SWAP1 PUSH2 0x2E75 JUMP JUMPDEST PUSH1 0x40 MLOAD DUP1 SWAP2 SUB SWAP1 REVERT JUMPDEST SWAP2 SWAP1 POP JUMP JUMPDEST DUP2 PUSH1 0x2 DUP2 GT ISZERO PUSH2 0x1D8D JUMPI PUSH2 0x1D8C PUSH2 0x22B0 JUMP JUMPDEST JUMPDEST PUSH1 0x7 PUSH1 0x0 SWAP1 SLOAD SWAP1 PUSH2 0x100 EXP SWAP1 DIV PUSH1 0xFF AND PUSH1 0x2 DUP2 GT ISZERO PUSH2 0x1DAF JUMPI PUSH2 0x1DAE PUSH2 0x22B0 JUMP JUMPDEST JUMPDEST EQ PUSH2 0x1E44 JUMPI CALLER PUSH20 0xFFFFFFFFFFFFFFFFFFFFFFFFFFFFFFFFFFFFFFFF AND PUSH32 0xFC6F5E211098B443015CCB625104A41F61E97A80DD9B8734242A9A8C3EECC8DC PUSH1 0x7 PUSH1 0x0 SWAP1 SLOAD SWAP1 PUSH2 0x100 EXP SWAP1 DIV PUSH1 0xFF AND DUP5 DUP5 PUSH1 0x40 MLOAD PUSH2 0x1E0D SWAP4 SWAP3 SWAP2 SWAP1 PUSH2 0x2E95 JUMP JUMPDEST PUSH1 0x40 MLOAD DUP1 SWAP2 SUB SWAP1 LOG2 DUP2 PUSH1 0x7 PUSH1 0x0 PUSH2 0x100 EXP DUP2 SLOAD DUP2 PUSH1 0xFF MUL NOT AND SWAP1 DUP4 PUSH1 0x2 DUP2 GT ISZERO PUSH2 0x1E3A JUMPI PUSH2 0x1E39 PUSH2 0x22B0 JUMP JUMPDEST JUMPDEST MUL OR SWAP1 SSTORE POP PUSH2 0x1E7F JUMP JUMPDEST PUSH1 0x40 MLOAD PUSH32 0x8C379A000000000000000000000000000000000000000000000000000000000 DUP2 MSTORE PUSH1 0x4 ADD PUSH2 0x1E76 SWAP1 PUSH2 0x2F45 JUMP JUMPDEST PUSH1 0x40 MLOAD DUP1 SWAP2 SUB SWAP1 REVERT JUMPDEST POP POP JUMP JUMPDEST DUP3 DUP1 SLOAD DUP3 DUP3 SSTORE SWAP1 PUSH1 0x0 MSTORE PUSH1 0x20 PUSH1 0x0 KECCAK256 SWAP1 DUP2 ADD SWAP3 DUP3 ISZERO PUSH2 0x1EBF JUMPI SWAP2 PUSH1 0x20 MUL DUP3 ADD JUMPDEST DUP3 DUP2 GT ISZERO PUSH2 0x1EBE JUMPI DUP3 MLOAD DUP3 SSTORE SWAP2 PUSH1 0x20 ADD SWAP2 SWAP1 PUSH1 0x1 ADD SWAP1 PUSH2 0x1EA3 JUMP JUMPDEST JUMPDEST POP SWAP1 POP PUSH2 0x1ECC SWAP2 SWAP1 PUSH2 0x200E JUMP JUMPDEST POP SWAP1 JUMP JUMPDEST DUP3 DUP1 SLOAD DUP3 DUP3 SSTORE SWAP1 PUSH1 0x0 MSTORE PUSH1 0x20 PUSH1 0x0 KECCAK256 SWAP1 DUP2 ADD SWAP3 DUP3 ISZERO PUSH2 0x1F0C JUMPI SWAP2 PUSH1 0x20 MUL DUP3 ADD JUMPDEST DUP3 DUP2 GT ISZERO PUSH2 0x1F0B JUMPI DUP3 MLOAD DUP3 SSTORE SWAP2 PUSH1 0x20 ADD SWAP2 SWAP1 PUSH1 0x1 ADD SWAP1 PUSH2 0x1EF0 JUMP JUMPDEST JUMPDEST POP SWAP1 POP PUSH2 0x1F19 SWAP2 SWAP1 PUSH2 0x200E JUMP JUMPDEST POP SWAP1 JUMP JUMPDEST DUP3 DUP1 SLOAD PUSH2 0x1F29 SWAP1 PUSH2 0x2BD5 JUMP JUMPDEST SWAP1 PUSH1 0x0 MSTORE PUSH1 0x20 PUSH1 0x0 KECCAK256 SWAP1 PUSH1 0x1F ADD PUSH1 0x20 SWAP1 DIV DUP2 ADD SWAP3 DUP3 PUSH2 0x1F4B JUMPI PUSH1 0x0 DUP6 SSTORE PUSH2 0x1F92 JUMP JUMPDEST DUP3 PUSH1 0x1F LT PUSH2 0x1F64 JUMPI DUP1 MLOAD PUSH1 0xFF NOT AND DUP4 DUP1 ADD OR DUP6 SSTORE PUSH2 0x1F92 JUMP JUMPDEST DUP3 DUP1 ADD PUSH1 0x1 ADD DUP6 SSTORE DUP3 ISZERO PUSH2 0x1F92 JUMPI SWAP2 DUP3 ADD JUMPDEST DUP3 DUP2 GT ISZERO PUSH2 0x1F91 JUMPI DUP3 MLOAD DUP3 SSTORE SWAP2 PUSH1 0x20 ADD SWAP2 SWAP1 PUSH1 0x1 ADD SWAP1 PUSH2 0x1F76 JUMP JUMPDEST JUMPDEST POP SWAP1 POP PUSH2 0x1F9F SWAP2 SWAP1 PUSH2 0x200E JUMP JUMPDEST POP SWAP1 JUMP JUMPDEST PUSH1 0x40 MLOAD DUP1 PUSH1 0xE0 ADD PUSH1 0x40 MSTORE DUP1 PUSH1 0x0 DUP2 MSTORE PUSH1 0x20 ADD PUSH1 0x0 PUSH20 0xFFFFFFFFFFFFFFFFFFFFFFFFFFFFFFFFFFFFFFFF AND DUP2 MSTORE PUSH1 0x20 ADD PUSH1 0x0 PUSH20 0xFFFFFFFFFFFFFFFFFFFFFFFFFFFFFFFFFFFFFFFF AND DUP2 MSTORE PUSH1 0x20 ADD PUSH1 0x0 ISZERO ISZERO DUP2 MSTORE PUSH1 0x20 ADD PUSH1 0x60 DUP2 MSTORE PUSH1 0x20 ADD PUSH1 0x60 DUP2 MSTORE PUSH1 0x20 ADD PUSH1 0x0 DUP2 MSTORE POP SWAP1 JUMP JUMPDEST JUMPDEST DUP1 DUP3 GT ISZERO PUSH2 0x2027 JUMPI PUSH1 0x0 DUP2 PUSH1 0x0 SWAP1 SSTORE POP PUSH1 0x1 ADD PUSH2 0x200F JUMP JUMPDEST POP SWAP1 JUMP JUMPDEST PUSH1 0x0 PUSH1 0x40 MLOAD SWAP1 POP SWAP1 JUMP JUMPDEST PUSH1 0x0 DUP1 REVERT JUMPDEST PUSH1 0x0 DUP1 REVERT JUMPDEST PUSH1 0x0 DUP2 SWAP1 POP SWAP2 SWAP1 POP JUMP JUMPDEST PUSH2 0x2052 DUP2 PUSH2 0x203F JUMP JUMPDEST DUP2 EQ PUSH2 0x205D JUMPI PUSH1 0x0 DUP1 REVERT JUMPDEST POP JUMP JUMPDEST PUSH1 0x0 DUP2 CALLDATALOAD SWAP1 POP PUSH2 0x206F DUP2 PUSH2 0x2049 JUMP JUMPDEST SWAP3 SWAP2 POP POP JUMP JUMPDEST PUSH1 0x0 PUSH1 0x20 DUP3 DUP5 SUB SLT ISZERO PUSH2 0x208B JUMPI PUSH2 0x208A PUSH2 0x2035 JUMP JUMPDEST JUMPDEST PUSH1 0x0 PUSH2 0x2099 DUP5 DUP3 DUP6 ADD PUSH2 0x2060 JUMP JUMPDEST SWAP2 POP POP SWAP3 SWAP2 POP POP JUMP JUMPDEST PUSH1 0x0 PUSH20 0xFFFFFFFFFFFFFFFFFFFFFFFFFFFFFFFFFFFFFFFF DUP3 AND SWAP1 POP SWAP2 SWAP1 POP JUMP JUMPDEST PUSH1 0x0 PUSH2 0x20CD DUP3 PUSH2 0x20A2 JUMP JUMPDEST SWAP1 POP SWAP2 SWAP1 POP JUMP JUMPDEST PUSH2 0x20DD DUP2 PUSH2 0x20C2 JUMP JUMPDEST DUP3 MSTORE POP POP JUMP JUMPDEST PUSH1 0x0 PUSH1 0x20 DUP3 ADD SWAP1 POP PUSH2 0x20F8 PUSH1 0x0 DUP4 ADD DUP5 PUSH2 0x20D4 JUMP JUMPDEST SWAP3 SWAP2 POP POP JUMP JUMPDEST PUSH2 0x2107 DUP2 PUSH2 0x203F JUMP JUMPDEST DUP3 MSTORE POP POP JUMP JUMPDEST PUSH1 0x0 PUSH1 0x20 DUP3 ADD SWAP1 POP PUSH2 0x2122 PUSH1 0x0 DUP4 ADD DUP5 PUSH2 0x20FE JUMP JUMPDEST SWAP3 SWAP2 POP POP JUMP JUMPDEST PUSH2 0x2131 DUP2 PUSH2 0x20C2 JUMP JUMPDEST DUP2 EQ PUSH2 0x213C JUMPI PUSH1 0x0 DUP1 REVERT JUMPDEST POP JUMP JUMPDEST PUSH1 0x0 DUP2 CALLDATALOAD SWAP1 POP PUSH2 0x214E DUP2 PUSH2 0x2128 JUMP JUMPDEST SWAP3 SWAP2 POP POP JUMP JUMPDEST PUSH1 0x0 DUP1 PUSH1 0x40 DUP4 DUP6 SUB SLT ISZERO PUSH2 0x216B JUMPI PUSH2 0x216A PUSH2 0x2035 JUMP JUMPDEST JUMPDEST PUSH1 0x0 PUSH2 0x2179 DUP6 DUP3 DUP7 ADD PUSH2 0x213F JUMP JUMPDEST SWAP3 POP POP PUSH1 0x20 PUSH2 0x218A DUP6 DUP3 DUP7 ADD PUSH2 0x2060 JUMP JUMPDEST SWAP2 POP POP SWAP3 POP SWAP3 SWAP1 POP JUMP JUMPDEST PUSH1 0x0 DUP2 MLOAD SWAP1 POP SWAP2 SWAP1 POP JUMP JUMPDEST PUSH1 0x0 DUP3 DUP3 MSTORE PUSH1 0x20 DUP3 ADD SWAP1 POP SWAP3 SWAP2 POP POP JUMP JUMPDEST PUSH1 0x0 JUMPDEST DUP4 DUP2 LT ISZERO PUSH2 0x21CE JUMPI DUP1 DUP3 ADD MLOAD DUP2 DUP5 ADD MSTORE PUSH1 0x20 DUP2 ADD SWAP1 POP PUSH2 0x21B3 JUMP JUMPDEST DUP4 DUP2 GT ISZERO PUSH2 0x21DD JUMPI PUSH1 0x0 DUP5 DUP5 ADD MSTORE JUMPDEST POP POP POP POP JUMP JUMPDEST PUSH1 0x0 PUSH1 0x1F NOT PUSH1 0x1F DUP4 ADD AND SWAP1 POP SWAP2 SWAP1 POP JUMP JUMPDEST PUSH1 0x0 PUSH2 0x21FF DUP3 PUSH2 0x2194 JUMP JUMPDEST PUSH2 0x2209 DUP2 DUP6 PUSH2 0x219F JUMP JUMPDEST SWAP4 POP PUSH2 0x2219 DUP2 DUP6 PUSH1 0x20 DUP7 ADD PUSH2 0x21B0 JUMP JUMPDEST PUSH2 0x2222 DUP2 PUSH2 0x21E3 JUMP JUMPDEST DUP5 ADD SWAP2 POP POP SWAP3 SWAP2 POP POP JUMP JUMPDEST PUSH1 0x0 PUSH1 0x20 DUP3 ADD SWAP1 POP DUP2 DUP2 SUB PUSH1 0x0 DUP4 ADD MSTORE PUSH2 0x2247 DUP2 DUP5 PUSH2 0x21F4 JUMP JUMPDEST SWAP1 POP SWAP3 SWAP2 POP POP JUMP JUMPDEST PUSH1 0x0 PUSH1 0x20 DUP3 DUP5 SUB SLT ISZERO PUSH2 0x2265 JUMPI PUSH2 0x2264 PUSH2 0x2035 JUMP JUMPDEST JUMPDEST PUSH1 0x0 PUSH2 0x2273 DUP5 DUP3 DUP6 ADD PUSH2 0x213F JUMP JUMPDEST SWAP2 POP POP SWAP3 SWAP2 POP POP JUMP JUMPDEST PUSH1 0x0 DUP2 SWAP1 POP SWAP2 SWAP1 POP JUMP JUMPDEST PUSH2 0x228F DUP2 PUSH2 0x227C JUMP JUMPDEST DUP3 MSTORE POP POP JUMP JUMPDEST PUSH1 0x0 PUSH1 0x20 DUP3 ADD SWAP1 POP PUSH2 0x22AA PUSH1 0x0 DUP4 ADD DUP5 PUSH2 0x2286 JUMP JUMPDEST SWAP3 SWAP2 POP POP JUMP JUMPDEST PUSH32 0x4E487B7100000000000000000000000000000000000000000000000000000000 PUSH1 0x0 MSTORE PUSH1 0x21 PUSH1 0x4 MSTORE PUSH1 0x24 PUSH1 0x0 REVERT JUMPDEST PUSH1 0x3 DUP2 LT PUSH2 0x22F0 JUMPI PUSH2 0x22EF PUSH2 0x22B0 JUMP JUMPDEST JUMPDEST POP JUMP JUMPDEST PUSH1 0x0 DUP2 SWAP1 POP PUSH2 0x2301 DUP3 PUSH2 0x22DF JUMP JUMPDEST SWAP2 SWAP1 POP JUMP JUMPDEST PUSH1 0x0 PUSH2 0x2311 DUP3 PUSH2 0x22F3 JUMP JUMPDEST SWAP1 POP SWAP2 SWAP1 POP JUMP JUMPDEST PUSH2 0x2321 DUP2 PUSH2 0x2306 JUMP JUMPDEST DUP3 MSTORE POP POP JUMP JUMPDEST PUSH1 0x0 PUSH1 0x20 DUP3 ADD SWAP1 POP PUSH2 0x233C PUSH1 0x0 DUP4 ADD DUP5 PUSH2 0x2318 JUMP JUMPDEST SWAP3 SWAP2 POP POP JUMP JUMPDEST PUSH1 0x0 DUP2 ISZERO ISZERO SWAP1 POP SWAP2 SWAP1 POP JUMP JUMPDEST PUSH2 0x2357 DUP2 PUSH2 0x2342 JUMP JUMPDEST DUP3 MSTORE POP POP JUMP JUMPDEST PUSH1 0x0 PUSH1 0x20 DUP3 ADD SWAP1 POP PUSH2 0x2372 PUSH1 0x0 DUP4 ADD DUP5 PUSH2 0x234E JUMP JUMPDEST SWAP3 SWAP2 POP POP JUMP JUMPDEST PUSH1 0x0 DUP2 MLOAD SWAP1 POP SWAP2 SWAP1 POP JUMP JUMPDEST PUSH1 0x0 DUP3 DUP3 MSTORE PUSH1 0x20 DUP3 ADD SWAP1 POP SWAP3 SWAP2 POP POP JUMP JUMPDEST PUSH1 0x0 DUP2 SWAP1 POP PUSH1 0x20 DUP3 ADD SWAP1 POP SWAP2 SWAP1 POP JUMP JUMPDEST PUSH2 0x23AD DUP2 PUSH2 0x203F JUMP JUMPDEST DUP3 MSTORE POP POP JUMP JUMPDEST PUSH2 0x23BC DUP2 PUSH2 0x20C2 JUMP JUMPDEST DUP3 MSTORE POP POP JUMP JUMPDEST PUSH2 0x23CB DUP2 PUSH2 0x2342 JUMP JUMPDEST DUP3 MSTORE POP POP JUMP JUMPDEST PUSH1 0x0 DUP3 DUP3 MSTORE PUSH1 0x20 DUP3 ADD SWAP1 POP SWAP3 SWAP2 POP POP JUMP JUMPDEST PUSH1 0x0 PUSH2 0x23ED DUP3 PUSH2 0x2194 JUMP JUMPDEST PUSH2 0x23F7 DUP2 DUP6 PUSH2 0x23D1 JUMP JUMPDEST SWAP4 POP PUSH2 0x2407 DUP2 DUP6 PUSH1 0x20 DUP7 ADD PUSH2 0x21B0 JUMP JUMPDEST PUSH2 0x2410 DUP2 PUSH2 0x21E3 JUMP JUMPDEST DUP5 ADD SWAP2 POP POP SWAP3 SWAP2 POP POP JUMP JUMPDEST PUSH1 0x0 PUSH1 0xE0 DUP4 ADD PUSH1 0x0 DUP4 ADD MLOAD PUSH2 0x2433 PUSH1 0x0 DUP7 ADD DUP3 PUSH2 0x23A4 JUMP JUMPDEST POP PUSH1 0x20 DUP4 ADD MLOAD PUSH2 0x2446 PUSH1 0x20 DUP7 ADD DUP3 PUSH2 0x23B3 JUMP JUMPDEST POP PUSH1 0x40 DUP4 ADD MLOAD PUSH2 0x2459 PUSH1 0x40 DUP7 ADD DUP3 PUSH2 0x23B3 JUMP JUMPDEST POP PUSH1 0x60 DUP4 ADD MLOAD PUSH2 0x246C PUSH1 0x60 DUP7 ADD DUP3 PUSH2 0x23C2 JUMP JUMPDEST POP PUSH1 0x80 DUP4 ADD MLOAD DUP5 DUP3 SUB PUSH1 0x80 DUP7 ADD MSTORE PUSH2 0x2484 DUP3 DUP3 PUSH2 0x23E2 JUMP JUMPDEST SWAP2 POP POP PUSH1 0xA0 DUP4 ADD MLOAD DUP5 DUP3 SUB PUSH1 0xA0 DUP7 ADD MSTORE PUSH2 0x249E DUP3 DUP3 PUSH2 0x23E2 JUMP JUMPDEST SWAP2 POP POP PUSH1 0xC0 DUP4 ADD MLOAD PUSH2 0x24B3 PUSH1 0xC0 DUP7 ADD DUP3 PUSH2 0x23A4 JUMP JUMPDEST POP DUP1 SWAP2 POP POP SWAP3 SWAP2 POP POP JUMP JUMPDEST PUSH1 0x0 PUSH2 0x24CA DUP4 DUP4 PUSH2 0x241B JUMP JUMPDEST SWAP1 POP SWAP3 SWAP2 POP POP JUMP JUMPDEST PUSH1 0x0 PUSH1 0x20 DUP3 ADD SWAP1 POP SWAP2 SWAP1 POP JUMP JUMPDEST PUSH1 0x0 PUSH2 0x24EA DUP3 PUSH2 0x2378 JUMP JUMPDEST PUSH2 0x24F4 DUP2 DUP6 PUSH2 0x2383 JUMP JUMPDEST SWAP4 POP DUP4 PUSH1 0x20 DUP3 MUL DUP6 ADD PUSH2 0x2506 DUP6 PUSH2 0x2394 JUMP JUMPDEST DUP1 PUSH1 0x0 JUMPDEST DUP6 DUP2 LT ISZERO PUSH2 0x2542 JUMPI DUP5 DUP5 SUB DUP10 MSTORE DUP2 MLOAD PUSH2 0x2523 DUP6 DUP3 PUSH2 0x24BE JUMP JUMPDEST SWAP5 POP PUSH2 0x252E DUP4 PUSH2 0x24D2 JUMP JUMPDEST SWAP3 POP PUSH1 0x20 DUP11 ADD SWAP10 POP POP PUSH1 0x1 DUP2 ADD SWAP1 POP PUSH2 0x250A JUMP JUMPDEST POP DUP3 SWAP8 POP DUP8 SWAP6 POP POP POP POP POP POP SWAP3 SWAP2 POP POP JUMP JUMPDEST PUSH1 0x0 PUSH1 0x20 DUP3 ADD SWAP1 POP DUP2 DUP2 SUB PUSH1 0x0 DUP4 ADD MSTORE PUSH2 0x256E DUP2 DUP5 PUSH2 0x24DF JUMP JUMPDEST SWAP1 POP SWAP3 SWAP2 POP POP JUMP JUMPDEST PUSH2 0x257F DUP2 PUSH2 0x2342 JUMP JUMPDEST DUP2 EQ PUSH2 0x258A JUMPI PUSH1 0x0 DUP1 REVERT JUMPDEST POP JUMP JUMPDEST PUSH1 0x0 DUP2 CALLDATALOAD SWAP1 POP PUSH2 0x259C DUP2 PUSH2 0x2576 JUMP JUMPDEST SWAP3 SWAP2 POP POP JUMP JUMPDEST PUSH1 0x0 DUP1 REVERT JUMPDEST PUSH1 0x0 DUP1 REVERT JUMPDEST PUSH32 0x4E487B7100000000000000000000000000000000000000000000000000000000 PUSH1 0x0 MSTORE PUSH1 0x41 PUSH1 0x4 MSTORE PUSH1 0x24 PUSH1 0x0 REVERT JUMPDEST PUSH2 0x25E4 DUP3 PUSH2 0x21E3 JUMP JUMPDEST DUP2 ADD DUP2 DUP2 LT PUSH8 0xFFFFFFFFFFFFFFFF DUP3 GT OR ISZERO PUSH2 0x2603 JUMPI PUSH2 0x2602 PUSH2 0x25AC JUMP JUMPDEST JUMPDEST DUP1 PUSH1 0x40 MSTORE POP POP POP JUMP JUMPDEST PUSH1 0x0 PUSH2 0x2616 PUSH2 0x202B JUMP JUMPDEST SWAP1 POP PUSH2 0x2622 DUP3 DUP3 PUSH2 0x25DB JUMP JUMPDEST SWAP2 SWAP1 POP JUMP JUMPDEST PUSH1 0x0 PUSH8 0xFFFFFFFFFFFFFFFF DUP3 GT ISZERO PUSH2 0x2642 JUMPI PUSH2 0x2641 PUSH2 0x25AC JUMP JUMPDEST JUMPDEST PUSH2 0x264B DUP3 PUSH2 0x21E3 JUMP JUMPDEST SWAP1 POP PUSH1 0x20 DUP2 ADD SWAP1 POP SWAP2 SWAP1 POP JUMP JUMPDEST DUP3 DUP2 DUP4 CALLDATACOPY PUSH1 0x0 DUP4 DUP4 ADD MSTORE POP POP POP JUMP JUMPDEST PUSH1 0x0 PUSH2 0x267A PUSH2 0x2675 DUP5 PUSH2 0x2627 JUMP JUMPDEST PUSH2 0x260C JUMP JUMPDEST SWAP1 POP DUP3 DUP2 MSTORE PUSH1 0x20 DUP2 ADD DUP5 DUP5 DUP5 ADD GT ISZERO PUSH2 0x2696 JUMPI PUSH2 0x2695 PUSH2 0x25A7 JUMP JUMPDEST JUMPDEST PUSH2 0x26A1 DUP5 DUP3 DUP6 PUSH2 0x2658 JUMP JUMPDEST POP SWAP4 SWAP3 POP POP POP JUMP JUMPDEST PUSH1 0x0 DUP3 PUSH1 0x1F DUP4 ADD SLT PUSH2 0x26BE JUMPI PUSH2 0x26BD PUSH2 0x25A2 JUMP JUMPDEST JUMPDEST DUP2 CALLDATALOAD PUSH2 0x26CE DUP5 DUP3 PUSH1 0x20 DUP7 ADD PUSH2 0x2667 JUMP JUMPDEST SWAP2 POP POP SWAP3 SWAP2 POP POP JUMP JUMPDEST PUSH1 0x0 DUP1 PUSH1 0x0 DUP1 PUSH1 0x0 PUSH1 0xA0 DUP7 DUP9 SUB SLT ISZERO PUSH2 0x26F3 JUMPI PUSH2 0x26F2 PUSH2 0x2035 JUMP JUMPDEST JUMPDEST PUSH1 0x0 PUSH2 0x2701 DUP9 DUP3 DUP10 ADD PUSH2 0x213F JUMP JUMPDEST SWAP6 POP POP PUSH1 0x20 PUSH2 0x2712 DUP9 DUP3 DUP10 ADD PUSH2 0x213F JUMP JUMPDEST SWAP5 POP POP PUSH1 0x40 PUSH2 0x2723 DUP9 DUP3 DUP10 ADD PUSH2 0x258D JUMP JUMPDEST SWAP4 POP POP PUSH1 0x60 DUP7 ADD CALLDATALOAD PUSH8 0xFFFFFFFFFFFFFFFF DUP2 GT ISZERO PUSH2 0x2744 JUMPI PUSH2 0x2743 PUSH2 0x203A JUMP JUMPDEST JUMPDEST PUSH2 0x2750 DUP9 DUP3 DUP10 ADD PUSH2 0x26A9 JUMP JUMPDEST SWAP3 POP POP PUSH1 0x80 DUP7 ADD CALLDATALOAD PUSH8 0xFFFFFFFFFFFFFFFF DUP2 GT ISZERO PUSH2 0x2771 JUMPI PUSH2 0x2770 PUSH2 0x203A JUMP JUMPDEST JUMPDEST PUSH2 0x277D DUP9 DUP3 DUP10 ADD PUSH2 0x26A9 JUMP JUMPDEST SWAP2 POP POP SWAP3 SWAP6 POP SWAP3 SWAP6 SWAP1 SWAP4 POP JUMP JUMPDEST PUSH1 0x0 PUSH1 0xE0 DUP4 ADD PUSH1 0x0 DUP4 ADD MLOAD PUSH2 0x27A2 PUSH1 0x0 DUP7 ADD DUP3 PUSH2 0x23A4 JUMP JUMPDEST POP PUSH1 0x20 DUP4 ADD MLOAD PUSH2 0x27B5 PUSH1 0x20 DUP7 ADD DUP3 PUSH2 0x23B3 JUMP JUMPDEST POP PUSH1 0x40 DUP4 ADD MLOAD PUSH2 0x27C8 PUSH1 0x40 DUP7 ADD DUP3 PUSH2 0x23B3 JUMP JUMPDEST POP PUSH1 0x60 DUP4 ADD MLOAD PUSH2 0x27DB PUSH1 0x60 DUP7 ADD DUP3 PUSH2 0x23C2 JUMP JUMPDEST POP PUSH1 0x80 DUP4 ADD MLOAD DUP5 DUP3 SUB PUSH1 0x80 DUP7 ADD MSTORE PUSH2 0x27F3 DUP3 DUP3 PUSH2 0x23E2 JUMP JUMPDEST SWAP2 POP POP PUSH1 0xA0 DUP4 ADD MLOAD DUP5 DUP3 SUB PUSH1 0xA0 DUP7 ADD MSTORE PUSH2 0x280D DUP3 DUP3 PUSH2 0x23E2 JUMP JUMPDEST SWAP2 POP POP PUSH1 0xC0 DUP4 ADD MLOAD PUSH2 0x2822 PUSH1 0xC0 DUP7 ADD DUP3 PUSH2 0x23A4 JUMP JUMPDEST POP DUP1 SWAP2 POP POP SWAP3 SWAP2 POP POP JUMP JUMPDEST PUSH1 0x0 PUSH1 0x20 DUP3 ADD SWAP1 POP DUP2 DUP2 SUB PUSH1 0x0 DUP4 ADD MSTORE PUSH2 0x2847 DUP2 DUP5 PUSH2 0x278A JUMP JUMPDEST SWAP1 POP SWAP3 SWAP2 POP POP JUMP JUMPDEST PUSH32 0x54686520706F6C6C206D75737420626520696E20616E20616374697665207374 PUSH1 0x0 DUP3 ADD MSTORE PUSH32 0x6174652E00000000000000000000000000000000000000000000000000000000 PUSH1 0x20 DUP3 ADD MSTORE POP JUMP JUMPDEST PUSH1 0x0 PUSH2 0x28AB PUSH1 0x24 DUP4 PUSH2 0x219F JUMP JUMPDEST SWAP2 POP PUSH2 0x28B6 DUP3 PUSH2 0x284F JUMP JUMPDEST PUSH1 0x40 DUP3 ADD SWAP1 POP SWAP2 SWAP1 POP JUMP JUMPDEST PUSH1 0x0 PUSH1 0x20 DUP3 ADD SWAP1 POP DUP2 DUP2 SUB PUSH1 0x0 DUP4 ADD MSTORE PUSH2 0x28DA DUP2 PUSH2 0x289E JUMP JUMPDEST SWAP1 POP SWAP2 SWAP1 POP JUMP JUMPDEST PUSH32 0x5573657220646964206E6F7420766F7465207965740000000000000000000000 PUSH1 0x0 DUP3 ADD MSTORE POP JUMP JUMPDEST PUSH1 0x0 PUSH2 0x2917 PUSH1 0x15 DUP4 PUSH2 0x219F JUMP JUMPDEST SWAP2 POP PUSH2 0x2922 DUP3 PUSH2 0x28E1 JUMP JUMPDEST PUSH1 0x20 DUP3 ADD SWAP1 POP SWAP2 SWAP1 POP JUMP JUMPDEST PUSH1 0x0 PUSH1 0x20 DUP3 ADD SWAP1 POP DUP2 DUP2 SUB PUSH1 0x0 DUP4 ADD MSTORE PUSH2 0x2946 DUP2 PUSH2 0x290A JUMP JUMPDEST SWAP1 POP SWAP2 SWAP1 POP JUMP JUMPDEST PUSH32 0x4E487B7100000000000000000000000000000000000000000000000000000000 PUSH1 0x0 MSTORE PUSH1 0x32 PUSH1 0x4 MSTORE PUSH1 0x24 PUSH1 0x0 REVERT JUMPDEST PUSH32 0x4E487B7100000000000000000000000000000000000000000000000000000000 PUSH1 0x0 MSTORE PUSH1 0x11 PUSH1 0x4 MSTORE PUSH1 0x24 PUSH1 0x0 REVERT JUMPDEST PUSH1 0x0 PUSH2 0x29B6 DUP3 PUSH2 0x203F JUMP JUMPDEST SWAP2 POP PUSH2 0x29C1 DUP4 PUSH2 0x203F JUMP JUMPDEST SWAP3 POP DUP3 DUP3 LT ISZERO PUSH2 0x29D4 JUMPI PUSH2 0x29D3 PUSH2 0x297C JUMP JUMPDEST JUMPDEST DUP3 DUP3 SUB SWAP1 POP SWAP3 SWAP2 POP POP JUMP JUMPDEST PUSH1 0x0 PUSH2 0x29EA DUP3 PUSH2 0x203F JUMP JUMPDEST SWAP2 POP PUSH2 0x29F5 DUP4 PUSH2 0x203F JUMP JUMPDEST SWAP3 POP DUP3 PUSH32 0xFFFFFFFFFFFFFFFFFFFFFFFFFFFFFFFFFFFFFFFFFFFFFFFFFFFFFFFFFFFFFFFF SUB DUP3 GT ISZERO PUSH2 0x2A2A JUMPI PUSH2 0x2A29 PUSH2 0x297C JUMP JUMPDEST JUMPDEST DUP3 DUP3 ADD SWAP1 POP SWAP3 SWAP2 POP POP JUMP JUMPDEST PUSH1 0x0 PUSH2 0x2A40 DUP3 PUSH2 0x203F JUMP JUMPDEST SWAP2 POP PUSH32 0xFFFFFFFFFFFFFFFFFFFFFFFFFFFFFFFFFFFFFFFFFFFFFFFFFFFFFFFFFFFFFFFF DUP3 EQ ISZERO PUSH2 0x2A73 JUMPI PUSH2 0x2A72 PUSH2 0x297C JUMP JUMPDEST JUMPDEST PUSH1 0x1 DUP3 ADD SWAP1 POP SWAP2 SWAP1 POP JUMP JUMPDEST PUSH32 0x5573657220646964206E6F7420766F746520666F722074686973206F7074696F PUSH1 0x0 DUP3 ADD MSTORE PUSH32 0x6E207965742E0000000000000000000000000000000000000000000000000000 PUSH1 0x20 DUP3 ADD MSTORE POP JUMP JUMPDEST PUSH1 0x0 PUSH2 0x2ADA PUSH1 0x26 DUP4 PUSH2 0x219F JUMP JUMPDEST SWAP2 POP PUSH2 0x2AE5 DUP3 PUSH2 0x2A7E JUMP JUMPDEST PUSH1 0x40 DUP3 ADD SWAP1 POP SWAP2 SWAP1 POP JUMP JUMPDEST PUSH1 0x0 PUSH1 0x20 DUP3 ADD SWAP1 POP DUP2 DUP2 SUB PUSH1 0x0 DUP4 ADD MSTORE PUSH2 0x2B09 DUP2 PUSH2 0x2ACD JUMP JUMPDEST SWAP1 POP SWAP2 SWAP1 POP JUMP JUMPDEST PUSH1 0x0 PUSH2 0x2B1B DUP3 PUSH2 0x203F JUMP JUMPDEST SWAP2 POP PUSH1 0x0 DUP3 EQ ISZERO PUSH2 0x2B2F JUMPI PUSH2 0x2B2E PUSH2 0x297C JUMP JUMPDEST JUMPDEST PUSH1 0x1 DUP3 SUB SWAP1 POP SWAP2 SWAP1 POP JUMP JUMPDEST PUSH32 0x556E61626C6520746F2072656D6F766520766F74650000000000000000000000 PUSH1 0x0 DUP3 ADD MSTORE POP JUMP JUMPDEST PUSH1 0x0 PUSH2 0x2B70 PUSH1 0x15 DUP4 PUSH2 0x219F JUMP JUMPDEST SWAP2 POP PUSH2 0x2B7B DUP3 PUSH2 0x2B3A JUMP JUMPDEST PUSH1 0x20 DUP3 ADD SWAP1 POP SWAP2 SWAP1 POP JUMP JUMPDEST PUSH1 0x0 PUSH1 0x20 DUP3 ADD SWAP1 POP DUP2 DUP2 SUB PUSH1 0x0 DUP4 ADD MSTORE PUSH2 0x2B9F DUP2 PUSH2 0x2B63 JUMP JUMPDEST SWAP1 POP SWAP2 SWAP1 POP JUMP JUMPDEST PUSH32 0x4E487B7100000000000000000000000000000000000000000000000000000000 PUSH1 0x0 MSTORE PUSH1 0x22 PUSH1 0x4 MSTORE PUSH1 0x24 PUSH1 0x0 REVERT JUMPDEST PUSH1 0x0 PUSH1 0x2 DUP3 DIV SWAP1 POP PUSH1 0x1 DUP3 AND DUP1 PUSH2 0x2BED JUMPI PUSH1 0x7F DUP3 AND SWAP2 POP JUMPDEST PUSH1 0x20 DUP3 LT DUP2 EQ ISZERO PUSH2 0x2C01 JUMPI PUSH2 0x2C00 PUSH2 0x2BA6 JUMP JUMPDEST JUMPDEST POP SWAP2 SWAP1 POP JUMP JUMPDEST PUSH32 0x4F6E6C79206F776E6572732063616E2063616C6C20746869732066756E637469 PUSH1 0x0 DUP3 ADD MSTORE PUSH32 0x6F6E000000000000000000000000000000000000000000000000000000000000 PUSH1 0x20 DUP3 ADD MSTORE POP JUMP JUMPDEST PUSH1 0x0 PUSH2 0x2C63 PUSH1 0x22 DUP4 PUSH2 0x219F JUMP JUMPDEST SWAP2 POP PUSH2 0x2C6E DUP3 PUSH2 0x2C07 JUMP JUMPDEST PUSH1 0x40 DUP3 ADD SWAP1 POP SWAP2 SWAP1 POP JUMP JUMPDEST PUSH1 0x0 PUSH1 0x20 DUP3 ADD SWAP1 POP DUP2 DUP2 SUB PUSH1 0x0 DUP4 ADD MSTORE PUSH2 0x2C92 DUP2 PUSH2 0x2C56 JUMP JUMPDEST SWAP1 POP SWAP2 SWAP1 POP JUMP JUMPDEST PUSH32 0x506C656173652070726F7669646520776869636820766F74652073686F756C64 PUSH1 0x0 DUP3 ADD MSTORE PUSH32 0x2062652072656D6F766564000000000000000000000000000000000000000000 PUSH1 0x20 DUP3 ADD MSTORE POP JUMP JUMPDEST PUSH1 0x0 PUSH2 0x2CF5 PUSH1 0x2B DUP4 PUSH2 0x219F JUMP JUMPDEST SWAP2 POP PUSH2 0x2D00 DUP3 PUSH2 0x2C99 JUMP JUMPDEST PUSH1 0x40 DUP3 ADD SWAP1 POP SWAP2 SWAP1 POP JUMP JUMPDEST PUSH1 0x0 PUSH1 0x20 DUP3 ADD SWAP1 POP DUP2 DUP2 SUB PUSH1 0x0 DUP4 ADD MSTORE PUSH2 0x2D24 DUP2 PUSH2 0x2CE8 JUMP JUMPDEST SWAP1 POP SWAP2 SWAP1 POP JUMP JUMPDEST PUSH32 0x5573657220616C726561647920766F74656420666F722074686973206F707469 PUSH1 0x0 DUP3 ADD MSTORE PUSH32 0x6F6E000000000000000000000000000000000000000000000000000000000000 PUSH1 0x20 DUP3 ADD MSTORE POP JUMP JUMPDEST PUSH1 0x0 PUSH2 0x2D87 PUSH1 0x22 DUP4 PUSH2 0x219F JUMP JUMPDEST SWAP2 POP PUSH2 0x2D92 DUP3 PUSH2 0x2D2B JUMP JUMPDEST PUSH1 0x40 DUP3 ADD SWAP1 POP SWAP2 SWAP1 POP JUMP JUMPDEST PUSH1 0x0 PUSH1 0x20 DUP3 ADD SWAP1 POP DUP2 DUP2 SUB PUSH1 0x0 DUP4 ADD MSTORE PUSH2 0x2DB6 DUP2 PUSH2 0x2D7A JUMP JUMPDEST SWAP1 POP SWAP2 SWAP1 POP JUMP JUMPDEST PUSH32 0x4F7074696F6E206973206E6F7420616374697665210000000000000000000000 PUSH1 0x0 DUP3 ADD MSTORE POP JUMP JUMPDEST PUSH1 0x0 PUSH2 0x2DF3 PUSH1 0x15 DUP4 PUSH2 0x219F JUMP JUMPDEST SWAP2 POP PUSH2 0x2DFE DUP3 PUSH2 0x2DBD JUMP JUMPDEST PUSH1 0x20 DUP3 ADD SWAP1 POP SWAP2 SWAP1 POP JUMP JUMPDEST PUSH1 0x0 PUSH1 0x20 DUP3 ADD SWAP1 POP DUP2 DUP2 SUB PUSH1 0x0 DUP4 ADD MSTORE PUSH2 0x2E22 DUP2 PUSH2 0x2DE6 JUMP JUMPDEST SWAP1 POP SWAP2 SWAP1 POP JUMP JUMPDEST PUSH32 0x4E6F7420666F756E640000000000000000000000000000000000000000000000 PUSH1 0x0 DUP3 ADD MSTORE POP JUMP JUMPDEST PUSH1 0x0 PUSH2 0x2E5F PUSH1 0x9 DUP4 PUSH2 0x219F JUMP JUMPDEST SWAP2 POP PUSH2 0x2E6A DUP3 PUSH2 0x2E29 JUMP JUMPDEST PUSH1 0x20 DUP3 ADD SWAP1 POP SWAP2 SWAP1 POP JUMP JUMPDEST PUSH1 0x0 PUSH1 0x20 DUP3 ADD SWAP1 POP DUP2 DUP2 SUB PUSH1 0x0 DUP4 ADD MSTORE PUSH2 0x2E8E DUP2 PUSH2 0x2E52 JUMP JUMPDEST SWAP1 POP SWAP2 SWAP1 POP JUMP JUMPDEST PUSH1 0x0 PUSH1 0x60 DUP3 ADD SWAP1 POP PUSH2 0x2EAA PUSH1 0x0 DUP4 ADD DUP7 PUSH2 0x2318 JUMP JUMPDEST PUSH2 0x2EB7 PUSH1 0x20 DUP4 ADD DUP6 PUSH2 0x2318 JUMP JUMPDEST DUP2 DUP2 SUB PUSH1 0x40 DUP4 ADD MSTORE PUSH2 0x2EC9 DUP2 DUP5 PUSH2 0x21F4 JUMP JUMPDEST SWAP1 POP SWAP5 SWAP4 POP POP POP POP JUMP JUMPDEST PUSH32 0x5374617465206E6F74206368616E6765642E204E657720737461746520697320 PUSH1 0x0 DUP3 ADD MSTORE PUSH32 0x7468652073616D65206173206F6C642073746174652100000000000000000000 PUSH1 0x20 DUP3 ADD MSTORE POP JUMP JUMPDEST PUSH1 0x0 PUSH2 0x2F2F PUSH1 0x36 DUP4 PUSH2 0x219F JUMP JUMPDEST SWAP2 POP PUSH2 0x2F3A DUP3 PUSH2 0x2ED3 JUMP JUMPDEST PUSH1 0x40 DUP3 ADD SWAP1 POP SWAP2 SWAP1 POP JUMP JUMPDEST PUSH1 0x0 PUSH1 0x20 DUP3 ADD SWAP1 POP DUP2 DUP2 SUB PUSH1 0x0 DUP4 ADD MSTORE PUSH2 0x2F5E DUP2 PUSH2 0x2F22 JUMP JUMPDEST SWAP1 POP SWAP2 SWAP1 POP JUMP INVALID LOG2 PUSH5 0x6970667358 0x22 SLT KECCAK256 PC 0xAA 0xD7 PUSH22 0x8E7D25AE698E72EBD42BFBF39961975B12C969E8C695 PUSH12 0xD0874E01EB64736F6C634300 ADDMOD 0xC STOP CALLER PUSH1 0x80 PUSH1 0x40 MSTORE CALLVALUE DUP1 ISZERO PUSH2 0x10 JUMPI PUSH1 0x0 DUP1 REVERT JUMPDEST POP PUSH2 0xD38 DUP1 PUSH2 0x20 PUSH1 0x0 CODECOPY PUSH1 0x0 RETURN INVALID PUSH1 0x80 PUSH1 0x40 MSTORE CALLVALUE DUP1 ISZERO PUSH2 0x10 JUMPI PUSH1 0x0 DUP1 REVERT JUMPDEST POP PUSH1 0x4 CALLDATASIZE LT PUSH2 0x4C JUMPI PUSH1 0x0 CALLDATALOAD PUSH1 0xE0 SHR DUP1 PUSH4 0x2C6E7598 EQ PUSH2 0x51 JUMPI DUP1 PUSH4 0x69F9AD2F EQ PUSH2 0x81 JUMPI DUP1 PUSH4 0xEFC6C18C EQ PUSH2 0xB1 JUMPI DUP1 PUSH4 0xFD3BAD52 EQ PUSH2 0xCF JUMPI JUMPDEST PUSH1 0x0 DUP1 REVERT JUMPDEST PUSH2 0x6B PUSH1 0x4 DUP1 CALLDATASIZE SUB DUP2 ADD SWAP1 PUSH2 0x66 SWAP2 SWAP1 PUSH2 0x4DF JUMP JUMPDEST PUSH2 0xFF JUMP JUMPDEST PUSH1 0x40 MLOAD PUSH2 0x78 SWAP2 SWAP1 PUSH2 0x5A5 JUMP JUMPDEST PUSH1 0x40 MLOAD DUP1 SWAP2 SUB SWAP1 RETURN JUMPDEST PUSH2 0x9B PUSH1 0x4 DUP1 CALLDATASIZE SUB DUP2 ADD SWAP1 PUSH2 0x96 SWAP2 SWAP1 PUSH2 0x61F JUMP JUMPDEST PUSH2 0x3A4 JUMP JUMPDEST PUSH1 0x40 MLOAD PUSH2 0xA8 SWAP2 SWAP1 PUSH2 0x65B JUMP JUMPDEST PUSH1 0x40 MLOAD DUP1 SWAP2 SUB SWAP1 RETURN JUMPDEST PUSH2 0xB9 PUSH2 0x3EA JUMP JUMPDEST PUSH1 0x40 MLOAD PUSH2 0xC6 SWAP2 SWAP1 PUSH2 0x68F JUMP JUMPDEST PUSH1 0x40 MLOAD DUP1 SWAP2 SUB SWAP1 RETURN JUMPDEST PUSH2 0xE9 PUSH1 0x4 DUP1 CALLDATASIZE SUB DUP2 ADD SWAP1 PUSH2 0xE4 SWAP2 SWAP1 PUSH2 0x6E0 JUMP JUMPDEST PUSH2 0x43E JUMP JUMPDEST PUSH1 0x40 MLOAD PUSH2 0xF6 SWAP2 SWAP1 PUSH2 0x72F JUMP JUMPDEST PUSH1 0x40 MLOAD DUP1 SWAP2 SUB SWAP1 RETURN JUMPDEST PUSH1 0x60 PUSH1 0x0 PUSH1 0x28 PUSH8 0xFFFFFFFFFFFFFFFF DUP2 GT ISZERO PUSH2 0x11E JUMPI PUSH2 0x11D PUSH2 0x74A JUMP JUMPDEST JUMPDEST PUSH1 0x40 MLOAD SWAP1 DUP1 DUP3 MSTORE DUP1 PUSH1 0x1F ADD PUSH1 0x1F NOT AND PUSH1 0x20 ADD DUP3 ADD PUSH1 0x40 MSTORE DUP1 ISZERO PUSH2 0x150 JUMPI DUP2 PUSH1 0x20 ADD PUSH1 0x1 DUP3 MUL DUP1 CALLDATASIZE DUP4 CALLDATACOPY DUP1 DUP3 ADD SWAP2 POP POP SWAP1 POP JUMPDEST POP SWAP1 POP PUSH1 0x0 JUMPDEST PUSH1 0x14 DUP2 LT ISZERO PUSH2 0x39A JUMPI PUSH1 0x0 DUP2 PUSH1 0x13 PUSH2 0x16E SWAP2 SWAP1 PUSH2 0x7A8 JUMP JUMPDEST PUSH1 0x8 PUSH2 0x17A SWAP2 SWAP1 PUSH2 0x7DC JUMP JUMPDEST PUSH1 0x2 PUSH2 0x186 SWAP2 SWAP1 PUSH2 0x969 JUMP JUMPDEST DUP6 PUSH20 0xFFFFFFFFFFFFFFFFFFFFFFFFFFFFFFFFFFFFFFFF AND PUSH2 0x1A7 SWAP2 SWAP1 PUSH2 0x9E3 JUMP JUMPDEST PUSH1 0xF8 SHL SWAP1 POP PUSH1 0x0 PUSH1 0x10 DUP3 PUSH1 0xF8 SHR PUSH2 0x1BE SWAP2 SWAP1 PUSH2 0xA21 JUMP JUMPDEST PUSH1 0xF8 SHL SWAP1 POP PUSH1 0x0 DUP2 PUSH1 0xF8 SHR PUSH1 0x10 PUSH2 0x1D5 SWAP2 SWAP1 PUSH2 0xA52 JUMP JUMPDEST DUP4 PUSH1 0xF8 SHR PUSH2 0x1E3 SWAP2 SWAP1 PUSH2 0xA8D JUMP JUMPDEST PUSH1 0xF8 SHL SWAP1 POP ADDRESS PUSH20 0xFFFFFFFFFFFFFFFFFFFFFFFFFFFFFFFFFFFFFFFF AND PUSH4 0x69F9AD2F DUP4 PUSH1 0x40 MLOAD DUP3 PUSH4 0xFFFFFFFF AND PUSH1 0xE0 SHL DUP2 MSTORE PUSH1 0x4 ADD PUSH2 0x221 SWAP2 SWAP1 PUSH2 0x65B JUMP JUMPDEST PUSH1 0x20 PUSH1 0x40 MLOAD DUP1 DUP4 SUB DUP2 DUP7 GAS STATICCALL ISZERO DUP1 ISZERO PUSH2 0x23E JUMPI RETURNDATASIZE PUSH1 0x0 DUP1 RETURNDATACOPY RETURNDATASIZE PUSH1 0x0 REVERT JUMPDEST POP POP POP POP PUSH1 0x40 MLOAD RETURNDATASIZE PUSH1 0x1F NOT PUSH1 0x1F DUP3 ADD AND DUP3 ADD DUP1 PUSH1 0x40 MSTORE POP DUP2 ADD SWAP1 PUSH2 0x262 SWAP2 SWAP1 PUSH2 0xAD6 JUMP JUMPDEST DUP6 DUP6 PUSH1 0x2 PUSH2 0x270 SWAP2 SWAP1 PUSH2 0x7DC JUMP JUMPDEST DUP2 MLOAD DUP2 LT PUSH2 0x281 JUMPI PUSH2 0x280 PUSH2 0xB03 JUMP JUMPDEST JUMPDEST PUSH1 0x20 ADD ADD SWAP1 PUSH31 0xFFFFFFFFFFFFFFFFFFFFFFFFFFFFFFFFFFFFFFFFFFFFFFFFFFFFFFFFFFFFFF NOT AND SWAP1 DUP2 PUSH1 0x0 BYTE SWAP1 MSTORE8 POP ADDRESS PUSH20 0xFFFFFFFFFFFFFFFFFFFFFFFFFFFFFFFFFFFFFFFF AND PUSH4 0x69F9AD2F DUP3 PUSH1 0x40 MLOAD DUP3 PUSH4 0xFFFFFFFF AND PUSH1 0xE0 SHL DUP2 MSTORE PUSH1 0x4 ADD PUSH2 0x2E9 SWAP2 SWAP1 PUSH2 0x65B JUMP JUMPDEST PUSH1 0x20 PUSH1 0x40 MLOAD DUP1 DUP4 SUB DUP2 DUP7 GAS STATICCALL ISZERO DUP1 ISZERO PUSH2 0x306 JUMPI RETURNDATASIZE PUSH1 0x0 DUP1 RETURNDATACOPY RETURNDATASIZE PUSH1 0x0 REVERT JUMPDEST POP POP POP POP PUSH1 0x40 MLOAD RETURNDATASIZE PUSH1 0x1F NOT PUSH1 0x1F DUP3 ADD AND DUP3 ADD DUP1 PUSH1 0x40 MSTORE POP DUP2 ADD SWAP1 PUSH2 0x32A SWAP2 SWAP1 PUSH2 0xAD6 JUMP JUMPDEST DUP6 PUSH1 0x1 DUP7 PUSH1 0x2 PUSH2 0x33A SWAP2 SWAP1 PUSH2 0x7DC JUMP JUMPDEST PUSH2 0x344 SWAP2 SWAP1 PUSH2 0xB32 JUMP JUMPDEST DUP2 MLOAD DUP2 LT PUSH2 0x355 JUMPI PUSH2 0x354 PUSH2 0xB03 JUMP JUMPDEST JUMPDEST PUSH1 0x20 ADD ADD SWAP1 PUSH31 0xFFFFFFFFFFFFFFFFFFFFFFFFFFFFFFFFFFFFFFFFFFFFFFFFFFFFFFFFFFFFFF NOT AND SWAP1 DUP2 PUSH1 0x0 BYTE SWAP1 MSTORE8 POP POP POP POP DUP1 DUP1 PUSH2 0x392 SWAP1 PUSH2 0xB88 JUMP JUMPDEST SWAP2 POP POP PUSH2 0x156 JUMP JUMPDEST POP DUP1 SWAP2 POP POP SWAP2 SWAP1 POP JUMP JUMPDEST PUSH1 0x0 PUSH1 0xA DUP3 PUSH1 0xF8 SHR PUSH1 0xFF AND LT ISZERO PUSH2 0x3CF JUMPI PUSH1 0x30 DUP3 PUSH1 0xF8 SHR PUSH2 0x3C5 SWAP2 SWAP1 PUSH2 0xBD1 JUMP JUMPDEST PUSH1 0xF8 SHL SWAP1 POP PUSH2 0x3E5 JUMP JUMPDEST PUSH1 0x57 DUP3 PUSH1 0xF8 SHR PUSH2 0x3DF SWAP2 SWAP1 PUSH2 0xBD1 JUMP JUMPDEST PUSH1 0xF8 SHL SWAP1 POP JUMPDEST SWAP2 SWAP1 POP JUMP JUMPDEST PUSH1 0x0 DUP1 PUSH1 0x0 SWAP1 POP PUSH1 0x0 DUP2 TIMESTAMP DIFFICULTY COINBASE PUSH1 0x40 MLOAD PUSH1 0x20 ADD PUSH2 0x40A SWAP5 SWAP4 SWAP3 SWAP2 SWAP1 PUSH2 0xC83 JUMP JUMPDEST PUSH1 0x40 MLOAD PUSH1 0x20 DUP2 DUP4 SUB SUB DUP2 MSTORE SWAP1 PUSH1 0x40 MSTORE DUP1 MLOAD SWAP1 PUSH1 0x20 ADD KECCAK256 PUSH1 0x0 SHR SWAP1 POP DUP2 DUP1 PUSH2 0x430 SWAP1 PUSH2 0xB88 JUMP JUMPDEST SWAP3 POP POP DUP1 PUSH1 0x0 SHL SWAP3 POP POP POP SWAP1 JUMP JUMPDEST PUSH1 0x0 DUP1 DUP3 DUP5 PUSH2 0x44D SWAP2 SWAP1 PUSH2 0x9E3 JUMP JUMPDEST SWAP1 POP PUSH1 0x0 DUP4 DUP6 PUSH2 0x45D SWAP2 SWAP1 PUSH2 0xCD1 JUMP JUMPDEST EQ PUSH2 0x472 JUMPI PUSH1 0x1 DUP2 PUSH2 0x46F SWAP2 SWAP1 PUSH2 0xB32 JUMP JUMPDEST SWAP1 POP JUMPDEST DUP1 SWAP2 POP POP SWAP3 SWAP2 POP POP JUMP JUMPDEST PUSH1 0x0 DUP1 REVERT JUMPDEST PUSH1 0x0 PUSH20 0xFFFFFFFFFFFFFFFFFFFFFFFFFFFFFFFFFFFFFFFF DUP3 AND SWAP1 POP SWAP2 SWAP1 POP JUMP JUMPDEST PUSH1 0x0 PUSH2 0x4AC DUP3 PUSH2 0x481 JUMP JUMPDEST SWAP1 POP SWAP2 SWAP1 POP JUMP JUMPDEST PUSH2 0x4BC DUP2 PUSH2 0x4A1 JUMP JUMPDEST DUP2 EQ PUSH2 0x4C7 JUMPI PUSH1 0x0 DUP1 REVERT JUMPDEST POP JUMP JUMPDEST PUSH1 0x0 DUP2 CALLDATALOAD SWAP1 POP PUSH2 0x4D9 DUP2 PUSH2 0x4B3 JUMP JUMPDEST SWAP3 SWAP2 POP POP JUMP JUMPDEST PUSH1 0x0 PUSH1 0x20 DUP3 DUP5 SUB SLT ISZERO PUSH2 0x4F5 JUMPI PUSH2 0x4F4 PUSH2 0x47C JUMP JUMPDEST JUMPDEST PUSH1 0x0 PUSH2 0x503 DUP5 DUP3 DUP6 ADD PUSH2 0x4CA JUMP JUMPDEST SWAP2 POP POP SWAP3 SWAP2 POP POP JUMP JUMPDEST PUSH1 0x0 DUP2 MLOAD SWAP1 POP SWAP2 SWAP1 POP JUMP JUMPDEST PUSH1 0x0 DUP3 DUP3 MSTORE PUSH1 0x20 DUP3 ADD SWAP1 POP SWAP3 SWAP2 POP POP JUMP JUMPDEST PUSH1 0x0 JUMPDEST DUP4 DUP2 LT ISZERO PUSH2 0x546 JUMPI DUP1 DUP3 ADD MLOAD DUP2 DUP5 ADD MSTORE PUSH1 0x20 DUP2 ADD SWAP1 POP PUSH2 0x52B JUMP JUMPDEST DUP4 DUP2 GT ISZERO PUSH2 0x555 JUMPI PUSH1 0x0 DUP5 DUP5 ADD MSTORE JUMPDEST POP POP POP POP JUMP JUMPDEST PUSH1 0x0 PUSH1 0x1F NOT PUSH1 0x1F DUP4 ADD AND SWAP1 POP SWAP2 SWAP1 POP JUMP JUMPDEST PUSH1 0x0 PUSH2 0x577 DUP3 PUSH2 0x50C JUMP JUMPDEST PUSH2 0x581 DUP2 DUP6 PUSH2 0x517 JUMP JUMPDEST SWAP4 POP PUSH2 0x591 DUP2 DUP6 PUSH1 0x20 DUP7 ADD PUSH2 0x528 JUMP JUMPDEST PUSH2 0x59A DUP2 PUSH2 0x55B JUMP JUMPDEST DUP5 ADD SWAP2 POP POP SWAP3 SWAP2 POP POP JUMP JUMPDEST PUSH1 0x0 PUSH1 0x20 DUP3 ADD SWAP1 POP DUP2 DUP2 SUB PUSH1 0x0 DUP4 ADD MSTORE PUSH2 0x5BF DUP2 DUP5 PUSH2 0x56C JUMP JUMPDEST SWAP1 POP SWAP3 SWAP2 POP POP JUMP JUMPDEST PUSH1 0x0 PUSH32 0xFF00000000000000000000000000000000000000000000000000000000000000 DUP3 AND SWAP1 POP SWAP2 SWAP1 POP JUMP JUMPDEST PUSH2 0x5FC DUP2 PUSH2 0x5C7 JUMP JUMPDEST DUP2 EQ PUSH2 0x607 JUMPI PUSH1 0x0 DUP1 REVERT JUMPDEST POP JUMP JUMPDEST PUSH1 0x0 DUP2 CALLDATALOAD SWAP1 POP PUSH2 0x619 DUP2 PUSH2 0x5F3 JUMP JUMPDEST SWAP3 SWAP2 POP POP JUMP JUMPDEST PUSH1 0x0 PUSH1 0x20 DUP3 DUP5 SUB SLT ISZERO PUSH2 0x635 JUMPI PUSH2 0x634 PUSH2 0x47C JUMP JUMPDEST JUMPDEST PUSH1 0x0 PUSH2 0x643 DUP5 DUP3 DUP6 ADD PUSH2 0x60A JUMP JUMPDEST SWAP2 POP POP SWAP3 SWAP2 POP POP JUMP JUMPDEST PUSH2 0x655 DUP2 PUSH2 0x5C7 JUMP JUMPDEST DUP3 MSTORE POP POP JUMP JUMPDEST PUSH1 0x0 PUSH1 0x20 DUP3 ADD SWAP1 POP PUSH2 0x670 PUSH1 0x0 DUP4 ADD DUP5 PUSH2 0x64C JUMP JUMPDEST SWAP3 SWAP2 POP POP JUMP JUMPDEST PUSH1 0x0 DUP2 SWAP1 POP SWAP2 SWAP1 POP JUMP JUMPDEST PUSH2 0x689 DUP2 PUSH2 0x676 JUMP JUMPDEST DUP3 MSTORE POP POP JUMP JUMPDEST PUSH1 0x0 PUSH1 0x20 DUP3 ADD SWAP1 POP PUSH2 0x6A4 PUSH1 0x0 DUP4 ADD DUP5 PUSH2 0x680 JUMP JUMPDEST SWAP3 SWAP2 POP POP JUMP JUMPDEST PUSH1 0x0 DUP2 SWAP1 POP SWAP2 SWAP1 POP JUMP JUMPDEST PUSH2 0x6BD DUP2 PUSH2 0x6AA JUMP JUMPDEST DUP2 EQ PUSH2 0x6C8 JUMPI PUSH1 0x0 DUP1 REVERT JUMPDEST POP JUMP JUMPDEST PUSH1 0x0 DUP2 CALLDATALOAD SWAP1 POP PUSH2 0x6DA DUP2 PUSH2 0x6B4 JUMP JUMPDEST SWAP3 SWAP2 POP POP JUMP JUMPDEST PUSH1 0x0 DUP1 PUSH1 0x40 DUP4 DUP6 SUB SLT ISZERO PUSH2 0x6F7 JUMPI PUSH2 0x6F6 PUSH2 0x47C JUMP JUMPDEST JUMPDEST PUSH1 0x0 PUSH2 0x705 DUP6 DUP3 DUP7 ADD PUSH2 0x6CB JUMP JUMPDEST SWAP3 POP POP PUSH1 0x20 PUSH2 0x716 DUP6 DUP3 DUP7 ADD PUSH2 0x6CB JUMP JUMPDEST SWAP2 POP POP SWAP3 POP SWAP3 SWAP1 POP JUMP JUMPDEST PUSH2 0x729 DUP2 PUSH2 0x6AA JUMP JUMPDEST DUP3 MSTORE POP POP JUMP JUMPDEST PUSH1 0x0 PUSH1 0x20 DUP3 ADD SWAP1 POP PUSH2 0x744 PUSH1 0x0 DUP4 ADD DUP5 PUSH2 0x720 JUMP JUMPDEST SWAP3 SWAP2 POP POP JUMP JUMPDEST PUSH32 0x4E487B7100000000000000000000000000000000000000000000000000000000 PUSH1 0x0 MSTORE PUSH1 0x41 PUSH1 0x4 MSTORE PUSH1 0x24 PUSH1 0x0 REVERT JUMPDEST PUSH32 0x4E487B7100000000000000000000000000000000000000000000000000000000 PUSH1 0x0 MSTORE PUSH1 0x11 PUSH1 0x4 MSTORE PUSH1 0x24 PUSH1 0x0 REVERT JUMPDEST PUSH1 0x0 PUSH2 0x7B3 DUP3 PUSH2 0x6AA JUMP JUMPDEST SWAP2 POP PUSH2 0x7BE DUP4 PUSH2 0x6AA JUMP JUMPDEST SWAP3 POP DUP3 DUP3 LT ISZERO PUSH2 0x7D1 JUMPI PUSH2 0x7D0 PUSH2 0x779 JUMP JUMPDEST JUMPDEST DUP3 DUP3 SUB SWAP1 POP SWAP3 SWAP2 POP POP JUMP JUMPDEST PUSH1 0x0 PUSH2 0x7E7 DUP3 PUSH2 0x6AA JUMP JUMPDEST SWAP2 POP PUSH2 0x7F2 DUP4 PUSH2 0x6AA JUMP JUMPDEST SWAP3 POP DUP2 PUSH32 0xFFFFFFFFFFFFFFFFFFFFFFFFFFFFFFFFFFFFFFFFFFFFFFFFFFFFFFFFFFFFFFFF DIV DUP4 GT DUP3 ISZERO ISZERO AND ISZERO PUSH2 0x82B JUMPI PUSH2 0x82A PUSH2 0x779 JUMP JUMPDEST JUMPDEST DUP3 DUP3 MUL SWAP1 POP SWAP3 SWAP2 POP POP JUMP JUMPDEST PUSH1 0x0 DUP2 PUSH1 0x1 SHR SWAP1 POP SWAP2 SWAP1 POP JUMP JUMPDEST PUSH1 0x0 DUP1 DUP3 SWAP2 POP DUP4 SWAP1 POP JUMPDEST PUSH1 0x1 DUP6 GT ISZERO PUSH2 0x88D JUMPI DUP1 DUP7 DIV DUP2 GT ISZERO PUSH2 0x869 JUMPI PUSH2 0x868 PUSH2 0x779 JUMP JUMPDEST JUMPDEST PUSH1 0x1 DUP6 AND ISZERO PUSH2 0x878 JUMPI DUP1 DUP3 MUL SWAP2 POP JUMPDEST DUP1 DUP2 MUL SWAP1 POP PUSH2 0x886 DUP6 PUSH2 0x836 JUMP JUMPDEST SWAP5 POP PUSH2 0x84D JUMP JUMPDEST SWAP5 POP SWAP5 SWAP3 POP POP POP JUMP JUMPDEST PUSH1 0x0 DUP3 PUSH2 0x8A6 JUMPI PUSH1 0x1 SWAP1 POP PUSH2 0x962 JUMP JUMPDEST DUP2 PUSH2 0x8B4 JUMPI PUSH1 0x0 SWAP1 POP PUSH2 0x962 JUMP JUMPDEST DUP2 PUSH1 0x1 DUP2 EQ PUSH2 0x8CA JUMPI PUSH1 0x2 DUP2 EQ PUSH2 0x8D4 JUMPI PUSH2 0x903 JUMP JUMPDEST PUSH1 0x1 SWAP2 POP POP PUSH2 0x962 JUMP JUMPDEST PUSH1 0xFF DUP5 GT ISZERO PUSH2 0x8E6 JUMPI PUSH2 0x8E5 PUSH2 0x779 JUMP JUMPDEST JUMPDEST DUP4 PUSH1 0x2 EXP SWAP2 POP DUP5 DUP3 GT ISZERO PUSH2 0x8FD JUMPI PUSH2 0x8FC PUSH2 0x779 JUMP JUMPDEST JUMPDEST POP PUSH2 0x962 JUMP JUMPDEST POP PUSH1 0x20 DUP4 LT PUSH2 0x133 DUP4 LT AND PUSH1 0x4E DUP5 LT PUSH1 0xB DUP5 LT AND OR ISZERO PUSH2 0x938 JUMPI DUP3 DUP3 EXP SWAP1 POP DUP4 DUP2 GT ISZERO PUSH2 0x933 JUMPI PUSH2 0x932 PUSH2 0x779 JUMP JUMPDEST JUMPDEST PUSH2 0x962 JUMP JUMPDEST PUSH2 0x945 DUP5 DUP5 DUP5 PUSH1 0x1 PUSH2 0x843 JUMP JUMPDEST SWAP3 POP SWAP1 POP DUP2 DUP5 DIV DUP2 GT ISZERO PUSH2 0x95C JUMPI PUSH2 0x95B PUSH2 0x779 JUMP JUMPDEST JUMPDEST DUP2 DUP2 MUL SWAP1 POP JUMPDEST SWAP4 SWAP3 POP POP POP JUMP JUMPDEST PUSH1 0x0 PUSH2 0x974 DUP3 PUSH2 0x6AA JUMP JUMPDEST SWAP2 POP PUSH2 0x97F DUP4 PUSH2 0x6AA JUMP JUMPDEST SWAP3 POP PUSH2 0x9AC PUSH32 0xFFFFFFFFFFFFFFFFFFFFFFFFFFFFFFFFFFFFFFFFFFFFFFFFFFFFFFFFFFFFFFFF DUP5 DUP5 PUSH2 0x896 JUMP JUMPDEST SWAP1 POP SWAP3 SWAP2 POP POP JUMP JUMPDEST PUSH32 0x4E487B7100000000000000000000000000000000000000000000000000000000 PUSH1 0x0 MSTORE PUSH1 0x12 PUSH1 0x4 MSTORE PUSH1 0x24 PUSH1 0x0 REVERT JUMPDEST PUSH1 0x0 PUSH2 0x9EE DUP3 PUSH2 0x6AA JUMP JUMPDEST SWAP2 POP PUSH2 0x9F9 DUP4 PUSH2 0x6AA JUMP JUMPDEST SWAP3 POP DUP3 PUSH2 0xA09 JUMPI PUSH2 0xA08 PUSH2 0x9B4 JUMP JUMPDEST JUMPDEST DUP3 DUP3 DIV SWAP1 POP SWAP3 SWAP2 POP POP JUMP JUMPDEST PUSH1 0x0 PUSH1 0xFF DUP3 AND SWAP1 POP SWAP2 SWAP1 POP JUMP JUMPDEST PUSH1 0x0 PUSH2 0xA2C DUP3 PUSH2 0xA14 JUMP JUMPDEST SWAP2 POP PUSH2 0xA37 DUP4 PUSH2 0xA14 JUMP JUMPDEST SWAP3 POP DUP3 PUSH2 0xA47 JUMPI PUSH2 0xA46 PUSH2 0x9B4 JUMP JUMPDEST JUMPDEST DUP3 DUP3 DIV SWAP1 POP SWAP3 SWAP2 POP POP JUMP JUMPDEST PUSH1 0x0 PUSH2 0xA5D DUP3 PUSH2 0xA14 JUMP JUMPDEST SWAP2 POP PUSH2 0xA68 DUP4 PUSH2 0xA14 JUMP JUMPDEST SWAP3 POP DUP2 PUSH1 0xFF DIV DUP4 GT DUP3 ISZERO ISZERO AND ISZERO PUSH2 0xA82 JUMPI PUSH2 0xA81 PUSH2 0x779 JUMP JUMPDEST JUMPDEST DUP3 DUP3 MUL SWAP1 POP SWAP3 SWAP2 POP POP JUMP JUMPDEST PUSH1 0x0 PUSH2 0xA98 DUP3 PUSH2 0xA14 JUMP JUMPDEST SWAP2 POP PUSH2 0xAA3 DUP4 PUSH2 0xA14 JUMP JUMPDEST SWAP3 POP DUP3 DUP3 LT ISZERO PUSH2 0xAB6 JUMPI PUSH2 0xAB5 PUSH2 0x779 JUMP JUMPDEST JUMPDEST DUP3 DUP3 SUB SWAP1 POP SWAP3 SWAP2 POP POP JUMP JUMPDEST PUSH1 0x0 DUP2 MLOAD SWAP1 POP PUSH2 0xAD0 DUP2 PUSH2 0x5F3 JUMP JUMPDEST SWAP3 SWAP2 POP POP JUMP JUMPDEST PUSH1 0x0 PUSH1 0x20 DUP3 DUP5 SUB SLT ISZERO PUSH2 0xAEC JUMPI PUSH2 0xAEB PUSH2 0x47C JUMP JUMPDEST JUMPDEST PUSH1 0x0 PUSH2 0xAFA DUP5 DUP3 DUP6 ADD PUSH2 0xAC1 JUMP JUMPDEST SWAP2 POP POP SWAP3 SWAP2 POP POP JUMP JUMPDEST PUSH32 0x4E487B7100000000000000000000000000000000000000000000000000000000 PUSH1 0x0 MSTORE PUSH1 0x32 PUSH1 0x4 MSTORE PUSH1 0x24 PUSH1 0x0 REVERT JUMPDEST PUSH1 0x0 PUSH2 0xB3D DUP3 PUSH2 0x6AA JUMP JUMPDEST SWAP2 POP PUSH2 0xB48 DUP4 PUSH2 0x6AA JUMP JUMPDEST SWAP3 POP DUP3 PUSH32 0xFFFFFFFFFFFFFFFFFFFFFFFFFFFFFFFFFFFFFFFFFFFFFFFFFFFFFFFFFFFFFFFF SUB DUP3 GT ISZERO PUSH2 0xB7D JUMPI PUSH2 0xB7C PUSH2 0x779 JUMP JUMPDEST JUMPDEST DUP3 DUP3 ADD SWAP1 POP SWAP3 SWAP2 POP POP JUMP JUMPDEST PUSH1 0x0 PUSH2 0xB93 DUP3 PUSH2 0x6AA JUMP JUMPDEST SWAP2 POP PUSH32 0xFFFFFFFFFFFFFFFFFFFFFFFFFFFFFFFFFFFFFFFFFFFFFFFFFFFFFFFFFFFFFFFF DUP3 EQ ISZERO PUSH2 0xBC6 JUMPI PUSH2 0xBC5 PUSH2 0x779 JUMP JUMPDEST JUMPDEST PUSH1 0x1 DUP3 ADD SWAP1 POP SWAP2 SWAP1 POP JUMP JUMPDEST PUSH1 0x0 PUSH2 0xBDC DUP3 PUSH2 0xA14 JUMP JUMPDEST SWAP2 POP PUSH2 0xBE7 DUP4 PUSH2 0xA14 JUMP JUMPDEST SWAP3 POP DUP3 PUSH1 0xFF SUB DUP3 GT ISZERO PUSH2 0xBFD JUMPI PUSH2 0xBFC PUSH2 0x779 JUMP JUMPDEST JUMPDEST DUP3 DUP3 ADD SWAP1 POP SWAP3 SWAP2 POP POP JUMP JUMPDEST PUSH1 0x0 DUP2 SWAP1 POP SWAP2 SWAP1 POP JUMP JUMPDEST PUSH2 0xC23 PUSH2 0xC1E DUP3 PUSH2 0x6AA JUMP JUMPDEST PUSH2 0xC08 JUMP JUMPDEST DUP3 MSTORE POP POP JUMP JUMPDEST PUSH1 0x0 PUSH2 0xC34 DUP3 PUSH2 0x481 JUMP JUMPDEST SWAP1 POP SWAP2 SWAP1 POP JUMP JUMPDEST PUSH1 0x0 DUP2 PUSH1 0x60 SHL SWAP1 POP SWAP2 SWAP1 POP JUMP JUMPDEST PUSH1 0x0 PUSH2 0xC53 DUP3 PUSH2 0xC3B JUMP JUMPDEST SWAP1 POP SWAP2 SWAP1 POP JUMP JUMPDEST PUSH1 0x0 PUSH2 0xC65 DUP3 PUSH2 0xC48 JUMP JUMPDEST SWAP1 POP SWAP2 SWAP1 POP JUMP JUMPDEST PUSH2 0xC7D PUSH2 0xC78 DUP3 PUSH2 0xC29 JUMP JUMPDEST PUSH2 0xC5A JUMP JUMPDEST DUP3 MSTORE POP POP JUMP JUMPDEST PUSH1 0x0 PUSH2 0xC8F DUP3 DUP8 PUSH2 0xC12 JUMP JUMPDEST PUSH1 0x20 DUP3 ADD SWAP2 POP PUSH2 0xC9F DUP3 DUP7 PUSH2 0xC12 JUMP JUMPDEST PUSH1 0x20 DUP3 ADD SWAP2 POP PUSH2 0xCAF DUP3 DUP6 PUSH2 0xC12 JUMP JUMPDEST PUSH1 0x20 DUP3 ADD SWAP2 POP PUSH2 0xCBF DUP3 DUP5 PUSH2 0xC6C JUMP JUMPDEST PUSH1 0x14 DUP3 ADD SWAP2 POP DUP2 SWAP1 POP SWAP6 SWAP5 POP POP POP POP POP JUMP JUMPDEST PUSH1 0x0 PUSH2 0xCDC DUP3 PUSH2 0x6AA JUMP JUMPDEST SWAP2 POP PUSH2 0xCE7 DUP4 PUSH2 0x6AA JUMP JUMPDEST SWAP3 POP DUP3 PUSH2 0xCF7 JUMPI PUSH2 0xCF6 PUSH2 0x9B4 JUMP JUMPDEST JUMPDEST DUP3 DUP3 MOD SWAP1 POP SWAP3 SWAP2 POP POP JUMP INVALID LOG2 PUSH5 0x6970667358 0x22 SLT KECCAK256 0xAF 0xDA 0xBD 0xB3 0x2A PUSH32 0xCE47C4C67B84DD14C00DDD90189C2E876036D806ED9AE30BF64264736F6C6343 STOP ADDMOD 0xC STOP CALLER PUSH1 0x80 PUSH1 0x40 MSTORE CALLVALUE DUP1 ISZERO PUSH2 0x10 JUMPI PUSH1 0x0 DUP1 REVERT JUMPDEST POP PUSH2 0xD38 DUP1 PUSH2 0x20 PUSH1 0x0 CODECOPY PUSH1 0x0 RETURN INVALID PUSH1 0x80 PUSH1 0x40 MSTORE CALLVALUE DUP1 ISZERO PUSH2 0x10 JUMPI PUSH1 0x0 DUP1 REVERT JUMPDEST POP PUSH1 0x4 CALLDATASIZE LT PUSH2 0x4C JUMPI PUSH1 0x0 CALLDATALOAD PUSH1 0xE0 SHR DUP1 PUSH4 0x2C6E7598 EQ PUSH2 0x51 JUMPI DUP1 PUSH4 0x69F9AD2F EQ PUSH2 0x81 JUMPI DUP1 PUSH4 0xEFC6C18C EQ PUSH2 0xB1 JUMPI DUP1 PUSH4 0xFD3BAD52 EQ PUSH2 0xCF JUMPI JUMPDEST PUSH1 0x0 DUP1 REVERT JUMPDEST PUSH2 0x6B PUSH1 0x4 DUP1 CALLDATASIZE SUB DUP2 ADD SWAP1 PUSH2 0x66 SWAP2 SWAP1 PUSH2 0x4DF JUMP JUMPDEST PUSH2 0xFF JUMP JUMPDEST PUSH1 0x40 MLOAD PUSH2 0x78 SWAP2 SWAP1 PUSH2 0x5A5 JUMP JUMPDEST PUSH1 0x40 MLOAD DUP1 SWAP2 SUB SWAP1 RETURN JUMPDEST PUSH2 0x9B PUSH1 0x4 DUP1 CALLDATASIZE SUB DUP2 ADD SWAP1 PUSH2 0x96 SWAP2 SWAP1 PUSH2 0x61F JUMP JUMPDEST PUSH2 0x3A4 JUMP JUMPDEST PUSH1 0x40 MLOAD PUSH2 0xA8 SWAP2 SWAP1 PUSH2 0x65B JUMP JUMPDEST PUSH1 0x40 MLOAD DUP1 SWAP2 SUB SWAP1 RETURN JUMPDEST PUSH2 0xB9 PUSH2 0x3EA JUMP JUMPDEST PUSH1 0x40 MLOAD PUSH2 0xC6 SWAP2 SWAP1 PUSH2 0x68F JUMP JUMPDEST PUSH1 0x40 MLOAD DUP1 SWAP2 SUB SWAP1 RETURN JUMPDEST PUSH2 0xE9 PUSH1 0x4 DUP1 CALLDATASIZE SUB DUP2 ADD SWAP1 PUSH2 0xE4 SWAP2 SWAP1 PUSH2 0x6E0 JUMP JUMPDEST PUSH2 0x43E JUMP JUMPDEST PUSH1 0x40 MLOAD PUSH2 0xF6 SWAP2 SWAP1 PUSH2 0x72F JUMP JUMPDEST PUSH1 0x40 MLOAD DUP1 SWAP2 SUB SWAP1 RETURN JUMPDEST PUSH1 0x60 PUSH1 0x0 PUSH1 0x28 PUSH8 0xFFFFFFFFFFFFFFFF DUP2 GT ISZERO PUSH2 0x11E JUMPI PUSH2 0x11D PUSH2 0x74A JUMP JUMPDEST JUMPDEST PUSH1 0x40 MLOAD SWAP1 DUP1 DUP3 MSTORE DUP1 PUSH1 0x1F ADD PUSH1 0x1F NOT AND PUSH1 0x20 ADD DUP3 ADD PUSH1 0x40 MSTORE DUP1 ISZERO PUSH2 0x150 JUMPI DUP2 PUSH1 0x20 ADD PUSH1 0x1 DUP3 MUL DUP1 CALLDATASIZE DUP4 CALLDATACOPY DUP1 DUP3 ADD SWAP2 POP POP SWAP1 POP JUMPDEST POP SWAP1 POP PUSH1 0x0 JUMPDEST PUSH1 0x14 DUP2 LT ISZERO PUSH2 0x39A JUMPI PUSH1 0x0 DUP2 PUSH1 0x13 PUSH2 0x16E SWAP2 SWAP1 PUSH2 0x7A8 JUMP JUMPDEST PUSH1 0x8 PUSH2 0x17A SWAP2 SWAP1 PUSH2 0x7DC JUMP JUMPDEST PUSH1 0x2 PUSH2 0x186 SWAP2 SWAP1 PUSH2 0x969 JUMP JUMPDEST DUP6 PUSH20 0xFFFFFFFFFFFFFFFFFFFFFFFFFFFFFFFFFFFFFFFF AND PUSH2 0x1A7 SWAP2 SWAP1 PUSH2 0x9E3 JUMP JUMPDEST PUSH1 0xF8 SHL SWAP1 POP PUSH1 0x0 PUSH1 0x10 DUP3 PUSH1 0xF8 SHR PUSH2 0x1BE SWAP2 SWAP1 PUSH2 0xA21 JUMP JUMPDEST PUSH1 0xF8 SHL SWAP1 POP PUSH1 0x0 DUP2 PUSH1 0xF8 SHR PUSH1 0x10 PUSH2 0x1D5 SWAP2 SWAP1 PUSH2 0xA52 JUMP JUMPDEST DUP4 PUSH1 0xF8 SHR PUSH2 0x1E3 SWAP2 SWAP1 PUSH2 0xA8D JUMP JUMPDEST PUSH1 0xF8 SHL SWAP1 POP ADDRESS PUSH20 0xFFFFFFFFFFFFFFFFFFFFFFFFFFFFFFFFFFFFFFFF AND PUSH4 0x69F9AD2F DUP4 PUSH1 0x40 MLOAD DUP3 PUSH4 0xFFFFFFFF AND PUSH1 0xE0 SHL DUP2 MSTORE PUSH1 0x4 ADD PUSH2 0x221 SWAP2 SWAP1 PUSH2 0x65B JUMP JUMPDEST PUSH1 0x20 PUSH1 0x40 MLOAD DUP1 DUP4 SUB DUP2 DUP7 GAS STATICCALL ISZERO DUP1 ISZERO PUSH2 0x23E JUMPI RETURNDATASIZE PUSH1 0x0 DUP1 RETURNDATACOPY RETURNDATASIZE PUSH1 0x0 REVERT JUMPDEST POP POP POP POP PUSH1 0x40 MLOAD RETURNDATASIZE PUSH1 0x1F NOT PUSH1 0x1F DUP3 ADD AND DUP3 ADD DUP1 PUSH1 0x40 MSTORE POP DUP2 ADD SWAP1 PUSH2 0x262 SWAP2 SWAP1 PUSH2 0xAD6 JUMP JUMPDEST DUP6 DUP6 PUSH1 0x2 PUSH2 0x270 SWAP2 SWAP1 PUSH2 0x7DC JUMP JUMPDEST DUP2 MLOAD DUP2 LT PUSH2 0x281 JUMPI PUSH2 0x280 PUSH2 0xB03 JUMP JUMPDEST JUMPDEST PUSH1 0x20 ADD ADD SWAP1 PUSH31 0xFFFFFFFFFFFFFFFFFFFFFFFFFFFFFFFFFFFFFFFFFFFFFFFFFFFFFFFFFFFFFF NOT AND SWAP1 DUP2 PUSH1 0x0 BYTE SWAP1 MSTORE8 POP ADDRESS PUSH20 0xFFFFFFFFFFFFFFFFFFFFFFFFFFFFFFFFFFFFFFFF AND PUSH4 0x69F9AD2F DUP3 PUSH1 0x40 MLOAD DUP3 PUSH4 0xFFFFFFFF AND PUSH1 0xE0 SHL DUP2 MSTORE PUSH1 0x4 ADD PUSH2 0x2E9 SWAP2 SWAP1 PUSH2 0x65B JUMP JUMPDEST PUSH1 0x20 PUSH1 0x40 MLOAD DUP1 DUP4 SUB DUP2 DUP7 GAS STATICCALL ISZERO DUP1 ISZERO PUSH2 0x306 JUMPI RETURNDATASIZE PUSH1 0x0 DUP1 RETURNDATACOPY RETURNDATASIZE PUSH1 0x0 REVERT JUMPDEST POP POP POP POP PUSH1 0x40 MLOAD RETURNDATASIZE PUSH1 0x1F NOT PUSH1 0x1F DUP3 ADD AND DUP3 ADD DUP1 PUSH1 0x40 MSTORE POP DUP2 ADD SWAP1 PUSH2 0x32A SWAP2 SWAP1 PUSH2 0xAD6 JUMP JUMPDEST DUP6 PUSH1 0x1 DUP7 PUSH1 0x2 PUSH2 0x33A SWAP2 SWAP1 PUSH2 0x7DC JUMP JUMPDEST PUSH2 0x344 SWAP2 SWAP1 PUSH2 0xB32 JUMP JUMPDEST DUP2 MLOAD DUP2 LT PUSH2 0x355 JUMPI PUSH2 0x354 PUSH2 0xB03 JUMP JUMPDEST JUMPDEST PUSH1 0x20 ADD ADD SWAP1 PUSH31 0xFFFFFFFFFFFFFFFFFFFFFFFFFFFFFFFFFFFFFFFFFFFFFFFFFFFFFFFFFFFFFF NOT AND SWAP1 DUP2 PUSH1 0x0 BYTE SWAP1 MSTORE8 POP POP POP POP DUP1 DUP1 PUSH2 0x392 SWAP1 PUSH2 0xB88 JUMP JUMPDEST SWAP2 POP POP PUSH2 0x156 JUMP JUMPDEST POP DUP1 SWAP2 POP POP SWAP2 SWAP1 POP JUMP JUMPDEST PUSH1 0x0 PUSH1 0xA DUP3 PUSH1 0xF8 SHR PUSH1 0xFF AND LT ISZERO PUSH2 0x3CF JUMPI PUSH1 0x30 DUP3 PUSH1 0xF8 SHR PUSH2 0x3C5 SWAP2 SWAP1 PUSH2 0xBD1 JUMP JUMPDEST PUSH1 0xF8 SHL SWAP1 POP PUSH2 0x3E5 JUMP JUMPDEST PUSH1 0x57 DUP3 PUSH1 0xF8 SHR PUSH2 0x3DF SWAP2 SWAP1 PUSH2 0xBD1 JUMP JUMPDEST PUSH1 0xF8 SHL SWAP1 POP JUMPDEST SWAP2 SWAP1 POP JUMP JUMPDEST PUSH1 0x0 DUP1 PUSH1 0x0 SWAP1 POP PUSH1 0x0 DUP2 TIMESTAMP DIFFICULTY COINBASE PUSH1 0x40 MLOAD PUSH1 0x20 ADD PUSH2 0x40A SWAP5 SWAP4 SWAP3 SWAP2 SWAP1 PUSH2 0xC83 JUMP JUMPDEST PUSH1 0x40 MLOAD PUSH1 0x20 DUP2 DUP4 SUB SUB DUP2 MSTORE SWAP1 PUSH1 0x40 MSTORE DUP1 MLOAD SWAP1 PUSH1 0x20 ADD KECCAK256 PUSH1 0x0 SHR SWAP1 POP DUP2 DUP1 PUSH2 0x430 SWAP1 PUSH2 0xB88 JUMP JUMPDEST SWAP3 POP POP DUP1 PUSH1 0x0 SHL SWAP3 POP POP POP SWAP1 JUMP JUMPDEST PUSH1 0x0 DUP1 DUP3 DUP5 PUSH2 0x44D SWAP2 SWAP1 PUSH2 0x9E3 JUMP JUMPDEST SWAP1 POP PUSH1 0x0 DUP4 DUP6 PUSH2 0x45D SWAP2 SWAP1 PUSH2 0xCD1 JUMP JUMPDEST EQ PUSH2 0x472 JUMPI PUSH1 0x1 DUP2 PUSH2 0x46F SWAP2 SWAP1 PUSH2 0xB32 JUMP JUMPDEST SWAP1 POP JUMPDEST DUP1 SWAP2 POP POP SWAP3 SWAP2 POP POP JUMP JUMPDEST PUSH1 0x0 DUP1 REVERT JUMPDEST PUSH1 0x0 PUSH20 0xFFFFFFFFFFFFFFFFFFFFFFFFFFFFFFFFFFFFFFFF DUP3 AND SWAP1 POP SWAP2 SWAP1 POP JUMP JUMPDEST PUSH1 0x0 PUSH2 0x4AC DUP3 PUSH2 0x481 JUMP JUMPDEST SWAP1 POP SWAP2 SWAP1 POP JUMP JUMPDEST PUSH2 0x4BC DUP2 PUSH2 0x4A1 JUMP JUMPDEST DUP2 EQ PUSH2 0x4C7 JUMPI PUSH1 0x0 DUP1 REVERT JUMPDEST POP JUMP JUMPDEST PUSH1 0x0 DUP2 CALLDATALOAD SWAP1 POP PUSH2 0x4D9 DUP2 PUSH2 0x4B3 JUMP JUMPDEST SWAP3 SWAP2 POP POP JUMP JUMPDEST PUSH1 0x0 PUSH1 0x20 DUP3 DUP5 SUB SLT ISZERO PUSH2 0x4F5 JUMPI PUSH2 0x4F4 PUSH2 0x47C JUMP JUMPDEST JUMPDEST PUSH1 0x0 PUSH2 0x503 DUP5 DUP3 DUP6 ADD PUSH2 0x4CA JUMP JUMPDEST SWAP2 POP POP SWAP3 SWAP2 POP POP JUMP JUMPDEST PUSH1 0x0 DUP2 MLOAD SWAP1 POP SWAP2 SWAP1 POP JUMP JUMPDEST PUSH1 0x0 DUP3 DUP3 MSTORE PUSH1 0x20 DUP3 ADD SWAP1 POP SWAP3 SWAP2 POP POP JUMP JUMPDEST PUSH1 0x0 JUMPDEST DUP4 DUP2 LT ISZERO PUSH2 0x546 JUMPI DUP1 DUP3 ADD MLOAD DUP2 DUP5 ADD MSTORE PUSH1 0x20 DUP2 ADD SWAP1 POP PUSH2 0x52B JUMP JUMPDEST DUP4 DUP2 GT ISZERO PUSH2 0x555 JUMPI PUSH1 0x0 DUP5 DUP5 ADD MSTORE JUMPDEST POP POP POP POP JUMP JUMPDEST PUSH1 0x0 PUSH1 0x1F NOT PUSH1 0x1F DUP4 ADD AND SWAP1 POP SWAP2 SWAP1 POP JUMP JUMPDEST PUSH1 0x0 PUSH2 0x577 DUP3 PUSH2 0x50C JUMP JUMPDEST PUSH2 0x581 DUP2 DUP6 PUSH2 0x517 JUMP JUMPDEST SWAP4 POP PUSH2 0x591 DUP2 DUP6 PUSH1 0x20 DUP7 ADD PUSH2 0x528 JUMP JUMPDEST PUSH2 0x59A DUP2 PUSH2 0x55B JUMP JUMPDEST DUP5 ADD SWAP2 POP POP SWAP3 SWAP2 POP POP JUMP JUMPDEST PUSH1 0x0 PUSH1 0x20 DUP3 ADD SWAP1 POP DUP2 DUP2 SUB PUSH1 0x0 DUP4 ADD MSTORE PUSH2 0x5BF DUP2 DUP5 PUSH2 0x56C JUMP JUMPDEST SWAP1 POP SWAP3 SWAP2 POP POP JUMP JUMPDEST PUSH1 0x0 PUSH32 0xFF00000000000000000000000000000000000000000000000000000000000000 DUP3 AND SWAP1 POP SWAP2 SWAP1 POP JUMP JUMPDEST PUSH2 0x5FC DUP2 PUSH2 0x5C7 JUMP JUMPDEST DUP2 EQ PUSH2 0x607 JUMPI PUSH1 0x0 DUP1 REVERT JUMPDEST POP JUMP JUMPDEST PUSH1 0x0 DUP2 CALLDATALOAD SWAP1 POP PUSH2 0x619 DUP2 PUSH2 0x5F3 JUMP JUMPDEST SWAP3 SWAP2 POP POP JUMP JUMPDEST PUSH1 0x0 PUSH1 0x20 DUP3 DUP5 SUB SLT ISZERO PUSH2 0x635 JUMPI PUSH2 0x634 PUSH2 0x47C JUMP JUMPDEST JUMPDEST PUSH1 0x0 PUSH2 0x643 DUP5 DUP3 DUP6 ADD PUSH2 0x60A JUMP JUMPDEST SWAP2 POP POP SWAP3 SWAP2 POP POP JUMP JUMPDEST PUSH2 0x655 DUP2 PUSH2 0x5C7 JUMP JUMPDEST DUP3 MSTORE POP POP JUMP JUMPDEST PUSH1 0x0 PUSH1 0x20 DUP3 ADD SWAP1 POP PUSH2 0x670 PUSH1 0x0 DUP4 ADD DUP5 PUSH2 0x64C JUMP JUMPDEST SWAP3 SWAP2 POP POP JUMP JUMPDEST PUSH1 0x0 DUP2 SWAP1 POP SWAP2 SWAP1 POP JUMP JUMPDEST PUSH2 0x689 DUP2 PUSH2 0x676 JUMP JUMPDEST DUP3 MSTORE POP POP JUMP JUMPDEST PUSH1 0x0 PUSH1 0x20 DUP3 ADD SWAP1 POP PUSH2 0x6A4 PUSH1 0x0 DUP4 ADD DUP5 PUSH2 0x680 JUMP JUMPDEST SWAP3 SWAP2 POP POP JUMP JUMPDEST PUSH1 0x0 DUP2 SWAP1 POP SWAP2 SWAP1 POP JUMP JUMPDEST PUSH2 0x6BD DUP2 PUSH2 0x6AA JUMP JUMPDEST DUP2 EQ PUSH2 0x6C8 JUMPI PUSH1 0x0 DUP1 REVERT JUMPDEST POP JUMP JUMPDEST PUSH1 0x0 DUP2 CALLDATALOAD SWAP1 POP PUSH2 0x6DA DUP2 PUSH2 0x6B4 JUMP JUMPDEST SWAP3 SWAP2 POP POP JUMP JUMPDEST PUSH1 0x0 DUP1 PUSH1 0x40 DUP4 DUP6 SUB SLT ISZERO PUSH2 0x6F7 JUMPI PUSH2 0x6F6 PUSH2 0x47C JUMP JUMPDEST JUMPDEST PUSH1 0x0 PUSH2 0x705 DUP6 DUP3 DUP7 ADD PUSH2 0x6CB JUMP JUMPDEST SWAP3 POP POP PUSH1 0x20 PUSH2 0x716 DUP6 DUP3 DUP7 ADD PUSH2 0x6CB JUMP JUMPDEST SWAP2 POP POP SWAP3 POP SWAP3 SWAP1 POP JUMP JUMPDEST PUSH2 0x729 DUP2 PUSH2 0x6AA JUMP JUMPDEST DUP3 MSTORE POP POP JUMP JUMPDEST PUSH1 0x0 PUSH1 0x20 DUP3 ADD SWAP1 POP PUSH2 0x744 PUSH1 0x0 DUP4 ADD DUP5 PUSH2 0x720 JUMP JUMPDEST SWAP3 SWAP2 POP POP JUMP JUMPDEST PUSH32 0x4E487B7100000000000000000000000000000000000000000000000000000000 PUSH1 0x0 MSTORE PUSH1 0x41 PUSH1 0x4 MSTORE PUSH1 0x24 PUSH1 0x0 REVERT JUMPDEST PUSH32 0x4E487B7100000000000000000000000000000000000000000000000000000000 PUSH1 0x0 MSTORE PUSH1 0x11 PUSH1 0x4 MSTORE PUSH1 0x24 PUSH1 0x0 REVERT JUMPDEST PUSH1 0x0 PUSH2 0x7B3 DUP3 PUSH2 0x6AA JUMP JUMPDEST SWAP2 POP PUSH2 0x7BE DUP4 PUSH2 0x6AA JUMP JUMPDEST SWAP3 POP DUP3 DUP3 LT ISZERO PUSH2 0x7D1 JUMPI PUSH2 0x7D0 PUSH2 0x779 JUMP JUMPDEST JUMPDEST DUP3 DUP3 SUB SWAP1 POP SWAP3 SWAP2 POP POP JUMP JUMPDEST PUSH1 0x0 PUSH2 0x7E7 DUP3 PUSH2 0x6AA JUMP JUMPDEST SWAP2 POP PUSH2 0x7F2 DUP4 PUSH2 0x6AA JUMP JUMPDEST SWAP3 POP DUP2 PUSH32 0xFFFFFFFFFFFFFFFFFFFFFFFFFFFFFFFFFFFFFFFFFFFFFFFFFFFFFFFFFFFFFFFF DIV DUP4 GT DUP3 ISZERO ISZERO AND ISZERO PUSH2 0x82B JUMPI PUSH2 0x82A PUSH2 0x779 JUMP JUMPDEST JUMPDEST DUP3 DUP3 MUL SWAP1 POP SWAP3 SWAP2 POP POP JUMP JUMPDEST PUSH1 0x0 DUP2 PUSH1 0x1 SHR SWAP1 POP SWAP2 SWAP1 POP JUMP JUMPDEST PUSH1 0x0 DUP1 DUP3 SWAP2 POP DUP4 SWAP1 POP JUMPDEST PUSH1 0x1 DUP6 GT ISZERO PUSH2 0x88D JUMPI DUP1 DUP7 DIV DUP2 GT ISZERO PUSH2 0x869 JUMPI PUSH2 0x868 PUSH2 0x779 JUMP JUMPDEST JUMPDEST PUSH1 0x1 DUP6 AND ISZERO PUSH2 0x878 JUMPI DUP1 DUP3 MUL SWAP2 POP JUMPDEST DUP1 DUP2 MUL SWAP1 POP PUSH2 0x886 DUP6 PUSH2 0x836 JUMP JUMPDEST SWAP5 POP PUSH2 0x84D JUMP JUMPDEST SWAP5 POP SWAP5 SWAP3 POP POP POP JUMP JUMPDEST PUSH1 0x0 DUP3 PUSH2 0x8A6 JUMPI PUSH1 0x1 SWAP1 POP PUSH2 0x962 JUMP JUMPDEST DUP2 PUSH2 0x8B4 JUMPI PUSH1 0x0 SWAP1 POP PUSH2 0x962 JUMP JUMPDEST DUP2 PUSH1 0x1 DUP2 EQ PUSH2 0x8CA JUMPI PUSH1 0x2 DUP2 EQ PUSH2 0x8D4 JUMPI PUSH2 0x903 JUMP JUMPDEST PUSH1 0x1 SWAP2 POP POP PUSH2 0x962 JUMP JUMPDEST PUSH1 0xFF DUP5 GT ISZERO PUSH2 0x8E6 JUMPI PUSH2 0x8E5 PUSH2 0x779 JUMP JUMPDEST JUMPDEST DUP4 PUSH1 0x2 EXP SWAP2 POP DUP5 DUP3 GT ISZERO PUSH2 0x8FD JUMPI PUSH2 0x8FC PUSH2 0x779 JUMP JUMPDEST JUMPDEST POP PUSH2 0x962 JUMP JUMPDEST POP PUSH1 0x20 DUP4 LT PUSH2 0x133 DUP4 LT AND PUSH1 0x4E DUP5 LT PUSH1 0xB DUP5 LT AND OR ISZERO PUSH2 0x938 JUMPI DUP3 DUP3 EXP SWAP1 POP DUP4 DUP2 GT ISZERO PUSH2 0x933 JUMPI PUSH2 0x932 PUSH2 0x779 JUMP JUMPDEST JUMPDEST PUSH2 0x962 JUMP JUMPDEST PUSH2 0x945 DUP5 DUP5 DUP5 PUSH1 0x1 PUSH2 0x843 JUMP JUMPDEST SWAP3 POP SWAP1 POP DUP2 DUP5 DIV DUP2 GT ISZERO PUSH2 0x95C JUMPI PUSH2 0x95B PUSH2 0x779 JUMP JUMPDEST JUMPDEST DUP2 DUP2 MUL SWAP1 POP JUMPDEST SWAP4 SWAP3 POP POP POP JUMP JUMPDEST PUSH1 0x0 PUSH2 0x974 DUP3 PUSH2 0x6AA JUMP JUMPDEST SWAP2 POP PUSH2 0x97F DUP4 PUSH2 0x6AA JUMP JUMPDEST SWAP3 POP PUSH2 0x9AC PUSH32 0xFFFFFFFFFFFFFFFFFFFFFFFFFFFFFFFFFFFFFFFFFFFFFFFFFFFFFFFFFFFFFFFF DUP5 DUP5 PUSH2 0x896 JUMP JUMPDEST SWAP1 POP SWAP3 SWAP2 POP POP JUMP JUMPDEST PUSH32 0x4E487B7100000000000000000000000000000000000000000000000000000000 PUSH1 0x0 MSTORE PUSH1 0x12 PUSH1 0x4 MSTORE PUSH1 0x24 PUSH1 0x0 REVERT JUMPDEST PUSH1 0x0 PUSH2 0x9EE DUP3 PUSH2 0x6AA JUMP JUMPDEST SWAP2 POP PUSH2 0x9F9 DUP4 PUSH2 0x6AA JUMP JUMPDEST SWAP3 POP DUP3 PUSH2 0xA09 JUMPI PUSH2 0xA08 PUSH2 0x9B4 JUMP JUMPDEST JUMPDEST DUP3 DUP3 DIV SWAP1 POP SWAP3 SWAP2 POP POP JUMP JUMPDEST PUSH1 0x0 PUSH1 0xFF DUP3 AND SWAP1 POP SWAP2 SWAP1 POP JUMP JUMPDEST PUSH1 0x0 PUSH2 0xA2C DUP3 PUSH2 0xA14 JUMP JUMPDEST SWAP2 POP PUSH2 0xA37 DUP4 PUSH2 0xA14 JUMP JUMPDEST SWAP3 POP DUP3 PUSH2 0xA47 JUMPI PUSH2 0xA46 PUSH2 0x9B4 JUMP JUMPDEST JUMPDEST DUP3 DUP3 DIV SWAP1 POP SWAP3 SWAP2 POP POP JUMP JUMPDEST PUSH1 0x0 PUSH2 0xA5D DUP3 PUSH2 0xA14 JUMP JUMPDEST SWAP2 POP PUSH2 0xA68 DUP4 PUSH2 0xA14 JUMP JUMPDEST SWAP3 POP DUP2 PUSH1 0xFF DIV DUP4 GT DUP3 ISZERO ISZERO AND ISZERO PUSH2 0xA82 JUMPI PUSH2 0xA81 PUSH2 0x779 JUMP JUMPDEST JUMPDEST DUP3 DUP3 MUL SWAP1 POP SWAP3 SWAP2 POP POP JUMP JUMPDEST PUSH1 0x0 PUSH2 0xA98 DUP3 PUSH2 0xA14 JUMP JUMPDEST SWAP2 POP PUSH2 0xAA3 DUP4 PUSH2 0xA14 JUMP JUMPDEST SWAP3 POP DUP3 DUP3 LT ISZERO PUSH2 0xAB6 JUMPI PUSH2 0xAB5 PUSH2 0x779 JUMP JUMPDEST JUMPDEST DUP3 DUP3 SUB SWAP1 POP SWAP3 SWAP2 POP POP JUMP JUMPDEST PUSH1 0x0 DUP2 MLOAD SWAP1 POP PUSH2 0xAD0 DUP2 PUSH2 0x5F3 JUMP JUMPDEST SWAP3 SWAP2 POP POP JUMP JUMPDEST PUSH1 0x0 PUSH1 0x20 DUP3 DUP5 SUB SLT ISZERO PUSH2 0xAEC JUMPI PUSH2 0xAEB PUSH2 0x47C JUMP JUMPDEST JUMPDEST PUSH1 0x0 PUSH2 0xAFA DUP5 DUP3 DUP6 ADD PUSH2 0xAC1 JUMP JUMPDEST SWAP2 POP POP SWAP3 SWAP2 POP POP JUMP JUMPDEST PUSH32 0x4E487B7100000000000000000000000000000000000000000000000000000000 PUSH1 0x0 MSTORE PUSH1 0x32 PUSH1 0x4 MSTORE PUSH1 0x24 PUSH1 0x0 REVERT JUMPDEST PUSH1 0x0 PUSH2 0xB3D DUP3 PUSH2 0x6AA JUMP JUMPDEST SWAP2 POP PUSH2 0xB48 DUP4 PUSH2 0x6AA JUMP JUMPDEST SWAP3 POP DUP3 PUSH32 0xFFFFFFFFFFFFFFFFFFFFFFFFFFFFFFFFFFFFFFFFFFFFFFFFFFFFFFFFFFFFFFFF SUB DUP3 GT ISZERO PUSH2 0xB7D JUMPI PUSH2 0xB7C PUSH2 0x779 JUMP JUMPDEST JUMPDEST DUP3 DUP3 ADD SWAP1 POP SWAP3 SWAP2 POP POP JUMP JUMPDEST PUSH1 0x0 PUSH2 0xB93 DUP3 PUSH2 0x6AA JUMP JUMPDEST SWAP2 POP PUSH32 0xFFFFFFFFFFFFFFFFFFFFFFFFFFFFFFFFFFFFFFFFFFFFFFFFFFFFFFFFFFFFFFFF DUP3 EQ ISZERO PUSH2 0xBC6 JUMPI PUSH2 0xBC5 PUSH2 0x779 JUMP JUMPDEST JUMPDEST PUSH1 0x1 DUP3 ADD SWAP1 POP SWAP2 SWAP1 POP JUMP JUMPDEST PUSH1 0x0 PUSH2 0xBDC DUP3 PUSH2 0xA14 JUMP JUMPDEST SWAP2 POP PUSH2 0xBE7 DUP4 PUSH2 0xA14 JUMP JUMPDEST SWAP3 POP DUP3 PUSH1 0xFF SUB DUP3 GT ISZERO PUSH2 0xBFD JUMPI PUSH2 0xBFC PUSH2 0x779 JUMP JUMPDEST JUMPDEST DUP3 DUP3 ADD SWAP1 POP SWAP3 SWAP2 POP POP JUMP JUMPDEST PUSH1 0x0 DUP2 SWAP1 POP SWAP2 SWAP1 POP JUMP JUMPDEST PUSH2 0xC23 PUSH2 0xC1E DUP3 PUSH2 0x6AA JUMP JUMPDEST PUSH2 0xC08 JUMP JUMPDEST DUP3 MSTORE POP POP JUMP JUMPDEST PUSH1 0x0 PUSH2 0xC34 DUP3 PUSH2 0x481 JUMP JUMPDEST SWAP1 POP SWAP2 SWAP1 POP JUMP JUMPDEST PUSH1 0x0 DUP2 PUSH1 0x60 SHL SWAP1 POP SWAP2 SWAP1 POP JUMP JUMPDEST PUSH1 0x0 PUSH2 0xC53 DUP3 PUSH2 0xC3B JUMP JUMPDEST SWAP1 POP SWAP2 SWAP1 POP JUMP JUMPDEST PUSH1 0x0 PUSH2 0xC65 DUP3 PUSH2 0xC48 JUMP JUMPDEST SWAP1 POP SWAP2 SWAP1 POP JUMP JUMPDEST PUSH2 0xC7D PUSH2 0xC78 DUP3 PUSH2 0xC29 JUMP JUMPDEST PUSH2 0xC5A JUMP JUMPDEST DUP3 MSTORE POP POP JUMP JUMPDEST PUSH1 0x0 PUSH2 0xC8F DUP3 DUP8 PUSH2 0xC12 JUMP JUMPDEST PUSH1 0x20 DUP3 ADD SWAP2 POP PUSH2 0xC9F DUP3 DUP7 PUSH2 0xC12 JUMP JUMPDEST PUSH1 0x20 DUP3 ADD SWAP2 POP PUSH2 0xCAF DUP3 DUP6 PUSH2 0xC12 JUMP JUMPDEST PUSH1 0x20 DUP3 ADD SWAP2 POP PUSH2 0xCBF DUP3 DUP5 PUSH2 0xC6C JUMP JUMPDEST PUSH1 0x14 DUP3 ADD SWAP2 POP DUP2 SWAP1 POP SWAP6 SWAP5 POP POP POP POP POP JUMP JUMPDEST PUSH1 0x0 PUSH2 0xCDC DUP3 PUSH2 0x6AA JUMP JUMPDEST SWAP2 POP PUSH2 0xCE7 DUP4 PUSH2 0x6AA JUMP JUMPDEST SWAP3 POP DUP3 PUSH2 0xCF7 JUMPI PUSH2 0xCF6 PUSH2 0x9B4 JUMP JUMPDEST JUMPDEST DUP3 DUP3 MOD SWAP1 POP SWAP3 SWAP2 POP POP JUMP INVALID LOG2 PUSH5 0x6970667358 0x22 SLT KECCAK256 0xAF 0xDA 0xBD 0xB3 0x2A PUSH32 0xCE47C4C67B84DD14C00DDD90189C2E876036D806ED9AE30BF64264736F6C6343 STOP ADDMOD 0xC STOP CALLER NUMBER PUSH16 0x756E63696C2068617320617070726F76 PUSH6 0x642074686520 PUSH19 0x65666572656E64756D21436F6E73756C746174 PUSH10 0x6F6E2063616E63656C65 PUSH5 0x3A20566F74 PUSH6 0x72207475726E PUSH16 0x757420686173206265656E20746F6F20 PUSH20 0x6D616C6C2141206E6577206C6561646572736869 PUSH17 0x20626F6172642073686F756C6420626520 PUSH10 0x6E7374697475746564A2 PUSH5 0x6970667358 0x22 SLT KECCAK256 INVALID SWAP4 PUSH7 0xCA5D65E4C140AB SLT 0x2A 0xED PUSH3 0xC4ED8E 0xA8 DELEGATECALL SWAP13 0xAF DUP13 0xFC PUSH10 0x821E8E2481FDAFC46473 PUSH16 0x6C634300080C00330000000000000000 "
		},
		"gasEstimates": {
			"creation": {
				"codeDepositCost": "9346800",
				"executionCost": "79303",
				"totalCost": "9426103"
			},
			"external": {
				"_testElection()": "infinite",
				"acceptCandidature()": "infinite",
				"addCandidate(address)": "infinite",
				"appointWinningCandidates()": "infinite",
				"canAddCandidate()": "infinite",
				"canApprove(address[])": "infinite",
				"canCancel()": "infinite",
				"canCreate(address[])": "infinite",
				"canStart(address[])": "infinite",
				"canSupport()": "infinite",
				"canVote()": "infinite",
				"cancelationReason()": "2722",
				"closeElection()": "infinite",
				"daysOpen()": "2519",
				"finishElection()": "infinite",
				"getElectableCandidates()": "infinite",
				"getMinimalVoterTurnout()": "infinite",
				"getNominatedCandidates()": "infinite",
				"getQualifiedCandidates()": "infinite",
				"getRunningCandidates()": "infinite",
				"getVoterTurnout()": "infinite",
				"getWinningCandidates()": "infinite",
				"guaranteers(uint256)": "5067",
				"hasDeadlinePassed()": "infinite",
				"hasMinimumVoterTurnout()": "infinite",
				"isCandidateAlreadyNominated(address)": "infinite",
				"owners(uint256)": "5003",
				"removeSupportFromCandidate(uint256)": "infinite",
				"removeVote()": "infinite",
				"startElection()": "infinite",
				"startPreselection()": "infinite",
				"state()": "2699",
				"supportCandidate(uint256)": "infinite",
				"voteForCandidate(uint256)": "infinite"
			},
			"internal": {
				"cancel(enum Election.CancelReason,string memory)": "infinite",
				"createElection()": "infinite",
				"createPreselection(address[] memory,string memory,string memory,enum AccountManagement.Role,uint256)": "infinite",
				"setState(enum Election.State,string memory)": "infinite"
			}
		},
		"methodIdentifiers": {
			"_testElection()": "7dd4a945",
			"acceptCandidature()": "e1346655",
			"addCandidate(address)": "3acd75f8",
			"appointWinningCandidates()": "fd350b74",
			"canAddCandidate()": "58e549f0",
			"canApprove(address[])": "7fe63d70",
			"canCancel()": "d0f3725f",
			"canCreate(address[])": "f53cabf6",
			"canStart(address[])": "c36e4e6c",
			"canSupport()": "ada89616",
			"canVote()": "159e7064",
			"cancelationReason()": "3e422f5f",
			"closeElection()": "6c6c32d0",
			"daysOpen()": "a49da4b3",
			"finishElection()": "90173864",
			"getElectableCandidates()": "c026a05e",
			"getMinimalVoterTurnout()": "defb4dd6",
			"getNominatedCandidates()": "1f164aa7",
			"getQualifiedCandidates()": "ed57bcb7",
			"getRunningCandidates()": "687b995d",
			"getVoterTurnout()": "2fd0d870",
			"getWinningCandidates()": "f7e5b82b",
			"guaranteers(uint256)": "c2e862b4",
			"hasDeadlinePassed()": "96e3f4c5",
			"hasMinimumVoterTurnout()": "e53d8f1d",
			"isCandidateAlreadyNominated(address)": "bea3ff44",
			"owners(uint256)": "025e7c27",
			"removeSupportFromCandidate(uint256)": "7aa485d0",
			"removeVote()": "49aa4ee2",
			"startElection()": "62d73eb8",
			"startPreselection()": "107d4035",
			"state()": "c19d93fb",
			"supportCandidate(uint256)": "9c162409",
			"voteForCandidate(uint256)": "36c8c5ee"
		}
	},
	"abi": [
		{
			"inputs": [],
			"stateMutability": "nonpayable",
			"type": "constructor"
		},
		{
			"anonymous": false,
			"inputs": [
				{
					"indexed": true,
					"internalType": "address",
					"name": "_by",
					"type": "address"
				},
				{
					"indexed": false,
					"internalType": "enum Election.State",
					"name": "oldState",
					"type": "uint8"
				},
				{
					"indexed": false,
					"internalType": "enum Election.State",
					"name": "newState",
					"type": "uint8"
				},
				{
					"indexed": false,
					"internalType": "string",
					"name": "description",
					"type": "string"
				}
			],
			"name": "StateChanged",
			"type": "event"
		},
		{
			"inputs": [],
			"name": "_testElection",
			"outputs": [],
			"stateMutability": "nonpayable",
			"type": "function"
		},
		{
			"inputs": [],
			"name": "acceptCandidature",
			"outputs": [],
			"stateMutability": "nonpayable",
			"type": "function"
		},
		{
			"inputs": [
				{
					"internalType": "address",
					"name": "_candidate",
					"type": "address"
				}
			],
			"name": "addCandidate",
			"outputs": [],
			"stateMutability": "nonpayable",
			"type": "function"
		},
		{
			"inputs": [],
			"name": "appointWinningCandidates",
			"outputs": [],
			"stateMutability": "nonpayable",
			"type": "function"
		},
		{
			"inputs": [],
			"name": "canAddCandidate",
			"outputs": [
				{
					"internalType": "bool",
					"name": "",
					"type": "bool"
				}
			],
			"stateMutability": "view",
			"type": "function"
		},
		{
			"inputs": [
				{
					"internalType": "address[]",
					"name": "_guaranteers",
					"type": "address[]"
				}
			],
			"name": "canApprove",
			"outputs": [
				{
					"internalType": "bool",
					"name": "",
					"type": "bool"
				}
			],
			"stateMutability": "view",
			"type": "function"
		},
		{
			"inputs": [],
			"name": "canCancel",
			"outputs": [
				{
					"internalType": "bool",
					"name": "",
					"type": "bool"
				}
			],
			"stateMutability": "view",
			"type": "function"
		},
		{
			"inputs": [
				{
					"internalType": "address[]",
					"name": "_creators",
					"type": "address[]"
				}
			],
			"name": "canCreate",
			"outputs": [
				{
					"internalType": "bool",
					"name": "",
					"type": "bool"
				}
			],
			"stateMutability": "view",
			"type": "function"
		},
		{
			"inputs": [
				{
					"internalType": "address[]",
					"name": "_creators",
					"type": "address[]"
				}
			],
			"name": "canStart",
			"outputs": [
				{
					"internalType": "bool",
					"name": "",
					"type": "bool"
				}
			],
			"stateMutability": "view",
			"type": "function"
		},
		{
			"inputs": [],
			"name": "canSupport",
			"outputs": [
				{
					"internalType": "bool",
					"name": "",
					"type": "bool"
				}
			],
			"stateMutability": "view",
			"type": "function"
		},
		{
			"inputs": [],
			"name": "canVote",
			"outputs": [
				{
					"internalType": "bool",
					"name": "",
					"type": "bool"
				}
			],
			"stateMutability": "view",
			"type": "function"
		},
		{
			"inputs": [],
			"name": "cancelationReason",
			"outputs": [
				{
					"internalType": "enum Election.CancelReason",
					"name": "",
					"type": "uint8"
				}
			],
			"stateMutability": "view",
			"type": "function"
		},
		{
			"inputs": [],
			"name": "closeElection",
			"outputs": [],
			"stateMutability": "nonpayable",
			"type": "function"
		},
		{
			"inputs": [],
			"name": "daysOpen",
			"outputs": [
				{
					"internalType": "uint256",
					"name": "",
					"type": "uint256"
				}
			],
			"stateMutability": "view",
			"type": "function"
		},
		{
			"inputs": [],
			"name": "finishElection",
			"outputs": [],
			"stateMutability": "nonpayable",
			"type": "function"
		},
		{
			"inputs": [],
			"name": "getElectableCandidates",
			"outputs": [
				{
					"components": [
						{
							"internalType": "uint256",
							"name": "id",
							"type": "uint256"
						},
						{
							"internalType": "address",
							"name": "owner",
							"type": "address"
						},
						{
							"internalType": "address",
							"name": "creator",
							"type": "address"
						},
						{
							"internalType": "bool",
							"name": "isActive",
							"type": "bool"
						},
						{
							"internalType": "string",
							"name": "title",
							"type": "string"
						},
						{
							"internalType": "string",
							"name": "description",
							"type": "string"
						},
						{
							"internalType": "uint256",
							"name": "voterCount",
							"type": "uint256"
						}
					],
					"internalType": "struct Poll.Option[]",
					"name": "",
					"type": "tuple[]"
				}
			],
			"stateMutability": "nonpayable",
			"type": "function"
		},
		{
			"inputs": [],
			"name": "getMinimalVoterTurnout",
			"outputs": [
				{
					"internalType": "uint256",
					"name": "",
					"type": "uint256"
				}
			],
			"stateMutability": "view",
			"type": "function"
		},
		{
			"inputs": [],
			"name": "getNominatedCandidates",
			"outputs": [
				{
					"components": [
						{
							"internalType": "uint256",
							"name": "id",
							"type": "uint256"
						},
						{
							"internalType": "address",
							"name": "owner",
							"type": "address"
						},
						{
							"internalType": "address",
							"name": "creator",
							"type": "address"
						},
						{
							"internalType": "bool",
							"name": "isActive",
							"type": "bool"
						},
						{
							"internalType": "string",
							"name": "title",
							"type": "string"
						},
						{
							"internalType": "string",
							"name": "description",
							"type": "string"
						},
						{
							"internalType": "uint256",
							"name": "voterCount",
							"type": "uint256"
						}
					],
					"internalType": "struct Poll.Option[]",
					"name": "",
					"type": "tuple[]"
				}
			],
			"stateMutability": "view",
			"type": "function"
		},
		{
			"inputs": [],
			"name": "getQualifiedCandidates",
			"outputs": [
				{
					"components": [
						{
							"internalType": "uint256",
							"name": "id",
							"type": "uint256"
						},
						{
							"internalType": "address",
							"name": "owner",
							"type": "address"
						},
						{
							"internalType": "address",
							"name": "creator",
							"type": "address"
						},
						{
							"internalType": "bool",
							"name": "isActive",
							"type": "bool"
						},
						{
							"internalType": "string",
							"name": "title",
							"type": "string"
						},
						{
							"internalType": "string",
							"name": "description",
							"type": "string"
						},
						{
							"internalType": "uint256",
							"name": "voterCount",
							"type": "uint256"
						}
					],
					"internalType": "struct Poll.Option[]",
					"name": "",
					"type": "tuple[]"
				}
			],
			"stateMutability": "view",
			"type": "function"
		},
		{
			"inputs": [],
			"name": "getRunningCandidates",
			"outputs": [
				{
					"components": [
						{
							"internalType": "uint256",
							"name": "id",
							"type": "uint256"
						},
						{
							"internalType": "address",
							"name": "owner",
							"type": "address"
						},
						{
							"internalType": "address",
							"name": "creator",
							"type": "address"
						},
						{
							"internalType": "bool",
							"name": "isActive",
							"type": "bool"
						},
						{
							"internalType": "string",
							"name": "title",
							"type": "string"
						},
						{
							"internalType": "string",
							"name": "description",
							"type": "string"
						},
						{
							"internalType": "uint256",
							"name": "voterCount",
							"type": "uint256"
						}
					],
					"internalType": "struct Poll.Option[]",
					"name": "",
					"type": "tuple[]"
				}
			],
			"stateMutability": "view",
			"type": "function"
		},
		{
			"inputs": [],
			"name": "getVoterTurnout",
			"outputs": [
				{
					"internalType": "uint256",
					"name": "",
					"type": "uint256"
				}
			],
			"stateMutability": "view",
			"type": "function"
		},
		{
			"inputs": [],
			"name": "getWinningCandidates",
			"outputs": [
				{
					"components": [
						{
							"internalType": "uint256",
							"name": "id",
							"type": "uint256"
						},
						{
							"internalType": "address",
							"name": "owner",
							"type": "address"
						},
						{
							"internalType": "address",
							"name": "creator",
							"type": "address"
						},
						{
							"internalType": "bool",
							"name": "isActive",
							"type": "bool"
						},
						{
							"internalType": "string",
							"name": "title",
							"type": "string"
						},
						{
							"internalType": "string",
							"name": "description",
							"type": "string"
						},
						{
							"internalType": "uint256",
							"name": "voterCount",
							"type": "uint256"
						}
					],
					"internalType": "struct Poll.Option[]",
					"name": "",
					"type": "tuple[]"
				}
			],
			"stateMutability": "nonpayable",
			"type": "function"
		},
		{
			"inputs": [
				{
					"internalType": "uint256",
					"name": "",
					"type": "uint256"
				}
			],
			"name": "guaranteers",
			"outputs": [
				{
					"internalType": "address",
					"name": "",
					"type": "address"
				}
			],
			"stateMutability": "view",
			"type": "function"
		},
		{
			"inputs": [],
			"name": "hasDeadlinePassed",
			"outputs": [
				{
					"internalType": "bool",
					"name": "",
					"type": "bool"
				}
			],
			"stateMutability": "view",
			"type": "function"
		},
		{
			"inputs": [],
			"name": "hasMinimumVoterTurnout",
			"outputs": [
				{
					"internalType": "bool",
					"name": "",
					"type": "bool"
				}
			],
			"stateMutability": "view",
			"type": "function"
		},
		{
			"inputs": [
				{
					"internalType": "address",
					"name": "_candidate",
					"type": "address"
				}
			],
			"name": "isCandidateAlreadyNominated",
			"outputs": [
				{
					"internalType": "bool",
					"name": "",
					"type": "bool"
				}
			],
			"stateMutability": "view",
			"type": "function"
		},
		{
			"inputs": [
				{
					"internalType": "uint256",
					"name": "",
					"type": "uint256"
				}
			],
			"name": "owners",
			"outputs": [
				{
					"internalType": "address",
					"name": "",
					"type": "address"
				}
			],
			"stateMutability": "view",
			"type": "function"
		},
		{
			"inputs": [
				{
					"internalType": "uint256",
					"name": "_optionId",
					"type": "uint256"
				}
			],
			"name": "removeSupportFromCandidate",
			"outputs": [],
			"stateMutability": "nonpayable",
			"type": "function"
		},
		{
			"inputs": [],
			"name": "removeVote",
			"outputs": [],
			"stateMutability": "nonpayable",
			"type": "function"
		},
		{
			"inputs": [],
			"name": "startElection",
			"outputs": [],
			"stateMutability": "nonpayable",
			"type": "function"
		},
		{
			"inputs": [],
			"name": "startPreselection",
			"outputs": [],
			"stateMutability": "nonpayable",
			"type": "function"
		},
		{
			"inputs": [],
			"name": "state",
			"outputs": [
				{
					"internalType": "enum Election.State",
					"name": "",
					"type": "uint8"
				}
			],
			"stateMutability": "view",
			"type": "function"
		},
		{
			"inputs": [
				{
					"internalType": "uint256",
					"name": "_optionId",
					"type": "uint256"
				}
			],
			"name": "supportCandidate",
			"outputs": [],
			"stateMutability": "nonpayable",
			"type": "function"
		},
		{
			"inputs": [
				{
					"internalType": "uint256",
					"name": "_optionId",
					"type": "uint256"
				}
			],
			"name": "voteForCandidate",
			"outputs": [],
			"stateMutability": "nonpayable",
			"type": "function"
		}
	]
}