{
	"data": {
		"bytecode": {
			"linkReferences": {},
			"object": "6080604052601c6002556032600355600160045534801561001f57600080fd5b506159dc8061002f6000396000f3fe60806040523480156200001157600080fd5b5060043610620002255760003560e01c80639c1624091162000131578063d0f3725f11620000bb578063e13466551162000086578063e13466551462000447578063e53d8f1d1462000451578063ed57bcb7146200045b578063f53cabf61462000465578063f7e5b82b146200047c57600080fd5b8063d0f3725f1462000414578063d53c85ff146200041e578063de2927891462000435578063defb4dd6146200043d57600080fd5b8063c19d93fb11620000fc578063c19d93fb14620003ba578063c2e862b414620003dc578063c36e4e6c14620003f3578063cde87d49146200040a57600080fd5b80639c1624091462000382578063a49da4b31462000399578063ada89616146200025e578063bea3ff4414620003a357600080fd5b806358e549f011620001b35780637fe63d70116200017e5780637fe63d701462000345578063828eb1ff146200035c5780638cfe97f0146200036e57806396e3f4c5146200037857600080fd5b806358e549f0146200031057806362467cdf146200031a578063687b995d14620003315780636dbf5513146200033b57600080fd5b806339fd285511620001f457806339fd285514620002ab5780633acd75f814620002bd5780633e422f5f14620002d657806351fd22b914620002f957600080fd5b8063025e7c27146200022a578063159e7064146200025e5780631f164aa714620002795780632fd0d8701462000292575b600080fd5b620002416200023b366004620022ca565b62000486565b6040516001600160a01b0390911681526020015b60405180910390f35b62000268620004b1565b604051901515815260200162000255565b6200028362000544565b604051620002559190620023c2565b6200029c620005be565b60405190815260200162000255565b6008546001600160a01b031662000241565b620002d4620002ce3660046200243e565b6200062f565b005b600654620002ea9062010000900460ff1681565b6040516200025591906200248e565b620002d46200030a36600462002562565b62000935565b6200026862000a8e565b620002d46200032b36600462002562565b62000bcc565b6200028362000c2b565b620002d462000e23565b620002686200035636600462002562565b62000f52565b6007546001600160a01b031662000241565b620002d462001039565b62000268620010d8565b620002d462000393366004620022ca565b62001191565b6200029c60025481565b62000268620003b43660046200243e565b62001204565b600654620003cd90610100900460ff1681565b60405162000255919062002623565b62000241620003ed366004620022ca565b620012f8565b620002686200040436600462002562565b62001309565b620002d4620013e9565b6200026862001514565b620002d46200042f36600462002562565b62001552565b6000620002ea565b6200029c62001636565b620002d4620016d8565b62000268620019c7565b62000283620019eb565b620002686200047636600462002562565b62001afb565b6200028362001bdb565b600081815481106200049757600080fd5b6000918252602090912001546001600160a01b0316905081565b6006546040516365c9376960e01b81523360048201819052600092909163010000009091046001600160a01b0316906365c93769906024015b602060405180830381865afa15801562000508573d6000803e3d6000fd5b505050506040513d601f19601f820116820180604052508101906200052e91906200264f565b156200053c57600191505090565b600091505090565b6007546040805163661770cb60e11b815290516060926001600160a01b03169163cc2ee1969160048083019260009291908290030181865afa1580156200058f573d6000803e3d6000fd5b505050506040513d6000823e601f3d908101601f19168201604052620005b99190810190620026ee565b905090565b600754604080516311174a2960e01b815290516000926001600160a01b0316916311174a299160048083019260209291908290030181865afa15801562000609573d6000803e3d6000fd5b505050506040513d601f19601f82011682018060405250810190620005b9919062002862565b600080600654610100900460ff16600581111562000651576200065162002465565b14806200067c57506001600654610100900460ff1660058111156200067a576200067a62002465565b145b80620006a657506002600654610100900460ff166005811115620006a457620006a462002465565b145b80620006d057506003600654610100900460ff166005811115620006ce57620006ce62002465565b145b15620006e957620006e0620010d8565b620006e9575060015b80620007125760405162461bcd60e51b815260040162000709906200287c565b60405180910390fd5b6002600654610100900460ff16600581111562000733576200073362002465565b1415620008dd576200074462000a8e565b156200089c57620007558262001204565b6200085357600654604051636f77926b60e01b81526001600160a01b038481166004830152600092630100000090041690636f77926b90602401600060405180830381865afa158015620007ad573d6000803e3d6000fd5b505050506040513d6000823e601f3d908101601f19168201604052620007d791908101906200294b565b6007546020820151604080840151905163544d043160e11b81529394506001600160a01b039092169263a89a0862926200081a9288926000929060040162002a48565b600060405180830381600087803b1580156200083557600080fd5b505af11580156200084a573d6000803e3d6000fd5b50505050505050565b60405162461bcd60e51b815260206004820152601c60248201527f43616e64696461746520616c7265616479206e6f6d696e617465642100000000604482015260640162000709565b60405162461bcd60e51b81526020600482015260156024820152744e6f2073756666696369656e74207269676874732160581b604482015260640162000709565b60405162461bcd60e51b815260206004820152602660248201527f456c656374696f6e206973206e6f7420696e2073746174652050726553656c656044820152656374696f6e2160d01b606482015260840162000709565b6002600654610100900460ff16600581111562000956576200095662002465565b141562000a0957620009688162001309565b15620009a1576200097862001d53565b6200099e6003604051806060016040528060248152602001620059626024913962001f8e565b50565b60405162461bcd60e51b815260206004820152603660248201527f4f6e6c79204d656d62657273206f662074686520636f756e63696c2063616e2060448201527530b8383937bb329031b7b739bab63a30ba34b7b7399760511b606482015260840162000709565b60405162461bcd60e51b815260206004820152604d60248201527f436f6e73756c746174696f6e206973206e6f7420696e2074686520274170707260448201527f6f7665642720737461746520616e642063616e207468657265666f7265206e6f60648201526c3a1031329039ba30b93a32b21760991b608482015260a40162000709565b60065460405163056909b760e01b81523360048201819052600092909163010000009091046001600160a01b03169063056909b790602401602060405180830381865afa15801562000ae4573d6000803e3d6000fd5b505050506040513d601f19601f8201168201806040525081019062000b0a91906200264f565b8062000b8a5750600654604051637d26bd5760e11b81526001600160a01b03838116600483015263010000009092049091169063fa4d7aae90602401602060405180830381865afa15801562000b64573d6000803e3d6000fd5b505050506040513d601f19601f8201168201806040525081019062000b8a91906200264f565b806200052e575060065460405163297027d560e01b81526001600160a01b03838116600483015263010000009092049091169063297027d590602401620004ea565b6001600654610100900460ff16600581111562000bed5762000bed62002465565b141562000a095762000bff8162001309565b15620009a1576200099e6002604051806060016040528060248152602001620059626024913962001f8e565b60606000600760009054906101000a90046001600160a01b03166001600160a01b031663cc2ee1966040518163ffffffff1660e01b8152600401600060405180830381865afa15801562000c83573d6000803e3d6000fd5b505050506040513d6000823e601f3d908101601f1916820160405262000cad9190810190620026ee565b9050600081516001600160401b0381111562000ccd5762000ccd620024a3565b60405190808252806020026020018201604052801562000d0a57816020015b62000cf6620021dc565b81526020019060019003908162000cec5790505b5090506000805b835181101562000e1a5760075484516001600160a01b039091169063e0a96cd69086908490811062000d475762000d4762002a8a565b60200260200101516040518263ffffffff1660e01b815260040162000d6d919062002aa0565b602060405180830381865afa15801562000d8b573d6000803e3d6000fd5b505050506040513d601f19601f8201168201806040525081019062000db191906200264f565b1562000e055783818151811062000dcc5762000dcc62002a8a565b602002602001015183838151811062000de95762000de962002a8a565b6020026020010181905250818062000e019062002acb565b9250505b8062000e118162002acb565b91505062000d11565b50815292915050565b604080516001808252818301909252735b38da6a701c568545dcfcb03fcb875f56beddc4916000919060208083019080368337019050509050818160008151811062000e735762000e7362002a8a565b6001600160a01b0392909216602092830291909101820152600680546301000000600160b81b031916769279f54dac3570d115adb6083f85d05a4e6f41ad000000179055604080518082018252600c81526b2a32b9ba22b632b1ba34b7b760a11b818401528151808301909252601782527f54657374456c656374696f6e4445736372697074696f6e000000000000000000928201929092526000600262000f1f858585858562002005565b62000f2a8562001552565b62000f358562000bcc565b62000f40866200062f565b62000f4a620016d8565b505050505050565b60006001815b83518110156200103257600660039054906101000a90046001600160a01b03166001600160a01b031663fa4d7aae85838151811062000f9b5762000f9b62002a8a565b60200260200101516040518263ffffffff1660e01b815260040162000fcf91906001600160a01b0391909116815260200190565b602060405180830381865afa15801562000fed573d6000803e3d6000fd5b505050506040513d601f19601f820116820180604052508101906200101391906200264f565b6200101d57600091505b80620010298162002acb565b91505062000f58565b5092915050565b6200104362001514565b1562001071576200106f60026040518060600160405280602181526020016200598660219139620021a9565b565b60405162461bcd60e51b815260206004820152603560248201527f4f6e6c79204d656d62657273206f662074686520636f756e63696c2063616e2060448201527431b0b731b2b61031b7b739bab63a30ba34b7b7399760591b606482015260840162000709565b600254600090819042908290620010f3906201518062002ae9565b600760009054906101000a90046001600160a01b03166001600160a01b031663b90c1dbb6040518163ffffffff1660e01b8152600401602060405180830381865afa15801562001147573d6000803e3d6000fd5b505050506040513d601f19601f820116820180604052508101906200116d919062002862565b62001179919062002b0b565b9050808211156200118957600192505b509092915050565b6200119b620004b1565b156200099e5760075460405163191a5f8b60e21b8152600481018390526001600160a01b03909116906364697e2c90602401600060405180830381600087803b158015620011e857600080fd5b505af1158015620011fd573d6000803e3d6000fd5b5050505050565b600080600760009054906101000a90046001600160a01b03166001600160a01b031663cc2ee1966040518163ffffffff1660e01b8152600401600060405180830381865afa1580156200125b573d6000803e3d6000fd5b505050506040513d6000823e601f3d908101601f19168201604052620012859190810190620026ee565b905060005b8151811015620012ee57818181518110620012a957620012a962002a8a565b6020026020010151602001516001600160a01b0316846001600160a01b03161415620012d9575060019392505050565b80620012e58162002acb565b9150506200128a565b5060009392505050565b600181815481106200049757600080fd5b60006001815b83518110156200103257600660039054906101000a90046001600160a01b03166001600160a01b031663fa4d7aae85838151811062001352576200135262002a8a565b60200260200101516040518263ffffffff1660e01b81526004016200138691906001600160a01b0391909116815260200190565b602060405180830381865afa158015620013a4573d6000803e3d6000fd5b505050506040513d601f19601f82011682018060405250810190620013ca91906200264f565b620013d457600091505b80620013e08162002acb565b9150506200130f565b600080600654610100900460ff1660058111156200140b576200140b62002465565b14806200143657506001600654610100900460ff16600581111562001434576200143462002465565b145b806200146057506002600654610100900460ff1660058111156200145e576200145e62002465565b145b806200148a57506003600654610100900460ff16600581111562001488576200148862002465565b145b15620014a3576200149a620010d8565b620014a3575060015b80620014c35760405162461bcd60e51b815260040162000709906200287c565b600760009054906101000a90046001600160a01b03166001600160a01b031663d9f3a5c16040518163ffffffff1660e01b8152600401600060405180830381600087803b158015620011e857600080fd5b600654604051637d26bd5760e11b81523360048201819052600092909163010000009091046001600160a01b03169063fa4d7aae90602401620004ea565b6000600654610100900460ff16600581111562001573576200157362002465565b1415620015b157620015858162000f52565b15620009a1576200099e6001604051806060016040528060248152602001620059626024913962001f8e565b60405162461bcd60e51b815260206004820152604d60248201527f436f6e73756c746174696f6e206973206e6f7420696e2074686520274372656160448201527f7465642720737461746520616e642063616e207468657265666f7265206e6f7460648201526c1031329030b8383937bb32b21760991b608482015260a40162000709565b60008062001643620005be565b6009546003549192506001600160a01b03169063fd3bad529062001668908462002ae9565b6040516001600160e01b031960e084901b168152600481019190915260646024820152604401602060405180830381865afa158015620016ac573d6000803e3d6000fd5b505050506040513d601f19601f82011682018060405250810190620016d2919062002862565b91505090565b600080600654610100900460ff166005811115620016fa57620016fa62002465565b14806200172557506001600654610100900460ff16600581111562001723576200172362002465565b145b806200174f57506002600654610100900460ff1660058111156200174d576200174d62002465565b145b806200177957506003600654610100900460ff16600581111562001777576200177762002465565b145b15620017925762001789620010d8565b62001792575060015b80620017b25760405162461bcd60e51b815260040162000709906200287c565b6002600654610100900460ff166005811115620017d357620017d362002465565b1415620008dd576007546040805163661770cb60e11b815290516000926001600160a01b03169163cc2ee19691600480830192869291908290030181865afa15801562001824573d6000803e3d6000fd5b505050506040513d6000823e601f3d908101601f191682016040526200184e9190810190620026ee565b905060005b81518110156200197d5781818151811062001872576200187262002a8a565b6020026020010151602001516001600160a01b0316336001600160a01b031614156200196857818181518110620018ad57620018ad62002a8a565b602002602001015160600151620019155760075482516001600160a01b039091169063ddd7531b90849084908110620018ea57620018ea62002a8a565b6020026020010151600001516040518263ffffffff1660e01b81526004016200081a91815260200190565b60405162461bcd60e51b815260206004820152602160248201527f43616e64696461747572652077617320616c72656164792061636365707465646044820152602160f81b606482015260840162000709565b80620019748162002acb565b91505062001853565b5060405162461bcd60e51b815260206004820152601b60248201527f43616e646964617465206973206e6f74206e6f6d696e61746564210000000000604482015260640162000709565b600080620019d4620005be565b90506000620019e262001636565b90911192915050565b60606000620019f962000c2b565b9050600081516001600160401b0381111562001a195762001a19620024a3565b60405190808252806020026020018201604052801562001a5657816020015b62001a42620021dc565b81526020019060019003908162001a385790505b5090506000805b835181101562000e1a57600084828151811062001a7e5762001a7e62002a8a565b602002602001015160c00151905060045481111562001ae55784828151811062001aac5762001aac62002a8a565b602002602001015184848151811062001ac95762001ac962002a8a565b6020026020010181905250828062001ae19062002acb565b9350505b508062001af28162002acb565b91505062001a5d565b60006001815b83518110156200103257600660039054906101000a90046001600160a01b03166001600160a01b031663297027d585838151811062001b445762001b4462002a8a565b60200260200101516040518263ffffffff1660e01b815260040162001b7891906001600160a01b0391909116815260200190565b602060405180830381865afa15801562001b96573d6000803e3d6000fd5b505050506040513d601f19601f8201168201806040525081019062001bbc91906200264f565b62001bc657600091505b8062001bd28162002acb565b91505062001b01565b6060600062001be962000c2b565b9050600081516001600160401b0381111562001c095762001c09620024a3565b60405190808252806020026020018201604052801562001c4657816020015b62001c32620021dc565b81526020019060019003908162001c285790505b50905062001c53620021dc565b60008060005b855181101562001d4757600086828151811062001c7a5762001c7a62002a8a565b602002602001015160c001519050600554831062001ce3578460c0015181111562001cdd5786828151811062001cb45762001cb462002a8a565b602002602001015186858151811062001cd15762001cd162002a8a565b60200260200101819052505b62001d31565b86828151811062001cf85762001cf862002a8a565b602002602001015186848151811062001d155762001d1562002a8a565b6020026020010181905250828062001d2d9062002acb565b9350505b508062001d3e8162002acb565b91505062001c59565b50835250909392505050565b60075460408051600162c3e57160e01b0319815290516000926001600160a01b03169163ff3c1a8f91600480830192869291908290030181865afa15801562001da0573d6000803e3d6000fd5b505050506040513d6000823e601f3d908101601f1916820160405262001dca919081019062002b26565b90506000600760009054906101000a90046001600160a01b03166001600160a01b0316631a0925416040518163ffffffff1660e01b8152600401600060405180830381865afa15801562001e22573d6000803e3d6000fd5b505050506040513d6000823e601f3d908101601f1916820160405262001e4c919081019062002b26565b90506000828260405162001e60906200222d565b62001e6e9392919062002b5e565b604051809103906000f08015801562001e8b573d6000803e3d6000fd5b50600880546001600160a01b0319166001600160a01b0392909216919091179055600062001eb8620019eb565b905060005b815181101562001f8857600082828151811062001ede5762001ede62002a8a565b60209081029190910181015190810151608082015160a083015160085460405163544d043160e11b81529495509293919290916001600160a01b039091169063a89a08629062001f3a9086906000908790879060040162002a48565b600060405180830381600087803b15801562001f5557600080fd5b505af115801562001f6a573d6000803e3d6000fd5b5050505050505050808062001f7f9062002acb565b91505062001ebd565b50505050565b60065460405133917ffc6f5e211098b443015ccb625104a41f61e97a80dd9b8734242a9a8c3eecc8dc9162001fd091610100900460ff16908690869062002be1565b60405180910390a26006805483919061ff00191661010083600581111562001ffc5762001ffc62002465565b02179055505050565b620020108562001afb565b15620021495760405162002024906200223b565b604051809103906000f08015801562002041573d6000803e3d6000fd5b50600960006101000a8154816001600160a01b0302191690836001600160a01b0316021790555084848460405162002079906200222d565b620020879392919062002c1d565b604051809103906000f080158015620020a4573d6000803e3d6000fd5b50600780546001600160a01b0319166001600160a01b03929092169190911790558451620020da90600090602088019062002249565b506006805483919060ff19166001836003811115620020fd57620020fd62002465565b02179055508060058190555062002143600060405180604001604052806015815260200174436f6e73756c746174696f6e20637265617465642160581b81525062001f8e565b620011fd565b60405162461bcd60e51b815260206004820152602e60248201527f4f6e65206f72206d6f72652075736572732063616e277420637265617465206160448201526d20636f6e73756c746174696f6e2160901b606482015260840162000709565b620021b660058262001f8e565b6006805483919062ff000019166201000083600281111562001ffc5762001ffc62002465565b6040518060e001604052806000815260200160006001600160a01b0316815260200160006001600160a01b031681526020016000151581526020016060815260200160608152602001600081525090565b6125bc8062002c6283390190565b610744806200521e83390190565b828054828255906000526020600020908101928215620022a1579160200282015b82811115620022a157825182546001600160a01b0319166001600160a01b039091161782556020909201916001909101906200226a565b50620022af929150620022b3565b5090565b5b80821115620022af5760008155600101620022b4565b600060208284031215620022dd57600080fd5b5035919050565b60005b8381101562002301578181015183820152602001620022e7565b8381111562001f885750506000910152565b600081518084526200232d816020860160208601620022e4565b601f01601f19169290920160200192915050565b805182526000602082015160018060a01b0380821660208601528060408501511660408601525050606082015115156060840152608082015160e060808501526200239060e085018262002313565b905060a083015184820360a0860152620023ab828262002313565b91505060c083015160c08501528091505092915050565b6000602080830181845280855180835260408601915060408160051b870101925083870160005b828110156200241b57603f198886030184526200240885835162002341565b94509285019290850190600101620023e9565b5092979650505050505050565b6001600160a01b03811681146200099e57600080fd5b6000602082840312156200245157600080fd5b81356200245e8162002428565b9392505050565b634e487b7160e01b600052602160045260246000fd5b600381106200099e576200099e62002465565b602081016200249d836200247b565b91905290565b634e487b7160e01b600052604160045260246000fd5b60405160e081016001600160401b0381118282101715620024de57620024de620024a3565b60405290565b60405160c081016001600160401b0381118282101715620024de57620024de620024a3565b604051601f8201601f191681016001600160401b0381118282101715620025345762002534620024a3565b604052919050565b60006001600160401b03821115620025585762002558620024a3565b5060051b60200190565b600060208083850312156200257657600080fd5b82356001600160401b038111156200258d57600080fd5b8301601f810185136200259f57600080fd5b8035620025b6620025b0826200253c565b62002509565b81815260059190911b82018301908381019087831115620025d657600080fd5b928401925b8284101562002601578335620025f18162002428565b82529284019290840190620025db565b979650505050505050565b600681106200261f576200261f62002465565b9052565b602081016200263382846200260c565b92915050565b805180151581146200264a57600080fd5b919050565b6000602082840312156200266257600080fd5b6200245e8262002639565b80516200264a8162002428565b600082601f8301126200268c57600080fd5b81516001600160401b03811115620026a857620026a8620024a3565b620026bd601f8201601f191660200162002509565b818152846020838601011115620026d357600080fd5b620026e6826020830160208701620022e4565b949350505050565b600060208083850312156200270257600080fd5b82516001600160401b03808211156200271a57600080fd5b818501915085601f8301126200272f57600080fd5b815162002740620025b0826200253c565b81815260059190911b830184019084810190888311156200276057600080fd5b8585015b8381101562002855578051858111156200277d57600080fd5b860160e0818c03601f19011215620027955760008081fd5b6200279f620024b9565b8882015181526040620027b48184016200266d565b8a8301526060620027c78185016200266d565b8284015260809150620027dc82850162002639565b9083015260a08381015189811115620027f55760008081fd5b620028058f8d838801016200267a565b838501525060c091508184015189811115620028215760008081fd5b620028318f8d838801016200267a565b918401919091525060e0929092015191810191909152835291860191860162002764565b5098975050505050505050565b6000602082840312156200287557600080fd5b5051919050565b60208082526024908201527f54686520706f6c6c206d75737420626520696e20616e206163746976652073746040820152636174652160e01b606082015260800190565b600060808284031215620028d357600080fd5b604051608081018181106001600160401b0382111715620028f857620028f8620024a3565b604052905080620029098362002639565b8152620029196020840162002639565b60208201526200292c6040840162002639565b60408201526200293f6060840162002639565b60608201525092915050565b6000602082840312156200295e57600080fd5b81516001600160401b03808211156200297657600080fd5b9083019061012082860312156200298c57600080fd5b62002996620024e4565b620029a1836200266d565b8152602083015182811115620029b657600080fd5b620029c4878286016200267a565b602083015250604083015182811115620029dd57600080fd5b620029eb878286016200267a565b60408301525060608301518281111562002a0457600080fd5b62002a12878286016200267a565b60608301525062002a266080840162002639565b608082015262002a3a8660a08501620028c0565b60a082015295945050505050565b6001600160a01b0385168152831515602082015260806040820181905260009062002a769083018562002313565b828103606084015262002601818562002313565b634e487b7160e01b600052603260045260246000fd5b6020815260006200245e602083018462002341565b634e487b7160e01b600052601160045260246000fd5b600060001982141562002ae25762002ae262002ab5565b5060010190565b600081600019048311821515161562002b065762002b0662002ab5565b500290565b6000821982111562002b215762002b2162002ab5565b500190565b60006020828403121562002b3957600080fd5b81516001600160401b0381111562002b5057600080fd5b620026e6848285016200267a565b6000606082016060835280865480835260808501915087600052602092508260002060005b8281101562002baa5781546001600160a01b03168452928401926001918201910162002b83565b5050508381038285015262002bc0818762002313565b915050828103604084015262002bd7818562002313565b9695505050505050565b62002bed81856200260c565b62002bfc60208201846200260c565b60606040820152600062002c14606083018462002313565b95945050505050565b606080825284519082018190526000906020906080840190828801845b8281101562002baa5781516001600160a01b03168452928401929084019060010162002c3a56fe60806040523480156200001157600080fd5b50604051620025bc380380620025bc8339810160408190526200003491620004ab565b6040516200004290620002af565b604051809103906000f0801580156200005f573d6000803e3d6000fd5b50600980546001600160a01b0319166001600160a01b03929092169190911790556200008d83838362000097565b50505050620006a9565b60095460408051633bf1b06360e21b815290516000926001600160a01b03169163efc6c18c9160048083019260209291908290030181865afa158015620000e2573d6000803e3d6000fd5b505050506040513d601f19601f82011682018060405250810190620001089190620005c4565b600055825162000120906002906020860190620002bd565b50815162000136906003906020850190620002bd565b50426004558351620001509060019060208701906200034c565b506007805460ff1916905560408051808201909152600d81526c506f6c6c20637265617465642160981b60208201526200018d9060019062000198565b506000549392505050565b816003811115620001ad57620001ad620005de565b60075460ff166003811115620001c757620001c7620005de565b146200023d5760075460405133917ffc6f5e211098b443015ccb625104a41f61e97a80dd9b8734242a9a8c3eecc8dc916200020a9160ff16908690869062000617565b60405180910390a26007805483919060ff19166001836003811115620002345762000234620005de565b02179055505050565b60405162461bcd60e51b815260206004820152603660248201527f5374617465206e6f74206368616e6765642e204e65772073746174652069732060448201527f7468652073616d65206173206f6c642073746174652100000000000000000000606482015260840160405180910390fd5b6107448062001e7883390190565b828054620002cb906200066c565b90600052602060002090601f016020900481019282620002ef57600085556200033a565b82601f106200030a57805160ff19168380011785556200033a565b828001600101855582156200033a579182015b828111156200033a5782518255916020019190600101906200031d565b5062000348929150620003a4565b5090565b8280548282559060005260206000209081019282156200033a579160200282015b828111156200033a57825182546001600160a01b0319166001600160a01b039091161782556020909201916001909101906200036d565b5b80821115620003485760008155600101620003a5565b634e487b7160e01b600052604160045260246000fd5b604051601f8201601f191681016001600160401b0381118282101715620003fc57620003fc620003bb565b604052919050565b60005b838110156200042157818101518382015260200162000407565b8381111562000431576000848401525b50505050565b600082601f8301126200044957600080fd5b81516001600160401b03811115620004655762000465620003bb565b6200047a601f8201601f1916602001620003d1565b8181528460208386010111156200049057600080fd5b620004a382602083016020870162000404565b949350505050565b600080600060608486031215620004c157600080fd5b83516001600160401b0380821115620004d957600080fd5b818601915086601f830112620004ee57600080fd5b8151602082821115620005055762000505620003bb565b8160051b62000516828201620003d1565b928352848101820192828101908b8511156200053157600080fd5b958301955b848710156200056b57865192506001600160a01b03831683146200055a5760008081fd5b828252958301959083019062000536565b928a0151929850919450505050808211156200058657600080fd5b620005948783880162000437565b93506040860151915080821115620005ab57600080fd5b50620005ba8682870162000437565b9150509250925092565b600060208284031215620005d757600080fd5b5051919050565b634e487b7160e01b600052602160045260246000fd5b600481106200061357634e487b7160e01b600052602160045260246000fd5b9052565b620006238185620005f4565b620006326020820184620005f4565b60606040820152600082518060608401526200065681608085016020870162000404565b601f01601f191691909101608001949350505050565b600181811c908216806200068157607f821691505b60208210811415620006a357634e487b7160e01b600052602260045260246000fd5b50919050565b6117bf80620006b96000396000f3fe608060405234801561001057600080fd5b506004361061014d5760003560e01c806364697e2c116100c3578063c19d93fb1161007c578063c19d93fb1461025e578063cc2ee19614610278578063d9f3a5c11461028d578063ddd7531b14610295578063e0a96cd6146102a8578063ff3c1a8f146102cd57600080fd5b806364697e2c1461021f5780637284e41614610232578063a6bd54271461018c578063a89a08621461023a578063af640d0f1461024d578063b90c1dbb1461025657600080fd5b8063409e220511610115578063409e2205146101bb57806342169e48146101e15780634a79d50c146101ea5780634f4a3115146101f2578063517b70421461020557806362a5af3b1461021757600080fd5b8063025e7c27146101525780630f15f4c01461018257806311174a291461018c5780631a0925411461019e5780632f2770db146101b3575b600080fd5b6101656101603660046111ca565b6102d5565b6040516001600160a01b0390911681526020015b60405180910390f35b61018a6102ff565b005b6006545b604051908152602001610179565b6101a66103b9565b6040516101799190611230565b61018a61044b565b6101ce6101c93660046111ca565b6104f8565b604051610179979695949392919061124a565b61019060065481565b6101a661066a565b61018a6102003660046111ca565b6106f8565b6101906102133660046113a3565b5190565b61018a6107b9565b61018a61022d3660046111ca565b610864565b6101a66109f2565b61018a61024836600461147e565b6109ff565b61019060005481565b600454610190565b60075461026b9060ff1681565b604051610179919061153b565b610280610c3c565b604051610179919061154f565b61018a610e0e565b61018a6102a33660046111ca565b610f4d565b6102bd6102b63660046113a3565b6060015190565b6040519015158152602001610179565b6101a6610fad565b600181815481106102e557600080fd5b6000918252602090912001546001600160a01b0316905081565b600160005b60015481101561035857600181815481106103215761032161161c565b6000918252602090912001546001600160a01b03163314156103465760019150610358565b8061035081611648565b915050610304565b506001811515146103845760405162461bcd60e51b815260040161037b90611663565b60405180910390fd5b6103b660016040518060400160405280600f81526020016e506f6c6c206163746976617465642160881b815250610fbc565b50565b6060600380546103c8906116a5565b80601f01602080910402602001604051908101604052809291908181526020018280546103f4906116a5565b80156104415780601f1061041657610100808354040283529160200191610441565b820191906000526020600020905b81548152906001019060200180831161042457829003601f168201915b5050505050905090565b600160005b6001548110156104a4576001818154811061046d5761046d61161c565b6000918252602090912001546001600160a01b031633141561049257600191506104a4565b8061049c81611648565b915050610450565b506001811515146104c75760405162461bcd60e51b815260040161037b90611663565b6103b660036040518060400160405280600e81526020016d506f6c6c2064697361626c65642160901b815250610fbc565b6005818154811061050857600080fd5b600091825260209091206006909102018054600182015460028301546003840180549395506001600160a01b039283169492821693600160a01b90920460ff169291610553906116a5565b80601f016020809104026020016040519081016040528092919081815260200182805461057f906116a5565b80156105cc5780601f106105a1576101008083540402835291602001916105cc565b820191906000526020600020905b8154815290600101906020018083116105af57829003601f168201915b5050505050908060040180546105e1906116a5565b80601f016020809104026020016040519081016040528092919081815260200182805461060d906116a5565b801561065a5780601f1061062f5761010080835404028352916020019161065a565b820191906000526020600020905b81548152906001019060200180831161063d57829003601f168201915b5050505050908060050154905087565b60028054610677906116a5565b80601f01602080910402602001604051908101604052809291908181526020018280546106a3906116a5565b80156106f05780601f106106c5576101008083540402835291602001916106f0565b820191906000526020600020905b8154815290600101906020018083116106d357829003601f168201915b505050505081565b60005b6005548110156107845781600582815481106107195761071961161c565b9060005260206000209060060201600001541415610772576000600582815481106107465761074661161c565b906000526020600020906006020160020160146101000a81548160ff0219169083151502179055505050565b8061077c81611648565b9150506106fb565b5060405162461bcd60e51b8152602060048201526009602482015268139bdd08199bdd5b9960ba1b604482015260640161037b565b600160005b60015481101561081257600181815481106107db576107db61161c565b6000918252602090912001546001600160a01b03163314156108005760019150610812565b8061080a81611648565b9150506107be565b506001811515146108355760405162461bcd60e51b815260040161037b90611663565b6103b660026040518060400160405280600c81526020016b506f6c6c2066726f7a656e2160a01b815250610fbc565b600160075460ff16600381111561087d5761087d611503565b1461089a5760405162461bcd60e51b815260040161037b906116e0565b3360006108a6836110bc565b6002810154909150600160a01b900460ff16156109ad576001600160a01b03821660009081526008602052604090205480156109065760006108e7826110bc565b60058101805491925060006108fb83611724565b919050555050610977565b838114156109615760405162461bcd60e51b815260206004820152602260248201527f5573657220616c726561647920766f74656420666f722074686973206f70746960448201526137b760f11b606482015260840161037b565b6006805490600061097183611648565b91905055505b6001600160a01b0383166000908152600860205260408120859055600583018054916109a283611648565b919050555050505050565b60405162461bcd60e51b81526020600482015260156024820152744f7074696f6e206973206e6f74206163746976652160581b604482015260640161037b565b505050565b60038054610677906116a5565b600160075460ff166003811115610a1857610a18611503565b14610a355760405162461bcd60e51b815260040161037b906116e0565b600160005b600154811015610a8e5760018181548110610a5757610a5761161c565b6000918252602090912001546001600160a01b0316331415610a7c5760019150610a8e565b80610a8681611648565b915050610a3a565b50600181151514610ab15760405162461bcd60e51b815260040161037b90611663565b6005543390600090610ac5906103e861173b565b6040805160e0810182528281526001600160a01b03808b1660208084019182528783169484019485528b151560608501908152608085018c815260a086018c9052600060c08701819052600580546001810182559152865160069091027f036b6384b5eca791c62761152d0c79bb0604c104a5fb6f4eb0703f3154bb3db0810191825594517f036b6384b5eca791c62761152d0c79bb0604c104a5fb6f4eb0703f3154bb3db1860180549188166001600160a01b031990921691909117905596517f036b6384b5eca791c62761152d0c79bb0604c104a5fb6f4eb0703f3154bb3db28501805493511515600160a01b026001600160a81b0319909416919096161791909117909355915180519596509294859493610c09937f036b6384b5eca791c62761152d0c79bb0604c104a5fb6f4eb0703f3154bb3db3909301920190611131565b5060a08201518051610c25916004840191602090910190611131565b5060c0820151816005015550505050505050505050565b60606005805480602002602001604051908101604052809291908181526020016000905b82821015610e055760008481526020908190206040805160e081018252600686029092018054835260018101546001600160a01b0390811694840194909452600281015493841691830191909152600160a01b90920460ff1615156060820152600382018054919291608084019190610cd8906116a5565b80601f0160208091040260200160405190810160405280929190818152602001828054610d04906116a5565b8015610d515780601f10610d2657610100808354040283529160200191610d51565b820191906000526020600020905b815481529060010190602001808311610d3457829003601f168201915b50505050508152602001600482018054610d6a906116a5565b80601f0160208091040260200160405190810160405280929190818152602001828054610d96906116a5565b8015610de35780601f10610db857610100808354040283529160200191610de3565b820191906000526020600020905b815481529060010190602001808311610dc657829003601f168201915b5050505050815260200160058201548152505081526020019060010190610c60565b50505050905090565b600160075460ff166003811115610e2757610e27611503565b14610e445760405162461bcd60e51b815260040161037b906116e0565b336000818152600860205260408120548015610eb6576000610e65826110bc565b6005810180549192506000610e7983611724565b90915550506001600160a01b03841660009081526008602052604081208190556006805491610ea783611724565b91905055506001925050610f08565b60405162461bcd60e51b815260206004820152602160248201527f5573657220646964206e6f6e20766f746520666f722074686973206f7074696f6044820152603760f91b606482015260840161037b565b816109ed5760405162461bcd60e51b8152602060048201526015602482015274556e61626c6520746f2072656d6f766520766f746560581b604482015260640161037b565b60005b600554811015610784578160058281548110610f6e57610f6e61161c565b9060005260206000209060060201600001541415610f9b576001600582815481106107465761074661161c565b80610fa581611648565b915050610f50565b6060600280546103c8906116a5565b816003811115610fce57610fce611503565b60075460ff166003811115610fe557610fe5611503565b146110555760075460405133917ffc6f5e211098b443015ccb625104a41f61e97a80dd9b8734242a9a8c3eecc8dc916110259160ff169086908690611753565b60405180910390a26007805483919060ff1916600183600381111561104c5761104c611503565b02179055505050565b60405162461bcd60e51b815260206004820152603660248201527f5374617465206e6f74206368616e6765642e204e6577207374617465206973206044820152757468652073616d65206173206f6c642073746174652160501b606482015260840161037b565b6000805b6005548110156107845782600582815481106110de576110de61161c565b906000526020600020906006020160000154141561111f57600581815481106111095761110961161c565b9060005260206000209060060201915050919050565b8061112981611648565b9150506110c0565b82805461113d906116a5565b90600052602060002090601f01602090048101928261115f57600085556111a5565b82601f1061117857805160ff19168380011785556111a5565b828001600101855582156111a5579182015b828111156111a557825182559160200191906001019061118a565b506111b19291506111b5565b5090565b5b808211156111b157600081556001016111b6565b6000602082840312156111dc57600080fd5b5035919050565b6000815180845260005b81811015611209576020818501810151868301820152016111ed565b8181111561121b576000602083870101525b50601f01601f19169290920160200192915050565b60208152600061124360208301846111e3565b9392505050565b8781526001600160a01b03878116602083015286166040820152841515606082015260e060808201819052600090611284908301866111e3565b82810360a084015261129681866111e3565b9150508260c083015298975050505050505050565b634e487b7160e01b600052604160045260246000fd5b60405160e0810167ffffffffffffffff811182821017156112e4576112e46112ab565b60405290565b80356001600160a01b038116811461130157600080fd5b919050565b8035801515811461130157600080fd5b600082601f83011261132757600080fd5b813567ffffffffffffffff80821115611342576113426112ab565b604051601f8301601f19908116603f0116810190828211818310171561136a5761136a6112ab565b8160405283815286602085880101111561138357600080fd5b836020870160208301376000602085830101528094505050505092915050565b6000602082840312156113b557600080fd5b813567ffffffffffffffff808211156113cd57600080fd5b9083019060e082860312156113e157600080fd5b6113e96112c1565b823581526113f9602084016112ea565b602082015261140a604084016112ea565b604082015261141b60608401611306565b606082015260808301358281111561143257600080fd5b61143e87828601611316565b60808301525060a08301358281111561145657600080fd5b61146287828601611316565b60a08301525060c083013560c082015280935050505092915050565b6000806000806080858703121561149457600080fd5b61149d856112ea565b93506114ab60208601611306565b9250604085013567ffffffffffffffff808211156114c857600080fd5b6114d488838901611316565b935060608701359150808211156114ea57600080fd5b506114f787828801611316565b91505092959194509250565b634e487b7160e01b600052602160045260246000fd5b6004811061153757634e487b7160e01b600052602160045260246000fd5b9052565b602081016115498284611519565b92915050565b60006020808301818452808551808352604092508286019150828160051b87010184880160005b8381101561160e57888303603f19018552815180518452878101516001600160a01b039081168986015287820151168785015260608082015115159085015260808082015160e082870181905291906115d1838801826111e3565b9250505060a080830151868303828801526115ec83826111e3565b60c0948501519790940196909652505094870194925090860190600101611576565b509098975050505050505050565b634e487b7160e01b600052603260045260246000fd5b634e487b7160e01b600052601160045260246000fd5b600060001982141561165c5761165c611632565b5060010190565b60208082526022908201527f4f6e6c79206f776e6572732063616e2063616c6c20746869732066756e63746960408201526137b760f11b606082015260800190565b600181811c908216806116b957607f821691505b602082108114156116da57634e487b7160e01b600052602260045260246000fd5b50919050565b60208082526024908201527f54686520706f6c6c206d75737420626520696e20616e2061637469766520737460408201526330ba329760e11b606082015260800190565b60008161173357611733611632565b506000190190565b6000821982111561174e5761174e611632565b500190565b61175d8185611519565b61176a6020820184611519565b60606040820152600061178060608301846111e3565b9594505050505056fea264697066735822122043854e6b7f2473334540243d8e08f7d6c29d394ec805919b3a3d8f1161d095e764736f6c634300080c0033608060405234801561001057600080fd5b50610724806100206000396000f3fe608060405234801561001057600080fd5b506004361061004c5760003560e01c80632c6e75981461005157806369f9ad2f1461007a578063efc6c18c146100a6578063fd3bad52146100bc575b600080fd5b61006461005f3660046103a6565b6100cf565b60405161007191906103cf565b60405180910390f35b61008d61008836600461043d565b6102d9565b6040516001600160f81b03199091168152602001610071565b6100ae61030f565b604051908152602001610071565b6100ae6100ca36600461045a565b610371565b60408051602880825260608281019093526000919060208201818036833701905050905060005b60148110156102d257600061010c826013610492565b6101179060086104a9565b6101229060026105ac565b610135906001600160a01b0387166105d5565b60f81b9050600060108260f81c61014c91906105e9565b60f81b905060008160f81c6010610163919061060b565b8360f81c610171919061062c565b6040516369f9ad2f60e01b81526001600160f81b03198416600482015260f89190911b915030906369f9ad2f90602401602060405180830381865afa1580156101be573d6000803e3d6000fd5b505050506040513d601f19601f820116820180604052508101906101e2919061064f565b856101ee8660026104a9565b815181106101fe576101fe61066c565b60200101906001600160f81b031916908160001a9053506040516369f9ad2f60e01b81526001600160f81b03198216600482015230906369f9ad2f90602401602060405180830381865afa15801561025a573d6000803e3d6000fd5b505050506040513d601f19601f8201168201806040525081019061027e919061064f565b8561028a8660026104a9565b610295906001610682565b815181106102a5576102a561066c565b60200101906001600160f81b031916908160001a90535050505080806102ca9061069a565b9150506100f6565b5092915050565b6000600a60f883901c1015610300576102f760f883901c60306106b5565b60f81b92915050565b6102f760f883901c60576106b5565b604080516000602080830182905242838501524460608085019190915241901b6bffffffffffffffffffffffff19166080840152835180840360740181526094909301909352815191909201208190816103688161069a565b50909392505050565b60008061037e83856105d5565b905061038a83856106da565b1561039d5761039a816001610682565b90505b90505b92915050565b6000602082840312156103b857600080fd5b81356001600160a01b038116811461039d57600080fd5b600060208083528351808285015260005b818110156103fc578581018301518582016040015282016103e0565b8181111561040e576000604083870101525b50601f01601f1916929092016040019392505050565b6001600160f81b03198116811461043a57600080fd5b50565b60006020828403121561044f57600080fd5b813561039d81610424565b6000806040838503121561046d57600080fd5b50508035926020909101359150565b634e487b7160e01b600052601160045260246000fd5b6000828210156104a4576104a461047c565b500390565b60008160001904831182151516156104c3576104c361047c565b500290565b600181815b808511156105035781600019048211156104e9576104e961047c565b808516156104f657918102915b93841c93908002906104cd565b509250929050565b60008261051a575060016103a0565b81610527575060006103a0565b816001811461053d576002811461054757610563565b60019150506103a0565b60ff8411156105585761055861047c565b50506001821b6103a0565b5060208310610133831016604e8410600b8410161715610586575081810a6103a0565b61059083836104c8565b80600019048211156105a4576105a461047c565b029392505050565b60006105b8838361050b565b9392505050565b634e487b7160e01b600052601260045260246000fd5b6000826105e4576105e46105bf565b500490565b600060ff8316806105fc576105fc6105bf565b8060ff84160491505092915050565b600060ff821660ff84168160ff04811182151516156105a4576105a461047c565b600060ff821660ff8416808210156106465761064661047c565b90039392505050565b60006020828403121561066157600080fd5b815161039d81610424565b634e487b7160e01b600052603260045260246000fd5b600082198211156106955761069561047c565b500190565b60006000198214156106ae576106ae61047c565b5060010190565b600060ff821660ff84168060ff038211156106d2576106d261047c565b019392505050565b6000826106e9576106e96105bf565b50069056fea2646970667358221220c46253c53ef194d63f41c93fb107170a66c061ef365dbf58b0782a6a752fbe5164736f6c634300080c0033608060405234801561001057600080fd5b50610724806100206000396000f3fe608060405234801561001057600080fd5b506004361061004c5760003560e01c80632c6e75981461005157806369f9ad2f1461007a578063efc6c18c146100a6578063fd3bad52146100bc575b600080fd5b61006461005f3660046103a6565b6100cf565b60405161007191906103cf565b60405180910390f35b61008d61008836600461043d565b6102d9565b6040516001600160f81b03199091168152602001610071565b6100ae61030f565b604051908152602001610071565b6100ae6100ca36600461045a565b610371565b60408051602880825260608281019093526000919060208201818036833701905050905060005b60148110156102d257600061010c826013610492565b6101179060086104a9565b6101229060026105ac565b610135906001600160a01b0387166105d5565b60f81b9050600060108260f81c61014c91906105e9565b60f81b905060008160f81c6010610163919061060b565b8360f81c610171919061062c565b6040516369f9ad2f60e01b81526001600160f81b03198416600482015260f89190911b915030906369f9ad2f90602401602060405180830381865afa1580156101be573d6000803e3d6000fd5b505050506040513d601f19601f820116820180604052508101906101e2919061064f565b856101ee8660026104a9565b815181106101fe576101fe61066c565b60200101906001600160f81b031916908160001a9053506040516369f9ad2f60e01b81526001600160f81b03198216600482015230906369f9ad2f90602401602060405180830381865afa15801561025a573d6000803e3d6000fd5b505050506040513d601f19601f8201168201806040525081019061027e919061064f565b8561028a8660026104a9565b610295906001610682565b815181106102a5576102a561066c565b60200101906001600160f81b031916908160001a90535050505080806102ca9061069a565b9150506100f6565b5092915050565b6000600a60f883901c1015610300576102f760f883901c60306106b5565b60f81b92915050565b6102f760f883901c60576106b5565b604080516000602080830182905242838501524460608085019190915241901b6bffffffffffffffffffffffff19166080840152835180840360740181526094909301909352815191909201208190816103688161069a565b50909392505050565b60008061037e83856105d5565b905061038a83856106da565b1561039d5761039a816001610682565b90505b90505b92915050565b6000602082840312156103b857600080fd5b81356001600160a01b038116811461039d57600080fd5b600060208083528351808285015260005b818110156103fc578581018301518582016040015282016103e0565b8181111561040e576000604083870101525b50601f01601f1916929092016040019392505050565b6001600160f81b03198116811461043a57600080fd5b50565b60006020828403121561044f57600080fd5b813561039d81610424565b6000806040838503121561046d57600080fd5b50508035926020909101359150565b634e487b7160e01b600052601160045260246000fd5b6000828210156104a4576104a461047c565b500390565b60008160001904831182151516156104c3576104c361047c565b500290565b600181815b808511156105035781600019048211156104e9576104e961047c565b808516156104f657918102915b93841c93908002906104cd565b509250929050565b60008261051a575060016103a0565b81610527575060006103a0565b816001811461053d576002811461054757610563565b60019150506103a0565b60ff8411156105585761055861047c565b50506001821b6103a0565b5060208310610133831016604e8410600b8410161715610586575081810a6103a0565b61059083836104c8565b80600019048211156105a4576105a461047c565b029392505050565b60006105b8838361050b565b9392505050565b634e487b7160e01b600052601260045260246000fd5b6000826105e4576105e46105bf565b500490565b600060ff8316806105fc576105fc6105bf565b8060ff84160491505092915050565b600060ff821660ff84168160ff04811182151516156105a4576105a461047c565b600060ff821660ff8416808210156106465761064661047c565b90039392505050565b60006020828403121561066157600080fd5b815161039d81610424565b634e487b7160e01b600052603260045260246000fd5b600082198211156106955761069561047c565b500190565b60006000198214156106ae576106ae61047c565b5060010190565b600060ff821660ff84168060ff038211156106d2576106d261047c565b019392505050565b6000826106e9576106e96105bf565b50069056fea2646970667358221220c46253c53ef194d63f41c93fb107170a66c061ef365dbf58b0782a6a752fbe5164736f6c634300080c0033436f756e63696c2068617320617070726f76656420746865207265666572656e64756d21436f6e73756c746174696f6e2063616e63656c656420627920436f756e63696c21a26469706673582212202b64eea25ebe5a3b7ecd88259e88e71b249b7549676aa682a3e66b870169604664736f6c634300080c0033",
			"opcodes": "PUSH1 0x80 PUSH1 0x40 MSTORE PUSH1 0x1C PUSH1 0x2 SSTORE PUSH1 0x32 PUSH1 0x3 SSTORE PUSH1 0x1 PUSH1 0x4 SSTORE CALLVALUE DUP1 ISZERO PUSH2 0x1F JUMPI PUSH1 0x0 DUP1 REVERT JUMPDEST POP PUSH2 0x59DC DUP1 PUSH2 0x2F PUSH1 0x0 CODECOPY PUSH1 0x0 RETURN INVALID PUSH1 0x80 PUSH1 0x40 MSTORE CALLVALUE DUP1 ISZERO PUSH3 0x11 JUMPI PUSH1 0x0 DUP1 REVERT JUMPDEST POP PUSH1 0x4 CALLDATASIZE LT PUSH3 0x225 JUMPI PUSH1 0x0 CALLDATALOAD PUSH1 0xE0 SHR DUP1 PUSH4 0x9C162409 GT PUSH3 0x131 JUMPI DUP1 PUSH4 0xD0F3725F GT PUSH3 0xBB JUMPI DUP1 PUSH4 0xE1346655 GT PUSH3 0x86 JUMPI DUP1 PUSH4 0xE1346655 EQ PUSH3 0x447 JUMPI DUP1 PUSH4 0xE53D8F1D EQ PUSH3 0x451 JUMPI DUP1 PUSH4 0xED57BCB7 EQ PUSH3 0x45B JUMPI DUP1 PUSH4 0xF53CABF6 EQ PUSH3 0x465 JUMPI DUP1 PUSH4 0xF7E5B82B EQ PUSH3 0x47C JUMPI PUSH1 0x0 DUP1 REVERT JUMPDEST DUP1 PUSH4 0xD0F3725F EQ PUSH3 0x414 JUMPI DUP1 PUSH4 0xD53C85FF EQ PUSH3 0x41E JUMPI DUP1 PUSH4 0xDE292789 EQ PUSH3 0x435 JUMPI DUP1 PUSH4 0xDEFB4DD6 EQ PUSH3 0x43D JUMPI PUSH1 0x0 DUP1 REVERT JUMPDEST DUP1 PUSH4 0xC19D93FB GT PUSH3 0xFC JUMPI DUP1 PUSH4 0xC19D93FB EQ PUSH3 0x3BA JUMPI DUP1 PUSH4 0xC2E862B4 EQ PUSH3 0x3DC JUMPI DUP1 PUSH4 0xC36E4E6C EQ PUSH3 0x3F3 JUMPI DUP1 PUSH4 0xCDE87D49 EQ PUSH3 0x40A JUMPI PUSH1 0x0 DUP1 REVERT JUMPDEST DUP1 PUSH4 0x9C162409 EQ PUSH3 0x382 JUMPI DUP1 PUSH4 0xA49DA4B3 EQ PUSH3 0x399 JUMPI DUP1 PUSH4 0xADA89616 EQ PUSH3 0x25E JUMPI DUP1 PUSH4 0xBEA3FF44 EQ PUSH3 0x3A3 JUMPI PUSH1 0x0 DUP1 REVERT JUMPDEST DUP1 PUSH4 0x58E549F0 GT PUSH3 0x1B3 JUMPI DUP1 PUSH4 0x7FE63D70 GT PUSH3 0x17E JUMPI DUP1 PUSH4 0x7FE63D70 EQ PUSH3 0x345 JUMPI DUP1 PUSH4 0x828EB1FF EQ PUSH3 0x35C JUMPI DUP1 PUSH4 0x8CFE97F0 EQ PUSH3 0x36E JUMPI DUP1 PUSH4 0x96E3F4C5 EQ PUSH3 0x378 JUMPI PUSH1 0x0 DUP1 REVERT JUMPDEST DUP1 PUSH4 0x58E549F0 EQ PUSH3 0x310 JUMPI DUP1 PUSH4 0x62467CDF EQ PUSH3 0x31A JUMPI DUP1 PUSH4 0x687B995D EQ PUSH3 0x331 JUMPI DUP1 PUSH4 0x6DBF5513 EQ PUSH3 0x33B JUMPI PUSH1 0x0 DUP1 REVERT JUMPDEST DUP1 PUSH4 0x39FD2855 GT PUSH3 0x1F4 JUMPI DUP1 PUSH4 0x39FD2855 EQ PUSH3 0x2AB JUMPI DUP1 PUSH4 0x3ACD75F8 EQ PUSH3 0x2BD JUMPI DUP1 PUSH4 0x3E422F5F EQ PUSH3 0x2D6 JUMPI DUP1 PUSH4 0x51FD22B9 EQ PUSH3 0x2F9 JUMPI PUSH1 0x0 DUP1 REVERT JUMPDEST DUP1 PUSH4 0x25E7C27 EQ PUSH3 0x22A JUMPI DUP1 PUSH4 0x159E7064 EQ PUSH3 0x25E JUMPI DUP1 PUSH4 0x1F164AA7 EQ PUSH3 0x279 JUMPI DUP1 PUSH4 0x2FD0D870 EQ PUSH3 0x292 JUMPI JUMPDEST PUSH1 0x0 DUP1 REVERT JUMPDEST PUSH3 0x241 PUSH3 0x23B CALLDATASIZE PUSH1 0x4 PUSH3 0x22CA JUMP JUMPDEST PUSH3 0x486 JUMP JUMPDEST PUSH1 0x40 MLOAD PUSH1 0x1 PUSH1 0x1 PUSH1 0xA0 SHL SUB SWAP1 SWAP2 AND DUP2 MSTORE PUSH1 0x20 ADD JUMPDEST PUSH1 0x40 MLOAD DUP1 SWAP2 SUB SWAP1 RETURN JUMPDEST PUSH3 0x268 PUSH3 0x4B1 JUMP JUMPDEST PUSH1 0x40 MLOAD SWAP1 ISZERO ISZERO DUP2 MSTORE PUSH1 0x20 ADD PUSH3 0x255 JUMP JUMPDEST PUSH3 0x283 PUSH3 0x544 JUMP JUMPDEST PUSH1 0x40 MLOAD PUSH3 0x255 SWAP2 SWAP1 PUSH3 0x23C2 JUMP JUMPDEST PUSH3 0x29C PUSH3 0x5BE JUMP JUMPDEST PUSH1 0x40 MLOAD SWAP1 DUP2 MSTORE PUSH1 0x20 ADD PUSH3 0x255 JUMP JUMPDEST PUSH1 0x8 SLOAD PUSH1 0x1 PUSH1 0x1 PUSH1 0xA0 SHL SUB AND PUSH3 0x241 JUMP JUMPDEST PUSH3 0x2D4 PUSH3 0x2CE CALLDATASIZE PUSH1 0x4 PUSH3 0x243E JUMP JUMPDEST PUSH3 0x62F JUMP JUMPDEST STOP JUMPDEST PUSH1 0x6 SLOAD PUSH3 0x2EA SWAP1 PUSH3 0x10000 SWAP1 DIV PUSH1 0xFF AND DUP2 JUMP JUMPDEST PUSH1 0x40 MLOAD PUSH3 0x255 SWAP2 SWAP1 PUSH3 0x248E JUMP JUMPDEST PUSH3 0x2D4 PUSH3 0x30A CALLDATASIZE PUSH1 0x4 PUSH3 0x2562 JUMP JUMPDEST PUSH3 0x935 JUMP JUMPDEST PUSH3 0x268 PUSH3 0xA8E JUMP JUMPDEST PUSH3 0x2D4 PUSH3 0x32B CALLDATASIZE PUSH1 0x4 PUSH3 0x2562 JUMP JUMPDEST PUSH3 0xBCC JUMP JUMPDEST PUSH3 0x283 PUSH3 0xC2B JUMP JUMPDEST PUSH3 0x2D4 PUSH3 0xE23 JUMP JUMPDEST PUSH3 0x268 PUSH3 0x356 CALLDATASIZE PUSH1 0x4 PUSH3 0x2562 JUMP JUMPDEST PUSH3 0xF52 JUMP JUMPDEST PUSH1 0x7 SLOAD PUSH1 0x1 PUSH1 0x1 PUSH1 0xA0 SHL SUB AND PUSH3 0x241 JUMP JUMPDEST PUSH3 0x2D4 PUSH3 0x1039 JUMP JUMPDEST PUSH3 0x268 PUSH3 0x10D8 JUMP JUMPDEST PUSH3 0x2D4 PUSH3 0x393 CALLDATASIZE PUSH1 0x4 PUSH3 0x22CA JUMP JUMPDEST PUSH3 0x1191 JUMP JUMPDEST PUSH3 0x29C PUSH1 0x2 SLOAD DUP2 JUMP JUMPDEST PUSH3 0x268 PUSH3 0x3B4 CALLDATASIZE PUSH1 0x4 PUSH3 0x243E JUMP JUMPDEST PUSH3 0x1204 JUMP JUMPDEST PUSH1 0x6 SLOAD PUSH3 0x3CD SWAP1 PUSH2 0x100 SWAP1 DIV PUSH1 0xFF AND DUP2 JUMP JUMPDEST PUSH1 0x40 MLOAD PUSH3 0x255 SWAP2 SWAP1 PUSH3 0x2623 JUMP JUMPDEST PUSH3 0x241 PUSH3 0x3ED CALLDATASIZE PUSH1 0x4 PUSH3 0x22CA JUMP JUMPDEST PUSH3 0x12F8 JUMP JUMPDEST PUSH3 0x268 PUSH3 0x404 CALLDATASIZE PUSH1 0x4 PUSH3 0x2562 JUMP JUMPDEST PUSH3 0x1309 JUMP JUMPDEST PUSH3 0x2D4 PUSH3 0x13E9 JUMP JUMPDEST PUSH3 0x268 PUSH3 0x1514 JUMP JUMPDEST PUSH3 0x2D4 PUSH3 0x42F CALLDATASIZE PUSH1 0x4 PUSH3 0x2562 JUMP JUMPDEST PUSH3 0x1552 JUMP JUMPDEST PUSH1 0x0 PUSH3 0x2EA JUMP JUMPDEST PUSH3 0x29C PUSH3 0x1636 JUMP JUMPDEST PUSH3 0x2D4 PUSH3 0x16D8 JUMP JUMPDEST PUSH3 0x268 PUSH3 0x19C7 JUMP JUMPDEST PUSH3 0x283 PUSH3 0x19EB JUMP JUMPDEST PUSH3 0x268 PUSH3 0x476 CALLDATASIZE PUSH1 0x4 PUSH3 0x2562 JUMP JUMPDEST PUSH3 0x1AFB JUMP JUMPDEST PUSH3 0x283 PUSH3 0x1BDB JUMP JUMPDEST PUSH1 0x0 DUP2 DUP2 SLOAD DUP2 LT PUSH3 0x497 JUMPI PUSH1 0x0 DUP1 REVERT JUMPDEST PUSH1 0x0 SWAP2 DUP3 MSTORE PUSH1 0x20 SWAP1 SWAP2 KECCAK256 ADD SLOAD PUSH1 0x1 PUSH1 0x1 PUSH1 0xA0 SHL SUB AND SWAP1 POP DUP2 JUMP JUMPDEST PUSH1 0x6 SLOAD PUSH1 0x40 MLOAD PUSH4 0x65C93769 PUSH1 0xE0 SHL DUP2 MSTORE CALLER PUSH1 0x4 DUP3 ADD DUP2 SWAP1 MSTORE PUSH1 0x0 SWAP3 SWAP1 SWAP2 PUSH4 0x1000000 SWAP1 SWAP2 DIV PUSH1 0x1 PUSH1 0x1 PUSH1 0xA0 SHL SUB AND SWAP1 PUSH4 0x65C93769 SWAP1 PUSH1 0x24 ADD JUMPDEST PUSH1 0x20 PUSH1 0x40 MLOAD DUP1 DUP4 SUB DUP2 DUP7 GAS STATICCALL ISZERO DUP1 ISZERO PUSH3 0x508 JUMPI RETURNDATASIZE PUSH1 0x0 DUP1 RETURNDATACOPY RETURNDATASIZE PUSH1 0x0 REVERT JUMPDEST POP POP POP POP PUSH1 0x40 MLOAD RETURNDATASIZE PUSH1 0x1F NOT PUSH1 0x1F DUP3 ADD AND DUP3 ADD DUP1 PUSH1 0x40 MSTORE POP DUP2 ADD SWAP1 PUSH3 0x52E SWAP2 SWAP1 PUSH3 0x264F JUMP JUMPDEST ISZERO PUSH3 0x53C JUMPI PUSH1 0x1 SWAP2 POP POP SWAP1 JUMP JUMPDEST PUSH1 0x0 SWAP2 POP POP SWAP1 JUMP JUMPDEST PUSH1 0x7 SLOAD PUSH1 0x40 DUP1 MLOAD PUSH4 0x661770CB PUSH1 0xE1 SHL DUP2 MSTORE SWAP1 MLOAD PUSH1 0x60 SWAP3 PUSH1 0x1 PUSH1 0x1 PUSH1 0xA0 SHL SUB AND SWAP2 PUSH4 0xCC2EE196 SWAP2 PUSH1 0x4 DUP1 DUP4 ADD SWAP3 PUSH1 0x0 SWAP3 SWAP2 SWAP1 DUP3 SWAP1 SUB ADD DUP2 DUP7 GAS STATICCALL ISZERO DUP1 ISZERO PUSH3 0x58F JUMPI RETURNDATASIZE PUSH1 0x0 DUP1 RETURNDATACOPY RETURNDATASIZE PUSH1 0x0 REVERT JUMPDEST POP POP POP POP PUSH1 0x40 MLOAD RETURNDATASIZE PUSH1 0x0 DUP3 RETURNDATACOPY PUSH1 0x1F RETURNDATASIZE SWAP1 DUP2 ADD PUSH1 0x1F NOT AND DUP3 ADD PUSH1 0x40 MSTORE PUSH3 0x5B9 SWAP2 SWAP1 DUP2 ADD SWAP1 PUSH3 0x26EE JUMP JUMPDEST SWAP1 POP SWAP1 JUMP JUMPDEST PUSH1 0x7 SLOAD PUSH1 0x40 DUP1 MLOAD PUSH4 0x11174A29 PUSH1 0xE0 SHL DUP2 MSTORE SWAP1 MLOAD PUSH1 0x0 SWAP3 PUSH1 0x1 PUSH1 0x1 PUSH1 0xA0 SHL SUB AND SWAP2 PUSH4 0x11174A29 SWAP2 PUSH1 0x4 DUP1 DUP4 ADD SWAP3 PUSH1 0x20 SWAP3 SWAP2 SWAP1 DUP3 SWAP1 SUB ADD DUP2 DUP7 GAS STATICCALL ISZERO DUP1 ISZERO PUSH3 0x609 JUMPI RETURNDATASIZE PUSH1 0x0 DUP1 RETURNDATACOPY RETURNDATASIZE PUSH1 0x0 REVERT JUMPDEST POP POP POP POP PUSH1 0x40 MLOAD RETURNDATASIZE PUSH1 0x1F NOT PUSH1 0x1F DUP3 ADD AND DUP3 ADD DUP1 PUSH1 0x40 MSTORE POP DUP2 ADD SWAP1 PUSH3 0x5B9 SWAP2 SWAP1 PUSH3 0x2862 JUMP JUMPDEST PUSH1 0x0 DUP1 PUSH1 0x6 SLOAD PUSH2 0x100 SWAP1 DIV PUSH1 0xFF AND PUSH1 0x5 DUP2 GT ISZERO PUSH3 0x651 JUMPI PUSH3 0x651 PUSH3 0x2465 JUMP JUMPDEST EQ DUP1 PUSH3 0x67C JUMPI POP PUSH1 0x1 PUSH1 0x6 SLOAD PUSH2 0x100 SWAP1 DIV PUSH1 0xFF AND PUSH1 0x5 DUP2 GT ISZERO PUSH3 0x67A JUMPI PUSH3 0x67A PUSH3 0x2465 JUMP JUMPDEST EQ JUMPDEST DUP1 PUSH3 0x6A6 JUMPI POP PUSH1 0x2 PUSH1 0x6 SLOAD PUSH2 0x100 SWAP1 DIV PUSH1 0xFF AND PUSH1 0x5 DUP2 GT ISZERO PUSH3 0x6A4 JUMPI PUSH3 0x6A4 PUSH3 0x2465 JUMP JUMPDEST EQ JUMPDEST DUP1 PUSH3 0x6D0 JUMPI POP PUSH1 0x3 PUSH1 0x6 SLOAD PUSH2 0x100 SWAP1 DIV PUSH1 0xFF AND PUSH1 0x5 DUP2 GT ISZERO PUSH3 0x6CE JUMPI PUSH3 0x6CE PUSH3 0x2465 JUMP JUMPDEST EQ JUMPDEST ISZERO PUSH3 0x6E9 JUMPI PUSH3 0x6E0 PUSH3 0x10D8 JUMP JUMPDEST PUSH3 0x6E9 JUMPI POP PUSH1 0x1 JUMPDEST DUP1 PUSH3 0x712 JUMPI PUSH1 0x40 MLOAD PUSH3 0x461BCD PUSH1 0xE5 SHL DUP2 MSTORE PUSH1 0x4 ADD PUSH3 0x709 SWAP1 PUSH3 0x287C JUMP JUMPDEST PUSH1 0x40 MLOAD DUP1 SWAP2 SUB SWAP1 REVERT JUMPDEST PUSH1 0x2 PUSH1 0x6 SLOAD PUSH2 0x100 SWAP1 DIV PUSH1 0xFF AND PUSH1 0x5 DUP2 GT ISZERO PUSH3 0x733 JUMPI PUSH3 0x733 PUSH3 0x2465 JUMP JUMPDEST EQ ISZERO PUSH3 0x8DD JUMPI PUSH3 0x744 PUSH3 0xA8E JUMP JUMPDEST ISZERO PUSH3 0x89C JUMPI PUSH3 0x755 DUP3 PUSH3 0x1204 JUMP JUMPDEST PUSH3 0x853 JUMPI PUSH1 0x6 SLOAD PUSH1 0x40 MLOAD PUSH4 0x6F77926B PUSH1 0xE0 SHL DUP2 MSTORE PUSH1 0x1 PUSH1 0x1 PUSH1 0xA0 SHL SUB DUP5 DUP2 AND PUSH1 0x4 DUP4 ADD MSTORE PUSH1 0x0 SWAP3 PUSH4 0x1000000 SWAP1 DIV AND SWAP1 PUSH4 0x6F77926B SWAP1 PUSH1 0x24 ADD PUSH1 0x0 PUSH1 0x40 MLOAD DUP1 DUP4 SUB DUP2 DUP7 GAS STATICCALL ISZERO DUP1 ISZERO PUSH3 0x7AD JUMPI RETURNDATASIZE PUSH1 0x0 DUP1 RETURNDATACOPY RETURNDATASIZE PUSH1 0x0 REVERT JUMPDEST POP POP POP POP PUSH1 0x40 MLOAD RETURNDATASIZE PUSH1 0x0 DUP3 RETURNDATACOPY PUSH1 0x1F RETURNDATASIZE SWAP1 DUP2 ADD PUSH1 0x1F NOT AND DUP3 ADD PUSH1 0x40 MSTORE PUSH3 0x7D7 SWAP2 SWAP1 DUP2 ADD SWAP1 PUSH3 0x294B JUMP JUMPDEST PUSH1 0x7 SLOAD PUSH1 0x20 DUP3 ADD MLOAD PUSH1 0x40 DUP1 DUP5 ADD MLOAD SWAP1 MLOAD PUSH4 0x544D0431 PUSH1 0xE1 SHL DUP2 MSTORE SWAP4 SWAP5 POP PUSH1 0x1 PUSH1 0x1 PUSH1 0xA0 SHL SUB SWAP1 SWAP3 AND SWAP3 PUSH4 0xA89A0862 SWAP3 PUSH3 0x81A SWAP3 DUP9 SWAP3 PUSH1 0x0 SWAP3 SWAP1 PUSH1 0x4 ADD PUSH3 0x2A48 JUMP JUMPDEST PUSH1 0x0 PUSH1 0x40 MLOAD DUP1 DUP4 SUB DUP2 PUSH1 0x0 DUP8 DUP1 EXTCODESIZE ISZERO DUP1 ISZERO PUSH3 0x835 JUMPI PUSH1 0x0 DUP1 REVERT JUMPDEST POP GAS CALL ISZERO DUP1 ISZERO PUSH3 0x84A JUMPI RETURNDATASIZE PUSH1 0x0 DUP1 RETURNDATACOPY RETURNDATASIZE PUSH1 0x0 REVERT JUMPDEST POP POP POP POP POP POP POP JUMP JUMPDEST PUSH1 0x40 MLOAD PUSH3 0x461BCD PUSH1 0xE5 SHL DUP2 MSTORE PUSH1 0x20 PUSH1 0x4 DUP3 ADD MSTORE PUSH1 0x1C PUSH1 0x24 DUP3 ADD MSTORE PUSH32 0x43616E64696461746520616C7265616479206E6F6D696E617465642100000000 PUSH1 0x44 DUP3 ADD MSTORE PUSH1 0x64 ADD PUSH3 0x709 JUMP JUMPDEST PUSH1 0x40 MLOAD PUSH3 0x461BCD PUSH1 0xE5 SHL DUP2 MSTORE PUSH1 0x20 PUSH1 0x4 DUP3 ADD MSTORE PUSH1 0x15 PUSH1 0x24 DUP3 ADD MSTORE PUSH21 0x4E6F2073756666696369656E742072696768747321 PUSH1 0x58 SHL PUSH1 0x44 DUP3 ADD MSTORE PUSH1 0x64 ADD PUSH3 0x709 JUMP JUMPDEST PUSH1 0x40 MLOAD PUSH3 0x461BCD PUSH1 0xE5 SHL DUP2 MSTORE PUSH1 0x20 PUSH1 0x4 DUP3 ADD MSTORE PUSH1 0x26 PUSH1 0x24 DUP3 ADD MSTORE PUSH32 0x456C656374696F6E206973206E6F7420696E2073746174652050726553656C65 PUSH1 0x44 DUP3 ADD MSTORE PUSH6 0x6374696F6E21 PUSH1 0xD0 SHL PUSH1 0x64 DUP3 ADD MSTORE PUSH1 0x84 ADD PUSH3 0x709 JUMP JUMPDEST PUSH1 0x2 PUSH1 0x6 SLOAD PUSH2 0x100 SWAP1 DIV PUSH1 0xFF AND PUSH1 0x5 DUP2 GT ISZERO PUSH3 0x956 JUMPI PUSH3 0x956 PUSH3 0x2465 JUMP JUMPDEST EQ ISZERO PUSH3 0xA09 JUMPI PUSH3 0x968 DUP2 PUSH3 0x1309 JUMP JUMPDEST ISZERO PUSH3 0x9A1 JUMPI PUSH3 0x978 PUSH3 0x1D53 JUMP JUMPDEST PUSH3 0x99E PUSH1 0x3 PUSH1 0x40 MLOAD DUP1 PUSH1 0x60 ADD PUSH1 0x40 MSTORE DUP1 PUSH1 0x24 DUP2 MSTORE PUSH1 0x20 ADD PUSH3 0x5962 PUSH1 0x24 SWAP2 CODECOPY PUSH3 0x1F8E JUMP JUMPDEST POP JUMP JUMPDEST PUSH1 0x40 MLOAD PUSH3 0x461BCD PUSH1 0xE5 SHL DUP2 MSTORE PUSH1 0x20 PUSH1 0x4 DUP3 ADD MSTORE PUSH1 0x36 PUSH1 0x24 DUP3 ADD MSTORE PUSH32 0x4F6E6C79204D656D62657273206F662074686520636F756E63696C2063616E20 PUSH1 0x44 DUP3 ADD MSTORE PUSH22 0x30B8383937BB329031B7B739BAB63A30BA34B7B73997 PUSH1 0x51 SHL PUSH1 0x64 DUP3 ADD MSTORE PUSH1 0x84 ADD PUSH3 0x709 JUMP JUMPDEST PUSH1 0x40 MLOAD PUSH3 0x461BCD PUSH1 0xE5 SHL DUP2 MSTORE PUSH1 0x20 PUSH1 0x4 DUP3 ADD MSTORE PUSH1 0x4D PUSH1 0x24 DUP3 ADD MSTORE PUSH32 0x436F6E73756C746174696F6E206973206E6F7420696E20746865202741707072 PUSH1 0x44 DUP3 ADD MSTORE PUSH32 0x6F7665642720737461746520616E642063616E207468657265666F7265206E6F PUSH1 0x64 DUP3 ADD MSTORE PUSH13 0x3A1031329039BA30B93A32B217 PUSH1 0x99 SHL PUSH1 0x84 DUP3 ADD MSTORE PUSH1 0xA4 ADD PUSH3 0x709 JUMP JUMPDEST PUSH1 0x6 SLOAD PUSH1 0x40 MLOAD PUSH4 0x56909B7 PUSH1 0xE0 SHL DUP2 MSTORE CALLER PUSH1 0x4 DUP3 ADD DUP2 SWAP1 MSTORE PUSH1 0x0 SWAP3 SWAP1 SWAP2 PUSH4 0x1000000 SWAP1 SWAP2 DIV PUSH1 0x1 PUSH1 0x1 PUSH1 0xA0 SHL SUB AND SWAP1 PUSH4 0x56909B7 SWAP1 PUSH1 0x24 ADD PUSH1 0x20 PUSH1 0x40 MLOAD DUP1 DUP4 SUB DUP2 DUP7 GAS STATICCALL ISZERO DUP1 ISZERO PUSH3 0xAE4 JUMPI RETURNDATASIZE PUSH1 0x0 DUP1 RETURNDATACOPY RETURNDATASIZE PUSH1 0x0 REVERT JUMPDEST POP POP POP POP PUSH1 0x40 MLOAD RETURNDATASIZE PUSH1 0x1F NOT PUSH1 0x1F DUP3 ADD AND DUP3 ADD DUP1 PUSH1 0x40 MSTORE POP DUP2 ADD SWAP1 PUSH3 0xB0A SWAP2 SWAP1 PUSH3 0x264F JUMP JUMPDEST DUP1 PUSH3 0xB8A JUMPI POP PUSH1 0x6 SLOAD PUSH1 0x40 MLOAD PUSH4 0x7D26BD57 PUSH1 0xE1 SHL DUP2 MSTORE PUSH1 0x1 PUSH1 0x1 PUSH1 0xA0 SHL SUB DUP4 DUP2 AND PUSH1 0x4 DUP4 ADD MSTORE PUSH4 0x1000000 SWAP1 SWAP3 DIV SWAP1 SWAP2 AND SWAP1 PUSH4 0xFA4D7AAE SWAP1 PUSH1 0x24 ADD PUSH1 0x20 PUSH1 0x40 MLOAD DUP1 DUP4 SUB DUP2 DUP7 GAS STATICCALL ISZERO DUP1 ISZERO PUSH3 0xB64 JUMPI RETURNDATASIZE PUSH1 0x0 DUP1 RETURNDATACOPY RETURNDATASIZE PUSH1 0x0 REVERT JUMPDEST POP POP POP POP PUSH1 0x40 MLOAD RETURNDATASIZE PUSH1 0x1F NOT PUSH1 0x1F DUP3 ADD AND DUP3 ADD DUP1 PUSH1 0x40 MSTORE POP DUP2 ADD SWAP1 PUSH3 0xB8A SWAP2 SWAP1 PUSH3 0x264F JUMP JUMPDEST DUP1 PUSH3 0x52E JUMPI POP PUSH1 0x6 SLOAD PUSH1 0x40 MLOAD PUSH4 0x297027D5 PUSH1 0xE0 SHL DUP2 MSTORE PUSH1 0x1 PUSH1 0x1 PUSH1 0xA0 SHL SUB DUP4 DUP2 AND PUSH1 0x4 DUP4 ADD MSTORE PUSH4 0x1000000 SWAP1 SWAP3 DIV SWAP1 SWAP2 AND SWAP1 PUSH4 0x297027D5 SWAP1 PUSH1 0x24 ADD PUSH3 0x4EA JUMP JUMPDEST PUSH1 0x1 PUSH1 0x6 SLOAD PUSH2 0x100 SWAP1 DIV PUSH1 0xFF AND PUSH1 0x5 DUP2 GT ISZERO PUSH3 0xBED JUMPI PUSH3 0xBED PUSH3 0x2465 JUMP JUMPDEST EQ ISZERO PUSH3 0xA09 JUMPI PUSH3 0xBFF DUP2 PUSH3 0x1309 JUMP JUMPDEST ISZERO PUSH3 0x9A1 JUMPI PUSH3 0x99E PUSH1 0x2 PUSH1 0x40 MLOAD DUP1 PUSH1 0x60 ADD PUSH1 0x40 MSTORE DUP1 PUSH1 0x24 DUP2 MSTORE PUSH1 0x20 ADD PUSH3 0x5962 PUSH1 0x24 SWAP2 CODECOPY PUSH3 0x1F8E JUMP JUMPDEST PUSH1 0x60 PUSH1 0x0 PUSH1 0x7 PUSH1 0x0 SWAP1 SLOAD SWAP1 PUSH2 0x100 EXP SWAP1 DIV PUSH1 0x1 PUSH1 0x1 PUSH1 0xA0 SHL SUB AND PUSH1 0x1 PUSH1 0x1 PUSH1 0xA0 SHL SUB AND PUSH4 0xCC2EE196 PUSH1 0x40 MLOAD DUP2 PUSH4 0xFFFFFFFF AND PUSH1 0xE0 SHL DUP2 MSTORE PUSH1 0x4 ADD PUSH1 0x0 PUSH1 0x40 MLOAD DUP1 DUP4 SUB DUP2 DUP7 GAS STATICCALL ISZERO DUP1 ISZERO PUSH3 0xC83 JUMPI RETURNDATASIZE PUSH1 0x0 DUP1 RETURNDATACOPY RETURNDATASIZE PUSH1 0x0 REVERT JUMPDEST POP POP POP POP PUSH1 0x40 MLOAD RETURNDATASIZE PUSH1 0x0 DUP3 RETURNDATACOPY PUSH1 0x1F RETURNDATASIZE SWAP1 DUP2 ADD PUSH1 0x1F NOT AND DUP3 ADD PUSH1 0x40 MSTORE PUSH3 0xCAD SWAP2 SWAP1 DUP2 ADD SWAP1 PUSH3 0x26EE JUMP JUMPDEST SWAP1 POP PUSH1 0x0 DUP2 MLOAD PUSH1 0x1 PUSH1 0x1 PUSH1 0x40 SHL SUB DUP2 GT ISZERO PUSH3 0xCCD JUMPI PUSH3 0xCCD PUSH3 0x24A3 JUMP JUMPDEST PUSH1 0x40 MLOAD SWAP1 DUP1 DUP3 MSTORE DUP1 PUSH1 0x20 MUL PUSH1 0x20 ADD DUP3 ADD PUSH1 0x40 MSTORE DUP1 ISZERO PUSH3 0xD0A JUMPI DUP2 PUSH1 0x20 ADD JUMPDEST PUSH3 0xCF6 PUSH3 0x21DC JUMP JUMPDEST DUP2 MSTORE PUSH1 0x20 ADD SWAP1 PUSH1 0x1 SWAP1 SUB SWAP1 DUP2 PUSH3 0xCEC JUMPI SWAP1 POP JUMPDEST POP SWAP1 POP PUSH1 0x0 DUP1 JUMPDEST DUP4 MLOAD DUP2 LT ISZERO PUSH3 0xE1A JUMPI PUSH1 0x7 SLOAD DUP5 MLOAD PUSH1 0x1 PUSH1 0x1 PUSH1 0xA0 SHL SUB SWAP1 SWAP2 AND SWAP1 PUSH4 0xE0A96CD6 SWAP1 DUP7 SWAP1 DUP5 SWAP1 DUP2 LT PUSH3 0xD47 JUMPI PUSH3 0xD47 PUSH3 0x2A8A JUMP JUMPDEST PUSH1 0x20 MUL PUSH1 0x20 ADD ADD MLOAD PUSH1 0x40 MLOAD DUP3 PUSH4 0xFFFFFFFF AND PUSH1 0xE0 SHL DUP2 MSTORE PUSH1 0x4 ADD PUSH3 0xD6D SWAP2 SWAP1 PUSH3 0x2AA0 JUMP JUMPDEST PUSH1 0x20 PUSH1 0x40 MLOAD DUP1 DUP4 SUB DUP2 DUP7 GAS STATICCALL ISZERO DUP1 ISZERO PUSH3 0xD8B JUMPI RETURNDATASIZE PUSH1 0x0 DUP1 RETURNDATACOPY RETURNDATASIZE PUSH1 0x0 REVERT JUMPDEST POP POP POP POP PUSH1 0x40 MLOAD RETURNDATASIZE PUSH1 0x1F NOT PUSH1 0x1F DUP3 ADD AND DUP3 ADD DUP1 PUSH1 0x40 MSTORE POP DUP2 ADD SWAP1 PUSH3 0xDB1 SWAP2 SWAP1 PUSH3 0x264F JUMP JUMPDEST ISZERO PUSH3 0xE05 JUMPI DUP4 DUP2 DUP2 MLOAD DUP2 LT PUSH3 0xDCC JUMPI PUSH3 0xDCC PUSH3 0x2A8A JUMP JUMPDEST PUSH1 0x20 MUL PUSH1 0x20 ADD ADD MLOAD DUP4 DUP4 DUP2 MLOAD DUP2 LT PUSH3 0xDE9 JUMPI PUSH3 0xDE9 PUSH3 0x2A8A JUMP JUMPDEST PUSH1 0x20 MUL PUSH1 0x20 ADD ADD DUP2 SWAP1 MSTORE POP DUP2 DUP1 PUSH3 0xE01 SWAP1 PUSH3 0x2ACB JUMP JUMPDEST SWAP3 POP POP JUMPDEST DUP1 PUSH3 0xE11 DUP2 PUSH3 0x2ACB JUMP JUMPDEST SWAP2 POP POP PUSH3 0xD11 JUMP JUMPDEST POP DUP2 MSTORE SWAP3 SWAP2 POP POP JUMP JUMPDEST PUSH1 0x40 DUP1 MLOAD PUSH1 0x1 DUP1 DUP3 MSTORE DUP2 DUP4 ADD SWAP1 SWAP3 MSTORE PUSH20 0x5B38DA6A701C568545DCFCB03FCB875F56BEDDC4 SWAP2 PUSH1 0x0 SWAP2 SWAP1 PUSH1 0x20 DUP1 DUP4 ADD SWAP1 DUP1 CALLDATASIZE DUP4 CALLDATACOPY ADD SWAP1 POP POP SWAP1 POP DUP2 DUP2 PUSH1 0x0 DUP2 MLOAD DUP2 LT PUSH3 0xE73 JUMPI PUSH3 0xE73 PUSH3 0x2A8A JUMP JUMPDEST PUSH1 0x1 PUSH1 0x1 PUSH1 0xA0 SHL SUB SWAP3 SWAP1 SWAP3 AND PUSH1 0x20 SWAP3 DUP4 MUL SWAP2 SWAP1 SWAP2 ADD DUP3 ADD MSTORE PUSH1 0x6 DUP1 SLOAD PUSH4 0x1000000 PUSH1 0x1 PUSH1 0xB8 SHL SUB NOT AND PUSH23 0x9279F54DAC3570D115ADB6083F85D05A4E6F41AD000000 OR SWAP1 SSTORE PUSH1 0x40 DUP1 MLOAD DUP1 DUP3 ADD DUP3 MSTORE PUSH1 0xC DUP2 MSTORE PUSH12 0x2A32B9BA22B632B1BA34B7B7 PUSH1 0xA1 SHL DUP2 DUP5 ADD MSTORE DUP2 MLOAD DUP1 DUP4 ADD SWAP1 SWAP3 MSTORE PUSH1 0x17 DUP3 MSTORE PUSH32 0x54657374456C656374696F6E4445736372697074696F6E000000000000000000 SWAP3 DUP3 ADD SWAP3 SWAP1 SWAP3 MSTORE PUSH1 0x0 PUSH1 0x2 PUSH3 0xF1F DUP6 DUP6 DUP6 DUP6 DUP6 PUSH3 0x2005 JUMP JUMPDEST PUSH3 0xF2A DUP6 PUSH3 0x1552 JUMP JUMPDEST PUSH3 0xF35 DUP6 PUSH3 0xBCC JUMP JUMPDEST PUSH3 0xF40 DUP7 PUSH3 0x62F JUMP JUMPDEST PUSH3 0xF4A PUSH3 0x16D8 JUMP JUMPDEST POP POP POP POP POP POP JUMP JUMPDEST PUSH1 0x0 PUSH1 0x1 DUP2 JUMPDEST DUP4 MLOAD DUP2 LT ISZERO PUSH3 0x1032 JUMPI PUSH1 0x6 PUSH1 0x3 SWAP1 SLOAD SWAP1 PUSH2 0x100 EXP SWAP1 DIV PUSH1 0x1 PUSH1 0x1 PUSH1 0xA0 SHL SUB AND PUSH1 0x1 PUSH1 0x1 PUSH1 0xA0 SHL SUB AND PUSH4 0xFA4D7AAE DUP6 DUP4 DUP2 MLOAD DUP2 LT PUSH3 0xF9B JUMPI PUSH3 0xF9B PUSH3 0x2A8A JUMP JUMPDEST PUSH1 0x20 MUL PUSH1 0x20 ADD ADD MLOAD PUSH1 0x40 MLOAD DUP3 PUSH4 0xFFFFFFFF AND PUSH1 0xE0 SHL DUP2 MSTORE PUSH1 0x4 ADD PUSH3 0xFCF SWAP2 SWAP1 PUSH1 0x1 PUSH1 0x1 PUSH1 0xA0 SHL SUB SWAP2 SWAP1 SWAP2 AND DUP2 MSTORE PUSH1 0x20 ADD SWAP1 JUMP JUMPDEST PUSH1 0x20 PUSH1 0x40 MLOAD DUP1 DUP4 SUB DUP2 DUP7 GAS STATICCALL ISZERO DUP1 ISZERO PUSH3 0xFED JUMPI RETURNDATASIZE PUSH1 0x0 DUP1 RETURNDATACOPY RETURNDATASIZE PUSH1 0x0 REVERT JUMPDEST POP POP POP POP PUSH1 0x40 MLOAD RETURNDATASIZE PUSH1 0x1F NOT PUSH1 0x1F DUP3 ADD AND DUP3 ADD DUP1 PUSH1 0x40 MSTORE POP DUP2 ADD SWAP1 PUSH3 0x1013 SWAP2 SWAP1 PUSH3 0x264F JUMP JUMPDEST PUSH3 0x101D JUMPI PUSH1 0x0 SWAP2 POP JUMPDEST DUP1 PUSH3 0x1029 DUP2 PUSH3 0x2ACB JUMP JUMPDEST SWAP2 POP POP PUSH3 0xF58 JUMP JUMPDEST POP SWAP3 SWAP2 POP POP JUMP JUMPDEST PUSH3 0x1043 PUSH3 0x1514 JUMP JUMPDEST ISZERO PUSH3 0x1071 JUMPI PUSH3 0x106F PUSH1 0x2 PUSH1 0x40 MLOAD DUP1 PUSH1 0x60 ADD PUSH1 0x40 MSTORE DUP1 PUSH1 0x21 DUP2 MSTORE PUSH1 0x20 ADD PUSH3 0x5986 PUSH1 0x21 SWAP2 CODECOPY PUSH3 0x21A9 JUMP JUMPDEST JUMP JUMPDEST PUSH1 0x40 MLOAD PUSH3 0x461BCD PUSH1 0xE5 SHL DUP2 MSTORE PUSH1 0x20 PUSH1 0x4 DUP3 ADD MSTORE PUSH1 0x35 PUSH1 0x24 DUP3 ADD MSTORE PUSH32 0x4F6E6C79204D656D62657273206F662074686520636F756E63696C2063616E20 PUSH1 0x44 DUP3 ADD MSTORE PUSH21 0x31B0B731B2B61031B7B739BAB63A30BA34B7B73997 PUSH1 0x59 SHL PUSH1 0x64 DUP3 ADD MSTORE PUSH1 0x84 ADD PUSH3 0x709 JUMP JUMPDEST PUSH1 0x2 SLOAD PUSH1 0x0 SWAP1 DUP2 SWAP1 TIMESTAMP SWAP1 DUP3 SWAP1 PUSH3 0x10F3 SWAP1 PUSH3 0x15180 PUSH3 0x2AE9 JUMP JUMPDEST PUSH1 0x7 PUSH1 0x0 SWAP1 SLOAD SWAP1 PUSH2 0x100 EXP SWAP1 DIV PUSH1 0x1 PUSH1 0x1 PUSH1 0xA0 SHL SUB AND PUSH1 0x1 PUSH1 0x1 PUSH1 0xA0 SHL SUB AND PUSH4 0xB90C1DBB PUSH1 0x40 MLOAD DUP2 PUSH4 0xFFFFFFFF AND PUSH1 0xE0 SHL DUP2 MSTORE PUSH1 0x4 ADD PUSH1 0x20 PUSH1 0x40 MLOAD DUP1 DUP4 SUB DUP2 DUP7 GAS STATICCALL ISZERO DUP1 ISZERO PUSH3 0x1147 JUMPI RETURNDATASIZE PUSH1 0x0 DUP1 RETURNDATACOPY RETURNDATASIZE PUSH1 0x0 REVERT JUMPDEST POP POP POP POP PUSH1 0x40 MLOAD RETURNDATASIZE PUSH1 0x1F NOT PUSH1 0x1F DUP3 ADD AND DUP3 ADD DUP1 PUSH1 0x40 MSTORE POP DUP2 ADD SWAP1 PUSH3 0x116D SWAP2 SWAP1 PUSH3 0x2862 JUMP JUMPDEST PUSH3 0x1179 SWAP2 SWAP1 PUSH3 0x2B0B JUMP JUMPDEST SWAP1 POP DUP1 DUP3 GT ISZERO PUSH3 0x1189 JUMPI PUSH1 0x1 SWAP3 POP JUMPDEST POP SWAP1 SWAP3 SWAP2 POP POP JUMP JUMPDEST PUSH3 0x119B PUSH3 0x4B1 JUMP JUMPDEST ISZERO PUSH3 0x99E JUMPI PUSH1 0x7 SLOAD PUSH1 0x40 MLOAD PUSH4 0x191A5F8B PUSH1 0xE2 SHL DUP2 MSTORE PUSH1 0x4 DUP2 ADD DUP4 SWAP1 MSTORE PUSH1 0x1 PUSH1 0x1 PUSH1 0xA0 SHL SUB SWAP1 SWAP2 AND SWAP1 PUSH4 0x64697E2C SWAP1 PUSH1 0x24 ADD PUSH1 0x0 PUSH1 0x40 MLOAD DUP1 DUP4 SUB DUP2 PUSH1 0x0 DUP8 DUP1 EXTCODESIZE ISZERO DUP1 ISZERO PUSH3 0x11E8 JUMPI PUSH1 0x0 DUP1 REVERT JUMPDEST POP GAS CALL ISZERO DUP1 ISZERO PUSH3 0x11FD JUMPI RETURNDATASIZE PUSH1 0x0 DUP1 RETURNDATACOPY RETURNDATASIZE PUSH1 0x0 REVERT JUMPDEST POP POP POP POP POP JUMP JUMPDEST PUSH1 0x0 DUP1 PUSH1 0x7 PUSH1 0x0 SWAP1 SLOAD SWAP1 PUSH2 0x100 EXP SWAP1 DIV PUSH1 0x1 PUSH1 0x1 PUSH1 0xA0 SHL SUB AND PUSH1 0x1 PUSH1 0x1 PUSH1 0xA0 SHL SUB AND PUSH4 0xCC2EE196 PUSH1 0x40 MLOAD DUP2 PUSH4 0xFFFFFFFF AND PUSH1 0xE0 SHL DUP2 MSTORE PUSH1 0x4 ADD PUSH1 0x0 PUSH1 0x40 MLOAD DUP1 DUP4 SUB DUP2 DUP7 GAS STATICCALL ISZERO DUP1 ISZERO PUSH3 0x125B JUMPI RETURNDATASIZE PUSH1 0x0 DUP1 RETURNDATACOPY RETURNDATASIZE PUSH1 0x0 REVERT JUMPDEST POP POP POP POP PUSH1 0x40 MLOAD RETURNDATASIZE PUSH1 0x0 DUP3 RETURNDATACOPY PUSH1 0x1F RETURNDATASIZE SWAP1 DUP2 ADD PUSH1 0x1F NOT AND DUP3 ADD PUSH1 0x40 MSTORE PUSH3 0x1285 SWAP2 SWAP1 DUP2 ADD SWAP1 PUSH3 0x26EE JUMP JUMPDEST SWAP1 POP PUSH1 0x0 JUMPDEST DUP2 MLOAD DUP2 LT ISZERO PUSH3 0x12EE JUMPI DUP2 DUP2 DUP2 MLOAD DUP2 LT PUSH3 0x12A9 JUMPI PUSH3 0x12A9 PUSH3 0x2A8A JUMP JUMPDEST PUSH1 0x20 MUL PUSH1 0x20 ADD ADD MLOAD PUSH1 0x20 ADD MLOAD PUSH1 0x1 PUSH1 0x1 PUSH1 0xA0 SHL SUB AND DUP5 PUSH1 0x1 PUSH1 0x1 PUSH1 0xA0 SHL SUB AND EQ ISZERO PUSH3 0x12D9 JUMPI POP PUSH1 0x1 SWAP4 SWAP3 POP POP POP JUMP JUMPDEST DUP1 PUSH3 0x12E5 DUP2 PUSH3 0x2ACB JUMP JUMPDEST SWAP2 POP POP PUSH3 0x128A JUMP JUMPDEST POP PUSH1 0x0 SWAP4 SWAP3 POP POP POP JUMP JUMPDEST PUSH1 0x1 DUP2 DUP2 SLOAD DUP2 LT PUSH3 0x497 JUMPI PUSH1 0x0 DUP1 REVERT JUMPDEST PUSH1 0x0 PUSH1 0x1 DUP2 JUMPDEST DUP4 MLOAD DUP2 LT ISZERO PUSH3 0x1032 JUMPI PUSH1 0x6 PUSH1 0x3 SWAP1 SLOAD SWAP1 PUSH2 0x100 EXP SWAP1 DIV PUSH1 0x1 PUSH1 0x1 PUSH1 0xA0 SHL SUB AND PUSH1 0x1 PUSH1 0x1 PUSH1 0xA0 SHL SUB AND PUSH4 0xFA4D7AAE DUP6 DUP4 DUP2 MLOAD DUP2 LT PUSH3 0x1352 JUMPI PUSH3 0x1352 PUSH3 0x2A8A JUMP JUMPDEST PUSH1 0x20 MUL PUSH1 0x20 ADD ADD MLOAD PUSH1 0x40 MLOAD DUP3 PUSH4 0xFFFFFFFF AND PUSH1 0xE0 SHL DUP2 MSTORE PUSH1 0x4 ADD PUSH3 0x1386 SWAP2 SWAP1 PUSH1 0x1 PUSH1 0x1 PUSH1 0xA0 SHL SUB SWAP2 SWAP1 SWAP2 AND DUP2 MSTORE PUSH1 0x20 ADD SWAP1 JUMP JUMPDEST PUSH1 0x20 PUSH1 0x40 MLOAD DUP1 DUP4 SUB DUP2 DUP7 GAS STATICCALL ISZERO DUP1 ISZERO PUSH3 0x13A4 JUMPI RETURNDATASIZE PUSH1 0x0 DUP1 RETURNDATACOPY RETURNDATASIZE PUSH1 0x0 REVERT JUMPDEST POP POP POP POP PUSH1 0x40 MLOAD RETURNDATASIZE PUSH1 0x1F NOT PUSH1 0x1F DUP3 ADD AND DUP3 ADD DUP1 PUSH1 0x40 MSTORE POP DUP2 ADD SWAP1 PUSH3 0x13CA SWAP2 SWAP1 PUSH3 0x264F JUMP JUMPDEST PUSH3 0x13D4 JUMPI PUSH1 0x0 SWAP2 POP JUMPDEST DUP1 PUSH3 0x13E0 DUP2 PUSH3 0x2ACB JUMP JUMPDEST SWAP2 POP POP PUSH3 0x130F JUMP JUMPDEST PUSH1 0x0 DUP1 PUSH1 0x6 SLOAD PUSH2 0x100 SWAP1 DIV PUSH1 0xFF AND PUSH1 0x5 DUP2 GT ISZERO PUSH3 0x140B JUMPI PUSH3 0x140B PUSH3 0x2465 JUMP JUMPDEST EQ DUP1 PUSH3 0x1436 JUMPI POP PUSH1 0x1 PUSH1 0x6 SLOAD PUSH2 0x100 SWAP1 DIV PUSH1 0xFF AND PUSH1 0x5 DUP2 GT ISZERO PUSH3 0x1434 JUMPI PUSH3 0x1434 PUSH3 0x2465 JUMP JUMPDEST EQ JUMPDEST DUP1 PUSH3 0x1460 JUMPI POP PUSH1 0x2 PUSH1 0x6 SLOAD PUSH2 0x100 SWAP1 DIV PUSH1 0xFF AND PUSH1 0x5 DUP2 GT ISZERO PUSH3 0x145E JUMPI PUSH3 0x145E PUSH3 0x2465 JUMP JUMPDEST EQ JUMPDEST DUP1 PUSH3 0x148A JUMPI POP PUSH1 0x3 PUSH1 0x6 SLOAD PUSH2 0x100 SWAP1 DIV PUSH1 0xFF AND PUSH1 0x5 DUP2 GT ISZERO PUSH3 0x1488 JUMPI PUSH3 0x1488 PUSH3 0x2465 JUMP JUMPDEST EQ JUMPDEST ISZERO PUSH3 0x14A3 JUMPI PUSH3 0x149A PUSH3 0x10D8 JUMP JUMPDEST PUSH3 0x14A3 JUMPI POP PUSH1 0x1 JUMPDEST DUP1 PUSH3 0x14C3 JUMPI PUSH1 0x40 MLOAD PUSH3 0x461BCD PUSH1 0xE5 SHL DUP2 MSTORE PUSH1 0x4 ADD PUSH3 0x709 SWAP1 PUSH3 0x287C JUMP JUMPDEST PUSH1 0x7 PUSH1 0x0 SWAP1 SLOAD SWAP1 PUSH2 0x100 EXP SWAP1 DIV PUSH1 0x1 PUSH1 0x1 PUSH1 0xA0 SHL SUB AND PUSH1 0x1 PUSH1 0x1 PUSH1 0xA0 SHL SUB AND PUSH4 0xD9F3A5C1 PUSH1 0x40 MLOAD DUP2 PUSH4 0xFFFFFFFF AND PUSH1 0xE0 SHL DUP2 MSTORE PUSH1 0x4 ADD PUSH1 0x0 PUSH1 0x40 MLOAD DUP1 DUP4 SUB DUP2 PUSH1 0x0 DUP8 DUP1 EXTCODESIZE ISZERO DUP1 ISZERO PUSH3 0x11E8 JUMPI PUSH1 0x0 DUP1 REVERT JUMPDEST PUSH1 0x6 SLOAD PUSH1 0x40 MLOAD PUSH4 0x7D26BD57 PUSH1 0xE1 SHL DUP2 MSTORE CALLER PUSH1 0x4 DUP3 ADD DUP2 SWAP1 MSTORE PUSH1 0x0 SWAP3 SWAP1 SWAP2 PUSH4 0x1000000 SWAP1 SWAP2 DIV PUSH1 0x1 PUSH1 0x1 PUSH1 0xA0 SHL SUB AND SWAP1 PUSH4 0xFA4D7AAE SWAP1 PUSH1 0x24 ADD PUSH3 0x4EA JUMP JUMPDEST PUSH1 0x0 PUSH1 0x6 SLOAD PUSH2 0x100 SWAP1 DIV PUSH1 0xFF AND PUSH1 0x5 DUP2 GT ISZERO PUSH3 0x1573 JUMPI PUSH3 0x1573 PUSH3 0x2465 JUMP JUMPDEST EQ ISZERO PUSH3 0x15B1 JUMPI PUSH3 0x1585 DUP2 PUSH3 0xF52 JUMP JUMPDEST ISZERO PUSH3 0x9A1 JUMPI PUSH3 0x99E PUSH1 0x1 PUSH1 0x40 MLOAD DUP1 PUSH1 0x60 ADD PUSH1 0x40 MSTORE DUP1 PUSH1 0x24 DUP2 MSTORE PUSH1 0x20 ADD PUSH3 0x5962 PUSH1 0x24 SWAP2 CODECOPY PUSH3 0x1F8E JUMP JUMPDEST PUSH1 0x40 MLOAD PUSH3 0x461BCD PUSH1 0xE5 SHL DUP2 MSTORE PUSH1 0x20 PUSH1 0x4 DUP3 ADD MSTORE PUSH1 0x4D PUSH1 0x24 DUP3 ADD MSTORE PUSH32 0x436F6E73756C746174696F6E206973206E6F7420696E20746865202743726561 PUSH1 0x44 DUP3 ADD MSTORE PUSH32 0x7465642720737461746520616E642063616E207468657265666F7265206E6F74 PUSH1 0x64 DUP3 ADD MSTORE PUSH13 0x1031329030B8383937BB32B217 PUSH1 0x99 SHL PUSH1 0x84 DUP3 ADD MSTORE PUSH1 0xA4 ADD PUSH3 0x709 JUMP JUMPDEST PUSH1 0x0 DUP1 PUSH3 0x1643 PUSH3 0x5BE JUMP JUMPDEST PUSH1 0x9 SLOAD PUSH1 0x3 SLOAD SWAP2 SWAP3 POP PUSH1 0x1 PUSH1 0x1 PUSH1 0xA0 SHL SUB AND SWAP1 PUSH4 0xFD3BAD52 SWAP1 PUSH3 0x1668 SWAP1 DUP5 PUSH3 0x2AE9 JUMP JUMPDEST PUSH1 0x40 MLOAD PUSH1 0x1 PUSH1 0x1 PUSH1 0xE0 SHL SUB NOT PUSH1 0xE0 DUP5 SWAP1 SHL AND DUP2 MSTORE PUSH1 0x4 DUP2 ADD SWAP2 SWAP1 SWAP2 MSTORE PUSH1 0x64 PUSH1 0x24 DUP3 ADD MSTORE PUSH1 0x44 ADD PUSH1 0x20 PUSH1 0x40 MLOAD DUP1 DUP4 SUB DUP2 DUP7 GAS STATICCALL ISZERO DUP1 ISZERO PUSH3 0x16AC JUMPI RETURNDATASIZE PUSH1 0x0 DUP1 RETURNDATACOPY RETURNDATASIZE PUSH1 0x0 REVERT JUMPDEST POP POP POP POP PUSH1 0x40 MLOAD RETURNDATASIZE PUSH1 0x1F NOT PUSH1 0x1F DUP3 ADD AND DUP3 ADD DUP1 PUSH1 0x40 MSTORE POP DUP2 ADD SWAP1 PUSH3 0x16D2 SWAP2 SWAP1 PUSH3 0x2862 JUMP JUMPDEST SWAP2 POP POP SWAP1 JUMP JUMPDEST PUSH1 0x0 DUP1 PUSH1 0x6 SLOAD PUSH2 0x100 SWAP1 DIV PUSH1 0xFF AND PUSH1 0x5 DUP2 GT ISZERO PUSH3 0x16FA JUMPI PUSH3 0x16FA PUSH3 0x2465 JUMP JUMPDEST EQ DUP1 PUSH3 0x1725 JUMPI POP PUSH1 0x1 PUSH1 0x6 SLOAD PUSH2 0x100 SWAP1 DIV PUSH1 0xFF AND PUSH1 0x5 DUP2 GT ISZERO PUSH3 0x1723 JUMPI PUSH3 0x1723 PUSH3 0x2465 JUMP JUMPDEST EQ JUMPDEST DUP1 PUSH3 0x174F JUMPI POP PUSH1 0x2 PUSH1 0x6 SLOAD PUSH2 0x100 SWAP1 DIV PUSH1 0xFF AND PUSH1 0x5 DUP2 GT ISZERO PUSH3 0x174D JUMPI PUSH3 0x174D PUSH3 0x2465 JUMP JUMPDEST EQ JUMPDEST DUP1 PUSH3 0x1779 JUMPI POP PUSH1 0x3 PUSH1 0x6 SLOAD PUSH2 0x100 SWAP1 DIV PUSH1 0xFF AND PUSH1 0x5 DUP2 GT ISZERO PUSH3 0x1777 JUMPI PUSH3 0x1777 PUSH3 0x2465 JUMP JUMPDEST EQ JUMPDEST ISZERO PUSH3 0x1792 JUMPI PUSH3 0x1789 PUSH3 0x10D8 JUMP JUMPDEST PUSH3 0x1792 JUMPI POP PUSH1 0x1 JUMPDEST DUP1 PUSH3 0x17B2 JUMPI PUSH1 0x40 MLOAD PUSH3 0x461BCD PUSH1 0xE5 SHL DUP2 MSTORE PUSH1 0x4 ADD PUSH3 0x709 SWAP1 PUSH3 0x287C JUMP JUMPDEST PUSH1 0x2 PUSH1 0x6 SLOAD PUSH2 0x100 SWAP1 DIV PUSH1 0xFF AND PUSH1 0x5 DUP2 GT ISZERO PUSH3 0x17D3 JUMPI PUSH3 0x17D3 PUSH3 0x2465 JUMP JUMPDEST EQ ISZERO PUSH3 0x8DD JUMPI PUSH1 0x7 SLOAD PUSH1 0x40 DUP1 MLOAD PUSH4 0x661770CB PUSH1 0xE1 SHL DUP2 MSTORE SWAP1 MLOAD PUSH1 0x0 SWAP3 PUSH1 0x1 PUSH1 0x1 PUSH1 0xA0 SHL SUB AND SWAP2 PUSH4 0xCC2EE196 SWAP2 PUSH1 0x4 DUP1 DUP4 ADD SWAP3 DUP7 SWAP3 SWAP2 SWAP1 DUP3 SWAP1 SUB ADD DUP2 DUP7 GAS STATICCALL ISZERO DUP1 ISZERO PUSH3 0x1824 JUMPI RETURNDATASIZE PUSH1 0x0 DUP1 RETURNDATACOPY RETURNDATASIZE PUSH1 0x0 REVERT JUMPDEST POP POP POP POP PUSH1 0x40 MLOAD RETURNDATASIZE PUSH1 0x0 DUP3 RETURNDATACOPY PUSH1 0x1F RETURNDATASIZE SWAP1 DUP2 ADD PUSH1 0x1F NOT AND DUP3 ADD PUSH1 0x40 MSTORE PUSH3 0x184E SWAP2 SWAP1 DUP2 ADD SWAP1 PUSH3 0x26EE JUMP JUMPDEST SWAP1 POP PUSH1 0x0 JUMPDEST DUP2 MLOAD DUP2 LT ISZERO PUSH3 0x197D JUMPI DUP2 DUP2 DUP2 MLOAD DUP2 LT PUSH3 0x1872 JUMPI PUSH3 0x1872 PUSH3 0x2A8A JUMP JUMPDEST PUSH1 0x20 MUL PUSH1 0x20 ADD ADD MLOAD PUSH1 0x20 ADD MLOAD PUSH1 0x1 PUSH1 0x1 PUSH1 0xA0 SHL SUB AND CALLER PUSH1 0x1 PUSH1 0x1 PUSH1 0xA0 SHL SUB AND EQ ISZERO PUSH3 0x1968 JUMPI DUP2 DUP2 DUP2 MLOAD DUP2 LT PUSH3 0x18AD JUMPI PUSH3 0x18AD PUSH3 0x2A8A JUMP JUMPDEST PUSH1 0x20 MUL PUSH1 0x20 ADD ADD MLOAD PUSH1 0x60 ADD MLOAD PUSH3 0x1915 JUMPI PUSH1 0x7 SLOAD DUP3 MLOAD PUSH1 0x1 PUSH1 0x1 PUSH1 0xA0 SHL SUB SWAP1 SWAP2 AND SWAP1 PUSH4 0xDDD7531B SWAP1 DUP5 SWAP1 DUP5 SWAP1 DUP2 LT PUSH3 0x18EA JUMPI PUSH3 0x18EA PUSH3 0x2A8A JUMP JUMPDEST PUSH1 0x20 MUL PUSH1 0x20 ADD ADD MLOAD PUSH1 0x0 ADD MLOAD PUSH1 0x40 MLOAD DUP3 PUSH4 0xFFFFFFFF AND PUSH1 0xE0 SHL DUP2 MSTORE PUSH1 0x4 ADD PUSH3 0x81A SWAP2 DUP2 MSTORE PUSH1 0x20 ADD SWAP1 JUMP JUMPDEST PUSH1 0x40 MLOAD PUSH3 0x461BCD PUSH1 0xE5 SHL DUP2 MSTORE PUSH1 0x20 PUSH1 0x4 DUP3 ADD MSTORE PUSH1 0x21 PUSH1 0x24 DUP3 ADD MSTORE PUSH32 0x43616E64696461747572652077617320616C7265616479206163636570746564 PUSH1 0x44 DUP3 ADD MSTORE PUSH1 0x21 PUSH1 0xF8 SHL PUSH1 0x64 DUP3 ADD MSTORE PUSH1 0x84 ADD PUSH3 0x709 JUMP JUMPDEST DUP1 PUSH3 0x1974 DUP2 PUSH3 0x2ACB JUMP JUMPDEST SWAP2 POP POP PUSH3 0x1853 JUMP JUMPDEST POP PUSH1 0x40 MLOAD PUSH3 0x461BCD PUSH1 0xE5 SHL DUP2 MSTORE PUSH1 0x20 PUSH1 0x4 DUP3 ADD MSTORE PUSH1 0x1B PUSH1 0x24 DUP3 ADD MSTORE PUSH32 0x43616E646964617465206973206E6F74206E6F6D696E61746564210000000000 PUSH1 0x44 DUP3 ADD MSTORE PUSH1 0x64 ADD PUSH3 0x709 JUMP JUMPDEST PUSH1 0x0 DUP1 PUSH3 0x19D4 PUSH3 0x5BE JUMP JUMPDEST SWAP1 POP PUSH1 0x0 PUSH3 0x19E2 PUSH3 0x1636 JUMP JUMPDEST SWAP1 SWAP2 GT SWAP3 SWAP2 POP POP JUMP JUMPDEST PUSH1 0x60 PUSH1 0x0 PUSH3 0x19F9 PUSH3 0xC2B JUMP JUMPDEST SWAP1 POP PUSH1 0x0 DUP2 MLOAD PUSH1 0x1 PUSH1 0x1 PUSH1 0x40 SHL SUB DUP2 GT ISZERO PUSH3 0x1A19 JUMPI PUSH3 0x1A19 PUSH3 0x24A3 JUMP JUMPDEST PUSH1 0x40 MLOAD SWAP1 DUP1 DUP3 MSTORE DUP1 PUSH1 0x20 MUL PUSH1 0x20 ADD DUP3 ADD PUSH1 0x40 MSTORE DUP1 ISZERO PUSH3 0x1A56 JUMPI DUP2 PUSH1 0x20 ADD JUMPDEST PUSH3 0x1A42 PUSH3 0x21DC JUMP JUMPDEST DUP2 MSTORE PUSH1 0x20 ADD SWAP1 PUSH1 0x1 SWAP1 SUB SWAP1 DUP2 PUSH3 0x1A38 JUMPI SWAP1 POP JUMPDEST POP SWAP1 POP PUSH1 0x0 DUP1 JUMPDEST DUP4 MLOAD DUP2 LT ISZERO PUSH3 0xE1A JUMPI PUSH1 0x0 DUP5 DUP3 DUP2 MLOAD DUP2 LT PUSH3 0x1A7E JUMPI PUSH3 0x1A7E PUSH3 0x2A8A JUMP JUMPDEST PUSH1 0x20 MUL PUSH1 0x20 ADD ADD MLOAD PUSH1 0xC0 ADD MLOAD SWAP1 POP PUSH1 0x4 SLOAD DUP2 GT ISZERO PUSH3 0x1AE5 JUMPI DUP5 DUP3 DUP2 MLOAD DUP2 LT PUSH3 0x1AAC JUMPI PUSH3 0x1AAC PUSH3 0x2A8A JUMP JUMPDEST PUSH1 0x20 MUL PUSH1 0x20 ADD ADD MLOAD DUP5 DUP5 DUP2 MLOAD DUP2 LT PUSH3 0x1AC9 JUMPI PUSH3 0x1AC9 PUSH3 0x2A8A JUMP JUMPDEST PUSH1 0x20 MUL PUSH1 0x20 ADD ADD DUP2 SWAP1 MSTORE POP DUP3 DUP1 PUSH3 0x1AE1 SWAP1 PUSH3 0x2ACB JUMP JUMPDEST SWAP4 POP POP JUMPDEST POP DUP1 PUSH3 0x1AF2 DUP2 PUSH3 0x2ACB JUMP JUMPDEST SWAP2 POP POP PUSH3 0x1A5D JUMP JUMPDEST PUSH1 0x0 PUSH1 0x1 DUP2 JUMPDEST DUP4 MLOAD DUP2 LT ISZERO PUSH3 0x1032 JUMPI PUSH1 0x6 PUSH1 0x3 SWAP1 SLOAD SWAP1 PUSH2 0x100 EXP SWAP1 DIV PUSH1 0x1 PUSH1 0x1 PUSH1 0xA0 SHL SUB AND PUSH1 0x1 PUSH1 0x1 PUSH1 0xA0 SHL SUB AND PUSH4 0x297027D5 DUP6 DUP4 DUP2 MLOAD DUP2 LT PUSH3 0x1B44 JUMPI PUSH3 0x1B44 PUSH3 0x2A8A JUMP JUMPDEST PUSH1 0x20 MUL PUSH1 0x20 ADD ADD MLOAD PUSH1 0x40 MLOAD DUP3 PUSH4 0xFFFFFFFF AND PUSH1 0xE0 SHL DUP2 MSTORE PUSH1 0x4 ADD PUSH3 0x1B78 SWAP2 SWAP1 PUSH1 0x1 PUSH1 0x1 PUSH1 0xA0 SHL SUB SWAP2 SWAP1 SWAP2 AND DUP2 MSTORE PUSH1 0x20 ADD SWAP1 JUMP JUMPDEST PUSH1 0x20 PUSH1 0x40 MLOAD DUP1 DUP4 SUB DUP2 DUP7 GAS STATICCALL ISZERO DUP1 ISZERO PUSH3 0x1B96 JUMPI RETURNDATASIZE PUSH1 0x0 DUP1 RETURNDATACOPY RETURNDATASIZE PUSH1 0x0 REVERT JUMPDEST POP POP POP POP PUSH1 0x40 MLOAD RETURNDATASIZE PUSH1 0x1F NOT PUSH1 0x1F DUP3 ADD AND DUP3 ADD DUP1 PUSH1 0x40 MSTORE POP DUP2 ADD SWAP1 PUSH3 0x1BBC SWAP2 SWAP1 PUSH3 0x264F JUMP JUMPDEST PUSH3 0x1BC6 JUMPI PUSH1 0x0 SWAP2 POP JUMPDEST DUP1 PUSH3 0x1BD2 DUP2 PUSH3 0x2ACB JUMP JUMPDEST SWAP2 POP POP PUSH3 0x1B01 JUMP JUMPDEST PUSH1 0x60 PUSH1 0x0 PUSH3 0x1BE9 PUSH3 0xC2B JUMP JUMPDEST SWAP1 POP PUSH1 0x0 DUP2 MLOAD PUSH1 0x1 PUSH1 0x1 PUSH1 0x40 SHL SUB DUP2 GT ISZERO PUSH3 0x1C09 JUMPI PUSH3 0x1C09 PUSH3 0x24A3 JUMP JUMPDEST PUSH1 0x40 MLOAD SWAP1 DUP1 DUP3 MSTORE DUP1 PUSH1 0x20 MUL PUSH1 0x20 ADD DUP3 ADD PUSH1 0x40 MSTORE DUP1 ISZERO PUSH3 0x1C46 JUMPI DUP2 PUSH1 0x20 ADD JUMPDEST PUSH3 0x1C32 PUSH3 0x21DC JUMP JUMPDEST DUP2 MSTORE PUSH1 0x20 ADD SWAP1 PUSH1 0x1 SWAP1 SUB SWAP1 DUP2 PUSH3 0x1C28 JUMPI SWAP1 POP JUMPDEST POP SWAP1 POP PUSH3 0x1C53 PUSH3 0x21DC JUMP JUMPDEST PUSH1 0x0 DUP1 PUSH1 0x0 JUMPDEST DUP6 MLOAD DUP2 LT ISZERO PUSH3 0x1D47 JUMPI PUSH1 0x0 DUP7 DUP3 DUP2 MLOAD DUP2 LT PUSH3 0x1C7A JUMPI PUSH3 0x1C7A PUSH3 0x2A8A JUMP JUMPDEST PUSH1 0x20 MUL PUSH1 0x20 ADD ADD MLOAD PUSH1 0xC0 ADD MLOAD SWAP1 POP PUSH1 0x5 SLOAD DUP4 LT PUSH3 0x1CE3 JUMPI DUP5 PUSH1 0xC0 ADD MLOAD DUP2 GT ISZERO PUSH3 0x1CDD JUMPI DUP7 DUP3 DUP2 MLOAD DUP2 LT PUSH3 0x1CB4 JUMPI PUSH3 0x1CB4 PUSH3 0x2A8A JUMP JUMPDEST PUSH1 0x20 MUL PUSH1 0x20 ADD ADD MLOAD DUP7 DUP6 DUP2 MLOAD DUP2 LT PUSH3 0x1CD1 JUMPI PUSH3 0x1CD1 PUSH3 0x2A8A JUMP JUMPDEST PUSH1 0x20 MUL PUSH1 0x20 ADD ADD DUP2 SWAP1 MSTORE POP JUMPDEST PUSH3 0x1D31 JUMP JUMPDEST DUP7 DUP3 DUP2 MLOAD DUP2 LT PUSH3 0x1CF8 JUMPI PUSH3 0x1CF8 PUSH3 0x2A8A JUMP JUMPDEST PUSH1 0x20 MUL PUSH1 0x20 ADD ADD MLOAD DUP7 DUP5 DUP2 MLOAD DUP2 LT PUSH3 0x1D15 JUMPI PUSH3 0x1D15 PUSH3 0x2A8A JUMP JUMPDEST PUSH1 0x20 MUL PUSH1 0x20 ADD ADD DUP2 SWAP1 MSTORE POP DUP3 DUP1 PUSH3 0x1D2D SWAP1 PUSH3 0x2ACB JUMP JUMPDEST SWAP4 POP POP JUMPDEST POP DUP1 PUSH3 0x1D3E DUP2 PUSH3 0x2ACB JUMP JUMPDEST SWAP2 POP POP PUSH3 0x1C59 JUMP JUMPDEST POP DUP4 MSTORE POP SWAP1 SWAP4 SWAP3 POP POP POP JUMP JUMPDEST PUSH1 0x7 SLOAD PUSH1 0x40 DUP1 MLOAD PUSH1 0x1 PUSH3 0xC3E571 PUSH1 0xE0 SHL SUB NOT DUP2 MSTORE SWAP1 MLOAD PUSH1 0x0 SWAP3 PUSH1 0x1 PUSH1 0x1 PUSH1 0xA0 SHL SUB AND SWAP2 PUSH4 0xFF3C1A8F SWAP2 PUSH1 0x4 DUP1 DUP4 ADD SWAP3 DUP7 SWAP3 SWAP2 SWAP1 DUP3 SWAP1 SUB ADD DUP2 DUP7 GAS STATICCALL ISZERO DUP1 ISZERO PUSH3 0x1DA0 JUMPI RETURNDATASIZE PUSH1 0x0 DUP1 RETURNDATACOPY RETURNDATASIZE PUSH1 0x0 REVERT JUMPDEST POP POP POP POP PUSH1 0x40 MLOAD RETURNDATASIZE PUSH1 0x0 DUP3 RETURNDATACOPY PUSH1 0x1F RETURNDATASIZE SWAP1 DUP2 ADD PUSH1 0x1F NOT AND DUP3 ADD PUSH1 0x40 MSTORE PUSH3 0x1DCA SWAP2 SWAP1 DUP2 ADD SWAP1 PUSH3 0x2B26 JUMP JUMPDEST SWAP1 POP PUSH1 0x0 PUSH1 0x7 PUSH1 0x0 SWAP1 SLOAD SWAP1 PUSH2 0x100 EXP SWAP1 DIV PUSH1 0x1 PUSH1 0x1 PUSH1 0xA0 SHL SUB AND PUSH1 0x1 PUSH1 0x1 PUSH1 0xA0 SHL SUB AND PUSH4 0x1A092541 PUSH1 0x40 MLOAD DUP2 PUSH4 0xFFFFFFFF AND PUSH1 0xE0 SHL DUP2 MSTORE PUSH1 0x4 ADD PUSH1 0x0 PUSH1 0x40 MLOAD DUP1 DUP4 SUB DUP2 DUP7 GAS STATICCALL ISZERO DUP1 ISZERO PUSH3 0x1E22 JUMPI RETURNDATASIZE PUSH1 0x0 DUP1 RETURNDATACOPY RETURNDATASIZE PUSH1 0x0 REVERT JUMPDEST POP POP POP POP PUSH1 0x40 MLOAD RETURNDATASIZE PUSH1 0x0 DUP3 RETURNDATACOPY PUSH1 0x1F RETURNDATASIZE SWAP1 DUP2 ADD PUSH1 0x1F NOT AND DUP3 ADD PUSH1 0x40 MSTORE PUSH3 0x1E4C SWAP2 SWAP1 DUP2 ADD SWAP1 PUSH3 0x2B26 JUMP JUMPDEST SWAP1 POP PUSH1 0x0 DUP3 DUP3 PUSH1 0x40 MLOAD PUSH3 0x1E60 SWAP1 PUSH3 0x222D JUMP JUMPDEST PUSH3 0x1E6E SWAP4 SWAP3 SWAP2 SWAP1 PUSH3 0x2B5E JUMP JUMPDEST PUSH1 0x40 MLOAD DUP1 SWAP2 SUB SWAP1 PUSH1 0x0 CREATE DUP1 ISZERO DUP1 ISZERO PUSH3 0x1E8B JUMPI RETURNDATASIZE PUSH1 0x0 DUP1 RETURNDATACOPY RETURNDATASIZE PUSH1 0x0 REVERT JUMPDEST POP PUSH1 0x8 DUP1 SLOAD PUSH1 0x1 PUSH1 0x1 PUSH1 0xA0 SHL SUB NOT AND PUSH1 0x1 PUSH1 0x1 PUSH1 0xA0 SHL SUB SWAP3 SWAP1 SWAP3 AND SWAP2 SWAP1 SWAP2 OR SWAP1 SSTORE PUSH1 0x0 PUSH3 0x1EB8 PUSH3 0x19EB JUMP JUMPDEST SWAP1 POP PUSH1 0x0 JUMPDEST DUP2 MLOAD DUP2 LT ISZERO PUSH3 0x1F88 JUMPI PUSH1 0x0 DUP3 DUP3 DUP2 MLOAD DUP2 LT PUSH3 0x1EDE JUMPI PUSH3 0x1EDE PUSH3 0x2A8A JUMP JUMPDEST PUSH1 0x20 SWAP1 DUP2 MUL SWAP2 SWAP1 SWAP2 ADD DUP2 ADD MLOAD SWAP1 DUP2 ADD MLOAD PUSH1 0x80 DUP3 ADD MLOAD PUSH1 0xA0 DUP4 ADD MLOAD PUSH1 0x8 SLOAD PUSH1 0x40 MLOAD PUSH4 0x544D0431 PUSH1 0xE1 SHL DUP2 MSTORE SWAP5 SWAP6 POP SWAP3 SWAP4 SWAP2 SWAP3 SWAP1 SWAP2 PUSH1 0x1 PUSH1 0x1 PUSH1 0xA0 SHL SUB SWAP1 SWAP2 AND SWAP1 PUSH4 0xA89A0862 SWAP1 PUSH3 0x1F3A SWAP1 DUP7 SWAP1 PUSH1 0x0 SWAP1 DUP8 SWAP1 DUP8 SWAP1 PUSH1 0x4 ADD PUSH3 0x2A48 JUMP JUMPDEST PUSH1 0x0 PUSH1 0x40 MLOAD DUP1 DUP4 SUB DUP2 PUSH1 0x0 DUP8 DUP1 EXTCODESIZE ISZERO DUP1 ISZERO PUSH3 0x1F55 JUMPI PUSH1 0x0 DUP1 REVERT JUMPDEST POP GAS CALL ISZERO DUP1 ISZERO PUSH3 0x1F6A JUMPI RETURNDATASIZE PUSH1 0x0 DUP1 RETURNDATACOPY RETURNDATASIZE PUSH1 0x0 REVERT JUMPDEST POP POP POP POP POP POP POP POP DUP1 DUP1 PUSH3 0x1F7F SWAP1 PUSH3 0x2ACB JUMP JUMPDEST SWAP2 POP POP PUSH3 0x1EBD JUMP JUMPDEST POP POP POP POP JUMP JUMPDEST PUSH1 0x6 SLOAD PUSH1 0x40 MLOAD CALLER SWAP2 PUSH32 0xFC6F5E211098B443015CCB625104A41F61E97A80DD9B8734242A9A8C3EECC8DC SWAP2 PUSH3 0x1FD0 SWAP2 PUSH2 0x100 SWAP1 DIV PUSH1 0xFF AND SWAP1 DUP7 SWAP1 DUP7 SWAP1 PUSH3 0x2BE1 JUMP JUMPDEST PUSH1 0x40 MLOAD DUP1 SWAP2 SUB SWAP1 LOG2 PUSH1 0x6 DUP1 SLOAD DUP4 SWAP2 SWAP1 PUSH2 0xFF00 NOT AND PUSH2 0x100 DUP4 PUSH1 0x5 DUP2 GT ISZERO PUSH3 0x1FFC JUMPI PUSH3 0x1FFC PUSH3 0x2465 JUMP JUMPDEST MUL OR SWAP1 SSTORE POP POP POP JUMP JUMPDEST PUSH3 0x2010 DUP6 PUSH3 0x1AFB JUMP JUMPDEST ISZERO PUSH3 0x2149 JUMPI PUSH1 0x40 MLOAD PUSH3 0x2024 SWAP1 PUSH3 0x223B JUMP JUMPDEST PUSH1 0x40 MLOAD DUP1 SWAP2 SUB SWAP1 PUSH1 0x0 CREATE DUP1 ISZERO DUP1 ISZERO PUSH3 0x2041 JUMPI RETURNDATASIZE PUSH1 0x0 DUP1 RETURNDATACOPY RETURNDATASIZE PUSH1 0x0 REVERT JUMPDEST POP PUSH1 0x9 PUSH1 0x0 PUSH2 0x100 EXP DUP2 SLOAD DUP2 PUSH1 0x1 PUSH1 0x1 PUSH1 0xA0 SHL SUB MUL NOT AND SWAP1 DUP4 PUSH1 0x1 PUSH1 0x1 PUSH1 0xA0 SHL SUB AND MUL OR SWAP1 SSTORE POP DUP5 DUP5 DUP5 PUSH1 0x40 MLOAD PUSH3 0x2079 SWAP1 PUSH3 0x222D JUMP JUMPDEST PUSH3 0x2087 SWAP4 SWAP3 SWAP2 SWAP1 PUSH3 0x2C1D JUMP JUMPDEST PUSH1 0x40 MLOAD DUP1 SWAP2 SUB SWAP1 PUSH1 0x0 CREATE DUP1 ISZERO DUP1 ISZERO PUSH3 0x20A4 JUMPI RETURNDATASIZE PUSH1 0x0 DUP1 RETURNDATACOPY RETURNDATASIZE PUSH1 0x0 REVERT JUMPDEST POP PUSH1 0x7 DUP1 SLOAD PUSH1 0x1 PUSH1 0x1 PUSH1 0xA0 SHL SUB NOT AND PUSH1 0x1 PUSH1 0x1 PUSH1 0xA0 SHL SUB SWAP3 SWAP1 SWAP3 AND SWAP2 SWAP1 SWAP2 OR SWAP1 SSTORE DUP5 MLOAD PUSH3 0x20DA SWAP1 PUSH1 0x0 SWAP1 PUSH1 0x20 DUP9 ADD SWAP1 PUSH3 0x2249 JUMP JUMPDEST POP PUSH1 0x6 DUP1 SLOAD DUP4 SWAP2 SWAP1 PUSH1 0xFF NOT AND PUSH1 0x1 DUP4 PUSH1 0x3 DUP2 GT ISZERO PUSH3 0x20FD JUMPI PUSH3 0x20FD PUSH3 0x2465 JUMP JUMPDEST MUL OR SWAP1 SSTORE POP DUP1 PUSH1 0x5 DUP2 SWAP1 SSTORE POP PUSH3 0x2143 PUSH1 0x0 PUSH1 0x40 MLOAD DUP1 PUSH1 0x40 ADD PUSH1 0x40 MSTORE DUP1 PUSH1 0x15 DUP2 MSTORE PUSH1 0x20 ADD PUSH21 0x436F6E73756C746174696F6E206372656174656421 PUSH1 0x58 SHL DUP2 MSTORE POP PUSH3 0x1F8E JUMP JUMPDEST PUSH3 0x11FD JUMP JUMPDEST PUSH1 0x40 MLOAD PUSH3 0x461BCD PUSH1 0xE5 SHL DUP2 MSTORE PUSH1 0x20 PUSH1 0x4 DUP3 ADD MSTORE PUSH1 0x2E PUSH1 0x24 DUP3 ADD MSTORE PUSH32 0x4F6E65206F72206D6F72652075736572732063616E2774206372656174652061 PUSH1 0x44 DUP3 ADD MSTORE PUSH14 0x20636F6E73756C746174696F6E21 PUSH1 0x90 SHL PUSH1 0x64 DUP3 ADD MSTORE PUSH1 0x84 ADD PUSH3 0x709 JUMP JUMPDEST PUSH3 0x21B6 PUSH1 0x5 DUP3 PUSH3 0x1F8E JUMP JUMPDEST PUSH1 0x6 DUP1 SLOAD DUP4 SWAP2 SWAP1 PUSH3 0xFF0000 NOT AND PUSH3 0x10000 DUP4 PUSH1 0x2 DUP2 GT ISZERO PUSH3 0x1FFC JUMPI PUSH3 0x1FFC PUSH3 0x2465 JUMP JUMPDEST PUSH1 0x40 MLOAD DUP1 PUSH1 0xE0 ADD PUSH1 0x40 MSTORE DUP1 PUSH1 0x0 DUP2 MSTORE PUSH1 0x20 ADD PUSH1 0x0 PUSH1 0x1 PUSH1 0x1 PUSH1 0xA0 SHL SUB AND DUP2 MSTORE PUSH1 0x20 ADD PUSH1 0x0 PUSH1 0x1 PUSH1 0x1 PUSH1 0xA0 SHL SUB AND DUP2 MSTORE PUSH1 0x20 ADD PUSH1 0x0 ISZERO ISZERO DUP2 MSTORE PUSH1 0x20 ADD PUSH1 0x60 DUP2 MSTORE PUSH1 0x20 ADD PUSH1 0x60 DUP2 MSTORE PUSH1 0x20 ADD PUSH1 0x0 DUP2 MSTORE POP SWAP1 JUMP JUMPDEST PUSH2 0x25BC DUP1 PUSH3 0x2C62 DUP4 CODECOPY ADD SWAP1 JUMP JUMPDEST PUSH2 0x744 DUP1 PUSH3 0x521E DUP4 CODECOPY ADD SWAP1 JUMP JUMPDEST DUP3 DUP1 SLOAD DUP3 DUP3 SSTORE SWAP1 PUSH1 0x0 MSTORE PUSH1 0x20 PUSH1 0x0 KECCAK256 SWAP1 DUP2 ADD SWAP3 DUP3 ISZERO PUSH3 0x22A1 JUMPI SWAP2 PUSH1 0x20 MUL DUP3 ADD JUMPDEST DUP3 DUP2 GT ISZERO PUSH3 0x22A1 JUMPI DUP3 MLOAD DUP3 SLOAD PUSH1 0x1 PUSH1 0x1 PUSH1 0xA0 SHL SUB NOT AND PUSH1 0x1 PUSH1 0x1 PUSH1 0xA0 SHL SUB SWAP1 SWAP2 AND OR DUP3 SSTORE PUSH1 0x20 SWAP1 SWAP3 ADD SWAP2 PUSH1 0x1 SWAP1 SWAP2 ADD SWAP1 PUSH3 0x226A JUMP JUMPDEST POP PUSH3 0x22AF SWAP3 SWAP2 POP PUSH3 0x22B3 JUMP JUMPDEST POP SWAP1 JUMP JUMPDEST JUMPDEST DUP1 DUP3 GT ISZERO PUSH3 0x22AF JUMPI PUSH1 0x0 DUP2 SSTORE PUSH1 0x1 ADD PUSH3 0x22B4 JUMP JUMPDEST PUSH1 0x0 PUSH1 0x20 DUP3 DUP5 SUB SLT ISZERO PUSH3 0x22DD JUMPI PUSH1 0x0 DUP1 REVERT JUMPDEST POP CALLDATALOAD SWAP2 SWAP1 POP JUMP JUMPDEST PUSH1 0x0 JUMPDEST DUP4 DUP2 LT ISZERO PUSH3 0x2301 JUMPI DUP2 DUP2 ADD MLOAD DUP4 DUP3 ADD MSTORE PUSH1 0x20 ADD PUSH3 0x22E7 JUMP JUMPDEST DUP4 DUP2 GT ISZERO PUSH3 0x1F88 JUMPI POP POP PUSH1 0x0 SWAP2 ADD MSTORE JUMP JUMPDEST PUSH1 0x0 DUP2 MLOAD DUP1 DUP5 MSTORE PUSH3 0x232D DUP2 PUSH1 0x20 DUP7 ADD PUSH1 0x20 DUP7 ADD PUSH3 0x22E4 JUMP JUMPDEST PUSH1 0x1F ADD PUSH1 0x1F NOT AND SWAP3 SWAP1 SWAP3 ADD PUSH1 0x20 ADD SWAP3 SWAP2 POP POP JUMP JUMPDEST DUP1 MLOAD DUP3 MSTORE PUSH1 0x0 PUSH1 0x20 DUP3 ADD MLOAD PUSH1 0x1 DUP1 PUSH1 0xA0 SHL SUB DUP1 DUP3 AND PUSH1 0x20 DUP7 ADD MSTORE DUP1 PUSH1 0x40 DUP6 ADD MLOAD AND PUSH1 0x40 DUP7 ADD MSTORE POP POP PUSH1 0x60 DUP3 ADD MLOAD ISZERO ISZERO PUSH1 0x60 DUP5 ADD MSTORE PUSH1 0x80 DUP3 ADD MLOAD PUSH1 0xE0 PUSH1 0x80 DUP6 ADD MSTORE PUSH3 0x2390 PUSH1 0xE0 DUP6 ADD DUP3 PUSH3 0x2313 JUMP JUMPDEST SWAP1 POP PUSH1 0xA0 DUP4 ADD MLOAD DUP5 DUP3 SUB PUSH1 0xA0 DUP7 ADD MSTORE PUSH3 0x23AB DUP3 DUP3 PUSH3 0x2313 JUMP JUMPDEST SWAP2 POP POP PUSH1 0xC0 DUP4 ADD MLOAD PUSH1 0xC0 DUP6 ADD MSTORE DUP1 SWAP2 POP POP SWAP3 SWAP2 POP POP JUMP JUMPDEST PUSH1 0x0 PUSH1 0x20 DUP1 DUP4 ADD DUP2 DUP5 MSTORE DUP1 DUP6 MLOAD DUP1 DUP4 MSTORE PUSH1 0x40 DUP7 ADD SWAP2 POP PUSH1 0x40 DUP2 PUSH1 0x5 SHL DUP8 ADD ADD SWAP3 POP DUP4 DUP8 ADD PUSH1 0x0 JUMPDEST DUP3 DUP2 LT ISZERO PUSH3 0x241B JUMPI PUSH1 0x3F NOT DUP9 DUP7 SUB ADD DUP5 MSTORE PUSH3 0x2408 DUP6 DUP4 MLOAD PUSH3 0x2341 JUMP JUMPDEST SWAP5 POP SWAP3 DUP6 ADD SWAP3 SWAP1 DUP6 ADD SWAP1 PUSH1 0x1 ADD PUSH3 0x23E9 JUMP JUMPDEST POP SWAP3 SWAP8 SWAP7 POP POP POP POP POP POP POP JUMP JUMPDEST PUSH1 0x1 PUSH1 0x1 PUSH1 0xA0 SHL SUB DUP2 AND DUP2 EQ PUSH3 0x99E JUMPI PUSH1 0x0 DUP1 REVERT JUMPDEST PUSH1 0x0 PUSH1 0x20 DUP3 DUP5 SUB SLT ISZERO PUSH3 0x2451 JUMPI PUSH1 0x0 DUP1 REVERT JUMPDEST DUP2 CALLDATALOAD PUSH3 0x245E DUP2 PUSH3 0x2428 JUMP JUMPDEST SWAP4 SWAP3 POP POP POP JUMP JUMPDEST PUSH4 0x4E487B71 PUSH1 0xE0 SHL PUSH1 0x0 MSTORE PUSH1 0x21 PUSH1 0x4 MSTORE PUSH1 0x24 PUSH1 0x0 REVERT JUMPDEST PUSH1 0x3 DUP2 LT PUSH3 0x99E JUMPI PUSH3 0x99E PUSH3 0x2465 JUMP JUMPDEST PUSH1 0x20 DUP2 ADD PUSH3 0x249D DUP4 PUSH3 0x247B JUMP JUMPDEST SWAP2 SWAP1 MSTORE SWAP1 JUMP JUMPDEST PUSH4 0x4E487B71 PUSH1 0xE0 SHL PUSH1 0x0 MSTORE PUSH1 0x41 PUSH1 0x4 MSTORE PUSH1 0x24 PUSH1 0x0 REVERT JUMPDEST PUSH1 0x40 MLOAD PUSH1 0xE0 DUP2 ADD PUSH1 0x1 PUSH1 0x1 PUSH1 0x40 SHL SUB DUP2 GT DUP3 DUP3 LT OR ISZERO PUSH3 0x24DE JUMPI PUSH3 0x24DE PUSH3 0x24A3 JUMP JUMPDEST PUSH1 0x40 MSTORE SWAP1 JUMP JUMPDEST PUSH1 0x40 MLOAD PUSH1 0xC0 DUP2 ADD PUSH1 0x1 PUSH1 0x1 PUSH1 0x40 SHL SUB DUP2 GT DUP3 DUP3 LT OR ISZERO PUSH3 0x24DE JUMPI PUSH3 0x24DE PUSH3 0x24A3 JUMP JUMPDEST PUSH1 0x40 MLOAD PUSH1 0x1F DUP3 ADD PUSH1 0x1F NOT AND DUP2 ADD PUSH1 0x1 PUSH1 0x1 PUSH1 0x40 SHL SUB DUP2 GT DUP3 DUP3 LT OR ISZERO PUSH3 0x2534 JUMPI PUSH3 0x2534 PUSH3 0x24A3 JUMP JUMPDEST PUSH1 0x40 MSTORE SWAP2 SWAP1 POP JUMP JUMPDEST PUSH1 0x0 PUSH1 0x1 PUSH1 0x1 PUSH1 0x40 SHL SUB DUP3 GT ISZERO PUSH3 0x2558 JUMPI PUSH3 0x2558 PUSH3 0x24A3 JUMP JUMPDEST POP PUSH1 0x5 SHL PUSH1 0x20 ADD SWAP1 JUMP JUMPDEST PUSH1 0x0 PUSH1 0x20 DUP1 DUP4 DUP6 SUB SLT ISZERO PUSH3 0x2576 JUMPI PUSH1 0x0 DUP1 REVERT JUMPDEST DUP3 CALLDATALOAD PUSH1 0x1 PUSH1 0x1 PUSH1 0x40 SHL SUB DUP2 GT ISZERO PUSH3 0x258D JUMPI PUSH1 0x0 DUP1 REVERT JUMPDEST DUP4 ADD PUSH1 0x1F DUP2 ADD DUP6 SGT PUSH3 0x259F JUMPI PUSH1 0x0 DUP1 REVERT JUMPDEST DUP1 CALLDATALOAD PUSH3 0x25B6 PUSH3 0x25B0 DUP3 PUSH3 0x253C JUMP JUMPDEST PUSH3 0x2509 JUMP JUMPDEST DUP2 DUP2 MSTORE PUSH1 0x5 SWAP2 SWAP1 SWAP2 SHL DUP3 ADD DUP4 ADD SWAP1 DUP4 DUP2 ADD SWAP1 DUP8 DUP4 GT ISZERO PUSH3 0x25D6 JUMPI PUSH1 0x0 DUP1 REVERT JUMPDEST SWAP3 DUP5 ADD SWAP3 JUMPDEST DUP3 DUP5 LT ISZERO PUSH3 0x2601 JUMPI DUP4 CALLDATALOAD PUSH3 0x25F1 DUP2 PUSH3 0x2428 JUMP JUMPDEST DUP3 MSTORE SWAP3 DUP5 ADD SWAP3 SWAP1 DUP5 ADD SWAP1 PUSH3 0x25DB JUMP JUMPDEST SWAP8 SWAP7 POP POP POP POP POP POP POP JUMP JUMPDEST PUSH1 0x6 DUP2 LT PUSH3 0x261F JUMPI PUSH3 0x261F PUSH3 0x2465 JUMP JUMPDEST SWAP1 MSTORE JUMP JUMPDEST PUSH1 0x20 DUP2 ADD PUSH3 0x2633 DUP3 DUP5 PUSH3 0x260C JUMP JUMPDEST SWAP3 SWAP2 POP POP JUMP JUMPDEST DUP1 MLOAD DUP1 ISZERO ISZERO DUP2 EQ PUSH3 0x264A JUMPI PUSH1 0x0 DUP1 REVERT JUMPDEST SWAP2 SWAP1 POP JUMP JUMPDEST PUSH1 0x0 PUSH1 0x20 DUP3 DUP5 SUB SLT ISZERO PUSH3 0x2662 JUMPI PUSH1 0x0 DUP1 REVERT JUMPDEST PUSH3 0x245E DUP3 PUSH3 0x2639 JUMP JUMPDEST DUP1 MLOAD PUSH3 0x264A DUP2 PUSH3 0x2428 JUMP JUMPDEST PUSH1 0x0 DUP3 PUSH1 0x1F DUP4 ADD SLT PUSH3 0x268C JUMPI PUSH1 0x0 DUP1 REVERT JUMPDEST DUP2 MLOAD PUSH1 0x1 PUSH1 0x1 PUSH1 0x40 SHL SUB DUP2 GT ISZERO PUSH3 0x26A8 JUMPI PUSH3 0x26A8 PUSH3 0x24A3 JUMP JUMPDEST PUSH3 0x26BD PUSH1 0x1F DUP3 ADD PUSH1 0x1F NOT AND PUSH1 0x20 ADD PUSH3 0x2509 JUMP JUMPDEST DUP2 DUP2 MSTORE DUP5 PUSH1 0x20 DUP4 DUP7 ADD ADD GT ISZERO PUSH3 0x26D3 JUMPI PUSH1 0x0 DUP1 REVERT JUMPDEST PUSH3 0x26E6 DUP3 PUSH1 0x20 DUP4 ADD PUSH1 0x20 DUP8 ADD PUSH3 0x22E4 JUMP JUMPDEST SWAP5 SWAP4 POP POP POP POP JUMP JUMPDEST PUSH1 0x0 PUSH1 0x20 DUP1 DUP4 DUP6 SUB SLT ISZERO PUSH3 0x2702 JUMPI PUSH1 0x0 DUP1 REVERT JUMPDEST DUP3 MLOAD PUSH1 0x1 PUSH1 0x1 PUSH1 0x40 SHL SUB DUP1 DUP3 GT ISZERO PUSH3 0x271A JUMPI PUSH1 0x0 DUP1 REVERT JUMPDEST DUP2 DUP6 ADD SWAP2 POP DUP6 PUSH1 0x1F DUP4 ADD SLT PUSH3 0x272F JUMPI PUSH1 0x0 DUP1 REVERT JUMPDEST DUP2 MLOAD PUSH3 0x2740 PUSH3 0x25B0 DUP3 PUSH3 0x253C JUMP JUMPDEST DUP2 DUP2 MSTORE PUSH1 0x5 SWAP2 SWAP1 SWAP2 SHL DUP4 ADD DUP5 ADD SWAP1 DUP5 DUP2 ADD SWAP1 DUP9 DUP4 GT ISZERO PUSH3 0x2760 JUMPI PUSH1 0x0 DUP1 REVERT JUMPDEST DUP6 DUP6 ADD JUMPDEST DUP4 DUP2 LT ISZERO PUSH3 0x2855 JUMPI DUP1 MLOAD DUP6 DUP2 GT ISZERO PUSH3 0x277D JUMPI PUSH1 0x0 DUP1 REVERT JUMPDEST DUP7 ADD PUSH1 0xE0 DUP2 DUP13 SUB PUSH1 0x1F NOT ADD SLT ISZERO PUSH3 0x2795 JUMPI PUSH1 0x0 DUP1 DUP2 REVERT JUMPDEST PUSH3 0x279F PUSH3 0x24B9 JUMP JUMPDEST DUP9 DUP3 ADD MLOAD DUP2 MSTORE PUSH1 0x40 PUSH3 0x27B4 DUP2 DUP5 ADD PUSH3 0x266D JUMP JUMPDEST DUP11 DUP4 ADD MSTORE PUSH1 0x60 PUSH3 0x27C7 DUP2 DUP6 ADD PUSH3 0x266D JUMP JUMPDEST DUP3 DUP5 ADD MSTORE PUSH1 0x80 SWAP2 POP PUSH3 0x27DC DUP3 DUP6 ADD PUSH3 0x2639 JUMP JUMPDEST SWAP1 DUP4 ADD MSTORE PUSH1 0xA0 DUP4 DUP2 ADD MLOAD DUP10 DUP2 GT ISZERO PUSH3 0x27F5 JUMPI PUSH1 0x0 DUP1 DUP2 REVERT JUMPDEST PUSH3 0x2805 DUP16 DUP14 DUP4 DUP9 ADD ADD PUSH3 0x267A JUMP JUMPDEST DUP4 DUP6 ADD MSTORE POP PUSH1 0xC0 SWAP2 POP DUP2 DUP5 ADD MLOAD DUP10 DUP2 GT ISZERO PUSH3 0x2821 JUMPI PUSH1 0x0 DUP1 DUP2 REVERT JUMPDEST PUSH3 0x2831 DUP16 DUP14 DUP4 DUP9 ADD ADD PUSH3 0x267A JUMP JUMPDEST SWAP2 DUP5 ADD SWAP2 SWAP1 SWAP2 MSTORE POP PUSH1 0xE0 SWAP3 SWAP1 SWAP3 ADD MLOAD SWAP2 DUP2 ADD SWAP2 SWAP1 SWAP2 MSTORE DUP4 MSTORE SWAP2 DUP7 ADD SWAP2 DUP7 ADD PUSH3 0x2764 JUMP JUMPDEST POP SWAP9 SWAP8 POP POP POP POP POP POP POP POP JUMP JUMPDEST PUSH1 0x0 PUSH1 0x20 DUP3 DUP5 SUB SLT ISZERO PUSH3 0x2875 JUMPI PUSH1 0x0 DUP1 REVERT JUMPDEST POP MLOAD SWAP2 SWAP1 POP JUMP JUMPDEST PUSH1 0x20 DUP1 DUP3 MSTORE PUSH1 0x24 SWAP1 DUP3 ADD MSTORE PUSH32 0x54686520706F6C6C206D75737420626520696E20616E20616374697665207374 PUSH1 0x40 DUP3 ADD MSTORE PUSH4 0x61746521 PUSH1 0xE0 SHL PUSH1 0x60 DUP3 ADD MSTORE PUSH1 0x80 ADD SWAP1 JUMP JUMPDEST PUSH1 0x0 PUSH1 0x80 DUP3 DUP5 SUB SLT ISZERO PUSH3 0x28D3 JUMPI PUSH1 0x0 DUP1 REVERT JUMPDEST PUSH1 0x40 MLOAD PUSH1 0x80 DUP2 ADD DUP2 DUP2 LT PUSH1 0x1 PUSH1 0x1 PUSH1 0x40 SHL SUB DUP3 GT OR ISZERO PUSH3 0x28F8 JUMPI PUSH3 0x28F8 PUSH3 0x24A3 JUMP JUMPDEST PUSH1 0x40 MSTORE SWAP1 POP DUP1 PUSH3 0x2909 DUP4 PUSH3 0x2639 JUMP JUMPDEST DUP2 MSTORE PUSH3 0x2919 PUSH1 0x20 DUP5 ADD PUSH3 0x2639 JUMP JUMPDEST PUSH1 0x20 DUP3 ADD MSTORE PUSH3 0x292C PUSH1 0x40 DUP5 ADD PUSH3 0x2639 JUMP JUMPDEST PUSH1 0x40 DUP3 ADD MSTORE PUSH3 0x293F PUSH1 0x60 DUP5 ADD PUSH3 0x2639 JUMP JUMPDEST PUSH1 0x60 DUP3 ADD MSTORE POP SWAP3 SWAP2 POP POP JUMP JUMPDEST PUSH1 0x0 PUSH1 0x20 DUP3 DUP5 SUB SLT ISZERO PUSH3 0x295E JUMPI PUSH1 0x0 DUP1 REVERT JUMPDEST DUP2 MLOAD PUSH1 0x1 PUSH1 0x1 PUSH1 0x40 SHL SUB DUP1 DUP3 GT ISZERO PUSH3 0x2976 JUMPI PUSH1 0x0 DUP1 REVERT JUMPDEST SWAP1 DUP4 ADD SWAP1 PUSH2 0x120 DUP3 DUP7 SUB SLT ISZERO PUSH3 0x298C JUMPI PUSH1 0x0 DUP1 REVERT JUMPDEST PUSH3 0x2996 PUSH3 0x24E4 JUMP JUMPDEST PUSH3 0x29A1 DUP4 PUSH3 0x266D JUMP JUMPDEST DUP2 MSTORE PUSH1 0x20 DUP4 ADD MLOAD DUP3 DUP2 GT ISZERO PUSH3 0x29B6 JUMPI PUSH1 0x0 DUP1 REVERT JUMPDEST PUSH3 0x29C4 DUP8 DUP3 DUP7 ADD PUSH3 0x267A JUMP JUMPDEST PUSH1 0x20 DUP4 ADD MSTORE POP PUSH1 0x40 DUP4 ADD MLOAD DUP3 DUP2 GT ISZERO PUSH3 0x29DD JUMPI PUSH1 0x0 DUP1 REVERT JUMPDEST PUSH3 0x29EB DUP8 DUP3 DUP7 ADD PUSH3 0x267A JUMP JUMPDEST PUSH1 0x40 DUP4 ADD MSTORE POP PUSH1 0x60 DUP4 ADD MLOAD DUP3 DUP2 GT ISZERO PUSH3 0x2A04 JUMPI PUSH1 0x0 DUP1 REVERT JUMPDEST PUSH3 0x2A12 DUP8 DUP3 DUP7 ADD PUSH3 0x267A JUMP JUMPDEST PUSH1 0x60 DUP4 ADD MSTORE POP PUSH3 0x2A26 PUSH1 0x80 DUP5 ADD PUSH3 0x2639 JUMP JUMPDEST PUSH1 0x80 DUP3 ADD MSTORE PUSH3 0x2A3A DUP7 PUSH1 0xA0 DUP6 ADD PUSH3 0x28C0 JUMP JUMPDEST PUSH1 0xA0 DUP3 ADD MSTORE SWAP6 SWAP5 POP POP POP POP POP JUMP JUMPDEST PUSH1 0x1 PUSH1 0x1 PUSH1 0xA0 SHL SUB DUP6 AND DUP2 MSTORE DUP4 ISZERO ISZERO PUSH1 0x20 DUP3 ADD MSTORE PUSH1 0x80 PUSH1 0x40 DUP3 ADD DUP2 SWAP1 MSTORE PUSH1 0x0 SWAP1 PUSH3 0x2A76 SWAP1 DUP4 ADD DUP6 PUSH3 0x2313 JUMP JUMPDEST DUP3 DUP2 SUB PUSH1 0x60 DUP5 ADD MSTORE PUSH3 0x2601 DUP2 DUP6 PUSH3 0x2313 JUMP JUMPDEST PUSH4 0x4E487B71 PUSH1 0xE0 SHL PUSH1 0x0 MSTORE PUSH1 0x32 PUSH1 0x4 MSTORE PUSH1 0x24 PUSH1 0x0 REVERT JUMPDEST PUSH1 0x20 DUP2 MSTORE PUSH1 0x0 PUSH3 0x245E PUSH1 0x20 DUP4 ADD DUP5 PUSH3 0x2341 JUMP JUMPDEST PUSH4 0x4E487B71 PUSH1 0xE0 SHL PUSH1 0x0 MSTORE PUSH1 0x11 PUSH1 0x4 MSTORE PUSH1 0x24 PUSH1 0x0 REVERT JUMPDEST PUSH1 0x0 PUSH1 0x0 NOT DUP3 EQ ISZERO PUSH3 0x2AE2 JUMPI PUSH3 0x2AE2 PUSH3 0x2AB5 JUMP JUMPDEST POP PUSH1 0x1 ADD SWAP1 JUMP JUMPDEST PUSH1 0x0 DUP2 PUSH1 0x0 NOT DIV DUP4 GT DUP3 ISZERO ISZERO AND ISZERO PUSH3 0x2B06 JUMPI PUSH3 0x2B06 PUSH3 0x2AB5 JUMP JUMPDEST POP MUL SWAP1 JUMP JUMPDEST PUSH1 0x0 DUP3 NOT DUP3 GT ISZERO PUSH3 0x2B21 JUMPI PUSH3 0x2B21 PUSH3 0x2AB5 JUMP JUMPDEST POP ADD SWAP1 JUMP JUMPDEST PUSH1 0x0 PUSH1 0x20 DUP3 DUP5 SUB SLT ISZERO PUSH3 0x2B39 JUMPI PUSH1 0x0 DUP1 REVERT JUMPDEST DUP2 MLOAD PUSH1 0x1 PUSH1 0x1 PUSH1 0x40 SHL SUB DUP2 GT ISZERO PUSH3 0x2B50 JUMPI PUSH1 0x0 DUP1 REVERT JUMPDEST PUSH3 0x26E6 DUP5 DUP3 DUP6 ADD PUSH3 0x267A JUMP JUMPDEST PUSH1 0x0 PUSH1 0x60 DUP3 ADD PUSH1 0x60 DUP4 MSTORE DUP1 DUP7 SLOAD DUP1 DUP4 MSTORE PUSH1 0x80 DUP6 ADD SWAP2 POP DUP8 PUSH1 0x0 MSTORE PUSH1 0x20 SWAP3 POP DUP3 PUSH1 0x0 KECCAK256 PUSH1 0x0 JUMPDEST DUP3 DUP2 LT ISZERO PUSH3 0x2BAA JUMPI DUP2 SLOAD PUSH1 0x1 PUSH1 0x1 PUSH1 0xA0 SHL SUB AND DUP5 MSTORE SWAP3 DUP5 ADD SWAP3 PUSH1 0x1 SWAP2 DUP3 ADD SWAP2 ADD PUSH3 0x2B83 JUMP JUMPDEST POP POP POP DUP4 DUP2 SUB DUP3 DUP6 ADD MSTORE PUSH3 0x2BC0 DUP2 DUP8 PUSH3 0x2313 JUMP JUMPDEST SWAP2 POP POP DUP3 DUP2 SUB PUSH1 0x40 DUP5 ADD MSTORE PUSH3 0x2BD7 DUP2 DUP6 PUSH3 0x2313 JUMP JUMPDEST SWAP7 SWAP6 POP POP POP POP POP POP JUMP JUMPDEST PUSH3 0x2BED DUP2 DUP6 PUSH3 0x260C JUMP JUMPDEST PUSH3 0x2BFC PUSH1 0x20 DUP3 ADD DUP5 PUSH3 0x260C JUMP JUMPDEST PUSH1 0x60 PUSH1 0x40 DUP3 ADD MSTORE PUSH1 0x0 PUSH3 0x2C14 PUSH1 0x60 DUP4 ADD DUP5 PUSH3 0x2313 JUMP JUMPDEST SWAP6 SWAP5 POP POP POP POP POP JUMP JUMPDEST PUSH1 0x60 DUP1 DUP3 MSTORE DUP5 MLOAD SWAP1 DUP3 ADD DUP2 SWAP1 MSTORE PUSH1 0x0 SWAP1 PUSH1 0x20 SWAP1 PUSH1 0x80 DUP5 ADD SWAP1 DUP3 DUP9 ADD DUP5 JUMPDEST DUP3 DUP2 LT ISZERO PUSH3 0x2BAA JUMPI DUP2 MLOAD PUSH1 0x1 PUSH1 0x1 PUSH1 0xA0 SHL SUB AND DUP5 MSTORE SWAP3 DUP5 ADD SWAP3 SWAP1 DUP5 ADD SWAP1 PUSH1 0x1 ADD PUSH3 0x2C3A JUMP INVALID PUSH1 0x80 PUSH1 0x40 MSTORE CALLVALUE DUP1 ISZERO PUSH3 0x11 JUMPI PUSH1 0x0 DUP1 REVERT JUMPDEST POP PUSH1 0x40 MLOAD PUSH3 0x25BC CODESIZE SUB DUP1 PUSH3 0x25BC DUP4 CODECOPY DUP2 ADD PUSH1 0x40 DUP2 SWAP1 MSTORE PUSH3 0x34 SWAP2 PUSH3 0x4AB JUMP JUMPDEST PUSH1 0x40 MLOAD PUSH3 0x42 SWAP1 PUSH3 0x2AF JUMP JUMPDEST PUSH1 0x40 MLOAD DUP1 SWAP2 SUB SWAP1 PUSH1 0x0 CREATE DUP1 ISZERO DUP1 ISZERO PUSH3 0x5F JUMPI RETURNDATASIZE PUSH1 0x0 DUP1 RETURNDATACOPY RETURNDATASIZE PUSH1 0x0 REVERT JUMPDEST POP PUSH1 0x9 DUP1 SLOAD PUSH1 0x1 PUSH1 0x1 PUSH1 0xA0 SHL SUB NOT AND PUSH1 0x1 PUSH1 0x1 PUSH1 0xA0 SHL SUB SWAP3 SWAP1 SWAP3 AND SWAP2 SWAP1 SWAP2 OR SWAP1 SSTORE PUSH3 0x8D DUP4 DUP4 DUP4 PUSH3 0x97 JUMP JUMPDEST POP POP POP POP PUSH3 0x6A9 JUMP JUMPDEST PUSH1 0x9 SLOAD PUSH1 0x40 DUP1 MLOAD PUSH4 0x3BF1B063 PUSH1 0xE2 SHL DUP2 MSTORE SWAP1 MLOAD PUSH1 0x0 SWAP3 PUSH1 0x1 PUSH1 0x1 PUSH1 0xA0 SHL SUB AND SWAP2 PUSH4 0xEFC6C18C SWAP2 PUSH1 0x4 DUP1 DUP4 ADD SWAP3 PUSH1 0x20 SWAP3 SWAP2 SWAP1 DUP3 SWAP1 SUB ADD DUP2 DUP7 GAS STATICCALL ISZERO DUP1 ISZERO PUSH3 0xE2 JUMPI RETURNDATASIZE PUSH1 0x0 DUP1 RETURNDATACOPY RETURNDATASIZE PUSH1 0x0 REVERT JUMPDEST POP POP POP POP PUSH1 0x40 MLOAD RETURNDATASIZE PUSH1 0x1F NOT PUSH1 0x1F DUP3 ADD AND DUP3 ADD DUP1 PUSH1 0x40 MSTORE POP DUP2 ADD SWAP1 PUSH3 0x108 SWAP2 SWAP1 PUSH3 0x5C4 JUMP JUMPDEST PUSH1 0x0 SSTORE DUP3 MLOAD PUSH3 0x120 SWAP1 PUSH1 0x2 SWAP1 PUSH1 0x20 DUP7 ADD SWAP1 PUSH3 0x2BD JUMP JUMPDEST POP DUP2 MLOAD PUSH3 0x136 SWAP1 PUSH1 0x3 SWAP1 PUSH1 0x20 DUP6 ADD SWAP1 PUSH3 0x2BD JUMP JUMPDEST POP TIMESTAMP PUSH1 0x4 SSTORE DUP4 MLOAD PUSH3 0x150 SWAP1 PUSH1 0x1 SWAP1 PUSH1 0x20 DUP8 ADD SWAP1 PUSH3 0x34C JUMP JUMPDEST POP PUSH1 0x7 DUP1 SLOAD PUSH1 0xFF NOT AND SWAP1 SSTORE PUSH1 0x40 DUP1 MLOAD DUP1 DUP3 ADD SWAP1 SWAP2 MSTORE PUSH1 0xD DUP2 MSTORE PUSH13 0x506F6C6C206372656174656421 PUSH1 0x98 SHL PUSH1 0x20 DUP3 ADD MSTORE PUSH3 0x18D SWAP1 PUSH1 0x1 SWAP1 PUSH3 0x198 JUMP JUMPDEST POP PUSH1 0x0 SLOAD SWAP4 SWAP3 POP POP POP JUMP JUMPDEST DUP2 PUSH1 0x3 DUP2 GT ISZERO PUSH3 0x1AD JUMPI PUSH3 0x1AD PUSH3 0x5DE JUMP JUMPDEST PUSH1 0x7 SLOAD PUSH1 0xFF AND PUSH1 0x3 DUP2 GT ISZERO PUSH3 0x1C7 JUMPI PUSH3 0x1C7 PUSH3 0x5DE JUMP JUMPDEST EQ PUSH3 0x23D JUMPI PUSH1 0x7 SLOAD PUSH1 0x40 MLOAD CALLER SWAP2 PUSH32 0xFC6F5E211098B443015CCB625104A41F61E97A80DD9B8734242A9A8C3EECC8DC SWAP2 PUSH3 0x20A SWAP2 PUSH1 0xFF AND SWAP1 DUP7 SWAP1 DUP7 SWAP1 PUSH3 0x617 JUMP JUMPDEST PUSH1 0x40 MLOAD DUP1 SWAP2 SUB SWAP1 LOG2 PUSH1 0x7 DUP1 SLOAD DUP4 SWAP2 SWAP1 PUSH1 0xFF NOT AND PUSH1 0x1 DUP4 PUSH1 0x3 DUP2 GT ISZERO PUSH3 0x234 JUMPI PUSH3 0x234 PUSH3 0x5DE JUMP JUMPDEST MUL OR SWAP1 SSTORE POP POP POP JUMP JUMPDEST PUSH1 0x40 MLOAD PUSH3 0x461BCD PUSH1 0xE5 SHL DUP2 MSTORE PUSH1 0x20 PUSH1 0x4 DUP3 ADD MSTORE PUSH1 0x36 PUSH1 0x24 DUP3 ADD MSTORE PUSH32 0x5374617465206E6F74206368616E6765642E204E657720737461746520697320 PUSH1 0x44 DUP3 ADD MSTORE PUSH32 0x7468652073616D65206173206F6C642073746174652100000000000000000000 PUSH1 0x64 DUP3 ADD MSTORE PUSH1 0x84 ADD PUSH1 0x40 MLOAD DUP1 SWAP2 SUB SWAP1 REVERT JUMPDEST PUSH2 0x744 DUP1 PUSH3 0x1E78 DUP4 CODECOPY ADD SWAP1 JUMP JUMPDEST DUP3 DUP1 SLOAD PUSH3 0x2CB SWAP1 PUSH3 0x66C JUMP JUMPDEST SWAP1 PUSH1 0x0 MSTORE PUSH1 0x20 PUSH1 0x0 KECCAK256 SWAP1 PUSH1 0x1F ADD PUSH1 0x20 SWAP1 DIV DUP2 ADD SWAP3 DUP3 PUSH3 0x2EF JUMPI PUSH1 0x0 DUP6 SSTORE PUSH3 0x33A JUMP JUMPDEST DUP3 PUSH1 0x1F LT PUSH3 0x30A JUMPI DUP1 MLOAD PUSH1 0xFF NOT AND DUP4 DUP1 ADD OR DUP6 SSTORE PUSH3 0x33A JUMP JUMPDEST DUP3 DUP1 ADD PUSH1 0x1 ADD DUP6 SSTORE DUP3 ISZERO PUSH3 0x33A JUMPI SWAP2 DUP3 ADD JUMPDEST DUP3 DUP2 GT ISZERO PUSH3 0x33A JUMPI DUP3 MLOAD DUP3 SSTORE SWAP2 PUSH1 0x20 ADD SWAP2 SWAP1 PUSH1 0x1 ADD SWAP1 PUSH3 0x31D JUMP JUMPDEST POP PUSH3 0x348 SWAP3 SWAP2 POP PUSH3 0x3A4 JUMP JUMPDEST POP SWAP1 JUMP JUMPDEST DUP3 DUP1 SLOAD DUP3 DUP3 SSTORE SWAP1 PUSH1 0x0 MSTORE PUSH1 0x20 PUSH1 0x0 KECCAK256 SWAP1 DUP2 ADD SWAP3 DUP3 ISZERO PUSH3 0x33A JUMPI SWAP2 PUSH1 0x20 MUL DUP3 ADD JUMPDEST DUP3 DUP2 GT ISZERO PUSH3 0x33A JUMPI DUP3 MLOAD DUP3 SLOAD PUSH1 0x1 PUSH1 0x1 PUSH1 0xA0 SHL SUB NOT AND PUSH1 0x1 PUSH1 0x1 PUSH1 0xA0 SHL SUB SWAP1 SWAP2 AND OR DUP3 SSTORE PUSH1 0x20 SWAP1 SWAP3 ADD SWAP2 PUSH1 0x1 SWAP1 SWAP2 ADD SWAP1 PUSH3 0x36D JUMP JUMPDEST JUMPDEST DUP1 DUP3 GT ISZERO PUSH3 0x348 JUMPI PUSH1 0x0 DUP2 SSTORE PUSH1 0x1 ADD PUSH3 0x3A5 JUMP JUMPDEST PUSH4 0x4E487B71 PUSH1 0xE0 SHL PUSH1 0x0 MSTORE PUSH1 0x41 PUSH1 0x4 MSTORE PUSH1 0x24 PUSH1 0x0 REVERT JUMPDEST PUSH1 0x40 MLOAD PUSH1 0x1F DUP3 ADD PUSH1 0x1F NOT AND DUP2 ADD PUSH1 0x1 PUSH1 0x1 PUSH1 0x40 SHL SUB DUP2 GT DUP3 DUP3 LT OR ISZERO PUSH3 0x3FC JUMPI PUSH3 0x3FC PUSH3 0x3BB JUMP JUMPDEST PUSH1 0x40 MSTORE SWAP2 SWAP1 POP JUMP JUMPDEST PUSH1 0x0 JUMPDEST DUP4 DUP2 LT ISZERO PUSH3 0x421 JUMPI DUP2 DUP2 ADD MLOAD DUP4 DUP3 ADD MSTORE PUSH1 0x20 ADD PUSH3 0x407 JUMP JUMPDEST DUP4 DUP2 GT ISZERO PUSH3 0x431 JUMPI PUSH1 0x0 DUP5 DUP5 ADD MSTORE JUMPDEST POP POP POP POP JUMP JUMPDEST PUSH1 0x0 DUP3 PUSH1 0x1F DUP4 ADD SLT PUSH3 0x449 JUMPI PUSH1 0x0 DUP1 REVERT JUMPDEST DUP2 MLOAD PUSH1 0x1 PUSH1 0x1 PUSH1 0x40 SHL SUB DUP2 GT ISZERO PUSH3 0x465 JUMPI PUSH3 0x465 PUSH3 0x3BB JUMP JUMPDEST PUSH3 0x47A PUSH1 0x1F DUP3 ADD PUSH1 0x1F NOT AND PUSH1 0x20 ADD PUSH3 0x3D1 JUMP JUMPDEST DUP2 DUP2 MSTORE DUP5 PUSH1 0x20 DUP4 DUP7 ADD ADD GT ISZERO PUSH3 0x490 JUMPI PUSH1 0x0 DUP1 REVERT JUMPDEST PUSH3 0x4A3 DUP3 PUSH1 0x20 DUP4 ADD PUSH1 0x20 DUP8 ADD PUSH3 0x404 JUMP JUMPDEST SWAP5 SWAP4 POP POP POP POP JUMP JUMPDEST PUSH1 0x0 DUP1 PUSH1 0x0 PUSH1 0x60 DUP5 DUP7 SUB SLT ISZERO PUSH3 0x4C1 JUMPI PUSH1 0x0 DUP1 REVERT JUMPDEST DUP4 MLOAD PUSH1 0x1 PUSH1 0x1 PUSH1 0x40 SHL SUB DUP1 DUP3 GT ISZERO PUSH3 0x4D9 JUMPI PUSH1 0x0 DUP1 REVERT JUMPDEST DUP2 DUP7 ADD SWAP2 POP DUP7 PUSH1 0x1F DUP4 ADD SLT PUSH3 0x4EE JUMPI PUSH1 0x0 DUP1 REVERT JUMPDEST DUP2 MLOAD PUSH1 0x20 DUP3 DUP3 GT ISZERO PUSH3 0x505 JUMPI PUSH3 0x505 PUSH3 0x3BB JUMP JUMPDEST DUP2 PUSH1 0x5 SHL PUSH3 0x516 DUP3 DUP3 ADD PUSH3 0x3D1 JUMP JUMPDEST SWAP3 DUP4 MSTORE DUP5 DUP2 ADD DUP3 ADD SWAP3 DUP3 DUP2 ADD SWAP1 DUP12 DUP6 GT ISZERO PUSH3 0x531 JUMPI PUSH1 0x0 DUP1 REVERT JUMPDEST SWAP6 DUP4 ADD SWAP6 JUMPDEST DUP5 DUP8 LT ISZERO PUSH3 0x56B JUMPI DUP7 MLOAD SWAP3 POP PUSH1 0x1 PUSH1 0x1 PUSH1 0xA0 SHL SUB DUP4 AND DUP4 EQ PUSH3 0x55A JUMPI PUSH1 0x0 DUP1 DUP2 REVERT JUMPDEST DUP3 DUP3 MSTORE SWAP6 DUP4 ADD SWAP6 SWAP1 DUP4 ADD SWAP1 PUSH3 0x536 JUMP JUMPDEST SWAP3 DUP11 ADD MLOAD SWAP3 SWAP9 POP SWAP2 SWAP5 POP POP POP POP DUP1 DUP3 GT ISZERO PUSH3 0x586 JUMPI PUSH1 0x0 DUP1 REVERT JUMPDEST PUSH3 0x594 DUP8 DUP4 DUP9 ADD PUSH3 0x437 JUMP JUMPDEST SWAP4 POP PUSH1 0x40 DUP7 ADD MLOAD SWAP2 POP DUP1 DUP3 GT ISZERO PUSH3 0x5AB JUMPI PUSH1 0x0 DUP1 REVERT JUMPDEST POP PUSH3 0x5BA DUP7 DUP3 DUP8 ADD PUSH3 0x437 JUMP JUMPDEST SWAP2 POP POP SWAP3 POP SWAP3 POP SWAP3 JUMP JUMPDEST PUSH1 0x0 PUSH1 0x20 DUP3 DUP5 SUB SLT ISZERO PUSH3 0x5D7 JUMPI PUSH1 0x0 DUP1 REVERT JUMPDEST POP MLOAD SWAP2 SWAP1 POP JUMP JUMPDEST PUSH4 0x4E487B71 PUSH1 0xE0 SHL PUSH1 0x0 MSTORE PUSH1 0x21 PUSH1 0x4 MSTORE PUSH1 0x24 PUSH1 0x0 REVERT JUMPDEST PUSH1 0x4 DUP2 LT PUSH3 0x613 JUMPI PUSH4 0x4E487B71 PUSH1 0xE0 SHL PUSH1 0x0 MSTORE PUSH1 0x21 PUSH1 0x4 MSTORE PUSH1 0x24 PUSH1 0x0 REVERT JUMPDEST SWAP1 MSTORE JUMP JUMPDEST PUSH3 0x623 DUP2 DUP6 PUSH3 0x5F4 JUMP JUMPDEST PUSH3 0x632 PUSH1 0x20 DUP3 ADD DUP5 PUSH3 0x5F4 JUMP JUMPDEST PUSH1 0x60 PUSH1 0x40 DUP3 ADD MSTORE PUSH1 0x0 DUP3 MLOAD DUP1 PUSH1 0x60 DUP5 ADD MSTORE PUSH3 0x656 DUP2 PUSH1 0x80 DUP6 ADD PUSH1 0x20 DUP8 ADD PUSH3 0x404 JUMP JUMPDEST PUSH1 0x1F ADD PUSH1 0x1F NOT AND SWAP2 SWAP1 SWAP2 ADD PUSH1 0x80 ADD SWAP5 SWAP4 POP POP POP POP JUMP JUMPDEST PUSH1 0x1 DUP2 DUP2 SHR SWAP1 DUP3 AND DUP1 PUSH3 0x681 JUMPI PUSH1 0x7F DUP3 AND SWAP2 POP JUMPDEST PUSH1 0x20 DUP3 LT DUP2 EQ ISZERO PUSH3 0x6A3 JUMPI PUSH4 0x4E487B71 PUSH1 0xE0 SHL PUSH1 0x0 MSTORE PUSH1 0x22 PUSH1 0x4 MSTORE PUSH1 0x24 PUSH1 0x0 REVERT JUMPDEST POP SWAP2 SWAP1 POP JUMP JUMPDEST PUSH2 0x17BF DUP1 PUSH3 0x6B9 PUSH1 0x0 CODECOPY PUSH1 0x0 RETURN INVALID PUSH1 0x80 PUSH1 0x40 MSTORE CALLVALUE DUP1 ISZERO PUSH2 0x10 JUMPI PUSH1 0x0 DUP1 REVERT JUMPDEST POP PUSH1 0x4 CALLDATASIZE LT PUSH2 0x14D JUMPI PUSH1 0x0 CALLDATALOAD PUSH1 0xE0 SHR DUP1 PUSH4 0x64697E2C GT PUSH2 0xC3 JUMPI DUP1 PUSH4 0xC19D93FB GT PUSH2 0x7C JUMPI DUP1 PUSH4 0xC19D93FB EQ PUSH2 0x25E JUMPI DUP1 PUSH4 0xCC2EE196 EQ PUSH2 0x278 JUMPI DUP1 PUSH4 0xD9F3A5C1 EQ PUSH2 0x28D JUMPI DUP1 PUSH4 0xDDD7531B EQ PUSH2 0x295 JUMPI DUP1 PUSH4 0xE0A96CD6 EQ PUSH2 0x2A8 JUMPI DUP1 PUSH4 0xFF3C1A8F EQ PUSH2 0x2CD JUMPI PUSH1 0x0 DUP1 REVERT JUMPDEST DUP1 PUSH4 0x64697E2C EQ PUSH2 0x21F JUMPI DUP1 PUSH4 0x7284E416 EQ PUSH2 0x232 JUMPI DUP1 PUSH4 0xA6BD5427 EQ PUSH2 0x18C JUMPI DUP1 PUSH4 0xA89A0862 EQ PUSH2 0x23A JUMPI DUP1 PUSH4 0xAF640D0F EQ PUSH2 0x24D JUMPI DUP1 PUSH4 0xB90C1DBB EQ PUSH2 0x256 JUMPI PUSH1 0x0 DUP1 REVERT JUMPDEST DUP1 PUSH4 0x409E2205 GT PUSH2 0x115 JUMPI DUP1 PUSH4 0x409E2205 EQ PUSH2 0x1BB JUMPI DUP1 PUSH4 0x42169E48 EQ PUSH2 0x1E1 JUMPI DUP1 PUSH4 0x4A79D50C EQ PUSH2 0x1EA JUMPI DUP1 PUSH4 0x4F4A3115 EQ PUSH2 0x1F2 JUMPI DUP1 PUSH4 0x517B7042 EQ PUSH2 0x205 JUMPI DUP1 PUSH4 0x62A5AF3B EQ PUSH2 0x217 JUMPI PUSH1 0x0 DUP1 REVERT JUMPDEST DUP1 PUSH4 0x25E7C27 EQ PUSH2 0x152 JUMPI DUP1 PUSH4 0xF15F4C0 EQ PUSH2 0x182 JUMPI DUP1 PUSH4 0x11174A29 EQ PUSH2 0x18C JUMPI DUP1 PUSH4 0x1A092541 EQ PUSH2 0x19E JUMPI DUP1 PUSH4 0x2F2770DB EQ PUSH2 0x1B3 JUMPI JUMPDEST PUSH1 0x0 DUP1 REVERT JUMPDEST PUSH2 0x165 PUSH2 0x160 CALLDATASIZE PUSH1 0x4 PUSH2 0x11CA JUMP JUMPDEST PUSH2 0x2D5 JUMP JUMPDEST PUSH1 0x40 MLOAD PUSH1 0x1 PUSH1 0x1 PUSH1 0xA0 SHL SUB SWAP1 SWAP2 AND DUP2 MSTORE PUSH1 0x20 ADD JUMPDEST PUSH1 0x40 MLOAD DUP1 SWAP2 SUB SWAP1 RETURN JUMPDEST PUSH2 0x18A PUSH2 0x2FF JUMP JUMPDEST STOP JUMPDEST PUSH1 0x6 SLOAD JUMPDEST PUSH1 0x40 MLOAD SWAP1 DUP2 MSTORE PUSH1 0x20 ADD PUSH2 0x179 JUMP JUMPDEST PUSH2 0x1A6 PUSH2 0x3B9 JUMP JUMPDEST PUSH1 0x40 MLOAD PUSH2 0x179 SWAP2 SWAP1 PUSH2 0x1230 JUMP JUMPDEST PUSH2 0x18A PUSH2 0x44B JUMP JUMPDEST PUSH2 0x1CE PUSH2 0x1C9 CALLDATASIZE PUSH1 0x4 PUSH2 0x11CA JUMP JUMPDEST PUSH2 0x4F8 JUMP JUMPDEST PUSH1 0x40 MLOAD PUSH2 0x179 SWAP8 SWAP7 SWAP6 SWAP5 SWAP4 SWAP3 SWAP2 SWAP1 PUSH2 0x124A JUMP JUMPDEST PUSH2 0x190 PUSH1 0x6 SLOAD DUP2 JUMP JUMPDEST PUSH2 0x1A6 PUSH2 0x66A JUMP JUMPDEST PUSH2 0x18A PUSH2 0x200 CALLDATASIZE PUSH1 0x4 PUSH2 0x11CA JUMP JUMPDEST PUSH2 0x6F8 JUMP JUMPDEST PUSH2 0x190 PUSH2 0x213 CALLDATASIZE PUSH1 0x4 PUSH2 0x13A3 JUMP JUMPDEST MLOAD SWAP1 JUMP JUMPDEST PUSH2 0x18A PUSH2 0x7B9 JUMP JUMPDEST PUSH2 0x18A PUSH2 0x22D CALLDATASIZE PUSH1 0x4 PUSH2 0x11CA JUMP JUMPDEST PUSH2 0x864 JUMP JUMPDEST PUSH2 0x1A6 PUSH2 0x9F2 JUMP JUMPDEST PUSH2 0x18A PUSH2 0x248 CALLDATASIZE PUSH1 0x4 PUSH2 0x147E JUMP JUMPDEST PUSH2 0x9FF JUMP JUMPDEST PUSH2 0x190 PUSH1 0x0 SLOAD DUP2 JUMP JUMPDEST PUSH1 0x4 SLOAD PUSH2 0x190 JUMP JUMPDEST PUSH1 0x7 SLOAD PUSH2 0x26B SWAP1 PUSH1 0xFF AND DUP2 JUMP JUMPDEST PUSH1 0x40 MLOAD PUSH2 0x179 SWAP2 SWAP1 PUSH2 0x153B JUMP JUMPDEST PUSH2 0x280 PUSH2 0xC3C JUMP JUMPDEST PUSH1 0x40 MLOAD PUSH2 0x179 SWAP2 SWAP1 PUSH2 0x154F JUMP JUMPDEST PUSH2 0x18A PUSH2 0xE0E JUMP JUMPDEST PUSH2 0x18A PUSH2 0x2A3 CALLDATASIZE PUSH1 0x4 PUSH2 0x11CA JUMP JUMPDEST PUSH2 0xF4D JUMP JUMPDEST PUSH2 0x2BD PUSH2 0x2B6 CALLDATASIZE PUSH1 0x4 PUSH2 0x13A3 JUMP JUMPDEST PUSH1 0x60 ADD MLOAD SWAP1 JUMP JUMPDEST PUSH1 0x40 MLOAD SWAP1 ISZERO ISZERO DUP2 MSTORE PUSH1 0x20 ADD PUSH2 0x179 JUMP JUMPDEST PUSH2 0x1A6 PUSH2 0xFAD JUMP JUMPDEST PUSH1 0x1 DUP2 DUP2 SLOAD DUP2 LT PUSH2 0x2E5 JUMPI PUSH1 0x0 DUP1 REVERT JUMPDEST PUSH1 0x0 SWAP2 DUP3 MSTORE PUSH1 0x20 SWAP1 SWAP2 KECCAK256 ADD SLOAD PUSH1 0x1 PUSH1 0x1 PUSH1 0xA0 SHL SUB AND SWAP1 POP DUP2 JUMP JUMPDEST PUSH1 0x1 PUSH1 0x0 JUMPDEST PUSH1 0x1 SLOAD DUP2 LT ISZERO PUSH2 0x358 JUMPI PUSH1 0x1 DUP2 DUP2 SLOAD DUP2 LT PUSH2 0x321 JUMPI PUSH2 0x321 PUSH2 0x161C JUMP JUMPDEST PUSH1 0x0 SWAP2 DUP3 MSTORE PUSH1 0x20 SWAP1 SWAP2 KECCAK256 ADD SLOAD PUSH1 0x1 PUSH1 0x1 PUSH1 0xA0 SHL SUB AND CALLER EQ ISZERO PUSH2 0x346 JUMPI PUSH1 0x1 SWAP2 POP PUSH2 0x358 JUMP JUMPDEST DUP1 PUSH2 0x350 DUP2 PUSH2 0x1648 JUMP JUMPDEST SWAP2 POP POP PUSH2 0x304 JUMP JUMPDEST POP PUSH1 0x1 DUP2 ISZERO ISZERO EQ PUSH2 0x384 JUMPI PUSH1 0x40 MLOAD PUSH3 0x461BCD PUSH1 0xE5 SHL DUP2 MSTORE PUSH1 0x4 ADD PUSH2 0x37B SWAP1 PUSH2 0x1663 JUMP JUMPDEST PUSH1 0x40 MLOAD DUP1 SWAP2 SUB SWAP1 REVERT JUMPDEST PUSH2 0x3B6 PUSH1 0x1 PUSH1 0x40 MLOAD DUP1 PUSH1 0x40 ADD PUSH1 0x40 MSTORE DUP1 PUSH1 0xF DUP2 MSTORE PUSH1 0x20 ADD PUSH15 0x506F6C6C2061637469766174656421 PUSH1 0x88 SHL DUP2 MSTORE POP PUSH2 0xFBC JUMP JUMPDEST POP JUMP JUMPDEST PUSH1 0x60 PUSH1 0x3 DUP1 SLOAD PUSH2 0x3C8 SWAP1 PUSH2 0x16A5 JUMP JUMPDEST DUP1 PUSH1 0x1F ADD PUSH1 0x20 DUP1 SWAP2 DIV MUL PUSH1 0x20 ADD PUSH1 0x40 MLOAD SWAP1 DUP2 ADD PUSH1 0x40 MSTORE DUP1 SWAP3 SWAP2 SWAP1 DUP2 DUP2 MSTORE PUSH1 0x20 ADD DUP3 DUP1 SLOAD PUSH2 0x3F4 SWAP1 PUSH2 0x16A5 JUMP JUMPDEST DUP1 ISZERO PUSH2 0x441 JUMPI DUP1 PUSH1 0x1F LT PUSH2 0x416 JUMPI PUSH2 0x100 DUP1 DUP4 SLOAD DIV MUL DUP4 MSTORE SWAP2 PUSH1 0x20 ADD SWAP2 PUSH2 0x441 JUMP JUMPDEST DUP3 ADD SWAP2 SWAP1 PUSH1 0x0 MSTORE PUSH1 0x20 PUSH1 0x0 KECCAK256 SWAP1 JUMPDEST DUP2 SLOAD DUP2 MSTORE SWAP1 PUSH1 0x1 ADD SWAP1 PUSH1 0x20 ADD DUP1 DUP4 GT PUSH2 0x424 JUMPI DUP3 SWAP1 SUB PUSH1 0x1F AND DUP3 ADD SWAP2 JUMPDEST POP POP POP POP POP SWAP1 POP SWAP1 JUMP JUMPDEST PUSH1 0x1 PUSH1 0x0 JUMPDEST PUSH1 0x1 SLOAD DUP2 LT ISZERO PUSH2 0x4A4 JUMPI PUSH1 0x1 DUP2 DUP2 SLOAD DUP2 LT PUSH2 0x46D JUMPI PUSH2 0x46D PUSH2 0x161C JUMP JUMPDEST PUSH1 0x0 SWAP2 DUP3 MSTORE PUSH1 0x20 SWAP1 SWAP2 KECCAK256 ADD SLOAD PUSH1 0x1 PUSH1 0x1 PUSH1 0xA0 SHL SUB AND CALLER EQ ISZERO PUSH2 0x492 JUMPI PUSH1 0x1 SWAP2 POP PUSH2 0x4A4 JUMP JUMPDEST DUP1 PUSH2 0x49C DUP2 PUSH2 0x1648 JUMP JUMPDEST SWAP2 POP POP PUSH2 0x450 JUMP JUMPDEST POP PUSH1 0x1 DUP2 ISZERO ISZERO EQ PUSH2 0x4C7 JUMPI PUSH1 0x40 MLOAD PUSH3 0x461BCD PUSH1 0xE5 SHL DUP2 MSTORE PUSH1 0x4 ADD PUSH2 0x37B SWAP1 PUSH2 0x1663 JUMP JUMPDEST PUSH2 0x3B6 PUSH1 0x3 PUSH1 0x40 MLOAD DUP1 PUSH1 0x40 ADD PUSH1 0x40 MSTORE DUP1 PUSH1 0xE DUP2 MSTORE PUSH1 0x20 ADD PUSH14 0x506F6C6C2064697361626C656421 PUSH1 0x90 SHL DUP2 MSTORE POP PUSH2 0xFBC JUMP JUMPDEST PUSH1 0x5 DUP2 DUP2 SLOAD DUP2 LT PUSH2 0x508 JUMPI PUSH1 0x0 DUP1 REVERT JUMPDEST PUSH1 0x0 SWAP2 DUP3 MSTORE PUSH1 0x20 SWAP1 SWAP2 KECCAK256 PUSH1 0x6 SWAP1 SWAP2 MUL ADD DUP1 SLOAD PUSH1 0x1 DUP3 ADD SLOAD PUSH1 0x2 DUP4 ADD SLOAD PUSH1 0x3 DUP5 ADD DUP1 SLOAD SWAP4 SWAP6 POP PUSH1 0x1 PUSH1 0x1 PUSH1 0xA0 SHL SUB SWAP3 DUP4 AND SWAP5 SWAP3 DUP3 AND SWAP4 PUSH1 0x1 PUSH1 0xA0 SHL SWAP1 SWAP3 DIV PUSH1 0xFF AND SWAP3 SWAP2 PUSH2 0x553 SWAP1 PUSH2 0x16A5 JUMP JUMPDEST DUP1 PUSH1 0x1F ADD PUSH1 0x20 DUP1 SWAP2 DIV MUL PUSH1 0x20 ADD PUSH1 0x40 MLOAD SWAP1 DUP2 ADD PUSH1 0x40 MSTORE DUP1 SWAP3 SWAP2 SWAP1 DUP2 DUP2 MSTORE PUSH1 0x20 ADD DUP3 DUP1 SLOAD PUSH2 0x57F SWAP1 PUSH2 0x16A5 JUMP JUMPDEST DUP1 ISZERO PUSH2 0x5CC JUMPI DUP1 PUSH1 0x1F LT PUSH2 0x5A1 JUMPI PUSH2 0x100 DUP1 DUP4 SLOAD DIV MUL DUP4 MSTORE SWAP2 PUSH1 0x20 ADD SWAP2 PUSH2 0x5CC JUMP JUMPDEST DUP3 ADD SWAP2 SWAP1 PUSH1 0x0 MSTORE PUSH1 0x20 PUSH1 0x0 KECCAK256 SWAP1 JUMPDEST DUP2 SLOAD DUP2 MSTORE SWAP1 PUSH1 0x1 ADD SWAP1 PUSH1 0x20 ADD DUP1 DUP4 GT PUSH2 0x5AF JUMPI DUP3 SWAP1 SUB PUSH1 0x1F AND DUP3 ADD SWAP2 JUMPDEST POP POP POP POP POP SWAP1 DUP1 PUSH1 0x4 ADD DUP1 SLOAD PUSH2 0x5E1 SWAP1 PUSH2 0x16A5 JUMP JUMPDEST DUP1 PUSH1 0x1F ADD PUSH1 0x20 DUP1 SWAP2 DIV MUL PUSH1 0x20 ADD PUSH1 0x40 MLOAD SWAP1 DUP2 ADD PUSH1 0x40 MSTORE DUP1 SWAP3 SWAP2 SWAP1 DUP2 DUP2 MSTORE PUSH1 0x20 ADD DUP3 DUP1 SLOAD PUSH2 0x60D SWAP1 PUSH2 0x16A5 JUMP JUMPDEST DUP1 ISZERO PUSH2 0x65A JUMPI DUP1 PUSH1 0x1F LT PUSH2 0x62F JUMPI PUSH2 0x100 DUP1 DUP4 SLOAD DIV MUL DUP4 MSTORE SWAP2 PUSH1 0x20 ADD SWAP2 PUSH2 0x65A JUMP JUMPDEST DUP3 ADD SWAP2 SWAP1 PUSH1 0x0 MSTORE PUSH1 0x20 PUSH1 0x0 KECCAK256 SWAP1 JUMPDEST DUP2 SLOAD DUP2 MSTORE SWAP1 PUSH1 0x1 ADD SWAP1 PUSH1 0x20 ADD DUP1 DUP4 GT PUSH2 0x63D JUMPI DUP3 SWAP1 SUB PUSH1 0x1F AND DUP3 ADD SWAP2 JUMPDEST POP POP POP POP POP SWAP1 DUP1 PUSH1 0x5 ADD SLOAD SWAP1 POP DUP8 JUMP JUMPDEST PUSH1 0x2 DUP1 SLOAD PUSH2 0x677 SWAP1 PUSH2 0x16A5 JUMP JUMPDEST DUP1 PUSH1 0x1F ADD PUSH1 0x20 DUP1 SWAP2 DIV MUL PUSH1 0x20 ADD PUSH1 0x40 MLOAD SWAP1 DUP2 ADD PUSH1 0x40 MSTORE DUP1 SWAP3 SWAP2 SWAP1 DUP2 DUP2 MSTORE PUSH1 0x20 ADD DUP3 DUP1 SLOAD PUSH2 0x6A3 SWAP1 PUSH2 0x16A5 JUMP JUMPDEST DUP1 ISZERO PUSH2 0x6F0 JUMPI DUP1 PUSH1 0x1F LT PUSH2 0x6C5 JUMPI PUSH2 0x100 DUP1 DUP4 SLOAD DIV MUL DUP4 MSTORE SWAP2 PUSH1 0x20 ADD SWAP2 PUSH2 0x6F0 JUMP JUMPDEST DUP3 ADD SWAP2 SWAP1 PUSH1 0x0 MSTORE PUSH1 0x20 PUSH1 0x0 KECCAK256 SWAP1 JUMPDEST DUP2 SLOAD DUP2 MSTORE SWAP1 PUSH1 0x1 ADD SWAP1 PUSH1 0x20 ADD DUP1 DUP4 GT PUSH2 0x6D3 JUMPI DUP3 SWAP1 SUB PUSH1 0x1F AND DUP3 ADD SWAP2 JUMPDEST POP POP POP POP POP DUP2 JUMP JUMPDEST PUSH1 0x0 JUMPDEST PUSH1 0x5 SLOAD DUP2 LT ISZERO PUSH2 0x784 JUMPI DUP2 PUSH1 0x5 DUP3 DUP2 SLOAD DUP2 LT PUSH2 0x719 JUMPI PUSH2 0x719 PUSH2 0x161C JUMP JUMPDEST SWAP1 PUSH1 0x0 MSTORE PUSH1 0x20 PUSH1 0x0 KECCAK256 SWAP1 PUSH1 0x6 MUL ADD PUSH1 0x0 ADD SLOAD EQ ISZERO PUSH2 0x772 JUMPI PUSH1 0x0 PUSH1 0x5 DUP3 DUP2 SLOAD DUP2 LT PUSH2 0x746 JUMPI PUSH2 0x746 PUSH2 0x161C JUMP JUMPDEST SWAP1 PUSH1 0x0 MSTORE PUSH1 0x20 PUSH1 0x0 KECCAK256 SWAP1 PUSH1 0x6 MUL ADD PUSH1 0x2 ADD PUSH1 0x14 PUSH2 0x100 EXP DUP2 SLOAD DUP2 PUSH1 0xFF MUL NOT AND SWAP1 DUP4 ISZERO ISZERO MUL OR SWAP1 SSTORE POP POP POP JUMP JUMPDEST DUP1 PUSH2 0x77C DUP2 PUSH2 0x1648 JUMP JUMPDEST SWAP2 POP POP PUSH2 0x6FB JUMP JUMPDEST POP PUSH1 0x40 MLOAD PUSH3 0x461BCD PUSH1 0xE5 SHL DUP2 MSTORE PUSH1 0x20 PUSH1 0x4 DUP3 ADD MSTORE PUSH1 0x9 PUSH1 0x24 DUP3 ADD MSTORE PUSH9 0x139BDD08199BDD5B99 PUSH1 0xBA SHL PUSH1 0x44 DUP3 ADD MSTORE PUSH1 0x64 ADD PUSH2 0x37B JUMP JUMPDEST PUSH1 0x1 PUSH1 0x0 JUMPDEST PUSH1 0x1 SLOAD DUP2 LT ISZERO PUSH2 0x812 JUMPI PUSH1 0x1 DUP2 DUP2 SLOAD DUP2 LT PUSH2 0x7DB JUMPI PUSH2 0x7DB PUSH2 0x161C JUMP JUMPDEST PUSH1 0x0 SWAP2 DUP3 MSTORE PUSH1 0x20 SWAP1 SWAP2 KECCAK256 ADD SLOAD PUSH1 0x1 PUSH1 0x1 PUSH1 0xA0 SHL SUB AND CALLER EQ ISZERO PUSH2 0x800 JUMPI PUSH1 0x1 SWAP2 POP PUSH2 0x812 JUMP JUMPDEST DUP1 PUSH2 0x80A DUP2 PUSH2 0x1648 JUMP JUMPDEST SWAP2 POP POP PUSH2 0x7BE JUMP JUMPDEST POP PUSH1 0x1 DUP2 ISZERO ISZERO EQ PUSH2 0x835 JUMPI PUSH1 0x40 MLOAD PUSH3 0x461BCD PUSH1 0xE5 SHL DUP2 MSTORE PUSH1 0x4 ADD PUSH2 0x37B SWAP1 PUSH2 0x1663 JUMP JUMPDEST PUSH2 0x3B6 PUSH1 0x2 PUSH1 0x40 MLOAD DUP1 PUSH1 0x40 ADD PUSH1 0x40 MSTORE DUP1 PUSH1 0xC DUP2 MSTORE PUSH1 0x20 ADD PUSH12 0x506F6C6C2066726F7A656E21 PUSH1 0xA0 SHL DUP2 MSTORE POP PUSH2 0xFBC JUMP JUMPDEST PUSH1 0x1 PUSH1 0x7 SLOAD PUSH1 0xFF AND PUSH1 0x3 DUP2 GT ISZERO PUSH2 0x87D JUMPI PUSH2 0x87D PUSH2 0x1503 JUMP JUMPDEST EQ PUSH2 0x89A JUMPI PUSH1 0x40 MLOAD PUSH3 0x461BCD PUSH1 0xE5 SHL DUP2 MSTORE PUSH1 0x4 ADD PUSH2 0x37B SWAP1 PUSH2 0x16E0 JUMP JUMPDEST CALLER PUSH1 0x0 PUSH2 0x8A6 DUP4 PUSH2 0x10BC JUMP JUMPDEST PUSH1 0x2 DUP2 ADD SLOAD SWAP1 SWAP2 POP PUSH1 0x1 PUSH1 0xA0 SHL SWAP1 DIV PUSH1 0xFF AND ISZERO PUSH2 0x9AD JUMPI PUSH1 0x1 PUSH1 0x1 PUSH1 0xA0 SHL SUB DUP3 AND PUSH1 0x0 SWAP1 DUP2 MSTORE PUSH1 0x8 PUSH1 0x20 MSTORE PUSH1 0x40 SWAP1 KECCAK256 SLOAD DUP1 ISZERO PUSH2 0x906 JUMPI PUSH1 0x0 PUSH2 0x8E7 DUP3 PUSH2 0x10BC JUMP JUMPDEST PUSH1 0x5 DUP2 ADD DUP1 SLOAD SWAP2 SWAP3 POP PUSH1 0x0 PUSH2 0x8FB DUP4 PUSH2 0x1724 JUMP JUMPDEST SWAP2 SWAP1 POP SSTORE POP POP PUSH2 0x977 JUMP JUMPDEST DUP4 DUP2 EQ ISZERO PUSH2 0x961 JUMPI PUSH1 0x40 MLOAD PUSH3 0x461BCD PUSH1 0xE5 SHL DUP2 MSTORE PUSH1 0x20 PUSH1 0x4 DUP3 ADD MSTORE PUSH1 0x22 PUSH1 0x24 DUP3 ADD MSTORE PUSH32 0x5573657220616C726561647920766F74656420666F722074686973206F707469 PUSH1 0x44 DUP3 ADD MSTORE PUSH2 0x37B7 PUSH1 0xF1 SHL PUSH1 0x64 DUP3 ADD MSTORE PUSH1 0x84 ADD PUSH2 0x37B JUMP JUMPDEST PUSH1 0x6 DUP1 SLOAD SWAP1 PUSH1 0x0 PUSH2 0x971 DUP4 PUSH2 0x1648 JUMP JUMPDEST SWAP2 SWAP1 POP SSTORE POP JUMPDEST PUSH1 0x1 PUSH1 0x1 PUSH1 0xA0 SHL SUB DUP4 AND PUSH1 0x0 SWAP1 DUP2 MSTORE PUSH1 0x8 PUSH1 0x20 MSTORE PUSH1 0x40 DUP2 KECCAK256 DUP6 SWAP1 SSTORE PUSH1 0x5 DUP4 ADD DUP1 SLOAD SWAP2 PUSH2 0x9A2 DUP4 PUSH2 0x1648 JUMP JUMPDEST SWAP2 SWAP1 POP SSTORE POP POP POP POP POP JUMP JUMPDEST PUSH1 0x40 MLOAD PUSH3 0x461BCD PUSH1 0xE5 SHL DUP2 MSTORE PUSH1 0x20 PUSH1 0x4 DUP3 ADD MSTORE PUSH1 0x15 PUSH1 0x24 DUP3 ADD MSTORE PUSH21 0x4F7074696F6E206973206E6F742061637469766521 PUSH1 0x58 SHL PUSH1 0x44 DUP3 ADD MSTORE PUSH1 0x64 ADD PUSH2 0x37B JUMP JUMPDEST POP POP POP JUMP JUMPDEST PUSH1 0x3 DUP1 SLOAD PUSH2 0x677 SWAP1 PUSH2 0x16A5 JUMP JUMPDEST PUSH1 0x1 PUSH1 0x7 SLOAD PUSH1 0xFF AND PUSH1 0x3 DUP2 GT ISZERO PUSH2 0xA18 JUMPI PUSH2 0xA18 PUSH2 0x1503 JUMP JUMPDEST EQ PUSH2 0xA35 JUMPI PUSH1 0x40 MLOAD PUSH3 0x461BCD PUSH1 0xE5 SHL DUP2 MSTORE PUSH1 0x4 ADD PUSH2 0x37B SWAP1 PUSH2 0x16E0 JUMP JUMPDEST PUSH1 0x1 PUSH1 0x0 JUMPDEST PUSH1 0x1 SLOAD DUP2 LT ISZERO PUSH2 0xA8E JUMPI PUSH1 0x1 DUP2 DUP2 SLOAD DUP2 LT PUSH2 0xA57 JUMPI PUSH2 0xA57 PUSH2 0x161C JUMP JUMPDEST PUSH1 0x0 SWAP2 DUP3 MSTORE PUSH1 0x20 SWAP1 SWAP2 KECCAK256 ADD SLOAD PUSH1 0x1 PUSH1 0x1 PUSH1 0xA0 SHL SUB AND CALLER EQ ISZERO PUSH2 0xA7C JUMPI PUSH1 0x1 SWAP2 POP PUSH2 0xA8E JUMP JUMPDEST DUP1 PUSH2 0xA86 DUP2 PUSH2 0x1648 JUMP JUMPDEST SWAP2 POP POP PUSH2 0xA3A JUMP JUMPDEST POP PUSH1 0x1 DUP2 ISZERO ISZERO EQ PUSH2 0xAB1 JUMPI PUSH1 0x40 MLOAD PUSH3 0x461BCD PUSH1 0xE5 SHL DUP2 MSTORE PUSH1 0x4 ADD PUSH2 0x37B SWAP1 PUSH2 0x1663 JUMP JUMPDEST PUSH1 0x5 SLOAD CALLER SWAP1 PUSH1 0x0 SWAP1 PUSH2 0xAC5 SWAP1 PUSH2 0x3E8 PUSH2 0x173B JUMP JUMPDEST PUSH1 0x40 DUP1 MLOAD PUSH1 0xE0 DUP2 ADD DUP3 MSTORE DUP3 DUP2 MSTORE PUSH1 0x1 PUSH1 0x1 PUSH1 0xA0 SHL SUB DUP1 DUP12 AND PUSH1 0x20 DUP1 DUP5 ADD SWAP2 DUP3 MSTORE DUP8 DUP4 AND SWAP5 DUP5 ADD SWAP5 DUP6 MSTORE DUP12 ISZERO ISZERO PUSH1 0x60 DUP6 ADD SWAP1 DUP2 MSTORE PUSH1 0x80 DUP6 ADD DUP13 DUP2 MSTORE PUSH1 0xA0 DUP7 ADD DUP13 SWAP1 MSTORE PUSH1 0x0 PUSH1 0xC0 DUP8 ADD DUP2 SWAP1 MSTORE PUSH1 0x5 DUP1 SLOAD PUSH1 0x1 DUP2 ADD DUP3 SSTORE SWAP2 MSTORE DUP7 MLOAD PUSH1 0x6 SWAP1 SWAP2 MUL PUSH32 0x36B6384B5ECA791C62761152D0C79BB0604C104A5FB6F4EB0703F3154BB3DB0 DUP2 ADD SWAP2 DUP3 SSTORE SWAP5 MLOAD PUSH32 0x36B6384B5ECA791C62761152D0C79BB0604C104A5FB6F4EB0703F3154BB3DB1 DUP7 ADD DUP1 SLOAD SWAP2 DUP9 AND PUSH1 0x1 PUSH1 0x1 PUSH1 0xA0 SHL SUB NOT SWAP1 SWAP3 AND SWAP2 SWAP1 SWAP2 OR SWAP1 SSTORE SWAP7 MLOAD PUSH32 0x36B6384B5ECA791C62761152D0C79BB0604C104A5FB6F4EB0703F3154BB3DB2 DUP6 ADD DUP1 SLOAD SWAP4 MLOAD ISZERO ISZERO PUSH1 0x1 PUSH1 0xA0 SHL MUL PUSH1 0x1 PUSH1 0x1 PUSH1 0xA8 SHL SUB NOT SWAP1 SWAP5 AND SWAP2 SWAP1 SWAP7 AND OR SWAP2 SWAP1 SWAP2 OR SWAP1 SWAP4 SSTORE SWAP2 MLOAD DUP1 MLOAD SWAP6 SWAP7 POP SWAP3 SWAP5 DUP6 SWAP5 SWAP4 PUSH2 0xC09 SWAP4 PUSH32 0x36B6384B5ECA791C62761152D0C79BB0604C104A5FB6F4EB0703F3154BB3DB3 SWAP1 SWAP4 ADD SWAP3 ADD SWAP1 PUSH2 0x1131 JUMP JUMPDEST POP PUSH1 0xA0 DUP3 ADD MLOAD DUP1 MLOAD PUSH2 0xC25 SWAP2 PUSH1 0x4 DUP5 ADD SWAP2 PUSH1 0x20 SWAP1 SWAP2 ADD SWAP1 PUSH2 0x1131 JUMP JUMPDEST POP PUSH1 0xC0 DUP3 ADD MLOAD DUP2 PUSH1 0x5 ADD SSTORE POP POP POP POP POP POP POP POP POP POP JUMP JUMPDEST PUSH1 0x60 PUSH1 0x5 DUP1 SLOAD DUP1 PUSH1 0x20 MUL PUSH1 0x20 ADD PUSH1 0x40 MLOAD SWAP1 DUP2 ADD PUSH1 0x40 MSTORE DUP1 SWAP3 SWAP2 SWAP1 DUP2 DUP2 MSTORE PUSH1 0x20 ADD PUSH1 0x0 SWAP1 JUMPDEST DUP3 DUP3 LT ISZERO PUSH2 0xE05 JUMPI PUSH1 0x0 DUP5 DUP2 MSTORE PUSH1 0x20 SWAP1 DUP2 SWAP1 KECCAK256 PUSH1 0x40 DUP1 MLOAD PUSH1 0xE0 DUP2 ADD DUP3 MSTORE PUSH1 0x6 DUP7 MUL SWAP1 SWAP3 ADD DUP1 SLOAD DUP4 MSTORE PUSH1 0x1 DUP2 ADD SLOAD PUSH1 0x1 PUSH1 0x1 PUSH1 0xA0 SHL SUB SWAP1 DUP2 AND SWAP5 DUP5 ADD SWAP5 SWAP1 SWAP5 MSTORE PUSH1 0x2 DUP2 ADD SLOAD SWAP4 DUP5 AND SWAP2 DUP4 ADD SWAP2 SWAP1 SWAP2 MSTORE PUSH1 0x1 PUSH1 0xA0 SHL SWAP1 SWAP3 DIV PUSH1 0xFF AND ISZERO ISZERO PUSH1 0x60 DUP3 ADD MSTORE PUSH1 0x3 DUP3 ADD DUP1 SLOAD SWAP2 SWAP3 SWAP2 PUSH1 0x80 DUP5 ADD SWAP2 SWAP1 PUSH2 0xCD8 SWAP1 PUSH2 0x16A5 JUMP JUMPDEST DUP1 PUSH1 0x1F ADD PUSH1 0x20 DUP1 SWAP2 DIV MUL PUSH1 0x20 ADD PUSH1 0x40 MLOAD SWAP1 DUP2 ADD PUSH1 0x40 MSTORE DUP1 SWAP3 SWAP2 SWAP1 DUP2 DUP2 MSTORE PUSH1 0x20 ADD DUP3 DUP1 SLOAD PUSH2 0xD04 SWAP1 PUSH2 0x16A5 JUMP JUMPDEST DUP1 ISZERO PUSH2 0xD51 JUMPI DUP1 PUSH1 0x1F LT PUSH2 0xD26 JUMPI PUSH2 0x100 DUP1 DUP4 SLOAD DIV MUL DUP4 MSTORE SWAP2 PUSH1 0x20 ADD SWAP2 PUSH2 0xD51 JUMP JUMPDEST DUP3 ADD SWAP2 SWAP1 PUSH1 0x0 MSTORE PUSH1 0x20 PUSH1 0x0 KECCAK256 SWAP1 JUMPDEST DUP2 SLOAD DUP2 MSTORE SWAP1 PUSH1 0x1 ADD SWAP1 PUSH1 0x20 ADD DUP1 DUP4 GT PUSH2 0xD34 JUMPI DUP3 SWAP1 SUB PUSH1 0x1F AND DUP3 ADD SWAP2 JUMPDEST POP POP POP POP POP DUP2 MSTORE PUSH1 0x20 ADD PUSH1 0x4 DUP3 ADD DUP1 SLOAD PUSH2 0xD6A SWAP1 PUSH2 0x16A5 JUMP JUMPDEST DUP1 PUSH1 0x1F ADD PUSH1 0x20 DUP1 SWAP2 DIV MUL PUSH1 0x20 ADD PUSH1 0x40 MLOAD SWAP1 DUP2 ADD PUSH1 0x40 MSTORE DUP1 SWAP3 SWAP2 SWAP1 DUP2 DUP2 MSTORE PUSH1 0x20 ADD DUP3 DUP1 SLOAD PUSH2 0xD96 SWAP1 PUSH2 0x16A5 JUMP JUMPDEST DUP1 ISZERO PUSH2 0xDE3 JUMPI DUP1 PUSH1 0x1F LT PUSH2 0xDB8 JUMPI PUSH2 0x100 DUP1 DUP4 SLOAD DIV MUL DUP4 MSTORE SWAP2 PUSH1 0x20 ADD SWAP2 PUSH2 0xDE3 JUMP JUMPDEST DUP3 ADD SWAP2 SWAP1 PUSH1 0x0 MSTORE PUSH1 0x20 PUSH1 0x0 KECCAK256 SWAP1 JUMPDEST DUP2 SLOAD DUP2 MSTORE SWAP1 PUSH1 0x1 ADD SWAP1 PUSH1 0x20 ADD DUP1 DUP4 GT PUSH2 0xDC6 JUMPI DUP3 SWAP1 SUB PUSH1 0x1F AND DUP3 ADD SWAP2 JUMPDEST POP POP POP POP POP DUP2 MSTORE PUSH1 0x20 ADD PUSH1 0x5 DUP3 ADD SLOAD DUP2 MSTORE POP POP DUP2 MSTORE PUSH1 0x20 ADD SWAP1 PUSH1 0x1 ADD SWAP1 PUSH2 0xC60 JUMP JUMPDEST POP POP POP POP SWAP1 POP SWAP1 JUMP JUMPDEST PUSH1 0x1 PUSH1 0x7 SLOAD PUSH1 0xFF AND PUSH1 0x3 DUP2 GT ISZERO PUSH2 0xE27 JUMPI PUSH2 0xE27 PUSH2 0x1503 JUMP JUMPDEST EQ PUSH2 0xE44 JUMPI PUSH1 0x40 MLOAD PUSH3 0x461BCD PUSH1 0xE5 SHL DUP2 MSTORE PUSH1 0x4 ADD PUSH2 0x37B SWAP1 PUSH2 0x16E0 JUMP JUMPDEST CALLER PUSH1 0x0 DUP2 DUP2 MSTORE PUSH1 0x8 PUSH1 0x20 MSTORE PUSH1 0x40 DUP2 KECCAK256 SLOAD DUP1 ISZERO PUSH2 0xEB6 JUMPI PUSH1 0x0 PUSH2 0xE65 DUP3 PUSH2 0x10BC JUMP JUMPDEST PUSH1 0x5 DUP2 ADD DUP1 SLOAD SWAP2 SWAP3 POP PUSH1 0x0 PUSH2 0xE79 DUP4 PUSH2 0x1724 JUMP JUMPDEST SWAP1 SWAP2 SSTORE POP POP PUSH1 0x1 PUSH1 0x1 PUSH1 0xA0 SHL SUB DUP5 AND PUSH1 0x0 SWAP1 DUP2 MSTORE PUSH1 0x8 PUSH1 0x20 MSTORE PUSH1 0x40 DUP2 KECCAK256 DUP2 SWAP1 SSTORE PUSH1 0x6 DUP1 SLOAD SWAP2 PUSH2 0xEA7 DUP4 PUSH2 0x1724 JUMP JUMPDEST SWAP2 SWAP1 POP SSTORE POP PUSH1 0x1 SWAP3 POP POP PUSH2 0xF08 JUMP JUMPDEST PUSH1 0x40 MLOAD PUSH3 0x461BCD PUSH1 0xE5 SHL DUP2 MSTORE PUSH1 0x20 PUSH1 0x4 DUP3 ADD MSTORE PUSH1 0x21 PUSH1 0x24 DUP3 ADD MSTORE PUSH32 0x5573657220646964206E6F6E20766F746520666F722074686973206F7074696F PUSH1 0x44 DUP3 ADD MSTORE PUSH1 0x37 PUSH1 0xF9 SHL PUSH1 0x64 DUP3 ADD MSTORE PUSH1 0x84 ADD PUSH2 0x37B JUMP JUMPDEST DUP2 PUSH2 0x9ED JUMPI PUSH1 0x40 MLOAD PUSH3 0x461BCD PUSH1 0xE5 SHL DUP2 MSTORE PUSH1 0x20 PUSH1 0x4 DUP3 ADD MSTORE PUSH1 0x15 PUSH1 0x24 DUP3 ADD MSTORE PUSH21 0x556E61626C6520746F2072656D6F766520766F7465 PUSH1 0x58 SHL PUSH1 0x44 DUP3 ADD MSTORE PUSH1 0x64 ADD PUSH2 0x37B JUMP JUMPDEST PUSH1 0x0 JUMPDEST PUSH1 0x5 SLOAD DUP2 LT ISZERO PUSH2 0x784 JUMPI DUP2 PUSH1 0x5 DUP3 DUP2 SLOAD DUP2 LT PUSH2 0xF6E JUMPI PUSH2 0xF6E PUSH2 0x161C JUMP JUMPDEST SWAP1 PUSH1 0x0 MSTORE PUSH1 0x20 PUSH1 0x0 KECCAK256 SWAP1 PUSH1 0x6 MUL ADD PUSH1 0x0 ADD SLOAD EQ ISZERO PUSH2 0xF9B JUMPI PUSH1 0x1 PUSH1 0x5 DUP3 DUP2 SLOAD DUP2 LT PUSH2 0x746 JUMPI PUSH2 0x746 PUSH2 0x161C JUMP JUMPDEST DUP1 PUSH2 0xFA5 DUP2 PUSH2 0x1648 JUMP JUMPDEST SWAP2 POP POP PUSH2 0xF50 JUMP JUMPDEST PUSH1 0x60 PUSH1 0x2 DUP1 SLOAD PUSH2 0x3C8 SWAP1 PUSH2 0x16A5 JUMP JUMPDEST DUP2 PUSH1 0x3 DUP2 GT ISZERO PUSH2 0xFCE JUMPI PUSH2 0xFCE PUSH2 0x1503 JUMP JUMPDEST PUSH1 0x7 SLOAD PUSH1 0xFF AND PUSH1 0x3 DUP2 GT ISZERO PUSH2 0xFE5 JUMPI PUSH2 0xFE5 PUSH2 0x1503 JUMP JUMPDEST EQ PUSH2 0x1055 JUMPI PUSH1 0x7 SLOAD PUSH1 0x40 MLOAD CALLER SWAP2 PUSH32 0xFC6F5E211098B443015CCB625104A41F61E97A80DD9B8734242A9A8C3EECC8DC SWAP2 PUSH2 0x1025 SWAP2 PUSH1 0xFF AND SWAP1 DUP7 SWAP1 DUP7 SWAP1 PUSH2 0x1753 JUMP JUMPDEST PUSH1 0x40 MLOAD DUP1 SWAP2 SUB SWAP1 LOG2 PUSH1 0x7 DUP1 SLOAD DUP4 SWAP2 SWAP1 PUSH1 0xFF NOT AND PUSH1 0x1 DUP4 PUSH1 0x3 DUP2 GT ISZERO PUSH2 0x104C JUMPI PUSH2 0x104C PUSH2 0x1503 JUMP JUMPDEST MUL OR SWAP1 SSTORE POP POP POP JUMP JUMPDEST PUSH1 0x40 MLOAD PUSH3 0x461BCD PUSH1 0xE5 SHL DUP2 MSTORE PUSH1 0x20 PUSH1 0x4 DUP3 ADD MSTORE PUSH1 0x36 PUSH1 0x24 DUP3 ADD MSTORE PUSH32 0x5374617465206E6F74206368616E6765642E204E657720737461746520697320 PUSH1 0x44 DUP3 ADD MSTORE PUSH22 0x7468652073616D65206173206F6C6420737461746521 PUSH1 0x50 SHL PUSH1 0x64 DUP3 ADD MSTORE PUSH1 0x84 ADD PUSH2 0x37B JUMP JUMPDEST PUSH1 0x0 DUP1 JUMPDEST PUSH1 0x5 SLOAD DUP2 LT ISZERO PUSH2 0x784 JUMPI DUP3 PUSH1 0x5 DUP3 DUP2 SLOAD DUP2 LT PUSH2 0x10DE JUMPI PUSH2 0x10DE PUSH2 0x161C JUMP JUMPDEST SWAP1 PUSH1 0x0 MSTORE PUSH1 0x20 PUSH1 0x0 KECCAK256 SWAP1 PUSH1 0x6 MUL ADD PUSH1 0x0 ADD SLOAD EQ ISZERO PUSH2 0x111F JUMPI PUSH1 0x5 DUP2 DUP2 SLOAD DUP2 LT PUSH2 0x1109 JUMPI PUSH2 0x1109 PUSH2 0x161C JUMP JUMPDEST SWAP1 PUSH1 0x0 MSTORE PUSH1 0x20 PUSH1 0x0 KECCAK256 SWAP1 PUSH1 0x6 MUL ADD SWAP2 POP POP SWAP2 SWAP1 POP JUMP JUMPDEST DUP1 PUSH2 0x1129 DUP2 PUSH2 0x1648 JUMP JUMPDEST SWAP2 POP POP PUSH2 0x10C0 JUMP JUMPDEST DUP3 DUP1 SLOAD PUSH2 0x113D SWAP1 PUSH2 0x16A5 JUMP JUMPDEST SWAP1 PUSH1 0x0 MSTORE PUSH1 0x20 PUSH1 0x0 KECCAK256 SWAP1 PUSH1 0x1F ADD PUSH1 0x20 SWAP1 DIV DUP2 ADD SWAP3 DUP3 PUSH2 0x115F JUMPI PUSH1 0x0 DUP6 SSTORE PUSH2 0x11A5 JUMP JUMPDEST DUP3 PUSH1 0x1F LT PUSH2 0x1178 JUMPI DUP1 MLOAD PUSH1 0xFF NOT AND DUP4 DUP1 ADD OR DUP6 SSTORE PUSH2 0x11A5 JUMP JUMPDEST DUP3 DUP1 ADD PUSH1 0x1 ADD DUP6 SSTORE DUP3 ISZERO PUSH2 0x11A5 JUMPI SWAP2 DUP3 ADD JUMPDEST DUP3 DUP2 GT ISZERO PUSH2 0x11A5 JUMPI DUP3 MLOAD DUP3 SSTORE SWAP2 PUSH1 0x20 ADD SWAP2 SWAP1 PUSH1 0x1 ADD SWAP1 PUSH2 0x118A JUMP JUMPDEST POP PUSH2 0x11B1 SWAP3 SWAP2 POP PUSH2 0x11B5 JUMP JUMPDEST POP SWAP1 JUMP JUMPDEST JUMPDEST DUP1 DUP3 GT ISZERO PUSH2 0x11B1 JUMPI PUSH1 0x0 DUP2 SSTORE PUSH1 0x1 ADD PUSH2 0x11B6 JUMP JUMPDEST PUSH1 0x0 PUSH1 0x20 DUP3 DUP5 SUB SLT ISZERO PUSH2 0x11DC JUMPI PUSH1 0x0 DUP1 REVERT JUMPDEST POP CALLDATALOAD SWAP2 SWAP1 POP JUMP JUMPDEST PUSH1 0x0 DUP2 MLOAD DUP1 DUP5 MSTORE PUSH1 0x0 JUMPDEST DUP2 DUP2 LT ISZERO PUSH2 0x1209 JUMPI PUSH1 0x20 DUP2 DUP6 ADD DUP2 ADD MLOAD DUP7 DUP4 ADD DUP3 ADD MSTORE ADD PUSH2 0x11ED JUMP JUMPDEST DUP2 DUP2 GT ISZERO PUSH2 0x121B JUMPI PUSH1 0x0 PUSH1 0x20 DUP4 DUP8 ADD ADD MSTORE JUMPDEST POP PUSH1 0x1F ADD PUSH1 0x1F NOT AND SWAP3 SWAP1 SWAP3 ADD PUSH1 0x20 ADD SWAP3 SWAP2 POP POP JUMP JUMPDEST PUSH1 0x20 DUP2 MSTORE PUSH1 0x0 PUSH2 0x1243 PUSH1 0x20 DUP4 ADD DUP5 PUSH2 0x11E3 JUMP JUMPDEST SWAP4 SWAP3 POP POP POP JUMP JUMPDEST DUP8 DUP2 MSTORE PUSH1 0x1 PUSH1 0x1 PUSH1 0xA0 SHL SUB DUP8 DUP2 AND PUSH1 0x20 DUP4 ADD MSTORE DUP7 AND PUSH1 0x40 DUP3 ADD MSTORE DUP5 ISZERO ISZERO PUSH1 0x60 DUP3 ADD MSTORE PUSH1 0xE0 PUSH1 0x80 DUP3 ADD DUP2 SWAP1 MSTORE PUSH1 0x0 SWAP1 PUSH2 0x1284 SWAP1 DUP4 ADD DUP7 PUSH2 0x11E3 JUMP JUMPDEST DUP3 DUP2 SUB PUSH1 0xA0 DUP5 ADD MSTORE PUSH2 0x1296 DUP2 DUP7 PUSH2 0x11E3 JUMP JUMPDEST SWAP2 POP POP DUP3 PUSH1 0xC0 DUP4 ADD MSTORE SWAP9 SWAP8 POP POP POP POP POP POP POP POP JUMP JUMPDEST PUSH4 0x4E487B71 PUSH1 0xE0 SHL PUSH1 0x0 MSTORE PUSH1 0x41 PUSH1 0x4 MSTORE PUSH1 0x24 PUSH1 0x0 REVERT JUMPDEST PUSH1 0x40 MLOAD PUSH1 0xE0 DUP2 ADD PUSH8 0xFFFFFFFFFFFFFFFF DUP2 GT DUP3 DUP3 LT OR ISZERO PUSH2 0x12E4 JUMPI PUSH2 0x12E4 PUSH2 0x12AB JUMP JUMPDEST PUSH1 0x40 MSTORE SWAP1 JUMP JUMPDEST DUP1 CALLDATALOAD PUSH1 0x1 PUSH1 0x1 PUSH1 0xA0 SHL SUB DUP2 AND DUP2 EQ PUSH2 0x1301 JUMPI PUSH1 0x0 DUP1 REVERT JUMPDEST SWAP2 SWAP1 POP JUMP JUMPDEST DUP1 CALLDATALOAD DUP1 ISZERO ISZERO DUP2 EQ PUSH2 0x1301 JUMPI PUSH1 0x0 DUP1 REVERT JUMPDEST PUSH1 0x0 DUP3 PUSH1 0x1F DUP4 ADD SLT PUSH2 0x1327 JUMPI PUSH1 0x0 DUP1 REVERT JUMPDEST DUP2 CALLDATALOAD PUSH8 0xFFFFFFFFFFFFFFFF DUP1 DUP3 GT ISZERO PUSH2 0x1342 JUMPI PUSH2 0x1342 PUSH2 0x12AB JUMP JUMPDEST PUSH1 0x40 MLOAD PUSH1 0x1F DUP4 ADD PUSH1 0x1F NOT SWAP1 DUP2 AND PUSH1 0x3F ADD AND DUP2 ADD SWAP1 DUP3 DUP3 GT DUP2 DUP4 LT OR ISZERO PUSH2 0x136A JUMPI PUSH2 0x136A PUSH2 0x12AB JUMP JUMPDEST DUP2 PUSH1 0x40 MSTORE DUP4 DUP2 MSTORE DUP7 PUSH1 0x20 DUP6 DUP9 ADD ADD GT ISZERO PUSH2 0x1383 JUMPI PUSH1 0x0 DUP1 REVERT JUMPDEST DUP4 PUSH1 0x20 DUP8 ADD PUSH1 0x20 DUP4 ADD CALLDATACOPY PUSH1 0x0 PUSH1 0x20 DUP6 DUP4 ADD ADD MSTORE DUP1 SWAP5 POP POP POP POP POP SWAP3 SWAP2 POP POP JUMP JUMPDEST PUSH1 0x0 PUSH1 0x20 DUP3 DUP5 SUB SLT ISZERO PUSH2 0x13B5 JUMPI PUSH1 0x0 DUP1 REVERT JUMPDEST DUP2 CALLDATALOAD PUSH8 0xFFFFFFFFFFFFFFFF DUP1 DUP3 GT ISZERO PUSH2 0x13CD JUMPI PUSH1 0x0 DUP1 REVERT JUMPDEST SWAP1 DUP4 ADD SWAP1 PUSH1 0xE0 DUP3 DUP7 SUB SLT ISZERO PUSH2 0x13E1 JUMPI PUSH1 0x0 DUP1 REVERT JUMPDEST PUSH2 0x13E9 PUSH2 0x12C1 JUMP JUMPDEST DUP3 CALLDATALOAD DUP2 MSTORE PUSH2 0x13F9 PUSH1 0x20 DUP5 ADD PUSH2 0x12EA JUMP JUMPDEST PUSH1 0x20 DUP3 ADD MSTORE PUSH2 0x140A PUSH1 0x40 DUP5 ADD PUSH2 0x12EA JUMP JUMPDEST PUSH1 0x40 DUP3 ADD MSTORE PUSH2 0x141B PUSH1 0x60 DUP5 ADD PUSH2 0x1306 JUMP JUMPDEST PUSH1 0x60 DUP3 ADD MSTORE PUSH1 0x80 DUP4 ADD CALLDATALOAD DUP3 DUP2 GT ISZERO PUSH2 0x1432 JUMPI PUSH1 0x0 DUP1 REVERT JUMPDEST PUSH2 0x143E DUP8 DUP3 DUP7 ADD PUSH2 0x1316 JUMP JUMPDEST PUSH1 0x80 DUP4 ADD MSTORE POP PUSH1 0xA0 DUP4 ADD CALLDATALOAD DUP3 DUP2 GT ISZERO PUSH2 0x1456 JUMPI PUSH1 0x0 DUP1 REVERT JUMPDEST PUSH2 0x1462 DUP8 DUP3 DUP7 ADD PUSH2 0x1316 JUMP JUMPDEST PUSH1 0xA0 DUP4 ADD MSTORE POP PUSH1 0xC0 DUP4 ADD CALLDATALOAD PUSH1 0xC0 DUP3 ADD MSTORE DUP1 SWAP4 POP POP POP POP SWAP3 SWAP2 POP POP JUMP JUMPDEST PUSH1 0x0 DUP1 PUSH1 0x0 DUP1 PUSH1 0x80 DUP6 DUP8 SUB SLT ISZERO PUSH2 0x1494 JUMPI PUSH1 0x0 DUP1 REVERT JUMPDEST PUSH2 0x149D DUP6 PUSH2 0x12EA JUMP JUMPDEST SWAP4 POP PUSH2 0x14AB PUSH1 0x20 DUP7 ADD PUSH2 0x1306 JUMP JUMPDEST SWAP3 POP PUSH1 0x40 DUP6 ADD CALLDATALOAD PUSH8 0xFFFFFFFFFFFFFFFF DUP1 DUP3 GT ISZERO PUSH2 0x14C8 JUMPI PUSH1 0x0 DUP1 REVERT JUMPDEST PUSH2 0x14D4 DUP9 DUP4 DUP10 ADD PUSH2 0x1316 JUMP JUMPDEST SWAP4 POP PUSH1 0x60 DUP8 ADD CALLDATALOAD SWAP2 POP DUP1 DUP3 GT ISZERO PUSH2 0x14EA JUMPI PUSH1 0x0 DUP1 REVERT JUMPDEST POP PUSH2 0x14F7 DUP8 DUP3 DUP9 ADD PUSH2 0x1316 JUMP JUMPDEST SWAP2 POP POP SWAP3 SWAP6 SWAP2 SWAP5 POP SWAP3 POP JUMP JUMPDEST PUSH4 0x4E487B71 PUSH1 0xE0 SHL PUSH1 0x0 MSTORE PUSH1 0x21 PUSH1 0x4 MSTORE PUSH1 0x24 PUSH1 0x0 REVERT JUMPDEST PUSH1 0x4 DUP2 LT PUSH2 0x1537 JUMPI PUSH4 0x4E487B71 PUSH1 0xE0 SHL PUSH1 0x0 MSTORE PUSH1 0x21 PUSH1 0x4 MSTORE PUSH1 0x24 PUSH1 0x0 REVERT JUMPDEST SWAP1 MSTORE JUMP JUMPDEST PUSH1 0x20 DUP2 ADD PUSH2 0x1549 DUP3 DUP5 PUSH2 0x1519 JUMP JUMPDEST SWAP3 SWAP2 POP POP JUMP JUMPDEST PUSH1 0x0 PUSH1 0x20 DUP1 DUP4 ADD DUP2 DUP5 MSTORE DUP1 DUP6 MLOAD DUP1 DUP4 MSTORE PUSH1 0x40 SWAP3 POP DUP3 DUP7 ADD SWAP2 POP DUP3 DUP2 PUSH1 0x5 SHL DUP8 ADD ADD DUP5 DUP9 ADD PUSH1 0x0 JUMPDEST DUP4 DUP2 LT ISZERO PUSH2 0x160E JUMPI DUP9 DUP4 SUB PUSH1 0x3F NOT ADD DUP6 MSTORE DUP2 MLOAD DUP1 MLOAD DUP5 MSTORE DUP8 DUP2 ADD MLOAD PUSH1 0x1 PUSH1 0x1 PUSH1 0xA0 SHL SUB SWAP1 DUP2 AND DUP10 DUP7 ADD MSTORE DUP8 DUP3 ADD MLOAD AND DUP8 DUP6 ADD MSTORE PUSH1 0x60 DUP1 DUP3 ADD MLOAD ISZERO ISZERO SWAP1 DUP6 ADD MSTORE PUSH1 0x80 DUP1 DUP3 ADD MLOAD PUSH1 0xE0 DUP3 DUP8 ADD DUP2 SWAP1 MSTORE SWAP2 SWAP1 PUSH2 0x15D1 DUP4 DUP9 ADD DUP3 PUSH2 0x11E3 JUMP JUMPDEST SWAP3 POP POP POP PUSH1 0xA0 DUP1 DUP4 ADD MLOAD DUP7 DUP4 SUB DUP3 DUP9 ADD MSTORE PUSH2 0x15EC DUP4 DUP3 PUSH2 0x11E3 JUMP JUMPDEST PUSH1 0xC0 SWAP5 DUP6 ADD MLOAD SWAP8 SWAP1 SWAP5 ADD SWAP7 SWAP1 SWAP7 MSTORE POP POP SWAP5 DUP8 ADD SWAP5 SWAP3 POP SWAP1 DUP7 ADD SWAP1 PUSH1 0x1 ADD PUSH2 0x1576 JUMP JUMPDEST POP SWAP1 SWAP9 SWAP8 POP POP POP POP POP POP POP POP JUMP JUMPDEST PUSH4 0x4E487B71 PUSH1 0xE0 SHL PUSH1 0x0 MSTORE PUSH1 0x32 PUSH1 0x4 MSTORE PUSH1 0x24 PUSH1 0x0 REVERT JUMPDEST PUSH4 0x4E487B71 PUSH1 0xE0 SHL PUSH1 0x0 MSTORE PUSH1 0x11 PUSH1 0x4 MSTORE PUSH1 0x24 PUSH1 0x0 REVERT JUMPDEST PUSH1 0x0 PUSH1 0x0 NOT DUP3 EQ ISZERO PUSH2 0x165C JUMPI PUSH2 0x165C PUSH2 0x1632 JUMP JUMPDEST POP PUSH1 0x1 ADD SWAP1 JUMP JUMPDEST PUSH1 0x20 DUP1 DUP3 MSTORE PUSH1 0x22 SWAP1 DUP3 ADD MSTORE PUSH32 0x4F6E6C79206F776E6572732063616E2063616C6C20746869732066756E637469 PUSH1 0x40 DUP3 ADD MSTORE PUSH2 0x37B7 PUSH1 0xF1 SHL PUSH1 0x60 DUP3 ADD MSTORE PUSH1 0x80 ADD SWAP1 JUMP JUMPDEST PUSH1 0x1 DUP2 DUP2 SHR SWAP1 DUP3 AND DUP1 PUSH2 0x16B9 JUMPI PUSH1 0x7F DUP3 AND SWAP2 POP JUMPDEST PUSH1 0x20 DUP3 LT DUP2 EQ ISZERO PUSH2 0x16DA JUMPI PUSH4 0x4E487B71 PUSH1 0xE0 SHL PUSH1 0x0 MSTORE PUSH1 0x22 PUSH1 0x4 MSTORE PUSH1 0x24 PUSH1 0x0 REVERT JUMPDEST POP SWAP2 SWAP1 POP JUMP JUMPDEST PUSH1 0x20 DUP1 DUP3 MSTORE PUSH1 0x24 SWAP1 DUP3 ADD MSTORE PUSH32 0x54686520706F6C6C206D75737420626520696E20616E20616374697665207374 PUSH1 0x40 DUP3 ADD MSTORE PUSH4 0x30BA3297 PUSH1 0xE1 SHL PUSH1 0x60 DUP3 ADD MSTORE PUSH1 0x80 ADD SWAP1 JUMP JUMPDEST PUSH1 0x0 DUP2 PUSH2 0x1733 JUMPI PUSH2 0x1733 PUSH2 0x1632 JUMP JUMPDEST POP PUSH1 0x0 NOT ADD SWAP1 JUMP JUMPDEST PUSH1 0x0 DUP3 NOT DUP3 GT ISZERO PUSH2 0x174E JUMPI PUSH2 0x174E PUSH2 0x1632 JUMP JUMPDEST POP ADD SWAP1 JUMP JUMPDEST PUSH2 0x175D DUP2 DUP6 PUSH2 0x1519 JUMP JUMPDEST PUSH2 0x176A PUSH1 0x20 DUP3 ADD DUP5 PUSH2 0x1519 JUMP JUMPDEST PUSH1 0x60 PUSH1 0x40 DUP3 ADD MSTORE PUSH1 0x0 PUSH2 0x1780 PUSH1 0x60 DUP4 ADD DUP5 PUSH2 0x11E3 JUMP JUMPDEST SWAP6 SWAP5 POP POP POP POP POP JUMP INVALID LOG2 PUSH5 0x6970667358 0x22 SLT KECCAK256 NUMBER DUP6 0x4E PUSH12 0x7F2473334540243D8E08F7D6 0xC2 SWAP14 CODECOPY 0x4E 0xC8 SDIV SWAP2 SWAP12 GASPRICE RETURNDATASIZE DUP16 GT PUSH2 0xD095 0xE7 PUSH5 0x736F6C6343 STOP ADDMOD 0xC STOP CALLER PUSH1 0x80 PUSH1 0x40 MSTORE CALLVALUE DUP1 ISZERO PUSH2 0x10 JUMPI PUSH1 0x0 DUP1 REVERT JUMPDEST POP PUSH2 0x724 DUP1 PUSH2 0x20 PUSH1 0x0 CODECOPY PUSH1 0x0 RETURN INVALID PUSH1 0x80 PUSH1 0x40 MSTORE CALLVALUE DUP1 ISZERO PUSH2 0x10 JUMPI PUSH1 0x0 DUP1 REVERT JUMPDEST POP PUSH1 0x4 CALLDATASIZE LT PUSH2 0x4C JUMPI PUSH1 0x0 CALLDATALOAD PUSH1 0xE0 SHR DUP1 PUSH4 0x2C6E7598 EQ PUSH2 0x51 JUMPI DUP1 PUSH4 0x69F9AD2F EQ PUSH2 0x7A JUMPI DUP1 PUSH4 0xEFC6C18C EQ PUSH2 0xA6 JUMPI DUP1 PUSH4 0xFD3BAD52 EQ PUSH2 0xBC JUMPI JUMPDEST PUSH1 0x0 DUP1 REVERT JUMPDEST PUSH2 0x64 PUSH2 0x5F CALLDATASIZE PUSH1 0x4 PUSH2 0x3A6 JUMP JUMPDEST PUSH2 0xCF JUMP JUMPDEST PUSH1 0x40 MLOAD PUSH2 0x71 SWAP2 SWAP1 PUSH2 0x3CF JUMP JUMPDEST PUSH1 0x40 MLOAD DUP1 SWAP2 SUB SWAP1 RETURN JUMPDEST PUSH2 0x8D PUSH2 0x88 CALLDATASIZE PUSH1 0x4 PUSH2 0x43D JUMP JUMPDEST PUSH2 0x2D9 JUMP JUMPDEST PUSH1 0x40 MLOAD PUSH1 0x1 PUSH1 0x1 PUSH1 0xF8 SHL SUB NOT SWAP1 SWAP2 AND DUP2 MSTORE PUSH1 0x20 ADD PUSH2 0x71 JUMP JUMPDEST PUSH2 0xAE PUSH2 0x30F JUMP JUMPDEST PUSH1 0x40 MLOAD SWAP1 DUP2 MSTORE PUSH1 0x20 ADD PUSH2 0x71 JUMP JUMPDEST PUSH2 0xAE PUSH2 0xCA CALLDATASIZE PUSH1 0x4 PUSH2 0x45A JUMP JUMPDEST PUSH2 0x371 JUMP JUMPDEST PUSH1 0x40 DUP1 MLOAD PUSH1 0x28 DUP1 DUP3 MSTORE PUSH1 0x60 DUP3 DUP2 ADD SWAP1 SWAP4 MSTORE PUSH1 0x0 SWAP2 SWAP1 PUSH1 0x20 DUP3 ADD DUP2 DUP1 CALLDATASIZE DUP4 CALLDATACOPY ADD SWAP1 POP POP SWAP1 POP PUSH1 0x0 JUMPDEST PUSH1 0x14 DUP2 LT ISZERO PUSH2 0x2D2 JUMPI PUSH1 0x0 PUSH2 0x10C DUP3 PUSH1 0x13 PUSH2 0x492 JUMP JUMPDEST PUSH2 0x117 SWAP1 PUSH1 0x8 PUSH2 0x4A9 JUMP JUMPDEST PUSH2 0x122 SWAP1 PUSH1 0x2 PUSH2 0x5AC JUMP JUMPDEST PUSH2 0x135 SWAP1 PUSH1 0x1 PUSH1 0x1 PUSH1 0xA0 SHL SUB DUP8 AND PUSH2 0x5D5 JUMP JUMPDEST PUSH1 0xF8 SHL SWAP1 POP PUSH1 0x0 PUSH1 0x10 DUP3 PUSH1 0xF8 SHR PUSH2 0x14C SWAP2 SWAP1 PUSH2 0x5E9 JUMP JUMPDEST PUSH1 0xF8 SHL SWAP1 POP PUSH1 0x0 DUP2 PUSH1 0xF8 SHR PUSH1 0x10 PUSH2 0x163 SWAP2 SWAP1 PUSH2 0x60B JUMP JUMPDEST DUP4 PUSH1 0xF8 SHR PUSH2 0x171 SWAP2 SWAP1 PUSH2 0x62C JUMP JUMPDEST PUSH1 0x40 MLOAD PUSH4 0x69F9AD2F PUSH1 0xE0 SHL DUP2 MSTORE PUSH1 0x1 PUSH1 0x1 PUSH1 0xF8 SHL SUB NOT DUP5 AND PUSH1 0x4 DUP3 ADD MSTORE PUSH1 0xF8 SWAP2 SWAP1 SWAP2 SHL SWAP2 POP ADDRESS SWAP1 PUSH4 0x69F9AD2F SWAP1 PUSH1 0x24 ADD PUSH1 0x20 PUSH1 0x40 MLOAD DUP1 DUP4 SUB DUP2 DUP7 GAS STATICCALL ISZERO DUP1 ISZERO PUSH2 0x1BE JUMPI RETURNDATASIZE PUSH1 0x0 DUP1 RETURNDATACOPY RETURNDATASIZE PUSH1 0x0 REVERT JUMPDEST POP POP POP POP PUSH1 0x40 MLOAD RETURNDATASIZE PUSH1 0x1F NOT PUSH1 0x1F DUP3 ADD AND DUP3 ADD DUP1 PUSH1 0x40 MSTORE POP DUP2 ADD SWAP1 PUSH2 0x1E2 SWAP2 SWAP1 PUSH2 0x64F JUMP JUMPDEST DUP6 PUSH2 0x1EE DUP7 PUSH1 0x2 PUSH2 0x4A9 JUMP JUMPDEST DUP2 MLOAD DUP2 LT PUSH2 0x1FE JUMPI PUSH2 0x1FE PUSH2 0x66C JUMP JUMPDEST PUSH1 0x20 ADD ADD SWAP1 PUSH1 0x1 PUSH1 0x1 PUSH1 0xF8 SHL SUB NOT AND SWAP1 DUP2 PUSH1 0x0 BYTE SWAP1 MSTORE8 POP PUSH1 0x40 MLOAD PUSH4 0x69F9AD2F PUSH1 0xE0 SHL DUP2 MSTORE PUSH1 0x1 PUSH1 0x1 PUSH1 0xF8 SHL SUB NOT DUP3 AND PUSH1 0x4 DUP3 ADD MSTORE ADDRESS SWAP1 PUSH4 0x69F9AD2F SWAP1 PUSH1 0x24 ADD PUSH1 0x20 PUSH1 0x40 MLOAD DUP1 DUP4 SUB DUP2 DUP7 GAS STATICCALL ISZERO DUP1 ISZERO PUSH2 0x25A JUMPI RETURNDATASIZE PUSH1 0x0 DUP1 RETURNDATACOPY RETURNDATASIZE PUSH1 0x0 REVERT JUMPDEST POP POP POP POP PUSH1 0x40 MLOAD RETURNDATASIZE PUSH1 0x1F NOT PUSH1 0x1F DUP3 ADD AND DUP3 ADD DUP1 PUSH1 0x40 MSTORE POP DUP2 ADD SWAP1 PUSH2 0x27E SWAP2 SWAP1 PUSH2 0x64F JUMP JUMPDEST DUP6 PUSH2 0x28A DUP7 PUSH1 0x2 PUSH2 0x4A9 JUMP JUMPDEST PUSH2 0x295 SWAP1 PUSH1 0x1 PUSH2 0x682 JUMP JUMPDEST DUP2 MLOAD DUP2 LT PUSH2 0x2A5 JUMPI PUSH2 0x2A5 PUSH2 0x66C JUMP JUMPDEST PUSH1 0x20 ADD ADD SWAP1 PUSH1 0x1 PUSH1 0x1 PUSH1 0xF8 SHL SUB NOT AND SWAP1 DUP2 PUSH1 0x0 BYTE SWAP1 MSTORE8 POP POP POP POP DUP1 DUP1 PUSH2 0x2CA SWAP1 PUSH2 0x69A JUMP JUMPDEST SWAP2 POP POP PUSH2 0xF6 JUMP JUMPDEST POP SWAP3 SWAP2 POP POP JUMP JUMPDEST PUSH1 0x0 PUSH1 0xA PUSH1 0xF8 DUP4 SWAP1 SHR LT ISZERO PUSH2 0x300 JUMPI PUSH2 0x2F7 PUSH1 0xF8 DUP4 SWAP1 SHR PUSH1 0x30 PUSH2 0x6B5 JUMP JUMPDEST PUSH1 0xF8 SHL SWAP3 SWAP2 POP POP JUMP JUMPDEST PUSH2 0x2F7 PUSH1 0xF8 DUP4 SWAP1 SHR PUSH1 0x57 PUSH2 0x6B5 JUMP JUMPDEST PUSH1 0x40 DUP1 MLOAD PUSH1 0x0 PUSH1 0x20 DUP1 DUP4 ADD DUP3 SWAP1 MSTORE TIMESTAMP DUP4 DUP6 ADD MSTORE DIFFICULTY PUSH1 0x60 DUP1 DUP6 ADD SWAP2 SWAP1 SWAP2 MSTORE COINBASE SWAP1 SHL PUSH12 0xFFFFFFFFFFFFFFFFFFFFFFFF NOT AND PUSH1 0x80 DUP5 ADD MSTORE DUP4 MLOAD DUP1 DUP5 SUB PUSH1 0x74 ADD DUP2 MSTORE PUSH1 0x94 SWAP1 SWAP4 ADD SWAP1 SWAP4 MSTORE DUP2 MLOAD SWAP2 SWAP1 SWAP3 ADD KECCAK256 DUP2 SWAP1 DUP2 PUSH2 0x368 DUP2 PUSH2 0x69A JUMP JUMPDEST POP SWAP1 SWAP4 SWAP3 POP POP POP JUMP JUMPDEST PUSH1 0x0 DUP1 PUSH2 0x37E DUP4 DUP6 PUSH2 0x5D5 JUMP JUMPDEST SWAP1 POP PUSH2 0x38A DUP4 DUP6 PUSH2 0x6DA JUMP JUMPDEST ISZERO PUSH2 0x39D JUMPI PUSH2 0x39A DUP2 PUSH1 0x1 PUSH2 0x682 JUMP JUMPDEST SWAP1 POP JUMPDEST SWAP1 POP JUMPDEST SWAP3 SWAP2 POP POP JUMP JUMPDEST PUSH1 0x0 PUSH1 0x20 DUP3 DUP5 SUB SLT ISZERO PUSH2 0x3B8 JUMPI PUSH1 0x0 DUP1 REVERT JUMPDEST DUP2 CALLDATALOAD PUSH1 0x1 PUSH1 0x1 PUSH1 0xA0 SHL SUB DUP2 AND DUP2 EQ PUSH2 0x39D JUMPI PUSH1 0x0 DUP1 REVERT JUMPDEST PUSH1 0x0 PUSH1 0x20 DUP1 DUP4 MSTORE DUP4 MLOAD DUP1 DUP3 DUP6 ADD MSTORE PUSH1 0x0 JUMPDEST DUP2 DUP2 LT ISZERO PUSH2 0x3FC JUMPI DUP6 DUP2 ADD DUP4 ADD MLOAD DUP6 DUP3 ADD PUSH1 0x40 ADD MSTORE DUP3 ADD PUSH2 0x3E0 JUMP JUMPDEST DUP2 DUP2 GT ISZERO PUSH2 0x40E JUMPI PUSH1 0x0 PUSH1 0x40 DUP4 DUP8 ADD ADD MSTORE JUMPDEST POP PUSH1 0x1F ADD PUSH1 0x1F NOT AND SWAP3 SWAP1 SWAP3 ADD PUSH1 0x40 ADD SWAP4 SWAP3 POP POP POP JUMP JUMPDEST PUSH1 0x1 PUSH1 0x1 PUSH1 0xF8 SHL SUB NOT DUP2 AND DUP2 EQ PUSH2 0x43A JUMPI PUSH1 0x0 DUP1 REVERT JUMPDEST POP JUMP JUMPDEST PUSH1 0x0 PUSH1 0x20 DUP3 DUP5 SUB SLT ISZERO PUSH2 0x44F JUMPI PUSH1 0x0 DUP1 REVERT JUMPDEST DUP2 CALLDATALOAD PUSH2 0x39D DUP2 PUSH2 0x424 JUMP JUMPDEST PUSH1 0x0 DUP1 PUSH1 0x40 DUP4 DUP6 SUB SLT ISZERO PUSH2 0x46D JUMPI PUSH1 0x0 DUP1 REVERT JUMPDEST POP POP DUP1 CALLDATALOAD SWAP3 PUSH1 0x20 SWAP1 SWAP2 ADD CALLDATALOAD SWAP2 POP JUMP JUMPDEST PUSH4 0x4E487B71 PUSH1 0xE0 SHL PUSH1 0x0 MSTORE PUSH1 0x11 PUSH1 0x4 MSTORE PUSH1 0x24 PUSH1 0x0 REVERT JUMPDEST PUSH1 0x0 DUP3 DUP3 LT ISZERO PUSH2 0x4A4 JUMPI PUSH2 0x4A4 PUSH2 0x47C JUMP JUMPDEST POP SUB SWAP1 JUMP JUMPDEST PUSH1 0x0 DUP2 PUSH1 0x0 NOT DIV DUP4 GT DUP3 ISZERO ISZERO AND ISZERO PUSH2 0x4C3 JUMPI PUSH2 0x4C3 PUSH2 0x47C JUMP JUMPDEST POP MUL SWAP1 JUMP JUMPDEST PUSH1 0x1 DUP2 DUP2 JUMPDEST DUP1 DUP6 GT ISZERO PUSH2 0x503 JUMPI DUP2 PUSH1 0x0 NOT DIV DUP3 GT ISZERO PUSH2 0x4E9 JUMPI PUSH2 0x4E9 PUSH2 0x47C JUMP JUMPDEST DUP1 DUP6 AND ISZERO PUSH2 0x4F6 JUMPI SWAP2 DUP2 MUL SWAP2 JUMPDEST SWAP4 DUP5 SHR SWAP4 SWAP1 DUP1 MUL SWAP1 PUSH2 0x4CD JUMP JUMPDEST POP SWAP3 POP SWAP3 SWAP1 POP JUMP JUMPDEST PUSH1 0x0 DUP3 PUSH2 0x51A JUMPI POP PUSH1 0x1 PUSH2 0x3A0 JUMP JUMPDEST DUP2 PUSH2 0x527 JUMPI POP PUSH1 0x0 PUSH2 0x3A0 JUMP JUMPDEST DUP2 PUSH1 0x1 DUP2 EQ PUSH2 0x53D JUMPI PUSH1 0x2 DUP2 EQ PUSH2 0x547 JUMPI PUSH2 0x563 JUMP JUMPDEST PUSH1 0x1 SWAP2 POP POP PUSH2 0x3A0 JUMP JUMPDEST PUSH1 0xFF DUP5 GT ISZERO PUSH2 0x558 JUMPI PUSH2 0x558 PUSH2 0x47C JUMP JUMPDEST POP POP PUSH1 0x1 DUP3 SHL PUSH2 0x3A0 JUMP JUMPDEST POP PUSH1 0x20 DUP4 LT PUSH2 0x133 DUP4 LT AND PUSH1 0x4E DUP5 LT PUSH1 0xB DUP5 LT AND OR ISZERO PUSH2 0x586 JUMPI POP DUP2 DUP2 EXP PUSH2 0x3A0 JUMP JUMPDEST PUSH2 0x590 DUP4 DUP4 PUSH2 0x4C8 JUMP JUMPDEST DUP1 PUSH1 0x0 NOT DIV DUP3 GT ISZERO PUSH2 0x5A4 JUMPI PUSH2 0x5A4 PUSH2 0x47C JUMP JUMPDEST MUL SWAP4 SWAP3 POP POP POP JUMP JUMPDEST PUSH1 0x0 PUSH2 0x5B8 DUP4 DUP4 PUSH2 0x50B JUMP JUMPDEST SWAP4 SWAP3 POP POP POP JUMP JUMPDEST PUSH4 0x4E487B71 PUSH1 0xE0 SHL PUSH1 0x0 MSTORE PUSH1 0x12 PUSH1 0x4 MSTORE PUSH1 0x24 PUSH1 0x0 REVERT JUMPDEST PUSH1 0x0 DUP3 PUSH2 0x5E4 JUMPI PUSH2 0x5E4 PUSH2 0x5BF JUMP JUMPDEST POP DIV SWAP1 JUMP JUMPDEST PUSH1 0x0 PUSH1 0xFF DUP4 AND DUP1 PUSH2 0x5FC JUMPI PUSH2 0x5FC PUSH2 0x5BF JUMP JUMPDEST DUP1 PUSH1 0xFF DUP5 AND DIV SWAP2 POP POP SWAP3 SWAP2 POP POP JUMP JUMPDEST PUSH1 0x0 PUSH1 0xFF DUP3 AND PUSH1 0xFF DUP5 AND DUP2 PUSH1 0xFF DIV DUP2 GT DUP3 ISZERO ISZERO AND ISZERO PUSH2 0x5A4 JUMPI PUSH2 0x5A4 PUSH2 0x47C JUMP JUMPDEST PUSH1 0x0 PUSH1 0xFF DUP3 AND PUSH1 0xFF DUP5 AND DUP1 DUP3 LT ISZERO PUSH2 0x646 JUMPI PUSH2 0x646 PUSH2 0x47C JUMP JUMPDEST SWAP1 SUB SWAP4 SWAP3 POP POP POP JUMP JUMPDEST PUSH1 0x0 PUSH1 0x20 DUP3 DUP5 SUB SLT ISZERO PUSH2 0x661 JUMPI PUSH1 0x0 DUP1 REVERT JUMPDEST DUP2 MLOAD PUSH2 0x39D DUP2 PUSH2 0x424 JUMP JUMPDEST PUSH4 0x4E487B71 PUSH1 0xE0 SHL PUSH1 0x0 MSTORE PUSH1 0x32 PUSH1 0x4 MSTORE PUSH1 0x24 PUSH1 0x0 REVERT JUMPDEST PUSH1 0x0 DUP3 NOT DUP3 GT ISZERO PUSH2 0x695 JUMPI PUSH2 0x695 PUSH2 0x47C JUMP JUMPDEST POP ADD SWAP1 JUMP JUMPDEST PUSH1 0x0 PUSH1 0x0 NOT DUP3 EQ ISZERO PUSH2 0x6AE JUMPI PUSH2 0x6AE PUSH2 0x47C JUMP JUMPDEST POP PUSH1 0x1 ADD SWAP1 JUMP JUMPDEST PUSH1 0x0 PUSH1 0xFF DUP3 AND PUSH1 0xFF DUP5 AND DUP1 PUSH1 0xFF SUB DUP3 GT ISZERO PUSH2 0x6D2 JUMPI PUSH2 0x6D2 PUSH2 0x47C JUMP JUMPDEST ADD SWAP4 SWAP3 POP POP POP JUMP JUMPDEST PUSH1 0x0 DUP3 PUSH2 0x6E9 JUMPI PUSH2 0x6E9 PUSH2 0x5BF JUMP JUMPDEST POP MOD SWAP1 JUMP INVALID LOG2 PUSH5 0x6970667358 0x22 SLT KECCAK256 0xC4 PUSH3 0x53C53E CALL SWAP5 0xD6 EXTCODEHASH COINBASE 0xC9 EXTCODEHASH 0xB1 SMOD OR EXP PUSH7 0xC061EF365DBF58 0xB0 PUSH25 0x2A6A752FBE5164736F6C634300080C00336080604052348015 PUSH2 0x10 JUMPI PUSH1 0x0 DUP1 REVERT JUMPDEST POP PUSH2 0x724 DUP1 PUSH2 0x20 PUSH1 0x0 CODECOPY PUSH1 0x0 RETURN INVALID PUSH1 0x80 PUSH1 0x40 MSTORE CALLVALUE DUP1 ISZERO PUSH2 0x10 JUMPI PUSH1 0x0 DUP1 REVERT JUMPDEST POP PUSH1 0x4 CALLDATASIZE LT PUSH2 0x4C JUMPI PUSH1 0x0 CALLDATALOAD PUSH1 0xE0 SHR DUP1 PUSH4 0x2C6E7598 EQ PUSH2 0x51 JUMPI DUP1 PUSH4 0x69F9AD2F EQ PUSH2 0x7A JUMPI DUP1 PUSH4 0xEFC6C18C EQ PUSH2 0xA6 JUMPI DUP1 PUSH4 0xFD3BAD52 EQ PUSH2 0xBC JUMPI JUMPDEST PUSH1 0x0 DUP1 REVERT JUMPDEST PUSH2 0x64 PUSH2 0x5F CALLDATASIZE PUSH1 0x4 PUSH2 0x3A6 JUMP JUMPDEST PUSH2 0xCF JUMP JUMPDEST PUSH1 0x40 MLOAD PUSH2 0x71 SWAP2 SWAP1 PUSH2 0x3CF JUMP JUMPDEST PUSH1 0x40 MLOAD DUP1 SWAP2 SUB SWAP1 RETURN JUMPDEST PUSH2 0x8D PUSH2 0x88 CALLDATASIZE PUSH1 0x4 PUSH2 0x43D JUMP JUMPDEST PUSH2 0x2D9 JUMP JUMPDEST PUSH1 0x40 MLOAD PUSH1 0x1 PUSH1 0x1 PUSH1 0xF8 SHL SUB NOT SWAP1 SWAP2 AND DUP2 MSTORE PUSH1 0x20 ADD PUSH2 0x71 JUMP JUMPDEST PUSH2 0xAE PUSH2 0x30F JUMP JUMPDEST PUSH1 0x40 MLOAD SWAP1 DUP2 MSTORE PUSH1 0x20 ADD PUSH2 0x71 JUMP JUMPDEST PUSH2 0xAE PUSH2 0xCA CALLDATASIZE PUSH1 0x4 PUSH2 0x45A JUMP JUMPDEST PUSH2 0x371 JUMP JUMPDEST PUSH1 0x40 DUP1 MLOAD PUSH1 0x28 DUP1 DUP3 MSTORE PUSH1 0x60 DUP3 DUP2 ADD SWAP1 SWAP4 MSTORE PUSH1 0x0 SWAP2 SWAP1 PUSH1 0x20 DUP3 ADD DUP2 DUP1 CALLDATASIZE DUP4 CALLDATACOPY ADD SWAP1 POP POP SWAP1 POP PUSH1 0x0 JUMPDEST PUSH1 0x14 DUP2 LT ISZERO PUSH2 0x2D2 JUMPI PUSH1 0x0 PUSH2 0x10C DUP3 PUSH1 0x13 PUSH2 0x492 JUMP JUMPDEST PUSH2 0x117 SWAP1 PUSH1 0x8 PUSH2 0x4A9 JUMP JUMPDEST PUSH2 0x122 SWAP1 PUSH1 0x2 PUSH2 0x5AC JUMP JUMPDEST PUSH2 0x135 SWAP1 PUSH1 0x1 PUSH1 0x1 PUSH1 0xA0 SHL SUB DUP8 AND PUSH2 0x5D5 JUMP JUMPDEST PUSH1 0xF8 SHL SWAP1 POP PUSH1 0x0 PUSH1 0x10 DUP3 PUSH1 0xF8 SHR PUSH2 0x14C SWAP2 SWAP1 PUSH2 0x5E9 JUMP JUMPDEST PUSH1 0xF8 SHL SWAP1 POP PUSH1 0x0 DUP2 PUSH1 0xF8 SHR PUSH1 0x10 PUSH2 0x163 SWAP2 SWAP1 PUSH2 0x60B JUMP JUMPDEST DUP4 PUSH1 0xF8 SHR PUSH2 0x171 SWAP2 SWAP1 PUSH2 0x62C JUMP JUMPDEST PUSH1 0x40 MLOAD PUSH4 0x69F9AD2F PUSH1 0xE0 SHL DUP2 MSTORE PUSH1 0x1 PUSH1 0x1 PUSH1 0xF8 SHL SUB NOT DUP5 AND PUSH1 0x4 DUP3 ADD MSTORE PUSH1 0xF8 SWAP2 SWAP1 SWAP2 SHL SWAP2 POP ADDRESS SWAP1 PUSH4 0x69F9AD2F SWAP1 PUSH1 0x24 ADD PUSH1 0x20 PUSH1 0x40 MLOAD DUP1 DUP4 SUB DUP2 DUP7 GAS STATICCALL ISZERO DUP1 ISZERO PUSH2 0x1BE JUMPI RETURNDATASIZE PUSH1 0x0 DUP1 RETURNDATACOPY RETURNDATASIZE PUSH1 0x0 REVERT JUMPDEST POP POP POP POP PUSH1 0x40 MLOAD RETURNDATASIZE PUSH1 0x1F NOT PUSH1 0x1F DUP3 ADD AND DUP3 ADD DUP1 PUSH1 0x40 MSTORE POP DUP2 ADD SWAP1 PUSH2 0x1E2 SWAP2 SWAP1 PUSH2 0x64F JUMP JUMPDEST DUP6 PUSH2 0x1EE DUP7 PUSH1 0x2 PUSH2 0x4A9 JUMP JUMPDEST DUP2 MLOAD DUP2 LT PUSH2 0x1FE JUMPI PUSH2 0x1FE PUSH2 0x66C JUMP JUMPDEST PUSH1 0x20 ADD ADD SWAP1 PUSH1 0x1 PUSH1 0x1 PUSH1 0xF8 SHL SUB NOT AND SWAP1 DUP2 PUSH1 0x0 BYTE SWAP1 MSTORE8 POP PUSH1 0x40 MLOAD PUSH4 0x69F9AD2F PUSH1 0xE0 SHL DUP2 MSTORE PUSH1 0x1 PUSH1 0x1 PUSH1 0xF8 SHL SUB NOT DUP3 AND PUSH1 0x4 DUP3 ADD MSTORE ADDRESS SWAP1 PUSH4 0x69F9AD2F SWAP1 PUSH1 0x24 ADD PUSH1 0x20 PUSH1 0x40 MLOAD DUP1 DUP4 SUB DUP2 DUP7 GAS STATICCALL ISZERO DUP1 ISZERO PUSH2 0x25A JUMPI RETURNDATASIZE PUSH1 0x0 DUP1 RETURNDATACOPY RETURNDATASIZE PUSH1 0x0 REVERT JUMPDEST POP POP POP POP PUSH1 0x40 MLOAD RETURNDATASIZE PUSH1 0x1F NOT PUSH1 0x1F DUP3 ADD AND DUP3 ADD DUP1 PUSH1 0x40 MSTORE POP DUP2 ADD SWAP1 PUSH2 0x27E SWAP2 SWAP1 PUSH2 0x64F JUMP JUMPDEST DUP6 PUSH2 0x28A DUP7 PUSH1 0x2 PUSH2 0x4A9 JUMP JUMPDEST PUSH2 0x295 SWAP1 PUSH1 0x1 PUSH2 0x682 JUMP JUMPDEST DUP2 MLOAD DUP2 LT PUSH2 0x2A5 JUMPI PUSH2 0x2A5 PUSH2 0x66C JUMP JUMPDEST PUSH1 0x20 ADD ADD SWAP1 PUSH1 0x1 PUSH1 0x1 PUSH1 0xF8 SHL SUB NOT AND SWAP1 DUP2 PUSH1 0x0 BYTE SWAP1 MSTORE8 POP POP POP POP DUP1 DUP1 PUSH2 0x2CA SWAP1 PUSH2 0x69A JUMP JUMPDEST SWAP2 POP POP PUSH2 0xF6 JUMP JUMPDEST POP SWAP3 SWAP2 POP POP JUMP JUMPDEST PUSH1 0x0 PUSH1 0xA PUSH1 0xF8 DUP4 SWAP1 SHR LT ISZERO PUSH2 0x300 JUMPI PUSH2 0x2F7 PUSH1 0xF8 DUP4 SWAP1 SHR PUSH1 0x30 PUSH2 0x6B5 JUMP JUMPDEST PUSH1 0xF8 SHL SWAP3 SWAP2 POP POP JUMP JUMPDEST PUSH2 0x2F7 PUSH1 0xF8 DUP4 SWAP1 SHR PUSH1 0x57 PUSH2 0x6B5 JUMP JUMPDEST PUSH1 0x40 DUP1 MLOAD PUSH1 0x0 PUSH1 0x20 DUP1 DUP4 ADD DUP3 SWAP1 MSTORE TIMESTAMP DUP4 DUP6 ADD MSTORE DIFFICULTY PUSH1 0x60 DUP1 DUP6 ADD SWAP2 SWAP1 SWAP2 MSTORE COINBASE SWAP1 SHL PUSH12 0xFFFFFFFFFFFFFFFFFFFFFFFF NOT AND PUSH1 0x80 DUP5 ADD MSTORE DUP4 MLOAD DUP1 DUP5 SUB PUSH1 0x74 ADD DUP2 MSTORE PUSH1 0x94 SWAP1 SWAP4 ADD SWAP1 SWAP4 MSTORE DUP2 MLOAD SWAP2 SWAP1 SWAP3 ADD KECCAK256 DUP2 SWAP1 DUP2 PUSH2 0x368 DUP2 PUSH2 0x69A JUMP JUMPDEST POP SWAP1 SWAP4 SWAP3 POP POP POP JUMP JUMPDEST PUSH1 0x0 DUP1 PUSH2 0x37E DUP4 DUP6 PUSH2 0x5D5 JUMP JUMPDEST SWAP1 POP PUSH2 0x38A DUP4 DUP6 PUSH2 0x6DA JUMP JUMPDEST ISZERO PUSH2 0x39D JUMPI PUSH2 0x39A DUP2 PUSH1 0x1 PUSH2 0x682 JUMP JUMPDEST SWAP1 POP JUMPDEST SWAP1 POP JUMPDEST SWAP3 SWAP2 POP POP JUMP JUMPDEST PUSH1 0x0 PUSH1 0x20 DUP3 DUP5 SUB SLT ISZERO PUSH2 0x3B8 JUMPI PUSH1 0x0 DUP1 REVERT JUMPDEST DUP2 CALLDATALOAD PUSH1 0x1 PUSH1 0x1 PUSH1 0xA0 SHL SUB DUP2 AND DUP2 EQ PUSH2 0x39D JUMPI PUSH1 0x0 DUP1 REVERT JUMPDEST PUSH1 0x0 PUSH1 0x20 DUP1 DUP4 MSTORE DUP4 MLOAD DUP1 DUP3 DUP6 ADD MSTORE PUSH1 0x0 JUMPDEST DUP2 DUP2 LT ISZERO PUSH2 0x3FC JUMPI DUP6 DUP2 ADD DUP4 ADD MLOAD DUP6 DUP3 ADD PUSH1 0x40 ADD MSTORE DUP3 ADD PUSH2 0x3E0 JUMP JUMPDEST DUP2 DUP2 GT ISZERO PUSH2 0x40E JUMPI PUSH1 0x0 PUSH1 0x40 DUP4 DUP8 ADD ADD MSTORE JUMPDEST POP PUSH1 0x1F ADD PUSH1 0x1F NOT AND SWAP3 SWAP1 SWAP3 ADD PUSH1 0x40 ADD SWAP4 SWAP3 POP POP POP JUMP JUMPDEST PUSH1 0x1 PUSH1 0x1 PUSH1 0xF8 SHL SUB NOT DUP2 AND DUP2 EQ PUSH2 0x43A JUMPI PUSH1 0x0 DUP1 REVERT JUMPDEST POP JUMP JUMPDEST PUSH1 0x0 PUSH1 0x20 DUP3 DUP5 SUB SLT ISZERO PUSH2 0x44F JUMPI PUSH1 0x0 DUP1 REVERT JUMPDEST DUP2 CALLDATALOAD PUSH2 0x39D DUP2 PUSH2 0x424 JUMP JUMPDEST PUSH1 0x0 DUP1 PUSH1 0x40 DUP4 DUP6 SUB SLT ISZERO PUSH2 0x46D JUMPI PUSH1 0x0 DUP1 REVERT JUMPDEST POP POP DUP1 CALLDATALOAD SWAP3 PUSH1 0x20 SWAP1 SWAP2 ADD CALLDATALOAD SWAP2 POP JUMP JUMPDEST PUSH4 0x4E487B71 PUSH1 0xE0 SHL PUSH1 0x0 MSTORE PUSH1 0x11 PUSH1 0x4 MSTORE PUSH1 0x24 PUSH1 0x0 REVERT JUMPDEST PUSH1 0x0 DUP3 DUP3 LT ISZERO PUSH2 0x4A4 JUMPI PUSH2 0x4A4 PUSH2 0x47C JUMP JUMPDEST POP SUB SWAP1 JUMP JUMPDEST PUSH1 0x0 DUP2 PUSH1 0x0 NOT DIV DUP4 GT DUP3 ISZERO ISZERO AND ISZERO PUSH2 0x4C3 JUMPI PUSH2 0x4C3 PUSH2 0x47C JUMP JUMPDEST POP MUL SWAP1 JUMP JUMPDEST PUSH1 0x1 DUP2 DUP2 JUMPDEST DUP1 DUP6 GT ISZERO PUSH2 0x503 JUMPI DUP2 PUSH1 0x0 NOT DIV DUP3 GT ISZERO PUSH2 0x4E9 JUMPI PUSH2 0x4E9 PUSH2 0x47C JUMP JUMPDEST DUP1 DUP6 AND ISZERO PUSH2 0x4F6 JUMPI SWAP2 DUP2 MUL SWAP2 JUMPDEST SWAP4 DUP5 SHR SWAP4 SWAP1 DUP1 MUL SWAP1 PUSH2 0x4CD JUMP JUMPDEST POP SWAP3 POP SWAP3 SWAP1 POP JUMP JUMPDEST PUSH1 0x0 DUP3 PUSH2 0x51A JUMPI POP PUSH1 0x1 PUSH2 0x3A0 JUMP JUMPDEST DUP2 PUSH2 0x527 JUMPI POP PUSH1 0x0 PUSH2 0x3A0 JUMP JUMPDEST DUP2 PUSH1 0x1 DUP2 EQ PUSH2 0x53D JUMPI PUSH1 0x2 DUP2 EQ PUSH2 0x547 JUMPI PUSH2 0x563 JUMP JUMPDEST PUSH1 0x1 SWAP2 POP POP PUSH2 0x3A0 JUMP JUMPDEST PUSH1 0xFF DUP5 GT ISZERO PUSH2 0x558 JUMPI PUSH2 0x558 PUSH2 0x47C JUMP JUMPDEST POP POP PUSH1 0x1 DUP3 SHL PUSH2 0x3A0 JUMP JUMPDEST POP PUSH1 0x20 DUP4 LT PUSH2 0x133 DUP4 LT AND PUSH1 0x4E DUP5 LT PUSH1 0xB DUP5 LT AND OR ISZERO PUSH2 0x586 JUMPI POP DUP2 DUP2 EXP PUSH2 0x3A0 JUMP JUMPDEST PUSH2 0x590 DUP4 DUP4 PUSH2 0x4C8 JUMP JUMPDEST DUP1 PUSH1 0x0 NOT DIV DUP3 GT ISZERO PUSH2 0x5A4 JUMPI PUSH2 0x5A4 PUSH2 0x47C JUMP JUMPDEST MUL SWAP4 SWAP3 POP POP POP JUMP JUMPDEST PUSH1 0x0 PUSH2 0x5B8 DUP4 DUP4 PUSH2 0x50B JUMP JUMPDEST SWAP4 SWAP3 POP POP POP JUMP JUMPDEST PUSH4 0x4E487B71 PUSH1 0xE0 SHL PUSH1 0x0 MSTORE PUSH1 0x12 PUSH1 0x4 MSTORE PUSH1 0x24 PUSH1 0x0 REVERT JUMPDEST PUSH1 0x0 DUP3 PUSH2 0x5E4 JUMPI PUSH2 0x5E4 PUSH2 0x5BF JUMP JUMPDEST POP DIV SWAP1 JUMP JUMPDEST PUSH1 0x0 PUSH1 0xFF DUP4 AND DUP1 PUSH2 0x5FC JUMPI PUSH2 0x5FC PUSH2 0x5BF JUMP JUMPDEST DUP1 PUSH1 0xFF DUP5 AND DIV SWAP2 POP POP SWAP3 SWAP2 POP POP JUMP JUMPDEST PUSH1 0x0 PUSH1 0xFF DUP3 AND PUSH1 0xFF DUP5 AND DUP2 PUSH1 0xFF DIV DUP2 GT DUP3 ISZERO ISZERO AND ISZERO PUSH2 0x5A4 JUMPI PUSH2 0x5A4 PUSH2 0x47C JUMP JUMPDEST PUSH1 0x0 PUSH1 0xFF DUP3 AND PUSH1 0xFF DUP5 AND DUP1 DUP3 LT ISZERO PUSH2 0x646 JUMPI PUSH2 0x646 PUSH2 0x47C JUMP JUMPDEST SWAP1 SUB SWAP4 SWAP3 POP POP POP JUMP JUMPDEST PUSH1 0x0 PUSH1 0x20 DUP3 DUP5 SUB SLT ISZERO PUSH2 0x661 JUMPI PUSH1 0x0 DUP1 REVERT JUMPDEST DUP2 MLOAD PUSH2 0x39D DUP2 PUSH2 0x424 JUMP JUMPDEST PUSH4 0x4E487B71 PUSH1 0xE0 SHL PUSH1 0x0 MSTORE PUSH1 0x32 PUSH1 0x4 MSTORE PUSH1 0x24 PUSH1 0x0 REVERT JUMPDEST PUSH1 0x0 DUP3 NOT DUP3 GT ISZERO PUSH2 0x695 JUMPI PUSH2 0x695 PUSH2 0x47C JUMP JUMPDEST POP ADD SWAP1 JUMP JUMPDEST PUSH1 0x0 PUSH1 0x0 NOT DUP3 EQ ISZERO PUSH2 0x6AE JUMPI PUSH2 0x6AE PUSH2 0x47C JUMP JUMPDEST POP PUSH1 0x1 ADD SWAP1 JUMP JUMPDEST PUSH1 0x0 PUSH1 0xFF DUP3 AND PUSH1 0xFF DUP5 AND DUP1 PUSH1 0xFF SUB DUP3 GT ISZERO PUSH2 0x6D2 JUMPI PUSH2 0x6D2 PUSH2 0x47C JUMP JUMPDEST ADD SWAP4 SWAP3 POP POP POP JUMP JUMPDEST PUSH1 0x0 DUP3 PUSH2 0x6E9 JUMPI PUSH2 0x6E9 PUSH2 0x5BF JUMP JUMPDEST POP MOD SWAP1 JUMP INVALID LOG2 PUSH5 0x6970667358 0x22 SLT KECCAK256 0xC4 PUSH3 0x53C53E CALL SWAP5 0xD6 EXTCODEHASH COINBASE 0xC9 EXTCODEHASH 0xB1 SMOD OR EXP PUSH7 0xC061EF365DBF58 0xB0 PUSH25 0x2A6A752FBE5164736F6C634300080C0033436F756E63696C20 PUSH9 0x617320617070726F76 PUSH6 0x642074686520 PUSH19 0x65666572656E64756D21436F6E73756C746174 PUSH10 0x6F6E2063616E63656C65 PUSH5 0x2062792043 PUSH16 0x756E63696C21A2646970667358221220 0x2B PUSH5 0xEEA25EBE5A EXTCODESIZE PUSH31 0xCD88259E88E71B249B7549676AA682A3E66B870169604664736F6C63430008 0xC STOP CALLER "
		},
		"gasEstimates": {
			"creation": {
				"codeDepositCost": "4600800",
				"executionCost": "71692",
				"totalCost": "4672492"
			},
			"external": {
				"acceptCandidature()": "infinite",
				"addCandidate(address)": "infinite",
				"approveElection(address[])": "infinite",
				"canAddCandidate()": "infinite",
				"canApprove(address[])": "infinite",
				"canCancel()": "infinite",
				"canCreate(address[])": "infinite",
				"canStart(address[])": "infinite",
				"canSupport()": "infinite",
				"canVote()": "infinite",
				"cancelElectionByCouncil()": "infinite",
				"cancelationReason()": "2481",
				"daysOpen()": "2363",
				"getElectionPoll()": "2366",
				"getMinimalVoterTurnout()": "infinite",
				"getNominatedCandidates()": "infinite",
				"getPreselectionPoll()": "2387",
				"getQualifiedCandidates()": "infinite",
				"getResult()": "357",
				"getRunningCandidates()": "infinite",
				"getVoterTurnout()": "infinite",
				"getWinningCandidates()": "infinite",
				"guaranteers(uint256)": "4670",
				"hasDeadlinePassed()": "infinite",
				"hasMinimumVoterTurnout()": "infinite",
				"isCandidateAlreadyNominated(address)": "infinite",
				"owners(uint256)": "4650",
				"removeSupportFromCandidate()": "infinite",
				"startElection(address[])": "infinite",
				"startPreselection(address[])": "infinite",
				"state()": "2441",
				"supportCandidate(uint256)": "infinite",
				"testElection()": "infinite"
			},
			"internal": {
				"cancel(enum Election.CancelationReason,string memory)": "infinite",
				"createElection()": "infinite",
				"createPreselection(address[] memory,string memory,string memory,enum AccountManagement.Role,uint256)": "infinite",
				"finishElection()": "infinite",
				"setState(enum Election.State,string memory)": "infinite"
			}
		},
		"methodIdentifiers": {
			"acceptCandidature()": "e1346655",
			"addCandidate(address)": "3acd75f8",
			"approveElection(address[])": "d53c85ff",
			"canAddCandidate()": "58e549f0",
			"canApprove(address[])": "7fe63d70",
			"canCancel()": "d0f3725f",
			"canCreate(address[])": "f53cabf6",
			"canStart(address[])": "c36e4e6c",
			"canSupport()": "ada89616",
			"canVote()": "159e7064",
			"cancelElectionByCouncil()": "8cfe97f0",
			"cancelationReason()": "3e422f5f",
			"daysOpen()": "a49da4b3",
			"getElectionPoll()": "39fd2855",
			"getMinimalVoterTurnout()": "defb4dd6",
			"getNominatedCandidates()": "1f164aa7",
			"getPreselectionPoll()": "828eb1ff",
			"getQualifiedCandidates()": "ed57bcb7",
			"getResult()": "de292789",
			"getRunningCandidates()": "687b995d",
			"getVoterTurnout()": "2fd0d870",
			"getWinningCandidates()": "f7e5b82b",
			"guaranteers(uint256)": "c2e862b4",
			"hasDeadlinePassed()": "96e3f4c5",
			"hasMinimumVoterTurnout()": "e53d8f1d",
			"isCandidateAlreadyNominated(address)": "bea3ff44",
			"owners(uint256)": "025e7c27",
			"removeSupportFromCandidate()": "cde87d49",
			"startElection(address[])": "51fd22b9",
			"startPreselection(address[])": "62467cdf",
			"state()": "c19d93fb",
			"supportCandidate(uint256)": "9c162409",
			"testElection()": "6dbf5513"
		}
	},
	"abi": [
		{
			"inputs": [],
			"stateMutability": "nonpayable",
			"type": "constructor"
		},
		{
			"anonymous": false,
			"inputs": [
				{
					"indexed": true,
					"internalType": "address",
					"name": "_by",
					"type": "address"
				},
				{
					"indexed": false,
					"internalType": "enum Election.State",
					"name": "oldState",
					"type": "uint8"
				},
				{
					"indexed": false,
					"internalType": "enum Election.State",
					"name": "newState",
					"type": "uint8"
				},
				{
					"indexed": false,
					"internalType": "string",
					"name": "description",
					"type": "string"
				}
			],
			"name": "StateChanged",
			"type": "event"
		},
		{
			"inputs": [],
			"name": "acceptCandidature",
			"outputs": [],
			"stateMutability": "nonpayable",
			"type": "function"
		},
		{
			"inputs": [
				{
					"internalType": "address",
					"name": "_candidate",
					"type": "address"
				}
			],
			"name": "addCandidate",
			"outputs": [],
			"stateMutability": "nonpayable",
			"type": "function"
		},
		{
			"inputs": [
				{
					"internalType": "address[]",
					"name": "_guaranteers",
					"type": "address[]"
				}
			],
			"name": "approveElection",
			"outputs": [],
			"stateMutability": "nonpayable",
			"type": "function"
		},
		{
			"inputs": [],
			"name": "canAddCandidate",
			"outputs": [
				{
					"internalType": "bool",
					"name": "",
					"type": "bool"
				}
			],
			"stateMutability": "view",
			"type": "function"
		},
		{
			"inputs": [
				{
					"internalType": "address[]",
					"name": "_guaranteers",
					"type": "address[]"
				}
			],
			"name": "canApprove",
			"outputs": [
				{
					"internalType": "bool",
					"name": "",
					"type": "bool"
				}
			],
			"stateMutability": "view",
			"type": "function"
		},
		{
			"inputs": [],
			"name": "canCancel",
			"outputs": [
				{
					"internalType": "bool",
					"name": "",
					"type": "bool"
				}
			],
			"stateMutability": "view",
			"type": "function"
		},
		{
			"inputs": [
				{
					"internalType": "address[]",
					"name": "_creators",
					"type": "address[]"
				}
			],
			"name": "canCreate",
			"outputs": [
				{
					"internalType": "bool",
					"name": "",
					"type": "bool"
				}
			],
			"stateMutability": "view",
			"type": "function"
		},
		{
			"inputs": [
				{
					"internalType": "address[]",
					"name": "_creators",
					"type": "address[]"
				}
			],
			"name": "canStart",
			"outputs": [
				{
					"internalType": "bool",
					"name": "",
					"type": "bool"
				}
			],
			"stateMutability": "view",
			"type": "function"
		},
		{
			"inputs": [],
			"name": "canSupport",
			"outputs": [
				{
					"internalType": "bool",
					"name": "",
					"type": "bool"
				}
			],
			"stateMutability": "view",
			"type": "function"
		},
		{
			"inputs": [],
			"name": "canVote",
			"outputs": [
				{
					"internalType": "bool",
					"name": "",
					"type": "bool"
				}
			],
			"stateMutability": "view",
			"type": "function"
		},
		{
			"inputs": [],
			"name": "cancelElectionByCouncil",
			"outputs": [],
			"stateMutability": "nonpayable",
			"type": "function"
		},
		{
			"inputs": [],
			"name": "cancelationReason",
			"outputs": [
				{
					"internalType": "enum Election.CancelationReason",
					"name": "",
					"type": "uint8"
				}
			],
			"stateMutability": "view",
			"type": "function"
		},
		{
			"inputs": [],
			"name": "daysOpen",
			"outputs": [
				{
					"internalType": "uint256",
					"name": "",
					"type": "uint256"
				}
			],
			"stateMutability": "view",
			"type": "function"
		},
		{
			"inputs": [],
			"name": "getElectionPoll",
			"outputs": [
				{
					"internalType": "contract Poll",
					"name": "",
					"type": "address"
				}
			],
			"stateMutability": "nonpayable",
			"type": "function"
		},
		{
			"inputs": [],
			"name": "getMinimalVoterTurnout",
			"outputs": [
				{
					"internalType": "uint256",
					"name": "",
					"type": "uint256"
				}
			],
			"stateMutability": "view",
			"type": "function"
		},
		{
			"inputs": [],
			"name": "getNominatedCandidates",
			"outputs": [
				{
					"components": [
						{
							"internalType": "uint256",
							"name": "id",
							"type": "uint256"
						},
						{
							"internalType": "address",
							"name": "owner",
							"type": "address"
						},
						{
							"internalType": "address",
							"name": "creator",
							"type": "address"
						},
						{
							"internalType": "bool",
							"name": "isActive",
							"type": "bool"
						},
						{
							"internalType": "string",
							"name": "title",
							"type": "string"
						},
						{
							"internalType": "string",
							"name": "description",
							"type": "string"
						},
						{
							"internalType": "uint256",
							"name": "voterCount",
							"type": "uint256"
						}
					],
					"internalType": "struct Poll.Option[]",
					"name": "",
					"type": "tuple[]"
				}
			],
			"stateMutability": "view",
			"type": "function"
		},
		{
			"inputs": [],
			"name": "getPreselectionPoll",
			"outputs": [
				{
					"internalType": "contract Poll",
					"name": "",
					"type": "address"
				}
			],
			"stateMutability": "nonpayable",
			"type": "function"
		},
		{
			"inputs": [],
			"name": "getQualifiedCandidates",
			"outputs": [
				{
					"components": [
						{
							"internalType": "uint256",
							"name": "id",
							"type": "uint256"
						},
						{
							"internalType": "address",
							"name": "owner",
							"type": "address"
						},
						{
							"internalType": "address",
							"name": "creator",
							"type": "address"
						},
						{
							"internalType": "bool",
							"name": "isActive",
							"type": "bool"
						},
						{
							"internalType": "string",
							"name": "title",
							"type": "string"
						},
						{
							"internalType": "string",
							"name": "description",
							"type": "string"
						},
						{
							"internalType": "uint256",
							"name": "voterCount",
							"type": "uint256"
						}
					],
					"internalType": "struct Poll.Option[]",
					"name": "",
					"type": "tuple[]"
				}
			],
			"stateMutability": "view",
			"type": "function"
		},
		{
			"inputs": [],
			"name": "getResult",
			"outputs": [
				{
					"internalType": "enum Election.Result",
					"name": "",
					"type": "uint8"
				}
			],
			"stateMutability": "view",
			"type": "function"
		},
		{
			"inputs": [],
			"name": "getRunningCandidates",
			"outputs": [
				{
					"components": [
						{
							"internalType": "uint256",
							"name": "id",
							"type": "uint256"
						},
						{
							"internalType": "address",
							"name": "owner",
							"type": "address"
						},
						{
							"internalType": "address",
							"name": "creator",
							"type": "address"
						},
						{
							"internalType": "bool",
							"name": "isActive",
							"type": "bool"
						},
						{
							"internalType": "string",
							"name": "title",
							"type": "string"
						},
						{
							"internalType": "string",
							"name": "description",
							"type": "string"
						},
						{
							"internalType": "uint256",
							"name": "voterCount",
							"type": "uint256"
						}
					],
					"internalType": "struct Poll.Option[]",
					"name": "",
					"type": "tuple[]"
				}
			],
			"stateMutability": "view",
			"type": "function"
		},
		{
			"inputs": [],
			"name": "getVoterTurnout",
			"outputs": [
				{
					"internalType": "uint256",
					"name": "",
					"type": "uint256"
				}
			],
			"stateMutability": "view",
			"type": "function"
		},
		{
			"inputs": [],
			"name": "getWinningCandidates",
			"outputs": [
				{
					"components": [
						{
							"internalType": "uint256",
							"name": "id",
							"type": "uint256"
						},
						{
							"internalType": "address",
							"name": "owner",
							"type": "address"
						},
						{
							"internalType": "address",
							"name": "creator",
							"type": "address"
						},
						{
							"internalType": "bool",
							"name": "isActive",
							"type": "bool"
						},
						{
							"internalType": "string",
							"name": "title",
							"type": "string"
						},
						{
							"internalType": "string",
							"name": "description",
							"type": "string"
						},
						{
							"internalType": "uint256",
							"name": "voterCount",
							"type": "uint256"
						}
					],
					"internalType": "struct Poll.Option[]",
					"name": "",
					"type": "tuple[]"
				}
			],
			"stateMutability": "view",
			"type": "function"
		},
		{
			"inputs": [
				{
					"internalType": "uint256",
					"name": "",
					"type": "uint256"
				}
			],
			"name": "guaranteers",
			"outputs": [
				{
					"internalType": "address",
					"name": "",
					"type": "address"
				}
			],
			"stateMutability": "view",
			"type": "function"
		},
		{
			"inputs": [],
			"name": "hasDeadlinePassed",
			"outputs": [
				{
					"internalType": "bool",
					"name": "",
					"type": "bool"
				}
			],
			"stateMutability": "view",
			"type": "function"
		},
		{
			"inputs": [],
			"name": "hasMinimumVoterTurnout",
			"outputs": [
				{
					"internalType": "bool",
					"name": "",
					"type": "bool"
				}
			],
			"stateMutability": "view",
			"type": "function"
		},
		{
			"inputs": [
				{
					"internalType": "address",
					"name": "_candidate",
					"type": "address"
				}
			],
			"name": "isCandidateAlreadyNominated",
			"outputs": [
				{
					"internalType": "bool",
					"name": "",
					"type": "bool"
				}
			],
			"stateMutability": "view",
			"type": "function"
		},
		{
			"inputs": [
				{
					"internalType": "uint256",
					"name": "",
					"type": "uint256"
				}
			],
			"name": "owners",
			"outputs": [
				{
					"internalType": "address",
					"name": "",
					"type": "address"
				}
			],
			"stateMutability": "view",
			"type": "function"
		},
		{
			"inputs": [],
			"name": "removeSupportFromCandidate",
			"outputs": [],
			"stateMutability": "nonpayable",
			"type": "function"
		},
		{
			"inputs": [
				{
					"internalType": "address[]",
					"name": "_leaders",
					"type": "address[]"
				}
			],
			"name": "startElection",
			"outputs": [],
			"stateMutability": "nonpayable",
			"type": "function"
		},
		{
			"inputs": [
				{
					"internalType": "address[]",
					"name": "_leaders",
					"type": "address[]"
				}
			],
			"name": "startPreselection",
			"outputs": [],
			"stateMutability": "nonpayable",
			"type": "function"
		},
		{
			"inputs": [],
			"name": "state",
			"outputs": [
				{
					"internalType": "enum Election.State",
					"name": "",
					"type": "uint8"
				}
			],
			"stateMutability": "view",
			"type": "function"
		},
		{
			"inputs": [
				{
					"internalType": "uint256",
					"name": "_optionId",
					"type": "uint256"
				}
			],
			"name": "supportCandidate",
			"outputs": [],
			"stateMutability": "nonpayable",
			"type": "function"
		},
		{
			"inputs": [],
			"name": "testElection",
			"outputs": [],
			"stateMutability": "nonpayable",
			"type": "function"
		}
	]
}