{
	"data": {
		"bytecode": {
			"linkReferences": {},
			"object": "6080604052601c600155601c600255601460035560326004553480156200002557600080fd5b5060405162003f7e38038062003f7e833981016040819052620000489162000246565b6006805462010000600160b01b031916620100006001600160a01b038716021790556040518390839083906200007e9062000121565b6200008c9392919062000398565b604051809103906000f080158015620000a9573d6000803e3d6000fd5b50600780546001600160a01b0319166001600160a01b0392909216919091179055604051620000d8906200012f565b604051809103906000f080158015620000f5573d6000803e3d6000fd5b50600880546001600160a01b0319166001600160a01b0392909216919091179055506200041392505050565b6125bc806200127e83390190565b610744806200383a83390190565b6001600160a01b03811681146200015357600080fd5b50565b634e487b7160e01b600052604160045260246000fd5b604051601f8201601f191681016001600160401b038111828210171562000197576200019762000156565b604052919050565b60005b83811015620001bc578181015183820152602001620001a2565b83811115620001cc576000848401525b50505050565b600082601f830112620001e457600080fd5b81516001600160401b0381111562000200576200020062000156565b62000215601f8201601f19166020016200016c565b8181528460208386010111156200022b57600080fd5b6200023e8260208301602087016200019f565b949350505050565b600080600080608085870312156200025d57600080fd5b84516200026a816200013d565b602086810151919550906001600160401b03808211156200028a57600080fd5b818801915088601f8301126200029f57600080fd5b815181811115620002b457620002b462000156565b8060051b620002c58582016200016c565b918252838101850191858101908c841115620002e057600080fd5b948601945b838610156200030e5785519250620002fd836200013d565b8282529486019490860190620002e5565b60408c01519099509550505050808311156200032957600080fd5b6200033789848a01620001d2565b945060608801519250808311156200034e57600080fd5b50506200035e87828801620001d2565b91505092959194509250565b60008151808452620003848160208601602086016200019f565b601f01601f19169290920160200192915050565b606080825284519082018190526000906020906080840190828801845b82811015620003dc5781516001600160a01b031684529284019290840190600101620003b5565b50505083810382850152620003f281876200036a565b91505082810360408401526200040981856200036a565b9695505050505050565b610e5b80620004236000396000f3fe608060405234801561001057600080fd5b50600436106101375760003560e01c806364697e2c116100b8578063ada896161161007c578063ada8961614610238578063b991ef3e14610240578063c19d93fb14610248578063d12f87d714610262578063d9f3a5c11461026a578063f3b5a57b1461027257600080fd5b806364697e2c146102035780636ae049281461021657806370a581561461021f578063757ccd3b146102275780639d18a2ce1461022f57600080fd5b80634b67e07f116100ff5780634b67e07f146101c35780634f4a3115146101d857806351e993b8146101eb578063562ed860146101f357806361c4dcb9146101fb57600080fd5b806302184e7c1461013c578063025e7c2714610158578063159e706414610183578063231bdb051461019b5780633e422f5f146101a4575b600080fd5b61014560035481565b6040519081526020015b60405180910390f35b61016b610166366004610b26565b61027b565b6040516001600160a01b03909116815260200161014f565b61018b6102a5565b604051901515815260200161014f565b61014560055481565b6006546101b690610100900460ff1681565b60405161014f9190610b55565b6101d66101d1366004610c12565b610333565b005b6101d66101e6366004610b26565b6103a0565b61018b610402565b61018b6104c0565b6101d66105e5565b6101d6610211366004610b26565b61075a565b61014560015481565b61018b61078b565b61018b610833565b61014560045481565b61018b610965565b6101d66109a1565b6006546102559060ff1681565b60405161014f9190610c76565b61018b610aa3565b6101d6610abc565b61014560025481565b6000818154811061028b57600080fd5b6000918252602090912001546001600160a01b0316905081565b6006546040516365c9376960e01b815233600482018190526000929091620100009091046001600160a01b0316906365c93769906024015b602060405180830381865afa1580156102fa573d6000803e3d6000fd5b505050506040513d601f19601f8201168201806040525081019061031e9190610c8a565b1561032b57600191505090565b600091505090565b60075460405163544d043160e11b81526001600160a01b039091169063a89a08629061036a90339060019087908790600401610d00565b600060405180830381600087803b15801561038457600080fd5b505af1158015610398573d6000803e3d6000fd5b505050505050565b600754604051634f4a311560e01b8152600481018390526001600160a01b0390911690634f4a3115906024015b600060405180830381600087803b1580156103e757600080fd5b505af11580156103fb573d6000803e3d6000fd5b5050505050565b60025460009081904290829061041b9062015180610d5f565b6001546104289190610d7e565b600760009054906101000a90046001600160a01b03166001600160a01b031663b90c1dbb6040518163ffffffff1660e01b8152600401602060405180830381865afa15801561047b573d6000803e3d6000fd5b505050506040513d601f19601f8201168201806040525081019061049f9190610d96565b6104a99190610d7e565b9050808211156104b857600192505b509092915050565b600080600090506000600660029054906101000a90046001600160a01b03166001600160a01b03166322faa41f6040518163ffffffff1660e01b8152600401602060405180830381865afa15801561051c573d6000803e3d6000fd5b505050506040513d601f19601f820116820180604052508101906105409190610d96565b6008546004549192506000916001600160a01b039091169063fd3bad52906105689085610d5f565b6040516001600160e01b031960e084901b168152600481019190915260646024820152604401602060405180830381865afa1580156105ab573d6000803e3d6000fd5b505050506040513d601f19601f820116820180604052508101906105cf9190610d96565b90508060055411156104b8575060019392505050565b600060065460ff1660058111156105fe576105fe610b3f565b14806106205750600160065460ff16600581111561061e5761061e610b3f565b145b806106415750600260065460ff16600581111561063f5761063f610b3f565b145b6106665760405162461bcd60e51b815260040161065d90610daf565b60405180910390fd5b61066e610965565b15610701573360009081526009602052604090205460ff166106b957336000908152600960205260408120805460ff1916600117905560058054916106b283610df3565b9190505550565b60405162461bcd60e51b815260206004820152601f60248201527f5573657220737570706f727473207468697320706f6c6c20616c726561647900604482015260640161065d565b60405162461bcd60e51b815260206004820152602860248201527f55736572206973206e6f7420616c6c6f77656420746f20737570706f727420746044820152671a1a5cc81c1bdb1b60c21b606482015260840161065d565b60075460405163191a5f8b60e21b8152600481018390526001600160a01b03909116906364697e2c906024016103cd565b600080600090506000600660029054906101000a90046001600160a01b03166001600160a01b03166322faa41f6040518163ffffffff1660e01b8152600401602060405180830381865afa1580156107e7573d6000803e3d6000fd5b505050506040513d601f19601f8201168201806040525081019061080b9190610d96565b6008546003549192506000916001600160a01b039091169063fd3bad52906105689085610d5f565b60065460405163297027d560e01b815233600482018190526000929091620100009091046001600160a01b03169063297027d590602401602060405180830381865afa158015610887573d6000803e3d6000fd5b505050506040513d601f19601f820116820180604052508101906108ab9190610c8a565b806109265750600654604051637d26bd5760e11b81526001600160a01b038381166004830152620100009092049091169063fa4d7aae90602401602060405180830381865afa158015610902573d6000803e3d6000fd5b505050506040513d601f19601f820116820180604052508101906109269190610c8a565b8061031e575060065460405163056909b760e01b81526001600160a01b038381166004830152620100009092049091169063056909b7906024016102dd565b600654604051631856fb2960e31b815233600482018190526000929091620100009091046001600160a01b03169063c2b7d948906024016102dd565b600060065460ff1660058111156109ba576109ba610b3f565b14806109dc5750600160065460ff1660058111156109da576109da610b3f565b145b806109fd5750600260065460ff1660058111156109fb576109fb610b3f565b145b610a195760405162461bcd60e51b815260040161065d90610daf565b3360009081526009602052604090205460ff16151560011415610a5b57336000908152600960205260408120805460ff1916905560058054916106b283610e0e565b60405162461bcd60e51b815260206004820152601e60248201527f5573657220646964206e6f7420737570706f7274207468697320706f6c6c0000604482015260640161065d565b6001546000908190429082906104289062015180610d5f565b600760009054906101000a90046001600160a01b03166001600160a01b031663d9f3a5c16040518163ffffffff1660e01b8152600401600060405180830381600087803b158015610b0c57600080fd5b505af1158015610b20573d6000803e3d6000fd5b50505050565b600060208284031215610b3857600080fd5b5035919050565b634e487b7160e01b600052602160045260246000fd5b6020810160048310610b6957610b69610b3f565b91905290565b634e487b7160e01b600052604160045260246000fd5b600082601f830112610b9657600080fd5b813567ffffffffffffffff80821115610bb157610bb1610b6f565b604051601f8301601f19908116603f01168101908282118183101715610bd957610bd9610b6f565b81604052838152866020858801011115610bf257600080fd5b836020870160208301376000602085830101528094505050505092915050565b60008060408385031215610c2557600080fd5b823567ffffffffffffffff80821115610c3d57600080fd5b610c4986838701610b85565b93506020850135915080821115610c5f57600080fd5b50610c6c85828601610b85565b9150509250929050565b6020810160068310610b6957610b69610b3f565b600060208284031215610c9c57600080fd5b81518015158114610cac57600080fd5b9392505050565b6000815180845260005b81811015610cd957602081850181015186830182015201610cbd565b81811115610ceb576000602083870101525b50601f01601f19169290920160200192915050565b6001600160a01b03851681528315156020820152608060408201819052600090610d2c90830185610cb3565b8281036060840152610d3e8185610cb3565b979650505050505050565b634e487b7160e01b600052601160045260246000fd5b6000816000190483118215151615610d7957610d79610d49565b500290565b60008219821115610d9157610d91610d49565b500190565b600060208284031215610da857600080fd5b5051919050565b60208082526024908201527f54686520706f6c6c206d75737420626520696e20616e2061637469766520737460408201526330ba329760e11b606082015260800190565b6000600019821415610e0757610e07610d49565b5060010190565b600081610e1d57610e1d610d49565b50600019019056fea26469706673582212203f56478adce0833ef1e4c43594214e7e4df3c72010e350505be1db69ddcc1f0364736f6c634300080c003360806040523480156200001157600080fd5b50604051620025bc380380620025bc8339810160408190526200003491620004ab565b6040516200004290620002af565b604051809103906000f0801580156200005f573d6000803e3d6000fd5b50600980546001600160a01b0319166001600160a01b03929092169190911790556200008d83838362000097565b50505050620006a9565b60095460408051633bf1b06360e21b815290516000926001600160a01b03169163efc6c18c9160048083019260209291908290030181865afa158015620000e2573d6000803e3d6000fd5b505050506040513d601f19601f82011682018060405250810190620001089190620005c4565b600055825162000120906002906020860190620002bd565b50815162000136906003906020850190620002bd565b50426004558351620001509060019060208701906200034c565b506007805460ff1916905560408051808201909152600d81526c506f6c6c20637265617465642160981b60208201526200018d9060019062000198565b506000549392505050565b816003811115620001ad57620001ad620005de565b60075460ff166003811115620001c757620001c7620005de565b146200023d5760075460405133917ffc6f5e211098b443015ccb625104a41f61e97a80dd9b8734242a9a8c3eecc8dc916200020a9160ff16908690869062000617565b60405180910390a26007805483919060ff19166001836003811115620002345762000234620005de565b02179055505050565b60405162461bcd60e51b815260206004820152603660248201527f5374617465206e6f74206368616e6765642e204e65772073746174652069732060448201527f7468652073616d65206173206f6c642073746174652100000000000000000000606482015260840160405180910390fd5b6107448062001e7883390190565b828054620002cb906200066c565b90600052602060002090601f016020900481019282620002ef57600085556200033a565b82601f106200030a57805160ff19168380011785556200033a565b828001600101855582156200033a579182015b828111156200033a5782518255916020019190600101906200031d565b5062000348929150620003a4565b5090565b8280548282559060005260206000209081019282156200033a579160200282015b828111156200033a57825182546001600160a01b0319166001600160a01b039091161782556020909201916001909101906200036d565b5b80821115620003485760008155600101620003a5565b634e487b7160e01b600052604160045260246000fd5b604051601f8201601f191681016001600160401b0381118282101715620003fc57620003fc620003bb565b604052919050565b60005b838110156200042157818101518382015260200162000407565b8381111562000431576000848401525b50505050565b600082601f8301126200044957600080fd5b81516001600160401b03811115620004655762000465620003bb565b6200047a601f8201601f1916602001620003d1565b8181528460208386010111156200049057600080fd5b620004a382602083016020870162000404565b949350505050565b600080600060608486031215620004c157600080fd5b83516001600160401b0380821115620004d957600080fd5b818601915086601f830112620004ee57600080fd5b8151602082821115620005055762000505620003bb565b8160051b62000516828201620003d1565b928352848101820192828101908b8511156200053157600080fd5b958301955b848710156200056b57865192506001600160a01b03831683146200055a5760008081fd5b828252958301959083019062000536565b928a0151929850919450505050808211156200058657600080fd5b620005948783880162000437565b93506040860151915080821115620005ab57600080fd5b50620005ba8682870162000437565b9150509250925092565b600060208284031215620005d757600080fd5b5051919050565b634e487b7160e01b600052602160045260246000fd5b600481106200061357634e487b7160e01b600052602160045260246000fd5b9052565b620006238185620005f4565b620006326020820184620005f4565b60606040820152600082518060608401526200065681608085016020870162000404565b601f01601f191691909101608001949350505050565b600181811c908216806200068157607f821691505b60208210811415620006a357634e487b7160e01b600052602260045260246000fd5b50919050565b6117bf80620006b96000396000f3fe608060405234801561001057600080fd5b506004361061014d5760003560e01c806364697e2c116100c3578063c19d93fb1161007c578063c19d93fb1461025e578063cc2ee19614610278578063d9f3a5c11461028d578063ddd7531b14610295578063e0a96cd6146102a8578063ff3c1a8f146102cd57600080fd5b806364697e2c1461021f5780637284e41614610232578063a6bd54271461018c578063a89a08621461023a578063af640d0f1461024d578063b90c1dbb1461025657600080fd5b8063409e220511610115578063409e2205146101bb57806342169e48146101e15780634a79d50c146101ea5780634f4a3115146101f2578063517b70421461020557806362a5af3b1461021757600080fd5b8063025e7c27146101525780630f15f4c01461018257806311174a291461018c5780631a0925411461019e5780632f2770db146101b3575b600080fd5b6101656101603660046111ca565b6102d5565b6040516001600160a01b0390911681526020015b60405180910390f35b61018a6102ff565b005b6006545b604051908152602001610179565b6101a66103b9565b6040516101799190611230565b61018a61044b565b6101ce6101c93660046111ca565b6104f8565b604051610179979695949392919061124a565b61019060065481565b6101a661066a565b61018a6102003660046111ca565b6106f8565b6101906102133660046113a3565b5190565b61018a6107b9565b61018a61022d3660046111ca565b610864565b6101a66109f2565b61018a61024836600461147e565b6109ff565b61019060005481565b600454610190565b60075461026b9060ff1681565b604051610179919061153b565b610280610c3c565b604051610179919061154f565b61018a610e0e565b61018a6102a33660046111ca565b610f4d565b6102bd6102b63660046113a3565b6060015190565b6040519015158152602001610179565b6101a6610fad565b600181815481106102e557600080fd5b6000918252602090912001546001600160a01b0316905081565b600160005b60015481101561035857600181815481106103215761032161161c565b6000918252602090912001546001600160a01b03163314156103465760019150610358565b8061035081611648565b915050610304565b506001811515146103845760405162461bcd60e51b815260040161037b90611663565b60405180910390fd5b6103b660016040518060400160405280600f81526020016e506f6c6c206163746976617465642160881b815250610fbc565b50565b6060600380546103c8906116a5565b80601f01602080910402602001604051908101604052809291908181526020018280546103f4906116a5565b80156104415780601f1061041657610100808354040283529160200191610441565b820191906000526020600020905b81548152906001019060200180831161042457829003601f168201915b5050505050905090565b600160005b6001548110156104a4576001818154811061046d5761046d61161c565b6000918252602090912001546001600160a01b031633141561049257600191506104a4565b8061049c81611648565b915050610450565b506001811515146104c75760405162461bcd60e51b815260040161037b90611663565b6103b660036040518060400160405280600e81526020016d506f6c6c2064697361626c65642160901b815250610fbc565b6005818154811061050857600080fd5b600091825260209091206006909102018054600182015460028301546003840180549395506001600160a01b039283169492821693600160a01b90920460ff169291610553906116a5565b80601f016020809104026020016040519081016040528092919081815260200182805461057f906116a5565b80156105cc5780601f106105a1576101008083540402835291602001916105cc565b820191906000526020600020905b8154815290600101906020018083116105af57829003601f168201915b5050505050908060040180546105e1906116a5565b80601f016020809104026020016040519081016040528092919081815260200182805461060d906116a5565b801561065a5780601f1061062f5761010080835404028352916020019161065a565b820191906000526020600020905b81548152906001019060200180831161063d57829003601f168201915b5050505050908060050154905087565b60028054610677906116a5565b80601f01602080910402602001604051908101604052809291908181526020018280546106a3906116a5565b80156106f05780601f106106c5576101008083540402835291602001916106f0565b820191906000526020600020905b8154815290600101906020018083116106d357829003601f168201915b505050505081565b60005b6005548110156107845781600582815481106107195761071961161c565b9060005260206000209060060201600001541415610772576000600582815481106107465761074661161c565b906000526020600020906006020160020160146101000a81548160ff0219169083151502179055505050565b8061077c81611648565b9150506106fb565b5060405162461bcd60e51b8152602060048201526009602482015268139bdd08199bdd5b9960ba1b604482015260640161037b565b600160005b60015481101561081257600181815481106107db576107db61161c565b6000918252602090912001546001600160a01b03163314156108005760019150610812565b8061080a81611648565b9150506107be565b506001811515146108355760405162461bcd60e51b815260040161037b90611663565b6103b660026040518060400160405280600c81526020016b506f6c6c2066726f7a656e2160a01b815250610fbc565b600160075460ff16600381111561087d5761087d611503565b1461089a5760405162461bcd60e51b815260040161037b906116e0565b3360006108a6836110bc565b6002810154909150600160a01b900460ff16156109ad576001600160a01b03821660009081526008602052604090205480156109065760006108e7826110bc565b60058101805491925060006108fb83611724565b919050555050610977565b838114156109615760405162461bcd60e51b815260206004820152602260248201527f5573657220616c726561647920766f74656420666f722074686973206f70746960448201526137b760f11b606482015260840161037b565b6006805490600061097183611648565b91905055505b6001600160a01b0383166000908152600860205260408120859055600583018054916109a283611648565b919050555050505050565b60405162461bcd60e51b81526020600482015260156024820152744f7074696f6e206973206e6f74206163746976652160581b604482015260640161037b565b505050565b60038054610677906116a5565b600160075460ff166003811115610a1857610a18611503565b14610a355760405162461bcd60e51b815260040161037b906116e0565b600160005b600154811015610a8e5760018181548110610a5757610a5761161c565b6000918252602090912001546001600160a01b0316331415610a7c5760019150610a8e565b80610a8681611648565b915050610a3a565b50600181151514610ab15760405162461bcd60e51b815260040161037b90611663565b6005543390600090610ac5906103e861173b565b6040805160e0810182528281526001600160a01b03808b1660208084019182528783169484019485528b151560608501908152608085018c815260a086018c9052600060c08701819052600580546001810182559152865160069091027f036b6384b5eca791c62761152d0c79bb0604c104a5fb6f4eb0703f3154bb3db0810191825594517f036b6384b5eca791c62761152d0c79bb0604c104a5fb6f4eb0703f3154bb3db1860180549188166001600160a01b031990921691909117905596517f036b6384b5eca791c62761152d0c79bb0604c104a5fb6f4eb0703f3154bb3db28501805493511515600160a01b026001600160a81b0319909416919096161791909117909355915180519596509294859493610c09937f036b6384b5eca791c62761152d0c79bb0604c104a5fb6f4eb0703f3154bb3db3909301920190611131565b5060a08201518051610c25916004840191602090910190611131565b5060c0820151816005015550505050505050505050565b60606005805480602002602001604051908101604052809291908181526020016000905b82821015610e055760008481526020908190206040805160e081018252600686029092018054835260018101546001600160a01b0390811694840194909452600281015493841691830191909152600160a01b90920460ff1615156060820152600382018054919291608084019190610cd8906116a5565b80601f0160208091040260200160405190810160405280929190818152602001828054610d04906116a5565b8015610d515780601f10610d2657610100808354040283529160200191610d51565b820191906000526020600020905b815481529060010190602001808311610d3457829003601f168201915b50505050508152602001600482018054610d6a906116a5565b80601f0160208091040260200160405190810160405280929190818152602001828054610d96906116a5565b8015610de35780601f10610db857610100808354040283529160200191610de3565b820191906000526020600020905b815481529060010190602001808311610dc657829003601f168201915b5050505050815260200160058201548152505081526020019060010190610c60565b50505050905090565b600160075460ff166003811115610e2757610e27611503565b14610e445760405162461bcd60e51b815260040161037b906116e0565b336000818152600860205260408120548015610eb6576000610e65826110bc565b6005810180549192506000610e7983611724565b90915550506001600160a01b03841660009081526008602052604081208190556006805491610ea783611724565b91905055506001925050610f08565b60405162461bcd60e51b815260206004820152602160248201527f5573657220646964206e6f6e20766f746520666f722074686973206f7074696f6044820152603760f91b606482015260840161037b565b816109ed5760405162461bcd60e51b8152602060048201526015602482015274556e61626c6520746f2072656d6f766520766f746560581b604482015260640161037b565b60005b600554811015610784578160058281548110610f6e57610f6e61161c565b9060005260206000209060060201600001541415610f9b576001600582815481106107465761074661161c565b80610fa581611648565b915050610f50565b6060600280546103c8906116a5565b816003811115610fce57610fce611503565b60075460ff166003811115610fe557610fe5611503565b146110555760075460405133917ffc6f5e211098b443015ccb625104a41f61e97a80dd9b8734242a9a8c3eecc8dc916110259160ff169086908690611753565b60405180910390a26007805483919060ff1916600183600381111561104c5761104c611503565b02179055505050565b60405162461bcd60e51b815260206004820152603660248201527f5374617465206e6f74206368616e6765642e204e6577207374617465206973206044820152757468652073616d65206173206f6c642073746174652160501b606482015260840161037b565b6000805b6005548110156107845782600582815481106110de576110de61161c565b906000526020600020906006020160000154141561111f57600581815481106111095761110961161c565b9060005260206000209060060201915050919050565b8061112981611648565b9150506110c0565b82805461113d906116a5565b90600052602060002090601f01602090048101928261115f57600085556111a5565b82601f1061117857805160ff19168380011785556111a5565b828001600101855582156111a5579182015b828111156111a557825182559160200191906001019061118a565b506111b19291506111b5565b5090565b5b808211156111b157600081556001016111b6565b6000602082840312156111dc57600080fd5b5035919050565b6000815180845260005b81811015611209576020818501810151868301820152016111ed565b8181111561121b576000602083870101525b50601f01601f19169290920160200192915050565b60208152600061124360208301846111e3565b9392505050565b8781526001600160a01b03878116602083015286166040820152841515606082015260e060808201819052600090611284908301866111e3565b82810360a084015261129681866111e3565b9150508260c083015298975050505050505050565b634e487b7160e01b600052604160045260246000fd5b60405160e0810167ffffffffffffffff811182821017156112e4576112e46112ab565b60405290565b80356001600160a01b038116811461130157600080fd5b919050565b8035801515811461130157600080fd5b600082601f83011261132757600080fd5b813567ffffffffffffffff80821115611342576113426112ab565b604051601f8301601f19908116603f0116810190828211818310171561136a5761136a6112ab565b8160405283815286602085880101111561138357600080fd5b836020870160208301376000602085830101528094505050505092915050565b6000602082840312156113b557600080fd5b813567ffffffffffffffff808211156113cd57600080fd5b9083019060e082860312156113e157600080fd5b6113e96112c1565b823581526113f9602084016112ea565b602082015261140a604084016112ea565b604082015261141b60608401611306565b606082015260808301358281111561143257600080fd5b61143e87828601611316565b60808301525060a08301358281111561145657600080fd5b61146287828601611316565b60a08301525060c083013560c082015280935050505092915050565b6000806000806080858703121561149457600080fd5b61149d856112ea565b93506114ab60208601611306565b9250604085013567ffffffffffffffff808211156114c857600080fd5b6114d488838901611316565b935060608701359150808211156114ea57600080fd5b506114f787828801611316565b91505092959194509250565b634e487b7160e01b600052602160045260246000fd5b6004811061153757634e487b7160e01b600052602160045260246000fd5b9052565b602081016115498284611519565b92915050565b60006020808301818452808551808352604092508286019150828160051b87010184880160005b8381101561160e57888303603f19018552815180518452878101516001600160a01b039081168986015287820151168785015260608082015115159085015260808082015160e082870181905291906115d1838801826111e3565b9250505060a080830151868303828801526115ec83826111e3565b60c0948501519790940196909652505094870194925090860190600101611576565b509098975050505050505050565b634e487b7160e01b600052603260045260246000fd5b634e487b7160e01b600052601160045260246000fd5b600060001982141561165c5761165c611632565b5060010190565b60208082526022908201527f4f6e6c79206f776e6572732063616e2063616c6c20746869732066756e63746960408201526137b760f11b606082015260800190565b600181811c908216806116b957607f821691505b602082108114156116da57634e487b7160e01b600052602260045260246000fd5b50919050565b60208082526024908201527f54686520706f6c6c206d75737420626520696e20616e2061637469766520737460408201526330ba329760e11b606082015260800190565b60008161173357611733611632565b506000190190565b6000821982111561174e5761174e611632565b500190565b61175d8185611519565b61176a6020820184611519565b60606040820152600061178060608301846111e3565b9594505050505056fea2646970667358221220597625c6ca3f6330a5c497cb6367e65b68219edcd68ed926a32e401bee2ce9eb64736f6c634300080c0033608060405234801561001057600080fd5b50610724806100206000396000f3fe608060405234801561001057600080fd5b506004361061004c5760003560e01c80632c6e75981461005157806369f9ad2f1461007a578063efc6c18c146100a6578063fd3bad52146100bc575b600080fd5b61006461005f3660046103a6565b6100cf565b60405161007191906103cf565b60405180910390f35b61008d61008836600461043d565b6102d9565b6040516001600160f81b03199091168152602001610071565b6100ae61030f565b604051908152602001610071565b6100ae6100ca36600461045a565b610371565b60408051602880825260608281019093526000919060208201818036833701905050905060005b60148110156102d257600061010c826013610492565b6101179060086104a9565b6101229060026105ac565b610135906001600160a01b0387166105d5565b60f81b9050600060108260f81c61014c91906105e9565b60f81b905060008160f81c6010610163919061060b565b8360f81c610171919061062c565b6040516369f9ad2f60e01b81526001600160f81b03198416600482015260f89190911b915030906369f9ad2f90602401602060405180830381865afa1580156101be573d6000803e3d6000fd5b505050506040513d601f19601f820116820180604052508101906101e2919061064f565b856101ee8660026104a9565b815181106101fe576101fe61066c565b60200101906001600160f81b031916908160001a9053506040516369f9ad2f60e01b81526001600160f81b03198216600482015230906369f9ad2f90602401602060405180830381865afa15801561025a573d6000803e3d6000fd5b505050506040513d601f19601f8201168201806040525081019061027e919061064f565b8561028a8660026104a9565b610295906001610682565b815181106102a5576102a561066c565b60200101906001600160f81b031916908160001a90535050505080806102ca9061069a565b9150506100f6565b5092915050565b6000600a60f883901c1015610300576102f760f883901c60306106b5565b60f81b92915050565b6102f760f883901c60576106b5565b604080516000602080830182905242838501524460608085019190915241901b6bffffffffffffffffffffffff19166080840152835180840360740181526094909301909352815191909201208190816103688161069a565b50909392505050565b60008061037e83856105d5565b905061038a83856106da565b1561039d5761039a816001610682565b90505b90505b92915050565b6000602082840312156103b857600080fd5b81356001600160a01b038116811461039d57600080fd5b600060208083528351808285015260005b818110156103fc578581018301518582016040015282016103e0565b8181111561040e576000604083870101525b50601f01601f1916929092016040019392505050565b6001600160f81b03198116811461043a57600080fd5b50565b60006020828403121561044f57600080fd5b813561039d81610424565b6000806040838503121561046d57600080fd5b50508035926020909101359150565b634e487b7160e01b600052601160045260246000fd5b6000828210156104a4576104a461047c565b500390565b60008160001904831182151516156104c3576104c361047c565b500290565b600181815b808511156105035781600019048211156104e9576104e961047c565b808516156104f657918102915b93841c93908002906104cd565b509250929050565b60008261051a575060016103a0565b81610527575060006103a0565b816001811461053d576002811461054757610563565b60019150506103a0565b60ff8411156105585761055861047c565b50506001821b6103a0565b5060208310610133831016604e8410600b8410161715610586575081810a6103a0565b61059083836104c8565b80600019048211156105a4576105a461047c565b029392505050565b60006105b8838361050b565b9392505050565b634e487b7160e01b600052601260045260246000fd5b6000826105e4576105e46105bf565b500490565b600060ff8316806105fc576105fc6105bf565b8060ff84160491505092915050565b600060ff821660ff84168160ff04811182151516156105a4576105a461047c565b600060ff821660ff8416808210156106465761064661047c565b90039392505050565b60006020828403121561066157600080fd5b815161039d81610424565b634e487b7160e01b600052603260045260246000fd5b600082198211156106955761069561047c565b500190565b60006000198214156106ae576106ae61047c565b5060010190565b600060ff821660ff84168060ff038211156106d2576106d261047c565b019392505050565b6000826106e9576106e96105bf565b50069056fea2646970667358221220c46253c53ef194d63f41c93fb107170a66c061ef365dbf58b0782a6a752fbe5164736f6c634300080c0033608060405234801561001057600080fd5b50610724806100206000396000f3fe608060405234801561001057600080fd5b506004361061004c5760003560e01c80632c6e75981461005157806369f9ad2f1461007a578063efc6c18c146100a6578063fd3bad52146100bc575b600080fd5b61006461005f3660046103a6565b6100cf565b60405161007191906103cf565b60405180910390f35b61008d61008836600461043d565b6102d9565b6040516001600160f81b03199091168152602001610071565b6100ae61030f565b604051908152602001610071565b6100ae6100ca36600461045a565b610371565b60408051602880825260608281019093526000919060208201818036833701905050905060005b60148110156102d257600061010c826013610492565b6101179060086104a9565b6101229060026105ac565b610135906001600160a01b0387166105d5565b60f81b9050600060108260f81c61014c91906105e9565b60f81b905060008160f81c6010610163919061060b565b8360f81c610171919061062c565b6040516369f9ad2f60e01b81526001600160f81b03198416600482015260f89190911b915030906369f9ad2f90602401602060405180830381865afa1580156101be573d6000803e3d6000fd5b505050506040513d601f19601f820116820180604052508101906101e2919061064f565b856101ee8660026104a9565b815181106101fe576101fe61066c565b60200101906001600160f81b031916908160001a9053506040516369f9ad2f60e01b81526001600160f81b03198216600482015230906369f9ad2f90602401602060405180830381865afa15801561025a573d6000803e3d6000fd5b505050506040513d601f19601f8201168201806040525081019061027e919061064f565b8561028a8660026104a9565b610295906001610682565b815181106102a5576102a561066c565b60200101906001600160f81b031916908160001a90535050505080806102ca9061069a565b9150506100f6565b5092915050565b6000600a60f883901c1015610300576102f760f883901c60306106b5565b60f81b92915050565b6102f760f883901c60576106b5565b604080516000602080830182905242838501524460608085019190915241901b6bffffffffffffffffffffffff19166080840152835180840360740181526094909301909352815191909201208190816103688161069a565b50909392505050565b60008061037e83856105d5565b905061038a83856106da565b1561039d5761039a816001610682565b90505b90505b92915050565b6000602082840312156103b857600080fd5b81356001600160a01b038116811461039d57600080fd5b600060208083528351808285015260005b818110156103fc578581018301518582016040015282016103e0565b8181111561040e576000604083870101525b50601f01601f1916929092016040019392505050565b6001600160f81b03198116811461043a57600080fd5b50565b60006020828403121561044f57600080fd5b813561039d81610424565b6000806040838503121561046d57600080fd5b50508035926020909101359150565b634e487b7160e01b600052601160045260246000fd5b6000828210156104a4576104a461047c565b500390565b60008160001904831182151516156104c3576104c361047c565b500290565b600181815b808511156105035781600019048211156104e9576104e961047c565b808516156104f657918102915b93841c93908002906104cd565b509250929050565b60008261051a575060016103a0565b81610527575060006103a0565b816001811461053d576002811461054757610563565b60019150506103a0565b60ff8411156105585761055861047c565b50506001821b6103a0565b5060208310610133831016604e8410600b8410161715610586575081810a6103a0565b61059083836104c8565b80600019048211156105a4576105a461047c565b029392505050565b60006105b8838361050b565b9392505050565b634e487b7160e01b600052601260045260246000fd5b6000826105e4576105e46105bf565b500490565b600060ff8316806105fc576105fc6105bf565b8060ff84160491505092915050565b600060ff821660ff84168160ff04811182151516156105a4576105a461047c565b600060ff821660ff8416808210156106465761064661047c565b90039392505050565b60006020828403121561066157600080fd5b815161039d81610424565b634e487b7160e01b600052603260045260246000fd5b600082198211156106955761069561047c565b500190565b60006000198214156106ae576106ae61047c565b5060010190565b600060ff821660ff84168060ff038211156106d2576106d261047c565b019392505050565b6000826106e9576106e96105bf565b50069056fea2646970667358221220c46253c53ef194d63f41c93fb107170a66c061ef365dbf58b0782a6a752fbe5164736f6c634300080c0033",
			"opcodes": "PUSH1 0x80 PUSH1 0x40 MSTORE PUSH1 0x1C PUSH1 0x1 SSTORE PUSH1 0x1C PUSH1 0x2 SSTORE PUSH1 0x14 PUSH1 0x3 SSTORE PUSH1 0x32 PUSH1 0x4 SSTORE CALLVALUE DUP1 ISZERO PUSH3 0x25 JUMPI PUSH1 0x0 DUP1 REVERT JUMPDEST POP PUSH1 0x40 MLOAD PUSH3 0x3F7E CODESIZE SUB DUP1 PUSH3 0x3F7E DUP4 CODECOPY DUP2 ADD PUSH1 0x40 DUP2 SWAP1 MSTORE PUSH3 0x48 SWAP2 PUSH3 0x246 JUMP JUMPDEST PUSH1 0x6 DUP1 SLOAD PUSH3 0x10000 PUSH1 0x1 PUSH1 0xB0 SHL SUB NOT AND PUSH3 0x10000 PUSH1 0x1 PUSH1 0x1 PUSH1 0xA0 SHL SUB DUP8 AND MUL OR SWAP1 SSTORE PUSH1 0x40 MLOAD DUP4 SWAP1 DUP4 SWAP1 DUP4 SWAP1 PUSH3 0x7E SWAP1 PUSH3 0x121 JUMP JUMPDEST PUSH3 0x8C SWAP4 SWAP3 SWAP2 SWAP1 PUSH3 0x398 JUMP JUMPDEST PUSH1 0x40 MLOAD DUP1 SWAP2 SUB SWAP1 PUSH1 0x0 CREATE DUP1 ISZERO DUP1 ISZERO PUSH3 0xA9 JUMPI RETURNDATASIZE PUSH1 0x0 DUP1 RETURNDATACOPY RETURNDATASIZE PUSH1 0x0 REVERT JUMPDEST POP PUSH1 0x7 DUP1 SLOAD PUSH1 0x1 PUSH1 0x1 PUSH1 0xA0 SHL SUB NOT AND PUSH1 0x1 PUSH1 0x1 PUSH1 0xA0 SHL SUB SWAP3 SWAP1 SWAP3 AND SWAP2 SWAP1 SWAP2 OR SWAP1 SSTORE PUSH1 0x40 MLOAD PUSH3 0xD8 SWAP1 PUSH3 0x12F JUMP JUMPDEST PUSH1 0x40 MLOAD DUP1 SWAP2 SUB SWAP1 PUSH1 0x0 CREATE DUP1 ISZERO DUP1 ISZERO PUSH3 0xF5 JUMPI RETURNDATASIZE PUSH1 0x0 DUP1 RETURNDATACOPY RETURNDATASIZE PUSH1 0x0 REVERT JUMPDEST POP PUSH1 0x8 DUP1 SLOAD PUSH1 0x1 PUSH1 0x1 PUSH1 0xA0 SHL SUB NOT AND PUSH1 0x1 PUSH1 0x1 PUSH1 0xA0 SHL SUB SWAP3 SWAP1 SWAP3 AND SWAP2 SWAP1 SWAP2 OR SWAP1 SSTORE POP PUSH3 0x413 SWAP3 POP POP POP JUMP JUMPDEST PUSH2 0x25BC DUP1 PUSH3 0x127E DUP4 CODECOPY ADD SWAP1 JUMP JUMPDEST PUSH2 0x744 DUP1 PUSH3 0x383A DUP4 CODECOPY ADD SWAP1 JUMP JUMPDEST PUSH1 0x1 PUSH1 0x1 PUSH1 0xA0 SHL SUB DUP2 AND DUP2 EQ PUSH3 0x153 JUMPI PUSH1 0x0 DUP1 REVERT JUMPDEST POP JUMP JUMPDEST PUSH4 0x4E487B71 PUSH1 0xE0 SHL PUSH1 0x0 MSTORE PUSH1 0x41 PUSH1 0x4 MSTORE PUSH1 0x24 PUSH1 0x0 REVERT JUMPDEST PUSH1 0x40 MLOAD PUSH1 0x1F DUP3 ADD PUSH1 0x1F NOT AND DUP2 ADD PUSH1 0x1 PUSH1 0x1 PUSH1 0x40 SHL SUB DUP2 GT DUP3 DUP3 LT OR ISZERO PUSH3 0x197 JUMPI PUSH3 0x197 PUSH3 0x156 JUMP JUMPDEST PUSH1 0x40 MSTORE SWAP2 SWAP1 POP JUMP JUMPDEST PUSH1 0x0 JUMPDEST DUP4 DUP2 LT ISZERO PUSH3 0x1BC JUMPI DUP2 DUP2 ADD MLOAD DUP4 DUP3 ADD MSTORE PUSH1 0x20 ADD PUSH3 0x1A2 JUMP JUMPDEST DUP4 DUP2 GT ISZERO PUSH3 0x1CC JUMPI PUSH1 0x0 DUP5 DUP5 ADD MSTORE JUMPDEST POP POP POP POP JUMP JUMPDEST PUSH1 0x0 DUP3 PUSH1 0x1F DUP4 ADD SLT PUSH3 0x1E4 JUMPI PUSH1 0x0 DUP1 REVERT JUMPDEST DUP2 MLOAD PUSH1 0x1 PUSH1 0x1 PUSH1 0x40 SHL SUB DUP2 GT ISZERO PUSH3 0x200 JUMPI PUSH3 0x200 PUSH3 0x156 JUMP JUMPDEST PUSH3 0x215 PUSH1 0x1F DUP3 ADD PUSH1 0x1F NOT AND PUSH1 0x20 ADD PUSH3 0x16C JUMP JUMPDEST DUP2 DUP2 MSTORE DUP5 PUSH1 0x20 DUP4 DUP7 ADD ADD GT ISZERO PUSH3 0x22B JUMPI PUSH1 0x0 DUP1 REVERT JUMPDEST PUSH3 0x23E DUP3 PUSH1 0x20 DUP4 ADD PUSH1 0x20 DUP8 ADD PUSH3 0x19F JUMP JUMPDEST SWAP5 SWAP4 POP POP POP POP JUMP JUMPDEST PUSH1 0x0 DUP1 PUSH1 0x0 DUP1 PUSH1 0x80 DUP6 DUP8 SUB SLT ISZERO PUSH3 0x25D JUMPI PUSH1 0x0 DUP1 REVERT JUMPDEST DUP5 MLOAD PUSH3 0x26A DUP2 PUSH3 0x13D JUMP JUMPDEST PUSH1 0x20 DUP7 DUP2 ADD MLOAD SWAP2 SWAP6 POP SWAP1 PUSH1 0x1 PUSH1 0x1 PUSH1 0x40 SHL SUB DUP1 DUP3 GT ISZERO PUSH3 0x28A JUMPI PUSH1 0x0 DUP1 REVERT JUMPDEST DUP2 DUP9 ADD SWAP2 POP DUP9 PUSH1 0x1F DUP4 ADD SLT PUSH3 0x29F JUMPI PUSH1 0x0 DUP1 REVERT JUMPDEST DUP2 MLOAD DUP2 DUP2 GT ISZERO PUSH3 0x2B4 JUMPI PUSH3 0x2B4 PUSH3 0x156 JUMP JUMPDEST DUP1 PUSH1 0x5 SHL PUSH3 0x2C5 DUP6 DUP3 ADD PUSH3 0x16C JUMP JUMPDEST SWAP2 DUP3 MSTORE DUP4 DUP2 ADD DUP6 ADD SWAP2 DUP6 DUP2 ADD SWAP1 DUP13 DUP5 GT ISZERO PUSH3 0x2E0 JUMPI PUSH1 0x0 DUP1 REVERT JUMPDEST SWAP5 DUP7 ADD SWAP5 JUMPDEST DUP4 DUP7 LT ISZERO PUSH3 0x30E JUMPI DUP6 MLOAD SWAP3 POP PUSH3 0x2FD DUP4 PUSH3 0x13D JUMP JUMPDEST DUP3 DUP3 MSTORE SWAP5 DUP7 ADD SWAP5 SWAP1 DUP7 ADD SWAP1 PUSH3 0x2E5 JUMP JUMPDEST PUSH1 0x40 DUP13 ADD MLOAD SWAP1 SWAP10 POP SWAP6 POP POP POP POP DUP1 DUP4 GT ISZERO PUSH3 0x329 JUMPI PUSH1 0x0 DUP1 REVERT JUMPDEST PUSH3 0x337 DUP10 DUP5 DUP11 ADD PUSH3 0x1D2 JUMP JUMPDEST SWAP5 POP PUSH1 0x60 DUP9 ADD MLOAD SWAP3 POP DUP1 DUP4 GT ISZERO PUSH3 0x34E JUMPI PUSH1 0x0 DUP1 REVERT JUMPDEST POP POP PUSH3 0x35E DUP8 DUP3 DUP9 ADD PUSH3 0x1D2 JUMP JUMPDEST SWAP2 POP POP SWAP3 SWAP6 SWAP2 SWAP5 POP SWAP3 POP JUMP JUMPDEST PUSH1 0x0 DUP2 MLOAD DUP1 DUP5 MSTORE PUSH3 0x384 DUP2 PUSH1 0x20 DUP7 ADD PUSH1 0x20 DUP7 ADD PUSH3 0x19F JUMP JUMPDEST PUSH1 0x1F ADD PUSH1 0x1F NOT AND SWAP3 SWAP1 SWAP3 ADD PUSH1 0x20 ADD SWAP3 SWAP2 POP POP JUMP JUMPDEST PUSH1 0x60 DUP1 DUP3 MSTORE DUP5 MLOAD SWAP1 DUP3 ADD DUP2 SWAP1 MSTORE PUSH1 0x0 SWAP1 PUSH1 0x20 SWAP1 PUSH1 0x80 DUP5 ADD SWAP1 DUP3 DUP9 ADD DUP5 JUMPDEST DUP3 DUP2 LT ISZERO PUSH3 0x3DC JUMPI DUP2 MLOAD PUSH1 0x1 PUSH1 0x1 PUSH1 0xA0 SHL SUB AND DUP5 MSTORE SWAP3 DUP5 ADD SWAP3 SWAP1 DUP5 ADD SWAP1 PUSH1 0x1 ADD PUSH3 0x3B5 JUMP JUMPDEST POP POP POP DUP4 DUP2 SUB DUP3 DUP6 ADD MSTORE PUSH3 0x3F2 DUP2 DUP8 PUSH3 0x36A JUMP JUMPDEST SWAP2 POP POP DUP3 DUP2 SUB PUSH1 0x40 DUP5 ADD MSTORE PUSH3 0x409 DUP2 DUP6 PUSH3 0x36A JUMP JUMPDEST SWAP7 SWAP6 POP POP POP POP POP POP JUMP JUMPDEST PUSH2 0xE5B DUP1 PUSH3 0x423 PUSH1 0x0 CODECOPY PUSH1 0x0 RETURN INVALID PUSH1 0x80 PUSH1 0x40 MSTORE CALLVALUE DUP1 ISZERO PUSH2 0x10 JUMPI PUSH1 0x0 DUP1 REVERT JUMPDEST POP PUSH1 0x4 CALLDATASIZE LT PUSH2 0x137 JUMPI PUSH1 0x0 CALLDATALOAD PUSH1 0xE0 SHR DUP1 PUSH4 0x64697E2C GT PUSH2 0xB8 JUMPI DUP1 PUSH4 0xADA89616 GT PUSH2 0x7C JUMPI DUP1 PUSH4 0xADA89616 EQ PUSH2 0x238 JUMPI DUP1 PUSH4 0xB991EF3E EQ PUSH2 0x240 JUMPI DUP1 PUSH4 0xC19D93FB EQ PUSH2 0x248 JUMPI DUP1 PUSH4 0xD12F87D7 EQ PUSH2 0x262 JUMPI DUP1 PUSH4 0xD9F3A5C1 EQ PUSH2 0x26A JUMPI DUP1 PUSH4 0xF3B5A57B EQ PUSH2 0x272 JUMPI PUSH1 0x0 DUP1 REVERT JUMPDEST DUP1 PUSH4 0x64697E2C EQ PUSH2 0x203 JUMPI DUP1 PUSH4 0x6AE04928 EQ PUSH2 0x216 JUMPI DUP1 PUSH4 0x70A58156 EQ PUSH2 0x21F JUMPI DUP1 PUSH4 0x757CCD3B EQ PUSH2 0x227 JUMPI DUP1 PUSH4 0x9D18A2CE EQ PUSH2 0x22F JUMPI PUSH1 0x0 DUP1 REVERT JUMPDEST DUP1 PUSH4 0x4B67E07F GT PUSH2 0xFF JUMPI DUP1 PUSH4 0x4B67E07F EQ PUSH2 0x1C3 JUMPI DUP1 PUSH4 0x4F4A3115 EQ PUSH2 0x1D8 JUMPI DUP1 PUSH4 0x51E993B8 EQ PUSH2 0x1EB JUMPI DUP1 PUSH4 0x562ED860 EQ PUSH2 0x1F3 JUMPI DUP1 PUSH4 0x61C4DCB9 EQ PUSH2 0x1FB JUMPI PUSH1 0x0 DUP1 REVERT JUMPDEST DUP1 PUSH4 0x2184E7C EQ PUSH2 0x13C JUMPI DUP1 PUSH4 0x25E7C27 EQ PUSH2 0x158 JUMPI DUP1 PUSH4 0x159E7064 EQ PUSH2 0x183 JUMPI DUP1 PUSH4 0x231BDB05 EQ PUSH2 0x19B JUMPI DUP1 PUSH4 0x3E422F5F EQ PUSH2 0x1A4 JUMPI JUMPDEST PUSH1 0x0 DUP1 REVERT JUMPDEST PUSH2 0x145 PUSH1 0x3 SLOAD DUP2 JUMP JUMPDEST PUSH1 0x40 MLOAD SWAP1 DUP2 MSTORE PUSH1 0x20 ADD JUMPDEST PUSH1 0x40 MLOAD DUP1 SWAP2 SUB SWAP1 RETURN JUMPDEST PUSH2 0x16B PUSH2 0x166 CALLDATASIZE PUSH1 0x4 PUSH2 0xB26 JUMP JUMPDEST PUSH2 0x27B JUMP JUMPDEST PUSH1 0x40 MLOAD PUSH1 0x1 PUSH1 0x1 PUSH1 0xA0 SHL SUB SWAP1 SWAP2 AND DUP2 MSTORE PUSH1 0x20 ADD PUSH2 0x14F JUMP JUMPDEST PUSH2 0x18B PUSH2 0x2A5 JUMP JUMPDEST PUSH1 0x40 MLOAD SWAP1 ISZERO ISZERO DUP2 MSTORE PUSH1 0x20 ADD PUSH2 0x14F JUMP JUMPDEST PUSH2 0x145 PUSH1 0x5 SLOAD DUP2 JUMP JUMPDEST PUSH1 0x6 SLOAD PUSH2 0x1B6 SWAP1 PUSH2 0x100 SWAP1 DIV PUSH1 0xFF AND DUP2 JUMP JUMPDEST PUSH1 0x40 MLOAD PUSH2 0x14F SWAP2 SWAP1 PUSH2 0xB55 JUMP JUMPDEST PUSH2 0x1D6 PUSH2 0x1D1 CALLDATASIZE PUSH1 0x4 PUSH2 0xC12 JUMP JUMPDEST PUSH2 0x333 JUMP JUMPDEST STOP JUMPDEST PUSH2 0x1D6 PUSH2 0x1E6 CALLDATASIZE PUSH1 0x4 PUSH2 0xB26 JUMP JUMPDEST PUSH2 0x3A0 JUMP JUMPDEST PUSH2 0x18B PUSH2 0x402 JUMP JUMPDEST PUSH2 0x18B PUSH2 0x4C0 JUMP JUMPDEST PUSH2 0x1D6 PUSH2 0x5E5 JUMP JUMPDEST PUSH2 0x1D6 PUSH2 0x211 CALLDATASIZE PUSH1 0x4 PUSH2 0xB26 JUMP JUMPDEST PUSH2 0x75A JUMP JUMPDEST PUSH2 0x145 PUSH1 0x1 SLOAD DUP2 JUMP JUMPDEST PUSH2 0x18B PUSH2 0x78B JUMP JUMPDEST PUSH2 0x18B PUSH2 0x833 JUMP JUMPDEST PUSH2 0x145 PUSH1 0x4 SLOAD DUP2 JUMP JUMPDEST PUSH2 0x18B PUSH2 0x965 JUMP JUMPDEST PUSH2 0x1D6 PUSH2 0x9A1 JUMP JUMPDEST PUSH1 0x6 SLOAD PUSH2 0x255 SWAP1 PUSH1 0xFF AND DUP2 JUMP JUMPDEST PUSH1 0x40 MLOAD PUSH2 0x14F SWAP2 SWAP1 PUSH2 0xC76 JUMP JUMPDEST PUSH2 0x18B PUSH2 0xAA3 JUMP JUMPDEST PUSH2 0x1D6 PUSH2 0xABC JUMP JUMPDEST PUSH2 0x145 PUSH1 0x2 SLOAD DUP2 JUMP JUMPDEST PUSH1 0x0 DUP2 DUP2 SLOAD DUP2 LT PUSH2 0x28B JUMPI PUSH1 0x0 DUP1 REVERT JUMPDEST PUSH1 0x0 SWAP2 DUP3 MSTORE PUSH1 0x20 SWAP1 SWAP2 KECCAK256 ADD SLOAD PUSH1 0x1 PUSH1 0x1 PUSH1 0xA0 SHL SUB AND SWAP1 POP DUP2 JUMP JUMPDEST PUSH1 0x6 SLOAD PUSH1 0x40 MLOAD PUSH4 0x65C93769 PUSH1 0xE0 SHL DUP2 MSTORE CALLER PUSH1 0x4 DUP3 ADD DUP2 SWAP1 MSTORE PUSH1 0x0 SWAP3 SWAP1 SWAP2 PUSH3 0x10000 SWAP1 SWAP2 DIV PUSH1 0x1 PUSH1 0x1 PUSH1 0xA0 SHL SUB AND SWAP1 PUSH4 0x65C93769 SWAP1 PUSH1 0x24 ADD JUMPDEST PUSH1 0x20 PUSH1 0x40 MLOAD DUP1 DUP4 SUB DUP2 DUP7 GAS STATICCALL ISZERO DUP1 ISZERO PUSH2 0x2FA JUMPI RETURNDATASIZE PUSH1 0x0 DUP1 RETURNDATACOPY RETURNDATASIZE PUSH1 0x0 REVERT JUMPDEST POP POP POP POP PUSH1 0x40 MLOAD RETURNDATASIZE PUSH1 0x1F NOT PUSH1 0x1F DUP3 ADD AND DUP3 ADD DUP1 PUSH1 0x40 MSTORE POP DUP2 ADD SWAP1 PUSH2 0x31E SWAP2 SWAP1 PUSH2 0xC8A JUMP JUMPDEST ISZERO PUSH2 0x32B JUMPI PUSH1 0x1 SWAP2 POP POP SWAP1 JUMP JUMPDEST PUSH1 0x0 SWAP2 POP POP SWAP1 JUMP JUMPDEST PUSH1 0x7 SLOAD PUSH1 0x40 MLOAD PUSH4 0x544D0431 PUSH1 0xE1 SHL DUP2 MSTORE PUSH1 0x1 PUSH1 0x1 PUSH1 0xA0 SHL SUB SWAP1 SWAP2 AND SWAP1 PUSH4 0xA89A0862 SWAP1 PUSH2 0x36A SWAP1 CALLER SWAP1 PUSH1 0x1 SWAP1 DUP8 SWAP1 DUP8 SWAP1 PUSH1 0x4 ADD PUSH2 0xD00 JUMP JUMPDEST PUSH1 0x0 PUSH1 0x40 MLOAD DUP1 DUP4 SUB DUP2 PUSH1 0x0 DUP8 DUP1 EXTCODESIZE ISZERO DUP1 ISZERO PUSH2 0x384 JUMPI PUSH1 0x0 DUP1 REVERT JUMPDEST POP GAS CALL ISZERO DUP1 ISZERO PUSH2 0x398 JUMPI RETURNDATASIZE PUSH1 0x0 DUP1 RETURNDATACOPY RETURNDATASIZE PUSH1 0x0 REVERT JUMPDEST POP POP POP POP POP POP JUMP JUMPDEST PUSH1 0x7 SLOAD PUSH1 0x40 MLOAD PUSH4 0x4F4A3115 PUSH1 0xE0 SHL DUP2 MSTORE PUSH1 0x4 DUP2 ADD DUP4 SWAP1 MSTORE PUSH1 0x1 PUSH1 0x1 PUSH1 0xA0 SHL SUB SWAP1 SWAP2 AND SWAP1 PUSH4 0x4F4A3115 SWAP1 PUSH1 0x24 ADD JUMPDEST PUSH1 0x0 PUSH1 0x40 MLOAD DUP1 DUP4 SUB DUP2 PUSH1 0x0 DUP8 DUP1 EXTCODESIZE ISZERO DUP1 ISZERO PUSH2 0x3E7 JUMPI PUSH1 0x0 DUP1 REVERT JUMPDEST POP GAS CALL ISZERO DUP1 ISZERO PUSH2 0x3FB JUMPI RETURNDATASIZE PUSH1 0x0 DUP1 RETURNDATACOPY RETURNDATASIZE PUSH1 0x0 REVERT JUMPDEST POP POP POP POP POP JUMP JUMPDEST PUSH1 0x2 SLOAD PUSH1 0x0 SWAP1 DUP2 SWAP1 TIMESTAMP SWAP1 DUP3 SWAP1 PUSH2 0x41B SWAP1 PUSH3 0x15180 PUSH2 0xD5F JUMP JUMPDEST PUSH1 0x1 SLOAD PUSH2 0x428 SWAP2 SWAP1 PUSH2 0xD7E JUMP JUMPDEST PUSH1 0x7 PUSH1 0x0 SWAP1 SLOAD SWAP1 PUSH2 0x100 EXP SWAP1 DIV PUSH1 0x1 PUSH1 0x1 PUSH1 0xA0 SHL SUB AND PUSH1 0x1 PUSH1 0x1 PUSH1 0xA0 SHL SUB AND PUSH4 0xB90C1DBB PUSH1 0x40 MLOAD DUP2 PUSH4 0xFFFFFFFF AND PUSH1 0xE0 SHL DUP2 MSTORE PUSH1 0x4 ADD PUSH1 0x20 PUSH1 0x40 MLOAD DUP1 DUP4 SUB DUP2 DUP7 GAS STATICCALL ISZERO DUP1 ISZERO PUSH2 0x47B JUMPI RETURNDATASIZE PUSH1 0x0 DUP1 RETURNDATACOPY RETURNDATASIZE PUSH1 0x0 REVERT JUMPDEST POP POP POP POP PUSH1 0x40 MLOAD RETURNDATASIZE PUSH1 0x1F NOT PUSH1 0x1F DUP3 ADD AND DUP3 ADD DUP1 PUSH1 0x40 MSTORE POP DUP2 ADD SWAP1 PUSH2 0x49F SWAP2 SWAP1 PUSH2 0xD96 JUMP JUMPDEST PUSH2 0x4A9 SWAP2 SWAP1 PUSH2 0xD7E JUMP JUMPDEST SWAP1 POP DUP1 DUP3 GT ISZERO PUSH2 0x4B8 JUMPI PUSH1 0x1 SWAP3 POP JUMPDEST POP SWAP1 SWAP3 SWAP2 POP POP JUMP JUMPDEST PUSH1 0x0 DUP1 PUSH1 0x0 SWAP1 POP PUSH1 0x0 PUSH1 0x6 PUSH1 0x2 SWAP1 SLOAD SWAP1 PUSH2 0x100 EXP SWAP1 DIV PUSH1 0x1 PUSH1 0x1 PUSH1 0xA0 SHL SUB AND PUSH1 0x1 PUSH1 0x1 PUSH1 0xA0 SHL SUB AND PUSH4 0x22FAA41F PUSH1 0x40 MLOAD DUP2 PUSH4 0xFFFFFFFF AND PUSH1 0xE0 SHL DUP2 MSTORE PUSH1 0x4 ADD PUSH1 0x20 PUSH1 0x40 MLOAD DUP1 DUP4 SUB DUP2 DUP7 GAS STATICCALL ISZERO DUP1 ISZERO PUSH2 0x51C JUMPI RETURNDATASIZE PUSH1 0x0 DUP1 RETURNDATACOPY RETURNDATASIZE PUSH1 0x0 REVERT JUMPDEST POP POP POP POP PUSH1 0x40 MLOAD RETURNDATASIZE PUSH1 0x1F NOT PUSH1 0x1F DUP3 ADD AND DUP3 ADD DUP1 PUSH1 0x40 MSTORE POP DUP2 ADD SWAP1 PUSH2 0x540 SWAP2 SWAP1 PUSH2 0xD96 JUMP JUMPDEST PUSH1 0x8 SLOAD PUSH1 0x4 SLOAD SWAP2 SWAP3 POP PUSH1 0x0 SWAP2 PUSH1 0x1 PUSH1 0x1 PUSH1 0xA0 SHL SUB SWAP1 SWAP2 AND SWAP1 PUSH4 0xFD3BAD52 SWAP1 PUSH2 0x568 SWAP1 DUP6 PUSH2 0xD5F JUMP JUMPDEST PUSH1 0x40 MLOAD PUSH1 0x1 PUSH1 0x1 PUSH1 0xE0 SHL SUB NOT PUSH1 0xE0 DUP5 SWAP1 SHL AND DUP2 MSTORE PUSH1 0x4 DUP2 ADD SWAP2 SWAP1 SWAP2 MSTORE PUSH1 0x64 PUSH1 0x24 DUP3 ADD MSTORE PUSH1 0x44 ADD PUSH1 0x20 PUSH1 0x40 MLOAD DUP1 DUP4 SUB DUP2 DUP7 GAS STATICCALL ISZERO DUP1 ISZERO PUSH2 0x5AB JUMPI RETURNDATASIZE PUSH1 0x0 DUP1 RETURNDATACOPY RETURNDATASIZE PUSH1 0x0 REVERT JUMPDEST POP POP POP POP PUSH1 0x40 MLOAD RETURNDATASIZE PUSH1 0x1F NOT PUSH1 0x1F DUP3 ADD AND DUP3 ADD DUP1 PUSH1 0x40 MSTORE POP DUP2 ADD SWAP1 PUSH2 0x5CF SWAP2 SWAP1 PUSH2 0xD96 JUMP JUMPDEST SWAP1 POP DUP1 PUSH1 0x5 SLOAD GT ISZERO PUSH2 0x4B8 JUMPI POP PUSH1 0x1 SWAP4 SWAP3 POP POP POP JUMP JUMPDEST PUSH1 0x0 PUSH1 0x6 SLOAD PUSH1 0xFF AND PUSH1 0x5 DUP2 GT ISZERO PUSH2 0x5FE JUMPI PUSH2 0x5FE PUSH2 0xB3F JUMP JUMPDEST EQ DUP1 PUSH2 0x620 JUMPI POP PUSH1 0x1 PUSH1 0x6 SLOAD PUSH1 0xFF AND PUSH1 0x5 DUP2 GT ISZERO PUSH2 0x61E JUMPI PUSH2 0x61E PUSH2 0xB3F JUMP JUMPDEST EQ JUMPDEST DUP1 PUSH2 0x641 JUMPI POP PUSH1 0x2 PUSH1 0x6 SLOAD PUSH1 0xFF AND PUSH1 0x5 DUP2 GT ISZERO PUSH2 0x63F JUMPI PUSH2 0x63F PUSH2 0xB3F JUMP JUMPDEST EQ JUMPDEST PUSH2 0x666 JUMPI PUSH1 0x40 MLOAD PUSH3 0x461BCD PUSH1 0xE5 SHL DUP2 MSTORE PUSH1 0x4 ADD PUSH2 0x65D SWAP1 PUSH2 0xDAF JUMP JUMPDEST PUSH1 0x40 MLOAD DUP1 SWAP2 SUB SWAP1 REVERT JUMPDEST PUSH2 0x66E PUSH2 0x965 JUMP JUMPDEST ISZERO PUSH2 0x701 JUMPI CALLER PUSH1 0x0 SWAP1 DUP2 MSTORE PUSH1 0x9 PUSH1 0x20 MSTORE PUSH1 0x40 SWAP1 KECCAK256 SLOAD PUSH1 0xFF AND PUSH2 0x6B9 JUMPI CALLER PUSH1 0x0 SWAP1 DUP2 MSTORE PUSH1 0x9 PUSH1 0x20 MSTORE PUSH1 0x40 DUP2 KECCAK256 DUP1 SLOAD PUSH1 0xFF NOT AND PUSH1 0x1 OR SWAP1 SSTORE PUSH1 0x5 DUP1 SLOAD SWAP2 PUSH2 0x6B2 DUP4 PUSH2 0xDF3 JUMP JUMPDEST SWAP2 SWAP1 POP SSTORE POP JUMP JUMPDEST PUSH1 0x40 MLOAD PUSH3 0x461BCD PUSH1 0xE5 SHL DUP2 MSTORE PUSH1 0x20 PUSH1 0x4 DUP3 ADD MSTORE PUSH1 0x1F PUSH1 0x24 DUP3 ADD MSTORE PUSH32 0x5573657220737570706F727473207468697320706F6C6C20616C726561647900 PUSH1 0x44 DUP3 ADD MSTORE PUSH1 0x64 ADD PUSH2 0x65D JUMP JUMPDEST PUSH1 0x40 MLOAD PUSH3 0x461BCD PUSH1 0xE5 SHL DUP2 MSTORE PUSH1 0x20 PUSH1 0x4 DUP3 ADD MSTORE PUSH1 0x28 PUSH1 0x24 DUP3 ADD MSTORE PUSH32 0x55736572206973206E6F7420616C6C6F77656420746F20737570706F72742074 PUSH1 0x44 DUP3 ADD MSTORE PUSH8 0x1A1A5CC81C1BDB1B PUSH1 0xC2 SHL PUSH1 0x64 DUP3 ADD MSTORE PUSH1 0x84 ADD PUSH2 0x65D JUMP JUMPDEST PUSH1 0x7 SLOAD PUSH1 0x40 MLOAD PUSH4 0x191A5F8B PUSH1 0xE2 SHL DUP2 MSTORE PUSH1 0x4 DUP2 ADD DUP4 SWAP1 MSTORE PUSH1 0x1 PUSH1 0x1 PUSH1 0xA0 SHL SUB SWAP1 SWAP2 AND SWAP1 PUSH4 0x64697E2C SWAP1 PUSH1 0x24 ADD PUSH2 0x3CD JUMP JUMPDEST PUSH1 0x0 DUP1 PUSH1 0x0 SWAP1 POP PUSH1 0x0 PUSH1 0x6 PUSH1 0x2 SWAP1 SLOAD SWAP1 PUSH2 0x100 EXP SWAP1 DIV PUSH1 0x1 PUSH1 0x1 PUSH1 0xA0 SHL SUB AND PUSH1 0x1 PUSH1 0x1 PUSH1 0xA0 SHL SUB AND PUSH4 0x22FAA41F PUSH1 0x40 MLOAD DUP2 PUSH4 0xFFFFFFFF AND PUSH1 0xE0 SHL DUP2 MSTORE PUSH1 0x4 ADD PUSH1 0x20 PUSH1 0x40 MLOAD DUP1 DUP4 SUB DUP2 DUP7 GAS STATICCALL ISZERO DUP1 ISZERO PUSH2 0x7E7 JUMPI RETURNDATASIZE PUSH1 0x0 DUP1 RETURNDATACOPY RETURNDATASIZE PUSH1 0x0 REVERT JUMPDEST POP POP POP POP PUSH1 0x40 MLOAD RETURNDATASIZE PUSH1 0x1F NOT PUSH1 0x1F DUP3 ADD AND DUP3 ADD DUP1 PUSH1 0x40 MSTORE POP DUP2 ADD SWAP1 PUSH2 0x80B SWAP2 SWAP1 PUSH2 0xD96 JUMP JUMPDEST PUSH1 0x8 SLOAD PUSH1 0x3 SLOAD SWAP2 SWAP3 POP PUSH1 0x0 SWAP2 PUSH1 0x1 PUSH1 0x1 PUSH1 0xA0 SHL SUB SWAP1 SWAP2 AND SWAP1 PUSH4 0xFD3BAD52 SWAP1 PUSH2 0x568 SWAP1 DUP6 PUSH2 0xD5F JUMP JUMPDEST PUSH1 0x6 SLOAD PUSH1 0x40 MLOAD PUSH4 0x297027D5 PUSH1 0xE0 SHL DUP2 MSTORE CALLER PUSH1 0x4 DUP3 ADD DUP2 SWAP1 MSTORE PUSH1 0x0 SWAP3 SWAP1 SWAP2 PUSH3 0x10000 SWAP1 SWAP2 DIV PUSH1 0x1 PUSH1 0x1 PUSH1 0xA0 SHL SUB AND SWAP1 PUSH4 0x297027D5 SWAP1 PUSH1 0x24 ADD PUSH1 0x20 PUSH1 0x40 MLOAD DUP1 DUP4 SUB DUP2 DUP7 GAS STATICCALL ISZERO DUP1 ISZERO PUSH2 0x887 JUMPI RETURNDATASIZE PUSH1 0x0 DUP1 RETURNDATACOPY RETURNDATASIZE PUSH1 0x0 REVERT JUMPDEST POP POP POP POP PUSH1 0x40 MLOAD RETURNDATASIZE PUSH1 0x1F NOT PUSH1 0x1F DUP3 ADD AND DUP3 ADD DUP1 PUSH1 0x40 MSTORE POP DUP2 ADD SWAP1 PUSH2 0x8AB SWAP2 SWAP1 PUSH2 0xC8A JUMP JUMPDEST DUP1 PUSH2 0x926 JUMPI POP PUSH1 0x6 SLOAD PUSH1 0x40 MLOAD PUSH4 0x7D26BD57 PUSH1 0xE1 SHL DUP2 MSTORE PUSH1 0x1 PUSH1 0x1 PUSH1 0xA0 SHL SUB DUP4 DUP2 AND PUSH1 0x4 DUP4 ADD MSTORE PUSH3 0x10000 SWAP1 SWAP3 DIV SWAP1 SWAP2 AND SWAP1 PUSH4 0xFA4D7AAE SWAP1 PUSH1 0x24 ADD PUSH1 0x20 PUSH1 0x40 MLOAD DUP1 DUP4 SUB DUP2 DUP7 GAS STATICCALL ISZERO DUP1 ISZERO PUSH2 0x902 JUMPI RETURNDATASIZE PUSH1 0x0 DUP1 RETURNDATACOPY RETURNDATASIZE PUSH1 0x0 REVERT JUMPDEST POP POP POP POP PUSH1 0x40 MLOAD RETURNDATASIZE PUSH1 0x1F NOT PUSH1 0x1F DUP3 ADD AND DUP3 ADD DUP1 PUSH1 0x40 MSTORE POP DUP2 ADD SWAP1 PUSH2 0x926 SWAP2 SWAP1 PUSH2 0xC8A JUMP JUMPDEST DUP1 PUSH2 0x31E JUMPI POP PUSH1 0x6 SLOAD PUSH1 0x40 MLOAD PUSH4 0x56909B7 PUSH1 0xE0 SHL DUP2 MSTORE PUSH1 0x1 PUSH1 0x1 PUSH1 0xA0 SHL SUB DUP4 DUP2 AND PUSH1 0x4 DUP4 ADD MSTORE PUSH3 0x10000 SWAP1 SWAP3 DIV SWAP1 SWAP2 AND SWAP1 PUSH4 0x56909B7 SWAP1 PUSH1 0x24 ADD PUSH2 0x2DD JUMP JUMPDEST PUSH1 0x6 SLOAD PUSH1 0x40 MLOAD PUSH4 0x1856FB29 PUSH1 0xE3 SHL DUP2 MSTORE CALLER PUSH1 0x4 DUP3 ADD DUP2 SWAP1 MSTORE PUSH1 0x0 SWAP3 SWAP1 SWAP2 PUSH3 0x10000 SWAP1 SWAP2 DIV PUSH1 0x1 PUSH1 0x1 PUSH1 0xA0 SHL SUB AND SWAP1 PUSH4 0xC2B7D948 SWAP1 PUSH1 0x24 ADD PUSH2 0x2DD JUMP JUMPDEST PUSH1 0x0 PUSH1 0x6 SLOAD PUSH1 0xFF AND PUSH1 0x5 DUP2 GT ISZERO PUSH2 0x9BA JUMPI PUSH2 0x9BA PUSH2 0xB3F JUMP JUMPDEST EQ DUP1 PUSH2 0x9DC JUMPI POP PUSH1 0x1 PUSH1 0x6 SLOAD PUSH1 0xFF AND PUSH1 0x5 DUP2 GT ISZERO PUSH2 0x9DA JUMPI PUSH2 0x9DA PUSH2 0xB3F JUMP JUMPDEST EQ JUMPDEST DUP1 PUSH2 0x9FD JUMPI POP PUSH1 0x2 PUSH1 0x6 SLOAD PUSH1 0xFF AND PUSH1 0x5 DUP2 GT ISZERO PUSH2 0x9FB JUMPI PUSH2 0x9FB PUSH2 0xB3F JUMP JUMPDEST EQ JUMPDEST PUSH2 0xA19 JUMPI PUSH1 0x40 MLOAD PUSH3 0x461BCD PUSH1 0xE5 SHL DUP2 MSTORE PUSH1 0x4 ADD PUSH2 0x65D SWAP1 PUSH2 0xDAF JUMP JUMPDEST CALLER PUSH1 0x0 SWAP1 DUP2 MSTORE PUSH1 0x9 PUSH1 0x20 MSTORE PUSH1 0x40 SWAP1 KECCAK256 SLOAD PUSH1 0xFF AND ISZERO ISZERO PUSH1 0x1 EQ ISZERO PUSH2 0xA5B JUMPI CALLER PUSH1 0x0 SWAP1 DUP2 MSTORE PUSH1 0x9 PUSH1 0x20 MSTORE PUSH1 0x40 DUP2 KECCAK256 DUP1 SLOAD PUSH1 0xFF NOT AND SWAP1 SSTORE PUSH1 0x5 DUP1 SLOAD SWAP2 PUSH2 0x6B2 DUP4 PUSH2 0xE0E JUMP JUMPDEST PUSH1 0x40 MLOAD PUSH3 0x461BCD PUSH1 0xE5 SHL DUP2 MSTORE PUSH1 0x20 PUSH1 0x4 DUP3 ADD MSTORE PUSH1 0x1E PUSH1 0x24 DUP3 ADD MSTORE PUSH32 0x5573657220646964206E6F7420737570706F7274207468697320706F6C6C0000 PUSH1 0x44 DUP3 ADD MSTORE PUSH1 0x64 ADD PUSH2 0x65D JUMP JUMPDEST PUSH1 0x1 SLOAD PUSH1 0x0 SWAP1 DUP2 SWAP1 TIMESTAMP SWAP1 DUP3 SWAP1 PUSH2 0x428 SWAP1 PUSH3 0x15180 PUSH2 0xD5F JUMP JUMPDEST PUSH1 0x7 PUSH1 0x0 SWAP1 SLOAD SWAP1 PUSH2 0x100 EXP SWAP1 DIV PUSH1 0x1 PUSH1 0x1 PUSH1 0xA0 SHL SUB AND PUSH1 0x1 PUSH1 0x1 PUSH1 0xA0 SHL SUB AND PUSH4 0xD9F3A5C1 PUSH1 0x40 MLOAD DUP2 PUSH4 0xFFFFFFFF AND PUSH1 0xE0 SHL DUP2 MSTORE PUSH1 0x4 ADD PUSH1 0x0 PUSH1 0x40 MLOAD DUP1 DUP4 SUB DUP2 PUSH1 0x0 DUP8 DUP1 EXTCODESIZE ISZERO DUP1 ISZERO PUSH2 0xB0C JUMPI PUSH1 0x0 DUP1 REVERT JUMPDEST POP GAS CALL ISZERO DUP1 ISZERO PUSH2 0xB20 JUMPI RETURNDATASIZE PUSH1 0x0 DUP1 RETURNDATACOPY RETURNDATASIZE PUSH1 0x0 REVERT JUMPDEST POP POP POP POP JUMP JUMPDEST PUSH1 0x0 PUSH1 0x20 DUP3 DUP5 SUB SLT ISZERO PUSH2 0xB38 JUMPI PUSH1 0x0 DUP1 REVERT JUMPDEST POP CALLDATALOAD SWAP2 SWAP1 POP JUMP JUMPDEST PUSH4 0x4E487B71 PUSH1 0xE0 SHL PUSH1 0x0 MSTORE PUSH1 0x21 PUSH1 0x4 MSTORE PUSH1 0x24 PUSH1 0x0 REVERT JUMPDEST PUSH1 0x20 DUP2 ADD PUSH1 0x4 DUP4 LT PUSH2 0xB69 JUMPI PUSH2 0xB69 PUSH2 0xB3F JUMP JUMPDEST SWAP2 SWAP1 MSTORE SWAP1 JUMP JUMPDEST PUSH4 0x4E487B71 PUSH1 0xE0 SHL PUSH1 0x0 MSTORE PUSH1 0x41 PUSH1 0x4 MSTORE PUSH1 0x24 PUSH1 0x0 REVERT JUMPDEST PUSH1 0x0 DUP3 PUSH1 0x1F DUP4 ADD SLT PUSH2 0xB96 JUMPI PUSH1 0x0 DUP1 REVERT JUMPDEST DUP2 CALLDATALOAD PUSH8 0xFFFFFFFFFFFFFFFF DUP1 DUP3 GT ISZERO PUSH2 0xBB1 JUMPI PUSH2 0xBB1 PUSH2 0xB6F JUMP JUMPDEST PUSH1 0x40 MLOAD PUSH1 0x1F DUP4 ADD PUSH1 0x1F NOT SWAP1 DUP2 AND PUSH1 0x3F ADD AND DUP2 ADD SWAP1 DUP3 DUP3 GT DUP2 DUP4 LT OR ISZERO PUSH2 0xBD9 JUMPI PUSH2 0xBD9 PUSH2 0xB6F JUMP JUMPDEST DUP2 PUSH1 0x40 MSTORE DUP4 DUP2 MSTORE DUP7 PUSH1 0x20 DUP6 DUP9 ADD ADD GT ISZERO PUSH2 0xBF2 JUMPI PUSH1 0x0 DUP1 REVERT JUMPDEST DUP4 PUSH1 0x20 DUP8 ADD PUSH1 0x20 DUP4 ADD CALLDATACOPY PUSH1 0x0 PUSH1 0x20 DUP6 DUP4 ADD ADD MSTORE DUP1 SWAP5 POP POP POP POP POP SWAP3 SWAP2 POP POP JUMP JUMPDEST PUSH1 0x0 DUP1 PUSH1 0x40 DUP4 DUP6 SUB SLT ISZERO PUSH2 0xC25 JUMPI PUSH1 0x0 DUP1 REVERT JUMPDEST DUP3 CALLDATALOAD PUSH8 0xFFFFFFFFFFFFFFFF DUP1 DUP3 GT ISZERO PUSH2 0xC3D JUMPI PUSH1 0x0 DUP1 REVERT JUMPDEST PUSH2 0xC49 DUP7 DUP4 DUP8 ADD PUSH2 0xB85 JUMP JUMPDEST SWAP4 POP PUSH1 0x20 DUP6 ADD CALLDATALOAD SWAP2 POP DUP1 DUP3 GT ISZERO PUSH2 0xC5F JUMPI PUSH1 0x0 DUP1 REVERT JUMPDEST POP PUSH2 0xC6C DUP6 DUP3 DUP7 ADD PUSH2 0xB85 JUMP JUMPDEST SWAP2 POP POP SWAP3 POP SWAP3 SWAP1 POP JUMP JUMPDEST PUSH1 0x20 DUP2 ADD PUSH1 0x6 DUP4 LT PUSH2 0xB69 JUMPI PUSH2 0xB69 PUSH2 0xB3F JUMP JUMPDEST PUSH1 0x0 PUSH1 0x20 DUP3 DUP5 SUB SLT ISZERO PUSH2 0xC9C JUMPI PUSH1 0x0 DUP1 REVERT JUMPDEST DUP2 MLOAD DUP1 ISZERO ISZERO DUP2 EQ PUSH2 0xCAC JUMPI PUSH1 0x0 DUP1 REVERT JUMPDEST SWAP4 SWAP3 POP POP POP JUMP JUMPDEST PUSH1 0x0 DUP2 MLOAD DUP1 DUP5 MSTORE PUSH1 0x0 JUMPDEST DUP2 DUP2 LT ISZERO PUSH2 0xCD9 JUMPI PUSH1 0x20 DUP2 DUP6 ADD DUP2 ADD MLOAD DUP7 DUP4 ADD DUP3 ADD MSTORE ADD PUSH2 0xCBD JUMP JUMPDEST DUP2 DUP2 GT ISZERO PUSH2 0xCEB JUMPI PUSH1 0x0 PUSH1 0x20 DUP4 DUP8 ADD ADD MSTORE JUMPDEST POP PUSH1 0x1F ADD PUSH1 0x1F NOT AND SWAP3 SWAP1 SWAP3 ADD PUSH1 0x20 ADD SWAP3 SWAP2 POP POP JUMP JUMPDEST PUSH1 0x1 PUSH1 0x1 PUSH1 0xA0 SHL SUB DUP6 AND DUP2 MSTORE DUP4 ISZERO ISZERO PUSH1 0x20 DUP3 ADD MSTORE PUSH1 0x80 PUSH1 0x40 DUP3 ADD DUP2 SWAP1 MSTORE PUSH1 0x0 SWAP1 PUSH2 0xD2C SWAP1 DUP4 ADD DUP6 PUSH2 0xCB3 JUMP JUMPDEST DUP3 DUP2 SUB PUSH1 0x60 DUP5 ADD MSTORE PUSH2 0xD3E DUP2 DUP6 PUSH2 0xCB3 JUMP JUMPDEST SWAP8 SWAP7 POP POP POP POP POP POP POP JUMP JUMPDEST PUSH4 0x4E487B71 PUSH1 0xE0 SHL PUSH1 0x0 MSTORE PUSH1 0x11 PUSH1 0x4 MSTORE PUSH1 0x24 PUSH1 0x0 REVERT JUMPDEST PUSH1 0x0 DUP2 PUSH1 0x0 NOT DIV DUP4 GT DUP3 ISZERO ISZERO AND ISZERO PUSH2 0xD79 JUMPI PUSH2 0xD79 PUSH2 0xD49 JUMP JUMPDEST POP MUL SWAP1 JUMP JUMPDEST PUSH1 0x0 DUP3 NOT DUP3 GT ISZERO PUSH2 0xD91 JUMPI PUSH2 0xD91 PUSH2 0xD49 JUMP JUMPDEST POP ADD SWAP1 JUMP JUMPDEST PUSH1 0x0 PUSH1 0x20 DUP3 DUP5 SUB SLT ISZERO PUSH2 0xDA8 JUMPI PUSH1 0x0 DUP1 REVERT JUMPDEST POP MLOAD SWAP2 SWAP1 POP JUMP JUMPDEST PUSH1 0x20 DUP1 DUP3 MSTORE PUSH1 0x24 SWAP1 DUP3 ADD MSTORE PUSH32 0x54686520706F6C6C206D75737420626520696E20616E20616374697665207374 PUSH1 0x40 DUP3 ADD MSTORE PUSH4 0x30BA3297 PUSH1 0xE1 SHL PUSH1 0x60 DUP3 ADD MSTORE PUSH1 0x80 ADD SWAP1 JUMP JUMPDEST PUSH1 0x0 PUSH1 0x0 NOT DUP3 EQ ISZERO PUSH2 0xE07 JUMPI PUSH2 0xE07 PUSH2 0xD49 JUMP JUMPDEST POP PUSH1 0x1 ADD SWAP1 JUMP JUMPDEST PUSH1 0x0 DUP2 PUSH2 0xE1D JUMPI PUSH2 0xE1D PUSH2 0xD49 JUMP JUMPDEST POP PUSH1 0x0 NOT ADD SWAP1 JUMP INVALID LOG2 PUSH5 0x6970667358 0x22 SLT KECCAK256 EXTCODEHASH JUMP SELFBALANCE DUP11 0xDC 0xE0 DUP4 RETURNDATACOPY CALL 0xE4 0xC4 CALLDATALOAD SWAP5 0x21 0x4E PUSH31 0x4DF3C72010E350505BE1DB69DDCC1F0364736F6C634300080C003360806040 MSTORE CALLVALUE DUP1 ISZERO PUSH3 0x11 JUMPI PUSH1 0x0 DUP1 REVERT JUMPDEST POP PUSH1 0x40 MLOAD PUSH3 0x25BC CODESIZE SUB DUP1 PUSH3 0x25BC DUP4 CODECOPY DUP2 ADD PUSH1 0x40 DUP2 SWAP1 MSTORE PUSH3 0x34 SWAP2 PUSH3 0x4AB JUMP JUMPDEST PUSH1 0x40 MLOAD PUSH3 0x42 SWAP1 PUSH3 0x2AF JUMP JUMPDEST PUSH1 0x40 MLOAD DUP1 SWAP2 SUB SWAP1 PUSH1 0x0 CREATE DUP1 ISZERO DUP1 ISZERO PUSH3 0x5F JUMPI RETURNDATASIZE PUSH1 0x0 DUP1 RETURNDATACOPY RETURNDATASIZE PUSH1 0x0 REVERT JUMPDEST POP PUSH1 0x9 DUP1 SLOAD PUSH1 0x1 PUSH1 0x1 PUSH1 0xA0 SHL SUB NOT AND PUSH1 0x1 PUSH1 0x1 PUSH1 0xA0 SHL SUB SWAP3 SWAP1 SWAP3 AND SWAP2 SWAP1 SWAP2 OR SWAP1 SSTORE PUSH3 0x8D DUP4 DUP4 DUP4 PUSH3 0x97 JUMP JUMPDEST POP POP POP POP PUSH3 0x6A9 JUMP JUMPDEST PUSH1 0x9 SLOAD PUSH1 0x40 DUP1 MLOAD PUSH4 0x3BF1B063 PUSH1 0xE2 SHL DUP2 MSTORE SWAP1 MLOAD PUSH1 0x0 SWAP3 PUSH1 0x1 PUSH1 0x1 PUSH1 0xA0 SHL SUB AND SWAP2 PUSH4 0xEFC6C18C SWAP2 PUSH1 0x4 DUP1 DUP4 ADD SWAP3 PUSH1 0x20 SWAP3 SWAP2 SWAP1 DUP3 SWAP1 SUB ADD DUP2 DUP7 GAS STATICCALL ISZERO DUP1 ISZERO PUSH3 0xE2 JUMPI RETURNDATASIZE PUSH1 0x0 DUP1 RETURNDATACOPY RETURNDATASIZE PUSH1 0x0 REVERT JUMPDEST POP POP POP POP PUSH1 0x40 MLOAD RETURNDATASIZE PUSH1 0x1F NOT PUSH1 0x1F DUP3 ADD AND DUP3 ADD DUP1 PUSH1 0x40 MSTORE POP DUP2 ADD SWAP1 PUSH3 0x108 SWAP2 SWAP1 PUSH3 0x5C4 JUMP JUMPDEST PUSH1 0x0 SSTORE DUP3 MLOAD PUSH3 0x120 SWAP1 PUSH1 0x2 SWAP1 PUSH1 0x20 DUP7 ADD SWAP1 PUSH3 0x2BD JUMP JUMPDEST POP DUP2 MLOAD PUSH3 0x136 SWAP1 PUSH1 0x3 SWAP1 PUSH1 0x20 DUP6 ADD SWAP1 PUSH3 0x2BD JUMP JUMPDEST POP TIMESTAMP PUSH1 0x4 SSTORE DUP4 MLOAD PUSH3 0x150 SWAP1 PUSH1 0x1 SWAP1 PUSH1 0x20 DUP8 ADD SWAP1 PUSH3 0x34C JUMP JUMPDEST POP PUSH1 0x7 DUP1 SLOAD PUSH1 0xFF NOT AND SWAP1 SSTORE PUSH1 0x40 DUP1 MLOAD DUP1 DUP3 ADD SWAP1 SWAP2 MSTORE PUSH1 0xD DUP2 MSTORE PUSH13 0x506F6C6C206372656174656421 PUSH1 0x98 SHL PUSH1 0x20 DUP3 ADD MSTORE PUSH3 0x18D SWAP1 PUSH1 0x1 SWAP1 PUSH3 0x198 JUMP JUMPDEST POP PUSH1 0x0 SLOAD SWAP4 SWAP3 POP POP POP JUMP JUMPDEST DUP2 PUSH1 0x3 DUP2 GT ISZERO PUSH3 0x1AD JUMPI PUSH3 0x1AD PUSH3 0x5DE JUMP JUMPDEST PUSH1 0x7 SLOAD PUSH1 0xFF AND PUSH1 0x3 DUP2 GT ISZERO PUSH3 0x1C7 JUMPI PUSH3 0x1C7 PUSH3 0x5DE JUMP JUMPDEST EQ PUSH3 0x23D JUMPI PUSH1 0x7 SLOAD PUSH1 0x40 MLOAD CALLER SWAP2 PUSH32 0xFC6F5E211098B443015CCB625104A41F61E97A80DD9B8734242A9A8C3EECC8DC SWAP2 PUSH3 0x20A SWAP2 PUSH1 0xFF AND SWAP1 DUP7 SWAP1 DUP7 SWAP1 PUSH3 0x617 JUMP JUMPDEST PUSH1 0x40 MLOAD DUP1 SWAP2 SUB SWAP1 LOG2 PUSH1 0x7 DUP1 SLOAD DUP4 SWAP2 SWAP1 PUSH1 0xFF NOT AND PUSH1 0x1 DUP4 PUSH1 0x3 DUP2 GT ISZERO PUSH3 0x234 JUMPI PUSH3 0x234 PUSH3 0x5DE JUMP JUMPDEST MUL OR SWAP1 SSTORE POP POP POP JUMP JUMPDEST PUSH1 0x40 MLOAD PUSH3 0x461BCD PUSH1 0xE5 SHL DUP2 MSTORE PUSH1 0x20 PUSH1 0x4 DUP3 ADD MSTORE PUSH1 0x36 PUSH1 0x24 DUP3 ADD MSTORE PUSH32 0x5374617465206E6F74206368616E6765642E204E657720737461746520697320 PUSH1 0x44 DUP3 ADD MSTORE PUSH32 0x7468652073616D65206173206F6C642073746174652100000000000000000000 PUSH1 0x64 DUP3 ADD MSTORE PUSH1 0x84 ADD PUSH1 0x40 MLOAD DUP1 SWAP2 SUB SWAP1 REVERT JUMPDEST PUSH2 0x744 DUP1 PUSH3 0x1E78 DUP4 CODECOPY ADD SWAP1 JUMP JUMPDEST DUP3 DUP1 SLOAD PUSH3 0x2CB SWAP1 PUSH3 0x66C JUMP JUMPDEST SWAP1 PUSH1 0x0 MSTORE PUSH1 0x20 PUSH1 0x0 KECCAK256 SWAP1 PUSH1 0x1F ADD PUSH1 0x20 SWAP1 DIV DUP2 ADD SWAP3 DUP3 PUSH3 0x2EF JUMPI PUSH1 0x0 DUP6 SSTORE PUSH3 0x33A JUMP JUMPDEST DUP3 PUSH1 0x1F LT PUSH3 0x30A JUMPI DUP1 MLOAD PUSH1 0xFF NOT AND DUP4 DUP1 ADD OR DUP6 SSTORE PUSH3 0x33A JUMP JUMPDEST DUP3 DUP1 ADD PUSH1 0x1 ADD DUP6 SSTORE DUP3 ISZERO PUSH3 0x33A JUMPI SWAP2 DUP3 ADD JUMPDEST DUP3 DUP2 GT ISZERO PUSH3 0x33A JUMPI DUP3 MLOAD DUP3 SSTORE SWAP2 PUSH1 0x20 ADD SWAP2 SWAP1 PUSH1 0x1 ADD SWAP1 PUSH3 0x31D JUMP JUMPDEST POP PUSH3 0x348 SWAP3 SWAP2 POP PUSH3 0x3A4 JUMP JUMPDEST POP SWAP1 JUMP JUMPDEST DUP3 DUP1 SLOAD DUP3 DUP3 SSTORE SWAP1 PUSH1 0x0 MSTORE PUSH1 0x20 PUSH1 0x0 KECCAK256 SWAP1 DUP2 ADD SWAP3 DUP3 ISZERO PUSH3 0x33A JUMPI SWAP2 PUSH1 0x20 MUL DUP3 ADD JUMPDEST DUP3 DUP2 GT ISZERO PUSH3 0x33A JUMPI DUP3 MLOAD DUP3 SLOAD PUSH1 0x1 PUSH1 0x1 PUSH1 0xA0 SHL SUB NOT AND PUSH1 0x1 PUSH1 0x1 PUSH1 0xA0 SHL SUB SWAP1 SWAP2 AND OR DUP3 SSTORE PUSH1 0x20 SWAP1 SWAP3 ADD SWAP2 PUSH1 0x1 SWAP1 SWAP2 ADD SWAP1 PUSH3 0x36D JUMP JUMPDEST JUMPDEST DUP1 DUP3 GT ISZERO PUSH3 0x348 JUMPI PUSH1 0x0 DUP2 SSTORE PUSH1 0x1 ADD PUSH3 0x3A5 JUMP JUMPDEST PUSH4 0x4E487B71 PUSH1 0xE0 SHL PUSH1 0x0 MSTORE PUSH1 0x41 PUSH1 0x4 MSTORE PUSH1 0x24 PUSH1 0x0 REVERT JUMPDEST PUSH1 0x40 MLOAD PUSH1 0x1F DUP3 ADD PUSH1 0x1F NOT AND DUP2 ADD PUSH1 0x1 PUSH1 0x1 PUSH1 0x40 SHL SUB DUP2 GT DUP3 DUP3 LT OR ISZERO PUSH3 0x3FC JUMPI PUSH3 0x3FC PUSH3 0x3BB JUMP JUMPDEST PUSH1 0x40 MSTORE SWAP2 SWAP1 POP JUMP JUMPDEST PUSH1 0x0 JUMPDEST DUP4 DUP2 LT ISZERO PUSH3 0x421 JUMPI DUP2 DUP2 ADD MLOAD DUP4 DUP3 ADD MSTORE PUSH1 0x20 ADD PUSH3 0x407 JUMP JUMPDEST DUP4 DUP2 GT ISZERO PUSH3 0x431 JUMPI PUSH1 0x0 DUP5 DUP5 ADD MSTORE JUMPDEST POP POP POP POP JUMP JUMPDEST PUSH1 0x0 DUP3 PUSH1 0x1F DUP4 ADD SLT PUSH3 0x449 JUMPI PUSH1 0x0 DUP1 REVERT JUMPDEST DUP2 MLOAD PUSH1 0x1 PUSH1 0x1 PUSH1 0x40 SHL SUB DUP2 GT ISZERO PUSH3 0x465 JUMPI PUSH3 0x465 PUSH3 0x3BB JUMP JUMPDEST PUSH3 0x47A PUSH1 0x1F DUP3 ADD PUSH1 0x1F NOT AND PUSH1 0x20 ADD PUSH3 0x3D1 JUMP JUMPDEST DUP2 DUP2 MSTORE DUP5 PUSH1 0x20 DUP4 DUP7 ADD ADD GT ISZERO PUSH3 0x490 JUMPI PUSH1 0x0 DUP1 REVERT JUMPDEST PUSH3 0x4A3 DUP3 PUSH1 0x20 DUP4 ADD PUSH1 0x20 DUP8 ADD PUSH3 0x404 JUMP JUMPDEST SWAP5 SWAP4 POP POP POP POP JUMP JUMPDEST PUSH1 0x0 DUP1 PUSH1 0x0 PUSH1 0x60 DUP5 DUP7 SUB SLT ISZERO PUSH3 0x4C1 JUMPI PUSH1 0x0 DUP1 REVERT JUMPDEST DUP4 MLOAD PUSH1 0x1 PUSH1 0x1 PUSH1 0x40 SHL SUB DUP1 DUP3 GT ISZERO PUSH3 0x4D9 JUMPI PUSH1 0x0 DUP1 REVERT JUMPDEST DUP2 DUP7 ADD SWAP2 POP DUP7 PUSH1 0x1F DUP4 ADD SLT PUSH3 0x4EE JUMPI PUSH1 0x0 DUP1 REVERT JUMPDEST DUP2 MLOAD PUSH1 0x20 DUP3 DUP3 GT ISZERO PUSH3 0x505 JUMPI PUSH3 0x505 PUSH3 0x3BB JUMP JUMPDEST DUP2 PUSH1 0x5 SHL PUSH3 0x516 DUP3 DUP3 ADD PUSH3 0x3D1 JUMP JUMPDEST SWAP3 DUP4 MSTORE DUP5 DUP2 ADD DUP3 ADD SWAP3 DUP3 DUP2 ADD SWAP1 DUP12 DUP6 GT ISZERO PUSH3 0x531 JUMPI PUSH1 0x0 DUP1 REVERT JUMPDEST SWAP6 DUP4 ADD SWAP6 JUMPDEST DUP5 DUP8 LT ISZERO PUSH3 0x56B JUMPI DUP7 MLOAD SWAP3 POP PUSH1 0x1 PUSH1 0x1 PUSH1 0xA0 SHL SUB DUP4 AND DUP4 EQ PUSH3 0x55A JUMPI PUSH1 0x0 DUP1 DUP2 REVERT JUMPDEST DUP3 DUP3 MSTORE SWAP6 DUP4 ADD SWAP6 SWAP1 DUP4 ADD SWAP1 PUSH3 0x536 JUMP JUMPDEST SWAP3 DUP11 ADD MLOAD SWAP3 SWAP9 POP SWAP2 SWAP5 POP POP POP POP DUP1 DUP3 GT ISZERO PUSH3 0x586 JUMPI PUSH1 0x0 DUP1 REVERT JUMPDEST PUSH3 0x594 DUP8 DUP4 DUP9 ADD PUSH3 0x437 JUMP JUMPDEST SWAP4 POP PUSH1 0x40 DUP7 ADD MLOAD SWAP2 POP DUP1 DUP3 GT ISZERO PUSH3 0x5AB JUMPI PUSH1 0x0 DUP1 REVERT JUMPDEST POP PUSH3 0x5BA DUP7 DUP3 DUP8 ADD PUSH3 0x437 JUMP JUMPDEST SWAP2 POP POP SWAP3 POP SWAP3 POP SWAP3 JUMP JUMPDEST PUSH1 0x0 PUSH1 0x20 DUP3 DUP5 SUB SLT ISZERO PUSH3 0x5D7 JUMPI PUSH1 0x0 DUP1 REVERT JUMPDEST POP MLOAD SWAP2 SWAP1 POP JUMP JUMPDEST PUSH4 0x4E487B71 PUSH1 0xE0 SHL PUSH1 0x0 MSTORE PUSH1 0x21 PUSH1 0x4 MSTORE PUSH1 0x24 PUSH1 0x0 REVERT JUMPDEST PUSH1 0x4 DUP2 LT PUSH3 0x613 JUMPI PUSH4 0x4E487B71 PUSH1 0xE0 SHL PUSH1 0x0 MSTORE PUSH1 0x21 PUSH1 0x4 MSTORE PUSH1 0x24 PUSH1 0x0 REVERT JUMPDEST SWAP1 MSTORE JUMP JUMPDEST PUSH3 0x623 DUP2 DUP6 PUSH3 0x5F4 JUMP JUMPDEST PUSH3 0x632 PUSH1 0x20 DUP3 ADD DUP5 PUSH3 0x5F4 JUMP JUMPDEST PUSH1 0x60 PUSH1 0x40 DUP3 ADD MSTORE PUSH1 0x0 DUP3 MLOAD DUP1 PUSH1 0x60 DUP5 ADD MSTORE PUSH3 0x656 DUP2 PUSH1 0x80 DUP6 ADD PUSH1 0x20 DUP8 ADD PUSH3 0x404 JUMP JUMPDEST PUSH1 0x1F ADD PUSH1 0x1F NOT AND SWAP2 SWAP1 SWAP2 ADD PUSH1 0x80 ADD SWAP5 SWAP4 POP POP POP POP JUMP JUMPDEST PUSH1 0x1 DUP2 DUP2 SHR SWAP1 DUP3 AND DUP1 PUSH3 0x681 JUMPI PUSH1 0x7F DUP3 AND SWAP2 POP JUMPDEST PUSH1 0x20 DUP3 LT DUP2 EQ ISZERO PUSH3 0x6A3 JUMPI PUSH4 0x4E487B71 PUSH1 0xE0 SHL PUSH1 0x0 MSTORE PUSH1 0x22 PUSH1 0x4 MSTORE PUSH1 0x24 PUSH1 0x0 REVERT JUMPDEST POP SWAP2 SWAP1 POP JUMP JUMPDEST PUSH2 0x17BF DUP1 PUSH3 0x6B9 PUSH1 0x0 CODECOPY PUSH1 0x0 RETURN INVALID PUSH1 0x80 PUSH1 0x40 MSTORE CALLVALUE DUP1 ISZERO PUSH2 0x10 JUMPI PUSH1 0x0 DUP1 REVERT JUMPDEST POP PUSH1 0x4 CALLDATASIZE LT PUSH2 0x14D JUMPI PUSH1 0x0 CALLDATALOAD PUSH1 0xE0 SHR DUP1 PUSH4 0x64697E2C GT PUSH2 0xC3 JUMPI DUP1 PUSH4 0xC19D93FB GT PUSH2 0x7C JUMPI DUP1 PUSH4 0xC19D93FB EQ PUSH2 0x25E JUMPI DUP1 PUSH4 0xCC2EE196 EQ PUSH2 0x278 JUMPI DUP1 PUSH4 0xD9F3A5C1 EQ PUSH2 0x28D JUMPI DUP1 PUSH4 0xDDD7531B EQ PUSH2 0x295 JUMPI DUP1 PUSH4 0xE0A96CD6 EQ PUSH2 0x2A8 JUMPI DUP1 PUSH4 0xFF3C1A8F EQ PUSH2 0x2CD JUMPI PUSH1 0x0 DUP1 REVERT JUMPDEST DUP1 PUSH4 0x64697E2C EQ PUSH2 0x21F JUMPI DUP1 PUSH4 0x7284E416 EQ PUSH2 0x232 JUMPI DUP1 PUSH4 0xA6BD5427 EQ PUSH2 0x18C JUMPI DUP1 PUSH4 0xA89A0862 EQ PUSH2 0x23A JUMPI DUP1 PUSH4 0xAF640D0F EQ PUSH2 0x24D JUMPI DUP1 PUSH4 0xB90C1DBB EQ PUSH2 0x256 JUMPI PUSH1 0x0 DUP1 REVERT JUMPDEST DUP1 PUSH4 0x409E2205 GT PUSH2 0x115 JUMPI DUP1 PUSH4 0x409E2205 EQ PUSH2 0x1BB JUMPI DUP1 PUSH4 0x42169E48 EQ PUSH2 0x1E1 JUMPI DUP1 PUSH4 0x4A79D50C EQ PUSH2 0x1EA JUMPI DUP1 PUSH4 0x4F4A3115 EQ PUSH2 0x1F2 JUMPI DUP1 PUSH4 0x517B7042 EQ PUSH2 0x205 JUMPI DUP1 PUSH4 0x62A5AF3B EQ PUSH2 0x217 JUMPI PUSH1 0x0 DUP1 REVERT JUMPDEST DUP1 PUSH4 0x25E7C27 EQ PUSH2 0x152 JUMPI DUP1 PUSH4 0xF15F4C0 EQ PUSH2 0x182 JUMPI DUP1 PUSH4 0x11174A29 EQ PUSH2 0x18C JUMPI DUP1 PUSH4 0x1A092541 EQ PUSH2 0x19E JUMPI DUP1 PUSH4 0x2F2770DB EQ PUSH2 0x1B3 JUMPI JUMPDEST PUSH1 0x0 DUP1 REVERT JUMPDEST PUSH2 0x165 PUSH2 0x160 CALLDATASIZE PUSH1 0x4 PUSH2 0x11CA JUMP JUMPDEST PUSH2 0x2D5 JUMP JUMPDEST PUSH1 0x40 MLOAD PUSH1 0x1 PUSH1 0x1 PUSH1 0xA0 SHL SUB SWAP1 SWAP2 AND DUP2 MSTORE PUSH1 0x20 ADD JUMPDEST PUSH1 0x40 MLOAD DUP1 SWAP2 SUB SWAP1 RETURN JUMPDEST PUSH2 0x18A PUSH2 0x2FF JUMP JUMPDEST STOP JUMPDEST PUSH1 0x6 SLOAD JUMPDEST PUSH1 0x40 MLOAD SWAP1 DUP2 MSTORE PUSH1 0x20 ADD PUSH2 0x179 JUMP JUMPDEST PUSH2 0x1A6 PUSH2 0x3B9 JUMP JUMPDEST PUSH1 0x40 MLOAD PUSH2 0x179 SWAP2 SWAP1 PUSH2 0x1230 JUMP JUMPDEST PUSH2 0x18A PUSH2 0x44B JUMP JUMPDEST PUSH2 0x1CE PUSH2 0x1C9 CALLDATASIZE PUSH1 0x4 PUSH2 0x11CA JUMP JUMPDEST PUSH2 0x4F8 JUMP JUMPDEST PUSH1 0x40 MLOAD PUSH2 0x179 SWAP8 SWAP7 SWAP6 SWAP5 SWAP4 SWAP3 SWAP2 SWAP1 PUSH2 0x124A JUMP JUMPDEST PUSH2 0x190 PUSH1 0x6 SLOAD DUP2 JUMP JUMPDEST PUSH2 0x1A6 PUSH2 0x66A JUMP JUMPDEST PUSH2 0x18A PUSH2 0x200 CALLDATASIZE PUSH1 0x4 PUSH2 0x11CA JUMP JUMPDEST PUSH2 0x6F8 JUMP JUMPDEST PUSH2 0x190 PUSH2 0x213 CALLDATASIZE PUSH1 0x4 PUSH2 0x13A3 JUMP JUMPDEST MLOAD SWAP1 JUMP JUMPDEST PUSH2 0x18A PUSH2 0x7B9 JUMP JUMPDEST PUSH2 0x18A PUSH2 0x22D CALLDATASIZE PUSH1 0x4 PUSH2 0x11CA JUMP JUMPDEST PUSH2 0x864 JUMP JUMPDEST PUSH2 0x1A6 PUSH2 0x9F2 JUMP JUMPDEST PUSH2 0x18A PUSH2 0x248 CALLDATASIZE PUSH1 0x4 PUSH2 0x147E JUMP JUMPDEST PUSH2 0x9FF JUMP JUMPDEST PUSH2 0x190 PUSH1 0x0 SLOAD DUP2 JUMP JUMPDEST PUSH1 0x4 SLOAD PUSH2 0x190 JUMP JUMPDEST PUSH1 0x7 SLOAD PUSH2 0x26B SWAP1 PUSH1 0xFF AND DUP2 JUMP JUMPDEST PUSH1 0x40 MLOAD PUSH2 0x179 SWAP2 SWAP1 PUSH2 0x153B JUMP JUMPDEST PUSH2 0x280 PUSH2 0xC3C JUMP JUMPDEST PUSH1 0x40 MLOAD PUSH2 0x179 SWAP2 SWAP1 PUSH2 0x154F JUMP JUMPDEST PUSH2 0x18A PUSH2 0xE0E JUMP JUMPDEST PUSH2 0x18A PUSH2 0x2A3 CALLDATASIZE PUSH1 0x4 PUSH2 0x11CA JUMP JUMPDEST PUSH2 0xF4D JUMP JUMPDEST PUSH2 0x2BD PUSH2 0x2B6 CALLDATASIZE PUSH1 0x4 PUSH2 0x13A3 JUMP JUMPDEST PUSH1 0x60 ADD MLOAD SWAP1 JUMP JUMPDEST PUSH1 0x40 MLOAD SWAP1 ISZERO ISZERO DUP2 MSTORE PUSH1 0x20 ADD PUSH2 0x179 JUMP JUMPDEST PUSH2 0x1A6 PUSH2 0xFAD JUMP JUMPDEST PUSH1 0x1 DUP2 DUP2 SLOAD DUP2 LT PUSH2 0x2E5 JUMPI PUSH1 0x0 DUP1 REVERT JUMPDEST PUSH1 0x0 SWAP2 DUP3 MSTORE PUSH1 0x20 SWAP1 SWAP2 KECCAK256 ADD SLOAD PUSH1 0x1 PUSH1 0x1 PUSH1 0xA0 SHL SUB AND SWAP1 POP DUP2 JUMP JUMPDEST PUSH1 0x1 PUSH1 0x0 JUMPDEST PUSH1 0x1 SLOAD DUP2 LT ISZERO PUSH2 0x358 JUMPI PUSH1 0x1 DUP2 DUP2 SLOAD DUP2 LT PUSH2 0x321 JUMPI PUSH2 0x321 PUSH2 0x161C JUMP JUMPDEST PUSH1 0x0 SWAP2 DUP3 MSTORE PUSH1 0x20 SWAP1 SWAP2 KECCAK256 ADD SLOAD PUSH1 0x1 PUSH1 0x1 PUSH1 0xA0 SHL SUB AND CALLER EQ ISZERO PUSH2 0x346 JUMPI PUSH1 0x1 SWAP2 POP PUSH2 0x358 JUMP JUMPDEST DUP1 PUSH2 0x350 DUP2 PUSH2 0x1648 JUMP JUMPDEST SWAP2 POP POP PUSH2 0x304 JUMP JUMPDEST POP PUSH1 0x1 DUP2 ISZERO ISZERO EQ PUSH2 0x384 JUMPI PUSH1 0x40 MLOAD PUSH3 0x461BCD PUSH1 0xE5 SHL DUP2 MSTORE PUSH1 0x4 ADD PUSH2 0x37B SWAP1 PUSH2 0x1663 JUMP JUMPDEST PUSH1 0x40 MLOAD DUP1 SWAP2 SUB SWAP1 REVERT JUMPDEST PUSH2 0x3B6 PUSH1 0x1 PUSH1 0x40 MLOAD DUP1 PUSH1 0x40 ADD PUSH1 0x40 MSTORE DUP1 PUSH1 0xF DUP2 MSTORE PUSH1 0x20 ADD PUSH15 0x506F6C6C2061637469766174656421 PUSH1 0x88 SHL DUP2 MSTORE POP PUSH2 0xFBC JUMP JUMPDEST POP JUMP JUMPDEST PUSH1 0x60 PUSH1 0x3 DUP1 SLOAD PUSH2 0x3C8 SWAP1 PUSH2 0x16A5 JUMP JUMPDEST DUP1 PUSH1 0x1F ADD PUSH1 0x20 DUP1 SWAP2 DIV MUL PUSH1 0x20 ADD PUSH1 0x40 MLOAD SWAP1 DUP2 ADD PUSH1 0x40 MSTORE DUP1 SWAP3 SWAP2 SWAP1 DUP2 DUP2 MSTORE PUSH1 0x20 ADD DUP3 DUP1 SLOAD PUSH2 0x3F4 SWAP1 PUSH2 0x16A5 JUMP JUMPDEST DUP1 ISZERO PUSH2 0x441 JUMPI DUP1 PUSH1 0x1F LT PUSH2 0x416 JUMPI PUSH2 0x100 DUP1 DUP4 SLOAD DIV MUL DUP4 MSTORE SWAP2 PUSH1 0x20 ADD SWAP2 PUSH2 0x441 JUMP JUMPDEST DUP3 ADD SWAP2 SWAP1 PUSH1 0x0 MSTORE PUSH1 0x20 PUSH1 0x0 KECCAK256 SWAP1 JUMPDEST DUP2 SLOAD DUP2 MSTORE SWAP1 PUSH1 0x1 ADD SWAP1 PUSH1 0x20 ADD DUP1 DUP4 GT PUSH2 0x424 JUMPI DUP3 SWAP1 SUB PUSH1 0x1F AND DUP3 ADD SWAP2 JUMPDEST POP POP POP POP POP SWAP1 POP SWAP1 JUMP JUMPDEST PUSH1 0x1 PUSH1 0x0 JUMPDEST PUSH1 0x1 SLOAD DUP2 LT ISZERO PUSH2 0x4A4 JUMPI PUSH1 0x1 DUP2 DUP2 SLOAD DUP2 LT PUSH2 0x46D JUMPI PUSH2 0x46D PUSH2 0x161C JUMP JUMPDEST PUSH1 0x0 SWAP2 DUP3 MSTORE PUSH1 0x20 SWAP1 SWAP2 KECCAK256 ADD SLOAD PUSH1 0x1 PUSH1 0x1 PUSH1 0xA0 SHL SUB AND CALLER EQ ISZERO PUSH2 0x492 JUMPI PUSH1 0x1 SWAP2 POP PUSH2 0x4A4 JUMP JUMPDEST DUP1 PUSH2 0x49C DUP2 PUSH2 0x1648 JUMP JUMPDEST SWAP2 POP POP PUSH2 0x450 JUMP JUMPDEST POP PUSH1 0x1 DUP2 ISZERO ISZERO EQ PUSH2 0x4C7 JUMPI PUSH1 0x40 MLOAD PUSH3 0x461BCD PUSH1 0xE5 SHL DUP2 MSTORE PUSH1 0x4 ADD PUSH2 0x37B SWAP1 PUSH2 0x1663 JUMP JUMPDEST PUSH2 0x3B6 PUSH1 0x3 PUSH1 0x40 MLOAD DUP1 PUSH1 0x40 ADD PUSH1 0x40 MSTORE DUP1 PUSH1 0xE DUP2 MSTORE PUSH1 0x20 ADD PUSH14 0x506F6C6C2064697361626C656421 PUSH1 0x90 SHL DUP2 MSTORE POP PUSH2 0xFBC JUMP JUMPDEST PUSH1 0x5 DUP2 DUP2 SLOAD DUP2 LT PUSH2 0x508 JUMPI PUSH1 0x0 DUP1 REVERT JUMPDEST PUSH1 0x0 SWAP2 DUP3 MSTORE PUSH1 0x20 SWAP1 SWAP2 KECCAK256 PUSH1 0x6 SWAP1 SWAP2 MUL ADD DUP1 SLOAD PUSH1 0x1 DUP3 ADD SLOAD PUSH1 0x2 DUP4 ADD SLOAD PUSH1 0x3 DUP5 ADD DUP1 SLOAD SWAP4 SWAP6 POP PUSH1 0x1 PUSH1 0x1 PUSH1 0xA0 SHL SUB SWAP3 DUP4 AND SWAP5 SWAP3 DUP3 AND SWAP4 PUSH1 0x1 PUSH1 0xA0 SHL SWAP1 SWAP3 DIV PUSH1 0xFF AND SWAP3 SWAP2 PUSH2 0x553 SWAP1 PUSH2 0x16A5 JUMP JUMPDEST DUP1 PUSH1 0x1F ADD PUSH1 0x20 DUP1 SWAP2 DIV MUL PUSH1 0x20 ADD PUSH1 0x40 MLOAD SWAP1 DUP2 ADD PUSH1 0x40 MSTORE DUP1 SWAP3 SWAP2 SWAP1 DUP2 DUP2 MSTORE PUSH1 0x20 ADD DUP3 DUP1 SLOAD PUSH2 0x57F SWAP1 PUSH2 0x16A5 JUMP JUMPDEST DUP1 ISZERO PUSH2 0x5CC JUMPI DUP1 PUSH1 0x1F LT PUSH2 0x5A1 JUMPI PUSH2 0x100 DUP1 DUP4 SLOAD DIV MUL DUP4 MSTORE SWAP2 PUSH1 0x20 ADD SWAP2 PUSH2 0x5CC JUMP JUMPDEST DUP3 ADD SWAP2 SWAP1 PUSH1 0x0 MSTORE PUSH1 0x20 PUSH1 0x0 KECCAK256 SWAP1 JUMPDEST DUP2 SLOAD DUP2 MSTORE SWAP1 PUSH1 0x1 ADD SWAP1 PUSH1 0x20 ADD DUP1 DUP4 GT PUSH2 0x5AF JUMPI DUP3 SWAP1 SUB PUSH1 0x1F AND DUP3 ADD SWAP2 JUMPDEST POP POP POP POP POP SWAP1 DUP1 PUSH1 0x4 ADD DUP1 SLOAD PUSH2 0x5E1 SWAP1 PUSH2 0x16A5 JUMP JUMPDEST DUP1 PUSH1 0x1F ADD PUSH1 0x20 DUP1 SWAP2 DIV MUL PUSH1 0x20 ADD PUSH1 0x40 MLOAD SWAP1 DUP2 ADD PUSH1 0x40 MSTORE DUP1 SWAP3 SWAP2 SWAP1 DUP2 DUP2 MSTORE PUSH1 0x20 ADD DUP3 DUP1 SLOAD PUSH2 0x60D SWAP1 PUSH2 0x16A5 JUMP JUMPDEST DUP1 ISZERO PUSH2 0x65A JUMPI DUP1 PUSH1 0x1F LT PUSH2 0x62F JUMPI PUSH2 0x100 DUP1 DUP4 SLOAD DIV MUL DUP4 MSTORE SWAP2 PUSH1 0x20 ADD SWAP2 PUSH2 0x65A JUMP JUMPDEST DUP3 ADD SWAP2 SWAP1 PUSH1 0x0 MSTORE PUSH1 0x20 PUSH1 0x0 KECCAK256 SWAP1 JUMPDEST DUP2 SLOAD DUP2 MSTORE SWAP1 PUSH1 0x1 ADD SWAP1 PUSH1 0x20 ADD DUP1 DUP4 GT PUSH2 0x63D JUMPI DUP3 SWAP1 SUB PUSH1 0x1F AND DUP3 ADD SWAP2 JUMPDEST POP POP POP POP POP SWAP1 DUP1 PUSH1 0x5 ADD SLOAD SWAP1 POP DUP8 JUMP JUMPDEST PUSH1 0x2 DUP1 SLOAD PUSH2 0x677 SWAP1 PUSH2 0x16A5 JUMP JUMPDEST DUP1 PUSH1 0x1F ADD PUSH1 0x20 DUP1 SWAP2 DIV MUL PUSH1 0x20 ADD PUSH1 0x40 MLOAD SWAP1 DUP2 ADD PUSH1 0x40 MSTORE DUP1 SWAP3 SWAP2 SWAP1 DUP2 DUP2 MSTORE PUSH1 0x20 ADD DUP3 DUP1 SLOAD PUSH2 0x6A3 SWAP1 PUSH2 0x16A5 JUMP JUMPDEST DUP1 ISZERO PUSH2 0x6F0 JUMPI DUP1 PUSH1 0x1F LT PUSH2 0x6C5 JUMPI PUSH2 0x100 DUP1 DUP4 SLOAD DIV MUL DUP4 MSTORE SWAP2 PUSH1 0x20 ADD SWAP2 PUSH2 0x6F0 JUMP JUMPDEST DUP3 ADD SWAP2 SWAP1 PUSH1 0x0 MSTORE PUSH1 0x20 PUSH1 0x0 KECCAK256 SWAP1 JUMPDEST DUP2 SLOAD DUP2 MSTORE SWAP1 PUSH1 0x1 ADD SWAP1 PUSH1 0x20 ADD DUP1 DUP4 GT PUSH2 0x6D3 JUMPI DUP3 SWAP1 SUB PUSH1 0x1F AND DUP3 ADD SWAP2 JUMPDEST POP POP POP POP POP DUP2 JUMP JUMPDEST PUSH1 0x0 JUMPDEST PUSH1 0x5 SLOAD DUP2 LT ISZERO PUSH2 0x784 JUMPI DUP2 PUSH1 0x5 DUP3 DUP2 SLOAD DUP2 LT PUSH2 0x719 JUMPI PUSH2 0x719 PUSH2 0x161C JUMP JUMPDEST SWAP1 PUSH1 0x0 MSTORE PUSH1 0x20 PUSH1 0x0 KECCAK256 SWAP1 PUSH1 0x6 MUL ADD PUSH1 0x0 ADD SLOAD EQ ISZERO PUSH2 0x772 JUMPI PUSH1 0x0 PUSH1 0x5 DUP3 DUP2 SLOAD DUP2 LT PUSH2 0x746 JUMPI PUSH2 0x746 PUSH2 0x161C JUMP JUMPDEST SWAP1 PUSH1 0x0 MSTORE PUSH1 0x20 PUSH1 0x0 KECCAK256 SWAP1 PUSH1 0x6 MUL ADD PUSH1 0x2 ADD PUSH1 0x14 PUSH2 0x100 EXP DUP2 SLOAD DUP2 PUSH1 0xFF MUL NOT AND SWAP1 DUP4 ISZERO ISZERO MUL OR SWAP1 SSTORE POP POP POP JUMP JUMPDEST DUP1 PUSH2 0x77C DUP2 PUSH2 0x1648 JUMP JUMPDEST SWAP2 POP POP PUSH2 0x6FB JUMP JUMPDEST POP PUSH1 0x40 MLOAD PUSH3 0x461BCD PUSH1 0xE5 SHL DUP2 MSTORE PUSH1 0x20 PUSH1 0x4 DUP3 ADD MSTORE PUSH1 0x9 PUSH1 0x24 DUP3 ADD MSTORE PUSH9 0x139BDD08199BDD5B99 PUSH1 0xBA SHL PUSH1 0x44 DUP3 ADD MSTORE PUSH1 0x64 ADD PUSH2 0x37B JUMP JUMPDEST PUSH1 0x1 PUSH1 0x0 JUMPDEST PUSH1 0x1 SLOAD DUP2 LT ISZERO PUSH2 0x812 JUMPI PUSH1 0x1 DUP2 DUP2 SLOAD DUP2 LT PUSH2 0x7DB JUMPI PUSH2 0x7DB PUSH2 0x161C JUMP JUMPDEST PUSH1 0x0 SWAP2 DUP3 MSTORE PUSH1 0x20 SWAP1 SWAP2 KECCAK256 ADD SLOAD PUSH1 0x1 PUSH1 0x1 PUSH1 0xA0 SHL SUB AND CALLER EQ ISZERO PUSH2 0x800 JUMPI PUSH1 0x1 SWAP2 POP PUSH2 0x812 JUMP JUMPDEST DUP1 PUSH2 0x80A DUP2 PUSH2 0x1648 JUMP JUMPDEST SWAP2 POP POP PUSH2 0x7BE JUMP JUMPDEST POP PUSH1 0x1 DUP2 ISZERO ISZERO EQ PUSH2 0x835 JUMPI PUSH1 0x40 MLOAD PUSH3 0x461BCD PUSH1 0xE5 SHL DUP2 MSTORE PUSH1 0x4 ADD PUSH2 0x37B SWAP1 PUSH2 0x1663 JUMP JUMPDEST PUSH2 0x3B6 PUSH1 0x2 PUSH1 0x40 MLOAD DUP1 PUSH1 0x40 ADD PUSH1 0x40 MSTORE DUP1 PUSH1 0xC DUP2 MSTORE PUSH1 0x20 ADD PUSH12 0x506F6C6C2066726F7A656E21 PUSH1 0xA0 SHL DUP2 MSTORE POP PUSH2 0xFBC JUMP JUMPDEST PUSH1 0x1 PUSH1 0x7 SLOAD PUSH1 0xFF AND PUSH1 0x3 DUP2 GT ISZERO PUSH2 0x87D JUMPI PUSH2 0x87D PUSH2 0x1503 JUMP JUMPDEST EQ PUSH2 0x89A JUMPI PUSH1 0x40 MLOAD PUSH3 0x461BCD PUSH1 0xE5 SHL DUP2 MSTORE PUSH1 0x4 ADD PUSH2 0x37B SWAP1 PUSH2 0x16E0 JUMP JUMPDEST CALLER PUSH1 0x0 PUSH2 0x8A6 DUP4 PUSH2 0x10BC JUMP JUMPDEST PUSH1 0x2 DUP2 ADD SLOAD SWAP1 SWAP2 POP PUSH1 0x1 PUSH1 0xA0 SHL SWAP1 DIV PUSH1 0xFF AND ISZERO PUSH2 0x9AD JUMPI PUSH1 0x1 PUSH1 0x1 PUSH1 0xA0 SHL SUB DUP3 AND PUSH1 0x0 SWAP1 DUP2 MSTORE PUSH1 0x8 PUSH1 0x20 MSTORE PUSH1 0x40 SWAP1 KECCAK256 SLOAD DUP1 ISZERO PUSH2 0x906 JUMPI PUSH1 0x0 PUSH2 0x8E7 DUP3 PUSH2 0x10BC JUMP JUMPDEST PUSH1 0x5 DUP2 ADD DUP1 SLOAD SWAP2 SWAP3 POP PUSH1 0x0 PUSH2 0x8FB DUP4 PUSH2 0x1724 JUMP JUMPDEST SWAP2 SWAP1 POP SSTORE POP POP PUSH2 0x977 JUMP JUMPDEST DUP4 DUP2 EQ ISZERO PUSH2 0x961 JUMPI PUSH1 0x40 MLOAD PUSH3 0x461BCD PUSH1 0xE5 SHL DUP2 MSTORE PUSH1 0x20 PUSH1 0x4 DUP3 ADD MSTORE PUSH1 0x22 PUSH1 0x24 DUP3 ADD MSTORE PUSH32 0x5573657220616C726561647920766F74656420666F722074686973206F707469 PUSH1 0x44 DUP3 ADD MSTORE PUSH2 0x37B7 PUSH1 0xF1 SHL PUSH1 0x64 DUP3 ADD MSTORE PUSH1 0x84 ADD PUSH2 0x37B JUMP JUMPDEST PUSH1 0x6 DUP1 SLOAD SWAP1 PUSH1 0x0 PUSH2 0x971 DUP4 PUSH2 0x1648 JUMP JUMPDEST SWAP2 SWAP1 POP SSTORE POP JUMPDEST PUSH1 0x1 PUSH1 0x1 PUSH1 0xA0 SHL SUB DUP4 AND PUSH1 0x0 SWAP1 DUP2 MSTORE PUSH1 0x8 PUSH1 0x20 MSTORE PUSH1 0x40 DUP2 KECCAK256 DUP6 SWAP1 SSTORE PUSH1 0x5 DUP4 ADD DUP1 SLOAD SWAP2 PUSH2 0x9A2 DUP4 PUSH2 0x1648 JUMP JUMPDEST SWAP2 SWAP1 POP SSTORE POP POP POP POP POP JUMP JUMPDEST PUSH1 0x40 MLOAD PUSH3 0x461BCD PUSH1 0xE5 SHL DUP2 MSTORE PUSH1 0x20 PUSH1 0x4 DUP3 ADD MSTORE PUSH1 0x15 PUSH1 0x24 DUP3 ADD MSTORE PUSH21 0x4F7074696F6E206973206E6F742061637469766521 PUSH1 0x58 SHL PUSH1 0x44 DUP3 ADD MSTORE PUSH1 0x64 ADD PUSH2 0x37B JUMP JUMPDEST POP POP POP JUMP JUMPDEST PUSH1 0x3 DUP1 SLOAD PUSH2 0x677 SWAP1 PUSH2 0x16A5 JUMP JUMPDEST PUSH1 0x1 PUSH1 0x7 SLOAD PUSH1 0xFF AND PUSH1 0x3 DUP2 GT ISZERO PUSH2 0xA18 JUMPI PUSH2 0xA18 PUSH2 0x1503 JUMP JUMPDEST EQ PUSH2 0xA35 JUMPI PUSH1 0x40 MLOAD PUSH3 0x461BCD PUSH1 0xE5 SHL DUP2 MSTORE PUSH1 0x4 ADD PUSH2 0x37B SWAP1 PUSH2 0x16E0 JUMP JUMPDEST PUSH1 0x1 PUSH1 0x0 JUMPDEST PUSH1 0x1 SLOAD DUP2 LT ISZERO PUSH2 0xA8E JUMPI PUSH1 0x1 DUP2 DUP2 SLOAD DUP2 LT PUSH2 0xA57 JUMPI PUSH2 0xA57 PUSH2 0x161C JUMP JUMPDEST PUSH1 0x0 SWAP2 DUP3 MSTORE PUSH1 0x20 SWAP1 SWAP2 KECCAK256 ADD SLOAD PUSH1 0x1 PUSH1 0x1 PUSH1 0xA0 SHL SUB AND CALLER EQ ISZERO PUSH2 0xA7C JUMPI PUSH1 0x1 SWAP2 POP PUSH2 0xA8E JUMP JUMPDEST DUP1 PUSH2 0xA86 DUP2 PUSH2 0x1648 JUMP JUMPDEST SWAP2 POP POP PUSH2 0xA3A JUMP JUMPDEST POP PUSH1 0x1 DUP2 ISZERO ISZERO EQ PUSH2 0xAB1 JUMPI PUSH1 0x40 MLOAD PUSH3 0x461BCD PUSH1 0xE5 SHL DUP2 MSTORE PUSH1 0x4 ADD PUSH2 0x37B SWAP1 PUSH2 0x1663 JUMP JUMPDEST PUSH1 0x5 SLOAD CALLER SWAP1 PUSH1 0x0 SWAP1 PUSH2 0xAC5 SWAP1 PUSH2 0x3E8 PUSH2 0x173B JUMP JUMPDEST PUSH1 0x40 DUP1 MLOAD PUSH1 0xE0 DUP2 ADD DUP3 MSTORE DUP3 DUP2 MSTORE PUSH1 0x1 PUSH1 0x1 PUSH1 0xA0 SHL SUB DUP1 DUP12 AND PUSH1 0x20 DUP1 DUP5 ADD SWAP2 DUP3 MSTORE DUP8 DUP4 AND SWAP5 DUP5 ADD SWAP5 DUP6 MSTORE DUP12 ISZERO ISZERO PUSH1 0x60 DUP6 ADD SWAP1 DUP2 MSTORE PUSH1 0x80 DUP6 ADD DUP13 DUP2 MSTORE PUSH1 0xA0 DUP7 ADD DUP13 SWAP1 MSTORE PUSH1 0x0 PUSH1 0xC0 DUP8 ADD DUP2 SWAP1 MSTORE PUSH1 0x5 DUP1 SLOAD PUSH1 0x1 DUP2 ADD DUP3 SSTORE SWAP2 MSTORE DUP7 MLOAD PUSH1 0x6 SWAP1 SWAP2 MUL PUSH32 0x36B6384B5ECA791C62761152D0C79BB0604C104A5FB6F4EB0703F3154BB3DB0 DUP2 ADD SWAP2 DUP3 SSTORE SWAP5 MLOAD PUSH32 0x36B6384B5ECA791C62761152D0C79BB0604C104A5FB6F4EB0703F3154BB3DB1 DUP7 ADD DUP1 SLOAD SWAP2 DUP9 AND PUSH1 0x1 PUSH1 0x1 PUSH1 0xA0 SHL SUB NOT SWAP1 SWAP3 AND SWAP2 SWAP1 SWAP2 OR SWAP1 SSTORE SWAP7 MLOAD PUSH32 0x36B6384B5ECA791C62761152D0C79BB0604C104A5FB6F4EB0703F3154BB3DB2 DUP6 ADD DUP1 SLOAD SWAP4 MLOAD ISZERO ISZERO PUSH1 0x1 PUSH1 0xA0 SHL MUL PUSH1 0x1 PUSH1 0x1 PUSH1 0xA8 SHL SUB NOT SWAP1 SWAP5 AND SWAP2 SWAP1 SWAP7 AND OR SWAP2 SWAP1 SWAP2 OR SWAP1 SWAP4 SSTORE SWAP2 MLOAD DUP1 MLOAD SWAP6 SWAP7 POP SWAP3 SWAP5 DUP6 SWAP5 SWAP4 PUSH2 0xC09 SWAP4 PUSH32 0x36B6384B5ECA791C62761152D0C79BB0604C104A5FB6F4EB0703F3154BB3DB3 SWAP1 SWAP4 ADD SWAP3 ADD SWAP1 PUSH2 0x1131 JUMP JUMPDEST POP PUSH1 0xA0 DUP3 ADD MLOAD DUP1 MLOAD PUSH2 0xC25 SWAP2 PUSH1 0x4 DUP5 ADD SWAP2 PUSH1 0x20 SWAP1 SWAP2 ADD SWAP1 PUSH2 0x1131 JUMP JUMPDEST POP PUSH1 0xC0 DUP3 ADD MLOAD DUP2 PUSH1 0x5 ADD SSTORE POP POP POP POP POP POP POP POP POP POP JUMP JUMPDEST PUSH1 0x60 PUSH1 0x5 DUP1 SLOAD DUP1 PUSH1 0x20 MUL PUSH1 0x20 ADD PUSH1 0x40 MLOAD SWAP1 DUP2 ADD PUSH1 0x40 MSTORE DUP1 SWAP3 SWAP2 SWAP1 DUP2 DUP2 MSTORE PUSH1 0x20 ADD PUSH1 0x0 SWAP1 JUMPDEST DUP3 DUP3 LT ISZERO PUSH2 0xE05 JUMPI PUSH1 0x0 DUP5 DUP2 MSTORE PUSH1 0x20 SWAP1 DUP2 SWAP1 KECCAK256 PUSH1 0x40 DUP1 MLOAD PUSH1 0xE0 DUP2 ADD DUP3 MSTORE PUSH1 0x6 DUP7 MUL SWAP1 SWAP3 ADD DUP1 SLOAD DUP4 MSTORE PUSH1 0x1 DUP2 ADD SLOAD PUSH1 0x1 PUSH1 0x1 PUSH1 0xA0 SHL SUB SWAP1 DUP2 AND SWAP5 DUP5 ADD SWAP5 SWAP1 SWAP5 MSTORE PUSH1 0x2 DUP2 ADD SLOAD SWAP4 DUP5 AND SWAP2 DUP4 ADD SWAP2 SWAP1 SWAP2 MSTORE PUSH1 0x1 PUSH1 0xA0 SHL SWAP1 SWAP3 DIV PUSH1 0xFF AND ISZERO ISZERO PUSH1 0x60 DUP3 ADD MSTORE PUSH1 0x3 DUP3 ADD DUP1 SLOAD SWAP2 SWAP3 SWAP2 PUSH1 0x80 DUP5 ADD SWAP2 SWAP1 PUSH2 0xCD8 SWAP1 PUSH2 0x16A5 JUMP JUMPDEST DUP1 PUSH1 0x1F ADD PUSH1 0x20 DUP1 SWAP2 DIV MUL PUSH1 0x20 ADD PUSH1 0x40 MLOAD SWAP1 DUP2 ADD PUSH1 0x40 MSTORE DUP1 SWAP3 SWAP2 SWAP1 DUP2 DUP2 MSTORE PUSH1 0x20 ADD DUP3 DUP1 SLOAD PUSH2 0xD04 SWAP1 PUSH2 0x16A5 JUMP JUMPDEST DUP1 ISZERO PUSH2 0xD51 JUMPI DUP1 PUSH1 0x1F LT PUSH2 0xD26 JUMPI PUSH2 0x100 DUP1 DUP4 SLOAD DIV MUL DUP4 MSTORE SWAP2 PUSH1 0x20 ADD SWAP2 PUSH2 0xD51 JUMP JUMPDEST DUP3 ADD SWAP2 SWAP1 PUSH1 0x0 MSTORE PUSH1 0x20 PUSH1 0x0 KECCAK256 SWAP1 JUMPDEST DUP2 SLOAD DUP2 MSTORE SWAP1 PUSH1 0x1 ADD SWAP1 PUSH1 0x20 ADD DUP1 DUP4 GT PUSH2 0xD34 JUMPI DUP3 SWAP1 SUB PUSH1 0x1F AND DUP3 ADD SWAP2 JUMPDEST POP POP POP POP POP DUP2 MSTORE PUSH1 0x20 ADD PUSH1 0x4 DUP3 ADD DUP1 SLOAD PUSH2 0xD6A SWAP1 PUSH2 0x16A5 JUMP JUMPDEST DUP1 PUSH1 0x1F ADD PUSH1 0x20 DUP1 SWAP2 DIV MUL PUSH1 0x20 ADD PUSH1 0x40 MLOAD SWAP1 DUP2 ADD PUSH1 0x40 MSTORE DUP1 SWAP3 SWAP2 SWAP1 DUP2 DUP2 MSTORE PUSH1 0x20 ADD DUP3 DUP1 SLOAD PUSH2 0xD96 SWAP1 PUSH2 0x16A5 JUMP JUMPDEST DUP1 ISZERO PUSH2 0xDE3 JUMPI DUP1 PUSH1 0x1F LT PUSH2 0xDB8 JUMPI PUSH2 0x100 DUP1 DUP4 SLOAD DIV MUL DUP4 MSTORE SWAP2 PUSH1 0x20 ADD SWAP2 PUSH2 0xDE3 JUMP JUMPDEST DUP3 ADD SWAP2 SWAP1 PUSH1 0x0 MSTORE PUSH1 0x20 PUSH1 0x0 KECCAK256 SWAP1 JUMPDEST DUP2 SLOAD DUP2 MSTORE SWAP1 PUSH1 0x1 ADD SWAP1 PUSH1 0x20 ADD DUP1 DUP4 GT PUSH2 0xDC6 JUMPI DUP3 SWAP1 SUB PUSH1 0x1F AND DUP3 ADD SWAP2 JUMPDEST POP POP POP POP POP DUP2 MSTORE PUSH1 0x20 ADD PUSH1 0x5 DUP3 ADD SLOAD DUP2 MSTORE POP POP DUP2 MSTORE PUSH1 0x20 ADD SWAP1 PUSH1 0x1 ADD SWAP1 PUSH2 0xC60 JUMP JUMPDEST POP POP POP POP SWAP1 POP SWAP1 JUMP JUMPDEST PUSH1 0x1 PUSH1 0x7 SLOAD PUSH1 0xFF AND PUSH1 0x3 DUP2 GT ISZERO PUSH2 0xE27 JUMPI PUSH2 0xE27 PUSH2 0x1503 JUMP JUMPDEST EQ PUSH2 0xE44 JUMPI PUSH1 0x40 MLOAD PUSH3 0x461BCD PUSH1 0xE5 SHL DUP2 MSTORE PUSH1 0x4 ADD PUSH2 0x37B SWAP1 PUSH2 0x16E0 JUMP JUMPDEST CALLER PUSH1 0x0 DUP2 DUP2 MSTORE PUSH1 0x8 PUSH1 0x20 MSTORE PUSH1 0x40 DUP2 KECCAK256 SLOAD DUP1 ISZERO PUSH2 0xEB6 JUMPI PUSH1 0x0 PUSH2 0xE65 DUP3 PUSH2 0x10BC JUMP JUMPDEST PUSH1 0x5 DUP2 ADD DUP1 SLOAD SWAP2 SWAP3 POP PUSH1 0x0 PUSH2 0xE79 DUP4 PUSH2 0x1724 JUMP JUMPDEST SWAP1 SWAP2 SSTORE POP POP PUSH1 0x1 PUSH1 0x1 PUSH1 0xA0 SHL SUB DUP5 AND PUSH1 0x0 SWAP1 DUP2 MSTORE PUSH1 0x8 PUSH1 0x20 MSTORE PUSH1 0x40 DUP2 KECCAK256 DUP2 SWAP1 SSTORE PUSH1 0x6 DUP1 SLOAD SWAP2 PUSH2 0xEA7 DUP4 PUSH2 0x1724 JUMP JUMPDEST SWAP2 SWAP1 POP SSTORE POP PUSH1 0x1 SWAP3 POP POP PUSH2 0xF08 JUMP JUMPDEST PUSH1 0x40 MLOAD PUSH3 0x461BCD PUSH1 0xE5 SHL DUP2 MSTORE PUSH1 0x20 PUSH1 0x4 DUP3 ADD MSTORE PUSH1 0x21 PUSH1 0x24 DUP3 ADD MSTORE PUSH32 0x5573657220646964206E6F6E20766F746520666F722074686973206F7074696F PUSH1 0x44 DUP3 ADD MSTORE PUSH1 0x37 PUSH1 0xF9 SHL PUSH1 0x64 DUP3 ADD MSTORE PUSH1 0x84 ADD PUSH2 0x37B JUMP JUMPDEST DUP2 PUSH2 0x9ED JUMPI PUSH1 0x40 MLOAD PUSH3 0x461BCD PUSH1 0xE5 SHL DUP2 MSTORE PUSH1 0x20 PUSH1 0x4 DUP3 ADD MSTORE PUSH1 0x15 PUSH1 0x24 DUP3 ADD MSTORE PUSH21 0x556E61626C6520746F2072656D6F766520766F7465 PUSH1 0x58 SHL PUSH1 0x44 DUP3 ADD MSTORE PUSH1 0x64 ADD PUSH2 0x37B JUMP JUMPDEST PUSH1 0x0 JUMPDEST PUSH1 0x5 SLOAD DUP2 LT ISZERO PUSH2 0x784 JUMPI DUP2 PUSH1 0x5 DUP3 DUP2 SLOAD DUP2 LT PUSH2 0xF6E JUMPI PUSH2 0xF6E PUSH2 0x161C JUMP JUMPDEST SWAP1 PUSH1 0x0 MSTORE PUSH1 0x20 PUSH1 0x0 KECCAK256 SWAP1 PUSH1 0x6 MUL ADD PUSH1 0x0 ADD SLOAD EQ ISZERO PUSH2 0xF9B JUMPI PUSH1 0x1 PUSH1 0x5 DUP3 DUP2 SLOAD DUP2 LT PUSH2 0x746 JUMPI PUSH2 0x746 PUSH2 0x161C JUMP JUMPDEST DUP1 PUSH2 0xFA5 DUP2 PUSH2 0x1648 JUMP JUMPDEST SWAP2 POP POP PUSH2 0xF50 JUMP JUMPDEST PUSH1 0x60 PUSH1 0x2 DUP1 SLOAD PUSH2 0x3C8 SWAP1 PUSH2 0x16A5 JUMP JUMPDEST DUP2 PUSH1 0x3 DUP2 GT ISZERO PUSH2 0xFCE JUMPI PUSH2 0xFCE PUSH2 0x1503 JUMP JUMPDEST PUSH1 0x7 SLOAD PUSH1 0xFF AND PUSH1 0x3 DUP2 GT ISZERO PUSH2 0xFE5 JUMPI PUSH2 0xFE5 PUSH2 0x1503 JUMP JUMPDEST EQ PUSH2 0x1055 JUMPI PUSH1 0x7 SLOAD PUSH1 0x40 MLOAD CALLER SWAP2 PUSH32 0xFC6F5E211098B443015CCB625104A41F61E97A80DD9B8734242A9A8C3EECC8DC SWAP2 PUSH2 0x1025 SWAP2 PUSH1 0xFF AND SWAP1 DUP7 SWAP1 DUP7 SWAP1 PUSH2 0x1753 JUMP JUMPDEST PUSH1 0x40 MLOAD DUP1 SWAP2 SUB SWAP1 LOG2 PUSH1 0x7 DUP1 SLOAD DUP4 SWAP2 SWAP1 PUSH1 0xFF NOT AND PUSH1 0x1 DUP4 PUSH1 0x3 DUP2 GT ISZERO PUSH2 0x104C JUMPI PUSH2 0x104C PUSH2 0x1503 JUMP JUMPDEST MUL OR SWAP1 SSTORE POP POP POP JUMP JUMPDEST PUSH1 0x40 MLOAD PUSH3 0x461BCD PUSH1 0xE5 SHL DUP2 MSTORE PUSH1 0x20 PUSH1 0x4 DUP3 ADD MSTORE PUSH1 0x36 PUSH1 0x24 DUP3 ADD MSTORE PUSH32 0x5374617465206E6F74206368616E6765642E204E657720737461746520697320 PUSH1 0x44 DUP3 ADD MSTORE PUSH22 0x7468652073616D65206173206F6C6420737461746521 PUSH1 0x50 SHL PUSH1 0x64 DUP3 ADD MSTORE PUSH1 0x84 ADD PUSH2 0x37B JUMP JUMPDEST PUSH1 0x0 DUP1 JUMPDEST PUSH1 0x5 SLOAD DUP2 LT ISZERO PUSH2 0x784 JUMPI DUP3 PUSH1 0x5 DUP3 DUP2 SLOAD DUP2 LT PUSH2 0x10DE JUMPI PUSH2 0x10DE PUSH2 0x161C JUMP JUMPDEST SWAP1 PUSH1 0x0 MSTORE PUSH1 0x20 PUSH1 0x0 KECCAK256 SWAP1 PUSH1 0x6 MUL ADD PUSH1 0x0 ADD SLOAD EQ ISZERO PUSH2 0x111F JUMPI PUSH1 0x5 DUP2 DUP2 SLOAD DUP2 LT PUSH2 0x1109 JUMPI PUSH2 0x1109 PUSH2 0x161C JUMP JUMPDEST SWAP1 PUSH1 0x0 MSTORE PUSH1 0x20 PUSH1 0x0 KECCAK256 SWAP1 PUSH1 0x6 MUL ADD SWAP2 POP POP SWAP2 SWAP1 POP JUMP JUMPDEST DUP1 PUSH2 0x1129 DUP2 PUSH2 0x1648 JUMP JUMPDEST SWAP2 POP POP PUSH2 0x10C0 JUMP JUMPDEST DUP3 DUP1 SLOAD PUSH2 0x113D SWAP1 PUSH2 0x16A5 JUMP JUMPDEST SWAP1 PUSH1 0x0 MSTORE PUSH1 0x20 PUSH1 0x0 KECCAK256 SWAP1 PUSH1 0x1F ADD PUSH1 0x20 SWAP1 DIV DUP2 ADD SWAP3 DUP3 PUSH2 0x115F JUMPI PUSH1 0x0 DUP6 SSTORE PUSH2 0x11A5 JUMP JUMPDEST DUP3 PUSH1 0x1F LT PUSH2 0x1178 JUMPI DUP1 MLOAD PUSH1 0xFF NOT AND DUP4 DUP1 ADD OR DUP6 SSTORE PUSH2 0x11A5 JUMP JUMPDEST DUP3 DUP1 ADD PUSH1 0x1 ADD DUP6 SSTORE DUP3 ISZERO PUSH2 0x11A5 JUMPI SWAP2 DUP3 ADD JUMPDEST DUP3 DUP2 GT ISZERO PUSH2 0x11A5 JUMPI DUP3 MLOAD DUP3 SSTORE SWAP2 PUSH1 0x20 ADD SWAP2 SWAP1 PUSH1 0x1 ADD SWAP1 PUSH2 0x118A JUMP JUMPDEST POP PUSH2 0x11B1 SWAP3 SWAP2 POP PUSH2 0x11B5 JUMP JUMPDEST POP SWAP1 JUMP JUMPDEST JUMPDEST DUP1 DUP3 GT ISZERO PUSH2 0x11B1 JUMPI PUSH1 0x0 DUP2 SSTORE PUSH1 0x1 ADD PUSH2 0x11B6 JUMP JUMPDEST PUSH1 0x0 PUSH1 0x20 DUP3 DUP5 SUB SLT ISZERO PUSH2 0x11DC JUMPI PUSH1 0x0 DUP1 REVERT JUMPDEST POP CALLDATALOAD SWAP2 SWAP1 POP JUMP JUMPDEST PUSH1 0x0 DUP2 MLOAD DUP1 DUP5 MSTORE PUSH1 0x0 JUMPDEST DUP2 DUP2 LT ISZERO PUSH2 0x1209 JUMPI PUSH1 0x20 DUP2 DUP6 ADD DUP2 ADD MLOAD DUP7 DUP4 ADD DUP3 ADD MSTORE ADD PUSH2 0x11ED JUMP JUMPDEST DUP2 DUP2 GT ISZERO PUSH2 0x121B JUMPI PUSH1 0x0 PUSH1 0x20 DUP4 DUP8 ADD ADD MSTORE JUMPDEST POP PUSH1 0x1F ADD PUSH1 0x1F NOT AND SWAP3 SWAP1 SWAP3 ADD PUSH1 0x20 ADD SWAP3 SWAP2 POP POP JUMP JUMPDEST PUSH1 0x20 DUP2 MSTORE PUSH1 0x0 PUSH2 0x1243 PUSH1 0x20 DUP4 ADD DUP5 PUSH2 0x11E3 JUMP JUMPDEST SWAP4 SWAP3 POP POP POP JUMP JUMPDEST DUP8 DUP2 MSTORE PUSH1 0x1 PUSH1 0x1 PUSH1 0xA0 SHL SUB DUP8 DUP2 AND PUSH1 0x20 DUP4 ADD MSTORE DUP7 AND PUSH1 0x40 DUP3 ADD MSTORE DUP5 ISZERO ISZERO PUSH1 0x60 DUP3 ADD MSTORE PUSH1 0xE0 PUSH1 0x80 DUP3 ADD DUP2 SWAP1 MSTORE PUSH1 0x0 SWAP1 PUSH2 0x1284 SWAP1 DUP4 ADD DUP7 PUSH2 0x11E3 JUMP JUMPDEST DUP3 DUP2 SUB PUSH1 0xA0 DUP5 ADD MSTORE PUSH2 0x1296 DUP2 DUP7 PUSH2 0x11E3 JUMP JUMPDEST SWAP2 POP POP DUP3 PUSH1 0xC0 DUP4 ADD MSTORE SWAP9 SWAP8 POP POP POP POP POP POP POP POP JUMP JUMPDEST PUSH4 0x4E487B71 PUSH1 0xE0 SHL PUSH1 0x0 MSTORE PUSH1 0x41 PUSH1 0x4 MSTORE PUSH1 0x24 PUSH1 0x0 REVERT JUMPDEST PUSH1 0x40 MLOAD PUSH1 0xE0 DUP2 ADD PUSH8 0xFFFFFFFFFFFFFFFF DUP2 GT DUP3 DUP3 LT OR ISZERO PUSH2 0x12E4 JUMPI PUSH2 0x12E4 PUSH2 0x12AB JUMP JUMPDEST PUSH1 0x40 MSTORE SWAP1 JUMP JUMPDEST DUP1 CALLDATALOAD PUSH1 0x1 PUSH1 0x1 PUSH1 0xA0 SHL SUB DUP2 AND DUP2 EQ PUSH2 0x1301 JUMPI PUSH1 0x0 DUP1 REVERT JUMPDEST SWAP2 SWAP1 POP JUMP JUMPDEST DUP1 CALLDATALOAD DUP1 ISZERO ISZERO DUP2 EQ PUSH2 0x1301 JUMPI PUSH1 0x0 DUP1 REVERT JUMPDEST PUSH1 0x0 DUP3 PUSH1 0x1F DUP4 ADD SLT PUSH2 0x1327 JUMPI PUSH1 0x0 DUP1 REVERT JUMPDEST DUP2 CALLDATALOAD PUSH8 0xFFFFFFFFFFFFFFFF DUP1 DUP3 GT ISZERO PUSH2 0x1342 JUMPI PUSH2 0x1342 PUSH2 0x12AB JUMP JUMPDEST PUSH1 0x40 MLOAD PUSH1 0x1F DUP4 ADD PUSH1 0x1F NOT SWAP1 DUP2 AND PUSH1 0x3F ADD AND DUP2 ADD SWAP1 DUP3 DUP3 GT DUP2 DUP4 LT OR ISZERO PUSH2 0x136A JUMPI PUSH2 0x136A PUSH2 0x12AB JUMP JUMPDEST DUP2 PUSH1 0x40 MSTORE DUP4 DUP2 MSTORE DUP7 PUSH1 0x20 DUP6 DUP9 ADD ADD GT ISZERO PUSH2 0x1383 JUMPI PUSH1 0x0 DUP1 REVERT JUMPDEST DUP4 PUSH1 0x20 DUP8 ADD PUSH1 0x20 DUP4 ADD CALLDATACOPY PUSH1 0x0 PUSH1 0x20 DUP6 DUP4 ADD ADD MSTORE DUP1 SWAP5 POP POP POP POP POP SWAP3 SWAP2 POP POP JUMP JUMPDEST PUSH1 0x0 PUSH1 0x20 DUP3 DUP5 SUB SLT ISZERO PUSH2 0x13B5 JUMPI PUSH1 0x0 DUP1 REVERT JUMPDEST DUP2 CALLDATALOAD PUSH8 0xFFFFFFFFFFFFFFFF DUP1 DUP3 GT ISZERO PUSH2 0x13CD JUMPI PUSH1 0x0 DUP1 REVERT JUMPDEST SWAP1 DUP4 ADD SWAP1 PUSH1 0xE0 DUP3 DUP7 SUB SLT ISZERO PUSH2 0x13E1 JUMPI PUSH1 0x0 DUP1 REVERT JUMPDEST PUSH2 0x13E9 PUSH2 0x12C1 JUMP JUMPDEST DUP3 CALLDATALOAD DUP2 MSTORE PUSH2 0x13F9 PUSH1 0x20 DUP5 ADD PUSH2 0x12EA JUMP JUMPDEST PUSH1 0x20 DUP3 ADD MSTORE PUSH2 0x140A PUSH1 0x40 DUP5 ADD PUSH2 0x12EA JUMP JUMPDEST PUSH1 0x40 DUP3 ADD MSTORE PUSH2 0x141B PUSH1 0x60 DUP5 ADD PUSH2 0x1306 JUMP JUMPDEST PUSH1 0x60 DUP3 ADD MSTORE PUSH1 0x80 DUP4 ADD CALLDATALOAD DUP3 DUP2 GT ISZERO PUSH2 0x1432 JUMPI PUSH1 0x0 DUP1 REVERT JUMPDEST PUSH2 0x143E DUP8 DUP3 DUP7 ADD PUSH2 0x1316 JUMP JUMPDEST PUSH1 0x80 DUP4 ADD MSTORE POP PUSH1 0xA0 DUP4 ADD CALLDATALOAD DUP3 DUP2 GT ISZERO PUSH2 0x1456 JUMPI PUSH1 0x0 DUP1 REVERT JUMPDEST PUSH2 0x1462 DUP8 DUP3 DUP7 ADD PUSH2 0x1316 JUMP JUMPDEST PUSH1 0xA0 DUP4 ADD MSTORE POP PUSH1 0xC0 DUP4 ADD CALLDATALOAD PUSH1 0xC0 DUP3 ADD MSTORE DUP1 SWAP4 POP POP POP POP SWAP3 SWAP2 POP POP JUMP JUMPDEST PUSH1 0x0 DUP1 PUSH1 0x0 DUP1 PUSH1 0x80 DUP6 DUP8 SUB SLT ISZERO PUSH2 0x1494 JUMPI PUSH1 0x0 DUP1 REVERT JUMPDEST PUSH2 0x149D DUP6 PUSH2 0x12EA JUMP JUMPDEST SWAP4 POP PUSH2 0x14AB PUSH1 0x20 DUP7 ADD PUSH2 0x1306 JUMP JUMPDEST SWAP3 POP PUSH1 0x40 DUP6 ADD CALLDATALOAD PUSH8 0xFFFFFFFFFFFFFFFF DUP1 DUP3 GT ISZERO PUSH2 0x14C8 JUMPI PUSH1 0x0 DUP1 REVERT JUMPDEST PUSH2 0x14D4 DUP9 DUP4 DUP10 ADD PUSH2 0x1316 JUMP JUMPDEST SWAP4 POP PUSH1 0x60 DUP8 ADD CALLDATALOAD SWAP2 POP DUP1 DUP3 GT ISZERO PUSH2 0x14EA JUMPI PUSH1 0x0 DUP1 REVERT JUMPDEST POP PUSH2 0x14F7 DUP8 DUP3 DUP9 ADD PUSH2 0x1316 JUMP JUMPDEST SWAP2 POP POP SWAP3 SWAP6 SWAP2 SWAP5 POP SWAP3 POP JUMP JUMPDEST PUSH4 0x4E487B71 PUSH1 0xE0 SHL PUSH1 0x0 MSTORE PUSH1 0x21 PUSH1 0x4 MSTORE PUSH1 0x24 PUSH1 0x0 REVERT JUMPDEST PUSH1 0x4 DUP2 LT PUSH2 0x1537 JUMPI PUSH4 0x4E487B71 PUSH1 0xE0 SHL PUSH1 0x0 MSTORE PUSH1 0x21 PUSH1 0x4 MSTORE PUSH1 0x24 PUSH1 0x0 REVERT JUMPDEST SWAP1 MSTORE JUMP JUMPDEST PUSH1 0x20 DUP2 ADD PUSH2 0x1549 DUP3 DUP5 PUSH2 0x1519 JUMP JUMPDEST SWAP3 SWAP2 POP POP JUMP JUMPDEST PUSH1 0x0 PUSH1 0x20 DUP1 DUP4 ADD DUP2 DUP5 MSTORE DUP1 DUP6 MLOAD DUP1 DUP4 MSTORE PUSH1 0x40 SWAP3 POP DUP3 DUP7 ADD SWAP2 POP DUP3 DUP2 PUSH1 0x5 SHL DUP8 ADD ADD DUP5 DUP9 ADD PUSH1 0x0 JUMPDEST DUP4 DUP2 LT ISZERO PUSH2 0x160E JUMPI DUP9 DUP4 SUB PUSH1 0x3F NOT ADD DUP6 MSTORE DUP2 MLOAD DUP1 MLOAD DUP5 MSTORE DUP8 DUP2 ADD MLOAD PUSH1 0x1 PUSH1 0x1 PUSH1 0xA0 SHL SUB SWAP1 DUP2 AND DUP10 DUP7 ADD MSTORE DUP8 DUP3 ADD MLOAD AND DUP8 DUP6 ADD MSTORE PUSH1 0x60 DUP1 DUP3 ADD MLOAD ISZERO ISZERO SWAP1 DUP6 ADD MSTORE PUSH1 0x80 DUP1 DUP3 ADD MLOAD PUSH1 0xE0 DUP3 DUP8 ADD DUP2 SWAP1 MSTORE SWAP2 SWAP1 PUSH2 0x15D1 DUP4 DUP9 ADD DUP3 PUSH2 0x11E3 JUMP JUMPDEST SWAP3 POP POP POP PUSH1 0xA0 DUP1 DUP4 ADD MLOAD DUP7 DUP4 SUB DUP3 DUP9 ADD MSTORE PUSH2 0x15EC DUP4 DUP3 PUSH2 0x11E3 JUMP JUMPDEST PUSH1 0xC0 SWAP5 DUP6 ADD MLOAD SWAP8 SWAP1 SWAP5 ADD SWAP7 SWAP1 SWAP7 MSTORE POP POP SWAP5 DUP8 ADD SWAP5 SWAP3 POP SWAP1 DUP7 ADD SWAP1 PUSH1 0x1 ADD PUSH2 0x1576 JUMP JUMPDEST POP SWAP1 SWAP9 SWAP8 POP POP POP POP POP POP POP POP JUMP JUMPDEST PUSH4 0x4E487B71 PUSH1 0xE0 SHL PUSH1 0x0 MSTORE PUSH1 0x32 PUSH1 0x4 MSTORE PUSH1 0x24 PUSH1 0x0 REVERT JUMPDEST PUSH4 0x4E487B71 PUSH1 0xE0 SHL PUSH1 0x0 MSTORE PUSH1 0x11 PUSH1 0x4 MSTORE PUSH1 0x24 PUSH1 0x0 REVERT JUMPDEST PUSH1 0x0 PUSH1 0x0 NOT DUP3 EQ ISZERO PUSH2 0x165C JUMPI PUSH2 0x165C PUSH2 0x1632 JUMP JUMPDEST POP PUSH1 0x1 ADD SWAP1 JUMP JUMPDEST PUSH1 0x20 DUP1 DUP3 MSTORE PUSH1 0x22 SWAP1 DUP3 ADD MSTORE PUSH32 0x4F6E6C79206F776E6572732063616E2063616C6C20746869732066756E637469 PUSH1 0x40 DUP3 ADD MSTORE PUSH2 0x37B7 PUSH1 0xF1 SHL PUSH1 0x60 DUP3 ADD MSTORE PUSH1 0x80 ADD SWAP1 JUMP JUMPDEST PUSH1 0x1 DUP2 DUP2 SHR SWAP1 DUP3 AND DUP1 PUSH2 0x16B9 JUMPI PUSH1 0x7F DUP3 AND SWAP2 POP JUMPDEST PUSH1 0x20 DUP3 LT DUP2 EQ ISZERO PUSH2 0x16DA JUMPI PUSH4 0x4E487B71 PUSH1 0xE0 SHL PUSH1 0x0 MSTORE PUSH1 0x22 PUSH1 0x4 MSTORE PUSH1 0x24 PUSH1 0x0 REVERT JUMPDEST POP SWAP2 SWAP1 POP JUMP JUMPDEST PUSH1 0x20 DUP1 DUP3 MSTORE PUSH1 0x24 SWAP1 DUP3 ADD MSTORE PUSH32 0x54686520706F6C6C206D75737420626520696E20616E20616374697665207374 PUSH1 0x40 DUP3 ADD MSTORE PUSH4 0x30BA3297 PUSH1 0xE1 SHL PUSH1 0x60 DUP3 ADD MSTORE PUSH1 0x80 ADD SWAP1 JUMP JUMPDEST PUSH1 0x0 DUP2 PUSH2 0x1733 JUMPI PUSH2 0x1733 PUSH2 0x1632 JUMP JUMPDEST POP PUSH1 0x0 NOT ADD SWAP1 JUMP JUMPDEST PUSH1 0x0 DUP3 NOT DUP3 GT ISZERO PUSH2 0x174E JUMPI PUSH2 0x174E PUSH2 0x1632 JUMP JUMPDEST POP ADD SWAP1 JUMP JUMPDEST PUSH2 0x175D DUP2 DUP6 PUSH2 0x1519 JUMP JUMPDEST PUSH2 0x176A PUSH1 0x20 DUP3 ADD DUP5 PUSH2 0x1519 JUMP JUMPDEST PUSH1 0x60 PUSH1 0x40 DUP3 ADD MSTORE PUSH1 0x0 PUSH2 0x1780 PUSH1 0x60 DUP4 ADD DUP5 PUSH2 0x11E3 JUMP JUMPDEST SWAP6 SWAP5 POP POP POP POP POP JUMP INVALID LOG2 PUSH5 0x6970667358 0x22 SLT KECCAK256 MSIZE PUSH23 0x25C6CA3F6330A5C497CB6367E65B68219EDCD68ED926A3 0x2E BLOCKHASH SHL 0xEE 0x2C 0xE9 0xEB PUSH5 0x736F6C6343 STOP ADDMOD 0xC STOP CALLER PUSH1 0x80 PUSH1 0x40 MSTORE CALLVALUE DUP1 ISZERO PUSH2 0x10 JUMPI PUSH1 0x0 DUP1 REVERT JUMPDEST POP PUSH2 0x724 DUP1 PUSH2 0x20 PUSH1 0x0 CODECOPY PUSH1 0x0 RETURN INVALID PUSH1 0x80 PUSH1 0x40 MSTORE CALLVALUE DUP1 ISZERO PUSH2 0x10 JUMPI PUSH1 0x0 DUP1 REVERT JUMPDEST POP PUSH1 0x4 CALLDATASIZE LT PUSH2 0x4C JUMPI PUSH1 0x0 CALLDATALOAD PUSH1 0xE0 SHR DUP1 PUSH4 0x2C6E7598 EQ PUSH2 0x51 JUMPI DUP1 PUSH4 0x69F9AD2F EQ PUSH2 0x7A JUMPI DUP1 PUSH4 0xEFC6C18C EQ PUSH2 0xA6 JUMPI DUP1 PUSH4 0xFD3BAD52 EQ PUSH2 0xBC JUMPI JUMPDEST PUSH1 0x0 DUP1 REVERT JUMPDEST PUSH2 0x64 PUSH2 0x5F CALLDATASIZE PUSH1 0x4 PUSH2 0x3A6 JUMP JUMPDEST PUSH2 0xCF JUMP JUMPDEST PUSH1 0x40 MLOAD PUSH2 0x71 SWAP2 SWAP1 PUSH2 0x3CF JUMP JUMPDEST PUSH1 0x40 MLOAD DUP1 SWAP2 SUB SWAP1 RETURN JUMPDEST PUSH2 0x8D PUSH2 0x88 CALLDATASIZE PUSH1 0x4 PUSH2 0x43D JUMP JUMPDEST PUSH2 0x2D9 JUMP JUMPDEST PUSH1 0x40 MLOAD PUSH1 0x1 PUSH1 0x1 PUSH1 0xF8 SHL SUB NOT SWAP1 SWAP2 AND DUP2 MSTORE PUSH1 0x20 ADD PUSH2 0x71 JUMP JUMPDEST PUSH2 0xAE PUSH2 0x30F JUMP JUMPDEST PUSH1 0x40 MLOAD SWAP1 DUP2 MSTORE PUSH1 0x20 ADD PUSH2 0x71 JUMP JUMPDEST PUSH2 0xAE PUSH2 0xCA CALLDATASIZE PUSH1 0x4 PUSH2 0x45A JUMP JUMPDEST PUSH2 0x371 JUMP JUMPDEST PUSH1 0x40 DUP1 MLOAD PUSH1 0x28 DUP1 DUP3 MSTORE PUSH1 0x60 DUP3 DUP2 ADD SWAP1 SWAP4 MSTORE PUSH1 0x0 SWAP2 SWAP1 PUSH1 0x20 DUP3 ADD DUP2 DUP1 CALLDATASIZE DUP4 CALLDATACOPY ADD SWAP1 POP POP SWAP1 POP PUSH1 0x0 JUMPDEST PUSH1 0x14 DUP2 LT ISZERO PUSH2 0x2D2 JUMPI PUSH1 0x0 PUSH2 0x10C DUP3 PUSH1 0x13 PUSH2 0x492 JUMP JUMPDEST PUSH2 0x117 SWAP1 PUSH1 0x8 PUSH2 0x4A9 JUMP JUMPDEST PUSH2 0x122 SWAP1 PUSH1 0x2 PUSH2 0x5AC JUMP JUMPDEST PUSH2 0x135 SWAP1 PUSH1 0x1 PUSH1 0x1 PUSH1 0xA0 SHL SUB DUP8 AND PUSH2 0x5D5 JUMP JUMPDEST PUSH1 0xF8 SHL SWAP1 POP PUSH1 0x0 PUSH1 0x10 DUP3 PUSH1 0xF8 SHR PUSH2 0x14C SWAP2 SWAP1 PUSH2 0x5E9 JUMP JUMPDEST PUSH1 0xF8 SHL SWAP1 POP PUSH1 0x0 DUP2 PUSH1 0xF8 SHR PUSH1 0x10 PUSH2 0x163 SWAP2 SWAP1 PUSH2 0x60B JUMP JUMPDEST DUP4 PUSH1 0xF8 SHR PUSH2 0x171 SWAP2 SWAP1 PUSH2 0x62C JUMP JUMPDEST PUSH1 0x40 MLOAD PUSH4 0x69F9AD2F PUSH1 0xE0 SHL DUP2 MSTORE PUSH1 0x1 PUSH1 0x1 PUSH1 0xF8 SHL SUB NOT DUP5 AND PUSH1 0x4 DUP3 ADD MSTORE PUSH1 0xF8 SWAP2 SWAP1 SWAP2 SHL SWAP2 POP ADDRESS SWAP1 PUSH4 0x69F9AD2F SWAP1 PUSH1 0x24 ADD PUSH1 0x20 PUSH1 0x40 MLOAD DUP1 DUP4 SUB DUP2 DUP7 GAS STATICCALL ISZERO DUP1 ISZERO PUSH2 0x1BE JUMPI RETURNDATASIZE PUSH1 0x0 DUP1 RETURNDATACOPY RETURNDATASIZE PUSH1 0x0 REVERT JUMPDEST POP POP POP POP PUSH1 0x40 MLOAD RETURNDATASIZE PUSH1 0x1F NOT PUSH1 0x1F DUP3 ADD AND DUP3 ADD DUP1 PUSH1 0x40 MSTORE POP DUP2 ADD SWAP1 PUSH2 0x1E2 SWAP2 SWAP1 PUSH2 0x64F JUMP JUMPDEST DUP6 PUSH2 0x1EE DUP7 PUSH1 0x2 PUSH2 0x4A9 JUMP JUMPDEST DUP2 MLOAD DUP2 LT PUSH2 0x1FE JUMPI PUSH2 0x1FE PUSH2 0x66C JUMP JUMPDEST PUSH1 0x20 ADD ADD SWAP1 PUSH1 0x1 PUSH1 0x1 PUSH1 0xF8 SHL SUB NOT AND SWAP1 DUP2 PUSH1 0x0 BYTE SWAP1 MSTORE8 POP PUSH1 0x40 MLOAD PUSH4 0x69F9AD2F PUSH1 0xE0 SHL DUP2 MSTORE PUSH1 0x1 PUSH1 0x1 PUSH1 0xF8 SHL SUB NOT DUP3 AND PUSH1 0x4 DUP3 ADD MSTORE ADDRESS SWAP1 PUSH4 0x69F9AD2F SWAP1 PUSH1 0x24 ADD PUSH1 0x20 PUSH1 0x40 MLOAD DUP1 DUP4 SUB DUP2 DUP7 GAS STATICCALL ISZERO DUP1 ISZERO PUSH2 0x25A JUMPI RETURNDATASIZE PUSH1 0x0 DUP1 RETURNDATACOPY RETURNDATASIZE PUSH1 0x0 REVERT JUMPDEST POP POP POP POP PUSH1 0x40 MLOAD RETURNDATASIZE PUSH1 0x1F NOT PUSH1 0x1F DUP3 ADD AND DUP3 ADD DUP1 PUSH1 0x40 MSTORE POP DUP2 ADD SWAP1 PUSH2 0x27E SWAP2 SWAP1 PUSH2 0x64F JUMP JUMPDEST DUP6 PUSH2 0x28A DUP7 PUSH1 0x2 PUSH2 0x4A9 JUMP JUMPDEST PUSH2 0x295 SWAP1 PUSH1 0x1 PUSH2 0x682 JUMP JUMPDEST DUP2 MLOAD DUP2 LT PUSH2 0x2A5 JUMPI PUSH2 0x2A5 PUSH2 0x66C JUMP JUMPDEST PUSH1 0x20 ADD ADD SWAP1 PUSH1 0x1 PUSH1 0x1 PUSH1 0xF8 SHL SUB NOT AND SWAP1 DUP2 PUSH1 0x0 BYTE SWAP1 MSTORE8 POP POP POP POP DUP1 DUP1 PUSH2 0x2CA SWAP1 PUSH2 0x69A JUMP JUMPDEST SWAP2 POP POP PUSH2 0xF6 JUMP JUMPDEST POP SWAP3 SWAP2 POP POP JUMP JUMPDEST PUSH1 0x0 PUSH1 0xA PUSH1 0xF8 DUP4 SWAP1 SHR LT ISZERO PUSH2 0x300 JUMPI PUSH2 0x2F7 PUSH1 0xF8 DUP4 SWAP1 SHR PUSH1 0x30 PUSH2 0x6B5 JUMP JUMPDEST PUSH1 0xF8 SHL SWAP3 SWAP2 POP POP JUMP JUMPDEST PUSH2 0x2F7 PUSH1 0xF8 DUP4 SWAP1 SHR PUSH1 0x57 PUSH2 0x6B5 JUMP JUMPDEST PUSH1 0x40 DUP1 MLOAD PUSH1 0x0 PUSH1 0x20 DUP1 DUP4 ADD DUP3 SWAP1 MSTORE TIMESTAMP DUP4 DUP6 ADD MSTORE DIFFICULTY PUSH1 0x60 DUP1 DUP6 ADD SWAP2 SWAP1 SWAP2 MSTORE COINBASE SWAP1 SHL PUSH12 0xFFFFFFFFFFFFFFFFFFFFFFFF NOT AND PUSH1 0x80 DUP5 ADD MSTORE DUP4 MLOAD DUP1 DUP5 SUB PUSH1 0x74 ADD DUP2 MSTORE PUSH1 0x94 SWAP1 SWAP4 ADD SWAP1 SWAP4 MSTORE DUP2 MLOAD SWAP2 SWAP1 SWAP3 ADD KECCAK256 DUP2 SWAP1 DUP2 PUSH2 0x368 DUP2 PUSH2 0x69A JUMP JUMPDEST POP SWAP1 SWAP4 SWAP3 POP POP POP JUMP JUMPDEST PUSH1 0x0 DUP1 PUSH2 0x37E DUP4 DUP6 PUSH2 0x5D5 JUMP JUMPDEST SWAP1 POP PUSH2 0x38A DUP4 DUP6 PUSH2 0x6DA JUMP JUMPDEST ISZERO PUSH2 0x39D JUMPI PUSH2 0x39A DUP2 PUSH1 0x1 PUSH2 0x682 JUMP JUMPDEST SWAP1 POP JUMPDEST SWAP1 POP JUMPDEST SWAP3 SWAP2 POP POP JUMP JUMPDEST PUSH1 0x0 PUSH1 0x20 DUP3 DUP5 SUB SLT ISZERO PUSH2 0x3B8 JUMPI PUSH1 0x0 DUP1 REVERT JUMPDEST DUP2 CALLDATALOAD PUSH1 0x1 PUSH1 0x1 PUSH1 0xA0 SHL SUB DUP2 AND DUP2 EQ PUSH2 0x39D JUMPI PUSH1 0x0 DUP1 REVERT JUMPDEST PUSH1 0x0 PUSH1 0x20 DUP1 DUP4 MSTORE DUP4 MLOAD DUP1 DUP3 DUP6 ADD MSTORE PUSH1 0x0 JUMPDEST DUP2 DUP2 LT ISZERO PUSH2 0x3FC JUMPI DUP6 DUP2 ADD DUP4 ADD MLOAD DUP6 DUP3 ADD PUSH1 0x40 ADD MSTORE DUP3 ADD PUSH2 0x3E0 JUMP JUMPDEST DUP2 DUP2 GT ISZERO PUSH2 0x40E JUMPI PUSH1 0x0 PUSH1 0x40 DUP4 DUP8 ADD ADD MSTORE JUMPDEST POP PUSH1 0x1F ADD PUSH1 0x1F NOT AND SWAP3 SWAP1 SWAP3 ADD PUSH1 0x40 ADD SWAP4 SWAP3 POP POP POP JUMP JUMPDEST PUSH1 0x1 PUSH1 0x1 PUSH1 0xF8 SHL SUB NOT DUP2 AND DUP2 EQ PUSH2 0x43A JUMPI PUSH1 0x0 DUP1 REVERT JUMPDEST POP JUMP JUMPDEST PUSH1 0x0 PUSH1 0x20 DUP3 DUP5 SUB SLT ISZERO PUSH2 0x44F JUMPI PUSH1 0x0 DUP1 REVERT JUMPDEST DUP2 CALLDATALOAD PUSH2 0x39D DUP2 PUSH2 0x424 JUMP JUMPDEST PUSH1 0x0 DUP1 PUSH1 0x40 DUP4 DUP6 SUB SLT ISZERO PUSH2 0x46D JUMPI PUSH1 0x0 DUP1 REVERT JUMPDEST POP POP DUP1 CALLDATALOAD SWAP3 PUSH1 0x20 SWAP1 SWAP2 ADD CALLDATALOAD SWAP2 POP JUMP JUMPDEST PUSH4 0x4E487B71 PUSH1 0xE0 SHL PUSH1 0x0 MSTORE PUSH1 0x11 PUSH1 0x4 MSTORE PUSH1 0x24 PUSH1 0x0 REVERT JUMPDEST PUSH1 0x0 DUP3 DUP3 LT ISZERO PUSH2 0x4A4 JUMPI PUSH2 0x4A4 PUSH2 0x47C JUMP JUMPDEST POP SUB SWAP1 JUMP JUMPDEST PUSH1 0x0 DUP2 PUSH1 0x0 NOT DIV DUP4 GT DUP3 ISZERO ISZERO AND ISZERO PUSH2 0x4C3 JUMPI PUSH2 0x4C3 PUSH2 0x47C JUMP JUMPDEST POP MUL SWAP1 JUMP JUMPDEST PUSH1 0x1 DUP2 DUP2 JUMPDEST DUP1 DUP6 GT ISZERO PUSH2 0x503 JUMPI DUP2 PUSH1 0x0 NOT DIV DUP3 GT ISZERO PUSH2 0x4E9 JUMPI PUSH2 0x4E9 PUSH2 0x47C JUMP JUMPDEST DUP1 DUP6 AND ISZERO PUSH2 0x4F6 JUMPI SWAP2 DUP2 MUL SWAP2 JUMPDEST SWAP4 DUP5 SHR SWAP4 SWAP1 DUP1 MUL SWAP1 PUSH2 0x4CD JUMP JUMPDEST POP SWAP3 POP SWAP3 SWAP1 POP JUMP JUMPDEST PUSH1 0x0 DUP3 PUSH2 0x51A JUMPI POP PUSH1 0x1 PUSH2 0x3A0 JUMP JUMPDEST DUP2 PUSH2 0x527 JUMPI POP PUSH1 0x0 PUSH2 0x3A0 JUMP JUMPDEST DUP2 PUSH1 0x1 DUP2 EQ PUSH2 0x53D JUMPI PUSH1 0x2 DUP2 EQ PUSH2 0x547 JUMPI PUSH2 0x563 JUMP JUMPDEST PUSH1 0x1 SWAP2 POP POP PUSH2 0x3A0 JUMP JUMPDEST PUSH1 0xFF DUP5 GT ISZERO PUSH2 0x558 JUMPI PUSH2 0x558 PUSH2 0x47C JUMP JUMPDEST POP POP PUSH1 0x1 DUP3 SHL PUSH2 0x3A0 JUMP JUMPDEST POP PUSH1 0x20 DUP4 LT PUSH2 0x133 DUP4 LT AND PUSH1 0x4E DUP5 LT PUSH1 0xB DUP5 LT AND OR ISZERO PUSH2 0x586 JUMPI POP DUP2 DUP2 EXP PUSH2 0x3A0 JUMP JUMPDEST PUSH2 0x590 DUP4 DUP4 PUSH2 0x4C8 JUMP JUMPDEST DUP1 PUSH1 0x0 NOT DIV DUP3 GT ISZERO PUSH2 0x5A4 JUMPI PUSH2 0x5A4 PUSH2 0x47C JUMP JUMPDEST MUL SWAP4 SWAP3 POP POP POP JUMP JUMPDEST PUSH1 0x0 PUSH2 0x5B8 DUP4 DUP4 PUSH2 0x50B JUMP JUMPDEST SWAP4 SWAP3 POP POP POP JUMP JUMPDEST PUSH4 0x4E487B71 PUSH1 0xE0 SHL PUSH1 0x0 MSTORE PUSH1 0x12 PUSH1 0x4 MSTORE PUSH1 0x24 PUSH1 0x0 REVERT JUMPDEST PUSH1 0x0 DUP3 PUSH2 0x5E4 JUMPI PUSH2 0x5E4 PUSH2 0x5BF JUMP JUMPDEST POP DIV SWAP1 JUMP JUMPDEST PUSH1 0x0 PUSH1 0xFF DUP4 AND DUP1 PUSH2 0x5FC JUMPI PUSH2 0x5FC PUSH2 0x5BF JUMP JUMPDEST DUP1 PUSH1 0xFF DUP5 AND DIV SWAP2 POP POP SWAP3 SWAP2 POP POP JUMP JUMPDEST PUSH1 0x0 PUSH1 0xFF DUP3 AND PUSH1 0xFF DUP5 AND DUP2 PUSH1 0xFF DIV DUP2 GT DUP3 ISZERO ISZERO AND ISZERO PUSH2 0x5A4 JUMPI PUSH2 0x5A4 PUSH2 0x47C JUMP JUMPDEST PUSH1 0x0 PUSH1 0xFF DUP3 AND PUSH1 0xFF DUP5 AND DUP1 DUP3 LT ISZERO PUSH2 0x646 JUMPI PUSH2 0x646 PUSH2 0x47C JUMP JUMPDEST SWAP1 SUB SWAP4 SWAP3 POP POP POP JUMP JUMPDEST PUSH1 0x0 PUSH1 0x20 DUP3 DUP5 SUB SLT ISZERO PUSH2 0x661 JUMPI PUSH1 0x0 DUP1 REVERT JUMPDEST DUP2 MLOAD PUSH2 0x39D DUP2 PUSH2 0x424 JUMP JUMPDEST PUSH4 0x4E487B71 PUSH1 0xE0 SHL PUSH1 0x0 MSTORE PUSH1 0x32 PUSH1 0x4 MSTORE PUSH1 0x24 PUSH1 0x0 REVERT JUMPDEST PUSH1 0x0 DUP3 NOT DUP3 GT ISZERO PUSH2 0x695 JUMPI PUSH2 0x695 PUSH2 0x47C JUMP JUMPDEST POP ADD SWAP1 JUMP JUMPDEST PUSH1 0x0 PUSH1 0x0 NOT DUP3 EQ ISZERO PUSH2 0x6AE JUMPI PUSH2 0x6AE PUSH2 0x47C JUMP JUMPDEST POP PUSH1 0x1 ADD SWAP1 JUMP JUMPDEST PUSH1 0x0 PUSH1 0xFF DUP3 AND PUSH1 0xFF DUP5 AND DUP1 PUSH1 0xFF SUB DUP3 GT ISZERO PUSH2 0x6D2 JUMPI PUSH2 0x6D2 PUSH2 0x47C JUMP JUMPDEST ADD SWAP4 SWAP3 POP POP POP JUMP JUMPDEST PUSH1 0x0 DUP3 PUSH2 0x6E9 JUMPI PUSH2 0x6E9 PUSH2 0x5BF JUMP JUMPDEST POP MOD SWAP1 JUMP INVALID LOG2 PUSH5 0x6970667358 0x22 SLT KECCAK256 0xC4 PUSH3 0x53C53E CALL SWAP5 0xD6 EXTCODEHASH COINBASE 0xC9 EXTCODEHASH 0xB1 SMOD OR EXP PUSH7 0xC061EF365DBF58 0xB0 PUSH25 0x2A6A752FBE5164736F6C634300080C00336080604052348015 PUSH2 0x10 JUMPI PUSH1 0x0 DUP1 REVERT JUMPDEST POP PUSH2 0x724 DUP1 PUSH2 0x20 PUSH1 0x0 CODECOPY PUSH1 0x0 RETURN INVALID PUSH1 0x80 PUSH1 0x40 MSTORE CALLVALUE DUP1 ISZERO PUSH2 0x10 JUMPI PUSH1 0x0 DUP1 REVERT JUMPDEST POP PUSH1 0x4 CALLDATASIZE LT PUSH2 0x4C JUMPI PUSH1 0x0 CALLDATALOAD PUSH1 0xE0 SHR DUP1 PUSH4 0x2C6E7598 EQ PUSH2 0x51 JUMPI DUP1 PUSH4 0x69F9AD2F EQ PUSH2 0x7A JUMPI DUP1 PUSH4 0xEFC6C18C EQ PUSH2 0xA6 JUMPI DUP1 PUSH4 0xFD3BAD52 EQ PUSH2 0xBC JUMPI JUMPDEST PUSH1 0x0 DUP1 REVERT JUMPDEST PUSH2 0x64 PUSH2 0x5F CALLDATASIZE PUSH1 0x4 PUSH2 0x3A6 JUMP JUMPDEST PUSH2 0xCF JUMP JUMPDEST PUSH1 0x40 MLOAD PUSH2 0x71 SWAP2 SWAP1 PUSH2 0x3CF JUMP JUMPDEST PUSH1 0x40 MLOAD DUP1 SWAP2 SUB SWAP1 RETURN JUMPDEST PUSH2 0x8D PUSH2 0x88 CALLDATASIZE PUSH1 0x4 PUSH2 0x43D JUMP JUMPDEST PUSH2 0x2D9 JUMP JUMPDEST PUSH1 0x40 MLOAD PUSH1 0x1 PUSH1 0x1 PUSH1 0xF8 SHL SUB NOT SWAP1 SWAP2 AND DUP2 MSTORE PUSH1 0x20 ADD PUSH2 0x71 JUMP JUMPDEST PUSH2 0xAE PUSH2 0x30F JUMP JUMPDEST PUSH1 0x40 MLOAD SWAP1 DUP2 MSTORE PUSH1 0x20 ADD PUSH2 0x71 JUMP JUMPDEST PUSH2 0xAE PUSH2 0xCA CALLDATASIZE PUSH1 0x4 PUSH2 0x45A JUMP JUMPDEST PUSH2 0x371 JUMP JUMPDEST PUSH1 0x40 DUP1 MLOAD PUSH1 0x28 DUP1 DUP3 MSTORE PUSH1 0x60 DUP3 DUP2 ADD SWAP1 SWAP4 MSTORE PUSH1 0x0 SWAP2 SWAP1 PUSH1 0x20 DUP3 ADD DUP2 DUP1 CALLDATASIZE DUP4 CALLDATACOPY ADD SWAP1 POP POP SWAP1 POP PUSH1 0x0 JUMPDEST PUSH1 0x14 DUP2 LT ISZERO PUSH2 0x2D2 JUMPI PUSH1 0x0 PUSH2 0x10C DUP3 PUSH1 0x13 PUSH2 0x492 JUMP JUMPDEST PUSH2 0x117 SWAP1 PUSH1 0x8 PUSH2 0x4A9 JUMP JUMPDEST PUSH2 0x122 SWAP1 PUSH1 0x2 PUSH2 0x5AC JUMP JUMPDEST PUSH2 0x135 SWAP1 PUSH1 0x1 PUSH1 0x1 PUSH1 0xA0 SHL SUB DUP8 AND PUSH2 0x5D5 JUMP JUMPDEST PUSH1 0xF8 SHL SWAP1 POP PUSH1 0x0 PUSH1 0x10 DUP3 PUSH1 0xF8 SHR PUSH2 0x14C SWAP2 SWAP1 PUSH2 0x5E9 JUMP JUMPDEST PUSH1 0xF8 SHL SWAP1 POP PUSH1 0x0 DUP2 PUSH1 0xF8 SHR PUSH1 0x10 PUSH2 0x163 SWAP2 SWAP1 PUSH2 0x60B JUMP JUMPDEST DUP4 PUSH1 0xF8 SHR PUSH2 0x171 SWAP2 SWAP1 PUSH2 0x62C JUMP JUMPDEST PUSH1 0x40 MLOAD PUSH4 0x69F9AD2F PUSH1 0xE0 SHL DUP2 MSTORE PUSH1 0x1 PUSH1 0x1 PUSH1 0xF8 SHL SUB NOT DUP5 AND PUSH1 0x4 DUP3 ADD MSTORE PUSH1 0xF8 SWAP2 SWAP1 SWAP2 SHL SWAP2 POP ADDRESS SWAP1 PUSH4 0x69F9AD2F SWAP1 PUSH1 0x24 ADD PUSH1 0x20 PUSH1 0x40 MLOAD DUP1 DUP4 SUB DUP2 DUP7 GAS STATICCALL ISZERO DUP1 ISZERO PUSH2 0x1BE JUMPI RETURNDATASIZE PUSH1 0x0 DUP1 RETURNDATACOPY RETURNDATASIZE PUSH1 0x0 REVERT JUMPDEST POP POP POP POP PUSH1 0x40 MLOAD RETURNDATASIZE PUSH1 0x1F NOT PUSH1 0x1F DUP3 ADD AND DUP3 ADD DUP1 PUSH1 0x40 MSTORE POP DUP2 ADD SWAP1 PUSH2 0x1E2 SWAP2 SWAP1 PUSH2 0x64F JUMP JUMPDEST DUP6 PUSH2 0x1EE DUP7 PUSH1 0x2 PUSH2 0x4A9 JUMP JUMPDEST DUP2 MLOAD DUP2 LT PUSH2 0x1FE JUMPI PUSH2 0x1FE PUSH2 0x66C JUMP JUMPDEST PUSH1 0x20 ADD ADD SWAP1 PUSH1 0x1 PUSH1 0x1 PUSH1 0xF8 SHL SUB NOT AND SWAP1 DUP2 PUSH1 0x0 BYTE SWAP1 MSTORE8 POP PUSH1 0x40 MLOAD PUSH4 0x69F9AD2F PUSH1 0xE0 SHL DUP2 MSTORE PUSH1 0x1 PUSH1 0x1 PUSH1 0xF8 SHL SUB NOT DUP3 AND PUSH1 0x4 DUP3 ADD MSTORE ADDRESS SWAP1 PUSH4 0x69F9AD2F SWAP1 PUSH1 0x24 ADD PUSH1 0x20 PUSH1 0x40 MLOAD DUP1 DUP4 SUB DUP2 DUP7 GAS STATICCALL ISZERO DUP1 ISZERO PUSH2 0x25A JUMPI RETURNDATASIZE PUSH1 0x0 DUP1 RETURNDATACOPY RETURNDATASIZE PUSH1 0x0 REVERT JUMPDEST POP POP POP POP PUSH1 0x40 MLOAD RETURNDATASIZE PUSH1 0x1F NOT PUSH1 0x1F DUP3 ADD AND DUP3 ADD DUP1 PUSH1 0x40 MSTORE POP DUP2 ADD SWAP1 PUSH2 0x27E SWAP2 SWAP1 PUSH2 0x64F JUMP JUMPDEST DUP6 PUSH2 0x28A DUP7 PUSH1 0x2 PUSH2 0x4A9 JUMP JUMPDEST PUSH2 0x295 SWAP1 PUSH1 0x1 PUSH2 0x682 JUMP JUMPDEST DUP2 MLOAD DUP2 LT PUSH2 0x2A5 JUMPI PUSH2 0x2A5 PUSH2 0x66C JUMP JUMPDEST PUSH1 0x20 ADD ADD SWAP1 PUSH1 0x1 PUSH1 0x1 PUSH1 0xF8 SHL SUB NOT AND SWAP1 DUP2 PUSH1 0x0 BYTE SWAP1 MSTORE8 POP POP POP POP DUP1 DUP1 PUSH2 0x2CA SWAP1 PUSH2 0x69A JUMP JUMPDEST SWAP2 POP POP PUSH2 0xF6 JUMP JUMPDEST POP SWAP3 SWAP2 POP POP JUMP JUMPDEST PUSH1 0x0 PUSH1 0xA PUSH1 0xF8 DUP4 SWAP1 SHR LT ISZERO PUSH2 0x300 JUMPI PUSH2 0x2F7 PUSH1 0xF8 DUP4 SWAP1 SHR PUSH1 0x30 PUSH2 0x6B5 JUMP JUMPDEST PUSH1 0xF8 SHL SWAP3 SWAP2 POP POP JUMP JUMPDEST PUSH2 0x2F7 PUSH1 0xF8 DUP4 SWAP1 SHR PUSH1 0x57 PUSH2 0x6B5 JUMP JUMPDEST PUSH1 0x40 DUP1 MLOAD PUSH1 0x0 PUSH1 0x20 DUP1 DUP4 ADD DUP3 SWAP1 MSTORE TIMESTAMP DUP4 DUP6 ADD MSTORE DIFFICULTY PUSH1 0x60 DUP1 DUP6 ADD SWAP2 SWAP1 SWAP2 MSTORE COINBASE SWAP1 SHL PUSH12 0xFFFFFFFFFFFFFFFFFFFFFFFF NOT AND PUSH1 0x80 DUP5 ADD MSTORE DUP4 MLOAD DUP1 DUP5 SUB PUSH1 0x74 ADD DUP2 MSTORE PUSH1 0x94 SWAP1 SWAP4 ADD SWAP1 SWAP4 MSTORE DUP2 MLOAD SWAP2 SWAP1 SWAP3 ADD KECCAK256 DUP2 SWAP1 DUP2 PUSH2 0x368 DUP2 PUSH2 0x69A JUMP JUMPDEST POP SWAP1 SWAP4 SWAP3 POP POP POP JUMP JUMPDEST PUSH1 0x0 DUP1 PUSH2 0x37E DUP4 DUP6 PUSH2 0x5D5 JUMP JUMPDEST SWAP1 POP PUSH2 0x38A DUP4 DUP6 PUSH2 0x6DA JUMP JUMPDEST ISZERO PUSH2 0x39D JUMPI PUSH2 0x39A DUP2 PUSH1 0x1 PUSH2 0x682 JUMP JUMPDEST SWAP1 POP JUMPDEST SWAP1 POP JUMPDEST SWAP3 SWAP2 POP POP JUMP JUMPDEST PUSH1 0x0 PUSH1 0x20 DUP3 DUP5 SUB SLT ISZERO PUSH2 0x3B8 JUMPI PUSH1 0x0 DUP1 REVERT JUMPDEST DUP2 CALLDATALOAD PUSH1 0x1 PUSH1 0x1 PUSH1 0xA0 SHL SUB DUP2 AND DUP2 EQ PUSH2 0x39D JUMPI PUSH1 0x0 DUP1 REVERT JUMPDEST PUSH1 0x0 PUSH1 0x20 DUP1 DUP4 MSTORE DUP4 MLOAD DUP1 DUP3 DUP6 ADD MSTORE PUSH1 0x0 JUMPDEST DUP2 DUP2 LT ISZERO PUSH2 0x3FC JUMPI DUP6 DUP2 ADD DUP4 ADD MLOAD DUP6 DUP3 ADD PUSH1 0x40 ADD MSTORE DUP3 ADD PUSH2 0x3E0 JUMP JUMPDEST DUP2 DUP2 GT ISZERO PUSH2 0x40E JUMPI PUSH1 0x0 PUSH1 0x40 DUP4 DUP8 ADD ADD MSTORE JUMPDEST POP PUSH1 0x1F ADD PUSH1 0x1F NOT AND SWAP3 SWAP1 SWAP3 ADD PUSH1 0x40 ADD SWAP4 SWAP3 POP POP POP JUMP JUMPDEST PUSH1 0x1 PUSH1 0x1 PUSH1 0xF8 SHL SUB NOT DUP2 AND DUP2 EQ PUSH2 0x43A JUMPI PUSH1 0x0 DUP1 REVERT JUMPDEST POP JUMP JUMPDEST PUSH1 0x0 PUSH1 0x20 DUP3 DUP5 SUB SLT ISZERO PUSH2 0x44F JUMPI PUSH1 0x0 DUP1 REVERT JUMPDEST DUP2 CALLDATALOAD PUSH2 0x39D DUP2 PUSH2 0x424 JUMP JUMPDEST PUSH1 0x0 DUP1 PUSH1 0x40 DUP4 DUP6 SUB SLT ISZERO PUSH2 0x46D JUMPI PUSH1 0x0 DUP1 REVERT JUMPDEST POP POP DUP1 CALLDATALOAD SWAP3 PUSH1 0x20 SWAP1 SWAP2 ADD CALLDATALOAD SWAP2 POP JUMP JUMPDEST PUSH4 0x4E487B71 PUSH1 0xE0 SHL PUSH1 0x0 MSTORE PUSH1 0x11 PUSH1 0x4 MSTORE PUSH1 0x24 PUSH1 0x0 REVERT JUMPDEST PUSH1 0x0 DUP3 DUP3 LT ISZERO PUSH2 0x4A4 JUMPI PUSH2 0x4A4 PUSH2 0x47C JUMP JUMPDEST POP SUB SWAP1 JUMP JUMPDEST PUSH1 0x0 DUP2 PUSH1 0x0 NOT DIV DUP4 GT DUP3 ISZERO ISZERO AND ISZERO PUSH2 0x4C3 JUMPI PUSH2 0x4C3 PUSH2 0x47C JUMP JUMPDEST POP MUL SWAP1 JUMP JUMPDEST PUSH1 0x1 DUP2 DUP2 JUMPDEST DUP1 DUP6 GT ISZERO PUSH2 0x503 JUMPI DUP2 PUSH1 0x0 NOT DIV DUP3 GT ISZERO PUSH2 0x4E9 JUMPI PUSH2 0x4E9 PUSH2 0x47C JUMP JUMPDEST DUP1 DUP6 AND ISZERO PUSH2 0x4F6 JUMPI SWAP2 DUP2 MUL SWAP2 JUMPDEST SWAP4 DUP5 SHR SWAP4 SWAP1 DUP1 MUL SWAP1 PUSH2 0x4CD JUMP JUMPDEST POP SWAP3 POP SWAP3 SWAP1 POP JUMP JUMPDEST PUSH1 0x0 DUP3 PUSH2 0x51A JUMPI POP PUSH1 0x1 PUSH2 0x3A0 JUMP JUMPDEST DUP2 PUSH2 0x527 JUMPI POP PUSH1 0x0 PUSH2 0x3A0 JUMP JUMPDEST DUP2 PUSH1 0x1 DUP2 EQ PUSH2 0x53D JUMPI PUSH1 0x2 DUP2 EQ PUSH2 0x547 JUMPI PUSH2 0x563 JUMP JUMPDEST PUSH1 0x1 SWAP2 POP POP PUSH2 0x3A0 JUMP JUMPDEST PUSH1 0xFF DUP5 GT ISZERO PUSH2 0x558 JUMPI PUSH2 0x558 PUSH2 0x47C JUMP JUMPDEST POP POP PUSH1 0x1 DUP3 SHL PUSH2 0x3A0 JUMP JUMPDEST POP PUSH1 0x20 DUP4 LT PUSH2 0x133 DUP4 LT AND PUSH1 0x4E DUP5 LT PUSH1 0xB DUP5 LT AND OR ISZERO PUSH2 0x586 JUMPI POP DUP2 DUP2 EXP PUSH2 0x3A0 JUMP JUMPDEST PUSH2 0x590 DUP4 DUP4 PUSH2 0x4C8 JUMP JUMPDEST DUP1 PUSH1 0x0 NOT DIV DUP3 GT ISZERO PUSH2 0x5A4 JUMPI PUSH2 0x5A4 PUSH2 0x47C JUMP JUMPDEST MUL SWAP4 SWAP3 POP POP POP JUMP JUMPDEST PUSH1 0x0 PUSH2 0x5B8 DUP4 DUP4 PUSH2 0x50B JUMP JUMPDEST SWAP4 SWAP3 POP POP POP JUMP JUMPDEST PUSH4 0x4E487B71 PUSH1 0xE0 SHL PUSH1 0x0 MSTORE PUSH1 0x12 PUSH1 0x4 MSTORE PUSH1 0x24 PUSH1 0x0 REVERT JUMPDEST PUSH1 0x0 DUP3 PUSH2 0x5E4 JUMPI PUSH2 0x5E4 PUSH2 0x5BF JUMP JUMPDEST POP DIV SWAP1 JUMP JUMPDEST PUSH1 0x0 PUSH1 0xFF DUP4 AND DUP1 PUSH2 0x5FC JUMPI PUSH2 0x5FC PUSH2 0x5BF JUMP JUMPDEST DUP1 PUSH1 0xFF DUP5 AND DIV SWAP2 POP POP SWAP3 SWAP2 POP POP JUMP JUMPDEST PUSH1 0x0 PUSH1 0xFF DUP3 AND PUSH1 0xFF DUP5 AND DUP2 PUSH1 0xFF DIV DUP2 GT DUP3 ISZERO ISZERO AND ISZERO PUSH2 0x5A4 JUMPI PUSH2 0x5A4 PUSH2 0x47C JUMP JUMPDEST PUSH1 0x0 PUSH1 0xFF DUP3 AND PUSH1 0xFF DUP5 AND DUP1 DUP3 LT ISZERO PUSH2 0x646 JUMPI PUSH2 0x646 PUSH2 0x47C JUMP JUMPDEST SWAP1 SUB SWAP4 SWAP3 POP POP POP JUMP JUMPDEST PUSH1 0x0 PUSH1 0x20 DUP3 DUP5 SUB SLT ISZERO PUSH2 0x661 JUMPI PUSH1 0x0 DUP1 REVERT JUMPDEST DUP2 MLOAD PUSH2 0x39D DUP2 PUSH2 0x424 JUMP JUMPDEST PUSH4 0x4E487B71 PUSH1 0xE0 SHL PUSH1 0x0 MSTORE PUSH1 0x32 PUSH1 0x4 MSTORE PUSH1 0x24 PUSH1 0x0 REVERT JUMPDEST PUSH1 0x0 DUP3 NOT DUP3 GT ISZERO PUSH2 0x695 JUMPI PUSH2 0x695 PUSH2 0x47C JUMP JUMPDEST POP ADD SWAP1 JUMP JUMPDEST PUSH1 0x0 PUSH1 0x0 NOT DUP3 EQ ISZERO PUSH2 0x6AE JUMPI PUSH2 0x6AE PUSH2 0x47C JUMP JUMPDEST POP PUSH1 0x1 ADD SWAP1 JUMP JUMPDEST PUSH1 0x0 PUSH1 0xFF DUP3 AND PUSH1 0xFF DUP5 AND DUP1 PUSH1 0xFF SUB DUP3 GT ISZERO PUSH2 0x6D2 JUMPI PUSH2 0x6D2 PUSH2 0x47C JUMP JUMPDEST ADD SWAP4 SWAP3 POP POP POP JUMP JUMPDEST PUSH1 0x0 DUP3 PUSH2 0x6E9 JUMPI PUSH2 0x6E9 PUSH2 0x5BF JUMP JUMPDEST POP MOD SWAP1 JUMP INVALID LOG2 PUSH5 0x6970667358 0x22 SLT KECCAK256 0xC4 PUSH3 0x53C53E CALL SWAP5 0xD6 EXTCODEHASH COINBASE 0xC9 EXTCODEHASH 0xB1 SMOD OR EXP PUSH7 0xC061EF365DBF58 0xB0 PUSH25 0x2A6A752FBE5164736F6C634300080C00330000000000000000 "
		},
		"gasEstimates": {
			"creation": {
				"codeDepositCost": "735000",
				"executionCost": "infinite",
				"totalCost": "infinite"
			},
			"external": {
				"addOption(string,string)": "infinite",
				"addSupport()": "infinite",
				"announcementThresholdInDays()": "2329",
				"canCreate()": "infinite",
				"canSupport()": "infinite",
				"canVote()": "infinite",
				"cancelationReason()": "2474",
				"checkAnnouncementDeadlineReached()": "infinite",
				"checkAnnouncementThresholdReached()": "infinite",
				"checkPublicationDeadlineReached()": "infinite",
				"checkPublicationThresholdReached()": "infinite",
				"disableOption(uint256)": "infinite",
				"owners(uint256)": "4660",
				"publicationThresholdInDays()": "2416",
				"removeSupport()": "57434",
				"removeVoteForOption()": "infinite",
				"state()": "2417",
				"supportShareNeededToAnnounce()": "2308",
				"supportShareNeededToPublish()": "2395",
				"supporterCount()": "2374",
				"voteForOption(uint256)": "infinite"
			}
		},
		"methodIdentifiers": {
			"addOption(string,string)": "4b67e07f",
			"addSupport()": "61c4dcb9",
			"announcementThresholdInDays()": "6ae04928",
			"canCreate()": "757ccd3b",
			"canSupport()": "ada89616",
			"canVote()": "159e7064",
			"cancelationReason()": "3e422f5f",
			"checkAnnouncementDeadlineReached()": "d12f87d7",
			"checkAnnouncementThresholdReached()": "70a58156",
			"checkPublicationDeadlineReached()": "51e993b8",
			"checkPublicationThresholdReached()": "562ed860",
			"disableOption(uint256)": "4f4a3115",
			"owners(uint256)": "025e7c27",
			"publicationThresholdInDays()": "f3b5a57b",
			"removeSupport()": "b991ef3e",
			"removeVoteForOption()": "d9f3a5c1",
			"state()": "c19d93fb",
			"supportShareNeededToAnnounce()": "02184e7c",
			"supportShareNeededToPublish()": "9d18a2ce",
			"supporterCount()": "231bdb05",
			"voteForOption(uint256)": "64697e2c"
		}
	},
	"abi": [
		{
			"inputs": [
				{
					"internalType": "contract AccountManagement",
					"name": "_accountManagementAddress",
					"type": "address"
				},
				{
					"internalType": "address[]",
					"name": "_owners",
					"type": "address[]"
				},
				{
					"internalType": "string",
					"name": "_title",
					"type": "string"
				},
				{
					"internalType": "string",
					"name": "_description",
					"type": "string"
				}
			],
			"stateMutability": "nonpayable",
			"type": "constructor"
		},
		{
			"inputs": [
				{
					"internalType": "string",
					"name": "_title",
					"type": "string"
				},
				{
					"internalType": "string",
					"name": "_description",
					"type": "string"
				}
			],
			"name": "addOption",
			"outputs": [],
			"stateMutability": "nonpayable",
			"type": "function"
		},
		{
			"inputs": [],
			"name": "addSupport",
			"outputs": [],
			"stateMutability": "nonpayable",
			"type": "function"
		},
		{
			"inputs": [],
			"name": "announcementThresholdInDays",
			"outputs": [
				{
					"internalType": "uint256",
					"name": "",
					"type": "uint256"
				}
			],
			"stateMutability": "view",
			"type": "function"
		},
		{
			"inputs": [],
			"name": "canCreate",
			"outputs": [
				{
					"internalType": "bool",
					"name": "",
					"type": "bool"
				}
			],
			"stateMutability": "view",
			"type": "function"
		},
		{
			"inputs": [],
			"name": "canSupport",
			"outputs": [
				{
					"internalType": "bool",
					"name": "",
					"type": "bool"
				}
			],
			"stateMutability": "view",
			"type": "function"
		},
		{
			"inputs": [],
			"name": "canVote",
			"outputs": [
				{
					"internalType": "bool",
					"name": "",
					"type": "bool"
				}
			],
			"stateMutability": "view",
			"type": "function"
		},
		{
			"inputs": [],
			"name": "cancelationReason",
			"outputs": [
				{
					"internalType": "enum Referendum.CancelationReason",
					"name": "",
					"type": "uint8"
				}
			],
			"stateMutability": "view",
			"type": "function"
		},
		{
			"inputs": [],
			"name": "checkAnnouncementDeadlineReached",
			"outputs": [
				{
					"internalType": "bool",
					"name": "",
					"type": "bool"
				}
			],
			"stateMutability": "view",
			"type": "function"
		},
		{
			"inputs": [],
			"name": "checkAnnouncementThresholdReached",
			"outputs": [
				{
					"internalType": "bool",
					"name": "",
					"type": "bool"
				}
			],
			"stateMutability": "view",
			"type": "function"
		},
		{
			"inputs": [],
			"name": "checkPublicationDeadlineReached",
			"outputs": [
				{
					"internalType": "bool",
					"name": "",
					"type": "bool"
				}
			],
			"stateMutability": "view",
			"type": "function"
		},
		{
			"inputs": [],
			"name": "checkPublicationThresholdReached",
			"outputs": [
				{
					"internalType": "bool",
					"name": "",
					"type": "bool"
				}
			],
			"stateMutability": "view",
			"type": "function"
		},
		{
			"inputs": [
				{
					"internalType": "uint256",
					"name": "_optionId",
					"type": "uint256"
				}
			],
			"name": "disableOption",
			"outputs": [],
			"stateMutability": "nonpayable",
			"type": "function"
		},
		{
			"inputs": [
				{
					"internalType": "uint256",
					"name": "",
					"type": "uint256"
				}
			],
			"name": "owners",
			"outputs": [
				{
					"internalType": "address",
					"name": "",
					"type": "address"
				}
			],
			"stateMutability": "view",
			"type": "function"
		},
		{
			"inputs": [],
			"name": "publicationThresholdInDays",
			"outputs": [
				{
					"internalType": "uint256",
					"name": "",
					"type": "uint256"
				}
			],
			"stateMutability": "view",
			"type": "function"
		},
		{
			"inputs": [],
			"name": "removeSupport",
			"outputs": [],
			"stateMutability": "nonpayable",
			"type": "function"
		},
		{
			"inputs": [],
			"name": "removeVoteForOption",
			"outputs": [],
			"stateMutability": "nonpayable",
			"type": "function"
		},
		{
			"inputs": [],
			"name": "state",
			"outputs": [
				{
					"internalType": "enum Referendum.State",
					"name": "",
					"type": "uint8"
				}
			],
			"stateMutability": "view",
			"type": "function"
		},
		{
			"inputs": [],
			"name": "supportShareNeededToAnnounce",
			"outputs": [
				{
					"internalType": "uint256",
					"name": "",
					"type": "uint256"
				}
			],
			"stateMutability": "view",
			"type": "function"
		},
		{
			"inputs": [],
			"name": "supportShareNeededToPublish",
			"outputs": [
				{
					"internalType": "uint256",
					"name": "",
					"type": "uint256"
				}
			],
			"stateMutability": "view",
			"type": "function"
		},
		{
			"inputs": [],
			"name": "supporterCount",
			"outputs": [
				{
					"internalType": "uint256",
					"name": "",
					"type": "uint256"
				}
			],
			"stateMutability": "view",
			"type": "function"
		},
		{
			"inputs": [
				{
					"internalType": "uint256",
					"name": "_optionId",
					"type": "uint256"
				}
			],
			"name": "voteForOption",
			"outputs": [],
			"stateMutability": "nonpayable",
			"type": "function"
		}
	]
}