{
	"src/contracts/AccountManagement.sol": {
		"AccountManagement": {
			"abi": [
				{
					"inputs": [
						{
							"internalType": "string",
							"name": "_firstName",
							"type": "string"
						},
						{
							"internalType": "string",
							"name": "_lastName",
							"type": "string"
						},
						{
							"internalType": "string",
							"name": "_mailAdress",
							"type": "string"
						}
					],
					"stateMutability": "nonpayable",
					"type": "constructor"
				},
				{
					"inputs": [],
					"name": "_testAccountManagement",
					"outputs": [],
					"stateMutability": "nonpayable",
					"type": "function"
				},
				{
					"inputs": [
						{
							"internalType": "address",
							"name": "_address",
							"type": "address"
						}
					],
					"name": "activateAccount",
					"outputs": [],
					"stateMutability": "nonpayable",
					"type": "function"
				},
				{
					"inputs": [
						{
							"internalType": "address",
							"name": "_sender",
							"type": "address"
						},
						{
							"components": [
								{
									"internalType": "address[]",
									"name": "members",
									"type": "address[]"
								},
								{
									"internalType": "uint256",
									"name": "electionTime",
									"type": "uint256"
								},
								{
									"internalType": "bool",
									"name": "approved",
									"type": "bool"
								}
							],
							"internalType": "struct AccountManagement.Council",
							"name": "_council",
							"type": "tuple"
						}
					],
					"name": "appointCouncil",
					"outputs": [],
					"stateMutability": "nonpayable",
					"type": "function"
				},
				{
					"inputs": [
						{
							"internalType": "address",
							"name": "_sender",
							"type": "address"
						},
						{
							"components": [
								{
									"internalType": "address[]",
									"name": "members",
									"type": "address[]"
								},
								{
									"internalType": "uint256",
									"name": "electionTime",
									"type": "uint256"
								},
								{
									"internalType": "bool",
									"name": "approved",
									"type": "bool"
								}
							],
							"internalType": "struct AccountManagement.LeaderBoard",
							"name": "_leaderBoard",
							"type": "tuple"
						}
					],
					"name": "appointLeaderBoard",
					"outputs": [],
					"stateMutability": "nonpayable",
					"type": "function"
				},
				{
					"inputs": [
						{
							"internalType": "address",
							"name": "_address",
							"type": "address"
						}
					],
					"name": "burnAccount",
					"outputs": [],
					"stateMutability": "nonpayable",
					"type": "function"
				},
				{
					"inputs": [
						{
							"internalType": "address",
							"name": "_address",
							"type": "address"
						},
						{
							"internalType": "string",
							"name": "_firstName",
							"type": "string"
						},
						{
							"internalType": "string",
							"name": "_lastName",
							"type": "string"
						},
						{
							"internalType": "string",
							"name": "_mailAdress",
							"type": "string"
						}
					],
					"name": "createAccount",
					"outputs": [],
					"stateMutability": "nonpayable",
					"type": "function"
				},
				{
					"inputs": [
						{
							"internalType": "address[]",
							"name": "_members",
							"type": "address[]"
						}
					],
					"name": "createCouncil",
					"outputs": [
						{
							"components": [
								{
									"internalType": "address[]",
									"name": "members",
									"type": "address[]"
								},
								{
									"internalType": "uint256",
									"name": "electionTime",
									"type": "uint256"
								},
								{
									"internalType": "bool",
									"name": "approved",
									"type": "bool"
								}
							],
							"internalType": "struct AccountManagement.Council",
							"name": "",
							"type": "tuple"
						}
					],
					"stateMutability": "view",
					"type": "function"
				},
				{
					"inputs": [
						{
							"internalType": "address[]",
							"name": "_members",
							"type": "address[]"
						}
					],
					"name": "createLeaderBoard",
					"outputs": [
						{
							"components": [
								{
									"internalType": "address[]",
									"name": "members",
									"type": "address[]"
								},
								{
									"internalType": "uint256",
									"name": "electionTime",
									"type": "uint256"
								},
								{
									"internalType": "bool",
									"name": "approved",
									"type": "bool"
								}
							],
							"internalType": "struct AccountManagement.LeaderBoard",
							"name": "",
							"type": "tuple"
						}
					],
					"stateMutability": "view",
					"type": "function"
				},
				{
					"inputs": [
						{
							"internalType": "address",
							"name": "_address",
							"type": "address"
						}
					],
					"name": "deactivateAccount",
					"outputs": [],
					"stateMutability": "nonpayable",
					"type": "function"
				},
				{
					"inputs": [],
					"name": "getActiveMemberCount",
					"outputs": [
						{
							"internalType": "uint256",
							"name": "",
							"type": "uint256"
						}
					],
					"stateMutability": "view",
					"type": "function"
				},
				{
					"inputs": [],
					"name": "getCouncil",
					"outputs": [
						{
							"components": [
								{
									"internalType": "address[]",
									"name": "members",
									"type": "address[]"
								},
								{
									"internalType": "uint256",
									"name": "electionTime",
									"type": "uint256"
								},
								{
									"internalType": "bool",
									"name": "approved",
									"type": "bool"
								}
							],
							"internalType": "struct AccountManagement.Council",
							"name": "",
							"type": "tuple"
						}
					],
					"stateMutability": "view",
					"type": "function"
				},
				{
					"inputs": [],
					"name": "getLeaderBoard",
					"outputs": [
						{
							"components": [
								{
									"internalType": "address[]",
									"name": "members",
									"type": "address[]"
								},
								{
									"internalType": "uint256",
									"name": "electionTime",
									"type": "uint256"
								},
								{
									"internalType": "bool",
									"name": "approved",
									"type": "bool"
								}
							],
							"internalType": "struct AccountManagement.LeaderBoard",
							"name": "",
							"type": "tuple"
						}
					],
					"stateMutability": "view",
					"type": "function"
				},
				{
					"inputs": [
						{
							"internalType": "address",
							"name": "_address",
							"type": "address"
						}
					],
					"name": "getUser",
					"outputs": [
						{
							"components": [
								{
									"internalType": "address",
									"name": "userAddress",
									"type": "address"
								},
								{
									"internalType": "string",
									"name": "firstName",
									"type": "string"
								},
								{
									"internalType": "string",
									"name": "lastName",
									"type": "string"
								},
								{
									"internalType": "string",
									"name": "mailAdress",
									"type": "string"
								},
								{
									"internalType": "bool",
									"name": "isActive",
									"type": "bool"
								},
								{
									"components": [
										{
											"internalType": "bool",
											"name": "isLeader",
											"type": "bool"
										},
										{
											"internalType": "bool",
											"name": "isCouncilMember",
											"type": "bool"
										},
										{
											"internalType": "bool",
											"name": "isMember",
											"type": "bool"
										},
										{
											"internalType": "bool",
											"name": "isGuest",
											"type": "bool"
										}
									],
									"internalType": "struct AccountManagement.RoleMap",
									"name": "roleMap",
									"type": "tuple"
								}
							],
							"internalType": "struct AccountManagement.User",
							"name": "",
							"type": "tuple"
						}
					],
					"stateMutability": "view",
					"type": "function"
				},
				{
					"inputs": [
						{
							"internalType": "address",
							"name": "_address",
							"type": "address"
						}
					],
					"name": "hasCouncilMemberRole",
					"outputs": [
						{
							"internalType": "bool",
							"name": "",
							"type": "bool"
						}
					],
					"stateMutability": "view",
					"type": "function"
				},
				{
					"inputs": [
						{
							"internalType": "address",
							"name": "_address",
							"type": "address"
						}
					],
					"name": "hasGuestRole",
					"outputs": [
						{
							"internalType": "bool",
							"name": "",
							"type": "bool"
						}
					],
					"stateMutability": "view",
					"type": "function"
				},
				{
					"inputs": [
						{
							"internalType": "address",
							"name": "_address",
							"type": "address"
						}
					],
					"name": "hasLeaderRole",
					"outputs": [
						{
							"internalType": "bool",
							"name": "",
							"type": "bool"
						}
					],
					"stateMutability": "view",
					"type": "function"
				},
				{
					"inputs": [
						{
							"internalType": "address",
							"name": "_address",
							"type": "address"
						}
					],
					"name": "hasMemberRole",
					"outputs": [
						{
							"internalType": "bool",
							"name": "",
							"type": "bool"
						}
					],
					"stateMutability": "view",
					"type": "function"
				},
				{
					"inputs": [],
					"name": "owner",
					"outputs": [
						{
							"internalType": "address",
							"name": "",
							"type": "address"
						}
					],
					"stateMutability": "view",
					"type": "function"
				},
				{
					"inputs": [
						{
							"internalType": "address",
							"name": "_address",
							"type": "address"
						}
					],
					"name": "userExists",
					"outputs": [
						{
							"internalType": "bool",
							"name": "",
							"type": "bool"
						}
					],
					"stateMutability": "view",
					"type": "function"
				}
			],
			"devdoc": {
				"kind": "dev",
				"methods": {},
				"version": 1
			},
			"evm": {
				"assembly": "    /* \"src/contracts/AccountManagement.sol\":66:13957  contract AccountManagement {... */\n  mstore(0x40, 0x80)\n    /* \"src/contracts/AccountManagement.sol\":1461:1944  constructor(string memory _firstName, string memory _lastName, string memory _mailAdress) {... */\n  callvalue\n  dup1\n  iszero\n  tag_1\n  jumpi\n  0x00\n  dup1\n  revert\ntag_1:\n  pop\n  mload(0x40)\n  sub(codesize, bytecodeSize)\n  dup1\n  bytecodeSize\n  dup4\n  codecopy\n  dup2\n  dup2\n  add\n  0x40\n  mstore\n  dup2\n  add\n  swap1\n  tag_2\n  swap2\n  swap1\n  tag_3\n  jump\t// in\ntag_2:\n    /* \"src/contracts/AccountManagement.sol\":1570:1580  msg.sender */\n  caller\n    /* \"src/contracts/AccountManagement.sol\":1562:1567  owner */\n  0x01\n  0x00\n    /* \"src/contracts/AccountManagement.sol\":1562:1580  owner = msg.sender */\n  0x0100\n  exp\n  dup2\n  sload\n  dup2\n  0xffffffffffffffffffffffffffffffffffffffff\n  mul\n  not\n  and\n  swap1\n  dup4\n  0xffffffffffffffffffffffffffffffffffffffff\n  and\n  mul\n  or\n  swap1\n  sstore\n  pop\n    /* \"src/contracts/AccountManagement.sol\":1591:1652  createAccount(msg.sender, _firstName, _lastName, _mailAdress) */\n  tag_6\n    /* \"src/contracts/AccountManagement.sol\":1605:1615  msg.sender */\n  caller\n    /* \"src/contracts/AccountManagement.sol\":1617:1627  _firstName */\n  dup5\n    /* \"src/contracts/AccountManagement.sol\":1629:1638  _lastName */\n  dup5\n    /* \"src/contracts/AccountManagement.sol\":1640:1651  _mailAdress */\n  dup5\n    /* \"src/contracts/AccountManagement.sol\":1591:1604  createAccount */\n  shl(0x20, tag_7)\n    /* \"src/contracts/AccountManagement.sol\":1591:1652  createAccount(msg.sender, _firstName, _lastName, _mailAdress) */\n  0x20\n  shr\n  jump\t// in\ntag_6:\n    /* \"src/contracts/AccountManagement.sol\":1669:1716  assignRole(msg.sender, msg.sender, Role.LEADER) */\n  tag_8\n    /* \"src/contracts/AccountManagement.sol\":1680:1690  msg.sender */\n  caller\n    /* \"src/contracts/AccountManagement.sol\":1692:1702  msg.sender */\n  caller\n    /* \"src/contracts/AccountManagement.sol\":1704:1715  Role.LEADER */\n  0x00\n    /* \"src/contracts/AccountManagement.sol\":1669:1679  assignRole */\n  shl(0x20, tag_9)\n    /* \"src/contracts/AccountManagement.sol\":1669:1716  assignRole(msg.sender, msg.sender, Role.LEADER) */\n  0x20\n  shr\n  jump\t// in\ntag_8:\n    /* \"src/contracts/AccountManagement.sol\":1727:1781  assignRole(msg.sender, msg.sender, Role.COUNCILMEMBER) */\n  tag_10\n    /* \"src/contracts/AccountManagement.sol\":1738:1748  msg.sender */\n  caller\n    /* \"src/contracts/AccountManagement.sol\":1750:1760  msg.sender */\n  caller\n    /* \"src/contracts/AccountManagement.sol\":1762:1780  Role.COUNCILMEMBER */\n  0x01\n    /* \"src/contracts/AccountManagement.sol\":1727:1737  assignRole */\n  shl(0x20, tag_9)\n    /* \"src/contracts/AccountManagement.sol\":1727:1781  assignRole(msg.sender, msg.sender, Role.COUNCILMEMBER) */\n  0x20\n  shr\n  jump\t// in\ntag_10:\n    /* \"src/contracts/AccountManagement.sol\":1792:1839  assignRole(msg.sender, msg.sender, Role.MEMBER) */\n  tag_11\n    /* \"src/contracts/AccountManagement.sol\":1803:1813  msg.sender */\n  caller\n    /* \"src/contracts/AccountManagement.sol\":1815:1825  msg.sender */\n  caller\n    /* \"src/contracts/AccountManagement.sol\":1827:1838  Role.MEMBER */\n  0x02\n    /* \"src/contracts/AccountManagement.sol\":1792:1802  assignRole */\n  shl(0x20, tag_9)\n    /* \"src/contracts/AccountManagement.sol\":1792:1839  assignRole(msg.sender, msg.sender, Role.MEMBER) */\n  0x20\n  shr\n  jump\t// in\ntag_11:\n    /* \"src/contracts/AccountManagement.sol\":1850:1896  removeRole(msg.sender, msg.sender, Role.GUEST) */\n  tag_12\n    /* \"src/contracts/AccountManagement.sol\":1861:1871  msg.sender */\n  caller\n    /* \"src/contracts/AccountManagement.sol\":1873:1883  msg.sender */\n  caller\n    /* \"src/contracts/AccountManagement.sol\":1885:1895  Role.GUEST */\n  0x03\n    /* \"src/contracts/AccountManagement.sol\":1850:1860  removeRole */\n  shl(0x20, tag_13)\n    /* \"src/contracts/AccountManagement.sol\":1850:1896  removeRole(msg.sender, msg.sender, Role.GUEST) */\n  0x20\n  shr\n  jump\t// in\ntag_12:\n    /* \"src/contracts/AccountManagement.sol\":1909:1936  activateAccount(msg.sender) */\n  tag_14\n    /* \"src/contracts/AccountManagement.sol\":1925:1935  msg.sender */\n  caller\n    /* \"src/contracts/AccountManagement.sol\":1909:1924  activateAccount */\n  shl(0x20, tag_15)\n    /* \"src/contracts/AccountManagement.sol\":1909:1936  activateAccount(msg.sender) */\n  0x20\n  shr\n  jump\t// in\ntag_14:\n    /* \"src/contracts/AccountManagement.sol\":1461:1944  constructor(string memory _firstName, string memory _lastName, string memory _mailAdress) {... */\n  pop\n  pop\n  pop\n    /* \"src/contracts/AccountManagement.sol\":66:13957  contract AccountManagement {... */\n  jump(tag_16)\n    /* \"src/contracts/AccountManagement.sol\":5131:5498  function createAccount(address _address, string memory _firstName, string memory _lastName, string memory _mailAdress) public onlyIfUserNotExists(_address){... */\ntag_7:\n    /* \"src/contracts/AccountManagement.sol\":5277:5285  _address */\n  dup4\n    /* \"src/contracts/AccountManagement.sol\":4935:4936  0 */\n  0x00\n    /* \"src/contracts/AccountManagement.sol\":4896:4937  users[_address].userAddress == address(0) */\n  0xffffffffffffffffffffffffffffffffffffffff\n  and\n    /* \"src/contracts/AccountManagement.sol\":4896:4901  users */\n  0x08\n    /* \"src/contracts/AccountManagement.sol\":4896:4911  users[_address] */\n  0x00\n    /* \"src/contracts/AccountManagement.sol\":4902:4910  _address */\n  dup4\n    /* \"src/contracts/AccountManagement.sol\":4896:4911  users[_address] */\n  0xffffffffffffffffffffffffffffffffffffffff\n  and\n  0xffffffffffffffffffffffffffffffffffffffff\n  and\n  dup2\n  mstore\n  0x20\n  add\n  swap1\n  dup2\n  mstore\n  0x20\n  add\n  0x00\n  keccak256\n    /* \"src/contracts/AccountManagement.sol\":4896:4923  users[_address].userAddress */\n  0x00\n  add\n  0x00\n  swap1\n  sload\n  swap1\n  0x0100\n  exp\n  swap1\n  div\n  0xffffffffffffffffffffffffffffffffffffffff\n  and\n    /* \"src/contracts/AccountManagement.sol\":4896:4937  users[_address].userAddress == address(0) */\n  0xffffffffffffffffffffffffffffffffffffffff\n  and\n  eq\n    /* \"src/contracts/AccountManagement.sol\":4888:4964  require(users[_address].userAddress == address(0), \"Account already exists\") */\n  tag_18\n  jumpi\n  mload(0x40)\n  0x08c379a000000000000000000000000000000000000000000000000000000000\n  dup2\n  mstore\n  0x04\n  add\n  tag_19\n  swap1\n  tag_20\n  jump\t// in\ntag_19:\n  mload(0x40)\n  dup1\n  swap2\n  sub\n  swap1\n  revert\ntag_18:\n    /* \"src/contracts/AccountManagement.sol\":5297:5319  RoleMap memory roleMap */\n  0x00\n    /* \"src/contracts/AccountManagement.sol\":5322:5356  RoleMap(false, false, false, true) */\n  mload(0x40)\n  dup1\n  0x80\n  add\n  0x40\n  mstore\n  dup1\n    /* \"src/contracts/AccountManagement.sol\":5330:5335  false */\n  0x00\n    /* \"src/contracts/AccountManagement.sol\":5322:5356  RoleMap(false, false, false, true) */\n  iszero\n  iszero\n  dup2\n  mstore\n  0x20\n  add\n    /* \"src/contracts/AccountManagement.sol\":5337:5342  false */\n  0x00\n    /* \"src/contracts/AccountManagement.sol\":5322:5356  RoleMap(false, false, false, true) */\n  iszero\n  iszero\n  dup2\n  mstore\n  0x20\n  add\n    /* \"src/contracts/AccountManagement.sol\":5344:5349  false */\n  0x00\n    /* \"src/contracts/AccountManagement.sol\":5322:5356  RoleMap(false, false, false, true) */\n  iszero\n  iszero\n  dup2\n  mstore\n  0x20\n  add\n    /* \"src/contracts/AccountManagement.sol\":5351:5355  true */\n  0x01\n    /* \"src/contracts/AccountManagement.sol\":5322:5356  RoleMap(false, false, false, true) */\n  iszero\n  iszero\n  dup2\n  mstore\n  pop\n    /* \"src/contracts/AccountManagement.sol\":5297:5356  RoleMap memory roleMap = RoleMap(false, false, false, true) */\n  swap1\n  pop\n    /* \"src/contracts/AccountManagement.sol\":5367:5383  User memory user */\n  0x00\n    /* \"src/contracts/AccountManagement.sol\":5386:5452  User(_address, _firstName, _lastName, _mailAdress, false, roleMap) */\n  mload(0x40)\n  dup1\n  0xc0\n  add\n  0x40\n  mstore\n  dup1\n    /* \"src/contracts/AccountManagement.sol\":5391:5399  _address */\n  dup9\n    /* \"src/contracts/AccountManagement.sol\":5386:5452  User(_address, _firstName, _lastName, _mailAdress, false, roleMap) */\n  0xffffffffffffffffffffffffffffffffffffffff\n  and\n  dup2\n  mstore\n  0x20\n  add\n    /* \"src/contracts/AccountManagement.sol\":5401:5411  _firstName */\n  dup8\n    /* \"src/contracts/AccountManagement.sol\":5386:5452  User(_address, _firstName, _lastName, _mailAdress, false, roleMap) */\n  dup2\n  mstore\n  0x20\n  add\n    /* \"src/contracts/AccountManagement.sol\":5413:5422  _lastName */\n  dup7\n    /* \"src/contracts/AccountManagement.sol\":5386:5452  User(_address, _firstName, _lastName, _mailAdress, false, roleMap) */\n  dup2\n  mstore\n  0x20\n  add\n    /* \"src/contracts/AccountManagement.sol\":5424:5435  _mailAdress */\n  dup6\n    /* \"src/contracts/AccountManagement.sol\":5386:5452  User(_address, _firstName, _lastName, _mailAdress, false, roleMap) */\n  dup2\n  mstore\n  0x20\n  add\n    /* \"src/contracts/AccountManagement.sol\":5437:5442  false */\n  0x00\n    /* \"src/contracts/AccountManagement.sol\":5386:5452  User(_address, _firstName, _lastName, _mailAdress, false, roleMap) */\n  iszero\n  iszero\n  dup2\n  mstore\n  0x20\n  add\n    /* \"src/contracts/AccountManagement.sol\":5444:5451  roleMap */\n  dup4\n    /* \"src/contracts/AccountManagement.sol\":5386:5452  User(_address, _firstName, _lastName, _mailAdress, false, roleMap) */\n  dup2\n  mstore\n  pop\n    /* \"src/contracts/AccountManagement.sol\":5367:5452  User memory user = User(_address, _firstName, _lastName, _mailAdress, false, roleMap) */\n  swap1\n  pop\n    /* \"src/contracts/AccountManagement.sol\":5481:5485  user */\n  dup1\n    /* \"src/contracts/AccountManagement.sol\":5463:5468  users */\n  0x08\n    /* \"src/contracts/AccountManagement.sol\":5463:5478  users[_address] */\n  0x00\n    /* \"src/contracts/AccountManagement.sol\":5469:5477  _address */\n  dup10\n    /* \"src/contracts/AccountManagement.sol\":5463:5478  users[_address] */\n  0xffffffffffffffffffffffffffffffffffffffff\n  and\n  0xffffffffffffffffffffffffffffffffffffffff\n  and\n  dup2\n  mstore\n  0x20\n  add\n  swap1\n  dup2\n  mstore\n  0x20\n  add\n  0x00\n  keccak256\n    /* \"src/contracts/AccountManagement.sol\":5463:5485  users[_address] = user */\n  0x00\n  dup3\n  add\n  mload\n  dup2\n  0x00\n  add\n  exp(0x0100, 0x00)\n  dup2\n  sload\n  dup2\n  0xffffffffffffffffffffffffffffffffffffffff\n  mul\n  not\n  and\n  swap1\n  dup4\n  0xffffffffffffffffffffffffffffffffffffffff\n  and\n  mul\n  or\n  swap1\n  sstore\n  pop\n  0x20\n  dup3\n  add\n  mload\n  dup2\n  0x01\n  add\n  swap1\n  dup1\n  mload\n  swap1\n  0x20\n  add\n  swap1\n  tag_22\n  swap3\n  swap2\n  swap1\n  tag_23\n  jump\t// in\ntag_22:\n  pop\n  0x40\n  dup3\n  add\n  mload\n  dup2\n  0x02\n  add\n  swap1\n  dup1\n  mload\n  swap1\n  0x20\n  add\n  swap1\n  tag_24\n  swap3\n  swap2\n  swap1\n  tag_23\n  jump\t// in\ntag_24:\n  pop\n  0x60\n  dup3\n  add\n  mload\n  dup2\n  0x03\n  add\n  swap1\n  dup1\n  mload\n  swap1\n  0x20\n  add\n  swap1\n  tag_25\n  swap3\n  swap2\n  swap1\n  tag_23\n  jump\t// in\ntag_25:\n  pop\n  0x80\n  dup3\n  add\n  mload\n  dup2\n  0x04\n  add\n  exp(0x0100, 0x00)\n  dup2\n  sload\n  dup2\n  0xff\n  mul\n  not\n  and\n  swap1\n  dup4\n  iszero\n  iszero\n  mul\n  or\n  swap1\n  sstore\n  pop\n  0xa0\n  dup3\n  add\n  mload\n  dup2\n  0x05\n  add\n  0x00\n  dup3\n  add\n  mload\n  dup2\n  0x00\n  add\n  exp(0x0100, 0x00)\n  dup2\n  sload\n  dup2\n  0xff\n  mul\n  not\n  and\n  swap1\n  dup4\n  iszero\n  iszero\n  mul\n  or\n  swap1\n  sstore\n  pop\n  0x20\n  dup3\n  add\n  mload\n  dup2\n  0x00\n  add\n  exp(0x0100, 0x01)\n  dup2\n  sload\n  dup2\n  0xff\n  mul\n  not\n  and\n  swap1\n  dup4\n  iszero\n  iszero\n  mul\n  or\n  swap1\n  sstore\n  pop\n  0x40\n  dup3\n  add\n  mload\n  dup2\n  0x00\n  add\n  exp(0x0100, 0x02)\n  dup2\n  sload\n  dup2\n  0xff\n  mul\n  not\n  and\n  swap1\n  dup4\n  iszero\n  iszero\n  mul\n  or\n  swap1\n  sstore\n  pop\n  0x60\n  dup3\n  add\n  mload\n  dup2\n  0x00\n  add\n  exp(0x0100, 0x03)\n  dup2\n  sload\n  dup2\n  0xff\n  mul\n  not\n  and\n  swap1\n  dup4\n  iszero\n  iszero\n  mul\n  or\n  swap1\n  sstore\n  pop\n  pop\n  pop\n  swap1\n  pop\n  pop\n    /* \"src/contracts/AccountManagement.sol\":5286:5498  {... */\n  pop\n  pop\n    /* \"src/contracts/AccountManagement.sol\":5131:5498  function createAccount(address _address, string memory _firstName, string memory _lastName, string memory _mailAdress) public onlyIfUserNotExists(_address){... */\n  pop\n  pop\n  pop\n  pop\n  pop\n  jump\t// out\n    /* \"src/contracts/AccountManagement.sol\":6956:7601  function assignRole(address _sender, address _address, Role _role) private onlyLeader(_sender) onlyIfUserExists(_address){... */\ntag_9:\n    /* \"src/contracts/AccountManagement.sol\":7042:7049  _sender */\n  dup3\n    /* \"src/contracts/AccountManagement.sol\":4571:4576  owner */\n  0x01\n  0x00\n  swap1\n  sload\n  swap1\n  0x0100\n  exp\n  swap1\n  div\n  0xffffffffffffffffffffffffffffffffffffffff\n  and\n    /* \"src/contracts/AccountManagement.sol\":4560:4576  _sender == owner */\n  0xffffffffffffffffffffffffffffffffffffffff\n  and\n    /* \"src/contracts/AccountManagement.sol\":4560:4567  _sender */\n  dup2\n    /* \"src/contracts/AccountManagement.sol\":4560:4576  _sender == owner */\n  0xffffffffffffffffffffffffffffffffffffffff\n  and\n  eq\n    /* \"src/contracts/AccountManagement.sol\":4560:4607  _sender == owner || this.hasLeaderRole(_sender) */\n  dup1\n  tag_27\n  jumpi\n  pop\n    /* \"src/contracts/AccountManagement.sol\":4580:4584  this */\n  address\n    /* \"src/contracts/AccountManagement.sol\":4580:4598  this.hasLeaderRole */\n  0xffffffffffffffffffffffffffffffffffffffff\n  and\n  0x297027d5\n    /* \"src/contracts/AccountManagement.sol\":4599:4606  _sender */\n  dup3\n    /* \"src/contracts/AccountManagement.sol\":4580:4607  this.hasLeaderRole(_sender) */\n  mload(0x40)\n  dup3\n  0xffffffff\n  and\n  0xe0\n  shl\n  dup2\n  mstore\n  0x04\n  add\n  tag_28\n  swap2\n  swap1\n  tag_29\n  jump\t// in\ntag_28:\n  0x20\n  mload(0x40)\n  dup1\n  dup4\n  sub\n  dup2\n  dup7\n  gas\n  staticcall\n  iszero\n  dup1\n  iszero\n  tag_31\n  jumpi\n  returndatasize\n  0x00\n  dup1\n  returndatacopy\n  revert(0x00, returndatasize)\ntag_31:\n  pop\n  pop\n  pop\n  pop\n  mload(0x40)\n  returndatasize\n  not(0x1f)\n  0x1f\n  dup3\n  add\n  and\n  dup3\n  add\n  dup1\n  0x40\n  mstore\n  pop\n  dup2\n  add\n  swap1\n  tag_32\n  swap2\n  swap1\n  tag_33\n  jump\t// in\ntag_32:\n    /* \"src/contracts/AccountManagement.sol\":4560:4607  _sender == owner || this.hasLeaderRole(_sender) */\ntag_27:\n    /* \"src/contracts/AccountManagement.sol\":4552:4646  require(_sender == owner || this.hasLeaderRole(_sender), \"Only owner can call this function.\") */\n  tag_34\n  jumpi\n  mload(0x40)\n  0x08c379a000000000000000000000000000000000000000000000000000000000\n  dup2\n  mstore\n  0x04\n  add\n  tag_35\n  swap1\n  tag_36\n  jump\t// in\ntag_35:\n  mload(0x40)\n  dup1\n  swap2\n  sub\n  swap1\n  revert\ntag_34:\n    /* \"src/contracts/AccountManagement.sol\":7068:7076  _address */\n  dup3\n    /* \"src/contracts/AccountManagement.sol\":4775:4776  0 */\n  0x00\n    /* \"src/contracts/AccountManagement.sol\":4736:4777  users[_address].userAddress != address(0) */\n  0xffffffffffffffffffffffffffffffffffffffff\n  and\n    /* \"src/contracts/AccountManagement.sol\":4736:4741  users */\n  0x08\n    /* \"src/contracts/AccountManagement.sol\":4736:4751  users[_address] */\n  0x00\n    /* \"src/contracts/AccountManagement.sol\":4742:4750  _address */\n  dup4\n    /* \"src/contracts/AccountManagement.sol\":4736:4751  users[_address] */\n  0xffffffffffffffffffffffffffffffffffffffff\n  and\n  0xffffffffffffffffffffffffffffffffffffffff\n  and\n  dup2\n  mstore\n  0x20\n  add\n  swap1\n  dup2\n  mstore\n  0x20\n  add\n  0x00\n  keccak256\n    /* \"src/contracts/AccountManagement.sol\":4736:4763  users[_address].userAddress */\n  0x00\n  add\n  0x00\n  swap1\n  sload\n  swap1\n  0x0100\n  exp\n  swap1\n  div\n  0xffffffffffffffffffffffffffffffffffffffff\n  and\n    /* \"src/contracts/AccountManagement.sol\":4736:4777  users[_address].userAddress != address(0) */\n  0xffffffffffffffffffffffffffffffffffffffff\n  and\n  eq\n  iszero\n    /* \"src/contracts/AccountManagement.sol\":4728:4803  require(users[_address].userAddress != address(0), \"Account doesn't exist\") */\n  tag_38\n  jumpi\n  mload(0x40)\n  0x08c379a000000000000000000000000000000000000000000000000000000000\n  dup2\n  mstore\n  0x04\n  add\n  tag_39\n  swap1\n  tag_40\n  jump\t// in\ntag_39:\n  mload(0x40)\n  dup1\n  swap2\n  sub\n  swap1\n  revert\ntag_38:\n    /* \"src/contracts/AccountManagement.sol\":7125:7142  User storage user */\n  0x00\n    /* \"src/contracts/AccountManagement.sol\":7145:7150  users */\n  0x08\n    /* \"src/contracts/AccountManagement.sol\":7145:7160  users[_address] */\n  0x00\n    /* \"src/contracts/AccountManagement.sol\":7151:7159  _address */\n  dup7\n    /* \"src/contracts/AccountManagement.sol\":7145:7160  users[_address] */\n  0xffffffffffffffffffffffffffffffffffffffff\n  and\n  0xffffffffffffffffffffffffffffffffffffffff\n  and\n  dup2\n  mstore\n  0x20\n  add\n  swap1\n  dup2\n  mstore\n  0x20\n  add\n  0x00\n  keccak256\n    /* \"src/contracts/AccountManagement.sol\":7125:7160  User storage user = users[_address] */\n  swap1\n  pop\n    /* \"src/contracts/AccountManagement.sol\":7171:7194  RoleMap storage roleMap */\n  0x00\n    /* \"src/contracts/AccountManagement.sol\":7197:7201  user */\n  dup2\n    /* \"src/contracts/AccountManagement.sol\":7197:7209  user.roleMap */\n  0x05\n  add\n    /* \"src/contracts/AccountManagement.sol\":7171:7209  RoleMap storage roleMap = user.roleMap */\n  swap1\n  pop\n    /* \"src/contracts/AccountManagement.sol\":7234:7245  Role.LEADER */\n  0x00\n    /* \"src/contracts/AccountManagement.sol\":7225:7245  _role == Role.LEADER */\n  0x03\n  dup2\n  gt\n  iszero\n  tag_42\n  jumpi\n  tag_43\n  tag_44\n  jump\t// in\ntag_43:\ntag_42:\n    /* \"src/contracts/AccountManagement.sol\":7225:7230  _role */\n  dup6\n    /* \"src/contracts/AccountManagement.sol\":7225:7245  _role == Role.LEADER */\n  0x03\n  dup2\n  gt\n  iszero\n  tag_45\n  jumpi\n  tag_46\n  tag_44\n  jump\t// in\ntag_46:\ntag_45:\n  eq\n    /* \"src/contracts/AccountManagement.sol\":7222:7594  if(_role == Role.LEADER){            ... */\n  iszero\n  tag_47\n  jumpi\n    /* \"src/contracts/AccountManagement.sol\":7292:7296  true */\n  0x01\n    /* \"src/contracts/AccountManagement.sol\":7273:7280  roleMap */\n  dup2\n    /* \"src/contracts/AccountManagement.sol\":7273:7289  roleMap.isLeader */\n  0x00\n  add\n  0x00\n    /* \"src/contracts/AccountManagement.sol\":7273:7296  roleMap.isLeader = true */\n  0x0100\n  exp\n  dup2\n  sload\n  dup2\n  0xff\n  mul\n  not\n  and\n  swap1\n  dup4\n  iszero\n  iszero\n  mul\n  or\n  swap1\n  sstore\n  pop\n    /* \"src/contracts/AccountManagement.sol\":7222:7594  if(_role == Role.LEADER){            ... */\n  jump(tag_48)\ntag_47:\n    /* \"src/contracts/AccountManagement.sol\":7335:7353  Role.COUNCILMEMBER */\n  0x01\n    /* \"src/contracts/AccountManagement.sol\":7326:7353  _role == Role.COUNCILMEMBER */\n  0x03\n  dup2\n  gt\n  iszero\n  tag_49\n  jumpi\n  tag_50\n  tag_44\n  jump\t// in\ntag_50:\ntag_49:\n    /* \"src/contracts/AccountManagement.sol\":7326:7331  _role */\n  dup6\n    /* \"src/contracts/AccountManagement.sol\":7326:7353  _role == Role.COUNCILMEMBER */\n  0x03\n  dup2\n  gt\n  iszero\n  tag_51\n  jumpi\n  tag_52\n  tag_44\n  jump\t// in\ntag_52:\ntag_51:\n  eq\n    /* \"src/contracts/AccountManagement.sol\":7323:7594  if(_role == Role.COUNCILMEMBER){... */\n  iszero\n  tag_53\n  jumpi\n    /* \"src/contracts/AccountManagement.sol\":7395:7399  true */\n  0x01\n    /* \"src/contracts/AccountManagement.sol\":7369:7376  roleMap */\n  dup2\n    /* \"src/contracts/AccountManagement.sol\":7369:7392  roleMap.isCouncilMember */\n  0x00\n  add\n  0x01\n    /* \"src/contracts/AccountManagement.sol\":7369:7399  roleMap.isCouncilMember = true */\n  0x0100\n  exp\n  dup2\n  sload\n  dup2\n  0xff\n  mul\n  not\n  and\n  swap1\n  dup4\n  iszero\n  iszero\n  mul\n  or\n  swap1\n  sstore\n  pop\n    /* \"src/contracts/AccountManagement.sol\":7323:7594  if(_role == Role.COUNCILMEMBER){... */\n  jump(tag_54)\ntag_53:\n    /* \"src/contracts/AccountManagement.sol\":7445:7456  Role.MEMBER */\n  0x02\n    /* \"src/contracts/AccountManagement.sol\":7436:7456  _role == Role.MEMBER */\n  0x03\n  dup2\n  gt\n  iszero\n  tag_55\n  jumpi\n  tag_56\n  tag_44\n  jump\t// in\ntag_56:\ntag_55:\n    /* \"src/contracts/AccountManagement.sol\":7436:7441  _role */\n  dup6\n    /* \"src/contracts/AccountManagement.sol\":7436:7456  _role == Role.MEMBER */\n  0x03\n  dup2\n  gt\n  iszero\n  tag_57\n  jumpi\n  tag_58\n  tag_44\n  jump\t// in\ntag_58:\ntag_57:\n  eq\n    /* \"src/contracts/AccountManagement.sol\":7433:7594  if(_role == Role.MEMBER){... */\n  iszero\n  tag_59\n  jumpi\n    /* \"src/contracts/AccountManagement.sol\":7491:7495  true */\n  0x01\n    /* \"src/contracts/AccountManagement.sol\":7472:7479  roleMap */\n  dup2\n    /* \"src/contracts/AccountManagement.sol\":7472:7488  roleMap.isMember */\n  0x00\n  add\n  0x02\n    /* \"src/contracts/AccountManagement.sol\":7472:7495  roleMap.isMember = true */\n  0x0100\n  exp\n  dup2\n  sload\n  dup2\n  0xff\n  mul\n  not\n  and\n  swap1\n  dup4\n  iszero\n  iszero\n  mul\n  or\n  swap1\n  sstore\n  pop\n    /* \"src/contracts/AccountManagement.sol\":7433:7594  if(_role == Role.MEMBER){... */\n  jump(tag_60)\ntag_59:\n    /* \"src/contracts/AccountManagement.sol\":7534:7544  Role.GUEST */\n  0x03\n    /* \"src/contracts/AccountManagement.sol\":7525:7544  _role == Role.GUEST */\n  dup1\n  dup2\n  gt\n  iszero\n  tag_61\n  jumpi\n  tag_62\n  tag_44\n  jump\t// in\ntag_62:\ntag_61:\n    /* \"src/contracts/AccountManagement.sol\":7525:7530  _role */\n  dup6\n    /* \"src/contracts/AccountManagement.sol\":7525:7544  _role == Role.GUEST */\n  0x03\n  dup2\n  gt\n  iszero\n  tag_63\n  jumpi\n  tag_64\n  tag_44\n  jump\t// in\ntag_64:\ntag_63:\n  eq\n    /* \"src/contracts/AccountManagement.sol\":7522:7594  if(_role == Role.GUEST){... */\n  iszero\n  tag_65\n  jumpi\n    /* \"src/contracts/AccountManagement.sol\":7578:7582  true */\n  0x01\n    /* \"src/contracts/AccountManagement.sol\":7560:7567  roleMap */\n  dup2\n    /* \"src/contracts/AccountManagement.sol\":7560:7575  roleMap.isGuest */\n  0x00\n  add\n  0x03\n    /* \"src/contracts/AccountManagement.sol\":7560:7582  roleMap.isGuest = true */\n  0x0100\n  exp\n  dup2\n  sload\n  dup2\n  0xff\n  mul\n  not\n  and\n  swap1\n  dup4\n  iszero\n  iszero\n  mul\n  or\n  swap1\n  sstore\n  pop\n    /* \"src/contracts/AccountManagement.sol\":7522:7594  if(_role == Role.GUEST){... */\ntag_65:\n    /* \"src/contracts/AccountManagement.sol\":7433:7594  if(_role == Role.MEMBER){... */\ntag_60:\n    /* \"src/contracts/AccountManagement.sol\":7323:7594  if(_role == Role.COUNCILMEMBER){... */\ntag_54:\n    /* \"src/contracts/AccountManagement.sol\":7222:7594  if(_role == Role.LEADER){            ... */\ntag_48:\n    /* \"src/contracts/AccountManagement.sol\":7077:7601  {... */\n  pop\n  pop\n    /* \"src/contracts/AccountManagement.sol\":4657:4658  _ */\n  pop\n    /* \"src/contracts/AccountManagement.sol\":6956:7601  function assignRole(address _sender, address _address, Role _role) private onlyLeader(_sender) onlyIfUserExists(_address){... */\n  pop\n  pop\n  pop\n  pop\n  jump\t// out\n    /* \"src/contracts/AccountManagement.sol\":7609:8258  function removeRole(address _sender, address _address, Role _role) private onlyLeader(_sender) onlyIfUserExists(_address){... */\ntag_13:\n    /* \"src/contracts/AccountManagement.sol\":7695:7702  _sender */\n  dup3\n    /* \"src/contracts/AccountManagement.sol\":4571:4576  owner */\n  0x01\n  0x00\n  swap1\n  sload\n  swap1\n  0x0100\n  exp\n  swap1\n  div\n  0xffffffffffffffffffffffffffffffffffffffff\n  and\n    /* \"src/contracts/AccountManagement.sol\":4560:4576  _sender == owner */\n  0xffffffffffffffffffffffffffffffffffffffff\n  and\n    /* \"src/contracts/AccountManagement.sol\":4560:4567  _sender */\n  dup2\n    /* \"src/contracts/AccountManagement.sol\":4560:4576  _sender == owner */\n  0xffffffffffffffffffffffffffffffffffffffff\n  and\n  eq\n    /* \"src/contracts/AccountManagement.sol\":4560:4607  _sender == owner || this.hasLeaderRole(_sender) */\n  dup1\n  tag_67\n  jumpi\n  pop\n    /* \"src/contracts/AccountManagement.sol\":4580:4584  this */\n  address\n    /* \"src/contracts/AccountManagement.sol\":4580:4598  this.hasLeaderRole */\n  0xffffffffffffffffffffffffffffffffffffffff\n  and\n  0x297027d5\n    /* \"src/contracts/AccountManagement.sol\":4599:4606  _sender */\n  dup3\n    /* \"src/contracts/AccountManagement.sol\":4580:4607  this.hasLeaderRole(_sender) */\n  mload(0x40)\n  dup3\n  0xffffffff\n  and\n  0xe0\n  shl\n  dup2\n  mstore\n  0x04\n  add\n  tag_68\n  swap2\n  swap1\n  tag_29\n  jump\t// in\ntag_68:\n  0x20\n  mload(0x40)\n  dup1\n  dup4\n  sub\n  dup2\n  dup7\n  gas\n  staticcall\n  iszero\n  dup1\n  iszero\n  tag_70\n  jumpi\n  returndatasize\n  0x00\n  dup1\n  returndatacopy\n  revert(0x00, returndatasize)\ntag_70:\n  pop\n  pop\n  pop\n  pop\n  mload(0x40)\n  returndatasize\n  not(0x1f)\n  0x1f\n  dup3\n  add\n  and\n  dup3\n  add\n  dup1\n  0x40\n  mstore\n  pop\n  dup2\n  add\n  swap1\n  tag_71\n  swap2\n  swap1\n  tag_33\n  jump\t// in\ntag_71:\n    /* \"src/contracts/AccountManagement.sol\":4560:4607  _sender == owner || this.hasLeaderRole(_sender) */\ntag_67:\n    /* \"src/contracts/AccountManagement.sol\":4552:4646  require(_sender == owner || this.hasLeaderRole(_sender), \"Only owner can call this function.\") */\n  tag_72\n  jumpi\n  mload(0x40)\n  0x08c379a000000000000000000000000000000000000000000000000000000000\n  dup2\n  mstore\n  0x04\n  add\n  tag_73\n  swap1\n  tag_36\n  jump\t// in\ntag_73:\n  mload(0x40)\n  dup1\n  swap2\n  sub\n  swap1\n  revert\ntag_72:\n    /* \"src/contracts/AccountManagement.sol\":7721:7729  _address */\n  dup3\n    /* \"src/contracts/AccountManagement.sol\":4775:4776  0 */\n  0x00\n    /* \"src/contracts/AccountManagement.sol\":4736:4777  users[_address].userAddress != address(0) */\n  0xffffffffffffffffffffffffffffffffffffffff\n  and\n    /* \"src/contracts/AccountManagement.sol\":4736:4741  users */\n  0x08\n    /* \"src/contracts/AccountManagement.sol\":4736:4751  users[_address] */\n  0x00\n    /* \"src/contracts/AccountManagement.sol\":4742:4750  _address */\n  dup4\n    /* \"src/contracts/AccountManagement.sol\":4736:4751  users[_address] */\n  0xffffffffffffffffffffffffffffffffffffffff\n  and\n  0xffffffffffffffffffffffffffffffffffffffff\n  and\n  dup2\n  mstore\n  0x20\n  add\n  swap1\n  dup2\n  mstore\n  0x20\n  add\n  0x00\n  keccak256\n    /* \"src/contracts/AccountManagement.sol\":4736:4763  users[_address].userAddress */\n  0x00\n  add\n  0x00\n  swap1\n  sload\n  swap1\n  0x0100\n  exp\n  swap1\n  div\n  0xffffffffffffffffffffffffffffffffffffffff\n  and\n    /* \"src/contracts/AccountManagement.sol\":4736:4777  users[_address].userAddress != address(0) */\n  0xffffffffffffffffffffffffffffffffffffffff\n  and\n  eq\n  iszero\n    /* \"src/contracts/AccountManagement.sol\":4728:4803  require(users[_address].userAddress != address(0), \"Account doesn't exist\") */\n  tag_75\n  jumpi\n  mload(0x40)\n  0x08c379a000000000000000000000000000000000000000000000000000000000\n  dup2\n  mstore\n  0x04\n  add\n  tag_76\n  swap1\n  tag_40\n  jump\t// in\ntag_76:\n  mload(0x40)\n  dup1\n  swap2\n  sub\n  swap1\n  revert\ntag_75:\n    /* \"src/contracts/AccountManagement.sol\":7780:7797  User storage user */\n  0x00\n    /* \"src/contracts/AccountManagement.sol\":7800:7805  users */\n  0x08\n    /* \"src/contracts/AccountManagement.sol\":7800:7815  users[_address] */\n  0x00\n    /* \"src/contracts/AccountManagement.sol\":7806:7814  _address */\n  dup7\n    /* \"src/contracts/AccountManagement.sol\":7800:7815  users[_address] */\n  0xffffffffffffffffffffffffffffffffffffffff\n  and\n  0xffffffffffffffffffffffffffffffffffffffff\n  and\n  dup2\n  mstore\n  0x20\n  add\n  swap1\n  dup2\n  mstore\n  0x20\n  add\n  0x00\n  keccak256\n    /* \"src/contracts/AccountManagement.sol\":7780:7815  User storage user = users[_address] */\n  swap1\n  pop\n    /* \"src/contracts/AccountManagement.sol\":7826:7849  RoleMap storage roleMap */\n  0x00\n    /* \"src/contracts/AccountManagement.sol\":7852:7856  user */\n  dup2\n    /* \"src/contracts/AccountManagement.sol\":7852:7864  user.roleMap */\n  0x05\n  add\n    /* \"src/contracts/AccountManagement.sol\":7826:7864  RoleMap storage roleMap = user.roleMap */\n  swap1\n  pop\n    /* \"src/contracts/AccountManagement.sol\":7889:7900  Role.LEADER */\n  0x00\n    /* \"src/contracts/AccountManagement.sol\":7880:7900  _role == Role.LEADER */\n  0x03\n  dup2\n  gt\n  iszero\n  tag_78\n  jumpi\n  tag_79\n  tag_44\n  jump\t// in\ntag_79:\ntag_78:\n    /* \"src/contracts/AccountManagement.sol\":7880:7885  _role */\n  dup6\n    /* \"src/contracts/AccountManagement.sol\":7880:7900  _role == Role.LEADER */\n  0x03\n  dup2\n  gt\n  iszero\n  tag_80\n  jumpi\n  tag_81\n  tag_44\n  jump\t// in\ntag_81:\ntag_80:\n  eq\n    /* \"src/contracts/AccountManagement.sol\":7877:8251  if(_role == Role.LEADER){... */\n  iszero\n  tag_82\n  jumpi\n    /* \"src/contracts/AccountManagement.sol\":7935:7940  false */\n  0x00\n    /* \"src/contracts/AccountManagement.sol\":7916:7923  roleMap */\n  dup2\n    /* \"src/contracts/AccountManagement.sol\":7916:7932  roleMap.isLeader */\n  0x00\n  add\n  0x00\n    /* \"src/contracts/AccountManagement.sol\":7916:7940  roleMap.isLeader = false */\n  0x0100\n  exp\n  dup2\n  sload\n  dup2\n  0xff\n  mul\n  not\n  and\n  swap1\n  dup4\n  iszero\n  iszero\n  mul\n  or\n  swap1\n  sstore\n  pop\n    /* \"src/contracts/AccountManagement.sol\":7877:8251  if(_role == Role.LEADER){... */\n  jump(tag_83)\ntag_82:\n    /* \"src/contracts/AccountManagement.sol\":7979:7997  Role.COUNCILMEMBER */\n  0x01\n    /* \"src/contracts/AccountManagement.sol\":7970:7997  _role == Role.COUNCILMEMBER */\n  0x03\n  dup2\n  gt\n  iszero\n  tag_84\n  jumpi\n  tag_85\n  tag_44\n  jump\t// in\ntag_85:\ntag_84:\n    /* \"src/contracts/AccountManagement.sol\":7970:7975  _role */\n  dup6\n    /* \"src/contracts/AccountManagement.sol\":7970:7997  _role == Role.COUNCILMEMBER */\n  0x03\n  dup2\n  gt\n  iszero\n  tag_86\n  jumpi\n  tag_87\n  tag_44\n  jump\t// in\ntag_87:\ntag_86:\n  eq\n    /* \"src/contracts/AccountManagement.sol\":7967:8251  if(_role == Role.COUNCILMEMBER){... */\n  iszero\n  tag_88\n  jumpi\n    /* \"src/contracts/AccountManagement.sol\":8039:8044  false */\n  0x00\n    /* \"src/contracts/AccountManagement.sol\":8013:8020  roleMap */\n  dup2\n    /* \"src/contracts/AccountManagement.sol\":8013:8036  roleMap.isCouncilMember */\n  0x00\n  add\n  0x01\n    /* \"src/contracts/AccountManagement.sol\":8013:8044  roleMap.isCouncilMember = false */\n  0x0100\n  exp\n  dup2\n  sload\n  dup2\n  0xff\n  mul\n  not\n  and\n  swap1\n  dup4\n  iszero\n  iszero\n  mul\n  or\n  swap1\n  sstore\n  pop\n    /* \"src/contracts/AccountManagement.sol\":7967:8251  if(_role == Role.COUNCILMEMBER){... */\n  jump(tag_89)\ntag_88:\n    /* \"src/contracts/AccountManagement.sol\":8088:8099  Role.MEMBER */\n  0x02\n    /* \"src/contracts/AccountManagement.sol\":8079:8099  _role == Role.MEMBER */\n  0x03\n  dup2\n  gt\n  iszero\n  tag_90\n  jumpi\n  tag_91\n  tag_44\n  jump\t// in\ntag_91:\ntag_90:\n    /* \"src/contracts/AccountManagement.sol\":8079:8084  _role */\n  dup6\n    /* \"src/contracts/AccountManagement.sol\":8079:8099  _role == Role.MEMBER */\n  0x03\n  dup2\n  gt\n  iszero\n  tag_92\n  jumpi\n  tag_93\n  tag_44\n  jump\t// in\ntag_93:\ntag_92:\n  eq\n    /* \"src/contracts/AccountManagement.sol\":8076:8251  if(_role == Role.MEMBER){... */\n  iszero\n  tag_94\n  jumpi\n    /* \"src/contracts/AccountManagement.sol\":8134:8139  false */\n  0x00\n    /* \"src/contracts/AccountManagement.sol\":8115:8122  roleMap */\n  dup2\n    /* \"src/contracts/AccountManagement.sol\":8115:8131  roleMap.isMember */\n  0x00\n  add\n  0x02\n    /* \"src/contracts/AccountManagement.sol\":8115:8139  roleMap.isMember = false */\n  0x0100\n  exp\n  dup2\n  sload\n  dup2\n  0xff\n  mul\n  not\n  and\n  swap1\n  dup4\n  iszero\n  iszero\n  mul\n  or\n  swap1\n  sstore\n  pop\n    /* \"src/contracts/AccountManagement.sol\":8076:8251  if(_role == Role.MEMBER){... */\n  jump(tag_95)\ntag_94:\n    /* \"src/contracts/AccountManagement.sol\":8178:8188  Role.GUEST */\n  0x03\n    /* \"src/contracts/AccountManagement.sol\":8169:8188  _role == Role.GUEST */\n  dup1\n  dup2\n  gt\n  iszero\n  tag_96\n  jumpi\n  tag_97\n  tag_44\n  jump\t// in\ntag_97:\ntag_96:\n    /* \"src/contracts/AccountManagement.sol\":8169:8174  _role */\n  dup6\n    /* \"src/contracts/AccountManagement.sol\":8169:8188  _role == Role.GUEST */\n  0x03\n  dup2\n  gt\n  iszero\n  tag_98\n  jumpi\n  tag_99\n  tag_44\n  jump\t// in\ntag_99:\ntag_98:\n  eq\n    /* \"src/contracts/AccountManagement.sol\":8166:8251  if(_role == Role.GUEST){... */\n  iszero\n  tag_100\n  jumpi\n    /* \"src/contracts/AccountManagement.sol\":8222:8227  false */\n  0x00\n    /* \"src/contracts/AccountManagement.sol\":8204:8211  roleMap */\n  dup2\n    /* \"src/contracts/AccountManagement.sol\":8204:8219  roleMap.isGuest */\n  0x00\n  add\n  0x03\n    /* \"src/contracts/AccountManagement.sol\":8204:8227  roleMap.isGuest = false */\n  0x0100\n  exp\n  dup2\n  sload\n  dup2\n  0xff\n  mul\n  not\n  and\n  swap1\n  dup4\n  iszero\n  iszero\n  mul\n  or\n  swap1\n  sstore\n  pop\n    /* \"src/contracts/AccountManagement.sol\":8166:8251  if(_role == Role.GUEST){... */\ntag_100:\n    /* \"src/contracts/AccountManagement.sol\":8076:8251  if(_role == Role.MEMBER){... */\ntag_95:\n    /* \"src/contracts/AccountManagement.sol\":7967:8251  if(_role == Role.COUNCILMEMBER){... */\ntag_89:\n    /* \"src/contracts/AccountManagement.sol\":7877:8251  if(_role == Role.LEADER){... */\ntag_83:\n    /* \"src/contracts/AccountManagement.sol\":7730:8258  {... */\n  pop\n  pop\n    /* \"src/contracts/AccountManagement.sol\":4657:4658  _ */\n  pop\n    /* \"src/contracts/AccountManagement.sol\":7609:8258  function removeRole(address _sender, address _address, Role _role) private onlyLeader(_sender) onlyIfUserExists(_address){... */\n  pop\n  pop\n  pop\n  pop\n  jump\t// out\n    /* \"src/contracts/AccountManagement.sol\":5506:6104  function activateAccount(address _address) public onlyIfUserExists(_address){... */\ntag_15:\n    /* \"src/contracts/AccountManagement.sol\":5573:5581  _address */\n  dup1\n    /* \"src/contracts/AccountManagement.sol\":4775:4776  0 */\n  0x00\n    /* \"src/contracts/AccountManagement.sol\":4736:4777  users[_address].userAddress != address(0) */\n  0xffffffffffffffffffffffffffffffffffffffff\n  and\n    /* \"src/contracts/AccountManagement.sol\":4736:4741  users */\n  0x08\n    /* \"src/contracts/AccountManagement.sol\":4736:4751  users[_address] */\n  0x00\n    /* \"src/contracts/AccountManagement.sol\":4742:4750  _address */\n  dup4\n    /* \"src/contracts/AccountManagement.sol\":4736:4751  users[_address] */\n  0xffffffffffffffffffffffffffffffffffffffff\n  and\n  0xffffffffffffffffffffffffffffffffffffffff\n  and\n  dup2\n  mstore\n  0x20\n  add\n  swap1\n  dup2\n  mstore\n  0x20\n  add\n  0x00\n  keccak256\n    /* \"src/contracts/AccountManagement.sol\":4736:4763  users[_address].userAddress */\n  0x00\n  add\n  0x00\n  swap1\n  sload\n  swap1\n  0x0100\n  exp\n  swap1\n  div\n  0xffffffffffffffffffffffffffffffffffffffff\n  and\n    /* \"src/contracts/AccountManagement.sol\":4736:4777  users[_address].userAddress != address(0) */\n  0xffffffffffffffffffffffffffffffffffffffff\n  and\n  eq\n  iszero\n    /* \"src/contracts/AccountManagement.sol\":4728:4803  require(users[_address].userAddress != address(0), \"Account doesn't exist\") */\n  tag_102\n  jumpi\n  mload(0x40)\n  0x08c379a000000000000000000000000000000000000000000000000000000000\n  dup2\n  mstore\n  0x04\n  add\n  tag_103\n  swap1\n  tag_40\n  jump\t// in\ntag_103:\n  mload(0x40)\n  dup1\n  swap2\n  sub\n  swap1\n  revert\ntag_102:\n    /* \"src/contracts/AccountManagement.sol\":5679:5692  activeMembers */\n  0x09\n    /* \"src/contracts/AccountManagement.sol\":5679:5702  activeMembers[_address] */\n  0x00\n    /* \"src/contracts/AccountManagement.sol\":5693:5701  _address */\n  dup4\n    /* \"src/contracts/AccountManagement.sol\":5679:5702  activeMembers[_address] */\n  0xffffffffffffffffffffffffffffffffffffffff\n  and\n  0xffffffffffffffffffffffffffffffffffffffff\n  and\n  dup2\n  mstore\n  0x20\n  add\n  swap1\n  dup2\n  mstore\n  0x20\n  add\n  0x00\n  keccak256\n  0x00\n  swap1\n  sload\n  swap1\n  0x0100\n  exp\n  swap1\n  div\n  0xff\n  and\n    /* \"src/contracts/AccountManagement.sol\":5675:6097  if(!activeMembers[_address]){... */\n  tag_105\n  jumpi\n    /* \"src/contracts/AccountManagement.sol\":5718:5735  User storage user */\n  0x00\n    /* \"src/contracts/AccountManagement.sol\":5738:5743  users */\n  0x08\n    /* \"src/contracts/AccountManagement.sol\":5738:5753  users[_address] */\n  0x00\n    /* \"src/contracts/AccountManagement.sol\":5744:5752  _address */\n  dup5\n    /* \"src/contracts/AccountManagement.sol\":5738:5753  users[_address] */\n  0xffffffffffffffffffffffffffffffffffffffff\n  and\n  0xffffffffffffffffffffffffffffffffffffffff\n  and\n  dup2\n  mstore\n  0x20\n  add\n  swap1\n  dup2\n  mstore\n  0x20\n  add\n  0x00\n  keccak256\n    /* \"src/contracts/AccountManagement.sol\":5718:5753  User storage user = users[_address] */\n  swap1\n  pop\n    /* \"src/contracts/AccountManagement.sol\":5784:5788  true */\n  0x01\n    /* \"src/contracts/AccountManagement.sol\":5768:5772  user */\n  dup2\n    /* \"src/contracts/AccountManagement.sol\":5768:5781  user.isActive */\n  0x04\n  add\n  0x00\n    /* \"src/contracts/AccountManagement.sol\":5768:5788  user.isActive = true */\n  0x0100\n  exp\n  dup2\n  sload\n  dup2\n  0xff\n  mul\n  not\n  and\n  swap1\n  dup4\n  iszero\n  iszero\n  mul\n  or\n  swap1\n  sstore\n  pop\n    /* \"src/contracts/AccountManagement.sol\":5850:5872  RoleMap memory roleMap */\n  0x00\n    /* \"src/contracts/AccountManagement.sol\":5875:5879  user */\n  dup2\n    /* \"src/contracts/AccountManagement.sol\":5875:5887  user.roleMap */\n  0x05\n  add\n    /* \"src/contracts/AccountManagement.sol\":5850:5887  RoleMap memory roleMap = user.roleMap */\n  mload(0x40)\n  dup1\n  0x80\n  add\n  0x40\n  mstore\n  swap1\n  dup2\n  0x00\n  dup3\n  add\n  0x00\n  swap1\n  sload\n  swap1\n  0x0100\n  exp\n  swap1\n  div\n  0xff\n  and\n  iszero\n  iszero\n  iszero\n  iszero\n  dup2\n  mstore\n  0x20\n  add\n  0x00\n  dup3\n  add\n  0x01\n  swap1\n  sload\n  swap1\n  0x0100\n  exp\n  swap1\n  div\n  0xff\n  and\n  iszero\n  iszero\n  iszero\n  iszero\n  dup2\n  mstore\n  0x20\n  add\n  0x00\n  dup3\n  add\n  0x02\n  swap1\n  sload\n  swap1\n  0x0100\n  exp\n  swap1\n  div\n  0xff\n  and\n  iszero\n  iszero\n  iszero\n  iszero\n  dup2\n  mstore\n  0x20\n  add\n  0x00\n  dup3\n  add\n  0x03\n  swap1\n  sload\n  swap1\n  0x0100\n  exp\n  swap1\n  div\n  0xff\n  and\n  iszero\n  iszero\n  iszero\n  iszero\n  dup2\n  mstore\n  pop\n  pop\n  swap1\n  pop\n    /* \"src/contracts/AccountManagement.sol\":5905:5912  roleMap */\n  dup1\n    /* \"src/contracts/AccountManagement.sol\":5905:5921  roleMap.isLeader */\n  0x00\n  add\n  mload\n    /* \"src/contracts/AccountManagement.sol\":5905:5948  roleMap.isLeader || roleMap.isCouncilMember */\n  dup1\n  tag_106\n  jumpi\n  pop\n    /* \"src/contracts/AccountManagement.sol\":5925:5932  roleMap */\n  dup1\n    /* \"src/contracts/AccountManagement.sol\":5925:5948  roleMap.isCouncilMember */\n  0x20\n  add\n  mload\n    /* \"src/contracts/AccountManagement.sol\":5905:5948  roleMap.isLeader || roleMap.isCouncilMember */\ntag_106:\n    /* \"src/contracts/AccountManagement.sol\":5905:5968  roleMap.isLeader || roleMap.isCouncilMember || roleMap.isMember */\n  dup1\n  tag_107\n  jumpi\n  pop\n    /* \"src/contracts/AccountManagement.sol\":5952:5959  roleMap */\n  dup1\n    /* \"src/contracts/AccountManagement.sol\":5952:5968  roleMap.isMember */\n  0x40\n  add\n  mload\n    /* \"src/contracts/AccountManagement.sol\":5905:5968  roleMap.isLeader || roleMap.isCouncilMember || roleMap.isMember */\ntag_107:\n    /* \"src/contracts/AccountManagement.sol\":5902:6086  if(roleMap.isLeader || roleMap.isCouncilMember || roleMap.isMember)... */\n  iszero\n  tag_108\n  jumpi\n    /* \"src/contracts/AccountManagement.sol\":6028:6032  true */\n  0x01\n    /* \"src/contracts/AccountManagement.sol\":6002:6015  activeMembers */\n  0x09\n    /* \"src/contracts/AccountManagement.sol\":6002:6025  activeMembers[_address] */\n  0x00\n    /* \"src/contracts/AccountManagement.sol\":6016:6024  _address */\n  dup7\n    /* \"src/contracts/AccountManagement.sol\":6002:6025  activeMembers[_address] */\n  0xffffffffffffffffffffffffffffffffffffffff\n  and\n  0xffffffffffffffffffffffffffffffffffffffff\n  and\n  dup2\n  mstore\n  0x20\n  add\n  swap1\n  dup2\n  mstore\n  0x20\n  add\n  0x00\n  keccak256\n  0x00\n    /* \"src/contracts/AccountManagement.sol\":6002:6032  activeMembers[_address] = true */\n  0x0100\n  exp\n  dup2\n  sload\n  dup2\n  0xff\n  mul\n  not\n  and\n  swap1\n  dup4\n  iszero\n  iszero\n  mul\n  or\n  swap1\n  sstore\n  pop\n    /* \"src/contracts/AccountManagement.sol\":6051:6068  activeMemberCount */\n  0x00\n  dup1\n    /* \"src/contracts/AccountManagement.sol\":6051:6070  activeMemberCount++ */\n  dup2\n  sload\n  dup1\n  swap3\n  swap2\n  swap1\n  tag_109\n  swap1\n  tag_110\n  jump\t// in\ntag_109:\n  swap2\n  swap1\n  pop\n  sstore\n  pop\n    /* \"src/contracts/AccountManagement.sol\":5902:6086  if(roleMap.isLeader || roleMap.isCouncilMember || roleMap.isMember)... */\ntag_108:\n    /* \"src/contracts/AccountManagement.sol\":5703:6097  {... */\n  pop\n  pop\n    /* \"src/contracts/AccountManagement.sol\":5675:6097  if(!activeMembers[_address]){... */\ntag_105:\n    /* \"src/contracts/AccountManagement.sol\":5506:6104  function activateAccount(address _address) public onlyIfUserExists(_address){... */\n  pop\n  pop\n  jump\t// out\n    /* \"src/contracts/AccountManagement.sol\":66:13957  contract AccountManagement {... */\ntag_23:\n  dup3\n  dup1\n  sload\n  tag_111\n  swap1\n  tag_112\n  jump\t// in\ntag_111:\n  swap1\n  0x00\n  mstore\n  keccak256(0x00, 0x20)\n  swap1\n  0x1f\n  add\n  0x20\n  swap1\n  div\n  dup2\n  add\n  swap3\n  dup3\n  tag_114\n  jumpi\n  0x00\n  dup6\n  sstore\n  jump(tag_113)\ntag_114:\n  dup3\n  0x1f\n  lt\n  tag_115\n  jumpi\n  dup1\n  mload\n  not(0xff)\n  and\n  dup4\n  dup1\n  add\n  or\n  dup6\n  sstore\n  jump(tag_113)\ntag_115:\n  dup3\n  dup1\n  add\n  0x01\n  add\n  dup6\n  sstore\n  dup3\n  iszero\n  tag_113\n  jumpi\n  swap2\n  dup3\n  add\ntag_116:\n  dup3\n  dup2\n  gt\n  iszero\n  tag_117\n  jumpi\n  dup3\n  mload\n  dup3\n  sstore\n  swap2\n  0x20\n  add\n  swap2\n  swap1\n  0x01\n  add\n  swap1\n  jump(tag_116)\ntag_117:\ntag_113:\n  pop\n  swap1\n  pop\n  tag_118\n  swap2\n  swap1\n  tag_119\n  jump\t// in\ntag_118:\n  pop\n  swap1\n  jump\t// out\ntag_119:\ntag_120:\n  dup1\n  dup3\n  gt\n  iszero\n  tag_121\n  jumpi\n  0x00\n  dup2\n  0x00\n  swap1\n  sstore\n  pop\n  0x01\n  add\n  jump(tag_120)\ntag_121:\n  pop\n  swap1\n  jump\t// out\n    /* \"#utility.yul\":7:82   */\ntag_122:\n    /* \"#utility.yul\":40:46   */\n  0x00\n    /* \"#utility.yul\":73:75   */\n  0x40\n    /* \"#utility.yul\":67:76   */\n  mload\n    /* \"#utility.yul\":57:76   */\n  swap1\n  pop\n    /* \"#utility.yul\":7:82   */\n  swap1\n  jump\t// out\n    /* \"#utility.yul\":88:205   */\ntag_123:\n    /* \"#utility.yul\":197:198   */\n  0x00\n    /* \"#utility.yul\":194:195   */\n  dup1\n    /* \"#utility.yul\":187:199   */\n  revert\n    /* \"#utility.yul\":211:328   */\ntag_124:\n    /* \"#utility.yul\":320:321   */\n  0x00\n    /* \"#utility.yul\":317:318   */\n  dup1\n    /* \"#utility.yul\":310:322   */\n  revert\n    /* \"#utility.yul\":334:451   */\ntag_125:\n    /* \"#utility.yul\":443:444   */\n  0x00\n    /* \"#utility.yul\":440:441   */\n  dup1\n    /* \"#utility.yul\":433:445   */\n  revert\n    /* \"#utility.yul\":457:574   */\ntag_126:\n    /* \"#utility.yul\":566:567   */\n  0x00\n    /* \"#utility.yul\":563:564   */\n  dup1\n    /* \"#utility.yul\":556:568   */\n  revert\n    /* \"#utility.yul\":580:682   */\ntag_127:\n    /* \"#utility.yul\":621:627   */\n  0x00\n    /* \"#utility.yul\":672:674   */\n  0x1f\n    /* \"#utility.yul\":668:675   */\n  not\n    /* \"#utility.yul\":663:665   */\n  0x1f\n    /* \"#utility.yul\":656:661   */\n  dup4\n    /* \"#utility.yul\":652:666   */\n  add\n    /* \"#utility.yul\":648:676   */\n  and\n    /* \"#utility.yul\":638:676   */\n  swap1\n  pop\n    /* \"#utility.yul\":580:682   */\n  swap2\n  swap1\n  pop\n  jump\t// out\n    /* \"#utility.yul\":688:868   */\ntag_128:\n    /* \"#utility.yul\":736:813   */\n  0x4e487b7100000000000000000000000000000000000000000000000000000000\n    /* \"#utility.yul\":733:734   */\n  0x00\n    /* \"#utility.yul\":726:814   */\n  mstore\n    /* \"#utility.yul\":833:837   */\n  0x41\n    /* \"#utility.yul\":830:831   */\n  0x04\n    /* \"#utility.yul\":823:838   */\n  mstore\n    /* \"#utility.yul\":857:861   */\n  0x24\n    /* \"#utility.yul\":854:855   */\n  0x00\n    /* \"#utility.yul\":847:862   */\n  revert\n    /* \"#utility.yul\":874:1155   */\ntag_129:\n    /* \"#utility.yul\":957:984   */\n  tag_160\n    /* \"#utility.yul\":979:983   */\n  dup3\n    /* \"#utility.yul\":957:984   */\n  tag_127\n  jump\t// in\ntag_160:\n    /* \"#utility.yul\":949:955   */\n  dup2\n    /* \"#utility.yul\":945:985   */\n  add\n    /* \"#utility.yul\":1087:1093   */\n  dup2\n    /* \"#utility.yul\":1075:1085   */\n  dup2\n    /* \"#utility.yul\":1072:1094   */\n  lt\n    /* \"#utility.yul\":1051:1069   */\n  0xffffffffffffffff\n    /* \"#utility.yul\":1039:1049   */\n  dup3\n    /* \"#utility.yul\":1036:1070   */\n  gt\n    /* \"#utility.yul\":1033:1095   */\n  or\n    /* \"#utility.yul\":1030:1118   */\n  iszero\n  tag_161\n  jumpi\n    /* \"#utility.yul\":1098:1116   */\n  tag_162\n  tag_128\n  jump\t// in\ntag_162:\n    /* \"#utility.yul\":1030:1118   */\ntag_161:\n    /* \"#utility.yul\":1138:1148   */\n  dup1\n    /* \"#utility.yul\":1134:1136   */\n  0x40\n    /* \"#utility.yul\":1127:1149   */\n  mstore\n    /* \"#utility.yul\":917:1155   */\n  pop\n    /* \"#utility.yul\":874:1155   */\n  pop\n  pop\n  jump\t// out\n    /* \"#utility.yul\":1161:1290   */\ntag_130:\n    /* \"#utility.yul\":1195:1201   */\n  0x00\n    /* \"#utility.yul\":1222:1242   */\n  tag_164\n  tag_122\n  jump\t// in\ntag_164:\n    /* \"#utility.yul\":1212:1242   */\n  swap1\n  pop\n    /* \"#utility.yul\":1251:1284   */\n  tag_165\n    /* \"#utility.yul\":1279:1283   */\n  dup3\n    /* \"#utility.yul\":1271:1277   */\n  dup3\n    /* \"#utility.yul\":1251:1284   */\n  tag_129\n  jump\t// in\ntag_165:\n    /* \"#utility.yul\":1161:1290   */\n  swap2\n  swap1\n  pop\n  jump\t// out\n    /* \"#utility.yul\":1296:1604   */\ntag_131:\n    /* \"#utility.yul\":1358:1362   */\n  0x00\n    /* \"#utility.yul\":1448:1466   */\n  0xffffffffffffffff\n    /* \"#utility.yul\":1440:1446   */\n  dup3\n    /* \"#utility.yul\":1437:1467   */\n  gt\n    /* \"#utility.yul\":1434:1490   */\n  iszero\n  tag_167\n  jumpi\n    /* \"#utility.yul\":1470:1488   */\n  tag_168\n  tag_128\n  jump\t// in\ntag_168:\n    /* \"#utility.yul\":1434:1490   */\ntag_167:\n    /* \"#utility.yul\":1508:1537   */\n  tag_169\n    /* \"#utility.yul\":1530:1536   */\n  dup3\n    /* \"#utility.yul\":1508:1537   */\n  tag_127\n  jump\t// in\ntag_169:\n    /* \"#utility.yul\":1500:1537   */\n  swap1\n  pop\n    /* \"#utility.yul\":1592:1596   */\n  0x20\n    /* \"#utility.yul\":1586:1590   */\n  dup2\n    /* \"#utility.yul\":1582:1597   */\n  add\n    /* \"#utility.yul\":1574:1597   */\n  swap1\n  pop\n    /* \"#utility.yul\":1296:1604   */\n  swap2\n  swap1\n  pop\n  jump\t// out\n    /* \"#utility.yul\":1610:1917   */\ntag_132:\n    /* \"#utility.yul\":1678:1679   */\n  0x00\n    /* \"#utility.yul\":1688:1801   */\ntag_171:\n    /* \"#utility.yul\":1702:1708   */\n  dup4\n    /* \"#utility.yul\":1699:1700   */\n  dup2\n    /* \"#utility.yul\":1696:1709   */\n  lt\n    /* \"#utility.yul\":1688:1801   */\n  iszero\n  tag_173\n  jumpi\n    /* \"#utility.yul\":1787:1788   */\n  dup1\n    /* \"#utility.yul\":1782:1785   */\n  dup3\n    /* \"#utility.yul\":1778:1789   */\n  add\n    /* \"#utility.yul\":1772:1790   */\n  mload\n    /* \"#utility.yul\":1768:1769   */\n  dup2\n    /* \"#utility.yul\":1763:1766   */\n  dup5\n    /* \"#utility.yul\":1759:1770   */\n  add\n    /* \"#utility.yul\":1752:1791   */\n  mstore\n    /* \"#utility.yul\":1724:1726   */\n  0x20\n    /* \"#utility.yul\":1721:1722   */\n  dup2\n    /* \"#utility.yul\":1717:1727   */\n  add\n    /* \"#utility.yul\":1712:1727   */\n  swap1\n  pop\n    /* \"#utility.yul\":1688:1801   */\n  jump(tag_171)\ntag_173:\n    /* \"#utility.yul\":1819:1825   */\n  dup4\n    /* \"#utility.yul\":1816:1817   */\n  dup2\n    /* \"#utility.yul\":1813:1826   */\n  gt\n    /* \"#utility.yul\":1810:1911   */\n  iszero\n  tag_174\n  jumpi\n    /* \"#utility.yul\":1899:1900   */\n  0x00\n    /* \"#utility.yul\":1890:1896   */\n  dup5\n    /* \"#utility.yul\":1885:1888   */\n  dup5\n    /* \"#utility.yul\":1881:1897   */\n  add\n    /* \"#utility.yul\":1874:1901   */\n  mstore\n    /* \"#utility.yul\":1810:1911   */\ntag_174:\n    /* \"#utility.yul\":1659:1917   */\n  pop\n    /* \"#utility.yul\":1610:1917   */\n  pop\n  pop\n  pop\n  jump\t// out\n    /* \"#utility.yul\":1923:2344   */\ntag_133:\n    /* \"#utility.yul\":2012:2017   */\n  0x00\n    /* \"#utility.yul\":2037:2103   */\n  tag_176\n    /* \"#utility.yul\":2053:2102   */\n  tag_177\n    /* \"#utility.yul\":2095:2101   */\n  dup5\n    /* \"#utility.yul\":2053:2102   */\n  tag_131\n  jump\t// in\ntag_177:\n    /* \"#utility.yul\":2037:2103   */\n  tag_130\n  jump\t// in\ntag_176:\n    /* \"#utility.yul\":2028:2103   */\n  swap1\n  pop\n    /* \"#utility.yul\":2126:2132   */\n  dup3\n    /* \"#utility.yul\":2119:2124   */\n  dup2\n    /* \"#utility.yul\":2112:2133   */\n  mstore\n    /* \"#utility.yul\":2164:2168   */\n  0x20\n    /* \"#utility.yul\":2157:2162   */\n  dup2\n    /* \"#utility.yul\":2153:2169   */\n  add\n    /* \"#utility.yul\":2202:2205   */\n  dup5\n    /* \"#utility.yul\":2193:2199   */\n  dup5\n    /* \"#utility.yul\":2188:2191   */\n  dup5\n    /* \"#utility.yul\":2184:2200   */\n  add\n    /* \"#utility.yul\":2181:2206   */\n  gt\n    /* \"#utility.yul\":2178:2290   */\n  iszero\n  tag_178\n  jumpi\n    /* \"#utility.yul\":2209:2288   */\n  tag_179\n  tag_126\n  jump\t// in\ntag_179:\n    /* \"#utility.yul\":2178:2290   */\ntag_178:\n    /* \"#utility.yul\":2299:2338   */\n  tag_180\n    /* \"#utility.yul\":2331:2337   */\n  dup5\n    /* \"#utility.yul\":2326:2329   */\n  dup3\n    /* \"#utility.yul\":2321:2324   */\n  dup6\n    /* \"#utility.yul\":2299:2338   */\n  tag_132\n  jump\t// in\ntag_180:\n    /* \"#utility.yul\":2018:2344   */\n  pop\n    /* \"#utility.yul\":1923:2344   */\n  swap4\n  swap3\n  pop\n  pop\n  pop\n  jump\t// out\n    /* \"#utility.yul\":2364:2719   */\ntag_134:\n    /* \"#utility.yul\":2431:2436   */\n  0x00\n    /* \"#utility.yul\":2480:2483   */\n  dup3\n    /* \"#utility.yul\":2473:2477   */\n  0x1f\n    /* \"#utility.yul\":2465:2471   */\n  dup4\n    /* \"#utility.yul\":2461:2478   */\n  add\n    /* \"#utility.yul\":2457:2484   */\n  slt\n    /* \"#utility.yul\":2447:2569   */\n  tag_182\n  jumpi\n    /* \"#utility.yul\":2488:2567   */\n  tag_183\n  tag_125\n  jump\t// in\ntag_183:\n    /* \"#utility.yul\":2447:2569   */\ntag_182:\n    /* \"#utility.yul\":2598:2604   */\n  dup2\n    /* \"#utility.yul\":2592:2605   */\n  mload\n    /* \"#utility.yul\":2623:2713   */\n  tag_184\n    /* \"#utility.yul\":2709:2712   */\n  dup5\n    /* \"#utility.yul\":2701:2707   */\n  dup3\n    /* \"#utility.yul\":2694:2698   */\n  0x20\n    /* \"#utility.yul\":2686:2692   */\n  dup7\n    /* \"#utility.yul\":2682:2699   */\n  add\n    /* \"#utility.yul\":2623:2713   */\n  tag_133\n  jump\t// in\ntag_184:\n    /* \"#utility.yul\":2614:2713   */\n  swap2\n  pop\n    /* \"#utility.yul\":2437:2719   */\n  pop\n    /* \"#utility.yul\":2364:2719   */\n  swap3\n  swap2\n  pop\n  pop\n  jump\t// out\n    /* \"#utility.yul\":2725:3907   */\ntag_3:\n    /* \"#utility.yul\":2843:2849   */\n  0x00\n    /* \"#utility.yul\":2851:2857   */\n  dup1\n    /* \"#utility.yul\":2859:2865   */\n  0x00\n    /* \"#utility.yul\":2908:2910   */\n  0x60\n    /* \"#utility.yul\":2896:2905   */\n  dup5\n    /* \"#utility.yul\":2887:2894   */\n  dup7\n    /* \"#utility.yul\":2883:2906   */\n  sub\n    /* \"#utility.yul\":2879:2911   */\n  slt\n    /* \"#utility.yul\":2876:2995   */\n  iszero\n  tag_186\n  jumpi\n    /* \"#utility.yul\":2914:2993   */\n  tag_187\n  tag_123\n  jump\t// in\ntag_187:\n    /* \"#utility.yul\":2876:2995   */\ntag_186:\n    /* \"#utility.yul\":3055:3056   */\n  0x00\n    /* \"#utility.yul\":3044:3053   */\n  dup5\n    /* \"#utility.yul\":3040:3057   */\n  add\n    /* \"#utility.yul\":3034:3058   */\n  mload\n    /* \"#utility.yul\":3085:3103   */\n  0xffffffffffffffff\n    /* \"#utility.yul\":3077:3083   */\n  dup2\n    /* \"#utility.yul\":3074:3104   */\n  gt\n    /* \"#utility.yul\":3071:3188   */\n  iszero\n  tag_188\n  jumpi\n    /* \"#utility.yul\":3107:3186   */\n  tag_189\n  tag_124\n  jump\t// in\ntag_189:\n    /* \"#utility.yul\":3071:3188   */\ntag_188:\n    /* \"#utility.yul\":3212:3286   */\n  tag_190\n    /* \"#utility.yul\":3278:3285   */\n  dup7\n    /* \"#utility.yul\":3269:3275   */\n  dup3\n    /* \"#utility.yul\":3258:3267   */\n  dup8\n    /* \"#utility.yul\":3254:3276   */\n  add\n    /* \"#utility.yul\":3212:3286   */\n  tag_134\n  jump\t// in\ntag_190:\n    /* \"#utility.yul\":3202:3286   */\n  swap4\n  pop\n    /* \"#utility.yul\":3005:3296   */\n  pop\n    /* \"#utility.yul\":3356:3358   */\n  0x20\n    /* \"#utility.yul\":3345:3354   */\n  dup5\n    /* \"#utility.yul\":3341:3359   */\n  add\n    /* \"#utility.yul\":3335:3360   */\n  mload\n    /* \"#utility.yul\":3387:3405   */\n  0xffffffffffffffff\n    /* \"#utility.yul\":3379:3385   */\n  dup2\n    /* \"#utility.yul\":3376:3406   */\n  gt\n    /* \"#utility.yul\":3373:3490   */\n  iszero\n  tag_191\n  jumpi\n    /* \"#utility.yul\":3409:3488   */\n  tag_192\n  tag_124\n  jump\t// in\ntag_192:\n    /* \"#utility.yul\":3373:3490   */\ntag_191:\n    /* \"#utility.yul\":3514:3588   */\n  tag_193\n    /* \"#utility.yul\":3580:3587   */\n  dup7\n    /* \"#utility.yul\":3571:3577   */\n  dup3\n    /* \"#utility.yul\":3560:3569   */\n  dup8\n    /* \"#utility.yul\":3556:3578   */\n  add\n    /* \"#utility.yul\":3514:3588   */\n  tag_134\n  jump\t// in\ntag_193:\n    /* \"#utility.yul\":3504:3588   */\n  swap3\n  pop\n    /* \"#utility.yul\":3306:3598   */\n  pop\n    /* \"#utility.yul\":3658:3660   */\n  0x40\n    /* \"#utility.yul\":3647:3656   */\n  dup5\n    /* \"#utility.yul\":3643:3661   */\n  add\n    /* \"#utility.yul\":3637:3662   */\n  mload\n    /* \"#utility.yul\":3689:3707   */\n  0xffffffffffffffff\n    /* \"#utility.yul\":3681:3687   */\n  dup2\n    /* \"#utility.yul\":3678:3708   */\n  gt\n    /* \"#utility.yul\":3675:3792   */\n  iszero\n  tag_194\n  jumpi\n    /* \"#utility.yul\":3711:3790   */\n  tag_195\n  tag_124\n  jump\t// in\ntag_195:\n    /* \"#utility.yul\":3675:3792   */\ntag_194:\n    /* \"#utility.yul\":3816:3890   */\n  tag_196\n    /* \"#utility.yul\":3882:3889   */\n  dup7\n    /* \"#utility.yul\":3873:3879   */\n  dup3\n    /* \"#utility.yul\":3862:3871   */\n  dup8\n    /* \"#utility.yul\":3858:3880   */\n  add\n    /* \"#utility.yul\":3816:3890   */\n  tag_134\n  jump\t// in\ntag_196:\n    /* \"#utility.yul\":3806:3890   */\n  swap2\n  pop\n    /* \"#utility.yul\":3608:3900   */\n  pop\n    /* \"#utility.yul\":2725:3907   */\n  swap3\n  pop\n  swap3\n  pop\n  swap3\n  jump\t// out\n    /* \"#utility.yul\":3913:4082   */\ntag_135:\n    /* \"#utility.yul\":3997:4008   */\n  0x00\n    /* \"#utility.yul\":4031:4037   */\n  dup3\n    /* \"#utility.yul\":4026:4029   */\n  dup3\n    /* \"#utility.yul\":4019:4038   */\n  mstore\n    /* \"#utility.yul\":4071:4075   */\n  0x20\n    /* \"#utility.yul\":4066:4069   */\n  dup3\n    /* \"#utility.yul\":4062:4076   */\n  add\n    /* \"#utility.yul\":4047:4076   */\n  swap1\n  pop\n    /* \"#utility.yul\":3913:4082   */\n  swap3\n  swap2\n  pop\n  pop\n  jump\t// out\n    /* \"#utility.yul\":4088:4260   */\ntag_136:\n    /* \"#utility.yul\":4228:4252   */\n  0x4163636f756e7420616c72656164792065786973747300000000000000000000\n    /* \"#utility.yul\":4224:4225   */\n  0x00\n    /* \"#utility.yul\":4216:4222   */\n  dup3\n    /* \"#utility.yul\":4212:4226   */\n  add\n    /* \"#utility.yul\":4205:4253   */\n  mstore\n    /* \"#utility.yul\":4088:4260   */\n  pop\n  jump\t// out\n    /* \"#utility.yul\":4266:4632   */\ntag_137:\n    /* \"#utility.yul\":4408:4411   */\n  0x00\n    /* \"#utility.yul\":4429:4496   */\n  tag_200\n    /* \"#utility.yul\":4493:4495   */\n  0x16\n    /* \"#utility.yul\":4488:4491   */\n  dup4\n    /* \"#utility.yul\":4429:4496   */\n  tag_135\n  jump\t// in\ntag_200:\n    /* \"#utility.yul\":4422:4496   */\n  swap2\n  pop\n    /* \"#utility.yul\":4505:4598   */\n  tag_201\n    /* \"#utility.yul\":4594:4597   */\n  dup3\n    /* \"#utility.yul\":4505:4598   */\n  tag_136\n  jump\t// in\ntag_201:\n    /* \"#utility.yul\":4623:4625   */\n  0x20\n    /* \"#utility.yul\":4618:4621   */\n  dup3\n    /* \"#utility.yul\":4614:4626   */\n  add\n    /* \"#utility.yul\":4607:4626   */\n  swap1\n  pop\n    /* \"#utility.yul\":4266:4632   */\n  swap2\n  swap1\n  pop\n  jump\t// out\n    /* \"#utility.yul\":4638:5057   */\ntag_20:\n    /* \"#utility.yul\":4804:4808   */\n  0x00\n    /* \"#utility.yul\":4842:4844   */\n  0x20\n    /* \"#utility.yul\":4831:4840   */\n  dup3\n    /* \"#utility.yul\":4827:4845   */\n  add\n    /* \"#utility.yul\":4819:4845   */\n  swap1\n  pop\n    /* \"#utility.yul\":4891:4900   */\n  dup2\n    /* \"#utility.yul\":4885:4889   */\n  dup2\n    /* \"#utility.yul\":4881:4901   */\n  sub\n    /* \"#utility.yul\":4877:4878   */\n  0x00\n    /* \"#utility.yul\":4866:4875   */\n  dup4\n    /* \"#utility.yul\":4862:4879   */\n  add\n    /* \"#utility.yul\":4855:4902   */\n  mstore\n    /* \"#utility.yul\":4919:5050   */\n  tag_203\n    /* \"#utility.yul\":5045:5049   */\n  dup2\n    /* \"#utility.yul\":4919:5050   */\n  tag_137\n  jump\t// in\ntag_203:\n    /* \"#utility.yul\":4911:5050   */\n  swap1\n  pop\n    /* \"#utility.yul\":4638:5057   */\n  swap2\n  swap1\n  pop\n  jump\t// out\n    /* \"#utility.yul\":5063:5189   */\ntag_138:\n    /* \"#utility.yul\":5100:5107   */\n  0x00\n    /* \"#utility.yul\":5140:5182   */\n  0xffffffffffffffffffffffffffffffffffffffff\n    /* \"#utility.yul\":5133:5138   */\n  dup3\n    /* \"#utility.yul\":5129:5183   */\n  and\n    /* \"#utility.yul\":5118:5183   */\n  swap1\n  pop\n    /* \"#utility.yul\":5063:5189   */\n  swap2\n  swap1\n  pop\n  jump\t// out\n    /* \"#utility.yul\":5195:5291   */\ntag_139:\n    /* \"#utility.yul\":5232:5239   */\n  0x00\n    /* \"#utility.yul\":5261:5285   */\n  tag_206\n    /* \"#utility.yul\":5279:5284   */\n  dup3\n    /* \"#utility.yul\":5261:5285   */\n  tag_138\n  jump\t// in\ntag_206:\n    /* \"#utility.yul\":5250:5285   */\n  swap1\n  pop\n    /* \"#utility.yul\":5195:5291   */\n  swap2\n  swap1\n  pop\n  jump\t// out\n    /* \"#utility.yul\":5297:5415   */\ntag_140:\n    /* \"#utility.yul\":5384:5408   */\n  tag_208\n    /* \"#utility.yul\":5402:5407   */\n  dup2\n    /* \"#utility.yul\":5384:5408   */\n  tag_139\n  jump\t// in\ntag_208:\n    /* \"#utility.yul\":5379:5382   */\n  dup3\n    /* \"#utility.yul\":5372:5409   */\n  mstore\n    /* \"#utility.yul\":5297:5415   */\n  pop\n  pop\n  jump\t// out\n    /* \"#utility.yul\":5421:5643   */\ntag_29:\n    /* \"#utility.yul\":5514:5518   */\n  0x00\n    /* \"#utility.yul\":5552:5554   */\n  0x20\n    /* \"#utility.yul\":5541:5550   */\n  dup3\n    /* \"#utility.yul\":5537:5555   */\n  add\n    /* \"#utility.yul\":5529:5555   */\n  swap1\n  pop\n    /* \"#utility.yul\":5565:5636   */\n  tag_210\n    /* \"#utility.yul\":5633:5634   */\n  0x00\n    /* \"#utility.yul\":5622:5631   */\n  dup4\n    /* \"#utility.yul\":5618:5635   */\n  add\n    /* \"#utility.yul\":5609:5615   */\n  dup5\n    /* \"#utility.yul\":5565:5636   */\n  tag_140\n  jump\t// in\ntag_210:\n    /* \"#utility.yul\":5421:5643   */\n  swap3\n  swap2\n  pop\n  pop\n  jump\t// out\n    /* \"#utility.yul\":5649:5739   */\ntag_141:\n    /* \"#utility.yul\":5683:5690   */\n  0x00\n    /* \"#utility.yul\":5726:5731   */\n  dup2\n    /* \"#utility.yul\":5719:5732   */\n  iszero\n    /* \"#utility.yul\":5712:5733   */\n  iszero\n    /* \"#utility.yul\":5701:5733   */\n  swap1\n  pop\n    /* \"#utility.yul\":5649:5739   */\n  swap2\n  swap1\n  pop\n  jump\t// out\n    /* \"#utility.yul\":5745:5861   */\ntag_142:\n    /* \"#utility.yul\":5815:5836   */\n  tag_213\n    /* \"#utility.yul\":5830:5835   */\n  dup2\n    /* \"#utility.yul\":5815:5836   */\n  tag_141\n  jump\t// in\ntag_213:\n    /* \"#utility.yul\":5808:5813   */\n  dup2\n    /* \"#utility.yul\":5805:5837   */\n  eq\n    /* \"#utility.yul\":5795:5855   */\n  tag_214\n  jumpi\n    /* \"#utility.yul\":5851:5852   */\n  0x00\n    /* \"#utility.yul\":5848:5849   */\n  dup1\n    /* \"#utility.yul\":5841:5853   */\n  revert\n    /* \"#utility.yul\":5795:5855   */\ntag_214:\n    /* \"#utility.yul\":5745:5861   */\n  pop\n  jump\t// out\n    /* \"#utility.yul\":5867:6004   */\ntag_143:\n    /* \"#utility.yul\":5921:5926   */\n  0x00\n    /* \"#utility.yul\":5952:5958   */\n  dup2\n    /* \"#utility.yul\":5946:5959   */\n  mload\n    /* \"#utility.yul\":5937:5959   */\n  swap1\n  pop\n    /* \"#utility.yul\":5968:5998   */\n  tag_216\n    /* \"#utility.yul\":5992:5997   */\n  dup2\n    /* \"#utility.yul\":5968:5998   */\n  tag_142\n  jump\t// in\ntag_216:\n    /* \"#utility.yul\":5867:6004   */\n  swap3\n  swap2\n  pop\n  pop\n  jump\t// out\n    /* \"#utility.yul\":6010:6355   */\ntag_33:\n    /* \"#utility.yul\":6077:6083   */\n  0x00\n    /* \"#utility.yul\":6126:6128   */\n  0x20\n    /* \"#utility.yul\":6114:6123   */\n  dup3\n    /* \"#utility.yul\":6105:6112   */\n  dup5\n    /* \"#utility.yul\":6101:6124   */\n  sub\n    /* \"#utility.yul\":6097:6129   */\n  slt\n    /* \"#utility.yul\":6094:6213   */\n  iszero\n  tag_218\n  jumpi\n    /* \"#utility.yul\":6132:6211   */\n  tag_219\n  tag_123\n  jump\t// in\ntag_219:\n    /* \"#utility.yul\":6094:6213   */\ntag_218:\n    /* \"#utility.yul\":6252:6253   */\n  0x00\n    /* \"#utility.yul\":6277:6338   */\n  tag_220\n    /* \"#utility.yul\":6330:6337   */\n  dup5\n    /* \"#utility.yul\":6321:6327   */\n  dup3\n    /* \"#utility.yul\":6310:6319   */\n  dup6\n    /* \"#utility.yul\":6306:6328   */\n  add\n    /* \"#utility.yul\":6277:6338   */\n  tag_143\n  jump\t// in\ntag_220:\n    /* \"#utility.yul\":6267:6338   */\n  swap2\n  pop\n    /* \"#utility.yul\":6223:6348   */\n  pop\n    /* \"#utility.yul\":6010:6355   */\n  swap3\n  swap2\n  pop\n  pop\n  jump\t// out\n    /* \"#utility.yul\":6361:6582   */\ntag_144:\n    /* \"#utility.yul\":6501:6535   */\n  0x4f6e6c79206f776e65722063616e2063616c6c20746869732066756e6374696f\n    /* \"#utility.yul\":6497:6498   */\n  0x00\n    /* \"#utility.yul\":6489:6495   */\n  dup3\n    /* \"#utility.yul\":6485:6499   */\n  add\n    /* \"#utility.yul\":6478:6536   */\n  mstore\n    /* \"#utility.yul\":6570:6574   */\n  0x6e2e000000000000000000000000000000000000000000000000000000000000\n    /* \"#utility.yul\":6565:6567   */\n  0x20\n    /* \"#utility.yul\":6557:6563   */\n  dup3\n    /* \"#utility.yul\":6553:6568   */\n  add\n    /* \"#utility.yul\":6546:6575   */\n  mstore\n    /* \"#utility.yul\":6361:6582   */\n  pop\n  jump\t// out\n    /* \"#utility.yul\":6588:6954   */\ntag_145:\n    /* \"#utility.yul\":6730:6733   */\n  0x00\n    /* \"#utility.yul\":6751:6818   */\n  tag_223\n    /* \"#utility.yul\":6815:6817   */\n  0x22\n    /* \"#utility.yul\":6810:6813   */\n  dup4\n    /* \"#utility.yul\":6751:6818   */\n  tag_135\n  jump\t// in\ntag_223:\n    /* \"#utility.yul\":6744:6818   */\n  swap2\n  pop\n    /* \"#utility.yul\":6827:6920   */\n  tag_224\n    /* \"#utility.yul\":6916:6919   */\n  dup3\n    /* \"#utility.yul\":6827:6920   */\n  tag_144\n  jump\t// in\ntag_224:\n    /* \"#utility.yul\":6945:6947   */\n  0x40\n    /* \"#utility.yul\":6940:6943   */\n  dup3\n    /* \"#utility.yul\":6936:6948   */\n  add\n    /* \"#utility.yul\":6929:6948   */\n  swap1\n  pop\n    /* \"#utility.yul\":6588:6954   */\n  swap2\n  swap1\n  pop\n  jump\t// out\n    /* \"#utility.yul\":6960:7379   */\ntag_36:\n    /* \"#utility.yul\":7126:7130   */\n  0x00\n    /* \"#utility.yul\":7164:7166   */\n  0x20\n    /* \"#utility.yul\":7153:7162   */\n  dup3\n    /* \"#utility.yul\":7149:7167   */\n  add\n    /* \"#utility.yul\":7141:7167   */\n  swap1\n  pop\n    /* \"#utility.yul\":7213:7222   */\n  dup2\n    /* \"#utility.yul\":7207:7211   */\n  dup2\n    /* \"#utility.yul\":7203:7223   */\n  sub\n    /* \"#utility.yul\":7199:7200   */\n  0x00\n    /* \"#utility.yul\":7188:7197   */\n  dup4\n    /* \"#utility.yul\":7184:7201   */\n  add\n    /* \"#utility.yul\":7177:7224   */\n  mstore\n    /* \"#utility.yul\":7241:7372   */\n  tag_226\n    /* \"#utility.yul\":7367:7371   */\n  dup2\n    /* \"#utility.yul\":7241:7372   */\n  tag_145\n  jump\t// in\ntag_226:\n    /* \"#utility.yul\":7233:7372   */\n  swap1\n  pop\n    /* \"#utility.yul\":6960:7379   */\n  swap2\n  swap1\n  pop\n  jump\t// out\n    /* \"#utility.yul\":7385:7556   */\ntag_146:\n    /* \"#utility.yul\":7525:7548   */\n  0x4163636f756e7420646f65736e27742065786973740000000000000000000000\n    /* \"#utility.yul\":7521:7522   */\n  0x00\n    /* \"#utility.yul\":7513:7519   */\n  dup3\n    /* \"#utility.yul\":7509:7523   */\n  add\n    /* \"#utility.yul\":7502:7549   */\n  mstore\n    /* \"#utility.yul\":7385:7556   */\n  pop\n  jump\t// out\n    /* \"#utility.yul\":7562:7928   */\ntag_147:\n    /* \"#utility.yul\":7704:7707   */\n  0x00\n    /* \"#utility.yul\":7725:7792   */\n  tag_229\n    /* \"#utility.yul\":7789:7791   */\n  0x15\n    /* \"#utility.yul\":7784:7787   */\n  dup4\n    /* \"#utility.yul\":7725:7792   */\n  tag_135\n  jump\t// in\ntag_229:\n    /* \"#utility.yul\":7718:7792   */\n  swap2\n  pop\n    /* \"#utility.yul\":7801:7894   */\n  tag_230\n    /* \"#utility.yul\":7890:7893   */\n  dup3\n    /* \"#utility.yul\":7801:7894   */\n  tag_146\n  jump\t// in\ntag_230:\n    /* \"#utility.yul\":7919:7921   */\n  0x20\n    /* \"#utility.yul\":7914:7917   */\n  dup3\n    /* \"#utility.yul\":7910:7922   */\n  add\n    /* \"#utility.yul\":7903:7922   */\n  swap1\n  pop\n    /* \"#utility.yul\":7562:7928   */\n  swap2\n  swap1\n  pop\n  jump\t// out\n    /* \"#utility.yul\":7934:8353   */\ntag_40:\n    /* \"#utility.yul\":8100:8104   */\n  0x00\n    /* \"#utility.yul\":8138:8140   */\n  0x20\n    /* \"#utility.yul\":8127:8136   */\n  dup3\n    /* \"#utility.yul\":8123:8141   */\n  add\n    /* \"#utility.yul\":8115:8141   */\n  swap1\n  pop\n    /* \"#utility.yul\":8187:8196   */\n  dup2\n    /* \"#utility.yul\":8181:8185   */\n  dup2\n    /* \"#utility.yul\":8177:8197   */\n  sub\n    /* \"#utility.yul\":8173:8174   */\n  0x00\n    /* \"#utility.yul\":8162:8171   */\n  dup4\n    /* \"#utility.yul\":8158:8175   */\n  add\n    /* \"#utility.yul\":8151:8198   */\n  mstore\n    /* \"#utility.yul\":8215:8346   */\n  tag_232\n    /* \"#utility.yul\":8341:8345   */\n  dup2\n    /* \"#utility.yul\":8215:8346   */\n  tag_147\n  jump\t// in\ntag_232:\n    /* \"#utility.yul\":8207:8346   */\n  swap1\n  pop\n    /* \"#utility.yul\":7934:8353   */\n  swap2\n  swap1\n  pop\n  jump\t// out\n    /* \"#utility.yul\":8359:8539   */\ntag_44:\n    /* \"#utility.yul\":8407:8484   */\n  0x4e487b7100000000000000000000000000000000000000000000000000000000\n    /* \"#utility.yul\":8404:8405   */\n  0x00\n    /* \"#utility.yul\":8397:8485   */\n  mstore\n    /* \"#utility.yul\":8504:8508   */\n  0x21\n    /* \"#utility.yul\":8501:8502   */\n  0x04\n    /* \"#utility.yul\":8494:8509   */\n  mstore\n    /* \"#utility.yul\":8528:8532   */\n  0x24\n    /* \"#utility.yul\":8525:8526   */\n  0x00\n    /* \"#utility.yul\":8518:8533   */\n  revert\n    /* \"#utility.yul\":8545:8725   */\ntag_148:\n    /* \"#utility.yul\":8593:8670   */\n  0x4e487b7100000000000000000000000000000000000000000000000000000000\n    /* \"#utility.yul\":8590:8591   */\n  0x00\n    /* \"#utility.yul\":8583:8671   */\n  mstore\n    /* \"#utility.yul\":8690:8694   */\n  0x11\n    /* \"#utility.yul\":8687:8688   */\n  0x04\n    /* \"#utility.yul\":8680:8695   */\n  mstore\n    /* \"#utility.yul\":8714:8718   */\n  0x24\n    /* \"#utility.yul\":8711:8712   */\n  0x00\n    /* \"#utility.yul\":8704:8719   */\n  revert\n    /* \"#utility.yul\":8731:8808   */\ntag_149:\n    /* \"#utility.yul\":8768:8775   */\n  0x00\n    /* \"#utility.yul\":8797:8802   */\n  dup2\n    /* \"#utility.yul\":8786:8802   */\n  swap1\n  pop\n    /* \"#utility.yul\":8731:8808   */\n  swap2\n  swap1\n  pop\n  jump\t// out\n    /* \"#utility.yul\":8814:9047   */\ntag_110:\n    /* \"#utility.yul\":8853:8856   */\n  0x00\n    /* \"#utility.yul\":8876:8900   */\n  tag_237\n    /* \"#utility.yul\":8894:8899   */\n  dup3\n    /* \"#utility.yul\":8876:8900   */\n  tag_149\n  jump\t// in\ntag_237:\n    /* \"#utility.yul\":8867:8900   */\n  swap2\n  pop\n    /* \"#utility.yul\":8922:8988   */\n  0xffffffffffffffffffffffffffffffffffffffffffffffffffffffffffffffff\n    /* \"#utility.yul\":8915:8920   */\n  dup3\n    /* \"#utility.yul\":8912:8989   */\n  eq\n    /* \"#utility.yul\":8909:9012   */\n  iszero\n  tag_238\n  jumpi\n    /* \"#utility.yul\":8992:9010   */\n  tag_239\n  tag_148\n  jump\t// in\ntag_239:\n    /* \"#utility.yul\":8909:9012   */\ntag_238:\n    /* \"#utility.yul\":9039:9040   */\n  0x01\n    /* \"#utility.yul\":9032:9037   */\n  dup3\n    /* \"#utility.yul\":9028:9041   */\n  add\n    /* \"#utility.yul\":9021:9041   */\n  swap1\n  pop\n    /* \"#utility.yul\":8814:9047   */\n  swap2\n  swap1\n  pop\n  jump\t// out\n    /* \"#utility.yul\":9053:9233   */\ntag_150:\n    /* \"#utility.yul\":9101:9178   */\n  0x4e487b7100000000000000000000000000000000000000000000000000000000\n    /* \"#utility.yul\":9098:9099   */\n  0x00\n    /* \"#utility.yul\":9091:9179   */\n  mstore\n    /* \"#utility.yul\":9198:9202   */\n  0x22\n    /* \"#utility.yul\":9195:9196   */\n  0x04\n    /* \"#utility.yul\":9188:9203   */\n  mstore\n    /* \"#utility.yul\":9222:9226   */\n  0x24\n    /* \"#utility.yul\":9219:9220   */\n  0x00\n    /* \"#utility.yul\":9212:9227   */\n  revert\n    /* \"#utility.yul\":9239:9559   */\ntag_112:\n    /* \"#utility.yul\":9283:9289   */\n  0x00\n    /* \"#utility.yul\":9320:9321   */\n  0x02\n    /* \"#utility.yul\":9314:9318   */\n  dup3\n    /* \"#utility.yul\":9310:9322   */\n  div\n    /* \"#utility.yul\":9300:9322   */\n  swap1\n  pop\n    /* \"#utility.yul\":9367:9368   */\n  0x01\n    /* \"#utility.yul\":9361:9365   */\n  dup3\n    /* \"#utility.yul\":9357:9369   */\n  and\n    /* \"#utility.yul\":9388:9406   */\n  dup1\n    /* \"#utility.yul\":9378:9459   */\n  tag_242\n  jumpi\n    /* \"#utility.yul\":9444:9448   */\n  0x7f\n    /* \"#utility.yul\":9436:9442   */\n  dup3\n    /* \"#utility.yul\":9432:9449   */\n  and\n    /* \"#utility.yul\":9422:9449   */\n  swap2\n  pop\n    /* \"#utility.yul\":9378:9459   */\ntag_242:\n    /* \"#utility.yul\":9506:9508   */\n  0x20\n    /* \"#utility.yul\":9498:9504   */\n  dup3\n    /* \"#utility.yul\":9495:9509   */\n  lt\n    /* \"#utility.yul\":9475:9493   */\n  dup2\n    /* \"#utility.yul\":9472:9510   */\n  eq\n    /* \"#utility.yul\":9469:9553   */\n  iszero\n  tag_243\n  jumpi\n    /* \"#utility.yul\":9525:9543   */\n  tag_244\n  tag_150\n  jump\t// in\ntag_244:\n    /* \"#utility.yul\":9469:9553   */\ntag_243:\n    /* \"#utility.yul\":9290:9559   */\n  pop\n    /* \"#utility.yul\":9239:9559   */\n  swap2\n  swap1\n  pop\n  jump\t// out\n    /* \"src/contracts/AccountManagement.sol\":66:13957  contract AccountManagement {... */\ntag_16:\n  dataSize(sub_0)\n  dup1\n  dataOffset(sub_0)\n  0x00\n  codecopy\n  0x00\n  return\nstop\n\nsub_0: assembly {\n        /* \"src/contracts/AccountManagement.sol\":66:13957  contract AccountManagement {... */\n      mstore(0x40, 0x80)\n      callvalue\n      dup1\n      iszero\n      tag_1\n      jumpi\n      0x00\n      dup1\n      revert\n    tag_1:\n      pop\n      jumpi(tag_2, lt(calldatasize, 0x04))\n      shr(0xe0, calldataload(0x00))\n      dup1\n      0x8ad63c01\n      gt\n      tag_22\n      jumpi\n      dup1\n      0xd3a5059a\n      gt\n      tag_23\n      jumpi\n      dup1\n      0xd3a5059a\n      eq\n      tag_17\n      jumpi\n      dup1\n      0xd41450b6\n      eq\n      tag_18\n      jumpi\n      dup1\n      0xdee94b4a\n      eq\n      tag_19\n      jumpi\n      dup1\n      0xe8621e59\n      eq\n      tag_20\n      jumpi\n      dup1\n      0xfa4d7aae\n      eq\n      tag_21\n      jumpi\n      jump(tag_2)\n    tag_23:\n      dup1\n      0x8ad63c01\n      eq\n      tag_12\n      jumpi\n      dup1\n      0x8da5cb5b\n      eq\n      tag_13\n      jumpi\n      dup1\n      0x95a26fa6\n      eq\n      tag_14\n      jumpi\n      dup1\n      0xb1813695\n      eq\n      tag_15\n      jumpi\n      dup1\n      0xc29d72bc\n      eq\n      tag_16\n      jumpi\n      jump(tag_2)\n    tag_22:\n      dup1\n      0x22faa41f\n      gt\n      tag_24\n      jumpi\n      dup1\n      0x22faa41f\n      eq\n      tag_7\n      jumpi\n      dup1\n      0x297027d5\n      eq\n      tag_8\n      jumpi\n      dup1\n      0x3d0a8a34\n      eq\n      tag_9\n      jumpi\n      dup1\n      0x6f77926b\n      eq\n      tag_10\n      jumpi\n      dup1\n      0x82a62137\n      eq\n      tag_11\n      jumpi\n      jump(tag_2)\n    tag_24:\n      dup1\n      0x056909b7\n      eq\n      tag_3\n      jumpi\n      dup1\n      0x0e666e49\n      eq\n      tag_4\n      jumpi\n      dup1\n      0x130cb5f0\n      eq\n      tag_5\n      jumpi\n      dup1\n      0x20e05d9c\n      eq\n      tag_6\n      jumpi\n    tag_2:\n      0x00\n      dup1\n      revert\n        /* \"src/contracts/AccountManagement.sol\":12951:13077  function hasMemberRole(address _address) external view returns (bool) {... */\n    tag_3:\n      tag_25\n      0x04\n      dup1\n      calldatasize\n      sub\n      dup2\n      add\n      swap1\n      tag_26\n      swap2\n      swap1\n      tag_27\n      jump\t// in\n    tag_26:\n      tag_28\n      jump\t// in\n    tag_25:\n      mload(0x40)\n      tag_29\n      swap2\n      swap1\n      tag_30\n      jump\t// in\n    tag_29:\n      mload(0x40)\n      dup1\n      swap2\n      sub\n      swap1\n      return\n        /* \"src/contracts/AccountManagement.sol\":13582:13742  function userExists(address _address) external view returns(bool){... */\n    tag_4:\n      tag_31\n      0x04\n      dup1\n      calldatasize\n      sub\n      dup2\n      add\n      swap1\n      tag_32\n      swap2\n      swap1\n      tag_27\n      jump\t// in\n    tag_32:\n      tag_33\n      jump\t// in\n    tag_31:\n      mload(0x40)\n      tag_34\n      swap2\n      swap1\n      tag_30\n      jump\t// in\n    tag_34:\n      mload(0x40)\n      dup1\n      swap2\n      sub\n      swap1\n      return\n        /* \"src/contracts/AccountManagement.sol\":6112:6589  function deactivateAccount(address _address) public onlyIfUserExists(_address){... */\n    tag_5:\n      tag_35\n      0x04\n      dup1\n      calldatasize\n      sub\n      dup2\n      add\n      swap1\n      tag_36\n      swap2\n      swap1\n      tag_27\n      jump\t// in\n    tag_36:\n      tag_37\n      jump\t// in\n    tag_35:\n      stop\n        /* \"src/contracts/AccountManagement.sol\":9943:10185  function createLeaderBoard(address[] memory _members) public view returns(LeaderBoard memory){... */\n    tag_6:\n      tag_38\n      0x04\n      dup1\n      calldatasize\n      sub\n      dup2\n      add\n      swap1\n      tag_39\n      swap2\n      swap1\n      tag_40\n      jump\t// in\n    tag_39:\n      tag_41\n      jump\t// in\n    tag_38:\n      mload(0x40)\n      tag_42\n      swap2\n      swap1\n      tag_43\n      jump\t// in\n    tag_42:\n      mload(0x40)\n      dup1\n      swap2\n      sub\n      swap1\n      return\n        /* \"src/contracts/AccountManagement.sol\":13470:13574  function getActiveMemberCount() external view returns (uint) {... */\n    tag_7:\n      tag_44\n      tag_45\n      jump\t// in\n    tag_44:\n      mload(0x40)\n      tag_46\n      swap2\n      swap1\n      tag_47\n      jump\t// in\n    tag_46:\n      mload(0x40)\n      dup1\n      swap2\n      sub\n      swap1\n      return\n        /* \"src/contracts/AccountManagement.sol\":12665:12791  function hasLeaderRole(address _address) external view returns (bool) {... */\n    tag_8:\n      tag_48\n      0x04\n      dup1\n      calldatasize\n      sub\n      dup2\n      add\n      swap1\n      tag_49\n      swap2\n      swap1\n      tag_27\n      jump\t// in\n    tag_49:\n      tag_50\n      jump\t// in\n    tag_48:\n      mload(0x40)\n      tag_51\n      swap2\n      swap1\n      tag_30\n      jump\t// in\n    tag_51:\n      mload(0x40)\n      dup1\n      swap2\n      sub\n      swap1\n      return\n        /* \"src/contracts/AccountManagement.sol\":10193:10578  function appointLeaderBoard(address _sender, LeaderBoard memory _leaderBoard) public {... */\n    tag_9:\n      tag_52\n      0x04\n      dup1\n      calldatasize\n      sub\n      dup2\n      add\n      swap1\n      tag_53\n      swap2\n      swap1\n      tag_54\n      jump\t// in\n    tag_53:\n      tag_55\n      jump\t// in\n    tag_52:\n      stop\n        /* \"src/contracts/AccountManagement.sol\":13221:13462  function getUser(address _address) external view returns(User memory){... */\n    tag_10:\n      tag_56\n      0x04\n      dup1\n      calldatasize\n      sub\n      dup2\n      add\n      swap1\n      tag_57\n      swap2\n      swap1\n      tag_27\n      jump\t// in\n    tag_57:\n      tag_58\n      jump\t// in\n    tag_56:\n      mload(0x40)\n      tag_59\n      swap2\n      swap1\n      tag_60\n      jump\t// in\n    tag_59:\n      mload(0x40)\n      dup1\n      swap2\n      sub\n      swap1\n      return\n        /* \"src/contracts/AccountManagement.sol\":5506:6104  function activateAccount(address _address) public onlyIfUserExists(_address){... */\n    tag_11:\n      tag_61\n      0x04\n      dup1\n      calldatasize\n      sub\n      dup2\n      add\n      swap1\n      tag_62\n      swap2\n      swap1\n      tag_27\n      jump\t// in\n    tag_62:\n      tag_63\n      jump\t// in\n    tag_61:\n      stop\n        /* \"src/contracts/AccountManagement.sol\":11201:11561  function appointCouncil(address _sender, Council memory _council) public {... */\n    tag_12:\n      tag_64\n      0x04\n      dup1\n      calldatasize\n      sub\n      dup2\n      add\n      swap1\n      tag_65\n      swap2\n      swap1\n      tag_66\n      jump\t// in\n    tag_65:\n      tag_67\n      jump\t// in\n    tag_64:\n      stop\n        /* \"src/contracts/AccountManagement.sol\":1121:1141  address public owner */\n    tag_13:\n      tag_68\n      tag_69\n      jump\t// in\n    tag_68:\n      mload(0x40)\n      tag_70\n      swap2\n      swap1\n      tag_71\n      jump\t// in\n    tag_70:\n      mload(0x40)\n      dup1\n      swap2\n      sub\n      swap1\n      return\n        /* \"src/contracts/AccountManagement.sol\":1952:4217  function _testAccountManagement() public{... */\n    tag_14:\n      tag_72\n      tag_73\n      jump\t// in\n    tag_72:\n      stop\n        /* \"src/contracts/AccountManagement.sol\":13862:13954  function getCouncil() external view returns(Council memory){... */\n    tag_15:\n      tag_74\n      tag_75\n      jump\t// in\n    tag_74:\n      mload(0x40)\n      tag_76\n      swap2\n      swap1\n      tag_77\n      jump\t// in\n    tag_76:\n      mload(0x40)\n      dup1\n      swap2\n      sub\n      swap1\n      return\n        /* \"src/contracts/AccountManagement.sol\":13750:13854  function getLeaderBoard() external view returns(LeaderBoard memory){... */\n    tag_16:\n      tag_78\n      tag_79\n      jump\t// in\n    tag_78:\n      mload(0x40)\n      tag_80\n      swap2\n      swap1\n      tag_43\n      jump\t// in\n    tag_80:\n      mload(0x40)\n      dup1\n      swap2\n      sub\n      swap1\n      return\n        /* \"src/contracts/AccountManagement.sol\":6597:6814  function burnAccount(address _address) public onlyIfUserExists(_address){  ... */\n    tag_17:\n      tag_81\n      0x04\n      dup1\n      calldatasize\n      sub\n      dup2\n      add\n      swap1\n      tag_82\n      swap2\n      swap1\n      tag_27\n      jump\t// in\n    tag_82:\n      tag_83\n      jump\t// in\n    tag_81:\n      stop\n        /* \"src/contracts/AccountManagement.sol\":10967:11193  function createCouncil(address[] memory _members) public view returns(Council memory){... */\n    tag_18:\n      tag_84\n      0x04\n      dup1\n      calldatasize\n      sub\n      dup2\n      add\n      swap1\n      tag_85\n      swap2\n      swap1\n      tag_40\n      jump\t// in\n    tag_85:\n      tag_86\n      jump\t// in\n    tag_84:\n      mload(0x40)\n      tag_87\n      swap2\n      swap1\n      tag_77\n      jump\t// in\n    tag_87:\n      mload(0x40)\n      dup1\n      swap2\n      sub\n      swap1\n      return\n        /* \"src/contracts/AccountManagement.sol\":5131:5498  function createAccount(address _address, string memory _firstName, string memory _lastName, string memory _mailAdress) public onlyIfUserNotExists(_address){... */\n    tag_19:\n      tag_88\n      0x04\n      dup1\n      calldatasize\n      sub\n      dup2\n      add\n      swap1\n      tag_89\n      swap2\n      swap1\n      tag_90\n      jump\t// in\n    tag_89:\n      tag_91\n      jump\t// in\n    tag_88:\n      stop\n        /* \"src/contracts/AccountManagement.sol\":13089:13213  function hasGuestRole(address _address) external view returns (bool) {... */\n    tag_20:\n      tag_92\n      0x04\n      dup1\n      calldatasize\n      sub\n      dup2\n      add\n      swap1\n      tag_93\n      swap2\n      swap1\n      tag_27\n      jump\t// in\n    tag_93:\n      tag_94\n      jump\t// in\n    tag_92:\n      mload(0x40)\n      tag_95\n      swap2\n      swap1\n      tag_30\n      jump\t// in\n    tag_95:\n      mload(0x40)\n      dup1\n      swap2\n      sub\n      swap1\n      return\n        /* \"src/contracts/AccountManagement.sol\":12799:12939  function hasCouncilMemberRole(address _address) external view returns (bool) {... */\n    tag_21:\n      tag_96\n      0x04\n      dup1\n      calldatasize\n      sub\n      dup2\n      add\n      swap1\n      tag_97\n      swap2\n      swap1\n      tag_27\n      jump\t// in\n    tag_97:\n      tag_98\n      jump\t// in\n    tag_96:\n      mload(0x40)\n      tag_99\n      swap2\n      swap1\n      tag_30\n      jump\t// in\n    tag_99:\n      mload(0x40)\n      dup1\n      swap2\n      sub\n      swap1\n      return\n        /* \"src/contracts/AccountManagement.sol\":12951:13077  function hasMemberRole(address _address) external view returns (bool) {... */\n    tag_28:\n        /* \"src/contracts/AccountManagement.sol\":13015:13019  bool */\n      0x00\n        /* \"src/contracts/AccountManagement.sol\":13039:13069  hasRole(_address, Role.MEMBER) */\n      tag_101\n        /* \"src/contracts/AccountManagement.sol\":13047:13055  _address */\n      dup3\n        /* \"src/contracts/AccountManagement.sol\":13057:13068  Role.MEMBER */\n      0x02\n        /* \"src/contracts/AccountManagement.sol\":13039:13046  hasRole */\n      tag_102\n        /* \"src/contracts/AccountManagement.sol\":13039:13069  hasRole(_address, Role.MEMBER) */\n      jump\t// in\n    tag_101:\n        /* \"src/contracts/AccountManagement.sol\":13032:13069  return hasRole(_address, Role.MEMBER) */\n      swap1\n      pop\n        /* \"src/contracts/AccountManagement.sol\":12951:13077  function hasMemberRole(address _address) external view returns (bool) {... */\n      swap2\n      swap1\n      pop\n      jump\t// out\n        /* \"src/contracts/AccountManagement.sol\":13582:13742  function userExists(address _address) external view returns(bool){... */\n    tag_33:\n        /* \"src/contracts/AccountManagement.sol\":13642:13646  bool */\n      0x00\n        /* \"src/contracts/AccountManagement.sol\":13658:13671  User memory u */\n      dup1\n        /* \"src/contracts/AccountManagement.sol\":13674:13679  users */\n      0x08\n        /* \"src/contracts/AccountManagement.sol\":13674:13689  users[_address] */\n      0x00\n        /* \"src/contracts/AccountManagement.sol\":13680:13688  _address */\n      dup5\n        /* \"src/contracts/AccountManagement.sol\":13674:13689  users[_address] */\n      0xffffffffffffffffffffffffffffffffffffffff\n      and\n      0xffffffffffffffffffffffffffffffffffffffff\n      and\n      dup2\n      mstore\n      0x20\n      add\n      swap1\n      dup2\n      mstore\n      0x20\n      add\n      0x00\n      keccak256\n        /* \"src/contracts/AccountManagement.sol\":13658:13689  User memory u = users[_address] */\n      mload(0x40)\n      dup1\n      0xc0\n      add\n      0x40\n      mstore\n      swap1\n      dup2\n      0x00\n      dup3\n      add\n      0x00\n      swap1\n      sload\n      swap1\n      0x0100\n      exp\n      swap1\n      div\n      0xffffffffffffffffffffffffffffffffffffffff\n      and\n      0xffffffffffffffffffffffffffffffffffffffff\n      and\n      0xffffffffffffffffffffffffffffffffffffffff\n      and\n      dup2\n      mstore\n      0x20\n      add\n      0x01\n      dup3\n      add\n      dup1\n      sload\n      tag_104\n      swap1\n      tag_105\n      jump\t// in\n    tag_104:\n      dup1\n      0x1f\n      add\n      0x20\n      dup1\n      swap2\n      div\n      mul\n      0x20\n      add\n      mload(0x40)\n      swap1\n      dup2\n      add\n      0x40\n      mstore\n      dup1\n      swap3\n      swap2\n      swap1\n      dup2\n      dup2\n      mstore\n      0x20\n      add\n      dup3\n      dup1\n      sload\n      tag_106\n      swap1\n      tag_105\n      jump\t// in\n    tag_106:\n      dup1\n      iszero\n      tag_107\n      jumpi\n      dup1\n      0x1f\n      lt\n      tag_108\n      jumpi\n      0x0100\n      dup1\n      dup4\n      sload\n      div\n      mul\n      dup4\n      mstore\n      swap2\n      0x20\n      add\n      swap2\n      jump(tag_107)\n    tag_108:\n      dup3\n      add\n      swap2\n      swap1\n      0x00\n      mstore\n      keccak256(0x00, 0x20)\n      swap1\n    tag_109:\n      dup2\n      sload\n      dup2\n      mstore\n      swap1\n      0x01\n      add\n      swap1\n      0x20\n      add\n      dup1\n      dup4\n      gt\n      tag_109\n      jumpi\n      dup3\n      swap1\n      sub\n      0x1f\n      and\n      dup3\n      add\n      swap2\n    tag_107:\n      pop\n      pop\n      pop\n      pop\n      pop\n      dup2\n      mstore\n      0x20\n      add\n      0x02\n      dup3\n      add\n      dup1\n      sload\n      tag_110\n      swap1\n      tag_105\n      jump\t// in\n    tag_110:\n      dup1\n      0x1f\n      add\n      0x20\n      dup1\n      swap2\n      div\n      mul\n      0x20\n      add\n      mload(0x40)\n      swap1\n      dup2\n      add\n      0x40\n      mstore\n      dup1\n      swap3\n      swap2\n      swap1\n      dup2\n      dup2\n      mstore\n      0x20\n      add\n      dup3\n      dup1\n      sload\n      tag_111\n      swap1\n      tag_105\n      jump\t// in\n    tag_111:\n      dup1\n      iszero\n      tag_112\n      jumpi\n      dup1\n      0x1f\n      lt\n      tag_113\n      jumpi\n      0x0100\n      dup1\n      dup4\n      sload\n      div\n      mul\n      dup4\n      mstore\n      swap2\n      0x20\n      add\n      swap2\n      jump(tag_112)\n    tag_113:\n      dup3\n      add\n      swap2\n      swap1\n      0x00\n      mstore\n      keccak256(0x00, 0x20)\n      swap1\n    tag_114:\n      dup2\n      sload\n      dup2\n      mstore\n      swap1\n      0x01\n      add\n      swap1\n      0x20\n      add\n      dup1\n      dup4\n      gt\n      tag_114\n      jumpi\n      dup3\n      swap1\n      sub\n      0x1f\n      and\n      dup3\n      add\n      swap2\n    tag_112:\n      pop\n      pop\n      pop\n      pop\n      pop\n      dup2\n      mstore\n      0x20\n      add\n      0x03\n      dup3\n      add\n      dup1\n      sload\n      tag_115\n      swap1\n      tag_105\n      jump\t// in\n    tag_115:\n      dup1\n      0x1f\n      add\n      0x20\n      dup1\n      swap2\n      div\n      mul\n      0x20\n      add\n      mload(0x40)\n      swap1\n      dup2\n      add\n      0x40\n      mstore\n      dup1\n      swap3\n      swap2\n      swap1\n      dup2\n      dup2\n      mstore\n      0x20\n      add\n      dup3\n      dup1\n      sload\n      tag_116\n      swap1\n      tag_105\n      jump\t// in\n    tag_116:\n      dup1\n      iszero\n      tag_117\n      jumpi\n      dup1\n      0x1f\n      lt\n      tag_118\n      jumpi\n      0x0100\n      dup1\n      dup4\n      sload\n      div\n      mul\n      dup4\n      mstore\n      swap2\n      0x20\n      add\n      swap2\n      jump(tag_117)\n    tag_118:\n      dup3\n      add\n      swap2\n      swap1\n      0x00\n      mstore\n      keccak256(0x00, 0x20)\n      swap1\n    tag_119:\n      dup2\n      sload\n      dup2\n      mstore\n      swap1\n      0x01\n      add\n      swap1\n      0x20\n      add\n      dup1\n      dup4\n      gt\n      tag_119\n      jumpi\n      dup3\n      swap1\n      sub\n      0x1f\n      and\n      dup3\n      add\n      swap2\n    tag_117:\n      pop\n      pop\n      pop\n      pop\n      pop\n      dup2\n      mstore\n      0x20\n      add\n      0x04\n      dup3\n      add\n      0x00\n      swap1\n      sload\n      swap1\n      0x0100\n      exp\n      swap1\n      div\n      0xff\n      and\n      iszero\n      iszero\n      iszero\n      iszero\n      dup2\n      mstore\n      0x20\n      add\n      0x05\n      dup3\n      add\n      mload(0x40)\n      dup1\n      0x80\n      add\n      0x40\n      mstore\n      swap1\n      dup2\n      0x00\n      dup3\n      add\n      0x00\n      swap1\n      sload\n      swap1\n      0x0100\n      exp\n      swap1\n      div\n      0xff\n      and\n      iszero\n      iszero\n      iszero\n      iszero\n      dup2\n      mstore\n      0x20\n      add\n      0x00\n      dup3\n      add\n      0x01\n      swap1\n      sload\n      swap1\n      0x0100\n      exp\n      swap1\n      div\n      0xff\n      and\n      iszero\n      iszero\n      iszero\n      iszero\n      dup2\n      mstore\n      0x20\n      add\n      0x00\n      dup3\n      add\n      0x02\n      swap1\n      sload\n      swap1\n      0x0100\n      exp\n      swap1\n      div\n      0xff\n      and\n      iszero\n      iszero\n      iszero\n      iszero\n      dup2\n      mstore\n      0x20\n      add\n      0x00\n      dup3\n      add\n      0x03\n      swap1\n      sload\n      swap1\n      0x0100\n      exp\n      swap1\n      div\n      0xff\n      and\n      iszero\n      iszero\n      iszero\n      iszero\n      dup2\n      mstore\n      pop\n      pop\n      dup2\n      mstore\n      pop\n      pop\n      swap1\n      pop\n        /* \"src/contracts/AccountManagement.sol\":13732:13733  0 */\n      0x00\n        /* \"src/contracts/AccountManagement.sol\":13707:13734  u.userAddress != address(0) */\n      0xffffffffffffffffffffffffffffffffffffffff\n      and\n        /* \"src/contracts/AccountManagement.sol\":13707:13708  u */\n      dup2\n        /* \"src/contracts/AccountManagement.sol\":13707:13720  u.userAddress */\n      0x00\n      add\n      mload\n        /* \"src/contracts/AccountManagement.sol\":13707:13734  u.userAddress != address(0) */\n      0xffffffffffffffffffffffffffffffffffffffff\n      and\n      eq\n      iszero\n        /* \"src/contracts/AccountManagement.sol\":13700:13734  return u.userAddress != address(0) */\n      swap2\n      pop\n      pop\n        /* \"src/contracts/AccountManagement.sol\":13582:13742  function userExists(address _address) external view returns(bool){... */\n      swap2\n      swap1\n      pop\n      jump\t// out\n        /* \"src/contracts/AccountManagement.sol\":6112:6589  function deactivateAccount(address _address) public onlyIfUserExists(_address){... */\n    tag_37:\n        /* \"src/contracts/AccountManagement.sol\":6181:6189  _address */\n      dup1\n        /* \"src/contracts/AccountManagement.sol\":4775:4776  0 */\n      0x00\n        /* \"src/contracts/AccountManagement.sol\":4736:4777  users[_address].userAddress != address(0) */\n      0xffffffffffffffffffffffffffffffffffffffff\n      and\n        /* \"src/contracts/AccountManagement.sol\":4736:4741  users */\n      0x08\n        /* \"src/contracts/AccountManagement.sol\":4736:4751  users[_address] */\n      0x00\n        /* \"src/contracts/AccountManagement.sol\":4742:4750  _address */\n      dup4\n        /* \"src/contracts/AccountManagement.sol\":4736:4751  users[_address] */\n      0xffffffffffffffffffffffffffffffffffffffff\n      and\n      0xffffffffffffffffffffffffffffffffffffffff\n      and\n      dup2\n      mstore\n      0x20\n      add\n      swap1\n      dup2\n      mstore\n      0x20\n      add\n      0x00\n      keccak256\n        /* \"src/contracts/AccountManagement.sol\":4736:4763  users[_address].userAddress */\n      0x00\n      add\n      0x00\n      swap1\n      sload\n      swap1\n      0x0100\n      exp\n      swap1\n      div\n      0xffffffffffffffffffffffffffffffffffffffff\n      and\n        /* \"src/contracts/AccountManagement.sol\":4736:4777  users[_address].userAddress != address(0) */\n      0xffffffffffffffffffffffffffffffffffffffff\n      and\n      eq\n      iszero\n        /* \"src/contracts/AccountManagement.sol\":4728:4803  require(users[_address].userAddress != address(0), \"Account doesn't exist\") */\n      tag_121\n      jumpi\n      mload(0x40)\n      0x08c379a000000000000000000000000000000000000000000000000000000000\n      dup2\n      mstore\n      0x04\n      add\n      tag_122\n      swap1\n      tag_123\n      jump\t// in\n    tag_122:\n      mload(0x40)\n      dup1\n      swap2\n      sub\n      swap1\n      revert\n    tag_121:\n        /* \"src/contracts/AccountManagement.sol\":6315:6328  activeMembers */\n      0x09\n        /* \"src/contracts/AccountManagement.sol\":6315:6338  activeMembers[_address] */\n      0x00\n        /* \"src/contracts/AccountManagement.sol\":6329:6337  _address */\n      dup4\n        /* \"src/contracts/AccountManagement.sol\":6315:6338  activeMembers[_address] */\n      0xffffffffffffffffffffffffffffffffffffffff\n      and\n      0xffffffffffffffffffffffffffffffffffffffff\n      and\n      dup2\n      mstore\n      0x20\n      add\n      swap1\n      dup2\n      mstore\n      0x20\n      add\n      0x00\n      keccak256\n      0x00\n      swap1\n      sload\n      swap1\n      0x0100\n      exp\n      swap1\n      div\n      0xff\n      and\n        /* \"src/contracts/AccountManagement.sol\":6312:6569  if(activeMembers[_address]){... */\n      iszero\n      tag_125\n      jumpi\n        /* \"src/contracts/AccountManagement.sol\":6354:6371  User storage user */\n      0x00\n        /* \"src/contracts/AccountManagement.sol\":6374:6379  users */\n      0x08\n        /* \"src/contracts/AccountManagement.sol\":6374:6389  users[_address] */\n      0x00\n        /* \"src/contracts/AccountManagement.sol\":6380:6388  _address */\n      dup5\n        /* \"src/contracts/AccountManagement.sol\":6374:6389  users[_address] */\n      0xffffffffffffffffffffffffffffffffffffffff\n      and\n      0xffffffffffffffffffffffffffffffffffffffff\n      and\n      dup2\n      mstore\n      0x20\n      add\n      swap1\n      dup2\n      mstore\n      0x20\n      add\n      0x00\n      keccak256\n        /* \"src/contracts/AccountManagement.sol\":6354:6389  User storage user = users[_address] */\n      swap1\n      pop\n        /* \"src/contracts/AccountManagement.sol\":6420:6425  false */\n      0x00\n        /* \"src/contracts/AccountManagement.sol\":6404:6408  user */\n      dup2\n        /* \"src/contracts/AccountManagement.sol\":6404:6417  user.isActive */\n      0x04\n      add\n      0x00\n        /* \"src/contracts/AccountManagement.sol\":6404:6425  user.isActive = false */\n      0x0100\n      exp\n      dup2\n      sload\n      dup2\n      0xff\n      mul\n      not\n      and\n      swap1\n      dup4\n      iszero\n      iszero\n      mul\n      or\n      swap1\n      sstore\n      pop\n        /* \"src/contracts/AccountManagement.sol\":6518:6523  false */\n      0x00\n        /* \"src/contracts/AccountManagement.sol\":6492:6505  activeMembers */\n      0x09\n        /* \"src/contracts/AccountManagement.sol\":6492:6515  activeMembers[_address] */\n      0x00\n        /* \"src/contracts/AccountManagement.sol\":6506:6514  _address */\n      dup6\n        /* \"src/contracts/AccountManagement.sol\":6492:6515  activeMembers[_address] */\n      0xffffffffffffffffffffffffffffffffffffffff\n      and\n      0xffffffffffffffffffffffffffffffffffffffff\n      and\n      dup2\n      mstore\n      0x20\n      add\n      swap1\n      dup2\n      mstore\n      0x20\n      add\n      0x00\n      keccak256\n      0x00\n        /* \"src/contracts/AccountManagement.sol\":6492:6523  activeMembers[_address] = false */\n      0x0100\n      exp\n      dup2\n      sload\n      dup2\n      0xff\n      mul\n      not\n      and\n      swap1\n      dup4\n      iszero\n      iszero\n      mul\n      or\n      swap1\n      sstore\n      pop\n        /* \"src/contracts/AccountManagement.sol\":6538:6555  activeMemberCount */\n      0x00\n      dup1\n        /* \"src/contracts/AccountManagement.sol\":6538:6557  activeMemberCount-- */\n      dup2\n      sload\n      dup1\n      swap3\n      swap2\n      swap1\n      tag_126\n      swap1\n      tag_127\n      jump\t// in\n    tag_126:\n      swap2\n      swap1\n      pop\n      sstore\n      pop\n        /* \"src/contracts/AccountManagement.sol\":6339:6569  {... */\n      pop\n        /* \"src/contracts/AccountManagement.sol\":6312:6569  if(activeMembers[_address]){... */\n    tag_125:\n        /* \"src/contracts/AccountManagement.sol\":6112:6589  function deactivateAccount(address _address) public onlyIfUserExists(_address){... */\n      pop\n      pop\n      jump\t// out\n        /* \"src/contracts/AccountManagement.sol\":9943:10185  function createLeaderBoard(address[] memory _members) public view returns(LeaderBoard memory){... */\n    tag_41:\n        /* \"src/contracts/AccountManagement.sol\":10017:10035  LeaderBoard memory */\n      tag_128\n      tag_129\n      jump\t// in\n    tag_128:\n        /* \"src/contracts/AccountManagement.sol\":10047:10064  uint electionTime */\n      0x00\n        /* \"src/contracts/AccountManagement.sol\":10067:10082  block.timestamp */\n      timestamp\n        /* \"src/contracts/AccountManagement.sol\":10047:10082  uint electionTime = block.timestamp */\n      swap1\n      pop\n        /* \"src/contracts/AccountManagement.sol\":10093:10113  LeaderBoard memory l */\n      0x00\n        /* \"src/contracts/AccountManagement.sol\":10116:10158  LeaderBoard(_members, electionTime, false) */\n      mload(0x40)\n      dup1\n      0x60\n      add\n      0x40\n      mstore\n      dup1\n        /* \"src/contracts/AccountManagement.sol\":10128:10136  _members */\n      dup6\n        /* \"src/contracts/AccountManagement.sol\":10116:10158  LeaderBoard(_members, electionTime, false) */\n      dup2\n      mstore\n      0x20\n      add\n        /* \"src/contracts/AccountManagement.sol\":10138:10150  electionTime */\n      dup4\n        /* \"src/contracts/AccountManagement.sol\":10116:10158  LeaderBoard(_members, electionTime, false) */\n      dup2\n      mstore\n      0x20\n      add\n        /* \"src/contracts/AccountManagement.sol\":10152:10157  false */\n      0x00\n        /* \"src/contracts/AccountManagement.sol\":10116:10158  LeaderBoard(_members, electionTime, false) */\n      iszero\n      iszero\n      dup2\n      mstore\n      pop\n        /* \"src/contracts/AccountManagement.sol\":10093:10158  LeaderBoard memory l = LeaderBoard(_members, electionTime, false) */\n      swap1\n      pop\n        /* \"src/contracts/AccountManagement.sol\":10176:10177  l */\n      dup1\n        /* \"src/contracts/AccountManagement.sol\":10169:10177  return l */\n      swap3\n      pop\n      pop\n      pop\n        /* \"src/contracts/AccountManagement.sol\":9943:10185  function createLeaderBoard(address[] memory _members) public view returns(LeaderBoard memory){... */\n      swap2\n      swap1\n      pop\n      jump\t// out\n        /* \"src/contracts/AccountManagement.sol\":13470:13574  function getActiveMemberCount() external view returns (uint) {... */\n    tag_45:\n        /* \"src/contracts/AccountManagement.sol\":13525:13529  uint */\n      0x00\n        /* \"src/contracts/AccountManagement.sol\":13549:13566  activeMemberCount */\n      dup1\n      sload\n        /* \"src/contracts/AccountManagement.sol\":13542:13566  return activeMemberCount */\n      swap1\n      pop\n        /* \"src/contracts/AccountManagement.sol\":13470:13574  function getActiveMemberCount() external view returns (uint) {... */\n      swap1\n      jump\t// out\n        /* \"src/contracts/AccountManagement.sol\":12665:12791  function hasLeaderRole(address _address) external view returns (bool) {... */\n    tag_50:\n        /* \"src/contracts/AccountManagement.sol\":12729:12733  bool */\n      0x00\n        /* \"src/contracts/AccountManagement.sol\":12753:12783  hasRole(_address, Role.LEADER) */\n      tag_133\n        /* \"src/contracts/AccountManagement.sol\":12761:12769  _address */\n      dup3\n        /* \"src/contracts/AccountManagement.sol\":12771:12782  Role.LEADER */\n      0x00\n        /* \"src/contracts/AccountManagement.sol\":12753:12760  hasRole */\n      tag_102\n        /* \"src/contracts/AccountManagement.sol\":12753:12783  hasRole(_address, Role.LEADER) */\n      jump\t// in\n    tag_133:\n        /* \"src/contracts/AccountManagement.sol\":12746:12783  return hasRole(_address, Role.LEADER) */\n      swap1\n      pop\n        /* \"src/contracts/AccountManagement.sol\":12665:12791  function hasLeaderRole(address _address) external view returns (bool) {... */\n      swap2\n      swap1\n      pop\n      jump\t// out\n        /* \"src/contracts/AccountManagement.sol\":10193:10578  function appointLeaderBoard(address _sender, LeaderBoard memory _leaderBoard) public {... */\n    tag_55:\n        /* \"src/contracts/AccountManagement.sol\":10289:10313  address[] memory members */\n      0x00\n        /* \"src/contracts/AccountManagement.sol\":10316:10328  _leaderBoard */\n      dup2\n        /* \"src/contracts/AccountManagement.sol\":10316:10336  _leaderBoard.members */\n      0x00\n      add\n      mload\n        /* \"src/contracts/AccountManagement.sol\":10289:10336  address[] memory members = _leaderBoard.members */\n      swap1\n      pop\n        /* \"src/contracts/AccountManagement.sol\":10351:10357  uint i */\n      0x00\n        /* \"src/contracts/AccountManagement.sol\":10347:10457  for(uint i = 0; i < members.length; i++)... */\n    tag_135:\n        /* \"src/contracts/AccountManagement.sol\":10367:10374  members */\n      dup2\n        /* \"src/contracts/AccountManagement.sol\":10367:10381  members.length */\n      mload\n        /* \"src/contracts/AccountManagement.sol\":10363:10364  i */\n      dup2\n        /* \"src/contracts/AccountManagement.sol\":10363:10381  i < members.length */\n      lt\n        /* \"src/contracts/AccountManagement.sol\":10347:10457  for(uint i = 0; i < members.length; i++)... */\n      iszero\n      tag_136\n      jumpi\n        /* \"src/contracts/AccountManagement.sol\":10412:10445  assignLeader(_sender, members[i]) */\n      tag_138\n        /* \"src/contracts/AccountManagement.sol\":10425:10432  _sender */\n      dup5\n        /* \"src/contracts/AccountManagement.sol\":10434:10441  members */\n      dup4\n        /* \"src/contracts/AccountManagement.sol\":10442:10443  i */\n      dup4\n        /* \"src/contracts/AccountManagement.sol\":10434:10444  members[i] */\n      dup2\n      mload\n      dup2\n      lt\n      tag_139\n      jumpi\n      tag_140\n      tag_141\n      jump\t// in\n    tag_140:\n    tag_139:\n      0x20\n      mul\n      0x20\n      add\n      add\n      mload\n        /* \"src/contracts/AccountManagement.sol\":10412:10424  assignLeader */\n      tag_142\n        /* \"src/contracts/AccountManagement.sol\":10412:10445  assignLeader(_sender, members[i]) */\n      jump\t// in\n    tag_138:\n        /* \"src/contracts/AccountManagement.sol\":10383:10386  i++ */\n      dup1\n      dup1\n      tag_143\n      swap1\n      tag_144\n      jump\t// in\n    tag_143:\n      swap2\n      pop\n      pop\n        /* \"src/contracts/AccountManagement.sol\":10347:10457  for(uint i = 0; i < members.length; i++)... */\n      jump(tag_135)\n    tag_136:\n      pop\n        /* \"src/contracts/AccountManagement.sol\":10467:10494  dismissLeaderBoard(_sender) */\n      tag_145\n        /* \"src/contracts/AccountManagement.sol\":10486:10493  _sender */\n      dup4\n        /* \"src/contracts/AccountManagement.sol\":10467:10485  dismissLeaderBoard */\n      tag_146\n        /* \"src/contracts/AccountManagement.sol\":10467:10494  dismissLeaderBoard(_sender) */\n      jump\t// in\n    tag_145:\n        /* \"src/contracts/AccountManagement.sol\":10529:10533  true */\n      0x01\n        /* \"src/contracts/AccountManagement.sol\":10505:10517  _leaderBoard */\n      dup3\n        /* \"src/contracts/AccountManagement.sol\":10505:10526  _leaderBoard.approved */\n      0x40\n      add\n        /* \"src/contracts/AccountManagement.sol\":10505:10533  _leaderBoard.approved = true */\n      swap1\n      iszero\n      iszero\n      swap1\n      dup2\n      iszero\n      iszero\n      dup2\n      mstore\n      pop\n      pop\n        /* \"src/contracts/AccountManagement.sol\":10558:10570  _leaderBoard */\n      dup2\n        /* \"src/contracts/AccountManagement.sol\":10544:10555  leaderBoard */\n      0x02\n        /* \"src/contracts/AccountManagement.sol\":10544:10570  leaderBoard = _leaderBoard */\n      0x00\n      dup3\n      add\n      mload\n      dup2\n      0x00\n      add\n      swap1\n      dup1\n      mload\n      swap1\n      0x20\n      add\n      swap1\n      tag_147\n      swap3\n      swap2\n      swap1\n      tag_148\n      jump\t// in\n    tag_147:\n      pop\n      0x20\n      dup3\n      add\n      mload\n      dup2\n      0x01\n      add\n      sstore\n      0x40\n      dup3\n      add\n      mload\n      dup2\n      0x02\n      add\n      exp(0x0100, 0x00)\n      dup2\n      sload\n      dup2\n      0xff\n      mul\n      not\n      and\n      swap1\n      dup4\n      iszero\n      iszero\n      mul\n      or\n      swap1\n      sstore\n      pop\n      swap1\n      pop\n      pop\n        /* \"src/contracts/AccountManagement.sol\":10278:10578  {... */\n      pop\n        /* \"src/contracts/AccountManagement.sol\":10193:10578  function appointLeaderBoard(address _sender, LeaderBoard memory _leaderBoard) public {... */\n      pop\n      pop\n      jump\t// out\n        /* \"src/contracts/AccountManagement.sol\":13221:13462  function getUser(address _address) external view returns(User memory){... */\n    tag_58:\n        /* \"src/contracts/AccountManagement.sol\":13278:13289  User memory */\n      tag_149\n      tag_150\n      jump\t// in\n    tag_149:\n        /* \"src/contracts/AccountManagement.sol\":13301:13314  User memory u */\n      0x00\n        /* \"src/contracts/AccountManagement.sol\":13317:13322  users */\n      0x08\n        /* \"src/contracts/AccountManagement.sol\":13317:13332  users[_address] */\n      0x00\n        /* \"src/contracts/AccountManagement.sol\":13323:13331  _address */\n      dup5\n        /* \"src/contracts/AccountManagement.sol\":13317:13332  users[_address] */\n      0xffffffffffffffffffffffffffffffffffffffff\n      and\n      0xffffffffffffffffffffffffffffffffffffffff\n      and\n      dup2\n      mstore\n      0x20\n      add\n      swap1\n      dup2\n      mstore\n      0x20\n      add\n      0x00\n      keccak256\n        /* \"src/contracts/AccountManagement.sol\":13301:13332  User memory u = users[_address] */\n      mload(0x40)\n      dup1\n      0xc0\n      add\n      0x40\n      mstore\n      swap1\n      dup2\n      0x00\n      dup3\n      add\n      0x00\n      swap1\n      sload\n      swap1\n      0x0100\n      exp\n      swap1\n      div\n      0xffffffffffffffffffffffffffffffffffffffff\n      and\n      0xffffffffffffffffffffffffffffffffffffffff\n      and\n      0xffffffffffffffffffffffffffffffffffffffff\n      and\n      dup2\n      mstore\n      0x20\n      add\n      0x01\n      dup3\n      add\n      dup1\n      sload\n      tag_152\n      swap1\n      tag_105\n      jump\t// in\n    tag_152:\n      dup1\n      0x1f\n      add\n      0x20\n      dup1\n      swap2\n      div\n      mul\n      0x20\n      add\n      mload(0x40)\n      swap1\n      dup2\n      add\n      0x40\n      mstore\n      dup1\n      swap3\n      swap2\n      swap1\n      dup2\n      dup2\n      mstore\n      0x20\n      add\n      dup3\n      dup1\n      sload\n      tag_153\n      swap1\n      tag_105\n      jump\t// in\n    tag_153:\n      dup1\n      iszero\n      tag_154\n      jumpi\n      dup1\n      0x1f\n      lt\n      tag_155\n      jumpi\n      0x0100\n      dup1\n      dup4\n      sload\n      div\n      mul\n      dup4\n      mstore\n      swap2\n      0x20\n      add\n      swap2\n      jump(tag_154)\n    tag_155:\n      dup3\n      add\n      swap2\n      swap1\n      0x00\n      mstore\n      keccak256(0x00, 0x20)\n      swap1\n    tag_156:\n      dup2\n      sload\n      dup2\n      mstore\n      swap1\n      0x01\n      add\n      swap1\n      0x20\n      add\n      dup1\n      dup4\n      gt\n      tag_156\n      jumpi\n      dup3\n      swap1\n      sub\n      0x1f\n      and\n      dup3\n      add\n      swap2\n    tag_154:\n      pop\n      pop\n      pop\n      pop\n      pop\n      dup2\n      mstore\n      0x20\n      add\n      0x02\n      dup3\n      add\n      dup1\n      sload\n      tag_157\n      swap1\n      tag_105\n      jump\t// in\n    tag_157:\n      dup1\n      0x1f\n      add\n      0x20\n      dup1\n      swap2\n      div\n      mul\n      0x20\n      add\n      mload(0x40)\n      swap1\n      dup2\n      add\n      0x40\n      mstore\n      dup1\n      swap3\n      swap2\n      swap1\n      dup2\n      dup2\n      mstore\n      0x20\n      add\n      dup3\n      dup1\n      sload\n      tag_158\n      swap1\n      tag_105\n      jump\t// in\n    tag_158:\n      dup1\n      iszero\n      tag_159\n      jumpi\n      dup1\n      0x1f\n      lt\n      tag_160\n      jumpi\n      0x0100\n      dup1\n      dup4\n      sload\n      div\n      mul\n      dup4\n      mstore\n      swap2\n      0x20\n      add\n      swap2\n      jump(tag_159)\n    tag_160:\n      dup3\n      add\n      swap2\n      swap1\n      0x00\n      mstore\n      keccak256(0x00, 0x20)\n      swap1\n    tag_161:\n      dup2\n      sload\n      dup2\n      mstore\n      swap1\n      0x01\n      add\n      swap1\n      0x20\n      add\n      dup1\n      dup4\n      gt\n      tag_161\n      jumpi\n      dup3\n      swap1\n      sub\n      0x1f\n      and\n      dup3\n      add\n      swap2\n    tag_159:\n      pop\n      pop\n      pop\n      pop\n      pop\n      dup2\n      mstore\n      0x20\n      add\n      0x03\n      dup3\n      add\n      dup1\n      sload\n      tag_162\n      swap1\n      tag_105\n      jump\t// in\n    tag_162:\n      dup1\n      0x1f\n      add\n      0x20\n      dup1\n      swap2\n      div\n      mul\n      0x20\n      add\n      mload(0x40)\n      swap1\n      dup2\n      add\n      0x40\n      mstore\n      dup1\n      swap3\n      swap2\n      swap1\n      dup2\n      dup2\n      mstore\n      0x20\n      add\n      dup3\n      dup1\n      sload\n      tag_163\n      swap1\n      tag_105\n      jump\t// in\n    tag_163:\n      dup1\n      iszero\n      tag_164\n      jumpi\n      dup1\n      0x1f\n      lt\n      tag_165\n      jumpi\n      0x0100\n      dup1\n      dup4\n      sload\n      div\n      mul\n      dup4\n      mstore\n      swap2\n      0x20\n      add\n      swap2\n      jump(tag_164)\n    tag_165:\n      dup3\n      add\n      swap2\n      swap1\n      0x00\n      mstore\n      keccak256(0x00, 0x20)\n      swap1\n    tag_166:\n      dup2\n      sload\n      dup2\n      mstore\n      swap1\n      0x01\n      add\n      swap1\n      0x20\n      add\n      dup1\n      dup4\n      gt\n      tag_166\n      jumpi\n      dup3\n      swap1\n      sub\n      0x1f\n      and\n      dup3\n      add\n      swap2\n    tag_164:\n      pop\n      pop\n      pop\n      pop\n      pop\n      dup2\n      mstore\n      0x20\n      add\n      0x04\n      dup3\n      add\n      0x00\n      swap1\n      sload\n      swap1\n      0x0100\n      exp\n      swap1\n      div\n      0xff\n      and\n      iszero\n      iszero\n      iszero\n      iszero\n      dup2\n      mstore\n      0x20\n      add\n      0x05\n      dup3\n      add\n      mload(0x40)\n      dup1\n      0x80\n      add\n      0x40\n      mstore\n      swap1\n      dup2\n      0x00\n      dup3\n      add\n      0x00\n      swap1\n      sload\n      swap1\n      0x0100\n      exp\n      swap1\n      div\n      0xff\n      and\n      iszero\n      iszero\n      iszero\n      iszero\n      dup2\n      mstore\n      0x20\n      add\n      0x00\n      dup3\n      add\n      0x01\n      swap1\n      sload\n      swap1\n      0x0100\n      exp\n      swap1\n      div\n      0xff\n      and\n      iszero\n      iszero\n      iszero\n      iszero\n      dup2\n      mstore\n      0x20\n      add\n      0x00\n      dup3\n      add\n      0x02\n      swap1\n      sload\n      swap1\n      0x0100\n      exp\n      swap1\n      div\n      0xff\n      and\n      iszero\n      iszero\n      iszero\n      iszero\n      dup2\n      mstore\n      0x20\n      add\n      0x00\n      dup3\n      add\n      0x03\n      swap1\n      sload\n      swap1\n      0x0100\n      exp\n      swap1\n      div\n      0xff\n      and\n      iszero\n      iszero\n      iszero\n      iszero\n      dup2\n      mstore\n      pop\n      pop\n      dup2\n      mstore\n      pop\n      pop\n      swap1\n      pop\n        /* \"src/contracts/AccountManagement.sol\":13371:13372  0 */\n      0x00\n        /* \"src/contracts/AccountManagement.sol\":13346:13373  u.userAddress != address(0) */\n      0xffffffffffffffffffffffffffffffffffffffff\n      and\n        /* \"src/contracts/AccountManagement.sol\":13346:13347  u */\n      dup2\n        /* \"src/contracts/AccountManagement.sol\":13346:13359  u.userAddress */\n      0x00\n      add\n      mload\n        /* \"src/contracts/AccountManagement.sol\":13346:13373  u.userAddress != address(0) */\n      0xffffffffffffffffffffffffffffffffffffffff\n      and\n      eq\n        /* \"src/contracts/AccountManagement.sol\":13343:13419  if(u.userAddress != address(0))... */\n      tag_167\n      jumpi\n        /* \"src/contracts/AccountManagement.sol\":13406:13407  u */\n      dup1\n        /* \"src/contracts/AccountManagement.sol\":13399:13407  return u */\n      swap2\n      pop\n      pop\n      jump(tag_151)\n        /* \"src/contracts/AccountManagement.sol\":13343:13419  if(u.userAddress != address(0))... */\n    tag_167:\n        /* \"src/contracts/AccountManagement.sol\":13429:13454  revert(\"User not found!\") */\n      mload(0x40)\n      0x08c379a000000000000000000000000000000000000000000000000000000000\n      dup2\n      mstore\n      0x04\n      add\n      tag_168\n      swap1\n      tag_169\n      jump\t// in\n    tag_168:\n      mload(0x40)\n      dup1\n      swap2\n      sub\n      swap1\n      revert\n        /* \"src/contracts/AccountManagement.sol\":13221:13462  function getUser(address _address) external view returns(User memory){... */\n    tag_151:\n      swap2\n      swap1\n      pop\n      jump\t// out\n        /* \"src/contracts/AccountManagement.sol\":5506:6104  function activateAccount(address _address) public onlyIfUserExists(_address){... */\n    tag_63:\n        /* \"src/contracts/AccountManagement.sol\":5573:5581  _address */\n      dup1\n        /* \"src/contracts/AccountManagement.sol\":4775:4776  0 */\n      0x00\n        /* \"src/contracts/AccountManagement.sol\":4736:4777  users[_address].userAddress != address(0) */\n      0xffffffffffffffffffffffffffffffffffffffff\n      and\n        /* \"src/contracts/AccountManagement.sol\":4736:4741  users */\n      0x08\n        /* \"src/contracts/AccountManagement.sol\":4736:4751  users[_address] */\n      0x00\n        /* \"src/contracts/AccountManagement.sol\":4742:4750  _address */\n      dup4\n        /* \"src/contracts/AccountManagement.sol\":4736:4751  users[_address] */\n      0xffffffffffffffffffffffffffffffffffffffff\n      and\n      0xffffffffffffffffffffffffffffffffffffffff\n      and\n      dup2\n      mstore\n      0x20\n      add\n      swap1\n      dup2\n      mstore\n      0x20\n      add\n      0x00\n      keccak256\n        /* \"src/contracts/AccountManagement.sol\":4736:4763  users[_address].userAddress */\n      0x00\n      add\n      0x00\n      swap1\n      sload\n      swap1\n      0x0100\n      exp\n      swap1\n      div\n      0xffffffffffffffffffffffffffffffffffffffff\n      and\n        /* \"src/contracts/AccountManagement.sol\":4736:4777  users[_address].userAddress != address(0) */\n      0xffffffffffffffffffffffffffffffffffffffff\n      and\n      eq\n      iszero\n        /* \"src/contracts/AccountManagement.sol\":4728:4803  require(users[_address].userAddress != address(0), \"Account doesn't exist\") */\n      tag_171\n      jumpi\n      mload(0x40)\n      0x08c379a000000000000000000000000000000000000000000000000000000000\n      dup2\n      mstore\n      0x04\n      add\n      tag_172\n      swap1\n      tag_123\n      jump\t// in\n    tag_172:\n      mload(0x40)\n      dup1\n      swap2\n      sub\n      swap1\n      revert\n    tag_171:\n        /* \"src/contracts/AccountManagement.sol\":5679:5692  activeMembers */\n      0x09\n        /* \"src/contracts/AccountManagement.sol\":5679:5702  activeMembers[_address] */\n      0x00\n        /* \"src/contracts/AccountManagement.sol\":5693:5701  _address */\n      dup4\n        /* \"src/contracts/AccountManagement.sol\":5679:5702  activeMembers[_address] */\n      0xffffffffffffffffffffffffffffffffffffffff\n      and\n      0xffffffffffffffffffffffffffffffffffffffff\n      and\n      dup2\n      mstore\n      0x20\n      add\n      swap1\n      dup2\n      mstore\n      0x20\n      add\n      0x00\n      keccak256\n      0x00\n      swap1\n      sload\n      swap1\n      0x0100\n      exp\n      swap1\n      div\n      0xff\n      and\n        /* \"src/contracts/AccountManagement.sol\":5675:6097  if(!activeMembers[_address]){... */\n      tag_174\n      jumpi\n        /* \"src/contracts/AccountManagement.sol\":5718:5735  User storage user */\n      0x00\n        /* \"src/contracts/AccountManagement.sol\":5738:5743  users */\n      0x08\n        /* \"src/contracts/AccountManagement.sol\":5738:5753  users[_address] */\n      0x00\n        /* \"src/contracts/AccountManagement.sol\":5744:5752  _address */\n      dup5\n        /* \"src/contracts/AccountManagement.sol\":5738:5753  users[_address] */\n      0xffffffffffffffffffffffffffffffffffffffff\n      and\n      0xffffffffffffffffffffffffffffffffffffffff\n      and\n      dup2\n      mstore\n      0x20\n      add\n      swap1\n      dup2\n      mstore\n      0x20\n      add\n      0x00\n      keccak256\n        /* \"src/contracts/AccountManagement.sol\":5718:5753  User storage user = users[_address] */\n      swap1\n      pop\n        /* \"src/contracts/AccountManagement.sol\":5784:5788  true */\n      0x01\n        /* \"src/contracts/AccountManagement.sol\":5768:5772  user */\n      dup2\n        /* \"src/contracts/AccountManagement.sol\":5768:5781  user.isActive */\n      0x04\n      add\n      0x00\n        /* \"src/contracts/AccountManagement.sol\":5768:5788  user.isActive = true */\n      0x0100\n      exp\n      dup2\n      sload\n      dup2\n      0xff\n      mul\n      not\n      and\n      swap1\n      dup4\n      iszero\n      iszero\n      mul\n      or\n      swap1\n      sstore\n      pop\n        /* \"src/contracts/AccountManagement.sol\":5850:5872  RoleMap memory roleMap */\n      0x00\n        /* \"src/contracts/AccountManagement.sol\":5875:5879  user */\n      dup2\n        /* \"src/contracts/AccountManagement.sol\":5875:5887  user.roleMap */\n      0x05\n      add\n        /* \"src/contracts/AccountManagement.sol\":5850:5887  RoleMap memory roleMap = user.roleMap */\n      mload(0x40)\n      dup1\n      0x80\n      add\n      0x40\n      mstore\n      swap1\n      dup2\n      0x00\n      dup3\n      add\n      0x00\n      swap1\n      sload\n      swap1\n      0x0100\n      exp\n      swap1\n      div\n      0xff\n      and\n      iszero\n      iszero\n      iszero\n      iszero\n      dup2\n      mstore\n      0x20\n      add\n      0x00\n      dup3\n      add\n      0x01\n      swap1\n      sload\n      swap1\n      0x0100\n      exp\n      swap1\n      div\n      0xff\n      and\n      iszero\n      iszero\n      iszero\n      iszero\n      dup2\n      mstore\n      0x20\n      add\n      0x00\n      dup3\n      add\n      0x02\n      swap1\n      sload\n      swap1\n      0x0100\n      exp\n      swap1\n      div\n      0xff\n      and\n      iszero\n      iszero\n      iszero\n      iszero\n      dup2\n      mstore\n      0x20\n      add\n      0x00\n      dup3\n      add\n      0x03\n      swap1\n      sload\n      swap1\n      0x0100\n      exp\n      swap1\n      div\n      0xff\n      and\n      iszero\n      iszero\n      iszero\n      iszero\n      dup2\n      mstore\n      pop\n      pop\n      swap1\n      pop\n        /* \"src/contracts/AccountManagement.sol\":5905:5912  roleMap */\n      dup1\n        /* \"src/contracts/AccountManagement.sol\":5905:5921  roleMap.isLeader */\n      0x00\n      add\n      mload\n        /* \"src/contracts/AccountManagement.sol\":5905:5948  roleMap.isLeader || roleMap.isCouncilMember */\n      dup1\n      tag_175\n      jumpi\n      pop\n        /* \"src/contracts/AccountManagement.sol\":5925:5932  roleMap */\n      dup1\n        /* \"src/contracts/AccountManagement.sol\":5925:5948  roleMap.isCouncilMember */\n      0x20\n      add\n      mload\n        /* \"src/contracts/AccountManagement.sol\":5905:5948  roleMap.isLeader || roleMap.isCouncilMember */\n    tag_175:\n        /* \"src/contracts/AccountManagement.sol\":5905:5968  roleMap.isLeader || roleMap.isCouncilMember || roleMap.isMember */\n      dup1\n      tag_176\n      jumpi\n      pop\n        /* \"src/contracts/AccountManagement.sol\":5952:5959  roleMap */\n      dup1\n        /* \"src/contracts/AccountManagement.sol\":5952:5968  roleMap.isMember */\n      0x40\n      add\n      mload\n        /* \"src/contracts/AccountManagement.sol\":5905:5968  roleMap.isLeader || roleMap.isCouncilMember || roleMap.isMember */\n    tag_176:\n        /* \"src/contracts/AccountManagement.sol\":5902:6086  if(roleMap.isLeader || roleMap.isCouncilMember || roleMap.isMember)... */\n      iszero\n      tag_177\n      jumpi\n        /* \"src/contracts/AccountManagement.sol\":6028:6032  true */\n      0x01\n        /* \"src/contracts/AccountManagement.sol\":6002:6015  activeMembers */\n      0x09\n        /* \"src/contracts/AccountManagement.sol\":6002:6025  activeMembers[_address] */\n      0x00\n        /* \"src/contracts/AccountManagement.sol\":6016:6024  _address */\n      dup7\n        /* \"src/contracts/AccountManagement.sol\":6002:6025  activeMembers[_address] */\n      0xffffffffffffffffffffffffffffffffffffffff\n      and\n      0xffffffffffffffffffffffffffffffffffffffff\n      and\n      dup2\n      mstore\n      0x20\n      add\n      swap1\n      dup2\n      mstore\n      0x20\n      add\n      0x00\n      keccak256\n      0x00\n        /* \"src/contracts/AccountManagement.sol\":6002:6032  activeMembers[_address] = true */\n      0x0100\n      exp\n      dup2\n      sload\n      dup2\n      0xff\n      mul\n      not\n      and\n      swap1\n      dup4\n      iszero\n      iszero\n      mul\n      or\n      swap1\n      sstore\n      pop\n        /* \"src/contracts/AccountManagement.sol\":6051:6068  activeMemberCount */\n      0x00\n      dup1\n        /* \"src/contracts/AccountManagement.sol\":6051:6070  activeMemberCount++ */\n      dup2\n      sload\n      dup1\n      swap3\n      swap2\n      swap1\n      tag_178\n      swap1\n      tag_144\n      jump\t// in\n    tag_178:\n      swap2\n      swap1\n      pop\n      sstore\n      pop\n        /* \"src/contracts/AccountManagement.sol\":5902:6086  if(roleMap.isLeader || roleMap.isCouncilMember || roleMap.isMember)... */\n    tag_177:\n        /* \"src/contracts/AccountManagement.sol\":5703:6097  {... */\n      pop\n      pop\n        /* \"src/contracts/AccountManagement.sol\":5675:6097  if(!activeMembers[_address]){... */\n    tag_174:\n        /* \"src/contracts/AccountManagement.sol\":5506:6104  function activateAccount(address _address) public onlyIfUserExists(_address){... */\n      pop\n      pop\n      jump\t// out\n        /* \"src/contracts/AccountManagement.sol\":11201:11561  function appointCouncil(address _sender, Council memory _council) public {... */\n    tag_67:\n        /* \"src/contracts/AccountManagement.sol\":11285:11309  address[] memory members */\n      0x00\n        /* \"src/contracts/AccountManagement.sol\":11312:11320  _council */\n      dup2\n        /* \"src/contracts/AccountManagement.sol\":11312:11328  _council.members */\n      0x00\n      add\n      mload\n        /* \"src/contracts/AccountManagement.sol\":11285:11328  address[] memory members = _council.members */\n      swap1\n      pop\n        /* \"src/contracts/AccountManagement.sol\":11343:11349  uint i */\n      0x00\n        /* \"src/contracts/AccountManagement.sol\":11339:11456  for(uint i = 0; i < members.length; i++)... */\n    tag_180:\n        /* \"src/contracts/AccountManagement.sol\":11359:11366  members */\n      dup2\n        /* \"src/contracts/AccountManagement.sol\":11359:11373  members.length */\n      mload\n        /* \"src/contracts/AccountManagement.sol\":11355:11356  i */\n      dup2\n        /* \"src/contracts/AccountManagement.sol\":11355:11373  i < members.length */\n      lt\n        /* \"src/contracts/AccountManagement.sol\":11339:11456  for(uint i = 0; i < members.length; i++)... */\n      iszero\n      tag_181\n      jumpi\n        /* \"src/contracts/AccountManagement.sol\":11404:11444  assignCouncilMember(_sender, members[i]) */\n      tag_183\n        /* \"src/contracts/AccountManagement.sol\":11424:11431  _sender */\n      dup5\n        /* \"src/contracts/AccountManagement.sol\":11433:11440  members */\n      dup4\n        /* \"src/contracts/AccountManagement.sol\":11441:11442  i */\n      dup4\n        /* \"src/contracts/AccountManagement.sol\":11433:11443  members[i] */\n      dup2\n      mload\n      dup2\n      lt\n      tag_184\n      jumpi\n      tag_185\n      tag_141\n      jump\t// in\n    tag_185:\n    tag_184:\n      0x20\n      mul\n      0x20\n      add\n      add\n      mload\n        /* \"src/contracts/AccountManagement.sol\":11404:11423  assignCouncilMember */\n      tag_186\n        /* \"src/contracts/AccountManagement.sol\":11404:11444  assignCouncilMember(_sender, members[i]) */\n      jump\t// in\n    tag_183:\n        /* \"src/contracts/AccountManagement.sol\":11375:11378  i++ */\n      dup1\n      dup1\n      tag_187\n      swap1\n      tag_144\n      jump\t// in\n    tag_187:\n      swap2\n      pop\n      pop\n        /* \"src/contracts/AccountManagement.sol\":11339:11456  for(uint i = 0; i < members.length; i++)... */\n      jump(tag_180)\n    tag_181:\n      pop\n        /* \"src/contracts/AccountManagement.sol\":11466:11489  dismissCouncil(_sender) */\n      tag_188\n        /* \"src/contracts/AccountManagement.sol\":11481:11488  _sender */\n      dup4\n        /* \"src/contracts/AccountManagement.sol\":11466:11480  dismissCouncil */\n      tag_189\n        /* \"src/contracts/AccountManagement.sol\":11466:11489  dismissCouncil(_sender) */\n      jump\t// in\n    tag_188:\n        /* \"src/contracts/AccountManagement.sol\":11520:11524  true */\n      0x01\n        /* \"src/contracts/AccountManagement.sol\":11500:11508  _council */\n      dup3\n        /* \"src/contracts/AccountManagement.sol\":11500:11517  _council.approved */\n      0x40\n      add\n        /* \"src/contracts/AccountManagement.sol\":11500:11524  _council.approved = true */\n      swap1\n      iszero\n      iszero\n      swap1\n      dup2\n      iszero\n      iszero\n      dup2\n      mstore\n      pop\n      pop\n        /* \"src/contracts/AccountManagement.sol\":11545:11553  _council */\n      dup2\n        /* \"src/contracts/AccountManagement.sol\":11535:11542  council */\n      0x05\n        /* \"src/contracts/AccountManagement.sol\":11535:11553  council = _council */\n      0x00\n      dup3\n      add\n      mload\n      dup2\n      0x00\n      add\n      swap1\n      dup1\n      mload\n      swap1\n      0x20\n      add\n      swap1\n      tag_190\n      swap3\n      swap2\n      swap1\n      tag_148\n      jump\t// in\n    tag_190:\n      pop\n      0x20\n      dup3\n      add\n      mload\n      dup2\n      0x01\n      add\n      sstore\n      0x40\n      dup3\n      add\n      mload\n      dup2\n      0x02\n      add\n      exp(0x0100, 0x00)\n      dup2\n      sload\n      dup2\n      0xff\n      mul\n      not\n      and\n      swap1\n      dup4\n      iszero\n      iszero\n      mul\n      or\n      swap1\n      sstore\n      pop\n      swap1\n      pop\n      pop\n        /* \"src/contracts/AccountManagement.sol\":11274:11561  {... */\n      pop\n        /* \"src/contracts/AccountManagement.sol\":11201:11561  function appointCouncil(address _sender, Council memory _council) public {... */\n      pop\n      pop\n      jump\t// out\n        /* \"src/contracts/AccountManagement.sol\":1121:1141  address public owner */\n    tag_69:\n      0x01\n      0x00\n      swap1\n      sload\n      swap1\n      0x0100\n      exp\n      swap1\n      div\n      0xffffffffffffffffffffffffffffffffffffffff\n      and\n      dup2\n      jump\t// out\n        /* \"src/contracts/AccountManagement.sol\":1952:4217  function _testAccountManagement() public{... */\n    tag_73:\n        /* \"src/contracts/AccountManagement.sol\":2005:2036  address[10] memory testAccounts */\n      0x00\n        /* \"src/contracts/AccountManagement.sol\":2005:2621  address[10] memory testAccounts = [ ... */\n      mload(0x40)\n      dup1\n      0x0140\n      add\n      0x40\n      mstore\n      dup1\n        /* \"src/contracts/AccountManagement.sol\":2055:2097  0x5B38Da6a701c568545dCfcB03FcB875f56beddC4 */\n      0x5b38da6a701c568545dcfcb03fcb875f56beddc4\n        /* \"src/contracts/AccountManagement.sol\":2005:2621  address[10] memory testAccounts = [ ... */\n      0xffffffffffffffffffffffffffffffffffffffff\n      and\n      0xffffffffffffffffffffffffffffffffffffffff\n      and\n      dup2\n      mstore\n      0x20\n      add\n        /* \"src/contracts/AccountManagement.sol\":2112:2154  0xAb8483F64d9C6d1EcF9b849Ae677dD3315835cb2 */\n      0xab8483f64d9c6d1ecf9b849ae677dd3315835cb2\n        /* \"src/contracts/AccountManagement.sol\":2005:2621  address[10] memory testAccounts = [ ... */\n      0xffffffffffffffffffffffffffffffffffffffff\n      and\n      0xffffffffffffffffffffffffffffffffffffffff\n      and\n      dup2\n      mstore\n      0x20\n      add\n        /* \"src/contracts/AccountManagement.sol\":2169:2211  0x4B20993Bc481177ec7E8f571ceCaE8A9e22C02db */\n      0x4b20993bc481177ec7e8f571cecae8a9e22c02db\n        /* \"src/contracts/AccountManagement.sol\":2005:2621  address[10] memory testAccounts = [ ... */\n      0xffffffffffffffffffffffffffffffffffffffff\n      and\n      0xffffffffffffffffffffffffffffffffffffffff\n      and\n      dup2\n      mstore\n      0x20\n      add\n        /* \"src/contracts/AccountManagement.sol\":2226:2268  0x78731D3Ca6b7E34aC0F824c42a7cC18A495cabaB */\n      0x78731d3ca6b7e34ac0f824c42a7cc18a495cabab\n        /* \"src/contracts/AccountManagement.sol\":2005:2621  address[10] memory testAccounts = [ ... */\n      0xffffffffffffffffffffffffffffffffffffffff\n      and\n      0xffffffffffffffffffffffffffffffffffffffff\n      and\n      dup2\n      mstore\n      0x20\n      add\n        /* \"src/contracts/AccountManagement.sol\":2283:2325  0x617F2E2fD72FD9D5503197092aC168c91465E7f2 */\n      0x617f2e2fd72fd9d5503197092ac168c91465e7f2\n        /* \"src/contracts/AccountManagement.sol\":2005:2621  address[10] memory testAccounts = [ ... */\n      0xffffffffffffffffffffffffffffffffffffffff\n      and\n      0xffffffffffffffffffffffffffffffffffffffff\n      and\n      dup2\n      mstore\n      0x20\n      add\n        /* \"src/contracts/AccountManagement.sol\":2340:2382  0x17F6AD8Ef982297579C203069C1DbfFE4348c372 */\n      0x17f6ad8ef982297579c203069c1dbffe4348c372\n        /* \"src/contracts/AccountManagement.sol\":2005:2621  address[10] memory testAccounts = [ ... */\n      0xffffffffffffffffffffffffffffffffffffffff\n      and\n      0xffffffffffffffffffffffffffffffffffffffff\n      and\n      dup2\n      mstore\n      0x20\n      add\n        /* \"src/contracts/AccountManagement.sol\":2397:2439  0x5c6B0f7Bf3E7ce046039Bd8FABdfD3f9F5021678 */\n      0x5c6b0f7bf3e7ce046039bd8fabdfd3f9f5021678\n        /* \"src/contracts/AccountManagement.sol\":2005:2621  address[10] memory testAccounts = [ ... */\n      0xffffffffffffffffffffffffffffffffffffffff\n      and\n      0xffffffffffffffffffffffffffffffffffffffff\n      and\n      dup2\n      mstore\n      0x20\n      add\n        /* \"src/contracts/AccountManagement.sol\":2454:2496  0x03C6FcED478cBbC9a4FAB34eF9f40767739D1Ff7 */\n      0x03c6fced478cbbc9a4fab34ef9f40767739d1ff7\n        /* \"src/contracts/AccountManagement.sol\":2005:2621  address[10] memory testAccounts = [ ... */\n      0xffffffffffffffffffffffffffffffffffffffff\n      and\n      0xffffffffffffffffffffffffffffffffffffffff\n      and\n      dup2\n      mstore\n      0x20\n      add\n        /* \"src/contracts/AccountManagement.sol\":2511:2553  0x1aE0EA34a72D944a8C7603FfB3eC30a6669E454C */\n      0x1ae0ea34a72d944a8c7603ffb3ec30a6669e454c\n        /* \"src/contracts/AccountManagement.sol\":2005:2621  address[10] memory testAccounts = [ ... */\n      0xffffffffffffffffffffffffffffffffffffffff\n      and\n      0xffffffffffffffffffffffffffffffffffffffff\n      and\n      dup2\n      mstore\n      0x20\n      add\n        /* \"src/contracts/AccountManagement.sol\":2568:2610  0xCA35b7d915458EF540aDe6068dFe2F44E8fa733c */\n      0xca35b7d915458ef540ade6068dfe2f44e8fa733c\n        /* \"src/contracts/AccountManagement.sol\":2005:2621  address[10] memory testAccounts = [ ... */\n      0xffffffffffffffffffffffffffffffffffffffff\n      and\n      0xffffffffffffffffffffffffffffffffffffffff\n      and\n      dup2\n      mstore\n      pop\n      swap1\n      pop\n        /* \"src/contracts/AccountManagement.sol\":2634:2662  string[10] memory firstNames */\n      0x00\n        /* \"src/contracts/AccountManagement.sol\":2634:2753  string[10] memory firstNames = [\"Rick\", \"Vanessa\", \"Alex\", \"Vici\", \"Lu\", \"John\", \"Sarah\", \"Samantha\", \"Peter\", \"David\"] */\n      mload(0x40)\n      dup1\n      0x0140\n      add\n      0x40\n      mstore\n      dup1\n      mload(0x40)\n      dup1\n      0x40\n      add\n      0x40\n      mstore\n      dup1\n      0x04\n      dup2\n      mstore\n      0x20\n      add\n      0x5269636b00000000000000000000000000000000000000000000000000000000\n      dup2\n      mstore\n      pop\n      dup2\n      mstore\n      0x20\n      add\n      mload(0x40)\n      dup1\n      0x40\n      add\n      0x40\n      mstore\n      dup1\n      0x07\n      dup2\n      mstore\n      0x20\n      add\n      0x56616e6573736100000000000000000000000000000000000000000000000000\n      dup2\n      mstore\n      pop\n      dup2\n      mstore\n      0x20\n      add\n      mload(0x40)\n      dup1\n      0x40\n      add\n      0x40\n      mstore\n      dup1\n      0x04\n      dup2\n      mstore\n      0x20\n      add\n      0x416c657800000000000000000000000000000000000000000000000000000000\n      dup2\n      mstore\n      pop\n      dup2\n      mstore\n      0x20\n      add\n      mload(0x40)\n      dup1\n      0x40\n      add\n      0x40\n      mstore\n      dup1\n      0x04\n      dup2\n      mstore\n      0x20\n      add\n      0x5669636900000000000000000000000000000000000000000000000000000000\n      dup2\n      mstore\n      pop\n      dup2\n      mstore\n      0x20\n      add\n      mload(0x40)\n      dup1\n      0x40\n      add\n      0x40\n      mstore\n      dup1\n      0x02\n      dup2\n      mstore\n      0x20\n      add\n      0x4c75000000000000000000000000000000000000000000000000000000000000\n      dup2\n      mstore\n      pop\n      dup2\n      mstore\n      0x20\n      add\n      mload(0x40)\n      dup1\n      0x40\n      add\n      0x40\n      mstore\n      dup1\n      0x04\n      dup2\n      mstore\n      0x20\n      add\n      0x4a6f686e00000000000000000000000000000000000000000000000000000000\n      dup2\n      mstore\n      pop\n      dup2\n      mstore\n      0x20\n      add\n      mload(0x40)\n      dup1\n      0x40\n      add\n      0x40\n      mstore\n      dup1\n      0x05\n      dup2\n      mstore\n      0x20\n      add\n      0x5361726168000000000000000000000000000000000000000000000000000000\n      dup2\n      mstore\n      pop\n      dup2\n      mstore\n      0x20\n      add\n      mload(0x40)\n      dup1\n      0x40\n      add\n      0x40\n      mstore\n      dup1\n      0x08\n      dup2\n      mstore\n      0x20\n      add\n      0x53616d616e746861000000000000000000000000000000000000000000000000\n      dup2\n      mstore\n      pop\n      dup2\n      mstore\n      0x20\n      add\n      mload(0x40)\n      dup1\n      0x40\n      add\n      0x40\n      mstore\n      dup1\n      0x05\n      dup2\n      mstore\n      0x20\n      add\n      0x5065746572000000000000000000000000000000000000000000000000000000\n      dup2\n      mstore\n      pop\n      dup2\n      mstore\n      0x20\n      add\n      mload(0x40)\n      dup1\n      0x40\n      add\n      0x40\n      mstore\n      dup1\n      0x05\n      dup2\n      mstore\n      0x20\n      add\n      0x4461766964000000000000000000000000000000000000000000000000000000\n      dup2\n      mstore\n      pop\n      dup2\n      mstore\n      pop\n      swap1\n      pop\n        /* \"src/contracts/AccountManagement.sol\":2764:2791  string[10] memory lastNames */\n      0x00\n        /* \"src/contracts/AccountManagement.sol\":2764:2880  string[10] memory lastNames = [\"Patel\",\"Kim\",\"Brown\",\"Davis\",\"Martinez\",\"Wilson\",\"Garcia\",\"Jones\",\"Jackson\",\"Smith\"] */\n      mload(0x40)\n      dup1\n      0x0140\n      add\n      0x40\n      mstore\n      dup1\n      mload(0x40)\n      dup1\n      0x40\n      add\n      0x40\n      mstore\n      dup1\n      0x05\n      dup2\n      mstore\n      0x20\n      add\n      0x506174656c000000000000000000000000000000000000000000000000000000\n      dup2\n      mstore\n      pop\n      dup2\n      mstore\n      0x20\n      add\n      mload(0x40)\n      dup1\n      0x40\n      add\n      0x40\n      mstore\n      dup1\n      0x03\n      dup2\n      mstore\n      0x20\n      add\n      0x4b696d0000000000000000000000000000000000000000000000000000000000\n      dup2\n      mstore\n      pop\n      dup2\n      mstore\n      0x20\n      add\n      mload(0x40)\n      dup1\n      0x40\n      add\n      0x40\n      mstore\n      dup1\n      0x05\n      dup2\n      mstore\n      0x20\n      add\n      0x42726f776e000000000000000000000000000000000000000000000000000000\n      dup2\n      mstore\n      pop\n      dup2\n      mstore\n      0x20\n      add\n      mload(0x40)\n      dup1\n      0x40\n      add\n      0x40\n      mstore\n      dup1\n      0x05\n      dup2\n      mstore\n      0x20\n      add\n      0x4461766973000000000000000000000000000000000000000000000000000000\n      dup2\n      mstore\n      pop\n      dup2\n      mstore\n      0x20\n      add\n      mload(0x40)\n      dup1\n      0x40\n      add\n      0x40\n      mstore\n      dup1\n      0x08\n      dup2\n      mstore\n      0x20\n      add\n      0x4d617274696e657a000000000000000000000000000000000000000000000000\n      dup2\n      mstore\n      pop\n      dup2\n      mstore\n      0x20\n      add\n      mload(0x40)\n      dup1\n      0x40\n      add\n      0x40\n      mstore\n      dup1\n      0x06\n      dup2\n      mstore\n      0x20\n      add\n      0x57696c736f6e0000000000000000000000000000000000000000000000000000\n      dup2\n      mstore\n      pop\n      dup2\n      mstore\n      0x20\n      add\n      mload(0x40)\n      dup1\n      0x40\n      add\n      0x40\n      mstore\n      dup1\n      0x06\n      dup2\n      mstore\n      0x20\n      add\n      0x4761726369610000000000000000000000000000000000000000000000000000\n      dup2\n      mstore\n      pop\n      dup2\n      mstore\n      0x20\n      add\n      mload(0x40)\n      dup1\n      0x40\n      add\n      0x40\n      mstore\n      dup1\n      0x05\n      dup2\n      mstore\n      0x20\n      add\n      0x4a6f6e6573000000000000000000000000000000000000000000000000000000\n      dup2\n      mstore\n      pop\n      dup2\n      mstore\n      0x20\n      add\n      mload(0x40)\n      dup1\n      0x40\n      add\n      0x40\n      mstore\n      dup1\n      0x07\n      dup2\n      mstore\n      0x20\n      add\n      0x4a61636b736f6e00000000000000000000000000000000000000000000000000\n      dup2\n      mstore\n      pop\n      dup2\n      mstore\n      0x20\n      add\n      mload(0x40)\n      dup1\n      0x40\n      add\n      0x40\n      mstore\n      dup1\n      0x05\n      dup2\n      mstore\n      0x20\n      add\n      0x536d697468000000000000000000000000000000000000000000000000000000\n      dup2\n      mstore\n      pop\n      dup2\n      mstore\n      pop\n      swap1\n      pop\n        /* \"src/contracts/AccountManagement.sol\":2891:2921  string[10] memory mailAdresses */\n      0x00\n        /* \"src/contracts/AccountManagement.sol\":2891:3150  string[10] memory mailAdresses = [ \"Rick.Patel@por.com\",\"Vanessa.Kim@por.com\", \"Alex.Brown@por.com\",\"Vici.Davis@por.com\",\"Lu.Martinez@por.com\",\"John.Wilson@por.com\",\"Sarah.Garcia@por.com\",\"Samantha.Jones@por.com\",\"Peter.Jackson@por.com\",\"David.Smith@por.com\"] */\n      mload(0x40)\n      dup1\n      0x0140\n      add\n      0x40\n      mstore\n      dup1\n      mload(0x40)\n      dup1\n      0x40\n      add\n      0x40\n      mstore\n      dup1\n      0x12\n      dup2\n      mstore\n      0x20\n      add\n      0x5269636b2e506174656c40706f722e636f6d0000000000000000000000000000\n      dup2\n      mstore\n      pop\n      dup2\n      mstore\n      0x20\n      add\n      mload(0x40)\n      dup1\n      0x40\n      add\n      0x40\n      mstore\n      dup1\n      0x13\n      dup2\n      mstore\n      0x20\n      add\n      0x56616e657373612e4b696d40706f722e636f6d00000000000000000000000000\n      dup2\n      mstore\n      pop\n      dup2\n      mstore\n      0x20\n      add\n      mload(0x40)\n      dup1\n      0x40\n      add\n      0x40\n      mstore\n      dup1\n      0x12\n      dup2\n      mstore\n      0x20\n      add\n      0x416c65782e42726f776e40706f722e636f6d0000000000000000000000000000\n      dup2\n      mstore\n      pop\n      dup2\n      mstore\n      0x20\n      add\n      mload(0x40)\n      dup1\n      0x40\n      add\n      0x40\n      mstore\n      dup1\n      0x12\n      dup2\n      mstore\n      0x20\n      add\n      0x566963692e446176697340706f722e636f6d0000000000000000000000000000\n      dup2\n      mstore\n      pop\n      dup2\n      mstore\n      0x20\n      add\n      mload(0x40)\n      dup1\n      0x40\n      add\n      0x40\n      mstore\n      dup1\n      0x13\n      dup2\n      mstore\n      0x20\n      add\n      0x4c752e4d617274696e657a40706f722e636f6d00000000000000000000000000\n      dup2\n      mstore\n      pop\n      dup2\n      mstore\n      0x20\n      add\n      mload(0x40)\n      dup1\n      0x40\n      add\n      0x40\n      mstore\n      dup1\n      0x13\n      dup2\n      mstore\n      0x20\n      add\n      0x4a6f686e2e57696c736f6e40706f722e636f6d00000000000000000000000000\n      dup2\n      mstore\n      pop\n      dup2\n      mstore\n      0x20\n      add\n      mload(0x40)\n      dup1\n      0x40\n      add\n      0x40\n      mstore\n      dup1\n      0x14\n      dup2\n      mstore\n      0x20\n      add\n      0x53617261682e47617263696140706f722e636f6d000000000000000000000000\n      dup2\n      mstore\n      pop\n      dup2\n      mstore\n      0x20\n      add\n      mload(0x40)\n      dup1\n      0x40\n      add\n      0x40\n      mstore\n      dup1\n      0x16\n      dup2\n      mstore\n      0x20\n      add\n      0x53616d616e7468612e4a6f6e657340706f722e636f6d00000000000000000000\n      dup2\n      mstore\n      pop\n      dup2\n      mstore\n      0x20\n      add\n      mload(0x40)\n      dup1\n      0x40\n      add\n      0x40\n      mstore\n      dup1\n      0x15\n      dup2\n      mstore\n      0x20\n      add\n      0x50657465722e4a61636b736f6e40706f722e636f6d0000000000000000000000\n      dup2\n      mstore\n      pop\n      dup2\n      mstore\n      0x20\n      add\n      mload(0x40)\n      dup1\n      0x40\n      add\n      0x40\n      mstore\n      dup1\n      0x13\n      dup2\n      mstore\n      0x20\n      add\n      0x44617669642e536d69746840706f722e636f6d00000000000000000000000000\n      dup2\n      mstore\n      pop\n      dup2\n      mstore\n      pop\n      swap1\n      pop\n        /* \"src/contracts/AccountManagement.sol\":3165:3171  uint i */\n      0x00\n        /* \"src/contracts/AccountManagement.sol\":3161:3582  for(uint i = 0; i < testAccounts.length; i++)... */\n    tag_192:\n        /* \"src/contracts/AccountManagement.sol\":3181:3200  testAccounts.length */\n      0x0a\n        /* \"src/contracts/AccountManagement.sol\":3177:3178  i */\n      dup2\n        /* \"src/contracts/AccountManagement.sol\":3177:3200  i < testAccounts.length */\n      lt\n        /* \"src/contracts/AccountManagement.sol\":3161:3582  for(uint i = 0; i < testAccounts.length; i++)... */\n      iszero\n      tag_193\n      jumpi\n        /* \"src/contracts/AccountManagement.sol\":3231:3242  address acc */\n      0x00\n        /* \"src/contracts/AccountManagement.sol\":3245:3257  testAccounts */\n      dup6\n        /* \"src/contracts/AccountManagement.sol\":3258:3259  i */\n      dup3\n        /* \"src/contracts/AccountManagement.sol\":3245:3260  testAccounts[i] */\n      0x0a\n      dup2\n      lt\n      tag_195\n      jumpi\n      tag_196\n      tag_141\n      jump\t// in\n    tag_196:\n    tag_195:\n      0x20\n      mul\n      add\n      mload\n        /* \"src/contracts/AccountManagement.sol\":3231:3260  address acc = testAccounts[i] */\n      swap1\n      pop\n        /* \"src/contracts/AccountManagement.sol\":3279:3283  this */\n      address\n        /* \"src/contracts/AccountManagement.sol\":3279:3294  this.userExists */\n      0xffffffffffffffffffffffffffffffffffffffff\n      and\n      0x0e666e49\n        /* \"src/contracts/AccountManagement.sol\":3295:3298  acc */\n      dup3\n        /* \"src/contracts/AccountManagement.sol\":3279:3299  this.userExists(acc) */\n      mload(0x40)\n      dup3\n      0xffffffff\n      and\n      0xe0\n      shl\n      dup2\n      mstore\n      0x04\n      add\n      tag_197\n      swap2\n      swap1\n      tag_71\n      jump\t// in\n    tag_197:\n      0x20\n      mload(0x40)\n      dup1\n      dup4\n      sub\n      dup2\n      dup7\n      gas\n      staticcall\n      iszero\n      dup1\n      iszero\n      tag_199\n      jumpi\n      returndatasize\n      0x00\n      dup1\n      returndatacopy\n      revert(0x00, returndatasize)\n    tag_199:\n      pop\n      pop\n      pop\n      pop\n      mload(0x40)\n      returndatasize\n      not(0x1f)\n      0x1f\n      dup3\n      add\n      and\n      dup3\n      add\n      dup1\n      0x40\n      mstore\n      pop\n      dup2\n      add\n      swap1\n      tag_200\n      swap2\n      swap1\n      tag_201\n      jump\t// in\n    tag_200:\n        /* \"src/contracts/AccountManagement.sol\":3275:3571  if(!this.userExists(acc))... */\n      tag_202\n      jumpi\n        /* \"src/contracts/AccountManagement.sol\":3333:3397  createAccount(acc, firstNames[i], lastNames[i], mailAdresses[i]) */\n      tag_203\n        /* \"src/contracts/AccountManagement.sol\":3347:3350  acc */\n      dup2\n        /* \"src/contracts/AccountManagement.sol\":3352:3362  firstNames */\n      dup7\n        /* \"src/contracts/AccountManagement.sol\":3363:3364  i */\n      dup5\n        /* \"src/contracts/AccountManagement.sol\":3352:3365  firstNames[i] */\n      0x0a\n      dup2\n      lt\n      tag_204\n      jumpi\n      tag_205\n      tag_141\n      jump\t// in\n    tag_205:\n    tag_204:\n      0x20\n      mul\n      add\n      mload\n        /* \"src/contracts/AccountManagement.sol\":3367:3376  lastNames */\n      dup7\n        /* \"src/contracts/AccountManagement.sol\":3377:3378  i */\n      dup6\n        /* \"src/contracts/AccountManagement.sol\":3367:3379  lastNames[i] */\n      0x0a\n      dup2\n      lt\n      tag_206\n      jumpi\n      tag_207\n      tag_141\n      jump\t// in\n    tag_207:\n    tag_206:\n      0x20\n      mul\n      add\n      mload\n        /* \"src/contracts/AccountManagement.sol\":3381:3393  mailAdresses */\n      dup7\n        /* \"src/contracts/AccountManagement.sol\":3394:3395  i */\n      dup7\n        /* \"src/contracts/AccountManagement.sol\":3381:3396  mailAdresses[i] */\n      0x0a\n      dup2\n      lt\n      tag_208\n      jumpi\n      tag_209\n      tag_141\n      jump\t// in\n    tag_209:\n    tag_208:\n      0x20\n      mul\n      add\n      mload\n        /* \"src/contracts/AccountManagement.sol\":3333:3346  createAccount */\n      tag_91\n        /* \"src/contracts/AccountManagement.sol\":3333:3397  createAccount(acc, firstNames[i], lastNames[i], mailAdresses[i]) */\n      jump\t// in\n    tag_203:\n        /* \"src/contracts/AccountManagement.sol\":3416:3456  assignRole(msg.sender, acc, Role.MEMBER) */\n      tag_210\n        /* \"src/contracts/AccountManagement.sol\":3427:3437  msg.sender */\n      caller\n        /* \"src/contracts/AccountManagement.sol\":3439:3442  acc */\n      dup3\n        /* \"src/contracts/AccountManagement.sol\":3444:3455  Role.MEMBER */\n      0x02\n        /* \"src/contracts/AccountManagement.sol\":3416:3426  assignRole */\n      tag_211\n        /* \"src/contracts/AccountManagement.sol\":3416:3456  assignRole(msg.sender, acc, Role.MEMBER) */\n      jump\t// in\n    tag_210:\n        /* \"src/contracts/AccountManagement.sol\":3475:3514  removeRole(msg.sender, acc, Role.GUEST) */\n      tag_212\n        /* \"src/contracts/AccountManagement.sol\":3486:3496  msg.sender */\n      caller\n        /* \"src/contracts/AccountManagement.sol\":3498:3501  acc */\n      dup3\n        /* \"src/contracts/AccountManagement.sol\":3503:3513  Role.GUEST */\n      0x03\n        /* \"src/contracts/AccountManagement.sol\":3475:3485  removeRole */\n      tag_213\n        /* \"src/contracts/AccountManagement.sol\":3475:3514  removeRole(msg.sender, acc, Role.GUEST) */\n      jump\t// in\n    tag_212:\n        /* \"src/contracts/AccountManagement.sol\":3535:3555  activateAccount(acc) */\n      tag_214\n        /* \"src/contracts/AccountManagement.sol\":3551:3554  acc */\n      dup2\n        /* \"src/contracts/AccountManagement.sol\":3535:3550  activateAccount */\n      tag_63\n        /* \"src/contracts/AccountManagement.sol\":3535:3555  activateAccount(acc) */\n      jump\t// in\n    tag_214:\n        /* \"src/contracts/AccountManagement.sol\":3275:3571  if(!this.userExists(acc))... */\n    tag_202:\n        /* \"src/contracts/AccountManagement.sol\":3216:3582  {... */\n      pop\n        /* \"src/contracts/AccountManagement.sol\":3202:3205  i++ */\n      dup1\n      dup1\n      tag_215\n      swap1\n      tag_144\n      jump\t// in\n    tag_215:\n      swap2\n      pop\n      pop\n        /* \"src/contracts/AccountManagement.sol\":3161:3582  for(uint i = 0; i < testAccounts.length; i++)... */\n      jump(tag_192)\n    tag_193:\n      pop\n        /* \"src/contracts/AccountManagement.sol\":3602:3629  address[] memory newLeaders */\n      0x00\n        /* \"src/contracts/AccountManagement.sol\":3646:3647  2 */\n      0x02\n        /* \"src/contracts/AccountManagement.sol\":3632:3648  new address[](2) */\n      0xffffffffffffffff\n      dup2\n      gt\n      iszero\n      tag_216\n      jumpi\n      tag_217\n      tag_218\n      jump\t// in\n    tag_217:\n    tag_216:\n      mload(0x40)\n      swap1\n      dup1\n      dup3\n      mstore\n      dup1\n      0x20\n      mul\n      0x20\n      add\n      dup3\n      add\n      0x40\n      mstore\n      dup1\n      iszero\n      tag_219\n      jumpi\n      dup2\n      0x20\n      add\n      0x20\n      dup3\n      mul\n      dup1\n      calldatasize\n      dup4\n      calldatacopy\n      dup1\n      dup3\n      add\n      swap2\n      pop\n      pop\n      swap1\n      pop\n    tag_219:\n      pop\n        /* \"src/contracts/AccountManagement.sol\":3602:3648  address[] memory newLeaders = new address[](2) */\n      swap1\n      pop\n        /* \"src/contracts/AccountManagement.sol\":3675:3717  0x5B38Da6a701c568545dCfcB03FcB875f56beddC4 */\n      0x5b38da6a701c568545dcfcb03fcb875f56beddc4\n        /* \"src/contracts/AccountManagement.sol\":3659:3669  newLeaders */\n      dup2\n        /* \"src/contracts/AccountManagement.sol\":3670:3671  0 */\n      0x00\n        /* \"src/contracts/AccountManagement.sol\":3659:3672  newLeaders[0] */\n      dup2\n      mload\n      dup2\n      lt\n      tag_220\n      jumpi\n      tag_221\n      tag_141\n      jump\t// in\n    tag_221:\n    tag_220:\n      0x20\n      mul\n      0x20\n      add\n      add\n        /* \"src/contracts/AccountManagement.sol\":3659:3717  newLeaders[0] = 0x5B38Da6a701c568545dCfcB03FcB875f56beddC4 */\n      swap1\n      0xffffffffffffffffffffffffffffffffffffffff\n      and\n      swap1\n      dup2\n      0xffffffffffffffffffffffffffffffffffffffff\n      and\n      dup2\n      mstore\n      pop\n      pop\n        /* \"src/contracts/AccountManagement.sol\":3744:3786  0xAb8483F64d9C6d1EcF9b849Ae677dD3315835cb2 */\n      0xab8483f64d9c6d1ecf9b849ae677dd3315835cb2\n        /* \"src/contracts/AccountManagement.sol\":3728:3738  newLeaders */\n      dup2\n        /* \"src/contracts/AccountManagement.sol\":3739:3740  1 */\n      0x01\n        /* \"src/contracts/AccountManagement.sol\":3728:3741  newLeaders[1] */\n      dup2\n      mload\n      dup2\n      lt\n      tag_222\n      jumpi\n      tag_223\n      tag_141\n      jump\t// in\n    tag_223:\n    tag_222:\n      0x20\n      mul\n      0x20\n      add\n      add\n        /* \"src/contracts/AccountManagement.sol\":3728:3786  newLeaders[1] = 0xAb8483F64d9C6d1EcF9b849Ae677dD3315835cb2 */\n      swap1\n      0xffffffffffffffffffffffffffffffffffffffff\n      and\n      swap1\n      dup2\n      0xffffffffffffffffffffffffffffffffffffffff\n      and\n      dup2\n      mstore\n      pop\n      pop\n        /* \"src/contracts/AccountManagement.sol\":3799:3819  LeaderBoard memory l */\n      0x00\n        /* \"src/contracts/AccountManagement.sol\":3822:3851  createLeaderBoard(newLeaders) */\n      tag_224\n        /* \"src/contracts/AccountManagement.sol\":3840:3850  newLeaders */\n      dup3\n        /* \"src/contracts/AccountManagement.sol\":3822:3839  createLeaderBoard */\n      tag_41\n        /* \"src/contracts/AccountManagement.sol\":3822:3851  createLeaderBoard(newLeaders) */\n      jump\t// in\n    tag_224:\n        /* \"src/contracts/AccountManagement.sol\":3799:3851  LeaderBoard memory l = createLeaderBoard(newLeaders) */\n      swap1\n      pop\n        /* \"src/contracts/AccountManagement.sol\":3862:3895  appointLeaderBoard(msg.sender, l) */\n      tag_225\n        /* \"src/contracts/AccountManagement.sol\":3881:3891  msg.sender */\n      caller\n        /* \"src/contracts/AccountManagement.sol\":3893:3894  l */\n      dup3\n        /* \"src/contracts/AccountManagement.sol\":3862:3880  appointLeaderBoard */\n      tag_55\n        /* \"src/contracts/AccountManagement.sol\":3862:3895  appointLeaderBoard(msg.sender, l) */\n      jump\t// in\n    tag_225:\n        /* \"src/contracts/AccountManagement.sol\":3918:3945  address[] memory newCouncil */\n      0x00\n        /* \"src/contracts/AccountManagement.sol\":3962:3963  2 */\n      0x02\n        /* \"src/contracts/AccountManagement.sol\":3948:3964  new address[](2) */\n      0xffffffffffffffff\n      dup2\n      gt\n      iszero\n      tag_226\n      jumpi\n      tag_227\n      tag_218\n      jump\t// in\n    tag_227:\n    tag_226:\n      mload(0x40)\n      swap1\n      dup1\n      dup3\n      mstore\n      dup1\n      0x20\n      mul\n      0x20\n      add\n      dup3\n      add\n      0x40\n      mstore\n      dup1\n      iszero\n      tag_228\n      jumpi\n      dup2\n      0x20\n      add\n      0x20\n      dup3\n      mul\n      dup1\n      calldatasize\n      dup4\n      calldatacopy\n      dup1\n      dup3\n      add\n      swap2\n      pop\n      pop\n      swap1\n      pop\n    tag_228:\n      pop\n        /* \"src/contracts/AccountManagement.sol\":3918:3964  address[] memory newCouncil = new address[](2) */\n      swap1\n      pop\n        /* \"src/contracts/AccountManagement.sol\":3991:4033  0x4B20993Bc481177ec7E8f571ceCaE8A9e22C02db */\n      0x4b20993bc481177ec7e8f571cecae8a9e22c02db\n        /* \"src/contracts/AccountManagement.sol\":3975:3985  newCouncil */\n      dup2\n        /* \"src/contracts/AccountManagement.sol\":3986:3987  0 */\n      0x00\n        /* \"src/contracts/AccountManagement.sol\":3975:3988  newCouncil[0] */\n      dup2\n      mload\n      dup2\n      lt\n      tag_229\n      jumpi\n      tag_230\n      tag_141\n      jump\t// in\n    tag_230:\n    tag_229:\n      0x20\n      mul\n      0x20\n      add\n      add\n        /* \"src/contracts/AccountManagement.sol\":3975:4033  newCouncil[0] = 0x4B20993Bc481177ec7E8f571ceCaE8A9e22C02db */\n      swap1\n      0xffffffffffffffffffffffffffffffffffffffff\n      and\n      swap1\n      dup2\n      0xffffffffffffffffffffffffffffffffffffffff\n      and\n      dup2\n      mstore\n      pop\n      pop\n        /* \"src/contracts/AccountManagement.sol\":4060:4102  0x78731D3Ca6b7E34aC0F824c42a7cC18A495cabaB */\n      0x78731d3ca6b7e34ac0f824c42a7cc18a495cabab\n        /* \"src/contracts/AccountManagement.sol\":4044:4054  newCouncil */\n      dup2\n        /* \"src/contracts/AccountManagement.sol\":4055:4056  1 */\n      0x01\n        /* \"src/contracts/AccountManagement.sol\":4044:4057  newCouncil[1] */\n      dup2\n      mload\n      dup2\n      lt\n      tag_231\n      jumpi\n      tag_232\n      tag_141\n      jump\t// in\n    tag_232:\n    tag_231:\n      0x20\n      mul\n      0x20\n      add\n      add\n        /* \"src/contracts/AccountManagement.sol\":4044:4102  newCouncil[1] = 0x78731D3Ca6b7E34aC0F824c42a7cC18A495cabaB */\n      swap1\n      0xffffffffffffffffffffffffffffffffffffffff\n      and\n      swap1\n      dup2\n      0xffffffffffffffffffffffffffffffffffffffff\n      and\n      dup2\n      mstore\n      pop\n      pop\n        /* \"src/contracts/AccountManagement.sol\":4115:4131  Council memory c */\n      0x00\n        /* \"src/contracts/AccountManagement.sol\":4134:4159  createCouncil(newCouncil) */\n      tag_233\n        /* \"src/contracts/AccountManagement.sol\":4148:4158  newCouncil */\n      dup3\n        /* \"src/contracts/AccountManagement.sol\":4134:4147  createCouncil */\n      tag_86\n        /* \"src/contracts/AccountManagement.sol\":4134:4159  createCouncil(newCouncil) */\n      jump\t// in\n    tag_233:\n        /* \"src/contracts/AccountManagement.sol\":4115:4159  Council memory c = createCouncil(newCouncil) */\n      swap1\n      pop\n        /* \"src/contracts/AccountManagement.sol\":4170:4199  appointCouncil(msg.sender, c) */\n      tag_234\n        /* \"src/contracts/AccountManagement.sol\":4185:4195  msg.sender */\n      caller\n        /* \"src/contracts/AccountManagement.sol\":4197:4198  c */\n      dup3\n        /* \"src/contracts/AccountManagement.sol\":4170:4184  appointCouncil */\n      tag_67\n        /* \"src/contracts/AccountManagement.sol\":4170:4199  appointCouncil(msg.sender, c) */\n      jump\t// in\n    tag_234:\n        /* \"src/contracts/AccountManagement.sol\":1992:4217  {... */\n      pop\n      pop\n      pop\n      pop\n      pop\n      pop\n      pop\n      pop\n        /* \"src/contracts/AccountManagement.sol\":1952:4217  function _testAccountManagement() public{... */\n      jump\t// out\n        /* \"src/contracts/AccountManagement.sol\":13862:13954  function getCouncil() external view returns(Council memory){... */\n    tag_75:\n        /* \"src/contracts/AccountManagement.sol\":13906:13920  Council memory */\n      tag_235\n      tag_236\n      jump\t// in\n    tag_235:\n        /* \"src/contracts/AccountManagement.sol\":13939:13946  council */\n      0x05\n        /* \"src/contracts/AccountManagement.sol\":13932:13946  return council */\n      mload(0x40)\n      dup1\n      0x60\n      add\n      0x40\n      mstore\n      swap1\n      dup2\n      0x00\n      dup3\n      add\n      dup1\n      sload\n      dup1\n      0x20\n      mul\n      0x20\n      add\n      mload(0x40)\n      swap1\n      dup2\n      add\n      0x40\n      mstore\n      dup1\n      swap3\n      swap2\n      swap1\n      dup2\n      dup2\n      mstore\n      0x20\n      add\n      dup3\n      dup1\n      sload\n      dup1\n      iszero\n      tag_238\n      jumpi\n      0x20\n      mul\n      dup3\n      add\n      swap2\n      swap1\n      0x00\n      mstore\n      keccak256(0x00, 0x20)\n      swap1\n    tag_239:\n      dup2\n      0x00\n      swap1\n      sload\n      swap1\n      0x0100\n      exp\n      swap1\n      div\n      0xffffffffffffffffffffffffffffffffffffffff\n      and\n      0xffffffffffffffffffffffffffffffffffffffff\n      and\n      dup2\n      mstore\n      0x20\n      add\n      swap1\n      0x01\n      add\n      swap1\n      dup1\n      dup4\n      gt\n      tag_239\n      jumpi\n    tag_238:\n      pop\n      pop\n      pop\n      pop\n      pop\n      dup2\n      mstore\n      0x20\n      add\n      0x01\n      dup3\n      add\n      sload\n      dup2\n      mstore\n      0x20\n      add\n      0x02\n      dup3\n      add\n      0x00\n      swap1\n      sload\n      swap1\n      0x0100\n      exp\n      swap1\n      div\n      0xff\n      and\n      iszero\n      iszero\n      iszero\n      iszero\n      dup2\n      mstore\n      pop\n      pop\n      swap1\n      pop\n        /* \"src/contracts/AccountManagement.sol\":13862:13954  function getCouncil() external view returns(Council memory){... */\n      swap1\n      jump\t// out\n        /* \"src/contracts/AccountManagement.sol\":13750:13854  function getLeaderBoard() external view returns(LeaderBoard memory){... */\n    tag_79:\n        /* \"src/contracts/AccountManagement.sol\":13798:13816  LeaderBoard memory */\n      tag_240\n      tag_129\n      jump\t// in\n    tag_240:\n        /* \"src/contracts/AccountManagement.sol\":13835:13846  leaderBoard */\n      0x02\n        /* \"src/contracts/AccountManagement.sol\":13828:13846  return leaderBoard */\n      mload(0x40)\n      dup1\n      0x60\n      add\n      0x40\n      mstore\n      swap1\n      dup2\n      0x00\n      dup3\n      add\n      dup1\n      sload\n      dup1\n      0x20\n      mul\n      0x20\n      add\n      mload(0x40)\n      swap1\n      dup2\n      add\n      0x40\n      mstore\n      dup1\n      swap3\n      swap2\n      swap1\n      dup2\n      dup2\n      mstore\n      0x20\n      add\n      dup3\n      dup1\n      sload\n      dup1\n      iszero\n      tag_242\n      jumpi\n      0x20\n      mul\n      dup3\n      add\n      swap2\n      swap1\n      0x00\n      mstore\n      keccak256(0x00, 0x20)\n      swap1\n    tag_243:\n      dup2\n      0x00\n      swap1\n      sload\n      swap1\n      0x0100\n      exp\n      swap1\n      div\n      0xffffffffffffffffffffffffffffffffffffffff\n      and\n      0xffffffffffffffffffffffffffffffffffffffff\n      and\n      dup2\n      mstore\n      0x20\n      add\n      swap1\n      0x01\n      add\n      swap1\n      dup1\n      dup4\n      gt\n      tag_243\n      jumpi\n    tag_242:\n      pop\n      pop\n      pop\n      pop\n      pop\n      dup2\n      mstore\n      0x20\n      add\n      0x01\n      dup3\n      add\n      sload\n      dup2\n      mstore\n      0x20\n      add\n      0x02\n      dup3\n      add\n      0x00\n      swap1\n      sload\n      swap1\n      0x0100\n      exp\n      swap1\n      div\n      0xff\n      and\n      iszero\n      iszero\n      iszero\n      iszero\n      dup2\n      mstore\n      pop\n      pop\n      swap1\n      pop\n        /* \"src/contracts/AccountManagement.sol\":13750:13854  function getLeaderBoard() external view returns(LeaderBoard memory){... */\n      swap1\n      jump\t// out\n        /* \"src/contracts/AccountManagement.sol\":6597:6814  function burnAccount(address _address) public onlyIfUserExists(_address){  ... */\n    tag_83:\n        /* \"src/contracts/AccountManagement.sol\":6660:6668  _address */\n      dup1\n        /* \"src/contracts/AccountManagement.sol\":4775:4776  0 */\n      0x00\n        /* \"src/contracts/AccountManagement.sol\":4736:4777  users[_address].userAddress != address(0) */\n      0xffffffffffffffffffffffffffffffffffffffff\n      and\n        /* \"src/contracts/AccountManagement.sol\":4736:4741  users */\n      0x08\n        /* \"src/contracts/AccountManagement.sol\":4736:4751  users[_address] */\n      0x00\n        /* \"src/contracts/AccountManagement.sol\":4742:4750  _address */\n      dup4\n        /* \"src/contracts/AccountManagement.sol\":4736:4751  users[_address] */\n      0xffffffffffffffffffffffffffffffffffffffff\n      and\n      0xffffffffffffffffffffffffffffffffffffffff\n      and\n      dup2\n      mstore\n      0x20\n      add\n      swap1\n      dup2\n      mstore\n      0x20\n      add\n      0x00\n      keccak256\n        /* \"src/contracts/AccountManagement.sol\":4736:4763  users[_address].userAddress */\n      0x00\n      add\n      0x00\n      swap1\n      sload\n      swap1\n      0x0100\n      exp\n      swap1\n      div\n      0xffffffffffffffffffffffffffffffffffffffff\n      and\n        /* \"src/contracts/AccountManagement.sol\":4736:4777  users[_address].userAddress != address(0) */\n      0xffffffffffffffffffffffffffffffffffffffff\n      and\n      eq\n      iszero\n        /* \"src/contracts/AccountManagement.sol\":4728:4803  require(users[_address].userAddress != address(0), \"Account doesn't exist\") */\n      tag_245\n      jumpi\n      mload(0x40)\n      0x08c379a000000000000000000000000000000000000000000000000000000000\n      dup2\n      mstore\n      0x04\n      add\n      tag_246\n      swap1\n      tag_123\n      jump\t// in\n    tag_246:\n      mload(0x40)\n      dup1\n      swap2\n      sub\n      swap1\n      revert\n    tag_245:\n        /* \"src/contracts/AccountManagement.sol\":6730:6757  deactivateAccount(_address) */\n      tag_248\n        /* \"src/contracts/AccountManagement.sol\":6748:6756  _address */\n      dup3\n        /* \"src/contracts/AccountManagement.sol\":6730:6747  deactivateAccount */\n      tag_37\n        /* \"src/contracts/AccountManagement.sol\":6730:6757  deactivateAccount(_address) */\n      jump\t// in\n    tag_248:\n        /* \"src/contracts/AccountManagement.sol\":6782:6787  users */\n      0x08\n        /* \"src/contracts/AccountManagement.sol\":6782:6797  users[_address] */\n      0x00\n        /* \"src/contracts/AccountManagement.sol\":6788:6796  _address */\n      dup4\n        /* \"src/contracts/AccountManagement.sol\":6782:6797  users[_address] */\n      0xffffffffffffffffffffffffffffffffffffffff\n      and\n      0xffffffffffffffffffffffffffffffffffffffff\n      and\n      dup2\n      mstore\n      0x20\n      add\n      swap1\n      dup2\n      mstore\n      0x20\n      add\n      0x00\n      keccak256\n      0x00\n        /* \"src/contracts/AccountManagement.sol\":6775:6797  delete users[_address] */\n      dup1\n      dup3\n      add\n      exp(0x0100, 0x00)\n      dup2\n      sload\n      swap1\n      0xffffffffffffffffffffffffffffffffffffffff\n      mul\n      not\n      and\n      swap1\n      sstore\n      0x01\n      dup3\n      add\n      0x00\n      tag_249\n      swap2\n      swap1\n      tag_250\n      jump\t// in\n    tag_249:\n      0x02\n      dup3\n      add\n      0x00\n      tag_251\n      swap2\n      swap1\n      tag_250\n      jump\t// in\n    tag_251:\n      0x03\n      dup3\n      add\n      0x00\n      tag_252\n      swap2\n      swap1\n      tag_250\n      jump\t// in\n    tag_252:\n      0x04\n      dup3\n      add\n      exp(0x0100, 0x00)\n      dup2\n      sload\n      swap1\n      0xff\n      mul\n      not\n      and\n      swap1\n      sstore\n      0x05\n      dup3\n      add\n      0x00\n      dup1\n      dup3\n      add\n      exp(0x0100, 0x00)\n      dup2\n      sload\n      swap1\n      0xff\n      mul\n      not\n      and\n      swap1\n      sstore\n      0x00\n      dup3\n      add\n      exp(0x0100, 0x01)\n      dup2\n      sload\n      swap1\n      0xff\n      mul\n      not\n      and\n      swap1\n      sstore\n      0x00\n      dup3\n      add\n      exp(0x0100, 0x02)\n      dup2\n      sload\n      swap1\n      0xff\n      mul\n      not\n      and\n      swap1\n      sstore\n      0x00\n      dup3\n      add\n      exp(0x0100, 0x03)\n      dup2\n      sload\n      swap1\n      0xff\n      mul\n      not\n      and\n      swap1\n      sstore\n      pop\n      pop\n      pop\n      pop\n        /* \"src/contracts/AccountManagement.sol\":6597:6814  function burnAccount(address _address) public onlyIfUserExists(_address){  ... */\n      pop\n      pop\n      jump\t// out\n        /* \"src/contracts/AccountManagement.sol\":10967:11193  function createCouncil(address[] memory _members) public view returns(Council memory){... */\n    tag_86:\n        /* \"src/contracts/AccountManagement.sol\":11037:11051  Council memory */\n      tag_253\n      tag_236\n      jump\t// in\n    tag_253:\n        /* \"src/contracts/AccountManagement.sol\":11063:11080  uint electionTime */\n      0x00\n        /* \"src/contracts/AccountManagement.sol\":11083:11098  block.timestamp */\n      timestamp\n        /* \"src/contracts/AccountManagement.sol\":11063:11098  uint electionTime = block.timestamp */\n      swap1\n      pop\n        /* \"src/contracts/AccountManagement.sol\":11109:11125  Council memory l */\n      0x00\n        /* \"src/contracts/AccountManagement.sol\":11128:11166  Council(_members, electionTime, false) */\n      mload(0x40)\n      dup1\n      0x60\n      add\n      0x40\n      mstore\n      dup1\n        /* \"src/contracts/AccountManagement.sol\":11136:11144  _members */\n      dup6\n        /* \"src/contracts/AccountManagement.sol\":11128:11166  Council(_members, electionTime, false) */\n      dup2\n      mstore\n      0x20\n      add\n        /* \"src/contracts/AccountManagement.sol\":11146:11158  electionTime */\n      dup4\n        /* \"src/contracts/AccountManagement.sol\":11128:11166  Council(_members, electionTime, false) */\n      dup2\n      mstore\n      0x20\n      add\n        /* \"src/contracts/AccountManagement.sol\":11160:11165  false */\n      0x00\n        /* \"src/contracts/AccountManagement.sol\":11128:11166  Council(_members, electionTime, false) */\n      iszero\n      iszero\n      dup2\n      mstore\n      pop\n        /* \"src/contracts/AccountManagement.sol\":11109:11166  Council memory l = Council(_members, electionTime, false) */\n      swap1\n      pop\n        /* \"src/contracts/AccountManagement.sol\":11184:11185  l */\n      dup1\n        /* \"src/contracts/AccountManagement.sol\":11177:11185  return l */\n      swap3\n      pop\n      pop\n      pop\n        /* \"src/contracts/AccountManagement.sol\":10967:11193  function createCouncil(address[] memory _members) public view returns(Council memory){... */\n      swap2\n      swap1\n      pop\n      jump\t// out\n        /* \"src/contracts/AccountManagement.sol\":5131:5498  function createAccount(address _address, string memory _firstName, string memory _lastName, string memory _mailAdress) public onlyIfUserNotExists(_address){... */\n    tag_91:\n        /* \"src/contracts/AccountManagement.sol\":5277:5285  _address */\n      dup4\n        /* \"src/contracts/AccountManagement.sol\":4935:4936  0 */\n      0x00\n        /* \"src/contracts/AccountManagement.sol\":4896:4937  users[_address].userAddress == address(0) */\n      0xffffffffffffffffffffffffffffffffffffffff\n      and\n        /* \"src/contracts/AccountManagement.sol\":4896:4901  users */\n      0x08\n        /* \"src/contracts/AccountManagement.sol\":4896:4911  users[_address] */\n      0x00\n        /* \"src/contracts/AccountManagement.sol\":4902:4910  _address */\n      dup4\n        /* \"src/contracts/AccountManagement.sol\":4896:4911  users[_address] */\n      0xffffffffffffffffffffffffffffffffffffffff\n      and\n      0xffffffffffffffffffffffffffffffffffffffff\n      and\n      dup2\n      mstore\n      0x20\n      add\n      swap1\n      dup2\n      mstore\n      0x20\n      add\n      0x00\n      keccak256\n        /* \"src/contracts/AccountManagement.sol\":4896:4923  users[_address].userAddress */\n      0x00\n      add\n      0x00\n      swap1\n      sload\n      swap1\n      0x0100\n      exp\n      swap1\n      div\n      0xffffffffffffffffffffffffffffffffffffffff\n      and\n        /* \"src/contracts/AccountManagement.sol\":4896:4937  users[_address].userAddress == address(0) */\n      0xffffffffffffffffffffffffffffffffffffffff\n      and\n      eq\n        /* \"src/contracts/AccountManagement.sol\":4888:4964  require(users[_address].userAddress == address(0), \"Account already exists\") */\n      tag_256\n      jumpi\n      mload(0x40)\n      0x08c379a000000000000000000000000000000000000000000000000000000000\n      dup2\n      mstore\n      0x04\n      add\n      tag_257\n      swap1\n      tag_258\n      jump\t// in\n    tag_257:\n      mload(0x40)\n      dup1\n      swap2\n      sub\n      swap1\n      revert\n    tag_256:\n        /* \"src/contracts/AccountManagement.sol\":5297:5319  RoleMap memory roleMap */\n      0x00\n        /* \"src/contracts/AccountManagement.sol\":5322:5356  RoleMap(false, false, false, true) */\n      mload(0x40)\n      dup1\n      0x80\n      add\n      0x40\n      mstore\n      dup1\n        /* \"src/contracts/AccountManagement.sol\":5330:5335  false */\n      0x00\n        /* \"src/contracts/AccountManagement.sol\":5322:5356  RoleMap(false, false, false, true) */\n      iszero\n      iszero\n      dup2\n      mstore\n      0x20\n      add\n        /* \"src/contracts/AccountManagement.sol\":5337:5342  false */\n      0x00\n        /* \"src/contracts/AccountManagement.sol\":5322:5356  RoleMap(false, false, false, true) */\n      iszero\n      iszero\n      dup2\n      mstore\n      0x20\n      add\n        /* \"src/contracts/AccountManagement.sol\":5344:5349  false */\n      0x00\n        /* \"src/contracts/AccountManagement.sol\":5322:5356  RoleMap(false, false, false, true) */\n      iszero\n      iszero\n      dup2\n      mstore\n      0x20\n      add\n        /* \"src/contracts/AccountManagement.sol\":5351:5355  true */\n      0x01\n        /* \"src/contracts/AccountManagement.sol\":5322:5356  RoleMap(false, false, false, true) */\n      iszero\n      iszero\n      dup2\n      mstore\n      pop\n        /* \"src/contracts/AccountManagement.sol\":5297:5356  RoleMap memory roleMap = RoleMap(false, false, false, true) */\n      swap1\n      pop\n        /* \"src/contracts/AccountManagement.sol\":5367:5383  User memory user */\n      0x00\n        /* \"src/contracts/AccountManagement.sol\":5386:5452  User(_address, _firstName, _lastName, _mailAdress, false, roleMap) */\n      mload(0x40)\n      dup1\n      0xc0\n      add\n      0x40\n      mstore\n      dup1\n        /* \"src/contracts/AccountManagement.sol\":5391:5399  _address */\n      dup9\n        /* \"src/contracts/AccountManagement.sol\":5386:5452  User(_address, _firstName, _lastName, _mailAdress, false, roleMap) */\n      0xffffffffffffffffffffffffffffffffffffffff\n      and\n      dup2\n      mstore\n      0x20\n      add\n        /* \"src/contracts/AccountManagement.sol\":5401:5411  _firstName */\n      dup8\n        /* \"src/contracts/AccountManagement.sol\":5386:5452  User(_address, _firstName, _lastName, _mailAdress, false, roleMap) */\n      dup2\n      mstore\n      0x20\n      add\n        /* \"src/contracts/AccountManagement.sol\":5413:5422  _lastName */\n      dup7\n        /* \"src/contracts/AccountManagement.sol\":5386:5452  User(_address, _firstName, _lastName, _mailAdress, false, roleMap) */\n      dup2\n      mstore\n      0x20\n      add\n        /* \"src/contracts/AccountManagement.sol\":5424:5435  _mailAdress */\n      dup6\n        /* \"src/contracts/AccountManagement.sol\":5386:5452  User(_address, _firstName, _lastName, _mailAdress, false, roleMap) */\n      dup2\n      mstore\n      0x20\n      add\n        /* \"src/contracts/AccountManagement.sol\":5437:5442  false */\n      0x00\n        /* \"src/contracts/AccountManagement.sol\":5386:5452  User(_address, _firstName, _lastName, _mailAdress, false, roleMap) */\n      iszero\n      iszero\n      dup2\n      mstore\n      0x20\n      add\n        /* \"src/contracts/AccountManagement.sol\":5444:5451  roleMap */\n      dup4\n        /* \"src/contracts/AccountManagement.sol\":5386:5452  User(_address, _firstName, _lastName, _mailAdress, false, roleMap) */\n      dup2\n      mstore\n      pop\n        /* \"src/contracts/AccountManagement.sol\":5367:5452  User memory user = User(_address, _firstName, _lastName, _mailAdress, false, roleMap) */\n      swap1\n      pop\n        /* \"src/contracts/AccountManagement.sol\":5481:5485  user */\n      dup1\n        /* \"src/contracts/AccountManagement.sol\":5463:5468  users */\n      0x08\n        /* \"src/contracts/AccountManagement.sol\":5463:5478  users[_address] */\n      0x00\n        /* \"src/contracts/AccountManagement.sol\":5469:5477  _address */\n      dup10\n        /* \"src/contracts/AccountManagement.sol\":5463:5478  users[_address] */\n      0xffffffffffffffffffffffffffffffffffffffff\n      and\n      0xffffffffffffffffffffffffffffffffffffffff\n      and\n      dup2\n      mstore\n      0x20\n      add\n      swap1\n      dup2\n      mstore\n      0x20\n      add\n      0x00\n      keccak256\n        /* \"src/contracts/AccountManagement.sol\":5463:5485  users[_address] = user */\n      0x00\n      dup3\n      add\n      mload\n      dup2\n      0x00\n      add\n      exp(0x0100, 0x00)\n      dup2\n      sload\n      dup2\n      0xffffffffffffffffffffffffffffffffffffffff\n      mul\n      not\n      and\n      swap1\n      dup4\n      0xffffffffffffffffffffffffffffffffffffffff\n      and\n      mul\n      or\n      swap1\n      sstore\n      pop\n      0x20\n      dup3\n      add\n      mload\n      dup2\n      0x01\n      add\n      swap1\n      dup1\n      mload\n      swap1\n      0x20\n      add\n      swap1\n      tag_260\n      swap3\n      swap2\n      swap1\n      tag_261\n      jump\t// in\n    tag_260:\n      pop\n      0x40\n      dup3\n      add\n      mload\n      dup2\n      0x02\n      add\n      swap1\n      dup1\n      mload\n      swap1\n      0x20\n      add\n      swap1\n      tag_262\n      swap3\n      swap2\n      swap1\n      tag_261\n      jump\t// in\n    tag_262:\n      pop\n      0x60\n      dup3\n      add\n      mload\n      dup2\n      0x03\n      add\n      swap1\n      dup1\n      mload\n      swap1\n      0x20\n      add\n      swap1\n      tag_263\n      swap3\n      swap2\n      swap1\n      tag_261\n      jump\t// in\n    tag_263:\n      pop\n      0x80\n      dup3\n      add\n      mload\n      dup2\n      0x04\n      add\n      exp(0x0100, 0x00)\n      dup2\n      sload\n      dup2\n      0xff\n      mul\n      not\n      and\n      swap1\n      dup4\n      iszero\n      iszero\n      mul\n      or\n      swap1\n      sstore\n      pop\n      0xa0\n      dup3\n      add\n      mload\n      dup2\n      0x05\n      add\n      0x00\n      dup3\n      add\n      mload\n      dup2\n      0x00\n      add\n      exp(0x0100, 0x00)\n      dup2\n      sload\n      dup2\n      0xff\n      mul\n      not\n      and\n      swap1\n      dup4\n      iszero\n      iszero\n      mul\n      or\n      swap1\n      sstore\n      pop\n      0x20\n      dup3\n      add\n      mload\n      dup2\n      0x00\n      add\n      exp(0x0100, 0x01)\n      dup2\n      sload\n      dup2\n      0xff\n      mul\n      not\n      and\n      swap1\n      dup4\n      iszero\n      iszero\n      mul\n      or\n      swap1\n      sstore\n      pop\n      0x40\n      dup3\n      add\n      mload\n      dup2\n      0x00\n      add\n      exp(0x0100, 0x02)\n      dup2\n      sload\n      dup2\n      0xff\n      mul\n      not\n      and\n      swap1\n      dup4\n      iszero\n      iszero\n      mul\n      or\n      swap1\n      sstore\n      pop\n      0x60\n      dup3\n      add\n      mload\n      dup2\n      0x00\n      add\n      exp(0x0100, 0x03)\n      dup2\n      sload\n      dup2\n      0xff\n      mul\n      not\n      and\n      swap1\n      dup4\n      iszero\n      iszero\n      mul\n      or\n      swap1\n      sstore\n      pop\n      pop\n      pop\n      swap1\n      pop\n      pop\n        /* \"src/contracts/AccountManagement.sol\":5286:5498  {... */\n      pop\n      pop\n        /* \"src/contracts/AccountManagement.sol\":5131:5498  function createAccount(address _address, string memory _firstName, string memory _lastName, string memory _mailAdress) public onlyIfUserNotExists(_address){... */\n      pop\n      pop\n      pop\n      pop\n      pop\n      jump\t// out\n        /* \"src/contracts/AccountManagement.sol\":13089:13213  function hasGuestRole(address _address) external view returns (bool) {... */\n    tag_94:\n        /* \"src/contracts/AccountManagement.sol\":13152:13156  bool */\n      0x00\n        /* \"src/contracts/AccountManagement.sol\":13176:13205  hasRole(_address, Role.GUEST) */\n      tag_265\n        /* \"src/contracts/AccountManagement.sol\":13184:13192  _address */\n      dup3\n        /* \"src/contracts/AccountManagement.sol\":13194:13204  Role.GUEST */\n      0x03\n        /* \"src/contracts/AccountManagement.sol\":13176:13183  hasRole */\n      tag_102\n        /* \"src/contracts/AccountManagement.sol\":13176:13205  hasRole(_address, Role.GUEST) */\n      jump\t// in\n    tag_265:\n        /* \"src/contracts/AccountManagement.sol\":13169:13205  return hasRole(_address, Role.GUEST) */\n      swap1\n      pop\n        /* \"src/contracts/AccountManagement.sol\":13089:13213  function hasGuestRole(address _address) external view returns (bool) {... */\n      swap2\n      swap1\n      pop\n      jump\t// out\n        /* \"src/contracts/AccountManagement.sol\":12799:12939  function hasCouncilMemberRole(address _address) external view returns (bool) {... */\n    tag_98:\n        /* \"src/contracts/AccountManagement.sol\":12870:12874  bool */\n      0x00\n        /* \"src/contracts/AccountManagement.sol\":12894:12931  hasRole(_address, Role.COUNCILMEMBER) */\n      tag_267\n        /* \"src/contracts/AccountManagement.sol\":12902:12910  _address */\n      dup3\n        /* \"src/contracts/AccountManagement.sol\":12912:12930  Role.COUNCILMEMBER */\n      0x01\n        /* \"src/contracts/AccountManagement.sol\":12894:12901  hasRole */\n      tag_102\n        /* \"src/contracts/AccountManagement.sol\":12894:12931  hasRole(_address, Role.COUNCILMEMBER) */\n      jump\t// in\n    tag_267:\n        /* \"src/contracts/AccountManagement.sol\":12887:12931  return hasRole(_address, Role.COUNCILMEMBER) */\n      swap1\n      pop\n        /* \"src/contracts/AccountManagement.sol\":12799:12939  function hasCouncilMemberRole(address _address) external view returns (bool) {... */\n      swap2\n      swap1\n      pop\n      jump\t// out\n        /* \"src/contracts/AccountManagement.sol\":11949:12519  function hasRole(address _address, Role _role) private view returns (bool){... */\n    tag_102:\n        /* \"src/contracts/AccountManagement.sol\":12018:12022  bool */\n      0x00\n        /* \"src/contracts/AccountManagement.sol\":12034:12050  User memory user */\n      dup1\n        /* \"src/contracts/AccountManagement.sol\":12053:12058  users */\n      0x08\n        /* \"src/contracts/AccountManagement.sol\":12053:12068  users[_address] */\n      0x00\n        /* \"src/contracts/AccountManagement.sol\":12059:12067  _address */\n      dup6\n        /* \"src/contracts/AccountManagement.sol\":12053:12068  users[_address] */\n      0xffffffffffffffffffffffffffffffffffffffff\n      and\n      0xffffffffffffffffffffffffffffffffffffffff\n      and\n      dup2\n      mstore\n      0x20\n      add\n      swap1\n      dup2\n      mstore\n      0x20\n      add\n      0x00\n      keccak256\n        /* \"src/contracts/AccountManagement.sol\":12034:12068  User memory user = users[_address] */\n      mload(0x40)\n      dup1\n      0xc0\n      add\n      0x40\n      mstore\n      swap1\n      dup2\n      0x00\n      dup3\n      add\n      0x00\n      swap1\n      sload\n      swap1\n      0x0100\n      exp\n      swap1\n      div\n      0xffffffffffffffffffffffffffffffffffffffff\n      and\n      0xffffffffffffffffffffffffffffffffffffffff\n      and\n      0xffffffffffffffffffffffffffffffffffffffff\n      and\n      dup2\n      mstore\n      0x20\n      add\n      0x01\n      dup3\n      add\n      dup1\n      sload\n      tag_269\n      swap1\n      tag_105\n      jump\t// in\n    tag_269:\n      dup1\n      0x1f\n      add\n      0x20\n      dup1\n      swap2\n      div\n      mul\n      0x20\n      add\n      mload(0x40)\n      swap1\n      dup2\n      add\n      0x40\n      mstore\n      dup1\n      swap3\n      swap2\n      swap1\n      dup2\n      dup2\n      mstore\n      0x20\n      add\n      dup3\n      dup1\n      sload\n      tag_270\n      swap1\n      tag_105\n      jump\t// in\n    tag_270:\n      dup1\n      iszero\n      tag_271\n      jumpi\n      dup1\n      0x1f\n      lt\n      tag_272\n      jumpi\n      0x0100\n      dup1\n      dup4\n      sload\n      div\n      mul\n      dup4\n      mstore\n      swap2\n      0x20\n      add\n      swap2\n      jump(tag_271)\n    tag_272:\n      dup3\n      add\n      swap2\n      swap1\n      0x00\n      mstore\n      keccak256(0x00, 0x20)\n      swap1\n    tag_273:\n      dup2\n      sload\n      dup2\n      mstore\n      swap1\n      0x01\n      add\n      swap1\n      0x20\n      add\n      dup1\n      dup4\n      gt\n      tag_273\n      jumpi\n      dup3\n      swap1\n      sub\n      0x1f\n      and\n      dup3\n      add\n      swap2\n    tag_271:\n      pop\n      pop\n      pop\n      pop\n      pop\n      dup2\n      mstore\n      0x20\n      add\n      0x02\n      dup3\n      add\n      dup1\n      sload\n      tag_274\n      swap1\n      tag_105\n      jump\t// in\n    tag_274:\n      dup1\n      0x1f\n      add\n      0x20\n      dup1\n      swap2\n      div\n      mul\n      0x20\n      add\n      mload(0x40)\n      swap1\n      dup2\n      add\n      0x40\n      mstore\n      dup1\n      swap3\n      swap2\n      swap1\n      dup2\n      dup2\n      mstore\n      0x20\n      add\n      dup3\n      dup1\n      sload\n      tag_275\n      swap1\n      tag_105\n      jump\t// in\n    tag_275:\n      dup1\n      iszero\n      tag_276\n      jumpi\n      dup1\n      0x1f\n      lt\n      tag_277\n      jumpi\n      0x0100\n      dup1\n      dup4\n      sload\n      div\n      mul\n      dup4\n      mstore\n      swap2\n      0x20\n      add\n      swap2\n      jump(tag_276)\n    tag_277:\n      dup3\n      add\n      swap2\n      swap1\n      0x00\n      mstore\n      keccak256(0x00, 0x20)\n      swap1\n    tag_278:\n      dup2\n      sload\n      dup2\n      mstore\n      swap1\n      0x01\n      add\n      swap1\n      0x20\n      add\n      dup1\n      dup4\n      gt\n      tag_278\n      jumpi\n      dup3\n      swap1\n      sub\n      0x1f\n      and\n      dup3\n      add\n      swap2\n    tag_276:\n      pop\n      pop\n      pop\n      pop\n      pop\n      dup2\n      mstore\n      0x20\n      add\n      0x03\n      dup3\n      add\n      dup1\n      sload\n      tag_279\n      swap1\n      tag_105\n      jump\t// in\n    tag_279:\n      dup1\n      0x1f\n      add\n      0x20\n      dup1\n      swap2\n      div\n      mul\n      0x20\n      add\n      mload(0x40)\n      swap1\n      dup2\n      add\n      0x40\n      mstore\n      dup1\n      swap3\n      swap2\n      swap1\n      dup2\n      dup2\n      mstore\n      0x20\n      add\n      dup3\n      dup1\n      sload\n      tag_280\n      swap1\n      tag_105\n      jump\t// in\n    tag_280:\n      dup1\n      iszero\n      tag_281\n      jumpi\n      dup1\n      0x1f\n      lt\n      tag_282\n      jumpi\n      0x0100\n      dup1\n      dup4\n      sload\n      div\n      mul\n      dup4\n      mstore\n      swap2\n      0x20\n      add\n      swap2\n      jump(tag_281)\n    tag_282:\n      dup3\n      add\n      swap2\n      swap1\n      0x00\n      mstore\n      keccak256(0x00, 0x20)\n      swap1\n    tag_283:\n      dup2\n      sload\n      dup2\n      mstore\n      swap1\n      0x01\n      add\n      swap1\n      0x20\n      add\n      dup1\n      dup4\n      gt\n      tag_283\n      jumpi\n      dup3\n      swap1\n      sub\n      0x1f\n      and\n      dup3\n      add\n      swap2\n    tag_281:\n      pop\n      pop\n      pop\n      pop\n      pop\n      dup2\n      mstore\n      0x20\n      add\n      0x04\n      dup3\n      add\n      0x00\n      swap1\n      sload\n      swap1\n      0x0100\n      exp\n      swap1\n      div\n      0xff\n      and\n      iszero\n      iszero\n      iszero\n      iszero\n      dup2\n      mstore\n      0x20\n      add\n      0x05\n      dup3\n      add\n      mload(0x40)\n      dup1\n      0x80\n      add\n      0x40\n      mstore\n      swap1\n      dup2\n      0x00\n      dup3\n      add\n      0x00\n      swap1\n      sload\n      swap1\n      0x0100\n      exp\n      swap1\n      div\n      0xff\n      and\n      iszero\n      iszero\n      iszero\n      iszero\n      dup2\n      mstore\n      0x20\n      add\n      0x00\n      dup3\n      add\n      0x01\n      swap1\n      sload\n      swap1\n      0x0100\n      exp\n      swap1\n      div\n      0xff\n      and\n      iszero\n      iszero\n      iszero\n      iszero\n      dup2\n      mstore\n      0x20\n      add\n      0x00\n      dup3\n      add\n      0x02\n      swap1\n      sload\n      swap1\n      0x0100\n      exp\n      swap1\n      div\n      0xff\n      and\n      iszero\n      iszero\n      iszero\n      iszero\n      dup2\n      mstore\n      0x20\n      add\n      0x00\n      dup3\n      add\n      0x03\n      swap1\n      sload\n      swap1\n      0x0100\n      exp\n      swap1\n      div\n      0xff\n      and\n      iszero\n      iszero\n      iszero\n      iszero\n      dup2\n      mstore\n      pop\n      pop\n      dup2\n      mstore\n      pop\n      pop\n      swap1\n      pop\n        /* \"src/contracts/AccountManagement.sol\":12079:12101  RoleMap memory roleMap */\n      0x00\n        /* \"src/contracts/AccountManagement.sol\":12104:12108  user */\n      dup2\n        /* \"src/contracts/AccountManagement.sol\":12104:12116  user.roleMap */\n      0xa0\n      add\n      mload\n        /* \"src/contracts/AccountManagement.sol\":12079:12116  RoleMap memory roleMap = user.roleMap */\n      swap1\n      pop\n        /* \"src/contracts/AccountManagement.sol\":12141:12152  Role.LEADER */\n      0x00\n        /* \"src/contracts/AccountManagement.sol\":12132:12152  _role == Role.LEADER */\n      0x03\n      dup2\n      gt\n      iszero\n      tag_284\n      jumpi\n      tag_285\n      tag_286\n      jump\t// in\n    tag_285:\n    tag_284:\n        /* \"src/contracts/AccountManagement.sol\":12132:12137  _role */\n      dup5\n        /* \"src/contracts/AccountManagement.sol\":12132:12152  _role == Role.LEADER */\n      0x03\n      dup2\n      gt\n      iszero\n      tag_287\n      jumpi\n      tag_288\n      tag_286\n      jump\t// in\n    tag_288:\n    tag_287:\n      eq\n        /* \"src/contracts/AccountManagement.sol\":12129:12489  if(_role == Role.LEADER){... */\n      iszero\n      tag_289\n      jumpi\n        /* \"src/contracts/AccountManagement.sol\":12175:12182  roleMap */\n      dup1\n        /* \"src/contracts/AccountManagement.sol\":12175:12191  roleMap.isLeader */\n      0x00\n      add\n      mload\n        /* \"src/contracts/AccountManagement.sol\":12168:12191  return roleMap.isLeader */\n      swap3\n      pop\n      pop\n      pop\n      jump(tag_268)\n        /* \"src/contracts/AccountManagement.sol\":12129:12489  if(_role == Role.LEADER){... */\n    tag_289:\n        /* \"src/contracts/AccountManagement.sol\":12230:12248  Role.COUNCILMEMBER */\n      0x01\n        /* \"src/contracts/AccountManagement.sol\":12221:12248  _role == Role.COUNCILMEMBER */\n      0x03\n      dup2\n      gt\n      iszero\n      tag_291\n      jumpi\n      tag_292\n      tag_286\n      jump\t// in\n    tag_292:\n    tag_291:\n        /* \"src/contracts/AccountManagement.sol\":12221:12226  _role */\n      dup5\n        /* \"src/contracts/AccountManagement.sol\":12221:12248  _role == Role.COUNCILMEMBER */\n      0x03\n      dup2\n      gt\n      iszero\n      tag_293\n      jumpi\n      tag_294\n      tag_286\n      jump\t// in\n    tag_294:\n    tag_293:\n      eq\n        /* \"src/contracts/AccountManagement.sol\":12218:12489  if(_role == Role.COUNCILMEMBER){... */\n      iszero\n      tag_295\n      jumpi\n        /* \"src/contracts/AccountManagement.sol\":12271:12278  roleMap */\n      dup1\n        /* \"src/contracts/AccountManagement.sol\":12271:12294  roleMap.isCouncilMember */\n      0x20\n      add\n      mload\n        /* \"src/contracts/AccountManagement.sol\":12264:12294  return roleMap.isCouncilMember */\n      swap3\n      pop\n      pop\n      pop\n      jump(tag_268)\n        /* \"src/contracts/AccountManagement.sol\":12218:12489  if(_role == Role.COUNCILMEMBER){... */\n    tag_295:\n        /* \"src/contracts/AccountManagement.sol\":12340:12351  Role.MEMBER */\n      0x02\n        /* \"src/contracts/AccountManagement.sol\":12331:12351  _role == Role.MEMBER */\n      0x03\n      dup2\n      gt\n      iszero\n      tag_297\n      jumpi\n      tag_298\n      tag_286\n      jump\t// in\n    tag_298:\n    tag_297:\n        /* \"src/contracts/AccountManagement.sol\":12331:12336  _role */\n      dup5\n        /* \"src/contracts/AccountManagement.sol\":12331:12351  _role == Role.MEMBER */\n      0x03\n      dup2\n      gt\n      iszero\n      tag_299\n      jumpi\n      tag_300\n      tag_286\n      jump\t// in\n    tag_300:\n    tag_299:\n      eq\n        /* \"src/contracts/AccountManagement.sol\":12328:12489  if(_role == Role.MEMBER){... */\n      iszero\n      tag_301\n      jumpi\n        /* \"src/contracts/AccountManagement.sol\":12374:12381  roleMap */\n      dup1\n        /* \"src/contracts/AccountManagement.sol\":12374:12390  roleMap.isMember */\n      0x40\n      add\n      mload\n        /* \"src/contracts/AccountManagement.sol\":12367:12390  return roleMap.isMember */\n      swap3\n      pop\n      pop\n      pop\n      jump(tag_268)\n        /* \"src/contracts/AccountManagement.sol\":12328:12489  if(_role == Role.MEMBER){... */\n    tag_301:\n        /* \"src/contracts/AccountManagement.sol\":12429:12439  Role.GUEST */\n      0x03\n        /* \"src/contracts/AccountManagement.sol\":12420:12439  _role == Role.GUEST */\n      dup1\n      dup2\n      gt\n      iszero\n      tag_303\n      jumpi\n      tag_304\n      tag_286\n      jump\t// in\n    tag_304:\n    tag_303:\n        /* \"src/contracts/AccountManagement.sol\":12420:12425  _role */\n      dup5\n        /* \"src/contracts/AccountManagement.sol\":12420:12439  _role == Role.GUEST */\n      0x03\n      dup2\n      gt\n      iszero\n      tag_305\n      jumpi\n      tag_306\n      tag_286\n      jump\t// in\n    tag_306:\n    tag_305:\n      eq\n        /* \"src/contracts/AccountManagement.sol\":12417:12489  if(_role == Role.GUEST){... */\n      iszero\n      tag_307\n      jumpi\n        /* \"src/contracts/AccountManagement.sol\":12462:12469  roleMap */\n      dup1\n        /* \"src/contracts/AccountManagement.sol\":12462:12477  roleMap.isGuest */\n      0x60\n      add\n      mload\n        /* \"src/contracts/AccountManagement.sol\":12455:12477  return roleMap.isGuest */\n      swap3\n      pop\n      pop\n      pop\n      jump(tag_268)\n        /* \"src/contracts/AccountManagement.sol\":12417:12489  if(_role == Role.GUEST){... */\n    tag_307:\n        /* \"src/contracts/AccountManagement.sol\":12506:12511  false */\n      0x00\n        /* \"src/contracts/AccountManagement.sol\":12499:12511  return false */\n      swap3\n      pop\n      pop\n      pop\n        /* \"src/contracts/AccountManagement.sol\":11949:12519  function hasRole(address _address, Role _role) private view returns (bool){... */\n    tag_268:\n      swap3\n      swap2\n      pop\n      pop\n      jump\t// out\n        /* \"src/contracts/AccountManagement.sol\":8290:8470  function assignLeader(address _sender, address _address) private onlyLeader(_sender) onlyIfUserExists(_address){        ... */\n    tag_142:\n        /* \"src/contracts/AccountManagement.sol\":8366:8373  _sender */\n      dup2\n        /* \"src/contracts/AccountManagement.sol\":4571:4576  owner */\n      0x01\n      0x00\n      swap1\n      sload\n      swap1\n      0x0100\n      exp\n      swap1\n      div\n      0xffffffffffffffffffffffffffffffffffffffff\n      and\n        /* \"src/contracts/AccountManagement.sol\":4560:4576  _sender == owner */\n      0xffffffffffffffffffffffffffffffffffffffff\n      and\n        /* \"src/contracts/AccountManagement.sol\":4560:4567  _sender */\n      dup2\n        /* \"src/contracts/AccountManagement.sol\":4560:4576  _sender == owner */\n      0xffffffffffffffffffffffffffffffffffffffff\n      and\n      eq\n        /* \"src/contracts/AccountManagement.sol\":4560:4607  _sender == owner || this.hasLeaderRole(_sender) */\n      dup1\n      tag_309\n      jumpi\n      pop\n        /* \"src/contracts/AccountManagement.sol\":4580:4584  this */\n      address\n        /* \"src/contracts/AccountManagement.sol\":4580:4598  this.hasLeaderRole */\n      0xffffffffffffffffffffffffffffffffffffffff\n      and\n      0x297027d5\n        /* \"src/contracts/AccountManagement.sol\":4599:4606  _sender */\n      dup3\n        /* \"src/contracts/AccountManagement.sol\":4580:4607  this.hasLeaderRole(_sender) */\n      mload(0x40)\n      dup3\n      0xffffffff\n      and\n      0xe0\n      shl\n      dup2\n      mstore\n      0x04\n      add\n      tag_310\n      swap2\n      swap1\n      tag_71\n      jump\t// in\n    tag_310:\n      0x20\n      mload(0x40)\n      dup1\n      dup4\n      sub\n      dup2\n      dup7\n      gas\n      staticcall\n      iszero\n      dup1\n      iszero\n      tag_312\n      jumpi\n      returndatasize\n      0x00\n      dup1\n      returndatacopy\n      revert(0x00, returndatasize)\n    tag_312:\n      pop\n      pop\n      pop\n      pop\n      mload(0x40)\n      returndatasize\n      not(0x1f)\n      0x1f\n      dup3\n      add\n      and\n      dup3\n      add\n      dup1\n      0x40\n      mstore\n      pop\n      dup2\n      add\n      swap1\n      tag_313\n      swap2\n      swap1\n      tag_201\n      jump\t// in\n    tag_313:\n        /* \"src/contracts/AccountManagement.sol\":4560:4607  _sender == owner || this.hasLeaderRole(_sender) */\n    tag_309:\n        /* \"src/contracts/AccountManagement.sol\":4552:4646  require(_sender == owner || this.hasLeaderRole(_sender), \"Only owner can call this function.\") */\n      tag_314\n      jumpi\n      mload(0x40)\n      0x08c379a000000000000000000000000000000000000000000000000000000000\n      dup2\n      mstore\n      0x04\n      add\n      tag_315\n      swap1\n      tag_316\n      jump\t// in\n    tag_315:\n      mload(0x40)\n      dup1\n      swap2\n      sub\n      swap1\n      revert\n    tag_314:\n        /* \"src/contracts/AccountManagement.sol\":8392:8400  _address */\n      dup2\n        /* \"src/contracts/AccountManagement.sol\":4775:4776  0 */\n      0x00\n        /* \"src/contracts/AccountManagement.sol\":4736:4777  users[_address].userAddress != address(0) */\n      0xffffffffffffffffffffffffffffffffffffffff\n      and\n        /* \"src/contracts/AccountManagement.sol\":4736:4741  users */\n      0x08\n        /* \"src/contracts/AccountManagement.sol\":4736:4751  users[_address] */\n      0x00\n        /* \"src/contracts/AccountManagement.sol\":4742:4750  _address */\n      dup4\n        /* \"src/contracts/AccountManagement.sol\":4736:4751  users[_address] */\n      0xffffffffffffffffffffffffffffffffffffffff\n      and\n      0xffffffffffffffffffffffffffffffffffffffff\n      and\n      dup2\n      mstore\n      0x20\n      add\n      swap1\n      dup2\n      mstore\n      0x20\n      add\n      0x00\n      keccak256\n        /* \"src/contracts/AccountManagement.sol\":4736:4763  users[_address].userAddress */\n      0x00\n      add\n      0x00\n      swap1\n      sload\n      swap1\n      0x0100\n      exp\n      swap1\n      div\n      0xffffffffffffffffffffffffffffffffffffffff\n      and\n        /* \"src/contracts/AccountManagement.sol\":4736:4777  users[_address].userAddress != address(0) */\n      0xffffffffffffffffffffffffffffffffffffffff\n      and\n      eq\n      iszero\n        /* \"src/contracts/AccountManagement.sol\":4728:4803  require(users[_address].userAddress != address(0), \"Account doesn't exist\") */\n      tag_318\n      jumpi\n      mload(0x40)\n      0x08c379a000000000000000000000000000000000000000000000000000000000\n      dup2\n      mstore\n      0x04\n      add\n      tag_319\n      swap1\n      tag_123\n      jump\t// in\n    tag_319:\n      mload(0x40)\n      dup1\n      swap2\n      sub\n      swap1\n      revert\n    tag_318:\n        /* \"src/contracts/AccountManagement.sol\":8420:8462  assignRole(_sender, _address, Role.LEADER) */\n      tag_321\n        /* \"src/contracts/AccountManagement.sol\":8431:8438  _sender */\n      dup5\n        /* \"src/contracts/AccountManagement.sol\":8440:8448  _address */\n      dup5\n        /* \"src/contracts/AccountManagement.sol\":8450:8461  Role.LEADER */\n      0x00\n        /* \"src/contracts/AccountManagement.sol\":8420:8430  assignRole */\n      tag_211\n        /* \"src/contracts/AccountManagement.sol\":8420:8462  assignRole(_sender, _address, Role.LEADER) */\n      jump\t// in\n    tag_321:\n        /* \"src/contracts/AccountManagement.sol\":4657:4658  _ */\n      pop\n        /* \"src/contracts/AccountManagement.sol\":8290:8470  function assignLeader(address _sender, address _address) private onlyLeader(_sender) onlyIfUserExists(_address){        ... */\n      pop\n      pop\n      pop\n      jump\t// out\n        /* \"src/contracts/AccountManagement.sol\":10586:10823  function dismissLeaderBoard(address _sender) private{... */\n    tag_146:\n        /* \"src/contracts/AccountManagement.sol\":10649:10673  address[] memory members */\n      0x00\n        /* \"src/contracts/AccountManagement.sol\":10676:10687  leaderBoard */\n      0x02\n        /* \"src/contracts/AccountManagement.sol\":10676:10695  leaderBoard.members */\n      0x00\n      add\n        /* \"src/contracts/AccountManagement.sol\":10649:10695  address[] memory members = leaderBoard.members */\n      dup1\n      sload\n      dup1\n      0x20\n      mul\n      0x20\n      add\n      mload(0x40)\n      swap1\n      dup2\n      add\n      0x40\n      mstore\n      dup1\n      swap3\n      swap2\n      swap1\n      dup2\n      dup2\n      mstore\n      0x20\n      add\n      dup3\n      dup1\n      sload\n      dup1\n      iszero\n      tag_323\n      jumpi\n      0x20\n      mul\n      dup3\n      add\n      swap2\n      swap1\n      0x00\n      mstore\n      keccak256(0x00, 0x20)\n      swap1\n    tag_324:\n      dup2\n      0x00\n      swap1\n      sload\n      swap1\n      0x0100\n      exp\n      swap1\n      div\n      0xffffffffffffffffffffffffffffffffffffffff\n      and\n      0xffffffffffffffffffffffffffffffffffffffff\n      and\n      dup2\n      mstore\n      0x20\n      add\n      swap1\n      0x01\n      add\n      swap1\n      dup1\n      dup4\n      gt\n      tag_324\n      jumpi\n    tag_323:\n      pop\n      pop\n      pop\n      pop\n      pop\n      swap1\n      pop\n        /* \"src/contracts/AccountManagement.sol\":10710:10716  uint i */\n      0x00\n        /* \"src/contracts/AccountManagement.sol\":10706:10816  for(uint i = 0; i < members.length; i++)... */\n    tag_325:\n        /* \"src/contracts/AccountManagement.sol\":10726:10733  members */\n      dup2\n        /* \"src/contracts/AccountManagement.sol\":10726:10740  members.length */\n      mload\n        /* \"src/contracts/AccountManagement.sol\":10722:10723  i */\n      dup2\n        /* \"src/contracts/AccountManagement.sol\":10722:10740  i < members.length */\n      lt\n        /* \"src/contracts/AccountManagement.sol\":10706:10816  for(uint i = 0; i < members.length; i++)... */\n      iszero\n      tag_326\n      jumpi\n        /* \"src/contracts/AccountManagement.sol\":10771:10804  removeLeader(_sender, members[i]) */\n      tag_328\n        /* \"src/contracts/AccountManagement.sol\":10784:10791  _sender */\n      dup4\n        /* \"src/contracts/AccountManagement.sol\":10793:10800  members */\n      dup4\n        /* \"src/contracts/AccountManagement.sol\":10801:10802  i */\n      dup4\n        /* \"src/contracts/AccountManagement.sol\":10793:10803  members[i] */\n      dup2\n      mload\n      dup2\n      lt\n      tag_329\n      jumpi\n      tag_330\n      tag_141\n      jump\t// in\n    tag_330:\n    tag_329:\n      0x20\n      mul\n      0x20\n      add\n      add\n      mload\n        /* \"src/contracts/AccountManagement.sol\":10771:10783  removeLeader */\n      tag_331\n        /* \"src/contracts/AccountManagement.sol\":10771:10804  removeLeader(_sender, members[i]) */\n      jump\t// in\n    tag_328:\n        /* \"src/contracts/AccountManagement.sol\":10742:10745  i++ */\n      dup1\n      dup1\n      tag_332\n      swap1\n      tag_144\n      jump\t// in\n    tag_332:\n      swap2\n      pop\n      pop\n        /* \"src/contracts/AccountManagement.sol\":10706:10816  for(uint i = 0; i < members.length; i++)... */\n      jump(tag_325)\n    tag_326:\n      pop\n        /* \"src/contracts/AccountManagement.sol\":10638:10823  {... */\n      pop\n        /* \"src/contracts/AccountManagement.sol\":10586:10823  function dismissLeaderBoard(address _sender) private{... */\n      pop\n      jump\t// out\n        /* \"src/contracts/AccountManagement.sol\":8482:8668  function assignCouncilMember(address _sender, address _address) private onlyLeader(_sender) onlyIfUserExists(_address){... */\n    tag_186:\n        /* \"src/contracts/AccountManagement.sol\":8565:8572  _sender */\n      dup2\n        /* \"src/contracts/AccountManagement.sol\":4571:4576  owner */\n      0x01\n      0x00\n      swap1\n      sload\n      swap1\n      0x0100\n      exp\n      swap1\n      div\n      0xffffffffffffffffffffffffffffffffffffffff\n      and\n        /* \"src/contracts/AccountManagement.sol\":4560:4576  _sender == owner */\n      0xffffffffffffffffffffffffffffffffffffffff\n      and\n        /* \"src/contracts/AccountManagement.sol\":4560:4567  _sender */\n      dup2\n        /* \"src/contracts/AccountManagement.sol\":4560:4576  _sender == owner */\n      0xffffffffffffffffffffffffffffffffffffffff\n      and\n      eq\n        /* \"src/contracts/AccountManagement.sol\":4560:4607  _sender == owner || this.hasLeaderRole(_sender) */\n      dup1\n      tag_334\n      jumpi\n      pop\n        /* \"src/contracts/AccountManagement.sol\":4580:4584  this */\n      address\n        /* \"src/contracts/AccountManagement.sol\":4580:4598  this.hasLeaderRole */\n      0xffffffffffffffffffffffffffffffffffffffff\n      and\n      0x297027d5\n        /* \"src/contracts/AccountManagement.sol\":4599:4606  _sender */\n      dup3\n        /* \"src/contracts/AccountManagement.sol\":4580:4607  this.hasLeaderRole(_sender) */\n      mload(0x40)\n      dup3\n      0xffffffff\n      and\n      0xe0\n      shl\n      dup2\n      mstore\n      0x04\n      add\n      tag_335\n      swap2\n      swap1\n      tag_71\n      jump\t// in\n    tag_335:\n      0x20\n      mload(0x40)\n      dup1\n      dup4\n      sub\n      dup2\n      dup7\n      gas\n      staticcall\n      iszero\n      dup1\n      iszero\n      tag_337\n      jumpi\n      returndatasize\n      0x00\n      dup1\n      returndatacopy\n      revert(0x00, returndatasize)\n    tag_337:\n      pop\n      pop\n      pop\n      pop\n      mload(0x40)\n      returndatasize\n      not(0x1f)\n      0x1f\n      dup3\n      add\n      and\n      dup3\n      add\n      dup1\n      0x40\n      mstore\n      pop\n      dup2\n      add\n      swap1\n      tag_338\n      swap2\n      swap1\n      tag_201\n      jump\t// in\n    tag_338:\n        /* \"src/contracts/AccountManagement.sol\":4560:4607  _sender == owner || this.hasLeaderRole(_sender) */\n    tag_334:\n        /* \"src/contracts/AccountManagement.sol\":4552:4646  require(_sender == owner || this.hasLeaderRole(_sender), \"Only owner can call this function.\") */\n      tag_339\n      jumpi\n      mload(0x40)\n      0x08c379a000000000000000000000000000000000000000000000000000000000\n      dup2\n      mstore\n      0x04\n      add\n      tag_340\n      swap1\n      tag_316\n      jump\t// in\n    tag_340:\n      mload(0x40)\n      dup1\n      swap2\n      sub\n      swap1\n      revert\n    tag_339:\n        /* \"src/contracts/AccountManagement.sol\":8591:8599  _address */\n      dup2\n        /* \"src/contracts/AccountManagement.sol\":4775:4776  0 */\n      0x00\n        /* \"src/contracts/AccountManagement.sol\":4736:4777  users[_address].userAddress != address(0) */\n      0xffffffffffffffffffffffffffffffffffffffff\n      and\n        /* \"src/contracts/AccountManagement.sol\":4736:4741  users */\n      0x08\n        /* \"src/contracts/AccountManagement.sol\":4736:4751  users[_address] */\n      0x00\n        /* \"src/contracts/AccountManagement.sol\":4742:4750  _address */\n      dup4\n        /* \"src/contracts/AccountManagement.sol\":4736:4751  users[_address] */\n      0xffffffffffffffffffffffffffffffffffffffff\n      and\n      0xffffffffffffffffffffffffffffffffffffffff\n      and\n      dup2\n      mstore\n      0x20\n      add\n      swap1\n      dup2\n      mstore\n      0x20\n      add\n      0x00\n      keccak256\n        /* \"src/contracts/AccountManagement.sol\":4736:4763  users[_address].userAddress */\n      0x00\n      add\n      0x00\n      swap1\n      sload\n      swap1\n      0x0100\n      exp\n      swap1\n      div\n      0xffffffffffffffffffffffffffffffffffffffff\n      and\n        /* \"src/contracts/AccountManagement.sol\":4736:4777  users[_address].userAddress != address(0) */\n      0xffffffffffffffffffffffffffffffffffffffff\n      and\n      eq\n      iszero\n        /* \"src/contracts/AccountManagement.sol\":4728:4803  require(users[_address].userAddress != address(0), \"Account doesn't exist\") */\n      tag_342\n      jumpi\n      mload(0x40)\n      0x08c379a000000000000000000000000000000000000000000000000000000000\n      dup2\n      mstore\n      0x04\n      add\n      tag_343\n      swap1\n      tag_123\n      jump\t// in\n    tag_343:\n      mload(0x40)\n      dup1\n      swap2\n      sub\n      swap1\n      revert\n    tag_342:\n        /* \"src/contracts/AccountManagement.sol\":8611:8660  assignRole(_sender, _address, Role.COUNCILMEMBER) */\n      tag_345\n        /* \"src/contracts/AccountManagement.sol\":8622:8629  _sender */\n      dup5\n        /* \"src/contracts/AccountManagement.sol\":8631:8639  _address */\n      dup5\n        /* \"src/contracts/AccountManagement.sol\":8641:8659  Role.COUNCILMEMBER */\n      0x01\n        /* \"src/contracts/AccountManagement.sol\":8611:8621  assignRole */\n      tag_211\n        /* \"src/contracts/AccountManagement.sol\":8611:8660  assignRole(_sender, _address, Role.COUNCILMEMBER) */\n      jump\t// in\n    tag_345:\n        /* \"src/contracts/AccountManagement.sol\":4657:4658  _ */\n      pop\n        /* \"src/contracts/AccountManagement.sol\":8482:8668  function assignCouncilMember(address _sender, address _address) private onlyLeader(_sender) onlyIfUserExists(_address){... */\n      pop\n      pop\n      pop\n      jump\t// out\n        /* \"src/contracts/AccountManagement.sol\":11569:11805  function dismissCouncil(address _sender) private{... */\n    tag_189:\n        /* \"src/contracts/AccountManagement.sol\":11628:11652  address[] memory members */\n      0x00\n        /* \"src/contracts/AccountManagement.sol\":11655:11662  council */\n      0x05\n        /* \"src/contracts/AccountManagement.sol\":11655:11670  council.members */\n      0x00\n      add\n        /* \"src/contracts/AccountManagement.sol\":11628:11670  address[] memory members = council.members */\n      dup1\n      sload\n      dup1\n      0x20\n      mul\n      0x20\n      add\n      mload(0x40)\n      swap1\n      dup2\n      add\n      0x40\n      mstore\n      dup1\n      swap3\n      swap2\n      swap1\n      dup2\n      dup2\n      mstore\n      0x20\n      add\n      dup3\n      dup1\n      sload\n      dup1\n      iszero\n      tag_347\n      jumpi\n      0x20\n      mul\n      dup3\n      add\n      swap2\n      swap1\n      0x00\n      mstore\n      keccak256(0x00, 0x20)\n      swap1\n    tag_348:\n      dup2\n      0x00\n      swap1\n      sload\n      swap1\n      0x0100\n      exp\n      swap1\n      div\n      0xffffffffffffffffffffffffffffffffffffffff\n      and\n      0xffffffffffffffffffffffffffffffffffffffff\n      and\n      dup2\n      mstore\n      0x20\n      add\n      swap1\n      0x01\n      add\n      swap1\n      dup1\n      dup4\n      gt\n      tag_348\n      jumpi\n    tag_347:\n      pop\n      pop\n      pop\n      pop\n      pop\n      swap1\n      pop\n        /* \"src/contracts/AccountManagement.sol\":11685:11691  uint i */\n      0x00\n        /* \"src/contracts/AccountManagement.sol\":11681:11798  for(uint i = 0; i < members.length; i++)... */\n    tag_349:\n        /* \"src/contracts/AccountManagement.sol\":11701:11708  members */\n      dup2\n        /* \"src/contracts/AccountManagement.sol\":11701:11715  members.length */\n      mload\n        /* \"src/contracts/AccountManagement.sol\":11697:11698  i */\n      dup2\n        /* \"src/contracts/AccountManagement.sol\":11697:11715  i < members.length */\n      lt\n        /* \"src/contracts/AccountManagement.sol\":11681:11798  for(uint i = 0; i < members.length; i++)... */\n      iszero\n      tag_350\n      jumpi\n        /* \"src/contracts/AccountManagement.sol\":11746:11786  removeCouncilMember(_sender, members[i]) */\n      tag_352\n        /* \"src/contracts/AccountManagement.sol\":11766:11773  _sender */\n      dup4\n        /* \"src/contracts/AccountManagement.sol\":11775:11782  members */\n      dup4\n        /* \"src/contracts/AccountManagement.sol\":11783:11784  i */\n      dup4\n        /* \"src/contracts/AccountManagement.sol\":11775:11785  members[i] */\n      dup2\n      mload\n      dup2\n      lt\n      tag_353\n      jumpi\n      tag_354\n      tag_141\n      jump\t// in\n    tag_354:\n    tag_353:\n      0x20\n      mul\n      0x20\n      add\n      add\n      mload\n        /* \"src/contracts/AccountManagement.sol\":11746:11765  removeCouncilMember */\n      tag_355\n        /* \"src/contracts/AccountManagement.sol\":11746:11786  removeCouncilMember(_sender, members[i]) */\n      jump\t// in\n    tag_352:\n        /* \"src/contracts/AccountManagement.sol\":11717:11720  i++ */\n      dup1\n      dup1\n      tag_356\n      swap1\n      tag_144\n      jump\t// in\n    tag_356:\n      swap2\n      pop\n      pop\n        /* \"src/contracts/AccountManagement.sol\":11681:11798  for(uint i = 0; i < members.length; i++)... */\n      jump(tag_349)\n    tag_350:\n      pop\n        /* \"src/contracts/AccountManagement.sol\":11617:11805  {... */\n      pop\n        /* \"src/contracts/AccountManagement.sol\":11569:11805  function dismissCouncil(address _sender) private{... */\n      pop\n      jump\t// out\n        /* \"src/contracts/AccountManagement.sol\":6956:7601  function assignRole(address _sender, address _address, Role _role) private onlyLeader(_sender) onlyIfUserExists(_address){... */\n    tag_211:\n        /* \"src/contracts/AccountManagement.sol\":7042:7049  _sender */\n      dup3\n        /* \"src/contracts/AccountManagement.sol\":4571:4576  owner */\n      0x01\n      0x00\n      swap1\n      sload\n      swap1\n      0x0100\n      exp\n      swap1\n      div\n      0xffffffffffffffffffffffffffffffffffffffff\n      and\n        /* \"src/contracts/AccountManagement.sol\":4560:4576  _sender == owner */\n      0xffffffffffffffffffffffffffffffffffffffff\n      and\n        /* \"src/contracts/AccountManagement.sol\":4560:4567  _sender */\n      dup2\n        /* \"src/contracts/AccountManagement.sol\":4560:4576  _sender == owner */\n      0xffffffffffffffffffffffffffffffffffffffff\n      and\n      eq\n        /* \"src/contracts/AccountManagement.sol\":4560:4607  _sender == owner || this.hasLeaderRole(_sender) */\n      dup1\n      tag_358\n      jumpi\n      pop\n        /* \"src/contracts/AccountManagement.sol\":4580:4584  this */\n      address\n        /* \"src/contracts/AccountManagement.sol\":4580:4598  this.hasLeaderRole */\n      0xffffffffffffffffffffffffffffffffffffffff\n      and\n      0x297027d5\n        /* \"src/contracts/AccountManagement.sol\":4599:4606  _sender */\n      dup3\n        /* \"src/contracts/AccountManagement.sol\":4580:4607  this.hasLeaderRole(_sender) */\n      mload(0x40)\n      dup3\n      0xffffffff\n      and\n      0xe0\n      shl\n      dup2\n      mstore\n      0x04\n      add\n      tag_359\n      swap2\n      swap1\n      tag_71\n      jump\t// in\n    tag_359:\n      0x20\n      mload(0x40)\n      dup1\n      dup4\n      sub\n      dup2\n      dup7\n      gas\n      staticcall\n      iszero\n      dup1\n      iszero\n      tag_361\n      jumpi\n      returndatasize\n      0x00\n      dup1\n      returndatacopy\n      revert(0x00, returndatasize)\n    tag_361:\n      pop\n      pop\n      pop\n      pop\n      mload(0x40)\n      returndatasize\n      not(0x1f)\n      0x1f\n      dup3\n      add\n      and\n      dup3\n      add\n      dup1\n      0x40\n      mstore\n      pop\n      dup2\n      add\n      swap1\n      tag_362\n      swap2\n      swap1\n      tag_201\n      jump\t// in\n    tag_362:\n        /* \"src/contracts/AccountManagement.sol\":4560:4607  _sender == owner || this.hasLeaderRole(_sender) */\n    tag_358:\n        /* \"src/contracts/AccountManagement.sol\":4552:4646  require(_sender == owner || this.hasLeaderRole(_sender), \"Only owner can call this function.\") */\n      tag_363\n      jumpi\n      mload(0x40)\n      0x08c379a000000000000000000000000000000000000000000000000000000000\n      dup2\n      mstore\n      0x04\n      add\n      tag_364\n      swap1\n      tag_316\n      jump\t// in\n    tag_364:\n      mload(0x40)\n      dup1\n      swap2\n      sub\n      swap1\n      revert\n    tag_363:\n        /* \"src/contracts/AccountManagement.sol\":7068:7076  _address */\n      dup3\n        /* \"src/contracts/AccountManagement.sol\":4775:4776  0 */\n      0x00\n        /* \"src/contracts/AccountManagement.sol\":4736:4777  users[_address].userAddress != address(0) */\n      0xffffffffffffffffffffffffffffffffffffffff\n      and\n        /* \"src/contracts/AccountManagement.sol\":4736:4741  users */\n      0x08\n        /* \"src/contracts/AccountManagement.sol\":4736:4751  users[_address] */\n      0x00\n        /* \"src/contracts/AccountManagement.sol\":4742:4750  _address */\n      dup4\n        /* \"src/contracts/AccountManagement.sol\":4736:4751  users[_address] */\n      0xffffffffffffffffffffffffffffffffffffffff\n      and\n      0xffffffffffffffffffffffffffffffffffffffff\n      and\n      dup2\n      mstore\n      0x20\n      add\n      swap1\n      dup2\n      mstore\n      0x20\n      add\n      0x00\n      keccak256\n        /* \"src/contracts/AccountManagement.sol\":4736:4763  users[_address].userAddress */\n      0x00\n      add\n      0x00\n      swap1\n      sload\n      swap1\n      0x0100\n      exp\n      swap1\n      div\n      0xffffffffffffffffffffffffffffffffffffffff\n      and\n        /* \"src/contracts/AccountManagement.sol\":4736:4777  users[_address].userAddress != address(0) */\n      0xffffffffffffffffffffffffffffffffffffffff\n      and\n      eq\n      iszero\n        /* \"src/contracts/AccountManagement.sol\":4728:4803  require(users[_address].userAddress != address(0), \"Account doesn't exist\") */\n      tag_366\n      jumpi\n      mload(0x40)\n      0x08c379a000000000000000000000000000000000000000000000000000000000\n      dup2\n      mstore\n      0x04\n      add\n      tag_367\n      swap1\n      tag_123\n      jump\t// in\n    tag_367:\n      mload(0x40)\n      dup1\n      swap2\n      sub\n      swap1\n      revert\n    tag_366:\n        /* \"src/contracts/AccountManagement.sol\":7125:7142  User storage user */\n      0x00\n        /* \"src/contracts/AccountManagement.sol\":7145:7150  users */\n      0x08\n        /* \"src/contracts/AccountManagement.sol\":7145:7160  users[_address] */\n      0x00\n        /* \"src/contracts/AccountManagement.sol\":7151:7159  _address */\n      dup7\n        /* \"src/contracts/AccountManagement.sol\":7145:7160  users[_address] */\n      0xffffffffffffffffffffffffffffffffffffffff\n      and\n      0xffffffffffffffffffffffffffffffffffffffff\n      and\n      dup2\n      mstore\n      0x20\n      add\n      swap1\n      dup2\n      mstore\n      0x20\n      add\n      0x00\n      keccak256\n        /* \"src/contracts/AccountManagement.sol\":7125:7160  User storage user = users[_address] */\n      swap1\n      pop\n        /* \"src/contracts/AccountManagement.sol\":7171:7194  RoleMap storage roleMap */\n      0x00\n        /* \"src/contracts/AccountManagement.sol\":7197:7201  user */\n      dup2\n        /* \"src/contracts/AccountManagement.sol\":7197:7209  user.roleMap */\n      0x05\n      add\n        /* \"src/contracts/AccountManagement.sol\":7171:7209  RoleMap storage roleMap = user.roleMap */\n      swap1\n      pop\n        /* \"src/contracts/AccountManagement.sol\":7234:7245  Role.LEADER */\n      0x00\n        /* \"src/contracts/AccountManagement.sol\":7225:7245  _role == Role.LEADER */\n      0x03\n      dup2\n      gt\n      iszero\n      tag_369\n      jumpi\n      tag_370\n      tag_286\n      jump\t// in\n    tag_370:\n    tag_369:\n        /* \"src/contracts/AccountManagement.sol\":7225:7230  _role */\n      dup6\n        /* \"src/contracts/AccountManagement.sol\":7225:7245  _role == Role.LEADER */\n      0x03\n      dup2\n      gt\n      iszero\n      tag_371\n      jumpi\n      tag_372\n      tag_286\n      jump\t// in\n    tag_372:\n    tag_371:\n      eq\n        /* \"src/contracts/AccountManagement.sol\":7222:7594  if(_role == Role.LEADER){            ... */\n      iszero\n      tag_373\n      jumpi\n        /* \"src/contracts/AccountManagement.sol\":7292:7296  true */\n      0x01\n        /* \"src/contracts/AccountManagement.sol\":7273:7280  roleMap */\n      dup2\n        /* \"src/contracts/AccountManagement.sol\":7273:7289  roleMap.isLeader */\n      0x00\n      add\n      0x00\n        /* \"src/contracts/AccountManagement.sol\":7273:7296  roleMap.isLeader = true */\n      0x0100\n      exp\n      dup2\n      sload\n      dup2\n      0xff\n      mul\n      not\n      and\n      swap1\n      dup4\n      iszero\n      iszero\n      mul\n      or\n      swap1\n      sstore\n      pop\n        /* \"src/contracts/AccountManagement.sol\":7222:7594  if(_role == Role.LEADER){            ... */\n      jump(tag_374)\n    tag_373:\n        /* \"src/contracts/AccountManagement.sol\":7335:7353  Role.COUNCILMEMBER */\n      0x01\n        /* \"src/contracts/AccountManagement.sol\":7326:7353  _role == Role.COUNCILMEMBER */\n      0x03\n      dup2\n      gt\n      iszero\n      tag_375\n      jumpi\n      tag_376\n      tag_286\n      jump\t// in\n    tag_376:\n    tag_375:\n        /* \"src/contracts/AccountManagement.sol\":7326:7331  _role */\n      dup6\n        /* \"src/contracts/AccountManagement.sol\":7326:7353  _role == Role.COUNCILMEMBER */\n      0x03\n      dup2\n      gt\n      iszero\n      tag_377\n      jumpi\n      tag_378\n      tag_286\n      jump\t// in\n    tag_378:\n    tag_377:\n      eq\n        /* \"src/contracts/AccountManagement.sol\":7323:7594  if(_role == Role.COUNCILMEMBER){... */\n      iszero\n      tag_379\n      jumpi\n        /* \"src/contracts/AccountManagement.sol\":7395:7399  true */\n      0x01\n        /* \"src/contracts/AccountManagement.sol\":7369:7376  roleMap */\n      dup2\n        /* \"src/contracts/AccountManagement.sol\":7369:7392  roleMap.isCouncilMember */\n      0x00\n      add\n      0x01\n        /* \"src/contracts/AccountManagement.sol\":7369:7399  roleMap.isCouncilMember = true */\n      0x0100\n      exp\n      dup2\n      sload\n      dup2\n      0xff\n      mul\n      not\n      and\n      swap1\n      dup4\n      iszero\n      iszero\n      mul\n      or\n      swap1\n      sstore\n      pop\n        /* \"src/contracts/AccountManagement.sol\":7323:7594  if(_role == Role.COUNCILMEMBER){... */\n      jump(tag_380)\n    tag_379:\n        /* \"src/contracts/AccountManagement.sol\":7445:7456  Role.MEMBER */\n      0x02\n        /* \"src/contracts/AccountManagement.sol\":7436:7456  _role == Role.MEMBER */\n      0x03\n      dup2\n      gt\n      iszero\n      tag_381\n      jumpi\n      tag_382\n      tag_286\n      jump\t// in\n    tag_382:\n    tag_381:\n        /* \"src/contracts/AccountManagement.sol\":7436:7441  _role */\n      dup6\n        /* \"src/contracts/AccountManagement.sol\":7436:7456  _role == Role.MEMBER */\n      0x03\n      dup2\n      gt\n      iszero\n      tag_383\n      jumpi\n      tag_384\n      tag_286\n      jump\t// in\n    tag_384:\n    tag_383:\n      eq\n        /* \"src/contracts/AccountManagement.sol\":7433:7594  if(_role == Role.MEMBER){... */\n      iszero\n      tag_385\n      jumpi\n        /* \"src/contracts/AccountManagement.sol\":7491:7495  true */\n      0x01\n        /* \"src/contracts/AccountManagement.sol\":7472:7479  roleMap */\n      dup2\n        /* \"src/contracts/AccountManagement.sol\":7472:7488  roleMap.isMember */\n      0x00\n      add\n      0x02\n        /* \"src/contracts/AccountManagement.sol\":7472:7495  roleMap.isMember = true */\n      0x0100\n      exp\n      dup2\n      sload\n      dup2\n      0xff\n      mul\n      not\n      and\n      swap1\n      dup4\n      iszero\n      iszero\n      mul\n      or\n      swap1\n      sstore\n      pop\n        /* \"src/contracts/AccountManagement.sol\":7433:7594  if(_role == Role.MEMBER){... */\n      jump(tag_386)\n    tag_385:\n        /* \"src/contracts/AccountManagement.sol\":7534:7544  Role.GUEST */\n      0x03\n        /* \"src/contracts/AccountManagement.sol\":7525:7544  _role == Role.GUEST */\n      dup1\n      dup2\n      gt\n      iszero\n      tag_387\n      jumpi\n      tag_388\n      tag_286\n      jump\t// in\n    tag_388:\n    tag_387:\n        /* \"src/contracts/AccountManagement.sol\":7525:7530  _role */\n      dup6\n        /* \"src/contracts/AccountManagement.sol\":7525:7544  _role == Role.GUEST */\n      0x03\n      dup2\n      gt\n      iszero\n      tag_389\n      jumpi\n      tag_390\n      tag_286\n      jump\t// in\n    tag_390:\n    tag_389:\n      eq\n        /* \"src/contracts/AccountManagement.sol\":7522:7594  if(_role == Role.GUEST){... */\n      iszero\n      tag_391\n      jumpi\n        /* \"src/contracts/AccountManagement.sol\":7578:7582  true */\n      0x01\n        /* \"src/contracts/AccountManagement.sol\":7560:7567  roleMap */\n      dup2\n        /* \"src/contracts/AccountManagement.sol\":7560:7575  roleMap.isGuest */\n      0x00\n      add\n      0x03\n        /* \"src/contracts/AccountManagement.sol\":7560:7582  roleMap.isGuest = true */\n      0x0100\n      exp\n      dup2\n      sload\n      dup2\n      0xff\n      mul\n      not\n      and\n      swap1\n      dup4\n      iszero\n      iszero\n      mul\n      or\n      swap1\n      sstore\n      pop\n        /* \"src/contracts/AccountManagement.sol\":7522:7594  if(_role == Role.GUEST){... */\n    tag_391:\n        /* \"src/contracts/AccountManagement.sol\":7433:7594  if(_role == Role.MEMBER){... */\n    tag_386:\n        /* \"src/contracts/AccountManagement.sol\":7323:7594  if(_role == Role.COUNCILMEMBER){... */\n    tag_380:\n        /* \"src/contracts/AccountManagement.sol\":7222:7594  if(_role == Role.LEADER){            ... */\n    tag_374:\n        /* \"src/contracts/AccountManagement.sol\":7077:7601  {... */\n      pop\n      pop\n        /* \"src/contracts/AccountManagement.sol\":4657:4658  _ */\n      pop\n        /* \"src/contracts/AccountManagement.sol\":6956:7601  function assignRole(address _sender, address _address, Role _role) private onlyLeader(_sender) onlyIfUserExists(_address){... */\n      pop\n      pop\n      pop\n      pop\n      jump\t// out\n        /* \"src/contracts/AccountManagement.sol\":7609:8258  function removeRole(address _sender, address _address, Role _role) private onlyLeader(_sender) onlyIfUserExists(_address){... */\n    tag_213:\n        /* \"src/contracts/AccountManagement.sol\":7695:7702  _sender */\n      dup3\n        /* \"src/contracts/AccountManagement.sol\":4571:4576  owner */\n      0x01\n      0x00\n      swap1\n      sload\n      swap1\n      0x0100\n      exp\n      swap1\n      div\n      0xffffffffffffffffffffffffffffffffffffffff\n      and\n        /* \"src/contracts/AccountManagement.sol\":4560:4576  _sender == owner */\n      0xffffffffffffffffffffffffffffffffffffffff\n      and\n        /* \"src/contracts/AccountManagement.sol\":4560:4567  _sender */\n      dup2\n        /* \"src/contracts/AccountManagement.sol\":4560:4576  _sender == owner */\n      0xffffffffffffffffffffffffffffffffffffffff\n      and\n      eq\n        /* \"src/contracts/AccountManagement.sol\":4560:4607  _sender == owner || this.hasLeaderRole(_sender) */\n      dup1\n      tag_393\n      jumpi\n      pop\n        /* \"src/contracts/AccountManagement.sol\":4580:4584  this */\n      address\n        /* \"src/contracts/AccountManagement.sol\":4580:4598  this.hasLeaderRole */\n      0xffffffffffffffffffffffffffffffffffffffff\n      and\n      0x297027d5\n        /* \"src/contracts/AccountManagement.sol\":4599:4606  _sender */\n      dup3\n        /* \"src/contracts/AccountManagement.sol\":4580:4607  this.hasLeaderRole(_sender) */\n      mload(0x40)\n      dup3\n      0xffffffff\n      and\n      0xe0\n      shl\n      dup2\n      mstore\n      0x04\n      add\n      tag_394\n      swap2\n      swap1\n      tag_71\n      jump\t// in\n    tag_394:\n      0x20\n      mload(0x40)\n      dup1\n      dup4\n      sub\n      dup2\n      dup7\n      gas\n      staticcall\n      iszero\n      dup1\n      iszero\n      tag_396\n      jumpi\n      returndatasize\n      0x00\n      dup1\n      returndatacopy\n      revert(0x00, returndatasize)\n    tag_396:\n      pop\n      pop\n      pop\n      pop\n      mload(0x40)\n      returndatasize\n      not(0x1f)\n      0x1f\n      dup3\n      add\n      and\n      dup3\n      add\n      dup1\n      0x40\n      mstore\n      pop\n      dup2\n      add\n      swap1\n      tag_397\n      swap2\n      swap1\n      tag_201\n      jump\t// in\n    tag_397:\n        /* \"src/contracts/AccountManagement.sol\":4560:4607  _sender == owner || this.hasLeaderRole(_sender) */\n    tag_393:\n        /* \"src/contracts/AccountManagement.sol\":4552:4646  require(_sender == owner || this.hasLeaderRole(_sender), \"Only owner can call this function.\") */\n      tag_398\n      jumpi\n      mload(0x40)\n      0x08c379a000000000000000000000000000000000000000000000000000000000\n      dup2\n      mstore\n      0x04\n      add\n      tag_399\n      swap1\n      tag_316\n      jump\t// in\n    tag_399:\n      mload(0x40)\n      dup1\n      swap2\n      sub\n      swap1\n      revert\n    tag_398:\n        /* \"src/contracts/AccountManagement.sol\":7721:7729  _address */\n      dup3\n        /* \"src/contracts/AccountManagement.sol\":4775:4776  0 */\n      0x00\n        /* \"src/contracts/AccountManagement.sol\":4736:4777  users[_address].userAddress != address(0) */\n      0xffffffffffffffffffffffffffffffffffffffff\n      and\n        /* \"src/contracts/AccountManagement.sol\":4736:4741  users */\n      0x08\n        /* \"src/contracts/AccountManagement.sol\":4736:4751  users[_address] */\n      0x00\n        /* \"src/contracts/AccountManagement.sol\":4742:4750  _address */\n      dup4\n        /* \"src/contracts/AccountManagement.sol\":4736:4751  users[_address] */\n      0xffffffffffffffffffffffffffffffffffffffff\n      and\n      0xffffffffffffffffffffffffffffffffffffffff\n      and\n      dup2\n      mstore\n      0x20\n      add\n      swap1\n      dup2\n      mstore\n      0x20\n      add\n      0x00\n      keccak256\n        /* \"src/contracts/AccountManagement.sol\":4736:4763  users[_address].userAddress */\n      0x00\n      add\n      0x00\n      swap1\n      sload\n      swap1\n      0x0100\n      exp\n      swap1\n      div\n      0xffffffffffffffffffffffffffffffffffffffff\n      and\n        /* \"src/contracts/AccountManagement.sol\":4736:4777  users[_address].userAddress != address(0) */\n      0xffffffffffffffffffffffffffffffffffffffff\n      and\n      eq\n      iszero\n        /* \"src/contracts/AccountManagement.sol\":4728:4803  require(users[_address].userAddress != address(0), \"Account doesn't exist\") */\n      tag_401\n      jumpi\n      mload(0x40)\n      0x08c379a000000000000000000000000000000000000000000000000000000000\n      dup2\n      mstore\n      0x04\n      add\n      tag_402\n      swap1\n      tag_123\n      jump\t// in\n    tag_402:\n      mload(0x40)\n      dup1\n      swap2\n      sub\n      swap1\n      revert\n    tag_401:\n        /* \"src/contracts/AccountManagement.sol\":7780:7797  User storage user */\n      0x00\n        /* \"src/contracts/AccountManagement.sol\":7800:7805  users */\n      0x08\n        /* \"src/contracts/AccountManagement.sol\":7800:7815  users[_address] */\n      0x00\n        /* \"src/contracts/AccountManagement.sol\":7806:7814  _address */\n      dup7\n        /* \"src/contracts/AccountManagement.sol\":7800:7815  users[_address] */\n      0xffffffffffffffffffffffffffffffffffffffff\n      and\n      0xffffffffffffffffffffffffffffffffffffffff\n      and\n      dup2\n      mstore\n      0x20\n      add\n      swap1\n      dup2\n      mstore\n      0x20\n      add\n      0x00\n      keccak256\n        /* \"src/contracts/AccountManagement.sol\":7780:7815  User storage user = users[_address] */\n      swap1\n      pop\n        /* \"src/contracts/AccountManagement.sol\":7826:7849  RoleMap storage roleMap */\n      0x00\n        /* \"src/contracts/AccountManagement.sol\":7852:7856  user */\n      dup2\n        /* \"src/contracts/AccountManagement.sol\":7852:7864  user.roleMap */\n      0x05\n      add\n        /* \"src/contracts/AccountManagement.sol\":7826:7864  RoleMap storage roleMap = user.roleMap */\n      swap1\n      pop\n        /* \"src/contracts/AccountManagement.sol\":7889:7900  Role.LEADER */\n      0x00\n        /* \"src/contracts/AccountManagement.sol\":7880:7900  _role == Role.LEADER */\n      0x03\n      dup2\n      gt\n      iszero\n      tag_404\n      jumpi\n      tag_405\n      tag_286\n      jump\t// in\n    tag_405:\n    tag_404:\n        /* \"src/contracts/AccountManagement.sol\":7880:7885  _role */\n      dup6\n        /* \"src/contracts/AccountManagement.sol\":7880:7900  _role == Role.LEADER */\n      0x03\n      dup2\n      gt\n      iszero\n      tag_406\n      jumpi\n      tag_407\n      tag_286\n      jump\t// in\n    tag_407:\n    tag_406:\n      eq\n        /* \"src/contracts/AccountManagement.sol\":7877:8251  if(_role == Role.LEADER){... */\n      iszero\n      tag_408\n      jumpi\n        /* \"src/contracts/AccountManagement.sol\":7935:7940  false */\n      0x00\n        /* \"src/contracts/AccountManagement.sol\":7916:7923  roleMap */\n      dup2\n        /* \"src/contracts/AccountManagement.sol\":7916:7932  roleMap.isLeader */\n      0x00\n      add\n      0x00\n        /* \"src/contracts/AccountManagement.sol\":7916:7940  roleMap.isLeader = false */\n      0x0100\n      exp\n      dup2\n      sload\n      dup2\n      0xff\n      mul\n      not\n      and\n      swap1\n      dup4\n      iszero\n      iszero\n      mul\n      or\n      swap1\n      sstore\n      pop\n        /* \"src/contracts/AccountManagement.sol\":7877:8251  if(_role == Role.LEADER){... */\n      jump(tag_409)\n    tag_408:\n        /* \"src/contracts/AccountManagement.sol\":7979:7997  Role.COUNCILMEMBER */\n      0x01\n        /* \"src/contracts/AccountManagement.sol\":7970:7997  _role == Role.COUNCILMEMBER */\n      0x03\n      dup2\n      gt\n      iszero\n      tag_410\n      jumpi\n      tag_411\n      tag_286\n      jump\t// in\n    tag_411:\n    tag_410:\n        /* \"src/contracts/AccountManagement.sol\":7970:7975  _role */\n      dup6\n        /* \"src/contracts/AccountManagement.sol\":7970:7997  _role == Role.COUNCILMEMBER */\n      0x03\n      dup2\n      gt\n      iszero\n      tag_412\n      jumpi\n      tag_413\n      tag_286\n      jump\t// in\n    tag_413:\n    tag_412:\n      eq\n        /* \"src/contracts/AccountManagement.sol\":7967:8251  if(_role == Role.COUNCILMEMBER){... */\n      iszero\n      tag_414\n      jumpi\n        /* \"src/contracts/AccountManagement.sol\":8039:8044  false */\n      0x00\n        /* \"src/contracts/AccountManagement.sol\":8013:8020  roleMap */\n      dup2\n        /* \"src/contracts/AccountManagement.sol\":8013:8036  roleMap.isCouncilMember */\n      0x00\n      add\n      0x01\n        /* \"src/contracts/AccountManagement.sol\":8013:8044  roleMap.isCouncilMember = false */\n      0x0100\n      exp\n      dup2\n      sload\n      dup2\n      0xff\n      mul\n      not\n      and\n      swap1\n      dup4\n      iszero\n      iszero\n      mul\n      or\n      swap1\n      sstore\n      pop\n        /* \"src/contracts/AccountManagement.sol\":7967:8251  if(_role == Role.COUNCILMEMBER){... */\n      jump(tag_415)\n    tag_414:\n        /* \"src/contracts/AccountManagement.sol\":8088:8099  Role.MEMBER */\n      0x02\n        /* \"src/contracts/AccountManagement.sol\":8079:8099  _role == Role.MEMBER */\n      0x03\n      dup2\n      gt\n      iszero\n      tag_416\n      jumpi\n      tag_417\n      tag_286\n      jump\t// in\n    tag_417:\n    tag_416:\n        /* \"src/contracts/AccountManagement.sol\":8079:8084  _role */\n      dup6\n        /* \"src/contracts/AccountManagement.sol\":8079:8099  _role == Role.MEMBER */\n      0x03\n      dup2\n      gt\n      iszero\n      tag_418\n      jumpi\n      tag_419\n      tag_286\n      jump\t// in\n    tag_419:\n    tag_418:\n      eq\n        /* \"src/contracts/AccountManagement.sol\":8076:8251  if(_role == Role.MEMBER){... */\n      iszero\n      tag_420\n      jumpi\n        /* \"src/contracts/AccountManagement.sol\":8134:8139  false */\n      0x00\n        /* \"src/contracts/AccountManagement.sol\":8115:8122  roleMap */\n      dup2\n        /* \"src/contracts/AccountManagement.sol\":8115:8131  roleMap.isMember */\n      0x00\n      add\n      0x02\n        /* \"src/contracts/AccountManagement.sol\":8115:8139  roleMap.isMember = false */\n      0x0100\n      exp\n      dup2\n      sload\n      dup2\n      0xff\n      mul\n      not\n      and\n      swap1\n      dup4\n      iszero\n      iszero\n      mul\n      or\n      swap1\n      sstore\n      pop\n        /* \"src/contracts/AccountManagement.sol\":8076:8251  if(_role == Role.MEMBER){... */\n      jump(tag_421)\n    tag_420:\n        /* \"src/contracts/AccountManagement.sol\":8178:8188  Role.GUEST */\n      0x03\n        /* \"src/contracts/AccountManagement.sol\":8169:8188  _role == Role.GUEST */\n      dup1\n      dup2\n      gt\n      iszero\n      tag_422\n      jumpi\n      tag_423\n      tag_286\n      jump\t// in\n    tag_423:\n    tag_422:\n        /* \"src/contracts/AccountManagement.sol\":8169:8174  _role */\n      dup6\n        /* \"src/contracts/AccountManagement.sol\":8169:8188  _role == Role.GUEST */\n      0x03\n      dup2\n      gt\n      iszero\n      tag_424\n      jumpi\n      tag_425\n      tag_286\n      jump\t// in\n    tag_425:\n    tag_424:\n      eq\n        /* \"src/contracts/AccountManagement.sol\":8166:8251  if(_role == Role.GUEST){... */\n      iszero\n      tag_426\n      jumpi\n        /* \"src/contracts/AccountManagement.sol\":8222:8227  false */\n      0x00\n        /* \"src/contracts/AccountManagement.sol\":8204:8211  roleMap */\n      dup2\n        /* \"src/contracts/AccountManagement.sol\":8204:8219  roleMap.isGuest */\n      0x00\n      add\n      0x03\n        /* \"src/contracts/AccountManagement.sol\":8204:8227  roleMap.isGuest = false */\n      0x0100\n      exp\n      dup2\n      sload\n      dup2\n      0xff\n      mul\n      not\n      and\n      swap1\n      dup4\n      iszero\n      iszero\n      mul\n      or\n      swap1\n      sstore\n      pop\n        /* \"src/contracts/AccountManagement.sol\":8166:8251  if(_role == Role.GUEST){... */\n    tag_426:\n        /* \"src/contracts/AccountManagement.sol\":8076:8251  if(_role == Role.MEMBER){... */\n    tag_421:\n        /* \"src/contracts/AccountManagement.sol\":7967:8251  if(_role == Role.COUNCILMEMBER){... */\n    tag_415:\n        /* \"src/contracts/AccountManagement.sol\":7877:8251  if(_role == Role.LEADER){... */\n    tag_409:\n        /* \"src/contracts/AccountManagement.sol\":7730:8258  {... */\n      pop\n      pop\n        /* \"src/contracts/AccountManagement.sol\":4657:4658  _ */\n      pop\n        /* \"src/contracts/AccountManagement.sol\":7609:8258  function removeRole(address _sender, address _address, Role _role) private onlyLeader(_sender) onlyIfUserExists(_address){... */\n      pop\n      pop\n      pop\n      pop\n      jump\t// out\n        /* \"src/contracts/AccountManagement.sol\":9067:9239  function removeLeader(address _sender, address _address) private onlyLeader(_sender) onlyIfUserExists(_address){... */\n    tag_331:\n        /* \"src/contracts/AccountManagement.sol\":9143:9150  _sender */\n      dup2\n        /* \"src/contracts/AccountManagement.sol\":4571:4576  owner */\n      0x01\n      0x00\n      swap1\n      sload\n      swap1\n      0x0100\n      exp\n      swap1\n      div\n      0xffffffffffffffffffffffffffffffffffffffff\n      and\n        /* \"src/contracts/AccountManagement.sol\":4560:4576  _sender == owner */\n      0xffffffffffffffffffffffffffffffffffffffff\n      and\n        /* \"src/contracts/AccountManagement.sol\":4560:4567  _sender */\n      dup2\n        /* \"src/contracts/AccountManagement.sol\":4560:4576  _sender == owner */\n      0xffffffffffffffffffffffffffffffffffffffff\n      and\n      eq\n        /* \"src/contracts/AccountManagement.sol\":4560:4607  _sender == owner || this.hasLeaderRole(_sender) */\n      dup1\n      tag_428\n      jumpi\n      pop\n        /* \"src/contracts/AccountManagement.sol\":4580:4584  this */\n      address\n        /* \"src/contracts/AccountManagement.sol\":4580:4598  this.hasLeaderRole */\n      0xffffffffffffffffffffffffffffffffffffffff\n      and\n      0x297027d5\n        /* \"src/contracts/AccountManagement.sol\":4599:4606  _sender */\n      dup3\n        /* \"src/contracts/AccountManagement.sol\":4580:4607  this.hasLeaderRole(_sender) */\n      mload(0x40)\n      dup3\n      0xffffffff\n      and\n      0xe0\n      shl\n      dup2\n      mstore\n      0x04\n      add\n      tag_429\n      swap2\n      swap1\n      tag_71\n      jump\t// in\n    tag_429:\n      0x20\n      mload(0x40)\n      dup1\n      dup4\n      sub\n      dup2\n      dup7\n      gas\n      staticcall\n      iszero\n      dup1\n      iszero\n      tag_431\n      jumpi\n      returndatasize\n      0x00\n      dup1\n      returndatacopy\n      revert(0x00, returndatasize)\n    tag_431:\n      pop\n      pop\n      pop\n      pop\n      mload(0x40)\n      returndatasize\n      not(0x1f)\n      0x1f\n      dup3\n      add\n      and\n      dup3\n      add\n      dup1\n      0x40\n      mstore\n      pop\n      dup2\n      add\n      swap1\n      tag_432\n      swap2\n      swap1\n      tag_201\n      jump\t// in\n    tag_432:\n        /* \"src/contracts/AccountManagement.sol\":4560:4607  _sender == owner || this.hasLeaderRole(_sender) */\n    tag_428:\n        /* \"src/contracts/AccountManagement.sol\":4552:4646  require(_sender == owner || this.hasLeaderRole(_sender), \"Only owner can call this function.\") */\n      tag_433\n      jumpi\n      mload(0x40)\n      0x08c379a000000000000000000000000000000000000000000000000000000000\n      dup2\n      mstore\n      0x04\n      add\n      tag_434\n      swap1\n      tag_316\n      jump\t// in\n    tag_434:\n      mload(0x40)\n      dup1\n      swap2\n      sub\n      swap1\n      revert\n    tag_433:\n        /* \"src/contracts/AccountManagement.sol\":9169:9177  _address */\n      dup2\n        /* \"src/contracts/AccountManagement.sol\":4775:4776  0 */\n      0x00\n        /* \"src/contracts/AccountManagement.sol\":4736:4777  users[_address].userAddress != address(0) */\n      0xffffffffffffffffffffffffffffffffffffffff\n      and\n        /* \"src/contracts/AccountManagement.sol\":4736:4741  users */\n      0x08\n        /* \"src/contracts/AccountManagement.sol\":4736:4751  users[_address] */\n      0x00\n        /* \"src/contracts/AccountManagement.sol\":4742:4750  _address */\n      dup4\n        /* \"src/contracts/AccountManagement.sol\":4736:4751  users[_address] */\n      0xffffffffffffffffffffffffffffffffffffffff\n      and\n      0xffffffffffffffffffffffffffffffffffffffff\n      and\n      dup2\n      mstore\n      0x20\n      add\n      swap1\n      dup2\n      mstore\n      0x20\n      add\n      0x00\n      keccak256\n        /* \"src/contracts/AccountManagement.sol\":4736:4763  users[_address].userAddress */\n      0x00\n      add\n      0x00\n      swap1\n      sload\n      swap1\n      0x0100\n      exp\n      swap1\n      div\n      0xffffffffffffffffffffffffffffffffffffffff\n      and\n        /* \"src/contracts/AccountManagement.sol\":4736:4777  users[_address].userAddress != address(0) */\n      0xffffffffffffffffffffffffffffffffffffffff\n      and\n      eq\n      iszero\n        /* \"src/contracts/AccountManagement.sol\":4728:4803  require(users[_address].userAddress != address(0), \"Account doesn't exist\") */\n      tag_436\n      jumpi\n      mload(0x40)\n      0x08c379a000000000000000000000000000000000000000000000000000000000\n      dup2\n      mstore\n      0x04\n      add\n      tag_437\n      swap1\n      tag_123\n      jump\t// in\n    tag_437:\n      mload(0x40)\n      dup1\n      swap2\n      sub\n      swap1\n      revert\n    tag_436:\n        /* \"src/contracts/AccountManagement.sol\":9189:9231  removeRole(_sender, _address, Role.LEADER) */\n      tag_439\n        /* \"src/contracts/AccountManagement.sol\":9200:9207  _sender */\n      dup5\n        /* \"src/contracts/AccountManagement.sol\":9209:9217  _address */\n      dup5\n        /* \"src/contracts/AccountManagement.sol\":9219:9230  Role.LEADER */\n      0x00\n        /* \"src/contracts/AccountManagement.sol\":9189:9199  removeRole */\n      tag_213\n        /* \"src/contracts/AccountManagement.sol\":9189:9231  removeRole(_sender, _address, Role.LEADER) */\n      jump\t// in\n    tag_439:\n        /* \"src/contracts/AccountManagement.sol\":4657:4658  _ */\n      pop\n        /* \"src/contracts/AccountManagement.sol\":9067:9239  function removeLeader(address _sender, address _address) private onlyLeader(_sender) onlyIfUserExists(_address){... */\n      pop\n      pop\n      pop\n      jump\t// out\n        /* \"src/contracts/AccountManagement.sol\":9251:9437  function removeCouncilMember(address _sender, address _address) private onlyLeader(_sender) onlyIfUserExists(_address){... */\n    tag_355:\n        /* \"src/contracts/AccountManagement.sol\":9334:9341  _sender */\n      dup2\n        /* \"src/contracts/AccountManagement.sol\":4571:4576  owner */\n      0x01\n      0x00\n      swap1\n      sload\n      swap1\n      0x0100\n      exp\n      swap1\n      div\n      0xffffffffffffffffffffffffffffffffffffffff\n      and\n        /* \"src/contracts/AccountManagement.sol\":4560:4576  _sender == owner */\n      0xffffffffffffffffffffffffffffffffffffffff\n      and\n        /* \"src/contracts/AccountManagement.sol\":4560:4567  _sender */\n      dup2\n        /* \"src/contracts/AccountManagement.sol\":4560:4576  _sender == owner */\n      0xffffffffffffffffffffffffffffffffffffffff\n      and\n      eq\n        /* \"src/contracts/AccountManagement.sol\":4560:4607  _sender == owner || this.hasLeaderRole(_sender) */\n      dup1\n      tag_441\n      jumpi\n      pop\n        /* \"src/contracts/AccountManagement.sol\":4580:4584  this */\n      address\n        /* \"src/contracts/AccountManagement.sol\":4580:4598  this.hasLeaderRole */\n      0xffffffffffffffffffffffffffffffffffffffff\n      and\n      0x297027d5\n        /* \"src/contracts/AccountManagement.sol\":4599:4606  _sender */\n      dup3\n        /* \"src/contracts/AccountManagement.sol\":4580:4607  this.hasLeaderRole(_sender) */\n      mload(0x40)\n      dup3\n      0xffffffff\n      and\n      0xe0\n      shl\n      dup2\n      mstore\n      0x04\n      add\n      tag_442\n      swap2\n      swap1\n      tag_71\n      jump\t// in\n    tag_442:\n      0x20\n      mload(0x40)\n      dup1\n      dup4\n      sub\n      dup2\n      dup7\n      gas\n      staticcall\n      iszero\n      dup1\n      iszero\n      tag_444\n      jumpi\n      returndatasize\n      0x00\n      dup1\n      returndatacopy\n      revert(0x00, returndatasize)\n    tag_444:\n      pop\n      pop\n      pop\n      pop\n      mload(0x40)\n      returndatasize\n      not(0x1f)\n      0x1f\n      dup3\n      add\n      and\n      dup3\n      add\n      dup1\n      0x40\n      mstore\n      pop\n      dup2\n      add\n      swap1\n      tag_445\n      swap2\n      swap1\n      tag_201\n      jump\t// in\n    tag_445:\n        /* \"src/contracts/AccountManagement.sol\":4560:4607  _sender == owner || this.hasLeaderRole(_sender) */\n    tag_441:\n        /* \"src/contracts/AccountManagement.sol\":4552:4646  require(_sender == owner || this.hasLeaderRole(_sender), \"Only owner can call this function.\") */\n      tag_446\n      jumpi\n      mload(0x40)\n      0x08c379a000000000000000000000000000000000000000000000000000000000\n      dup2\n      mstore\n      0x04\n      add\n      tag_447\n      swap1\n      tag_316\n      jump\t// in\n    tag_447:\n      mload(0x40)\n      dup1\n      swap2\n      sub\n      swap1\n      revert\n    tag_446:\n        /* \"src/contracts/AccountManagement.sol\":9360:9368  _address */\n      dup2\n        /* \"src/contracts/AccountManagement.sol\":4775:4776  0 */\n      0x00\n        /* \"src/contracts/AccountManagement.sol\":4736:4777  users[_address].userAddress != address(0) */\n      0xffffffffffffffffffffffffffffffffffffffff\n      and\n        /* \"src/contracts/AccountManagement.sol\":4736:4741  users */\n      0x08\n        /* \"src/contracts/AccountManagement.sol\":4736:4751  users[_address] */\n      0x00\n        /* \"src/contracts/AccountManagement.sol\":4742:4750  _address */\n      dup4\n        /* \"src/contracts/AccountManagement.sol\":4736:4751  users[_address] */\n      0xffffffffffffffffffffffffffffffffffffffff\n      and\n      0xffffffffffffffffffffffffffffffffffffffff\n      and\n      dup2\n      mstore\n      0x20\n      add\n      swap1\n      dup2\n      mstore\n      0x20\n      add\n      0x00\n      keccak256\n        /* \"src/contracts/AccountManagement.sol\":4736:4763  users[_address].userAddress */\n      0x00\n      add\n      0x00\n      swap1\n      sload\n      swap1\n      0x0100\n      exp\n      swap1\n      div\n      0xffffffffffffffffffffffffffffffffffffffff\n      and\n        /* \"src/contracts/AccountManagement.sol\":4736:4777  users[_address].userAddress != address(0) */\n      0xffffffffffffffffffffffffffffffffffffffff\n      and\n      eq\n      iszero\n        /* \"src/contracts/AccountManagement.sol\":4728:4803  require(users[_address].userAddress != address(0), \"Account doesn't exist\") */\n      tag_449\n      jumpi\n      mload(0x40)\n      0x08c379a000000000000000000000000000000000000000000000000000000000\n      dup2\n      mstore\n      0x04\n      add\n      tag_450\n      swap1\n      tag_123\n      jump\t// in\n    tag_450:\n      mload(0x40)\n      dup1\n      swap2\n      sub\n      swap1\n      revert\n    tag_449:\n        /* \"src/contracts/AccountManagement.sol\":9380:9429  removeRole(_sender, _address, Role.COUNCILMEMBER) */\n      tag_452\n        /* \"src/contracts/AccountManagement.sol\":9391:9398  _sender */\n      dup5\n        /* \"src/contracts/AccountManagement.sol\":9400:9408  _address */\n      dup5\n        /* \"src/contracts/AccountManagement.sol\":9410:9428  Role.COUNCILMEMBER */\n      0x01\n        /* \"src/contracts/AccountManagement.sol\":9380:9390  removeRole */\n      tag_213\n        /* \"src/contracts/AccountManagement.sol\":9380:9429  removeRole(_sender, _address, Role.COUNCILMEMBER) */\n      jump\t// in\n    tag_452:\n        /* \"src/contracts/AccountManagement.sol\":4657:4658  _ */\n      pop\n        /* \"src/contracts/AccountManagement.sol\":9251:9437  function removeCouncilMember(address _sender, address _address) private onlyLeader(_sender) onlyIfUserExists(_address){... */\n      pop\n      pop\n      pop\n      jump\t// out\n    tag_129:\n      mload(0x40)\n      dup1\n      0x60\n      add\n      0x40\n      mstore\n      dup1\n      0x60\n      dup2\n      mstore\n      0x20\n      add\n      0x00\n      dup2\n      mstore\n      0x20\n      add\n      iszero(iszero(0x00))\n      dup2\n      mstore\n      pop\n      swap1\n      jump\t// out\n    tag_148:\n      dup3\n      dup1\n      sload\n      dup3\n      dup3\n      sstore\n      swap1\n      0x00\n      mstore\n      keccak256(0x00, 0x20)\n      swap1\n      dup2\n      add\n      swap3\n      dup3\n      iszero\n      tag_453\n      jumpi\n      swap2\n      0x20\n      mul\n      dup3\n      add\n    tag_454:\n      dup3\n      dup2\n      gt\n      iszero\n      tag_455\n      jumpi\n      dup3\n      mload\n      dup3\n      exp(0x0100, 0x00)\n      dup2\n      sload\n      dup2\n      0xffffffffffffffffffffffffffffffffffffffff\n      mul\n      not\n      and\n      swap1\n      dup4\n      0xffffffffffffffffffffffffffffffffffffffff\n      and\n      mul\n      or\n      swap1\n      sstore\n      pop\n      swap2\n      0x20\n      add\n      swap2\n      swap1\n      0x01\n      add\n      swap1\n      jump(tag_454)\n    tag_455:\n    tag_453:\n      pop\n      swap1\n      pop\n      tag_456\n      swap2\n      swap1\n      tag_457\n      jump\t// in\n    tag_456:\n      pop\n      swap1\n      jump\t// out\n    tag_150:\n      mload(0x40)\n      dup1\n      0xc0\n      add\n      0x40\n      mstore\n      dup1\n      and(0xffffffffffffffffffffffffffffffffffffffff, 0x00)\n      dup2\n      mstore\n      0x20\n      add\n      0x60\n      dup2\n      mstore\n      0x20\n      add\n      0x60\n      dup2\n      mstore\n      0x20\n      add\n      0x60\n      dup2\n      mstore\n      0x20\n      add\n      iszero(iszero(0x00))\n      dup2\n      mstore\n      0x20\n      add\n      tag_458\n      tag_459\n      jump\t// in\n    tag_458:\n      dup2\n      mstore\n      pop\n      swap1\n      jump\t// out\n    tag_236:\n      mload(0x40)\n      dup1\n      0x60\n      add\n      0x40\n      mstore\n      dup1\n      0x60\n      dup2\n      mstore\n      0x20\n      add\n      0x00\n      dup2\n      mstore\n      0x20\n      add\n      iszero(iszero(0x00))\n      dup2\n      mstore\n      pop\n      swap1\n      jump\t// out\n    tag_250:\n      pop\n      dup1\n      sload\n      tag_460\n      swap1\n      tag_105\n      jump\t// in\n    tag_460:\n      0x00\n      dup3\n      sstore\n      dup1\n      0x1f\n      lt\n      tag_462\n      jumpi\n      pop\n      jump(tag_461)\n    tag_462:\n      0x1f\n      add\n      0x20\n      swap1\n      div\n      swap1\n      0x00\n      mstore\n      keccak256(0x00, 0x20)\n      swap1\n      dup2\n      add\n      swap1\n      tag_463\n      swap2\n      swap1\n      tag_457\n      jump\t// in\n    tag_463:\n    tag_461:\n      pop\n      jump\t// out\n    tag_261:\n      dup3\n      dup1\n      sload\n      tag_464\n      swap1\n      tag_105\n      jump\t// in\n    tag_464:\n      swap1\n      0x00\n      mstore\n      keccak256(0x00, 0x20)\n      swap1\n      0x1f\n      add\n      0x20\n      swap1\n      div\n      dup2\n      add\n      swap3\n      dup3\n      tag_466\n      jumpi\n      0x00\n      dup6\n      sstore\n      jump(tag_465)\n    tag_466:\n      dup3\n      0x1f\n      lt\n      tag_467\n      jumpi\n      dup1\n      mload\n      not(0xff)\n      and\n      dup4\n      dup1\n      add\n      or\n      dup6\n      sstore\n      jump(tag_465)\n    tag_467:\n      dup3\n      dup1\n      add\n      0x01\n      add\n      dup6\n      sstore\n      dup3\n      iszero\n      tag_465\n      jumpi\n      swap2\n      dup3\n      add\n    tag_468:\n      dup3\n      dup2\n      gt\n      iszero\n      tag_469\n      jumpi\n      dup3\n      mload\n      dup3\n      sstore\n      swap2\n      0x20\n      add\n      swap2\n      swap1\n      0x01\n      add\n      swap1\n      jump(tag_468)\n    tag_469:\n    tag_465:\n      pop\n      swap1\n      pop\n      tag_470\n      swap2\n      swap1\n      tag_457\n      jump\t// in\n    tag_470:\n      pop\n      swap1\n      jump\t// out\n    tag_457:\n    tag_471:\n      dup1\n      dup3\n      gt\n      iszero\n      tag_472\n      jumpi\n      0x00\n      dup2\n      0x00\n      swap1\n      sstore\n      pop\n      0x01\n      add\n      jump(tag_471)\n    tag_472:\n      pop\n      swap1\n      jump\t// out\n    tag_459:\n      mload(0x40)\n      dup1\n      0x80\n      add\n      0x40\n      mstore\n      dup1\n      iszero(iszero(0x00))\n      dup2\n      mstore\n      0x20\n      add\n      iszero(iszero(0x00))\n      dup2\n      mstore\n      0x20\n      add\n      iszero(iszero(0x00))\n      dup2\n      mstore\n      0x20\n      add\n      iszero(iszero(0x00))\n      dup2\n      mstore\n      pop\n      swap1\n      jump\t// out\n        /* \"#utility.yul\":7:82   */\n    tag_473:\n        /* \"#utility.yul\":40:46   */\n      0x00\n        /* \"#utility.yul\":73:75   */\n      0x40\n        /* \"#utility.yul\":67:76   */\n      mload\n        /* \"#utility.yul\":57:76   */\n      swap1\n      pop\n        /* \"#utility.yul\":7:82   */\n      swap1\n      jump\t// out\n        /* \"#utility.yul\":88:205   */\n    tag_474:\n        /* \"#utility.yul\":197:198   */\n      0x00\n        /* \"#utility.yul\":194:195   */\n      dup1\n        /* \"#utility.yul\":187:199   */\n      revert\n        /* \"#utility.yul\":211:328   */\n    tag_475:\n        /* \"#utility.yul\":320:321   */\n      0x00\n        /* \"#utility.yul\":317:318   */\n      dup1\n        /* \"#utility.yul\":310:322   */\n      revert\n        /* \"#utility.yul\":334:460   */\n    tag_476:\n        /* \"#utility.yul\":371:378   */\n      0x00\n        /* \"#utility.yul\":411:453   */\n      0xffffffffffffffffffffffffffffffffffffffff\n        /* \"#utility.yul\":404:409   */\n      dup3\n        /* \"#utility.yul\":400:454   */\n      and\n        /* \"#utility.yul\":389:454   */\n      swap1\n      pop\n        /* \"#utility.yul\":334:460   */\n      swap2\n      swap1\n      pop\n      jump\t// out\n        /* \"#utility.yul\":466:562   */\n    tag_477:\n        /* \"#utility.yul\":503:510   */\n      0x00\n        /* \"#utility.yul\":532:556   */\n      tag_541\n        /* \"#utility.yul\":550:555   */\n      dup3\n        /* \"#utility.yul\":532:556   */\n      tag_476\n      jump\t// in\n    tag_541:\n        /* \"#utility.yul\":521:556   */\n      swap1\n      pop\n        /* \"#utility.yul\":466:562   */\n      swap2\n      swap1\n      pop\n      jump\t// out\n        /* \"#utility.yul\":568:690   */\n    tag_478:\n        /* \"#utility.yul\":641:665   */\n      tag_543\n        /* \"#utility.yul\":659:664   */\n      dup2\n        /* \"#utility.yul\":641:665   */\n      tag_477\n      jump\t// in\n    tag_543:\n        /* \"#utility.yul\":634:639   */\n      dup2\n        /* \"#utility.yul\":631:666   */\n      eq\n        /* \"#utility.yul\":621:684   */\n      tag_544\n      jumpi\n        /* \"#utility.yul\":680:681   */\n      0x00\n        /* \"#utility.yul\":677:678   */\n      dup1\n        /* \"#utility.yul\":670:682   */\n      revert\n        /* \"#utility.yul\":621:684   */\n    tag_544:\n        /* \"#utility.yul\":568:690   */\n      pop\n      jump\t// out\n        /* \"#utility.yul\":696:835   */\n    tag_479:\n        /* \"#utility.yul\":742:747   */\n      0x00\n        /* \"#utility.yul\":780:786   */\n      dup2\n        /* \"#utility.yul\":767:787   */\n      calldataload\n        /* \"#utility.yul\":758:787   */\n      swap1\n      pop\n        /* \"#utility.yul\":796:829   */\n      tag_546\n        /* \"#utility.yul\":823:828   */\n      dup2\n        /* \"#utility.yul\":796:829   */\n      tag_478\n      jump\t// in\n    tag_546:\n        /* \"#utility.yul\":696:835   */\n      swap3\n      swap2\n      pop\n      pop\n      jump\t// out\n        /* \"#utility.yul\":841:1170   */\n    tag_27:\n        /* \"#utility.yul\":900:906   */\n      0x00\n        /* \"#utility.yul\":949:951   */\n      0x20\n        /* \"#utility.yul\":937:946   */\n      dup3\n        /* \"#utility.yul\":928:935   */\n      dup5\n        /* \"#utility.yul\":924:947   */\n      sub\n        /* \"#utility.yul\":920:952   */\n      slt\n        /* \"#utility.yul\":917:1036   */\n      iszero\n      tag_548\n      jumpi\n        /* \"#utility.yul\":955:1034   */\n      tag_549\n      tag_474\n      jump\t// in\n    tag_549:\n        /* \"#utility.yul\":917:1036   */\n    tag_548:\n        /* \"#utility.yul\":1075:1076   */\n      0x00\n        /* \"#utility.yul\":1100:1153   */\n      tag_550\n        /* \"#utility.yul\":1145:1152   */\n      dup5\n        /* \"#utility.yul\":1136:1142   */\n      dup3\n        /* \"#utility.yul\":1125:1134   */\n      dup6\n        /* \"#utility.yul\":1121:1143   */\n      add\n        /* \"#utility.yul\":1100:1153   */\n      tag_479\n      jump\t// in\n    tag_550:\n        /* \"#utility.yul\":1090:1153   */\n      swap2\n      pop\n        /* \"#utility.yul\":1046:1163   */\n      pop\n        /* \"#utility.yul\":841:1170   */\n      swap3\n      swap2\n      pop\n      pop\n      jump\t// out\n        /* \"#utility.yul\":1176:1266   */\n    tag_480:\n        /* \"#utility.yul\":1210:1217   */\n      0x00\n        /* \"#utility.yul\":1253:1258   */\n      dup2\n        /* \"#utility.yul\":1246:1259   */\n      iszero\n        /* \"#utility.yul\":1239:1260   */\n      iszero\n        /* \"#utility.yul\":1228:1260   */\n      swap1\n      pop\n        /* \"#utility.yul\":1176:1266   */\n      swap2\n      swap1\n      pop\n      jump\t// out\n        /* \"#utility.yul\":1272:1381   */\n    tag_481:\n        /* \"#utility.yul\":1353:1374   */\n      tag_553\n        /* \"#utility.yul\":1368:1373   */\n      dup2\n        /* \"#utility.yul\":1353:1374   */\n      tag_480\n      jump\t// in\n    tag_553:\n        /* \"#utility.yul\":1348:1351   */\n      dup3\n        /* \"#utility.yul\":1341:1375   */\n      mstore\n        /* \"#utility.yul\":1272:1381   */\n      pop\n      pop\n      jump\t// out\n        /* \"#utility.yul\":1387:1597   */\n    tag_30:\n        /* \"#utility.yul\":1474:1478   */\n      0x00\n        /* \"#utility.yul\":1512:1514   */\n      0x20\n        /* \"#utility.yul\":1501:1510   */\n      dup3\n        /* \"#utility.yul\":1497:1515   */\n      add\n        /* \"#utility.yul\":1489:1515   */\n      swap1\n      pop\n        /* \"#utility.yul\":1525:1590   */\n      tag_555\n        /* \"#utility.yul\":1587:1588   */\n      0x00\n        /* \"#utility.yul\":1576:1585   */\n      dup4\n        /* \"#utility.yul\":1572:1589   */\n      add\n        /* \"#utility.yul\":1563:1569   */\n      dup5\n        /* \"#utility.yul\":1525:1590   */\n      tag_481\n      jump\t// in\n    tag_555:\n        /* \"#utility.yul\":1387:1597   */\n      swap3\n      swap2\n      pop\n      pop\n      jump\t// out\n        /* \"#utility.yul\":1603:1720   */\n    tag_482:\n        /* \"#utility.yul\":1712:1713   */\n      0x00\n        /* \"#utility.yul\":1709:1710   */\n      dup1\n        /* \"#utility.yul\":1702:1714   */\n      revert\n        /* \"#utility.yul\":1726:1828   */\n    tag_483:\n        /* \"#utility.yul\":1767:1773   */\n      0x00\n        /* \"#utility.yul\":1818:1820   */\n      0x1f\n        /* \"#utility.yul\":1814:1821   */\n      not\n        /* \"#utility.yul\":1809:1811   */\n      0x1f\n        /* \"#utility.yul\":1802:1807   */\n      dup4\n        /* \"#utility.yul\":1798:1812   */\n      add\n        /* \"#utility.yul\":1794:1822   */\n      and\n        /* \"#utility.yul\":1784:1822   */\n      swap1\n      pop\n        /* \"#utility.yul\":1726:1828   */\n      swap2\n      swap1\n      pop\n      jump\t// out\n        /* \"#utility.yul\":1834:2014   */\n    tag_218:\n        /* \"#utility.yul\":1882:1959   */\n      0x4e487b7100000000000000000000000000000000000000000000000000000000\n        /* \"#utility.yul\":1879:1880   */\n      0x00\n        /* \"#utility.yul\":1872:1960   */\n      mstore\n        /* \"#utility.yul\":1979:1983   */\n      0x41\n        /* \"#utility.yul\":1976:1977   */\n      0x04\n        /* \"#utility.yul\":1969:1984   */\n      mstore\n        /* \"#utility.yul\":2003:2007   */\n      0x24\n        /* \"#utility.yul\":2000:2001   */\n      0x00\n        /* \"#utility.yul\":1993:2008   */\n      revert\n        /* \"#utility.yul\":2020:2301   */\n    tag_484:\n        /* \"#utility.yul\":2103:2130   */\n      tag_560\n        /* \"#utility.yul\":2125:2129   */\n      dup3\n        /* \"#utility.yul\":2103:2130   */\n      tag_483\n      jump\t// in\n    tag_560:\n        /* \"#utility.yul\":2095:2101   */\n      dup2\n        /* \"#utility.yul\":2091:2131   */\n      add\n        /* \"#utility.yul\":2233:2239   */\n      dup2\n        /* \"#utility.yul\":2221:2231   */\n      dup2\n        /* \"#utility.yul\":2218:2240   */\n      lt\n        /* \"#utility.yul\":2197:2215   */\n      0xffffffffffffffff\n        /* \"#utility.yul\":2185:2195   */\n      dup3\n        /* \"#utility.yul\":2182:2216   */\n      gt\n        /* \"#utility.yul\":2179:2241   */\n      or\n        /* \"#utility.yul\":2176:2264   */\n      iszero\n      tag_561\n      jumpi\n        /* \"#utility.yul\":2244:2262   */\n      tag_562\n      tag_218\n      jump\t// in\n    tag_562:\n        /* \"#utility.yul\":2176:2264   */\n    tag_561:\n        /* \"#utility.yul\":2284:2294   */\n      dup1\n        /* \"#utility.yul\":2280:2282   */\n      0x40\n        /* \"#utility.yul\":2273:2295   */\n      mstore\n        /* \"#utility.yul\":2063:2301   */\n      pop\n        /* \"#utility.yul\":2020:2301   */\n      pop\n      pop\n      jump\t// out\n        /* \"#utility.yul\":2307:2436   */\n    tag_485:\n        /* \"#utility.yul\":2341:2347   */\n      0x00\n        /* \"#utility.yul\":2368:2388   */\n      tag_564\n      tag_473\n      jump\t// in\n    tag_564:\n        /* \"#utility.yul\":2358:2388   */\n      swap1\n      pop\n        /* \"#utility.yul\":2397:2430   */\n      tag_565\n        /* \"#utility.yul\":2425:2429   */\n      dup3\n        /* \"#utility.yul\":2417:2423   */\n      dup3\n        /* \"#utility.yul\":2397:2430   */\n      tag_484\n      jump\t// in\n    tag_565:\n        /* \"#utility.yul\":2307:2436   */\n      swap2\n      swap1\n      pop\n      jump\t// out\n        /* \"#utility.yul\":2442:2753   */\n    tag_486:\n        /* \"#utility.yul\":2519:2523   */\n      0x00\n        /* \"#utility.yul\":2609:2627   */\n      0xffffffffffffffff\n        /* \"#utility.yul\":2601:2607   */\n      dup3\n        /* \"#utility.yul\":2598:2628   */\n      gt\n        /* \"#utility.yul\":2595:2651   */\n      iszero\n      tag_567\n      jumpi\n        /* \"#utility.yul\":2631:2649   */\n      tag_568\n      tag_218\n      jump\t// in\n    tag_568:\n        /* \"#utility.yul\":2595:2651   */\n    tag_567:\n        /* \"#utility.yul\":2681:2685   */\n      0x20\n        /* \"#utility.yul\":2673:2679   */\n      dup3\n        /* \"#utility.yul\":2669:2686   */\n      mul\n        /* \"#utility.yul\":2661:2686   */\n      swap1\n      pop\n        /* \"#utility.yul\":2741:2745   */\n      0x20\n        /* \"#utility.yul\":2735:2739   */\n      dup2\n        /* \"#utility.yul\":2731:2746   */\n      add\n        /* \"#utility.yul\":2723:2746   */\n      swap1\n      pop\n        /* \"#utility.yul\":2442:2753   */\n      swap2\n      swap1\n      pop\n      jump\t// out\n        /* \"#utility.yul\":2759:2876   */\n    tag_487:\n        /* \"#utility.yul\":2868:2869   */\n      0x00\n        /* \"#utility.yul\":2865:2866   */\n      dup1\n        /* \"#utility.yul\":2858:2870   */\n      revert\n        /* \"#utility.yul\":2899:3609   */\n    tag_488:\n        /* \"#utility.yul\":2995:3000   */\n      0x00\n        /* \"#utility.yul\":3020:3101   */\n      tag_571\n        /* \"#utility.yul\":3036:3100   */\n      tag_572\n        /* \"#utility.yul\":3093:3099   */\n      dup5\n        /* \"#utility.yul\":3036:3100   */\n      tag_486\n      jump\t// in\n    tag_572:\n        /* \"#utility.yul\":3020:3101   */\n      tag_485\n      jump\t// in\n    tag_571:\n        /* \"#utility.yul\":3011:3101   */\n      swap1\n      pop\n        /* \"#utility.yul\":3121:3126   */\n      dup1\n        /* \"#utility.yul\":3150:3156   */\n      dup4\n        /* \"#utility.yul\":3143:3148   */\n      dup3\n        /* \"#utility.yul\":3136:3157   */\n      mstore\n        /* \"#utility.yul\":3184:3188   */\n      0x20\n        /* \"#utility.yul\":3177:3182   */\n      dup3\n        /* \"#utility.yul\":3173:3189   */\n      add\n        /* \"#utility.yul\":3166:3189   */\n      swap1\n      pop\n        /* \"#utility.yul\":3237:3241   */\n      0x20\n        /* \"#utility.yul\":3229:3235   */\n      dup5\n        /* \"#utility.yul\":3225:3242   */\n      mul\n        /* \"#utility.yul\":3217:3223   */\n      dup4\n        /* \"#utility.yul\":3213:3243   */\n      add\n        /* \"#utility.yul\":3266:3269   */\n      dup6\n        /* \"#utility.yul\":3258:3264   */\n      dup2\n        /* \"#utility.yul\":3255:3270   */\n      gt\n        /* \"#utility.yul\":3252:3374   */\n      iszero\n      tag_573\n      jumpi\n        /* \"#utility.yul\":3285:3364   */\n      tag_574\n      tag_487\n      jump\t// in\n    tag_574:\n        /* \"#utility.yul\":3252:3374   */\n    tag_573:\n        /* \"#utility.yul\":3400:3406   */\n      dup4\n        /* \"#utility.yul\":3383:3603   */\n    tag_575:\n        /* \"#utility.yul\":3417:3423   */\n      dup2\n        /* \"#utility.yul\":3412:3415   */\n      dup2\n        /* \"#utility.yul\":3409:3424   */\n      lt\n        /* \"#utility.yul\":3383:3603   */\n      iszero\n      tag_577\n      jumpi\n        /* \"#utility.yul\":3492:3495   */\n      dup1\n        /* \"#utility.yul\":3521:3558   */\n      tag_578\n        /* \"#utility.yul\":3554:3557   */\n      dup9\n        /* \"#utility.yul\":3542:3552   */\n      dup3\n        /* \"#utility.yul\":3521:3558   */\n      tag_479\n      jump\t// in\n    tag_578:\n        /* \"#utility.yul\":3516:3519   */\n      dup5\n        /* \"#utility.yul\":3509:3559   */\n      mstore\n        /* \"#utility.yul\":3588:3592   */\n      0x20\n        /* \"#utility.yul\":3583:3586   */\n      dup5\n        /* \"#utility.yul\":3579:3593   */\n      add\n        /* \"#utility.yul\":3572:3593   */\n      swap4\n      pop\n        /* \"#utility.yul\":3459:3603   */\n      pop\n        /* \"#utility.yul\":3443:3447   */\n      0x20\n        /* \"#utility.yul\":3438:3441   */\n      dup2\n        /* \"#utility.yul\":3434:3448   */\n      add\n        /* \"#utility.yul\":3427:3448   */\n      swap1\n      pop\n        /* \"#utility.yul\":3383:3603   */\n      jump(tag_575)\n    tag_577:\n        /* \"#utility.yul\":3387:3408   */\n      pop\n        /* \"#utility.yul\":3001:3609   */\n      pop\n      pop\n        /* \"#utility.yul\":2899:3609   */\n      swap4\n      swap3\n      pop\n      pop\n      pop\n      jump\t// out\n        /* \"#utility.yul\":3632:4002   */\n    tag_489:\n        /* \"#utility.yul\":3703:3708   */\n      0x00\n        /* \"#utility.yul\":3752:3755   */\n      dup3\n        /* \"#utility.yul\":3745:3749   */\n      0x1f\n        /* \"#utility.yul\":3737:3743   */\n      dup4\n        /* \"#utility.yul\":3733:3750   */\n      add\n        /* \"#utility.yul\":3729:3756   */\n      slt\n        /* \"#utility.yul\":3719:3841   */\n      tag_580\n      jumpi\n        /* \"#utility.yul\":3760:3839   */\n      tag_581\n      tag_482\n      jump\t// in\n    tag_581:\n        /* \"#utility.yul\":3719:3841   */\n    tag_580:\n        /* \"#utility.yul\":3877:3883   */\n      dup2\n        /* \"#utility.yul\":3864:3884   */\n      calldataload\n        /* \"#utility.yul\":3902:3996   */\n      tag_582\n        /* \"#utility.yul\":3992:3995   */\n      dup5\n        /* \"#utility.yul\":3984:3990   */\n      dup3\n        /* \"#utility.yul\":3977:3981   */\n      0x20\n        /* \"#utility.yul\":3969:3975   */\n      dup7\n        /* \"#utility.yul\":3965:3982   */\n      add\n        /* \"#utility.yul\":3902:3996   */\n      tag_488\n      jump\t// in\n    tag_582:\n        /* \"#utility.yul\":3893:3996   */\n      swap2\n      pop\n        /* \"#utility.yul\":3709:4002   */\n      pop\n        /* \"#utility.yul\":3632:4002   */\n      swap3\n      swap2\n      pop\n      pop\n      jump\t// out\n        /* \"#utility.yul\":4008:4547   */\n    tag_40:\n        /* \"#utility.yul\":4092:4098   */\n      0x00\n        /* \"#utility.yul\":4141:4143   */\n      0x20\n        /* \"#utility.yul\":4129:4138   */\n      dup3\n        /* \"#utility.yul\":4120:4127   */\n      dup5\n        /* \"#utility.yul\":4116:4139   */\n      sub\n        /* \"#utility.yul\":4112:4144   */\n      slt\n        /* \"#utility.yul\":4109:4228   */\n      iszero\n      tag_584\n      jumpi\n        /* \"#utility.yul\":4147:4226   */\n      tag_585\n      tag_474\n      jump\t// in\n    tag_585:\n        /* \"#utility.yul\":4109:4228   */\n    tag_584:\n        /* \"#utility.yul\":4295:4296   */\n      0x00\n        /* \"#utility.yul\":4284:4293   */\n      dup3\n        /* \"#utility.yul\":4280:4297   */\n      add\n        /* \"#utility.yul\":4267:4298   */\n      calldataload\n        /* \"#utility.yul\":4325:4343   */\n      0xffffffffffffffff\n        /* \"#utility.yul\":4317:4323   */\n      dup2\n        /* \"#utility.yul\":4314:4344   */\n      gt\n        /* \"#utility.yul\":4311:4428   */\n      iszero\n      tag_586\n      jumpi\n        /* \"#utility.yul\":4347:4426   */\n      tag_587\n      tag_475\n      jump\t// in\n    tag_587:\n        /* \"#utility.yul\":4311:4428   */\n    tag_586:\n        /* \"#utility.yul\":4452:4530   */\n      tag_588\n        /* \"#utility.yul\":4522:4529   */\n      dup5\n        /* \"#utility.yul\":4513:4519   */\n      dup3\n        /* \"#utility.yul\":4502:4511   */\n      dup6\n        /* \"#utility.yul\":4498:4520   */\n      add\n        /* \"#utility.yul\":4452:4530   */\n      tag_489\n      jump\t// in\n    tag_588:\n        /* \"#utility.yul\":4442:4530   */\n      swap2\n      pop\n        /* \"#utility.yul\":4238:4540   */\n      pop\n        /* \"#utility.yul\":4008:4547   */\n      swap3\n      swap2\n      pop\n      pop\n      jump\t// out\n        /* \"#utility.yul\":4553:4667   */\n    tag_490:\n        /* \"#utility.yul\":4620:4626   */\n      0x00\n        /* \"#utility.yul\":4654:4659   */\n      dup2\n        /* \"#utility.yul\":4648:4660   */\n      mload\n        /* \"#utility.yul\":4638:4660   */\n      swap1\n      pop\n        /* \"#utility.yul\":4553:4667   */\n      swap2\n      swap1\n      pop\n      jump\t// out\n        /* \"#utility.yul\":4673:4847   */\n    tag_491:\n        /* \"#utility.yul\":4762:4773   */\n      0x00\n        /* \"#utility.yul\":4796:4802   */\n      dup3\n        /* \"#utility.yul\":4791:4794   */\n      dup3\n        /* \"#utility.yul\":4784:4803   */\n      mstore\n        /* \"#utility.yul\":4836:4840   */\n      0x20\n        /* \"#utility.yul\":4831:4834   */\n      dup3\n        /* \"#utility.yul\":4827:4841   */\n      add\n        /* \"#utility.yul\":4812:4841   */\n      swap1\n      pop\n        /* \"#utility.yul\":4673:4847   */\n      swap3\n      swap2\n      pop\n      pop\n      jump\t// out\n        /* \"#utility.yul\":4853:4985   */\n    tag_492:\n        /* \"#utility.yul\":4920:4924   */\n      0x00\n        /* \"#utility.yul\":4943:4946   */\n      dup2\n        /* \"#utility.yul\":4935:4946   */\n      swap1\n      pop\n        /* \"#utility.yul\":4973:4977   */\n      0x20\n        /* \"#utility.yul\":4968:4971   */\n      dup3\n        /* \"#utility.yul\":4964:4978   */\n      add\n        /* \"#utility.yul\":4956:4978   */\n      swap1\n      pop\n        /* \"#utility.yul\":4853:4985   */\n      swap2\n      swap1\n      pop\n      jump\t// out\n        /* \"#utility.yul\":4991:5099   */\n    tag_493:\n        /* \"#utility.yul\":5068:5092   */\n      tag_593\n        /* \"#utility.yul\":5086:5091   */\n      dup2\n        /* \"#utility.yul\":5068:5092   */\n      tag_477\n      jump\t// in\n    tag_593:\n        /* \"#utility.yul\":5063:5066   */\n      dup3\n        /* \"#utility.yul\":5056:5093   */\n      mstore\n        /* \"#utility.yul\":4991:5099   */\n      pop\n      pop\n      jump\t// out\n        /* \"#utility.yul\":5105:5284   */\n    tag_494:\n        /* \"#utility.yul\":5174:5184   */\n      0x00\n        /* \"#utility.yul\":5195:5241   */\n      tag_595\n        /* \"#utility.yul\":5237:5240   */\n      dup4\n        /* \"#utility.yul\":5229:5235   */\n      dup4\n        /* \"#utility.yul\":5195:5241   */\n      tag_493\n      jump\t// in\n    tag_595:\n        /* \"#utility.yul\":5273:5277   */\n      0x20\n        /* \"#utility.yul\":5268:5271   */\n      dup4\n        /* \"#utility.yul\":5264:5278   */\n      add\n        /* \"#utility.yul\":5250:5278   */\n      swap1\n      pop\n        /* \"#utility.yul\":5105:5284   */\n      swap3\n      swap2\n      pop\n      pop\n      jump\t// out\n        /* \"#utility.yul\":5290:5403   */\n    tag_495:\n        /* \"#utility.yul\":5360:5364   */\n      0x00\n        /* \"#utility.yul\":5392:5396   */\n      0x20\n        /* \"#utility.yul\":5387:5390   */\n      dup3\n        /* \"#utility.yul\":5383:5397   */\n      add\n        /* \"#utility.yul\":5375:5397   */\n      swap1\n      pop\n        /* \"#utility.yul\":5290:5403   */\n      swap2\n      swap1\n      pop\n      jump\t// out\n        /* \"#utility.yul\":5439:6151   */\n    tag_496:\n        /* \"#utility.yul\":5548:5551   */\n      0x00\n        /* \"#utility.yul\":5577:5631   */\n      tag_598\n        /* \"#utility.yul\":5625:5630   */\n      dup3\n        /* \"#utility.yul\":5577:5631   */\n      tag_490\n      jump\t// in\n    tag_598:\n        /* \"#utility.yul\":5647:5723   */\n      tag_599\n        /* \"#utility.yul\":5716:5722   */\n      dup2\n        /* \"#utility.yul\":5711:5714   */\n      dup6\n        /* \"#utility.yul\":5647:5723   */\n      tag_491\n      jump\t// in\n    tag_599:\n        /* \"#utility.yul\":5640:5723   */\n      swap4\n      pop\n        /* \"#utility.yul\":5747:5803   */\n      tag_600\n        /* \"#utility.yul\":5797:5802   */\n      dup4\n        /* \"#utility.yul\":5747:5803   */\n      tag_492\n      jump\t// in\n    tag_600:\n        /* \"#utility.yul\":5826:5833   */\n      dup1\n        /* \"#utility.yul\":5857:5858   */\n      0x00\n        /* \"#utility.yul\":5842:6126   */\n    tag_601:\n        /* \"#utility.yul\":5867:5873   */\n      dup4\n        /* \"#utility.yul\":5864:5865   */\n      dup2\n        /* \"#utility.yul\":5861:5874   */\n      lt\n        /* \"#utility.yul\":5842:6126   */\n      iszero\n      tag_603\n      jumpi\n        /* \"#utility.yul\":5943:5949   */\n      dup2\n        /* \"#utility.yul\":5937:5950   */\n      mload\n        /* \"#utility.yul\":5970:6033   */\n      tag_604\n        /* \"#utility.yul\":6029:6032   */\n      dup9\n        /* \"#utility.yul\":6014:6027   */\n      dup3\n        /* \"#utility.yul\":5970:6033   */\n      tag_494\n      jump\t// in\n    tag_604:\n        /* \"#utility.yul\":5963:6033   */\n      swap8\n      pop\n        /* \"#utility.yul\":6056:6116   */\n      tag_605\n        /* \"#utility.yul\":6109:6115   */\n      dup4\n        /* \"#utility.yul\":6056:6116   */\n      tag_495\n      jump\t// in\n    tag_605:\n        /* \"#utility.yul\":6046:6116   */\n      swap3\n      pop\n        /* \"#utility.yul\":5902:6126   */\n      pop\n        /* \"#utility.yul\":5889:5890   */\n      0x01\n        /* \"#utility.yul\":5886:5887   */\n      dup2\n        /* \"#utility.yul\":5882:5891   */\n      add\n        /* \"#utility.yul\":5877:5891   */\n      swap1\n      pop\n        /* \"#utility.yul\":5842:6126   */\n      jump(tag_601)\n    tag_603:\n        /* \"#utility.yul\":5846:5860   */\n      pop\n        /* \"#utility.yul\":6142:6145   */\n      dup6\n        /* \"#utility.yul\":6135:6145   */\n      swap4\n      pop\n        /* \"#utility.yul\":5553:6151   */\n      pop\n      pop\n      pop\n        /* \"#utility.yul\":5439:6151   */\n      swap3\n      swap2\n      pop\n      pop\n      jump\t// out\n        /* \"#utility.yul\":6157:6234   */\n    tag_497:\n        /* \"#utility.yul\":6194:6201   */\n      0x00\n        /* \"#utility.yul\":6223:6228   */\n      dup2\n        /* \"#utility.yul\":6212:6228   */\n      swap1\n      pop\n        /* \"#utility.yul\":6157:6234   */\n      swap2\n      swap1\n      pop\n      jump\t// out\n        /* \"#utility.yul\":6240:6348   */\n    tag_498:\n        /* \"#utility.yul\":6317:6341   */\n      tag_608\n        /* \"#utility.yul\":6335:6340   */\n      dup2\n        /* \"#utility.yul\":6317:6341   */\n      tag_497\n      jump\t// in\n    tag_608:\n        /* \"#utility.yul\":6312:6315   */\n      dup3\n        /* \"#utility.yul\":6305:6342   */\n      mstore\n        /* \"#utility.yul\":6240:6348   */\n      pop\n      pop\n      jump\t// out\n        /* \"#utility.yul\":6354:6453   */\n    tag_499:\n        /* \"#utility.yul\":6425:6446   */\n      tag_610\n        /* \"#utility.yul\":6440:6445   */\n      dup2\n        /* \"#utility.yul\":6425:6446   */\n      tag_480\n      jump\t// in\n    tag_610:\n        /* \"#utility.yul\":6420:6423   */\n      dup3\n        /* \"#utility.yul\":6413:6447   */\n      mstore\n        /* \"#utility.yul\":6354:6453   */\n      pop\n      pop\n      jump\t// out\n        /* \"#utility.yul\":6543:7366   */\n    tag_500:\n        /* \"#utility.yul\":6666:6669   */\n      0x00\n        /* \"#utility.yul\":6702:6706   */\n      0x60\n        /* \"#utility.yul\":6697:6700   */\n      dup4\n        /* \"#utility.yul\":6693:6707   */\n      add\n        /* \"#utility.yul\":6792:6796   */\n      0x00\n        /* \"#utility.yul\":6785:6790   */\n      dup4\n        /* \"#utility.yul\":6781:6797   */\n      add\n        /* \"#utility.yul\":6775:6798   */\n      mload\n        /* \"#utility.yul\":6845:6848   */\n      dup5\n        /* \"#utility.yul\":6839:6843   */\n      dup3\n        /* \"#utility.yul\":6835:6849   */\n      sub\n        /* \"#utility.yul\":6828:6832   */\n      0x00\n        /* \"#utility.yul\":6823:6826   */\n      dup7\n        /* \"#utility.yul\":6819:6833   */\n      add\n        /* \"#utility.yul\":6812:6850   */\n      mstore\n        /* \"#utility.yul\":6871:6974   */\n      tag_612\n        /* \"#utility.yul\":6969:6973   */\n      dup3\n        /* \"#utility.yul\":6955:6967   */\n      dup3\n        /* \"#utility.yul\":6871:6974   */\n      tag_496\n      jump\t// in\n    tag_612:\n        /* \"#utility.yul\":6863:6974   */\n      swap2\n      pop\n        /* \"#utility.yul\":6717:6985   */\n      pop\n        /* \"#utility.yul\":7075:7079   */\n      0x20\n        /* \"#utility.yul\":7068:7073   */\n      dup4\n        /* \"#utility.yul\":7064:7080   */\n      add\n        /* \"#utility.yul\":7058:7081   */\n      mload\n        /* \"#utility.yul\":7094:7157   */\n      tag_613\n        /* \"#utility.yul\":7151:7155   */\n      0x20\n        /* \"#utility.yul\":7146:7149   */\n      dup7\n        /* \"#utility.yul\":7142:7156   */\n      add\n        /* \"#utility.yul\":7128:7140   */\n      dup3\n        /* \"#utility.yul\":7094:7157   */\n      tag_498\n      jump\t// in\n    tag_613:\n        /* \"#utility.yul\":6995:7167   */\n      pop\n        /* \"#utility.yul\":7253:7257   */\n      0x40\n        /* \"#utility.yul\":7246:7251   */\n      dup4\n        /* \"#utility.yul\":7242:7258   */\n      add\n        /* \"#utility.yul\":7236:7259   */\n      mload\n        /* \"#utility.yul\":7272:7329   */\n      tag_614\n        /* \"#utility.yul\":7323:7327   */\n      0x40\n        /* \"#utility.yul\":7318:7321   */\n      dup7\n        /* \"#utility.yul\":7314:7328   */\n      add\n        /* \"#utility.yul\":7300:7312   */\n      dup3\n        /* \"#utility.yul\":7272:7329   */\n      tag_499\n      jump\t// in\n    tag_614:\n        /* \"#utility.yul\":7177:7339   */\n      pop\n        /* \"#utility.yul\":7356:7360   */\n      dup1\n        /* \"#utility.yul\":7349:7360   */\n      swap2\n      pop\n        /* \"#utility.yul\":6671:7366   */\n      pop\n        /* \"#utility.yul\":6543:7366   */\n      swap3\n      swap2\n      pop\n      pop\n      jump\t// out\n        /* \"#utility.yul\":7372:7753   */\n    tag_43:\n        /* \"#utility.yul\":7519:7523   */\n      0x00\n        /* \"#utility.yul\":7557:7559   */\n      0x20\n        /* \"#utility.yul\":7546:7555   */\n      dup3\n        /* \"#utility.yul\":7542:7560   */\n      add\n        /* \"#utility.yul\":7534:7560   */\n      swap1\n      pop\n        /* \"#utility.yul\":7606:7615   */\n      dup2\n        /* \"#utility.yul\":7600:7604   */\n      dup2\n        /* \"#utility.yul\":7596:7616   */\n      sub\n        /* \"#utility.yul\":7592:7593   */\n      0x00\n        /* \"#utility.yul\":7581:7590   */\n      dup4\n        /* \"#utility.yul\":7577:7594   */\n      add\n        /* \"#utility.yul\":7570:7617   */\n      mstore\n        /* \"#utility.yul\":7634:7746   */\n      tag_616\n        /* \"#utility.yul\":7741:7745   */\n      dup2\n        /* \"#utility.yul\":7732:7738   */\n      dup5\n        /* \"#utility.yul\":7634:7746   */\n      tag_500\n      jump\t// in\n    tag_616:\n        /* \"#utility.yul\":7626:7746   */\n      swap1\n      pop\n        /* \"#utility.yul\":7372:7753   */\n      swap3\n      swap2\n      pop\n      pop\n      jump\t// out\n        /* \"#utility.yul\":7759:7877   */\n    tag_501:\n        /* \"#utility.yul\":7846:7870   */\n      tag_618\n        /* \"#utility.yul\":7864:7869   */\n      dup2\n        /* \"#utility.yul\":7846:7870   */\n      tag_497\n      jump\t// in\n    tag_618:\n        /* \"#utility.yul\":7841:7844   */\n      dup3\n        /* \"#utility.yul\":7834:7871   */\n      mstore\n        /* \"#utility.yul\":7759:7877   */\n      pop\n      pop\n      jump\t// out\n        /* \"#utility.yul\":7883:8105   */\n    tag_47:\n        /* \"#utility.yul\":7976:7980   */\n      0x00\n        /* \"#utility.yul\":8014:8016   */\n      0x20\n        /* \"#utility.yul\":8003:8012   */\n      dup3\n        /* \"#utility.yul\":7999:8017   */\n      add\n        /* \"#utility.yul\":7991:8017   */\n      swap1\n      pop\n        /* \"#utility.yul\":8027:8098   */\n      tag_620\n        /* \"#utility.yul\":8095:8096   */\n      0x00\n        /* \"#utility.yul\":8084:8093   */\n      dup4\n        /* \"#utility.yul\":8080:8097   */\n      add\n        /* \"#utility.yul\":8071:8077   */\n      dup5\n        /* \"#utility.yul\":8027:8098   */\n      tag_501\n      jump\t// in\n    tag_620:\n        /* \"#utility.yul\":7883:8105   */\n      swap3\n      swap2\n      pop\n      pop\n      jump\t// out\n        /* \"#utility.yul\":8111:8228   */\n    tag_502:\n        /* \"#utility.yul\":8220:8221   */\n      0x00\n        /* \"#utility.yul\":8217:8218   */\n      dup1\n        /* \"#utility.yul\":8210:8222   */\n      revert\n        /* \"#utility.yul\":8234:8351   */\n    tag_503:\n        /* \"#utility.yul\":8343:8344   */\n      0x00\n        /* \"#utility.yul\":8340:8341   */\n      dup1\n        /* \"#utility.yul\":8333:8345   */\n      revert\n        /* \"#utility.yul\":8357:8479   */\n    tag_504:\n        /* \"#utility.yul\":8430:8454   */\n      tag_624\n        /* \"#utility.yul\":8448:8453   */\n      dup2\n        /* \"#utility.yul\":8430:8454   */\n      tag_497\n      jump\t// in\n    tag_624:\n        /* \"#utility.yul\":8423:8428   */\n      dup2\n        /* \"#utility.yul\":8420:8455   */\n      eq\n        /* \"#utility.yul\":8410:8473   */\n      tag_625\n      jumpi\n        /* \"#utility.yul\":8469:8470   */\n      0x00\n        /* \"#utility.yul\":8466:8467   */\n      dup1\n        /* \"#utility.yul\":8459:8471   */\n      revert\n        /* \"#utility.yul\":8410:8473   */\n    tag_625:\n        /* \"#utility.yul\":8357:8479   */\n      pop\n      jump\t// out\n        /* \"#utility.yul\":8485:8624   */\n    tag_505:\n        /* \"#utility.yul\":8531:8536   */\n      0x00\n        /* \"#utility.yul\":8569:8575   */\n      dup2\n        /* \"#utility.yul\":8556:8576   */\n      calldataload\n        /* \"#utility.yul\":8547:8576   */\n      swap1\n      pop\n        /* \"#utility.yul\":8585:8618   */\n      tag_627\n        /* \"#utility.yul\":8612:8617   */\n      dup2\n        /* \"#utility.yul\":8585:8618   */\n      tag_504\n      jump\t// in\n    tag_627:\n        /* \"#utility.yul\":8485:8624   */\n      swap3\n      swap2\n      pop\n      pop\n      jump\t// out\n        /* \"#utility.yul\":8630:8746   */\n    tag_506:\n        /* \"#utility.yul\":8700:8721   */\n      tag_629\n        /* \"#utility.yul\":8715:8720   */\n      dup2\n        /* \"#utility.yul\":8700:8721   */\n      tag_480\n      jump\t// in\n    tag_629:\n        /* \"#utility.yul\":8693:8698   */\n      dup2\n        /* \"#utility.yul\":8690:8722   */\n      eq\n        /* \"#utility.yul\":8680:8740   */\n      tag_630\n      jumpi\n        /* \"#utility.yul\":8736:8737   */\n      0x00\n        /* \"#utility.yul\":8733:8734   */\n      dup1\n        /* \"#utility.yul\":8726:8738   */\n      revert\n        /* \"#utility.yul\":8680:8740   */\n    tag_630:\n        /* \"#utility.yul\":8630:8746   */\n      pop\n      jump\t// out\n        /* \"#utility.yul\":8752:8885   */\n    tag_507:\n        /* \"#utility.yul\":8795:8800   */\n      0x00\n        /* \"#utility.yul\":8833:8839   */\n      dup2\n        /* \"#utility.yul\":8820:8840   */\n      calldataload\n        /* \"#utility.yul\":8811:8840   */\n      swap1\n      pop\n        /* \"#utility.yul\":8849:8879   */\n      tag_632\n        /* \"#utility.yul\":8873:8878   */\n      dup2\n        /* \"#utility.yul\":8849:8879   */\n      tag_506\n      jump\t// in\n    tag_632:\n        /* \"#utility.yul\":8752:8885   */\n      swap3\n      swap2\n      pop\n      pop\n      jump\t// out\n        /* \"#utility.yul\":8935:9869   */\n    tag_508:\n        /* \"#utility.yul\":9011:9016   */\n      0x00\n        /* \"#utility.yul\":9055:9059   */\n      0x60\n        /* \"#utility.yul\":9043:9052   */\n      dup3\n        /* \"#utility.yul\":9038:9041   */\n      dup5\n        /* \"#utility.yul\":9034:9053   */\n      sub\n        /* \"#utility.yul\":9030:9060   */\n      slt\n        /* \"#utility.yul\":9027:9144   */\n      iszero\n      tag_634\n      jumpi\n        /* \"#utility.yul\":9063:9142   */\n      tag_635\n      tag_502\n      jump\t// in\n    tag_635:\n        /* \"#utility.yul\":9027:9144   */\n    tag_634:\n        /* \"#utility.yul\":9162:9183   */\n      tag_636\n        /* \"#utility.yul\":9178:9182   */\n      0x60\n        /* \"#utility.yul\":9162:9183   */\n      tag_485\n      jump\t// in\n    tag_636:\n        /* \"#utility.yul\":9153:9183   */\n      swap1\n      pop\n        /* \"#utility.yul\":9273:9274   */\n      0x00\n        /* \"#utility.yul\":9262:9271   */\n      dup3\n        /* \"#utility.yul\":9258:9275   */\n      add\n        /* \"#utility.yul\":9245:9276   */\n      calldataload\n        /* \"#utility.yul\":9303:9321   */\n      0xffffffffffffffff\n        /* \"#utility.yul\":9295:9301   */\n      dup2\n        /* \"#utility.yul\":9292:9322   */\n      gt\n        /* \"#utility.yul\":9289:9406   */\n      iszero\n      tag_637\n      jumpi\n        /* \"#utility.yul\":9325:9404   */\n      tag_638\n      tag_503\n      jump\t// in\n    tag_638:\n        /* \"#utility.yul\":9289:9406   */\n    tag_637:\n        /* \"#utility.yul\":9445:9519   */\n      tag_639\n        /* \"#utility.yul\":9515:9518   */\n      dup5\n        /* \"#utility.yul\":9506:9512   */\n      dup3\n        /* \"#utility.yul\":9495:9504   */\n      dup6\n        /* \"#utility.yul\":9491:9513   */\n      add\n        /* \"#utility.yul\":9445:9519   */\n      tag_489\n      jump\t// in\n    tag_639:\n        /* \"#utility.yul\":9438:9442   */\n      0x00\n        /* \"#utility.yul\":9431:9436   */\n      dup4\n        /* \"#utility.yul\":9427:9443   */\n      add\n        /* \"#utility.yul\":9420:9520   */\n      mstore\n        /* \"#utility.yul\":9193:9531   */\n      pop\n        /* \"#utility.yul\":9598:9600   */\n      0x20\n        /* \"#utility.yul\":9639:9688   */\n      tag_640\n        /* \"#utility.yul\":9684:9687   */\n      dup5\n        /* \"#utility.yul\":9675:9681   */\n      dup3\n        /* \"#utility.yul\":9664:9673   */\n      dup6\n        /* \"#utility.yul\":9660:9682   */\n      add\n        /* \"#utility.yul\":9639:9688   */\n      tag_505\n      jump\t// in\n    tag_640:\n        /* \"#utility.yul\":9632:9636   */\n      0x20\n        /* \"#utility.yul\":9625:9630   */\n      dup4\n        /* \"#utility.yul\":9621:9637   */\n      add\n        /* \"#utility.yul\":9614:9689   */\n      mstore\n        /* \"#utility.yul\":9541:9700   */\n      pop\n        /* \"#utility.yul\":9763:9765   */\n      0x40\n        /* \"#utility.yul\":9804:9850   */\n      tag_641\n        /* \"#utility.yul\":9846:9849   */\n      dup5\n        /* \"#utility.yul\":9837:9843   */\n      dup3\n        /* \"#utility.yul\":9826:9835   */\n      dup6\n        /* \"#utility.yul\":9822:9844   */\n      add\n        /* \"#utility.yul\":9804:9850   */\n      tag_507\n      jump\t// in\n    tag_641:\n        /* \"#utility.yul\":9797:9801   */\n      0x40\n        /* \"#utility.yul\":9790:9795   */\n      dup4\n        /* \"#utility.yul\":9786:9802   */\n      add\n        /* \"#utility.yul\":9779:9851   */\n      mstore\n        /* \"#utility.yul\":9710:9862   */\n      pop\n        /* \"#utility.yul\":8935:9869   */\n      swap3\n      swap2\n      pop\n      pop\n      jump\t// out\n        /* \"#utility.yul\":9875:10563   */\n    tag_54:\n        /* \"#utility.yul\":9970:9976   */\n      0x00\n        /* \"#utility.yul\":9978:9984   */\n      dup1\n        /* \"#utility.yul\":10027:10029   */\n      0x40\n        /* \"#utility.yul\":10015:10024   */\n      dup4\n        /* \"#utility.yul\":10006:10013   */\n      dup6\n        /* \"#utility.yul\":10002:10025   */\n      sub\n        /* \"#utility.yul\":9998:10030   */\n      slt\n        /* \"#utility.yul\":9995:10114   */\n      iszero\n      tag_643\n      jumpi\n        /* \"#utility.yul\":10033:10112   */\n      tag_644\n      tag_474\n      jump\t// in\n    tag_644:\n        /* \"#utility.yul\":9995:10114   */\n    tag_643:\n        /* \"#utility.yul\":10153:10154   */\n      0x00\n        /* \"#utility.yul\":10178:10231   */\n      tag_645\n        /* \"#utility.yul\":10223:10230   */\n      dup6\n        /* \"#utility.yul\":10214:10220   */\n      dup3\n        /* \"#utility.yul\":10203:10212   */\n      dup7\n        /* \"#utility.yul\":10199:10221   */\n      add\n        /* \"#utility.yul\":10178:10231   */\n      tag_479\n      jump\t// in\n    tag_645:\n        /* \"#utility.yul\":10168:10231   */\n      swap3\n      pop\n        /* \"#utility.yul\":10124:10241   */\n      pop\n        /* \"#utility.yul\":10308:10310   */\n      0x20\n        /* \"#utility.yul\":10297:10306   */\n      dup4\n        /* \"#utility.yul\":10293:10311   */\n      add\n        /* \"#utility.yul\":10280:10312   */\n      calldataload\n        /* \"#utility.yul\":10339:10357   */\n      0xffffffffffffffff\n        /* \"#utility.yul\":10331:10337   */\n      dup2\n        /* \"#utility.yul\":10328:10358   */\n      gt\n        /* \"#utility.yul\":10325:10442   */\n      iszero\n      tag_646\n      jumpi\n        /* \"#utility.yul\":10361:10440   */\n      tag_647\n      tag_475\n      jump\t// in\n    tag_647:\n        /* \"#utility.yul\":10325:10442   */\n    tag_646:\n        /* \"#utility.yul\":10466:10546   */\n      tag_648\n        /* \"#utility.yul\":10538:10545   */\n      dup6\n        /* \"#utility.yul\":10529:10535   */\n      dup3\n        /* \"#utility.yul\":10518:10527   */\n      dup7\n        /* \"#utility.yul\":10514:10536   */\n      add\n        /* \"#utility.yul\":10466:10546   */\n      tag_508\n      jump\t// in\n    tag_648:\n        /* \"#utility.yul\":10456:10546   */\n      swap2\n      pop\n        /* \"#utility.yul\":10251:10556   */\n      pop\n        /* \"#utility.yul\":9875:10563   */\n      swap3\n      pop\n      swap3\n      swap1\n      pop\n      jump\t// out\n        /* \"#utility.yul\":10569:10668   */\n    tag_509:\n        /* \"#utility.yul\":10621:10627   */\n      0x00\n        /* \"#utility.yul\":10655:10660   */\n      dup2\n        /* \"#utility.yul\":10649:10661   */\n      mload\n        /* \"#utility.yul\":10639:10661   */\n      swap1\n      pop\n        /* \"#utility.yul\":10569:10668   */\n      swap2\n      swap1\n      pop\n      jump\t// out\n        /* \"#utility.yul\":10674:10833   */\n    tag_510:\n        /* \"#utility.yul\":10748:10759   */\n      0x00\n        /* \"#utility.yul\":10782:10788   */\n      dup3\n        /* \"#utility.yul\":10777:10780   */\n      dup3\n        /* \"#utility.yul\":10770:10789   */\n      mstore\n        /* \"#utility.yul\":10822:10826   */\n      0x20\n        /* \"#utility.yul\":10817:10820   */\n      dup3\n        /* \"#utility.yul\":10813:10827   */\n      add\n        /* \"#utility.yul\":10798:10827   */\n      swap1\n      pop\n        /* \"#utility.yul\":10674:10833   */\n      swap3\n      swap2\n      pop\n      pop\n      jump\t// out\n        /* \"#utility.yul\":10839:11146   */\n    tag_511:\n        /* \"#utility.yul\":10907:10908   */\n      0x00\n        /* \"#utility.yul\":10917:11030   */\n    tag_652:\n        /* \"#utility.yul\":10931:10937   */\n      dup4\n        /* \"#utility.yul\":10928:10929   */\n      dup2\n        /* \"#utility.yul\":10925:10938   */\n      lt\n        /* \"#utility.yul\":10917:11030   */\n      iszero\n      tag_654\n      jumpi\n        /* \"#utility.yul\":11016:11017   */\n      dup1\n        /* \"#utility.yul\":11011:11014   */\n      dup3\n        /* \"#utility.yul\":11007:11018   */\n      add\n        /* \"#utility.yul\":11001:11019   */\n      mload\n        /* \"#utility.yul\":10997:10998   */\n      dup2\n        /* \"#utility.yul\":10992:10995   */\n      dup5\n        /* \"#utility.yul\":10988:10999   */\n      add\n        /* \"#utility.yul\":10981:11020   */\n      mstore\n        /* \"#utility.yul\":10953:10955   */\n      0x20\n        /* \"#utility.yul\":10950:10951   */\n      dup2\n        /* \"#utility.yul\":10946:10956   */\n      add\n        /* \"#utility.yul\":10941:10956   */\n      swap1\n      pop\n        /* \"#utility.yul\":10917:11030   */\n      jump(tag_652)\n    tag_654:\n        /* \"#utility.yul\":11048:11054   */\n      dup4\n        /* \"#utility.yul\":11045:11046   */\n      dup2\n        /* \"#utility.yul\":11042:11055   */\n      gt\n        /* \"#utility.yul\":11039:11140   */\n      iszero\n      tag_655\n      jumpi\n        /* \"#utility.yul\":11128:11129   */\n      0x00\n        /* \"#utility.yul\":11119:11125   */\n      dup5\n        /* \"#utility.yul\":11114:11117   */\n      dup5\n        /* \"#utility.yul\":11110:11126   */\n      add\n        /* \"#utility.yul\":11103:11130   */\n      mstore\n        /* \"#utility.yul\":11039:11140   */\n    tag_655:\n        /* \"#utility.yul\":10888:11146   */\n      pop\n        /* \"#utility.yul\":10839:11146   */\n      pop\n      pop\n      pop\n      jump\t// out\n        /* \"#utility.yul\":11152:11496   */\n    tag_512:\n        /* \"#utility.yul\":11230:11233   */\n      0x00\n        /* \"#utility.yul\":11258:11297   */\n      tag_657\n        /* \"#utility.yul\":11291:11296   */\n      dup3\n        /* \"#utility.yul\":11258:11297   */\n      tag_509\n      jump\t// in\n    tag_657:\n        /* \"#utility.yul\":11313:11374   */\n      tag_658\n        /* \"#utility.yul\":11367:11373   */\n      dup2\n        /* \"#utility.yul\":11362:11365   */\n      dup6\n        /* \"#utility.yul\":11313:11374   */\n      tag_510\n      jump\t// in\n    tag_658:\n        /* \"#utility.yul\":11306:11374   */\n      swap4\n      pop\n        /* \"#utility.yul\":11383:11435   */\n      tag_659\n        /* \"#utility.yul\":11428:11434   */\n      dup2\n        /* \"#utility.yul\":11423:11426   */\n      dup6\n        /* \"#utility.yul\":11416:11420   */\n      0x20\n        /* \"#utility.yul\":11409:11414   */\n      dup7\n        /* \"#utility.yul\":11405:11421   */\n      add\n        /* \"#utility.yul\":11383:11435   */\n      tag_511\n      jump\t// in\n    tag_659:\n        /* \"#utility.yul\":11460:11489   */\n      tag_660\n        /* \"#utility.yul\":11482:11488   */\n      dup2\n        /* \"#utility.yul\":11460:11489   */\n      tag_483\n      jump\t// in\n    tag_660:\n        /* \"#utility.yul\":11455:11458   */\n      dup5\n        /* \"#utility.yul\":11451:11490   */\n      add\n        /* \"#utility.yul\":11444:11490   */\n      swap2\n      pop\n        /* \"#utility.yul\":11234:11496   */\n      pop\n        /* \"#utility.yul\":11152:11496   */\n      swap3\n      swap2\n      pop\n      pop\n      jump\t// out\n        /* \"#utility.yul\":11578:12417   */\n    tag_513:\n        /* \"#utility.yul\":11711:11715   */\n      0x80\n        /* \"#utility.yul\":11706:11709   */\n      dup3\n        /* \"#utility.yul\":11702:11716   */\n      add\n        /* \"#utility.yul\":11802:11806   */\n      0x00\n        /* \"#utility.yul\":11795:11800   */\n      dup3\n        /* \"#utility.yul\":11791:11807   */\n      add\n        /* \"#utility.yul\":11785:11808   */\n      mload\n        /* \"#utility.yul\":11821:11878   */\n      tag_662\n        /* \"#utility.yul\":11872:11876   */\n      0x00\n        /* \"#utility.yul\":11867:11870   */\n      dup6\n        /* \"#utility.yul\":11863:11877   */\n      add\n        /* \"#utility.yul\":11849:11861   */\n      dup3\n        /* \"#utility.yul\":11821:11878   */\n      tag_499\n      jump\t// in\n    tag_662:\n        /* \"#utility.yul\":11726:11888   */\n      pop\n        /* \"#utility.yul\":11981:11985   */\n      0x20\n        /* \"#utility.yul\":11974:11979   */\n      dup3\n        /* \"#utility.yul\":11970:11986   */\n      add\n        /* \"#utility.yul\":11964:11987   */\n      mload\n        /* \"#utility.yul\":12000:12057   */\n      tag_663\n        /* \"#utility.yul\":12051:12055   */\n      0x20\n        /* \"#utility.yul\":12046:12049   */\n      dup6\n        /* \"#utility.yul\":12042:12056   */\n      add\n        /* \"#utility.yul\":12028:12040   */\n      dup3\n        /* \"#utility.yul\":12000:12057   */\n      tag_499\n      jump\t// in\n    tag_663:\n        /* \"#utility.yul\":11898:12067   */\n      pop\n        /* \"#utility.yul\":12153:12157   */\n      0x40\n        /* \"#utility.yul\":12146:12151   */\n      dup3\n        /* \"#utility.yul\":12142:12158   */\n      add\n        /* \"#utility.yul\":12136:12159   */\n      mload\n        /* \"#utility.yul\":12172:12229   */\n      tag_664\n        /* \"#utility.yul\":12223:12227   */\n      0x40\n        /* \"#utility.yul\":12218:12221   */\n      dup6\n        /* \"#utility.yul\":12214:12228   */\n      add\n        /* \"#utility.yul\":12200:12212   */\n      dup3\n        /* \"#utility.yul\":12172:12229   */\n      tag_499\n      jump\t// in\n    tag_664:\n        /* \"#utility.yul\":12077:12239   */\n      pop\n        /* \"#utility.yul\":12324:12328   */\n      0x60\n        /* \"#utility.yul\":12317:12322   */\n      dup3\n        /* \"#utility.yul\":12313:12329   */\n      add\n        /* \"#utility.yul\":12307:12330   */\n      mload\n        /* \"#utility.yul\":12343:12400   */\n      tag_665\n        /* \"#utility.yul\":12394:12398   */\n      0x60\n        /* \"#utility.yul\":12389:12392   */\n      dup6\n        /* \"#utility.yul\":12385:12399   */\n      add\n        /* \"#utility.yul\":12371:12383   */\n      dup3\n        /* \"#utility.yul\":12343:12400   */\n      tag_499\n      jump\t// in\n    tag_665:\n        /* \"#utility.yul\":12249:12410   */\n      pop\n        /* \"#utility.yul\":11680:12417   */\n      pop\n        /* \"#utility.yul\":11578:12417   */\n      pop\n      pop\n      jump\t// out\n        /* \"#utility.yul\":12493:13998   */\n    tag_514:\n        /* \"#utility.yul\":12602:12605   */\n      0x00\n        /* \"#utility.yul\":12638:12644   */\n      0x0120\n        /* \"#utility.yul\":12633:12636   */\n      dup4\n        /* \"#utility.yul\":12629:12645   */\n      add\n        /* \"#utility.yul\":12734:12738   */\n      0x00\n        /* \"#utility.yul\":12727:12732   */\n      dup4\n        /* \"#utility.yul\":12723:12739   */\n      add\n        /* \"#utility.yul\":12717:12740   */\n      mload\n        /* \"#utility.yul\":12753:12816   */\n      tag_667\n        /* \"#utility.yul\":12810:12814   */\n      0x00\n        /* \"#utility.yul\":12805:12808   */\n      dup7\n        /* \"#utility.yul\":12801:12815   */\n      add\n        /* \"#utility.yul\":12787:12799   */\n      dup3\n        /* \"#utility.yul\":12753:12816   */\n      tag_493\n      jump\t// in\n    tag_667:\n        /* \"#utility.yul\":12655:12826   */\n      pop\n        /* \"#utility.yul\":12913:12917   */\n      0x20\n        /* \"#utility.yul\":12906:12911   */\n      dup4\n        /* \"#utility.yul\":12902:12918   */\n      add\n        /* \"#utility.yul\":12896:12919   */\n      mload\n        /* \"#utility.yul\":12966:12969   */\n      dup5\n        /* \"#utility.yul\":12960:12964   */\n      dup3\n        /* \"#utility.yul\":12956:12970   */\n      sub\n        /* \"#utility.yul\":12949:12953   */\n      0x20\n        /* \"#utility.yul\":12944:12947   */\n      dup7\n        /* \"#utility.yul\":12940:12954   */\n      add\n        /* \"#utility.yul\":12933:12971   */\n      mstore\n        /* \"#utility.yul\":12992:13065   */\n      tag_668\n        /* \"#utility.yul\":13060:13064   */\n      dup3\n        /* \"#utility.yul\":13046:13058   */\n      dup3\n        /* \"#utility.yul\":12992:13065   */\n      tag_512\n      jump\t// in\n    tag_668:\n        /* \"#utility.yul\":12984:13065   */\n      swap2\n      pop\n        /* \"#utility.yul\":12836:13076   */\n      pop\n        /* \"#utility.yul\":13162:13166   */\n      0x40\n        /* \"#utility.yul\":13155:13160   */\n      dup4\n        /* \"#utility.yul\":13151:13167   */\n      add\n        /* \"#utility.yul\":13145:13168   */\n      mload\n        /* \"#utility.yul\":13215:13218   */\n      dup5\n        /* \"#utility.yul\":13209:13213   */\n      dup3\n        /* \"#utility.yul\":13205:13219   */\n      sub\n        /* \"#utility.yul\":13198:13202   */\n      0x40\n        /* \"#utility.yul\":13193:13196   */\n      dup7\n        /* \"#utility.yul\":13189:13203   */\n      add\n        /* \"#utility.yul\":13182:13220   */\n      mstore\n        /* \"#utility.yul\":13241:13314   */\n      tag_669\n        /* \"#utility.yul\":13309:13313   */\n      dup3\n        /* \"#utility.yul\":13295:13307   */\n      dup3\n        /* \"#utility.yul\":13241:13314   */\n      tag_512\n      jump\t// in\n    tag_669:\n        /* \"#utility.yul\":13233:13314   */\n      swap2\n      pop\n        /* \"#utility.yul\":13086:13325   */\n      pop\n        /* \"#utility.yul\":13413:13417   */\n      0x60\n        /* \"#utility.yul\":13406:13411   */\n      dup4\n        /* \"#utility.yul\":13402:13418   */\n      add\n        /* \"#utility.yul\":13396:13419   */\n      mload\n        /* \"#utility.yul\":13466:13469   */\n      dup5\n        /* \"#utility.yul\":13460:13464   */\n      dup3\n        /* \"#utility.yul\":13456:13470   */\n      sub\n        /* \"#utility.yul\":13449:13453   */\n      0x60\n        /* \"#utility.yul\":13444:13447   */\n      dup7\n        /* \"#utility.yul\":13440:13454   */\n      add\n        /* \"#utility.yul\":13433:13471   */\n      mstore\n        /* \"#utility.yul\":13492:13565   */\n      tag_670\n        /* \"#utility.yul\":13560:13564   */\n      dup3\n        /* \"#utility.yul\":13546:13558   */\n      dup3\n        /* \"#utility.yul\":13492:13565   */\n      tag_512\n      jump\t// in\n    tag_670:\n        /* \"#utility.yul\":13484:13565   */\n      swap2\n      pop\n        /* \"#utility.yul\":13335:13576   */\n      pop\n        /* \"#utility.yul\":13662:13666   */\n      0x80\n        /* \"#utility.yul\":13655:13660   */\n      dup4\n        /* \"#utility.yul\":13651:13667   */\n      add\n        /* \"#utility.yul\":13645:13668   */\n      mload\n        /* \"#utility.yul\":13681:13738   */\n      tag_671\n        /* \"#utility.yul\":13732:13736   */\n      0x80\n        /* \"#utility.yul\":13727:13730   */\n      dup7\n        /* \"#utility.yul\":13723:13737   */\n      add\n        /* \"#utility.yul\":13709:13721   */\n      dup3\n        /* \"#utility.yul\":13681:13738   */\n      tag_499\n      jump\t// in\n    tag_671:\n        /* \"#utility.yul\":13586:13748   */\n      pop\n        /* \"#utility.yul\":13833:13837   */\n      0xa0\n        /* \"#utility.yul\":13826:13831   */\n      dup4\n        /* \"#utility.yul\":13822:13838   */\n      add\n        /* \"#utility.yul\":13816:13839   */\n      mload\n        /* \"#utility.yul\":13852:13961   */\n      tag_672\n        /* \"#utility.yul\":13955:13959   */\n      0xa0\n        /* \"#utility.yul\":13950:13953   */\n      dup7\n        /* \"#utility.yul\":13946:13960   */\n      add\n        /* \"#utility.yul\":13932:13944   */\n      dup3\n        /* \"#utility.yul\":13852:13961   */\n      tag_513\n      jump\t// in\n    tag_672:\n        /* \"#utility.yul\":13758:13971   */\n      pop\n        /* \"#utility.yul\":13988:13992   */\n      dup1\n        /* \"#utility.yul\":13981:13992   */\n      swap2\n      pop\n        /* \"#utility.yul\":12607:13998   */\n      pop\n        /* \"#utility.yul\":12493:13998   */\n      swap3\n      swap2\n      pop\n      pop\n      jump\t// out\n        /* \"#utility.yul\":14004:14357   */\n    tag_60:\n        /* \"#utility.yul\":14137:14141   */\n      0x00\n        /* \"#utility.yul\":14175:14177   */\n      0x20\n        /* \"#utility.yul\":14164:14173   */\n      dup3\n        /* \"#utility.yul\":14160:14178   */\n      add\n        /* \"#utility.yul\":14152:14178   */\n      swap1\n      pop\n        /* \"#utility.yul\":14224:14233   */\n      dup2\n        /* \"#utility.yul\":14218:14222   */\n      dup2\n        /* \"#utility.yul\":14214:14234   */\n      sub\n        /* \"#utility.yul\":14210:14211   */\n      0x00\n        /* \"#utility.yul\":14199:14208   */\n      dup4\n        /* \"#utility.yul\":14195:14212   */\n      add\n        /* \"#utility.yul\":14188:14235   */\n      mstore\n        /* \"#utility.yul\":14252:14350   */\n      tag_674\n        /* \"#utility.yul\":14345:14349   */\n      dup2\n        /* \"#utility.yul\":14336:14342   */\n      dup5\n        /* \"#utility.yul\":14252:14350   */\n      tag_514\n      jump\t// in\n    tag_674:\n        /* \"#utility.yul\":14244:14350   */\n      swap1\n      pop\n        /* \"#utility.yul\":14004:14357   */\n      swap3\n      swap2\n      pop\n      pop\n      jump\t// out\n        /* \"#utility.yul\":14403:15333   */\n    tag_515:\n        /* \"#utility.yul\":14475:14480   */\n      0x00\n        /* \"#utility.yul\":14519:14523   */\n      0x60\n        /* \"#utility.yul\":14507:14516   */\n      dup3\n        /* \"#utility.yul\":14502:14505   */\n      dup5\n        /* \"#utility.yul\":14498:14517   */\n      sub\n        /* \"#utility.yul\":14494:14524   */\n      slt\n        /* \"#utility.yul\":14491:14608   */\n      iszero\n      tag_676\n      jumpi\n        /* \"#utility.yul\":14527:14606   */\n      tag_677\n      tag_502\n      jump\t// in\n    tag_677:\n        /* \"#utility.yul\":14491:14608   */\n    tag_676:\n        /* \"#utility.yul\":14626:14647   */\n      tag_678\n        /* \"#utility.yul\":14642:14646   */\n      0x60\n        /* \"#utility.yul\":14626:14647   */\n      tag_485\n      jump\t// in\n    tag_678:\n        /* \"#utility.yul\":14617:14647   */\n      swap1\n      pop\n        /* \"#utility.yul\":14737:14738   */\n      0x00\n        /* \"#utility.yul\":14726:14735   */\n      dup3\n        /* \"#utility.yul\":14722:14739   */\n      add\n        /* \"#utility.yul\":14709:14740   */\n      calldataload\n        /* \"#utility.yul\":14767:14785   */\n      0xffffffffffffffff\n        /* \"#utility.yul\":14759:14765   */\n      dup2\n        /* \"#utility.yul\":14756:14786   */\n      gt\n        /* \"#utility.yul\":14753:14870   */\n      iszero\n      tag_679\n      jumpi\n        /* \"#utility.yul\":14789:14868   */\n      tag_680\n      tag_503\n      jump\t// in\n    tag_680:\n        /* \"#utility.yul\":14753:14870   */\n    tag_679:\n        /* \"#utility.yul\":14909:14983   */\n      tag_681\n        /* \"#utility.yul\":14979:14982   */\n      dup5\n        /* \"#utility.yul\":14970:14976   */\n      dup3\n        /* \"#utility.yul\":14959:14968   */\n      dup6\n        /* \"#utility.yul\":14955:14977   */\n      add\n        /* \"#utility.yul\":14909:14983   */\n      tag_489\n      jump\t// in\n    tag_681:\n        /* \"#utility.yul\":14902:14906   */\n      0x00\n        /* \"#utility.yul\":14895:14900   */\n      dup4\n        /* \"#utility.yul\":14891:14907   */\n      add\n        /* \"#utility.yul\":14884:14984   */\n      mstore\n        /* \"#utility.yul\":14657:14995   */\n      pop\n        /* \"#utility.yul\":15062:15064   */\n      0x20\n        /* \"#utility.yul\":15103:15152   */\n      tag_682\n        /* \"#utility.yul\":15148:15151   */\n      dup5\n        /* \"#utility.yul\":15139:15145   */\n      dup3\n        /* \"#utility.yul\":15128:15137   */\n      dup6\n        /* \"#utility.yul\":15124:15146   */\n      add\n        /* \"#utility.yul\":15103:15152   */\n      tag_505\n      jump\t// in\n    tag_682:\n        /* \"#utility.yul\":15096:15100   */\n      0x20\n        /* \"#utility.yul\":15089:15094   */\n      dup4\n        /* \"#utility.yul\":15085:15101   */\n      add\n        /* \"#utility.yul\":15078:15153   */\n      mstore\n        /* \"#utility.yul\":15005:15164   */\n      pop\n        /* \"#utility.yul\":15227:15229   */\n      0x40\n        /* \"#utility.yul\":15268:15314   */\n      tag_683\n        /* \"#utility.yul\":15310:15313   */\n      dup5\n        /* \"#utility.yul\":15301:15307   */\n      dup3\n        /* \"#utility.yul\":15290:15299   */\n      dup6\n        /* \"#utility.yul\":15286:15308   */\n      add\n        /* \"#utility.yul\":15268:15314   */\n      tag_507\n      jump\t// in\n    tag_683:\n        /* \"#utility.yul\":15261:15265   */\n      0x40\n        /* \"#utility.yul\":15254:15259   */\n      dup4\n        /* \"#utility.yul\":15250:15266   */\n      add\n        /* \"#utility.yul\":15243:15315   */\n      mstore\n        /* \"#utility.yul\":15174:15326   */\n      pop\n        /* \"#utility.yul\":14403:15333   */\n      swap3\n      swap2\n      pop\n      pop\n      jump\t// out\n        /* \"#utility.yul\":15339:16019   */\n    tag_66:\n        /* \"#utility.yul\":15430:15436   */\n      0x00\n        /* \"#utility.yul\":15438:15444   */\n      dup1\n        /* \"#utility.yul\":15487:15489   */\n      0x40\n        /* \"#utility.yul\":15475:15484   */\n      dup4\n        /* \"#utility.yul\":15466:15473   */\n      dup6\n        /* \"#utility.yul\":15462:15485   */\n      sub\n        /* \"#utility.yul\":15458:15490   */\n      slt\n        /* \"#utility.yul\":15455:15574   */\n      iszero\n      tag_685\n      jumpi\n        /* \"#utility.yul\":15493:15572   */\n      tag_686\n      tag_474\n      jump\t// in\n    tag_686:\n        /* \"#utility.yul\":15455:15574   */\n    tag_685:\n        /* \"#utility.yul\":15613:15614   */\n      0x00\n        /* \"#utility.yul\":15638:15691   */\n      tag_687\n        /* \"#utility.yul\":15683:15690   */\n      dup6\n        /* \"#utility.yul\":15674:15680   */\n      dup3\n        /* \"#utility.yul\":15663:15672   */\n      dup7\n        /* \"#utility.yul\":15659:15681   */\n      add\n        /* \"#utility.yul\":15638:15691   */\n      tag_479\n      jump\t// in\n    tag_687:\n        /* \"#utility.yul\":15628:15691   */\n      swap3\n      pop\n        /* \"#utility.yul\":15584:15701   */\n      pop\n        /* \"#utility.yul\":15768:15770   */\n      0x20\n        /* \"#utility.yul\":15757:15766   */\n      dup4\n        /* \"#utility.yul\":15753:15771   */\n      add\n        /* \"#utility.yul\":15740:15772   */\n      calldataload\n        /* \"#utility.yul\":15799:15817   */\n      0xffffffffffffffff\n        /* \"#utility.yul\":15791:15797   */\n      dup2\n        /* \"#utility.yul\":15788:15818   */\n      gt\n        /* \"#utility.yul\":15785:15902   */\n      iszero\n      tag_688\n      jumpi\n        /* \"#utility.yul\":15821:15900   */\n      tag_689\n      tag_475\n      jump\t// in\n    tag_689:\n        /* \"#utility.yul\":15785:15902   */\n    tag_688:\n        /* \"#utility.yul\":15926:16002   */\n      tag_690\n        /* \"#utility.yul\":15994:16001   */\n      dup6\n        /* \"#utility.yul\":15985:15991   */\n      dup3\n        /* \"#utility.yul\":15974:15983   */\n      dup7\n        /* \"#utility.yul\":15970:15992   */\n      add\n        /* \"#utility.yul\":15926:16002   */\n      tag_515\n      jump\t// in\n    tag_690:\n        /* \"#utility.yul\":15916:16002   */\n      swap2\n      pop\n        /* \"#utility.yul\":15711:16012   */\n      pop\n        /* \"#utility.yul\":15339:16019   */\n      swap3\n      pop\n      swap3\n      swap1\n      pop\n      jump\t// out\n        /* \"#utility.yul\":16025:16143   */\n    tag_516:\n        /* \"#utility.yul\":16112:16136   */\n      tag_692\n        /* \"#utility.yul\":16130:16135   */\n      dup2\n        /* \"#utility.yul\":16112:16136   */\n      tag_477\n      jump\t// in\n    tag_692:\n        /* \"#utility.yul\":16107:16110   */\n      dup3\n        /* \"#utility.yul\":16100:16137   */\n      mstore\n        /* \"#utility.yul\":16025:16143   */\n      pop\n      pop\n      jump\t// out\n        /* \"#utility.yul\":16149:16371   */\n    tag_71:\n        /* \"#utility.yul\":16242:16246   */\n      0x00\n        /* \"#utility.yul\":16280:16282   */\n      0x20\n        /* \"#utility.yul\":16269:16278   */\n      dup3\n        /* \"#utility.yul\":16265:16283   */\n      add\n        /* \"#utility.yul\":16257:16283   */\n      swap1\n      pop\n        /* \"#utility.yul\":16293:16364   */\n      tag_694\n        /* \"#utility.yul\":16361:16362   */\n      0x00\n        /* \"#utility.yul\":16350:16359   */\n      dup4\n        /* \"#utility.yul\":16346:16363   */\n      add\n        /* \"#utility.yul\":16337:16343   */\n      dup5\n        /* \"#utility.yul\":16293:16364   */\n      tag_516\n      jump\t// in\n    tag_694:\n        /* \"#utility.yul\":16149:16371   */\n      swap3\n      swap2\n      pop\n      pop\n      jump\t// out\n        /* \"#utility.yul\":16453:17268   */\n    tag_517:\n        /* \"#utility.yul\":16568:16571   */\n      0x00\n        /* \"#utility.yul\":16604:16608   */\n      0x60\n        /* \"#utility.yul\":16599:16602   */\n      dup4\n        /* \"#utility.yul\":16595:16609   */\n      add\n        /* \"#utility.yul\":16694:16698   */\n      0x00\n        /* \"#utility.yul\":16687:16692   */\n      dup4\n        /* \"#utility.yul\":16683:16699   */\n      add\n        /* \"#utility.yul\":16677:16700   */\n      mload\n        /* \"#utility.yul\":16747:16750   */\n      dup5\n        /* \"#utility.yul\":16741:16745   */\n      dup3\n        /* \"#utility.yul\":16737:16751   */\n      sub\n        /* \"#utility.yul\":16730:16734   */\n      0x00\n        /* \"#utility.yul\":16725:16728   */\n      dup7\n        /* \"#utility.yul\":16721:16735   */\n      add\n        /* \"#utility.yul\":16714:16752   */\n      mstore\n        /* \"#utility.yul\":16773:16876   */\n      tag_696\n        /* \"#utility.yul\":16871:16875   */\n      dup3\n        /* \"#utility.yul\":16857:16869   */\n      dup3\n        /* \"#utility.yul\":16773:16876   */\n      tag_496\n      jump\t// in\n    tag_696:\n        /* \"#utility.yul\":16765:16876   */\n      swap2\n      pop\n        /* \"#utility.yul\":16619:16887   */\n      pop\n        /* \"#utility.yul\":16977:16981   */\n      0x20\n        /* \"#utility.yul\":16970:16975   */\n      dup4\n        /* \"#utility.yul\":16966:16982   */\n      add\n        /* \"#utility.yul\":16960:16983   */\n      mload\n        /* \"#utility.yul\":16996:17059   */\n      tag_697\n        /* \"#utility.yul\":17053:17057   */\n      0x20\n        /* \"#utility.yul\":17048:17051   */\n      dup7\n        /* \"#utility.yul\":17044:17058   */\n      add\n        /* \"#utility.yul\":17030:17042   */\n      dup3\n        /* \"#utility.yul\":16996:17059   */\n      tag_498\n      jump\t// in\n    tag_697:\n        /* \"#utility.yul\":16897:17069   */\n      pop\n        /* \"#utility.yul\":17155:17159   */\n      0x40\n        /* \"#utility.yul\":17148:17153   */\n      dup4\n        /* \"#utility.yul\":17144:17160   */\n      add\n        /* \"#utility.yul\":17138:17161   */\n      mload\n        /* \"#utility.yul\":17174:17231   */\n      tag_698\n        /* \"#utility.yul\":17225:17229   */\n      0x40\n        /* \"#utility.yul\":17220:17223   */\n      dup7\n        /* \"#utility.yul\":17216:17230   */\n      add\n        /* \"#utility.yul\":17202:17214   */\n      dup3\n        /* \"#utility.yul\":17174:17231   */\n      tag_499\n      jump\t// in\n    tag_698:\n        /* \"#utility.yul\":17079:17241   */\n      pop\n        /* \"#utility.yul\":17258:17262   */\n      dup1\n        /* \"#utility.yul\":17251:17262   */\n      swap2\n      pop\n        /* \"#utility.yul\":16573:17268   */\n      pop\n        /* \"#utility.yul\":16453:17268   */\n      swap3\n      swap2\n      pop\n      pop\n      jump\t// out\n        /* \"#utility.yul\":17274:17639   */\n    tag_77:\n        /* \"#utility.yul\":17413:17417   */\n      0x00\n        /* \"#utility.yul\":17451:17453   */\n      0x20\n        /* \"#utility.yul\":17440:17449   */\n      dup3\n        /* \"#utility.yul\":17436:17454   */\n      add\n        /* \"#utility.yul\":17428:17454   */\n      swap1\n      pop\n        /* \"#utility.yul\":17500:17509   */\n      dup2\n        /* \"#utility.yul\":17494:17498   */\n      dup2\n        /* \"#utility.yul\":17490:17510   */\n      sub\n        /* \"#utility.yul\":17486:17487   */\n      0x00\n        /* \"#utility.yul\":17475:17484   */\n      dup4\n        /* \"#utility.yul\":17471:17488   */\n      add\n        /* \"#utility.yul\":17464:17511   */\n      mstore\n        /* \"#utility.yul\":17528:17632   */\n      tag_700\n        /* \"#utility.yul\":17627:17631   */\n      dup2\n        /* \"#utility.yul\":17618:17624   */\n      dup5\n        /* \"#utility.yul\":17528:17632   */\n      tag_517\n      jump\t// in\n    tag_700:\n        /* \"#utility.yul\":17520:17632   */\n      swap1\n      pop\n        /* \"#utility.yul\":17274:17639   */\n      swap3\n      swap2\n      pop\n      pop\n      jump\t// out\n        /* \"#utility.yul\":17645:17762   */\n    tag_518:\n        /* \"#utility.yul\":17754:17755   */\n      0x00\n        /* \"#utility.yul\":17751:17752   */\n      dup1\n        /* \"#utility.yul\":17744:17756   */\n      revert\n        /* \"#utility.yul\":17768:18076   */\n    tag_519:\n        /* \"#utility.yul\":17830:17834   */\n      0x00\n        /* \"#utility.yul\":17920:17938   */\n      0xffffffffffffffff\n        /* \"#utility.yul\":17912:17918   */\n      dup3\n        /* \"#utility.yul\":17909:17939   */\n      gt\n        /* \"#utility.yul\":17906:17962   */\n      iszero\n      tag_703\n      jumpi\n        /* \"#utility.yul\":17942:17960   */\n      tag_704\n      tag_218\n      jump\t// in\n    tag_704:\n        /* \"#utility.yul\":17906:17962   */\n    tag_703:\n        /* \"#utility.yul\":17980:18009   */\n      tag_705\n        /* \"#utility.yul\":18002:18008   */\n      dup3\n        /* \"#utility.yul\":17980:18009   */\n      tag_483\n      jump\t// in\n    tag_705:\n        /* \"#utility.yul\":17972:18009   */\n      swap1\n      pop\n        /* \"#utility.yul\":18064:18068   */\n      0x20\n        /* \"#utility.yul\":18058:18062   */\n      dup2\n        /* \"#utility.yul\":18054:18069   */\n      add\n        /* \"#utility.yul\":18046:18069   */\n      swap1\n      pop\n        /* \"#utility.yul\":17768:18076   */\n      swap2\n      swap1\n      pop\n      jump\t// out\n        /* \"#utility.yul\":18082:18236   */\n    tag_520:\n        /* \"#utility.yul\":18166:18172   */\n      dup3\n        /* \"#utility.yul\":18161:18164   */\n      dup2\n        /* \"#utility.yul\":18156:18159   */\n      dup4\n        /* \"#utility.yul\":18143:18173   */\n      calldatacopy\n        /* \"#utility.yul\":18228:18229   */\n      0x00\n        /* \"#utility.yul\":18219:18225   */\n      dup4\n        /* \"#utility.yul\":18214:18217   */\n      dup4\n        /* \"#utility.yul\":18210:18226   */\n      add\n        /* \"#utility.yul\":18203:18230   */\n      mstore\n        /* \"#utility.yul\":18082:18236   */\n      pop\n      pop\n      pop\n      jump\t// out\n        /* \"#utility.yul\":18242:18654   */\n    tag_521:\n        /* \"#utility.yul\":18320:18325   */\n      0x00\n        /* \"#utility.yul\":18345:18411   */\n      tag_708\n        /* \"#utility.yul\":18361:18410   */\n      tag_709\n        /* \"#utility.yul\":18403:18409   */\n      dup5\n        /* \"#utility.yul\":18361:18410   */\n      tag_519\n      jump\t// in\n    tag_709:\n        /* \"#utility.yul\":18345:18411   */\n      tag_485\n      jump\t// in\n    tag_708:\n        /* \"#utility.yul\":18336:18411   */\n      swap1\n      pop\n        /* \"#utility.yul\":18434:18440   */\n      dup3\n        /* \"#utility.yul\":18427:18432   */\n      dup2\n        /* \"#utility.yul\":18420:18441   */\n      mstore\n        /* \"#utility.yul\":18472:18476   */\n      0x20\n        /* \"#utility.yul\":18465:18470   */\n      dup2\n        /* \"#utility.yul\":18461:18477   */\n      add\n        /* \"#utility.yul\":18510:18513   */\n      dup5\n        /* \"#utility.yul\":18501:18507   */\n      dup5\n        /* \"#utility.yul\":18496:18499   */\n      dup5\n        /* \"#utility.yul\":18492:18508   */\n      add\n        /* \"#utility.yul\":18489:18514   */\n      gt\n        /* \"#utility.yul\":18486:18598   */\n      iszero\n      tag_710\n      jumpi\n        /* \"#utility.yul\":18517:18596   */\n      tag_711\n      tag_518\n      jump\t// in\n    tag_711:\n        /* \"#utility.yul\":18486:18598   */\n    tag_710:\n        /* \"#utility.yul\":18607:18648   */\n      tag_712\n        /* \"#utility.yul\":18641:18647   */\n      dup5\n        /* \"#utility.yul\":18636:18639   */\n      dup3\n        /* \"#utility.yul\":18631:18634   */\n      dup6\n        /* \"#utility.yul\":18607:18648   */\n      tag_520\n      jump\t// in\n    tag_712:\n        /* \"#utility.yul\":18326:18654   */\n      pop\n        /* \"#utility.yul\":18242:18654   */\n      swap4\n      swap3\n      pop\n      pop\n      pop\n      jump\t// out\n        /* \"#utility.yul\":18674:19014   */\n    tag_522:\n        /* \"#utility.yul\":18730:18735   */\n      0x00\n        /* \"#utility.yul\":18779:18782   */\n      dup3\n        /* \"#utility.yul\":18772:18776   */\n      0x1f\n        /* \"#utility.yul\":18764:18770   */\n      dup4\n        /* \"#utility.yul\":18760:18777   */\n      add\n        /* \"#utility.yul\":18756:18783   */\n      slt\n        /* \"#utility.yul\":18746:18868   */\n      tag_714\n      jumpi\n        /* \"#utility.yul\":18787:18866   */\n      tag_715\n      tag_482\n      jump\t// in\n    tag_715:\n        /* \"#utility.yul\":18746:18868   */\n    tag_714:\n        /* \"#utility.yul\":18904:18910   */\n      dup2\n        /* \"#utility.yul\":18891:18911   */\n      calldataload\n        /* \"#utility.yul\":18929:19008   */\n      tag_716\n        /* \"#utility.yul\":19004:19007   */\n      dup5\n        /* \"#utility.yul\":18996:19002   */\n      dup3\n        /* \"#utility.yul\":18989:18993   */\n      0x20\n        /* \"#utility.yul\":18981:18987   */\n      dup7\n        /* \"#utility.yul\":18977:18994   */\n      add\n        /* \"#utility.yul\":18929:19008   */\n      tag_521\n      jump\t// in\n    tag_716:\n        /* \"#utility.yul\":18920:19008   */\n      swap2\n      pop\n        /* \"#utility.yul\":18736:19014   */\n      pop\n        /* \"#utility.yul\":18674:19014   */\n      swap3\n      swap2\n      pop\n      pop\n      jump\t// out\n        /* \"#utility.yul\":19020:20325   */\n    tag_90:\n        /* \"#utility.yul\":19136:19142   */\n      0x00\n        /* \"#utility.yul\":19144:19150   */\n      dup1\n        /* \"#utility.yul\":19152:19158   */\n      0x00\n        /* \"#utility.yul\":19160:19166   */\n      dup1\n        /* \"#utility.yul\":19209:19212   */\n      0x80\n        /* \"#utility.yul\":19197:19206   */\n      dup6\n        /* \"#utility.yul\":19188:19195   */\n      dup8\n        /* \"#utility.yul\":19184:19207   */\n      sub\n        /* \"#utility.yul\":19180:19213   */\n      slt\n        /* \"#utility.yul\":19177:19297   */\n      iszero\n      tag_718\n      jumpi\n        /* \"#utility.yul\":19216:19295   */\n      tag_719\n      tag_474\n      jump\t// in\n    tag_719:\n        /* \"#utility.yul\":19177:19297   */\n    tag_718:\n        /* \"#utility.yul\":19336:19337   */\n      0x00\n        /* \"#utility.yul\":19361:19414   */\n      tag_720\n        /* \"#utility.yul\":19406:19413   */\n      dup8\n        /* \"#utility.yul\":19397:19403   */\n      dup3\n        /* \"#utility.yul\":19386:19395   */\n      dup9\n        /* \"#utility.yul\":19382:19404   */\n      add\n        /* \"#utility.yul\":19361:19414   */\n      tag_479\n      jump\t// in\n    tag_720:\n        /* \"#utility.yul\":19351:19414   */\n      swap5\n      pop\n        /* \"#utility.yul\":19307:19424   */\n      pop\n        /* \"#utility.yul\":19491:19493   */\n      0x20\n        /* \"#utility.yul\":19480:19489   */\n      dup6\n        /* \"#utility.yul\":19476:19494   */\n      add\n        /* \"#utility.yul\":19463:19495   */\n      calldataload\n        /* \"#utility.yul\":19522:19540   */\n      0xffffffffffffffff\n        /* \"#utility.yul\":19514:19520   */\n      dup2\n        /* \"#utility.yul\":19511:19541   */\n      gt\n        /* \"#utility.yul\":19508:19625   */\n      iszero\n      tag_721\n      jumpi\n        /* \"#utility.yul\":19544:19623   */\n      tag_722\n      tag_475\n      jump\t// in\n    tag_722:\n        /* \"#utility.yul\":19508:19625   */\n    tag_721:\n        /* \"#utility.yul\":19649:19712   */\n      tag_723\n        /* \"#utility.yul\":19704:19711   */\n      dup8\n        /* \"#utility.yul\":19695:19701   */\n      dup3\n        /* \"#utility.yul\":19684:19693   */\n      dup9\n        /* \"#utility.yul\":19680:19702   */\n      add\n        /* \"#utility.yul\":19649:19712   */\n      tag_522\n      jump\t// in\n    tag_723:\n        /* \"#utility.yul\":19639:19712   */\n      swap4\n      pop\n        /* \"#utility.yul\":19434:19722   */\n      pop\n        /* \"#utility.yul\":19789:19791   */\n      0x40\n        /* \"#utility.yul\":19778:19787   */\n      dup6\n        /* \"#utility.yul\":19774:19792   */\n      add\n        /* \"#utility.yul\":19761:19793   */\n      calldataload\n        /* \"#utility.yul\":19820:19838   */\n      0xffffffffffffffff\n        /* \"#utility.yul\":19812:19818   */\n      dup2\n        /* \"#utility.yul\":19809:19839   */\n      gt\n        /* \"#utility.yul\":19806:19923   */\n      iszero\n      tag_724\n      jumpi\n        /* \"#utility.yul\":19842:19921   */\n      tag_725\n      tag_475\n      jump\t// in\n    tag_725:\n        /* \"#utility.yul\":19806:19923   */\n    tag_724:\n        /* \"#utility.yul\":19947:20010   */\n      tag_726\n        /* \"#utility.yul\":20002:20009   */\n      dup8\n        /* \"#utility.yul\":19993:19999   */\n      dup3\n        /* \"#utility.yul\":19982:19991   */\n      dup9\n        /* \"#utility.yul\":19978:20000   */\n      add\n        /* \"#utility.yul\":19947:20010   */\n      tag_522\n      jump\t// in\n    tag_726:\n        /* \"#utility.yul\":19937:20010   */\n      swap3\n      pop\n        /* \"#utility.yul\":19732:20020   */\n      pop\n        /* \"#utility.yul\":20087:20089   */\n      0x60\n        /* \"#utility.yul\":20076:20085   */\n      dup6\n        /* \"#utility.yul\":20072:20090   */\n      add\n        /* \"#utility.yul\":20059:20091   */\n      calldataload\n        /* \"#utility.yul\":20118:20136   */\n      0xffffffffffffffff\n        /* \"#utility.yul\":20110:20116   */\n      dup2\n        /* \"#utility.yul\":20107:20137   */\n      gt\n        /* \"#utility.yul\":20104:20221   */\n      iszero\n      tag_727\n      jumpi\n        /* \"#utility.yul\":20140:20219   */\n      tag_728\n      tag_475\n      jump\t// in\n    tag_728:\n        /* \"#utility.yul\":20104:20221   */\n    tag_727:\n        /* \"#utility.yul\":20245:20308   */\n      tag_729\n        /* \"#utility.yul\":20300:20307   */\n      dup8\n        /* \"#utility.yul\":20291:20297   */\n      dup3\n        /* \"#utility.yul\":20280:20289   */\n      dup9\n        /* \"#utility.yul\":20276:20298   */\n      add\n        /* \"#utility.yul\":20245:20308   */\n      tag_522\n      jump\t// in\n    tag_729:\n        /* \"#utility.yul\":20235:20308   */\n      swap2\n      pop\n        /* \"#utility.yul\":20030:20318   */\n      pop\n        /* \"#utility.yul\":19020:20325   */\n      swap3\n      swap6\n      swap2\n      swap5\n      pop\n      swap3\n      pop\n      jump\t// out\n        /* \"#utility.yul\":20331:20511   */\n    tag_523:\n        /* \"#utility.yul\":20379:20456   */\n      0x4e487b7100000000000000000000000000000000000000000000000000000000\n        /* \"#utility.yul\":20376:20377   */\n      0x00\n        /* \"#utility.yul\":20369:20457   */\n      mstore\n        /* \"#utility.yul\":20476:20480   */\n      0x22\n        /* \"#utility.yul\":20473:20474   */\n      0x04\n        /* \"#utility.yul\":20466:20481   */\n      mstore\n        /* \"#utility.yul\":20500:20504   */\n      0x24\n        /* \"#utility.yul\":20497:20498   */\n      0x00\n        /* \"#utility.yul\":20490:20505   */\n      revert\n        /* \"#utility.yul\":20517:20837   */\n    tag_105:\n        /* \"#utility.yul\":20561:20567   */\n      0x00\n        /* \"#utility.yul\":20598:20599   */\n      0x02\n        /* \"#utility.yul\":20592:20596   */\n      dup3\n        /* \"#utility.yul\":20588:20600   */\n      div\n        /* \"#utility.yul\":20578:20600   */\n      swap1\n      pop\n        /* \"#utility.yul\":20645:20646   */\n      0x01\n        /* \"#utility.yul\":20639:20643   */\n      dup3\n        /* \"#utility.yul\":20635:20647   */\n      and\n        /* \"#utility.yul\":20666:20684   */\n      dup1\n        /* \"#utility.yul\":20656:20737   */\n      tag_732\n      jumpi\n        /* \"#utility.yul\":20722:20726   */\n      0x7f\n        /* \"#utility.yul\":20714:20720   */\n      dup3\n        /* \"#utility.yul\":20710:20727   */\n      and\n        /* \"#utility.yul\":20700:20727   */\n      swap2\n      pop\n        /* \"#utility.yul\":20656:20737   */\n    tag_732:\n        /* \"#utility.yul\":20784:20786   */\n      0x20\n        /* \"#utility.yul\":20776:20782   */\n      dup3\n        /* \"#utility.yul\":20773:20787   */\n      lt\n        /* \"#utility.yul\":20753:20771   */\n      dup2\n        /* \"#utility.yul\":20750:20788   */\n      eq\n        /* \"#utility.yul\":20747:20831   */\n      iszero\n      tag_733\n      jumpi\n        /* \"#utility.yul\":20803:20821   */\n      tag_734\n      tag_523\n      jump\t// in\n    tag_734:\n        /* \"#utility.yul\":20747:20831   */\n    tag_733:\n        /* \"#utility.yul\":20568:20837   */\n      pop\n        /* \"#utility.yul\":20517:20837   */\n      swap2\n      swap1\n      pop\n      jump\t// out\n        /* \"#utility.yul\":20843:21012   */\n    tag_524:\n        /* \"#utility.yul\":20927:20938   */\n      0x00\n        /* \"#utility.yul\":20961:20967   */\n      dup3\n        /* \"#utility.yul\":20956:20959   */\n      dup3\n        /* \"#utility.yul\":20949:20968   */\n      mstore\n        /* \"#utility.yul\":21001:21005   */\n      0x20\n        /* \"#utility.yul\":20996:20999   */\n      dup3\n        /* \"#utility.yul\":20992:21006   */\n      add\n        /* \"#utility.yul\":20977:21006   */\n      swap1\n      pop\n        /* \"#utility.yul\":20843:21012   */\n      swap3\n      swap2\n      pop\n      pop\n      jump\t// out\n        /* \"#utility.yul\":21018:21189   */\n    tag_525:\n        /* \"#utility.yul\":21158:21181   */\n      0x4163636f756e7420646f65736e27742065786973740000000000000000000000\n        /* \"#utility.yul\":21154:21155   */\n      0x00\n        /* \"#utility.yul\":21146:21152   */\n      dup3\n        /* \"#utility.yul\":21142:21156   */\n      add\n        /* \"#utility.yul\":21135:21182   */\n      mstore\n        /* \"#utility.yul\":21018:21189   */\n      pop\n      jump\t// out\n        /* \"#utility.yul\":21195:21561   */\n    tag_526:\n        /* \"#utility.yul\":21337:21340   */\n      0x00\n        /* \"#utility.yul\":21358:21425   */\n      tag_738\n        /* \"#utility.yul\":21422:21424   */\n      0x15\n        /* \"#utility.yul\":21417:21420   */\n      dup4\n        /* \"#utility.yul\":21358:21425   */\n      tag_524\n      jump\t// in\n    tag_738:\n        /* \"#utility.yul\":21351:21425   */\n      swap2\n      pop\n        /* \"#utility.yul\":21434:21527   */\n      tag_739\n        /* \"#utility.yul\":21523:21526   */\n      dup3\n        /* \"#utility.yul\":21434:21527   */\n      tag_525\n      jump\t// in\n    tag_739:\n        /* \"#utility.yul\":21552:21554   */\n      0x20\n        /* \"#utility.yul\":21547:21550   */\n      dup3\n        /* \"#utility.yul\":21543:21555   */\n      add\n        /* \"#utility.yul\":21536:21555   */\n      swap1\n      pop\n        /* \"#utility.yul\":21195:21561   */\n      swap2\n      swap1\n      pop\n      jump\t// out\n        /* \"#utility.yul\":21567:21986   */\n    tag_123:\n        /* \"#utility.yul\":21733:21737   */\n      0x00\n        /* \"#utility.yul\":21771:21773   */\n      0x20\n        /* \"#utility.yul\":21760:21769   */\n      dup3\n        /* \"#utility.yul\":21756:21774   */\n      add\n        /* \"#utility.yul\":21748:21774   */\n      swap1\n      pop\n        /* \"#utility.yul\":21820:21829   */\n      dup2\n        /* \"#utility.yul\":21814:21818   */\n      dup2\n        /* \"#utility.yul\":21810:21830   */\n      sub\n        /* \"#utility.yul\":21806:21807   */\n      0x00\n        /* \"#utility.yul\":21795:21804   */\n      dup4\n        /* \"#utility.yul\":21791:21808   */\n      add\n        /* \"#utility.yul\":21784:21831   */\n      mstore\n        /* \"#utility.yul\":21848:21979   */\n      tag_741\n        /* \"#utility.yul\":21974:21978   */\n      dup2\n        /* \"#utility.yul\":21848:21979   */\n      tag_526\n      jump\t// in\n    tag_741:\n        /* \"#utility.yul\":21840:21979   */\n      swap1\n      pop\n        /* \"#utility.yul\":21567:21986   */\n      swap2\n      swap1\n      pop\n      jump\t// out\n        /* \"#utility.yul\":21992:22172   */\n    tag_527:\n        /* \"#utility.yul\":22040:22117   */\n      0x4e487b7100000000000000000000000000000000000000000000000000000000\n        /* \"#utility.yul\":22037:22038   */\n      0x00\n        /* \"#utility.yul\":22030:22118   */\n      mstore\n        /* \"#utility.yul\":22137:22141   */\n      0x11\n        /* \"#utility.yul\":22134:22135   */\n      0x04\n        /* \"#utility.yul\":22127:22142   */\n      mstore\n        /* \"#utility.yul\":22161:22165   */\n      0x24\n        /* \"#utility.yul\":22158:22159   */\n      0x00\n        /* \"#utility.yul\":22151:22166   */\n      revert\n        /* \"#utility.yul\":22178:22349   */\n    tag_127:\n        /* \"#utility.yul\":22217:22220   */\n      0x00\n        /* \"#utility.yul\":22240:22264   */\n      tag_744\n        /* \"#utility.yul\":22258:22263   */\n      dup3\n        /* \"#utility.yul\":22240:22264   */\n      tag_497\n      jump\t// in\n    tag_744:\n        /* \"#utility.yul\":22231:22264   */\n      swap2\n      pop\n        /* \"#utility.yul\":22286:22290   */\n      0x00\n        /* \"#utility.yul\":22279:22284   */\n      dup3\n        /* \"#utility.yul\":22276:22291   */\n      eq\n        /* \"#utility.yul\":22273:22314   */\n      iszero\n      tag_745\n      jumpi\n        /* \"#utility.yul\":22294:22312   */\n      tag_746\n      tag_527\n      jump\t// in\n    tag_746:\n        /* \"#utility.yul\":22273:22314   */\n    tag_745:\n        /* \"#utility.yul\":22341:22342   */\n      0x01\n        /* \"#utility.yul\":22334:22339   */\n      dup3\n        /* \"#utility.yul\":22330:22343   */\n      sub\n        /* \"#utility.yul\":22323:22343   */\n      swap1\n      pop\n        /* \"#utility.yul\":22178:22349   */\n      swap2\n      swap1\n      pop\n      jump\t// out\n        /* \"#utility.yul\":22355:22535   */\n    tag_141:\n        /* \"#utility.yul\":22403:22480   */\n      0x4e487b7100000000000000000000000000000000000000000000000000000000\n        /* \"#utility.yul\":22400:22401   */\n      0x00\n        /* \"#utility.yul\":22393:22481   */\n      mstore\n        /* \"#utility.yul\":22500:22504   */\n      0x32\n        /* \"#utility.yul\":22497:22498   */\n      0x04\n        /* \"#utility.yul\":22490:22505   */\n      mstore\n        /* \"#utility.yul\":22524:22528   */\n      0x24\n        /* \"#utility.yul\":22521:22522   */\n      0x00\n        /* \"#utility.yul\":22514:22529   */\n      revert\n        /* \"#utility.yul\":22541:22774   */\n    tag_144:\n        /* \"#utility.yul\":22580:22583   */\n      0x00\n        /* \"#utility.yul\":22603:22627   */\n      tag_749\n        /* \"#utility.yul\":22621:22626   */\n      dup3\n        /* \"#utility.yul\":22603:22627   */\n      tag_497\n      jump\t// in\n    tag_749:\n        /* \"#utility.yul\":22594:22627   */\n      swap2\n      pop\n        /* \"#utility.yul\":22649:22715   */\n      0xffffffffffffffffffffffffffffffffffffffffffffffffffffffffffffffff\n        /* \"#utility.yul\":22642:22647   */\n      dup3\n        /* \"#utility.yul\":22639:22716   */\n      eq\n        /* \"#utility.yul\":22636:22739   */\n      iszero\n      tag_750\n      jumpi\n        /* \"#utility.yul\":22719:22737   */\n      tag_751\n      tag_527\n      jump\t// in\n    tag_751:\n        /* \"#utility.yul\":22636:22739   */\n    tag_750:\n        /* \"#utility.yul\":22766:22767   */\n      0x01\n        /* \"#utility.yul\":22759:22764   */\n      dup3\n        /* \"#utility.yul\":22755:22768   */\n      add\n        /* \"#utility.yul\":22748:22768   */\n      swap1\n      pop\n        /* \"#utility.yul\":22541:22774   */\n      swap2\n      swap1\n      pop\n      jump\t// out\n        /* \"#utility.yul\":22780:22945   */\n    tag_528:\n        /* \"#utility.yul\":22920:22937   */\n      0x55736572206e6f7420666f756e64210000000000000000000000000000000000\n        /* \"#utility.yul\":22916:22917   */\n      0x00\n        /* \"#utility.yul\":22908:22914   */\n      dup3\n        /* \"#utility.yul\":22904:22918   */\n      add\n        /* \"#utility.yul\":22897:22938   */\n      mstore\n        /* \"#utility.yul\":22780:22945   */\n      pop\n      jump\t// out\n        /* \"#utility.yul\":22951:23317   */\n    tag_529:\n        /* \"#utility.yul\":23093:23096   */\n      0x00\n        /* \"#utility.yul\":23114:23181   */\n      tag_754\n        /* \"#utility.yul\":23178:23180   */\n      0x0f\n        /* \"#utility.yul\":23173:23176   */\n      dup4\n        /* \"#utility.yul\":23114:23181   */\n      tag_524\n      jump\t// in\n    tag_754:\n        /* \"#utility.yul\":23107:23181   */\n      swap2\n      pop\n        /* \"#utility.yul\":23190:23283   */\n      tag_755\n        /* \"#utility.yul\":23279:23282   */\n      dup3\n        /* \"#utility.yul\":23190:23283   */\n      tag_528\n      jump\t// in\n    tag_755:\n        /* \"#utility.yul\":23308:23310   */\n      0x20\n        /* \"#utility.yul\":23303:23306   */\n      dup3\n        /* \"#utility.yul\":23299:23311   */\n      add\n        /* \"#utility.yul\":23292:23311   */\n      swap1\n      pop\n        /* \"#utility.yul\":22951:23317   */\n      swap2\n      swap1\n      pop\n      jump\t// out\n        /* \"#utility.yul\":23323:23742   */\n    tag_169:\n        /* \"#utility.yul\":23489:23493   */\n      0x00\n        /* \"#utility.yul\":23527:23529   */\n      0x20\n        /* \"#utility.yul\":23516:23525   */\n      dup3\n        /* \"#utility.yul\":23512:23530   */\n      add\n        /* \"#utility.yul\":23504:23530   */\n      swap1\n      pop\n        /* \"#utility.yul\":23576:23585   */\n      dup2\n        /* \"#utility.yul\":23570:23574   */\n      dup2\n        /* \"#utility.yul\":23566:23586   */\n      sub\n        /* \"#utility.yul\":23562:23563   */\n      0x00\n        /* \"#utility.yul\":23551:23560   */\n      dup4\n        /* \"#utility.yul\":23547:23564   */\n      add\n        /* \"#utility.yul\":23540:23587   */\n      mstore\n        /* \"#utility.yul\":23604:23735   */\n      tag_757\n        /* \"#utility.yul\":23730:23734   */\n      dup2\n        /* \"#utility.yul\":23604:23735   */\n      tag_529\n      jump\t// in\n    tag_757:\n        /* \"#utility.yul\":23596:23735   */\n      swap1\n      pop\n        /* \"#utility.yul\":23323:23742   */\n      swap2\n      swap1\n      pop\n      jump\t// out\n        /* \"#utility.yul\":23748:23885   */\n    tag_530:\n        /* \"#utility.yul\":23802:23807   */\n      0x00\n        /* \"#utility.yul\":23833:23839   */\n      dup2\n        /* \"#utility.yul\":23827:23840   */\n      mload\n        /* \"#utility.yul\":23818:23840   */\n      swap1\n      pop\n        /* \"#utility.yul\":23849:23879   */\n      tag_759\n        /* \"#utility.yul\":23873:23878   */\n      dup2\n        /* \"#utility.yul\":23849:23879   */\n      tag_506\n      jump\t// in\n    tag_759:\n        /* \"#utility.yul\":23748:23885   */\n      swap3\n      swap2\n      pop\n      pop\n      jump\t// out\n        /* \"#utility.yul\":23891:24236   */\n    tag_201:\n        /* \"#utility.yul\":23958:23964   */\n      0x00\n        /* \"#utility.yul\":24007:24009   */\n      0x20\n        /* \"#utility.yul\":23995:24004   */\n      dup3\n        /* \"#utility.yul\":23986:23993   */\n      dup5\n        /* \"#utility.yul\":23982:24005   */\n      sub\n        /* \"#utility.yul\":23978:24010   */\n      slt\n        /* \"#utility.yul\":23975:24094   */\n      iszero\n      tag_761\n      jumpi\n        /* \"#utility.yul\":24013:24092   */\n      tag_762\n      tag_474\n      jump\t// in\n    tag_762:\n        /* \"#utility.yul\":23975:24094   */\n    tag_761:\n        /* \"#utility.yul\":24133:24134   */\n      0x00\n        /* \"#utility.yul\":24158:24219   */\n      tag_763\n        /* \"#utility.yul\":24211:24218   */\n      dup5\n        /* \"#utility.yul\":24202:24208   */\n      dup3\n        /* \"#utility.yul\":24191:24200   */\n      dup6\n        /* \"#utility.yul\":24187:24209   */\n      add\n        /* \"#utility.yul\":24158:24219   */\n      tag_530\n      jump\t// in\n    tag_763:\n        /* \"#utility.yul\":24148:24219   */\n      swap2\n      pop\n        /* \"#utility.yul\":24104:24229   */\n      pop\n        /* \"#utility.yul\":23891:24236   */\n      swap3\n      swap2\n      pop\n      pop\n      jump\t// out\n        /* \"#utility.yul\":24242:24414   */\n    tag_531:\n        /* \"#utility.yul\":24382:24406   */\n      0x4163636f756e7420616c72656164792065786973747300000000000000000000\n        /* \"#utility.yul\":24378:24379   */\n      0x00\n        /* \"#utility.yul\":24370:24376   */\n      dup3\n        /* \"#utility.yul\":24366:24380   */\n      add\n        /* \"#utility.yul\":24359:24407   */\n      mstore\n        /* \"#utility.yul\":24242:24414   */\n      pop\n      jump\t// out\n        /* \"#utility.yul\":24420:24786   */\n    tag_532:\n        /* \"#utility.yul\":24562:24565   */\n      0x00\n        /* \"#utility.yul\":24583:24650   */\n      tag_766\n        /* \"#utility.yul\":24647:24649   */\n      0x16\n        /* \"#utility.yul\":24642:24645   */\n      dup4\n        /* \"#utility.yul\":24583:24650   */\n      tag_524\n      jump\t// in\n    tag_766:\n        /* \"#utility.yul\":24576:24650   */\n      swap2\n      pop\n        /* \"#utility.yul\":24659:24752   */\n      tag_767\n        /* \"#utility.yul\":24748:24751   */\n      dup3\n        /* \"#utility.yul\":24659:24752   */\n      tag_531\n      jump\t// in\n    tag_767:\n        /* \"#utility.yul\":24777:24779   */\n      0x20\n        /* \"#utility.yul\":24772:24775   */\n      dup3\n        /* \"#utility.yul\":24768:24780   */\n      add\n        /* \"#utility.yul\":24761:24780   */\n      swap1\n      pop\n        /* \"#utility.yul\":24420:24786   */\n      swap2\n      swap1\n      pop\n      jump\t// out\n        /* \"#utility.yul\":24792:25211   */\n    tag_258:\n        /* \"#utility.yul\":24958:24962   */\n      0x00\n        /* \"#utility.yul\":24996:24998   */\n      0x20\n        /* \"#utility.yul\":24985:24994   */\n      dup3\n        /* \"#utility.yul\":24981:24999   */\n      add\n        /* \"#utility.yul\":24973:24999   */\n      swap1\n      pop\n        /* \"#utility.yul\":25045:25054   */\n      dup2\n        /* \"#utility.yul\":25039:25043   */\n      dup2\n        /* \"#utility.yul\":25035:25055   */\n      sub\n        /* \"#utility.yul\":25031:25032   */\n      0x00\n        /* \"#utility.yul\":25020:25029   */\n      dup4\n        /* \"#utility.yul\":25016:25033   */\n      add\n        /* \"#utility.yul\":25009:25056   */\n      mstore\n        /* \"#utility.yul\":25073:25204   */\n      tag_769\n        /* \"#utility.yul\":25199:25203   */\n      dup2\n        /* \"#utility.yul\":25073:25204   */\n      tag_532\n      jump\t// in\n    tag_769:\n        /* \"#utility.yul\":25065:25204   */\n      swap1\n      pop\n        /* \"#utility.yul\":24792:25211   */\n      swap2\n      swap1\n      pop\n      jump\t// out\n        /* \"#utility.yul\":25217:25397   */\n    tag_286:\n        /* \"#utility.yul\":25265:25342   */\n      0x4e487b7100000000000000000000000000000000000000000000000000000000\n        /* \"#utility.yul\":25262:25263   */\n      0x00\n        /* \"#utility.yul\":25255:25343   */\n      mstore\n        /* \"#utility.yul\":25362:25366   */\n      0x21\n        /* \"#utility.yul\":25359:25360   */\n      0x04\n        /* \"#utility.yul\":25352:25367   */\n      mstore\n        /* \"#utility.yul\":25386:25390   */\n      0x24\n        /* \"#utility.yul\":25383:25384   */\n      0x00\n        /* \"#utility.yul\":25376:25391   */\n      revert\n        /* \"#utility.yul\":25403:25624   */\n    tag_533:\n        /* \"#utility.yul\":25543:25577   */\n      0x4f6e6c79206f776e65722063616e2063616c6c20746869732066756e6374696f\n        /* \"#utility.yul\":25539:25540   */\n      0x00\n        /* \"#utility.yul\":25531:25537   */\n      dup3\n        /* \"#utility.yul\":25527:25541   */\n      add\n        /* \"#utility.yul\":25520:25578   */\n      mstore\n        /* \"#utility.yul\":25612:25616   */\n      0x6e2e000000000000000000000000000000000000000000000000000000000000\n        /* \"#utility.yul\":25607:25609   */\n      0x20\n        /* \"#utility.yul\":25599:25605   */\n      dup3\n        /* \"#utility.yul\":25595:25610   */\n      add\n        /* \"#utility.yul\":25588:25617   */\n      mstore\n        /* \"#utility.yul\":25403:25624   */\n      pop\n      jump\t// out\n        /* \"#utility.yul\":25630:25996   */\n    tag_534:\n        /* \"#utility.yul\":25772:25775   */\n      0x00\n        /* \"#utility.yul\":25793:25860   */\n      tag_773\n        /* \"#utility.yul\":25857:25859   */\n      0x22\n        /* \"#utility.yul\":25852:25855   */\n      dup4\n        /* \"#utility.yul\":25793:25860   */\n      tag_524\n      jump\t// in\n    tag_773:\n        /* \"#utility.yul\":25786:25860   */\n      swap2\n      pop\n        /* \"#utility.yul\":25869:25962   */\n      tag_774\n        /* \"#utility.yul\":25958:25961   */\n      dup3\n        /* \"#utility.yul\":25869:25962   */\n      tag_533\n      jump\t// in\n    tag_774:\n        /* \"#utility.yul\":25987:25989   */\n      0x40\n        /* \"#utility.yul\":25982:25985   */\n      dup3\n        /* \"#utility.yul\":25978:25990   */\n      add\n        /* \"#utility.yul\":25971:25990   */\n      swap1\n      pop\n        /* \"#utility.yul\":25630:25996   */\n      swap2\n      swap1\n      pop\n      jump\t// out\n        /* \"#utility.yul\":26002:26421   */\n    tag_316:\n        /* \"#utility.yul\":26168:26172   */\n      0x00\n        /* \"#utility.yul\":26206:26208   */\n      0x20\n        /* \"#utility.yul\":26195:26204   */\n      dup3\n        /* \"#utility.yul\":26191:26209   */\n      add\n        /* \"#utility.yul\":26183:26209   */\n      swap1\n      pop\n        /* \"#utility.yul\":26255:26264   */\n      dup2\n        /* \"#utility.yul\":26249:26253   */\n      dup2\n        /* \"#utility.yul\":26245:26265   */\n      sub\n        /* \"#utility.yul\":26241:26242   */\n      0x00\n        /* \"#utility.yul\":26230:26239   */\n      dup4\n        /* \"#utility.yul\":26226:26243   */\n      add\n        /* \"#utility.yul\":26219:26266   */\n      mstore\n        /* \"#utility.yul\":26283:26414   */\n      tag_776\n        /* \"#utility.yul\":26409:26413   */\n      dup2\n        /* \"#utility.yul\":26283:26414   */\n      tag_534\n      jump\t// in\n    tag_776:\n        /* \"#utility.yul\":26275:26414   */\n      swap1\n      pop\n        /* \"#utility.yul\":26002:26421   */\n      swap2\n      swap1\n      pop\n      jump\t// out\n\n    auxdata: 0xa26469706673582212207b9a4410db195c28b522133a3f386df36c919ce952cc7606e054c36c3ed3375564736f6c634300080c0033\n}\n",
				"bytecode": {
					"linkReferences": {},
					"object": "60806040523480156200001157600080fd5b5060405162005da938038062005da983398181016040528101906200003791906200100f565b33600160006101000a81548173ffffffffffffffffffffffffffffffffffffffff021916908373ffffffffffffffffffffffffffffffffffffffff1602179055506200008c33848484620000f660201b60201c565b620000a033336000620003e160201b60201c565b620000b433336001620003e160201b60201c565b620000c833336002620003e160201b60201c565b620000dc333360036200077f60201b60201c565b620000ed3362000b1d60201b60201c565b50505062001441565b83600073ffffffffffffffffffffffffffffffffffffffff16600860008373ffffffffffffffffffffffffffffffffffffffff1673ffffffffffffffffffffffffffffffffffffffff16815260200190815260200160002060000160009054906101000a900473ffffffffffffffffffffffffffffffffffffffff1673ffffffffffffffffffffffffffffffffffffffff1614620001cb576040517f08c379a0000000000000000000000000000000000000000000000000000000008152600401620001c29062001129565b60405180910390fd5b6000604051806080016040528060001515815260200160001515815260200160001515815260200160011515815250905060006040518060c001604052808873ffffffffffffffffffffffffffffffffffffffff16815260200187815260200186815260200185815260200160001515815260200183815250905080600860008973ffffffffffffffffffffffffffffffffffffffff1673ffffffffffffffffffffffffffffffffffffffff16815260200190815260200160002060008201518160000160006101000a81548173ffffffffffffffffffffffffffffffffffffffff021916908373ffffffffffffffffffffffffffffffffffffffff1602179055506020820151816001019080519060200190620002eb92919062000dc2565b5060408201518160020190805190602001906200030a92919062000dc2565b5060608201518160030190805190602001906200032992919062000dc2565b5060808201518160040160006101000a81548160ff02191690831515021790555060a08201518160050160008201518160000160006101000a81548160ff02191690831515021790555060208201518160000160016101000a81548160ff02191690831515021790555060408201518160000160026101000a81548160ff02191690831515021790555060608201518160000160036101000a81548160ff021916908315150217905550505090505050505050505050565b82600160009054906101000a900473ffffffffffffffffffffffffffffffffffffffff1673ffffffffffffffffffffffffffffffffffffffff168173ffffffffffffffffffffffffffffffffffffffff161480620004ba57503073ffffffffffffffffffffffffffffffffffffffff1663297027d5826040518263ffffffff1660e01b815260040162000475919062001190565b602060405180830381865afa15801562000493573d6000803e3d6000fd5b505050506040513d601f19601f82011682018060405250810190620004b99190620011ea565b5b620004fc576040517f08c379a0000000000000000000000000000000000000000000000000000000008152600401620004f39062001292565b60405180910390fd5b82600073ffffffffffffffffffffffffffffffffffffffff16600860008373ffffffffffffffffffffffffffffffffffffffff1673ffffffffffffffffffffffffffffffffffffffff16815260200190815260200160002060000160009054906101000a900473ffffffffffffffffffffffffffffffffffffffff1673ffffffffffffffffffffffffffffffffffffffff161415620005d2576040517f08c379a0000000000000000000000000000000000000000000000000000000008152600401620005c99062001304565b60405180910390fd5b6000600860008673ffffffffffffffffffffffffffffffffffffffff1673ffffffffffffffffffffffffffffffffffffffff168152602001908152602001600020905060008160050190506000600381111562000634576200063362001326565b5b8560038111156200064a576200064962001326565b5b1415620006745760018160000160006101000a81548160ff02191690831515021790555062000776565b600160038111156200068b576200068a62001326565b5b856003811115620006a157620006a062001326565b5b1415620006cb5760018160000160016101000a81548160ff02191690831515021790555062000775565b60026003811115620006e257620006e162001326565b5b856003811115620006f857620006f762001326565b5b1415620007225760018160000160026101000a81548160ff02191690831515021790555062000774565b60038081111562000738576200073762001326565b5b8560038111156200074e576200074d62001326565b5b1415620007735760018160000160036101000a81548160ff0219169083151502179055505b5b5b5b50505050505050565b82600160009054906101000a900473ffffffffffffffffffffffffffffffffffffffff1673ffffffffffffffffffffffffffffffffffffffff168173ffffffffffffffffffffffffffffffffffffffff1614806200085857503073ffffffffffffffffffffffffffffffffffffffff1663297027d5826040518263ffffffff1660e01b815260040162000813919062001190565b602060405180830381865afa15801562000831573d6000803e3d6000fd5b505050506040513d601f19601f82011682018060405250810190620008579190620011ea565b5b6200089a576040517f08c379a0000000000000000000000000000000000000000000000000000000008152600401620008919062001292565b60405180910390fd5b82600073ffffffffffffffffffffffffffffffffffffffff16600860008373ffffffffffffffffffffffffffffffffffffffff1673ffffffffffffffffffffffffffffffffffffffff16815260200190815260200160002060000160009054906101000a900473ffffffffffffffffffffffffffffffffffffffff1673ffffffffffffffffffffffffffffffffffffffff16141562000970576040517f08c379a0000000000000000000000000000000000000000000000000000000008152600401620009679062001304565b60405180910390fd5b6000600860008673ffffffffffffffffffffffffffffffffffffffff1673ffffffffffffffffffffffffffffffffffffffff1681526020019081526020016000209050600081600501905060006003811115620009d257620009d162001326565b5b856003811115620009e857620009e762001326565b5b141562000a125760008160000160006101000a81548160ff02191690831515021790555062000b14565b6001600381111562000a295762000a2862001326565b5b85600381111562000a3f5762000a3e62001326565b5b141562000a695760008160000160016101000a81548160ff02191690831515021790555062000b13565b6002600381111562000a805762000a7f62001326565b5b85600381111562000a965762000a9562001326565b5b141562000ac05760008160000160026101000a81548160ff02191690831515021790555062000b12565b60038081111562000ad65762000ad562001326565b5b85600381111562000aec5762000aeb62001326565b5b141562000b115760008160000160036101000a81548160ff0219169083151502179055505b5b5b5b50505050505050565b80600073ffffffffffffffffffffffffffffffffffffffff16600860008373ffffffffffffffffffffffffffffffffffffffff1673ffffffffffffffffffffffffffffffffffffffff16815260200190815260200160002060000160009054906101000a900473ffffffffffffffffffffffffffffffffffffffff1673ffffffffffffffffffffffffffffffffffffffff16141562000bf3576040517f08c379a000000000000000000000000000000000000000000000000000000000815260040162000bea9062001304565b60405180910390fd5b600960008373ffffffffffffffffffffffffffffffffffffffff1673ffffffffffffffffffffffffffffffffffffffff16815260200190815260200160002060009054906101000a900460ff1662000dbe576000600860008473ffffffffffffffffffffffffffffffffffffffff1673ffffffffffffffffffffffffffffffffffffffff168152602001908152602001600020905060018160040160006101000a81548160ff0219169083151502179055506000816005016040518060800160405290816000820160009054906101000a900460ff161515151581526020016000820160019054906101000a900460ff161515151581526020016000820160029054906101000a900460ff161515151581526020016000820160039054906101000a900460ff161515151581525050905080600001518062000d36575080602001515b8062000d43575080604001515b1562000dbb576001600960008673ffffffffffffffffffffffffffffffffffffffff1673ffffffffffffffffffffffffffffffffffffffff16815260200190815260200160002060006101000a81548160ff02191690831515021790555060008081548092919062000db5906200138e565b91905055505b50505b5050565b82805462000dd0906200140b565b90600052602060002090601f01602090048101928262000df4576000855562000e40565b82601f1062000e0f57805160ff191683800117855562000e40565b8280016001018555821562000e40579182015b8281111562000e3f57825182559160200191906001019062000e22565b5b50905062000e4f919062000e53565b5090565b5b8082111562000e6e57600081600090555060010162000e54565b5090565b6000604051905090565b600080fd5b600080fd5b600080fd5b600080fd5b6000601f19601f8301169050919050565b7f4e487b7100000000000000000000000000000000000000000000000000000000600052604160045260246000fd5b62000edb8262000e90565b810181811067ffffffffffffffff8211171562000efd5762000efc62000ea1565b5b80604052505050565b600062000f1262000e72565b905062000f20828262000ed0565b919050565b600067ffffffffffffffff82111562000f435762000f4262000ea1565b5b62000f4e8262000e90565b9050602081019050919050565b60005b8381101562000f7b57808201518184015260208101905062000f5e565b8381111562000f8b576000848401525b50505050565b600062000fa862000fa28462000f25565b62000f06565b90508281526020810184848401111562000fc75762000fc662000e8b565b5b62000fd484828562000f5b565b509392505050565b600082601f83011262000ff45762000ff362000e86565b5b81516200100684826020860162000f91565b91505092915050565b6000806000606084860312156200102b576200102a62000e7c565b5b600084015167ffffffffffffffff8111156200104c576200104b62000e81565b5b6200105a8682870162000fdc565b935050602084015167ffffffffffffffff8111156200107e576200107d62000e81565b5b6200108c8682870162000fdc565b925050604084015167ffffffffffffffff811115620010b057620010af62000e81565b5b620010be8682870162000fdc565b9150509250925092565b600082825260208201905092915050565b7f4163636f756e7420616c72656164792065786973747300000000000000000000600082015250565b600062001111601683620010c8565b91506200111e82620010d9565b602082019050919050565b60006020820190508181036000830152620011448162001102565b9050919050565b600073ffffffffffffffffffffffffffffffffffffffff82169050919050565b600062001178826200114b565b9050919050565b6200118a816200116b565b82525050565b6000602082019050620011a760008301846200117f565b92915050565b60008115159050919050565b620011c481620011ad565b8114620011d057600080fd5b50565b600081519050620011e481620011b9565b92915050565b60006020828403121562001203576200120262000e7c565b5b60006200121384828501620011d3565b91505092915050565b7f4f6e6c79206f776e65722063616e2063616c6c20746869732066756e6374696f60008201527f6e2e000000000000000000000000000000000000000000000000000000000000602082015250565b60006200127a602283620010c8565b915062001287826200121c565b604082019050919050565b60006020820190508181036000830152620012ad816200126b565b9050919050565b7f4163636f756e7420646f65736e27742065786973740000000000000000000000600082015250565b6000620012ec601583620010c8565b9150620012f982620012b4565b602082019050919050565b600060208201905081810360008301526200131f81620012dd565b9050919050565b7f4e487b7100000000000000000000000000000000000000000000000000000000600052602160045260246000fd5b7f4e487b7100000000000000000000000000000000000000000000000000000000600052601160045260246000fd5b6000819050919050565b60006200139b8262001384565b91507fffffffffffffffffffffffffffffffffffffffffffffffffffffffffffffffff821415620013d157620013d062001355565b5b600182019050919050565b7f4e487b7100000000000000000000000000000000000000000000000000000000600052602260045260246000fd5b600060028204905060018216806200142457607f821691505b602082108114156200143b576200143a620013dc565b5b50919050565b61495880620014516000396000f3fe608060405234801561001057600080fd5b50600436106101215760003560e01c80638ad63c01116100ad578063d3a5059a11610071578063d3a5059a14610308578063d41450b614610324578063dee94b4a14610354578063e8621e5914610370578063fa4d7aae146103a057610121565b80638ad63c01146102885780638da5cb5b146102a457806395a26fa6146102c2578063b1813695146102cc578063c29d72bc146102ea57610121565b806322faa41f116100f457806322faa41f146101d2578063297027d5146101f05780633d0a8a34146102205780636f77926b1461023c57806382a621371461026c57610121565b8063056909b7146101265780630e666e4914610156578063130cb5f01461018657806320e05d9c146101a2575b600080fd5b610140600480360381019061013b9190613c54565b6103d0565b60405161014d9190613c9c565b60405180910390f35b610170600480360381019061016b9190613c54565b6103e4565b60405161017d9190613c9c565b60405180910390f35b6101a0600480360381019061019b9190613c54565b610717565b005b6101bc60048036038101906101b79190613e10565b610911565b6040516101c99190613f8f565b60405180910390f35b6101da61094a565b6040516101e79190613fc0565b60405180910390f35b61020a60048036038101906102059190613c54565b610953565b6040516102179190613c9c565b60405180910390f35b61023a600480360381019061023591906140bd565b610967565b005b61025660048036038101906102519190613c54565b610a20565b604051610263919061428e565b60405180910390f35b61028660048036038101906102819190613c54565b610d9e565b005b6102a2600480360381019061029d9190614330565b61103a565b005b6102ac6110f3565b6040516102b9919061439b565b60405180910390f35b6102ca611119565b005b6102d4611e85565b6040516102e19190614406565b60405180910390f35b6102f2611f52565b6040516102ff9190613f8f565b60405180910390f35b610322600480360381019061031d9190613c54565b61201f565b005b61033e60048036038101906103399190613e10565b612203565b60405161034b9190614406565b60405180910390f35b61036e600480360381019061036991906144dd565b61223c565b005b61038a60048036038101906103859190613c54565b61251e565b6040516103979190613c9c565b60405180910390f35b6103ba60048036038101906103b59190613c54565b612532565b6040516103c79190613c9c565b60405180910390f35b60006103dd826002612546565b9050919050565b600080600860008473ffffffffffffffffffffffffffffffffffffffff1673ffffffffffffffffffffffffffffffffffffffff1681526020019081526020016000206040518060c00160405290816000820160009054906101000a900473ffffffffffffffffffffffffffffffffffffffff1673ffffffffffffffffffffffffffffffffffffffff1673ffffffffffffffffffffffffffffffffffffffff168152602001600182018054610497906145c7565b80601f01602080910402602001604051908101604052809291908181526020018280546104c3906145c7565b80156105105780601f106104e557610100808354040283529160200191610510565b820191906000526020600020905b8154815290600101906020018083116104f357829003601f168201915b50505050508152602001600282018054610529906145c7565b80601f0160208091040260200160405190810160405280929190818152602001828054610555906145c7565b80156105a25780601f10610577576101008083540402835291602001916105a2565b820191906000526020600020905b81548152906001019060200180831161058557829003601f168201915b505050505081526020016003820180546105bb906145c7565b80601f01602080910402602001604051908101604052809291908181526020018280546105e7906145c7565b80156106345780601f1061060957610100808354040283529160200191610634565b820191906000526020600020905b81548152906001019060200180831161061757829003601f168201915b505050505081526020016004820160009054906101000a900460ff16151515158152602001600582016040518060800160405290816000820160009054906101000a900460ff161515151581526020016000820160019054906101000a900460ff161515151581526020016000820160029054906101000a900460ff161515151581526020016000820160039054906101000a900460ff161515151581525050815250509050600073ffffffffffffffffffffffffffffffffffffffff16816000015173ffffffffffffffffffffffffffffffffffffffff161415915050919050565b80600073ffffffffffffffffffffffffffffffffffffffff16600860008373ffffffffffffffffffffffffffffffffffffffff1673ffffffffffffffffffffffffffffffffffffffff16815260200190815260200160002060000160009054906101000a900473ffffffffffffffffffffffffffffffffffffffff1673ffffffffffffffffffffffffffffffffffffffff1614156107ea576040517f08c379a00000000000000000000000000000000000000000000000000000000081526004016107e190614656565b60405180910390fd5b600960008373ffffffffffffffffffffffffffffffffffffffff1673ffffffffffffffffffffffffffffffffffffffff16815260200190815260200160002060009054906101000a900460ff161561090d576000600860008473ffffffffffffffffffffffffffffffffffffffff1673ffffffffffffffffffffffffffffffffffffffff168152602001908152602001600020905060008160040160006101000a81548160ff0219169083151502179055506000600960008573ffffffffffffffffffffffffffffffffffffffff1673ffffffffffffffffffffffffffffffffffffffff16815260200190815260200160002060006101000a81548160ff021916908315150217905550600080815480929190610906906146a5565b9190505550505b5050565b6109196139ab565b6000429050600060405180606001604052808581526020018381526020016000151581525090508092505050919050565b60008054905090565b6000610960826000612546565b9050919050565b60008160000151905060005b81518110156109b3576109a084838381518110610993576109926146cf565b5b602002602001015161293d565b80806109ab906146fe565b915050610973565b506109bd83612b34565b600182604001901515908115158152505081600260008201518160000190805190602001906109ed9291906139ce565b506020820151816001015560408201518160020160006101000a81548160ff021916908315150217905550905050505050565b610a28613a58565b6000600860008473ffffffffffffffffffffffffffffffffffffffff1673ffffffffffffffffffffffffffffffffffffffff1681526020019081526020016000206040518060c00160405290816000820160009054906101000a900473ffffffffffffffffffffffffffffffffffffffff1673ffffffffffffffffffffffffffffffffffffffff1673ffffffffffffffffffffffffffffffffffffffff168152602001600182018054610ada906145c7565b80601f0160208091040260200160405190810160405280929190818152602001828054610b06906145c7565b8015610b535780601f10610b2857610100808354040283529160200191610b53565b820191906000526020600020905b815481529060010190602001808311610b3657829003601f168201915b50505050508152602001600282018054610b6c906145c7565b80601f0160208091040260200160405190810160405280929190818152602001828054610b98906145c7565b8015610be55780601f10610bba57610100808354040283529160200191610be5565b820191906000526020600020905b815481529060010190602001808311610bc857829003601f168201915b50505050508152602001600382018054610bfe906145c7565b80601f0160208091040260200160405190810160405280929190818152602001828054610c2a906145c7565b8015610c775780601f10610c4c57610100808354040283529160200191610c77565b820191906000526020600020905b815481529060010190602001808311610c5a57829003601f168201915b505050505081526020016004820160009054906101000a900460ff16151515158152602001600582016040518060800160405290816000820160009054906101000a900460ff161515151581526020016000820160019054906101000a900460ff161515151581526020016000820160029054906101000a900460ff161515151581526020016000820160039054906101000a900460ff161515151581525050815250509050600073ffffffffffffffffffffffffffffffffffffffff16816000015173ffffffffffffffffffffffffffffffffffffffff1614610d5e5780915050610d99565b6040517f08c379a0000000000000000000000000000000000000000000000000000000008152600401610d9090614793565b60405180910390fd5b919050565b80600073ffffffffffffffffffffffffffffffffffffffff16600860008373ffffffffffffffffffffffffffffffffffffffff1673ffffffffffffffffffffffffffffffffffffffff16815260200190815260200160002060000160009054906101000a900473ffffffffffffffffffffffffffffffffffffffff1673ffffffffffffffffffffffffffffffffffffffff161415610e71576040517f08c379a0000000000000000000000000000000000000000000000000000000008152600401610e6890614656565b60405180910390fd5b600960008373ffffffffffffffffffffffffffffffffffffffff1673ffffffffffffffffffffffffffffffffffffffff16815260200190815260200160002060009054906101000a900460ff16611036576000600860008473ffffffffffffffffffffffffffffffffffffffff1673ffffffffffffffffffffffffffffffffffffffff168152602001908152602001600020905060018160040160006101000a81548160ff0219169083151502179055506000816005016040518060800160405290816000820160009054906101000a900460ff161515151581526020016000820160019054906101000a900460ff161515151581526020016000820160029054906101000a900460ff161515151581526020016000820160039054906101000a900460ff1615151515815250509050806000015180610fb2575080602001515b80610fbe575080604001515b15611033576001600960008673ffffffffffffffffffffffffffffffffffffffff1673ffffffffffffffffffffffffffffffffffffffff16815260200190815260200160002060006101000a81548160ff02191690831515021790555060008081548092919061102d906146fe565b91905055505b50505b5050565b60008160000151905060005b81518110156110865761107384838381518110611066576110656146cf565b5b6020026020010151612c0a565b808061107e906146fe565b915050611046565b5061109083612e01565b600182604001901515908115158152505081600560008201518160000190805190602001906110c09291906139ce565b506020820151816001015560408201518160020160006101000a81548160ff021916908315150217905550905050505050565b600160009054906101000a900473ffffffffffffffffffffffffffffffffffffffff1681565b6000604051806101400160405280735b38da6a701c568545dcfcb03fcb875f56beddc473ffffffffffffffffffffffffffffffffffffffff1673ffffffffffffffffffffffffffffffffffffffff16815260200173ab8483f64d9c6d1ecf9b849ae677dd3315835cb273ffffffffffffffffffffffffffffffffffffffff1673ffffffffffffffffffffffffffffffffffffffff168152602001734b20993bc481177ec7e8f571cecae8a9e22c02db73ffffffffffffffffffffffffffffffffffffffff1673ffffffffffffffffffffffffffffffffffffffff1681526020017378731d3ca6b7e34ac0f824c42a7cc18a495cabab73ffffffffffffffffffffffffffffffffffffffff1673ffffffffffffffffffffffffffffffffffffffff16815260200173617f2e2fd72fd9d5503197092ac168c91465e7f273ffffffffffffffffffffffffffffffffffffffff1673ffffffffffffffffffffffffffffffffffffffff1681526020017317f6ad8ef982297579c203069c1dbffe4348c37273ffffffffffffffffffffffffffffffffffffffff1673ffffffffffffffffffffffffffffffffffffffff168152602001735c6b0f7bf3e7ce046039bd8fabdfd3f9f502167873ffffffffffffffffffffffffffffffffffffffff1673ffffffffffffffffffffffffffffffffffffffff1681526020017303c6fced478cbbc9a4fab34ef9f40767739d1ff773ffffffffffffffffffffffffffffffffffffffff1673ffffffffffffffffffffffffffffffffffffffff168152602001731ae0ea34a72d944a8c7603ffb3ec30a6669e454c73ffffffffffffffffffffffffffffffffffffffff1673ffffffffffffffffffffffffffffffffffffffff16815260200173ca35b7d915458ef540ade6068dfe2f44e8fa733c73ffffffffffffffffffffffffffffffffffffffff1673ffffffffffffffffffffffffffffffffffffffff16815250905060006040518061014001604052806040518060400160405280600481526020017f5269636b0000000000000000000000000000000000000000000000000000000081525081526020016040518060400160405280600781526020017f56616e657373610000000000000000000000000000000000000000000000000081525081526020016040518060400160405280600481526020017f416c65780000000000000000000000000000000000000000000000000000000081525081526020016040518060400160405280600481526020017f566963690000000000000000000000000000000000000000000000000000000081525081526020016040518060400160405280600281526020017f4c7500000000000000000000000000000000000000000000000000000000000081525081526020016040518060400160405280600481526020017f4a6f686e0000000000000000000000000000000000000000000000000000000081525081526020016040518060400160405280600581526020017f536172616800000000000000000000000000000000000000000000000000000081525081526020016040518060400160405280600881526020017f53616d616e74686100000000000000000000000000000000000000000000000081525081526020016040518060400160405280600581526020017f506574657200000000000000000000000000000000000000000000000000000081525081526020016040518060400160405280600581526020017f4461766964000000000000000000000000000000000000000000000000000000815250815250905060006040518061014001604052806040518060400160405280600581526020017f506174656c00000000000000000000000000000000000000000000000000000081525081526020016040518060400160405280600381526020017f4b696d000000000000000000000000000000000000000000000000000000000081525081526020016040518060400160405280600581526020017f42726f776e00000000000000000000000000000000000000000000000000000081525081526020016040518060400160405280600581526020017f446176697300000000000000000000000000000000000000000000000000000081525081526020016040518060400160405280600881526020017f4d617274696e657a00000000000000000000000000000000000000000000000081525081526020016040518060400160405280600681526020017f57696c736f6e000000000000000000000000000000000000000000000000000081525081526020016040518060400160405280600681526020017f476172636961000000000000000000000000000000000000000000000000000081525081526020016040518060400160405280600581526020017f4a6f6e657300000000000000000000000000000000000000000000000000000081525081526020016040518060400160405280600781526020017f4a61636b736f6e0000000000000000000000000000000000000000000000000081525081526020016040518060400160405280600581526020017f536d697468000000000000000000000000000000000000000000000000000000815250815250905060006040518061014001604052806040518060400160405280601281526020017f5269636b2e506174656c40706f722e636f6d000000000000000000000000000081525081526020016040518060400160405280601381526020017f56616e657373612e4b696d40706f722e636f6d0000000000000000000000000081525081526020016040518060400160405280601281526020017f416c65782e42726f776e40706f722e636f6d000000000000000000000000000081525081526020016040518060400160405280601281526020017f566963692e446176697340706f722e636f6d000000000000000000000000000081525081526020016040518060400160405280601381526020017f4c752e4d617274696e657a40706f722e636f6d0000000000000000000000000081525081526020016040518060400160405280601381526020017f4a6f686e2e57696c736f6e40706f722e636f6d0000000000000000000000000081525081526020016040518060400160405280601481526020017f53617261682e47617263696140706f722e636f6d00000000000000000000000081525081526020016040518060400160405280601681526020017f53616d616e7468612e4a6f6e657340706f722e636f6d0000000000000000000081525081526020016040518060400160405280601581526020017f50657465722e4a61636b736f6e40706f722e636f6d000000000000000000000081525081526020016040518060400160405280601381526020017f44617669642e536d69746840706f722e636f6d00000000000000000000000000815250815250905060005b600a811015611c245760008582600a8110611b1857611b176146cf565b5b602002015190503073ffffffffffffffffffffffffffffffffffffffff16630e666e49826040518263ffffffff1660e01b8152600401611b58919061439b565b602060405180830381865afa158015611b75573d6000803e3d6000fd5b505050506040513d601f19601f82011682018060405250810190611b9991906147c8565b611c1057611bee818684600a8110611bb457611bb36146cf565b5b60200201518685600a8110611bcc57611bcb6146cf565b5b60200201518686600a8110611be457611be36146cf565b5b602002015161223c565b611bfa33826002612ed7565b611c063382600361324a565b611c0f81610d9e565b5b508080611c1c906146fe565b915050611afa565b506000600267ffffffffffffffff811115611c4257611c41613ccd565b5b604051908082528060200260200182016040528015611c705781602001602082028036833780820191505090505b509050735b38da6a701c568545dcfcb03fcb875f56beddc481600081518110611c9c57611c9b6146cf565b5b602002602001019073ffffffffffffffffffffffffffffffffffffffff16908173ffffffffffffffffffffffffffffffffffffffff168152505073ab8483f64d9c6d1ecf9b849ae677dd3315835cb281600181518110611cff57611cfe6146cf565b5b602002602001019073ffffffffffffffffffffffffffffffffffffffff16908173ffffffffffffffffffffffffffffffffffffffff16815250506000611d4482610911565b9050611d503382610967565b6000600267ffffffffffffffff811115611d6d57611d6c613ccd565b5b604051908082528060200260200182016040528015611d9b5781602001602082028036833780820191505090505b509050734b20993bc481177ec7e8f571cecae8a9e22c02db81600081518110611dc757611dc66146cf565b5b602002602001019073ffffffffffffffffffffffffffffffffffffffff16908173ffffffffffffffffffffffffffffffffffffffff16815250507378731d3ca6b7e34ac0f824c42a7cc18a495cabab81600181518110611e2a57611e296146cf565b5b602002602001019073ffffffffffffffffffffffffffffffffffffffff16908173ffffffffffffffffffffffffffffffffffffffff16815250506000611e6f82612203565b9050611e7b338261103a565b5050505050505050565b611e8d613aac565b600560405180606001604052908160008201805480602002602001604051908101604052809291908181526020018280548015611f1f57602002820191906000526020600020905b8160009054906101000a900473ffffffffffffffffffffffffffffffffffffffff1673ffffffffffffffffffffffffffffffffffffffff1681526020019060010190808311611ed5575b50505050508152602001600182015481526020016002820160009054906101000a900460ff161515151581525050905090565b611f5a6139ab565b600260405180606001604052908160008201805480602002602001604051908101604052809291908181526020018280548015611fec57602002820191906000526020600020905b8160009054906101000a900473ffffffffffffffffffffffffffffffffffffffff1673ffffffffffffffffffffffffffffffffffffffff1681526020019060010190808311611fa2575b50505050508152602001600182015481526020016002820160009054906101000a900460ff161515151581525050905090565b80600073ffffffffffffffffffffffffffffffffffffffff16600860008373ffffffffffffffffffffffffffffffffffffffff1673ffffffffffffffffffffffffffffffffffffffff16815260200190815260200160002060000160009054906101000a900473ffffffffffffffffffffffffffffffffffffffff1673ffffffffffffffffffffffffffffffffffffffff1614156120f2576040517f08c379a00000000000000000000000000000000000000000000000000000000081526004016120e990614656565b60405180910390fd5b6120fb82610717565b600860008373ffffffffffffffffffffffffffffffffffffffff1673ffffffffffffffffffffffffffffffffffffffff168152602001908152602001600020600080820160006101000a81549073ffffffffffffffffffffffffffffffffffffffff02191690556001820160006121729190613acf565b6002820160006121829190613acf565b6003820160006121929190613acf565b6004820160006101000a81549060ff021916905560058201600080820160006101000a81549060ff02191690556000820160016101000a81549060ff02191690556000820160026101000a81549060ff02191690556000820160036101000a81549060ff0219169055505050505050565b61220b613aac565b6000429050600060405180606001604052808581526020018381526020016000151581525090508092505050919050565b83600073ffffffffffffffffffffffffffffffffffffffff16600860008373ffffffffffffffffffffffffffffffffffffffff1673ffffffffffffffffffffffffffffffffffffffff16815260200190815260200160002060000160009054906101000a900473ffffffffffffffffffffffffffffffffffffffff1673ffffffffffffffffffffffffffffffffffffffff161461230e576040517f08c379a000000000000000000000000000000000000000000000000000000000815260040161230590614841565b60405180910390fd5b6000604051806080016040528060001515815260200160001515815260200160001515815260200160011515815250905060006040518060c001604052808873ffffffffffffffffffffffffffffffffffffffff16815260200187815260200186815260200185815260200160001515815260200183815250905080600860008973ffffffffffffffffffffffffffffffffffffffff1673ffffffffffffffffffffffffffffffffffffffff16815260200190815260200160002060008201518160000160006101000a81548173ffffffffffffffffffffffffffffffffffffffff021916908373ffffffffffffffffffffffffffffffffffffffff160217905550602082015181600101908051906020019061242c929190613b0f565b506040820151816002019080519060200190612449929190613b0f565b506060820151816003019080519060200190612466929190613b0f565b5060808201518160040160006101000a81548160ff02191690831515021790555060a08201518160050160008201518160000160006101000a81548160ff02191690831515021790555060208201518160000160016101000a81548160ff02191690831515021790555060408201518160000160026101000a81548160ff02191690831515021790555060608201518160000160036101000a81548160ff021916908315150217905550505090505050505050505050565b600061252b826003612546565b9050919050565b600061253f826001612546565b9050919050565b600080600860008573ffffffffffffffffffffffffffffffffffffffff1673ffffffffffffffffffffffffffffffffffffffff1681526020019081526020016000206040518060c00160405290816000820160009054906101000a900473ffffffffffffffffffffffffffffffffffffffff1673ffffffffffffffffffffffffffffffffffffffff1673ffffffffffffffffffffffffffffffffffffffff1681526020016001820180546125f9906145c7565b80601f0160208091040260200160405190810160405280929190818152602001828054612625906145c7565b80156126725780601f1061264757610100808354040283529160200191612672565b820191906000526020600020905b81548152906001019060200180831161265557829003601f168201915b5050505050815260200160028201805461268b906145c7565b80601f01602080910402602001604051908101604052809291908181526020018280546126b7906145c7565b80156127045780601f106126d957610100808354040283529160200191612704565b820191906000526020600020905b8154815290600101906020018083116126e757829003601f168201915b5050505050815260200160038201805461271d906145c7565b80601f0160208091040260200160405190810160405280929190818152602001828054612749906145c7565b80156127965780601f1061276b57610100808354040283529160200191612796565b820191906000526020600020905b81548152906001019060200180831161277957829003601f168201915b505050505081526020016004820160009054906101000a900460ff16151515158152602001600582016040518060800160405290816000820160009054906101000a900460ff161515151581526020016000820160019054906101000a900460ff161515151581526020016000820160029054906101000a900460ff161515151581526020016000820160039054906101000a900460ff16151515158152505081525050905060008160a0015190506000600381111561285957612858614861565b5b84600381111561286c5761286b614861565b5b141561288057806000015192505050612937565b6001600381111561289457612893614861565b5b8460038111156128a7576128a6614861565b5b14156128bb57806020015192505050612937565b600260038111156128cf576128ce614861565b5b8460038111156128e2576128e1614861565b5b14156128f657806040015192505050612937565b60038081111561290957612908614861565b5b84600381111561291c5761291b614861565b5b141561293057806060015192505050612937565b6000925050505b92915050565b81600160009054906101000a900473ffffffffffffffffffffffffffffffffffffffff1673ffffffffffffffffffffffffffffffffffffffff168173ffffffffffffffffffffffffffffffffffffffff161480612a1057503073ffffffffffffffffffffffffffffffffffffffff1663297027d5826040518263ffffffff1660e01b81526004016129ce919061439b565b602060405180830381865afa1580156129eb573d6000803e3d6000fd5b505050506040513d601f19601f82011682018060405250810190612a0f91906147c8565b5b612a4f576040517f08c379a0000000000000000000000000000000000000000000000000000000008152600401612a4690614902565b60405180910390fd5b81600073ffffffffffffffffffffffffffffffffffffffff16600860008373ffffffffffffffffffffffffffffffffffffffff1673ffffffffffffffffffffffffffffffffffffffff16815260200190815260200160002060000160009054906101000a900473ffffffffffffffffffffffffffffffffffffffff1673ffffffffffffffffffffffffffffffffffffffff161415612b22576040517f08c379a0000000000000000000000000000000000000000000000000000000008152600401612b1990614656565b60405180910390fd5b612b2e84846000612ed7565b50505050565b60006002600001805480602002602001604051908101604052809291908181526020018280548015612bbb57602002820191906000526020600020905b8160009054906101000a900473ffffffffffffffffffffffffffffffffffffffff1673ffffffffffffffffffffffffffffffffffffffff1681526020019060010190808311612b71575b5050505050905060005b8151811015612c0557612bf283838381518110612be557612be46146cf565b5b60200260200101516135bd565b8080612bfd906146fe565b915050612bc5565b505050565b81600160009054906101000a900473ffffffffffffffffffffffffffffffffffffffff1673ffffffffffffffffffffffffffffffffffffffff168173ffffffffffffffffffffffffffffffffffffffff161480612cdd57503073ffffffffffffffffffffffffffffffffffffffff1663297027d5826040518263ffffffff1660e01b8152600401612c9b919061439b565b602060405180830381865afa158015612cb8573d6000803e3d6000fd5b505050506040513d601f19601f82011682018060405250810190612cdc91906147c8565b5b612d1c576040517f08c379a0000000000000000000000000000000000000000000000000000000008152600401612d1390614902565b60405180910390fd5b81600073ffffffffffffffffffffffffffffffffffffffff16600860008373ffffffffffffffffffffffffffffffffffffffff1673ffffffffffffffffffffffffffffffffffffffff16815260200190815260200160002060000160009054906101000a900473ffffffffffffffffffffffffffffffffffffffff1673ffffffffffffffffffffffffffffffffffffffff161415612def576040517f08c379a0000000000000000000000000000000000000000000000000000000008152600401612de690614656565b60405180910390fd5b612dfb84846001612ed7565b50505050565b60006005600001805480602002602001604051908101604052809291908181526020018280548015612e8857602002820191906000526020600020905b8160009054906101000a900473ffffffffffffffffffffffffffffffffffffffff1673ffffffffffffffffffffffffffffffffffffffff1681526020019060010190808311612e3e575b5050505050905060005b8151811015612ed257612ebf83838381518110612eb257612eb16146cf565b5b60200260200101516137b4565b8080612eca906146fe565b915050612e92565b505050565b82600160009054906101000a900473ffffffffffffffffffffffffffffffffffffffff1673ffffffffffffffffffffffffffffffffffffffff168173ffffffffffffffffffffffffffffffffffffffff161480612faa57503073ffffffffffffffffffffffffffffffffffffffff1663297027d5826040518263ffffffff1660e01b8152600401612f68919061439b565b602060405180830381865afa158015612f85573d6000803e3d6000fd5b505050506040513d601f19601f82011682018060405250810190612fa991906147c8565b5b612fe9576040517f08c379a0000000000000000000000000000000000000000000000000000000008152600401612fe090614902565b60405180910390fd5b82600073ffffffffffffffffffffffffffffffffffffffff16600860008373ffffffffffffffffffffffffffffffffffffffff1673ffffffffffffffffffffffffffffffffffffffff16815260200190815260200160002060000160009054906101000a900473ffffffffffffffffffffffffffffffffffffffff1673ffffffffffffffffffffffffffffffffffffffff1614156130bc576040517f08c379a00000000000000000000000000000000000000000000000000000000081526004016130b390614656565b60405180910390fd5b6000600860008673ffffffffffffffffffffffffffffffffffffffff1673ffffffffffffffffffffffffffffffffffffffff168152602001908152602001600020905060008160050190506000600381111561311b5761311a614861565b5b85600381111561312e5761312d614861565b5b14156131565760018160000160006101000a81548160ff021916908315150217905550613241565b6001600381111561316a57613169614861565b5b85600381111561317d5761317c614861565b5b14156131a55760018160000160016101000a81548160ff021916908315150217905550613240565b600260038111156131b9576131b8614861565b5b8560038111156131cc576131cb614861565b5b14156131f45760018160000160026101000a81548160ff02191690831515021790555061323f565b60038081111561320757613206614861565b5b85600381111561321a57613219614861565b5b141561323e5760018160000160036101000a81548160ff0219169083151502179055505b5b5b5b50505050505050565b82600160009054906101000a900473ffffffffffffffffffffffffffffffffffffffff1673ffffffffffffffffffffffffffffffffffffffff168173ffffffffffffffffffffffffffffffffffffffff16148061331d57503073ffffffffffffffffffffffffffffffffffffffff1663297027d5826040518263ffffffff1660e01b81526004016132db919061439b565b602060405180830381865afa1580156132f8573d6000803e3d6000fd5b505050506040513d601f19601f8201168201806040525081019061331c91906147c8565b5b61335c576040517f08c379a000000000000000000000000000000000000000000000000000000000815260040161335390614902565b60405180910390fd5b82600073ffffffffffffffffffffffffffffffffffffffff16600860008373ffffffffffffffffffffffffffffffffffffffff1673ffffffffffffffffffffffffffffffffffffffff16815260200190815260200160002060000160009054906101000a900473ffffffffffffffffffffffffffffffffffffffff1673ffffffffffffffffffffffffffffffffffffffff16141561342f576040517f08c379a000000000000000000000000000000000000000000000000000000000815260040161342690614656565b60405180910390fd5b6000600860008673ffffffffffffffffffffffffffffffffffffffff1673ffffffffffffffffffffffffffffffffffffffff168152602001908152602001600020905060008160050190506000600381111561348e5761348d614861565b5b8560038111156134a1576134a0614861565b5b14156134c95760008160000160006101000a81548160ff0219169083151502179055506135b4565b600160038111156134dd576134dc614861565b5b8560038111156134f0576134ef614861565b5b14156135185760008160000160016101000a81548160ff0219169083151502179055506135b3565b6002600381111561352c5761352b614861565b5b85600381111561353f5761353e614861565b5b14156135675760008160000160026101000a81548160ff0219169083151502179055506135b2565b60038081111561357a57613579614861565b5b85600381111561358d5761358c614861565b5b14156135b15760008160000160036101000a81548160ff0219169083151502179055505b5b5b5b50505050505050565b81600160009054906101000a900473ffffffffffffffffffffffffffffffffffffffff1673ffffffffffffffffffffffffffffffffffffffff168173ffffffffffffffffffffffffffffffffffffffff16148061369057503073ffffffffffffffffffffffffffffffffffffffff1663297027d5826040518263ffffffff1660e01b815260040161364e919061439b565b602060405180830381865afa15801561366b573d6000803e3d6000fd5b505050506040513d601f19601f8201168201806040525081019061368f91906147c8565b5b6136cf576040517f08c379a00000000000000000000000000000000000000000000000000000000081526004016136c690614902565b60405180910390fd5b81600073ffffffffffffffffffffffffffffffffffffffff16600860008373ffffffffffffffffffffffffffffffffffffffff1673ffffffffffffffffffffffffffffffffffffffff16815260200190815260200160002060000160009054906101000a900473ffffffffffffffffffffffffffffffffffffffff1673ffffffffffffffffffffffffffffffffffffffff1614156137a2576040517f08c379a000000000000000000000000000000000000000000000000000000000815260040161379990614656565b60405180910390fd5b6137ae8484600061324a565b50505050565b81600160009054906101000a900473ffffffffffffffffffffffffffffffffffffffff1673ffffffffffffffffffffffffffffffffffffffff168173ffffffffffffffffffffffffffffffffffffffff16148061388757503073ffffffffffffffffffffffffffffffffffffffff1663297027d5826040518263ffffffff1660e01b8152600401613845919061439b565b602060405180830381865afa158015613862573d6000803e3d6000fd5b505050506040513d601f19601f8201168201806040525081019061388691906147c8565b5b6138c6576040517f08c379a00000000000000000000000000000000000000000000000000000000081526004016138bd90614902565b60405180910390fd5b81600073ffffffffffffffffffffffffffffffffffffffff16600860008373ffffffffffffffffffffffffffffffffffffffff1673ffffffffffffffffffffffffffffffffffffffff16815260200190815260200160002060000160009054906101000a900473ffffffffffffffffffffffffffffffffffffffff1673ffffffffffffffffffffffffffffffffffffffff161415613999576040517f08c379a000000000000000000000000000000000000000000000000000000000815260040161399090614656565b60405180910390fd5b6139a58484600161324a565b50505050565b604051806060016040528060608152602001600081526020016000151581525090565b828054828255906000526020600020908101928215613a47579160200282015b82811115613a465782518260006101000a81548173ffffffffffffffffffffffffffffffffffffffff021916908373ffffffffffffffffffffffffffffffffffffffff160217905550916020019190600101906139ee565b5b509050613a549190613b95565b5090565b6040518060c00160405280600073ffffffffffffffffffffffffffffffffffffffff168152602001606081526020016060815260200160608152602001600015158152602001613aa6613bb2565b81525090565b604051806060016040528060608152602001600081526020016000151581525090565b508054613adb906145c7565b6000825580601f10613aed5750613b0c565b601f016020900490600052602060002090810190613b0b9190613b95565b5b50565b828054613b1b906145c7565b90600052602060002090601f016020900481019282613b3d5760008555613b84565b82601f10613b5657805160ff1916838001178555613b84565b82800160010185558215613b84579182015b82811115613b83578251825591602001919060010190613b68565b5b509050613b919190613b95565b5090565b5b80821115613bae576000816000905550600101613b96565b5090565b60405180608001604052806000151581526020016000151581526020016000151581526020016000151581525090565b6000604051905090565b600080fd5b600080fd5b600073ffffffffffffffffffffffffffffffffffffffff82169050919050565b6000613c2182613bf6565b9050919050565b613c3181613c16565b8114613c3c57600080fd5b50565b600081359050613c4e81613c28565b92915050565b600060208284031215613c6a57613c69613bec565b5b6000613c7884828501613c3f565b91505092915050565b60008115159050919050565b613c9681613c81565b82525050565b6000602082019050613cb16000830184613c8d565b92915050565b600080fd5b6000601f19601f8301169050919050565b7f4e487b7100000000000000000000000000000000000000000000000000000000600052604160045260246000fd5b613d0582613cbc565b810181811067ffffffffffffffff82111715613d2457613d23613ccd565b5b80604052505050565b6000613d37613be2565b9050613d438282613cfc565b919050565b600067ffffffffffffffff821115613d6357613d62613ccd565b5b602082029050602081019050919050565b600080fd5b6000613d8c613d8784613d48565b613d2d565b90508083825260208201905060208402830185811115613daf57613dae613d74565b5b835b81811015613dd85780613dc48882613c3f565b845260208401935050602081019050613db1565b5050509392505050565b600082601f830112613df757613df6613cb7565b5b8135613e07848260208601613d79565b91505092915050565b600060208284031215613e2657613e25613bec565b5b600082013567ffffffffffffffff811115613e4457613e43613bf1565b5b613e5084828501613de2565b91505092915050565b600081519050919050565b600082825260208201905092915050565b6000819050602082019050919050565b613e8e81613c16565b82525050565b6000613ea08383613e85565b60208301905092915050565b6000602082019050919050565b6000613ec482613e59565b613ece8185613e64565b9350613ed983613e75565b8060005b83811015613f0a578151613ef18882613e94565b9750613efc83613eac565b925050600181019050613edd565b5085935050505092915050565b6000819050919050565b613f2a81613f17565b82525050565b613f3981613c81565b82525050565b60006060830160008301518482036000860152613f5c8282613eb9565b9150506020830151613f716020860182613f21565b506040830151613f846040860182613f30565b508091505092915050565b60006020820190508181036000830152613fa98184613f3f565b905092915050565b613fba81613f17565b82525050565b6000602082019050613fd56000830184613fb1565b92915050565b600080fd5b600080fd5b613fee81613f17565b8114613ff957600080fd5b50565b60008135905061400b81613fe5565b92915050565b61401a81613c81565b811461402557600080fd5b50565b60008135905061403781614011565b92915050565b60006060828403121561405357614052613fdb565b5b61405d6060613d2d565b9050600082013567ffffffffffffffff81111561407d5761407c613fe0565b5b61408984828501613de2565b600083015250602061409d84828501613ffc565b60208301525060406140b184828501614028565b60408301525092915050565b600080604083850312156140d4576140d3613bec565b5b60006140e285828601613c3f565b925050602083013567ffffffffffffffff81111561410357614102613bf1565b5b61410f8582860161403d565b9150509250929050565b600081519050919050565b600082825260208201905092915050565b60005b83811015614153578082015181840152602081019050614138565b83811115614162576000848401525b50505050565b600061417382614119565b61417d8185614124565b935061418d818560208601614135565b61419681613cbc565b840191505092915050565b6080820160008201516141b76000850182613f30565b5060208201516141ca6020850182613f30565b5060408201516141dd6040850182613f30565b5060608201516141f06060850182613f30565b50505050565b60006101208301600083015161420f6000860182613e85565b50602083015184820360208601526142278282614168565b915050604083015184820360408601526142418282614168565b9150506060830151848203606086015261425b8282614168565b91505060808301516142706080860182613f30565b5060a083015161428360a08601826141a1565b508091505092915050565b600060208201905081810360008301526142a881846141f6565b905092915050565b6000606082840312156142c6576142c5613fdb565b5b6142d06060613d2d565b9050600082013567ffffffffffffffff8111156142f0576142ef613fe0565b5b6142fc84828501613de2565b600083015250602061431084828501613ffc565b602083015250604061432484828501614028565b60408301525092915050565b6000806040838503121561434757614346613bec565b5b600061435585828601613c3f565b925050602083013567ffffffffffffffff81111561437657614375613bf1565b5b614382858286016142b0565b9150509250929050565b61439581613c16565b82525050565b60006020820190506143b0600083018461438c565b92915050565b600060608301600083015184820360008601526143d38282613eb9565b91505060208301516143e86020860182613f21565b5060408301516143fb6040860182613f30565b508091505092915050565b6000602082019050818103600083015261442081846143b6565b905092915050565b600080fd5b600067ffffffffffffffff82111561444857614447613ccd565b5b61445182613cbc565b9050602081019050919050565b82818337600083830152505050565b600061448061447b8461442d565b613d2d565b90508281526020810184848401111561449c5761449b614428565b5b6144a784828561445e565b509392505050565b600082601f8301126144c4576144c3613cb7565b5b81356144d484826020860161446d565b91505092915050565b600080600080608085870312156144f7576144f6613bec565b5b600061450587828801613c3f565b945050602085013567ffffffffffffffff81111561452657614525613bf1565b5b614532878288016144af565b935050604085013567ffffffffffffffff81111561455357614552613bf1565b5b61455f878288016144af565b925050606085013567ffffffffffffffff8111156145805761457f613bf1565b5b61458c878288016144af565b91505092959194509250565b7f4e487b7100000000000000000000000000000000000000000000000000000000600052602260045260246000fd5b600060028204905060018216806145df57607f821691505b602082108114156145f3576145f2614598565b5b50919050565b600082825260208201905092915050565b7f4163636f756e7420646f65736e27742065786973740000000000000000000000600082015250565b60006146406015836145f9565b915061464b8261460a565b602082019050919050565b6000602082019050818103600083015261466f81614633565b9050919050565b7f4e487b7100000000000000000000000000000000000000000000000000000000600052601160045260246000fd5b60006146b082613f17565b915060008214156146c4576146c3614676565b5b600182039050919050565b7f4e487b7100000000000000000000000000000000000000000000000000000000600052603260045260246000fd5b600061470982613f17565b91507fffffffffffffffffffffffffffffffffffffffffffffffffffffffffffffffff82141561473c5761473b614676565b5b600182019050919050565b7f55736572206e6f7420666f756e64210000000000000000000000000000000000600082015250565b600061477d600f836145f9565b915061478882614747565b602082019050919050565b600060208201905081810360008301526147ac81614770565b9050919050565b6000815190506147c281614011565b92915050565b6000602082840312156147de576147dd613bec565b5b60006147ec848285016147b3565b91505092915050565b7f4163636f756e7420616c72656164792065786973747300000000000000000000600082015250565b600061482b6016836145f9565b9150614836826147f5565b602082019050919050565b6000602082019050818103600083015261485a8161481e565b9050919050565b7f4e487b7100000000000000000000000000000000000000000000000000000000600052602160045260246000fd5b7f4f6e6c79206f776e65722063616e2063616c6c20746869732066756e6374696f60008201527f6e2e000000000000000000000000000000000000000000000000000000000000602082015250565b60006148ec6022836145f9565b91506148f782614890565b604082019050919050565b6000602082019050818103600083015261491b816148df565b905091905056fea26469706673582212207b9a4410db195c28b522133a3f386df36c919ce952cc7606e054c36c3ed3375564736f6c634300080c0033",
					"opcodes": "PUSH1 0x80 PUSH1 0x40 MSTORE CALLVALUE DUP1 ISZERO PUSH3 0x11 JUMPI PUSH1 0x0 DUP1 REVERT JUMPDEST POP PUSH1 0x40 MLOAD PUSH3 0x5DA9 CODESIZE SUB DUP1 PUSH3 0x5DA9 DUP4 CODECOPY DUP2 DUP2 ADD PUSH1 0x40 MSTORE DUP2 ADD SWAP1 PUSH3 0x37 SWAP2 SWAP1 PUSH3 0x100F JUMP JUMPDEST CALLER PUSH1 0x1 PUSH1 0x0 PUSH2 0x100 EXP DUP2 SLOAD DUP2 PUSH20 0xFFFFFFFFFFFFFFFFFFFFFFFFFFFFFFFFFFFFFFFF MUL NOT AND SWAP1 DUP4 PUSH20 0xFFFFFFFFFFFFFFFFFFFFFFFFFFFFFFFFFFFFFFFF AND MUL OR SWAP1 SSTORE POP PUSH3 0x8C CALLER DUP5 DUP5 DUP5 PUSH3 0xF6 PUSH1 0x20 SHL PUSH1 0x20 SHR JUMP JUMPDEST PUSH3 0xA0 CALLER CALLER PUSH1 0x0 PUSH3 0x3E1 PUSH1 0x20 SHL PUSH1 0x20 SHR JUMP JUMPDEST PUSH3 0xB4 CALLER CALLER PUSH1 0x1 PUSH3 0x3E1 PUSH1 0x20 SHL PUSH1 0x20 SHR JUMP JUMPDEST PUSH3 0xC8 CALLER CALLER PUSH1 0x2 PUSH3 0x3E1 PUSH1 0x20 SHL PUSH1 0x20 SHR JUMP JUMPDEST PUSH3 0xDC CALLER CALLER PUSH1 0x3 PUSH3 0x77F PUSH1 0x20 SHL PUSH1 0x20 SHR JUMP JUMPDEST PUSH3 0xED CALLER PUSH3 0xB1D PUSH1 0x20 SHL PUSH1 0x20 SHR JUMP JUMPDEST POP POP POP PUSH3 0x1441 JUMP JUMPDEST DUP4 PUSH1 0x0 PUSH20 0xFFFFFFFFFFFFFFFFFFFFFFFFFFFFFFFFFFFFFFFF AND PUSH1 0x8 PUSH1 0x0 DUP4 PUSH20 0xFFFFFFFFFFFFFFFFFFFFFFFFFFFFFFFFFFFFFFFF AND PUSH20 0xFFFFFFFFFFFFFFFFFFFFFFFFFFFFFFFFFFFFFFFF AND DUP2 MSTORE PUSH1 0x20 ADD SWAP1 DUP2 MSTORE PUSH1 0x20 ADD PUSH1 0x0 KECCAK256 PUSH1 0x0 ADD PUSH1 0x0 SWAP1 SLOAD SWAP1 PUSH2 0x100 EXP SWAP1 DIV PUSH20 0xFFFFFFFFFFFFFFFFFFFFFFFFFFFFFFFFFFFFFFFF AND PUSH20 0xFFFFFFFFFFFFFFFFFFFFFFFFFFFFFFFFFFFFFFFF AND EQ PUSH3 0x1CB JUMPI PUSH1 0x40 MLOAD PUSH32 0x8C379A000000000000000000000000000000000000000000000000000000000 DUP2 MSTORE PUSH1 0x4 ADD PUSH3 0x1C2 SWAP1 PUSH3 0x1129 JUMP JUMPDEST PUSH1 0x40 MLOAD DUP1 SWAP2 SUB SWAP1 REVERT JUMPDEST PUSH1 0x0 PUSH1 0x40 MLOAD DUP1 PUSH1 0x80 ADD PUSH1 0x40 MSTORE DUP1 PUSH1 0x0 ISZERO ISZERO DUP2 MSTORE PUSH1 0x20 ADD PUSH1 0x0 ISZERO ISZERO DUP2 MSTORE PUSH1 0x20 ADD PUSH1 0x0 ISZERO ISZERO DUP2 MSTORE PUSH1 0x20 ADD PUSH1 0x1 ISZERO ISZERO DUP2 MSTORE POP SWAP1 POP PUSH1 0x0 PUSH1 0x40 MLOAD DUP1 PUSH1 0xC0 ADD PUSH1 0x40 MSTORE DUP1 DUP9 PUSH20 0xFFFFFFFFFFFFFFFFFFFFFFFFFFFFFFFFFFFFFFFF AND DUP2 MSTORE PUSH1 0x20 ADD DUP8 DUP2 MSTORE PUSH1 0x20 ADD DUP7 DUP2 MSTORE PUSH1 0x20 ADD DUP6 DUP2 MSTORE PUSH1 0x20 ADD PUSH1 0x0 ISZERO ISZERO DUP2 MSTORE PUSH1 0x20 ADD DUP4 DUP2 MSTORE POP SWAP1 POP DUP1 PUSH1 0x8 PUSH1 0x0 DUP10 PUSH20 0xFFFFFFFFFFFFFFFFFFFFFFFFFFFFFFFFFFFFFFFF AND PUSH20 0xFFFFFFFFFFFFFFFFFFFFFFFFFFFFFFFFFFFFFFFF AND DUP2 MSTORE PUSH1 0x20 ADD SWAP1 DUP2 MSTORE PUSH1 0x20 ADD PUSH1 0x0 KECCAK256 PUSH1 0x0 DUP3 ADD MLOAD DUP2 PUSH1 0x0 ADD PUSH1 0x0 PUSH2 0x100 EXP DUP2 SLOAD DUP2 PUSH20 0xFFFFFFFFFFFFFFFFFFFFFFFFFFFFFFFFFFFFFFFF MUL NOT AND SWAP1 DUP4 PUSH20 0xFFFFFFFFFFFFFFFFFFFFFFFFFFFFFFFFFFFFFFFF AND MUL OR SWAP1 SSTORE POP PUSH1 0x20 DUP3 ADD MLOAD DUP2 PUSH1 0x1 ADD SWAP1 DUP1 MLOAD SWAP1 PUSH1 0x20 ADD SWAP1 PUSH3 0x2EB SWAP3 SWAP2 SWAP1 PUSH3 0xDC2 JUMP JUMPDEST POP PUSH1 0x40 DUP3 ADD MLOAD DUP2 PUSH1 0x2 ADD SWAP1 DUP1 MLOAD SWAP1 PUSH1 0x20 ADD SWAP1 PUSH3 0x30A SWAP3 SWAP2 SWAP1 PUSH3 0xDC2 JUMP JUMPDEST POP PUSH1 0x60 DUP3 ADD MLOAD DUP2 PUSH1 0x3 ADD SWAP1 DUP1 MLOAD SWAP1 PUSH1 0x20 ADD SWAP1 PUSH3 0x329 SWAP3 SWAP2 SWAP1 PUSH3 0xDC2 JUMP JUMPDEST POP PUSH1 0x80 DUP3 ADD MLOAD DUP2 PUSH1 0x4 ADD PUSH1 0x0 PUSH2 0x100 EXP DUP2 SLOAD DUP2 PUSH1 0xFF MUL NOT AND SWAP1 DUP4 ISZERO ISZERO MUL OR SWAP1 SSTORE POP PUSH1 0xA0 DUP3 ADD MLOAD DUP2 PUSH1 0x5 ADD PUSH1 0x0 DUP3 ADD MLOAD DUP2 PUSH1 0x0 ADD PUSH1 0x0 PUSH2 0x100 EXP DUP2 SLOAD DUP2 PUSH1 0xFF MUL NOT AND SWAP1 DUP4 ISZERO ISZERO MUL OR SWAP1 SSTORE POP PUSH1 0x20 DUP3 ADD MLOAD DUP2 PUSH1 0x0 ADD PUSH1 0x1 PUSH2 0x100 EXP DUP2 SLOAD DUP2 PUSH1 0xFF MUL NOT AND SWAP1 DUP4 ISZERO ISZERO MUL OR SWAP1 SSTORE POP PUSH1 0x40 DUP3 ADD MLOAD DUP2 PUSH1 0x0 ADD PUSH1 0x2 PUSH2 0x100 EXP DUP2 SLOAD DUP2 PUSH1 0xFF MUL NOT AND SWAP1 DUP4 ISZERO ISZERO MUL OR SWAP1 SSTORE POP PUSH1 0x60 DUP3 ADD MLOAD DUP2 PUSH1 0x0 ADD PUSH1 0x3 PUSH2 0x100 EXP DUP2 SLOAD DUP2 PUSH1 0xFF MUL NOT AND SWAP1 DUP4 ISZERO ISZERO MUL OR SWAP1 SSTORE POP POP POP SWAP1 POP POP POP POP POP POP POP POP POP JUMP JUMPDEST DUP3 PUSH1 0x1 PUSH1 0x0 SWAP1 SLOAD SWAP1 PUSH2 0x100 EXP SWAP1 DIV PUSH20 0xFFFFFFFFFFFFFFFFFFFFFFFFFFFFFFFFFFFFFFFF AND PUSH20 0xFFFFFFFFFFFFFFFFFFFFFFFFFFFFFFFFFFFFFFFF AND DUP2 PUSH20 0xFFFFFFFFFFFFFFFFFFFFFFFFFFFFFFFFFFFFFFFF AND EQ DUP1 PUSH3 0x4BA JUMPI POP ADDRESS PUSH20 0xFFFFFFFFFFFFFFFFFFFFFFFFFFFFFFFFFFFFFFFF AND PUSH4 0x297027D5 DUP3 PUSH1 0x40 MLOAD DUP3 PUSH4 0xFFFFFFFF AND PUSH1 0xE0 SHL DUP2 MSTORE PUSH1 0x4 ADD PUSH3 0x475 SWAP2 SWAP1 PUSH3 0x1190 JUMP JUMPDEST PUSH1 0x20 PUSH1 0x40 MLOAD DUP1 DUP4 SUB DUP2 DUP7 GAS STATICCALL ISZERO DUP1 ISZERO PUSH3 0x493 JUMPI RETURNDATASIZE PUSH1 0x0 DUP1 RETURNDATACOPY RETURNDATASIZE PUSH1 0x0 REVERT JUMPDEST POP POP POP POP PUSH1 0x40 MLOAD RETURNDATASIZE PUSH1 0x1F NOT PUSH1 0x1F DUP3 ADD AND DUP3 ADD DUP1 PUSH1 0x40 MSTORE POP DUP2 ADD SWAP1 PUSH3 0x4B9 SWAP2 SWAP1 PUSH3 0x11EA JUMP JUMPDEST JUMPDEST PUSH3 0x4FC JUMPI PUSH1 0x40 MLOAD PUSH32 0x8C379A000000000000000000000000000000000000000000000000000000000 DUP2 MSTORE PUSH1 0x4 ADD PUSH3 0x4F3 SWAP1 PUSH3 0x1292 JUMP JUMPDEST PUSH1 0x40 MLOAD DUP1 SWAP2 SUB SWAP1 REVERT JUMPDEST DUP3 PUSH1 0x0 PUSH20 0xFFFFFFFFFFFFFFFFFFFFFFFFFFFFFFFFFFFFFFFF AND PUSH1 0x8 PUSH1 0x0 DUP4 PUSH20 0xFFFFFFFFFFFFFFFFFFFFFFFFFFFFFFFFFFFFFFFF AND PUSH20 0xFFFFFFFFFFFFFFFFFFFFFFFFFFFFFFFFFFFFFFFF AND DUP2 MSTORE PUSH1 0x20 ADD SWAP1 DUP2 MSTORE PUSH1 0x20 ADD PUSH1 0x0 KECCAK256 PUSH1 0x0 ADD PUSH1 0x0 SWAP1 SLOAD SWAP1 PUSH2 0x100 EXP SWAP1 DIV PUSH20 0xFFFFFFFFFFFFFFFFFFFFFFFFFFFFFFFFFFFFFFFF AND PUSH20 0xFFFFFFFFFFFFFFFFFFFFFFFFFFFFFFFFFFFFFFFF AND EQ ISZERO PUSH3 0x5D2 JUMPI PUSH1 0x40 MLOAD PUSH32 0x8C379A000000000000000000000000000000000000000000000000000000000 DUP2 MSTORE PUSH1 0x4 ADD PUSH3 0x5C9 SWAP1 PUSH3 0x1304 JUMP JUMPDEST PUSH1 0x40 MLOAD DUP1 SWAP2 SUB SWAP1 REVERT JUMPDEST PUSH1 0x0 PUSH1 0x8 PUSH1 0x0 DUP7 PUSH20 0xFFFFFFFFFFFFFFFFFFFFFFFFFFFFFFFFFFFFFFFF AND PUSH20 0xFFFFFFFFFFFFFFFFFFFFFFFFFFFFFFFFFFFFFFFF AND DUP2 MSTORE PUSH1 0x20 ADD SWAP1 DUP2 MSTORE PUSH1 0x20 ADD PUSH1 0x0 KECCAK256 SWAP1 POP PUSH1 0x0 DUP2 PUSH1 0x5 ADD SWAP1 POP PUSH1 0x0 PUSH1 0x3 DUP2 GT ISZERO PUSH3 0x634 JUMPI PUSH3 0x633 PUSH3 0x1326 JUMP JUMPDEST JUMPDEST DUP6 PUSH1 0x3 DUP2 GT ISZERO PUSH3 0x64A JUMPI PUSH3 0x649 PUSH3 0x1326 JUMP JUMPDEST JUMPDEST EQ ISZERO PUSH3 0x674 JUMPI PUSH1 0x1 DUP2 PUSH1 0x0 ADD PUSH1 0x0 PUSH2 0x100 EXP DUP2 SLOAD DUP2 PUSH1 0xFF MUL NOT AND SWAP1 DUP4 ISZERO ISZERO MUL OR SWAP1 SSTORE POP PUSH3 0x776 JUMP JUMPDEST PUSH1 0x1 PUSH1 0x3 DUP2 GT ISZERO PUSH3 0x68B JUMPI PUSH3 0x68A PUSH3 0x1326 JUMP JUMPDEST JUMPDEST DUP6 PUSH1 0x3 DUP2 GT ISZERO PUSH3 0x6A1 JUMPI PUSH3 0x6A0 PUSH3 0x1326 JUMP JUMPDEST JUMPDEST EQ ISZERO PUSH3 0x6CB JUMPI PUSH1 0x1 DUP2 PUSH1 0x0 ADD PUSH1 0x1 PUSH2 0x100 EXP DUP2 SLOAD DUP2 PUSH1 0xFF MUL NOT AND SWAP1 DUP4 ISZERO ISZERO MUL OR SWAP1 SSTORE POP PUSH3 0x775 JUMP JUMPDEST PUSH1 0x2 PUSH1 0x3 DUP2 GT ISZERO PUSH3 0x6E2 JUMPI PUSH3 0x6E1 PUSH3 0x1326 JUMP JUMPDEST JUMPDEST DUP6 PUSH1 0x3 DUP2 GT ISZERO PUSH3 0x6F8 JUMPI PUSH3 0x6F7 PUSH3 0x1326 JUMP JUMPDEST JUMPDEST EQ ISZERO PUSH3 0x722 JUMPI PUSH1 0x1 DUP2 PUSH1 0x0 ADD PUSH1 0x2 PUSH2 0x100 EXP DUP2 SLOAD DUP2 PUSH1 0xFF MUL NOT AND SWAP1 DUP4 ISZERO ISZERO MUL OR SWAP1 SSTORE POP PUSH3 0x774 JUMP JUMPDEST PUSH1 0x3 DUP1 DUP2 GT ISZERO PUSH3 0x738 JUMPI PUSH3 0x737 PUSH3 0x1326 JUMP JUMPDEST JUMPDEST DUP6 PUSH1 0x3 DUP2 GT ISZERO PUSH3 0x74E JUMPI PUSH3 0x74D PUSH3 0x1326 JUMP JUMPDEST JUMPDEST EQ ISZERO PUSH3 0x773 JUMPI PUSH1 0x1 DUP2 PUSH1 0x0 ADD PUSH1 0x3 PUSH2 0x100 EXP DUP2 SLOAD DUP2 PUSH1 0xFF MUL NOT AND SWAP1 DUP4 ISZERO ISZERO MUL OR SWAP1 SSTORE POP JUMPDEST JUMPDEST JUMPDEST JUMPDEST POP POP POP POP POP POP POP JUMP JUMPDEST DUP3 PUSH1 0x1 PUSH1 0x0 SWAP1 SLOAD SWAP1 PUSH2 0x100 EXP SWAP1 DIV PUSH20 0xFFFFFFFFFFFFFFFFFFFFFFFFFFFFFFFFFFFFFFFF AND PUSH20 0xFFFFFFFFFFFFFFFFFFFFFFFFFFFFFFFFFFFFFFFF AND DUP2 PUSH20 0xFFFFFFFFFFFFFFFFFFFFFFFFFFFFFFFFFFFFFFFF AND EQ DUP1 PUSH3 0x858 JUMPI POP ADDRESS PUSH20 0xFFFFFFFFFFFFFFFFFFFFFFFFFFFFFFFFFFFFFFFF AND PUSH4 0x297027D5 DUP3 PUSH1 0x40 MLOAD DUP3 PUSH4 0xFFFFFFFF AND PUSH1 0xE0 SHL DUP2 MSTORE PUSH1 0x4 ADD PUSH3 0x813 SWAP2 SWAP1 PUSH3 0x1190 JUMP JUMPDEST PUSH1 0x20 PUSH1 0x40 MLOAD DUP1 DUP4 SUB DUP2 DUP7 GAS STATICCALL ISZERO DUP1 ISZERO PUSH3 0x831 JUMPI RETURNDATASIZE PUSH1 0x0 DUP1 RETURNDATACOPY RETURNDATASIZE PUSH1 0x0 REVERT JUMPDEST POP POP POP POP PUSH1 0x40 MLOAD RETURNDATASIZE PUSH1 0x1F NOT PUSH1 0x1F DUP3 ADD AND DUP3 ADD DUP1 PUSH1 0x40 MSTORE POP DUP2 ADD SWAP1 PUSH3 0x857 SWAP2 SWAP1 PUSH3 0x11EA JUMP JUMPDEST JUMPDEST PUSH3 0x89A JUMPI PUSH1 0x40 MLOAD PUSH32 0x8C379A000000000000000000000000000000000000000000000000000000000 DUP2 MSTORE PUSH1 0x4 ADD PUSH3 0x891 SWAP1 PUSH3 0x1292 JUMP JUMPDEST PUSH1 0x40 MLOAD DUP1 SWAP2 SUB SWAP1 REVERT JUMPDEST DUP3 PUSH1 0x0 PUSH20 0xFFFFFFFFFFFFFFFFFFFFFFFFFFFFFFFFFFFFFFFF AND PUSH1 0x8 PUSH1 0x0 DUP4 PUSH20 0xFFFFFFFFFFFFFFFFFFFFFFFFFFFFFFFFFFFFFFFF AND PUSH20 0xFFFFFFFFFFFFFFFFFFFFFFFFFFFFFFFFFFFFFFFF AND DUP2 MSTORE PUSH1 0x20 ADD SWAP1 DUP2 MSTORE PUSH1 0x20 ADD PUSH1 0x0 KECCAK256 PUSH1 0x0 ADD PUSH1 0x0 SWAP1 SLOAD SWAP1 PUSH2 0x100 EXP SWAP1 DIV PUSH20 0xFFFFFFFFFFFFFFFFFFFFFFFFFFFFFFFFFFFFFFFF AND PUSH20 0xFFFFFFFFFFFFFFFFFFFFFFFFFFFFFFFFFFFFFFFF AND EQ ISZERO PUSH3 0x970 JUMPI PUSH1 0x40 MLOAD PUSH32 0x8C379A000000000000000000000000000000000000000000000000000000000 DUP2 MSTORE PUSH1 0x4 ADD PUSH3 0x967 SWAP1 PUSH3 0x1304 JUMP JUMPDEST PUSH1 0x40 MLOAD DUP1 SWAP2 SUB SWAP1 REVERT JUMPDEST PUSH1 0x0 PUSH1 0x8 PUSH1 0x0 DUP7 PUSH20 0xFFFFFFFFFFFFFFFFFFFFFFFFFFFFFFFFFFFFFFFF AND PUSH20 0xFFFFFFFFFFFFFFFFFFFFFFFFFFFFFFFFFFFFFFFF AND DUP2 MSTORE PUSH1 0x20 ADD SWAP1 DUP2 MSTORE PUSH1 0x20 ADD PUSH1 0x0 KECCAK256 SWAP1 POP PUSH1 0x0 DUP2 PUSH1 0x5 ADD SWAP1 POP PUSH1 0x0 PUSH1 0x3 DUP2 GT ISZERO PUSH3 0x9D2 JUMPI PUSH3 0x9D1 PUSH3 0x1326 JUMP JUMPDEST JUMPDEST DUP6 PUSH1 0x3 DUP2 GT ISZERO PUSH3 0x9E8 JUMPI PUSH3 0x9E7 PUSH3 0x1326 JUMP JUMPDEST JUMPDEST EQ ISZERO PUSH3 0xA12 JUMPI PUSH1 0x0 DUP2 PUSH1 0x0 ADD PUSH1 0x0 PUSH2 0x100 EXP DUP2 SLOAD DUP2 PUSH1 0xFF MUL NOT AND SWAP1 DUP4 ISZERO ISZERO MUL OR SWAP1 SSTORE POP PUSH3 0xB14 JUMP JUMPDEST PUSH1 0x1 PUSH1 0x3 DUP2 GT ISZERO PUSH3 0xA29 JUMPI PUSH3 0xA28 PUSH3 0x1326 JUMP JUMPDEST JUMPDEST DUP6 PUSH1 0x3 DUP2 GT ISZERO PUSH3 0xA3F JUMPI PUSH3 0xA3E PUSH3 0x1326 JUMP JUMPDEST JUMPDEST EQ ISZERO PUSH3 0xA69 JUMPI PUSH1 0x0 DUP2 PUSH1 0x0 ADD PUSH1 0x1 PUSH2 0x100 EXP DUP2 SLOAD DUP2 PUSH1 0xFF MUL NOT AND SWAP1 DUP4 ISZERO ISZERO MUL OR SWAP1 SSTORE POP PUSH3 0xB13 JUMP JUMPDEST PUSH1 0x2 PUSH1 0x3 DUP2 GT ISZERO PUSH3 0xA80 JUMPI PUSH3 0xA7F PUSH3 0x1326 JUMP JUMPDEST JUMPDEST DUP6 PUSH1 0x3 DUP2 GT ISZERO PUSH3 0xA96 JUMPI PUSH3 0xA95 PUSH3 0x1326 JUMP JUMPDEST JUMPDEST EQ ISZERO PUSH3 0xAC0 JUMPI PUSH1 0x0 DUP2 PUSH1 0x0 ADD PUSH1 0x2 PUSH2 0x100 EXP DUP2 SLOAD DUP2 PUSH1 0xFF MUL NOT AND SWAP1 DUP4 ISZERO ISZERO MUL OR SWAP1 SSTORE POP PUSH3 0xB12 JUMP JUMPDEST PUSH1 0x3 DUP1 DUP2 GT ISZERO PUSH3 0xAD6 JUMPI PUSH3 0xAD5 PUSH3 0x1326 JUMP JUMPDEST JUMPDEST DUP6 PUSH1 0x3 DUP2 GT ISZERO PUSH3 0xAEC JUMPI PUSH3 0xAEB PUSH3 0x1326 JUMP JUMPDEST JUMPDEST EQ ISZERO PUSH3 0xB11 JUMPI PUSH1 0x0 DUP2 PUSH1 0x0 ADD PUSH1 0x3 PUSH2 0x100 EXP DUP2 SLOAD DUP2 PUSH1 0xFF MUL NOT AND SWAP1 DUP4 ISZERO ISZERO MUL OR SWAP1 SSTORE POP JUMPDEST JUMPDEST JUMPDEST JUMPDEST POP POP POP POP POP POP POP JUMP JUMPDEST DUP1 PUSH1 0x0 PUSH20 0xFFFFFFFFFFFFFFFFFFFFFFFFFFFFFFFFFFFFFFFF AND PUSH1 0x8 PUSH1 0x0 DUP4 PUSH20 0xFFFFFFFFFFFFFFFFFFFFFFFFFFFFFFFFFFFFFFFF AND PUSH20 0xFFFFFFFFFFFFFFFFFFFFFFFFFFFFFFFFFFFFFFFF AND DUP2 MSTORE PUSH1 0x20 ADD SWAP1 DUP2 MSTORE PUSH1 0x20 ADD PUSH1 0x0 KECCAK256 PUSH1 0x0 ADD PUSH1 0x0 SWAP1 SLOAD SWAP1 PUSH2 0x100 EXP SWAP1 DIV PUSH20 0xFFFFFFFFFFFFFFFFFFFFFFFFFFFFFFFFFFFFFFFF AND PUSH20 0xFFFFFFFFFFFFFFFFFFFFFFFFFFFFFFFFFFFFFFFF AND EQ ISZERO PUSH3 0xBF3 JUMPI PUSH1 0x40 MLOAD PUSH32 0x8C379A000000000000000000000000000000000000000000000000000000000 DUP2 MSTORE PUSH1 0x4 ADD PUSH3 0xBEA SWAP1 PUSH3 0x1304 JUMP JUMPDEST PUSH1 0x40 MLOAD DUP1 SWAP2 SUB SWAP1 REVERT JUMPDEST PUSH1 0x9 PUSH1 0x0 DUP4 PUSH20 0xFFFFFFFFFFFFFFFFFFFFFFFFFFFFFFFFFFFFFFFF AND PUSH20 0xFFFFFFFFFFFFFFFFFFFFFFFFFFFFFFFFFFFFFFFF AND DUP2 MSTORE PUSH1 0x20 ADD SWAP1 DUP2 MSTORE PUSH1 0x20 ADD PUSH1 0x0 KECCAK256 PUSH1 0x0 SWAP1 SLOAD SWAP1 PUSH2 0x100 EXP SWAP1 DIV PUSH1 0xFF AND PUSH3 0xDBE JUMPI PUSH1 0x0 PUSH1 0x8 PUSH1 0x0 DUP5 PUSH20 0xFFFFFFFFFFFFFFFFFFFFFFFFFFFFFFFFFFFFFFFF AND PUSH20 0xFFFFFFFFFFFFFFFFFFFFFFFFFFFFFFFFFFFFFFFF AND DUP2 MSTORE PUSH1 0x20 ADD SWAP1 DUP2 MSTORE PUSH1 0x20 ADD PUSH1 0x0 KECCAK256 SWAP1 POP PUSH1 0x1 DUP2 PUSH1 0x4 ADD PUSH1 0x0 PUSH2 0x100 EXP DUP2 SLOAD DUP2 PUSH1 0xFF MUL NOT AND SWAP1 DUP4 ISZERO ISZERO MUL OR SWAP1 SSTORE POP PUSH1 0x0 DUP2 PUSH1 0x5 ADD PUSH1 0x40 MLOAD DUP1 PUSH1 0x80 ADD PUSH1 0x40 MSTORE SWAP1 DUP2 PUSH1 0x0 DUP3 ADD PUSH1 0x0 SWAP1 SLOAD SWAP1 PUSH2 0x100 EXP SWAP1 DIV PUSH1 0xFF AND ISZERO ISZERO ISZERO ISZERO DUP2 MSTORE PUSH1 0x20 ADD PUSH1 0x0 DUP3 ADD PUSH1 0x1 SWAP1 SLOAD SWAP1 PUSH2 0x100 EXP SWAP1 DIV PUSH1 0xFF AND ISZERO ISZERO ISZERO ISZERO DUP2 MSTORE PUSH1 0x20 ADD PUSH1 0x0 DUP3 ADD PUSH1 0x2 SWAP1 SLOAD SWAP1 PUSH2 0x100 EXP SWAP1 DIV PUSH1 0xFF AND ISZERO ISZERO ISZERO ISZERO DUP2 MSTORE PUSH1 0x20 ADD PUSH1 0x0 DUP3 ADD PUSH1 0x3 SWAP1 SLOAD SWAP1 PUSH2 0x100 EXP SWAP1 DIV PUSH1 0xFF AND ISZERO ISZERO ISZERO ISZERO DUP2 MSTORE POP POP SWAP1 POP DUP1 PUSH1 0x0 ADD MLOAD DUP1 PUSH3 0xD36 JUMPI POP DUP1 PUSH1 0x20 ADD MLOAD JUMPDEST DUP1 PUSH3 0xD43 JUMPI POP DUP1 PUSH1 0x40 ADD MLOAD JUMPDEST ISZERO PUSH3 0xDBB JUMPI PUSH1 0x1 PUSH1 0x9 PUSH1 0x0 DUP7 PUSH20 0xFFFFFFFFFFFFFFFFFFFFFFFFFFFFFFFFFFFFFFFF AND PUSH20 0xFFFFFFFFFFFFFFFFFFFFFFFFFFFFFFFFFFFFFFFF AND DUP2 MSTORE PUSH1 0x20 ADD SWAP1 DUP2 MSTORE PUSH1 0x20 ADD PUSH1 0x0 KECCAK256 PUSH1 0x0 PUSH2 0x100 EXP DUP2 SLOAD DUP2 PUSH1 0xFF MUL NOT AND SWAP1 DUP4 ISZERO ISZERO MUL OR SWAP1 SSTORE POP PUSH1 0x0 DUP1 DUP2 SLOAD DUP1 SWAP3 SWAP2 SWAP1 PUSH3 0xDB5 SWAP1 PUSH3 0x138E JUMP JUMPDEST SWAP2 SWAP1 POP SSTORE POP JUMPDEST POP POP JUMPDEST POP POP JUMP JUMPDEST DUP3 DUP1 SLOAD PUSH3 0xDD0 SWAP1 PUSH3 0x140B JUMP JUMPDEST SWAP1 PUSH1 0x0 MSTORE PUSH1 0x20 PUSH1 0x0 KECCAK256 SWAP1 PUSH1 0x1F ADD PUSH1 0x20 SWAP1 DIV DUP2 ADD SWAP3 DUP3 PUSH3 0xDF4 JUMPI PUSH1 0x0 DUP6 SSTORE PUSH3 0xE40 JUMP JUMPDEST DUP3 PUSH1 0x1F LT PUSH3 0xE0F JUMPI DUP1 MLOAD PUSH1 0xFF NOT AND DUP4 DUP1 ADD OR DUP6 SSTORE PUSH3 0xE40 JUMP JUMPDEST DUP3 DUP1 ADD PUSH1 0x1 ADD DUP6 SSTORE DUP3 ISZERO PUSH3 0xE40 JUMPI SWAP2 DUP3 ADD JUMPDEST DUP3 DUP2 GT ISZERO PUSH3 0xE3F JUMPI DUP3 MLOAD DUP3 SSTORE SWAP2 PUSH1 0x20 ADD SWAP2 SWAP1 PUSH1 0x1 ADD SWAP1 PUSH3 0xE22 JUMP JUMPDEST JUMPDEST POP SWAP1 POP PUSH3 0xE4F SWAP2 SWAP1 PUSH3 0xE53 JUMP JUMPDEST POP SWAP1 JUMP JUMPDEST JUMPDEST DUP1 DUP3 GT ISZERO PUSH3 0xE6E JUMPI PUSH1 0x0 DUP2 PUSH1 0x0 SWAP1 SSTORE POP PUSH1 0x1 ADD PUSH3 0xE54 JUMP JUMPDEST POP SWAP1 JUMP JUMPDEST PUSH1 0x0 PUSH1 0x40 MLOAD SWAP1 POP SWAP1 JUMP JUMPDEST PUSH1 0x0 DUP1 REVERT JUMPDEST PUSH1 0x0 DUP1 REVERT JUMPDEST PUSH1 0x0 DUP1 REVERT JUMPDEST PUSH1 0x0 DUP1 REVERT JUMPDEST PUSH1 0x0 PUSH1 0x1F NOT PUSH1 0x1F DUP4 ADD AND SWAP1 POP SWAP2 SWAP1 POP JUMP JUMPDEST PUSH32 0x4E487B7100000000000000000000000000000000000000000000000000000000 PUSH1 0x0 MSTORE PUSH1 0x41 PUSH1 0x4 MSTORE PUSH1 0x24 PUSH1 0x0 REVERT JUMPDEST PUSH3 0xEDB DUP3 PUSH3 0xE90 JUMP JUMPDEST DUP2 ADD DUP2 DUP2 LT PUSH8 0xFFFFFFFFFFFFFFFF DUP3 GT OR ISZERO PUSH3 0xEFD JUMPI PUSH3 0xEFC PUSH3 0xEA1 JUMP JUMPDEST JUMPDEST DUP1 PUSH1 0x40 MSTORE POP POP POP JUMP JUMPDEST PUSH1 0x0 PUSH3 0xF12 PUSH3 0xE72 JUMP JUMPDEST SWAP1 POP PUSH3 0xF20 DUP3 DUP3 PUSH3 0xED0 JUMP JUMPDEST SWAP2 SWAP1 POP JUMP JUMPDEST PUSH1 0x0 PUSH8 0xFFFFFFFFFFFFFFFF DUP3 GT ISZERO PUSH3 0xF43 JUMPI PUSH3 0xF42 PUSH3 0xEA1 JUMP JUMPDEST JUMPDEST PUSH3 0xF4E DUP3 PUSH3 0xE90 JUMP JUMPDEST SWAP1 POP PUSH1 0x20 DUP2 ADD SWAP1 POP SWAP2 SWAP1 POP JUMP JUMPDEST PUSH1 0x0 JUMPDEST DUP4 DUP2 LT ISZERO PUSH3 0xF7B JUMPI DUP1 DUP3 ADD MLOAD DUP2 DUP5 ADD MSTORE PUSH1 0x20 DUP2 ADD SWAP1 POP PUSH3 0xF5E JUMP JUMPDEST DUP4 DUP2 GT ISZERO PUSH3 0xF8B JUMPI PUSH1 0x0 DUP5 DUP5 ADD MSTORE JUMPDEST POP POP POP POP JUMP JUMPDEST PUSH1 0x0 PUSH3 0xFA8 PUSH3 0xFA2 DUP5 PUSH3 0xF25 JUMP JUMPDEST PUSH3 0xF06 JUMP JUMPDEST SWAP1 POP DUP3 DUP2 MSTORE PUSH1 0x20 DUP2 ADD DUP5 DUP5 DUP5 ADD GT ISZERO PUSH3 0xFC7 JUMPI PUSH3 0xFC6 PUSH3 0xE8B JUMP JUMPDEST JUMPDEST PUSH3 0xFD4 DUP5 DUP3 DUP6 PUSH3 0xF5B JUMP JUMPDEST POP SWAP4 SWAP3 POP POP POP JUMP JUMPDEST PUSH1 0x0 DUP3 PUSH1 0x1F DUP4 ADD SLT PUSH3 0xFF4 JUMPI PUSH3 0xFF3 PUSH3 0xE86 JUMP JUMPDEST JUMPDEST DUP2 MLOAD PUSH3 0x1006 DUP5 DUP3 PUSH1 0x20 DUP7 ADD PUSH3 0xF91 JUMP JUMPDEST SWAP2 POP POP SWAP3 SWAP2 POP POP JUMP JUMPDEST PUSH1 0x0 DUP1 PUSH1 0x0 PUSH1 0x60 DUP5 DUP7 SUB SLT ISZERO PUSH3 0x102B JUMPI PUSH3 0x102A PUSH3 0xE7C JUMP JUMPDEST JUMPDEST PUSH1 0x0 DUP5 ADD MLOAD PUSH8 0xFFFFFFFFFFFFFFFF DUP2 GT ISZERO PUSH3 0x104C JUMPI PUSH3 0x104B PUSH3 0xE81 JUMP JUMPDEST JUMPDEST PUSH3 0x105A DUP7 DUP3 DUP8 ADD PUSH3 0xFDC JUMP JUMPDEST SWAP4 POP POP PUSH1 0x20 DUP5 ADD MLOAD PUSH8 0xFFFFFFFFFFFFFFFF DUP2 GT ISZERO PUSH3 0x107E JUMPI PUSH3 0x107D PUSH3 0xE81 JUMP JUMPDEST JUMPDEST PUSH3 0x108C DUP7 DUP3 DUP8 ADD PUSH3 0xFDC JUMP JUMPDEST SWAP3 POP POP PUSH1 0x40 DUP5 ADD MLOAD PUSH8 0xFFFFFFFFFFFFFFFF DUP2 GT ISZERO PUSH3 0x10B0 JUMPI PUSH3 0x10AF PUSH3 0xE81 JUMP JUMPDEST JUMPDEST PUSH3 0x10BE DUP7 DUP3 DUP8 ADD PUSH3 0xFDC JUMP JUMPDEST SWAP2 POP POP SWAP3 POP SWAP3 POP SWAP3 JUMP JUMPDEST PUSH1 0x0 DUP3 DUP3 MSTORE PUSH1 0x20 DUP3 ADD SWAP1 POP SWAP3 SWAP2 POP POP JUMP JUMPDEST PUSH32 0x4163636F756E7420616C72656164792065786973747300000000000000000000 PUSH1 0x0 DUP3 ADD MSTORE POP JUMP JUMPDEST PUSH1 0x0 PUSH3 0x1111 PUSH1 0x16 DUP4 PUSH3 0x10C8 JUMP JUMPDEST SWAP2 POP PUSH3 0x111E DUP3 PUSH3 0x10D9 JUMP JUMPDEST PUSH1 0x20 DUP3 ADD SWAP1 POP SWAP2 SWAP1 POP JUMP JUMPDEST PUSH1 0x0 PUSH1 0x20 DUP3 ADD SWAP1 POP DUP2 DUP2 SUB PUSH1 0x0 DUP4 ADD MSTORE PUSH3 0x1144 DUP2 PUSH3 0x1102 JUMP JUMPDEST SWAP1 POP SWAP2 SWAP1 POP JUMP JUMPDEST PUSH1 0x0 PUSH20 0xFFFFFFFFFFFFFFFFFFFFFFFFFFFFFFFFFFFFFFFF DUP3 AND SWAP1 POP SWAP2 SWAP1 POP JUMP JUMPDEST PUSH1 0x0 PUSH3 0x1178 DUP3 PUSH3 0x114B JUMP JUMPDEST SWAP1 POP SWAP2 SWAP1 POP JUMP JUMPDEST PUSH3 0x118A DUP2 PUSH3 0x116B JUMP JUMPDEST DUP3 MSTORE POP POP JUMP JUMPDEST PUSH1 0x0 PUSH1 0x20 DUP3 ADD SWAP1 POP PUSH3 0x11A7 PUSH1 0x0 DUP4 ADD DUP5 PUSH3 0x117F JUMP JUMPDEST SWAP3 SWAP2 POP POP JUMP JUMPDEST PUSH1 0x0 DUP2 ISZERO ISZERO SWAP1 POP SWAP2 SWAP1 POP JUMP JUMPDEST PUSH3 0x11C4 DUP2 PUSH3 0x11AD JUMP JUMPDEST DUP2 EQ PUSH3 0x11D0 JUMPI PUSH1 0x0 DUP1 REVERT JUMPDEST POP JUMP JUMPDEST PUSH1 0x0 DUP2 MLOAD SWAP1 POP PUSH3 0x11E4 DUP2 PUSH3 0x11B9 JUMP JUMPDEST SWAP3 SWAP2 POP POP JUMP JUMPDEST PUSH1 0x0 PUSH1 0x20 DUP3 DUP5 SUB SLT ISZERO PUSH3 0x1203 JUMPI PUSH3 0x1202 PUSH3 0xE7C JUMP JUMPDEST JUMPDEST PUSH1 0x0 PUSH3 0x1213 DUP5 DUP3 DUP6 ADD PUSH3 0x11D3 JUMP JUMPDEST SWAP2 POP POP SWAP3 SWAP2 POP POP JUMP JUMPDEST PUSH32 0x4F6E6C79206F776E65722063616E2063616C6C20746869732066756E6374696F PUSH1 0x0 DUP3 ADD MSTORE PUSH32 0x6E2E000000000000000000000000000000000000000000000000000000000000 PUSH1 0x20 DUP3 ADD MSTORE POP JUMP JUMPDEST PUSH1 0x0 PUSH3 0x127A PUSH1 0x22 DUP4 PUSH3 0x10C8 JUMP JUMPDEST SWAP2 POP PUSH3 0x1287 DUP3 PUSH3 0x121C JUMP JUMPDEST PUSH1 0x40 DUP3 ADD SWAP1 POP SWAP2 SWAP1 POP JUMP JUMPDEST PUSH1 0x0 PUSH1 0x20 DUP3 ADD SWAP1 POP DUP2 DUP2 SUB PUSH1 0x0 DUP4 ADD MSTORE PUSH3 0x12AD DUP2 PUSH3 0x126B JUMP JUMPDEST SWAP1 POP SWAP2 SWAP1 POP JUMP JUMPDEST PUSH32 0x4163636F756E7420646F65736E27742065786973740000000000000000000000 PUSH1 0x0 DUP3 ADD MSTORE POP JUMP JUMPDEST PUSH1 0x0 PUSH3 0x12EC PUSH1 0x15 DUP4 PUSH3 0x10C8 JUMP JUMPDEST SWAP2 POP PUSH3 0x12F9 DUP3 PUSH3 0x12B4 JUMP JUMPDEST PUSH1 0x20 DUP3 ADD SWAP1 POP SWAP2 SWAP1 POP JUMP JUMPDEST PUSH1 0x0 PUSH1 0x20 DUP3 ADD SWAP1 POP DUP2 DUP2 SUB PUSH1 0x0 DUP4 ADD MSTORE PUSH3 0x131F DUP2 PUSH3 0x12DD JUMP JUMPDEST SWAP1 POP SWAP2 SWAP1 POP JUMP JUMPDEST PUSH32 0x4E487B7100000000000000000000000000000000000000000000000000000000 PUSH1 0x0 MSTORE PUSH1 0x21 PUSH1 0x4 MSTORE PUSH1 0x24 PUSH1 0x0 REVERT JUMPDEST PUSH32 0x4E487B7100000000000000000000000000000000000000000000000000000000 PUSH1 0x0 MSTORE PUSH1 0x11 PUSH1 0x4 MSTORE PUSH1 0x24 PUSH1 0x0 REVERT JUMPDEST PUSH1 0x0 DUP2 SWAP1 POP SWAP2 SWAP1 POP JUMP JUMPDEST PUSH1 0x0 PUSH3 0x139B DUP3 PUSH3 0x1384 JUMP JUMPDEST SWAP2 POP PUSH32 0xFFFFFFFFFFFFFFFFFFFFFFFFFFFFFFFFFFFFFFFFFFFFFFFFFFFFFFFFFFFFFFFF DUP3 EQ ISZERO PUSH3 0x13D1 JUMPI PUSH3 0x13D0 PUSH3 0x1355 JUMP JUMPDEST JUMPDEST PUSH1 0x1 DUP3 ADD SWAP1 POP SWAP2 SWAP1 POP JUMP JUMPDEST PUSH32 0x4E487B7100000000000000000000000000000000000000000000000000000000 PUSH1 0x0 MSTORE PUSH1 0x22 PUSH1 0x4 MSTORE PUSH1 0x24 PUSH1 0x0 REVERT JUMPDEST PUSH1 0x0 PUSH1 0x2 DUP3 DIV SWAP1 POP PUSH1 0x1 DUP3 AND DUP1 PUSH3 0x1424 JUMPI PUSH1 0x7F DUP3 AND SWAP2 POP JUMPDEST PUSH1 0x20 DUP3 LT DUP2 EQ ISZERO PUSH3 0x143B JUMPI PUSH3 0x143A PUSH3 0x13DC JUMP JUMPDEST JUMPDEST POP SWAP2 SWAP1 POP JUMP JUMPDEST PUSH2 0x4958 DUP1 PUSH3 0x1451 PUSH1 0x0 CODECOPY PUSH1 0x0 RETURN INVALID PUSH1 0x80 PUSH1 0x40 MSTORE CALLVALUE DUP1 ISZERO PUSH2 0x10 JUMPI PUSH1 0x0 DUP1 REVERT JUMPDEST POP PUSH1 0x4 CALLDATASIZE LT PUSH2 0x121 JUMPI PUSH1 0x0 CALLDATALOAD PUSH1 0xE0 SHR DUP1 PUSH4 0x8AD63C01 GT PUSH2 0xAD JUMPI DUP1 PUSH4 0xD3A5059A GT PUSH2 0x71 JUMPI DUP1 PUSH4 0xD3A5059A EQ PUSH2 0x308 JUMPI DUP1 PUSH4 0xD41450B6 EQ PUSH2 0x324 JUMPI DUP1 PUSH4 0xDEE94B4A EQ PUSH2 0x354 JUMPI DUP1 PUSH4 0xE8621E59 EQ PUSH2 0x370 JUMPI DUP1 PUSH4 0xFA4D7AAE EQ PUSH2 0x3A0 JUMPI PUSH2 0x121 JUMP JUMPDEST DUP1 PUSH4 0x8AD63C01 EQ PUSH2 0x288 JUMPI DUP1 PUSH4 0x8DA5CB5B EQ PUSH2 0x2A4 JUMPI DUP1 PUSH4 0x95A26FA6 EQ PUSH2 0x2C2 JUMPI DUP1 PUSH4 0xB1813695 EQ PUSH2 0x2CC JUMPI DUP1 PUSH4 0xC29D72BC EQ PUSH2 0x2EA JUMPI PUSH2 0x121 JUMP JUMPDEST DUP1 PUSH4 0x22FAA41F GT PUSH2 0xF4 JUMPI DUP1 PUSH4 0x22FAA41F EQ PUSH2 0x1D2 JUMPI DUP1 PUSH4 0x297027D5 EQ PUSH2 0x1F0 JUMPI DUP1 PUSH4 0x3D0A8A34 EQ PUSH2 0x220 JUMPI DUP1 PUSH4 0x6F77926B EQ PUSH2 0x23C JUMPI DUP1 PUSH4 0x82A62137 EQ PUSH2 0x26C JUMPI PUSH2 0x121 JUMP JUMPDEST DUP1 PUSH4 0x56909B7 EQ PUSH2 0x126 JUMPI DUP1 PUSH4 0xE666E49 EQ PUSH2 0x156 JUMPI DUP1 PUSH4 0x130CB5F0 EQ PUSH2 0x186 JUMPI DUP1 PUSH4 0x20E05D9C EQ PUSH2 0x1A2 JUMPI JUMPDEST PUSH1 0x0 DUP1 REVERT JUMPDEST PUSH2 0x140 PUSH1 0x4 DUP1 CALLDATASIZE SUB DUP2 ADD SWAP1 PUSH2 0x13B SWAP2 SWAP1 PUSH2 0x3C54 JUMP JUMPDEST PUSH2 0x3D0 JUMP JUMPDEST PUSH1 0x40 MLOAD PUSH2 0x14D SWAP2 SWAP1 PUSH2 0x3C9C JUMP JUMPDEST PUSH1 0x40 MLOAD DUP1 SWAP2 SUB SWAP1 RETURN JUMPDEST PUSH2 0x170 PUSH1 0x4 DUP1 CALLDATASIZE SUB DUP2 ADD SWAP1 PUSH2 0x16B SWAP2 SWAP1 PUSH2 0x3C54 JUMP JUMPDEST PUSH2 0x3E4 JUMP JUMPDEST PUSH1 0x40 MLOAD PUSH2 0x17D SWAP2 SWAP1 PUSH2 0x3C9C JUMP JUMPDEST PUSH1 0x40 MLOAD DUP1 SWAP2 SUB SWAP1 RETURN JUMPDEST PUSH2 0x1A0 PUSH1 0x4 DUP1 CALLDATASIZE SUB DUP2 ADD SWAP1 PUSH2 0x19B SWAP2 SWAP1 PUSH2 0x3C54 JUMP JUMPDEST PUSH2 0x717 JUMP JUMPDEST STOP JUMPDEST PUSH2 0x1BC PUSH1 0x4 DUP1 CALLDATASIZE SUB DUP2 ADD SWAP1 PUSH2 0x1B7 SWAP2 SWAP1 PUSH2 0x3E10 JUMP JUMPDEST PUSH2 0x911 JUMP JUMPDEST PUSH1 0x40 MLOAD PUSH2 0x1C9 SWAP2 SWAP1 PUSH2 0x3F8F JUMP JUMPDEST PUSH1 0x40 MLOAD DUP1 SWAP2 SUB SWAP1 RETURN JUMPDEST PUSH2 0x1DA PUSH2 0x94A JUMP JUMPDEST PUSH1 0x40 MLOAD PUSH2 0x1E7 SWAP2 SWAP1 PUSH2 0x3FC0 JUMP JUMPDEST PUSH1 0x40 MLOAD DUP1 SWAP2 SUB SWAP1 RETURN JUMPDEST PUSH2 0x20A PUSH1 0x4 DUP1 CALLDATASIZE SUB DUP2 ADD SWAP1 PUSH2 0x205 SWAP2 SWAP1 PUSH2 0x3C54 JUMP JUMPDEST PUSH2 0x953 JUMP JUMPDEST PUSH1 0x40 MLOAD PUSH2 0x217 SWAP2 SWAP1 PUSH2 0x3C9C JUMP JUMPDEST PUSH1 0x40 MLOAD DUP1 SWAP2 SUB SWAP1 RETURN JUMPDEST PUSH2 0x23A PUSH1 0x4 DUP1 CALLDATASIZE SUB DUP2 ADD SWAP1 PUSH2 0x235 SWAP2 SWAP1 PUSH2 0x40BD JUMP JUMPDEST PUSH2 0x967 JUMP JUMPDEST STOP JUMPDEST PUSH2 0x256 PUSH1 0x4 DUP1 CALLDATASIZE SUB DUP2 ADD SWAP1 PUSH2 0x251 SWAP2 SWAP1 PUSH2 0x3C54 JUMP JUMPDEST PUSH2 0xA20 JUMP JUMPDEST PUSH1 0x40 MLOAD PUSH2 0x263 SWAP2 SWAP1 PUSH2 0x428E JUMP JUMPDEST PUSH1 0x40 MLOAD DUP1 SWAP2 SUB SWAP1 RETURN JUMPDEST PUSH2 0x286 PUSH1 0x4 DUP1 CALLDATASIZE SUB DUP2 ADD SWAP1 PUSH2 0x281 SWAP2 SWAP1 PUSH2 0x3C54 JUMP JUMPDEST PUSH2 0xD9E JUMP JUMPDEST STOP JUMPDEST PUSH2 0x2A2 PUSH1 0x4 DUP1 CALLDATASIZE SUB DUP2 ADD SWAP1 PUSH2 0x29D SWAP2 SWAP1 PUSH2 0x4330 JUMP JUMPDEST PUSH2 0x103A JUMP JUMPDEST STOP JUMPDEST PUSH2 0x2AC PUSH2 0x10F3 JUMP JUMPDEST PUSH1 0x40 MLOAD PUSH2 0x2B9 SWAP2 SWAP1 PUSH2 0x439B JUMP JUMPDEST PUSH1 0x40 MLOAD DUP1 SWAP2 SUB SWAP1 RETURN JUMPDEST PUSH2 0x2CA PUSH2 0x1119 JUMP JUMPDEST STOP JUMPDEST PUSH2 0x2D4 PUSH2 0x1E85 JUMP JUMPDEST PUSH1 0x40 MLOAD PUSH2 0x2E1 SWAP2 SWAP1 PUSH2 0x4406 JUMP JUMPDEST PUSH1 0x40 MLOAD DUP1 SWAP2 SUB SWAP1 RETURN JUMPDEST PUSH2 0x2F2 PUSH2 0x1F52 JUMP JUMPDEST PUSH1 0x40 MLOAD PUSH2 0x2FF SWAP2 SWAP1 PUSH2 0x3F8F JUMP JUMPDEST PUSH1 0x40 MLOAD DUP1 SWAP2 SUB SWAP1 RETURN JUMPDEST PUSH2 0x322 PUSH1 0x4 DUP1 CALLDATASIZE SUB DUP2 ADD SWAP1 PUSH2 0x31D SWAP2 SWAP1 PUSH2 0x3C54 JUMP JUMPDEST PUSH2 0x201F JUMP JUMPDEST STOP JUMPDEST PUSH2 0x33E PUSH1 0x4 DUP1 CALLDATASIZE SUB DUP2 ADD SWAP1 PUSH2 0x339 SWAP2 SWAP1 PUSH2 0x3E10 JUMP JUMPDEST PUSH2 0x2203 JUMP JUMPDEST PUSH1 0x40 MLOAD PUSH2 0x34B SWAP2 SWAP1 PUSH2 0x4406 JUMP JUMPDEST PUSH1 0x40 MLOAD DUP1 SWAP2 SUB SWAP1 RETURN JUMPDEST PUSH2 0x36E PUSH1 0x4 DUP1 CALLDATASIZE SUB DUP2 ADD SWAP1 PUSH2 0x369 SWAP2 SWAP1 PUSH2 0x44DD JUMP JUMPDEST PUSH2 0x223C JUMP JUMPDEST STOP JUMPDEST PUSH2 0x38A PUSH1 0x4 DUP1 CALLDATASIZE SUB DUP2 ADD SWAP1 PUSH2 0x385 SWAP2 SWAP1 PUSH2 0x3C54 JUMP JUMPDEST PUSH2 0x251E JUMP JUMPDEST PUSH1 0x40 MLOAD PUSH2 0x397 SWAP2 SWAP1 PUSH2 0x3C9C JUMP JUMPDEST PUSH1 0x40 MLOAD DUP1 SWAP2 SUB SWAP1 RETURN JUMPDEST PUSH2 0x3BA PUSH1 0x4 DUP1 CALLDATASIZE SUB DUP2 ADD SWAP1 PUSH2 0x3B5 SWAP2 SWAP1 PUSH2 0x3C54 JUMP JUMPDEST PUSH2 0x2532 JUMP JUMPDEST PUSH1 0x40 MLOAD PUSH2 0x3C7 SWAP2 SWAP1 PUSH2 0x3C9C JUMP JUMPDEST PUSH1 0x40 MLOAD DUP1 SWAP2 SUB SWAP1 RETURN JUMPDEST PUSH1 0x0 PUSH2 0x3DD DUP3 PUSH1 0x2 PUSH2 0x2546 JUMP JUMPDEST SWAP1 POP SWAP2 SWAP1 POP JUMP JUMPDEST PUSH1 0x0 DUP1 PUSH1 0x8 PUSH1 0x0 DUP5 PUSH20 0xFFFFFFFFFFFFFFFFFFFFFFFFFFFFFFFFFFFFFFFF AND PUSH20 0xFFFFFFFFFFFFFFFFFFFFFFFFFFFFFFFFFFFFFFFF AND DUP2 MSTORE PUSH1 0x20 ADD SWAP1 DUP2 MSTORE PUSH1 0x20 ADD PUSH1 0x0 KECCAK256 PUSH1 0x40 MLOAD DUP1 PUSH1 0xC0 ADD PUSH1 0x40 MSTORE SWAP1 DUP2 PUSH1 0x0 DUP3 ADD PUSH1 0x0 SWAP1 SLOAD SWAP1 PUSH2 0x100 EXP SWAP1 DIV PUSH20 0xFFFFFFFFFFFFFFFFFFFFFFFFFFFFFFFFFFFFFFFF AND PUSH20 0xFFFFFFFFFFFFFFFFFFFFFFFFFFFFFFFFFFFFFFFF AND PUSH20 0xFFFFFFFFFFFFFFFFFFFFFFFFFFFFFFFFFFFFFFFF AND DUP2 MSTORE PUSH1 0x20 ADD PUSH1 0x1 DUP3 ADD DUP1 SLOAD PUSH2 0x497 SWAP1 PUSH2 0x45C7 JUMP JUMPDEST DUP1 PUSH1 0x1F ADD PUSH1 0x20 DUP1 SWAP2 DIV MUL PUSH1 0x20 ADD PUSH1 0x40 MLOAD SWAP1 DUP2 ADD PUSH1 0x40 MSTORE DUP1 SWAP3 SWAP2 SWAP1 DUP2 DUP2 MSTORE PUSH1 0x20 ADD DUP3 DUP1 SLOAD PUSH2 0x4C3 SWAP1 PUSH2 0x45C7 JUMP JUMPDEST DUP1 ISZERO PUSH2 0x510 JUMPI DUP1 PUSH1 0x1F LT PUSH2 0x4E5 JUMPI PUSH2 0x100 DUP1 DUP4 SLOAD DIV MUL DUP4 MSTORE SWAP2 PUSH1 0x20 ADD SWAP2 PUSH2 0x510 JUMP JUMPDEST DUP3 ADD SWAP2 SWAP1 PUSH1 0x0 MSTORE PUSH1 0x20 PUSH1 0x0 KECCAK256 SWAP1 JUMPDEST DUP2 SLOAD DUP2 MSTORE SWAP1 PUSH1 0x1 ADD SWAP1 PUSH1 0x20 ADD DUP1 DUP4 GT PUSH2 0x4F3 JUMPI DUP3 SWAP1 SUB PUSH1 0x1F AND DUP3 ADD SWAP2 JUMPDEST POP POP POP POP POP DUP2 MSTORE PUSH1 0x20 ADD PUSH1 0x2 DUP3 ADD DUP1 SLOAD PUSH2 0x529 SWAP1 PUSH2 0x45C7 JUMP JUMPDEST DUP1 PUSH1 0x1F ADD PUSH1 0x20 DUP1 SWAP2 DIV MUL PUSH1 0x20 ADD PUSH1 0x40 MLOAD SWAP1 DUP2 ADD PUSH1 0x40 MSTORE DUP1 SWAP3 SWAP2 SWAP1 DUP2 DUP2 MSTORE PUSH1 0x20 ADD DUP3 DUP1 SLOAD PUSH2 0x555 SWAP1 PUSH2 0x45C7 JUMP JUMPDEST DUP1 ISZERO PUSH2 0x5A2 JUMPI DUP1 PUSH1 0x1F LT PUSH2 0x577 JUMPI PUSH2 0x100 DUP1 DUP4 SLOAD DIV MUL DUP4 MSTORE SWAP2 PUSH1 0x20 ADD SWAP2 PUSH2 0x5A2 JUMP JUMPDEST DUP3 ADD SWAP2 SWAP1 PUSH1 0x0 MSTORE PUSH1 0x20 PUSH1 0x0 KECCAK256 SWAP1 JUMPDEST DUP2 SLOAD DUP2 MSTORE SWAP1 PUSH1 0x1 ADD SWAP1 PUSH1 0x20 ADD DUP1 DUP4 GT PUSH2 0x585 JUMPI DUP3 SWAP1 SUB PUSH1 0x1F AND DUP3 ADD SWAP2 JUMPDEST POP POP POP POP POP DUP2 MSTORE PUSH1 0x20 ADD PUSH1 0x3 DUP3 ADD DUP1 SLOAD PUSH2 0x5BB SWAP1 PUSH2 0x45C7 JUMP JUMPDEST DUP1 PUSH1 0x1F ADD PUSH1 0x20 DUP1 SWAP2 DIV MUL PUSH1 0x20 ADD PUSH1 0x40 MLOAD SWAP1 DUP2 ADD PUSH1 0x40 MSTORE DUP1 SWAP3 SWAP2 SWAP1 DUP2 DUP2 MSTORE PUSH1 0x20 ADD DUP3 DUP1 SLOAD PUSH2 0x5E7 SWAP1 PUSH2 0x45C7 JUMP JUMPDEST DUP1 ISZERO PUSH2 0x634 JUMPI DUP1 PUSH1 0x1F LT PUSH2 0x609 JUMPI PUSH2 0x100 DUP1 DUP4 SLOAD DIV MUL DUP4 MSTORE SWAP2 PUSH1 0x20 ADD SWAP2 PUSH2 0x634 JUMP JUMPDEST DUP3 ADD SWAP2 SWAP1 PUSH1 0x0 MSTORE PUSH1 0x20 PUSH1 0x0 KECCAK256 SWAP1 JUMPDEST DUP2 SLOAD DUP2 MSTORE SWAP1 PUSH1 0x1 ADD SWAP1 PUSH1 0x20 ADD DUP1 DUP4 GT PUSH2 0x617 JUMPI DUP3 SWAP1 SUB PUSH1 0x1F AND DUP3 ADD SWAP2 JUMPDEST POP POP POP POP POP DUP2 MSTORE PUSH1 0x20 ADD PUSH1 0x4 DUP3 ADD PUSH1 0x0 SWAP1 SLOAD SWAP1 PUSH2 0x100 EXP SWAP1 DIV PUSH1 0xFF AND ISZERO ISZERO ISZERO ISZERO DUP2 MSTORE PUSH1 0x20 ADD PUSH1 0x5 DUP3 ADD PUSH1 0x40 MLOAD DUP1 PUSH1 0x80 ADD PUSH1 0x40 MSTORE SWAP1 DUP2 PUSH1 0x0 DUP3 ADD PUSH1 0x0 SWAP1 SLOAD SWAP1 PUSH2 0x100 EXP SWAP1 DIV PUSH1 0xFF AND ISZERO ISZERO ISZERO ISZERO DUP2 MSTORE PUSH1 0x20 ADD PUSH1 0x0 DUP3 ADD PUSH1 0x1 SWAP1 SLOAD SWAP1 PUSH2 0x100 EXP SWAP1 DIV PUSH1 0xFF AND ISZERO ISZERO ISZERO ISZERO DUP2 MSTORE PUSH1 0x20 ADD PUSH1 0x0 DUP3 ADD PUSH1 0x2 SWAP1 SLOAD SWAP1 PUSH2 0x100 EXP SWAP1 DIV PUSH1 0xFF AND ISZERO ISZERO ISZERO ISZERO DUP2 MSTORE PUSH1 0x20 ADD PUSH1 0x0 DUP3 ADD PUSH1 0x3 SWAP1 SLOAD SWAP1 PUSH2 0x100 EXP SWAP1 DIV PUSH1 0xFF AND ISZERO ISZERO ISZERO ISZERO DUP2 MSTORE POP POP DUP2 MSTORE POP POP SWAP1 POP PUSH1 0x0 PUSH20 0xFFFFFFFFFFFFFFFFFFFFFFFFFFFFFFFFFFFFFFFF AND DUP2 PUSH1 0x0 ADD MLOAD PUSH20 0xFFFFFFFFFFFFFFFFFFFFFFFFFFFFFFFFFFFFFFFF AND EQ ISZERO SWAP2 POP POP SWAP2 SWAP1 POP JUMP JUMPDEST DUP1 PUSH1 0x0 PUSH20 0xFFFFFFFFFFFFFFFFFFFFFFFFFFFFFFFFFFFFFFFF AND PUSH1 0x8 PUSH1 0x0 DUP4 PUSH20 0xFFFFFFFFFFFFFFFFFFFFFFFFFFFFFFFFFFFFFFFF AND PUSH20 0xFFFFFFFFFFFFFFFFFFFFFFFFFFFFFFFFFFFFFFFF AND DUP2 MSTORE PUSH1 0x20 ADD SWAP1 DUP2 MSTORE PUSH1 0x20 ADD PUSH1 0x0 KECCAK256 PUSH1 0x0 ADD PUSH1 0x0 SWAP1 SLOAD SWAP1 PUSH2 0x100 EXP SWAP1 DIV PUSH20 0xFFFFFFFFFFFFFFFFFFFFFFFFFFFFFFFFFFFFFFFF AND PUSH20 0xFFFFFFFFFFFFFFFFFFFFFFFFFFFFFFFFFFFFFFFF AND EQ ISZERO PUSH2 0x7EA JUMPI PUSH1 0x40 MLOAD PUSH32 0x8C379A000000000000000000000000000000000000000000000000000000000 DUP2 MSTORE PUSH1 0x4 ADD PUSH2 0x7E1 SWAP1 PUSH2 0x4656 JUMP JUMPDEST PUSH1 0x40 MLOAD DUP1 SWAP2 SUB SWAP1 REVERT JUMPDEST PUSH1 0x9 PUSH1 0x0 DUP4 PUSH20 0xFFFFFFFFFFFFFFFFFFFFFFFFFFFFFFFFFFFFFFFF AND PUSH20 0xFFFFFFFFFFFFFFFFFFFFFFFFFFFFFFFFFFFFFFFF AND DUP2 MSTORE PUSH1 0x20 ADD SWAP1 DUP2 MSTORE PUSH1 0x20 ADD PUSH1 0x0 KECCAK256 PUSH1 0x0 SWAP1 SLOAD SWAP1 PUSH2 0x100 EXP SWAP1 DIV PUSH1 0xFF AND ISZERO PUSH2 0x90D JUMPI PUSH1 0x0 PUSH1 0x8 PUSH1 0x0 DUP5 PUSH20 0xFFFFFFFFFFFFFFFFFFFFFFFFFFFFFFFFFFFFFFFF AND PUSH20 0xFFFFFFFFFFFFFFFFFFFFFFFFFFFFFFFFFFFFFFFF AND DUP2 MSTORE PUSH1 0x20 ADD SWAP1 DUP2 MSTORE PUSH1 0x20 ADD PUSH1 0x0 KECCAK256 SWAP1 POP PUSH1 0x0 DUP2 PUSH1 0x4 ADD PUSH1 0x0 PUSH2 0x100 EXP DUP2 SLOAD DUP2 PUSH1 0xFF MUL NOT AND SWAP1 DUP4 ISZERO ISZERO MUL OR SWAP1 SSTORE POP PUSH1 0x0 PUSH1 0x9 PUSH1 0x0 DUP6 PUSH20 0xFFFFFFFFFFFFFFFFFFFFFFFFFFFFFFFFFFFFFFFF AND PUSH20 0xFFFFFFFFFFFFFFFFFFFFFFFFFFFFFFFFFFFFFFFF AND DUP2 MSTORE PUSH1 0x20 ADD SWAP1 DUP2 MSTORE PUSH1 0x20 ADD PUSH1 0x0 KECCAK256 PUSH1 0x0 PUSH2 0x100 EXP DUP2 SLOAD DUP2 PUSH1 0xFF MUL NOT AND SWAP1 DUP4 ISZERO ISZERO MUL OR SWAP1 SSTORE POP PUSH1 0x0 DUP1 DUP2 SLOAD DUP1 SWAP3 SWAP2 SWAP1 PUSH2 0x906 SWAP1 PUSH2 0x46A5 JUMP JUMPDEST SWAP2 SWAP1 POP SSTORE POP POP JUMPDEST POP POP JUMP JUMPDEST PUSH2 0x919 PUSH2 0x39AB JUMP JUMPDEST PUSH1 0x0 TIMESTAMP SWAP1 POP PUSH1 0x0 PUSH1 0x40 MLOAD DUP1 PUSH1 0x60 ADD PUSH1 0x40 MSTORE DUP1 DUP6 DUP2 MSTORE PUSH1 0x20 ADD DUP4 DUP2 MSTORE PUSH1 0x20 ADD PUSH1 0x0 ISZERO ISZERO DUP2 MSTORE POP SWAP1 POP DUP1 SWAP3 POP POP POP SWAP2 SWAP1 POP JUMP JUMPDEST PUSH1 0x0 DUP1 SLOAD SWAP1 POP SWAP1 JUMP JUMPDEST PUSH1 0x0 PUSH2 0x960 DUP3 PUSH1 0x0 PUSH2 0x2546 JUMP JUMPDEST SWAP1 POP SWAP2 SWAP1 POP JUMP JUMPDEST PUSH1 0x0 DUP2 PUSH1 0x0 ADD MLOAD SWAP1 POP PUSH1 0x0 JUMPDEST DUP2 MLOAD DUP2 LT ISZERO PUSH2 0x9B3 JUMPI PUSH2 0x9A0 DUP5 DUP4 DUP4 DUP2 MLOAD DUP2 LT PUSH2 0x993 JUMPI PUSH2 0x992 PUSH2 0x46CF JUMP JUMPDEST JUMPDEST PUSH1 0x20 MUL PUSH1 0x20 ADD ADD MLOAD PUSH2 0x293D JUMP JUMPDEST DUP1 DUP1 PUSH2 0x9AB SWAP1 PUSH2 0x46FE JUMP JUMPDEST SWAP2 POP POP PUSH2 0x973 JUMP JUMPDEST POP PUSH2 0x9BD DUP4 PUSH2 0x2B34 JUMP JUMPDEST PUSH1 0x1 DUP3 PUSH1 0x40 ADD SWAP1 ISZERO ISZERO SWAP1 DUP2 ISZERO ISZERO DUP2 MSTORE POP POP DUP2 PUSH1 0x2 PUSH1 0x0 DUP3 ADD MLOAD DUP2 PUSH1 0x0 ADD SWAP1 DUP1 MLOAD SWAP1 PUSH1 0x20 ADD SWAP1 PUSH2 0x9ED SWAP3 SWAP2 SWAP1 PUSH2 0x39CE JUMP JUMPDEST POP PUSH1 0x20 DUP3 ADD MLOAD DUP2 PUSH1 0x1 ADD SSTORE PUSH1 0x40 DUP3 ADD MLOAD DUP2 PUSH1 0x2 ADD PUSH1 0x0 PUSH2 0x100 EXP DUP2 SLOAD DUP2 PUSH1 0xFF MUL NOT AND SWAP1 DUP4 ISZERO ISZERO MUL OR SWAP1 SSTORE POP SWAP1 POP POP POP POP POP JUMP JUMPDEST PUSH2 0xA28 PUSH2 0x3A58 JUMP JUMPDEST PUSH1 0x0 PUSH1 0x8 PUSH1 0x0 DUP5 PUSH20 0xFFFFFFFFFFFFFFFFFFFFFFFFFFFFFFFFFFFFFFFF AND PUSH20 0xFFFFFFFFFFFFFFFFFFFFFFFFFFFFFFFFFFFFFFFF AND DUP2 MSTORE PUSH1 0x20 ADD SWAP1 DUP2 MSTORE PUSH1 0x20 ADD PUSH1 0x0 KECCAK256 PUSH1 0x40 MLOAD DUP1 PUSH1 0xC0 ADD PUSH1 0x40 MSTORE SWAP1 DUP2 PUSH1 0x0 DUP3 ADD PUSH1 0x0 SWAP1 SLOAD SWAP1 PUSH2 0x100 EXP SWAP1 DIV PUSH20 0xFFFFFFFFFFFFFFFFFFFFFFFFFFFFFFFFFFFFFFFF AND PUSH20 0xFFFFFFFFFFFFFFFFFFFFFFFFFFFFFFFFFFFFFFFF AND PUSH20 0xFFFFFFFFFFFFFFFFFFFFFFFFFFFFFFFFFFFFFFFF AND DUP2 MSTORE PUSH1 0x20 ADD PUSH1 0x1 DUP3 ADD DUP1 SLOAD PUSH2 0xADA SWAP1 PUSH2 0x45C7 JUMP JUMPDEST DUP1 PUSH1 0x1F ADD PUSH1 0x20 DUP1 SWAP2 DIV MUL PUSH1 0x20 ADD PUSH1 0x40 MLOAD SWAP1 DUP2 ADD PUSH1 0x40 MSTORE DUP1 SWAP3 SWAP2 SWAP1 DUP2 DUP2 MSTORE PUSH1 0x20 ADD DUP3 DUP1 SLOAD PUSH2 0xB06 SWAP1 PUSH2 0x45C7 JUMP JUMPDEST DUP1 ISZERO PUSH2 0xB53 JUMPI DUP1 PUSH1 0x1F LT PUSH2 0xB28 JUMPI PUSH2 0x100 DUP1 DUP4 SLOAD DIV MUL DUP4 MSTORE SWAP2 PUSH1 0x20 ADD SWAP2 PUSH2 0xB53 JUMP JUMPDEST DUP3 ADD SWAP2 SWAP1 PUSH1 0x0 MSTORE PUSH1 0x20 PUSH1 0x0 KECCAK256 SWAP1 JUMPDEST DUP2 SLOAD DUP2 MSTORE SWAP1 PUSH1 0x1 ADD SWAP1 PUSH1 0x20 ADD DUP1 DUP4 GT PUSH2 0xB36 JUMPI DUP3 SWAP1 SUB PUSH1 0x1F AND DUP3 ADD SWAP2 JUMPDEST POP POP POP POP POP DUP2 MSTORE PUSH1 0x20 ADD PUSH1 0x2 DUP3 ADD DUP1 SLOAD PUSH2 0xB6C SWAP1 PUSH2 0x45C7 JUMP JUMPDEST DUP1 PUSH1 0x1F ADD PUSH1 0x20 DUP1 SWAP2 DIV MUL PUSH1 0x20 ADD PUSH1 0x40 MLOAD SWAP1 DUP2 ADD PUSH1 0x40 MSTORE DUP1 SWAP3 SWAP2 SWAP1 DUP2 DUP2 MSTORE PUSH1 0x20 ADD DUP3 DUP1 SLOAD PUSH2 0xB98 SWAP1 PUSH2 0x45C7 JUMP JUMPDEST DUP1 ISZERO PUSH2 0xBE5 JUMPI DUP1 PUSH1 0x1F LT PUSH2 0xBBA JUMPI PUSH2 0x100 DUP1 DUP4 SLOAD DIV MUL DUP4 MSTORE SWAP2 PUSH1 0x20 ADD SWAP2 PUSH2 0xBE5 JUMP JUMPDEST DUP3 ADD SWAP2 SWAP1 PUSH1 0x0 MSTORE PUSH1 0x20 PUSH1 0x0 KECCAK256 SWAP1 JUMPDEST DUP2 SLOAD DUP2 MSTORE SWAP1 PUSH1 0x1 ADD SWAP1 PUSH1 0x20 ADD DUP1 DUP4 GT PUSH2 0xBC8 JUMPI DUP3 SWAP1 SUB PUSH1 0x1F AND DUP3 ADD SWAP2 JUMPDEST POP POP POP POP POP DUP2 MSTORE PUSH1 0x20 ADD PUSH1 0x3 DUP3 ADD DUP1 SLOAD PUSH2 0xBFE SWAP1 PUSH2 0x45C7 JUMP JUMPDEST DUP1 PUSH1 0x1F ADD PUSH1 0x20 DUP1 SWAP2 DIV MUL PUSH1 0x20 ADD PUSH1 0x40 MLOAD SWAP1 DUP2 ADD PUSH1 0x40 MSTORE DUP1 SWAP3 SWAP2 SWAP1 DUP2 DUP2 MSTORE PUSH1 0x20 ADD DUP3 DUP1 SLOAD PUSH2 0xC2A SWAP1 PUSH2 0x45C7 JUMP JUMPDEST DUP1 ISZERO PUSH2 0xC77 JUMPI DUP1 PUSH1 0x1F LT PUSH2 0xC4C JUMPI PUSH2 0x100 DUP1 DUP4 SLOAD DIV MUL DUP4 MSTORE SWAP2 PUSH1 0x20 ADD SWAP2 PUSH2 0xC77 JUMP JUMPDEST DUP3 ADD SWAP2 SWAP1 PUSH1 0x0 MSTORE PUSH1 0x20 PUSH1 0x0 KECCAK256 SWAP1 JUMPDEST DUP2 SLOAD DUP2 MSTORE SWAP1 PUSH1 0x1 ADD SWAP1 PUSH1 0x20 ADD DUP1 DUP4 GT PUSH2 0xC5A JUMPI DUP3 SWAP1 SUB PUSH1 0x1F AND DUP3 ADD SWAP2 JUMPDEST POP POP POP POP POP DUP2 MSTORE PUSH1 0x20 ADD PUSH1 0x4 DUP3 ADD PUSH1 0x0 SWAP1 SLOAD SWAP1 PUSH2 0x100 EXP SWAP1 DIV PUSH1 0xFF AND ISZERO ISZERO ISZERO ISZERO DUP2 MSTORE PUSH1 0x20 ADD PUSH1 0x5 DUP3 ADD PUSH1 0x40 MLOAD DUP1 PUSH1 0x80 ADD PUSH1 0x40 MSTORE SWAP1 DUP2 PUSH1 0x0 DUP3 ADD PUSH1 0x0 SWAP1 SLOAD SWAP1 PUSH2 0x100 EXP SWAP1 DIV PUSH1 0xFF AND ISZERO ISZERO ISZERO ISZERO DUP2 MSTORE PUSH1 0x20 ADD PUSH1 0x0 DUP3 ADD PUSH1 0x1 SWAP1 SLOAD SWAP1 PUSH2 0x100 EXP SWAP1 DIV PUSH1 0xFF AND ISZERO ISZERO ISZERO ISZERO DUP2 MSTORE PUSH1 0x20 ADD PUSH1 0x0 DUP3 ADD PUSH1 0x2 SWAP1 SLOAD SWAP1 PUSH2 0x100 EXP SWAP1 DIV PUSH1 0xFF AND ISZERO ISZERO ISZERO ISZERO DUP2 MSTORE PUSH1 0x20 ADD PUSH1 0x0 DUP3 ADD PUSH1 0x3 SWAP1 SLOAD SWAP1 PUSH2 0x100 EXP SWAP1 DIV PUSH1 0xFF AND ISZERO ISZERO ISZERO ISZERO DUP2 MSTORE POP POP DUP2 MSTORE POP POP SWAP1 POP PUSH1 0x0 PUSH20 0xFFFFFFFFFFFFFFFFFFFFFFFFFFFFFFFFFFFFFFFF AND DUP2 PUSH1 0x0 ADD MLOAD PUSH20 0xFFFFFFFFFFFFFFFFFFFFFFFFFFFFFFFFFFFFFFFF AND EQ PUSH2 0xD5E JUMPI DUP1 SWAP2 POP POP PUSH2 0xD99 JUMP JUMPDEST PUSH1 0x40 MLOAD PUSH32 0x8C379A000000000000000000000000000000000000000000000000000000000 DUP2 MSTORE PUSH1 0x4 ADD PUSH2 0xD90 SWAP1 PUSH2 0x4793 JUMP JUMPDEST PUSH1 0x40 MLOAD DUP1 SWAP2 SUB SWAP1 REVERT JUMPDEST SWAP2 SWAP1 POP JUMP JUMPDEST DUP1 PUSH1 0x0 PUSH20 0xFFFFFFFFFFFFFFFFFFFFFFFFFFFFFFFFFFFFFFFF AND PUSH1 0x8 PUSH1 0x0 DUP4 PUSH20 0xFFFFFFFFFFFFFFFFFFFFFFFFFFFFFFFFFFFFFFFF AND PUSH20 0xFFFFFFFFFFFFFFFFFFFFFFFFFFFFFFFFFFFFFFFF AND DUP2 MSTORE PUSH1 0x20 ADD SWAP1 DUP2 MSTORE PUSH1 0x20 ADD PUSH1 0x0 KECCAK256 PUSH1 0x0 ADD PUSH1 0x0 SWAP1 SLOAD SWAP1 PUSH2 0x100 EXP SWAP1 DIV PUSH20 0xFFFFFFFFFFFFFFFFFFFFFFFFFFFFFFFFFFFFFFFF AND PUSH20 0xFFFFFFFFFFFFFFFFFFFFFFFFFFFFFFFFFFFFFFFF AND EQ ISZERO PUSH2 0xE71 JUMPI PUSH1 0x40 MLOAD PUSH32 0x8C379A000000000000000000000000000000000000000000000000000000000 DUP2 MSTORE PUSH1 0x4 ADD PUSH2 0xE68 SWAP1 PUSH2 0x4656 JUMP JUMPDEST PUSH1 0x40 MLOAD DUP1 SWAP2 SUB SWAP1 REVERT JUMPDEST PUSH1 0x9 PUSH1 0x0 DUP4 PUSH20 0xFFFFFFFFFFFFFFFFFFFFFFFFFFFFFFFFFFFFFFFF AND PUSH20 0xFFFFFFFFFFFFFFFFFFFFFFFFFFFFFFFFFFFFFFFF AND DUP2 MSTORE PUSH1 0x20 ADD SWAP1 DUP2 MSTORE PUSH1 0x20 ADD PUSH1 0x0 KECCAK256 PUSH1 0x0 SWAP1 SLOAD SWAP1 PUSH2 0x100 EXP SWAP1 DIV PUSH1 0xFF AND PUSH2 0x1036 JUMPI PUSH1 0x0 PUSH1 0x8 PUSH1 0x0 DUP5 PUSH20 0xFFFFFFFFFFFFFFFFFFFFFFFFFFFFFFFFFFFFFFFF AND PUSH20 0xFFFFFFFFFFFFFFFFFFFFFFFFFFFFFFFFFFFFFFFF AND DUP2 MSTORE PUSH1 0x20 ADD SWAP1 DUP2 MSTORE PUSH1 0x20 ADD PUSH1 0x0 KECCAK256 SWAP1 POP PUSH1 0x1 DUP2 PUSH1 0x4 ADD PUSH1 0x0 PUSH2 0x100 EXP DUP2 SLOAD DUP2 PUSH1 0xFF MUL NOT AND SWAP1 DUP4 ISZERO ISZERO MUL OR SWAP1 SSTORE POP PUSH1 0x0 DUP2 PUSH1 0x5 ADD PUSH1 0x40 MLOAD DUP1 PUSH1 0x80 ADD PUSH1 0x40 MSTORE SWAP1 DUP2 PUSH1 0x0 DUP3 ADD PUSH1 0x0 SWAP1 SLOAD SWAP1 PUSH2 0x100 EXP SWAP1 DIV PUSH1 0xFF AND ISZERO ISZERO ISZERO ISZERO DUP2 MSTORE PUSH1 0x20 ADD PUSH1 0x0 DUP3 ADD PUSH1 0x1 SWAP1 SLOAD SWAP1 PUSH2 0x100 EXP SWAP1 DIV PUSH1 0xFF AND ISZERO ISZERO ISZERO ISZERO DUP2 MSTORE PUSH1 0x20 ADD PUSH1 0x0 DUP3 ADD PUSH1 0x2 SWAP1 SLOAD SWAP1 PUSH2 0x100 EXP SWAP1 DIV PUSH1 0xFF AND ISZERO ISZERO ISZERO ISZERO DUP2 MSTORE PUSH1 0x20 ADD PUSH1 0x0 DUP3 ADD PUSH1 0x3 SWAP1 SLOAD SWAP1 PUSH2 0x100 EXP SWAP1 DIV PUSH1 0xFF AND ISZERO ISZERO ISZERO ISZERO DUP2 MSTORE POP POP SWAP1 POP DUP1 PUSH1 0x0 ADD MLOAD DUP1 PUSH2 0xFB2 JUMPI POP DUP1 PUSH1 0x20 ADD MLOAD JUMPDEST DUP1 PUSH2 0xFBE JUMPI POP DUP1 PUSH1 0x40 ADD MLOAD JUMPDEST ISZERO PUSH2 0x1033 JUMPI PUSH1 0x1 PUSH1 0x9 PUSH1 0x0 DUP7 PUSH20 0xFFFFFFFFFFFFFFFFFFFFFFFFFFFFFFFFFFFFFFFF AND PUSH20 0xFFFFFFFFFFFFFFFFFFFFFFFFFFFFFFFFFFFFFFFF AND DUP2 MSTORE PUSH1 0x20 ADD SWAP1 DUP2 MSTORE PUSH1 0x20 ADD PUSH1 0x0 KECCAK256 PUSH1 0x0 PUSH2 0x100 EXP DUP2 SLOAD DUP2 PUSH1 0xFF MUL NOT AND SWAP1 DUP4 ISZERO ISZERO MUL OR SWAP1 SSTORE POP PUSH1 0x0 DUP1 DUP2 SLOAD DUP1 SWAP3 SWAP2 SWAP1 PUSH2 0x102D SWAP1 PUSH2 0x46FE JUMP JUMPDEST SWAP2 SWAP1 POP SSTORE POP JUMPDEST POP POP JUMPDEST POP POP JUMP JUMPDEST PUSH1 0x0 DUP2 PUSH1 0x0 ADD MLOAD SWAP1 POP PUSH1 0x0 JUMPDEST DUP2 MLOAD DUP2 LT ISZERO PUSH2 0x1086 JUMPI PUSH2 0x1073 DUP5 DUP4 DUP4 DUP2 MLOAD DUP2 LT PUSH2 0x1066 JUMPI PUSH2 0x1065 PUSH2 0x46CF JUMP JUMPDEST JUMPDEST PUSH1 0x20 MUL PUSH1 0x20 ADD ADD MLOAD PUSH2 0x2C0A JUMP JUMPDEST DUP1 DUP1 PUSH2 0x107E SWAP1 PUSH2 0x46FE JUMP JUMPDEST SWAP2 POP POP PUSH2 0x1046 JUMP JUMPDEST POP PUSH2 0x1090 DUP4 PUSH2 0x2E01 JUMP JUMPDEST PUSH1 0x1 DUP3 PUSH1 0x40 ADD SWAP1 ISZERO ISZERO SWAP1 DUP2 ISZERO ISZERO DUP2 MSTORE POP POP DUP2 PUSH1 0x5 PUSH1 0x0 DUP3 ADD MLOAD DUP2 PUSH1 0x0 ADD SWAP1 DUP1 MLOAD SWAP1 PUSH1 0x20 ADD SWAP1 PUSH2 0x10C0 SWAP3 SWAP2 SWAP1 PUSH2 0x39CE JUMP JUMPDEST POP PUSH1 0x20 DUP3 ADD MLOAD DUP2 PUSH1 0x1 ADD SSTORE PUSH1 0x40 DUP3 ADD MLOAD DUP2 PUSH1 0x2 ADD PUSH1 0x0 PUSH2 0x100 EXP DUP2 SLOAD DUP2 PUSH1 0xFF MUL NOT AND SWAP1 DUP4 ISZERO ISZERO MUL OR SWAP1 SSTORE POP SWAP1 POP POP POP POP POP JUMP JUMPDEST PUSH1 0x1 PUSH1 0x0 SWAP1 SLOAD SWAP1 PUSH2 0x100 EXP SWAP1 DIV PUSH20 0xFFFFFFFFFFFFFFFFFFFFFFFFFFFFFFFFFFFFFFFF AND DUP2 JUMP JUMPDEST PUSH1 0x0 PUSH1 0x40 MLOAD DUP1 PUSH2 0x140 ADD PUSH1 0x40 MSTORE DUP1 PUSH20 0x5B38DA6A701C568545DCFCB03FCB875F56BEDDC4 PUSH20 0xFFFFFFFFFFFFFFFFFFFFFFFFFFFFFFFFFFFFFFFF AND PUSH20 0xFFFFFFFFFFFFFFFFFFFFFFFFFFFFFFFFFFFFFFFF AND DUP2 MSTORE PUSH1 0x20 ADD PUSH20 0xAB8483F64D9C6D1ECF9B849AE677DD3315835CB2 PUSH20 0xFFFFFFFFFFFFFFFFFFFFFFFFFFFFFFFFFFFFFFFF AND PUSH20 0xFFFFFFFFFFFFFFFFFFFFFFFFFFFFFFFFFFFFFFFF AND DUP2 MSTORE PUSH1 0x20 ADD PUSH20 0x4B20993BC481177EC7E8F571CECAE8A9E22C02DB PUSH20 0xFFFFFFFFFFFFFFFFFFFFFFFFFFFFFFFFFFFFFFFF AND PUSH20 0xFFFFFFFFFFFFFFFFFFFFFFFFFFFFFFFFFFFFFFFF AND DUP2 MSTORE PUSH1 0x20 ADD PUSH20 0x78731D3CA6B7E34AC0F824C42A7CC18A495CABAB PUSH20 0xFFFFFFFFFFFFFFFFFFFFFFFFFFFFFFFFFFFFFFFF AND PUSH20 0xFFFFFFFFFFFFFFFFFFFFFFFFFFFFFFFFFFFFFFFF AND DUP2 MSTORE PUSH1 0x20 ADD PUSH20 0x617F2E2FD72FD9D5503197092AC168C91465E7F2 PUSH20 0xFFFFFFFFFFFFFFFFFFFFFFFFFFFFFFFFFFFFFFFF AND PUSH20 0xFFFFFFFFFFFFFFFFFFFFFFFFFFFFFFFFFFFFFFFF AND DUP2 MSTORE PUSH1 0x20 ADD PUSH20 0x17F6AD8EF982297579C203069C1DBFFE4348C372 PUSH20 0xFFFFFFFFFFFFFFFFFFFFFFFFFFFFFFFFFFFFFFFF AND PUSH20 0xFFFFFFFFFFFFFFFFFFFFFFFFFFFFFFFFFFFFFFFF AND DUP2 MSTORE PUSH1 0x20 ADD PUSH20 0x5C6B0F7BF3E7CE046039BD8FABDFD3F9F5021678 PUSH20 0xFFFFFFFFFFFFFFFFFFFFFFFFFFFFFFFFFFFFFFFF AND PUSH20 0xFFFFFFFFFFFFFFFFFFFFFFFFFFFFFFFFFFFFFFFF AND DUP2 MSTORE PUSH1 0x20 ADD PUSH20 0x3C6FCED478CBBC9A4FAB34EF9F40767739D1FF7 PUSH20 0xFFFFFFFFFFFFFFFFFFFFFFFFFFFFFFFFFFFFFFFF AND PUSH20 0xFFFFFFFFFFFFFFFFFFFFFFFFFFFFFFFFFFFFFFFF AND DUP2 MSTORE PUSH1 0x20 ADD PUSH20 0x1AE0EA34A72D944A8C7603FFB3EC30A6669E454C PUSH20 0xFFFFFFFFFFFFFFFFFFFFFFFFFFFFFFFFFFFFFFFF AND PUSH20 0xFFFFFFFFFFFFFFFFFFFFFFFFFFFFFFFFFFFFFFFF AND DUP2 MSTORE PUSH1 0x20 ADD PUSH20 0xCA35B7D915458EF540ADE6068DFE2F44E8FA733C PUSH20 0xFFFFFFFFFFFFFFFFFFFFFFFFFFFFFFFFFFFFFFFF AND PUSH20 0xFFFFFFFFFFFFFFFFFFFFFFFFFFFFFFFFFFFFFFFF AND DUP2 MSTORE POP SWAP1 POP PUSH1 0x0 PUSH1 0x40 MLOAD DUP1 PUSH2 0x140 ADD PUSH1 0x40 MSTORE DUP1 PUSH1 0x40 MLOAD DUP1 PUSH1 0x40 ADD PUSH1 0x40 MSTORE DUP1 PUSH1 0x4 DUP2 MSTORE PUSH1 0x20 ADD PUSH32 0x5269636B00000000000000000000000000000000000000000000000000000000 DUP2 MSTORE POP DUP2 MSTORE PUSH1 0x20 ADD PUSH1 0x40 MLOAD DUP1 PUSH1 0x40 ADD PUSH1 0x40 MSTORE DUP1 PUSH1 0x7 DUP2 MSTORE PUSH1 0x20 ADD PUSH32 0x56616E6573736100000000000000000000000000000000000000000000000000 DUP2 MSTORE POP DUP2 MSTORE PUSH1 0x20 ADD PUSH1 0x40 MLOAD DUP1 PUSH1 0x40 ADD PUSH1 0x40 MSTORE DUP1 PUSH1 0x4 DUP2 MSTORE PUSH1 0x20 ADD PUSH32 0x416C657800000000000000000000000000000000000000000000000000000000 DUP2 MSTORE POP DUP2 MSTORE PUSH1 0x20 ADD PUSH1 0x40 MLOAD DUP1 PUSH1 0x40 ADD PUSH1 0x40 MSTORE DUP1 PUSH1 0x4 DUP2 MSTORE PUSH1 0x20 ADD PUSH32 0x5669636900000000000000000000000000000000000000000000000000000000 DUP2 MSTORE POP DUP2 MSTORE PUSH1 0x20 ADD PUSH1 0x40 MLOAD DUP1 PUSH1 0x40 ADD PUSH1 0x40 MSTORE DUP1 PUSH1 0x2 DUP2 MSTORE PUSH1 0x20 ADD PUSH32 0x4C75000000000000000000000000000000000000000000000000000000000000 DUP2 MSTORE POP DUP2 MSTORE PUSH1 0x20 ADD PUSH1 0x40 MLOAD DUP1 PUSH1 0x40 ADD PUSH1 0x40 MSTORE DUP1 PUSH1 0x4 DUP2 MSTORE PUSH1 0x20 ADD PUSH32 0x4A6F686E00000000000000000000000000000000000000000000000000000000 DUP2 MSTORE POP DUP2 MSTORE PUSH1 0x20 ADD PUSH1 0x40 MLOAD DUP1 PUSH1 0x40 ADD PUSH1 0x40 MSTORE DUP1 PUSH1 0x5 DUP2 MSTORE PUSH1 0x20 ADD PUSH32 0x5361726168000000000000000000000000000000000000000000000000000000 DUP2 MSTORE POP DUP2 MSTORE PUSH1 0x20 ADD PUSH1 0x40 MLOAD DUP1 PUSH1 0x40 ADD PUSH1 0x40 MSTORE DUP1 PUSH1 0x8 DUP2 MSTORE PUSH1 0x20 ADD PUSH32 0x53616D616E746861000000000000000000000000000000000000000000000000 DUP2 MSTORE POP DUP2 MSTORE PUSH1 0x20 ADD PUSH1 0x40 MLOAD DUP1 PUSH1 0x40 ADD PUSH1 0x40 MSTORE DUP1 PUSH1 0x5 DUP2 MSTORE PUSH1 0x20 ADD PUSH32 0x5065746572000000000000000000000000000000000000000000000000000000 DUP2 MSTORE POP DUP2 MSTORE PUSH1 0x20 ADD PUSH1 0x40 MLOAD DUP1 PUSH1 0x40 ADD PUSH1 0x40 MSTORE DUP1 PUSH1 0x5 DUP2 MSTORE PUSH1 0x20 ADD PUSH32 0x4461766964000000000000000000000000000000000000000000000000000000 DUP2 MSTORE POP DUP2 MSTORE POP SWAP1 POP PUSH1 0x0 PUSH1 0x40 MLOAD DUP1 PUSH2 0x140 ADD PUSH1 0x40 MSTORE DUP1 PUSH1 0x40 MLOAD DUP1 PUSH1 0x40 ADD PUSH1 0x40 MSTORE DUP1 PUSH1 0x5 DUP2 MSTORE PUSH1 0x20 ADD PUSH32 0x506174656C000000000000000000000000000000000000000000000000000000 DUP2 MSTORE POP DUP2 MSTORE PUSH1 0x20 ADD PUSH1 0x40 MLOAD DUP1 PUSH1 0x40 ADD PUSH1 0x40 MSTORE DUP1 PUSH1 0x3 DUP2 MSTORE PUSH1 0x20 ADD PUSH32 0x4B696D0000000000000000000000000000000000000000000000000000000000 DUP2 MSTORE POP DUP2 MSTORE PUSH1 0x20 ADD PUSH1 0x40 MLOAD DUP1 PUSH1 0x40 ADD PUSH1 0x40 MSTORE DUP1 PUSH1 0x5 DUP2 MSTORE PUSH1 0x20 ADD PUSH32 0x42726F776E000000000000000000000000000000000000000000000000000000 DUP2 MSTORE POP DUP2 MSTORE PUSH1 0x20 ADD PUSH1 0x40 MLOAD DUP1 PUSH1 0x40 ADD PUSH1 0x40 MSTORE DUP1 PUSH1 0x5 DUP2 MSTORE PUSH1 0x20 ADD PUSH32 0x4461766973000000000000000000000000000000000000000000000000000000 DUP2 MSTORE POP DUP2 MSTORE PUSH1 0x20 ADD PUSH1 0x40 MLOAD DUP1 PUSH1 0x40 ADD PUSH1 0x40 MSTORE DUP1 PUSH1 0x8 DUP2 MSTORE PUSH1 0x20 ADD PUSH32 0x4D617274696E657A000000000000000000000000000000000000000000000000 DUP2 MSTORE POP DUP2 MSTORE PUSH1 0x20 ADD PUSH1 0x40 MLOAD DUP1 PUSH1 0x40 ADD PUSH1 0x40 MSTORE DUP1 PUSH1 0x6 DUP2 MSTORE PUSH1 0x20 ADD PUSH32 0x57696C736F6E0000000000000000000000000000000000000000000000000000 DUP2 MSTORE POP DUP2 MSTORE PUSH1 0x20 ADD PUSH1 0x40 MLOAD DUP1 PUSH1 0x40 ADD PUSH1 0x40 MSTORE DUP1 PUSH1 0x6 DUP2 MSTORE PUSH1 0x20 ADD PUSH32 0x4761726369610000000000000000000000000000000000000000000000000000 DUP2 MSTORE POP DUP2 MSTORE PUSH1 0x20 ADD PUSH1 0x40 MLOAD DUP1 PUSH1 0x40 ADD PUSH1 0x40 MSTORE DUP1 PUSH1 0x5 DUP2 MSTORE PUSH1 0x20 ADD PUSH32 0x4A6F6E6573000000000000000000000000000000000000000000000000000000 DUP2 MSTORE POP DUP2 MSTORE PUSH1 0x20 ADD PUSH1 0x40 MLOAD DUP1 PUSH1 0x40 ADD PUSH1 0x40 MSTORE DUP1 PUSH1 0x7 DUP2 MSTORE PUSH1 0x20 ADD PUSH32 0x4A61636B736F6E00000000000000000000000000000000000000000000000000 DUP2 MSTORE POP DUP2 MSTORE PUSH1 0x20 ADD PUSH1 0x40 MLOAD DUP1 PUSH1 0x40 ADD PUSH1 0x40 MSTORE DUP1 PUSH1 0x5 DUP2 MSTORE PUSH1 0x20 ADD PUSH32 0x536D697468000000000000000000000000000000000000000000000000000000 DUP2 MSTORE POP DUP2 MSTORE POP SWAP1 POP PUSH1 0x0 PUSH1 0x40 MLOAD DUP1 PUSH2 0x140 ADD PUSH1 0x40 MSTORE DUP1 PUSH1 0x40 MLOAD DUP1 PUSH1 0x40 ADD PUSH1 0x40 MSTORE DUP1 PUSH1 0x12 DUP2 MSTORE PUSH1 0x20 ADD PUSH32 0x5269636B2E506174656C40706F722E636F6D0000000000000000000000000000 DUP2 MSTORE POP DUP2 MSTORE PUSH1 0x20 ADD PUSH1 0x40 MLOAD DUP1 PUSH1 0x40 ADD PUSH1 0x40 MSTORE DUP1 PUSH1 0x13 DUP2 MSTORE PUSH1 0x20 ADD PUSH32 0x56616E657373612E4B696D40706F722E636F6D00000000000000000000000000 DUP2 MSTORE POP DUP2 MSTORE PUSH1 0x20 ADD PUSH1 0x40 MLOAD DUP1 PUSH1 0x40 ADD PUSH1 0x40 MSTORE DUP1 PUSH1 0x12 DUP2 MSTORE PUSH1 0x20 ADD PUSH32 0x416C65782E42726F776E40706F722E636F6D0000000000000000000000000000 DUP2 MSTORE POP DUP2 MSTORE PUSH1 0x20 ADD PUSH1 0x40 MLOAD DUP1 PUSH1 0x40 ADD PUSH1 0x40 MSTORE DUP1 PUSH1 0x12 DUP2 MSTORE PUSH1 0x20 ADD PUSH32 0x566963692E446176697340706F722E636F6D0000000000000000000000000000 DUP2 MSTORE POP DUP2 MSTORE PUSH1 0x20 ADD PUSH1 0x40 MLOAD DUP1 PUSH1 0x40 ADD PUSH1 0x40 MSTORE DUP1 PUSH1 0x13 DUP2 MSTORE PUSH1 0x20 ADD PUSH32 0x4C752E4D617274696E657A40706F722E636F6D00000000000000000000000000 DUP2 MSTORE POP DUP2 MSTORE PUSH1 0x20 ADD PUSH1 0x40 MLOAD DUP1 PUSH1 0x40 ADD PUSH1 0x40 MSTORE DUP1 PUSH1 0x13 DUP2 MSTORE PUSH1 0x20 ADD PUSH32 0x4A6F686E2E57696C736F6E40706F722E636F6D00000000000000000000000000 DUP2 MSTORE POP DUP2 MSTORE PUSH1 0x20 ADD PUSH1 0x40 MLOAD DUP1 PUSH1 0x40 ADD PUSH1 0x40 MSTORE DUP1 PUSH1 0x14 DUP2 MSTORE PUSH1 0x20 ADD PUSH32 0x53617261682E47617263696140706F722E636F6D000000000000000000000000 DUP2 MSTORE POP DUP2 MSTORE PUSH1 0x20 ADD PUSH1 0x40 MLOAD DUP1 PUSH1 0x40 ADD PUSH1 0x40 MSTORE DUP1 PUSH1 0x16 DUP2 MSTORE PUSH1 0x20 ADD PUSH32 0x53616D616E7468612E4A6F6E657340706F722E636F6D00000000000000000000 DUP2 MSTORE POP DUP2 MSTORE PUSH1 0x20 ADD PUSH1 0x40 MLOAD DUP1 PUSH1 0x40 ADD PUSH1 0x40 MSTORE DUP1 PUSH1 0x15 DUP2 MSTORE PUSH1 0x20 ADD PUSH32 0x50657465722E4A61636B736F6E40706F722E636F6D0000000000000000000000 DUP2 MSTORE POP DUP2 MSTORE PUSH1 0x20 ADD PUSH1 0x40 MLOAD DUP1 PUSH1 0x40 ADD PUSH1 0x40 MSTORE DUP1 PUSH1 0x13 DUP2 MSTORE PUSH1 0x20 ADD PUSH32 0x44617669642E536D69746840706F722E636F6D00000000000000000000000000 DUP2 MSTORE POP DUP2 MSTORE POP SWAP1 POP PUSH1 0x0 JUMPDEST PUSH1 0xA DUP2 LT ISZERO PUSH2 0x1C24 JUMPI PUSH1 0x0 DUP6 DUP3 PUSH1 0xA DUP2 LT PUSH2 0x1B18 JUMPI PUSH2 0x1B17 PUSH2 0x46CF JUMP JUMPDEST JUMPDEST PUSH1 0x20 MUL ADD MLOAD SWAP1 POP ADDRESS PUSH20 0xFFFFFFFFFFFFFFFFFFFFFFFFFFFFFFFFFFFFFFFF AND PUSH4 0xE666E49 DUP3 PUSH1 0x40 MLOAD DUP3 PUSH4 0xFFFFFFFF AND PUSH1 0xE0 SHL DUP2 MSTORE PUSH1 0x4 ADD PUSH2 0x1B58 SWAP2 SWAP1 PUSH2 0x439B JUMP JUMPDEST PUSH1 0x20 PUSH1 0x40 MLOAD DUP1 DUP4 SUB DUP2 DUP7 GAS STATICCALL ISZERO DUP1 ISZERO PUSH2 0x1B75 JUMPI RETURNDATASIZE PUSH1 0x0 DUP1 RETURNDATACOPY RETURNDATASIZE PUSH1 0x0 REVERT JUMPDEST POP POP POP POP PUSH1 0x40 MLOAD RETURNDATASIZE PUSH1 0x1F NOT PUSH1 0x1F DUP3 ADD AND DUP3 ADD DUP1 PUSH1 0x40 MSTORE POP DUP2 ADD SWAP1 PUSH2 0x1B99 SWAP2 SWAP1 PUSH2 0x47C8 JUMP JUMPDEST PUSH2 0x1C10 JUMPI PUSH2 0x1BEE DUP2 DUP7 DUP5 PUSH1 0xA DUP2 LT PUSH2 0x1BB4 JUMPI PUSH2 0x1BB3 PUSH2 0x46CF JUMP JUMPDEST JUMPDEST PUSH1 0x20 MUL ADD MLOAD DUP7 DUP6 PUSH1 0xA DUP2 LT PUSH2 0x1BCC JUMPI PUSH2 0x1BCB PUSH2 0x46CF JUMP JUMPDEST JUMPDEST PUSH1 0x20 MUL ADD MLOAD DUP7 DUP7 PUSH1 0xA DUP2 LT PUSH2 0x1BE4 JUMPI PUSH2 0x1BE3 PUSH2 0x46CF JUMP JUMPDEST JUMPDEST PUSH1 0x20 MUL ADD MLOAD PUSH2 0x223C JUMP JUMPDEST PUSH2 0x1BFA CALLER DUP3 PUSH1 0x2 PUSH2 0x2ED7 JUMP JUMPDEST PUSH2 0x1C06 CALLER DUP3 PUSH1 0x3 PUSH2 0x324A JUMP JUMPDEST PUSH2 0x1C0F DUP2 PUSH2 0xD9E JUMP JUMPDEST JUMPDEST POP DUP1 DUP1 PUSH2 0x1C1C SWAP1 PUSH2 0x46FE JUMP JUMPDEST SWAP2 POP POP PUSH2 0x1AFA JUMP JUMPDEST POP PUSH1 0x0 PUSH1 0x2 PUSH8 0xFFFFFFFFFFFFFFFF DUP2 GT ISZERO PUSH2 0x1C42 JUMPI PUSH2 0x1C41 PUSH2 0x3CCD JUMP JUMPDEST JUMPDEST PUSH1 0x40 MLOAD SWAP1 DUP1 DUP3 MSTORE DUP1 PUSH1 0x20 MUL PUSH1 0x20 ADD DUP3 ADD PUSH1 0x40 MSTORE DUP1 ISZERO PUSH2 0x1C70 JUMPI DUP2 PUSH1 0x20 ADD PUSH1 0x20 DUP3 MUL DUP1 CALLDATASIZE DUP4 CALLDATACOPY DUP1 DUP3 ADD SWAP2 POP POP SWAP1 POP JUMPDEST POP SWAP1 POP PUSH20 0x5B38DA6A701C568545DCFCB03FCB875F56BEDDC4 DUP2 PUSH1 0x0 DUP2 MLOAD DUP2 LT PUSH2 0x1C9C JUMPI PUSH2 0x1C9B PUSH2 0x46CF JUMP JUMPDEST JUMPDEST PUSH1 0x20 MUL PUSH1 0x20 ADD ADD SWAP1 PUSH20 0xFFFFFFFFFFFFFFFFFFFFFFFFFFFFFFFFFFFFFFFF AND SWAP1 DUP2 PUSH20 0xFFFFFFFFFFFFFFFFFFFFFFFFFFFFFFFFFFFFFFFF AND DUP2 MSTORE POP POP PUSH20 0xAB8483F64D9C6D1ECF9B849AE677DD3315835CB2 DUP2 PUSH1 0x1 DUP2 MLOAD DUP2 LT PUSH2 0x1CFF JUMPI PUSH2 0x1CFE PUSH2 0x46CF JUMP JUMPDEST JUMPDEST PUSH1 0x20 MUL PUSH1 0x20 ADD ADD SWAP1 PUSH20 0xFFFFFFFFFFFFFFFFFFFFFFFFFFFFFFFFFFFFFFFF AND SWAP1 DUP2 PUSH20 0xFFFFFFFFFFFFFFFFFFFFFFFFFFFFFFFFFFFFFFFF AND DUP2 MSTORE POP POP PUSH1 0x0 PUSH2 0x1D44 DUP3 PUSH2 0x911 JUMP JUMPDEST SWAP1 POP PUSH2 0x1D50 CALLER DUP3 PUSH2 0x967 JUMP JUMPDEST PUSH1 0x0 PUSH1 0x2 PUSH8 0xFFFFFFFFFFFFFFFF DUP2 GT ISZERO PUSH2 0x1D6D JUMPI PUSH2 0x1D6C PUSH2 0x3CCD JUMP JUMPDEST JUMPDEST PUSH1 0x40 MLOAD SWAP1 DUP1 DUP3 MSTORE DUP1 PUSH1 0x20 MUL PUSH1 0x20 ADD DUP3 ADD PUSH1 0x40 MSTORE DUP1 ISZERO PUSH2 0x1D9B JUMPI DUP2 PUSH1 0x20 ADD PUSH1 0x20 DUP3 MUL DUP1 CALLDATASIZE DUP4 CALLDATACOPY DUP1 DUP3 ADD SWAP2 POP POP SWAP1 POP JUMPDEST POP SWAP1 POP PUSH20 0x4B20993BC481177EC7E8F571CECAE8A9E22C02DB DUP2 PUSH1 0x0 DUP2 MLOAD DUP2 LT PUSH2 0x1DC7 JUMPI PUSH2 0x1DC6 PUSH2 0x46CF JUMP JUMPDEST JUMPDEST PUSH1 0x20 MUL PUSH1 0x20 ADD ADD SWAP1 PUSH20 0xFFFFFFFFFFFFFFFFFFFFFFFFFFFFFFFFFFFFFFFF AND SWAP1 DUP2 PUSH20 0xFFFFFFFFFFFFFFFFFFFFFFFFFFFFFFFFFFFFFFFF AND DUP2 MSTORE POP POP PUSH20 0x78731D3CA6B7E34AC0F824C42A7CC18A495CABAB DUP2 PUSH1 0x1 DUP2 MLOAD DUP2 LT PUSH2 0x1E2A JUMPI PUSH2 0x1E29 PUSH2 0x46CF JUMP JUMPDEST JUMPDEST PUSH1 0x20 MUL PUSH1 0x20 ADD ADD SWAP1 PUSH20 0xFFFFFFFFFFFFFFFFFFFFFFFFFFFFFFFFFFFFFFFF AND SWAP1 DUP2 PUSH20 0xFFFFFFFFFFFFFFFFFFFFFFFFFFFFFFFFFFFFFFFF AND DUP2 MSTORE POP POP PUSH1 0x0 PUSH2 0x1E6F DUP3 PUSH2 0x2203 JUMP JUMPDEST SWAP1 POP PUSH2 0x1E7B CALLER DUP3 PUSH2 0x103A JUMP JUMPDEST POP POP POP POP POP POP POP POP JUMP JUMPDEST PUSH2 0x1E8D PUSH2 0x3AAC JUMP JUMPDEST PUSH1 0x5 PUSH1 0x40 MLOAD DUP1 PUSH1 0x60 ADD PUSH1 0x40 MSTORE SWAP1 DUP2 PUSH1 0x0 DUP3 ADD DUP1 SLOAD DUP1 PUSH1 0x20 MUL PUSH1 0x20 ADD PUSH1 0x40 MLOAD SWAP1 DUP2 ADD PUSH1 0x40 MSTORE DUP1 SWAP3 SWAP2 SWAP1 DUP2 DUP2 MSTORE PUSH1 0x20 ADD DUP3 DUP1 SLOAD DUP1 ISZERO PUSH2 0x1F1F JUMPI PUSH1 0x20 MUL DUP3 ADD SWAP2 SWAP1 PUSH1 0x0 MSTORE PUSH1 0x20 PUSH1 0x0 KECCAK256 SWAP1 JUMPDEST DUP2 PUSH1 0x0 SWAP1 SLOAD SWAP1 PUSH2 0x100 EXP SWAP1 DIV PUSH20 0xFFFFFFFFFFFFFFFFFFFFFFFFFFFFFFFFFFFFFFFF AND PUSH20 0xFFFFFFFFFFFFFFFFFFFFFFFFFFFFFFFFFFFFFFFF AND DUP2 MSTORE PUSH1 0x20 ADD SWAP1 PUSH1 0x1 ADD SWAP1 DUP1 DUP4 GT PUSH2 0x1ED5 JUMPI JUMPDEST POP POP POP POP POP DUP2 MSTORE PUSH1 0x20 ADD PUSH1 0x1 DUP3 ADD SLOAD DUP2 MSTORE PUSH1 0x20 ADD PUSH1 0x2 DUP3 ADD PUSH1 0x0 SWAP1 SLOAD SWAP1 PUSH2 0x100 EXP SWAP1 DIV PUSH1 0xFF AND ISZERO ISZERO ISZERO ISZERO DUP2 MSTORE POP POP SWAP1 POP SWAP1 JUMP JUMPDEST PUSH2 0x1F5A PUSH2 0x39AB JUMP JUMPDEST PUSH1 0x2 PUSH1 0x40 MLOAD DUP1 PUSH1 0x60 ADD PUSH1 0x40 MSTORE SWAP1 DUP2 PUSH1 0x0 DUP3 ADD DUP1 SLOAD DUP1 PUSH1 0x20 MUL PUSH1 0x20 ADD PUSH1 0x40 MLOAD SWAP1 DUP2 ADD PUSH1 0x40 MSTORE DUP1 SWAP3 SWAP2 SWAP1 DUP2 DUP2 MSTORE PUSH1 0x20 ADD DUP3 DUP1 SLOAD DUP1 ISZERO PUSH2 0x1FEC JUMPI PUSH1 0x20 MUL DUP3 ADD SWAP2 SWAP1 PUSH1 0x0 MSTORE PUSH1 0x20 PUSH1 0x0 KECCAK256 SWAP1 JUMPDEST DUP2 PUSH1 0x0 SWAP1 SLOAD SWAP1 PUSH2 0x100 EXP SWAP1 DIV PUSH20 0xFFFFFFFFFFFFFFFFFFFFFFFFFFFFFFFFFFFFFFFF AND PUSH20 0xFFFFFFFFFFFFFFFFFFFFFFFFFFFFFFFFFFFFFFFF AND DUP2 MSTORE PUSH1 0x20 ADD SWAP1 PUSH1 0x1 ADD SWAP1 DUP1 DUP4 GT PUSH2 0x1FA2 JUMPI JUMPDEST POP POP POP POP POP DUP2 MSTORE PUSH1 0x20 ADD PUSH1 0x1 DUP3 ADD SLOAD DUP2 MSTORE PUSH1 0x20 ADD PUSH1 0x2 DUP3 ADD PUSH1 0x0 SWAP1 SLOAD SWAP1 PUSH2 0x100 EXP SWAP1 DIV PUSH1 0xFF AND ISZERO ISZERO ISZERO ISZERO DUP2 MSTORE POP POP SWAP1 POP SWAP1 JUMP JUMPDEST DUP1 PUSH1 0x0 PUSH20 0xFFFFFFFFFFFFFFFFFFFFFFFFFFFFFFFFFFFFFFFF AND PUSH1 0x8 PUSH1 0x0 DUP4 PUSH20 0xFFFFFFFFFFFFFFFFFFFFFFFFFFFFFFFFFFFFFFFF AND PUSH20 0xFFFFFFFFFFFFFFFFFFFFFFFFFFFFFFFFFFFFFFFF AND DUP2 MSTORE PUSH1 0x20 ADD SWAP1 DUP2 MSTORE PUSH1 0x20 ADD PUSH1 0x0 KECCAK256 PUSH1 0x0 ADD PUSH1 0x0 SWAP1 SLOAD SWAP1 PUSH2 0x100 EXP SWAP1 DIV PUSH20 0xFFFFFFFFFFFFFFFFFFFFFFFFFFFFFFFFFFFFFFFF AND PUSH20 0xFFFFFFFFFFFFFFFFFFFFFFFFFFFFFFFFFFFFFFFF AND EQ ISZERO PUSH2 0x20F2 JUMPI PUSH1 0x40 MLOAD PUSH32 0x8C379A000000000000000000000000000000000000000000000000000000000 DUP2 MSTORE PUSH1 0x4 ADD PUSH2 0x20E9 SWAP1 PUSH2 0x4656 JUMP JUMPDEST PUSH1 0x40 MLOAD DUP1 SWAP2 SUB SWAP1 REVERT JUMPDEST PUSH2 0x20FB DUP3 PUSH2 0x717 JUMP JUMPDEST PUSH1 0x8 PUSH1 0x0 DUP4 PUSH20 0xFFFFFFFFFFFFFFFFFFFFFFFFFFFFFFFFFFFFFFFF AND PUSH20 0xFFFFFFFFFFFFFFFFFFFFFFFFFFFFFFFFFFFFFFFF AND DUP2 MSTORE PUSH1 0x20 ADD SWAP1 DUP2 MSTORE PUSH1 0x20 ADD PUSH1 0x0 KECCAK256 PUSH1 0x0 DUP1 DUP3 ADD PUSH1 0x0 PUSH2 0x100 EXP DUP2 SLOAD SWAP1 PUSH20 0xFFFFFFFFFFFFFFFFFFFFFFFFFFFFFFFFFFFFFFFF MUL NOT AND SWAP1 SSTORE PUSH1 0x1 DUP3 ADD PUSH1 0x0 PUSH2 0x2172 SWAP2 SWAP1 PUSH2 0x3ACF JUMP JUMPDEST PUSH1 0x2 DUP3 ADD PUSH1 0x0 PUSH2 0x2182 SWAP2 SWAP1 PUSH2 0x3ACF JUMP JUMPDEST PUSH1 0x3 DUP3 ADD PUSH1 0x0 PUSH2 0x2192 SWAP2 SWAP1 PUSH2 0x3ACF JUMP JUMPDEST PUSH1 0x4 DUP3 ADD PUSH1 0x0 PUSH2 0x100 EXP DUP2 SLOAD SWAP1 PUSH1 0xFF MUL NOT AND SWAP1 SSTORE PUSH1 0x5 DUP3 ADD PUSH1 0x0 DUP1 DUP3 ADD PUSH1 0x0 PUSH2 0x100 EXP DUP2 SLOAD SWAP1 PUSH1 0xFF MUL NOT AND SWAP1 SSTORE PUSH1 0x0 DUP3 ADD PUSH1 0x1 PUSH2 0x100 EXP DUP2 SLOAD SWAP1 PUSH1 0xFF MUL NOT AND SWAP1 SSTORE PUSH1 0x0 DUP3 ADD PUSH1 0x2 PUSH2 0x100 EXP DUP2 SLOAD SWAP1 PUSH1 0xFF MUL NOT AND SWAP1 SSTORE PUSH1 0x0 DUP3 ADD PUSH1 0x3 PUSH2 0x100 EXP DUP2 SLOAD SWAP1 PUSH1 0xFF MUL NOT AND SWAP1 SSTORE POP POP POP POP POP POP JUMP JUMPDEST PUSH2 0x220B PUSH2 0x3AAC JUMP JUMPDEST PUSH1 0x0 TIMESTAMP SWAP1 POP PUSH1 0x0 PUSH1 0x40 MLOAD DUP1 PUSH1 0x60 ADD PUSH1 0x40 MSTORE DUP1 DUP6 DUP2 MSTORE PUSH1 0x20 ADD DUP4 DUP2 MSTORE PUSH1 0x20 ADD PUSH1 0x0 ISZERO ISZERO DUP2 MSTORE POP SWAP1 POP DUP1 SWAP3 POP POP POP SWAP2 SWAP1 POP JUMP JUMPDEST DUP4 PUSH1 0x0 PUSH20 0xFFFFFFFFFFFFFFFFFFFFFFFFFFFFFFFFFFFFFFFF AND PUSH1 0x8 PUSH1 0x0 DUP4 PUSH20 0xFFFFFFFFFFFFFFFFFFFFFFFFFFFFFFFFFFFFFFFF AND PUSH20 0xFFFFFFFFFFFFFFFFFFFFFFFFFFFFFFFFFFFFFFFF AND DUP2 MSTORE PUSH1 0x20 ADD SWAP1 DUP2 MSTORE PUSH1 0x20 ADD PUSH1 0x0 KECCAK256 PUSH1 0x0 ADD PUSH1 0x0 SWAP1 SLOAD SWAP1 PUSH2 0x100 EXP SWAP1 DIV PUSH20 0xFFFFFFFFFFFFFFFFFFFFFFFFFFFFFFFFFFFFFFFF AND PUSH20 0xFFFFFFFFFFFFFFFFFFFFFFFFFFFFFFFFFFFFFFFF AND EQ PUSH2 0x230E JUMPI PUSH1 0x40 MLOAD PUSH32 0x8C379A000000000000000000000000000000000000000000000000000000000 DUP2 MSTORE PUSH1 0x4 ADD PUSH2 0x2305 SWAP1 PUSH2 0x4841 JUMP JUMPDEST PUSH1 0x40 MLOAD DUP1 SWAP2 SUB SWAP1 REVERT JUMPDEST PUSH1 0x0 PUSH1 0x40 MLOAD DUP1 PUSH1 0x80 ADD PUSH1 0x40 MSTORE DUP1 PUSH1 0x0 ISZERO ISZERO DUP2 MSTORE PUSH1 0x20 ADD PUSH1 0x0 ISZERO ISZERO DUP2 MSTORE PUSH1 0x20 ADD PUSH1 0x0 ISZERO ISZERO DUP2 MSTORE PUSH1 0x20 ADD PUSH1 0x1 ISZERO ISZERO DUP2 MSTORE POP SWAP1 POP PUSH1 0x0 PUSH1 0x40 MLOAD DUP1 PUSH1 0xC0 ADD PUSH1 0x40 MSTORE DUP1 DUP9 PUSH20 0xFFFFFFFFFFFFFFFFFFFFFFFFFFFFFFFFFFFFFFFF AND DUP2 MSTORE PUSH1 0x20 ADD DUP8 DUP2 MSTORE PUSH1 0x20 ADD DUP7 DUP2 MSTORE PUSH1 0x20 ADD DUP6 DUP2 MSTORE PUSH1 0x20 ADD PUSH1 0x0 ISZERO ISZERO DUP2 MSTORE PUSH1 0x20 ADD DUP4 DUP2 MSTORE POP SWAP1 POP DUP1 PUSH1 0x8 PUSH1 0x0 DUP10 PUSH20 0xFFFFFFFFFFFFFFFFFFFFFFFFFFFFFFFFFFFFFFFF AND PUSH20 0xFFFFFFFFFFFFFFFFFFFFFFFFFFFFFFFFFFFFFFFF AND DUP2 MSTORE PUSH1 0x20 ADD SWAP1 DUP2 MSTORE PUSH1 0x20 ADD PUSH1 0x0 KECCAK256 PUSH1 0x0 DUP3 ADD MLOAD DUP2 PUSH1 0x0 ADD PUSH1 0x0 PUSH2 0x100 EXP DUP2 SLOAD DUP2 PUSH20 0xFFFFFFFFFFFFFFFFFFFFFFFFFFFFFFFFFFFFFFFF MUL NOT AND SWAP1 DUP4 PUSH20 0xFFFFFFFFFFFFFFFFFFFFFFFFFFFFFFFFFFFFFFFF AND MUL OR SWAP1 SSTORE POP PUSH1 0x20 DUP3 ADD MLOAD DUP2 PUSH1 0x1 ADD SWAP1 DUP1 MLOAD SWAP1 PUSH1 0x20 ADD SWAP1 PUSH2 0x242C SWAP3 SWAP2 SWAP1 PUSH2 0x3B0F JUMP JUMPDEST POP PUSH1 0x40 DUP3 ADD MLOAD DUP2 PUSH1 0x2 ADD SWAP1 DUP1 MLOAD SWAP1 PUSH1 0x20 ADD SWAP1 PUSH2 0x2449 SWAP3 SWAP2 SWAP1 PUSH2 0x3B0F JUMP JUMPDEST POP PUSH1 0x60 DUP3 ADD MLOAD DUP2 PUSH1 0x3 ADD SWAP1 DUP1 MLOAD SWAP1 PUSH1 0x20 ADD SWAP1 PUSH2 0x2466 SWAP3 SWAP2 SWAP1 PUSH2 0x3B0F JUMP JUMPDEST POP PUSH1 0x80 DUP3 ADD MLOAD DUP2 PUSH1 0x4 ADD PUSH1 0x0 PUSH2 0x100 EXP DUP2 SLOAD DUP2 PUSH1 0xFF MUL NOT AND SWAP1 DUP4 ISZERO ISZERO MUL OR SWAP1 SSTORE POP PUSH1 0xA0 DUP3 ADD MLOAD DUP2 PUSH1 0x5 ADD PUSH1 0x0 DUP3 ADD MLOAD DUP2 PUSH1 0x0 ADD PUSH1 0x0 PUSH2 0x100 EXP DUP2 SLOAD DUP2 PUSH1 0xFF MUL NOT AND SWAP1 DUP4 ISZERO ISZERO MUL OR SWAP1 SSTORE POP PUSH1 0x20 DUP3 ADD MLOAD DUP2 PUSH1 0x0 ADD PUSH1 0x1 PUSH2 0x100 EXP DUP2 SLOAD DUP2 PUSH1 0xFF MUL NOT AND SWAP1 DUP4 ISZERO ISZERO MUL OR SWAP1 SSTORE POP PUSH1 0x40 DUP3 ADD MLOAD DUP2 PUSH1 0x0 ADD PUSH1 0x2 PUSH2 0x100 EXP DUP2 SLOAD DUP2 PUSH1 0xFF MUL NOT AND SWAP1 DUP4 ISZERO ISZERO MUL OR SWAP1 SSTORE POP PUSH1 0x60 DUP3 ADD MLOAD DUP2 PUSH1 0x0 ADD PUSH1 0x3 PUSH2 0x100 EXP DUP2 SLOAD DUP2 PUSH1 0xFF MUL NOT AND SWAP1 DUP4 ISZERO ISZERO MUL OR SWAP1 SSTORE POP POP POP SWAP1 POP POP POP POP POP POP POP POP POP JUMP JUMPDEST PUSH1 0x0 PUSH2 0x252B DUP3 PUSH1 0x3 PUSH2 0x2546 JUMP JUMPDEST SWAP1 POP SWAP2 SWAP1 POP JUMP JUMPDEST PUSH1 0x0 PUSH2 0x253F DUP3 PUSH1 0x1 PUSH2 0x2546 JUMP JUMPDEST SWAP1 POP SWAP2 SWAP1 POP JUMP JUMPDEST PUSH1 0x0 DUP1 PUSH1 0x8 PUSH1 0x0 DUP6 PUSH20 0xFFFFFFFFFFFFFFFFFFFFFFFFFFFFFFFFFFFFFFFF AND PUSH20 0xFFFFFFFFFFFFFFFFFFFFFFFFFFFFFFFFFFFFFFFF AND DUP2 MSTORE PUSH1 0x20 ADD SWAP1 DUP2 MSTORE PUSH1 0x20 ADD PUSH1 0x0 KECCAK256 PUSH1 0x40 MLOAD DUP1 PUSH1 0xC0 ADD PUSH1 0x40 MSTORE SWAP1 DUP2 PUSH1 0x0 DUP3 ADD PUSH1 0x0 SWAP1 SLOAD SWAP1 PUSH2 0x100 EXP SWAP1 DIV PUSH20 0xFFFFFFFFFFFFFFFFFFFFFFFFFFFFFFFFFFFFFFFF AND PUSH20 0xFFFFFFFFFFFFFFFFFFFFFFFFFFFFFFFFFFFFFFFF AND PUSH20 0xFFFFFFFFFFFFFFFFFFFFFFFFFFFFFFFFFFFFFFFF AND DUP2 MSTORE PUSH1 0x20 ADD PUSH1 0x1 DUP3 ADD DUP1 SLOAD PUSH2 0x25F9 SWAP1 PUSH2 0x45C7 JUMP JUMPDEST DUP1 PUSH1 0x1F ADD PUSH1 0x20 DUP1 SWAP2 DIV MUL PUSH1 0x20 ADD PUSH1 0x40 MLOAD SWAP1 DUP2 ADD PUSH1 0x40 MSTORE DUP1 SWAP3 SWAP2 SWAP1 DUP2 DUP2 MSTORE PUSH1 0x20 ADD DUP3 DUP1 SLOAD PUSH2 0x2625 SWAP1 PUSH2 0x45C7 JUMP JUMPDEST DUP1 ISZERO PUSH2 0x2672 JUMPI DUP1 PUSH1 0x1F LT PUSH2 0x2647 JUMPI PUSH2 0x100 DUP1 DUP4 SLOAD DIV MUL DUP4 MSTORE SWAP2 PUSH1 0x20 ADD SWAP2 PUSH2 0x2672 JUMP JUMPDEST DUP3 ADD SWAP2 SWAP1 PUSH1 0x0 MSTORE PUSH1 0x20 PUSH1 0x0 KECCAK256 SWAP1 JUMPDEST DUP2 SLOAD DUP2 MSTORE SWAP1 PUSH1 0x1 ADD SWAP1 PUSH1 0x20 ADD DUP1 DUP4 GT PUSH2 0x2655 JUMPI DUP3 SWAP1 SUB PUSH1 0x1F AND DUP3 ADD SWAP2 JUMPDEST POP POP POP POP POP DUP2 MSTORE PUSH1 0x20 ADD PUSH1 0x2 DUP3 ADD DUP1 SLOAD PUSH2 0x268B SWAP1 PUSH2 0x45C7 JUMP JUMPDEST DUP1 PUSH1 0x1F ADD PUSH1 0x20 DUP1 SWAP2 DIV MUL PUSH1 0x20 ADD PUSH1 0x40 MLOAD SWAP1 DUP2 ADD PUSH1 0x40 MSTORE DUP1 SWAP3 SWAP2 SWAP1 DUP2 DUP2 MSTORE PUSH1 0x20 ADD DUP3 DUP1 SLOAD PUSH2 0x26B7 SWAP1 PUSH2 0x45C7 JUMP JUMPDEST DUP1 ISZERO PUSH2 0x2704 JUMPI DUP1 PUSH1 0x1F LT PUSH2 0x26D9 JUMPI PUSH2 0x100 DUP1 DUP4 SLOAD DIV MUL DUP4 MSTORE SWAP2 PUSH1 0x20 ADD SWAP2 PUSH2 0x2704 JUMP JUMPDEST DUP3 ADD SWAP2 SWAP1 PUSH1 0x0 MSTORE PUSH1 0x20 PUSH1 0x0 KECCAK256 SWAP1 JUMPDEST DUP2 SLOAD DUP2 MSTORE SWAP1 PUSH1 0x1 ADD SWAP1 PUSH1 0x20 ADD DUP1 DUP4 GT PUSH2 0x26E7 JUMPI DUP3 SWAP1 SUB PUSH1 0x1F AND DUP3 ADD SWAP2 JUMPDEST POP POP POP POP POP DUP2 MSTORE PUSH1 0x20 ADD PUSH1 0x3 DUP3 ADD DUP1 SLOAD PUSH2 0x271D SWAP1 PUSH2 0x45C7 JUMP JUMPDEST DUP1 PUSH1 0x1F ADD PUSH1 0x20 DUP1 SWAP2 DIV MUL PUSH1 0x20 ADD PUSH1 0x40 MLOAD SWAP1 DUP2 ADD PUSH1 0x40 MSTORE DUP1 SWAP3 SWAP2 SWAP1 DUP2 DUP2 MSTORE PUSH1 0x20 ADD DUP3 DUP1 SLOAD PUSH2 0x2749 SWAP1 PUSH2 0x45C7 JUMP JUMPDEST DUP1 ISZERO PUSH2 0x2796 JUMPI DUP1 PUSH1 0x1F LT PUSH2 0x276B JUMPI PUSH2 0x100 DUP1 DUP4 SLOAD DIV MUL DUP4 MSTORE SWAP2 PUSH1 0x20 ADD SWAP2 PUSH2 0x2796 JUMP JUMPDEST DUP3 ADD SWAP2 SWAP1 PUSH1 0x0 MSTORE PUSH1 0x20 PUSH1 0x0 KECCAK256 SWAP1 JUMPDEST DUP2 SLOAD DUP2 MSTORE SWAP1 PUSH1 0x1 ADD SWAP1 PUSH1 0x20 ADD DUP1 DUP4 GT PUSH2 0x2779 JUMPI DUP3 SWAP1 SUB PUSH1 0x1F AND DUP3 ADD SWAP2 JUMPDEST POP POP POP POP POP DUP2 MSTORE PUSH1 0x20 ADD PUSH1 0x4 DUP3 ADD PUSH1 0x0 SWAP1 SLOAD SWAP1 PUSH2 0x100 EXP SWAP1 DIV PUSH1 0xFF AND ISZERO ISZERO ISZERO ISZERO DUP2 MSTORE PUSH1 0x20 ADD PUSH1 0x5 DUP3 ADD PUSH1 0x40 MLOAD DUP1 PUSH1 0x80 ADD PUSH1 0x40 MSTORE SWAP1 DUP2 PUSH1 0x0 DUP3 ADD PUSH1 0x0 SWAP1 SLOAD SWAP1 PUSH2 0x100 EXP SWAP1 DIV PUSH1 0xFF AND ISZERO ISZERO ISZERO ISZERO DUP2 MSTORE PUSH1 0x20 ADD PUSH1 0x0 DUP3 ADD PUSH1 0x1 SWAP1 SLOAD SWAP1 PUSH2 0x100 EXP SWAP1 DIV PUSH1 0xFF AND ISZERO ISZERO ISZERO ISZERO DUP2 MSTORE PUSH1 0x20 ADD PUSH1 0x0 DUP3 ADD PUSH1 0x2 SWAP1 SLOAD SWAP1 PUSH2 0x100 EXP SWAP1 DIV PUSH1 0xFF AND ISZERO ISZERO ISZERO ISZERO DUP2 MSTORE PUSH1 0x20 ADD PUSH1 0x0 DUP3 ADD PUSH1 0x3 SWAP1 SLOAD SWAP1 PUSH2 0x100 EXP SWAP1 DIV PUSH1 0xFF AND ISZERO ISZERO ISZERO ISZERO DUP2 MSTORE POP POP DUP2 MSTORE POP POP SWAP1 POP PUSH1 0x0 DUP2 PUSH1 0xA0 ADD MLOAD SWAP1 POP PUSH1 0x0 PUSH1 0x3 DUP2 GT ISZERO PUSH2 0x2859 JUMPI PUSH2 0x2858 PUSH2 0x4861 JUMP JUMPDEST JUMPDEST DUP5 PUSH1 0x3 DUP2 GT ISZERO PUSH2 0x286C JUMPI PUSH2 0x286B PUSH2 0x4861 JUMP JUMPDEST JUMPDEST EQ ISZERO PUSH2 0x2880 JUMPI DUP1 PUSH1 0x0 ADD MLOAD SWAP3 POP POP POP PUSH2 0x2937 JUMP JUMPDEST PUSH1 0x1 PUSH1 0x3 DUP2 GT ISZERO PUSH2 0x2894 JUMPI PUSH2 0x2893 PUSH2 0x4861 JUMP JUMPDEST JUMPDEST DUP5 PUSH1 0x3 DUP2 GT ISZERO PUSH2 0x28A7 JUMPI PUSH2 0x28A6 PUSH2 0x4861 JUMP JUMPDEST JUMPDEST EQ ISZERO PUSH2 0x28BB JUMPI DUP1 PUSH1 0x20 ADD MLOAD SWAP3 POP POP POP PUSH2 0x2937 JUMP JUMPDEST PUSH1 0x2 PUSH1 0x3 DUP2 GT ISZERO PUSH2 0x28CF JUMPI PUSH2 0x28CE PUSH2 0x4861 JUMP JUMPDEST JUMPDEST DUP5 PUSH1 0x3 DUP2 GT ISZERO PUSH2 0x28E2 JUMPI PUSH2 0x28E1 PUSH2 0x4861 JUMP JUMPDEST JUMPDEST EQ ISZERO PUSH2 0x28F6 JUMPI DUP1 PUSH1 0x40 ADD MLOAD SWAP3 POP POP POP PUSH2 0x2937 JUMP JUMPDEST PUSH1 0x3 DUP1 DUP2 GT ISZERO PUSH2 0x2909 JUMPI PUSH2 0x2908 PUSH2 0x4861 JUMP JUMPDEST JUMPDEST DUP5 PUSH1 0x3 DUP2 GT ISZERO PUSH2 0x291C JUMPI PUSH2 0x291B PUSH2 0x4861 JUMP JUMPDEST JUMPDEST EQ ISZERO PUSH2 0x2930 JUMPI DUP1 PUSH1 0x60 ADD MLOAD SWAP3 POP POP POP PUSH2 0x2937 JUMP JUMPDEST PUSH1 0x0 SWAP3 POP POP POP JUMPDEST SWAP3 SWAP2 POP POP JUMP JUMPDEST DUP2 PUSH1 0x1 PUSH1 0x0 SWAP1 SLOAD SWAP1 PUSH2 0x100 EXP SWAP1 DIV PUSH20 0xFFFFFFFFFFFFFFFFFFFFFFFFFFFFFFFFFFFFFFFF AND PUSH20 0xFFFFFFFFFFFFFFFFFFFFFFFFFFFFFFFFFFFFFFFF AND DUP2 PUSH20 0xFFFFFFFFFFFFFFFFFFFFFFFFFFFFFFFFFFFFFFFF AND EQ DUP1 PUSH2 0x2A10 JUMPI POP ADDRESS PUSH20 0xFFFFFFFFFFFFFFFFFFFFFFFFFFFFFFFFFFFFFFFF AND PUSH4 0x297027D5 DUP3 PUSH1 0x40 MLOAD DUP3 PUSH4 0xFFFFFFFF AND PUSH1 0xE0 SHL DUP2 MSTORE PUSH1 0x4 ADD PUSH2 0x29CE SWAP2 SWAP1 PUSH2 0x439B JUMP JUMPDEST PUSH1 0x20 PUSH1 0x40 MLOAD DUP1 DUP4 SUB DUP2 DUP7 GAS STATICCALL ISZERO DUP1 ISZERO PUSH2 0x29EB JUMPI RETURNDATASIZE PUSH1 0x0 DUP1 RETURNDATACOPY RETURNDATASIZE PUSH1 0x0 REVERT JUMPDEST POP POP POP POP PUSH1 0x40 MLOAD RETURNDATASIZE PUSH1 0x1F NOT PUSH1 0x1F DUP3 ADD AND DUP3 ADD DUP1 PUSH1 0x40 MSTORE POP DUP2 ADD SWAP1 PUSH2 0x2A0F SWAP2 SWAP1 PUSH2 0x47C8 JUMP JUMPDEST JUMPDEST PUSH2 0x2A4F JUMPI PUSH1 0x40 MLOAD PUSH32 0x8C379A000000000000000000000000000000000000000000000000000000000 DUP2 MSTORE PUSH1 0x4 ADD PUSH2 0x2A46 SWAP1 PUSH2 0x4902 JUMP JUMPDEST PUSH1 0x40 MLOAD DUP1 SWAP2 SUB SWAP1 REVERT JUMPDEST DUP2 PUSH1 0x0 PUSH20 0xFFFFFFFFFFFFFFFFFFFFFFFFFFFFFFFFFFFFFFFF AND PUSH1 0x8 PUSH1 0x0 DUP4 PUSH20 0xFFFFFFFFFFFFFFFFFFFFFFFFFFFFFFFFFFFFFFFF AND PUSH20 0xFFFFFFFFFFFFFFFFFFFFFFFFFFFFFFFFFFFFFFFF AND DUP2 MSTORE PUSH1 0x20 ADD SWAP1 DUP2 MSTORE PUSH1 0x20 ADD PUSH1 0x0 KECCAK256 PUSH1 0x0 ADD PUSH1 0x0 SWAP1 SLOAD SWAP1 PUSH2 0x100 EXP SWAP1 DIV PUSH20 0xFFFFFFFFFFFFFFFFFFFFFFFFFFFFFFFFFFFFFFFF AND PUSH20 0xFFFFFFFFFFFFFFFFFFFFFFFFFFFFFFFFFFFFFFFF AND EQ ISZERO PUSH2 0x2B22 JUMPI PUSH1 0x40 MLOAD PUSH32 0x8C379A000000000000000000000000000000000000000000000000000000000 DUP2 MSTORE PUSH1 0x4 ADD PUSH2 0x2B19 SWAP1 PUSH2 0x4656 JUMP JUMPDEST PUSH1 0x40 MLOAD DUP1 SWAP2 SUB SWAP1 REVERT JUMPDEST PUSH2 0x2B2E DUP5 DUP5 PUSH1 0x0 PUSH2 0x2ED7 JUMP JUMPDEST POP POP POP POP JUMP JUMPDEST PUSH1 0x0 PUSH1 0x2 PUSH1 0x0 ADD DUP1 SLOAD DUP1 PUSH1 0x20 MUL PUSH1 0x20 ADD PUSH1 0x40 MLOAD SWAP1 DUP2 ADD PUSH1 0x40 MSTORE DUP1 SWAP3 SWAP2 SWAP1 DUP2 DUP2 MSTORE PUSH1 0x20 ADD DUP3 DUP1 SLOAD DUP1 ISZERO PUSH2 0x2BBB JUMPI PUSH1 0x20 MUL DUP3 ADD SWAP2 SWAP1 PUSH1 0x0 MSTORE PUSH1 0x20 PUSH1 0x0 KECCAK256 SWAP1 JUMPDEST DUP2 PUSH1 0x0 SWAP1 SLOAD SWAP1 PUSH2 0x100 EXP SWAP1 DIV PUSH20 0xFFFFFFFFFFFFFFFFFFFFFFFFFFFFFFFFFFFFFFFF AND PUSH20 0xFFFFFFFFFFFFFFFFFFFFFFFFFFFFFFFFFFFFFFFF AND DUP2 MSTORE PUSH1 0x20 ADD SWAP1 PUSH1 0x1 ADD SWAP1 DUP1 DUP4 GT PUSH2 0x2B71 JUMPI JUMPDEST POP POP POP POP POP SWAP1 POP PUSH1 0x0 JUMPDEST DUP2 MLOAD DUP2 LT ISZERO PUSH2 0x2C05 JUMPI PUSH2 0x2BF2 DUP4 DUP4 DUP4 DUP2 MLOAD DUP2 LT PUSH2 0x2BE5 JUMPI PUSH2 0x2BE4 PUSH2 0x46CF JUMP JUMPDEST JUMPDEST PUSH1 0x20 MUL PUSH1 0x20 ADD ADD MLOAD PUSH2 0x35BD JUMP JUMPDEST DUP1 DUP1 PUSH2 0x2BFD SWAP1 PUSH2 0x46FE JUMP JUMPDEST SWAP2 POP POP PUSH2 0x2BC5 JUMP JUMPDEST POP POP POP JUMP JUMPDEST DUP2 PUSH1 0x1 PUSH1 0x0 SWAP1 SLOAD SWAP1 PUSH2 0x100 EXP SWAP1 DIV PUSH20 0xFFFFFFFFFFFFFFFFFFFFFFFFFFFFFFFFFFFFFFFF AND PUSH20 0xFFFFFFFFFFFFFFFFFFFFFFFFFFFFFFFFFFFFFFFF AND DUP2 PUSH20 0xFFFFFFFFFFFFFFFFFFFFFFFFFFFFFFFFFFFFFFFF AND EQ DUP1 PUSH2 0x2CDD JUMPI POP ADDRESS PUSH20 0xFFFFFFFFFFFFFFFFFFFFFFFFFFFFFFFFFFFFFFFF AND PUSH4 0x297027D5 DUP3 PUSH1 0x40 MLOAD DUP3 PUSH4 0xFFFFFFFF AND PUSH1 0xE0 SHL DUP2 MSTORE PUSH1 0x4 ADD PUSH2 0x2C9B SWAP2 SWAP1 PUSH2 0x439B JUMP JUMPDEST PUSH1 0x20 PUSH1 0x40 MLOAD DUP1 DUP4 SUB DUP2 DUP7 GAS STATICCALL ISZERO DUP1 ISZERO PUSH2 0x2CB8 JUMPI RETURNDATASIZE PUSH1 0x0 DUP1 RETURNDATACOPY RETURNDATASIZE PUSH1 0x0 REVERT JUMPDEST POP POP POP POP PUSH1 0x40 MLOAD RETURNDATASIZE PUSH1 0x1F NOT PUSH1 0x1F DUP3 ADD AND DUP3 ADD DUP1 PUSH1 0x40 MSTORE POP DUP2 ADD SWAP1 PUSH2 0x2CDC SWAP2 SWAP1 PUSH2 0x47C8 JUMP JUMPDEST JUMPDEST PUSH2 0x2D1C JUMPI PUSH1 0x40 MLOAD PUSH32 0x8C379A000000000000000000000000000000000000000000000000000000000 DUP2 MSTORE PUSH1 0x4 ADD PUSH2 0x2D13 SWAP1 PUSH2 0x4902 JUMP JUMPDEST PUSH1 0x40 MLOAD DUP1 SWAP2 SUB SWAP1 REVERT JUMPDEST DUP2 PUSH1 0x0 PUSH20 0xFFFFFFFFFFFFFFFFFFFFFFFFFFFFFFFFFFFFFFFF AND PUSH1 0x8 PUSH1 0x0 DUP4 PUSH20 0xFFFFFFFFFFFFFFFFFFFFFFFFFFFFFFFFFFFFFFFF AND PUSH20 0xFFFFFFFFFFFFFFFFFFFFFFFFFFFFFFFFFFFFFFFF AND DUP2 MSTORE PUSH1 0x20 ADD SWAP1 DUP2 MSTORE PUSH1 0x20 ADD PUSH1 0x0 KECCAK256 PUSH1 0x0 ADD PUSH1 0x0 SWAP1 SLOAD SWAP1 PUSH2 0x100 EXP SWAP1 DIV PUSH20 0xFFFFFFFFFFFFFFFFFFFFFFFFFFFFFFFFFFFFFFFF AND PUSH20 0xFFFFFFFFFFFFFFFFFFFFFFFFFFFFFFFFFFFFFFFF AND EQ ISZERO PUSH2 0x2DEF JUMPI PUSH1 0x40 MLOAD PUSH32 0x8C379A000000000000000000000000000000000000000000000000000000000 DUP2 MSTORE PUSH1 0x4 ADD PUSH2 0x2DE6 SWAP1 PUSH2 0x4656 JUMP JUMPDEST PUSH1 0x40 MLOAD DUP1 SWAP2 SUB SWAP1 REVERT JUMPDEST PUSH2 0x2DFB DUP5 DUP5 PUSH1 0x1 PUSH2 0x2ED7 JUMP JUMPDEST POP POP POP POP JUMP JUMPDEST PUSH1 0x0 PUSH1 0x5 PUSH1 0x0 ADD DUP1 SLOAD DUP1 PUSH1 0x20 MUL PUSH1 0x20 ADD PUSH1 0x40 MLOAD SWAP1 DUP2 ADD PUSH1 0x40 MSTORE DUP1 SWAP3 SWAP2 SWAP1 DUP2 DUP2 MSTORE PUSH1 0x20 ADD DUP3 DUP1 SLOAD DUP1 ISZERO PUSH2 0x2E88 JUMPI PUSH1 0x20 MUL DUP3 ADD SWAP2 SWAP1 PUSH1 0x0 MSTORE PUSH1 0x20 PUSH1 0x0 KECCAK256 SWAP1 JUMPDEST DUP2 PUSH1 0x0 SWAP1 SLOAD SWAP1 PUSH2 0x100 EXP SWAP1 DIV PUSH20 0xFFFFFFFFFFFFFFFFFFFFFFFFFFFFFFFFFFFFFFFF AND PUSH20 0xFFFFFFFFFFFFFFFFFFFFFFFFFFFFFFFFFFFFFFFF AND DUP2 MSTORE PUSH1 0x20 ADD SWAP1 PUSH1 0x1 ADD SWAP1 DUP1 DUP4 GT PUSH2 0x2E3E JUMPI JUMPDEST POP POP POP POP POP SWAP1 POP PUSH1 0x0 JUMPDEST DUP2 MLOAD DUP2 LT ISZERO PUSH2 0x2ED2 JUMPI PUSH2 0x2EBF DUP4 DUP4 DUP4 DUP2 MLOAD DUP2 LT PUSH2 0x2EB2 JUMPI PUSH2 0x2EB1 PUSH2 0x46CF JUMP JUMPDEST JUMPDEST PUSH1 0x20 MUL PUSH1 0x20 ADD ADD MLOAD PUSH2 0x37B4 JUMP JUMPDEST DUP1 DUP1 PUSH2 0x2ECA SWAP1 PUSH2 0x46FE JUMP JUMPDEST SWAP2 POP POP PUSH2 0x2E92 JUMP JUMPDEST POP POP POP JUMP JUMPDEST DUP3 PUSH1 0x1 PUSH1 0x0 SWAP1 SLOAD SWAP1 PUSH2 0x100 EXP SWAP1 DIV PUSH20 0xFFFFFFFFFFFFFFFFFFFFFFFFFFFFFFFFFFFFFFFF AND PUSH20 0xFFFFFFFFFFFFFFFFFFFFFFFFFFFFFFFFFFFFFFFF AND DUP2 PUSH20 0xFFFFFFFFFFFFFFFFFFFFFFFFFFFFFFFFFFFFFFFF AND EQ DUP1 PUSH2 0x2FAA JUMPI POP ADDRESS PUSH20 0xFFFFFFFFFFFFFFFFFFFFFFFFFFFFFFFFFFFFFFFF AND PUSH4 0x297027D5 DUP3 PUSH1 0x40 MLOAD DUP3 PUSH4 0xFFFFFFFF AND PUSH1 0xE0 SHL DUP2 MSTORE PUSH1 0x4 ADD PUSH2 0x2F68 SWAP2 SWAP1 PUSH2 0x439B JUMP JUMPDEST PUSH1 0x20 PUSH1 0x40 MLOAD DUP1 DUP4 SUB DUP2 DUP7 GAS STATICCALL ISZERO DUP1 ISZERO PUSH2 0x2F85 JUMPI RETURNDATASIZE PUSH1 0x0 DUP1 RETURNDATACOPY RETURNDATASIZE PUSH1 0x0 REVERT JUMPDEST POP POP POP POP PUSH1 0x40 MLOAD RETURNDATASIZE PUSH1 0x1F NOT PUSH1 0x1F DUP3 ADD AND DUP3 ADD DUP1 PUSH1 0x40 MSTORE POP DUP2 ADD SWAP1 PUSH2 0x2FA9 SWAP2 SWAP1 PUSH2 0x47C8 JUMP JUMPDEST JUMPDEST PUSH2 0x2FE9 JUMPI PUSH1 0x40 MLOAD PUSH32 0x8C379A000000000000000000000000000000000000000000000000000000000 DUP2 MSTORE PUSH1 0x4 ADD PUSH2 0x2FE0 SWAP1 PUSH2 0x4902 JUMP JUMPDEST PUSH1 0x40 MLOAD DUP1 SWAP2 SUB SWAP1 REVERT JUMPDEST DUP3 PUSH1 0x0 PUSH20 0xFFFFFFFFFFFFFFFFFFFFFFFFFFFFFFFFFFFFFFFF AND PUSH1 0x8 PUSH1 0x0 DUP4 PUSH20 0xFFFFFFFFFFFFFFFFFFFFFFFFFFFFFFFFFFFFFFFF AND PUSH20 0xFFFFFFFFFFFFFFFFFFFFFFFFFFFFFFFFFFFFFFFF AND DUP2 MSTORE PUSH1 0x20 ADD SWAP1 DUP2 MSTORE PUSH1 0x20 ADD PUSH1 0x0 KECCAK256 PUSH1 0x0 ADD PUSH1 0x0 SWAP1 SLOAD SWAP1 PUSH2 0x100 EXP SWAP1 DIV PUSH20 0xFFFFFFFFFFFFFFFFFFFFFFFFFFFFFFFFFFFFFFFF AND PUSH20 0xFFFFFFFFFFFFFFFFFFFFFFFFFFFFFFFFFFFFFFFF AND EQ ISZERO PUSH2 0x30BC JUMPI PUSH1 0x40 MLOAD PUSH32 0x8C379A000000000000000000000000000000000000000000000000000000000 DUP2 MSTORE PUSH1 0x4 ADD PUSH2 0x30B3 SWAP1 PUSH2 0x4656 JUMP JUMPDEST PUSH1 0x40 MLOAD DUP1 SWAP2 SUB SWAP1 REVERT JUMPDEST PUSH1 0x0 PUSH1 0x8 PUSH1 0x0 DUP7 PUSH20 0xFFFFFFFFFFFFFFFFFFFFFFFFFFFFFFFFFFFFFFFF AND PUSH20 0xFFFFFFFFFFFFFFFFFFFFFFFFFFFFFFFFFFFFFFFF AND DUP2 MSTORE PUSH1 0x20 ADD SWAP1 DUP2 MSTORE PUSH1 0x20 ADD PUSH1 0x0 KECCAK256 SWAP1 POP PUSH1 0x0 DUP2 PUSH1 0x5 ADD SWAP1 POP PUSH1 0x0 PUSH1 0x3 DUP2 GT ISZERO PUSH2 0x311B JUMPI PUSH2 0x311A PUSH2 0x4861 JUMP JUMPDEST JUMPDEST DUP6 PUSH1 0x3 DUP2 GT ISZERO PUSH2 0x312E JUMPI PUSH2 0x312D PUSH2 0x4861 JUMP JUMPDEST JUMPDEST EQ ISZERO PUSH2 0x3156 JUMPI PUSH1 0x1 DUP2 PUSH1 0x0 ADD PUSH1 0x0 PUSH2 0x100 EXP DUP2 SLOAD DUP2 PUSH1 0xFF MUL NOT AND SWAP1 DUP4 ISZERO ISZERO MUL OR SWAP1 SSTORE POP PUSH2 0x3241 JUMP JUMPDEST PUSH1 0x1 PUSH1 0x3 DUP2 GT ISZERO PUSH2 0x316A JUMPI PUSH2 0x3169 PUSH2 0x4861 JUMP JUMPDEST JUMPDEST DUP6 PUSH1 0x3 DUP2 GT ISZERO PUSH2 0x317D JUMPI PUSH2 0x317C PUSH2 0x4861 JUMP JUMPDEST JUMPDEST EQ ISZERO PUSH2 0x31A5 JUMPI PUSH1 0x1 DUP2 PUSH1 0x0 ADD PUSH1 0x1 PUSH2 0x100 EXP DUP2 SLOAD DUP2 PUSH1 0xFF MUL NOT AND SWAP1 DUP4 ISZERO ISZERO MUL OR SWAP1 SSTORE POP PUSH2 0x3240 JUMP JUMPDEST PUSH1 0x2 PUSH1 0x3 DUP2 GT ISZERO PUSH2 0x31B9 JUMPI PUSH2 0x31B8 PUSH2 0x4861 JUMP JUMPDEST JUMPDEST DUP6 PUSH1 0x3 DUP2 GT ISZERO PUSH2 0x31CC JUMPI PUSH2 0x31CB PUSH2 0x4861 JUMP JUMPDEST JUMPDEST EQ ISZERO PUSH2 0x31F4 JUMPI PUSH1 0x1 DUP2 PUSH1 0x0 ADD PUSH1 0x2 PUSH2 0x100 EXP DUP2 SLOAD DUP2 PUSH1 0xFF MUL NOT AND SWAP1 DUP4 ISZERO ISZERO MUL OR SWAP1 SSTORE POP PUSH2 0x323F JUMP JUMPDEST PUSH1 0x3 DUP1 DUP2 GT ISZERO PUSH2 0x3207 JUMPI PUSH2 0x3206 PUSH2 0x4861 JUMP JUMPDEST JUMPDEST DUP6 PUSH1 0x3 DUP2 GT ISZERO PUSH2 0x321A JUMPI PUSH2 0x3219 PUSH2 0x4861 JUMP JUMPDEST JUMPDEST EQ ISZERO PUSH2 0x323E JUMPI PUSH1 0x1 DUP2 PUSH1 0x0 ADD PUSH1 0x3 PUSH2 0x100 EXP DUP2 SLOAD DUP2 PUSH1 0xFF MUL NOT AND SWAP1 DUP4 ISZERO ISZERO MUL OR SWAP1 SSTORE POP JUMPDEST JUMPDEST JUMPDEST JUMPDEST POP POP POP POP POP POP POP JUMP JUMPDEST DUP3 PUSH1 0x1 PUSH1 0x0 SWAP1 SLOAD SWAP1 PUSH2 0x100 EXP SWAP1 DIV PUSH20 0xFFFFFFFFFFFFFFFFFFFFFFFFFFFFFFFFFFFFFFFF AND PUSH20 0xFFFFFFFFFFFFFFFFFFFFFFFFFFFFFFFFFFFFFFFF AND DUP2 PUSH20 0xFFFFFFFFFFFFFFFFFFFFFFFFFFFFFFFFFFFFFFFF AND EQ DUP1 PUSH2 0x331D JUMPI POP ADDRESS PUSH20 0xFFFFFFFFFFFFFFFFFFFFFFFFFFFFFFFFFFFFFFFF AND PUSH4 0x297027D5 DUP3 PUSH1 0x40 MLOAD DUP3 PUSH4 0xFFFFFFFF AND PUSH1 0xE0 SHL DUP2 MSTORE PUSH1 0x4 ADD PUSH2 0x32DB SWAP2 SWAP1 PUSH2 0x439B JUMP JUMPDEST PUSH1 0x20 PUSH1 0x40 MLOAD DUP1 DUP4 SUB DUP2 DUP7 GAS STATICCALL ISZERO DUP1 ISZERO PUSH2 0x32F8 JUMPI RETURNDATASIZE PUSH1 0x0 DUP1 RETURNDATACOPY RETURNDATASIZE PUSH1 0x0 REVERT JUMPDEST POP POP POP POP PUSH1 0x40 MLOAD RETURNDATASIZE PUSH1 0x1F NOT PUSH1 0x1F DUP3 ADD AND DUP3 ADD DUP1 PUSH1 0x40 MSTORE POP DUP2 ADD SWAP1 PUSH2 0x331C SWAP2 SWAP1 PUSH2 0x47C8 JUMP JUMPDEST JUMPDEST PUSH2 0x335C JUMPI PUSH1 0x40 MLOAD PUSH32 0x8C379A000000000000000000000000000000000000000000000000000000000 DUP2 MSTORE PUSH1 0x4 ADD PUSH2 0x3353 SWAP1 PUSH2 0x4902 JUMP JUMPDEST PUSH1 0x40 MLOAD DUP1 SWAP2 SUB SWAP1 REVERT JUMPDEST DUP3 PUSH1 0x0 PUSH20 0xFFFFFFFFFFFFFFFFFFFFFFFFFFFFFFFFFFFFFFFF AND PUSH1 0x8 PUSH1 0x0 DUP4 PUSH20 0xFFFFFFFFFFFFFFFFFFFFFFFFFFFFFFFFFFFFFFFF AND PUSH20 0xFFFFFFFFFFFFFFFFFFFFFFFFFFFFFFFFFFFFFFFF AND DUP2 MSTORE PUSH1 0x20 ADD SWAP1 DUP2 MSTORE PUSH1 0x20 ADD PUSH1 0x0 KECCAK256 PUSH1 0x0 ADD PUSH1 0x0 SWAP1 SLOAD SWAP1 PUSH2 0x100 EXP SWAP1 DIV PUSH20 0xFFFFFFFFFFFFFFFFFFFFFFFFFFFFFFFFFFFFFFFF AND PUSH20 0xFFFFFFFFFFFFFFFFFFFFFFFFFFFFFFFFFFFFFFFF AND EQ ISZERO PUSH2 0x342F JUMPI PUSH1 0x40 MLOAD PUSH32 0x8C379A000000000000000000000000000000000000000000000000000000000 DUP2 MSTORE PUSH1 0x4 ADD PUSH2 0x3426 SWAP1 PUSH2 0x4656 JUMP JUMPDEST PUSH1 0x40 MLOAD DUP1 SWAP2 SUB SWAP1 REVERT JUMPDEST PUSH1 0x0 PUSH1 0x8 PUSH1 0x0 DUP7 PUSH20 0xFFFFFFFFFFFFFFFFFFFFFFFFFFFFFFFFFFFFFFFF AND PUSH20 0xFFFFFFFFFFFFFFFFFFFFFFFFFFFFFFFFFFFFFFFF AND DUP2 MSTORE PUSH1 0x20 ADD SWAP1 DUP2 MSTORE PUSH1 0x20 ADD PUSH1 0x0 KECCAK256 SWAP1 POP PUSH1 0x0 DUP2 PUSH1 0x5 ADD SWAP1 POP PUSH1 0x0 PUSH1 0x3 DUP2 GT ISZERO PUSH2 0x348E JUMPI PUSH2 0x348D PUSH2 0x4861 JUMP JUMPDEST JUMPDEST DUP6 PUSH1 0x3 DUP2 GT ISZERO PUSH2 0x34A1 JUMPI PUSH2 0x34A0 PUSH2 0x4861 JUMP JUMPDEST JUMPDEST EQ ISZERO PUSH2 0x34C9 JUMPI PUSH1 0x0 DUP2 PUSH1 0x0 ADD PUSH1 0x0 PUSH2 0x100 EXP DUP2 SLOAD DUP2 PUSH1 0xFF MUL NOT AND SWAP1 DUP4 ISZERO ISZERO MUL OR SWAP1 SSTORE POP PUSH2 0x35B4 JUMP JUMPDEST PUSH1 0x1 PUSH1 0x3 DUP2 GT ISZERO PUSH2 0x34DD JUMPI PUSH2 0x34DC PUSH2 0x4861 JUMP JUMPDEST JUMPDEST DUP6 PUSH1 0x3 DUP2 GT ISZERO PUSH2 0x34F0 JUMPI PUSH2 0x34EF PUSH2 0x4861 JUMP JUMPDEST JUMPDEST EQ ISZERO PUSH2 0x3518 JUMPI PUSH1 0x0 DUP2 PUSH1 0x0 ADD PUSH1 0x1 PUSH2 0x100 EXP DUP2 SLOAD DUP2 PUSH1 0xFF MUL NOT AND SWAP1 DUP4 ISZERO ISZERO MUL OR SWAP1 SSTORE POP PUSH2 0x35B3 JUMP JUMPDEST PUSH1 0x2 PUSH1 0x3 DUP2 GT ISZERO PUSH2 0x352C JUMPI PUSH2 0x352B PUSH2 0x4861 JUMP JUMPDEST JUMPDEST DUP6 PUSH1 0x3 DUP2 GT ISZERO PUSH2 0x353F JUMPI PUSH2 0x353E PUSH2 0x4861 JUMP JUMPDEST JUMPDEST EQ ISZERO PUSH2 0x3567 JUMPI PUSH1 0x0 DUP2 PUSH1 0x0 ADD PUSH1 0x2 PUSH2 0x100 EXP DUP2 SLOAD DUP2 PUSH1 0xFF MUL NOT AND SWAP1 DUP4 ISZERO ISZERO MUL OR SWAP1 SSTORE POP PUSH2 0x35B2 JUMP JUMPDEST PUSH1 0x3 DUP1 DUP2 GT ISZERO PUSH2 0x357A JUMPI PUSH2 0x3579 PUSH2 0x4861 JUMP JUMPDEST JUMPDEST DUP6 PUSH1 0x3 DUP2 GT ISZERO PUSH2 0x358D JUMPI PUSH2 0x358C PUSH2 0x4861 JUMP JUMPDEST JUMPDEST EQ ISZERO PUSH2 0x35B1 JUMPI PUSH1 0x0 DUP2 PUSH1 0x0 ADD PUSH1 0x3 PUSH2 0x100 EXP DUP2 SLOAD DUP2 PUSH1 0xFF MUL NOT AND SWAP1 DUP4 ISZERO ISZERO MUL OR SWAP1 SSTORE POP JUMPDEST JUMPDEST JUMPDEST JUMPDEST POP POP POP POP POP POP POP JUMP JUMPDEST DUP2 PUSH1 0x1 PUSH1 0x0 SWAP1 SLOAD SWAP1 PUSH2 0x100 EXP SWAP1 DIV PUSH20 0xFFFFFFFFFFFFFFFFFFFFFFFFFFFFFFFFFFFFFFFF AND PUSH20 0xFFFFFFFFFFFFFFFFFFFFFFFFFFFFFFFFFFFFFFFF AND DUP2 PUSH20 0xFFFFFFFFFFFFFFFFFFFFFFFFFFFFFFFFFFFFFFFF AND EQ DUP1 PUSH2 0x3690 JUMPI POP ADDRESS PUSH20 0xFFFFFFFFFFFFFFFFFFFFFFFFFFFFFFFFFFFFFFFF AND PUSH4 0x297027D5 DUP3 PUSH1 0x40 MLOAD DUP3 PUSH4 0xFFFFFFFF AND PUSH1 0xE0 SHL DUP2 MSTORE PUSH1 0x4 ADD PUSH2 0x364E SWAP2 SWAP1 PUSH2 0x439B JUMP JUMPDEST PUSH1 0x20 PUSH1 0x40 MLOAD DUP1 DUP4 SUB DUP2 DUP7 GAS STATICCALL ISZERO DUP1 ISZERO PUSH2 0x366B JUMPI RETURNDATASIZE PUSH1 0x0 DUP1 RETURNDATACOPY RETURNDATASIZE PUSH1 0x0 REVERT JUMPDEST POP POP POP POP PUSH1 0x40 MLOAD RETURNDATASIZE PUSH1 0x1F NOT PUSH1 0x1F DUP3 ADD AND DUP3 ADD DUP1 PUSH1 0x40 MSTORE POP DUP2 ADD SWAP1 PUSH2 0x368F SWAP2 SWAP1 PUSH2 0x47C8 JUMP JUMPDEST JUMPDEST PUSH2 0x36CF JUMPI PUSH1 0x40 MLOAD PUSH32 0x8C379A000000000000000000000000000000000000000000000000000000000 DUP2 MSTORE PUSH1 0x4 ADD PUSH2 0x36C6 SWAP1 PUSH2 0x4902 JUMP JUMPDEST PUSH1 0x40 MLOAD DUP1 SWAP2 SUB SWAP1 REVERT JUMPDEST DUP2 PUSH1 0x0 PUSH20 0xFFFFFFFFFFFFFFFFFFFFFFFFFFFFFFFFFFFFFFFF AND PUSH1 0x8 PUSH1 0x0 DUP4 PUSH20 0xFFFFFFFFFFFFFFFFFFFFFFFFFFFFFFFFFFFFFFFF AND PUSH20 0xFFFFFFFFFFFFFFFFFFFFFFFFFFFFFFFFFFFFFFFF AND DUP2 MSTORE PUSH1 0x20 ADD SWAP1 DUP2 MSTORE PUSH1 0x20 ADD PUSH1 0x0 KECCAK256 PUSH1 0x0 ADD PUSH1 0x0 SWAP1 SLOAD SWAP1 PUSH2 0x100 EXP SWAP1 DIV PUSH20 0xFFFFFFFFFFFFFFFFFFFFFFFFFFFFFFFFFFFFFFFF AND PUSH20 0xFFFFFFFFFFFFFFFFFFFFFFFFFFFFFFFFFFFFFFFF AND EQ ISZERO PUSH2 0x37A2 JUMPI PUSH1 0x40 MLOAD PUSH32 0x8C379A000000000000000000000000000000000000000000000000000000000 DUP2 MSTORE PUSH1 0x4 ADD PUSH2 0x3799 SWAP1 PUSH2 0x4656 JUMP JUMPDEST PUSH1 0x40 MLOAD DUP1 SWAP2 SUB SWAP1 REVERT JUMPDEST PUSH2 0x37AE DUP5 DUP5 PUSH1 0x0 PUSH2 0x324A JUMP JUMPDEST POP POP POP POP JUMP JUMPDEST DUP2 PUSH1 0x1 PUSH1 0x0 SWAP1 SLOAD SWAP1 PUSH2 0x100 EXP SWAP1 DIV PUSH20 0xFFFFFFFFFFFFFFFFFFFFFFFFFFFFFFFFFFFFFFFF AND PUSH20 0xFFFFFFFFFFFFFFFFFFFFFFFFFFFFFFFFFFFFFFFF AND DUP2 PUSH20 0xFFFFFFFFFFFFFFFFFFFFFFFFFFFFFFFFFFFFFFFF AND EQ DUP1 PUSH2 0x3887 JUMPI POP ADDRESS PUSH20 0xFFFFFFFFFFFFFFFFFFFFFFFFFFFFFFFFFFFFFFFF AND PUSH4 0x297027D5 DUP3 PUSH1 0x40 MLOAD DUP3 PUSH4 0xFFFFFFFF AND PUSH1 0xE0 SHL DUP2 MSTORE PUSH1 0x4 ADD PUSH2 0x3845 SWAP2 SWAP1 PUSH2 0x439B JUMP JUMPDEST PUSH1 0x20 PUSH1 0x40 MLOAD DUP1 DUP4 SUB DUP2 DUP7 GAS STATICCALL ISZERO DUP1 ISZERO PUSH2 0x3862 JUMPI RETURNDATASIZE PUSH1 0x0 DUP1 RETURNDATACOPY RETURNDATASIZE PUSH1 0x0 REVERT JUMPDEST POP POP POP POP PUSH1 0x40 MLOAD RETURNDATASIZE PUSH1 0x1F NOT PUSH1 0x1F DUP3 ADD AND DUP3 ADD DUP1 PUSH1 0x40 MSTORE POP DUP2 ADD SWAP1 PUSH2 0x3886 SWAP2 SWAP1 PUSH2 0x47C8 JUMP JUMPDEST JUMPDEST PUSH2 0x38C6 JUMPI PUSH1 0x40 MLOAD PUSH32 0x8C379A000000000000000000000000000000000000000000000000000000000 DUP2 MSTORE PUSH1 0x4 ADD PUSH2 0x38BD SWAP1 PUSH2 0x4902 JUMP JUMPDEST PUSH1 0x40 MLOAD DUP1 SWAP2 SUB SWAP1 REVERT JUMPDEST DUP2 PUSH1 0x0 PUSH20 0xFFFFFFFFFFFFFFFFFFFFFFFFFFFFFFFFFFFFFFFF AND PUSH1 0x8 PUSH1 0x0 DUP4 PUSH20 0xFFFFFFFFFFFFFFFFFFFFFFFFFFFFFFFFFFFFFFFF AND PUSH20 0xFFFFFFFFFFFFFFFFFFFFFFFFFFFFFFFFFFFFFFFF AND DUP2 MSTORE PUSH1 0x20 ADD SWAP1 DUP2 MSTORE PUSH1 0x20 ADD PUSH1 0x0 KECCAK256 PUSH1 0x0 ADD PUSH1 0x0 SWAP1 SLOAD SWAP1 PUSH2 0x100 EXP SWAP1 DIV PUSH20 0xFFFFFFFFFFFFFFFFFFFFFFFFFFFFFFFFFFFFFFFF AND PUSH20 0xFFFFFFFFFFFFFFFFFFFFFFFFFFFFFFFFFFFFFFFF AND EQ ISZERO PUSH2 0x3999 JUMPI PUSH1 0x40 MLOAD PUSH32 0x8C379A000000000000000000000000000000000000000000000000000000000 DUP2 MSTORE PUSH1 0x4 ADD PUSH2 0x3990 SWAP1 PUSH2 0x4656 JUMP JUMPDEST PUSH1 0x40 MLOAD DUP1 SWAP2 SUB SWAP1 REVERT JUMPDEST PUSH2 0x39A5 DUP5 DUP5 PUSH1 0x1 PUSH2 0x324A JUMP JUMPDEST POP POP POP POP JUMP JUMPDEST PUSH1 0x40 MLOAD DUP1 PUSH1 0x60 ADD PUSH1 0x40 MSTORE DUP1 PUSH1 0x60 DUP2 MSTORE PUSH1 0x20 ADD PUSH1 0x0 DUP2 MSTORE PUSH1 0x20 ADD PUSH1 0x0 ISZERO ISZERO DUP2 MSTORE POP SWAP1 JUMP JUMPDEST DUP3 DUP1 SLOAD DUP3 DUP3 SSTORE SWAP1 PUSH1 0x0 MSTORE PUSH1 0x20 PUSH1 0x0 KECCAK256 SWAP1 DUP2 ADD SWAP3 DUP3 ISZERO PUSH2 0x3A47 JUMPI SWAP2 PUSH1 0x20 MUL DUP3 ADD JUMPDEST DUP3 DUP2 GT ISZERO PUSH2 0x3A46 JUMPI DUP3 MLOAD DUP3 PUSH1 0x0 PUSH2 0x100 EXP DUP2 SLOAD DUP2 PUSH20 0xFFFFFFFFFFFFFFFFFFFFFFFFFFFFFFFFFFFFFFFF MUL NOT AND SWAP1 DUP4 PUSH20 0xFFFFFFFFFFFFFFFFFFFFFFFFFFFFFFFFFFFFFFFF AND MUL OR SWAP1 SSTORE POP SWAP2 PUSH1 0x20 ADD SWAP2 SWAP1 PUSH1 0x1 ADD SWAP1 PUSH2 0x39EE JUMP JUMPDEST JUMPDEST POP SWAP1 POP PUSH2 0x3A54 SWAP2 SWAP1 PUSH2 0x3B95 JUMP JUMPDEST POP SWAP1 JUMP JUMPDEST PUSH1 0x40 MLOAD DUP1 PUSH1 0xC0 ADD PUSH1 0x40 MSTORE DUP1 PUSH1 0x0 PUSH20 0xFFFFFFFFFFFFFFFFFFFFFFFFFFFFFFFFFFFFFFFF AND DUP2 MSTORE PUSH1 0x20 ADD PUSH1 0x60 DUP2 MSTORE PUSH1 0x20 ADD PUSH1 0x60 DUP2 MSTORE PUSH1 0x20 ADD PUSH1 0x60 DUP2 MSTORE PUSH1 0x20 ADD PUSH1 0x0 ISZERO ISZERO DUP2 MSTORE PUSH1 0x20 ADD PUSH2 0x3AA6 PUSH2 0x3BB2 JUMP JUMPDEST DUP2 MSTORE POP SWAP1 JUMP JUMPDEST PUSH1 0x40 MLOAD DUP1 PUSH1 0x60 ADD PUSH1 0x40 MSTORE DUP1 PUSH1 0x60 DUP2 MSTORE PUSH1 0x20 ADD PUSH1 0x0 DUP2 MSTORE PUSH1 0x20 ADD PUSH1 0x0 ISZERO ISZERO DUP2 MSTORE POP SWAP1 JUMP JUMPDEST POP DUP1 SLOAD PUSH2 0x3ADB SWAP1 PUSH2 0x45C7 JUMP JUMPDEST PUSH1 0x0 DUP3 SSTORE DUP1 PUSH1 0x1F LT PUSH2 0x3AED JUMPI POP PUSH2 0x3B0C JUMP JUMPDEST PUSH1 0x1F ADD PUSH1 0x20 SWAP1 DIV SWAP1 PUSH1 0x0 MSTORE PUSH1 0x20 PUSH1 0x0 KECCAK256 SWAP1 DUP2 ADD SWAP1 PUSH2 0x3B0B SWAP2 SWAP1 PUSH2 0x3B95 JUMP JUMPDEST JUMPDEST POP JUMP JUMPDEST DUP3 DUP1 SLOAD PUSH2 0x3B1B SWAP1 PUSH2 0x45C7 JUMP JUMPDEST SWAP1 PUSH1 0x0 MSTORE PUSH1 0x20 PUSH1 0x0 KECCAK256 SWAP1 PUSH1 0x1F ADD PUSH1 0x20 SWAP1 DIV DUP2 ADD SWAP3 DUP3 PUSH2 0x3B3D JUMPI PUSH1 0x0 DUP6 SSTORE PUSH2 0x3B84 JUMP JUMPDEST DUP3 PUSH1 0x1F LT PUSH2 0x3B56 JUMPI DUP1 MLOAD PUSH1 0xFF NOT AND DUP4 DUP1 ADD OR DUP6 SSTORE PUSH2 0x3B84 JUMP JUMPDEST DUP3 DUP1 ADD PUSH1 0x1 ADD DUP6 SSTORE DUP3 ISZERO PUSH2 0x3B84 JUMPI SWAP2 DUP3 ADD JUMPDEST DUP3 DUP2 GT ISZERO PUSH2 0x3B83 JUMPI DUP3 MLOAD DUP3 SSTORE SWAP2 PUSH1 0x20 ADD SWAP2 SWAP1 PUSH1 0x1 ADD SWAP1 PUSH2 0x3B68 JUMP JUMPDEST JUMPDEST POP SWAP1 POP PUSH2 0x3B91 SWAP2 SWAP1 PUSH2 0x3B95 JUMP JUMPDEST POP SWAP1 JUMP JUMPDEST JUMPDEST DUP1 DUP3 GT ISZERO PUSH2 0x3BAE JUMPI PUSH1 0x0 DUP2 PUSH1 0x0 SWAP1 SSTORE POP PUSH1 0x1 ADD PUSH2 0x3B96 JUMP JUMPDEST POP SWAP1 JUMP JUMPDEST PUSH1 0x40 MLOAD DUP1 PUSH1 0x80 ADD PUSH1 0x40 MSTORE DUP1 PUSH1 0x0 ISZERO ISZERO DUP2 MSTORE PUSH1 0x20 ADD PUSH1 0x0 ISZERO ISZERO DUP2 MSTORE PUSH1 0x20 ADD PUSH1 0x0 ISZERO ISZERO DUP2 MSTORE PUSH1 0x20 ADD PUSH1 0x0 ISZERO ISZERO DUP2 MSTORE POP SWAP1 JUMP JUMPDEST PUSH1 0x0 PUSH1 0x40 MLOAD SWAP1 POP SWAP1 JUMP JUMPDEST PUSH1 0x0 DUP1 REVERT JUMPDEST PUSH1 0x0 DUP1 REVERT JUMPDEST PUSH1 0x0 PUSH20 0xFFFFFFFFFFFFFFFFFFFFFFFFFFFFFFFFFFFFFFFF DUP3 AND SWAP1 POP SWAP2 SWAP1 POP JUMP JUMPDEST PUSH1 0x0 PUSH2 0x3C21 DUP3 PUSH2 0x3BF6 JUMP JUMPDEST SWAP1 POP SWAP2 SWAP1 POP JUMP JUMPDEST PUSH2 0x3C31 DUP2 PUSH2 0x3C16 JUMP JUMPDEST DUP2 EQ PUSH2 0x3C3C JUMPI PUSH1 0x0 DUP1 REVERT JUMPDEST POP JUMP JUMPDEST PUSH1 0x0 DUP2 CALLDATALOAD SWAP1 POP PUSH2 0x3C4E DUP2 PUSH2 0x3C28 JUMP JUMPDEST SWAP3 SWAP2 POP POP JUMP JUMPDEST PUSH1 0x0 PUSH1 0x20 DUP3 DUP5 SUB SLT ISZERO PUSH2 0x3C6A JUMPI PUSH2 0x3C69 PUSH2 0x3BEC JUMP JUMPDEST JUMPDEST PUSH1 0x0 PUSH2 0x3C78 DUP5 DUP3 DUP6 ADD PUSH2 0x3C3F JUMP JUMPDEST SWAP2 POP POP SWAP3 SWAP2 POP POP JUMP JUMPDEST PUSH1 0x0 DUP2 ISZERO ISZERO SWAP1 POP SWAP2 SWAP1 POP JUMP JUMPDEST PUSH2 0x3C96 DUP2 PUSH2 0x3C81 JUMP JUMPDEST DUP3 MSTORE POP POP JUMP JUMPDEST PUSH1 0x0 PUSH1 0x20 DUP3 ADD SWAP1 POP PUSH2 0x3CB1 PUSH1 0x0 DUP4 ADD DUP5 PUSH2 0x3C8D JUMP JUMPDEST SWAP3 SWAP2 POP POP JUMP JUMPDEST PUSH1 0x0 DUP1 REVERT JUMPDEST PUSH1 0x0 PUSH1 0x1F NOT PUSH1 0x1F DUP4 ADD AND SWAP1 POP SWAP2 SWAP1 POP JUMP JUMPDEST PUSH32 0x4E487B7100000000000000000000000000000000000000000000000000000000 PUSH1 0x0 MSTORE PUSH1 0x41 PUSH1 0x4 MSTORE PUSH1 0x24 PUSH1 0x0 REVERT JUMPDEST PUSH2 0x3D05 DUP3 PUSH2 0x3CBC JUMP JUMPDEST DUP2 ADD DUP2 DUP2 LT PUSH8 0xFFFFFFFFFFFFFFFF DUP3 GT OR ISZERO PUSH2 0x3D24 JUMPI PUSH2 0x3D23 PUSH2 0x3CCD JUMP JUMPDEST JUMPDEST DUP1 PUSH1 0x40 MSTORE POP POP POP JUMP JUMPDEST PUSH1 0x0 PUSH2 0x3D37 PUSH2 0x3BE2 JUMP JUMPDEST SWAP1 POP PUSH2 0x3D43 DUP3 DUP3 PUSH2 0x3CFC JUMP JUMPDEST SWAP2 SWAP1 POP JUMP JUMPDEST PUSH1 0x0 PUSH8 0xFFFFFFFFFFFFFFFF DUP3 GT ISZERO PUSH2 0x3D63 JUMPI PUSH2 0x3D62 PUSH2 0x3CCD JUMP JUMPDEST JUMPDEST PUSH1 0x20 DUP3 MUL SWAP1 POP PUSH1 0x20 DUP2 ADD SWAP1 POP SWAP2 SWAP1 POP JUMP JUMPDEST PUSH1 0x0 DUP1 REVERT JUMPDEST PUSH1 0x0 PUSH2 0x3D8C PUSH2 0x3D87 DUP5 PUSH2 0x3D48 JUMP JUMPDEST PUSH2 0x3D2D JUMP JUMPDEST SWAP1 POP DUP1 DUP4 DUP3 MSTORE PUSH1 0x20 DUP3 ADD SWAP1 POP PUSH1 0x20 DUP5 MUL DUP4 ADD DUP6 DUP2 GT ISZERO PUSH2 0x3DAF JUMPI PUSH2 0x3DAE PUSH2 0x3D74 JUMP JUMPDEST JUMPDEST DUP4 JUMPDEST DUP2 DUP2 LT ISZERO PUSH2 0x3DD8 JUMPI DUP1 PUSH2 0x3DC4 DUP9 DUP3 PUSH2 0x3C3F JUMP JUMPDEST DUP5 MSTORE PUSH1 0x20 DUP5 ADD SWAP4 POP POP PUSH1 0x20 DUP2 ADD SWAP1 POP PUSH2 0x3DB1 JUMP JUMPDEST POP POP POP SWAP4 SWAP3 POP POP POP JUMP JUMPDEST PUSH1 0x0 DUP3 PUSH1 0x1F DUP4 ADD SLT PUSH2 0x3DF7 JUMPI PUSH2 0x3DF6 PUSH2 0x3CB7 JUMP JUMPDEST JUMPDEST DUP2 CALLDATALOAD PUSH2 0x3E07 DUP5 DUP3 PUSH1 0x20 DUP7 ADD PUSH2 0x3D79 JUMP JUMPDEST SWAP2 POP POP SWAP3 SWAP2 POP POP JUMP JUMPDEST PUSH1 0x0 PUSH1 0x20 DUP3 DUP5 SUB SLT ISZERO PUSH2 0x3E26 JUMPI PUSH2 0x3E25 PUSH2 0x3BEC JUMP JUMPDEST JUMPDEST PUSH1 0x0 DUP3 ADD CALLDATALOAD PUSH8 0xFFFFFFFFFFFFFFFF DUP2 GT ISZERO PUSH2 0x3E44 JUMPI PUSH2 0x3E43 PUSH2 0x3BF1 JUMP JUMPDEST JUMPDEST PUSH2 0x3E50 DUP5 DUP3 DUP6 ADD PUSH2 0x3DE2 JUMP JUMPDEST SWAP2 POP POP SWAP3 SWAP2 POP POP JUMP JUMPDEST PUSH1 0x0 DUP2 MLOAD SWAP1 POP SWAP2 SWAP1 POP JUMP JUMPDEST PUSH1 0x0 DUP3 DUP3 MSTORE PUSH1 0x20 DUP3 ADD SWAP1 POP SWAP3 SWAP2 POP POP JUMP JUMPDEST PUSH1 0x0 DUP2 SWAP1 POP PUSH1 0x20 DUP3 ADD SWAP1 POP SWAP2 SWAP1 POP JUMP JUMPDEST PUSH2 0x3E8E DUP2 PUSH2 0x3C16 JUMP JUMPDEST DUP3 MSTORE POP POP JUMP JUMPDEST PUSH1 0x0 PUSH2 0x3EA0 DUP4 DUP4 PUSH2 0x3E85 JUMP JUMPDEST PUSH1 0x20 DUP4 ADD SWAP1 POP SWAP3 SWAP2 POP POP JUMP JUMPDEST PUSH1 0x0 PUSH1 0x20 DUP3 ADD SWAP1 POP SWAP2 SWAP1 POP JUMP JUMPDEST PUSH1 0x0 PUSH2 0x3EC4 DUP3 PUSH2 0x3E59 JUMP JUMPDEST PUSH2 0x3ECE DUP2 DUP6 PUSH2 0x3E64 JUMP JUMPDEST SWAP4 POP PUSH2 0x3ED9 DUP4 PUSH2 0x3E75 JUMP JUMPDEST DUP1 PUSH1 0x0 JUMPDEST DUP4 DUP2 LT ISZERO PUSH2 0x3F0A JUMPI DUP2 MLOAD PUSH2 0x3EF1 DUP9 DUP3 PUSH2 0x3E94 JUMP JUMPDEST SWAP8 POP PUSH2 0x3EFC DUP4 PUSH2 0x3EAC JUMP JUMPDEST SWAP3 POP POP PUSH1 0x1 DUP2 ADD SWAP1 POP PUSH2 0x3EDD JUMP JUMPDEST POP DUP6 SWAP4 POP POP POP POP SWAP3 SWAP2 POP POP JUMP JUMPDEST PUSH1 0x0 DUP2 SWAP1 POP SWAP2 SWAP1 POP JUMP JUMPDEST PUSH2 0x3F2A DUP2 PUSH2 0x3F17 JUMP JUMPDEST DUP3 MSTORE POP POP JUMP JUMPDEST PUSH2 0x3F39 DUP2 PUSH2 0x3C81 JUMP JUMPDEST DUP3 MSTORE POP POP JUMP JUMPDEST PUSH1 0x0 PUSH1 0x60 DUP4 ADD PUSH1 0x0 DUP4 ADD MLOAD DUP5 DUP3 SUB PUSH1 0x0 DUP7 ADD MSTORE PUSH2 0x3F5C DUP3 DUP3 PUSH2 0x3EB9 JUMP JUMPDEST SWAP2 POP POP PUSH1 0x20 DUP4 ADD MLOAD PUSH2 0x3F71 PUSH1 0x20 DUP7 ADD DUP3 PUSH2 0x3F21 JUMP JUMPDEST POP PUSH1 0x40 DUP4 ADD MLOAD PUSH2 0x3F84 PUSH1 0x40 DUP7 ADD DUP3 PUSH2 0x3F30 JUMP JUMPDEST POP DUP1 SWAP2 POP POP SWAP3 SWAP2 POP POP JUMP JUMPDEST PUSH1 0x0 PUSH1 0x20 DUP3 ADD SWAP1 POP DUP2 DUP2 SUB PUSH1 0x0 DUP4 ADD MSTORE PUSH2 0x3FA9 DUP2 DUP5 PUSH2 0x3F3F JUMP JUMPDEST SWAP1 POP SWAP3 SWAP2 POP POP JUMP JUMPDEST PUSH2 0x3FBA DUP2 PUSH2 0x3F17 JUMP JUMPDEST DUP3 MSTORE POP POP JUMP JUMPDEST PUSH1 0x0 PUSH1 0x20 DUP3 ADD SWAP1 POP PUSH2 0x3FD5 PUSH1 0x0 DUP4 ADD DUP5 PUSH2 0x3FB1 JUMP JUMPDEST SWAP3 SWAP2 POP POP JUMP JUMPDEST PUSH1 0x0 DUP1 REVERT JUMPDEST PUSH1 0x0 DUP1 REVERT JUMPDEST PUSH2 0x3FEE DUP2 PUSH2 0x3F17 JUMP JUMPDEST DUP2 EQ PUSH2 0x3FF9 JUMPI PUSH1 0x0 DUP1 REVERT JUMPDEST POP JUMP JUMPDEST PUSH1 0x0 DUP2 CALLDATALOAD SWAP1 POP PUSH2 0x400B DUP2 PUSH2 0x3FE5 JUMP JUMPDEST SWAP3 SWAP2 POP POP JUMP JUMPDEST PUSH2 0x401A DUP2 PUSH2 0x3C81 JUMP JUMPDEST DUP2 EQ PUSH2 0x4025 JUMPI PUSH1 0x0 DUP1 REVERT JUMPDEST POP JUMP JUMPDEST PUSH1 0x0 DUP2 CALLDATALOAD SWAP1 POP PUSH2 0x4037 DUP2 PUSH2 0x4011 JUMP JUMPDEST SWAP3 SWAP2 POP POP JUMP JUMPDEST PUSH1 0x0 PUSH1 0x60 DUP3 DUP5 SUB SLT ISZERO PUSH2 0x4053 JUMPI PUSH2 0x4052 PUSH2 0x3FDB JUMP JUMPDEST JUMPDEST PUSH2 0x405D PUSH1 0x60 PUSH2 0x3D2D JUMP JUMPDEST SWAP1 POP PUSH1 0x0 DUP3 ADD CALLDATALOAD PUSH8 0xFFFFFFFFFFFFFFFF DUP2 GT ISZERO PUSH2 0x407D JUMPI PUSH2 0x407C PUSH2 0x3FE0 JUMP JUMPDEST JUMPDEST PUSH2 0x4089 DUP5 DUP3 DUP6 ADD PUSH2 0x3DE2 JUMP JUMPDEST PUSH1 0x0 DUP4 ADD MSTORE POP PUSH1 0x20 PUSH2 0x409D DUP5 DUP3 DUP6 ADD PUSH2 0x3FFC JUMP JUMPDEST PUSH1 0x20 DUP4 ADD MSTORE POP PUSH1 0x40 PUSH2 0x40B1 DUP5 DUP3 DUP6 ADD PUSH2 0x4028 JUMP JUMPDEST PUSH1 0x40 DUP4 ADD MSTORE POP SWAP3 SWAP2 POP POP JUMP JUMPDEST PUSH1 0x0 DUP1 PUSH1 0x40 DUP4 DUP6 SUB SLT ISZERO PUSH2 0x40D4 JUMPI PUSH2 0x40D3 PUSH2 0x3BEC JUMP JUMPDEST JUMPDEST PUSH1 0x0 PUSH2 0x40E2 DUP6 DUP3 DUP7 ADD PUSH2 0x3C3F JUMP JUMPDEST SWAP3 POP POP PUSH1 0x20 DUP4 ADD CALLDATALOAD PUSH8 0xFFFFFFFFFFFFFFFF DUP2 GT ISZERO PUSH2 0x4103 JUMPI PUSH2 0x4102 PUSH2 0x3BF1 JUMP JUMPDEST JUMPDEST PUSH2 0x410F DUP6 DUP3 DUP7 ADD PUSH2 0x403D JUMP JUMPDEST SWAP2 POP POP SWAP3 POP SWAP3 SWAP1 POP JUMP JUMPDEST PUSH1 0x0 DUP2 MLOAD SWAP1 POP SWAP2 SWAP1 POP JUMP JUMPDEST PUSH1 0x0 DUP3 DUP3 MSTORE PUSH1 0x20 DUP3 ADD SWAP1 POP SWAP3 SWAP2 POP POP JUMP JUMPDEST PUSH1 0x0 JUMPDEST DUP4 DUP2 LT ISZERO PUSH2 0x4153 JUMPI DUP1 DUP3 ADD MLOAD DUP2 DUP5 ADD MSTORE PUSH1 0x20 DUP2 ADD SWAP1 POP PUSH2 0x4138 JUMP JUMPDEST DUP4 DUP2 GT ISZERO PUSH2 0x4162 JUMPI PUSH1 0x0 DUP5 DUP5 ADD MSTORE JUMPDEST POP POP POP POP JUMP JUMPDEST PUSH1 0x0 PUSH2 0x4173 DUP3 PUSH2 0x4119 JUMP JUMPDEST PUSH2 0x417D DUP2 DUP6 PUSH2 0x4124 JUMP JUMPDEST SWAP4 POP PUSH2 0x418D DUP2 DUP6 PUSH1 0x20 DUP7 ADD PUSH2 0x4135 JUMP JUMPDEST PUSH2 0x4196 DUP2 PUSH2 0x3CBC JUMP JUMPDEST DUP5 ADD SWAP2 POP POP SWAP3 SWAP2 POP POP JUMP JUMPDEST PUSH1 0x80 DUP3 ADD PUSH1 0x0 DUP3 ADD MLOAD PUSH2 0x41B7 PUSH1 0x0 DUP6 ADD DUP3 PUSH2 0x3F30 JUMP JUMPDEST POP PUSH1 0x20 DUP3 ADD MLOAD PUSH2 0x41CA PUSH1 0x20 DUP6 ADD DUP3 PUSH2 0x3F30 JUMP JUMPDEST POP PUSH1 0x40 DUP3 ADD MLOAD PUSH2 0x41DD PUSH1 0x40 DUP6 ADD DUP3 PUSH2 0x3F30 JUMP JUMPDEST POP PUSH1 0x60 DUP3 ADD MLOAD PUSH2 0x41F0 PUSH1 0x60 DUP6 ADD DUP3 PUSH2 0x3F30 JUMP JUMPDEST POP POP POP POP JUMP JUMPDEST PUSH1 0x0 PUSH2 0x120 DUP4 ADD PUSH1 0x0 DUP4 ADD MLOAD PUSH2 0x420F PUSH1 0x0 DUP7 ADD DUP3 PUSH2 0x3E85 JUMP JUMPDEST POP PUSH1 0x20 DUP4 ADD MLOAD DUP5 DUP3 SUB PUSH1 0x20 DUP7 ADD MSTORE PUSH2 0x4227 DUP3 DUP3 PUSH2 0x4168 JUMP JUMPDEST SWAP2 POP POP PUSH1 0x40 DUP4 ADD MLOAD DUP5 DUP3 SUB PUSH1 0x40 DUP7 ADD MSTORE PUSH2 0x4241 DUP3 DUP3 PUSH2 0x4168 JUMP JUMPDEST SWAP2 POP POP PUSH1 0x60 DUP4 ADD MLOAD DUP5 DUP3 SUB PUSH1 0x60 DUP7 ADD MSTORE PUSH2 0x425B DUP3 DUP3 PUSH2 0x4168 JUMP JUMPDEST SWAP2 POP POP PUSH1 0x80 DUP4 ADD MLOAD PUSH2 0x4270 PUSH1 0x80 DUP7 ADD DUP3 PUSH2 0x3F30 JUMP JUMPDEST POP PUSH1 0xA0 DUP4 ADD MLOAD PUSH2 0x4283 PUSH1 0xA0 DUP7 ADD DUP3 PUSH2 0x41A1 JUMP JUMPDEST POP DUP1 SWAP2 POP POP SWAP3 SWAP2 POP POP JUMP JUMPDEST PUSH1 0x0 PUSH1 0x20 DUP3 ADD SWAP1 POP DUP2 DUP2 SUB PUSH1 0x0 DUP4 ADD MSTORE PUSH2 0x42A8 DUP2 DUP5 PUSH2 0x41F6 JUMP JUMPDEST SWAP1 POP SWAP3 SWAP2 POP POP JUMP JUMPDEST PUSH1 0x0 PUSH1 0x60 DUP3 DUP5 SUB SLT ISZERO PUSH2 0x42C6 JUMPI PUSH2 0x42C5 PUSH2 0x3FDB JUMP JUMPDEST JUMPDEST PUSH2 0x42D0 PUSH1 0x60 PUSH2 0x3D2D JUMP JUMPDEST SWAP1 POP PUSH1 0x0 DUP3 ADD CALLDATALOAD PUSH8 0xFFFFFFFFFFFFFFFF DUP2 GT ISZERO PUSH2 0x42F0 JUMPI PUSH2 0x42EF PUSH2 0x3FE0 JUMP JUMPDEST JUMPDEST PUSH2 0x42FC DUP5 DUP3 DUP6 ADD PUSH2 0x3DE2 JUMP JUMPDEST PUSH1 0x0 DUP4 ADD MSTORE POP PUSH1 0x20 PUSH2 0x4310 DUP5 DUP3 DUP6 ADD PUSH2 0x3FFC JUMP JUMPDEST PUSH1 0x20 DUP4 ADD MSTORE POP PUSH1 0x40 PUSH2 0x4324 DUP5 DUP3 DUP6 ADD PUSH2 0x4028 JUMP JUMPDEST PUSH1 0x40 DUP4 ADD MSTORE POP SWAP3 SWAP2 POP POP JUMP JUMPDEST PUSH1 0x0 DUP1 PUSH1 0x40 DUP4 DUP6 SUB SLT ISZERO PUSH2 0x4347 JUMPI PUSH2 0x4346 PUSH2 0x3BEC JUMP JUMPDEST JUMPDEST PUSH1 0x0 PUSH2 0x4355 DUP6 DUP3 DUP7 ADD PUSH2 0x3C3F JUMP JUMPDEST SWAP3 POP POP PUSH1 0x20 DUP4 ADD CALLDATALOAD PUSH8 0xFFFFFFFFFFFFFFFF DUP2 GT ISZERO PUSH2 0x4376 JUMPI PUSH2 0x4375 PUSH2 0x3BF1 JUMP JUMPDEST JUMPDEST PUSH2 0x4382 DUP6 DUP3 DUP7 ADD PUSH2 0x42B0 JUMP JUMPDEST SWAP2 POP POP SWAP3 POP SWAP3 SWAP1 POP JUMP JUMPDEST PUSH2 0x4395 DUP2 PUSH2 0x3C16 JUMP JUMPDEST DUP3 MSTORE POP POP JUMP JUMPDEST PUSH1 0x0 PUSH1 0x20 DUP3 ADD SWAP1 POP PUSH2 0x43B0 PUSH1 0x0 DUP4 ADD DUP5 PUSH2 0x438C JUMP JUMPDEST SWAP3 SWAP2 POP POP JUMP JUMPDEST PUSH1 0x0 PUSH1 0x60 DUP4 ADD PUSH1 0x0 DUP4 ADD MLOAD DUP5 DUP3 SUB PUSH1 0x0 DUP7 ADD MSTORE PUSH2 0x43D3 DUP3 DUP3 PUSH2 0x3EB9 JUMP JUMPDEST SWAP2 POP POP PUSH1 0x20 DUP4 ADD MLOAD PUSH2 0x43E8 PUSH1 0x20 DUP7 ADD DUP3 PUSH2 0x3F21 JUMP JUMPDEST POP PUSH1 0x40 DUP4 ADD MLOAD PUSH2 0x43FB PUSH1 0x40 DUP7 ADD DUP3 PUSH2 0x3F30 JUMP JUMPDEST POP DUP1 SWAP2 POP POP SWAP3 SWAP2 POP POP JUMP JUMPDEST PUSH1 0x0 PUSH1 0x20 DUP3 ADD SWAP1 POP DUP2 DUP2 SUB PUSH1 0x0 DUP4 ADD MSTORE PUSH2 0x4420 DUP2 DUP5 PUSH2 0x43B6 JUMP JUMPDEST SWAP1 POP SWAP3 SWAP2 POP POP JUMP JUMPDEST PUSH1 0x0 DUP1 REVERT JUMPDEST PUSH1 0x0 PUSH8 0xFFFFFFFFFFFFFFFF DUP3 GT ISZERO PUSH2 0x4448 JUMPI PUSH2 0x4447 PUSH2 0x3CCD JUMP JUMPDEST JUMPDEST PUSH2 0x4451 DUP3 PUSH2 0x3CBC JUMP JUMPDEST SWAP1 POP PUSH1 0x20 DUP2 ADD SWAP1 POP SWAP2 SWAP1 POP JUMP JUMPDEST DUP3 DUP2 DUP4 CALLDATACOPY PUSH1 0x0 DUP4 DUP4 ADD MSTORE POP POP POP JUMP JUMPDEST PUSH1 0x0 PUSH2 0x4480 PUSH2 0x447B DUP5 PUSH2 0x442D JUMP JUMPDEST PUSH2 0x3D2D JUMP JUMPDEST SWAP1 POP DUP3 DUP2 MSTORE PUSH1 0x20 DUP2 ADD DUP5 DUP5 DUP5 ADD GT ISZERO PUSH2 0x449C JUMPI PUSH2 0x449B PUSH2 0x4428 JUMP JUMPDEST JUMPDEST PUSH2 0x44A7 DUP5 DUP3 DUP6 PUSH2 0x445E JUMP JUMPDEST POP SWAP4 SWAP3 POP POP POP JUMP JUMPDEST PUSH1 0x0 DUP3 PUSH1 0x1F DUP4 ADD SLT PUSH2 0x44C4 JUMPI PUSH2 0x44C3 PUSH2 0x3CB7 JUMP JUMPDEST JUMPDEST DUP2 CALLDATALOAD PUSH2 0x44D4 DUP5 DUP3 PUSH1 0x20 DUP7 ADD PUSH2 0x446D JUMP JUMPDEST SWAP2 POP POP SWAP3 SWAP2 POP POP JUMP JUMPDEST PUSH1 0x0 DUP1 PUSH1 0x0 DUP1 PUSH1 0x80 DUP6 DUP8 SUB SLT ISZERO PUSH2 0x44F7 JUMPI PUSH2 0x44F6 PUSH2 0x3BEC JUMP JUMPDEST JUMPDEST PUSH1 0x0 PUSH2 0x4505 DUP8 DUP3 DUP9 ADD PUSH2 0x3C3F JUMP JUMPDEST SWAP5 POP POP PUSH1 0x20 DUP6 ADD CALLDATALOAD PUSH8 0xFFFFFFFFFFFFFFFF DUP2 GT ISZERO PUSH2 0x4526 JUMPI PUSH2 0x4525 PUSH2 0x3BF1 JUMP JUMPDEST JUMPDEST PUSH2 0x4532 DUP8 DUP3 DUP9 ADD PUSH2 0x44AF JUMP JUMPDEST SWAP4 POP POP PUSH1 0x40 DUP6 ADD CALLDATALOAD PUSH8 0xFFFFFFFFFFFFFFFF DUP2 GT ISZERO PUSH2 0x4553 JUMPI PUSH2 0x4552 PUSH2 0x3BF1 JUMP JUMPDEST JUMPDEST PUSH2 0x455F DUP8 DUP3 DUP9 ADD PUSH2 0x44AF JUMP JUMPDEST SWAP3 POP POP PUSH1 0x60 DUP6 ADD CALLDATALOAD PUSH8 0xFFFFFFFFFFFFFFFF DUP2 GT ISZERO PUSH2 0x4580 JUMPI PUSH2 0x457F PUSH2 0x3BF1 JUMP JUMPDEST JUMPDEST PUSH2 0x458C DUP8 DUP3 DUP9 ADD PUSH2 0x44AF JUMP JUMPDEST SWAP2 POP POP SWAP3 SWAP6 SWAP2 SWAP5 POP SWAP3 POP JUMP JUMPDEST PUSH32 0x4E487B7100000000000000000000000000000000000000000000000000000000 PUSH1 0x0 MSTORE PUSH1 0x22 PUSH1 0x4 MSTORE PUSH1 0x24 PUSH1 0x0 REVERT JUMPDEST PUSH1 0x0 PUSH1 0x2 DUP3 DIV SWAP1 POP PUSH1 0x1 DUP3 AND DUP1 PUSH2 0x45DF JUMPI PUSH1 0x7F DUP3 AND SWAP2 POP JUMPDEST PUSH1 0x20 DUP3 LT DUP2 EQ ISZERO PUSH2 0x45F3 JUMPI PUSH2 0x45F2 PUSH2 0x4598 JUMP JUMPDEST JUMPDEST POP SWAP2 SWAP1 POP JUMP JUMPDEST PUSH1 0x0 DUP3 DUP3 MSTORE PUSH1 0x20 DUP3 ADD SWAP1 POP SWAP3 SWAP2 POP POP JUMP JUMPDEST PUSH32 0x4163636F756E7420646F65736E27742065786973740000000000000000000000 PUSH1 0x0 DUP3 ADD MSTORE POP JUMP JUMPDEST PUSH1 0x0 PUSH2 0x4640 PUSH1 0x15 DUP4 PUSH2 0x45F9 JUMP JUMPDEST SWAP2 POP PUSH2 0x464B DUP3 PUSH2 0x460A JUMP JUMPDEST PUSH1 0x20 DUP3 ADD SWAP1 POP SWAP2 SWAP1 POP JUMP JUMPDEST PUSH1 0x0 PUSH1 0x20 DUP3 ADD SWAP1 POP DUP2 DUP2 SUB PUSH1 0x0 DUP4 ADD MSTORE PUSH2 0x466F DUP2 PUSH2 0x4633 JUMP JUMPDEST SWAP1 POP SWAP2 SWAP1 POP JUMP JUMPDEST PUSH32 0x4E487B7100000000000000000000000000000000000000000000000000000000 PUSH1 0x0 MSTORE PUSH1 0x11 PUSH1 0x4 MSTORE PUSH1 0x24 PUSH1 0x0 REVERT JUMPDEST PUSH1 0x0 PUSH2 0x46B0 DUP3 PUSH2 0x3F17 JUMP JUMPDEST SWAP2 POP PUSH1 0x0 DUP3 EQ ISZERO PUSH2 0x46C4 JUMPI PUSH2 0x46C3 PUSH2 0x4676 JUMP JUMPDEST JUMPDEST PUSH1 0x1 DUP3 SUB SWAP1 POP SWAP2 SWAP1 POP JUMP JUMPDEST PUSH32 0x4E487B7100000000000000000000000000000000000000000000000000000000 PUSH1 0x0 MSTORE PUSH1 0x32 PUSH1 0x4 MSTORE PUSH1 0x24 PUSH1 0x0 REVERT JUMPDEST PUSH1 0x0 PUSH2 0x4709 DUP3 PUSH2 0x3F17 JUMP JUMPDEST SWAP2 POP PUSH32 0xFFFFFFFFFFFFFFFFFFFFFFFFFFFFFFFFFFFFFFFFFFFFFFFFFFFFFFFFFFFFFFFF DUP3 EQ ISZERO PUSH2 0x473C JUMPI PUSH2 0x473B PUSH2 0x4676 JUMP JUMPDEST JUMPDEST PUSH1 0x1 DUP3 ADD SWAP1 POP SWAP2 SWAP1 POP JUMP JUMPDEST PUSH32 0x55736572206E6F7420666F756E64210000000000000000000000000000000000 PUSH1 0x0 DUP3 ADD MSTORE POP JUMP JUMPDEST PUSH1 0x0 PUSH2 0x477D PUSH1 0xF DUP4 PUSH2 0x45F9 JUMP JUMPDEST SWAP2 POP PUSH2 0x4788 DUP3 PUSH2 0x4747 JUMP JUMPDEST PUSH1 0x20 DUP3 ADD SWAP1 POP SWAP2 SWAP1 POP JUMP JUMPDEST PUSH1 0x0 PUSH1 0x20 DUP3 ADD SWAP1 POP DUP2 DUP2 SUB PUSH1 0x0 DUP4 ADD MSTORE PUSH2 0x47AC DUP2 PUSH2 0x4770 JUMP JUMPDEST SWAP1 POP SWAP2 SWAP1 POP JUMP JUMPDEST PUSH1 0x0 DUP2 MLOAD SWAP1 POP PUSH2 0x47C2 DUP2 PUSH2 0x4011 JUMP JUMPDEST SWAP3 SWAP2 POP POP JUMP JUMPDEST PUSH1 0x0 PUSH1 0x20 DUP3 DUP5 SUB SLT ISZERO PUSH2 0x47DE JUMPI PUSH2 0x47DD PUSH2 0x3BEC JUMP JUMPDEST JUMPDEST PUSH1 0x0 PUSH2 0x47EC DUP5 DUP3 DUP6 ADD PUSH2 0x47B3 JUMP JUMPDEST SWAP2 POP POP SWAP3 SWAP2 POP POP JUMP JUMPDEST PUSH32 0x4163636F756E7420616C72656164792065786973747300000000000000000000 PUSH1 0x0 DUP3 ADD MSTORE POP JUMP JUMPDEST PUSH1 0x0 PUSH2 0x482B PUSH1 0x16 DUP4 PUSH2 0x45F9 JUMP JUMPDEST SWAP2 POP PUSH2 0x4836 DUP3 PUSH2 0x47F5 JUMP JUMPDEST PUSH1 0x20 DUP3 ADD SWAP1 POP SWAP2 SWAP1 POP JUMP JUMPDEST PUSH1 0x0 PUSH1 0x20 DUP3 ADD SWAP1 POP DUP2 DUP2 SUB PUSH1 0x0 DUP4 ADD MSTORE PUSH2 0x485A DUP2 PUSH2 0x481E JUMP JUMPDEST SWAP1 POP SWAP2 SWAP1 POP JUMP JUMPDEST PUSH32 0x4E487B7100000000000000000000000000000000000000000000000000000000 PUSH1 0x0 MSTORE PUSH1 0x21 PUSH1 0x4 MSTORE PUSH1 0x24 PUSH1 0x0 REVERT JUMPDEST PUSH32 0x4F6E6C79206F776E65722063616E2063616C6C20746869732066756E6374696F PUSH1 0x0 DUP3 ADD MSTORE PUSH32 0x6E2E000000000000000000000000000000000000000000000000000000000000 PUSH1 0x20 DUP3 ADD MSTORE POP JUMP JUMPDEST PUSH1 0x0 PUSH2 0x48EC PUSH1 0x22 DUP4 PUSH2 0x45F9 JUMP JUMPDEST SWAP2 POP PUSH2 0x48F7 DUP3 PUSH2 0x4890 JUMP JUMPDEST PUSH1 0x40 DUP3 ADD SWAP1 POP SWAP2 SWAP1 POP JUMP JUMPDEST PUSH1 0x0 PUSH1 0x20 DUP3 ADD SWAP1 POP DUP2 DUP2 SUB PUSH1 0x0 DUP4 ADD MSTORE PUSH2 0x491B DUP2 PUSH2 0x48DF JUMP JUMPDEST SWAP1 POP SWAP2 SWAP1 POP JUMP INVALID LOG2 PUSH5 0x6970667358 0x22 SLT KECCAK256 PUSH28 0x9A4410DB195C28B522133A3F386DF36C919CE952CC7606E054C36C3E 0xD3 CALLDATACOPY SSTORE PUSH5 0x736F6C6343 STOP ADDMOD 0xC STOP CALLER "
				},
				"gasEstimates": {
					"creation": {
						"codeDepositCost": "3755200",
						"executionCost": "infinite",
						"totalCost": "infinite"
					},
					"external": {
						"_testAccountManagement()": "infinite",
						"activateAccount(address)": "87153",
						"appointCouncil(address,(address[],uint256,bool))": "infinite",
						"appointLeaderBoard(address,(address[],uint256,bool))": "infinite",
						"burnAccount(address)": "infinite",
						"createAccount(address,string,string,string)": "infinite",
						"createCouncil(address[])": "infinite",
						"createLeaderBoard(address[])": "infinite",
						"deactivateAccount(address)": "78137",
						"getActiveMemberCount()": "2460",
						"getCouncil()": "infinite",
						"getLeaderBoard()": "infinite",
						"getUser(address)": "infinite",
						"hasCouncilMemberRole(address)": "infinite",
						"hasGuestRole(address)": "infinite",
						"hasLeaderRole(address)": "infinite",
						"hasMemberRole(address)": "infinite",
						"owner()": "2559",
						"userExists(address)": "infinite"
					},
					"internal": {
						"assignCouncilMember(address,address)": "infinite",
						"assignGuest(address,address)": "infinite",
						"assignLeader(address,address)": "infinite",
						"assignMember(address,address)": "infinite",
						"assignRole(address,address,enum AccountManagement.Role)": "infinite",
						"dismissCouncil(address)": "infinite",
						"dismissLeaderBoard(address)": "infinite",
						"hasRole(address,enum AccountManagement.Role)": "infinite",
						"removeCouncilMember(address,address)": "infinite",
						"removeGuest(address,address)": "infinite",
						"removeLeader(address,address)": "infinite",
						"removeMember(address,address)": "infinite",
						"removeRole(address,address,enum AccountManagement.Role)": "infinite"
					}
				},
				"methodIdentifiers": {
					"_testAccountManagement()": "95a26fa6",
					"activateAccount(address)": "82a62137",
					"appointCouncil(address,(address[],uint256,bool))": "8ad63c01",
					"appointLeaderBoard(address,(address[],uint256,bool))": "3d0a8a34",
					"burnAccount(address)": "d3a5059a",
					"createAccount(address,string,string,string)": "dee94b4a",
					"createCouncil(address[])": "d41450b6",
					"createLeaderBoard(address[])": "20e05d9c",
					"deactivateAccount(address)": "130cb5f0",
					"getActiveMemberCount()": "22faa41f",
					"getCouncil()": "b1813695",
					"getLeaderBoard()": "c29d72bc",
					"getUser(address)": "6f77926b",
					"hasCouncilMemberRole(address)": "fa4d7aae",
					"hasGuestRole(address)": "e8621e59",
					"hasLeaderRole(address)": "297027d5",
					"hasMemberRole(address)": "056909b7",
					"owner()": "8da5cb5b",
					"userExists(address)": "0e666e49"
				}
			},
			"storageLayout": {
				"storage": [
					{
						"astId": 47,
						"contract": "src/contracts/AccountManagement.sol:AccountManagement",
						"label": "activeMemberCount",
						"offset": 0,
						"slot": "0",
						"type": "t_uint256"
					},
					{
						"astId": 49,
						"contract": "src/contracts/AccountManagement.sol:AccountManagement",
						"label": "owner",
						"offset": 0,
						"slot": "1",
						"type": "t_address"
					},
					{
						"astId": 52,
						"contract": "src/contracts/AccountManagement.sol:AccountManagement",
						"label": "leaderBoard",
						"offset": 0,
						"slot": "2",
						"type": "t_struct(LeaderBoard)37_storage"
					},
					{
						"astId": 55,
						"contract": "src/contracts/AccountManagement.sol:AccountManagement",
						"label": "council",
						"offset": 0,
						"slot": "5",
						"type": "t_struct(Council)45_storage"
					},
					{
						"astId": 60,
						"contract": "src/contracts/AccountManagement.sol:AccountManagement",
						"label": "users",
						"offset": 0,
						"slot": "8",
						"type": "t_mapping(t_address,t_struct(User)20_storage)"
					},
					{
						"astId": 64,
						"contract": "src/contracts/AccountManagement.sol:AccountManagement",
						"label": "activeMembers",
						"offset": 0,
						"slot": "9",
						"type": "t_mapping(t_address,t_bool)"
					}
				],
				"types": {
					"t_address": {
						"encoding": "inplace",
						"label": "address",
						"numberOfBytes": "20"
					},
					"t_array(t_address)dyn_storage": {
						"base": "t_address",
						"encoding": "dynamic_array",
						"label": "address[]",
						"numberOfBytes": "32"
					},
					"t_bool": {
						"encoding": "inplace",
						"label": "bool",
						"numberOfBytes": "1"
					},
					"t_mapping(t_address,t_bool)": {
						"encoding": "mapping",
						"key": "t_address",
						"label": "mapping(address => bool)",
						"numberOfBytes": "32",
						"value": "t_bool"
					},
					"t_mapping(t_address,t_struct(User)20_storage)": {
						"encoding": "mapping",
						"key": "t_address",
						"label": "mapping(address => struct AccountManagement.User)",
						"numberOfBytes": "32",
						"value": "t_struct(User)20_storage"
					},
					"t_string_storage": {
						"encoding": "bytes",
						"label": "string",
						"numberOfBytes": "32"
					},
					"t_struct(Council)45_storage": {
						"encoding": "inplace",
						"label": "struct AccountManagement.Council",
						"members": [
							{
								"astId": 40,
								"contract": "src/contracts/AccountManagement.sol:AccountManagement",
								"label": "members",
								"offset": 0,
								"slot": "0",
								"type": "t_array(t_address)dyn_storage"
							},
							{
								"astId": 42,
								"contract": "src/contracts/AccountManagement.sol:AccountManagement",
								"label": "electionTime",
								"offset": 0,
								"slot": "1",
								"type": "t_uint256"
							},
							{
								"astId": 44,
								"contract": "src/contracts/AccountManagement.sol:AccountManagement",
								"label": "approved",
								"offset": 0,
								"slot": "2",
								"type": "t_bool"
							}
						],
						"numberOfBytes": "96"
					},
					"t_struct(LeaderBoard)37_storage": {
						"encoding": "inplace",
						"label": "struct AccountManagement.LeaderBoard",
						"members": [
							{
								"astId": 32,
								"contract": "src/contracts/AccountManagement.sol:AccountManagement",
								"label": "members",
								"offset": 0,
								"slot": "0",
								"type": "t_array(t_address)dyn_storage"
							},
							{
								"astId": 34,
								"contract": "src/contracts/AccountManagement.sol:AccountManagement",
								"label": "electionTime",
								"offset": 0,
								"slot": "1",
								"type": "t_uint256"
							},
							{
								"astId": 36,
								"contract": "src/contracts/AccountManagement.sol:AccountManagement",
								"label": "approved",
								"offset": 0,
								"slot": "2",
								"type": "t_bool"
							}
						],
						"numberOfBytes": "96"
					},
					"t_struct(RoleMap)29_storage": {
						"encoding": "inplace",
						"label": "struct AccountManagement.RoleMap",
						"members": [
							{
								"astId": 22,
								"contract": "src/contracts/AccountManagement.sol:AccountManagement",
								"label": "isLeader",
								"offset": 0,
								"slot": "0",
								"type": "t_bool"
							},
							{
								"astId": 24,
								"contract": "src/contracts/AccountManagement.sol:AccountManagement",
								"label": "isCouncilMember",
								"offset": 1,
								"slot": "0",
								"type": "t_bool"
							},
							{
								"astId": 26,
								"contract": "src/contracts/AccountManagement.sol:AccountManagement",
								"label": "isMember",
								"offset": 2,
								"slot": "0",
								"type": "t_bool"
							},
							{
								"astId": 28,
								"contract": "src/contracts/AccountManagement.sol:AccountManagement",
								"label": "isGuest",
								"offset": 3,
								"slot": "0",
								"type": "t_bool"
							}
						],
						"numberOfBytes": "32"
					},
					"t_struct(User)20_storage": {
						"encoding": "inplace",
						"label": "struct AccountManagement.User",
						"members": [
							{
								"astId": 8,
								"contract": "src/contracts/AccountManagement.sol:AccountManagement",
								"label": "userAddress",
								"offset": 0,
								"slot": "0",
								"type": "t_address"
							},
							{
								"astId": 10,
								"contract": "src/contracts/AccountManagement.sol:AccountManagement",
								"label": "firstName",
								"offset": 0,
								"slot": "1",
								"type": "t_string_storage"
							},
							{
								"astId": 12,
								"contract": "src/contracts/AccountManagement.sol:AccountManagement",
								"label": "lastName",
								"offset": 0,
								"slot": "2",
								"type": "t_string_storage"
							},
							{
								"astId": 14,
								"contract": "src/contracts/AccountManagement.sol:AccountManagement",
								"label": "mailAdress",
								"offset": 0,
								"slot": "3",
								"type": "t_string_storage"
							},
							{
								"astId": 16,
								"contract": "src/contracts/AccountManagement.sol:AccountManagement",
								"label": "isActive",
								"offset": 0,
								"slot": "4",
								"type": "t_bool"
							},
							{
								"astId": 19,
								"contract": "src/contracts/AccountManagement.sol:AccountManagement",
								"label": "roleMap",
								"offset": 0,
								"slot": "5",
								"type": "t_struct(RoleMap)29_storage"
							}
						],
						"numberOfBytes": "192"
					},
					"t_uint256": {
						"encoding": "inplace",
						"label": "uint256",
						"numberOfBytes": "32"
					}
				}
			},
			"userdoc": {
				"kind": "user",
				"methods": {},
				"version": 1
			}
		}
	}
}