{
	"data": {
		"bytecode": {
			"linkReferences": {},
			"object": "60806040523480156200001157600080fd5b50604051620029a9380380620029a9833981016040819052620000349162000906565b600180546001600160a01b03191633908117909155620000579084848462000085565b6200006433600062000259565b6200007133600362000458565b6200007c3362000643565b50505062000a3f565b6001600160a01b0380851660009081526002602052604090205485911615620000f55760405162461bcd60e51b815260206004820152601660248201527f4163636f756e7420616c7265616479206578697374730000000000000000000060448201526064015b60405180910390fd5b60408051608080820183526000808352602080840182905283850182905260016060808601829052865160c0810188526001600160a01b038d81168083528286018e8152838b018e90529383018c905296820186905260a082018890529585526002845296909320865181546001600160a01b0319169516949094178455915180519495948594936200018e9390850192019062000793565b5060408201518051620001ac91600284019160209091019062000793565b5060608201518051620001ca91600384019160209091019062000793565b50608082015160048201805491151560ff1990921691909117905560a09091015180516005909201805460208301516040840151606090940151151563010000000263ff0000001994151562010000029490941663ffff0000199115156101000261ff00199615159690961661ffff199093169290921794909417939093169290921717905550505050505050565b6001546001600160a01b0316331480620002d0575060405163297027d560e01b8152336004820152309063297027d590602401602060405180830381865afa158015620002aa573d6000803e3d6000fd5b505050506040513d601f19601f82011682018060405250810190620002d0919062000997565b620003185760405162461bcd60e51b8152602060048201526022602482015260008051602062002969833981519152604482015261371760f11b6064820152608401620000ec565b6001600160a01b03808316600090815260026020526040902054839116620003725760405162461bcd60e51b81526020600482015260156024820152600080516020620029898339815191526044820152606401620000ec565b6001600160a01b0383166000908152600260205260408120906005820190846003811115620003a557620003a5620009c2565b1415620003bd57805460ff1916600117815562000451565b6001846003811115620003d457620003d4620009c2565b1415620003ee57805461ff00191661010017815562000451565b6002846003811115620004055762000405620009c2565b14156200042157805462ff000019166201000017815562000451565b6003846003811115620004385762000438620009c2565b14156200045157805463ff000000191663010000001781555b5050505050565b6001546001600160a01b0316331480620004cf575060405163297027d560e01b8152336004820152309063297027d590602401602060405180830381865afa158015620004a9573d6000803e3d6000fd5b505050506040513d601f19601f82011682018060405250810190620004cf919062000997565b620005175760405162461bcd60e51b8152602060048201526022602482015260008051602062002969833981519152604482015261371760f11b6064820152608401620000ec565b6001600160a01b03808316600090815260026020526040902054839116620005715760405162461bcd60e51b81526020600482015260156024820152600080516020620029898339815191526044820152606401620000ec565b6001600160a01b0383166000908152600260205260408120906005820190846003811115620005a457620005a4620009c2565b1415620005b957805460ff1916815562000451565b6001846003811115620005d057620005d0620009c2565b1415620005e657805461ff001916815562000451565b6002846003811115620005fd57620005fd620009c2565b14156200061457805462ff00001916815562000451565b60038460038111156200062b576200062b620009c2565b14156200045157805463ff0000001916905550505050565b6001600160a01b038082166000908152600260205260409020548291166200069d5760405162461bcd60e51b81526020600482015260156024820152600080516020620029898339815191526044820152606401620000ec565b6001600160a01b03821660009081526003602052604090205460ff166200078f576001600160a01b03821660009081526002602090815260409182902060048101805460ff191660011790558251608081018452600582015460ff8181161515808452610100830482161515958401959095526201000082048116151595830195909552630100000090049093161515606084015291908062000741575080602001515b806200074e575080604001515b156200078c576001600160a01b0384166000908152600360205260408120805460ff19166001179055805490806200078683620009d8565b91905055505b50505b5050565b828054620007a19062000a02565b90600052602060002090601f016020900481019282620007c5576000855562000810565b82601f10620007e057805160ff191683800117855562000810565b8280016001018555821562000810579182015b8281111562000810578251825591602001919060010190620007f3565b506200081e92915062000822565b5090565b5b808211156200081e576000815560010162000823565b634e487b7160e01b600052604160045260246000fd5b600082601f8301126200086157600080fd5b81516001600160401b03808211156200087e576200087e62000839565b604051601f8301601f19908116603f01168101908282118183101715620008a957620008a962000839565b81604052838152602092508683858801011115620008c657600080fd5b600091505b83821015620008ea5785820183015181830184015290820190620008cb565b83821115620008fc5760008385830101525b9695505050505050565b6000806000606084860312156200091c57600080fd5b83516001600160401b03808211156200093457600080fd5b62000942878388016200084f565b945060208601519150808211156200095957600080fd5b62000967878388016200084f565b935060408601519150808211156200097e57600080fd5b506200098d868287016200084f565b9150509250925092565b600060208284031215620009aa57600080fd5b81518015158114620009bb57600080fd5b9392505050565b634e487b7160e01b600052602160045260246000fd5b6000600019821415620009fb57634e487b7160e01b600052601160045260246000fd5b5060010190565b600181811c9082168062000a1757607f821691505b6020821081141562000a3957634e487b7160e01b600052602260045260246000fd5b50919050565b611f1a8062000a4f6000396000f3fe608060405234801561001057600080fd5b50600436106100f55760003560e01c80636f77926b11610097578063d3a5059a11610066578063d3a5059a146101fa578063dee94b4a1461020d578063e8621e5914610220578063fa4d7aae1461023357600080fd5b80636f77926b1461018957806382a62137146101a95780638da5cb5b146101bc578063b74866fb146101e757600080fd5b806322faa41f116100d357806322faa41f1461014a578063247ae7a31461015b578063297027d514610163578063630a195b1461017657600080fd5b8063056909b7146100fa5780630e666e4914610122578063130cb5f014610135575b600080fd5b61010d610108366004611b04565b610246565b60405190151581526020015b60405180910390f35b61010d610130366004611b04565b610259565b610148610143366004611b04565b6104b7565b005b600054604051908152602001610119565b61014861056d565b61010d610171366004611b04565b610d51565b610148610184366004611b26565b610d5e565b61019c610197366004611b04565b610ef8565b6040516101199190611bae565b6101486101b7366004611b04565b6111e4565b6001546101cf906001600160a01b031681565b6040516001600160a01b039091168152602001610119565b6101486101f5366004611b26565b61130c565b610148610208366004611b04565b611493565b61014861021b366004611d09565b611544565b61010d61022e366004611b04565b611705565b61010d610241366004611b04565b611712565b600061025382600261171b565b92915050565b6001600160a01b038082166000908152600260209081526040808320815160c0810190925280549094168152600184018054939485949293909290840191906102a190611da2565b80601f01602080910402602001604051908101604052809291908181526020018280546102cd90611da2565b801561031a5780601f106102ef5761010080835404028352916020019161031a565b820191906000526020600020905b8154815290600101906020018083116102fd57829003601f168201915b5050505050815260200160028201805461033390611da2565b80601f016020809104026020016040519081016040528092919081815260200182805461035f90611da2565b80156103ac5780601f10610381576101008083540402835291602001916103ac565b820191906000526020600020905b81548152906001019060200180831161038f57829003601f168201915b505050505081526020016003820180546103c590611da2565b80601f01602080910402602001604051908101604052809291908181526020018280546103f190611da2565b801561043e5780601f106104135761010080835404028352916020019161043e565b820191906000526020600020905b81548152906001019060200180831161042157829003601f168201915b5050509183525050600482015460ff908116151560208084019190915260408051608081018252600590950154808416151586526101008104841615159286019290925262010000820483161515858201526301000000909104909116151560608401520152516001600160a01b031615159392505050565b6001600160a01b038082166000908152600260205260409020548291166104f95760405162461bcd60e51b81526004016104f090611ddd565b60405180910390fd5b6001600160a01b03821660009081526003602052604090205460ff1615610569576001600160a01b038216600090815260026020908152604080832060048101805460ff1990811690915560039093529083208054909216909155815490918061056283611e22565b9190505550505b5050565b600060405180610140016040528073ab8483f64d9c6d1ecf9b849ae677dd3315835cb26001600160a01b03166001600160a01b03168152602001734b20993bc481177ec7e8f571cecae8a9e22c02db6001600160a01b03166001600160a01b031681526020017378731d3ca6b7e34ac0f824c42a7cc18a495cabab6001600160a01b03166001600160a01b0316815260200173617f2e2fd72fd9d5503197092ac168c91465e7f26001600160a01b03166001600160a01b031681526020017317f6ad8ef982297579c203069c1dbffe4348c3726001600160a01b03166001600160a01b03168152602001735c6b0f7bf3e7ce046039bd8fabdfd3f9f50216786001600160a01b03166001600160a01b031681526020017303c6fced478cbbc9a4fab34ef9f40767739d1ff76001600160a01b03166001600160a01b03168152602001731ae0ea34a72d944a8c7603ffb3ec30a6669e454c6001600160a01b03166001600160a01b0316815260200173ca35b7d915458ef540ade6068dfe2f44e8fa733c6001600160a01b03166001600160a01b031681526020017314723a09acff6d2a60dcdf7aa4aff308fddc160c6001600160a01b03166001600160a01b031681525090506000604051806101400160405280604051806040016040528060048152602001635269636b60e01b81525081526020016040518060400160405280600781526020016656616e6573736160c81b815250815260200160405180604001604052806004815260200163082d8caf60e31b8152508152602001604051806040016040528060048152602001635669636960e01b8152508152602001604051806040016040528060028152602001614c7560f01b8152508152602001604051806040016040528060048152602001632537b43760e11b8152508152602001604051806040016040528060058152602001640a6c2e4c2d60db1b81525081526020016040518060400160405280600881526020016753616d616e74686160c01b8152508152602001604051806040016040528060058152602001642832ba32b960d91b81525081526020016040518060400160405280600581526020016411185d9a5960da1b815250815250905060006040518061014001604052806040518060400160405280600581526020016414185d195b60da1b8152508152602001604051806040016040528060038152602001624b696d60e81b815250815260200160405180604001604052806005815260200164213937bbb760d91b815250815260200160405180604001604052806005815260200164446176697360d81b81525081526020016040518060400160405280600881526020016726b0b93a34b732bd60c11b8152508152602001604051806040016040528060068152602001652bb4b639b7b760d11b81525081526020016040518060400160405280600681526020016547617263696160d01b8152508152602001604051806040016040528060058152602001644a6f6e657360d81b8152508152602001604051806040016040528060078152602001662530b1b5b9b7b760c91b8152508152602001604051806040016040528060058152602001640a6dad2e8d60db1b81525081525090506000604051806101400160405280604051806040016040528060128152602001715269636b2e506174656c40706f722e636f6d60701b81525081526020016040518060400160405280601381526020017256616e657373612e4b696d40706f722e636f6d60681b815250815260200160405180604001604052806012815260200171416c65782e42726f776e40706f722e636f6d60701b815250815260200160405180604001604052806012815260200171566963692e446176697340706f722e636f6d60701b8152508152602001604051806040016040528060138152602001724c752e4d617274696e657a40706f722e636f6d60681b8152508152602001604051806040016040528060138152602001724a6f686e2e57696c736f6e40706f722e636f6d60681b81525081526020016040518060400160405280601481526020017353617261682e47617263696140706f722e636f6d60601b81525081526020016040518060400160405280601681526020017553616d616e7468612e4a6f6e657340706f722e636f6d60501b81525081526020016040518060400160405280601581526020017450657465722e4a61636b736f6e40706f722e636f6d60581b81525081526020016040518060400160405280601381526020017244617669642e536d69746840706f722e636f6d60681b815250815250905060005b600a811015610d4a5760008582600a8110610c2957610c29611e39565b6020020151604051630e666e4960e01b81526001600160a01b03821660048201529091503090630e666e4990602401602060405180830381865afa158015610c75573d6000803e3d6000fd5b505050506040513d601f19601f82011682018060405250810190610c999190611e4f565b610d3757610ceb818684600a8110610cb357610cb3611e39565b60200201518685600a8110610cca57610cca611e39565b60200201518686600a8110610ce157610ce1611e39565b6020020151611544565b610cf6816002610d5e565b610d0181600361130c565b6002821015610d1a57610d15816000610d5e565b610d2e565b6004821015610d2e57610d2e816001610d5e565b610d37816111e4565b5080610d4281611e71565b915050610c0c565b5050505050565b600061025382600061171b565b6001546001600160a01b0316331480610dd1575060405163297027d560e01b8152336004820152309063297027d590602401602060405180830381865afa158015610dad573d6000803e3d6000fd5b505050506040513d601f19601f82011682018060405250810190610dd19190611e4f565b610ded5760405162461bcd60e51b81526004016104f090611e8c565b6001600160a01b03808316600090815260026020526040902054839116610e265760405162461bcd60e51b81526004016104f090611ddd565b6001600160a01b0383166000908152600260205260408120906005820190846003811115610e5657610e56611ece565b1415610e6c57805460ff19166001178155610d4a565b6001846003811115610e8057610e80611ece565b1415610e9857805461ff001916610100178155610d4a565b6002846003811115610eac57610eac611ece565b1415610ec657805462ff0000191662010000178155610d4a565b6003846003811115610eda57610eda611ece565b1415610d4a57805463ff000000191663010000001781555050505050565b610f4a6040805160c0810182526000808252606060208084018290528385018290528184018290526080808501849052855190810186528381529081018390529384018290528301529060a082015290565b6001600160a01b038083166000908152600260209081526040808320815160c0810190925280549094168152600184018054939491939192840191610f8e90611da2565b80601f0160208091040260200160405190810160405280929190818152602001828054610fba90611da2565b80156110075780601f10610fdc57610100808354040283529160200191611007565b820191906000526020600020905b815481529060010190602001808311610fea57829003601f168201915b5050505050815260200160028201805461102090611da2565b80601f016020809104026020016040519081016040528092919081815260200182805461104c90611da2565b80156110995780601f1061106e57610100808354040283529160200191611099565b820191906000526020600020905b81548152906001019060200180831161107c57829003601f168201915b505050505081526020016003820180546110b290611da2565b80601f01602080910402602001604051908101604052809291908181526020018280546110de90611da2565b801561112b5780601f106111005761010080835404028352916020019161112b565b820191906000526020600020905b81548152906001019060200180831161110e57829003601f168201915b5050509183525050600482015460ff90811615156020808401919091526040805160808101825260059095015480841615158652610100810484161515928601929092526201000082048316151585820152630100000090910490911615156060840152015280519091506001600160a01b0316156111aa5792915050565b60405162461bcd60e51b815260206004820152600f60248201526e55736572206e6f7420666f756e642160881b60448201526064016104f0565b6001600160a01b0380821660009081526002602052604090205482911661121d5760405162461bcd60e51b81526004016104f090611ddd565b6001600160a01b03821660009081526003602052604090205460ff16610569576001600160a01b03821660009081526002602090815260409182902060048101805460ff191660011790558251608081018452600582015460ff818116151580845261010083048216151595840195909552620100008204811615159583019590955263010000009004909316151560608401529190806112bf575080602001515b806112cb575080604001515b15611306576001600160a01b0384166000908152600360205260408120805460ff191660011790558054908061130083611e71565b91905055505b50505050565b6001546001600160a01b031633148061137f575060405163297027d560e01b8152336004820152309063297027d590602401602060405180830381865afa15801561135b573d6000803e3d6000fd5b505050506040513d601f19601f8201168201806040525081019061137f9190611e4f565b61139b5760405162461bcd60e51b81526004016104f090611e8c565b6001600160a01b038083166000908152600260205260409020548391166113d45760405162461bcd60e51b81526004016104f090611ddd565b6001600160a01b038316600090815260026020526040812090600582019084600381111561140457611404611ece565b141561141757805460ff19168155610d4a565b600184600381111561142b5761142b611ece565b141561143f57805461ff0019168155610d4a565b600284600381111561145357611453611ece565b141561146857805462ff000019168155610d4a565b600384600381111561147c5761147c611ece565b1415610d4a57805463ff0000001916905550505050565b6001600160a01b038082166000908152600260205260409020548291166114cc5760405162461bcd60e51b81526004016104f090611ddd565b6114d5826104b7565b6001600160a01b038216600090815260026020526040812080546001600160a01b0319168155906115096001830182611a12565b611517600283016000611a12565b611525600383016000611a12565b5060048101805460ff19169055600501805463ffffffff191690555050565b6001600160a01b03808516600090815260026020526040902054859116156115a75760405162461bcd60e51b81526020600482015260166024820152754163636f756e7420616c72656164792065786973747360501b60448201526064016104f0565b60408051608080820183526000808352602080840182905283850182905260016060808601829052865160c0810188526001600160a01b038d81168083528286018e8152838b018e90529383018c905296820186905260a082018890529585526002845296909320865181546001600160a01b03191695169490941784559151805194959485949361163e93908501920190611a4f565b506040820151805161165a916002840191602090910190611a4f565b5060608201518051611676916003840191602090910190611a4f565b50608082015160048201805491151560ff1990921691909117905560a09091015180516005909201805460208301516040840151606090940151151563010000000263ff0000001994151562010000029490941663ffff0000199115156101000261ff00199615159690961661ffff199093169290921794909417939093169290921717905550505050505050565b600061025382600361171b565b60006102538260015b6001600160a01b038083166000908152600260209081526040808320815160c08101909252805490941681526001840180549394859492939092908401919061176390611da2565b80601f016020809104026020016040519081016040528092919081815260200182805461178f90611da2565b80156117dc5780601f106117b1576101008083540402835291602001916117dc565b820191906000526020600020905b8154815290600101906020018083116117bf57829003601f168201915b505050505081526020016002820180546117f590611da2565b80601f016020809104026020016040519081016040528092919081815260200182805461182190611da2565b801561186e5780601f106118435761010080835404028352916020019161186e565b820191906000526020600020905b81548152906001019060200180831161185157829003601f168201915b5050505050815260200160038201805461188790611da2565b80601f01602080910402602001604051908101604052809291908181526020018280546118b390611da2565b80156119005780601f106118d557610100808354040283529160200191611900565b820191906000526020600020905b8154815290600101906020018083116118e357829003601f168201915b5050509183525050600482015460ff90811615156020808401919091526040805160808101825260059095015480841615158652610100810484161515928601929092526201000082048316151585820152630100000090910490911615156060840152015260a0810151909150600084600381111561198257611982611ece565b1415611992575191506102539050565b60018460038111156119a6576119a6611ece565b14156119b9576020015191506102539050565b60028460038111156119cd576119cd611ece565b14156119e0576040015191506102539050565b60038460038111156119f4576119f4611ece565b1415611a07576060015191506102539050565b506000949350505050565b508054611a1e90611da2565b6000825580601f10611a2e575050565b601f016020900490600052602060002090810190611a4c9190611ad3565b50565b828054611a5b90611da2565b90600052602060002090601f016020900481019282611a7d5760008555611ac3565b82601f10611a9657805160ff1916838001178555611ac3565b82800160010185558215611ac3579182015b82811115611ac3578251825591602001919060010190611aa8565b50611acf929150611ad3565b5090565b5b80821115611acf5760008155600101611ad4565b80356001600160a01b0381168114611aff57600080fd5b919050565b600060208284031215611b1657600080fd5b611b1f82611ae8565b9392505050565b60008060408385031215611b3957600080fd5b611b4283611ae8565b9150602083013560048110611b5657600080fd5b809150509250929050565b6000815180845260005b81811015611b8757602081850181015186830182015201611b6b565b81811115611b99576000602083870101525b50601f01601f19169290920160200192915050565b602080825282516001600160a01b0316828201528201516101206040830181905260009190611be1610140850183611b61565b91506040850151601f1980868503016060870152611bff8483611b61565b9350606087015191508086850301608087015250611c1d8382611b61565b6080870151151560a087810191909152909601518051151560c08701526020810151151560e0870152604081015115156101008701526060015115159190940152509192915050565b634e487b7160e01b600052604160045260246000fd5b600082601f830112611c8d57600080fd5b813567ffffffffffffffff80821115611ca857611ca8611c66565b604051601f8301601f19908116603f01168101908282118183101715611cd057611cd0611c66565b81604052838152866020858801011115611ce957600080fd5b836020870160208301376000602085830101528094505050505092915050565b60008060008060808587031215611d1f57600080fd5b611d2885611ae8565b9350602085013567ffffffffffffffff80821115611d4557600080fd5b611d5188838901611c7c565b94506040870135915080821115611d6757600080fd5b611d7388838901611c7c565b93506060870135915080821115611d8957600080fd5b50611d9687828801611c7c565b91505092959194509250565b600181811c90821680611db657607f821691505b60208210811415611dd757634e487b7160e01b600052602260045260246000fd5b50919050565b6020808252601590820152741058d8dbdd5b9d08191bd95cdb89dd08195e1a5cdd605a1b604082015260600190565b634e487b7160e01b600052601160045260246000fd5b600081611e3157611e31611e0c565b506000190190565b634e487b7160e01b600052603260045260246000fd5b600060208284031215611e6157600080fd5b81518015158114611b1f57600080fd5b6000600019821415611e8557611e85611e0c565b5060010190565b60208082526022908201527f4f6e6c79206f776e65722063616e2063616c6c20746869732066756e6374696f604082015261371760f11b606082015260800190565b634e487b7160e01b600052602160045260246000fdfea2646970667358221220237444ec2bfd8b262f25fbe3c22febda03332eab8e43a0ec4c0a050f25d5ff1764736f6c634300080c00334f6e6c79206f776e65722063616e2063616c6c20746869732066756e6374696f4163636f756e7420646f65736e27742065786973740000000000000000000000",
			"opcodes": "PUSH1 0x80 PUSH1 0x40 MSTORE CALLVALUE DUP1 ISZERO PUSH3 0x11 JUMPI PUSH1 0x0 DUP1 REVERT JUMPDEST POP PUSH1 0x40 MLOAD PUSH3 0x29A9 CODESIZE SUB DUP1 PUSH3 0x29A9 DUP4 CODECOPY DUP2 ADD PUSH1 0x40 DUP2 SWAP1 MSTORE PUSH3 0x34 SWAP2 PUSH3 0x906 JUMP JUMPDEST PUSH1 0x1 DUP1 SLOAD PUSH1 0x1 PUSH1 0x1 PUSH1 0xA0 SHL SUB NOT AND CALLER SWAP1 DUP2 OR SWAP1 SWAP2 SSTORE PUSH3 0x57 SWAP1 DUP5 DUP5 DUP5 PUSH3 0x85 JUMP JUMPDEST PUSH3 0x64 CALLER PUSH1 0x0 PUSH3 0x259 JUMP JUMPDEST PUSH3 0x71 CALLER PUSH1 0x3 PUSH3 0x458 JUMP JUMPDEST PUSH3 0x7C CALLER PUSH3 0x643 JUMP JUMPDEST POP POP POP PUSH3 0xA3F JUMP JUMPDEST PUSH1 0x1 PUSH1 0x1 PUSH1 0xA0 SHL SUB DUP1 DUP6 AND PUSH1 0x0 SWAP1 DUP2 MSTORE PUSH1 0x2 PUSH1 0x20 MSTORE PUSH1 0x40 SWAP1 KECCAK256 SLOAD DUP6 SWAP2 AND ISZERO PUSH3 0xF5 JUMPI PUSH1 0x40 MLOAD PUSH3 0x461BCD PUSH1 0xE5 SHL DUP2 MSTORE PUSH1 0x20 PUSH1 0x4 DUP3 ADD MSTORE PUSH1 0x16 PUSH1 0x24 DUP3 ADD MSTORE PUSH32 0x4163636F756E7420616C72656164792065786973747300000000000000000000 PUSH1 0x44 DUP3 ADD MSTORE PUSH1 0x64 ADD JUMPDEST PUSH1 0x40 MLOAD DUP1 SWAP2 SUB SWAP1 REVERT JUMPDEST PUSH1 0x40 DUP1 MLOAD PUSH1 0x80 DUP1 DUP3 ADD DUP4 MSTORE PUSH1 0x0 DUP1 DUP4 MSTORE PUSH1 0x20 DUP1 DUP5 ADD DUP3 SWAP1 MSTORE DUP4 DUP6 ADD DUP3 SWAP1 MSTORE PUSH1 0x1 PUSH1 0x60 DUP1 DUP7 ADD DUP3 SWAP1 MSTORE DUP7 MLOAD PUSH1 0xC0 DUP2 ADD DUP9 MSTORE PUSH1 0x1 PUSH1 0x1 PUSH1 0xA0 SHL SUB DUP14 DUP2 AND DUP1 DUP4 MSTORE DUP3 DUP7 ADD DUP15 DUP2 MSTORE DUP4 DUP12 ADD DUP15 SWAP1 MSTORE SWAP4 DUP4 ADD DUP13 SWAP1 MSTORE SWAP7 DUP3 ADD DUP7 SWAP1 MSTORE PUSH1 0xA0 DUP3 ADD DUP9 SWAP1 MSTORE SWAP6 DUP6 MSTORE PUSH1 0x2 DUP5 MSTORE SWAP7 SWAP1 SWAP4 KECCAK256 DUP7 MLOAD DUP2 SLOAD PUSH1 0x1 PUSH1 0x1 PUSH1 0xA0 SHL SUB NOT AND SWAP6 AND SWAP5 SWAP1 SWAP5 OR DUP5 SSTORE SWAP2 MLOAD DUP1 MLOAD SWAP5 SWAP6 SWAP5 DUP6 SWAP5 SWAP4 PUSH3 0x18E SWAP4 SWAP1 DUP6 ADD SWAP3 ADD SWAP1 PUSH3 0x793 JUMP JUMPDEST POP PUSH1 0x40 DUP3 ADD MLOAD DUP1 MLOAD PUSH3 0x1AC SWAP2 PUSH1 0x2 DUP5 ADD SWAP2 PUSH1 0x20 SWAP1 SWAP2 ADD SWAP1 PUSH3 0x793 JUMP JUMPDEST POP PUSH1 0x60 DUP3 ADD MLOAD DUP1 MLOAD PUSH3 0x1CA SWAP2 PUSH1 0x3 DUP5 ADD SWAP2 PUSH1 0x20 SWAP1 SWAP2 ADD SWAP1 PUSH3 0x793 JUMP JUMPDEST POP PUSH1 0x80 DUP3 ADD MLOAD PUSH1 0x4 DUP3 ADD DUP1 SLOAD SWAP2 ISZERO ISZERO PUSH1 0xFF NOT SWAP1 SWAP3 AND SWAP2 SWAP1 SWAP2 OR SWAP1 SSTORE PUSH1 0xA0 SWAP1 SWAP2 ADD MLOAD DUP1 MLOAD PUSH1 0x5 SWAP1 SWAP3 ADD DUP1 SLOAD PUSH1 0x20 DUP4 ADD MLOAD PUSH1 0x40 DUP5 ADD MLOAD PUSH1 0x60 SWAP1 SWAP5 ADD MLOAD ISZERO ISZERO PUSH4 0x1000000 MUL PUSH4 0xFF000000 NOT SWAP5 ISZERO ISZERO PUSH3 0x10000 MUL SWAP5 SWAP1 SWAP5 AND PUSH4 0xFFFF0000 NOT SWAP2 ISZERO ISZERO PUSH2 0x100 MUL PUSH2 0xFF00 NOT SWAP7 ISZERO ISZERO SWAP7 SWAP1 SWAP7 AND PUSH2 0xFFFF NOT SWAP1 SWAP4 AND SWAP3 SWAP1 SWAP3 OR SWAP5 SWAP1 SWAP5 OR SWAP4 SWAP1 SWAP4 AND SWAP3 SWAP1 SWAP3 OR OR SWAP1 SSTORE POP POP POP POP POP POP POP JUMP JUMPDEST PUSH1 0x1 SLOAD PUSH1 0x1 PUSH1 0x1 PUSH1 0xA0 SHL SUB AND CALLER EQ DUP1 PUSH3 0x2D0 JUMPI POP PUSH1 0x40 MLOAD PUSH4 0x297027D5 PUSH1 0xE0 SHL DUP2 MSTORE CALLER PUSH1 0x4 DUP3 ADD MSTORE ADDRESS SWAP1 PUSH4 0x297027D5 SWAP1 PUSH1 0x24 ADD PUSH1 0x20 PUSH1 0x40 MLOAD DUP1 DUP4 SUB DUP2 DUP7 GAS STATICCALL ISZERO DUP1 ISZERO PUSH3 0x2AA JUMPI RETURNDATASIZE PUSH1 0x0 DUP1 RETURNDATACOPY RETURNDATASIZE PUSH1 0x0 REVERT JUMPDEST POP POP POP POP PUSH1 0x40 MLOAD RETURNDATASIZE PUSH1 0x1F NOT PUSH1 0x1F DUP3 ADD AND DUP3 ADD DUP1 PUSH1 0x40 MSTORE POP DUP2 ADD SWAP1 PUSH3 0x2D0 SWAP2 SWAP1 PUSH3 0x997 JUMP JUMPDEST PUSH3 0x318 JUMPI PUSH1 0x40 MLOAD PUSH3 0x461BCD PUSH1 0xE5 SHL DUP2 MSTORE PUSH1 0x20 PUSH1 0x4 DUP3 ADD MSTORE PUSH1 0x22 PUSH1 0x24 DUP3 ADD MSTORE PUSH1 0x0 DUP1 MLOAD PUSH1 0x20 PUSH3 0x2969 DUP4 CODECOPY DUP2 MLOAD SWAP2 MSTORE PUSH1 0x44 DUP3 ADD MSTORE PUSH2 0x3717 PUSH1 0xF1 SHL PUSH1 0x64 DUP3 ADD MSTORE PUSH1 0x84 ADD PUSH3 0xEC JUMP JUMPDEST PUSH1 0x1 PUSH1 0x1 PUSH1 0xA0 SHL SUB DUP1 DUP4 AND PUSH1 0x0 SWAP1 DUP2 MSTORE PUSH1 0x2 PUSH1 0x20 MSTORE PUSH1 0x40 SWAP1 KECCAK256 SLOAD DUP4 SWAP2 AND PUSH3 0x372 JUMPI PUSH1 0x40 MLOAD PUSH3 0x461BCD PUSH1 0xE5 SHL DUP2 MSTORE PUSH1 0x20 PUSH1 0x4 DUP3 ADD MSTORE PUSH1 0x15 PUSH1 0x24 DUP3 ADD MSTORE PUSH1 0x0 DUP1 MLOAD PUSH1 0x20 PUSH3 0x2989 DUP4 CODECOPY DUP2 MLOAD SWAP2 MSTORE PUSH1 0x44 DUP3 ADD MSTORE PUSH1 0x64 ADD PUSH3 0xEC JUMP JUMPDEST PUSH1 0x1 PUSH1 0x1 PUSH1 0xA0 SHL SUB DUP4 AND PUSH1 0x0 SWAP1 DUP2 MSTORE PUSH1 0x2 PUSH1 0x20 MSTORE PUSH1 0x40 DUP2 KECCAK256 SWAP1 PUSH1 0x5 DUP3 ADD SWAP1 DUP5 PUSH1 0x3 DUP2 GT ISZERO PUSH3 0x3A5 JUMPI PUSH3 0x3A5 PUSH3 0x9C2 JUMP JUMPDEST EQ ISZERO PUSH3 0x3BD JUMPI DUP1 SLOAD PUSH1 0xFF NOT AND PUSH1 0x1 OR DUP2 SSTORE PUSH3 0x451 JUMP JUMPDEST PUSH1 0x1 DUP5 PUSH1 0x3 DUP2 GT ISZERO PUSH3 0x3D4 JUMPI PUSH3 0x3D4 PUSH3 0x9C2 JUMP JUMPDEST EQ ISZERO PUSH3 0x3EE JUMPI DUP1 SLOAD PUSH2 0xFF00 NOT AND PUSH2 0x100 OR DUP2 SSTORE PUSH3 0x451 JUMP JUMPDEST PUSH1 0x2 DUP5 PUSH1 0x3 DUP2 GT ISZERO PUSH3 0x405 JUMPI PUSH3 0x405 PUSH3 0x9C2 JUMP JUMPDEST EQ ISZERO PUSH3 0x421 JUMPI DUP1 SLOAD PUSH3 0xFF0000 NOT AND PUSH3 0x10000 OR DUP2 SSTORE PUSH3 0x451 JUMP JUMPDEST PUSH1 0x3 DUP5 PUSH1 0x3 DUP2 GT ISZERO PUSH3 0x438 JUMPI PUSH3 0x438 PUSH3 0x9C2 JUMP JUMPDEST EQ ISZERO PUSH3 0x451 JUMPI DUP1 SLOAD PUSH4 0xFF000000 NOT AND PUSH4 0x1000000 OR DUP2 SSTORE JUMPDEST POP POP POP POP POP JUMP JUMPDEST PUSH1 0x1 SLOAD PUSH1 0x1 PUSH1 0x1 PUSH1 0xA0 SHL SUB AND CALLER EQ DUP1 PUSH3 0x4CF JUMPI POP PUSH1 0x40 MLOAD PUSH4 0x297027D5 PUSH1 0xE0 SHL DUP2 MSTORE CALLER PUSH1 0x4 DUP3 ADD MSTORE ADDRESS SWAP1 PUSH4 0x297027D5 SWAP1 PUSH1 0x24 ADD PUSH1 0x20 PUSH1 0x40 MLOAD DUP1 DUP4 SUB DUP2 DUP7 GAS STATICCALL ISZERO DUP1 ISZERO PUSH3 0x4A9 JUMPI RETURNDATASIZE PUSH1 0x0 DUP1 RETURNDATACOPY RETURNDATASIZE PUSH1 0x0 REVERT JUMPDEST POP POP POP POP PUSH1 0x40 MLOAD RETURNDATASIZE PUSH1 0x1F NOT PUSH1 0x1F DUP3 ADD AND DUP3 ADD DUP1 PUSH1 0x40 MSTORE POP DUP2 ADD SWAP1 PUSH3 0x4CF SWAP2 SWAP1 PUSH3 0x997 JUMP JUMPDEST PUSH3 0x517 JUMPI PUSH1 0x40 MLOAD PUSH3 0x461BCD PUSH1 0xE5 SHL DUP2 MSTORE PUSH1 0x20 PUSH1 0x4 DUP3 ADD MSTORE PUSH1 0x22 PUSH1 0x24 DUP3 ADD MSTORE PUSH1 0x0 DUP1 MLOAD PUSH1 0x20 PUSH3 0x2969 DUP4 CODECOPY DUP2 MLOAD SWAP2 MSTORE PUSH1 0x44 DUP3 ADD MSTORE PUSH2 0x3717 PUSH1 0xF1 SHL PUSH1 0x64 DUP3 ADD MSTORE PUSH1 0x84 ADD PUSH3 0xEC JUMP JUMPDEST PUSH1 0x1 PUSH1 0x1 PUSH1 0xA0 SHL SUB DUP1 DUP4 AND PUSH1 0x0 SWAP1 DUP2 MSTORE PUSH1 0x2 PUSH1 0x20 MSTORE PUSH1 0x40 SWAP1 KECCAK256 SLOAD DUP4 SWAP2 AND PUSH3 0x571 JUMPI PUSH1 0x40 MLOAD PUSH3 0x461BCD PUSH1 0xE5 SHL DUP2 MSTORE PUSH1 0x20 PUSH1 0x4 DUP3 ADD MSTORE PUSH1 0x15 PUSH1 0x24 DUP3 ADD MSTORE PUSH1 0x0 DUP1 MLOAD PUSH1 0x20 PUSH3 0x2989 DUP4 CODECOPY DUP2 MLOAD SWAP2 MSTORE PUSH1 0x44 DUP3 ADD MSTORE PUSH1 0x64 ADD PUSH3 0xEC JUMP JUMPDEST PUSH1 0x1 PUSH1 0x1 PUSH1 0xA0 SHL SUB DUP4 AND PUSH1 0x0 SWAP1 DUP2 MSTORE PUSH1 0x2 PUSH1 0x20 MSTORE PUSH1 0x40 DUP2 KECCAK256 SWAP1 PUSH1 0x5 DUP3 ADD SWAP1 DUP5 PUSH1 0x3 DUP2 GT ISZERO PUSH3 0x5A4 JUMPI PUSH3 0x5A4 PUSH3 0x9C2 JUMP JUMPDEST EQ ISZERO PUSH3 0x5B9 JUMPI DUP1 SLOAD PUSH1 0xFF NOT AND DUP2 SSTORE PUSH3 0x451 JUMP JUMPDEST PUSH1 0x1 DUP5 PUSH1 0x3 DUP2 GT ISZERO PUSH3 0x5D0 JUMPI PUSH3 0x5D0 PUSH3 0x9C2 JUMP JUMPDEST EQ ISZERO PUSH3 0x5E6 JUMPI DUP1 SLOAD PUSH2 0xFF00 NOT AND DUP2 SSTORE PUSH3 0x451 JUMP JUMPDEST PUSH1 0x2 DUP5 PUSH1 0x3 DUP2 GT ISZERO PUSH3 0x5FD JUMPI PUSH3 0x5FD PUSH3 0x9C2 JUMP JUMPDEST EQ ISZERO PUSH3 0x614 JUMPI DUP1 SLOAD PUSH3 0xFF0000 NOT AND DUP2 SSTORE PUSH3 0x451 JUMP JUMPDEST PUSH1 0x3 DUP5 PUSH1 0x3 DUP2 GT ISZERO PUSH3 0x62B JUMPI PUSH3 0x62B PUSH3 0x9C2 JUMP JUMPDEST EQ ISZERO PUSH3 0x451 JUMPI DUP1 SLOAD PUSH4 0xFF000000 NOT AND SWAP1 SSTORE POP POP POP POP JUMP JUMPDEST PUSH1 0x1 PUSH1 0x1 PUSH1 0xA0 SHL SUB DUP1 DUP3 AND PUSH1 0x0 SWAP1 DUP2 MSTORE PUSH1 0x2 PUSH1 0x20 MSTORE PUSH1 0x40 SWAP1 KECCAK256 SLOAD DUP3 SWAP2 AND PUSH3 0x69D JUMPI PUSH1 0x40 MLOAD PUSH3 0x461BCD PUSH1 0xE5 SHL DUP2 MSTORE PUSH1 0x20 PUSH1 0x4 DUP3 ADD MSTORE PUSH1 0x15 PUSH1 0x24 DUP3 ADD MSTORE PUSH1 0x0 DUP1 MLOAD PUSH1 0x20 PUSH3 0x2989 DUP4 CODECOPY DUP2 MLOAD SWAP2 MSTORE PUSH1 0x44 DUP3 ADD MSTORE PUSH1 0x64 ADD PUSH3 0xEC JUMP JUMPDEST PUSH1 0x1 PUSH1 0x1 PUSH1 0xA0 SHL SUB DUP3 AND PUSH1 0x0 SWAP1 DUP2 MSTORE PUSH1 0x3 PUSH1 0x20 MSTORE PUSH1 0x40 SWAP1 KECCAK256 SLOAD PUSH1 0xFF AND PUSH3 0x78F JUMPI PUSH1 0x1 PUSH1 0x1 PUSH1 0xA0 SHL SUB DUP3 AND PUSH1 0x0 SWAP1 DUP2 MSTORE PUSH1 0x2 PUSH1 0x20 SWAP1 DUP2 MSTORE PUSH1 0x40 SWAP2 DUP3 SWAP1 KECCAK256 PUSH1 0x4 DUP2 ADD DUP1 SLOAD PUSH1 0xFF NOT AND PUSH1 0x1 OR SWAP1 SSTORE DUP3 MLOAD PUSH1 0x80 DUP2 ADD DUP5 MSTORE PUSH1 0x5 DUP3 ADD SLOAD PUSH1 0xFF DUP2 DUP2 AND ISZERO ISZERO DUP1 DUP5 MSTORE PUSH2 0x100 DUP4 DIV DUP3 AND ISZERO ISZERO SWAP6 DUP5 ADD SWAP6 SWAP1 SWAP6 MSTORE PUSH3 0x10000 DUP3 DIV DUP2 AND ISZERO ISZERO SWAP6 DUP4 ADD SWAP6 SWAP1 SWAP6 MSTORE PUSH4 0x1000000 SWAP1 DIV SWAP1 SWAP4 AND ISZERO ISZERO PUSH1 0x60 DUP5 ADD MSTORE SWAP2 SWAP1 DUP1 PUSH3 0x741 JUMPI POP DUP1 PUSH1 0x20 ADD MLOAD JUMPDEST DUP1 PUSH3 0x74E JUMPI POP DUP1 PUSH1 0x40 ADD MLOAD JUMPDEST ISZERO PUSH3 0x78C JUMPI PUSH1 0x1 PUSH1 0x1 PUSH1 0xA0 SHL SUB DUP5 AND PUSH1 0x0 SWAP1 DUP2 MSTORE PUSH1 0x3 PUSH1 0x20 MSTORE PUSH1 0x40 DUP2 KECCAK256 DUP1 SLOAD PUSH1 0xFF NOT AND PUSH1 0x1 OR SWAP1 SSTORE DUP1 SLOAD SWAP1 DUP1 PUSH3 0x786 DUP4 PUSH3 0x9D8 JUMP JUMPDEST SWAP2 SWAP1 POP SSTORE POP JUMPDEST POP POP JUMPDEST POP POP JUMP JUMPDEST DUP3 DUP1 SLOAD PUSH3 0x7A1 SWAP1 PUSH3 0xA02 JUMP JUMPDEST SWAP1 PUSH1 0x0 MSTORE PUSH1 0x20 PUSH1 0x0 KECCAK256 SWAP1 PUSH1 0x1F ADD PUSH1 0x20 SWAP1 DIV DUP2 ADD SWAP3 DUP3 PUSH3 0x7C5 JUMPI PUSH1 0x0 DUP6 SSTORE PUSH3 0x810 JUMP JUMPDEST DUP3 PUSH1 0x1F LT PUSH3 0x7E0 JUMPI DUP1 MLOAD PUSH1 0xFF NOT AND DUP4 DUP1 ADD OR DUP6 SSTORE PUSH3 0x810 JUMP JUMPDEST DUP3 DUP1 ADD PUSH1 0x1 ADD DUP6 SSTORE DUP3 ISZERO PUSH3 0x810 JUMPI SWAP2 DUP3 ADD JUMPDEST DUP3 DUP2 GT ISZERO PUSH3 0x810 JUMPI DUP3 MLOAD DUP3 SSTORE SWAP2 PUSH1 0x20 ADD SWAP2 SWAP1 PUSH1 0x1 ADD SWAP1 PUSH3 0x7F3 JUMP JUMPDEST POP PUSH3 0x81E SWAP3 SWAP2 POP PUSH3 0x822 JUMP JUMPDEST POP SWAP1 JUMP JUMPDEST JUMPDEST DUP1 DUP3 GT ISZERO PUSH3 0x81E JUMPI PUSH1 0x0 DUP2 SSTORE PUSH1 0x1 ADD PUSH3 0x823 JUMP JUMPDEST PUSH4 0x4E487B71 PUSH1 0xE0 SHL PUSH1 0x0 MSTORE PUSH1 0x41 PUSH1 0x4 MSTORE PUSH1 0x24 PUSH1 0x0 REVERT JUMPDEST PUSH1 0x0 DUP3 PUSH1 0x1F DUP4 ADD SLT PUSH3 0x861 JUMPI PUSH1 0x0 DUP1 REVERT JUMPDEST DUP2 MLOAD PUSH1 0x1 PUSH1 0x1 PUSH1 0x40 SHL SUB DUP1 DUP3 GT ISZERO PUSH3 0x87E JUMPI PUSH3 0x87E PUSH3 0x839 JUMP JUMPDEST PUSH1 0x40 MLOAD PUSH1 0x1F DUP4 ADD PUSH1 0x1F NOT SWAP1 DUP2 AND PUSH1 0x3F ADD AND DUP2 ADD SWAP1 DUP3 DUP3 GT DUP2 DUP4 LT OR ISZERO PUSH3 0x8A9 JUMPI PUSH3 0x8A9 PUSH3 0x839 JUMP JUMPDEST DUP2 PUSH1 0x40 MSTORE DUP4 DUP2 MSTORE PUSH1 0x20 SWAP3 POP DUP7 DUP4 DUP6 DUP9 ADD ADD GT ISZERO PUSH3 0x8C6 JUMPI PUSH1 0x0 DUP1 REVERT JUMPDEST PUSH1 0x0 SWAP2 POP JUMPDEST DUP4 DUP3 LT ISZERO PUSH3 0x8EA JUMPI DUP6 DUP3 ADD DUP4 ADD MLOAD DUP2 DUP4 ADD DUP5 ADD MSTORE SWAP1 DUP3 ADD SWAP1 PUSH3 0x8CB JUMP JUMPDEST DUP4 DUP3 GT ISZERO PUSH3 0x8FC JUMPI PUSH1 0x0 DUP4 DUP6 DUP4 ADD ADD MSTORE JUMPDEST SWAP7 SWAP6 POP POP POP POP POP POP JUMP JUMPDEST PUSH1 0x0 DUP1 PUSH1 0x0 PUSH1 0x60 DUP5 DUP7 SUB SLT ISZERO PUSH3 0x91C JUMPI PUSH1 0x0 DUP1 REVERT JUMPDEST DUP4 MLOAD PUSH1 0x1 PUSH1 0x1 PUSH1 0x40 SHL SUB DUP1 DUP3 GT ISZERO PUSH3 0x934 JUMPI PUSH1 0x0 DUP1 REVERT JUMPDEST PUSH3 0x942 DUP8 DUP4 DUP9 ADD PUSH3 0x84F JUMP JUMPDEST SWAP5 POP PUSH1 0x20 DUP7 ADD MLOAD SWAP2 POP DUP1 DUP3 GT ISZERO PUSH3 0x959 JUMPI PUSH1 0x0 DUP1 REVERT JUMPDEST PUSH3 0x967 DUP8 DUP4 DUP9 ADD PUSH3 0x84F JUMP JUMPDEST SWAP4 POP PUSH1 0x40 DUP7 ADD MLOAD SWAP2 POP DUP1 DUP3 GT ISZERO PUSH3 0x97E JUMPI PUSH1 0x0 DUP1 REVERT JUMPDEST POP PUSH3 0x98D DUP7 DUP3 DUP8 ADD PUSH3 0x84F JUMP JUMPDEST SWAP2 POP POP SWAP3 POP SWAP3 POP SWAP3 JUMP JUMPDEST PUSH1 0x0 PUSH1 0x20 DUP3 DUP5 SUB SLT ISZERO PUSH3 0x9AA JUMPI PUSH1 0x0 DUP1 REVERT JUMPDEST DUP2 MLOAD DUP1 ISZERO ISZERO DUP2 EQ PUSH3 0x9BB JUMPI PUSH1 0x0 DUP1 REVERT JUMPDEST SWAP4 SWAP3 POP POP POP JUMP JUMPDEST PUSH4 0x4E487B71 PUSH1 0xE0 SHL PUSH1 0x0 MSTORE PUSH1 0x21 PUSH1 0x4 MSTORE PUSH1 0x24 PUSH1 0x0 REVERT JUMPDEST PUSH1 0x0 PUSH1 0x0 NOT DUP3 EQ ISZERO PUSH3 0x9FB JUMPI PUSH4 0x4E487B71 PUSH1 0xE0 SHL PUSH1 0x0 MSTORE PUSH1 0x11 PUSH1 0x4 MSTORE PUSH1 0x24 PUSH1 0x0 REVERT JUMPDEST POP PUSH1 0x1 ADD SWAP1 JUMP JUMPDEST PUSH1 0x1 DUP2 DUP2 SHR SWAP1 DUP3 AND DUP1 PUSH3 0xA17 JUMPI PUSH1 0x7F DUP3 AND SWAP2 POP JUMPDEST PUSH1 0x20 DUP3 LT DUP2 EQ ISZERO PUSH3 0xA39 JUMPI PUSH4 0x4E487B71 PUSH1 0xE0 SHL PUSH1 0x0 MSTORE PUSH1 0x22 PUSH1 0x4 MSTORE PUSH1 0x24 PUSH1 0x0 REVERT JUMPDEST POP SWAP2 SWAP1 POP JUMP JUMPDEST PUSH2 0x1F1A DUP1 PUSH3 0xA4F PUSH1 0x0 CODECOPY PUSH1 0x0 RETURN INVALID PUSH1 0x80 PUSH1 0x40 MSTORE CALLVALUE DUP1 ISZERO PUSH2 0x10 JUMPI PUSH1 0x0 DUP1 REVERT JUMPDEST POP PUSH1 0x4 CALLDATASIZE LT PUSH2 0xF5 JUMPI PUSH1 0x0 CALLDATALOAD PUSH1 0xE0 SHR DUP1 PUSH4 0x6F77926B GT PUSH2 0x97 JUMPI DUP1 PUSH4 0xD3A5059A GT PUSH2 0x66 JUMPI DUP1 PUSH4 0xD3A5059A EQ PUSH2 0x1FA JUMPI DUP1 PUSH4 0xDEE94B4A EQ PUSH2 0x20D JUMPI DUP1 PUSH4 0xE8621E59 EQ PUSH2 0x220 JUMPI DUP1 PUSH4 0xFA4D7AAE EQ PUSH2 0x233 JUMPI PUSH1 0x0 DUP1 REVERT JUMPDEST DUP1 PUSH4 0x6F77926B EQ PUSH2 0x189 JUMPI DUP1 PUSH4 0x82A62137 EQ PUSH2 0x1A9 JUMPI DUP1 PUSH4 0x8DA5CB5B EQ PUSH2 0x1BC JUMPI DUP1 PUSH4 0xB74866FB EQ PUSH2 0x1E7 JUMPI PUSH1 0x0 DUP1 REVERT JUMPDEST DUP1 PUSH4 0x22FAA41F GT PUSH2 0xD3 JUMPI DUP1 PUSH4 0x22FAA41F EQ PUSH2 0x14A JUMPI DUP1 PUSH4 0x247AE7A3 EQ PUSH2 0x15B JUMPI DUP1 PUSH4 0x297027D5 EQ PUSH2 0x163 JUMPI DUP1 PUSH4 0x630A195B EQ PUSH2 0x176 JUMPI PUSH1 0x0 DUP1 REVERT JUMPDEST DUP1 PUSH4 0x56909B7 EQ PUSH2 0xFA JUMPI DUP1 PUSH4 0xE666E49 EQ PUSH2 0x122 JUMPI DUP1 PUSH4 0x130CB5F0 EQ PUSH2 0x135 JUMPI JUMPDEST PUSH1 0x0 DUP1 REVERT JUMPDEST PUSH2 0x10D PUSH2 0x108 CALLDATASIZE PUSH1 0x4 PUSH2 0x1B04 JUMP JUMPDEST PUSH2 0x246 JUMP JUMPDEST PUSH1 0x40 MLOAD SWAP1 ISZERO ISZERO DUP2 MSTORE PUSH1 0x20 ADD JUMPDEST PUSH1 0x40 MLOAD DUP1 SWAP2 SUB SWAP1 RETURN JUMPDEST PUSH2 0x10D PUSH2 0x130 CALLDATASIZE PUSH1 0x4 PUSH2 0x1B04 JUMP JUMPDEST PUSH2 0x259 JUMP JUMPDEST PUSH2 0x148 PUSH2 0x143 CALLDATASIZE PUSH1 0x4 PUSH2 0x1B04 JUMP JUMPDEST PUSH2 0x4B7 JUMP JUMPDEST STOP JUMPDEST PUSH1 0x0 SLOAD PUSH1 0x40 MLOAD SWAP1 DUP2 MSTORE PUSH1 0x20 ADD PUSH2 0x119 JUMP JUMPDEST PUSH2 0x148 PUSH2 0x56D JUMP JUMPDEST PUSH2 0x10D PUSH2 0x171 CALLDATASIZE PUSH1 0x4 PUSH2 0x1B04 JUMP JUMPDEST PUSH2 0xD51 JUMP JUMPDEST PUSH2 0x148 PUSH2 0x184 CALLDATASIZE PUSH1 0x4 PUSH2 0x1B26 JUMP JUMPDEST PUSH2 0xD5E JUMP JUMPDEST PUSH2 0x19C PUSH2 0x197 CALLDATASIZE PUSH1 0x4 PUSH2 0x1B04 JUMP JUMPDEST PUSH2 0xEF8 JUMP JUMPDEST PUSH1 0x40 MLOAD PUSH2 0x119 SWAP2 SWAP1 PUSH2 0x1BAE JUMP JUMPDEST PUSH2 0x148 PUSH2 0x1B7 CALLDATASIZE PUSH1 0x4 PUSH2 0x1B04 JUMP JUMPDEST PUSH2 0x11E4 JUMP JUMPDEST PUSH1 0x1 SLOAD PUSH2 0x1CF SWAP1 PUSH1 0x1 PUSH1 0x1 PUSH1 0xA0 SHL SUB AND DUP2 JUMP JUMPDEST PUSH1 0x40 MLOAD PUSH1 0x1 PUSH1 0x1 PUSH1 0xA0 SHL SUB SWAP1 SWAP2 AND DUP2 MSTORE PUSH1 0x20 ADD PUSH2 0x119 JUMP JUMPDEST PUSH2 0x148 PUSH2 0x1F5 CALLDATASIZE PUSH1 0x4 PUSH2 0x1B26 JUMP JUMPDEST PUSH2 0x130C JUMP JUMPDEST PUSH2 0x148 PUSH2 0x208 CALLDATASIZE PUSH1 0x4 PUSH2 0x1B04 JUMP JUMPDEST PUSH2 0x1493 JUMP JUMPDEST PUSH2 0x148 PUSH2 0x21B CALLDATASIZE PUSH1 0x4 PUSH2 0x1D09 JUMP JUMPDEST PUSH2 0x1544 JUMP JUMPDEST PUSH2 0x10D PUSH2 0x22E CALLDATASIZE PUSH1 0x4 PUSH2 0x1B04 JUMP JUMPDEST PUSH2 0x1705 JUMP JUMPDEST PUSH2 0x10D PUSH2 0x241 CALLDATASIZE PUSH1 0x4 PUSH2 0x1B04 JUMP JUMPDEST PUSH2 0x1712 JUMP JUMPDEST PUSH1 0x0 PUSH2 0x253 DUP3 PUSH1 0x2 PUSH2 0x171B JUMP JUMPDEST SWAP3 SWAP2 POP POP JUMP JUMPDEST PUSH1 0x1 PUSH1 0x1 PUSH1 0xA0 SHL SUB DUP1 DUP3 AND PUSH1 0x0 SWAP1 DUP2 MSTORE PUSH1 0x2 PUSH1 0x20 SWAP1 DUP2 MSTORE PUSH1 0x40 DUP1 DUP4 KECCAK256 DUP2 MLOAD PUSH1 0xC0 DUP2 ADD SWAP1 SWAP3 MSTORE DUP1 SLOAD SWAP1 SWAP5 AND DUP2 MSTORE PUSH1 0x1 DUP5 ADD DUP1 SLOAD SWAP4 SWAP5 DUP6 SWAP5 SWAP3 SWAP4 SWAP1 SWAP3 SWAP1 DUP5 ADD SWAP2 SWAP1 PUSH2 0x2A1 SWAP1 PUSH2 0x1DA2 JUMP JUMPDEST DUP1 PUSH1 0x1F ADD PUSH1 0x20 DUP1 SWAP2 DIV MUL PUSH1 0x20 ADD PUSH1 0x40 MLOAD SWAP1 DUP2 ADD PUSH1 0x40 MSTORE DUP1 SWAP3 SWAP2 SWAP1 DUP2 DUP2 MSTORE PUSH1 0x20 ADD DUP3 DUP1 SLOAD PUSH2 0x2CD SWAP1 PUSH2 0x1DA2 JUMP JUMPDEST DUP1 ISZERO PUSH2 0x31A JUMPI DUP1 PUSH1 0x1F LT PUSH2 0x2EF JUMPI PUSH2 0x100 DUP1 DUP4 SLOAD DIV MUL DUP4 MSTORE SWAP2 PUSH1 0x20 ADD SWAP2 PUSH2 0x31A JUMP JUMPDEST DUP3 ADD SWAP2 SWAP1 PUSH1 0x0 MSTORE PUSH1 0x20 PUSH1 0x0 KECCAK256 SWAP1 JUMPDEST DUP2 SLOAD DUP2 MSTORE SWAP1 PUSH1 0x1 ADD SWAP1 PUSH1 0x20 ADD DUP1 DUP4 GT PUSH2 0x2FD JUMPI DUP3 SWAP1 SUB PUSH1 0x1F AND DUP3 ADD SWAP2 JUMPDEST POP POP POP POP POP DUP2 MSTORE PUSH1 0x20 ADD PUSH1 0x2 DUP3 ADD DUP1 SLOAD PUSH2 0x333 SWAP1 PUSH2 0x1DA2 JUMP JUMPDEST DUP1 PUSH1 0x1F ADD PUSH1 0x20 DUP1 SWAP2 DIV MUL PUSH1 0x20 ADD PUSH1 0x40 MLOAD SWAP1 DUP2 ADD PUSH1 0x40 MSTORE DUP1 SWAP3 SWAP2 SWAP1 DUP2 DUP2 MSTORE PUSH1 0x20 ADD DUP3 DUP1 SLOAD PUSH2 0x35F SWAP1 PUSH2 0x1DA2 JUMP JUMPDEST DUP1 ISZERO PUSH2 0x3AC JUMPI DUP1 PUSH1 0x1F LT PUSH2 0x381 JUMPI PUSH2 0x100 DUP1 DUP4 SLOAD DIV MUL DUP4 MSTORE SWAP2 PUSH1 0x20 ADD SWAP2 PUSH2 0x3AC JUMP JUMPDEST DUP3 ADD SWAP2 SWAP1 PUSH1 0x0 MSTORE PUSH1 0x20 PUSH1 0x0 KECCAK256 SWAP1 JUMPDEST DUP2 SLOAD DUP2 MSTORE SWAP1 PUSH1 0x1 ADD SWAP1 PUSH1 0x20 ADD DUP1 DUP4 GT PUSH2 0x38F JUMPI DUP3 SWAP1 SUB PUSH1 0x1F AND DUP3 ADD SWAP2 JUMPDEST POP POP POP POP POP DUP2 MSTORE PUSH1 0x20 ADD PUSH1 0x3 DUP3 ADD DUP1 SLOAD PUSH2 0x3C5 SWAP1 PUSH2 0x1DA2 JUMP JUMPDEST DUP1 PUSH1 0x1F ADD PUSH1 0x20 DUP1 SWAP2 DIV MUL PUSH1 0x20 ADD PUSH1 0x40 MLOAD SWAP1 DUP2 ADD PUSH1 0x40 MSTORE DUP1 SWAP3 SWAP2 SWAP1 DUP2 DUP2 MSTORE PUSH1 0x20 ADD DUP3 DUP1 SLOAD PUSH2 0x3F1 SWAP1 PUSH2 0x1DA2 JUMP JUMPDEST DUP1 ISZERO PUSH2 0x43E JUMPI DUP1 PUSH1 0x1F LT PUSH2 0x413 JUMPI PUSH2 0x100 DUP1 DUP4 SLOAD DIV MUL DUP4 MSTORE SWAP2 PUSH1 0x20 ADD SWAP2 PUSH2 0x43E JUMP JUMPDEST DUP3 ADD SWAP2 SWAP1 PUSH1 0x0 MSTORE PUSH1 0x20 PUSH1 0x0 KECCAK256 SWAP1 JUMPDEST DUP2 SLOAD DUP2 MSTORE SWAP1 PUSH1 0x1 ADD SWAP1 PUSH1 0x20 ADD DUP1 DUP4 GT PUSH2 0x421 JUMPI DUP3 SWAP1 SUB PUSH1 0x1F AND DUP3 ADD SWAP2 JUMPDEST POP POP POP SWAP2 DUP4 MSTORE POP POP PUSH1 0x4 DUP3 ADD SLOAD PUSH1 0xFF SWAP1 DUP2 AND ISZERO ISZERO PUSH1 0x20 DUP1 DUP5 ADD SWAP2 SWAP1 SWAP2 MSTORE PUSH1 0x40 DUP1 MLOAD PUSH1 0x80 DUP2 ADD DUP3 MSTORE PUSH1 0x5 SWAP1 SWAP6 ADD SLOAD DUP1 DUP5 AND ISZERO ISZERO DUP7 MSTORE PUSH2 0x100 DUP2 DIV DUP5 AND ISZERO ISZERO SWAP3 DUP7 ADD SWAP3 SWAP1 SWAP3 MSTORE PUSH3 0x10000 DUP3 DIV DUP4 AND ISZERO ISZERO DUP6 DUP3 ADD MSTORE PUSH4 0x1000000 SWAP1 SWAP2 DIV SWAP1 SWAP2 AND ISZERO ISZERO PUSH1 0x60 DUP5 ADD MSTORE ADD MSTORE MLOAD PUSH1 0x1 PUSH1 0x1 PUSH1 0xA0 SHL SUB AND ISZERO ISZERO SWAP4 SWAP3 POP POP POP JUMP JUMPDEST PUSH1 0x1 PUSH1 0x1 PUSH1 0xA0 SHL SUB DUP1 DUP3 AND PUSH1 0x0 SWAP1 DUP2 MSTORE PUSH1 0x2 PUSH1 0x20 MSTORE PUSH1 0x40 SWAP1 KECCAK256 SLOAD DUP3 SWAP2 AND PUSH2 0x4F9 JUMPI PUSH1 0x40 MLOAD PUSH3 0x461BCD PUSH1 0xE5 SHL DUP2 MSTORE PUSH1 0x4 ADD PUSH2 0x4F0 SWAP1 PUSH2 0x1DDD JUMP JUMPDEST PUSH1 0x40 MLOAD DUP1 SWAP2 SUB SWAP1 REVERT JUMPDEST PUSH1 0x1 PUSH1 0x1 PUSH1 0xA0 SHL SUB DUP3 AND PUSH1 0x0 SWAP1 DUP2 MSTORE PUSH1 0x3 PUSH1 0x20 MSTORE PUSH1 0x40 SWAP1 KECCAK256 SLOAD PUSH1 0xFF AND ISZERO PUSH2 0x569 JUMPI PUSH1 0x1 PUSH1 0x1 PUSH1 0xA0 SHL SUB DUP3 AND PUSH1 0x0 SWAP1 DUP2 MSTORE PUSH1 0x2 PUSH1 0x20 SWAP1 DUP2 MSTORE PUSH1 0x40 DUP1 DUP4 KECCAK256 PUSH1 0x4 DUP2 ADD DUP1 SLOAD PUSH1 0xFF NOT SWAP1 DUP2 AND SWAP1 SWAP2 SSTORE PUSH1 0x3 SWAP1 SWAP4 MSTORE SWAP1 DUP4 KECCAK256 DUP1 SLOAD SWAP1 SWAP3 AND SWAP1 SWAP2 SSTORE DUP2 SLOAD SWAP1 SWAP2 DUP1 PUSH2 0x562 DUP4 PUSH2 0x1E22 JUMP JUMPDEST SWAP2 SWAP1 POP SSTORE POP POP JUMPDEST POP POP JUMP JUMPDEST PUSH1 0x0 PUSH1 0x40 MLOAD DUP1 PUSH2 0x140 ADD PUSH1 0x40 MSTORE DUP1 PUSH20 0xAB8483F64D9C6D1ECF9B849AE677DD3315835CB2 PUSH1 0x1 PUSH1 0x1 PUSH1 0xA0 SHL SUB AND PUSH1 0x1 PUSH1 0x1 PUSH1 0xA0 SHL SUB AND DUP2 MSTORE PUSH1 0x20 ADD PUSH20 0x4B20993BC481177EC7E8F571CECAE8A9E22C02DB PUSH1 0x1 PUSH1 0x1 PUSH1 0xA0 SHL SUB AND PUSH1 0x1 PUSH1 0x1 PUSH1 0xA0 SHL SUB AND DUP2 MSTORE PUSH1 0x20 ADD PUSH20 0x78731D3CA6B7E34AC0F824C42A7CC18A495CABAB PUSH1 0x1 PUSH1 0x1 PUSH1 0xA0 SHL SUB AND PUSH1 0x1 PUSH1 0x1 PUSH1 0xA0 SHL SUB AND DUP2 MSTORE PUSH1 0x20 ADD PUSH20 0x617F2E2FD72FD9D5503197092AC168C91465E7F2 PUSH1 0x1 PUSH1 0x1 PUSH1 0xA0 SHL SUB AND PUSH1 0x1 PUSH1 0x1 PUSH1 0xA0 SHL SUB AND DUP2 MSTORE PUSH1 0x20 ADD PUSH20 0x17F6AD8EF982297579C203069C1DBFFE4348C372 PUSH1 0x1 PUSH1 0x1 PUSH1 0xA0 SHL SUB AND PUSH1 0x1 PUSH1 0x1 PUSH1 0xA0 SHL SUB AND DUP2 MSTORE PUSH1 0x20 ADD PUSH20 0x5C6B0F7BF3E7CE046039BD8FABDFD3F9F5021678 PUSH1 0x1 PUSH1 0x1 PUSH1 0xA0 SHL SUB AND PUSH1 0x1 PUSH1 0x1 PUSH1 0xA0 SHL SUB AND DUP2 MSTORE PUSH1 0x20 ADD PUSH20 0x3C6FCED478CBBC9A4FAB34EF9F40767739D1FF7 PUSH1 0x1 PUSH1 0x1 PUSH1 0xA0 SHL SUB AND PUSH1 0x1 PUSH1 0x1 PUSH1 0xA0 SHL SUB AND DUP2 MSTORE PUSH1 0x20 ADD PUSH20 0x1AE0EA34A72D944A8C7603FFB3EC30A6669E454C PUSH1 0x1 PUSH1 0x1 PUSH1 0xA0 SHL SUB AND PUSH1 0x1 PUSH1 0x1 PUSH1 0xA0 SHL SUB AND DUP2 MSTORE PUSH1 0x20 ADD PUSH20 0xCA35B7D915458EF540ADE6068DFE2F44E8FA733C PUSH1 0x1 PUSH1 0x1 PUSH1 0xA0 SHL SUB AND PUSH1 0x1 PUSH1 0x1 PUSH1 0xA0 SHL SUB AND DUP2 MSTORE PUSH1 0x20 ADD PUSH20 0x14723A09ACFF6D2A60DCDF7AA4AFF308FDDC160C PUSH1 0x1 PUSH1 0x1 PUSH1 0xA0 SHL SUB AND PUSH1 0x1 PUSH1 0x1 PUSH1 0xA0 SHL SUB AND DUP2 MSTORE POP SWAP1 POP PUSH1 0x0 PUSH1 0x40 MLOAD DUP1 PUSH2 0x140 ADD PUSH1 0x40 MSTORE DUP1 PUSH1 0x40 MLOAD DUP1 PUSH1 0x40 ADD PUSH1 0x40 MSTORE DUP1 PUSH1 0x4 DUP2 MSTORE PUSH1 0x20 ADD PUSH4 0x5269636B PUSH1 0xE0 SHL DUP2 MSTORE POP DUP2 MSTORE PUSH1 0x20 ADD PUSH1 0x40 MLOAD DUP1 PUSH1 0x40 ADD PUSH1 0x40 MSTORE DUP1 PUSH1 0x7 DUP2 MSTORE PUSH1 0x20 ADD PUSH7 0x56616E65737361 PUSH1 0xC8 SHL DUP2 MSTORE POP DUP2 MSTORE PUSH1 0x20 ADD PUSH1 0x40 MLOAD DUP1 PUSH1 0x40 ADD PUSH1 0x40 MSTORE DUP1 PUSH1 0x4 DUP2 MSTORE PUSH1 0x20 ADD PUSH4 0x82D8CAF PUSH1 0xE3 SHL DUP2 MSTORE POP DUP2 MSTORE PUSH1 0x20 ADD PUSH1 0x40 MLOAD DUP1 PUSH1 0x40 ADD PUSH1 0x40 MSTORE DUP1 PUSH1 0x4 DUP2 MSTORE PUSH1 0x20 ADD PUSH4 0x56696369 PUSH1 0xE0 SHL DUP2 MSTORE POP DUP2 MSTORE PUSH1 0x20 ADD PUSH1 0x40 MLOAD DUP1 PUSH1 0x40 ADD PUSH1 0x40 MSTORE DUP1 PUSH1 0x2 DUP2 MSTORE PUSH1 0x20 ADD PUSH2 0x4C75 PUSH1 0xF0 SHL DUP2 MSTORE POP DUP2 MSTORE PUSH1 0x20 ADD PUSH1 0x40 MLOAD DUP1 PUSH1 0x40 ADD PUSH1 0x40 MSTORE DUP1 PUSH1 0x4 DUP2 MSTORE PUSH1 0x20 ADD PUSH4 0x2537B437 PUSH1 0xE1 SHL DUP2 MSTORE POP DUP2 MSTORE PUSH1 0x20 ADD PUSH1 0x40 MLOAD DUP1 PUSH1 0x40 ADD PUSH1 0x40 MSTORE DUP1 PUSH1 0x5 DUP2 MSTORE PUSH1 0x20 ADD PUSH5 0xA6C2E4C2D PUSH1 0xDB SHL DUP2 MSTORE POP DUP2 MSTORE PUSH1 0x20 ADD PUSH1 0x40 MLOAD DUP1 PUSH1 0x40 ADD PUSH1 0x40 MSTORE DUP1 PUSH1 0x8 DUP2 MSTORE PUSH1 0x20 ADD PUSH8 0x53616D616E746861 PUSH1 0xC0 SHL DUP2 MSTORE POP DUP2 MSTORE PUSH1 0x20 ADD PUSH1 0x40 MLOAD DUP1 PUSH1 0x40 ADD PUSH1 0x40 MSTORE DUP1 PUSH1 0x5 DUP2 MSTORE PUSH1 0x20 ADD PUSH5 0x2832BA32B9 PUSH1 0xD9 SHL DUP2 MSTORE POP DUP2 MSTORE PUSH1 0x20 ADD PUSH1 0x40 MLOAD DUP1 PUSH1 0x40 ADD PUSH1 0x40 MSTORE DUP1 PUSH1 0x5 DUP2 MSTORE PUSH1 0x20 ADD PUSH5 0x11185D9A59 PUSH1 0xDA SHL DUP2 MSTORE POP DUP2 MSTORE POP SWAP1 POP PUSH1 0x0 PUSH1 0x40 MLOAD DUP1 PUSH2 0x140 ADD PUSH1 0x40 MSTORE DUP1 PUSH1 0x40 MLOAD DUP1 PUSH1 0x40 ADD PUSH1 0x40 MSTORE DUP1 PUSH1 0x5 DUP2 MSTORE PUSH1 0x20 ADD PUSH5 0x14185D195B PUSH1 0xDA SHL DUP2 MSTORE POP DUP2 MSTORE PUSH1 0x20 ADD PUSH1 0x40 MLOAD DUP1 PUSH1 0x40 ADD PUSH1 0x40 MSTORE DUP1 PUSH1 0x3 DUP2 MSTORE PUSH1 0x20 ADD PUSH3 0x4B696D PUSH1 0xE8 SHL DUP2 MSTORE POP DUP2 MSTORE PUSH1 0x20 ADD PUSH1 0x40 MLOAD DUP1 PUSH1 0x40 ADD PUSH1 0x40 MSTORE DUP1 PUSH1 0x5 DUP2 MSTORE PUSH1 0x20 ADD PUSH5 0x213937BBB7 PUSH1 0xD9 SHL DUP2 MSTORE POP DUP2 MSTORE PUSH1 0x20 ADD PUSH1 0x40 MLOAD DUP1 PUSH1 0x40 ADD PUSH1 0x40 MSTORE DUP1 PUSH1 0x5 DUP2 MSTORE PUSH1 0x20 ADD PUSH5 0x4461766973 PUSH1 0xD8 SHL DUP2 MSTORE POP DUP2 MSTORE PUSH1 0x20 ADD PUSH1 0x40 MLOAD DUP1 PUSH1 0x40 ADD PUSH1 0x40 MSTORE DUP1 PUSH1 0x8 DUP2 MSTORE PUSH1 0x20 ADD PUSH8 0x26B0B93A34B732BD PUSH1 0xC1 SHL DUP2 MSTORE POP DUP2 MSTORE PUSH1 0x20 ADD PUSH1 0x40 MLOAD DUP1 PUSH1 0x40 ADD PUSH1 0x40 MSTORE DUP1 PUSH1 0x6 DUP2 MSTORE PUSH1 0x20 ADD PUSH6 0x2BB4B639B7B7 PUSH1 0xD1 SHL DUP2 MSTORE POP DUP2 MSTORE PUSH1 0x20 ADD PUSH1 0x40 MLOAD DUP1 PUSH1 0x40 ADD PUSH1 0x40 MSTORE DUP1 PUSH1 0x6 DUP2 MSTORE PUSH1 0x20 ADD PUSH6 0x476172636961 PUSH1 0xD0 SHL DUP2 MSTORE POP DUP2 MSTORE PUSH1 0x20 ADD PUSH1 0x40 MLOAD DUP1 PUSH1 0x40 ADD PUSH1 0x40 MSTORE DUP1 PUSH1 0x5 DUP2 MSTORE PUSH1 0x20 ADD PUSH5 0x4A6F6E6573 PUSH1 0xD8 SHL DUP2 MSTORE POP DUP2 MSTORE PUSH1 0x20 ADD PUSH1 0x40 MLOAD DUP1 PUSH1 0x40 ADD PUSH1 0x40 MSTORE DUP1 PUSH1 0x7 DUP2 MSTORE PUSH1 0x20 ADD PUSH7 0x2530B1B5B9B7B7 PUSH1 0xC9 SHL DUP2 MSTORE POP DUP2 MSTORE PUSH1 0x20 ADD PUSH1 0x40 MLOAD DUP1 PUSH1 0x40 ADD PUSH1 0x40 MSTORE DUP1 PUSH1 0x5 DUP2 MSTORE PUSH1 0x20 ADD PUSH5 0xA6DAD2E8D PUSH1 0xDB SHL DUP2 MSTORE POP DUP2 MSTORE POP SWAP1 POP PUSH1 0x0 PUSH1 0x40 MLOAD DUP1 PUSH2 0x140 ADD PUSH1 0x40 MSTORE DUP1 PUSH1 0x40 MLOAD DUP1 PUSH1 0x40 ADD PUSH1 0x40 MSTORE DUP1 PUSH1 0x12 DUP2 MSTORE PUSH1 0x20 ADD PUSH18 0x5269636B2E506174656C40706F722E636F6D PUSH1 0x70 SHL DUP2 MSTORE POP DUP2 MSTORE PUSH1 0x20 ADD PUSH1 0x40 MLOAD DUP1 PUSH1 0x40 ADD PUSH1 0x40 MSTORE DUP1 PUSH1 0x13 DUP2 MSTORE PUSH1 0x20 ADD PUSH19 0x56616E657373612E4B696D40706F722E636F6D PUSH1 0x68 SHL DUP2 MSTORE POP DUP2 MSTORE PUSH1 0x20 ADD PUSH1 0x40 MLOAD DUP1 PUSH1 0x40 ADD PUSH1 0x40 MSTORE DUP1 PUSH1 0x12 DUP2 MSTORE PUSH1 0x20 ADD PUSH18 0x416C65782E42726F776E40706F722E636F6D PUSH1 0x70 SHL DUP2 MSTORE POP DUP2 MSTORE PUSH1 0x20 ADD PUSH1 0x40 MLOAD DUP1 PUSH1 0x40 ADD PUSH1 0x40 MSTORE DUP1 PUSH1 0x12 DUP2 MSTORE PUSH1 0x20 ADD PUSH18 0x566963692E446176697340706F722E636F6D PUSH1 0x70 SHL DUP2 MSTORE POP DUP2 MSTORE PUSH1 0x20 ADD PUSH1 0x40 MLOAD DUP1 PUSH1 0x40 ADD PUSH1 0x40 MSTORE DUP1 PUSH1 0x13 DUP2 MSTORE PUSH1 0x20 ADD PUSH19 0x4C752E4D617274696E657A40706F722E636F6D PUSH1 0x68 SHL DUP2 MSTORE POP DUP2 MSTORE PUSH1 0x20 ADD PUSH1 0x40 MLOAD DUP1 PUSH1 0x40 ADD PUSH1 0x40 MSTORE DUP1 PUSH1 0x13 DUP2 MSTORE PUSH1 0x20 ADD PUSH19 0x4A6F686E2E57696C736F6E40706F722E636F6D PUSH1 0x68 SHL DUP2 MSTORE POP DUP2 MSTORE PUSH1 0x20 ADD PUSH1 0x40 MLOAD DUP1 PUSH1 0x40 ADD PUSH1 0x40 MSTORE DUP1 PUSH1 0x14 DUP2 MSTORE PUSH1 0x20 ADD PUSH20 0x53617261682E47617263696140706F722E636F6D PUSH1 0x60 SHL DUP2 MSTORE POP DUP2 MSTORE PUSH1 0x20 ADD PUSH1 0x40 MLOAD DUP1 PUSH1 0x40 ADD PUSH1 0x40 MSTORE DUP1 PUSH1 0x16 DUP2 MSTORE PUSH1 0x20 ADD PUSH22 0x53616D616E7468612E4A6F6E657340706F722E636F6D PUSH1 0x50 SHL DUP2 MSTORE POP DUP2 MSTORE PUSH1 0x20 ADD PUSH1 0x40 MLOAD DUP1 PUSH1 0x40 ADD PUSH1 0x40 MSTORE DUP1 PUSH1 0x15 DUP2 MSTORE PUSH1 0x20 ADD PUSH21 0x50657465722E4A61636B736F6E40706F722E636F6D PUSH1 0x58 SHL DUP2 MSTORE POP DUP2 MSTORE PUSH1 0x20 ADD PUSH1 0x40 MLOAD DUP1 PUSH1 0x40 ADD PUSH1 0x40 MSTORE DUP1 PUSH1 0x13 DUP2 MSTORE PUSH1 0x20 ADD PUSH19 0x44617669642E536D69746840706F722E636F6D PUSH1 0x68 SHL DUP2 MSTORE POP DUP2 MSTORE POP SWAP1 POP PUSH1 0x0 JUMPDEST PUSH1 0xA DUP2 LT ISZERO PUSH2 0xD4A JUMPI PUSH1 0x0 DUP6 DUP3 PUSH1 0xA DUP2 LT PUSH2 0xC29 JUMPI PUSH2 0xC29 PUSH2 0x1E39 JUMP JUMPDEST PUSH1 0x20 MUL ADD MLOAD PUSH1 0x40 MLOAD PUSH4 0xE666E49 PUSH1 0xE0 SHL DUP2 MSTORE PUSH1 0x1 PUSH1 0x1 PUSH1 0xA0 SHL SUB DUP3 AND PUSH1 0x4 DUP3 ADD MSTORE SWAP1 SWAP2 POP ADDRESS SWAP1 PUSH4 0xE666E49 SWAP1 PUSH1 0x24 ADD PUSH1 0x20 PUSH1 0x40 MLOAD DUP1 DUP4 SUB DUP2 DUP7 GAS STATICCALL ISZERO DUP1 ISZERO PUSH2 0xC75 JUMPI RETURNDATASIZE PUSH1 0x0 DUP1 RETURNDATACOPY RETURNDATASIZE PUSH1 0x0 REVERT JUMPDEST POP POP POP POP PUSH1 0x40 MLOAD RETURNDATASIZE PUSH1 0x1F NOT PUSH1 0x1F DUP3 ADD AND DUP3 ADD DUP1 PUSH1 0x40 MSTORE POP DUP2 ADD SWAP1 PUSH2 0xC99 SWAP2 SWAP1 PUSH2 0x1E4F JUMP JUMPDEST PUSH2 0xD37 JUMPI PUSH2 0xCEB DUP2 DUP7 DUP5 PUSH1 0xA DUP2 LT PUSH2 0xCB3 JUMPI PUSH2 0xCB3 PUSH2 0x1E39 JUMP JUMPDEST PUSH1 0x20 MUL ADD MLOAD DUP7 DUP6 PUSH1 0xA DUP2 LT PUSH2 0xCCA JUMPI PUSH2 0xCCA PUSH2 0x1E39 JUMP JUMPDEST PUSH1 0x20 MUL ADD MLOAD DUP7 DUP7 PUSH1 0xA DUP2 LT PUSH2 0xCE1 JUMPI PUSH2 0xCE1 PUSH2 0x1E39 JUMP JUMPDEST PUSH1 0x20 MUL ADD MLOAD PUSH2 0x1544 JUMP JUMPDEST PUSH2 0xCF6 DUP2 PUSH1 0x2 PUSH2 0xD5E JUMP JUMPDEST PUSH2 0xD01 DUP2 PUSH1 0x3 PUSH2 0x130C JUMP JUMPDEST PUSH1 0x2 DUP3 LT ISZERO PUSH2 0xD1A JUMPI PUSH2 0xD15 DUP2 PUSH1 0x0 PUSH2 0xD5E JUMP JUMPDEST PUSH2 0xD2E JUMP JUMPDEST PUSH1 0x4 DUP3 LT ISZERO PUSH2 0xD2E JUMPI PUSH2 0xD2E DUP2 PUSH1 0x1 PUSH2 0xD5E JUMP JUMPDEST PUSH2 0xD37 DUP2 PUSH2 0x11E4 JUMP JUMPDEST POP DUP1 PUSH2 0xD42 DUP2 PUSH2 0x1E71 JUMP JUMPDEST SWAP2 POP POP PUSH2 0xC0C JUMP JUMPDEST POP POP POP POP POP JUMP JUMPDEST PUSH1 0x0 PUSH2 0x253 DUP3 PUSH1 0x0 PUSH2 0x171B JUMP JUMPDEST PUSH1 0x1 SLOAD PUSH1 0x1 PUSH1 0x1 PUSH1 0xA0 SHL SUB AND CALLER EQ DUP1 PUSH2 0xDD1 JUMPI POP PUSH1 0x40 MLOAD PUSH4 0x297027D5 PUSH1 0xE0 SHL DUP2 MSTORE CALLER PUSH1 0x4 DUP3 ADD MSTORE ADDRESS SWAP1 PUSH4 0x297027D5 SWAP1 PUSH1 0x24 ADD PUSH1 0x20 PUSH1 0x40 MLOAD DUP1 DUP4 SUB DUP2 DUP7 GAS STATICCALL ISZERO DUP1 ISZERO PUSH2 0xDAD JUMPI RETURNDATASIZE PUSH1 0x0 DUP1 RETURNDATACOPY RETURNDATASIZE PUSH1 0x0 REVERT JUMPDEST POP POP POP POP PUSH1 0x40 MLOAD RETURNDATASIZE PUSH1 0x1F NOT PUSH1 0x1F DUP3 ADD AND DUP3 ADD DUP1 PUSH1 0x40 MSTORE POP DUP2 ADD SWAP1 PUSH2 0xDD1 SWAP2 SWAP1 PUSH2 0x1E4F JUMP JUMPDEST PUSH2 0xDED JUMPI PUSH1 0x40 MLOAD PUSH3 0x461BCD PUSH1 0xE5 SHL DUP2 MSTORE PUSH1 0x4 ADD PUSH2 0x4F0 SWAP1 PUSH2 0x1E8C JUMP JUMPDEST PUSH1 0x1 PUSH1 0x1 PUSH1 0xA0 SHL SUB DUP1 DUP4 AND PUSH1 0x0 SWAP1 DUP2 MSTORE PUSH1 0x2 PUSH1 0x20 MSTORE PUSH1 0x40 SWAP1 KECCAK256 SLOAD DUP4 SWAP2 AND PUSH2 0xE26 JUMPI PUSH1 0x40 MLOAD PUSH3 0x461BCD PUSH1 0xE5 SHL DUP2 MSTORE PUSH1 0x4 ADD PUSH2 0x4F0 SWAP1 PUSH2 0x1DDD JUMP JUMPDEST PUSH1 0x1 PUSH1 0x1 PUSH1 0xA0 SHL SUB DUP4 AND PUSH1 0x0 SWAP1 DUP2 MSTORE PUSH1 0x2 PUSH1 0x20 MSTORE PUSH1 0x40 DUP2 KECCAK256 SWAP1 PUSH1 0x5 DUP3 ADD SWAP1 DUP5 PUSH1 0x3 DUP2 GT ISZERO PUSH2 0xE56 JUMPI PUSH2 0xE56 PUSH2 0x1ECE JUMP JUMPDEST EQ ISZERO PUSH2 0xE6C JUMPI DUP1 SLOAD PUSH1 0xFF NOT AND PUSH1 0x1 OR DUP2 SSTORE PUSH2 0xD4A JUMP JUMPDEST PUSH1 0x1 DUP5 PUSH1 0x3 DUP2 GT ISZERO PUSH2 0xE80 JUMPI PUSH2 0xE80 PUSH2 0x1ECE JUMP JUMPDEST EQ ISZERO PUSH2 0xE98 JUMPI DUP1 SLOAD PUSH2 0xFF00 NOT AND PUSH2 0x100 OR DUP2 SSTORE PUSH2 0xD4A JUMP JUMPDEST PUSH1 0x2 DUP5 PUSH1 0x3 DUP2 GT ISZERO PUSH2 0xEAC JUMPI PUSH2 0xEAC PUSH2 0x1ECE JUMP JUMPDEST EQ ISZERO PUSH2 0xEC6 JUMPI DUP1 SLOAD PUSH3 0xFF0000 NOT AND PUSH3 0x10000 OR DUP2 SSTORE PUSH2 0xD4A JUMP JUMPDEST PUSH1 0x3 DUP5 PUSH1 0x3 DUP2 GT ISZERO PUSH2 0xEDA JUMPI PUSH2 0xEDA PUSH2 0x1ECE JUMP JUMPDEST EQ ISZERO PUSH2 0xD4A JUMPI DUP1 SLOAD PUSH4 0xFF000000 NOT AND PUSH4 0x1000000 OR DUP2 SSTORE POP POP POP POP POP JUMP JUMPDEST PUSH2 0xF4A PUSH1 0x40 DUP1 MLOAD PUSH1 0xC0 DUP2 ADD DUP3 MSTORE PUSH1 0x0 DUP1 DUP3 MSTORE PUSH1 0x60 PUSH1 0x20 DUP1 DUP5 ADD DUP3 SWAP1 MSTORE DUP4 DUP6 ADD DUP3 SWAP1 MSTORE DUP2 DUP5 ADD DUP3 SWAP1 MSTORE PUSH1 0x80 DUP1 DUP6 ADD DUP5 SWAP1 MSTORE DUP6 MLOAD SWAP1 DUP2 ADD DUP7 MSTORE DUP4 DUP2 MSTORE SWAP1 DUP2 ADD DUP4 SWAP1 MSTORE SWAP4 DUP5 ADD DUP3 SWAP1 MSTORE DUP4 ADD MSTORE SWAP1 PUSH1 0xA0 DUP3 ADD MSTORE SWAP1 JUMP JUMPDEST PUSH1 0x1 PUSH1 0x1 PUSH1 0xA0 SHL SUB DUP1 DUP4 AND PUSH1 0x0 SWAP1 DUP2 MSTORE PUSH1 0x2 PUSH1 0x20 SWAP1 DUP2 MSTORE PUSH1 0x40 DUP1 DUP4 KECCAK256 DUP2 MLOAD PUSH1 0xC0 DUP2 ADD SWAP1 SWAP3 MSTORE DUP1 SLOAD SWAP1 SWAP5 AND DUP2 MSTORE PUSH1 0x1 DUP5 ADD DUP1 SLOAD SWAP4 SWAP5 SWAP2 SWAP4 SWAP2 SWAP3 DUP5 ADD SWAP2 PUSH2 0xF8E SWAP1 PUSH2 0x1DA2 JUMP JUMPDEST DUP1 PUSH1 0x1F ADD PUSH1 0x20 DUP1 SWAP2 DIV MUL PUSH1 0x20 ADD PUSH1 0x40 MLOAD SWAP1 DUP2 ADD PUSH1 0x40 MSTORE DUP1 SWAP3 SWAP2 SWAP1 DUP2 DUP2 MSTORE PUSH1 0x20 ADD DUP3 DUP1 SLOAD PUSH2 0xFBA SWAP1 PUSH2 0x1DA2 JUMP JUMPDEST DUP1 ISZERO PUSH2 0x1007 JUMPI DUP1 PUSH1 0x1F LT PUSH2 0xFDC JUMPI PUSH2 0x100 DUP1 DUP4 SLOAD DIV MUL DUP4 MSTORE SWAP2 PUSH1 0x20 ADD SWAP2 PUSH2 0x1007 JUMP JUMPDEST DUP3 ADD SWAP2 SWAP1 PUSH1 0x0 MSTORE PUSH1 0x20 PUSH1 0x0 KECCAK256 SWAP1 JUMPDEST DUP2 SLOAD DUP2 MSTORE SWAP1 PUSH1 0x1 ADD SWAP1 PUSH1 0x20 ADD DUP1 DUP4 GT PUSH2 0xFEA JUMPI DUP3 SWAP1 SUB PUSH1 0x1F AND DUP3 ADD SWAP2 JUMPDEST POP POP POP POP POP DUP2 MSTORE PUSH1 0x20 ADD PUSH1 0x2 DUP3 ADD DUP1 SLOAD PUSH2 0x1020 SWAP1 PUSH2 0x1DA2 JUMP JUMPDEST DUP1 PUSH1 0x1F ADD PUSH1 0x20 DUP1 SWAP2 DIV MUL PUSH1 0x20 ADD PUSH1 0x40 MLOAD SWAP1 DUP2 ADD PUSH1 0x40 MSTORE DUP1 SWAP3 SWAP2 SWAP1 DUP2 DUP2 MSTORE PUSH1 0x20 ADD DUP3 DUP1 SLOAD PUSH2 0x104C SWAP1 PUSH2 0x1DA2 JUMP JUMPDEST DUP1 ISZERO PUSH2 0x1099 JUMPI DUP1 PUSH1 0x1F LT PUSH2 0x106E JUMPI PUSH2 0x100 DUP1 DUP4 SLOAD DIV MUL DUP4 MSTORE SWAP2 PUSH1 0x20 ADD SWAP2 PUSH2 0x1099 JUMP JUMPDEST DUP3 ADD SWAP2 SWAP1 PUSH1 0x0 MSTORE PUSH1 0x20 PUSH1 0x0 KECCAK256 SWAP1 JUMPDEST DUP2 SLOAD DUP2 MSTORE SWAP1 PUSH1 0x1 ADD SWAP1 PUSH1 0x20 ADD DUP1 DUP4 GT PUSH2 0x107C JUMPI DUP3 SWAP1 SUB PUSH1 0x1F AND DUP3 ADD SWAP2 JUMPDEST POP POP POP POP POP DUP2 MSTORE PUSH1 0x20 ADD PUSH1 0x3 DUP3 ADD DUP1 SLOAD PUSH2 0x10B2 SWAP1 PUSH2 0x1DA2 JUMP JUMPDEST DUP1 PUSH1 0x1F ADD PUSH1 0x20 DUP1 SWAP2 DIV MUL PUSH1 0x20 ADD PUSH1 0x40 MLOAD SWAP1 DUP2 ADD PUSH1 0x40 MSTORE DUP1 SWAP3 SWAP2 SWAP1 DUP2 DUP2 MSTORE PUSH1 0x20 ADD DUP3 DUP1 SLOAD PUSH2 0x10DE SWAP1 PUSH2 0x1DA2 JUMP JUMPDEST DUP1 ISZERO PUSH2 0x112B JUMPI DUP1 PUSH1 0x1F LT PUSH2 0x1100 JUMPI PUSH2 0x100 DUP1 DUP4 SLOAD DIV MUL DUP4 MSTORE SWAP2 PUSH1 0x20 ADD SWAP2 PUSH2 0x112B JUMP JUMPDEST DUP3 ADD SWAP2 SWAP1 PUSH1 0x0 MSTORE PUSH1 0x20 PUSH1 0x0 KECCAK256 SWAP1 JUMPDEST DUP2 SLOAD DUP2 MSTORE SWAP1 PUSH1 0x1 ADD SWAP1 PUSH1 0x20 ADD DUP1 DUP4 GT PUSH2 0x110E JUMPI DUP3 SWAP1 SUB PUSH1 0x1F AND DUP3 ADD SWAP2 JUMPDEST POP POP POP SWAP2 DUP4 MSTORE POP POP PUSH1 0x4 DUP3 ADD SLOAD PUSH1 0xFF SWAP1 DUP2 AND ISZERO ISZERO PUSH1 0x20 DUP1 DUP5 ADD SWAP2 SWAP1 SWAP2 MSTORE PUSH1 0x40 DUP1 MLOAD PUSH1 0x80 DUP2 ADD DUP3 MSTORE PUSH1 0x5 SWAP1 SWAP6 ADD SLOAD DUP1 DUP5 AND ISZERO ISZERO DUP7 MSTORE PUSH2 0x100 DUP2 DIV DUP5 AND ISZERO ISZERO SWAP3 DUP7 ADD SWAP3 SWAP1 SWAP3 MSTORE PUSH3 0x10000 DUP3 DIV DUP4 AND ISZERO ISZERO DUP6 DUP3 ADD MSTORE PUSH4 0x1000000 SWAP1 SWAP2 DIV SWAP1 SWAP2 AND ISZERO ISZERO PUSH1 0x60 DUP5 ADD MSTORE ADD MSTORE DUP1 MLOAD SWAP1 SWAP2 POP PUSH1 0x1 PUSH1 0x1 PUSH1 0xA0 SHL SUB AND ISZERO PUSH2 0x11AA JUMPI SWAP3 SWAP2 POP POP JUMP JUMPDEST PUSH1 0x40 MLOAD PUSH3 0x461BCD PUSH1 0xE5 SHL DUP2 MSTORE PUSH1 0x20 PUSH1 0x4 DUP3 ADD MSTORE PUSH1 0xF PUSH1 0x24 DUP3 ADD MSTORE PUSH15 0x55736572206E6F7420666F756E6421 PUSH1 0x88 SHL PUSH1 0x44 DUP3 ADD MSTORE PUSH1 0x64 ADD PUSH2 0x4F0 JUMP JUMPDEST PUSH1 0x1 PUSH1 0x1 PUSH1 0xA0 SHL SUB DUP1 DUP3 AND PUSH1 0x0 SWAP1 DUP2 MSTORE PUSH1 0x2 PUSH1 0x20 MSTORE PUSH1 0x40 SWAP1 KECCAK256 SLOAD DUP3 SWAP2 AND PUSH2 0x121D JUMPI PUSH1 0x40 MLOAD PUSH3 0x461BCD PUSH1 0xE5 SHL DUP2 MSTORE PUSH1 0x4 ADD PUSH2 0x4F0 SWAP1 PUSH2 0x1DDD JUMP JUMPDEST PUSH1 0x1 PUSH1 0x1 PUSH1 0xA0 SHL SUB DUP3 AND PUSH1 0x0 SWAP1 DUP2 MSTORE PUSH1 0x3 PUSH1 0x20 MSTORE PUSH1 0x40 SWAP1 KECCAK256 SLOAD PUSH1 0xFF AND PUSH2 0x569 JUMPI PUSH1 0x1 PUSH1 0x1 PUSH1 0xA0 SHL SUB DUP3 AND PUSH1 0x0 SWAP1 DUP2 MSTORE PUSH1 0x2 PUSH1 0x20 SWAP1 DUP2 MSTORE PUSH1 0x40 SWAP2 DUP3 SWAP1 KECCAK256 PUSH1 0x4 DUP2 ADD DUP1 SLOAD PUSH1 0xFF NOT AND PUSH1 0x1 OR SWAP1 SSTORE DUP3 MLOAD PUSH1 0x80 DUP2 ADD DUP5 MSTORE PUSH1 0x5 DUP3 ADD SLOAD PUSH1 0xFF DUP2 DUP2 AND ISZERO ISZERO DUP1 DUP5 MSTORE PUSH2 0x100 DUP4 DIV DUP3 AND ISZERO ISZERO SWAP6 DUP5 ADD SWAP6 SWAP1 SWAP6 MSTORE PUSH3 0x10000 DUP3 DIV DUP2 AND ISZERO ISZERO SWAP6 DUP4 ADD SWAP6 SWAP1 SWAP6 MSTORE PUSH4 0x1000000 SWAP1 DIV SWAP1 SWAP4 AND ISZERO ISZERO PUSH1 0x60 DUP5 ADD MSTORE SWAP2 SWAP1 DUP1 PUSH2 0x12BF JUMPI POP DUP1 PUSH1 0x20 ADD MLOAD JUMPDEST DUP1 PUSH2 0x12CB JUMPI POP DUP1 PUSH1 0x40 ADD MLOAD JUMPDEST ISZERO PUSH2 0x1306 JUMPI PUSH1 0x1 PUSH1 0x1 PUSH1 0xA0 SHL SUB DUP5 AND PUSH1 0x0 SWAP1 DUP2 MSTORE PUSH1 0x3 PUSH1 0x20 MSTORE PUSH1 0x40 DUP2 KECCAK256 DUP1 SLOAD PUSH1 0xFF NOT AND PUSH1 0x1 OR SWAP1 SSTORE DUP1 SLOAD SWAP1 DUP1 PUSH2 0x1300 DUP4 PUSH2 0x1E71 JUMP JUMPDEST SWAP2 SWAP1 POP SSTORE POP JUMPDEST POP POP POP POP JUMP JUMPDEST PUSH1 0x1 SLOAD PUSH1 0x1 PUSH1 0x1 PUSH1 0xA0 SHL SUB AND CALLER EQ DUP1 PUSH2 0x137F JUMPI POP PUSH1 0x40 MLOAD PUSH4 0x297027D5 PUSH1 0xE0 SHL DUP2 MSTORE CALLER PUSH1 0x4 DUP3 ADD MSTORE ADDRESS SWAP1 PUSH4 0x297027D5 SWAP1 PUSH1 0x24 ADD PUSH1 0x20 PUSH1 0x40 MLOAD DUP1 DUP4 SUB DUP2 DUP7 GAS STATICCALL ISZERO DUP1 ISZERO PUSH2 0x135B JUMPI RETURNDATASIZE PUSH1 0x0 DUP1 RETURNDATACOPY RETURNDATASIZE PUSH1 0x0 REVERT JUMPDEST POP POP POP POP PUSH1 0x40 MLOAD RETURNDATASIZE PUSH1 0x1F NOT PUSH1 0x1F DUP3 ADD AND DUP3 ADD DUP1 PUSH1 0x40 MSTORE POP DUP2 ADD SWAP1 PUSH2 0x137F SWAP2 SWAP1 PUSH2 0x1E4F JUMP JUMPDEST PUSH2 0x139B JUMPI PUSH1 0x40 MLOAD PUSH3 0x461BCD PUSH1 0xE5 SHL DUP2 MSTORE PUSH1 0x4 ADD PUSH2 0x4F0 SWAP1 PUSH2 0x1E8C JUMP JUMPDEST PUSH1 0x1 PUSH1 0x1 PUSH1 0xA0 SHL SUB DUP1 DUP4 AND PUSH1 0x0 SWAP1 DUP2 MSTORE PUSH1 0x2 PUSH1 0x20 MSTORE PUSH1 0x40 SWAP1 KECCAK256 SLOAD DUP4 SWAP2 AND PUSH2 0x13D4 JUMPI PUSH1 0x40 MLOAD PUSH3 0x461BCD PUSH1 0xE5 SHL DUP2 MSTORE PUSH1 0x4 ADD PUSH2 0x4F0 SWAP1 PUSH2 0x1DDD JUMP JUMPDEST PUSH1 0x1 PUSH1 0x1 PUSH1 0xA0 SHL SUB DUP4 AND PUSH1 0x0 SWAP1 DUP2 MSTORE PUSH1 0x2 PUSH1 0x20 MSTORE PUSH1 0x40 DUP2 KECCAK256 SWAP1 PUSH1 0x5 DUP3 ADD SWAP1 DUP5 PUSH1 0x3 DUP2 GT ISZERO PUSH2 0x1404 JUMPI PUSH2 0x1404 PUSH2 0x1ECE JUMP JUMPDEST EQ ISZERO PUSH2 0x1417 JUMPI DUP1 SLOAD PUSH1 0xFF NOT AND DUP2 SSTORE PUSH2 0xD4A JUMP JUMPDEST PUSH1 0x1 DUP5 PUSH1 0x3 DUP2 GT ISZERO PUSH2 0x142B JUMPI PUSH2 0x142B PUSH2 0x1ECE JUMP JUMPDEST EQ ISZERO PUSH2 0x143F JUMPI DUP1 SLOAD PUSH2 0xFF00 NOT AND DUP2 SSTORE PUSH2 0xD4A JUMP JUMPDEST PUSH1 0x2 DUP5 PUSH1 0x3 DUP2 GT ISZERO PUSH2 0x1453 JUMPI PUSH2 0x1453 PUSH2 0x1ECE JUMP JUMPDEST EQ ISZERO PUSH2 0x1468 JUMPI DUP1 SLOAD PUSH3 0xFF0000 NOT AND DUP2 SSTORE PUSH2 0xD4A JUMP JUMPDEST PUSH1 0x3 DUP5 PUSH1 0x3 DUP2 GT ISZERO PUSH2 0x147C JUMPI PUSH2 0x147C PUSH2 0x1ECE JUMP JUMPDEST EQ ISZERO PUSH2 0xD4A JUMPI DUP1 SLOAD PUSH4 0xFF000000 NOT AND SWAP1 SSTORE POP POP POP POP JUMP JUMPDEST PUSH1 0x1 PUSH1 0x1 PUSH1 0xA0 SHL SUB DUP1 DUP3 AND PUSH1 0x0 SWAP1 DUP2 MSTORE PUSH1 0x2 PUSH1 0x20 MSTORE PUSH1 0x40 SWAP1 KECCAK256 SLOAD DUP3 SWAP2 AND PUSH2 0x14CC JUMPI PUSH1 0x40 MLOAD PUSH3 0x461BCD PUSH1 0xE5 SHL DUP2 MSTORE PUSH1 0x4 ADD PUSH2 0x4F0 SWAP1 PUSH2 0x1DDD JUMP JUMPDEST PUSH2 0x14D5 DUP3 PUSH2 0x4B7 JUMP JUMPDEST PUSH1 0x1 PUSH1 0x1 PUSH1 0xA0 SHL SUB DUP3 AND PUSH1 0x0 SWAP1 DUP2 MSTORE PUSH1 0x2 PUSH1 0x20 MSTORE PUSH1 0x40 DUP2 KECCAK256 DUP1 SLOAD PUSH1 0x1 PUSH1 0x1 PUSH1 0xA0 SHL SUB NOT AND DUP2 SSTORE SWAP1 PUSH2 0x1509 PUSH1 0x1 DUP4 ADD DUP3 PUSH2 0x1A12 JUMP JUMPDEST PUSH2 0x1517 PUSH1 0x2 DUP4 ADD PUSH1 0x0 PUSH2 0x1A12 JUMP JUMPDEST PUSH2 0x1525 PUSH1 0x3 DUP4 ADD PUSH1 0x0 PUSH2 0x1A12 JUMP JUMPDEST POP PUSH1 0x4 DUP2 ADD DUP1 SLOAD PUSH1 0xFF NOT AND SWAP1 SSTORE PUSH1 0x5 ADD DUP1 SLOAD PUSH4 0xFFFFFFFF NOT AND SWAP1 SSTORE POP POP JUMP JUMPDEST PUSH1 0x1 PUSH1 0x1 PUSH1 0xA0 SHL SUB DUP1 DUP6 AND PUSH1 0x0 SWAP1 DUP2 MSTORE PUSH1 0x2 PUSH1 0x20 MSTORE PUSH1 0x40 SWAP1 KECCAK256 SLOAD DUP6 SWAP2 AND ISZERO PUSH2 0x15A7 JUMPI PUSH1 0x40 MLOAD PUSH3 0x461BCD PUSH1 0xE5 SHL DUP2 MSTORE PUSH1 0x20 PUSH1 0x4 DUP3 ADD MSTORE PUSH1 0x16 PUSH1 0x24 DUP3 ADD MSTORE PUSH22 0x4163636F756E7420616C726561647920657869737473 PUSH1 0x50 SHL PUSH1 0x44 DUP3 ADD MSTORE PUSH1 0x64 ADD PUSH2 0x4F0 JUMP JUMPDEST PUSH1 0x40 DUP1 MLOAD PUSH1 0x80 DUP1 DUP3 ADD DUP4 MSTORE PUSH1 0x0 DUP1 DUP4 MSTORE PUSH1 0x20 DUP1 DUP5 ADD DUP3 SWAP1 MSTORE DUP4 DUP6 ADD DUP3 SWAP1 MSTORE PUSH1 0x1 PUSH1 0x60 DUP1 DUP7 ADD DUP3 SWAP1 MSTORE DUP7 MLOAD PUSH1 0xC0 DUP2 ADD DUP9 MSTORE PUSH1 0x1 PUSH1 0x1 PUSH1 0xA0 SHL SUB DUP14 DUP2 AND DUP1 DUP4 MSTORE DUP3 DUP7 ADD DUP15 DUP2 MSTORE DUP4 DUP12 ADD DUP15 SWAP1 MSTORE SWAP4 DUP4 ADD DUP13 SWAP1 MSTORE SWAP7 DUP3 ADD DUP7 SWAP1 MSTORE PUSH1 0xA0 DUP3 ADD DUP9 SWAP1 MSTORE SWAP6 DUP6 MSTORE PUSH1 0x2 DUP5 MSTORE SWAP7 SWAP1 SWAP4 KECCAK256 DUP7 MLOAD DUP2 SLOAD PUSH1 0x1 PUSH1 0x1 PUSH1 0xA0 SHL SUB NOT AND SWAP6 AND SWAP5 SWAP1 SWAP5 OR DUP5 SSTORE SWAP2 MLOAD DUP1 MLOAD SWAP5 SWAP6 SWAP5 DUP6 SWAP5 SWAP4 PUSH2 0x163E SWAP4 SWAP1 DUP6 ADD SWAP3 ADD SWAP1 PUSH2 0x1A4F JUMP JUMPDEST POP PUSH1 0x40 DUP3 ADD MLOAD DUP1 MLOAD PUSH2 0x165A SWAP2 PUSH1 0x2 DUP5 ADD SWAP2 PUSH1 0x20 SWAP1 SWAP2 ADD SWAP1 PUSH2 0x1A4F JUMP JUMPDEST POP PUSH1 0x60 DUP3 ADD MLOAD DUP1 MLOAD PUSH2 0x1676 SWAP2 PUSH1 0x3 DUP5 ADD SWAP2 PUSH1 0x20 SWAP1 SWAP2 ADD SWAP1 PUSH2 0x1A4F JUMP JUMPDEST POP PUSH1 0x80 DUP3 ADD MLOAD PUSH1 0x4 DUP3 ADD DUP1 SLOAD SWAP2 ISZERO ISZERO PUSH1 0xFF NOT SWAP1 SWAP3 AND SWAP2 SWAP1 SWAP2 OR SWAP1 SSTORE PUSH1 0xA0 SWAP1 SWAP2 ADD MLOAD DUP1 MLOAD PUSH1 0x5 SWAP1 SWAP3 ADD DUP1 SLOAD PUSH1 0x20 DUP4 ADD MLOAD PUSH1 0x40 DUP5 ADD MLOAD PUSH1 0x60 SWAP1 SWAP5 ADD MLOAD ISZERO ISZERO PUSH4 0x1000000 MUL PUSH4 0xFF000000 NOT SWAP5 ISZERO ISZERO PUSH3 0x10000 MUL SWAP5 SWAP1 SWAP5 AND PUSH4 0xFFFF0000 NOT SWAP2 ISZERO ISZERO PUSH2 0x100 MUL PUSH2 0xFF00 NOT SWAP7 ISZERO ISZERO SWAP7 SWAP1 SWAP7 AND PUSH2 0xFFFF NOT SWAP1 SWAP4 AND SWAP3 SWAP1 SWAP3 OR SWAP5 SWAP1 SWAP5 OR SWAP4 SWAP1 SWAP4 AND SWAP3 SWAP1 SWAP3 OR OR SWAP1 SSTORE POP POP POP POP POP POP POP JUMP JUMPDEST PUSH1 0x0 PUSH2 0x253 DUP3 PUSH1 0x3 PUSH2 0x171B JUMP JUMPDEST PUSH1 0x0 PUSH2 0x253 DUP3 PUSH1 0x1 JUMPDEST PUSH1 0x1 PUSH1 0x1 PUSH1 0xA0 SHL SUB DUP1 DUP4 AND PUSH1 0x0 SWAP1 DUP2 MSTORE PUSH1 0x2 PUSH1 0x20 SWAP1 DUP2 MSTORE PUSH1 0x40 DUP1 DUP4 KECCAK256 DUP2 MLOAD PUSH1 0xC0 DUP2 ADD SWAP1 SWAP3 MSTORE DUP1 SLOAD SWAP1 SWAP5 AND DUP2 MSTORE PUSH1 0x1 DUP5 ADD DUP1 SLOAD SWAP4 SWAP5 DUP6 SWAP5 SWAP3 SWAP4 SWAP1 SWAP3 SWAP1 DUP5 ADD SWAP2 SWAP1 PUSH2 0x1763 SWAP1 PUSH2 0x1DA2 JUMP JUMPDEST DUP1 PUSH1 0x1F ADD PUSH1 0x20 DUP1 SWAP2 DIV MUL PUSH1 0x20 ADD PUSH1 0x40 MLOAD SWAP1 DUP2 ADD PUSH1 0x40 MSTORE DUP1 SWAP3 SWAP2 SWAP1 DUP2 DUP2 MSTORE PUSH1 0x20 ADD DUP3 DUP1 SLOAD PUSH2 0x178F SWAP1 PUSH2 0x1DA2 JUMP JUMPDEST DUP1 ISZERO PUSH2 0x17DC JUMPI DUP1 PUSH1 0x1F LT PUSH2 0x17B1 JUMPI PUSH2 0x100 DUP1 DUP4 SLOAD DIV MUL DUP4 MSTORE SWAP2 PUSH1 0x20 ADD SWAP2 PUSH2 0x17DC JUMP JUMPDEST DUP3 ADD SWAP2 SWAP1 PUSH1 0x0 MSTORE PUSH1 0x20 PUSH1 0x0 KECCAK256 SWAP1 JUMPDEST DUP2 SLOAD DUP2 MSTORE SWAP1 PUSH1 0x1 ADD SWAP1 PUSH1 0x20 ADD DUP1 DUP4 GT PUSH2 0x17BF JUMPI DUP3 SWAP1 SUB PUSH1 0x1F AND DUP3 ADD SWAP2 JUMPDEST POP POP POP POP POP DUP2 MSTORE PUSH1 0x20 ADD PUSH1 0x2 DUP3 ADD DUP1 SLOAD PUSH2 0x17F5 SWAP1 PUSH2 0x1DA2 JUMP JUMPDEST DUP1 PUSH1 0x1F ADD PUSH1 0x20 DUP1 SWAP2 DIV MUL PUSH1 0x20 ADD PUSH1 0x40 MLOAD SWAP1 DUP2 ADD PUSH1 0x40 MSTORE DUP1 SWAP3 SWAP2 SWAP1 DUP2 DUP2 MSTORE PUSH1 0x20 ADD DUP3 DUP1 SLOAD PUSH2 0x1821 SWAP1 PUSH2 0x1DA2 JUMP JUMPDEST DUP1 ISZERO PUSH2 0x186E JUMPI DUP1 PUSH1 0x1F LT PUSH2 0x1843 JUMPI PUSH2 0x100 DUP1 DUP4 SLOAD DIV MUL DUP4 MSTORE SWAP2 PUSH1 0x20 ADD SWAP2 PUSH2 0x186E JUMP JUMPDEST DUP3 ADD SWAP2 SWAP1 PUSH1 0x0 MSTORE PUSH1 0x20 PUSH1 0x0 KECCAK256 SWAP1 JUMPDEST DUP2 SLOAD DUP2 MSTORE SWAP1 PUSH1 0x1 ADD SWAP1 PUSH1 0x20 ADD DUP1 DUP4 GT PUSH2 0x1851 JUMPI DUP3 SWAP1 SUB PUSH1 0x1F AND DUP3 ADD SWAP2 JUMPDEST POP POP POP POP POP DUP2 MSTORE PUSH1 0x20 ADD PUSH1 0x3 DUP3 ADD DUP1 SLOAD PUSH2 0x1887 SWAP1 PUSH2 0x1DA2 JUMP JUMPDEST DUP1 PUSH1 0x1F ADD PUSH1 0x20 DUP1 SWAP2 DIV MUL PUSH1 0x20 ADD PUSH1 0x40 MLOAD SWAP1 DUP2 ADD PUSH1 0x40 MSTORE DUP1 SWAP3 SWAP2 SWAP1 DUP2 DUP2 MSTORE PUSH1 0x20 ADD DUP3 DUP1 SLOAD PUSH2 0x18B3 SWAP1 PUSH2 0x1DA2 JUMP JUMPDEST DUP1 ISZERO PUSH2 0x1900 JUMPI DUP1 PUSH1 0x1F LT PUSH2 0x18D5 JUMPI PUSH2 0x100 DUP1 DUP4 SLOAD DIV MUL DUP4 MSTORE SWAP2 PUSH1 0x20 ADD SWAP2 PUSH2 0x1900 JUMP JUMPDEST DUP3 ADD SWAP2 SWAP1 PUSH1 0x0 MSTORE PUSH1 0x20 PUSH1 0x0 KECCAK256 SWAP1 JUMPDEST DUP2 SLOAD DUP2 MSTORE SWAP1 PUSH1 0x1 ADD SWAP1 PUSH1 0x20 ADD DUP1 DUP4 GT PUSH2 0x18E3 JUMPI DUP3 SWAP1 SUB PUSH1 0x1F AND DUP3 ADD SWAP2 JUMPDEST POP POP POP SWAP2 DUP4 MSTORE POP POP PUSH1 0x4 DUP3 ADD SLOAD PUSH1 0xFF SWAP1 DUP2 AND ISZERO ISZERO PUSH1 0x20 DUP1 DUP5 ADD SWAP2 SWAP1 SWAP2 MSTORE PUSH1 0x40 DUP1 MLOAD PUSH1 0x80 DUP2 ADD DUP3 MSTORE PUSH1 0x5 SWAP1 SWAP6 ADD SLOAD DUP1 DUP5 AND ISZERO ISZERO DUP7 MSTORE PUSH2 0x100 DUP2 DIV DUP5 AND ISZERO ISZERO SWAP3 DUP7 ADD SWAP3 SWAP1 SWAP3 MSTORE PUSH3 0x10000 DUP3 DIV DUP4 AND ISZERO ISZERO DUP6 DUP3 ADD MSTORE PUSH4 0x1000000 SWAP1 SWAP2 DIV SWAP1 SWAP2 AND ISZERO ISZERO PUSH1 0x60 DUP5 ADD MSTORE ADD MSTORE PUSH1 0xA0 DUP2 ADD MLOAD SWAP1 SWAP2 POP PUSH1 0x0 DUP5 PUSH1 0x3 DUP2 GT ISZERO PUSH2 0x1982 JUMPI PUSH2 0x1982 PUSH2 0x1ECE JUMP JUMPDEST EQ ISZERO PUSH2 0x1992 JUMPI MLOAD SWAP2 POP PUSH2 0x253 SWAP1 POP JUMP JUMPDEST PUSH1 0x1 DUP5 PUSH1 0x3 DUP2 GT ISZERO PUSH2 0x19A6 JUMPI PUSH2 0x19A6 PUSH2 0x1ECE JUMP JUMPDEST EQ ISZERO PUSH2 0x19B9 JUMPI PUSH1 0x20 ADD MLOAD SWAP2 POP PUSH2 0x253 SWAP1 POP JUMP JUMPDEST PUSH1 0x2 DUP5 PUSH1 0x3 DUP2 GT ISZERO PUSH2 0x19CD JUMPI PUSH2 0x19CD PUSH2 0x1ECE JUMP JUMPDEST EQ ISZERO PUSH2 0x19E0 JUMPI PUSH1 0x40 ADD MLOAD SWAP2 POP PUSH2 0x253 SWAP1 POP JUMP JUMPDEST PUSH1 0x3 DUP5 PUSH1 0x3 DUP2 GT ISZERO PUSH2 0x19F4 JUMPI PUSH2 0x19F4 PUSH2 0x1ECE JUMP JUMPDEST EQ ISZERO PUSH2 0x1A07 JUMPI PUSH1 0x60 ADD MLOAD SWAP2 POP PUSH2 0x253 SWAP1 POP JUMP JUMPDEST POP PUSH1 0x0 SWAP5 SWAP4 POP POP POP POP JUMP JUMPDEST POP DUP1 SLOAD PUSH2 0x1A1E SWAP1 PUSH2 0x1DA2 JUMP JUMPDEST PUSH1 0x0 DUP3 SSTORE DUP1 PUSH1 0x1F LT PUSH2 0x1A2E JUMPI POP POP JUMP JUMPDEST PUSH1 0x1F ADD PUSH1 0x20 SWAP1 DIV SWAP1 PUSH1 0x0 MSTORE PUSH1 0x20 PUSH1 0x0 KECCAK256 SWAP1 DUP2 ADD SWAP1 PUSH2 0x1A4C SWAP2 SWAP1 PUSH2 0x1AD3 JUMP JUMPDEST POP JUMP JUMPDEST DUP3 DUP1 SLOAD PUSH2 0x1A5B SWAP1 PUSH2 0x1DA2 JUMP JUMPDEST SWAP1 PUSH1 0x0 MSTORE PUSH1 0x20 PUSH1 0x0 KECCAK256 SWAP1 PUSH1 0x1F ADD PUSH1 0x20 SWAP1 DIV DUP2 ADD SWAP3 DUP3 PUSH2 0x1A7D JUMPI PUSH1 0x0 DUP6 SSTORE PUSH2 0x1AC3 JUMP JUMPDEST DUP3 PUSH1 0x1F LT PUSH2 0x1A96 JUMPI DUP1 MLOAD PUSH1 0xFF NOT AND DUP4 DUP1 ADD OR DUP6 SSTORE PUSH2 0x1AC3 JUMP JUMPDEST DUP3 DUP1 ADD PUSH1 0x1 ADD DUP6 SSTORE DUP3 ISZERO PUSH2 0x1AC3 JUMPI SWAP2 DUP3 ADD JUMPDEST DUP3 DUP2 GT ISZERO PUSH2 0x1AC3 JUMPI DUP3 MLOAD DUP3 SSTORE SWAP2 PUSH1 0x20 ADD SWAP2 SWAP1 PUSH1 0x1 ADD SWAP1 PUSH2 0x1AA8 JUMP JUMPDEST POP PUSH2 0x1ACF SWAP3 SWAP2 POP PUSH2 0x1AD3 JUMP JUMPDEST POP SWAP1 JUMP JUMPDEST JUMPDEST DUP1 DUP3 GT ISZERO PUSH2 0x1ACF JUMPI PUSH1 0x0 DUP2 SSTORE PUSH1 0x1 ADD PUSH2 0x1AD4 JUMP JUMPDEST DUP1 CALLDATALOAD PUSH1 0x1 PUSH1 0x1 PUSH1 0xA0 SHL SUB DUP2 AND DUP2 EQ PUSH2 0x1AFF JUMPI PUSH1 0x0 DUP1 REVERT JUMPDEST SWAP2 SWAP1 POP JUMP JUMPDEST PUSH1 0x0 PUSH1 0x20 DUP3 DUP5 SUB SLT ISZERO PUSH2 0x1B16 JUMPI PUSH1 0x0 DUP1 REVERT JUMPDEST PUSH2 0x1B1F DUP3 PUSH2 0x1AE8 JUMP JUMPDEST SWAP4 SWAP3 POP POP POP JUMP JUMPDEST PUSH1 0x0 DUP1 PUSH1 0x40 DUP4 DUP6 SUB SLT ISZERO PUSH2 0x1B39 JUMPI PUSH1 0x0 DUP1 REVERT JUMPDEST PUSH2 0x1B42 DUP4 PUSH2 0x1AE8 JUMP JUMPDEST SWAP2 POP PUSH1 0x20 DUP4 ADD CALLDATALOAD PUSH1 0x4 DUP2 LT PUSH2 0x1B56 JUMPI PUSH1 0x0 DUP1 REVERT JUMPDEST DUP1 SWAP2 POP POP SWAP3 POP SWAP3 SWAP1 POP JUMP JUMPDEST PUSH1 0x0 DUP2 MLOAD DUP1 DUP5 MSTORE PUSH1 0x0 JUMPDEST DUP2 DUP2 LT ISZERO PUSH2 0x1B87 JUMPI PUSH1 0x20 DUP2 DUP6 ADD DUP2 ADD MLOAD DUP7 DUP4 ADD DUP3 ADD MSTORE ADD PUSH2 0x1B6B JUMP JUMPDEST DUP2 DUP2 GT ISZERO PUSH2 0x1B99 JUMPI PUSH1 0x0 PUSH1 0x20 DUP4 DUP8 ADD ADD MSTORE JUMPDEST POP PUSH1 0x1F ADD PUSH1 0x1F NOT AND SWAP3 SWAP1 SWAP3 ADD PUSH1 0x20 ADD SWAP3 SWAP2 POP POP JUMP JUMPDEST PUSH1 0x20 DUP1 DUP3 MSTORE DUP3 MLOAD PUSH1 0x1 PUSH1 0x1 PUSH1 0xA0 SHL SUB AND DUP3 DUP3 ADD MSTORE DUP3 ADD MLOAD PUSH2 0x120 PUSH1 0x40 DUP4 ADD DUP2 SWAP1 MSTORE PUSH1 0x0 SWAP2 SWAP1 PUSH2 0x1BE1 PUSH2 0x140 DUP6 ADD DUP4 PUSH2 0x1B61 JUMP JUMPDEST SWAP2 POP PUSH1 0x40 DUP6 ADD MLOAD PUSH1 0x1F NOT DUP1 DUP7 DUP6 SUB ADD PUSH1 0x60 DUP8 ADD MSTORE PUSH2 0x1BFF DUP5 DUP4 PUSH2 0x1B61 JUMP JUMPDEST SWAP4 POP PUSH1 0x60 DUP8 ADD MLOAD SWAP2 POP DUP1 DUP7 DUP6 SUB ADD PUSH1 0x80 DUP8 ADD MSTORE POP PUSH2 0x1C1D DUP4 DUP3 PUSH2 0x1B61 JUMP JUMPDEST PUSH1 0x80 DUP8 ADD MLOAD ISZERO ISZERO PUSH1 0xA0 DUP8 DUP2 ADD SWAP2 SWAP1 SWAP2 MSTORE SWAP1 SWAP7 ADD MLOAD DUP1 MLOAD ISZERO ISZERO PUSH1 0xC0 DUP8 ADD MSTORE PUSH1 0x20 DUP2 ADD MLOAD ISZERO ISZERO PUSH1 0xE0 DUP8 ADD MSTORE PUSH1 0x40 DUP2 ADD MLOAD ISZERO ISZERO PUSH2 0x100 DUP8 ADD MSTORE PUSH1 0x60 ADD MLOAD ISZERO ISZERO SWAP2 SWAP1 SWAP5 ADD MSTORE POP SWAP2 SWAP3 SWAP2 POP POP JUMP JUMPDEST PUSH4 0x4E487B71 PUSH1 0xE0 SHL PUSH1 0x0 MSTORE PUSH1 0x41 PUSH1 0x4 MSTORE PUSH1 0x24 PUSH1 0x0 REVERT JUMPDEST PUSH1 0x0 DUP3 PUSH1 0x1F DUP4 ADD SLT PUSH2 0x1C8D JUMPI PUSH1 0x0 DUP1 REVERT JUMPDEST DUP2 CALLDATALOAD PUSH8 0xFFFFFFFFFFFFFFFF DUP1 DUP3 GT ISZERO PUSH2 0x1CA8 JUMPI PUSH2 0x1CA8 PUSH2 0x1C66 JUMP JUMPDEST PUSH1 0x40 MLOAD PUSH1 0x1F DUP4 ADD PUSH1 0x1F NOT SWAP1 DUP2 AND PUSH1 0x3F ADD AND DUP2 ADD SWAP1 DUP3 DUP3 GT DUP2 DUP4 LT OR ISZERO PUSH2 0x1CD0 JUMPI PUSH2 0x1CD0 PUSH2 0x1C66 JUMP JUMPDEST DUP2 PUSH1 0x40 MSTORE DUP4 DUP2 MSTORE DUP7 PUSH1 0x20 DUP6 DUP9 ADD ADD GT ISZERO PUSH2 0x1CE9 JUMPI PUSH1 0x0 DUP1 REVERT JUMPDEST DUP4 PUSH1 0x20 DUP8 ADD PUSH1 0x20 DUP4 ADD CALLDATACOPY PUSH1 0x0 PUSH1 0x20 DUP6 DUP4 ADD ADD MSTORE DUP1 SWAP5 POP POP POP POP POP SWAP3 SWAP2 POP POP JUMP JUMPDEST PUSH1 0x0 DUP1 PUSH1 0x0 DUP1 PUSH1 0x80 DUP6 DUP8 SUB SLT ISZERO PUSH2 0x1D1F JUMPI PUSH1 0x0 DUP1 REVERT JUMPDEST PUSH2 0x1D28 DUP6 PUSH2 0x1AE8 JUMP JUMPDEST SWAP4 POP PUSH1 0x20 DUP6 ADD CALLDATALOAD PUSH8 0xFFFFFFFFFFFFFFFF DUP1 DUP3 GT ISZERO PUSH2 0x1D45 JUMPI PUSH1 0x0 DUP1 REVERT JUMPDEST PUSH2 0x1D51 DUP9 DUP4 DUP10 ADD PUSH2 0x1C7C JUMP JUMPDEST SWAP5 POP PUSH1 0x40 DUP8 ADD CALLDATALOAD SWAP2 POP DUP1 DUP3 GT ISZERO PUSH2 0x1D67 JUMPI PUSH1 0x0 DUP1 REVERT JUMPDEST PUSH2 0x1D73 DUP9 DUP4 DUP10 ADD PUSH2 0x1C7C JUMP JUMPDEST SWAP4 POP PUSH1 0x60 DUP8 ADD CALLDATALOAD SWAP2 POP DUP1 DUP3 GT ISZERO PUSH2 0x1D89 JUMPI PUSH1 0x0 DUP1 REVERT JUMPDEST POP PUSH2 0x1D96 DUP8 DUP3 DUP9 ADD PUSH2 0x1C7C JUMP JUMPDEST SWAP2 POP POP SWAP3 SWAP6 SWAP2 SWAP5 POP SWAP3 POP JUMP JUMPDEST PUSH1 0x1 DUP2 DUP2 SHR SWAP1 DUP3 AND DUP1 PUSH2 0x1DB6 JUMPI PUSH1 0x7F DUP3 AND SWAP2 POP JUMPDEST PUSH1 0x20 DUP3 LT DUP2 EQ ISZERO PUSH2 0x1DD7 JUMPI PUSH4 0x4E487B71 PUSH1 0xE0 SHL PUSH1 0x0 MSTORE PUSH1 0x22 PUSH1 0x4 MSTORE PUSH1 0x24 PUSH1 0x0 REVERT JUMPDEST POP SWAP2 SWAP1 POP JUMP JUMPDEST PUSH1 0x20 DUP1 DUP3 MSTORE PUSH1 0x15 SWAP1 DUP3 ADD MSTORE PUSH21 0x1058D8DBDD5B9D08191BD95CDB89DD08195E1A5CDD PUSH1 0x5A SHL PUSH1 0x40 DUP3 ADD MSTORE PUSH1 0x60 ADD SWAP1 JUMP JUMPDEST PUSH4 0x4E487B71 PUSH1 0xE0 SHL PUSH1 0x0 MSTORE PUSH1 0x11 PUSH1 0x4 MSTORE PUSH1 0x24 PUSH1 0x0 REVERT JUMPDEST PUSH1 0x0 DUP2 PUSH2 0x1E31 JUMPI PUSH2 0x1E31 PUSH2 0x1E0C JUMP JUMPDEST POP PUSH1 0x0 NOT ADD SWAP1 JUMP JUMPDEST PUSH4 0x4E487B71 PUSH1 0xE0 SHL PUSH1 0x0 MSTORE PUSH1 0x32 PUSH1 0x4 MSTORE PUSH1 0x24 PUSH1 0x0 REVERT JUMPDEST PUSH1 0x0 PUSH1 0x20 DUP3 DUP5 SUB SLT ISZERO PUSH2 0x1E61 JUMPI PUSH1 0x0 DUP1 REVERT JUMPDEST DUP2 MLOAD DUP1 ISZERO ISZERO DUP2 EQ PUSH2 0x1B1F JUMPI PUSH1 0x0 DUP1 REVERT JUMPDEST PUSH1 0x0 PUSH1 0x0 NOT DUP3 EQ ISZERO PUSH2 0x1E85 JUMPI PUSH2 0x1E85 PUSH2 0x1E0C JUMP JUMPDEST POP PUSH1 0x1 ADD SWAP1 JUMP JUMPDEST PUSH1 0x20 DUP1 DUP3 MSTORE PUSH1 0x22 SWAP1 DUP3 ADD MSTORE PUSH32 0x4F6E6C79206F776E65722063616E2063616C6C20746869732066756E6374696F PUSH1 0x40 DUP3 ADD MSTORE PUSH2 0x3717 PUSH1 0xF1 SHL PUSH1 0x60 DUP3 ADD MSTORE PUSH1 0x80 ADD SWAP1 JUMP JUMPDEST PUSH4 0x4E487B71 PUSH1 0xE0 SHL PUSH1 0x0 MSTORE PUSH1 0x21 PUSH1 0x4 MSTORE PUSH1 0x24 PUSH1 0x0 REVERT INVALID LOG2 PUSH5 0x6970667358 0x22 SLT KECCAK256 0x23 PUSH21 0x44EC2BFD8B262F25FBE3C22FEBDA03332EAB8E43A0 0xEC 0x4C EXP SDIV 0xF 0x25 0xD5 SELFDESTRUCT OR PUSH5 0x736F6C6343 STOP ADDMOD 0xC STOP CALLER 0x4F PUSH15 0x6C79206F776E65722063616E206361 PUSH13 0x6C20746869732066756E637469 PUSH16 0x4163636F756E7420646F65736E277420 PUSH6 0x786973740000 STOP STOP STOP STOP STOP STOP STOP STOP STOP "
		},
		"gasEstimates": {
			"creation": {
				"codeDepositCost": "1592400",
				"executionCost": "infinite",
				"totalCost": "infinite"
			},
			"external": {
				"activateAccount(address)": "80095",
				"assignRole(address,uint8)": "infinite",
				"burnAccount(address)": "infinite",
				"createAccount(address,string,string,string)": "infinite",
				"deactivateAccount(address)": "77698",
				"getActiveMemberCount()": "2303",
				"getUser(address)": "infinite",
				"hasCouncilMemberRole(address)": "infinite",
				"hasGuestRole(address)": "infinite",
				"hasLeaderRole(address)": "infinite",
				"hasMemberRole(address)": "infinite",
				"owner()": "2404",
				"removeRole(address,uint8)": "infinite",
				"testAccountManagement()": "infinite",
				"userExists(address)": "infinite"
			},
			"internal": {
				"assignCouncilMember(address)": "infinite",
				"assignGuest(address)": "infinite",
				"assignLeader(address)": "infinite",
				"assignMember(address)": "infinite",
				"hasRole(address,enum AccountManagement.Role)": "infinite",
				"removeCouncilMember(address)": "infinite",
				"removeGuest(address)": "infinite",
				"removeLeader(address)": "infinite",
				"removeMember(address)": "infinite"
			}
		},
		"methodIdentifiers": {
			"activateAccount(address)": "82a62137",
			"assignRole(address,uint8)": "630a195b",
			"burnAccount(address)": "d3a5059a",
			"createAccount(address,string,string,string)": "dee94b4a",
			"deactivateAccount(address)": "130cb5f0",
			"getActiveMemberCount()": "22faa41f",
			"getUser(address)": "6f77926b",
			"hasCouncilMemberRole(address)": "fa4d7aae",
			"hasGuestRole(address)": "e8621e59",
			"hasLeaderRole(address)": "297027d5",
			"hasMemberRole(address)": "056909b7",
			"owner()": "8da5cb5b",
			"removeRole(address,uint8)": "b74866fb",
			"testAccountManagement()": "247ae7a3",
			"userExists(address)": "0e666e49"
		}
	},
	"abi": [
		{
			"inputs": [
				{
					"internalType": "string",
					"name": "_firstName",
					"type": "string"
				},
				{
					"internalType": "string",
					"name": "_lastName",
					"type": "string"
				},
				{
					"internalType": "string",
					"name": "_mailAdress",
					"type": "string"
				}
			],
			"stateMutability": "nonpayable",
			"type": "constructor"
		},
		{
			"inputs": [
				{
					"internalType": "address",
					"name": "_address",
					"type": "address"
				}
			],
			"name": "activateAccount",
			"outputs": [],
			"stateMutability": "nonpayable",
			"type": "function"
		},
		{
			"inputs": [
				{
					"internalType": "address",
					"name": "_address",
					"type": "address"
				},
				{
					"internalType": "enum AccountManagement.Role",
					"name": "_role",
					"type": "uint8"
				}
			],
			"name": "assignRole",
			"outputs": [],
			"stateMutability": "nonpayable",
			"type": "function"
		},
		{
			"inputs": [
				{
					"internalType": "address",
					"name": "_address",
					"type": "address"
				}
			],
			"name": "burnAccount",
			"outputs": [],
			"stateMutability": "nonpayable",
			"type": "function"
		},
		{
			"inputs": [
				{
					"internalType": "address",
					"name": "_address",
					"type": "address"
				},
				{
					"internalType": "string",
					"name": "_firstName",
					"type": "string"
				},
				{
					"internalType": "string",
					"name": "_lastName",
					"type": "string"
				},
				{
					"internalType": "string",
					"name": "_mailAdress",
					"type": "string"
				}
			],
			"name": "createAccount",
			"outputs": [],
			"stateMutability": "nonpayable",
			"type": "function"
		},
		{
			"inputs": [
				{
					"internalType": "address",
					"name": "_address",
					"type": "address"
				}
			],
			"name": "deactivateAccount",
			"outputs": [],
			"stateMutability": "nonpayable",
			"type": "function"
		},
		{
			"inputs": [],
			"name": "getActiveMemberCount",
			"outputs": [
				{
					"internalType": "uint256",
					"name": "",
					"type": "uint256"
				}
			],
			"stateMutability": "view",
			"type": "function"
		},
		{
			"inputs": [
				{
					"internalType": "address",
					"name": "_address",
					"type": "address"
				}
			],
			"name": "getUser",
			"outputs": [
				{
					"components": [
						{
							"internalType": "address",
							"name": "userAddress",
							"type": "address"
						},
						{
							"internalType": "string",
							"name": "firstName",
							"type": "string"
						},
						{
							"internalType": "string",
							"name": "lastName",
							"type": "string"
						},
						{
							"internalType": "string",
							"name": "mailAdress",
							"type": "string"
						},
						{
							"internalType": "bool",
							"name": "isActive",
							"type": "bool"
						},
						{
							"components": [
								{
									"internalType": "bool",
									"name": "isLeader",
									"type": "bool"
								},
								{
									"internalType": "bool",
									"name": "isCouncilMember",
									"type": "bool"
								},
								{
									"internalType": "bool",
									"name": "isMember",
									"type": "bool"
								},
								{
									"internalType": "bool",
									"name": "isGuest",
									"type": "bool"
								}
							],
							"internalType": "struct AccountManagement.RoleMap",
							"name": "roleMap",
							"type": "tuple"
						}
					],
					"internalType": "struct AccountManagement.User",
					"name": "",
					"type": "tuple"
				}
			],
			"stateMutability": "view",
			"type": "function"
		},
		{
			"inputs": [
				{
					"internalType": "address",
					"name": "_address",
					"type": "address"
				}
			],
			"name": "hasCouncilMemberRole",
			"outputs": [
				{
					"internalType": "bool",
					"name": "",
					"type": "bool"
				}
			],
			"stateMutability": "view",
			"type": "function"
		},
		{
			"inputs": [
				{
					"internalType": "address",
					"name": "_address",
					"type": "address"
				}
			],
			"name": "hasGuestRole",
			"outputs": [
				{
					"internalType": "bool",
					"name": "",
					"type": "bool"
				}
			],
			"stateMutability": "view",
			"type": "function"
		},
		{
			"inputs": [
				{
					"internalType": "address",
					"name": "_address",
					"type": "address"
				}
			],
			"name": "hasLeaderRole",
			"outputs": [
				{
					"internalType": "bool",
					"name": "",
					"type": "bool"
				}
			],
			"stateMutability": "view",
			"type": "function"
		},
		{
			"inputs": [
				{
					"internalType": "address",
					"name": "_address",
					"type": "address"
				}
			],
			"name": "hasMemberRole",
			"outputs": [
				{
					"internalType": "bool",
					"name": "",
					"type": "bool"
				}
			],
			"stateMutability": "view",
			"type": "function"
		},
		{
			"inputs": [],
			"name": "owner",
			"outputs": [
				{
					"internalType": "address",
					"name": "",
					"type": "address"
				}
			],
			"stateMutability": "view",
			"type": "function"
		},
		{
			"inputs": [
				{
					"internalType": "address",
					"name": "_address",
					"type": "address"
				},
				{
					"internalType": "enum AccountManagement.Role",
					"name": "_role",
					"type": "uint8"
				}
			],
			"name": "removeRole",
			"outputs": [],
			"stateMutability": "nonpayable",
			"type": "function"
		},
		{
			"inputs": [],
			"name": "testAccountManagement",
			"outputs": [],
			"stateMutability": "nonpayable",
			"type": "function"
		},
		{
			"inputs": [
				{
					"internalType": "address",
					"name": "_address",
					"type": "address"
				}
			],
			"name": "userExists",
			"outputs": [
				{
					"internalType": "bool",
					"name": "",
					"type": "bool"
				}
			],
			"stateMutability": "view",
			"type": "function"
		}
	]
}