{
	"data": {
		"bytecode": {
			"linkReferences": {},
			"object": "608060405234801561001057600080fd5b50610d38806100206000396000f3fe608060405234801561001057600080fd5b506004361061004c5760003560e01c80632c6e75981461005157806369f9ad2f14610081578063efc6c18c146100b1578063fd3bad52146100cf575b600080fd5b61006b600480360381019061006691906104df565b6100ff565b60405161007891906105a5565b60405180910390f35b61009b6004803603810190610096919061061f565b6103a4565b6040516100a8919061065b565b60405180910390f35b6100b96103ea565b6040516100c6919061068f565b60405180910390f35b6100e960048036038101906100e491906106e0565b61043e565b6040516100f6919061072f565b60405180910390f35b60606000602867ffffffffffffffff81111561011e5761011d61074a565b5b6040519080825280601f01601f1916602001820160405280156101505781602001600182028036833780820191505090505b50905060005b601481101561039a57600081601361016e91906107a8565b600861017a91906107dc565b60026101869190610969565b8573ffffffffffffffffffffffffffffffffffffffff166101a791906109e3565b60f81b9050600060108260f81c6101be9190610a21565b60f81b905060008160f81c60106101d59190610a52565b8360f81c6101e39190610a8d565b60f81b90503073ffffffffffffffffffffffffffffffffffffffff166369f9ad2f836040518263ffffffff1660e01b8152600401610221919061065b565b602060405180830381865afa15801561023e573d6000803e3d6000fd5b505050506040513d601f19601f820116820180604052508101906102629190610ad6565b8585600261027091906107dc565b8151811061028157610280610b03565b5b60200101907effffffffffffffffffffffffffffffffffffffffffffffffffffffffffffff1916908160001a9053503073ffffffffffffffffffffffffffffffffffffffff166369f9ad2f826040518263ffffffff1660e01b81526004016102e9919061065b565b602060405180830381865afa158015610306573d6000803e3d6000fd5b505050506040513d601f19601f8201168201806040525081019061032a9190610ad6565b85600186600261033a91906107dc565b6103449190610b32565b8151811061035557610354610b03565b5b60200101907effffffffffffffffffffffffffffffffffffffffffffffffffffffffffffff1916908160001a905350505050808061039290610b88565b915050610156565b5080915050919050565b6000600a8260f81c60ff1610156103cf5760308260f81c6103c59190610bd1565b60f81b90506103e5565b60578260f81c6103df9190610bd1565b60f81b90505b919050565b6000806000905060008142444160405160200161040a9493929190610c83565b6040516020818303038152906040528051906020012060001c9050818061043090610b88565b9250508060001b9250505090565b600080828461044d91906109e3565b90506000838561045d9190610cd1565b146104725760018161046f9190610b32565b90505b8091505092915050565b600080fd5b600073ffffffffffffffffffffffffffffffffffffffff82169050919050565b60006104ac82610481565b9050919050565b6104bc816104a1565b81146104c757600080fd5b50565b6000813590506104d9816104b3565b92915050565b6000602082840312156104f5576104f461047c565b5b6000610503848285016104ca565b91505092915050565b600081519050919050565b600082825260208201905092915050565b60005b8381101561054657808201518184015260208101905061052b565b83811115610555576000848401525b50505050565b6000601f19601f8301169050919050565b60006105778261050c565b6105818185610517565b9350610591818560208601610528565b61059a8161055b565b840191505092915050565b600060208201905081810360008301526105bf818461056c565b905092915050565b60007fff0000000000000000000000000000000000000000000000000000000000000082169050919050565b6105fc816105c7565b811461060757600080fd5b50565b600081359050610619816105f3565b92915050565b6000602082840312156106355761063461047c565b5b60006106438482850161060a565b91505092915050565b610655816105c7565b82525050565b6000602082019050610670600083018461064c565b92915050565b6000819050919050565b61068981610676565b82525050565b60006020820190506106a46000830184610680565b92915050565b6000819050919050565b6106bd816106aa565b81146106c857600080fd5b50565b6000813590506106da816106b4565b92915050565b600080604083850312156106f7576106f661047c565b5b6000610705858286016106cb565b9250506020610716858286016106cb565b9150509250929050565b610729816106aa565b82525050565b60006020820190506107446000830184610720565b92915050565b7f4e487b7100000000000000000000000000000000000000000000000000000000600052604160045260246000fd5b7f4e487b7100000000000000000000000000000000000000000000000000000000600052601160045260246000fd5b60006107b3826106aa565b91506107be836106aa565b9250828210156107d1576107d0610779565b5b828203905092915050565b60006107e7826106aa565b91506107f2836106aa565b9250817fffffffffffffffffffffffffffffffffffffffffffffffffffffffffffffffff048311821515161561082b5761082a610779565b5b828202905092915050565b60008160011c9050919050565b6000808291508390505b600185111561088d5780860481111561086957610868610779565b5b60018516156108785780820291505b808102905061088685610836565b945061084d565b94509492505050565b6000826108a65760019050610962565b816108b45760009050610962565b81600181146108ca57600281146108d457610903565b6001915050610962565b60ff8411156108e6576108e5610779565b5b8360020a9150848211156108fd576108fc610779565b5b50610962565b5060208310610133831016604e8410600b84101617156109385782820a90508381111561093357610932610779565b5b610962565b6109458484846001610843565b9250905081840481111561095c5761095b610779565b5b81810290505b9392505050565b6000610974826106aa565b915061097f836106aa565b92506109ac7fffffffffffffffffffffffffffffffffffffffffffffffffffffffffffffffff8484610896565b905092915050565b7f4e487b7100000000000000000000000000000000000000000000000000000000600052601260045260246000fd5b60006109ee826106aa565b91506109f9836106aa565b925082610a0957610a086109b4565b5b828204905092915050565b600060ff82169050919050565b6000610a2c82610a14565b9150610a3783610a14565b925082610a4757610a466109b4565b5b828204905092915050565b6000610a5d82610a14565b9150610a6883610a14565b92508160ff0483118215151615610a8257610a81610779565b5b828202905092915050565b6000610a9882610a14565b9150610aa383610a14565b925082821015610ab657610ab5610779565b5b828203905092915050565b600081519050610ad0816105f3565b92915050565b600060208284031215610aec57610aeb61047c565b5b6000610afa84828501610ac1565b91505092915050565b7f4e487b7100000000000000000000000000000000000000000000000000000000600052603260045260246000fd5b6000610b3d826106aa565b9150610b48836106aa565b9250827fffffffffffffffffffffffffffffffffffffffffffffffffffffffffffffffff03821115610b7d57610b7c610779565b5b828201905092915050565b6000610b93826106aa565b91507fffffffffffffffffffffffffffffffffffffffffffffffffffffffffffffffff821415610bc657610bc5610779565b5b600182019050919050565b6000610bdc82610a14565b9150610be783610a14565b92508260ff03821115610bfd57610bfc610779565b5b828201905092915050565b6000819050919050565b610c23610c1e826106aa565b610c08565b82525050565b6000610c3482610481565b9050919050565b60008160601b9050919050565b6000610c5382610c3b565b9050919050565b6000610c6582610c48565b9050919050565b610c7d610c7882610c29565b610c5a565b82525050565b6000610c8f8287610c12565b602082019150610c9f8286610c12565b602082019150610caf8285610c12565b602082019150610cbf8284610c6c565b60148201915081905095945050505050565b6000610cdc826106aa565b9150610ce7836106aa565b925082610cf757610cf66109b4565b5b82820690509291505056fea2646970667358221220afdabdb32a7fce47c4c67b84dd14c00ddd90189c2e876036d806ed9ae30bf64264736f6c634300080c0033",
			"opcodes": "PUSH1 0x80 PUSH1 0x40 MSTORE CALLVALUE DUP1 ISZERO PUSH2 0x10 JUMPI PUSH1 0x0 DUP1 REVERT JUMPDEST POP PUSH2 0xD38 DUP1 PUSH2 0x20 PUSH1 0x0 CODECOPY PUSH1 0x0 RETURN INVALID PUSH1 0x80 PUSH1 0x40 MSTORE CALLVALUE DUP1 ISZERO PUSH2 0x10 JUMPI PUSH1 0x0 DUP1 REVERT JUMPDEST POP PUSH1 0x4 CALLDATASIZE LT PUSH2 0x4C JUMPI PUSH1 0x0 CALLDATALOAD PUSH1 0xE0 SHR DUP1 PUSH4 0x2C6E7598 EQ PUSH2 0x51 JUMPI DUP1 PUSH4 0x69F9AD2F EQ PUSH2 0x81 JUMPI DUP1 PUSH4 0xEFC6C18C EQ PUSH2 0xB1 JUMPI DUP1 PUSH4 0xFD3BAD52 EQ PUSH2 0xCF JUMPI JUMPDEST PUSH1 0x0 DUP1 REVERT JUMPDEST PUSH2 0x6B PUSH1 0x4 DUP1 CALLDATASIZE SUB DUP2 ADD SWAP1 PUSH2 0x66 SWAP2 SWAP1 PUSH2 0x4DF JUMP JUMPDEST PUSH2 0xFF JUMP JUMPDEST PUSH1 0x40 MLOAD PUSH2 0x78 SWAP2 SWAP1 PUSH2 0x5A5 JUMP JUMPDEST PUSH1 0x40 MLOAD DUP1 SWAP2 SUB SWAP1 RETURN JUMPDEST PUSH2 0x9B PUSH1 0x4 DUP1 CALLDATASIZE SUB DUP2 ADD SWAP1 PUSH2 0x96 SWAP2 SWAP1 PUSH2 0x61F JUMP JUMPDEST PUSH2 0x3A4 JUMP JUMPDEST PUSH1 0x40 MLOAD PUSH2 0xA8 SWAP2 SWAP1 PUSH2 0x65B JUMP JUMPDEST PUSH1 0x40 MLOAD DUP1 SWAP2 SUB SWAP1 RETURN JUMPDEST PUSH2 0xB9 PUSH2 0x3EA JUMP JUMPDEST PUSH1 0x40 MLOAD PUSH2 0xC6 SWAP2 SWAP1 PUSH2 0x68F JUMP JUMPDEST PUSH1 0x40 MLOAD DUP1 SWAP2 SUB SWAP1 RETURN JUMPDEST PUSH2 0xE9 PUSH1 0x4 DUP1 CALLDATASIZE SUB DUP2 ADD SWAP1 PUSH2 0xE4 SWAP2 SWAP1 PUSH2 0x6E0 JUMP JUMPDEST PUSH2 0x43E JUMP JUMPDEST PUSH1 0x40 MLOAD PUSH2 0xF6 SWAP2 SWAP1 PUSH2 0x72F JUMP JUMPDEST PUSH1 0x40 MLOAD DUP1 SWAP2 SUB SWAP1 RETURN JUMPDEST PUSH1 0x60 PUSH1 0x0 PUSH1 0x28 PUSH8 0xFFFFFFFFFFFFFFFF DUP2 GT ISZERO PUSH2 0x11E JUMPI PUSH2 0x11D PUSH2 0x74A JUMP JUMPDEST JUMPDEST PUSH1 0x40 MLOAD SWAP1 DUP1 DUP3 MSTORE DUP1 PUSH1 0x1F ADD PUSH1 0x1F NOT AND PUSH1 0x20 ADD DUP3 ADD PUSH1 0x40 MSTORE DUP1 ISZERO PUSH2 0x150 JUMPI DUP2 PUSH1 0x20 ADD PUSH1 0x1 DUP3 MUL DUP1 CALLDATASIZE DUP4 CALLDATACOPY DUP1 DUP3 ADD SWAP2 POP POP SWAP1 POP JUMPDEST POP SWAP1 POP PUSH1 0x0 JUMPDEST PUSH1 0x14 DUP2 LT ISZERO PUSH2 0x39A JUMPI PUSH1 0x0 DUP2 PUSH1 0x13 PUSH2 0x16E SWAP2 SWAP1 PUSH2 0x7A8 JUMP JUMPDEST PUSH1 0x8 PUSH2 0x17A SWAP2 SWAP1 PUSH2 0x7DC JUMP JUMPDEST PUSH1 0x2 PUSH2 0x186 SWAP2 SWAP1 PUSH2 0x969 JUMP JUMPDEST DUP6 PUSH20 0xFFFFFFFFFFFFFFFFFFFFFFFFFFFFFFFFFFFFFFFF AND PUSH2 0x1A7 SWAP2 SWAP1 PUSH2 0x9E3 JUMP JUMPDEST PUSH1 0xF8 SHL SWAP1 POP PUSH1 0x0 PUSH1 0x10 DUP3 PUSH1 0xF8 SHR PUSH2 0x1BE SWAP2 SWAP1 PUSH2 0xA21 JUMP JUMPDEST PUSH1 0xF8 SHL SWAP1 POP PUSH1 0x0 DUP2 PUSH1 0xF8 SHR PUSH1 0x10 PUSH2 0x1D5 SWAP2 SWAP1 PUSH2 0xA52 JUMP JUMPDEST DUP4 PUSH1 0xF8 SHR PUSH2 0x1E3 SWAP2 SWAP1 PUSH2 0xA8D JUMP JUMPDEST PUSH1 0xF8 SHL SWAP1 POP ADDRESS PUSH20 0xFFFFFFFFFFFFFFFFFFFFFFFFFFFFFFFFFFFFFFFF AND PUSH4 0x69F9AD2F DUP4 PUSH1 0x40 MLOAD DUP3 PUSH4 0xFFFFFFFF AND PUSH1 0xE0 SHL DUP2 MSTORE PUSH1 0x4 ADD PUSH2 0x221 SWAP2 SWAP1 PUSH2 0x65B JUMP JUMPDEST PUSH1 0x20 PUSH1 0x40 MLOAD DUP1 DUP4 SUB DUP2 DUP7 GAS STATICCALL ISZERO DUP1 ISZERO PUSH2 0x23E JUMPI RETURNDATASIZE PUSH1 0x0 DUP1 RETURNDATACOPY RETURNDATASIZE PUSH1 0x0 REVERT JUMPDEST POP POP POP POP PUSH1 0x40 MLOAD RETURNDATASIZE PUSH1 0x1F NOT PUSH1 0x1F DUP3 ADD AND DUP3 ADD DUP1 PUSH1 0x40 MSTORE POP DUP2 ADD SWAP1 PUSH2 0x262 SWAP2 SWAP1 PUSH2 0xAD6 JUMP JUMPDEST DUP6 DUP6 PUSH1 0x2 PUSH2 0x270 SWAP2 SWAP1 PUSH2 0x7DC JUMP JUMPDEST DUP2 MLOAD DUP2 LT PUSH2 0x281 JUMPI PUSH2 0x280 PUSH2 0xB03 JUMP JUMPDEST JUMPDEST PUSH1 0x20 ADD ADD SWAP1 PUSH31 0xFFFFFFFFFFFFFFFFFFFFFFFFFFFFFFFFFFFFFFFFFFFFFFFFFFFFFFFFFFFFFF NOT AND SWAP1 DUP2 PUSH1 0x0 BYTE SWAP1 MSTORE8 POP ADDRESS PUSH20 0xFFFFFFFFFFFFFFFFFFFFFFFFFFFFFFFFFFFFFFFF AND PUSH4 0x69F9AD2F DUP3 PUSH1 0x40 MLOAD DUP3 PUSH4 0xFFFFFFFF AND PUSH1 0xE0 SHL DUP2 MSTORE PUSH1 0x4 ADD PUSH2 0x2E9 SWAP2 SWAP1 PUSH2 0x65B JUMP JUMPDEST PUSH1 0x20 PUSH1 0x40 MLOAD DUP1 DUP4 SUB DUP2 DUP7 GAS STATICCALL ISZERO DUP1 ISZERO PUSH2 0x306 JUMPI RETURNDATASIZE PUSH1 0x0 DUP1 RETURNDATACOPY RETURNDATASIZE PUSH1 0x0 REVERT JUMPDEST POP POP POP POP PUSH1 0x40 MLOAD RETURNDATASIZE PUSH1 0x1F NOT PUSH1 0x1F DUP3 ADD AND DUP3 ADD DUP1 PUSH1 0x40 MSTORE POP DUP2 ADD SWAP1 PUSH2 0x32A SWAP2 SWAP1 PUSH2 0xAD6 JUMP JUMPDEST DUP6 PUSH1 0x1 DUP7 PUSH1 0x2 PUSH2 0x33A SWAP2 SWAP1 PUSH2 0x7DC JUMP JUMPDEST PUSH2 0x344 SWAP2 SWAP1 PUSH2 0xB32 JUMP JUMPDEST DUP2 MLOAD DUP2 LT PUSH2 0x355 JUMPI PUSH2 0x354 PUSH2 0xB03 JUMP JUMPDEST JUMPDEST PUSH1 0x20 ADD ADD SWAP1 PUSH31 0xFFFFFFFFFFFFFFFFFFFFFFFFFFFFFFFFFFFFFFFFFFFFFFFFFFFFFFFFFFFFFF NOT AND SWAP1 DUP2 PUSH1 0x0 BYTE SWAP1 MSTORE8 POP POP POP POP DUP1 DUP1 PUSH2 0x392 SWAP1 PUSH2 0xB88 JUMP JUMPDEST SWAP2 POP POP PUSH2 0x156 JUMP JUMPDEST POP DUP1 SWAP2 POP POP SWAP2 SWAP1 POP JUMP JUMPDEST PUSH1 0x0 PUSH1 0xA DUP3 PUSH1 0xF8 SHR PUSH1 0xFF AND LT ISZERO PUSH2 0x3CF JUMPI PUSH1 0x30 DUP3 PUSH1 0xF8 SHR PUSH2 0x3C5 SWAP2 SWAP1 PUSH2 0xBD1 JUMP JUMPDEST PUSH1 0xF8 SHL SWAP1 POP PUSH2 0x3E5 JUMP JUMPDEST PUSH1 0x57 DUP3 PUSH1 0xF8 SHR PUSH2 0x3DF SWAP2 SWAP1 PUSH2 0xBD1 JUMP JUMPDEST PUSH1 0xF8 SHL SWAP1 POP JUMPDEST SWAP2 SWAP1 POP JUMP JUMPDEST PUSH1 0x0 DUP1 PUSH1 0x0 SWAP1 POP PUSH1 0x0 DUP2 TIMESTAMP DIFFICULTY COINBASE PUSH1 0x40 MLOAD PUSH1 0x20 ADD PUSH2 0x40A SWAP5 SWAP4 SWAP3 SWAP2 SWAP1 PUSH2 0xC83 JUMP JUMPDEST PUSH1 0x40 MLOAD PUSH1 0x20 DUP2 DUP4 SUB SUB DUP2 MSTORE SWAP1 PUSH1 0x40 MSTORE DUP1 MLOAD SWAP1 PUSH1 0x20 ADD KECCAK256 PUSH1 0x0 SHR SWAP1 POP DUP2 DUP1 PUSH2 0x430 SWAP1 PUSH2 0xB88 JUMP JUMPDEST SWAP3 POP POP DUP1 PUSH1 0x0 SHL SWAP3 POP POP POP SWAP1 JUMP JUMPDEST PUSH1 0x0 DUP1 DUP3 DUP5 PUSH2 0x44D SWAP2 SWAP1 PUSH2 0x9E3 JUMP JUMPDEST SWAP1 POP PUSH1 0x0 DUP4 DUP6 PUSH2 0x45D SWAP2 SWAP1 PUSH2 0xCD1 JUMP JUMPDEST EQ PUSH2 0x472 JUMPI PUSH1 0x1 DUP2 PUSH2 0x46F SWAP2 SWAP1 PUSH2 0xB32 JUMP JUMPDEST SWAP1 POP JUMPDEST DUP1 SWAP2 POP POP SWAP3 SWAP2 POP POP JUMP JUMPDEST PUSH1 0x0 DUP1 REVERT JUMPDEST PUSH1 0x0 PUSH20 0xFFFFFFFFFFFFFFFFFFFFFFFFFFFFFFFFFFFFFFFF DUP3 AND SWAP1 POP SWAP2 SWAP1 POP JUMP JUMPDEST PUSH1 0x0 PUSH2 0x4AC DUP3 PUSH2 0x481 JUMP JUMPDEST SWAP1 POP SWAP2 SWAP1 POP JUMP JUMPDEST PUSH2 0x4BC DUP2 PUSH2 0x4A1 JUMP JUMPDEST DUP2 EQ PUSH2 0x4C7 JUMPI PUSH1 0x0 DUP1 REVERT JUMPDEST POP JUMP JUMPDEST PUSH1 0x0 DUP2 CALLDATALOAD SWAP1 POP PUSH2 0x4D9 DUP2 PUSH2 0x4B3 JUMP JUMPDEST SWAP3 SWAP2 POP POP JUMP JUMPDEST PUSH1 0x0 PUSH1 0x20 DUP3 DUP5 SUB SLT ISZERO PUSH2 0x4F5 JUMPI PUSH2 0x4F4 PUSH2 0x47C JUMP JUMPDEST JUMPDEST PUSH1 0x0 PUSH2 0x503 DUP5 DUP3 DUP6 ADD PUSH2 0x4CA JUMP JUMPDEST SWAP2 POP POP SWAP3 SWAP2 POP POP JUMP JUMPDEST PUSH1 0x0 DUP2 MLOAD SWAP1 POP SWAP2 SWAP1 POP JUMP JUMPDEST PUSH1 0x0 DUP3 DUP3 MSTORE PUSH1 0x20 DUP3 ADD SWAP1 POP SWAP3 SWAP2 POP POP JUMP JUMPDEST PUSH1 0x0 JUMPDEST DUP4 DUP2 LT ISZERO PUSH2 0x546 JUMPI DUP1 DUP3 ADD MLOAD DUP2 DUP5 ADD MSTORE PUSH1 0x20 DUP2 ADD SWAP1 POP PUSH2 0x52B JUMP JUMPDEST DUP4 DUP2 GT ISZERO PUSH2 0x555 JUMPI PUSH1 0x0 DUP5 DUP5 ADD MSTORE JUMPDEST POP POP POP POP JUMP JUMPDEST PUSH1 0x0 PUSH1 0x1F NOT PUSH1 0x1F DUP4 ADD AND SWAP1 POP SWAP2 SWAP1 POP JUMP JUMPDEST PUSH1 0x0 PUSH2 0x577 DUP3 PUSH2 0x50C JUMP JUMPDEST PUSH2 0x581 DUP2 DUP6 PUSH2 0x517 JUMP JUMPDEST SWAP4 POP PUSH2 0x591 DUP2 DUP6 PUSH1 0x20 DUP7 ADD PUSH2 0x528 JUMP JUMPDEST PUSH2 0x59A DUP2 PUSH2 0x55B JUMP JUMPDEST DUP5 ADD SWAP2 POP POP SWAP3 SWAP2 POP POP JUMP JUMPDEST PUSH1 0x0 PUSH1 0x20 DUP3 ADD SWAP1 POP DUP2 DUP2 SUB PUSH1 0x0 DUP4 ADD MSTORE PUSH2 0x5BF DUP2 DUP5 PUSH2 0x56C JUMP JUMPDEST SWAP1 POP SWAP3 SWAP2 POP POP JUMP JUMPDEST PUSH1 0x0 PUSH32 0xFF00000000000000000000000000000000000000000000000000000000000000 DUP3 AND SWAP1 POP SWAP2 SWAP1 POP JUMP JUMPDEST PUSH2 0x5FC DUP2 PUSH2 0x5C7 JUMP JUMPDEST DUP2 EQ PUSH2 0x607 JUMPI PUSH1 0x0 DUP1 REVERT JUMPDEST POP JUMP JUMPDEST PUSH1 0x0 DUP2 CALLDATALOAD SWAP1 POP PUSH2 0x619 DUP2 PUSH2 0x5F3 JUMP JUMPDEST SWAP3 SWAP2 POP POP JUMP JUMPDEST PUSH1 0x0 PUSH1 0x20 DUP3 DUP5 SUB SLT ISZERO PUSH2 0x635 JUMPI PUSH2 0x634 PUSH2 0x47C JUMP JUMPDEST JUMPDEST PUSH1 0x0 PUSH2 0x643 DUP5 DUP3 DUP6 ADD PUSH2 0x60A JUMP JUMPDEST SWAP2 POP POP SWAP3 SWAP2 POP POP JUMP JUMPDEST PUSH2 0x655 DUP2 PUSH2 0x5C7 JUMP JUMPDEST DUP3 MSTORE POP POP JUMP JUMPDEST PUSH1 0x0 PUSH1 0x20 DUP3 ADD SWAP1 POP PUSH2 0x670 PUSH1 0x0 DUP4 ADD DUP5 PUSH2 0x64C JUMP JUMPDEST SWAP3 SWAP2 POP POP JUMP JUMPDEST PUSH1 0x0 DUP2 SWAP1 POP SWAP2 SWAP1 POP JUMP JUMPDEST PUSH2 0x689 DUP2 PUSH2 0x676 JUMP JUMPDEST DUP3 MSTORE POP POP JUMP JUMPDEST PUSH1 0x0 PUSH1 0x20 DUP3 ADD SWAP1 POP PUSH2 0x6A4 PUSH1 0x0 DUP4 ADD DUP5 PUSH2 0x680 JUMP JUMPDEST SWAP3 SWAP2 POP POP JUMP JUMPDEST PUSH1 0x0 DUP2 SWAP1 POP SWAP2 SWAP1 POP JUMP JUMPDEST PUSH2 0x6BD DUP2 PUSH2 0x6AA JUMP JUMPDEST DUP2 EQ PUSH2 0x6C8 JUMPI PUSH1 0x0 DUP1 REVERT JUMPDEST POP JUMP JUMPDEST PUSH1 0x0 DUP2 CALLDATALOAD SWAP1 POP PUSH2 0x6DA DUP2 PUSH2 0x6B4 JUMP JUMPDEST SWAP3 SWAP2 POP POP JUMP JUMPDEST PUSH1 0x0 DUP1 PUSH1 0x40 DUP4 DUP6 SUB SLT ISZERO PUSH2 0x6F7 JUMPI PUSH2 0x6F6 PUSH2 0x47C JUMP JUMPDEST JUMPDEST PUSH1 0x0 PUSH2 0x705 DUP6 DUP3 DUP7 ADD PUSH2 0x6CB JUMP JUMPDEST SWAP3 POP POP PUSH1 0x20 PUSH2 0x716 DUP6 DUP3 DUP7 ADD PUSH2 0x6CB JUMP JUMPDEST SWAP2 POP POP SWAP3 POP SWAP3 SWAP1 POP JUMP JUMPDEST PUSH2 0x729 DUP2 PUSH2 0x6AA JUMP JUMPDEST DUP3 MSTORE POP POP JUMP JUMPDEST PUSH1 0x0 PUSH1 0x20 DUP3 ADD SWAP1 POP PUSH2 0x744 PUSH1 0x0 DUP4 ADD DUP5 PUSH2 0x720 JUMP JUMPDEST SWAP3 SWAP2 POP POP JUMP JUMPDEST PUSH32 0x4E487B7100000000000000000000000000000000000000000000000000000000 PUSH1 0x0 MSTORE PUSH1 0x41 PUSH1 0x4 MSTORE PUSH1 0x24 PUSH1 0x0 REVERT JUMPDEST PUSH32 0x4E487B7100000000000000000000000000000000000000000000000000000000 PUSH1 0x0 MSTORE PUSH1 0x11 PUSH1 0x4 MSTORE PUSH1 0x24 PUSH1 0x0 REVERT JUMPDEST PUSH1 0x0 PUSH2 0x7B3 DUP3 PUSH2 0x6AA JUMP JUMPDEST SWAP2 POP PUSH2 0x7BE DUP4 PUSH2 0x6AA JUMP JUMPDEST SWAP3 POP DUP3 DUP3 LT ISZERO PUSH2 0x7D1 JUMPI PUSH2 0x7D0 PUSH2 0x779 JUMP JUMPDEST JUMPDEST DUP3 DUP3 SUB SWAP1 POP SWAP3 SWAP2 POP POP JUMP JUMPDEST PUSH1 0x0 PUSH2 0x7E7 DUP3 PUSH2 0x6AA JUMP JUMPDEST SWAP2 POP PUSH2 0x7F2 DUP4 PUSH2 0x6AA JUMP JUMPDEST SWAP3 POP DUP2 PUSH32 0xFFFFFFFFFFFFFFFFFFFFFFFFFFFFFFFFFFFFFFFFFFFFFFFFFFFFFFFFFFFFFFFF DIV DUP4 GT DUP3 ISZERO ISZERO AND ISZERO PUSH2 0x82B JUMPI PUSH2 0x82A PUSH2 0x779 JUMP JUMPDEST JUMPDEST DUP3 DUP3 MUL SWAP1 POP SWAP3 SWAP2 POP POP JUMP JUMPDEST PUSH1 0x0 DUP2 PUSH1 0x1 SHR SWAP1 POP SWAP2 SWAP1 POP JUMP JUMPDEST PUSH1 0x0 DUP1 DUP3 SWAP2 POP DUP4 SWAP1 POP JUMPDEST PUSH1 0x1 DUP6 GT ISZERO PUSH2 0x88D JUMPI DUP1 DUP7 DIV DUP2 GT ISZERO PUSH2 0x869 JUMPI PUSH2 0x868 PUSH2 0x779 JUMP JUMPDEST JUMPDEST PUSH1 0x1 DUP6 AND ISZERO PUSH2 0x878 JUMPI DUP1 DUP3 MUL SWAP2 POP JUMPDEST DUP1 DUP2 MUL SWAP1 POP PUSH2 0x886 DUP6 PUSH2 0x836 JUMP JUMPDEST SWAP5 POP PUSH2 0x84D JUMP JUMPDEST SWAP5 POP SWAP5 SWAP3 POP POP POP JUMP JUMPDEST PUSH1 0x0 DUP3 PUSH2 0x8A6 JUMPI PUSH1 0x1 SWAP1 POP PUSH2 0x962 JUMP JUMPDEST DUP2 PUSH2 0x8B4 JUMPI PUSH1 0x0 SWAP1 POP PUSH2 0x962 JUMP JUMPDEST DUP2 PUSH1 0x1 DUP2 EQ PUSH2 0x8CA JUMPI PUSH1 0x2 DUP2 EQ PUSH2 0x8D4 JUMPI PUSH2 0x903 JUMP JUMPDEST PUSH1 0x1 SWAP2 POP POP PUSH2 0x962 JUMP JUMPDEST PUSH1 0xFF DUP5 GT ISZERO PUSH2 0x8E6 JUMPI PUSH2 0x8E5 PUSH2 0x779 JUMP JUMPDEST JUMPDEST DUP4 PUSH1 0x2 EXP SWAP2 POP DUP5 DUP3 GT ISZERO PUSH2 0x8FD JUMPI PUSH2 0x8FC PUSH2 0x779 JUMP JUMPDEST JUMPDEST POP PUSH2 0x962 JUMP JUMPDEST POP PUSH1 0x20 DUP4 LT PUSH2 0x133 DUP4 LT AND PUSH1 0x4E DUP5 LT PUSH1 0xB DUP5 LT AND OR ISZERO PUSH2 0x938 JUMPI DUP3 DUP3 EXP SWAP1 POP DUP4 DUP2 GT ISZERO PUSH2 0x933 JUMPI PUSH2 0x932 PUSH2 0x779 JUMP JUMPDEST JUMPDEST PUSH2 0x962 JUMP JUMPDEST PUSH2 0x945 DUP5 DUP5 DUP5 PUSH1 0x1 PUSH2 0x843 JUMP JUMPDEST SWAP3 POP SWAP1 POP DUP2 DUP5 DIV DUP2 GT ISZERO PUSH2 0x95C JUMPI PUSH2 0x95B PUSH2 0x779 JUMP JUMPDEST JUMPDEST DUP2 DUP2 MUL SWAP1 POP JUMPDEST SWAP4 SWAP3 POP POP POP JUMP JUMPDEST PUSH1 0x0 PUSH2 0x974 DUP3 PUSH2 0x6AA JUMP JUMPDEST SWAP2 POP PUSH2 0x97F DUP4 PUSH2 0x6AA JUMP JUMPDEST SWAP3 POP PUSH2 0x9AC PUSH32 0xFFFFFFFFFFFFFFFFFFFFFFFFFFFFFFFFFFFFFFFFFFFFFFFFFFFFFFFFFFFFFFFF DUP5 DUP5 PUSH2 0x896 JUMP JUMPDEST SWAP1 POP SWAP3 SWAP2 POP POP JUMP JUMPDEST PUSH32 0x4E487B7100000000000000000000000000000000000000000000000000000000 PUSH1 0x0 MSTORE PUSH1 0x12 PUSH1 0x4 MSTORE PUSH1 0x24 PUSH1 0x0 REVERT JUMPDEST PUSH1 0x0 PUSH2 0x9EE DUP3 PUSH2 0x6AA JUMP JUMPDEST SWAP2 POP PUSH2 0x9F9 DUP4 PUSH2 0x6AA JUMP JUMPDEST SWAP3 POP DUP3 PUSH2 0xA09 JUMPI PUSH2 0xA08 PUSH2 0x9B4 JUMP JUMPDEST JUMPDEST DUP3 DUP3 DIV SWAP1 POP SWAP3 SWAP2 POP POP JUMP JUMPDEST PUSH1 0x0 PUSH1 0xFF DUP3 AND SWAP1 POP SWAP2 SWAP1 POP JUMP JUMPDEST PUSH1 0x0 PUSH2 0xA2C DUP3 PUSH2 0xA14 JUMP JUMPDEST SWAP2 POP PUSH2 0xA37 DUP4 PUSH2 0xA14 JUMP JUMPDEST SWAP3 POP DUP3 PUSH2 0xA47 JUMPI PUSH2 0xA46 PUSH2 0x9B4 JUMP JUMPDEST JUMPDEST DUP3 DUP3 DIV SWAP1 POP SWAP3 SWAP2 POP POP JUMP JUMPDEST PUSH1 0x0 PUSH2 0xA5D DUP3 PUSH2 0xA14 JUMP JUMPDEST SWAP2 POP PUSH2 0xA68 DUP4 PUSH2 0xA14 JUMP JUMPDEST SWAP3 POP DUP2 PUSH1 0xFF DIV DUP4 GT DUP3 ISZERO ISZERO AND ISZERO PUSH2 0xA82 JUMPI PUSH2 0xA81 PUSH2 0x779 JUMP JUMPDEST JUMPDEST DUP3 DUP3 MUL SWAP1 POP SWAP3 SWAP2 POP POP JUMP JUMPDEST PUSH1 0x0 PUSH2 0xA98 DUP3 PUSH2 0xA14 JUMP JUMPDEST SWAP2 POP PUSH2 0xAA3 DUP4 PUSH2 0xA14 JUMP JUMPDEST SWAP3 POP DUP3 DUP3 LT ISZERO PUSH2 0xAB6 JUMPI PUSH2 0xAB5 PUSH2 0x779 JUMP JUMPDEST JUMPDEST DUP3 DUP3 SUB SWAP1 POP SWAP3 SWAP2 POP POP JUMP JUMPDEST PUSH1 0x0 DUP2 MLOAD SWAP1 POP PUSH2 0xAD0 DUP2 PUSH2 0x5F3 JUMP JUMPDEST SWAP3 SWAP2 POP POP JUMP JUMPDEST PUSH1 0x0 PUSH1 0x20 DUP3 DUP5 SUB SLT ISZERO PUSH2 0xAEC JUMPI PUSH2 0xAEB PUSH2 0x47C JUMP JUMPDEST JUMPDEST PUSH1 0x0 PUSH2 0xAFA DUP5 DUP3 DUP6 ADD PUSH2 0xAC1 JUMP JUMPDEST SWAP2 POP POP SWAP3 SWAP2 POP POP JUMP JUMPDEST PUSH32 0x4E487B7100000000000000000000000000000000000000000000000000000000 PUSH1 0x0 MSTORE PUSH1 0x32 PUSH1 0x4 MSTORE PUSH1 0x24 PUSH1 0x0 REVERT JUMPDEST PUSH1 0x0 PUSH2 0xB3D DUP3 PUSH2 0x6AA JUMP JUMPDEST SWAP2 POP PUSH2 0xB48 DUP4 PUSH2 0x6AA JUMP JUMPDEST SWAP3 POP DUP3 PUSH32 0xFFFFFFFFFFFFFFFFFFFFFFFFFFFFFFFFFFFFFFFFFFFFFFFFFFFFFFFFFFFFFFFF SUB DUP3 GT ISZERO PUSH2 0xB7D JUMPI PUSH2 0xB7C PUSH2 0x779 JUMP JUMPDEST JUMPDEST DUP3 DUP3 ADD SWAP1 POP SWAP3 SWAP2 POP POP JUMP JUMPDEST PUSH1 0x0 PUSH2 0xB93 DUP3 PUSH2 0x6AA JUMP JUMPDEST SWAP2 POP PUSH32 0xFFFFFFFFFFFFFFFFFFFFFFFFFFFFFFFFFFFFFFFFFFFFFFFFFFFFFFFFFFFFFFFF DUP3 EQ ISZERO PUSH2 0xBC6 JUMPI PUSH2 0xBC5 PUSH2 0x779 JUMP JUMPDEST JUMPDEST PUSH1 0x1 DUP3 ADD SWAP1 POP SWAP2 SWAP1 POP JUMP JUMPDEST PUSH1 0x0 PUSH2 0xBDC DUP3 PUSH2 0xA14 JUMP JUMPDEST SWAP2 POP PUSH2 0xBE7 DUP4 PUSH2 0xA14 JUMP JUMPDEST SWAP3 POP DUP3 PUSH1 0xFF SUB DUP3 GT ISZERO PUSH2 0xBFD JUMPI PUSH2 0xBFC PUSH2 0x779 JUMP JUMPDEST JUMPDEST DUP3 DUP3 ADD SWAP1 POP SWAP3 SWAP2 POP POP JUMP JUMPDEST PUSH1 0x0 DUP2 SWAP1 POP SWAP2 SWAP1 POP JUMP JUMPDEST PUSH2 0xC23 PUSH2 0xC1E DUP3 PUSH2 0x6AA JUMP JUMPDEST PUSH2 0xC08 JUMP JUMPDEST DUP3 MSTORE POP POP JUMP JUMPDEST PUSH1 0x0 PUSH2 0xC34 DUP3 PUSH2 0x481 JUMP JUMPDEST SWAP1 POP SWAP2 SWAP1 POP JUMP JUMPDEST PUSH1 0x0 DUP2 PUSH1 0x60 SHL SWAP1 POP SWAP2 SWAP1 POP JUMP JUMPDEST PUSH1 0x0 PUSH2 0xC53 DUP3 PUSH2 0xC3B JUMP JUMPDEST SWAP1 POP SWAP2 SWAP1 POP JUMP JUMPDEST PUSH1 0x0 PUSH2 0xC65 DUP3 PUSH2 0xC48 JUMP JUMPDEST SWAP1 POP SWAP2 SWAP1 POP JUMP JUMPDEST PUSH2 0xC7D PUSH2 0xC78 DUP3 PUSH2 0xC29 JUMP JUMPDEST PUSH2 0xC5A JUMP JUMPDEST DUP3 MSTORE POP POP JUMP JUMPDEST PUSH1 0x0 PUSH2 0xC8F DUP3 DUP8 PUSH2 0xC12 JUMP JUMPDEST PUSH1 0x20 DUP3 ADD SWAP2 POP PUSH2 0xC9F DUP3 DUP7 PUSH2 0xC12 JUMP JUMPDEST PUSH1 0x20 DUP3 ADD SWAP2 POP PUSH2 0xCAF DUP3 DUP6 PUSH2 0xC12 JUMP JUMPDEST PUSH1 0x20 DUP3 ADD SWAP2 POP PUSH2 0xCBF DUP3 DUP5 PUSH2 0xC6C JUMP JUMPDEST PUSH1 0x14 DUP3 ADD SWAP2 POP DUP2 SWAP1 POP SWAP6 SWAP5 POP POP POP POP POP JUMP JUMPDEST PUSH1 0x0 PUSH2 0xCDC DUP3 PUSH2 0x6AA JUMP JUMPDEST SWAP2 POP PUSH2 0xCE7 DUP4 PUSH2 0x6AA JUMP JUMPDEST SWAP3 POP DUP3 PUSH2 0xCF7 JUMPI PUSH2 0xCF6 PUSH2 0x9B4 JUMP JUMPDEST JUMPDEST DUP3 DUP3 MOD SWAP1 POP SWAP3 SWAP2 POP POP JUMP INVALID LOG2 PUSH5 0x6970667358 0x22 SLT KECCAK256 0xAF 0xDA 0xBD 0xB3 0x2A PUSH32 0xCE47C4C67B84DD14C00DDD90189C2E876036D806ED9AE30BF64264736F6C6343 STOP ADDMOD 0xC STOP CALLER "
		},
		"gasEstimates": {
			"creation": {
				"codeDepositCost": "676800",
				"executionCost": "708",
				"totalCost": "677508"
			},
			"external": {
				"char(bytes1)": "infinite",
				"divideAndRoundUp(uint256,uint256)": "infinite",
				"generateGUID()": "infinite",
				"toAsciiString(address)": "infinite"
			}
		},
		"methodIdentifiers": {
			"char(bytes1)": "69f9ad2f",
			"divideAndRoundUp(uint256,uint256)": "fd3bad52",
			"generateGUID()": "efc6c18c",
			"toAsciiString(address)": "2c6e7598"
		}
	},
	"abi": [
		{
			"inputs": [
				{
					"internalType": "bytes1",
					"name": "b",
					"type": "bytes1"
				}
			],
			"name": "char",
			"outputs": [
				{
					"internalType": "bytes1",
					"name": "c",
					"type": "bytes1"
				}
			],
			"stateMutability": "pure",
			"type": "function"
		},
		{
			"inputs": [
				{
					"internalType": "uint256",
					"name": "numerator",
					"type": "uint256"
				},
				{
					"internalType": "uint256",
					"name": "denominator",
					"type": "uint256"
				}
			],
			"name": "divideAndRoundUp",
			"outputs": [
				{
					"internalType": "uint256",
					"name": "",
					"type": "uint256"
				}
			],
			"stateMutability": "pure",
			"type": "function"
		},
		{
			"inputs": [],
			"name": "generateGUID",
			"outputs": [
				{
					"internalType": "bytes32",
					"name": "",
					"type": "bytes32"
				}
			],
			"stateMutability": "view",
			"type": "function"
		},
		{
			"inputs": [
				{
					"internalType": "address",
					"name": "x",
					"type": "address"
				}
			],
			"name": "toAsciiString",
			"outputs": [
				{
					"internalType": "string",
					"name": "",
					"type": "string"
				}
			],
			"stateMutability": "view",
			"type": "function"
		}
	]
}