{
	"OnDemo/contracts/AccountManagement.sol": {
		"AccountManagement": {
			"abi": [
				{
					"inputs": [
						{
							"internalType": "string",
							"name": "_firstName",
							"type": "string"
						},
						{
							"internalType": "string",
							"name": "_secondName",
							"type": "string"
						},
						{
							"internalType": "string",
							"name": "_mailAdress",
							"type": "string"
						}
					],
					"stateMutability": "nonpayable",
					"type": "constructor"
				},
				{
					"inputs": [],
					"name": "activeMemberCount",
					"outputs": [
						{
							"internalType": "uint256",
							"name": "",
							"type": "uint256"
						}
					],
					"stateMutability": "view",
					"type": "function"
				},
				{
					"inputs": [
						{
							"internalType": "address",
							"name": "_address",
							"type": "address"
						},
						{
							"internalType": "enum AccountManagement.Role",
							"name": "_role",
							"type": "uint8"
						}
					],
					"name": "assignRole",
					"outputs": [],
					"stateMutability": "nonpayable",
					"type": "function"
				},
				{
					"inputs": [
						{
							"internalType": "address",
							"name": "_address",
							"type": "address"
						}
					],
					"name": "burnAccount",
					"outputs": [],
					"stateMutability": "nonpayable",
					"type": "function"
				},
				{
					"inputs": [
						{
							"internalType": "address",
							"name": "_address",
							"type": "address"
						},
						{
							"internalType": "string",
							"name": "_firstName",
							"type": "string"
						},
						{
							"internalType": "string",
							"name": "_secondName",
							"type": "string"
						},
						{
							"internalType": "string",
							"name": "_mailAdress",
							"type": "string"
						}
					],
					"name": "createAccount",
					"outputs": [],
					"stateMutability": "nonpayable",
					"type": "function"
				},
				{
					"inputs": [],
					"name": "getActiveMemberCount",
					"outputs": [
						{
							"internalType": "uint256",
							"name": "",
							"type": "uint256"
						}
					],
					"stateMutability": "view",
					"type": "function"
				},
				{
					"inputs": [
						{
							"internalType": "address",
							"name": "_address",
							"type": "address"
						}
					],
					"name": "hasCouncilMemberRole",
					"outputs": [
						{
							"internalType": "bool",
							"name": "",
							"type": "bool"
						}
					],
					"stateMutability": "view",
					"type": "function"
				},
				{
					"inputs": [
						{
							"internalType": "address",
							"name": "_address",
							"type": "address"
						}
					],
					"name": "hasGuestRole",
					"outputs": [
						{
							"internalType": "bool",
							"name": "",
							"type": "bool"
						}
					],
					"stateMutability": "view",
					"type": "function"
				},
				{
					"inputs": [
						{
							"internalType": "address",
							"name": "_address",
							"type": "address"
						}
					],
					"name": "hasLeaderRole",
					"outputs": [
						{
							"internalType": "bool",
							"name": "",
							"type": "bool"
						}
					],
					"stateMutability": "view",
					"type": "function"
				},
				{
					"inputs": [
						{
							"internalType": "address",
							"name": "_address",
							"type": "address"
						}
					],
					"name": "hasMemberRole",
					"outputs": [
						{
							"internalType": "bool",
							"name": "",
							"type": "bool"
						}
					],
					"stateMutability": "view",
					"type": "function"
				},
				{
					"inputs": [
						{
							"internalType": "address",
							"name": "_address",
							"type": "address"
						}
					],
					"name": "hasRightToCreateReferendum",
					"outputs": [
						{
							"internalType": "bool",
							"name": "",
							"type": "bool"
						}
					],
					"stateMutability": "view",
					"type": "function"
				},
				{
					"inputs": [
						{
							"internalType": "address",
							"name": "_address",
							"type": "address"
						}
					],
					"name": "hasRightToSupport",
					"outputs": [
						{
							"internalType": "bool",
							"name": "",
							"type": "bool"
						}
					],
					"stateMutability": "view",
					"type": "function"
				},
				{
					"inputs": [
						{
							"internalType": "address",
							"name": "_address",
							"type": "address"
						}
					],
					"name": "hasRightToVote",
					"outputs": [
						{
							"internalType": "bool",
							"name": "",
							"type": "bool"
						}
					],
					"stateMutability": "view",
					"type": "function"
				},
				{
					"inputs": [
						{
							"internalType": "address",
							"name": "_address",
							"type": "address"
						}
					],
					"name": "makeAccountActive",
					"outputs": [],
					"stateMutability": "nonpayable",
					"type": "function"
				},
				{
					"inputs": [
						{
							"internalType": "address",
							"name": "_address",
							"type": "address"
						}
					],
					"name": "makeAccountPassive",
					"outputs": [],
					"stateMutability": "nonpayable",
					"type": "function"
				},
				{
					"inputs": [],
					"name": "owner",
					"outputs": [
						{
							"internalType": "address",
							"name": "",
							"type": "address"
						}
					],
					"stateMutability": "view",
					"type": "function"
				},
				{
					"inputs": [
						{
							"internalType": "address",
							"name": "_address",
							"type": "address"
						},
						{
							"internalType": "enum AccountManagement.Role",
							"name": "_role",
							"type": "uint8"
						}
					],
					"name": "removeRole",
					"outputs": [],
					"stateMutability": "nonpayable",
					"type": "function"
				}
			],
			"devdoc": {
				"kind": "dev",
				"methods": {},
				"version": 1
			},
			"evm": {
				"assembly": "    /* \"OnDemo/contracts/AccountManagement.sol\":74:8970  contract AccountManagement {... */\n  mstore(0x40, 0x80)\n    /* \"OnDemo/contracts/AccountManagement.sol\":1138:1480  constructor(string memory _firstName, string memory _secondName, string memory _mailAdress) {... */\n  callvalue\n  dup1\n  iszero\n  tag_1\n  jumpi\n  0x00\n  dup1\n  revert\ntag_1:\n  pop\n  mload(0x40)\n  sub(codesize, bytecodeSize)\n  dup1\n  bytecodeSize\n  dup4\n  codecopy\n  dup2\n  dup2\n  add\n  0x40\n  mstore\n  dup2\n  add\n  swap1\n  tag_2\n  swap2\n  swap1\n  tag_3\n  jump\t// in\ntag_2:\n    /* \"OnDemo/contracts/AccountManagement.sol\":1249:1259  msg.sender */\n  caller\n    /* \"OnDemo/contracts/AccountManagement.sol\":1241:1246  owner */\n  0x01\n  0x00\n    /* \"OnDemo/contracts/AccountManagement.sol\":1241:1259  owner = msg.sender */\n  0x0100\n  exp\n  dup2\n  sload\n  dup2\n  0xffffffffffffffffffffffffffffffffffffffff\n  mul\n  not\n  and\n  swap1\n  dup4\n  0xffffffffffffffffffffffffffffffffffffffff\n  and\n  mul\n  or\n  swap1\n  sstore\n  pop\n    /* \"OnDemo/contracts/AccountManagement.sol\":1270:1333  createAccount(msg.sender, _firstName, _secondName, _mailAdress) */\n  tag_6\n    /* \"OnDemo/contracts/AccountManagement.sol\":1284:1294  msg.sender */\n  caller\n    /* \"OnDemo/contracts/AccountManagement.sol\":1296:1306  _firstName */\n  dup5\n    /* \"OnDemo/contracts/AccountManagement.sol\":1308:1319  _secondName */\n  dup5\n    /* \"OnDemo/contracts/AccountManagement.sol\":1321:1332  _mailAdress */\n  dup5\n    /* \"OnDemo/contracts/AccountManagement.sol\":1270:1283  createAccount */\n  shl(0x20, tag_7)\n    /* \"OnDemo/contracts/AccountManagement.sol\":1270:1333  createAccount(msg.sender, _firstName, _secondName, _mailAdress) */\n  0x20\n  shr\n  jump\t// in\ntag_6:\n    /* \"OnDemo/contracts/AccountManagement.sol\":1350:1385  assignRole(msg.sender, Role.LEADER) */\n  tag_8\n    /* \"OnDemo/contracts/AccountManagement.sol\":1361:1371  msg.sender */\n  caller\n    /* \"OnDemo/contracts/AccountManagement.sol\":1373:1384  Role.LEADER */\n  0x00\n    /* \"OnDemo/contracts/AccountManagement.sol\":1350:1360  assignRole */\n  shl(0x20, tag_9)\n    /* \"OnDemo/contracts/AccountManagement.sol\":1350:1385  assignRole(msg.sender, Role.LEADER) */\n  0x20\n  shr\n  jump\t// in\ntag_8:\n    /* \"OnDemo/contracts/AccountManagement.sol\":1396:1430  removeRole(msg.sender, Role.GUEST) */\n  tag_10\n    /* \"OnDemo/contracts/AccountManagement.sol\":1407:1417  msg.sender */\n  caller\n    /* \"OnDemo/contracts/AccountManagement.sol\":1419:1429  Role.GUEST */\n  0x03\n    /* \"OnDemo/contracts/AccountManagement.sol\":1396:1406  removeRole */\n  shl(0x20, tag_11)\n    /* \"OnDemo/contracts/AccountManagement.sol\":1396:1430  removeRole(msg.sender, Role.GUEST) */\n  0x20\n  shr\n  jump\t// in\ntag_10:\n    /* \"OnDemo/contracts/AccountManagement.sol\":1443:1472  makeAccountActive(msg.sender) */\n  tag_12\n    /* \"OnDemo/contracts/AccountManagement.sol\":1461:1471  msg.sender */\n  caller\n    /* \"OnDemo/contracts/AccountManagement.sol\":1443:1460  makeAccountActive */\n  shl(0x20, tag_13)\n    /* \"OnDemo/contracts/AccountManagement.sol\":1443:1472  makeAccountActive(msg.sender) */\n  0x20\n  shr\n  jump\t// in\ntag_12:\n    /* \"OnDemo/contracts/AccountManagement.sol\":1138:1480  constructor(string memory _firstName, string memory _secondName, string memory _mailAdress) {... */\n  pop\n  pop\n  pop\n    /* \"OnDemo/contracts/AccountManagement.sol\":74:8970  contract AccountManagement {... */\n  jump(tag_14)\n    /* \"OnDemo/contracts/AccountManagement.sol\":2356:2721  function createAccount(address _address, string memory _firstName, string memory _secondName, string memory _mailAdress) public userNotExists(_address){... */\ntag_7:\n    /* \"OnDemo/contracts/AccountManagement.sol\":2498:2506  _address */\n  dup4\n    /* \"OnDemo/contracts/AccountManagement.sol\":2160:2161  0 */\n  0x00\n    /* \"OnDemo/contracts/AccountManagement.sol\":2121:2162  users[_address].userAddress == address(0) */\n  0xffffffffffffffffffffffffffffffffffffffff\n  and\n    /* \"OnDemo/contracts/AccountManagement.sol\":2121:2126  users */\n  0x02\n    /* \"OnDemo/contracts/AccountManagement.sol\":2121:2136  users[_address] */\n  0x00\n    /* \"OnDemo/contracts/AccountManagement.sol\":2127:2135  _address */\n  dup4\n    /* \"OnDemo/contracts/AccountManagement.sol\":2121:2136  users[_address] */\n  0xffffffffffffffffffffffffffffffffffffffff\n  and\n  0xffffffffffffffffffffffffffffffffffffffff\n  and\n  dup2\n  mstore\n  0x20\n  add\n  swap1\n  dup2\n  mstore\n  0x20\n  add\n  0x00\n  keccak256\n    /* \"OnDemo/contracts/AccountManagement.sol\":2121:2148  users[_address].userAddress */\n  0x00\n  add\n  0x00\n  swap1\n  sload\n  swap1\n  0x0100\n  exp\n  swap1\n  div\n  0xffffffffffffffffffffffffffffffffffffffff\n  and\n    /* \"OnDemo/contracts/AccountManagement.sol\":2121:2162  users[_address].userAddress == address(0) */\n  0xffffffffffffffffffffffffffffffffffffffff\n  and\n  eq\n    /* \"OnDemo/contracts/AccountManagement.sol\":2113:2189  require(users[_address].userAddress == address(0), \"Account already exists\") */\n  tag_16\n  jumpi\n  mload(0x40)\n  0x08c379a000000000000000000000000000000000000000000000000000000000\n  dup2\n  mstore\n  0x04\n  add\n  tag_17\n  swap1\n  tag_18\n  jump\t// in\ntag_17:\n  mload(0x40)\n  dup1\n  swap2\n  sub\n  swap1\n  revert\ntag_16:\n    /* \"OnDemo/contracts/AccountManagement.sol\":2518:2540  RoleMap memory roleMap */\n  0x00\n    /* \"OnDemo/contracts/AccountManagement.sol\":2543:2577  RoleMap(false, false, false, true) */\n  mload(0x40)\n  dup1\n  0x80\n  add\n  0x40\n  mstore\n  dup1\n    /* \"OnDemo/contracts/AccountManagement.sol\":2551:2556  false */\n  0x00\n    /* \"OnDemo/contracts/AccountManagement.sol\":2543:2577  RoleMap(false, false, false, true) */\n  iszero\n  iszero\n  dup2\n  mstore\n  0x20\n  add\n    /* \"OnDemo/contracts/AccountManagement.sol\":2558:2563  false */\n  0x00\n    /* \"OnDemo/contracts/AccountManagement.sol\":2543:2577  RoleMap(false, false, false, true) */\n  iszero\n  iszero\n  dup2\n  mstore\n  0x20\n  add\n    /* \"OnDemo/contracts/AccountManagement.sol\":2565:2570  false */\n  0x00\n    /* \"OnDemo/contracts/AccountManagement.sol\":2543:2577  RoleMap(false, false, false, true) */\n  iszero\n  iszero\n  dup2\n  mstore\n  0x20\n  add\n    /* \"OnDemo/contracts/AccountManagement.sol\":2572:2576  true */\n  0x01\n    /* \"OnDemo/contracts/AccountManagement.sol\":2543:2577  RoleMap(false, false, false, true) */\n  iszero\n  iszero\n  dup2\n  mstore\n  pop\n    /* \"OnDemo/contracts/AccountManagement.sol\":2518:2577  RoleMap memory roleMap = RoleMap(false, false, false, true) */\n  swap1\n  pop\n    /* \"OnDemo/contracts/AccountManagement.sol\":2588:2604  User memory user */\n  0x00\n    /* \"OnDemo/contracts/AccountManagement.sol\":2607:2675  User(_address, _firstName, _secondName, _mailAdress, false, roleMap) */\n  mload(0x40)\n  dup1\n  0xc0\n  add\n  0x40\n  mstore\n  dup1\n    /* \"OnDemo/contracts/AccountManagement.sol\":2612:2620  _address */\n  dup9\n    /* \"OnDemo/contracts/AccountManagement.sol\":2607:2675  User(_address, _firstName, _secondName, _mailAdress, false, roleMap) */\n  0xffffffffffffffffffffffffffffffffffffffff\n  and\n  dup2\n  mstore\n  0x20\n  add\n    /* \"OnDemo/contracts/AccountManagement.sol\":2622:2632  _firstName */\n  dup8\n    /* \"OnDemo/contracts/AccountManagement.sol\":2607:2675  User(_address, _firstName, _secondName, _mailAdress, false, roleMap) */\n  dup2\n  mstore\n  0x20\n  add\n    /* \"OnDemo/contracts/AccountManagement.sol\":2634:2645  _secondName */\n  dup7\n    /* \"OnDemo/contracts/AccountManagement.sol\":2607:2675  User(_address, _firstName, _secondName, _mailAdress, false, roleMap) */\n  dup2\n  mstore\n  0x20\n  add\n    /* \"OnDemo/contracts/AccountManagement.sol\":2647:2658  _mailAdress */\n  dup6\n    /* \"OnDemo/contracts/AccountManagement.sol\":2607:2675  User(_address, _firstName, _secondName, _mailAdress, false, roleMap) */\n  dup2\n  mstore\n  0x20\n  add\n    /* \"OnDemo/contracts/AccountManagement.sol\":2660:2665  false */\n  0x00\n    /* \"OnDemo/contracts/AccountManagement.sol\":2607:2675  User(_address, _firstName, _secondName, _mailAdress, false, roleMap) */\n  iszero\n  iszero\n  dup2\n  mstore\n  0x20\n  add\n    /* \"OnDemo/contracts/AccountManagement.sol\":2667:2674  roleMap */\n  dup4\n    /* \"OnDemo/contracts/AccountManagement.sol\":2607:2675  User(_address, _firstName, _secondName, _mailAdress, false, roleMap) */\n  dup2\n  mstore\n  pop\n    /* \"OnDemo/contracts/AccountManagement.sol\":2588:2675  User memory user = User(_address, _firstName, _secondName, _mailAdress, false, roleMap) */\n  swap1\n  pop\n    /* \"OnDemo/contracts/AccountManagement.sol\":2704:2708  user */\n  dup1\n    /* \"OnDemo/contracts/AccountManagement.sol\":2686:2691  users */\n  0x02\n    /* \"OnDemo/contracts/AccountManagement.sol\":2686:2701  users[_address] */\n  0x00\n    /* \"OnDemo/contracts/AccountManagement.sol\":2692:2700  _address */\n  dup10\n    /* \"OnDemo/contracts/AccountManagement.sol\":2686:2701  users[_address] */\n  0xffffffffffffffffffffffffffffffffffffffff\n  and\n  0xffffffffffffffffffffffffffffffffffffffff\n  and\n  dup2\n  mstore\n  0x20\n  add\n  swap1\n  dup2\n  mstore\n  0x20\n  add\n  0x00\n  keccak256\n    /* \"OnDemo/contracts/AccountManagement.sol\":2686:2708  users[_address] = user */\n  0x00\n  dup3\n  add\n  mload\n  dup2\n  0x00\n  add\n  exp(0x0100, 0x00)\n  dup2\n  sload\n  dup2\n  0xffffffffffffffffffffffffffffffffffffffff\n  mul\n  not\n  and\n  swap1\n  dup4\n  0xffffffffffffffffffffffffffffffffffffffff\n  and\n  mul\n  or\n  swap1\n  sstore\n  pop\n  0x20\n  dup3\n  add\n  mload\n  dup2\n  0x01\n  add\n  swap1\n  dup1\n  mload\n  swap1\n  0x20\n  add\n  swap1\n  tag_20\n  swap3\n  swap2\n  swap1\n  tag_21\n  jump\t// in\ntag_20:\n  pop\n  0x40\n  dup3\n  add\n  mload\n  dup2\n  0x02\n  add\n  swap1\n  dup1\n  mload\n  swap1\n  0x20\n  add\n  swap1\n  tag_22\n  swap3\n  swap2\n  swap1\n  tag_21\n  jump\t// in\ntag_22:\n  pop\n  0x60\n  dup3\n  add\n  mload\n  dup2\n  0x03\n  add\n  swap1\n  dup1\n  mload\n  swap1\n  0x20\n  add\n  swap1\n  tag_23\n  swap3\n  swap2\n  swap1\n  tag_21\n  jump\t// in\ntag_23:\n  pop\n  0x80\n  dup3\n  add\n  mload\n  dup2\n  0x04\n  add\n  exp(0x0100, 0x00)\n  dup2\n  sload\n  dup2\n  0xff\n  mul\n  not\n  and\n  swap1\n  dup4\n  iszero\n  iszero\n  mul\n  or\n  swap1\n  sstore\n  pop\n  0xa0\n  dup3\n  add\n  mload\n  dup2\n  0x05\n  add\n  0x00\n  dup3\n  add\n  mload\n  dup2\n  0x00\n  add\n  exp(0x0100, 0x00)\n  dup2\n  sload\n  dup2\n  0xff\n  mul\n  not\n  and\n  swap1\n  dup4\n  iszero\n  iszero\n  mul\n  or\n  swap1\n  sstore\n  pop\n  0x20\n  dup3\n  add\n  mload\n  dup2\n  0x00\n  add\n  exp(0x0100, 0x01)\n  dup2\n  sload\n  dup2\n  0xff\n  mul\n  not\n  and\n  swap1\n  dup4\n  iszero\n  iszero\n  mul\n  or\n  swap1\n  sstore\n  pop\n  0x40\n  dup3\n  add\n  mload\n  dup2\n  0x00\n  add\n  exp(0x0100, 0x02)\n  dup2\n  sload\n  dup2\n  0xff\n  mul\n  not\n  and\n  swap1\n  dup4\n  iszero\n  iszero\n  mul\n  or\n  swap1\n  sstore\n  pop\n  0x60\n  dup3\n  add\n  mload\n  dup2\n  0x00\n  add\n  exp(0x0100, 0x03)\n  dup2\n  sload\n  dup2\n  0xff\n  mul\n  not\n  and\n  swap1\n  dup4\n  iszero\n  iszero\n  mul\n  or\n  swap1\n  sstore\n  pop\n  pop\n  pop\n  swap1\n  pop\n  pop\n    /* \"OnDemo/contracts/AccountManagement.sol\":2507:2721  {... */\n  pop\n  pop\n    /* \"OnDemo/contracts/AccountManagement.sol\":2356:2721  function createAccount(address _address, string memory _firstName, string memory _secondName, string memory _mailAdress) public userNotExists(_address){... */\n  pop\n  pop\n  pop\n  pop\n  pop\n  jump\t// out\n    /* \"OnDemo/contracts/AccountManagement.sol\":3924:4487  function assignRole(address _address, Role _role) public onlyLeader userExists(_address){... */\ntag_9:\n    /* \"OnDemo/contracts/AccountManagement.sol\":1810:1815  owner */\n  0x01\n  0x00\n  swap1\n  sload\n  swap1\n  0x0100\n  exp\n  swap1\n  div\n  0xffffffffffffffffffffffffffffffffffffffff\n  and\n    /* \"OnDemo/contracts/AccountManagement.sol\":1796:1815  msg.sender == owner */\n  0xffffffffffffffffffffffffffffffffffffffff\n  and\n    /* \"OnDemo/contracts/AccountManagement.sol\":1796:1806  msg.sender */\n  caller\n    /* \"OnDemo/contracts/AccountManagement.sol\":1796:1815  msg.sender == owner */\n  0xffffffffffffffffffffffffffffffffffffffff\n  and\n  eq\n    /* \"OnDemo/contracts/AccountManagement.sol\":1796:1844  msg.sender == owner || hasLeaderRole(msg.sender) */\n  dup1\n  tag_25\n  jumpi\n  pop\n    /* \"OnDemo/contracts/AccountManagement.sol\":1819:1844  hasLeaderRole(msg.sender) */\n  tag_26\n    /* \"OnDemo/contracts/AccountManagement.sol\":1833:1843  msg.sender */\n  caller\n    /* \"OnDemo/contracts/AccountManagement.sol\":1819:1832  hasLeaderRole */\n  shl(0x20, tag_27)\n    /* \"OnDemo/contracts/AccountManagement.sol\":1819:1844  hasLeaderRole(msg.sender) */\n  0x20\n  shr\n  jump\t// in\ntag_26:\n    /* \"OnDemo/contracts/AccountManagement.sol\":1796:1844  msg.sender == owner || hasLeaderRole(msg.sender) */\ntag_25:\n    /* \"OnDemo/contracts/AccountManagement.sol\":1788:1883  require(msg.sender == owner || hasLeaderRole(msg.sender), \"Only owner can call this function.\") */\n  tag_28\n  jumpi\n  mload(0x40)\n  0x08c379a000000000000000000000000000000000000000000000000000000000\n  dup2\n  mstore\n  0x04\n  add\n  tag_29\n  swap1\n  tag_30\n  jump\t// in\ntag_29:\n  mload(0x40)\n  dup1\n  swap2\n  sub\n  swap1\n  revert\ntag_28:\n    /* \"OnDemo/contracts/AccountManagement.sol\":4003:4011  _address */\n  dup2\n    /* \"OnDemo/contracts/AccountManagement.sol\":2006:2007  0 */\n  0x00\n    /* \"OnDemo/contracts/AccountManagement.sol\":1967:2008  users[_address].userAddress != address(0) */\n  0xffffffffffffffffffffffffffffffffffffffff\n  and\n    /* \"OnDemo/contracts/AccountManagement.sol\":1967:1972  users */\n  0x02\n    /* \"OnDemo/contracts/AccountManagement.sol\":1967:1982  users[_address] */\n  0x00\n    /* \"OnDemo/contracts/AccountManagement.sol\":1973:1981  _address */\n  dup4\n    /* \"OnDemo/contracts/AccountManagement.sol\":1967:1982  users[_address] */\n  0xffffffffffffffffffffffffffffffffffffffff\n  and\n  0xffffffffffffffffffffffffffffffffffffffff\n  and\n  dup2\n  mstore\n  0x20\n  add\n  swap1\n  dup2\n  mstore\n  0x20\n  add\n  0x00\n  keccak256\n    /* \"OnDemo/contracts/AccountManagement.sol\":1967:1994  users[_address].userAddress */\n  0x00\n  add\n  0x00\n  swap1\n  sload\n  swap1\n  0x0100\n  exp\n  swap1\n  div\n  0xffffffffffffffffffffffffffffffffffffffff\n  and\n    /* \"OnDemo/contracts/AccountManagement.sol\":1967:2008  users[_address].userAddress != address(0) */\n  0xffffffffffffffffffffffffffffffffffffffff\n  and\n  eq\n  iszero\n    /* \"OnDemo/contracts/AccountManagement.sol\":1959:2034  require(users[_address].userAddress != address(0), \"Account doesn't exist\") */\n  tag_32\n  jumpi\n  mload(0x40)\n  0x08c379a000000000000000000000000000000000000000000000000000000000\n  dup2\n  mstore\n  0x04\n  add\n  tag_33\n  swap1\n  tag_34\n  jump\t// in\ntag_33:\n  mload(0x40)\n  dup1\n  swap2\n  sub\n  swap1\n  revert\ntag_32:\n    /* \"OnDemo/contracts/AccountManagement.sol\":4023:4040  User storage user */\n  0x00\n    /* \"OnDemo/contracts/AccountManagement.sol\":4043:4048  users */\n  0x02\n    /* \"OnDemo/contracts/AccountManagement.sol\":4043:4058  users[_address] */\n  0x00\n    /* \"OnDemo/contracts/AccountManagement.sol\":4049:4057  _address */\n  dup6\n    /* \"OnDemo/contracts/AccountManagement.sol\":4043:4058  users[_address] */\n  0xffffffffffffffffffffffffffffffffffffffff\n  and\n  0xffffffffffffffffffffffffffffffffffffffff\n  and\n  dup2\n  mstore\n  0x20\n  add\n  swap1\n  dup2\n  mstore\n  0x20\n  add\n  0x00\n  keccak256\n    /* \"OnDemo/contracts/AccountManagement.sol\":4023:4058  User storage user = users[_address] */\n  swap1\n  pop\n    /* \"OnDemo/contracts/AccountManagement.sol\":4069:4092  RoleMap storage roleMap */\n  0x00\n    /* \"OnDemo/contracts/AccountManagement.sol\":4095:4099  user */\n  dup2\n    /* \"OnDemo/contracts/AccountManagement.sol\":4095:4107  user.roleMap */\n  0x05\n  add\n    /* \"OnDemo/contracts/AccountManagement.sol\":4069:4107  RoleMap storage roleMap = user.roleMap */\n  swap1\n  pop\n    /* \"OnDemo/contracts/AccountManagement.sol\":4132:4143  Role.LEADER */\n  0x00\n    /* \"OnDemo/contracts/AccountManagement.sol\":4123:4143  _role == Role.LEADER */\n  0x03\n  dup2\n  gt\n  iszero\n  tag_36\n  jumpi\n  tag_37\n  tag_38\n  jump\t// in\ntag_37:\ntag_36:\n    /* \"OnDemo/contracts/AccountManagement.sol\":4123:4128  _role */\n  dup5\n    /* \"OnDemo/contracts/AccountManagement.sol\":4123:4143  _role == Role.LEADER */\n  0x03\n  dup2\n  gt\n  iszero\n  tag_39\n  jumpi\n  tag_40\n  tag_38\n  jump\t// in\ntag_40:\ntag_39:\n  eq\n    /* \"OnDemo/contracts/AccountManagement.sol\":4120:4480  if(_role == Role.LEADER){... */\n  iszero\n  tag_41\n  jumpi\n    /* \"OnDemo/contracts/AccountManagement.sol\":4178:4182  true */\n  0x01\n    /* \"OnDemo/contracts/AccountManagement.sol\":4159:4166  roleMap */\n  dup2\n    /* \"OnDemo/contracts/AccountManagement.sol\":4159:4175  roleMap.isLeader */\n  0x00\n  add\n  0x00\n    /* \"OnDemo/contracts/AccountManagement.sol\":4159:4182  roleMap.isLeader = true */\n  0x0100\n  exp\n  dup2\n  sload\n  dup2\n  0xff\n  mul\n  not\n  and\n  swap1\n  dup4\n  iszero\n  iszero\n  mul\n  or\n  swap1\n  sstore\n  pop\n    /* \"OnDemo/contracts/AccountManagement.sol\":4120:4480  if(_role == Role.LEADER){... */\n  jump(tag_42)\ntag_41:\n    /* \"OnDemo/contracts/AccountManagement.sol\":4221:4239  Role.COUNCILMEMBER */\n  0x01\n    /* \"OnDemo/contracts/AccountManagement.sol\":4212:4239  _role == Role.COUNCILMEMBER */\n  0x03\n  dup2\n  gt\n  iszero\n  tag_43\n  jumpi\n  tag_44\n  tag_38\n  jump\t// in\ntag_44:\ntag_43:\n    /* \"OnDemo/contracts/AccountManagement.sol\":4212:4217  _role */\n  dup5\n    /* \"OnDemo/contracts/AccountManagement.sol\":4212:4239  _role == Role.COUNCILMEMBER */\n  0x03\n  dup2\n  gt\n  iszero\n  tag_45\n  jumpi\n  tag_46\n  tag_38\n  jump\t// in\ntag_46:\ntag_45:\n  eq\n    /* \"OnDemo/contracts/AccountManagement.sol\":4209:4480  if(_role == Role.COUNCILMEMBER){... */\n  iszero\n  tag_47\n  jumpi\n    /* \"OnDemo/contracts/AccountManagement.sol\":4281:4285  true */\n  0x01\n    /* \"OnDemo/contracts/AccountManagement.sol\":4255:4262  roleMap */\n  dup2\n    /* \"OnDemo/contracts/AccountManagement.sol\":4255:4278  roleMap.isCouncilMember */\n  0x00\n  add\n  0x01\n    /* \"OnDemo/contracts/AccountManagement.sol\":4255:4285  roleMap.isCouncilMember = true */\n  0x0100\n  exp\n  dup2\n  sload\n  dup2\n  0xff\n  mul\n  not\n  and\n  swap1\n  dup4\n  iszero\n  iszero\n  mul\n  or\n  swap1\n  sstore\n  pop\n    /* \"OnDemo/contracts/AccountManagement.sol\":4209:4480  if(_role == Role.COUNCILMEMBER){... */\n  jump(tag_48)\ntag_47:\n    /* \"OnDemo/contracts/AccountManagement.sol\":4331:4342  Role.MEMBER */\n  0x02\n    /* \"OnDemo/contracts/AccountManagement.sol\":4322:4342  _role == Role.MEMBER */\n  0x03\n  dup2\n  gt\n  iszero\n  tag_49\n  jumpi\n  tag_50\n  tag_38\n  jump\t// in\ntag_50:\ntag_49:\n    /* \"OnDemo/contracts/AccountManagement.sol\":4322:4327  _role */\n  dup5\n    /* \"OnDemo/contracts/AccountManagement.sol\":4322:4342  _role == Role.MEMBER */\n  0x03\n  dup2\n  gt\n  iszero\n  tag_51\n  jumpi\n  tag_52\n  tag_38\n  jump\t// in\ntag_52:\ntag_51:\n  eq\n    /* \"OnDemo/contracts/AccountManagement.sol\":4319:4480  if(_role == Role.MEMBER){... */\n  iszero\n  tag_53\n  jumpi\n    /* \"OnDemo/contracts/AccountManagement.sol\":4377:4381  true */\n  0x01\n    /* \"OnDemo/contracts/AccountManagement.sol\":4358:4365  roleMap */\n  dup2\n    /* \"OnDemo/contracts/AccountManagement.sol\":4358:4374  roleMap.isMember */\n  0x00\n  add\n  0x02\n    /* \"OnDemo/contracts/AccountManagement.sol\":4358:4381  roleMap.isMember = true */\n  0x0100\n  exp\n  dup2\n  sload\n  dup2\n  0xff\n  mul\n  not\n  and\n  swap1\n  dup4\n  iszero\n  iszero\n  mul\n  or\n  swap1\n  sstore\n  pop\n    /* \"OnDemo/contracts/AccountManagement.sol\":4319:4480  if(_role == Role.MEMBER){... */\n  jump(tag_54)\ntag_53:\n    /* \"OnDemo/contracts/AccountManagement.sol\":4420:4430  Role.GUEST */\n  0x03\n    /* \"OnDemo/contracts/AccountManagement.sol\":4411:4430  _role == Role.GUEST */\n  dup1\n  dup2\n  gt\n  iszero\n  tag_55\n  jumpi\n  tag_56\n  tag_38\n  jump\t// in\ntag_56:\ntag_55:\n    /* \"OnDemo/contracts/AccountManagement.sol\":4411:4416  _role */\n  dup5\n    /* \"OnDemo/contracts/AccountManagement.sol\":4411:4430  _role == Role.GUEST */\n  0x03\n  dup2\n  gt\n  iszero\n  tag_57\n  jumpi\n  tag_58\n  tag_38\n  jump\t// in\ntag_58:\ntag_57:\n  eq\n    /* \"OnDemo/contracts/AccountManagement.sol\":4408:4480  if(_role == Role.GUEST){... */\n  iszero\n  tag_59\n  jumpi\n    /* \"OnDemo/contracts/AccountManagement.sol\":4464:4468  true */\n  0x01\n    /* \"OnDemo/contracts/AccountManagement.sol\":4446:4453  roleMap */\n  dup2\n    /* \"OnDemo/contracts/AccountManagement.sol\":4446:4461  roleMap.isGuest */\n  0x00\n  add\n  0x03\n    /* \"OnDemo/contracts/AccountManagement.sol\":4446:4468  roleMap.isGuest = true */\n  0x0100\n  exp\n  dup2\n  sload\n  dup2\n  0xff\n  mul\n  not\n  and\n  swap1\n  dup4\n  iszero\n  iszero\n  mul\n  or\n  swap1\n  sstore\n  pop\n    /* \"OnDemo/contracts/AccountManagement.sol\":4408:4480  if(_role == Role.GUEST){... */\ntag_59:\n    /* \"OnDemo/contracts/AccountManagement.sol\":4319:4480  if(_role == Role.MEMBER){... */\ntag_54:\n    /* \"OnDemo/contracts/AccountManagement.sol\":4209:4480  if(_role == Role.COUNCILMEMBER){... */\ntag_48:\n    /* \"OnDemo/contracts/AccountManagement.sol\":4120:4480  if(_role == Role.LEADER){... */\ntag_42:\n    /* \"OnDemo/contracts/AccountManagement.sol\":4012:4487  {... */\n  pop\n  pop\n    /* \"OnDemo/contracts/AccountManagement.sol\":1894:1895  _ */\n  pop\n    /* \"OnDemo/contracts/AccountManagement.sol\":3924:4487  function assignRole(address _address, Role _role) public onlyLeader userExists(_address){... */\n  pop\n  pop\n  jump\t// out\n    /* \"OnDemo/contracts/AccountManagement.sol\":4495:5072  function removeRole(address _address, Role _role) public onlyLeader userExists(_address){... */\ntag_11:\n    /* \"OnDemo/contracts/AccountManagement.sol\":1810:1815  owner */\n  0x01\n  0x00\n  swap1\n  sload\n  swap1\n  0x0100\n  exp\n  swap1\n  div\n  0xffffffffffffffffffffffffffffffffffffffff\n  and\n    /* \"OnDemo/contracts/AccountManagement.sol\":1796:1815  msg.sender == owner */\n  0xffffffffffffffffffffffffffffffffffffffff\n  and\n    /* \"OnDemo/contracts/AccountManagement.sol\":1796:1806  msg.sender */\n  caller\n    /* \"OnDemo/contracts/AccountManagement.sol\":1796:1815  msg.sender == owner */\n  0xffffffffffffffffffffffffffffffffffffffff\n  and\n  eq\n    /* \"OnDemo/contracts/AccountManagement.sol\":1796:1844  msg.sender == owner || hasLeaderRole(msg.sender) */\n  dup1\n  tag_61\n  jumpi\n  pop\n    /* \"OnDemo/contracts/AccountManagement.sol\":1819:1844  hasLeaderRole(msg.sender) */\n  tag_62\n    /* \"OnDemo/contracts/AccountManagement.sol\":1833:1843  msg.sender */\n  caller\n    /* \"OnDemo/contracts/AccountManagement.sol\":1819:1832  hasLeaderRole */\n  shl(0x20, tag_27)\n    /* \"OnDemo/contracts/AccountManagement.sol\":1819:1844  hasLeaderRole(msg.sender) */\n  0x20\n  shr\n  jump\t// in\ntag_62:\n    /* \"OnDemo/contracts/AccountManagement.sol\":1796:1844  msg.sender == owner || hasLeaderRole(msg.sender) */\ntag_61:\n    /* \"OnDemo/contracts/AccountManagement.sol\":1788:1883  require(msg.sender == owner || hasLeaderRole(msg.sender), \"Only owner can call this function.\") */\n  tag_63\n  jumpi\n  mload(0x40)\n  0x08c379a000000000000000000000000000000000000000000000000000000000\n  dup2\n  mstore\n  0x04\n  add\n  tag_64\n  swap1\n  tag_30\n  jump\t// in\ntag_64:\n  mload(0x40)\n  dup1\n  swap2\n  sub\n  swap1\n  revert\ntag_63:\n    /* \"OnDemo/contracts/AccountManagement.sol\":4574:4582  _address */\n  dup2\n    /* \"OnDemo/contracts/AccountManagement.sol\":2006:2007  0 */\n  0x00\n    /* \"OnDemo/contracts/AccountManagement.sol\":1967:2008  users[_address].userAddress != address(0) */\n  0xffffffffffffffffffffffffffffffffffffffff\n  and\n    /* \"OnDemo/contracts/AccountManagement.sol\":1967:1972  users */\n  0x02\n    /* \"OnDemo/contracts/AccountManagement.sol\":1967:1982  users[_address] */\n  0x00\n    /* \"OnDemo/contracts/AccountManagement.sol\":1973:1981  _address */\n  dup4\n    /* \"OnDemo/contracts/AccountManagement.sol\":1967:1982  users[_address] */\n  0xffffffffffffffffffffffffffffffffffffffff\n  and\n  0xffffffffffffffffffffffffffffffffffffffff\n  and\n  dup2\n  mstore\n  0x20\n  add\n  swap1\n  dup2\n  mstore\n  0x20\n  add\n  0x00\n  keccak256\n    /* \"OnDemo/contracts/AccountManagement.sol\":1967:1994  users[_address].userAddress */\n  0x00\n  add\n  0x00\n  swap1\n  sload\n  swap1\n  0x0100\n  exp\n  swap1\n  div\n  0xffffffffffffffffffffffffffffffffffffffff\n  and\n    /* \"OnDemo/contracts/AccountManagement.sol\":1967:2008  users[_address].userAddress != address(0) */\n  0xffffffffffffffffffffffffffffffffffffffff\n  and\n  eq\n  iszero\n    /* \"OnDemo/contracts/AccountManagement.sol\":1959:2034  require(users[_address].userAddress != address(0), \"Account doesn't exist\") */\n  tag_66\n  jumpi\n  mload(0x40)\n  0x08c379a000000000000000000000000000000000000000000000000000000000\n  dup2\n  mstore\n  0x04\n  add\n  tag_67\n  swap1\n  tag_34\n  jump\t// in\ntag_67:\n  mload(0x40)\n  dup1\n  swap2\n  sub\n  swap1\n  revert\ntag_66:\n    /* \"OnDemo/contracts/AccountManagement.sol\":4594:4611  User storage user */\n  0x00\n    /* \"OnDemo/contracts/AccountManagement.sol\":4614:4619  users */\n  0x02\n    /* \"OnDemo/contracts/AccountManagement.sol\":4614:4629  users[_address] */\n  0x00\n    /* \"OnDemo/contracts/AccountManagement.sol\":4620:4628  _address */\n  dup6\n    /* \"OnDemo/contracts/AccountManagement.sol\":4614:4629  users[_address] */\n  0xffffffffffffffffffffffffffffffffffffffff\n  and\n  0xffffffffffffffffffffffffffffffffffffffff\n  and\n  dup2\n  mstore\n  0x20\n  add\n  swap1\n  dup2\n  mstore\n  0x20\n  add\n  0x00\n  keccak256\n    /* \"OnDemo/contracts/AccountManagement.sol\":4594:4629  User storage user = users[_address] */\n  swap1\n  pop\n    /* \"OnDemo/contracts/AccountManagement.sol\":4640:4663  RoleMap storage roleMap */\n  0x00\n    /* \"OnDemo/contracts/AccountManagement.sol\":4666:4670  user */\n  dup2\n    /* \"OnDemo/contracts/AccountManagement.sol\":4666:4678  user.roleMap */\n  0x05\n  add\n    /* \"OnDemo/contracts/AccountManagement.sol\":4640:4678  RoleMap storage roleMap = user.roleMap */\n  swap1\n  pop\n    /* \"OnDemo/contracts/AccountManagement.sol\":4703:4714  Role.LEADER */\n  0x00\n    /* \"OnDemo/contracts/AccountManagement.sol\":4694:4714  _role == Role.LEADER */\n  0x03\n  dup2\n  gt\n  iszero\n  tag_69\n  jumpi\n  tag_70\n  tag_38\n  jump\t// in\ntag_70:\ntag_69:\n    /* \"OnDemo/contracts/AccountManagement.sol\":4694:4699  _role */\n  dup5\n    /* \"OnDemo/contracts/AccountManagement.sol\":4694:4714  _role == Role.LEADER */\n  0x03\n  dup2\n  gt\n  iszero\n  tag_71\n  jumpi\n  tag_72\n  tag_38\n  jump\t// in\ntag_72:\ntag_71:\n  eq\n    /* \"OnDemo/contracts/AccountManagement.sol\":4691:5065  if(_role == Role.LEADER){... */\n  iszero\n  tag_73\n  jumpi\n    /* \"OnDemo/contracts/AccountManagement.sol\":4749:4754  false */\n  0x00\n    /* \"OnDemo/contracts/AccountManagement.sol\":4730:4737  roleMap */\n  dup2\n    /* \"OnDemo/contracts/AccountManagement.sol\":4730:4746  roleMap.isLeader */\n  0x00\n  add\n  0x00\n    /* \"OnDemo/contracts/AccountManagement.sol\":4730:4754  roleMap.isLeader = false */\n  0x0100\n  exp\n  dup2\n  sload\n  dup2\n  0xff\n  mul\n  not\n  and\n  swap1\n  dup4\n  iszero\n  iszero\n  mul\n  or\n  swap1\n  sstore\n  pop\n    /* \"OnDemo/contracts/AccountManagement.sol\":4691:5065  if(_role == Role.LEADER){... */\n  jump(tag_74)\ntag_73:\n    /* \"OnDemo/contracts/AccountManagement.sol\":4793:4811  Role.COUNCILMEMBER */\n  0x01\n    /* \"OnDemo/contracts/AccountManagement.sol\":4784:4811  _role == Role.COUNCILMEMBER */\n  0x03\n  dup2\n  gt\n  iszero\n  tag_75\n  jumpi\n  tag_76\n  tag_38\n  jump\t// in\ntag_76:\ntag_75:\n    /* \"OnDemo/contracts/AccountManagement.sol\":4784:4789  _role */\n  dup5\n    /* \"OnDemo/contracts/AccountManagement.sol\":4784:4811  _role == Role.COUNCILMEMBER */\n  0x03\n  dup2\n  gt\n  iszero\n  tag_77\n  jumpi\n  tag_78\n  tag_38\n  jump\t// in\ntag_78:\ntag_77:\n  eq\n    /* \"OnDemo/contracts/AccountManagement.sol\":4781:5065  if(_role == Role.COUNCILMEMBER){... */\n  iszero\n  tag_79\n  jumpi\n    /* \"OnDemo/contracts/AccountManagement.sol\":4853:4858  false */\n  0x00\n    /* \"OnDemo/contracts/AccountManagement.sol\":4827:4834  roleMap */\n  dup2\n    /* \"OnDemo/contracts/AccountManagement.sol\":4827:4850  roleMap.isCouncilMember */\n  0x00\n  add\n  0x01\n    /* \"OnDemo/contracts/AccountManagement.sol\":4827:4858  roleMap.isCouncilMember = false */\n  0x0100\n  exp\n  dup2\n  sload\n  dup2\n  0xff\n  mul\n  not\n  and\n  swap1\n  dup4\n  iszero\n  iszero\n  mul\n  or\n  swap1\n  sstore\n  pop\n    /* \"OnDemo/contracts/AccountManagement.sol\":4781:5065  if(_role == Role.COUNCILMEMBER){... */\n  jump(tag_80)\ntag_79:\n    /* \"OnDemo/contracts/AccountManagement.sol\":4902:4913  Role.MEMBER */\n  0x02\n    /* \"OnDemo/contracts/AccountManagement.sol\":4893:4913  _role == Role.MEMBER */\n  0x03\n  dup2\n  gt\n  iszero\n  tag_81\n  jumpi\n  tag_82\n  tag_38\n  jump\t// in\ntag_82:\ntag_81:\n    /* \"OnDemo/contracts/AccountManagement.sol\":4893:4898  _role */\n  dup5\n    /* \"OnDemo/contracts/AccountManagement.sol\":4893:4913  _role == Role.MEMBER */\n  0x03\n  dup2\n  gt\n  iszero\n  tag_83\n  jumpi\n  tag_84\n  tag_38\n  jump\t// in\ntag_84:\ntag_83:\n  eq\n    /* \"OnDemo/contracts/AccountManagement.sol\":4890:5065  if(_role == Role.MEMBER){... */\n  iszero\n  tag_85\n  jumpi\n    /* \"OnDemo/contracts/AccountManagement.sol\":4948:4953  false */\n  0x00\n    /* \"OnDemo/contracts/AccountManagement.sol\":4929:4936  roleMap */\n  dup2\n    /* \"OnDemo/contracts/AccountManagement.sol\":4929:4945  roleMap.isMember */\n  0x00\n  add\n  0x02\n    /* \"OnDemo/contracts/AccountManagement.sol\":4929:4953  roleMap.isMember = false */\n  0x0100\n  exp\n  dup2\n  sload\n  dup2\n  0xff\n  mul\n  not\n  and\n  swap1\n  dup4\n  iszero\n  iszero\n  mul\n  or\n  swap1\n  sstore\n  pop\n    /* \"OnDemo/contracts/AccountManagement.sol\":4890:5065  if(_role == Role.MEMBER){... */\n  jump(tag_86)\ntag_85:\n    /* \"OnDemo/contracts/AccountManagement.sol\":4992:5002  Role.GUEST */\n  0x03\n    /* \"OnDemo/contracts/AccountManagement.sol\":4983:5002  _role == Role.GUEST */\n  dup1\n  dup2\n  gt\n  iszero\n  tag_87\n  jumpi\n  tag_88\n  tag_38\n  jump\t// in\ntag_88:\ntag_87:\n    /* \"OnDemo/contracts/AccountManagement.sol\":4983:4988  _role */\n  dup5\n    /* \"OnDemo/contracts/AccountManagement.sol\":4983:5002  _role == Role.GUEST */\n  0x03\n  dup2\n  gt\n  iszero\n  tag_89\n  jumpi\n  tag_90\n  tag_38\n  jump\t// in\ntag_90:\ntag_89:\n  eq\n    /* \"OnDemo/contracts/AccountManagement.sol\":4980:5065  if(_role == Role.GUEST){... */\n  iszero\n  tag_91\n  jumpi\n    /* \"OnDemo/contracts/AccountManagement.sol\":5036:5041  false */\n  0x00\n    /* \"OnDemo/contracts/AccountManagement.sol\":5018:5025  roleMap */\n  dup2\n    /* \"OnDemo/contracts/AccountManagement.sol\":5018:5033  roleMap.isGuest */\n  0x00\n  add\n  0x03\n    /* \"OnDemo/contracts/AccountManagement.sol\":5018:5041  roleMap.isGuest = false */\n  0x0100\n  exp\n  dup2\n  sload\n  dup2\n  0xff\n  mul\n  not\n  and\n  swap1\n  dup4\n  iszero\n  iszero\n  mul\n  or\n  swap1\n  sstore\n  pop\n    /* \"OnDemo/contracts/AccountManagement.sol\":4980:5065  if(_role == Role.GUEST){... */\ntag_91:\n    /* \"OnDemo/contracts/AccountManagement.sol\":4890:5065  if(_role == Role.MEMBER){... */\ntag_86:\n    /* \"OnDemo/contracts/AccountManagement.sol\":4781:5065  if(_role == Role.COUNCILMEMBER){... */\ntag_80:\n    /* \"OnDemo/contracts/AccountManagement.sol\":4691:5065  if(_role == Role.LEADER){... */\ntag_74:\n    /* \"OnDemo/contracts/AccountManagement.sol\":4583:5072  {... */\n  pop\n  pop\n    /* \"OnDemo/contracts/AccountManagement.sol\":1894:1895  _ */\n  pop\n    /* \"OnDemo/contracts/AccountManagement.sol\":4495:5072  function removeRole(address _address, Role _role) public onlyLeader userExists(_address){... */\n  pop\n  pop\n  jump\t// out\n    /* \"OnDemo/contracts/AccountManagement.sol\":2729:3241  function makeAccountActive(address _address) public userExists(_address){... */\ntag_13:\n    /* \"OnDemo/contracts/AccountManagement.sol\":2792:2800  _address */\n  dup1\n    /* \"OnDemo/contracts/AccountManagement.sol\":2006:2007  0 */\n  0x00\n    /* \"OnDemo/contracts/AccountManagement.sol\":1967:2008  users[_address].userAddress != address(0) */\n  0xffffffffffffffffffffffffffffffffffffffff\n  and\n    /* \"OnDemo/contracts/AccountManagement.sol\":1967:1972  users */\n  0x02\n    /* \"OnDemo/contracts/AccountManagement.sol\":1967:1982  users[_address] */\n  0x00\n    /* \"OnDemo/contracts/AccountManagement.sol\":1973:1981  _address */\n  dup4\n    /* \"OnDemo/contracts/AccountManagement.sol\":1967:1982  users[_address] */\n  0xffffffffffffffffffffffffffffffffffffffff\n  and\n  0xffffffffffffffffffffffffffffffffffffffff\n  and\n  dup2\n  mstore\n  0x20\n  add\n  swap1\n  dup2\n  mstore\n  0x20\n  add\n  0x00\n  keccak256\n    /* \"OnDemo/contracts/AccountManagement.sol\":1967:1994  users[_address].userAddress */\n  0x00\n  add\n  0x00\n  swap1\n  sload\n  swap1\n  0x0100\n  exp\n  swap1\n  div\n  0xffffffffffffffffffffffffffffffffffffffff\n  and\n    /* \"OnDemo/contracts/AccountManagement.sol\":1967:2008  users[_address].userAddress != address(0) */\n  0xffffffffffffffffffffffffffffffffffffffff\n  and\n  eq\n  iszero\n    /* \"OnDemo/contracts/AccountManagement.sol\":1959:2034  require(users[_address].userAddress != address(0), \"Account doesn't exist\") */\n  tag_93\n  jumpi\n  mload(0x40)\n  0x08c379a000000000000000000000000000000000000000000000000000000000\n  dup2\n  mstore\n  0x04\n  add\n  tag_94\n  swap1\n  tag_34\n  jump\t// in\ntag_94:\n  mload(0x40)\n  dup1\n  swap2\n  sub\n  swap1\n  revert\ntag_93:\n    /* \"OnDemo/contracts/AccountManagement.sol\":2816:2829  activeMembers */\n  0x03\n    /* \"OnDemo/contracts/AccountManagement.sol\":2816:2839  activeMembers[_address] */\n  0x00\n    /* \"OnDemo/contracts/AccountManagement.sol\":2830:2838  _address */\n  dup4\n    /* \"OnDemo/contracts/AccountManagement.sol\":2816:2839  activeMembers[_address] */\n  0xffffffffffffffffffffffffffffffffffffffff\n  and\n  0xffffffffffffffffffffffffffffffffffffffff\n  and\n  dup2\n  mstore\n  0x20\n  add\n  swap1\n  dup2\n  mstore\n  0x20\n  add\n  0x00\n  keccak256\n  0x00\n  swap1\n  sload\n  swap1\n  0x0100\n  exp\n  swap1\n  div\n  0xff\n  and\n    /* \"OnDemo/contracts/AccountManagement.sol\":2812:3234  if(!activeMembers[_address]){... */\n  tag_96\n  jumpi\n    /* \"OnDemo/contracts/AccountManagement.sol\":2855:2872  User storage user */\n  0x00\n    /* \"OnDemo/contracts/AccountManagement.sol\":2875:2880  users */\n  0x02\n    /* \"OnDemo/contracts/AccountManagement.sol\":2875:2890  users[_address] */\n  0x00\n    /* \"OnDemo/contracts/AccountManagement.sol\":2881:2889  _address */\n  dup5\n    /* \"OnDemo/contracts/AccountManagement.sol\":2875:2890  users[_address] */\n  0xffffffffffffffffffffffffffffffffffffffff\n  and\n  0xffffffffffffffffffffffffffffffffffffffff\n  and\n  dup2\n  mstore\n  0x20\n  add\n  swap1\n  dup2\n  mstore\n  0x20\n  add\n  0x00\n  keccak256\n    /* \"OnDemo/contracts/AccountManagement.sol\":2855:2890  User storage user = users[_address] */\n  swap1\n  pop\n    /* \"OnDemo/contracts/AccountManagement.sol\":2921:2925  true */\n  0x01\n    /* \"OnDemo/contracts/AccountManagement.sol\":2905:2909  user */\n  dup2\n    /* \"OnDemo/contracts/AccountManagement.sol\":2905:2918  user.isActive */\n  0x04\n  add\n  0x00\n    /* \"OnDemo/contracts/AccountManagement.sol\":2905:2925  user.isActive = true */\n  0x0100\n  exp\n  dup2\n  sload\n  dup2\n  0xff\n  mul\n  not\n  and\n  swap1\n  dup4\n  iszero\n  iszero\n  mul\n  or\n  swap1\n  sstore\n  pop\n    /* \"OnDemo/contracts/AccountManagement.sol\":2987:3009  RoleMap memory roleMap */\n  0x00\n    /* \"OnDemo/contracts/AccountManagement.sol\":3012:3016  user */\n  dup2\n    /* \"OnDemo/contracts/AccountManagement.sol\":3012:3024  user.roleMap */\n  0x05\n  add\n    /* \"OnDemo/contracts/AccountManagement.sol\":2987:3024  RoleMap memory roleMap = user.roleMap */\n  mload(0x40)\n  dup1\n  0x80\n  add\n  0x40\n  mstore\n  swap1\n  dup2\n  0x00\n  dup3\n  add\n  0x00\n  swap1\n  sload\n  swap1\n  0x0100\n  exp\n  swap1\n  div\n  0xff\n  and\n  iszero\n  iszero\n  iszero\n  iszero\n  dup2\n  mstore\n  0x20\n  add\n  0x00\n  dup3\n  add\n  0x01\n  swap1\n  sload\n  swap1\n  0x0100\n  exp\n  swap1\n  div\n  0xff\n  and\n  iszero\n  iszero\n  iszero\n  iszero\n  dup2\n  mstore\n  0x20\n  add\n  0x00\n  dup3\n  add\n  0x02\n  swap1\n  sload\n  swap1\n  0x0100\n  exp\n  swap1\n  div\n  0xff\n  and\n  iszero\n  iszero\n  iszero\n  iszero\n  dup2\n  mstore\n  0x20\n  add\n  0x00\n  dup3\n  add\n  0x03\n  swap1\n  sload\n  swap1\n  0x0100\n  exp\n  swap1\n  div\n  0xff\n  and\n  iszero\n  iszero\n  iszero\n  iszero\n  dup2\n  mstore\n  pop\n  pop\n  swap1\n  pop\n    /* \"OnDemo/contracts/AccountManagement.sol\":3042:3049  roleMap */\n  dup1\n    /* \"OnDemo/contracts/AccountManagement.sol\":3042:3058  roleMap.isLeader */\n  0x00\n  add\n  mload\n    /* \"OnDemo/contracts/AccountManagement.sol\":3042:3085  roleMap.isLeader || roleMap.isCouncilMember */\n  dup1\n  tag_97\n  jumpi\n  pop\n    /* \"OnDemo/contracts/AccountManagement.sol\":3062:3069  roleMap */\n  dup1\n    /* \"OnDemo/contracts/AccountManagement.sol\":3062:3085  roleMap.isCouncilMember */\n  0x20\n  add\n  mload\n    /* \"OnDemo/contracts/AccountManagement.sol\":3042:3085  roleMap.isLeader || roleMap.isCouncilMember */\ntag_97:\n    /* \"OnDemo/contracts/AccountManagement.sol\":3042:3105  roleMap.isLeader || roleMap.isCouncilMember || roleMap.isMember */\n  dup1\n  tag_98\n  jumpi\n  pop\n    /* \"OnDemo/contracts/AccountManagement.sol\":3089:3096  roleMap */\n  dup1\n    /* \"OnDemo/contracts/AccountManagement.sol\":3089:3105  roleMap.isMember */\n  0x40\n  add\n  mload\n    /* \"OnDemo/contracts/AccountManagement.sol\":3042:3105  roleMap.isLeader || roleMap.isCouncilMember || roleMap.isMember */\ntag_98:\n    /* \"OnDemo/contracts/AccountManagement.sol\":3039:3223  if(roleMap.isLeader || roleMap.isCouncilMember || roleMap.isMember)... */\n  iszero\n  tag_99\n  jumpi\n    /* \"OnDemo/contracts/AccountManagement.sol\":3165:3169  true */\n  0x01\n    /* \"OnDemo/contracts/AccountManagement.sol\":3139:3152  activeMembers */\n  0x03\n    /* \"OnDemo/contracts/AccountManagement.sol\":3139:3162  activeMembers[_address] */\n  0x00\n    /* \"OnDemo/contracts/AccountManagement.sol\":3153:3161  _address */\n  dup7\n    /* \"OnDemo/contracts/AccountManagement.sol\":3139:3162  activeMembers[_address] */\n  0xffffffffffffffffffffffffffffffffffffffff\n  and\n  0xffffffffffffffffffffffffffffffffffffffff\n  and\n  dup2\n  mstore\n  0x20\n  add\n  swap1\n  dup2\n  mstore\n  0x20\n  add\n  0x00\n  keccak256\n  0x00\n    /* \"OnDemo/contracts/AccountManagement.sol\":3139:3169  activeMembers[_address] = true */\n  0x0100\n  exp\n  dup2\n  sload\n  dup2\n  0xff\n  mul\n  not\n  and\n  swap1\n  dup4\n  iszero\n  iszero\n  mul\n  or\n  swap1\n  sstore\n  pop\n    /* \"OnDemo/contracts/AccountManagement.sol\":3188:3205  activeMemberCount */\n  0x00\n  dup1\n    /* \"OnDemo/contracts/AccountManagement.sol\":3188:3207  activeMemberCount++ */\n  dup2\n  sload\n  dup1\n  swap3\n  swap2\n  swap1\n  tag_100\n  swap1\n  tag_101\n  jump\t// in\ntag_100:\n  swap2\n  swap1\n  pop\n  sstore\n  pop\n    /* \"OnDemo/contracts/AccountManagement.sol\":3039:3223  if(roleMap.isLeader || roleMap.isCouncilMember || roleMap.isMember)... */\ntag_99:\n    /* \"OnDemo/contracts/AccountManagement.sol\":2840:3234  {... */\n  pop\n  pop\n    /* \"OnDemo/contracts/AccountManagement.sol\":2812:3234  if(!activeMembers[_address]){... */\ntag_96:\n    /* \"OnDemo/contracts/AccountManagement.sol\":2729:3241  function makeAccountActive(address _address) public userExists(_address){... */\n  pop\n  pop\n  jump\t// out\n    /* \"OnDemo/contracts/AccountManagement.sol\":7011:7135  function hasLeaderRole(address _address) public view returns (bool) {... */\ntag_27:\n    /* \"OnDemo/contracts/AccountManagement.sol\":7073:7077  bool */\n  0x00\n    /* \"OnDemo/contracts/AccountManagement.sol\":7097:7127  hasRole(_address, Role.LEADER) */\n  tag_103\n    /* \"OnDemo/contracts/AccountManagement.sol\":7105:7113  _address */\n  dup3\n    /* \"OnDemo/contracts/AccountManagement.sol\":7115:7126  Role.LEADER */\n  0x00\n    /* \"OnDemo/contracts/AccountManagement.sol\":7097:7104  hasRole */\n  shl(0x20, tag_104)\n    /* \"OnDemo/contracts/AccountManagement.sol\":7097:7127  hasRole(_address, Role.LEADER) */\n  0x20\n  shr\n  jump\t// in\ntag_103:\n    /* \"OnDemo/contracts/AccountManagement.sol\":7090:7127  return hasRole(_address, Role.LEADER) */\n  swap1\n  pop\n    /* \"OnDemo/contracts/AccountManagement.sol\":7011:7135  function hasLeaderRole(address _address) public view returns (bool) {... */\n  swap2\n  swap1\n  pop\n  jump\t// out\n    /* \"OnDemo/contracts/AccountManagement.sol\":6429:6999  function hasRole(address _address, Role _role) private view returns (bool){... */\ntag_104:\n    /* \"OnDemo/contracts/AccountManagement.sol\":6498:6502  bool */\n  0x00\n    /* \"OnDemo/contracts/AccountManagement.sol\":6514:6530  User memory user */\n  dup1\n    /* \"OnDemo/contracts/AccountManagement.sol\":6533:6538  users */\n  0x02\n    /* \"OnDemo/contracts/AccountManagement.sol\":6533:6548  users[_address] */\n  0x00\n    /* \"OnDemo/contracts/AccountManagement.sol\":6539:6547  _address */\n  dup6\n    /* \"OnDemo/contracts/AccountManagement.sol\":6533:6548  users[_address] */\n  0xffffffffffffffffffffffffffffffffffffffff\n  and\n  0xffffffffffffffffffffffffffffffffffffffff\n  and\n  dup2\n  mstore\n  0x20\n  add\n  swap1\n  dup2\n  mstore\n  0x20\n  add\n  0x00\n  keccak256\n    /* \"OnDemo/contracts/AccountManagement.sol\":6514:6548  User memory user = users[_address] */\n  mload(0x40)\n  dup1\n  0xc0\n  add\n  0x40\n  mstore\n  swap1\n  dup2\n  0x00\n  dup3\n  add\n  0x00\n  swap1\n  sload\n  swap1\n  0x0100\n  exp\n  swap1\n  div\n  0xffffffffffffffffffffffffffffffffffffffff\n  and\n  0xffffffffffffffffffffffffffffffffffffffff\n  and\n  0xffffffffffffffffffffffffffffffffffffffff\n  and\n  dup2\n  mstore\n  0x20\n  add\n  0x01\n  dup3\n  add\n  dup1\n  sload\n  tag_106\n  swap1\n  tag_107\n  jump\t// in\ntag_106:\n  dup1\n  0x1f\n  add\n  0x20\n  dup1\n  swap2\n  div\n  mul\n  0x20\n  add\n  mload(0x40)\n  swap1\n  dup2\n  add\n  0x40\n  mstore\n  dup1\n  swap3\n  swap2\n  swap1\n  dup2\n  dup2\n  mstore\n  0x20\n  add\n  dup3\n  dup1\n  sload\n  tag_108\n  swap1\n  tag_107\n  jump\t// in\ntag_108:\n  dup1\n  iszero\n  tag_109\n  jumpi\n  dup1\n  0x1f\n  lt\n  tag_110\n  jumpi\n  0x0100\n  dup1\n  dup4\n  sload\n  div\n  mul\n  dup4\n  mstore\n  swap2\n  0x20\n  add\n  swap2\n  jump(tag_109)\ntag_110:\n  dup3\n  add\n  swap2\n  swap1\n  0x00\n  mstore\n  keccak256(0x00, 0x20)\n  swap1\ntag_111:\n  dup2\n  sload\n  dup2\n  mstore\n  swap1\n  0x01\n  add\n  swap1\n  0x20\n  add\n  dup1\n  dup4\n  gt\n  tag_111\n  jumpi\n  dup3\n  swap1\n  sub\n  0x1f\n  and\n  dup3\n  add\n  swap2\ntag_109:\n  pop\n  pop\n  pop\n  pop\n  pop\n  dup2\n  mstore\n  0x20\n  add\n  0x02\n  dup3\n  add\n  dup1\n  sload\n  tag_112\n  swap1\n  tag_107\n  jump\t// in\ntag_112:\n  dup1\n  0x1f\n  add\n  0x20\n  dup1\n  swap2\n  div\n  mul\n  0x20\n  add\n  mload(0x40)\n  swap1\n  dup2\n  add\n  0x40\n  mstore\n  dup1\n  swap3\n  swap2\n  swap1\n  dup2\n  dup2\n  mstore\n  0x20\n  add\n  dup3\n  dup1\n  sload\n  tag_113\n  swap1\n  tag_107\n  jump\t// in\ntag_113:\n  dup1\n  iszero\n  tag_114\n  jumpi\n  dup1\n  0x1f\n  lt\n  tag_115\n  jumpi\n  0x0100\n  dup1\n  dup4\n  sload\n  div\n  mul\n  dup4\n  mstore\n  swap2\n  0x20\n  add\n  swap2\n  jump(tag_114)\ntag_115:\n  dup3\n  add\n  swap2\n  swap1\n  0x00\n  mstore\n  keccak256(0x00, 0x20)\n  swap1\ntag_116:\n  dup2\n  sload\n  dup2\n  mstore\n  swap1\n  0x01\n  add\n  swap1\n  0x20\n  add\n  dup1\n  dup4\n  gt\n  tag_116\n  jumpi\n  dup3\n  swap1\n  sub\n  0x1f\n  and\n  dup3\n  add\n  swap2\ntag_114:\n  pop\n  pop\n  pop\n  pop\n  pop\n  dup2\n  mstore\n  0x20\n  add\n  0x03\n  dup3\n  add\n  dup1\n  sload\n  tag_117\n  swap1\n  tag_107\n  jump\t// in\ntag_117:\n  dup1\n  0x1f\n  add\n  0x20\n  dup1\n  swap2\n  div\n  mul\n  0x20\n  add\n  mload(0x40)\n  swap1\n  dup2\n  add\n  0x40\n  mstore\n  dup1\n  swap3\n  swap2\n  swap1\n  dup2\n  dup2\n  mstore\n  0x20\n  add\n  dup3\n  dup1\n  sload\n  tag_118\n  swap1\n  tag_107\n  jump\t// in\ntag_118:\n  dup1\n  iszero\n  tag_119\n  jumpi\n  dup1\n  0x1f\n  lt\n  tag_120\n  jumpi\n  0x0100\n  dup1\n  dup4\n  sload\n  div\n  mul\n  dup4\n  mstore\n  swap2\n  0x20\n  add\n  swap2\n  jump(tag_119)\ntag_120:\n  dup3\n  add\n  swap2\n  swap1\n  0x00\n  mstore\n  keccak256(0x00, 0x20)\n  swap1\ntag_121:\n  dup2\n  sload\n  dup2\n  mstore\n  swap1\n  0x01\n  add\n  swap1\n  0x20\n  add\n  dup1\n  dup4\n  gt\n  tag_121\n  jumpi\n  dup3\n  swap1\n  sub\n  0x1f\n  and\n  dup3\n  add\n  swap2\ntag_119:\n  pop\n  pop\n  pop\n  pop\n  pop\n  dup2\n  mstore\n  0x20\n  add\n  0x04\n  dup3\n  add\n  0x00\n  swap1\n  sload\n  swap1\n  0x0100\n  exp\n  swap1\n  div\n  0xff\n  and\n  iszero\n  iszero\n  iszero\n  iszero\n  dup2\n  mstore\n  0x20\n  add\n  0x05\n  dup3\n  add\n  mload(0x40)\n  dup1\n  0x80\n  add\n  0x40\n  mstore\n  swap1\n  dup2\n  0x00\n  dup3\n  add\n  0x00\n  swap1\n  sload\n  swap1\n  0x0100\n  exp\n  swap1\n  div\n  0xff\n  and\n  iszero\n  iszero\n  iszero\n  iszero\n  dup2\n  mstore\n  0x20\n  add\n  0x00\n  dup3\n  add\n  0x01\n  swap1\n  sload\n  swap1\n  0x0100\n  exp\n  swap1\n  div\n  0xff\n  and\n  iszero\n  iszero\n  iszero\n  iszero\n  dup2\n  mstore\n  0x20\n  add\n  0x00\n  dup3\n  add\n  0x02\n  swap1\n  sload\n  swap1\n  0x0100\n  exp\n  swap1\n  div\n  0xff\n  and\n  iszero\n  iszero\n  iszero\n  iszero\n  dup2\n  mstore\n  0x20\n  add\n  0x00\n  dup3\n  add\n  0x03\n  swap1\n  sload\n  swap1\n  0x0100\n  exp\n  swap1\n  div\n  0xff\n  and\n  iszero\n  iszero\n  iszero\n  iszero\n  dup2\n  mstore\n  pop\n  pop\n  dup2\n  mstore\n  pop\n  pop\n  swap1\n  pop\n    /* \"OnDemo/contracts/AccountManagement.sol\":6559:6581  RoleMap memory roleMap */\n  0x00\n    /* \"OnDemo/contracts/AccountManagement.sol\":6584:6588  user */\n  dup2\n    /* \"OnDemo/contracts/AccountManagement.sol\":6584:6596  user.roleMap */\n  0xa0\n  add\n  mload\n    /* \"OnDemo/contracts/AccountManagement.sol\":6559:6596  RoleMap memory roleMap = user.roleMap */\n  swap1\n  pop\n    /* \"OnDemo/contracts/AccountManagement.sol\":6621:6632  Role.LEADER */\n  0x00\n    /* \"OnDemo/contracts/AccountManagement.sol\":6612:6632  _role == Role.LEADER */\n  0x03\n  dup2\n  gt\n  iszero\n  tag_122\n  jumpi\n  tag_123\n  tag_38\n  jump\t// in\ntag_123:\ntag_122:\n    /* \"OnDemo/contracts/AccountManagement.sol\":6612:6617  _role */\n  dup5\n    /* \"OnDemo/contracts/AccountManagement.sol\":6612:6632  _role == Role.LEADER */\n  0x03\n  dup2\n  gt\n  iszero\n  tag_124\n  jumpi\n  tag_125\n  tag_38\n  jump\t// in\ntag_125:\ntag_124:\n  eq\n    /* \"OnDemo/contracts/AccountManagement.sol\":6609:6969  if(_role == Role.LEADER){... */\n  iszero\n  tag_126\n  jumpi\n    /* \"OnDemo/contracts/AccountManagement.sol\":6655:6662  roleMap */\n  dup1\n    /* \"OnDemo/contracts/AccountManagement.sol\":6655:6671  roleMap.isLeader */\n  0x00\n  add\n  mload\n    /* \"OnDemo/contracts/AccountManagement.sol\":6648:6671  return roleMap.isLeader */\n  swap3\n  pop\n  pop\n  pop\n  jump(tag_105)\n    /* \"OnDemo/contracts/AccountManagement.sol\":6609:6969  if(_role == Role.LEADER){... */\ntag_126:\n    /* \"OnDemo/contracts/AccountManagement.sol\":6710:6728  Role.COUNCILMEMBER */\n  0x01\n    /* \"OnDemo/contracts/AccountManagement.sol\":6701:6728  _role == Role.COUNCILMEMBER */\n  0x03\n  dup2\n  gt\n  iszero\n  tag_128\n  jumpi\n  tag_129\n  tag_38\n  jump\t// in\ntag_129:\ntag_128:\n    /* \"OnDemo/contracts/AccountManagement.sol\":6701:6706  _role */\n  dup5\n    /* \"OnDemo/contracts/AccountManagement.sol\":6701:6728  _role == Role.COUNCILMEMBER */\n  0x03\n  dup2\n  gt\n  iszero\n  tag_130\n  jumpi\n  tag_131\n  tag_38\n  jump\t// in\ntag_131:\ntag_130:\n  eq\n    /* \"OnDemo/contracts/AccountManagement.sol\":6698:6969  if(_role == Role.COUNCILMEMBER){... */\n  iszero\n  tag_132\n  jumpi\n    /* \"OnDemo/contracts/AccountManagement.sol\":6751:6758  roleMap */\n  dup1\n    /* \"OnDemo/contracts/AccountManagement.sol\":6751:6774  roleMap.isCouncilMember */\n  0x20\n  add\n  mload\n    /* \"OnDemo/contracts/AccountManagement.sol\":6744:6774  return roleMap.isCouncilMember */\n  swap3\n  pop\n  pop\n  pop\n  jump(tag_105)\n    /* \"OnDemo/contracts/AccountManagement.sol\":6698:6969  if(_role == Role.COUNCILMEMBER){... */\ntag_132:\n    /* \"OnDemo/contracts/AccountManagement.sol\":6820:6831  Role.MEMBER */\n  0x02\n    /* \"OnDemo/contracts/AccountManagement.sol\":6811:6831  _role == Role.MEMBER */\n  0x03\n  dup2\n  gt\n  iszero\n  tag_134\n  jumpi\n  tag_135\n  tag_38\n  jump\t// in\ntag_135:\ntag_134:\n    /* \"OnDemo/contracts/AccountManagement.sol\":6811:6816  _role */\n  dup5\n    /* \"OnDemo/contracts/AccountManagement.sol\":6811:6831  _role == Role.MEMBER */\n  0x03\n  dup2\n  gt\n  iszero\n  tag_136\n  jumpi\n  tag_137\n  tag_38\n  jump\t// in\ntag_137:\ntag_136:\n  eq\n    /* \"OnDemo/contracts/AccountManagement.sol\":6808:6969  if(_role == Role.MEMBER){... */\n  iszero\n  tag_138\n  jumpi\n    /* \"OnDemo/contracts/AccountManagement.sol\":6854:6861  roleMap */\n  dup1\n    /* \"OnDemo/contracts/AccountManagement.sol\":6854:6870  roleMap.isMember */\n  0x40\n  add\n  mload\n    /* \"OnDemo/contracts/AccountManagement.sol\":6847:6870  return roleMap.isMember */\n  swap3\n  pop\n  pop\n  pop\n  jump(tag_105)\n    /* \"OnDemo/contracts/AccountManagement.sol\":6808:6969  if(_role == Role.MEMBER){... */\ntag_138:\n    /* \"OnDemo/contracts/AccountManagement.sol\":6909:6919  Role.GUEST */\n  0x03\n    /* \"OnDemo/contracts/AccountManagement.sol\":6900:6919  _role == Role.GUEST */\n  dup1\n  dup2\n  gt\n  iszero\n  tag_140\n  jumpi\n  tag_141\n  tag_38\n  jump\t// in\ntag_141:\ntag_140:\n    /* \"OnDemo/contracts/AccountManagement.sol\":6900:6905  _role */\n  dup5\n    /* \"OnDemo/contracts/AccountManagement.sol\":6900:6919  _role == Role.GUEST */\n  0x03\n  dup2\n  gt\n  iszero\n  tag_142\n  jumpi\n  tag_143\n  tag_38\n  jump\t// in\ntag_143:\ntag_142:\n  eq\n    /* \"OnDemo/contracts/AccountManagement.sol\":6897:6969  if(_role == Role.GUEST){... */\n  iszero\n  tag_144\n  jumpi\n    /* \"OnDemo/contracts/AccountManagement.sol\":6942:6949  roleMap */\n  dup1\n    /* \"OnDemo/contracts/AccountManagement.sol\":6942:6957  roleMap.isGuest */\n  0x60\n  add\n  mload\n    /* \"OnDemo/contracts/AccountManagement.sol\":6935:6957  return roleMap.isGuest */\n  swap3\n  pop\n  pop\n  pop\n  jump(tag_105)\n    /* \"OnDemo/contracts/AccountManagement.sol\":6897:6969  if(_role == Role.GUEST){... */\ntag_144:\n    /* \"OnDemo/contracts/AccountManagement.sol\":6986:6991  false */\n  0x00\n    /* \"OnDemo/contracts/AccountManagement.sol\":6979:6991  return false */\n  swap3\n  pop\n  pop\n  pop\n    /* \"OnDemo/contracts/AccountManagement.sol\":6429:6999  function hasRole(address _address, Role _role) private view returns (bool){... */\ntag_105:\n  swap3\n  swap2\n  pop\n  pop\n  jump\t// out\n    /* \"OnDemo/contracts/AccountManagement.sol\":74:8970  contract AccountManagement {... */\ntag_21:\n  dup3\n  dup1\n  sload\n  tag_145\n  swap1\n  tag_107\n  jump\t// in\ntag_145:\n  swap1\n  0x00\n  mstore\n  keccak256(0x00, 0x20)\n  swap1\n  0x1f\n  add\n  0x20\n  swap1\n  div\n  dup2\n  add\n  swap3\n  dup3\n  tag_147\n  jumpi\n  0x00\n  dup6\n  sstore\n  jump(tag_146)\ntag_147:\n  dup3\n  0x1f\n  lt\n  tag_148\n  jumpi\n  dup1\n  mload\n  not(0xff)\n  and\n  dup4\n  dup1\n  add\n  or\n  dup6\n  sstore\n  jump(tag_146)\ntag_148:\n  dup3\n  dup1\n  add\n  0x01\n  add\n  dup6\n  sstore\n  dup3\n  iszero\n  tag_146\n  jumpi\n  swap2\n  dup3\n  add\ntag_149:\n  dup3\n  dup2\n  gt\n  iszero\n  tag_150\n  jumpi\n  dup3\n  mload\n  dup3\n  sstore\n  swap2\n  0x20\n  add\n  swap2\n  swap1\n  0x01\n  add\n  swap1\n  jump(tag_149)\ntag_150:\ntag_146:\n  pop\n  swap1\n  pop\n  tag_151\n  swap2\n  swap1\n  tag_152\n  jump\t// in\ntag_151:\n  pop\n  swap1\n  jump\t// out\ntag_152:\ntag_153:\n  dup1\n  dup3\n  gt\n  iszero\n  tag_154\n  jumpi\n  0x00\n  dup2\n  0x00\n  swap1\n  sstore\n  pop\n  0x01\n  add\n  jump(tag_153)\ntag_154:\n  pop\n  swap1\n  jump\t// out\n    /* \"#utility.yul\":7:82   */\ntag_155:\n    /* \"#utility.yul\":40:46   */\n  0x00\n    /* \"#utility.yul\":73:75   */\n  0x40\n    /* \"#utility.yul\":67:76   */\n  mload\n    /* \"#utility.yul\":57:76   */\n  swap1\n  pop\n    /* \"#utility.yul\":7:82   */\n  swap1\n  jump\t// out\n    /* \"#utility.yul\":88:205   */\ntag_156:\n    /* \"#utility.yul\":197:198   */\n  0x00\n    /* \"#utility.yul\":194:195   */\n  dup1\n    /* \"#utility.yul\":187:199   */\n  revert\n    /* \"#utility.yul\":211:328   */\ntag_157:\n    /* \"#utility.yul\":320:321   */\n  0x00\n    /* \"#utility.yul\":317:318   */\n  dup1\n    /* \"#utility.yul\":310:322   */\n  revert\n    /* \"#utility.yul\":334:451   */\ntag_158:\n    /* \"#utility.yul\":443:444   */\n  0x00\n    /* \"#utility.yul\":440:441   */\n  dup1\n    /* \"#utility.yul\":433:445   */\n  revert\n    /* \"#utility.yul\":457:574   */\ntag_159:\n    /* \"#utility.yul\":566:567   */\n  0x00\n    /* \"#utility.yul\":563:564   */\n  dup1\n    /* \"#utility.yul\":556:568   */\n  revert\n    /* \"#utility.yul\":580:682   */\ntag_160:\n    /* \"#utility.yul\":621:627   */\n  0x00\n    /* \"#utility.yul\":672:674   */\n  0x1f\n    /* \"#utility.yul\":668:675   */\n  not\n    /* \"#utility.yul\":663:665   */\n  0x1f\n    /* \"#utility.yul\":656:661   */\n  dup4\n    /* \"#utility.yul\":652:666   */\n  add\n    /* \"#utility.yul\":648:676   */\n  and\n    /* \"#utility.yul\":638:676   */\n  swap1\n  pop\n    /* \"#utility.yul\":580:682   */\n  swap2\n  swap1\n  pop\n  jump\t// out\n    /* \"#utility.yul\":688:868   */\ntag_161:\n    /* \"#utility.yul\":736:813   */\n  0x4e487b7100000000000000000000000000000000000000000000000000000000\n    /* \"#utility.yul\":733:734   */\n  0x00\n    /* \"#utility.yul\":726:814   */\n  mstore\n    /* \"#utility.yul\":833:837   */\n  0x41\n    /* \"#utility.yul\":830:831   */\n  0x04\n    /* \"#utility.yul\":823:838   */\n  mstore\n    /* \"#utility.yul\":857:861   */\n  0x24\n    /* \"#utility.yul\":854:855   */\n  0x00\n    /* \"#utility.yul\":847:862   */\n  revert\n    /* \"#utility.yul\":874:1155   */\ntag_162:\n    /* \"#utility.yul\":957:984   */\n  tag_187\n    /* \"#utility.yul\":979:983   */\n  dup3\n    /* \"#utility.yul\":957:984   */\n  tag_160\n  jump\t// in\ntag_187:\n    /* \"#utility.yul\":949:955   */\n  dup2\n    /* \"#utility.yul\":945:985   */\n  add\n    /* \"#utility.yul\":1087:1093   */\n  dup2\n    /* \"#utility.yul\":1075:1085   */\n  dup2\n    /* \"#utility.yul\":1072:1094   */\n  lt\n    /* \"#utility.yul\":1051:1069   */\n  0xffffffffffffffff\n    /* \"#utility.yul\":1039:1049   */\n  dup3\n    /* \"#utility.yul\":1036:1070   */\n  gt\n    /* \"#utility.yul\":1033:1095   */\n  or\n    /* \"#utility.yul\":1030:1118   */\n  iszero\n  tag_188\n  jumpi\n    /* \"#utility.yul\":1098:1116   */\n  tag_189\n  tag_161\n  jump\t// in\ntag_189:\n    /* \"#utility.yul\":1030:1118   */\ntag_188:\n    /* \"#utility.yul\":1138:1148   */\n  dup1\n    /* \"#utility.yul\":1134:1136   */\n  0x40\n    /* \"#utility.yul\":1127:1149   */\n  mstore\n    /* \"#utility.yul\":917:1155   */\n  pop\n    /* \"#utility.yul\":874:1155   */\n  pop\n  pop\n  jump\t// out\n    /* \"#utility.yul\":1161:1290   */\ntag_163:\n    /* \"#utility.yul\":1195:1201   */\n  0x00\n    /* \"#utility.yul\":1222:1242   */\n  tag_191\n  tag_155\n  jump\t// in\ntag_191:\n    /* \"#utility.yul\":1212:1242   */\n  swap1\n  pop\n    /* \"#utility.yul\":1251:1284   */\n  tag_192\n    /* \"#utility.yul\":1279:1283   */\n  dup3\n    /* \"#utility.yul\":1271:1277   */\n  dup3\n    /* \"#utility.yul\":1251:1284   */\n  tag_162\n  jump\t// in\ntag_192:\n    /* \"#utility.yul\":1161:1290   */\n  swap2\n  swap1\n  pop\n  jump\t// out\n    /* \"#utility.yul\":1296:1604   */\ntag_164:\n    /* \"#utility.yul\":1358:1362   */\n  0x00\n    /* \"#utility.yul\":1448:1466   */\n  0xffffffffffffffff\n    /* \"#utility.yul\":1440:1446   */\n  dup3\n    /* \"#utility.yul\":1437:1467   */\n  gt\n    /* \"#utility.yul\":1434:1490   */\n  iszero\n  tag_194\n  jumpi\n    /* \"#utility.yul\":1470:1488   */\n  tag_195\n  tag_161\n  jump\t// in\ntag_195:\n    /* \"#utility.yul\":1434:1490   */\ntag_194:\n    /* \"#utility.yul\":1508:1537   */\n  tag_196\n    /* \"#utility.yul\":1530:1536   */\n  dup3\n    /* \"#utility.yul\":1508:1537   */\n  tag_160\n  jump\t// in\ntag_196:\n    /* \"#utility.yul\":1500:1537   */\n  swap1\n  pop\n    /* \"#utility.yul\":1592:1596   */\n  0x20\n    /* \"#utility.yul\":1586:1590   */\n  dup2\n    /* \"#utility.yul\":1582:1597   */\n  add\n    /* \"#utility.yul\":1574:1597   */\n  swap1\n  pop\n    /* \"#utility.yul\":1296:1604   */\n  swap2\n  swap1\n  pop\n  jump\t// out\n    /* \"#utility.yul\":1610:1917   */\ntag_165:\n    /* \"#utility.yul\":1678:1679   */\n  0x00\n    /* \"#utility.yul\":1688:1801   */\ntag_198:\n    /* \"#utility.yul\":1702:1708   */\n  dup4\n    /* \"#utility.yul\":1699:1700   */\n  dup2\n    /* \"#utility.yul\":1696:1709   */\n  lt\n    /* \"#utility.yul\":1688:1801   */\n  iszero\n  tag_200\n  jumpi\n    /* \"#utility.yul\":1787:1788   */\n  dup1\n    /* \"#utility.yul\":1782:1785   */\n  dup3\n    /* \"#utility.yul\":1778:1789   */\n  add\n    /* \"#utility.yul\":1772:1790   */\n  mload\n    /* \"#utility.yul\":1768:1769   */\n  dup2\n    /* \"#utility.yul\":1763:1766   */\n  dup5\n    /* \"#utility.yul\":1759:1770   */\n  add\n    /* \"#utility.yul\":1752:1791   */\n  mstore\n    /* \"#utility.yul\":1724:1726   */\n  0x20\n    /* \"#utility.yul\":1721:1722   */\n  dup2\n    /* \"#utility.yul\":1717:1727   */\n  add\n    /* \"#utility.yul\":1712:1727   */\n  swap1\n  pop\n    /* \"#utility.yul\":1688:1801   */\n  jump(tag_198)\ntag_200:\n    /* \"#utility.yul\":1819:1825   */\n  dup4\n    /* \"#utility.yul\":1816:1817   */\n  dup2\n    /* \"#utility.yul\":1813:1826   */\n  gt\n    /* \"#utility.yul\":1810:1911   */\n  iszero\n  tag_201\n  jumpi\n    /* \"#utility.yul\":1899:1900   */\n  0x00\n    /* \"#utility.yul\":1890:1896   */\n  dup5\n    /* \"#utility.yul\":1885:1888   */\n  dup5\n    /* \"#utility.yul\":1881:1897   */\n  add\n    /* \"#utility.yul\":1874:1901   */\n  mstore\n    /* \"#utility.yul\":1810:1911   */\ntag_201:\n    /* \"#utility.yul\":1659:1917   */\n  pop\n    /* \"#utility.yul\":1610:1917   */\n  pop\n  pop\n  pop\n  jump\t// out\n    /* \"#utility.yul\":1923:2344   */\ntag_166:\n    /* \"#utility.yul\":2012:2017   */\n  0x00\n    /* \"#utility.yul\":2037:2103   */\n  tag_203\n    /* \"#utility.yul\":2053:2102   */\n  tag_204\n    /* \"#utility.yul\":2095:2101   */\n  dup5\n    /* \"#utility.yul\":2053:2102   */\n  tag_164\n  jump\t// in\ntag_204:\n    /* \"#utility.yul\":2037:2103   */\n  tag_163\n  jump\t// in\ntag_203:\n    /* \"#utility.yul\":2028:2103   */\n  swap1\n  pop\n    /* \"#utility.yul\":2126:2132   */\n  dup3\n    /* \"#utility.yul\":2119:2124   */\n  dup2\n    /* \"#utility.yul\":2112:2133   */\n  mstore\n    /* \"#utility.yul\":2164:2168   */\n  0x20\n    /* \"#utility.yul\":2157:2162   */\n  dup2\n    /* \"#utility.yul\":2153:2169   */\n  add\n    /* \"#utility.yul\":2202:2205   */\n  dup5\n    /* \"#utility.yul\":2193:2199   */\n  dup5\n    /* \"#utility.yul\":2188:2191   */\n  dup5\n    /* \"#utility.yul\":2184:2200   */\n  add\n    /* \"#utility.yul\":2181:2206   */\n  gt\n    /* \"#utility.yul\":2178:2290   */\n  iszero\n  tag_205\n  jumpi\n    /* \"#utility.yul\":2209:2288   */\n  tag_206\n  tag_159\n  jump\t// in\ntag_206:\n    /* \"#utility.yul\":2178:2290   */\ntag_205:\n    /* \"#utility.yul\":2299:2338   */\n  tag_207\n    /* \"#utility.yul\":2331:2337   */\n  dup5\n    /* \"#utility.yul\":2326:2329   */\n  dup3\n    /* \"#utility.yul\":2321:2324   */\n  dup6\n    /* \"#utility.yul\":2299:2338   */\n  tag_165\n  jump\t// in\ntag_207:\n    /* \"#utility.yul\":2018:2344   */\n  pop\n    /* \"#utility.yul\":1923:2344   */\n  swap4\n  swap3\n  pop\n  pop\n  pop\n  jump\t// out\n    /* \"#utility.yul\":2364:2719   */\ntag_167:\n    /* \"#utility.yul\":2431:2436   */\n  0x00\n    /* \"#utility.yul\":2480:2483   */\n  dup3\n    /* \"#utility.yul\":2473:2477   */\n  0x1f\n    /* \"#utility.yul\":2465:2471   */\n  dup4\n    /* \"#utility.yul\":2461:2478   */\n  add\n    /* \"#utility.yul\":2457:2484   */\n  slt\n    /* \"#utility.yul\":2447:2569   */\n  tag_209\n  jumpi\n    /* \"#utility.yul\":2488:2567   */\n  tag_210\n  tag_158\n  jump\t// in\ntag_210:\n    /* \"#utility.yul\":2447:2569   */\ntag_209:\n    /* \"#utility.yul\":2598:2604   */\n  dup2\n    /* \"#utility.yul\":2592:2605   */\n  mload\n    /* \"#utility.yul\":2623:2713   */\n  tag_211\n    /* \"#utility.yul\":2709:2712   */\n  dup5\n    /* \"#utility.yul\":2701:2707   */\n  dup3\n    /* \"#utility.yul\":2694:2698   */\n  0x20\n    /* \"#utility.yul\":2686:2692   */\n  dup7\n    /* \"#utility.yul\":2682:2699   */\n  add\n    /* \"#utility.yul\":2623:2713   */\n  tag_166\n  jump\t// in\ntag_211:\n    /* \"#utility.yul\":2614:2713   */\n  swap2\n  pop\n    /* \"#utility.yul\":2437:2719   */\n  pop\n    /* \"#utility.yul\":2364:2719   */\n  swap3\n  swap2\n  pop\n  pop\n  jump\t// out\n    /* \"#utility.yul\":2725:3907   */\ntag_3:\n    /* \"#utility.yul\":2843:2849   */\n  0x00\n    /* \"#utility.yul\":2851:2857   */\n  dup1\n    /* \"#utility.yul\":2859:2865   */\n  0x00\n    /* \"#utility.yul\":2908:2910   */\n  0x60\n    /* \"#utility.yul\":2896:2905   */\n  dup5\n    /* \"#utility.yul\":2887:2894   */\n  dup7\n    /* \"#utility.yul\":2883:2906   */\n  sub\n    /* \"#utility.yul\":2879:2911   */\n  slt\n    /* \"#utility.yul\":2876:2995   */\n  iszero\n  tag_213\n  jumpi\n    /* \"#utility.yul\":2914:2993   */\n  tag_214\n  tag_156\n  jump\t// in\ntag_214:\n    /* \"#utility.yul\":2876:2995   */\ntag_213:\n    /* \"#utility.yul\":3055:3056   */\n  0x00\n    /* \"#utility.yul\":3044:3053   */\n  dup5\n    /* \"#utility.yul\":3040:3057   */\n  add\n    /* \"#utility.yul\":3034:3058   */\n  mload\n    /* \"#utility.yul\":3085:3103   */\n  0xffffffffffffffff\n    /* \"#utility.yul\":3077:3083   */\n  dup2\n    /* \"#utility.yul\":3074:3104   */\n  gt\n    /* \"#utility.yul\":3071:3188   */\n  iszero\n  tag_215\n  jumpi\n    /* \"#utility.yul\":3107:3186   */\n  tag_216\n  tag_157\n  jump\t// in\ntag_216:\n    /* \"#utility.yul\":3071:3188   */\ntag_215:\n    /* \"#utility.yul\":3212:3286   */\n  tag_217\n    /* \"#utility.yul\":3278:3285   */\n  dup7\n    /* \"#utility.yul\":3269:3275   */\n  dup3\n    /* \"#utility.yul\":3258:3267   */\n  dup8\n    /* \"#utility.yul\":3254:3276   */\n  add\n    /* \"#utility.yul\":3212:3286   */\n  tag_167\n  jump\t// in\ntag_217:\n    /* \"#utility.yul\":3202:3286   */\n  swap4\n  pop\n    /* \"#utility.yul\":3005:3296   */\n  pop\n    /* \"#utility.yul\":3356:3358   */\n  0x20\n    /* \"#utility.yul\":3345:3354   */\n  dup5\n    /* \"#utility.yul\":3341:3359   */\n  add\n    /* \"#utility.yul\":3335:3360   */\n  mload\n    /* \"#utility.yul\":3387:3405   */\n  0xffffffffffffffff\n    /* \"#utility.yul\":3379:3385   */\n  dup2\n    /* \"#utility.yul\":3376:3406   */\n  gt\n    /* \"#utility.yul\":3373:3490   */\n  iszero\n  tag_218\n  jumpi\n    /* \"#utility.yul\":3409:3488   */\n  tag_219\n  tag_157\n  jump\t// in\ntag_219:\n    /* \"#utility.yul\":3373:3490   */\ntag_218:\n    /* \"#utility.yul\":3514:3588   */\n  tag_220\n    /* \"#utility.yul\":3580:3587   */\n  dup7\n    /* \"#utility.yul\":3571:3577   */\n  dup3\n    /* \"#utility.yul\":3560:3569   */\n  dup8\n    /* \"#utility.yul\":3556:3578   */\n  add\n    /* \"#utility.yul\":3514:3588   */\n  tag_167\n  jump\t// in\ntag_220:\n    /* \"#utility.yul\":3504:3588   */\n  swap3\n  pop\n    /* \"#utility.yul\":3306:3598   */\n  pop\n    /* \"#utility.yul\":3658:3660   */\n  0x40\n    /* \"#utility.yul\":3647:3656   */\n  dup5\n    /* \"#utility.yul\":3643:3661   */\n  add\n    /* \"#utility.yul\":3637:3662   */\n  mload\n    /* \"#utility.yul\":3689:3707   */\n  0xffffffffffffffff\n    /* \"#utility.yul\":3681:3687   */\n  dup2\n    /* \"#utility.yul\":3678:3708   */\n  gt\n    /* \"#utility.yul\":3675:3792   */\n  iszero\n  tag_221\n  jumpi\n    /* \"#utility.yul\":3711:3790   */\n  tag_222\n  tag_157\n  jump\t// in\ntag_222:\n    /* \"#utility.yul\":3675:3792   */\ntag_221:\n    /* \"#utility.yul\":3816:3890   */\n  tag_223\n    /* \"#utility.yul\":3882:3889   */\n  dup7\n    /* \"#utility.yul\":3873:3879   */\n  dup3\n    /* \"#utility.yul\":3862:3871   */\n  dup8\n    /* \"#utility.yul\":3858:3880   */\n  add\n    /* \"#utility.yul\":3816:3890   */\n  tag_167\n  jump\t// in\ntag_223:\n    /* \"#utility.yul\":3806:3890   */\n  swap2\n  pop\n    /* \"#utility.yul\":3608:3900   */\n  pop\n    /* \"#utility.yul\":2725:3907   */\n  swap3\n  pop\n  swap3\n  pop\n  swap3\n  jump\t// out\n    /* \"#utility.yul\":3913:4082   */\ntag_168:\n    /* \"#utility.yul\":3997:4008   */\n  0x00\n    /* \"#utility.yul\":4031:4037   */\n  dup3\n    /* \"#utility.yul\":4026:4029   */\n  dup3\n    /* \"#utility.yul\":4019:4038   */\n  mstore\n    /* \"#utility.yul\":4071:4075   */\n  0x20\n    /* \"#utility.yul\":4066:4069   */\n  dup3\n    /* \"#utility.yul\":4062:4076   */\n  add\n    /* \"#utility.yul\":4047:4076   */\n  swap1\n  pop\n    /* \"#utility.yul\":3913:4082   */\n  swap3\n  swap2\n  pop\n  pop\n  jump\t// out\n    /* \"#utility.yul\":4088:4260   */\ntag_169:\n    /* \"#utility.yul\":4228:4252   */\n  0x4163636f756e7420616c72656164792065786973747300000000000000000000\n    /* \"#utility.yul\":4224:4225   */\n  0x00\n    /* \"#utility.yul\":4216:4222   */\n  dup3\n    /* \"#utility.yul\":4212:4226   */\n  add\n    /* \"#utility.yul\":4205:4253   */\n  mstore\n    /* \"#utility.yul\":4088:4260   */\n  pop\n  jump\t// out\n    /* \"#utility.yul\":4266:4632   */\ntag_170:\n    /* \"#utility.yul\":4408:4411   */\n  0x00\n    /* \"#utility.yul\":4429:4496   */\n  tag_227\n    /* \"#utility.yul\":4493:4495   */\n  0x16\n    /* \"#utility.yul\":4488:4491   */\n  dup4\n    /* \"#utility.yul\":4429:4496   */\n  tag_168\n  jump\t// in\ntag_227:\n    /* \"#utility.yul\":4422:4496   */\n  swap2\n  pop\n    /* \"#utility.yul\":4505:4598   */\n  tag_228\n    /* \"#utility.yul\":4594:4597   */\n  dup3\n    /* \"#utility.yul\":4505:4598   */\n  tag_169\n  jump\t// in\ntag_228:\n    /* \"#utility.yul\":4623:4625   */\n  0x20\n    /* \"#utility.yul\":4618:4621   */\n  dup3\n    /* \"#utility.yul\":4614:4626   */\n  add\n    /* \"#utility.yul\":4607:4626   */\n  swap1\n  pop\n    /* \"#utility.yul\":4266:4632   */\n  swap2\n  swap1\n  pop\n  jump\t// out\n    /* \"#utility.yul\":4638:5057   */\ntag_18:\n    /* \"#utility.yul\":4804:4808   */\n  0x00\n    /* \"#utility.yul\":4842:4844   */\n  0x20\n    /* \"#utility.yul\":4831:4840   */\n  dup3\n    /* \"#utility.yul\":4827:4845   */\n  add\n    /* \"#utility.yul\":4819:4845   */\n  swap1\n  pop\n    /* \"#utility.yul\":4891:4900   */\n  dup2\n    /* \"#utility.yul\":4885:4889   */\n  dup2\n    /* \"#utility.yul\":4881:4901   */\n  sub\n    /* \"#utility.yul\":4877:4878   */\n  0x00\n    /* \"#utility.yul\":4866:4875   */\n  dup4\n    /* \"#utility.yul\":4862:4879   */\n  add\n    /* \"#utility.yul\":4855:4902   */\n  mstore\n    /* \"#utility.yul\":4919:5050   */\n  tag_230\n    /* \"#utility.yul\":5045:5049   */\n  dup2\n    /* \"#utility.yul\":4919:5050   */\n  tag_170\n  jump\t// in\ntag_230:\n    /* \"#utility.yul\":4911:5050   */\n  swap1\n  pop\n    /* \"#utility.yul\":4638:5057   */\n  swap2\n  swap1\n  pop\n  jump\t// out\n    /* \"#utility.yul\":5063:5284   */\ntag_171:\n    /* \"#utility.yul\":5203:5237   */\n  0x4f6e6c79206f776e65722063616e2063616c6c20746869732066756e6374696f\n    /* \"#utility.yul\":5199:5200   */\n  0x00\n    /* \"#utility.yul\":5191:5197   */\n  dup3\n    /* \"#utility.yul\":5187:5201   */\n  add\n    /* \"#utility.yul\":5180:5238   */\n  mstore\n    /* \"#utility.yul\":5272:5276   */\n  0x6e2e000000000000000000000000000000000000000000000000000000000000\n    /* \"#utility.yul\":5267:5269   */\n  0x20\n    /* \"#utility.yul\":5259:5265   */\n  dup3\n    /* \"#utility.yul\":5255:5270   */\n  add\n    /* \"#utility.yul\":5248:5277   */\n  mstore\n    /* \"#utility.yul\":5063:5284   */\n  pop\n  jump\t// out\n    /* \"#utility.yul\":5290:5656   */\ntag_172:\n    /* \"#utility.yul\":5432:5435   */\n  0x00\n    /* \"#utility.yul\":5453:5520   */\n  tag_233\n    /* \"#utility.yul\":5517:5519   */\n  0x22\n    /* \"#utility.yul\":5512:5515   */\n  dup4\n    /* \"#utility.yul\":5453:5520   */\n  tag_168\n  jump\t// in\ntag_233:\n    /* \"#utility.yul\":5446:5520   */\n  swap2\n  pop\n    /* \"#utility.yul\":5529:5622   */\n  tag_234\n    /* \"#utility.yul\":5618:5621   */\n  dup3\n    /* \"#utility.yul\":5529:5622   */\n  tag_171\n  jump\t// in\ntag_234:\n    /* \"#utility.yul\":5647:5649   */\n  0x40\n    /* \"#utility.yul\":5642:5645   */\n  dup3\n    /* \"#utility.yul\":5638:5650   */\n  add\n    /* \"#utility.yul\":5631:5650   */\n  swap1\n  pop\n    /* \"#utility.yul\":5290:5656   */\n  swap2\n  swap1\n  pop\n  jump\t// out\n    /* \"#utility.yul\":5662:6081   */\ntag_30:\n    /* \"#utility.yul\":5828:5832   */\n  0x00\n    /* \"#utility.yul\":5866:5868   */\n  0x20\n    /* \"#utility.yul\":5855:5864   */\n  dup3\n    /* \"#utility.yul\":5851:5869   */\n  add\n    /* \"#utility.yul\":5843:5869   */\n  swap1\n  pop\n    /* \"#utility.yul\":5915:5924   */\n  dup2\n    /* \"#utility.yul\":5909:5913   */\n  dup2\n    /* \"#utility.yul\":5905:5925   */\n  sub\n    /* \"#utility.yul\":5901:5902   */\n  0x00\n    /* \"#utility.yul\":5890:5899   */\n  dup4\n    /* \"#utility.yul\":5886:5903   */\n  add\n    /* \"#utility.yul\":5879:5926   */\n  mstore\n    /* \"#utility.yul\":5943:6074   */\n  tag_236\n    /* \"#utility.yul\":6069:6073   */\n  dup2\n    /* \"#utility.yul\":5943:6074   */\n  tag_172\n  jump\t// in\ntag_236:\n    /* \"#utility.yul\":5935:6074   */\n  swap1\n  pop\n    /* \"#utility.yul\":5662:6081   */\n  swap2\n  swap1\n  pop\n  jump\t// out\n    /* \"#utility.yul\":6087:6258   */\ntag_173:\n    /* \"#utility.yul\":6227:6250   */\n  0x4163636f756e7420646f65736e27742065786973740000000000000000000000\n    /* \"#utility.yul\":6223:6224   */\n  0x00\n    /* \"#utility.yul\":6215:6221   */\n  dup3\n    /* \"#utility.yul\":6211:6225   */\n  add\n    /* \"#utility.yul\":6204:6251   */\n  mstore\n    /* \"#utility.yul\":6087:6258   */\n  pop\n  jump\t// out\n    /* \"#utility.yul\":6264:6630   */\ntag_174:\n    /* \"#utility.yul\":6406:6409   */\n  0x00\n    /* \"#utility.yul\":6427:6494   */\n  tag_239\n    /* \"#utility.yul\":6491:6493   */\n  0x15\n    /* \"#utility.yul\":6486:6489   */\n  dup4\n    /* \"#utility.yul\":6427:6494   */\n  tag_168\n  jump\t// in\ntag_239:\n    /* \"#utility.yul\":6420:6494   */\n  swap2\n  pop\n    /* \"#utility.yul\":6503:6596   */\n  tag_240\n    /* \"#utility.yul\":6592:6595   */\n  dup3\n    /* \"#utility.yul\":6503:6596   */\n  tag_173\n  jump\t// in\ntag_240:\n    /* \"#utility.yul\":6621:6623   */\n  0x20\n    /* \"#utility.yul\":6616:6619   */\n  dup3\n    /* \"#utility.yul\":6612:6624   */\n  add\n    /* \"#utility.yul\":6605:6624   */\n  swap1\n  pop\n    /* \"#utility.yul\":6264:6630   */\n  swap2\n  swap1\n  pop\n  jump\t// out\n    /* \"#utility.yul\":6636:7055   */\ntag_34:\n    /* \"#utility.yul\":6802:6806   */\n  0x00\n    /* \"#utility.yul\":6840:6842   */\n  0x20\n    /* \"#utility.yul\":6829:6838   */\n  dup3\n    /* \"#utility.yul\":6825:6843   */\n  add\n    /* \"#utility.yul\":6817:6843   */\n  swap1\n  pop\n    /* \"#utility.yul\":6889:6898   */\n  dup2\n    /* \"#utility.yul\":6883:6887   */\n  dup2\n    /* \"#utility.yul\":6879:6899   */\n  sub\n    /* \"#utility.yul\":6875:6876   */\n  0x00\n    /* \"#utility.yul\":6864:6873   */\n  dup4\n    /* \"#utility.yul\":6860:6877   */\n  add\n    /* \"#utility.yul\":6853:6900   */\n  mstore\n    /* \"#utility.yul\":6917:7048   */\n  tag_242\n    /* \"#utility.yul\":7043:7047   */\n  dup2\n    /* \"#utility.yul\":6917:7048   */\n  tag_174\n  jump\t// in\ntag_242:\n    /* \"#utility.yul\":6909:7048   */\n  swap1\n  pop\n    /* \"#utility.yul\":6636:7055   */\n  swap2\n  swap1\n  pop\n  jump\t// out\n    /* \"#utility.yul\":7061:7241   */\ntag_38:\n    /* \"#utility.yul\":7109:7186   */\n  0x4e487b7100000000000000000000000000000000000000000000000000000000\n    /* \"#utility.yul\":7106:7107   */\n  0x00\n    /* \"#utility.yul\":7099:7187   */\n  mstore\n    /* \"#utility.yul\":7206:7210   */\n  0x21\n    /* \"#utility.yul\":7203:7204   */\n  0x04\n    /* \"#utility.yul\":7196:7211   */\n  mstore\n    /* \"#utility.yul\":7230:7234   */\n  0x24\n    /* \"#utility.yul\":7227:7228   */\n  0x00\n    /* \"#utility.yul\":7220:7235   */\n  revert\n    /* \"#utility.yul\":7247:7427   */\ntag_175:\n    /* \"#utility.yul\":7295:7372   */\n  0x4e487b7100000000000000000000000000000000000000000000000000000000\n    /* \"#utility.yul\":7292:7293   */\n  0x00\n    /* \"#utility.yul\":7285:7373   */\n  mstore\n    /* \"#utility.yul\":7392:7396   */\n  0x11\n    /* \"#utility.yul\":7389:7390   */\n  0x04\n    /* \"#utility.yul\":7382:7397   */\n  mstore\n    /* \"#utility.yul\":7416:7420   */\n  0x24\n    /* \"#utility.yul\":7413:7414   */\n  0x00\n    /* \"#utility.yul\":7406:7421   */\n  revert\n    /* \"#utility.yul\":7433:7510   */\ntag_176:\n    /* \"#utility.yul\":7470:7477   */\n  0x00\n    /* \"#utility.yul\":7499:7504   */\n  dup2\n    /* \"#utility.yul\":7488:7504   */\n  swap1\n  pop\n    /* \"#utility.yul\":7433:7510   */\n  swap2\n  swap1\n  pop\n  jump\t// out\n    /* \"#utility.yul\":7516:7749   */\ntag_101:\n    /* \"#utility.yul\":7555:7558   */\n  0x00\n    /* \"#utility.yul\":7578:7602   */\n  tag_247\n    /* \"#utility.yul\":7596:7601   */\n  dup3\n    /* \"#utility.yul\":7578:7602   */\n  tag_176\n  jump\t// in\ntag_247:\n    /* \"#utility.yul\":7569:7602   */\n  swap2\n  pop\n    /* \"#utility.yul\":7624:7690   */\n  0xffffffffffffffffffffffffffffffffffffffffffffffffffffffffffffffff\n    /* \"#utility.yul\":7617:7622   */\n  dup3\n    /* \"#utility.yul\":7614:7691   */\n  eq\n    /* \"#utility.yul\":7611:7714   */\n  iszero\n  tag_248\n  jumpi\n    /* \"#utility.yul\":7694:7712   */\n  tag_249\n  tag_175\n  jump\t// in\ntag_249:\n    /* \"#utility.yul\":7611:7714   */\ntag_248:\n    /* \"#utility.yul\":7741:7742   */\n  0x01\n    /* \"#utility.yul\":7734:7739   */\n  dup3\n    /* \"#utility.yul\":7730:7743   */\n  add\n    /* \"#utility.yul\":7723:7743   */\n  swap1\n  pop\n    /* \"#utility.yul\":7516:7749   */\n  swap2\n  swap1\n  pop\n  jump\t// out\n    /* \"#utility.yul\":7755:7935   */\ntag_177:\n    /* \"#utility.yul\":7803:7880   */\n  0x4e487b7100000000000000000000000000000000000000000000000000000000\n    /* \"#utility.yul\":7800:7801   */\n  0x00\n    /* \"#utility.yul\":7793:7881   */\n  mstore\n    /* \"#utility.yul\":7900:7904   */\n  0x22\n    /* \"#utility.yul\":7897:7898   */\n  0x04\n    /* \"#utility.yul\":7890:7905   */\n  mstore\n    /* \"#utility.yul\":7924:7928   */\n  0x24\n    /* \"#utility.yul\":7921:7922   */\n  0x00\n    /* \"#utility.yul\":7914:7929   */\n  revert\n    /* \"#utility.yul\":7941:8261   */\ntag_107:\n    /* \"#utility.yul\":7985:7991   */\n  0x00\n    /* \"#utility.yul\":8022:8023   */\n  0x02\n    /* \"#utility.yul\":8016:8020   */\n  dup3\n    /* \"#utility.yul\":8012:8024   */\n  div\n    /* \"#utility.yul\":8002:8024   */\n  swap1\n  pop\n    /* \"#utility.yul\":8069:8070   */\n  0x01\n    /* \"#utility.yul\":8063:8067   */\n  dup3\n    /* \"#utility.yul\":8059:8071   */\n  and\n    /* \"#utility.yul\":8090:8108   */\n  dup1\n    /* \"#utility.yul\":8080:8161   */\n  tag_252\n  jumpi\n    /* \"#utility.yul\":8146:8150   */\n  0x7f\n    /* \"#utility.yul\":8138:8144   */\n  dup3\n    /* \"#utility.yul\":8134:8151   */\n  and\n    /* \"#utility.yul\":8124:8151   */\n  swap2\n  pop\n    /* \"#utility.yul\":8080:8161   */\ntag_252:\n    /* \"#utility.yul\":8208:8210   */\n  0x20\n    /* \"#utility.yul\":8200:8206   */\n  dup3\n    /* \"#utility.yul\":8197:8211   */\n  lt\n    /* \"#utility.yul\":8177:8195   */\n  dup2\n    /* \"#utility.yul\":8174:8212   */\n  eq\n    /* \"#utility.yul\":8171:8255   */\n  iszero\n  tag_253\n  jumpi\n    /* \"#utility.yul\":8227:8245   */\n  tag_254\n  tag_177\n  jump\t// in\ntag_254:\n    /* \"#utility.yul\":8171:8255   */\ntag_253:\n    /* \"#utility.yul\":7992:8261   */\n  pop\n    /* \"#utility.yul\":7941:8261   */\n  swap2\n  swap1\n  pop\n  jump\t// out\n    /* \"OnDemo/contracts/AccountManagement.sol\":74:8970  contract AccountManagement {... */\ntag_14:\n  dataSize(sub_0)\n  dup1\n  dataOffset(sub_0)\n  0x00\n  codecopy\n  0x00\n  return\nstop\n\nsub_0: assembly {\n        /* \"OnDemo/contracts/AccountManagement.sol\":74:8970  contract AccountManagement {... */\n      mstore(0x40, 0x80)\n      callvalue\n      dup1\n      iszero\n      tag_1\n      jumpi\n      0x00\n      dup1\n      revert\n    tag_1:\n      pop\n      jumpi(tag_2, lt(calldatasize, 0x04))\n      shr(0xe0, calldataload(0x00))\n      dup1\n      0x8da5cb5b\n      gt\n      tag_19\n      jumpi\n      dup1\n      0xd3a5059a\n      gt\n      tag_20\n      jumpi\n      dup1\n      0xd3a5059a\n      eq\n      tag_15\n      jumpi\n      dup1\n      0xdee94b4a\n      eq\n      tag_16\n      jumpi\n      dup1\n      0xe8621e59\n      eq\n      tag_17\n      jumpi\n      dup1\n      0xfa4d7aae\n      eq\n      tag_18\n      jumpi\n      jump(tag_2)\n    tag_20:\n      dup1\n      0x8da5cb5b\n      eq\n      tag_11\n      jumpi\n      dup1\n      0xa1aea04a\n      eq\n      tag_12\n      jumpi\n      dup1\n      0xb74866fb\n      eq\n      tag_13\n      jumpi\n      dup1\n      0xc2b7d948\n      eq\n      tag_14\n      jumpi\n      jump(tag_2)\n    tag_19:\n      dup1\n      0x49587281\n      gt\n      tag_21\n      jumpi\n      dup1\n      0x49587281\n      eq\n      tag_7\n      jumpi\n      dup1\n      0x5fb6c6ed\n      eq\n      tag_8\n      jumpi\n      dup1\n      0x630a195b\n      eq\n      tag_9\n      jumpi\n      dup1\n      0x65c93769\n      eq\n      tag_10\n      jumpi\n      jump(tag_2)\n    tag_21:\n      dup1\n      0x01eb0857\n      eq\n      tag_3\n      jumpi\n      dup1\n      0x056909b7\n      eq\n      tag_4\n      jumpi\n      dup1\n      0x22faa41f\n      eq\n      tag_5\n      jumpi\n      dup1\n      0x297027d5\n      eq\n      tag_6\n      jumpi\n    tag_2:\n      0x00\n      dup1\n      revert\n        /* \"OnDemo/contracts/AccountManagement.sol\":7811:8198  function hasRightToCreateReferendum(address _address) external view returns (bool) {... */\n    tag_3:\n      tag_22\n      0x04\n      dup1\n      calldatasize\n      sub\n      dup2\n      add\n      swap1\n      tag_23\n      swap2\n      swap1\n      tag_24\n      jump\t// in\n    tag_23:\n      tag_25\n      jump\t// in\n    tag_22:\n      mload(0x40)\n      tag_26\n      swap2\n      swap1\n      tag_27\n      jump\t// in\n    tag_26:\n      mload(0x40)\n      dup1\n      swap2\n      sub\n      swap1\n      return\n        /* \"OnDemo/contracts/AccountManagement.sol\":7293:7417  function hasMemberRole(address _address) public view returns (bool) {... */\n    tag_4:\n      tag_28\n      0x04\n      dup1\n      calldatasize\n      sub\n      dup2\n      add\n      swap1\n      tag_29\n      swap2\n      swap1\n      tag_24\n      jump\t// in\n    tag_29:\n      tag_30\n      jump\t// in\n    tag_28:\n      mload(0x40)\n      tag_31\n      swap2\n      swap1\n      tag_27\n      jump\t// in\n    tag_31:\n      mload(0x40)\n      dup1\n      swap2\n      sub\n      swap1\n      return\n        /* \"OnDemo/contracts/AccountManagement.sol\":7701:7803  function getActiveMemberCount() public view returns (uint) {... */\n    tag_5:\n      tag_32\n      tag_33\n      jump\t// in\n    tag_32:\n      mload(0x40)\n      tag_34\n      swap2\n      swap1\n      tag_35\n      jump\t// in\n    tag_34:\n      mload(0x40)\n      dup1\n      swap2\n      sub\n      swap1\n      return\n        /* \"OnDemo/contracts/AccountManagement.sol\":7011:7135  function hasLeaderRole(address _address) public view returns (bool) {... */\n    tag_6:\n      tag_36\n      0x04\n      dup1\n      calldatasize\n      sub\n      dup2\n      add\n      swap1\n      tag_37\n      swap2\n      swap1\n      tag_24\n      jump\t// in\n    tag_37:\n      tag_38\n      jump\t// in\n    tag_36:\n      mload(0x40)\n      tag_39\n      swap2\n      swap1\n      tag_27\n      jump\t// in\n    tag_39:\n      mload(0x40)\n      dup1\n      swap2\n      sub\n      swap1\n      return\n        /* \"OnDemo/contracts/AccountManagement.sol\":3249:3610  function makeAccountPassive(address _address) public userExists(_address){... */\n    tag_7:\n      tag_40\n      0x04\n      dup1\n      calldatasize\n      sub\n      dup2\n      add\n      swap1\n      tag_41\n      swap2\n      swap1\n      tag_24\n      jump\t// in\n    tag_41:\n      tag_42\n      jump\t// in\n    tag_40:\n      stop\n        /* \"OnDemo/contracts/AccountManagement.sol\":832:861  uint public activeMemberCount */\n    tag_8:\n      tag_43\n      tag_44\n      jump\t// in\n    tag_43:\n      mload(0x40)\n      tag_45\n      swap2\n      swap1\n      tag_35\n      jump\t// in\n    tag_45:\n      mload(0x40)\n      dup1\n      swap2\n      sub\n      swap1\n      return\n        /* \"OnDemo/contracts/AccountManagement.sol\":3924:4487  function assignRole(address _address, Role _role) public onlyLeader userExists(_address){... */\n    tag_9:\n      tag_46\n      0x04\n      dup1\n      calldatasize\n      sub\n      dup2\n      add\n      swap1\n      tag_47\n      swap2\n      swap1\n      tag_48\n      jump\t// in\n    tag_47:\n      tag_49\n      jump\t// in\n    tag_46:\n      stop\n        /* \"OnDemo/contracts/AccountManagement.sol\":8206:8581  function hasRightToVote(address _address) external view returns (bool) {... */\n    tag_10:\n      tag_50\n      0x04\n      dup1\n      calldatasize\n      sub\n      dup2\n      add\n      swap1\n      tag_51\n      swap2\n      swap1\n      tag_24\n      jump\t// in\n    tag_51:\n      tag_52\n      jump\t// in\n    tag_50:\n      mload(0x40)\n      tag_53\n      swap2\n      swap1\n      tag_27\n      jump\t// in\n    tag_53:\n      mload(0x40)\n      dup1\n      swap2\n      sub\n      swap1\n      return\n        /* \"OnDemo/contracts/AccountManagement.sol\":868:888  address public owner */\n    tag_11:\n      tag_54\n      tag_55\n      jump\t// in\n    tag_54:\n      mload(0x40)\n      tag_56\n      swap2\n      swap1\n      tag_57\n      jump\t// in\n    tag_56:\n      mload(0x40)\n      dup1\n      swap2\n      sub\n      swap1\n      return\n        /* \"OnDemo/contracts/AccountManagement.sol\":2729:3241  function makeAccountActive(address _address) public userExists(_address){... */\n    tag_12:\n      tag_58\n      0x04\n      dup1\n      calldatasize\n      sub\n      dup2\n      add\n      swap1\n      tag_59\n      swap2\n      swap1\n      tag_24\n      jump\t// in\n    tag_59:\n      tag_60\n      jump\t// in\n    tag_58:\n      stop\n        /* \"OnDemo/contracts/AccountManagement.sol\":4495:5072  function removeRole(address _address, Role _role) public onlyLeader userExists(_address){... */\n    tag_13:\n      tag_61\n      0x04\n      dup1\n      calldatasize\n      sub\n      dup2\n      add\n      swap1\n      tag_62\n      swap2\n      swap1\n      tag_48\n      jump\t// in\n    tag_62:\n      tag_63\n      jump\t// in\n    tag_61:\n      stop\n        /* \"OnDemo/contracts/AccountManagement.sol\":8589:8967  function hasRightToSupport(address _address) external view returns (bool) {... */\n    tag_14:\n      tag_64\n      0x04\n      dup1\n      calldatasize\n      sub\n      dup2\n      add\n      swap1\n      tag_65\n      swap2\n      swap1\n      tag_24\n      jump\t// in\n    tag_65:\n      tag_66\n      jump\t// in\n    tag_64:\n      mload(0x40)\n      tag_67\n      swap2\n      swap1\n      tag_27\n      jump\t// in\n    tag_67:\n      mload(0x40)\n      dup1\n      swap2\n      sub\n      swap1\n      return\n        /* \"OnDemo/contracts/AccountManagement.sol\":3618:3782  function burnAccount(address _address) public userExists(_address){  ... */\n    tag_15:\n      tag_68\n      0x04\n      dup1\n      calldatasize\n      sub\n      dup2\n      add\n      swap1\n      tag_69\n      swap2\n      swap1\n      tag_24\n      jump\t// in\n    tag_69:\n      tag_70\n      jump\t// in\n    tag_68:\n      stop\n        /* \"OnDemo/contracts/AccountManagement.sol\":2356:2721  function createAccount(address _address, string memory _firstName, string memory _secondName, string memory _mailAdress) public userNotExists(_address){... */\n    tag_16:\n      tag_71\n      0x04\n      dup1\n      calldatasize\n      sub\n      dup2\n      add\n      swap1\n      tag_72\n      swap2\n      swap1\n      tag_73\n      jump\t// in\n    tag_72:\n      tag_74\n      jump\t// in\n    tag_71:\n      stop\n        /* \"OnDemo/contracts/AccountManagement.sol\":7429:7551  function hasGuestRole(address _address) public view returns (bool) {... */\n    tag_17:\n      tag_75\n      0x04\n      dup1\n      calldatasize\n      sub\n      dup2\n      add\n      swap1\n      tag_76\n      swap2\n      swap1\n      tag_24\n      jump\t// in\n    tag_76:\n      tag_77\n      jump\t// in\n    tag_75:\n      mload(0x40)\n      tag_78\n      swap2\n      swap1\n      tag_27\n      jump\t// in\n    tag_78:\n      mload(0x40)\n      dup1\n      swap2\n      sub\n      swap1\n      return\n        /* \"OnDemo/contracts/AccountManagement.sol\":7143:7281  function hasCouncilMemberRole(address _address) public view returns (bool) {... */\n    tag_18:\n      tag_79\n      0x04\n      dup1\n      calldatasize\n      sub\n      dup2\n      add\n      swap1\n      tag_80\n      swap2\n      swap1\n      tag_24\n      jump\t// in\n    tag_80:\n      tag_81\n      jump\t// in\n    tag_79:\n      mload(0x40)\n      tag_82\n      swap2\n      swap1\n      tag_27\n      jump\t// in\n    tag_82:\n      mload(0x40)\n      dup1\n      swap2\n      sub\n      swap1\n      return\n        /* \"OnDemo/contracts/AccountManagement.sol\":7811:8198  function hasRightToCreateReferendum(address _address) external view returns (bool) {... */\n    tag_25:\n        /* \"OnDemo/contracts/AccountManagement.sol\":7888:7892  bool */\n      0x00\n        /* \"OnDemo/contracts/AccountManagement.sol\":7905:7921  User memory user */\n      dup1\n        /* \"OnDemo/contracts/AccountManagement.sol\":7924:7929  users */\n      0x02\n        /* \"OnDemo/contracts/AccountManagement.sol\":7924:7939  users[_address] */\n      0x00\n        /* \"OnDemo/contracts/AccountManagement.sol\":7930:7938  _address */\n      dup5\n        /* \"OnDemo/contracts/AccountManagement.sol\":7924:7939  users[_address] */\n      0xffffffffffffffffffffffffffffffffffffffff\n      and\n      0xffffffffffffffffffffffffffffffffffffffff\n      and\n      dup2\n      mstore\n      0x20\n      add\n      swap1\n      dup2\n      mstore\n      0x20\n      add\n      0x00\n      keccak256\n        /* \"OnDemo/contracts/AccountManagement.sol\":7905:7939  User memory user = users[_address] */\n      mload(0x40)\n      dup1\n      0xc0\n      add\n      0x40\n      mstore\n      swap1\n      dup2\n      0x00\n      dup3\n      add\n      0x00\n      swap1\n      sload\n      swap1\n      0x0100\n      exp\n      swap1\n      div\n      0xffffffffffffffffffffffffffffffffffffffff\n      and\n      0xffffffffffffffffffffffffffffffffffffffff\n      and\n      0xffffffffffffffffffffffffffffffffffffffff\n      and\n      dup2\n      mstore\n      0x20\n      add\n      0x01\n      dup3\n      add\n      dup1\n      sload\n      tag_84\n      swap1\n      tag_85\n      jump\t// in\n    tag_84:\n      dup1\n      0x1f\n      add\n      0x20\n      dup1\n      swap2\n      div\n      mul\n      0x20\n      add\n      mload(0x40)\n      swap1\n      dup2\n      add\n      0x40\n      mstore\n      dup1\n      swap3\n      swap2\n      swap1\n      dup2\n      dup2\n      mstore\n      0x20\n      add\n      dup3\n      dup1\n      sload\n      tag_86\n      swap1\n      tag_85\n      jump\t// in\n    tag_86:\n      dup1\n      iszero\n      tag_87\n      jumpi\n      dup1\n      0x1f\n      lt\n      tag_88\n      jumpi\n      0x0100\n      dup1\n      dup4\n      sload\n      div\n      mul\n      dup4\n      mstore\n      swap2\n      0x20\n      add\n      swap2\n      jump(tag_87)\n    tag_88:\n      dup3\n      add\n      swap2\n      swap1\n      0x00\n      mstore\n      keccak256(0x00, 0x20)\n      swap1\n    tag_89:\n      dup2\n      sload\n      dup2\n      mstore\n      swap1\n      0x01\n      add\n      swap1\n      0x20\n      add\n      dup1\n      dup4\n      gt\n      tag_89\n      jumpi\n      dup3\n      swap1\n      sub\n      0x1f\n      and\n      dup3\n      add\n      swap2\n    tag_87:\n      pop\n      pop\n      pop\n      pop\n      pop\n      dup2\n      mstore\n      0x20\n      add\n      0x02\n      dup3\n      add\n      dup1\n      sload\n      tag_90\n      swap1\n      tag_85\n      jump\t// in\n    tag_90:\n      dup1\n      0x1f\n      add\n      0x20\n      dup1\n      swap2\n      div\n      mul\n      0x20\n      add\n      mload(0x40)\n      swap1\n      dup2\n      add\n      0x40\n      mstore\n      dup1\n      swap3\n      swap2\n      swap1\n      dup2\n      dup2\n      mstore\n      0x20\n      add\n      dup3\n      dup1\n      sload\n      tag_91\n      swap1\n      tag_85\n      jump\t// in\n    tag_91:\n      dup1\n      iszero\n      tag_92\n      jumpi\n      dup1\n      0x1f\n      lt\n      tag_93\n      jumpi\n      0x0100\n      dup1\n      dup4\n      sload\n      div\n      mul\n      dup4\n      mstore\n      swap2\n      0x20\n      add\n      swap2\n      jump(tag_92)\n    tag_93:\n      dup3\n      add\n      swap2\n      swap1\n      0x00\n      mstore\n      keccak256(0x00, 0x20)\n      swap1\n    tag_94:\n      dup2\n      sload\n      dup2\n      mstore\n      swap1\n      0x01\n      add\n      swap1\n      0x20\n      add\n      dup1\n      dup4\n      gt\n      tag_94\n      jumpi\n      dup3\n      swap1\n      sub\n      0x1f\n      and\n      dup3\n      add\n      swap2\n    tag_92:\n      pop\n      pop\n      pop\n      pop\n      pop\n      dup2\n      mstore\n      0x20\n      add\n      0x03\n      dup3\n      add\n      dup1\n      sload\n      tag_95\n      swap1\n      tag_85\n      jump\t// in\n    tag_95:\n      dup1\n      0x1f\n      add\n      0x20\n      dup1\n      swap2\n      div\n      mul\n      0x20\n      add\n      mload(0x40)\n      swap1\n      dup2\n      add\n      0x40\n      mstore\n      dup1\n      swap3\n      swap2\n      swap1\n      dup2\n      dup2\n      mstore\n      0x20\n      add\n      dup3\n      dup1\n      sload\n      tag_96\n      swap1\n      tag_85\n      jump\t// in\n    tag_96:\n      dup1\n      iszero\n      tag_97\n      jumpi\n      dup1\n      0x1f\n      lt\n      tag_98\n      jumpi\n      0x0100\n      dup1\n      dup4\n      sload\n      div\n      mul\n      dup4\n      mstore\n      swap2\n      0x20\n      add\n      swap2\n      jump(tag_97)\n    tag_98:\n      dup3\n      add\n      swap2\n      swap1\n      0x00\n      mstore\n      keccak256(0x00, 0x20)\n      swap1\n    tag_99:\n      dup2\n      sload\n      dup2\n      mstore\n      swap1\n      0x01\n      add\n      swap1\n      0x20\n      add\n      dup1\n      dup4\n      gt\n      tag_99\n      jumpi\n      dup3\n      swap1\n      sub\n      0x1f\n      and\n      dup3\n      add\n      swap2\n    tag_97:\n      pop\n      pop\n      pop\n      pop\n      pop\n      dup2\n      mstore\n      0x20\n      add\n      0x04\n      dup3\n      add\n      0x00\n      swap1\n      sload\n      swap1\n      0x0100\n      exp\n      swap1\n      div\n      0xff\n      and\n      iszero\n      iszero\n      iszero\n      iszero\n      dup2\n      mstore\n      0x20\n      add\n      0x05\n      dup3\n      add\n      mload(0x40)\n      dup1\n      0x80\n      add\n      0x40\n      mstore\n      swap1\n      dup2\n      0x00\n      dup3\n      add\n      0x00\n      swap1\n      sload\n      swap1\n      0x0100\n      exp\n      swap1\n      div\n      0xff\n      and\n      iszero\n      iszero\n      iszero\n      iszero\n      dup2\n      mstore\n      0x20\n      add\n      0x00\n      dup3\n      add\n      0x01\n      swap1\n      sload\n      swap1\n      0x0100\n      exp\n      swap1\n      div\n      0xff\n      and\n      iszero\n      iszero\n      iszero\n      iszero\n      dup2\n      mstore\n      0x20\n      add\n      0x00\n      dup3\n      add\n      0x02\n      swap1\n      sload\n      swap1\n      0x0100\n      exp\n      swap1\n      div\n      0xff\n      and\n      iszero\n      iszero\n      iszero\n      iszero\n      dup2\n      mstore\n      0x20\n      add\n      0x00\n      dup3\n      add\n      0x03\n      swap1\n      sload\n      swap1\n      0x0100\n      exp\n      swap1\n      div\n      0xff\n      and\n      iszero\n      iszero\n      iszero\n      iszero\n      dup2\n      mstore\n      pop\n      pop\n      dup2\n      mstore\n      pop\n      pop\n      swap1\n      pop\n        /* \"OnDemo/contracts/AccountManagement.sol\":7981:7982  0 */\n      0x00\n        /* \"OnDemo/contracts/AccountManagement.sol\":7953:7983  user.userAddress != address(0) */\n      0xffffffffffffffffffffffffffffffffffffffff\n      and\n        /* \"OnDemo/contracts/AccountManagement.sol\":7953:7957  user */\n      dup2\n        /* \"OnDemo/contracts/AccountManagement.sol\":7953:7969  user.userAddress */\n      0x00\n      add\n      mload\n        /* \"OnDemo/contracts/AccountManagement.sol\":7953:7983  user.userAddress != address(0) */\n      0xffffffffffffffffffffffffffffffffffffffff\n      and\n      eq\n        /* \"OnDemo/contracts/AccountManagement.sol\":7950:8167  if(user.userAddress != address(0))... */\n      tag_100\n      jumpi\n        /* \"OnDemo/contracts/AccountManagement.sol\":8012:8016  user */\n      dup1\n        /* \"OnDemo/contracts/AccountManagement.sol\":8012:8025  user.isActive */\n      0x80\n      add\n      mload\n        /* \"OnDemo/contracts/AccountManagement.sol\":8012:8109  user.isActive && (user.roleMap.isLeader || user.roleMap.isCouncilMember || user.roleMap.isMember) */\n      dup1\n      iszero\n      tag_101\n      jumpi\n      pop\n        /* \"OnDemo/contracts/AccountManagement.sol\":8030:8034  user */\n      dup1\n        /* \"OnDemo/contracts/AccountManagement.sol\":8030:8042  user.roleMap */\n      0xa0\n      add\n      mload\n        /* \"OnDemo/contracts/AccountManagement.sol\":8030:8051  user.roleMap.isLeader */\n      0x00\n      add\n      mload\n        /* \"OnDemo/contracts/AccountManagement.sol\":8030:8083  user.roleMap.isLeader || user.roleMap.isCouncilMember */\n      dup1\n      tag_102\n      jumpi\n      pop\n        /* \"OnDemo/contracts/AccountManagement.sol\":8055:8059  user */\n      dup1\n        /* \"OnDemo/contracts/AccountManagement.sol\":8055:8067  user.roleMap */\n      0xa0\n      add\n      mload\n        /* \"OnDemo/contracts/AccountManagement.sol\":8055:8083  user.roleMap.isCouncilMember */\n      0x20\n      add\n      mload\n        /* \"OnDemo/contracts/AccountManagement.sol\":8030:8083  user.roleMap.isLeader || user.roleMap.isCouncilMember */\n    tag_102:\n        /* \"OnDemo/contracts/AccountManagement.sol\":8030:8108  user.roleMap.isLeader || user.roleMap.isCouncilMember || user.roleMap.isMember */\n      dup1\n      tag_103\n      jumpi\n      pop\n        /* \"OnDemo/contracts/AccountManagement.sol\":8087:8091  user */\n      dup1\n        /* \"OnDemo/contracts/AccountManagement.sol\":8087:8099  user.roleMap */\n      0xa0\n      add\n      mload\n        /* \"OnDemo/contracts/AccountManagement.sol\":8087:8108  user.roleMap.isMember */\n      0x40\n      add\n      mload\n        /* \"OnDemo/contracts/AccountManagement.sol\":8030:8108  user.roleMap.isLeader || user.roleMap.isCouncilMember || user.roleMap.isMember */\n    tag_103:\n        /* \"OnDemo/contracts/AccountManagement.sol\":8012:8109  user.isActive && (user.roleMap.isLeader || user.roleMap.isCouncilMember || user.roleMap.isMember) */\n    tag_101:\n        /* \"OnDemo/contracts/AccountManagement.sol\":8009:8156  if(user.isActive && (user.roleMap.isLeader || user.roleMap.isCouncilMember || user.roleMap.isMember)){... */\n      iszero\n      tag_104\n      jumpi\n        /* \"OnDemo/contracts/AccountManagement.sol\":8136:8140  true */\n      0x01\n        /* \"OnDemo/contracts/AccountManagement.sol\":8129:8140  return true */\n      swap2\n      pop\n      pop\n      jump(tag_83)\n        /* \"OnDemo/contracts/AccountManagement.sol\":8009:8156  if(user.isActive && (user.roleMap.isLeader || user.roleMap.isCouncilMember || user.roleMap.isMember)){... */\n    tag_104:\n        /* \"OnDemo/contracts/AccountManagement.sol\":7950:8167  if(user.userAddress != address(0))... */\n    tag_100:\n        /* \"OnDemo/contracts/AccountManagement.sol\":8185:8190  false */\n      0x00\n        /* \"OnDemo/contracts/AccountManagement.sol\":8177:8190  return  false */\n      swap2\n      pop\n      pop\n        /* \"OnDemo/contracts/AccountManagement.sol\":7811:8198  function hasRightToCreateReferendum(address _address) external view returns (bool) {... */\n    tag_83:\n      swap2\n      swap1\n      pop\n      jump\t// out\n        /* \"OnDemo/contracts/AccountManagement.sol\":7293:7417  function hasMemberRole(address _address) public view returns (bool) {... */\n    tag_30:\n        /* \"OnDemo/contracts/AccountManagement.sol\":7355:7359  bool */\n      0x00\n        /* \"OnDemo/contracts/AccountManagement.sol\":7379:7409  hasRole(_address, Role.MEMBER) */\n      tag_106\n        /* \"OnDemo/contracts/AccountManagement.sol\":7387:7395  _address */\n      dup3\n        /* \"OnDemo/contracts/AccountManagement.sol\":7397:7408  Role.MEMBER */\n      0x02\n        /* \"OnDemo/contracts/AccountManagement.sol\":7379:7386  hasRole */\n      tag_107\n        /* \"OnDemo/contracts/AccountManagement.sol\":7379:7409  hasRole(_address, Role.MEMBER) */\n      jump\t// in\n    tag_106:\n        /* \"OnDemo/contracts/AccountManagement.sol\":7372:7409  return hasRole(_address, Role.MEMBER) */\n      swap1\n      pop\n        /* \"OnDemo/contracts/AccountManagement.sol\":7293:7417  function hasMemberRole(address _address) public view returns (bool) {... */\n      swap2\n      swap1\n      pop\n      jump\t// out\n        /* \"OnDemo/contracts/AccountManagement.sol\":7701:7803  function getActiveMemberCount() public view returns (uint) {... */\n    tag_33:\n        /* \"OnDemo/contracts/AccountManagement.sol\":7754:7758  uint */\n      0x00\n        /* \"OnDemo/contracts/AccountManagement.sol\":7778:7795  activeMemberCount */\n      dup1\n      sload\n        /* \"OnDemo/contracts/AccountManagement.sol\":7771:7795  return activeMemberCount */\n      swap1\n      pop\n        /* \"OnDemo/contracts/AccountManagement.sol\":7701:7803  function getActiveMemberCount() public view returns (uint) {... */\n      swap1\n      jump\t// out\n        /* \"OnDemo/contracts/AccountManagement.sol\":7011:7135  function hasLeaderRole(address _address) public view returns (bool) {... */\n    tag_38:\n        /* \"OnDemo/contracts/AccountManagement.sol\":7073:7077  bool */\n      0x00\n        /* \"OnDemo/contracts/AccountManagement.sol\":7097:7127  hasRole(_address, Role.LEADER) */\n      tag_110\n        /* \"OnDemo/contracts/AccountManagement.sol\":7105:7113  _address */\n      dup3\n        /* \"OnDemo/contracts/AccountManagement.sol\":7115:7126  Role.LEADER */\n      0x00\n        /* \"OnDemo/contracts/AccountManagement.sol\":7097:7104  hasRole */\n      tag_107\n        /* \"OnDemo/contracts/AccountManagement.sol\":7097:7127  hasRole(_address, Role.LEADER) */\n      jump\t// in\n    tag_110:\n        /* \"OnDemo/contracts/AccountManagement.sol\":7090:7127  return hasRole(_address, Role.LEADER) */\n      swap1\n      pop\n        /* \"OnDemo/contracts/AccountManagement.sol\":7011:7135  function hasLeaderRole(address _address) public view returns (bool) {... */\n      swap2\n      swap1\n      pop\n      jump\t// out\n        /* \"OnDemo/contracts/AccountManagement.sol\":3249:3610  function makeAccountPassive(address _address) public userExists(_address){... */\n    tag_42:\n        /* \"OnDemo/contracts/AccountManagement.sol\":3313:3321  _address */\n      dup1\n        /* \"OnDemo/contracts/AccountManagement.sol\":2006:2007  0 */\n      0x00\n        /* \"OnDemo/contracts/AccountManagement.sol\":1967:2008  users[_address].userAddress != address(0) */\n      0xffffffffffffffffffffffffffffffffffffffff\n      and\n        /* \"OnDemo/contracts/AccountManagement.sol\":1967:1972  users */\n      0x02\n        /* \"OnDemo/contracts/AccountManagement.sol\":1967:1982  users[_address] */\n      0x00\n        /* \"OnDemo/contracts/AccountManagement.sol\":1973:1981  _address */\n      dup4\n        /* \"OnDemo/contracts/AccountManagement.sol\":1967:1982  users[_address] */\n      0xffffffffffffffffffffffffffffffffffffffff\n      and\n      0xffffffffffffffffffffffffffffffffffffffff\n      and\n      dup2\n      mstore\n      0x20\n      add\n      swap1\n      dup2\n      mstore\n      0x20\n      add\n      0x00\n      keccak256\n        /* \"OnDemo/contracts/AccountManagement.sol\":1967:1994  users[_address].userAddress */\n      0x00\n      add\n      0x00\n      swap1\n      sload\n      swap1\n      0x0100\n      exp\n      swap1\n      div\n      0xffffffffffffffffffffffffffffffffffffffff\n      and\n        /* \"OnDemo/contracts/AccountManagement.sol\":1967:2008  users[_address].userAddress != address(0) */\n      0xffffffffffffffffffffffffffffffffffffffff\n      and\n      eq\n      iszero\n        /* \"OnDemo/contracts/AccountManagement.sol\":1959:2034  require(users[_address].userAddress != address(0), \"Account doesn't exist\") */\n      tag_112\n      jumpi\n      mload(0x40)\n      0x08c379a000000000000000000000000000000000000000000000000000000000\n      dup2\n      mstore\n      0x04\n      add\n      tag_113\n      swap1\n      tag_114\n      jump\t// in\n    tag_113:\n      mload(0x40)\n      dup1\n      swap2\n      sub\n      swap1\n      revert\n    tag_112:\n        /* \"OnDemo/contracts/AccountManagement.sol\":3336:3349  activeMembers */\n      0x03\n        /* \"OnDemo/contracts/AccountManagement.sol\":3336:3359  activeMembers[_address] */\n      0x00\n        /* \"OnDemo/contracts/AccountManagement.sol\":3350:3358  _address */\n      dup4\n        /* \"OnDemo/contracts/AccountManagement.sol\":3336:3359  activeMembers[_address] */\n      0xffffffffffffffffffffffffffffffffffffffff\n      and\n      0xffffffffffffffffffffffffffffffffffffffff\n      and\n      dup2\n      mstore\n      0x20\n      add\n      swap1\n      dup2\n      mstore\n      0x20\n      add\n      0x00\n      keccak256\n      0x00\n      swap1\n      sload\n      swap1\n      0x0100\n      exp\n      swap1\n      div\n      0xff\n      and\n        /* \"OnDemo/contracts/AccountManagement.sol\":3333:3590  if(activeMembers[_address]){... */\n      iszero\n      tag_116\n      jumpi\n        /* \"OnDemo/contracts/AccountManagement.sol\":3375:3392  User storage user */\n      0x00\n        /* \"OnDemo/contracts/AccountManagement.sol\":3395:3400  users */\n      0x02\n        /* \"OnDemo/contracts/AccountManagement.sol\":3395:3410  users[_address] */\n      0x00\n        /* \"OnDemo/contracts/AccountManagement.sol\":3401:3409  _address */\n      dup5\n        /* \"OnDemo/contracts/AccountManagement.sol\":3395:3410  users[_address] */\n      0xffffffffffffffffffffffffffffffffffffffff\n      and\n      0xffffffffffffffffffffffffffffffffffffffff\n      and\n      dup2\n      mstore\n      0x20\n      add\n      swap1\n      dup2\n      mstore\n      0x20\n      add\n      0x00\n      keccak256\n        /* \"OnDemo/contracts/AccountManagement.sol\":3375:3410  User storage user = users[_address] */\n      swap1\n      pop\n        /* \"OnDemo/contracts/AccountManagement.sol\":3441:3446  false */\n      0x00\n        /* \"OnDemo/contracts/AccountManagement.sol\":3425:3429  user */\n      dup2\n        /* \"OnDemo/contracts/AccountManagement.sol\":3425:3438  user.isActive */\n      0x04\n      add\n      0x00\n        /* \"OnDemo/contracts/AccountManagement.sol\":3425:3446  user.isActive = false */\n      0x0100\n      exp\n      dup2\n      sload\n      dup2\n      0xff\n      mul\n      not\n      and\n      swap1\n      dup4\n      iszero\n      iszero\n      mul\n      or\n      swap1\n      sstore\n      pop\n        /* \"OnDemo/contracts/AccountManagement.sol\":3539:3544  false */\n      0x00\n        /* \"OnDemo/contracts/AccountManagement.sol\":3513:3526  activeMembers */\n      0x03\n        /* \"OnDemo/contracts/AccountManagement.sol\":3513:3536  activeMembers[_address] */\n      0x00\n        /* \"OnDemo/contracts/AccountManagement.sol\":3527:3535  _address */\n      dup6\n        /* \"OnDemo/contracts/AccountManagement.sol\":3513:3536  activeMembers[_address] */\n      0xffffffffffffffffffffffffffffffffffffffff\n      and\n      0xffffffffffffffffffffffffffffffffffffffff\n      and\n      dup2\n      mstore\n      0x20\n      add\n      swap1\n      dup2\n      mstore\n      0x20\n      add\n      0x00\n      keccak256\n      0x00\n        /* \"OnDemo/contracts/AccountManagement.sol\":3513:3544  activeMembers[_address] = false */\n      0x0100\n      exp\n      dup2\n      sload\n      dup2\n      0xff\n      mul\n      not\n      and\n      swap1\n      dup4\n      iszero\n      iszero\n      mul\n      or\n      swap1\n      sstore\n      pop\n        /* \"OnDemo/contracts/AccountManagement.sol\":3559:3576  activeMemberCount */\n      0x00\n      dup1\n        /* \"OnDemo/contracts/AccountManagement.sol\":3559:3578  activeMemberCount-- */\n      dup2\n      sload\n      dup1\n      swap3\n      swap2\n      swap1\n      tag_117\n      swap1\n      tag_118\n      jump\t// in\n    tag_117:\n      swap2\n      swap1\n      pop\n      sstore\n      pop\n        /* \"OnDemo/contracts/AccountManagement.sol\":3360:3590  {... */\n      pop\n        /* \"OnDemo/contracts/AccountManagement.sol\":3333:3590  if(activeMembers[_address]){... */\n    tag_116:\n        /* \"OnDemo/contracts/AccountManagement.sol\":3249:3610  function makeAccountPassive(address _address) public userExists(_address){... */\n      pop\n      pop\n      jump\t// out\n        /* \"OnDemo/contracts/AccountManagement.sol\":832:861  uint public activeMemberCount */\n    tag_44:\n      sload(0x00)\n      dup2\n      jump\t// out\n        /* \"OnDemo/contracts/AccountManagement.sol\":3924:4487  function assignRole(address _address, Role _role) public onlyLeader userExists(_address){... */\n    tag_49:\n        /* \"OnDemo/contracts/AccountManagement.sol\":1810:1815  owner */\n      0x01\n      0x00\n      swap1\n      sload\n      swap1\n      0x0100\n      exp\n      swap1\n      div\n      0xffffffffffffffffffffffffffffffffffffffff\n      and\n        /* \"OnDemo/contracts/AccountManagement.sol\":1796:1815  msg.sender == owner */\n      0xffffffffffffffffffffffffffffffffffffffff\n      and\n        /* \"OnDemo/contracts/AccountManagement.sol\":1796:1806  msg.sender */\n      caller\n        /* \"OnDemo/contracts/AccountManagement.sol\":1796:1815  msg.sender == owner */\n      0xffffffffffffffffffffffffffffffffffffffff\n      and\n      eq\n        /* \"OnDemo/contracts/AccountManagement.sol\":1796:1844  msg.sender == owner || hasLeaderRole(msg.sender) */\n      dup1\n      tag_120\n      jumpi\n      pop\n        /* \"OnDemo/contracts/AccountManagement.sol\":1819:1844  hasLeaderRole(msg.sender) */\n      tag_121\n        /* \"OnDemo/contracts/AccountManagement.sol\":1833:1843  msg.sender */\n      caller\n        /* \"OnDemo/contracts/AccountManagement.sol\":1819:1832  hasLeaderRole */\n      tag_38\n        /* \"OnDemo/contracts/AccountManagement.sol\":1819:1844  hasLeaderRole(msg.sender) */\n      jump\t// in\n    tag_121:\n        /* \"OnDemo/contracts/AccountManagement.sol\":1796:1844  msg.sender == owner || hasLeaderRole(msg.sender) */\n    tag_120:\n        /* \"OnDemo/contracts/AccountManagement.sol\":1788:1883  require(msg.sender == owner || hasLeaderRole(msg.sender), \"Only owner can call this function.\") */\n      tag_122\n      jumpi\n      mload(0x40)\n      0x08c379a000000000000000000000000000000000000000000000000000000000\n      dup2\n      mstore\n      0x04\n      add\n      tag_123\n      swap1\n      tag_124\n      jump\t// in\n    tag_123:\n      mload(0x40)\n      dup1\n      swap2\n      sub\n      swap1\n      revert\n    tag_122:\n        /* \"OnDemo/contracts/AccountManagement.sol\":4003:4011  _address */\n      dup2\n        /* \"OnDemo/contracts/AccountManagement.sol\":2006:2007  0 */\n      0x00\n        /* \"OnDemo/contracts/AccountManagement.sol\":1967:2008  users[_address].userAddress != address(0) */\n      0xffffffffffffffffffffffffffffffffffffffff\n      and\n        /* \"OnDemo/contracts/AccountManagement.sol\":1967:1972  users */\n      0x02\n        /* \"OnDemo/contracts/AccountManagement.sol\":1967:1982  users[_address] */\n      0x00\n        /* \"OnDemo/contracts/AccountManagement.sol\":1973:1981  _address */\n      dup4\n        /* \"OnDemo/contracts/AccountManagement.sol\":1967:1982  users[_address] */\n      0xffffffffffffffffffffffffffffffffffffffff\n      and\n      0xffffffffffffffffffffffffffffffffffffffff\n      and\n      dup2\n      mstore\n      0x20\n      add\n      swap1\n      dup2\n      mstore\n      0x20\n      add\n      0x00\n      keccak256\n        /* \"OnDemo/contracts/AccountManagement.sol\":1967:1994  users[_address].userAddress */\n      0x00\n      add\n      0x00\n      swap1\n      sload\n      swap1\n      0x0100\n      exp\n      swap1\n      div\n      0xffffffffffffffffffffffffffffffffffffffff\n      and\n        /* \"OnDemo/contracts/AccountManagement.sol\":1967:2008  users[_address].userAddress != address(0) */\n      0xffffffffffffffffffffffffffffffffffffffff\n      and\n      eq\n      iszero\n        /* \"OnDemo/contracts/AccountManagement.sol\":1959:2034  require(users[_address].userAddress != address(0), \"Account doesn't exist\") */\n      tag_126\n      jumpi\n      mload(0x40)\n      0x08c379a000000000000000000000000000000000000000000000000000000000\n      dup2\n      mstore\n      0x04\n      add\n      tag_127\n      swap1\n      tag_114\n      jump\t// in\n    tag_127:\n      mload(0x40)\n      dup1\n      swap2\n      sub\n      swap1\n      revert\n    tag_126:\n        /* \"OnDemo/contracts/AccountManagement.sol\":4023:4040  User storage user */\n      0x00\n        /* \"OnDemo/contracts/AccountManagement.sol\":4043:4048  users */\n      0x02\n        /* \"OnDemo/contracts/AccountManagement.sol\":4043:4058  users[_address] */\n      0x00\n        /* \"OnDemo/contracts/AccountManagement.sol\":4049:4057  _address */\n      dup6\n        /* \"OnDemo/contracts/AccountManagement.sol\":4043:4058  users[_address] */\n      0xffffffffffffffffffffffffffffffffffffffff\n      and\n      0xffffffffffffffffffffffffffffffffffffffff\n      and\n      dup2\n      mstore\n      0x20\n      add\n      swap1\n      dup2\n      mstore\n      0x20\n      add\n      0x00\n      keccak256\n        /* \"OnDemo/contracts/AccountManagement.sol\":4023:4058  User storage user = users[_address] */\n      swap1\n      pop\n        /* \"OnDemo/contracts/AccountManagement.sol\":4069:4092  RoleMap storage roleMap */\n      0x00\n        /* \"OnDemo/contracts/AccountManagement.sol\":4095:4099  user */\n      dup2\n        /* \"OnDemo/contracts/AccountManagement.sol\":4095:4107  user.roleMap */\n      0x05\n      add\n        /* \"OnDemo/contracts/AccountManagement.sol\":4069:4107  RoleMap storage roleMap = user.roleMap */\n      swap1\n      pop\n        /* \"OnDemo/contracts/AccountManagement.sol\":4132:4143  Role.LEADER */\n      0x00\n        /* \"OnDemo/contracts/AccountManagement.sol\":4123:4143  _role == Role.LEADER */\n      0x03\n      dup2\n      gt\n      iszero\n      tag_129\n      jumpi\n      tag_130\n      tag_131\n      jump\t// in\n    tag_130:\n    tag_129:\n        /* \"OnDemo/contracts/AccountManagement.sol\":4123:4128  _role */\n      dup5\n        /* \"OnDemo/contracts/AccountManagement.sol\":4123:4143  _role == Role.LEADER */\n      0x03\n      dup2\n      gt\n      iszero\n      tag_132\n      jumpi\n      tag_133\n      tag_131\n      jump\t// in\n    tag_133:\n    tag_132:\n      eq\n        /* \"OnDemo/contracts/AccountManagement.sol\":4120:4480  if(_role == Role.LEADER){... */\n      iszero\n      tag_134\n      jumpi\n        /* \"OnDemo/contracts/AccountManagement.sol\":4178:4182  true */\n      0x01\n        /* \"OnDemo/contracts/AccountManagement.sol\":4159:4166  roleMap */\n      dup2\n        /* \"OnDemo/contracts/AccountManagement.sol\":4159:4175  roleMap.isLeader */\n      0x00\n      add\n      0x00\n        /* \"OnDemo/contracts/AccountManagement.sol\":4159:4182  roleMap.isLeader = true */\n      0x0100\n      exp\n      dup2\n      sload\n      dup2\n      0xff\n      mul\n      not\n      and\n      swap1\n      dup4\n      iszero\n      iszero\n      mul\n      or\n      swap1\n      sstore\n      pop\n        /* \"OnDemo/contracts/AccountManagement.sol\":4120:4480  if(_role == Role.LEADER){... */\n      jump(tag_135)\n    tag_134:\n        /* \"OnDemo/contracts/AccountManagement.sol\":4221:4239  Role.COUNCILMEMBER */\n      0x01\n        /* \"OnDemo/contracts/AccountManagement.sol\":4212:4239  _role == Role.COUNCILMEMBER */\n      0x03\n      dup2\n      gt\n      iszero\n      tag_136\n      jumpi\n      tag_137\n      tag_131\n      jump\t// in\n    tag_137:\n    tag_136:\n        /* \"OnDemo/contracts/AccountManagement.sol\":4212:4217  _role */\n      dup5\n        /* \"OnDemo/contracts/AccountManagement.sol\":4212:4239  _role == Role.COUNCILMEMBER */\n      0x03\n      dup2\n      gt\n      iszero\n      tag_138\n      jumpi\n      tag_139\n      tag_131\n      jump\t// in\n    tag_139:\n    tag_138:\n      eq\n        /* \"OnDemo/contracts/AccountManagement.sol\":4209:4480  if(_role == Role.COUNCILMEMBER){... */\n      iszero\n      tag_140\n      jumpi\n        /* \"OnDemo/contracts/AccountManagement.sol\":4281:4285  true */\n      0x01\n        /* \"OnDemo/contracts/AccountManagement.sol\":4255:4262  roleMap */\n      dup2\n        /* \"OnDemo/contracts/AccountManagement.sol\":4255:4278  roleMap.isCouncilMember */\n      0x00\n      add\n      0x01\n        /* \"OnDemo/contracts/AccountManagement.sol\":4255:4285  roleMap.isCouncilMember = true */\n      0x0100\n      exp\n      dup2\n      sload\n      dup2\n      0xff\n      mul\n      not\n      and\n      swap1\n      dup4\n      iszero\n      iszero\n      mul\n      or\n      swap1\n      sstore\n      pop\n        /* \"OnDemo/contracts/AccountManagement.sol\":4209:4480  if(_role == Role.COUNCILMEMBER){... */\n      jump(tag_141)\n    tag_140:\n        /* \"OnDemo/contracts/AccountManagement.sol\":4331:4342  Role.MEMBER */\n      0x02\n        /* \"OnDemo/contracts/AccountManagement.sol\":4322:4342  _role == Role.MEMBER */\n      0x03\n      dup2\n      gt\n      iszero\n      tag_142\n      jumpi\n      tag_143\n      tag_131\n      jump\t// in\n    tag_143:\n    tag_142:\n        /* \"OnDemo/contracts/AccountManagement.sol\":4322:4327  _role */\n      dup5\n        /* \"OnDemo/contracts/AccountManagement.sol\":4322:4342  _role == Role.MEMBER */\n      0x03\n      dup2\n      gt\n      iszero\n      tag_144\n      jumpi\n      tag_145\n      tag_131\n      jump\t// in\n    tag_145:\n    tag_144:\n      eq\n        /* \"OnDemo/contracts/AccountManagement.sol\":4319:4480  if(_role == Role.MEMBER){... */\n      iszero\n      tag_146\n      jumpi\n        /* \"OnDemo/contracts/AccountManagement.sol\":4377:4381  true */\n      0x01\n        /* \"OnDemo/contracts/AccountManagement.sol\":4358:4365  roleMap */\n      dup2\n        /* \"OnDemo/contracts/AccountManagement.sol\":4358:4374  roleMap.isMember */\n      0x00\n      add\n      0x02\n        /* \"OnDemo/contracts/AccountManagement.sol\":4358:4381  roleMap.isMember = true */\n      0x0100\n      exp\n      dup2\n      sload\n      dup2\n      0xff\n      mul\n      not\n      and\n      swap1\n      dup4\n      iszero\n      iszero\n      mul\n      or\n      swap1\n      sstore\n      pop\n        /* \"OnDemo/contracts/AccountManagement.sol\":4319:4480  if(_role == Role.MEMBER){... */\n      jump(tag_147)\n    tag_146:\n        /* \"OnDemo/contracts/AccountManagement.sol\":4420:4430  Role.GUEST */\n      0x03\n        /* \"OnDemo/contracts/AccountManagement.sol\":4411:4430  _role == Role.GUEST */\n      dup1\n      dup2\n      gt\n      iszero\n      tag_148\n      jumpi\n      tag_149\n      tag_131\n      jump\t// in\n    tag_149:\n    tag_148:\n        /* \"OnDemo/contracts/AccountManagement.sol\":4411:4416  _role */\n      dup5\n        /* \"OnDemo/contracts/AccountManagement.sol\":4411:4430  _role == Role.GUEST */\n      0x03\n      dup2\n      gt\n      iszero\n      tag_150\n      jumpi\n      tag_151\n      tag_131\n      jump\t// in\n    tag_151:\n    tag_150:\n      eq\n        /* \"OnDemo/contracts/AccountManagement.sol\":4408:4480  if(_role == Role.GUEST){... */\n      iszero\n      tag_152\n      jumpi\n        /* \"OnDemo/contracts/AccountManagement.sol\":4464:4468  true */\n      0x01\n        /* \"OnDemo/contracts/AccountManagement.sol\":4446:4453  roleMap */\n      dup2\n        /* \"OnDemo/contracts/AccountManagement.sol\":4446:4461  roleMap.isGuest */\n      0x00\n      add\n      0x03\n        /* \"OnDemo/contracts/AccountManagement.sol\":4446:4468  roleMap.isGuest = true */\n      0x0100\n      exp\n      dup2\n      sload\n      dup2\n      0xff\n      mul\n      not\n      and\n      swap1\n      dup4\n      iszero\n      iszero\n      mul\n      or\n      swap1\n      sstore\n      pop\n        /* \"OnDemo/contracts/AccountManagement.sol\":4408:4480  if(_role == Role.GUEST){... */\n    tag_152:\n        /* \"OnDemo/contracts/AccountManagement.sol\":4319:4480  if(_role == Role.MEMBER){... */\n    tag_147:\n        /* \"OnDemo/contracts/AccountManagement.sol\":4209:4480  if(_role == Role.COUNCILMEMBER){... */\n    tag_141:\n        /* \"OnDemo/contracts/AccountManagement.sol\":4120:4480  if(_role == Role.LEADER){... */\n    tag_135:\n        /* \"OnDemo/contracts/AccountManagement.sol\":4012:4487  {... */\n      pop\n      pop\n        /* \"OnDemo/contracts/AccountManagement.sol\":1894:1895  _ */\n      pop\n        /* \"OnDemo/contracts/AccountManagement.sol\":3924:4487  function assignRole(address _address, Role _role) public onlyLeader userExists(_address){... */\n      pop\n      pop\n      jump\t// out\n        /* \"OnDemo/contracts/AccountManagement.sol\":8206:8581  function hasRightToVote(address _address) external view returns (bool) {... */\n    tag_52:\n        /* \"OnDemo/contracts/AccountManagement.sol\":8271:8275  bool */\n      0x00\n        /* \"OnDemo/contracts/AccountManagement.sol\":8288:8304  User memory user */\n      dup1\n        /* \"OnDemo/contracts/AccountManagement.sol\":8307:8312  users */\n      0x02\n        /* \"OnDemo/contracts/AccountManagement.sol\":8307:8322  users[_address] */\n      0x00\n        /* \"OnDemo/contracts/AccountManagement.sol\":8313:8321  _address */\n      dup5\n        /* \"OnDemo/contracts/AccountManagement.sol\":8307:8322  users[_address] */\n      0xffffffffffffffffffffffffffffffffffffffff\n      and\n      0xffffffffffffffffffffffffffffffffffffffff\n      and\n      dup2\n      mstore\n      0x20\n      add\n      swap1\n      dup2\n      mstore\n      0x20\n      add\n      0x00\n      keccak256\n        /* \"OnDemo/contracts/AccountManagement.sol\":8288:8322  User memory user = users[_address] */\n      mload(0x40)\n      dup1\n      0xc0\n      add\n      0x40\n      mstore\n      swap1\n      dup2\n      0x00\n      dup3\n      add\n      0x00\n      swap1\n      sload\n      swap1\n      0x0100\n      exp\n      swap1\n      div\n      0xffffffffffffffffffffffffffffffffffffffff\n      and\n      0xffffffffffffffffffffffffffffffffffffffff\n      and\n      0xffffffffffffffffffffffffffffffffffffffff\n      and\n      dup2\n      mstore\n      0x20\n      add\n      0x01\n      dup3\n      add\n      dup1\n      sload\n      tag_154\n      swap1\n      tag_85\n      jump\t// in\n    tag_154:\n      dup1\n      0x1f\n      add\n      0x20\n      dup1\n      swap2\n      div\n      mul\n      0x20\n      add\n      mload(0x40)\n      swap1\n      dup2\n      add\n      0x40\n      mstore\n      dup1\n      swap3\n      swap2\n      swap1\n      dup2\n      dup2\n      mstore\n      0x20\n      add\n      dup3\n      dup1\n      sload\n      tag_155\n      swap1\n      tag_85\n      jump\t// in\n    tag_155:\n      dup1\n      iszero\n      tag_156\n      jumpi\n      dup1\n      0x1f\n      lt\n      tag_157\n      jumpi\n      0x0100\n      dup1\n      dup4\n      sload\n      div\n      mul\n      dup4\n      mstore\n      swap2\n      0x20\n      add\n      swap2\n      jump(tag_156)\n    tag_157:\n      dup3\n      add\n      swap2\n      swap1\n      0x00\n      mstore\n      keccak256(0x00, 0x20)\n      swap1\n    tag_158:\n      dup2\n      sload\n      dup2\n      mstore\n      swap1\n      0x01\n      add\n      swap1\n      0x20\n      add\n      dup1\n      dup4\n      gt\n      tag_158\n      jumpi\n      dup3\n      swap1\n      sub\n      0x1f\n      and\n      dup3\n      add\n      swap2\n    tag_156:\n      pop\n      pop\n      pop\n      pop\n      pop\n      dup2\n      mstore\n      0x20\n      add\n      0x02\n      dup3\n      add\n      dup1\n      sload\n      tag_159\n      swap1\n      tag_85\n      jump\t// in\n    tag_159:\n      dup1\n      0x1f\n      add\n      0x20\n      dup1\n      swap2\n      div\n      mul\n      0x20\n      add\n      mload(0x40)\n      swap1\n      dup2\n      add\n      0x40\n      mstore\n      dup1\n      swap3\n      swap2\n      swap1\n      dup2\n      dup2\n      mstore\n      0x20\n      add\n      dup3\n      dup1\n      sload\n      tag_160\n      swap1\n      tag_85\n      jump\t// in\n    tag_160:\n      dup1\n      iszero\n      tag_161\n      jumpi\n      dup1\n      0x1f\n      lt\n      tag_162\n      jumpi\n      0x0100\n      dup1\n      dup4\n      sload\n      div\n      mul\n      dup4\n      mstore\n      swap2\n      0x20\n      add\n      swap2\n      jump(tag_161)\n    tag_162:\n      dup3\n      add\n      swap2\n      swap1\n      0x00\n      mstore\n      keccak256(0x00, 0x20)\n      swap1\n    tag_163:\n      dup2\n      sload\n      dup2\n      mstore\n      swap1\n      0x01\n      add\n      swap1\n      0x20\n      add\n      dup1\n      dup4\n      gt\n      tag_163\n      jumpi\n      dup3\n      swap1\n      sub\n      0x1f\n      and\n      dup3\n      add\n      swap2\n    tag_161:\n      pop\n      pop\n      pop\n      pop\n      pop\n      dup2\n      mstore\n      0x20\n      add\n      0x03\n      dup3\n      add\n      dup1\n      sload\n      tag_164\n      swap1\n      tag_85\n      jump\t// in\n    tag_164:\n      dup1\n      0x1f\n      add\n      0x20\n      dup1\n      swap2\n      div\n      mul\n      0x20\n      add\n      mload(0x40)\n      swap1\n      dup2\n      add\n      0x40\n      mstore\n      dup1\n      swap3\n      swap2\n      swap1\n      dup2\n      dup2\n      mstore\n      0x20\n      add\n      dup3\n      dup1\n      sload\n      tag_165\n      swap1\n      tag_85\n      jump\t// in\n    tag_165:\n      dup1\n      iszero\n      tag_166\n      jumpi\n      dup1\n      0x1f\n      lt\n      tag_167\n      jumpi\n      0x0100\n      dup1\n      dup4\n      sload\n      div\n      mul\n      dup4\n      mstore\n      swap2\n      0x20\n      add\n      swap2\n      jump(tag_166)\n    tag_167:\n      dup3\n      add\n      swap2\n      swap1\n      0x00\n      mstore\n      keccak256(0x00, 0x20)\n      swap1\n    tag_168:\n      dup2\n      sload\n      dup2\n      mstore\n      swap1\n      0x01\n      add\n      swap1\n      0x20\n      add\n      dup1\n      dup4\n      gt\n      tag_168\n      jumpi\n      dup3\n      swap1\n      sub\n      0x1f\n      and\n      dup3\n      add\n      swap2\n    tag_166:\n      pop\n      pop\n      pop\n      pop\n      pop\n      dup2\n      mstore\n      0x20\n      add\n      0x04\n      dup3\n      add\n      0x00\n      swap1\n      sload\n      swap1\n      0x0100\n      exp\n      swap1\n      div\n      0xff\n      and\n      iszero\n      iszero\n      iszero\n      iszero\n      dup2\n      mstore\n      0x20\n      add\n      0x05\n      dup3\n      add\n      mload(0x40)\n      dup1\n      0x80\n      add\n      0x40\n      mstore\n      swap1\n      dup2\n      0x00\n      dup3\n      add\n      0x00\n      swap1\n      sload\n      swap1\n      0x0100\n      exp\n      swap1\n      div\n      0xff\n      and\n      iszero\n      iszero\n      iszero\n      iszero\n      dup2\n      mstore\n      0x20\n      add\n      0x00\n      dup3\n      add\n      0x01\n      swap1\n      sload\n      swap1\n      0x0100\n      exp\n      swap1\n      div\n      0xff\n      and\n      iszero\n      iszero\n      iszero\n      iszero\n      dup2\n      mstore\n      0x20\n      add\n      0x00\n      dup3\n      add\n      0x02\n      swap1\n      sload\n      swap1\n      0x0100\n      exp\n      swap1\n      div\n      0xff\n      and\n      iszero\n      iszero\n      iszero\n      iszero\n      dup2\n      mstore\n      0x20\n      add\n      0x00\n      dup3\n      add\n      0x03\n      swap1\n      sload\n      swap1\n      0x0100\n      exp\n      swap1\n      div\n      0xff\n      and\n      iszero\n      iszero\n      iszero\n      iszero\n      dup2\n      mstore\n      pop\n      pop\n      dup2\n      mstore\n      pop\n      pop\n      swap1\n      pop\n        /* \"OnDemo/contracts/AccountManagement.sol\":8364:8365  0 */\n      0x00\n        /* \"OnDemo/contracts/AccountManagement.sol\":8336:8366  user.userAddress != address(0) */\n      0xffffffffffffffffffffffffffffffffffffffff\n      and\n        /* \"OnDemo/contracts/AccountManagement.sol\":8336:8340  user */\n      dup2\n        /* \"OnDemo/contracts/AccountManagement.sol\":8336:8352  user.userAddress */\n      0x00\n      add\n      mload\n        /* \"OnDemo/contracts/AccountManagement.sol\":8336:8366  user.userAddress != address(0) */\n      0xffffffffffffffffffffffffffffffffffffffff\n      and\n      eq\n        /* \"OnDemo/contracts/AccountManagement.sol\":8333:8550  if(user.userAddress != address(0))... */\n      tag_169\n      jumpi\n        /* \"OnDemo/contracts/AccountManagement.sol\":8395:8399  user */\n      dup1\n        /* \"OnDemo/contracts/AccountManagement.sol\":8395:8408  user.isActive */\n      0x80\n      add\n      mload\n        /* \"OnDemo/contracts/AccountManagement.sol\":8395:8492  user.isActive && (user.roleMap.isLeader || user.roleMap.isCouncilMember || user.roleMap.isMember) */\n      dup1\n      iszero\n      tag_170\n      jumpi\n      pop\n        /* \"OnDemo/contracts/AccountManagement.sol\":8413:8417  user */\n      dup1\n        /* \"OnDemo/contracts/AccountManagement.sol\":8413:8425  user.roleMap */\n      0xa0\n      add\n      mload\n        /* \"OnDemo/contracts/AccountManagement.sol\":8413:8434  user.roleMap.isLeader */\n      0x00\n      add\n      mload\n        /* \"OnDemo/contracts/AccountManagement.sol\":8413:8466  user.roleMap.isLeader || user.roleMap.isCouncilMember */\n      dup1\n      tag_171\n      jumpi\n      pop\n        /* \"OnDemo/contracts/AccountManagement.sol\":8438:8442  user */\n      dup1\n        /* \"OnDemo/contracts/AccountManagement.sol\":8438:8450  user.roleMap */\n      0xa0\n      add\n      mload\n        /* \"OnDemo/contracts/AccountManagement.sol\":8438:8466  user.roleMap.isCouncilMember */\n      0x20\n      add\n      mload\n        /* \"OnDemo/contracts/AccountManagement.sol\":8413:8466  user.roleMap.isLeader || user.roleMap.isCouncilMember */\n    tag_171:\n        /* \"OnDemo/contracts/AccountManagement.sol\":8413:8491  user.roleMap.isLeader || user.roleMap.isCouncilMember || user.roleMap.isMember */\n      dup1\n      tag_172\n      jumpi\n      pop\n        /* \"OnDemo/contracts/AccountManagement.sol\":8470:8474  user */\n      dup1\n        /* \"OnDemo/contracts/AccountManagement.sol\":8470:8482  user.roleMap */\n      0xa0\n      add\n      mload\n        /* \"OnDemo/contracts/AccountManagement.sol\":8470:8491  user.roleMap.isMember */\n      0x40\n      add\n      mload\n        /* \"OnDemo/contracts/AccountManagement.sol\":8413:8491  user.roleMap.isLeader || user.roleMap.isCouncilMember || user.roleMap.isMember */\n    tag_172:\n        /* \"OnDemo/contracts/AccountManagement.sol\":8395:8492  user.isActive && (user.roleMap.isLeader || user.roleMap.isCouncilMember || user.roleMap.isMember) */\n    tag_170:\n        /* \"OnDemo/contracts/AccountManagement.sol\":8392:8539  if(user.isActive && (user.roleMap.isLeader || user.roleMap.isCouncilMember || user.roleMap.isMember)){... */\n      iszero\n      tag_173\n      jumpi\n        /* \"OnDemo/contracts/AccountManagement.sol\":8519:8523  true */\n      0x01\n        /* \"OnDemo/contracts/AccountManagement.sol\":8512:8523  return true */\n      swap2\n      pop\n      pop\n      jump(tag_153)\n        /* \"OnDemo/contracts/AccountManagement.sol\":8392:8539  if(user.isActive && (user.roleMap.isLeader || user.roleMap.isCouncilMember || user.roleMap.isMember)){... */\n    tag_173:\n        /* \"OnDemo/contracts/AccountManagement.sol\":8333:8550  if(user.userAddress != address(0))... */\n    tag_169:\n        /* \"OnDemo/contracts/AccountManagement.sol\":8568:8573  false */\n      0x00\n        /* \"OnDemo/contracts/AccountManagement.sol\":8560:8573  return  false */\n      swap2\n      pop\n      pop\n        /* \"OnDemo/contracts/AccountManagement.sol\":8206:8581  function hasRightToVote(address _address) external view returns (bool) {... */\n    tag_153:\n      swap2\n      swap1\n      pop\n      jump\t// out\n        /* \"OnDemo/contracts/AccountManagement.sol\":868:888  address public owner */\n    tag_55:\n      0x01\n      0x00\n      swap1\n      sload\n      swap1\n      0x0100\n      exp\n      swap1\n      div\n      0xffffffffffffffffffffffffffffffffffffffff\n      and\n      dup2\n      jump\t// out\n        /* \"OnDemo/contracts/AccountManagement.sol\":2729:3241  function makeAccountActive(address _address) public userExists(_address){... */\n    tag_60:\n        /* \"OnDemo/contracts/AccountManagement.sol\":2792:2800  _address */\n      dup1\n        /* \"OnDemo/contracts/AccountManagement.sol\":2006:2007  0 */\n      0x00\n        /* \"OnDemo/contracts/AccountManagement.sol\":1967:2008  users[_address].userAddress != address(0) */\n      0xffffffffffffffffffffffffffffffffffffffff\n      and\n        /* \"OnDemo/contracts/AccountManagement.sol\":1967:1972  users */\n      0x02\n        /* \"OnDemo/contracts/AccountManagement.sol\":1967:1982  users[_address] */\n      0x00\n        /* \"OnDemo/contracts/AccountManagement.sol\":1973:1981  _address */\n      dup4\n        /* \"OnDemo/contracts/AccountManagement.sol\":1967:1982  users[_address] */\n      0xffffffffffffffffffffffffffffffffffffffff\n      and\n      0xffffffffffffffffffffffffffffffffffffffff\n      and\n      dup2\n      mstore\n      0x20\n      add\n      swap1\n      dup2\n      mstore\n      0x20\n      add\n      0x00\n      keccak256\n        /* \"OnDemo/contracts/AccountManagement.sol\":1967:1994  users[_address].userAddress */\n      0x00\n      add\n      0x00\n      swap1\n      sload\n      swap1\n      0x0100\n      exp\n      swap1\n      div\n      0xffffffffffffffffffffffffffffffffffffffff\n      and\n        /* \"OnDemo/contracts/AccountManagement.sol\":1967:2008  users[_address].userAddress != address(0) */\n      0xffffffffffffffffffffffffffffffffffffffff\n      and\n      eq\n      iszero\n        /* \"OnDemo/contracts/AccountManagement.sol\":1959:2034  require(users[_address].userAddress != address(0), \"Account doesn't exist\") */\n      tag_175\n      jumpi\n      mload(0x40)\n      0x08c379a000000000000000000000000000000000000000000000000000000000\n      dup2\n      mstore\n      0x04\n      add\n      tag_176\n      swap1\n      tag_114\n      jump\t// in\n    tag_176:\n      mload(0x40)\n      dup1\n      swap2\n      sub\n      swap1\n      revert\n    tag_175:\n        /* \"OnDemo/contracts/AccountManagement.sol\":2816:2829  activeMembers */\n      0x03\n        /* \"OnDemo/contracts/AccountManagement.sol\":2816:2839  activeMembers[_address] */\n      0x00\n        /* \"OnDemo/contracts/AccountManagement.sol\":2830:2838  _address */\n      dup4\n        /* \"OnDemo/contracts/AccountManagement.sol\":2816:2839  activeMembers[_address] */\n      0xffffffffffffffffffffffffffffffffffffffff\n      and\n      0xffffffffffffffffffffffffffffffffffffffff\n      and\n      dup2\n      mstore\n      0x20\n      add\n      swap1\n      dup2\n      mstore\n      0x20\n      add\n      0x00\n      keccak256\n      0x00\n      swap1\n      sload\n      swap1\n      0x0100\n      exp\n      swap1\n      div\n      0xff\n      and\n        /* \"OnDemo/contracts/AccountManagement.sol\":2812:3234  if(!activeMembers[_address]){... */\n      tag_178\n      jumpi\n        /* \"OnDemo/contracts/AccountManagement.sol\":2855:2872  User storage user */\n      0x00\n        /* \"OnDemo/contracts/AccountManagement.sol\":2875:2880  users */\n      0x02\n        /* \"OnDemo/contracts/AccountManagement.sol\":2875:2890  users[_address] */\n      0x00\n        /* \"OnDemo/contracts/AccountManagement.sol\":2881:2889  _address */\n      dup5\n        /* \"OnDemo/contracts/AccountManagement.sol\":2875:2890  users[_address] */\n      0xffffffffffffffffffffffffffffffffffffffff\n      and\n      0xffffffffffffffffffffffffffffffffffffffff\n      and\n      dup2\n      mstore\n      0x20\n      add\n      swap1\n      dup2\n      mstore\n      0x20\n      add\n      0x00\n      keccak256\n        /* \"OnDemo/contracts/AccountManagement.sol\":2855:2890  User storage user = users[_address] */\n      swap1\n      pop\n        /* \"OnDemo/contracts/AccountManagement.sol\":2921:2925  true */\n      0x01\n        /* \"OnDemo/contracts/AccountManagement.sol\":2905:2909  user */\n      dup2\n        /* \"OnDemo/contracts/AccountManagement.sol\":2905:2918  user.isActive */\n      0x04\n      add\n      0x00\n        /* \"OnDemo/contracts/AccountManagement.sol\":2905:2925  user.isActive = true */\n      0x0100\n      exp\n      dup2\n      sload\n      dup2\n      0xff\n      mul\n      not\n      and\n      swap1\n      dup4\n      iszero\n      iszero\n      mul\n      or\n      swap1\n      sstore\n      pop\n        /* \"OnDemo/contracts/AccountManagement.sol\":2987:3009  RoleMap memory roleMap */\n      0x00\n        /* \"OnDemo/contracts/AccountManagement.sol\":3012:3016  user */\n      dup2\n        /* \"OnDemo/contracts/AccountManagement.sol\":3012:3024  user.roleMap */\n      0x05\n      add\n        /* \"OnDemo/contracts/AccountManagement.sol\":2987:3024  RoleMap memory roleMap = user.roleMap */\n      mload(0x40)\n      dup1\n      0x80\n      add\n      0x40\n      mstore\n      swap1\n      dup2\n      0x00\n      dup3\n      add\n      0x00\n      swap1\n      sload\n      swap1\n      0x0100\n      exp\n      swap1\n      div\n      0xff\n      and\n      iszero\n      iszero\n      iszero\n      iszero\n      dup2\n      mstore\n      0x20\n      add\n      0x00\n      dup3\n      add\n      0x01\n      swap1\n      sload\n      swap1\n      0x0100\n      exp\n      swap1\n      div\n      0xff\n      and\n      iszero\n      iszero\n      iszero\n      iszero\n      dup2\n      mstore\n      0x20\n      add\n      0x00\n      dup3\n      add\n      0x02\n      swap1\n      sload\n      swap1\n      0x0100\n      exp\n      swap1\n      div\n      0xff\n      and\n      iszero\n      iszero\n      iszero\n      iszero\n      dup2\n      mstore\n      0x20\n      add\n      0x00\n      dup3\n      add\n      0x03\n      swap1\n      sload\n      swap1\n      0x0100\n      exp\n      swap1\n      div\n      0xff\n      and\n      iszero\n      iszero\n      iszero\n      iszero\n      dup2\n      mstore\n      pop\n      pop\n      swap1\n      pop\n        /* \"OnDemo/contracts/AccountManagement.sol\":3042:3049  roleMap */\n      dup1\n        /* \"OnDemo/contracts/AccountManagement.sol\":3042:3058  roleMap.isLeader */\n      0x00\n      add\n      mload\n        /* \"OnDemo/contracts/AccountManagement.sol\":3042:3085  roleMap.isLeader || roleMap.isCouncilMember */\n      dup1\n      tag_179\n      jumpi\n      pop\n        /* \"OnDemo/contracts/AccountManagement.sol\":3062:3069  roleMap */\n      dup1\n        /* \"OnDemo/contracts/AccountManagement.sol\":3062:3085  roleMap.isCouncilMember */\n      0x20\n      add\n      mload\n        /* \"OnDemo/contracts/AccountManagement.sol\":3042:3085  roleMap.isLeader || roleMap.isCouncilMember */\n    tag_179:\n        /* \"OnDemo/contracts/AccountManagement.sol\":3042:3105  roleMap.isLeader || roleMap.isCouncilMember || roleMap.isMember */\n      dup1\n      tag_180\n      jumpi\n      pop\n        /* \"OnDemo/contracts/AccountManagement.sol\":3089:3096  roleMap */\n      dup1\n        /* \"OnDemo/contracts/AccountManagement.sol\":3089:3105  roleMap.isMember */\n      0x40\n      add\n      mload\n        /* \"OnDemo/contracts/AccountManagement.sol\":3042:3105  roleMap.isLeader || roleMap.isCouncilMember || roleMap.isMember */\n    tag_180:\n        /* \"OnDemo/contracts/AccountManagement.sol\":3039:3223  if(roleMap.isLeader || roleMap.isCouncilMember || roleMap.isMember)... */\n      iszero\n      tag_181\n      jumpi\n        /* \"OnDemo/contracts/AccountManagement.sol\":3165:3169  true */\n      0x01\n        /* \"OnDemo/contracts/AccountManagement.sol\":3139:3152  activeMembers */\n      0x03\n        /* \"OnDemo/contracts/AccountManagement.sol\":3139:3162  activeMembers[_address] */\n      0x00\n        /* \"OnDemo/contracts/AccountManagement.sol\":3153:3161  _address */\n      dup7\n        /* \"OnDemo/contracts/AccountManagement.sol\":3139:3162  activeMembers[_address] */\n      0xffffffffffffffffffffffffffffffffffffffff\n      and\n      0xffffffffffffffffffffffffffffffffffffffff\n      and\n      dup2\n      mstore\n      0x20\n      add\n      swap1\n      dup2\n      mstore\n      0x20\n      add\n      0x00\n      keccak256\n      0x00\n        /* \"OnDemo/contracts/AccountManagement.sol\":3139:3169  activeMembers[_address] = true */\n      0x0100\n      exp\n      dup2\n      sload\n      dup2\n      0xff\n      mul\n      not\n      and\n      swap1\n      dup4\n      iszero\n      iszero\n      mul\n      or\n      swap1\n      sstore\n      pop\n        /* \"OnDemo/contracts/AccountManagement.sol\":3188:3205  activeMemberCount */\n      0x00\n      dup1\n        /* \"OnDemo/contracts/AccountManagement.sol\":3188:3207  activeMemberCount++ */\n      dup2\n      sload\n      dup1\n      swap3\n      swap2\n      swap1\n      tag_182\n      swap1\n      tag_183\n      jump\t// in\n    tag_182:\n      swap2\n      swap1\n      pop\n      sstore\n      pop\n        /* \"OnDemo/contracts/AccountManagement.sol\":3039:3223  if(roleMap.isLeader || roleMap.isCouncilMember || roleMap.isMember)... */\n    tag_181:\n        /* \"OnDemo/contracts/AccountManagement.sol\":2840:3234  {... */\n      pop\n      pop\n        /* \"OnDemo/contracts/AccountManagement.sol\":2812:3234  if(!activeMembers[_address]){... */\n    tag_178:\n        /* \"OnDemo/contracts/AccountManagement.sol\":2729:3241  function makeAccountActive(address _address) public userExists(_address){... */\n      pop\n      pop\n      jump\t// out\n        /* \"OnDemo/contracts/AccountManagement.sol\":4495:5072  function removeRole(address _address, Role _role) public onlyLeader userExists(_address){... */\n    tag_63:\n        /* \"OnDemo/contracts/AccountManagement.sol\":1810:1815  owner */\n      0x01\n      0x00\n      swap1\n      sload\n      swap1\n      0x0100\n      exp\n      swap1\n      div\n      0xffffffffffffffffffffffffffffffffffffffff\n      and\n        /* \"OnDemo/contracts/AccountManagement.sol\":1796:1815  msg.sender == owner */\n      0xffffffffffffffffffffffffffffffffffffffff\n      and\n        /* \"OnDemo/contracts/AccountManagement.sol\":1796:1806  msg.sender */\n      caller\n        /* \"OnDemo/contracts/AccountManagement.sol\":1796:1815  msg.sender == owner */\n      0xffffffffffffffffffffffffffffffffffffffff\n      and\n      eq\n        /* \"OnDemo/contracts/AccountManagement.sol\":1796:1844  msg.sender == owner || hasLeaderRole(msg.sender) */\n      dup1\n      tag_185\n      jumpi\n      pop\n        /* \"OnDemo/contracts/AccountManagement.sol\":1819:1844  hasLeaderRole(msg.sender) */\n      tag_186\n        /* \"OnDemo/contracts/AccountManagement.sol\":1833:1843  msg.sender */\n      caller\n        /* \"OnDemo/contracts/AccountManagement.sol\":1819:1832  hasLeaderRole */\n      tag_38\n        /* \"OnDemo/contracts/AccountManagement.sol\":1819:1844  hasLeaderRole(msg.sender) */\n      jump\t// in\n    tag_186:\n        /* \"OnDemo/contracts/AccountManagement.sol\":1796:1844  msg.sender == owner || hasLeaderRole(msg.sender) */\n    tag_185:\n        /* \"OnDemo/contracts/AccountManagement.sol\":1788:1883  require(msg.sender == owner || hasLeaderRole(msg.sender), \"Only owner can call this function.\") */\n      tag_187\n      jumpi\n      mload(0x40)\n      0x08c379a000000000000000000000000000000000000000000000000000000000\n      dup2\n      mstore\n      0x04\n      add\n      tag_188\n      swap1\n      tag_124\n      jump\t// in\n    tag_188:\n      mload(0x40)\n      dup1\n      swap2\n      sub\n      swap1\n      revert\n    tag_187:\n        /* \"OnDemo/contracts/AccountManagement.sol\":4574:4582  _address */\n      dup2\n        /* \"OnDemo/contracts/AccountManagement.sol\":2006:2007  0 */\n      0x00\n        /* \"OnDemo/contracts/AccountManagement.sol\":1967:2008  users[_address].userAddress != address(0) */\n      0xffffffffffffffffffffffffffffffffffffffff\n      and\n        /* \"OnDemo/contracts/AccountManagement.sol\":1967:1972  users */\n      0x02\n        /* \"OnDemo/contracts/AccountManagement.sol\":1967:1982  users[_address] */\n      0x00\n        /* \"OnDemo/contracts/AccountManagement.sol\":1973:1981  _address */\n      dup4\n        /* \"OnDemo/contracts/AccountManagement.sol\":1967:1982  users[_address] */\n      0xffffffffffffffffffffffffffffffffffffffff\n      and\n      0xffffffffffffffffffffffffffffffffffffffff\n      and\n      dup2\n      mstore\n      0x20\n      add\n      swap1\n      dup2\n      mstore\n      0x20\n      add\n      0x00\n      keccak256\n        /* \"OnDemo/contracts/AccountManagement.sol\":1967:1994  users[_address].userAddress */\n      0x00\n      add\n      0x00\n      swap1\n      sload\n      swap1\n      0x0100\n      exp\n      swap1\n      div\n      0xffffffffffffffffffffffffffffffffffffffff\n      and\n        /* \"OnDemo/contracts/AccountManagement.sol\":1967:2008  users[_address].userAddress != address(0) */\n      0xffffffffffffffffffffffffffffffffffffffff\n      and\n      eq\n      iszero\n        /* \"OnDemo/contracts/AccountManagement.sol\":1959:2034  require(users[_address].userAddress != address(0), \"Account doesn't exist\") */\n      tag_190\n      jumpi\n      mload(0x40)\n      0x08c379a000000000000000000000000000000000000000000000000000000000\n      dup2\n      mstore\n      0x04\n      add\n      tag_191\n      swap1\n      tag_114\n      jump\t// in\n    tag_191:\n      mload(0x40)\n      dup1\n      swap2\n      sub\n      swap1\n      revert\n    tag_190:\n        /* \"OnDemo/contracts/AccountManagement.sol\":4594:4611  User storage user */\n      0x00\n        /* \"OnDemo/contracts/AccountManagement.sol\":4614:4619  users */\n      0x02\n        /* \"OnDemo/contracts/AccountManagement.sol\":4614:4629  users[_address] */\n      0x00\n        /* \"OnDemo/contracts/AccountManagement.sol\":4620:4628  _address */\n      dup6\n        /* \"OnDemo/contracts/AccountManagement.sol\":4614:4629  users[_address] */\n      0xffffffffffffffffffffffffffffffffffffffff\n      and\n      0xffffffffffffffffffffffffffffffffffffffff\n      and\n      dup2\n      mstore\n      0x20\n      add\n      swap1\n      dup2\n      mstore\n      0x20\n      add\n      0x00\n      keccak256\n        /* \"OnDemo/contracts/AccountManagement.sol\":4594:4629  User storage user = users[_address] */\n      swap1\n      pop\n        /* \"OnDemo/contracts/AccountManagement.sol\":4640:4663  RoleMap storage roleMap */\n      0x00\n        /* \"OnDemo/contracts/AccountManagement.sol\":4666:4670  user */\n      dup2\n        /* \"OnDemo/contracts/AccountManagement.sol\":4666:4678  user.roleMap */\n      0x05\n      add\n        /* \"OnDemo/contracts/AccountManagement.sol\":4640:4678  RoleMap storage roleMap = user.roleMap */\n      swap1\n      pop\n        /* \"OnDemo/contracts/AccountManagement.sol\":4703:4714  Role.LEADER */\n      0x00\n        /* \"OnDemo/contracts/AccountManagement.sol\":4694:4714  _role == Role.LEADER */\n      0x03\n      dup2\n      gt\n      iszero\n      tag_193\n      jumpi\n      tag_194\n      tag_131\n      jump\t// in\n    tag_194:\n    tag_193:\n        /* \"OnDemo/contracts/AccountManagement.sol\":4694:4699  _role */\n      dup5\n        /* \"OnDemo/contracts/AccountManagement.sol\":4694:4714  _role == Role.LEADER */\n      0x03\n      dup2\n      gt\n      iszero\n      tag_195\n      jumpi\n      tag_196\n      tag_131\n      jump\t// in\n    tag_196:\n    tag_195:\n      eq\n        /* \"OnDemo/contracts/AccountManagement.sol\":4691:5065  if(_role == Role.LEADER){... */\n      iszero\n      tag_197\n      jumpi\n        /* \"OnDemo/contracts/AccountManagement.sol\":4749:4754  false */\n      0x00\n        /* \"OnDemo/contracts/AccountManagement.sol\":4730:4737  roleMap */\n      dup2\n        /* \"OnDemo/contracts/AccountManagement.sol\":4730:4746  roleMap.isLeader */\n      0x00\n      add\n      0x00\n        /* \"OnDemo/contracts/AccountManagement.sol\":4730:4754  roleMap.isLeader = false */\n      0x0100\n      exp\n      dup2\n      sload\n      dup2\n      0xff\n      mul\n      not\n      and\n      swap1\n      dup4\n      iszero\n      iszero\n      mul\n      or\n      swap1\n      sstore\n      pop\n        /* \"OnDemo/contracts/AccountManagement.sol\":4691:5065  if(_role == Role.LEADER){... */\n      jump(tag_198)\n    tag_197:\n        /* \"OnDemo/contracts/AccountManagement.sol\":4793:4811  Role.COUNCILMEMBER */\n      0x01\n        /* \"OnDemo/contracts/AccountManagement.sol\":4784:4811  _role == Role.COUNCILMEMBER */\n      0x03\n      dup2\n      gt\n      iszero\n      tag_199\n      jumpi\n      tag_200\n      tag_131\n      jump\t// in\n    tag_200:\n    tag_199:\n        /* \"OnDemo/contracts/AccountManagement.sol\":4784:4789  _role */\n      dup5\n        /* \"OnDemo/contracts/AccountManagement.sol\":4784:4811  _role == Role.COUNCILMEMBER */\n      0x03\n      dup2\n      gt\n      iszero\n      tag_201\n      jumpi\n      tag_202\n      tag_131\n      jump\t// in\n    tag_202:\n    tag_201:\n      eq\n        /* \"OnDemo/contracts/AccountManagement.sol\":4781:5065  if(_role == Role.COUNCILMEMBER){... */\n      iszero\n      tag_203\n      jumpi\n        /* \"OnDemo/contracts/AccountManagement.sol\":4853:4858  false */\n      0x00\n        /* \"OnDemo/contracts/AccountManagement.sol\":4827:4834  roleMap */\n      dup2\n        /* \"OnDemo/contracts/AccountManagement.sol\":4827:4850  roleMap.isCouncilMember */\n      0x00\n      add\n      0x01\n        /* \"OnDemo/contracts/AccountManagement.sol\":4827:4858  roleMap.isCouncilMember = false */\n      0x0100\n      exp\n      dup2\n      sload\n      dup2\n      0xff\n      mul\n      not\n      and\n      swap1\n      dup4\n      iszero\n      iszero\n      mul\n      or\n      swap1\n      sstore\n      pop\n        /* \"OnDemo/contracts/AccountManagement.sol\":4781:5065  if(_role == Role.COUNCILMEMBER){... */\n      jump(tag_204)\n    tag_203:\n        /* \"OnDemo/contracts/AccountManagement.sol\":4902:4913  Role.MEMBER */\n      0x02\n        /* \"OnDemo/contracts/AccountManagement.sol\":4893:4913  _role == Role.MEMBER */\n      0x03\n      dup2\n      gt\n      iszero\n      tag_205\n      jumpi\n      tag_206\n      tag_131\n      jump\t// in\n    tag_206:\n    tag_205:\n        /* \"OnDemo/contracts/AccountManagement.sol\":4893:4898  _role */\n      dup5\n        /* \"OnDemo/contracts/AccountManagement.sol\":4893:4913  _role == Role.MEMBER */\n      0x03\n      dup2\n      gt\n      iszero\n      tag_207\n      jumpi\n      tag_208\n      tag_131\n      jump\t// in\n    tag_208:\n    tag_207:\n      eq\n        /* \"OnDemo/contracts/AccountManagement.sol\":4890:5065  if(_role == Role.MEMBER){... */\n      iszero\n      tag_209\n      jumpi\n        /* \"OnDemo/contracts/AccountManagement.sol\":4948:4953  false */\n      0x00\n        /* \"OnDemo/contracts/AccountManagement.sol\":4929:4936  roleMap */\n      dup2\n        /* \"OnDemo/contracts/AccountManagement.sol\":4929:4945  roleMap.isMember */\n      0x00\n      add\n      0x02\n        /* \"OnDemo/contracts/AccountManagement.sol\":4929:4953  roleMap.isMember = false */\n      0x0100\n      exp\n      dup2\n      sload\n      dup2\n      0xff\n      mul\n      not\n      and\n      swap1\n      dup4\n      iszero\n      iszero\n      mul\n      or\n      swap1\n      sstore\n      pop\n        /* \"OnDemo/contracts/AccountManagement.sol\":4890:5065  if(_role == Role.MEMBER){... */\n      jump(tag_210)\n    tag_209:\n        /* \"OnDemo/contracts/AccountManagement.sol\":4992:5002  Role.GUEST */\n      0x03\n        /* \"OnDemo/contracts/AccountManagement.sol\":4983:5002  _role == Role.GUEST */\n      dup1\n      dup2\n      gt\n      iszero\n      tag_211\n      jumpi\n      tag_212\n      tag_131\n      jump\t// in\n    tag_212:\n    tag_211:\n        /* \"OnDemo/contracts/AccountManagement.sol\":4983:4988  _role */\n      dup5\n        /* \"OnDemo/contracts/AccountManagement.sol\":4983:5002  _role == Role.GUEST */\n      0x03\n      dup2\n      gt\n      iszero\n      tag_213\n      jumpi\n      tag_214\n      tag_131\n      jump\t// in\n    tag_214:\n    tag_213:\n      eq\n        /* \"OnDemo/contracts/AccountManagement.sol\":4980:5065  if(_role == Role.GUEST){... */\n      iszero\n      tag_215\n      jumpi\n        /* \"OnDemo/contracts/AccountManagement.sol\":5036:5041  false */\n      0x00\n        /* \"OnDemo/contracts/AccountManagement.sol\":5018:5025  roleMap */\n      dup2\n        /* \"OnDemo/contracts/AccountManagement.sol\":5018:5033  roleMap.isGuest */\n      0x00\n      add\n      0x03\n        /* \"OnDemo/contracts/AccountManagement.sol\":5018:5041  roleMap.isGuest = false */\n      0x0100\n      exp\n      dup2\n      sload\n      dup2\n      0xff\n      mul\n      not\n      and\n      swap1\n      dup4\n      iszero\n      iszero\n      mul\n      or\n      swap1\n      sstore\n      pop\n        /* \"OnDemo/contracts/AccountManagement.sol\":4980:5065  if(_role == Role.GUEST){... */\n    tag_215:\n        /* \"OnDemo/contracts/AccountManagement.sol\":4890:5065  if(_role == Role.MEMBER){... */\n    tag_210:\n        /* \"OnDemo/contracts/AccountManagement.sol\":4781:5065  if(_role == Role.COUNCILMEMBER){... */\n    tag_204:\n        /* \"OnDemo/contracts/AccountManagement.sol\":4691:5065  if(_role == Role.LEADER){... */\n    tag_198:\n        /* \"OnDemo/contracts/AccountManagement.sol\":4583:5072  {... */\n      pop\n      pop\n        /* \"OnDemo/contracts/AccountManagement.sol\":1894:1895  _ */\n      pop\n        /* \"OnDemo/contracts/AccountManagement.sol\":4495:5072  function removeRole(address _address, Role _role) public onlyLeader userExists(_address){... */\n      pop\n      pop\n      jump\t// out\n        /* \"OnDemo/contracts/AccountManagement.sol\":8589:8967  function hasRightToSupport(address _address) external view returns (bool) {... */\n    tag_66:\n        /* \"OnDemo/contracts/AccountManagement.sol\":8657:8661  bool */\n      0x00\n        /* \"OnDemo/contracts/AccountManagement.sol\":8674:8690  User memory user */\n      dup1\n        /* \"OnDemo/contracts/AccountManagement.sol\":8693:8698  users */\n      0x02\n        /* \"OnDemo/contracts/AccountManagement.sol\":8693:8708  users[_address] */\n      0x00\n        /* \"OnDemo/contracts/AccountManagement.sol\":8699:8707  _address */\n      dup5\n        /* \"OnDemo/contracts/AccountManagement.sol\":8693:8708  users[_address] */\n      0xffffffffffffffffffffffffffffffffffffffff\n      and\n      0xffffffffffffffffffffffffffffffffffffffff\n      and\n      dup2\n      mstore\n      0x20\n      add\n      swap1\n      dup2\n      mstore\n      0x20\n      add\n      0x00\n      keccak256\n        /* \"OnDemo/contracts/AccountManagement.sol\":8674:8708  User memory user = users[_address] */\n      mload(0x40)\n      dup1\n      0xc0\n      add\n      0x40\n      mstore\n      swap1\n      dup2\n      0x00\n      dup3\n      add\n      0x00\n      swap1\n      sload\n      swap1\n      0x0100\n      exp\n      swap1\n      div\n      0xffffffffffffffffffffffffffffffffffffffff\n      and\n      0xffffffffffffffffffffffffffffffffffffffff\n      and\n      0xffffffffffffffffffffffffffffffffffffffff\n      and\n      dup2\n      mstore\n      0x20\n      add\n      0x01\n      dup3\n      add\n      dup1\n      sload\n      tag_217\n      swap1\n      tag_85\n      jump\t// in\n    tag_217:\n      dup1\n      0x1f\n      add\n      0x20\n      dup1\n      swap2\n      div\n      mul\n      0x20\n      add\n      mload(0x40)\n      swap1\n      dup2\n      add\n      0x40\n      mstore\n      dup1\n      swap3\n      swap2\n      swap1\n      dup2\n      dup2\n      mstore\n      0x20\n      add\n      dup3\n      dup1\n      sload\n      tag_218\n      swap1\n      tag_85\n      jump\t// in\n    tag_218:\n      dup1\n      iszero\n      tag_219\n      jumpi\n      dup1\n      0x1f\n      lt\n      tag_220\n      jumpi\n      0x0100\n      dup1\n      dup4\n      sload\n      div\n      mul\n      dup4\n      mstore\n      swap2\n      0x20\n      add\n      swap2\n      jump(tag_219)\n    tag_220:\n      dup3\n      add\n      swap2\n      swap1\n      0x00\n      mstore\n      keccak256(0x00, 0x20)\n      swap1\n    tag_221:\n      dup2\n      sload\n      dup2\n      mstore\n      swap1\n      0x01\n      add\n      swap1\n      0x20\n      add\n      dup1\n      dup4\n      gt\n      tag_221\n      jumpi\n      dup3\n      swap1\n      sub\n      0x1f\n      and\n      dup3\n      add\n      swap2\n    tag_219:\n      pop\n      pop\n      pop\n      pop\n      pop\n      dup2\n      mstore\n      0x20\n      add\n      0x02\n      dup3\n      add\n      dup1\n      sload\n      tag_222\n      swap1\n      tag_85\n      jump\t// in\n    tag_222:\n      dup1\n      0x1f\n      add\n      0x20\n      dup1\n      swap2\n      div\n      mul\n      0x20\n      add\n      mload(0x40)\n      swap1\n      dup2\n      add\n      0x40\n      mstore\n      dup1\n      swap3\n      swap2\n      swap1\n      dup2\n      dup2\n      mstore\n      0x20\n      add\n      dup3\n      dup1\n      sload\n      tag_223\n      swap1\n      tag_85\n      jump\t// in\n    tag_223:\n      dup1\n      iszero\n      tag_224\n      jumpi\n      dup1\n      0x1f\n      lt\n      tag_225\n      jumpi\n      0x0100\n      dup1\n      dup4\n      sload\n      div\n      mul\n      dup4\n      mstore\n      swap2\n      0x20\n      add\n      swap2\n      jump(tag_224)\n    tag_225:\n      dup3\n      add\n      swap2\n      swap1\n      0x00\n      mstore\n      keccak256(0x00, 0x20)\n      swap1\n    tag_226:\n      dup2\n      sload\n      dup2\n      mstore\n      swap1\n      0x01\n      add\n      swap1\n      0x20\n      add\n      dup1\n      dup4\n      gt\n      tag_226\n      jumpi\n      dup3\n      swap1\n      sub\n      0x1f\n      and\n      dup3\n      add\n      swap2\n    tag_224:\n      pop\n      pop\n      pop\n      pop\n      pop\n      dup2\n      mstore\n      0x20\n      add\n      0x03\n      dup3\n      add\n      dup1\n      sload\n      tag_227\n      swap1\n      tag_85\n      jump\t// in\n    tag_227:\n      dup1\n      0x1f\n      add\n      0x20\n      dup1\n      swap2\n      div\n      mul\n      0x20\n      add\n      mload(0x40)\n      swap1\n      dup2\n      add\n      0x40\n      mstore\n      dup1\n      swap3\n      swap2\n      swap1\n      dup2\n      dup2\n      mstore\n      0x20\n      add\n      dup3\n      dup1\n      sload\n      tag_228\n      swap1\n      tag_85\n      jump\t// in\n    tag_228:\n      dup1\n      iszero\n      tag_229\n      jumpi\n      dup1\n      0x1f\n      lt\n      tag_230\n      jumpi\n      0x0100\n      dup1\n      dup4\n      sload\n      div\n      mul\n      dup4\n      mstore\n      swap2\n      0x20\n      add\n      swap2\n      jump(tag_229)\n    tag_230:\n      dup3\n      add\n      swap2\n      swap1\n      0x00\n      mstore\n      keccak256(0x00, 0x20)\n      swap1\n    tag_231:\n      dup2\n      sload\n      dup2\n      mstore\n      swap1\n      0x01\n      add\n      swap1\n      0x20\n      add\n      dup1\n      dup4\n      gt\n      tag_231\n      jumpi\n      dup3\n      swap1\n      sub\n      0x1f\n      and\n      dup3\n      add\n      swap2\n    tag_229:\n      pop\n      pop\n      pop\n      pop\n      pop\n      dup2\n      mstore\n      0x20\n      add\n      0x04\n      dup3\n      add\n      0x00\n      swap1\n      sload\n      swap1\n      0x0100\n      exp\n      swap1\n      div\n      0xff\n      and\n      iszero\n      iszero\n      iszero\n      iszero\n      dup2\n      mstore\n      0x20\n      add\n      0x05\n      dup3\n      add\n      mload(0x40)\n      dup1\n      0x80\n      add\n      0x40\n      mstore\n      swap1\n      dup2\n      0x00\n      dup3\n      add\n      0x00\n      swap1\n      sload\n      swap1\n      0x0100\n      exp\n      swap1\n      div\n      0xff\n      and\n      iszero\n      iszero\n      iszero\n      iszero\n      dup2\n      mstore\n      0x20\n      add\n      0x00\n      dup3\n      add\n      0x01\n      swap1\n      sload\n      swap1\n      0x0100\n      exp\n      swap1\n      div\n      0xff\n      and\n      iszero\n      iszero\n      iszero\n      iszero\n      dup2\n      mstore\n      0x20\n      add\n      0x00\n      dup3\n      add\n      0x02\n      swap1\n      sload\n      swap1\n      0x0100\n      exp\n      swap1\n      div\n      0xff\n      and\n      iszero\n      iszero\n      iszero\n      iszero\n      dup2\n      mstore\n      0x20\n      add\n      0x00\n      dup3\n      add\n      0x03\n      swap1\n      sload\n      swap1\n      0x0100\n      exp\n      swap1\n      div\n      0xff\n      and\n      iszero\n      iszero\n      iszero\n      iszero\n      dup2\n      mstore\n      pop\n      pop\n      dup2\n      mstore\n      pop\n      pop\n      swap1\n      pop\n        /* \"OnDemo/contracts/AccountManagement.sol\":8750:8751  0 */\n      0x00\n        /* \"OnDemo/contracts/AccountManagement.sol\":8722:8752  user.userAddress != address(0) */\n      0xffffffffffffffffffffffffffffffffffffffff\n      and\n        /* \"OnDemo/contracts/AccountManagement.sol\":8722:8726  user */\n      dup2\n        /* \"OnDemo/contracts/AccountManagement.sol\":8722:8738  user.userAddress */\n      0x00\n      add\n      mload\n        /* \"OnDemo/contracts/AccountManagement.sol\":8722:8752  user.userAddress != address(0) */\n      0xffffffffffffffffffffffffffffffffffffffff\n      and\n      eq\n        /* \"OnDemo/contracts/AccountManagement.sol\":8719:8936  if(user.userAddress != address(0))... */\n      tag_232\n      jumpi\n        /* \"OnDemo/contracts/AccountManagement.sol\":8781:8785  user */\n      dup1\n        /* \"OnDemo/contracts/AccountManagement.sol\":8781:8794  user.isActive */\n      0x80\n      add\n      mload\n        /* \"OnDemo/contracts/AccountManagement.sol\":8781:8878  user.isActive && (user.roleMap.isLeader || user.roleMap.isCouncilMember || user.roleMap.isMember) */\n      dup1\n      iszero\n      tag_233\n      jumpi\n      pop\n        /* \"OnDemo/contracts/AccountManagement.sol\":8799:8803  user */\n      dup1\n        /* \"OnDemo/contracts/AccountManagement.sol\":8799:8811  user.roleMap */\n      0xa0\n      add\n      mload\n        /* \"OnDemo/contracts/AccountManagement.sol\":8799:8820  user.roleMap.isLeader */\n      0x00\n      add\n      mload\n        /* \"OnDemo/contracts/AccountManagement.sol\":8799:8852  user.roleMap.isLeader || user.roleMap.isCouncilMember */\n      dup1\n      tag_234\n      jumpi\n      pop\n        /* \"OnDemo/contracts/AccountManagement.sol\":8824:8828  user */\n      dup1\n        /* \"OnDemo/contracts/AccountManagement.sol\":8824:8836  user.roleMap */\n      0xa0\n      add\n      mload\n        /* \"OnDemo/contracts/AccountManagement.sol\":8824:8852  user.roleMap.isCouncilMember */\n      0x20\n      add\n      mload\n        /* \"OnDemo/contracts/AccountManagement.sol\":8799:8852  user.roleMap.isLeader || user.roleMap.isCouncilMember */\n    tag_234:\n        /* \"OnDemo/contracts/AccountManagement.sol\":8799:8877  user.roleMap.isLeader || user.roleMap.isCouncilMember || user.roleMap.isMember */\n      dup1\n      tag_235\n      jumpi\n      pop\n        /* \"OnDemo/contracts/AccountManagement.sol\":8856:8860  user */\n      dup1\n        /* \"OnDemo/contracts/AccountManagement.sol\":8856:8868  user.roleMap */\n      0xa0\n      add\n      mload\n        /* \"OnDemo/contracts/AccountManagement.sol\":8856:8877  user.roleMap.isMember */\n      0x40\n      add\n      mload\n        /* \"OnDemo/contracts/AccountManagement.sol\":8799:8877  user.roleMap.isLeader || user.roleMap.isCouncilMember || user.roleMap.isMember */\n    tag_235:\n        /* \"OnDemo/contracts/AccountManagement.sol\":8781:8878  user.isActive && (user.roleMap.isLeader || user.roleMap.isCouncilMember || user.roleMap.isMember) */\n    tag_233:\n        /* \"OnDemo/contracts/AccountManagement.sol\":8778:8925  if(user.isActive && (user.roleMap.isLeader || user.roleMap.isCouncilMember || user.roleMap.isMember)){... */\n      iszero\n      tag_236\n      jumpi\n        /* \"OnDemo/contracts/AccountManagement.sol\":8905:8909  true */\n      0x01\n        /* \"OnDemo/contracts/AccountManagement.sol\":8898:8909  return true */\n      swap2\n      pop\n      pop\n      jump(tag_216)\n        /* \"OnDemo/contracts/AccountManagement.sol\":8778:8925  if(user.isActive && (user.roleMap.isLeader || user.roleMap.isCouncilMember || user.roleMap.isMember)){... */\n    tag_236:\n        /* \"OnDemo/contracts/AccountManagement.sol\":8719:8936  if(user.userAddress != address(0))... */\n    tag_232:\n        /* \"OnDemo/contracts/AccountManagement.sol\":8954:8959  false */\n      0x00\n        /* \"OnDemo/contracts/AccountManagement.sol\":8946:8959  return  false */\n      swap2\n      pop\n      pop\n        /* \"OnDemo/contracts/AccountManagement.sol\":8589:8967  function hasRightToSupport(address _address) external view returns (bool) {... */\n    tag_216:\n      swap2\n      swap1\n      pop\n      jump\t// out\n        /* \"OnDemo/contracts/AccountManagement.sol\":3618:3782  function burnAccount(address _address) public userExists(_address){  ... */\n    tag_70:\n        /* \"OnDemo/contracts/AccountManagement.sol\":3675:3683  _address */\n      dup1\n        /* \"OnDemo/contracts/AccountManagement.sol\":2006:2007  0 */\n      0x00\n        /* \"OnDemo/contracts/AccountManagement.sol\":1967:2008  users[_address].userAddress != address(0) */\n      0xffffffffffffffffffffffffffffffffffffffff\n      and\n        /* \"OnDemo/contracts/AccountManagement.sol\":1967:1972  users */\n      0x02\n        /* \"OnDemo/contracts/AccountManagement.sol\":1967:1982  users[_address] */\n      0x00\n        /* \"OnDemo/contracts/AccountManagement.sol\":1973:1981  _address */\n      dup4\n        /* \"OnDemo/contracts/AccountManagement.sol\":1967:1982  users[_address] */\n      0xffffffffffffffffffffffffffffffffffffffff\n      and\n      0xffffffffffffffffffffffffffffffffffffffff\n      and\n      dup2\n      mstore\n      0x20\n      add\n      swap1\n      dup2\n      mstore\n      0x20\n      add\n      0x00\n      keccak256\n        /* \"OnDemo/contracts/AccountManagement.sol\":1967:1994  users[_address].userAddress */\n      0x00\n      add\n      0x00\n      swap1\n      sload\n      swap1\n      0x0100\n      exp\n      swap1\n      div\n      0xffffffffffffffffffffffffffffffffffffffff\n      and\n        /* \"OnDemo/contracts/AccountManagement.sol\":1967:2008  users[_address].userAddress != address(0) */\n      0xffffffffffffffffffffffffffffffffffffffff\n      and\n      eq\n      iszero\n        /* \"OnDemo/contracts/AccountManagement.sol\":1959:2034  require(users[_address].userAddress != address(0), \"Account doesn't exist\") */\n      tag_238\n      jumpi\n      mload(0x40)\n      0x08c379a000000000000000000000000000000000000000000000000000000000\n      dup2\n      mstore\n      0x04\n      add\n      tag_239\n      swap1\n      tag_114\n      jump\t// in\n    tag_239:\n      mload(0x40)\n      dup1\n      swap2\n      sub\n      swap1\n      revert\n    tag_238:\n        /* \"OnDemo/contracts/AccountManagement.sol\":3697:3725  makeAccountPassive(_address) */\n      tag_241\n        /* \"OnDemo/contracts/AccountManagement.sol\":3716:3724  _address */\n      dup3\n        /* \"OnDemo/contracts/AccountManagement.sol\":3697:3715  makeAccountPassive */\n      tag_42\n        /* \"OnDemo/contracts/AccountManagement.sol\":3697:3725  makeAccountPassive(_address) */\n      jump\t// in\n    tag_241:\n        /* \"OnDemo/contracts/AccountManagement.sol\":3750:3755  users */\n      0x02\n        /* \"OnDemo/contracts/AccountManagement.sol\":3750:3765  users[_address] */\n      0x00\n        /* \"OnDemo/contracts/AccountManagement.sol\":3756:3764  _address */\n      dup4\n        /* \"OnDemo/contracts/AccountManagement.sol\":3750:3765  users[_address] */\n      0xffffffffffffffffffffffffffffffffffffffff\n      and\n      0xffffffffffffffffffffffffffffffffffffffff\n      and\n      dup2\n      mstore\n      0x20\n      add\n      swap1\n      dup2\n      mstore\n      0x20\n      add\n      0x00\n      keccak256\n      0x00\n        /* \"OnDemo/contracts/AccountManagement.sol\":3743:3765  delete users[_address] */\n      dup1\n      dup3\n      add\n      exp(0x0100, 0x00)\n      dup2\n      sload\n      swap1\n      0xffffffffffffffffffffffffffffffffffffffff\n      mul\n      not\n      and\n      swap1\n      sstore\n      0x01\n      dup3\n      add\n      0x00\n      tag_242\n      swap2\n      swap1\n      tag_243\n      jump\t// in\n    tag_242:\n      0x02\n      dup3\n      add\n      0x00\n      tag_244\n      swap2\n      swap1\n      tag_243\n      jump\t// in\n    tag_244:\n      0x03\n      dup3\n      add\n      0x00\n      tag_245\n      swap2\n      swap1\n      tag_243\n      jump\t// in\n    tag_245:\n      0x04\n      dup3\n      add\n      exp(0x0100, 0x00)\n      dup2\n      sload\n      swap1\n      0xff\n      mul\n      not\n      and\n      swap1\n      sstore\n      0x05\n      dup3\n      add\n      0x00\n      dup1\n      dup3\n      add\n      exp(0x0100, 0x00)\n      dup2\n      sload\n      swap1\n      0xff\n      mul\n      not\n      and\n      swap1\n      sstore\n      0x00\n      dup3\n      add\n      exp(0x0100, 0x01)\n      dup2\n      sload\n      swap1\n      0xff\n      mul\n      not\n      and\n      swap1\n      sstore\n      0x00\n      dup3\n      add\n      exp(0x0100, 0x02)\n      dup2\n      sload\n      swap1\n      0xff\n      mul\n      not\n      and\n      swap1\n      sstore\n      0x00\n      dup3\n      add\n      exp(0x0100, 0x03)\n      dup2\n      sload\n      swap1\n      0xff\n      mul\n      not\n      and\n      swap1\n      sstore\n      pop\n      pop\n      pop\n      pop\n        /* \"OnDemo/contracts/AccountManagement.sol\":3618:3782  function burnAccount(address _address) public userExists(_address){  ... */\n      pop\n      pop\n      jump\t// out\n        /* \"OnDemo/contracts/AccountManagement.sol\":2356:2721  function createAccount(address _address, string memory _firstName, string memory _secondName, string memory _mailAdress) public userNotExists(_address){... */\n    tag_74:\n        /* \"OnDemo/contracts/AccountManagement.sol\":2498:2506  _address */\n      dup4\n        /* \"OnDemo/contracts/AccountManagement.sol\":2160:2161  0 */\n      0x00\n        /* \"OnDemo/contracts/AccountManagement.sol\":2121:2162  users[_address].userAddress == address(0) */\n      0xffffffffffffffffffffffffffffffffffffffff\n      and\n        /* \"OnDemo/contracts/AccountManagement.sol\":2121:2126  users */\n      0x02\n        /* \"OnDemo/contracts/AccountManagement.sol\":2121:2136  users[_address] */\n      0x00\n        /* \"OnDemo/contracts/AccountManagement.sol\":2127:2135  _address */\n      dup4\n        /* \"OnDemo/contracts/AccountManagement.sol\":2121:2136  users[_address] */\n      0xffffffffffffffffffffffffffffffffffffffff\n      and\n      0xffffffffffffffffffffffffffffffffffffffff\n      and\n      dup2\n      mstore\n      0x20\n      add\n      swap1\n      dup2\n      mstore\n      0x20\n      add\n      0x00\n      keccak256\n        /* \"OnDemo/contracts/AccountManagement.sol\":2121:2148  users[_address].userAddress */\n      0x00\n      add\n      0x00\n      swap1\n      sload\n      swap1\n      0x0100\n      exp\n      swap1\n      div\n      0xffffffffffffffffffffffffffffffffffffffff\n      and\n        /* \"OnDemo/contracts/AccountManagement.sol\":2121:2162  users[_address].userAddress == address(0) */\n      0xffffffffffffffffffffffffffffffffffffffff\n      and\n      eq\n        /* \"OnDemo/contracts/AccountManagement.sol\":2113:2189  require(users[_address].userAddress == address(0), \"Account already exists\") */\n      tag_247\n      jumpi\n      mload(0x40)\n      0x08c379a000000000000000000000000000000000000000000000000000000000\n      dup2\n      mstore\n      0x04\n      add\n      tag_248\n      swap1\n      tag_249\n      jump\t// in\n    tag_248:\n      mload(0x40)\n      dup1\n      swap2\n      sub\n      swap1\n      revert\n    tag_247:\n        /* \"OnDemo/contracts/AccountManagement.sol\":2518:2540  RoleMap memory roleMap */\n      0x00\n        /* \"OnDemo/contracts/AccountManagement.sol\":2543:2577  RoleMap(false, false, false, true) */\n      mload(0x40)\n      dup1\n      0x80\n      add\n      0x40\n      mstore\n      dup1\n        /* \"OnDemo/contracts/AccountManagement.sol\":2551:2556  false */\n      0x00\n        /* \"OnDemo/contracts/AccountManagement.sol\":2543:2577  RoleMap(false, false, false, true) */\n      iszero\n      iszero\n      dup2\n      mstore\n      0x20\n      add\n        /* \"OnDemo/contracts/AccountManagement.sol\":2558:2563  false */\n      0x00\n        /* \"OnDemo/contracts/AccountManagement.sol\":2543:2577  RoleMap(false, false, false, true) */\n      iszero\n      iszero\n      dup2\n      mstore\n      0x20\n      add\n        /* \"OnDemo/contracts/AccountManagement.sol\":2565:2570  false */\n      0x00\n        /* \"OnDemo/contracts/AccountManagement.sol\":2543:2577  RoleMap(false, false, false, true) */\n      iszero\n      iszero\n      dup2\n      mstore\n      0x20\n      add\n        /* \"OnDemo/contracts/AccountManagement.sol\":2572:2576  true */\n      0x01\n        /* \"OnDemo/contracts/AccountManagement.sol\":2543:2577  RoleMap(false, false, false, true) */\n      iszero\n      iszero\n      dup2\n      mstore\n      pop\n        /* \"OnDemo/contracts/AccountManagement.sol\":2518:2577  RoleMap memory roleMap = RoleMap(false, false, false, true) */\n      swap1\n      pop\n        /* \"OnDemo/contracts/AccountManagement.sol\":2588:2604  User memory user */\n      0x00\n        /* \"OnDemo/contracts/AccountManagement.sol\":2607:2675  User(_address, _firstName, _secondName, _mailAdress, false, roleMap) */\n      mload(0x40)\n      dup1\n      0xc0\n      add\n      0x40\n      mstore\n      dup1\n        /* \"OnDemo/contracts/AccountManagement.sol\":2612:2620  _address */\n      dup9\n        /* \"OnDemo/contracts/AccountManagement.sol\":2607:2675  User(_address, _firstName, _secondName, _mailAdress, false, roleMap) */\n      0xffffffffffffffffffffffffffffffffffffffff\n      and\n      dup2\n      mstore\n      0x20\n      add\n        /* \"OnDemo/contracts/AccountManagement.sol\":2622:2632  _firstName */\n      dup8\n        /* \"OnDemo/contracts/AccountManagement.sol\":2607:2675  User(_address, _firstName, _secondName, _mailAdress, false, roleMap) */\n      dup2\n      mstore\n      0x20\n      add\n        /* \"OnDemo/contracts/AccountManagement.sol\":2634:2645  _secondName */\n      dup7\n        /* \"OnDemo/contracts/AccountManagement.sol\":2607:2675  User(_address, _firstName, _secondName, _mailAdress, false, roleMap) */\n      dup2\n      mstore\n      0x20\n      add\n        /* \"OnDemo/contracts/AccountManagement.sol\":2647:2658  _mailAdress */\n      dup6\n        /* \"OnDemo/contracts/AccountManagement.sol\":2607:2675  User(_address, _firstName, _secondName, _mailAdress, false, roleMap) */\n      dup2\n      mstore\n      0x20\n      add\n        /* \"OnDemo/contracts/AccountManagement.sol\":2660:2665  false */\n      0x00\n        /* \"OnDemo/contracts/AccountManagement.sol\":2607:2675  User(_address, _firstName, _secondName, _mailAdress, false, roleMap) */\n      iszero\n      iszero\n      dup2\n      mstore\n      0x20\n      add\n        /* \"OnDemo/contracts/AccountManagement.sol\":2667:2674  roleMap */\n      dup4\n        /* \"OnDemo/contracts/AccountManagement.sol\":2607:2675  User(_address, _firstName, _secondName, _mailAdress, false, roleMap) */\n      dup2\n      mstore\n      pop\n        /* \"OnDemo/contracts/AccountManagement.sol\":2588:2675  User memory user = User(_address, _firstName, _secondName, _mailAdress, false, roleMap) */\n      swap1\n      pop\n        /* \"OnDemo/contracts/AccountManagement.sol\":2704:2708  user */\n      dup1\n        /* \"OnDemo/contracts/AccountManagement.sol\":2686:2691  users */\n      0x02\n        /* \"OnDemo/contracts/AccountManagement.sol\":2686:2701  users[_address] */\n      0x00\n        /* \"OnDemo/contracts/AccountManagement.sol\":2692:2700  _address */\n      dup10\n        /* \"OnDemo/contracts/AccountManagement.sol\":2686:2701  users[_address] */\n      0xffffffffffffffffffffffffffffffffffffffff\n      and\n      0xffffffffffffffffffffffffffffffffffffffff\n      and\n      dup2\n      mstore\n      0x20\n      add\n      swap1\n      dup2\n      mstore\n      0x20\n      add\n      0x00\n      keccak256\n        /* \"OnDemo/contracts/AccountManagement.sol\":2686:2708  users[_address] = user */\n      0x00\n      dup3\n      add\n      mload\n      dup2\n      0x00\n      add\n      exp(0x0100, 0x00)\n      dup2\n      sload\n      dup2\n      0xffffffffffffffffffffffffffffffffffffffff\n      mul\n      not\n      and\n      swap1\n      dup4\n      0xffffffffffffffffffffffffffffffffffffffff\n      and\n      mul\n      or\n      swap1\n      sstore\n      pop\n      0x20\n      dup3\n      add\n      mload\n      dup2\n      0x01\n      add\n      swap1\n      dup1\n      mload\n      swap1\n      0x20\n      add\n      swap1\n      tag_251\n      swap3\n      swap2\n      swap1\n      tag_252\n      jump\t// in\n    tag_251:\n      pop\n      0x40\n      dup3\n      add\n      mload\n      dup2\n      0x02\n      add\n      swap1\n      dup1\n      mload\n      swap1\n      0x20\n      add\n      swap1\n      tag_253\n      swap3\n      swap2\n      swap1\n      tag_252\n      jump\t// in\n    tag_253:\n      pop\n      0x60\n      dup3\n      add\n      mload\n      dup2\n      0x03\n      add\n      swap1\n      dup1\n      mload\n      swap1\n      0x20\n      add\n      swap1\n      tag_254\n      swap3\n      swap2\n      swap1\n      tag_252\n      jump\t// in\n    tag_254:\n      pop\n      0x80\n      dup3\n      add\n      mload\n      dup2\n      0x04\n      add\n      exp(0x0100, 0x00)\n      dup2\n      sload\n      dup2\n      0xff\n      mul\n      not\n      and\n      swap1\n      dup4\n      iszero\n      iszero\n      mul\n      or\n      swap1\n      sstore\n      pop\n      0xa0\n      dup3\n      add\n      mload\n      dup2\n      0x05\n      add\n      0x00\n      dup3\n      add\n      mload\n      dup2\n      0x00\n      add\n      exp(0x0100, 0x00)\n      dup2\n      sload\n      dup2\n      0xff\n      mul\n      not\n      and\n      swap1\n      dup4\n      iszero\n      iszero\n      mul\n      or\n      swap1\n      sstore\n      pop\n      0x20\n      dup3\n      add\n      mload\n      dup2\n      0x00\n      add\n      exp(0x0100, 0x01)\n      dup2\n      sload\n      dup2\n      0xff\n      mul\n      not\n      and\n      swap1\n      dup4\n      iszero\n      iszero\n      mul\n      or\n      swap1\n      sstore\n      pop\n      0x40\n      dup3\n      add\n      mload\n      dup2\n      0x00\n      add\n      exp(0x0100, 0x02)\n      dup2\n      sload\n      dup2\n      0xff\n      mul\n      not\n      and\n      swap1\n      dup4\n      iszero\n      iszero\n      mul\n      or\n      swap1\n      sstore\n      pop\n      0x60\n      dup3\n      add\n      mload\n      dup2\n      0x00\n      add\n      exp(0x0100, 0x03)\n      dup2\n      sload\n      dup2\n      0xff\n      mul\n      not\n      and\n      swap1\n      dup4\n      iszero\n      iszero\n      mul\n      or\n      swap1\n      sstore\n      pop\n      pop\n      pop\n      swap1\n      pop\n      pop\n        /* \"OnDemo/contracts/AccountManagement.sol\":2507:2721  {... */\n      pop\n      pop\n        /* \"OnDemo/contracts/AccountManagement.sol\":2356:2721  function createAccount(address _address, string memory _firstName, string memory _secondName, string memory _mailAdress) public userNotExists(_address){... */\n      pop\n      pop\n      pop\n      pop\n      pop\n      jump\t// out\n        /* \"OnDemo/contracts/AccountManagement.sol\":7429:7551  function hasGuestRole(address _address) public view returns (bool) {... */\n    tag_77:\n        /* \"OnDemo/contracts/AccountManagement.sol\":7490:7494  bool */\n      0x00\n        /* \"OnDemo/contracts/AccountManagement.sol\":7514:7543  hasRole(_address, Role.GUEST) */\n      tag_256\n        /* \"OnDemo/contracts/AccountManagement.sol\":7522:7530  _address */\n      dup3\n        /* \"OnDemo/contracts/AccountManagement.sol\":7532:7542  Role.GUEST */\n      0x03\n        /* \"OnDemo/contracts/AccountManagement.sol\":7514:7521  hasRole */\n      tag_107\n        /* \"OnDemo/contracts/AccountManagement.sol\":7514:7543  hasRole(_address, Role.GUEST) */\n      jump\t// in\n    tag_256:\n        /* \"OnDemo/contracts/AccountManagement.sol\":7507:7543  return hasRole(_address, Role.GUEST) */\n      swap1\n      pop\n        /* \"OnDemo/contracts/AccountManagement.sol\":7429:7551  function hasGuestRole(address _address) public view returns (bool) {... */\n      swap2\n      swap1\n      pop\n      jump\t// out\n        /* \"OnDemo/contracts/AccountManagement.sol\":7143:7281  function hasCouncilMemberRole(address _address) public view returns (bool) {... */\n    tag_81:\n        /* \"OnDemo/contracts/AccountManagement.sol\":7212:7216  bool */\n      0x00\n        /* \"OnDemo/contracts/AccountManagement.sol\":7236:7273  hasRole(_address, Role.COUNCILMEMBER) */\n      tag_258\n        /* \"OnDemo/contracts/AccountManagement.sol\":7244:7252  _address */\n      dup3\n        /* \"OnDemo/contracts/AccountManagement.sol\":7254:7272  Role.COUNCILMEMBER */\n      0x01\n        /* \"OnDemo/contracts/AccountManagement.sol\":7236:7243  hasRole */\n      tag_107\n        /* \"OnDemo/contracts/AccountManagement.sol\":7236:7273  hasRole(_address, Role.COUNCILMEMBER) */\n      jump\t// in\n    tag_258:\n        /* \"OnDemo/contracts/AccountManagement.sol\":7229:7273  return hasRole(_address, Role.COUNCILMEMBER) */\n      swap1\n      pop\n        /* \"OnDemo/contracts/AccountManagement.sol\":7143:7281  function hasCouncilMemberRole(address _address) public view returns (bool) {... */\n      swap2\n      swap1\n      pop\n      jump\t// out\n        /* \"OnDemo/contracts/AccountManagement.sol\":6429:6999  function hasRole(address _address, Role _role) private view returns (bool){... */\n    tag_107:\n        /* \"OnDemo/contracts/AccountManagement.sol\":6498:6502  bool */\n      0x00\n        /* \"OnDemo/contracts/AccountManagement.sol\":6514:6530  User memory user */\n      dup1\n        /* \"OnDemo/contracts/AccountManagement.sol\":6533:6538  users */\n      0x02\n        /* \"OnDemo/contracts/AccountManagement.sol\":6533:6548  users[_address] */\n      0x00\n        /* \"OnDemo/contracts/AccountManagement.sol\":6539:6547  _address */\n      dup6\n        /* \"OnDemo/contracts/AccountManagement.sol\":6533:6548  users[_address] */\n      0xffffffffffffffffffffffffffffffffffffffff\n      and\n      0xffffffffffffffffffffffffffffffffffffffff\n      and\n      dup2\n      mstore\n      0x20\n      add\n      swap1\n      dup2\n      mstore\n      0x20\n      add\n      0x00\n      keccak256\n        /* \"OnDemo/contracts/AccountManagement.sol\":6514:6548  User memory user = users[_address] */\n      mload(0x40)\n      dup1\n      0xc0\n      add\n      0x40\n      mstore\n      swap1\n      dup2\n      0x00\n      dup3\n      add\n      0x00\n      swap1\n      sload\n      swap1\n      0x0100\n      exp\n      swap1\n      div\n      0xffffffffffffffffffffffffffffffffffffffff\n      and\n      0xffffffffffffffffffffffffffffffffffffffff\n      and\n      0xffffffffffffffffffffffffffffffffffffffff\n      and\n      dup2\n      mstore\n      0x20\n      add\n      0x01\n      dup3\n      add\n      dup1\n      sload\n      tag_260\n      swap1\n      tag_85\n      jump\t// in\n    tag_260:\n      dup1\n      0x1f\n      add\n      0x20\n      dup1\n      swap2\n      div\n      mul\n      0x20\n      add\n      mload(0x40)\n      swap1\n      dup2\n      add\n      0x40\n      mstore\n      dup1\n      swap3\n      swap2\n      swap1\n      dup2\n      dup2\n      mstore\n      0x20\n      add\n      dup3\n      dup1\n      sload\n      tag_261\n      swap1\n      tag_85\n      jump\t// in\n    tag_261:\n      dup1\n      iszero\n      tag_262\n      jumpi\n      dup1\n      0x1f\n      lt\n      tag_263\n      jumpi\n      0x0100\n      dup1\n      dup4\n      sload\n      div\n      mul\n      dup4\n      mstore\n      swap2\n      0x20\n      add\n      swap2\n      jump(tag_262)\n    tag_263:\n      dup3\n      add\n      swap2\n      swap1\n      0x00\n      mstore\n      keccak256(0x00, 0x20)\n      swap1\n    tag_264:\n      dup2\n      sload\n      dup2\n      mstore\n      swap1\n      0x01\n      add\n      swap1\n      0x20\n      add\n      dup1\n      dup4\n      gt\n      tag_264\n      jumpi\n      dup3\n      swap1\n      sub\n      0x1f\n      and\n      dup3\n      add\n      swap2\n    tag_262:\n      pop\n      pop\n      pop\n      pop\n      pop\n      dup2\n      mstore\n      0x20\n      add\n      0x02\n      dup3\n      add\n      dup1\n      sload\n      tag_265\n      swap1\n      tag_85\n      jump\t// in\n    tag_265:\n      dup1\n      0x1f\n      add\n      0x20\n      dup1\n      swap2\n      div\n      mul\n      0x20\n      add\n      mload(0x40)\n      swap1\n      dup2\n      add\n      0x40\n      mstore\n      dup1\n      swap3\n      swap2\n      swap1\n      dup2\n      dup2\n      mstore\n      0x20\n      add\n      dup3\n      dup1\n      sload\n      tag_266\n      swap1\n      tag_85\n      jump\t// in\n    tag_266:\n      dup1\n      iszero\n      tag_267\n      jumpi\n      dup1\n      0x1f\n      lt\n      tag_268\n      jumpi\n      0x0100\n      dup1\n      dup4\n      sload\n      div\n      mul\n      dup4\n      mstore\n      swap2\n      0x20\n      add\n      swap2\n      jump(tag_267)\n    tag_268:\n      dup3\n      add\n      swap2\n      swap1\n      0x00\n      mstore\n      keccak256(0x00, 0x20)\n      swap1\n    tag_269:\n      dup2\n      sload\n      dup2\n      mstore\n      swap1\n      0x01\n      add\n      swap1\n      0x20\n      add\n      dup1\n      dup4\n      gt\n      tag_269\n      jumpi\n      dup3\n      swap1\n      sub\n      0x1f\n      and\n      dup3\n      add\n      swap2\n    tag_267:\n      pop\n      pop\n      pop\n      pop\n      pop\n      dup2\n      mstore\n      0x20\n      add\n      0x03\n      dup3\n      add\n      dup1\n      sload\n      tag_270\n      swap1\n      tag_85\n      jump\t// in\n    tag_270:\n      dup1\n      0x1f\n      add\n      0x20\n      dup1\n      swap2\n      div\n      mul\n      0x20\n      add\n      mload(0x40)\n      swap1\n      dup2\n      add\n      0x40\n      mstore\n      dup1\n      swap3\n      swap2\n      swap1\n      dup2\n      dup2\n      mstore\n      0x20\n      add\n      dup3\n      dup1\n      sload\n      tag_271\n      swap1\n      tag_85\n      jump\t// in\n    tag_271:\n      dup1\n      iszero\n      tag_272\n      jumpi\n      dup1\n      0x1f\n      lt\n      tag_273\n      jumpi\n      0x0100\n      dup1\n      dup4\n      sload\n      div\n      mul\n      dup4\n      mstore\n      swap2\n      0x20\n      add\n      swap2\n      jump(tag_272)\n    tag_273:\n      dup3\n      add\n      swap2\n      swap1\n      0x00\n      mstore\n      keccak256(0x00, 0x20)\n      swap1\n    tag_274:\n      dup2\n      sload\n      dup2\n      mstore\n      swap1\n      0x01\n      add\n      swap1\n      0x20\n      add\n      dup1\n      dup4\n      gt\n      tag_274\n      jumpi\n      dup3\n      swap1\n      sub\n      0x1f\n      and\n      dup3\n      add\n      swap2\n    tag_272:\n      pop\n      pop\n      pop\n      pop\n      pop\n      dup2\n      mstore\n      0x20\n      add\n      0x04\n      dup3\n      add\n      0x00\n      swap1\n      sload\n      swap1\n      0x0100\n      exp\n      swap1\n      div\n      0xff\n      and\n      iszero\n      iszero\n      iszero\n      iszero\n      dup2\n      mstore\n      0x20\n      add\n      0x05\n      dup3\n      add\n      mload(0x40)\n      dup1\n      0x80\n      add\n      0x40\n      mstore\n      swap1\n      dup2\n      0x00\n      dup3\n      add\n      0x00\n      swap1\n      sload\n      swap1\n      0x0100\n      exp\n      swap1\n      div\n      0xff\n      and\n      iszero\n      iszero\n      iszero\n      iszero\n      dup2\n      mstore\n      0x20\n      add\n      0x00\n      dup3\n      add\n      0x01\n      swap1\n      sload\n      swap1\n      0x0100\n      exp\n      swap1\n      div\n      0xff\n      and\n      iszero\n      iszero\n      iszero\n      iszero\n      dup2\n      mstore\n      0x20\n      add\n      0x00\n      dup3\n      add\n      0x02\n      swap1\n      sload\n      swap1\n      0x0100\n      exp\n      swap1\n      div\n      0xff\n      and\n      iszero\n      iszero\n      iszero\n      iszero\n      dup2\n      mstore\n      0x20\n      add\n      0x00\n      dup3\n      add\n      0x03\n      swap1\n      sload\n      swap1\n      0x0100\n      exp\n      swap1\n      div\n      0xff\n      and\n      iszero\n      iszero\n      iszero\n      iszero\n      dup2\n      mstore\n      pop\n      pop\n      dup2\n      mstore\n      pop\n      pop\n      swap1\n      pop\n        /* \"OnDemo/contracts/AccountManagement.sol\":6559:6581  RoleMap memory roleMap */\n      0x00\n        /* \"OnDemo/contracts/AccountManagement.sol\":6584:6588  user */\n      dup2\n        /* \"OnDemo/contracts/AccountManagement.sol\":6584:6596  user.roleMap */\n      0xa0\n      add\n      mload\n        /* \"OnDemo/contracts/AccountManagement.sol\":6559:6596  RoleMap memory roleMap = user.roleMap */\n      swap1\n      pop\n        /* \"OnDemo/contracts/AccountManagement.sol\":6621:6632  Role.LEADER */\n      0x00\n        /* \"OnDemo/contracts/AccountManagement.sol\":6612:6632  _role == Role.LEADER */\n      0x03\n      dup2\n      gt\n      iszero\n      tag_275\n      jumpi\n      tag_276\n      tag_131\n      jump\t// in\n    tag_276:\n    tag_275:\n        /* \"OnDemo/contracts/AccountManagement.sol\":6612:6617  _role */\n      dup5\n        /* \"OnDemo/contracts/AccountManagement.sol\":6612:6632  _role == Role.LEADER */\n      0x03\n      dup2\n      gt\n      iszero\n      tag_277\n      jumpi\n      tag_278\n      tag_131\n      jump\t// in\n    tag_278:\n    tag_277:\n      eq\n        /* \"OnDemo/contracts/AccountManagement.sol\":6609:6969  if(_role == Role.LEADER){... */\n      iszero\n      tag_279\n      jumpi\n        /* \"OnDemo/contracts/AccountManagement.sol\":6655:6662  roleMap */\n      dup1\n        /* \"OnDemo/contracts/AccountManagement.sol\":6655:6671  roleMap.isLeader */\n      0x00\n      add\n      mload\n        /* \"OnDemo/contracts/AccountManagement.sol\":6648:6671  return roleMap.isLeader */\n      swap3\n      pop\n      pop\n      pop\n      jump(tag_259)\n        /* \"OnDemo/contracts/AccountManagement.sol\":6609:6969  if(_role == Role.LEADER){... */\n    tag_279:\n        /* \"OnDemo/contracts/AccountManagement.sol\":6710:6728  Role.COUNCILMEMBER */\n      0x01\n        /* \"OnDemo/contracts/AccountManagement.sol\":6701:6728  _role == Role.COUNCILMEMBER */\n      0x03\n      dup2\n      gt\n      iszero\n      tag_281\n      jumpi\n      tag_282\n      tag_131\n      jump\t// in\n    tag_282:\n    tag_281:\n        /* \"OnDemo/contracts/AccountManagement.sol\":6701:6706  _role */\n      dup5\n        /* \"OnDemo/contracts/AccountManagement.sol\":6701:6728  _role == Role.COUNCILMEMBER */\n      0x03\n      dup2\n      gt\n      iszero\n      tag_283\n      jumpi\n      tag_284\n      tag_131\n      jump\t// in\n    tag_284:\n    tag_283:\n      eq\n        /* \"OnDemo/contracts/AccountManagement.sol\":6698:6969  if(_role == Role.COUNCILMEMBER){... */\n      iszero\n      tag_285\n      jumpi\n        /* \"OnDemo/contracts/AccountManagement.sol\":6751:6758  roleMap */\n      dup1\n        /* \"OnDemo/contracts/AccountManagement.sol\":6751:6774  roleMap.isCouncilMember */\n      0x20\n      add\n      mload\n        /* \"OnDemo/contracts/AccountManagement.sol\":6744:6774  return roleMap.isCouncilMember */\n      swap3\n      pop\n      pop\n      pop\n      jump(tag_259)\n        /* \"OnDemo/contracts/AccountManagement.sol\":6698:6969  if(_role == Role.COUNCILMEMBER){... */\n    tag_285:\n        /* \"OnDemo/contracts/AccountManagement.sol\":6820:6831  Role.MEMBER */\n      0x02\n        /* \"OnDemo/contracts/AccountManagement.sol\":6811:6831  _role == Role.MEMBER */\n      0x03\n      dup2\n      gt\n      iszero\n      tag_287\n      jumpi\n      tag_288\n      tag_131\n      jump\t// in\n    tag_288:\n    tag_287:\n        /* \"OnDemo/contracts/AccountManagement.sol\":6811:6816  _role */\n      dup5\n        /* \"OnDemo/contracts/AccountManagement.sol\":6811:6831  _role == Role.MEMBER */\n      0x03\n      dup2\n      gt\n      iszero\n      tag_289\n      jumpi\n      tag_290\n      tag_131\n      jump\t// in\n    tag_290:\n    tag_289:\n      eq\n        /* \"OnDemo/contracts/AccountManagement.sol\":6808:6969  if(_role == Role.MEMBER){... */\n      iszero\n      tag_291\n      jumpi\n        /* \"OnDemo/contracts/AccountManagement.sol\":6854:6861  roleMap */\n      dup1\n        /* \"OnDemo/contracts/AccountManagement.sol\":6854:6870  roleMap.isMember */\n      0x40\n      add\n      mload\n        /* \"OnDemo/contracts/AccountManagement.sol\":6847:6870  return roleMap.isMember */\n      swap3\n      pop\n      pop\n      pop\n      jump(tag_259)\n        /* \"OnDemo/contracts/AccountManagement.sol\":6808:6969  if(_role == Role.MEMBER){... */\n    tag_291:\n        /* \"OnDemo/contracts/AccountManagement.sol\":6909:6919  Role.GUEST */\n      0x03\n        /* \"OnDemo/contracts/AccountManagement.sol\":6900:6919  _role == Role.GUEST */\n      dup1\n      dup2\n      gt\n      iszero\n      tag_293\n      jumpi\n      tag_294\n      tag_131\n      jump\t// in\n    tag_294:\n    tag_293:\n        /* \"OnDemo/contracts/AccountManagement.sol\":6900:6905  _role */\n      dup5\n        /* \"OnDemo/contracts/AccountManagement.sol\":6900:6919  _role == Role.GUEST */\n      0x03\n      dup2\n      gt\n      iszero\n      tag_295\n      jumpi\n      tag_296\n      tag_131\n      jump\t// in\n    tag_296:\n    tag_295:\n      eq\n        /* \"OnDemo/contracts/AccountManagement.sol\":6897:6969  if(_role == Role.GUEST){... */\n      iszero\n      tag_297\n      jumpi\n        /* \"OnDemo/contracts/AccountManagement.sol\":6942:6949  roleMap */\n      dup1\n        /* \"OnDemo/contracts/AccountManagement.sol\":6942:6957  roleMap.isGuest */\n      0x60\n      add\n      mload\n        /* \"OnDemo/contracts/AccountManagement.sol\":6935:6957  return roleMap.isGuest */\n      swap3\n      pop\n      pop\n      pop\n      jump(tag_259)\n        /* \"OnDemo/contracts/AccountManagement.sol\":6897:6969  if(_role == Role.GUEST){... */\n    tag_297:\n        /* \"OnDemo/contracts/AccountManagement.sol\":6986:6991  false */\n      0x00\n        /* \"OnDemo/contracts/AccountManagement.sol\":6979:6991  return false */\n      swap3\n      pop\n      pop\n      pop\n        /* \"OnDemo/contracts/AccountManagement.sol\":6429:6999  function hasRole(address _address, Role _role) private view returns (bool){... */\n    tag_259:\n      swap3\n      swap2\n      pop\n      pop\n      jump\t// out\n    tag_243:\n      pop\n      dup1\n      sload\n      tag_298\n      swap1\n      tag_85\n      jump\t// in\n    tag_298:\n      0x00\n      dup3\n      sstore\n      dup1\n      0x1f\n      lt\n      tag_300\n      jumpi\n      pop\n      jump(tag_299)\n    tag_300:\n      0x1f\n      add\n      0x20\n      swap1\n      div\n      swap1\n      0x00\n      mstore\n      keccak256(0x00, 0x20)\n      swap1\n      dup2\n      add\n      swap1\n      tag_301\n      swap2\n      swap1\n      tag_302\n      jump\t// in\n    tag_301:\n    tag_299:\n      pop\n      jump\t// out\n    tag_252:\n      dup3\n      dup1\n      sload\n      tag_303\n      swap1\n      tag_85\n      jump\t// in\n    tag_303:\n      swap1\n      0x00\n      mstore\n      keccak256(0x00, 0x20)\n      swap1\n      0x1f\n      add\n      0x20\n      swap1\n      div\n      dup2\n      add\n      swap3\n      dup3\n      tag_305\n      jumpi\n      0x00\n      dup6\n      sstore\n      jump(tag_304)\n    tag_305:\n      dup3\n      0x1f\n      lt\n      tag_306\n      jumpi\n      dup1\n      mload\n      not(0xff)\n      and\n      dup4\n      dup1\n      add\n      or\n      dup6\n      sstore\n      jump(tag_304)\n    tag_306:\n      dup3\n      dup1\n      add\n      0x01\n      add\n      dup6\n      sstore\n      dup3\n      iszero\n      tag_304\n      jumpi\n      swap2\n      dup3\n      add\n    tag_307:\n      dup3\n      dup2\n      gt\n      iszero\n      tag_308\n      jumpi\n      dup3\n      mload\n      dup3\n      sstore\n      swap2\n      0x20\n      add\n      swap2\n      swap1\n      0x01\n      add\n      swap1\n      jump(tag_307)\n    tag_308:\n    tag_304:\n      pop\n      swap1\n      pop\n      tag_309\n      swap2\n      swap1\n      tag_302\n      jump\t// in\n    tag_309:\n      pop\n      swap1\n      jump\t// out\n    tag_302:\n    tag_310:\n      dup1\n      dup3\n      gt\n      iszero\n      tag_311\n      jumpi\n      0x00\n      dup2\n      0x00\n      swap1\n      sstore\n      pop\n      0x01\n      add\n      jump(tag_310)\n    tag_311:\n      pop\n      swap1\n      jump\t// out\n        /* \"#utility.yul\":7:82   */\n    tag_312:\n        /* \"#utility.yul\":40:46   */\n      0x00\n        /* \"#utility.yul\":73:75   */\n      0x40\n        /* \"#utility.yul\":67:76   */\n      mload\n        /* \"#utility.yul\":57:76   */\n      swap1\n      pop\n        /* \"#utility.yul\":7:82   */\n      swap1\n      jump\t// out\n        /* \"#utility.yul\":88:205   */\n    tag_313:\n        /* \"#utility.yul\":197:198   */\n      0x00\n        /* \"#utility.yul\":194:195   */\n      dup1\n        /* \"#utility.yul\":187:199   */\n      revert\n        /* \"#utility.yul\":211:328   */\n    tag_314:\n        /* \"#utility.yul\":320:321   */\n      0x00\n        /* \"#utility.yul\":317:318   */\n      dup1\n        /* \"#utility.yul\":310:322   */\n      revert\n        /* \"#utility.yul\":334:460   */\n    tag_315:\n        /* \"#utility.yul\":371:378   */\n      0x00\n        /* \"#utility.yul\":411:453   */\n      0xffffffffffffffffffffffffffffffffffffffff\n        /* \"#utility.yul\":404:409   */\n      dup3\n        /* \"#utility.yul\":400:454   */\n      and\n        /* \"#utility.yul\":389:454   */\n      swap1\n      pop\n        /* \"#utility.yul\":334:460   */\n      swap2\n      swap1\n      pop\n      jump\t// out\n        /* \"#utility.yul\":466:562   */\n    tag_316:\n        /* \"#utility.yul\":503:510   */\n      0x00\n        /* \"#utility.yul\":532:556   */\n      tag_351\n        /* \"#utility.yul\":550:555   */\n      dup3\n        /* \"#utility.yul\":532:556   */\n      tag_315\n      jump\t// in\n    tag_351:\n        /* \"#utility.yul\":521:556   */\n      swap1\n      pop\n        /* \"#utility.yul\":466:562   */\n      swap2\n      swap1\n      pop\n      jump\t// out\n        /* \"#utility.yul\":568:690   */\n    tag_317:\n        /* \"#utility.yul\":641:665   */\n      tag_353\n        /* \"#utility.yul\":659:664   */\n      dup2\n        /* \"#utility.yul\":641:665   */\n      tag_316\n      jump\t// in\n    tag_353:\n        /* \"#utility.yul\":634:639   */\n      dup2\n        /* \"#utility.yul\":631:666   */\n      eq\n        /* \"#utility.yul\":621:684   */\n      tag_354\n      jumpi\n        /* \"#utility.yul\":680:681   */\n      0x00\n        /* \"#utility.yul\":677:678   */\n      dup1\n        /* \"#utility.yul\":670:682   */\n      revert\n        /* \"#utility.yul\":621:684   */\n    tag_354:\n        /* \"#utility.yul\":568:690   */\n      pop\n      jump\t// out\n        /* \"#utility.yul\":696:835   */\n    tag_318:\n        /* \"#utility.yul\":742:747   */\n      0x00\n        /* \"#utility.yul\":780:786   */\n      dup2\n        /* \"#utility.yul\":767:787   */\n      calldataload\n        /* \"#utility.yul\":758:787   */\n      swap1\n      pop\n        /* \"#utility.yul\":796:829   */\n      tag_356\n        /* \"#utility.yul\":823:828   */\n      dup2\n        /* \"#utility.yul\":796:829   */\n      tag_317\n      jump\t// in\n    tag_356:\n        /* \"#utility.yul\":696:835   */\n      swap3\n      swap2\n      pop\n      pop\n      jump\t// out\n        /* \"#utility.yul\":841:1170   */\n    tag_24:\n        /* \"#utility.yul\":900:906   */\n      0x00\n        /* \"#utility.yul\":949:951   */\n      0x20\n        /* \"#utility.yul\":937:946   */\n      dup3\n        /* \"#utility.yul\":928:935   */\n      dup5\n        /* \"#utility.yul\":924:947   */\n      sub\n        /* \"#utility.yul\":920:952   */\n      slt\n        /* \"#utility.yul\":917:1036   */\n      iszero\n      tag_358\n      jumpi\n        /* \"#utility.yul\":955:1034   */\n      tag_359\n      tag_313\n      jump\t// in\n    tag_359:\n        /* \"#utility.yul\":917:1036   */\n    tag_358:\n        /* \"#utility.yul\":1075:1076   */\n      0x00\n        /* \"#utility.yul\":1100:1153   */\n      tag_360\n        /* \"#utility.yul\":1145:1152   */\n      dup5\n        /* \"#utility.yul\":1136:1142   */\n      dup3\n        /* \"#utility.yul\":1125:1134   */\n      dup6\n        /* \"#utility.yul\":1121:1143   */\n      add\n        /* \"#utility.yul\":1100:1153   */\n      tag_318\n      jump\t// in\n    tag_360:\n        /* \"#utility.yul\":1090:1153   */\n      swap2\n      pop\n        /* \"#utility.yul\":1046:1163   */\n      pop\n        /* \"#utility.yul\":841:1170   */\n      swap3\n      swap2\n      pop\n      pop\n      jump\t// out\n        /* \"#utility.yul\":1176:1266   */\n    tag_319:\n        /* \"#utility.yul\":1210:1217   */\n      0x00\n        /* \"#utility.yul\":1253:1258   */\n      dup2\n        /* \"#utility.yul\":1246:1259   */\n      iszero\n        /* \"#utility.yul\":1239:1260   */\n      iszero\n        /* \"#utility.yul\":1228:1260   */\n      swap1\n      pop\n        /* \"#utility.yul\":1176:1266   */\n      swap2\n      swap1\n      pop\n      jump\t// out\n        /* \"#utility.yul\":1272:1381   */\n    tag_320:\n        /* \"#utility.yul\":1353:1374   */\n      tag_363\n        /* \"#utility.yul\":1368:1373   */\n      dup2\n        /* \"#utility.yul\":1353:1374   */\n      tag_319\n      jump\t// in\n    tag_363:\n        /* \"#utility.yul\":1348:1351   */\n      dup3\n        /* \"#utility.yul\":1341:1375   */\n      mstore\n        /* \"#utility.yul\":1272:1381   */\n      pop\n      pop\n      jump\t// out\n        /* \"#utility.yul\":1387:1597   */\n    tag_27:\n        /* \"#utility.yul\":1474:1478   */\n      0x00\n        /* \"#utility.yul\":1512:1514   */\n      0x20\n        /* \"#utility.yul\":1501:1510   */\n      dup3\n        /* \"#utility.yul\":1497:1515   */\n      add\n        /* \"#utility.yul\":1489:1515   */\n      swap1\n      pop\n        /* \"#utility.yul\":1525:1590   */\n      tag_365\n        /* \"#utility.yul\":1587:1588   */\n      0x00\n        /* \"#utility.yul\":1576:1585   */\n      dup4\n        /* \"#utility.yul\":1572:1589   */\n      add\n        /* \"#utility.yul\":1563:1569   */\n      dup5\n        /* \"#utility.yul\":1525:1590   */\n      tag_320\n      jump\t// in\n    tag_365:\n        /* \"#utility.yul\":1387:1597   */\n      swap3\n      swap2\n      pop\n      pop\n      jump\t// out\n        /* \"#utility.yul\":1603:1680   */\n    tag_321:\n        /* \"#utility.yul\":1640:1647   */\n      0x00\n        /* \"#utility.yul\":1669:1674   */\n      dup2\n        /* \"#utility.yul\":1658:1674   */\n      swap1\n      pop\n        /* \"#utility.yul\":1603:1680   */\n      swap2\n      swap1\n      pop\n      jump\t// out\n        /* \"#utility.yul\":1686:1804   */\n    tag_322:\n        /* \"#utility.yul\":1773:1797   */\n      tag_368\n        /* \"#utility.yul\":1791:1796   */\n      dup2\n        /* \"#utility.yul\":1773:1797   */\n      tag_321\n      jump\t// in\n    tag_368:\n        /* \"#utility.yul\":1768:1771   */\n      dup3\n        /* \"#utility.yul\":1761:1798   */\n      mstore\n        /* \"#utility.yul\":1686:1804   */\n      pop\n      pop\n      jump\t// out\n        /* \"#utility.yul\":1810:2032   */\n    tag_35:\n        /* \"#utility.yul\":1903:1907   */\n      0x00\n        /* \"#utility.yul\":1941:1943   */\n      0x20\n        /* \"#utility.yul\":1930:1939   */\n      dup3\n        /* \"#utility.yul\":1926:1944   */\n      add\n        /* \"#utility.yul\":1918:1944   */\n      swap1\n      pop\n        /* \"#utility.yul\":1954:2025   */\n      tag_370\n        /* \"#utility.yul\":2022:2023   */\n      0x00\n        /* \"#utility.yul\":2011:2020   */\n      dup4\n        /* \"#utility.yul\":2007:2024   */\n      add\n        /* \"#utility.yul\":1998:2004   */\n      dup5\n        /* \"#utility.yul\":1954:2025   */\n      tag_322\n      jump\t// in\n    tag_370:\n        /* \"#utility.yul\":1810:2032   */\n      swap3\n      swap2\n      pop\n      pop\n      jump\t// out\n        /* \"#utility.yul\":2038:2143   */\n    tag_323:\n        /* \"#utility.yul\":2117:2118   */\n      0x04\n        /* \"#utility.yul\":2110:2115   */\n      dup2\n        /* \"#utility.yul\":2107:2119   */\n      lt\n        /* \"#utility.yul\":2097:2137   */\n      tag_372\n      jumpi\n        /* \"#utility.yul\":2133:2134   */\n      0x00\n        /* \"#utility.yul\":2130:2131   */\n      dup1\n        /* \"#utility.yul\":2123:2135   */\n      revert\n        /* \"#utility.yul\":2097:2137   */\n    tag_372:\n        /* \"#utility.yul\":2038:2143   */\n      pop\n      jump\t// out\n        /* \"#utility.yul\":2149:2300   */\n    tag_324:\n        /* \"#utility.yul\":2201:2206   */\n      0x00\n        /* \"#utility.yul\":2239:2245   */\n      dup2\n        /* \"#utility.yul\":2226:2246   */\n      calldataload\n        /* \"#utility.yul\":2217:2246   */\n      swap1\n      pop\n        /* \"#utility.yul\":2255:2294   */\n      tag_374\n        /* \"#utility.yul\":2288:2293   */\n      dup2\n        /* \"#utility.yul\":2255:2294   */\n      tag_323\n      jump\t// in\n    tag_374:\n        /* \"#utility.yul\":2149:2300   */\n      swap3\n      swap2\n      pop\n      pop\n      jump\t// out\n        /* \"#utility.yul\":2306:2792   */\n    tag_48:\n        /* \"#utility.yul\":2380:2386   */\n      0x00\n        /* \"#utility.yul\":2388:2394   */\n      dup1\n        /* \"#utility.yul\":2437:2439   */\n      0x40\n        /* \"#utility.yul\":2425:2434   */\n      dup4\n        /* \"#utility.yul\":2416:2423   */\n      dup6\n        /* \"#utility.yul\":2412:2435   */\n      sub\n        /* \"#utility.yul\":2408:2440   */\n      slt\n        /* \"#utility.yul\":2405:2524   */\n      iszero\n      tag_376\n      jumpi\n        /* \"#utility.yul\":2443:2522   */\n      tag_377\n      tag_313\n      jump\t// in\n    tag_377:\n        /* \"#utility.yul\":2405:2524   */\n    tag_376:\n        /* \"#utility.yul\":2563:2564   */\n      0x00\n        /* \"#utility.yul\":2588:2641   */\n      tag_378\n        /* \"#utility.yul\":2633:2640   */\n      dup6\n        /* \"#utility.yul\":2624:2630   */\n      dup3\n        /* \"#utility.yul\":2613:2622   */\n      dup7\n        /* \"#utility.yul\":2609:2631   */\n      add\n        /* \"#utility.yul\":2588:2641   */\n      tag_318\n      jump\t// in\n    tag_378:\n        /* \"#utility.yul\":2578:2641   */\n      swap3\n      pop\n        /* \"#utility.yul\":2534:2651   */\n      pop\n        /* \"#utility.yul\":2690:2692   */\n      0x20\n        /* \"#utility.yul\":2716:2775   */\n      tag_379\n        /* \"#utility.yul\":2767:2774   */\n      dup6\n        /* \"#utility.yul\":2758:2764   */\n      dup3\n        /* \"#utility.yul\":2747:2756   */\n      dup7\n        /* \"#utility.yul\":2743:2765   */\n      add\n        /* \"#utility.yul\":2716:2775   */\n      tag_324\n      jump\t// in\n    tag_379:\n        /* \"#utility.yul\":2706:2775   */\n      swap2\n      pop\n        /* \"#utility.yul\":2661:2785   */\n      pop\n        /* \"#utility.yul\":2306:2792   */\n      swap3\n      pop\n      swap3\n      swap1\n      pop\n      jump\t// out\n        /* \"#utility.yul\":2798:2916   */\n    tag_325:\n        /* \"#utility.yul\":2885:2909   */\n      tag_381\n        /* \"#utility.yul\":2903:2908   */\n      dup2\n        /* \"#utility.yul\":2885:2909   */\n      tag_316\n      jump\t// in\n    tag_381:\n        /* \"#utility.yul\":2880:2883   */\n      dup3\n        /* \"#utility.yul\":2873:2910   */\n      mstore\n        /* \"#utility.yul\":2798:2916   */\n      pop\n      pop\n      jump\t// out\n        /* \"#utility.yul\":2922:3144   */\n    tag_57:\n        /* \"#utility.yul\":3015:3019   */\n      0x00\n        /* \"#utility.yul\":3053:3055   */\n      0x20\n        /* \"#utility.yul\":3042:3051   */\n      dup3\n        /* \"#utility.yul\":3038:3056   */\n      add\n        /* \"#utility.yul\":3030:3056   */\n      swap1\n      pop\n        /* \"#utility.yul\":3066:3137   */\n      tag_383\n        /* \"#utility.yul\":3134:3135   */\n      0x00\n        /* \"#utility.yul\":3123:3132   */\n      dup4\n        /* \"#utility.yul\":3119:3136   */\n      add\n        /* \"#utility.yul\":3110:3116   */\n      dup5\n        /* \"#utility.yul\":3066:3137   */\n      tag_325\n      jump\t// in\n    tag_383:\n        /* \"#utility.yul\":2922:3144   */\n      swap3\n      swap2\n      pop\n      pop\n      jump\t// out\n        /* \"#utility.yul\":3150:3267   */\n    tag_326:\n        /* \"#utility.yul\":3259:3260   */\n      0x00\n        /* \"#utility.yul\":3256:3257   */\n      dup1\n        /* \"#utility.yul\":3249:3261   */\n      revert\n        /* \"#utility.yul\":3273:3390   */\n    tag_327:\n        /* \"#utility.yul\":3382:3383   */\n      0x00\n        /* \"#utility.yul\":3379:3380   */\n      dup1\n        /* \"#utility.yul\":3372:3384   */\n      revert\n        /* \"#utility.yul\":3396:3498   */\n    tag_328:\n        /* \"#utility.yul\":3437:3443   */\n      0x00\n        /* \"#utility.yul\":3488:3490   */\n      0x1f\n        /* \"#utility.yul\":3484:3491   */\n      not\n        /* \"#utility.yul\":3479:3481   */\n      0x1f\n        /* \"#utility.yul\":3472:3477   */\n      dup4\n        /* \"#utility.yul\":3468:3482   */\n      add\n        /* \"#utility.yul\":3464:3492   */\n      and\n        /* \"#utility.yul\":3454:3492   */\n      swap1\n      pop\n        /* \"#utility.yul\":3396:3498   */\n      swap2\n      swap1\n      pop\n      jump\t// out\n        /* \"#utility.yul\":3504:3684   */\n    tag_329:\n        /* \"#utility.yul\":3552:3629   */\n      0x4e487b7100000000000000000000000000000000000000000000000000000000\n        /* \"#utility.yul\":3549:3550   */\n      0x00\n        /* \"#utility.yul\":3542:3630   */\n      mstore\n        /* \"#utility.yul\":3649:3653   */\n      0x41\n        /* \"#utility.yul\":3646:3647   */\n      0x04\n        /* \"#utility.yul\":3639:3654   */\n      mstore\n        /* \"#utility.yul\":3673:3677   */\n      0x24\n        /* \"#utility.yul\":3670:3671   */\n      0x00\n        /* \"#utility.yul\":3663:3678   */\n      revert\n        /* \"#utility.yul\":3690:3971   */\n    tag_330:\n        /* \"#utility.yul\":3773:3800   */\n      tag_389\n        /* \"#utility.yul\":3795:3799   */\n      dup3\n        /* \"#utility.yul\":3773:3800   */\n      tag_328\n      jump\t// in\n    tag_389:\n        /* \"#utility.yul\":3765:3771   */\n      dup2\n        /* \"#utility.yul\":3761:3801   */\n      add\n        /* \"#utility.yul\":3903:3909   */\n      dup2\n        /* \"#utility.yul\":3891:3901   */\n      dup2\n        /* \"#utility.yul\":3888:3910   */\n      lt\n        /* \"#utility.yul\":3867:3885   */\n      0xffffffffffffffff\n        /* \"#utility.yul\":3855:3865   */\n      dup3\n        /* \"#utility.yul\":3852:3886   */\n      gt\n        /* \"#utility.yul\":3849:3911   */\n      or\n        /* \"#utility.yul\":3846:3934   */\n      iszero\n      tag_390\n      jumpi\n        /* \"#utility.yul\":3914:3932   */\n      tag_391\n      tag_329\n      jump\t// in\n    tag_391:\n        /* \"#utility.yul\":3846:3934   */\n    tag_390:\n        /* \"#utility.yul\":3954:3964   */\n      dup1\n        /* \"#utility.yul\":3950:3952   */\n      0x40\n        /* \"#utility.yul\":3943:3965   */\n      mstore\n        /* \"#utility.yul\":3733:3971   */\n      pop\n        /* \"#utility.yul\":3690:3971   */\n      pop\n      pop\n      jump\t// out\n        /* \"#utility.yul\":3977:4106   */\n    tag_331:\n        /* \"#utility.yul\":4011:4017   */\n      0x00\n        /* \"#utility.yul\":4038:4058   */\n      tag_393\n      tag_312\n      jump\t// in\n    tag_393:\n        /* \"#utility.yul\":4028:4058   */\n      swap1\n      pop\n        /* \"#utility.yul\":4067:4100   */\n      tag_394\n        /* \"#utility.yul\":4095:4099   */\n      dup3\n        /* \"#utility.yul\":4087:4093   */\n      dup3\n        /* \"#utility.yul\":4067:4100   */\n      tag_330\n      jump\t// in\n    tag_394:\n        /* \"#utility.yul\":3977:4106   */\n      swap2\n      swap1\n      pop\n      jump\t// out\n        /* \"#utility.yul\":4112:4420   */\n    tag_332:\n        /* \"#utility.yul\":4174:4178   */\n      0x00\n        /* \"#utility.yul\":4264:4282   */\n      0xffffffffffffffff\n        /* \"#utility.yul\":4256:4262   */\n      dup3\n        /* \"#utility.yul\":4253:4283   */\n      gt\n        /* \"#utility.yul\":4250:4306   */\n      iszero\n      tag_396\n      jumpi\n        /* \"#utility.yul\":4286:4304   */\n      tag_397\n      tag_329\n      jump\t// in\n    tag_397:\n        /* \"#utility.yul\":4250:4306   */\n    tag_396:\n        /* \"#utility.yul\":4324:4353   */\n      tag_398\n        /* \"#utility.yul\":4346:4352   */\n      dup3\n        /* \"#utility.yul\":4324:4353   */\n      tag_328\n      jump\t// in\n    tag_398:\n        /* \"#utility.yul\":4316:4353   */\n      swap1\n      pop\n        /* \"#utility.yul\":4408:4412   */\n      0x20\n        /* \"#utility.yul\":4402:4406   */\n      dup2\n        /* \"#utility.yul\":4398:4413   */\n      add\n        /* \"#utility.yul\":4390:4413   */\n      swap1\n      pop\n        /* \"#utility.yul\":4112:4420   */\n      swap2\n      swap1\n      pop\n      jump\t// out\n        /* \"#utility.yul\":4426:4580   */\n    tag_333:\n        /* \"#utility.yul\":4510:4516   */\n      dup3\n        /* \"#utility.yul\":4505:4508   */\n      dup2\n        /* \"#utility.yul\":4500:4503   */\n      dup4\n        /* \"#utility.yul\":4487:4517   */\n      calldatacopy\n        /* \"#utility.yul\":4572:4573   */\n      0x00\n        /* \"#utility.yul\":4563:4569   */\n      dup4\n        /* \"#utility.yul\":4558:4561   */\n      dup4\n        /* \"#utility.yul\":4554:4570   */\n      add\n        /* \"#utility.yul\":4547:4574   */\n      mstore\n        /* \"#utility.yul\":4426:4580   */\n      pop\n      pop\n      pop\n      jump\t// out\n        /* \"#utility.yul\":4586:4998   */\n    tag_334:\n        /* \"#utility.yul\":4664:4669   */\n      0x00\n        /* \"#utility.yul\":4689:4755   */\n      tag_401\n        /* \"#utility.yul\":4705:4754   */\n      tag_402\n        /* \"#utility.yul\":4747:4753   */\n      dup5\n        /* \"#utility.yul\":4705:4754   */\n      tag_332\n      jump\t// in\n    tag_402:\n        /* \"#utility.yul\":4689:4755   */\n      tag_331\n      jump\t// in\n    tag_401:\n        /* \"#utility.yul\":4680:4755   */\n      swap1\n      pop\n        /* \"#utility.yul\":4778:4784   */\n      dup3\n        /* \"#utility.yul\":4771:4776   */\n      dup2\n        /* \"#utility.yul\":4764:4785   */\n      mstore\n        /* \"#utility.yul\":4816:4820   */\n      0x20\n        /* \"#utility.yul\":4809:4814   */\n      dup2\n        /* \"#utility.yul\":4805:4821   */\n      add\n        /* \"#utility.yul\":4854:4857   */\n      dup5\n        /* \"#utility.yul\":4845:4851   */\n      dup5\n        /* \"#utility.yul\":4840:4843   */\n      dup5\n        /* \"#utility.yul\":4836:4852   */\n      add\n        /* \"#utility.yul\":4833:4858   */\n      gt\n        /* \"#utility.yul\":4830:4942   */\n      iszero\n      tag_403\n      jumpi\n        /* \"#utility.yul\":4861:4940   */\n      tag_404\n      tag_327\n      jump\t// in\n    tag_404:\n        /* \"#utility.yul\":4830:4942   */\n    tag_403:\n        /* \"#utility.yul\":4951:4992   */\n      tag_405\n        /* \"#utility.yul\":4985:4991   */\n      dup5\n        /* \"#utility.yul\":4980:4983   */\n      dup3\n        /* \"#utility.yul\":4975:4978   */\n      dup6\n        /* \"#utility.yul\":4951:4992   */\n      tag_333\n      jump\t// in\n    tag_405:\n        /* \"#utility.yul\":4670:4998   */\n      pop\n        /* \"#utility.yul\":4586:4998   */\n      swap4\n      swap3\n      pop\n      pop\n      pop\n      jump\t// out\n        /* \"#utility.yul\":5018:5358   */\n    tag_335:\n        /* \"#utility.yul\":5074:5079   */\n      0x00\n        /* \"#utility.yul\":5123:5126   */\n      dup3\n        /* \"#utility.yul\":5116:5120   */\n      0x1f\n        /* \"#utility.yul\":5108:5114   */\n      dup4\n        /* \"#utility.yul\":5104:5121   */\n      add\n        /* \"#utility.yul\":5100:5127   */\n      slt\n        /* \"#utility.yul\":5090:5212   */\n      tag_407\n      jumpi\n        /* \"#utility.yul\":5131:5210   */\n      tag_408\n      tag_326\n      jump\t// in\n    tag_408:\n        /* \"#utility.yul\":5090:5212   */\n    tag_407:\n        /* \"#utility.yul\":5248:5254   */\n      dup2\n        /* \"#utility.yul\":5235:5255   */\n      calldataload\n        /* \"#utility.yul\":5273:5352   */\n      tag_409\n        /* \"#utility.yul\":5348:5351   */\n      dup5\n        /* \"#utility.yul\":5340:5346   */\n      dup3\n        /* \"#utility.yul\":5333:5337   */\n      0x20\n        /* \"#utility.yul\":5325:5331   */\n      dup7\n        /* \"#utility.yul\":5321:5338   */\n      add\n        /* \"#utility.yul\":5273:5352   */\n      tag_334\n      jump\t// in\n    tag_409:\n        /* \"#utility.yul\":5264:5352   */\n      swap2\n      pop\n        /* \"#utility.yul\":5080:5358   */\n      pop\n        /* \"#utility.yul\":5018:5358   */\n      swap3\n      swap2\n      pop\n      pop\n      jump\t// out\n        /* \"#utility.yul\":5364:6669   */\n    tag_73:\n        /* \"#utility.yul\":5480:5486   */\n      0x00\n        /* \"#utility.yul\":5488:5494   */\n      dup1\n        /* \"#utility.yul\":5496:5502   */\n      0x00\n        /* \"#utility.yul\":5504:5510   */\n      dup1\n        /* \"#utility.yul\":5553:5556   */\n      0x80\n        /* \"#utility.yul\":5541:5550   */\n      dup6\n        /* \"#utility.yul\":5532:5539   */\n      dup8\n        /* \"#utility.yul\":5528:5551   */\n      sub\n        /* \"#utility.yul\":5524:5557   */\n      slt\n        /* \"#utility.yul\":5521:5641   */\n      iszero\n      tag_411\n      jumpi\n        /* \"#utility.yul\":5560:5639   */\n      tag_412\n      tag_313\n      jump\t// in\n    tag_412:\n        /* \"#utility.yul\":5521:5641   */\n    tag_411:\n        /* \"#utility.yul\":5680:5681   */\n      0x00\n        /* \"#utility.yul\":5705:5758   */\n      tag_413\n        /* \"#utility.yul\":5750:5757   */\n      dup8\n        /* \"#utility.yul\":5741:5747   */\n      dup3\n        /* \"#utility.yul\":5730:5739   */\n      dup9\n        /* \"#utility.yul\":5726:5748   */\n      add\n        /* \"#utility.yul\":5705:5758   */\n      tag_318\n      jump\t// in\n    tag_413:\n        /* \"#utility.yul\":5695:5758   */\n      swap5\n      pop\n        /* \"#utility.yul\":5651:5768   */\n      pop\n        /* \"#utility.yul\":5835:5837   */\n      0x20\n        /* \"#utility.yul\":5824:5833   */\n      dup6\n        /* \"#utility.yul\":5820:5838   */\n      add\n        /* \"#utility.yul\":5807:5839   */\n      calldataload\n        /* \"#utility.yul\":5866:5884   */\n      0xffffffffffffffff\n        /* \"#utility.yul\":5858:5864   */\n      dup2\n        /* \"#utility.yul\":5855:5885   */\n      gt\n        /* \"#utility.yul\":5852:5969   */\n      iszero\n      tag_414\n      jumpi\n        /* \"#utility.yul\":5888:5967   */\n      tag_415\n      tag_314\n      jump\t// in\n    tag_415:\n        /* \"#utility.yul\":5852:5969   */\n    tag_414:\n        /* \"#utility.yul\":5993:6056   */\n      tag_416\n        /* \"#utility.yul\":6048:6055   */\n      dup8\n        /* \"#utility.yul\":6039:6045   */\n      dup3\n        /* \"#utility.yul\":6028:6037   */\n      dup9\n        /* \"#utility.yul\":6024:6046   */\n      add\n        /* \"#utility.yul\":5993:6056   */\n      tag_335\n      jump\t// in\n    tag_416:\n        /* \"#utility.yul\":5983:6056   */\n      swap4\n      pop\n        /* \"#utility.yul\":5778:6066   */\n      pop\n        /* \"#utility.yul\":6133:6135   */\n      0x40\n        /* \"#utility.yul\":6122:6131   */\n      dup6\n        /* \"#utility.yul\":6118:6136   */\n      add\n        /* \"#utility.yul\":6105:6137   */\n      calldataload\n        /* \"#utility.yul\":6164:6182   */\n      0xffffffffffffffff\n        /* \"#utility.yul\":6156:6162   */\n      dup2\n        /* \"#utility.yul\":6153:6183   */\n      gt\n        /* \"#utility.yul\":6150:6267   */\n      iszero\n      tag_417\n      jumpi\n        /* \"#utility.yul\":6186:6265   */\n      tag_418\n      tag_314\n      jump\t// in\n    tag_418:\n        /* \"#utility.yul\":6150:6267   */\n    tag_417:\n        /* \"#utility.yul\":6291:6354   */\n      tag_419\n        /* \"#utility.yul\":6346:6353   */\n      dup8\n        /* \"#utility.yul\":6337:6343   */\n      dup3\n        /* \"#utility.yul\":6326:6335   */\n      dup9\n        /* \"#utility.yul\":6322:6344   */\n      add\n        /* \"#utility.yul\":6291:6354   */\n      tag_335\n      jump\t// in\n    tag_419:\n        /* \"#utility.yul\":6281:6354   */\n      swap3\n      pop\n        /* \"#utility.yul\":6076:6364   */\n      pop\n        /* \"#utility.yul\":6431:6433   */\n      0x60\n        /* \"#utility.yul\":6420:6429   */\n      dup6\n        /* \"#utility.yul\":6416:6434   */\n      add\n        /* \"#utility.yul\":6403:6435   */\n      calldataload\n        /* \"#utility.yul\":6462:6480   */\n      0xffffffffffffffff\n        /* \"#utility.yul\":6454:6460   */\n      dup2\n        /* \"#utility.yul\":6451:6481   */\n      gt\n        /* \"#utility.yul\":6448:6565   */\n      iszero\n      tag_420\n      jumpi\n        /* \"#utility.yul\":6484:6563   */\n      tag_421\n      tag_314\n      jump\t// in\n    tag_421:\n        /* \"#utility.yul\":6448:6565   */\n    tag_420:\n        /* \"#utility.yul\":6589:6652   */\n      tag_422\n        /* \"#utility.yul\":6644:6651   */\n      dup8\n        /* \"#utility.yul\":6635:6641   */\n      dup3\n        /* \"#utility.yul\":6624:6633   */\n      dup9\n        /* \"#utility.yul\":6620:6642   */\n      add\n        /* \"#utility.yul\":6589:6652   */\n      tag_335\n      jump\t// in\n    tag_422:\n        /* \"#utility.yul\":6579:6652   */\n      swap2\n      pop\n        /* \"#utility.yul\":6374:6662   */\n      pop\n        /* \"#utility.yul\":5364:6669   */\n      swap3\n      swap6\n      swap2\n      swap5\n      pop\n      swap3\n      pop\n      jump\t// out\n        /* \"#utility.yul\":6675:6855   */\n    tag_336:\n        /* \"#utility.yul\":6723:6800   */\n      0x4e487b7100000000000000000000000000000000000000000000000000000000\n        /* \"#utility.yul\":6720:6721   */\n      0x00\n        /* \"#utility.yul\":6713:6801   */\n      mstore\n        /* \"#utility.yul\":6820:6824   */\n      0x22\n        /* \"#utility.yul\":6817:6818   */\n      0x04\n        /* \"#utility.yul\":6810:6825   */\n      mstore\n        /* \"#utility.yul\":6844:6848   */\n      0x24\n        /* \"#utility.yul\":6841:6842   */\n      0x00\n        /* \"#utility.yul\":6834:6849   */\n      revert\n        /* \"#utility.yul\":6861:7181   */\n    tag_85:\n        /* \"#utility.yul\":6905:6911   */\n      0x00\n        /* \"#utility.yul\":6942:6943   */\n      0x02\n        /* \"#utility.yul\":6936:6940   */\n      dup3\n        /* \"#utility.yul\":6932:6944   */\n      div\n        /* \"#utility.yul\":6922:6944   */\n      swap1\n      pop\n        /* \"#utility.yul\":6989:6990   */\n      0x01\n        /* \"#utility.yul\":6983:6987   */\n      dup3\n        /* \"#utility.yul\":6979:6991   */\n      and\n        /* \"#utility.yul\":7010:7028   */\n      dup1\n        /* \"#utility.yul\":7000:7081   */\n      tag_425\n      jumpi\n        /* \"#utility.yul\":7066:7070   */\n      0x7f\n        /* \"#utility.yul\":7058:7064   */\n      dup3\n        /* \"#utility.yul\":7054:7071   */\n      and\n        /* \"#utility.yul\":7044:7071   */\n      swap2\n      pop\n        /* \"#utility.yul\":7000:7081   */\n    tag_425:\n        /* \"#utility.yul\":7128:7130   */\n      0x20\n        /* \"#utility.yul\":7120:7126   */\n      dup3\n        /* \"#utility.yul\":7117:7131   */\n      lt\n        /* \"#utility.yul\":7097:7115   */\n      dup2\n        /* \"#utility.yul\":7094:7132   */\n      eq\n        /* \"#utility.yul\":7091:7175   */\n      iszero\n      tag_426\n      jumpi\n        /* \"#utility.yul\":7147:7165   */\n      tag_427\n      tag_336\n      jump\t// in\n    tag_427:\n        /* \"#utility.yul\":7091:7175   */\n    tag_426:\n        /* \"#utility.yul\":6912:7181   */\n      pop\n        /* \"#utility.yul\":6861:7181   */\n      swap2\n      swap1\n      pop\n      jump\t// out\n        /* \"#utility.yul\":7187:7356   */\n    tag_337:\n        /* \"#utility.yul\":7271:7282   */\n      0x00\n        /* \"#utility.yul\":7305:7311   */\n      dup3\n        /* \"#utility.yul\":7300:7303   */\n      dup3\n        /* \"#utility.yul\":7293:7312   */\n      mstore\n        /* \"#utility.yul\":7345:7349   */\n      0x20\n        /* \"#utility.yul\":7340:7343   */\n      dup3\n        /* \"#utility.yul\":7336:7350   */\n      add\n        /* \"#utility.yul\":7321:7350   */\n      swap1\n      pop\n        /* \"#utility.yul\":7187:7356   */\n      swap3\n      swap2\n      pop\n      pop\n      jump\t// out\n        /* \"#utility.yul\":7362:7533   */\n    tag_338:\n        /* \"#utility.yul\":7502:7525   */\n      0x4163636f756e7420646f65736e27742065786973740000000000000000000000\n        /* \"#utility.yul\":7498:7499   */\n      0x00\n        /* \"#utility.yul\":7490:7496   */\n      dup3\n        /* \"#utility.yul\":7486:7500   */\n      add\n        /* \"#utility.yul\":7479:7526   */\n      mstore\n        /* \"#utility.yul\":7362:7533   */\n      pop\n      jump\t// out\n        /* \"#utility.yul\":7539:7905   */\n    tag_339:\n        /* \"#utility.yul\":7681:7684   */\n      0x00\n        /* \"#utility.yul\":7702:7769   */\n      tag_431\n        /* \"#utility.yul\":7766:7768   */\n      0x15\n        /* \"#utility.yul\":7761:7764   */\n      dup4\n        /* \"#utility.yul\":7702:7769   */\n      tag_337\n      jump\t// in\n    tag_431:\n        /* \"#utility.yul\":7695:7769   */\n      swap2\n      pop\n        /* \"#utility.yul\":7778:7871   */\n      tag_432\n        /* \"#utility.yul\":7867:7870   */\n      dup3\n        /* \"#utility.yul\":7778:7871   */\n      tag_338\n      jump\t// in\n    tag_432:\n        /* \"#utility.yul\":7896:7898   */\n      0x20\n        /* \"#utility.yul\":7891:7894   */\n      dup3\n        /* \"#utility.yul\":7887:7899   */\n      add\n        /* \"#utility.yul\":7880:7899   */\n      swap1\n      pop\n        /* \"#utility.yul\":7539:7905   */\n      swap2\n      swap1\n      pop\n      jump\t// out\n        /* \"#utility.yul\":7911:8330   */\n    tag_114:\n        /* \"#utility.yul\":8077:8081   */\n      0x00\n        /* \"#utility.yul\":8115:8117   */\n      0x20\n        /* \"#utility.yul\":8104:8113   */\n      dup3\n        /* \"#utility.yul\":8100:8118   */\n      add\n        /* \"#utility.yul\":8092:8118   */\n      swap1\n      pop\n        /* \"#utility.yul\":8164:8173   */\n      dup2\n        /* \"#utility.yul\":8158:8162   */\n      dup2\n        /* \"#utility.yul\":8154:8174   */\n      sub\n        /* \"#utility.yul\":8150:8151   */\n      0x00\n        /* \"#utility.yul\":8139:8148   */\n      dup4\n        /* \"#utility.yul\":8135:8152   */\n      add\n        /* \"#utility.yul\":8128:8175   */\n      mstore\n        /* \"#utility.yul\":8192:8323   */\n      tag_434\n        /* \"#utility.yul\":8318:8322   */\n      dup2\n        /* \"#utility.yul\":8192:8323   */\n      tag_339\n      jump\t// in\n    tag_434:\n        /* \"#utility.yul\":8184:8323   */\n      swap1\n      pop\n        /* \"#utility.yul\":7911:8330   */\n      swap2\n      swap1\n      pop\n      jump\t// out\n        /* \"#utility.yul\":8336:8516   */\n    tag_340:\n        /* \"#utility.yul\":8384:8461   */\n      0x4e487b7100000000000000000000000000000000000000000000000000000000\n        /* \"#utility.yul\":8381:8382   */\n      0x00\n        /* \"#utility.yul\":8374:8462   */\n      mstore\n        /* \"#utility.yul\":8481:8485   */\n      0x11\n        /* \"#utility.yul\":8478:8479   */\n      0x04\n        /* \"#utility.yul\":8471:8486   */\n      mstore\n        /* \"#utility.yul\":8505:8509   */\n      0x24\n        /* \"#utility.yul\":8502:8503   */\n      0x00\n        /* \"#utility.yul\":8495:8510   */\n      revert\n        /* \"#utility.yul\":8522:8693   */\n    tag_118:\n        /* \"#utility.yul\":8561:8564   */\n      0x00\n        /* \"#utility.yul\":8584:8608   */\n      tag_437\n        /* \"#utility.yul\":8602:8607   */\n      dup3\n        /* \"#utility.yul\":8584:8608   */\n      tag_321\n      jump\t// in\n    tag_437:\n        /* \"#utility.yul\":8575:8608   */\n      swap2\n      pop\n        /* \"#utility.yul\":8630:8634   */\n      0x00\n        /* \"#utility.yul\":8623:8628   */\n      dup3\n        /* \"#utility.yul\":8620:8635   */\n      eq\n        /* \"#utility.yul\":8617:8658   */\n      iszero\n      tag_438\n      jumpi\n        /* \"#utility.yul\":8638:8656   */\n      tag_439\n      tag_340\n      jump\t// in\n    tag_439:\n        /* \"#utility.yul\":8617:8658   */\n    tag_438:\n        /* \"#utility.yul\":8685:8686   */\n      0x01\n        /* \"#utility.yul\":8678:8683   */\n      dup3\n        /* \"#utility.yul\":8674:8687   */\n      sub\n        /* \"#utility.yul\":8667:8687   */\n      swap1\n      pop\n        /* \"#utility.yul\":8522:8693   */\n      swap2\n      swap1\n      pop\n      jump\t// out\n        /* \"#utility.yul\":8699:8920   */\n    tag_341:\n        /* \"#utility.yul\":8839:8873   */\n      0x4f6e6c79206f776e65722063616e2063616c6c20746869732066756e6374696f\n        /* \"#utility.yul\":8835:8836   */\n      0x00\n        /* \"#utility.yul\":8827:8833   */\n      dup3\n        /* \"#utility.yul\":8823:8837   */\n      add\n        /* \"#utility.yul\":8816:8874   */\n      mstore\n        /* \"#utility.yul\":8908:8912   */\n      0x6e2e000000000000000000000000000000000000000000000000000000000000\n        /* \"#utility.yul\":8903:8905   */\n      0x20\n        /* \"#utility.yul\":8895:8901   */\n      dup3\n        /* \"#utility.yul\":8891:8906   */\n      add\n        /* \"#utility.yul\":8884:8913   */\n      mstore\n        /* \"#utility.yul\":8699:8920   */\n      pop\n      jump\t// out\n        /* \"#utility.yul\":8926:9292   */\n    tag_342:\n        /* \"#utility.yul\":9068:9071   */\n      0x00\n        /* \"#utility.yul\":9089:9156   */\n      tag_442\n        /* \"#utility.yul\":9153:9155   */\n      0x22\n        /* \"#utility.yul\":9148:9151   */\n      dup4\n        /* \"#utility.yul\":9089:9156   */\n      tag_337\n      jump\t// in\n    tag_442:\n        /* \"#utility.yul\":9082:9156   */\n      swap2\n      pop\n        /* \"#utility.yul\":9165:9258   */\n      tag_443\n        /* \"#utility.yul\":9254:9257   */\n      dup3\n        /* \"#utility.yul\":9165:9258   */\n      tag_341\n      jump\t// in\n    tag_443:\n        /* \"#utility.yul\":9283:9285   */\n      0x40\n        /* \"#utility.yul\":9278:9281   */\n      dup3\n        /* \"#utility.yul\":9274:9286   */\n      add\n        /* \"#utility.yul\":9267:9286   */\n      swap1\n      pop\n        /* \"#utility.yul\":8926:9292   */\n      swap2\n      swap1\n      pop\n      jump\t// out\n        /* \"#utility.yul\":9298:9717   */\n    tag_124:\n        /* \"#utility.yul\":9464:9468   */\n      0x00\n        /* \"#utility.yul\":9502:9504   */\n      0x20\n        /* \"#utility.yul\":9491:9500   */\n      dup3\n        /* \"#utility.yul\":9487:9505   */\n      add\n        /* \"#utility.yul\":9479:9505   */\n      swap1\n      pop\n        /* \"#utility.yul\":9551:9560   */\n      dup2\n        /* \"#utility.yul\":9545:9549   */\n      dup2\n        /* \"#utility.yul\":9541:9561   */\n      sub\n        /* \"#utility.yul\":9537:9538   */\n      0x00\n        /* \"#utility.yul\":9526:9535   */\n      dup4\n        /* \"#utility.yul\":9522:9539   */\n      add\n        /* \"#utility.yul\":9515:9562   */\n      mstore\n        /* \"#utility.yul\":9579:9710   */\n      tag_445\n        /* \"#utility.yul\":9705:9709   */\n      dup2\n        /* \"#utility.yul\":9579:9710   */\n      tag_342\n      jump\t// in\n    tag_445:\n        /* \"#utility.yul\":9571:9710   */\n      swap1\n      pop\n        /* \"#utility.yul\":9298:9717   */\n      swap2\n      swap1\n      pop\n      jump\t// out\n        /* \"#utility.yul\":9723:9903   */\n    tag_131:\n        /* \"#utility.yul\":9771:9848   */\n      0x4e487b7100000000000000000000000000000000000000000000000000000000\n        /* \"#utility.yul\":9768:9769   */\n      0x00\n        /* \"#utility.yul\":9761:9849   */\n      mstore\n        /* \"#utility.yul\":9868:9872   */\n      0x21\n        /* \"#utility.yul\":9865:9866   */\n      0x04\n        /* \"#utility.yul\":9858:9873   */\n      mstore\n        /* \"#utility.yul\":9892:9896   */\n      0x24\n        /* \"#utility.yul\":9889:9890   */\n      0x00\n        /* \"#utility.yul\":9882:9897   */\n      revert\n        /* \"#utility.yul\":9909:10142   */\n    tag_183:\n        /* \"#utility.yul\":9948:9951   */\n      0x00\n        /* \"#utility.yul\":9971:9995   */\n      tag_448\n        /* \"#utility.yul\":9989:9994   */\n      dup3\n        /* \"#utility.yul\":9971:9995   */\n      tag_321\n      jump\t// in\n    tag_448:\n        /* \"#utility.yul\":9962:9995   */\n      swap2\n      pop\n        /* \"#utility.yul\":10017:10083   */\n      0xffffffffffffffffffffffffffffffffffffffffffffffffffffffffffffffff\n        /* \"#utility.yul\":10010:10015   */\n      dup3\n        /* \"#utility.yul\":10007:10084   */\n      eq\n        /* \"#utility.yul\":10004:10107   */\n      iszero\n      tag_449\n      jumpi\n        /* \"#utility.yul\":10087:10105   */\n      tag_450\n      tag_340\n      jump\t// in\n    tag_450:\n        /* \"#utility.yul\":10004:10107   */\n    tag_449:\n        /* \"#utility.yul\":10134:10135   */\n      0x01\n        /* \"#utility.yul\":10127:10132   */\n      dup3\n        /* \"#utility.yul\":10123:10136   */\n      add\n        /* \"#utility.yul\":10116:10136   */\n      swap1\n      pop\n        /* \"#utility.yul\":9909:10142   */\n      swap2\n      swap1\n      pop\n      jump\t// out\n        /* \"#utility.yul\":10148:10320   */\n    tag_343:\n        /* \"#utility.yul\":10288:10312   */\n      0x4163636f756e7420616c72656164792065786973747300000000000000000000\n        /* \"#utility.yul\":10284:10285   */\n      0x00\n        /* \"#utility.yul\":10276:10282   */\n      dup3\n        /* \"#utility.yul\":10272:10286   */\n      add\n        /* \"#utility.yul\":10265:10313   */\n      mstore\n        /* \"#utility.yul\":10148:10320   */\n      pop\n      jump\t// out\n        /* \"#utility.yul\":10326:10692   */\n    tag_344:\n        /* \"#utility.yul\":10468:10471   */\n      0x00\n        /* \"#utility.yul\":10489:10556   */\n      tag_453\n        /* \"#utility.yul\":10553:10555   */\n      0x16\n        /* \"#utility.yul\":10548:10551   */\n      dup4\n        /* \"#utility.yul\":10489:10556   */\n      tag_337\n      jump\t// in\n    tag_453:\n        /* \"#utility.yul\":10482:10556   */\n      swap2\n      pop\n        /* \"#utility.yul\":10565:10658   */\n      tag_454\n        /* \"#utility.yul\":10654:10657   */\n      dup3\n        /* \"#utility.yul\":10565:10658   */\n      tag_343\n      jump\t// in\n    tag_454:\n        /* \"#utility.yul\":10683:10685   */\n      0x20\n        /* \"#utility.yul\":10678:10681   */\n      dup3\n        /* \"#utility.yul\":10674:10686   */\n      add\n        /* \"#utility.yul\":10667:10686   */\n      swap1\n      pop\n        /* \"#utility.yul\":10326:10692   */\n      swap2\n      swap1\n      pop\n      jump\t// out\n        /* \"#utility.yul\":10698:11117   */\n    tag_249:\n        /* \"#utility.yul\":10864:10868   */\n      0x00\n        /* \"#utility.yul\":10902:10904   */\n      0x20\n        /* \"#utility.yul\":10891:10900   */\n      dup3\n        /* \"#utility.yul\":10887:10905   */\n      add\n        /* \"#utility.yul\":10879:10905   */\n      swap1\n      pop\n        /* \"#utility.yul\":10951:10960   */\n      dup2\n        /* \"#utility.yul\":10945:10949   */\n      dup2\n        /* \"#utility.yul\":10941:10961   */\n      sub\n        /* \"#utility.yul\":10937:10938   */\n      0x00\n        /* \"#utility.yul\":10926:10935   */\n      dup4\n        /* \"#utility.yul\":10922:10939   */\n      add\n        /* \"#utility.yul\":10915:10962   */\n      mstore\n        /* \"#utility.yul\":10979:11110   */\n      tag_456\n        /* \"#utility.yul\":11105:11109   */\n      dup2\n        /* \"#utility.yul\":10979:11110   */\n      tag_344\n      jump\t// in\n    tag_456:\n        /* \"#utility.yul\":10971:11110   */\n      swap1\n      pop\n        /* \"#utility.yul\":10698:11117   */\n      swap2\n      swap1\n      pop\n      jump\t// out\n\n    auxdata: 0xa26469706673582212208e1d2320adf52ba2d6428947203c5f6e17b3fd77687d48e066354bbc1dac089a64736f6c634300080c0033\n}\n",
				"bytecode": {
					"linkReferences": {},
					"object": "60806040523480156200001157600080fd5b5060405162003fc838038062003fc883398181016040528101906200003791906200134e565b33600160006101000a81548173ffffffffffffffffffffffffffffffffffffffff021916908373ffffffffffffffffffffffffffffffffffffffff1602179055506200008c33848484620000cc60201b60201c565b6200009f336000620003b760201b60201c565b620000b2336003620006e460201b60201c565b620000c33362000a1160201b60201c565b505050620016af565b83600073ffffffffffffffffffffffffffffffffffffffff16600260008373ffffffffffffffffffffffffffffffffffffffff1673ffffffffffffffffffffffffffffffffffffffff16815260200190815260200160002060000160009054906101000a900473ffffffffffffffffffffffffffffffffffffffff1673ffffffffffffffffffffffffffffffffffffffff1614620001a1576040517f08c379a0000000000000000000000000000000000000000000000000000000008152600401620001989062001468565b60405180910390fd5b6000604051806080016040528060001515815260200160001515815260200160001515815260200160011515815250905060006040518060c001604052808873ffffffffffffffffffffffffffffffffffffffff16815260200187815260200186815260200185815260200160001515815260200183815250905080600260008973ffffffffffffffffffffffffffffffffffffffff1673ffffffffffffffffffffffffffffffffffffffff16815260200190815260200160002060008201518160000160006101000a81548173ffffffffffffffffffffffffffffffffffffffff021916908373ffffffffffffffffffffffffffffffffffffffff1602179055506020820151816001019080519060200190620002c192919062001101565b506040820151816002019080519060200190620002e092919062001101565b506060820151816003019080519060200190620002ff92919062001101565b5060808201518160040160006101000a81548160ff02191690831515021790555060a08201518160050160008201518160000160006101000a81548160ff02191690831515021790555060208201518160000160016101000a81548160ff02191690831515021790555060408201518160000160026101000a81548160ff02191690831515021790555060608201518160000160036101000a81548160ff021916908315150217905550505090505050505050505050565b600160009054906101000a900473ffffffffffffffffffffffffffffffffffffffff1673ffffffffffffffffffffffffffffffffffffffff163373ffffffffffffffffffffffffffffffffffffffff161480620004215750620004203362000cb660201b60201c565b5b62000463576040517f08c379a00000000000000000000000000000000000000000000000000000000081526004016200045a9062001500565b60405180910390fd5b81600073ffffffffffffffffffffffffffffffffffffffff16600260008373ffffffffffffffffffffffffffffffffffffffff1673ffffffffffffffffffffffffffffffffffffffff16815260200190815260200160002060000160009054906101000a900473ffffffffffffffffffffffffffffffffffffffff1673ffffffffffffffffffffffffffffffffffffffff16141562000539576040517f08c379a0000000000000000000000000000000000000000000000000000000008152600401620005309062001572565b60405180910390fd5b6000600260008573ffffffffffffffffffffffffffffffffffffffff1673ffffffffffffffffffffffffffffffffffffffff16815260200190815260200160002090506000816005019050600060038111156200059b576200059a62001594565b5b846003811115620005b157620005b062001594565b5b1415620005db5760018160000160006101000a81548160ff021916908315150217905550620006dd565b60016003811115620005f257620005f162001594565b5b84600381111562000608576200060762001594565b5b1415620006325760018160000160016101000a81548160ff021916908315150217905550620006dc565b6002600381111562000649576200064862001594565b5b8460038111156200065f576200065e62001594565b5b1415620006895760018160000160026101000a81548160ff021916908315150217905550620006db565b6003808111156200069f576200069e62001594565b5b846003811115620006b557620006b462001594565b5b1415620006da5760018160000160036101000a81548160ff0219169083151502179055505b5b5b5b5050505050565b600160009054906101000a900473ffffffffffffffffffffffffffffffffffffffff1673ffffffffffffffffffffffffffffffffffffffff163373ffffffffffffffffffffffffffffffffffffffff1614806200074e57506200074d3362000cb660201b60201c565b5b62000790576040517f08c379a0000000000000000000000000000000000000000000000000000000008152600401620007879062001500565b60405180910390fd5b81600073ffffffffffffffffffffffffffffffffffffffff16600260008373ffffffffffffffffffffffffffffffffffffffff1673ffffffffffffffffffffffffffffffffffffffff16815260200190815260200160002060000160009054906101000a900473ffffffffffffffffffffffffffffffffffffffff1673ffffffffffffffffffffffffffffffffffffffff16141562000866576040517f08c379a00000000000000000000000000000000000000000000000000000000081526004016200085d9062001572565b60405180910390fd5b6000600260008573ffffffffffffffffffffffffffffffffffffffff1673ffffffffffffffffffffffffffffffffffffffff1681526020019081526020016000209050600081600501905060006003811115620008c857620008c762001594565b5b846003811115620008de57620008dd62001594565b5b1415620009085760008160000160006101000a81548160ff02191690831515021790555062000a0a565b600160038111156200091f576200091e62001594565b5b84600381111562000935576200093462001594565b5b14156200095f5760008160000160016101000a81548160ff02191690831515021790555062000a09565b6002600381111562000976576200097562001594565b5b8460038111156200098c576200098b62001594565b5b1415620009b65760008160000160026101000a81548160ff02191690831515021790555062000a08565b600380811115620009cc57620009cb62001594565b5b846003811115620009e257620009e162001594565b5b141562000a075760008160000160036101000a81548160ff0219169083151502179055505b5b5b5b5050505050565b80600073ffffffffffffffffffffffffffffffffffffffff16600260008373ffffffffffffffffffffffffffffffffffffffff1673ffffffffffffffffffffffffffffffffffffffff16815260200190815260200160002060000160009054906101000a900473ffffffffffffffffffffffffffffffffffffffff1673ffffffffffffffffffffffffffffffffffffffff16141562000ae7576040517f08c379a000000000000000000000000000000000000000000000000000000000815260040162000ade9062001572565b60405180910390fd5b600360008373ffffffffffffffffffffffffffffffffffffffff1673ffffffffffffffffffffffffffffffffffffffff16815260200190815260200160002060009054906101000a900460ff1662000cb2576000600260008473ffffffffffffffffffffffffffffffffffffffff1673ffffffffffffffffffffffffffffffffffffffff168152602001908152602001600020905060018160040160006101000a81548160ff0219169083151502179055506000816005016040518060800160405290816000820160009054906101000a900460ff161515151581526020016000820160019054906101000a900460ff161515151581526020016000820160029054906101000a900460ff161515151581526020016000820160039054906101000a900460ff161515151581525050905080600001518062000c2a575080602001515b8062000c37575080604001515b1562000caf576001600360008673ffffffffffffffffffffffffffffffffffffffff1673ffffffffffffffffffffffffffffffffffffffff16815260200190815260200160002060006101000a81548160ff02191690831515021790555060008081548092919062000ca990620015fc565b91905055505b50505b5050565b600062000ccb82600062000cd260201b60201c565b9050919050565b600080600260008573ffffffffffffffffffffffffffffffffffffffff1673ffffffffffffffffffffffffffffffffffffffff1681526020019081526020016000206040518060c00160405290816000820160009054906101000a900473ffffffffffffffffffffffffffffffffffffffff1673ffffffffffffffffffffffffffffffffffffffff1673ffffffffffffffffffffffffffffffffffffffff16815260200160018201805462000d879062001679565b80601f016020809104026020016040519081016040528092919081815260200182805462000db59062001679565b801562000e065780601f1062000dda5761010080835404028352916020019162000e06565b820191906000526020600020905b81548152906001019060200180831162000de857829003601f168201915b5050505050815260200160028201805462000e219062001679565b80601f016020809104026020016040519081016040528092919081815260200182805462000e4f9062001679565b801562000ea05780601f1062000e745761010080835404028352916020019162000ea0565b820191906000526020600020905b81548152906001019060200180831162000e8257829003601f168201915b5050505050815260200160038201805462000ebb9062001679565b80601f016020809104026020016040519081016040528092919081815260200182805462000ee99062001679565b801562000f3a5780601f1062000f0e5761010080835404028352916020019162000f3a565b820191906000526020600020905b81548152906001019060200180831162000f1c57829003601f168201915b505050505081526020016004820160009054906101000a900460ff16151515158152602001600582016040518060800160405290816000820160009054906101000a900460ff161515151581526020016000820160019054906101000a900460ff161515151581526020016000820160029054906101000a900460ff161515151581526020016000820160039054906101000a900460ff16151515158152505081525050905060008160a00151905060006003811115620010005762000fff62001594565b5b84600381111562001016576200101562001594565b5b14156200102c57806000015192505050620010fb565b6001600381111562001043576200104262001594565b5b84600381111562001059576200105862001594565b5b14156200106f57806020015192505050620010fb565b6002600381111562001086576200108562001594565b5b8460038111156200109c576200109b62001594565b5b1415620010b257806040015192505050620010fb565b600380811115620010c857620010c762001594565b5b846003811115620010de57620010dd62001594565b5b1415620010f457806060015192505050620010fb565b6000925050505b92915050565b8280546200110f9062001679565b90600052602060002090601f0160209004810192826200113357600085556200117f565b82601f106200114e57805160ff19168380011785556200117f565b828001600101855582156200117f579182015b828111156200117e57825182559160200191906001019062001161565b5b5090506200118e919062001192565b5090565b5b80821115620011ad57600081600090555060010162001193565b5090565b6000604051905090565b600080fd5b600080fd5b600080fd5b600080fd5b6000601f19601f8301169050919050565b7f4e487b7100000000000000000000000000000000000000000000000000000000600052604160045260246000fd5b6200121a82620011cf565b810181811067ffffffffffffffff821117156200123c576200123b620011e0565b5b80604052505050565b600062001251620011b1565b90506200125f82826200120f565b919050565b600067ffffffffffffffff821115620012825762001281620011e0565b5b6200128d82620011cf565b9050602081019050919050565b60005b83811015620012ba5780820151818401526020810190506200129d565b83811115620012ca576000848401525b50505050565b6000620012e7620012e18462001264565b62001245565b905082815260208101848484011115620013065762001305620011ca565b5b620013138482856200129a565b509392505050565b600082601f830112620013335762001332620011c5565b5b815162001345848260208601620012d0565b91505092915050565b6000806000606084860312156200136a5762001369620011bb565b5b600084015167ffffffffffffffff8111156200138b576200138a620011c0565b5b62001399868287016200131b565b935050602084015167ffffffffffffffff811115620013bd57620013bc620011c0565b5b620013cb868287016200131b565b925050604084015167ffffffffffffffff811115620013ef57620013ee620011c0565b5b620013fd868287016200131b565b9150509250925092565b600082825260208201905092915050565b7f4163636f756e7420616c72656164792065786973747300000000000000000000600082015250565b60006200145060168362001407565b91506200145d8262001418565b602082019050919050565b60006020820190508181036000830152620014838162001441565b9050919050565b7f4f6e6c79206f776e65722063616e2063616c6c20746869732066756e6374696f60008201527f6e2e000000000000000000000000000000000000000000000000000000000000602082015250565b6000620014e860228362001407565b9150620014f5826200148a565b604082019050919050565b600060208201905081810360008301526200151b81620014d9565b9050919050565b7f4163636f756e7420646f65736e27742065786973740000000000000000000000600082015250565b60006200155a60158362001407565b9150620015678262001522565b602082019050919050565b600060208201905081810360008301526200158d816200154b565b9050919050565b7f4e487b7100000000000000000000000000000000000000000000000000000000600052602160045260246000fd5b7f4e487b7100000000000000000000000000000000000000000000000000000000600052601160045260246000fd5b6000819050919050565b60006200160982620015f2565b91507fffffffffffffffffffffffffffffffffffffffffffffffffffffffffffffffff8214156200163f576200163e620015c3565b5b600182019050919050565b7f4e487b7100000000000000000000000000000000000000000000000000000000600052602260045260246000fd5b600060028204905060018216806200169257607f821691505b60208210811415620016a957620016a86200164a565b5b50919050565b61290980620016bf6000396000f3fe608060405234801561001057600080fd5b50600436106101005760003560e01c80638da5cb5b11610097578063d3a5059a11610066578063d3a5059a146102bf578063dee94b4a146102db578063e8621e59146102f7578063fa4d7aae1461032757610100565b80638da5cb5b14610239578063a1aea04a14610257578063b74866fb14610273578063c2b7d9481461028f57610100565b806349587281116100d357806349587281146101b35780635fb6c6ed146101cf578063630a195b146101ed57806365c937691461020957610100565b806301eb085714610105578063056909b71461013557806322faa41f14610165578063297027d514610183575b600080fd5b61011f600480360381019061011a91906122ff565b610357565b60405161012c9190612347565b60405180910390f35b61014f600480360381019061014a91906122ff565b6106d6565b60405161015c9190612347565b60405180910390f35b61016d6106ea565b60405161017a919061237b565b60405180910390f35b61019d600480360381019061019891906122ff565b6106f3565b6040516101aa9190612347565b60405180910390f35b6101cd60048036038101906101c891906122ff565b610707565b005b6101d7610901565b6040516101e4919061237b565b60405180910390f35b610207600480360381019061020291906123bb565b610907565b005b610223600480360381019061021e91906122ff565b610c06565b6040516102309190612347565b60405180910390f35b610241610f85565b60405161024e919061240a565b60405180910390f35b610271600480360381019061026c91906122ff565b610fab565b005b61028d600480360381019061028891906123bb565b611247565b005b6102a960048036038101906102a491906122ff565b611546565b6040516102b69190612347565b60405180910390f35b6102d960048036038101906102d491906122ff565b6118c5565b005b6102f560048036038101906102f0919061256b565b611aa9565b005b610311600480360381019061030c91906122ff565b611d8b565b60405161031e9190612347565b60405180910390f35b610341600480360381019061033c91906122ff565b611d9f565b60405161034e9190612347565b60405180910390f35b600080600260008473ffffffffffffffffffffffffffffffffffffffff1673ffffffffffffffffffffffffffffffffffffffff1681526020019081526020016000206040518060c00160405290816000820160009054906101000a900473ffffffffffffffffffffffffffffffffffffffff1673ffffffffffffffffffffffffffffffffffffffff1673ffffffffffffffffffffffffffffffffffffffff16815260200160018201805461040a90612655565b80601f016020809104026020016040519081016040528092919081815260200182805461043690612655565b80156104835780601f1061045857610100808354040283529160200191610483565b820191906000526020600020905b81548152906001019060200180831161046657829003601f168201915b5050505050815260200160028201805461049c90612655565b80601f01602080910402602001604051908101604052809291908181526020018280546104c890612655565b80156105155780601f106104ea57610100808354040283529160200191610515565b820191906000526020600020905b8154815290600101906020018083116104f857829003601f168201915b5050505050815260200160038201805461052e90612655565b80601f016020809104026020016040519081016040528092919081815260200182805461055a90612655565b80156105a75780601f1061057c576101008083540402835291602001916105a7565b820191906000526020600020905b81548152906001019060200180831161058a57829003601f168201915b505050505081526020016004820160009054906101000a900460ff16151515158152602001600582016040518060800160405290816000820160009054906101000a900460ff161515151581526020016000820160019054906101000a900460ff161515151581526020016000820160029054906101000a900460ff161515151581526020016000820160039054906101000a900460ff161515151581525050815250509050600073ffffffffffffffffffffffffffffffffffffffff16816000015173ffffffffffffffffffffffffffffffffffffffff16146106cb57806080015180156106bb57508060a0015160000151806106aa57508060a00151602001515b806106ba57508060a00151604001515b5b156106ca5760019150506106d1565b5b60009150505b919050565b60006106e3826002611db3565b9050919050565b60008054905090565b6000610700826000611db3565b9050919050565b80600073ffffffffffffffffffffffffffffffffffffffff16600260008373ffffffffffffffffffffffffffffffffffffffff1673ffffffffffffffffffffffffffffffffffffffff16815260200190815260200160002060000160009054906101000a900473ffffffffffffffffffffffffffffffffffffffff1673ffffffffffffffffffffffffffffffffffffffff1614156107da576040517f08c379a00000000000000000000000000000000000000000000000000000000081526004016107d1906126e4565b60405180910390fd5b600360008373ffffffffffffffffffffffffffffffffffffffff1673ffffffffffffffffffffffffffffffffffffffff16815260200190815260200160002060009054906101000a900460ff16156108fd576000600260008473ffffffffffffffffffffffffffffffffffffffff1673ffffffffffffffffffffffffffffffffffffffff168152602001908152602001600020905060008160040160006101000a81548160ff0219169083151502179055506000600360008573ffffffffffffffffffffffffffffffffffffffff1673ffffffffffffffffffffffffffffffffffffffff16815260200190815260200160002060006101000a81548160ff0219169083151502179055506000808154809291906108f690612733565b9190505550505b5050565b60005481565b600160009054906101000a900473ffffffffffffffffffffffffffffffffffffffff1673ffffffffffffffffffffffffffffffffffffffff163373ffffffffffffffffffffffffffffffffffffffff1614806109685750610967336106f3565b5b6109a7576040517f08c379a000000000000000000000000000000000000000000000000000000000815260040161099e906127cf565b60405180910390fd5b81600073ffffffffffffffffffffffffffffffffffffffff16600260008373ffffffffffffffffffffffffffffffffffffffff1673ffffffffffffffffffffffffffffffffffffffff16815260200190815260200160002060000160009054906101000a900473ffffffffffffffffffffffffffffffffffffffff1673ffffffffffffffffffffffffffffffffffffffff161415610a7a576040517f08c379a0000000000000000000000000000000000000000000000000000000008152600401610a71906126e4565b60405180910390fd5b6000600260008573ffffffffffffffffffffffffffffffffffffffff1673ffffffffffffffffffffffffffffffffffffffff1681526020019081526020016000209050600081600501905060006003811115610ad957610ad86127ef565b5b846003811115610aec57610aeb6127ef565b5b1415610b145760018160000160006101000a81548160ff021916908315150217905550610bff565b60016003811115610b2857610b276127ef565b5b846003811115610b3b57610b3a6127ef565b5b1415610b635760018160000160016101000a81548160ff021916908315150217905550610bfe565b60026003811115610b7757610b766127ef565b5b846003811115610b8a57610b896127ef565b5b1415610bb25760018160000160026101000a81548160ff021916908315150217905550610bfd565b600380811115610bc557610bc46127ef565b5b846003811115610bd857610bd76127ef565b5b1415610bfc5760018160000160036101000a81548160ff0219169083151502179055505b5b5b5b5050505050565b600080600260008473ffffffffffffffffffffffffffffffffffffffff1673ffffffffffffffffffffffffffffffffffffffff1681526020019081526020016000206040518060c00160405290816000820160009054906101000a900473ffffffffffffffffffffffffffffffffffffffff1673ffffffffffffffffffffffffffffffffffffffff1673ffffffffffffffffffffffffffffffffffffffff168152602001600182018054610cb990612655565b80601f0160208091040260200160405190810160405280929190818152602001828054610ce590612655565b8015610d325780601f10610d0757610100808354040283529160200191610d32565b820191906000526020600020905b815481529060010190602001808311610d1557829003601f168201915b50505050508152602001600282018054610d4b90612655565b80601f0160208091040260200160405190810160405280929190818152602001828054610d7790612655565b8015610dc45780601f10610d9957610100808354040283529160200191610dc4565b820191906000526020600020905b815481529060010190602001808311610da757829003601f168201915b50505050508152602001600382018054610ddd90612655565b80601f0160208091040260200160405190810160405280929190818152602001828054610e0990612655565b8015610e565780601f10610e2b57610100808354040283529160200191610e56565b820191906000526020600020905b815481529060010190602001808311610e3957829003601f168201915b505050505081526020016004820160009054906101000a900460ff16151515158152602001600582016040518060800160405290816000820160009054906101000a900460ff161515151581526020016000820160019054906101000a900460ff161515151581526020016000820160029054906101000a900460ff161515151581526020016000820160039054906101000a900460ff161515151581525050815250509050600073ffffffffffffffffffffffffffffffffffffffff16816000015173ffffffffffffffffffffffffffffffffffffffff1614610f7a5780608001518015610f6a57508060a001516000015180610f5957508060a00151602001515b80610f6957508060a00151604001515b5b15610f79576001915050610f80565b5b60009150505b919050565b600160009054906101000a900473ffffffffffffffffffffffffffffffffffffffff1681565b80600073ffffffffffffffffffffffffffffffffffffffff16600260008373ffffffffffffffffffffffffffffffffffffffff1673ffffffffffffffffffffffffffffffffffffffff16815260200190815260200160002060000160009054906101000a900473ffffffffffffffffffffffffffffffffffffffff1673ffffffffffffffffffffffffffffffffffffffff16141561107e576040517f08c379a0000000000000000000000000000000000000000000000000000000008152600401611075906126e4565b60405180910390fd5b600360008373ffffffffffffffffffffffffffffffffffffffff1673ffffffffffffffffffffffffffffffffffffffff16815260200190815260200160002060009054906101000a900460ff16611243576000600260008473ffffffffffffffffffffffffffffffffffffffff1673ffffffffffffffffffffffffffffffffffffffff168152602001908152602001600020905060018160040160006101000a81548160ff0219169083151502179055506000816005016040518060800160405290816000820160009054906101000a900460ff161515151581526020016000820160019054906101000a900460ff161515151581526020016000820160029054906101000a900460ff161515151581526020016000820160039054906101000a900460ff16151515158152505090508060000151806111bf575080602001515b806111cb575080604001515b15611240576001600360008673ffffffffffffffffffffffffffffffffffffffff1673ffffffffffffffffffffffffffffffffffffffff16815260200190815260200160002060006101000a81548160ff02191690831515021790555060008081548092919061123a9061281e565b91905055505b50505b5050565b600160009054906101000a900473ffffffffffffffffffffffffffffffffffffffff1673ffffffffffffffffffffffffffffffffffffffff163373ffffffffffffffffffffffffffffffffffffffff1614806112a857506112a7336106f3565b5b6112e7576040517f08c379a00000000000000000000000000000000000000000000000000000000081526004016112de906127cf565b60405180910390fd5b81600073ffffffffffffffffffffffffffffffffffffffff16600260008373ffffffffffffffffffffffffffffffffffffffff1673ffffffffffffffffffffffffffffffffffffffff16815260200190815260200160002060000160009054906101000a900473ffffffffffffffffffffffffffffffffffffffff1673ffffffffffffffffffffffffffffffffffffffff1614156113ba576040517f08c379a00000000000000000000000000000000000000000000000000000000081526004016113b1906126e4565b60405180910390fd5b6000600260008573ffffffffffffffffffffffffffffffffffffffff1673ffffffffffffffffffffffffffffffffffffffff1681526020019081526020016000209050600081600501905060006003811115611419576114186127ef565b5b84600381111561142c5761142b6127ef565b5b14156114545760008160000160006101000a81548160ff02191690831515021790555061153f565b60016003811115611468576114676127ef565b5b84600381111561147b5761147a6127ef565b5b14156114a35760008160000160016101000a81548160ff02191690831515021790555061153e565b600260038111156114b7576114b66127ef565b5b8460038111156114ca576114c96127ef565b5b14156114f25760008160000160026101000a81548160ff02191690831515021790555061153d565b600380811115611505576115046127ef565b5b846003811115611518576115176127ef565b5b141561153c5760008160000160036101000a81548160ff0219169083151502179055505b5b5b5b5050505050565b600080600260008473ffffffffffffffffffffffffffffffffffffffff1673ffffffffffffffffffffffffffffffffffffffff1681526020019081526020016000206040518060c00160405290816000820160009054906101000a900473ffffffffffffffffffffffffffffffffffffffff1673ffffffffffffffffffffffffffffffffffffffff1673ffffffffffffffffffffffffffffffffffffffff1681526020016001820180546115f990612655565b80601f016020809104026020016040519081016040528092919081815260200182805461162590612655565b80156116725780601f1061164757610100808354040283529160200191611672565b820191906000526020600020905b81548152906001019060200180831161165557829003601f168201915b5050505050815260200160028201805461168b90612655565b80601f01602080910402602001604051908101604052809291908181526020018280546116b790612655565b80156117045780601f106116d957610100808354040283529160200191611704565b820191906000526020600020905b8154815290600101906020018083116116e757829003601f168201915b5050505050815260200160038201805461171d90612655565b80601f016020809104026020016040519081016040528092919081815260200182805461174990612655565b80156117965780601f1061176b57610100808354040283529160200191611796565b820191906000526020600020905b81548152906001019060200180831161177957829003601f168201915b505050505081526020016004820160009054906101000a900460ff16151515158152602001600582016040518060800160405290816000820160009054906101000a900460ff161515151581526020016000820160019054906101000a900460ff161515151581526020016000820160029054906101000a900460ff161515151581526020016000820160039054906101000a900460ff161515151581525050815250509050600073ffffffffffffffffffffffffffffffffffffffff16816000015173ffffffffffffffffffffffffffffffffffffffff16146118ba57806080015180156118aa57508060a00151600001518061189957508060a00151602001515b806118a957508060a00151604001515b5b156118b95760019150506118c0565b5b60009150505b919050565b80600073ffffffffffffffffffffffffffffffffffffffff16600260008373ffffffffffffffffffffffffffffffffffffffff1673ffffffffffffffffffffffffffffffffffffffff16815260200190815260200160002060000160009054906101000a900473ffffffffffffffffffffffffffffffffffffffff1673ffffffffffffffffffffffffffffffffffffffff161415611998576040517f08c379a000000000000000000000000000000000000000000000000000000000815260040161198f906126e4565b60405180910390fd5b6119a182610707565b600260008373ffffffffffffffffffffffffffffffffffffffff1673ffffffffffffffffffffffffffffffffffffffff168152602001908152602001600020600080820160006101000a81549073ffffffffffffffffffffffffffffffffffffffff0219169055600182016000611a1891906121aa565b600282016000611a2891906121aa565b600382016000611a3891906121aa565b6004820160006101000a81549060ff021916905560058201600080820160006101000a81549060ff02191690556000820160016101000a81549060ff02191690556000820160026101000a81549060ff02191690556000820160036101000a81549060ff0219169055505050505050565b83600073ffffffffffffffffffffffffffffffffffffffff16600260008373ffffffffffffffffffffffffffffffffffffffff1673ffffffffffffffffffffffffffffffffffffffff16815260200190815260200160002060000160009054906101000a900473ffffffffffffffffffffffffffffffffffffffff1673ffffffffffffffffffffffffffffffffffffffff1614611b7b576040517f08c379a0000000000000000000000000000000000000000000000000000000008152600401611b72906128b3565b60405180910390fd5b6000604051806080016040528060001515815260200160001515815260200160001515815260200160011515815250905060006040518060c001604052808873ffffffffffffffffffffffffffffffffffffffff16815260200187815260200186815260200185815260200160001515815260200183815250905080600260008973ffffffffffffffffffffffffffffffffffffffff1673ffffffffffffffffffffffffffffffffffffffff16815260200190815260200160002060008201518160000160006101000a81548173ffffffffffffffffffffffffffffffffffffffff021916908373ffffffffffffffffffffffffffffffffffffffff1602179055506020820151816001019080519060200190611c999291906121ea565b506040820151816002019080519060200190611cb69291906121ea565b506060820151816003019080519060200190611cd39291906121ea565b5060808201518160040160006101000a81548160ff02191690831515021790555060a08201518160050160008201518160000160006101000a81548160ff02191690831515021790555060208201518160000160016101000a81548160ff02191690831515021790555060408201518160000160026101000a81548160ff02191690831515021790555060608201518160000160036101000a81548160ff021916908315150217905550505090505050505050505050565b6000611d98826003611db3565b9050919050565b6000611dac826001611db3565b9050919050565b600080600260008573ffffffffffffffffffffffffffffffffffffffff1673ffffffffffffffffffffffffffffffffffffffff1681526020019081526020016000206040518060c00160405290816000820160009054906101000a900473ffffffffffffffffffffffffffffffffffffffff1673ffffffffffffffffffffffffffffffffffffffff1673ffffffffffffffffffffffffffffffffffffffff168152602001600182018054611e6690612655565b80601f0160208091040260200160405190810160405280929190818152602001828054611e9290612655565b8015611edf5780601f10611eb457610100808354040283529160200191611edf565b820191906000526020600020905b815481529060010190602001808311611ec257829003601f168201915b50505050508152602001600282018054611ef890612655565b80601f0160208091040260200160405190810160405280929190818152602001828054611f2490612655565b8015611f715780601f10611f4657610100808354040283529160200191611f71565b820191906000526020600020905b815481529060010190602001808311611f5457829003601f168201915b50505050508152602001600382018054611f8a90612655565b80601f0160208091040260200160405190810160405280929190818152602001828054611fb690612655565b80156120035780601f10611fd857610100808354040283529160200191612003565b820191906000526020600020905b815481529060010190602001808311611fe657829003601f168201915b505050505081526020016004820160009054906101000a900460ff16151515158152602001600582016040518060800160405290816000820160009054906101000a900460ff161515151581526020016000820160019054906101000a900460ff161515151581526020016000820160029054906101000a900460ff161515151581526020016000820160039054906101000a900460ff16151515158152505081525050905060008160a001519050600060038111156120c6576120c56127ef565b5b8460038111156120d9576120d86127ef565b5b14156120ed578060000151925050506121a4565b60016003811115612101576121006127ef565b5b846003811115612114576121136127ef565b5b1415612128578060200151925050506121a4565b6002600381111561213c5761213b6127ef565b5b84600381111561214f5761214e6127ef565b5b1415612163578060400151925050506121a4565b600380811115612176576121756127ef565b5b846003811115612189576121886127ef565b5b141561219d578060600151925050506121a4565b6000925050505b92915050565b5080546121b690612655565b6000825580601f106121c857506121e7565b601f0160209004906000526020600020908101906121e69190612270565b5b50565b8280546121f690612655565b90600052602060002090601f016020900481019282612218576000855561225f565b82601f1061223157805160ff191683800117855561225f565b8280016001018555821561225f579182015b8281111561225e578251825591602001919060010190612243565b5b50905061226c9190612270565b5090565b5b80821115612289576000816000905550600101612271565b5090565b6000604051905090565b600080fd5b600080fd5b600073ffffffffffffffffffffffffffffffffffffffff82169050919050565b60006122cc826122a1565b9050919050565b6122dc816122c1565b81146122e757600080fd5b50565b6000813590506122f9816122d3565b92915050565b60006020828403121561231557612314612297565b5b6000612323848285016122ea565b91505092915050565b60008115159050919050565b6123418161232c565b82525050565b600060208201905061235c6000830184612338565b92915050565b6000819050919050565b61237581612362565b82525050565b6000602082019050612390600083018461236c565b92915050565b600481106123a357600080fd5b50565b6000813590506123b581612396565b92915050565b600080604083850312156123d2576123d1612297565b5b60006123e0858286016122ea565b92505060206123f1858286016123a6565b9150509250929050565b612404816122c1565b82525050565b600060208201905061241f60008301846123fb565b92915050565b600080fd5b600080fd5b6000601f19601f8301169050919050565b7f4e487b7100000000000000000000000000000000000000000000000000000000600052604160045260246000fd5b6124788261242f565b810181811067ffffffffffffffff8211171561249757612496612440565b5b80604052505050565b60006124aa61228d565b90506124b6828261246f565b919050565b600067ffffffffffffffff8211156124d6576124d5612440565b5b6124df8261242f565b9050602081019050919050565b82818337600083830152505050565b600061250e612509846124bb565b6124a0565b90508281526020810184848401111561252a5761252961242a565b5b6125358482856124ec565b509392505050565b600082601f83011261255257612551612425565b5b81356125628482602086016124fb565b91505092915050565b6000806000806080858703121561258557612584612297565b5b6000612593878288016122ea565b945050602085013567ffffffffffffffff8111156125b4576125b361229c565b5b6125c08782880161253d565b935050604085013567ffffffffffffffff8111156125e1576125e061229c565b5b6125ed8782880161253d565b925050606085013567ffffffffffffffff81111561260e5761260d61229c565b5b61261a8782880161253d565b91505092959194509250565b7f4e487b7100000000000000000000000000000000000000000000000000000000600052602260045260246000fd5b6000600282049050600182168061266d57607f821691505b6020821081141561268157612680612626565b5b50919050565b600082825260208201905092915050565b7f4163636f756e7420646f65736e27742065786973740000000000000000000000600082015250565b60006126ce601583612687565b91506126d982612698565b602082019050919050565b600060208201905081810360008301526126fd816126c1565b9050919050565b7f4e487b7100000000000000000000000000000000000000000000000000000000600052601160045260246000fd5b600061273e82612362565b9150600082141561275257612751612704565b5b600182039050919050565b7f4f6e6c79206f776e65722063616e2063616c6c20746869732066756e6374696f60008201527f6e2e000000000000000000000000000000000000000000000000000000000000602082015250565b60006127b9602283612687565b91506127c48261275d565b604082019050919050565b600060208201905081810360008301526127e8816127ac565b9050919050565b7f4e487b7100000000000000000000000000000000000000000000000000000000600052602160045260246000fd5b600061282982612362565b91507fffffffffffffffffffffffffffffffffffffffffffffffffffffffffffffffff82141561285c5761285b612704565b5b600182019050919050565b7f4163636f756e7420616c72656164792065786973747300000000000000000000600082015250565b600061289d601683612687565b91506128a882612867565b602082019050919050565b600060208201905081810360008301526128cc81612890565b905091905056fea26469706673582212208e1d2320adf52ba2d6428947203c5f6e17b3fd77687d48e066354bbc1dac089a64736f6c634300080c0033",
					"opcodes": "PUSH1 0x80 PUSH1 0x40 MSTORE CALLVALUE DUP1 ISZERO PUSH3 0x11 JUMPI PUSH1 0x0 DUP1 REVERT JUMPDEST POP PUSH1 0x40 MLOAD PUSH3 0x3FC8 CODESIZE SUB DUP1 PUSH3 0x3FC8 DUP4 CODECOPY DUP2 DUP2 ADD PUSH1 0x40 MSTORE DUP2 ADD SWAP1 PUSH3 0x37 SWAP2 SWAP1 PUSH3 0x134E JUMP JUMPDEST CALLER PUSH1 0x1 PUSH1 0x0 PUSH2 0x100 EXP DUP2 SLOAD DUP2 PUSH20 0xFFFFFFFFFFFFFFFFFFFFFFFFFFFFFFFFFFFFFFFF MUL NOT AND SWAP1 DUP4 PUSH20 0xFFFFFFFFFFFFFFFFFFFFFFFFFFFFFFFFFFFFFFFF AND MUL OR SWAP1 SSTORE POP PUSH3 0x8C CALLER DUP5 DUP5 DUP5 PUSH3 0xCC PUSH1 0x20 SHL PUSH1 0x20 SHR JUMP JUMPDEST PUSH3 0x9F CALLER PUSH1 0x0 PUSH3 0x3B7 PUSH1 0x20 SHL PUSH1 0x20 SHR JUMP JUMPDEST PUSH3 0xB2 CALLER PUSH1 0x3 PUSH3 0x6E4 PUSH1 0x20 SHL PUSH1 0x20 SHR JUMP JUMPDEST PUSH3 0xC3 CALLER PUSH3 0xA11 PUSH1 0x20 SHL PUSH1 0x20 SHR JUMP JUMPDEST POP POP POP PUSH3 0x16AF JUMP JUMPDEST DUP4 PUSH1 0x0 PUSH20 0xFFFFFFFFFFFFFFFFFFFFFFFFFFFFFFFFFFFFFFFF AND PUSH1 0x2 PUSH1 0x0 DUP4 PUSH20 0xFFFFFFFFFFFFFFFFFFFFFFFFFFFFFFFFFFFFFFFF AND PUSH20 0xFFFFFFFFFFFFFFFFFFFFFFFFFFFFFFFFFFFFFFFF AND DUP2 MSTORE PUSH1 0x20 ADD SWAP1 DUP2 MSTORE PUSH1 0x20 ADD PUSH1 0x0 KECCAK256 PUSH1 0x0 ADD PUSH1 0x0 SWAP1 SLOAD SWAP1 PUSH2 0x100 EXP SWAP1 DIV PUSH20 0xFFFFFFFFFFFFFFFFFFFFFFFFFFFFFFFFFFFFFFFF AND PUSH20 0xFFFFFFFFFFFFFFFFFFFFFFFFFFFFFFFFFFFFFFFF AND EQ PUSH3 0x1A1 JUMPI PUSH1 0x40 MLOAD PUSH32 0x8C379A000000000000000000000000000000000000000000000000000000000 DUP2 MSTORE PUSH1 0x4 ADD PUSH3 0x198 SWAP1 PUSH3 0x1468 JUMP JUMPDEST PUSH1 0x40 MLOAD DUP1 SWAP2 SUB SWAP1 REVERT JUMPDEST PUSH1 0x0 PUSH1 0x40 MLOAD DUP1 PUSH1 0x80 ADD PUSH1 0x40 MSTORE DUP1 PUSH1 0x0 ISZERO ISZERO DUP2 MSTORE PUSH1 0x20 ADD PUSH1 0x0 ISZERO ISZERO DUP2 MSTORE PUSH1 0x20 ADD PUSH1 0x0 ISZERO ISZERO DUP2 MSTORE PUSH1 0x20 ADD PUSH1 0x1 ISZERO ISZERO DUP2 MSTORE POP SWAP1 POP PUSH1 0x0 PUSH1 0x40 MLOAD DUP1 PUSH1 0xC0 ADD PUSH1 0x40 MSTORE DUP1 DUP9 PUSH20 0xFFFFFFFFFFFFFFFFFFFFFFFFFFFFFFFFFFFFFFFF AND DUP2 MSTORE PUSH1 0x20 ADD DUP8 DUP2 MSTORE PUSH1 0x20 ADD DUP7 DUP2 MSTORE PUSH1 0x20 ADD DUP6 DUP2 MSTORE PUSH1 0x20 ADD PUSH1 0x0 ISZERO ISZERO DUP2 MSTORE PUSH1 0x20 ADD DUP4 DUP2 MSTORE POP SWAP1 POP DUP1 PUSH1 0x2 PUSH1 0x0 DUP10 PUSH20 0xFFFFFFFFFFFFFFFFFFFFFFFFFFFFFFFFFFFFFFFF AND PUSH20 0xFFFFFFFFFFFFFFFFFFFFFFFFFFFFFFFFFFFFFFFF AND DUP2 MSTORE PUSH1 0x20 ADD SWAP1 DUP2 MSTORE PUSH1 0x20 ADD PUSH1 0x0 KECCAK256 PUSH1 0x0 DUP3 ADD MLOAD DUP2 PUSH1 0x0 ADD PUSH1 0x0 PUSH2 0x100 EXP DUP2 SLOAD DUP2 PUSH20 0xFFFFFFFFFFFFFFFFFFFFFFFFFFFFFFFFFFFFFFFF MUL NOT AND SWAP1 DUP4 PUSH20 0xFFFFFFFFFFFFFFFFFFFFFFFFFFFFFFFFFFFFFFFF AND MUL OR SWAP1 SSTORE POP PUSH1 0x20 DUP3 ADD MLOAD DUP2 PUSH1 0x1 ADD SWAP1 DUP1 MLOAD SWAP1 PUSH1 0x20 ADD SWAP1 PUSH3 0x2C1 SWAP3 SWAP2 SWAP1 PUSH3 0x1101 JUMP JUMPDEST POP PUSH1 0x40 DUP3 ADD MLOAD DUP2 PUSH1 0x2 ADD SWAP1 DUP1 MLOAD SWAP1 PUSH1 0x20 ADD SWAP1 PUSH3 0x2E0 SWAP3 SWAP2 SWAP1 PUSH3 0x1101 JUMP JUMPDEST POP PUSH1 0x60 DUP3 ADD MLOAD DUP2 PUSH1 0x3 ADD SWAP1 DUP1 MLOAD SWAP1 PUSH1 0x20 ADD SWAP1 PUSH3 0x2FF SWAP3 SWAP2 SWAP1 PUSH3 0x1101 JUMP JUMPDEST POP PUSH1 0x80 DUP3 ADD MLOAD DUP2 PUSH1 0x4 ADD PUSH1 0x0 PUSH2 0x100 EXP DUP2 SLOAD DUP2 PUSH1 0xFF MUL NOT AND SWAP1 DUP4 ISZERO ISZERO MUL OR SWAP1 SSTORE POP PUSH1 0xA0 DUP3 ADD MLOAD DUP2 PUSH1 0x5 ADD PUSH1 0x0 DUP3 ADD MLOAD DUP2 PUSH1 0x0 ADD PUSH1 0x0 PUSH2 0x100 EXP DUP2 SLOAD DUP2 PUSH1 0xFF MUL NOT AND SWAP1 DUP4 ISZERO ISZERO MUL OR SWAP1 SSTORE POP PUSH1 0x20 DUP3 ADD MLOAD DUP2 PUSH1 0x0 ADD PUSH1 0x1 PUSH2 0x100 EXP DUP2 SLOAD DUP2 PUSH1 0xFF MUL NOT AND SWAP1 DUP4 ISZERO ISZERO MUL OR SWAP1 SSTORE POP PUSH1 0x40 DUP3 ADD MLOAD DUP2 PUSH1 0x0 ADD PUSH1 0x2 PUSH2 0x100 EXP DUP2 SLOAD DUP2 PUSH1 0xFF MUL NOT AND SWAP1 DUP4 ISZERO ISZERO MUL OR SWAP1 SSTORE POP PUSH1 0x60 DUP3 ADD MLOAD DUP2 PUSH1 0x0 ADD PUSH1 0x3 PUSH2 0x100 EXP DUP2 SLOAD DUP2 PUSH1 0xFF MUL NOT AND SWAP1 DUP4 ISZERO ISZERO MUL OR SWAP1 SSTORE POP POP POP SWAP1 POP POP POP POP POP POP POP POP POP JUMP JUMPDEST PUSH1 0x1 PUSH1 0x0 SWAP1 SLOAD SWAP1 PUSH2 0x100 EXP SWAP1 DIV PUSH20 0xFFFFFFFFFFFFFFFFFFFFFFFFFFFFFFFFFFFFFFFF AND PUSH20 0xFFFFFFFFFFFFFFFFFFFFFFFFFFFFFFFFFFFFFFFF AND CALLER PUSH20 0xFFFFFFFFFFFFFFFFFFFFFFFFFFFFFFFFFFFFFFFF AND EQ DUP1 PUSH3 0x421 JUMPI POP PUSH3 0x420 CALLER PUSH3 0xCB6 PUSH1 0x20 SHL PUSH1 0x20 SHR JUMP JUMPDEST JUMPDEST PUSH3 0x463 JUMPI PUSH1 0x40 MLOAD PUSH32 0x8C379A000000000000000000000000000000000000000000000000000000000 DUP2 MSTORE PUSH1 0x4 ADD PUSH3 0x45A SWAP1 PUSH3 0x1500 JUMP JUMPDEST PUSH1 0x40 MLOAD DUP1 SWAP2 SUB SWAP1 REVERT JUMPDEST DUP2 PUSH1 0x0 PUSH20 0xFFFFFFFFFFFFFFFFFFFFFFFFFFFFFFFFFFFFFFFF AND PUSH1 0x2 PUSH1 0x0 DUP4 PUSH20 0xFFFFFFFFFFFFFFFFFFFFFFFFFFFFFFFFFFFFFFFF AND PUSH20 0xFFFFFFFFFFFFFFFFFFFFFFFFFFFFFFFFFFFFFFFF AND DUP2 MSTORE PUSH1 0x20 ADD SWAP1 DUP2 MSTORE PUSH1 0x20 ADD PUSH1 0x0 KECCAK256 PUSH1 0x0 ADD PUSH1 0x0 SWAP1 SLOAD SWAP1 PUSH2 0x100 EXP SWAP1 DIV PUSH20 0xFFFFFFFFFFFFFFFFFFFFFFFFFFFFFFFFFFFFFFFF AND PUSH20 0xFFFFFFFFFFFFFFFFFFFFFFFFFFFFFFFFFFFFFFFF AND EQ ISZERO PUSH3 0x539 JUMPI PUSH1 0x40 MLOAD PUSH32 0x8C379A000000000000000000000000000000000000000000000000000000000 DUP2 MSTORE PUSH1 0x4 ADD PUSH3 0x530 SWAP1 PUSH3 0x1572 JUMP JUMPDEST PUSH1 0x40 MLOAD DUP1 SWAP2 SUB SWAP1 REVERT JUMPDEST PUSH1 0x0 PUSH1 0x2 PUSH1 0x0 DUP6 PUSH20 0xFFFFFFFFFFFFFFFFFFFFFFFFFFFFFFFFFFFFFFFF AND PUSH20 0xFFFFFFFFFFFFFFFFFFFFFFFFFFFFFFFFFFFFFFFF AND DUP2 MSTORE PUSH1 0x20 ADD SWAP1 DUP2 MSTORE PUSH1 0x20 ADD PUSH1 0x0 KECCAK256 SWAP1 POP PUSH1 0x0 DUP2 PUSH1 0x5 ADD SWAP1 POP PUSH1 0x0 PUSH1 0x3 DUP2 GT ISZERO PUSH3 0x59B JUMPI PUSH3 0x59A PUSH3 0x1594 JUMP JUMPDEST JUMPDEST DUP5 PUSH1 0x3 DUP2 GT ISZERO PUSH3 0x5B1 JUMPI PUSH3 0x5B0 PUSH3 0x1594 JUMP JUMPDEST JUMPDEST EQ ISZERO PUSH3 0x5DB JUMPI PUSH1 0x1 DUP2 PUSH1 0x0 ADD PUSH1 0x0 PUSH2 0x100 EXP DUP2 SLOAD DUP2 PUSH1 0xFF MUL NOT AND SWAP1 DUP4 ISZERO ISZERO MUL OR SWAP1 SSTORE POP PUSH3 0x6DD JUMP JUMPDEST PUSH1 0x1 PUSH1 0x3 DUP2 GT ISZERO PUSH3 0x5F2 JUMPI PUSH3 0x5F1 PUSH3 0x1594 JUMP JUMPDEST JUMPDEST DUP5 PUSH1 0x3 DUP2 GT ISZERO PUSH3 0x608 JUMPI PUSH3 0x607 PUSH3 0x1594 JUMP JUMPDEST JUMPDEST EQ ISZERO PUSH3 0x632 JUMPI PUSH1 0x1 DUP2 PUSH1 0x0 ADD PUSH1 0x1 PUSH2 0x100 EXP DUP2 SLOAD DUP2 PUSH1 0xFF MUL NOT AND SWAP1 DUP4 ISZERO ISZERO MUL OR SWAP1 SSTORE POP PUSH3 0x6DC JUMP JUMPDEST PUSH1 0x2 PUSH1 0x3 DUP2 GT ISZERO PUSH3 0x649 JUMPI PUSH3 0x648 PUSH3 0x1594 JUMP JUMPDEST JUMPDEST DUP5 PUSH1 0x3 DUP2 GT ISZERO PUSH3 0x65F JUMPI PUSH3 0x65E PUSH3 0x1594 JUMP JUMPDEST JUMPDEST EQ ISZERO PUSH3 0x689 JUMPI PUSH1 0x1 DUP2 PUSH1 0x0 ADD PUSH1 0x2 PUSH2 0x100 EXP DUP2 SLOAD DUP2 PUSH1 0xFF MUL NOT AND SWAP1 DUP4 ISZERO ISZERO MUL OR SWAP1 SSTORE POP PUSH3 0x6DB JUMP JUMPDEST PUSH1 0x3 DUP1 DUP2 GT ISZERO PUSH3 0x69F JUMPI PUSH3 0x69E PUSH3 0x1594 JUMP JUMPDEST JUMPDEST DUP5 PUSH1 0x3 DUP2 GT ISZERO PUSH3 0x6B5 JUMPI PUSH3 0x6B4 PUSH3 0x1594 JUMP JUMPDEST JUMPDEST EQ ISZERO PUSH3 0x6DA JUMPI PUSH1 0x1 DUP2 PUSH1 0x0 ADD PUSH1 0x3 PUSH2 0x100 EXP DUP2 SLOAD DUP2 PUSH1 0xFF MUL NOT AND SWAP1 DUP4 ISZERO ISZERO MUL OR SWAP1 SSTORE POP JUMPDEST JUMPDEST JUMPDEST JUMPDEST POP POP POP POP POP JUMP JUMPDEST PUSH1 0x1 PUSH1 0x0 SWAP1 SLOAD SWAP1 PUSH2 0x100 EXP SWAP1 DIV PUSH20 0xFFFFFFFFFFFFFFFFFFFFFFFFFFFFFFFFFFFFFFFF AND PUSH20 0xFFFFFFFFFFFFFFFFFFFFFFFFFFFFFFFFFFFFFFFF AND CALLER PUSH20 0xFFFFFFFFFFFFFFFFFFFFFFFFFFFFFFFFFFFFFFFF AND EQ DUP1 PUSH3 0x74E JUMPI POP PUSH3 0x74D CALLER PUSH3 0xCB6 PUSH1 0x20 SHL PUSH1 0x20 SHR JUMP JUMPDEST JUMPDEST PUSH3 0x790 JUMPI PUSH1 0x40 MLOAD PUSH32 0x8C379A000000000000000000000000000000000000000000000000000000000 DUP2 MSTORE PUSH1 0x4 ADD PUSH3 0x787 SWAP1 PUSH3 0x1500 JUMP JUMPDEST PUSH1 0x40 MLOAD DUP1 SWAP2 SUB SWAP1 REVERT JUMPDEST DUP2 PUSH1 0x0 PUSH20 0xFFFFFFFFFFFFFFFFFFFFFFFFFFFFFFFFFFFFFFFF AND PUSH1 0x2 PUSH1 0x0 DUP4 PUSH20 0xFFFFFFFFFFFFFFFFFFFFFFFFFFFFFFFFFFFFFFFF AND PUSH20 0xFFFFFFFFFFFFFFFFFFFFFFFFFFFFFFFFFFFFFFFF AND DUP2 MSTORE PUSH1 0x20 ADD SWAP1 DUP2 MSTORE PUSH1 0x20 ADD PUSH1 0x0 KECCAK256 PUSH1 0x0 ADD PUSH1 0x0 SWAP1 SLOAD SWAP1 PUSH2 0x100 EXP SWAP1 DIV PUSH20 0xFFFFFFFFFFFFFFFFFFFFFFFFFFFFFFFFFFFFFFFF AND PUSH20 0xFFFFFFFFFFFFFFFFFFFFFFFFFFFFFFFFFFFFFFFF AND EQ ISZERO PUSH3 0x866 JUMPI PUSH1 0x40 MLOAD PUSH32 0x8C379A000000000000000000000000000000000000000000000000000000000 DUP2 MSTORE PUSH1 0x4 ADD PUSH3 0x85D SWAP1 PUSH3 0x1572 JUMP JUMPDEST PUSH1 0x40 MLOAD DUP1 SWAP2 SUB SWAP1 REVERT JUMPDEST PUSH1 0x0 PUSH1 0x2 PUSH1 0x0 DUP6 PUSH20 0xFFFFFFFFFFFFFFFFFFFFFFFFFFFFFFFFFFFFFFFF AND PUSH20 0xFFFFFFFFFFFFFFFFFFFFFFFFFFFFFFFFFFFFFFFF AND DUP2 MSTORE PUSH1 0x20 ADD SWAP1 DUP2 MSTORE PUSH1 0x20 ADD PUSH1 0x0 KECCAK256 SWAP1 POP PUSH1 0x0 DUP2 PUSH1 0x5 ADD SWAP1 POP PUSH1 0x0 PUSH1 0x3 DUP2 GT ISZERO PUSH3 0x8C8 JUMPI PUSH3 0x8C7 PUSH3 0x1594 JUMP JUMPDEST JUMPDEST DUP5 PUSH1 0x3 DUP2 GT ISZERO PUSH3 0x8DE JUMPI PUSH3 0x8DD PUSH3 0x1594 JUMP JUMPDEST JUMPDEST EQ ISZERO PUSH3 0x908 JUMPI PUSH1 0x0 DUP2 PUSH1 0x0 ADD PUSH1 0x0 PUSH2 0x100 EXP DUP2 SLOAD DUP2 PUSH1 0xFF MUL NOT AND SWAP1 DUP4 ISZERO ISZERO MUL OR SWAP1 SSTORE POP PUSH3 0xA0A JUMP JUMPDEST PUSH1 0x1 PUSH1 0x3 DUP2 GT ISZERO PUSH3 0x91F JUMPI PUSH3 0x91E PUSH3 0x1594 JUMP JUMPDEST JUMPDEST DUP5 PUSH1 0x3 DUP2 GT ISZERO PUSH3 0x935 JUMPI PUSH3 0x934 PUSH3 0x1594 JUMP JUMPDEST JUMPDEST EQ ISZERO PUSH3 0x95F JUMPI PUSH1 0x0 DUP2 PUSH1 0x0 ADD PUSH1 0x1 PUSH2 0x100 EXP DUP2 SLOAD DUP2 PUSH1 0xFF MUL NOT AND SWAP1 DUP4 ISZERO ISZERO MUL OR SWAP1 SSTORE POP PUSH3 0xA09 JUMP JUMPDEST PUSH1 0x2 PUSH1 0x3 DUP2 GT ISZERO PUSH3 0x976 JUMPI PUSH3 0x975 PUSH3 0x1594 JUMP JUMPDEST JUMPDEST DUP5 PUSH1 0x3 DUP2 GT ISZERO PUSH3 0x98C JUMPI PUSH3 0x98B PUSH3 0x1594 JUMP JUMPDEST JUMPDEST EQ ISZERO PUSH3 0x9B6 JUMPI PUSH1 0x0 DUP2 PUSH1 0x0 ADD PUSH1 0x2 PUSH2 0x100 EXP DUP2 SLOAD DUP2 PUSH1 0xFF MUL NOT AND SWAP1 DUP4 ISZERO ISZERO MUL OR SWAP1 SSTORE POP PUSH3 0xA08 JUMP JUMPDEST PUSH1 0x3 DUP1 DUP2 GT ISZERO PUSH3 0x9CC JUMPI PUSH3 0x9CB PUSH3 0x1594 JUMP JUMPDEST JUMPDEST DUP5 PUSH1 0x3 DUP2 GT ISZERO PUSH3 0x9E2 JUMPI PUSH3 0x9E1 PUSH3 0x1594 JUMP JUMPDEST JUMPDEST EQ ISZERO PUSH3 0xA07 JUMPI PUSH1 0x0 DUP2 PUSH1 0x0 ADD PUSH1 0x3 PUSH2 0x100 EXP DUP2 SLOAD DUP2 PUSH1 0xFF MUL NOT AND SWAP1 DUP4 ISZERO ISZERO MUL OR SWAP1 SSTORE POP JUMPDEST JUMPDEST JUMPDEST JUMPDEST POP POP POP POP POP JUMP JUMPDEST DUP1 PUSH1 0x0 PUSH20 0xFFFFFFFFFFFFFFFFFFFFFFFFFFFFFFFFFFFFFFFF AND PUSH1 0x2 PUSH1 0x0 DUP4 PUSH20 0xFFFFFFFFFFFFFFFFFFFFFFFFFFFFFFFFFFFFFFFF AND PUSH20 0xFFFFFFFFFFFFFFFFFFFFFFFFFFFFFFFFFFFFFFFF AND DUP2 MSTORE PUSH1 0x20 ADD SWAP1 DUP2 MSTORE PUSH1 0x20 ADD PUSH1 0x0 KECCAK256 PUSH1 0x0 ADD PUSH1 0x0 SWAP1 SLOAD SWAP1 PUSH2 0x100 EXP SWAP1 DIV PUSH20 0xFFFFFFFFFFFFFFFFFFFFFFFFFFFFFFFFFFFFFFFF AND PUSH20 0xFFFFFFFFFFFFFFFFFFFFFFFFFFFFFFFFFFFFFFFF AND EQ ISZERO PUSH3 0xAE7 JUMPI PUSH1 0x40 MLOAD PUSH32 0x8C379A000000000000000000000000000000000000000000000000000000000 DUP2 MSTORE PUSH1 0x4 ADD PUSH3 0xADE SWAP1 PUSH3 0x1572 JUMP JUMPDEST PUSH1 0x40 MLOAD DUP1 SWAP2 SUB SWAP1 REVERT JUMPDEST PUSH1 0x3 PUSH1 0x0 DUP4 PUSH20 0xFFFFFFFFFFFFFFFFFFFFFFFFFFFFFFFFFFFFFFFF AND PUSH20 0xFFFFFFFFFFFFFFFFFFFFFFFFFFFFFFFFFFFFFFFF AND DUP2 MSTORE PUSH1 0x20 ADD SWAP1 DUP2 MSTORE PUSH1 0x20 ADD PUSH1 0x0 KECCAK256 PUSH1 0x0 SWAP1 SLOAD SWAP1 PUSH2 0x100 EXP SWAP1 DIV PUSH1 0xFF AND PUSH3 0xCB2 JUMPI PUSH1 0x0 PUSH1 0x2 PUSH1 0x0 DUP5 PUSH20 0xFFFFFFFFFFFFFFFFFFFFFFFFFFFFFFFFFFFFFFFF AND PUSH20 0xFFFFFFFFFFFFFFFFFFFFFFFFFFFFFFFFFFFFFFFF AND DUP2 MSTORE PUSH1 0x20 ADD SWAP1 DUP2 MSTORE PUSH1 0x20 ADD PUSH1 0x0 KECCAK256 SWAP1 POP PUSH1 0x1 DUP2 PUSH1 0x4 ADD PUSH1 0x0 PUSH2 0x100 EXP DUP2 SLOAD DUP2 PUSH1 0xFF MUL NOT AND SWAP1 DUP4 ISZERO ISZERO MUL OR SWAP1 SSTORE POP PUSH1 0x0 DUP2 PUSH1 0x5 ADD PUSH1 0x40 MLOAD DUP1 PUSH1 0x80 ADD PUSH1 0x40 MSTORE SWAP1 DUP2 PUSH1 0x0 DUP3 ADD PUSH1 0x0 SWAP1 SLOAD SWAP1 PUSH2 0x100 EXP SWAP1 DIV PUSH1 0xFF AND ISZERO ISZERO ISZERO ISZERO DUP2 MSTORE PUSH1 0x20 ADD PUSH1 0x0 DUP3 ADD PUSH1 0x1 SWAP1 SLOAD SWAP1 PUSH2 0x100 EXP SWAP1 DIV PUSH1 0xFF AND ISZERO ISZERO ISZERO ISZERO DUP2 MSTORE PUSH1 0x20 ADD PUSH1 0x0 DUP3 ADD PUSH1 0x2 SWAP1 SLOAD SWAP1 PUSH2 0x100 EXP SWAP1 DIV PUSH1 0xFF AND ISZERO ISZERO ISZERO ISZERO DUP2 MSTORE PUSH1 0x20 ADD PUSH1 0x0 DUP3 ADD PUSH1 0x3 SWAP1 SLOAD SWAP1 PUSH2 0x100 EXP SWAP1 DIV PUSH1 0xFF AND ISZERO ISZERO ISZERO ISZERO DUP2 MSTORE POP POP SWAP1 POP DUP1 PUSH1 0x0 ADD MLOAD DUP1 PUSH3 0xC2A JUMPI POP DUP1 PUSH1 0x20 ADD MLOAD JUMPDEST DUP1 PUSH3 0xC37 JUMPI POP DUP1 PUSH1 0x40 ADD MLOAD JUMPDEST ISZERO PUSH3 0xCAF JUMPI PUSH1 0x1 PUSH1 0x3 PUSH1 0x0 DUP7 PUSH20 0xFFFFFFFFFFFFFFFFFFFFFFFFFFFFFFFFFFFFFFFF AND PUSH20 0xFFFFFFFFFFFFFFFFFFFFFFFFFFFFFFFFFFFFFFFF AND DUP2 MSTORE PUSH1 0x20 ADD SWAP1 DUP2 MSTORE PUSH1 0x20 ADD PUSH1 0x0 KECCAK256 PUSH1 0x0 PUSH2 0x100 EXP DUP2 SLOAD DUP2 PUSH1 0xFF MUL NOT AND SWAP1 DUP4 ISZERO ISZERO MUL OR SWAP1 SSTORE POP PUSH1 0x0 DUP1 DUP2 SLOAD DUP1 SWAP3 SWAP2 SWAP1 PUSH3 0xCA9 SWAP1 PUSH3 0x15FC JUMP JUMPDEST SWAP2 SWAP1 POP SSTORE POP JUMPDEST POP POP JUMPDEST POP POP JUMP JUMPDEST PUSH1 0x0 PUSH3 0xCCB DUP3 PUSH1 0x0 PUSH3 0xCD2 PUSH1 0x20 SHL PUSH1 0x20 SHR JUMP JUMPDEST SWAP1 POP SWAP2 SWAP1 POP JUMP JUMPDEST PUSH1 0x0 DUP1 PUSH1 0x2 PUSH1 0x0 DUP6 PUSH20 0xFFFFFFFFFFFFFFFFFFFFFFFFFFFFFFFFFFFFFFFF AND PUSH20 0xFFFFFFFFFFFFFFFFFFFFFFFFFFFFFFFFFFFFFFFF AND DUP2 MSTORE PUSH1 0x20 ADD SWAP1 DUP2 MSTORE PUSH1 0x20 ADD PUSH1 0x0 KECCAK256 PUSH1 0x40 MLOAD DUP1 PUSH1 0xC0 ADD PUSH1 0x40 MSTORE SWAP1 DUP2 PUSH1 0x0 DUP3 ADD PUSH1 0x0 SWAP1 SLOAD SWAP1 PUSH2 0x100 EXP SWAP1 DIV PUSH20 0xFFFFFFFFFFFFFFFFFFFFFFFFFFFFFFFFFFFFFFFF AND PUSH20 0xFFFFFFFFFFFFFFFFFFFFFFFFFFFFFFFFFFFFFFFF AND PUSH20 0xFFFFFFFFFFFFFFFFFFFFFFFFFFFFFFFFFFFFFFFF AND DUP2 MSTORE PUSH1 0x20 ADD PUSH1 0x1 DUP3 ADD DUP1 SLOAD PUSH3 0xD87 SWAP1 PUSH3 0x1679 JUMP JUMPDEST DUP1 PUSH1 0x1F ADD PUSH1 0x20 DUP1 SWAP2 DIV MUL PUSH1 0x20 ADD PUSH1 0x40 MLOAD SWAP1 DUP2 ADD PUSH1 0x40 MSTORE DUP1 SWAP3 SWAP2 SWAP1 DUP2 DUP2 MSTORE PUSH1 0x20 ADD DUP3 DUP1 SLOAD PUSH3 0xDB5 SWAP1 PUSH3 0x1679 JUMP JUMPDEST DUP1 ISZERO PUSH3 0xE06 JUMPI DUP1 PUSH1 0x1F LT PUSH3 0xDDA JUMPI PUSH2 0x100 DUP1 DUP4 SLOAD DIV MUL DUP4 MSTORE SWAP2 PUSH1 0x20 ADD SWAP2 PUSH3 0xE06 JUMP JUMPDEST DUP3 ADD SWAP2 SWAP1 PUSH1 0x0 MSTORE PUSH1 0x20 PUSH1 0x0 KECCAK256 SWAP1 JUMPDEST DUP2 SLOAD DUP2 MSTORE SWAP1 PUSH1 0x1 ADD SWAP1 PUSH1 0x20 ADD DUP1 DUP4 GT PUSH3 0xDE8 JUMPI DUP3 SWAP1 SUB PUSH1 0x1F AND DUP3 ADD SWAP2 JUMPDEST POP POP POP POP POP DUP2 MSTORE PUSH1 0x20 ADD PUSH1 0x2 DUP3 ADD DUP1 SLOAD PUSH3 0xE21 SWAP1 PUSH3 0x1679 JUMP JUMPDEST DUP1 PUSH1 0x1F ADD PUSH1 0x20 DUP1 SWAP2 DIV MUL PUSH1 0x20 ADD PUSH1 0x40 MLOAD SWAP1 DUP2 ADD PUSH1 0x40 MSTORE DUP1 SWAP3 SWAP2 SWAP1 DUP2 DUP2 MSTORE PUSH1 0x20 ADD DUP3 DUP1 SLOAD PUSH3 0xE4F SWAP1 PUSH3 0x1679 JUMP JUMPDEST DUP1 ISZERO PUSH3 0xEA0 JUMPI DUP1 PUSH1 0x1F LT PUSH3 0xE74 JUMPI PUSH2 0x100 DUP1 DUP4 SLOAD DIV MUL DUP4 MSTORE SWAP2 PUSH1 0x20 ADD SWAP2 PUSH3 0xEA0 JUMP JUMPDEST DUP3 ADD SWAP2 SWAP1 PUSH1 0x0 MSTORE PUSH1 0x20 PUSH1 0x0 KECCAK256 SWAP1 JUMPDEST DUP2 SLOAD DUP2 MSTORE SWAP1 PUSH1 0x1 ADD SWAP1 PUSH1 0x20 ADD DUP1 DUP4 GT PUSH3 0xE82 JUMPI DUP3 SWAP1 SUB PUSH1 0x1F AND DUP3 ADD SWAP2 JUMPDEST POP POP POP POP POP DUP2 MSTORE PUSH1 0x20 ADD PUSH1 0x3 DUP3 ADD DUP1 SLOAD PUSH3 0xEBB SWAP1 PUSH3 0x1679 JUMP JUMPDEST DUP1 PUSH1 0x1F ADD PUSH1 0x20 DUP1 SWAP2 DIV MUL PUSH1 0x20 ADD PUSH1 0x40 MLOAD SWAP1 DUP2 ADD PUSH1 0x40 MSTORE DUP1 SWAP3 SWAP2 SWAP1 DUP2 DUP2 MSTORE PUSH1 0x20 ADD DUP3 DUP1 SLOAD PUSH3 0xEE9 SWAP1 PUSH3 0x1679 JUMP JUMPDEST DUP1 ISZERO PUSH3 0xF3A JUMPI DUP1 PUSH1 0x1F LT PUSH3 0xF0E JUMPI PUSH2 0x100 DUP1 DUP4 SLOAD DIV MUL DUP4 MSTORE SWAP2 PUSH1 0x20 ADD SWAP2 PUSH3 0xF3A JUMP JUMPDEST DUP3 ADD SWAP2 SWAP1 PUSH1 0x0 MSTORE PUSH1 0x20 PUSH1 0x0 KECCAK256 SWAP1 JUMPDEST DUP2 SLOAD DUP2 MSTORE SWAP1 PUSH1 0x1 ADD SWAP1 PUSH1 0x20 ADD DUP1 DUP4 GT PUSH3 0xF1C JUMPI DUP3 SWAP1 SUB PUSH1 0x1F AND DUP3 ADD SWAP2 JUMPDEST POP POP POP POP POP DUP2 MSTORE PUSH1 0x20 ADD PUSH1 0x4 DUP3 ADD PUSH1 0x0 SWAP1 SLOAD SWAP1 PUSH2 0x100 EXP SWAP1 DIV PUSH1 0xFF AND ISZERO ISZERO ISZERO ISZERO DUP2 MSTORE PUSH1 0x20 ADD PUSH1 0x5 DUP3 ADD PUSH1 0x40 MLOAD DUP1 PUSH1 0x80 ADD PUSH1 0x40 MSTORE SWAP1 DUP2 PUSH1 0x0 DUP3 ADD PUSH1 0x0 SWAP1 SLOAD SWAP1 PUSH2 0x100 EXP SWAP1 DIV PUSH1 0xFF AND ISZERO ISZERO ISZERO ISZERO DUP2 MSTORE PUSH1 0x20 ADD PUSH1 0x0 DUP3 ADD PUSH1 0x1 SWAP1 SLOAD SWAP1 PUSH2 0x100 EXP SWAP1 DIV PUSH1 0xFF AND ISZERO ISZERO ISZERO ISZERO DUP2 MSTORE PUSH1 0x20 ADD PUSH1 0x0 DUP3 ADD PUSH1 0x2 SWAP1 SLOAD SWAP1 PUSH2 0x100 EXP SWAP1 DIV PUSH1 0xFF AND ISZERO ISZERO ISZERO ISZERO DUP2 MSTORE PUSH1 0x20 ADD PUSH1 0x0 DUP3 ADD PUSH1 0x3 SWAP1 SLOAD SWAP1 PUSH2 0x100 EXP SWAP1 DIV PUSH1 0xFF AND ISZERO ISZERO ISZERO ISZERO DUP2 MSTORE POP POP DUP2 MSTORE POP POP SWAP1 POP PUSH1 0x0 DUP2 PUSH1 0xA0 ADD MLOAD SWAP1 POP PUSH1 0x0 PUSH1 0x3 DUP2 GT ISZERO PUSH3 0x1000 JUMPI PUSH3 0xFFF PUSH3 0x1594 JUMP JUMPDEST JUMPDEST DUP5 PUSH1 0x3 DUP2 GT ISZERO PUSH3 0x1016 JUMPI PUSH3 0x1015 PUSH3 0x1594 JUMP JUMPDEST JUMPDEST EQ ISZERO PUSH3 0x102C JUMPI DUP1 PUSH1 0x0 ADD MLOAD SWAP3 POP POP POP PUSH3 0x10FB JUMP JUMPDEST PUSH1 0x1 PUSH1 0x3 DUP2 GT ISZERO PUSH3 0x1043 JUMPI PUSH3 0x1042 PUSH3 0x1594 JUMP JUMPDEST JUMPDEST DUP5 PUSH1 0x3 DUP2 GT ISZERO PUSH3 0x1059 JUMPI PUSH3 0x1058 PUSH3 0x1594 JUMP JUMPDEST JUMPDEST EQ ISZERO PUSH3 0x106F JUMPI DUP1 PUSH1 0x20 ADD MLOAD SWAP3 POP POP POP PUSH3 0x10FB JUMP JUMPDEST PUSH1 0x2 PUSH1 0x3 DUP2 GT ISZERO PUSH3 0x1086 JUMPI PUSH3 0x1085 PUSH3 0x1594 JUMP JUMPDEST JUMPDEST DUP5 PUSH1 0x3 DUP2 GT ISZERO PUSH3 0x109C JUMPI PUSH3 0x109B PUSH3 0x1594 JUMP JUMPDEST JUMPDEST EQ ISZERO PUSH3 0x10B2 JUMPI DUP1 PUSH1 0x40 ADD MLOAD SWAP3 POP POP POP PUSH3 0x10FB JUMP JUMPDEST PUSH1 0x3 DUP1 DUP2 GT ISZERO PUSH3 0x10C8 JUMPI PUSH3 0x10C7 PUSH3 0x1594 JUMP JUMPDEST JUMPDEST DUP5 PUSH1 0x3 DUP2 GT ISZERO PUSH3 0x10DE JUMPI PUSH3 0x10DD PUSH3 0x1594 JUMP JUMPDEST JUMPDEST EQ ISZERO PUSH3 0x10F4 JUMPI DUP1 PUSH1 0x60 ADD MLOAD SWAP3 POP POP POP PUSH3 0x10FB JUMP JUMPDEST PUSH1 0x0 SWAP3 POP POP POP JUMPDEST SWAP3 SWAP2 POP POP JUMP JUMPDEST DUP3 DUP1 SLOAD PUSH3 0x110F SWAP1 PUSH3 0x1679 JUMP JUMPDEST SWAP1 PUSH1 0x0 MSTORE PUSH1 0x20 PUSH1 0x0 KECCAK256 SWAP1 PUSH1 0x1F ADD PUSH1 0x20 SWAP1 DIV DUP2 ADD SWAP3 DUP3 PUSH3 0x1133 JUMPI PUSH1 0x0 DUP6 SSTORE PUSH3 0x117F JUMP JUMPDEST DUP3 PUSH1 0x1F LT PUSH3 0x114E JUMPI DUP1 MLOAD PUSH1 0xFF NOT AND DUP4 DUP1 ADD OR DUP6 SSTORE PUSH3 0x117F JUMP JUMPDEST DUP3 DUP1 ADD PUSH1 0x1 ADD DUP6 SSTORE DUP3 ISZERO PUSH3 0x117F JUMPI SWAP2 DUP3 ADD JUMPDEST DUP3 DUP2 GT ISZERO PUSH3 0x117E JUMPI DUP3 MLOAD DUP3 SSTORE SWAP2 PUSH1 0x20 ADD SWAP2 SWAP1 PUSH1 0x1 ADD SWAP1 PUSH3 0x1161 JUMP JUMPDEST JUMPDEST POP SWAP1 POP PUSH3 0x118E SWAP2 SWAP1 PUSH3 0x1192 JUMP JUMPDEST POP SWAP1 JUMP JUMPDEST JUMPDEST DUP1 DUP3 GT ISZERO PUSH3 0x11AD JUMPI PUSH1 0x0 DUP2 PUSH1 0x0 SWAP1 SSTORE POP PUSH1 0x1 ADD PUSH3 0x1193 JUMP JUMPDEST POP SWAP1 JUMP JUMPDEST PUSH1 0x0 PUSH1 0x40 MLOAD SWAP1 POP SWAP1 JUMP JUMPDEST PUSH1 0x0 DUP1 REVERT JUMPDEST PUSH1 0x0 DUP1 REVERT JUMPDEST PUSH1 0x0 DUP1 REVERT JUMPDEST PUSH1 0x0 DUP1 REVERT JUMPDEST PUSH1 0x0 PUSH1 0x1F NOT PUSH1 0x1F DUP4 ADD AND SWAP1 POP SWAP2 SWAP1 POP JUMP JUMPDEST PUSH32 0x4E487B7100000000000000000000000000000000000000000000000000000000 PUSH1 0x0 MSTORE PUSH1 0x41 PUSH1 0x4 MSTORE PUSH1 0x24 PUSH1 0x0 REVERT JUMPDEST PUSH3 0x121A DUP3 PUSH3 0x11CF JUMP JUMPDEST DUP2 ADD DUP2 DUP2 LT PUSH8 0xFFFFFFFFFFFFFFFF DUP3 GT OR ISZERO PUSH3 0x123C JUMPI PUSH3 0x123B PUSH3 0x11E0 JUMP JUMPDEST JUMPDEST DUP1 PUSH1 0x40 MSTORE POP POP POP JUMP JUMPDEST PUSH1 0x0 PUSH3 0x1251 PUSH3 0x11B1 JUMP JUMPDEST SWAP1 POP PUSH3 0x125F DUP3 DUP3 PUSH3 0x120F JUMP JUMPDEST SWAP2 SWAP1 POP JUMP JUMPDEST PUSH1 0x0 PUSH8 0xFFFFFFFFFFFFFFFF DUP3 GT ISZERO PUSH3 0x1282 JUMPI PUSH3 0x1281 PUSH3 0x11E0 JUMP JUMPDEST JUMPDEST PUSH3 0x128D DUP3 PUSH3 0x11CF JUMP JUMPDEST SWAP1 POP PUSH1 0x20 DUP2 ADD SWAP1 POP SWAP2 SWAP1 POP JUMP JUMPDEST PUSH1 0x0 JUMPDEST DUP4 DUP2 LT ISZERO PUSH3 0x12BA JUMPI DUP1 DUP3 ADD MLOAD DUP2 DUP5 ADD MSTORE PUSH1 0x20 DUP2 ADD SWAP1 POP PUSH3 0x129D JUMP JUMPDEST DUP4 DUP2 GT ISZERO PUSH3 0x12CA JUMPI PUSH1 0x0 DUP5 DUP5 ADD MSTORE JUMPDEST POP POP POP POP JUMP JUMPDEST PUSH1 0x0 PUSH3 0x12E7 PUSH3 0x12E1 DUP5 PUSH3 0x1264 JUMP JUMPDEST PUSH3 0x1245 JUMP JUMPDEST SWAP1 POP DUP3 DUP2 MSTORE PUSH1 0x20 DUP2 ADD DUP5 DUP5 DUP5 ADD GT ISZERO PUSH3 0x1306 JUMPI PUSH3 0x1305 PUSH3 0x11CA JUMP JUMPDEST JUMPDEST PUSH3 0x1313 DUP5 DUP3 DUP6 PUSH3 0x129A JUMP JUMPDEST POP SWAP4 SWAP3 POP POP POP JUMP JUMPDEST PUSH1 0x0 DUP3 PUSH1 0x1F DUP4 ADD SLT PUSH3 0x1333 JUMPI PUSH3 0x1332 PUSH3 0x11C5 JUMP JUMPDEST JUMPDEST DUP2 MLOAD PUSH3 0x1345 DUP5 DUP3 PUSH1 0x20 DUP7 ADD PUSH3 0x12D0 JUMP JUMPDEST SWAP2 POP POP SWAP3 SWAP2 POP POP JUMP JUMPDEST PUSH1 0x0 DUP1 PUSH1 0x0 PUSH1 0x60 DUP5 DUP7 SUB SLT ISZERO PUSH3 0x136A JUMPI PUSH3 0x1369 PUSH3 0x11BB JUMP JUMPDEST JUMPDEST PUSH1 0x0 DUP5 ADD MLOAD PUSH8 0xFFFFFFFFFFFFFFFF DUP2 GT ISZERO PUSH3 0x138B JUMPI PUSH3 0x138A PUSH3 0x11C0 JUMP JUMPDEST JUMPDEST PUSH3 0x1399 DUP7 DUP3 DUP8 ADD PUSH3 0x131B JUMP JUMPDEST SWAP4 POP POP PUSH1 0x20 DUP5 ADD MLOAD PUSH8 0xFFFFFFFFFFFFFFFF DUP2 GT ISZERO PUSH3 0x13BD JUMPI PUSH3 0x13BC PUSH3 0x11C0 JUMP JUMPDEST JUMPDEST PUSH3 0x13CB DUP7 DUP3 DUP8 ADD PUSH3 0x131B JUMP JUMPDEST SWAP3 POP POP PUSH1 0x40 DUP5 ADD MLOAD PUSH8 0xFFFFFFFFFFFFFFFF DUP2 GT ISZERO PUSH3 0x13EF JUMPI PUSH3 0x13EE PUSH3 0x11C0 JUMP JUMPDEST JUMPDEST PUSH3 0x13FD DUP7 DUP3 DUP8 ADD PUSH3 0x131B JUMP JUMPDEST SWAP2 POP POP SWAP3 POP SWAP3 POP SWAP3 JUMP JUMPDEST PUSH1 0x0 DUP3 DUP3 MSTORE PUSH1 0x20 DUP3 ADD SWAP1 POP SWAP3 SWAP2 POP POP JUMP JUMPDEST PUSH32 0x4163636F756E7420616C72656164792065786973747300000000000000000000 PUSH1 0x0 DUP3 ADD MSTORE POP JUMP JUMPDEST PUSH1 0x0 PUSH3 0x1450 PUSH1 0x16 DUP4 PUSH3 0x1407 JUMP JUMPDEST SWAP2 POP PUSH3 0x145D DUP3 PUSH3 0x1418 JUMP JUMPDEST PUSH1 0x20 DUP3 ADD SWAP1 POP SWAP2 SWAP1 POP JUMP JUMPDEST PUSH1 0x0 PUSH1 0x20 DUP3 ADD SWAP1 POP DUP2 DUP2 SUB PUSH1 0x0 DUP4 ADD MSTORE PUSH3 0x1483 DUP2 PUSH3 0x1441 JUMP JUMPDEST SWAP1 POP SWAP2 SWAP1 POP JUMP JUMPDEST PUSH32 0x4F6E6C79206F776E65722063616E2063616C6C20746869732066756E6374696F PUSH1 0x0 DUP3 ADD MSTORE PUSH32 0x6E2E000000000000000000000000000000000000000000000000000000000000 PUSH1 0x20 DUP3 ADD MSTORE POP JUMP JUMPDEST PUSH1 0x0 PUSH3 0x14E8 PUSH1 0x22 DUP4 PUSH3 0x1407 JUMP JUMPDEST SWAP2 POP PUSH3 0x14F5 DUP3 PUSH3 0x148A JUMP JUMPDEST PUSH1 0x40 DUP3 ADD SWAP1 POP SWAP2 SWAP1 POP JUMP JUMPDEST PUSH1 0x0 PUSH1 0x20 DUP3 ADD SWAP1 POP DUP2 DUP2 SUB PUSH1 0x0 DUP4 ADD MSTORE PUSH3 0x151B DUP2 PUSH3 0x14D9 JUMP JUMPDEST SWAP1 POP SWAP2 SWAP1 POP JUMP JUMPDEST PUSH32 0x4163636F756E7420646F65736E27742065786973740000000000000000000000 PUSH1 0x0 DUP3 ADD MSTORE POP JUMP JUMPDEST PUSH1 0x0 PUSH3 0x155A PUSH1 0x15 DUP4 PUSH3 0x1407 JUMP JUMPDEST SWAP2 POP PUSH3 0x1567 DUP3 PUSH3 0x1522 JUMP JUMPDEST PUSH1 0x20 DUP3 ADD SWAP1 POP SWAP2 SWAP1 POP JUMP JUMPDEST PUSH1 0x0 PUSH1 0x20 DUP3 ADD SWAP1 POP DUP2 DUP2 SUB PUSH1 0x0 DUP4 ADD MSTORE PUSH3 0x158D DUP2 PUSH3 0x154B JUMP JUMPDEST SWAP1 POP SWAP2 SWAP1 POP JUMP JUMPDEST PUSH32 0x4E487B7100000000000000000000000000000000000000000000000000000000 PUSH1 0x0 MSTORE PUSH1 0x21 PUSH1 0x4 MSTORE PUSH1 0x24 PUSH1 0x0 REVERT JUMPDEST PUSH32 0x4E487B7100000000000000000000000000000000000000000000000000000000 PUSH1 0x0 MSTORE PUSH1 0x11 PUSH1 0x4 MSTORE PUSH1 0x24 PUSH1 0x0 REVERT JUMPDEST PUSH1 0x0 DUP2 SWAP1 POP SWAP2 SWAP1 POP JUMP JUMPDEST PUSH1 0x0 PUSH3 0x1609 DUP3 PUSH3 0x15F2 JUMP JUMPDEST SWAP2 POP PUSH32 0xFFFFFFFFFFFFFFFFFFFFFFFFFFFFFFFFFFFFFFFFFFFFFFFFFFFFFFFFFFFFFFFF DUP3 EQ ISZERO PUSH3 0x163F JUMPI PUSH3 0x163E PUSH3 0x15C3 JUMP JUMPDEST JUMPDEST PUSH1 0x1 DUP3 ADD SWAP1 POP SWAP2 SWAP1 POP JUMP JUMPDEST PUSH32 0x4E487B7100000000000000000000000000000000000000000000000000000000 PUSH1 0x0 MSTORE PUSH1 0x22 PUSH1 0x4 MSTORE PUSH1 0x24 PUSH1 0x0 REVERT JUMPDEST PUSH1 0x0 PUSH1 0x2 DUP3 DIV SWAP1 POP PUSH1 0x1 DUP3 AND DUP1 PUSH3 0x1692 JUMPI PUSH1 0x7F DUP3 AND SWAP2 POP JUMPDEST PUSH1 0x20 DUP3 LT DUP2 EQ ISZERO PUSH3 0x16A9 JUMPI PUSH3 0x16A8 PUSH3 0x164A JUMP JUMPDEST JUMPDEST POP SWAP2 SWAP1 POP JUMP JUMPDEST PUSH2 0x2909 DUP1 PUSH3 0x16BF PUSH1 0x0 CODECOPY PUSH1 0x0 RETURN INVALID PUSH1 0x80 PUSH1 0x40 MSTORE CALLVALUE DUP1 ISZERO PUSH2 0x10 JUMPI PUSH1 0x0 DUP1 REVERT JUMPDEST POP PUSH1 0x4 CALLDATASIZE LT PUSH2 0x100 JUMPI PUSH1 0x0 CALLDATALOAD PUSH1 0xE0 SHR DUP1 PUSH4 0x8DA5CB5B GT PUSH2 0x97 JUMPI DUP1 PUSH4 0xD3A5059A GT PUSH2 0x66 JUMPI DUP1 PUSH4 0xD3A5059A EQ PUSH2 0x2BF JUMPI DUP1 PUSH4 0xDEE94B4A EQ PUSH2 0x2DB JUMPI DUP1 PUSH4 0xE8621E59 EQ PUSH2 0x2F7 JUMPI DUP1 PUSH4 0xFA4D7AAE EQ PUSH2 0x327 JUMPI PUSH2 0x100 JUMP JUMPDEST DUP1 PUSH4 0x8DA5CB5B EQ PUSH2 0x239 JUMPI DUP1 PUSH4 0xA1AEA04A EQ PUSH2 0x257 JUMPI DUP1 PUSH4 0xB74866FB EQ PUSH2 0x273 JUMPI DUP1 PUSH4 0xC2B7D948 EQ PUSH2 0x28F JUMPI PUSH2 0x100 JUMP JUMPDEST DUP1 PUSH4 0x49587281 GT PUSH2 0xD3 JUMPI DUP1 PUSH4 0x49587281 EQ PUSH2 0x1B3 JUMPI DUP1 PUSH4 0x5FB6C6ED EQ PUSH2 0x1CF JUMPI DUP1 PUSH4 0x630A195B EQ PUSH2 0x1ED JUMPI DUP1 PUSH4 0x65C93769 EQ PUSH2 0x209 JUMPI PUSH2 0x100 JUMP JUMPDEST DUP1 PUSH4 0x1EB0857 EQ PUSH2 0x105 JUMPI DUP1 PUSH4 0x56909B7 EQ PUSH2 0x135 JUMPI DUP1 PUSH4 0x22FAA41F EQ PUSH2 0x165 JUMPI DUP1 PUSH4 0x297027D5 EQ PUSH2 0x183 JUMPI JUMPDEST PUSH1 0x0 DUP1 REVERT JUMPDEST PUSH2 0x11F PUSH1 0x4 DUP1 CALLDATASIZE SUB DUP2 ADD SWAP1 PUSH2 0x11A SWAP2 SWAP1 PUSH2 0x22FF JUMP JUMPDEST PUSH2 0x357 JUMP JUMPDEST PUSH1 0x40 MLOAD PUSH2 0x12C SWAP2 SWAP1 PUSH2 0x2347 JUMP JUMPDEST PUSH1 0x40 MLOAD DUP1 SWAP2 SUB SWAP1 RETURN JUMPDEST PUSH2 0x14F PUSH1 0x4 DUP1 CALLDATASIZE SUB DUP2 ADD SWAP1 PUSH2 0x14A SWAP2 SWAP1 PUSH2 0x22FF JUMP JUMPDEST PUSH2 0x6D6 JUMP JUMPDEST PUSH1 0x40 MLOAD PUSH2 0x15C SWAP2 SWAP1 PUSH2 0x2347 JUMP JUMPDEST PUSH1 0x40 MLOAD DUP1 SWAP2 SUB SWAP1 RETURN JUMPDEST PUSH2 0x16D PUSH2 0x6EA JUMP JUMPDEST PUSH1 0x40 MLOAD PUSH2 0x17A SWAP2 SWAP1 PUSH2 0x237B JUMP JUMPDEST PUSH1 0x40 MLOAD DUP1 SWAP2 SUB SWAP1 RETURN JUMPDEST PUSH2 0x19D PUSH1 0x4 DUP1 CALLDATASIZE SUB DUP2 ADD SWAP1 PUSH2 0x198 SWAP2 SWAP1 PUSH2 0x22FF JUMP JUMPDEST PUSH2 0x6F3 JUMP JUMPDEST PUSH1 0x40 MLOAD PUSH2 0x1AA SWAP2 SWAP1 PUSH2 0x2347 JUMP JUMPDEST PUSH1 0x40 MLOAD DUP1 SWAP2 SUB SWAP1 RETURN JUMPDEST PUSH2 0x1CD PUSH1 0x4 DUP1 CALLDATASIZE SUB DUP2 ADD SWAP1 PUSH2 0x1C8 SWAP2 SWAP1 PUSH2 0x22FF JUMP JUMPDEST PUSH2 0x707 JUMP JUMPDEST STOP JUMPDEST PUSH2 0x1D7 PUSH2 0x901 JUMP JUMPDEST PUSH1 0x40 MLOAD PUSH2 0x1E4 SWAP2 SWAP1 PUSH2 0x237B JUMP JUMPDEST PUSH1 0x40 MLOAD DUP1 SWAP2 SUB SWAP1 RETURN JUMPDEST PUSH2 0x207 PUSH1 0x4 DUP1 CALLDATASIZE SUB DUP2 ADD SWAP1 PUSH2 0x202 SWAP2 SWAP1 PUSH2 0x23BB JUMP JUMPDEST PUSH2 0x907 JUMP JUMPDEST STOP JUMPDEST PUSH2 0x223 PUSH1 0x4 DUP1 CALLDATASIZE SUB DUP2 ADD SWAP1 PUSH2 0x21E SWAP2 SWAP1 PUSH2 0x22FF JUMP JUMPDEST PUSH2 0xC06 JUMP JUMPDEST PUSH1 0x40 MLOAD PUSH2 0x230 SWAP2 SWAP1 PUSH2 0x2347 JUMP JUMPDEST PUSH1 0x40 MLOAD DUP1 SWAP2 SUB SWAP1 RETURN JUMPDEST PUSH2 0x241 PUSH2 0xF85 JUMP JUMPDEST PUSH1 0x40 MLOAD PUSH2 0x24E SWAP2 SWAP1 PUSH2 0x240A JUMP JUMPDEST PUSH1 0x40 MLOAD DUP1 SWAP2 SUB SWAP1 RETURN JUMPDEST PUSH2 0x271 PUSH1 0x4 DUP1 CALLDATASIZE SUB DUP2 ADD SWAP1 PUSH2 0x26C SWAP2 SWAP1 PUSH2 0x22FF JUMP JUMPDEST PUSH2 0xFAB JUMP JUMPDEST STOP JUMPDEST PUSH2 0x28D PUSH1 0x4 DUP1 CALLDATASIZE SUB DUP2 ADD SWAP1 PUSH2 0x288 SWAP2 SWAP1 PUSH2 0x23BB JUMP JUMPDEST PUSH2 0x1247 JUMP JUMPDEST STOP JUMPDEST PUSH2 0x2A9 PUSH1 0x4 DUP1 CALLDATASIZE SUB DUP2 ADD SWAP1 PUSH2 0x2A4 SWAP2 SWAP1 PUSH2 0x22FF JUMP JUMPDEST PUSH2 0x1546 JUMP JUMPDEST PUSH1 0x40 MLOAD PUSH2 0x2B6 SWAP2 SWAP1 PUSH2 0x2347 JUMP JUMPDEST PUSH1 0x40 MLOAD DUP1 SWAP2 SUB SWAP1 RETURN JUMPDEST PUSH2 0x2D9 PUSH1 0x4 DUP1 CALLDATASIZE SUB DUP2 ADD SWAP1 PUSH2 0x2D4 SWAP2 SWAP1 PUSH2 0x22FF JUMP JUMPDEST PUSH2 0x18C5 JUMP JUMPDEST STOP JUMPDEST PUSH2 0x2F5 PUSH1 0x4 DUP1 CALLDATASIZE SUB DUP2 ADD SWAP1 PUSH2 0x2F0 SWAP2 SWAP1 PUSH2 0x256B JUMP JUMPDEST PUSH2 0x1AA9 JUMP JUMPDEST STOP JUMPDEST PUSH2 0x311 PUSH1 0x4 DUP1 CALLDATASIZE SUB DUP2 ADD SWAP1 PUSH2 0x30C SWAP2 SWAP1 PUSH2 0x22FF JUMP JUMPDEST PUSH2 0x1D8B JUMP JUMPDEST PUSH1 0x40 MLOAD PUSH2 0x31E SWAP2 SWAP1 PUSH2 0x2347 JUMP JUMPDEST PUSH1 0x40 MLOAD DUP1 SWAP2 SUB SWAP1 RETURN JUMPDEST PUSH2 0x341 PUSH1 0x4 DUP1 CALLDATASIZE SUB DUP2 ADD SWAP1 PUSH2 0x33C SWAP2 SWAP1 PUSH2 0x22FF JUMP JUMPDEST PUSH2 0x1D9F JUMP JUMPDEST PUSH1 0x40 MLOAD PUSH2 0x34E SWAP2 SWAP1 PUSH2 0x2347 JUMP JUMPDEST PUSH1 0x40 MLOAD DUP1 SWAP2 SUB SWAP1 RETURN JUMPDEST PUSH1 0x0 DUP1 PUSH1 0x2 PUSH1 0x0 DUP5 PUSH20 0xFFFFFFFFFFFFFFFFFFFFFFFFFFFFFFFFFFFFFFFF AND PUSH20 0xFFFFFFFFFFFFFFFFFFFFFFFFFFFFFFFFFFFFFFFF AND DUP2 MSTORE PUSH1 0x20 ADD SWAP1 DUP2 MSTORE PUSH1 0x20 ADD PUSH1 0x0 KECCAK256 PUSH1 0x40 MLOAD DUP1 PUSH1 0xC0 ADD PUSH1 0x40 MSTORE SWAP1 DUP2 PUSH1 0x0 DUP3 ADD PUSH1 0x0 SWAP1 SLOAD SWAP1 PUSH2 0x100 EXP SWAP1 DIV PUSH20 0xFFFFFFFFFFFFFFFFFFFFFFFFFFFFFFFFFFFFFFFF AND PUSH20 0xFFFFFFFFFFFFFFFFFFFFFFFFFFFFFFFFFFFFFFFF AND PUSH20 0xFFFFFFFFFFFFFFFFFFFFFFFFFFFFFFFFFFFFFFFF AND DUP2 MSTORE PUSH1 0x20 ADD PUSH1 0x1 DUP3 ADD DUP1 SLOAD PUSH2 0x40A SWAP1 PUSH2 0x2655 JUMP JUMPDEST DUP1 PUSH1 0x1F ADD PUSH1 0x20 DUP1 SWAP2 DIV MUL PUSH1 0x20 ADD PUSH1 0x40 MLOAD SWAP1 DUP2 ADD PUSH1 0x40 MSTORE DUP1 SWAP3 SWAP2 SWAP1 DUP2 DUP2 MSTORE PUSH1 0x20 ADD DUP3 DUP1 SLOAD PUSH2 0x436 SWAP1 PUSH2 0x2655 JUMP JUMPDEST DUP1 ISZERO PUSH2 0x483 JUMPI DUP1 PUSH1 0x1F LT PUSH2 0x458 JUMPI PUSH2 0x100 DUP1 DUP4 SLOAD DIV MUL DUP4 MSTORE SWAP2 PUSH1 0x20 ADD SWAP2 PUSH2 0x483 JUMP JUMPDEST DUP3 ADD SWAP2 SWAP1 PUSH1 0x0 MSTORE PUSH1 0x20 PUSH1 0x0 KECCAK256 SWAP1 JUMPDEST DUP2 SLOAD DUP2 MSTORE SWAP1 PUSH1 0x1 ADD SWAP1 PUSH1 0x20 ADD DUP1 DUP4 GT PUSH2 0x466 JUMPI DUP3 SWAP1 SUB PUSH1 0x1F AND DUP3 ADD SWAP2 JUMPDEST POP POP POP POP POP DUP2 MSTORE PUSH1 0x20 ADD PUSH1 0x2 DUP3 ADD DUP1 SLOAD PUSH2 0x49C SWAP1 PUSH2 0x2655 JUMP JUMPDEST DUP1 PUSH1 0x1F ADD PUSH1 0x20 DUP1 SWAP2 DIV MUL PUSH1 0x20 ADD PUSH1 0x40 MLOAD SWAP1 DUP2 ADD PUSH1 0x40 MSTORE DUP1 SWAP3 SWAP2 SWAP1 DUP2 DUP2 MSTORE PUSH1 0x20 ADD DUP3 DUP1 SLOAD PUSH2 0x4C8 SWAP1 PUSH2 0x2655 JUMP JUMPDEST DUP1 ISZERO PUSH2 0x515 JUMPI DUP1 PUSH1 0x1F LT PUSH2 0x4EA JUMPI PUSH2 0x100 DUP1 DUP4 SLOAD DIV MUL DUP4 MSTORE SWAP2 PUSH1 0x20 ADD SWAP2 PUSH2 0x515 JUMP JUMPDEST DUP3 ADD SWAP2 SWAP1 PUSH1 0x0 MSTORE PUSH1 0x20 PUSH1 0x0 KECCAK256 SWAP1 JUMPDEST DUP2 SLOAD DUP2 MSTORE SWAP1 PUSH1 0x1 ADD SWAP1 PUSH1 0x20 ADD DUP1 DUP4 GT PUSH2 0x4F8 JUMPI DUP3 SWAP1 SUB PUSH1 0x1F AND DUP3 ADD SWAP2 JUMPDEST POP POP POP POP POP DUP2 MSTORE PUSH1 0x20 ADD PUSH1 0x3 DUP3 ADD DUP1 SLOAD PUSH2 0x52E SWAP1 PUSH2 0x2655 JUMP JUMPDEST DUP1 PUSH1 0x1F ADD PUSH1 0x20 DUP1 SWAP2 DIV MUL PUSH1 0x20 ADD PUSH1 0x40 MLOAD SWAP1 DUP2 ADD PUSH1 0x40 MSTORE DUP1 SWAP3 SWAP2 SWAP1 DUP2 DUP2 MSTORE PUSH1 0x20 ADD DUP3 DUP1 SLOAD PUSH2 0x55A SWAP1 PUSH2 0x2655 JUMP JUMPDEST DUP1 ISZERO PUSH2 0x5A7 JUMPI DUP1 PUSH1 0x1F LT PUSH2 0x57C JUMPI PUSH2 0x100 DUP1 DUP4 SLOAD DIV MUL DUP4 MSTORE SWAP2 PUSH1 0x20 ADD SWAP2 PUSH2 0x5A7 JUMP JUMPDEST DUP3 ADD SWAP2 SWAP1 PUSH1 0x0 MSTORE PUSH1 0x20 PUSH1 0x0 KECCAK256 SWAP1 JUMPDEST DUP2 SLOAD DUP2 MSTORE SWAP1 PUSH1 0x1 ADD SWAP1 PUSH1 0x20 ADD DUP1 DUP4 GT PUSH2 0x58A JUMPI DUP3 SWAP1 SUB PUSH1 0x1F AND DUP3 ADD SWAP2 JUMPDEST POP POP POP POP POP DUP2 MSTORE PUSH1 0x20 ADD PUSH1 0x4 DUP3 ADD PUSH1 0x0 SWAP1 SLOAD SWAP1 PUSH2 0x100 EXP SWAP1 DIV PUSH1 0xFF AND ISZERO ISZERO ISZERO ISZERO DUP2 MSTORE PUSH1 0x20 ADD PUSH1 0x5 DUP3 ADD PUSH1 0x40 MLOAD DUP1 PUSH1 0x80 ADD PUSH1 0x40 MSTORE SWAP1 DUP2 PUSH1 0x0 DUP3 ADD PUSH1 0x0 SWAP1 SLOAD SWAP1 PUSH2 0x100 EXP SWAP1 DIV PUSH1 0xFF AND ISZERO ISZERO ISZERO ISZERO DUP2 MSTORE PUSH1 0x20 ADD PUSH1 0x0 DUP3 ADD PUSH1 0x1 SWAP1 SLOAD SWAP1 PUSH2 0x100 EXP SWAP1 DIV PUSH1 0xFF AND ISZERO ISZERO ISZERO ISZERO DUP2 MSTORE PUSH1 0x20 ADD PUSH1 0x0 DUP3 ADD PUSH1 0x2 SWAP1 SLOAD SWAP1 PUSH2 0x100 EXP SWAP1 DIV PUSH1 0xFF AND ISZERO ISZERO ISZERO ISZERO DUP2 MSTORE PUSH1 0x20 ADD PUSH1 0x0 DUP3 ADD PUSH1 0x3 SWAP1 SLOAD SWAP1 PUSH2 0x100 EXP SWAP1 DIV PUSH1 0xFF AND ISZERO ISZERO ISZERO ISZERO DUP2 MSTORE POP POP DUP2 MSTORE POP POP SWAP1 POP PUSH1 0x0 PUSH20 0xFFFFFFFFFFFFFFFFFFFFFFFFFFFFFFFFFFFFFFFF AND DUP2 PUSH1 0x0 ADD MLOAD PUSH20 0xFFFFFFFFFFFFFFFFFFFFFFFFFFFFFFFFFFFFFFFF AND EQ PUSH2 0x6CB JUMPI DUP1 PUSH1 0x80 ADD MLOAD DUP1 ISZERO PUSH2 0x6BB JUMPI POP DUP1 PUSH1 0xA0 ADD MLOAD PUSH1 0x0 ADD MLOAD DUP1 PUSH2 0x6AA JUMPI POP DUP1 PUSH1 0xA0 ADD MLOAD PUSH1 0x20 ADD MLOAD JUMPDEST DUP1 PUSH2 0x6BA JUMPI POP DUP1 PUSH1 0xA0 ADD MLOAD PUSH1 0x40 ADD MLOAD JUMPDEST JUMPDEST ISZERO PUSH2 0x6CA JUMPI PUSH1 0x1 SWAP2 POP POP PUSH2 0x6D1 JUMP JUMPDEST JUMPDEST PUSH1 0x0 SWAP2 POP POP JUMPDEST SWAP2 SWAP1 POP JUMP JUMPDEST PUSH1 0x0 PUSH2 0x6E3 DUP3 PUSH1 0x2 PUSH2 0x1DB3 JUMP JUMPDEST SWAP1 POP SWAP2 SWAP1 POP JUMP JUMPDEST PUSH1 0x0 DUP1 SLOAD SWAP1 POP SWAP1 JUMP JUMPDEST PUSH1 0x0 PUSH2 0x700 DUP3 PUSH1 0x0 PUSH2 0x1DB3 JUMP JUMPDEST SWAP1 POP SWAP2 SWAP1 POP JUMP JUMPDEST DUP1 PUSH1 0x0 PUSH20 0xFFFFFFFFFFFFFFFFFFFFFFFFFFFFFFFFFFFFFFFF AND PUSH1 0x2 PUSH1 0x0 DUP4 PUSH20 0xFFFFFFFFFFFFFFFFFFFFFFFFFFFFFFFFFFFFFFFF AND PUSH20 0xFFFFFFFFFFFFFFFFFFFFFFFFFFFFFFFFFFFFFFFF AND DUP2 MSTORE PUSH1 0x20 ADD SWAP1 DUP2 MSTORE PUSH1 0x20 ADD PUSH1 0x0 KECCAK256 PUSH1 0x0 ADD PUSH1 0x0 SWAP1 SLOAD SWAP1 PUSH2 0x100 EXP SWAP1 DIV PUSH20 0xFFFFFFFFFFFFFFFFFFFFFFFFFFFFFFFFFFFFFFFF AND PUSH20 0xFFFFFFFFFFFFFFFFFFFFFFFFFFFFFFFFFFFFFFFF AND EQ ISZERO PUSH2 0x7DA JUMPI PUSH1 0x40 MLOAD PUSH32 0x8C379A000000000000000000000000000000000000000000000000000000000 DUP2 MSTORE PUSH1 0x4 ADD PUSH2 0x7D1 SWAP1 PUSH2 0x26E4 JUMP JUMPDEST PUSH1 0x40 MLOAD DUP1 SWAP2 SUB SWAP1 REVERT JUMPDEST PUSH1 0x3 PUSH1 0x0 DUP4 PUSH20 0xFFFFFFFFFFFFFFFFFFFFFFFFFFFFFFFFFFFFFFFF AND PUSH20 0xFFFFFFFFFFFFFFFFFFFFFFFFFFFFFFFFFFFFFFFF AND DUP2 MSTORE PUSH1 0x20 ADD SWAP1 DUP2 MSTORE PUSH1 0x20 ADD PUSH1 0x0 KECCAK256 PUSH1 0x0 SWAP1 SLOAD SWAP1 PUSH2 0x100 EXP SWAP1 DIV PUSH1 0xFF AND ISZERO PUSH2 0x8FD JUMPI PUSH1 0x0 PUSH1 0x2 PUSH1 0x0 DUP5 PUSH20 0xFFFFFFFFFFFFFFFFFFFFFFFFFFFFFFFFFFFFFFFF AND PUSH20 0xFFFFFFFFFFFFFFFFFFFFFFFFFFFFFFFFFFFFFFFF AND DUP2 MSTORE PUSH1 0x20 ADD SWAP1 DUP2 MSTORE PUSH1 0x20 ADD PUSH1 0x0 KECCAK256 SWAP1 POP PUSH1 0x0 DUP2 PUSH1 0x4 ADD PUSH1 0x0 PUSH2 0x100 EXP DUP2 SLOAD DUP2 PUSH1 0xFF MUL NOT AND SWAP1 DUP4 ISZERO ISZERO MUL OR SWAP1 SSTORE POP PUSH1 0x0 PUSH1 0x3 PUSH1 0x0 DUP6 PUSH20 0xFFFFFFFFFFFFFFFFFFFFFFFFFFFFFFFFFFFFFFFF AND PUSH20 0xFFFFFFFFFFFFFFFFFFFFFFFFFFFFFFFFFFFFFFFF AND DUP2 MSTORE PUSH1 0x20 ADD SWAP1 DUP2 MSTORE PUSH1 0x20 ADD PUSH1 0x0 KECCAK256 PUSH1 0x0 PUSH2 0x100 EXP DUP2 SLOAD DUP2 PUSH1 0xFF MUL NOT AND SWAP1 DUP4 ISZERO ISZERO MUL OR SWAP1 SSTORE POP PUSH1 0x0 DUP1 DUP2 SLOAD DUP1 SWAP3 SWAP2 SWAP1 PUSH2 0x8F6 SWAP1 PUSH2 0x2733 JUMP JUMPDEST SWAP2 SWAP1 POP SSTORE POP POP JUMPDEST POP POP JUMP JUMPDEST PUSH1 0x0 SLOAD DUP2 JUMP JUMPDEST PUSH1 0x1 PUSH1 0x0 SWAP1 SLOAD SWAP1 PUSH2 0x100 EXP SWAP1 DIV PUSH20 0xFFFFFFFFFFFFFFFFFFFFFFFFFFFFFFFFFFFFFFFF AND PUSH20 0xFFFFFFFFFFFFFFFFFFFFFFFFFFFFFFFFFFFFFFFF AND CALLER PUSH20 0xFFFFFFFFFFFFFFFFFFFFFFFFFFFFFFFFFFFFFFFF AND EQ DUP1 PUSH2 0x968 JUMPI POP PUSH2 0x967 CALLER PUSH2 0x6F3 JUMP JUMPDEST JUMPDEST PUSH2 0x9A7 JUMPI PUSH1 0x40 MLOAD PUSH32 0x8C379A000000000000000000000000000000000000000000000000000000000 DUP2 MSTORE PUSH1 0x4 ADD PUSH2 0x99E SWAP1 PUSH2 0x27CF JUMP JUMPDEST PUSH1 0x40 MLOAD DUP1 SWAP2 SUB SWAP1 REVERT JUMPDEST DUP2 PUSH1 0x0 PUSH20 0xFFFFFFFFFFFFFFFFFFFFFFFFFFFFFFFFFFFFFFFF AND PUSH1 0x2 PUSH1 0x0 DUP4 PUSH20 0xFFFFFFFFFFFFFFFFFFFFFFFFFFFFFFFFFFFFFFFF AND PUSH20 0xFFFFFFFFFFFFFFFFFFFFFFFFFFFFFFFFFFFFFFFF AND DUP2 MSTORE PUSH1 0x20 ADD SWAP1 DUP2 MSTORE PUSH1 0x20 ADD PUSH1 0x0 KECCAK256 PUSH1 0x0 ADD PUSH1 0x0 SWAP1 SLOAD SWAP1 PUSH2 0x100 EXP SWAP1 DIV PUSH20 0xFFFFFFFFFFFFFFFFFFFFFFFFFFFFFFFFFFFFFFFF AND PUSH20 0xFFFFFFFFFFFFFFFFFFFFFFFFFFFFFFFFFFFFFFFF AND EQ ISZERO PUSH2 0xA7A JUMPI PUSH1 0x40 MLOAD PUSH32 0x8C379A000000000000000000000000000000000000000000000000000000000 DUP2 MSTORE PUSH1 0x4 ADD PUSH2 0xA71 SWAP1 PUSH2 0x26E4 JUMP JUMPDEST PUSH1 0x40 MLOAD DUP1 SWAP2 SUB SWAP1 REVERT JUMPDEST PUSH1 0x0 PUSH1 0x2 PUSH1 0x0 DUP6 PUSH20 0xFFFFFFFFFFFFFFFFFFFFFFFFFFFFFFFFFFFFFFFF AND PUSH20 0xFFFFFFFFFFFFFFFFFFFFFFFFFFFFFFFFFFFFFFFF AND DUP2 MSTORE PUSH1 0x20 ADD SWAP1 DUP2 MSTORE PUSH1 0x20 ADD PUSH1 0x0 KECCAK256 SWAP1 POP PUSH1 0x0 DUP2 PUSH1 0x5 ADD SWAP1 POP PUSH1 0x0 PUSH1 0x3 DUP2 GT ISZERO PUSH2 0xAD9 JUMPI PUSH2 0xAD8 PUSH2 0x27EF JUMP JUMPDEST JUMPDEST DUP5 PUSH1 0x3 DUP2 GT ISZERO PUSH2 0xAEC JUMPI PUSH2 0xAEB PUSH2 0x27EF JUMP JUMPDEST JUMPDEST EQ ISZERO PUSH2 0xB14 JUMPI PUSH1 0x1 DUP2 PUSH1 0x0 ADD PUSH1 0x0 PUSH2 0x100 EXP DUP2 SLOAD DUP2 PUSH1 0xFF MUL NOT AND SWAP1 DUP4 ISZERO ISZERO MUL OR SWAP1 SSTORE POP PUSH2 0xBFF JUMP JUMPDEST PUSH1 0x1 PUSH1 0x3 DUP2 GT ISZERO PUSH2 0xB28 JUMPI PUSH2 0xB27 PUSH2 0x27EF JUMP JUMPDEST JUMPDEST DUP5 PUSH1 0x3 DUP2 GT ISZERO PUSH2 0xB3B JUMPI PUSH2 0xB3A PUSH2 0x27EF JUMP JUMPDEST JUMPDEST EQ ISZERO PUSH2 0xB63 JUMPI PUSH1 0x1 DUP2 PUSH1 0x0 ADD PUSH1 0x1 PUSH2 0x100 EXP DUP2 SLOAD DUP2 PUSH1 0xFF MUL NOT AND SWAP1 DUP4 ISZERO ISZERO MUL OR SWAP1 SSTORE POP PUSH2 0xBFE JUMP JUMPDEST PUSH1 0x2 PUSH1 0x3 DUP2 GT ISZERO PUSH2 0xB77 JUMPI PUSH2 0xB76 PUSH2 0x27EF JUMP JUMPDEST JUMPDEST DUP5 PUSH1 0x3 DUP2 GT ISZERO PUSH2 0xB8A JUMPI PUSH2 0xB89 PUSH2 0x27EF JUMP JUMPDEST JUMPDEST EQ ISZERO PUSH2 0xBB2 JUMPI PUSH1 0x1 DUP2 PUSH1 0x0 ADD PUSH1 0x2 PUSH2 0x100 EXP DUP2 SLOAD DUP2 PUSH1 0xFF MUL NOT AND SWAP1 DUP4 ISZERO ISZERO MUL OR SWAP1 SSTORE POP PUSH2 0xBFD JUMP JUMPDEST PUSH1 0x3 DUP1 DUP2 GT ISZERO PUSH2 0xBC5 JUMPI PUSH2 0xBC4 PUSH2 0x27EF JUMP JUMPDEST JUMPDEST DUP5 PUSH1 0x3 DUP2 GT ISZERO PUSH2 0xBD8 JUMPI PUSH2 0xBD7 PUSH2 0x27EF JUMP JUMPDEST JUMPDEST EQ ISZERO PUSH2 0xBFC JUMPI PUSH1 0x1 DUP2 PUSH1 0x0 ADD PUSH1 0x3 PUSH2 0x100 EXP DUP2 SLOAD DUP2 PUSH1 0xFF MUL NOT AND SWAP1 DUP4 ISZERO ISZERO MUL OR SWAP1 SSTORE POP JUMPDEST JUMPDEST JUMPDEST JUMPDEST POP POP POP POP POP JUMP JUMPDEST PUSH1 0x0 DUP1 PUSH1 0x2 PUSH1 0x0 DUP5 PUSH20 0xFFFFFFFFFFFFFFFFFFFFFFFFFFFFFFFFFFFFFFFF AND PUSH20 0xFFFFFFFFFFFFFFFFFFFFFFFFFFFFFFFFFFFFFFFF AND DUP2 MSTORE PUSH1 0x20 ADD SWAP1 DUP2 MSTORE PUSH1 0x20 ADD PUSH1 0x0 KECCAK256 PUSH1 0x40 MLOAD DUP1 PUSH1 0xC0 ADD PUSH1 0x40 MSTORE SWAP1 DUP2 PUSH1 0x0 DUP3 ADD PUSH1 0x0 SWAP1 SLOAD SWAP1 PUSH2 0x100 EXP SWAP1 DIV PUSH20 0xFFFFFFFFFFFFFFFFFFFFFFFFFFFFFFFFFFFFFFFF AND PUSH20 0xFFFFFFFFFFFFFFFFFFFFFFFFFFFFFFFFFFFFFFFF AND PUSH20 0xFFFFFFFFFFFFFFFFFFFFFFFFFFFFFFFFFFFFFFFF AND DUP2 MSTORE PUSH1 0x20 ADD PUSH1 0x1 DUP3 ADD DUP1 SLOAD PUSH2 0xCB9 SWAP1 PUSH2 0x2655 JUMP JUMPDEST DUP1 PUSH1 0x1F ADD PUSH1 0x20 DUP1 SWAP2 DIV MUL PUSH1 0x20 ADD PUSH1 0x40 MLOAD SWAP1 DUP2 ADD PUSH1 0x40 MSTORE DUP1 SWAP3 SWAP2 SWAP1 DUP2 DUP2 MSTORE PUSH1 0x20 ADD DUP3 DUP1 SLOAD PUSH2 0xCE5 SWAP1 PUSH2 0x2655 JUMP JUMPDEST DUP1 ISZERO PUSH2 0xD32 JUMPI DUP1 PUSH1 0x1F LT PUSH2 0xD07 JUMPI PUSH2 0x100 DUP1 DUP4 SLOAD DIV MUL DUP4 MSTORE SWAP2 PUSH1 0x20 ADD SWAP2 PUSH2 0xD32 JUMP JUMPDEST DUP3 ADD SWAP2 SWAP1 PUSH1 0x0 MSTORE PUSH1 0x20 PUSH1 0x0 KECCAK256 SWAP1 JUMPDEST DUP2 SLOAD DUP2 MSTORE SWAP1 PUSH1 0x1 ADD SWAP1 PUSH1 0x20 ADD DUP1 DUP4 GT PUSH2 0xD15 JUMPI DUP3 SWAP1 SUB PUSH1 0x1F AND DUP3 ADD SWAP2 JUMPDEST POP POP POP POP POP DUP2 MSTORE PUSH1 0x20 ADD PUSH1 0x2 DUP3 ADD DUP1 SLOAD PUSH2 0xD4B SWAP1 PUSH2 0x2655 JUMP JUMPDEST DUP1 PUSH1 0x1F ADD PUSH1 0x20 DUP1 SWAP2 DIV MUL PUSH1 0x20 ADD PUSH1 0x40 MLOAD SWAP1 DUP2 ADD PUSH1 0x40 MSTORE DUP1 SWAP3 SWAP2 SWAP1 DUP2 DUP2 MSTORE PUSH1 0x20 ADD DUP3 DUP1 SLOAD PUSH2 0xD77 SWAP1 PUSH2 0x2655 JUMP JUMPDEST DUP1 ISZERO PUSH2 0xDC4 JUMPI DUP1 PUSH1 0x1F LT PUSH2 0xD99 JUMPI PUSH2 0x100 DUP1 DUP4 SLOAD DIV MUL DUP4 MSTORE SWAP2 PUSH1 0x20 ADD SWAP2 PUSH2 0xDC4 JUMP JUMPDEST DUP3 ADD SWAP2 SWAP1 PUSH1 0x0 MSTORE PUSH1 0x20 PUSH1 0x0 KECCAK256 SWAP1 JUMPDEST DUP2 SLOAD DUP2 MSTORE SWAP1 PUSH1 0x1 ADD SWAP1 PUSH1 0x20 ADD DUP1 DUP4 GT PUSH2 0xDA7 JUMPI DUP3 SWAP1 SUB PUSH1 0x1F AND DUP3 ADD SWAP2 JUMPDEST POP POP POP POP POP DUP2 MSTORE PUSH1 0x20 ADD PUSH1 0x3 DUP3 ADD DUP1 SLOAD PUSH2 0xDDD SWAP1 PUSH2 0x2655 JUMP JUMPDEST DUP1 PUSH1 0x1F ADD PUSH1 0x20 DUP1 SWAP2 DIV MUL PUSH1 0x20 ADD PUSH1 0x40 MLOAD SWAP1 DUP2 ADD PUSH1 0x40 MSTORE DUP1 SWAP3 SWAP2 SWAP1 DUP2 DUP2 MSTORE PUSH1 0x20 ADD DUP3 DUP1 SLOAD PUSH2 0xE09 SWAP1 PUSH2 0x2655 JUMP JUMPDEST DUP1 ISZERO PUSH2 0xE56 JUMPI DUP1 PUSH1 0x1F LT PUSH2 0xE2B JUMPI PUSH2 0x100 DUP1 DUP4 SLOAD DIV MUL DUP4 MSTORE SWAP2 PUSH1 0x20 ADD SWAP2 PUSH2 0xE56 JUMP JUMPDEST DUP3 ADD SWAP2 SWAP1 PUSH1 0x0 MSTORE PUSH1 0x20 PUSH1 0x0 KECCAK256 SWAP1 JUMPDEST DUP2 SLOAD DUP2 MSTORE SWAP1 PUSH1 0x1 ADD SWAP1 PUSH1 0x20 ADD DUP1 DUP4 GT PUSH2 0xE39 JUMPI DUP3 SWAP1 SUB PUSH1 0x1F AND DUP3 ADD SWAP2 JUMPDEST POP POP POP POP POP DUP2 MSTORE PUSH1 0x20 ADD PUSH1 0x4 DUP3 ADD PUSH1 0x0 SWAP1 SLOAD SWAP1 PUSH2 0x100 EXP SWAP1 DIV PUSH1 0xFF AND ISZERO ISZERO ISZERO ISZERO DUP2 MSTORE PUSH1 0x20 ADD PUSH1 0x5 DUP3 ADD PUSH1 0x40 MLOAD DUP1 PUSH1 0x80 ADD PUSH1 0x40 MSTORE SWAP1 DUP2 PUSH1 0x0 DUP3 ADD PUSH1 0x0 SWAP1 SLOAD SWAP1 PUSH2 0x100 EXP SWAP1 DIV PUSH1 0xFF AND ISZERO ISZERO ISZERO ISZERO DUP2 MSTORE PUSH1 0x20 ADD PUSH1 0x0 DUP3 ADD PUSH1 0x1 SWAP1 SLOAD SWAP1 PUSH2 0x100 EXP SWAP1 DIV PUSH1 0xFF AND ISZERO ISZERO ISZERO ISZERO DUP2 MSTORE PUSH1 0x20 ADD PUSH1 0x0 DUP3 ADD PUSH1 0x2 SWAP1 SLOAD SWAP1 PUSH2 0x100 EXP SWAP1 DIV PUSH1 0xFF AND ISZERO ISZERO ISZERO ISZERO DUP2 MSTORE PUSH1 0x20 ADD PUSH1 0x0 DUP3 ADD PUSH1 0x3 SWAP1 SLOAD SWAP1 PUSH2 0x100 EXP SWAP1 DIV PUSH1 0xFF AND ISZERO ISZERO ISZERO ISZERO DUP2 MSTORE POP POP DUP2 MSTORE POP POP SWAP1 POP PUSH1 0x0 PUSH20 0xFFFFFFFFFFFFFFFFFFFFFFFFFFFFFFFFFFFFFFFF AND DUP2 PUSH1 0x0 ADD MLOAD PUSH20 0xFFFFFFFFFFFFFFFFFFFFFFFFFFFFFFFFFFFFFFFF AND EQ PUSH2 0xF7A JUMPI DUP1 PUSH1 0x80 ADD MLOAD DUP1 ISZERO PUSH2 0xF6A JUMPI POP DUP1 PUSH1 0xA0 ADD MLOAD PUSH1 0x0 ADD MLOAD DUP1 PUSH2 0xF59 JUMPI POP DUP1 PUSH1 0xA0 ADD MLOAD PUSH1 0x20 ADD MLOAD JUMPDEST DUP1 PUSH2 0xF69 JUMPI POP DUP1 PUSH1 0xA0 ADD MLOAD PUSH1 0x40 ADD MLOAD JUMPDEST JUMPDEST ISZERO PUSH2 0xF79 JUMPI PUSH1 0x1 SWAP2 POP POP PUSH2 0xF80 JUMP JUMPDEST JUMPDEST PUSH1 0x0 SWAP2 POP POP JUMPDEST SWAP2 SWAP1 POP JUMP JUMPDEST PUSH1 0x1 PUSH1 0x0 SWAP1 SLOAD SWAP1 PUSH2 0x100 EXP SWAP1 DIV PUSH20 0xFFFFFFFFFFFFFFFFFFFFFFFFFFFFFFFFFFFFFFFF AND DUP2 JUMP JUMPDEST DUP1 PUSH1 0x0 PUSH20 0xFFFFFFFFFFFFFFFFFFFFFFFFFFFFFFFFFFFFFFFF AND PUSH1 0x2 PUSH1 0x0 DUP4 PUSH20 0xFFFFFFFFFFFFFFFFFFFFFFFFFFFFFFFFFFFFFFFF AND PUSH20 0xFFFFFFFFFFFFFFFFFFFFFFFFFFFFFFFFFFFFFFFF AND DUP2 MSTORE PUSH1 0x20 ADD SWAP1 DUP2 MSTORE PUSH1 0x20 ADD PUSH1 0x0 KECCAK256 PUSH1 0x0 ADD PUSH1 0x0 SWAP1 SLOAD SWAP1 PUSH2 0x100 EXP SWAP1 DIV PUSH20 0xFFFFFFFFFFFFFFFFFFFFFFFFFFFFFFFFFFFFFFFF AND PUSH20 0xFFFFFFFFFFFFFFFFFFFFFFFFFFFFFFFFFFFFFFFF AND EQ ISZERO PUSH2 0x107E JUMPI PUSH1 0x40 MLOAD PUSH32 0x8C379A000000000000000000000000000000000000000000000000000000000 DUP2 MSTORE PUSH1 0x4 ADD PUSH2 0x1075 SWAP1 PUSH2 0x26E4 JUMP JUMPDEST PUSH1 0x40 MLOAD DUP1 SWAP2 SUB SWAP1 REVERT JUMPDEST PUSH1 0x3 PUSH1 0x0 DUP4 PUSH20 0xFFFFFFFFFFFFFFFFFFFFFFFFFFFFFFFFFFFFFFFF AND PUSH20 0xFFFFFFFFFFFFFFFFFFFFFFFFFFFFFFFFFFFFFFFF AND DUP2 MSTORE PUSH1 0x20 ADD SWAP1 DUP2 MSTORE PUSH1 0x20 ADD PUSH1 0x0 KECCAK256 PUSH1 0x0 SWAP1 SLOAD SWAP1 PUSH2 0x100 EXP SWAP1 DIV PUSH1 0xFF AND PUSH2 0x1243 JUMPI PUSH1 0x0 PUSH1 0x2 PUSH1 0x0 DUP5 PUSH20 0xFFFFFFFFFFFFFFFFFFFFFFFFFFFFFFFFFFFFFFFF AND PUSH20 0xFFFFFFFFFFFFFFFFFFFFFFFFFFFFFFFFFFFFFFFF AND DUP2 MSTORE PUSH1 0x20 ADD SWAP1 DUP2 MSTORE PUSH1 0x20 ADD PUSH1 0x0 KECCAK256 SWAP1 POP PUSH1 0x1 DUP2 PUSH1 0x4 ADD PUSH1 0x0 PUSH2 0x100 EXP DUP2 SLOAD DUP2 PUSH1 0xFF MUL NOT AND SWAP1 DUP4 ISZERO ISZERO MUL OR SWAP1 SSTORE POP PUSH1 0x0 DUP2 PUSH1 0x5 ADD PUSH1 0x40 MLOAD DUP1 PUSH1 0x80 ADD PUSH1 0x40 MSTORE SWAP1 DUP2 PUSH1 0x0 DUP3 ADD PUSH1 0x0 SWAP1 SLOAD SWAP1 PUSH2 0x100 EXP SWAP1 DIV PUSH1 0xFF AND ISZERO ISZERO ISZERO ISZERO DUP2 MSTORE PUSH1 0x20 ADD PUSH1 0x0 DUP3 ADD PUSH1 0x1 SWAP1 SLOAD SWAP1 PUSH2 0x100 EXP SWAP1 DIV PUSH1 0xFF AND ISZERO ISZERO ISZERO ISZERO DUP2 MSTORE PUSH1 0x20 ADD PUSH1 0x0 DUP3 ADD PUSH1 0x2 SWAP1 SLOAD SWAP1 PUSH2 0x100 EXP SWAP1 DIV PUSH1 0xFF AND ISZERO ISZERO ISZERO ISZERO DUP2 MSTORE PUSH1 0x20 ADD PUSH1 0x0 DUP3 ADD PUSH1 0x3 SWAP1 SLOAD SWAP1 PUSH2 0x100 EXP SWAP1 DIV PUSH1 0xFF AND ISZERO ISZERO ISZERO ISZERO DUP2 MSTORE POP POP SWAP1 POP DUP1 PUSH1 0x0 ADD MLOAD DUP1 PUSH2 0x11BF JUMPI POP DUP1 PUSH1 0x20 ADD MLOAD JUMPDEST DUP1 PUSH2 0x11CB JUMPI POP DUP1 PUSH1 0x40 ADD MLOAD JUMPDEST ISZERO PUSH2 0x1240 JUMPI PUSH1 0x1 PUSH1 0x3 PUSH1 0x0 DUP7 PUSH20 0xFFFFFFFFFFFFFFFFFFFFFFFFFFFFFFFFFFFFFFFF AND PUSH20 0xFFFFFFFFFFFFFFFFFFFFFFFFFFFFFFFFFFFFFFFF AND DUP2 MSTORE PUSH1 0x20 ADD SWAP1 DUP2 MSTORE PUSH1 0x20 ADD PUSH1 0x0 KECCAK256 PUSH1 0x0 PUSH2 0x100 EXP DUP2 SLOAD DUP2 PUSH1 0xFF MUL NOT AND SWAP1 DUP4 ISZERO ISZERO MUL OR SWAP1 SSTORE POP PUSH1 0x0 DUP1 DUP2 SLOAD DUP1 SWAP3 SWAP2 SWAP1 PUSH2 0x123A SWAP1 PUSH2 0x281E JUMP JUMPDEST SWAP2 SWAP1 POP SSTORE POP JUMPDEST POP POP JUMPDEST POP POP JUMP JUMPDEST PUSH1 0x1 PUSH1 0x0 SWAP1 SLOAD SWAP1 PUSH2 0x100 EXP SWAP1 DIV PUSH20 0xFFFFFFFFFFFFFFFFFFFFFFFFFFFFFFFFFFFFFFFF AND PUSH20 0xFFFFFFFFFFFFFFFFFFFFFFFFFFFFFFFFFFFFFFFF AND CALLER PUSH20 0xFFFFFFFFFFFFFFFFFFFFFFFFFFFFFFFFFFFFFFFF AND EQ DUP1 PUSH2 0x12A8 JUMPI POP PUSH2 0x12A7 CALLER PUSH2 0x6F3 JUMP JUMPDEST JUMPDEST PUSH2 0x12E7 JUMPI PUSH1 0x40 MLOAD PUSH32 0x8C379A000000000000000000000000000000000000000000000000000000000 DUP2 MSTORE PUSH1 0x4 ADD PUSH2 0x12DE SWAP1 PUSH2 0x27CF JUMP JUMPDEST PUSH1 0x40 MLOAD DUP1 SWAP2 SUB SWAP1 REVERT JUMPDEST DUP2 PUSH1 0x0 PUSH20 0xFFFFFFFFFFFFFFFFFFFFFFFFFFFFFFFFFFFFFFFF AND PUSH1 0x2 PUSH1 0x0 DUP4 PUSH20 0xFFFFFFFFFFFFFFFFFFFFFFFFFFFFFFFFFFFFFFFF AND PUSH20 0xFFFFFFFFFFFFFFFFFFFFFFFFFFFFFFFFFFFFFFFF AND DUP2 MSTORE PUSH1 0x20 ADD SWAP1 DUP2 MSTORE PUSH1 0x20 ADD PUSH1 0x0 KECCAK256 PUSH1 0x0 ADD PUSH1 0x0 SWAP1 SLOAD SWAP1 PUSH2 0x100 EXP SWAP1 DIV PUSH20 0xFFFFFFFFFFFFFFFFFFFFFFFFFFFFFFFFFFFFFFFF AND PUSH20 0xFFFFFFFFFFFFFFFFFFFFFFFFFFFFFFFFFFFFFFFF AND EQ ISZERO PUSH2 0x13BA JUMPI PUSH1 0x40 MLOAD PUSH32 0x8C379A000000000000000000000000000000000000000000000000000000000 DUP2 MSTORE PUSH1 0x4 ADD PUSH2 0x13B1 SWAP1 PUSH2 0x26E4 JUMP JUMPDEST PUSH1 0x40 MLOAD DUP1 SWAP2 SUB SWAP1 REVERT JUMPDEST PUSH1 0x0 PUSH1 0x2 PUSH1 0x0 DUP6 PUSH20 0xFFFFFFFFFFFFFFFFFFFFFFFFFFFFFFFFFFFFFFFF AND PUSH20 0xFFFFFFFFFFFFFFFFFFFFFFFFFFFFFFFFFFFFFFFF AND DUP2 MSTORE PUSH1 0x20 ADD SWAP1 DUP2 MSTORE PUSH1 0x20 ADD PUSH1 0x0 KECCAK256 SWAP1 POP PUSH1 0x0 DUP2 PUSH1 0x5 ADD SWAP1 POP PUSH1 0x0 PUSH1 0x3 DUP2 GT ISZERO PUSH2 0x1419 JUMPI PUSH2 0x1418 PUSH2 0x27EF JUMP JUMPDEST JUMPDEST DUP5 PUSH1 0x3 DUP2 GT ISZERO PUSH2 0x142C JUMPI PUSH2 0x142B PUSH2 0x27EF JUMP JUMPDEST JUMPDEST EQ ISZERO PUSH2 0x1454 JUMPI PUSH1 0x0 DUP2 PUSH1 0x0 ADD PUSH1 0x0 PUSH2 0x100 EXP DUP2 SLOAD DUP2 PUSH1 0xFF MUL NOT AND SWAP1 DUP4 ISZERO ISZERO MUL OR SWAP1 SSTORE POP PUSH2 0x153F JUMP JUMPDEST PUSH1 0x1 PUSH1 0x3 DUP2 GT ISZERO PUSH2 0x1468 JUMPI PUSH2 0x1467 PUSH2 0x27EF JUMP JUMPDEST JUMPDEST DUP5 PUSH1 0x3 DUP2 GT ISZERO PUSH2 0x147B JUMPI PUSH2 0x147A PUSH2 0x27EF JUMP JUMPDEST JUMPDEST EQ ISZERO PUSH2 0x14A3 JUMPI PUSH1 0x0 DUP2 PUSH1 0x0 ADD PUSH1 0x1 PUSH2 0x100 EXP DUP2 SLOAD DUP2 PUSH1 0xFF MUL NOT AND SWAP1 DUP4 ISZERO ISZERO MUL OR SWAP1 SSTORE POP PUSH2 0x153E JUMP JUMPDEST PUSH1 0x2 PUSH1 0x3 DUP2 GT ISZERO PUSH2 0x14B7 JUMPI PUSH2 0x14B6 PUSH2 0x27EF JUMP JUMPDEST JUMPDEST DUP5 PUSH1 0x3 DUP2 GT ISZERO PUSH2 0x14CA JUMPI PUSH2 0x14C9 PUSH2 0x27EF JUMP JUMPDEST JUMPDEST EQ ISZERO PUSH2 0x14F2 JUMPI PUSH1 0x0 DUP2 PUSH1 0x0 ADD PUSH1 0x2 PUSH2 0x100 EXP DUP2 SLOAD DUP2 PUSH1 0xFF MUL NOT AND SWAP1 DUP4 ISZERO ISZERO MUL OR SWAP1 SSTORE POP PUSH2 0x153D JUMP JUMPDEST PUSH1 0x3 DUP1 DUP2 GT ISZERO PUSH2 0x1505 JUMPI PUSH2 0x1504 PUSH2 0x27EF JUMP JUMPDEST JUMPDEST DUP5 PUSH1 0x3 DUP2 GT ISZERO PUSH2 0x1518 JUMPI PUSH2 0x1517 PUSH2 0x27EF JUMP JUMPDEST JUMPDEST EQ ISZERO PUSH2 0x153C JUMPI PUSH1 0x0 DUP2 PUSH1 0x0 ADD PUSH1 0x3 PUSH2 0x100 EXP DUP2 SLOAD DUP2 PUSH1 0xFF MUL NOT AND SWAP1 DUP4 ISZERO ISZERO MUL OR SWAP1 SSTORE POP JUMPDEST JUMPDEST JUMPDEST JUMPDEST POP POP POP POP POP JUMP JUMPDEST PUSH1 0x0 DUP1 PUSH1 0x2 PUSH1 0x0 DUP5 PUSH20 0xFFFFFFFFFFFFFFFFFFFFFFFFFFFFFFFFFFFFFFFF AND PUSH20 0xFFFFFFFFFFFFFFFFFFFFFFFFFFFFFFFFFFFFFFFF AND DUP2 MSTORE PUSH1 0x20 ADD SWAP1 DUP2 MSTORE PUSH1 0x20 ADD PUSH1 0x0 KECCAK256 PUSH1 0x40 MLOAD DUP1 PUSH1 0xC0 ADD PUSH1 0x40 MSTORE SWAP1 DUP2 PUSH1 0x0 DUP3 ADD PUSH1 0x0 SWAP1 SLOAD SWAP1 PUSH2 0x100 EXP SWAP1 DIV PUSH20 0xFFFFFFFFFFFFFFFFFFFFFFFFFFFFFFFFFFFFFFFF AND PUSH20 0xFFFFFFFFFFFFFFFFFFFFFFFFFFFFFFFFFFFFFFFF AND PUSH20 0xFFFFFFFFFFFFFFFFFFFFFFFFFFFFFFFFFFFFFFFF AND DUP2 MSTORE PUSH1 0x20 ADD PUSH1 0x1 DUP3 ADD DUP1 SLOAD PUSH2 0x15F9 SWAP1 PUSH2 0x2655 JUMP JUMPDEST DUP1 PUSH1 0x1F ADD PUSH1 0x20 DUP1 SWAP2 DIV MUL PUSH1 0x20 ADD PUSH1 0x40 MLOAD SWAP1 DUP2 ADD PUSH1 0x40 MSTORE DUP1 SWAP3 SWAP2 SWAP1 DUP2 DUP2 MSTORE PUSH1 0x20 ADD DUP3 DUP1 SLOAD PUSH2 0x1625 SWAP1 PUSH2 0x2655 JUMP JUMPDEST DUP1 ISZERO PUSH2 0x1672 JUMPI DUP1 PUSH1 0x1F LT PUSH2 0x1647 JUMPI PUSH2 0x100 DUP1 DUP4 SLOAD DIV MUL DUP4 MSTORE SWAP2 PUSH1 0x20 ADD SWAP2 PUSH2 0x1672 JUMP JUMPDEST DUP3 ADD SWAP2 SWAP1 PUSH1 0x0 MSTORE PUSH1 0x20 PUSH1 0x0 KECCAK256 SWAP1 JUMPDEST DUP2 SLOAD DUP2 MSTORE SWAP1 PUSH1 0x1 ADD SWAP1 PUSH1 0x20 ADD DUP1 DUP4 GT PUSH2 0x1655 JUMPI DUP3 SWAP1 SUB PUSH1 0x1F AND DUP3 ADD SWAP2 JUMPDEST POP POP POP POP POP DUP2 MSTORE PUSH1 0x20 ADD PUSH1 0x2 DUP3 ADD DUP1 SLOAD PUSH2 0x168B SWAP1 PUSH2 0x2655 JUMP JUMPDEST DUP1 PUSH1 0x1F ADD PUSH1 0x20 DUP1 SWAP2 DIV MUL PUSH1 0x20 ADD PUSH1 0x40 MLOAD SWAP1 DUP2 ADD PUSH1 0x40 MSTORE DUP1 SWAP3 SWAP2 SWAP1 DUP2 DUP2 MSTORE PUSH1 0x20 ADD DUP3 DUP1 SLOAD PUSH2 0x16B7 SWAP1 PUSH2 0x2655 JUMP JUMPDEST DUP1 ISZERO PUSH2 0x1704 JUMPI DUP1 PUSH1 0x1F LT PUSH2 0x16D9 JUMPI PUSH2 0x100 DUP1 DUP4 SLOAD DIV MUL DUP4 MSTORE SWAP2 PUSH1 0x20 ADD SWAP2 PUSH2 0x1704 JUMP JUMPDEST DUP3 ADD SWAP2 SWAP1 PUSH1 0x0 MSTORE PUSH1 0x20 PUSH1 0x0 KECCAK256 SWAP1 JUMPDEST DUP2 SLOAD DUP2 MSTORE SWAP1 PUSH1 0x1 ADD SWAP1 PUSH1 0x20 ADD DUP1 DUP4 GT PUSH2 0x16E7 JUMPI DUP3 SWAP1 SUB PUSH1 0x1F AND DUP3 ADD SWAP2 JUMPDEST POP POP POP POP POP DUP2 MSTORE PUSH1 0x20 ADD PUSH1 0x3 DUP3 ADD DUP1 SLOAD PUSH2 0x171D SWAP1 PUSH2 0x2655 JUMP JUMPDEST DUP1 PUSH1 0x1F ADD PUSH1 0x20 DUP1 SWAP2 DIV MUL PUSH1 0x20 ADD PUSH1 0x40 MLOAD SWAP1 DUP2 ADD PUSH1 0x40 MSTORE DUP1 SWAP3 SWAP2 SWAP1 DUP2 DUP2 MSTORE PUSH1 0x20 ADD DUP3 DUP1 SLOAD PUSH2 0x1749 SWAP1 PUSH2 0x2655 JUMP JUMPDEST DUP1 ISZERO PUSH2 0x1796 JUMPI DUP1 PUSH1 0x1F LT PUSH2 0x176B JUMPI PUSH2 0x100 DUP1 DUP4 SLOAD DIV MUL DUP4 MSTORE SWAP2 PUSH1 0x20 ADD SWAP2 PUSH2 0x1796 JUMP JUMPDEST DUP3 ADD SWAP2 SWAP1 PUSH1 0x0 MSTORE PUSH1 0x20 PUSH1 0x0 KECCAK256 SWAP1 JUMPDEST DUP2 SLOAD DUP2 MSTORE SWAP1 PUSH1 0x1 ADD SWAP1 PUSH1 0x20 ADD DUP1 DUP4 GT PUSH2 0x1779 JUMPI DUP3 SWAP1 SUB PUSH1 0x1F AND DUP3 ADD SWAP2 JUMPDEST POP POP POP POP POP DUP2 MSTORE PUSH1 0x20 ADD PUSH1 0x4 DUP3 ADD PUSH1 0x0 SWAP1 SLOAD SWAP1 PUSH2 0x100 EXP SWAP1 DIV PUSH1 0xFF AND ISZERO ISZERO ISZERO ISZERO DUP2 MSTORE PUSH1 0x20 ADD PUSH1 0x5 DUP3 ADD PUSH1 0x40 MLOAD DUP1 PUSH1 0x80 ADD PUSH1 0x40 MSTORE SWAP1 DUP2 PUSH1 0x0 DUP3 ADD PUSH1 0x0 SWAP1 SLOAD SWAP1 PUSH2 0x100 EXP SWAP1 DIV PUSH1 0xFF AND ISZERO ISZERO ISZERO ISZERO DUP2 MSTORE PUSH1 0x20 ADD PUSH1 0x0 DUP3 ADD PUSH1 0x1 SWAP1 SLOAD SWAP1 PUSH2 0x100 EXP SWAP1 DIV PUSH1 0xFF AND ISZERO ISZERO ISZERO ISZERO DUP2 MSTORE PUSH1 0x20 ADD PUSH1 0x0 DUP3 ADD PUSH1 0x2 SWAP1 SLOAD SWAP1 PUSH2 0x100 EXP SWAP1 DIV PUSH1 0xFF AND ISZERO ISZERO ISZERO ISZERO DUP2 MSTORE PUSH1 0x20 ADD PUSH1 0x0 DUP3 ADD PUSH1 0x3 SWAP1 SLOAD SWAP1 PUSH2 0x100 EXP SWAP1 DIV PUSH1 0xFF AND ISZERO ISZERO ISZERO ISZERO DUP2 MSTORE POP POP DUP2 MSTORE POP POP SWAP1 POP PUSH1 0x0 PUSH20 0xFFFFFFFFFFFFFFFFFFFFFFFFFFFFFFFFFFFFFFFF AND DUP2 PUSH1 0x0 ADD MLOAD PUSH20 0xFFFFFFFFFFFFFFFFFFFFFFFFFFFFFFFFFFFFFFFF AND EQ PUSH2 0x18BA JUMPI DUP1 PUSH1 0x80 ADD MLOAD DUP1 ISZERO PUSH2 0x18AA JUMPI POP DUP1 PUSH1 0xA0 ADD MLOAD PUSH1 0x0 ADD MLOAD DUP1 PUSH2 0x1899 JUMPI POP DUP1 PUSH1 0xA0 ADD MLOAD PUSH1 0x20 ADD MLOAD JUMPDEST DUP1 PUSH2 0x18A9 JUMPI POP DUP1 PUSH1 0xA0 ADD MLOAD PUSH1 0x40 ADD MLOAD JUMPDEST JUMPDEST ISZERO PUSH2 0x18B9 JUMPI PUSH1 0x1 SWAP2 POP POP PUSH2 0x18C0 JUMP JUMPDEST JUMPDEST PUSH1 0x0 SWAP2 POP POP JUMPDEST SWAP2 SWAP1 POP JUMP JUMPDEST DUP1 PUSH1 0x0 PUSH20 0xFFFFFFFFFFFFFFFFFFFFFFFFFFFFFFFFFFFFFFFF AND PUSH1 0x2 PUSH1 0x0 DUP4 PUSH20 0xFFFFFFFFFFFFFFFFFFFFFFFFFFFFFFFFFFFFFFFF AND PUSH20 0xFFFFFFFFFFFFFFFFFFFFFFFFFFFFFFFFFFFFFFFF AND DUP2 MSTORE PUSH1 0x20 ADD SWAP1 DUP2 MSTORE PUSH1 0x20 ADD PUSH1 0x0 KECCAK256 PUSH1 0x0 ADD PUSH1 0x0 SWAP1 SLOAD SWAP1 PUSH2 0x100 EXP SWAP1 DIV PUSH20 0xFFFFFFFFFFFFFFFFFFFFFFFFFFFFFFFFFFFFFFFF AND PUSH20 0xFFFFFFFFFFFFFFFFFFFFFFFFFFFFFFFFFFFFFFFF AND EQ ISZERO PUSH2 0x1998 JUMPI PUSH1 0x40 MLOAD PUSH32 0x8C379A000000000000000000000000000000000000000000000000000000000 DUP2 MSTORE PUSH1 0x4 ADD PUSH2 0x198F SWAP1 PUSH2 0x26E4 JUMP JUMPDEST PUSH1 0x40 MLOAD DUP1 SWAP2 SUB SWAP1 REVERT JUMPDEST PUSH2 0x19A1 DUP3 PUSH2 0x707 JUMP JUMPDEST PUSH1 0x2 PUSH1 0x0 DUP4 PUSH20 0xFFFFFFFFFFFFFFFFFFFFFFFFFFFFFFFFFFFFFFFF AND PUSH20 0xFFFFFFFFFFFFFFFFFFFFFFFFFFFFFFFFFFFFFFFF AND DUP2 MSTORE PUSH1 0x20 ADD SWAP1 DUP2 MSTORE PUSH1 0x20 ADD PUSH1 0x0 KECCAK256 PUSH1 0x0 DUP1 DUP3 ADD PUSH1 0x0 PUSH2 0x100 EXP DUP2 SLOAD SWAP1 PUSH20 0xFFFFFFFFFFFFFFFFFFFFFFFFFFFFFFFFFFFFFFFF MUL NOT AND SWAP1 SSTORE PUSH1 0x1 DUP3 ADD PUSH1 0x0 PUSH2 0x1A18 SWAP2 SWAP1 PUSH2 0x21AA JUMP JUMPDEST PUSH1 0x2 DUP3 ADD PUSH1 0x0 PUSH2 0x1A28 SWAP2 SWAP1 PUSH2 0x21AA JUMP JUMPDEST PUSH1 0x3 DUP3 ADD PUSH1 0x0 PUSH2 0x1A38 SWAP2 SWAP1 PUSH2 0x21AA JUMP JUMPDEST PUSH1 0x4 DUP3 ADD PUSH1 0x0 PUSH2 0x100 EXP DUP2 SLOAD SWAP1 PUSH1 0xFF MUL NOT AND SWAP1 SSTORE PUSH1 0x5 DUP3 ADD PUSH1 0x0 DUP1 DUP3 ADD PUSH1 0x0 PUSH2 0x100 EXP DUP2 SLOAD SWAP1 PUSH1 0xFF MUL NOT AND SWAP1 SSTORE PUSH1 0x0 DUP3 ADD PUSH1 0x1 PUSH2 0x100 EXP DUP2 SLOAD SWAP1 PUSH1 0xFF MUL NOT AND SWAP1 SSTORE PUSH1 0x0 DUP3 ADD PUSH1 0x2 PUSH2 0x100 EXP DUP2 SLOAD SWAP1 PUSH1 0xFF MUL NOT AND SWAP1 SSTORE PUSH1 0x0 DUP3 ADD PUSH1 0x3 PUSH2 0x100 EXP DUP2 SLOAD SWAP1 PUSH1 0xFF MUL NOT AND SWAP1 SSTORE POP POP POP POP POP POP JUMP JUMPDEST DUP4 PUSH1 0x0 PUSH20 0xFFFFFFFFFFFFFFFFFFFFFFFFFFFFFFFFFFFFFFFF AND PUSH1 0x2 PUSH1 0x0 DUP4 PUSH20 0xFFFFFFFFFFFFFFFFFFFFFFFFFFFFFFFFFFFFFFFF AND PUSH20 0xFFFFFFFFFFFFFFFFFFFFFFFFFFFFFFFFFFFFFFFF AND DUP2 MSTORE PUSH1 0x20 ADD SWAP1 DUP2 MSTORE PUSH1 0x20 ADD PUSH1 0x0 KECCAK256 PUSH1 0x0 ADD PUSH1 0x0 SWAP1 SLOAD SWAP1 PUSH2 0x100 EXP SWAP1 DIV PUSH20 0xFFFFFFFFFFFFFFFFFFFFFFFFFFFFFFFFFFFFFFFF AND PUSH20 0xFFFFFFFFFFFFFFFFFFFFFFFFFFFFFFFFFFFFFFFF AND EQ PUSH2 0x1B7B JUMPI PUSH1 0x40 MLOAD PUSH32 0x8C379A000000000000000000000000000000000000000000000000000000000 DUP2 MSTORE PUSH1 0x4 ADD PUSH2 0x1B72 SWAP1 PUSH2 0x28B3 JUMP JUMPDEST PUSH1 0x40 MLOAD DUP1 SWAP2 SUB SWAP1 REVERT JUMPDEST PUSH1 0x0 PUSH1 0x40 MLOAD DUP1 PUSH1 0x80 ADD PUSH1 0x40 MSTORE DUP1 PUSH1 0x0 ISZERO ISZERO DUP2 MSTORE PUSH1 0x20 ADD PUSH1 0x0 ISZERO ISZERO DUP2 MSTORE PUSH1 0x20 ADD PUSH1 0x0 ISZERO ISZERO DUP2 MSTORE PUSH1 0x20 ADD PUSH1 0x1 ISZERO ISZERO DUP2 MSTORE POP SWAP1 POP PUSH1 0x0 PUSH1 0x40 MLOAD DUP1 PUSH1 0xC0 ADD PUSH1 0x40 MSTORE DUP1 DUP9 PUSH20 0xFFFFFFFFFFFFFFFFFFFFFFFFFFFFFFFFFFFFFFFF AND DUP2 MSTORE PUSH1 0x20 ADD DUP8 DUP2 MSTORE PUSH1 0x20 ADD DUP7 DUP2 MSTORE PUSH1 0x20 ADD DUP6 DUP2 MSTORE PUSH1 0x20 ADD PUSH1 0x0 ISZERO ISZERO DUP2 MSTORE PUSH1 0x20 ADD DUP4 DUP2 MSTORE POP SWAP1 POP DUP1 PUSH1 0x2 PUSH1 0x0 DUP10 PUSH20 0xFFFFFFFFFFFFFFFFFFFFFFFFFFFFFFFFFFFFFFFF AND PUSH20 0xFFFFFFFFFFFFFFFFFFFFFFFFFFFFFFFFFFFFFFFF AND DUP2 MSTORE PUSH1 0x20 ADD SWAP1 DUP2 MSTORE PUSH1 0x20 ADD PUSH1 0x0 KECCAK256 PUSH1 0x0 DUP3 ADD MLOAD DUP2 PUSH1 0x0 ADD PUSH1 0x0 PUSH2 0x100 EXP DUP2 SLOAD DUP2 PUSH20 0xFFFFFFFFFFFFFFFFFFFFFFFFFFFFFFFFFFFFFFFF MUL NOT AND SWAP1 DUP4 PUSH20 0xFFFFFFFFFFFFFFFFFFFFFFFFFFFFFFFFFFFFFFFF AND MUL OR SWAP1 SSTORE POP PUSH1 0x20 DUP3 ADD MLOAD DUP2 PUSH1 0x1 ADD SWAP1 DUP1 MLOAD SWAP1 PUSH1 0x20 ADD SWAP1 PUSH2 0x1C99 SWAP3 SWAP2 SWAP1 PUSH2 0x21EA JUMP JUMPDEST POP PUSH1 0x40 DUP3 ADD MLOAD DUP2 PUSH1 0x2 ADD SWAP1 DUP1 MLOAD SWAP1 PUSH1 0x20 ADD SWAP1 PUSH2 0x1CB6 SWAP3 SWAP2 SWAP1 PUSH2 0x21EA JUMP JUMPDEST POP PUSH1 0x60 DUP3 ADD MLOAD DUP2 PUSH1 0x3 ADD SWAP1 DUP1 MLOAD SWAP1 PUSH1 0x20 ADD SWAP1 PUSH2 0x1CD3 SWAP3 SWAP2 SWAP1 PUSH2 0x21EA JUMP JUMPDEST POP PUSH1 0x80 DUP3 ADD MLOAD DUP2 PUSH1 0x4 ADD PUSH1 0x0 PUSH2 0x100 EXP DUP2 SLOAD DUP2 PUSH1 0xFF MUL NOT AND SWAP1 DUP4 ISZERO ISZERO MUL OR SWAP1 SSTORE POP PUSH1 0xA0 DUP3 ADD MLOAD DUP2 PUSH1 0x5 ADD PUSH1 0x0 DUP3 ADD MLOAD DUP2 PUSH1 0x0 ADD PUSH1 0x0 PUSH2 0x100 EXP DUP2 SLOAD DUP2 PUSH1 0xFF MUL NOT AND SWAP1 DUP4 ISZERO ISZERO MUL OR SWAP1 SSTORE POP PUSH1 0x20 DUP3 ADD MLOAD DUP2 PUSH1 0x0 ADD PUSH1 0x1 PUSH2 0x100 EXP DUP2 SLOAD DUP2 PUSH1 0xFF MUL NOT AND SWAP1 DUP4 ISZERO ISZERO MUL OR SWAP1 SSTORE POP PUSH1 0x40 DUP3 ADD MLOAD DUP2 PUSH1 0x0 ADD PUSH1 0x2 PUSH2 0x100 EXP DUP2 SLOAD DUP2 PUSH1 0xFF MUL NOT AND SWAP1 DUP4 ISZERO ISZERO MUL OR SWAP1 SSTORE POP PUSH1 0x60 DUP3 ADD MLOAD DUP2 PUSH1 0x0 ADD PUSH1 0x3 PUSH2 0x100 EXP DUP2 SLOAD DUP2 PUSH1 0xFF MUL NOT AND SWAP1 DUP4 ISZERO ISZERO MUL OR SWAP1 SSTORE POP POP POP SWAP1 POP POP POP POP POP POP POP POP POP JUMP JUMPDEST PUSH1 0x0 PUSH2 0x1D98 DUP3 PUSH1 0x3 PUSH2 0x1DB3 JUMP JUMPDEST SWAP1 POP SWAP2 SWAP1 POP JUMP JUMPDEST PUSH1 0x0 PUSH2 0x1DAC DUP3 PUSH1 0x1 PUSH2 0x1DB3 JUMP JUMPDEST SWAP1 POP SWAP2 SWAP1 POP JUMP JUMPDEST PUSH1 0x0 DUP1 PUSH1 0x2 PUSH1 0x0 DUP6 PUSH20 0xFFFFFFFFFFFFFFFFFFFFFFFFFFFFFFFFFFFFFFFF AND PUSH20 0xFFFFFFFFFFFFFFFFFFFFFFFFFFFFFFFFFFFFFFFF AND DUP2 MSTORE PUSH1 0x20 ADD SWAP1 DUP2 MSTORE PUSH1 0x20 ADD PUSH1 0x0 KECCAK256 PUSH1 0x40 MLOAD DUP1 PUSH1 0xC0 ADD PUSH1 0x40 MSTORE SWAP1 DUP2 PUSH1 0x0 DUP3 ADD PUSH1 0x0 SWAP1 SLOAD SWAP1 PUSH2 0x100 EXP SWAP1 DIV PUSH20 0xFFFFFFFFFFFFFFFFFFFFFFFFFFFFFFFFFFFFFFFF AND PUSH20 0xFFFFFFFFFFFFFFFFFFFFFFFFFFFFFFFFFFFFFFFF AND PUSH20 0xFFFFFFFFFFFFFFFFFFFFFFFFFFFFFFFFFFFFFFFF AND DUP2 MSTORE PUSH1 0x20 ADD PUSH1 0x1 DUP3 ADD DUP1 SLOAD PUSH2 0x1E66 SWAP1 PUSH2 0x2655 JUMP JUMPDEST DUP1 PUSH1 0x1F ADD PUSH1 0x20 DUP1 SWAP2 DIV MUL PUSH1 0x20 ADD PUSH1 0x40 MLOAD SWAP1 DUP2 ADD PUSH1 0x40 MSTORE DUP1 SWAP3 SWAP2 SWAP1 DUP2 DUP2 MSTORE PUSH1 0x20 ADD DUP3 DUP1 SLOAD PUSH2 0x1E92 SWAP1 PUSH2 0x2655 JUMP JUMPDEST DUP1 ISZERO PUSH2 0x1EDF JUMPI DUP1 PUSH1 0x1F LT PUSH2 0x1EB4 JUMPI PUSH2 0x100 DUP1 DUP4 SLOAD DIV MUL DUP4 MSTORE SWAP2 PUSH1 0x20 ADD SWAP2 PUSH2 0x1EDF JUMP JUMPDEST DUP3 ADD SWAP2 SWAP1 PUSH1 0x0 MSTORE PUSH1 0x20 PUSH1 0x0 KECCAK256 SWAP1 JUMPDEST DUP2 SLOAD DUP2 MSTORE SWAP1 PUSH1 0x1 ADD SWAP1 PUSH1 0x20 ADD DUP1 DUP4 GT PUSH2 0x1EC2 JUMPI DUP3 SWAP1 SUB PUSH1 0x1F AND DUP3 ADD SWAP2 JUMPDEST POP POP POP POP POP DUP2 MSTORE PUSH1 0x20 ADD PUSH1 0x2 DUP3 ADD DUP1 SLOAD PUSH2 0x1EF8 SWAP1 PUSH2 0x2655 JUMP JUMPDEST DUP1 PUSH1 0x1F ADD PUSH1 0x20 DUP1 SWAP2 DIV MUL PUSH1 0x20 ADD PUSH1 0x40 MLOAD SWAP1 DUP2 ADD PUSH1 0x40 MSTORE DUP1 SWAP3 SWAP2 SWAP1 DUP2 DUP2 MSTORE PUSH1 0x20 ADD DUP3 DUP1 SLOAD PUSH2 0x1F24 SWAP1 PUSH2 0x2655 JUMP JUMPDEST DUP1 ISZERO PUSH2 0x1F71 JUMPI DUP1 PUSH1 0x1F LT PUSH2 0x1F46 JUMPI PUSH2 0x100 DUP1 DUP4 SLOAD DIV MUL DUP4 MSTORE SWAP2 PUSH1 0x20 ADD SWAP2 PUSH2 0x1F71 JUMP JUMPDEST DUP3 ADD SWAP2 SWAP1 PUSH1 0x0 MSTORE PUSH1 0x20 PUSH1 0x0 KECCAK256 SWAP1 JUMPDEST DUP2 SLOAD DUP2 MSTORE SWAP1 PUSH1 0x1 ADD SWAP1 PUSH1 0x20 ADD DUP1 DUP4 GT PUSH2 0x1F54 JUMPI DUP3 SWAP1 SUB PUSH1 0x1F AND DUP3 ADD SWAP2 JUMPDEST POP POP POP POP POP DUP2 MSTORE PUSH1 0x20 ADD PUSH1 0x3 DUP3 ADD DUP1 SLOAD PUSH2 0x1F8A SWAP1 PUSH2 0x2655 JUMP JUMPDEST DUP1 PUSH1 0x1F ADD PUSH1 0x20 DUP1 SWAP2 DIV MUL PUSH1 0x20 ADD PUSH1 0x40 MLOAD SWAP1 DUP2 ADD PUSH1 0x40 MSTORE DUP1 SWAP3 SWAP2 SWAP1 DUP2 DUP2 MSTORE PUSH1 0x20 ADD DUP3 DUP1 SLOAD PUSH2 0x1FB6 SWAP1 PUSH2 0x2655 JUMP JUMPDEST DUP1 ISZERO PUSH2 0x2003 JUMPI DUP1 PUSH1 0x1F LT PUSH2 0x1FD8 JUMPI PUSH2 0x100 DUP1 DUP4 SLOAD DIV MUL DUP4 MSTORE SWAP2 PUSH1 0x20 ADD SWAP2 PUSH2 0x2003 JUMP JUMPDEST DUP3 ADD SWAP2 SWAP1 PUSH1 0x0 MSTORE PUSH1 0x20 PUSH1 0x0 KECCAK256 SWAP1 JUMPDEST DUP2 SLOAD DUP2 MSTORE SWAP1 PUSH1 0x1 ADD SWAP1 PUSH1 0x20 ADD DUP1 DUP4 GT PUSH2 0x1FE6 JUMPI DUP3 SWAP1 SUB PUSH1 0x1F AND DUP3 ADD SWAP2 JUMPDEST POP POP POP POP POP DUP2 MSTORE PUSH1 0x20 ADD PUSH1 0x4 DUP3 ADD PUSH1 0x0 SWAP1 SLOAD SWAP1 PUSH2 0x100 EXP SWAP1 DIV PUSH1 0xFF AND ISZERO ISZERO ISZERO ISZERO DUP2 MSTORE PUSH1 0x20 ADD PUSH1 0x5 DUP3 ADD PUSH1 0x40 MLOAD DUP1 PUSH1 0x80 ADD PUSH1 0x40 MSTORE SWAP1 DUP2 PUSH1 0x0 DUP3 ADD PUSH1 0x0 SWAP1 SLOAD SWAP1 PUSH2 0x100 EXP SWAP1 DIV PUSH1 0xFF AND ISZERO ISZERO ISZERO ISZERO DUP2 MSTORE PUSH1 0x20 ADD PUSH1 0x0 DUP3 ADD PUSH1 0x1 SWAP1 SLOAD SWAP1 PUSH2 0x100 EXP SWAP1 DIV PUSH1 0xFF AND ISZERO ISZERO ISZERO ISZERO DUP2 MSTORE PUSH1 0x20 ADD PUSH1 0x0 DUP3 ADD PUSH1 0x2 SWAP1 SLOAD SWAP1 PUSH2 0x100 EXP SWAP1 DIV PUSH1 0xFF AND ISZERO ISZERO ISZERO ISZERO DUP2 MSTORE PUSH1 0x20 ADD PUSH1 0x0 DUP3 ADD PUSH1 0x3 SWAP1 SLOAD SWAP1 PUSH2 0x100 EXP SWAP1 DIV PUSH1 0xFF AND ISZERO ISZERO ISZERO ISZERO DUP2 MSTORE POP POP DUP2 MSTORE POP POP SWAP1 POP PUSH1 0x0 DUP2 PUSH1 0xA0 ADD MLOAD SWAP1 POP PUSH1 0x0 PUSH1 0x3 DUP2 GT ISZERO PUSH2 0x20C6 JUMPI PUSH2 0x20C5 PUSH2 0x27EF JUMP JUMPDEST JUMPDEST DUP5 PUSH1 0x3 DUP2 GT ISZERO PUSH2 0x20D9 JUMPI PUSH2 0x20D8 PUSH2 0x27EF JUMP JUMPDEST JUMPDEST EQ ISZERO PUSH2 0x20ED JUMPI DUP1 PUSH1 0x0 ADD MLOAD SWAP3 POP POP POP PUSH2 0x21A4 JUMP JUMPDEST PUSH1 0x1 PUSH1 0x3 DUP2 GT ISZERO PUSH2 0x2101 JUMPI PUSH2 0x2100 PUSH2 0x27EF JUMP JUMPDEST JUMPDEST DUP5 PUSH1 0x3 DUP2 GT ISZERO PUSH2 0x2114 JUMPI PUSH2 0x2113 PUSH2 0x27EF JUMP JUMPDEST JUMPDEST EQ ISZERO PUSH2 0x2128 JUMPI DUP1 PUSH1 0x20 ADD MLOAD SWAP3 POP POP POP PUSH2 0x21A4 JUMP JUMPDEST PUSH1 0x2 PUSH1 0x3 DUP2 GT ISZERO PUSH2 0x213C JUMPI PUSH2 0x213B PUSH2 0x27EF JUMP JUMPDEST JUMPDEST DUP5 PUSH1 0x3 DUP2 GT ISZERO PUSH2 0x214F JUMPI PUSH2 0x214E PUSH2 0x27EF JUMP JUMPDEST JUMPDEST EQ ISZERO PUSH2 0x2163 JUMPI DUP1 PUSH1 0x40 ADD MLOAD SWAP3 POP POP POP PUSH2 0x21A4 JUMP JUMPDEST PUSH1 0x3 DUP1 DUP2 GT ISZERO PUSH2 0x2176 JUMPI PUSH2 0x2175 PUSH2 0x27EF JUMP JUMPDEST JUMPDEST DUP5 PUSH1 0x3 DUP2 GT ISZERO PUSH2 0x2189 JUMPI PUSH2 0x2188 PUSH2 0x27EF JUMP JUMPDEST JUMPDEST EQ ISZERO PUSH2 0x219D JUMPI DUP1 PUSH1 0x60 ADD MLOAD SWAP3 POP POP POP PUSH2 0x21A4 JUMP JUMPDEST PUSH1 0x0 SWAP3 POP POP POP JUMPDEST SWAP3 SWAP2 POP POP JUMP JUMPDEST POP DUP1 SLOAD PUSH2 0x21B6 SWAP1 PUSH2 0x2655 JUMP JUMPDEST PUSH1 0x0 DUP3 SSTORE DUP1 PUSH1 0x1F LT PUSH2 0x21C8 JUMPI POP PUSH2 0x21E7 JUMP JUMPDEST PUSH1 0x1F ADD PUSH1 0x20 SWAP1 DIV SWAP1 PUSH1 0x0 MSTORE PUSH1 0x20 PUSH1 0x0 KECCAK256 SWAP1 DUP2 ADD SWAP1 PUSH2 0x21E6 SWAP2 SWAP1 PUSH2 0x2270 JUMP JUMPDEST JUMPDEST POP JUMP JUMPDEST DUP3 DUP1 SLOAD PUSH2 0x21F6 SWAP1 PUSH2 0x2655 JUMP JUMPDEST SWAP1 PUSH1 0x0 MSTORE PUSH1 0x20 PUSH1 0x0 KECCAK256 SWAP1 PUSH1 0x1F ADD PUSH1 0x20 SWAP1 DIV DUP2 ADD SWAP3 DUP3 PUSH2 0x2218 JUMPI PUSH1 0x0 DUP6 SSTORE PUSH2 0x225F JUMP JUMPDEST DUP3 PUSH1 0x1F LT PUSH2 0x2231 JUMPI DUP1 MLOAD PUSH1 0xFF NOT AND DUP4 DUP1 ADD OR DUP6 SSTORE PUSH2 0x225F JUMP JUMPDEST DUP3 DUP1 ADD PUSH1 0x1 ADD DUP6 SSTORE DUP3 ISZERO PUSH2 0x225F JUMPI SWAP2 DUP3 ADD JUMPDEST DUP3 DUP2 GT ISZERO PUSH2 0x225E JUMPI DUP3 MLOAD DUP3 SSTORE SWAP2 PUSH1 0x20 ADD SWAP2 SWAP1 PUSH1 0x1 ADD SWAP1 PUSH2 0x2243 JUMP JUMPDEST JUMPDEST POP SWAP1 POP PUSH2 0x226C SWAP2 SWAP1 PUSH2 0x2270 JUMP JUMPDEST POP SWAP1 JUMP JUMPDEST JUMPDEST DUP1 DUP3 GT ISZERO PUSH2 0x2289 JUMPI PUSH1 0x0 DUP2 PUSH1 0x0 SWAP1 SSTORE POP PUSH1 0x1 ADD PUSH2 0x2271 JUMP JUMPDEST POP SWAP1 JUMP JUMPDEST PUSH1 0x0 PUSH1 0x40 MLOAD SWAP1 POP SWAP1 JUMP JUMPDEST PUSH1 0x0 DUP1 REVERT JUMPDEST PUSH1 0x0 DUP1 REVERT JUMPDEST PUSH1 0x0 PUSH20 0xFFFFFFFFFFFFFFFFFFFFFFFFFFFFFFFFFFFFFFFF DUP3 AND SWAP1 POP SWAP2 SWAP1 POP JUMP JUMPDEST PUSH1 0x0 PUSH2 0x22CC DUP3 PUSH2 0x22A1 JUMP JUMPDEST SWAP1 POP SWAP2 SWAP1 POP JUMP JUMPDEST PUSH2 0x22DC DUP2 PUSH2 0x22C1 JUMP JUMPDEST DUP2 EQ PUSH2 0x22E7 JUMPI PUSH1 0x0 DUP1 REVERT JUMPDEST POP JUMP JUMPDEST PUSH1 0x0 DUP2 CALLDATALOAD SWAP1 POP PUSH2 0x22F9 DUP2 PUSH2 0x22D3 JUMP JUMPDEST SWAP3 SWAP2 POP POP JUMP JUMPDEST PUSH1 0x0 PUSH1 0x20 DUP3 DUP5 SUB SLT ISZERO PUSH2 0x2315 JUMPI PUSH2 0x2314 PUSH2 0x2297 JUMP JUMPDEST JUMPDEST PUSH1 0x0 PUSH2 0x2323 DUP5 DUP3 DUP6 ADD PUSH2 0x22EA JUMP JUMPDEST SWAP2 POP POP SWAP3 SWAP2 POP POP JUMP JUMPDEST PUSH1 0x0 DUP2 ISZERO ISZERO SWAP1 POP SWAP2 SWAP1 POP JUMP JUMPDEST PUSH2 0x2341 DUP2 PUSH2 0x232C JUMP JUMPDEST DUP3 MSTORE POP POP JUMP JUMPDEST PUSH1 0x0 PUSH1 0x20 DUP3 ADD SWAP1 POP PUSH2 0x235C PUSH1 0x0 DUP4 ADD DUP5 PUSH2 0x2338 JUMP JUMPDEST SWAP3 SWAP2 POP POP JUMP JUMPDEST PUSH1 0x0 DUP2 SWAP1 POP SWAP2 SWAP1 POP JUMP JUMPDEST PUSH2 0x2375 DUP2 PUSH2 0x2362 JUMP JUMPDEST DUP3 MSTORE POP POP JUMP JUMPDEST PUSH1 0x0 PUSH1 0x20 DUP3 ADD SWAP1 POP PUSH2 0x2390 PUSH1 0x0 DUP4 ADD DUP5 PUSH2 0x236C JUMP JUMPDEST SWAP3 SWAP2 POP POP JUMP JUMPDEST PUSH1 0x4 DUP2 LT PUSH2 0x23A3 JUMPI PUSH1 0x0 DUP1 REVERT JUMPDEST POP JUMP JUMPDEST PUSH1 0x0 DUP2 CALLDATALOAD SWAP1 POP PUSH2 0x23B5 DUP2 PUSH2 0x2396 JUMP JUMPDEST SWAP3 SWAP2 POP POP JUMP JUMPDEST PUSH1 0x0 DUP1 PUSH1 0x40 DUP4 DUP6 SUB SLT ISZERO PUSH2 0x23D2 JUMPI PUSH2 0x23D1 PUSH2 0x2297 JUMP JUMPDEST JUMPDEST PUSH1 0x0 PUSH2 0x23E0 DUP6 DUP3 DUP7 ADD PUSH2 0x22EA JUMP JUMPDEST SWAP3 POP POP PUSH1 0x20 PUSH2 0x23F1 DUP6 DUP3 DUP7 ADD PUSH2 0x23A6 JUMP JUMPDEST SWAP2 POP POP SWAP3 POP SWAP3 SWAP1 POP JUMP JUMPDEST PUSH2 0x2404 DUP2 PUSH2 0x22C1 JUMP JUMPDEST DUP3 MSTORE POP POP JUMP JUMPDEST PUSH1 0x0 PUSH1 0x20 DUP3 ADD SWAP1 POP PUSH2 0x241F PUSH1 0x0 DUP4 ADD DUP5 PUSH2 0x23FB JUMP JUMPDEST SWAP3 SWAP2 POP POP JUMP JUMPDEST PUSH1 0x0 DUP1 REVERT JUMPDEST PUSH1 0x0 DUP1 REVERT JUMPDEST PUSH1 0x0 PUSH1 0x1F NOT PUSH1 0x1F DUP4 ADD AND SWAP1 POP SWAP2 SWAP1 POP JUMP JUMPDEST PUSH32 0x4E487B7100000000000000000000000000000000000000000000000000000000 PUSH1 0x0 MSTORE PUSH1 0x41 PUSH1 0x4 MSTORE PUSH1 0x24 PUSH1 0x0 REVERT JUMPDEST PUSH2 0x2478 DUP3 PUSH2 0x242F JUMP JUMPDEST DUP2 ADD DUP2 DUP2 LT PUSH8 0xFFFFFFFFFFFFFFFF DUP3 GT OR ISZERO PUSH2 0x2497 JUMPI PUSH2 0x2496 PUSH2 0x2440 JUMP JUMPDEST JUMPDEST DUP1 PUSH1 0x40 MSTORE POP POP POP JUMP JUMPDEST PUSH1 0x0 PUSH2 0x24AA PUSH2 0x228D JUMP JUMPDEST SWAP1 POP PUSH2 0x24B6 DUP3 DUP3 PUSH2 0x246F JUMP JUMPDEST SWAP2 SWAP1 POP JUMP JUMPDEST PUSH1 0x0 PUSH8 0xFFFFFFFFFFFFFFFF DUP3 GT ISZERO PUSH2 0x24D6 JUMPI PUSH2 0x24D5 PUSH2 0x2440 JUMP JUMPDEST JUMPDEST PUSH2 0x24DF DUP3 PUSH2 0x242F JUMP JUMPDEST SWAP1 POP PUSH1 0x20 DUP2 ADD SWAP1 POP SWAP2 SWAP1 POP JUMP JUMPDEST DUP3 DUP2 DUP4 CALLDATACOPY PUSH1 0x0 DUP4 DUP4 ADD MSTORE POP POP POP JUMP JUMPDEST PUSH1 0x0 PUSH2 0x250E PUSH2 0x2509 DUP5 PUSH2 0x24BB JUMP JUMPDEST PUSH2 0x24A0 JUMP JUMPDEST SWAP1 POP DUP3 DUP2 MSTORE PUSH1 0x20 DUP2 ADD DUP5 DUP5 DUP5 ADD GT ISZERO PUSH2 0x252A JUMPI PUSH2 0x2529 PUSH2 0x242A JUMP JUMPDEST JUMPDEST PUSH2 0x2535 DUP5 DUP3 DUP6 PUSH2 0x24EC JUMP JUMPDEST POP SWAP4 SWAP3 POP POP POP JUMP JUMPDEST PUSH1 0x0 DUP3 PUSH1 0x1F DUP4 ADD SLT PUSH2 0x2552 JUMPI PUSH2 0x2551 PUSH2 0x2425 JUMP JUMPDEST JUMPDEST DUP2 CALLDATALOAD PUSH2 0x2562 DUP5 DUP3 PUSH1 0x20 DUP7 ADD PUSH2 0x24FB JUMP JUMPDEST SWAP2 POP POP SWAP3 SWAP2 POP POP JUMP JUMPDEST PUSH1 0x0 DUP1 PUSH1 0x0 DUP1 PUSH1 0x80 DUP6 DUP8 SUB SLT ISZERO PUSH2 0x2585 JUMPI PUSH2 0x2584 PUSH2 0x2297 JUMP JUMPDEST JUMPDEST PUSH1 0x0 PUSH2 0x2593 DUP8 DUP3 DUP9 ADD PUSH2 0x22EA JUMP JUMPDEST SWAP5 POP POP PUSH1 0x20 DUP6 ADD CALLDATALOAD PUSH8 0xFFFFFFFFFFFFFFFF DUP2 GT ISZERO PUSH2 0x25B4 JUMPI PUSH2 0x25B3 PUSH2 0x229C JUMP JUMPDEST JUMPDEST PUSH2 0x25C0 DUP8 DUP3 DUP9 ADD PUSH2 0x253D JUMP JUMPDEST SWAP4 POP POP PUSH1 0x40 DUP6 ADD CALLDATALOAD PUSH8 0xFFFFFFFFFFFFFFFF DUP2 GT ISZERO PUSH2 0x25E1 JUMPI PUSH2 0x25E0 PUSH2 0x229C JUMP JUMPDEST JUMPDEST PUSH2 0x25ED DUP8 DUP3 DUP9 ADD PUSH2 0x253D JUMP JUMPDEST SWAP3 POP POP PUSH1 0x60 DUP6 ADD CALLDATALOAD PUSH8 0xFFFFFFFFFFFFFFFF DUP2 GT ISZERO PUSH2 0x260E JUMPI PUSH2 0x260D PUSH2 0x229C JUMP JUMPDEST JUMPDEST PUSH2 0x261A DUP8 DUP3 DUP9 ADD PUSH2 0x253D JUMP JUMPDEST SWAP2 POP POP SWAP3 SWAP6 SWAP2 SWAP5 POP SWAP3 POP JUMP JUMPDEST PUSH32 0x4E487B7100000000000000000000000000000000000000000000000000000000 PUSH1 0x0 MSTORE PUSH1 0x22 PUSH1 0x4 MSTORE PUSH1 0x24 PUSH1 0x0 REVERT JUMPDEST PUSH1 0x0 PUSH1 0x2 DUP3 DIV SWAP1 POP PUSH1 0x1 DUP3 AND DUP1 PUSH2 0x266D JUMPI PUSH1 0x7F DUP3 AND SWAP2 POP JUMPDEST PUSH1 0x20 DUP3 LT DUP2 EQ ISZERO PUSH2 0x2681 JUMPI PUSH2 0x2680 PUSH2 0x2626 JUMP JUMPDEST JUMPDEST POP SWAP2 SWAP1 POP JUMP JUMPDEST PUSH1 0x0 DUP3 DUP3 MSTORE PUSH1 0x20 DUP3 ADD SWAP1 POP SWAP3 SWAP2 POP POP JUMP JUMPDEST PUSH32 0x4163636F756E7420646F65736E27742065786973740000000000000000000000 PUSH1 0x0 DUP3 ADD MSTORE POP JUMP JUMPDEST PUSH1 0x0 PUSH2 0x26CE PUSH1 0x15 DUP4 PUSH2 0x2687 JUMP JUMPDEST SWAP2 POP PUSH2 0x26D9 DUP3 PUSH2 0x2698 JUMP JUMPDEST PUSH1 0x20 DUP3 ADD SWAP1 POP SWAP2 SWAP1 POP JUMP JUMPDEST PUSH1 0x0 PUSH1 0x20 DUP3 ADD SWAP1 POP DUP2 DUP2 SUB PUSH1 0x0 DUP4 ADD MSTORE PUSH2 0x26FD DUP2 PUSH2 0x26C1 JUMP JUMPDEST SWAP1 POP SWAP2 SWAP1 POP JUMP JUMPDEST PUSH32 0x4E487B7100000000000000000000000000000000000000000000000000000000 PUSH1 0x0 MSTORE PUSH1 0x11 PUSH1 0x4 MSTORE PUSH1 0x24 PUSH1 0x0 REVERT JUMPDEST PUSH1 0x0 PUSH2 0x273E DUP3 PUSH2 0x2362 JUMP JUMPDEST SWAP2 POP PUSH1 0x0 DUP3 EQ ISZERO PUSH2 0x2752 JUMPI PUSH2 0x2751 PUSH2 0x2704 JUMP JUMPDEST JUMPDEST PUSH1 0x1 DUP3 SUB SWAP1 POP SWAP2 SWAP1 POP JUMP JUMPDEST PUSH32 0x4F6E6C79206F776E65722063616E2063616C6C20746869732066756E6374696F PUSH1 0x0 DUP3 ADD MSTORE PUSH32 0x6E2E000000000000000000000000000000000000000000000000000000000000 PUSH1 0x20 DUP3 ADD MSTORE POP JUMP JUMPDEST PUSH1 0x0 PUSH2 0x27B9 PUSH1 0x22 DUP4 PUSH2 0x2687 JUMP JUMPDEST SWAP2 POP PUSH2 0x27C4 DUP3 PUSH2 0x275D JUMP JUMPDEST PUSH1 0x40 DUP3 ADD SWAP1 POP SWAP2 SWAP1 POP JUMP JUMPDEST PUSH1 0x0 PUSH1 0x20 DUP3 ADD SWAP1 POP DUP2 DUP2 SUB PUSH1 0x0 DUP4 ADD MSTORE PUSH2 0x27E8 DUP2 PUSH2 0x27AC JUMP JUMPDEST SWAP1 POP SWAP2 SWAP1 POP JUMP JUMPDEST PUSH32 0x4E487B7100000000000000000000000000000000000000000000000000000000 PUSH1 0x0 MSTORE PUSH1 0x21 PUSH1 0x4 MSTORE PUSH1 0x24 PUSH1 0x0 REVERT JUMPDEST PUSH1 0x0 PUSH2 0x2829 DUP3 PUSH2 0x2362 JUMP JUMPDEST SWAP2 POP PUSH32 0xFFFFFFFFFFFFFFFFFFFFFFFFFFFFFFFFFFFFFFFFFFFFFFFFFFFFFFFFFFFFFFFF DUP3 EQ ISZERO PUSH2 0x285C JUMPI PUSH2 0x285B PUSH2 0x2704 JUMP JUMPDEST JUMPDEST PUSH1 0x1 DUP3 ADD SWAP1 POP SWAP2 SWAP1 POP JUMP JUMPDEST PUSH32 0x4163636F756E7420616C72656164792065786973747300000000000000000000 PUSH1 0x0 DUP3 ADD MSTORE POP JUMP JUMPDEST PUSH1 0x0 PUSH2 0x289D PUSH1 0x16 DUP4 PUSH2 0x2687 JUMP JUMPDEST SWAP2 POP PUSH2 0x28A8 DUP3 PUSH2 0x2867 JUMP JUMPDEST PUSH1 0x20 DUP3 ADD SWAP1 POP SWAP2 SWAP1 POP JUMP JUMPDEST PUSH1 0x0 PUSH1 0x20 DUP3 ADD SWAP1 POP DUP2 DUP2 SUB PUSH1 0x0 DUP4 ADD MSTORE PUSH2 0x28CC DUP2 PUSH2 0x2890 JUMP JUMPDEST SWAP1 POP SWAP2 SWAP1 POP JUMP INVALID LOG2 PUSH5 0x6970667358 0x22 SLT KECCAK256 DUP15 SAR 0x23 KECCAK256 0xAD CREATE2 0x2B LOG2 0xD6 TIMESTAMP DUP10 SELFBALANCE KECCAK256 EXTCODECOPY 0x5F PUSH15 0x17B3FD77687D48E066354BBC1DAC08 SWAP11 PUSH5 0x736F6C6343 STOP ADDMOD 0xC STOP CALLER "
				},
				"gasEstimates": {
					"creation": {
						"codeDepositCost": "2101000",
						"executionCost": "infinite",
						"totalCost": "infinite"
					},
					"external": {
						"activeMemberCount()": "2474",
						"assignRole(address,uint8)": "infinite",
						"burnAccount(address)": "infinite",
						"createAccount(address,string,string,string)": "infinite",
						"getActiveMemberCount()": "2505",
						"hasCouncilMemberRole(address)": "infinite",
						"hasGuestRole(address)": "infinite",
						"hasLeaderRole(address)": "infinite",
						"hasMemberRole(address)": "infinite",
						"hasRightToCreateReferendum(address)": "infinite",
						"hasRightToSupport(address)": "infinite",
						"hasRightToVote(address)": "infinite",
						"makeAccountActive(address)": "87087",
						"makeAccountPassive(address)": "78092",
						"owner()": "2537",
						"removeRole(address,uint8)": "infinite"
					},
					"internal": {
						"assignCouncilMember(address)": "infinite",
						"assignGuest(address)": "infinite",
						"assignLeader(address)": "infinite",
						"assignMember(address)": "infinite",
						"hasRole(address,enum AccountManagement.Role)": "infinite",
						"removeCouncilMember(address)": "infinite",
						"removeGuest(address)": "infinite",
						"removeLeader(address)": "infinite",
						"removeMember(address)": "infinite"
					}
				},
				"methodIdentifiers": {
					"activeMemberCount()": "5fb6c6ed",
					"assignRole(address,uint8)": "630a195b",
					"burnAccount(address)": "d3a5059a",
					"createAccount(address,string,string,string)": "dee94b4a",
					"getActiveMemberCount()": "22faa41f",
					"hasCouncilMemberRole(address)": "fa4d7aae",
					"hasGuestRole(address)": "e8621e59",
					"hasLeaderRole(address)": "297027d5",
					"hasMemberRole(address)": "056909b7",
					"hasRightToCreateReferendum(address)": "01eb0857",
					"hasRightToSupport(address)": "c2b7d948",
					"hasRightToVote(address)": "65c93769",
					"makeAccountActive(address)": "a1aea04a",
					"makeAccountPassive(address)": "49587281",
					"owner()": "8da5cb5b",
					"removeRole(address,uint8)": "b74866fb"
				}
			},
			"storageLayout": {
				"storage": [
					{
						"astId": 47,
						"contract": "OnDemo/contracts/AccountManagement.sol:AccountManagement",
						"label": "activeMemberCount",
						"offset": 0,
						"slot": "0",
						"type": "t_uint256"
					},
					{
						"astId": 49,
						"contract": "OnDemo/contracts/AccountManagement.sol:AccountManagement",
						"label": "owner",
						"offset": 0,
						"slot": "1",
						"type": "t_address"
					},
					{
						"astId": 54,
						"contract": "OnDemo/contracts/AccountManagement.sol:AccountManagement",
						"label": "users",
						"offset": 0,
						"slot": "2",
						"type": "t_mapping(t_address,t_struct(User)20_storage)"
					},
					{
						"astId": 58,
						"contract": "OnDemo/contracts/AccountManagement.sol:AccountManagement",
						"label": "activeMembers",
						"offset": 0,
						"slot": "3",
						"type": "t_mapping(t_address,t_bool)"
					}
				],
				"types": {
					"t_address": {
						"encoding": "inplace",
						"label": "address",
						"numberOfBytes": "20"
					},
					"t_bool": {
						"encoding": "inplace",
						"label": "bool",
						"numberOfBytes": "1"
					},
					"t_mapping(t_address,t_bool)": {
						"encoding": "mapping",
						"key": "t_address",
						"label": "mapping(address => bool)",
						"numberOfBytes": "32",
						"value": "t_bool"
					},
					"t_mapping(t_address,t_struct(User)20_storage)": {
						"encoding": "mapping",
						"key": "t_address",
						"label": "mapping(address => struct AccountManagement.User)",
						"numberOfBytes": "32",
						"value": "t_struct(User)20_storage"
					},
					"t_string_storage": {
						"encoding": "bytes",
						"label": "string",
						"numberOfBytes": "32"
					},
					"t_struct(RoleMap)29_storage": {
						"encoding": "inplace",
						"label": "struct AccountManagement.RoleMap",
						"members": [
							{
								"astId": 22,
								"contract": "OnDemo/contracts/AccountManagement.sol:AccountManagement",
								"label": "isLeader",
								"offset": 0,
								"slot": "0",
								"type": "t_bool"
							},
							{
								"astId": 24,
								"contract": "OnDemo/contracts/AccountManagement.sol:AccountManagement",
								"label": "isCouncilMember",
								"offset": 1,
								"slot": "0",
								"type": "t_bool"
							},
							{
								"astId": 26,
								"contract": "OnDemo/contracts/AccountManagement.sol:AccountManagement",
								"label": "isMember",
								"offset": 2,
								"slot": "0",
								"type": "t_bool"
							},
							{
								"astId": 28,
								"contract": "OnDemo/contracts/AccountManagement.sol:AccountManagement",
								"label": "isGuest",
								"offset": 3,
								"slot": "0",
								"type": "t_bool"
							}
						],
						"numberOfBytes": "32"
					},
					"t_struct(User)20_storage": {
						"encoding": "inplace",
						"label": "struct AccountManagement.User",
						"members": [
							{
								"astId": 8,
								"contract": "OnDemo/contracts/AccountManagement.sol:AccountManagement",
								"label": "userAddress",
								"offset": 0,
								"slot": "0",
								"type": "t_address"
							},
							{
								"astId": 10,
								"contract": "OnDemo/contracts/AccountManagement.sol:AccountManagement",
								"label": "firstName",
								"offset": 0,
								"slot": "1",
								"type": "t_string_storage"
							},
							{
								"astId": 12,
								"contract": "OnDemo/contracts/AccountManagement.sol:AccountManagement",
								"label": "secondName",
								"offset": 0,
								"slot": "2",
								"type": "t_string_storage"
							},
							{
								"astId": 14,
								"contract": "OnDemo/contracts/AccountManagement.sol:AccountManagement",
								"label": "mailAdress",
								"offset": 0,
								"slot": "3",
								"type": "t_string_storage"
							},
							{
								"astId": 16,
								"contract": "OnDemo/contracts/AccountManagement.sol:AccountManagement",
								"label": "isActive",
								"offset": 0,
								"slot": "4",
								"type": "t_bool"
							},
							{
								"astId": 19,
								"contract": "OnDemo/contracts/AccountManagement.sol:AccountManagement",
								"label": "roleMap",
								"offset": 0,
								"slot": "5",
								"type": "t_struct(RoleMap)29_storage"
							}
						],
						"numberOfBytes": "192"
					},
					"t_uint256": {
						"encoding": "inplace",
						"label": "uint256",
						"numberOfBytes": "32"
					}
				}
			},
			"userdoc": {
				"kind": "user",
				"methods": {},
				"version": 1
			}
		}
	}
}