{
	"OnDemo/contracts/AccountManagement.sol": {
		"AccountManagement": {
			"abi": [
				{
					"inputs": [
						{
							"internalType": "string",
							"name": "_firstName",
							"type": "string"
						},
						{
							"internalType": "string",
							"name": "_secondName",
							"type": "string"
						},
						{
							"internalType": "string",
							"name": "_mailAdress",
							"type": "string"
						}
					],
					"stateMutability": "nonpayable",
					"type": "constructor"
				},
				{
					"inputs": [
						{
							"internalType": "address",
							"name": "_address",
							"type": "address"
						},
						{
							"internalType": "enum AccountManagement.Role",
							"name": "_role",
							"type": "uint8"
						}
					],
					"name": "assignRole",
					"outputs": [],
					"stateMutability": "nonpayable",
					"type": "function"
				},
				{
					"inputs": [
						{
							"internalType": "address",
							"name": "_address",
							"type": "address"
						}
					],
					"name": "burnAccount",
					"outputs": [],
					"stateMutability": "nonpayable",
					"type": "function"
				},
				{
					"inputs": [
						{
							"internalType": "address",
							"name": "_address",
							"type": "address"
						},
						{
							"internalType": "string",
							"name": "_firstName",
							"type": "string"
						},
						{
							"internalType": "string",
							"name": "_secondName",
							"type": "string"
						},
						{
							"internalType": "string",
							"name": "_mailAdress",
							"type": "string"
						}
					],
					"name": "createAccount",
					"outputs": [],
					"stateMutability": "nonpayable",
					"type": "function"
				},
				{
					"inputs": [
						{
							"internalType": "address",
							"name": "_address",
							"type": "address"
						}
					],
					"name": "hasCouncilMemberRole",
					"outputs": [
						{
							"internalType": "bool",
							"name": "",
							"type": "bool"
						}
					],
					"stateMutability": "view",
					"type": "function"
				},
				{
					"inputs": [
						{
							"internalType": "address",
							"name": "_address",
							"type": "address"
						}
					],
					"name": "hasGuestRole",
					"outputs": [
						{
							"internalType": "bool",
							"name": "",
							"type": "bool"
						}
					],
					"stateMutability": "view",
					"type": "function"
				},
				{
					"inputs": [
						{
							"internalType": "address",
							"name": "_address",
							"type": "address"
						}
					],
					"name": "hasLeaderRole",
					"outputs": [
						{
							"internalType": "bool",
							"name": "",
							"type": "bool"
						}
					],
					"stateMutability": "view",
					"type": "function"
				},
				{
					"inputs": [
						{
							"internalType": "address",
							"name": "_address",
							"type": "address"
						}
					],
					"name": "hasMemberRole",
					"outputs": [
						{
							"internalType": "bool",
							"name": "",
							"type": "bool"
						}
					],
					"stateMutability": "view",
					"type": "function"
				},
				{
					"inputs": [
						{
							"internalType": "address",
							"name": "_address",
							"type": "address"
						}
					],
					"name": "hasRightToCreateReferendum",
					"outputs": [
						{
							"internalType": "bool",
							"name": "",
							"type": "bool"
						}
					],
					"stateMutability": "view",
					"type": "function"
				},
				{
					"inputs": [
						{
							"internalType": "address",
							"name": "_address",
							"type": "address"
						}
					],
					"name": "hasRightToSupport",
					"outputs": [
						{
							"internalType": "bool",
							"name": "",
							"type": "bool"
						}
					],
					"stateMutability": "view",
					"type": "function"
				},
				{
					"inputs": [
						{
							"internalType": "address",
							"name": "_address",
							"type": "address"
						}
					],
					"name": "hasRightToVote",
					"outputs": [
						{
							"internalType": "bool",
							"name": "",
							"type": "bool"
						}
					],
					"stateMutability": "view",
					"type": "function"
				},
				{
					"inputs": [
						{
							"internalType": "address",
							"name": "_address",
							"type": "address"
						}
					],
					"name": "makeAccountActive",
					"outputs": [],
					"stateMutability": "nonpayable",
					"type": "function"
				},
				{
					"inputs": [
						{
							"internalType": "address",
							"name": "_address",
							"type": "address"
						}
					],
					"name": "makeAccountPassive",
					"outputs": [],
					"stateMutability": "nonpayable",
					"type": "function"
				},
				{
					"inputs": [],
					"name": "owner",
					"outputs": [
						{
							"internalType": "address",
							"name": "",
							"type": "address"
						}
					],
					"stateMutability": "view",
					"type": "function"
				},
				{
					"inputs": [
						{
							"internalType": "address",
							"name": "_address",
							"type": "address"
						},
						{
							"internalType": "enum AccountManagement.Role",
							"name": "_role",
							"type": "uint8"
						}
					],
					"name": "removeRole",
					"outputs": [],
					"stateMutability": "nonpayable",
					"type": "function"
				}
			],
			"devdoc": {
				"kind": "dev",
				"methods": {},
				"version": 1
			},
			"evm": {
				"assembly": "    /* \"OnDemo/contracts/AccountManagement.sol\":74:7923  contract AccountManagement {\r... */\n  mstore(0x40, 0x80)\n    /* \"OnDemo/contracts/AccountManagement.sol\":872:1174  constructor(string memory _firstName, string memory _secondName, string memory _mailAdress) {\r... */\n  callvalue\n  dup1\n  iszero\n  tag_1\n  jumpi\n  0x00\n  dup1\n  revert\ntag_1:\n  pop\n  mload(0x40)\n  sub(codesize, bytecodeSize)\n  dup1\n  bytecodeSize\n  dup4\n  codecopy\n  dup2\n  dup2\n  add\n  0x40\n  mstore\n  dup2\n  add\n  swap1\n  tag_2\n  swap2\n  swap1\n  tag_3\n  jump\t// in\ntag_2:\n    /* \"OnDemo/contracts/AccountManagement.sol\":983:993  msg.sender */\n  caller\n    /* \"OnDemo/contracts/AccountManagement.sol\":975:980  owner */\n  0x00\n  dup1\n    /* \"OnDemo/contracts/AccountManagement.sol\":975:993  owner = msg.sender */\n  0x0100\n  exp\n  dup2\n  sload\n  dup2\n  0xffffffffffffffffffffffffffffffffffffffff\n  mul\n  not\n  and\n  swap1\n  dup4\n  0xffffffffffffffffffffffffffffffffffffffff\n  and\n  mul\n  or\n  swap1\n  sstore\n  pop\n    /* \"OnDemo/contracts/AccountManagement.sol\":1004:1067  createAccount(msg.sender, _firstName, _secondName, _mailAdress) */\n  tag_6\n    /* \"OnDemo/contracts/AccountManagement.sol\":1018:1028  msg.sender */\n  caller\n    /* \"OnDemo/contracts/AccountManagement.sol\":1030:1040  _firstName */\n  dup5\n    /* \"OnDemo/contracts/AccountManagement.sol\":1042:1053  _secondName */\n  dup5\n    /* \"OnDemo/contracts/AccountManagement.sol\":1055:1066  _mailAdress */\n  dup5\n    /* \"OnDemo/contracts/AccountManagement.sol\":1004:1017  createAccount */\n  shl(0x20, tag_7)\n    /* \"OnDemo/contracts/AccountManagement.sol\":1004:1067  createAccount(msg.sender, _firstName, _secondName, _mailAdress) */\n  0x20\n  shr\n  jump\t// in\ntag_6:\n    /* \"OnDemo/contracts/AccountManagement.sol\":1084:1119  assignRole(msg.sender, Role.LEADER) */\n  tag_8\n    /* \"OnDemo/contracts/AccountManagement.sol\":1095:1105  msg.sender */\n  caller\n    /* \"OnDemo/contracts/AccountManagement.sol\":1107:1118  Role.LEADER */\n  0x00\n    /* \"OnDemo/contracts/AccountManagement.sol\":1084:1094  assignRole */\n  shl(0x20, tag_9)\n    /* \"OnDemo/contracts/AccountManagement.sol\":1084:1119  assignRole(msg.sender, Role.LEADER) */\n  0x20\n  shr\n  jump\t// in\ntag_8:\n    /* \"OnDemo/contracts/AccountManagement.sol\":1130:1164  removeRole(msg.sender, Role.GUEST) */\n  tag_10\n    /* \"OnDemo/contracts/AccountManagement.sol\":1141:1151  msg.sender */\n  caller\n    /* \"OnDemo/contracts/AccountManagement.sol\":1153:1163  Role.GUEST */\n  0x03\n    /* \"OnDemo/contracts/AccountManagement.sol\":1130:1140  removeRole */\n  shl(0x20, tag_11)\n    /* \"OnDemo/contracts/AccountManagement.sol\":1130:1164  removeRole(msg.sender, Role.GUEST) */\n  0x20\n  shr\n  jump\t// in\ntag_10:\n    /* \"OnDemo/contracts/AccountManagement.sol\":872:1174  constructor(string memory _firstName, string memory _secondName, string memory _mailAdress) {\r... */\n  pop\n  pop\n  pop\n    /* \"OnDemo/contracts/AccountManagement.sol\":74:7923  contract AccountManagement {\r... */\n  jump(tag_12)\n    /* \"OnDemo/contracts/AccountManagement.sol\":1823:2187  function createAccount(address _address, string memory _firstName, string memory _secondName, string memory _mailAdress) public userNotExists(_address){\r... */\ntag_7:\n    /* \"OnDemo/contracts/AccountManagement.sol\":1965:1973  _address */\n  dup4\n    /* \"OnDemo/contracts/AccountManagement.sol\":1737:1738  0 */\n  0x00\n    /* \"OnDemo/contracts/AccountManagement.sol\":1698:1739  users[_address].userAddress == address(0) */\n  0xffffffffffffffffffffffffffffffffffffffff\n  and\n    /* \"OnDemo/contracts/AccountManagement.sol\":1698:1703  users */\n  0x01\n    /* \"OnDemo/contracts/AccountManagement.sol\":1698:1713  users[_address] */\n  0x00\n    /* \"OnDemo/contracts/AccountManagement.sol\":1704:1712  _address */\n  dup4\n    /* \"OnDemo/contracts/AccountManagement.sol\":1698:1713  users[_address] */\n  0xffffffffffffffffffffffffffffffffffffffff\n  and\n  0xffffffffffffffffffffffffffffffffffffffff\n  and\n  dup2\n  mstore\n  0x20\n  add\n  swap1\n  dup2\n  mstore\n  0x20\n  add\n  0x00\n  keccak256\n    /* \"OnDemo/contracts/AccountManagement.sol\":1698:1725  users[_address].userAddress */\n  0x00\n  add\n  0x00\n  swap1\n  sload\n  swap1\n  0x0100\n  exp\n  swap1\n  div\n  0xffffffffffffffffffffffffffffffffffffffff\n  and\n    /* \"OnDemo/contracts/AccountManagement.sol\":1698:1739  users[_address].userAddress == address(0) */\n  0xffffffffffffffffffffffffffffffffffffffff\n  and\n  eq\n    /* \"OnDemo/contracts/AccountManagement.sol\":1690:1766  require(users[_address].userAddress == address(0), \"Account already exists\") */\n  tag_14\n  jumpi\n  mload(0x40)\n  0x08c379a000000000000000000000000000000000000000000000000000000000\n  dup2\n  mstore\n  0x04\n  add\n  tag_15\n  swap1\n  tag_16\n  jump\t// in\ntag_15:\n  mload(0x40)\n  dup1\n  swap2\n  sub\n  swap1\n  revert\ntag_14:\n    /* \"OnDemo/contracts/AccountManagement.sol\":1985:2007  RoleMap memory roleMap */\n  0x00\n    /* \"OnDemo/contracts/AccountManagement.sol\":2010:2044  RoleMap(false, false, false, true) */\n  mload(0x40)\n  dup1\n  0x80\n  add\n  0x40\n  mstore\n  dup1\n    /* \"OnDemo/contracts/AccountManagement.sol\":2018:2023  false */\n  0x00\n    /* \"OnDemo/contracts/AccountManagement.sol\":2010:2044  RoleMap(false, false, false, true) */\n  iszero\n  iszero\n  dup2\n  mstore\n  0x20\n  add\n    /* \"OnDemo/contracts/AccountManagement.sol\":2025:2030  false */\n  0x00\n    /* \"OnDemo/contracts/AccountManagement.sol\":2010:2044  RoleMap(false, false, false, true) */\n  iszero\n  iszero\n  dup2\n  mstore\n  0x20\n  add\n    /* \"OnDemo/contracts/AccountManagement.sol\":2032:2037  false */\n  0x00\n    /* \"OnDemo/contracts/AccountManagement.sol\":2010:2044  RoleMap(false, false, false, true) */\n  iszero\n  iszero\n  dup2\n  mstore\n  0x20\n  add\n    /* \"OnDemo/contracts/AccountManagement.sol\":2039:2043  true */\n  0x01\n    /* \"OnDemo/contracts/AccountManagement.sol\":2010:2044  RoleMap(false, false, false, true) */\n  iszero\n  iszero\n  dup2\n  mstore\n  pop\n    /* \"OnDemo/contracts/AccountManagement.sol\":1985:2044  RoleMap memory roleMap = RoleMap(false, false, false, true) */\n  swap1\n  pop\n    /* \"OnDemo/contracts/AccountManagement.sol\":2055:2071  User memory user */\n  0x00\n    /* \"OnDemo/contracts/AccountManagement.sol\":2074:2141  User(_address, _firstName, _secondName, _mailAdress, true, roleMap) */\n  mload(0x40)\n  dup1\n  0xc0\n  add\n  0x40\n  mstore\n  dup1\n    /* \"OnDemo/contracts/AccountManagement.sol\":2079:2087  _address */\n  dup9\n    /* \"OnDemo/contracts/AccountManagement.sol\":2074:2141  User(_address, _firstName, _secondName, _mailAdress, true, roleMap) */\n  0xffffffffffffffffffffffffffffffffffffffff\n  and\n  dup2\n  mstore\n  0x20\n  add\n    /* \"OnDemo/contracts/AccountManagement.sol\":2089:2099  _firstName */\n  dup8\n    /* \"OnDemo/contracts/AccountManagement.sol\":2074:2141  User(_address, _firstName, _secondName, _mailAdress, true, roleMap) */\n  dup2\n  mstore\n  0x20\n  add\n    /* \"OnDemo/contracts/AccountManagement.sol\":2101:2112  _secondName */\n  dup7\n    /* \"OnDemo/contracts/AccountManagement.sol\":2074:2141  User(_address, _firstName, _secondName, _mailAdress, true, roleMap) */\n  dup2\n  mstore\n  0x20\n  add\n    /* \"OnDemo/contracts/AccountManagement.sol\":2114:2125  _mailAdress */\n  dup6\n    /* \"OnDemo/contracts/AccountManagement.sol\":2074:2141  User(_address, _firstName, _secondName, _mailAdress, true, roleMap) */\n  dup2\n  mstore\n  0x20\n  add\n    /* \"OnDemo/contracts/AccountManagement.sol\":2127:2131  true */\n  0x01\n    /* \"OnDemo/contracts/AccountManagement.sol\":2074:2141  User(_address, _firstName, _secondName, _mailAdress, true, roleMap) */\n  iszero\n  iszero\n  dup2\n  mstore\n  0x20\n  add\n    /* \"OnDemo/contracts/AccountManagement.sol\":2133:2140  roleMap */\n  dup4\n    /* \"OnDemo/contracts/AccountManagement.sol\":2074:2141  User(_address, _firstName, _secondName, _mailAdress, true, roleMap) */\n  dup2\n  mstore\n  pop\n    /* \"OnDemo/contracts/AccountManagement.sol\":2055:2141  User memory user = User(_address, _firstName, _secondName, _mailAdress, true, roleMap) */\n  swap1\n  pop\n    /* \"OnDemo/contracts/AccountManagement.sol\":2170:2174  user */\n  dup1\n    /* \"OnDemo/contracts/AccountManagement.sol\":2152:2157  users */\n  0x01\n    /* \"OnDemo/contracts/AccountManagement.sol\":2152:2167  users[_address] */\n  0x00\n    /* \"OnDemo/contracts/AccountManagement.sol\":2158:2166  _address */\n  dup10\n    /* \"OnDemo/contracts/AccountManagement.sol\":2152:2167  users[_address] */\n  0xffffffffffffffffffffffffffffffffffffffff\n  and\n  0xffffffffffffffffffffffffffffffffffffffff\n  and\n  dup2\n  mstore\n  0x20\n  add\n  swap1\n  dup2\n  mstore\n  0x20\n  add\n  0x00\n  keccak256\n    /* \"OnDemo/contracts/AccountManagement.sol\":2152:2174  users[_address] = user */\n  0x00\n  dup3\n  add\n  mload\n  dup2\n  0x00\n  add\n  exp(0x0100, 0x00)\n  dup2\n  sload\n  dup2\n  0xffffffffffffffffffffffffffffffffffffffff\n  mul\n  not\n  and\n  swap1\n  dup4\n  0xffffffffffffffffffffffffffffffffffffffff\n  and\n  mul\n  or\n  swap1\n  sstore\n  pop\n  0x20\n  dup3\n  add\n  mload\n  dup2\n  0x01\n  add\n  swap1\n  dup1\n  mload\n  swap1\n  0x20\n  add\n  swap1\n  tag_18\n  swap3\n  swap2\n  swap1\n  tag_19\n  jump\t// in\ntag_18:\n  pop\n  0x40\n  dup3\n  add\n  mload\n  dup2\n  0x02\n  add\n  swap1\n  dup1\n  mload\n  swap1\n  0x20\n  add\n  swap1\n  tag_20\n  swap3\n  swap2\n  swap1\n  tag_19\n  jump\t// in\ntag_20:\n  pop\n  0x60\n  dup3\n  add\n  mload\n  dup2\n  0x03\n  add\n  swap1\n  dup1\n  mload\n  swap1\n  0x20\n  add\n  swap1\n  tag_21\n  swap3\n  swap2\n  swap1\n  tag_19\n  jump\t// in\ntag_21:\n  pop\n  0x80\n  dup3\n  add\n  mload\n  dup2\n  0x04\n  add\n  exp(0x0100, 0x00)\n  dup2\n  sload\n  dup2\n  0xff\n  mul\n  not\n  and\n  swap1\n  dup4\n  iszero\n  iszero\n  mul\n  or\n  swap1\n  sstore\n  pop\n  0xa0\n  dup3\n  add\n  mload\n  dup2\n  0x05\n  add\n  0x00\n  dup3\n  add\n  mload\n  dup2\n  0x00\n  add\n  exp(0x0100, 0x00)\n  dup2\n  sload\n  dup2\n  0xff\n  mul\n  not\n  and\n  swap1\n  dup4\n  iszero\n  iszero\n  mul\n  or\n  swap1\n  sstore\n  pop\n  0x20\n  dup3\n  add\n  mload\n  dup2\n  0x00\n  add\n  exp(0x0100, 0x01)\n  dup2\n  sload\n  dup2\n  0xff\n  mul\n  not\n  and\n  swap1\n  dup4\n  iszero\n  iszero\n  mul\n  or\n  swap1\n  sstore\n  pop\n  0x40\n  dup3\n  add\n  mload\n  dup2\n  0x00\n  add\n  exp(0x0100, 0x02)\n  dup2\n  sload\n  dup2\n  0xff\n  mul\n  not\n  and\n  swap1\n  dup4\n  iszero\n  iszero\n  mul\n  or\n  swap1\n  sstore\n  pop\n  0x60\n  dup3\n  add\n  mload\n  dup2\n  0x00\n  add\n  exp(0x0100, 0x03)\n  dup2\n  sload\n  dup2\n  0xff\n  mul\n  not\n  and\n  swap1\n  dup4\n  iszero\n  iszero\n  mul\n  or\n  swap1\n  sstore\n  pop\n  pop\n  pop\n  swap1\n  pop\n  pop\n    /* \"OnDemo/contracts/AccountManagement.sol\":1777:1778  _ */\n  pop\n  pop\n    /* \"OnDemo/contracts/AccountManagement.sol\":1823:2187  function createAccount(address _address, string memory _firstName, string memory _secondName, string memory _mailAdress) public userNotExists(_address){\r... */\n  pop\n  pop\n  pop\n  pop\n  pop\n  jump\t// out\n    /* \"OnDemo/contracts/AccountManagement.sol\":3001:3564  function assignRole(address _address, Role _role) public onlyLeader userExists(_address){\r... */\ntag_9:\n    /* \"OnDemo/contracts/AccountManagement.sol\":1387:1392  owner */\n  0x00\n  dup1\n  sload\n  swap1\n  0x0100\n  exp\n  swap1\n  div\n  0xffffffffffffffffffffffffffffffffffffffff\n  and\n    /* \"OnDemo/contracts/AccountManagement.sol\":1373:1392  msg.sender == owner */\n  0xffffffffffffffffffffffffffffffffffffffff\n  and\n    /* \"OnDemo/contracts/AccountManagement.sol\":1373:1383  msg.sender */\n  caller\n    /* \"OnDemo/contracts/AccountManagement.sol\":1373:1392  msg.sender == owner */\n  0xffffffffffffffffffffffffffffffffffffffff\n  and\n  eq\n    /* \"OnDemo/contracts/AccountManagement.sol\":1373:1421  msg.sender == owner || hasLeaderRole(msg.sender) */\n  dup1\n  tag_23\n  jumpi\n  pop\n    /* \"OnDemo/contracts/AccountManagement.sol\":1396:1421  hasLeaderRole(msg.sender) */\n  tag_24\n    /* \"OnDemo/contracts/AccountManagement.sol\":1410:1420  msg.sender */\n  caller\n    /* \"OnDemo/contracts/AccountManagement.sol\":1396:1409  hasLeaderRole */\n  shl(0x20, tag_25)\n    /* \"OnDemo/contracts/AccountManagement.sol\":1396:1421  hasLeaderRole(msg.sender) */\n  0x20\n  shr\n  jump\t// in\ntag_24:\n    /* \"OnDemo/contracts/AccountManagement.sol\":1373:1421  msg.sender == owner || hasLeaderRole(msg.sender) */\ntag_23:\n    /* \"OnDemo/contracts/AccountManagement.sol\":1365:1460  require(msg.sender == owner || hasLeaderRole(msg.sender), \"Only owner can call this function.\") */\n  tag_26\n  jumpi\n  mload(0x40)\n  0x08c379a000000000000000000000000000000000000000000000000000000000\n  dup2\n  mstore\n  0x04\n  add\n  tag_27\n  swap1\n  tag_28\n  jump\t// in\ntag_27:\n  mload(0x40)\n  dup1\n  swap2\n  sub\n  swap1\n  revert\ntag_26:\n    /* \"OnDemo/contracts/AccountManagement.sol\":3080:3088  _address */\n  dup2\n    /* \"OnDemo/contracts/AccountManagement.sol\":1583:1584  0 */\n  0x00\n    /* \"OnDemo/contracts/AccountManagement.sol\":1544:1585  users[_address].userAddress != address(0) */\n  0xffffffffffffffffffffffffffffffffffffffff\n  and\n    /* \"OnDemo/contracts/AccountManagement.sol\":1544:1549  users */\n  0x01\n    /* \"OnDemo/contracts/AccountManagement.sol\":1544:1559  users[_address] */\n  0x00\n    /* \"OnDemo/contracts/AccountManagement.sol\":1550:1558  _address */\n  dup4\n    /* \"OnDemo/contracts/AccountManagement.sol\":1544:1559  users[_address] */\n  0xffffffffffffffffffffffffffffffffffffffff\n  and\n  0xffffffffffffffffffffffffffffffffffffffff\n  and\n  dup2\n  mstore\n  0x20\n  add\n  swap1\n  dup2\n  mstore\n  0x20\n  add\n  0x00\n  keccak256\n    /* \"OnDemo/contracts/AccountManagement.sol\":1544:1571  users[_address].userAddress */\n  0x00\n  add\n  0x00\n  swap1\n  sload\n  swap1\n  0x0100\n  exp\n  swap1\n  div\n  0xffffffffffffffffffffffffffffffffffffffff\n  and\n    /* \"OnDemo/contracts/AccountManagement.sol\":1544:1585  users[_address].userAddress != address(0) */\n  0xffffffffffffffffffffffffffffffffffffffff\n  and\n  eq\n  iszero\n    /* \"OnDemo/contracts/AccountManagement.sol\":1536:1611  require(users[_address].userAddress != address(0), \"Account doesn't exist\") */\n  tag_30\n  jumpi\n  mload(0x40)\n  0x08c379a000000000000000000000000000000000000000000000000000000000\n  dup2\n  mstore\n  0x04\n  add\n  tag_31\n  swap1\n  tag_32\n  jump\t// in\ntag_31:\n  mload(0x40)\n  dup1\n  swap2\n  sub\n  swap1\n  revert\ntag_30:\n    /* \"OnDemo/contracts/AccountManagement.sol\":3100:3117  User storage user */\n  0x00\n    /* \"OnDemo/contracts/AccountManagement.sol\":3120:3125  users */\n  0x01\n    /* \"OnDemo/contracts/AccountManagement.sol\":3120:3135  users[_address] */\n  0x00\n    /* \"OnDemo/contracts/AccountManagement.sol\":3126:3134  _address */\n  dup6\n    /* \"OnDemo/contracts/AccountManagement.sol\":3120:3135  users[_address] */\n  0xffffffffffffffffffffffffffffffffffffffff\n  and\n  0xffffffffffffffffffffffffffffffffffffffff\n  and\n  dup2\n  mstore\n  0x20\n  add\n  swap1\n  dup2\n  mstore\n  0x20\n  add\n  0x00\n  keccak256\n    /* \"OnDemo/contracts/AccountManagement.sol\":3100:3135  User storage user = users[_address] */\n  swap1\n  pop\n    /* \"OnDemo/contracts/AccountManagement.sol\":3146:3169  RoleMap storage roleMap */\n  0x00\n    /* \"OnDemo/contracts/AccountManagement.sol\":3172:3176  user */\n  dup2\n    /* \"OnDemo/contracts/AccountManagement.sol\":3172:3184  user.roleMap */\n  0x05\n  add\n    /* \"OnDemo/contracts/AccountManagement.sol\":3146:3184  RoleMap storage roleMap = user.roleMap */\n  swap1\n  pop\n    /* \"OnDemo/contracts/AccountManagement.sol\":3209:3220  Role.LEADER */\n  0x00\n    /* \"OnDemo/contracts/AccountManagement.sol\":3200:3220  _role == Role.LEADER */\n  0x03\n  dup2\n  gt\n  iszero\n  tag_34\n  jumpi\n  mstore(0x00, 0x4e487b7100000000000000000000000000000000000000000000000000000000)\n  mstore(0x04, 0x21)\n  revert(0x00, 0x24)\ntag_34:\n    /* \"OnDemo/contracts/AccountManagement.sol\":3200:3205  _role */\n  dup5\n    /* \"OnDemo/contracts/AccountManagement.sol\":3200:3220  _role == Role.LEADER */\n  0x03\n  dup2\n  gt\n  iszero\n  tag_35\n  jumpi\n  mstore(0x00, 0x4e487b7100000000000000000000000000000000000000000000000000000000)\n  mstore(0x04, 0x21)\n  revert(0x00, 0x24)\ntag_35:\n  eq\n    /* \"OnDemo/contracts/AccountManagement.sol\":3197:3557  if(_role == Role.LEADER){\r... */\n  iszero\n  tag_36\n  jumpi\n    /* \"OnDemo/contracts/AccountManagement.sol\":3255:3259  true */\n  0x01\n    /* \"OnDemo/contracts/AccountManagement.sol\":3236:3243  roleMap */\n  dup2\n    /* \"OnDemo/contracts/AccountManagement.sol\":3236:3252  roleMap.isLeader */\n  0x00\n  add\n  0x00\n    /* \"OnDemo/contracts/AccountManagement.sol\":3236:3259  roleMap.isLeader = true */\n  0x0100\n  exp\n  dup2\n  sload\n  dup2\n  0xff\n  mul\n  not\n  and\n  swap1\n  dup4\n  iszero\n  iszero\n  mul\n  or\n  swap1\n  sstore\n  pop\n    /* \"OnDemo/contracts/AccountManagement.sol\":3197:3557  if(_role == Role.LEADER){\r... */\n  jump(tag_37)\ntag_36:\n    /* \"OnDemo/contracts/AccountManagement.sol\":3298:3316  Role.COUNCILMEMBER */\n  0x01\n    /* \"OnDemo/contracts/AccountManagement.sol\":3289:3316  _role == Role.COUNCILMEMBER */\n  0x03\n  dup2\n  gt\n  iszero\n  tag_38\n  jumpi\n  mstore(0x00, 0x4e487b7100000000000000000000000000000000000000000000000000000000)\n  mstore(0x04, 0x21)\n  revert(0x00, 0x24)\ntag_38:\n    /* \"OnDemo/contracts/AccountManagement.sol\":3289:3294  _role */\n  dup5\n    /* \"OnDemo/contracts/AccountManagement.sol\":3289:3316  _role == Role.COUNCILMEMBER */\n  0x03\n  dup2\n  gt\n  iszero\n  tag_39\n  jumpi\n  mstore(0x00, 0x4e487b7100000000000000000000000000000000000000000000000000000000)\n  mstore(0x04, 0x21)\n  revert(0x00, 0x24)\ntag_39:\n  eq\n    /* \"OnDemo/contracts/AccountManagement.sol\":3286:3557  if(_role == Role.COUNCILMEMBER){\r... */\n  iszero\n  tag_40\n  jumpi\n    /* \"OnDemo/contracts/AccountManagement.sol\":3358:3362  true */\n  0x01\n    /* \"OnDemo/contracts/AccountManagement.sol\":3332:3339  roleMap */\n  dup2\n    /* \"OnDemo/contracts/AccountManagement.sol\":3332:3355  roleMap.isCouncilMember */\n  0x00\n  add\n  0x01\n    /* \"OnDemo/contracts/AccountManagement.sol\":3332:3362  roleMap.isCouncilMember = true */\n  0x0100\n  exp\n  dup2\n  sload\n  dup2\n  0xff\n  mul\n  not\n  and\n  swap1\n  dup4\n  iszero\n  iszero\n  mul\n  or\n  swap1\n  sstore\n  pop\n    /* \"OnDemo/contracts/AccountManagement.sol\":3286:3557  if(_role == Role.COUNCILMEMBER){\r... */\n  jump(tag_41)\ntag_40:\n    /* \"OnDemo/contracts/AccountManagement.sol\":3408:3419  Role.MEMBER */\n  0x02\n    /* \"OnDemo/contracts/AccountManagement.sol\":3399:3419  _role == Role.MEMBER */\n  0x03\n  dup2\n  gt\n  iszero\n  tag_42\n  jumpi\n  mstore(0x00, 0x4e487b7100000000000000000000000000000000000000000000000000000000)\n  mstore(0x04, 0x21)\n  revert(0x00, 0x24)\ntag_42:\n    /* \"OnDemo/contracts/AccountManagement.sol\":3399:3404  _role */\n  dup5\n    /* \"OnDemo/contracts/AccountManagement.sol\":3399:3419  _role == Role.MEMBER */\n  0x03\n  dup2\n  gt\n  iszero\n  tag_43\n  jumpi\n  mstore(0x00, 0x4e487b7100000000000000000000000000000000000000000000000000000000)\n  mstore(0x04, 0x21)\n  revert(0x00, 0x24)\ntag_43:\n  eq\n    /* \"OnDemo/contracts/AccountManagement.sol\":3396:3557  if(_role == Role.MEMBER){\r... */\n  iszero\n  tag_44\n  jumpi\n    /* \"OnDemo/contracts/AccountManagement.sol\":3454:3458  true */\n  0x01\n    /* \"OnDemo/contracts/AccountManagement.sol\":3435:3442  roleMap */\n  dup2\n    /* \"OnDemo/contracts/AccountManagement.sol\":3435:3451  roleMap.isMember */\n  0x00\n  add\n  0x02\n    /* \"OnDemo/contracts/AccountManagement.sol\":3435:3458  roleMap.isMember = true */\n  0x0100\n  exp\n  dup2\n  sload\n  dup2\n  0xff\n  mul\n  not\n  and\n  swap1\n  dup4\n  iszero\n  iszero\n  mul\n  or\n  swap1\n  sstore\n  pop\n    /* \"OnDemo/contracts/AccountManagement.sol\":3396:3557  if(_role == Role.MEMBER){\r... */\n  jump(tag_45)\ntag_44:\n    /* \"OnDemo/contracts/AccountManagement.sol\":3497:3507  Role.GUEST */\n  0x03\n    /* \"OnDemo/contracts/AccountManagement.sol\":3488:3507  _role == Role.GUEST */\n  dup1\n  dup2\n  gt\n  iszero\n  tag_46\n  jumpi\n  mstore(0x00, 0x4e487b7100000000000000000000000000000000000000000000000000000000)\n  mstore(0x04, 0x21)\n  revert(0x00, 0x24)\ntag_46:\n    /* \"OnDemo/contracts/AccountManagement.sol\":3488:3493  _role */\n  dup5\n    /* \"OnDemo/contracts/AccountManagement.sol\":3488:3507  _role == Role.GUEST */\n  0x03\n  dup2\n  gt\n  iszero\n  tag_47\n  jumpi\n  mstore(0x00, 0x4e487b7100000000000000000000000000000000000000000000000000000000)\n  mstore(0x04, 0x21)\n  revert(0x00, 0x24)\ntag_47:\n  eq\n    /* \"OnDemo/contracts/AccountManagement.sol\":3485:3557  if(_role == Role.GUEST){\r... */\n  iszero\n  tag_48\n  jumpi\n    /* \"OnDemo/contracts/AccountManagement.sol\":3541:3545  true */\n  0x01\n    /* \"OnDemo/contracts/AccountManagement.sol\":3523:3530  roleMap */\n  dup2\n    /* \"OnDemo/contracts/AccountManagement.sol\":3523:3538  roleMap.isGuest */\n  0x00\n  add\n  0x03\n    /* \"OnDemo/contracts/AccountManagement.sol\":3523:3545  roleMap.isGuest = true */\n  0x0100\n  exp\n  dup2\n  sload\n  dup2\n  0xff\n  mul\n  not\n  and\n  swap1\n  dup4\n  iszero\n  iszero\n  mul\n  or\n  swap1\n  sstore\n  pop\n    /* \"OnDemo/contracts/AccountManagement.sol\":3485:3557  if(_role == Role.GUEST){\r... */\ntag_48:\n    /* \"OnDemo/contracts/AccountManagement.sol\":3396:3557  if(_role == Role.MEMBER){\r... */\ntag_45:\n    /* \"OnDemo/contracts/AccountManagement.sol\":3286:3557  if(_role == Role.COUNCILMEMBER){\r... */\ntag_41:\n    /* \"OnDemo/contracts/AccountManagement.sol\":3197:3557  if(_role == Role.LEADER){\r... */\ntag_37:\n    /* \"OnDemo/contracts/AccountManagement.sol\":1622:1623  _ */\n  pop\n  pop\n    /* \"OnDemo/contracts/AccountManagement.sol\":1471:1472  _ */\n  pop\n    /* \"OnDemo/contracts/AccountManagement.sol\":3001:3564  function assignRole(address _address, Role _role) public onlyLeader userExists(_address){\r... */\n  pop\n  pop\n  jump\t// out\n    /* \"OnDemo/contracts/AccountManagement.sol\":3572:4351  function removeRole(address _address, Role _role) public onlyLeader userExists(_address){\r... */\ntag_11:\n    /* \"OnDemo/contracts/AccountManagement.sol\":1387:1392  owner */\n  0x00\n  dup1\n  sload\n  swap1\n  0x0100\n  exp\n  swap1\n  div\n  0xffffffffffffffffffffffffffffffffffffffff\n  and\n    /* \"OnDemo/contracts/AccountManagement.sol\":1373:1392  msg.sender == owner */\n  0xffffffffffffffffffffffffffffffffffffffff\n  and\n    /* \"OnDemo/contracts/AccountManagement.sol\":1373:1383  msg.sender */\n  caller\n    /* \"OnDemo/contracts/AccountManagement.sol\":1373:1392  msg.sender == owner */\n  0xffffffffffffffffffffffffffffffffffffffff\n  and\n  eq\n    /* \"OnDemo/contracts/AccountManagement.sol\":1373:1421  msg.sender == owner || hasLeaderRole(msg.sender) */\n  dup1\n  tag_50\n  jumpi\n  pop\n    /* \"OnDemo/contracts/AccountManagement.sol\":1396:1421  hasLeaderRole(msg.sender) */\n  tag_51\n    /* \"OnDemo/contracts/AccountManagement.sol\":1410:1420  msg.sender */\n  caller\n    /* \"OnDemo/contracts/AccountManagement.sol\":1396:1409  hasLeaderRole */\n  shl(0x20, tag_25)\n    /* \"OnDemo/contracts/AccountManagement.sol\":1396:1421  hasLeaderRole(msg.sender) */\n  0x20\n  shr\n  jump\t// in\ntag_51:\n    /* \"OnDemo/contracts/AccountManagement.sol\":1373:1421  msg.sender == owner || hasLeaderRole(msg.sender) */\ntag_50:\n    /* \"OnDemo/contracts/AccountManagement.sol\":1365:1460  require(msg.sender == owner || hasLeaderRole(msg.sender), \"Only owner can call this function.\") */\n  tag_52\n  jumpi\n  mload(0x40)\n  0x08c379a000000000000000000000000000000000000000000000000000000000\n  dup2\n  mstore\n  0x04\n  add\n  tag_53\n  swap1\n  tag_28\n  jump\t// in\ntag_53:\n  mload(0x40)\n  dup1\n  swap2\n  sub\n  swap1\n  revert\ntag_52:\n    /* \"OnDemo/contracts/AccountManagement.sol\":3651:3659  _address */\n  dup2\n    /* \"OnDemo/contracts/AccountManagement.sol\":1583:1584  0 */\n  0x00\n    /* \"OnDemo/contracts/AccountManagement.sol\":1544:1585  users[_address].userAddress != address(0) */\n  0xffffffffffffffffffffffffffffffffffffffff\n  and\n    /* \"OnDemo/contracts/AccountManagement.sol\":1544:1549  users */\n  0x01\n    /* \"OnDemo/contracts/AccountManagement.sol\":1544:1559  users[_address] */\n  0x00\n    /* \"OnDemo/contracts/AccountManagement.sol\":1550:1558  _address */\n  dup4\n    /* \"OnDemo/contracts/AccountManagement.sol\":1544:1559  users[_address] */\n  0xffffffffffffffffffffffffffffffffffffffff\n  and\n  0xffffffffffffffffffffffffffffffffffffffff\n  and\n  dup2\n  mstore\n  0x20\n  add\n  swap1\n  dup2\n  mstore\n  0x20\n  add\n  0x00\n  keccak256\n    /* \"OnDemo/contracts/AccountManagement.sol\":1544:1571  users[_address].userAddress */\n  0x00\n  add\n  0x00\n  swap1\n  sload\n  swap1\n  0x0100\n  exp\n  swap1\n  div\n  0xffffffffffffffffffffffffffffffffffffffff\n  and\n    /* \"OnDemo/contracts/AccountManagement.sol\":1544:1585  users[_address].userAddress != address(0) */\n  0xffffffffffffffffffffffffffffffffffffffff\n  and\n  eq\n  iszero\n    /* \"OnDemo/contracts/AccountManagement.sol\":1536:1611  require(users[_address].userAddress != address(0), \"Account doesn't exist\") */\n  tag_55\n  jumpi\n  mload(0x40)\n  0x08c379a000000000000000000000000000000000000000000000000000000000\n  dup2\n  mstore\n  0x04\n  add\n  tag_56\n  swap1\n  tag_32\n  jump\t// in\ntag_56:\n  mload(0x40)\n  dup1\n  swap2\n  sub\n  swap1\n  revert\ntag_55:\n    /* \"OnDemo/contracts/AccountManagement.sol\":3671:3688  User storage user */\n  0x00\n    /* \"OnDemo/contracts/AccountManagement.sol\":3691:3696  users */\n  0x01\n    /* \"OnDemo/contracts/AccountManagement.sol\":3691:3706  users[_address] */\n  0x00\n    /* \"OnDemo/contracts/AccountManagement.sol\":3697:3705  _address */\n  dup6\n    /* \"OnDemo/contracts/AccountManagement.sol\":3691:3706  users[_address] */\n  0xffffffffffffffffffffffffffffffffffffffff\n  and\n  0xffffffffffffffffffffffffffffffffffffffff\n  and\n  dup2\n  mstore\n  0x20\n  add\n  swap1\n  dup2\n  mstore\n  0x20\n  add\n  0x00\n  keccak256\n    /* \"OnDemo/contracts/AccountManagement.sol\":3671:3706  User storage user = users[_address] */\n  swap1\n  pop\n    /* \"OnDemo/contracts/AccountManagement.sol\":3717:3740  RoleMap storage roleMap */\n  0x00\n    /* \"OnDemo/contracts/AccountManagement.sol\":3743:3747  user */\n  dup2\n    /* \"OnDemo/contracts/AccountManagement.sol\":3743:3755  user.roleMap */\n  0x05\n  add\n    /* \"OnDemo/contracts/AccountManagement.sol\":3717:3755  RoleMap storage roleMap = user.roleMap */\n  swap1\n  pop\n    /* \"OnDemo/contracts/AccountManagement.sol\":3780:3791  Role.LEADER */\n  0x00\n    /* \"OnDemo/contracts/AccountManagement.sol\":3771:3791  _role == Role.LEADER */\n  0x03\n  dup2\n  gt\n  iszero\n  tag_58\n  jumpi\n  mstore(0x00, 0x4e487b7100000000000000000000000000000000000000000000000000000000)\n  mstore(0x04, 0x21)\n  revert(0x00, 0x24)\ntag_58:\n    /* \"OnDemo/contracts/AccountManagement.sol\":3771:3776  _role */\n  dup5\n    /* \"OnDemo/contracts/AccountManagement.sol\":3771:3791  _role == Role.LEADER */\n  0x03\n  dup2\n  gt\n  iszero\n  tag_59\n  jumpi\n  mstore(0x00, 0x4e487b7100000000000000000000000000000000000000000000000000000000)\n  mstore(0x04, 0x21)\n  revert(0x00, 0x24)\ntag_59:\n  eq\n    /* \"OnDemo/contracts/AccountManagement.sol\":3768:4144  if(_role == Role.LEADER){\r... */\n  iszero\n  tag_60\n  jumpi\n    /* \"OnDemo/contracts/AccountManagement.sol\":3826:3831  false */\n  0x00\n    /* \"OnDemo/contracts/AccountManagement.sol\":3807:3814  roleMap */\n  dup2\n    /* \"OnDemo/contracts/AccountManagement.sol\":3807:3823  roleMap.isLeader */\n  0x00\n  add\n  0x00\n    /* \"OnDemo/contracts/AccountManagement.sol\":3807:3831  roleMap.isLeader = false */\n  0x0100\n  exp\n  dup2\n  sload\n  dup2\n  0xff\n  mul\n  not\n  and\n  swap1\n  dup4\n  iszero\n  iszero\n  mul\n  or\n  swap1\n  sstore\n  pop\n    /* \"OnDemo/contracts/AccountManagement.sol\":3768:4144  if(_role == Role.LEADER){\r... */\n  jump(tag_61)\ntag_60:\n    /* \"OnDemo/contracts/AccountManagement.sol\":3870:3888  Role.COUNCILMEMBER */\n  0x01\n    /* \"OnDemo/contracts/AccountManagement.sol\":3861:3888  _role == Role.COUNCILMEMBER */\n  0x03\n  dup2\n  gt\n  iszero\n  tag_62\n  jumpi\n  mstore(0x00, 0x4e487b7100000000000000000000000000000000000000000000000000000000)\n  mstore(0x04, 0x21)\n  revert(0x00, 0x24)\ntag_62:\n    /* \"OnDemo/contracts/AccountManagement.sol\":3861:3866  _role */\n  dup5\n    /* \"OnDemo/contracts/AccountManagement.sol\":3861:3888  _role == Role.COUNCILMEMBER */\n  0x03\n  dup2\n  gt\n  iszero\n  tag_63\n  jumpi\n  mstore(0x00, 0x4e487b7100000000000000000000000000000000000000000000000000000000)\n  mstore(0x04, 0x21)\n  revert(0x00, 0x24)\ntag_63:\n  eq\n    /* \"OnDemo/contracts/AccountManagement.sol\":3858:4144  if(_role == Role.COUNCILMEMBER){\r... */\n  iszero\n  tag_64\n  jumpi\n    /* \"OnDemo/contracts/AccountManagement.sol\":3930:3935  false */\n  0x00\n    /* \"OnDemo/contracts/AccountManagement.sol\":3904:3911  roleMap */\n  dup2\n    /* \"OnDemo/contracts/AccountManagement.sol\":3904:3927  roleMap.isCouncilMember */\n  0x00\n  add\n  0x01\n    /* \"OnDemo/contracts/AccountManagement.sol\":3904:3935  roleMap.isCouncilMember = false */\n  0x0100\n  exp\n  dup2\n  sload\n  dup2\n  0xff\n  mul\n  not\n  and\n  swap1\n  dup4\n  iszero\n  iszero\n  mul\n  or\n  swap1\n  sstore\n  pop\n    /* \"OnDemo/contracts/AccountManagement.sol\":3858:4144  if(_role == Role.COUNCILMEMBER){\r... */\n  jump(tag_65)\ntag_64:\n    /* \"OnDemo/contracts/AccountManagement.sol\":3981:3992  Role.MEMBER */\n  0x02\n    /* \"OnDemo/contracts/AccountManagement.sol\":3972:3992  _role == Role.MEMBER */\n  0x03\n  dup2\n  gt\n  iszero\n  tag_66\n  jumpi\n  mstore(0x00, 0x4e487b7100000000000000000000000000000000000000000000000000000000)\n  mstore(0x04, 0x21)\n  revert(0x00, 0x24)\ntag_66:\n    /* \"OnDemo/contracts/AccountManagement.sol\":3972:3977  _role */\n  dup5\n    /* \"OnDemo/contracts/AccountManagement.sol\":3972:3992  _role == Role.MEMBER */\n  0x03\n  dup2\n  gt\n  iszero\n  tag_67\n  jumpi\n  mstore(0x00, 0x4e487b7100000000000000000000000000000000000000000000000000000000)\n  mstore(0x04, 0x21)\n  revert(0x00, 0x24)\ntag_67:\n  eq\n    /* \"OnDemo/contracts/AccountManagement.sol\":3969:4144  if(_role == Role.MEMBER){\r... */\n  iszero\n  tag_68\n  jumpi\n    /* \"OnDemo/contracts/AccountManagement.sol\":4027:4032  false */\n  0x00\n    /* \"OnDemo/contracts/AccountManagement.sol\":4008:4015  roleMap */\n  dup2\n    /* \"OnDemo/contracts/AccountManagement.sol\":4008:4024  roleMap.isMember */\n  0x00\n  add\n  0x02\n    /* \"OnDemo/contracts/AccountManagement.sol\":4008:4032  roleMap.isMember = false */\n  0x0100\n  exp\n  dup2\n  sload\n  dup2\n  0xff\n  mul\n  not\n  and\n  swap1\n  dup4\n  iszero\n  iszero\n  mul\n  or\n  swap1\n  sstore\n  pop\n    /* \"OnDemo/contracts/AccountManagement.sol\":3969:4144  if(_role == Role.MEMBER){\r... */\n  jump(tag_69)\ntag_68:\n    /* \"OnDemo/contracts/AccountManagement.sol\":4071:4081  Role.GUEST */\n  0x03\n    /* \"OnDemo/contracts/AccountManagement.sol\":4062:4081  _role == Role.GUEST */\n  dup1\n  dup2\n  gt\n  iszero\n  tag_70\n  jumpi\n  mstore(0x00, 0x4e487b7100000000000000000000000000000000000000000000000000000000)\n  mstore(0x04, 0x21)\n  revert(0x00, 0x24)\ntag_70:\n    /* \"OnDemo/contracts/AccountManagement.sol\":4062:4067  _role */\n  dup5\n    /* \"OnDemo/contracts/AccountManagement.sol\":4062:4081  _role == Role.GUEST */\n  0x03\n  dup2\n  gt\n  iszero\n  tag_71\n  jumpi\n  mstore(0x00, 0x4e487b7100000000000000000000000000000000000000000000000000000000)\n  mstore(0x04, 0x21)\n  revert(0x00, 0x24)\ntag_71:\n  eq\n    /* \"OnDemo/contracts/AccountManagement.sol\":4059:4144  if(_role == Role.GUEST){\r... */\n  iszero\n  tag_72\n  jumpi\n    /* \"OnDemo/contracts/AccountManagement.sol\":4115:4120  false */\n  0x00\n    /* \"OnDemo/contracts/AccountManagement.sol\":4097:4104  roleMap */\n  dup2\n    /* \"OnDemo/contracts/AccountManagement.sol\":4097:4112  roleMap.isGuest */\n  0x00\n  add\n  0x03\n    /* \"OnDemo/contracts/AccountManagement.sol\":4097:4120  roleMap.isGuest = false */\n  0x0100\n  exp\n  dup2\n  sload\n  dup2\n  0xff\n  mul\n  not\n  and\n  swap1\n  dup4\n  iszero\n  iszero\n  mul\n  or\n  swap1\n  sstore\n  pop\n    /* \"OnDemo/contracts/AccountManagement.sol\":4059:4144  if(_role == Role.GUEST){\r... */\ntag_72:\n    /* \"OnDemo/contracts/AccountManagement.sol\":3969:4144  if(_role == Role.MEMBER){\r... */\ntag_69:\n    /* \"OnDemo/contracts/AccountManagement.sol\":3858:4144  if(_role == Role.COUNCILMEMBER){\r... */\ntag_65:\n    /* \"OnDemo/contracts/AccountManagement.sol\":3768:4144  if(_role == Role.LEADER){\r... */\ntag_61:\n    /* \"OnDemo/contracts/AccountManagement.sol\":4160:4167  roleMap */\n  dup1\n    /* \"OnDemo/contracts/AccountManagement.sol\":4160:4176  roleMap.isLeader */\n  0x00\n  add\n  0x00\n  swap1\n  sload\n  swap1\n  0x0100\n  exp\n  swap1\n  div\n  0xff\n  and\n    /* \"OnDemo/contracts/AccountManagement.sol\":4159:4176  !roleMap.isLeader */\n  iszero\n    /* \"OnDemo/contracts/AccountManagement.sol\":4159:4204  !roleMap.isLeader && !roleMap.isCouncilMember */\n  dup1\n  iszero\n  tag_73\n  jumpi\n  pop\n    /* \"OnDemo/contracts/AccountManagement.sol\":4181:4188  roleMap */\n  dup1\n    /* \"OnDemo/contracts/AccountManagement.sol\":4181:4204  roleMap.isCouncilMember */\n  0x00\n  add\n  0x01\n  swap1\n  sload\n  swap1\n  0x0100\n  exp\n  swap1\n  div\n  0xff\n  and\n    /* \"OnDemo/contracts/AccountManagement.sol\":4180:4204  !roleMap.isCouncilMember */\n  iszero\n    /* \"OnDemo/contracts/AccountManagement.sol\":4159:4204  !roleMap.isLeader && !roleMap.isCouncilMember */\ntag_73:\n    /* \"OnDemo/contracts/AccountManagement.sol\":4159:4225  !roleMap.isLeader && !roleMap.isCouncilMember && !roleMap.isMember */\n  dup1\n  iszero\n  tag_74\n  jumpi\n  pop\n    /* \"OnDemo/contracts/AccountManagement.sol\":4209:4216  roleMap */\n  dup1\n    /* \"OnDemo/contracts/AccountManagement.sol\":4209:4225  roleMap.isMember */\n  0x00\n  add\n  0x02\n  swap1\n  sload\n  swap1\n  0x0100\n  exp\n  swap1\n  div\n  0xff\n  and\n    /* \"OnDemo/contracts/AccountManagement.sol\":4208:4225  !roleMap.isMember */\n  iszero\n    /* \"OnDemo/contracts/AccountManagement.sol\":4159:4225  !roleMap.isLeader && !roleMap.isCouncilMember && !roleMap.isMember */\ntag_74:\n    /* \"OnDemo/contracts/AccountManagement.sol\":4156:4344  if(!roleMap.isLeader && !roleMap.isCouncilMember && !roleMap.isMember)\r... */\n  iszero\n  tag_75\n  jumpi\n    /* \"OnDemo/contracts/AccountManagement.sol\":4327:4332  false */\n  0x00\n    /* \"OnDemo/contracts/AccountManagement.sol\":4301:4314  activeMembers */\n  0x02\n    /* \"OnDemo/contracts/AccountManagement.sol\":4301:4324  activeMembers[_address] */\n  0x00\n    /* \"OnDemo/contracts/AccountManagement.sol\":4315:4323  _address */\n  dup8\n    /* \"OnDemo/contracts/AccountManagement.sol\":4301:4324  activeMembers[_address] */\n  0xffffffffffffffffffffffffffffffffffffffff\n  and\n  0xffffffffffffffffffffffffffffffffffffffff\n  and\n  dup2\n  mstore\n  0x20\n  add\n  swap1\n  dup2\n  mstore\n  0x20\n  add\n  0x00\n  keccak256\n  0x00\n    /* \"OnDemo/contracts/AccountManagement.sol\":4301:4332  activeMembers[_address] = false */\n  0x0100\n  exp\n  dup2\n  sload\n  dup2\n  0xff\n  mul\n  not\n  and\n  swap1\n  dup4\n  iszero\n  iszero\n  mul\n  or\n  swap1\n  sstore\n  pop\n    /* \"OnDemo/contracts/AccountManagement.sol\":4156:4344  if(!roleMap.isLeader && !roleMap.isCouncilMember && !roleMap.isMember)\r... */\ntag_75:\n    /* \"OnDemo/contracts/AccountManagement.sol\":1622:1623  _ */\n  pop\n  pop\n    /* \"OnDemo/contracts/AccountManagement.sol\":1471:1472  _ */\n  pop\n    /* \"OnDemo/contracts/AccountManagement.sol\":3572:4351  function removeRole(address _address, Role _role) public onlyLeader userExists(_address){\r... */\n  pop\n  pop\n  jump\t// out\n    /* \"OnDemo/contracts/AccountManagement.sol\":6181:6305  function hasLeaderRole(address _address) public view returns (bool) {\r... */\ntag_25:\n    /* \"OnDemo/contracts/AccountManagement.sol\":6243:6247  bool */\n  0x00\n    /* \"OnDemo/contracts/AccountManagement.sol\":6267:6297  hasRole(_address, Role.LEADER) */\n  tag_77\n    /* \"OnDemo/contracts/AccountManagement.sol\":6275:6283  _address */\n  dup3\n    /* \"OnDemo/contracts/AccountManagement.sol\":6285:6296  Role.LEADER */\n  0x00\n    /* \"OnDemo/contracts/AccountManagement.sol\":6267:6274  hasRole */\n  shl(0x20, tag_78)\n    /* \"OnDemo/contracts/AccountManagement.sol\":6267:6297  hasRole(_address, Role.LEADER) */\n  0x20\n  shr\n  jump\t// in\ntag_77:\n    /* \"OnDemo/contracts/AccountManagement.sol\":6260:6297  return hasRole(_address, Role.LEADER) */\n  swap1\n  pop\n    /* \"OnDemo/contracts/AccountManagement.sol\":6181:6305  function hasLeaderRole(address _address) public view returns (bool) {\r... */\n  swap2\n  swap1\n  pop\n  jump\t// out\n    /* \"OnDemo/contracts/AccountManagement.sol\":5599:6169  function hasRole(address _address, Role _role) private view returns (bool){\r... */\ntag_78:\n    /* \"OnDemo/contracts/AccountManagement.sol\":5668:5672  bool */\n  0x00\n    /* \"OnDemo/contracts/AccountManagement.sol\":5684:5700  User memory user */\n  dup1\n    /* \"OnDemo/contracts/AccountManagement.sol\":5703:5708  users */\n  0x01\n    /* \"OnDemo/contracts/AccountManagement.sol\":5703:5718  users[_address] */\n  0x00\n    /* \"OnDemo/contracts/AccountManagement.sol\":5709:5717  _address */\n  dup6\n    /* \"OnDemo/contracts/AccountManagement.sol\":5703:5718  users[_address] */\n  0xffffffffffffffffffffffffffffffffffffffff\n  and\n  0xffffffffffffffffffffffffffffffffffffffff\n  and\n  dup2\n  mstore\n  0x20\n  add\n  swap1\n  dup2\n  mstore\n  0x20\n  add\n  0x00\n  keccak256\n    /* \"OnDemo/contracts/AccountManagement.sol\":5684:5718  User memory user = users[_address] */\n  mload(0x40)\n  dup1\n  0xc0\n  add\n  0x40\n  mstore\n  swap1\n  dup2\n  0x00\n  dup3\n  add\n  0x00\n  swap1\n  sload\n  swap1\n  0x0100\n  exp\n  swap1\n  div\n  0xffffffffffffffffffffffffffffffffffffffff\n  and\n  0xffffffffffffffffffffffffffffffffffffffff\n  and\n  0xffffffffffffffffffffffffffffffffffffffff\n  and\n  dup2\n  mstore\n  0x20\n  add\n  0x01\n  dup3\n  add\n  dup1\n  sload\n  tag_80\n  swap1\n  tag_81\n  jump\t// in\ntag_80:\n  dup1\n  0x1f\n  add\n  0x20\n  dup1\n  swap2\n  div\n  mul\n  0x20\n  add\n  mload(0x40)\n  swap1\n  dup2\n  add\n  0x40\n  mstore\n  dup1\n  swap3\n  swap2\n  swap1\n  dup2\n  dup2\n  mstore\n  0x20\n  add\n  dup3\n  dup1\n  sload\n  tag_82\n  swap1\n  tag_81\n  jump\t// in\ntag_82:\n  dup1\n  iszero\n  tag_83\n  jumpi\n  dup1\n  0x1f\n  lt\n  tag_84\n  jumpi\n  0x0100\n  dup1\n  dup4\n  sload\n  div\n  mul\n  dup4\n  mstore\n  swap2\n  0x20\n  add\n  swap2\n  jump(tag_83)\ntag_84:\n  dup3\n  add\n  swap2\n  swap1\n  0x00\n  mstore\n  keccak256(0x00, 0x20)\n  swap1\ntag_85:\n  dup2\n  sload\n  dup2\n  mstore\n  swap1\n  0x01\n  add\n  swap1\n  0x20\n  add\n  dup1\n  dup4\n  gt\n  tag_85\n  jumpi\n  dup3\n  swap1\n  sub\n  0x1f\n  and\n  dup3\n  add\n  swap2\ntag_83:\n  pop\n  pop\n  pop\n  pop\n  pop\n  dup2\n  mstore\n  0x20\n  add\n  0x02\n  dup3\n  add\n  dup1\n  sload\n  tag_86\n  swap1\n  tag_81\n  jump\t// in\ntag_86:\n  dup1\n  0x1f\n  add\n  0x20\n  dup1\n  swap2\n  div\n  mul\n  0x20\n  add\n  mload(0x40)\n  swap1\n  dup2\n  add\n  0x40\n  mstore\n  dup1\n  swap3\n  swap2\n  swap1\n  dup2\n  dup2\n  mstore\n  0x20\n  add\n  dup3\n  dup1\n  sload\n  tag_87\n  swap1\n  tag_81\n  jump\t// in\ntag_87:\n  dup1\n  iszero\n  tag_88\n  jumpi\n  dup1\n  0x1f\n  lt\n  tag_89\n  jumpi\n  0x0100\n  dup1\n  dup4\n  sload\n  div\n  mul\n  dup4\n  mstore\n  swap2\n  0x20\n  add\n  swap2\n  jump(tag_88)\ntag_89:\n  dup3\n  add\n  swap2\n  swap1\n  0x00\n  mstore\n  keccak256(0x00, 0x20)\n  swap1\ntag_90:\n  dup2\n  sload\n  dup2\n  mstore\n  swap1\n  0x01\n  add\n  swap1\n  0x20\n  add\n  dup1\n  dup4\n  gt\n  tag_90\n  jumpi\n  dup3\n  swap1\n  sub\n  0x1f\n  and\n  dup3\n  add\n  swap2\ntag_88:\n  pop\n  pop\n  pop\n  pop\n  pop\n  dup2\n  mstore\n  0x20\n  add\n  0x03\n  dup3\n  add\n  dup1\n  sload\n  tag_91\n  swap1\n  tag_81\n  jump\t// in\ntag_91:\n  dup1\n  0x1f\n  add\n  0x20\n  dup1\n  swap2\n  div\n  mul\n  0x20\n  add\n  mload(0x40)\n  swap1\n  dup2\n  add\n  0x40\n  mstore\n  dup1\n  swap3\n  swap2\n  swap1\n  dup2\n  dup2\n  mstore\n  0x20\n  add\n  dup3\n  dup1\n  sload\n  tag_92\n  swap1\n  tag_81\n  jump\t// in\ntag_92:\n  dup1\n  iszero\n  tag_93\n  jumpi\n  dup1\n  0x1f\n  lt\n  tag_94\n  jumpi\n  0x0100\n  dup1\n  dup4\n  sload\n  div\n  mul\n  dup4\n  mstore\n  swap2\n  0x20\n  add\n  swap2\n  jump(tag_93)\ntag_94:\n  dup3\n  add\n  swap2\n  swap1\n  0x00\n  mstore\n  keccak256(0x00, 0x20)\n  swap1\ntag_95:\n  dup2\n  sload\n  dup2\n  mstore\n  swap1\n  0x01\n  add\n  swap1\n  0x20\n  add\n  dup1\n  dup4\n  gt\n  tag_95\n  jumpi\n  dup3\n  swap1\n  sub\n  0x1f\n  and\n  dup3\n  add\n  swap2\ntag_93:\n  pop\n  pop\n  pop\n  pop\n  pop\n  dup2\n  mstore\n  0x20\n  add\n  0x04\n  dup3\n  add\n  0x00\n  swap1\n  sload\n  swap1\n  0x0100\n  exp\n  swap1\n  div\n  0xff\n  and\n  iszero\n  iszero\n  iszero\n  iszero\n  dup2\n  mstore\n  0x20\n  add\n  0x05\n  dup3\n  add\n  mload(0x40)\n  dup1\n  0x80\n  add\n  0x40\n  mstore\n  swap1\n  dup2\n  0x00\n  dup3\n  add\n  0x00\n  swap1\n  sload\n  swap1\n  0x0100\n  exp\n  swap1\n  div\n  0xff\n  and\n  iszero\n  iszero\n  iszero\n  iszero\n  dup2\n  mstore\n  0x20\n  add\n  0x00\n  dup3\n  add\n  0x01\n  swap1\n  sload\n  swap1\n  0x0100\n  exp\n  swap1\n  div\n  0xff\n  and\n  iszero\n  iszero\n  iszero\n  iszero\n  dup2\n  mstore\n  0x20\n  add\n  0x00\n  dup3\n  add\n  0x02\n  swap1\n  sload\n  swap1\n  0x0100\n  exp\n  swap1\n  div\n  0xff\n  and\n  iszero\n  iszero\n  iszero\n  iszero\n  dup2\n  mstore\n  0x20\n  add\n  0x00\n  dup3\n  add\n  0x03\n  swap1\n  sload\n  swap1\n  0x0100\n  exp\n  swap1\n  div\n  0xff\n  and\n  iszero\n  iszero\n  iszero\n  iszero\n  dup2\n  mstore\n  pop\n  pop\n  dup2\n  mstore\n  pop\n  pop\n  swap1\n  pop\n    /* \"OnDemo/contracts/AccountManagement.sol\":5729:5751  RoleMap memory roleMap */\n  0x00\n    /* \"OnDemo/contracts/AccountManagement.sol\":5754:5758  user */\n  dup2\n    /* \"OnDemo/contracts/AccountManagement.sol\":5754:5766  user.roleMap */\n  0xa0\n  add\n  mload\n    /* \"OnDemo/contracts/AccountManagement.sol\":5729:5766  RoleMap memory roleMap = user.roleMap */\n  swap1\n  pop\n    /* \"OnDemo/contracts/AccountManagement.sol\":5791:5802  Role.LEADER */\n  0x00\n    /* \"OnDemo/contracts/AccountManagement.sol\":5782:5802  _role == Role.LEADER */\n  0x03\n  dup2\n  gt\n  iszero\n  tag_96\n  jumpi\n  mstore(0x00, 0x4e487b7100000000000000000000000000000000000000000000000000000000)\n  mstore(0x04, 0x21)\n  revert(0x00, 0x24)\ntag_96:\n    /* \"OnDemo/contracts/AccountManagement.sol\":5782:5787  _role */\n  dup5\n    /* \"OnDemo/contracts/AccountManagement.sol\":5782:5802  _role == Role.LEADER */\n  0x03\n  dup2\n  gt\n  iszero\n  tag_97\n  jumpi\n  mstore(0x00, 0x4e487b7100000000000000000000000000000000000000000000000000000000)\n  mstore(0x04, 0x21)\n  revert(0x00, 0x24)\ntag_97:\n  eq\n    /* \"OnDemo/contracts/AccountManagement.sol\":5779:6139  if(_role == Role.LEADER){\r... */\n  iszero\n  tag_98\n  jumpi\n    /* \"OnDemo/contracts/AccountManagement.sol\":5825:5832  roleMap */\n  dup1\n    /* \"OnDemo/contracts/AccountManagement.sol\":5825:5841  roleMap.isLeader */\n  0x00\n  add\n  mload\n    /* \"OnDemo/contracts/AccountManagement.sol\":5818:5841  return roleMap.isLeader */\n  swap3\n  pop\n  pop\n  pop\n  jump(tag_79)\n    /* \"OnDemo/contracts/AccountManagement.sol\":5779:6139  if(_role == Role.LEADER){\r... */\ntag_98:\n    /* \"OnDemo/contracts/AccountManagement.sol\":5880:5898  Role.COUNCILMEMBER */\n  0x01\n    /* \"OnDemo/contracts/AccountManagement.sol\":5871:5898  _role == Role.COUNCILMEMBER */\n  0x03\n  dup2\n  gt\n  iszero\n  tag_100\n  jumpi\n  mstore(0x00, 0x4e487b7100000000000000000000000000000000000000000000000000000000)\n  mstore(0x04, 0x21)\n  revert(0x00, 0x24)\ntag_100:\n    /* \"OnDemo/contracts/AccountManagement.sol\":5871:5876  _role */\n  dup5\n    /* \"OnDemo/contracts/AccountManagement.sol\":5871:5898  _role == Role.COUNCILMEMBER */\n  0x03\n  dup2\n  gt\n  iszero\n  tag_101\n  jumpi\n  mstore(0x00, 0x4e487b7100000000000000000000000000000000000000000000000000000000)\n  mstore(0x04, 0x21)\n  revert(0x00, 0x24)\ntag_101:\n  eq\n    /* \"OnDemo/contracts/AccountManagement.sol\":5868:6139  if(_role == Role.COUNCILMEMBER){\r... */\n  iszero\n  tag_102\n  jumpi\n    /* \"OnDemo/contracts/AccountManagement.sol\":5921:5928  roleMap */\n  dup1\n    /* \"OnDemo/contracts/AccountManagement.sol\":5921:5944  roleMap.isCouncilMember */\n  0x20\n  add\n  mload\n    /* \"OnDemo/contracts/AccountManagement.sol\":5914:5944  return roleMap.isCouncilMember */\n  swap3\n  pop\n  pop\n  pop\n  jump(tag_79)\n    /* \"OnDemo/contracts/AccountManagement.sol\":5868:6139  if(_role == Role.COUNCILMEMBER){\r... */\ntag_102:\n    /* \"OnDemo/contracts/AccountManagement.sol\":5990:6001  Role.MEMBER */\n  0x02\n    /* \"OnDemo/contracts/AccountManagement.sol\":5981:6001  _role == Role.MEMBER */\n  0x03\n  dup2\n  gt\n  iszero\n  tag_104\n  jumpi\n  mstore(0x00, 0x4e487b7100000000000000000000000000000000000000000000000000000000)\n  mstore(0x04, 0x21)\n  revert(0x00, 0x24)\ntag_104:\n    /* \"OnDemo/contracts/AccountManagement.sol\":5981:5986  _role */\n  dup5\n    /* \"OnDemo/contracts/AccountManagement.sol\":5981:6001  _role == Role.MEMBER */\n  0x03\n  dup2\n  gt\n  iszero\n  tag_105\n  jumpi\n  mstore(0x00, 0x4e487b7100000000000000000000000000000000000000000000000000000000)\n  mstore(0x04, 0x21)\n  revert(0x00, 0x24)\ntag_105:\n  eq\n    /* \"OnDemo/contracts/AccountManagement.sol\":5978:6139  if(_role == Role.MEMBER){\r... */\n  iszero\n  tag_106\n  jumpi\n    /* \"OnDemo/contracts/AccountManagement.sol\":6024:6031  roleMap */\n  dup1\n    /* \"OnDemo/contracts/AccountManagement.sol\":6024:6040  roleMap.isMember */\n  0x40\n  add\n  mload\n    /* \"OnDemo/contracts/AccountManagement.sol\":6017:6040  return roleMap.isMember */\n  swap3\n  pop\n  pop\n  pop\n  jump(tag_79)\n    /* \"OnDemo/contracts/AccountManagement.sol\":5978:6139  if(_role == Role.MEMBER){\r... */\ntag_106:\n    /* \"OnDemo/contracts/AccountManagement.sol\":6079:6089  Role.GUEST */\n  0x03\n    /* \"OnDemo/contracts/AccountManagement.sol\":6070:6089  _role == Role.GUEST */\n  dup1\n  dup2\n  gt\n  iszero\n  tag_108\n  jumpi\n  mstore(0x00, 0x4e487b7100000000000000000000000000000000000000000000000000000000)\n  mstore(0x04, 0x21)\n  revert(0x00, 0x24)\ntag_108:\n    /* \"OnDemo/contracts/AccountManagement.sol\":6070:6075  _role */\n  dup5\n    /* \"OnDemo/contracts/AccountManagement.sol\":6070:6089  _role == Role.GUEST */\n  0x03\n  dup2\n  gt\n  iszero\n  tag_109\n  jumpi\n  mstore(0x00, 0x4e487b7100000000000000000000000000000000000000000000000000000000)\n  mstore(0x04, 0x21)\n  revert(0x00, 0x24)\ntag_109:\n  eq\n    /* \"OnDemo/contracts/AccountManagement.sol\":6067:6139  if(_role == Role.GUEST){\r... */\n  iszero\n  tag_110\n  jumpi\n    /* \"OnDemo/contracts/AccountManagement.sol\":6112:6119  roleMap */\n  dup1\n    /* \"OnDemo/contracts/AccountManagement.sol\":6112:6127  roleMap.isGuest */\n  0x60\n  add\n  mload\n    /* \"OnDemo/contracts/AccountManagement.sol\":6105:6127  return roleMap.isGuest */\n  swap3\n  pop\n  pop\n  pop\n  jump(tag_79)\n    /* \"OnDemo/contracts/AccountManagement.sol\":6067:6139  if(_role == Role.GUEST){\r... */\ntag_110:\n    /* \"OnDemo/contracts/AccountManagement.sol\":6156:6161  false */\n  0x00\n    /* \"OnDemo/contracts/AccountManagement.sol\":6149:6161  return false */\n  swap3\n  pop\n  pop\n  pop\n    /* \"OnDemo/contracts/AccountManagement.sol\":5599:6169  function hasRole(address _address, Role _role) private view returns (bool){\r... */\ntag_79:\n  swap3\n  swap2\n  pop\n  pop\n  jump\t// out\n    /* \"OnDemo/contracts/AccountManagement.sol\":74:7923  contract AccountManagement {\r... */\ntag_19:\n  dup3\n  dup1\n  sload\n  tag_111\n  swap1\n  tag_81\n  jump\t// in\ntag_111:\n  swap1\n  0x00\n  mstore\n  keccak256(0x00, 0x20)\n  swap1\n  0x1f\n  add\n  0x20\n  swap1\n  div\n  dup2\n  add\n  swap3\n  dup3\n  tag_113\n  jumpi\n  0x00\n  dup6\n  sstore\n  jump(tag_112)\ntag_113:\n  dup3\n  0x1f\n  lt\n  tag_114\n  jumpi\n  dup1\n  mload\n  not(0xff)\n  and\n  dup4\n  dup1\n  add\n  or\n  dup6\n  sstore\n  jump(tag_112)\ntag_114:\n  dup3\n  dup1\n  add\n  0x01\n  add\n  dup6\n  sstore\n  dup3\n  iszero\n  tag_112\n  jumpi\n  swap2\n  dup3\n  add\ntag_115:\n  dup3\n  dup2\n  gt\n  iszero\n  tag_116\n  jumpi\n  dup3\n  mload\n  dup3\n  sstore\n  swap2\n  0x20\n  add\n  swap2\n  swap1\n  0x01\n  add\n  swap1\n  jump(tag_115)\ntag_116:\ntag_112:\n  pop\n  swap1\n  pop\n  tag_117\n  swap2\n  swap1\n  tag_118\n  jump\t// in\ntag_117:\n  pop\n  swap1\n  jump\t// out\ntag_118:\ntag_119:\n  dup1\n  dup3\n  gt\n  iszero\n  tag_120\n  jumpi\n  0x00\n  dup2\n  0x00\n  swap1\n  sstore\n  pop\n  0x01\n  add\n  jump(tag_119)\ntag_120:\n  pop\n  swap1\n  jump\t// out\n    /* \"#utility.yul\":7:361   */\ntag_122:\n  0x00\n    /* \"#utility.yul\":121:187   */\n  tag_124\n    /* \"#utility.yul\":137:186   */\n  tag_125\n    /* \"#utility.yul\":179:185   */\n  dup5\n    /* \"#utility.yul\":137:186   */\n  tag_126\n  jump\t// in\ntag_125:\n    /* \"#utility.yul\":121:187   */\n  tag_127\n  jump\t// in\ntag_124:\n    /* \"#utility.yul\":112:187   */\n  swap1\n  pop\n    /* \"#utility.yul\":210:216   */\n  dup3\n    /* \"#utility.yul\":203:208   */\n  dup2\n    /* \"#utility.yul\":196:217   */\n  mstore\n    /* \"#utility.yul\":248:252   */\n  0x20\n    /* \"#utility.yul\":241:246   */\n  dup2\n    /* \"#utility.yul\":237:253   */\n  add\n    /* \"#utility.yul\":286:289   */\n  dup5\n    /* \"#utility.yul\":277:283   */\n  dup5\n    /* \"#utility.yul\":272:275   */\n  dup5\n    /* \"#utility.yul\":268:284   */\n  add\n    /* \"#utility.yul\":265:290   */\n  gt\n    /* \"#utility.yul\":262:264   */\n  iszero\n  tag_128\n  jumpi\n    /* \"#utility.yul\":303:304   */\n  0x00\n    /* \"#utility.yul\":300:301   */\n  dup1\n    /* \"#utility.yul\":293:305   */\n  revert\n    /* \"#utility.yul\":262:264   */\ntag_128:\n    /* \"#utility.yul\":316:355   */\n  tag_129\n    /* \"#utility.yul\":348:354   */\n  dup5\n    /* \"#utility.yul\":343:346   */\n  dup3\n    /* \"#utility.yul\":338:341   */\n  dup6\n    /* \"#utility.yul\":316:355   */\n  tag_130\n  jump\t// in\ntag_129:\n    /* \"#utility.yul\":102:361   */\n  pop\n  swap4\n  swap3\n  pop\n  pop\n  pop\n  jump\t// out\n    /* \"#utility.yul\":381:669   */\ntag_131:\n  0x00\n    /* \"#utility.yul\":497:500   */\n  dup3\n    /* \"#utility.yul\":490:494   */\n  0x1f\n    /* \"#utility.yul\":482:488   */\n  dup4\n    /* \"#utility.yul\":478:495   */\n  add\n    /* \"#utility.yul\":474:501   */\n  slt\n    /* \"#utility.yul\":464:466   */\n  tag_133\n  jumpi\n    /* \"#utility.yul\":515:516   */\n  0x00\n    /* \"#utility.yul\":512:513   */\n  dup1\n    /* \"#utility.yul\":505:517   */\n  revert\n    /* \"#utility.yul\":464:466   */\ntag_133:\n    /* \"#utility.yul\":548:554   */\n  dup2\n    /* \"#utility.yul\":542:555   */\n  mload\n    /* \"#utility.yul\":573:663   */\n  tag_134\n    /* \"#utility.yul\":659:662   */\n  dup5\n    /* \"#utility.yul\":651:657   */\n  dup3\n    /* \"#utility.yul\":644:648   */\n  0x20\n    /* \"#utility.yul\":636:642   */\n  dup7\n    /* \"#utility.yul\":632:649   */\n  add\n    /* \"#utility.yul\":573:663   */\n  tag_122\n  jump\t// in\ntag_134:\n    /* \"#utility.yul\":564:663   */\n  swap2\n  pop\n    /* \"#utility.yul\":454:669   */\n  pop\n  swap3\n  swap2\n  pop\n  pop\n  jump\t// out\n    /* \"#utility.yul\":675:1589   */\ntag_3:\n  0x00\n  dup1\n  0x00\n    /* \"#utility.yul\":858:860   */\n  0x60\n    /* \"#utility.yul\":846:855   */\n  dup5\n    /* \"#utility.yul\":837:844   */\n  dup7\n    /* \"#utility.yul\":833:856   */\n  sub\n    /* \"#utility.yul\":829:861   */\n  slt\n    /* \"#utility.yul\":826:828   */\n  iszero\n  tag_136\n  jumpi\n    /* \"#utility.yul\":874:875   */\n  0x00\n    /* \"#utility.yul\":871:872   */\n  dup1\n    /* \"#utility.yul\":864:876   */\n  revert\n    /* \"#utility.yul\":826:828   */\ntag_136:\n    /* \"#utility.yul\":938:939   */\n  0x00\n    /* \"#utility.yul\":927:936   */\n  dup5\n    /* \"#utility.yul\":923:940   */\n  add\n    /* \"#utility.yul\":917:941   */\n  mload\n    /* \"#utility.yul\":968:986   */\n  0xffffffffffffffff\n    /* \"#utility.yul\":960:966   */\n  dup2\n    /* \"#utility.yul\":957:987   */\n  gt\n    /* \"#utility.yul\":954:956   */\n  iszero\n  tag_137\n  jumpi\n    /* \"#utility.yul\":1000:1001   */\n  0x00\n    /* \"#utility.yul\":997:998   */\n  dup1\n    /* \"#utility.yul\":990:1002   */\n  revert\n    /* \"#utility.yul\":954:956   */\ntag_137:\n    /* \"#utility.yul\":1028:1102   */\n  tag_138\n    /* \"#utility.yul\":1094:1101   */\n  dup7\n    /* \"#utility.yul\":1085:1091   */\n  dup3\n    /* \"#utility.yul\":1074:1083   */\n  dup8\n    /* \"#utility.yul\":1070:1092   */\n  add\n    /* \"#utility.yul\":1028:1102   */\n  tag_131\n  jump\t// in\ntag_138:\n    /* \"#utility.yul\":1018:1102   */\n  swap4\n  pop\n    /* \"#utility.yul\":888:1112   */\n  pop\n    /* \"#utility.yul\":1172:1174   */\n  0x20\n    /* \"#utility.yul\":1161:1170   */\n  dup5\n    /* \"#utility.yul\":1157:1175   */\n  add\n    /* \"#utility.yul\":1151:1176   */\n  mload\n    /* \"#utility.yul\":1203:1221   */\n  0xffffffffffffffff\n    /* \"#utility.yul\":1195:1201   */\n  dup2\n    /* \"#utility.yul\":1192:1222   */\n  gt\n    /* \"#utility.yul\":1189:1191   */\n  iszero\n  tag_139\n  jumpi\n    /* \"#utility.yul\":1235:1236   */\n  0x00\n    /* \"#utility.yul\":1232:1233   */\n  dup1\n    /* \"#utility.yul\":1225:1237   */\n  revert\n    /* \"#utility.yul\":1189:1191   */\ntag_139:\n    /* \"#utility.yul\":1263:1337   */\n  tag_140\n    /* \"#utility.yul\":1329:1336   */\n  dup7\n    /* \"#utility.yul\":1320:1326   */\n  dup3\n    /* \"#utility.yul\":1309:1318   */\n  dup8\n    /* \"#utility.yul\":1305:1327   */\n  add\n    /* \"#utility.yul\":1263:1337   */\n  tag_131\n  jump\t// in\ntag_140:\n    /* \"#utility.yul\":1253:1337   */\n  swap3\n  pop\n    /* \"#utility.yul\":1122:1347   */\n  pop\n    /* \"#utility.yul\":1407:1409   */\n  0x40\n    /* \"#utility.yul\":1396:1405   */\n  dup5\n    /* \"#utility.yul\":1392:1410   */\n  add\n    /* \"#utility.yul\":1386:1411   */\n  mload\n    /* \"#utility.yul\":1438:1456   */\n  0xffffffffffffffff\n    /* \"#utility.yul\":1430:1436   */\n  dup2\n    /* \"#utility.yul\":1427:1457   */\n  gt\n    /* \"#utility.yul\":1424:1426   */\n  iszero\n  tag_141\n  jumpi\n    /* \"#utility.yul\":1470:1471   */\n  0x00\n    /* \"#utility.yul\":1467:1468   */\n  dup1\n    /* \"#utility.yul\":1460:1472   */\n  revert\n    /* \"#utility.yul\":1424:1426   */\ntag_141:\n    /* \"#utility.yul\":1498:1572   */\n  tag_142\n    /* \"#utility.yul\":1564:1571   */\n  dup7\n    /* \"#utility.yul\":1555:1561   */\n  dup3\n    /* \"#utility.yul\":1544:1553   */\n  dup8\n    /* \"#utility.yul\":1540:1562   */\n  add\n    /* \"#utility.yul\":1498:1572   */\n  tag_131\n  jump\t// in\ntag_142:\n    /* \"#utility.yul\":1488:1572   */\n  swap2\n  pop\n    /* \"#utility.yul\":1357:1582   */\n  pop\n    /* \"#utility.yul\":816:1589   */\n  swap3\n  pop\n  swap3\n  pop\n  swap3\n  jump\t// out\n    /* \"#utility.yul\":1595:1961   */\ntag_143:\n  0x00\n    /* \"#utility.yul\":1758:1825   */\n  tag_145\n    /* \"#utility.yul\":1822:1824   */\n  0x22\n    /* \"#utility.yul\":1817:1820   */\n  dup4\n    /* \"#utility.yul\":1758:1825   */\n  tag_146\n  jump\t// in\ntag_145:\n    /* \"#utility.yul\":1751:1825   */\n  swap2\n  pop\n    /* \"#utility.yul\":1834:1927   */\n  tag_147\n    /* \"#utility.yul\":1923:1926   */\n  dup3\n    /* \"#utility.yul\":1834:1927   */\n  tag_148\n  jump\t// in\ntag_147:\n    /* \"#utility.yul\":1952:1954   */\n  0x40\n    /* \"#utility.yul\":1947:1950   */\n  dup3\n    /* \"#utility.yul\":1943:1955   */\n  add\n    /* \"#utility.yul\":1936:1955   */\n  swap1\n  pop\n    /* \"#utility.yul\":1741:1961   */\n  swap2\n  swap1\n  pop\n  jump\t// out\n    /* \"#utility.yul\":1967:2333   */\ntag_149:\n  0x00\n    /* \"#utility.yul\":2130:2197   */\n  tag_151\n    /* \"#utility.yul\":2194:2196   */\n  0x15\n    /* \"#utility.yul\":2189:2192   */\n  dup4\n    /* \"#utility.yul\":2130:2197   */\n  tag_146\n  jump\t// in\ntag_151:\n    /* \"#utility.yul\":2123:2197   */\n  swap2\n  pop\n    /* \"#utility.yul\":2206:2299   */\n  tag_152\n    /* \"#utility.yul\":2295:2298   */\n  dup3\n    /* \"#utility.yul\":2206:2299   */\n  tag_153\n  jump\t// in\ntag_152:\n    /* \"#utility.yul\":2324:2326   */\n  0x20\n    /* \"#utility.yul\":2319:2322   */\n  dup3\n    /* \"#utility.yul\":2315:2327   */\n  add\n    /* \"#utility.yul\":2308:2327   */\n  swap1\n  pop\n    /* \"#utility.yul\":2113:2333   */\n  swap2\n  swap1\n  pop\n  jump\t// out\n    /* \"#utility.yul\":2339:2705   */\ntag_154:\n  0x00\n    /* \"#utility.yul\":2502:2569   */\n  tag_156\n    /* \"#utility.yul\":2566:2568   */\n  0x16\n    /* \"#utility.yul\":2561:2564   */\n  dup4\n    /* \"#utility.yul\":2502:2569   */\n  tag_146\n  jump\t// in\ntag_156:\n    /* \"#utility.yul\":2495:2569   */\n  swap2\n  pop\n    /* \"#utility.yul\":2578:2671   */\n  tag_157\n    /* \"#utility.yul\":2667:2670   */\n  dup3\n    /* \"#utility.yul\":2578:2671   */\n  tag_158\n  jump\t// in\ntag_157:\n    /* \"#utility.yul\":2696:2698   */\n  0x20\n    /* \"#utility.yul\":2691:2694   */\n  dup3\n    /* \"#utility.yul\":2687:2699   */\n  add\n    /* \"#utility.yul\":2680:2699   */\n  swap1\n  pop\n    /* \"#utility.yul\":2485:2705   */\n  swap2\n  swap1\n  pop\n  jump\t// out\n    /* \"#utility.yul\":2711:3130   */\ntag_28:\n  0x00\n    /* \"#utility.yul\":2915:2917   */\n  0x20\n    /* \"#utility.yul\":2904:2913   */\n  dup3\n    /* \"#utility.yul\":2900:2918   */\n  add\n    /* \"#utility.yul\":2892:2918   */\n  swap1\n  pop\n    /* \"#utility.yul\":2964:2973   */\n  dup2\n    /* \"#utility.yul\":2958:2962   */\n  dup2\n    /* \"#utility.yul\":2954:2974   */\n  sub\n    /* \"#utility.yul\":2950:2951   */\n  0x00\n    /* \"#utility.yul\":2939:2948   */\n  dup4\n    /* \"#utility.yul\":2935:2952   */\n  add\n    /* \"#utility.yul\":2928:2975   */\n  mstore\n    /* \"#utility.yul\":2992:3123   */\n  tag_160\n    /* \"#utility.yul\":3118:3122   */\n  dup2\n    /* \"#utility.yul\":2992:3123   */\n  tag_143\n  jump\t// in\ntag_160:\n    /* \"#utility.yul\":2984:3123   */\n  swap1\n  pop\n    /* \"#utility.yul\":2882:3130   */\n  swap2\n  swap1\n  pop\n  jump\t// out\n    /* \"#utility.yul\":3136:3555   */\ntag_32:\n  0x00\n    /* \"#utility.yul\":3340:3342   */\n  0x20\n    /* \"#utility.yul\":3329:3338   */\n  dup3\n    /* \"#utility.yul\":3325:3343   */\n  add\n    /* \"#utility.yul\":3317:3343   */\n  swap1\n  pop\n    /* \"#utility.yul\":3389:3398   */\n  dup2\n    /* \"#utility.yul\":3383:3387   */\n  dup2\n    /* \"#utility.yul\":3379:3399   */\n  sub\n    /* \"#utility.yul\":3375:3376   */\n  0x00\n    /* \"#utility.yul\":3364:3373   */\n  dup4\n    /* \"#utility.yul\":3360:3377   */\n  add\n    /* \"#utility.yul\":3353:3400   */\n  mstore\n    /* \"#utility.yul\":3417:3548   */\n  tag_162\n    /* \"#utility.yul\":3543:3547   */\n  dup2\n    /* \"#utility.yul\":3417:3548   */\n  tag_149\n  jump\t// in\ntag_162:\n    /* \"#utility.yul\":3409:3548   */\n  swap1\n  pop\n    /* \"#utility.yul\":3307:3555   */\n  swap2\n  swap1\n  pop\n  jump\t// out\n    /* \"#utility.yul\":3561:3980   */\ntag_16:\n  0x00\n    /* \"#utility.yul\":3765:3767   */\n  0x20\n    /* \"#utility.yul\":3754:3763   */\n  dup3\n    /* \"#utility.yul\":3750:3768   */\n  add\n    /* \"#utility.yul\":3742:3768   */\n  swap1\n  pop\n    /* \"#utility.yul\":3814:3823   */\n  dup2\n    /* \"#utility.yul\":3808:3812   */\n  dup2\n    /* \"#utility.yul\":3804:3824   */\n  sub\n    /* \"#utility.yul\":3800:3801   */\n  0x00\n    /* \"#utility.yul\":3789:3798   */\n  dup4\n    /* \"#utility.yul\":3785:3802   */\n  add\n    /* \"#utility.yul\":3778:3825   */\n  mstore\n    /* \"#utility.yul\":3842:3973   */\n  tag_164\n    /* \"#utility.yul\":3968:3972   */\n  dup2\n    /* \"#utility.yul\":3842:3973   */\n  tag_154\n  jump\t// in\ntag_164:\n    /* \"#utility.yul\":3834:3973   */\n  swap1\n  pop\n    /* \"#utility.yul\":3732:3980   */\n  swap2\n  swap1\n  pop\n  jump\t// out\n    /* \"#utility.yul\":3986:4115   */\ntag_127:\n  0x00\n    /* \"#utility.yul\":4047:4067   */\n  tag_166\n  tag_167\n  jump\t// in\ntag_166:\n    /* \"#utility.yul\":4037:4067   */\n  swap1\n  pop\n    /* \"#utility.yul\":4076:4109   */\n  tag_168\n    /* \"#utility.yul\":4104:4108   */\n  dup3\n    /* \"#utility.yul\":4096:4102   */\n  dup3\n    /* \"#utility.yul\":4076:4109   */\n  tag_169\n  jump\t// in\ntag_168:\n    /* \"#utility.yul\":4027:4115   */\n  swap2\n  swap1\n  pop\n  jump\t// out\n    /* \"#utility.yul\":4121:4196   */\ntag_167:\n  0x00\n    /* \"#utility.yul\":4187:4189   */\n  0x40\n    /* \"#utility.yul\":4181:4190   */\n  mload\n    /* \"#utility.yul\":4171:4190   */\n  swap1\n  pop\n    /* \"#utility.yul\":4161:4196   */\n  swap1\n  jump\t// out\n    /* \"#utility.yul\":4202:4510   */\ntag_126:\n  0x00\n    /* \"#utility.yul\":4354:4372   */\n  0xffffffffffffffff\n    /* \"#utility.yul\":4346:4352   */\n  dup3\n    /* \"#utility.yul\":4343:4373   */\n  gt\n    /* \"#utility.yul\":4340:4342   */\n  iszero\n  tag_172\n  jumpi\n    /* \"#utility.yul\":4376:4394   */\n  tag_173\n  tag_174\n  jump\t// in\ntag_173:\n    /* \"#utility.yul\":4340:4342   */\ntag_172:\n    /* \"#utility.yul\":4414:4443   */\n  tag_175\n    /* \"#utility.yul\":4436:4442   */\n  dup3\n    /* \"#utility.yul\":4414:4443   */\n  tag_176\n  jump\t// in\ntag_175:\n    /* \"#utility.yul\":4406:4443   */\n  swap1\n  pop\n    /* \"#utility.yul\":4498:4502   */\n  0x20\n    /* \"#utility.yul\":4492:4496   */\n  dup2\n    /* \"#utility.yul\":4488:4503   */\n  add\n    /* \"#utility.yul\":4480:4503   */\n  swap1\n  pop\n    /* \"#utility.yul\":4269:4510   */\n  swap2\n  swap1\n  pop\n  jump\t// out\n    /* \"#utility.yul\":4516:4685   */\ntag_146:\n  0x00\n    /* \"#utility.yul\":4634:4640   */\n  dup3\n    /* \"#utility.yul\":4629:4632   */\n  dup3\n    /* \"#utility.yul\":4622:4641   */\n  mstore\n    /* \"#utility.yul\":4674:4678   */\n  0x20\n    /* \"#utility.yul\":4669:4672   */\n  dup3\n    /* \"#utility.yul\":4665:4679   */\n  add\n    /* \"#utility.yul\":4650:4679   */\n  swap1\n  pop\n    /* \"#utility.yul\":4612:4685   */\n  swap3\n  swap2\n  pop\n  pop\n  jump\t// out\n    /* \"#utility.yul\":4691:4998   */\ntag_130:\n    /* \"#utility.yul\":4759:4760   */\n  0x00\n    /* \"#utility.yul\":4769:4882   */\ntag_179:\n    /* \"#utility.yul\":4783:4789   */\n  dup4\n    /* \"#utility.yul\":4780:4781   */\n  dup2\n    /* \"#utility.yul\":4777:4790   */\n  lt\n    /* \"#utility.yul\":4769:4882   */\n  iszero\n  tag_181\n  jumpi\n    /* \"#utility.yul\":4868:4869   */\n  dup1\n    /* \"#utility.yul\":4863:4866   */\n  dup3\n    /* \"#utility.yul\":4859:4870   */\n  add\n    /* \"#utility.yul\":4853:4871   */\n  mload\n    /* \"#utility.yul\":4849:4850   */\n  dup2\n    /* \"#utility.yul\":4844:4847   */\n  dup5\n    /* \"#utility.yul\":4840:4851   */\n  add\n    /* \"#utility.yul\":4833:4872   */\n  mstore\n    /* \"#utility.yul\":4805:4807   */\n  0x20\n    /* \"#utility.yul\":4802:4803   */\n  dup2\n    /* \"#utility.yul\":4798:4808   */\n  add\n    /* \"#utility.yul\":4793:4808   */\n  swap1\n  pop\n    /* \"#utility.yul\":4769:4882   */\n  jump(tag_179)\ntag_181:\n    /* \"#utility.yul\":4900:4906   */\n  dup4\n    /* \"#utility.yul\":4897:4898   */\n  dup2\n    /* \"#utility.yul\":4894:4907   */\n  gt\n    /* \"#utility.yul\":4891:4893   */\n  iszero\n  tag_182\n  jumpi\n    /* \"#utility.yul\":4980:4981   */\n  0x00\n    /* \"#utility.yul\":4971:4977   */\n  dup5\n    /* \"#utility.yul\":4966:4969   */\n  dup5\n    /* \"#utility.yul\":4962:4978   */\n  add\n    /* \"#utility.yul\":4955:4982   */\n  mstore\n    /* \"#utility.yul\":4891:4893   */\ntag_182:\n    /* \"#utility.yul\":4740:4998   */\n  pop\n  pop\n  pop\n  pop\n  jump\t// out\n    /* \"#utility.yul\":5004:5324   */\ntag_81:\n  0x00\n    /* \"#utility.yul\":5085:5086   */\n  0x02\n    /* \"#utility.yul\":5079:5083   */\n  dup3\n    /* \"#utility.yul\":5075:5087   */\n  div\n    /* \"#utility.yul\":5065:5087   */\n  swap1\n  pop\n    /* \"#utility.yul\":5132:5133   */\n  0x01\n    /* \"#utility.yul\":5126:5130   */\n  dup3\n    /* \"#utility.yul\":5122:5134   */\n  and\n    /* \"#utility.yul\":5153:5171   */\n  dup1\n    /* \"#utility.yul\":5143:5145   */\n  tag_184\n  jumpi\n    /* \"#utility.yul\":5209:5213   */\n  0x7f\n    /* \"#utility.yul\":5201:5207   */\n  dup3\n    /* \"#utility.yul\":5197:5214   */\n  and\n    /* \"#utility.yul\":5187:5214   */\n  swap2\n  pop\n    /* \"#utility.yul\":5143:5145   */\ntag_184:\n    /* \"#utility.yul\":5271:5273   */\n  0x20\n    /* \"#utility.yul\":5263:5269   */\n  dup3\n    /* \"#utility.yul\":5260:5274   */\n  lt\n    /* \"#utility.yul\":5240:5258   */\n  dup2\n    /* \"#utility.yul\":5237:5275   */\n  eq\n    /* \"#utility.yul\":5234:5236   */\n  iszero\n  tag_185\n  jumpi\n    /* \"#utility.yul\":5290:5308   */\n  tag_186\n  tag_187\n  jump\t// in\ntag_186:\n    /* \"#utility.yul\":5234:5236   */\ntag_185:\n    /* \"#utility.yul\":5055:5324   */\n  pop\n  swap2\n  swap1\n  pop\n  jump\t// out\n    /* \"#utility.yul\":5330:5611   */\ntag_169:\n    /* \"#utility.yul\":5413:5440   */\n  tag_189\n    /* \"#utility.yul\":5435:5439   */\n  dup3\n    /* \"#utility.yul\":5413:5440   */\n  tag_176\n  jump\t// in\ntag_189:\n    /* \"#utility.yul\":5405:5411   */\n  dup2\n    /* \"#utility.yul\":5401:5441   */\n  add\n    /* \"#utility.yul\":5543:5549   */\n  dup2\n    /* \"#utility.yul\":5531:5541   */\n  dup2\n    /* \"#utility.yul\":5528:5550   */\n  lt\n    /* \"#utility.yul\":5507:5525   */\n  0xffffffffffffffff\n    /* \"#utility.yul\":5495:5505   */\n  dup3\n    /* \"#utility.yul\":5492:5526   */\n  gt\n    /* \"#utility.yul\":5489:5551   */\n  or\n    /* \"#utility.yul\":5486:5488   */\n  iszero\n  tag_190\n  jumpi\n    /* \"#utility.yul\":5554:5572   */\n  tag_191\n  tag_174\n  jump\t// in\ntag_191:\n    /* \"#utility.yul\":5486:5488   */\ntag_190:\n    /* \"#utility.yul\":5594:5604   */\n  dup1\n    /* \"#utility.yul\":5590:5592   */\n  0x40\n    /* \"#utility.yul\":5583:5605   */\n  mstore\n    /* \"#utility.yul\":5373:5611   */\n  pop\n  pop\n  pop\n  jump\t// out\n    /* \"#utility.yul\":5617:5797   */\ntag_187:\n    /* \"#utility.yul\":5665:5742   */\n  0x4e487b7100000000000000000000000000000000000000000000000000000000\n    /* \"#utility.yul\":5662:5663   */\n  0x00\n    /* \"#utility.yul\":5655:5743   */\n  mstore\n    /* \"#utility.yul\":5762:5766   */\n  0x22\n    /* \"#utility.yul\":5759:5760   */\n  0x04\n    /* \"#utility.yul\":5752:5767   */\n  mstore\n    /* \"#utility.yul\":5786:5790   */\n  0x24\n    /* \"#utility.yul\":5783:5784   */\n  0x00\n    /* \"#utility.yul\":5776:5791   */\n  revert\n    /* \"#utility.yul\":5803:5983   */\ntag_174:\n    /* \"#utility.yul\":5851:5928   */\n  0x4e487b7100000000000000000000000000000000000000000000000000000000\n    /* \"#utility.yul\":5848:5849   */\n  0x00\n    /* \"#utility.yul\":5841:5929   */\n  mstore\n    /* \"#utility.yul\":5948:5952   */\n  0x41\n    /* \"#utility.yul\":5945:5946   */\n  0x04\n    /* \"#utility.yul\":5938:5953   */\n  mstore\n    /* \"#utility.yul\":5972:5976   */\n  0x24\n    /* \"#utility.yul\":5969:5970   */\n  0x00\n    /* \"#utility.yul\":5962:5977   */\n  revert\n    /* \"#utility.yul\":5989:6091   */\ntag_176:\n  0x00\n    /* \"#utility.yul\":6081:6083   */\n  0x1f\n    /* \"#utility.yul\":6077:6084   */\n  not\n    /* \"#utility.yul\":6072:6074   */\n  0x1f\n    /* \"#utility.yul\":6065:6070   */\n  dup4\n    /* \"#utility.yul\":6061:6075   */\n  add\n    /* \"#utility.yul\":6057:6085   */\n  and\n    /* \"#utility.yul\":6047:6085   */\n  swap1\n  pop\n    /* \"#utility.yul\":6037:6091   */\n  swap2\n  swap1\n  pop\n  jump\t// out\n    /* \"#utility.yul\":6097:6318   */\ntag_148:\n    /* \"#utility.yul\":6237:6271   */\n  0x4f6e6c79206f776e65722063616e2063616c6c20746869732066756e6374696f\n    /* \"#utility.yul\":6233:6234   */\n  0x00\n    /* \"#utility.yul\":6225:6231   */\n  dup3\n    /* \"#utility.yul\":6221:6235   */\n  add\n    /* \"#utility.yul\":6214:6272   */\n  mstore\n    /* \"#utility.yul\":6306:6310   */\n  0x6e2e000000000000000000000000000000000000000000000000000000000000\n    /* \"#utility.yul\":6301:6303   */\n  0x20\n    /* \"#utility.yul\":6293:6299   */\n  dup3\n    /* \"#utility.yul\":6289:6304   */\n  add\n    /* \"#utility.yul\":6282:6311   */\n  mstore\n    /* \"#utility.yul\":6203:6318   */\n  pop\n  jump\t// out\n    /* \"#utility.yul\":6324:6495   */\ntag_153:\n    /* \"#utility.yul\":6464:6487   */\n  0x4163636f756e7420646f65736e27742065786973740000000000000000000000\n    /* \"#utility.yul\":6460:6461   */\n  0x00\n    /* \"#utility.yul\":6452:6458   */\n  dup3\n    /* \"#utility.yul\":6448:6462   */\n  add\n    /* \"#utility.yul\":6441:6488   */\n  mstore\n    /* \"#utility.yul\":6430:6495   */\n  pop\n  jump\t// out\n    /* \"#utility.yul\":6501:6673   */\ntag_158:\n    /* \"#utility.yul\":6641:6665   */\n  0x4163636f756e7420616c72656164792065786973747300000000000000000000\n    /* \"#utility.yul\":6637:6638   */\n  0x00\n    /* \"#utility.yul\":6629:6635   */\n  dup3\n    /* \"#utility.yul\":6625:6639   */\n  add\n    /* \"#utility.yul\":6618:6666   */\n  mstore\n    /* \"#utility.yul\":6607:6673   */\n  pop\n  jump\t// out\n    /* \"OnDemo/contracts/AccountManagement.sol\":74:7923  contract AccountManagement {\r... */\ntag_12:\n  dataSize(sub_0)\n  dup1\n  dataOffset(sub_0)\n  0x00\n  codecopy\n  0x00\n  return\nstop\n\nsub_0: assembly {\n        /* \"OnDemo/contracts/AccountManagement.sol\":74:7923  contract AccountManagement {\r... */\n      mstore(0x40, 0x80)\n      callvalue\n      dup1\n      iszero\n      tag_1\n      jumpi\n      0x00\n      dup1\n      revert\n    tag_1:\n      pop\n      jumpi(tag_2, lt(calldatasize, 0x04))\n      shr(0xe0, calldataload(0x00))\n      dup1\n      0xa1aea04a\n      gt\n      tag_17\n      jumpi\n      dup1\n      0xd3a5059a\n      gt\n      tag_18\n      jumpi\n      dup1\n      0xd3a5059a\n      eq\n      tag_13\n      jumpi\n      dup1\n      0xdee94b4a\n      eq\n      tag_14\n      jumpi\n      dup1\n      0xe8621e59\n      eq\n      tag_15\n      jumpi\n      dup1\n      0xfa4d7aae\n      eq\n      tag_16\n      jumpi\n      jump(tag_2)\n    tag_18:\n      dup1\n      0xa1aea04a\n      eq\n      tag_10\n      jumpi\n      dup1\n      0xb74866fb\n      eq\n      tag_11\n      jumpi\n      dup1\n      0xc2b7d948\n      eq\n      tag_12\n      jumpi\n      jump(tag_2)\n    tag_17:\n      dup1\n      0x49587281\n      gt\n      tag_19\n      jumpi\n      dup1\n      0x49587281\n      eq\n      tag_6\n      jumpi\n      dup1\n      0x630a195b\n      eq\n      tag_7\n      jumpi\n      dup1\n      0x65c93769\n      eq\n      tag_8\n      jumpi\n      dup1\n      0x8da5cb5b\n      eq\n      tag_9\n      jumpi\n      jump(tag_2)\n    tag_19:\n      dup1\n      0x01eb0857\n      eq\n      tag_3\n      jumpi\n      dup1\n      0x056909b7\n      eq\n      tag_4\n      jumpi\n      dup1\n      0x297027d5\n      eq\n      tag_5\n      jumpi\n    tag_2:\n      0x00\n      dup1\n      revert\n        /* \"OnDemo/contracts/AccountManagement.sol\":6764:7151  function hasRightToCreateReferendum(address _address) external view returns (bool) {\r... */\n    tag_3:\n      tag_20\n      0x04\n      dup1\n      calldatasize\n      sub\n      dup2\n      add\n      swap1\n      tag_21\n      swap2\n      swap1\n      tag_22\n      jump\t// in\n    tag_21:\n      tag_23\n      jump\t// in\n    tag_20:\n      mload(0x40)\n      tag_24\n      swap2\n      swap1\n      tag_25\n      jump\t// in\n    tag_24:\n      mload(0x40)\n      dup1\n      swap2\n      sub\n      swap1\n      return\n        /* \"OnDemo/contracts/AccountManagement.sol\":6463:6587  function hasMemberRole(address _address) public view returns (bool) {\r... */\n    tag_4:\n      tag_26\n      0x04\n      dup1\n      calldatasize\n      sub\n      dup2\n      add\n      swap1\n      tag_27\n      swap2\n      swap1\n      tag_22\n      jump\t// in\n    tag_27:\n      tag_28\n      jump\t// in\n    tag_26:\n      mload(0x40)\n      tag_29\n      swap2\n      swap1\n      tag_25\n      jump\t// in\n    tag_29:\n      mload(0x40)\n      dup1\n      swap2\n      sub\n      swap1\n      return\n        /* \"OnDemo/contracts/AccountManagement.sol\":6181:6305  function hasLeaderRole(address _address) public view returns (bool) {\r... */\n    tag_5:\n      tag_30\n      0x04\n      dup1\n      calldatasize\n      sub\n      dup2\n      add\n      swap1\n      tag_31\n      swap2\n      swap1\n      tag_22\n      jump\t// in\n    tag_31:\n      tag_32\n      jump\t// in\n    tag_30:\n      mload(0x40)\n      tag_33\n      swap2\n      swap1\n      tag_25\n      jump\t// in\n    tag_33:\n      mload(0x40)\n      dup1\n      swap2\n      sub\n      swap1\n      return\n        /* \"OnDemo/contracts/AccountManagement.sol\":2595:2844  function makeAccountPassive(address _address) public userExists(_address){\r... */\n    tag_6:\n      tag_34\n      0x04\n      dup1\n      calldatasize\n      sub\n      dup2\n      add\n      swap1\n      tag_35\n      swap2\n      swap1\n      tag_22\n      jump\t// in\n    tag_35:\n      tag_36\n      jump\t// in\n    tag_34:\n      stop\n        /* \"OnDemo/contracts/AccountManagement.sol\":3001:3564  function assignRole(address _address, Role _role) public onlyLeader userExists(_address){\r... */\n    tag_7:\n      tag_37\n      0x04\n      dup1\n      calldatasize\n      sub\n      dup2\n      add\n      swap1\n      tag_38\n      swap2\n      swap1\n      tag_39\n      jump\t// in\n    tag_38:\n      tag_40\n      jump\t// in\n    tag_37:\n      stop\n        /* \"OnDemo/contracts/AccountManagement.sol\":7159:7534  function hasRightToVote(address _address) external view returns (bool) {\r... */\n    tag_8:\n      tag_41\n      0x04\n      dup1\n      calldatasize\n      sub\n      dup2\n      add\n      swap1\n      tag_42\n      swap2\n      swap1\n      tag_22\n      jump\t// in\n    tag_42:\n      tag_43\n      jump\t// in\n    tag_41:\n      mload(0x40)\n      tag_44\n      swap2\n      swap1\n      tag_25\n      jump\t// in\n    tag_44:\n      mload(0x40)\n      dup1\n      swap2\n      sub\n      swap1\n      return\n        /* \"OnDemo/contracts/AccountManagement.sol\":604:624  address public owner */\n    tag_9:\n      tag_45\n      tag_46\n      jump\t// in\n    tag_45:\n      mload(0x40)\n      tag_47\n      swap2\n      swap1\n      tag_48\n      jump\t// in\n    tag_47:\n      mload(0x40)\n      dup1\n      swap2\n      sub\n      swap1\n      return\n        /* \"OnDemo/contracts/AccountManagement.sol\":2195:2587  function makeAccountActive(address _address) public userExists(_address){\r... */\n    tag_10:\n      tag_49\n      0x04\n      dup1\n      calldatasize\n      sub\n      dup2\n      add\n      swap1\n      tag_50\n      swap2\n      swap1\n      tag_22\n      jump\t// in\n    tag_50:\n      tag_51\n      jump\t// in\n    tag_49:\n      stop\n        /* \"OnDemo/contracts/AccountManagement.sol\":3572:4351  function removeRole(address _address, Role _role) public onlyLeader userExists(_address){\r... */\n    tag_11:\n      tag_52\n      0x04\n      dup1\n      calldatasize\n      sub\n      dup2\n      add\n      swap1\n      tag_53\n      swap2\n      swap1\n      tag_39\n      jump\t// in\n    tag_53:\n      tag_54\n      jump\t// in\n    tag_52:\n      stop\n        /* \"OnDemo/contracts/AccountManagement.sol\":7542:7920  function hasRightToSupport(address _address) external view returns (bool) {\r... */\n    tag_12:\n      tag_55\n      0x04\n      dup1\n      calldatasize\n      sub\n      dup2\n      add\n      swap1\n      tag_56\n      swap2\n      swap1\n      tag_22\n      jump\t// in\n    tag_56:\n      tag_57\n      jump\t// in\n    tag_55:\n      mload(0x40)\n      tag_58\n      swap2\n      swap1\n      tag_25\n      jump\t// in\n    tag_58:\n      mload(0x40)\n      dup1\n      swap2\n      sub\n      swap1\n      return\n        /* \"OnDemo/contracts/AccountManagement.sol\":2852:2967  function burnAccount(address _address) public userExists(_address){\r... */\n    tag_13:\n      tag_59\n      0x04\n      dup1\n      calldatasize\n      sub\n      dup2\n      add\n      swap1\n      tag_60\n      swap2\n      swap1\n      tag_22\n      jump\t// in\n    tag_60:\n      tag_61\n      jump\t// in\n    tag_59:\n      stop\n        /* \"OnDemo/contracts/AccountManagement.sol\":1823:2187  function createAccount(address _address, string memory _firstName, string memory _secondName, string memory _mailAdress) public userNotExists(_address){\r... */\n    tag_14:\n      tag_62\n      0x04\n      dup1\n      calldatasize\n      sub\n      dup2\n      add\n      swap1\n      tag_63\n      swap2\n      swap1\n      tag_64\n      jump\t// in\n    tag_63:\n      tag_65\n      jump\t// in\n    tag_62:\n      stop\n        /* \"OnDemo/contracts/AccountManagement.sol\":6599:6721  function hasGuestRole(address _address) public view returns (bool) {\r... */\n    tag_15:\n      tag_66\n      0x04\n      dup1\n      calldatasize\n      sub\n      dup2\n      add\n      swap1\n      tag_67\n      swap2\n      swap1\n      tag_22\n      jump\t// in\n    tag_67:\n      tag_68\n      jump\t// in\n    tag_66:\n      mload(0x40)\n      tag_69\n      swap2\n      swap1\n      tag_25\n      jump\t// in\n    tag_69:\n      mload(0x40)\n      dup1\n      swap2\n      sub\n      swap1\n      return\n        /* \"OnDemo/contracts/AccountManagement.sol\":6313:6451  function hasCouncilMemberRole(address _address) public view returns (bool) {\r... */\n    tag_16:\n      tag_70\n      0x04\n      dup1\n      calldatasize\n      sub\n      dup2\n      add\n      swap1\n      tag_71\n      swap2\n      swap1\n      tag_22\n      jump\t// in\n    tag_71:\n      tag_72\n      jump\t// in\n    tag_70:\n      mload(0x40)\n      tag_73\n      swap2\n      swap1\n      tag_25\n      jump\t// in\n    tag_73:\n      mload(0x40)\n      dup1\n      swap2\n      sub\n      swap1\n      return\n        /* \"OnDemo/contracts/AccountManagement.sol\":6764:7151  function hasRightToCreateReferendum(address _address) external view returns (bool) {\r... */\n    tag_23:\n        /* \"OnDemo/contracts/AccountManagement.sol\":6841:6845  bool */\n      0x00\n        /* \"OnDemo/contracts/AccountManagement.sol\":6858:6874  User memory user */\n      dup1\n        /* \"OnDemo/contracts/AccountManagement.sol\":6877:6882  users */\n      0x01\n        /* \"OnDemo/contracts/AccountManagement.sol\":6877:6892  users[_address] */\n      0x00\n        /* \"OnDemo/contracts/AccountManagement.sol\":6883:6891  _address */\n      dup5\n        /* \"OnDemo/contracts/AccountManagement.sol\":6877:6892  users[_address] */\n      0xffffffffffffffffffffffffffffffffffffffff\n      and\n      0xffffffffffffffffffffffffffffffffffffffff\n      and\n      dup2\n      mstore\n      0x20\n      add\n      swap1\n      dup2\n      mstore\n      0x20\n      add\n      0x00\n      keccak256\n        /* \"OnDemo/contracts/AccountManagement.sol\":6858:6892  User memory user = users[_address] */\n      mload(0x40)\n      dup1\n      0xc0\n      add\n      0x40\n      mstore\n      swap1\n      dup2\n      0x00\n      dup3\n      add\n      0x00\n      swap1\n      sload\n      swap1\n      0x0100\n      exp\n      swap1\n      div\n      0xffffffffffffffffffffffffffffffffffffffff\n      and\n      0xffffffffffffffffffffffffffffffffffffffff\n      and\n      0xffffffffffffffffffffffffffffffffffffffff\n      and\n      dup2\n      mstore\n      0x20\n      add\n      0x01\n      dup3\n      add\n      dup1\n      sload\n      tag_75\n      swap1\n      tag_76\n      jump\t// in\n    tag_75:\n      dup1\n      0x1f\n      add\n      0x20\n      dup1\n      swap2\n      div\n      mul\n      0x20\n      add\n      mload(0x40)\n      swap1\n      dup2\n      add\n      0x40\n      mstore\n      dup1\n      swap3\n      swap2\n      swap1\n      dup2\n      dup2\n      mstore\n      0x20\n      add\n      dup3\n      dup1\n      sload\n      tag_77\n      swap1\n      tag_76\n      jump\t// in\n    tag_77:\n      dup1\n      iszero\n      tag_78\n      jumpi\n      dup1\n      0x1f\n      lt\n      tag_79\n      jumpi\n      0x0100\n      dup1\n      dup4\n      sload\n      div\n      mul\n      dup4\n      mstore\n      swap2\n      0x20\n      add\n      swap2\n      jump(tag_78)\n    tag_79:\n      dup3\n      add\n      swap2\n      swap1\n      0x00\n      mstore\n      keccak256(0x00, 0x20)\n      swap1\n    tag_80:\n      dup2\n      sload\n      dup2\n      mstore\n      swap1\n      0x01\n      add\n      swap1\n      0x20\n      add\n      dup1\n      dup4\n      gt\n      tag_80\n      jumpi\n      dup3\n      swap1\n      sub\n      0x1f\n      and\n      dup3\n      add\n      swap2\n    tag_78:\n      pop\n      pop\n      pop\n      pop\n      pop\n      dup2\n      mstore\n      0x20\n      add\n      0x02\n      dup3\n      add\n      dup1\n      sload\n      tag_81\n      swap1\n      tag_76\n      jump\t// in\n    tag_81:\n      dup1\n      0x1f\n      add\n      0x20\n      dup1\n      swap2\n      div\n      mul\n      0x20\n      add\n      mload(0x40)\n      swap1\n      dup2\n      add\n      0x40\n      mstore\n      dup1\n      swap3\n      swap2\n      swap1\n      dup2\n      dup2\n      mstore\n      0x20\n      add\n      dup3\n      dup1\n      sload\n      tag_82\n      swap1\n      tag_76\n      jump\t// in\n    tag_82:\n      dup1\n      iszero\n      tag_83\n      jumpi\n      dup1\n      0x1f\n      lt\n      tag_84\n      jumpi\n      0x0100\n      dup1\n      dup4\n      sload\n      div\n      mul\n      dup4\n      mstore\n      swap2\n      0x20\n      add\n      swap2\n      jump(tag_83)\n    tag_84:\n      dup3\n      add\n      swap2\n      swap1\n      0x00\n      mstore\n      keccak256(0x00, 0x20)\n      swap1\n    tag_85:\n      dup2\n      sload\n      dup2\n      mstore\n      swap1\n      0x01\n      add\n      swap1\n      0x20\n      add\n      dup1\n      dup4\n      gt\n      tag_85\n      jumpi\n      dup3\n      swap1\n      sub\n      0x1f\n      and\n      dup3\n      add\n      swap2\n    tag_83:\n      pop\n      pop\n      pop\n      pop\n      pop\n      dup2\n      mstore\n      0x20\n      add\n      0x03\n      dup3\n      add\n      dup1\n      sload\n      tag_86\n      swap1\n      tag_76\n      jump\t// in\n    tag_86:\n      dup1\n      0x1f\n      add\n      0x20\n      dup1\n      swap2\n      div\n      mul\n      0x20\n      add\n      mload(0x40)\n      swap1\n      dup2\n      add\n      0x40\n      mstore\n      dup1\n      swap3\n      swap2\n      swap1\n      dup2\n      dup2\n      mstore\n      0x20\n      add\n      dup3\n      dup1\n      sload\n      tag_87\n      swap1\n      tag_76\n      jump\t// in\n    tag_87:\n      dup1\n      iszero\n      tag_88\n      jumpi\n      dup1\n      0x1f\n      lt\n      tag_89\n      jumpi\n      0x0100\n      dup1\n      dup4\n      sload\n      div\n      mul\n      dup4\n      mstore\n      swap2\n      0x20\n      add\n      swap2\n      jump(tag_88)\n    tag_89:\n      dup3\n      add\n      swap2\n      swap1\n      0x00\n      mstore\n      keccak256(0x00, 0x20)\n      swap1\n    tag_90:\n      dup2\n      sload\n      dup2\n      mstore\n      swap1\n      0x01\n      add\n      swap1\n      0x20\n      add\n      dup1\n      dup4\n      gt\n      tag_90\n      jumpi\n      dup3\n      swap1\n      sub\n      0x1f\n      and\n      dup3\n      add\n      swap2\n    tag_88:\n      pop\n      pop\n      pop\n      pop\n      pop\n      dup2\n      mstore\n      0x20\n      add\n      0x04\n      dup3\n      add\n      0x00\n      swap1\n      sload\n      swap1\n      0x0100\n      exp\n      swap1\n      div\n      0xff\n      and\n      iszero\n      iszero\n      iszero\n      iszero\n      dup2\n      mstore\n      0x20\n      add\n      0x05\n      dup3\n      add\n      mload(0x40)\n      dup1\n      0x80\n      add\n      0x40\n      mstore\n      swap1\n      dup2\n      0x00\n      dup3\n      add\n      0x00\n      swap1\n      sload\n      swap1\n      0x0100\n      exp\n      swap1\n      div\n      0xff\n      and\n      iszero\n      iszero\n      iszero\n      iszero\n      dup2\n      mstore\n      0x20\n      add\n      0x00\n      dup3\n      add\n      0x01\n      swap1\n      sload\n      swap1\n      0x0100\n      exp\n      swap1\n      div\n      0xff\n      and\n      iszero\n      iszero\n      iszero\n      iszero\n      dup2\n      mstore\n      0x20\n      add\n      0x00\n      dup3\n      add\n      0x02\n      swap1\n      sload\n      swap1\n      0x0100\n      exp\n      swap1\n      div\n      0xff\n      and\n      iszero\n      iszero\n      iszero\n      iszero\n      dup2\n      mstore\n      0x20\n      add\n      0x00\n      dup3\n      add\n      0x03\n      swap1\n      sload\n      swap1\n      0x0100\n      exp\n      swap1\n      div\n      0xff\n      and\n      iszero\n      iszero\n      iszero\n      iszero\n      dup2\n      mstore\n      pop\n      pop\n      dup2\n      mstore\n      pop\n      pop\n      swap1\n      pop\n        /* \"OnDemo/contracts/AccountManagement.sol\":6934:6935  0 */\n      0x00\n        /* \"OnDemo/contracts/AccountManagement.sol\":6906:6936  user.userAddress != address(0) */\n      0xffffffffffffffffffffffffffffffffffffffff\n      and\n        /* \"OnDemo/contracts/AccountManagement.sol\":6906:6910  user */\n      dup2\n        /* \"OnDemo/contracts/AccountManagement.sol\":6906:6922  user.userAddress */\n      0x00\n      add\n      mload\n        /* \"OnDemo/contracts/AccountManagement.sol\":6906:6936  user.userAddress != address(0) */\n      0xffffffffffffffffffffffffffffffffffffffff\n      and\n      eq\n        /* \"OnDemo/contracts/AccountManagement.sol\":6903:7120  if(user.userAddress != address(0))\r... */\n      tag_91\n      jumpi\n        /* \"OnDemo/contracts/AccountManagement.sol\":6965:6969  user */\n      dup1\n        /* \"OnDemo/contracts/AccountManagement.sol\":6965:6978  user.isActive */\n      0x80\n      add\n      mload\n        /* \"OnDemo/contracts/AccountManagement.sol\":6965:7062  user.isActive && (user.roleMap.isLeader || user.roleMap.isCouncilMember || user.roleMap.isMember) */\n      dup1\n      iszero\n      tag_92\n      jumpi\n      pop\n        /* \"OnDemo/contracts/AccountManagement.sol\":6983:6987  user */\n      dup1\n        /* \"OnDemo/contracts/AccountManagement.sol\":6983:6995  user.roleMap */\n      0xa0\n      add\n      mload\n        /* \"OnDemo/contracts/AccountManagement.sol\":6983:7004  user.roleMap.isLeader */\n      0x00\n      add\n      mload\n        /* \"OnDemo/contracts/AccountManagement.sol\":6983:7036  user.roleMap.isLeader || user.roleMap.isCouncilMember */\n      dup1\n      tag_93\n      jumpi\n      pop\n        /* \"OnDemo/contracts/AccountManagement.sol\":7008:7012  user */\n      dup1\n        /* \"OnDemo/contracts/AccountManagement.sol\":7008:7020  user.roleMap */\n      0xa0\n      add\n      mload\n        /* \"OnDemo/contracts/AccountManagement.sol\":7008:7036  user.roleMap.isCouncilMember */\n      0x20\n      add\n      mload\n        /* \"OnDemo/contracts/AccountManagement.sol\":6983:7036  user.roleMap.isLeader || user.roleMap.isCouncilMember */\n    tag_93:\n        /* \"OnDemo/contracts/AccountManagement.sol\":6983:7061  user.roleMap.isLeader || user.roleMap.isCouncilMember || user.roleMap.isMember */\n      dup1\n      tag_94\n      jumpi\n      pop\n        /* \"OnDemo/contracts/AccountManagement.sol\":7040:7044  user */\n      dup1\n        /* \"OnDemo/contracts/AccountManagement.sol\":7040:7052  user.roleMap */\n      0xa0\n      add\n      mload\n        /* \"OnDemo/contracts/AccountManagement.sol\":7040:7061  user.roleMap.isMember */\n      0x40\n      add\n      mload\n        /* \"OnDemo/contracts/AccountManagement.sol\":6983:7061  user.roleMap.isLeader || user.roleMap.isCouncilMember || user.roleMap.isMember */\n    tag_94:\n        /* \"OnDemo/contracts/AccountManagement.sol\":6965:7062  user.isActive && (user.roleMap.isLeader || user.roleMap.isCouncilMember || user.roleMap.isMember) */\n    tag_92:\n        /* \"OnDemo/contracts/AccountManagement.sol\":6962:7109  if(user.isActive && (user.roleMap.isLeader || user.roleMap.isCouncilMember || user.roleMap.isMember)){\r... */\n      iszero\n      tag_95\n      jumpi\n        /* \"OnDemo/contracts/AccountManagement.sol\":7089:7093  true */\n      0x01\n        /* \"OnDemo/contracts/AccountManagement.sol\":7082:7093  return true */\n      swap2\n      pop\n      pop\n      jump(tag_74)\n        /* \"OnDemo/contracts/AccountManagement.sol\":6962:7109  if(user.isActive && (user.roleMap.isLeader || user.roleMap.isCouncilMember || user.roleMap.isMember)){\r... */\n    tag_95:\n        /* \"OnDemo/contracts/AccountManagement.sol\":6903:7120  if(user.userAddress != address(0))\r... */\n    tag_91:\n        /* \"OnDemo/contracts/AccountManagement.sol\":7138:7143  false */\n      0x00\n        /* \"OnDemo/contracts/AccountManagement.sol\":7130:7143  return  false */\n      swap2\n      pop\n      pop\n        /* \"OnDemo/contracts/AccountManagement.sol\":6764:7151  function hasRightToCreateReferendum(address _address) external view returns (bool) {\r... */\n    tag_74:\n      swap2\n      swap1\n      pop\n      jump\t// out\n        /* \"OnDemo/contracts/AccountManagement.sol\":6463:6587  function hasMemberRole(address _address) public view returns (bool) {\r... */\n    tag_28:\n        /* \"OnDemo/contracts/AccountManagement.sol\":6525:6529  bool */\n      0x00\n        /* \"OnDemo/contracts/AccountManagement.sol\":6549:6579  hasRole(_address, Role.MEMBER) */\n      tag_97\n        /* \"OnDemo/contracts/AccountManagement.sol\":6557:6565  _address */\n      dup3\n        /* \"OnDemo/contracts/AccountManagement.sol\":6567:6578  Role.MEMBER */\n      0x02\n        /* \"OnDemo/contracts/AccountManagement.sol\":6549:6556  hasRole */\n      tag_98\n        /* \"OnDemo/contracts/AccountManagement.sol\":6549:6579  hasRole(_address, Role.MEMBER) */\n      jump\t// in\n    tag_97:\n        /* \"OnDemo/contracts/AccountManagement.sol\":6542:6579  return hasRole(_address, Role.MEMBER) */\n      swap1\n      pop\n        /* \"OnDemo/contracts/AccountManagement.sol\":6463:6587  function hasMemberRole(address _address) public view returns (bool) {\r... */\n      swap2\n      swap1\n      pop\n      jump\t// out\n        /* \"OnDemo/contracts/AccountManagement.sol\":6181:6305  function hasLeaderRole(address _address) public view returns (bool) {\r... */\n    tag_32:\n        /* \"OnDemo/contracts/AccountManagement.sol\":6243:6247  bool */\n      0x00\n        /* \"OnDemo/contracts/AccountManagement.sol\":6267:6297  hasRole(_address, Role.LEADER) */\n      tag_100\n        /* \"OnDemo/contracts/AccountManagement.sol\":6275:6283  _address */\n      dup3\n        /* \"OnDemo/contracts/AccountManagement.sol\":6285:6296  Role.LEADER */\n      0x00\n        /* \"OnDemo/contracts/AccountManagement.sol\":6267:6274  hasRole */\n      tag_98\n        /* \"OnDemo/contracts/AccountManagement.sol\":6267:6297  hasRole(_address, Role.LEADER) */\n      jump\t// in\n    tag_100:\n        /* \"OnDemo/contracts/AccountManagement.sol\":6260:6297  return hasRole(_address, Role.LEADER) */\n      swap1\n      pop\n        /* \"OnDemo/contracts/AccountManagement.sol\":6181:6305  function hasLeaderRole(address _address) public view returns (bool) {\r... */\n      swap2\n      swap1\n      pop\n      jump\t// out\n        /* \"OnDemo/contracts/AccountManagement.sol\":2595:2844  function makeAccountPassive(address _address) public userExists(_address){\r... */\n    tag_36:\n        /* \"OnDemo/contracts/AccountManagement.sol\":2659:2667  _address */\n      dup1\n        /* \"OnDemo/contracts/AccountManagement.sol\":1583:1584  0 */\n      0x00\n        /* \"OnDemo/contracts/AccountManagement.sol\":1544:1585  users[_address].userAddress != address(0) */\n      0xffffffffffffffffffffffffffffffffffffffff\n      and\n        /* \"OnDemo/contracts/AccountManagement.sol\":1544:1549  users */\n      0x01\n        /* \"OnDemo/contracts/AccountManagement.sol\":1544:1559  users[_address] */\n      0x00\n        /* \"OnDemo/contracts/AccountManagement.sol\":1550:1558  _address */\n      dup4\n        /* \"OnDemo/contracts/AccountManagement.sol\":1544:1559  users[_address] */\n      0xffffffffffffffffffffffffffffffffffffffff\n      and\n      0xffffffffffffffffffffffffffffffffffffffff\n      and\n      dup2\n      mstore\n      0x20\n      add\n      swap1\n      dup2\n      mstore\n      0x20\n      add\n      0x00\n      keccak256\n        /* \"OnDemo/contracts/AccountManagement.sol\":1544:1571  users[_address].userAddress */\n      0x00\n      add\n      0x00\n      swap1\n      sload\n      swap1\n      0x0100\n      exp\n      swap1\n      div\n      0xffffffffffffffffffffffffffffffffffffffff\n      and\n        /* \"OnDemo/contracts/AccountManagement.sol\":1544:1585  users[_address].userAddress != address(0) */\n      0xffffffffffffffffffffffffffffffffffffffff\n      and\n      eq\n      iszero\n        /* \"OnDemo/contracts/AccountManagement.sol\":1536:1611  require(users[_address].userAddress != address(0), \"Account doesn't exist\") */\n      tag_102\n      jumpi\n      mload(0x40)\n      0x08c379a000000000000000000000000000000000000000000000000000000000\n      dup2\n      mstore\n      0x04\n      add\n      tag_103\n      swap1\n      tag_104\n      jump\t// in\n    tag_103:\n      mload(0x40)\n      dup1\n      swap2\n      sub\n      swap1\n      revert\n    tag_102:\n        /* \"OnDemo/contracts/AccountManagement.sol\":2679:2696  User storage user */\n      0x00\n        /* \"OnDemo/contracts/AccountManagement.sol\":2699:2704  users */\n      0x01\n        /* \"OnDemo/contracts/AccountManagement.sol\":2699:2714  users[_address] */\n      0x00\n        /* \"OnDemo/contracts/AccountManagement.sol\":2705:2713  _address */\n      dup5\n        /* \"OnDemo/contracts/AccountManagement.sol\":2699:2714  users[_address] */\n      0xffffffffffffffffffffffffffffffffffffffff\n      and\n      0xffffffffffffffffffffffffffffffffffffffff\n      and\n      dup2\n      mstore\n      0x20\n      add\n      swap1\n      dup2\n      mstore\n      0x20\n      add\n      0x00\n      keccak256\n        /* \"OnDemo/contracts/AccountManagement.sol\":2679:2714  User storage user = users[_address] */\n      swap1\n      pop\n        /* \"OnDemo/contracts/AccountManagement.sol\":2741:2746  false */\n      0x00\n        /* \"OnDemo/contracts/AccountManagement.sol\":2725:2729  user */\n      dup2\n        /* \"OnDemo/contracts/AccountManagement.sol\":2725:2738  user.isActive */\n      0x04\n      add\n      0x00\n        /* \"OnDemo/contracts/AccountManagement.sol\":2725:2746  user.isActive = false */\n      0x0100\n      exp\n      dup2\n      sload\n      dup2\n      0xff\n      mul\n      not\n      and\n      swap1\n      dup4\n      iszero\n      iszero\n      mul\n      or\n      swap1\n      sstore\n      pop\n        /* \"OnDemo/contracts/AccountManagement.sol\":2831:2836  false */\n      0x00\n        /* \"OnDemo/contracts/AccountManagement.sol\":2805:2818  activeMembers */\n      0x02\n        /* \"OnDemo/contracts/AccountManagement.sol\":2805:2828  activeMembers[_address] */\n      0x00\n        /* \"OnDemo/contracts/AccountManagement.sol\":2819:2827  _address */\n      dup6\n        /* \"OnDemo/contracts/AccountManagement.sol\":2805:2828  activeMembers[_address] */\n      0xffffffffffffffffffffffffffffffffffffffff\n      and\n      0xffffffffffffffffffffffffffffffffffffffff\n      and\n      dup2\n      mstore\n      0x20\n      add\n      swap1\n      dup2\n      mstore\n      0x20\n      add\n      0x00\n      keccak256\n      0x00\n        /* \"OnDemo/contracts/AccountManagement.sol\":2805:2836  activeMembers[_address] = false */\n      0x0100\n      exp\n      dup2\n      sload\n      dup2\n      0xff\n      mul\n      not\n      and\n      swap1\n      dup4\n      iszero\n      iszero\n      mul\n      or\n      swap1\n      sstore\n      pop\n        /* \"OnDemo/contracts/AccountManagement.sol\":1622:1623  _ */\n      pop\n        /* \"OnDemo/contracts/AccountManagement.sol\":2595:2844  function makeAccountPassive(address _address) public userExists(_address){\r... */\n      pop\n      pop\n      jump\t// out\n        /* \"OnDemo/contracts/AccountManagement.sol\":3001:3564  function assignRole(address _address, Role _role) public onlyLeader userExists(_address){\r... */\n    tag_40:\n        /* \"OnDemo/contracts/AccountManagement.sol\":1387:1392  owner */\n      0x00\n      dup1\n      sload\n      swap1\n      0x0100\n      exp\n      swap1\n      div\n      0xffffffffffffffffffffffffffffffffffffffff\n      and\n        /* \"OnDemo/contracts/AccountManagement.sol\":1373:1392  msg.sender == owner */\n      0xffffffffffffffffffffffffffffffffffffffff\n      and\n        /* \"OnDemo/contracts/AccountManagement.sol\":1373:1383  msg.sender */\n      caller\n        /* \"OnDemo/contracts/AccountManagement.sol\":1373:1392  msg.sender == owner */\n      0xffffffffffffffffffffffffffffffffffffffff\n      and\n      eq\n        /* \"OnDemo/contracts/AccountManagement.sol\":1373:1421  msg.sender == owner || hasLeaderRole(msg.sender) */\n      dup1\n      tag_107\n      jumpi\n      pop\n        /* \"OnDemo/contracts/AccountManagement.sol\":1396:1421  hasLeaderRole(msg.sender) */\n      tag_108\n        /* \"OnDemo/contracts/AccountManagement.sol\":1410:1420  msg.sender */\n      caller\n        /* \"OnDemo/contracts/AccountManagement.sol\":1396:1409  hasLeaderRole */\n      tag_32\n        /* \"OnDemo/contracts/AccountManagement.sol\":1396:1421  hasLeaderRole(msg.sender) */\n      jump\t// in\n    tag_108:\n        /* \"OnDemo/contracts/AccountManagement.sol\":1373:1421  msg.sender == owner || hasLeaderRole(msg.sender) */\n    tag_107:\n        /* \"OnDemo/contracts/AccountManagement.sol\":1365:1460  require(msg.sender == owner || hasLeaderRole(msg.sender), \"Only owner can call this function.\") */\n      tag_109\n      jumpi\n      mload(0x40)\n      0x08c379a000000000000000000000000000000000000000000000000000000000\n      dup2\n      mstore\n      0x04\n      add\n      tag_110\n      swap1\n      tag_111\n      jump\t// in\n    tag_110:\n      mload(0x40)\n      dup1\n      swap2\n      sub\n      swap1\n      revert\n    tag_109:\n        /* \"OnDemo/contracts/AccountManagement.sol\":3080:3088  _address */\n      dup2\n        /* \"OnDemo/contracts/AccountManagement.sol\":1583:1584  0 */\n      0x00\n        /* \"OnDemo/contracts/AccountManagement.sol\":1544:1585  users[_address].userAddress != address(0) */\n      0xffffffffffffffffffffffffffffffffffffffff\n      and\n        /* \"OnDemo/contracts/AccountManagement.sol\":1544:1549  users */\n      0x01\n        /* \"OnDemo/contracts/AccountManagement.sol\":1544:1559  users[_address] */\n      0x00\n        /* \"OnDemo/contracts/AccountManagement.sol\":1550:1558  _address */\n      dup4\n        /* \"OnDemo/contracts/AccountManagement.sol\":1544:1559  users[_address] */\n      0xffffffffffffffffffffffffffffffffffffffff\n      and\n      0xffffffffffffffffffffffffffffffffffffffff\n      and\n      dup2\n      mstore\n      0x20\n      add\n      swap1\n      dup2\n      mstore\n      0x20\n      add\n      0x00\n      keccak256\n        /* \"OnDemo/contracts/AccountManagement.sol\":1544:1571  users[_address].userAddress */\n      0x00\n      add\n      0x00\n      swap1\n      sload\n      swap1\n      0x0100\n      exp\n      swap1\n      div\n      0xffffffffffffffffffffffffffffffffffffffff\n      and\n        /* \"OnDemo/contracts/AccountManagement.sol\":1544:1585  users[_address].userAddress != address(0) */\n      0xffffffffffffffffffffffffffffffffffffffff\n      and\n      eq\n      iszero\n        /* \"OnDemo/contracts/AccountManagement.sol\":1536:1611  require(users[_address].userAddress != address(0), \"Account doesn't exist\") */\n      tag_113\n      jumpi\n      mload(0x40)\n      0x08c379a000000000000000000000000000000000000000000000000000000000\n      dup2\n      mstore\n      0x04\n      add\n      tag_114\n      swap1\n      tag_104\n      jump\t// in\n    tag_114:\n      mload(0x40)\n      dup1\n      swap2\n      sub\n      swap1\n      revert\n    tag_113:\n        /* \"OnDemo/contracts/AccountManagement.sol\":3100:3117  User storage user */\n      0x00\n        /* \"OnDemo/contracts/AccountManagement.sol\":3120:3125  users */\n      0x01\n        /* \"OnDemo/contracts/AccountManagement.sol\":3120:3135  users[_address] */\n      0x00\n        /* \"OnDemo/contracts/AccountManagement.sol\":3126:3134  _address */\n      dup6\n        /* \"OnDemo/contracts/AccountManagement.sol\":3120:3135  users[_address] */\n      0xffffffffffffffffffffffffffffffffffffffff\n      and\n      0xffffffffffffffffffffffffffffffffffffffff\n      and\n      dup2\n      mstore\n      0x20\n      add\n      swap1\n      dup2\n      mstore\n      0x20\n      add\n      0x00\n      keccak256\n        /* \"OnDemo/contracts/AccountManagement.sol\":3100:3135  User storage user = users[_address] */\n      swap1\n      pop\n        /* \"OnDemo/contracts/AccountManagement.sol\":3146:3169  RoleMap storage roleMap */\n      0x00\n        /* \"OnDemo/contracts/AccountManagement.sol\":3172:3176  user */\n      dup2\n        /* \"OnDemo/contracts/AccountManagement.sol\":3172:3184  user.roleMap */\n      0x05\n      add\n        /* \"OnDemo/contracts/AccountManagement.sol\":3146:3184  RoleMap storage roleMap = user.roleMap */\n      swap1\n      pop\n        /* \"OnDemo/contracts/AccountManagement.sol\":3209:3220  Role.LEADER */\n      0x00\n        /* \"OnDemo/contracts/AccountManagement.sol\":3200:3220  _role == Role.LEADER */\n      0x03\n      dup2\n      gt\n      iszero\n      tag_116\n      jumpi\n      mstore(0x00, 0x4e487b7100000000000000000000000000000000000000000000000000000000)\n      mstore(0x04, 0x21)\n      revert(0x00, 0x24)\n    tag_116:\n        /* \"OnDemo/contracts/AccountManagement.sol\":3200:3205  _role */\n      dup5\n        /* \"OnDemo/contracts/AccountManagement.sol\":3200:3220  _role == Role.LEADER */\n      0x03\n      dup2\n      gt\n      iszero\n      tag_117\n      jumpi\n      mstore(0x00, 0x4e487b7100000000000000000000000000000000000000000000000000000000)\n      mstore(0x04, 0x21)\n      revert(0x00, 0x24)\n    tag_117:\n      eq\n        /* \"OnDemo/contracts/AccountManagement.sol\":3197:3557  if(_role == Role.LEADER){\r... */\n      iszero\n      tag_118\n      jumpi\n        /* \"OnDemo/contracts/AccountManagement.sol\":3255:3259  true */\n      0x01\n        /* \"OnDemo/contracts/AccountManagement.sol\":3236:3243  roleMap */\n      dup2\n        /* \"OnDemo/contracts/AccountManagement.sol\":3236:3252  roleMap.isLeader */\n      0x00\n      add\n      0x00\n        /* \"OnDemo/contracts/AccountManagement.sol\":3236:3259  roleMap.isLeader = true */\n      0x0100\n      exp\n      dup2\n      sload\n      dup2\n      0xff\n      mul\n      not\n      and\n      swap1\n      dup4\n      iszero\n      iszero\n      mul\n      or\n      swap1\n      sstore\n      pop\n        /* \"OnDemo/contracts/AccountManagement.sol\":3197:3557  if(_role == Role.LEADER){\r... */\n      jump(tag_119)\n    tag_118:\n        /* \"OnDemo/contracts/AccountManagement.sol\":3298:3316  Role.COUNCILMEMBER */\n      0x01\n        /* \"OnDemo/contracts/AccountManagement.sol\":3289:3316  _role == Role.COUNCILMEMBER */\n      0x03\n      dup2\n      gt\n      iszero\n      tag_120\n      jumpi\n      mstore(0x00, 0x4e487b7100000000000000000000000000000000000000000000000000000000)\n      mstore(0x04, 0x21)\n      revert(0x00, 0x24)\n    tag_120:\n        /* \"OnDemo/contracts/AccountManagement.sol\":3289:3294  _role */\n      dup5\n        /* \"OnDemo/contracts/AccountManagement.sol\":3289:3316  _role == Role.COUNCILMEMBER */\n      0x03\n      dup2\n      gt\n      iszero\n      tag_121\n      jumpi\n      mstore(0x00, 0x4e487b7100000000000000000000000000000000000000000000000000000000)\n      mstore(0x04, 0x21)\n      revert(0x00, 0x24)\n    tag_121:\n      eq\n        /* \"OnDemo/contracts/AccountManagement.sol\":3286:3557  if(_role == Role.COUNCILMEMBER){\r... */\n      iszero\n      tag_122\n      jumpi\n        /* \"OnDemo/contracts/AccountManagement.sol\":3358:3362  true */\n      0x01\n        /* \"OnDemo/contracts/AccountManagement.sol\":3332:3339  roleMap */\n      dup2\n        /* \"OnDemo/contracts/AccountManagement.sol\":3332:3355  roleMap.isCouncilMember */\n      0x00\n      add\n      0x01\n        /* \"OnDemo/contracts/AccountManagement.sol\":3332:3362  roleMap.isCouncilMember = true */\n      0x0100\n      exp\n      dup2\n      sload\n      dup2\n      0xff\n      mul\n      not\n      and\n      swap1\n      dup4\n      iszero\n      iszero\n      mul\n      or\n      swap1\n      sstore\n      pop\n        /* \"OnDemo/contracts/AccountManagement.sol\":3286:3557  if(_role == Role.COUNCILMEMBER){\r... */\n      jump(tag_123)\n    tag_122:\n        /* \"OnDemo/contracts/AccountManagement.sol\":3408:3419  Role.MEMBER */\n      0x02\n        /* \"OnDemo/contracts/AccountManagement.sol\":3399:3419  _role == Role.MEMBER */\n      0x03\n      dup2\n      gt\n      iszero\n      tag_124\n      jumpi\n      mstore(0x00, 0x4e487b7100000000000000000000000000000000000000000000000000000000)\n      mstore(0x04, 0x21)\n      revert(0x00, 0x24)\n    tag_124:\n        /* \"OnDemo/contracts/AccountManagement.sol\":3399:3404  _role */\n      dup5\n        /* \"OnDemo/contracts/AccountManagement.sol\":3399:3419  _role == Role.MEMBER */\n      0x03\n      dup2\n      gt\n      iszero\n      tag_125\n      jumpi\n      mstore(0x00, 0x4e487b7100000000000000000000000000000000000000000000000000000000)\n      mstore(0x04, 0x21)\n      revert(0x00, 0x24)\n    tag_125:\n      eq\n        /* \"OnDemo/contracts/AccountManagement.sol\":3396:3557  if(_role == Role.MEMBER){\r... */\n      iszero\n      tag_126\n      jumpi\n        /* \"OnDemo/contracts/AccountManagement.sol\":3454:3458  true */\n      0x01\n        /* \"OnDemo/contracts/AccountManagement.sol\":3435:3442  roleMap */\n      dup2\n        /* \"OnDemo/contracts/AccountManagement.sol\":3435:3451  roleMap.isMember */\n      0x00\n      add\n      0x02\n        /* \"OnDemo/contracts/AccountManagement.sol\":3435:3458  roleMap.isMember = true */\n      0x0100\n      exp\n      dup2\n      sload\n      dup2\n      0xff\n      mul\n      not\n      and\n      swap1\n      dup4\n      iszero\n      iszero\n      mul\n      or\n      swap1\n      sstore\n      pop\n        /* \"OnDemo/contracts/AccountManagement.sol\":3396:3557  if(_role == Role.MEMBER){\r... */\n      jump(tag_127)\n    tag_126:\n        /* \"OnDemo/contracts/AccountManagement.sol\":3497:3507  Role.GUEST */\n      0x03\n        /* \"OnDemo/contracts/AccountManagement.sol\":3488:3507  _role == Role.GUEST */\n      dup1\n      dup2\n      gt\n      iszero\n      tag_128\n      jumpi\n      mstore(0x00, 0x4e487b7100000000000000000000000000000000000000000000000000000000)\n      mstore(0x04, 0x21)\n      revert(0x00, 0x24)\n    tag_128:\n        /* \"OnDemo/contracts/AccountManagement.sol\":3488:3493  _role */\n      dup5\n        /* \"OnDemo/contracts/AccountManagement.sol\":3488:3507  _role == Role.GUEST */\n      0x03\n      dup2\n      gt\n      iszero\n      tag_129\n      jumpi\n      mstore(0x00, 0x4e487b7100000000000000000000000000000000000000000000000000000000)\n      mstore(0x04, 0x21)\n      revert(0x00, 0x24)\n    tag_129:\n      eq\n        /* \"OnDemo/contracts/AccountManagement.sol\":3485:3557  if(_role == Role.GUEST){\r... */\n      iszero\n      tag_130\n      jumpi\n        /* \"OnDemo/contracts/AccountManagement.sol\":3541:3545  true */\n      0x01\n        /* \"OnDemo/contracts/AccountManagement.sol\":3523:3530  roleMap */\n      dup2\n        /* \"OnDemo/contracts/AccountManagement.sol\":3523:3538  roleMap.isGuest */\n      0x00\n      add\n      0x03\n        /* \"OnDemo/contracts/AccountManagement.sol\":3523:3545  roleMap.isGuest = true */\n      0x0100\n      exp\n      dup2\n      sload\n      dup2\n      0xff\n      mul\n      not\n      and\n      swap1\n      dup4\n      iszero\n      iszero\n      mul\n      or\n      swap1\n      sstore\n      pop\n        /* \"OnDemo/contracts/AccountManagement.sol\":3485:3557  if(_role == Role.GUEST){\r... */\n    tag_130:\n        /* \"OnDemo/contracts/AccountManagement.sol\":3396:3557  if(_role == Role.MEMBER){\r... */\n    tag_127:\n        /* \"OnDemo/contracts/AccountManagement.sol\":3286:3557  if(_role == Role.COUNCILMEMBER){\r... */\n    tag_123:\n        /* \"OnDemo/contracts/AccountManagement.sol\":3197:3557  if(_role == Role.LEADER){\r... */\n    tag_119:\n        /* \"OnDemo/contracts/AccountManagement.sol\":1622:1623  _ */\n      pop\n      pop\n        /* \"OnDemo/contracts/AccountManagement.sol\":1471:1472  _ */\n      pop\n        /* \"OnDemo/contracts/AccountManagement.sol\":3001:3564  function assignRole(address _address, Role _role) public onlyLeader userExists(_address){\r... */\n      pop\n      pop\n      jump\t// out\n        /* \"OnDemo/contracts/AccountManagement.sol\":7159:7534  function hasRightToVote(address _address) external view returns (bool) {\r... */\n    tag_43:\n        /* \"OnDemo/contracts/AccountManagement.sol\":7224:7228  bool */\n      0x00\n        /* \"OnDemo/contracts/AccountManagement.sol\":7241:7257  User memory user */\n      dup1\n        /* \"OnDemo/contracts/AccountManagement.sol\":7260:7265  users */\n      0x01\n        /* \"OnDemo/contracts/AccountManagement.sol\":7260:7275  users[_address] */\n      0x00\n        /* \"OnDemo/contracts/AccountManagement.sol\":7266:7274  _address */\n      dup5\n        /* \"OnDemo/contracts/AccountManagement.sol\":7260:7275  users[_address] */\n      0xffffffffffffffffffffffffffffffffffffffff\n      and\n      0xffffffffffffffffffffffffffffffffffffffff\n      and\n      dup2\n      mstore\n      0x20\n      add\n      swap1\n      dup2\n      mstore\n      0x20\n      add\n      0x00\n      keccak256\n        /* \"OnDemo/contracts/AccountManagement.sol\":7241:7275  User memory user = users[_address] */\n      mload(0x40)\n      dup1\n      0xc0\n      add\n      0x40\n      mstore\n      swap1\n      dup2\n      0x00\n      dup3\n      add\n      0x00\n      swap1\n      sload\n      swap1\n      0x0100\n      exp\n      swap1\n      div\n      0xffffffffffffffffffffffffffffffffffffffff\n      and\n      0xffffffffffffffffffffffffffffffffffffffff\n      and\n      0xffffffffffffffffffffffffffffffffffffffff\n      and\n      dup2\n      mstore\n      0x20\n      add\n      0x01\n      dup3\n      add\n      dup1\n      sload\n      tag_132\n      swap1\n      tag_76\n      jump\t// in\n    tag_132:\n      dup1\n      0x1f\n      add\n      0x20\n      dup1\n      swap2\n      div\n      mul\n      0x20\n      add\n      mload(0x40)\n      swap1\n      dup2\n      add\n      0x40\n      mstore\n      dup1\n      swap3\n      swap2\n      swap1\n      dup2\n      dup2\n      mstore\n      0x20\n      add\n      dup3\n      dup1\n      sload\n      tag_133\n      swap1\n      tag_76\n      jump\t// in\n    tag_133:\n      dup1\n      iszero\n      tag_134\n      jumpi\n      dup1\n      0x1f\n      lt\n      tag_135\n      jumpi\n      0x0100\n      dup1\n      dup4\n      sload\n      div\n      mul\n      dup4\n      mstore\n      swap2\n      0x20\n      add\n      swap2\n      jump(tag_134)\n    tag_135:\n      dup3\n      add\n      swap2\n      swap1\n      0x00\n      mstore\n      keccak256(0x00, 0x20)\n      swap1\n    tag_136:\n      dup2\n      sload\n      dup2\n      mstore\n      swap1\n      0x01\n      add\n      swap1\n      0x20\n      add\n      dup1\n      dup4\n      gt\n      tag_136\n      jumpi\n      dup3\n      swap1\n      sub\n      0x1f\n      and\n      dup3\n      add\n      swap2\n    tag_134:\n      pop\n      pop\n      pop\n      pop\n      pop\n      dup2\n      mstore\n      0x20\n      add\n      0x02\n      dup3\n      add\n      dup1\n      sload\n      tag_137\n      swap1\n      tag_76\n      jump\t// in\n    tag_137:\n      dup1\n      0x1f\n      add\n      0x20\n      dup1\n      swap2\n      div\n      mul\n      0x20\n      add\n      mload(0x40)\n      swap1\n      dup2\n      add\n      0x40\n      mstore\n      dup1\n      swap3\n      swap2\n      swap1\n      dup2\n      dup2\n      mstore\n      0x20\n      add\n      dup3\n      dup1\n      sload\n      tag_138\n      swap1\n      tag_76\n      jump\t// in\n    tag_138:\n      dup1\n      iszero\n      tag_139\n      jumpi\n      dup1\n      0x1f\n      lt\n      tag_140\n      jumpi\n      0x0100\n      dup1\n      dup4\n      sload\n      div\n      mul\n      dup4\n      mstore\n      swap2\n      0x20\n      add\n      swap2\n      jump(tag_139)\n    tag_140:\n      dup3\n      add\n      swap2\n      swap1\n      0x00\n      mstore\n      keccak256(0x00, 0x20)\n      swap1\n    tag_141:\n      dup2\n      sload\n      dup2\n      mstore\n      swap1\n      0x01\n      add\n      swap1\n      0x20\n      add\n      dup1\n      dup4\n      gt\n      tag_141\n      jumpi\n      dup3\n      swap1\n      sub\n      0x1f\n      and\n      dup3\n      add\n      swap2\n    tag_139:\n      pop\n      pop\n      pop\n      pop\n      pop\n      dup2\n      mstore\n      0x20\n      add\n      0x03\n      dup3\n      add\n      dup1\n      sload\n      tag_142\n      swap1\n      tag_76\n      jump\t// in\n    tag_142:\n      dup1\n      0x1f\n      add\n      0x20\n      dup1\n      swap2\n      div\n      mul\n      0x20\n      add\n      mload(0x40)\n      swap1\n      dup2\n      add\n      0x40\n      mstore\n      dup1\n      swap3\n      swap2\n      swap1\n      dup2\n      dup2\n      mstore\n      0x20\n      add\n      dup3\n      dup1\n      sload\n      tag_143\n      swap1\n      tag_76\n      jump\t// in\n    tag_143:\n      dup1\n      iszero\n      tag_144\n      jumpi\n      dup1\n      0x1f\n      lt\n      tag_145\n      jumpi\n      0x0100\n      dup1\n      dup4\n      sload\n      div\n      mul\n      dup4\n      mstore\n      swap2\n      0x20\n      add\n      swap2\n      jump(tag_144)\n    tag_145:\n      dup3\n      add\n      swap2\n      swap1\n      0x00\n      mstore\n      keccak256(0x00, 0x20)\n      swap1\n    tag_146:\n      dup2\n      sload\n      dup2\n      mstore\n      swap1\n      0x01\n      add\n      swap1\n      0x20\n      add\n      dup1\n      dup4\n      gt\n      tag_146\n      jumpi\n      dup3\n      swap1\n      sub\n      0x1f\n      and\n      dup3\n      add\n      swap2\n    tag_144:\n      pop\n      pop\n      pop\n      pop\n      pop\n      dup2\n      mstore\n      0x20\n      add\n      0x04\n      dup3\n      add\n      0x00\n      swap1\n      sload\n      swap1\n      0x0100\n      exp\n      swap1\n      div\n      0xff\n      and\n      iszero\n      iszero\n      iszero\n      iszero\n      dup2\n      mstore\n      0x20\n      add\n      0x05\n      dup3\n      add\n      mload(0x40)\n      dup1\n      0x80\n      add\n      0x40\n      mstore\n      swap1\n      dup2\n      0x00\n      dup3\n      add\n      0x00\n      swap1\n      sload\n      swap1\n      0x0100\n      exp\n      swap1\n      div\n      0xff\n      and\n      iszero\n      iszero\n      iszero\n      iszero\n      dup2\n      mstore\n      0x20\n      add\n      0x00\n      dup3\n      add\n      0x01\n      swap1\n      sload\n      swap1\n      0x0100\n      exp\n      swap1\n      div\n      0xff\n      and\n      iszero\n      iszero\n      iszero\n      iszero\n      dup2\n      mstore\n      0x20\n      add\n      0x00\n      dup3\n      add\n      0x02\n      swap1\n      sload\n      swap1\n      0x0100\n      exp\n      swap1\n      div\n      0xff\n      and\n      iszero\n      iszero\n      iszero\n      iszero\n      dup2\n      mstore\n      0x20\n      add\n      0x00\n      dup3\n      add\n      0x03\n      swap1\n      sload\n      swap1\n      0x0100\n      exp\n      swap1\n      div\n      0xff\n      and\n      iszero\n      iszero\n      iszero\n      iszero\n      dup2\n      mstore\n      pop\n      pop\n      dup2\n      mstore\n      pop\n      pop\n      swap1\n      pop\n        /* \"OnDemo/contracts/AccountManagement.sol\":7317:7318  0 */\n      0x00\n        /* \"OnDemo/contracts/AccountManagement.sol\":7289:7319  user.userAddress != address(0) */\n      0xffffffffffffffffffffffffffffffffffffffff\n      and\n        /* \"OnDemo/contracts/AccountManagement.sol\":7289:7293  user */\n      dup2\n        /* \"OnDemo/contracts/AccountManagement.sol\":7289:7305  user.userAddress */\n      0x00\n      add\n      mload\n        /* \"OnDemo/contracts/AccountManagement.sol\":7289:7319  user.userAddress != address(0) */\n      0xffffffffffffffffffffffffffffffffffffffff\n      and\n      eq\n        /* \"OnDemo/contracts/AccountManagement.sol\":7286:7503  if(user.userAddress != address(0))\r... */\n      tag_147\n      jumpi\n        /* \"OnDemo/contracts/AccountManagement.sol\":7348:7352  user */\n      dup1\n        /* \"OnDemo/contracts/AccountManagement.sol\":7348:7361  user.isActive */\n      0x80\n      add\n      mload\n        /* \"OnDemo/contracts/AccountManagement.sol\":7348:7445  user.isActive && (user.roleMap.isLeader || user.roleMap.isCouncilMember || user.roleMap.isMember) */\n      dup1\n      iszero\n      tag_148\n      jumpi\n      pop\n        /* \"OnDemo/contracts/AccountManagement.sol\":7366:7370  user */\n      dup1\n        /* \"OnDemo/contracts/AccountManagement.sol\":7366:7378  user.roleMap */\n      0xa0\n      add\n      mload\n        /* \"OnDemo/contracts/AccountManagement.sol\":7366:7387  user.roleMap.isLeader */\n      0x00\n      add\n      mload\n        /* \"OnDemo/contracts/AccountManagement.sol\":7366:7419  user.roleMap.isLeader || user.roleMap.isCouncilMember */\n      dup1\n      tag_149\n      jumpi\n      pop\n        /* \"OnDemo/contracts/AccountManagement.sol\":7391:7395  user */\n      dup1\n        /* \"OnDemo/contracts/AccountManagement.sol\":7391:7403  user.roleMap */\n      0xa0\n      add\n      mload\n        /* \"OnDemo/contracts/AccountManagement.sol\":7391:7419  user.roleMap.isCouncilMember */\n      0x20\n      add\n      mload\n        /* \"OnDemo/contracts/AccountManagement.sol\":7366:7419  user.roleMap.isLeader || user.roleMap.isCouncilMember */\n    tag_149:\n        /* \"OnDemo/contracts/AccountManagement.sol\":7366:7444  user.roleMap.isLeader || user.roleMap.isCouncilMember || user.roleMap.isMember */\n      dup1\n      tag_150\n      jumpi\n      pop\n        /* \"OnDemo/contracts/AccountManagement.sol\":7423:7427  user */\n      dup1\n        /* \"OnDemo/contracts/AccountManagement.sol\":7423:7435  user.roleMap */\n      0xa0\n      add\n      mload\n        /* \"OnDemo/contracts/AccountManagement.sol\":7423:7444  user.roleMap.isMember */\n      0x40\n      add\n      mload\n        /* \"OnDemo/contracts/AccountManagement.sol\":7366:7444  user.roleMap.isLeader || user.roleMap.isCouncilMember || user.roleMap.isMember */\n    tag_150:\n        /* \"OnDemo/contracts/AccountManagement.sol\":7348:7445  user.isActive && (user.roleMap.isLeader || user.roleMap.isCouncilMember || user.roleMap.isMember) */\n    tag_148:\n        /* \"OnDemo/contracts/AccountManagement.sol\":7345:7492  if(user.isActive && (user.roleMap.isLeader || user.roleMap.isCouncilMember || user.roleMap.isMember)){\r... */\n      iszero\n      tag_151\n      jumpi\n        /* \"OnDemo/contracts/AccountManagement.sol\":7472:7476  true */\n      0x01\n        /* \"OnDemo/contracts/AccountManagement.sol\":7465:7476  return true */\n      swap2\n      pop\n      pop\n      jump(tag_131)\n        /* \"OnDemo/contracts/AccountManagement.sol\":7345:7492  if(user.isActive && (user.roleMap.isLeader || user.roleMap.isCouncilMember || user.roleMap.isMember)){\r... */\n    tag_151:\n        /* \"OnDemo/contracts/AccountManagement.sol\":7286:7503  if(user.userAddress != address(0))\r... */\n    tag_147:\n        /* \"OnDemo/contracts/AccountManagement.sol\":7521:7526  false */\n      0x00\n        /* \"OnDemo/contracts/AccountManagement.sol\":7513:7526  return  false */\n      swap2\n      pop\n      pop\n        /* \"OnDemo/contracts/AccountManagement.sol\":7159:7534  function hasRightToVote(address _address) external view returns (bool) {\r... */\n    tag_131:\n      swap2\n      swap1\n      pop\n      jump\t// out\n        /* \"OnDemo/contracts/AccountManagement.sol\":604:624  address public owner */\n    tag_46:\n      0x00\n      dup1\n      sload\n      swap1\n      0x0100\n      exp\n      swap1\n      div\n      0xffffffffffffffffffffffffffffffffffffffff\n      and\n      dup2\n      jump\t// out\n        /* \"OnDemo/contracts/AccountManagement.sol\":2195:2587  function makeAccountActive(address _address) public userExists(_address){\r... */\n    tag_51:\n        /* \"OnDemo/contracts/AccountManagement.sol\":2258:2266  _address */\n      dup1\n        /* \"OnDemo/contracts/AccountManagement.sol\":1583:1584  0 */\n      0x00\n        /* \"OnDemo/contracts/AccountManagement.sol\":1544:1585  users[_address].userAddress != address(0) */\n      0xffffffffffffffffffffffffffffffffffffffff\n      and\n        /* \"OnDemo/contracts/AccountManagement.sol\":1544:1549  users */\n      0x01\n        /* \"OnDemo/contracts/AccountManagement.sol\":1544:1559  users[_address] */\n      0x00\n        /* \"OnDemo/contracts/AccountManagement.sol\":1550:1558  _address */\n      dup4\n        /* \"OnDemo/contracts/AccountManagement.sol\":1544:1559  users[_address] */\n      0xffffffffffffffffffffffffffffffffffffffff\n      and\n      0xffffffffffffffffffffffffffffffffffffffff\n      and\n      dup2\n      mstore\n      0x20\n      add\n      swap1\n      dup2\n      mstore\n      0x20\n      add\n      0x00\n      keccak256\n        /* \"OnDemo/contracts/AccountManagement.sol\":1544:1571  users[_address].userAddress */\n      0x00\n      add\n      0x00\n      swap1\n      sload\n      swap1\n      0x0100\n      exp\n      swap1\n      div\n      0xffffffffffffffffffffffffffffffffffffffff\n      and\n        /* \"OnDemo/contracts/AccountManagement.sol\":1544:1585  users[_address].userAddress != address(0) */\n      0xffffffffffffffffffffffffffffffffffffffff\n      and\n      eq\n      iszero\n        /* \"OnDemo/contracts/AccountManagement.sol\":1536:1611  require(users[_address].userAddress != address(0), \"Account doesn't exist\") */\n      tag_153\n      jumpi\n      mload(0x40)\n      0x08c379a000000000000000000000000000000000000000000000000000000000\n      dup2\n      mstore\n      0x04\n      add\n      tag_154\n      swap1\n      tag_104\n      jump\t// in\n    tag_154:\n      mload(0x40)\n      dup1\n      swap2\n      sub\n      swap1\n      revert\n    tag_153:\n        /* \"OnDemo/contracts/AccountManagement.sol\":2278:2295  User storage user */\n      0x00\n        /* \"OnDemo/contracts/AccountManagement.sol\":2298:2303  users */\n      0x01\n        /* \"OnDemo/contracts/AccountManagement.sol\":2298:2313  users[_address] */\n      0x00\n        /* \"OnDemo/contracts/AccountManagement.sol\":2304:2312  _address */\n      dup5\n        /* \"OnDemo/contracts/AccountManagement.sol\":2298:2313  users[_address] */\n      0xffffffffffffffffffffffffffffffffffffffff\n      and\n      0xffffffffffffffffffffffffffffffffffffffff\n      and\n      dup2\n      mstore\n      0x20\n      add\n      swap1\n      dup2\n      mstore\n      0x20\n      add\n      0x00\n      keccak256\n        /* \"OnDemo/contracts/AccountManagement.sol\":2278:2313  User storage user = users[_address] */\n      swap1\n      pop\n        /* \"OnDemo/contracts/AccountManagement.sol\":2340:2344  true */\n      0x01\n        /* \"OnDemo/contracts/AccountManagement.sol\":2324:2328  user */\n      dup2\n        /* \"OnDemo/contracts/AccountManagement.sol\":2324:2337  user.isActive */\n      0x04\n      add\n      0x00\n        /* \"OnDemo/contracts/AccountManagement.sol\":2324:2344  user.isActive = true */\n      0x0100\n      exp\n      dup2\n      sload\n      dup2\n      0xff\n      mul\n      not\n      and\n      swap1\n      dup4\n      iszero\n      iszero\n      mul\n      or\n      swap1\n      sstore\n      pop\n        /* \"OnDemo/contracts/AccountManagement.sol\":2398:2420  RoleMap memory roleMap */\n      0x00\n        /* \"OnDemo/contracts/AccountManagement.sol\":2423:2427  user */\n      dup2\n        /* \"OnDemo/contracts/AccountManagement.sol\":2423:2435  user.roleMap */\n      0x05\n      add\n        /* \"OnDemo/contracts/AccountManagement.sol\":2398:2435  RoleMap memory roleMap = user.roleMap */\n      mload(0x40)\n      dup1\n      0x80\n      add\n      0x40\n      mstore\n      swap1\n      dup2\n      0x00\n      dup3\n      add\n      0x00\n      swap1\n      sload\n      swap1\n      0x0100\n      exp\n      swap1\n      div\n      0xff\n      and\n      iszero\n      iszero\n      iszero\n      iszero\n      dup2\n      mstore\n      0x20\n      add\n      0x00\n      dup3\n      add\n      0x01\n      swap1\n      sload\n      swap1\n      0x0100\n      exp\n      swap1\n      div\n      0xff\n      and\n      iszero\n      iszero\n      iszero\n      iszero\n      dup2\n      mstore\n      0x20\n      add\n      0x00\n      dup3\n      add\n      0x02\n      swap1\n      sload\n      swap1\n      0x0100\n      exp\n      swap1\n      div\n      0xff\n      and\n      iszero\n      iszero\n      iszero\n      iszero\n      dup2\n      mstore\n      0x20\n      add\n      0x00\n      dup3\n      add\n      0x03\n      swap1\n      sload\n      swap1\n      0x0100\n      exp\n      swap1\n      div\n      0xff\n      and\n      iszero\n      iszero\n      iszero\n      iszero\n      dup2\n      mstore\n      pop\n      pop\n      swap1\n      pop\n        /* \"OnDemo/contracts/AccountManagement.sol\":2449:2456  roleMap */\n      dup1\n        /* \"OnDemo/contracts/AccountManagement.sol\":2449:2465  roleMap.isLeader */\n      0x00\n      add\n      mload\n        /* \"OnDemo/contracts/AccountManagement.sol\":2449:2492  roleMap.isLeader || roleMap.isCouncilMember */\n      dup1\n      tag_156\n      jumpi\n      pop\n        /* \"OnDemo/contracts/AccountManagement.sol\":2469:2476  roleMap */\n      dup1\n        /* \"OnDemo/contracts/AccountManagement.sol\":2469:2492  roleMap.isCouncilMember */\n      0x20\n      add\n      mload\n        /* \"OnDemo/contracts/AccountManagement.sol\":2449:2492  roleMap.isLeader || roleMap.isCouncilMember */\n    tag_156:\n        /* \"OnDemo/contracts/AccountManagement.sol\":2449:2512  roleMap.isLeader || roleMap.isCouncilMember || roleMap.isMember */\n      dup1\n      tag_157\n      jumpi\n      pop\n        /* \"OnDemo/contracts/AccountManagement.sol\":2496:2503  roleMap */\n      dup1\n        /* \"OnDemo/contracts/AccountManagement.sol\":2496:2512  roleMap.isMember */\n      0x40\n      add\n      mload\n        /* \"OnDemo/contracts/AccountManagement.sol\":2449:2512  roleMap.isLeader || roleMap.isCouncilMember || roleMap.isMember */\n    tag_157:\n        /* \"OnDemo/contracts/AccountManagement.sol\":2446:2580  if(roleMap.isLeader || roleMap.isCouncilMember || roleMap.isMember)\r... */\n      iszero\n      tag_158\n      jumpi\n        /* \"OnDemo/contracts/AccountManagement.sol\":2564:2568  true */\n      0x01\n        /* \"OnDemo/contracts/AccountManagement.sol\":2538:2551  activeMembers */\n      0x02\n        /* \"OnDemo/contracts/AccountManagement.sol\":2538:2561  activeMembers[_address] */\n      0x00\n        /* \"OnDemo/contracts/AccountManagement.sol\":2552:2560  _address */\n      dup7\n        /* \"OnDemo/contracts/AccountManagement.sol\":2538:2561  activeMembers[_address] */\n      0xffffffffffffffffffffffffffffffffffffffff\n      and\n      0xffffffffffffffffffffffffffffffffffffffff\n      and\n      dup2\n      mstore\n      0x20\n      add\n      swap1\n      dup2\n      mstore\n      0x20\n      add\n      0x00\n      keccak256\n      0x00\n        /* \"OnDemo/contracts/AccountManagement.sol\":2538:2568  activeMembers[_address] = true */\n      0x0100\n      exp\n      dup2\n      sload\n      dup2\n      0xff\n      mul\n      not\n      and\n      swap1\n      dup4\n      iszero\n      iszero\n      mul\n      or\n      swap1\n      sstore\n      pop\n        /* \"OnDemo/contracts/AccountManagement.sol\":2446:2580  if(roleMap.isLeader || roleMap.isCouncilMember || roleMap.isMember)\r... */\n    tag_158:\n        /* \"OnDemo/contracts/AccountManagement.sol\":1622:1623  _ */\n      pop\n      pop\n        /* \"OnDemo/contracts/AccountManagement.sol\":2195:2587  function makeAccountActive(address _address) public userExists(_address){\r... */\n      pop\n      pop\n      jump\t// out\n        /* \"OnDemo/contracts/AccountManagement.sol\":3572:4351  function removeRole(address _address, Role _role) public onlyLeader userExists(_address){\r... */\n    tag_54:\n        /* \"OnDemo/contracts/AccountManagement.sol\":1387:1392  owner */\n      0x00\n      dup1\n      sload\n      swap1\n      0x0100\n      exp\n      swap1\n      div\n      0xffffffffffffffffffffffffffffffffffffffff\n      and\n        /* \"OnDemo/contracts/AccountManagement.sol\":1373:1392  msg.sender == owner */\n      0xffffffffffffffffffffffffffffffffffffffff\n      and\n        /* \"OnDemo/contracts/AccountManagement.sol\":1373:1383  msg.sender */\n      caller\n        /* \"OnDemo/contracts/AccountManagement.sol\":1373:1392  msg.sender == owner */\n      0xffffffffffffffffffffffffffffffffffffffff\n      and\n      eq\n        /* \"OnDemo/contracts/AccountManagement.sol\":1373:1421  msg.sender == owner || hasLeaderRole(msg.sender) */\n      dup1\n      tag_160\n      jumpi\n      pop\n        /* \"OnDemo/contracts/AccountManagement.sol\":1396:1421  hasLeaderRole(msg.sender) */\n      tag_161\n        /* \"OnDemo/contracts/AccountManagement.sol\":1410:1420  msg.sender */\n      caller\n        /* \"OnDemo/contracts/AccountManagement.sol\":1396:1409  hasLeaderRole */\n      tag_32\n        /* \"OnDemo/contracts/AccountManagement.sol\":1396:1421  hasLeaderRole(msg.sender) */\n      jump\t// in\n    tag_161:\n        /* \"OnDemo/contracts/AccountManagement.sol\":1373:1421  msg.sender == owner || hasLeaderRole(msg.sender) */\n    tag_160:\n        /* \"OnDemo/contracts/AccountManagement.sol\":1365:1460  require(msg.sender == owner || hasLeaderRole(msg.sender), \"Only owner can call this function.\") */\n      tag_162\n      jumpi\n      mload(0x40)\n      0x08c379a000000000000000000000000000000000000000000000000000000000\n      dup2\n      mstore\n      0x04\n      add\n      tag_163\n      swap1\n      tag_111\n      jump\t// in\n    tag_163:\n      mload(0x40)\n      dup1\n      swap2\n      sub\n      swap1\n      revert\n    tag_162:\n        /* \"OnDemo/contracts/AccountManagement.sol\":3651:3659  _address */\n      dup2\n        /* \"OnDemo/contracts/AccountManagement.sol\":1583:1584  0 */\n      0x00\n        /* \"OnDemo/contracts/AccountManagement.sol\":1544:1585  users[_address].userAddress != address(0) */\n      0xffffffffffffffffffffffffffffffffffffffff\n      and\n        /* \"OnDemo/contracts/AccountManagement.sol\":1544:1549  users */\n      0x01\n        /* \"OnDemo/contracts/AccountManagement.sol\":1544:1559  users[_address] */\n      0x00\n        /* \"OnDemo/contracts/AccountManagement.sol\":1550:1558  _address */\n      dup4\n        /* \"OnDemo/contracts/AccountManagement.sol\":1544:1559  users[_address] */\n      0xffffffffffffffffffffffffffffffffffffffff\n      and\n      0xffffffffffffffffffffffffffffffffffffffff\n      and\n      dup2\n      mstore\n      0x20\n      add\n      swap1\n      dup2\n      mstore\n      0x20\n      add\n      0x00\n      keccak256\n        /* \"OnDemo/contracts/AccountManagement.sol\":1544:1571  users[_address].userAddress */\n      0x00\n      add\n      0x00\n      swap1\n      sload\n      swap1\n      0x0100\n      exp\n      swap1\n      div\n      0xffffffffffffffffffffffffffffffffffffffff\n      and\n        /* \"OnDemo/contracts/AccountManagement.sol\":1544:1585  users[_address].userAddress != address(0) */\n      0xffffffffffffffffffffffffffffffffffffffff\n      and\n      eq\n      iszero\n        /* \"OnDemo/contracts/AccountManagement.sol\":1536:1611  require(users[_address].userAddress != address(0), \"Account doesn't exist\") */\n      tag_165\n      jumpi\n      mload(0x40)\n      0x08c379a000000000000000000000000000000000000000000000000000000000\n      dup2\n      mstore\n      0x04\n      add\n      tag_166\n      swap1\n      tag_104\n      jump\t// in\n    tag_166:\n      mload(0x40)\n      dup1\n      swap2\n      sub\n      swap1\n      revert\n    tag_165:\n        /* \"OnDemo/contracts/AccountManagement.sol\":3671:3688  User storage user */\n      0x00\n        /* \"OnDemo/contracts/AccountManagement.sol\":3691:3696  users */\n      0x01\n        /* \"OnDemo/contracts/AccountManagement.sol\":3691:3706  users[_address] */\n      0x00\n        /* \"OnDemo/contracts/AccountManagement.sol\":3697:3705  _address */\n      dup6\n        /* \"OnDemo/contracts/AccountManagement.sol\":3691:3706  users[_address] */\n      0xffffffffffffffffffffffffffffffffffffffff\n      and\n      0xffffffffffffffffffffffffffffffffffffffff\n      and\n      dup2\n      mstore\n      0x20\n      add\n      swap1\n      dup2\n      mstore\n      0x20\n      add\n      0x00\n      keccak256\n        /* \"OnDemo/contracts/AccountManagement.sol\":3671:3706  User storage user = users[_address] */\n      swap1\n      pop\n        /* \"OnDemo/contracts/AccountManagement.sol\":3717:3740  RoleMap storage roleMap */\n      0x00\n        /* \"OnDemo/contracts/AccountManagement.sol\":3743:3747  user */\n      dup2\n        /* \"OnDemo/contracts/AccountManagement.sol\":3743:3755  user.roleMap */\n      0x05\n      add\n        /* \"OnDemo/contracts/AccountManagement.sol\":3717:3755  RoleMap storage roleMap = user.roleMap */\n      swap1\n      pop\n        /* \"OnDemo/contracts/AccountManagement.sol\":3780:3791  Role.LEADER */\n      0x00\n        /* \"OnDemo/contracts/AccountManagement.sol\":3771:3791  _role == Role.LEADER */\n      0x03\n      dup2\n      gt\n      iszero\n      tag_168\n      jumpi\n      mstore(0x00, 0x4e487b7100000000000000000000000000000000000000000000000000000000)\n      mstore(0x04, 0x21)\n      revert(0x00, 0x24)\n    tag_168:\n        /* \"OnDemo/contracts/AccountManagement.sol\":3771:3776  _role */\n      dup5\n        /* \"OnDemo/contracts/AccountManagement.sol\":3771:3791  _role == Role.LEADER */\n      0x03\n      dup2\n      gt\n      iszero\n      tag_169\n      jumpi\n      mstore(0x00, 0x4e487b7100000000000000000000000000000000000000000000000000000000)\n      mstore(0x04, 0x21)\n      revert(0x00, 0x24)\n    tag_169:\n      eq\n        /* \"OnDemo/contracts/AccountManagement.sol\":3768:4144  if(_role == Role.LEADER){\r... */\n      iszero\n      tag_170\n      jumpi\n        /* \"OnDemo/contracts/AccountManagement.sol\":3826:3831  false */\n      0x00\n        /* \"OnDemo/contracts/AccountManagement.sol\":3807:3814  roleMap */\n      dup2\n        /* \"OnDemo/contracts/AccountManagement.sol\":3807:3823  roleMap.isLeader */\n      0x00\n      add\n      0x00\n        /* \"OnDemo/contracts/AccountManagement.sol\":3807:3831  roleMap.isLeader = false */\n      0x0100\n      exp\n      dup2\n      sload\n      dup2\n      0xff\n      mul\n      not\n      and\n      swap1\n      dup4\n      iszero\n      iszero\n      mul\n      or\n      swap1\n      sstore\n      pop\n        /* \"OnDemo/contracts/AccountManagement.sol\":3768:4144  if(_role == Role.LEADER){\r... */\n      jump(tag_171)\n    tag_170:\n        /* \"OnDemo/contracts/AccountManagement.sol\":3870:3888  Role.COUNCILMEMBER */\n      0x01\n        /* \"OnDemo/contracts/AccountManagement.sol\":3861:3888  _role == Role.COUNCILMEMBER */\n      0x03\n      dup2\n      gt\n      iszero\n      tag_172\n      jumpi\n      mstore(0x00, 0x4e487b7100000000000000000000000000000000000000000000000000000000)\n      mstore(0x04, 0x21)\n      revert(0x00, 0x24)\n    tag_172:\n        /* \"OnDemo/contracts/AccountManagement.sol\":3861:3866  _role */\n      dup5\n        /* \"OnDemo/contracts/AccountManagement.sol\":3861:3888  _role == Role.COUNCILMEMBER */\n      0x03\n      dup2\n      gt\n      iszero\n      tag_173\n      jumpi\n      mstore(0x00, 0x4e487b7100000000000000000000000000000000000000000000000000000000)\n      mstore(0x04, 0x21)\n      revert(0x00, 0x24)\n    tag_173:\n      eq\n        /* \"OnDemo/contracts/AccountManagement.sol\":3858:4144  if(_role == Role.COUNCILMEMBER){\r... */\n      iszero\n      tag_174\n      jumpi\n        /* \"OnDemo/contracts/AccountManagement.sol\":3930:3935  false */\n      0x00\n        /* \"OnDemo/contracts/AccountManagement.sol\":3904:3911  roleMap */\n      dup2\n        /* \"OnDemo/contracts/AccountManagement.sol\":3904:3927  roleMap.isCouncilMember */\n      0x00\n      add\n      0x01\n        /* \"OnDemo/contracts/AccountManagement.sol\":3904:3935  roleMap.isCouncilMember = false */\n      0x0100\n      exp\n      dup2\n      sload\n      dup2\n      0xff\n      mul\n      not\n      and\n      swap1\n      dup4\n      iszero\n      iszero\n      mul\n      or\n      swap1\n      sstore\n      pop\n        /* \"OnDemo/contracts/AccountManagement.sol\":3858:4144  if(_role == Role.COUNCILMEMBER){\r... */\n      jump(tag_175)\n    tag_174:\n        /* \"OnDemo/contracts/AccountManagement.sol\":3981:3992  Role.MEMBER */\n      0x02\n        /* \"OnDemo/contracts/AccountManagement.sol\":3972:3992  _role == Role.MEMBER */\n      0x03\n      dup2\n      gt\n      iszero\n      tag_176\n      jumpi\n      mstore(0x00, 0x4e487b7100000000000000000000000000000000000000000000000000000000)\n      mstore(0x04, 0x21)\n      revert(0x00, 0x24)\n    tag_176:\n        /* \"OnDemo/contracts/AccountManagement.sol\":3972:3977  _role */\n      dup5\n        /* \"OnDemo/contracts/AccountManagement.sol\":3972:3992  _role == Role.MEMBER */\n      0x03\n      dup2\n      gt\n      iszero\n      tag_177\n      jumpi\n      mstore(0x00, 0x4e487b7100000000000000000000000000000000000000000000000000000000)\n      mstore(0x04, 0x21)\n      revert(0x00, 0x24)\n    tag_177:\n      eq\n        /* \"OnDemo/contracts/AccountManagement.sol\":3969:4144  if(_role == Role.MEMBER){\r... */\n      iszero\n      tag_178\n      jumpi\n        /* \"OnDemo/contracts/AccountManagement.sol\":4027:4032  false */\n      0x00\n        /* \"OnDemo/contracts/AccountManagement.sol\":4008:4015  roleMap */\n      dup2\n        /* \"OnDemo/contracts/AccountManagement.sol\":4008:4024  roleMap.isMember */\n      0x00\n      add\n      0x02\n        /* \"OnDemo/contracts/AccountManagement.sol\":4008:4032  roleMap.isMember = false */\n      0x0100\n      exp\n      dup2\n      sload\n      dup2\n      0xff\n      mul\n      not\n      and\n      swap1\n      dup4\n      iszero\n      iszero\n      mul\n      or\n      swap1\n      sstore\n      pop\n        /* \"OnDemo/contracts/AccountManagement.sol\":3969:4144  if(_role == Role.MEMBER){\r... */\n      jump(tag_179)\n    tag_178:\n        /* \"OnDemo/contracts/AccountManagement.sol\":4071:4081  Role.GUEST */\n      0x03\n        /* \"OnDemo/contracts/AccountManagement.sol\":4062:4081  _role == Role.GUEST */\n      dup1\n      dup2\n      gt\n      iszero\n      tag_180\n      jumpi\n      mstore(0x00, 0x4e487b7100000000000000000000000000000000000000000000000000000000)\n      mstore(0x04, 0x21)\n      revert(0x00, 0x24)\n    tag_180:\n        /* \"OnDemo/contracts/AccountManagement.sol\":4062:4067  _role */\n      dup5\n        /* \"OnDemo/contracts/AccountManagement.sol\":4062:4081  _role == Role.GUEST */\n      0x03\n      dup2\n      gt\n      iszero\n      tag_181\n      jumpi\n      mstore(0x00, 0x4e487b7100000000000000000000000000000000000000000000000000000000)\n      mstore(0x04, 0x21)\n      revert(0x00, 0x24)\n    tag_181:\n      eq\n        /* \"OnDemo/contracts/AccountManagement.sol\":4059:4144  if(_role == Role.GUEST){\r... */\n      iszero\n      tag_182\n      jumpi\n        /* \"OnDemo/contracts/AccountManagement.sol\":4115:4120  false */\n      0x00\n        /* \"OnDemo/contracts/AccountManagement.sol\":4097:4104  roleMap */\n      dup2\n        /* \"OnDemo/contracts/AccountManagement.sol\":4097:4112  roleMap.isGuest */\n      0x00\n      add\n      0x03\n        /* \"OnDemo/contracts/AccountManagement.sol\":4097:4120  roleMap.isGuest = false */\n      0x0100\n      exp\n      dup2\n      sload\n      dup2\n      0xff\n      mul\n      not\n      and\n      swap1\n      dup4\n      iszero\n      iszero\n      mul\n      or\n      swap1\n      sstore\n      pop\n        /* \"OnDemo/contracts/AccountManagement.sol\":4059:4144  if(_role == Role.GUEST){\r... */\n    tag_182:\n        /* \"OnDemo/contracts/AccountManagement.sol\":3969:4144  if(_role == Role.MEMBER){\r... */\n    tag_179:\n        /* \"OnDemo/contracts/AccountManagement.sol\":3858:4144  if(_role == Role.COUNCILMEMBER){\r... */\n    tag_175:\n        /* \"OnDemo/contracts/AccountManagement.sol\":3768:4144  if(_role == Role.LEADER){\r... */\n    tag_171:\n        /* \"OnDemo/contracts/AccountManagement.sol\":4160:4167  roleMap */\n      dup1\n        /* \"OnDemo/contracts/AccountManagement.sol\":4160:4176  roleMap.isLeader */\n      0x00\n      add\n      0x00\n      swap1\n      sload\n      swap1\n      0x0100\n      exp\n      swap1\n      div\n      0xff\n      and\n        /* \"OnDemo/contracts/AccountManagement.sol\":4159:4176  !roleMap.isLeader */\n      iszero\n        /* \"OnDemo/contracts/AccountManagement.sol\":4159:4204  !roleMap.isLeader && !roleMap.isCouncilMember */\n      dup1\n      iszero\n      tag_183\n      jumpi\n      pop\n        /* \"OnDemo/contracts/AccountManagement.sol\":4181:4188  roleMap */\n      dup1\n        /* \"OnDemo/contracts/AccountManagement.sol\":4181:4204  roleMap.isCouncilMember */\n      0x00\n      add\n      0x01\n      swap1\n      sload\n      swap1\n      0x0100\n      exp\n      swap1\n      div\n      0xff\n      and\n        /* \"OnDemo/contracts/AccountManagement.sol\":4180:4204  !roleMap.isCouncilMember */\n      iszero\n        /* \"OnDemo/contracts/AccountManagement.sol\":4159:4204  !roleMap.isLeader && !roleMap.isCouncilMember */\n    tag_183:\n        /* \"OnDemo/contracts/AccountManagement.sol\":4159:4225  !roleMap.isLeader && !roleMap.isCouncilMember && !roleMap.isMember */\n      dup1\n      iszero\n      tag_184\n      jumpi\n      pop\n        /* \"OnDemo/contracts/AccountManagement.sol\":4209:4216  roleMap */\n      dup1\n        /* \"OnDemo/contracts/AccountManagement.sol\":4209:4225  roleMap.isMember */\n      0x00\n      add\n      0x02\n      swap1\n      sload\n      swap1\n      0x0100\n      exp\n      swap1\n      div\n      0xff\n      and\n        /* \"OnDemo/contracts/AccountManagement.sol\":4208:4225  !roleMap.isMember */\n      iszero\n        /* \"OnDemo/contracts/AccountManagement.sol\":4159:4225  !roleMap.isLeader && !roleMap.isCouncilMember && !roleMap.isMember */\n    tag_184:\n        /* \"OnDemo/contracts/AccountManagement.sol\":4156:4344  if(!roleMap.isLeader && !roleMap.isCouncilMember && !roleMap.isMember)\r... */\n      iszero\n      tag_185\n      jumpi\n        /* \"OnDemo/contracts/AccountManagement.sol\":4327:4332  false */\n      0x00\n        /* \"OnDemo/contracts/AccountManagement.sol\":4301:4314  activeMembers */\n      0x02\n        /* \"OnDemo/contracts/AccountManagement.sol\":4301:4324  activeMembers[_address] */\n      0x00\n        /* \"OnDemo/contracts/AccountManagement.sol\":4315:4323  _address */\n      dup8\n        /* \"OnDemo/contracts/AccountManagement.sol\":4301:4324  activeMembers[_address] */\n      0xffffffffffffffffffffffffffffffffffffffff\n      and\n      0xffffffffffffffffffffffffffffffffffffffff\n      and\n      dup2\n      mstore\n      0x20\n      add\n      swap1\n      dup2\n      mstore\n      0x20\n      add\n      0x00\n      keccak256\n      0x00\n        /* \"OnDemo/contracts/AccountManagement.sol\":4301:4332  activeMembers[_address] = false */\n      0x0100\n      exp\n      dup2\n      sload\n      dup2\n      0xff\n      mul\n      not\n      and\n      swap1\n      dup4\n      iszero\n      iszero\n      mul\n      or\n      swap1\n      sstore\n      pop\n        /* \"OnDemo/contracts/AccountManagement.sol\":4156:4344  if(!roleMap.isLeader && !roleMap.isCouncilMember && !roleMap.isMember)\r... */\n    tag_185:\n        /* \"OnDemo/contracts/AccountManagement.sol\":1622:1623  _ */\n      pop\n      pop\n        /* \"OnDemo/contracts/AccountManagement.sol\":1471:1472  _ */\n      pop\n        /* \"OnDemo/contracts/AccountManagement.sol\":3572:4351  function removeRole(address _address, Role _role) public onlyLeader userExists(_address){\r... */\n      pop\n      pop\n      jump\t// out\n        /* \"OnDemo/contracts/AccountManagement.sol\":7542:7920  function hasRightToSupport(address _address) external view returns (bool) {\r... */\n    tag_57:\n        /* \"OnDemo/contracts/AccountManagement.sol\":7610:7614  bool */\n      0x00\n        /* \"OnDemo/contracts/AccountManagement.sol\":7627:7643  User memory user */\n      dup1\n        /* \"OnDemo/contracts/AccountManagement.sol\":7646:7651  users */\n      0x01\n        /* \"OnDemo/contracts/AccountManagement.sol\":7646:7661  users[_address] */\n      0x00\n        /* \"OnDemo/contracts/AccountManagement.sol\":7652:7660  _address */\n      dup5\n        /* \"OnDemo/contracts/AccountManagement.sol\":7646:7661  users[_address] */\n      0xffffffffffffffffffffffffffffffffffffffff\n      and\n      0xffffffffffffffffffffffffffffffffffffffff\n      and\n      dup2\n      mstore\n      0x20\n      add\n      swap1\n      dup2\n      mstore\n      0x20\n      add\n      0x00\n      keccak256\n        /* \"OnDemo/contracts/AccountManagement.sol\":7627:7661  User memory user = users[_address] */\n      mload(0x40)\n      dup1\n      0xc0\n      add\n      0x40\n      mstore\n      swap1\n      dup2\n      0x00\n      dup3\n      add\n      0x00\n      swap1\n      sload\n      swap1\n      0x0100\n      exp\n      swap1\n      div\n      0xffffffffffffffffffffffffffffffffffffffff\n      and\n      0xffffffffffffffffffffffffffffffffffffffff\n      and\n      0xffffffffffffffffffffffffffffffffffffffff\n      and\n      dup2\n      mstore\n      0x20\n      add\n      0x01\n      dup3\n      add\n      dup1\n      sload\n      tag_187\n      swap1\n      tag_76\n      jump\t// in\n    tag_187:\n      dup1\n      0x1f\n      add\n      0x20\n      dup1\n      swap2\n      div\n      mul\n      0x20\n      add\n      mload(0x40)\n      swap1\n      dup2\n      add\n      0x40\n      mstore\n      dup1\n      swap3\n      swap2\n      swap1\n      dup2\n      dup2\n      mstore\n      0x20\n      add\n      dup3\n      dup1\n      sload\n      tag_188\n      swap1\n      tag_76\n      jump\t// in\n    tag_188:\n      dup1\n      iszero\n      tag_189\n      jumpi\n      dup1\n      0x1f\n      lt\n      tag_190\n      jumpi\n      0x0100\n      dup1\n      dup4\n      sload\n      div\n      mul\n      dup4\n      mstore\n      swap2\n      0x20\n      add\n      swap2\n      jump(tag_189)\n    tag_190:\n      dup3\n      add\n      swap2\n      swap1\n      0x00\n      mstore\n      keccak256(0x00, 0x20)\n      swap1\n    tag_191:\n      dup2\n      sload\n      dup2\n      mstore\n      swap1\n      0x01\n      add\n      swap1\n      0x20\n      add\n      dup1\n      dup4\n      gt\n      tag_191\n      jumpi\n      dup3\n      swap1\n      sub\n      0x1f\n      and\n      dup3\n      add\n      swap2\n    tag_189:\n      pop\n      pop\n      pop\n      pop\n      pop\n      dup2\n      mstore\n      0x20\n      add\n      0x02\n      dup3\n      add\n      dup1\n      sload\n      tag_192\n      swap1\n      tag_76\n      jump\t// in\n    tag_192:\n      dup1\n      0x1f\n      add\n      0x20\n      dup1\n      swap2\n      div\n      mul\n      0x20\n      add\n      mload(0x40)\n      swap1\n      dup2\n      add\n      0x40\n      mstore\n      dup1\n      swap3\n      swap2\n      swap1\n      dup2\n      dup2\n      mstore\n      0x20\n      add\n      dup3\n      dup1\n      sload\n      tag_193\n      swap1\n      tag_76\n      jump\t// in\n    tag_193:\n      dup1\n      iszero\n      tag_194\n      jumpi\n      dup1\n      0x1f\n      lt\n      tag_195\n      jumpi\n      0x0100\n      dup1\n      dup4\n      sload\n      div\n      mul\n      dup4\n      mstore\n      swap2\n      0x20\n      add\n      swap2\n      jump(tag_194)\n    tag_195:\n      dup3\n      add\n      swap2\n      swap1\n      0x00\n      mstore\n      keccak256(0x00, 0x20)\n      swap1\n    tag_196:\n      dup2\n      sload\n      dup2\n      mstore\n      swap1\n      0x01\n      add\n      swap1\n      0x20\n      add\n      dup1\n      dup4\n      gt\n      tag_196\n      jumpi\n      dup3\n      swap1\n      sub\n      0x1f\n      and\n      dup3\n      add\n      swap2\n    tag_194:\n      pop\n      pop\n      pop\n      pop\n      pop\n      dup2\n      mstore\n      0x20\n      add\n      0x03\n      dup3\n      add\n      dup1\n      sload\n      tag_197\n      swap1\n      tag_76\n      jump\t// in\n    tag_197:\n      dup1\n      0x1f\n      add\n      0x20\n      dup1\n      swap2\n      div\n      mul\n      0x20\n      add\n      mload(0x40)\n      swap1\n      dup2\n      add\n      0x40\n      mstore\n      dup1\n      swap3\n      swap2\n      swap1\n      dup2\n      dup2\n      mstore\n      0x20\n      add\n      dup3\n      dup1\n      sload\n      tag_198\n      swap1\n      tag_76\n      jump\t// in\n    tag_198:\n      dup1\n      iszero\n      tag_199\n      jumpi\n      dup1\n      0x1f\n      lt\n      tag_200\n      jumpi\n      0x0100\n      dup1\n      dup4\n      sload\n      div\n      mul\n      dup4\n      mstore\n      swap2\n      0x20\n      add\n      swap2\n      jump(tag_199)\n    tag_200:\n      dup3\n      add\n      swap2\n      swap1\n      0x00\n      mstore\n      keccak256(0x00, 0x20)\n      swap1\n    tag_201:\n      dup2\n      sload\n      dup2\n      mstore\n      swap1\n      0x01\n      add\n      swap1\n      0x20\n      add\n      dup1\n      dup4\n      gt\n      tag_201\n      jumpi\n      dup3\n      swap1\n      sub\n      0x1f\n      and\n      dup3\n      add\n      swap2\n    tag_199:\n      pop\n      pop\n      pop\n      pop\n      pop\n      dup2\n      mstore\n      0x20\n      add\n      0x04\n      dup3\n      add\n      0x00\n      swap1\n      sload\n      swap1\n      0x0100\n      exp\n      swap1\n      div\n      0xff\n      and\n      iszero\n      iszero\n      iszero\n      iszero\n      dup2\n      mstore\n      0x20\n      add\n      0x05\n      dup3\n      add\n      mload(0x40)\n      dup1\n      0x80\n      add\n      0x40\n      mstore\n      swap1\n      dup2\n      0x00\n      dup3\n      add\n      0x00\n      swap1\n      sload\n      swap1\n      0x0100\n      exp\n      swap1\n      div\n      0xff\n      and\n      iszero\n      iszero\n      iszero\n      iszero\n      dup2\n      mstore\n      0x20\n      add\n      0x00\n      dup3\n      add\n      0x01\n      swap1\n      sload\n      swap1\n      0x0100\n      exp\n      swap1\n      div\n      0xff\n      and\n      iszero\n      iszero\n      iszero\n      iszero\n      dup2\n      mstore\n      0x20\n      add\n      0x00\n      dup3\n      add\n      0x02\n      swap1\n      sload\n      swap1\n      0x0100\n      exp\n      swap1\n      div\n      0xff\n      and\n      iszero\n      iszero\n      iszero\n      iszero\n      dup2\n      mstore\n      0x20\n      add\n      0x00\n      dup3\n      add\n      0x03\n      swap1\n      sload\n      swap1\n      0x0100\n      exp\n      swap1\n      div\n      0xff\n      and\n      iszero\n      iszero\n      iszero\n      iszero\n      dup2\n      mstore\n      pop\n      pop\n      dup2\n      mstore\n      pop\n      pop\n      swap1\n      pop\n        /* \"OnDemo/contracts/AccountManagement.sol\":7703:7704  0 */\n      0x00\n        /* \"OnDemo/contracts/AccountManagement.sol\":7675:7705  user.userAddress != address(0) */\n      0xffffffffffffffffffffffffffffffffffffffff\n      and\n        /* \"OnDemo/contracts/AccountManagement.sol\":7675:7679  user */\n      dup2\n        /* \"OnDemo/contracts/AccountManagement.sol\":7675:7691  user.userAddress */\n      0x00\n      add\n      mload\n        /* \"OnDemo/contracts/AccountManagement.sol\":7675:7705  user.userAddress != address(0) */\n      0xffffffffffffffffffffffffffffffffffffffff\n      and\n      eq\n        /* \"OnDemo/contracts/AccountManagement.sol\":7672:7889  if(user.userAddress != address(0))\r... */\n      tag_202\n      jumpi\n        /* \"OnDemo/contracts/AccountManagement.sol\":7734:7738  user */\n      dup1\n        /* \"OnDemo/contracts/AccountManagement.sol\":7734:7747  user.isActive */\n      0x80\n      add\n      mload\n        /* \"OnDemo/contracts/AccountManagement.sol\":7734:7831  user.isActive && (user.roleMap.isLeader || user.roleMap.isCouncilMember || user.roleMap.isMember) */\n      dup1\n      iszero\n      tag_203\n      jumpi\n      pop\n        /* \"OnDemo/contracts/AccountManagement.sol\":7752:7756  user */\n      dup1\n        /* \"OnDemo/contracts/AccountManagement.sol\":7752:7764  user.roleMap */\n      0xa0\n      add\n      mload\n        /* \"OnDemo/contracts/AccountManagement.sol\":7752:7773  user.roleMap.isLeader */\n      0x00\n      add\n      mload\n        /* \"OnDemo/contracts/AccountManagement.sol\":7752:7805  user.roleMap.isLeader || user.roleMap.isCouncilMember */\n      dup1\n      tag_204\n      jumpi\n      pop\n        /* \"OnDemo/contracts/AccountManagement.sol\":7777:7781  user */\n      dup1\n        /* \"OnDemo/contracts/AccountManagement.sol\":7777:7789  user.roleMap */\n      0xa0\n      add\n      mload\n        /* \"OnDemo/contracts/AccountManagement.sol\":7777:7805  user.roleMap.isCouncilMember */\n      0x20\n      add\n      mload\n        /* \"OnDemo/contracts/AccountManagement.sol\":7752:7805  user.roleMap.isLeader || user.roleMap.isCouncilMember */\n    tag_204:\n        /* \"OnDemo/contracts/AccountManagement.sol\":7752:7830  user.roleMap.isLeader || user.roleMap.isCouncilMember || user.roleMap.isMember */\n      dup1\n      tag_205\n      jumpi\n      pop\n        /* \"OnDemo/contracts/AccountManagement.sol\":7809:7813  user */\n      dup1\n        /* \"OnDemo/contracts/AccountManagement.sol\":7809:7821  user.roleMap */\n      0xa0\n      add\n      mload\n        /* \"OnDemo/contracts/AccountManagement.sol\":7809:7830  user.roleMap.isMember */\n      0x40\n      add\n      mload\n        /* \"OnDemo/contracts/AccountManagement.sol\":7752:7830  user.roleMap.isLeader || user.roleMap.isCouncilMember || user.roleMap.isMember */\n    tag_205:\n        /* \"OnDemo/contracts/AccountManagement.sol\":7734:7831  user.isActive && (user.roleMap.isLeader || user.roleMap.isCouncilMember || user.roleMap.isMember) */\n    tag_203:\n        /* \"OnDemo/contracts/AccountManagement.sol\":7731:7878  if(user.isActive && (user.roleMap.isLeader || user.roleMap.isCouncilMember || user.roleMap.isMember)){\r... */\n      iszero\n      tag_206\n      jumpi\n        /* \"OnDemo/contracts/AccountManagement.sol\":7858:7862  true */\n      0x01\n        /* \"OnDemo/contracts/AccountManagement.sol\":7851:7862  return true */\n      swap2\n      pop\n      pop\n      jump(tag_186)\n        /* \"OnDemo/contracts/AccountManagement.sol\":7731:7878  if(user.isActive && (user.roleMap.isLeader || user.roleMap.isCouncilMember || user.roleMap.isMember)){\r... */\n    tag_206:\n        /* \"OnDemo/contracts/AccountManagement.sol\":7672:7889  if(user.userAddress != address(0))\r... */\n    tag_202:\n        /* \"OnDemo/contracts/AccountManagement.sol\":7907:7912  false */\n      0x00\n        /* \"OnDemo/contracts/AccountManagement.sol\":7899:7912  return  false */\n      swap2\n      pop\n      pop\n        /* \"OnDemo/contracts/AccountManagement.sol\":7542:7920  function hasRightToSupport(address _address) external view returns (bool) {\r... */\n    tag_186:\n      swap2\n      swap1\n      pop\n      jump\t// out\n        /* \"OnDemo/contracts/AccountManagement.sol\":2852:2967  function burnAccount(address _address) public userExists(_address){\r... */\n    tag_61:\n        /* \"OnDemo/contracts/AccountManagement.sol\":2909:2917  _address */\n      dup1\n        /* \"OnDemo/contracts/AccountManagement.sol\":1583:1584  0 */\n      0x00\n        /* \"OnDemo/contracts/AccountManagement.sol\":1544:1585  users[_address].userAddress != address(0) */\n      0xffffffffffffffffffffffffffffffffffffffff\n      and\n        /* \"OnDemo/contracts/AccountManagement.sol\":1544:1549  users */\n      0x01\n        /* \"OnDemo/contracts/AccountManagement.sol\":1544:1559  users[_address] */\n      0x00\n        /* \"OnDemo/contracts/AccountManagement.sol\":1550:1558  _address */\n      dup4\n        /* \"OnDemo/contracts/AccountManagement.sol\":1544:1559  users[_address] */\n      0xffffffffffffffffffffffffffffffffffffffff\n      and\n      0xffffffffffffffffffffffffffffffffffffffff\n      and\n      dup2\n      mstore\n      0x20\n      add\n      swap1\n      dup2\n      mstore\n      0x20\n      add\n      0x00\n      keccak256\n        /* \"OnDemo/contracts/AccountManagement.sol\":1544:1571  users[_address].userAddress */\n      0x00\n      add\n      0x00\n      swap1\n      sload\n      swap1\n      0x0100\n      exp\n      swap1\n      div\n      0xffffffffffffffffffffffffffffffffffffffff\n      and\n        /* \"OnDemo/contracts/AccountManagement.sol\":1544:1585  users[_address].userAddress != address(0) */\n      0xffffffffffffffffffffffffffffffffffffffff\n      and\n      eq\n      iszero\n        /* \"OnDemo/contracts/AccountManagement.sol\":1536:1611  require(users[_address].userAddress != address(0), \"Account doesn't exist\") */\n      tag_208\n      jumpi\n      mload(0x40)\n      0x08c379a000000000000000000000000000000000000000000000000000000000\n      dup2\n      mstore\n      0x04\n      add\n      tag_209\n      swap1\n      tag_104\n      jump\t// in\n    tag_209:\n      mload(0x40)\n      dup1\n      swap2\n      sub\n      swap1\n      revert\n    tag_208:\n        /* \"OnDemo/contracts/AccountManagement.sol\":2936:2941  users */\n      0x01\n        /* \"OnDemo/contracts/AccountManagement.sol\":2936:2951  users[_address] */\n      0x00\n        /* \"OnDemo/contracts/AccountManagement.sol\":2942:2950  _address */\n      dup4\n        /* \"OnDemo/contracts/AccountManagement.sol\":2936:2951  users[_address] */\n      0xffffffffffffffffffffffffffffffffffffffff\n      and\n      0xffffffffffffffffffffffffffffffffffffffff\n      and\n      dup2\n      mstore\n      0x20\n      add\n      swap1\n      dup2\n      mstore\n      0x20\n      add\n      0x00\n      keccak256\n      0x00\n        /* \"OnDemo/contracts/AccountManagement.sol\":2929:2951  delete users[_address] */\n      dup1\n      dup3\n      add\n      exp(0x0100, 0x00)\n      dup2\n      sload\n      swap1\n      0xffffffffffffffffffffffffffffffffffffffff\n      mul\n      not\n      and\n      swap1\n      sstore\n      0x01\n      dup3\n      add\n      0x00\n      tag_211\n      swap2\n      swap1\n      tag_212\n      jump\t// in\n    tag_211:\n      0x02\n      dup3\n      add\n      0x00\n      tag_213\n      swap2\n      swap1\n      tag_212\n      jump\t// in\n    tag_213:\n      0x03\n      dup3\n      add\n      0x00\n      tag_214\n      swap2\n      swap1\n      tag_212\n      jump\t// in\n    tag_214:\n      0x04\n      dup3\n      add\n      exp(0x0100, 0x00)\n      dup2\n      sload\n      swap1\n      0xff\n      mul\n      not\n      and\n      swap1\n      sstore\n      0x05\n      dup3\n      add\n      0x00\n      dup1\n      dup3\n      add\n      exp(0x0100, 0x00)\n      dup2\n      sload\n      swap1\n      0xff\n      mul\n      not\n      and\n      swap1\n      sstore\n      0x00\n      dup3\n      add\n      exp(0x0100, 0x01)\n      dup2\n      sload\n      swap1\n      0xff\n      mul\n      not\n      and\n      swap1\n      sstore\n      0x00\n      dup3\n      add\n      exp(0x0100, 0x02)\n      dup2\n      sload\n      swap1\n      0xff\n      mul\n      not\n      and\n      swap1\n      sstore\n      0x00\n      dup3\n      add\n      exp(0x0100, 0x03)\n      dup2\n      sload\n      swap1\n      0xff\n      mul\n      not\n      and\n      swap1\n      sstore\n      pop\n      pop\n      pop\n      pop\n        /* \"OnDemo/contracts/AccountManagement.sol\":2852:2967  function burnAccount(address _address) public userExists(_address){\r... */\n      pop\n      pop\n      jump\t// out\n        /* \"OnDemo/contracts/AccountManagement.sol\":1823:2187  function createAccount(address _address, string memory _firstName, string memory _secondName, string memory _mailAdress) public userNotExists(_address){\r... */\n    tag_65:\n        /* \"OnDemo/contracts/AccountManagement.sol\":1965:1973  _address */\n      dup4\n        /* \"OnDemo/contracts/AccountManagement.sol\":1737:1738  0 */\n      0x00\n        /* \"OnDemo/contracts/AccountManagement.sol\":1698:1739  users[_address].userAddress == address(0) */\n      0xffffffffffffffffffffffffffffffffffffffff\n      and\n        /* \"OnDemo/contracts/AccountManagement.sol\":1698:1703  users */\n      0x01\n        /* \"OnDemo/contracts/AccountManagement.sol\":1698:1713  users[_address] */\n      0x00\n        /* \"OnDemo/contracts/AccountManagement.sol\":1704:1712  _address */\n      dup4\n        /* \"OnDemo/contracts/AccountManagement.sol\":1698:1713  users[_address] */\n      0xffffffffffffffffffffffffffffffffffffffff\n      and\n      0xffffffffffffffffffffffffffffffffffffffff\n      and\n      dup2\n      mstore\n      0x20\n      add\n      swap1\n      dup2\n      mstore\n      0x20\n      add\n      0x00\n      keccak256\n        /* \"OnDemo/contracts/AccountManagement.sol\":1698:1725  users[_address].userAddress */\n      0x00\n      add\n      0x00\n      swap1\n      sload\n      swap1\n      0x0100\n      exp\n      swap1\n      div\n      0xffffffffffffffffffffffffffffffffffffffff\n      and\n        /* \"OnDemo/contracts/AccountManagement.sol\":1698:1739  users[_address].userAddress == address(0) */\n      0xffffffffffffffffffffffffffffffffffffffff\n      and\n      eq\n        /* \"OnDemo/contracts/AccountManagement.sol\":1690:1766  require(users[_address].userAddress == address(0), \"Account already exists\") */\n      tag_216\n      jumpi\n      mload(0x40)\n      0x08c379a000000000000000000000000000000000000000000000000000000000\n      dup2\n      mstore\n      0x04\n      add\n      tag_217\n      swap1\n      tag_218\n      jump\t// in\n    tag_217:\n      mload(0x40)\n      dup1\n      swap2\n      sub\n      swap1\n      revert\n    tag_216:\n        /* \"OnDemo/contracts/AccountManagement.sol\":1985:2007  RoleMap memory roleMap */\n      0x00\n        /* \"OnDemo/contracts/AccountManagement.sol\":2010:2044  RoleMap(false, false, false, true) */\n      mload(0x40)\n      dup1\n      0x80\n      add\n      0x40\n      mstore\n      dup1\n        /* \"OnDemo/contracts/AccountManagement.sol\":2018:2023  false */\n      0x00\n        /* \"OnDemo/contracts/AccountManagement.sol\":2010:2044  RoleMap(false, false, false, true) */\n      iszero\n      iszero\n      dup2\n      mstore\n      0x20\n      add\n        /* \"OnDemo/contracts/AccountManagement.sol\":2025:2030  false */\n      0x00\n        /* \"OnDemo/contracts/AccountManagement.sol\":2010:2044  RoleMap(false, false, false, true) */\n      iszero\n      iszero\n      dup2\n      mstore\n      0x20\n      add\n        /* \"OnDemo/contracts/AccountManagement.sol\":2032:2037  false */\n      0x00\n        /* \"OnDemo/contracts/AccountManagement.sol\":2010:2044  RoleMap(false, false, false, true) */\n      iszero\n      iszero\n      dup2\n      mstore\n      0x20\n      add\n        /* \"OnDemo/contracts/AccountManagement.sol\":2039:2043  true */\n      0x01\n        /* \"OnDemo/contracts/AccountManagement.sol\":2010:2044  RoleMap(false, false, false, true) */\n      iszero\n      iszero\n      dup2\n      mstore\n      pop\n        /* \"OnDemo/contracts/AccountManagement.sol\":1985:2044  RoleMap memory roleMap = RoleMap(false, false, false, true) */\n      swap1\n      pop\n        /* \"OnDemo/contracts/AccountManagement.sol\":2055:2071  User memory user */\n      0x00\n        /* \"OnDemo/contracts/AccountManagement.sol\":2074:2141  User(_address, _firstName, _secondName, _mailAdress, true, roleMap) */\n      mload(0x40)\n      dup1\n      0xc0\n      add\n      0x40\n      mstore\n      dup1\n        /* \"OnDemo/contracts/AccountManagement.sol\":2079:2087  _address */\n      dup9\n        /* \"OnDemo/contracts/AccountManagement.sol\":2074:2141  User(_address, _firstName, _secondName, _mailAdress, true, roleMap) */\n      0xffffffffffffffffffffffffffffffffffffffff\n      and\n      dup2\n      mstore\n      0x20\n      add\n        /* \"OnDemo/contracts/AccountManagement.sol\":2089:2099  _firstName */\n      dup8\n        /* \"OnDemo/contracts/AccountManagement.sol\":2074:2141  User(_address, _firstName, _secondName, _mailAdress, true, roleMap) */\n      dup2\n      mstore\n      0x20\n      add\n        /* \"OnDemo/contracts/AccountManagement.sol\":2101:2112  _secondName */\n      dup7\n        /* \"OnDemo/contracts/AccountManagement.sol\":2074:2141  User(_address, _firstName, _secondName, _mailAdress, true, roleMap) */\n      dup2\n      mstore\n      0x20\n      add\n        /* \"OnDemo/contracts/AccountManagement.sol\":2114:2125  _mailAdress */\n      dup6\n        /* \"OnDemo/contracts/AccountManagement.sol\":2074:2141  User(_address, _firstName, _secondName, _mailAdress, true, roleMap) */\n      dup2\n      mstore\n      0x20\n      add\n        /* \"OnDemo/contracts/AccountManagement.sol\":2127:2131  true */\n      0x01\n        /* \"OnDemo/contracts/AccountManagement.sol\":2074:2141  User(_address, _firstName, _secondName, _mailAdress, true, roleMap) */\n      iszero\n      iszero\n      dup2\n      mstore\n      0x20\n      add\n        /* \"OnDemo/contracts/AccountManagement.sol\":2133:2140  roleMap */\n      dup4\n        /* \"OnDemo/contracts/AccountManagement.sol\":2074:2141  User(_address, _firstName, _secondName, _mailAdress, true, roleMap) */\n      dup2\n      mstore\n      pop\n        /* \"OnDemo/contracts/AccountManagement.sol\":2055:2141  User memory user = User(_address, _firstName, _secondName, _mailAdress, true, roleMap) */\n      swap1\n      pop\n        /* \"OnDemo/contracts/AccountManagement.sol\":2170:2174  user */\n      dup1\n        /* \"OnDemo/contracts/AccountManagement.sol\":2152:2157  users */\n      0x01\n        /* \"OnDemo/contracts/AccountManagement.sol\":2152:2167  users[_address] */\n      0x00\n        /* \"OnDemo/contracts/AccountManagement.sol\":2158:2166  _address */\n      dup10\n        /* \"OnDemo/contracts/AccountManagement.sol\":2152:2167  users[_address] */\n      0xffffffffffffffffffffffffffffffffffffffff\n      and\n      0xffffffffffffffffffffffffffffffffffffffff\n      and\n      dup2\n      mstore\n      0x20\n      add\n      swap1\n      dup2\n      mstore\n      0x20\n      add\n      0x00\n      keccak256\n        /* \"OnDemo/contracts/AccountManagement.sol\":2152:2174  users[_address] = user */\n      0x00\n      dup3\n      add\n      mload\n      dup2\n      0x00\n      add\n      exp(0x0100, 0x00)\n      dup2\n      sload\n      dup2\n      0xffffffffffffffffffffffffffffffffffffffff\n      mul\n      not\n      and\n      swap1\n      dup4\n      0xffffffffffffffffffffffffffffffffffffffff\n      and\n      mul\n      or\n      swap1\n      sstore\n      pop\n      0x20\n      dup3\n      add\n      mload\n      dup2\n      0x01\n      add\n      swap1\n      dup1\n      mload\n      swap1\n      0x20\n      add\n      swap1\n      tag_220\n      swap3\n      swap2\n      swap1\n      tag_221\n      jump\t// in\n    tag_220:\n      pop\n      0x40\n      dup3\n      add\n      mload\n      dup2\n      0x02\n      add\n      swap1\n      dup1\n      mload\n      swap1\n      0x20\n      add\n      swap1\n      tag_222\n      swap3\n      swap2\n      swap1\n      tag_221\n      jump\t// in\n    tag_222:\n      pop\n      0x60\n      dup3\n      add\n      mload\n      dup2\n      0x03\n      add\n      swap1\n      dup1\n      mload\n      swap1\n      0x20\n      add\n      swap1\n      tag_223\n      swap3\n      swap2\n      swap1\n      tag_221\n      jump\t// in\n    tag_223:\n      pop\n      0x80\n      dup3\n      add\n      mload\n      dup2\n      0x04\n      add\n      exp(0x0100, 0x00)\n      dup2\n      sload\n      dup2\n      0xff\n      mul\n      not\n      and\n      swap1\n      dup4\n      iszero\n      iszero\n      mul\n      or\n      swap1\n      sstore\n      pop\n      0xa0\n      dup3\n      add\n      mload\n      dup2\n      0x05\n      add\n      0x00\n      dup3\n      add\n      mload\n      dup2\n      0x00\n      add\n      exp(0x0100, 0x00)\n      dup2\n      sload\n      dup2\n      0xff\n      mul\n      not\n      and\n      swap1\n      dup4\n      iszero\n      iszero\n      mul\n      or\n      swap1\n      sstore\n      pop\n      0x20\n      dup3\n      add\n      mload\n      dup2\n      0x00\n      add\n      exp(0x0100, 0x01)\n      dup2\n      sload\n      dup2\n      0xff\n      mul\n      not\n      and\n      swap1\n      dup4\n      iszero\n      iszero\n      mul\n      or\n      swap1\n      sstore\n      pop\n      0x40\n      dup3\n      add\n      mload\n      dup2\n      0x00\n      add\n      exp(0x0100, 0x02)\n      dup2\n      sload\n      dup2\n      0xff\n      mul\n      not\n      and\n      swap1\n      dup4\n      iszero\n      iszero\n      mul\n      or\n      swap1\n      sstore\n      pop\n      0x60\n      dup3\n      add\n      mload\n      dup2\n      0x00\n      add\n      exp(0x0100, 0x03)\n      dup2\n      sload\n      dup2\n      0xff\n      mul\n      not\n      and\n      swap1\n      dup4\n      iszero\n      iszero\n      mul\n      or\n      swap1\n      sstore\n      pop\n      pop\n      pop\n      swap1\n      pop\n      pop\n        /* \"OnDemo/contracts/AccountManagement.sol\":1777:1778  _ */\n      pop\n      pop\n        /* \"OnDemo/contracts/AccountManagement.sol\":1823:2187  function createAccount(address _address, string memory _firstName, string memory _secondName, string memory _mailAdress) public userNotExists(_address){\r... */\n      pop\n      pop\n      pop\n      pop\n      pop\n      jump\t// out\n        /* \"OnDemo/contracts/AccountManagement.sol\":6599:6721  function hasGuestRole(address _address) public view returns (bool) {\r... */\n    tag_68:\n        /* \"OnDemo/contracts/AccountManagement.sol\":6660:6664  bool */\n      0x00\n        /* \"OnDemo/contracts/AccountManagement.sol\":6684:6713  hasRole(_address, Role.GUEST) */\n      tag_225\n        /* \"OnDemo/contracts/AccountManagement.sol\":6692:6700  _address */\n      dup3\n        /* \"OnDemo/contracts/AccountManagement.sol\":6702:6712  Role.GUEST */\n      0x03\n        /* \"OnDemo/contracts/AccountManagement.sol\":6684:6691  hasRole */\n      tag_98\n        /* \"OnDemo/contracts/AccountManagement.sol\":6684:6713  hasRole(_address, Role.GUEST) */\n      jump\t// in\n    tag_225:\n        /* \"OnDemo/contracts/AccountManagement.sol\":6677:6713  return hasRole(_address, Role.GUEST) */\n      swap1\n      pop\n        /* \"OnDemo/contracts/AccountManagement.sol\":6599:6721  function hasGuestRole(address _address) public view returns (bool) {\r... */\n      swap2\n      swap1\n      pop\n      jump\t// out\n        /* \"OnDemo/contracts/AccountManagement.sol\":6313:6451  function hasCouncilMemberRole(address _address) public view returns (bool) {\r... */\n    tag_72:\n        /* \"OnDemo/contracts/AccountManagement.sol\":6382:6386  bool */\n      0x00\n        /* \"OnDemo/contracts/AccountManagement.sol\":6406:6443  hasRole(_address, Role.COUNCILMEMBER) */\n      tag_227\n        /* \"OnDemo/contracts/AccountManagement.sol\":6414:6422  _address */\n      dup3\n        /* \"OnDemo/contracts/AccountManagement.sol\":6424:6442  Role.COUNCILMEMBER */\n      0x01\n        /* \"OnDemo/contracts/AccountManagement.sol\":6406:6413  hasRole */\n      tag_98\n        /* \"OnDemo/contracts/AccountManagement.sol\":6406:6443  hasRole(_address, Role.COUNCILMEMBER) */\n      jump\t// in\n    tag_227:\n        /* \"OnDemo/contracts/AccountManagement.sol\":6399:6443  return hasRole(_address, Role.COUNCILMEMBER) */\n      swap1\n      pop\n        /* \"OnDemo/contracts/AccountManagement.sol\":6313:6451  function hasCouncilMemberRole(address _address) public view returns (bool) {\r... */\n      swap2\n      swap1\n      pop\n      jump\t// out\n        /* \"OnDemo/contracts/AccountManagement.sol\":5599:6169  function hasRole(address _address, Role _role) private view returns (bool){\r... */\n    tag_98:\n        /* \"OnDemo/contracts/AccountManagement.sol\":5668:5672  bool */\n      0x00\n        /* \"OnDemo/contracts/AccountManagement.sol\":5684:5700  User memory user */\n      dup1\n        /* \"OnDemo/contracts/AccountManagement.sol\":5703:5708  users */\n      0x01\n        /* \"OnDemo/contracts/AccountManagement.sol\":5703:5718  users[_address] */\n      0x00\n        /* \"OnDemo/contracts/AccountManagement.sol\":5709:5717  _address */\n      dup6\n        /* \"OnDemo/contracts/AccountManagement.sol\":5703:5718  users[_address] */\n      0xffffffffffffffffffffffffffffffffffffffff\n      and\n      0xffffffffffffffffffffffffffffffffffffffff\n      and\n      dup2\n      mstore\n      0x20\n      add\n      swap1\n      dup2\n      mstore\n      0x20\n      add\n      0x00\n      keccak256\n        /* \"OnDemo/contracts/AccountManagement.sol\":5684:5718  User memory user = users[_address] */\n      mload(0x40)\n      dup1\n      0xc0\n      add\n      0x40\n      mstore\n      swap1\n      dup2\n      0x00\n      dup3\n      add\n      0x00\n      swap1\n      sload\n      swap1\n      0x0100\n      exp\n      swap1\n      div\n      0xffffffffffffffffffffffffffffffffffffffff\n      and\n      0xffffffffffffffffffffffffffffffffffffffff\n      and\n      0xffffffffffffffffffffffffffffffffffffffff\n      and\n      dup2\n      mstore\n      0x20\n      add\n      0x01\n      dup3\n      add\n      dup1\n      sload\n      tag_229\n      swap1\n      tag_76\n      jump\t// in\n    tag_229:\n      dup1\n      0x1f\n      add\n      0x20\n      dup1\n      swap2\n      div\n      mul\n      0x20\n      add\n      mload(0x40)\n      swap1\n      dup2\n      add\n      0x40\n      mstore\n      dup1\n      swap3\n      swap2\n      swap1\n      dup2\n      dup2\n      mstore\n      0x20\n      add\n      dup3\n      dup1\n      sload\n      tag_230\n      swap1\n      tag_76\n      jump\t// in\n    tag_230:\n      dup1\n      iszero\n      tag_231\n      jumpi\n      dup1\n      0x1f\n      lt\n      tag_232\n      jumpi\n      0x0100\n      dup1\n      dup4\n      sload\n      div\n      mul\n      dup4\n      mstore\n      swap2\n      0x20\n      add\n      swap2\n      jump(tag_231)\n    tag_232:\n      dup3\n      add\n      swap2\n      swap1\n      0x00\n      mstore\n      keccak256(0x00, 0x20)\n      swap1\n    tag_233:\n      dup2\n      sload\n      dup2\n      mstore\n      swap1\n      0x01\n      add\n      swap1\n      0x20\n      add\n      dup1\n      dup4\n      gt\n      tag_233\n      jumpi\n      dup3\n      swap1\n      sub\n      0x1f\n      and\n      dup3\n      add\n      swap2\n    tag_231:\n      pop\n      pop\n      pop\n      pop\n      pop\n      dup2\n      mstore\n      0x20\n      add\n      0x02\n      dup3\n      add\n      dup1\n      sload\n      tag_234\n      swap1\n      tag_76\n      jump\t// in\n    tag_234:\n      dup1\n      0x1f\n      add\n      0x20\n      dup1\n      swap2\n      div\n      mul\n      0x20\n      add\n      mload(0x40)\n      swap1\n      dup2\n      add\n      0x40\n      mstore\n      dup1\n      swap3\n      swap2\n      swap1\n      dup2\n      dup2\n      mstore\n      0x20\n      add\n      dup3\n      dup1\n      sload\n      tag_235\n      swap1\n      tag_76\n      jump\t// in\n    tag_235:\n      dup1\n      iszero\n      tag_236\n      jumpi\n      dup1\n      0x1f\n      lt\n      tag_237\n      jumpi\n      0x0100\n      dup1\n      dup4\n      sload\n      div\n      mul\n      dup4\n      mstore\n      swap2\n      0x20\n      add\n      swap2\n      jump(tag_236)\n    tag_237:\n      dup3\n      add\n      swap2\n      swap1\n      0x00\n      mstore\n      keccak256(0x00, 0x20)\n      swap1\n    tag_238:\n      dup2\n      sload\n      dup2\n      mstore\n      swap1\n      0x01\n      add\n      swap1\n      0x20\n      add\n      dup1\n      dup4\n      gt\n      tag_238\n      jumpi\n      dup3\n      swap1\n      sub\n      0x1f\n      and\n      dup3\n      add\n      swap2\n    tag_236:\n      pop\n      pop\n      pop\n      pop\n      pop\n      dup2\n      mstore\n      0x20\n      add\n      0x03\n      dup3\n      add\n      dup1\n      sload\n      tag_239\n      swap1\n      tag_76\n      jump\t// in\n    tag_239:\n      dup1\n      0x1f\n      add\n      0x20\n      dup1\n      swap2\n      div\n      mul\n      0x20\n      add\n      mload(0x40)\n      swap1\n      dup2\n      add\n      0x40\n      mstore\n      dup1\n      swap3\n      swap2\n      swap1\n      dup2\n      dup2\n      mstore\n      0x20\n      add\n      dup3\n      dup1\n      sload\n      tag_240\n      swap1\n      tag_76\n      jump\t// in\n    tag_240:\n      dup1\n      iszero\n      tag_241\n      jumpi\n      dup1\n      0x1f\n      lt\n      tag_242\n      jumpi\n      0x0100\n      dup1\n      dup4\n      sload\n      div\n      mul\n      dup4\n      mstore\n      swap2\n      0x20\n      add\n      swap2\n      jump(tag_241)\n    tag_242:\n      dup3\n      add\n      swap2\n      swap1\n      0x00\n      mstore\n      keccak256(0x00, 0x20)\n      swap1\n    tag_243:\n      dup2\n      sload\n      dup2\n      mstore\n      swap1\n      0x01\n      add\n      swap1\n      0x20\n      add\n      dup1\n      dup4\n      gt\n      tag_243\n      jumpi\n      dup3\n      swap1\n      sub\n      0x1f\n      and\n      dup3\n      add\n      swap2\n    tag_241:\n      pop\n      pop\n      pop\n      pop\n      pop\n      dup2\n      mstore\n      0x20\n      add\n      0x04\n      dup3\n      add\n      0x00\n      swap1\n      sload\n      swap1\n      0x0100\n      exp\n      swap1\n      div\n      0xff\n      and\n      iszero\n      iszero\n      iszero\n      iszero\n      dup2\n      mstore\n      0x20\n      add\n      0x05\n      dup3\n      add\n      mload(0x40)\n      dup1\n      0x80\n      add\n      0x40\n      mstore\n      swap1\n      dup2\n      0x00\n      dup3\n      add\n      0x00\n      swap1\n      sload\n      swap1\n      0x0100\n      exp\n      swap1\n      div\n      0xff\n      and\n      iszero\n      iszero\n      iszero\n      iszero\n      dup2\n      mstore\n      0x20\n      add\n      0x00\n      dup3\n      add\n      0x01\n      swap1\n      sload\n      swap1\n      0x0100\n      exp\n      swap1\n      div\n      0xff\n      and\n      iszero\n      iszero\n      iszero\n      iszero\n      dup2\n      mstore\n      0x20\n      add\n      0x00\n      dup3\n      add\n      0x02\n      swap1\n      sload\n      swap1\n      0x0100\n      exp\n      swap1\n      div\n      0xff\n      and\n      iszero\n      iszero\n      iszero\n      iszero\n      dup2\n      mstore\n      0x20\n      add\n      0x00\n      dup3\n      add\n      0x03\n      swap1\n      sload\n      swap1\n      0x0100\n      exp\n      swap1\n      div\n      0xff\n      and\n      iszero\n      iszero\n      iszero\n      iszero\n      dup2\n      mstore\n      pop\n      pop\n      dup2\n      mstore\n      pop\n      pop\n      swap1\n      pop\n        /* \"OnDemo/contracts/AccountManagement.sol\":5729:5751  RoleMap memory roleMap */\n      0x00\n        /* \"OnDemo/contracts/AccountManagement.sol\":5754:5758  user */\n      dup2\n        /* \"OnDemo/contracts/AccountManagement.sol\":5754:5766  user.roleMap */\n      0xa0\n      add\n      mload\n        /* \"OnDemo/contracts/AccountManagement.sol\":5729:5766  RoleMap memory roleMap = user.roleMap */\n      swap1\n      pop\n        /* \"OnDemo/contracts/AccountManagement.sol\":5791:5802  Role.LEADER */\n      0x00\n        /* \"OnDemo/contracts/AccountManagement.sol\":5782:5802  _role == Role.LEADER */\n      0x03\n      dup2\n      gt\n      iszero\n      tag_244\n      jumpi\n      mstore(0x00, 0x4e487b7100000000000000000000000000000000000000000000000000000000)\n      mstore(0x04, 0x21)\n      revert(0x00, 0x24)\n    tag_244:\n        /* \"OnDemo/contracts/AccountManagement.sol\":5782:5787  _role */\n      dup5\n        /* \"OnDemo/contracts/AccountManagement.sol\":5782:5802  _role == Role.LEADER */\n      0x03\n      dup2\n      gt\n      iszero\n      tag_245\n      jumpi\n      mstore(0x00, 0x4e487b7100000000000000000000000000000000000000000000000000000000)\n      mstore(0x04, 0x21)\n      revert(0x00, 0x24)\n    tag_245:\n      eq\n        /* \"OnDemo/contracts/AccountManagement.sol\":5779:6139  if(_role == Role.LEADER){\r... */\n      iszero\n      tag_246\n      jumpi\n        /* \"OnDemo/contracts/AccountManagement.sol\":5825:5832  roleMap */\n      dup1\n        /* \"OnDemo/contracts/AccountManagement.sol\":5825:5841  roleMap.isLeader */\n      0x00\n      add\n      mload\n        /* \"OnDemo/contracts/AccountManagement.sol\":5818:5841  return roleMap.isLeader */\n      swap3\n      pop\n      pop\n      pop\n      jump(tag_228)\n        /* \"OnDemo/contracts/AccountManagement.sol\":5779:6139  if(_role == Role.LEADER){\r... */\n    tag_246:\n        /* \"OnDemo/contracts/AccountManagement.sol\":5880:5898  Role.COUNCILMEMBER */\n      0x01\n        /* \"OnDemo/contracts/AccountManagement.sol\":5871:5898  _role == Role.COUNCILMEMBER */\n      0x03\n      dup2\n      gt\n      iszero\n      tag_248\n      jumpi\n      mstore(0x00, 0x4e487b7100000000000000000000000000000000000000000000000000000000)\n      mstore(0x04, 0x21)\n      revert(0x00, 0x24)\n    tag_248:\n        /* \"OnDemo/contracts/AccountManagement.sol\":5871:5876  _role */\n      dup5\n        /* \"OnDemo/contracts/AccountManagement.sol\":5871:5898  _role == Role.COUNCILMEMBER */\n      0x03\n      dup2\n      gt\n      iszero\n      tag_249\n      jumpi\n      mstore(0x00, 0x4e487b7100000000000000000000000000000000000000000000000000000000)\n      mstore(0x04, 0x21)\n      revert(0x00, 0x24)\n    tag_249:\n      eq\n        /* \"OnDemo/contracts/AccountManagement.sol\":5868:6139  if(_role == Role.COUNCILMEMBER){\r... */\n      iszero\n      tag_250\n      jumpi\n        /* \"OnDemo/contracts/AccountManagement.sol\":5921:5928  roleMap */\n      dup1\n        /* \"OnDemo/contracts/AccountManagement.sol\":5921:5944  roleMap.isCouncilMember */\n      0x20\n      add\n      mload\n        /* \"OnDemo/contracts/AccountManagement.sol\":5914:5944  return roleMap.isCouncilMember */\n      swap3\n      pop\n      pop\n      pop\n      jump(tag_228)\n        /* \"OnDemo/contracts/AccountManagement.sol\":5868:6139  if(_role == Role.COUNCILMEMBER){\r... */\n    tag_250:\n        /* \"OnDemo/contracts/AccountManagement.sol\":5990:6001  Role.MEMBER */\n      0x02\n        /* \"OnDemo/contracts/AccountManagement.sol\":5981:6001  _role == Role.MEMBER */\n      0x03\n      dup2\n      gt\n      iszero\n      tag_252\n      jumpi\n      mstore(0x00, 0x4e487b7100000000000000000000000000000000000000000000000000000000)\n      mstore(0x04, 0x21)\n      revert(0x00, 0x24)\n    tag_252:\n        /* \"OnDemo/contracts/AccountManagement.sol\":5981:5986  _role */\n      dup5\n        /* \"OnDemo/contracts/AccountManagement.sol\":5981:6001  _role == Role.MEMBER */\n      0x03\n      dup2\n      gt\n      iszero\n      tag_253\n      jumpi\n      mstore(0x00, 0x4e487b7100000000000000000000000000000000000000000000000000000000)\n      mstore(0x04, 0x21)\n      revert(0x00, 0x24)\n    tag_253:\n      eq\n        /* \"OnDemo/contracts/AccountManagement.sol\":5978:6139  if(_role == Role.MEMBER){\r... */\n      iszero\n      tag_254\n      jumpi\n        /* \"OnDemo/contracts/AccountManagement.sol\":6024:6031  roleMap */\n      dup1\n        /* \"OnDemo/contracts/AccountManagement.sol\":6024:6040  roleMap.isMember */\n      0x40\n      add\n      mload\n        /* \"OnDemo/contracts/AccountManagement.sol\":6017:6040  return roleMap.isMember */\n      swap3\n      pop\n      pop\n      pop\n      jump(tag_228)\n        /* \"OnDemo/contracts/AccountManagement.sol\":5978:6139  if(_role == Role.MEMBER){\r... */\n    tag_254:\n        /* \"OnDemo/contracts/AccountManagement.sol\":6079:6089  Role.GUEST */\n      0x03\n        /* \"OnDemo/contracts/AccountManagement.sol\":6070:6089  _role == Role.GUEST */\n      dup1\n      dup2\n      gt\n      iszero\n      tag_256\n      jumpi\n      mstore(0x00, 0x4e487b7100000000000000000000000000000000000000000000000000000000)\n      mstore(0x04, 0x21)\n      revert(0x00, 0x24)\n    tag_256:\n        /* \"OnDemo/contracts/AccountManagement.sol\":6070:6075  _role */\n      dup5\n        /* \"OnDemo/contracts/AccountManagement.sol\":6070:6089  _role == Role.GUEST */\n      0x03\n      dup2\n      gt\n      iszero\n      tag_257\n      jumpi\n      mstore(0x00, 0x4e487b7100000000000000000000000000000000000000000000000000000000)\n      mstore(0x04, 0x21)\n      revert(0x00, 0x24)\n    tag_257:\n      eq\n        /* \"OnDemo/contracts/AccountManagement.sol\":6067:6139  if(_role == Role.GUEST){\r... */\n      iszero\n      tag_258\n      jumpi\n        /* \"OnDemo/contracts/AccountManagement.sol\":6112:6119  roleMap */\n      dup1\n        /* \"OnDemo/contracts/AccountManagement.sol\":6112:6127  roleMap.isGuest */\n      0x60\n      add\n      mload\n        /* \"OnDemo/contracts/AccountManagement.sol\":6105:6127  return roleMap.isGuest */\n      swap3\n      pop\n      pop\n      pop\n      jump(tag_228)\n        /* \"OnDemo/contracts/AccountManagement.sol\":6067:6139  if(_role == Role.GUEST){\r... */\n    tag_258:\n        /* \"OnDemo/contracts/AccountManagement.sol\":6156:6161  false */\n      0x00\n        /* \"OnDemo/contracts/AccountManagement.sol\":6149:6161  return false */\n      swap3\n      pop\n      pop\n      pop\n        /* \"OnDemo/contracts/AccountManagement.sol\":5599:6169  function hasRole(address _address, Role _role) private view returns (bool){\r... */\n    tag_228:\n      swap3\n      swap2\n      pop\n      pop\n      jump\t// out\n    tag_212:\n      pop\n      dup1\n      sload\n      tag_259\n      swap1\n      tag_76\n      jump\t// in\n    tag_259:\n      0x00\n      dup3\n      sstore\n      dup1\n      0x1f\n      lt\n      tag_261\n      jumpi\n      pop\n      jump(tag_260)\n    tag_261:\n      0x1f\n      add\n      0x20\n      swap1\n      div\n      swap1\n      0x00\n      mstore\n      keccak256(0x00, 0x20)\n      swap1\n      dup2\n      add\n      swap1\n      tag_262\n      swap2\n      swap1\n      tag_263\n      jump\t// in\n    tag_262:\n    tag_260:\n      pop\n      jump\t// out\n    tag_221:\n      dup3\n      dup1\n      sload\n      tag_264\n      swap1\n      tag_76\n      jump\t// in\n    tag_264:\n      swap1\n      0x00\n      mstore\n      keccak256(0x00, 0x20)\n      swap1\n      0x1f\n      add\n      0x20\n      swap1\n      div\n      dup2\n      add\n      swap3\n      dup3\n      tag_266\n      jumpi\n      0x00\n      dup6\n      sstore\n      jump(tag_265)\n    tag_266:\n      dup3\n      0x1f\n      lt\n      tag_267\n      jumpi\n      dup1\n      mload\n      not(0xff)\n      and\n      dup4\n      dup1\n      add\n      or\n      dup6\n      sstore\n      jump(tag_265)\n    tag_267:\n      dup3\n      dup1\n      add\n      0x01\n      add\n      dup6\n      sstore\n      dup3\n      iszero\n      tag_265\n      jumpi\n      swap2\n      dup3\n      add\n    tag_268:\n      dup3\n      dup2\n      gt\n      iszero\n      tag_269\n      jumpi\n      dup3\n      mload\n      dup3\n      sstore\n      swap2\n      0x20\n      add\n      swap2\n      swap1\n      0x01\n      add\n      swap1\n      jump(tag_268)\n    tag_269:\n    tag_265:\n      pop\n      swap1\n      pop\n      tag_270\n      swap2\n      swap1\n      tag_263\n      jump\t// in\n    tag_270:\n      pop\n      swap1\n      jump\t// out\n    tag_263:\n    tag_271:\n      dup1\n      dup3\n      gt\n      iszero\n      tag_272\n      jumpi\n      0x00\n      dup2\n      0x00\n      swap1\n      sstore\n      pop\n      0x01\n      add\n      jump(tag_271)\n    tag_272:\n      pop\n      swap1\n      jump\t// out\n        /* \"#utility.yul\":7:352   */\n    tag_274:\n      0x00\n        /* \"#utility.yul\":110:176   */\n      tag_276\n        /* \"#utility.yul\":126:175   */\n      tag_277\n        /* \"#utility.yul\":168:174   */\n      dup5\n        /* \"#utility.yul\":126:175   */\n      tag_278\n      jump\t// in\n    tag_277:\n        /* \"#utility.yul\":110:176   */\n      tag_279\n      jump\t// in\n    tag_276:\n        /* \"#utility.yul\":101:176   */\n      swap1\n      pop\n        /* \"#utility.yul\":199:205   */\n      dup3\n        /* \"#utility.yul\":192:197   */\n      dup2\n        /* \"#utility.yul\":185:206   */\n      mstore\n        /* \"#utility.yul\":237:241   */\n      0x20\n        /* \"#utility.yul\":230:235   */\n      dup2\n        /* \"#utility.yul\":226:242   */\n      add\n        /* \"#utility.yul\":275:278   */\n      dup5\n        /* \"#utility.yul\":266:272   */\n      dup5\n        /* \"#utility.yul\":261:264   */\n      dup5\n        /* \"#utility.yul\":257:273   */\n      add\n        /* \"#utility.yul\":254:279   */\n      gt\n        /* \"#utility.yul\":251:253   */\n      iszero\n      tag_280\n      jumpi\n        /* \"#utility.yul\":292:293   */\n      0x00\n        /* \"#utility.yul\":289:290   */\n      dup1\n        /* \"#utility.yul\":282:294   */\n      revert\n        /* \"#utility.yul\":251:253   */\n    tag_280:\n        /* \"#utility.yul\":305:346   */\n      tag_281\n        /* \"#utility.yul\":339:345   */\n      dup5\n        /* \"#utility.yul\":334:337   */\n      dup3\n        /* \"#utility.yul\":329:332   */\n      dup6\n        /* \"#utility.yul\":305:346   */\n      tag_282\n      jump\t// in\n    tag_281:\n        /* \"#utility.yul\":91:352   */\n      pop\n      swap4\n      swap3\n      pop\n      pop\n      pop\n      jump\t// out\n        /* \"#utility.yul\":358:497   */\n    tag_283:\n      0x00\n        /* \"#utility.yul\":442:448   */\n      dup2\n        /* \"#utility.yul\":429:449   */\n      calldataload\n        /* \"#utility.yul\":420:449   */\n      swap1\n      pop\n        /* \"#utility.yul\":458:491   */\n      tag_285\n        /* \"#utility.yul\":485:490   */\n      dup2\n        /* \"#utility.yul\":458:491   */\n      tag_286\n      jump\t// in\n    tag_285:\n        /* \"#utility.yul\":410:497   */\n      swap3\n      swap2\n      pop\n      pop\n      jump\t// out\n        /* \"#utility.yul\":503:654   */\n    tag_287:\n      0x00\n        /* \"#utility.yul\":593:599   */\n      dup2\n        /* \"#utility.yul\":580:600   */\n      calldataload\n        /* \"#utility.yul\":571:600   */\n      swap1\n      pop\n        /* \"#utility.yul\":609:648   */\n      tag_289\n        /* \"#utility.yul\":642:647   */\n      dup2\n        /* \"#utility.yul\":609:648   */\n      tag_290\n      jump\t// in\n    tag_289:\n        /* \"#utility.yul\":561:654   */\n      swap3\n      swap2\n      pop\n      pop\n      jump\t// out\n        /* \"#utility.yul\":674:947   */\n    tag_291:\n      0x00\n        /* \"#utility.yul\":779:782   */\n      dup3\n        /* \"#utility.yul\":772:776   */\n      0x1f\n        /* \"#utility.yul\":764:770   */\n      dup4\n        /* \"#utility.yul\":760:777   */\n      add\n        /* \"#utility.yul\":756:783   */\n      slt\n        /* \"#utility.yul\":746:748   */\n      tag_293\n      jumpi\n        /* \"#utility.yul\":797:798   */\n      0x00\n        /* \"#utility.yul\":794:795   */\n      dup1\n        /* \"#utility.yul\":787:799   */\n      revert\n        /* \"#utility.yul\":746:748   */\n    tag_293:\n        /* \"#utility.yul\":837:843   */\n      dup2\n        /* \"#utility.yul\":824:844   */\n      calldataload\n        /* \"#utility.yul\":862:941   */\n      tag_294\n        /* \"#utility.yul\":937:940   */\n      dup5\n        /* \"#utility.yul\":929:935   */\n      dup3\n        /* \"#utility.yul\":922:926   */\n      0x20\n        /* \"#utility.yul\":914:920   */\n      dup7\n        /* \"#utility.yul\":910:927   */\n      add\n        /* \"#utility.yul\":862:941   */\n      tag_274\n      jump\t// in\n    tag_294:\n        /* \"#utility.yul\":853:941   */\n      swap2\n      pop\n        /* \"#utility.yul\":736:947   */\n      pop\n      swap3\n      swap2\n      pop\n      pop\n      jump\t// out\n        /* \"#utility.yul\":953:1215   */\n    tag_22:\n      0x00\n        /* \"#utility.yul\":1061:1063   */\n      0x20\n        /* \"#utility.yul\":1049:1058   */\n      dup3\n        /* \"#utility.yul\":1040:1047   */\n      dup5\n        /* \"#utility.yul\":1036:1059   */\n      sub\n        /* \"#utility.yul\":1032:1064   */\n      slt\n        /* \"#utility.yul\":1029:1031   */\n      iszero\n      tag_296\n      jumpi\n        /* \"#utility.yul\":1077:1078   */\n      0x00\n        /* \"#utility.yul\":1074:1075   */\n      dup1\n        /* \"#utility.yul\":1067:1079   */\n      revert\n        /* \"#utility.yul\":1029:1031   */\n    tag_296:\n        /* \"#utility.yul\":1120:1121   */\n      0x00\n        /* \"#utility.yul\":1145:1198   */\n      tag_297\n        /* \"#utility.yul\":1190:1197   */\n      dup5\n        /* \"#utility.yul\":1181:1187   */\n      dup3\n        /* \"#utility.yul\":1170:1179   */\n      dup6\n        /* \"#utility.yul\":1166:1188   */\n      add\n        /* \"#utility.yul\":1145:1198   */\n      tag_283\n      jump\t// in\n    tag_297:\n        /* \"#utility.yul\":1135:1198   */\n      swap2\n      pop\n        /* \"#utility.yul\":1091:1208   */\n      pop\n        /* \"#utility.yul\":1019:1215   */\n      swap3\n      swap2\n      pop\n      pop\n      jump\t// out\n        /* \"#utility.yul\":1221:1640   */\n    tag_39:\n      0x00\n      dup1\n        /* \"#utility.yul\":1352:1354   */\n      0x40\n        /* \"#utility.yul\":1340:1349   */\n      dup4\n        /* \"#utility.yul\":1331:1338   */\n      dup6\n        /* \"#utility.yul\":1327:1350   */\n      sub\n        /* \"#utility.yul\":1323:1355   */\n      slt\n        /* \"#utility.yul\":1320:1322   */\n      iszero\n      tag_299\n      jumpi\n        /* \"#utility.yul\":1368:1369   */\n      0x00\n        /* \"#utility.yul\":1365:1366   */\n      dup1\n        /* \"#utility.yul\":1358:1370   */\n      revert\n        /* \"#utility.yul\":1320:1322   */\n    tag_299:\n        /* \"#utility.yul\":1411:1412   */\n      0x00\n        /* \"#utility.yul\":1436:1489   */\n      tag_300\n        /* \"#utility.yul\":1481:1488   */\n      dup6\n        /* \"#utility.yul\":1472:1478   */\n      dup3\n        /* \"#utility.yul\":1461:1470   */\n      dup7\n        /* \"#utility.yul\":1457:1479   */\n      add\n        /* \"#utility.yul\":1436:1489   */\n      tag_283\n      jump\t// in\n    tag_300:\n        /* \"#utility.yul\":1426:1489   */\n      swap3\n      pop\n        /* \"#utility.yul\":1382:1499   */\n      pop\n        /* \"#utility.yul\":1538:1540   */\n      0x20\n        /* \"#utility.yul\":1564:1623   */\n      tag_301\n        /* \"#utility.yul\":1615:1622   */\n      dup6\n        /* \"#utility.yul\":1606:1612   */\n      dup3\n        /* \"#utility.yul\":1595:1604   */\n      dup7\n        /* \"#utility.yul\":1591:1613   */\n      add\n        /* \"#utility.yul\":1564:1623   */\n      tag_287\n      jump\t// in\n    tag_301:\n        /* \"#utility.yul\":1554:1623   */\n      swap2\n      pop\n        /* \"#utility.yul\":1509:1633   */\n      pop\n        /* \"#utility.yul\":1310:1640   */\n      swap3\n      pop\n      swap3\n      swap1\n      pop\n      jump\t// out\n        /* \"#utility.yul\":1646:2683   */\n    tag_64:\n      0x00\n      dup1\n      0x00\n      dup1\n        /* \"#utility.yul\":1835:1838   */\n      0x80\n        /* \"#utility.yul\":1823:1832   */\n      dup6\n        /* \"#utility.yul\":1814:1821   */\n      dup8\n        /* \"#utility.yul\":1810:1833   */\n      sub\n        /* \"#utility.yul\":1806:1839   */\n      slt\n        /* \"#utility.yul\":1803:1805   */\n      iszero\n      tag_303\n      jumpi\n        /* \"#utility.yul\":1852:1853   */\n      0x00\n        /* \"#utility.yul\":1849:1850   */\n      dup1\n        /* \"#utility.yul\":1842:1854   */\n      revert\n        /* \"#utility.yul\":1803:1805   */\n    tag_303:\n        /* \"#utility.yul\":1895:1896   */\n      0x00\n        /* \"#utility.yul\":1920:1973   */\n      tag_304\n        /* \"#utility.yul\":1965:1972   */\n      dup8\n        /* \"#utility.yul\":1956:1962   */\n      dup3\n        /* \"#utility.yul\":1945:1954   */\n      dup9\n        /* \"#utility.yul\":1941:1963   */\n      add\n        /* \"#utility.yul\":1920:1973   */\n      tag_283\n      jump\t// in\n    tag_304:\n        /* \"#utility.yul\":1910:1973   */\n      swap5\n      pop\n        /* \"#utility.yul\":1866:1983   */\n      pop\n        /* \"#utility.yul\":2050:2052   */\n      0x20\n        /* \"#utility.yul\":2039:2048   */\n      dup6\n        /* \"#utility.yul\":2035:2053   */\n      add\n        /* \"#utility.yul\":2022:2054   */\n      calldataload\n        /* \"#utility.yul\":2081:2099   */\n      0xffffffffffffffff\n        /* \"#utility.yul\":2073:2079   */\n      dup2\n        /* \"#utility.yul\":2070:2100   */\n      gt\n        /* \"#utility.yul\":2067:2069   */\n      iszero\n      tag_305\n      jumpi\n        /* \"#utility.yul\":2113:2114   */\n      0x00\n        /* \"#utility.yul\":2110:2111   */\n      dup1\n        /* \"#utility.yul\":2103:2115   */\n      revert\n        /* \"#utility.yul\":2067:2069   */\n    tag_305:\n        /* \"#utility.yul\":2141:2204   */\n      tag_306\n        /* \"#utility.yul\":2196:2203   */\n      dup8\n        /* \"#utility.yul\":2187:2193   */\n      dup3\n        /* \"#utility.yul\":2176:2185   */\n      dup9\n        /* \"#utility.yul\":2172:2194   */\n      add\n        /* \"#utility.yul\":2141:2204   */\n      tag_291\n      jump\t// in\n    tag_306:\n        /* \"#utility.yul\":2131:2204   */\n      swap4\n      pop\n        /* \"#utility.yul\":1993:2214   */\n      pop\n        /* \"#utility.yul\":2281:2283   */\n      0x40\n        /* \"#utility.yul\":2270:2279   */\n      dup6\n        /* \"#utility.yul\":2266:2284   */\n      add\n        /* \"#utility.yul\":2253:2285   */\n      calldataload\n        /* \"#utility.yul\":2312:2330   */\n      0xffffffffffffffff\n        /* \"#utility.yul\":2304:2310   */\n      dup2\n        /* \"#utility.yul\":2301:2331   */\n      gt\n        /* \"#utility.yul\":2298:2300   */\n      iszero\n      tag_307\n      jumpi\n        /* \"#utility.yul\":2344:2345   */\n      0x00\n        /* \"#utility.yul\":2341:2342   */\n      dup1\n        /* \"#utility.yul\":2334:2346   */\n      revert\n        /* \"#utility.yul\":2298:2300   */\n    tag_307:\n        /* \"#utility.yul\":2372:2435   */\n      tag_308\n        /* \"#utility.yul\":2427:2434   */\n      dup8\n        /* \"#utility.yul\":2418:2424   */\n      dup3\n        /* \"#utility.yul\":2407:2416   */\n      dup9\n        /* \"#utility.yul\":2403:2425   */\n      add\n        /* \"#utility.yul\":2372:2435   */\n      tag_291\n      jump\t// in\n    tag_308:\n        /* \"#utility.yul\":2362:2435   */\n      swap3\n      pop\n        /* \"#utility.yul\":2224:2445   */\n      pop\n        /* \"#utility.yul\":2512:2514   */\n      0x60\n        /* \"#utility.yul\":2501:2510   */\n      dup6\n        /* \"#utility.yul\":2497:2515   */\n      add\n        /* \"#utility.yul\":2484:2516   */\n      calldataload\n        /* \"#utility.yul\":2543:2561   */\n      0xffffffffffffffff\n        /* \"#utility.yul\":2535:2541   */\n      dup2\n        /* \"#utility.yul\":2532:2562   */\n      gt\n        /* \"#utility.yul\":2529:2531   */\n      iszero\n      tag_309\n      jumpi\n        /* \"#utility.yul\":2575:2576   */\n      0x00\n        /* \"#utility.yul\":2572:2573   */\n      dup1\n        /* \"#utility.yul\":2565:2577   */\n      revert\n        /* \"#utility.yul\":2529:2531   */\n    tag_309:\n        /* \"#utility.yul\":2603:2666   */\n      tag_310\n        /* \"#utility.yul\":2658:2665   */\n      dup8\n        /* \"#utility.yul\":2649:2655   */\n      dup3\n        /* \"#utility.yul\":2638:2647   */\n      dup9\n        /* \"#utility.yul\":2634:2656   */\n      add\n        /* \"#utility.yul\":2603:2666   */\n      tag_291\n      jump\t// in\n    tag_310:\n        /* \"#utility.yul\":2593:2666   */\n      swap2\n      pop\n        /* \"#utility.yul\":2455:2676   */\n      pop\n        /* \"#utility.yul\":1793:2683   */\n      swap3\n      swap6\n      swap2\n      swap5\n      pop\n      swap3\n      pop\n      jump\t// out\n        /* \"#utility.yul\":2689:2807   */\n    tag_311:\n        /* \"#utility.yul\":2776:2800   */\n      tag_313\n        /* \"#utility.yul\":2794:2799   */\n      dup2\n        /* \"#utility.yul\":2776:2800   */\n      tag_314\n      jump\t// in\n    tag_313:\n        /* \"#utility.yul\":2771:2774   */\n      dup3\n        /* \"#utility.yul\":2764:2801   */\n      mstore\n        /* \"#utility.yul\":2754:2807   */\n      pop\n      pop\n      jump\t// out\n        /* \"#utility.yul\":2813:2922   */\n    tag_315:\n        /* \"#utility.yul\":2894:2915   */\n      tag_317\n        /* \"#utility.yul\":2909:2914   */\n      dup2\n        /* \"#utility.yul\":2894:2915   */\n      tag_318\n      jump\t// in\n    tag_317:\n        /* \"#utility.yul\":2889:2892   */\n      dup3\n        /* \"#utility.yul\":2882:2916   */\n      mstore\n        /* \"#utility.yul\":2872:2922   */\n      pop\n      pop\n      jump\t// out\n        /* \"#utility.yul\":2928:3294   */\n    tag_319:\n      0x00\n        /* \"#utility.yul\":3091:3158   */\n      tag_321\n        /* \"#utility.yul\":3155:3157   */\n      0x22\n        /* \"#utility.yul\":3150:3153   */\n      dup4\n        /* \"#utility.yul\":3091:3158   */\n      tag_322\n      jump\t// in\n    tag_321:\n        /* \"#utility.yul\":3084:3158   */\n      swap2\n      pop\n        /* \"#utility.yul\":3167:3260   */\n      tag_323\n        /* \"#utility.yul\":3256:3259   */\n      dup3\n        /* \"#utility.yul\":3167:3260   */\n      tag_324\n      jump\t// in\n    tag_323:\n        /* \"#utility.yul\":3285:3287   */\n      0x40\n        /* \"#utility.yul\":3280:3283   */\n      dup3\n        /* \"#utility.yul\":3276:3288   */\n      add\n        /* \"#utility.yul\":3269:3288   */\n      swap1\n      pop\n        /* \"#utility.yul\":3074:3294   */\n      swap2\n      swap1\n      pop\n      jump\t// out\n        /* \"#utility.yul\":3300:3666   */\n    tag_325:\n      0x00\n        /* \"#utility.yul\":3463:3530   */\n      tag_327\n        /* \"#utility.yul\":3527:3529   */\n      0x15\n        /* \"#utility.yul\":3522:3525   */\n      dup4\n        /* \"#utility.yul\":3463:3530   */\n      tag_322\n      jump\t// in\n    tag_327:\n        /* \"#utility.yul\":3456:3530   */\n      swap2\n      pop\n        /* \"#utility.yul\":3539:3632   */\n      tag_328\n        /* \"#utility.yul\":3628:3631   */\n      dup3\n        /* \"#utility.yul\":3539:3632   */\n      tag_329\n      jump\t// in\n    tag_328:\n        /* \"#utility.yul\":3657:3659   */\n      0x20\n        /* \"#utility.yul\":3652:3655   */\n      dup3\n        /* \"#utility.yul\":3648:3660   */\n      add\n        /* \"#utility.yul\":3641:3660   */\n      swap1\n      pop\n        /* \"#utility.yul\":3446:3666   */\n      swap2\n      swap1\n      pop\n      jump\t// out\n        /* \"#utility.yul\":3672:4038   */\n    tag_330:\n      0x00\n        /* \"#utility.yul\":3835:3902   */\n      tag_332\n        /* \"#utility.yul\":3899:3901   */\n      0x16\n        /* \"#utility.yul\":3894:3897   */\n      dup4\n        /* \"#utility.yul\":3835:3902   */\n      tag_322\n      jump\t// in\n    tag_332:\n        /* \"#utility.yul\":3828:3902   */\n      swap2\n      pop\n        /* \"#utility.yul\":3911:4004   */\n      tag_333\n        /* \"#utility.yul\":4000:4003   */\n      dup3\n        /* \"#utility.yul\":3911:4004   */\n      tag_334\n      jump\t// in\n    tag_333:\n        /* \"#utility.yul\":4029:4031   */\n      0x20\n        /* \"#utility.yul\":4024:4027   */\n      dup3\n        /* \"#utility.yul\":4020:4032   */\n      add\n        /* \"#utility.yul\":4013:4032   */\n      swap1\n      pop\n        /* \"#utility.yul\":3818:4038   */\n      swap2\n      swap1\n      pop\n      jump\t// out\n        /* \"#utility.yul\":4044:4266   */\n    tag_48:\n      0x00\n        /* \"#utility.yul\":4175:4177   */\n      0x20\n        /* \"#utility.yul\":4164:4173   */\n      dup3\n        /* \"#utility.yul\":4160:4178   */\n      add\n        /* \"#utility.yul\":4152:4178   */\n      swap1\n      pop\n        /* \"#utility.yul\":4188:4259   */\n      tag_336\n        /* \"#utility.yul\":4256:4257   */\n      0x00\n        /* \"#utility.yul\":4245:4254   */\n      dup4\n        /* \"#utility.yul\":4241:4258   */\n      add\n        /* \"#utility.yul\":4232:4238   */\n      dup5\n        /* \"#utility.yul\":4188:4259   */\n      tag_311\n      jump\t// in\n    tag_336:\n        /* \"#utility.yul\":4142:4266   */\n      swap3\n      swap2\n      pop\n      pop\n      jump\t// out\n        /* \"#utility.yul\":4272:4482   */\n    tag_25:\n      0x00\n        /* \"#utility.yul\":4397:4399   */\n      0x20\n        /* \"#utility.yul\":4386:4395   */\n      dup3\n        /* \"#utility.yul\":4382:4400   */\n      add\n        /* \"#utility.yul\":4374:4400   */\n      swap1\n      pop\n        /* \"#utility.yul\":4410:4475   */\n      tag_338\n        /* \"#utility.yul\":4472:4473   */\n      0x00\n        /* \"#utility.yul\":4461:4470   */\n      dup4\n        /* \"#utility.yul\":4457:4474   */\n      add\n        /* \"#utility.yul\":4448:4454   */\n      dup5\n        /* \"#utility.yul\":4410:4475   */\n      tag_315\n      jump\t// in\n    tag_338:\n        /* \"#utility.yul\":4364:4482   */\n      swap3\n      swap2\n      pop\n      pop\n      jump\t// out\n        /* \"#utility.yul\":4488:4907   */\n    tag_111:\n      0x00\n        /* \"#utility.yul\":4692:4694   */\n      0x20\n        /* \"#utility.yul\":4681:4690   */\n      dup3\n        /* \"#utility.yul\":4677:4695   */\n      add\n        /* \"#utility.yul\":4669:4695   */\n      swap1\n      pop\n        /* \"#utility.yul\":4741:4750   */\n      dup2\n        /* \"#utility.yul\":4735:4739   */\n      dup2\n        /* \"#utility.yul\":4731:4751   */\n      sub\n        /* \"#utility.yul\":4727:4728   */\n      0x00\n        /* \"#utility.yul\":4716:4725   */\n      dup4\n        /* \"#utility.yul\":4712:4729   */\n      add\n        /* \"#utility.yul\":4705:4752   */\n      mstore\n        /* \"#utility.yul\":4769:4900   */\n      tag_340\n        /* \"#utility.yul\":4895:4899   */\n      dup2\n        /* \"#utility.yul\":4769:4900   */\n      tag_319\n      jump\t// in\n    tag_340:\n        /* \"#utility.yul\":4761:4900   */\n      swap1\n      pop\n        /* \"#utility.yul\":4659:4907   */\n      swap2\n      swap1\n      pop\n      jump\t// out\n        /* \"#utility.yul\":4913:5332   */\n    tag_104:\n      0x00\n        /* \"#utility.yul\":5117:5119   */\n      0x20\n        /* \"#utility.yul\":5106:5115   */\n      dup3\n        /* \"#utility.yul\":5102:5120   */\n      add\n        /* \"#utility.yul\":5094:5120   */\n      swap1\n      pop\n        /* \"#utility.yul\":5166:5175   */\n      dup2\n        /* \"#utility.yul\":5160:5164   */\n      dup2\n        /* \"#utility.yul\":5156:5176   */\n      sub\n        /* \"#utility.yul\":5152:5153   */\n      0x00\n        /* \"#utility.yul\":5141:5150   */\n      dup4\n        /* \"#utility.yul\":5137:5154   */\n      add\n        /* \"#utility.yul\":5130:5177   */\n      mstore\n        /* \"#utility.yul\":5194:5325   */\n      tag_342\n        /* \"#utility.yul\":5320:5324   */\n      dup2\n        /* \"#utility.yul\":5194:5325   */\n      tag_325\n      jump\t// in\n    tag_342:\n        /* \"#utility.yul\":5186:5325   */\n      swap1\n      pop\n        /* \"#utility.yul\":5084:5332   */\n      swap2\n      swap1\n      pop\n      jump\t// out\n        /* \"#utility.yul\":5338:5757   */\n    tag_218:\n      0x00\n        /* \"#utility.yul\":5542:5544   */\n      0x20\n        /* \"#utility.yul\":5531:5540   */\n      dup3\n        /* \"#utility.yul\":5527:5545   */\n      add\n        /* \"#utility.yul\":5519:5545   */\n      swap1\n      pop\n        /* \"#utility.yul\":5591:5600   */\n      dup2\n        /* \"#utility.yul\":5585:5589   */\n      dup2\n        /* \"#utility.yul\":5581:5601   */\n      sub\n        /* \"#utility.yul\":5577:5578   */\n      0x00\n        /* \"#utility.yul\":5566:5575   */\n      dup4\n        /* \"#utility.yul\":5562:5579   */\n      add\n        /* \"#utility.yul\":5555:5602   */\n      mstore\n        /* \"#utility.yul\":5619:5750   */\n      tag_344\n        /* \"#utility.yul\":5745:5749   */\n      dup2\n        /* \"#utility.yul\":5619:5750   */\n      tag_330\n      jump\t// in\n    tag_344:\n        /* \"#utility.yul\":5611:5750   */\n      swap1\n      pop\n        /* \"#utility.yul\":5509:5757   */\n      swap2\n      swap1\n      pop\n      jump\t// out\n        /* \"#utility.yul\":5763:5892   */\n    tag_279:\n      0x00\n        /* \"#utility.yul\":5824:5844   */\n      tag_346\n      tag_347\n      jump\t// in\n    tag_346:\n        /* \"#utility.yul\":5814:5844   */\n      swap1\n      pop\n        /* \"#utility.yul\":5853:5886   */\n      tag_348\n        /* \"#utility.yul\":5881:5885   */\n      dup3\n        /* \"#utility.yul\":5873:5879   */\n      dup3\n        /* \"#utility.yul\":5853:5886   */\n      tag_349\n      jump\t// in\n    tag_348:\n        /* \"#utility.yul\":5804:5892   */\n      swap2\n      swap1\n      pop\n      jump\t// out\n        /* \"#utility.yul\":5898:5973   */\n    tag_347:\n      0x00\n        /* \"#utility.yul\":5964:5966   */\n      0x40\n        /* \"#utility.yul\":5958:5967   */\n      mload\n        /* \"#utility.yul\":5948:5967   */\n      swap1\n      pop\n        /* \"#utility.yul\":5938:5973   */\n      swap1\n      jump\t// out\n        /* \"#utility.yul\":5979:6287   */\n    tag_278:\n      0x00\n        /* \"#utility.yul\":6131:6149   */\n      0xffffffffffffffff\n        /* \"#utility.yul\":6123:6129   */\n      dup3\n        /* \"#utility.yul\":6120:6150   */\n      gt\n        /* \"#utility.yul\":6117:6119   */\n      iszero\n      tag_352\n      jumpi\n        /* \"#utility.yul\":6153:6171   */\n      tag_353\n      tag_354\n      jump\t// in\n    tag_353:\n        /* \"#utility.yul\":6117:6119   */\n    tag_352:\n        /* \"#utility.yul\":6191:6220   */\n      tag_355\n        /* \"#utility.yul\":6213:6219   */\n      dup3\n        /* \"#utility.yul\":6191:6220   */\n      tag_356\n      jump\t// in\n    tag_355:\n        /* \"#utility.yul\":6183:6220   */\n      swap1\n      pop\n        /* \"#utility.yul\":6275:6279   */\n      0x20\n        /* \"#utility.yul\":6269:6273   */\n      dup2\n        /* \"#utility.yul\":6265:6280   */\n      add\n        /* \"#utility.yul\":6257:6280   */\n      swap1\n      pop\n        /* \"#utility.yul\":6046:6287   */\n      swap2\n      swap1\n      pop\n      jump\t// out\n        /* \"#utility.yul\":6293:6462   */\n    tag_322:\n      0x00\n        /* \"#utility.yul\":6411:6417   */\n      dup3\n        /* \"#utility.yul\":6406:6409   */\n      dup3\n        /* \"#utility.yul\":6399:6418   */\n      mstore\n        /* \"#utility.yul\":6451:6455   */\n      0x20\n        /* \"#utility.yul\":6446:6449   */\n      dup3\n        /* \"#utility.yul\":6442:6456   */\n      add\n        /* \"#utility.yul\":6427:6456   */\n      swap1\n      pop\n        /* \"#utility.yul\":6389:6462   */\n      swap3\n      swap2\n      pop\n      pop\n      jump\t// out\n        /* \"#utility.yul\":6468:6564   */\n    tag_314:\n      0x00\n        /* \"#utility.yul\":6534:6558   */\n      tag_359\n        /* \"#utility.yul\":6552:6557   */\n      dup3\n        /* \"#utility.yul\":6534:6558   */\n      tag_360\n      jump\t// in\n    tag_359:\n        /* \"#utility.yul\":6523:6558   */\n      swap1\n      pop\n        /* \"#utility.yul\":6513:6564   */\n      swap2\n      swap1\n      pop\n      jump\t// out\n        /* \"#utility.yul\":6570:6660   */\n    tag_318:\n      0x00\n        /* \"#utility.yul\":6647:6652   */\n      dup2\n        /* \"#utility.yul\":6640:6653   */\n      iszero\n        /* \"#utility.yul\":6633:6654   */\n      iszero\n        /* \"#utility.yul\":6622:6654   */\n      swap1\n      pop\n        /* \"#utility.yul\":6612:6660   */\n      swap2\n      swap1\n      pop\n      jump\t// out\n        /* \"#utility.yul\":6666:6792   */\n    tag_360:\n      0x00\n        /* \"#utility.yul\":6743:6785   */\n      0xffffffffffffffffffffffffffffffffffffffff\n        /* \"#utility.yul\":6736:6741   */\n      dup3\n        /* \"#utility.yul\":6732:6786   */\n      and\n        /* \"#utility.yul\":6721:6786   */\n      swap1\n      pop\n        /* \"#utility.yul\":6711:6792   */\n      swap2\n      swap1\n      pop\n      jump\t// out\n        /* \"#utility.yul\":6798:6952   */\n    tag_282:\n        /* \"#utility.yul\":6882:6888   */\n      dup3\n        /* \"#utility.yul\":6877:6880   */\n      dup2\n        /* \"#utility.yul\":6872:6875   */\n      dup4\n        /* \"#utility.yul\":6859:6889   */\n      calldatacopy\n        /* \"#utility.yul\":6944:6945   */\n      0x00\n        /* \"#utility.yul\":6935:6941   */\n      dup4\n        /* \"#utility.yul\":6930:6933   */\n      dup4\n        /* \"#utility.yul\":6926:6942   */\n      add\n        /* \"#utility.yul\":6919:6946   */\n      mstore\n        /* \"#utility.yul\":6849:6952   */\n      pop\n      pop\n      pop\n      jump\t// out\n        /* \"#utility.yul\":6958:7278   */\n    tag_76:\n      0x00\n        /* \"#utility.yul\":7039:7040   */\n      0x02\n        /* \"#utility.yul\":7033:7037   */\n      dup3\n        /* \"#utility.yul\":7029:7041   */\n      div\n        /* \"#utility.yul\":7019:7041   */\n      swap1\n      pop\n        /* \"#utility.yul\":7086:7087   */\n      0x01\n        /* \"#utility.yul\":7080:7084   */\n      dup3\n        /* \"#utility.yul\":7076:7088   */\n      and\n        /* \"#utility.yul\":7107:7125   */\n      dup1\n        /* \"#utility.yul\":7097:7099   */\n      tag_365\n      jumpi\n        /* \"#utility.yul\":7163:7167   */\n      0x7f\n        /* \"#utility.yul\":7155:7161   */\n      dup3\n        /* \"#utility.yul\":7151:7168   */\n      and\n        /* \"#utility.yul\":7141:7168   */\n      swap2\n      pop\n        /* \"#utility.yul\":7097:7099   */\n    tag_365:\n        /* \"#utility.yul\":7225:7227   */\n      0x20\n        /* \"#utility.yul\":7217:7223   */\n      dup3\n        /* \"#utility.yul\":7214:7228   */\n      lt\n        /* \"#utility.yul\":7194:7212   */\n      dup2\n        /* \"#utility.yul\":7191:7229   */\n      eq\n        /* \"#utility.yul\":7188:7190   */\n      iszero\n      tag_366\n      jumpi\n        /* \"#utility.yul\":7244:7262   */\n      tag_367\n      tag_368\n      jump\t// in\n    tag_367:\n        /* \"#utility.yul\":7188:7190   */\n    tag_366:\n        /* \"#utility.yul\":7009:7278   */\n      pop\n      swap2\n      swap1\n      pop\n      jump\t// out\n        /* \"#utility.yul\":7284:7565   */\n    tag_349:\n        /* \"#utility.yul\":7367:7394   */\n      tag_370\n        /* \"#utility.yul\":7389:7393   */\n      dup3\n        /* \"#utility.yul\":7367:7394   */\n      tag_356\n      jump\t// in\n    tag_370:\n        /* \"#utility.yul\":7359:7365   */\n      dup2\n        /* \"#utility.yul\":7355:7395   */\n      add\n        /* \"#utility.yul\":7497:7503   */\n      dup2\n        /* \"#utility.yul\":7485:7495   */\n      dup2\n        /* \"#utility.yul\":7482:7504   */\n      lt\n        /* \"#utility.yul\":7461:7479   */\n      0xffffffffffffffff\n        /* \"#utility.yul\":7449:7459   */\n      dup3\n        /* \"#utility.yul\":7446:7480   */\n      gt\n        /* \"#utility.yul\":7443:7505   */\n      or\n        /* \"#utility.yul\":7440:7442   */\n      iszero\n      tag_371\n      jumpi\n        /* \"#utility.yul\":7508:7526   */\n      tag_372\n      tag_354\n      jump\t// in\n    tag_372:\n        /* \"#utility.yul\":7440:7442   */\n    tag_371:\n        /* \"#utility.yul\":7548:7558   */\n      dup1\n        /* \"#utility.yul\":7544:7546   */\n      0x40\n        /* \"#utility.yul\":7537:7559   */\n      mstore\n        /* \"#utility.yul\":7327:7565   */\n      pop\n      pop\n      pop\n      jump\t// out\n        /* \"#utility.yul\":7571:7751   */\n    tag_368:\n        /* \"#utility.yul\":7619:7696   */\n      0x4e487b7100000000000000000000000000000000000000000000000000000000\n        /* \"#utility.yul\":7616:7617   */\n      0x00\n        /* \"#utility.yul\":7609:7697   */\n      mstore\n        /* \"#utility.yul\":7716:7720   */\n      0x22\n        /* \"#utility.yul\":7713:7714   */\n      0x04\n        /* \"#utility.yul\":7706:7721   */\n      mstore\n        /* \"#utility.yul\":7740:7744   */\n      0x24\n        /* \"#utility.yul\":7737:7738   */\n      0x00\n        /* \"#utility.yul\":7730:7745   */\n      revert\n        /* \"#utility.yul\":7757:7937   */\n    tag_354:\n        /* \"#utility.yul\":7805:7882   */\n      0x4e487b7100000000000000000000000000000000000000000000000000000000\n        /* \"#utility.yul\":7802:7803   */\n      0x00\n        /* \"#utility.yul\":7795:7883   */\n      mstore\n        /* \"#utility.yul\":7902:7906   */\n      0x41\n        /* \"#utility.yul\":7899:7900   */\n      0x04\n        /* \"#utility.yul\":7892:7907   */\n      mstore\n        /* \"#utility.yul\":7926:7930   */\n      0x24\n        /* \"#utility.yul\":7923:7924   */\n      0x00\n        /* \"#utility.yul\":7916:7931   */\n      revert\n        /* \"#utility.yul\":7943:8045   */\n    tag_356:\n      0x00\n        /* \"#utility.yul\":8035:8037   */\n      0x1f\n        /* \"#utility.yul\":8031:8038   */\n      not\n        /* \"#utility.yul\":8026:8028   */\n      0x1f\n        /* \"#utility.yul\":8019:8024   */\n      dup4\n        /* \"#utility.yul\":8015:8029   */\n      add\n        /* \"#utility.yul\":8011:8039   */\n      and\n        /* \"#utility.yul\":8001:8039   */\n      swap1\n      pop\n        /* \"#utility.yul\":7991:8045   */\n      swap2\n      swap1\n      pop\n      jump\t// out\n        /* \"#utility.yul\":8051:8272   */\n    tag_324:\n        /* \"#utility.yul\":8191:8225   */\n      0x4f6e6c79206f776e65722063616e2063616c6c20746869732066756e6374696f\n        /* \"#utility.yul\":8187:8188   */\n      0x00\n        /* \"#utility.yul\":8179:8185   */\n      dup3\n        /* \"#utility.yul\":8175:8189   */\n      add\n        /* \"#utility.yul\":8168:8226   */\n      mstore\n        /* \"#utility.yul\":8260:8264   */\n      0x6e2e000000000000000000000000000000000000000000000000000000000000\n        /* \"#utility.yul\":8255:8257   */\n      0x20\n        /* \"#utility.yul\":8247:8253   */\n      dup3\n        /* \"#utility.yul\":8243:8258   */\n      add\n        /* \"#utility.yul\":8236:8265   */\n      mstore\n        /* \"#utility.yul\":8157:8272   */\n      pop\n      jump\t// out\n        /* \"#utility.yul\":8278:8449   */\n    tag_329:\n        /* \"#utility.yul\":8418:8441   */\n      0x4163636f756e7420646f65736e27742065786973740000000000000000000000\n        /* \"#utility.yul\":8414:8415   */\n      0x00\n        /* \"#utility.yul\":8406:8412   */\n      dup3\n        /* \"#utility.yul\":8402:8416   */\n      add\n        /* \"#utility.yul\":8395:8442   */\n      mstore\n        /* \"#utility.yul\":8384:8449   */\n      pop\n      jump\t// out\n        /* \"#utility.yul\":8455:8627   */\n    tag_334:\n        /* \"#utility.yul\":8595:8619   */\n      0x4163636f756e7420616c72656164792065786973747300000000000000000000\n        /* \"#utility.yul\":8591:8592   */\n      0x00\n        /* \"#utility.yul\":8583:8589   */\n      dup3\n        /* \"#utility.yul\":8579:8593   */\n      add\n        /* \"#utility.yul\":8572:8620   */\n      mstore\n        /* \"#utility.yul\":8561:8627   */\n      pop\n      jump\t// out\n        /* \"#utility.yul\":8633:8755   */\n    tag_286:\n        /* \"#utility.yul\":8706:8730   */\n      tag_380\n        /* \"#utility.yul\":8724:8729   */\n      dup2\n        /* \"#utility.yul\":8706:8730   */\n      tag_314\n      jump\t// in\n    tag_380:\n        /* \"#utility.yul\":8699:8704   */\n      dup2\n        /* \"#utility.yul\":8696:8731   */\n      eq\n        /* \"#utility.yul\":8686:8688   */\n      tag_381\n      jumpi\n        /* \"#utility.yul\":8745:8746   */\n      0x00\n        /* \"#utility.yul\":8742:8743   */\n      dup1\n        /* \"#utility.yul\":8735:8747   */\n      revert\n        /* \"#utility.yul\":8686:8688   */\n    tag_381:\n        /* \"#utility.yul\":8676:8755   */\n      pop\n      jump\t// out\n        /* \"#utility.yul\":8761:8866   */\n    tag_290:\n        /* \"#utility.yul\":8840:8841   */\n      0x04\n        /* \"#utility.yul\":8833:8838   */\n      dup2\n        /* \"#utility.yul\":8830:8842   */\n      lt\n        /* \"#utility.yul\":8820:8822   */\n      tag_383\n      jumpi\n        /* \"#utility.yul\":8856:8857   */\n      0x00\n        /* \"#utility.yul\":8853:8854   */\n      dup1\n        /* \"#utility.yul\":8846:8858   */\n      revert\n        /* \"#utility.yul\":8820:8822   */\n    tag_383:\n        /* \"#utility.yul\":8810:8866   */\n      pop\n      jump\t// out\n\n    auxdata: 0xa2646970667358221220df1681ab41ed7f5ea3bb83e187829af6eeab0fd9bdff39bd89bb51a4ef15a9ce64736f6c63430008010033\n}\n",
				"bytecode": {
					"linkReferences": {},
					"object": "60806040523480156200001157600080fd5b50604051620041e4380380620041e4833981810160405281019062000037919062001372565b336000806101000a81548173ffffffffffffffffffffffffffffffffffffffff021916908373ffffffffffffffffffffffffffffffffffffffff1602179055506200008b33848484620000ba60201b60201c565b6200009e336000620003a560201b60201c565b620000b1336003620007f060201b60201c565b50505062001710565b83600073ffffffffffffffffffffffffffffffffffffffff16600160008373ffffffffffffffffffffffffffffffffffffffff1673ffffffffffffffffffffffffffffffffffffffff16815260200190815260200160002060000160009054906101000a900473ffffffffffffffffffffffffffffffffffffffff1673ffffffffffffffffffffffffffffffffffffffff16146200018f576040517f08c379a00000000000000000000000000000000000000000000000000000000081526004016200018690620014cc565b60405180910390fd5b6000604051806080016040528060001515815260200160001515815260200160001515815260200160011515815250905060006040518060c001604052808873ffffffffffffffffffffffffffffffffffffffff16815260200187815260200186815260200185815260200160011515815260200183815250905080600160008973ffffffffffffffffffffffffffffffffffffffff1673ffffffffffffffffffffffffffffffffffffffff16815260200190815260200160002060008201518160000160006101000a81548173ffffffffffffffffffffffffffffffffffffffff021916908373ffffffffffffffffffffffffffffffffffffffff1602179055506020820151816001019080519060200190620002af92919062001250565b506040820151816002019080519060200190620002ce92919062001250565b506060820151816003019080519060200190620002ed92919062001250565b5060808201518160040160006101000a81548160ff02191690831515021790555060a08201518160050160008201518160000160006101000a81548160ff02191690831515021790555060208201518160000160016101000a81548160ff02191690831515021790555060408201518160000160026101000a81548160ff02191690831515021790555060608201518160000160036101000a81548160ff021916908315150217905550505090505050505050505050565b60008054906101000a900473ffffffffffffffffffffffffffffffffffffffff1673ffffffffffffffffffffffffffffffffffffffff163373ffffffffffffffffffffffffffffffffffffffff1614806200040d57506200040c3362000ce560201b60201c565b5b6200044f576040517f08c379a0000000000000000000000000000000000000000000000000000000008152600401620004469062001488565b60405180910390fd5b81600073ffffffffffffffffffffffffffffffffffffffff16600160008373ffffffffffffffffffffffffffffffffffffffff1673ffffffffffffffffffffffffffffffffffffffff16815260200190815260200160002060000160009054906101000a900473ffffffffffffffffffffffffffffffffffffffff1673ffffffffffffffffffffffffffffffffffffffff16141562000525576040517f08c379a00000000000000000000000000000000000000000000000000000000081526004016200051c90620014aa565b60405180910390fd5b6000600160008573ffffffffffffffffffffffffffffffffffffffff1673ffffffffffffffffffffffffffffffffffffffff1681526020019081526020016000209050600081600501905060006003811115620005ab577f4e487b7100000000000000000000000000000000000000000000000000000000600052602160045260246000fd5b846003811115620005e5577f4e487b7100000000000000000000000000000000000000000000000000000000600052602160045260246000fd5b14156200060f5760018160000160006101000a81548160ff021916908315150217905550620007e9565b600160038111156200064a577f4e487b7100000000000000000000000000000000000000000000000000000000600052602160045260246000fd5b84600381111562000684577f4e487b7100000000000000000000000000000000000000000000000000000000600052602160045260246000fd5b1415620006ae5760018160000160016101000a81548160ff021916908315150217905550620007e8565b60026003811115620006e9577f4e487b7100000000000000000000000000000000000000000000000000000000600052602160045260246000fd5b84600381111562000723577f4e487b7100000000000000000000000000000000000000000000000000000000600052602160045260246000fd5b14156200074d5760018160000160026101000a81548160ff021916908315150217905550620007e7565b60038081111562000787577f4e487b7100000000000000000000000000000000000000000000000000000000600052602160045260246000fd5b846003811115620007c1577f4e487b7100000000000000000000000000000000000000000000000000000000600052602160045260246000fd5b1415620007e65760018160000160036101000a81548160ff0219169083151502179055505b5b5b5b5050505050565b60008054906101000a900473ffffffffffffffffffffffffffffffffffffffff1673ffffffffffffffffffffffffffffffffffffffff163373ffffffffffffffffffffffffffffffffffffffff161480620008585750620008573362000ce560201b60201c565b5b6200089a576040517f08c379a0000000000000000000000000000000000000000000000000000000008152600401620008919062001488565b60405180910390fd5b81600073ffffffffffffffffffffffffffffffffffffffff16600160008373ffffffffffffffffffffffffffffffffffffffff1673ffffffffffffffffffffffffffffffffffffffff16815260200190815260200160002060000160009054906101000a900473ffffffffffffffffffffffffffffffffffffffff1673ffffffffffffffffffffffffffffffffffffffff16141562000970576040517f08c379a00000000000000000000000000000000000000000000000000000000081526004016200096790620014aa565b60405180910390fd5b6000600160008573ffffffffffffffffffffffffffffffffffffffff1673ffffffffffffffffffffffffffffffffffffffff1681526020019081526020016000209050600081600501905060006003811115620009f6577f4e487b7100000000000000000000000000000000000000000000000000000000600052602160045260246000fd5b84600381111562000a30577f4e487b7100000000000000000000000000000000000000000000000000000000600052602160045260246000fd5b141562000a5a5760008160000160006101000a81548160ff02191690831515021790555062000c34565b6001600381111562000a95577f4e487b7100000000000000000000000000000000000000000000000000000000600052602160045260246000fd5b84600381111562000acf577f4e487b7100000000000000000000000000000000000000000000000000000000600052602160045260246000fd5b141562000af95760008160000160016101000a81548160ff02191690831515021790555062000c33565b6002600381111562000b34577f4e487b7100000000000000000000000000000000000000000000000000000000600052602160045260246000fd5b84600381111562000b6e577f4e487b7100000000000000000000000000000000000000000000000000000000600052602160045260246000fd5b141562000b985760008160000160026101000a81548160ff02191690831515021790555062000c32565b60038081111562000bd2577f4e487b7100000000000000000000000000000000000000000000000000000000600052602160045260246000fd5b84600381111562000c0c577f4e487b7100000000000000000000000000000000000000000000000000000000600052602160045260246000fd5b141562000c315760008160000160036101000a81548160ff0219169083151502179055505b5b5b5b8060000160009054906101000a900460ff1615801562000c6357508060000160019054906101000a900460ff16155b801562000c7f57508060000160029054906101000a900460ff16155b1562000cde576000600260008773ffffffffffffffffffffffffffffffffffffffff1673ffffffffffffffffffffffffffffffffffffffff16815260200190815260200160002060006101000a81548160ff0219169083151502179055505b5050505050565b600062000cfa82600062000d0160201b60201c565b9050919050565b600080600160008573ffffffffffffffffffffffffffffffffffffffff1673ffffffffffffffffffffffffffffffffffffffff1681526020019081526020016000206040518060c00160405290816000820160009054906101000a900473ffffffffffffffffffffffffffffffffffffffff1673ffffffffffffffffffffffffffffffffffffffff1673ffffffffffffffffffffffffffffffffffffffff16815260200160018201805462000db69062001594565b80601f016020809104026020016040519081016040528092919081815260200182805462000de49062001594565b801562000e355780601f1062000e095761010080835404028352916020019162000e35565b820191906000526020600020905b81548152906001019060200180831162000e1757829003601f168201915b5050505050815260200160028201805462000e509062001594565b80601f016020809104026020016040519081016040528092919081815260200182805462000e7e9062001594565b801562000ecf5780601f1062000ea35761010080835404028352916020019162000ecf565b820191906000526020600020905b81548152906001019060200180831162000eb157829003601f168201915b5050505050815260200160038201805462000eea9062001594565b80601f016020809104026020016040519081016040528092919081815260200182805462000f189062001594565b801562000f695780601f1062000f3d5761010080835404028352916020019162000f69565b820191906000526020600020905b81548152906001019060200180831162000f4b57829003601f168201915b505050505081526020016004820160009054906101000a900460ff16151515158152602001600582016040518060800160405290816000820160009054906101000a900460ff161515151581526020016000820160019054906101000a900460ff161515151581526020016000820160029054906101000a900460ff161515151581526020016000820160039054906101000a900460ff16151515158152505081525050905060008160a0015190506000600381111562001053577f4e487b7100000000000000000000000000000000000000000000000000000000600052602160045260246000fd5b8460038111156200108d577f4e487b7100000000000000000000000000000000000000000000000000000000600052602160045260246000fd5b1415620010a3578060000151925050506200124a565b60016003811115620010de577f4e487b7100000000000000000000000000000000000000000000000000000000600052602160045260246000fd5b84600381111562001118577f4e487b7100000000000000000000000000000000000000000000000000000000600052602160045260246000fd5b14156200112e578060200151925050506200124a565b6002600381111562001169577f4e487b7100000000000000000000000000000000000000000000000000000000600052602160045260246000fd5b846003811115620011a3577f4e487b7100000000000000000000000000000000000000000000000000000000600052602160045260246000fd5b1415620011b9578060400151925050506200124a565b600380811115620011f3577f4e487b7100000000000000000000000000000000000000000000000000000000600052602160045260246000fd5b8460038111156200122d577f4e487b7100000000000000000000000000000000000000000000000000000000600052602160045260246000fd5b141562001243578060600151925050506200124a565b6000925050505b92915050565b8280546200125e9062001594565b90600052602060002090601f016020900481019282620012825760008555620012ce565b82601f106200129d57805160ff1916838001178555620012ce565b82800160010185558215620012ce579182015b82811115620012cd578251825591602001919060010190620012b0565b5b509050620012dd9190620012e1565b5090565b5b80821115620012fc576000816000905550600101620012e2565b5090565b600062001317620013118462001517565b620014ee565b9050828152602081018484840111156200133057600080fd5b6200133d8482856200155e565b509392505050565b600082601f8301126200135757600080fd5b81516200136984826020860162001300565b91505092915050565b6000806000606084860312156200138857600080fd5b600084015167ffffffffffffffff811115620013a357600080fd5b620013b18682870162001345565b935050602084015167ffffffffffffffff811115620013cf57600080fd5b620013dd8682870162001345565b925050604084015167ffffffffffffffff811115620013fb57600080fd5b620014098682870162001345565b9150509250925092565b6000620014226022836200154d565b91506200142f826200166f565b604082019050919050565b6000620014496015836200154d565b91506200145682620016be565b602082019050919050565b6000620014706016836200154d565b91506200147d82620016e7565b602082019050919050565b60006020820190508181036000830152620014a38162001413565b9050919050565b60006020820190508181036000830152620014c5816200143a565b9050919050565b60006020820190508181036000830152620014e78162001461565b9050919050565b6000620014fa6200150d565b9050620015088282620015ca565b919050565b6000604051905090565b600067ffffffffffffffff8211156200153557620015346200162f565b5b62001540826200165e565b9050602081019050919050565b600082825260208201905092915050565b60005b838110156200157e57808201518184015260208101905062001561565b838111156200158e576000848401525b50505050565b60006002820490506001821680620015ad57607f821691505b60208210811415620015c457620015c362001600565b5b50919050565b620015d5826200165e565b810181811067ffffffffffffffff82111715620015f757620015f66200162f565b5b80604052505050565b7f4e487b7100000000000000000000000000000000000000000000000000000000600052602260045260246000fd5b7f4e487b7100000000000000000000000000000000000000000000000000000000600052604160045260246000fd5b6000601f19601f8301169050919050565b7f4f6e6c79206f776e65722063616e2063616c6c20746869732066756e6374696f60008201527f6e2e000000000000000000000000000000000000000000000000000000000000602082015250565b7f4163636f756e7420646f65736e27742065786973740000000000000000000000600082015250565b7f4163636f756e7420616c72656164792065786973747300000000000000000000600082015250565b612ac480620017206000396000f3fe608060405234801561001057600080fd5b50600436106100ea5760003560e01c8063a1aea04a1161008c578063d3a5059a11610066578063d3a5059a1461026d578063dee94b4a14610289578063e8621e59146102a5578063fa4d7aae146102d5576100ea565b8063a1aea04a14610205578063b74866fb14610221578063c2b7d9481461023d576100ea565b806349587281116100c8578063495872811461017f578063630a195b1461019b57806365c93769146101b75780638da5cb5b146101e7576100ea565b806301eb0857146100ef578063056909b71461011f578063297027d51461014f575b600080fd5b61010960048036038101906101049190612613565b610305565b60405161011691906127c5565b60405180910390f35b61013960048036038101906101349190612613565b610684565b60405161014691906127c5565b60405180910390f35b61016960048036038101906101649190612613565b610698565b60405161017691906127c5565b60405180910390f35b61019960048036038101906101949190612613565b6106ac565b005b6101b560048036038101906101b0919061263c565b61083c565b005b6101d160048036038101906101cc9190612613565b610c69565b6040516101de91906127c5565b60405180910390f35b6101ef610fe8565b6040516101fc91906127aa565b60405180910390f35b61021f600480360381019061021a9190612613565b61100c565b005b61023b6004803603810190610236919061263c565b61123f565b005b61025760048036038101906102529190612613565b611713565b60405161026491906127c5565b60405180910390f35b61028760048036038101906102829190612613565b611a92565b005b6102a3600480360381019061029e9190612678565b611c6d565b005b6102bf60048036038101906102ba9190612613565b611f4f565b6040516102cc91906127c5565b60405180910390f35b6102ef60048036038101906102ea9190612613565b611f63565b6040516102fc91906127c5565b60405180910390f35b600080600160008473ffffffffffffffffffffffffffffffffffffffff1673ffffffffffffffffffffffffffffffffffffffff1681526020019081526020016000206040518060c00160405290816000820160009054906101000a900473ffffffffffffffffffffffffffffffffffffffff1673ffffffffffffffffffffffffffffffffffffffff1673ffffffffffffffffffffffffffffffffffffffff1681526020016001820180546103b8906128f4565b80601f01602080910402602001604051908101604052809291908181526020018280546103e4906128f4565b80156104315780601f1061040657610100808354040283529160200191610431565b820191906000526020600020905b81548152906001019060200180831161041457829003601f168201915b5050505050815260200160028201805461044a906128f4565b80601f0160208091040260200160405190810160405280929190818152602001828054610476906128f4565b80156104c35780601f10610498576101008083540402835291602001916104c3565b820191906000526020600020905b8154815290600101906020018083116104a657829003601f168201915b505050505081526020016003820180546104dc906128f4565b80601f0160208091040260200160405190810160405280929190818152602001828054610508906128f4565b80156105555780601f1061052a57610100808354040283529160200191610555565b820191906000526020600020905b81548152906001019060200180831161053857829003601f168201915b505050505081526020016004820160009054906101000a900460ff16151515158152602001600582016040518060800160405290816000820160009054906101000a900460ff161515151581526020016000820160019054906101000a900460ff161515151581526020016000820160029054906101000a900460ff161515151581526020016000820160039054906101000a900460ff161515151581525050815250509050600073ffffffffffffffffffffffffffffffffffffffff16816000015173ffffffffffffffffffffffffffffffffffffffff1614610679578060800151801561066957508060a00151600001518061065857508060a00151602001515b8061066857508060a00151604001515b5b1561067857600191505061067f565b5b60009150505b919050565b6000610691826002611f77565b9050919050565b60006106a5826000611f77565b9050919050565b80600073ffffffffffffffffffffffffffffffffffffffff16600160008373ffffffffffffffffffffffffffffffffffffffff1673ffffffffffffffffffffffffffffffffffffffff16815260200190815260200160002060000160009054906101000a900473ffffffffffffffffffffffffffffffffffffffff1673ffffffffffffffffffffffffffffffffffffffff16141561077f576040517f08c379a000000000000000000000000000000000000000000000000000000000815260040161077690612800565b60405180910390fd5b6000600160008473ffffffffffffffffffffffffffffffffffffffff1673ffffffffffffffffffffffffffffffffffffffff168152602001908152602001600020905060008160040160006101000a81548160ff0219169083151502179055506000600260008573ffffffffffffffffffffffffffffffffffffffff1673ffffffffffffffffffffffffffffffffffffffff16815260200190815260200160002060006101000a81548160ff021916908315150217905550505050565b60008054906101000a900473ffffffffffffffffffffffffffffffffffffffff1673ffffffffffffffffffffffffffffffffffffffff163373ffffffffffffffffffffffffffffffffffffffff16148061089b575061089a33610698565b5b6108da576040517f08c379a00000000000000000000000000000000000000000000000000000000081526004016108d1906127e0565b60405180910390fd5b81600073ffffffffffffffffffffffffffffffffffffffff16600160008373ffffffffffffffffffffffffffffffffffffffff1673ffffffffffffffffffffffffffffffffffffffff16815260200190815260200160002060000160009054906101000a900473ffffffffffffffffffffffffffffffffffffffff1673ffffffffffffffffffffffffffffffffffffffff1614156109ad576040517f08c379a00000000000000000000000000000000000000000000000000000000081526004016109a490612800565b60405180910390fd5b6000600160008573ffffffffffffffffffffffffffffffffffffffff1673ffffffffffffffffffffffffffffffffffffffff1681526020019081526020016000209050600081600501905060006003811115610a32577f4e487b7100000000000000000000000000000000000000000000000000000000600052602160045260246000fd5b846003811115610a6b577f4e487b7100000000000000000000000000000000000000000000000000000000600052602160045260246000fd5b1415610a935760018160000160006101000a81548160ff021916908315150217905550610c62565b60016003811115610acd577f4e487b7100000000000000000000000000000000000000000000000000000000600052602160045260246000fd5b846003811115610b06577f4e487b7100000000000000000000000000000000000000000000000000000000600052602160045260246000fd5b1415610b2e5760018160000160016101000a81548160ff021916908315150217905550610c61565b60026003811115610b68577f4e487b7100000000000000000000000000000000000000000000000000000000600052602160045260246000fd5b846003811115610ba1577f4e487b7100000000000000000000000000000000000000000000000000000000600052602160045260246000fd5b1415610bc95760018160000160026101000a81548160ff021916908315150217905550610c60565b600380811115610c02577f4e487b7100000000000000000000000000000000000000000000000000000000600052602160045260246000fd5b846003811115610c3b577f4e487b7100000000000000000000000000000000000000000000000000000000600052602160045260246000fd5b1415610c5f5760018160000160036101000a81548160ff0219169083151502179055505b5b5b5b5050505050565b600080600160008473ffffffffffffffffffffffffffffffffffffffff1673ffffffffffffffffffffffffffffffffffffffff1681526020019081526020016000206040518060c00160405290816000820160009054906101000a900473ffffffffffffffffffffffffffffffffffffffff1673ffffffffffffffffffffffffffffffffffffffff1673ffffffffffffffffffffffffffffffffffffffff168152602001600182018054610d1c906128f4565b80601f0160208091040260200160405190810160405280929190818152602001828054610d48906128f4565b8015610d955780601f10610d6a57610100808354040283529160200191610d95565b820191906000526020600020905b815481529060010190602001808311610d7857829003601f168201915b50505050508152602001600282018054610dae906128f4565b80601f0160208091040260200160405190810160405280929190818152602001828054610dda906128f4565b8015610e275780601f10610dfc57610100808354040283529160200191610e27565b820191906000526020600020905b815481529060010190602001808311610e0a57829003601f168201915b50505050508152602001600382018054610e40906128f4565b80601f0160208091040260200160405190810160405280929190818152602001828054610e6c906128f4565b8015610eb95780601f10610e8e57610100808354040283529160200191610eb9565b820191906000526020600020905b815481529060010190602001808311610e9c57829003601f168201915b505050505081526020016004820160009054906101000a900460ff16151515158152602001600582016040518060800160405290816000820160009054906101000a900460ff161515151581526020016000820160019054906101000a900460ff161515151581526020016000820160029054906101000a900460ff161515151581526020016000820160039054906101000a900460ff161515151581525050815250509050600073ffffffffffffffffffffffffffffffffffffffff16816000015173ffffffffffffffffffffffffffffffffffffffff1614610fdd5780608001518015610fcd57508060a001516000015180610fbc57508060a00151602001515b80610fcc57508060a00151604001515b5b15610fdc576001915050610fe3565b5b60009150505b919050565b60008054906101000a900473ffffffffffffffffffffffffffffffffffffffff1681565b80600073ffffffffffffffffffffffffffffffffffffffff16600160008373ffffffffffffffffffffffffffffffffffffffff1673ffffffffffffffffffffffffffffffffffffffff16815260200190815260200160002060000160009054906101000a900473ffffffffffffffffffffffffffffffffffffffff1673ffffffffffffffffffffffffffffffffffffffff1614156110df576040517f08c379a00000000000000000000000000000000000000000000000000000000081526004016110d690612800565b60405180910390fd5b6000600160008473ffffffffffffffffffffffffffffffffffffffff1673ffffffffffffffffffffffffffffffffffffffff168152602001908152602001600020905060018160040160006101000a81548160ff0219169083151502179055506000816005016040518060800160405290816000820160009054906101000a900460ff161515151581526020016000820160019054906101000a900460ff161515151581526020016000820160029054906101000a900460ff161515151581526020016000820160039054906101000a900460ff16151515158152505090508060000151806111cf575080602001515b806111db575080604001515b15611239576001600260008673ffffffffffffffffffffffffffffffffffffffff1673ffffffffffffffffffffffffffffffffffffffff16815260200190815260200160002060006101000a81548160ff0219169083151502179055505b50505050565b60008054906101000a900473ffffffffffffffffffffffffffffffffffffffff1673ffffffffffffffffffffffffffffffffffffffff163373ffffffffffffffffffffffffffffffffffffffff16148061129e575061129d33610698565b5b6112dd576040517f08c379a00000000000000000000000000000000000000000000000000000000081526004016112d4906127e0565b60405180910390fd5b81600073ffffffffffffffffffffffffffffffffffffffff16600160008373ffffffffffffffffffffffffffffffffffffffff1673ffffffffffffffffffffffffffffffffffffffff16815260200190815260200160002060000160009054906101000a900473ffffffffffffffffffffffffffffffffffffffff1673ffffffffffffffffffffffffffffffffffffffff1614156113b0576040517f08c379a00000000000000000000000000000000000000000000000000000000081526004016113a790612800565b60405180910390fd5b6000600160008573ffffffffffffffffffffffffffffffffffffffff1673ffffffffffffffffffffffffffffffffffffffff1681526020019081526020016000209050600081600501905060006003811115611435577f4e487b7100000000000000000000000000000000000000000000000000000000600052602160045260246000fd5b84600381111561146e577f4e487b7100000000000000000000000000000000000000000000000000000000600052602160045260246000fd5b14156114965760008160000160006101000a81548160ff021916908315150217905550611665565b600160038111156114d0577f4e487b7100000000000000000000000000000000000000000000000000000000600052602160045260246000fd5b846003811115611509577f4e487b7100000000000000000000000000000000000000000000000000000000600052602160045260246000fd5b14156115315760008160000160016101000a81548160ff021916908315150217905550611664565b6002600381111561156b577f4e487b7100000000000000000000000000000000000000000000000000000000600052602160045260246000fd5b8460038111156115a4577f4e487b7100000000000000000000000000000000000000000000000000000000600052602160045260246000fd5b14156115cc5760008160000160026101000a81548160ff021916908315150217905550611663565b600380811115611605577f4e487b7100000000000000000000000000000000000000000000000000000000600052602160045260246000fd5b84600381111561163e577f4e487b7100000000000000000000000000000000000000000000000000000000600052602160045260246000fd5b14156116625760008160000160036101000a81548160ff0219169083151502179055505b5b5b5b8060000160009054906101000a900460ff1615801561169357508060000160019054906101000a900460ff16155b80156116ae57508060000160029054906101000a900460ff16155b1561170c576000600260008773ffffffffffffffffffffffffffffffffffffffff1673ffffffffffffffffffffffffffffffffffffffff16815260200190815260200160002060006101000a81548160ff0219169083151502179055505b5050505050565b600080600160008473ffffffffffffffffffffffffffffffffffffffff1673ffffffffffffffffffffffffffffffffffffffff1681526020019081526020016000206040518060c00160405290816000820160009054906101000a900473ffffffffffffffffffffffffffffffffffffffff1673ffffffffffffffffffffffffffffffffffffffff1673ffffffffffffffffffffffffffffffffffffffff1681526020016001820180546117c6906128f4565b80601f01602080910402602001604051908101604052809291908181526020018280546117f2906128f4565b801561183f5780601f106118145761010080835404028352916020019161183f565b820191906000526020600020905b81548152906001019060200180831161182257829003601f168201915b50505050508152602001600282018054611858906128f4565b80601f0160208091040260200160405190810160405280929190818152602001828054611884906128f4565b80156118d15780601f106118a6576101008083540402835291602001916118d1565b820191906000526020600020905b8154815290600101906020018083116118b457829003601f168201915b505050505081526020016003820180546118ea906128f4565b80601f0160208091040260200160405190810160405280929190818152602001828054611916906128f4565b80156119635780601f1061193857610100808354040283529160200191611963565b820191906000526020600020905b81548152906001019060200180831161194657829003601f168201915b505050505081526020016004820160009054906101000a900460ff16151515158152602001600582016040518060800160405290816000820160009054906101000a900460ff161515151581526020016000820160019054906101000a900460ff161515151581526020016000820160029054906101000a900460ff161515151581526020016000820160039054906101000a900460ff161515151581525050815250509050600073ffffffffffffffffffffffffffffffffffffffff16816000015173ffffffffffffffffffffffffffffffffffffffff1614611a875780608001518015611a7757508060a001516000015180611a6657508060a00151602001515b80611a7657508060a00151604001515b5b15611a86576001915050611a8d565b5b60009150505b919050565b80600073ffffffffffffffffffffffffffffffffffffffff16600160008373ffffffffffffffffffffffffffffffffffffffff1673ffffffffffffffffffffffffffffffffffffffff16815260200190815260200160002060000160009054906101000a900473ffffffffffffffffffffffffffffffffffffffff1673ffffffffffffffffffffffffffffffffffffffff161415611b65576040517f08c379a0000000000000000000000000000000000000000000000000000000008152600401611b5c90612800565b60405180910390fd5b600160008373ffffffffffffffffffffffffffffffffffffffff1673ffffffffffffffffffffffffffffffffffffffff168152602001908152602001600020600080820160006101000a81549073ffffffffffffffffffffffffffffffffffffffff0219169055600182016000611bdc919061249e565b600282016000611bec919061249e565b600382016000611bfc919061249e565b6004820160006101000a81549060ff021916905560058201600080820160006101000a81549060ff02191690556000820160016101000a81549060ff02191690556000820160026101000a81549060ff02191690556000820160036101000a81549060ff0219169055505050505050565b83600073ffffffffffffffffffffffffffffffffffffffff16600160008373ffffffffffffffffffffffffffffffffffffffff1673ffffffffffffffffffffffffffffffffffffffff16815260200190815260200160002060000160009054906101000a900473ffffffffffffffffffffffffffffffffffffffff1673ffffffffffffffffffffffffffffffffffffffff1614611d3f576040517f08c379a0000000000000000000000000000000000000000000000000000000008152600401611d3690612820565b60405180910390fd5b6000604051806080016040528060001515815260200160001515815260200160001515815260200160011515815250905060006040518060c001604052808873ffffffffffffffffffffffffffffffffffffffff16815260200187815260200186815260200185815260200160011515815260200183815250905080600160008973ffffffffffffffffffffffffffffffffffffffff1673ffffffffffffffffffffffffffffffffffffffff16815260200190815260200160002060008201518160000160006101000a81548173ffffffffffffffffffffffffffffffffffffffff021916908373ffffffffffffffffffffffffffffffffffffffff1602179055506020820151816001019080519060200190611e5d9291906124de565b506040820151816002019080519060200190611e7a9291906124de565b506060820151816003019080519060200190611e979291906124de565b5060808201518160040160006101000a81548160ff02191690831515021790555060a08201518160050160008201518160000160006101000a81548160ff02191690831515021790555060208201518160000160016101000a81548160ff02191690831515021790555060408201518160000160026101000a81548160ff02191690831515021790555060608201518160000160036101000a81548160ff021916908315150217905550505090505050505050505050565b6000611f5c826003611f77565b9050919050565b6000611f70826001611f77565b9050919050565b600080600160008573ffffffffffffffffffffffffffffffffffffffff1673ffffffffffffffffffffffffffffffffffffffff1681526020019081526020016000206040518060c00160405290816000820160009054906101000a900473ffffffffffffffffffffffffffffffffffffffff1673ffffffffffffffffffffffffffffffffffffffff1673ffffffffffffffffffffffffffffffffffffffff16815260200160018201805461202a906128f4565b80601f0160208091040260200160405190810160405280929190818152602001828054612056906128f4565b80156120a35780601f10612078576101008083540402835291602001916120a3565b820191906000526020600020905b81548152906001019060200180831161208657829003601f168201915b505050505081526020016002820180546120bc906128f4565b80601f01602080910402602001604051908101604052809291908181526020018280546120e8906128f4565b80156121355780601f1061210a57610100808354040283529160200191612135565b820191906000526020600020905b81548152906001019060200180831161211857829003601f168201915b5050505050815260200160038201805461214e906128f4565b80601f016020809104026020016040519081016040528092919081815260200182805461217a906128f4565b80156121c75780601f1061219c576101008083540402835291602001916121c7565b820191906000526020600020905b8154815290600101906020018083116121aa57829003601f168201915b505050505081526020016004820160009054906101000a900460ff16151515158152602001600582016040518060800160405290816000820160009054906101000a900460ff161515151581526020016000820160019054906101000a900460ff161515151581526020016000820160029054906101000a900460ff161515151581526020016000820160039054906101000a900460ff16151515158152505081525050905060008160a001519050600060038111156122b0577f4e487b7100000000000000000000000000000000000000000000000000000000600052602160045260246000fd5b8460038111156122e9577f4e487b7100000000000000000000000000000000000000000000000000000000600052602160045260246000fd5b14156122fd57806000015192505050612498565b60016003811115612337577f4e487b7100000000000000000000000000000000000000000000000000000000600052602160045260246000fd5b846003811115612370577f4e487b7100000000000000000000000000000000000000000000000000000000600052602160045260246000fd5b141561238457806020015192505050612498565b600260038111156123be577f4e487b7100000000000000000000000000000000000000000000000000000000600052602160045260246000fd5b8460038111156123f7577f4e487b7100000000000000000000000000000000000000000000000000000000600052602160045260246000fd5b141561240b57806040015192505050612498565b600380811115612444577f4e487b7100000000000000000000000000000000000000000000000000000000600052602160045260246000fd5b84600381111561247d577f4e487b7100000000000000000000000000000000000000000000000000000000600052602160045260246000fd5b141561249157806060015192505050612498565b6000925050505b92915050565b5080546124aa906128f4565b6000825580601f106124bc57506124db565b601f0160209004906000526020600020908101906124da9190612564565b5b50565b8280546124ea906128f4565b90600052602060002090601f01602090048101928261250c5760008555612553565b82601f1061252557805160ff1916838001178555612553565b82800160010185558215612553579182015b82811115612552578251825591602001919060010190612537565b5b5090506125609190612564565b5090565b5b8082111561257d576000816000905550600101612565565b5090565b600061259461258f84612865565b612840565b9050828152602081018484840111156125ac57600080fd5b6125b78482856128e5565b509392505050565b6000813590506125ce81612a67565b92915050565b6000813590506125e381612a7e565b92915050565b600082601f8301126125fa57600080fd5b813561260a848260208601612581565b91505092915050565b60006020828403121561262557600080fd5b6000612633848285016125bf565b91505092915050565b6000806040838503121561264f57600080fd5b600061265d858286016125bf565b925050602061266e858286016125d4565b9150509250929050565b6000806000806080858703121561268e57600080fd5b600061269c878288016125bf565b945050602085013567ffffffffffffffff8111156126b957600080fd5b6126c5878288016125e9565b935050604085013567ffffffffffffffff8111156126e257600080fd5b6126ee878288016125e9565b925050606085013567ffffffffffffffff81111561270b57600080fd5b612717878288016125e9565b91505092959194509250565b61272c816128a7565b82525050565b61273b816128b9565b82525050565b600061274e602283612896565b9150612759826129c6565b604082019050919050565b6000612771601583612896565b915061277c82612a15565b602082019050919050565b6000612794601683612896565b915061279f82612a3e565b602082019050919050565b60006020820190506127bf6000830184612723565b92915050565b60006020820190506127da6000830184612732565b92915050565b600060208201905081810360008301526127f981612741565b9050919050565b6000602082019050818103600083015261281981612764565b9050919050565b6000602082019050818103600083015261283981612787565b9050919050565b600061284a61285b565b90506128568282612926565b919050565b6000604051905090565b600067ffffffffffffffff8211156128805761287f612986565b5b612889826129b5565b9050602081019050919050565b600082825260208201905092915050565b60006128b2826128c5565b9050919050565b60008115159050919050565b600073ffffffffffffffffffffffffffffffffffffffff82169050919050565b82818337600083830152505050565b6000600282049050600182168061290c57607f821691505b602082108114156129205761291f612957565b5b50919050565b61292f826129b5565b810181811067ffffffffffffffff8211171561294e5761294d612986565b5b80604052505050565b7f4e487b7100000000000000000000000000000000000000000000000000000000600052602260045260246000fd5b7f4e487b7100000000000000000000000000000000000000000000000000000000600052604160045260246000fd5b6000601f19601f8301169050919050565b7f4f6e6c79206f776e65722063616e2063616c6c20746869732066756e6374696f60008201527f6e2e000000000000000000000000000000000000000000000000000000000000602082015250565b7f4163636f756e7420646f65736e27742065786973740000000000000000000000600082015250565b7f4163636f756e7420616c72656164792065786973747300000000000000000000600082015250565b612a70816128a7565b8114612a7b57600080fd5b50565b60048110612a8b57600080fd5b5056fea2646970667358221220df1681ab41ed7f5ea3bb83e187829af6eeab0fd9bdff39bd89bb51a4ef15a9ce64736f6c63430008010033",
					"opcodes": "PUSH1 0x80 PUSH1 0x40 MSTORE CALLVALUE DUP1 ISZERO PUSH3 0x11 JUMPI PUSH1 0x0 DUP1 REVERT JUMPDEST POP PUSH1 0x40 MLOAD PUSH3 0x41E4 CODESIZE SUB DUP1 PUSH3 0x41E4 DUP4 CODECOPY DUP2 DUP2 ADD PUSH1 0x40 MSTORE DUP2 ADD SWAP1 PUSH3 0x37 SWAP2 SWAP1 PUSH3 0x1372 JUMP JUMPDEST CALLER PUSH1 0x0 DUP1 PUSH2 0x100 EXP DUP2 SLOAD DUP2 PUSH20 0xFFFFFFFFFFFFFFFFFFFFFFFFFFFFFFFFFFFFFFFF MUL NOT AND SWAP1 DUP4 PUSH20 0xFFFFFFFFFFFFFFFFFFFFFFFFFFFFFFFFFFFFFFFF AND MUL OR SWAP1 SSTORE POP PUSH3 0x8B CALLER DUP5 DUP5 DUP5 PUSH3 0xBA PUSH1 0x20 SHL PUSH1 0x20 SHR JUMP JUMPDEST PUSH3 0x9E CALLER PUSH1 0x0 PUSH3 0x3A5 PUSH1 0x20 SHL PUSH1 0x20 SHR JUMP JUMPDEST PUSH3 0xB1 CALLER PUSH1 0x3 PUSH3 0x7F0 PUSH1 0x20 SHL PUSH1 0x20 SHR JUMP JUMPDEST POP POP POP PUSH3 0x1710 JUMP JUMPDEST DUP4 PUSH1 0x0 PUSH20 0xFFFFFFFFFFFFFFFFFFFFFFFFFFFFFFFFFFFFFFFF AND PUSH1 0x1 PUSH1 0x0 DUP4 PUSH20 0xFFFFFFFFFFFFFFFFFFFFFFFFFFFFFFFFFFFFFFFF AND PUSH20 0xFFFFFFFFFFFFFFFFFFFFFFFFFFFFFFFFFFFFFFFF AND DUP2 MSTORE PUSH1 0x20 ADD SWAP1 DUP2 MSTORE PUSH1 0x20 ADD PUSH1 0x0 KECCAK256 PUSH1 0x0 ADD PUSH1 0x0 SWAP1 SLOAD SWAP1 PUSH2 0x100 EXP SWAP1 DIV PUSH20 0xFFFFFFFFFFFFFFFFFFFFFFFFFFFFFFFFFFFFFFFF AND PUSH20 0xFFFFFFFFFFFFFFFFFFFFFFFFFFFFFFFFFFFFFFFF AND EQ PUSH3 0x18F JUMPI PUSH1 0x40 MLOAD PUSH32 0x8C379A000000000000000000000000000000000000000000000000000000000 DUP2 MSTORE PUSH1 0x4 ADD PUSH3 0x186 SWAP1 PUSH3 0x14CC JUMP JUMPDEST PUSH1 0x40 MLOAD DUP1 SWAP2 SUB SWAP1 REVERT JUMPDEST PUSH1 0x0 PUSH1 0x40 MLOAD DUP1 PUSH1 0x80 ADD PUSH1 0x40 MSTORE DUP1 PUSH1 0x0 ISZERO ISZERO DUP2 MSTORE PUSH1 0x20 ADD PUSH1 0x0 ISZERO ISZERO DUP2 MSTORE PUSH1 0x20 ADD PUSH1 0x0 ISZERO ISZERO DUP2 MSTORE PUSH1 0x20 ADD PUSH1 0x1 ISZERO ISZERO DUP2 MSTORE POP SWAP1 POP PUSH1 0x0 PUSH1 0x40 MLOAD DUP1 PUSH1 0xC0 ADD PUSH1 0x40 MSTORE DUP1 DUP9 PUSH20 0xFFFFFFFFFFFFFFFFFFFFFFFFFFFFFFFFFFFFFFFF AND DUP2 MSTORE PUSH1 0x20 ADD DUP8 DUP2 MSTORE PUSH1 0x20 ADD DUP7 DUP2 MSTORE PUSH1 0x20 ADD DUP6 DUP2 MSTORE PUSH1 0x20 ADD PUSH1 0x1 ISZERO ISZERO DUP2 MSTORE PUSH1 0x20 ADD DUP4 DUP2 MSTORE POP SWAP1 POP DUP1 PUSH1 0x1 PUSH1 0x0 DUP10 PUSH20 0xFFFFFFFFFFFFFFFFFFFFFFFFFFFFFFFFFFFFFFFF AND PUSH20 0xFFFFFFFFFFFFFFFFFFFFFFFFFFFFFFFFFFFFFFFF AND DUP2 MSTORE PUSH1 0x20 ADD SWAP1 DUP2 MSTORE PUSH1 0x20 ADD PUSH1 0x0 KECCAK256 PUSH1 0x0 DUP3 ADD MLOAD DUP2 PUSH1 0x0 ADD PUSH1 0x0 PUSH2 0x100 EXP DUP2 SLOAD DUP2 PUSH20 0xFFFFFFFFFFFFFFFFFFFFFFFFFFFFFFFFFFFFFFFF MUL NOT AND SWAP1 DUP4 PUSH20 0xFFFFFFFFFFFFFFFFFFFFFFFFFFFFFFFFFFFFFFFF AND MUL OR SWAP1 SSTORE POP PUSH1 0x20 DUP3 ADD MLOAD DUP2 PUSH1 0x1 ADD SWAP1 DUP1 MLOAD SWAP1 PUSH1 0x20 ADD SWAP1 PUSH3 0x2AF SWAP3 SWAP2 SWAP1 PUSH3 0x1250 JUMP JUMPDEST POP PUSH1 0x40 DUP3 ADD MLOAD DUP2 PUSH1 0x2 ADD SWAP1 DUP1 MLOAD SWAP1 PUSH1 0x20 ADD SWAP1 PUSH3 0x2CE SWAP3 SWAP2 SWAP1 PUSH3 0x1250 JUMP JUMPDEST POP PUSH1 0x60 DUP3 ADD MLOAD DUP2 PUSH1 0x3 ADD SWAP1 DUP1 MLOAD SWAP1 PUSH1 0x20 ADD SWAP1 PUSH3 0x2ED SWAP3 SWAP2 SWAP1 PUSH3 0x1250 JUMP JUMPDEST POP PUSH1 0x80 DUP3 ADD MLOAD DUP2 PUSH1 0x4 ADD PUSH1 0x0 PUSH2 0x100 EXP DUP2 SLOAD DUP2 PUSH1 0xFF MUL NOT AND SWAP1 DUP4 ISZERO ISZERO MUL OR SWAP1 SSTORE POP PUSH1 0xA0 DUP3 ADD MLOAD DUP2 PUSH1 0x5 ADD PUSH1 0x0 DUP3 ADD MLOAD DUP2 PUSH1 0x0 ADD PUSH1 0x0 PUSH2 0x100 EXP DUP2 SLOAD DUP2 PUSH1 0xFF MUL NOT AND SWAP1 DUP4 ISZERO ISZERO MUL OR SWAP1 SSTORE POP PUSH1 0x20 DUP3 ADD MLOAD DUP2 PUSH1 0x0 ADD PUSH1 0x1 PUSH2 0x100 EXP DUP2 SLOAD DUP2 PUSH1 0xFF MUL NOT AND SWAP1 DUP4 ISZERO ISZERO MUL OR SWAP1 SSTORE POP PUSH1 0x40 DUP3 ADD MLOAD DUP2 PUSH1 0x0 ADD PUSH1 0x2 PUSH2 0x100 EXP DUP2 SLOAD DUP2 PUSH1 0xFF MUL NOT AND SWAP1 DUP4 ISZERO ISZERO MUL OR SWAP1 SSTORE POP PUSH1 0x60 DUP3 ADD MLOAD DUP2 PUSH1 0x0 ADD PUSH1 0x3 PUSH2 0x100 EXP DUP2 SLOAD DUP2 PUSH1 0xFF MUL NOT AND SWAP1 DUP4 ISZERO ISZERO MUL OR SWAP1 SSTORE POP POP POP SWAP1 POP POP POP POP POP POP POP POP POP JUMP JUMPDEST PUSH1 0x0 DUP1 SLOAD SWAP1 PUSH2 0x100 EXP SWAP1 DIV PUSH20 0xFFFFFFFFFFFFFFFFFFFFFFFFFFFFFFFFFFFFFFFF AND PUSH20 0xFFFFFFFFFFFFFFFFFFFFFFFFFFFFFFFFFFFFFFFF AND CALLER PUSH20 0xFFFFFFFFFFFFFFFFFFFFFFFFFFFFFFFFFFFFFFFF AND EQ DUP1 PUSH3 0x40D JUMPI POP PUSH3 0x40C CALLER PUSH3 0xCE5 PUSH1 0x20 SHL PUSH1 0x20 SHR JUMP JUMPDEST JUMPDEST PUSH3 0x44F JUMPI PUSH1 0x40 MLOAD PUSH32 0x8C379A000000000000000000000000000000000000000000000000000000000 DUP2 MSTORE PUSH1 0x4 ADD PUSH3 0x446 SWAP1 PUSH3 0x1488 JUMP JUMPDEST PUSH1 0x40 MLOAD DUP1 SWAP2 SUB SWAP1 REVERT JUMPDEST DUP2 PUSH1 0x0 PUSH20 0xFFFFFFFFFFFFFFFFFFFFFFFFFFFFFFFFFFFFFFFF AND PUSH1 0x1 PUSH1 0x0 DUP4 PUSH20 0xFFFFFFFFFFFFFFFFFFFFFFFFFFFFFFFFFFFFFFFF AND PUSH20 0xFFFFFFFFFFFFFFFFFFFFFFFFFFFFFFFFFFFFFFFF AND DUP2 MSTORE PUSH1 0x20 ADD SWAP1 DUP2 MSTORE PUSH1 0x20 ADD PUSH1 0x0 KECCAK256 PUSH1 0x0 ADD PUSH1 0x0 SWAP1 SLOAD SWAP1 PUSH2 0x100 EXP SWAP1 DIV PUSH20 0xFFFFFFFFFFFFFFFFFFFFFFFFFFFFFFFFFFFFFFFF AND PUSH20 0xFFFFFFFFFFFFFFFFFFFFFFFFFFFFFFFFFFFFFFFF AND EQ ISZERO PUSH3 0x525 JUMPI PUSH1 0x40 MLOAD PUSH32 0x8C379A000000000000000000000000000000000000000000000000000000000 DUP2 MSTORE PUSH1 0x4 ADD PUSH3 0x51C SWAP1 PUSH3 0x14AA JUMP JUMPDEST PUSH1 0x40 MLOAD DUP1 SWAP2 SUB SWAP1 REVERT JUMPDEST PUSH1 0x0 PUSH1 0x1 PUSH1 0x0 DUP6 PUSH20 0xFFFFFFFFFFFFFFFFFFFFFFFFFFFFFFFFFFFFFFFF AND PUSH20 0xFFFFFFFFFFFFFFFFFFFFFFFFFFFFFFFFFFFFFFFF AND DUP2 MSTORE PUSH1 0x20 ADD SWAP1 DUP2 MSTORE PUSH1 0x20 ADD PUSH1 0x0 KECCAK256 SWAP1 POP PUSH1 0x0 DUP2 PUSH1 0x5 ADD SWAP1 POP PUSH1 0x0 PUSH1 0x3 DUP2 GT ISZERO PUSH3 0x5AB JUMPI PUSH32 0x4E487B7100000000000000000000000000000000000000000000000000000000 PUSH1 0x0 MSTORE PUSH1 0x21 PUSH1 0x4 MSTORE PUSH1 0x24 PUSH1 0x0 REVERT JUMPDEST DUP5 PUSH1 0x3 DUP2 GT ISZERO PUSH3 0x5E5 JUMPI PUSH32 0x4E487B7100000000000000000000000000000000000000000000000000000000 PUSH1 0x0 MSTORE PUSH1 0x21 PUSH1 0x4 MSTORE PUSH1 0x24 PUSH1 0x0 REVERT JUMPDEST EQ ISZERO PUSH3 0x60F JUMPI PUSH1 0x1 DUP2 PUSH1 0x0 ADD PUSH1 0x0 PUSH2 0x100 EXP DUP2 SLOAD DUP2 PUSH1 0xFF MUL NOT AND SWAP1 DUP4 ISZERO ISZERO MUL OR SWAP1 SSTORE POP PUSH3 0x7E9 JUMP JUMPDEST PUSH1 0x1 PUSH1 0x3 DUP2 GT ISZERO PUSH3 0x64A JUMPI PUSH32 0x4E487B7100000000000000000000000000000000000000000000000000000000 PUSH1 0x0 MSTORE PUSH1 0x21 PUSH1 0x4 MSTORE PUSH1 0x24 PUSH1 0x0 REVERT JUMPDEST DUP5 PUSH1 0x3 DUP2 GT ISZERO PUSH3 0x684 JUMPI PUSH32 0x4E487B7100000000000000000000000000000000000000000000000000000000 PUSH1 0x0 MSTORE PUSH1 0x21 PUSH1 0x4 MSTORE PUSH1 0x24 PUSH1 0x0 REVERT JUMPDEST EQ ISZERO PUSH3 0x6AE JUMPI PUSH1 0x1 DUP2 PUSH1 0x0 ADD PUSH1 0x1 PUSH2 0x100 EXP DUP2 SLOAD DUP2 PUSH1 0xFF MUL NOT AND SWAP1 DUP4 ISZERO ISZERO MUL OR SWAP1 SSTORE POP PUSH3 0x7E8 JUMP JUMPDEST PUSH1 0x2 PUSH1 0x3 DUP2 GT ISZERO PUSH3 0x6E9 JUMPI PUSH32 0x4E487B7100000000000000000000000000000000000000000000000000000000 PUSH1 0x0 MSTORE PUSH1 0x21 PUSH1 0x4 MSTORE PUSH1 0x24 PUSH1 0x0 REVERT JUMPDEST DUP5 PUSH1 0x3 DUP2 GT ISZERO PUSH3 0x723 JUMPI PUSH32 0x4E487B7100000000000000000000000000000000000000000000000000000000 PUSH1 0x0 MSTORE PUSH1 0x21 PUSH1 0x4 MSTORE PUSH1 0x24 PUSH1 0x0 REVERT JUMPDEST EQ ISZERO PUSH3 0x74D JUMPI PUSH1 0x1 DUP2 PUSH1 0x0 ADD PUSH1 0x2 PUSH2 0x100 EXP DUP2 SLOAD DUP2 PUSH1 0xFF MUL NOT AND SWAP1 DUP4 ISZERO ISZERO MUL OR SWAP1 SSTORE POP PUSH3 0x7E7 JUMP JUMPDEST PUSH1 0x3 DUP1 DUP2 GT ISZERO PUSH3 0x787 JUMPI PUSH32 0x4E487B7100000000000000000000000000000000000000000000000000000000 PUSH1 0x0 MSTORE PUSH1 0x21 PUSH1 0x4 MSTORE PUSH1 0x24 PUSH1 0x0 REVERT JUMPDEST DUP5 PUSH1 0x3 DUP2 GT ISZERO PUSH3 0x7C1 JUMPI PUSH32 0x4E487B7100000000000000000000000000000000000000000000000000000000 PUSH1 0x0 MSTORE PUSH1 0x21 PUSH1 0x4 MSTORE PUSH1 0x24 PUSH1 0x0 REVERT JUMPDEST EQ ISZERO PUSH3 0x7E6 JUMPI PUSH1 0x1 DUP2 PUSH1 0x0 ADD PUSH1 0x3 PUSH2 0x100 EXP DUP2 SLOAD DUP2 PUSH1 0xFF MUL NOT AND SWAP1 DUP4 ISZERO ISZERO MUL OR SWAP1 SSTORE POP JUMPDEST JUMPDEST JUMPDEST JUMPDEST POP POP POP POP POP JUMP JUMPDEST PUSH1 0x0 DUP1 SLOAD SWAP1 PUSH2 0x100 EXP SWAP1 DIV PUSH20 0xFFFFFFFFFFFFFFFFFFFFFFFFFFFFFFFFFFFFFFFF AND PUSH20 0xFFFFFFFFFFFFFFFFFFFFFFFFFFFFFFFFFFFFFFFF AND CALLER PUSH20 0xFFFFFFFFFFFFFFFFFFFFFFFFFFFFFFFFFFFFFFFF AND EQ DUP1 PUSH3 0x858 JUMPI POP PUSH3 0x857 CALLER PUSH3 0xCE5 PUSH1 0x20 SHL PUSH1 0x20 SHR JUMP JUMPDEST JUMPDEST PUSH3 0x89A JUMPI PUSH1 0x40 MLOAD PUSH32 0x8C379A000000000000000000000000000000000000000000000000000000000 DUP2 MSTORE PUSH1 0x4 ADD PUSH3 0x891 SWAP1 PUSH3 0x1488 JUMP JUMPDEST PUSH1 0x40 MLOAD DUP1 SWAP2 SUB SWAP1 REVERT JUMPDEST DUP2 PUSH1 0x0 PUSH20 0xFFFFFFFFFFFFFFFFFFFFFFFFFFFFFFFFFFFFFFFF AND PUSH1 0x1 PUSH1 0x0 DUP4 PUSH20 0xFFFFFFFFFFFFFFFFFFFFFFFFFFFFFFFFFFFFFFFF AND PUSH20 0xFFFFFFFFFFFFFFFFFFFFFFFFFFFFFFFFFFFFFFFF AND DUP2 MSTORE PUSH1 0x20 ADD SWAP1 DUP2 MSTORE PUSH1 0x20 ADD PUSH1 0x0 KECCAK256 PUSH1 0x0 ADD PUSH1 0x0 SWAP1 SLOAD SWAP1 PUSH2 0x100 EXP SWAP1 DIV PUSH20 0xFFFFFFFFFFFFFFFFFFFFFFFFFFFFFFFFFFFFFFFF AND PUSH20 0xFFFFFFFFFFFFFFFFFFFFFFFFFFFFFFFFFFFFFFFF AND EQ ISZERO PUSH3 0x970 JUMPI PUSH1 0x40 MLOAD PUSH32 0x8C379A000000000000000000000000000000000000000000000000000000000 DUP2 MSTORE PUSH1 0x4 ADD PUSH3 0x967 SWAP1 PUSH3 0x14AA JUMP JUMPDEST PUSH1 0x40 MLOAD DUP1 SWAP2 SUB SWAP1 REVERT JUMPDEST PUSH1 0x0 PUSH1 0x1 PUSH1 0x0 DUP6 PUSH20 0xFFFFFFFFFFFFFFFFFFFFFFFFFFFFFFFFFFFFFFFF AND PUSH20 0xFFFFFFFFFFFFFFFFFFFFFFFFFFFFFFFFFFFFFFFF AND DUP2 MSTORE PUSH1 0x20 ADD SWAP1 DUP2 MSTORE PUSH1 0x20 ADD PUSH1 0x0 KECCAK256 SWAP1 POP PUSH1 0x0 DUP2 PUSH1 0x5 ADD SWAP1 POP PUSH1 0x0 PUSH1 0x3 DUP2 GT ISZERO PUSH3 0x9F6 JUMPI PUSH32 0x4E487B7100000000000000000000000000000000000000000000000000000000 PUSH1 0x0 MSTORE PUSH1 0x21 PUSH1 0x4 MSTORE PUSH1 0x24 PUSH1 0x0 REVERT JUMPDEST DUP5 PUSH1 0x3 DUP2 GT ISZERO PUSH3 0xA30 JUMPI PUSH32 0x4E487B7100000000000000000000000000000000000000000000000000000000 PUSH1 0x0 MSTORE PUSH1 0x21 PUSH1 0x4 MSTORE PUSH1 0x24 PUSH1 0x0 REVERT JUMPDEST EQ ISZERO PUSH3 0xA5A JUMPI PUSH1 0x0 DUP2 PUSH1 0x0 ADD PUSH1 0x0 PUSH2 0x100 EXP DUP2 SLOAD DUP2 PUSH1 0xFF MUL NOT AND SWAP1 DUP4 ISZERO ISZERO MUL OR SWAP1 SSTORE POP PUSH3 0xC34 JUMP JUMPDEST PUSH1 0x1 PUSH1 0x3 DUP2 GT ISZERO PUSH3 0xA95 JUMPI PUSH32 0x4E487B7100000000000000000000000000000000000000000000000000000000 PUSH1 0x0 MSTORE PUSH1 0x21 PUSH1 0x4 MSTORE PUSH1 0x24 PUSH1 0x0 REVERT JUMPDEST DUP5 PUSH1 0x3 DUP2 GT ISZERO PUSH3 0xACF JUMPI PUSH32 0x4E487B7100000000000000000000000000000000000000000000000000000000 PUSH1 0x0 MSTORE PUSH1 0x21 PUSH1 0x4 MSTORE PUSH1 0x24 PUSH1 0x0 REVERT JUMPDEST EQ ISZERO PUSH3 0xAF9 JUMPI PUSH1 0x0 DUP2 PUSH1 0x0 ADD PUSH1 0x1 PUSH2 0x100 EXP DUP2 SLOAD DUP2 PUSH1 0xFF MUL NOT AND SWAP1 DUP4 ISZERO ISZERO MUL OR SWAP1 SSTORE POP PUSH3 0xC33 JUMP JUMPDEST PUSH1 0x2 PUSH1 0x3 DUP2 GT ISZERO PUSH3 0xB34 JUMPI PUSH32 0x4E487B7100000000000000000000000000000000000000000000000000000000 PUSH1 0x0 MSTORE PUSH1 0x21 PUSH1 0x4 MSTORE PUSH1 0x24 PUSH1 0x0 REVERT JUMPDEST DUP5 PUSH1 0x3 DUP2 GT ISZERO PUSH3 0xB6E JUMPI PUSH32 0x4E487B7100000000000000000000000000000000000000000000000000000000 PUSH1 0x0 MSTORE PUSH1 0x21 PUSH1 0x4 MSTORE PUSH1 0x24 PUSH1 0x0 REVERT JUMPDEST EQ ISZERO PUSH3 0xB98 JUMPI PUSH1 0x0 DUP2 PUSH1 0x0 ADD PUSH1 0x2 PUSH2 0x100 EXP DUP2 SLOAD DUP2 PUSH1 0xFF MUL NOT AND SWAP1 DUP4 ISZERO ISZERO MUL OR SWAP1 SSTORE POP PUSH3 0xC32 JUMP JUMPDEST PUSH1 0x3 DUP1 DUP2 GT ISZERO PUSH3 0xBD2 JUMPI PUSH32 0x4E487B7100000000000000000000000000000000000000000000000000000000 PUSH1 0x0 MSTORE PUSH1 0x21 PUSH1 0x4 MSTORE PUSH1 0x24 PUSH1 0x0 REVERT JUMPDEST DUP5 PUSH1 0x3 DUP2 GT ISZERO PUSH3 0xC0C JUMPI PUSH32 0x4E487B7100000000000000000000000000000000000000000000000000000000 PUSH1 0x0 MSTORE PUSH1 0x21 PUSH1 0x4 MSTORE PUSH1 0x24 PUSH1 0x0 REVERT JUMPDEST EQ ISZERO PUSH3 0xC31 JUMPI PUSH1 0x0 DUP2 PUSH1 0x0 ADD PUSH1 0x3 PUSH2 0x100 EXP DUP2 SLOAD DUP2 PUSH1 0xFF MUL NOT AND SWAP1 DUP4 ISZERO ISZERO MUL OR SWAP1 SSTORE POP JUMPDEST JUMPDEST JUMPDEST JUMPDEST DUP1 PUSH1 0x0 ADD PUSH1 0x0 SWAP1 SLOAD SWAP1 PUSH2 0x100 EXP SWAP1 DIV PUSH1 0xFF AND ISZERO DUP1 ISZERO PUSH3 0xC63 JUMPI POP DUP1 PUSH1 0x0 ADD PUSH1 0x1 SWAP1 SLOAD SWAP1 PUSH2 0x100 EXP SWAP1 DIV PUSH1 0xFF AND ISZERO JUMPDEST DUP1 ISZERO PUSH3 0xC7F JUMPI POP DUP1 PUSH1 0x0 ADD PUSH1 0x2 SWAP1 SLOAD SWAP1 PUSH2 0x100 EXP SWAP1 DIV PUSH1 0xFF AND ISZERO JUMPDEST ISZERO PUSH3 0xCDE JUMPI PUSH1 0x0 PUSH1 0x2 PUSH1 0x0 DUP8 PUSH20 0xFFFFFFFFFFFFFFFFFFFFFFFFFFFFFFFFFFFFFFFF AND PUSH20 0xFFFFFFFFFFFFFFFFFFFFFFFFFFFFFFFFFFFFFFFF AND DUP2 MSTORE PUSH1 0x20 ADD SWAP1 DUP2 MSTORE PUSH1 0x20 ADD PUSH1 0x0 KECCAK256 PUSH1 0x0 PUSH2 0x100 EXP DUP2 SLOAD DUP2 PUSH1 0xFF MUL NOT AND SWAP1 DUP4 ISZERO ISZERO MUL OR SWAP1 SSTORE POP JUMPDEST POP POP POP POP POP JUMP JUMPDEST PUSH1 0x0 PUSH3 0xCFA DUP3 PUSH1 0x0 PUSH3 0xD01 PUSH1 0x20 SHL PUSH1 0x20 SHR JUMP JUMPDEST SWAP1 POP SWAP2 SWAP1 POP JUMP JUMPDEST PUSH1 0x0 DUP1 PUSH1 0x1 PUSH1 0x0 DUP6 PUSH20 0xFFFFFFFFFFFFFFFFFFFFFFFFFFFFFFFFFFFFFFFF AND PUSH20 0xFFFFFFFFFFFFFFFFFFFFFFFFFFFFFFFFFFFFFFFF AND DUP2 MSTORE PUSH1 0x20 ADD SWAP1 DUP2 MSTORE PUSH1 0x20 ADD PUSH1 0x0 KECCAK256 PUSH1 0x40 MLOAD DUP1 PUSH1 0xC0 ADD PUSH1 0x40 MSTORE SWAP1 DUP2 PUSH1 0x0 DUP3 ADD PUSH1 0x0 SWAP1 SLOAD SWAP1 PUSH2 0x100 EXP SWAP1 DIV PUSH20 0xFFFFFFFFFFFFFFFFFFFFFFFFFFFFFFFFFFFFFFFF AND PUSH20 0xFFFFFFFFFFFFFFFFFFFFFFFFFFFFFFFFFFFFFFFF AND PUSH20 0xFFFFFFFFFFFFFFFFFFFFFFFFFFFFFFFFFFFFFFFF AND DUP2 MSTORE PUSH1 0x20 ADD PUSH1 0x1 DUP3 ADD DUP1 SLOAD PUSH3 0xDB6 SWAP1 PUSH3 0x1594 JUMP JUMPDEST DUP1 PUSH1 0x1F ADD PUSH1 0x20 DUP1 SWAP2 DIV MUL PUSH1 0x20 ADD PUSH1 0x40 MLOAD SWAP1 DUP2 ADD PUSH1 0x40 MSTORE DUP1 SWAP3 SWAP2 SWAP1 DUP2 DUP2 MSTORE PUSH1 0x20 ADD DUP3 DUP1 SLOAD PUSH3 0xDE4 SWAP1 PUSH3 0x1594 JUMP JUMPDEST DUP1 ISZERO PUSH3 0xE35 JUMPI DUP1 PUSH1 0x1F LT PUSH3 0xE09 JUMPI PUSH2 0x100 DUP1 DUP4 SLOAD DIV MUL DUP4 MSTORE SWAP2 PUSH1 0x20 ADD SWAP2 PUSH3 0xE35 JUMP JUMPDEST DUP3 ADD SWAP2 SWAP1 PUSH1 0x0 MSTORE PUSH1 0x20 PUSH1 0x0 KECCAK256 SWAP1 JUMPDEST DUP2 SLOAD DUP2 MSTORE SWAP1 PUSH1 0x1 ADD SWAP1 PUSH1 0x20 ADD DUP1 DUP4 GT PUSH3 0xE17 JUMPI DUP3 SWAP1 SUB PUSH1 0x1F AND DUP3 ADD SWAP2 JUMPDEST POP POP POP POP POP DUP2 MSTORE PUSH1 0x20 ADD PUSH1 0x2 DUP3 ADD DUP1 SLOAD PUSH3 0xE50 SWAP1 PUSH3 0x1594 JUMP JUMPDEST DUP1 PUSH1 0x1F ADD PUSH1 0x20 DUP1 SWAP2 DIV MUL PUSH1 0x20 ADD PUSH1 0x40 MLOAD SWAP1 DUP2 ADD PUSH1 0x40 MSTORE DUP1 SWAP3 SWAP2 SWAP1 DUP2 DUP2 MSTORE PUSH1 0x20 ADD DUP3 DUP1 SLOAD PUSH3 0xE7E SWAP1 PUSH3 0x1594 JUMP JUMPDEST DUP1 ISZERO PUSH3 0xECF JUMPI DUP1 PUSH1 0x1F LT PUSH3 0xEA3 JUMPI PUSH2 0x100 DUP1 DUP4 SLOAD DIV MUL DUP4 MSTORE SWAP2 PUSH1 0x20 ADD SWAP2 PUSH3 0xECF JUMP JUMPDEST DUP3 ADD SWAP2 SWAP1 PUSH1 0x0 MSTORE PUSH1 0x20 PUSH1 0x0 KECCAK256 SWAP1 JUMPDEST DUP2 SLOAD DUP2 MSTORE SWAP1 PUSH1 0x1 ADD SWAP1 PUSH1 0x20 ADD DUP1 DUP4 GT PUSH3 0xEB1 JUMPI DUP3 SWAP1 SUB PUSH1 0x1F AND DUP3 ADD SWAP2 JUMPDEST POP POP POP POP POP DUP2 MSTORE PUSH1 0x20 ADD PUSH1 0x3 DUP3 ADD DUP1 SLOAD PUSH3 0xEEA SWAP1 PUSH3 0x1594 JUMP JUMPDEST DUP1 PUSH1 0x1F ADD PUSH1 0x20 DUP1 SWAP2 DIV MUL PUSH1 0x20 ADD PUSH1 0x40 MLOAD SWAP1 DUP2 ADD PUSH1 0x40 MSTORE DUP1 SWAP3 SWAP2 SWAP1 DUP2 DUP2 MSTORE PUSH1 0x20 ADD DUP3 DUP1 SLOAD PUSH3 0xF18 SWAP1 PUSH3 0x1594 JUMP JUMPDEST DUP1 ISZERO PUSH3 0xF69 JUMPI DUP1 PUSH1 0x1F LT PUSH3 0xF3D JUMPI PUSH2 0x100 DUP1 DUP4 SLOAD DIV MUL DUP4 MSTORE SWAP2 PUSH1 0x20 ADD SWAP2 PUSH3 0xF69 JUMP JUMPDEST DUP3 ADD SWAP2 SWAP1 PUSH1 0x0 MSTORE PUSH1 0x20 PUSH1 0x0 KECCAK256 SWAP1 JUMPDEST DUP2 SLOAD DUP2 MSTORE SWAP1 PUSH1 0x1 ADD SWAP1 PUSH1 0x20 ADD DUP1 DUP4 GT PUSH3 0xF4B JUMPI DUP3 SWAP1 SUB PUSH1 0x1F AND DUP3 ADD SWAP2 JUMPDEST POP POP POP POP POP DUP2 MSTORE PUSH1 0x20 ADD PUSH1 0x4 DUP3 ADD PUSH1 0x0 SWAP1 SLOAD SWAP1 PUSH2 0x100 EXP SWAP1 DIV PUSH1 0xFF AND ISZERO ISZERO ISZERO ISZERO DUP2 MSTORE PUSH1 0x20 ADD PUSH1 0x5 DUP3 ADD PUSH1 0x40 MLOAD DUP1 PUSH1 0x80 ADD PUSH1 0x40 MSTORE SWAP1 DUP2 PUSH1 0x0 DUP3 ADD PUSH1 0x0 SWAP1 SLOAD SWAP1 PUSH2 0x100 EXP SWAP1 DIV PUSH1 0xFF AND ISZERO ISZERO ISZERO ISZERO DUP2 MSTORE PUSH1 0x20 ADD PUSH1 0x0 DUP3 ADD PUSH1 0x1 SWAP1 SLOAD SWAP1 PUSH2 0x100 EXP SWAP1 DIV PUSH1 0xFF AND ISZERO ISZERO ISZERO ISZERO DUP2 MSTORE PUSH1 0x20 ADD PUSH1 0x0 DUP3 ADD PUSH1 0x2 SWAP1 SLOAD SWAP1 PUSH2 0x100 EXP SWAP1 DIV PUSH1 0xFF AND ISZERO ISZERO ISZERO ISZERO DUP2 MSTORE PUSH1 0x20 ADD PUSH1 0x0 DUP3 ADD PUSH1 0x3 SWAP1 SLOAD SWAP1 PUSH2 0x100 EXP SWAP1 DIV PUSH1 0xFF AND ISZERO ISZERO ISZERO ISZERO DUP2 MSTORE POP POP DUP2 MSTORE POP POP SWAP1 POP PUSH1 0x0 DUP2 PUSH1 0xA0 ADD MLOAD SWAP1 POP PUSH1 0x0 PUSH1 0x3 DUP2 GT ISZERO PUSH3 0x1053 JUMPI PUSH32 0x4E487B7100000000000000000000000000000000000000000000000000000000 PUSH1 0x0 MSTORE PUSH1 0x21 PUSH1 0x4 MSTORE PUSH1 0x24 PUSH1 0x0 REVERT JUMPDEST DUP5 PUSH1 0x3 DUP2 GT ISZERO PUSH3 0x108D JUMPI PUSH32 0x4E487B7100000000000000000000000000000000000000000000000000000000 PUSH1 0x0 MSTORE PUSH1 0x21 PUSH1 0x4 MSTORE PUSH1 0x24 PUSH1 0x0 REVERT JUMPDEST EQ ISZERO PUSH3 0x10A3 JUMPI DUP1 PUSH1 0x0 ADD MLOAD SWAP3 POP POP POP PUSH3 0x124A JUMP JUMPDEST PUSH1 0x1 PUSH1 0x3 DUP2 GT ISZERO PUSH3 0x10DE JUMPI PUSH32 0x4E487B7100000000000000000000000000000000000000000000000000000000 PUSH1 0x0 MSTORE PUSH1 0x21 PUSH1 0x4 MSTORE PUSH1 0x24 PUSH1 0x0 REVERT JUMPDEST DUP5 PUSH1 0x3 DUP2 GT ISZERO PUSH3 0x1118 JUMPI PUSH32 0x4E487B7100000000000000000000000000000000000000000000000000000000 PUSH1 0x0 MSTORE PUSH1 0x21 PUSH1 0x4 MSTORE PUSH1 0x24 PUSH1 0x0 REVERT JUMPDEST EQ ISZERO PUSH3 0x112E JUMPI DUP1 PUSH1 0x20 ADD MLOAD SWAP3 POP POP POP PUSH3 0x124A JUMP JUMPDEST PUSH1 0x2 PUSH1 0x3 DUP2 GT ISZERO PUSH3 0x1169 JUMPI PUSH32 0x4E487B7100000000000000000000000000000000000000000000000000000000 PUSH1 0x0 MSTORE PUSH1 0x21 PUSH1 0x4 MSTORE PUSH1 0x24 PUSH1 0x0 REVERT JUMPDEST DUP5 PUSH1 0x3 DUP2 GT ISZERO PUSH3 0x11A3 JUMPI PUSH32 0x4E487B7100000000000000000000000000000000000000000000000000000000 PUSH1 0x0 MSTORE PUSH1 0x21 PUSH1 0x4 MSTORE PUSH1 0x24 PUSH1 0x0 REVERT JUMPDEST EQ ISZERO PUSH3 0x11B9 JUMPI DUP1 PUSH1 0x40 ADD MLOAD SWAP3 POP POP POP PUSH3 0x124A JUMP JUMPDEST PUSH1 0x3 DUP1 DUP2 GT ISZERO PUSH3 0x11F3 JUMPI PUSH32 0x4E487B7100000000000000000000000000000000000000000000000000000000 PUSH1 0x0 MSTORE PUSH1 0x21 PUSH1 0x4 MSTORE PUSH1 0x24 PUSH1 0x0 REVERT JUMPDEST DUP5 PUSH1 0x3 DUP2 GT ISZERO PUSH3 0x122D JUMPI PUSH32 0x4E487B7100000000000000000000000000000000000000000000000000000000 PUSH1 0x0 MSTORE PUSH1 0x21 PUSH1 0x4 MSTORE PUSH1 0x24 PUSH1 0x0 REVERT JUMPDEST EQ ISZERO PUSH3 0x1243 JUMPI DUP1 PUSH1 0x60 ADD MLOAD SWAP3 POP POP POP PUSH3 0x124A JUMP JUMPDEST PUSH1 0x0 SWAP3 POP POP POP JUMPDEST SWAP3 SWAP2 POP POP JUMP JUMPDEST DUP3 DUP1 SLOAD PUSH3 0x125E SWAP1 PUSH3 0x1594 JUMP JUMPDEST SWAP1 PUSH1 0x0 MSTORE PUSH1 0x20 PUSH1 0x0 KECCAK256 SWAP1 PUSH1 0x1F ADD PUSH1 0x20 SWAP1 DIV DUP2 ADD SWAP3 DUP3 PUSH3 0x1282 JUMPI PUSH1 0x0 DUP6 SSTORE PUSH3 0x12CE JUMP JUMPDEST DUP3 PUSH1 0x1F LT PUSH3 0x129D JUMPI DUP1 MLOAD PUSH1 0xFF NOT AND DUP4 DUP1 ADD OR DUP6 SSTORE PUSH3 0x12CE JUMP JUMPDEST DUP3 DUP1 ADD PUSH1 0x1 ADD DUP6 SSTORE DUP3 ISZERO PUSH3 0x12CE JUMPI SWAP2 DUP3 ADD JUMPDEST DUP3 DUP2 GT ISZERO PUSH3 0x12CD JUMPI DUP3 MLOAD DUP3 SSTORE SWAP2 PUSH1 0x20 ADD SWAP2 SWAP1 PUSH1 0x1 ADD SWAP1 PUSH3 0x12B0 JUMP JUMPDEST JUMPDEST POP SWAP1 POP PUSH3 0x12DD SWAP2 SWAP1 PUSH3 0x12E1 JUMP JUMPDEST POP SWAP1 JUMP JUMPDEST JUMPDEST DUP1 DUP3 GT ISZERO PUSH3 0x12FC JUMPI PUSH1 0x0 DUP2 PUSH1 0x0 SWAP1 SSTORE POP PUSH1 0x1 ADD PUSH3 0x12E2 JUMP JUMPDEST POP SWAP1 JUMP JUMPDEST PUSH1 0x0 PUSH3 0x1317 PUSH3 0x1311 DUP5 PUSH3 0x1517 JUMP JUMPDEST PUSH3 0x14EE JUMP JUMPDEST SWAP1 POP DUP3 DUP2 MSTORE PUSH1 0x20 DUP2 ADD DUP5 DUP5 DUP5 ADD GT ISZERO PUSH3 0x1330 JUMPI PUSH1 0x0 DUP1 REVERT JUMPDEST PUSH3 0x133D DUP5 DUP3 DUP6 PUSH3 0x155E JUMP JUMPDEST POP SWAP4 SWAP3 POP POP POP JUMP JUMPDEST PUSH1 0x0 DUP3 PUSH1 0x1F DUP4 ADD SLT PUSH3 0x1357 JUMPI PUSH1 0x0 DUP1 REVERT JUMPDEST DUP2 MLOAD PUSH3 0x1369 DUP5 DUP3 PUSH1 0x20 DUP7 ADD PUSH3 0x1300 JUMP JUMPDEST SWAP2 POP POP SWAP3 SWAP2 POP POP JUMP JUMPDEST PUSH1 0x0 DUP1 PUSH1 0x0 PUSH1 0x60 DUP5 DUP7 SUB SLT ISZERO PUSH3 0x1388 JUMPI PUSH1 0x0 DUP1 REVERT JUMPDEST PUSH1 0x0 DUP5 ADD MLOAD PUSH8 0xFFFFFFFFFFFFFFFF DUP2 GT ISZERO PUSH3 0x13A3 JUMPI PUSH1 0x0 DUP1 REVERT JUMPDEST PUSH3 0x13B1 DUP7 DUP3 DUP8 ADD PUSH3 0x1345 JUMP JUMPDEST SWAP4 POP POP PUSH1 0x20 DUP5 ADD MLOAD PUSH8 0xFFFFFFFFFFFFFFFF DUP2 GT ISZERO PUSH3 0x13CF JUMPI PUSH1 0x0 DUP1 REVERT JUMPDEST PUSH3 0x13DD DUP7 DUP3 DUP8 ADD PUSH3 0x1345 JUMP JUMPDEST SWAP3 POP POP PUSH1 0x40 DUP5 ADD MLOAD PUSH8 0xFFFFFFFFFFFFFFFF DUP2 GT ISZERO PUSH3 0x13FB JUMPI PUSH1 0x0 DUP1 REVERT JUMPDEST PUSH3 0x1409 DUP7 DUP3 DUP8 ADD PUSH3 0x1345 JUMP JUMPDEST SWAP2 POP POP SWAP3 POP SWAP3 POP SWAP3 JUMP JUMPDEST PUSH1 0x0 PUSH3 0x1422 PUSH1 0x22 DUP4 PUSH3 0x154D JUMP JUMPDEST SWAP2 POP PUSH3 0x142F DUP3 PUSH3 0x166F JUMP JUMPDEST PUSH1 0x40 DUP3 ADD SWAP1 POP SWAP2 SWAP1 POP JUMP JUMPDEST PUSH1 0x0 PUSH3 0x1449 PUSH1 0x15 DUP4 PUSH3 0x154D JUMP JUMPDEST SWAP2 POP PUSH3 0x1456 DUP3 PUSH3 0x16BE JUMP JUMPDEST PUSH1 0x20 DUP3 ADD SWAP1 POP SWAP2 SWAP1 POP JUMP JUMPDEST PUSH1 0x0 PUSH3 0x1470 PUSH1 0x16 DUP4 PUSH3 0x154D JUMP JUMPDEST SWAP2 POP PUSH3 0x147D DUP3 PUSH3 0x16E7 JUMP JUMPDEST PUSH1 0x20 DUP3 ADD SWAP1 POP SWAP2 SWAP1 POP JUMP JUMPDEST PUSH1 0x0 PUSH1 0x20 DUP3 ADD SWAP1 POP DUP2 DUP2 SUB PUSH1 0x0 DUP4 ADD MSTORE PUSH3 0x14A3 DUP2 PUSH3 0x1413 JUMP JUMPDEST SWAP1 POP SWAP2 SWAP1 POP JUMP JUMPDEST PUSH1 0x0 PUSH1 0x20 DUP3 ADD SWAP1 POP DUP2 DUP2 SUB PUSH1 0x0 DUP4 ADD MSTORE PUSH3 0x14C5 DUP2 PUSH3 0x143A JUMP JUMPDEST SWAP1 POP SWAP2 SWAP1 POP JUMP JUMPDEST PUSH1 0x0 PUSH1 0x20 DUP3 ADD SWAP1 POP DUP2 DUP2 SUB PUSH1 0x0 DUP4 ADD MSTORE PUSH3 0x14E7 DUP2 PUSH3 0x1461 JUMP JUMPDEST SWAP1 POP SWAP2 SWAP1 POP JUMP JUMPDEST PUSH1 0x0 PUSH3 0x14FA PUSH3 0x150D JUMP JUMPDEST SWAP1 POP PUSH3 0x1508 DUP3 DUP3 PUSH3 0x15CA JUMP JUMPDEST SWAP2 SWAP1 POP JUMP JUMPDEST PUSH1 0x0 PUSH1 0x40 MLOAD SWAP1 POP SWAP1 JUMP JUMPDEST PUSH1 0x0 PUSH8 0xFFFFFFFFFFFFFFFF DUP3 GT ISZERO PUSH3 0x1535 JUMPI PUSH3 0x1534 PUSH3 0x162F JUMP JUMPDEST JUMPDEST PUSH3 0x1540 DUP3 PUSH3 0x165E JUMP JUMPDEST SWAP1 POP PUSH1 0x20 DUP2 ADD SWAP1 POP SWAP2 SWAP1 POP JUMP JUMPDEST PUSH1 0x0 DUP3 DUP3 MSTORE PUSH1 0x20 DUP3 ADD SWAP1 POP SWAP3 SWAP2 POP POP JUMP JUMPDEST PUSH1 0x0 JUMPDEST DUP4 DUP2 LT ISZERO PUSH3 0x157E JUMPI DUP1 DUP3 ADD MLOAD DUP2 DUP5 ADD MSTORE PUSH1 0x20 DUP2 ADD SWAP1 POP PUSH3 0x1561 JUMP JUMPDEST DUP4 DUP2 GT ISZERO PUSH3 0x158E JUMPI PUSH1 0x0 DUP5 DUP5 ADD MSTORE JUMPDEST POP POP POP POP JUMP JUMPDEST PUSH1 0x0 PUSH1 0x2 DUP3 DIV SWAP1 POP PUSH1 0x1 DUP3 AND DUP1 PUSH3 0x15AD JUMPI PUSH1 0x7F DUP3 AND SWAP2 POP JUMPDEST PUSH1 0x20 DUP3 LT DUP2 EQ ISZERO PUSH3 0x15C4 JUMPI PUSH3 0x15C3 PUSH3 0x1600 JUMP JUMPDEST JUMPDEST POP SWAP2 SWAP1 POP JUMP JUMPDEST PUSH3 0x15D5 DUP3 PUSH3 0x165E JUMP JUMPDEST DUP2 ADD DUP2 DUP2 LT PUSH8 0xFFFFFFFFFFFFFFFF DUP3 GT OR ISZERO PUSH3 0x15F7 JUMPI PUSH3 0x15F6 PUSH3 0x162F JUMP JUMPDEST JUMPDEST DUP1 PUSH1 0x40 MSTORE POP POP POP JUMP JUMPDEST PUSH32 0x4E487B7100000000000000000000000000000000000000000000000000000000 PUSH1 0x0 MSTORE PUSH1 0x22 PUSH1 0x4 MSTORE PUSH1 0x24 PUSH1 0x0 REVERT JUMPDEST PUSH32 0x4E487B7100000000000000000000000000000000000000000000000000000000 PUSH1 0x0 MSTORE PUSH1 0x41 PUSH1 0x4 MSTORE PUSH1 0x24 PUSH1 0x0 REVERT JUMPDEST PUSH1 0x0 PUSH1 0x1F NOT PUSH1 0x1F DUP4 ADD AND SWAP1 POP SWAP2 SWAP1 POP JUMP JUMPDEST PUSH32 0x4F6E6C79206F776E65722063616E2063616C6C20746869732066756E6374696F PUSH1 0x0 DUP3 ADD MSTORE PUSH32 0x6E2E000000000000000000000000000000000000000000000000000000000000 PUSH1 0x20 DUP3 ADD MSTORE POP JUMP JUMPDEST PUSH32 0x4163636F756E7420646F65736E27742065786973740000000000000000000000 PUSH1 0x0 DUP3 ADD MSTORE POP JUMP JUMPDEST PUSH32 0x4163636F756E7420616C72656164792065786973747300000000000000000000 PUSH1 0x0 DUP3 ADD MSTORE POP JUMP JUMPDEST PUSH2 0x2AC4 DUP1 PUSH3 0x1720 PUSH1 0x0 CODECOPY PUSH1 0x0 RETURN INVALID PUSH1 0x80 PUSH1 0x40 MSTORE CALLVALUE DUP1 ISZERO PUSH2 0x10 JUMPI PUSH1 0x0 DUP1 REVERT JUMPDEST POP PUSH1 0x4 CALLDATASIZE LT PUSH2 0xEA JUMPI PUSH1 0x0 CALLDATALOAD PUSH1 0xE0 SHR DUP1 PUSH4 0xA1AEA04A GT PUSH2 0x8C JUMPI DUP1 PUSH4 0xD3A5059A GT PUSH2 0x66 JUMPI DUP1 PUSH4 0xD3A5059A EQ PUSH2 0x26D JUMPI DUP1 PUSH4 0xDEE94B4A EQ PUSH2 0x289 JUMPI DUP1 PUSH4 0xE8621E59 EQ PUSH2 0x2A5 JUMPI DUP1 PUSH4 0xFA4D7AAE EQ PUSH2 0x2D5 JUMPI PUSH2 0xEA JUMP JUMPDEST DUP1 PUSH4 0xA1AEA04A EQ PUSH2 0x205 JUMPI DUP1 PUSH4 0xB74866FB EQ PUSH2 0x221 JUMPI DUP1 PUSH4 0xC2B7D948 EQ PUSH2 0x23D JUMPI PUSH2 0xEA JUMP JUMPDEST DUP1 PUSH4 0x49587281 GT PUSH2 0xC8 JUMPI DUP1 PUSH4 0x49587281 EQ PUSH2 0x17F JUMPI DUP1 PUSH4 0x630A195B EQ PUSH2 0x19B JUMPI DUP1 PUSH4 0x65C93769 EQ PUSH2 0x1B7 JUMPI DUP1 PUSH4 0x8DA5CB5B EQ PUSH2 0x1E7 JUMPI PUSH2 0xEA JUMP JUMPDEST DUP1 PUSH4 0x1EB0857 EQ PUSH2 0xEF JUMPI DUP1 PUSH4 0x56909B7 EQ PUSH2 0x11F JUMPI DUP1 PUSH4 0x297027D5 EQ PUSH2 0x14F JUMPI JUMPDEST PUSH1 0x0 DUP1 REVERT JUMPDEST PUSH2 0x109 PUSH1 0x4 DUP1 CALLDATASIZE SUB DUP2 ADD SWAP1 PUSH2 0x104 SWAP2 SWAP1 PUSH2 0x2613 JUMP JUMPDEST PUSH2 0x305 JUMP JUMPDEST PUSH1 0x40 MLOAD PUSH2 0x116 SWAP2 SWAP1 PUSH2 0x27C5 JUMP JUMPDEST PUSH1 0x40 MLOAD DUP1 SWAP2 SUB SWAP1 RETURN JUMPDEST PUSH2 0x139 PUSH1 0x4 DUP1 CALLDATASIZE SUB DUP2 ADD SWAP1 PUSH2 0x134 SWAP2 SWAP1 PUSH2 0x2613 JUMP JUMPDEST PUSH2 0x684 JUMP JUMPDEST PUSH1 0x40 MLOAD PUSH2 0x146 SWAP2 SWAP1 PUSH2 0x27C5 JUMP JUMPDEST PUSH1 0x40 MLOAD DUP1 SWAP2 SUB SWAP1 RETURN JUMPDEST PUSH2 0x169 PUSH1 0x4 DUP1 CALLDATASIZE SUB DUP2 ADD SWAP1 PUSH2 0x164 SWAP2 SWAP1 PUSH2 0x2613 JUMP JUMPDEST PUSH2 0x698 JUMP JUMPDEST PUSH1 0x40 MLOAD PUSH2 0x176 SWAP2 SWAP1 PUSH2 0x27C5 JUMP JUMPDEST PUSH1 0x40 MLOAD DUP1 SWAP2 SUB SWAP1 RETURN JUMPDEST PUSH2 0x199 PUSH1 0x4 DUP1 CALLDATASIZE SUB DUP2 ADD SWAP1 PUSH2 0x194 SWAP2 SWAP1 PUSH2 0x2613 JUMP JUMPDEST PUSH2 0x6AC JUMP JUMPDEST STOP JUMPDEST PUSH2 0x1B5 PUSH1 0x4 DUP1 CALLDATASIZE SUB DUP2 ADD SWAP1 PUSH2 0x1B0 SWAP2 SWAP1 PUSH2 0x263C JUMP JUMPDEST PUSH2 0x83C JUMP JUMPDEST STOP JUMPDEST PUSH2 0x1D1 PUSH1 0x4 DUP1 CALLDATASIZE SUB DUP2 ADD SWAP1 PUSH2 0x1CC SWAP2 SWAP1 PUSH2 0x2613 JUMP JUMPDEST PUSH2 0xC69 JUMP JUMPDEST PUSH1 0x40 MLOAD PUSH2 0x1DE SWAP2 SWAP1 PUSH2 0x27C5 JUMP JUMPDEST PUSH1 0x40 MLOAD DUP1 SWAP2 SUB SWAP1 RETURN JUMPDEST PUSH2 0x1EF PUSH2 0xFE8 JUMP JUMPDEST PUSH1 0x40 MLOAD PUSH2 0x1FC SWAP2 SWAP1 PUSH2 0x27AA JUMP JUMPDEST PUSH1 0x40 MLOAD DUP1 SWAP2 SUB SWAP1 RETURN JUMPDEST PUSH2 0x21F PUSH1 0x4 DUP1 CALLDATASIZE SUB DUP2 ADD SWAP1 PUSH2 0x21A SWAP2 SWAP1 PUSH2 0x2613 JUMP JUMPDEST PUSH2 0x100C JUMP JUMPDEST STOP JUMPDEST PUSH2 0x23B PUSH1 0x4 DUP1 CALLDATASIZE SUB DUP2 ADD SWAP1 PUSH2 0x236 SWAP2 SWAP1 PUSH2 0x263C JUMP JUMPDEST PUSH2 0x123F JUMP JUMPDEST STOP JUMPDEST PUSH2 0x257 PUSH1 0x4 DUP1 CALLDATASIZE SUB DUP2 ADD SWAP1 PUSH2 0x252 SWAP2 SWAP1 PUSH2 0x2613 JUMP JUMPDEST PUSH2 0x1713 JUMP JUMPDEST PUSH1 0x40 MLOAD PUSH2 0x264 SWAP2 SWAP1 PUSH2 0x27C5 JUMP JUMPDEST PUSH1 0x40 MLOAD DUP1 SWAP2 SUB SWAP1 RETURN JUMPDEST PUSH2 0x287 PUSH1 0x4 DUP1 CALLDATASIZE SUB DUP2 ADD SWAP1 PUSH2 0x282 SWAP2 SWAP1 PUSH2 0x2613 JUMP JUMPDEST PUSH2 0x1A92 JUMP JUMPDEST STOP JUMPDEST PUSH2 0x2A3 PUSH1 0x4 DUP1 CALLDATASIZE SUB DUP2 ADD SWAP1 PUSH2 0x29E SWAP2 SWAP1 PUSH2 0x2678 JUMP JUMPDEST PUSH2 0x1C6D JUMP JUMPDEST STOP JUMPDEST PUSH2 0x2BF PUSH1 0x4 DUP1 CALLDATASIZE SUB DUP2 ADD SWAP1 PUSH2 0x2BA SWAP2 SWAP1 PUSH2 0x2613 JUMP JUMPDEST PUSH2 0x1F4F JUMP JUMPDEST PUSH1 0x40 MLOAD PUSH2 0x2CC SWAP2 SWAP1 PUSH2 0x27C5 JUMP JUMPDEST PUSH1 0x40 MLOAD DUP1 SWAP2 SUB SWAP1 RETURN JUMPDEST PUSH2 0x2EF PUSH1 0x4 DUP1 CALLDATASIZE SUB DUP2 ADD SWAP1 PUSH2 0x2EA SWAP2 SWAP1 PUSH2 0x2613 JUMP JUMPDEST PUSH2 0x1F63 JUMP JUMPDEST PUSH1 0x40 MLOAD PUSH2 0x2FC SWAP2 SWAP1 PUSH2 0x27C5 JUMP JUMPDEST PUSH1 0x40 MLOAD DUP1 SWAP2 SUB SWAP1 RETURN JUMPDEST PUSH1 0x0 DUP1 PUSH1 0x1 PUSH1 0x0 DUP5 PUSH20 0xFFFFFFFFFFFFFFFFFFFFFFFFFFFFFFFFFFFFFFFF AND PUSH20 0xFFFFFFFFFFFFFFFFFFFFFFFFFFFFFFFFFFFFFFFF AND DUP2 MSTORE PUSH1 0x20 ADD SWAP1 DUP2 MSTORE PUSH1 0x20 ADD PUSH1 0x0 KECCAK256 PUSH1 0x40 MLOAD DUP1 PUSH1 0xC0 ADD PUSH1 0x40 MSTORE SWAP1 DUP2 PUSH1 0x0 DUP3 ADD PUSH1 0x0 SWAP1 SLOAD SWAP1 PUSH2 0x100 EXP SWAP1 DIV PUSH20 0xFFFFFFFFFFFFFFFFFFFFFFFFFFFFFFFFFFFFFFFF AND PUSH20 0xFFFFFFFFFFFFFFFFFFFFFFFFFFFFFFFFFFFFFFFF AND PUSH20 0xFFFFFFFFFFFFFFFFFFFFFFFFFFFFFFFFFFFFFFFF AND DUP2 MSTORE PUSH1 0x20 ADD PUSH1 0x1 DUP3 ADD DUP1 SLOAD PUSH2 0x3B8 SWAP1 PUSH2 0x28F4 JUMP JUMPDEST DUP1 PUSH1 0x1F ADD PUSH1 0x20 DUP1 SWAP2 DIV MUL PUSH1 0x20 ADD PUSH1 0x40 MLOAD SWAP1 DUP2 ADD PUSH1 0x40 MSTORE DUP1 SWAP3 SWAP2 SWAP1 DUP2 DUP2 MSTORE PUSH1 0x20 ADD DUP3 DUP1 SLOAD PUSH2 0x3E4 SWAP1 PUSH2 0x28F4 JUMP JUMPDEST DUP1 ISZERO PUSH2 0x431 JUMPI DUP1 PUSH1 0x1F LT PUSH2 0x406 JUMPI PUSH2 0x100 DUP1 DUP4 SLOAD DIV MUL DUP4 MSTORE SWAP2 PUSH1 0x20 ADD SWAP2 PUSH2 0x431 JUMP JUMPDEST DUP3 ADD SWAP2 SWAP1 PUSH1 0x0 MSTORE PUSH1 0x20 PUSH1 0x0 KECCAK256 SWAP1 JUMPDEST DUP2 SLOAD DUP2 MSTORE SWAP1 PUSH1 0x1 ADD SWAP1 PUSH1 0x20 ADD DUP1 DUP4 GT PUSH2 0x414 JUMPI DUP3 SWAP1 SUB PUSH1 0x1F AND DUP3 ADD SWAP2 JUMPDEST POP POP POP POP POP DUP2 MSTORE PUSH1 0x20 ADD PUSH1 0x2 DUP3 ADD DUP1 SLOAD PUSH2 0x44A SWAP1 PUSH2 0x28F4 JUMP JUMPDEST DUP1 PUSH1 0x1F ADD PUSH1 0x20 DUP1 SWAP2 DIV MUL PUSH1 0x20 ADD PUSH1 0x40 MLOAD SWAP1 DUP2 ADD PUSH1 0x40 MSTORE DUP1 SWAP3 SWAP2 SWAP1 DUP2 DUP2 MSTORE PUSH1 0x20 ADD DUP3 DUP1 SLOAD PUSH2 0x476 SWAP1 PUSH2 0x28F4 JUMP JUMPDEST DUP1 ISZERO PUSH2 0x4C3 JUMPI DUP1 PUSH1 0x1F LT PUSH2 0x498 JUMPI PUSH2 0x100 DUP1 DUP4 SLOAD DIV MUL DUP4 MSTORE SWAP2 PUSH1 0x20 ADD SWAP2 PUSH2 0x4C3 JUMP JUMPDEST DUP3 ADD SWAP2 SWAP1 PUSH1 0x0 MSTORE PUSH1 0x20 PUSH1 0x0 KECCAK256 SWAP1 JUMPDEST DUP2 SLOAD DUP2 MSTORE SWAP1 PUSH1 0x1 ADD SWAP1 PUSH1 0x20 ADD DUP1 DUP4 GT PUSH2 0x4A6 JUMPI DUP3 SWAP1 SUB PUSH1 0x1F AND DUP3 ADD SWAP2 JUMPDEST POP POP POP POP POP DUP2 MSTORE PUSH1 0x20 ADD PUSH1 0x3 DUP3 ADD DUP1 SLOAD PUSH2 0x4DC SWAP1 PUSH2 0x28F4 JUMP JUMPDEST DUP1 PUSH1 0x1F ADD PUSH1 0x20 DUP1 SWAP2 DIV MUL PUSH1 0x20 ADD PUSH1 0x40 MLOAD SWAP1 DUP2 ADD PUSH1 0x40 MSTORE DUP1 SWAP3 SWAP2 SWAP1 DUP2 DUP2 MSTORE PUSH1 0x20 ADD DUP3 DUP1 SLOAD PUSH2 0x508 SWAP1 PUSH2 0x28F4 JUMP JUMPDEST DUP1 ISZERO PUSH2 0x555 JUMPI DUP1 PUSH1 0x1F LT PUSH2 0x52A JUMPI PUSH2 0x100 DUP1 DUP4 SLOAD DIV MUL DUP4 MSTORE SWAP2 PUSH1 0x20 ADD SWAP2 PUSH2 0x555 JUMP JUMPDEST DUP3 ADD SWAP2 SWAP1 PUSH1 0x0 MSTORE PUSH1 0x20 PUSH1 0x0 KECCAK256 SWAP1 JUMPDEST DUP2 SLOAD DUP2 MSTORE SWAP1 PUSH1 0x1 ADD SWAP1 PUSH1 0x20 ADD DUP1 DUP4 GT PUSH2 0x538 JUMPI DUP3 SWAP1 SUB PUSH1 0x1F AND DUP3 ADD SWAP2 JUMPDEST POP POP POP POP POP DUP2 MSTORE PUSH1 0x20 ADD PUSH1 0x4 DUP3 ADD PUSH1 0x0 SWAP1 SLOAD SWAP1 PUSH2 0x100 EXP SWAP1 DIV PUSH1 0xFF AND ISZERO ISZERO ISZERO ISZERO DUP2 MSTORE PUSH1 0x20 ADD PUSH1 0x5 DUP3 ADD PUSH1 0x40 MLOAD DUP1 PUSH1 0x80 ADD PUSH1 0x40 MSTORE SWAP1 DUP2 PUSH1 0x0 DUP3 ADD PUSH1 0x0 SWAP1 SLOAD SWAP1 PUSH2 0x100 EXP SWAP1 DIV PUSH1 0xFF AND ISZERO ISZERO ISZERO ISZERO DUP2 MSTORE PUSH1 0x20 ADD PUSH1 0x0 DUP3 ADD PUSH1 0x1 SWAP1 SLOAD SWAP1 PUSH2 0x100 EXP SWAP1 DIV PUSH1 0xFF AND ISZERO ISZERO ISZERO ISZERO DUP2 MSTORE PUSH1 0x20 ADD PUSH1 0x0 DUP3 ADD PUSH1 0x2 SWAP1 SLOAD SWAP1 PUSH2 0x100 EXP SWAP1 DIV PUSH1 0xFF AND ISZERO ISZERO ISZERO ISZERO DUP2 MSTORE PUSH1 0x20 ADD PUSH1 0x0 DUP3 ADD PUSH1 0x3 SWAP1 SLOAD SWAP1 PUSH2 0x100 EXP SWAP1 DIV PUSH1 0xFF AND ISZERO ISZERO ISZERO ISZERO DUP2 MSTORE POP POP DUP2 MSTORE POP POP SWAP1 POP PUSH1 0x0 PUSH20 0xFFFFFFFFFFFFFFFFFFFFFFFFFFFFFFFFFFFFFFFF AND DUP2 PUSH1 0x0 ADD MLOAD PUSH20 0xFFFFFFFFFFFFFFFFFFFFFFFFFFFFFFFFFFFFFFFF AND EQ PUSH2 0x679 JUMPI DUP1 PUSH1 0x80 ADD MLOAD DUP1 ISZERO PUSH2 0x669 JUMPI POP DUP1 PUSH1 0xA0 ADD MLOAD PUSH1 0x0 ADD MLOAD DUP1 PUSH2 0x658 JUMPI POP DUP1 PUSH1 0xA0 ADD MLOAD PUSH1 0x20 ADD MLOAD JUMPDEST DUP1 PUSH2 0x668 JUMPI POP DUP1 PUSH1 0xA0 ADD MLOAD PUSH1 0x40 ADD MLOAD JUMPDEST JUMPDEST ISZERO PUSH2 0x678 JUMPI PUSH1 0x1 SWAP2 POP POP PUSH2 0x67F JUMP JUMPDEST JUMPDEST PUSH1 0x0 SWAP2 POP POP JUMPDEST SWAP2 SWAP1 POP JUMP JUMPDEST PUSH1 0x0 PUSH2 0x691 DUP3 PUSH1 0x2 PUSH2 0x1F77 JUMP JUMPDEST SWAP1 POP SWAP2 SWAP1 POP JUMP JUMPDEST PUSH1 0x0 PUSH2 0x6A5 DUP3 PUSH1 0x0 PUSH2 0x1F77 JUMP JUMPDEST SWAP1 POP SWAP2 SWAP1 POP JUMP JUMPDEST DUP1 PUSH1 0x0 PUSH20 0xFFFFFFFFFFFFFFFFFFFFFFFFFFFFFFFFFFFFFFFF AND PUSH1 0x1 PUSH1 0x0 DUP4 PUSH20 0xFFFFFFFFFFFFFFFFFFFFFFFFFFFFFFFFFFFFFFFF AND PUSH20 0xFFFFFFFFFFFFFFFFFFFFFFFFFFFFFFFFFFFFFFFF AND DUP2 MSTORE PUSH1 0x20 ADD SWAP1 DUP2 MSTORE PUSH1 0x20 ADD PUSH1 0x0 KECCAK256 PUSH1 0x0 ADD PUSH1 0x0 SWAP1 SLOAD SWAP1 PUSH2 0x100 EXP SWAP1 DIV PUSH20 0xFFFFFFFFFFFFFFFFFFFFFFFFFFFFFFFFFFFFFFFF AND PUSH20 0xFFFFFFFFFFFFFFFFFFFFFFFFFFFFFFFFFFFFFFFF AND EQ ISZERO PUSH2 0x77F JUMPI PUSH1 0x40 MLOAD PUSH32 0x8C379A000000000000000000000000000000000000000000000000000000000 DUP2 MSTORE PUSH1 0x4 ADD PUSH2 0x776 SWAP1 PUSH2 0x2800 JUMP JUMPDEST PUSH1 0x40 MLOAD DUP1 SWAP2 SUB SWAP1 REVERT JUMPDEST PUSH1 0x0 PUSH1 0x1 PUSH1 0x0 DUP5 PUSH20 0xFFFFFFFFFFFFFFFFFFFFFFFFFFFFFFFFFFFFFFFF AND PUSH20 0xFFFFFFFFFFFFFFFFFFFFFFFFFFFFFFFFFFFFFFFF AND DUP2 MSTORE PUSH1 0x20 ADD SWAP1 DUP2 MSTORE PUSH1 0x20 ADD PUSH1 0x0 KECCAK256 SWAP1 POP PUSH1 0x0 DUP2 PUSH1 0x4 ADD PUSH1 0x0 PUSH2 0x100 EXP DUP2 SLOAD DUP2 PUSH1 0xFF MUL NOT AND SWAP1 DUP4 ISZERO ISZERO MUL OR SWAP1 SSTORE POP PUSH1 0x0 PUSH1 0x2 PUSH1 0x0 DUP6 PUSH20 0xFFFFFFFFFFFFFFFFFFFFFFFFFFFFFFFFFFFFFFFF AND PUSH20 0xFFFFFFFFFFFFFFFFFFFFFFFFFFFFFFFFFFFFFFFF AND DUP2 MSTORE PUSH1 0x20 ADD SWAP1 DUP2 MSTORE PUSH1 0x20 ADD PUSH1 0x0 KECCAK256 PUSH1 0x0 PUSH2 0x100 EXP DUP2 SLOAD DUP2 PUSH1 0xFF MUL NOT AND SWAP1 DUP4 ISZERO ISZERO MUL OR SWAP1 SSTORE POP POP POP POP JUMP JUMPDEST PUSH1 0x0 DUP1 SLOAD SWAP1 PUSH2 0x100 EXP SWAP1 DIV PUSH20 0xFFFFFFFFFFFFFFFFFFFFFFFFFFFFFFFFFFFFFFFF AND PUSH20 0xFFFFFFFFFFFFFFFFFFFFFFFFFFFFFFFFFFFFFFFF AND CALLER PUSH20 0xFFFFFFFFFFFFFFFFFFFFFFFFFFFFFFFFFFFFFFFF AND EQ DUP1 PUSH2 0x89B JUMPI POP PUSH2 0x89A CALLER PUSH2 0x698 JUMP JUMPDEST JUMPDEST PUSH2 0x8DA JUMPI PUSH1 0x40 MLOAD PUSH32 0x8C379A000000000000000000000000000000000000000000000000000000000 DUP2 MSTORE PUSH1 0x4 ADD PUSH2 0x8D1 SWAP1 PUSH2 0x27E0 JUMP JUMPDEST PUSH1 0x40 MLOAD DUP1 SWAP2 SUB SWAP1 REVERT JUMPDEST DUP2 PUSH1 0x0 PUSH20 0xFFFFFFFFFFFFFFFFFFFFFFFFFFFFFFFFFFFFFFFF AND PUSH1 0x1 PUSH1 0x0 DUP4 PUSH20 0xFFFFFFFFFFFFFFFFFFFFFFFFFFFFFFFFFFFFFFFF AND PUSH20 0xFFFFFFFFFFFFFFFFFFFFFFFFFFFFFFFFFFFFFFFF AND DUP2 MSTORE PUSH1 0x20 ADD SWAP1 DUP2 MSTORE PUSH1 0x20 ADD PUSH1 0x0 KECCAK256 PUSH1 0x0 ADD PUSH1 0x0 SWAP1 SLOAD SWAP1 PUSH2 0x100 EXP SWAP1 DIV PUSH20 0xFFFFFFFFFFFFFFFFFFFFFFFFFFFFFFFFFFFFFFFF AND PUSH20 0xFFFFFFFFFFFFFFFFFFFFFFFFFFFFFFFFFFFFFFFF AND EQ ISZERO PUSH2 0x9AD JUMPI PUSH1 0x40 MLOAD PUSH32 0x8C379A000000000000000000000000000000000000000000000000000000000 DUP2 MSTORE PUSH1 0x4 ADD PUSH2 0x9A4 SWAP1 PUSH2 0x2800 JUMP JUMPDEST PUSH1 0x40 MLOAD DUP1 SWAP2 SUB SWAP1 REVERT JUMPDEST PUSH1 0x0 PUSH1 0x1 PUSH1 0x0 DUP6 PUSH20 0xFFFFFFFFFFFFFFFFFFFFFFFFFFFFFFFFFFFFFFFF AND PUSH20 0xFFFFFFFFFFFFFFFFFFFFFFFFFFFFFFFFFFFFFFFF AND DUP2 MSTORE PUSH1 0x20 ADD SWAP1 DUP2 MSTORE PUSH1 0x20 ADD PUSH1 0x0 KECCAK256 SWAP1 POP PUSH1 0x0 DUP2 PUSH1 0x5 ADD SWAP1 POP PUSH1 0x0 PUSH1 0x3 DUP2 GT ISZERO PUSH2 0xA32 JUMPI PUSH32 0x4E487B7100000000000000000000000000000000000000000000000000000000 PUSH1 0x0 MSTORE PUSH1 0x21 PUSH1 0x4 MSTORE PUSH1 0x24 PUSH1 0x0 REVERT JUMPDEST DUP5 PUSH1 0x3 DUP2 GT ISZERO PUSH2 0xA6B JUMPI PUSH32 0x4E487B7100000000000000000000000000000000000000000000000000000000 PUSH1 0x0 MSTORE PUSH1 0x21 PUSH1 0x4 MSTORE PUSH1 0x24 PUSH1 0x0 REVERT JUMPDEST EQ ISZERO PUSH2 0xA93 JUMPI PUSH1 0x1 DUP2 PUSH1 0x0 ADD PUSH1 0x0 PUSH2 0x100 EXP DUP2 SLOAD DUP2 PUSH1 0xFF MUL NOT AND SWAP1 DUP4 ISZERO ISZERO MUL OR SWAP1 SSTORE POP PUSH2 0xC62 JUMP JUMPDEST PUSH1 0x1 PUSH1 0x3 DUP2 GT ISZERO PUSH2 0xACD JUMPI PUSH32 0x4E487B7100000000000000000000000000000000000000000000000000000000 PUSH1 0x0 MSTORE PUSH1 0x21 PUSH1 0x4 MSTORE PUSH1 0x24 PUSH1 0x0 REVERT JUMPDEST DUP5 PUSH1 0x3 DUP2 GT ISZERO PUSH2 0xB06 JUMPI PUSH32 0x4E487B7100000000000000000000000000000000000000000000000000000000 PUSH1 0x0 MSTORE PUSH1 0x21 PUSH1 0x4 MSTORE PUSH1 0x24 PUSH1 0x0 REVERT JUMPDEST EQ ISZERO PUSH2 0xB2E JUMPI PUSH1 0x1 DUP2 PUSH1 0x0 ADD PUSH1 0x1 PUSH2 0x100 EXP DUP2 SLOAD DUP2 PUSH1 0xFF MUL NOT AND SWAP1 DUP4 ISZERO ISZERO MUL OR SWAP1 SSTORE POP PUSH2 0xC61 JUMP JUMPDEST PUSH1 0x2 PUSH1 0x3 DUP2 GT ISZERO PUSH2 0xB68 JUMPI PUSH32 0x4E487B7100000000000000000000000000000000000000000000000000000000 PUSH1 0x0 MSTORE PUSH1 0x21 PUSH1 0x4 MSTORE PUSH1 0x24 PUSH1 0x0 REVERT JUMPDEST DUP5 PUSH1 0x3 DUP2 GT ISZERO PUSH2 0xBA1 JUMPI PUSH32 0x4E487B7100000000000000000000000000000000000000000000000000000000 PUSH1 0x0 MSTORE PUSH1 0x21 PUSH1 0x4 MSTORE PUSH1 0x24 PUSH1 0x0 REVERT JUMPDEST EQ ISZERO PUSH2 0xBC9 JUMPI PUSH1 0x1 DUP2 PUSH1 0x0 ADD PUSH1 0x2 PUSH2 0x100 EXP DUP2 SLOAD DUP2 PUSH1 0xFF MUL NOT AND SWAP1 DUP4 ISZERO ISZERO MUL OR SWAP1 SSTORE POP PUSH2 0xC60 JUMP JUMPDEST PUSH1 0x3 DUP1 DUP2 GT ISZERO PUSH2 0xC02 JUMPI PUSH32 0x4E487B7100000000000000000000000000000000000000000000000000000000 PUSH1 0x0 MSTORE PUSH1 0x21 PUSH1 0x4 MSTORE PUSH1 0x24 PUSH1 0x0 REVERT JUMPDEST DUP5 PUSH1 0x3 DUP2 GT ISZERO PUSH2 0xC3B JUMPI PUSH32 0x4E487B7100000000000000000000000000000000000000000000000000000000 PUSH1 0x0 MSTORE PUSH1 0x21 PUSH1 0x4 MSTORE PUSH1 0x24 PUSH1 0x0 REVERT JUMPDEST EQ ISZERO PUSH2 0xC5F JUMPI PUSH1 0x1 DUP2 PUSH1 0x0 ADD PUSH1 0x3 PUSH2 0x100 EXP DUP2 SLOAD DUP2 PUSH1 0xFF MUL NOT AND SWAP1 DUP4 ISZERO ISZERO MUL OR SWAP1 SSTORE POP JUMPDEST JUMPDEST JUMPDEST JUMPDEST POP POP POP POP POP JUMP JUMPDEST PUSH1 0x0 DUP1 PUSH1 0x1 PUSH1 0x0 DUP5 PUSH20 0xFFFFFFFFFFFFFFFFFFFFFFFFFFFFFFFFFFFFFFFF AND PUSH20 0xFFFFFFFFFFFFFFFFFFFFFFFFFFFFFFFFFFFFFFFF AND DUP2 MSTORE PUSH1 0x20 ADD SWAP1 DUP2 MSTORE PUSH1 0x20 ADD PUSH1 0x0 KECCAK256 PUSH1 0x40 MLOAD DUP1 PUSH1 0xC0 ADD PUSH1 0x40 MSTORE SWAP1 DUP2 PUSH1 0x0 DUP3 ADD PUSH1 0x0 SWAP1 SLOAD SWAP1 PUSH2 0x100 EXP SWAP1 DIV PUSH20 0xFFFFFFFFFFFFFFFFFFFFFFFFFFFFFFFFFFFFFFFF AND PUSH20 0xFFFFFFFFFFFFFFFFFFFFFFFFFFFFFFFFFFFFFFFF AND PUSH20 0xFFFFFFFFFFFFFFFFFFFFFFFFFFFFFFFFFFFFFFFF AND DUP2 MSTORE PUSH1 0x20 ADD PUSH1 0x1 DUP3 ADD DUP1 SLOAD PUSH2 0xD1C SWAP1 PUSH2 0x28F4 JUMP JUMPDEST DUP1 PUSH1 0x1F ADD PUSH1 0x20 DUP1 SWAP2 DIV MUL PUSH1 0x20 ADD PUSH1 0x40 MLOAD SWAP1 DUP2 ADD PUSH1 0x40 MSTORE DUP1 SWAP3 SWAP2 SWAP1 DUP2 DUP2 MSTORE PUSH1 0x20 ADD DUP3 DUP1 SLOAD PUSH2 0xD48 SWAP1 PUSH2 0x28F4 JUMP JUMPDEST DUP1 ISZERO PUSH2 0xD95 JUMPI DUP1 PUSH1 0x1F LT PUSH2 0xD6A JUMPI PUSH2 0x100 DUP1 DUP4 SLOAD DIV MUL DUP4 MSTORE SWAP2 PUSH1 0x20 ADD SWAP2 PUSH2 0xD95 JUMP JUMPDEST DUP3 ADD SWAP2 SWAP1 PUSH1 0x0 MSTORE PUSH1 0x20 PUSH1 0x0 KECCAK256 SWAP1 JUMPDEST DUP2 SLOAD DUP2 MSTORE SWAP1 PUSH1 0x1 ADD SWAP1 PUSH1 0x20 ADD DUP1 DUP4 GT PUSH2 0xD78 JUMPI DUP3 SWAP1 SUB PUSH1 0x1F AND DUP3 ADD SWAP2 JUMPDEST POP POP POP POP POP DUP2 MSTORE PUSH1 0x20 ADD PUSH1 0x2 DUP3 ADD DUP1 SLOAD PUSH2 0xDAE SWAP1 PUSH2 0x28F4 JUMP JUMPDEST DUP1 PUSH1 0x1F ADD PUSH1 0x20 DUP1 SWAP2 DIV MUL PUSH1 0x20 ADD PUSH1 0x40 MLOAD SWAP1 DUP2 ADD PUSH1 0x40 MSTORE DUP1 SWAP3 SWAP2 SWAP1 DUP2 DUP2 MSTORE PUSH1 0x20 ADD DUP3 DUP1 SLOAD PUSH2 0xDDA SWAP1 PUSH2 0x28F4 JUMP JUMPDEST DUP1 ISZERO PUSH2 0xE27 JUMPI DUP1 PUSH1 0x1F LT PUSH2 0xDFC JUMPI PUSH2 0x100 DUP1 DUP4 SLOAD DIV MUL DUP4 MSTORE SWAP2 PUSH1 0x20 ADD SWAP2 PUSH2 0xE27 JUMP JUMPDEST DUP3 ADD SWAP2 SWAP1 PUSH1 0x0 MSTORE PUSH1 0x20 PUSH1 0x0 KECCAK256 SWAP1 JUMPDEST DUP2 SLOAD DUP2 MSTORE SWAP1 PUSH1 0x1 ADD SWAP1 PUSH1 0x20 ADD DUP1 DUP4 GT PUSH2 0xE0A JUMPI DUP3 SWAP1 SUB PUSH1 0x1F AND DUP3 ADD SWAP2 JUMPDEST POP POP POP POP POP DUP2 MSTORE PUSH1 0x20 ADD PUSH1 0x3 DUP3 ADD DUP1 SLOAD PUSH2 0xE40 SWAP1 PUSH2 0x28F4 JUMP JUMPDEST DUP1 PUSH1 0x1F ADD PUSH1 0x20 DUP1 SWAP2 DIV MUL PUSH1 0x20 ADD PUSH1 0x40 MLOAD SWAP1 DUP2 ADD PUSH1 0x40 MSTORE DUP1 SWAP3 SWAP2 SWAP1 DUP2 DUP2 MSTORE PUSH1 0x20 ADD DUP3 DUP1 SLOAD PUSH2 0xE6C SWAP1 PUSH2 0x28F4 JUMP JUMPDEST DUP1 ISZERO PUSH2 0xEB9 JUMPI DUP1 PUSH1 0x1F LT PUSH2 0xE8E JUMPI PUSH2 0x100 DUP1 DUP4 SLOAD DIV MUL DUP4 MSTORE SWAP2 PUSH1 0x20 ADD SWAP2 PUSH2 0xEB9 JUMP JUMPDEST DUP3 ADD SWAP2 SWAP1 PUSH1 0x0 MSTORE PUSH1 0x20 PUSH1 0x0 KECCAK256 SWAP1 JUMPDEST DUP2 SLOAD DUP2 MSTORE SWAP1 PUSH1 0x1 ADD SWAP1 PUSH1 0x20 ADD DUP1 DUP4 GT PUSH2 0xE9C JUMPI DUP3 SWAP1 SUB PUSH1 0x1F AND DUP3 ADD SWAP2 JUMPDEST POP POP POP POP POP DUP2 MSTORE PUSH1 0x20 ADD PUSH1 0x4 DUP3 ADD PUSH1 0x0 SWAP1 SLOAD SWAP1 PUSH2 0x100 EXP SWAP1 DIV PUSH1 0xFF AND ISZERO ISZERO ISZERO ISZERO DUP2 MSTORE PUSH1 0x20 ADD PUSH1 0x5 DUP3 ADD PUSH1 0x40 MLOAD DUP1 PUSH1 0x80 ADD PUSH1 0x40 MSTORE SWAP1 DUP2 PUSH1 0x0 DUP3 ADD PUSH1 0x0 SWAP1 SLOAD SWAP1 PUSH2 0x100 EXP SWAP1 DIV PUSH1 0xFF AND ISZERO ISZERO ISZERO ISZERO DUP2 MSTORE PUSH1 0x20 ADD PUSH1 0x0 DUP3 ADD PUSH1 0x1 SWAP1 SLOAD SWAP1 PUSH2 0x100 EXP SWAP1 DIV PUSH1 0xFF AND ISZERO ISZERO ISZERO ISZERO DUP2 MSTORE PUSH1 0x20 ADD PUSH1 0x0 DUP3 ADD PUSH1 0x2 SWAP1 SLOAD SWAP1 PUSH2 0x100 EXP SWAP1 DIV PUSH1 0xFF AND ISZERO ISZERO ISZERO ISZERO DUP2 MSTORE PUSH1 0x20 ADD PUSH1 0x0 DUP3 ADD PUSH1 0x3 SWAP1 SLOAD SWAP1 PUSH2 0x100 EXP SWAP1 DIV PUSH1 0xFF AND ISZERO ISZERO ISZERO ISZERO DUP2 MSTORE POP POP DUP2 MSTORE POP POP SWAP1 POP PUSH1 0x0 PUSH20 0xFFFFFFFFFFFFFFFFFFFFFFFFFFFFFFFFFFFFFFFF AND DUP2 PUSH1 0x0 ADD MLOAD PUSH20 0xFFFFFFFFFFFFFFFFFFFFFFFFFFFFFFFFFFFFFFFF AND EQ PUSH2 0xFDD JUMPI DUP1 PUSH1 0x80 ADD MLOAD DUP1 ISZERO PUSH2 0xFCD JUMPI POP DUP1 PUSH1 0xA0 ADD MLOAD PUSH1 0x0 ADD MLOAD DUP1 PUSH2 0xFBC JUMPI POP DUP1 PUSH1 0xA0 ADD MLOAD PUSH1 0x20 ADD MLOAD JUMPDEST DUP1 PUSH2 0xFCC JUMPI POP DUP1 PUSH1 0xA0 ADD MLOAD PUSH1 0x40 ADD MLOAD JUMPDEST JUMPDEST ISZERO PUSH2 0xFDC JUMPI PUSH1 0x1 SWAP2 POP POP PUSH2 0xFE3 JUMP JUMPDEST JUMPDEST PUSH1 0x0 SWAP2 POP POP JUMPDEST SWAP2 SWAP1 POP JUMP JUMPDEST PUSH1 0x0 DUP1 SLOAD SWAP1 PUSH2 0x100 EXP SWAP1 DIV PUSH20 0xFFFFFFFFFFFFFFFFFFFFFFFFFFFFFFFFFFFFFFFF AND DUP2 JUMP JUMPDEST DUP1 PUSH1 0x0 PUSH20 0xFFFFFFFFFFFFFFFFFFFFFFFFFFFFFFFFFFFFFFFF AND PUSH1 0x1 PUSH1 0x0 DUP4 PUSH20 0xFFFFFFFFFFFFFFFFFFFFFFFFFFFFFFFFFFFFFFFF AND PUSH20 0xFFFFFFFFFFFFFFFFFFFFFFFFFFFFFFFFFFFFFFFF AND DUP2 MSTORE PUSH1 0x20 ADD SWAP1 DUP2 MSTORE PUSH1 0x20 ADD PUSH1 0x0 KECCAK256 PUSH1 0x0 ADD PUSH1 0x0 SWAP1 SLOAD SWAP1 PUSH2 0x100 EXP SWAP1 DIV PUSH20 0xFFFFFFFFFFFFFFFFFFFFFFFFFFFFFFFFFFFFFFFF AND PUSH20 0xFFFFFFFFFFFFFFFFFFFFFFFFFFFFFFFFFFFFFFFF AND EQ ISZERO PUSH2 0x10DF JUMPI PUSH1 0x40 MLOAD PUSH32 0x8C379A000000000000000000000000000000000000000000000000000000000 DUP2 MSTORE PUSH1 0x4 ADD PUSH2 0x10D6 SWAP1 PUSH2 0x2800 JUMP JUMPDEST PUSH1 0x40 MLOAD DUP1 SWAP2 SUB SWAP1 REVERT JUMPDEST PUSH1 0x0 PUSH1 0x1 PUSH1 0x0 DUP5 PUSH20 0xFFFFFFFFFFFFFFFFFFFFFFFFFFFFFFFFFFFFFFFF AND PUSH20 0xFFFFFFFFFFFFFFFFFFFFFFFFFFFFFFFFFFFFFFFF AND DUP2 MSTORE PUSH1 0x20 ADD SWAP1 DUP2 MSTORE PUSH1 0x20 ADD PUSH1 0x0 KECCAK256 SWAP1 POP PUSH1 0x1 DUP2 PUSH1 0x4 ADD PUSH1 0x0 PUSH2 0x100 EXP DUP2 SLOAD DUP2 PUSH1 0xFF MUL NOT AND SWAP1 DUP4 ISZERO ISZERO MUL OR SWAP1 SSTORE POP PUSH1 0x0 DUP2 PUSH1 0x5 ADD PUSH1 0x40 MLOAD DUP1 PUSH1 0x80 ADD PUSH1 0x40 MSTORE SWAP1 DUP2 PUSH1 0x0 DUP3 ADD PUSH1 0x0 SWAP1 SLOAD SWAP1 PUSH2 0x100 EXP SWAP1 DIV PUSH1 0xFF AND ISZERO ISZERO ISZERO ISZERO DUP2 MSTORE PUSH1 0x20 ADD PUSH1 0x0 DUP3 ADD PUSH1 0x1 SWAP1 SLOAD SWAP1 PUSH2 0x100 EXP SWAP1 DIV PUSH1 0xFF AND ISZERO ISZERO ISZERO ISZERO DUP2 MSTORE PUSH1 0x20 ADD PUSH1 0x0 DUP3 ADD PUSH1 0x2 SWAP1 SLOAD SWAP1 PUSH2 0x100 EXP SWAP1 DIV PUSH1 0xFF AND ISZERO ISZERO ISZERO ISZERO DUP2 MSTORE PUSH1 0x20 ADD PUSH1 0x0 DUP3 ADD PUSH1 0x3 SWAP1 SLOAD SWAP1 PUSH2 0x100 EXP SWAP1 DIV PUSH1 0xFF AND ISZERO ISZERO ISZERO ISZERO DUP2 MSTORE POP POP SWAP1 POP DUP1 PUSH1 0x0 ADD MLOAD DUP1 PUSH2 0x11CF JUMPI POP DUP1 PUSH1 0x20 ADD MLOAD JUMPDEST DUP1 PUSH2 0x11DB JUMPI POP DUP1 PUSH1 0x40 ADD MLOAD JUMPDEST ISZERO PUSH2 0x1239 JUMPI PUSH1 0x1 PUSH1 0x2 PUSH1 0x0 DUP7 PUSH20 0xFFFFFFFFFFFFFFFFFFFFFFFFFFFFFFFFFFFFFFFF AND PUSH20 0xFFFFFFFFFFFFFFFFFFFFFFFFFFFFFFFFFFFFFFFF AND DUP2 MSTORE PUSH1 0x20 ADD SWAP1 DUP2 MSTORE PUSH1 0x20 ADD PUSH1 0x0 KECCAK256 PUSH1 0x0 PUSH2 0x100 EXP DUP2 SLOAD DUP2 PUSH1 0xFF MUL NOT AND SWAP1 DUP4 ISZERO ISZERO MUL OR SWAP1 SSTORE POP JUMPDEST POP POP POP POP JUMP JUMPDEST PUSH1 0x0 DUP1 SLOAD SWAP1 PUSH2 0x100 EXP SWAP1 DIV PUSH20 0xFFFFFFFFFFFFFFFFFFFFFFFFFFFFFFFFFFFFFFFF AND PUSH20 0xFFFFFFFFFFFFFFFFFFFFFFFFFFFFFFFFFFFFFFFF AND CALLER PUSH20 0xFFFFFFFFFFFFFFFFFFFFFFFFFFFFFFFFFFFFFFFF AND EQ DUP1 PUSH2 0x129E JUMPI POP PUSH2 0x129D CALLER PUSH2 0x698 JUMP JUMPDEST JUMPDEST PUSH2 0x12DD JUMPI PUSH1 0x40 MLOAD PUSH32 0x8C379A000000000000000000000000000000000000000000000000000000000 DUP2 MSTORE PUSH1 0x4 ADD PUSH2 0x12D4 SWAP1 PUSH2 0x27E0 JUMP JUMPDEST PUSH1 0x40 MLOAD DUP1 SWAP2 SUB SWAP1 REVERT JUMPDEST DUP2 PUSH1 0x0 PUSH20 0xFFFFFFFFFFFFFFFFFFFFFFFFFFFFFFFFFFFFFFFF AND PUSH1 0x1 PUSH1 0x0 DUP4 PUSH20 0xFFFFFFFFFFFFFFFFFFFFFFFFFFFFFFFFFFFFFFFF AND PUSH20 0xFFFFFFFFFFFFFFFFFFFFFFFFFFFFFFFFFFFFFFFF AND DUP2 MSTORE PUSH1 0x20 ADD SWAP1 DUP2 MSTORE PUSH1 0x20 ADD PUSH1 0x0 KECCAK256 PUSH1 0x0 ADD PUSH1 0x0 SWAP1 SLOAD SWAP1 PUSH2 0x100 EXP SWAP1 DIV PUSH20 0xFFFFFFFFFFFFFFFFFFFFFFFFFFFFFFFFFFFFFFFF AND PUSH20 0xFFFFFFFFFFFFFFFFFFFFFFFFFFFFFFFFFFFFFFFF AND EQ ISZERO PUSH2 0x13B0 JUMPI PUSH1 0x40 MLOAD PUSH32 0x8C379A000000000000000000000000000000000000000000000000000000000 DUP2 MSTORE PUSH1 0x4 ADD PUSH2 0x13A7 SWAP1 PUSH2 0x2800 JUMP JUMPDEST PUSH1 0x40 MLOAD DUP1 SWAP2 SUB SWAP1 REVERT JUMPDEST PUSH1 0x0 PUSH1 0x1 PUSH1 0x0 DUP6 PUSH20 0xFFFFFFFFFFFFFFFFFFFFFFFFFFFFFFFFFFFFFFFF AND PUSH20 0xFFFFFFFFFFFFFFFFFFFFFFFFFFFFFFFFFFFFFFFF AND DUP2 MSTORE PUSH1 0x20 ADD SWAP1 DUP2 MSTORE PUSH1 0x20 ADD PUSH1 0x0 KECCAK256 SWAP1 POP PUSH1 0x0 DUP2 PUSH1 0x5 ADD SWAP1 POP PUSH1 0x0 PUSH1 0x3 DUP2 GT ISZERO PUSH2 0x1435 JUMPI PUSH32 0x4E487B7100000000000000000000000000000000000000000000000000000000 PUSH1 0x0 MSTORE PUSH1 0x21 PUSH1 0x4 MSTORE PUSH1 0x24 PUSH1 0x0 REVERT JUMPDEST DUP5 PUSH1 0x3 DUP2 GT ISZERO PUSH2 0x146E JUMPI PUSH32 0x4E487B7100000000000000000000000000000000000000000000000000000000 PUSH1 0x0 MSTORE PUSH1 0x21 PUSH1 0x4 MSTORE PUSH1 0x24 PUSH1 0x0 REVERT JUMPDEST EQ ISZERO PUSH2 0x1496 JUMPI PUSH1 0x0 DUP2 PUSH1 0x0 ADD PUSH1 0x0 PUSH2 0x100 EXP DUP2 SLOAD DUP2 PUSH1 0xFF MUL NOT AND SWAP1 DUP4 ISZERO ISZERO MUL OR SWAP1 SSTORE POP PUSH2 0x1665 JUMP JUMPDEST PUSH1 0x1 PUSH1 0x3 DUP2 GT ISZERO PUSH2 0x14D0 JUMPI PUSH32 0x4E487B7100000000000000000000000000000000000000000000000000000000 PUSH1 0x0 MSTORE PUSH1 0x21 PUSH1 0x4 MSTORE PUSH1 0x24 PUSH1 0x0 REVERT JUMPDEST DUP5 PUSH1 0x3 DUP2 GT ISZERO PUSH2 0x1509 JUMPI PUSH32 0x4E487B7100000000000000000000000000000000000000000000000000000000 PUSH1 0x0 MSTORE PUSH1 0x21 PUSH1 0x4 MSTORE PUSH1 0x24 PUSH1 0x0 REVERT JUMPDEST EQ ISZERO PUSH2 0x1531 JUMPI PUSH1 0x0 DUP2 PUSH1 0x0 ADD PUSH1 0x1 PUSH2 0x100 EXP DUP2 SLOAD DUP2 PUSH1 0xFF MUL NOT AND SWAP1 DUP4 ISZERO ISZERO MUL OR SWAP1 SSTORE POP PUSH2 0x1664 JUMP JUMPDEST PUSH1 0x2 PUSH1 0x3 DUP2 GT ISZERO PUSH2 0x156B JUMPI PUSH32 0x4E487B7100000000000000000000000000000000000000000000000000000000 PUSH1 0x0 MSTORE PUSH1 0x21 PUSH1 0x4 MSTORE PUSH1 0x24 PUSH1 0x0 REVERT JUMPDEST DUP5 PUSH1 0x3 DUP2 GT ISZERO PUSH2 0x15A4 JUMPI PUSH32 0x4E487B7100000000000000000000000000000000000000000000000000000000 PUSH1 0x0 MSTORE PUSH1 0x21 PUSH1 0x4 MSTORE PUSH1 0x24 PUSH1 0x0 REVERT JUMPDEST EQ ISZERO PUSH2 0x15CC JUMPI PUSH1 0x0 DUP2 PUSH1 0x0 ADD PUSH1 0x2 PUSH2 0x100 EXP DUP2 SLOAD DUP2 PUSH1 0xFF MUL NOT AND SWAP1 DUP4 ISZERO ISZERO MUL OR SWAP1 SSTORE POP PUSH2 0x1663 JUMP JUMPDEST PUSH1 0x3 DUP1 DUP2 GT ISZERO PUSH2 0x1605 JUMPI PUSH32 0x4E487B7100000000000000000000000000000000000000000000000000000000 PUSH1 0x0 MSTORE PUSH1 0x21 PUSH1 0x4 MSTORE PUSH1 0x24 PUSH1 0x0 REVERT JUMPDEST DUP5 PUSH1 0x3 DUP2 GT ISZERO PUSH2 0x163E JUMPI PUSH32 0x4E487B7100000000000000000000000000000000000000000000000000000000 PUSH1 0x0 MSTORE PUSH1 0x21 PUSH1 0x4 MSTORE PUSH1 0x24 PUSH1 0x0 REVERT JUMPDEST EQ ISZERO PUSH2 0x1662 JUMPI PUSH1 0x0 DUP2 PUSH1 0x0 ADD PUSH1 0x3 PUSH2 0x100 EXP DUP2 SLOAD DUP2 PUSH1 0xFF MUL NOT AND SWAP1 DUP4 ISZERO ISZERO MUL OR SWAP1 SSTORE POP JUMPDEST JUMPDEST JUMPDEST JUMPDEST DUP1 PUSH1 0x0 ADD PUSH1 0x0 SWAP1 SLOAD SWAP1 PUSH2 0x100 EXP SWAP1 DIV PUSH1 0xFF AND ISZERO DUP1 ISZERO PUSH2 0x1693 JUMPI POP DUP1 PUSH1 0x0 ADD PUSH1 0x1 SWAP1 SLOAD SWAP1 PUSH2 0x100 EXP SWAP1 DIV PUSH1 0xFF AND ISZERO JUMPDEST DUP1 ISZERO PUSH2 0x16AE JUMPI POP DUP1 PUSH1 0x0 ADD PUSH1 0x2 SWAP1 SLOAD SWAP1 PUSH2 0x100 EXP SWAP1 DIV PUSH1 0xFF AND ISZERO JUMPDEST ISZERO PUSH2 0x170C JUMPI PUSH1 0x0 PUSH1 0x2 PUSH1 0x0 DUP8 PUSH20 0xFFFFFFFFFFFFFFFFFFFFFFFFFFFFFFFFFFFFFFFF AND PUSH20 0xFFFFFFFFFFFFFFFFFFFFFFFFFFFFFFFFFFFFFFFF AND DUP2 MSTORE PUSH1 0x20 ADD SWAP1 DUP2 MSTORE PUSH1 0x20 ADD PUSH1 0x0 KECCAK256 PUSH1 0x0 PUSH2 0x100 EXP DUP2 SLOAD DUP2 PUSH1 0xFF MUL NOT AND SWAP1 DUP4 ISZERO ISZERO MUL OR SWAP1 SSTORE POP JUMPDEST POP POP POP POP POP JUMP JUMPDEST PUSH1 0x0 DUP1 PUSH1 0x1 PUSH1 0x0 DUP5 PUSH20 0xFFFFFFFFFFFFFFFFFFFFFFFFFFFFFFFFFFFFFFFF AND PUSH20 0xFFFFFFFFFFFFFFFFFFFFFFFFFFFFFFFFFFFFFFFF AND DUP2 MSTORE PUSH1 0x20 ADD SWAP1 DUP2 MSTORE PUSH1 0x20 ADD PUSH1 0x0 KECCAK256 PUSH1 0x40 MLOAD DUP1 PUSH1 0xC0 ADD PUSH1 0x40 MSTORE SWAP1 DUP2 PUSH1 0x0 DUP3 ADD PUSH1 0x0 SWAP1 SLOAD SWAP1 PUSH2 0x100 EXP SWAP1 DIV PUSH20 0xFFFFFFFFFFFFFFFFFFFFFFFFFFFFFFFFFFFFFFFF AND PUSH20 0xFFFFFFFFFFFFFFFFFFFFFFFFFFFFFFFFFFFFFFFF AND PUSH20 0xFFFFFFFFFFFFFFFFFFFFFFFFFFFFFFFFFFFFFFFF AND DUP2 MSTORE PUSH1 0x20 ADD PUSH1 0x1 DUP3 ADD DUP1 SLOAD PUSH2 0x17C6 SWAP1 PUSH2 0x28F4 JUMP JUMPDEST DUP1 PUSH1 0x1F ADD PUSH1 0x20 DUP1 SWAP2 DIV MUL PUSH1 0x20 ADD PUSH1 0x40 MLOAD SWAP1 DUP2 ADD PUSH1 0x40 MSTORE DUP1 SWAP3 SWAP2 SWAP1 DUP2 DUP2 MSTORE PUSH1 0x20 ADD DUP3 DUP1 SLOAD PUSH2 0x17F2 SWAP1 PUSH2 0x28F4 JUMP JUMPDEST DUP1 ISZERO PUSH2 0x183F JUMPI DUP1 PUSH1 0x1F LT PUSH2 0x1814 JUMPI PUSH2 0x100 DUP1 DUP4 SLOAD DIV MUL DUP4 MSTORE SWAP2 PUSH1 0x20 ADD SWAP2 PUSH2 0x183F JUMP JUMPDEST DUP3 ADD SWAP2 SWAP1 PUSH1 0x0 MSTORE PUSH1 0x20 PUSH1 0x0 KECCAK256 SWAP1 JUMPDEST DUP2 SLOAD DUP2 MSTORE SWAP1 PUSH1 0x1 ADD SWAP1 PUSH1 0x20 ADD DUP1 DUP4 GT PUSH2 0x1822 JUMPI DUP3 SWAP1 SUB PUSH1 0x1F AND DUP3 ADD SWAP2 JUMPDEST POP POP POP POP POP DUP2 MSTORE PUSH1 0x20 ADD PUSH1 0x2 DUP3 ADD DUP1 SLOAD PUSH2 0x1858 SWAP1 PUSH2 0x28F4 JUMP JUMPDEST DUP1 PUSH1 0x1F ADD PUSH1 0x20 DUP1 SWAP2 DIV MUL PUSH1 0x20 ADD PUSH1 0x40 MLOAD SWAP1 DUP2 ADD PUSH1 0x40 MSTORE DUP1 SWAP3 SWAP2 SWAP1 DUP2 DUP2 MSTORE PUSH1 0x20 ADD DUP3 DUP1 SLOAD PUSH2 0x1884 SWAP1 PUSH2 0x28F4 JUMP JUMPDEST DUP1 ISZERO PUSH2 0x18D1 JUMPI DUP1 PUSH1 0x1F LT PUSH2 0x18A6 JUMPI PUSH2 0x100 DUP1 DUP4 SLOAD DIV MUL DUP4 MSTORE SWAP2 PUSH1 0x20 ADD SWAP2 PUSH2 0x18D1 JUMP JUMPDEST DUP3 ADD SWAP2 SWAP1 PUSH1 0x0 MSTORE PUSH1 0x20 PUSH1 0x0 KECCAK256 SWAP1 JUMPDEST DUP2 SLOAD DUP2 MSTORE SWAP1 PUSH1 0x1 ADD SWAP1 PUSH1 0x20 ADD DUP1 DUP4 GT PUSH2 0x18B4 JUMPI DUP3 SWAP1 SUB PUSH1 0x1F AND DUP3 ADD SWAP2 JUMPDEST POP POP POP POP POP DUP2 MSTORE PUSH1 0x20 ADD PUSH1 0x3 DUP3 ADD DUP1 SLOAD PUSH2 0x18EA SWAP1 PUSH2 0x28F4 JUMP JUMPDEST DUP1 PUSH1 0x1F ADD PUSH1 0x20 DUP1 SWAP2 DIV MUL PUSH1 0x20 ADD PUSH1 0x40 MLOAD SWAP1 DUP2 ADD PUSH1 0x40 MSTORE DUP1 SWAP3 SWAP2 SWAP1 DUP2 DUP2 MSTORE PUSH1 0x20 ADD DUP3 DUP1 SLOAD PUSH2 0x1916 SWAP1 PUSH2 0x28F4 JUMP JUMPDEST DUP1 ISZERO PUSH2 0x1963 JUMPI DUP1 PUSH1 0x1F LT PUSH2 0x1938 JUMPI PUSH2 0x100 DUP1 DUP4 SLOAD DIV MUL DUP4 MSTORE SWAP2 PUSH1 0x20 ADD SWAP2 PUSH2 0x1963 JUMP JUMPDEST DUP3 ADD SWAP2 SWAP1 PUSH1 0x0 MSTORE PUSH1 0x20 PUSH1 0x0 KECCAK256 SWAP1 JUMPDEST DUP2 SLOAD DUP2 MSTORE SWAP1 PUSH1 0x1 ADD SWAP1 PUSH1 0x20 ADD DUP1 DUP4 GT PUSH2 0x1946 JUMPI DUP3 SWAP1 SUB PUSH1 0x1F AND DUP3 ADD SWAP2 JUMPDEST POP POP POP POP POP DUP2 MSTORE PUSH1 0x20 ADD PUSH1 0x4 DUP3 ADD PUSH1 0x0 SWAP1 SLOAD SWAP1 PUSH2 0x100 EXP SWAP1 DIV PUSH1 0xFF AND ISZERO ISZERO ISZERO ISZERO DUP2 MSTORE PUSH1 0x20 ADD PUSH1 0x5 DUP3 ADD PUSH1 0x40 MLOAD DUP1 PUSH1 0x80 ADD PUSH1 0x40 MSTORE SWAP1 DUP2 PUSH1 0x0 DUP3 ADD PUSH1 0x0 SWAP1 SLOAD SWAP1 PUSH2 0x100 EXP SWAP1 DIV PUSH1 0xFF AND ISZERO ISZERO ISZERO ISZERO DUP2 MSTORE PUSH1 0x20 ADD PUSH1 0x0 DUP3 ADD PUSH1 0x1 SWAP1 SLOAD SWAP1 PUSH2 0x100 EXP SWAP1 DIV PUSH1 0xFF AND ISZERO ISZERO ISZERO ISZERO DUP2 MSTORE PUSH1 0x20 ADD PUSH1 0x0 DUP3 ADD PUSH1 0x2 SWAP1 SLOAD SWAP1 PUSH2 0x100 EXP SWAP1 DIV PUSH1 0xFF AND ISZERO ISZERO ISZERO ISZERO DUP2 MSTORE PUSH1 0x20 ADD PUSH1 0x0 DUP3 ADD PUSH1 0x3 SWAP1 SLOAD SWAP1 PUSH2 0x100 EXP SWAP1 DIV PUSH1 0xFF AND ISZERO ISZERO ISZERO ISZERO DUP2 MSTORE POP POP DUP2 MSTORE POP POP SWAP1 POP PUSH1 0x0 PUSH20 0xFFFFFFFFFFFFFFFFFFFFFFFFFFFFFFFFFFFFFFFF AND DUP2 PUSH1 0x0 ADD MLOAD PUSH20 0xFFFFFFFFFFFFFFFFFFFFFFFFFFFFFFFFFFFFFFFF AND EQ PUSH2 0x1A87 JUMPI DUP1 PUSH1 0x80 ADD MLOAD DUP1 ISZERO PUSH2 0x1A77 JUMPI POP DUP1 PUSH1 0xA0 ADD MLOAD PUSH1 0x0 ADD MLOAD DUP1 PUSH2 0x1A66 JUMPI POP DUP1 PUSH1 0xA0 ADD MLOAD PUSH1 0x20 ADD MLOAD JUMPDEST DUP1 PUSH2 0x1A76 JUMPI POP DUP1 PUSH1 0xA0 ADD MLOAD PUSH1 0x40 ADD MLOAD JUMPDEST JUMPDEST ISZERO PUSH2 0x1A86 JUMPI PUSH1 0x1 SWAP2 POP POP PUSH2 0x1A8D JUMP JUMPDEST JUMPDEST PUSH1 0x0 SWAP2 POP POP JUMPDEST SWAP2 SWAP1 POP JUMP JUMPDEST DUP1 PUSH1 0x0 PUSH20 0xFFFFFFFFFFFFFFFFFFFFFFFFFFFFFFFFFFFFFFFF AND PUSH1 0x1 PUSH1 0x0 DUP4 PUSH20 0xFFFFFFFFFFFFFFFFFFFFFFFFFFFFFFFFFFFFFFFF AND PUSH20 0xFFFFFFFFFFFFFFFFFFFFFFFFFFFFFFFFFFFFFFFF AND DUP2 MSTORE PUSH1 0x20 ADD SWAP1 DUP2 MSTORE PUSH1 0x20 ADD PUSH1 0x0 KECCAK256 PUSH1 0x0 ADD PUSH1 0x0 SWAP1 SLOAD SWAP1 PUSH2 0x100 EXP SWAP1 DIV PUSH20 0xFFFFFFFFFFFFFFFFFFFFFFFFFFFFFFFFFFFFFFFF AND PUSH20 0xFFFFFFFFFFFFFFFFFFFFFFFFFFFFFFFFFFFFFFFF AND EQ ISZERO PUSH2 0x1B65 JUMPI PUSH1 0x40 MLOAD PUSH32 0x8C379A000000000000000000000000000000000000000000000000000000000 DUP2 MSTORE PUSH1 0x4 ADD PUSH2 0x1B5C SWAP1 PUSH2 0x2800 JUMP JUMPDEST PUSH1 0x40 MLOAD DUP1 SWAP2 SUB SWAP1 REVERT JUMPDEST PUSH1 0x1 PUSH1 0x0 DUP4 PUSH20 0xFFFFFFFFFFFFFFFFFFFFFFFFFFFFFFFFFFFFFFFF AND PUSH20 0xFFFFFFFFFFFFFFFFFFFFFFFFFFFFFFFFFFFFFFFF AND DUP2 MSTORE PUSH1 0x20 ADD SWAP1 DUP2 MSTORE PUSH1 0x20 ADD PUSH1 0x0 KECCAK256 PUSH1 0x0 DUP1 DUP3 ADD PUSH1 0x0 PUSH2 0x100 EXP DUP2 SLOAD SWAP1 PUSH20 0xFFFFFFFFFFFFFFFFFFFFFFFFFFFFFFFFFFFFFFFF MUL NOT AND SWAP1 SSTORE PUSH1 0x1 DUP3 ADD PUSH1 0x0 PUSH2 0x1BDC SWAP2 SWAP1 PUSH2 0x249E JUMP JUMPDEST PUSH1 0x2 DUP3 ADD PUSH1 0x0 PUSH2 0x1BEC SWAP2 SWAP1 PUSH2 0x249E JUMP JUMPDEST PUSH1 0x3 DUP3 ADD PUSH1 0x0 PUSH2 0x1BFC SWAP2 SWAP1 PUSH2 0x249E JUMP JUMPDEST PUSH1 0x4 DUP3 ADD PUSH1 0x0 PUSH2 0x100 EXP DUP2 SLOAD SWAP1 PUSH1 0xFF MUL NOT AND SWAP1 SSTORE PUSH1 0x5 DUP3 ADD PUSH1 0x0 DUP1 DUP3 ADD PUSH1 0x0 PUSH2 0x100 EXP DUP2 SLOAD SWAP1 PUSH1 0xFF MUL NOT AND SWAP1 SSTORE PUSH1 0x0 DUP3 ADD PUSH1 0x1 PUSH2 0x100 EXP DUP2 SLOAD SWAP1 PUSH1 0xFF MUL NOT AND SWAP1 SSTORE PUSH1 0x0 DUP3 ADD PUSH1 0x2 PUSH2 0x100 EXP DUP2 SLOAD SWAP1 PUSH1 0xFF MUL NOT AND SWAP1 SSTORE PUSH1 0x0 DUP3 ADD PUSH1 0x3 PUSH2 0x100 EXP DUP2 SLOAD SWAP1 PUSH1 0xFF MUL NOT AND SWAP1 SSTORE POP POP POP POP POP POP JUMP JUMPDEST DUP4 PUSH1 0x0 PUSH20 0xFFFFFFFFFFFFFFFFFFFFFFFFFFFFFFFFFFFFFFFF AND PUSH1 0x1 PUSH1 0x0 DUP4 PUSH20 0xFFFFFFFFFFFFFFFFFFFFFFFFFFFFFFFFFFFFFFFF AND PUSH20 0xFFFFFFFFFFFFFFFFFFFFFFFFFFFFFFFFFFFFFFFF AND DUP2 MSTORE PUSH1 0x20 ADD SWAP1 DUP2 MSTORE PUSH1 0x20 ADD PUSH1 0x0 KECCAK256 PUSH1 0x0 ADD PUSH1 0x0 SWAP1 SLOAD SWAP1 PUSH2 0x100 EXP SWAP1 DIV PUSH20 0xFFFFFFFFFFFFFFFFFFFFFFFFFFFFFFFFFFFFFFFF AND PUSH20 0xFFFFFFFFFFFFFFFFFFFFFFFFFFFFFFFFFFFFFFFF AND EQ PUSH2 0x1D3F JUMPI PUSH1 0x40 MLOAD PUSH32 0x8C379A000000000000000000000000000000000000000000000000000000000 DUP2 MSTORE PUSH1 0x4 ADD PUSH2 0x1D36 SWAP1 PUSH2 0x2820 JUMP JUMPDEST PUSH1 0x40 MLOAD DUP1 SWAP2 SUB SWAP1 REVERT JUMPDEST PUSH1 0x0 PUSH1 0x40 MLOAD DUP1 PUSH1 0x80 ADD PUSH1 0x40 MSTORE DUP1 PUSH1 0x0 ISZERO ISZERO DUP2 MSTORE PUSH1 0x20 ADD PUSH1 0x0 ISZERO ISZERO DUP2 MSTORE PUSH1 0x20 ADD PUSH1 0x0 ISZERO ISZERO DUP2 MSTORE PUSH1 0x20 ADD PUSH1 0x1 ISZERO ISZERO DUP2 MSTORE POP SWAP1 POP PUSH1 0x0 PUSH1 0x40 MLOAD DUP1 PUSH1 0xC0 ADD PUSH1 0x40 MSTORE DUP1 DUP9 PUSH20 0xFFFFFFFFFFFFFFFFFFFFFFFFFFFFFFFFFFFFFFFF AND DUP2 MSTORE PUSH1 0x20 ADD DUP8 DUP2 MSTORE PUSH1 0x20 ADD DUP7 DUP2 MSTORE PUSH1 0x20 ADD DUP6 DUP2 MSTORE PUSH1 0x20 ADD PUSH1 0x1 ISZERO ISZERO DUP2 MSTORE PUSH1 0x20 ADD DUP4 DUP2 MSTORE POP SWAP1 POP DUP1 PUSH1 0x1 PUSH1 0x0 DUP10 PUSH20 0xFFFFFFFFFFFFFFFFFFFFFFFFFFFFFFFFFFFFFFFF AND PUSH20 0xFFFFFFFFFFFFFFFFFFFFFFFFFFFFFFFFFFFFFFFF AND DUP2 MSTORE PUSH1 0x20 ADD SWAP1 DUP2 MSTORE PUSH1 0x20 ADD PUSH1 0x0 KECCAK256 PUSH1 0x0 DUP3 ADD MLOAD DUP2 PUSH1 0x0 ADD PUSH1 0x0 PUSH2 0x100 EXP DUP2 SLOAD DUP2 PUSH20 0xFFFFFFFFFFFFFFFFFFFFFFFFFFFFFFFFFFFFFFFF MUL NOT AND SWAP1 DUP4 PUSH20 0xFFFFFFFFFFFFFFFFFFFFFFFFFFFFFFFFFFFFFFFF AND MUL OR SWAP1 SSTORE POP PUSH1 0x20 DUP3 ADD MLOAD DUP2 PUSH1 0x1 ADD SWAP1 DUP1 MLOAD SWAP1 PUSH1 0x20 ADD SWAP1 PUSH2 0x1E5D SWAP3 SWAP2 SWAP1 PUSH2 0x24DE JUMP JUMPDEST POP PUSH1 0x40 DUP3 ADD MLOAD DUP2 PUSH1 0x2 ADD SWAP1 DUP1 MLOAD SWAP1 PUSH1 0x20 ADD SWAP1 PUSH2 0x1E7A SWAP3 SWAP2 SWAP1 PUSH2 0x24DE JUMP JUMPDEST POP PUSH1 0x60 DUP3 ADD MLOAD DUP2 PUSH1 0x3 ADD SWAP1 DUP1 MLOAD SWAP1 PUSH1 0x20 ADD SWAP1 PUSH2 0x1E97 SWAP3 SWAP2 SWAP1 PUSH2 0x24DE JUMP JUMPDEST POP PUSH1 0x80 DUP3 ADD MLOAD DUP2 PUSH1 0x4 ADD PUSH1 0x0 PUSH2 0x100 EXP DUP2 SLOAD DUP2 PUSH1 0xFF MUL NOT AND SWAP1 DUP4 ISZERO ISZERO MUL OR SWAP1 SSTORE POP PUSH1 0xA0 DUP3 ADD MLOAD DUP2 PUSH1 0x5 ADD PUSH1 0x0 DUP3 ADD MLOAD DUP2 PUSH1 0x0 ADD PUSH1 0x0 PUSH2 0x100 EXP DUP2 SLOAD DUP2 PUSH1 0xFF MUL NOT AND SWAP1 DUP4 ISZERO ISZERO MUL OR SWAP1 SSTORE POP PUSH1 0x20 DUP3 ADD MLOAD DUP2 PUSH1 0x0 ADD PUSH1 0x1 PUSH2 0x100 EXP DUP2 SLOAD DUP2 PUSH1 0xFF MUL NOT AND SWAP1 DUP4 ISZERO ISZERO MUL OR SWAP1 SSTORE POP PUSH1 0x40 DUP3 ADD MLOAD DUP2 PUSH1 0x0 ADD PUSH1 0x2 PUSH2 0x100 EXP DUP2 SLOAD DUP2 PUSH1 0xFF MUL NOT AND SWAP1 DUP4 ISZERO ISZERO MUL OR SWAP1 SSTORE POP PUSH1 0x60 DUP3 ADD MLOAD DUP2 PUSH1 0x0 ADD PUSH1 0x3 PUSH2 0x100 EXP DUP2 SLOAD DUP2 PUSH1 0xFF MUL NOT AND SWAP1 DUP4 ISZERO ISZERO MUL OR SWAP1 SSTORE POP POP POP SWAP1 POP POP POP POP POP POP POP POP POP JUMP JUMPDEST PUSH1 0x0 PUSH2 0x1F5C DUP3 PUSH1 0x3 PUSH2 0x1F77 JUMP JUMPDEST SWAP1 POP SWAP2 SWAP1 POP JUMP JUMPDEST PUSH1 0x0 PUSH2 0x1F70 DUP3 PUSH1 0x1 PUSH2 0x1F77 JUMP JUMPDEST SWAP1 POP SWAP2 SWAP1 POP JUMP JUMPDEST PUSH1 0x0 DUP1 PUSH1 0x1 PUSH1 0x0 DUP6 PUSH20 0xFFFFFFFFFFFFFFFFFFFFFFFFFFFFFFFFFFFFFFFF AND PUSH20 0xFFFFFFFFFFFFFFFFFFFFFFFFFFFFFFFFFFFFFFFF AND DUP2 MSTORE PUSH1 0x20 ADD SWAP1 DUP2 MSTORE PUSH1 0x20 ADD PUSH1 0x0 KECCAK256 PUSH1 0x40 MLOAD DUP1 PUSH1 0xC0 ADD PUSH1 0x40 MSTORE SWAP1 DUP2 PUSH1 0x0 DUP3 ADD PUSH1 0x0 SWAP1 SLOAD SWAP1 PUSH2 0x100 EXP SWAP1 DIV PUSH20 0xFFFFFFFFFFFFFFFFFFFFFFFFFFFFFFFFFFFFFFFF AND PUSH20 0xFFFFFFFFFFFFFFFFFFFFFFFFFFFFFFFFFFFFFFFF AND PUSH20 0xFFFFFFFFFFFFFFFFFFFFFFFFFFFFFFFFFFFFFFFF AND DUP2 MSTORE PUSH1 0x20 ADD PUSH1 0x1 DUP3 ADD DUP1 SLOAD PUSH2 0x202A SWAP1 PUSH2 0x28F4 JUMP JUMPDEST DUP1 PUSH1 0x1F ADD PUSH1 0x20 DUP1 SWAP2 DIV MUL PUSH1 0x20 ADD PUSH1 0x40 MLOAD SWAP1 DUP2 ADD PUSH1 0x40 MSTORE DUP1 SWAP3 SWAP2 SWAP1 DUP2 DUP2 MSTORE PUSH1 0x20 ADD DUP3 DUP1 SLOAD PUSH2 0x2056 SWAP1 PUSH2 0x28F4 JUMP JUMPDEST DUP1 ISZERO PUSH2 0x20A3 JUMPI DUP1 PUSH1 0x1F LT PUSH2 0x2078 JUMPI PUSH2 0x100 DUP1 DUP4 SLOAD DIV MUL DUP4 MSTORE SWAP2 PUSH1 0x20 ADD SWAP2 PUSH2 0x20A3 JUMP JUMPDEST DUP3 ADD SWAP2 SWAP1 PUSH1 0x0 MSTORE PUSH1 0x20 PUSH1 0x0 KECCAK256 SWAP1 JUMPDEST DUP2 SLOAD DUP2 MSTORE SWAP1 PUSH1 0x1 ADD SWAP1 PUSH1 0x20 ADD DUP1 DUP4 GT PUSH2 0x2086 JUMPI DUP3 SWAP1 SUB PUSH1 0x1F AND DUP3 ADD SWAP2 JUMPDEST POP POP POP POP POP DUP2 MSTORE PUSH1 0x20 ADD PUSH1 0x2 DUP3 ADD DUP1 SLOAD PUSH2 0x20BC SWAP1 PUSH2 0x28F4 JUMP JUMPDEST DUP1 PUSH1 0x1F ADD PUSH1 0x20 DUP1 SWAP2 DIV MUL PUSH1 0x20 ADD PUSH1 0x40 MLOAD SWAP1 DUP2 ADD PUSH1 0x40 MSTORE DUP1 SWAP3 SWAP2 SWAP1 DUP2 DUP2 MSTORE PUSH1 0x20 ADD DUP3 DUP1 SLOAD PUSH2 0x20E8 SWAP1 PUSH2 0x28F4 JUMP JUMPDEST DUP1 ISZERO PUSH2 0x2135 JUMPI DUP1 PUSH1 0x1F LT PUSH2 0x210A JUMPI PUSH2 0x100 DUP1 DUP4 SLOAD DIV MUL DUP4 MSTORE SWAP2 PUSH1 0x20 ADD SWAP2 PUSH2 0x2135 JUMP JUMPDEST DUP3 ADD SWAP2 SWAP1 PUSH1 0x0 MSTORE PUSH1 0x20 PUSH1 0x0 KECCAK256 SWAP1 JUMPDEST DUP2 SLOAD DUP2 MSTORE SWAP1 PUSH1 0x1 ADD SWAP1 PUSH1 0x20 ADD DUP1 DUP4 GT PUSH2 0x2118 JUMPI DUP3 SWAP1 SUB PUSH1 0x1F AND DUP3 ADD SWAP2 JUMPDEST POP POP POP POP POP DUP2 MSTORE PUSH1 0x20 ADD PUSH1 0x3 DUP3 ADD DUP1 SLOAD PUSH2 0x214E SWAP1 PUSH2 0x28F4 JUMP JUMPDEST DUP1 PUSH1 0x1F ADD PUSH1 0x20 DUP1 SWAP2 DIV MUL PUSH1 0x20 ADD PUSH1 0x40 MLOAD SWAP1 DUP2 ADD PUSH1 0x40 MSTORE DUP1 SWAP3 SWAP2 SWAP1 DUP2 DUP2 MSTORE PUSH1 0x20 ADD DUP3 DUP1 SLOAD PUSH2 0x217A SWAP1 PUSH2 0x28F4 JUMP JUMPDEST DUP1 ISZERO PUSH2 0x21C7 JUMPI DUP1 PUSH1 0x1F LT PUSH2 0x219C JUMPI PUSH2 0x100 DUP1 DUP4 SLOAD DIV MUL DUP4 MSTORE SWAP2 PUSH1 0x20 ADD SWAP2 PUSH2 0x21C7 JUMP JUMPDEST DUP3 ADD SWAP2 SWAP1 PUSH1 0x0 MSTORE PUSH1 0x20 PUSH1 0x0 KECCAK256 SWAP1 JUMPDEST DUP2 SLOAD DUP2 MSTORE SWAP1 PUSH1 0x1 ADD SWAP1 PUSH1 0x20 ADD DUP1 DUP4 GT PUSH2 0x21AA JUMPI DUP3 SWAP1 SUB PUSH1 0x1F AND DUP3 ADD SWAP2 JUMPDEST POP POP POP POP POP DUP2 MSTORE PUSH1 0x20 ADD PUSH1 0x4 DUP3 ADD PUSH1 0x0 SWAP1 SLOAD SWAP1 PUSH2 0x100 EXP SWAP1 DIV PUSH1 0xFF AND ISZERO ISZERO ISZERO ISZERO DUP2 MSTORE PUSH1 0x20 ADD PUSH1 0x5 DUP3 ADD PUSH1 0x40 MLOAD DUP1 PUSH1 0x80 ADD PUSH1 0x40 MSTORE SWAP1 DUP2 PUSH1 0x0 DUP3 ADD PUSH1 0x0 SWAP1 SLOAD SWAP1 PUSH2 0x100 EXP SWAP1 DIV PUSH1 0xFF AND ISZERO ISZERO ISZERO ISZERO DUP2 MSTORE PUSH1 0x20 ADD PUSH1 0x0 DUP3 ADD PUSH1 0x1 SWAP1 SLOAD SWAP1 PUSH2 0x100 EXP SWAP1 DIV PUSH1 0xFF AND ISZERO ISZERO ISZERO ISZERO DUP2 MSTORE PUSH1 0x20 ADD PUSH1 0x0 DUP3 ADD PUSH1 0x2 SWAP1 SLOAD SWAP1 PUSH2 0x100 EXP SWAP1 DIV PUSH1 0xFF AND ISZERO ISZERO ISZERO ISZERO DUP2 MSTORE PUSH1 0x20 ADD PUSH1 0x0 DUP3 ADD PUSH1 0x3 SWAP1 SLOAD SWAP1 PUSH2 0x100 EXP SWAP1 DIV PUSH1 0xFF AND ISZERO ISZERO ISZERO ISZERO DUP2 MSTORE POP POP DUP2 MSTORE POP POP SWAP1 POP PUSH1 0x0 DUP2 PUSH1 0xA0 ADD MLOAD SWAP1 POP PUSH1 0x0 PUSH1 0x3 DUP2 GT ISZERO PUSH2 0x22B0 JUMPI PUSH32 0x4E487B7100000000000000000000000000000000000000000000000000000000 PUSH1 0x0 MSTORE PUSH1 0x21 PUSH1 0x4 MSTORE PUSH1 0x24 PUSH1 0x0 REVERT JUMPDEST DUP5 PUSH1 0x3 DUP2 GT ISZERO PUSH2 0x22E9 JUMPI PUSH32 0x4E487B7100000000000000000000000000000000000000000000000000000000 PUSH1 0x0 MSTORE PUSH1 0x21 PUSH1 0x4 MSTORE PUSH1 0x24 PUSH1 0x0 REVERT JUMPDEST EQ ISZERO PUSH2 0x22FD JUMPI DUP1 PUSH1 0x0 ADD MLOAD SWAP3 POP POP POP PUSH2 0x2498 JUMP JUMPDEST PUSH1 0x1 PUSH1 0x3 DUP2 GT ISZERO PUSH2 0x2337 JUMPI PUSH32 0x4E487B7100000000000000000000000000000000000000000000000000000000 PUSH1 0x0 MSTORE PUSH1 0x21 PUSH1 0x4 MSTORE PUSH1 0x24 PUSH1 0x0 REVERT JUMPDEST DUP5 PUSH1 0x3 DUP2 GT ISZERO PUSH2 0x2370 JUMPI PUSH32 0x4E487B7100000000000000000000000000000000000000000000000000000000 PUSH1 0x0 MSTORE PUSH1 0x21 PUSH1 0x4 MSTORE PUSH1 0x24 PUSH1 0x0 REVERT JUMPDEST EQ ISZERO PUSH2 0x2384 JUMPI DUP1 PUSH1 0x20 ADD MLOAD SWAP3 POP POP POP PUSH2 0x2498 JUMP JUMPDEST PUSH1 0x2 PUSH1 0x3 DUP2 GT ISZERO PUSH2 0x23BE JUMPI PUSH32 0x4E487B7100000000000000000000000000000000000000000000000000000000 PUSH1 0x0 MSTORE PUSH1 0x21 PUSH1 0x4 MSTORE PUSH1 0x24 PUSH1 0x0 REVERT JUMPDEST DUP5 PUSH1 0x3 DUP2 GT ISZERO PUSH2 0x23F7 JUMPI PUSH32 0x4E487B7100000000000000000000000000000000000000000000000000000000 PUSH1 0x0 MSTORE PUSH1 0x21 PUSH1 0x4 MSTORE PUSH1 0x24 PUSH1 0x0 REVERT JUMPDEST EQ ISZERO PUSH2 0x240B JUMPI DUP1 PUSH1 0x40 ADD MLOAD SWAP3 POP POP POP PUSH2 0x2498 JUMP JUMPDEST PUSH1 0x3 DUP1 DUP2 GT ISZERO PUSH2 0x2444 JUMPI PUSH32 0x4E487B7100000000000000000000000000000000000000000000000000000000 PUSH1 0x0 MSTORE PUSH1 0x21 PUSH1 0x4 MSTORE PUSH1 0x24 PUSH1 0x0 REVERT JUMPDEST DUP5 PUSH1 0x3 DUP2 GT ISZERO PUSH2 0x247D JUMPI PUSH32 0x4E487B7100000000000000000000000000000000000000000000000000000000 PUSH1 0x0 MSTORE PUSH1 0x21 PUSH1 0x4 MSTORE PUSH1 0x24 PUSH1 0x0 REVERT JUMPDEST EQ ISZERO PUSH2 0x2491 JUMPI DUP1 PUSH1 0x60 ADD MLOAD SWAP3 POP POP POP PUSH2 0x2498 JUMP JUMPDEST PUSH1 0x0 SWAP3 POP POP POP JUMPDEST SWAP3 SWAP2 POP POP JUMP JUMPDEST POP DUP1 SLOAD PUSH2 0x24AA SWAP1 PUSH2 0x28F4 JUMP JUMPDEST PUSH1 0x0 DUP3 SSTORE DUP1 PUSH1 0x1F LT PUSH2 0x24BC JUMPI POP PUSH2 0x24DB JUMP JUMPDEST PUSH1 0x1F ADD PUSH1 0x20 SWAP1 DIV SWAP1 PUSH1 0x0 MSTORE PUSH1 0x20 PUSH1 0x0 KECCAK256 SWAP1 DUP2 ADD SWAP1 PUSH2 0x24DA SWAP2 SWAP1 PUSH2 0x2564 JUMP JUMPDEST JUMPDEST POP JUMP JUMPDEST DUP3 DUP1 SLOAD PUSH2 0x24EA SWAP1 PUSH2 0x28F4 JUMP JUMPDEST SWAP1 PUSH1 0x0 MSTORE PUSH1 0x20 PUSH1 0x0 KECCAK256 SWAP1 PUSH1 0x1F ADD PUSH1 0x20 SWAP1 DIV DUP2 ADD SWAP3 DUP3 PUSH2 0x250C JUMPI PUSH1 0x0 DUP6 SSTORE PUSH2 0x2553 JUMP JUMPDEST DUP3 PUSH1 0x1F LT PUSH2 0x2525 JUMPI DUP1 MLOAD PUSH1 0xFF NOT AND DUP4 DUP1 ADD OR DUP6 SSTORE PUSH2 0x2553 JUMP JUMPDEST DUP3 DUP1 ADD PUSH1 0x1 ADD DUP6 SSTORE DUP3 ISZERO PUSH2 0x2553 JUMPI SWAP2 DUP3 ADD JUMPDEST DUP3 DUP2 GT ISZERO PUSH2 0x2552 JUMPI DUP3 MLOAD DUP3 SSTORE SWAP2 PUSH1 0x20 ADD SWAP2 SWAP1 PUSH1 0x1 ADD SWAP1 PUSH2 0x2537 JUMP JUMPDEST JUMPDEST POP SWAP1 POP PUSH2 0x2560 SWAP2 SWAP1 PUSH2 0x2564 JUMP JUMPDEST POP SWAP1 JUMP JUMPDEST JUMPDEST DUP1 DUP3 GT ISZERO PUSH2 0x257D JUMPI PUSH1 0x0 DUP2 PUSH1 0x0 SWAP1 SSTORE POP PUSH1 0x1 ADD PUSH2 0x2565 JUMP JUMPDEST POP SWAP1 JUMP JUMPDEST PUSH1 0x0 PUSH2 0x2594 PUSH2 0x258F DUP5 PUSH2 0x2865 JUMP JUMPDEST PUSH2 0x2840 JUMP JUMPDEST SWAP1 POP DUP3 DUP2 MSTORE PUSH1 0x20 DUP2 ADD DUP5 DUP5 DUP5 ADD GT ISZERO PUSH2 0x25AC JUMPI PUSH1 0x0 DUP1 REVERT JUMPDEST PUSH2 0x25B7 DUP5 DUP3 DUP6 PUSH2 0x28E5 JUMP JUMPDEST POP SWAP4 SWAP3 POP POP POP JUMP JUMPDEST PUSH1 0x0 DUP2 CALLDATALOAD SWAP1 POP PUSH2 0x25CE DUP2 PUSH2 0x2A67 JUMP JUMPDEST SWAP3 SWAP2 POP POP JUMP JUMPDEST PUSH1 0x0 DUP2 CALLDATALOAD SWAP1 POP PUSH2 0x25E3 DUP2 PUSH2 0x2A7E JUMP JUMPDEST SWAP3 SWAP2 POP POP JUMP JUMPDEST PUSH1 0x0 DUP3 PUSH1 0x1F DUP4 ADD SLT PUSH2 0x25FA JUMPI PUSH1 0x0 DUP1 REVERT JUMPDEST DUP2 CALLDATALOAD PUSH2 0x260A DUP5 DUP3 PUSH1 0x20 DUP7 ADD PUSH2 0x2581 JUMP JUMPDEST SWAP2 POP POP SWAP3 SWAP2 POP POP JUMP JUMPDEST PUSH1 0x0 PUSH1 0x20 DUP3 DUP5 SUB SLT ISZERO PUSH2 0x2625 JUMPI PUSH1 0x0 DUP1 REVERT JUMPDEST PUSH1 0x0 PUSH2 0x2633 DUP5 DUP3 DUP6 ADD PUSH2 0x25BF JUMP JUMPDEST SWAP2 POP POP SWAP3 SWAP2 POP POP JUMP JUMPDEST PUSH1 0x0 DUP1 PUSH1 0x40 DUP4 DUP6 SUB SLT ISZERO PUSH2 0x264F JUMPI PUSH1 0x0 DUP1 REVERT JUMPDEST PUSH1 0x0 PUSH2 0x265D DUP6 DUP3 DUP7 ADD PUSH2 0x25BF JUMP JUMPDEST SWAP3 POP POP PUSH1 0x20 PUSH2 0x266E DUP6 DUP3 DUP7 ADD PUSH2 0x25D4 JUMP JUMPDEST SWAP2 POP POP SWAP3 POP SWAP3 SWAP1 POP JUMP JUMPDEST PUSH1 0x0 DUP1 PUSH1 0x0 DUP1 PUSH1 0x80 DUP6 DUP8 SUB SLT ISZERO PUSH2 0x268E JUMPI PUSH1 0x0 DUP1 REVERT JUMPDEST PUSH1 0x0 PUSH2 0x269C DUP8 DUP3 DUP9 ADD PUSH2 0x25BF JUMP JUMPDEST SWAP5 POP POP PUSH1 0x20 DUP6 ADD CALLDATALOAD PUSH8 0xFFFFFFFFFFFFFFFF DUP2 GT ISZERO PUSH2 0x26B9 JUMPI PUSH1 0x0 DUP1 REVERT JUMPDEST PUSH2 0x26C5 DUP8 DUP3 DUP9 ADD PUSH2 0x25E9 JUMP JUMPDEST SWAP4 POP POP PUSH1 0x40 DUP6 ADD CALLDATALOAD PUSH8 0xFFFFFFFFFFFFFFFF DUP2 GT ISZERO PUSH2 0x26E2 JUMPI PUSH1 0x0 DUP1 REVERT JUMPDEST PUSH2 0x26EE DUP8 DUP3 DUP9 ADD PUSH2 0x25E9 JUMP JUMPDEST SWAP3 POP POP PUSH1 0x60 DUP6 ADD CALLDATALOAD PUSH8 0xFFFFFFFFFFFFFFFF DUP2 GT ISZERO PUSH2 0x270B JUMPI PUSH1 0x0 DUP1 REVERT JUMPDEST PUSH2 0x2717 DUP8 DUP3 DUP9 ADD PUSH2 0x25E9 JUMP JUMPDEST SWAP2 POP POP SWAP3 SWAP6 SWAP2 SWAP5 POP SWAP3 POP JUMP JUMPDEST PUSH2 0x272C DUP2 PUSH2 0x28A7 JUMP JUMPDEST DUP3 MSTORE POP POP JUMP JUMPDEST PUSH2 0x273B DUP2 PUSH2 0x28B9 JUMP JUMPDEST DUP3 MSTORE POP POP JUMP JUMPDEST PUSH1 0x0 PUSH2 0x274E PUSH1 0x22 DUP4 PUSH2 0x2896 JUMP JUMPDEST SWAP2 POP PUSH2 0x2759 DUP3 PUSH2 0x29C6 JUMP JUMPDEST PUSH1 0x40 DUP3 ADD SWAP1 POP SWAP2 SWAP1 POP JUMP JUMPDEST PUSH1 0x0 PUSH2 0x2771 PUSH1 0x15 DUP4 PUSH2 0x2896 JUMP JUMPDEST SWAP2 POP PUSH2 0x277C DUP3 PUSH2 0x2A15 JUMP JUMPDEST PUSH1 0x20 DUP3 ADD SWAP1 POP SWAP2 SWAP1 POP JUMP JUMPDEST PUSH1 0x0 PUSH2 0x2794 PUSH1 0x16 DUP4 PUSH2 0x2896 JUMP JUMPDEST SWAP2 POP PUSH2 0x279F DUP3 PUSH2 0x2A3E JUMP JUMPDEST PUSH1 0x20 DUP3 ADD SWAP1 POP SWAP2 SWAP1 POP JUMP JUMPDEST PUSH1 0x0 PUSH1 0x20 DUP3 ADD SWAP1 POP PUSH2 0x27BF PUSH1 0x0 DUP4 ADD DUP5 PUSH2 0x2723 JUMP JUMPDEST SWAP3 SWAP2 POP POP JUMP JUMPDEST PUSH1 0x0 PUSH1 0x20 DUP3 ADD SWAP1 POP PUSH2 0x27DA PUSH1 0x0 DUP4 ADD DUP5 PUSH2 0x2732 JUMP JUMPDEST SWAP3 SWAP2 POP POP JUMP JUMPDEST PUSH1 0x0 PUSH1 0x20 DUP3 ADD SWAP1 POP DUP2 DUP2 SUB PUSH1 0x0 DUP4 ADD MSTORE PUSH2 0x27F9 DUP2 PUSH2 0x2741 JUMP JUMPDEST SWAP1 POP SWAP2 SWAP1 POP JUMP JUMPDEST PUSH1 0x0 PUSH1 0x20 DUP3 ADD SWAP1 POP DUP2 DUP2 SUB PUSH1 0x0 DUP4 ADD MSTORE PUSH2 0x2819 DUP2 PUSH2 0x2764 JUMP JUMPDEST SWAP1 POP SWAP2 SWAP1 POP JUMP JUMPDEST PUSH1 0x0 PUSH1 0x20 DUP3 ADD SWAP1 POP DUP2 DUP2 SUB PUSH1 0x0 DUP4 ADD MSTORE PUSH2 0x2839 DUP2 PUSH2 0x2787 JUMP JUMPDEST SWAP1 POP SWAP2 SWAP1 POP JUMP JUMPDEST PUSH1 0x0 PUSH2 0x284A PUSH2 0x285B JUMP JUMPDEST SWAP1 POP PUSH2 0x2856 DUP3 DUP3 PUSH2 0x2926 JUMP JUMPDEST SWAP2 SWAP1 POP JUMP JUMPDEST PUSH1 0x0 PUSH1 0x40 MLOAD SWAP1 POP SWAP1 JUMP JUMPDEST PUSH1 0x0 PUSH8 0xFFFFFFFFFFFFFFFF DUP3 GT ISZERO PUSH2 0x2880 JUMPI PUSH2 0x287F PUSH2 0x2986 JUMP JUMPDEST JUMPDEST PUSH2 0x2889 DUP3 PUSH2 0x29B5 JUMP JUMPDEST SWAP1 POP PUSH1 0x20 DUP2 ADD SWAP1 POP SWAP2 SWAP1 POP JUMP JUMPDEST PUSH1 0x0 DUP3 DUP3 MSTORE PUSH1 0x20 DUP3 ADD SWAP1 POP SWAP3 SWAP2 POP POP JUMP JUMPDEST PUSH1 0x0 PUSH2 0x28B2 DUP3 PUSH2 0x28C5 JUMP JUMPDEST SWAP1 POP SWAP2 SWAP1 POP JUMP JUMPDEST PUSH1 0x0 DUP2 ISZERO ISZERO SWAP1 POP SWAP2 SWAP1 POP JUMP JUMPDEST PUSH1 0x0 PUSH20 0xFFFFFFFFFFFFFFFFFFFFFFFFFFFFFFFFFFFFFFFF DUP3 AND SWAP1 POP SWAP2 SWAP1 POP JUMP JUMPDEST DUP3 DUP2 DUP4 CALLDATACOPY PUSH1 0x0 DUP4 DUP4 ADD MSTORE POP POP POP JUMP JUMPDEST PUSH1 0x0 PUSH1 0x2 DUP3 DIV SWAP1 POP PUSH1 0x1 DUP3 AND DUP1 PUSH2 0x290C JUMPI PUSH1 0x7F DUP3 AND SWAP2 POP JUMPDEST PUSH1 0x20 DUP3 LT DUP2 EQ ISZERO PUSH2 0x2920 JUMPI PUSH2 0x291F PUSH2 0x2957 JUMP JUMPDEST JUMPDEST POP SWAP2 SWAP1 POP JUMP JUMPDEST PUSH2 0x292F DUP3 PUSH2 0x29B5 JUMP JUMPDEST DUP2 ADD DUP2 DUP2 LT PUSH8 0xFFFFFFFFFFFFFFFF DUP3 GT OR ISZERO PUSH2 0x294E JUMPI PUSH2 0x294D PUSH2 0x2986 JUMP JUMPDEST JUMPDEST DUP1 PUSH1 0x40 MSTORE POP POP POP JUMP JUMPDEST PUSH32 0x4E487B7100000000000000000000000000000000000000000000000000000000 PUSH1 0x0 MSTORE PUSH1 0x22 PUSH1 0x4 MSTORE PUSH1 0x24 PUSH1 0x0 REVERT JUMPDEST PUSH32 0x4E487B7100000000000000000000000000000000000000000000000000000000 PUSH1 0x0 MSTORE PUSH1 0x41 PUSH1 0x4 MSTORE PUSH1 0x24 PUSH1 0x0 REVERT JUMPDEST PUSH1 0x0 PUSH1 0x1F NOT PUSH1 0x1F DUP4 ADD AND SWAP1 POP SWAP2 SWAP1 POP JUMP JUMPDEST PUSH32 0x4F6E6C79206F776E65722063616E2063616C6C20746869732066756E6374696F PUSH1 0x0 DUP3 ADD MSTORE PUSH32 0x6E2E000000000000000000000000000000000000000000000000000000000000 PUSH1 0x20 DUP3 ADD MSTORE POP JUMP JUMPDEST PUSH32 0x4163636F756E7420646F65736E27742065786973740000000000000000000000 PUSH1 0x0 DUP3 ADD MSTORE POP JUMP JUMPDEST PUSH32 0x4163636F756E7420616C72656164792065786973747300000000000000000000 PUSH1 0x0 DUP3 ADD MSTORE POP JUMP JUMPDEST PUSH2 0x2A70 DUP2 PUSH2 0x28A7 JUMP JUMPDEST DUP2 EQ PUSH2 0x2A7B JUMPI PUSH1 0x0 DUP1 REVERT JUMPDEST POP JUMP JUMPDEST PUSH1 0x4 DUP2 LT PUSH2 0x2A8B JUMPI PUSH1 0x0 DUP1 REVERT JUMPDEST POP JUMP INVALID LOG2 PUSH5 0x6970667358 0x22 SLT KECCAK256 0xDF AND DUP2 0xAB COINBASE 0xED PUSH32 0x5EA3BB83E187829AF6EEAB0FD9BDFF39BD89BB51A4EF15A9CE64736F6C634300 ADDMOD ADD STOP CALLER "
				},
				"gasEstimates": {
					"creation": {
						"codeDepositCost": "2189600",
						"executionCost": "infinite",
						"totalCost": "infinite"
					},
					"external": {
						"assignRole(address,uint8)": "infinite",
						"burnAccount(address)": "infinite",
						"createAccount(address,string,string,string)": "infinite",
						"hasCouncilMemberRole(address)": "infinite",
						"hasGuestRole(address)": "infinite",
						"hasLeaderRole(address)": "infinite",
						"hasMemberRole(address)": "infinite",
						"hasRightToCreateReferendum(address)": "infinite",
						"hasRightToSupport(address)": "infinite",
						"hasRightToVote(address)": "infinite",
						"makeAccountActive(address)": "47162",
						"makeAccountPassive(address)": "43386",
						"owner()": "1300",
						"removeRole(address,uint8)": "infinite"
					},
					"internal": {
						"assignCouncilMember(address)": "infinite",
						"assignGuest(address)": "infinite",
						"assignLeader(address)": "infinite",
						"assignMember(address)": "infinite",
						"hasRole(address,enum AccountManagement.Role)": "infinite",
						"removeCouncilMember(address)": "infinite",
						"removeGuest(address)": "infinite",
						"removeLeader(address)": "infinite",
						"removeMember(address)": "infinite"
					}
				},
				"methodIdentifiers": {
					"assignRole(address,uint8)": "630a195b",
					"burnAccount(address)": "d3a5059a",
					"createAccount(address,string,string,string)": "dee94b4a",
					"hasCouncilMemberRole(address)": "fa4d7aae",
					"hasGuestRole(address)": "e8621e59",
					"hasLeaderRole(address)": "297027d5",
					"hasMemberRole(address)": "056909b7",
					"hasRightToCreateReferendum(address)": "01eb0857",
					"hasRightToSupport(address)": "c2b7d948",
					"hasRightToVote(address)": "65c93769",
					"makeAccountActive(address)": "a1aea04a",
					"makeAccountPassive(address)": "49587281",
					"owner()": "8da5cb5b",
					"removeRole(address,uint8)": "b74866fb"
				}
			},
			"storageLayout": {
				"storage": [
					{
						"astId": 31,
						"contract": "OnDemo/contracts/AccountManagement.sol:AccountManagement",
						"label": "owner",
						"offset": 0,
						"slot": "0",
						"type": "t_address"
					},
					{
						"astId": 36,
						"contract": "OnDemo/contracts/AccountManagement.sol:AccountManagement",
						"label": "users",
						"offset": 0,
						"slot": "1",
						"type": "t_mapping(t_address,t_struct(User)20_storage)"
					},
					{
						"astId": 40,
						"contract": "OnDemo/contracts/AccountManagement.sol:AccountManagement",
						"label": "activeMembers",
						"offset": 0,
						"slot": "2",
						"type": "t_mapping(t_address,t_bool)"
					}
				],
				"types": {
					"t_address": {
						"encoding": "inplace",
						"label": "address",
						"numberOfBytes": "20"
					},
					"t_bool": {
						"encoding": "inplace",
						"label": "bool",
						"numberOfBytes": "1"
					},
					"t_mapping(t_address,t_bool)": {
						"encoding": "mapping",
						"key": "t_address",
						"label": "mapping(address => bool)",
						"numberOfBytes": "32",
						"value": "t_bool"
					},
					"t_mapping(t_address,t_struct(User)20_storage)": {
						"encoding": "mapping",
						"key": "t_address",
						"label": "mapping(address => struct AccountManagement.User)",
						"numberOfBytes": "32",
						"value": "t_struct(User)20_storage"
					},
					"t_string_storage": {
						"encoding": "bytes",
						"label": "string",
						"numberOfBytes": "32"
					},
					"t_struct(RoleMap)29_storage": {
						"encoding": "inplace",
						"label": "struct AccountManagement.RoleMap",
						"members": [
							{
								"astId": 22,
								"contract": "OnDemo/contracts/AccountManagement.sol:AccountManagement",
								"label": "isLeader",
								"offset": 0,
								"slot": "0",
								"type": "t_bool"
							},
							{
								"astId": 24,
								"contract": "OnDemo/contracts/AccountManagement.sol:AccountManagement",
								"label": "isCouncilMember",
								"offset": 1,
								"slot": "0",
								"type": "t_bool"
							},
							{
								"astId": 26,
								"contract": "OnDemo/contracts/AccountManagement.sol:AccountManagement",
								"label": "isMember",
								"offset": 2,
								"slot": "0",
								"type": "t_bool"
							},
							{
								"astId": 28,
								"contract": "OnDemo/contracts/AccountManagement.sol:AccountManagement",
								"label": "isGuest",
								"offset": 3,
								"slot": "0",
								"type": "t_bool"
							}
						],
						"numberOfBytes": "32"
					},
					"t_struct(User)20_storage": {
						"encoding": "inplace",
						"label": "struct AccountManagement.User",
						"members": [
							{
								"astId": 8,
								"contract": "OnDemo/contracts/AccountManagement.sol:AccountManagement",
								"label": "userAddress",
								"offset": 0,
								"slot": "0",
								"type": "t_address"
							},
							{
								"astId": 10,
								"contract": "OnDemo/contracts/AccountManagement.sol:AccountManagement",
								"label": "firstName",
								"offset": 0,
								"slot": "1",
								"type": "t_string_storage"
							},
							{
								"astId": 12,
								"contract": "OnDemo/contracts/AccountManagement.sol:AccountManagement",
								"label": "secondName",
								"offset": 0,
								"slot": "2",
								"type": "t_string_storage"
							},
							{
								"astId": 14,
								"contract": "OnDemo/contracts/AccountManagement.sol:AccountManagement",
								"label": "mailAdress",
								"offset": 0,
								"slot": "3",
								"type": "t_string_storage"
							},
							{
								"astId": 16,
								"contract": "OnDemo/contracts/AccountManagement.sol:AccountManagement",
								"label": "isActive",
								"offset": 0,
								"slot": "4",
								"type": "t_bool"
							},
							{
								"astId": 19,
								"contract": "OnDemo/contracts/AccountManagement.sol:AccountManagement",
								"label": "roleMap",
								"offset": 0,
								"slot": "5",
								"type": "t_struct(RoleMap)29_storage"
							}
						],
						"numberOfBytes": "192"
					}
				}
			},
			"userdoc": {
				"kind": "user",
				"methods": {},
				"version": 1
			}
		}
	}
}