{
	"OnDemo/contracts/Utils.sol": {
		"Utils": {
			"abi": [
				{
					"inputs": [
						{
							"internalType": "bytes1",
							"name": "b",
							"type": "bytes1"
						}
					],
					"name": "char",
					"outputs": [
						{
							"internalType": "bytes1",
							"name": "c",
							"type": "bytes1"
						}
					],
					"stateMutability": "pure",
					"type": "function"
				},
				{
					"inputs": [
						{
							"internalType": "uint256",
							"name": "numerator",
							"type": "uint256"
						},
						{
							"internalType": "uint256",
							"name": "denominator",
							"type": "uint256"
						}
					],
					"name": "divideAndRoundUp",
					"outputs": [
						{
							"internalType": "uint256",
							"name": "",
							"type": "uint256"
						}
					],
					"stateMutability": "pure",
					"type": "function"
				},
				{
					"inputs": [],
					"name": "generateGUID",
					"outputs": [
						{
							"internalType": "bytes32",
							"name": "",
							"type": "bytes32"
						}
					],
					"stateMutability": "view",
					"type": "function"
				},
				{
					"inputs": [
						{
							"internalType": "address",
							"name": "x",
							"type": "address"
						}
					],
					"name": "toAsciiString",
					"outputs": [
						{
							"internalType": "string",
							"name": "",
							"type": "string"
						}
					],
					"stateMutability": "view",
					"type": "function"
				}
			],
			"devdoc": {
				"kind": "dev",
				"methods": {},
				"version": 1
			},
			"evm": {
				"assembly": "    /* \"OnDemo/contracts/Utils.sol\":66:1472  contract Utils {... */\n  mstore(0x40, 0x80)\n  callvalue\n  dup1\n  iszero\n  tag_1\n  jumpi\n  0x00\n  dup1\n  revert\ntag_1:\n  pop\n  dataSize(sub_0)\n  dup1\n  dataOffset(sub_0)\n  0x00\n  codecopy\n  0x00\n  return\nstop\n\nsub_0: assembly {\n        /* \"OnDemo/contracts/Utils.sol\":66:1472  contract Utils {... */\n      mstore(0x40, 0x80)\n      callvalue\n      dup1\n      iszero\n      tag_1\n      jumpi\n      0x00\n      dup1\n      revert\n    tag_1:\n      pop\n      jumpi(tag_2, lt(calldatasize, 0x04))\n      shr(0xe0, calldataload(0x00))\n      dup1\n      0x2c6e7598\n      eq\n      tag_3\n      jumpi\n      dup1\n      0x69f9ad2f\n      eq\n      tag_4\n      jumpi\n      dup1\n      0xefc6c18c\n      eq\n      tag_5\n      jumpi\n      dup1\n      0xfd3bad52\n      eq\n      tag_6\n      jumpi\n    tag_2:\n      0x00\n      dup1\n      revert\n        /* \"OnDemo/contracts/Utils.sol\":224:697  function toAsciiString(address x) external view returns (string memory) {... */\n    tag_3:\n      tag_7\n      tag_8\n      calldatasize\n      0x04\n      tag_9\n      jump\t// in\n    tag_8:\n      tag_10\n      jump\t// in\n    tag_7:\n      mload(0x40)\n      tag_11\n      swap2\n      swap1\n      tag_12\n      jump\t// in\n    tag_11:\n      mload(0x40)\n      dup1\n      swap2\n      sub\n      swap1\n      return\n        /* \"OnDemo/contracts/Utils.sol\":705:928  function char(bytes1 b) external pure returns (bytes1 c) {... */\n    tag_4:\n      tag_13\n      tag_14\n      calldatasize\n      0x04\n      tag_15\n      jump\t// in\n    tag_14:\n      tag_16\n      jump\t// in\n    tag_13:\n      mload(0x40)\n      not(sub(shl(0xf8, 0x01), 0x01))\n        /* \"#utility.yul\":1448:1474   */\n      swap1\n      swap2\n      and\n        /* \"#utility.yul\":1430:1475   */\n      dup2\n      mstore\n        /* \"#utility.yul\":1418:1420   */\n      0x20\n        /* \"#utility.yul\":1403:1421   */\n      add\n        /* \"OnDemo/contracts/Utils.sol\":705:928  function char(bytes1 b) external pure returns (bytes1 c) {... */\n      tag_11\n        /* \"#utility.yul\":1286:1481   */\n      jump\n        /* \"OnDemo/contracts/Utils.sol\":936:1188  function generateGUID() external view returns (bytes32) {... */\n    tag_5:\n      tag_19\n      tag_20\n      jump\t// in\n    tag_19:\n      mload(0x40)\n        /* \"#utility.yul\":1632:1657   */\n      swap1\n      dup2\n      mstore\n        /* \"#utility.yul\":1620:1622   */\n      0x20\n        /* \"#utility.yul\":1605:1623   */\n      add\n        /* \"OnDemo/contracts/Utils.sol\":936:1188  function generateGUID() external view returns (bytes32) {... */\n      tag_11\n        /* \"#utility.yul\":1486:1663   */\n      jump\n        /* \"OnDemo/contracts/Utils.sol\":1196:1469  function divideAndRoundUp(uint numerator, uint denominator) external pure returns (uint256) {... */\n    tag_6:\n      tag_19\n      tag_24\n      calldatasize\n      0x04\n      tag_25\n      jump\t// in\n    tag_24:\n      tag_26\n      jump\t// in\n        /* \"OnDemo/contracts/Utils.sol\":224:697  function toAsciiString(address x) external view returns (string memory) {... */\n    tag_10:\n        /* \"OnDemo/contracts/Utils.sol\":324:337  new bytes(40) */\n      0x40\n      dup1\n      mload\n        /* \"OnDemo/contracts/Utils.sol\":334:336  40 */\n      0x28\n        /* \"OnDemo/contracts/Utils.sol\":324:337  new bytes(40) */\n      dup1\n      dup3\n      mstore\n        /* \"OnDemo/contracts/Utils.sol\":281:294  string memory */\n      0x60\n        /* \"OnDemo/contracts/Utils.sol\":324:337  new bytes(40) */\n      dup3\n      dup2\n      add\n      swap1\n      swap4\n      mstore\n        /* \"OnDemo/contracts/Utils.sol\":307:321  bytes memory s */\n      0x00\n      swap2\n        /* \"OnDemo/contracts/Utils.sol\":324:337  new bytes(40) */\n      swap1\n      0x20\n      dup3\n      add\n      dup2\n      dup1\n      calldatasize\n      dup4\n      calldatacopy\n      add\n      swap1\n      pop\n      pop\n        /* \"OnDemo/contracts/Utils.sol\":307:337  bytes memory s = new bytes(40) */\n      swap1\n      pop\n        /* \"OnDemo/contracts/Utils.sol\":353:359  uint i */\n      0x00\n        /* \"OnDemo/contracts/Utils.sol\":348:663  for (uint i = 0; i < 20; i++) {... */\n    tag_34:\n        /* \"OnDemo/contracts/Utils.sol\":369:371  20 */\n      0x14\n        /* \"OnDemo/contracts/Utils.sol\":365:366  i */\n      dup2\n        /* \"OnDemo/contracts/Utils.sol\":365:371  i < 20 */\n      lt\n        /* \"OnDemo/contracts/Utils.sol\":348:663  for (uint i = 0; i < 20; i++) {... */\n      iszero\n      tag_35\n      jumpi\n        /* \"OnDemo/contracts/Utils.sol\":393:401  bytes1 b */\n      0x00\n        /* \"OnDemo/contracts/Utils.sol\":444:450  19 - i */\n      tag_37\n        /* \"OnDemo/contracts/Utils.sol\":449:450  i */\n      dup3\n        /* \"OnDemo/contracts/Utils.sol\":444:446  19 */\n      0x13\n        /* \"OnDemo/contracts/Utils.sol\":444:450  19 - i */\n      tag_38\n      jump\t// in\n    tag_37:\n        /* \"OnDemo/contracts/Utils.sol\":441:451  8*(19 - i) */\n      tag_39\n      swap1\n        /* \"OnDemo/contracts/Utils.sol\":441:442  8 */\n      0x08\n        /* \"OnDemo/contracts/Utils.sol\":441:451  8*(19 - i) */\n      tag_40\n      jump\t// in\n    tag_39:\n        /* \"OnDemo/contracts/Utils.sol\":437:452  2**(8*(19 - i)) */\n      tag_41\n      swap1\n        /* \"OnDemo/contracts/Utils.sol\":437:438  2 */\n      0x02\n        /* \"OnDemo/contracts/Utils.sol\":437:452  2**(8*(19 - i)) */\n      tag_42\n      jump\t// in\n    tag_41:\n        /* \"OnDemo/contracts/Utils.sol\":417:453  uint(uint160(x)) / (2**(8*(19 - i))) */\n      tag_43\n      swap1\n      sub(shl(0xa0, 0x01), 0x01)\n        /* \"OnDemo/contracts/Utils.sol\":417:433  uint(uint160(x)) */\n      dup8\n      and\n        /* \"OnDemo/contracts/Utils.sol\":417:453  uint(uint160(x)) / (2**(8*(19 - i))) */\n      tag_44\n      jump\t// in\n    tag_43:\n        /* \"OnDemo/contracts/Utils.sol\":404:455  bytes1(uint8(uint(uint160(x)) / (2**(8*(19 - i))))) */\n      0xf8\n      shl\n        /* \"OnDemo/contracts/Utils.sol\":393:455  bytes1 b = bytes1(uint8(uint(uint160(x)) / (2**(8*(19 - i))))) */\n      swap1\n      pop\n        /* \"OnDemo/contracts/Utils.sol\":470:479  bytes1 hi */\n      0x00\n        /* \"OnDemo/contracts/Utils.sol\":500:502  16 */\n      0x10\n        /* \"OnDemo/contracts/Utils.sol\":495:496  b */\n      dup3\n        /* \"OnDemo/contracts/Utils.sol\":489:497  uint8(b) */\n      0xf8\n      shr\n        /* \"OnDemo/contracts/Utils.sol\":489:502  uint8(b) / 16 */\n      tag_45\n      swap2\n      swap1\n      tag_46\n      jump\t// in\n    tag_45:\n        /* \"OnDemo/contracts/Utils.sol\":482:503  bytes1(uint8(b) / 16) */\n      0xf8\n      shl\n        /* \"OnDemo/contracts/Utils.sol\":470:503  bytes1 hi = bytes1(uint8(b) / 16) */\n      swap1\n      pop\n        /* \"OnDemo/contracts/Utils.sol\":518:527  bytes1 lo */\n      0x00\n        /* \"OnDemo/contracts/Utils.sol\":559:561  hi */\n      dup2\n        /* \"OnDemo/contracts/Utils.sol\":553:562  uint8(hi) */\n      0xf8\n      shr\n        /* \"OnDemo/contracts/Utils.sol\":548:550  16 */\n      0x10\n        /* \"OnDemo/contracts/Utils.sol\":548:562  16 * uint8(hi) */\n      tag_47\n      swap2\n      swap1\n      tag_48\n      jump\t// in\n    tag_47:\n        /* \"OnDemo/contracts/Utils.sol\":543:544  b */\n      dup4\n        /* \"OnDemo/contracts/Utils.sol\":537:545  uint8(b) */\n      0xf8\n      shr\n        /* \"OnDemo/contracts/Utils.sol\":537:562  uint8(b) - 16 * uint8(hi) */\n      tag_49\n      swap2\n      swap1\n      tag_50\n      jump\t// in\n    tag_49:\n        /* \"OnDemo/contracts/Utils.sol\":587:600  this.char(hi) */\n      mload(0x40)\n      shl(0xe0, 0x69f9ad2f)\n      dup2\n      mstore\n      not(sub(shl(0xf8, 0x01), 0x01))\n        /* \"#utility.yul\":1448:1474   */\n      dup5\n      and\n        /* \"OnDemo/contracts/Utils.sol\":587:600  this.char(hi) */\n      0x04\n      dup3\n      add\n        /* \"#utility.yul\":1430:1475   */\n      mstore\n        /* \"OnDemo/contracts/Utils.sol\":530:563  bytes1(uint8(b) - 16 * uint8(hi)) */\n      0xf8\n      swap2\n      swap1\n      swap2\n      shl\n      swap2\n      pop\n        /* \"OnDemo/contracts/Utils.sol\":587:591  this */\n      address\n      swap1\n        /* \"OnDemo/contracts/Utils.sol\":587:596  this.char */\n      0x69f9ad2f\n      swap1\n        /* \"#utility.yul\":1403:1421   */\n      0x24\n      add\n        /* \"OnDemo/contracts/Utils.sol\":587:600  this.char(hi) */\n      0x20\n      mload(0x40)\n      dup1\n      dup4\n      sub\n      dup2\n      dup7\n      gas\n      staticcall\n      iszero\n      dup1\n      iszero\n      tag_53\n      jumpi\n      returndatasize\n      0x00\n      dup1\n      returndatacopy\n      revert(0x00, returndatasize)\n    tag_53:\n      pop\n      pop\n      pop\n      pop\n      mload(0x40)\n      returndatasize\n      not(0x1f)\n      0x1f\n      dup3\n      add\n      and\n      dup3\n      add\n      dup1\n      0x40\n      mstore\n      pop\n      dup2\n      add\n      swap1\n      tag_54\n      swap2\n      swap1\n      tag_55\n      jump\t// in\n    tag_54:\n        /* \"OnDemo/contracts/Utils.sol\":578:579  s */\n      dup6\n        /* \"OnDemo/contracts/Utils.sol\":580:583  2*i */\n      tag_56\n        /* \"OnDemo/contracts/Utils.sol\":582:583  i */\n      dup7\n        /* \"OnDemo/contracts/Utils.sol\":580:581  2 */\n      0x02\n        /* \"OnDemo/contracts/Utils.sol\":580:583  2*i */\n      tag_40\n      jump\t// in\n    tag_56:\n        /* \"OnDemo/contracts/Utils.sol\":578:584  s[2*i] */\n      dup2\n      mload\n      dup2\n      lt\n      tag_58\n      jumpi\n      tag_58\n      tag_59\n      jump\t// in\n    tag_58:\n      0x20\n      add\n      add\n        /* \"OnDemo/contracts/Utils.sol\":578:600  s[2*i] = this.char(hi) */\n      swap1\n      not(sub(shl(0xf8, 0x01), 0x01))\n      and\n      swap1\n      dup2\n      0x00\n      byte\n      swap1\n      mstore8\n      pop\n        /* \"OnDemo/contracts/Utils.sol\":626:639  this.char(lo) */\n      mload(0x40)\n      shl(0xe0, 0x69f9ad2f)\n      dup2\n      mstore\n      not(sub(shl(0xf8, 0x01), 0x01))\n        /* \"#utility.yul\":1448:1474   */\n      dup3\n      and\n        /* \"OnDemo/contracts/Utils.sol\":626:639  this.char(lo) */\n      0x04\n      dup3\n      add\n        /* \"#utility.yul\":1430:1475   */\n      mstore\n        /* \"OnDemo/contracts/Utils.sol\":626:630  this */\n      address\n      swap1\n        /* \"OnDemo/contracts/Utils.sol\":626:635  this.char */\n      0x69f9ad2f\n      swap1\n        /* \"#utility.yul\":1403:1421   */\n      0x24\n      add\n        /* \"OnDemo/contracts/Utils.sol\":626:639  this.char(lo) */\n      0x20\n      mload(0x40)\n      dup1\n      dup4\n      sub\n      dup2\n      dup7\n      gas\n      staticcall\n      iszero\n      dup1\n      iszero\n      tag_62\n      jumpi\n      returndatasize\n      0x00\n      dup1\n      returndatacopy\n      revert(0x00, returndatasize)\n    tag_62:\n      pop\n      pop\n      pop\n      pop\n      mload(0x40)\n      returndatasize\n      not(0x1f)\n      0x1f\n      dup3\n      add\n      and\n      dup3\n      add\n      dup1\n      0x40\n      mstore\n      pop\n      dup2\n      add\n      swap1\n      tag_63\n      swap2\n      swap1\n      tag_55\n      jump\t// in\n    tag_63:\n        /* \"OnDemo/contracts/Utils.sol\":615:616  s */\n      dup6\n        /* \"OnDemo/contracts/Utils.sol\":617:620  2*i */\n      tag_64\n        /* \"OnDemo/contracts/Utils.sol\":619:620  i */\n      dup7\n        /* \"OnDemo/contracts/Utils.sol\":617:618  2 */\n      0x02\n        /* \"OnDemo/contracts/Utils.sol\":617:620  2*i */\n      tag_40\n      jump\t// in\n    tag_64:\n        /* \"OnDemo/contracts/Utils.sol\":617:622  2*i+1 */\n      tag_65\n      swap1\n        /* \"OnDemo/contracts/Utils.sol\":621:622  1 */\n      0x01\n        /* \"OnDemo/contracts/Utils.sol\":617:622  2*i+1 */\n      tag_66\n      jump\t// in\n    tag_65:\n        /* \"OnDemo/contracts/Utils.sol\":615:623  s[2*i+1] */\n      dup2\n      mload\n      dup2\n      lt\n      tag_68\n      jumpi\n      tag_68\n      tag_59\n      jump\t// in\n    tag_68:\n      0x20\n      add\n      add\n        /* \"OnDemo/contracts/Utils.sol\":615:639  s[2*i+1] = this.char(lo) */\n      swap1\n      not(sub(shl(0xf8, 0x01), 0x01))\n      and\n      swap1\n      dup2\n      0x00\n      byte\n      swap1\n      mstore8\n      pop\n        /* \"OnDemo/contracts/Utils.sol\":378:663  {... */\n      pop\n      pop\n      pop\n        /* \"OnDemo/contracts/Utils.sol\":373:376  i++ */\n      dup1\n      dup1\n      tag_69\n      swap1\n      tag_70\n      jump\t// in\n    tag_69:\n      swap2\n      pop\n      pop\n        /* \"OnDemo/contracts/Utils.sol\":348:663  for (uint i = 0; i < 20; i++) {... */\n      jump(tag_34)\n    tag_35:\n      pop\n        /* \"OnDemo/contracts/Utils.sol\":687:688  s */\n      swap3\n        /* \"OnDemo/contracts/Utils.sol\":224:697  function toAsciiString(address x) external view returns (string memory) {... */\n      swap2\n      pop\n      pop\n      jump\t// out\n        /* \"OnDemo/contracts/Utils.sol\":705:928  function char(bytes1 b) external pure returns (bytes1 c) {... */\n    tag_16:\n        /* \"OnDemo/contracts/Utils.sol\":752:760  bytes1 c */\n      0x00\n        /* \"OnDemo/contracts/Utils.sol\":788:790  10 */\n      0x0a\n        /* \"OnDemo/contracts/Utils.sol\":777:785  uint8(b) */\n      0xf8\n      dup4\n      swap1\n      shr\n        /* \"OnDemo/contracts/Utils.sol\":777:790  uint8(b) < 10 */\n      lt\n        /* \"OnDemo/contracts/Utils.sol\":773:921  if (uint8(b) < 10) {... */\n      iszero\n      tag_72\n      jumpi\n        /* \"OnDemo/contracts/Utils.sol\":821:836  uint8(b) + 0x30 */\n      tag_73\n        /* \"OnDemo/contracts/Utils.sol\":821:829  uint8(b) */\n      0xf8\n      dup4\n      swap1\n      shr\n        /* \"OnDemo/contracts/Utils.sol\":832:836  0x30 */\n      0x30\n        /* \"OnDemo/contracts/Utils.sol\":821:836  uint8(b) + 0x30 */\n      tag_74\n      jump\t// in\n    tag_73:\n        /* \"OnDemo/contracts/Utils.sol\":814:837  bytes1(uint8(b) + 0x30) */\n      0xf8\n      shl\n      swap3\n        /* \"OnDemo/contracts/Utils.sol\":705:928  function char(bytes1 b) external pure returns (bytes1 c) {... */\n      swap2\n      pop\n      pop\n      jump\t// out\n        /* \"OnDemo/contracts/Utils.sol\":773:921  if (uint8(b) < 10) {... */\n    tag_72:\n        /* \"OnDemo/contracts/Utils.sol\":893:908  uint8(b) + 0x57 */\n      tag_73\n        /* \"OnDemo/contracts/Utils.sol\":893:901  uint8(b) */\n      0xf8\n      dup4\n      swap1\n      shr\n        /* \"OnDemo/contracts/Utils.sol\":904:908  0x57 */\n      0x57\n        /* \"OnDemo/contracts/Utils.sol\":893:908  uint8(b) + 0x57 */\n      tag_74\n      jump\t// in\n        /* \"OnDemo/contracts/Utils.sol\":936:1188  function generateGUID() external view returns (bytes32) {... */\n    tag_20:\n        /* \"OnDemo/contracts/Utils.sol\":1055:1129  abi.encodePacked(nonce, block.timestamp, block.difficulty, block.coinbase) */\n      0x40\n      dup1\n      mload\n        /* \"OnDemo/contracts/Utils.sol\":983:990  bytes32 */\n      0x00\n        /* \"OnDemo/contracts/Utils.sol\":1055:1129  abi.encodePacked(nonce, block.timestamp, block.difficulty, block.coinbase) */\n      0x20\n      dup1\n      dup4\n      add\n        /* \"#utility.yul\":6011:6030   */\n      dup3\n      swap1\n      mstore\n        /* \"OnDemo/contracts/Utils.sol\":1079:1094  block.timestamp */\n      timestamp\n        /* \"#utility.yul\":6046:6058   */\n      dup4\n      dup6\n      add\n        /* \"#utility.yul\":6039:6067   */\n      mstore\n        /* \"OnDemo/contracts/Utils.sol\":1096:1112  block.difficulty */\n      difficulty\n        /* \"#utility.yul\":6083:6095   */\n      0x60\n      dup1\n      dup6\n      add\n        /* \"#utility.yul\":6076:6104   */\n      swap2\n      swap1\n      swap2\n      mstore\n        /* \"OnDemo/contracts/Utils.sol\":1114:1128  block.coinbase */\n      coinbase\n        /* \"#utility.yul\":6138:6153   */\n      swap1\n      shl\n      not(0xffffffffffffffffffffffff)\n        /* \"#utility.yul\":6134:6187   */\n      and\n        /* \"#utility.yul\":6120:6132   */\n      0x80\n      dup5\n      add\n        /* \"#utility.yul\":6113:6188   */\n      mstore\n        /* \"OnDemo/contracts/Utils.sol\":1055:1129  abi.encodePacked(nonce, block.timestamp, block.difficulty, block.coinbase) */\n      dup4\n      mload\n      dup1\n      dup5\n      sub\n      0x74\n      add\n      dup2\n      mstore\n        /* \"#utility.yul\":6204:6217   */\n      0x94\n      swap1\n      swap4\n      add\n        /* \"OnDemo/contracts/Utils.sol\":1055:1129  abi.encodePacked(nonce, block.timestamp, block.difficulty, block.coinbase) */\n      swap1\n      swap4\n      mstore\n        /* \"OnDemo/contracts/Utils.sol\":1045:1130  keccak256(abi.encodePacked(nonce, block.timestamp, block.difficulty, block.coinbase)) */\n      dup2\n      mload\n      swap2\n      swap1\n      swap3\n      add\n      keccak256\n        /* \"OnDemo/contracts/Utils.sol\":983:990  bytes32 */\n      dup2\n      swap1\n      dup2\n        /* \"OnDemo/contracts/Utils.sol\":1142:1149  nonce++ */\n      tag_80\n        /* \"OnDemo/contracts/Utils.sol\":983:990  bytes32 */\n      dup2\n        /* \"OnDemo/contracts/Utils.sol\":1142:1149  nonce++ */\n      tag_70\n      jump\t// in\n    tag_80:\n      pop\n        /* \"OnDemo/contracts/Utils.sol\":1175:1179  rand */\n      swap1\n      swap4\n        /* \"OnDemo/contracts/Utils.sol\":936:1188  function generateGUID() external view returns (bytes32) {... */\n      swap3\n      pop\n      pop\n      pop\n      jump\t// out\n        /* \"OnDemo/contracts/Utils.sol\":1196:1469  function divideAndRoundUp(uint numerator, uint denominator) external pure returns (uint256) {... */\n    tag_26:\n        /* \"OnDemo/contracts/Utils.sol\":1279:1286  uint256 */\n      0x00\n      dup1\n        /* \"OnDemo/contracts/Utils.sol\":1318:1341  numerator / denominator */\n      tag_82\n        /* \"OnDemo/contracts/Utils.sol\":1330:1341  denominator */\n      dup4\n        /* \"OnDemo/contracts/Utils.sol\":1318:1327  numerator */\n      dup6\n        /* \"OnDemo/contracts/Utils.sol\":1318:1341  numerator / denominator */\n      tag_44\n      jump\t// in\n    tag_82:\n        /* \"OnDemo/contracts/Utils.sol\":1299:1341  uint256 quotient = numerator / denominator */\n      swap1\n      pop\n        /* \"OnDemo/contracts/Utils.sol\":1356:1379  numerator % denominator */\n      tag_83\n        /* \"OnDemo/contracts/Utils.sol\":1368:1379  denominator */\n      dup4\n        /* \"OnDemo/contracts/Utils.sol\":1356:1365  numerator */\n      dup6\n        /* \"OnDemo/contracts/Utils.sol\":1356:1379  numerator % denominator */\n      tag_84\n      jump\t// in\n    tag_83:\n        /* \"OnDemo/contracts/Utils.sol\":1356:1384  numerator % denominator != 0 */\n      iszero\n        /* \"OnDemo/contracts/Utils.sol\":1352:1436  if (numerator % denominator != 0) {... */\n      tag_85\n      jumpi\n        /* \"OnDemo/contracts/Utils.sol\":1412:1424  quotient + 1 */\n      tag_86\n        /* \"OnDemo/contracts/Utils.sol\":1412:1420  quotient */\n      dup2\n        /* \"OnDemo/contracts/Utils.sol\":1423:1424  1 */\n      0x01\n        /* \"OnDemo/contracts/Utils.sol\":1412:1424  quotient + 1 */\n      tag_66\n      jump\t// in\n    tag_86:\n        /* \"OnDemo/contracts/Utils.sol\":1401:1424  quotient = quotient + 1 */\n      swap1\n      pop\n        /* \"OnDemo/contracts/Utils.sol\":1352:1436  if (numerator % denominator != 0) {... */\n    tag_85:\n        /* \"OnDemo/contracts/Utils.sol\":1453:1461  quotient */\n      swap1\n      pop\n        /* \"OnDemo/contracts/Utils.sol\":1196:1469  function divideAndRoundUp(uint numerator, uint denominator) external pure returns (uint256) {... */\n    tag_81:\n      swap3\n      swap2\n      pop\n      pop\n      jump\t// out\n        /* \"#utility.yul\":14:300   */\n    tag_9:\n        /* \"#utility.yul\":73:79   */\n      0x00\n        /* \"#utility.yul\":126:128   */\n      0x20\n        /* \"#utility.yul\":114:123   */\n      dup3\n        /* \"#utility.yul\":105:112   */\n      dup5\n        /* \"#utility.yul\":101:124   */\n      sub\n        /* \"#utility.yul\":97:129   */\n      slt\n        /* \"#utility.yul\":94:146   */\n      iszero\n      tag_94\n      jumpi\n        /* \"#utility.yul\":142:143   */\n      0x00\n        /* \"#utility.yul\":139:140   */\n      dup1\n        /* \"#utility.yul\":132:144   */\n      revert\n        /* \"#utility.yul\":94:146   */\n    tag_94:\n        /* \"#utility.yul\":168:191   */\n      dup2\n      calldataload\n      sub(shl(0xa0, 0x01), 0x01)\n        /* \"#utility.yul\":220:251   */\n      dup2\n      and\n        /* \"#utility.yul\":210:252   */\n      dup2\n      eq\n        /* \"#utility.yul\":200:270   */\n      tag_85\n      jumpi\n        /* \"#utility.yul\":266:267   */\n      0x00\n        /* \"#utility.yul\":263:264   */\n      dup1\n        /* \"#utility.yul\":256:268   */\n      revert\n        /* \"#utility.yul\":305:902   */\n    tag_12:\n        /* \"#utility.yul\":417:421   */\n      0x00\n        /* \"#utility.yul\":446:448   */\n      0x20\n        /* \"#utility.yul\":475:477   */\n      dup1\n        /* \"#utility.yul\":464:473   */\n      dup4\n        /* \"#utility.yul\":457:478   */\n      mstore\n        /* \"#utility.yul\":507:513   */\n      dup4\n        /* \"#utility.yul\":501:514   */\n      mload\n        /* \"#utility.yul\":550:556   */\n      dup1\n        /* \"#utility.yul\":545:547   */\n      dup3\n        /* \"#utility.yul\":534:543   */\n      dup6\n        /* \"#utility.yul\":530:548   */\n      add\n        /* \"#utility.yul\":523:557   */\n      mstore\n        /* \"#utility.yul\":575:576   */\n      0x00\n        /* \"#utility.yul\":585:725   */\n    tag_97:\n        /* \"#utility.yul\":599:605   */\n      dup2\n        /* \"#utility.yul\":596:597   */\n      dup2\n        /* \"#utility.yul\":593:606   */\n      lt\n        /* \"#utility.yul\":585:725   */\n      iszero\n      tag_99\n      jumpi\n        /* \"#utility.yul\":694:708   */\n      dup6\n      dup2\n      add\n        /* \"#utility.yul\":690:713   */\n      dup4\n      add\n        /* \"#utility.yul\":684:714   */\n      mload\n        /* \"#utility.yul\":660:677   */\n      dup6\n      dup3\n      add\n        /* \"#utility.yul\":679:681   */\n      0x40\n        /* \"#utility.yul\":656:682   */\n      add\n        /* \"#utility.yul\":649:715   */\n      mstore\n        /* \"#utility.yul\":614:624   */\n      dup3\n      add\n        /* \"#utility.yul\":585:725   */\n      jump(tag_97)\n    tag_99:\n        /* \"#utility.yul\":743:749   */\n      dup2\n        /* \"#utility.yul\":740:741   */\n      dup2\n        /* \"#utility.yul\":737:750   */\n      gt\n        /* \"#utility.yul\":734:825   */\n      iszero\n      tag_100\n      jumpi\n        /* \"#utility.yul\":813:814   */\n      0x00\n        /* \"#utility.yul\":808:810   */\n      0x40\n        /* \"#utility.yul\":799:805   */\n      dup4\n        /* \"#utility.yul\":788:797   */\n      dup8\n        /* \"#utility.yul\":784:806   */\n      add\n        /* \"#utility.yul\":780:811   */\n      add\n        /* \"#utility.yul\":773:815   */\n      mstore\n        /* \"#utility.yul\":734:825   */\n    tag_100:\n      pop\n        /* \"#utility.yul\":886:888   */\n      0x1f\n        /* \"#utility.yul\":865:880   */\n      add\n      not(0x1f)\n        /* \"#utility.yul\":861:890   */\n      and\n        /* \"#utility.yul\":846:891   */\n      swap3\n      swap1\n      swap3\n      add\n        /* \"#utility.yul\":893:895   */\n      0x40\n        /* \"#utility.yul\":842:896   */\n      add\n      swap4\n        /* \"#utility.yul\":305:902   */\n      swap3\n      pop\n      pop\n      pop\n      jump\t// out\n        /* \"#utility.yul\":907:1031   */\n    tag_87:\n      not(sub(shl(0xf8, 0x01), 0x01))\n        /* \"#utility.yul\":981:1006   */\n      dup2\n      and\n        /* \"#utility.yul\":971:1007   */\n      dup2\n      eq\n        /* \"#utility.yul\":961:1025   */\n      tag_102\n      jumpi\n        /* \"#utility.yul\":1021:1022   */\n      0x00\n        /* \"#utility.yul\":1018:1019   */\n      dup1\n        /* \"#utility.yul\":1011:1023   */\n      revert\n        /* \"#utility.yul\":961:1025   */\n    tag_102:\n        /* \"#utility.yul\":907:1031   */\n      pop\n      jump\t// out\n        /* \"#utility.yul\":1036:1281   */\n    tag_15:\n        /* \"#utility.yul\":1094:1100   */\n      0x00\n        /* \"#utility.yul\":1147:1149   */\n      0x20\n        /* \"#utility.yul\":1135:1144   */\n      dup3\n        /* \"#utility.yul\":1126:1133   */\n      dup5\n        /* \"#utility.yul\":1122:1145   */\n      sub\n        /* \"#utility.yul\":1118:1150   */\n      slt\n        /* \"#utility.yul\":1115:1167   */\n      iszero\n      tag_104\n      jumpi\n        /* \"#utility.yul\":1163:1164   */\n      0x00\n        /* \"#utility.yul\":1160:1161   */\n      dup1\n        /* \"#utility.yul\":1153:1165   */\n      revert\n        /* \"#utility.yul\":1115:1167   */\n    tag_104:\n        /* \"#utility.yul\":1202:1211   */\n      dup2\n        /* \"#utility.yul\":1189:1212   */\n      calldataload\n        /* \"#utility.yul\":1221:1251   */\n      tag_85\n        /* \"#utility.yul\":1245:1250   */\n      dup2\n        /* \"#utility.yul\":1221:1251   */\n      tag_87\n      jump\t// in\n        /* \"#utility.yul\":1668:1916   */\n    tag_25:\n        /* \"#utility.yul\":1736:1742   */\n      0x00\n        /* \"#utility.yul\":1744:1750   */\n      dup1\n        /* \"#utility.yul\":1797:1799   */\n      0x40\n        /* \"#utility.yul\":1785:1794   */\n      dup4\n        /* \"#utility.yul\":1776:1783   */\n      dup6\n        /* \"#utility.yul\":1772:1795   */\n      sub\n        /* \"#utility.yul\":1768:1800   */\n      slt\n        /* \"#utility.yul\":1765:1817   */\n      iszero\n      tag_109\n      jumpi\n        /* \"#utility.yul\":1813:1814   */\n      0x00\n        /* \"#utility.yul\":1810:1811   */\n      dup1\n        /* \"#utility.yul\":1803:1815   */\n      revert\n        /* \"#utility.yul\":1765:1817   */\n    tag_109:\n      pop\n      pop\n        /* \"#utility.yul\":1836:1859   */\n      dup1\n      calldataload\n      swap3\n        /* \"#utility.yul\":1906:1908   */\n      0x20\n        /* \"#utility.yul\":1891:1909   */\n      swap1\n      swap2\n      add\n        /* \"#utility.yul\":1878:1910   */\n      calldataload\n      swap2\n      pop\n        /* \"#utility.yul\":1668:1916   */\n      jump\t// out\n        /* \"#utility.yul\":2235:2362   */\n    tag_88:\n        /* \"#utility.yul\":2296:2306   */\n      0x4e487b71\n        /* \"#utility.yul\":2291:2294   */\n      0xe0\n        /* \"#utility.yul\":2287:2307   */\n      shl\n        /* \"#utility.yul\":2284:2285   */\n      0x00\n        /* \"#utility.yul\":2277:2308   */\n      mstore\n        /* \"#utility.yul\":2327:2331   */\n      0x11\n        /* \"#utility.yul\":2324:2325   */\n      0x04\n        /* \"#utility.yul\":2317:2332   */\n      mstore\n        /* \"#utility.yul\":2351:2355   */\n      0x24\n        /* \"#utility.yul\":2348:2349   */\n      0x00\n        /* \"#utility.yul\":2341:2356   */\n      revert\n        /* \"#utility.yul\":2367:2492   */\n    tag_38:\n        /* \"#utility.yul\":2407:2411   */\n      0x00\n        /* \"#utility.yul\":2435:2436   */\n      dup3\n        /* \"#utility.yul\":2432:2433   */\n      dup3\n        /* \"#utility.yul\":2429:2437   */\n      lt\n        /* \"#utility.yul\":2426:2460   */\n      iszero\n      tag_115\n      jumpi\n        /* \"#utility.yul\":2440:2458   */\n      tag_115\n      tag_88\n      jump\t// in\n    tag_115:\n      pop\n        /* \"#utility.yul\":2477:2486   */\n      sub\n      swap1\n        /* \"#utility.yul\":2367:2492   */\n      jump\t// out\n        /* \"#utility.yul\":2497:2665   */\n    tag_40:\n        /* \"#utility.yul\":2537:2544   */\n      0x00\n        /* \"#utility.yul\":2603:2604   */\n      dup2\n        /* \"#utility.yul\":2599:2600   */\n      0x00\n        /* \"#utility.yul\":2595:2601   */\n      not\n        /* \"#utility.yul\":2591:2605   */\n      div\n        /* \"#utility.yul\":2588:2589   */\n      dup4\n        /* \"#utility.yul\":2585:2606   */\n      gt\n        /* \"#utility.yul\":2580:2581   */\n      dup3\n        /* \"#utility.yul\":2573:2582   */\n      iszero\n        /* \"#utility.yul\":2566:2583   */\n      iszero\n        /* \"#utility.yul\":2562:2607   */\n      and\n        /* \"#utility.yul\":2559:2630   */\n      iszero\n      tag_118\n      jumpi\n        /* \"#utility.yul\":2610:2628   */\n      tag_118\n      tag_88\n      jump\t// in\n    tag_118:\n      pop\n        /* \"#utility.yul\":2650:2659   */\n      mul\n      swap1\n        /* \"#utility.yul\":2497:2665   */\n      jump\t// out\n        /* \"#utility.yul\":2670:3092   */\n    tag_89:\n        /* \"#utility.yul\":2759:2760   */\n      0x01\n        /* \"#utility.yul\":2802:2807   */\n      dup2\n        /* \"#utility.yul\":2759:2760   */\n      dup2\n        /* \"#utility.yul\":2816:3086   */\n    tag_120:\n        /* \"#utility.yul\":2837:2844   */\n      dup1\n        /* \"#utility.yul\":2827:2835   */\n      dup6\n        /* \"#utility.yul\":2824:2845   */\n      gt\n        /* \"#utility.yul\":2816:3086   */\n      iszero\n      tag_122\n      jumpi\n        /* \"#utility.yul\":2896:2900   */\n      dup2\n        /* \"#utility.yul\":2892:2893   */\n      0x00\n        /* \"#utility.yul\":2888:2894   */\n      not\n        /* \"#utility.yul\":2884:2901   */\n      div\n        /* \"#utility.yul\":2878:2882   */\n      dup3\n        /* \"#utility.yul\":2875:2902   */\n      gt\n        /* \"#utility.yul\":2872:2925   */\n      iszero\n      tag_124\n      jumpi\n        /* \"#utility.yul\":2905:2923   */\n      tag_124\n      tag_88\n      jump\t// in\n    tag_124:\n        /* \"#utility.yul\":2955:2962   */\n      dup1\n        /* \"#utility.yul\":2945:2953   */\n      dup6\n        /* \"#utility.yul\":2941:2963   */\n      and\n        /* \"#utility.yul\":2938:2993   */\n      iszero\n      tag_125\n      jumpi\n        /* \"#utility.yul\":2975:2991   */\n      swap2\n      dup2\n      mul\n      swap2\n        /* \"#utility.yul\":2938:2993   */\n    tag_125:\n        /* \"#utility.yul\":3054:3076   */\n      swap4\n      dup5\n      shr\n      swap4\n        /* \"#utility.yul\":3014:3029   */\n      swap1\n      dup1\n      mul\n      swap1\n        /* \"#utility.yul\":2816:3086   */\n      jump(tag_120)\n    tag_122:\n        /* \"#utility.yul\":2820:2823   */\n      pop\n        /* \"#utility.yul\":2670:3092   */\n      swap3\n      pop\n      swap3\n      swap1\n      pop\n      jump\t// out\n        /* \"#utility.yul\":3097:3903   */\n    tag_90:\n        /* \"#utility.yul\":3146:3151   */\n      0x00\n        /* \"#utility.yul\":3176:3184   */\n      dup3\n        /* \"#utility.yul\":3166:3246   */\n      tag_127\n      jumpi\n      pop\n        /* \"#utility.yul\":3217:3218   */\n      0x01\n        /* \"#utility.yul\":3231:3236   */\n      jump(tag_81)\n        /* \"#utility.yul\":3166:3246   */\n    tag_127:\n        /* \"#utility.yul\":3265:3269   */\n      dup2\n        /* \"#utility.yul\":3255:3331   */\n      tag_128\n      jumpi\n      pop\n        /* \"#utility.yul\":3302:3303   */\n      0x00\n        /* \"#utility.yul\":3316:3321   */\n      jump(tag_81)\n        /* \"#utility.yul\":3255:3331   */\n    tag_128:\n        /* \"#utility.yul\":3347:3351   */\n      dup2\n        /* \"#utility.yul\":3365:3366   */\n      0x01\n        /* \"#utility.yul\":3360:3419   */\n      dup2\n      eq\n      tag_130\n      jumpi\n        /* \"#utility.yul\":3433:3434   */\n      0x02\n        /* \"#utility.yul\":3428:3558   */\n      dup2\n      eq\n      tag_131\n      jumpi\n        /* \"#utility.yul\":3340:3558   */\n      jump(tag_129)\n        /* \"#utility.yul\":3360:3419   */\n    tag_130:\n        /* \"#utility.yul\":3390:3391   */\n      0x01\n        /* \"#utility.yul\":3381:3391   */\n      swap2\n      pop\n        /* \"#utility.yul\":3404:3409   */\n      pop\n      jump(tag_81)\n        /* \"#utility.yul\":3428:3558   */\n    tag_131:\n        /* \"#utility.yul\":3465:3468   */\n      0xff\n        /* \"#utility.yul\":3455:3463   */\n      dup5\n        /* \"#utility.yul\":3452:3469   */\n      gt\n        /* \"#utility.yul\":3449:3492   */\n      iszero\n      tag_133\n      jumpi\n        /* \"#utility.yul\":3472:3490   */\n      tag_133\n      tag_88\n      jump\t// in\n    tag_133:\n      pop\n      pop\n        /* \"#utility.yul\":3528:3529   */\n      0x01\n        /* \"#utility.yul\":3514:3530   */\n      dup3\n      shl\n        /* \"#utility.yul\":3543:3548   */\n      jump(tag_81)\n        /* \"#utility.yul\":3340:3558   */\n    tag_129:\n      pop\n        /* \"#utility.yul\":3642:3644   */\n      0x20\n        /* \"#utility.yul\":3632:3640   */\n      dup4\n        /* \"#utility.yul\":3629:3645   */\n      lt\n        /* \"#utility.yul\":3623:3626   */\n      0x0133\n        /* \"#utility.yul\":3617:3621   */\n      dup4\n        /* \"#utility.yul\":3614:3627   */\n      lt\n        /* \"#utility.yul\":3610:3646   */\n      and\n        /* \"#utility.yul\":3604:3606   */\n      0x4e\n        /* \"#utility.yul\":3594:3602   */\n      dup5\n        /* \"#utility.yul\":3591:3607   */\n      lt\n        /* \"#utility.yul\":3586:3588   */\n      0x0b\n        /* \"#utility.yul\":3580:3584   */\n      dup5\n        /* \"#utility.yul\":3577:3589   */\n      lt\n        /* \"#utility.yul\":3573:3608   */\n      and\n        /* \"#utility.yul\":3570:3647   */\n      or\n        /* \"#utility.yul\":3567:3726   */\n      iszero\n      tag_134\n      jumpi\n      pop\n        /* \"#utility.yul\":3679:3698   */\n      dup2\n      dup2\n      exp\n        /* \"#utility.yul\":3711:3716   */\n      jump(tag_81)\n        /* \"#utility.yul\":3567:3726   */\n    tag_134:\n        /* \"#utility.yul\":3758:3792   */\n      tag_135\n        /* \"#utility.yul\":3783:3791   */\n      dup4\n        /* \"#utility.yul\":3777:3781   */\n      dup4\n        /* \"#utility.yul\":3758:3792   */\n      tag_89\n      jump\t// in\n    tag_135:\n        /* \"#utility.yul\":3828:3834   */\n      dup1\n        /* \"#utility.yul\":3824:3825   */\n      0x00\n        /* \"#utility.yul\":3820:3826   */\n      not\n        /* \"#utility.yul\":3816:3835   */\n      div\n        /* \"#utility.yul\":3807:3814   */\n      dup3\n        /* \"#utility.yul\":3804:3836   */\n      gt\n        /* \"#utility.yul\":3801:3859   */\n      iszero\n      tag_137\n      jumpi\n        /* \"#utility.yul\":3839:3857   */\n      tag_137\n      tag_88\n      jump\t// in\n    tag_137:\n        /* \"#utility.yul\":3877:3897   */\n      mul\n      swap4\n        /* \"#utility.yul\":3097:3903   */\n      swap3\n      pop\n      pop\n      pop\n      jump\t// out\n        /* \"#utility.yul\":3908:4039   */\n    tag_42:\n        /* \"#utility.yul\":3968:3973   */\n      0x00\n        /* \"#utility.yul\":3997:4033   */\n      tag_139\n        /* \"#utility.yul\":4024:4032   */\n      dup4\n        /* \"#utility.yul\":4018:4022   */\n      dup4\n        /* \"#utility.yul\":3997:4033   */\n      tag_90\n      jump\t// in\n    tag_139:\n        /* \"#utility.yul\":3988:4033   */\n      swap4\n        /* \"#utility.yul\":3908:4039   */\n      swap3\n      pop\n      pop\n      pop\n      jump\t// out\n        /* \"#utility.yul\":4044:4171   */\n    tag_91:\n        /* \"#utility.yul\":4105:4115   */\n      0x4e487b71\n        /* \"#utility.yul\":4100:4103   */\n      0xe0\n        /* \"#utility.yul\":4096:4116   */\n      shl\n        /* \"#utility.yul\":4093:4094   */\n      0x00\n        /* \"#utility.yul\":4086:4117   */\n      mstore\n        /* \"#utility.yul\":4136:4140   */\n      0x12\n        /* \"#utility.yul\":4133:4134   */\n      0x04\n        /* \"#utility.yul\":4126:4141   */\n      mstore\n        /* \"#utility.yul\":4160:4164   */\n      0x24\n        /* \"#utility.yul\":4157:4158   */\n      0x00\n        /* \"#utility.yul\":4150:4165   */\n      revert\n        /* \"#utility.yul\":4176:4296   */\n    tag_44:\n        /* \"#utility.yul\":4216:4217   */\n      0x00\n        /* \"#utility.yul\":4242:4243   */\n      dup3\n        /* \"#utility.yul\":4232:4267   */\n      tag_143\n      jumpi\n        /* \"#utility.yul\":4247:4265   */\n      tag_143\n      tag_91\n      jump\t// in\n    tag_143:\n      pop\n        /* \"#utility.yul\":4281:4290   */\n      div\n      swap1\n        /* \"#utility.yul\":4176:4296   */\n      jump\t// out\n        /* \"#utility.yul\":4301:4466   */\n    tag_46:\n        /* \"#utility.yul\":4339:4340   */\n      0x00\n        /* \"#utility.yul\":4373:4377   */\n      0xff\n        /* \"#utility.yul\":4370:4371   */\n      dup4\n        /* \"#utility.yul\":4366:4378   */\n      and\n        /* \"#utility.yul\":4397:4400   */\n      dup1\n        /* \"#utility.yul\":4387:4424   */\n      tag_146\n      jumpi\n        /* \"#utility.yul\":4404:4422   */\n      tag_146\n      tag_91\n      jump\t// in\n    tag_146:\n        /* \"#utility.yul\":4456:4459   */\n      dup1\n        /* \"#utility.yul\":4449:4453   */\n      0xff\n        /* \"#utility.yul\":4446:4447   */\n      dup5\n        /* \"#utility.yul\":4442:4454   */\n      and\n        /* \"#utility.yul\":4438:4460   */\n      div\n        /* \"#utility.yul\":4433:4460   */\n      swap2\n      pop\n      pop\n        /* \"#utility.yul\":4301:4466   */\n      swap3\n      swap2\n      pop\n      pop\n      jump\t// out\n        /* \"#utility.yul\":4471:4709   */\n    tag_48:\n        /* \"#utility.yul\":4509:4516   */\n      0x00\n        /* \"#utility.yul\":4549:4553   */\n      0xff\n        /* \"#utility.yul\":4546:4547   */\n      dup3\n        /* \"#utility.yul\":4542:4554   */\n      and\n        /* \"#utility.yul\":4581:4585   */\n      0xff\n        /* \"#utility.yul\":4578:4579   */\n      dup5\n        /* \"#utility.yul\":4574:4586   */\n      and\n        /* \"#utility.yul\":4641:4644   */\n      dup2\n        /* \"#utility.yul\":4635:4639   */\n      0xff\n        /* \"#utility.yul\":4631:4645   */\n      div\n        /* \"#utility.yul\":4626:4629   */\n      dup2\n        /* \"#utility.yul\":4623:4646   */\n      gt\n        /* \"#utility.yul\":4616:4619   */\n      dup3\n        /* \"#utility.yul\":4609:4620   */\n      iszero\n        /* \"#utility.yul\":4602:4621   */\n      iszero\n        /* \"#utility.yul\":4598:4647   */\n      and\n        /* \"#utility.yul\":4595:4670   */\n      iszero\n      tag_137\n      jumpi\n        /* \"#utility.yul\":4650:4668   */\n      tag_137\n      tag_88\n      jump\t// in\n        /* \"#utility.yul\":4714:4909   */\n    tag_50:\n        /* \"#utility.yul\":4752:4756   */\n      0x00\n        /* \"#utility.yul\":4789:4793   */\n      0xff\n        /* \"#utility.yul\":4786:4787   */\n      dup3\n        /* \"#utility.yul\":4782:4794   */\n      and\n        /* \"#utility.yul\":4821:4825   */\n      0xff\n        /* \"#utility.yul\":4818:4819   */\n      dup5\n        /* \"#utility.yul\":4814:4826   */\n      and\n        /* \"#utility.yul\":4846:4849   */\n      dup1\n        /* \"#utility.yul\":4841:4844   */\n      dup3\n        /* \"#utility.yul\":4838:4850   */\n      lt\n        /* \"#utility.yul\":4835:4873   */\n      iszero\n      tag_152\n      jumpi\n        /* \"#utility.yul\":4853:4871   */\n      tag_152\n      tag_88\n      jump\t// in\n    tag_152:\n        /* \"#utility.yul\":4890:4903   */\n      swap1\n      sub\n      swap4\n        /* \"#utility.yul\":4714:4909   */\n      swap3\n      pop\n      pop\n      pop\n      jump\t// out\n        /* \"#utility.yul\":4914:5163   */\n    tag_55:\n        /* \"#utility.yul\":4983:4989   */\n      0x00\n        /* \"#utility.yul\":5036:5038   */\n      0x20\n        /* \"#utility.yul\":5024:5033   */\n      dup3\n        /* \"#utility.yul\":5015:5022   */\n      dup5\n        /* \"#utility.yul\":5011:5034   */\n      sub\n        /* \"#utility.yul\":5007:5039   */\n      slt\n        /* \"#utility.yul\":5004:5056   */\n      iszero\n      tag_154\n      jumpi\n        /* \"#utility.yul\":5052:5053   */\n      0x00\n        /* \"#utility.yul\":5049:5050   */\n      dup1\n        /* \"#utility.yul\":5042:5054   */\n      revert\n        /* \"#utility.yul\":5004:5056   */\n    tag_154:\n        /* \"#utility.yul\":5084:5093   */\n      dup2\n        /* \"#utility.yul\":5078:5094   */\n      mload\n        /* \"#utility.yul\":5103:5133   */\n      tag_85\n        /* \"#utility.yul\":5127:5132   */\n      dup2\n        /* \"#utility.yul\":5103:5133   */\n      tag_87\n      jump\t// in\n        /* \"#utility.yul\":5168:5295   */\n    tag_59:\n        /* \"#utility.yul\":5229:5239   */\n      0x4e487b71\n        /* \"#utility.yul\":5224:5227   */\n      0xe0\n        /* \"#utility.yul\":5220:5240   */\n      shl\n        /* \"#utility.yul\":5217:5218   */\n      0x00\n        /* \"#utility.yul\":5210:5241   */\n      mstore\n        /* \"#utility.yul\":5260:5264   */\n      0x32\n        /* \"#utility.yul\":5257:5258   */\n      0x04\n        /* \"#utility.yul\":5250:5265   */\n      mstore\n        /* \"#utility.yul\":5284:5288   */\n      0x24\n        /* \"#utility.yul\":5281:5282   */\n      0x00\n        /* \"#utility.yul\":5274:5289   */\n      revert\n        /* \"#utility.yul\":5300:5428   */\n    tag_66:\n        /* \"#utility.yul\":5340:5343   */\n      0x00\n        /* \"#utility.yul\":5371:5372   */\n      dup3\n        /* \"#utility.yul\":5367:5373   */\n      not\n        /* \"#utility.yul\":5364:5365   */\n      dup3\n        /* \"#utility.yul\":5361:5374   */\n      gt\n        /* \"#utility.yul\":5358:5397   */\n      iszero\n      tag_159\n      jumpi\n        /* \"#utility.yul\":5377:5395   */\n      tag_159\n      tag_88\n      jump\t// in\n    tag_159:\n      pop\n        /* \"#utility.yul\":5413:5422   */\n      add\n      swap1\n        /* \"#utility.yul\":5300:5428   */\n      jump\t// out\n        /* \"#utility.yul\":5433:5568   */\n    tag_70:\n        /* \"#utility.yul\":5472:5475   */\n      0x00\n      not(0x00)\n        /* \"#utility.yul\":5493:5510   */\n      dup3\n      eq\n        /* \"#utility.yul\":5490:5533   */\n      iszero\n      tag_162\n      jumpi\n        /* \"#utility.yul\":5513:5531   */\n      tag_162\n      tag_88\n      jump\t// in\n    tag_162:\n      pop\n        /* \"#utility.yul\":5560:5561   */\n      0x01\n        /* \"#utility.yul\":5549:5562   */\n      add\n      swap1\n        /* \"#utility.yul\":5433:5568   */\n      jump\t// out\n        /* \"#utility.yul\":5573:5777   */\n    tag_74:\n        /* \"#utility.yul\":5611:5614   */\n      0x00\n        /* \"#utility.yul\":5647:5651   */\n      0xff\n        /* \"#utility.yul\":5644:5645   */\n      dup3\n        /* \"#utility.yul\":5640:5652   */\n      and\n        /* \"#utility.yul\":5679:5683   */\n      0xff\n        /* \"#utility.yul\":5676:5677   */\n      dup5\n        /* \"#utility.yul\":5672:5684   */\n      and\n        /* \"#utility.yul\":5714:5717   */\n      dup1\n        /* \"#utility.yul\":5708:5712   */\n      0xff\n        /* \"#utility.yul\":5704:5718   */\n      sub\n        /* \"#utility.yul\":5699:5702   */\n      dup3\n        /* \"#utility.yul\":5696:5719   */\n      gt\n        /* \"#utility.yul\":5693:5742   */\n      iszero\n      tag_165\n      jumpi\n        /* \"#utility.yul\":5722:5740   */\n      tag_165\n      tag_88\n      jump\t// in\n    tag_165:\n        /* \"#utility.yul\":5758:5771   */\n      add\n      swap4\n        /* \"#utility.yul\":5573:5777   */\n      swap3\n      pop\n      pop\n      pop\n      jump\t// out\n        /* \"#utility.yul\":6228:6340   */\n    tag_84:\n        /* \"#utility.yul\":6260:6261   */\n      0x00\n        /* \"#utility.yul\":6286:6287   */\n      dup3\n        /* \"#utility.yul\":6276:6311   */\n      tag_169\n      jumpi\n        /* \"#utility.yul\":6291:6309   */\n      tag_169\n      tag_91\n      jump\t// in\n    tag_169:\n      pop\n        /* \"#utility.yul\":6325:6334   */\n      mod\n      swap1\n        /* \"#utility.yul\":6228:6340   */\n      jump\t// out\n\n    auxdata: 0xa2646970667358221220c46253c53ef194d63f41c93fb107170a66c061ef365dbf58b0782a6a752fbe5164736f6c634300080c0033\n}\n",
				"bytecode": {
					"linkReferences": {},
					"object": "608060405234801561001057600080fd5b50610724806100206000396000f3fe608060405234801561001057600080fd5b506004361061004c5760003560e01c80632c6e75981461005157806369f9ad2f1461007a578063efc6c18c146100a6578063fd3bad52146100bc575b600080fd5b61006461005f3660046103a6565b6100cf565b60405161007191906103cf565b60405180910390f35b61008d61008836600461043d565b6102d9565b6040516001600160f81b03199091168152602001610071565b6100ae61030f565b604051908152602001610071565b6100ae6100ca36600461045a565b610371565b60408051602880825260608281019093526000919060208201818036833701905050905060005b60148110156102d257600061010c826013610492565b6101179060086104a9565b6101229060026105ac565b610135906001600160a01b0387166105d5565b60f81b9050600060108260f81c61014c91906105e9565b60f81b905060008160f81c6010610163919061060b565b8360f81c610171919061062c565b6040516369f9ad2f60e01b81526001600160f81b03198416600482015260f89190911b915030906369f9ad2f90602401602060405180830381865afa1580156101be573d6000803e3d6000fd5b505050506040513d601f19601f820116820180604052508101906101e2919061064f565b856101ee8660026104a9565b815181106101fe576101fe61066c565b60200101906001600160f81b031916908160001a9053506040516369f9ad2f60e01b81526001600160f81b03198216600482015230906369f9ad2f90602401602060405180830381865afa15801561025a573d6000803e3d6000fd5b505050506040513d601f19601f8201168201806040525081019061027e919061064f565b8561028a8660026104a9565b610295906001610682565b815181106102a5576102a561066c565b60200101906001600160f81b031916908160001a90535050505080806102ca9061069a565b9150506100f6565b5092915050565b6000600a60f883901c1015610300576102f760f883901c60306106b5565b60f81b92915050565b6102f760f883901c60576106b5565b604080516000602080830182905242838501524460608085019190915241901b6bffffffffffffffffffffffff19166080840152835180840360740181526094909301909352815191909201208190816103688161069a565b50909392505050565b60008061037e83856105d5565b905061038a83856106da565b1561039d5761039a816001610682565b90505b90505b92915050565b6000602082840312156103b857600080fd5b81356001600160a01b038116811461039d57600080fd5b600060208083528351808285015260005b818110156103fc578581018301518582016040015282016103e0565b8181111561040e576000604083870101525b50601f01601f1916929092016040019392505050565b6001600160f81b03198116811461043a57600080fd5b50565b60006020828403121561044f57600080fd5b813561039d81610424565b6000806040838503121561046d57600080fd5b50508035926020909101359150565b634e487b7160e01b600052601160045260246000fd5b6000828210156104a4576104a461047c565b500390565b60008160001904831182151516156104c3576104c361047c565b500290565b600181815b808511156105035781600019048211156104e9576104e961047c565b808516156104f657918102915b93841c93908002906104cd565b509250929050565b60008261051a575060016103a0565b81610527575060006103a0565b816001811461053d576002811461054757610563565b60019150506103a0565b60ff8411156105585761055861047c565b50506001821b6103a0565b5060208310610133831016604e8410600b8410161715610586575081810a6103a0565b61059083836104c8565b80600019048211156105a4576105a461047c565b029392505050565b60006105b8838361050b565b9392505050565b634e487b7160e01b600052601260045260246000fd5b6000826105e4576105e46105bf565b500490565b600060ff8316806105fc576105fc6105bf565b8060ff84160491505092915050565b600060ff821660ff84168160ff04811182151516156105a4576105a461047c565b600060ff821660ff8416808210156106465761064661047c565b90039392505050565b60006020828403121561066157600080fd5b815161039d81610424565b634e487b7160e01b600052603260045260246000fd5b600082198211156106955761069561047c565b500190565b60006000198214156106ae576106ae61047c565b5060010190565b600060ff821660ff84168060ff038211156106d2576106d261047c565b019392505050565b6000826106e9576106e96105bf565b50069056fea2646970667358221220c46253c53ef194d63f41c93fb107170a66c061ef365dbf58b0782a6a752fbe5164736f6c634300080c0033",
					"opcodes": "PUSH1 0x80 PUSH1 0x40 MSTORE CALLVALUE DUP1 ISZERO PUSH2 0x10 JUMPI PUSH1 0x0 DUP1 REVERT JUMPDEST POP PUSH2 0x724 DUP1 PUSH2 0x20 PUSH1 0x0 CODECOPY PUSH1 0x0 RETURN INVALID PUSH1 0x80 PUSH1 0x40 MSTORE CALLVALUE DUP1 ISZERO PUSH2 0x10 JUMPI PUSH1 0x0 DUP1 REVERT JUMPDEST POP PUSH1 0x4 CALLDATASIZE LT PUSH2 0x4C JUMPI PUSH1 0x0 CALLDATALOAD PUSH1 0xE0 SHR DUP1 PUSH4 0x2C6E7598 EQ PUSH2 0x51 JUMPI DUP1 PUSH4 0x69F9AD2F EQ PUSH2 0x7A JUMPI DUP1 PUSH4 0xEFC6C18C EQ PUSH2 0xA6 JUMPI DUP1 PUSH4 0xFD3BAD52 EQ PUSH2 0xBC JUMPI JUMPDEST PUSH1 0x0 DUP1 REVERT JUMPDEST PUSH2 0x64 PUSH2 0x5F CALLDATASIZE PUSH1 0x4 PUSH2 0x3A6 JUMP JUMPDEST PUSH2 0xCF JUMP JUMPDEST PUSH1 0x40 MLOAD PUSH2 0x71 SWAP2 SWAP1 PUSH2 0x3CF JUMP JUMPDEST PUSH1 0x40 MLOAD DUP1 SWAP2 SUB SWAP1 RETURN JUMPDEST PUSH2 0x8D PUSH2 0x88 CALLDATASIZE PUSH1 0x4 PUSH2 0x43D JUMP JUMPDEST PUSH2 0x2D9 JUMP JUMPDEST PUSH1 0x40 MLOAD PUSH1 0x1 PUSH1 0x1 PUSH1 0xF8 SHL SUB NOT SWAP1 SWAP2 AND DUP2 MSTORE PUSH1 0x20 ADD PUSH2 0x71 JUMP JUMPDEST PUSH2 0xAE PUSH2 0x30F JUMP JUMPDEST PUSH1 0x40 MLOAD SWAP1 DUP2 MSTORE PUSH1 0x20 ADD PUSH2 0x71 JUMP JUMPDEST PUSH2 0xAE PUSH2 0xCA CALLDATASIZE PUSH1 0x4 PUSH2 0x45A JUMP JUMPDEST PUSH2 0x371 JUMP JUMPDEST PUSH1 0x40 DUP1 MLOAD PUSH1 0x28 DUP1 DUP3 MSTORE PUSH1 0x60 DUP3 DUP2 ADD SWAP1 SWAP4 MSTORE PUSH1 0x0 SWAP2 SWAP1 PUSH1 0x20 DUP3 ADD DUP2 DUP1 CALLDATASIZE DUP4 CALLDATACOPY ADD SWAP1 POP POP SWAP1 POP PUSH1 0x0 JUMPDEST PUSH1 0x14 DUP2 LT ISZERO PUSH2 0x2D2 JUMPI PUSH1 0x0 PUSH2 0x10C DUP3 PUSH1 0x13 PUSH2 0x492 JUMP JUMPDEST PUSH2 0x117 SWAP1 PUSH1 0x8 PUSH2 0x4A9 JUMP JUMPDEST PUSH2 0x122 SWAP1 PUSH1 0x2 PUSH2 0x5AC JUMP JUMPDEST PUSH2 0x135 SWAP1 PUSH1 0x1 PUSH1 0x1 PUSH1 0xA0 SHL SUB DUP8 AND PUSH2 0x5D5 JUMP JUMPDEST PUSH1 0xF8 SHL SWAP1 POP PUSH1 0x0 PUSH1 0x10 DUP3 PUSH1 0xF8 SHR PUSH2 0x14C SWAP2 SWAP1 PUSH2 0x5E9 JUMP JUMPDEST PUSH1 0xF8 SHL SWAP1 POP PUSH1 0x0 DUP2 PUSH1 0xF8 SHR PUSH1 0x10 PUSH2 0x163 SWAP2 SWAP1 PUSH2 0x60B JUMP JUMPDEST DUP4 PUSH1 0xF8 SHR PUSH2 0x171 SWAP2 SWAP1 PUSH2 0x62C JUMP JUMPDEST PUSH1 0x40 MLOAD PUSH4 0x69F9AD2F PUSH1 0xE0 SHL DUP2 MSTORE PUSH1 0x1 PUSH1 0x1 PUSH1 0xF8 SHL SUB NOT DUP5 AND PUSH1 0x4 DUP3 ADD MSTORE PUSH1 0xF8 SWAP2 SWAP1 SWAP2 SHL SWAP2 POP ADDRESS SWAP1 PUSH4 0x69F9AD2F SWAP1 PUSH1 0x24 ADD PUSH1 0x20 PUSH1 0x40 MLOAD DUP1 DUP4 SUB DUP2 DUP7 GAS STATICCALL ISZERO DUP1 ISZERO PUSH2 0x1BE JUMPI RETURNDATASIZE PUSH1 0x0 DUP1 RETURNDATACOPY RETURNDATASIZE PUSH1 0x0 REVERT JUMPDEST POP POP POP POP PUSH1 0x40 MLOAD RETURNDATASIZE PUSH1 0x1F NOT PUSH1 0x1F DUP3 ADD AND DUP3 ADD DUP1 PUSH1 0x40 MSTORE POP DUP2 ADD SWAP1 PUSH2 0x1E2 SWAP2 SWAP1 PUSH2 0x64F JUMP JUMPDEST DUP6 PUSH2 0x1EE DUP7 PUSH1 0x2 PUSH2 0x4A9 JUMP JUMPDEST DUP2 MLOAD DUP2 LT PUSH2 0x1FE JUMPI PUSH2 0x1FE PUSH2 0x66C JUMP JUMPDEST PUSH1 0x20 ADD ADD SWAP1 PUSH1 0x1 PUSH1 0x1 PUSH1 0xF8 SHL SUB NOT AND SWAP1 DUP2 PUSH1 0x0 BYTE SWAP1 MSTORE8 POP PUSH1 0x40 MLOAD PUSH4 0x69F9AD2F PUSH1 0xE0 SHL DUP2 MSTORE PUSH1 0x1 PUSH1 0x1 PUSH1 0xF8 SHL SUB NOT DUP3 AND PUSH1 0x4 DUP3 ADD MSTORE ADDRESS SWAP1 PUSH4 0x69F9AD2F SWAP1 PUSH1 0x24 ADD PUSH1 0x20 PUSH1 0x40 MLOAD DUP1 DUP4 SUB DUP2 DUP7 GAS STATICCALL ISZERO DUP1 ISZERO PUSH2 0x25A JUMPI RETURNDATASIZE PUSH1 0x0 DUP1 RETURNDATACOPY RETURNDATASIZE PUSH1 0x0 REVERT JUMPDEST POP POP POP POP PUSH1 0x40 MLOAD RETURNDATASIZE PUSH1 0x1F NOT PUSH1 0x1F DUP3 ADD AND DUP3 ADD DUP1 PUSH1 0x40 MSTORE POP DUP2 ADD SWAP1 PUSH2 0x27E SWAP2 SWAP1 PUSH2 0x64F JUMP JUMPDEST DUP6 PUSH2 0x28A DUP7 PUSH1 0x2 PUSH2 0x4A9 JUMP JUMPDEST PUSH2 0x295 SWAP1 PUSH1 0x1 PUSH2 0x682 JUMP JUMPDEST DUP2 MLOAD DUP2 LT PUSH2 0x2A5 JUMPI PUSH2 0x2A5 PUSH2 0x66C JUMP JUMPDEST PUSH1 0x20 ADD ADD SWAP1 PUSH1 0x1 PUSH1 0x1 PUSH1 0xF8 SHL SUB NOT AND SWAP1 DUP2 PUSH1 0x0 BYTE SWAP1 MSTORE8 POP POP POP POP DUP1 DUP1 PUSH2 0x2CA SWAP1 PUSH2 0x69A JUMP JUMPDEST SWAP2 POP POP PUSH2 0xF6 JUMP JUMPDEST POP SWAP3 SWAP2 POP POP JUMP JUMPDEST PUSH1 0x0 PUSH1 0xA PUSH1 0xF8 DUP4 SWAP1 SHR LT ISZERO PUSH2 0x300 JUMPI PUSH2 0x2F7 PUSH1 0xF8 DUP4 SWAP1 SHR PUSH1 0x30 PUSH2 0x6B5 JUMP JUMPDEST PUSH1 0xF8 SHL SWAP3 SWAP2 POP POP JUMP JUMPDEST PUSH2 0x2F7 PUSH1 0xF8 DUP4 SWAP1 SHR PUSH1 0x57 PUSH2 0x6B5 JUMP JUMPDEST PUSH1 0x40 DUP1 MLOAD PUSH1 0x0 PUSH1 0x20 DUP1 DUP4 ADD DUP3 SWAP1 MSTORE TIMESTAMP DUP4 DUP6 ADD MSTORE DIFFICULTY PUSH1 0x60 DUP1 DUP6 ADD SWAP2 SWAP1 SWAP2 MSTORE COINBASE SWAP1 SHL PUSH12 0xFFFFFFFFFFFFFFFFFFFFFFFF NOT AND PUSH1 0x80 DUP5 ADD MSTORE DUP4 MLOAD DUP1 DUP5 SUB PUSH1 0x74 ADD DUP2 MSTORE PUSH1 0x94 SWAP1 SWAP4 ADD SWAP1 SWAP4 MSTORE DUP2 MLOAD SWAP2 SWAP1 SWAP3 ADD KECCAK256 DUP2 SWAP1 DUP2 PUSH2 0x368 DUP2 PUSH2 0x69A JUMP JUMPDEST POP SWAP1 SWAP4 SWAP3 POP POP POP JUMP JUMPDEST PUSH1 0x0 DUP1 PUSH2 0x37E DUP4 DUP6 PUSH2 0x5D5 JUMP JUMPDEST SWAP1 POP PUSH2 0x38A DUP4 DUP6 PUSH2 0x6DA JUMP JUMPDEST ISZERO PUSH2 0x39D JUMPI PUSH2 0x39A DUP2 PUSH1 0x1 PUSH2 0x682 JUMP JUMPDEST SWAP1 POP JUMPDEST SWAP1 POP JUMPDEST SWAP3 SWAP2 POP POP JUMP JUMPDEST PUSH1 0x0 PUSH1 0x20 DUP3 DUP5 SUB SLT ISZERO PUSH2 0x3B8 JUMPI PUSH1 0x0 DUP1 REVERT JUMPDEST DUP2 CALLDATALOAD PUSH1 0x1 PUSH1 0x1 PUSH1 0xA0 SHL SUB DUP2 AND DUP2 EQ PUSH2 0x39D JUMPI PUSH1 0x0 DUP1 REVERT JUMPDEST PUSH1 0x0 PUSH1 0x20 DUP1 DUP4 MSTORE DUP4 MLOAD DUP1 DUP3 DUP6 ADD MSTORE PUSH1 0x0 JUMPDEST DUP2 DUP2 LT ISZERO PUSH2 0x3FC JUMPI DUP6 DUP2 ADD DUP4 ADD MLOAD DUP6 DUP3 ADD PUSH1 0x40 ADD MSTORE DUP3 ADD PUSH2 0x3E0 JUMP JUMPDEST DUP2 DUP2 GT ISZERO PUSH2 0x40E JUMPI PUSH1 0x0 PUSH1 0x40 DUP4 DUP8 ADD ADD MSTORE JUMPDEST POP PUSH1 0x1F ADD PUSH1 0x1F NOT AND SWAP3 SWAP1 SWAP3 ADD PUSH1 0x40 ADD SWAP4 SWAP3 POP POP POP JUMP JUMPDEST PUSH1 0x1 PUSH1 0x1 PUSH1 0xF8 SHL SUB NOT DUP2 AND DUP2 EQ PUSH2 0x43A JUMPI PUSH1 0x0 DUP1 REVERT JUMPDEST POP JUMP JUMPDEST PUSH1 0x0 PUSH1 0x20 DUP3 DUP5 SUB SLT ISZERO PUSH2 0x44F JUMPI PUSH1 0x0 DUP1 REVERT JUMPDEST DUP2 CALLDATALOAD PUSH2 0x39D DUP2 PUSH2 0x424 JUMP JUMPDEST PUSH1 0x0 DUP1 PUSH1 0x40 DUP4 DUP6 SUB SLT ISZERO PUSH2 0x46D JUMPI PUSH1 0x0 DUP1 REVERT JUMPDEST POP POP DUP1 CALLDATALOAD SWAP3 PUSH1 0x20 SWAP1 SWAP2 ADD CALLDATALOAD SWAP2 POP JUMP JUMPDEST PUSH4 0x4E487B71 PUSH1 0xE0 SHL PUSH1 0x0 MSTORE PUSH1 0x11 PUSH1 0x4 MSTORE PUSH1 0x24 PUSH1 0x0 REVERT JUMPDEST PUSH1 0x0 DUP3 DUP3 LT ISZERO PUSH2 0x4A4 JUMPI PUSH2 0x4A4 PUSH2 0x47C JUMP JUMPDEST POP SUB SWAP1 JUMP JUMPDEST PUSH1 0x0 DUP2 PUSH1 0x0 NOT DIV DUP4 GT DUP3 ISZERO ISZERO AND ISZERO PUSH2 0x4C3 JUMPI PUSH2 0x4C3 PUSH2 0x47C JUMP JUMPDEST POP MUL SWAP1 JUMP JUMPDEST PUSH1 0x1 DUP2 DUP2 JUMPDEST DUP1 DUP6 GT ISZERO PUSH2 0x503 JUMPI DUP2 PUSH1 0x0 NOT DIV DUP3 GT ISZERO PUSH2 0x4E9 JUMPI PUSH2 0x4E9 PUSH2 0x47C JUMP JUMPDEST DUP1 DUP6 AND ISZERO PUSH2 0x4F6 JUMPI SWAP2 DUP2 MUL SWAP2 JUMPDEST SWAP4 DUP5 SHR SWAP4 SWAP1 DUP1 MUL SWAP1 PUSH2 0x4CD JUMP JUMPDEST POP SWAP3 POP SWAP3 SWAP1 POP JUMP JUMPDEST PUSH1 0x0 DUP3 PUSH2 0x51A JUMPI POP PUSH1 0x1 PUSH2 0x3A0 JUMP JUMPDEST DUP2 PUSH2 0x527 JUMPI POP PUSH1 0x0 PUSH2 0x3A0 JUMP JUMPDEST DUP2 PUSH1 0x1 DUP2 EQ PUSH2 0x53D JUMPI PUSH1 0x2 DUP2 EQ PUSH2 0x547 JUMPI PUSH2 0x563 JUMP JUMPDEST PUSH1 0x1 SWAP2 POP POP PUSH2 0x3A0 JUMP JUMPDEST PUSH1 0xFF DUP5 GT ISZERO PUSH2 0x558 JUMPI PUSH2 0x558 PUSH2 0x47C JUMP JUMPDEST POP POP PUSH1 0x1 DUP3 SHL PUSH2 0x3A0 JUMP JUMPDEST POP PUSH1 0x20 DUP4 LT PUSH2 0x133 DUP4 LT AND PUSH1 0x4E DUP5 LT PUSH1 0xB DUP5 LT AND OR ISZERO PUSH2 0x586 JUMPI POP DUP2 DUP2 EXP PUSH2 0x3A0 JUMP JUMPDEST PUSH2 0x590 DUP4 DUP4 PUSH2 0x4C8 JUMP JUMPDEST DUP1 PUSH1 0x0 NOT DIV DUP3 GT ISZERO PUSH2 0x5A4 JUMPI PUSH2 0x5A4 PUSH2 0x47C JUMP JUMPDEST MUL SWAP4 SWAP3 POP POP POP JUMP JUMPDEST PUSH1 0x0 PUSH2 0x5B8 DUP4 DUP4 PUSH2 0x50B JUMP JUMPDEST SWAP4 SWAP3 POP POP POP JUMP JUMPDEST PUSH4 0x4E487B71 PUSH1 0xE0 SHL PUSH1 0x0 MSTORE PUSH1 0x12 PUSH1 0x4 MSTORE PUSH1 0x24 PUSH1 0x0 REVERT JUMPDEST PUSH1 0x0 DUP3 PUSH2 0x5E4 JUMPI PUSH2 0x5E4 PUSH2 0x5BF JUMP JUMPDEST POP DIV SWAP1 JUMP JUMPDEST PUSH1 0x0 PUSH1 0xFF DUP4 AND DUP1 PUSH2 0x5FC JUMPI PUSH2 0x5FC PUSH2 0x5BF JUMP JUMPDEST DUP1 PUSH1 0xFF DUP5 AND DIV SWAP2 POP POP SWAP3 SWAP2 POP POP JUMP JUMPDEST PUSH1 0x0 PUSH1 0xFF DUP3 AND PUSH1 0xFF DUP5 AND DUP2 PUSH1 0xFF DIV DUP2 GT DUP3 ISZERO ISZERO AND ISZERO PUSH2 0x5A4 JUMPI PUSH2 0x5A4 PUSH2 0x47C JUMP JUMPDEST PUSH1 0x0 PUSH1 0xFF DUP3 AND PUSH1 0xFF DUP5 AND DUP1 DUP3 LT ISZERO PUSH2 0x646 JUMPI PUSH2 0x646 PUSH2 0x47C JUMP JUMPDEST SWAP1 SUB SWAP4 SWAP3 POP POP POP JUMP JUMPDEST PUSH1 0x0 PUSH1 0x20 DUP3 DUP5 SUB SLT ISZERO PUSH2 0x661 JUMPI PUSH1 0x0 DUP1 REVERT JUMPDEST DUP2 MLOAD PUSH2 0x39D DUP2 PUSH2 0x424 JUMP JUMPDEST PUSH4 0x4E487B71 PUSH1 0xE0 SHL PUSH1 0x0 MSTORE PUSH1 0x32 PUSH1 0x4 MSTORE PUSH1 0x24 PUSH1 0x0 REVERT JUMPDEST PUSH1 0x0 DUP3 NOT DUP3 GT ISZERO PUSH2 0x695 JUMPI PUSH2 0x695 PUSH2 0x47C JUMP JUMPDEST POP ADD SWAP1 JUMP JUMPDEST PUSH1 0x0 PUSH1 0x0 NOT DUP3 EQ ISZERO PUSH2 0x6AE JUMPI PUSH2 0x6AE PUSH2 0x47C JUMP JUMPDEST POP PUSH1 0x1 ADD SWAP1 JUMP JUMPDEST PUSH1 0x0 PUSH1 0xFF DUP3 AND PUSH1 0xFF DUP5 AND DUP1 PUSH1 0xFF SUB DUP3 GT ISZERO PUSH2 0x6D2 JUMPI PUSH2 0x6D2 PUSH2 0x47C JUMP JUMPDEST ADD SWAP4 SWAP3 POP POP POP JUMP JUMPDEST PUSH1 0x0 DUP3 PUSH2 0x6E9 JUMPI PUSH2 0x6E9 PUSH2 0x5BF JUMP JUMPDEST POP MOD SWAP1 JUMP INVALID LOG2 PUSH5 0x6970667358 0x22 SLT KECCAK256 0xC4 PUSH3 0x53C53E CALL SWAP5 0xD6 EXTCODEHASH COINBASE 0xC9 EXTCODEHASH 0xB1 SMOD OR EXP PUSH7 0xC061EF365DBF58 0xB0 PUSH25 0x2A6A752FBE5164736F6C634300080C00330000000000000000 "
				},
				"gasEstimates": {
					"creation": {
						"codeDepositCost": "365600",
						"executionCost": "405",
						"totalCost": "366005"
					},
					"external": {
						"char(bytes1)": "545",
						"divideAndRoundUp(uint256,uint256)": "584",
						"generateGUID()": "556",
						"toAsciiString(address)": "infinite"
					}
				},
				"methodIdentifiers": {
					"char(bytes1)": "69f9ad2f",
					"divideAndRoundUp(uint256,uint256)": "fd3bad52",
					"generateGUID()": "efc6c18c",
					"toAsciiString(address)": "2c6e7598"
				}
			},
			"storageLayout": {
				"storage": [],
				"types": null
			},
			"userdoc": {
				"kind": "user",
				"methods": {},
				"version": 1
			}
		}
	}
}