{
	"OnDemo/contracts/AccountManagement.sol": {
		"AccountManagement": {
			"abi": [
				{
					"inputs": [
						{
							"internalType": "string",
							"name": "_firstName",
							"type": "string"
						},
						{
							"internalType": "string",
							"name": "_secondName",
							"type": "string"
						},
						{
							"internalType": "string",
							"name": "_mailAdress",
							"type": "string"
						}
					],
					"stateMutability": "nonpayable",
					"type": "constructor"
				},
				{
					"inputs": [],
					"name": "activeMemberCount",
					"outputs": [
						{
							"internalType": "uint256",
							"name": "",
							"type": "uint256"
						}
					],
					"stateMutability": "view",
					"type": "function"
				},
				{
					"inputs": [
						{
							"internalType": "address",
							"name": "_address",
							"type": "address"
						},
						{
							"internalType": "enum AccountManagement.Role",
							"name": "_role",
							"type": "uint8"
						}
					],
					"name": "assignRole",
					"outputs": [],
					"stateMutability": "nonpayable",
					"type": "function"
				},
				{
					"inputs": [
						{
							"internalType": "address",
							"name": "_address",
							"type": "address"
						}
					],
					"name": "burnAccount",
					"outputs": [],
					"stateMutability": "nonpayable",
					"type": "function"
				},
				{
					"inputs": [
						{
							"internalType": "address",
							"name": "_address",
							"type": "address"
						},
						{
							"internalType": "string",
							"name": "_firstName",
							"type": "string"
						},
						{
							"internalType": "string",
							"name": "_secondName",
							"type": "string"
						},
						{
							"internalType": "string",
							"name": "_mailAdress",
							"type": "string"
						}
					],
					"name": "createAccount",
					"outputs": [],
					"stateMutability": "nonpayable",
					"type": "function"
				},
				{
					"inputs": [],
					"name": "getActiveMemberCount",
					"outputs": [
						{
							"internalType": "uint256",
							"name": "",
							"type": "uint256"
						}
					],
					"stateMutability": "view",
					"type": "function"
				},
				{
					"inputs": [
						{
							"internalType": "address",
							"name": "_address",
							"type": "address"
						}
					],
					"name": "getUser",
					"outputs": [
						{
							"components": [
								{
									"internalType": "address",
									"name": "userAddress",
									"type": "address"
								},
								{
									"internalType": "string",
									"name": "firstName",
									"type": "string"
								},
								{
									"internalType": "string",
									"name": "secondName",
									"type": "string"
								},
								{
									"internalType": "string",
									"name": "mailAdress",
									"type": "string"
								},
								{
									"internalType": "bool",
									"name": "isActive",
									"type": "bool"
								},
								{
									"components": [
										{
											"internalType": "bool",
											"name": "isLeader",
											"type": "bool"
										},
										{
											"internalType": "bool",
											"name": "isCouncilMember",
											"type": "bool"
										},
										{
											"internalType": "bool",
											"name": "isMember",
											"type": "bool"
										},
										{
											"internalType": "bool",
											"name": "isGuest",
											"type": "bool"
										}
									],
									"internalType": "struct AccountManagement.RoleMap",
									"name": "roleMap",
									"type": "tuple"
								}
							],
							"internalType": "struct AccountManagement.User",
							"name": "",
							"type": "tuple"
						}
					],
					"stateMutability": "view",
					"type": "function"
				},
				{
					"inputs": [
						{
							"internalType": "address",
							"name": "_address",
							"type": "address"
						}
					],
					"name": "hasCouncilMemberRole",
					"outputs": [
						{
							"internalType": "bool",
							"name": "",
							"type": "bool"
						}
					],
					"stateMutability": "view",
					"type": "function"
				},
				{
					"inputs": [
						{
							"internalType": "address",
							"name": "_address",
							"type": "address"
						}
					],
					"name": "hasGuestRole",
					"outputs": [
						{
							"internalType": "bool",
							"name": "",
							"type": "bool"
						}
					],
					"stateMutability": "view",
					"type": "function"
				},
				{
					"inputs": [
						{
							"internalType": "address",
							"name": "_address",
							"type": "address"
						}
					],
					"name": "hasLeaderRole",
					"outputs": [
						{
							"internalType": "bool",
							"name": "",
							"type": "bool"
						}
					],
					"stateMutability": "view",
					"type": "function"
				},
				{
					"inputs": [
						{
							"internalType": "address",
							"name": "_address",
							"type": "address"
						}
					],
					"name": "hasMemberRole",
					"outputs": [
						{
							"internalType": "bool",
							"name": "",
							"type": "bool"
						}
					],
					"stateMutability": "view",
					"type": "function"
				},
				{
					"inputs": [
						{
							"internalType": "address",
							"name": "_address",
							"type": "address"
						}
					],
					"name": "hasRightToCreateReferendum",
					"outputs": [
						{
							"internalType": "bool",
							"name": "",
							"type": "bool"
						}
					],
					"stateMutability": "view",
					"type": "function"
				},
				{
					"inputs": [
						{
							"internalType": "address",
							"name": "_address",
							"type": "address"
						}
					],
					"name": "hasRightToSupport",
					"outputs": [
						{
							"internalType": "bool",
							"name": "",
							"type": "bool"
						}
					],
					"stateMutability": "view",
					"type": "function"
				},
				{
					"inputs": [
						{
							"internalType": "address",
							"name": "_address",
							"type": "address"
						}
					],
					"name": "hasRightToVote",
					"outputs": [
						{
							"internalType": "bool",
							"name": "",
							"type": "bool"
						}
					],
					"stateMutability": "view",
					"type": "function"
				},
				{
					"inputs": [
						{
							"internalType": "address",
							"name": "_address",
							"type": "address"
						}
					],
					"name": "makeAccountActive",
					"outputs": [],
					"stateMutability": "nonpayable",
					"type": "function"
				},
				{
					"inputs": [
						{
							"internalType": "address",
							"name": "_address",
							"type": "address"
						}
					],
					"name": "makeAccountPassive",
					"outputs": [],
					"stateMutability": "nonpayable",
					"type": "function"
				},
				{
					"inputs": [],
					"name": "owner",
					"outputs": [
						{
							"internalType": "address",
							"name": "",
							"type": "address"
						}
					],
					"stateMutability": "view",
					"type": "function"
				},
				{
					"inputs": [
						{
							"internalType": "address",
							"name": "_address",
							"type": "address"
						},
						{
							"internalType": "enum AccountManagement.Role",
							"name": "_role",
							"type": "uint8"
						}
					],
					"name": "removeRole",
					"outputs": [],
					"stateMutability": "nonpayable",
					"type": "function"
				},
				{
					"inputs": [],
					"name": "testAccountManagement",
					"outputs": [],
					"stateMutability": "nonpayable",
					"type": "function"
				}
			],
			"devdoc": {
				"kind": "dev",
				"methods": {},
				"version": 1
			},
			"evm": {
				"assembly": "    /* \"OnDemo/contracts/AccountManagement.sol\":74:10764  contract AccountManagement {... */\n  mstore(0x40, 0x80)\n    /* \"OnDemo/contracts/AccountManagement.sol\":1138:1480  constructor(string memory _firstName, string memory _secondName, string memory _mailAdress) {... */\n  callvalue\n  dup1\n  iszero\n  tag_1\n  jumpi\n  0x00\n  dup1\n  revert\ntag_1:\n  pop\n  mload(0x40)\n  sub(codesize, bytecodeSize)\n  dup1\n  bytecodeSize\n  dup4\n  codecopy\n  dup2\n  dup2\n  add\n  0x40\n  mstore\n  dup2\n  add\n  swap1\n  tag_2\n  swap2\n  swap1\n  tag_3\n  jump\t// in\ntag_2:\n    /* \"OnDemo/contracts/AccountManagement.sol\":1249:1259  msg.sender */\n  caller\n    /* \"OnDemo/contracts/AccountManagement.sol\":1241:1246  owner */\n  0x01\n  0x00\n    /* \"OnDemo/contracts/AccountManagement.sol\":1241:1259  owner = msg.sender */\n  0x0100\n  exp\n  dup2\n  sload\n  dup2\n  0xffffffffffffffffffffffffffffffffffffffff\n  mul\n  not\n  and\n  swap1\n  dup4\n  0xffffffffffffffffffffffffffffffffffffffff\n  and\n  mul\n  or\n  swap1\n  sstore\n  pop\n    /* \"OnDemo/contracts/AccountManagement.sol\":1270:1333  createAccount(msg.sender, _firstName, _secondName, _mailAdress) */\n  tag_6\n    /* \"OnDemo/contracts/AccountManagement.sol\":1284:1294  msg.sender */\n  caller\n    /* \"OnDemo/contracts/AccountManagement.sol\":1296:1306  _firstName */\n  dup5\n    /* \"OnDemo/contracts/AccountManagement.sol\":1308:1319  _secondName */\n  dup5\n    /* \"OnDemo/contracts/AccountManagement.sol\":1321:1332  _mailAdress */\n  dup5\n    /* \"OnDemo/contracts/AccountManagement.sol\":1270:1283  createAccount */\n  shl(0x20, tag_7)\n    /* \"OnDemo/contracts/AccountManagement.sol\":1270:1333  createAccount(msg.sender, _firstName, _secondName, _mailAdress) */\n  0x20\n  shr\n  jump\t// in\ntag_6:\n    /* \"OnDemo/contracts/AccountManagement.sol\":1350:1385  assignRole(msg.sender, Role.LEADER) */\n  tag_8\n    /* \"OnDemo/contracts/AccountManagement.sol\":1361:1371  msg.sender */\n  caller\n    /* \"OnDemo/contracts/AccountManagement.sol\":1373:1384  Role.LEADER */\n  0x00\n    /* \"OnDemo/contracts/AccountManagement.sol\":1350:1360  assignRole */\n  shl(0x20, tag_9)\n    /* \"OnDemo/contracts/AccountManagement.sol\":1350:1385  assignRole(msg.sender, Role.LEADER) */\n  0x20\n  shr\n  jump\t// in\ntag_8:\n    /* \"OnDemo/contracts/AccountManagement.sol\":1396:1430  removeRole(msg.sender, Role.GUEST) */\n  tag_10\n    /* \"OnDemo/contracts/AccountManagement.sol\":1407:1417  msg.sender */\n  caller\n    /* \"OnDemo/contracts/AccountManagement.sol\":1419:1429  Role.GUEST */\n  0x03\n    /* \"OnDemo/contracts/AccountManagement.sol\":1396:1406  removeRole */\n  shl(0x20, tag_11)\n    /* \"OnDemo/contracts/AccountManagement.sol\":1396:1430  removeRole(msg.sender, Role.GUEST) */\n  0x20\n  shr\n  jump\t// in\ntag_10:\n    /* \"OnDemo/contracts/AccountManagement.sol\":1443:1472  makeAccountActive(msg.sender) */\n  tag_12\n    /* \"OnDemo/contracts/AccountManagement.sol\":1461:1471  msg.sender */\n  caller\n    /* \"OnDemo/contracts/AccountManagement.sol\":1443:1460  makeAccountActive */\n  shl(0x20, tag_13)\n    /* \"OnDemo/contracts/AccountManagement.sol\":1443:1472  makeAccountActive(msg.sender) */\n  0x20\n  shr\n  jump\t// in\ntag_12:\n    /* \"OnDemo/contracts/AccountManagement.sol\":1138:1480  constructor(string memory _firstName, string memory _secondName, string memory _mailAdress) {... */\n  pop\n  pop\n  pop\n    /* \"OnDemo/contracts/AccountManagement.sol\":74:10764  contract AccountManagement {... */\n  jump(tag_14)\n    /* \"OnDemo/contracts/AccountManagement.sol\":2361:2726  function createAccount(address _address, string memory _firstName, string memory _secondName, string memory _mailAdress) public userNotExists(_address){... */\ntag_7:\n    /* \"OnDemo/contracts/AccountManagement.sol\":2503:2511  _address */\n  dup4\n    /* \"OnDemo/contracts/AccountManagement.sol\":2165:2166  0 */\n  0x00\n    /* \"OnDemo/contracts/AccountManagement.sol\":2126:2167  users[_address].userAddress == address(0) */\n  0xffffffffffffffffffffffffffffffffffffffff\n  and\n    /* \"OnDemo/contracts/AccountManagement.sol\":2126:2131  users */\n  0x02\n    /* \"OnDemo/contracts/AccountManagement.sol\":2126:2141  users[_address] */\n  0x00\n    /* \"OnDemo/contracts/AccountManagement.sol\":2132:2140  _address */\n  dup4\n    /* \"OnDemo/contracts/AccountManagement.sol\":2126:2141  users[_address] */\n  0xffffffffffffffffffffffffffffffffffffffff\n  and\n  0xffffffffffffffffffffffffffffffffffffffff\n  and\n  dup2\n  mstore\n  0x20\n  add\n  swap1\n  dup2\n  mstore\n  0x20\n  add\n  0x00\n  keccak256\n    /* \"OnDemo/contracts/AccountManagement.sol\":2126:2153  users[_address].userAddress */\n  0x00\n  add\n  0x00\n  swap1\n  sload\n  swap1\n  0x0100\n  exp\n  swap1\n  div\n  0xffffffffffffffffffffffffffffffffffffffff\n  and\n    /* \"OnDemo/contracts/AccountManagement.sol\":2126:2167  users[_address].userAddress == address(0) */\n  0xffffffffffffffffffffffffffffffffffffffff\n  and\n  eq\n    /* \"OnDemo/contracts/AccountManagement.sol\":2118:2194  require(users[_address].userAddress == address(0), \"Account already exists\") */\n  tag_16\n  jumpi\n  mload(0x40)\n  0x08c379a000000000000000000000000000000000000000000000000000000000\n  dup2\n  mstore\n  0x04\n  add\n  tag_17\n  swap1\n  tag_18\n  jump\t// in\ntag_17:\n  mload(0x40)\n  dup1\n  swap2\n  sub\n  swap1\n  revert\ntag_16:\n    /* \"OnDemo/contracts/AccountManagement.sol\":2523:2545  RoleMap memory roleMap */\n  0x00\n    /* \"OnDemo/contracts/AccountManagement.sol\":2548:2582  RoleMap(false, false, false, true) */\n  mload(0x40)\n  dup1\n  0x80\n  add\n  0x40\n  mstore\n  dup1\n    /* \"OnDemo/contracts/AccountManagement.sol\":2556:2561  false */\n  0x00\n    /* \"OnDemo/contracts/AccountManagement.sol\":2548:2582  RoleMap(false, false, false, true) */\n  iszero\n  iszero\n  dup2\n  mstore\n  0x20\n  add\n    /* \"OnDemo/contracts/AccountManagement.sol\":2563:2568  false */\n  0x00\n    /* \"OnDemo/contracts/AccountManagement.sol\":2548:2582  RoleMap(false, false, false, true) */\n  iszero\n  iszero\n  dup2\n  mstore\n  0x20\n  add\n    /* \"OnDemo/contracts/AccountManagement.sol\":2570:2575  false */\n  0x00\n    /* \"OnDemo/contracts/AccountManagement.sol\":2548:2582  RoleMap(false, false, false, true) */\n  iszero\n  iszero\n  dup2\n  mstore\n  0x20\n  add\n    /* \"OnDemo/contracts/AccountManagement.sol\":2577:2581  true */\n  0x01\n    /* \"OnDemo/contracts/AccountManagement.sol\":2548:2582  RoleMap(false, false, false, true) */\n  iszero\n  iszero\n  dup2\n  mstore\n  pop\n    /* \"OnDemo/contracts/AccountManagement.sol\":2523:2582  RoleMap memory roleMap = RoleMap(false, false, false, true) */\n  swap1\n  pop\n    /* \"OnDemo/contracts/AccountManagement.sol\":2593:2609  User memory user */\n  0x00\n    /* \"OnDemo/contracts/AccountManagement.sol\":2612:2680  User(_address, _firstName, _secondName, _mailAdress, false, roleMap) */\n  mload(0x40)\n  dup1\n  0xc0\n  add\n  0x40\n  mstore\n  dup1\n    /* \"OnDemo/contracts/AccountManagement.sol\":2617:2625  _address */\n  dup9\n    /* \"OnDemo/contracts/AccountManagement.sol\":2612:2680  User(_address, _firstName, _secondName, _mailAdress, false, roleMap) */\n  0xffffffffffffffffffffffffffffffffffffffff\n  and\n  dup2\n  mstore\n  0x20\n  add\n    /* \"OnDemo/contracts/AccountManagement.sol\":2627:2637  _firstName */\n  dup8\n    /* \"OnDemo/contracts/AccountManagement.sol\":2612:2680  User(_address, _firstName, _secondName, _mailAdress, false, roleMap) */\n  dup2\n  mstore\n  0x20\n  add\n    /* \"OnDemo/contracts/AccountManagement.sol\":2639:2650  _secondName */\n  dup7\n    /* \"OnDemo/contracts/AccountManagement.sol\":2612:2680  User(_address, _firstName, _secondName, _mailAdress, false, roleMap) */\n  dup2\n  mstore\n  0x20\n  add\n    /* \"OnDemo/contracts/AccountManagement.sol\":2652:2663  _mailAdress */\n  dup6\n    /* \"OnDemo/contracts/AccountManagement.sol\":2612:2680  User(_address, _firstName, _secondName, _mailAdress, false, roleMap) */\n  dup2\n  mstore\n  0x20\n  add\n    /* \"OnDemo/contracts/AccountManagement.sol\":2665:2670  false */\n  0x00\n    /* \"OnDemo/contracts/AccountManagement.sol\":2612:2680  User(_address, _firstName, _secondName, _mailAdress, false, roleMap) */\n  iszero\n  iszero\n  dup2\n  mstore\n  0x20\n  add\n    /* \"OnDemo/contracts/AccountManagement.sol\":2672:2679  roleMap */\n  dup4\n    /* \"OnDemo/contracts/AccountManagement.sol\":2612:2680  User(_address, _firstName, _secondName, _mailAdress, false, roleMap) */\n  dup2\n  mstore\n  pop\n    /* \"OnDemo/contracts/AccountManagement.sol\":2593:2680  User memory user = User(_address, _firstName, _secondName, _mailAdress, false, roleMap) */\n  swap1\n  pop\n    /* \"OnDemo/contracts/AccountManagement.sol\":2709:2713  user */\n  dup1\n    /* \"OnDemo/contracts/AccountManagement.sol\":2691:2696  users */\n  0x02\n    /* \"OnDemo/contracts/AccountManagement.sol\":2691:2706  users[_address] */\n  0x00\n    /* \"OnDemo/contracts/AccountManagement.sol\":2697:2705  _address */\n  dup10\n    /* \"OnDemo/contracts/AccountManagement.sol\":2691:2706  users[_address] */\n  0xffffffffffffffffffffffffffffffffffffffff\n  and\n  0xffffffffffffffffffffffffffffffffffffffff\n  and\n  dup2\n  mstore\n  0x20\n  add\n  swap1\n  dup2\n  mstore\n  0x20\n  add\n  0x00\n  keccak256\n    /* \"OnDemo/contracts/AccountManagement.sol\":2691:2713  users[_address] = user */\n  0x00\n  dup3\n  add\n  mload\n  dup2\n  0x00\n  add\n  exp(0x0100, 0x00)\n  dup2\n  sload\n  dup2\n  0xffffffffffffffffffffffffffffffffffffffff\n  mul\n  not\n  and\n  swap1\n  dup4\n  0xffffffffffffffffffffffffffffffffffffffff\n  and\n  mul\n  or\n  swap1\n  sstore\n  pop\n  0x20\n  dup3\n  add\n  mload\n  dup2\n  0x01\n  add\n  swap1\n  dup1\n  mload\n  swap1\n  0x20\n  add\n  swap1\n  tag_20\n  swap3\n  swap2\n  swap1\n  tag_21\n  jump\t// in\ntag_20:\n  pop\n  0x40\n  dup3\n  add\n  mload\n  dup2\n  0x02\n  add\n  swap1\n  dup1\n  mload\n  swap1\n  0x20\n  add\n  swap1\n  tag_22\n  swap3\n  swap2\n  swap1\n  tag_21\n  jump\t// in\ntag_22:\n  pop\n  0x60\n  dup3\n  add\n  mload\n  dup2\n  0x03\n  add\n  swap1\n  dup1\n  mload\n  swap1\n  0x20\n  add\n  swap1\n  tag_23\n  swap3\n  swap2\n  swap1\n  tag_21\n  jump\t// in\ntag_23:\n  pop\n  0x80\n  dup3\n  add\n  mload\n  dup2\n  0x04\n  add\n  exp(0x0100, 0x00)\n  dup2\n  sload\n  dup2\n  0xff\n  mul\n  not\n  and\n  swap1\n  dup4\n  iszero\n  iszero\n  mul\n  or\n  swap1\n  sstore\n  pop\n  0xa0\n  dup3\n  add\n  mload\n  dup2\n  0x05\n  add\n  0x00\n  dup3\n  add\n  mload\n  dup2\n  0x00\n  add\n  exp(0x0100, 0x00)\n  dup2\n  sload\n  dup2\n  0xff\n  mul\n  not\n  and\n  swap1\n  dup4\n  iszero\n  iszero\n  mul\n  or\n  swap1\n  sstore\n  pop\n  0x20\n  dup3\n  add\n  mload\n  dup2\n  0x00\n  add\n  exp(0x0100, 0x01)\n  dup2\n  sload\n  dup2\n  0xff\n  mul\n  not\n  and\n  swap1\n  dup4\n  iszero\n  iszero\n  mul\n  or\n  swap1\n  sstore\n  pop\n  0x40\n  dup3\n  add\n  mload\n  dup2\n  0x00\n  add\n  exp(0x0100, 0x02)\n  dup2\n  sload\n  dup2\n  0xff\n  mul\n  not\n  and\n  swap1\n  dup4\n  iszero\n  iszero\n  mul\n  or\n  swap1\n  sstore\n  pop\n  0x60\n  dup3\n  add\n  mload\n  dup2\n  0x00\n  add\n  exp(0x0100, 0x03)\n  dup2\n  sload\n  dup2\n  0xff\n  mul\n  not\n  and\n  swap1\n  dup4\n  iszero\n  iszero\n  mul\n  or\n  swap1\n  sstore\n  pop\n  pop\n  pop\n  swap1\n  pop\n  pop\n    /* \"OnDemo/contracts/AccountManagement.sol\":2512:2726  {... */\n  pop\n  pop\n    /* \"OnDemo/contracts/AccountManagement.sol\":2361:2726  function createAccount(address _address, string memory _firstName, string memory _secondName, string memory _mailAdress) public userNotExists(_address){... */\n  pop\n  pop\n  pop\n  pop\n  pop\n  jump\t// out\n    /* \"OnDemo/contracts/AccountManagement.sol\":3929:4492  function assignRole(address _address, Role _role) public onlyLeader userExists(_address){... */\ntag_9:\n    /* \"OnDemo/contracts/AccountManagement.sol\":1810:1815  owner */\n  0x01\n  0x00\n  swap1\n  sload\n  swap1\n  0x0100\n  exp\n  swap1\n  div\n  0xffffffffffffffffffffffffffffffffffffffff\n  and\n    /* \"OnDemo/contracts/AccountManagement.sol\":1796:1815  msg.sender == owner */\n  0xffffffffffffffffffffffffffffffffffffffff\n  and\n    /* \"OnDemo/contracts/AccountManagement.sol\":1796:1806  msg.sender */\n  caller\n    /* \"OnDemo/contracts/AccountManagement.sol\":1796:1815  msg.sender == owner */\n  0xffffffffffffffffffffffffffffffffffffffff\n  and\n  eq\n    /* \"OnDemo/contracts/AccountManagement.sol\":1796:1849  msg.sender == owner || this.hasLeaderRole(msg.sender) */\n  dup1\n  tag_25\n  jumpi\n  pop\n    /* \"OnDemo/contracts/AccountManagement.sol\":1819:1823  this */\n  address\n    /* \"OnDemo/contracts/AccountManagement.sol\":1819:1837  this.hasLeaderRole */\n  0xffffffffffffffffffffffffffffffffffffffff\n  and\n  0x297027d5\n    /* \"OnDemo/contracts/AccountManagement.sol\":1838:1848  msg.sender */\n  caller\n    /* \"OnDemo/contracts/AccountManagement.sol\":1819:1849  this.hasLeaderRole(msg.sender) */\n  mload(0x40)\n  dup3\n  0xffffffff\n  and\n  0xe0\n  shl\n  dup2\n  mstore\n  0x04\n  add\n  tag_26\n  swap2\n  swap1\n  tag_27\n  jump\t// in\ntag_26:\n  0x20\n  mload(0x40)\n  dup1\n  dup4\n  sub\n  dup2\n  dup7\n  gas\n  staticcall\n  iszero\n  dup1\n  iszero\n  tag_29\n  jumpi\n  returndatasize\n  0x00\n  dup1\n  returndatacopy\n  revert(0x00, returndatasize)\ntag_29:\n  pop\n  pop\n  pop\n  pop\n  mload(0x40)\n  returndatasize\n  not(0x1f)\n  0x1f\n  dup3\n  add\n  and\n  dup3\n  add\n  dup1\n  0x40\n  mstore\n  pop\n  dup2\n  add\n  swap1\n  tag_30\n  swap2\n  swap1\n  tag_31\n  jump\t// in\ntag_30:\n    /* \"OnDemo/contracts/AccountManagement.sol\":1796:1849  msg.sender == owner || this.hasLeaderRole(msg.sender) */\ntag_25:\n    /* \"OnDemo/contracts/AccountManagement.sol\":1788:1888  require(msg.sender == owner || this.hasLeaderRole(msg.sender), \"Only owner can call this function.\") */\n  tag_32\n  jumpi\n  mload(0x40)\n  0x08c379a000000000000000000000000000000000000000000000000000000000\n  dup2\n  mstore\n  0x04\n  add\n  tag_33\n  swap1\n  tag_34\n  jump\t// in\ntag_33:\n  mload(0x40)\n  dup1\n  swap2\n  sub\n  swap1\n  revert\ntag_32:\n    /* \"OnDemo/contracts/AccountManagement.sol\":4008:4016  _address */\n  dup2\n    /* \"OnDemo/contracts/AccountManagement.sol\":2011:2012  0 */\n  0x00\n    /* \"OnDemo/contracts/AccountManagement.sol\":1972:2013  users[_address].userAddress != address(0) */\n  0xffffffffffffffffffffffffffffffffffffffff\n  and\n    /* \"OnDemo/contracts/AccountManagement.sol\":1972:1977  users */\n  0x02\n    /* \"OnDemo/contracts/AccountManagement.sol\":1972:1987  users[_address] */\n  0x00\n    /* \"OnDemo/contracts/AccountManagement.sol\":1978:1986  _address */\n  dup4\n    /* \"OnDemo/contracts/AccountManagement.sol\":1972:1987  users[_address] */\n  0xffffffffffffffffffffffffffffffffffffffff\n  and\n  0xffffffffffffffffffffffffffffffffffffffff\n  and\n  dup2\n  mstore\n  0x20\n  add\n  swap1\n  dup2\n  mstore\n  0x20\n  add\n  0x00\n  keccak256\n    /* \"OnDemo/contracts/AccountManagement.sol\":1972:1999  users[_address].userAddress */\n  0x00\n  add\n  0x00\n  swap1\n  sload\n  swap1\n  0x0100\n  exp\n  swap1\n  div\n  0xffffffffffffffffffffffffffffffffffffffff\n  and\n    /* \"OnDemo/contracts/AccountManagement.sol\":1972:2013  users[_address].userAddress != address(0) */\n  0xffffffffffffffffffffffffffffffffffffffff\n  and\n  eq\n  iszero\n    /* \"OnDemo/contracts/AccountManagement.sol\":1964:2039  require(users[_address].userAddress != address(0), \"Account doesn't exist\") */\n  tag_36\n  jumpi\n  mload(0x40)\n  0x08c379a000000000000000000000000000000000000000000000000000000000\n  dup2\n  mstore\n  0x04\n  add\n  tag_37\n  swap1\n  tag_38\n  jump\t// in\ntag_37:\n  mload(0x40)\n  dup1\n  swap2\n  sub\n  swap1\n  revert\ntag_36:\n    /* \"OnDemo/contracts/AccountManagement.sol\":4028:4045  User storage user */\n  0x00\n    /* \"OnDemo/contracts/AccountManagement.sol\":4048:4053  users */\n  0x02\n    /* \"OnDemo/contracts/AccountManagement.sol\":4048:4063  users[_address] */\n  0x00\n    /* \"OnDemo/contracts/AccountManagement.sol\":4054:4062  _address */\n  dup6\n    /* \"OnDemo/contracts/AccountManagement.sol\":4048:4063  users[_address] */\n  0xffffffffffffffffffffffffffffffffffffffff\n  and\n  0xffffffffffffffffffffffffffffffffffffffff\n  and\n  dup2\n  mstore\n  0x20\n  add\n  swap1\n  dup2\n  mstore\n  0x20\n  add\n  0x00\n  keccak256\n    /* \"OnDemo/contracts/AccountManagement.sol\":4028:4063  User storage user = users[_address] */\n  swap1\n  pop\n    /* \"OnDemo/contracts/AccountManagement.sol\":4074:4097  RoleMap storage roleMap */\n  0x00\n    /* \"OnDemo/contracts/AccountManagement.sol\":4100:4104  user */\n  dup2\n    /* \"OnDemo/contracts/AccountManagement.sol\":4100:4112  user.roleMap */\n  0x05\n  add\n    /* \"OnDemo/contracts/AccountManagement.sol\":4074:4112  RoleMap storage roleMap = user.roleMap */\n  swap1\n  pop\n    /* \"OnDemo/contracts/AccountManagement.sol\":4137:4148  Role.LEADER */\n  0x00\n    /* \"OnDemo/contracts/AccountManagement.sol\":4128:4148  _role == Role.LEADER */\n  0x03\n  dup2\n  gt\n  iszero\n  tag_40\n  jumpi\n  tag_41\n  tag_42\n  jump\t// in\ntag_41:\ntag_40:\n    /* \"OnDemo/contracts/AccountManagement.sol\":4128:4133  _role */\n  dup5\n    /* \"OnDemo/contracts/AccountManagement.sol\":4128:4148  _role == Role.LEADER */\n  0x03\n  dup2\n  gt\n  iszero\n  tag_43\n  jumpi\n  tag_44\n  tag_42\n  jump\t// in\ntag_44:\ntag_43:\n  eq\n    /* \"OnDemo/contracts/AccountManagement.sol\":4125:4485  if(_role == Role.LEADER){... */\n  iszero\n  tag_45\n  jumpi\n    /* \"OnDemo/contracts/AccountManagement.sol\":4183:4187  true */\n  0x01\n    /* \"OnDemo/contracts/AccountManagement.sol\":4164:4171  roleMap */\n  dup2\n    /* \"OnDemo/contracts/AccountManagement.sol\":4164:4180  roleMap.isLeader */\n  0x00\n  add\n  0x00\n    /* \"OnDemo/contracts/AccountManagement.sol\":4164:4187  roleMap.isLeader = true */\n  0x0100\n  exp\n  dup2\n  sload\n  dup2\n  0xff\n  mul\n  not\n  and\n  swap1\n  dup4\n  iszero\n  iszero\n  mul\n  or\n  swap1\n  sstore\n  pop\n    /* \"OnDemo/contracts/AccountManagement.sol\":4125:4485  if(_role == Role.LEADER){... */\n  jump(tag_46)\ntag_45:\n    /* \"OnDemo/contracts/AccountManagement.sol\":4226:4244  Role.COUNCILMEMBER */\n  0x01\n    /* \"OnDemo/contracts/AccountManagement.sol\":4217:4244  _role == Role.COUNCILMEMBER */\n  0x03\n  dup2\n  gt\n  iszero\n  tag_47\n  jumpi\n  tag_48\n  tag_42\n  jump\t// in\ntag_48:\ntag_47:\n    /* \"OnDemo/contracts/AccountManagement.sol\":4217:4222  _role */\n  dup5\n    /* \"OnDemo/contracts/AccountManagement.sol\":4217:4244  _role == Role.COUNCILMEMBER */\n  0x03\n  dup2\n  gt\n  iszero\n  tag_49\n  jumpi\n  tag_50\n  tag_42\n  jump\t// in\ntag_50:\ntag_49:\n  eq\n    /* \"OnDemo/contracts/AccountManagement.sol\":4214:4485  if(_role == Role.COUNCILMEMBER){... */\n  iszero\n  tag_51\n  jumpi\n    /* \"OnDemo/contracts/AccountManagement.sol\":4286:4290  true */\n  0x01\n    /* \"OnDemo/contracts/AccountManagement.sol\":4260:4267  roleMap */\n  dup2\n    /* \"OnDemo/contracts/AccountManagement.sol\":4260:4283  roleMap.isCouncilMember */\n  0x00\n  add\n  0x01\n    /* \"OnDemo/contracts/AccountManagement.sol\":4260:4290  roleMap.isCouncilMember = true */\n  0x0100\n  exp\n  dup2\n  sload\n  dup2\n  0xff\n  mul\n  not\n  and\n  swap1\n  dup4\n  iszero\n  iszero\n  mul\n  or\n  swap1\n  sstore\n  pop\n    /* \"OnDemo/contracts/AccountManagement.sol\":4214:4485  if(_role == Role.COUNCILMEMBER){... */\n  jump(tag_52)\ntag_51:\n    /* \"OnDemo/contracts/AccountManagement.sol\":4336:4347  Role.MEMBER */\n  0x02\n    /* \"OnDemo/contracts/AccountManagement.sol\":4327:4347  _role == Role.MEMBER */\n  0x03\n  dup2\n  gt\n  iszero\n  tag_53\n  jumpi\n  tag_54\n  tag_42\n  jump\t// in\ntag_54:\ntag_53:\n    /* \"OnDemo/contracts/AccountManagement.sol\":4327:4332  _role */\n  dup5\n    /* \"OnDemo/contracts/AccountManagement.sol\":4327:4347  _role == Role.MEMBER */\n  0x03\n  dup2\n  gt\n  iszero\n  tag_55\n  jumpi\n  tag_56\n  tag_42\n  jump\t// in\ntag_56:\ntag_55:\n  eq\n    /* \"OnDemo/contracts/AccountManagement.sol\":4324:4485  if(_role == Role.MEMBER){... */\n  iszero\n  tag_57\n  jumpi\n    /* \"OnDemo/contracts/AccountManagement.sol\":4382:4386  true */\n  0x01\n    /* \"OnDemo/contracts/AccountManagement.sol\":4363:4370  roleMap */\n  dup2\n    /* \"OnDemo/contracts/AccountManagement.sol\":4363:4379  roleMap.isMember */\n  0x00\n  add\n  0x02\n    /* \"OnDemo/contracts/AccountManagement.sol\":4363:4386  roleMap.isMember = true */\n  0x0100\n  exp\n  dup2\n  sload\n  dup2\n  0xff\n  mul\n  not\n  and\n  swap1\n  dup4\n  iszero\n  iszero\n  mul\n  or\n  swap1\n  sstore\n  pop\n    /* \"OnDemo/contracts/AccountManagement.sol\":4324:4485  if(_role == Role.MEMBER){... */\n  jump(tag_58)\ntag_57:\n    /* \"OnDemo/contracts/AccountManagement.sol\":4425:4435  Role.GUEST */\n  0x03\n    /* \"OnDemo/contracts/AccountManagement.sol\":4416:4435  _role == Role.GUEST */\n  dup1\n  dup2\n  gt\n  iszero\n  tag_59\n  jumpi\n  tag_60\n  tag_42\n  jump\t// in\ntag_60:\ntag_59:\n    /* \"OnDemo/contracts/AccountManagement.sol\":4416:4421  _role */\n  dup5\n    /* \"OnDemo/contracts/AccountManagement.sol\":4416:4435  _role == Role.GUEST */\n  0x03\n  dup2\n  gt\n  iszero\n  tag_61\n  jumpi\n  tag_62\n  tag_42\n  jump\t// in\ntag_62:\ntag_61:\n  eq\n    /* \"OnDemo/contracts/AccountManagement.sol\":4413:4485  if(_role == Role.GUEST){... */\n  iszero\n  tag_63\n  jumpi\n    /* \"OnDemo/contracts/AccountManagement.sol\":4469:4473  true */\n  0x01\n    /* \"OnDemo/contracts/AccountManagement.sol\":4451:4458  roleMap */\n  dup2\n    /* \"OnDemo/contracts/AccountManagement.sol\":4451:4466  roleMap.isGuest */\n  0x00\n  add\n  0x03\n    /* \"OnDemo/contracts/AccountManagement.sol\":4451:4473  roleMap.isGuest = true */\n  0x0100\n  exp\n  dup2\n  sload\n  dup2\n  0xff\n  mul\n  not\n  and\n  swap1\n  dup4\n  iszero\n  iszero\n  mul\n  or\n  swap1\n  sstore\n  pop\n    /* \"OnDemo/contracts/AccountManagement.sol\":4413:4485  if(_role == Role.GUEST){... */\ntag_63:\n    /* \"OnDemo/contracts/AccountManagement.sol\":4324:4485  if(_role == Role.MEMBER){... */\ntag_58:\n    /* \"OnDemo/contracts/AccountManagement.sol\":4214:4485  if(_role == Role.COUNCILMEMBER){... */\ntag_52:\n    /* \"OnDemo/contracts/AccountManagement.sol\":4125:4485  if(_role == Role.LEADER){... */\ntag_46:\n    /* \"OnDemo/contracts/AccountManagement.sol\":4017:4492  {... */\n  pop\n  pop\n    /* \"OnDemo/contracts/AccountManagement.sol\":1899:1900  _ */\n  pop\n    /* \"OnDemo/contracts/AccountManagement.sol\":3929:4492  function assignRole(address _address, Role _role) public onlyLeader userExists(_address){... */\n  pop\n  pop\n  jump\t// out\n    /* \"OnDemo/contracts/AccountManagement.sol\":4500:5077  function removeRole(address _address, Role _role) public onlyLeader userExists(_address){... */\ntag_11:\n    /* \"OnDemo/contracts/AccountManagement.sol\":1810:1815  owner */\n  0x01\n  0x00\n  swap1\n  sload\n  swap1\n  0x0100\n  exp\n  swap1\n  div\n  0xffffffffffffffffffffffffffffffffffffffff\n  and\n    /* \"OnDemo/contracts/AccountManagement.sol\":1796:1815  msg.sender == owner */\n  0xffffffffffffffffffffffffffffffffffffffff\n  and\n    /* \"OnDemo/contracts/AccountManagement.sol\":1796:1806  msg.sender */\n  caller\n    /* \"OnDemo/contracts/AccountManagement.sol\":1796:1815  msg.sender == owner */\n  0xffffffffffffffffffffffffffffffffffffffff\n  and\n  eq\n    /* \"OnDemo/contracts/AccountManagement.sol\":1796:1849  msg.sender == owner || this.hasLeaderRole(msg.sender) */\n  dup1\n  tag_65\n  jumpi\n  pop\n    /* \"OnDemo/contracts/AccountManagement.sol\":1819:1823  this */\n  address\n    /* \"OnDemo/contracts/AccountManagement.sol\":1819:1837  this.hasLeaderRole */\n  0xffffffffffffffffffffffffffffffffffffffff\n  and\n  0x297027d5\n    /* \"OnDemo/contracts/AccountManagement.sol\":1838:1848  msg.sender */\n  caller\n    /* \"OnDemo/contracts/AccountManagement.sol\":1819:1849  this.hasLeaderRole(msg.sender) */\n  mload(0x40)\n  dup3\n  0xffffffff\n  and\n  0xe0\n  shl\n  dup2\n  mstore\n  0x04\n  add\n  tag_66\n  swap2\n  swap1\n  tag_27\n  jump\t// in\ntag_66:\n  0x20\n  mload(0x40)\n  dup1\n  dup4\n  sub\n  dup2\n  dup7\n  gas\n  staticcall\n  iszero\n  dup1\n  iszero\n  tag_68\n  jumpi\n  returndatasize\n  0x00\n  dup1\n  returndatacopy\n  revert(0x00, returndatasize)\ntag_68:\n  pop\n  pop\n  pop\n  pop\n  mload(0x40)\n  returndatasize\n  not(0x1f)\n  0x1f\n  dup3\n  add\n  and\n  dup3\n  add\n  dup1\n  0x40\n  mstore\n  pop\n  dup2\n  add\n  swap1\n  tag_69\n  swap2\n  swap1\n  tag_31\n  jump\t// in\ntag_69:\n    /* \"OnDemo/contracts/AccountManagement.sol\":1796:1849  msg.sender == owner || this.hasLeaderRole(msg.sender) */\ntag_65:\n    /* \"OnDemo/contracts/AccountManagement.sol\":1788:1888  require(msg.sender == owner || this.hasLeaderRole(msg.sender), \"Only owner can call this function.\") */\n  tag_70\n  jumpi\n  mload(0x40)\n  0x08c379a000000000000000000000000000000000000000000000000000000000\n  dup2\n  mstore\n  0x04\n  add\n  tag_71\n  swap1\n  tag_34\n  jump\t// in\ntag_71:\n  mload(0x40)\n  dup1\n  swap2\n  sub\n  swap1\n  revert\ntag_70:\n    /* \"OnDemo/contracts/AccountManagement.sol\":4579:4587  _address */\n  dup2\n    /* \"OnDemo/contracts/AccountManagement.sol\":2011:2012  0 */\n  0x00\n    /* \"OnDemo/contracts/AccountManagement.sol\":1972:2013  users[_address].userAddress != address(0) */\n  0xffffffffffffffffffffffffffffffffffffffff\n  and\n    /* \"OnDemo/contracts/AccountManagement.sol\":1972:1977  users */\n  0x02\n    /* \"OnDemo/contracts/AccountManagement.sol\":1972:1987  users[_address] */\n  0x00\n    /* \"OnDemo/contracts/AccountManagement.sol\":1978:1986  _address */\n  dup4\n    /* \"OnDemo/contracts/AccountManagement.sol\":1972:1987  users[_address] */\n  0xffffffffffffffffffffffffffffffffffffffff\n  and\n  0xffffffffffffffffffffffffffffffffffffffff\n  and\n  dup2\n  mstore\n  0x20\n  add\n  swap1\n  dup2\n  mstore\n  0x20\n  add\n  0x00\n  keccak256\n    /* \"OnDemo/contracts/AccountManagement.sol\":1972:1999  users[_address].userAddress */\n  0x00\n  add\n  0x00\n  swap1\n  sload\n  swap1\n  0x0100\n  exp\n  swap1\n  div\n  0xffffffffffffffffffffffffffffffffffffffff\n  and\n    /* \"OnDemo/contracts/AccountManagement.sol\":1972:2013  users[_address].userAddress != address(0) */\n  0xffffffffffffffffffffffffffffffffffffffff\n  and\n  eq\n  iszero\n    /* \"OnDemo/contracts/AccountManagement.sol\":1964:2039  require(users[_address].userAddress != address(0), \"Account doesn't exist\") */\n  tag_73\n  jumpi\n  mload(0x40)\n  0x08c379a000000000000000000000000000000000000000000000000000000000\n  dup2\n  mstore\n  0x04\n  add\n  tag_74\n  swap1\n  tag_38\n  jump\t// in\ntag_74:\n  mload(0x40)\n  dup1\n  swap2\n  sub\n  swap1\n  revert\ntag_73:\n    /* \"OnDemo/contracts/AccountManagement.sol\":4599:4616  User storage user */\n  0x00\n    /* \"OnDemo/contracts/AccountManagement.sol\":4619:4624  users */\n  0x02\n    /* \"OnDemo/contracts/AccountManagement.sol\":4619:4634  users[_address] */\n  0x00\n    /* \"OnDemo/contracts/AccountManagement.sol\":4625:4633  _address */\n  dup6\n    /* \"OnDemo/contracts/AccountManagement.sol\":4619:4634  users[_address] */\n  0xffffffffffffffffffffffffffffffffffffffff\n  and\n  0xffffffffffffffffffffffffffffffffffffffff\n  and\n  dup2\n  mstore\n  0x20\n  add\n  swap1\n  dup2\n  mstore\n  0x20\n  add\n  0x00\n  keccak256\n    /* \"OnDemo/contracts/AccountManagement.sol\":4599:4634  User storage user = users[_address] */\n  swap1\n  pop\n    /* \"OnDemo/contracts/AccountManagement.sol\":4645:4668  RoleMap storage roleMap */\n  0x00\n    /* \"OnDemo/contracts/AccountManagement.sol\":4671:4675  user */\n  dup2\n    /* \"OnDemo/contracts/AccountManagement.sol\":4671:4683  user.roleMap */\n  0x05\n  add\n    /* \"OnDemo/contracts/AccountManagement.sol\":4645:4683  RoleMap storage roleMap = user.roleMap */\n  swap1\n  pop\n    /* \"OnDemo/contracts/AccountManagement.sol\":4708:4719  Role.LEADER */\n  0x00\n    /* \"OnDemo/contracts/AccountManagement.sol\":4699:4719  _role == Role.LEADER */\n  0x03\n  dup2\n  gt\n  iszero\n  tag_76\n  jumpi\n  tag_77\n  tag_42\n  jump\t// in\ntag_77:\ntag_76:\n    /* \"OnDemo/contracts/AccountManagement.sol\":4699:4704  _role */\n  dup5\n    /* \"OnDemo/contracts/AccountManagement.sol\":4699:4719  _role == Role.LEADER */\n  0x03\n  dup2\n  gt\n  iszero\n  tag_78\n  jumpi\n  tag_79\n  tag_42\n  jump\t// in\ntag_79:\ntag_78:\n  eq\n    /* \"OnDemo/contracts/AccountManagement.sol\":4696:5070  if(_role == Role.LEADER){... */\n  iszero\n  tag_80\n  jumpi\n    /* \"OnDemo/contracts/AccountManagement.sol\":4754:4759  false */\n  0x00\n    /* \"OnDemo/contracts/AccountManagement.sol\":4735:4742  roleMap */\n  dup2\n    /* \"OnDemo/contracts/AccountManagement.sol\":4735:4751  roleMap.isLeader */\n  0x00\n  add\n  0x00\n    /* \"OnDemo/contracts/AccountManagement.sol\":4735:4759  roleMap.isLeader = false */\n  0x0100\n  exp\n  dup2\n  sload\n  dup2\n  0xff\n  mul\n  not\n  and\n  swap1\n  dup4\n  iszero\n  iszero\n  mul\n  or\n  swap1\n  sstore\n  pop\n    /* \"OnDemo/contracts/AccountManagement.sol\":4696:5070  if(_role == Role.LEADER){... */\n  jump(tag_81)\ntag_80:\n    /* \"OnDemo/contracts/AccountManagement.sol\":4798:4816  Role.COUNCILMEMBER */\n  0x01\n    /* \"OnDemo/contracts/AccountManagement.sol\":4789:4816  _role == Role.COUNCILMEMBER */\n  0x03\n  dup2\n  gt\n  iszero\n  tag_82\n  jumpi\n  tag_83\n  tag_42\n  jump\t// in\ntag_83:\ntag_82:\n    /* \"OnDemo/contracts/AccountManagement.sol\":4789:4794  _role */\n  dup5\n    /* \"OnDemo/contracts/AccountManagement.sol\":4789:4816  _role == Role.COUNCILMEMBER */\n  0x03\n  dup2\n  gt\n  iszero\n  tag_84\n  jumpi\n  tag_85\n  tag_42\n  jump\t// in\ntag_85:\ntag_84:\n  eq\n    /* \"OnDemo/contracts/AccountManagement.sol\":4786:5070  if(_role == Role.COUNCILMEMBER){... */\n  iszero\n  tag_86\n  jumpi\n    /* \"OnDemo/contracts/AccountManagement.sol\":4858:4863  false */\n  0x00\n    /* \"OnDemo/contracts/AccountManagement.sol\":4832:4839  roleMap */\n  dup2\n    /* \"OnDemo/contracts/AccountManagement.sol\":4832:4855  roleMap.isCouncilMember */\n  0x00\n  add\n  0x01\n    /* \"OnDemo/contracts/AccountManagement.sol\":4832:4863  roleMap.isCouncilMember = false */\n  0x0100\n  exp\n  dup2\n  sload\n  dup2\n  0xff\n  mul\n  not\n  and\n  swap1\n  dup4\n  iszero\n  iszero\n  mul\n  or\n  swap1\n  sstore\n  pop\n    /* \"OnDemo/contracts/AccountManagement.sol\":4786:5070  if(_role == Role.COUNCILMEMBER){... */\n  jump(tag_87)\ntag_86:\n    /* \"OnDemo/contracts/AccountManagement.sol\":4907:4918  Role.MEMBER */\n  0x02\n    /* \"OnDemo/contracts/AccountManagement.sol\":4898:4918  _role == Role.MEMBER */\n  0x03\n  dup2\n  gt\n  iszero\n  tag_88\n  jumpi\n  tag_89\n  tag_42\n  jump\t// in\ntag_89:\ntag_88:\n    /* \"OnDemo/contracts/AccountManagement.sol\":4898:4903  _role */\n  dup5\n    /* \"OnDemo/contracts/AccountManagement.sol\":4898:4918  _role == Role.MEMBER */\n  0x03\n  dup2\n  gt\n  iszero\n  tag_90\n  jumpi\n  tag_91\n  tag_42\n  jump\t// in\ntag_91:\ntag_90:\n  eq\n    /* \"OnDemo/contracts/AccountManagement.sol\":4895:5070  if(_role == Role.MEMBER){... */\n  iszero\n  tag_92\n  jumpi\n    /* \"OnDemo/contracts/AccountManagement.sol\":4953:4958  false */\n  0x00\n    /* \"OnDemo/contracts/AccountManagement.sol\":4934:4941  roleMap */\n  dup2\n    /* \"OnDemo/contracts/AccountManagement.sol\":4934:4950  roleMap.isMember */\n  0x00\n  add\n  0x02\n    /* \"OnDemo/contracts/AccountManagement.sol\":4934:4958  roleMap.isMember = false */\n  0x0100\n  exp\n  dup2\n  sload\n  dup2\n  0xff\n  mul\n  not\n  and\n  swap1\n  dup4\n  iszero\n  iszero\n  mul\n  or\n  swap1\n  sstore\n  pop\n    /* \"OnDemo/contracts/AccountManagement.sol\":4895:5070  if(_role == Role.MEMBER){... */\n  jump(tag_93)\ntag_92:\n    /* \"OnDemo/contracts/AccountManagement.sol\":4997:5007  Role.GUEST */\n  0x03\n    /* \"OnDemo/contracts/AccountManagement.sol\":4988:5007  _role == Role.GUEST */\n  dup1\n  dup2\n  gt\n  iszero\n  tag_94\n  jumpi\n  tag_95\n  tag_42\n  jump\t// in\ntag_95:\ntag_94:\n    /* \"OnDemo/contracts/AccountManagement.sol\":4988:4993  _role */\n  dup5\n    /* \"OnDemo/contracts/AccountManagement.sol\":4988:5007  _role == Role.GUEST */\n  0x03\n  dup2\n  gt\n  iszero\n  tag_96\n  jumpi\n  tag_97\n  tag_42\n  jump\t// in\ntag_97:\ntag_96:\n  eq\n    /* \"OnDemo/contracts/AccountManagement.sol\":4985:5070  if(_role == Role.GUEST){... */\n  iszero\n  tag_98\n  jumpi\n    /* \"OnDemo/contracts/AccountManagement.sol\":5041:5046  false */\n  0x00\n    /* \"OnDemo/contracts/AccountManagement.sol\":5023:5030  roleMap */\n  dup2\n    /* \"OnDemo/contracts/AccountManagement.sol\":5023:5038  roleMap.isGuest */\n  0x00\n  add\n  0x03\n    /* \"OnDemo/contracts/AccountManagement.sol\":5023:5046  roleMap.isGuest = false */\n  0x0100\n  exp\n  dup2\n  sload\n  dup2\n  0xff\n  mul\n  not\n  and\n  swap1\n  dup4\n  iszero\n  iszero\n  mul\n  or\n  swap1\n  sstore\n  pop\n    /* \"OnDemo/contracts/AccountManagement.sol\":4985:5070  if(_role == Role.GUEST){... */\ntag_98:\n    /* \"OnDemo/contracts/AccountManagement.sol\":4895:5070  if(_role == Role.MEMBER){... */\ntag_93:\n    /* \"OnDemo/contracts/AccountManagement.sol\":4786:5070  if(_role == Role.COUNCILMEMBER){... */\ntag_87:\n    /* \"OnDemo/contracts/AccountManagement.sol\":4696:5070  if(_role == Role.LEADER){... */\ntag_81:\n    /* \"OnDemo/contracts/AccountManagement.sol\":4588:5077  {... */\n  pop\n  pop\n    /* \"OnDemo/contracts/AccountManagement.sol\":1899:1900  _ */\n  pop\n    /* \"OnDemo/contracts/AccountManagement.sol\":4500:5077  function removeRole(address _address, Role _role) public onlyLeader userExists(_address){... */\n  pop\n  pop\n  jump\t// out\n    /* \"OnDemo/contracts/AccountManagement.sol\":2734:3246  function makeAccountActive(address _address) public userExists(_address){... */\ntag_13:\n    /* \"OnDemo/contracts/AccountManagement.sol\":2797:2805  _address */\n  dup1\n    /* \"OnDemo/contracts/AccountManagement.sol\":2011:2012  0 */\n  0x00\n    /* \"OnDemo/contracts/AccountManagement.sol\":1972:2013  users[_address].userAddress != address(0) */\n  0xffffffffffffffffffffffffffffffffffffffff\n  and\n    /* \"OnDemo/contracts/AccountManagement.sol\":1972:1977  users */\n  0x02\n    /* \"OnDemo/contracts/AccountManagement.sol\":1972:1987  users[_address] */\n  0x00\n    /* \"OnDemo/contracts/AccountManagement.sol\":1978:1986  _address */\n  dup4\n    /* \"OnDemo/contracts/AccountManagement.sol\":1972:1987  users[_address] */\n  0xffffffffffffffffffffffffffffffffffffffff\n  and\n  0xffffffffffffffffffffffffffffffffffffffff\n  and\n  dup2\n  mstore\n  0x20\n  add\n  swap1\n  dup2\n  mstore\n  0x20\n  add\n  0x00\n  keccak256\n    /* \"OnDemo/contracts/AccountManagement.sol\":1972:1999  users[_address].userAddress */\n  0x00\n  add\n  0x00\n  swap1\n  sload\n  swap1\n  0x0100\n  exp\n  swap1\n  div\n  0xffffffffffffffffffffffffffffffffffffffff\n  and\n    /* \"OnDemo/contracts/AccountManagement.sol\":1972:2013  users[_address].userAddress != address(0) */\n  0xffffffffffffffffffffffffffffffffffffffff\n  and\n  eq\n  iszero\n    /* \"OnDemo/contracts/AccountManagement.sol\":1964:2039  require(users[_address].userAddress != address(0), \"Account doesn't exist\") */\n  tag_100\n  jumpi\n  mload(0x40)\n  0x08c379a000000000000000000000000000000000000000000000000000000000\n  dup2\n  mstore\n  0x04\n  add\n  tag_101\n  swap1\n  tag_38\n  jump\t// in\ntag_101:\n  mload(0x40)\n  dup1\n  swap2\n  sub\n  swap1\n  revert\ntag_100:\n    /* \"OnDemo/contracts/AccountManagement.sol\":2821:2834  activeMembers */\n  0x03\n    /* \"OnDemo/contracts/AccountManagement.sol\":2821:2844  activeMembers[_address] */\n  0x00\n    /* \"OnDemo/contracts/AccountManagement.sol\":2835:2843  _address */\n  dup4\n    /* \"OnDemo/contracts/AccountManagement.sol\":2821:2844  activeMembers[_address] */\n  0xffffffffffffffffffffffffffffffffffffffff\n  and\n  0xffffffffffffffffffffffffffffffffffffffff\n  and\n  dup2\n  mstore\n  0x20\n  add\n  swap1\n  dup2\n  mstore\n  0x20\n  add\n  0x00\n  keccak256\n  0x00\n  swap1\n  sload\n  swap1\n  0x0100\n  exp\n  swap1\n  div\n  0xff\n  and\n    /* \"OnDemo/contracts/AccountManagement.sol\":2817:3239  if(!activeMembers[_address]){... */\n  tag_103\n  jumpi\n    /* \"OnDemo/contracts/AccountManagement.sol\":2860:2877  User storage user */\n  0x00\n    /* \"OnDemo/contracts/AccountManagement.sol\":2880:2885  users */\n  0x02\n    /* \"OnDemo/contracts/AccountManagement.sol\":2880:2895  users[_address] */\n  0x00\n    /* \"OnDemo/contracts/AccountManagement.sol\":2886:2894  _address */\n  dup5\n    /* \"OnDemo/contracts/AccountManagement.sol\":2880:2895  users[_address] */\n  0xffffffffffffffffffffffffffffffffffffffff\n  and\n  0xffffffffffffffffffffffffffffffffffffffff\n  and\n  dup2\n  mstore\n  0x20\n  add\n  swap1\n  dup2\n  mstore\n  0x20\n  add\n  0x00\n  keccak256\n    /* \"OnDemo/contracts/AccountManagement.sol\":2860:2895  User storage user = users[_address] */\n  swap1\n  pop\n    /* \"OnDemo/contracts/AccountManagement.sol\":2926:2930  true */\n  0x01\n    /* \"OnDemo/contracts/AccountManagement.sol\":2910:2914  user */\n  dup2\n    /* \"OnDemo/contracts/AccountManagement.sol\":2910:2923  user.isActive */\n  0x04\n  add\n  0x00\n    /* \"OnDemo/contracts/AccountManagement.sol\":2910:2930  user.isActive = true */\n  0x0100\n  exp\n  dup2\n  sload\n  dup2\n  0xff\n  mul\n  not\n  and\n  swap1\n  dup4\n  iszero\n  iszero\n  mul\n  or\n  swap1\n  sstore\n  pop\n    /* \"OnDemo/contracts/AccountManagement.sol\":2992:3014  RoleMap memory roleMap */\n  0x00\n    /* \"OnDemo/contracts/AccountManagement.sol\":3017:3021  user */\n  dup2\n    /* \"OnDemo/contracts/AccountManagement.sol\":3017:3029  user.roleMap */\n  0x05\n  add\n    /* \"OnDemo/contracts/AccountManagement.sol\":2992:3029  RoleMap memory roleMap = user.roleMap */\n  mload(0x40)\n  dup1\n  0x80\n  add\n  0x40\n  mstore\n  swap1\n  dup2\n  0x00\n  dup3\n  add\n  0x00\n  swap1\n  sload\n  swap1\n  0x0100\n  exp\n  swap1\n  div\n  0xff\n  and\n  iszero\n  iszero\n  iszero\n  iszero\n  dup2\n  mstore\n  0x20\n  add\n  0x00\n  dup3\n  add\n  0x01\n  swap1\n  sload\n  swap1\n  0x0100\n  exp\n  swap1\n  div\n  0xff\n  and\n  iszero\n  iszero\n  iszero\n  iszero\n  dup2\n  mstore\n  0x20\n  add\n  0x00\n  dup3\n  add\n  0x02\n  swap1\n  sload\n  swap1\n  0x0100\n  exp\n  swap1\n  div\n  0xff\n  and\n  iszero\n  iszero\n  iszero\n  iszero\n  dup2\n  mstore\n  0x20\n  add\n  0x00\n  dup3\n  add\n  0x03\n  swap1\n  sload\n  swap1\n  0x0100\n  exp\n  swap1\n  div\n  0xff\n  and\n  iszero\n  iszero\n  iszero\n  iszero\n  dup2\n  mstore\n  pop\n  pop\n  swap1\n  pop\n    /* \"OnDemo/contracts/AccountManagement.sol\":3047:3054  roleMap */\n  dup1\n    /* \"OnDemo/contracts/AccountManagement.sol\":3047:3063  roleMap.isLeader */\n  0x00\n  add\n  mload\n    /* \"OnDemo/contracts/AccountManagement.sol\":3047:3090  roleMap.isLeader || roleMap.isCouncilMember */\n  dup1\n  tag_104\n  jumpi\n  pop\n    /* \"OnDemo/contracts/AccountManagement.sol\":3067:3074  roleMap */\n  dup1\n    /* \"OnDemo/contracts/AccountManagement.sol\":3067:3090  roleMap.isCouncilMember */\n  0x20\n  add\n  mload\n    /* \"OnDemo/contracts/AccountManagement.sol\":3047:3090  roleMap.isLeader || roleMap.isCouncilMember */\ntag_104:\n    /* \"OnDemo/contracts/AccountManagement.sol\":3047:3110  roleMap.isLeader || roleMap.isCouncilMember || roleMap.isMember */\n  dup1\n  tag_105\n  jumpi\n  pop\n    /* \"OnDemo/contracts/AccountManagement.sol\":3094:3101  roleMap */\n  dup1\n    /* \"OnDemo/contracts/AccountManagement.sol\":3094:3110  roleMap.isMember */\n  0x40\n  add\n  mload\n    /* \"OnDemo/contracts/AccountManagement.sol\":3047:3110  roleMap.isLeader || roleMap.isCouncilMember || roleMap.isMember */\ntag_105:\n    /* \"OnDemo/contracts/AccountManagement.sol\":3044:3228  if(roleMap.isLeader || roleMap.isCouncilMember || roleMap.isMember)... */\n  iszero\n  tag_106\n  jumpi\n    /* \"OnDemo/contracts/AccountManagement.sol\":3170:3174  true */\n  0x01\n    /* \"OnDemo/contracts/AccountManagement.sol\":3144:3157  activeMembers */\n  0x03\n    /* \"OnDemo/contracts/AccountManagement.sol\":3144:3167  activeMembers[_address] */\n  0x00\n    /* \"OnDemo/contracts/AccountManagement.sol\":3158:3166  _address */\n  dup7\n    /* \"OnDemo/contracts/AccountManagement.sol\":3144:3167  activeMembers[_address] */\n  0xffffffffffffffffffffffffffffffffffffffff\n  and\n  0xffffffffffffffffffffffffffffffffffffffff\n  and\n  dup2\n  mstore\n  0x20\n  add\n  swap1\n  dup2\n  mstore\n  0x20\n  add\n  0x00\n  keccak256\n  0x00\n    /* \"OnDemo/contracts/AccountManagement.sol\":3144:3174  activeMembers[_address] = true */\n  0x0100\n  exp\n  dup2\n  sload\n  dup2\n  0xff\n  mul\n  not\n  and\n  swap1\n  dup4\n  iszero\n  iszero\n  mul\n  or\n  swap1\n  sstore\n  pop\n    /* \"OnDemo/contracts/AccountManagement.sol\":3193:3210  activeMemberCount */\n  0x00\n  dup1\n    /* \"OnDemo/contracts/AccountManagement.sol\":3193:3212  activeMemberCount++ */\n  dup2\n  sload\n  dup1\n  swap3\n  swap2\n  swap1\n  tag_107\n  swap1\n  tag_108\n  jump\t// in\ntag_107:\n  swap2\n  swap1\n  pop\n  sstore\n  pop\n    /* \"OnDemo/contracts/AccountManagement.sol\":3044:3228  if(roleMap.isLeader || roleMap.isCouncilMember || roleMap.isMember)... */\ntag_106:\n    /* \"OnDemo/contracts/AccountManagement.sol\":2845:3239  {... */\n  pop\n  pop\n    /* \"OnDemo/contracts/AccountManagement.sol\":2817:3239  if(!activeMembers[_address]){... */\ntag_103:\n    /* \"OnDemo/contracts/AccountManagement.sol\":2734:3246  function makeAccountActive(address _address) public userExists(_address){... */\n  pop\n  pop\n  jump\t// out\n    /* \"OnDemo/contracts/AccountManagement.sol\":74:10764  contract AccountManagement {... */\ntag_21:\n  dup3\n  dup1\n  sload\n  tag_109\n  swap1\n  tag_110\n  jump\t// in\ntag_109:\n  swap1\n  0x00\n  mstore\n  keccak256(0x00, 0x20)\n  swap1\n  0x1f\n  add\n  0x20\n  swap1\n  div\n  dup2\n  add\n  swap3\n  dup3\n  tag_112\n  jumpi\n  0x00\n  dup6\n  sstore\n  jump(tag_111)\ntag_112:\n  dup3\n  0x1f\n  lt\n  tag_113\n  jumpi\n  dup1\n  mload\n  not(0xff)\n  and\n  dup4\n  dup1\n  add\n  or\n  dup6\n  sstore\n  jump(tag_111)\ntag_113:\n  dup3\n  dup1\n  add\n  0x01\n  add\n  dup6\n  sstore\n  dup3\n  iszero\n  tag_111\n  jumpi\n  swap2\n  dup3\n  add\ntag_114:\n  dup3\n  dup2\n  gt\n  iszero\n  tag_115\n  jumpi\n  dup3\n  mload\n  dup3\n  sstore\n  swap2\n  0x20\n  add\n  swap2\n  swap1\n  0x01\n  add\n  swap1\n  jump(tag_114)\ntag_115:\ntag_111:\n  pop\n  swap1\n  pop\n  tag_116\n  swap2\n  swap1\n  tag_117\n  jump\t// in\ntag_116:\n  pop\n  swap1\n  jump\t// out\ntag_117:\ntag_118:\n  dup1\n  dup3\n  gt\n  iszero\n  tag_119\n  jumpi\n  0x00\n  dup2\n  0x00\n  swap1\n  sstore\n  pop\n  0x01\n  add\n  jump(tag_118)\ntag_119:\n  pop\n  swap1\n  jump\t// out\n    /* \"#utility.yul\":7:82   */\ntag_120:\n    /* \"#utility.yul\":40:46   */\n  0x00\n    /* \"#utility.yul\":73:75   */\n  0x40\n    /* \"#utility.yul\":67:76   */\n  mload\n    /* \"#utility.yul\":57:76   */\n  swap1\n  pop\n    /* \"#utility.yul\":7:82   */\n  swap1\n  jump\t// out\n    /* \"#utility.yul\":88:205   */\ntag_121:\n    /* \"#utility.yul\":197:198   */\n  0x00\n    /* \"#utility.yul\":194:195   */\n  dup1\n    /* \"#utility.yul\":187:199   */\n  revert\n    /* \"#utility.yul\":211:328   */\ntag_122:\n    /* \"#utility.yul\":320:321   */\n  0x00\n    /* \"#utility.yul\":317:318   */\n  dup1\n    /* \"#utility.yul\":310:322   */\n  revert\n    /* \"#utility.yul\":334:451   */\ntag_123:\n    /* \"#utility.yul\":443:444   */\n  0x00\n    /* \"#utility.yul\":440:441   */\n  dup1\n    /* \"#utility.yul\":433:445   */\n  revert\n    /* \"#utility.yul\":457:574   */\ntag_124:\n    /* \"#utility.yul\":566:567   */\n  0x00\n    /* \"#utility.yul\":563:564   */\n  dup1\n    /* \"#utility.yul\":556:568   */\n  revert\n    /* \"#utility.yul\":580:682   */\ntag_125:\n    /* \"#utility.yul\":621:627   */\n  0x00\n    /* \"#utility.yul\":672:674   */\n  0x1f\n    /* \"#utility.yul\":668:675   */\n  not\n    /* \"#utility.yul\":663:665   */\n  0x1f\n    /* \"#utility.yul\":656:661   */\n  dup4\n    /* \"#utility.yul\":652:666   */\n  add\n    /* \"#utility.yul\":648:676   */\n  and\n    /* \"#utility.yul\":638:676   */\n  swap1\n  pop\n    /* \"#utility.yul\":580:682   */\n  swap2\n  swap1\n  pop\n  jump\t// out\n    /* \"#utility.yul\":688:868   */\ntag_126:\n    /* \"#utility.yul\":736:813   */\n  0x4e487b7100000000000000000000000000000000000000000000000000000000\n    /* \"#utility.yul\":733:734   */\n  0x00\n    /* \"#utility.yul\":726:814   */\n  mstore\n    /* \"#utility.yul\":833:837   */\n  0x41\n    /* \"#utility.yul\":830:831   */\n  0x04\n    /* \"#utility.yul\":823:838   */\n  mstore\n    /* \"#utility.yul\":857:861   */\n  0x24\n    /* \"#utility.yul\":854:855   */\n  0x00\n    /* \"#utility.yul\":847:862   */\n  revert\n    /* \"#utility.yul\":874:1155   */\ntag_127:\n    /* \"#utility.yul\":957:984   */\n  tag_158\n    /* \"#utility.yul\":979:983   */\n  dup3\n    /* \"#utility.yul\":957:984   */\n  tag_125\n  jump\t// in\ntag_158:\n    /* \"#utility.yul\":949:955   */\n  dup2\n    /* \"#utility.yul\":945:985   */\n  add\n    /* \"#utility.yul\":1087:1093   */\n  dup2\n    /* \"#utility.yul\":1075:1085   */\n  dup2\n    /* \"#utility.yul\":1072:1094   */\n  lt\n    /* \"#utility.yul\":1051:1069   */\n  0xffffffffffffffff\n    /* \"#utility.yul\":1039:1049   */\n  dup3\n    /* \"#utility.yul\":1036:1070   */\n  gt\n    /* \"#utility.yul\":1033:1095   */\n  or\n    /* \"#utility.yul\":1030:1118   */\n  iszero\n  tag_159\n  jumpi\n    /* \"#utility.yul\":1098:1116   */\n  tag_160\n  tag_126\n  jump\t// in\ntag_160:\n    /* \"#utility.yul\":1030:1118   */\ntag_159:\n    /* \"#utility.yul\":1138:1148   */\n  dup1\n    /* \"#utility.yul\":1134:1136   */\n  0x40\n    /* \"#utility.yul\":1127:1149   */\n  mstore\n    /* \"#utility.yul\":917:1155   */\n  pop\n    /* \"#utility.yul\":874:1155   */\n  pop\n  pop\n  jump\t// out\n    /* \"#utility.yul\":1161:1290   */\ntag_128:\n    /* \"#utility.yul\":1195:1201   */\n  0x00\n    /* \"#utility.yul\":1222:1242   */\n  tag_162\n  tag_120\n  jump\t// in\ntag_162:\n    /* \"#utility.yul\":1212:1242   */\n  swap1\n  pop\n    /* \"#utility.yul\":1251:1284   */\n  tag_163\n    /* \"#utility.yul\":1279:1283   */\n  dup3\n    /* \"#utility.yul\":1271:1277   */\n  dup3\n    /* \"#utility.yul\":1251:1284   */\n  tag_127\n  jump\t// in\ntag_163:\n    /* \"#utility.yul\":1161:1290   */\n  swap2\n  swap1\n  pop\n  jump\t// out\n    /* \"#utility.yul\":1296:1604   */\ntag_129:\n    /* \"#utility.yul\":1358:1362   */\n  0x00\n    /* \"#utility.yul\":1448:1466   */\n  0xffffffffffffffff\n    /* \"#utility.yul\":1440:1446   */\n  dup3\n    /* \"#utility.yul\":1437:1467   */\n  gt\n    /* \"#utility.yul\":1434:1490   */\n  iszero\n  tag_165\n  jumpi\n    /* \"#utility.yul\":1470:1488   */\n  tag_166\n  tag_126\n  jump\t// in\ntag_166:\n    /* \"#utility.yul\":1434:1490   */\ntag_165:\n    /* \"#utility.yul\":1508:1537   */\n  tag_167\n    /* \"#utility.yul\":1530:1536   */\n  dup3\n    /* \"#utility.yul\":1508:1537   */\n  tag_125\n  jump\t// in\ntag_167:\n    /* \"#utility.yul\":1500:1537   */\n  swap1\n  pop\n    /* \"#utility.yul\":1592:1596   */\n  0x20\n    /* \"#utility.yul\":1586:1590   */\n  dup2\n    /* \"#utility.yul\":1582:1597   */\n  add\n    /* \"#utility.yul\":1574:1597   */\n  swap1\n  pop\n    /* \"#utility.yul\":1296:1604   */\n  swap2\n  swap1\n  pop\n  jump\t// out\n    /* \"#utility.yul\":1610:1917   */\ntag_130:\n    /* \"#utility.yul\":1678:1679   */\n  0x00\n    /* \"#utility.yul\":1688:1801   */\ntag_169:\n    /* \"#utility.yul\":1702:1708   */\n  dup4\n    /* \"#utility.yul\":1699:1700   */\n  dup2\n    /* \"#utility.yul\":1696:1709   */\n  lt\n    /* \"#utility.yul\":1688:1801   */\n  iszero\n  tag_171\n  jumpi\n    /* \"#utility.yul\":1787:1788   */\n  dup1\n    /* \"#utility.yul\":1782:1785   */\n  dup3\n    /* \"#utility.yul\":1778:1789   */\n  add\n    /* \"#utility.yul\":1772:1790   */\n  mload\n    /* \"#utility.yul\":1768:1769   */\n  dup2\n    /* \"#utility.yul\":1763:1766   */\n  dup5\n    /* \"#utility.yul\":1759:1770   */\n  add\n    /* \"#utility.yul\":1752:1791   */\n  mstore\n    /* \"#utility.yul\":1724:1726   */\n  0x20\n    /* \"#utility.yul\":1721:1722   */\n  dup2\n    /* \"#utility.yul\":1717:1727   */\n  add\n    /* \"#utility.yul\":1712:1727   */\n  swap1\n  pop\n    /* \"#utility.yul\":1688:1801   */\n  jump(tag_169)\ntag_171:\n    /* \"#utility.yul\":1819:1825   */\n  dup4\n    /* \"#utility.yul\":1816:1817   */\n  dup2\n    /* \"#utility.yul\":1813:1826   */\n  gt\n    /* \"#utility.yul\":1810:1911   */\n  iszero\n  tag_172\n  jumpi\n    /* \"#utility.yul\":1899:1900   */\n  0x00\n    /* \"#utility.yul\":1890:1896   */\n  dup5\n    /* \"#utility.yul\":1885:1888   */\n  dup5\n    /* \"#utility.yul\":1881:1897   */\n  add\n    /* \"#utility.yul\":1874:1901   */\n  mstore\n    /* \"#utility.yul\":1810:1911   */\ntag_172:\n    /* \"#utility.yul\":1659:1917   */\n  pop\n    /* \"#utility.yul\":1610:1917   */\n  pop\n  pop\n  pop\n  jump\t// out\n    /* \"#utility.yul\":1923:2344   */\ntag_131:\n    /* \"#utility.yul\":2012:2017   */\n  0x00\n    /* \"#utility.yul\":2037:2103   */\n  tag_174\n    /* \"#utility.yul\":2053:2102   */\n  tag_175\n    /* \"#utility.yul\":2095:2101   */\n  dup5\n    /* \"#utility.yul\":2053:2102   */\n  tag_129\n  jump\t// in\ntag_175:\n    /* \"#utility.yul\":2037:2103   */\n  tag_128\n  jump\t// in\ntag_174:\n    /* \"#utility.yul\":2028:2103   */\n  swap1\n  pop\n    /* \"#utility.yul\":2126:2132   */\n  dup3\n    /* \"#utility.yul\":2119:2124   */\n  dup2\n    /* \"#utility.yul\":2112:2133   */\n  mstore\n    /* \"#utility.yul\":2164:2168   */\n  0x20\n    /* \"#utility.yul\":2157:2162   */\n  dup2\n    /* \"#utility.yul\":2153:2169   */\n  add\n    /* \"#utility.yul\":2202:2205   */\n  dup5\n    /* \"#utility.yul\":2193:2199   */\n  dup5\n    /* \"#utility.yul\":2188:2191   */\n  dup5\n    /* \"#utility.yul\":2184:2200   */\n  add\n    /* \"#utility.yul\":2181:2206   */\n  gt\n    /* \"#utility.yul\":2178:2290   */\n  iszero\n  tag_176\n  jumpi\n    /* \"#utility.yul\":2209:2288   */\n  tag_177\n  tag_124\n  jump\t// in\ntag_177:\n    /* \"#utility.yul\":2178:2290   */\ntag_176:\n    /* \"#utility.yul\":2299:2338   */\n  tag_178\n    /* \"#utility.yul\":2331:2337   */\n  dup5\n    /* \"#utility.yul\":2326:2329   */\n  dup3\n    /* \"#utility.yul\":2321:2324   */\n  dup6\n    /* \"#utility.yul\":2299:2338   */\n  tag_130\n  jump\t// in\ntag_178:\n    /* \"#utility.yul\":2018:2344   */\n  pop\n    /* \"#utility.yul\":1923:2344   */\n  swap4\n  swap3\n  pop\n  pop\n  pop\n  jump\t// out\n    /* \"#utility.yul\":2364:2719   */\ntag_132:\n    /* \"#utility.yul\":2431:2436   */\n  0x00\n    /* \"#utility.yul\":2480:2483   */\n  dup3\n    /* \"#utility.yul\":2473:2477   */\n  0x1f\n    /* \"#utility.yul\":2465:2471   */\n  dup4\n    /* \"#utility.yul\":2461:2478   */\n  add\n    /* \"#utility.yul\":2457:2484   */\n  slt\n    /* \"#utility.yul\":2447:2569   */\n  tag_180\n  jumpi\n    /* \"#utility.yul\":2488:2567   */\n  tag_181\n  tag_123\n  jump\t// in\ntag_181:\n    /* \"#utility.yul\":2447:2569   */\ntag_180:\n    /* \"#utility.yul\":2598:2604   */\n  dup2\n    /* \"#utility.yul\":2592:2605   */\n  mload\n    /* \"#utility.yul\":2623:2713   */\n  tag_182\n    /* \"#utility.yul\":2709:2712   */\n  dup5\n    /* \"#utility.yul\":2701:2707   */\n  dup3\n    /* \"#utility.yul\":2694:2698   */\n  0x20\n    /* \"#utility.yul\":2686:2692   */\n  dup7\n    /* \"#utility.yul\":2682:2699   */\n  add\n    /* \"#utility.yul\":2623:2713   */\n  tag_131\n  jump\t// in\ntag_182:\n    /* \"#utility.yul\":2614:2713   */\n  swap2\n  pop\n    /* \"#utility.yul\":2437:2719   */\n  pop\n    /* \"#utility.yul\":2364:2719   */\n  swap3\n  swap2\n  pop\n  pop\n  jump\t// out\n    /* \"#utility.yul\":2725:3907   */\ntag_3:\n    /* \"#utility.yul\":2843:2849   */\n  0x00\n    /* \"#utility.yul\":2851:2857   */\n  dup1\n    /* \"#utility.yul\":2859:2865   */\n  0x00\n    /* \"#utility.yul\":2908:2910   */\n  0x60\n    /* \"#utility.yul\":2896:2905   */\n  dup5\n    /* \"#utility.yul\":2887:2894   */\n  dup7\n    /* \"#utility.yul\":2883:2906   */\n  sub\n    /* \"#utility.yul\":2879:2911   */\n  slt\n    /* \"#utility.yul\":2876:2995   */\n  iszero\n  tag_184\n  jumpi\n    /* \"#utility.yul\":2914:2993   */\n  tag_185\n  tag_121\n  jump\t// in\ntag_185:\n    /* \"#utility.yul\":2876:2995   */\ntag_184:\n    /* \"#utility.yul\":3055:3056   */\n  0x00\n    /* \"#utility.yul\":3044:3053   */\n  dup5\n    /* \"#utility.yul\":3040:3057   */\n  add\n    /* \"#utility.yul\":3034:3058   */\n  mload\n    /* \"#utility.yul\":3085:3103   */\n  0xffffffffffffffff\n    /* \"#utility.yul\":3077:3083   */\n  dup2\n    /* \"#utility.yul\":3074:3104   */\n  gt\n    /* \"#utility.yul\":3071:3188   */\n  iszero\n  tag_186\n  jumpi\n    /* \"#utility.yul\":3107:3186   */\n  tag_187\n  tag_122\n  jump\t// in\ntag_187:\n    /* \"#utility.yul\":3071:3188   */\ntag_186:\n    /* \"#utility.yul\":3212:3286   */\n  tag_188\n    /* \"#utility.yul\":3278:3285   */\n  dup7\n    /* \"#utility.yul\":3269:3275   */\n  dup3\n    /* \"#utility.yul\":3258:3267   */\n  dup8\n    /* \"#utility.yul\":3254:3276   */\n  add\n    /* \"#utility.yul\":3212:3286   */\n  tag_132\n  jump\t// in\ntag_188:\n    /* \"#utility.yul\":3202:3286   */\n  swap4\n  pop\n    /* \"#utility.yul\":3005:3296   */\n  pop\n    /* \"#utility.yul\":3356:3358   */\n  0x20\n    /* \"#utility.yul\":3345:3354   */\n  dup5\n    /* \"#utility.yul\":3341:3359   */\n  add\n    /* \"#utility.yul\":3335:3360   */\n  mload\n    /* \"#utility.yul\":3387:3405   */\n  0xffffffffffffffff\n    /* \"#utility.yul\":3379:3385   */\n  dup2\n    /* \"#utility.yul\":3376:3406   */\n  gt\n    /* \"#utility.yul\":3373:3490   */\n  iszero\n  tag_189\n  jumpi\n    /* \"#utility.yul\":3409:3488   */\n  tag_190\n  tag_122\n  jump\t// in\ntag_190:\n    /* \"#utility.yul\":3373:3490   */\ntag_189:\n    /* \"#utility.yul\":3514:3588   */\n  tag_191\n    /* \"#utility.yul\":3580:3587   */\n  dup7\n    /* \"#utility.yul\":3571:3577   */\n  dup3\n    /* \"#utility.yul\":3560:3569   */\n  dup8\n    /* \"#utility.yul\":3556:3578   */\n  add\n    /* \"#utility.yul\":3514:3588   */\n  tag_132\n  jump\t// in\ntag_191:\n    /* \"#utility.yul\":3504:3588   */\n  swap3\n  pop\n    /* \"#utility.yul\":3306:3598   */\n  pop\n    /* \"#utility.yul\":3658:3660   */\n  0x40\n    /* \"#utility.yul\":3647:3656   */\n  dup5\n    /* \"#utility.yul\":3643:3661   */\n  add\n    /* \"#utility.yul\":3637:3662   */\n  mload\n    /* \"#utility.yul\":3689:3707   */\n  0xffffffffffffffff\n    /* \"#utility.yul\":3681:3687   */\n  dup2\n    /* \"#utility.yul\":3678:3708   */\n  gt\n    /* \"#utility.yul\":3675:3792   */\n  iszero\n  tag_192\n  jumpi\n    /* \"#utility.yul\":3711:3790   */\n  tag_193\n  tag_122\n  jump\t// in\ntag_193:\n    /* \"#utility.yul\":3675:3792   */\ntag_192:\n    /* \"#utility.yul\":3816:3890   */\n  tag_194\n    /* \"#utility.yul\":3882:3889   */\n  dup7\n    /* \"#utility.yul\":3873:3879   */\n  dup3\n    /* \"#utility.yul\":3862:3871   */\n  dup8\n    /* \"#utility.yul\":3858:3880   */\n  add\n    /* \"#utility.yul\":3816:3890   */\n  tag_132\n  jump\t// in\ntag_194:\n    /* \"#utility.yul\":3806:3890   */\n  swap2\n  pop\n    /* \"#utility.yul\":3608:3900   */\n  pop\n    /* \"#utility.yul\":2725:3907   */\n  swap3\n  pop\n  swap3\n  pop\n  swap3\n  jump\t// out\n    /* \"#utility.yul\":3913:4082   */\ntag_133:\n    /* \"#utility.yul\":3997:4008   */\n  0x00\n    /* \"#utility.yul\":4031:4037   */\n  dup3\n    /* \"#utility.yul\":4026:4029   */\n  dup3\n    /* \"#utility.yul\":4019:4038   */\n  mstore\n    /* \"#utility.yul\":4071:4075   */\n  0x20\n    /* \"#utility.yul\":4066:4069   */\n  dup3\n    /* \"#utility.yul\":4062:4076   */\n  add\n    /* \"#utility.yul\":4047:4076   */\n  swap1\n  pop\n    /* \"#utility.yul\":3913:4082   */\n  swap3\n  swap2\n  pop\n  pop\n  jump\t// out\n    /* \"#utility.yul\":4088:4260   */\ntag_134:\n    /* \"#utility.yul\":4228:4252   */\n  0x4163636f756e7420616c72656164792065786973747300000000000000000000\n    /* \"#utility.yul\":4224:4225   */\n  0x00\n    /* \"#utility.yul\":4216:4222   */\n  dup3\n    /* \"#utility.yul\":4212:4226   */\n  add\n    /* \"#utility.yul\":4205:4253   */\n  mstore\n    /* \"#utility.yul\":4088:4260   */\n  pop\n  jump\t// out\n    /* \"#utility.yul\":4266:4632   */\ntag_135:\n    /* \"#utility.yul\":4408:4411   */\n  0x00\n    /* \"#utility.yul\":4429:4496   */\n  tag_198\n    /* \"#utility.yul\":4493:4495   */\n  0x16\n    /* \"#utility.yul\":4488:4491   */\n  dup4\n    /* \"#utility.yul\":4429:4496   */\n  tag_133\n  jump\t// in\ntag_198:\n    /* \"#utility.yul\":4422:4496   */\n  swap2\n  pop\n    /* \"#utility.yul\":4505:4598   */\n  tag_199\n    /* \"#utility.yul\":4594:4597   */\n  dup3\n    /* \"#utility.yul\":4505:4598   */\n  tag_134\n  jump\t// in\ntag_199:\n    /* \"#utility.yul\":4623:4625   */\n  0x20\n    /* \"#utility.yul\":4618:4621   */\n  dup3\n    /* \"#utility.yul\":4614:4626   */\n  add\n    /* \"#utility.yul\":4607:4626   */\n  swap1\n  pop\n    /* \"#utility.yul\":4266:4632   */\n  swap2\n  swap1\n  pop\n  jump\t// out\n    /* \"#utility.yul\":4638:5057   */\ntag_18:\n    /* \"#utility.yul\":4804:4808   */\n  0x00\n    /* \"#utility.yul\":4842:4844   */\n  0x20\n    /* \"#utility.yul\":4831:4840   */\n  dup3\n    /* \"#utility.yul\":4827:4845   */\n  add\n    /* \"#utility.yul\":4819:4845   */\n  swap1\n  pop\n    /* \"#utility.yul\":4891:4900   */\n  dup2\n    /* \"#utility.yul\":4885:4889   */\n  dup2\n    /* \"#utility.yul\":4881:4901   */\n  sub\n    /* \"#utility.yul\":4877:4878   */\n  0x00\n    /* \"#utility.yul\":4866:4875   */\n  dup4\n    /* \"#utility.yul\":4862:4879   */\n  add\n    /* \"#utility.yul\":4855:4902   */\n  mstore\n    /* \"#utility.yul\":4919:5050   */\n  tag_201\n    /* \"#utility.yul\":5045:5049   */\n  dup2\n    /* \"#utility.yul\":4919:5050   */\n  tag_135\n  jump\t// in\ntag_201:\n    /* \"#utility.yul\":4911:5050   */\n  swap1\n  pop\n    /* \"#utility.yul\":4638:5057   */\n  swap2\n  swap1\n  pop\n  jump\t// out\n    /* \"#utility.yul\":5063:5189   */\ntag_136:\n    /* \"#utility.yul\":5100:5107   */\n  0x00\n    /* \"#utility.yul\":5140:5182   */\n  0xffffffffffffffffffffffffffffffffffffffff\n    /* \"#utility.yul\":5133:5138   */\n  dup3\n    /* \"#utility.yul\":5129:5183   */\n  and\n    /* \"#utility.yul\":5118:5183   */\n  swap1\n  pop\n    /* \"#utility.yul\":5063:5189   */\n  swap2\n  swap1\n  pop\n  jump\t// out\n    /* \"#utility.yul\":5195:5291   */\ntag_137:\n    /* \"#utility.yul\":5232:5239   */\n  0x00\n    /* \"#utility.yul\":5261:5285   */\n  tag_204\n    /* \"#utility.yul\":5279:5284   */\n  dup3\n    /* \"#utility.yul\":5261:5285   */\n  tag_136\n  jump\t// in\ntag_204:\n    /* \"#utility.yul\":5250:5285   */\n  swap1\n  pop\n    /* \"#utility.yul\":5195:5291   */\n  swap2\n  swap1\n  pop\n  jump\t// out\n    /* \"#utility.yul\":5297:5415   */\ntag_138:\n    /* \"#utility.yul\":5384:5408   */\n  tag_206\n    /* \"#utility.yul\":5402:5407   */\n  dup2\n    /* \"#utility.yul\":5384:5408   */\n  tag_137\n  jump\t// in\ntag_206:\n    /* \"#utility.yul\":5379:5382   */\n  dup3\n    /* \"#utility.yul\":5372:5409   */\n  mstore\n    /* \"#utility.yul\":5297:5415   */\n  pop\n  pop\n  jump\t// out\n    /* \"#utility.yul\":5421:5643   */\ntag_27:\n    /* \"#utility.yul\":5514:5518   */\n  0x00\n    /* \"#utility.yul\":5552:5554   */\n  0x20\n    /* \"#utility.yul\":5541:5550   */\n  dup3\n    /* \"#utility.yul\":5537:5555   */\n  add\n    /* \"#utility.yul\":5529:5555   */\n  swap1\n  pop\n    /* \"#utility.yul\":5565:5636   */\n  tag_208\n    /* \"#utility.yul\":5633:5634   */\n  0x00\n    /* \"#utility.yul\":5622:5631   */\n  dup4\n    /* \"#utility.yul\":5618:5635   */\n  add\n    /* \"#utility.yul\":5609:5615   */\n  dup5\n    /* \"#utility.yul\":5565:5636   */\n  tag_138\n  jump\t// in\ntag_208:\n    /* \"#utility.yul\":5421:5643   */\n  swap3\n  swap2\n  pop\n  pop\n  jump\t// out\n    /* \"#utility.yul\":5649:5739   */\ntag_139:\n    /* \"#utility.yul\":5683:5690   */\n  0x00\n    /* \"#utility.yul\":5726:5731   */\n  dup2\n    /* \"#utility.yul\":5719:5732   */\n  iszero\n    /* \"#utility.yul\":5712:5733   */\n  iszero\n    /* \"#utility.yul\":5701:5733   */\n  swap1\n  pop\n    /* \"#utility.yul\":5649:5739   */\n  swap2\n  swap1\n  pop\n  jump\t// out\n    /* \"#utility.yul\":5745:5861   */\ntag_140:\n    /* \"#utility.yul\":5815:5836   */\n  tag_211\n    /* \"#utility.yul\":5830:5835   */\n  dup2\n    /* \"#utility.yul\":5815:5836   */\n  tag_139\n  jump\t// in\ntag_211:\n    /* \"#utility.yul\":5808:5813   */\n  dup2\n    /* \"#utility.yul\":5805:5837   */\n  eq\n    /* \"#utility.yul\":5795:5855   */\n  tag_212\n  jumpi\n    /* \"#utility.yul\":5851:5852   */\n  0x00\n    /* \"#utility.yul\":5848:5849   */\n  dup1\n    /* \"#utility.yul\":5841:5853   */\n  revert\n    /* \"#utility.yul\":5795:5855   */\ntag_212:\n    /* \"#utility.yul\":5745:5861   */\n  pop\n  jump\t// out\n    /* \"#utility.yul\":5867:6004   */\ntag_141:\n    /* \"#utility.yul\":5921:5926   */\n  0x00\n    /* \"#utility.yul\":5952:5958   */\n  dup2\n    /* \"#utility.yul\":5946:5959   */\n  mload\n    /* \"#utility.yul\":5937:5959   */\n  swap1\n  pop\n    /* \"#utility.yul\":5968:5998   */\n  tag_214\n    /* \"#utility.yul\":5992:5997   */\n  dup2\n    /* \"#utility.yul\":5968:5998   */\n  tag_140\n  jump\t// in\ntag_214:\n    /* \"#utility.yul\":5867:6004   */\n  swap3\n  swap2\n  pop\n  pop\n  jump\t// out\n    /* \"#utility.yul\":6010:6355   */\ntag_31:\n    /* \"#utility.yul\":6077:6083   */\n  0x00\n    /* \"#utility.yul\":6126:6128   */\n  0x20\n    /* \"#utility.yul\":6114:6123   */\n  dup3\n    /* \"#utility.yul\":6105:6112   */\n  dup5\n    /* \"#utility.yul\":6101:6124   */\n  sub\n    /* \"#utility.yul\":6097:6129   */\n  slt\n    /* \"#utility.yul\":6094:6213   */\n  iszero\n  tag_216\n  jumpi\n    /* \"#utility.yul\":6132:6211   */\n  tag_217\n  tag_121\n  jump\t// in\ntag_217:\n    /* \"#utility.yul\":6094:6213   */\ntag_216:\n    /* \"#utility.yul\":6252:6253   */\n  0x00\n    /* \"#utility.yul\":6277:6338   */\n  tag_218\n    /* \"#utility.yul\":6330:6337   */\n  dup5\n    /* \"#utility.yul\":6321:6327   */\n  dup3\n    /* \"#utility.yul\":6310:6319   */\n  dup6\n    /* \"#utility.yul\":6306:6328   */\n  add\n    /* \"#utility.yul\":6277:6338   */\n  tag_141\n  jump\t// in\ntag_218:\n    /* \"#utility.yul\":6267:6338   */\n  swap2\n  pop\n    /* \"#utility.yul\":6223:6348   */\n  pop\n    /* \"#utility.yul\":6010:6355   */\n  swap3\n  swap2\n  pop\n  pop\n  jump\t// out\n    /* \"#utility.yul\":6361:6582   */\ntag_142:\n    /* \"#utility.yul\":6501:6535   */\n  0x4f6e6c79206f776e65722063616e2063616c6c20746869732066756e6374696f\n    /* \"#utility.yul\":6497:6498   */\n  0x00\n    /* \"#utility.yul\":6489:6495   */\n  dup3\n    /* \"#utility.yul\":6485:6499   */\n  add\n    /* \"#utility.yul\":6478:6536   */\n  mstore\n    /* \"#utility.yul\":6570:6574   */\n  0x6e2e000000000000000000000000000000000000000000000000000000000000\n    /* \"#utility.yul\":6565:6567   */\n  0x20\n    /* \"#utility.yul\":6557:6563   */\n  dup3\n    /* \"#utility.yul\":6553:6568   */\n  add\n    /* \"#utility.yul\":6546:6575   */\n  mstore\n    /* \"#utility.yul\":6361:6582   */\n  pop\n  jump\t// out\n    /* \"#utility.yul\":6588:6954   */\ntag_143:\n    /* \"#utility.yul\":6730:6733   */\n  0x00\n    /* \"#utility.yul\":6751:6818   */\n  tag_221\n    /* \"#utility.yul\":6815:6817   */\n  0x22\n    /* \"#utility.yul\":6810:6813   */\n  dup4\n    /* \"#utility.yul\":6751:6818   */\n  tag_133\n  jump\t// in\ntag_221:\n    /* \"#utility.yul\":6744:6818   */\n  swap2\n  pop\n    /* \"#utility.yul\":6827:6920   */\n  tag_222\n    /* \"#utility.yul\":6916:6919   */\n  dup3\n    /* \"#utility.yul\":6827:6920   */\n  tag_142\n  jump\t// in\ntag_222:\n    /* \"#utility.yul\":6945:6947   */\n  0x40\n    /* \"#utility.yul\":6940:6943   */\n  dup3\n    /* \"#utility.yul\":6936:6948   */\n  add\n    /* \"#utility.yul\":6929:6948   */\n  swap1\n  pop\n    /* \"#utility.yul\":6588:6954   */\n  swap2\n  swap1\n  pop\n  jump\t// out\n    /* \"#utility.yul\":6960:7379   */\ntag_34:\n    /* \"#utility.yul\":7126:7130   */\n  0x00\n    /* \"#utility.yul\":7164:7166   */\n  0x20\n    /* \"#utility.yul\":7153:7162   */\n  dup3\n    /* \"#utility.yul\":7149:7167   */\n  add\n    /* \"#utility.yul\":7141:7167   */\n  swap1\n  pop\n    /* \"#utility.yul\":7213:7222   */\n  dup2\n    /* \"#utility.yul\":7207:7211   */\n  dup2\n    /* \"#utility.yul\":7203:7223   */\n  sub\n    /* \"#utility.yul\":7199:7200   */\n  0x00\n    /* \"#utility.yul\":7188:7197   */\n  dup4\n    /* \"#utility.yul\":7184:7201   */\n  add\n    /* \"#utility.yul\":7177:7224   */\n  mstore\n    /* \"#utility.yul\":7241:7372   */\n  tag_224\n    /* \"#utility.yul\":7367:7371   */\n  dup2\n    /* \"#utility.yul\":7241:7372   */\n  tag_143\n  jump\t// in\ntag_224:\n    /* \"#utility.yul\":7233:7372   */\n  swap1\n  pop\n    /* \"#utility.yul\":6960:7379   */\n  swap2\n  swap1\n  pop\n  jump\t// out\n    /* \"#utility.yul\":7385:7556   */\ntag_144:\n    /* \"#utility.yul\":7525:7548   */\n  0x4163636f756e7420646f65736e27742065786973740000000000000000000000\n    /* \"#utility.yul\":7521:7522   */\n  0x00\n    /* \"#utility.yul\":7513:7519   */\n  dup3\n    /* \"#utility.yul\":7509:7523   */\n  add\n    /* \"#utility.yul\":7502:7549   */\n  mstore\n    /* \"#utility.yul\":7385:7556   */\n  pop\n  jump\t// out\n    /* \"#utility.yul\":7562:7928   */\ntag_145:\n    /* \"#utility.yul\":7704:7707   */\n  0x00\n    /* \"#utility.yul\":7725:7792   */\n  tag_227\n    /* \"#utility.yul\":7789:7791   */\n  0x15\n    /* \"#utility.yul\":7784:7787   */\n  dup4\n    /* \"#utility.yul\":7725:7792   */\n  tag_133\n  jump\t// in\ntag_227:\n    /* \"#utility.yul\":7718:7792   */\n  swap2\n  pop\n    /* \"#utility.yul\":7801:7894   */\n  tag_228\n    /* \"#utility.yul\":7890:7893   */\n  dup3\n    /* \"#utility.yul\":7801:7894   */\n  tag_144\n  jump\t// in\ntag_228:\n    /* \"#utility.yul\":7919:7921   */\n  0x20\n    /* \"#utility.yul\":7914:7917   */\n  dup3\n    /* \"#utility.yul\":7910:7922   */\n  add\n    /* \"#utility.yul\":7903:7922   */\n  swap1\n  pop\n    /* \"#utility.yul\":7562:7928   */\n  swap2\n  swap1\n  pop\n  jump\t// out\n    /* \"#utility.yul\":7934:8353   */\ntag_38:\n    /* \"#utility.yul\":8100:8104   */\n  0x00\n    /* \"#utility.yul\":8138:8140   */\n  0x20\n    /* \"#utility.yul\":8127:8136   */\n  dup3\n    /* \"#utility.yul\":8123:8141   */\n  add\n    /* \"#utility.yul\":8115:8141   */\n  swap1\n  pop\n    /* \"#utility.yul\":8187:8196   */\n  dup2\n    /* \"#utility.yul\":8181:8185   */\n  dup2\n    /* \"#utility.yul\":8177:8197   */\n  sub\n    /* \"#utility.yul\":8173:8174   */\n  0x00\n    /* \"#utility.yul\":8162:8171   */\n  dup4\n    /* \"#utility.yul\":8158:8175   */\n  add\n    /* \"#utility.yul\":8151:8198   */\n  mstore\n    /* \"#utility.yul\":8215:8346   */\n  tag_230\n    /* \"#utility.yul\":8341:8345   */\n  dup2\n    /* \"#utility.yul\":8215:8346   */\n  tag_145\n  jump\t// in\ntag_230:\n    /* \"#utility.yul\":8207:8346   */\n  swap1\n  pop\n    /* \"#utility.yul\":7934:8353   */\n  swap2\n  swap1\n  pop\n  jump\t// out\n    /* \"#utility.yul\":8359:8539   */\ntag_42:\n    /* \"#utility.yul\":8407:8484   */\n  0x4e487b7100000000000000000000000000000000000000000000000000000000\n    /* \"#utility.yul\":8404:8405   */\n  0x00\n    /* \"#utility.yul\":8397:8485   */\n  mstore\n    /* \"#utility.yul\":8504:8508   */\n  0x21\n    /* \"#utility.yul\":8501:8502   */\n  0x04\n    /* \"#utility.yul\":8494:8509   */\n  mstore\n    /* \"#utility.yul\":8528:8532   */\n  0x24\n    /* \"#utility.yul\":8525:8526   */\n  0x00\n    /* \"#utility.yul\":8518:8533   */\n  revert\n    /* \"#utility.yul\":8545:8725   */\ntag_146:\n    /* \"#utility.yul\":8593:8670   */\n  0x4e487b7100000000000000000000000000000000000000000000000000000000\n    /* \"#utility.yul\":8590:8591   */\n  0x00\n    /* \"#utility.yul\":8583:8671   */\n  mstore\n    /* \"#utility.yul\":8690:8694   */\n  0x11\n    /* \"#utility.yul\":8687:8688   */\n  0x04\n    /* \"#utility.yul\":8680:8695   */\n  mstore\n    /* \"#utility.yul\":8714:8718   */\n  0x24\n    /* \"#utility.yul\":8711:8712   */\n  0x00\n    /* \"#utility.yul\":8704:8719   */\n  revert\n    /* \"#utility.yul\":8731:8808   */\ntag_147:\n    /* \"#utility.yul\":8768:8775   */\n  0x00\n    /* \"#utility.yul\":8797:8802   */\n  dup2\n    /* \"#utility.yul\":8786:8802   */\n  swap1\n  pop\n    /* \"#utility.yul\":8731:8808   */\n  swap2\n  swap1\n  pop\n  jump\t// out\n    /* \"#utility.yul\":8814:9047   */\ntag_108:\n    /* \"#utility.yul\":8853:8856   */\n  0x00\n    /* \"#utility.yul\":8876:8900   */\n  tag_235\n    /* \"#utility.yul\":8894:8899   */\n  dup3\n    /* \"#utility.yul\":8876:8900   */\n  tag_147\n  jump\t// in\ntag_235:\n    /* \"#utility.yul\":8867:8900   */\n  swap2\n  pop\n    /* \"#utility.yul\":8922:8988   */\n  0xffffffffffffffffffffffffffffffffffffffffffffffffffffffffffffffff\n    /* \"#utility.yul\":8915:8920   */\n  dup3\n    /* \"#utility.yul\":8912:8989   */\n  eq\n    /* \"#utility.yul\":8909:9012   */\n  iszero\n  tag_236\n  jumpi\n    /* \"#utility.yul\":8992:9010   */\n  tag_237\n  tag_146\n  jump\t// in\ntag_237:\n    /* \"#utility.yul\":8909:9012   */\ntag_236:\n    /* \"#utility.yul\":9039:9040   */\n  0x01\n    /* \"#utility.yul\":9032:9037   */\n  dup3\n    /* \"#utility.yul\":9028:9041   */\n  add\n    /* \"#utility.yul\":9021:9041   */\n  swap1\n  pop\n    /* \"#utility.yul\":8814:9047   */\n  swap2\n  swap1\n  pop\n  jump\t// out\n    /* \"#utility.yul\":9053:9233   */\ntag_148:\n    /* \"#utility.yul\":9101:9178   */\n  0x4e487b7100000000000000000000000000000000000000000000000000000000\n    /* \"#utility.yul\":9098:9099   */\n  0x00\n    /* \"#utility.yul\":9091:9179   */\n  mstore\n    /* \"#utility.yul\":9198:9202   */\n  0x22\n    /* \"#utility.yul\":9195:9196   */\n  0x04\n    /* \"#utility.yul\":9188:9203   */\n  mstore\n    /* \"#utility.yul\":9222:9226   */\n  0x24\n    /* \"#utility.yul\":9219:9220   */\n  0x00\n    /* \"#utility.yul\":9212:9227   */\n  revert\n    /* \"#utility.yul\":9239:9559   */\ntag_110:\n    /* \"#utility.yul\":9283:9289   */\n  0x00\n    /* \"#utility.yul\":9320:9321   */\n  0x02\n    /* \"#utility.yul\":9314:9318   */\n  dup3\n    /* \"#utility.yul\":9310:9322   */\n  div\n    /* \"#utility.yul\":9300:9322   */\n  swap1\n  pop\n    /* \"#utility.yul\":9367:9368   */\n  0x01\n    /* \"#utility.yul\":9361:9365   */\n  dup3\n    /* \"#utility.yul\":9357:9369   */\n  and\n    /* \"#utility.yul\":9388:9406   */\n  dup1\n    /* \"#utility.yul\":9378:9459   */\n  tag_240\n  jumpi\n    /* \"#utility.yul\":9444:9448   */\n  0x7f\n    /* \"#utility.yul\":9436:9442   */\n  dup3\n    /* \"#utility.yul\":9432:9449   */\n  and\n    /* \"#utility.yul\":9422:9449   */\n  swap2\n  pop\n    /* \"#utility.yul\":9378:9459   */\ntag_240:\n    /* \"#utility.yul\":9506:9508   */\n  0x20\n    /* \"#utility.yul\":9498:9504   */\n  dup3\n    /* \"#utility.yul\":9495:9509   */\n  lt\n    /* \"#utility.yul\":9475:9493   */\n  dup2\n    /* \"#utility.yul\":9472:9510   */\n  eq\n    /* \"#utility.yul\":9469:9553   */\n  iszero\n  tag_241\n  jumpi\n    /* \"#utility.yul\":9525:9543   */\n  tag_242\n  tag_148\n  jump\t// in\ntag_242:\n    /* \"#utility.yul\":9469:9553   */\ntag_241:\n    /* \"#utility.yul\":9290:9559   */\n  pop\n    /* \"#utility.yul\":9239:9559   */\n  swap2\n  swap1\n  pop\n  jump\t// out\n    /* \"OnDemo/contracts/AccountManagement.sol\":74:10764  contract AccountManagement {... */\ntag_14:\n  dataSize(sub_0)\n  dup1\n  dataOffset(sub_0)\n  0x00\n  codecopy\n  0x00\n  return\nstop\n\nsub_0: assembly {\n        /* \"OnDemo/contracts/AccountManagement.sol\":74:10764  contract AccountManagement {... */\n      mstore(0x40, 0x80)\n      callvalue\n      dup1\n      iszero\n      tag_1\n      jumpi\n      0x00\n      dup1\n      revert\n    tag_1:\n      pop\n      jumpi(tag_2, lt(calldatasize, 0x04))\n      shr(0xe0, calldataload(0x00))\n      dup1\n      0x6f77926b\n      gt\n      tag_21\n      jumpi\n      dup1\n      0xc2b7d948\n      gt\n      tag_22\n      jumpi\n      dup1\n      0xc2b7d948\n      eq\n      tag_16\n      jumpi\n      dup1\n      0xd3a5059a\n      eq\n      tag_17\n      jumpi\n      dup1\n      0xdee94b4a\n      eq\n      tag_18\n      jumpi\n      dup1\n      0xe8621e59\n      eq\n      tag_19\n      jumpi\n      dup1\n      0xfa4d7aae\n      eq\n      tag_20\n      jumpi\n      jump(tag_2)\n    tag_22:\n      dup1\n      0x6f77926b\n      eq\n      tag_12\n      jumpi\n      dup1\n      0x8da5cb5b\n      eq\n      tag_13\n      jumpi\n      dup1\n      0xa1aea04a\n      eq\n      tag_14\n      jumpi\n      dup1\n      0xb74866fb\n      eq\n      tag_15\n      jumpi\n      jump(tag_2)\n    tag_21:\n      dup1\n      0x297027d5\n      gt\n      tag_23\n      jumpi\n      dup1\n      0x297027d5\n      eq\n      tag_7\n      jumpi\n      dup1\n      0x49587281\n      eq\n      tag_8\n      jumpi\n      dup1\n      0x5fb6c6ed\n      eq\n      tag_9\n      jumpi\n      dup1\n      0x630a195b\n      eq\n      tag_10\n      jumpi\n      dup1\n      0x65c93769\n      eq\n      tag_11\n      jumpi\n      jump(tag_2)\n    tag_23:\n      dup1\n      0x01eb0857\n      eq\n      tag_3\n      jumpi\n      dup1\n      0x056909b7\n      eq\n      tag_4\n      jumpi\n      dup1\n      0x22faa41f\n      eq\n      tag_5\n      jumpi\n      dup1\n      0x247ae7a3\n      eq\n      tag_6\n      jumpi\n    tag_2:\n      0x00\n      dup1\n      revert\n        /* \"OnDemo/contracts/AccountManagement.sol\":8071:8458  function hasRightToCreateReferendum(address _address) external view returns (bool) {... */\n    tag_3:\n      tag_24\n      0x04\n      dup1\n      calldatasize\n      sub\n      dup2\n      add\n      swap1\n      tag_25\n      swap2\n      swap1\n      tag_26\n      jump\t// in\n    tag_25:\n      tag_27\n      jump\t// in\n    tag_24:\n      mload(0x40)\n      tag_28\n      swap2\n      swap1\n      tag_29\n      jump\t// in\n    tag_28:\n      mload(0x40)\n      dup1\n      swap2\n      sub\n      swap1\n      return\n        /* \"OnDemo/contracts/AccountManagement.sol\":7302:7428  function hasMemberRole(address _address) external view returns (bool) {... */\n    tag_4:\n      tag_30\n      0x04\n      dup1\n      calldatasize\n      sub\n      dup2\n      add\n      swap1\n      tag_31\n      swap2\n      swap1\n      tag_26\n      jump\t// in\n    tag_31:\n      tag_32\n      jump\t// in\n    tag_30:\n      mload(0x40)\n      tag_33\n      swap2\n      swap1\n      tag_29\n      jump\t// in\n    tag_33:\n      mload(0x40)\n      dup1\n      swap2\n      sub\n      swap1\n      return\n        /* \"OnDemo/contracts/AccountManagement.sol\":7961:8063  function getActiveMemberCount() public view returns (uint) {... */\n    tag_5:\n      tag_34\n      tag_35\n      jump\t// in\n    tag_34:\n      mload(0x40)\n      tag_36\n      swap2\n      swap1\n      tag_37\n      jump\t// in\n    tag_36:\n      mload(0x40)\n      dup1\n      swap2\n      sub\n      swap1\n      return\n        /* \"OnDemo/contracts/AccountManagement.sol\":9239:10759  function testAccountManagement() public{... */\n    tag_6:\n      tag_38\n      tag_39\n      jump\t// in\n    tag_38:\n      stop\n        /* \"OnDemo/contracts/AccountManagement.sol\":7016:7142  function hasLeaderRole(address _address) external view returns (bool) {... */\n    tag_7:\n      tag_40\n      0x04\n      dup1\n      calldatasize\n      sub\n      dup2\n      add\n      swap1\n      tag_41\n      swap2\n      swap1\n      tag_26\n      jump\t// in\n    tag_41:\n      tag_42\n      jump\t// in\n    tag_40:\n      mload(0x40)\n      tag_43\n      swap2\n      swap1\n      tag_29\n      jump\t// in\n    tag_43:\n      mload(0x40)\n      dup1\n      swap2\n      sub\n      swap1\n      return\n        /* \"OnDemo/contracts/AccountManagement.sol\":3254:3615  function makeAccountPassive(address _address) public userExists(_address){... */\n    tag_8:\n      tag_44\n      0x04\n      dup1\n      calldatasize\n      sub\n      dup2\n      add\n      swap1\n      tag_45\n      swap2\n      swap1\n      tag_26\n      jump\t// in\n    tag_45:\n      tag_46\n      jump\t// in\n    tag_44:\n      stop\n        /* \"OnDemo/contracts/AccountManagement.sol\":832:861  uint public activeMemberCount */\n    tag_9:\n      tag_47\n      tag_48\n      jump\t// in\n    tag_47:\n      mload(0x40)\n      tag_49\n      swap2\n      swap1\n      tag_37\n      jump\t// in\n    tag_49:\n      mload(0x40)\n      dup1\n      swap2\n      sub\n      swap1\n      return\n        /* \"OnDemo/contracts/AccountManagement.sol\":3929:4492  function assignRole(address _address, Role _role) public onlyLeader userExists(_address){... */\n    tag_10:\n      tag_50\n      0x04\n      dup1\n      calldatasize\n      sub\n      dup2\n      add\n      swap1\n      tag_51\n      swap2\n      swap1\n      tag_52\n      jump\t// in\n    tag_51:\n      tag_53\n      jump\t// in\n    tag_50:\n      stop\n        /* \"OnDemo/contracts/AccountManagement.sol\":8466:8841  function hasRightToVote(address _address) external view returns (bool) {... */\n    tag_11:\n      tag_54\n      0x04\n      dup1\n      calldatasize\n      sub\n      dup2\n      add\n      swap1\n      tag_55\n      swap2\n      swap1\n      tag_26\n      jump\t// in\n    tag_55:\n      tag_56\n      jump\t// in\n    tag_54:\n      mload(0x40)\n      tag_57\n      swap2\n      swap1\n      tag_29\n      jump\t// in\n    tag_57:\n      mload(0x40)\n      dup1\n      swap2\n      sub\n      swap1\n      return\n        /* \"OnDemo/contracts/AccountManagement.sol\":7714:7953  function getUser(address _address) public view returns(User memory){... */\n    tag_12:\n      tag_58\n      0x04\n      dup1\n      calldatasize\n      sub\n      dup2\n      add\n      swap1\n      tag_59\n      swap2\n      swap1\n      tag_26\n      jump\t// in\n    tag_59:\n      tag_60\n      jump\t// in\n    tag_58:\n      mload(0x40)\n      tag_61\n      swap2\n      swap1\n      tag_62\n      jump\t// in\n    tag_61:\n      mload(0x40)\n      dup1\n      swap2\n      sub\n      swap1\n      return\n        /* \"OnDemo/contracts/AccountManagement.sol\":868:888  address public owner */\n    tag_13:\n      tag_63\n      tag_64\n      jump\t// in\n    tag_63:\n      mload(0x40)\n      tag_65\n      swap2\n      swap1\n      tag_66\n      jump\t// in\n    tag_65:\n      mload(0x40)\n      dup1\n      swap2\n      sub\n      swap1\n      return\n        /* \"OnDemo/contracts/AccountManagement.sol\":2734:3246  function makeAccountActive(address _address) public userExists(_address){... */\n    tag_14:\n      tag_67\n      0x04\n      dup1\n      calldatasize\n      sub\n      dup2\n      add\n      swap1\n      tag_68\n      swap2\n      swap1\n      tag_26\n      jump\t// in\n    tag_68:\n      tag_69\n      jump\t// in\n    tag_67:\n      stop\n        /* \"OnDemo/contracts/AccountManagement.sol\":4500:5077  function removeRole(address _address, Role _role) public onlyLeader userExists(_address){... */\n    tag_15:\n      tag_70\n      0x04\n      dup1\n      calldatasize\n      sub\n      dup2\n      add\n      swap1\n      tag_71\n      swap2\n      swap1\n      tag_52\n      jump\t// in\n    tag_71:\n      tag_72\n      jump\t// in\n    tag_70:\n      stop\n        /* \"OnDemo/contracts/AccountManagement.sol\":8849:9227  function hasRightToSupport(address _address) external view returns (bool) {... */\n    tag_16:\n      tag_73\n      0x04\n      dup1\n      calldatasize\n      sub\n      dup2\n      add\n      swap1\n      tag_74\n      swap2\n      swap1\n      tag_26\n      jump\t// in\n    tag_74:\n      tag_75\n      jump\t// in\n    tag_73:\n      mload(0x40)\n      tag_76\n      swap2\n      swap1\n      tag_29\n      jump\t// in\n    tag_76:\n      mload(0x40)\n      dup1\n      swap2\n      sub\n      swap1\n      return\n        /* \"OnDemo/contracts/AccountManagement.sol\":3623:3787  function burnAccount(address _address) public userExists(_address){  ... */\n    tag_17:\n      tag_77\n      0x04\n      dup1\n      calldatasize\n      sub\n      dup2\n      add\n      swap1\n      tag_78\n      swap2\n      swap1\n      tag_26\n      jump\t// in\n    tag_78:\n      tag_79\n      jump\t// in\n    tag_77:\n      stop\n        /* \"OnDemo/contracts/AccountManagement.sol\":2361:2726  function createAccount(address _address, string memory _firstName, string memory _secondName, string memory _mailAdress) public userNotExists(_address){... */\n    tag_18:\n      tag_80\n      0x04\n      dup1\n      calldatasize\n      sub\n      dup2\n      add\n      swap1\n      tag_81\n      swap2\n      swap1\n      tag_82\n      jump\t// in\n    tag_81:\n      tag_83\n      jump\t// in\n    tag_80:\n      stop\n        /* \"OnDemo/contracts/AccountManagement.sol\":7440:7564  function hasGuestRole(address _address) external view returns (bool) {... */\n    tag_19:\n      tag_84\n      0x04\n      dup1\n      calldatasize\n      sub\n      dup2\n      add\n      swap1\n      tag_85\n      swap2\n      swap1\n      tag_26\n      jump\t// in\n    tag_85:\n      tag_86\n      jump\t// in\n    tag_84:\n      mload(0x40)\n      tag_87\n      swap2\n      swap1\n      tag_29\n      jump\t// in\n    tag_87:\n      mload(0x40)\n      dup1\n      swap2\n      sub\n      swap1\n      return\n        /* \"OnDemo/contracts/AccountManagement.sol\":7150:7290  function hasCouncilMemberRole(address _address) external view returns (bool) {... */\n    tag_20:\n      tag_88\n      0x04\n      dup1\n      calldatasize\n      sub\n      dup2\n      add\n      swap1\n      tag_89\n      swap2\n      swap1\n      tag_26\n      jump\t// in\n    tag_89:\n      tag_90\n      jump\t// in\n    tag_88:\n      mload(0x40)\n      tag_91\n      swap2\n      swap1\n      tag_29\n      jump\t// in\n    tag_91:\n      mload(0x40)\n      dup1\n      swap2\n      sub\n      swap1\n      return\n        /* \"OnDemo/contracts/AccountManagement.sol\":8071:8458  function hasRightToCreateReferendum(address _address) external view returns (bool) {... */\n    tag_27:\n        /* \"OnDemo/contracts/AccountManagement.sol\":8148:8152  bool */\n      0x00\n        /* \"OnDemo/contracts/AccountManagement.sol\":8165:8181  User memory user */\n      dup1\n        /* \"OnDemo/contracts/AccountManagement.sol\":8184:8189  users */\n      0x02\n        /* \"OnDemo/contracts/AccountManagement.sol\":8184:8199  users[_address] */\n      0x00\n        /* \"OnDemo/contracts/AccountManagement.sol\":8190:8198  _address */\n      dup5\n        /* \"OnDemo/contracts/AccountManagement.sol\":8184:8199  users[_address] */\n      0xffffffffffffffffffffffffffffffffffffffff\n      and\n      0xffffffffffffffffffffffffffffffffffffffff\n      and\n      dup2\n      mstore\n      0x20\n      add\n      swap1\n      dup2\n      mstore\n      0x20\n      add\n      0x00\n      keccak256\n        /* \"OnDemo/contracts/AccountManagement.sol\":8165:8199  User memory user = users[_address] */\n      mload(0x40)\n      dup1\n      0xc0\n      add\n      0x40\n      mstore\n      swap1\n      dup2\n      0x00\n      dup3\n      add\n      0x00\n      swap1\n      sload\n      swap1\n      0x0100\n      exp\n      swap1\n      div\n      0xffffffffffffffffffffffffffffffffffffffff\n      and\n      0xffffffffffffffffffffffffffffffffffffffff\n      and\n      0xffffffffffffffffffffffffffffffffffffffff\n      and\n      dup2\n      mstore\n      0x20\n      add\n      0x01\n      dup3\n      add\n      dup1\n      sload\n      tag_93\n      swap1\n      tag_94\n      jump\t// in\n    tag_93:\n      dup1\n      0x1f\n      add\n      0x20\n      dup1\n      swap2\n      div\n      mul\n      0x20\n      add\n      mload(0x40)\n      swap1\n      dup2\n      add\n      0x40\n      mstore\n      dup1\n      swap3\n      swap2\n      swap1\n      dup2\n      dup2\n      mstore\n      0x20\n      add\n      dup3\n      dup1\n      sload\n      tag_95\n      swap1\n      tag_94\n      jump\t// in\n    tag_95:\n      dup1\n      iszero\n      tag_96\n      jumpi\n      dup1\n      0x1f\n      lt\n      tag_97\n      jumpi\n      0x0100\n      dup1\n      dup4\n      sload\n      div\n      mul\n      dup4\n      mstore\n      swap2\n      0x20\n      add\n      swap2\n      jump(tag_96)\n    tag_97:\n      dup3\n      add\n      swap2\n      swap1\n      0x00\n      mstore\n      keccak256(0x00, 0x20)\n      swap1\n    tag_98:\n      dup2\n      sload\n      dup2\n      mstore\n      swap1\n      0x01\n      add\n      swap1\n      0x20\n      add\n      dup1\n      dup4\n      gt\n      tag_98\n      jumpi\n      dup3\n      swap1\n      sub\n      0x1f\n      and\n      dup3\n      add\n      swap2\n    tag_96:\n      pop\n      pop\n      pop\n      pop\n      pop\n      dup2\n      mstore\n      0x20\n      add\n      0x02\n      dup3\n      add\n      dup1\n      sload\n      tag_99\n      swap1\n      tag_94\n      jump\t// in\n    tag_99:\n      dup1\n      0x1f\n      add\n      0x20\n      dup1\n      swap2\n      div\n      mul\n      0x20\n      add\n      mload(0x40)\n      swap1\n      dup2\n      add\n      0x40\n      mstore\n      dup1\n      swap3\n      swap2\n      swap1\n      dup2\n      dup2\n      mstore\n      0x20\n      add\n      dup3\n      dup1\n      sload\n      tag_100\n      swap1\n      tag_94\n      jump\t// in\n    tag_100:\n      dup1\n      iszero\n      tag_101\n      jumpi\n      dup1\n      0x1f\n      lt\n      tag_102\n      jumpi\n      0x0100\n      dup1\n      dup4\n      sload\n      div\n      mul\n      dup4\n      mstore\n      swap2\n      0x20\n      add\n      swap2\n      jump(tag_101)\n    tag_102:\n      dup3\n      add\n      swap2\n      swap1\n      0x00\n      mstore\n      keccak256(0x00, 0x20)\n      swap1\n    tag_103:\n      dup2\n      sload\n      dup2\n      mstore\n      swap1\n      0x01\n      add\n      swap1\n      0x20\n      add\n      dup1\n      dup4\n      gt\n      tag_103\n      jumpi\n      dup3\n      swap1\n      sub\n      0x1f\n      and\n      dup3\n      add\n      swap2\n    tag_101:\n      pop\n      pop\n      pop\n      pop\n      pop\n      dup2\n      mstore\n      0x20\n      add\n      0x03\n      dup3\n      add\n      dup1\n      sload\n      tag_104\n      swap1\n      tag_94\n      jump\t// in\n    tag_104:\n      dup1\n      0x1f\n      add\n      0x20\n      dup1\n      swap2\n      div\n      mul\n      0x20\n      add\n      mload(0x40)\n      swap1\n      dup2\n      add\n      0x40\n      mstore\n      dup1\n      swap3\n      swap2\n      swap1\n      dup2\n      dup2\n      mstore\n      0x20\n      add\n      dup3\n      dup1\n      sload\n      tag_105\n      swap1\n      tag_94\n      jump\t// in\n    tag_105:\n      dup1\n      iszero\n      tag_106\n      jumpi\n      dup1\n      0x1f\n      lt\n      tag_107\n      jumpi\n      0x0100\n      dup1\n      dup4\n      sload\n      div\n      mul\n      dup4\n      mstore\n      swap2\n      0x20\n      add\n      swap2\n      jump(tag_106)\n    tag_107:\n      dup3\n      add\n      swap2\n      swap1\n      0x00\n      mstore\n      keccak256(0x00, 0x20)\n      swap1\n    tag_108:\n      dup2\n      sload\n      dup2\n      mstore\n      swap1\n      0x01\n      add\n      swap1\n      0x20\n      add\n      dup1\n      dup4\n      gt\n      tag_108\n      jumpi\n      dup3\n      swap1\n      sub\n      0x1f\n      and\n      dup3\n      add\n      swap2\n    tag_106:\n      pop\n      pop\n      pop\n      pop\n      pop\n      dup2\n      mstore\n      0x20\n      add\n      0x04\n      dup3\n      add\n      0x00\n      swap1\n      sload\n      swap1\n      0x0100\n      exp\n      swap1\n      div\n      0xff\n      and\n      iszero\n      iszero\n      iszero\n      iszero\n      dup2\n      mstore\n      0x20\n      add\n      0x05\n      dup3\n      add\n      mload(0x40)\n      dup1\n      0x80\n      add\n      0x40\n      mstore\n      swap1\n      dup2\n      0x00\n      dup3\n      add\n      0x00\n      swap1\n      sload\n      swap1\n      0x0100\n      exp\n      swap1\n      div\n      0xff\n      and\n      iszero\n      iszero\n      iszero\n      iszero\n      dup2\n      mstore\n      0x20\n      add\n      0x00\n      dup3\n      add\n      0x01\n      swap1\n      sload\n      swap1\n      0x0100\n      exp\n      swap1\n      div\n      0xff\n      and\n      iszero\n      iszero\n      iszero\n      iszero\n      dup2\n      mstore\n      0x20\n      add\n      0x00\n      dup3\n      add\n      0x02\n      swap1\n      sload\n      swap1\n      0x0100\n      exp\n      swap1\n      div\n      0xff\n      and\n      iszero\n      iszero\n      iszero\n      iszero\n      dup2\n      mstore\n      0x20\n      add\n      0x00\n      dup3\n      add\n      0x03\n      swap1\n      sload\n      swap1\n      0x0100\n      exp\n      swap1\n      div\n      0xff\n      and\n      iszero\n      iszero\n      iszero\n      iszero\n      dup2\n      mstore\n      pop\n      pop\n      dup2\n      mstore\n      pop\n      pop\n      swap1\n      pop\n        /* \"OnDemo/contracts/AccountManagement.sol\":8241:8242  0 */\n      0x00\n        /* \"OnDemo/contracts/AccountManagement.sol\":8213:8243  user.userAddress != address(0) */\n      0xffffffffffffffffffffffffffffffffffffffff\n      and\n        /* \"OnDemo/contracts/AccountManagement.sol\":8213:8217  user */\n      dup2\n        /* \"OnDemo/contracts/AccountManagement.sol\":8213:8229  user.userAddress */\n      0x00\n      add\n      mload\n        /* \"OnDemo/contracts/AccountManagement.sol\":8213:8243  user.userAddress != address(0) */\n      0xffffffffffffffffffffffffffffffffffffffff\n      and\n      eq\n        /* \"OnDemo/contracts/AccountManagement.sol\":8210:8427  if(user.userAddress != address(0))... */\n      tag_109\n      jumpi\n        /* \"OnDemo/contracts/AccountManagement.sol\":8272:8276  user */\n      dup1\n        /* \"OnDemo/contracts/AccountManagement.sol\":8272:8285  user.isActive */\n      0x80\n      add\n      mload\n        /* \"OnDemo/contracts/AccountManagement.sol\":8272:8369  user.isActive && (user.roleMap.isLeader || user.roleMap.isCouncilMember || user.roleMap.isMember) */\n      dup1\n      iszero\n      tag_110\n      jumpi\n      pop\n        /* \"OnDemo/contracts/AccountManagement.sol\":8290:8294  user */\n      dup1\n        /* \"OnDemo/contracts/AccountManagement.sol\":8290:8302  user.roleMap */\n      0xa0\n      add\n      mload\n        /* \"OnDemo/contracts/AccountManagement.sol\":8290:8311  user.roleMap.isLeader */\n      0x00\n      add\n      mload\n        /* \"OnDemo/contracts/AccountManagement.sol\":8290:8343  user.roleMap.isLeader || user.roleMap.isCouncilMember */\n      dup1\n      tag_111\n      jumpi\n      pop\n        /* \"OnDemo/contracts/AccountManagement.sol\":8315:8319  user */\n      dup1\n        /* \"OnDemo/contracts/AccountManagement.sol\":8315:8327  user.roleMap */\n      0xa0\n      add\n      mload\n        /* \"OnDemo/contracts/AccountManagement.sol\":8315:8343  user.roleMap.isCouncilMember */\n      0x20\n      add\n      mload\n        /* \"OnDemo/contracts/AccountManagement.sol\":8290:8343  user.roleMap.isLeader || user.roleMap.isCouncilMember */\n    tag_111:\n        /* \"OnDemo/contracts/AccountManagement.sol\":8290:8368  user.roleMap.isLeader || user.roleMap.isCouncilMember || user.roleMap.isMember */\n      dup1\n      tag_112\n      jumpi\n      pop\n        /* \"OnDemo/contracts/AccountManagement.sol\":8347:8351  user */\n      dup1\n        /* \"OnDemo/contracts/AccountManagement.sol\":8347:8359  user.roleMap */\n      0xa0\n      add\n      mload\n        /* \"OnDemo/contracts/AccountManagement.sol\":8347:8368  user.roleMap.isMember */\n      0x40\n      add\n      mload\n        /* \"OnDemo/contracts/AccountManagement.sol\":8290:8368  user.roleMap.isLeader || user.roleMap.isCouncilMember || user.roleMap.isMember */\n    tag_112:\n        /* \"OnDemo/contracts/AccountManagement.sol\":8272:8369  user.isActive && (user.roleMap.isLeader || user.roleMap.isCouncilMember || user.roleMap.isMember) */\n    tag_110:\n        /* \"OnDemo/contracts/AccountManagement.sol\":8269:8416  if(user.isActive && (user.roleMap.isLeader || user.roleMap.isCouncilMember || user.roleMap.isMember)){... */\n      iszero\n      tag_113\n      jumpi\n        /* \"OnDemo/contracts/AccountManagement.sol\":8396:8400  true */\n      0x01\n        /* \"OnDemo/contracts/AccountManagement.sol\":8389:8400  return true */\n      swap2\n      pop\n      pop\n      jump(tag_92)\n        /* \"OnDemo/contracts/AccountManagement.sol\":8269:8416  if(user.isActive && (user.roleMap.isLeader || user.roleMap.isCouncilMember || user.roleMap.isMember)){... */\n    tag_113:\n        /* \"OnDemo/contracts/AccountManagement.sol\":8210:8427  if(user.userAddress != address(0))... */\n    tag_109:\n        /* \"OnDemo/contracts/AccountManagement.sol\":8445:8450  false */\n      0x00\n        /* \"OnDemo/contracts/AccountManagement.sol\":8437:8450  return  false */\n      swap2\n      pop\n      pop\n        /* \"OnDemo/contracts/AccountManagement.sol\":8071:8458  function hasRightToCreateReferendum(address _address) external view returns (bool) {... */\n    tag_92:\n      swap2\n      swap1\n      pop\n      jump\t// out\n        /* \"OnDemo/contracts/AccountManagement.sol\":7302:7428  function hasMemberRole(address _address) external view returns (bool) {... */\n    tag_32:\n        /* \"OnDemo/contracts/AccountManagement.sol\":7366:7370  bool */\n      0x00\n        /* \"OnDemo/contracts/AccountManagement.sol\":7390:7420  hasRole(_address, Role.MEMBER) */\n      tag_115\n        /* \"OnDemo/contracts/AccountManagement.sol\":7398:7406  _address */\n      dup3\n        /* \"OnDemo/contracts/AccountManagement.sol\":7408:7419  Role.MEMBER */\n      0x02\n        /* \"OnDemo/contracts/AccountManagement.sol\":7390:7397  hasRole */\n      tag_116\n        /* \"OnDemo/contracts/AccountManagement.sol\":7390:7420  hasRole(_address, Role.MEMBER) */\n      jump\t// in\n    tag_115:\n        /* \"OnDemo/contracts/AccountManagement.sol\":7383:7420  return hasRole(_address, Role.MEMBER) */\n      swap1\n      pop\n        /* \"OnDemo/contracts/AccountManagement.sol\":7302:7428  function hasMemberRole(address _address) external view returns (bool) {... */\n      swap2\n      swap1\n      pop\n      jump\t// out\n        /* \"OnDemo/contracts/AccountManagement.sol\":7961:8063  function getActiveMemberCount() public view returns (uint) {... */\n    tag_35:\n        /* \"OnDemo/contracts/AccountManagement.sol\":8014:8018  uint */\n      0x00\n        /* \"OnDemo/contracts/AccountManagement.sol\":8038:8055  activeMemberCount */\n      dup1\n      sload\n        /* \"OnDemo/contracts/AccountManagement.sol\":8031:8055  return activeMemberCount */\n      swap1\n      pop\n        /* \"OnDemo/contracts/AccountManagement.sol\":7961:8063  function getActiveMemberCount() public view returns (uint) {... */\n      swap1\n      jump\t// out\n        /* \"OnDemo/contracts/AccountManagement.sol\":9239:10759  function testAccountManagement() public{... */\n    tag_39:\n        /* \"OnDemo/contracts/AccountManagement.sol\":9291:9322  address[10] memory testAccounts */\n      0x00\n        /* \"OnDemo/contracts/AccountManagement.sol\":9291:9897  address[10] memory testAccounts = [ ... */\n      mload(0x40)\n      dup1\n      0x0140\n      add\n      0x40\n      mstore\n      dup1\n        /* \"OnDemo/contracts/AccountManagement.sol\":9341:9383  0xAb8483F64d9C6d1EcF9b849Ae677dD3315835cb2 */\n      0xab8483f64d9c6d1ecf9b849ae677dd3315835cb2\n        /* \"OnDemo/contracts/AccountManagement.sol\":9291:9897  address[10] memory testAccounts = [ ... */\n      0xffffffffffffffffffffffffffffffffffffffff\n      and\n      0xffffffffffffffffffffffffffffffffffffffff\n      and\n      dup2\n      mstore\n      0x20\n      add\n        /* \"OnDemo/contracts/AccountManagement.sol\":9398:9440  0x4B20993Bc481177ec7E8f571ceCaE8A9e22C02db */\n      0x4b20993bc481177ec7e8f571cecae8a9e22c02db\n        /* \"OnDemo/contracts/AccountManagement.sol\":9291:9897  address[10] memory testAccounts = [ ... */\n      0xffffffffffffffffffffffffffffffffffffffff\n      and\n      0xffffffffffffffffffffffffffffffffffffffff\n      and\n      dup2\n      mstore\n      0x20\n      add\n        /* \"OnDemo/contracts/AccountManagement.sol\":9455:9497  0x78731D3Ca6b7E34aC0F824c42a7cC18A495cabaB */\n      0x78731d3ca6b7e34ac0f824c42a7cc18a495cabab\n        /* \"OnDemo/contracts/AccountManagement.sol\":9291:9897  address[10] memory testAccounts = [ ... */\n      0xffffffffffffffffffffffffffffffffffffffff\n      and\n      0xffffffffffffffffffffffffffffffffffffffff\n      and\n      dup2\n      mstore\n      0x20\n      add\n        /* \"OnDemo/contracts/AccountManagement.sol\":9512:9554  0x617F2E2fD72FD9D5503197092aC168c91465E7f2 */\n      0x617f2e2fd72fd9d5503197092ac168c91465e7f2\n        /* \"OnDemo/contracts/AccountManagement.sol\":9291:9897  address[10] memory testAccounts = [ ... */\n      0xffffffffffffffffffffffffffffffffffffffff\n      and\n      0xffffffffffffffffffffffffffffffffffffffff\n      and\n      dup2\n      mstore\n      0x20\n      add\n        /* \"OnDemo/contracts/AccountManagement.sol\":9569:9611  0x17F6AD8Ef982297579C203069C1DbfFE4348c372 */\n      0x17f6ad8ef982297579c203069c1dbffe4348c372\n        /* \"OnDemo/contracts/AccountManagement.sol\":9291:9897  address[10] memory testAccounts = [ ... */\n      0xffffffffffffffffffffffffffffffffffffffff\n      and\n      0xffffffffffffffffffffffffffffffffffffffff\n      and\n      dup2\n      mstore\n      0x20\n      add\n        /* \"OnDemo/contracts/AccountManagement.sol\":9626:9668  0x5c6B0f7Bf3E7ce046039Bd8FABdfD3f9F5021678 */\n      0x5c6b0f7bf3e7ce046039bd8fabdfd3f9f5021678\n        /* \"OnDemo/contracts/AccountManagement.sol\":9291:9897  address[10] memory testAccounts = [ ... */\n      0xffffffffffffffffffffffffffffffffffffffff\n      and\n      0xffffffffffffffffffffffffffffffffffffffff\n      and\n      dup2\n      mstore\n      0x20\n      add\n        /* \"OnDemo/contracts/AccountManagement.sol\":9683:9725  0x03C6FcED478cBbC9a4FAB34eF9f40767739D1Ff7 */\n      0x03c6fced478cbbc9a4fab34ef9f40767739d1ff7\n        /* \"OnDemo/contracts/AccountManagement.sol\":9291:9897  address[10] memory testAccounts = [ ... */\n      0xffffffffffffffffffffffffffffffffffffffff\n      and\n      0xffffffffffffffffffffffffffffffffffffffff\n      and\n      dup2\n      mstore\n      0x20\n      add\n        /* \"OnDemo/contracts/AccountManagement.sol\":9740:9782  0x1aE0EA34a72D944a8C7603FfB3eC30a6669E454C */\n      0x1ae0ea34a72d944a8c7603ffb3ec30a6669e454c\n        /* \"OnDemo/contracts/AccountManagement.sol\":9291:9897  address[10] memory testAccounts = [ ... */\n      0xffffffffffffffffffffffffffffffffffffffff\n      and\n      0xffffffffffffffffffffffffffffffffffffffff\n      and\n      dup2\n      mstore\n      0x20\n      add\n        /* \"OnDemo/contracts/AccountManagement.sol\":9797:9839  0xCA35b7d915458EF540aDe6068dFe2F44E8fa733c */\n      0xca35b7d915458ef540ade6068dfe2f44e8fa733c\n        /* \"OnDemo/contracts/AccountManagement.sol\":9291:9897  address[10] memory testAccounts = [ ... */\n      0xffffffffffffffffffffffffffffffffffffffff\n      and\n      0xffffffffffffffffffffffffffffffffffffffff\n      and\n      dup2\n      mstore\n      0x20\n      add\n        /* \"OnDemo/contracts/AccountManagement.sol\":9854:9896  0x14723A09ACff6D2A60DcdF7aA4AFf308FDDC160C */\n      0x14723a09acff6d2a60dcdf7aa4aff308fddc160c\n        /* \"OnDemo/contracts/AccountManagement.sol\":9291:9897  address[10] memory testAccounts = [ ... */\n      0xffffffffffffffffffffffffffffffffffffffff\n      and\n      0xffffffffffffffffffffffffffffffffffffffff\n      and\n      dup2\n      mstore\n      pop\n      swap1\n      pop\n        /* \"OnDemo/contracts/AccountManagement.sol\":9910:9938  string[10] memory firstNames */\n      0x00\n        /* \"OnDemo/contracts/AccountManagement.sol\":9910:10029  string[10] memory firstNames = [\"Rick\", \"Vanessa\", \"Alex\", \"Vici\", \"Lu\", \"John\", \"Sarah\", \"Samantha\", \"Peter\", \"David\"] */\n      mload(0x40)\n      dup1\n      0x0140\n      add\n      0x40\n      mstore\n      dup1\n      mload(0x40)\n      dup1\n      0x40\n      add\n      0x40\n      mstore\n      dup1\n      0x04\n      dup2\n      mstore\n      0x20\n      add\n      0x5269636b00000000000000000000000000000000000000000000000000000000\n      dup2\n      mstore\n      pop\n      dup2\n      mstore\n      0x20\n      add\n      mload(0x40)\n      dup1\n      0x40\n      add\n      0x40\n      mstore\n      dup1\n      0x07\n      dup2\n      mstore\n      0x20\n      add\n      0x56616e6573736100000000000000000000000000000000000000000000000000\n      dup2\n      mstore\n      pop\n      dup2\n      mstore\n      0x20\n      add\n      mload(0x40)\n      dup1\n      0x40\n      add\n      0x40\n      mstore\n      dup1\n      0x04\n      dup2\n      mstore\n      0x20\n      add\n      0x416c657800000000000000000000000000000000000000000000000000000000\n      dup2\n      mstore\n      pop\n      dup2\n      mstore\n      0x20\n      add\n      mload(0x40)\n      dup1\n      0x40\n      add\n      0x40\n      mstore\n      dup1\n      0x04\n      dup2\n      mstore\n      0x20\n      add\n      0x5669636900000000000000000000000000000000000000000000000000000000\n      dup2\n      mstore\n      pop\n      dup2\n      mstore\n      0x20\n      add\n      mload(0x40)\n      dup1\n      0x40\n      add\n      0x40\n      mstore\n      dup1\n      0x02\n      dup2\n      mstore\n      0x20\n      add\n      0x4c75000000000000000000000000000000000000000000000000000000000000\n      dup2\n      mstore\n      pop\n      dup2\n      mstore\n      0x20\n      add\n      mload(0x40)\n      dup1\n      0x40\n      add\n      0x40\n      mstore\n      dup1\n      0x04\n      dup2\n      mstore\n      0x20\n      add\n      0x4a6f686e00000000000000000000000000000000000000000000000000000000\n      dup2\n      mstore\n      pop\n      dup2\n      mstore\n      0x20\n      add\n      mload(0x40)\n      dup1\n      0x40\n      add\n      0x40\n      mstore\n      dup1\n      0x05\n      dup2\n      mstore\n      0x20\n      add\n      0x5361726168000000000000000000000000000000000000000000000000000000\n      dup2\n      mstore\n      pop\n      dup2\n      mstore\n      0x20\n      add\n      mload(0x40)\n      dup1\n      0x40\n      add\n      0x40\n      mstore\n      dup1\n      0x08\n      dup2\n      mstore\n      0x20\n      add\n      0x53616d616e746861000000000000000000000000000000000000000000000000\n      dup2\n      mstore\n      pop\n      dup2\n      mstore\n      0x20\n      add\n      mload(0x40)\n      dup1\n      0x40\n      add\n      0x40\n      mstore\n      dup1\n      0x05\n      dup2\n      mstore\n      0x20\n      add\n      0x5065746572000000000000000000000000000000000000000000000000000000\n      dup2\n      mstore\n      pop\n      dup2\n      mstore\n      0x20\n      add\n      mload(0x40)\n      dup1\n      0x40\n      add\n      0x40\n      mstore\n      dup1\n      0x05\n      dup2\n      mstore\n      0x20\n      add\n      0x4461766964000000000000000000000000000000000000000000000000000000\n      dup2\n      mstore\n      pop\n      dup2\n      mstore\n      pop\n      swap1\n      pop\n        /* \"OnDemo/contracts/AccountManagement.sol\":10040:10067  string[10] memory lastNames */\n      0x00\n        /* \"OnDemo/contracts/AccountManagement.sol\":10040:10156  string[10] memory lastNames = [\"Patel\",\"Kim\",\"Brown\",\"Davis\",\"Martinez\",\"Wilson\",\"Garcia\",\"Jones\",\"Jackson\",\"Smith\"] */\n      mload(0x40)\n      dup1\n      0x0140\n      add\n      0x40\n      mstore\n      dup1\n      mload(0x40)\n      dup1\n      0x40\n      add\n      0x40\n      mstore\n      dup1\n      0x05\n      dup2\n      mstore\n      0x20\n      add\n      0x506174656c000000000000000000000000000000000000000000000000000000\n      dup2\n      mstore\n      pop\n      dup2\n      mstore\n      0x20\n      add\n      mload(0x40)\n      dup1\n      0x40\n      add\n      0x40\n      mstore\n      dup1\n      0x03\n      dup2\n      mstore\n      0x20\n      add\n      0x4b696d0000000000000000000000000000000000000000000000000000000000\n      dup2\n      mstore\n      pop\n      dup2\n      mstore\n      0x20\n      add\n      mload(0x40)\n      dup1\n      0x40\n      add\n      0x40\n      mstore\n      dup1\n      0x05\n      dup2\n      mstore\n      0x20\n      add\n      0x42726f776e000000000000000000000000000000000000000000000000000000\n      dup2\n      mstore\n      pop\n      dup2\n      mstore\n      0x20\n      add\n      mload(0x40)\n      dup1\n      0x40\n      add\n      0x40\n      mstore\n      dup1\n      0x05\n      dup2\n      mstore\n      0x20\n      add\n      0x4461766973000000000000000000000000000000000000000000000000000000\n      dup2\n      mstore\n      pop\n      dup2\n      mstore\n      0x20\n      add\n      mload(0x40)\n      dup1\n      0x40\n      add\n      0x40\n      mstore\n      dup1\n      0x08\n      dup2\n      mstore\n      0x20\n      add\n      0x4d617274696e657a000000000000000000000000000000000000000000000000\n      dup2\n      mstore\n      pop\n      dup2\n      mstore\n      0x20\n      add\n      mload(0x40)\n      dup1\n      0x40\n      add\n      0x40\n      mstore\n      dup1\n      0x06\n      dup2\n      mstore\n      0x20\n      add\n      0x57696c736f6e0000000000000000000000000000000000000000000000000000\n      dup2\n      mstore\n      pop\n      dup2\n      mstore\n      0x20\n      add\n      mload(0x40)\n      dup1\n      0x40\n      add\n      0x40\n      mstore\n      dup1\n      0x06\n      dup2\n      mstore\n      0x20\n      add\n      0x4761726369610000000000000000000000000000000000000000000000000000\n      dup2\n      mstore\n      pop\n      dup2\n      mstore\n      0x20\n      add\n      mload(0x40)\n      dup1\n      0x40\n      add\n      0x40\n      mstore\n      dup1\n      0x05\n      dup2\n      mstore\n      0x20\n      add\n      0x4a6f6e6573000000000000000000000000000000000000000000000000000000\n      dup2\n      mstore\n      pop\n      dup2\n      mstore\n      0x20\n      add\n      mload(0x40)\n      dup1\n      0x40\n      add\n      0x40\n      mstore\n      dup1\n      0x07\n      dup2\n      mstore\n      0x20\n      add\n      0x4a61636b736f6e00000000000000000000000000000000000000000000000000\n      dup2\n      mstore\n      pop\n      dup2\n      mstore\n      0x20\n      add\n      mload(0x40)\n      dup1\n      0x40\n      add\n      0x40\n      mstore\n      dup1\n      0x05\n      dup2\n      mstore\n      0x20\n      add\n      0x536d697468000000000000000000000000000000000000000000000000000000\n      dup2\n      mstore\n      pop\n      dup2\n      mstore\n      pop\n      swap1\n      pop\n        /* \"OnDemo/contracts/AccountManagement.sol\":10167:10197  string[10] memory mailAdresses */\n      0x00\n        /* \"OnDemo/contracts/AccountManagement.sol\":10167:10426  string[10] memory mailAdresses = [ \"Rick.Patel@por.com\",\"Vanessa.Kim@por.com\", \"Alex.Brown@por.com\",\"Vici.Davis@por.com\",\"Lu.Martinez@por.com\",\"John.Wilson@por.com\",\"Sarah.Garcia@por.com\",\"Samantha.Jones@por.com\",\"Peter.Jackson@por.com\",\"David.Smith@por.com\"] */\n      mload(0x40)\n      dup1\n      0x0140\n      add\n      0x40\n      mstore\n      dup1\n      mload(0x40)\n      dup1\n      0x40\n      add\n      0x40\n      mstore\n      dup1\n      0x12\n      dup2\n      mstore\n      0x20\n      add\n      0x5269636b2e506174656c40706f722e636f6d0000000000000000000000000000\n      dup2\n      mstore\n      pop\n      dup2\n      mstore\n      0x20\n      add\n      mload(0x40)\n      dup1\n      0x40\n      add\n      0x40\n      mstore\n      dup1\n      0x13\n      dup2\n      mstore\n      0x20\n      add\n      0x56616e657373612e4b696d40706f722e636f6d00000000000000000000000000\n      dup2\n      mstore\n      pop\n      dup2\n      mstore\n      0x20\n      add\n      mload(0x40)\n      dup1\n      0x40\n      add\n      0x40\n      mstore\n      dup1\n      0x12\n      dup2\n      mstore\n      0x20\n      add\n      0x416c65782e42726f776e40706f722e636f6d0000000000000000000000000000\n      dup2\n      mstore\n      pop\n      dup2\n      mstore\n      0x20\n      add\n      mload(0x40)\n      dup1\n      0x40\n      add\n      0x40\n      mstore\n      dup1\n      0x12\n      dup2\n      mstore\n      0x20\n      add\n      0x566963692e446176697340706f722e636f6d0000000000000000000000000000\n      dup2\n      mstore\n      pop\n      dup2\n      mstore\n      0x20\n      add\n      mload(0x40)\n      dup1\n      0x40\n      add\n      0x40\n      mstore\n      dup1\n      0x13\n      dup2\n      mstore\n      0x20\n      add\n      0x4c752e4d617274696e657a40706f722e636f6d00000000000000000000000000\n      dup2\n      mstore\n      pop\n      dup2\n      mstore\n      0x20\n      add\n      mload(0x40)\n      dup1\n      0x40\n      add\n      0x40\n      mstore\n      dup1\n      0x13\n      dup2\n      mstore\n      0x20\n      add\n      0x4a6f686e2e57696c736f6e40706f722e636f6d00000000000000000000000000\n      dup2\n      mstore\n      pop\n      dup2\n      mstore\n      0x20\n      add\n      mload(0x40)\n      dup1\n      0x40\n      add\n      0x40\n      mstore\n      dup1\n      0x14\n      dup2\n      mstore\n      0x20\n      add\n      0x53617261682e47617263696140706f722e636f6d000000000000000000000000\n      dup2\n      mstore\n      pop\n      dup2\n      mstore\n      0x20\n      add\n      mload(0x40)\n      dup1\n      0x40\n      add\n      0x40\n      mstore\n      dup1\n      0x16\n      dup2\n      mstore\n      0x20\n      add\n      0x53616d616e7468612e4a6f6e657340706f722e636f6d00000000000000000000\n      dup2\n      mstore\n      pop\n      dup2\n      mstore\n      0x20\n      add\n      mload(0x40)\n      dup1\n      0x40\n      add\n      0x40\n      mstore\n      dup1\n      0x15\n      dup2\n      mstore\n      0x20\n      add\n      0x50657465722e4a61636b736f6e40706f722e636f6d0000000000000000000000\n      dup2\n      mstore\n      pop\n      dup2\n      mstore\n      0x20\n      add\n      mload(0x40)\n      dup1\n      0x40\n      add\n      0x40\n      mstore\n      dup1\n      0x13\n      dup2\n      mstore\n      0x20\n      add\n      0x44617669642e536d69746840706f722e636f6d00000000000000000000000000\n      dup2\n      mstore\n      pop\n      dup2\n      mstore\n      pop\n      swap1\n      pop\n        /* \"OnDemo/contracts/AccountManagement.sol\":10442:10448  uint i */\n      0x00\n        /* \"OnDemo/contracts/AccountManagement.sol\":10438:10752  for(uint i = 0; i < testAccounts.length; i++)... */\n    tag_119:\n        /* \"OnDemo/contracts/AccountManagement.sol\":10458:10477  testAccounts.length */\n      0x0a\n        /* \"OnDemo/contracts/AccountManagement.sol\":10454:10455  i */\n      dup2\n        /* \"OnDemo/contracts/AccountManagement.sol\":10454:10477  i < testAccounts.length */\n      lt\n        /* \"OnDemo/contracts/AccountManagement.sol\":10438:10752  for(uint i = 0; i < testAccounts.length; i++)... */\n      iszero\n      tag_120\n      jumpi\n        /* \"OnDemo/contracts/AccountManagement.sol\":10508:10519  address acc */\n      0x00\n        /* \"OnDemo/contracts/AccountManagement.sol\":10522:10534  testAccounts */\n      dup6\n        /* \"OnDemo/contracts/AccountManagement.sol\":10535:10536  i */\n      dup3\n        /* \"OnDemo/contracts/AccountManagement.sol\":10522:10537  testAccounts[i] */\n      0x0a\n      dup2\n      lt\n      tag_122\n      jumpi\n      tag_123\n      tag_124\n      jump\t// in\n    tag_123:\n    tag_122:\n      0x20\n      mul\n      add\n      mload\n        /* \"OnDemo/contracts/AccountManagement.sol\":10508:10537  address acc = testAccounts[i] */\n      swap1\n      pop\n        /* \"OnDemo/contracts/AccountManagement.sol\":10552:10616  createAccount(acc, firstNames[i], lastNames[i], mailAdresses[i]) */\n      tag_125\n        /* \"OnDemo/contracts/AccountManagement.sol\":10566:10569  acc */\n      dup2\n        /* \"OnDemo/contracts/AccountManagement.sol\":10571:10581  firstNames */\n      dup7\n        /* \"OnDemo/contracts/AccountManagement.sol\":10582:10583  i */\n      dup5\n        /* \"OnDemo/contracts/AccountManagement.sol\":10571:10584  firstNames[i] */\n      0x0a\n      dup2\n      lt\n      tag_126\n      jumpi\n      tag_127\n      tag_124\n      jump\t// in\n    tag_127:\n    tag_126:\n      0x20\n      mul\n      add\n      mload\n        /* \"OnDemo/contracts/AccountManagement.sol\":10586:10595  lastNames */\n      dup7\n        /* \"OnDemo/contracts/AccountManagement.sol\":10596:10597  i */\n      dup6\n        /* \"OnDemo/contracts/AccountManagement.sol\":10586:10598  lastNames[i] */\n      0x0a\n      dup2\n      lt\n      tag_128\n      jumpi\n      tag_129\n      tag_124\n      jump\t// in\n    tag_129:\n    tag_128:\n      0x20\n      mul\n      add\n      mload\n        /* \"OnDemo/contracts/AccountManagement.sol\":10600:10612  mailAdresses */\n      dup7\n        /* \"OnDemo/contracts/AccountManagement.sol\":10613:10614  i */\n      dup7\n        /* \"OnDemo/contracts/AccountManagement.sol\":10600:10615  mailAdresses[i] */\n      0x0a\n      dup2\n      lt\n      tag_130\n      jumpi\n      tag_131\n      tag_124\n      jump\t// in\n    tag_131:\n    tag_130:\n      0x20\n      mul\n      add\n      mload\n        /* \"OnDemo/contracts/AccountManagement.sol\":10552:10565  createAccount */\n      tag_83\n        /* \"OnDemo/contracts/AccountManagement.sol\":10552:10616  createAccount(acc, firstNames[i], lastNames[i], mailAdresses[i]) */\n      jump\t// in\n    tag_125:\n        /* \"OnDemo/contracts/AccountManagement.sol\":10631:10659  assignRole(acc, Role.MEMBER) */\n      tag_132\n        /* \"OnDemo/contracts/AccountManagement.sol\":10642:10645  acc */\n      dup2\n        /* \"OnDemo/contracts/AccountManagement.sol\":10647:10658  Role.MEMBER */\n      0x02\n        /* \"OnDemo/contracts/AccountManagement.sol\":10631:10641  assignRole */\n      tag_53\n        /* \"OnDemo/contracts/AccountManagement.sol\":10631:10659  assignRole(acc, Role.MEMBER) */\n      jump\t// in\n    tag_132:\n        /* \"OnDemo/contracts/AccountManagement.sol\":10674:10701  removeRole(acc, Role.GUEST) */\n      tag_133\n        /* \"OnDemo/contracts/AccountManagement.sol\":10685:10688  acc */\n      dup2\n        /* \"OnDemo/contracts/AccountManagement.sol\":10690:10700  Role.GUEST */\n      0x03\n        /* \"OnDemo/contracts/AccountManagement.sol\":10674:10684  removeRole */\n      tag_72\n        /* \"OnDemo/contracts/AccountManagement.sol\":10674:10701  removeRole(acc, Role.GUEST) */\n      jump\t// in\n    tag_133:\n        /* \"OnDemo/contracts/AccountManagement.sol\":10718:10740  makeAccountActive(acc) */\n      tag_134\n        /* \"OnDemo/contracts/AccountManagement.sol\":10736:10739  acc */\n      dup2\n        /* \"OnDemo/contracts/AccountManagement.sol\":10718:10735  makeAccountActive */\n      tag_69\n        /* \"OnDemo/contracts/AccountManagement.sol\":10718:10740  makeAccountActive(acc) */\n      jump\t// in\n    tag_134:\n        /* \"OnDemo/contracts/AccountManagement.sol\":10493:10752  {... */\n      pop\n        /* \"OnDemo/contracts/AccountManagement.sol\":10479:10482  i++ */\n      dup1\n      dup1\n      tag_135\n      swap1\n      tag_136\n      jump\t// in\n    tag_135:\n      swap2\n      pop\n      pop\n        /* \"OnDemo/contracts/AccountManagement.sol\":10438:10752  for(uint i = 0; i < testAccounts.length; i++)... */\n      jump(tag_119)\n    tag_120:\n      pop\n        /* \"OnDemo/contracts/AccountManagement.sol\":9278:10759  {... */\n      pop\n      pop\n      pop\n      pop\n        /* \"OnDemo/contracts/AccountManagement.sol\":9239:10759  function testAccountManagement() public{... */\n      jump\t// out\n        /* \"OnDemo/contracts/AccountManagement.sol\":7016:7142  function hasLeaderRole(address _address) external view returns (bool) {... */\n    tag_42:\n        /* \"OnDemo/contracts/AccountManagement.sol\":7080:7084  bool */\n      0x00\n        /* \"OnDemo/contracts/AccountManagement.sol\":7104:7134  hasRole(_address, Role.LEADER) */\n      tag_138\n        /* \"OnDemo/contracts/AccountManagement.sol\":7112:7120  _address */\n      dup3\n        /* \"OnDemo/contracts/AccountManagement.sol\":7122:7133  Role.LEADER */\n      0x00\n        /* \"OnDemo/contracts/AccountManagement.sol\":7104:7111  hasRole */\n      tag_116\n        /* \"OnDemo/contracts/AccountManagement.sol\":7104:7134  hasRole(_address, Role.LEADER) */\n      jump\t// in\n    tag_138:\n        /* \"OnDemo/contracts/AccountManagement.sol\":7097:7134  return hasRole(_address, Role.LEADER) */\n      swap1\n      pop\n        /* \"OnDemo/contracts/AccountManagement.sol\":7016:7142  function hasLeaderRole(address _address) external view returns (bool) {... */\n      swap2\n      swap1\n      pop\n      jump\t// out\n        /* \"OnDemo/contracts/AccountManagement.sol\":3254:3615  function makeAccountPassive(address _address) public userExists(_address){... */\n    tag_46:\n        /* \"OnDemo/contracts/AccountManagement.sol\":3318:3326  _address */\n      dup1\n        /* \"OnDemo/contracts/AccountManagement.sol\":2011:2012  0 */\n      0x00\n        /* \"OnDemo/contracts/AccountManagement.sol\":1972:2013  users[_address].userAddress != address(0) */\n      0xffffffffffffffffffffffffffffffffffffffff\n      and\n        /* \"OnDemo/contracts/AccountManagement.sol\":1972:1977  users */\n      0x02\n        /* \"OnDemo/contracts/AccountManagement.sol\":1972:1987  users[_address] */\n      0x00\n        /* \"OnDemo/contracts/AccountManagement.sol\":1978:1986  _address */\n      dup4\n        /* \"OnDemo/contracts/AccountManagement.sol\":1972:1987  users[_address] */\n      0xffffffffffffffffffffffffffffffffffffffff\n      and\n      0xffffffffffffffffffffffffffffffffffffffff\n      and\n      dup2\n      mstore\n      0x20\n      add\n      swap1\n      dup2\n      mstore\n      0x20\n      add\n      0x00\n      keccak256\n        /* \"OnDemo/contracts/AccountManagement.sol\":1972:1999  users[_address].userAddress */\n      0x00\n      add\n      0x00\n      swap1\n      sload\n      swap1\n      0x0100\n      exp\n      swap1\n      div\n      0xffffffffffffffffffffffffffffffffffffffff\n      and\n        /* \"OnDemo/contracts/AccountManagement.sol\":1972:2013  users[_address].userAddress != address(0) */\n      0xffffffffffffffffffffffffffffffffffffffff\n      and\n      eq\n      iszero\n        /* \"OnDemo/contracts/AccountManagement.sol\":1964:2039  require(users[_address].userAddress != address(0), \"Account doesn't exist\") */\n      tag_140\n      jumpi\n      mload(0x40)\n      0x08c379a000000000000000000000000000000000000000000000000000000000\n      dup2\n      mstore\n      0x04\n      add\n      tag_141\n      swap1\n      tag_142\n      jump\t// in\n    tag_141:\n      mload(0x40)\n      dup1\n      swap2\n      sub\n      swap1\n      revert\n    tag_140:\n        /* \"OnDemo/contracts/AccountManagement.sol\":3341:3354  activeMembers */\n      0x03\n        /* \"OnDemo/contracts/AccountManagement.sol\":3341:3364  activeMembers[_address] */\n      0x00\n        /* \"OnDemo/contracts/AccountManagement.sol\":3355:3363  _address */\n      dup4\n        /* \"OnDemo/contracts/AccountManagement.sol\":3341:3364  activeMembers[_address] */\n      0xffffffffffffffffffffffffffffffffffffffff\n      and\n      0xffffffffffffffffffffffffffffffffffffffff\n      and\n      dup2\n      mstore\n      0x20\n      add\n      swap1\n      dup2\n      mstore\n      0x20\n      add\n      0x00\n      keccak256\n      0x00\n      swap1\n      sload\n      swap1\n      0x0100\n      exp\n      swap1\n      div\n      0xff\n      and\n        /* \"OnDemo/contracts/AccountManagement.sol\":3338:3595  if(activeMembers[_address]){... */\n      iszero\n      tag_144\n      jumpi\n        /* \"OnDemo/contracts/AccountManagement.sol\":3380:3397  User storage user */\n      0x00\n        /* \"OnDemo/contracts/AccountManagement.sol\":3400:3405  users */\n      0x02\n        /* \"OnDemo/contracts/AccountManagement.sol\":3400:3415  users[_address] */\n      0x00\n        /* \"OnDemo/contracts/AccountManagement.sol\":3406:3414  _address */\n      dup5\n        /* \"OnDemo/contracts/AccountManagement.sol\":3400:3415  users[_address] */\n      0xffffffffffffffffffffffffffffffffffffffff\n      and\n      0xffffffffffffffffffffffffffffffffffffffff\n      and\n      dup2\n      mstore\n      0x20\n      add\n      swap1\n      dup2\n      mstore\n      0x20\n      add\n      0x00\n      keccak256\n        /* \"OnDemo/contracts/AccountManagement.sol\":3380:3415  User storage user = users[_address] */\n      swap1\n      pop\n        /* \"OnDemo/contracts/AccountManagement.sol\":3446:3451  false */\n      0x00\n        /* \"OnDemo/contracts/AccountManagement.sol\":3430:3434  user */\n      dup2\n        /* \"OnDemo/contracts/AccountManagement.sol\":3430:3443  user.isActive */\n      0x04\n      add\n      0x00\n        /* \"OnDemo/contracts/AccountManagement.sol\":3430:3451  user.isActive = false */\n      0x0100\n      exp\n      dup2\n      sload\n      dup2\n      0xff\n      mul\n      not\n      and\n      swap1\n      dup4\n      iszero\n      iszero\n      mul\n      or\n      swap1\n      sstore\n      pop\n        /* \"OnDemo/contracts/AccountManagement.sol\":3544:3549  false */\n      0x00\n        /* \"OnDemo/contracts/AccountManagement.sol\":3518:3531  activeMembers */\n      0x03\n        /* \"OnDemo/contracts/AccountManagement.sol\":3518:3541  activeMembers[_address] */\n      0x00\n        /* \"OnDemo/contracts/AccountManagement.sol\":3532:3540  _address */\n      dup6\n        /* \"OnDemo/contracts/AccountManagement.sol\":3518:3541  activeMembers[_address] */\n      0xffffffffffffffffffffffffffffffffffffffff\n      and\n      0xffffffffffffffffffffffffffffffffffffffff\n      and\n      dup2\n      mstore\n      0x20\n      add\n      swap1\n      dup2\n      mstore\n      0x20\n      add\n      0x00\n      keccak256\n      0x00\n        /* \"OnDemo/contracts/AccountManagement.sol\":3518:3549  activeMembers[_address] = false */\n      0x0100\n      exp\n      dup2\n      sload\n      dup2\n      0xff\n      mul\n      not\n      and\n      swap1\n      dup4\n      iszero\n      iszero\n      mul\n      or\n      swap1\n      sstore\n      pop\n        /* \"OnDemo/contracts/AccountManagement.sol\":3564:3581  activeMemberCount */\n      0x00\n      dup1\n        /* \"OnDemo/contracts/AccountManagement.sol\":3564:3583  activeMemberCount-- */\n      dup2\n      sload\n      dup1\n      swap3\n      swap2\n      swap1\n      tag_145\n      swap1\n      tag_146\n      jump\t// in\n    tag_145:\n      swap2\n      swap1\n      pop\n      sstore\n      pop\n        /* \"OnDemo/contracts/AccountManagement.sol\":3365:3595  {... */\n      pop\n        /* \"OnDemo/contracts/AccountManagement.sol\":3338:3595  if(activeMembers[_address]){... */\n    tag_144:\n        /* \"OnDemo/contracts/AccountManagement.sol\":3254:3615  function makeAccountPassive(address _address) public userExists(_address){... */\n      pop\n      pop\n      jump\t// out\n        /* \"OnDemo/contracts/AccountManagement.sol\":832:861  uint public activeMemberCount */\n    tag_48:\n      sload(0x00)\n      dup2\n      jump\t// out\n        /* \"OnDemo/contracts/AccountManagement.sol\":3929:4492  function assignRole(address _address, Role _role) public onlyLeader userExists(_address){... */\n    tag_53:\n        /* \"OnDemo/contracts/AccountManagement.sol\":1810:1815  owner */\n      0x01\n      0x00\n      swap1\n      sload\n      swap1\n      0x0100\n      exp\n      swap1\n      div\n      0xffffffffffffffffffffffffffffffffffffffff\n      and\n        /* \"OnDemo/contracts/AccountManagement.sol\":1796:1815  msg.sender == owner */\n      0xffffffffffffffffffffffffffffffffffffffff\n      and\n        /* \"OnDemo/contracts/AccountManagement.sol\":1796:1806  msg.sender */\n      caller\n        /* \"OnDemo/contracts/AccountManagement.sol\":1796:1815  msg.sender == owner */\n      0xffffffffffffffffffffffffffffffffffffffff\n      and\n      eq\n        /* \"OnDemo/contracts/AccountManagement.sol\":1796:1849  msg.sender == owner || this.hasLeaderRole(msg.sender) */\n      dup1\n      tag_148\n      jumpi\n      pop\n        /* \"OnDemo/contracts/AccountManagement.sol\":1819:1823  this */\n      address\n        /* \"OnDemo/contracts/AccountManagement.sol\":1819:1837  this.hasLeaderRole */\n      0xffffffffffffffffffffffffffffffffffffffff\n      and\n      0x297027d5\n        /* \"OnDemo/contracts/AccountManagement.sol\":1838:1848  msg.sender */\n      caller\n        /* \"OnDemo/contracts/AccountManagement.sol\":1819:1849  this.hasLeaderRole(msg.sender) */\n      mload(0x40)\n      dup3\n      0xffffffff\n      and\n      0xe0\n      shl\n      dup2\n      mstore\n      0x04\n      add\n      tag_149\n      swap2\n      swap1\n      tag_66\n      jump\t// in\n    tag_149:\n      0x20\n      mload(0x40)\n      dup1\n      dup4\n      sub\n      dup2\n      dup7\n      gas\n      staticcall\n      iszero\n      dup1\n      iszero\n      tag_151\n      jumpi\n      returndatasize\n      0x00\n      dup1\n      returndatacopy\n      revert(0x00, returndatasize)\n    tag_151:\n      pop\n      pop\n      pop\n      pop\n      mload(0x40)\n      returndatasize\n      not(0x1f)\n      0x1f\n      dup3\n      add\n      and\n      dup3\n      add\n      dup1\n      0x40\n      mstore\n      pop\n      dup2\n      add\n      swap1\n      tag_152\n      swap2\n      swap1\n      tag_153\n      jump\t// in\n    tag_152:\n        /* \"OnDemo/contracts/AccountManagement.sol\":1796:1849  msg.sender == owner || this.hasLeaderRole(msg.sender) */\n    tag_148:\n        /* \"OnDemo/contracts/AccountManagement.sol\":1788:1888  require(msg.sender == owner || this.hasLeaderRole(msg.sender), \"Only owner can call this function.\") */\n      tag_154\n      jumpi\n      mload(0x40)\n      0x08c379a000000000000000000000000000000000000000000000000000000000\n      dup2\n      mstore\n      0x04\n      add\n      tag_155\n      swap1\n      tag_156\n      jump\t// in\n    tag_155:\n      mload(0x40)\n      dup1\n      swap2\n      sub\n      swap1\n      revert\n    tag_154:\n        /* \"OnDemo/contracts/AccountManagement.sol\":4008:4016  _address */\n      dup2\n        /* \"OnDemo/contracts/AccountManagement.sol\":2011:2012  0 */\n      0x00\n        /* \"OnDemo/contracts/AccountManagement.sol\":1972:2013  users[_address].userAddress != address(0) */\n      0xffffffffffffffffffffffffffffffffffffffff\n      and\n        /* \"OnDemo/contracts/AccountManagement.sol\":1972:1977  users */\n      0x02\n        /* \"OnDemo/contracts/AccountManagement.sol\":1972:1987  users[_address] */\n      0x00\n        /* \"OnDemo/contracts/AccountManagement.sol\":1978:1986  _address */\n      dup4\n        /* \"OnDemo/contracts/AccountManagement.sol\":1972:1987  users[_address] */\n      0xffffffffffffffffffffffffffffffffffffffff\n      and\n      0xffffffffffffffffffffffffffffffffffffffff\n      and\n      dup2\n      mstore\n      0x20\n      add\n      swap1\n      dup2\n      mstore\n      0x20\n      add\n      0x00\n      keccak256\n        /* \"OnDemo/contracts/AccountManagement.sol\":1972:1999  users[_address].userAddress */\n      0x00\n      add\n      0x00\n      swap1\n      sload\n      swap1\n      0x0100\n      exp\n      swap1\n      div\n      0xffffffffffffffffffffffffffffffffffffffff\n      and\n        /* \"OnDemo/contracts/AccountManagement.sol\":1972:2013  users[_address].userAddress != address(0) */\n      0xffffffffffffffffffffffffffffffffffffffff\n      and\n      eq\n      iszero\n        /* \"OnDemo/contracts/AccountManagement.sol\":1964:2039  require(users[_address].userAddress != address(0), \"Account doesn't exist\") */\n      tag_158\n      jumpi\n      mload(0x40)\n      0x08c379a000000000000000000000000000000000000000000000000000000000\n      dup2\n      mstore\n      0x04\n      add\n      tag_159\n      swap1\n      tag_142\n      jump\t// in\n    tag_159:\n      mload(0x40)\n      dup1\n      swap2\n      sub\n      swap1\n      revert\n    tag_158:\n        /* \"OnDemo/contracts/AccountManagement.sol\":4028:4045  User storage user */\n      0x00\n        /* \"OnDemo/contracts/AccountManagement.sol\":4048:4053  users */\n      0x02\n        /* \"OnDemo/contracts/AccountManagement.sol\":4048:4063  users[_address] */\n      0x00\n        /* \"OnDemo/contracts/AccountManagement.sol\":4054:4062  _address */\n      dup6\n        /* \"OnDemo/contracts/AccountManagement.sol\":4048:4063  users[_address] */\n      0xffffffffffffffffffffffffffffffffffffffff\n      and\n      0xffffffffffffffffffffffffffffffffffffffff\n      and\n      dup2\n      mstore\n      0x20\n      add\n      swap1\n      dup2\n      mstore\n      0x20\n      add\n      0x00\n      keccak256\n        /* \"OnDemo/contracts/AccountManagement.sol\":4028:4063  User storage user = users[_address] */\n      swap1\n      pop\n        /* \"OnDemo/contracts/AccountManagement.sol\":4074:4097  RoleMap storage roleMap */\n      0x00\n        /* \"OnDemo/contracts/AccountManagement.sol\":4100:4104  user */\n      dup2\n        /* \"OnDemo/contracts/AccountManagement.sol\":4100:4112  user.roleMap */\n      0x05\n      add\n        /* \"OnDemo/contracts/AccountManagement.sol\":4074:4112  RoleMap storage roleMap = user.roleMap */\n      swap1\n      pop\n        /* \"OnDemo/contracts/AccountManagement.sol\":4137:4148  Role.LEADER */\n      0x00\n        /* \"OnDemo/contracts/AccountManagement.sol\":4128:4148  _role == Role.LEADER */\n      0x03\n      dup2\n      gt\n      iszero\n      tag_161\n      jumpi\n      tag_162\n      tag_163\n      jump\t// in\n    tag_162:\n    tag_161:\n        /* \"OnDemo/contracts/AccountManagement.sol\":4128:4133  _role */\n      dup5\n        /* \"OnDemo/contracts/AccountManagement.sol\":4128:4148  _role == Role.LEADER */\n      0x03\n      dup2\n      gt\n      iszero\n      tag_164\n      jumpi\n      tag_165\n      tag_163\n      jump\t// in\n    tag_165:\n    tag_164:\n      eq\n        /* \"OnDemo/contracts/AccountManagement.sol\":4125:4485  if(_role == Role.LEADER){... */\n      iszero\n      tag_166\n      jumpi\n        /* \"OnDemo/contracts/AccountManagement.sol\":4183:4187  true */\n      0x01\n        /* \"OnDemo/contracts/AccountManagement.sol\":4164:4171  roleMap */\n      dup2\n        /* \"OnDemo/contracts/AccountManagement.sol\":4164:4180  roleMap.isLeader */\n      0x00\n      add\n      0x00\n        /* \"OnDemo/contracts/AccountManagement.sol\":4164:4187  roleMap.isLeader = true */\n      0x0100\n      exp\n      dup2\n      sload\n      dup2\n      0xff\n      mul\n      not\n      and\n      swap1\n      dup4\n      iszero\n      iszero\n      mul\n      or\n      swap1\n      sstore\n      pop\n        /* \"OnDemo/contracts/AccountManagement.sol\":4125:4485  if(_role == Role.LEADER){... */\n      jump(tag_167)\n    tag_166:\n        /* \"OnDemo/contracts/AccountManagement.sol\":4226:4244  Role.COUNCILMEMBER */\n      0x01\n        /* \"OnDemo/contracts/AccountManagement.sol\":4217:4244  _role == Role.COUNCILMEMBER */\n      0x03\n      dup2\n      gt\n      iszero\n      tag_168\n      jumpi\n      tag_169\n      tag_163\n      jump\t// in\n    tag_169:\n    tag_168:\n        /* \"OnDemo/contracts/AccountManagement.sol\":4217:4222  _role */\n      dup5\n        /* \"OnDemo/contracts/AccountManagement.sol\":4217:4244  _role == Role.COUNCILMEMBER */\n      0x03\n      dup2\n      gt\n      iszero\n      tag_170\n      jumpi\n      tag_171\n      tag_163\n      jump\t// in\n    tag_171:\n    tag_170:\n      eq\n        /* \"OnDemo/contracts/AccountManagement.sol\":4214:4485  if(_role == Role.COUNCILMEMBER){... */\n      iszero\n      tag_172\n      jumpi\n        /* \"OnDemo/contracts/AccountManagement.sol\":4286:4290  true */\n      0x01\n        /* \"OnDemo/contracts/AccountManagement.sol\":4260:4267  roleMap */\n      dup2\n        /* \"OnDemo/contracts/AccountManagement.sol\":4260:4283  roleMap.isCouncilMember */\n      0x00\n      add\n      0x01\n        /* \"OnDemo/contracts/AccountManagement.sol\":4260:4290  roleMap.isCouncilMember = true */\n      0x0100\n      exp\n      dup2\n      sload\n      dup2\n      0xff\n      mul\n      not\n      and\n      swap1\n      dup4\n      iszero\n      iszero\n      mul\n      or\n      swap1\n      sstore\n      pop\n        /* \"OnDemo/contracts/AccountManagement.sol\":4214:4485  if(_role == Role.COUNCILMEMBER){... */\n      jump(tag_173)\n    tag_172:\n        /* \"OnDemo/contracts/AccountManagement.sol\":4336:4347  Role.MEMBER */\n      0x02\n        /* \"OnDemo/contracts/AccountManagement.sol\":4327:4347  _role == Role.MEMBER */\n      0x03\n      dup2\n      gt\n      iszero\n      tag_174\n      jumpi\n      tag_175\n      tag_163\n      jump\t// in\n    tag_175:\n    tag_174:\n        /* \"OnDemo/contracts/AccountManagement.sol\":4327:4332  _role */\n      dup5\n        /* \"OnDemo/contracts/AccountManagement.sol\":4327:4347  _role == Role.MEMBER */\n      0x03\n      dup2\n      gt\n      iszero\n      tag_176\n      jumpi\n      tag_177\n      tag_163\n      jump\t// in\n    tag_177:\n    tag_176:\n      eq\n        /* \"OnDemo/contracts/AccountManagement.sol\":4324:4485  if(_role == Role.MEMBER){... */\n      iszero\n      tag_178\n      jumpi\n        /* \"OnDemo/contracts/AccountManagement.sol\":4382:4386  true */\n      0x01\n        /* \"OnDemo/contracts/AccountManagement.sol\":4363:4370  roleMap */\n      dup2\n        /* \"OnDemo/contracts/AccountManagement.sol\":4363:4379  roleMap.isMember */\n      0x00\n      add\n      0x02\n        /* \"OnDemo/contracts/AccountManagement.sol\":4363:4386  roleMap.isMember = true */\n      0x0100\n      exp\n      dup2\n      sload\n      dup2\n      0xff\n      mul\n      not\n      and\n      swap1\n      dup4\n      iszero\n      iszero\n      mul\n      or\n      swap1\n      sstore\n      pop\n        /* \"OnDemo/contracts/AccountManagement.sol\":4324:4485  if(_role == Role.MEMBER){... */\n      jump(tag_179)\n    tag_178:\n        /* \"OnDemo/contracts/AccountManagement.sol\":4425:4435  Role.GUEST */\n      0x03\n        /* \"OnDemo/contracts/AccountManagement.sol\":4416:4435  _role == Role.GUEST */\n      dup1\n      dup2\n      gt\n      iszero\n      tag_180\n      jumpi\n      tag_181\n      tag_163\n      jump\t// in\n    tag_181:\n    tag_180:\n        /* \"OnDemo/contracts/AccountManagement.sol\":4416:4421  _role */\n      dup5\n        /* \"OnDemo/contracts/AccountManagement.sol\":4416:4435  _role == Role.GUEST */\n      0x03\n      dup2\n      gt\n      iszero\n      tag_182\n      jumpi\n      tag_183\n      tag_163\n      jump\t// in\n    tag_183:\n    tag_182:\n      eq\n        /* \"OnDemo/contracts/AccountManagement.sol\":4413:4485  if(_role == Role.GUEST){... */\n      iszero\n      tag_184\n      jumpi\n        /* \"OnDemo/contracts/AccountManagement.sol\":4469:4473  true */\n      0x01\n        /* \"OnDemo/contracts/AccountManagement.sol\":4451:4458  roleMap */\n      dup2\n        /* \"OnDemo/contracts/AccountManagement.sol\":4451:4466  roleMap.isGuest */\n      0x00\n      add\n      0x03\n        /* \"OnDemo/contracts/AccountManagement.sol\":4451:4473  roleMap.isGuest = true */\n      0x0100\n      exp\n      dup2\n      sload\n      dup2\n      0xff\n      mul\n      not\n      and\n      swap1\n      dup4\n      iszero\n      iszero\n      mul\n      or\n      swap1\n      sstore\n      pop\n        /* \"OnDemo/contracts/AccountManagement.sol\":4413:4485  if(_role == Role.GUEST){... */\n    tag_184:\n        /* \"OnDemo/contracts/AccountManagement.sol\":4324:4485  if(_role == Role.MEMBER){... */\n    tag_179:\n        /* \"OnDemo/contracts/AccountManagement.sol\":4214:4485  if(_role == Role.COUNCILMEMBER){... */\n    tag_173:\n        /* \"OnDemo/contracts/AccountManagement.sol\":4125:4485  if(_role == Role.LEADER){... */\n    tag_167:\n        /* \"OnDemo/contracts/AccountManagement.sol\":4017:4492  {... */\n      pop\n      pop\n        /* \"OnDemo/contracts/AccountManagement.sol\":1899:1900  _ */\n      pop\n        /* \"OnDemo/contracts/AccountManagement.sol\":3929:4492  function assignRole(address _address, Role _role) public onlyLeader userExists(_address){... */\n      pop\n      pop\n      jump\t// out\n        /* \"OnDemo/contracts/AccountManagement.sol\":8466:8841  function hasRightToVote(address _address) external view returns (bool) {... */\n    tag_56:\n        /* \"OnDemo/contracts/AccountManagement.sol\":8531:8535  bool */\n      0x00\n        /* \"OnDemo/contracts/AccountManagement.sol\":8548:8564  User memory user */\n      dup1\n        /* \"OnDemo/contracts/AccountManagement.sol\":8567:8572  users */\n      0x02\n        /* \"OnDemo/contracts/AccountManagement.sol\":8567:8582  users[_address] */\n      0x00\n        /* \"OnDemo/contracts/AccountManagement.sol\":8573:8581  _address */\n      dup5\n        /* \"OnDemo/contracts/AccountManagement.sol\":8567:8582  users[_address] */\n      0xffffffffffffffffffffffffffffffffffffffff\n      and\n      0xffffffffffffffffffffffffffffffffffffffff\n      and\n      dup2\n      mstore\n      0x20\n      add\n      swap1\n      dup2\n      mstore\n      0x20\n      add\n      0x00\n      keccak256\n        /* \"OnDemo/contracts/AccountManagement.sol\":8548:8582  User memory user = users[_address] */\n      mload(0x40)\n      dup1\n      0xc0\n      add\n      0x40\n      mstore\n      swap1\n      dup2\n      0x00\n      dup3\n      add\n      0x00\n      swap1\n      sload\n      swap1\n      0x0100\n      exp\n      swap1\n      div\n      0xffffffffffffffffffffffffffffffffffffffff\n      and\n      0xffffffffffffffffffffffffffffffffffffffff\n      and\n      0xffffffffffffffffffffffffffffffffffffffff\n      and\n      dup2\n      mstore\n      0x20\n      add\n      0x01\n      dup3\n      add\n      dup1\n      sload\n      tag_186\n      swap1\n      tag_94\n      jump\t// in\n    tag_186:\n      dup1\n      0x1f\n      add\n      0x20\n      dup1\n      swap2\n      div\n      mul\n      0x20\n      add\n      mload(0x40)\n      swap1\n      dup2\n      add\n      0x40\n      mstore\n      dup1\n      swap3\n      swap2\n      swap1\n      dup2\n      dup2\n      mstore\n      0x20\n      add\n      dup3\n      dup1\n      sload\n      tag_187\n      swap1\n      tag_94\n      jump\t// in\n    tag_187:\n      dup1\n      iszero\n      tag_188\n      jumpi\n      dup1\n      0x1f\n      lt\n      tag_189\n      jumpi\n      0x0100\n      dup1\n      dup4\n      sload\n      div\n      mul\n      dup4\n      mstore\n      swap2\n      0x20\n      add\n      swap2\n      jump(tag_188)\n    tag_189:\n      dup3\n      add\n      swap2\n      swap1\n      0x00\n      mstore\n      keccak256(0x00, 0x20)\n      swap1\n    tag_190:\n      dup2\n      sload\n      dup2\n      mstore\n      swap1\n      0x01\n      add\n      swap1\n      0x20\n      add\n      dup1\n      dup4\n      gt\n      tag_190\n      jumpi\n      dup3\n      swap1\n      sub\n      0x1f\n      and\n      dup3\n      add\n      swap2\n    tag_188:\n      pop\n      pop\n      pop\n      pop\n      pop\n      dup2\n      mstore\n      0x20\n      add\n      0x02\n      dup3\n      add\n      dup1\n      sload\n      tag_191\n      swap1\n      tag_94\n      jump\t// in\n    tag_191:\n      dup1\n      0x1f\n      add\n      0x20\n      dup1\n      swap2\n      div\n      mul\n      0x20\n      add\n      mload(0x40)\n      swap1\n      dup2\n      add\n      0x40\n      mstore\n      dup1\n      swap3\n      swap2\n      swap1\n      dup2\n      dup2\n      mstore\n      0x20\n      add\n      dup3\n      dup1\n      sload\n      tag_192\n      swap1\n      tag_94\n      jump\t// in\n    tag_192:\n      dup1\n      iszero\n      tag_193\n      jumpi\n      dup1\n      0x1f\n      lt\n      tag_194\n      jumpi\n      0x0100\n      dup1\n      dup4\n      sload\n      div\n      mul\n      dup4\n      mstore\n      swap2\n      0x20\n      add\n      swap2\n      jump(tag_193)\n    tag_194:\n      dup3\n      add\n      swap2\n      swap1\n      0x00\n      mstore\n      keccak256(0x00, 0x20)\n      swap1\n    tag_195:\n      dup2\n      sload\n      dup2\n      mstore\n      swap1\n      0x01\n      add\n      swap1\n      0x20\n      add\n      dup1\n      dup4\n      gt\n      tag_195\n      jumpi\n      dup3\n      swap1\n      sub\n      0x1f\n      and\n      dup3\n      add\n      swap2\n    tag_193:\n      pop\n      pop\n      pop\n      pop\n      pop\n      dup2\n      mstore\n      0x20\n      add\n      0x03\n      dup3\n      add\n      dup1\n      sload\n      tag_196\n      swap1\n      tag_94\n      jump\t// in\n    tag_196:\n      dup1\n      0x1f\n      add\n      0x20\n      dup1\n      swap2\n      div\n      mul\n      0x20\n      add\n      mload(0x40)\n      swap1\n      dup2\n      add\n      0x40\n      mstore\n      dup1\n      swap3\n      swap2\n      swap1\n      dup2\n      dup2\n      mstore\n      0x20\n      add\n      dup3\n      dup1\n      sload\n      tag_197\n      swap1\n      tag_94\n      jump\t// in\n    tag_197:\n      dup1\n      iszero\n      tag_198\n      jumpi\n      dup1\n      0x1f\n      lt\n      tag_199\n      jumpi\n      0x0100\n      dup1\n      dup4\n      sload\n      div\n      mul\n      dup4\n      mstore\n      swap2\n      0x20\n      add\n      swap2\n      jump(tag_198)\n    tag_199:\n      dup3\n      add\n      swap2\n      swap1\n      0x00\n      mstore\n      keccak256(0x00, 0x20)\n      swap1\n    tag_200:\n      dup2\n      sload\n      dup2\n      mstore\n      swap1\n      0x01\n      add\n      swap1\n      0x20\n      add\n      dup1\n      dup4\n      gt\n      tag_200\n      jumpi\n      dup3\n      swap1\n      sub\n      0x1f\n      and\n      dup3\n      add\n      swap2\n    tag_198:\n      pop\n      pop\n      pop\n      pop\n      pop\n      dup2\n      mstore\n      0x20\n      add\n      0x04\n      dup3\n      add\n      0x00\n      swap1\n      sload\n      swap1\n      0x0100\n      exp\n      swap1\n      div\n      0xff\n      and\n      iszero\n      iszero\n      iszero\n      iszero\n      dup2\n      mstore\n      0x20\n      add\n      0x05\n      dup3\n      add\n      mload(0x40)\n      dup1\n      0x80\n      add\n      0x40\n      mstore\n      swap1\n      dup2\n      0x00\n      dup3\n      add\n      0x00\n      swap1\n      sload\n      swap1\n      0x0100\n      exp\n      swap1\n      div\n      0xff\n      and\n      iszero\n      iszero\n      iszero\n      iszero\n      dup2\n      mstore\n      0x20\n      add\n      0x00\n      dup3\n      add\n      0x01\n      swap1\n      sload\n      swap1\n      0x0100\n      exp\n      swap1\n      div\n      0xff\n      and\n      iszero\n      iszero\n      iszero\n      iszero\n      dup2\n      mstore\n      0x20\n      add\n      0x00\n      dup3\n      add\n      0x02\n      swap1\n      sload\n      swap1\n      0x0100\n      exp\n      swap1\n      div\n      0xff\n      and\n      iszero\n      iszero\n      iszero\n      iszero\n      dup2\n      mstore\n      0x20\n      add\n      0x00\n      dup3\n      add\n      0x03\n      swap1\n      sload\n      swap1\n      0x0100\n      exp\n      swap1\n      div\n      0xff\n      and\n      iszero\n      iszero\n      iszero\n      iszero\n      dup2\n      mstore\n      pop\n      pop\n      dup2\n      mstore\n      pop\n      pop\n      swap1\n      pop\n        /* \"OnDemo/contracts/AccountManagement.sol\":8624:8625  0 */\n      0x00\n        /* \"OnDemo/contracts/AccountManagement.sol\":8596:8626  user.userAddress != address(0) */\n      0xffffffffffffffffffffffffffffffffffffffff\n      and\n        /* \"OnDemo/contracts/AccountManagement.sol\":8596:8600  user */\n      dup2\n        /* \"OnDemo/contracts/AccountManagement.sol\":8596:8612  user.userAddress */\n      0x00\n      add\n      mload\n        /* \"OnDemo/contracts/AccountManagement.sol\":8596:8626  user.userAddress != address(0) */\n      0xffffffffffffffffffffffffffffffffffffffff\n      and\n      eq\n        /* \"OnDemo/contracts/AccountManagement.sol\":8593:8810  if(user.userAddress != address(0))... */\n      tag_201\n      jumpi\n        /* \"OnDemo/contracts/AccountManagement.sol\":8655:8659  user */\n      dup1\n        /* \"OnDemo/contracts/AccountManagement.sol\":8655:8668  user.isActive */\n      0x80\n      add\n      mload\n        /* \"OnDemo/contracts/AccountManagement.sol\":8655:8752  user.isActive && (user.roleMap.isLeader || user.roleMap.isCouncilMember || user.roleMap.isMember) */\n      dup1\n      iszero\n      tag_202\n      jumpi\n      pop\n        /* \"OnDemo/contracts/AccountManagement.sol\":8673:8677  user */\n      dup1\n        /* \"OnDemo/contracts/AccountManagement.sol\":8673:8685  user.roleMap */\n      0xa0\n      add\n      mload\n        /* \"OnDemo/contracts/AccountManagement.sol\":8673:8694  user.roleMap.isLeader */\n      0x00\n      add\n      mload\n        /* \"OnDemo/contracts/AccountManagement.sol\":8673:8726  user.roleMap.isLeader || user.roleMap.isCouncilMember */\n      dup1\n      tag_203\n      jumpi\n      pop\n        /* \"OnDemo/contracts/AccountManagement.sol\":8698:8702  user */\n      dup1\n        /* \"OnDemo/contracts/AccountManagement.sol\":8698:8710  user.roleMap */\n      0xa0\n      add\n      mload\n        /* \"OnDemo/contracts/AccountManagement.sol\":8698:8726  user.roleMap.isCouncilMember */\n      0x20\n      add\n      mload\n        /* \"OnDemo/contracts/AccountManagement.sol\":8673:8726  user.roleMap.isLeader || user.roleMap.isCouncilMember */\n    tag_203:\n        /* \"OnDemo/contracts/AccountManagement.sol\":8673:8751  user.roleMap.isLeader || user.roleMap.isCouncilMember || user.roleMap.isMember */\n      dup1\n      tag_204\n      jumpi\n      pop\n        /* \"OnDemo/contracts/AccountManagement.sol\":8730:8734  user */\n      dup1\n        /* \"OnDemo/contracts/AccountManagement.sol\":8730:8742  user.roleMap */\n      0xa0\n      add\n      mload\n        /* \"OnDemo/contracts/AccountManagement.sol\":8730:8751  user.roleMap.isMember */\n      0x40\n      add\n      mload\n        /* \"OnDemo/contracts/AccountManagement.sol\":8673:8751  user.roleMap.isLeader || user.roleMap.isCouncilMember || user.roleMap.isMember */\n    tag_204:\n        /* \"OnDemo/contracts/AccountManagement.sol\":8655:8752  user.isActive && (user.roleMap.isLeader || user.roleMap.isCouncilMember || user.roleMap.isMember) */\n    tag_202:\n        /* \"OnDemo/contracts/AccountManagement.sol\":8652:8799  if(user.isActive && (user.roleMap.isLeader || user.roleMap.isCouncilMember || user.roleMap.isMember)){... */\n      iszero\n      tag_205\n      jumpi\n        /* \"OnDemo/contracts/AccountManagement.sol\":8779:8783  true */\n      0x01\n        /* \"OnDemo/contracts/AccountManagement.sol\":8772:8783  return true */\n      swap2\n      pop\n      pop\n      jump(tag_185)\n        /* \"OnDemo/contracts/AccountManagement.sol\":8652:8799  if(user.isActive && (user.roleMap.isLeader || user.roleMap.isCouncilMember || user.roleMap.isMember)){... */\n    tag_205:\n        /* \"OnDemo/contracts/AccountManagement.sol\":8593:8810  if(user.userAddress != address(0))... */\n    tag_201:\n        /* \"OnDemo/contracts/AccountManagement.sol\":8828:8833  false */\n      0x00\n        /* \"OnDemo/contracts/AccountManagement.sol\":8820:8833  return  false */\n      swap2\n      pop\n      pop\n        /* \"OnDemo/contracts/AccountManagement.sol\":8466:8841  function hasRightToVote(address _address) external view returns (bool) {... */\n    tag_185:\n      swap2\n      swap1\n      pop\n      jump\t// out\n        /* \"OnDemo/contracts/AccountManagement.sol\":7714:7953  function getUser(address _address) public view returns(User memory){... */\n    tag_60:\n        /* \"OnDemo/contracts/AccountManagement.sol\":7769:7780  User memory */\n      tag_206\n      tag_207\n      jump\t// in\n    tag_206:\n        /* \"OnDemo/contracts/AccountManagement.sol\":7792:7805  User memory u */\n      0x00\n        /* \"OnDemo/contracts/AccountManagement.sol\":7808:7813  users */\n      0x02\n        /* \"OnDemo/contracts/AccountManagement.sol\":7808:7823  users[_address] */\n      0x00\n        /* \"OnDemo/contracts/AccountManagement.sol\":7814:7822  _address */\n      dup5\n        /* \"OnDemo/contracts/AccountManagement.sol\":7808:7823  users[_address] */\n      0xffffffffffffffffffffffffffffffffffffffff\n      and\n      0xffffffffffffffffffffffffffffffffffffffff\n      and\n      dup2\n      mstore\n      0x20\n      add\n      swap1\n      dup2\n      mstore\n      0x20\n      add\n      0x00\n      keccak256\n        /* \"OnDemo/contracts/AccountManagement.sol\":7792:7823  User memory u = users[_address] */\n      mload(0x40)\n      dup1\n      0xc0\n      add\n      0x40\n      mstore\n      swap1\n      dup2\n      0x00\n      dup3\n      add\n      0x00\n      swap1\n      sload\n      swap1\n      0x0100\n      exp\n      swap1\n      div\n      0xffffffffffffffffffffffffffffffffffffffff\n      and\n      0xffffffffffffffffffffffffffffffffffffffff\n      and\n      0xffffffffffffffffffffffffffffffffffffffff\n      and\n      dup2\n      mstore\n      0x20\n      add\n      0x01\n      dup3\n      add\n      dup1\n      sload\n      tag_209\n      swap1\n      tag_94\n      jump\t// in\n    tag_209:\n      dup1\n      0x1f\n      add\n      0x20\n      dup1\n      swap2\n      div\n      mul\n      0x20\n      add\n      mload(0x40)\n      swap1\n      dup2\n      add\n      0x40\n      mstore\n      dup1\n      swap3\n      swap2\n      swap1\n      dup2\n      dup2\n      mstore\n      0x20\n      add\n      dup3\n      dup1\n      sload\n      tag_210\n      swap1\n      tag_94\n      jump\t// in\n    tag_210:\n      dup1\n      iszero\n      tag_211\n      jumpi\n      dup1\n      0x1f\n      lt\n      tag_212\n      jumpi\n      0x0100\n      dup1\n      dup4\n      sload\n      div\n      mul\n      dup4\n      mstore\n      swap2\n      0x20\n      add\n      swap2\n      jump(tag_211)\n    tag_212:\n      dup3\n      add\n      swap2\n      swap1\n      0x00\n      mstore\n      keccak256(0x00, 0x20)\n      swap1\n    tag_213:\n      dup2\n      sload\n      dup2\n      mstore\n      swap1\n      0x01\n      add\n      swap1\n      0x20\n      add\n      dup1\n      dup4\n      gt\n      tag_213\n      jumpi\n      dup3\n      swap1\n      sub\n      0x1f\n      and\n      dup3\n      add\n      swap2\n    tag_211:\n      pop\n      pop\n      pop\n      pop\n      pop\n      dup2\n      mstore\n      0x20\n      add\n      0x02\n      dup3\n      add\n      dup1\n      sload\n      tag_214\n      swap1\n      tag_94\n      jump\t// in\n    tag_214:\n      dup1\n      0x1f\n      add\n      0x20\n      dup1\n      swap2\n      div\n      mul\n      0x20\n      add\n      mload(0x40)\n      swap1\n      dup2\n      add\n      0x40\n      mstore\n      dup1\n      swap3\n      swap2\n      swap1\n      dup2\n      dup2\n      mstore\n      0x20\n      add\n      dup3\n      dup1\n      sload\n      tag_215\n      swap1\n      tag_94\n      jump\t// in\n    tag_215:\n      dup1\n      iszero\n      tag_216\n      jumpi\n      dup1\n      0x1f\n      lt\n      tag_217\n      jumpi\n      0x0100\n      dup1\n      dup4\n      sload\n      div\n      mul\n      dup4\n      mstore\n      swap2\n      0x20\n      add\n      swap2\n      jump(tag_216)\n    tag_217:\n      dup3\n      add\n      swap2\n      swap1\n      0x00\n      mstore\n      keccak256(0x00, 0x20)\n      swap1\n    tag_218:\n      dup2\n      sload\n      dup2\n      mstore\n      swap1\n      0x01\n      add\n      swap1\n      0x20\n      add\n      dup1\n      dup4\n      gt\n      tag_218\n      jumpi\n      dup3\n      swap1\n      sub\n      0x1f\n      and\n      dup3\n      add\n      swap2\n    tag_216:\n      pop\n      pop\n      pop\n      pop\n      pop\n      dup2\n      mstore\n      0x20\n      add\n      0x03\n      dup3\n      add\n      dup1\n      sload\n      tag_219\n      swap1\n      tag_94\n      jump\t// in\n    tag_219:\n      dup1\n      0x1f\n      add\n      0x20\n      dup1\n      swap2\n      div\n      mul\n      0x20\n      add\n      mload(0x40)\n      swap1\n      dup2\n      add\n      0x40\n      mstore\n      dup1\n      swap3\n      swap2\n      swap1\n      dup2\n      dup2\n      mstore\n      0x20\n      add\n      dup3\n      dup1\n      sload\n      tag_220\n      swap1\n      tag_94\n      jump\t// in\n    tag_220:\n      dup1\n      iszero\n      tag_221\n      jumpi\n      dup1\n      0x1f\n      lt\n      tag_222\n      jumpi\n      0x0100\n      dup1\n      dup4\n      sload\n      div\n      mul\n      dup4\n      mstore\n      swap2\n      0x20\n      add\n      swap2\n      jump(tag_221)\n    tag_222:\n      dup3\n      add\n      swap2\n      swap1\n      0x00\n      mstore\n      keccak256(0x00, 0x20)\n      swap1\n    tag_223:\n      dup2\n      sload\n      dup2\n      mstore\n      swap1\n      0x01\n      add\n      swap1\n      0x20\n      add\n      dup1\n      dup4\n      gt\n      tag_223\n      jumpi\n      dup3\n      swap1\n      sub\n      0x1f\n      and\n      dup3\n      add\n      swap2\n    tag_221:\n      pop\n      pop\n      pop\n      pop\n      pop\n      dup2\n      mstore\n      0x20\n      add\n      0x04\n      dup3\n      add\n      0x00\n      swap1\n      sload\n      swap1\n      0x0100\n      exp\n      swap1\n      div\n      0xff\n      and\n      iszero\n      iszero\n      iszero\n      iszero\n      dup2\n      mstore\n      0x20\n      add\n      0x05\n      dup3\n      add\n      mload(0x40)\n      dup1\n      0x80\n      add\n      0x40\n      mstore\n      swap1\n      dup2\n      0x00\n      dup3\n      add\n      0x00\n      swap1\n      sload\n      swap1\n      0x0100\n      exp\n      swap1\n      div\n      0xff\n      and\n      iszero\n      iszero\n      iszero\n      iszero\n      dup2\n      mstore\n      0x20\n      add\n      0x00\n      dup3\n      add\n      0x01\n      swap1\n      sload\n      swap1\n      0x0100\n      exp\n      swap1\n      div\n      0xff\n      and\n      iszero\n      iszero\n      iszero\n      iszero\n      dup2\n      mstore\n      0x20\n      add\n      0x00\n      dup3\n      add\n      0x02\n      swap1\n      sload\n      swap1\n      0x0100\n      exp\n      swap1\n      div\n      0xff\n      and\n      iszero\n      iszero\n      iszero\n      iszero\n      dup2\n      mstore\n      0x20\n      add\n      0x00\n      dup3\n      add\n      0x03\n      swap1\n      sload\n      swap1\n      0x0100\n      exp\n      swap1\n      div\n      0xff\n      and\n      iszero\n      iszero\n      iszero\n      iszero\n      dup2\n      mstore\n      pop\n      pop\n      dup2\n      mstore\n      pop\n      pop\n      swap1\n      pop\n        /* \"OnDemo/contracts/AccountManagement.sol\":7862:7863  0 */\n      0x00\n        /* \"OnDemo/contracts/AccountManagement.sol\":7837:7864  u.userAddress != address(0) */\n      0xffffffffffffffffffffffffffffffffffffffff\n      and\n        /* \"OnDemo/contracts/AccountManagement.sol\":7837:7838  u */\n      dup2\n        /* \"OnDemo/contracts/AccountManagement.sol\":7837:7850  u.userAddress */\n      0x00\n      add\n      mload\n        /* \"OnDemo/contracts/AccountManagement.sol\":7837:7864  u.userAddress != address(0) */\n      0xffffffffffffffffffffffffffffffffffffffff\n      and\n      eq\n        /* \"OnDemo/contracts/AccountManagement.sol\":7834:7910  if(u.userAddress != address(0))... */\n      tag_224\n      jumpi\n        /* \"OnDemo/contracts/AccountManagement.sol\":7897:7898  u */\n      dup1\n        /* \"OnDemo/contracts/AccountManagement.sol\":7890:7898  return u */\n      swap2\n      pop\n      pop\n      jump(tag_208)\n        /* \"OnDemo/contracts/AccountManagement.sol\":7834:7910  if(u.userAddress != address(0))... */\n    tag_224:\n        /* \"OnDemo/contracts/AccountManagement.sol\":7920:7945  revert(\"User not found!\") */\n      mload(0x40)\n      0x08c379a000000000000000000000000000000000000000000000000000000000\n      dup2\n      mstore\n      0x04\n      add\n      tag_225\n      swap1\n      tag_226\n      jump\t// in\n    tag_225:\n      mload(0x40)\n      dup1\n      swap2\n      sub\n      swap1\n      revert\n        /* \"OnDemo/contracts/AccountManagement.sol\":7714:7953  function getUser(address _address) public view returns(User memory){... */\n    tag_208:\n      swap2\n      swap1\n      pop\n      jump\t// out\n        /* \"OnDemo/contracts/AccountManagement.sol\":868:888  address public owner */\n    tag_64:\n      0x01\n      0x00\n      swap1\n      sload\n      swap1\n      0x0100\n      exp\n      swap1\n      div\n      0xffffffffffffffffffffffffffffffffffffffff\n      and\n      dup2\n      jump\t// out\n        /* \"OnDemo/contracts/AccountManagement.sol\":2734:3246  function makeAccountActive(address _address) public userExists(_address){... */\n    tag_69:\n        /* \"OnDemo/contracts/AccountManagement.sol\":2797:2805  _address */\n      dup1\n        /* \"OnDemo/contracts/AccountManagement.sol\":2011:2012  0 */\n      0x00\n        /* \"OnDemo/contracts/AccountManagement.sol\":1972:2013  users[_address].userAddress != address(0) */\n      0xffffffffffffffffffffffffffffffffffffffff\n      and\n        /* \"OnDemo/contracts/AccountManagement.sol\":1972:1977  users */\n      0x02\n        /* \"OnDemo/contracts/AccountManagement.sol\":1972:1987  users[_address] */\n      0x00\n        /* \"OnDemo/contracts/AccountManagement.sol\":1978:1986  _address */\n      dup4\n        /* \"OnDemo/contracts/AccountManagement.sol\":1972:1987  users[_address] */\n      0xffffffffffffffffffffffffffffffffffffffff\n      and\n      0xffffffffffffffffffffffffffffffffffffffff\n      and\n      dup2\n      mstore\n      0x20\n      add\n      swap1\n      dup2\n      mstore\n      0x20\n      add\n      0x00\n      keccak256\n        /* \"OnDemo/contracts/AccountManagement.sol\":1972:1999  users[_address].userAddress */\n      0x00\n      add\n      0x00\n      swap1\n      sload\n      swap1\n      0x0100\n      exp\n      swap1\n      div\n      0xffffffffffffffffffffffffffffffffffffffff\n      and\n        /* \"OnDemo/contracts/AccountManagement.sol\":1972:2013  users[_address].userAddress != address(0) */\n      0xffffffffffffffffffffffffffffffffffffffff\n      and\n      eq\n      iszero\n        /* \"OnDemo/contracts/AccountManagement.sol\":1964:2039  require(users[_address].userAddress != address(0), \"Account doesn't exist\") */\n      tag_228\n      jumpi\n      mload(0x40)\n      0x08c379a000000000000000000000000000000000000000000000000000000000\n      dup2\n      mstore\n      0x04\n      add\n      tag_229\n      swap1\n      tag_142\n      jump\t// in\n    tag_229:\n      mload(0x40)\n      dup1\n      swap2\n      sub\n      swap1\n      revert\n    tag_228:\n        /* \"OnDemo/contracts/AccountManagement.sol\":2821:2834  activeMembers */\n      0x03\n        /* \"OnDemo/contracts/AccountManagement.sol\":2821:2844  activeMembers[_address] */\n      0x00\n        /* \"OnDemo/contracts/AccountManagement.sol\":2835:2843  _address */\n      dup4\n        /* \"OnDemo/contracts/AccountManagement.sol\":2821:2844  activeMembers[_address] */\n      0xffffffffffffffffffffffffffffffffffffffff\n      and\n      0xffffffffffffffffffffffffffffffffffffffff\n      and\n      dup2\n      mstore\n      0x20\n      add\n      swap1\n      dup2\n      mstore\n      0x20\n      add\n      0x00\n      keccak256\n      0x00\n      swap1\n      sload\n      swap1\n      0x0100\n      exp\n      swap1\n      div\n      0xff\n      and\n        /* \"OnDemo/contracts/AccountManagement.sol\":2817:3239  if(!activeMembers[_address]){... */\n      tag_231\n      jumpi\n        /* \"OnDemo/contracts/AccountManagement.sol\":2860:2877  User storage user */\n      0x00\n        /* \"OnDemo/contracts/AccountManagement.sol\":2880:2885  users */\n      0x02\n        /* \"OnDemo/contracts/AccountManagement.sol\":2880:2895  users[_address] */\n      0x00\n        /* \"OnDemo/contracts/AccountManagement.sol\":2886:2894  _address */\n      dup5\n        /* \"OnDemo/contracts/AccountManagement.sol\":2880:2895  users[_address] */\n      0xffffffffffffffffffffffffffffffffffffffff\n      and\n      0xffffffffffffffffffffffffffffffffffffffff\n      and\n      dup2\n      mstore\n      0x20\n      add\n      swap1\n      dup2\n      mstore\n      0x20\n      add\n      0x00\n      keccak256\n        /* \"OnDemo/contracts/AccountManagement.sol\":2860:2895  User storage user = users[_address] */\n      swap1\n      pop\n        /* \"OnDemo/contracts/AccountManagement.sol\":2926:2930  true */\n      0x01\n        /* \"OnDemo/contracts/AccountManagement.sol\":2910:2914  user */\n      dup2\n        /* \"OnDemo/contracts/AccountManagement.sol\":2910:2923  user.isActive */\n      0x04\n      add\n      0x00\n        /* \"OnDemo/contracts/AccountManagement.sol\":2910:2930  user.isActive = true */\n      0x0100\n      exp\n      dup2\n      sload\n      dup2\n      0xff\n      mul\n      not\n      and\n      swap1\n      dup4\n      iszero\n      iszero\n      mul\n      or\n      swap1\n      sstore\n      pop\n        /* \"OnDemo/contracts/AccountManagement.sol\":2992:3014  RoleMap memory roleMap */\n      0x00\n        /* \"OnDemo/contracts/AccountManagement.sol\":3017:3021  user */\n      dup2\n        /* \"OnDemo/contracts/AccountManagement.sol\":3017:3029  user.roleMap */\n      0x05\n      add\n        /* \"OnDemo/contracts/AccountManagement.sol\":2992:3029  RoleMap memory roleMap = user.roleMap */\n      mload(0x40)\n      dup1\n      0x80\n      add\n      0x40\n      mstore\n      swap1\n      dup2\n      0x00\n      dup3\n      add\n      0x00\n      swap1\n      sload\n      swap1\n      0x0100\n      exp\n      swap1\n      div\n      0xff\n      and\n      iszero\n      iszero\n      iszero\n      iszero\n      dup2\n      mstore\n      0x20\n      add\n      0x00\n      dup3\n      add\n      0x01\n      swap1\n      sload\n      swap1\n      0x0100\n      exp\n      swap1\n      div\n      0xff\n      and\n      iszero\n      iszero\n      iszero\n      iszero\n      dup2\n      mstore\n      0x20\n      add\n      0x00\n      dup3\n      add\n      0x02\n      swap1\n      sload\n      swap1\n      0x0100\n      exp\n      swap1\n      div\n      0xff\n      and\n      iszero\n      iszero\n      iszero\n      iszero\n      dup2\n      mstore\n      0x20\n      add\n      0x00\n      dup3\n      add\n      0x03\n      swap1\n      sload\n      swap1\n      0x0100\n      exp\n      swap1\n      div\n      0xff\n      and\n      iszero\n      iszero\n      iszero\n      iszero\n      dup2\n      mstore\n      pop\n      pop\n      swap1\n      pop\n        /* \"OnDemo/contracts/AccountManagement.sol\":3047:3054  roleMap */\n      dup1\n        /* \"OnDemo/contracts/AccountManagement.sol\":3047:3063  roleMap.isLeader */\n      0x00\n      add\n      mload\n        /* \"OnDemo/contracts/AccountManagement.sol\":3047:3090  roleMap.isLeader || roleMap.isCouncilMember */\n      dup1\n      tag_232\n      jumpi\n      pop\n        /* \"OnDemo/contracts/AccountManagement.sol\":3067:3074  roleMap */\n      dup1\n        /* \"OnDemo/contracts/AccountManagement.sol\":3067:3090  roleMap.isCouncilMember */\n      0x20\n      add\n      mload\n        /* \"OnDemo/contracts/AccountManagement.sol\":3047:3090  roleMap.isLeader || roleMap.isCouncilMember */\n    tag_232:\n        /* \"OnDemo/contracts/AccountManagement.sol\":3047:3110  roleMap.isLeader || roleMap.isCouncilMember || roleMap.isMember */\n      dup1\n      tag_233\n      jumpi\n      pop\n        /* \"OnDemo/contracts/AccountManagement.sol\":3094:3101  roleMap */\n      dup1\n        /* \"OnDemo/contracts/AccountManagement.sol\":3094:3110  roleMap.isMember */\n      0x40\n      add\n      mload\n        /* \"OnDemo/contracts/AccountManagement.sol\":3047:3110  roleMap.isLeader || roleMap.isCouncilMember || roleMap.isMember */\n    tag_233:\n        /* \"OnDemo/contracts/AccountManagement.sol\":3044:3228  if(roleMap.isLeader || roleMap.isCouncilMember || roleMap.isMember)... */\n      iszero\n      tag_234\n      jumpi\n        /* \"OnDemo/contracts/AccountManagement.sol\":3170:3174  true */\n      0x01\n        /* \"OnDemo/contracts/AccountManagement.sol\":3144:3157  activeMembers */\n      0x03\n        /* \"OnDemo/contracts/AccountManagement.sol\":3144:3167  activeMembers[_address] */\n      0x00\n        /* \"OnDemo/contracts/AccountManagement.sol\":3158:3166  _address */\n      dup7\n        /* \"OnDemo/contracts/AccountManagement.sol\":3144:3167  activeMembers[_address] */\n      0xffffffffffffffffffffffffffffffffffffffff\n      and\n      0xffffffffffffffffffffffffffffffffffffffff\n      and\n      dup2\n      mstore\n      0x20\n      add\n      swap1\n      dup2\n      mstore\n      0x20\n      add\n      0x00\n      keccak256\n      0x00\n        /* \"OnDemo/contracts/AccountManagement.sol\":3144:3174  activeMembers[_address] = true */\n      0x0100\n      exp\n      dup2\n      sload\n      dup2\n      0xff\n      mul\n      not\n      and\n      swap1\n      dup4\n      iszero\n      iszero\n      mul\n      or\n      swap1\n      sstore\n      pop\n        /* \"OnDemo/contracts/AccountManagement.sol\":3193:3210  activeMemberCount */\n      0x00\n      dup1\n        /* \"OnDemo/contracts/AccountManagement.sol\":3193:3212  activeMemberCount++ */\n      dup2\n      sload\n      dup1\n      swap3\n      swap2\n      swap1\n      tag_235\n      swap1\n      tag_136\n      jump\t// in\n    tag_235:\n      swap2\n      swap1\n      pop\n      sstore\n      pop\n        /* \"OnDemo/contracts/AccountManagement.sol\":3044:3228  if(roleMap.isLeader || roleMap.isCouncilMember || roleMap.isMember)... */\n    tag_234:\n        /* \"OnDemo/contracts/AccountManagement.sol\":2845:3239  {... */\n      pop\n      pop\n        /* \"OnDemo/contracts/AccountManagement.sol\":2817:3239  if(!activeMembers[_address]){... */\n    tag_231:\n        /* \"OnDemo/contracts/AccountManagement.sol\":2734:3246  function makeAccountActive(address _address) public userExists(_address){... */\n      pop\n      pop\n      jump\t// out\n        /* \"OnDemo/contracts/AccountManagement.sol\":4500:5077  function removeRole(address _address, Role _role) public onlyLeader userExists(_address){... */\n    tag_72:\n        /* \"OnDemo/contracts/AccountManagement.sol\":1810:1815  owner */\n      0x01\n      0x00\n      swap1\n      sload\n      swap1\n      0x0100\n      exp\n      swap1\n      div\n      0xffffffffffffffffffffffffffffffffffffffff\n      and\n        /* \"OnDemo/contracts/AccountManagement.sol\":1796:1815  msg.sender == owner */\n      0xffffffffffffffffffffffffffffffffffffffff\n      and\n        /* \"OnDemo/contracts/AccountManagement.sol\":1796:1806  msg.sender */\n      caller\n        /* \"OnDemo/contracts/AccountManagement.sol\":1796:1815  msg.sender == owner */\n      0xffffffffffffffffffffffffffffffffffffffff\n      and\n      eq\n        /* \"OnDemo/contracts/AccountManagement.sol\":1796:1849  msg.sender == owner || this.hasLeaderRole(msg.sender) */\n      dup1\n      tag_237\n      jumpi\n      pop\n        /* \"OnDemo/contracts/AccountManagement.sol\":1819:1823  this */\n      address\n        /* \"OnDemo/contracts/AccountManagement.sol\":1819:1837  this.hasLeaderRole */\n      0xffffffffffffffffffffffffffffffffffffffff\n      and\n      0x297027d5\n        /* \"OnDemo/contracts/AccountManagement.sol\":1838:1848  msg.sender */\n      caller\n        /* \"OnDemo/contracts/AccountManagement.sol\":1819:1849  this.hasLeaderRole(msg.sender) */\n      mload(0x40)\n      dup3\n      0xffffffff\n      and\n      0xe0\n      shl\n      dup2\n      mstore\n      0x04\n      add\n      tag_238\n      swap2\n      swap1\n      tag_66\n      jump\t// in\n    tag_238:\n      0x20\n      mload(0x40)\n      dup1\n      dup4\n      sub\n      dup2\n      dup7\n      gas\n      staticcall\n      iszero\n      dup1\n      iszero\n      tag_240\n      jumpi\n      returndatasize\n      0x00\n      dup1\n      returndatacopy\n      revert(0x00, returndatasize)\n    tag_240:\n      pop\n      pop\n      pop\n      pop\n      mload(0x40)\n      returndatasize\n      not(0x1f)\n      0x1f\n      dup3\n      add\n      and\n      dup3\n      add\n      dup1\n      0x40\n      mstore\n      pop\n      dup2\n      add\n      swap1\n      tag_241\n      swap2\n      swap1\n      tag_153\n      jump\t// in\n    tag_241:\n        /* \"OnDemo/contracts/AccountManagement.sol\":1796:1849  msg.sender == owner || this.hasLeaderRole(msg.sender) */\n    tag_237:\n        /* \"OnDemo/contracts/AccountManagement.sol\":1788:1888  require(msg.sender == owner || this.hasLeaderRole(msg.sender), \"Only owner can call this function.\") */\n      tag_242\n      jumpi\n      mload(0x40)\n      0x08c379a000000000000000000000000000000000000000000000000000000000\n      dup2\n      mstore\n      0x04\n      add\n      tag_243\n      swap1\n      tag_156\n      jump\t// in\n    tag_243:\n      mload(0x40)\n      dup1\n      swap2\n      sub\n      swap1\n      revert\n    tag_242:\n        /* \"OnDemo/contracts/AccountManagement.sol\":4579:4587  _address */\n      dup2\n        /* \"OnDemo/contracts/AccountManagement.sol\":2011:2012  0 */\n      0x00\n        /* \"OnDemo/contracts/AccountManagement.sol\":1972:2013  users[_address].userAddress != address(0) */\n      0xffffffffffffffffffffffffffffffffffffffff\n      and\n        /* \"OnDemo/contracts/AccountManagement.sol\":1972:1977  users */\n      0x02\n        /* \"OnDemo/contracts/AccountManagement.sol\":1972:1987  users[_address] */\n      0x00\n        /* \"OnDemo/contracts/AccountManagement.sol\":1978:1986  _address */\n      dup4\n        /* \"OnDemo/contracts/AccountManagement.sol\":1972:1987  users[_address] */\n      0xffffffffffffffffffffffffffffffffffffffff\n      and\n      0xffffffffffffffffffffffffffffffffffffffff\n      and\n      dup2\n      mstore\n      0x20\n      add\n      swap1\n      dup2\n      mstore\n      0x20\n      add\n      0x00\n      keccak256\n        /* \"OnDemo/contracts/AccountManagement.sol\":1972:1999  users[_address].userAddress */\n      0x00\n      add\n      0x00\n      swap1\n      sload\n      swap1\n      0x0100\n      exp\n      swap1\n      div\n      0xffffffffffffffffffffffffffffffffffffffff\n      and\n        /* \"OnDemo/contracts/AccountManagement.sol\":1972:2013  users[_address].userAddress != address(0) */\n      0xffffffffffffffffffffffffffffffffffffffff\n      and\n      eq\n      iszero\n        /* \"OnDemo/contracts/AccountManagement.sol\":1964:2039  require(users[_address].userAddress != address(0), \"Account doesn't exist\") */\n      tag_245\n      jumpi\n      mload(0x40)\n      0x08c379a000000000000000000000000000000000000000000000000000000000\n      dup2\n      mstore\n      0x04\n      add\n      tag_246\n      swap1\n      tag_142\n      jump\t// in\n    tag_246:\n      mload(0x40)\n      dup1\n      swap2\n      sub\n      swap1\n      revert\n    tag_245:\n        /* \"OnDemo/contracts/AccountManagement.sol\":4599:4616  User storage user */\n      0x00\n        /* \"OnDemo/contracts/AccountManagement.sol\":4619:4624  users */\n      0x02\n        /* \"OnDemo/contracts/AccountManagement.sol\":4619:4634  users[_address] */\n      0x00\n        /* \"OnDemo/contracts/AccountManagement.sol\":4625:4633  _address */\n      dup6\n        /* \"OnDemo/contracts/AccountManagement.sol\":4619:4634  users[_address] */\n      0xffffffffffffffffffffffffffffffffffffffff\n      and\n      0xffffffffffffffffffffffffffffffffffffffff\n      and\n      dup2\n      mstore\n      0x20\n      add\n      swap1\n      dup2\n      mstore\n      0x20\n      add\n      0x00\n      keccak256\n        /* \"OnDemo/contracts/AccountManagement.sol\":4599:4634  User storage user = users[_address] */\n      swap1\n      pop\n        /* \"OnDemo/contracts/AccountManagement.sol\":4645:4668  RoleMap storage roleMap */\n      0x00\n        /* \"OnDemo/contracts/AccountManagement.sol\":4671:4675  user */\n      dup2\n        /* \"OnDemo/contracts/AccountManagement.sol\":4671:4683  user.roleMap */\n      0x05\n      add\n        /* \"OnDemo/contracts/AccountManagement.sol\":4645:4683  RoleMap storage roleMap = user.roleMap */\n      swap1\n      pop\n        /* \"OnDemo/contracts/AccountManagement.sol\":4708:4719  Role.LEADER */\n      0x00\n        /* \"OnDemo/contracts/AccountManagement.sol\":4699:4719  _role == Role.LEADER */\n      0x03\n      dup2\n      gt\n      iszero\n      tag_248\n      jumpi\n      tag_249\n      tag_163\n      jump\t// in\n    tag_249:\n    tag_248:\n        /* \"OnDemo/contracts/AccountManagement.sol\":4699:4704  _role */\n      dup5\n        /* \"OnDemo/contracts/AccountManagement.sol\":4699:4719  _role == Role.LEADER */\n      0x03\n      dup2\n      gt\n      iszero\n      tag_250\n      jumpi\n      tag_251\n      tag_163\n      jump\t// in\n    tag_251:\n    tag_250:\n      eq\n        /* \"OnDemo/contracts/AccountManagement.sol\":4696:5070  if(_role == Role.LEADER){... */\n      iszero\n      tag_252\n      jumpi\n        /* \"OnDemo/contracts/AccountManagement.sol\":4754:4759  false */\n      0x00\n        /* \"OnDemo/contracts/AccountManagement.sol\":4735:4742  roleMap */\n      dup2\n        /* \"OnDemo/contracts/AccountManagement.sol\":4735:4751  roleMap.isLeader */\n      0x00\n      add\n      0x00\n        /* \"OnDemo/contracts/AccountManagement.sol\":4735:4759  roleMap.isLeader = false */\n      0x0100\n      exp\n      dup2\n      sload\n      dup2\n      0xff\n      mul\n      not\n      and\n      swap1\n      dup4\n      iszero\n      iszero\n      mul\n      or\n      swap1\n      sstore\n      pop\n        /* \"OnDemo/contracts/AccountManagement.sol\":4696:5070  if(_role == Role.LEADER){... */\n      jump(tag_253)\n    tag_252:\n        /* \"OnDemo/contracts/AccountManagement.sol\":4798:4816  Role.COUNCILMEMBER */\n      0x01\n        /* \"OnDemo/contracts/AccountManagement.sol\":4789:4816  _role == Role.COUNCILMEMBER */\n      0x03\n      dup2\n      gt\n      iszero\n      tag_254\n      jumpi\n      tag_255\n      tag_163\n      jump\t// in\n    tag_255:\n    tag_254:\n        /* \"OnDemo/contracts/AccountManagement.sol\":4789:4794  _role */\n      dup5\n        /* \"OnDemo/contracts/AccountManagement.sol\":4789:4816  _role == Role.COUNCILMEMBER */\n      0x03\n      dup2\n      gt\n      iszero\n      tag_256\n      jumpi\n      tag_257\n      tag_163\n      jump\t// in\n    tag_257:\n    tag_256:\n      eq\n        /* \"OnDemo/contracts/AccountManagement.sol\":4786:5070  if(_role == Role.COUNCILMEMBER){... */\n      iszero\n      tag_258\n      jumpi\n        /* \"OnDemo/contracts/AccountManagement.sol\":4858:4863  false */\n      0x00\n        /* \"OnDemo/contracts/AccountManagement.sol\":4832:4839  roleMap */\n      dup2\n        /* \"OnDemo/contracts/AccountManagement.sol\":4832:4855  roleMap.isCouncilMember */\n      0x00\n      add\n      0x01\n        /* \"OnDemo/contracts/AccountManagement.sol\":4832:4863  roleMap.isCouncilMember = false */\n      0x0100\n      exp\n      dup2\n      sload\n      dup2\n      0xff\n      mul\n      not\n      and\n      swap1\n      dup4\n      iszero\n      iszero\n      mul\n      or\n      swap1\n      sstore\n      pop\n        /* \"OnDemo/contracts/AccountManagement.sol\":4786:5070  if(_role == Role.COUNCILMEMBER){... */\n      jump(tag_259)\n    tag_258:\n        /* \"OnDemo/contracts/AccountManagement.sol\":4907:4918  Role.MEMBER */\n      0x02\n        /* \"OnDemo/contracts/AccountManagement.sol\":4898:4918  _role == Role.MEMBER */\n      0x03\n      dup2\n      gt\n      iszero\n      tag_260\n      jumpi\n      tag_261\n      tag_163\n      jump\t// in\n    tag_261:\n    tag_260:\n        /* \"OnDemo/contracts/AccountManagement.sol\":4898:4903  _role */\n      dup5\n        /* \"OnDemo/contracts/AccountManagement.sol\":4898:4918  _role == Role.MEMBER */\n      0x03\n      dup2\n      gt\n      iszero\n      tag_262\n      jumpi\n      tag_263\n      tag_163\n      jump\t// in\n    tag_263:\n    tag_262:\n      eq\n        /* \"OnDemo/contracts/AccountManagement.sol\":4895:5070  if(_role == Role.MEMBER){... */\n      iszero\n      tag_264\n      jumpi\n        /* \"OnDemo/contracts/AccountManagement.sol\":4953:4958  false */\n      0x00\n        /* \"OnDemo/contracts/AccountManagement.sol\":4934:4941  roleMap */\n      dup2\n        /* \"OnDemo/contracts/AccountManagement.sol\":4934:4950  roleMap.isMember */\n      0x00\n      add\n      0x02\n        /* \"OnDemo/contracts/AccountManagement.sol\":4934:4958  roleMap.isMember = false */\n      0x0100\n      exp\n      dup2\n      sload\n      dup2\n      0xff\n      mul\n      not\n      and\n      swap1\n      dup4\n      iszero\n      iszero\n      mul\n      or\n      swap1\n      sstore\n      pop\n        /* \"OnDemo/contracts/AccountManagement.sol\":4895:5070  if(_role == Role.MEMBER){... */\n      jump(tag_265)\n    tag_264:\n        /* \"OnDemo/contracts/AccountManagement.sol\":4997:5007  Role.GUEST */\n      0x03\n        /* \"OnDemo/contracts/AccountManagement.sol\":4988:5007  _role == Role.GUEST */\n      dup1\n      dup2\n      gt\n      iszero\n      tag_266\n      jumpi\n      tag_267\n      tag_163\n      jump\t// in\n    tag_267:\n    tag_266:\n        /* \"OnDemo/contracts/AccountManagement.sol\":4988:4993  _role */\n      dup5\n        /* \"OnDemo/contracts/AccountManagement.sol\":4988:5007  _role == Role.GUEST */\n      0x03\n      dup2\n      gt\n      iszero\n      tag_268\n      jumpi\n      tag_269\n      tag_163\n      jump\t// in\n    tag_269:\n    tag_268:\n      eq\n        /* \"OnDemo/contracts/AccountManagement.sol\":4985:5070  if(_role == Role.GUEST){... */\n      iszero\n      tag_270\n      jumpi\n        /* \"OnDemo/contracts/AccountManagement.sol\":5041:5046  false */\n      0x00\n        /* \"OnDemo/contracts/AccountManagement.sol\":5023:5030  roleMap */\n      dup2\n        /* \"OnDemo/contracts/AccountManagement.sol\":5023:5038  roleMap.isGuest */\n      0x00\n      add\n      0x03\n        /* \"OnDemo/contracts/AccountManagement.sol\":5023:5046  roleMap.isGuest = false */\n      0x0100\n      exp\n      dup2\n      sload\n      dup2\n      0xff\n      mul\n      not\n      and\n      swap1\n      dup4\n      iszero\n      iszero\n      mul\n      or\n      swap1\n      sstore\n      pop\n        /* \"OnDemo/contracts/AccountManagement.sol\":4985:5070  if(_role == Role.GUEST){... */\n    tag_270:\n        /* \"OnDemo/contracts/AccountManagement.sol\":4895:5070  if(_role == Role.MEMBER){... */\n    tag_265:\n        /* \"OnDemo/contracts/AccountManagement.sol\":4786:5070  if(_role == Role.COUNCILMEMBER){... */\n    tag_259:\n        /* \"OnDemo/contracts/AccountManagement.sol\":4696:5070  if(_role == Role.LEADER){... */\n    tag_253:\n        /* \"OnDemo/contracts/AccountManagement.sol\":4588:5077  {... */\n      pop\n      pop\n        /* \"OnDemo/contracts/AccountManagement.sol\":1899:1900  _ */\n      pop\n        /* \"OnDemo/contracts/AccountManagement.sol\":4500:5077  function removeRole(address _address, Role _role) public onlyLeader userExists(_address){... */\n      pop\n      pop\n      jump\t// out\n        /* \"OnDemo/contracts/AccountManagement.sol\":8849:9227  function hasRightToSupport(address _address) external view returns (bool) {... */\n    tag_75:\n        /* \"OnDemo/contracts/AccountManagement.sol\":8917:8921  bool */\n      0x00\n        /* \"OnDemo/contracts/AccountManagement.sol\":8934:8950  User memory user */\n      dup1\n        /* \"OnDemo/contracts/AccountManagement.sol\":8953:8958  users */\n      0x02\n        /* \"OnDemo/contracts/AccountManagement.sol\":8953:8968  users[_address] */\n      0x00\n        /* \"OnDemo/contracts/AccountManagement.sol\":8959:8967  _address */\n      dup5\n        /* \"OnDemo/contracts/AccountManagement.sol\":8953:8968  users[_address] */\n      0xffffffffffffffffffffffffffffffffffffffff\n      and\n      0xffffffffffffffffffffffffffffffffffffffff\n      and\n      dup2\n      mstore\n      0x20\n      add\n      swap1\n      dup2\n      mstore\n      0x20\n      add\n      0x00\n      keccak256\n        /* \"OnDemo/contracts/AccountManagement.sol\":8934:8968  User memory user = users[_address] */\n      mload(0x40)\n      dup1\n      0xc0\n      add\n      0x40\n      mstore\n      swap1\n      dup2\n      0x00\n      dup3\n      add\n      0x00\n      swap1\n      sload\n      swap1\n      0x0100\n      exp\n      swap1\n      div\n      0xffffffffffffffffffffffffffffffffffffffff\n      and\n      0xffffffffffffffffffffffffffffffffffffffff\n      and\n      0xffffffffffffffffffffffffffffffffffffffff\n      and\n      dup2\n      mstore\n      0x20\n      add\n      0x01\n      dup3\n      add\n      dup1\n      sload\n      tag_272\n      swap1\n      tag_94\n      jump\t// in\n    tag_272:\n      dup1\n      0x1f\n      add\n      0x20\n      dup1\n      swap2\n      div\n      mul\n      0x20\n      add\n      mload(0x40)\n      swap1\n      dup2\n      add\n      0x40\n      mstore\n      dup1\n      swap3\n      swap2\n      swap1\n      dup2\n      dup2\n      mstore\n      0x20\n      add\n      dup3\n      dup1\n      sload\n      tag_273\n      swap1\n      tag_94\n      jump\t// in\n    tag_273:\n      dup1\n      iszero\n      tag_274\n      jumpi\n      dup1\n      0x1f\n      lt\n      tag_275\n      jumpi\n      0x0100\n      dup1\n      dup4\n      sload\n      div\n      mul\n      dup4\n      mstore\n      swap2\n      0x20\n      add\n      swap2\n      jump(tag_274)\n    tag_275:\n      dup3\n      add\n      swap2\n      swap1\n      0x00\n      mstore\n      keccak256(0x00, 0x20)\n      swap1\n    tag_276:\n      dup2\n      sload\n      dup2\n      mstore\n      swap1\n      0x01\n      add\n      swap1\n      0x20\n      add\n      dup1\n      dup4\n      gt\n      tag_276\n      jumpi\n      dup3\n      swap1\n      sub\n      0x1f\n      and\n      dup3\n      add\n      swap2\n    tag_274:\n      pop\n      pop\n      pop\n      pop\n      pop\n      dup2\n      mstore\n      0x20\n      add\n      0x02\n      dup3\n      add\n      dup1\n      sload\n      tag_277\n      swap1\n      tag_94\n      jump\t// in\n    tag_277:\n      dup1\n      0x1f\n      add\n      0x20\n      dup1\n      swap2\n      div\n      mul\n      0x20\n      add\n      mload(0x40)\n      swap1\n      dup2\n      add\n      0x40\n      mstore\n      dup1\n      swap3\n      swap2\n      swap1\n      dup2\n      dup2\n      mstore\n      0x20\n      add\n      dup3\n      dup1\n      sload\n      tag_278\n      swap1\n      tag_94\n      jump\t// in\n    tag_278:\n      dup1\n      iszero\n      tag_279\n      jumpi\n      dup1\n      0x1f\n      lt\n      tag_280\n      jumpi\n      0x0100\n      dup1\n      dup4\n      sload\n      div\n      mul\n      dup4\n      mstore\n      swap2\n      0x20\n      add\n      swap2\n      jump(tag_279)\n    tag_280:\n      dup3\n      add\n      swap2\n      swap1\n      0x00\n      mstore\n      keccak256(0x00, 0x20)\n      swap1\n    tag_281:\n      dup2\n      sload\n      dup2\n      mstore\n      swap1\n      0x01\n      add\n      swap1\n      0x20\n      add\n      dup1\n      dup4\n      gt\n      tag_281\n      jumpi\n      dup3\n      swap1\n      sub\n      0x1f\n      and\n      dup3\n      add\n      swap2\n    tag_279:\n      pop\n      pop\n      pop\n      pop\n      pop\n      dup2\n      mstore\n      0x20\n      add\n      0x03\n      dup3\n      add\n      dup1\n      sload\n      tag_282\n      swap1\n      tag_94\n      jump\t// in\n    tag_282:\n      dup1\n      0x1f\n      add\n      0x20\n      dup1\n      swap2\n      div\n      mul\n      0x20\n      add\n      mload(0x40)\n      swap1\n      dup2\n      add\n      0x40\n      mstore\n      dup1\n      swap3\n      swap2\n      swap1\n      dup2\n      dup2\n      mstore\n      0x20\n      add\n      dup3\n      dup1\n      sload\n      tag_283\n      swap1\n      tag_94\n      jump\t// in\n    tag_283:\n      dup1\n      iszero\n      tag_284\n      jumpi\n      dup1\n      0x1f\n      lt\n      tag_285\n      jumpi\n      0x0100\n      dup1\n      dup4\n      sload\n      div\n      mul\n      dup4\n      mstore\n      swap2\n      0x20\n      add\n      swap2\n      jump(tag_284)\n    tag_285:\n      dup3\n      add\n      swap2\n      swap1\n      0x00\n      mstore\n      keccak256(0x00, 0x20)\n      swap1\n    tag_286:\n      dup2\n      sload\n      dup2\n      mstore\n      swap1\n      0x01\n      add\n      swap1\n      0x20\n      add\n      dup1\n      dup4\n      gt\n      tag_286\n      jumpi\n      dup3\n      swap1\n      sub\n      0x1f\n      and\n      dup3\n      add\n      swap2\n    tag_284:\n      pop\n      pop\n      pop\n      pop\n      pop\n      dup2\n      mstore\n      0x20\n      add\n      0x04\n      dup3\n      add\n      0x00\n      swap1\n      sload\n      swap1\n      0x0100\n      exp\n      swap1\n      div\n      0xff\n      and\n      iszero\n      iszero\n      iszero\n      iszero\n      dup2\n      mstore\n      0x20\n      add\n      0x05\n      dup3\n      add\n      mload(0x40)\n      dup1\n      0x80\n      add\n      0x40\n      mstore\n      swap1\n      dup2\n      0x00\n      dup3\n      add\n      0x00\n      swap1\n      sload\n      swap1\n      0x0100\n      exp\n      swap1\n      div\n      0xff\n      and\n      iszero\n      iszero\n      iszero\n      iszero\n      dup2\n      mstore\n      0x20\n      add\n      0x00\n      dup3\n      add\n      0x01\n      swap1\n      sload\n      swap1\n      0x0100\n      exp\n      swap1\n      div\n      0xff\n      and\n      iszero\n      iszero\n      iszero\n      iszero\n      dup2\n      mstore\n      0x20\n      add\n      0x00\n      dup3\n      add\n      0x02\n      swap1\n      sload\n      swap1\n      0x0100\n      exp\n      swap1\n      div\n      0xff\n      and\n      iszero\n      iszero\n      iszero\n      iszero\n      dup2\n      mstore\n      0x20\n      add\n      0x00\n      dup3\n      add\n      0x03\n      swap1\n      sload\n      swap1\n      0x0100\n      exp\n      swap1\n      div\n      0xff\n      and\n      iszero\n      iszero\n      iszero\n      iszero\n      dup2\n      mstore\n      pop\n      pop\n      dup2\n      mstore\n      pop\n      pop\n      swap1\n      pop\n        /* \"OnDemo/contracts/AccountManagement.sol\":9010:9011  0 */\n      0x00\n        /* \"OnDemo/contracts/AccountManagement.sol\":8982:9012  user.userAddress != address(0) */\n      0xffffffffffffffffffffffffffffffffffffffff\n      and\n        /* \"OnDemo/contracts/AccountManagement.sol\":8982:8986  user */\n      dup2\n        /* \"OnDemo/contracts/AccountManagement.sol\":8982:8998  user.userAddress */\n      0x00\n      add\n      mload\n        /* \"OnDemo/contracts/AccountManagement.sol\":8982:9012  user.userAddress != address(0) */\n      0xffffffffffffffffffffffffffffffffffffffff\n      and\n      eq\n        /* \"OnDemo/contracts/AccountManagement.sol\":8979:9196  if(user.userAddress != address(0))... */\n      tag_287\n      jumpi\n        /* \"OnDemo/contracts/AccountManagement.sol\":9041:9045  user */\n      dup1\n        /* \"OnDemo/contracts/AccountManagement.sol\":9041:9054  user.isActive */\n      0x80\n      add\n      mload\n        /* \"OnDemo/contracts/AccountManagement.sol\":9041:9138  user.isActive && (user.roleMap.isLeader || user.roleMap.isCouncilMember || user.roleMap.isMember) */\n      dup1\n      iszero\n      tag_288\n      jumpi\n      pop\n        /* \"OnDemo/contracts/AccountManagement.sol\":9059:9063  user */\n      dup1\n        /* \"OnDemo/contracts/AccountManagement.sol\":9059:9071  user.roleMap */\n      0xa0\n      add\n      mload\n        /* \"OnDemo/contracts/AccountManagement.sol\":9059:9080  user.roleMap.isLeader */\n      0x00\n      add\n      mload\n        /* \"OnDemo/contracts/AccountManagement.sol\":9059:9112  user.roleMap.isLeader || user.roleMap.isCouncilMember */\n      dup1\n      tag_289\n      jumpi\n      pop\n        /* \"OnDemo/contracts/AccountManagement.sol\":9084:9088  user */\n      dup1\n        /* \"OnDemo/contracts/AccountManagement.sol\":9084:9096  user.roleMap */\n      0xa0\n      add\n      mload\n        /* \"OnDemo/contracts/AccountManagement.sol\":9084:9112  user.roleMap.isCouncilMember */\n      0x20\n      add\n      mload\n        /* \"OnDemo/contracts/AccountManagement.sol\":9059:9112  user.roleMap.isLeader || user.roleMap.isCouncilMember */\n    tag_289:\n        /* \"OnDemo/contracts/AccountManagement.sol\":9059:9137  user.roleMap.isLeader || user.roleMap.isCouncilMember || user.roleMap.isMember */\n      dup1\n      tag_290\n      jumpi\n      pop\n        /* \"OnDemo/contracts/AccountManagement.sol\":9116:9120  user */\n      dup1\n        /* \"OnDemo/contracts/AccountManagement.sol\":9116:9128  user.roleMap */\n      0xa0\n      add\n      mload\n        /* \"OnDemo/contracts/AccountManagement.sol\":9116:9137  user.roleMap.isMember */\n      0x40\n      add\n      mload\n        /* \"OnDemo/contracts/AccountManagement.sol\":9059:9137  user.roleMap.isLeader || user.roleMap.isCouncilMember || user.roleMap.isMember */\n    tag_290:\n        /* \"OnDemo/contracts/AccountManagement.sol\":9041:9138  user.isActive && (user.roleMap.isLeader || user.roleMap.isCouncilMember || user.roleMap.isMember) */\n    tag_288:\n        /* \"OnDemo/contracts/AccountManagement.sol\":9038:9185  if(user.isActive && (user.roleMap.isLeader || user.roleMap.isCouncilMember || user.roleMap.isMember)){... */\n      iszero\n      tag_291\n      jumpi\n        /* \"OnDemo/contracts/AccountManagement.sol\":9165:9169  true */\n      0x01\n        /* \"OnDemo/contracts/AccountManagement.sol\":9158:9169  return true */\n      swap2\n      pop\n      pop\n      jump(tag_271)\n        /* \"OnDemo/contracts/AccountManagement.sol\":9038:9185  if(user.isActive && (user.roleMap.isLeader || user.roleMap.isCouncilMember || user.roleMap.isMember)){... */\n    tag_291:\n        /* \"OnDemo/contracts/AccountManagement.sol\":8979:9196  if(user.userAddress != address(0))... */\n    tag_287:\n        /* \"OnDemo/contracts/AccountManagement.sol\":9214:9219  false */\n      0x00\n        /* \"OnDemo/contracts/AccountManagement.sol\":9206:9219  return  false */\n      swap2\n      pop\n      pop\n        /* \"OnDemo/contracts/AccountManagement.sol\":8849:9227  function hasRightToSupport(address _address) external view returns (bool) {... */\n    tag_271:\n      swap2\n      swap1\n      pop\n      jump\t// out\n        /* \"OnDemo/contracts/AccountManagement.sol\":3623:3787  function burnAccount(address _address) public userExists(_address){  ... */\n    tag_79:\n        /* \"OnDemo/contracts/AccountManagement.sol\":3680:3688  _address */\n      dup1\n        /* \"OnDemo/contracts/AccountManagement.sol\":2011:2012  0 */\n      0x00\n        /* \"OnDemo/contracts/AccountManagement.sol\":1972:2013  users[_address].userAddress != address(0) */\n      0xffffffffffffffffffffffffffffffffffffffff\n      and\n        /* \"OnDemo/contracts/AccountManagement.sol\":1972:1977  users */\n      0x02\n        /* \"OnDemo/contracts/AccountManagement.sol\":1972:1987  users[_address] */\n      0x00\n        /* \"OnDemo/contracts/AccountManagement.sol\":1978:1986  _address */\n      dup4\n        /* \"OnDemo/contracts/AccountManagement.sol\":1972:1987  users[_address] */\n      0xffffffffffffffffffffffffffffffffffffffff\n      and\n      0xffffffffffffffffffffffffffffffffffffffff\n      and\n      dup2\n      mstore\n      0x20\n      add\n      swap1\n      dup2\n      mstore\n      0x20\n      add\n      0x00\n      keccak256\n        /* \"OnDemo/contracts/AccountManagement.sol\":1972:1999  users[_address].userAddress */\n      0x00\n      add\n      0x00\n      swap1\n      sload\n      swap1\n      0x0100\n      exp\n      swap1\n      div\n      0xffffffffffffffffffffffffffffffffffffffff\n      and\n        /* \"OnDemo/contracts/AccountManagement.sol\":1972:2013  users[_address].userAddress != address(0) */\n      0xffffffffffffffffffffffffffffffffffffffff\n      and\n      eq\n      iszero\n        /* \"OnDemo/contracts/AccountManagement.sol\":1964:2039  require(users[_address].userAddress != address(0), \"Account doesn't exist\") */\n      tag_293\n      jumpi\n      mload(0x40)\n      0x08c379a000000000000000000000000000000000000000000000000000000000\n      dup2\n      mstore\n      0x04\n      add\n      tag_294\n      swap1\n      tag_142\n      jump\t// in\n    tag_294:\n      mload(0x40)\n      dup1\n      swap2\n      sub\n      swap1\n      revert\n    tag_293:\n        /* \"OnDemo/contracts/AccountManagement.sol\":3702:3730  makeAccountPassive(_address) */\n      tag_296\n        /* \"OnDemo/contracts/AccountManagement.sol\":3721:3729  _address */\n      dup3\n        /* \"OnDemo/contracts/AccountManagement.sol\":3702:3720  makeAccountPassive */\n      tag_46\n        /* \"OnDemo/contracts/AccountManagement.sol\":3702:3730  makeAccountPassive(_address) */\n      jump\t// in\n    tag_296:\n        /* \"OnDemo/contracts/AccountManagement.sol\":3755:3760  users */\n      0x02\n        /* \"OnDemo/contracts/AccountManagement.sol\":3755:3770  users[_address] */\n      0x00\n        /* \"OnDemo/contracts/AccountManagement.sol\":3761:3769  _address */\n      dup4\n        /* \"OnDemo/contracts/AccountManagement.sol\":3755:3770  users[_address] */\n      0xffffffffffffffffffffffffffffffffffffffff\n      and\n      0xffffffffffffffffffffffffffffffffffffffff\n      and\n      dup2\n      mstore\n      0x20\n      add\n      swap1\n      dup2\n      mstore\n      0x20\n      add\n      0x00\n      keccak256\n      0x00\n        /* \"OnDemo/contracts/AccountManagement.sol\":3748:3770  delete users[_address] */\n      dup1\n      dup3\n      add\n      exp(0x0100, 0x00)\n      dup2\n      sload\n      swap1\n      0xffffffffffffffffffffffffffffffffffffffff\n      mul\n      not\n      and\n      swap1\n      sstore\n      0x01\n      dup3\n      add\n      0x00\n      tag_297\n      swap2\n      swap1\n      tag_298\n      jump\t// in\n    tag_297:\n      0x02\n      dup3\n      add\n      0x00\n      tag_299\n      swap2\n      swap1\n      tag_298\n      jump\t// in\n    tag_299:\n      0x03\n      dup3\n      add\n      0x00\n      tag_300\n      swap2\n      swap1\n      tag_298\n      jump\t// in\n    tag_300:\n      0x04\n      dup3\n      add\n      exp(0x0100, 0x00)\n      dup2\n      sload\n      swap1\n      0xff\n      mul\n      not\n      and\n      swap1\n      sstore\n      0x05\n      dup3\n      add\n      0x00\n      dup1\n      dup3\n      add\n      exp(0x0100, 0x00)\n      dup2\n      sload\n      swap1\n      0xff\n      mul\n      not\n      and\n      swap1\n      sstore\n      0x00\n      dup3\n      add\n      exp(0x0100, 0x01)\n      dup2\n      sload\n      swap1\n      0xff\n      mul\n      not\n      and\n      swap1\n      sstore\n      0x00\n      dup3\n      add\n      exp(0x0100, 0x02)\n      dup2\n      sload\n      swap1\n      0xff\n      mul\n      not\n      and\n      swap1\n      sstore\n      0x00\n      dup3\n      add\n      exp(0x0100, 0x03)\n      dup2\n      sload\n      swap1\n      0xff\n      mul\n      not\n      and\n      swap1\n      sstore\n      pop\n      pop\n      pop\n      pop\n        /* \"OnDemo/contracts/AccountManagement.sol\":3623:3787  function burnAccount(address _address) public userExists(_address){  ... */\n      pop\n      pop\n      jump\t// out\n        /* \"OnDemo/contracts/AccountManagement.sol\":2361:2726  function createAccount(address _address, string memory _firstName, string memory _secondName, string memory _mailAdress) public userNotExists(_address){... */\n    tag_83:\n        /* \"OnDemo/contracts/AccountManagement.sol\":2503:2511  _address */\n      dup4\n        /* \"OnDemo/contracts/AccountManagement.sol\":2165:2166  0 */\n      0x00\n        /* \"OnDemo/contracts/AccountManagement.sol\":2126:2167  users[_address].userAddress == address(0) */\n      0xffffffffffffffffffffffffffffffffffffffff\n      and\n        /* \"OnDemo/contracts/AccountManagement.sol\":2126:2131  users */\n      0x02\n        /* \"OnDemo/contracts/AccountManagement.sol\":2126:2141  users[_address] */\n      0x00\n        /* \"OnDemo/contracts/AccountManagement.sol\":2132:2140  _address */\n      dup4\n        /* \"OnDemo/contracts/AccountManagement.sol\":2126:2141  users[_address] */\n      0xffffffffffffffffffffffffffffffffffffffff\n      and\n      0xffffffffffffffffffffffffffffffffffffffff\n      and\n      dup2\n      mstore\n      0x20\n      add\n      swap1\n      dup2\n      mstore\n      0x20\n      add\n      0x00\n      keccak256\n        /* \"OnDemo/contracts/AccountManagement.sol\":2126:2153  users[_address].userAddress */\n      0x00\n      add\n      0x00\n      swap1\n      sload\n      swap1\n      0x0100\n      exp\n      swap1\n      div\n      0xffffffffffffffffffffffffffffffffffffffff\n      and\n        /* \"OnDemo/contracts/AccountManagement.sol\":2126:2167  users[_address].userAddress == address(0) */\n      0xffffffffffffffffffffffffffffffffffffffff\n      and\n      eq\n        /* \"OnDemo/contracts/AccountManagement.sol\":2118:2194  require(users[_address].userAddress == address(0), \"Account already exists\") */\n      tag_302\n      jumpi\n      mload(0x40)\n      0x08c379a000000000000000000000000000000000000000000000000000000000\n      dup2\n      mstore\n      0x04\n      add\n      tag_303\n      swap1\n      tag_304\n      jump\t// in\n    tag_303:\n      mload(0x40)\n      dup1\n      swap2\n      sub\n      swap1\n      revert\n    tag_302:\n        /* \"OnDemo/contracts/AccountManagement.sol\":2523:2545  RoleMap memory roleMap */\n      0x00\n        /* \"OnDemo/contracts/AccountManagement.sol\":2548:2582  RoleMap(false, false, false, true) */\n      mload(0x40)\n      dup1\n      0x80\n      add\n      0x40\n      mstore\n      dup1\n        /* \"OnDemo/contracts/AccountManagement.sol\":2556:2561  false */\n      0x00\n        /* \"OnDemo/contracts/AccountManagement.sol\":2548:2582  RoleMap(false, false, false, true) */\n      iszero\n      iszero\n      dup2\n      mstore\n      0x20\n      add\n        /* \"OnDemo/contracts/AccountManagement.sol\":2563:2568  false */\n      0x00\n        /* \"OnDemo/contracts/AccountManagement.sol\":2548:2582  RoleMap(false, false, false, true) */\n      iszero\n      iszero\n      dup2\n      mstore\n      0x20\n      add\n        /* \"OnDemo/contracts/AccountManagement.sol\":2570:2575  false */\n      0x00\n        /* \"OnDemo/contracts/AccountManagement.sol\":2548:2582  RoleMap(false, false, false, true) */\n      iszero\n      iszero\n      dup2\n      mstore\n      0x20\n      add\n        /* \"OnDemo/contracts/AccountManagement.sol\":2577:2581  true */\n      0x01\n        /* \"OnDemo/contracts/AccountManagement.sol\":2548:2582  RoleMap(false, false, false, true) */\n      iszero\n      iszero\n      dup2\n      mstore\n      pop\n        /* \"OnDemo/contracts/AccountManagement.sol\":2523:2582  RoleMap memory roleMap = RoleMap(false, false, false, true) */\n      swap1\n      pop\n        /* \"OnDemo/contracts/AccountManagement.sol\":2593:2609  User memory user */\n      0x00\n        /* \"OnDemo/contracts/AccountManagement.sol\":2612:2680  User(_address, _firstName, _secondName, _mailAdress, false, roleMap) */\n      mload(0x40)\n      dup1\n      0xc0\n      add\n      0x40\n      mstore\n      dup1\n        /* \"OnDemo/contracts/AccountManagement.sol\":2617:2625  _address */\n      dup9\n        /* \"OnDemo/contracts/AccountManagement.sol\":2612:2680  User(_address, _firstName, _secondName, _mailAdress, false, roleMap) */\n      0xffffffffffffffffffffffffffffffffffffffff\n      and\n      dup2\n      mstore\n      0x20\n      add\n        /* \"OnDemo/contracts/AccountManagement.sol\":2627:2637  _firstName */\n      dup8\n        /* \"OnDemo/contracts/AccountManagement.sol\":2612:2680  User(_address, _firstName, _secondName, _mailAdress, false, roleMap) */\n      dup2\n      mstore\n      0x20\n      add\n        /* \"OnDemo/contracts/AccountManagement.sol\":2639:2650  _secondName */\n      dup7\n        /* \"OnDemo/contracts/AccountManagement.sol\":2612:2680  User(_address, _firstName, _secondName, _mailAdress, false, roleMap) */\n      dup2\n      mstore\n      0x20\n      add\n        /* \"OnDemo/contracts/AccountManagement.sol\":2652:2663  _mailAdress */\n      dup6\n        /* \"OnDemo/contracts/AccountManagement.sol\":2612:2680  User(_address, _firstName, _secondName, _mailAdress, false, roleMap) */\n      dup2\n      mstore\n      0x20\n      add\n        /* \"OnDemo/contracts/AccountManagement.sol\":2665:2670  false */\n      0x00\n        /* \"OnDemo/contracts/AccountManagement.sol\":2612:2680  User(_address, _firstName, _secondName, _mailAdress, false, roleMap) */\n      iszero\n      iszero\n      dup2\n      mstore\n      0x20\n      add\n        /* \"OnDemo/contracts/AccountManagement.sol\":2672:2679  roleMap */\n      dup4\n        /* \"OnDemo/contracts/AccountManagement.sol\":2612:2680  User(_address, _firstName, _secondName, _mailAdress, false, roleMap) */\n      dup2\n      mstore\n      pop\n        /* \"OnDemo/contracts/AccountManagement.sol\":2593:2680  User memory user = User(_address, _firstName, _secondName, _mailAdress, false, roleMap) */\n      swap1\n      pop\n        /* \"OnDemo/contracts/AccountManagement.sol\":2709:2713  user */\n      dup1\n        /* \"OnDemo/contracts/AccountManagement.sol\":2691:2696  users */\n      0x02\n        /* \"OnDemo/contracts/AccountManagement.sol\":2691:2706  users[_address] */\n      0x00\n        /* \"OnDemo/contracts/AccountManagement.sol\":2697:2705  _address */\n      dup10\n        /* \"OnDemo/contracts/AccountManagement.sol\":2691:2706  users[_address] */\n      0xffffffffffffffffffffffffffffffffffffffff\n      and\n      0xffffffffffffffffffffffffffffffffffffffff\n      and\n      dup2\n      mstore\n      0x20\n      add\n      swap1\n      dup2\n      mstore\n      0x20\n      add\n      0x00\n      keccak256\n        /* \"OnDemo/contracts/AccountManagement.sol\":2691:2713  users[_address] = user */\n      0x00\n      dup3\n      add\n      mload\n      dup2\n      0x00\n      add\n      exp(0x0100, 0x00)\n      dup2\n      sload\n      dup2\n      0xffffffffffffffffffffffffffffffffffffffff\n      mul\n      not\n      and\n      swap1\n      dup4\n      0xffffffffffffffffffffffffffffffffffffffff\n      and\n      mul\n      or\n      swap1\n      sstore\n      pop\n      0x20\n      dup3\n      add\n      mload\n      dup2\n      0x01\n      add\n      swap1\n      dup1\n      mload\n      swap1\n      0x20\n      add\n      swap1\n      tag_306\n      swap3\n      swap2\n      swap1\n      tag_307\n      jump\t// in\n    tag_306:\n      pop\n      0x40\n      dup3\n      add\n      mload\n      dup2\n      0x02\n      add\n      swap1\n      dup1\n      mload\n      swap1\n      0x20\n      add\n      swap1\n      tag_308\n      swap3\n      swap2\n      swap1\n      tag_307\n      jump\t// in\n    tag_308:\n      pop\n      0x60\n      dup3\n      add\n      mload\n      dup2\n      0x03\n      add\n      swap1\n      dup1\n      mload\n      swap1\n      0x20\n      add\n      swap1\n      tag_309\n      swap3\n      swap2\n      swap1\n      tag_307\n      jump\t// in\n    tag_309:\n      pop\n      0x80\n      dup3\n      add\n      mload\n      dup2\n      0x04\n      add\n      exp(0x0100, 0x00)\n      dup2\n      sload\n      dup2\n      0xff\n      mul\n      not\n      and\n      swap1\n      dup4\n      iszero\n      iszero\n      mul\n      or\n      swap1\n      sstore\n      pop\n      0xa0\n      dup3\n      add\n      mload\n      dup2\n      0x05\n      add\n      0x00\n      dup3\n      add\n      mload\n      dup2\n      0x00\n      add\n      exp(0x0100, 0x00)\n      dup2\n      sload\n      dup2\n      0xff\n      mul\n      not\n      and\n      swap1\n      dup4\n      iszero\n      iszero\n      mul\n      or\n      swap1\n      sstore\n      pop\n      0x20\n      dup3\n      add\n      mload\n      dup2\n      0x00\n      add\n      exp(0x0100, 0x01)\n      dup2\n      sload\n      dup2\n      0xff\n      mul\n      not\n      and\n      swap1\n      dup4\n      iszero\n      iszero\n      mul\n      or\n      swap1\n      sstore\n      pop\n      0x40\n      dup3\n      add\n      mload\n      dup2\n      0x00\n      add\n      exp(0x0100, 0x02)\n      dup2\n      sload\n      dup2\n      0xff\n      mul\n      not\n      and\n      swap1\n      dup4\n      iszero\n      iszero\n      mul\n      or\n      swap1\n      sstore\n      pop\n      0x60\n      dup3\n      add\n      mload\n      dup2\n      0x00\n      add\n      exp(0x0100, 0x03)\n      dup2\n      sload\n      dup2\n      0xff\n      mul\n      not\n      and\n      swap1\n      dup4\n      iszero\n      iszero\n      mul\n      or\n      swap1\n      sstore\n      pop\n      pop\n      pop\n      swap1\n      pop\n      pop\n        /* \"OnDemo/contracts/AccountManagement.sol\":2512:2726  {... */\n      pop\n      pop\n        /* \"OnDemo/contracts/AccountManagement.sol\":2361:2726  function createAccount(address _address, string memory _firstName, string memory _secondName, string memory _mailAdress) public userNotExists(_address){... */\n      pop\n      pop\n      pop\n      pop\n      pop\n      jump\t// out\n        /* \"OnDemo/contracts/AccountManagement.sol\":7440:7564  function hasGuestRole(address _address) external view returns (bool) {... */\n    tag_86:\n        /* \"OnDemo/contracts/AccountManagement.sol\":7503:7507  bool */\n      0x00\n        /* \"OnDemo/contracts/AccountManagement.sol\":7527:7556  hasRole(_address, Role.GUEST) */\n      tag_311\n        /* \"OnDemo/contracts/AccountManagement.sol\":7535:7543  _address */\n      dup3\n        /* \"OnDemo/contracts/AccountManagement.sol\":7545:7555  Role.GUEST */\n      0x03\n        /* \"OnDemo/contracts/AccountManagement.sol\":7527:7534  hasRole */\n      tag_116\n        /* \"OnDemo/contracts/AccountManagement.sol\":7527:7556  hasRole(_address, Role.GUEST) */\n      jump\t// in\n    tag_311:\n        /* \"OnDemo/contracts/AccountManagement.sol\":7520:7556  return hasRole(_address, Role.GUEST) */\n      swap1\n      pop\n        /* \"OnDemo/contracts/AccountManagement.sol\":7440:7564  function hasGuestRole(address _address) external view returns (bool) {... */\n      swap2\n      swap1\n      pop\n      jump\t// out\n        /* \"OnDemo/contracts/AccountManagement.sol\":7150:7290  function hasCouncilMemberRole(address _address) external view returns (bool) {... */\n    tag_90:\n        /* \"OnDemo/contracts/AccountManagement.sol\":7221:7225  bool */\n      0x00\n        /* \"OnDemo/contracts/AccountManagement.sol\":7245:7282  hasRole(_address, Role.COUNCILMEMBER) */\n      tag_313\n        /* \"OnDemo/contracts/AccountManagement.sol\":7253:7261  _address */\n      dup3\n        /* \"OnDemo/contracts/AccountManagement.sol\":7263:7281  Role.COUNCILMEMBER */\n      0x01\n        /* \"OnDemo/contracts/AccountManagement.sol\":7245:7252  hasRole */\n      tag_116\n        /* \"OnDemo/contracts/AccountManagement.sol\":7245:7282  hasRole(_address, Role.COUNCILMEMBER) */\n      jump\t// in\n    tag_313:\n        /* \"OnDemo/contracts/AccountManagement.sol\":7238:7282  return hasRole(_address, Role.COUNCILMEMBER) */\n      swap1\n      pop\n        /* \"OnDemo/contracts/AccountManagement.sol\":7150:7290  function hasCouncilMemberRole(address _address) external view returns (bool) {... */\n      swap2\n      swap1\n      pop\n      jump\t// out\n        /* \"OnDemo/contracts/AccountManagement.sol\":6434:7004  function hasRole(address _address, Role _role) private view returns (bool){... */\n    tag_116:\n        /* \"OnDemo/contracts/AccountManagement.sol\":6503:6507  bool */\n      0x00\n        /* \"OnDemo/contracts/AccountManagement.sol\":6519:6535  User memory user */\n      dup1\n        /* \"OnDemo/contracts/AccountManagement.sol\":6538:6543  users */\n      0x02\n        /* \"OnDemo/contracts/AccountManagement.sol\":6538:6553  users[_address] */\n      0x00\n        /* \"OnDemo/contracts/AccountManagement.sol\":6544:6552  _address */\n      dup6\n        /* \"OnDemo/contracts/AccountManagement.sol\":6538:6553  users[_address] */\n      0xffffffffffffffffffffffffffffffffffffffff\n      and\n      0xffffffffffffffffffffffffffffffffffffffff\n      and\n      dup2\n      mstore\n      0x20\n      add\n      swap1\n      dup2\n      mstore\n      0x20\n      add\n      0x00\n      keccak256\n        /* \"OnDemo/contracts/AccountManagement.sol\":6519:6553  User memory user = users[_address] */\n      mload(0x40)\n      dup1\n      0xc0\n      add\n      0x40\n      mstore\n      swap1\n      dup2\n      0x00\n      dup3\n      add\n      0x00\n      swap1\n      sload\n      swap1\n      0x0100\n      exp\n      swap1\n      div\n      0xffffffffffffffffffffffffffffffffffffffff\n      and\n      0xffffffffffffffffffffffffffffffffffffffff\n      and\n      0xffffffffffffffffffffffffffffffffffffffff\n      and\n      dup2\n      mstore\n      0x20\n      add\n      0x01\n      dup3\n      add\n      dup1\n      sload\n      tag_315\n      swap1\n      tag_94\n      jump\t// in\n    tag_315:\n      dup1\n      0x1f\n      add\n      0x20\n      dup1\n      swap2\n      div\n      mul\n      0x20\n      add\n      mload(0x40)\n      swap1\n      dup2\n      add\n      0x40\n      mstore\n      dup1\n      swap3\n      swap2\n      swap1\n      dup2\n      dup2\n      mstore\n      0x20\n      add\n      dup3\n      dup1\n      sload\n      tag_316\n      swap1\n      tag_94\n      jump\t// in\n    tag_316:\n      dup1\n      iszero\n      tag_317\n      jumpi\n      dup1\n      0x1f\n      lt\n      tag_318\n      jumpi\n      0x0100\n      dup1\n      dup4\n      sload\n      div\n      mul\n      dup4\n      mstore\n      swap2\n      0x20\n      add\n      swap2\n      jump(tag_317)\n    tag_318:\n      dup3\n      add\n      swap2\n      swap1\n      0x00\n      mstore\n      keccak256(0x00, 0x20)\n      swap1\n    tag_319:\n      dup2\n      sload\n      dup2\n      mstore\n      swap1\n      0x01\n      add\n      swap1\n      0x20\n      add\n      dup1\n      dup4\n      gt\n      tag_319\n      jumpi\n      dup3\n      swap1\n      sub\n      0x1f\n      and\n      dup3\n      add\n      swap2\n    tag_317:\n      pop\n      pop\n      pop\n      pop\n      pop\n      dup2\n      mstore\n      0x20\n      add\n      0x02\n      dup3\n      add\n      dup1\n      sload\n      tag_320\n      swap1\n      tag_94\n      jump\t// in\n    tag_320:\n      dup1\n      0x1f\n      add\n      0x20\n      dup1\n      swap2\n      div\n      mul\n      0x20\n      add\n      mload(0x40)\n      swap1\n      dup2\n      add\n      0x40\n      mstore\n      dup1\n      swap3\n      swap2\n      swap1\n      dup2\n      dup2\n      mstore\n      0x20\n      add\n      dup3\n      dup1\n      sload\n      tag_321\n      swap1\n      tag_94\n      jump\t// in\n    tag_321:\n      dup1\n      iszero\n      tag_322\n      jumpi\n      dup1\n      0x1f\n      lt\n      tag_323\n      jumpi\n      0x0100\n      dup1\n      dup4\n      sload\n      div\n      mul\n      dup4\n      mstore\n      swap2\n      0x20\n      add\n      swap2\n      jump(tag_322)\n    tag_323:\n      dup3\n      add\n      swap2\n      swap1\n      0x00\n      mstore\n      keccak256(0x00, 0x20)\n      swap1\n    tag_324:\n      dup2\n      sload\n      dup2\n      mstore\n      swap1\n      0x01\n      add\n      swap1\n      0x20\n      add\n      dup1\n      dup4\n      gt\n      tag_324\n      jumpi\n      dup3\n      swap1\n      sub\n      0x1f\n      and\n      dup3\n      add\n      swap2\n    tag_322:\n      pop\n      pop\n      pop\n      pop\n      pop\n      dup2\n      mstore\n      0x20\n      add\n      0x03\n      dup3\n      add\n      dup1\n      sload\n      tag_325\n      swap1\n      tag_94\n      jump\t// in\n    tag_325:\n      dup1\n      0x1f\n      add\n      0x20\n      dup1\n      swap2\n      div\n      mul\n      0x20\n      add\n      mload(0x40)\n      swap1\n      dup2\n      add\n      0x40\n      mstore\n      dup1\n      swap3\n      swap2\n      swap1\n      dup2\n      dup2\n      mstore\n      0x20\n      add\n      dup3\n      dup1\n      sload\n      tag_326\n      swap1\n      tag_94\n      jump\t// in\n    tag_326:\n      dup1\n      iszero\n      tag_327\n      jumpi\n      dup1\n      0x1f\n      lt\n      tag_328\n      jumpi\n      0x0100\n      dup1\n      dup4\n      sload\n      div\n      mul\n      dup4\n      mstore\n      swap2\n      0x20\n      add\n      swap2\n      jump(tag_327)\n    tag_328:\n      dup3\n      add\n      swap2\n      swap1\n      0x00\n      mstore\n      keccak256(0x00, 0x20)\n      swap1\n    tag_329:\n      dup2\n      sload\n      dup2\n      mstore\n      swap1\n      0x01\n      add\n      swap1\n      0x20\n      add\n      dup1\n      dup4\n      gt\n      tag_329\n      jumpi\n      dup3\n      swap1\n      sub\n      0x1f\n      and\n      dup3\n      add\n      swap2\n    tag_327:\n      pop\n      pop\n      pop\n      pop\n      pop\n      dup2\n      mstore\n      0x20\n      add\n      0x04\n      dup3\n      add\n      0x00\n      swap1\n      sload\n      swap1\n      0x0100\n      exp\n      swap1\n      div\n      0xff\n      and\n      iszero\n      iszero\n      iszero\n      iszero\n      dup2\n      mstore\n      0x20\n      add\n      0x05\n      dup3\n      add\n      mload(0x40)\n      dup1\n      0x80\n      add\n      0x40\n      mstore\n      swap1\n      dup2\n      0x00\n      dup3\n      add\n      0x00\n      swap1\n      sload\n      swap1\n      0x0100\n      exp\n      swap1\n      div\n      0xff\n      and\n      iszero\n      iszero\n      iszero\n      iszero\n      dup2\n      mstore\n      0x20\n      add\n      0x00\n      dup3\n      add\n      0x01\n      swap1\n      sload\n      swap1\n      0x0100\n      exp\n      swap1\n      div\n      0xff\n      and\n      iszero\n      iszero\n      iszero\n      iszero\n      dup2\n      mstore\n      0x20\n      add\n      0x00\n      dup3\n      add\n      0x02\n      swap1\n      sload\n      swap1\n      0x0100\n      exp\n      swap1\n      div\n      0xff\n      and\n      iszero\n      iszero\n      iszero\n      iszero\n      dup2\n      mstore\n      0x20\n      add\n      0x00\n      dup3\n      add\n      0x03\n      swap1\n      sload\n      swap1\n      0x0100\n      exp\n      swap1\n      div\n      0xff\n      and\n      iszero\n      iszero\n      iszero\n      iszero\n      dup2\n      mstore\n      pop\n      pop\n      dup2\n      mstore\n      pop\n      pop\n      swap1\n      pop\n        /* \"OnDemo/contracts/AccountManagement.sol\":6564:6586  RoleMap memory roleMap */\n      0x00\n        /* \"OnDemo/contracts/AccountManagement.sol\":6589:6593  user */\n      dup2\n        /* \"OnDemo/contracts/AccountManagement.sol\":6589:6601  user.roleMap */\n      0xa0\n      add\n      mload\n        /* \"OnDemo/contracts/AccountManagement.sol\":6564:6601  RoleMap memory roleMap = user.roleMap */\n      swap1\n      pop\n        /* \"OnDemo/contracts/AccountManagement.sol\":6626:6637  Role.LEADER */\n      0x00\n        /* \"OnDemo/contracts/AccountManagement.sol\":6617:6637  _role == Role.LEADER */\n      0x03\n      dup2\n      gt\n      iszero\n      tag_330\n      jumpi\n      tag_331\n      tag_163\n      jump\t// in\n    tag_331:\n    tag_330:\n        /* \"OnDemo/contracts/AccountManagement.sol\":6617:6622  _role */\n      dup5\n        /* \"OnDemo/contracts/AccountManagement.sol\":6617:6637  _role == Role.LEADER */\n      0x03\n      dup2\n      gt\n      iszero\n      tag_332\n      jumpi\n      tag_333\n      tag_163\n      jump\t// in\n    tag_333:\n    tag_332:\n      eq\n        /* \"OnDemo/contracts/AccountManagement.sol\":6614:6974  if(_role == Role.LEADER){... */\n      iszero\n      tag_334\n      jumpi\n        /* \"OnDemo/contracts/AccountManagement.sol\":6660:6667  roleMap */\n      dup1\n        /* \"OnDemo/contracts/AccountManagement.sol\":6660:6676  roleMap.isLeader */\n      0x00\n      add\n      mload\n        /* \"OnDemo/contracts/AccountManagement.sol\":6653:6676  return roleMap.isLeader */\n      swap3\n      pop\n      pop\n      pop\n      jump(tag_314)\n        /* \"OnDemo/contracts/AccountManagement.sol\":6614:6974  if(_role == Role.LEADER){... */\n    tag_334:\n        /* \"OnDemo/contracts/AccountManagement.sol\":6715:6733  Role.COUNCILMEMBER */\n      0x01\n        /* \"OnDemo/contracts/AccountManagement.sol\":6706:6733  _role == Role.COUNCILMEMBER */\n      0x03\n      dup2\n      gt\n      iszero\n      tag_336\n      jumpi\n      tag_337\n      tag_163\n      jump\t// in\n    tag_337:\n    tag_336:\n        /* \"OnDemo/contracts/AccountManagement.sol\":6706:6711  _role */\n      dup5\n        /* \"OnDemo/contracts/AccountManagement.sol\":6706:6733  _role == Role.COUNCILMEMBER */\n      0x03\n      dup2\n      gt\n      iszero\n      tag_338\n      jumpi\n      tag_339\n      tag_163\n      jump\t// in\n    tag_339:\n    tag_338:\n      eq\n        /* \"OnDemo/contracts/AccountManagement.sol\":6703:6974  if(_role == Role.COUNCILMEMBER){... */\n      iszero\n      tag_340\n      jumpi\n        /* \"OnDemo/contracts/AccountManagement.sol\":6756:6763  roleMap */\n      dup1\n        /* \"OnDemo/contracts/AccountManagement.sol\":6756:6779  roleMap.isCouncilMember */\n      0x20\n      add\n      mload\n        /* \"OnDemo/contracts/AccountManagement.sol\":6749:6779  return roleMap.isCouncilMember */\n      swap3\n      pop\n      pop\n      pop\n      jump(tag_314)\n        /* \"OnDemo/contracts/AccountManagement.sol\":6703:6974  if(_role == Role.COUNCILMEMBER){... */\n    tag_340:\n        /* \"OnDemo/contracts/AccountManagement.sol\":6825:6836  Role.MEMBER */\n      0x02\n        /* \"OnDemo/contracts/AccountManagement.sol\":6816:6836  _role == Role.MEMBER */\n      0x03\n      dup2\n      gt\n      iszero\n      tag_342\n      jumpi\n      tag_343\n      tag_163\n      jump\t// in\n    tag_343:\n    tag_342:\n        /* \"OnDemo/contracts/AccountManagement.sol\":6816:6821  _role */\n      dup5\n        /* \"OnDemo/contracts/AccountManagement.sol\":6816:6836  _role == Role.MEMBER */\n      0x03\n      dup2\n      gt\n      iszero\n      tag_344\n      jumpi\n      tag_345\n      tag_163\n      jump\t// in\n    tag_345:\n    tag_344:\n      eq\n        /* \"OnDemo/contracts/AccountManagement.sol\":6813:6974  if(_role == Role.MEMBER){... */\n      iszero\n      tag_346\n      jumpi\n        /* \"OnDemo/contracts/AccountManagement.sol\":6859:6866  roleMap */\n      dup1\n        /* \"OnDemo/contracts/AccountManagement.sol\":6859:6875  roleMap.isMember */\n      0x40\n      add\n      mload\n        /* \"OnDemo/contracts/AccountManagement.sol\":6852:6875  return roleMap.isMember */\n      swap3\n      pop\n      pop\n      pop\n      jump(tag_314)\n        /* \"OnDemo/contracts/AccountManagement.sol\":6813:6974  if(_role == Role.MEMBER){... */\n    tag_346:\n        /* \"OnDemo/contracts/AccountManagement.sol\":6914:6924  Role.GUEST */\n      0x03\n        /* \"OnDemo/contracts/AccountManagement.sol\":6905:6924  _role == Role.GUEST */\n      dup1\n      dup2\n      gt\n      iszero\n      tag_348\n      jumpi\n      tag_349\n      tag_163\n      jump\t// in\n    tag_349:\n    tag_348:\n        /* \"OnDemo/contracts/AccountManagement.sol\":6905:6910  _role */\n      dup5\n        /* \"OnDemo/contracts/AccountManagement.sol\":6905:6924  _role == Role.GUEST */\n      0x03\n      dup2\n      gt\n      iszero\n      tag_350\n      jumpi\n      tag_351\n      tag_163\n      jump\t// in\n    tag_351:\n    tag_350:\n      eq\n        /* \"OnDemo/contracts/AccountManagement.sol\":6902:6974  if(_role == Role.GUEST){... */\n      iszero\n      tag_352\n      jumpi\n        /* \"OnDemo/contracts/AccountManagement.sol\":6947:6954  roleMap */\n      dup1\n        /* \"OnDemo/contracts/AccountManagement.sol\":6947:6962  roleMap.isGuest */\n      0x60\n      add\n      mload\n        /* \"OnDemo/contracts/AccountManagement.sol\":6940:6962  return roleMap.isGuest */\n      swap3\n      pop\n      pop\n      pop\n      jump(tag_314)\n        /* \"OnDemo/contracts/AccountManagement.sol\":6902:6974  if(_role == Role.GUEST){... */\n    tag_352:\n        /* \"OnDemo/contracts/AccountManagement.sol\":6991:6996  false */\n      0x00\n        /* \"OnDemo/contracts/AccountManagement.sol\":6984:6996  return false */\n      swap3\n      pop\n      pop\n      pop\n        /* \"OnDemo/contracts/AccountManagement.sol\":6434:7004  function hasRole(address _address, Role _role) private view returns (bool){... */\n    tag_314:\n      swap3\n      swap2\n      pop\n      pop\n      jump\t// out\n    tag_207:\n      mload(0x40)\n      dup1\n      0xc0\n      add\n      0x40\n      mstore\n      dup1\n      and(0xffffffffffffffffffffffffffffffffffffffff, 0x00)\n      dup2\n      mstore\n      0x20\n      add\n      0x60\n      dup2\n      mstore\n      0x20\n      add\n      0x60\n      dup2\n      mstore\n      0x20\n      add\n      0x60\n      dup2\n      mstore\n      0x20\n      add\n      iszero(iszero(0x00))\n      dup2\n      mstore\n      0x20\n      add\n      tag_353\n      tag_354\n      jump\t// in\n    tag_353:\n      dup2\n      mstore\n      pop\n      swap1\n      jump\t// out\n    tag_298:\n      pop\n      dup1\n      sload\n      tag_355\n      swap1\n      tag_94\n      jump\t// in\n    tag_355:\n      0x00\n      dup3\n      sstore\n      dup1\n      0x1f\n      lt\n      tag_357\n      jumpi\n      pop\n      jump(tag_356)\n    tag_357:\n      0x1f\n      add\n      0x20\n      swap1\n      div\n      swap1\n      0x00\n      mstore\n      keccak256(0x00, 0x20)\n      swap1\n      dup2\n      add\n      swap1\n      tag_358\n      swap2\n      swap1\n      tag_359\n      jump\t// in\n    tag_358:\n    tag_356:\n      pop\n      jump\t// out\n    tag_307:\n      dup3\n      dup1\n      sload\n      tag_360\n      swap1\n      tag_94\n      jump\t// in\n    tag_360:\n      swap1\n      0x00\n      mstore\n      keccak256(0x00, 0x20)\n      swap1\n      0x1f\n      add\n      0x20\n      swap1\n      div\n      dup2\n      add\n      swap3\n      dup3\n      tag_362\n      jumpi\n      0x00\n      dup6\n      sstore\n      jump(tag_361)\n    tag_362:\n      dup3\n      0x1f\n      lt\n      tag_363\n      jumpi\n      dup1\n      mload\n      not(0xff)\n      and\n      dup4\n      dup1\n      add\n      or\n      dup6\n      sstore\n      jump(tag_361)\n    tag_363:\n      dup3\n      dup1\n      add\n      0x01\n      add\n      dup6\n      sstore\n      dup3\n      iszero\n      tag_361\n      jumpi\n      swap2\n      dup3\n      add\n    tag_364:\n      dup3\n      dup2\n      gt\n      iszero\n      tag_365\n      jumpi\n      dup3\n      mload\n      dup3\n      sstore\n      swap2\n      0x20\n      add\n      swap2\n      swap1\n      0x01\n      add\n      swap1\n      jump(tag_364)\n    tag_365:\n    tag_361:\n      pop\n      swap1\n      pop\n      tag_366\n      swap2\n      swap1\n      tag_359\n      jump\t// in\n    tag_366:\n      pop\n      swap1\n      jump\t// out\n    tag_354:\n      mload(0x40)\n      dup1\n      0x80\n      add\n      0x40\n      mstore\n      dup1\n      iszero(iszero(0x00))\n      dup2\n      mstore\n      0x20\n      add\n      iszero(iszero(0x00))\n      dup2\n      mstore\n      0x20\n      add\n      iszero(iszero(0x00))\n      dup2\n      mstore\n      0x20\n      add\n      iszero(iszero(0x00))\n      dup2\n      mstore\n      pop\n      swap1\n      jump\t// out\n    tag_359:\n    tag_367:\n      dup1\n      dup3\n      gt\n      iszero\n      tag_368\n      jumpi\n      0x00\n      dup2\n      0x00\n      swap1\n      sstore\n      pop\n      0x01\n      add\n      jump(tag_367)\n    tag_368:\n      pop\n      swap1\n      jump\t// out\n        /* \"#utility.yul\":7:82   */\n    tag_369:\n        /* \"#utility.yul\":40:46   */\n      0x00\n        /* \"#utility.yul\":73:75   */\n      0x40\n        /* \"#utility.yul\":67:76   */\n      mload\n        /* \"#utility.yul\":57:76   */\n      swap1\n      pop\n        /* \"#utility.yul\":7:82   */\n      swap1\n      jump\t// out\n        /* \"#utility.yul\":88:205   */\n    tag_370:\n        /* \"#utility.yul\":197:198   */\n      0x00\n        /* \"#utility.yul\":194:195   */\n      dup1\n        /* \"#utility.yul\":187:199   */\n      revert\n        /* \"#utility.yul\":211:328   */\n    tag_371:\n        /* \"#utility.yul\":320:321   */\n      0x00\n        /* \"#utility.yul\":317:318   */\n      dup1\n        /* \"#utility.yul\":310:322   */\n      revert\n        /* \"#utility.yul\":334:460   */\n    tag_372:\n        /* \"#utility.yul\":371:378   */\n      0x00\n        /* \"#utility.yul\":411:453   */\n      0xffffffffffffffffffffffffffffffffffffffff\n        /* \"#utility.yul\":404:409   */\n      dup3\n        /* \"#utility.yul\":400:454   */\n      and\n        /* \"#utility.yul\":389:454   */\n      swap1\n      pop\n        /* \"#utility.yul\":334:460   */\n      swap2\n      swap1\n      pop\n      jump\t// out\n        /* \"#utility.yul\":466:562   */\n    tag_373:\n        /* \"#utility.yul\":503:510   */\n      0x00\n        /* \"#utility.yul\":532:556   */\n      tag_420\n        /* \"#utility.yul\":550:555   */\n      dup3\n        /* \"#utility.yul\":532:556   */\n      tag_372\n      jump\t// in\n    tag_420:\n        /* \"#utility.yul\":521:556   */\n      swap1\n      pop\n        /* \"#utility.yul\":466:562   */\n      swap2\n      swap1\n      pop\n      jump\t// out\n        /* \"#utility.yul\":568:690   */\n    tag_374:\n        /* \"#utility.yul\":641:665   */\n      tag_422\n        /* \"#utility.yul\":659:664   */\n      dup2\n        /* \"#utility.yul\":641:665   */\n      tag_373\n      jump\t// in\n    tag_422:\n        /* \"#utility.yul\":634:639   */\n      dup2\n        /* \"#utility.yul\":631:666   */\n      eq\n        /* \"#utility.yul\":621:684   */\n      tag_423\n      jumpi\n        /* \"#utility.yul\":680:681   */\n      0x00\n        /* \"#utility.yul\":677:678   */\n      dup1\n        /* \"#utility.yul\":670:682   */\n      revert\n        /* \"#utility.yul\":621:684   */\n    tag_423:\n        /* \"#utility.yul\":568:690   */\n      pop\n      jump\t// out\n        /* \"#utility.yul\":696:835   */\n    tag_375:\n        /* \"#utility.yul\":742:747   */\n      0x00\n        /* \"#utility.yul\":780:786   */\n      dup2\n        /* \"#utility.yul\":767:787   */\n      calldataload\n        /* \"#utility.yul\":758:787   */\n      swap1\n      pop\n        /* \"#utility.yul\":796:829   */\n      tag_425\n        /* \"#utility.yul\":823:828   */\n      dup2\n        /* \"#utility.yul\":796:829   */\n      tag_374\n      jump\t// in\n    tag_425:\n        /* \"#utility.yul\":696:835   */\n      swap3\n      swap2\n      pop\n      pop\n      jump\t// out\n        /* \"#utility.yul\":841:1170   */\n    tag_26:\n        /* \"#utility.yul\":900:906   */\n      0x00\n        /* \"#utility.yul\":949:951   */\n      0x20\n        /* \"#utility.yul\":937:946   */\n      dup3\n        /* \"#utility.yul\":928:935   */\n      dup5\n        /* \"#utility.yul\":924:947   */\n      sub\n        /* \"#utility.yul\":920:952   */\n      slt\n        /* \"#utility.yul\":917:1036   */\n      iszero\n      tag_427\n      jumpi\n        /* \"#utility.yul\":955:1034   */\n      tag_428\n      tag_370\n      jump\t// in\n    tag_428:\n        /* \"#utility.yul\":917:1036   */\n    tag_427:\n        /* \"#utility.yul\":1075:1076   */\n      0x00\n        /* \"#utility.yul\":1100:1153   */\n      tag_429\n        /* \"#utility.yul\":1145:1152   */\n      dup5\n        /* \"#utility.yul\":1136:1142   */\n      dup3\n        /* \"#utility.yul\":1125:1134   */\n      dup6\n        /* \"#utility.yul\":1121:1143   */\n      add\n        /* \"#utility.yul\":1100:1153   */\n      tag_375\n      jump\t// in\n    tag_429:\n        /* \"#utility.yul\":1090:1153   */\n      swap2\n      pop\n        /* \"#utility.yul\":1046:1163   */\n      pop\n        /* \"#utility.yul\":841:1170   */\n      swap3\n      swap2\n      pop\n      pop\n      jump\t// out\n        /* \"#utility.yul\":1176:1266   */\n    tag_376:\n        /* \"#utility.yul\":1210:1217   */\n      0x00\n        /* \"#utility.yul\":1253:1258   */\n      dup2\n        /* \"#utility.yul\":1246:1259   */\n      iszero\n        /* \"#utility.yul\":1239:1260   */\n      iszero\n        /* \"#utility.yul\":1228:1260   */\n      swap1\n      pop\n        /* \"#utility.yul\":1176:1266   */\n      swap2\n      swap1\n      pop\n      jump\t// out\n        /* \"#utility.yul\":1272:1381   */\n    tag_377:\n        /* \"#utility.yul\":1353:1374   */\n      tag_432\n        /* \"#utility.yul\":1368:1373   */\n      dup2\n        /* \"#utility.yul\":1353:1374   */\n      tag_376\n      jump\t// in\n    tag_432:\n        /* \"#utility.yul\":1348:1351   */\n      dup3\n        /* \"#utility.yul\":1341:1375   */\n      mstore\n        /* \"#utility.yul\":1272:1381   */\n      pop\n      pop\n      jump\t// out\n        /* \"#utility.yul\":1387:1597   */\n    tag_29:\n        /* \"#utility.yul\":1474:1478   */\n      0x00\n        /* \"#utility.yul\":1512:1514   */\n      0x20\n        /* \"#utility.yul\":1501:1510   */\n      dup3\n        /* \"#utility.yul\":1497:1515   */\n      add\n        /* \"#utility.yul\":1489:1515   */\n      swap1\n      pop\n        /* \"#utility.yul\":1525:1590   */\n      tag_434\n        /* \"#utility.yul\":1587:1588   */\n      0x00\n        /* \"#utility.yul\":1576:1585   */\n      dup4\n        /* \"#utility.yul\":1572:1589   */\n      add\n        /* \"#utility.yul\":1563:1569   */\n      dup5\n        /* \"#utility.yul\":1525:1590   */\n      tag_377\n      jump\t// in\n    tag_434:\n        /* \"#utility.yul\":1387:1597   */\n      swap3\n      swap2\n      pop\n      pop\n      jump\t// out\n        /* \"#utility.yul\":1603:1680   */\n    tag_378:\n        /* \"#utility.yul\":1640:1647   */\n      0x00\n        /* \"#utility.yul\":1669:1674   */\n      dup2\n        /* \"#utility.yul\":1658:1674   */\n      swap1\n      pop\n        /* \"#utility.yul\":1603:1680   */\n      swap2\n      swap1\n      pop\n      jump\t// out\n        /* \"#utility.yul\":1686:1804   */\n    tag_379:\n        /* \"#utility.yul\":1773:1797   */\n      tag_437\n        /* \"#utility.yul\":1791:1796   */\n      dup2\n        /* \"#utility.yul\":1773:1797   */\n      tag_378\n      jump\t// in\n    tag_437:\n        /* \"#utility.yul\":1768:1771   */\n      dup3\n        /* \"#utility.yul\":1761:1798   */\n      mstore\n        /* \"#utility.yul\":1686:1804   */\n      pop\n      pop\n      jump\t// out\n        /* \"#utility.yul\":1810:2032   */\n    tag_37:\n        /* \"#utility.yul\":1903:1907   */\n      0x00\n        /* \"#utility.yul\":1941:1943   */\n      0x20\n        /* \"#utility.yul\":1930:1939   */\n      dup3\n        /* \"#utility.yul\":1926:1944   */\n      add\n        /* \"#utility.yul\":1918:1944   */\n      swap1\n      pop\n        /* \"#utility.yul\":1954:2025   */\n      tag_439\n        /* \"#utility.yul\":2022:2023   */\n      0x00\n        /* \"#utility.yul\":2011:2020   */\n      dup4\n        /* \"#utility.yul\":2007:2024   */\n      add\n        /* \"#utility.yul\":1998:2004   */\n      dup5\n        /* \"#utility.yul\":1954:2025   */\n      tag_379\n      jump\t// in\n    tag_439:\n        /* \"#utility.yul\":1810:2032   */\n      swap3\n      swap2\n      pop\n      pop\n      jump\t// out\n        /* \"#utility.yul\":2038:2143   */\n    tag_380:\n        /* \"#utility.yul\":2117:2118   */\n      0x04\n        /* \"#utility.yul\":2110:2115   */\n      dup2\n        /* \"#utility.yul\":2107:2119   */\n      lt\n        /* \"#utility.yul\":2097:2137   */\n      tag_441\n      jumpi\n        /* \"#utility.yul\":2133:2134   */\n      0x00\n        /* \"#utility.yul\":2130:2131   */\n      dup1\n        /* \"#utility.yul\":2123:2135   */\n      revert\n        /* \"#utility.yul\":2097:2137   */\n    tag_441:\n        /* \"#utility.yul\":2038:2143   */\n      pop\n      jump\t// out\n        /* \"#utility.yul\":2149:2300   */\n    tag_381:\n        /* \"#utility.yul\":2201:2206   */\n      0x00\n        /* \"#utility.yul\":2239:2245   */\n      dup2\n        /* \"#utility.yul\":2226:2246   */\n      calldataload\n        /* \"#utility.yul\":2217:2246   */\n      swap1\n      pop\n        /* \"#utility.yul\":2255:2294   */\n      tag_443\n        /* \"#utility.yul\":2288:2293   */\n      dup2\n        /* \"#utility.yul\":2255:2294   */\n      tag_380\n      jump\t// in\n    tag_443:\n        /* \"#utility.yul\":2149:2300   */\n      swap3\n      swap2\n      pop\n      pop\n      jump\t// out\n        /* \"#utility.yul\":2306:2792   */\n    tag_52:\n        /* \"#utility.yul\":2380:2386   */\n      0x00\n        /* \"#utility.yul\":2388:2394   */\n      dup1\n        /* \"#utility.yul\":2437:2439   */\n      0x40\n        /* \"#utility.yul\":2425:2434   */\n      dup4\n        /* \"#utility.yul\":2416:2423   */\n      dup6\n        /* \"#utility.yul\":2412:2435   */\n      sub\n        /* \"#utility.yul\":2408:2440   */\n      slt\n        /* \"#utility.yul\":2405:2524   */\n      iszero\n      tag_445\n      jumpi\n        /* \"#utility.yul\":2443:2522   */\n      tag_446\n      tag_370\n      jump\t// in\n    tag_446:\n        /* \"#utility.yul\":2405:2524   */\n    tag_445:\n        /* \"#utility.yul\":2563:2564   */\n      0x00\n        /* \"#utility.yul\":2588:2641   */\n      tag_447\n        /* \"#utility.yul\":2633:2640   */\n      dup6\n        /* \"#utility.yul\":2624:2630   */\n      dup3\n        /* \"#utility.yul\":2613:2622   */\n      dup7\n        /* \"#utility.yul\":2609:2631   */\n      add\n        /* \"#utility.yul\":2588:2641   */\n      tag_375\n      jump\t// in\n    tag_447:\n        /* \"#utility.yul\":2578:2641   */\n      swap3\n      pop\n        /* \"#utility.yul\":2534:2651   */\n      pop\n        /* \"#utility.yul\":2690:2692   */\n      0x20\n        /* \"#utility.yul\":2716:2775   */\n      tag_448\n        /* \"#utility.yul\":2767:2774   */\n      dup6\n        /* \"#utility.yul\":2758:2764   */\n      dup3\n        /* \"#utility.yul\":2747:2756   */\n      dup7\n        /* \"#utility.yul\":2743:2765   */\n      add\n        /* \"#utility.yul\":2716:2775   */\n      tag_381\n      jump\t// in\n    tag_448:\n        /* \"#utility.yul\":2706:2775   */\n      swap2\n      pop\n        /* \"#utility.yul\":2661:2785   */\n      pop\n        /* \"#utility.yul\":2306:2792   */\n      swap3\n      pop\n      swap3\n      swap1\n      pop\n      jump\t// out\n        /* \"#utility.yul\":2798:2906   */\n    tag_382:\n        /* \"#utility.yul\":2875:2899   */\n      tag_450\n        /* \"#utility.yul\":2893:2898   */\n      dup2\n        /* \"#utility.yul\":2875:2899   */\n      tag_373\n      jump\t// in\n    tag_450:\n        /* \"#utility.yul\":2870:2873   */\n      dup3\n        /* \"#utility.yul\":2863:2900   */\n      mstore\n        /* \"#utility.yul\":2798:2906   */\n      pop\n      pop\n      jump\t// out\n        /* \"#utility.yul\":2912:3011   */\n    tag_383:\n        /* \"#utility.yul\":2964:2970   */\n      0x00\n        /* \"#utility.yul\":2998:3003   */\n      dup2\n        /* \"#utility.yul\":2992:3004   */\n      mload\n        /* \"#utility.yul\":2982:3004   */\n      swap1\n      pop\n        /* \"#utility.yul\":2912:3011   */\n      swap2\n      swap1\n      pop\n      jump\t// out\n        /* \"#utility.yul\":3017:3176   */\n    tag_384:\n        /* \"#utility.yul\":3091:3102   */\n      0x00\n        /* \"#utility.yul\":3125:3131   */\n      dup3\n        /* \"#utility.yul\":3120:3123   */\n      dup3\n        /* \"#utility.yul\":3113:3132   */\n      mstore\n        /* \"#utility.yul\":3165:3169   */\n      0x20\n        /* \"#utility.yul\":3160:3163   */\n      dup3\n        /* \"#utility.yul\":3156:3170   */\n      add\n        /* \"#utility.yul\":3141:3170   */\n      swap1\n      pop\n        /* \"#utility.yul\":3017:3176   */\n      swap3\n      swap2\n      pop\n      pop\n      jump\t// out\n        /* \"#utility.yul\":3182:3489   */\n    tag_385:\n        /* \"#utility.yul\":3250:3251   */\n      0x00\n        /* \"#utility.yul\":3260:3373   */\n    tag_454:\n        /* \"#utility.yul\":3274:3280   */\n      dup4\n        /* \"#utility.yul\":3271:3272   */\n      dup2\n        /* \"#utility.yul\":3268:3281   */\n      lt\n        /* \"#utility.yul\":3260:3373   */\n      iszero\n      tag_456\n      jumpi\n        /* \"#utility.yul\":3359:3360   */\n      dup1\n        /* \"#utility.yul\":3354:3357   */\n      dup3\n        /* \"#utility.yul\":3350:3361   */\n      add\n        /* \"#utility.yul\":3344:3362   */\n      mload\n        /* \"#utility.yul\":3340:3341   */\n      dup2\n        /* \"#utility.yul\":3335:3338   */\n      dup5\n        /* \"#utility.yul\":3331:3342   */\n      add\n        /* \"#utility.yul\":3324:3363   */\n      mstore\n        /* \"#utility.yul\":3296:3298   */\n      0x20\n        /* \"#utility.yul\":3293:3294   */\n      dup2\n        /* \"#utility.yul\":3289:3299   */\n      add\n        /* \"#utility.yul\":3284:3299   */\n      swap1\n      pop\n        /* \"#utility.yul\":3260:3373   */\n      jump(tag_454)\n    tag_456:\n        /* \"#utility.yul\":3391:3397   */\n      dup4\n        /* \"#utility.yul\":3388:3389   */\n      dup2\n        /* \"#utility.yul\":3385:3398   */\n      gt\n        /* \"#utility.yul\":3382:3483   */\n      iszero\n      tag_457\n      jumpi\n        /* \"#utility.yul\":3471:3472   */\n      0x00\n        /* \"#utility.yul\":3462:3468   */\n      dup5\n        /* \"#utility.yul\":3457:3460   */\n      dup5\n        /* \"#utility.yul\":3453:3469   */\n      add\n        /* \"#utility.yul\":3446:3473   */\n      mstore\n        /* \"#utility.yul\":3382:3483   */\n    tag_457:\n        /* \"#utility.yul\":3231:3489   */\n      pop\n        /* \"#utility.yul\":3182:3489   */\n      pop\n      pop\n      pop\n      jump\t// out\n        /* \"#utility.yul\":3495:3597   */\n    tag_386:\n        /* \"#utility.yul\":3536:3542   */\n      0x00\n        /* \"#utility.yul\":3587:3589   */\n      0x1f\n        /* \"#utility.yul\":3583:3590   */\n      not\n        /* \"#utility.yul\":3578:3580   */\n      0x1f\n        /* \"#utility.yul\":3571:3576   */\n      dup4\n        /* \"#utility.yul\":3567:3581   */\n      add\n        /* \"#utility.yul\":3563:3591   */\n      and\n        /* \"#utility.yul\":3553:3591   */\n      swap1\n      pop\n        /* \"#utility.yul\":3495:3597   */\n      swap2\n      swap1\n      pop\n      jump\t// out\n        /* \"#utility.yul\":3603:3947   */\n    tag_387:\n        /* \"#utility.yul\":3681:3684   */\n      0x00\n        /* \"#utility.yul\":3709:3748   */\n      tag_460\n        /* \"#utility.yul\":3742:3747   */\n      dup3\n        /* \"#utility.yul\":3709:3748   */\n      tag_383\n      jump\t// in\n    tag_460:\n        /* \"#utility.yul\":3764:3825   */\n      tag_461\n        /* \"#utility.yul\":3818:3824   */\n      dup2\n        /* \"#utility.yul\":3813:3816   */\n      dup6\n        /* \"#utility.yul\":3764:3825   */\n      tag_384\n      jump\t// in\n    tag_461:\n        /* \"#utility.yul\":3757:3825   */\n      swap4\n      pop\n        /* \"#utility.yul\":3834:3886   */\n      tag_462\n        /* \"#utility.yul\":3879:3885   */\n      dup2\n        /* \"#utility.yul\":3874:3877   */\n      dup6\n        /* \"#utility.yul\":3867:3871   */\n      0x20\n        /* \"#utility.yul\":3860:3865   */\n      dup7\n        /* \"#utility.yul\":3856:3872   */\n      add\n        /* \"#utility.yul\":3834:3886   */\n      tag_385\n      jump\t// in\n    tag_462:\n        /* \"#utility.yul\":3911:3940   */\n      tag_463\n        /* \"#utility.yul\":3933:3939   */\n      dup2\n        /* \"#utility.yul\":3911:3940   */\n      tag_386\n      jump\t// in\n    tag_463:\n        /* \"#utility.yul\":3906:3909   */\n      dup5\n        /* \"#utility.yul\":3902:3941   */\n      add\n        /* \"#utility.yul\":3895:3941   */\n      swap2\n      pop\n        /* \"#utility.yul\":3685:3947   */\n      pop\n        /* \"#utility.yul\":3603:3947   */\n      swap3\n      swap2\n      pop\n      pop\n      jump\t// out\n        /* \"#utility.yul\":3953:4052   */\n    tag_388:\n        /* \"#utility.yul\":4024:4045   */\n      tag_465\n        /* \"#utility.yul\":4039:4044   */\n      dup2\n        /* \"#utility.yul\":4024:4045   */\n      tag_376\n      jump\t// in\n    tag_465:\n        /* \"#utility.yul\":4019:4022   */\n      dup3\n        /* \"#utility.yul\":4012:4046   */\n      mstore\n        /* \"#utility.yul\":3953:4052   */\n      pop\n      pop\n      jump\t// out\n        /* \"#utility.yul\":4134:4973   */\n    tag_389:\n        /* \"#utility.yul\":4267:4271   */\n      0x80\n        /* \"#utility.yul\":4262:4265   */\n      dup3\n        /* \"#utility.yul\":4258:4272   */\n      add\n        /* \"#utility.yul\":4358:4362   */\n      0x00\n        /* \"#utility.yul\":4351:4356   */\n      dup3\n        /* \"#utility.yul\":4347:4363   */\n      add\n        /* \"#utility.yul\":4341:4364   */\n      mload\n        /* \"#utility.yul\":4377:4434   */\n      tag_467\n        /* \"#utility.yul\":4428:4432   */\n      0x00\n        /* \"#utility.yul\":4423:4426   */\n      dup6\n        /* \"#utility.yul\":4419:4433   */\n      add\n        /* \"#utility.yul\":4405:4417   */\n      dup3\n        /* \"#utility.yul\":4377:4434   */\n      tag_388\n      jump\t// in\n    tag_467:\n        /* \"#utility.yul\":4282:4444   */\n      pop\n        /* \"#utility.yul\":4537:4541   */\n      0x20\n        /* \"#utility.yul\":4530:4535   */\n      dup3\n        /* \"#utility.yul\":4526:4542   */\n      add\n        /* \"#utility.yul\":4520:4543   */\n      mload\n        /* \"#utility.yul\":4556:4613   */\n      tag_468\n        /* \"#utility.yul\":4607:4611   */\n      0x20\n        /* \"#utility.yul\":4602:4605   */\n      dup6\n        /* \"#utility.yul\":4598:4612   */\n      add\n        /* \"#utility.yul\":4584:4596   */\n      dup3\n        /* \"#utility.yul\":4556:4613   */\n      tag_388\n      jump\t// in\n    tag_468:\n        /* \"#utility.yul\":4454:4623   */\n      pop\n        /* \"#utility.yul\":4709:4713   */\n      0x40\n        /* \"#utility.yul\":4702:4707   */\n      dup3\n        /* \"#utility.yul\":4698:4714   */\n      add\n        /* \"#utility.yul\":4692:4715   */\n      mload\n        /* \"#utility.yul\":4728:4785   */\n      tag_469\n        /* \"#utility.yul\":4779:4783   */\n      0x40\n        /* \"#utility.yul\":4774:4777   */\n      dup6\n        /* \"#utility.yul\":4770:4784   */\n      add\n        /* \"#utility.yul\":4756:4768   */\n      dup3\n        /* \"#utility.yul\":4728:4785   */\n      tag_388\n      jump\t// in\n    tag_469:\n        /* \"#utility.yul\":4633:4795   */\n      pop\n        /* \"#utility.yul\":4880:4884   */\n      0x60\n        /* \"#utility.yul\":4873:4878   */\n      dup3\n        /* \"#utility.yul\":4869:4885   */\n      add\n        /* \"#utility.yul\":4863:4886   */\n      mload\n        /* \"#utility.yul\":4899:4956   */\n      tag_470\n        /* \"#utility.yul\":4950:4954   */\n      0x60\n        /* \"#utility.yul\":4945:4948   */\n      dup6\n        /* \"#utility.yul\":4941:4955   */\n      add\n        /* \"#utility.yul\":4927:4939   */\n      dup3\n        /* \"#utility.yul\":4899:4956   */\n      tag_388\n      jump\t// in\n    tag_470:\n        /* \"#utility.yul\":4805:4966   */\n      pop\n        /* \"#utility.yul\":4236:4973   */\n      pop\n        /* \"#utility.yul\":4134:4973   */\n      pop\n      pop\n      jump\t// out\n        /* \"#utility.yul\":5049:6556   */\n    tag_390:\n        /* \"#utility.yul\":5158:5161   */\n      0x00\n        /* \"#utility.yul\":5194:5200   */\n      0x0120\n        /* \"#utility.yul\":5189:5192   */\n      dup4\n        /* \"#utility.yul\":5185:5201   */\n      add\n        /* \"#utility.yul\":5290:5294   */\n      0x00\n        /* \"#utility.yul\":5283:5288   */\n      dup4\n        /* \"#utility.yul\":5279:5295   */\n      add\n        /* \"#utility.yul\":5273:5296   */\n      mload\n        /* \"#utility.yul\":5309:5372   */\n      tag_472\n        /* \"#utility.yul\":5366:5370   */\n      0x00\n        /* \"#utility.yul\":5361:5364   */\n      dup7\n        /* \"#utility.yul\":5357:5371   */\n      add\n        /* \"#utility.yul\":5343:5355   */\n      dup3\n        /* \"#utility.yul\":5309:5372   */\n      tag_382\n      jump\t// in\n    tag_472:\n        /* \"#utility.yul\":5211:5382   */\n      pop\n        /* \"#utility.yul\":5469:5473   */\n      0x20\n        /* \"#utility.yul\":5462:5467   */\n      dup4\n        /* \"#utility.yul\":5458:5474   */\n      add\n        /* \"#utility.yul\":5452:5475   */\n      mload\n        /* \"#utility.yul\":5522:5525   */\n      dup5\n        /* \"#utility.yul\":5516:5520   */\n      dup3\n        /* \"#utility.yul\":5512:5526   */\n      sub\n        /* \"#utility.yul\":5505:5509   */\n      0x20\n        /* \"#utility.yul\":5500:5503   */\n      dup7\n        /* \"#utility.yul\":5496:5510   */\n      add\n        /* \"#utility.yul\":5489:5527   */\n      mstore\n        /* \"#utility.yul\":5548:5621   */\n      tag_473\n        /* \"#utility.yul\":5616:5620   */\n      dup3\n        /* \"#utility.yul\":5602:5614   */\n      dup3\n        /* \"#utility.yul\":5548:5621   */\n      tag_387\n      jump\t// in\n    tag_473:\n        /* \"#utility.yul\":5540:5621   */\n      swap2\n      pop\n        /* \"#utility.yul\":5392:5632   */\n      pop\n        /* \"#utility.yul\":5720:5724   */\n      0x40\n        /* \"#utility.yul\":5713:5718   */\n      dup4\n        /* \"#utility.yul\":5709:5725   */\n      add\n        /* \"#utility.yul\":5703:5726   */\n      mload\n        /* \"#utility.yul\":5773:5776   */\n      dup5\n        /* \"#utility.yul\":5767:5771   */\n      dup3\n        /* \"#utility.yul\":5763:5777   */\n      sub\n        /* \"#utility.yul\":5756:5760   */\n      0x40\n        /* \"#utility.yul\":5751:5754   */\n      dup7\n        /* \"#utility.yul\":5747:5761   */\n      add\n        /* \"#utility.yul\":5740:5778   */\n      mstore\n        /* \"#utility.yul\":5799:5872   */\n      tag_474\n        /* \"#utility.yul\":5867:5871   */\n      dup3\n        /* \"#utility.yul\":5853:5865   */\n      dup3\n        /* \"#utility.yul\":5799:5872   */\n      tag_387\n      jump\t// in\n    tag_474:\n        /* \"#utility.yul\":5791:5872   */\n      swap2\n      pop\n        /* \"#utility.yul\":5642:5883   */\n      pop\n        /* \"#utility.yul\":5971:5975   */\n      0x60\n        /* \"#utility.yul\":5964:5969   */\n      dup4\n        /* \"#utility.yul\":5960:5976   */\n      add\n        /* \"#utility.yul\":5954:5977   */\n      mload\n        /* \"#utility.yul\":6024:6027   */\n      dup5\n        /* \"#utility.yul\":6018:6022   */\n      dup3\n        /* \"#utility.yul\":6014:6028   */\n      sub\n        /* \"#utility.yul\":6007:6011   */\n      0x60\n        /* \"#utility.yul\":6002:6005   */\n      dup7\n        /* \"#utility.yul\":5998:6012   */\n      add\n        /* \"#utility.yul\":5991:6029   */\n      mstore\n        /* \"#utility.yul\":6050:6123   */\n      tag_475\n        /* \"#utility.yul\":6118:6122   */\n      dup3\n        /* \"#utility.yul\":6104:6116   */\n      dup3\n        /* \"#utility.yul\":6050:6123   */\n      tag_387\n      jump\t// in\n    tag_475:\n        /* \"#utility.yul\":6042:6123   */\n      swap2\n      pop\n        /* \"#utility.yul\":5893:6134   */\n      pop\n        /* \"#utility.yul\":6220:6224   */\n      0x80\n        /* \"#utility.yul\":6213:6218   */\n      dup4\n        /* \"#utility.yul\":6209:6225   */\n      add\n        /* \"#utility.yul\":6203:6226   */\n      mload\n        /* \"#utility.yul\":6239:6296   */\n      tag_476\n        /* \"#utility.yul\":6290:6294   */\n      0x80\n        /* \"#utility.yul\":6285:6288   */\n      dup7\n        /* \"#utility.yul\":6281:6295   */\n      add\n        /* \"#utility.yul\":6267:6279   */\n      dup3\n        /* \"#utility.yul\":6239:6296   */\n      tag_388\n      jump\t// in\n    tag_476:\n        /* \"#utility.yul\":6144:6306   */\n      pop\n        /* \"#utility.yul\":6391:6395   */\n      0xa0\n        /* \"#utility.yul\":6384:6389   */\n      dup4\n        /* \"#utility.yul\":6380:6396   */\n      add\n        /* \"#utility.yul\":6374:6397   */\n      mload\n        /* \"#utility.yul\":6410:6519   */\n      tag_477\n        /* \"#utility.yul\":6513:6517   */\n      0xa0\n        /* \"#utility.yul\":6508:6511   */\n      dup7\n        /* \"#utility.yul\":6504:6518   */\n      add\n        /* \"#utility.yul\":6490:6502   */\n      dup3\n        /* \"#utility.yul\":6410:6519   */\n      tag_389\n      jump\t// in\n    tag_477:\n        /* \"#utility.yul\":6316:6529   */\n      pop\n        /* \"#utility.yul\":6546:6550   */\n      dup1\n        /* \"#utility.yul\":6539:6550   */\n      swap2\n      pop\n        /* \"#utility.yul\":5163:6556   */\n      pop\n        /* \"#utility.yul\":5049:6556   */\n      swap3\n      swap2\n      pop\n      pop\n      jump\t// out\n        /* \"#utility.yul\":6562:6915   */\n    tag_62:\n        /* \"#utility.yul\":6695:6699   */\n      0x00\n        /* \"#utility.yul\":6733:6735   */\n      0x20\n        /* \"#utility.yul\":6722:6731   */\n      dup3\n        /* \"#utility.yul\":6718:6736   */\n      add\n        /* \"#utility.yul\":6710:6736   */\n      swap1\n      pop\n        /* \"#utility.yul\":6782:6791   */\n      dup2\n        /* \"#utility.yul\":6776:6780   */\n      dup2\n        /* \"#utility.yul\":6772:6792   */\n      sub\n        /* \"#utility.yul\":6768:6769   */\n      0x00\n        /* \"#utility.yul\":6757:6766   */\n      dup4\n        /* \"#utility.yul\":6753:6770   */\n      add\n        /* \"#utility.yul\":6746:6793   */\n      mstore\n        /* \"#utility.yul\":6810:6908   */\n      tag_479\n        /* \"#utility.yul\":6903:6907   */\n      dup2\n        /* \"#utility.yul\":6894:6900   */\n      dup5\n        /* \"#utility.yul\":6810:6908   */\n      tag_390\n      jump\t// in\n    tag_479:\n        /* \"#utility.yul\":6802:6908   */\n      swap1\n      pop\n        /* \"#utility.yul\":6562:6915   */\n      swap3\n      swap2\n      pop\n      pop\n      jump\t// out\n        /* \"#utility.yul\":6921:7039   */\n    tag_391:\n        /* \"#utility.yul\":7008:7032   */\n      tag_481\n        /* \"#utility.yul\":7026:7031   */\n      dup2\n        /* \"#utility.yul\":7008:7032   */\n      tag_373\n      jump\t// in\n    tag_481:\n        /* \"#utility.yul\":7003:7006   */\n      dup3\n        /* \"#utility.yul\":6996:7033   */\n      mstore\n        /* \"#utility.yul\":6921:7039   */\n      pop\n      pop\n      jump\t// out\n        /* \"#utility.yul\":7045:7267   */\n    tag_66:\n        /* \"#utility.yul\":7138:7142   */\n      0x00\n        /* \"#utility.yul\":7176:7178   */\n      0x20\n        /* \"#utility.yul\":7165:7174   */\n      dup3\n        /* \"#utility.yul\":7161:7179   */\n      add\n        /* \"#utility.yul\":7153:7179   */\n      swap1\n      pop\n        /* \"#utility.yul\":7189:7260   */\n      tag_483\n        /* \"#utility.yul\":7257:7258   */\n      0x00\n        /* \"#utility.yul\":7246:7255   */\n      dup4\n        /* \"#utility.yul\":7242:7259   */\n      add\n        /* \"#utility.yul\":7233:7239   */\n      dup5\n        /* \"#utility.yul\":7189:7260   */\n      tag_391\n      jump\t// in\n    tag_483:\n        /* \"#utility.yul\":7045:7267   */\n      swap3\n      swap2\n      pop\n      pop\n      jump\t// out\n        /* \"#utility.yul\":7273:7390   */\n    tag_392:\n        /* \"#utility.yul\":7382:7383   */\n      0x00\n        /* \"#utility.yul\":7379:7380   */\n      dup1\n        /* \"#utility.yul\":7372:7384   */\n      revert\n        /* \"#utility.yul\":7396:7513   */\n    tag_393:\n        /* \"#utility.yul\":7505:7506   */\n      0x00\n        /* \"#utility.yul\":7502:7503   */\n      dup1\n        /* \"#utility.yul\":7495:7507   */\n      revert\n        /* \"#utility.yul\":7519:7699   */\n    tag_394:\n        /* \"#utility.yul\":7567:7644   */\n      0x4e487b7100000000000000000000000000000000000000000000000000000000\n        /* \"#utility.yul\":7564:7565   */\n      0x00\n        /* \"#utility.yul\":7557:7645   */\n      mstore\n        /* \"#utility.yul\":7664:7668   */\n      0x41\n        /* \"#utility.yul\":7661:7662   */\n      0x04\n        /* \"#utility.yul\":7654:7669   */\n      mstore\n        /* \"#utility.yul\":7688:7692   */\n      0x24\n        /* \"#utility.yul\":7685:7686   */\n      0x00\n        /* \"#utility.yul\":7678:7693   */\n      revert\n        /* \"#utility.yul\":7705:7986   */\n    tag_395:\n        /* \"#utility.yul\":7788:7815   */\n      tag_488\n        /* \"#utility.yul\":7810:7814   */\n      dup3\n        /* \"#utility.yul\":7788:7815   */\n      tag_386\n      jump\t// in\n    tag_488:\n        /* \"#utility.yul\":7780:7786   */\n      dup2\n        /* \"#utility.yul\":7776:7816   */\n      add\n        /* \"#utility.yul\":7918:7924   */\n      dup2\n        /* \"#utility.yul\":7906:7916   */\n      dup2\n        /* \"#utility.yul\":7903:7925   */\n      lt\n        /* \"#utility.yul\":7882:7900   */\n      0xffffffffffffffff\n        /* \"#utility.yul\":7870:7880   */\n      dup3\n        /* \"#utility.yul\":7867:7901   */\n      gt\n        /* \"#utility.yul\":7864:7926   */\n      or\n        /* \"#utility.yul\":7861:7949   */\n      iszero\n      tag_489\n      jumpi\n        /* \"#utility.yul\":7929:7947   */\n      tag_490\n      tag_394\n      jump\t// in\n    tag_490:\n        /* \"#utility.yul\":7861:7949   */\n    tag_489:\n        /* \"#utility.yul\":7969:7979   */\n      dup1\n        /* \"#utility.yul\":7965:7967   */\n      0x40\n        /* \"#utility.yul\":7958:7980   */\n      mstore\n        /* \"#utility.yul\":7748:7986   */\n      pop\n        /* \"#utility.yul\":7705:7986   */\n      pop\n      pop\n      jump\t// out\n        /* \"#utility.yul\":7992:8121   */\n    tag_396:\n        /* \"#utility.yul\":8026:8032   */\n      0x00\n        /* \"#utility.yul\":8053:8073   */\n      tag_492\n      tag_369\n      jump\t// in\n    tag_492:\n        /* \"#utility.yul\":8043:8073   */\n      swap1\n      pop\n        /* \"#utility.yul\":8082:8115   */\n      tag_493\n        /* \"#utility.yul\":8110:8114   */\n      dup3\n        /* \"#utility.yul\":8102:8108   */\n      dup3\n        /* \"#utility.yul\":8082:8115   */\n      tag_395\n      jump\t// in\n    tag_493:\n        /* \"#utility.yul\":7992:8121   */\n      swap2\n      swap1\n      pop\n      jump\t// out\n        /* \"#utility.yul\":8127:8435   */\n    tag_397:\n        /* \"#utility.yul\":8189:8193   */\n      0x00\n        /* \"#utility.yul\":8279:8297   */\n      0xffffffffffffffff\n        /* \"#utility.yul\":8271:8277   */\n      dup3\n        /* \"#utility.yul\":8268:8298   */\n      gt\n        /* \"#utility.yul\":8265:8321   */\n      iszero\n      tag_495\n      jumpi\n        /* \"#utility.yul\":8301:8319   */\n      tag_496\n      tag_394\n      jump\t// in\n    tag_496:\n        /* \"#utility.yul\":8265:8321   */\n    tag_495:\n        /* \"#utility.yul\":8339:8368   */\n      tag_497\n        /* \"#utility.yul\":8361:8367   */\n      dup3\n        /* \"#utility.yul\":8339:8368   */\n      tag_386\n      jump\t// in\n    tag_497:\n        /* \"#utility.yul\":8331:8368   */\n      swap1\n      pop\n        /* \"#utility.yul\":8423:8427   */\n      0x20\n        /* \"#utility.yul\":8417:8421   */\n      dup2\n        /* \"#utility.yul\":8413:8428   */\n      add\n        /* \"#utility.yul\":8405:8428   */\n      swap1\n      pop\n        /* \"#utility.yul\":8127:8435   */\n      swap2\n      swap1\n      pop\n      jump\t// out\n        /* \"#utility.yul\":8441:8595   */\n    tag_398:\n        /* \"#utility.yul\":8525:8531   */\n      dup3\n        /* \"#utility.yul\":8520:8523   */\n      dup2\n        /* \"#utility.yul\":8515:8518   */\n      dup4\n        /* \"#utility.yul\":8502:8532   */\n      calldatacopy\n        /* \"#utility.yul\":8587:8588   */\n      0x00\n        /* \"#utility.yul\":8578:8584   */\n      dup4\n        /* \"#utility.yul\":8573:8576   */\n      dup4\n        /* \"#utility.yul\":8569:8585   */\n      add\n        /* \"#utility.yul\":8562:8589   */\n      mstore\n        /* \"#utility.yul\":8441:8595   */\n      pop\n      pop\n      pop\n      jump\t// out\n        /* \"#utility.yul\":8601:9013   */\n    tag_399:\n        /* \"#utility.yul\":8679:8684   */\n      0x00\n        /* \"#utility.yul\":8704:8770   */\n      tag_500\n        /* \"#utility.yul\":8720:8769   */\n      tag_501\n        /* \"#utility.yul\":8762:8768   */\n      dup5\n        /* \"#utility.yul\":8720:8769   */\n      tag_397\n      jump\t// in\n    tag_501:\n        /* \"#utility.yul\":8704:8770   */\n      tag_396\n      jump\t// in\n    tag_500:\n        /* \"#utility.yul\":8695:8770   */\n      swap1\n      pop\n        /* \"#utility.yul\":8793:8799   */\n      dup3\n        /* \"#utility.yul\":8786:8791   */\n      dup2\n        /* \"#utility.yul\":8779:8800   */\n      mstore\n        /* \"#utility.yul\":8831:8835   */\n      0x20\n        /* \"#utility.yul\":8824:8829   */\n      dup2\n        /* \"#utility.yul\":8820:8836   */\n      add\n        /* \"#utility.yul\":8869:8872   */\n      dup5\n        /* \"#utility.yul\":8860:8866   */\n      dup5\n        /* \"#utility.yul\":8855:8858   */\n      dup5\n        /* \"#utility.yul\":8851:8867   */\n      add\n        /* \"#utility.yul\":8848:8873   */\n      gt\n        /* \"#utility.yul\":8845:8957   */\n      iszero\n      tag_502\n      jumpi\n        /* \"#utility.yul\":8876:8955   */\n      tag_503\n      tag_393\n      jump\t// in\n    tag_503:\n        /* \"#utility.yul\":8845:8957   */\n    tag_502:\n        /* \"#utility.yul\":8966:9007   */\n      tag_504\n        /* \"#utility.yul\":9000:9006   */\n      dup5\n        /* \"#utility.yul\":8995:8998   */\n      dup3\n        /* \"#utility.yul\":8990:8993   */\n      dup6\n        /* \"#utility.yul\":8966:9007   */\n      tag_398\n      jump\t// in\n    tag_504:\n        /* \"#utility.yul\":8685:9013   */\n      pop\n        /* \"#utility.yul\":8601:9013   */\n      swap4\n      swap3\n      pop\n      pop\n      pop\n      jump\t// out\n        /* \"#utility.yul\":9033:9373   */\n    tag_400:\n        /* \"#utility.yul\":9089:9094   */\n      0x00\n        /* \"#utility.yul\":9138:9141   */\n      dup3\n        /* \"#utility.yul\":9131:9135   */\n      0x1f\n        /* \"#utility.yul\":9123:9129   */\n      dup4\n        /* \"#utility.yul\":9119:9136   */\n      add\n        /* \"#utility.yul\":9115:9142   */\n      slt\n        /* \"#utility.yul\":9105:9227   */\n      tag_506\n      jumpi\n        /* \"#utility.yul\":9146:9225   */\n      tag_507\n      tag_392\n      jump\t// in\n    tag_507:\n        /* \"#utility.yul\":9105:9227   */\n    tag_506:\n        /* \"#utility.yul\":9263:9269   */\n      dup2\n        /* \"#utility.yul\":9250:9270   */\n      calldataload\n        /* \"#utility.yul\":9288:9367   */\n      tag_508\n        /* \"#utility.yul\":9363:9366   */\n      dup5\n        /* \"#utility.yul\":9355:9361   */\n      dup3\n        /* \"#utility.yul\":9348:9352   */\n      0x20\n        /* \"#utility.yul\":9340:9346   */\n      dup7\n        /* \"#utility.yul\":9336:9353   */\n      add\n        /* \"#utility.yul\":9288:9367   */\n      tag_399\n      jump\t// in\n    tag_508:\n        /* \"#utility.yul\":9279:9367   */\n      swap2\n      pop\n        /* \"#utility.yul\":9095:9373   */\n      pop\n        /* \"#utility.yul\":9033:9373   */\n      swap3\n      swap2\n      pop\n      pop\n      jump\t// out\n        /* \"#utility.yul\":9379:10684   */\n    tag_82:\n        /* \"#utility.yul\":9495:9501   */\n      0x00\n        /* \"#utility.yul\":9503:9509   */\n      dup1\n        /* \"#utility.yul\":9511:9517   */\n      0x00\n        /* \"#utility.yul\":9519:9525   */\n      dup1\n        /* \"#utility.yul\":9568:9571   */\n      0x80\n        /* \"#utility.yul\":9556:9565   */\n      dup6\n        /* \"#utility.yul\":9547:9554   */\n      dup8\n        /* \"#utility.yul\":9543:9566   */\n      sub\n        /* \"#utility.yul\":9539:9572   */\n      slt\n        /* \"#utility.yul\":9536:9656   */\n      iszero\n      tag_510\n      jumpi\n        /* \"#utility.yul\":9575:9654   */\n      tag_511\n      tag_370\n      jump\t// in\n    tag_511:\n        /* \"#utility.yul\":9536:9656   */\n    tag_510:\n        /* \"#utility.yul\":9695:9696   */\n      0x00\n        /* \"#utility.yul\":9720:9773   */\n      tag_512\n        /* \"#utility.yul\":9765:9772   */\n      dup8\n        /* \"#utility.yul\":9756:9762   */\n      dup3\n        /* \"#utility.yul\":9745:9754   */\n      dup9\n        /* \"#utility.yul\":9741:9763   */\n      add\n        /* \"#utility.yul\":9720:9773   */\n      tag_375\n      jump\t// in\n    tag_512:\n        /* \"#utility.yul\":9710:9773   */\n      swap5\n      pop\n        /* \"#utility.yul\":9666:9783   */\n      pop\n        /* \"#utility.yul\":9850:9852   */\n      0x20\n        /* \"#utility.yul\":9839:9848   */\n      dup6\n        /* \"#utility.yul\":9835:9853   */\n      add\n        /* \"#utility.yul\":9822:9854   */\n      calldataload\n        /* \"#utility.yul\":9881:9899   */\n      0xffffffffffffffff\n        /* \"#utility.yul\":9873:9879   */\n      dup2\n        /* \"#utility.yul\":9870:9900   */\n      gt\n        /* \"#utility.yul\":9867:9984   */\n      iszero\n      tag_513\n      jumpi\n        /* \"#utility.yul\":9903:9982   */\n      tag_514\n      tag_371\n      jump\t// in\n    tag_514:\n        /* \"#utility.yul\":9867:9984   */\n    tag_513:\n        /* \"#utility.yul\":10008:10071   */\n      tag_515\n        /* \"#utility.yul\":10063:10070   */\n      dup8\n        /* \"#utility.yul\":10054:10060   */\n      dup3\n        /* \"#utility.yul\":10043:10052   */\n      dup9\n        /* \"#utility.yul\":10039:10061   */\n      add\n        /* \"#utility.yul\":10008:10071   */\n      tag_400\n      jump\t// in\n    tag_515:\n        /* \"#utility.yul\":9998:10071   */\n      swap4\n      pop\n        /* \"#utility.yul\":9793:10081   */\n      pop\n        /* \"#utility.yul\":10148:10150   */\n      0x40\n        /* \"#utility.yul\":10137:10146   */\n      dup6\n        /* \"#utility.yul\":10133:10151   */\n      add\n        /* \"#utility.yul\":10120:10152   */\n      calldataload\n        /* \"#utility.yul\":10179:10197   */\n      0xffffffffffffffff\n        /* \"#utility.yul\":10171:10177   */\n      dup2\n        /* \"#utility.yul\":10168:10198   */\n      gt\n        /* \"#utility.yul\":10165:10282   */\n      iszero\n      tag_516\n      jumpi\n        /* \"#utility.yul\":10201:10280   */\n      tag_517\n      tag_371\n      jump\t// in\n    tag_517:\n        /* \"#utility.yul\":10165:10282   */\n    tag_516:\n        /* \"#utility.yul\":10306:10369   */\n      tag_518\n        /* \"#utility.yul\":10361:10368   */\n      dup8\n        /* \"#utility.yul\":10352:10358   */\n      dup3\n        /* \"#utility.yul\":10341:10350   */\n      dup9\n        /* \"#utility.yul\":10337:10359   */\n      add\n        /* \"#utility.yul\":10306:10369   */\n      tag_400\n      jump\t// in\n    tag_518:\n        /* \"#utility.yul\":10296:10369   */\n      swap3\n      pop\n        /* \"#utility.yul\":10091:10379   */\n      pop\n        /* \"#utility.yul\":10446:10448   */\n      0x60\n        /* \"#utility.yul\":10435:10444   */\n      dup6\n        /* \"#utility.yul\":10431:10449   */\n      add\n        /* \"#utility.yul\":10418:10450   */\n      calldataload\n        /* \"#utility.yul\":10477:10495   */\n      0xffffffffffffffff\n        /* \"#utility.yul\":10469:10475   */\n      dup2\n        /* \"#utility.yul\":10466:10496   */\n      gt\n        /* \"#utility.yul\":10463:10580   */\n      iszero\n      tag_519\n      jumpi\n        /* \"#utility.yul\":10499:10578   */\n      tag_520\n      tag_371\n      jump\t// in\n    tag_520:\n        /* \"#utility.yul\":10463:10580   */\n    tag_519:\n        /* \"#utility.yul\":10604:10667   */\n      tag_521\n        /* \"#utility.yul\":10659:10666   */\n      dup8\n        /* \"#utility.yul\":10650:10656   */\n      dup3\n        /* \"#utility.yul\":10639:10648   */\n      dup9\n        /* \"#utility.yul\":10635:10657   */\n      add\n        /* \"#utility.yul\":10604:10667   */\n      tag_400\n      jump\t// in\n    tag_521:\n        /* \"#utility.yul\":10594:10667   */\n      swap2\n      pop\n        /* \"#utility.yul\":10389:10677   */\n      pop\n        /* \"#utility.yul\":9379:10684   */\n      swap3\n      swap6\n      swap2\n      swap5\n      pop\n      swap3\n      pop\n      jump\t// out\n        /* \"#utility.yul\":10690:10870   */\n    tag_401:\n        /* \"#utility.yul\":10738:10815   */\n      0x4e487b7100000000000000000000000000000000000000000000000000000000\n        /* \"#utility.yul\":10735:10736   */\n      0x00\n        /* \"#utility.yul\":10728:10816   */\n      mstore\n        /* \"#utility.yul\":10835:10839   */\n      0x22\n        /* \"#utility.yul\":10832:10833   */\n      0x04\n        /* \"#utility.yul\":10825:10840   */\n      mstore\n        /* \"#utility.yul\":10859:10863   */\n      0x24\n        /* \"#utility.yul\":10856:10857   */\n      0x00\n        /* \"#utility.yul\":10849:10864   */\n      revert\n        /* \"#utility.yul\":10876:11196   */\n    tag_94:\n        /* \"#utility.yul\":10920:10926   */\n      0x00\n        /* \"#utility.yul\":10957:10958   */\n      0x02\n        /* \"#utility.yul\":10951:10955   */\n      dup3\n        /* \"#utility.yul\":10947:10959   */\n      div\n        /* \"#utility.yul\":10937:10959   */\n      swap1\n      pop\n        /* \"#utility.yul\":11004:11005   */\n      0x01\n        /* \"#utility.yul\":10998:11002   */\n      dup3\n        /* \"#utility.yul\":10994:11006   */\n      and\n        /* \"#utility.yul\":11025:11043   */\n      dup1\n        /* \"#utility.yul\":11015:11096   */\n      tag_524\n      jumpi\n        /* \"#utility.yul\":11081:11085   */\n      0x7f\n        /* \"#utility.yul\":11073:11079   */\n      dup3\n        /* \"#utility.yul\":11069:11086   */\n      and\n        /* \"#utility.yul\":11059:11086   */\n      swap2\n      pop\n        /* \"#utility.yul\":11015:11096   */\n    tag_524:\n        /* \"#utility.yul\":11143:11145   */\n      0x20\n        /* \"#utility.yul\":11135:11141   */\n      dup3\n        /* \"#utility.yul\":11132:11146   */\n      lt\n        /* \"#utility.yul\":11112:11130   */\n      dup2\n        /* \"#utility.yul\":11109:11147   */\n      eq\n        /* \"#utility.yul\":11106:11190   */\n      iszero\n      tag_525\n      jumpi\n        /* \"#utility.yul\":11162:11180   */\n      tag_526\n      tag_401\n      jump\t// in\n    tag_526:\n        /* \"#utility.yul\":11106:11190   */\n    tag_525:\n        /* \"#utility.yul\":10927:11196   */\n      pop\n        /* \"#utility.yul\":10876:11196   */\n      swap2\n      swap1\n      pop\n      jump\t// out\n        /* \"#utility.yul\":11202:11382   */\n    tag_124:\n        /* \"#utility.yul\":11250:11327   */\n      0x4e487b7100000000000000000000000000000000000000000000000000000000\n        /* \"#utility.yul\":11247:11248   */\n      0x00\n        /* \"#utility.yul\":11240:11328   */\n      mstore\n        /* \"#utility.yul\":11347:11351   */\n      0x32\n        /* \"#utility.yul\":11344:11345   */\n      0x04\n        /* \"#utility.yul\":11337:11352   */\n      mstore\n        /* \"#utility.yul\":11371:11375   */\n      0x24\n        /* \"#utility.yul\":11368:11369   */\n      0x00\n        /* \"#utility.yul\":11361:11376   */\n      revert\n        /* \"#utility.yul\":11388:11568   */\n    tag_402:\n        /* \"#utility.yul\":11436:11513   */\n      0x4e487b7100000000000000000000000000000000000000000000000000000000\n        /* \"#utility.yul\":11433:11434   */\n      0x00\n        /* \"#utility.yul\":11426:11514   */\n      mstore\n        /* \"#utility.yul\":11533:11537   */\n      0x11\n        /* \"#utility.yul\":11530:11531   */\n      0x04\n        /* \"#utility.yul\":11523:11538   */\n      mstore\n        /* \"#utility.yul\":11557:11561   */\n      0x24\n        /* \"#utility.yul\":11554:11555   */\n      0x00\n        /* \"#utility.yul\":11547:11562   */\n      revert\n        /* \"#utility.yul\":11574:11807   */\n    tag_136:\n        /* \"#utility.yul\":11613:11616   */\n      0x00\n        /* \"#utility.yul\":11636:11660   */\n      tag_530\n        /* \"#utility.yul\":11654:11659   */\n      dup3\n        /* \"#utility.yul\":11636:11660   */\n      tag_378\n      jump\t// in\n    tag_530:\n        /* \"#utility.yul\":11627:11660   */\n      swap2\n      pop\n        /* \"#utility.yul\":11682:11748   */\n      0xffffffffffffffffffffffffffffffffffffffffffffffffffffffffffffffff\n        /* \"#utility.yul\":11675:11680   */\n      dup3\n        /* \"#utility.yul\":11672:11749   */\n      eq\n        /* \"#utility.yul\":11669:11772   */\n      iszero\n      tag_531\n      jumpi\n        /* \"#utility.yul\":11752:11770   */\n      tag_532\n      tag_402\n      jump\t// in\n    tag_532:\n        /* \"#utility.yul\":11669:11772   */\n    tag_531:\n        /* \"#utility.yul\":11799:11800   */\n      0x01\n        /* \"#utility.yul\":11792:11797   */\n      dup3\n        /* \"#utility.yul\":11788:11801   */\n      add\n        /* \"#utility.yul\":11781:11801   */\n      swap1\n      pop\n        /* \"#utility.yul\":11574:11807   */\n      swap2\n      swap1\n      pop\n      jump\t// out\n        /* \"#utility.yul\":11813:11982   */\n    tag_403:\n        /* \"#utility.yul\":11897:11908   */\n      0x00\n        /* \"#utility.yul\":11931:11937   */\n      dup3\n        /* \"#utility.yul\":11926:11929   */\n      dup3\n        /* \"#utility.yul\":11919:11938   */\n      mstore\n        /* \"#utility.yul\":11971:11975   */\n      0x20\n        /* \"#utility.yul\":11966:11969   */\n      dup3\n        /* \"#utility.yul\":11962:11976   */\n      add\n        /* \"#utility.yul\":11947:11976   */\n      swap1\n      pop\n        /* \"#utility.yul\":11813:11982   */\n      swap3\n      swap2\n      pop\n      pop\n      jump\t// out\n        /* \"#utility.yul\":11988:12159   */\n    tag_404:\n        /* \"#utility.yul\":12128:12151   */\n      0x4163636f756e7420646f65736e27742065786973740000000000000000000000\n        /* \"#utility.yul\":12124:12125   */\n      0x00\n        /* \"#utility.yul\":12116:12122   */\n      dup3\n        /* \"#utility.yul\":12112:12126   */\n      add\n        /* \"#utility.yul\":12105:12152   */\n      mstore\n        /* \"#utility.yul\":11988:12159   */\n      pop\n      jump\t// out\n        /* \"#utility.yul\":12165:12531   */\n    tag_405:\n        /* \"#utility.yul\":12307:12310   */\n      0x00\n        /* \"#utility.yul\":12328:12395   */\n      tag_536\n        /* \"#utility.yul\":12392:12394   */\n      0x15\n        /* \"#utility.yul\":12387:12390   */\n      dup4\n        /* \"#utility.yul\":12328:12395   */\n      tag_403\n      jump\t// in\n    tag_536:\n        /* \"#utility.yul\":12321:12395   */\n      swap2\n      pop\n        /* \"#utility.yul\":12404:12497   */\n      tag_537\n        /* \"#utility.yul\":12493:12496   */\n      dup3\n        /* \"#utility.yul\":12404:12497   */\n      tag_404\n      jump\t// in\n    tag_537:\n        /* \"#utility.yul\":12522:12524   */\n      0x20\n        /* \"#utility.yul\":12517:12520   */\n      dup3\n        /* \"#utility.yul\":12513:12525   */\n      add\n        /* \"#utility.yul\":12506:12525   */\n      swap1\n      pop\n        /* \"#utility.yul\":12165:12531   */\n      swap2\n      swap1\n      pop\n      jump\t// out\n        /* \"#utility.yul\":12537:12956   */\n    tag_142:\n        /* \"#utility.yul\":12703:12707   */\n      0x00\n        /* \"#utility.yul\":12741:12743   */\n      0x20\n        /* \"#utility.yul\":12730:12739   */\n      dup3\n        /* \"#utility.yul\":12726:12744   */\n      add\n        /* \"#utility.yul\":12718:12744   */\n      swap1\n      pop\n        /* \"#utility.yul\":12790:12799   */\n      dup2\n        /* \"#utility.yul\":12784:12788   */\n      dup2\n        /* \"#utility.yul\":12780:12800   */\n      sub\n        /* \"#utility.yul\":12776:12777   */\n      0x00\n        /* \"#utility.yul\":12765:12774   */\n      dup4\n        /* \"#utility.yul\":12761:12778   */\n      add\n        /* \"#utility.yul\":12754:12801   */\n      mstore\n        /* \"#utility.yul\":12818:12949   */\n      tag_539\n        /* \"#utility.yul\":12944:12948   */\n      dup2\n        /* \"#utility.yul\":12818:12949   */\n      tag_405\n      jump\t// in\n    tag_539:\n        /* \"#utility.yul\":12810:12949   */\n      swap1\n      pop\n        /* \"#utility.yul\":12537:12956   */\n      swap2\n      swap1\n      pop\n      jump\t// out\n        /* \"#utility.yul\":12962:13133   */\n    tag_146:\n        /* \"#utility.yul\":13001:13004   */\n      0x00\n        /* \"#utility.yul\":13024:13048   */\n      tag_541\n        /* \"#utility.yul\":13042:13047   */\n      dup3\n        /* \"#utility.yul\":13024:13048   */\n      tag_378\n      jump\t// in\n    tag_541:\n        /* \"#utility.yul\":13015:13048   */\n      swap2\n      pop\n        /* \"#utility.yul\":13070:13074   */\n      0x00\n        /* \"#utility.yul\":13063:13068   */\n      dup3\n        /* \"#utility.yul\":13060:13075   */\n      eq\n        /* \"#utility.yul\":13057:13098   */\n      iszero\n      tag_542\n      jumpi\n        /* \"#utility.yul\":13078:13096   */\n      tag_543\n      tag_402\n      jump\t// in\n    tag_543:\n        /* \"#utility.yul\":13057:13098   */\n    tag_542:\n        /* \"#utility.yul\":13125:13126   */\n      0x01\n        /* \"#utility.yul\":13118:13123   */\n      dup3\n        /* \"#utility.yul\":13114:13127   */\n      sub\n        /* \"#utility.yul\":13107:13127   */\n      swap1\n      pop\n        /* \"#utility.yul\":12962:13133   */\n      swap2\n      swap1\n      pop\n      jump\t// out\n        /* \"#utility.yul\":13139:13255   */\n    tag_406:\n        /* \"#utility.yul\":13209:13230   */\n      tag_545\n        /* \"#utility.yul\":13224:13229   */\n      dup2\n        /* \"#utility.yul\":13209:13230   */\n      tag_376\n      jump\t// in\n    tag_545:\n        /* \"#utility.yul\":13202:13207   */\n      dup2\n        /* \"#utility.yul\":13199:13231   */\n      eq\n        /* \"#utility.yul\":13189:13249   */\n      tag_546\n      jumpi\n        /* \"#utility.yul\":13245:13246   */\n      0x00\n        /* \"#utility.yul\":13242:13243   */\n      dup1\n        /* \"#utility.yul\":13235:13247   */\n      revert\n        /* \"#utility.yul\":13189:13249   */\n    tag_546:\n        /* \"#utility.yul\":13139:13255   */\n      pop\n      jump\t// out\n        /* \"#utility.yul\":13261:13398   */\n    tag_407:\n        /* \"#utility.yul\":13315:13320   */\n      0x00\n        /* \"#utility.yul\":13346:13352   */\n      dup2\n        /* \"#utility.yul\":13340:13353   */\n      mload\n        /* \"#utility.yul\":13331:13353   */\n      swap1\n      pop\n        /* \"#utility.yul\":13362:13392   */\n      tag_548\n        /* \"#utility.yul\":13386:13391   */\n      dup2\n        /* \"#utility.yul\":13362:13392   */\n      tag_406\n      jump\t// in\n    tag_548:\n        /* \"#utility.yul\":13261:13398   */\n      swap3\n      swap2\n      pop\n      pop\n      jump\t// out\n        /* \"#utility.yul\":13404:13749   */\n    tag_153:\n        /* \"#utility.yul\":13471:13477   */\n      0x00\n        /* \"#utility.yul\":13520:13522   */\n      0x20\n        /* \"#utility.yul\":13508:13517   */\n      dup3\n        /* \"#utility.yul\":13499:13506   */\n      dup5\n        /* \"#utility.yul\":13495:13518   */\n      sub\n        /* \"#utility.yul\":13491:13523   */\n      slt\n        /* \"#utility.yul\":13488:13607   */\n      iszero\n      tag_550\n      jumpi\n        /* \"#utility.yul\":13526:13605   */\n      tag_551\n      tag_370\n      jump\t// in\n    tag_551:\n        /* \"#utility.yul\":13488:13607   */\n    tag_550:\n        /* \"#utility.yul\":13646:13647   */\n      0x00\n        /* \"#utility.yul\":13671:13732   */\n      tag_552\n        /* \"#utility.yul\":13724:13731   */\n      dup5\n        /* \"#utility.yul\":13715:13721   */\n      dup3\n        /* \"#utility.yul\":13704:13713   */\n      dup6\n        /* \"#utility.yul\":13700:13722   */\n      add\n        /* \"#utility.yul\":13671:13732   */\n      tag_407\n      jump\t// in\n    tag_552:\n        /* \"#utility.yul\":13661:13732   */\n      swap2\n      pop\n        /* \"#utility.yul\":13617:13742   */\n      pop\n        /* \"#utility.yul\":13404:13749   */\n      swap3\n      swap2\n      pop\n      pop\n      jump\t// out\n        /* \"#utility.yul\":13755:13976   */\n    tag_408:\n        /* \"#utility.yul\":13895:13929   */\n      0x4f6e6c79206f776e65722063616e2063616c6c20746869732066756e6374696f\n        /* \"#utility.yul\":13891:13892   */\n      0x00\n        /* \"#utility.yul\":13883:13889   */\n      dup3\n        /* \"#utility.yul\":13879:13893   */\n      add\n        /* \"#utility.yul\":13872:13930   */\n      mstore\n        /* \"#utility.yul\":13964:13968   */\n      0x6e2e000000000000000000000000000000000000000000000000000000000000\n        /* \"#utility.yul\":13959:13961   */\n      0x20\n        /* \"#utility.yul\":13951:13957   */\n      dup3\n        /* \"#utility.yul\":13947:13962   */\n      add\n        /* \"#utility.yul\":13940:13969   */\n      mstore\n        /* \"#utility.yul\":13755:13976   */\n      pop\n      jump\t// out\n        /* \"#utility.yul\":13982:14348   */\n    tag_409:\n        /* \"#utility.yul\":14124:14127   */\n      0x00\n        /* \"#utility.yul\":14145:14212   */\n      tag_555\n        /* \"#utility.yul\":14209:14211   */\n      0x22\n        /* \"#utility.yul\":14204:14207   */\n      dup4\n        /* \"#utility.yul\":14145:14212   */\n      tag_403\n      jump\t// in\n    tag_555:\n        /* \"#utility.yul\":14138:14212   */\n      swap2\n      pop\n        /* \"#utility.yul\":14221:14314   */\n      tag_556\n        /* \"#utility.yul\":14310:14313   */\n      dup3\n        /* \"#utility.yul\":14221:14314   */\n      tag_408\n      jump\t// in\n    tag_556:\n        /* \"#utility.yul\":14339:14341   */\n      0x40\n        /* \"#utility.yul\":14334:14337   */\n      dup3\n        /* \"#utility.yul\":14330:14342   */\n      add\n        /* \"#utility.yul\":14323:14342   */\n      swap1\n      pop\n        /* \"#utility.yul\":13982:14348   */\n      swap2\n      swap1\n      pop\n      jump\t// out\n        /* \"#utility.yul\":14354:14773   */\n    tag_156:\n        /* \"#utility.yul\":14520:14524   */\n      0x00\n        /* \"#utility.yul\":14558:14560   */\n      0x20\n        /* \"#utility.yul\":14547:14556   */\n      dup3\n        /* \"#utility.yul\":14543:14561   */\n      add\n        /* \"#utility.yul\":14535:14561   */\n      swap1\n      pop\n        /* \"#utility.yul\":14607:14616   */\n      dup2\n        /* \"#utility.yul\":14601:14605   */\n      dup2\n        /* \"#utility.yul\":14597:14617   */\n      sub\n        /* \"#utility.yul\":14593:14594   */\n      0x00\n        /* \"#utility.yul\":14582:14591   */\n      dup4\n        /* \"#utility.yul\":14578:14595   */\n      add\n        /* \"#utility.yul\":14571:14618   */\n      mstore\n        /* \"#utility.yul\":14635:14766   */\n      tag_558\n        /* \"#utility.yul\":14761:14765   */\n      dup2\n        /* \"#utility.yul\":14635:14766   */\n      tag_409\n      jump\t// in\n    tag_558:\n        /* \"#utility.yul\":14627:14766   */\n      swap1\n      pop\n        /* \"#utility.yul\":14354:14773   */\n      swap2\n      swap1\n      pop\n      jump\t// out\n        /* \"#utility.yul\":14779:14959   */\n    tag_163:\n        /* \"#utility.yul\":14827:14904   */\n      0x4e487b7100000000000000000000000000000000000000000000000000000000\n        /* \"#utility.yul\":14824:14825   */\n      0x00\n        /* \"#utility.yul\":14817:14905   */\n      mstore\n        /* \"#utility.yul\":14924:14928   */\n      0x21\n        /* \"#utility.yul\":14921:14922   */\n      0x04\n        /* \"#utility.yul\":14914:14929   */\n      mstore\n        /* \"#utility.yul\":14948:14952   */\n      0x24\n        /* \"#utility.yul\":14945:14946   */\n      0x00\n        /* \"#utility.yul\":14938:14953   */\n      revert\n        /* \"#utility.yul\":14965:15130   */\n    tag_410:\n        /* \"#utility.yul\":15105:15122   */\n      0x55736572206e6f7420666f756e64210000000000000000000000000000000000\n        /* \"#utility.yul\":15101:15102   */\n      0x00\n        /* \"#utility.yul\":15093:15099   */\n      dup3\n        /* \"#utility.yul\":15089:15103   */\n      add\n        /* \"#utility.yul\":15082:15123   */\n      mstore\n        /* \"#utility.yul\":14965:15130   */\n      pop\n      jump\t// out\n        /* \"#utility.yul\":15136:15502   */\n    tag_411:\n        /* \"#utility.yul\":15278:15281   */\n      0x00\n        /* \"#utility.yul\":15299:15366   */\n      tag_562\n        /* \"#utility.yul\":15363:15365   */\n      0x0f\n        /* \"#utility.yul\":15358:15361   */\n      dup4\n        /* \"#utility.yul\":15299:15366   */\n      tag_403\n      jump\t// in\n    tag_562:\n        /* \"#utility.yul\":15292:15366   */\n      swap2\n      pop\n        /* \"#utility.yul\":15375:15468   */\n      tag_563\n        /* \"#utility.yul\":15464:15467   */\n      dup3\n        /* \"#utility.yul\":15375:15468   */\n      tag_410\n      jump\t// in\n    tag_563:\n        /* \"#utility.yul\":15493:15495   */\n      0x20\n        /* \"#utility.yul\":15488:15491   */\n      dup3\n        /* \"#utility.yul\":15484:15496   */\n      add\n        /* \"#utility.yul\":15477:15496   */\n      swap1\n      pop\n        /* \"#utility.yul\":15136:15502   */\n      swap2\n      swap1\n      pop\n      jump\t// out\n        /* \"#utility.yul\":15508:15927   */\n    tag_226:\n        /* \"#utility.yul\":15674:15678   */\n      0x00\n        /* \"#utility.yul\":15712:15714   */\n      0x20\n        /* \"#utility.yul\":15701:15710   */\n      dup3\n        /* \"#utility.yul\":15697:15715   */\n      add\n        /* \"#utility.yul\":15689:15715   */\n      swap1\n      pop\n        /* \"#utility.yul\":15761:15770   */\n      dup2\n        /* \"#utility.yul\":15755:15759   */\n      dup2\n        /* \"#utility.yul\":15751:15771   */\n      sub\n        /* \"#utility.yul\":15747:15748   */\n      0x00\n        /* \"#utility.yul\":15736:15745   */\n      dup4\n        /* \"#utility.yul\":15732:15749   */\n      add\n        /* \"#utility.yul\":15725:15772   */\n      mstore\n        /* \"#utility.yul\":15789:15920   */\n      tag_565\n        /* \"#utility.yul\":15915:15919   */\n      dup2\n        /* \"#utility.yul\":15789:15920   */\n      tag_411\n      jump\t// in\n    tag_565:\n        /* \"#utility.yul\":15781:15920   */\n      swap1\n      pop\n        /* \"#utility.yul\":15508:15927   */\n      swap2\n      swap1\n      pop\n      jump\t// out\n        /* \"#utility.yul\":15933:16105   */\n    tag_412:\n        /* \"#utility.yul\":16073:16097   */\n      0x4163636f756e7420616c72656164792065786973747300000000000000000000\n        /* \"#utility.yul\":16069:16070   */\n      0x00\n        /* \"#utility.yul\":16061:16067   */\n      dup3\n        /* \"#utility.yul\":16057:16071   */\n      add\n        /* \"#utility.yul\":16050:16098   */\n      mstore\n        /* \"#utility.yul\":15933:16105   */\n      pop\n      jump\t// out\n        /* \"#utility.yul\":16111:16477   */\n    tag_413:\n        /* \"#utility.yul\":16253:16256   */\n      0x00\n        /* \"#utility.yul\":16274:16341   */\n      tag_568\n        /* \"#utility.yul\":16338:16340   */\n      0x16\n        /* \"#utility.yul\":16333:16336   */\n      dup4\n        /* \"#utility.yul\":16274:16341   */\n      tag_403\n      jump\t// in\n    tag_568:\n        /* \"#utility.yul\":16267:16341   */\n      swap2\n      pop\n        /* \"#utility.yul\":16350:16443   */\n      tag_569\n        /* \"#utility.yul\":16439:16442   */\n      dup3\n        /* \"#utility.yul\":16350:16443   */\n      tag_412\n      jump\t// in\n    tag_569:\n        /* \"#utility.yul\":16468:16470   */\n      0x20\n        /* \"#utility.yul\":16463:16466   */\n      dup3\n        /* \"#utility.yul\":16459:16471   */\n      add\n        /* \"#utility.yul\":16452:16471   */\n      swap1\n      pop\n        /* \"#utility.yul\":16111:16477   */\n      swap2\n      swap1\n      pop\n      jump\t// out\n        /* \"#utility.yul\":16483:16902   */\n    tag_304:\n        /* \"#utility.yul\":16649:16653   */\n      0x00\n        /* \"#utility.yul\":16687:16689   */\n      0x20\n        /* \"#utility.yul\":16676:16685   */\n      dup3\n        /* \"#utility.yul\":16672:16690   */\n      add\n        /* \"#utility.yul\":16664:16690   */\n      swap1\n      pop\n        /* \"#utility.yul\":16736:16745   */\n      dup2\n        /* \"#utility.yul\":16730:16734   */\n      dup2\n        /* \"#utility.yul\":16726:16746   */\n      sub\n        /* \"#utility.yul\":16722:16723   */\n      0x00\n        /* \"#utility.yul\":16711:16720   */\n      dup4\n        /* \"#utility.yul\":16707:16724   */\n      add\n        /* \"#utility.yul\":16700:16747   */\n      mstore\n        /* \"#utility.yul\":16764:16895   */\n      tag_571\n        /* \"#utility.yul\":16890:16894   */\n      dup2\n        /* \"#utility.yul\":16764:16895   */\n      tag_413\n      jump\t// in\n    tag_571:\n        /* \"#utility.yul\":16756:16895   */\n      swap1\n      pop\n        /* \"#utility.yul\":16483:16902   */\n      swap2\n      swap1\n      pop\n      jump\t// out\n\n    auxdata: 0xa2646970667358221220fd056ec8305b359bd17b3531ca5d461ad3ad97d3b8b0cf2431ffebfe3009f03f64736f6c634300080c0033\n}\n",
				"bytecode": {
					"linkReferences": {},
					"object": "60806040523480156200001157600080fd5b5060405162004f9838038062004f98833981810160405281019062000037919062000fdf565b33600160006101000a81548173ffffffffffffffffffffffffffffffffffffffff021916908373ffffffffffffffffffffffffffffffffffffffff1602179055506200008c33848484620000cc60201b60201c565b6200009f336000620003b760201b60201c565b620000b23360036200075260201b60201c565b620000c33362000aed60201b60201c565b50505062001411565b83600073ffffffffffffffffffffffffffffffffffffffff16600260008373ffffffffffffffffffffffffffffffffffffffff1673ffffffffffffffffffffffffffffffffffffffff16815260200190815260200160002060000160009054906101000a900473ffffffffffffffffffffffffffffffffffffffff1673ffffffffffffffffffffffffffffffffffffffff1614620001a1576040517f08c379a00000000000000000000000000000000000000000000000000000000081526004016200019890620010f9565b60405180910390fd5b6000604051806080016040528060001515815260200160001515815260200160001515815260200160011515815250905060006040518060c001604052808873ffffffffffffffffffffffffffffffffffffffff16815260200187815260200186815260200185815260200160001515815260200183815250905080600260008973ffffffffffffffffffffffffffffffffffffffff1673ffffffffffffffffffffffffffffffffffffffff16815260200190815260200160002060008201518160000160006101000a81548173ffffffffffffffffffffffffffffffffffffffff021916908373ffffffffffffffffffffffffffffffffffffffff1602179055506020820151816001019080519060200190620002c192919062000d92565b506040820151816002019080519060200190620002e092919062000d92565b506060820151816003019080519060200190620002ff92919062000d92565b5060808201518160040160006101000a81548160ff02191690831515021790555060a08201518160050160008201518160000160006101000a81548160ff02191690831515021790555060208201518160000160016101000a81548160ff02191690831515021790555060408201518160000160026101000a81548160ff02191690831515021790555060608201518160000160036101000a81548160ff021916908315150217905550505090505050505050505050565b600160009054906101000a900473ffffffffffffffffffffffffffffffffffffffff1673ffffffffffffffffffffffffffffffffffffffff163373ffffffffffffffffffffffffffffffffffffffff1614806200048f57503073ffffffffffffffffffffffffffffffffffffffff1663297027d5336040518263ffffffff1660e01b81526004016200044a919062001160565b602060405180830381865afa15801562000468573d6000803e3d6000fd5b505050506040513d601f19601f820116820180604052508101906200048e9190620011ba565b5b620004d1576040517f08c379a0000000000000000000000000000000000000000000000000000000008152600401620004c89062001262565b60405180910390fd5b81600073ffffffffffffffffffffffffffffffffffffffff16600260008373ffffffffffffffffffffffffffffffffffffffff1673ffffffffffffffffffffffffffffffffffffffff16815260200190815260200160002060000160009054906101000a900473ffffffffffffffffffffffffffffffffffffffff1673ffffffffffffffffffffffffffffffffffffffff161415620005a7576040517f08c379a00000000000000000000000000000000000000000000000000000000081526004016200059e90620012d4565b60405180910390fd5b6000600260008573ffffffffffffffffffffffffffffffffffffffff1673ffffffffffffffffffffffffffffffffffffffff1681526020019081526020016000209050600081600501905060006003811115620006095762000608620012f6565b5b8460038111156200061f576200061e620012f6565b5b1415620006495760018160000160006101000a81548160ff0219169083151502179055506200074b565b6001600381111562000660576200065f620012f6565b5b846003811115620006765762000675620012f6565b5b1415620006a05760018160000160016101000a81548160ff0219169083151502179055506200074a565b60026003811115620006b757620006b6620012f6565b5b846003811115620006cd57620006cc620012f6565b5b1415620006f75760018160000160026101000a81548160ff02191690831515021790555062000749565b6003808111156200070d576200070c620012f6565b5b846003811115620007235762000722620012f6565b5b1415620007485760018160000160036101000a81548160ff0219169083151502179055505b5b5b5b5050505050565b600160009054906101000a900473ffffffffffffffffffffffffffffffffffffffff1673ffffffffffffffffffffffffffffffffffffffff163373ffffffffffffffffffffffffffffffffffffffff1614806200082a57503073ffffffffffffffffffffffffffffffffffffffff1663297027d5336040518263ffffffff1660e01b8152600401620007e5919062001160565b602060405180830381865afa15801562000803573d6000803e3d6000fd5b505050506040513d601f19601f82011682018060405250810190620008299190620011ba565b5b6200086c576040517f08c379a0000000000000000000000000000000000000000000000000000000008152600401620008639062001262565b60405180910390fd5b81600073ffffffffffffffffffffffffffffffffffffffff16600260008373ffffffffffffffffffffffffffffffffffffffff1673ffffffffffffffffffffffffffffffffffffffff16815260200190815260200160002060000160009054906101000a900473ffffffffffffffffffffffffffffffffffffffff1673ffffffffffffffffffffffffffffffffffffffff16141562000942576040517f08c379a00000000000000000000000000000000000000000000000000000000081526004016200093990620012d4565b60405180910390fd5b6000600260008573ffffffffffffffffffffffffffffffffffffffff1673ffffffffffffffffffffffffffffffffffffffff1681526020019081526020016000209050600081600501905060006003811115620009a457620009a3620012f6565b5b846003811115620009ba57620009b9620012f6565b5b1415620009e45760008160000160006101000a81548160ff02191690831515021790555062000ae6565b60016003811115620009fb57620009fa620012f6565b5b84600381111562000a115762000a10620012f6565b5b141562000a3b5760008160000160016101000a81548160ff02191690831515021790555062000ae5565b6002600381111562000a525762000a51620012f6565b5b84600381111562000a685762000a67620012f6565b5b141562000a925760008160000160026101000a81548160ff02191690831515021790555062000ae4565b60038081111562000aa85762000aa7620012f6565b5b84600381111562000abe5762000abd620012f6565b5b141562000ae35760008160000160036101000a81548160ff0219169083151502179055505b5b5b5b5050505050565b80600073ffffffffffffffffffffffffffffffffffffffff16600260008373ffffffffffffffffffffffffffffffffffffffff1673ffffffffffffffffffffffffffffffffffffffff16815260200190815260200160002060000160009054906101000a900473ffffffffffffffffffffffffffffffffffffffff1673ffffffffffffffffffffffffffffffffffffffff16141562000bc3576040517f08c379a000000000000000000000000000000000000000000000000000000000815260040162000bba90620012d4565b60405180910390fd5b600360008373ffffffffffffffffffffffffffffffffffffffff1673ffffffffffffffffffffffffffffffffffffffff16815260200190815260200160002060009054906101000a900460ff1662000d8e576000600260008473ffffffffffffffffffffffffffffffffffffffff1673ffffffffffffffffffffffffffffffffffffffff168152602001908152602001600020905060018160040160006101000a81548160ff0219169083151502179055506000816005016040518060800160405290816000820160009054906101000a900460ff161515151581526020016000820160019054906101000a900460ff161515151581526020016000820160029054906101000a900460ff161515151581526020016000820160039054906101000a900460ff161515151581525050905080600001518062000d06575080602001515b8062000d13575080604001515b1562000d8b576001600360008673ffffffffffffffffffffffffffffffffffffffff1673ffffffffffffffffffffffffffffffffffffffff16815260200190815260200160002060006101000a81548160ff02191690831515021790555060008081548092919062000d85906200135e565b91905055505b50505b5050565b82805462000da090620013db565b90600052602060002090601f01602090048101928262000dc4576000855562000e10565b82601f1062000ddf57805160ff191683800117855562000e10565b8280016001018555821562000e10579182015b8281111562000e0f57825182559160200191906001019062000df2565b5b50905062000e1f919062000e23565b5090565b5b8082111562000e3e57600081600090555060010162000e24565b5090565b6000604051905090565b600080fd5b600080fd5b600080fd5b600080fd5b6000601f19601f8301169050919050565b7f4e487b7100000000000000000000000000000000000000000000000000000000600052604160045260246000fd5b62000eab8262000e60565b810181811067ffffffffffffffff8211171562000ecd5762000ecc62000e71565b5b80604052505050565b600062000ee262000e42565b905062000ef0828262000ea0565b919050565b600067ffffffffffffffff82111562000f135762000f1262000e71565b5b62000f1e8262000e60565b9050602081019050919050565b60005b8381101562000f4b57808201518184015260208101905062000f2e565b8381111562000f5b576000848401525b50505050565b600062000f7862000f728462000ef5565b62000ed6565b90508281526020810184848401111562000f975762000f9662000e5b565b5b62000fa484828562000f2b565b509392505050565b600082601f83011262000fc45762000fc362000e56565b5b815162000fd684826020860162000f61565b91505092915050565b60008060006060848603121562000ffb5762000ffa62000e4c565b5b600084015167ffffffffffffffff8111156200101c576200101b62000e51565b5b6200102a8682870162000fac565b935050602084015167ffffffffffffffff8111156200104e576200104d62000e51565b5b6200105c8682870162000fac565b925050604084015167ffffffffffffffff81111562001080576200107f62000e51565b5b6200108e8682870162000fac565b9150509250925092565b600082825260208201905092915050565b7f4163636f756e7420616c72656164792065786973747300000000000000000000600082015250565b6000620010e160168362001098565b9150620010ee82620010a9565b602082019050919050565b600060208201905081810360008301526200111481620010d2565b9050919050565b600073ffffffffffffffffffffffffffffffffffffffff82169050919050565b600062001148826200111b565b9050919050565b6200115a816200113b565b82525050565b60006020820190506200117760008301846200114f565b92915050565b60008115159050919050565b62001194816200117d565b8114620011a057600080fd5b50565b600081519050620011b48162001189565b92915050565b600060208284031215620011d357620011d262000e4c565b5b6000620011e384828501620011a3565b91505092915050565b7f4f6e6c79206f776e65722063616e2063616c6c20746869732066756e6374696f60008201527f6e2e000000000000000000000000000000000000000000000000000000000000602082015250565b60006200124a60228362001098565b91506200125782620011ec565b604082019050919050565b600060208201905081810360008301526200127d816200123b565b9050919050565b7f4163636f756e7420646f65736e27742065786973740000000000000000000000600082015250565b6000620012bc60158362001098565b9150620012c98262001284565b602082019050919050565b60006020820190508181036000830152620012ef81620012ad565b9050919050565b7f4e487b7100000000000000000000000000000000000000000000000000000000600052602160045260246000fd5b7f4e487b7100000000000000000000000000000000000000000000000000000000600052601160045260246000fd5b6000819050919050565b60006200136b8262001354565b91507fffffffffffffffffffffffffffffffffffffffffffffffffffffffffffffffff821415620013a157620013a062001325565b5b600182019050919050565b7f4e487b7100000000000000000000000000000000000000000000000000000000600052602260045260246000fd5b60006002820490506001821680620013f457607f821691505b602082108114156200140b576200140a620013ac565b5b50919050565b613b7780620014216000396000f3fe608060405234801561001057600080fd5b50600436106101165760003560e01c80636f77926b116100a2578063c2b7d94811610071578063c2b7d948146102df578063d3a5059a1461030f578063dee94b4a1461032b578063e8621e5914610347578063fa4d7aae1461037757610116565b80636f77926b146102595780638da5cb5b14610289578063a1aea04a146102a7578063b74866fb146102c357610116565b8063297027d5116100e9578063297027d5146101a357806349587281146101d35780635fb6c6ed146101ef578063630a195b1461020d57806365c937691461022957610116565b806301eb08571461011b578063056909b71461014b57806322faa41f1461017b578063247ae7a314610199575b600080fd5b610135600480360381019061013091906132c4565b6103a7565b604051610142919061330c565b60405180910390f35b610165600480360381019061016091906132c4565b610726565b604051610172919061330c565b60405180910390f35b61018361073a565b6040516101909190613340565b60405180910390f35b6101a1610743565b005b6101bd60048036038101906101b891906132c4565b6111d4565b6040516101ca919061330c565b60405180910390f35b6101ed60048036038101906101e891906132c4565b6111e8565b005b6101f76113e2565b6040516102049190613340565b60405180910390f35b61022760048036038101906102229190613380565b6113e8565b005b610243600480360381019061023e91906132c4565b611758565b604051610250919061330c565b60405180910390f35b610273600480360381019061026e91906132c4565b611ad7565b6040516102809190613564565b60405180910390f35b610291611e55565b60405161029e9190613595565b60405180910390f35b6102c160048036038101906102bc91906132c4565b611e7b565b005b6102dd60048036038101906102d89190613380565b612117565b005b6102f960048036038101906102f491906132c4565b612487565b604051610306919061330c565b60405180910390f35b610329600480360381019061032491906132c4565b612806565b005b610345600480360381019061034091906136e5565b6129ea565b005b610361600480360381019061035c91906132c4565b612ccc565b60405161036e919061330c565b60405180910390f35b610391600480360381019061038c91906132c4565b612ce0565b60405161039e919061330c565b60405180910390f35b600080600260008473ffffffffffffffffffffffffffffffffffffffff1673ffffffffffffffffffffffffffffffffffffffff1681526020019081526020016000206040518060c00160405290816000820160009054906101000a900473ffffffffffffffffffffffffffffffffffffffff1673ffffffffffffffffffffffffffffffffffffffff1673ffffffffffffffffffffffffffffffffffffffff16815260200160018201805461045a906137cf565b80601f0160208091040260200160405190810160405280929190818152602001828054610486906137cf565b80156104d35780601f106104a8576101008083540402835291602001916104d3565b820191906000526020600020905b8154815290600101906020018083116104b657829003601f168201915b505050505081526020016002820180546104ec906137cf565b80601f0160208091040260200160405190810160405280929190818152602001828054610518906137cf565b80156105655780601f1061053a57610100808354040283529160200191610565565b820191906000526020600020905b81548152906001019060200180831161054857829003601f168201915b5050505050815260200160038201805461057e906137cf565b80601f01602080910402602001604051908101604052809291908181526020018280546105aa906137cf565b80156105f75780601f106105cc576101008083540402835291602001916105f7565b820191906000526020600020905b8154815290600101906020018083116105da57829003601f168201915b505050505081526020016004820160009054906101000a900460ff16151515158152602001600582016040518060800160405290816000820160009054906101000a900460ff161515151581526020016000820160019054906101000a900460ff161515151581526020016000820160029054906101000a900460ff161515151581526020016000820160039054906101000a900460ff161515151581525050815250509050600073ffffffffffffffffffffffffffffffffffffffff16816000015173ffffffffffffffffffffffffffffffffffffffff161461071b578060800151801561070b57508060a0015160000151806106fa57508060a00151602001515b8061070a57508060a00151604001515b5b1561071a576001915050610721565b5b60009150505b919050565b6000610733826002612cf4565b9050919050565b60008054905090565b600060405180610140016040528073ab8483f64d9c6d1ecf9b849ae677dd3315835cb273ffffffffffffffffffffffffffffffffffffffff1673ffffffffffffffffffffffffffffffffffffffff168152602001734b20993bc481177ec7e8f571cecae8a9e22c02db73ffffffffffffffffffffffffffffffffffffffff1673ffffffffffffffffffffffffffffffffffffffff1681526020017378731d3ca6b7e34ac0f824c42a7cc18a495cabab73ffffffffffffffffffffffffffffffffffffffff1673ffffffffffffffffffffffffffffffffffffffff16815260200173617f2e2fd72fd9d5503197092ac168c91465e7f273ffffffffffffffffffffffffffffffffffffffff1673ffffffffffffffffffffffffffffffffffffffff1681526020017317f6ad8ef982297579c203069c1dbffe4348c37273ffffffffffffffffffffffffffffffffffffffff1673ffffffffffffffffffffffffffffffffffffffff168152602001735c6b0f7bf3e7ce046039bd8fabdfd3f9f502167873ffffffffffffffffffffffffffffffffffffffff1673ffffffffffffffffffffffffffffffffffffffff1681526020017303c6fced478cbbc9a4fab34ef9f40767739d1ff773ffffffffffffffffffffffffffffffffffffffff1673ffffffffffffffffffffffffffffffffffffffff168152602001731ae0ea34a72d944a8c7603ffb3ec30a6669e454c73ffffffffffffffffffffffffffffffffffffffff1673ffffffffffffffffffffffffffffffffffffffff16815260200173ca35b7d915458ef540ade6068dfe2f44e8fa733c73ffffffffffffffffffffffffffffffffffffffff1673ffffffffffffffffffffffffffffffffffffffff1681526020017314723a09acff6d2a60dcdf7aa4aff308fddc160c73ffffffffffffffffffffffffffffffffffffffff1673ffffffffffffffffffffffffffffffffffffffff16815250905060006040518061014001604052806040518060400160405280600481526020017f5269636b0000000000000000000000000000000000000000000000000000000081525081526020016040518060400160405280600781526020017f56616e657373610000000000000000000000000000000000000000000000000081525081526020016040518060400160405280600481526020017f416c65780000000000000000000000000000000000000000000000000000000081525081526020016040518060400160405280600481526020017f566963690000000000000000000000000000000000000000000000000000000081525081526020016040518060400160405280600281526020017f4c7500000000000000000000000000000000000000000000000000000000000081525081526020016040518060400160405280600481526020017f4a6f686e0000000000000000000000000000000000000000000000000000000081525081526020016040518060400160405280600581526020017f536172616800000000000000000000000000000000000000000000000000000081525081526020016040518060400160405280600881526020017f53616d616e74686100000000000000000000000000000000000000000000000081525081526020016040518060400160405280600581526020017f506574657200000000000000000000000000000000000000000000000000000081525081526020016040518060400160405280600581526020017f4461766964000000000000000000000000000000000000000000000000000000815250815250905060006040518061014001604052806040518060400160405280600581526020017f506174656c00000000000000000000000000000000000000000000000000000081525081526020016040518060400160405280600381526020017f4b696d000000000000000000000000000000000000000000000000000000000081525081526020016040518060400160405280600581526020017f42726f776e00000000000000000000000000000000000000000000000000000081525081526020016040518060400160405280600581526020017f446176697300000000000000000000000000000000000000000000000000000081525081526020016040518060400160405280600881526020017f4d617274696e657a00000000000000000000000000000000000000000000000081525081526020016040518060400160405280600681526020017f57696c736f6e000000000000000000000000000000000000000000000000000081525081526020016040518060400160405280600681526020017f476172636961000000000000000000000000000000000000000000000000000081525081526020016040518060400160405280600581526020017f4a6f6e657300000000000000000000000000000000000000000000000000000081525081526020016040518060400160405280600781526020017f4a61636b736f6e0000000000000000000000000000000000000000000000000081525081526020016040518060400160405280600581526020017f536d697468000000000000000000000000000000000000000000000000000000815250815250905060006040518061014001604052806040518060400160405280601281526020017f5269636b2e506174656c40706f722e636f6d000000000000000000000000000081525081526020016040518060400160405280601381526020017f56616e657373612e4b696d40706f722e636f6d0000000000000000000000000081525081526020016040518060400160405280601281526020017f416c65782e42726f776e40706f722e636f6d000000000000000000000000000081525081526020016040518060400160405280601281526020017f566963692e446176697340706f722e636f6d000000000000000000000000000081525081526020016040518060400160405280601381526020017f4c752e4d617274696e657a40706f722e636f6d0000000000000000000000000081525081526020016040518060400160405280601381526020017f4a6f686e2e57696c736f6e40706f722e636f6d0000000000000000000000000081525081526020016040518060400160405280601481526020017f53617261682e47617263696140706f722e636f6d00000000000000000000000081525081526020016040518060400160405280601681526020017f53616d616e7468612e4a6f6e657340706f722e636f6d0000000000000000000081525081526020016040518060400160405280601581526020017f50657465722e4a61636b736f6e40706f722e636f6d000000000000000000000081525081526020016040518060400160405280601381526020017f44617669642e536d69746840706f722e636f6d00000000000000000000000000815250815250905060005b600a8110156111cd5760008582600a811061114257611141613801565b5b6020020151905061119a818684600a81106111605761115f613801565b5b60200201518685600a811061117857611177613801565b5b60200201518686600a81106111905761118f613801565b5b60200201516129ea565b6111a58160026113e8565b6111b0816003612117565b6111b981611e7b565b5080806111c59061385f565b915050611124565b5050505050565b60006111e1826000612cf4565b9050919050565b80600073ffffffffffffffffffffffffffffffffffffffff16600260008373ffffffffffffffffffffffffffffffffffffffff1673ffffffffffffffffffffffffffffffffffffffff16815260200190815260200160002060000160009054906101000a900473ffffffffffffffffffffffffffffffffffffffff1673ffffffffffffffffffffffffffffffffffffffff1614156112bb576040517f08c379a00000000000000000000000000000000000000000000000000000000081526004016112b290613905565b60405180910390fd5b600360008373ffffffffffffffffffffffffffffffffffffffff1673ffffffffffffffffffffffffffffffffffffffff16815260200190815260200160002060009054906101000a900460ff16156113de576000600260008473ffffffffffffffffffffffffffffffffffffffff1673ffffffffffffffffffffffffffffffffffffffff168152602001908152602001600020905060008160040160006101000a81548160ff0219169083151502179055506000600360008573ffffffffffffffffffffffffffffffffffffffff1673ffffffffffffffffffffffffffffffffffffffff16815260200190815260200160002060006101000a81548160ff0219169083151502179055506000808154809291906113d790613925565b9190505550505b5050565b60005481565b600160009054906101000a900473ffffffffffffffffffffffffffffffffffffffff1673ffffffffffffffffffffffffffffffffffffffff163373ffffffffffffffffffffffffffffffffffffffff1614806114ba57503073ffffffffffffffffffffffffffffffffffffffff1663297027d5336040518263ffffffff1660e01b81526004016114789190613595565b602060405180830381865afa158015611495573d6000803e3d6000fd5b505050506040513d601f19601f820116820180604052508101906114b9919061397b565b5b6114f9576040517f08c379a00000000000000000000000000000000000000000000000000000000081526004016114f090613a1a565b60405180910390fd5b81600073ffffffffffffffffffffffffffffffffffffffff16600260008373ffffffffffffffffffffffffffffffffffffffff1673ffffffffffffffffffffffffffffffffffffffff16815260200190815260200160002060000160009054906101000a900473ffffffffffffffffffffffffffffffffffffffff1673ffffffffffffffffffffffffffffffffffffffff1614156115cc576040517f08c379a00000000000000000000000000000000000000000000000000000000081526004016115c390613905565b60405180910390fd5b6000600260008573ffffffffffffffffffffffffffffffffffffffff1673ffffffffffffffffffffffffffffffffffffffff168152602001908152602001600020905060008160050190506000600381111561162b5761162a613a3a565b5b84600381111561163e5761163d613a3a565b5b14156116665760018160000160006101000a81548160ff021916908315150217905550611751565b6001600381111561167a57611679613a3a565b5b84600381111561168d5761168c613a3a565b5b14156116b55760018160000160016101000a81548160ff021916908315150217905550611750565b600260038111156116c9576116c8613a3a565b5b8460038111156116dc576116db613a3a565b5b14156117045760018160000160026101000a81548160ff02191690831515021790555061174f565b60038081111561171757611716613a3a565b5b84600381111561172a57611729613a3a565b5b141561174e5760018160000160036101000a81548160ff0219169083151502179055505b5b5b5b5050505050565b600080600260008473ffffffffffffffffffffffffffffffffffffffff1673ffffffffffffffffffffffffffffffffffffffff1681526020019081526020016000206040518060c00160405290816000820160009054906101000a900473ffffffffffffffffffffffffffffffffffffffff1673ffffffffffffffffffffffffffffffffffffffff1673ffffffffffffffffffffffffffffffffffffffff16815260200160018201805461180b906137cf565b80601f0160208091040260200160405190810160405280929190818152602001828054611837906137cf565b80156118845780601f1061185957610100808354040283529160200191611884565b820191906000526020600020905b81548152906001019060200180831161186757829003601f168201915b5050505050815260200160028201805461189d906137cf565b80601f01602080910402602001604051908101604052809291908181526020018280546118c9906137cf565b80156119165780601f106118eb57610100808354040283529160200191611916565b820191906000526020600020905b8154815290600101906020018083116118f957829003601f168201915b5050505050815260200160038201805461192f906137cf565b80601f016020809104026020016040519081016040528092919081815260200182805461195b906137cf565b80156119a85780601f1061197d576101008083540402835291602001916119a8565b820191906000526020600020905b81548152906001019060200180831161198b57829003601f168201915b505050505081526020016004820160009054906101000a900460ff16151515158152602001600582016040518060800160405290816000820160009054906101000a900460ff161515151581526020016000820160019054906101000a900460ff161515151581526020016000820160029054906101000a900460ff161515151581526020016000820160039054906101000a900460ff161515151581525050815250509050600073ffffffffffffffffffffffffffffffffffffffff16816000015173ffffffffffffffffffffffffffffffffffffffff1614611acc5780608001518015611abc57508060a001516000015180611aab57508060a00151602001515b80611abb57508060a00151604001515b5b15611acb576001915050611ad2565b5b60009150505b919050565b611adf6130eb565b6000600260008473ffffffffffffffffffffffffffffffffffffffff1673ffffffffffffffffffffffffffffffffffffffff1681526020019081526020016000206040518060c00160405290816000820160009054906101000a900473ffffffffffffffffffffffffffffffffffffffff1673ffffffffffffffffffffffffffffffffffffffff1673ffffffffffffffffffffffffffffffffffffffff168152602001600182018054611b91906137cf565b80601f0160208091040260200160405190810160405280929190818152602001828054611bbd906137cf565b8015611c0a5780601f10611bdf57610100808354040283529160200191611c0a565b820191906000526020600020905b815481529060010190602001808311611bed57829003601f168201915b50505050508152602001600282018054611c23906137cf565b80601f0160208091040260200160405190810160405280929190818152602001828054611c4f906137cf565b8015611c9c5780601f10611c7157610100808354040283529160200191611c9c565b820191906000526020600020905b815481529060010190602001808311611c7f57829003601f168201915b50505050508152602001600382018054611cb5906137cf565b80601f0160208091040260200160405190810160405280929190818152602001828054611ce1906137cf565b8015611d2e5780601f10611d0357610100808354040283529160200191611d2e565b820191906000526020600020905b815481529060010190602001808311611d1157829003601f168201915b505050505081526020016004820160009054906101000a900460ff16151515158152602001600582016040518060800160405290816000820160009054906101000a900460ff161515151581526020016000820160019054906101000a900460ff161515151581526020016000820160029054906101000a900460ff161515151581526020016000820160039054906101000a900460ff161515151581525050815250509050600073ffffffffffffffffffffffffffffffffffffffff16816000015173ffffffffffffffffffffffffffffffffffffffff1614611e155780915050611e50565b6040517f08c379a0000000000000000000000000000000000000000000000000000000008152600401611e4790613ab5565b60405180910390fd5b919050565b600160009054906101000a900473ffffffffffffffffffffffffffffffffffffffff1681565b80600073ffffffffffffffffffffffffffffffffffffffff16600260008373ffffffffffffffffffffffffffffffffffffffff1673ffffffffffffffffffffffffffffffffffffffff16815260200190815260200160002060000160009054906101000a900473ffffffffffffffffffffffffffffffffffffffff1673ffffffffffffffffffffffffffffffffffffffff161415611f4e576040517f08c379a0000000000000000000000000000000000000000000000000000000008152600401611f4590613905565b60405180910390fd5b600360008373ffffffffffffffffffffffffffffffffffffffff1673ffffffffffffffffffffffffffffffffffffffff16815260200190815260200160002060009054906101000a900460ff16612113576000600260008473ffffffffffffffffffffffffffffffffffffffff1673ffffffffffffffffffffffffffffffffffffffff168152602001908152602001600020905060018160040160006101000a81548160ff0219169083151502179055506000816005016040518060800160405290816000820160009054906101000a900460ff161515151581526020016000820160019054906101000a900460ff161515151581526020016000820160029054906101000a900460ff161515151581526020016000820160039054906101000a900460ff161515151581525050905080600001518061208f575080602001515b8061209b575080604001515b15612110576001600360008673ffffffffffffffffffffffffffffffffffffffff1673ffffffffffffffffffffffffffffffffffffffff16815260200190815260200160002060006101000a81548160ff02191690831515021790555060008081548092919061210a9061385f565b91905055505b50505b5050565b600160009054906101000a900473ffffffffffffffffffffffffffffffffffffffff1673ffffffffffffffffffffffffffffffffffffffff163373ffffffffffffffffffffffffffffffffffffffff1614806121e957503073ffffffffffffffffffffffffffffffffffffffff1663297027d5336040518263ffffffff1660e01b81526004016121a79190613595565b602060405180830381865afa1580156121c4573d6000803e3d6000fd5b505050506040513d601f19601f820116820180604052508101906121e8919061397b565b5b612228576040517f08c379a000000000000000000000000000000000000000000000000000000000815260040161221f90613a1a565b60405180910390fd5b81600073ffffffffffffffffffffffffffffffffffffffff16600260008373ffffffffffffffffffffffffffffffffffffffff1673ffffffffffffffffffffffffffffffffffffffff16815260200190815260200160002060000160009054906101000a900473ffffffffffffffffffffffffffffffffffffffff1673ffffffffffffffffffffffffffffffffffffffff1614156122fb576040517f08c379a00000000000000000000000000000000000000000000000000000000081526004016122f290613905565b60405180910390fd5b6000600260008573ffffffffffffffffffffffffffffffffffffffff1673ffffffffffffffffffffffffffffffffffffffff168152602001908152602001600020905060008160050190506000600381111561235a57612359613a3a565b5b84600381111561236d5761236c613a3a565b5b14156123955760008160000160006101000a81548160ff021916908315150217905550612480565b600160038111156123a9576123a8613a3a565b5b8460038111156123bc576123bb613a3a565b5b14156123e45760008160000160016101000a81548160ff02191690831515021790555061247f565b600260038111156123f8576123f7613a3a565b5b84600381111561240b5761240a613a3a565b5b14156124335760008160000160026101000a81548160ff02191690831515021790555061247e565b60038081111561244657612445613a3a565b5b84600381111561245957612458613a3a565b5b141561247d5760008160000160036101000a81548160ff0219169083151502179055505b5b5b5b5050505050565b600080600260008473ffffffffffffffffffffffffffffffffffffffff1673ffffffffffffffffffffffffffffffffffffffff1681526020019081526020016000206040518060c00160405290816000820160009054906101000a900473ffffffffffffffffffffffffffffffffffffffff1673ffffffffffffffffffffffffffffffffffffffff1673ffffffffffffffffffffffffffffffffffffffff16815260200160018201805461253a906137cf565b80601f0160208091040260200160405190810160405280929190818152602001828054612566906137cf565b80156125b35780601f10612588576101008083540402835291602001916125b3565b820191906000526020600020905b81548152906001019060200180831161259657829003601f168201915b505050505081526020016002820180546125cc906137cf565b80601f01602080910402602001604051908101604052809291908181526020018280546125f8906137cf565b80156126455780601f1061261a57610100808354040283529160200191612645565b820191906000526020600020905b81548152906001019060200180831161262857829003601f168201915b5050505050815260200160038201805461265e906137cf565b80601f016020809104026020016040519081016040528092919081815260200182805461268a906137cf565b80156126d75780601f106126ac576101008083540402835291602001916126d7565b820191906000526020600020905b8154815290600101906020018083116126ba57829003601f168201915b505050505081526020016004820160009054906101000a900460ff16151515158152602001600582016040518060800160405290816000820160009054906101000a900460ff161515151581526020016000820160019054906101000a900460ff161515151581526020016000820160029054906101000a900460ff161515151581526020016000820160039054906101000a900460ff161515151581525050815250509050600073ffffffffffffffffffffffffffffffffffffffff16816000015173ffffffffffffffffffffffffffffffffffffffff16146127fb57806080015180156127eb57508060a0015160000151806127da57508060a00151602001515b806127ea57508060a00151604001515b5b156127fa576001915050612801565b5b60009150505b919050565b80600073ffffffffffffffffffffffffffffffffffffffff16600260008373ffffffffffffffffffffffffffffffffffffffff1673ffffffffffffffffffffffffffffffffffffffff16815260200190815260200160002060000160009054906101000a900473ffffffffffffffffffffffffffffffffffffffff1673ffffffffffffffffffffffffffffffffffffffff1614156128d9576040517f08c379a00000000000000000000000000000000000000000000000000000000081526004016128d090613905565b60405180910390fd5b6128e2826111e8565b600260008373ffffffffffffffffffffffffffffffffffffffff1673ffffffffffffffffffffffffffffffffffffffff168152602001908152602001600020600080820160006101000a81549073ffffffffffffffffffffffffffffffffffffffff0219169055600182016000612959919061313f565b600282016000612969919061313f565b600382016000612979919061313f565b6004820160006101000a81549060ff021916905560058201600080820160006101000a81549060ff02191690556000820160016101000a81549060ff02191690556000820160026101000a81549060ff02191690556000820160036101000a81549060ff0219169055505050505050565b83600073ffffffffffffffffffffffffffffffffffffffff16600260008373ffffffffffffffffffffffffffffffffffffffff1673ffffffffffffffffffffffffffffffffffffffff16815260200190815260200160002060000160009054906101000a900473ffffffffffffffffffffffffffffffffffffffff1673ffffffffffffffffffffffffffffffffffffffff1614612abc576040517f08c379a0000000000000000000000000000000000000000000000000000000008152600401612ab390613b21565b60405180910390fd5b6000604051806080016040528060001515815260200160001515815260200160001515815260200160011515815250905060006040518060c001604052808873ffffffffffffffffffffffffffffffffffffffff16815260200187815260200186815260200185815260200160001515815260200183815250905080600260008973ffffffffffffffffffffffffffffffffffffffff1673ffffffffffffffffffffffffffffffffffffffff16815260200190815260200160002060008201518160000160006101000a81548173ffffffffffffffffffffffffffffffffffffffff021916908373ffffffffffffffffffffffffffffffffffffffff1602179055506020820151816001019080519060200190612bda92919061317f565b506040820151816002019080519060200190612bf792919061317f565b506060820151816003019080519060200190612c1492919061317f565b5060808201518160040160006101000a81548160ff02191690831515021790555060a08201518160050160008201518160000160006101000a81548160ff02191690831515021790555060208201518160000160016101000a81548160ff02191690831515021790555060408201518160000160026101000a81548160ff02191690831515021790555060608201518160000160036101000a81548160ff021916908315150217905550505090505050505050505050565b6000612cd9826003612cf4565b9050919050565b6000612ced826001612cf4565b9050919050565b600080600260008573ffffffffffffffffffffffffffffffffffffffff1673ffffffffffffffffffffffffffffffffffffffff1681526020019081526020016000206040518060c00160405290816000820160009054906101000a900473ffffffffffffffffffffffffffffffffffffffff1673ffffffffffffffffffffffffffffffffffffffff1673ffffffffffffffffffffffffffffffffffffffff168152602001600182018054612da7906137cf565b80601f0160208091040260200160405190810160405280929190818152602001828054612dd3906137cf565b8015612e205780601f10612df557610100808354040283529160200191612e20565b820191906000526020600020905b815481529060010190602001808311612e0357829003601f168201915b50505050508152602001600282018054612e39906137cf565b80601f0160208091040260200160405190810160405280929190818152602001828054612e65906137cf565b8015612eb25780601f10612e8757610100808354040283529160200191612eb2565b820191906000526020600020905b815481529060010190602001808311612e9557829003601f168201915b50505050508152602001600382018054612ecb906137cf565b80601f0160208091040260200160405190810160405280929190818152602001828054612ef7906137cf565b8015612f445780601f10612f1957610100808354040283529160200191612f44565b820191906000526020600020905b815481529060010190602001808311612f2757829003601f168201915b505050505081526020016004820160009054906101000a900460ff16151515158152602001600582016040518060800160405290816000820160009054906101000a900460ff161515151581526020016000820160019054906101000a900460ff161515151581526020016000820160029054906101000a900460ff161515151581526020016000820160039054906101000a900460ff16151515158152505081525050905060008160a0015190506000600381111561300757613006613a3a565b5b84600381111561301a57613019613a3a565b5b141561302e578060000151925050506130e5565b6001600381111561304257613041613a3a565b5b84600381111561305557613054613a3a565b5b1415613069578060200151925050506130e5565b6002600381111561307d5761307c613a3a565b5b8460038111156130905761308f613a3a565b5b14156130a4578060400151925050506130e5565b6003808111156130b7576130b6613a3a565b5b8460038111156130ca576130c9613a3a565b5b14156130de578060600151925050506130e5565b6000925050505b92915050565b6040518060c00160405280600073ffffffffffffffffffffffffffffffffffffffff168152602001606081526020016060815260200160608152602001600015158152602001613139613205565b81525090565b50805461314b906137cf565b6000825580601f1061315d575061317c565b601f01602090049060005260206000209081019061317b9190613235565b5b50565b82805461318b906137cf565b90600052602060002090601f0160209004810192826131ad57600085556131f4565b82601f106131c657805160ff19168380011785556131f4565b828001600101855582156131f4579182015b828111156131f35782518255916020019190600101906131d8565b5b5090506132019190613235565b5090565b60405180608001604052806000151581526020016000151581526020016000151581526020016000151581525090565b5b8082111561324e576000816000905550600101613236565b5090565b6000604051905090565b600080fd5b600080fd5b600073ffffffffffffffffffffffffffffffffffffffff82169050919050565b600061329182613266565b9050919050565b6132a181613286565b81146132ac57600080fd5b50565b6000813590506132be81613298565b92915050565b6000602082840312156132da576132d961325c565b5b60006132e8848285016132af565b91505092915050565b60008115159050919050565b613306816132f1565b82525050565b600060208201905061332160008301846132fd565b92915050565b6000819050919050565b61333a81613327565b82525050565b60006020820190506133556000830184613331565b92915050565b6004811061336857600080fd5b50565b60008135905061337a8161335b565b92915050565b600080604083850312156133975761339661325c565b5b60006133a5858286016132af565b92505060206133b68582860161336b565b9150509250929050565b6133c981613286565b82525050565b600081519050919050565b600082825260208201905092915050565b60005b838110156134095780820151818401526020810190506133ee565b83811115613418576000848401525b50505050565b6000601f19601f8301169050919050565b600061343a826133cf565b61344481856133da565b93506134548185602086016133eb565b61345d8161341e565b840191505092915050565b613471816132f1565b82525050565b60808201600082015161348d6000850182613468565b5060208201516134a06020850182613468565b5060408201516134b36040850182613468565b5060608201516134c66060850182613468565b50505050565b6000610120830160008301516134e560008601826133c0565b50602083015184820360208601526134fd828261342f565b91505060408301518482036040860152613517828261342f565b91505060608301518482036060860152613531828261342f565b91505060808301516135466080860182613468565b5060a083015161355960a0860182613477565b508091505092915050565b6000602082019050818103600083015261357e81846134cc565b905092915050565b61358f81613286565b82525050565b60006020820190506135aa6000830184613586565b92915050565b600080fd5b600080fd5b7f4e487b7100000000000000000000000000000000000000000000000000000000600052604160045260246000fd5b6135f28261341e565b810181811067ffffffffffffffff82111715613611576136106135ba565b5b80604052505050565b6000613624613252565b905061363082826135e9565b919050565b600067ffffffffffffffff8211156136505761364f6135ba565b5b6136598261341e565b9050602081019050919050565b82818337600083830152505050565b600061368861368384613635565b61361a565b9050828152602081018484840111156136a4576136a36135b5565b5b6136af848285613666565b509392505050565b600082601f8301126136cc576136cb6135b0565b5b81356136dc848260208601613675565b91505092915050565b600080600080608085870312156136ff576136fe61325c565b5b600061370d878288016132af565b945050602085013567ffffffffffffffff81111561372e5761372d613261565b5b61373a878288016136b7565b935050604085013567ffffffffffffffff81111561375b5761375a613261565b5b613767878288016136b7565b925050606085013567ffffffffffffffff81111561378857613787613261565b5b613794878288016136b7565b91505092959194509250565b7f4e487b7100000000000000000000000000000000000000000000000000000000600052602260045260246000fd5b600060028204905060018216806137e757607f821691505b602082108114156137fb576137fa6137a0565b5b50919050565b7f4e487b7100000000000000000000000000000000000000000000000000000000600052603260045260246000fd5b7f4e487b7100000000000000000000000000000000000000000000000000000000600052601160045260246000fd5b600061386a82613327565b91507fffffffffffffffffffffffffffffffffffffffffffffffffffffffffffffffff82141561389d5761389c613830565b5b600182019050919050565b600082825260208201905092915050565b7f4163636f756e7420646f65736e27742065786973740000000000000000000000600082015250565b60006138ef6015836138a8565b91506138fa826138b9565b602082019050919050565b6000602082019050818103600083015261391e816138e2565b9050919050565b600061393082613327565b9150600082141561394457613943613830565b5b600182039050919050565b613958816132f1565b811461396357600080fd5b50565b6000815190506139758161394f565b92915050565b6000602082840312156139915761399061325c565b5b600061399f84828501613966565b91505092915050565b7f4f6e6c79206f776e65722063616e2063616c6c20746869732066756e6374696f60008201527f6e2e000000000000000000000000000000000000000000000000000000000000602082015250565b6000613a046022836138a8565b9150613a0f826139a8565b604082019050919050565b60006020820190508181036000830152613a33816139f7565b9050919050565b7f4e487b7100000000000000000000000000000000000000000000000000000000600052602160045260246000fd5b7f55736572206e6f7420666f756e64210000000000000000000000000000000000600082015250565b6000613a9f600f836138a8565b9150613aaa82613a69565b602082019050919050565b60006020820190508181036000830152613ace81613a92565b9050919050565b7f4163636f756e7420616c72656164792065786973747300000000000000000000600082015250565b6000613b0b6016836138a8565b9150613b1682613ad5565b602082019050919050565b60006020820190508181036000830152613b3a81613afe565b905091905056fea2646970667358221220fd056ec8305b359bd17b3531ca5d461ad3ad97d3b8b0cf2431ffebfe3009f03f64736f6c634300080c0033",
					"opcodes": "PUSH1 0x80 PUSH1 0x40 MSTORE CALLVALUE DUP1 ISZERO PUSH3 0x11 JUMPI PUSH1 0x0 DUP1 REVERT JUMPDEST POP PUSH1 0x40 MLOAD PUSH3 0x4F98 CODESIZE SUB DUP1 PUSH3 0x4F98 DUP4 CODECOPY DUP2 DUP2 ADD PUSH1 0x40 MSTORE DUP2 ADD SWAP1 PUSH3 0x37 SWAP2 SWAP1 PUSH3 0xFDF JUMP JUMPDEST CALLER PUSH1 0x1 PUSH1 0x0 PUSH2 0x100 EXP DUP2 SLOAD DUP2 PUSH20 0xFFFFFFFFFFFFFFFFFFFFFFFFFFFFFFFFFFFFFFFF MUL NOT AND SWAP1 DUP4 PUSH20 0xFFFFFFFFFFFFFFFFFFFFFFFFFFFFFFFFFFFFFFFF AND MUL OR SWAP1 SSTORE POP PUSH3 0x8C CALLER DUP5 DUP5 DUP5 PUSH3 0xCC PUSH1 0x20 SHL PUSH1 0x20 SHR JUMP JUMPDEST PUSH3 0x9F CALLER PUSH1 0x0 PUSH3 0x3B7 PUSH1 0x20 SHL PUSH1 0x20 SHR JUMP JUMPDEST PUSH3 0xB2 CALLER PUSH1 0x3 PUSH3 0x752 PUSH1 0x20 SHL PUSH1 0x20 SHR JUMP JUMPDEST PUSH3 0xC3 CALLER PUSH3 0xAED PUSH1 0x20 SHL PUSH1 0x20 SHR JUMP JUMPDEST POP POP POP PUSH3 0x1411 JUMP JUMPDEST DUP4 PUSH1 0x0 PUSH20 0xFFFFFFFFFFFFFFFFFFFFFFFFFFFFFFFFFFFFFFFF AND PUSH1 0x2 PUSH1 0x0 DUP4 PUSH20 0xFFFFFFFFFFFFFFFFFFFFFFFFFFFFFFFFFFFFFFFF AND PUSH20 0xFFFFFFFFFFFFFFFFFFFFFFFFFFFFFFFFFFFFFFFF AND DUP2 MSTORE PUSH1 0x20 ADD SWAP1 DUP2 MSTORE PUSH1 0x20 ADD PUSH1 0x0 KECCAK256 PUSH1 0x0 ADD PUSH1 0x0 SWAP1 SLOAD SWAP1 PUSH2 0x100 EXP SWAP1 DIV PUSH20 0xFFFFFFFFFFFFFFFFFFFFFFFFFFFFFFFFFFFFFFFF AND PUSH20 0xFFFFFFFFFFFFFFFFFFFFFFFFFFFFFFFFFFFFFFFF AND EQ PUSH3 0x1A1 JUMPI PUSH1 0x40 MLOAD PUSH32 0x8C379A000000000000000000000000000000000000000000000000000000000 DUP2 MSTORE PUSH1 0x4 ADD PUSH3 0x198 SWAP1 PUSH3 0x10F9 JUMP JUMPDEST PUSH1 0x40 MLOAD DUP1 SWAP2 SUB SWAP1 REVERT JUMPDEST PUSH1 0x0 PUSH1 0x40 MLOAD DUP1 PUSH1 0x80 ADD PUSH1 0x40 MSTORE DUP1 PUSH1 0x0 ISZERO ISZERO DUP2 MSTORE PUSH1 0x20 ADD PUSH1 0x0 ISZERO ISZERO DUP2 MSTORE PUSH1 0x20 ADD PUSH1 0x0 ISZERO ISZERO DUP2 MSTORE PUSH1 0x20 ADD PUSH1 0x1 ISZERO ISZERO DUP2 MSTORE POP SWAP1 POP PUSH1 0x0 PUSH1 0x40 MLOAD DUP1 PUSH1 0xC0 ADD PUSH1 0x40 MSTORE DUP1 DUP9 PUSH20 0xFFFFFFFFFFFFFFFFFFFFFFFFFFFFFFFFFFFFFFFF AND DUP2 MSTORE PUSH1 0x20 ADD DUP8 DUP2 MSTORE PUSH1 0x20 ADD DUP7 DUP2 MSTORE PUSH1 0x20 ADD DUP6 DUP2 MSTORE PUSH1 0x20 ADD PUSH1 0x0 ISZERO ISZERO DUP2 MSTORE PUSH1 0x20 ADD DUP4 DUP2 MSTORE POP SWAP1 POP DUP1 PUSH1 0x2 PUSH1 0x0 DUP10 PUSH20 0xFFFFFFFFFFFFFFFFFFFFFFFFFFFFFFFFFFFFFFFF AND PUSH20 0xFFFFFFFFFFFFFFFFFFFFFFFFFFFFFFFFFFFFFFFF AND DUP2 MSTORE PUSH1 0x20 ADD SWAP1 DUP2 MSTORE PUSH1 0x20 ADD PUSH1 0x0 KECCAK256 PUSH1 0x0 DUP3 ADD MLOAD DUP2 PUSH1 0x0 ADD PUSH1 0x0 PUSH2 0x100 EXP DUP2 SLOAD DUP2 PUSH20 0xFFFFFFFFFFFFFFFFFFFFFFFFFFFFFFFFFFFFFFFF MUL NOT AND SWAP1 DUP4 PUSH20 0xFFFFFFFFFFFFFFFFFFFFFFFFFFFFFFFFFFFFFFFF AND MUL OR SWAP1 SSTORE POP PUSH1 0x20 DUP3 ADD MLOAD DUP2 PUSH1 0x1 ADD SWAP1 DUP1 MLOAD SWAP1 PUSH1 0x20 ADD SWAP1 PUSH3 0x2C1 SWAP3 SWAP2 SWAP1 PUSH3 0xD92 JUMP JUMPDEST POP PUSH1 0x40 DUP3 ADD MLOAD DUP2 PUSH1 0x2 ADD SWAP1 DUP1 MLOAD SWAP1 PUSH1 0x20 ADD SWAP1 PUSH3 0x2E0 SWAP3 SWAP2 SWAP1 PUSH3 0xD92 JUMP JUMPDEST POP PUSH1 0x60 DUP3 ADD MLOAD DUP2 PUSH1 0x3 ADD SWAP1 DUP1 MLOAD SWAP1 PUSH1 0x20 ADD SWAP1 PUSH3 0x2FF SWAP3 SWAP2 SWAP1 PUSH3 0xD92 JUMP JUMPDEST POP PUSH1 0x80 DUP3 ADD MLOAD DUP2 PUSH1 0x4 ADD PUSH1 0x0 PUSH2 0x100 EXP DUP2 SLOAD DUP2 PUSH1 0xFF MUL NOT AND SWAP1 DUP4 ISZERO ISZERO MUL OR SWAP1 SSTORE POP PUSH1 0xA0 DUP3 ADD MLOAD DUP2 PUSH1 0x5 ADD PUSH1 0x0 DUP3 ADD MLOAD DUP2 PUSH1 0x0 ADD PUSH1 0x0 PUSH2 0x100 EXP DUP2 SLOAD DUP2 PUSH1 0xFF MUL NOT AND SWAP1 DUP4 ISZERO ISZERO MUL OR SWAP1 SSTORE POP PUSH1 0x20 DUP3 ADD MLOAD DUP2 PUSH1 0x0 ADD PUSH1 0x1 PUSH2 0x100 EXP DUP2 SLOAD DUP2 PUSH1 0xFF MUL NOT AND SWAP1 DUP4 ISZERO ISZERO MUL OR SWAP1 SSTORE POP PUSH1 0x40 DUP3 ADD MLOAD DUP2 PUSH1 0x0 ADD PUSH1 0x2 PUSH2 0x100 EXP DUP2 SLOAD DUP2 PUSH1 0xFF MUL NOT AND SWAP1 DUP4 ISZERO ISZERO MUL OR SWAP1 SSTORE POP PUSH1 0x60 DUP3 ADD MLOAD DUP2 PUSH1 0x0 ADD PUSH1 0x3 PUSH2 0x100 EXP DUP2 SLOAD DUP2 PUSH1 0xFF MUL NOT AND SWAP1 DUP4 ISZERO ISZERO MUL OR SWAP1 SSTORE POP POP POP SWAP1 POP POP POP POP POP POP POP POP POP JUMP JUMPDEST PUSH1 0x1 PUSH1 0x0 SWAP1 SLOAD SWAP1 PUSH2 0x100 EXP SWAP1 DIV PUSH20 0xFFFFFFFFFFFFFFFFFFFFFFFFFFFFFFFFFFFFFFFF AND PUSH20 0xFFFFFFFFFFFFFFFFFFFFFFFFFFFFFFFFFFFFFFFF AND CALLER PUSH20 0xFFFFFFFFFFFFFFFFFFFFFFFFFFFFFFFFFFFFFFFF AND EQ DUP1 PUSH3 0x48F JUMPI POP ADDRESS PUSH20 0xFFFFFFFFFFFFFFFFFFFFFFFFFFFFFFFFFFFFFFFF AND PUSH4 0x297027D5 CALLER PUSH1 0x40 MLOAD DUP3 PUSH4 0xFFFFFFFF AND PUSH1 0xE0 SHL DUP2 MSTORE PUSH1 0x4 ADD PUSH3 0x44A SWAP2 SWAP1 PUSH3 0x1160 JUMP JUMPDEST PUSH1 0x20 PUSH1 0x40 MLOAD DUP1 DUP4 SUB DUP2 DUP7 GAS STATICCALL ISZERO DUP1 ISZERO PUSH3 0x468 JUMPI RETURNDATASIZE PUSH1 0x0 DUP1 RETURNDATACOPY RETURNDATASIZE PUSH1 0x0 REVERT JUMPDEST POP POP POP POP PUSH1 0x40 MLOAD RETURNDATASIZE PUSH1 0x1F NOT PUSH1 0x1F DUP3 ADD AND DUP3 ADD DUP1 PUSH1 0x40 MSTORE POP DUP2 ADD SWAP1 PUSH3 0x48E SWAP2 SWAP1 PUSH3 0x11BA JUMP JUMPDEST JUMPDEST PUSH3 0x4D1 JUMPI PUSH1 0x40 MLOAD PUSH32 0x8C379A000000000000000000000000000000000000000000000000000000000 DUP2 MSTORE PUSH1 0x4 ADD PUSH3 0x4C8 SWAP1 PUSH3 0x1262 JUMP JUMPDEST PUSH1 0x40 MLOAD DUP1 SWAP2 SUB SWAP1 REVERT JUMPDEST DUP2 PUSH1 0x0 PUSH20 0xFFFFFFFFFFFFFFFFFFFFFFFFFFFFFFFFFFFFFFFF AND PUSH1 0x2 PUSH1 0x0 DUP4 PUSH20 0xFFFFFFFFFFFFFFFFFFFFFFFFFFFFFFFFFFFFFFFF AND PUSH20 0xFFFFFFFFFFFFFFFFFFFFFFFFFFFFFFFFFFFFFFFF AND DUP2 MSTORE PUSH1 0x20 ADD SWAP1 DUP2 MSTORE PUSH1 0x20 ADD PUSH1 0x0 KECCAK256 PUSH1 0x0 ADD PUSH1 0x0 SWAP1 SLOAD SWAP1 PUSH2 0x100 EXP SWAP1 DIV PUSH20 0xFFFFFFFFFFFFFFFFFFFFFFFFFFFFFFFFFFFFFFFF AND PUSH20 0xFFFFFFFFFFFFFFFFFFFFFFFFFFFFFFFFFFFFFFFF AND EQ ISZERO PUSH3 0x5A7 JUMPI PUSH1 0x40 MLOAD PUSH32 0x8C379A000000000000000000000000000000000000000000000000000000000 DUP2 MSTORE PUSH1 0x4 ADD PUSH3 0x59E SWAP1 PUSH3 0x12D4 JUMP JUMPDEST PUSH1 0x40 MLOAD DUP1 SWAP2 SUB SWAP1 REVERT JUMPDEST PUSH1 0x0 PUSH1 0x2 PUSH1 0x0 DUP6 PUSH20 0xFFFFFFFFFFFFFFFFFFFFFFFFFFFFFFFFFFFFFFFF AND PUSH20 0xFFFFFFFFFFFFFFFFFFFFFFFFFFFFFFFFFFFFFFFF AND DUP2 MSTORE PUSH1 0x20 ADD SWAP1 DUP2 MSTORE PUSH1 0x20 ADD PUSH1 0x0 KECCAK256 SWAP1 POP PUSH1 0x0 DUP2 PUSH1 0x5 ADD SWAP1 POP PUSH1 0x0 PUSH1 0x3 DUP2 GT ISZERO PUSH3 0x609 JUMPI PUSH3 0x608 PUSH3 0x12F6 JUMP JUMPDEST JUMPDEST DUP5 PUSH1 0x3 DUP2 GT ISZERO PUSH3 0x61F JUMPI PUSH3 0x61E PUSH3 0x12F6 JUMP JUMPDEST JUMPDEST EQ ISZERO PUSH3 0x649 JUMPI PUSH1 0x1 DUP2 PUSH1 0x0 ADD PUSH1 0x0 PUSH2 0x100 EXP DUP2 SLOAD DUP2 PUSH1 0xFF MUL NOT AND SWAP1 DUP4 ISZERO ISZERO MUL OR SWAP1 SSTORE POP PUSH3 0x74B JUMP JUMPDEST PUSH1 0x1 PUSH1 0x3 DUP2 GT ISZERO PUSH3 0x660 JUMPI PUSH3 0x65F PUSH3 0x12F6 JUMP JUMPDEST JUMPDEST DUP5 PUSH1 0x3 DUP2 GT ISZERO PUSH3 0x676 JUMPI PUSH3 0x675 PUSH3 0x12F6 JUMP JUMPDEST JUMPDEST EQ ISZERO PUSH3 0x6A0 JUMPI PUSH1 0x1 DUP2 PUSH1 0x0 ADD PUSH1 0x1 PUSH2 0x100 EXP DUP2 SLOAD DUP2 PUSH1 0xFF MUL NOT AND SWAP1 DUP4 ISZERO ISZERO MUL OR SWAP1 SSTORE POP PUSH3 0x74A JUMP JUMPDEST PUSH1 0x2 PUSH1 0x3 DUP2 GT ISZERO PUSH3 0x6B7 JUMPI PUSH3 0x6B6 PUSH3 0x12F6 JUMP JUMPDEST JUMPDEST DUP5 PUSH1 0x3 DUP2 GT ISZERO PUSH3 0x6CD JUMPI PUSH3 0x6CC PUSH3 0x12F6 JUMP JUMPDEST JUMPDEST EQ ISZERO PUSH3 0x6F7 JUMPI PUSH1 0x1 DUP2 PUSH1 0x0 ADD PUSH1 0x2 PUSH2 0x100 EXP DUP2 SLOAD DUP2 PUSH1 0xFF MUL NOT AND SWAP1 DUP4 ISZERO ISZERO MUL OR SWAP1 SSTORE POP PUSH3 0x749 JUMP JUMPDEST PUSH1 0x3 DUP1 DUP2 GT ISZERO PUSH3 0x70D JUMPI PUSH3 0x70C PUSH3 0x12F6 JUMP JUMPDEST JUMPDEST DUP5 PUSH1 0x3 DUP2 GT ISZERO PUSH3 0x723 JUMPI PUSH3 0x722 PUSH3 0x12F6 JUMP JUMPDEST JUMPDEST EQ ISZERO PUSH3 0x748 JUMPI PUSH1 0x1 DUP2 PUSH1 0x0 ADD PUSH1 0x3 PUSH2 0x100 EXP DUP2 SLOAD DUP2 PUSH1 0xFF MUL NOT AND SWAP1 DUP4 ISZERO ISZERO MUL OR SWAP1 SSTORE POP JUMPDEST JUMPDEST JUMPDEST JUMPDEST POP POP POP POP POP JUMP JUMPDEST PUSH1 0x1 PUSH1 0x0 SWAP1 SLOAD SWAP1 PUSH2 0x100 EXP SWAP1 DIV PUSH20 0xFFFFFFFFFFFFFFFFFFFFFFFFFFFFFFFFFFFFFFFF AND PUSH20 0xFFFFFFFFFFFFFFFFFFFFFFFFFFFFFFFFFFFFFFFF AND CALLER PUSH20 0xFFFFFFFFFFFFFFFFFFFFFFFFFFFFFFFFFFFFFFFF AND EQ DUP1 PUSH3 0x82A JUMPI POP ADDRESS PUSH20 0xFFFFFFFFFFFFFFFFFFFFFFFFFFFFFFFFFFFFFFFF AND PUSH4 0x297027D5 CALLER PUSH1 0x40 MLOAD DUP3 PUSH4 0xFFFFFFFF AND PUSH1 0xE0 SHL DUP2 MSTORE PUSH1 0x4 ADD PUSH3 0x7E5 SWAP2 SWAP1 PUSH3 0x1160 JUMP JUMPDEST PUSH1 0x20 PUSH1 0x40 MLOAD DUP1 DUP4 SUB DUP2 DUP7 GAS STATICCALL ISZERO DUP1 ISZERO PUSH3 0x803 JUMPI RETURNDATASIZE PUSH1 0x0 DUP1 RETURNDATACOPY RETURNDATASIZE PUSH1 0x0 REVERT JUMPDEST POP POP POP POP PUSH1 0x40 MLOAD RETURNDATASIZE PUSH1 0x1F NOT PUSH1 0x1F DUP3 ADD AND DUP3 ADD DUP1 PUSH1 0x40 MSTORE POP DUP2 ADD SWAP1 PUSH3 0x829 SWAP2 SWAP1 PUSH3 0x11BA JUMP JUMPDEST JUMPDEST PUSH3 0x86C JUMPI PUSH1 0x40 MLOAD PUSH32 0x8C379A000000000000000000000000000000000000000000000000000000000 DUP2 MSTORE PUSH1 0x4 ADD PUSH3 0x863 SWAP1 PUSH3 0x1262 JUMP JUMPDEST PUSH1 0x40 MLOAD DUP1 SWAP2 SUB SWAP1 REVERT JUMPDEST DUP2 PUSH1 0x0 PUSH20 0xFFFFFFFFFFFFFFFFFFFFFFFFFFFFFFFFFFFFFFFF AND PUSH1 0x2 PUSH1 0x0 DUP4 PUSH20 0xFFFFFFFFFFFFFFFFFFFFFFFFFFFFFFFFFFFFFFFF AND PUSH20 0xFFFFFFFFFFFFFFFFFFFFFFFFFFFFFFFFFFFFFFFF AND DUP2 MSTORE PUSH1 0x20 ADD SWAP1 DUP2 MSTORE PUSH1 0x20 ADD PUSH1 0x0 KECCAK256 PUSH1 0x0 ADD PUSH1 0x0 SWAP1 SLOAD SWAP1 PUSH2 0x100 EXP SWAP1 DIV PUSH20 0xFFFFFFFFFFFFFFFFFFFFFFFFFFFFFFFFFFFFFFFF AND PUSH20 0xFFFFFFFFFFFFFFFFFFFFFFFFFFFFFFFFFFFFFFFF AND EQ ISZERO PUSH3 0x942 JUMPI PUSH1 0x40 MLOAD PUSH32 0x8C379A000000000000000000000000000000000000000000000000000000000 DUP2 MSTORE PUSH1 0x4 ADD PUSH3 0x939 SWAP1 PUSH3 0x12D4 JUMP JUMPDEST PUSH1 0x40 MLOAD DUP1 SWAP2 SUB SWAP1 REVERT JUMPDEST PUSH1 0x0 PUSH1 0x2 PUSH1 0x0 DUP6 PUSH20 0xFFFFFFFFFFFFFFFFFFFFFFFFFFFFFFFFFFFFFFFF AND PUSH20 0xFFFFFFFFFFFFFFFFFFFFFFFFFFFFFFFFFFFFFFFF AND DUP2 MSTORE PUSH1 0x20 ADD SWAP1 DUP2 MSTORE PUSH1 0x20 ADD PUSH1 0x0 KECCAK256 SWAP1 POP PUSH1 0x0 DUP2 PUSH1 0x5 ADD SWAP1 POP PUSH1 0x0 PUSH1 0x3 DUP2 GT ISZERO PUSH3 0x9A4 JUMPI PUSH3 0x9A3 PUSH3 0x12F6 JUMP JUMPDEST JUMPDEST DUP5 PUSH1 0x3 DUP2 GT ISZERO PUSH3 0x9BA JUMPI PUSH3 0x9B9 PUSH3 0x12F6 JUMP JUMPDEST JUMPDEST EQ ISZERO PUSH3 0x9E4 JUMPI PUSH1 0x0 DUP2 PUSH1 0x0 ADD PUSH1 0x0 PUSH2 0x100 EXP DUP2 SLOAD DUP2 PUSH1 0xFF MUL NOT AND SWAP1 DUP4 ISZERO ISZERO MUL OR SWAP1 SSTORE POP PUSH3 0xAE6 JUMP JUMPDEST PUSH1 0x1 PUSH1 0x3 DUP2 GT ISZERO PUSH3 0x9FB JUMPI PUSH3 0x9FA PUSH3 0x12F6 JUMP JUMPDEST JUMPDEST DUP5 PUSH1 0x3 DUP2 GT ISZERO PUSH3 0xA11 JUMPI PUSH3 0xA10 PUSH3 0x12F6 JUMP JUMPDEST JUMPDEST EQ ISZERO PUSH3 0xA3B JUMPI PUSH1 0x0 DUP2 PUSH1 0x0 ADD PUSH1 0x1 PUSH2 0x100 EXP DUP2 SLOAD DUP2 PUSH1 0xFF MUL NOT AND SWAP1 DUP4 ISZERO ISZERO MUL OR SWAP1 SSTORE POP PUSH3 0xAE5 JUMP JUMPDEST PUSH1 0x2 PUSH1 0x3 DUP2 GT ISZERO PUSH3 0xA52 JUMPI PUSH3 0xA51 PUSH3 0x12F6 JUMP JUMPDEST JUMPDEST DUP5 PUSH1 0x3 DUP2 GT ISZERO PUSH3 0xA68 JUMPI PUSH3 0xA67 PUSH3 0x12F6 JUMP JUMPDEST JUMPDEST EQ ISZERO PUSH3 0xA92 JUMPI PUSH1 0x0 DUP2 PUSH1 0x0 ADD PUSH1 0x2 PUSH2 0x100 EXP DUP2 SLOAD DUP2 PUSH1 0xFF MUL NOT AND SWAP1 DUP4 ISZERO ISZERO MUL OR SWAP1 SSTORE POP PUSH3 0xAE4 JUMP JUMPDEST PUSH1 0x3 DUP1 DUP2 GT ISZERO PUSH3 0xAA8 JUMPI PUSH3 0xAA7 PUSH3 0x12F6 JUMP JUMPDEST JUMPDEST DUP5 PUSH1 0x3 DUP2 GT ISZERO PUSH3 0xABE JUMPI PUSH3 0xABD PUSH3 0x12F6 JUMP JUMPDEST JUMPDEST EQ ISZERO PUSH3 0xAE3 JUMPI PUSH1 0x0 DUP2 PUSH1 0x0 ADD PUSH1 0x3 PUSH2 0x100 EXP DUP2 SLOAD DUP2 PUSH1 0xFF MUL NOT AND SWAP1 DUP4 ISZERO ISZERO MUL OR SWAP1 SSTORE POP JUMPDEST JUMPDEST JUMPDEST JUMPDEST POP POP POP POP POP JUMP JUMPDEST DUP1 PUSH1 0x0 PUSH20 0xFFFFFFFFFFFFFFFFFFFFFFFFFFFFFFFFFFFFFFFF AND PUSH1 0x2 PUSH1 0x0 DUP4 PUSH20 0xFFFFFFFFFFFFFFFFFFFFFFFFFFFFFFFFFFFFFFFF AND PUSH20 0xFFFFFFFFFFFFFFFFFFFFFFFFFFFFFFFFFFFFFFFF AND DUP2 MSTORE PUSH1 0x20 ADD SWAP1 DUP2 MSTORE PUSH1 0x20 ADD PUSH1 0x0 KECCAK256 PUSH1 0x0 ADD PUSH1 0x0 SWAP1 SLOAD SWAP1 PUSH2 0x100 EXP SWAP1 DIV PUSH20 0xFFFFFFFFFFFFFFFFFFFFFFFFFFFFFFFFFFFFFFFF AND PUSH20 0xFFFFFFFFFFFFFFFFFFFFFFFFFFFFFFFFFFFFFFFF AND EQ ISZERO PUSH3 0xBC3 JUMPI PUSH1 0x40 MLOAD PUSH32 0x8C379A000000000000000000000000000000000000000000000000000000000 DUP2 MSTORE PUSH1 0x4 ADD PUSH3 0xBBA SWAP1 PUSH3 0x12D4 JUMP JUMPDEST PUSH1 0x40 MLOAD DUP1 SWAP2 SUB SWAP1 REVERT JUMPDEST PUSH1 0x3 PUSH1 0x0 DUP4 PUSH20 0xFFFFFFFFFFFFFFFFFFFFFFFFFFFFFFFFFFFFFFFF AND PUSH20 0xFFFFFFFFFFFFFFFFFFFFFFFFFFFFFFFFFFFFFFFF AND DUP2 MSTORE PUSH1 0x20 ADD SWAP1 DUP2 MSTORE PUSH1 0x20 ADD PUSH1 0x0 KECCAK256 PUSH1 0x0 SWAP1 SLOAD SWAP1 PUSH2 0x100 EXP SWAP1 DIV PUSH1 0xFF AND PUSH3 0xD8E JUMPI PUSH1 0x0 PUSH1 0x2 PUSH1 0x0 DUP5 PUSH20 0xFFFFFFFFFFFFFFFFFFFFFFFFFFFFFFFFFFFFFFFF AND PUSH20 0xFFFFFFFFFFFFFFFFFFFFFFFFFFFFFFFFFFFFFFFF AND DUP2 MSTORE PUSH1 0x20 ADD SWAP1 DUP2 MSTORE PUSH1 0x20 ADD PUSH1 0x0 KECCAK256 SWAP1 POP PUSH1 0x1 DUP2 PUSH1 0x4 ADD PUSH1 0x0 PUSH2 0x100 EXP DUP2 SLOAD DUP2 PUSH1 0xFF MUL NOT AND SWAP1 DUP4 ISZERO ISZERO MUL OR SWAP1 SSTORE POP PUSH1 0x0 DUP2 PUSH1 0x5 ADD PUSH1 0x40 MLOAD DUP1 PUSH1 0x80 ADD PUSH1 0x40 MSTORE SWAP1 DUP2 PUSH1 0x0 DUP3 ADD PUSH1 0x0 SWAP1 SLOAD SWAP1 PUSH2 0x100 EXP SWAP1 DIV PUSH1 0xFF AND ISZERO ISZERO ISZERO ISZERO DUP2 MSTORE PUSH1 0x20 ADD PUSH1 0x0 DUP3 ADD PUSH1 0x1 SWAP1 SLOAD SWAP1 PUSH2 0x100 EXP SWAP1 DIV PUSH1 0xFF AND ISZERO ISZERO ISZERO ISZERO DUP2 MSTORE PUSH1 0x20 ADD PUSH1 0x0 DUP3 ADD PUSH1 0x2 SWAP1 SLOAD SWAP1 PUSH2 0x100 EXP SWAP1 DIV PUSH1 0xFF AND ISZERO ISZERO ISZERO ISZERO DUP2 MSTORE PUSH1 0x20 ADD PUSH1 0x0 DUP3 ADD PUSH1 0x3 SWAP1 SLOAD SWAP1 PUSH2 0x100 EXP SWAP1 DIV PUSH1 0xFF AND ISZERO ISZERO ISZERO ISZERO DUP2 MSTORE POP POP SWAP1 POP DUP1 PUSH1 0x0 ADD MLOAD DUP1 PUSH3 0xD06 JUMPI POP DUP1 PUSH1 0x20 ADD MLOAD JUMPDEST DUP1 PUSH3 0xD13 JUMPI POP DUP1 PUSH1 0x40 ADD MLOAD JUMPDEST ISZERO PUSH3 0xD8B JUMPI PUSH1 0x1 PUSH1 0x3 PUSH1 0x0 DUP7 PUSH20 0xFFFFFFFFFFFFFFFFFFFFFFFFFFFFFFFFFFFFFFFF AND PUSH20 0xFFFFFFFFFFFFFFFFFFFFFFFFFFFFFFFFFFFFFFFF AND DUP2 MSTORE PUSH1 0x20 ADD SWAP1 DUP2 MSTORE PUSH1 0x20 ADD PUSH1 0x0 KECCAK256 PUSH1 0x0 PUSH2 0x100 EXP DUP2 SLOAD DUP2 PUSH1 0xFF MUL NOT AND SWAP1 DUP4 ISZERO ISZERO MUL OR SWAP1 SSTORE POP PUSH1 0x0 DUP1 DUP2 SLOAD DUP1 SWAP3 SWAP2 SWAP1 PUSH3 0xD85 SWAP1 PUSH3 0x135E JUMP JUMPDEST SWAP2 SWAP1 POP SSTORE POP JUMPDEST POP POP JUMPDEST POP POP JUMP JUMPDEST DUP3 DUP1 SLOAD PUSH3 0xDA0 SWAP1 PUSH3 0x13DB JUMP JUMPDEST SWAP1 PUSH1 0x0 MSTORE PUSH1 0x20 PUSH1 0x0 KECCAK256 SWAP1 PUSH1 0x1F ADD PUSH1 0x20 SWAP1 DIV DUP2 ADD SWAP3 DUP3 PUSH3 0xDC4 JUMPI PUSH1 0x0 DUP6 SSTORE PUSH3 0xE10 JUMP JUMPDEST DUP3 PUSH1 0x1F LT PUSH3 0xDDF JUMPI DUP1 MLOAD PUSH1 0xFF NOT AND DUP4 DUP1 ADD OR DUP6 SSTORE PUSH3 0xE10 JUMP JUMPDEST DUP3 DUP1 ADD PUSH1 0x1 ADD DUP6 SSTORE DUP3 ISZERO PUSH3 0xE10 JUMPI SWAP2 DUP3 ADD JUMPDEST DUP3 DUP2 GT ISZERO PUSH3 0xE0F JUMPI DUP3 MLOAD DUP3 SSTORE SWAP2 PUSH1 0x20 ADD SWAP2 SWAP1 PUSH1 0x1 ADD SWAP1 PUSH3 0xDF2 JUMP JUMPDEST JUMPDEST POP SWAP1 POP PUSH3 0xE1F SWAP2 SWAP1 PUSH3 0xE23 JUMP JUMPDEST POP SWAP1 JUMP JUMPDEST JUMPDEST DUP1 DUP3 GT ISZERO PUSH3 0xE3E JUMPI PUSH1 0x0 DUP2 PUSH1 0x0 SWAP1 SSTORE POP PUSH1 0x1 ADD PUSH3 0xE24 JUMP JUMPDEST POP SWAP1 JUMP JUMPDEST PUSH1 0x0 PUSH1 0x40 MLOAD SWAP1 POP SWAP1 JUMP JUMPDEST PUSH1 0x0 DUP1 REVERT JUMPDEST PUSH1 0x0 DUP1 REVERT JUMPDEST PUSH1 0x0 DUP1 REVERT JUMPDEST PUSH1 0x0 DUP1 REVERT JUMPDEST PUSH1 0x0 PUSH1 0x1F NOT PUSH1 0x1F DUP4 ADD AND SWAP1 POP SWAP2 SWAP1 POP JUMP JUMPDEST PUSH32 0x4E487B7100000000000000000000000000000000000000000000000000000000 PUSH1 0x0 MSTORE PUSH1 0x41 PUSH1 0x4 MSTORE PUSH1 0x24 PUSH1 0x0 REVERT JUMPDEST PUSH3 0xEAB DUP3 PUSH3 0xE60 JUMP JUMPDEST DUP2 ADD DUP2 DUP2 LT PUSH8 0xFFFFFFFFFFFFFFFF DUP3 GT OR ISZERO PUSH3 0xECD JUMPI PUSH3 0xECC PUSH3 0xE71 JUMP JUMPDEST JUMPDEST DUP1 PUSH1 0x40 MSTORE POP POP POP JUMP JUMPDEST PUSH1 0x0 PUSH3 0xEE2 PUSH3 0xE42 JUMP JUMPDEST SWAP1 POP PUSH3 0xEF0 DUP3 DUP3 PUSH3 0xEA0 JUMP JUMPDEST SWAP2 SWAP1 POP JUMP JUMPDEST PUSH1 0x0 PUSH8 0xFFFFFFFFFFFFFFFF DUP3 GT ISZERO PUSH3 0xF13 JUMPI PUSH3 0xF12 PUSH3 0xE71 JUMP JUMPDEST JUMPDEST PUSH3 0xF1E DUP3 PUSH3 0xE60 JUMP JUMPDEST SWAP1 POP PUSH1 0x20 DUP2 ADD SWAP1 POP SWAP2 SWAP1 POP JUMP JUMPDEST PUSH1 0x0 JUMPDEST DUP4 DUP2 LT ISZERO PUSH3 0xF4B JUMPI DUP1 DUP3 ADD MLOAD DUP2 DUP5 ADD MSTORE PUSH1 0x20 DUP2 ADD SWAP1 POP PUSH3 0xF2E JUMP JUMPDEST DUP4 DUP2 GT ISZERO PUSH3 0xF5B JUMPI PUSH1 0x0 DUP5 DUP5 ADD MSTORE JUMPDEST POP POP POP POP JUMP JUMPDEST PUSH1 0x0 PUSH3 0xF78 PUSH3 0xF72 DUP5 PUSH3 0xEF5 JUMP JUMPDEST PUSH3 0xED6 JUMP JUMPDEST SWAP1 POP DUP3 DUP2 MSTORE PUSH1 0x20 DUP2 ADD DUP5 DUP5 DUP5 ADD GT ISZERO PUSH3 0xF97 JUMPI PUSH3 0xF96 PUSH3 0xE5B JUMP JUMPDEST JUMPDEST PUSH3 0xFA4 DUP5 DUP3 DUP6 PUSH3 0xF2B JUMP JUMPDEST POP SWAP4 SWAP3 POP POP POP JUMP JUMPDEST PUSH1 0x0 DUP3 PUSH1 0x1F DUP4 ADD SLT PUSH3 0xFC4 JUMPI PUSH3 0xFC3 PUSH3 0xE56 JUMP JUMPDEST JUMPDEST DUP2 MLOAD PUSH3 0xFD6 DUP5 DUP3 PUSH1 0x20 DUP7 ADD PUSH3 0xF61 JUMP JUMPDEST SWAP2 POP POP SWAP3 SWAP2 POP POP JUMP JUMPDEST PUSH1 0x0 DUP1 PUSH1 0x0 PUSH1 0x60 DUP5 DUP7 SUB SLT ISZERO PUSH3 0xFFB JUMPI PUSH3 0xFFA PUSH3 0xE4C JUMP JUMPDEST JUMPDEST PUSH1 0x0 DUP5 ADD MLOAD PUSH8 0xFFFFFFFFFFFFFFFF DUP2 GT ISZERO PUSH3 0x101C JUMPI PUSH3 0x101B PUSH3 0xE51 JUMP JUMPDEST JUMPDEST PUSH3 0x102A DUP7 DUP3 DUP8 ADD PUSH3 0xFAC JUMP JUMPDEST SWAP4 POP POP PUSH1 0x20 DUP5 ADD MLOAD PUSH8 0xFFFFFFFFFFFFFFFF DUP2 GT ISZERO PUSH3 0x104E JUMPI PUSH3 0x104D PUSH3 0xE51 JUMP JUMPDEST JUMPDEST PUSH3 0x105C DUP7 DUP3 DUP8 ADD PUSH3 0xFAC JUMP JUMPDEST SWAP3 POP POP PUSH1 0x40 DUP5 ADD MLOAD PUSH8 0xFFFFFFFFFFFFFFFF DUP2 GT ISZERO PUSH3 0x1080 JUMPI PUSH3 0x107F PUSH3 0xE51 JUMP JUMPDEST JUMPDEST PUSH3 0x108E DUP7 DUP3 DUP8 ADD PUSH3 0xFAC JUMP JUMPDEST SWAP2 POP POP SWAP3 POP SWAP3 POP SWAP3 JUMP JUMPDEST PUSH1 0x0 DUP3 DUP3 MSTORE PUSH1 0x20 DUP3 ADD SWAP1 POP SWAP3 SWAP2 POP POP JUMP JUMPDEST PUSH32 0x4163636F756E7420616C72656164792065786973747300000000000000000000 PUSH1 0x0 DUP3 ADD MSTORE POP JUMP JUMPDEST PUSH1 0x0 PUSH3 0x10E1 PUSH1 0x16 DUP4 PUSH3 0x1098 JUMP JUMPDEST SWAP2 POP PUSH3 0x10EE DUP3 PUSH3 0x10A9 JUMP JUMPDEST PUSH1 0x20 DUP3 ADD SWAP1 POP SWAP2 SWAP1 POP JUMP JUMPDEST PUSH1 0x0 PUSH1 0x20 DUP3 ADD SWAP1 POP DUP2 DUP2 SUB PUSH1 0x0 DUP4 ADD MSTORE PUSH3 0x1114 DUP2 PUSH3 0x10D2 JUMP JUMPDEST SWAP1 POP SWAP2 SWAP1 POP JUMP JUMPDEST PUSH1 0x0 PUSH20 0xFFFFFFFFFFFFFFFFFFFFFFFFFFFFFFFFFFFFFFFF DUP3 AND SWAP1 POP SWAP2 SWAP1 POP JUMP JUMPDEST PUSH1 0x0 PUSH3 0x1148 DUP3 PUSH3 0x111B JUMP JUMPDEST SWAP1 POP SWAP2 SWAP1 POP JUMP JUMPDEST PUSH3 0x115A DUP2 PUSH3 0x113B JUMP JUMPDEST DUP3 MSTORE POP POP JUMP JUMPDEST PUSH1 0x0 PUSH1 0x20 DUP3 ADD SWAP1 POP PUSH3 0x1177 PUSH1 0x0 DUP4 ADD DUP5 PUSH3 0x114F JUMP JUMPDEST SWAP3 SWAP2 POP POP JUMP JUMPDEST PUSH1 0x0 DUP2 ISZERO ISZERO SWAP1 POP SWAP2 SWAP1 POP JUMP JUMPDEST PUSH3 0x1194 DUP2 PUSH3 0x117D JUMP JUMPDEST DUP2 EQ PUSH3 0x11A0 JUMPI PUSH1 0x0 DUP1 REVERT JUMPDEST POP JUMP JUMPDEST PUSH1 0x0 DUP2 MLOAD SWAP1 POP PUSH3 0x11B4 DUP2 PUSH3 0x1189 JUMP JUMPDEST SWAP3 SWAP2 POP POP JUMP JUMPDEST PUSH1 0x0 PUSH1 0x20 DUP3 DUP5 SUB SLT ISZERO PUSH3 0x11D3 JUMPI PUSH3 0x11D2 PUSH3 0xE4C JUMP JUMPDEST JUMPDEST PUSH1 0x0 PUSH3 0x11E3 DUP5 DUP3 DUP6 ADD PUSH3 0x11A3 JUMP JUMPDEST SWAP2 POP POP SWAP3 SWAP2 POP POP JUMP JUMPDEST PUSH32 0x4F6E6C79206F776E65722063616E2063616C6C20746869732066756E6374696F PUSH1 0x0 DUP3 ADD MSTORE PUSH32 0x6E2E000000000000000000000000000000000000000000000000000000000000 PUSH1 0x20 DUP3 ADD MSTORE POP JUMP JUMPDEST PUSH1 0x0 PUSH3 0x124A PUSH1 0x22 DUP4 PUSH3 0x1098 JUMP JUMPDEST SWAP2 POP PUSH3 0x1257 DUP3 PUSH3 0x11EC JUMP JUMPDEST PUSH1 0x40 DUP3 ADD SWAP1 POP SWAP2 SWAP1 POP JUMP JUMPDEST PUSH1 0x0 PUSH1 0x20 DUP3 ADD SWAP1 POP DUP2 DUP2 SUB PUSH1 0x0 DUP4 ADD MSTORE PUSH3 0x127D DUP2 PUSH3 0x123B JUMP JUMPDEST SWAP1 POP SWAP2 SWAP1 POP JUMP JUMPDEST PUSH32 0x4163636F756E7420646F65736E27742065786973740000000000000000000000 PUSH1 0x0 DUP3 ADD MSTORE POP JUMP JUMPDEST PUSH1 0x0 PUSH3 0x12BC PUSH1 0x15 DUP4 PUSH3 0x1098 JUMP JUMPDEST SWAP2 POP PUSH3 0x12C9 DUP3 PUSH3 0x1284 JUMP JUMPDEST PUSH1 0x20 DUP3 ADD SWAP1 POP SWAP2 SWAP1 POP JUMP JUMPDEST PUSH1 0x0 PUSH1 0x20 DUP3 ADD SWAP1 POP DUP2 DUP2 SUB PUSH1 0x0 DUP4 ADD MSTORE PUSH3 0x12EF DUP2 PUSH3 0x12AD JUMP JUMPDEST SWAP1 POP SWAP2 SWAP1 POP JUMP JUMPDEST PUSH32 0x4E487B7100000000000000000000000000000000000000000000000000000000 PUSH1 0x0 MSTORE PUSH1 0x21 PUSH1 0x4 MSTORE PUSH1 0x24 PUSH1 0x0 REVERT JUMPDEST PUSH32 0x4E487B7100000000000000000000000000000000000000000000000000000000 PUSH1 0x0 MSTORE PUSH1 0x11 PUSH1 0x4 MSTORE PUSH1 0x24 PUSH1 0x0 REVERT JUMPDEST PUSH1 0x0 DUP2 SWAP1 POP SWAP2 SWAP1 POP JUMP JUMPDEST PUSH1 0x0 PUSH3 0x136B DUP3 PUSH3 0x1354 JUMP JUMPDEST SWAP2 POP PUSH32 0xFFFFFFFFFFFFFFFFFFFFFFFFFFFFFFFFFFFFFFFFFFFFFFFFFFFFFFFFFFFFFFFF DUP3 EQ ISZERO PUSH3 0x13A1 JUMPI PUSH3 0x13A0 PUSH3 0x1325 JUMP JUMPDEST JUMPDEST PUSH1 0x1 DUP3 ADD SWAP1 POP SWAP2 SWAP1 POP JUMP JUMPDEST PUSH32 0x4E487B7100000000000000000000000000000000000000000000000000000000 PUSH1 0x0 MSTORE PUSH1 0x22 PUSH1 0x4 MSTORE PUSH1 0x24 PUSH1 0x0 REVERT JUMPDEST PUSH1 0x0 PUSH1 0x2 DUP3 DIV SWAP1 POP PUSH1 0x1 DUP3 AND DUP1 PUSH3 0x13F4 JUMPI PUSH1 0x7F DUP3 AND SWAP2 POP JUMPDEST PUSH1 0x20 DUP3 LT DUP2 EQ ISZERO PUSH3 0x140B JUMPI PUSH3 0x140A PUSH3 0x13AC JUMP JUMPDEST JUMPDEST POP SWAP2 SWAP1 POP JUMP JUMPDEST PUSH2 0x3B77 DUP1 PUSH3 0x1421 PUSH1 0x0 CODECOPY PUSH1 0x0 RETURN INVALID PUSH1 0x80 PUSH1 0x40 MSTORE CALLVALUE DUP1 ISZERO PUSH2 0x10 JUMPI PUSH1 0x0 DUP1 REVERT JUMPDEST POP PUSH1 0x4 CALLDATASIZE LT PUSH2 0x116 JUMPI PUSH1 0x0 CALLDATALOAD PUSH1 0xE0 SHR DUP1 PUSH4 0x6F77926B GT PUSH2 0xA2 JUMPI DUP1 PUSH4 0xC2B7D948 GT PUSH2 0x71 JUMPI DUP1 PUSH4 0xC2B7D948 EQ PUSH2 0x2DF JUMPI DUP1 PUSH4 0xD3A5059A EQ PUSH2 0x30F JUMPI DUP1 PUSH4 0xDEE94B4A EQ PUSH2 0x32B JUMPI DUP1 PUSH4 0xE8621E59 EQ PUSH2 0x347 JUMPI DUP1 PUSH4 0xFA4D7AAE EQ PUSH2 0x377 JUMPI PUSH2 0x116 JUMP JUMPDEST DUP1 PUSH4 0x6F77926B EQ PUSH2 0x259 JUMPI DUP1 PUSH4 0x8DA5CB5B EQ PUSH2 0x289 JUMPI DUP1 PUSH4 0xA1AEA04A EQ PUSH2 0x2A7 JUMPI DUP1 PUSH4 0xB74866FB EQ PUSH2 0x2C3 JUMPI PUSH2 0x116 JUMP JUMPDEST DUP1 PUSH4 0x297027D5 GT PUSH2 0xE9 JUMPI DUP1 PUSH4 0x297027D5 EQ PUSH2 0x1A3 JUMPI DUP1 PUSH4 0x49587281 EQ PUSH2 0x1D3 JUMPI DUP1 PUSH4 0x5FB6C6ED EQ PUSH2 0x1EF JUMPI DUP1 PUSH4 0x630A195B EQ PUSH2 0x20D JUMPI DUP1 PUSH4 0x65C93769 EQ PUSH2 0x229 JUMPI PUSH2 0x116 JUMP JUMPDEST DUP1 PUSH4 0x1EB0857 EQ PUSH2 0x11B JUMPI DUP1 PUSH4 0x56909B7 EQ PUSH2 0x14B JUMPI DUP1 PUSH4 0x22FAA41F EQ PUSH2 0x17B JUMPI DUP1 PUSH4 0x247AE7A3 EQ PUSH2 0x199 JUMPI JUMPDEST PUSH1 0x0 DUP1 REVERT JUMPDEST PUSH2 0x135 PUSH1 0x4 DUP1 CALLDATASIZE SUB DUP2 ADD SWAP1 PUSH2 0x130 SWAP2 SWAP1 PUSH2 0x32C4 JUMP JUMPDEST PUSH2 0x3A7 JUMP JUMPDEST PUSH1 0x40 MLOAD PUSH2 0x142 SWAP2 SWAP1 PUSH2 0x330C JUMP JUMPDEST PUSH1 0x40 MLOAD DUP1 SWAP2 SUB SWAP1 RETURN JUMPDEST PUSH2 0x165 PUSH1 0x4 DUP1 CALLDATASIZE SUB DUP2 ADD SWAP1 PUSH2 0x160 SWAP2 SWAP1 PUSH2 0x32C4 JUMP JUMPDEST PUSH2 0x726 JUMP JUMPDEST PUSH1 0x40 MLOAD PUSH2 0x172 SWAP2 SWAP1 PUSH2 0x330C JUMP JUMPDEST PUSH1 0x40 MLOAD DUP1 SWAP2 SUB SWAP1 RETURN JUMPDEST PUSH2 0x183 PUSH2 0x73A JUMP JUMPDEST PUSH1 0x40 MLOAD PUSH2 0x190 SWAP2 SWAP1 PUSH2 0x3340 JUMP JUMPDEST PUSH1 0x40 MLOAD DUP1 SWAP2 SUB SWAP1 RETURN JUMPDEST PUSH2 0x1A1 PUSH2 0x743 JUMP JUMPDEST STOP JUMPDEST PUSH2 0x1BD PUSH1 0x4 DUP1 CALLDATASIZE SUB DUP2 ADD SWAP1 PUSH2 0x1B8 SWAP2 SWAP1 PUSH2 0x32C4 JUMP JUMPDEST PUSH2 0x11D4 JUMP JUMPDEST PUSH1 0x40 MLOAD PUSH2 0x1CA SWAP2 SWAP1 PUSH2 0x330C JUMP JUMPDEST PUSH1 0x40 MLOAD DUP1 SWAP2 SUB SWAP1 RETURN JUMPDEST PUSH2 0x1ED PUSH1 0x4 DUP1 CALLDATASIZE SUB DUP2 ADD SWAP1 PUSH2 0x1E8 SWAP2 SWAP1 PUSH2 0x32C4 JUMP JUMPDEST PUSH2 0x11E8 JUMP JUMPDEST STOP JUMPDEST PUSH2 0x1F7 PUSH2 0x13E2 JUMP JUMPDEST PUSH1 0x40 MLOAD PUSH2 0x204 SWAP2 SWAP1 PUSH2 0x3340 JUMP JUMPDEST PUSH1 0x40 MLOAD DUP1 SWAP2 SUB SWAP1 RETURN JUMPDEST PUSH2 0x227 PUSH1 0x4 DUP1 CALLDATASIZE SUB DUP2 ADD SWAP1 PUSH2 0x222 SWAP2 SWAP1 PUSH2 0x3380 JUMP JUMPDEST PUSH2 0x13E8 JUMP JUMPDEST STOP JUMPDEST PUSH2 0x243 PUSH1 0x4 DUP1 CALLDATASIZE SUB DUP2 ADD SWAP1 PUSH2 0x23E SWAP2 SWAP1 PUSH2 0x32C4 JUMP JUMPDEST PUSH2 0x1758 JUMP JUMPDEST PUSH1 0x40 MLOAD PUSH2 0x250 SWAP2 SWAP1 PUSH2 0x330C JUMP JUMPDEST PUSH1 0x40 MLOAD DUP1 SWAP2 SUB SWAP1 RETURN JUMPDEST PUSH2 0x273 PUSH1 0x4 DUP1 CALLDATASIZE SUB DUP2 ADD SWAP1 PUSH2 0x26E SWAP2 SWAP1 PUSH2 0x32C4 JUMP JUMPDEST PUSH2 0x1AD7 JUMP JUMPDEST PUSH1 0x40 MLOAD PUSH2 0x280 SWAP2 SWAP1 PUSH2 0x3564 JUMP JUMPDEST PUSH1 0x40 MLOAD DUP1 SWAP2 SUB SWAP1 RETURN JUMPDEST PUSH2 0x291 PUSH2 0x1E55 JUMP JUMPDEST PUSH1 0x40 MLOAD PUSH2 0x29E SWAP2 SWAP1 PUSH2 0x3595 JUMP JUMPDEST PUSH1 0x40 MLOAD DUP1 SWAP2 SUB SWAP1 RETURN JUMPDEST PUSH2 0x2C1 PUSH1 0x4 DUP1 CALLDATASIZE SUB DUP2 ADD SWAP1 PUSH2 0x2BC SWAP2 SWAP1 PUSH2 0x32C4 JUMP JUMPDEST PUSH2 0x1E7B JUMP JUMPDEST STOP JUMPDEST PUSH2 0x2DD PUSH1 0x4 DUP1 CALLDATASIZE SUB DUP2 ADD SWAP1 PUSH2 0x2D8 SWAP2 SWAP1 PUSH2 0x3380 JUMP JUMPDEST PUSH2 0x2117 JUMP JUMPDEST STOP JUMPDEST PUSH2 0x2F9 PUSH1 0x4 DUP1 CALLDATASIZE SUB DUP2 ADD SWAP1 PUSH2 0x2F4 SWAP2 SWAP1 PUSH2 0x32C4 JUMP JUMPDEST PUSH2 0x2487 JUMP JUMPDEST PUSH1 0x40 MLOAD PUSH2 0x306 SWAP2 SWAP1 PUSH2 0x330C JUMP JUMPDEST PUSH1 0x40 MLOAD DUP1 SWAP2 SUB SWAP1 RETURN JUMPDEST PUSH2 0x329 PUSH1 0x4 DUP1 CALLDATASIZE SUB DUP2 ADD SWAP1 PUSH2 0x324 SWAP2 SWAP1 PUSH2 0x32C4 JUMP JUMPDEST PUSH2 0x2806 JUMP JUMPDEST STOP JUMPDEST PUSH2 0x345 PUSH1 0x4 DUP1 CALLDATASIZE SUB DUP2 ADD SWAP1 PUSH2 0x340 SWAP2 SWAP1 PUSH2 0x36E5 JUMP JUMPDEST PUSH2 0x29EA JUMP JUMPDEST STOP JUMPDEST PUSH2 0x361 PUSH1 0x4 DUP1 CALLDATASIZE SUB DUP2 ADD SWAP1 PUSH2 0x35C SWAP2 SWAP1 PUSH2 0x32C4 JUMP JUMPDEST PUSH2 0x2CCC JUMP JUMPDEST PUSH1 0x40 MLOAD PUSH2 0x36E SWAP2 SWAP1 PUSH2 0x330C JUMP JUMPDEST PUSH1 0x40 MLOAD DUP1 SWAP2 SUB SWAP1 RETURN JUMPDEST PUSH2 0x391 PUSH1 0x4 DUP1 CALLDATASIZE SUB DUP2 ADD SWAP1 PUSH2 0x38C SWAP2 SWAP1 PUSH2 0x32C4 JUMP JUMPDEST PUSH2 0x2CE0 JUMP JUMPDEST PUSH1 0x40 MLOAD PUSH2 0x39E SWAP2 SWAP1 PUSH2 0x330C JUMP JUMPDEST PUSH1 0x40 MLOAD DUP1 SWAP2 SUB SWAP1 RETURN JUMPDEST PUSH1 0x0 DUP1 PUSH1 0x2 PUSH1 0x0 DUP5 PUSH20 0xFFFFFFFFFFFFFFFFFFFFFFFFFFFFFFFFFFFFFFFF AND PUSH20 0xFFFFFFFFFFFFFFFFFFFFFFFFFFFFFFFFFFFFFFFF AND DUP2 MSTORE PUSH1 0x20 ADD SWAP1 DUP2 MSTORE PUSH1 0x20 ADD PUSH1 0x0 KECCAK256 PUSH1 0x40 MLOAD DUP1 PUSH1 0xC0 ADD PUSH1 0x40 MSTORE SWAP1 DUP2 PUSH1 0x0 DUP3 ADD PUSH1 0x0 SWAP1 SLOAD SWAP1 PUSH2 0x100 EXP SWAP1 DIV PUSH20 0xFFFFFFFFFFFFFFFFFFFFFFFFFFFFFFFFFFFFFFFF AND PUSH20 0xFFFFFFFFFFFFFFFFFFFFFFFFFFFFFFFFFFFFFFFF AND PUSH20 0xFFFFFFFFFFFFFFFFFFFFFFFFFFFFFFFFFFFFFFFF AND DUP2 MSTORE PUSH1 0x20 ADD PUSH1 0x1 DUP3 ADD DUP1 SLOAD PUSH2 0x45A SWAP1 PUSH2 0x37CF JUMP JUMPDEST DUP1 PUSH1 0x1F ADD PUSH1 0x20 DUP1 SWAP2 DIV MUL PUSH1 0x20 ADD PUSH1 0x40 MLOAD SWAP1 DUP2 ADD PUSH1 0x40 MSTORE DUP1 SWAP3 SWAP2 SWAP1 DUP2 DUP2 MSTORE PUSH1 0x20 ADD DUP3 DUP1 SLOAD PUSH2 0x486 SWAP1 PUSH2 0x37CF JUMP JUMPDEST DUP1 ISZERO PUSH2 0x4D3 JUMPI DUP1 PUSH1 0x1F LT PUSH2 0x4A8 JUMPI PUSH2 0x100 DUP1 DUP4 SLOAD DIV MUL DUP4 MSTORE SWAP2 PUSH1 0x20 ADD SWAP2 PUSH2 0x4D3 JUMP JUMPDEST DUP3 ADD SWAP2 SWAP1 PUSH1 0x0 MSTORE PUSH1 0x20 PUSH1 0x0 KECCAK256 SWAP1 JUMPDEST DUP2 SLOAD DUP2 MSTORE SWAP1 PUSH1 0x1 ADD SWAP1 PUSH1 0x20 ADD DUP1 DUP4 GT PUSH2 0x4B6 JUMPI DUP3 SWAP1 SUB PUSH1 0x1F AND DUP3 ADD SWAP2 JUMPDEST POP POP POP POP POP DUP2 MSTORE PUSH1 0x20 ADD PUSH1 0x2 DUP3 ADD DUP1 SLOAD PUSH2 0x4EC SWAP1 PUSH2 0x37CF JUMP JUMPDEST DUP1 PUSH1 0x1F ADD PUSH1 0x20 DUP1 SWAP2 DIV MUL PUSH1 0x20 ADD PUSH1 0x40 MLOAD SWAP1 DUP2 ADD PUSH1 0x40 MSTORE DUP1 SWAP3 SWAP2 SWAP1 DUP2 DUP2 MSTORE PUSH1 0x20 ADD DUP3 DUP1 SLOAD PUSH2 0x518 SWAP1 PUSH2 0x37CF JUMP JUMPDEST DUP1 ISZERO PUSH2 0x565 JUMPI DUP1 PUSH1 0x1F LT PUSH2 0x53A JUMPI PUSH2 0x100 DUP1 DUP4 SLOAD DIV MUL DUP4 MSTORE SWAP2 PUSH1 0x20 ADD SWAP2 PUSH2 0x565 JUMP JUMPDEST DUP3 ADD SWAP2 SWAP1 PUSH1 0x0 MSTORE PUSH1 0x20 PUSH1 0x0 KECCAK256 SWAP1 JUMPDEST DUP2 SLOAD DUP2 MSTORE SWAP1 PUSH1 0x1 ADD SWAP1 PUSH1 0x20 ADD DUP1 DUP4 GT PUSH2 0x548 JUMPI DUP3 SWAP1 SUB PUSH1 0x1F AND DUP3 ADD SWAP2 JUMPDEST POP POP POP POP POP DUP2 MSTORE PUSH1 0x20 ADD PUSH1 0x3 DUP3 ADD DUP1 SLOAD PUSH2 0x57E SWAP1 PUSH2 0x37CF JUMP JUMPDEST DUP1 PUSH1 0x1F ADD PUSH1 0x20 DUP1 SWAP2 DIV MUL PUSH1 0x20 ADD PUSH1 0x40 MLOAD SWAP1 DUP2 ADD PUSH1 0x40 MSTORE DUP1 SWAP3 SWAP2 SWAP1 DUP2 DUP2 MSTORE PUSH1 0x20 ADD DUP3 DUP1 SLOAD PUSH2 0x5AA SWAP1 PUSH2 0x37CF JUMP JUMPDEST DUP1 ISZERO PUSH2 0x5F7 JUMPI DUP1 PUSH1 0x1F LT PUSH2 0x5CC JUMPI PUSH2 0x100 DUP1 DUP4 SLOAD DIV MUL DUP4 MSTORE SWAP2 PUSH1 0x20 ADD SWAP2 PUSH2 0x5F7 JUMP JUMPDEST DUP3 ADD SWAP2 SWAP1 PUSH1 0x0 MSTORE PUSH1 0x20 PUSH1 0x0 KECCAK256 SWAP1 JUMPDEST DUP2 SLOAD DUP2 MSTORE SWAP1 PUSH1 0x1 ADD SWAP1 PUSH1 0x20 ADD DUP1 DUP4 GT PUSH2 0x5DA JUMPI DUP3 SWAP1 SUB PUSH1 0x1F AND DUP3 ADD SWAP2 JUMPDEST POP POP POP POP POP DUP2 MSTORE PUSH1 0x20 ADD PUSH1 0x4 DUP3 ADD PUSH1 0x0 SWAP1 SLOAD SWAP1 PUSH2 0x100 EXP SWAP1 DIV PUSH1 0xFF AND ISZERO ISZERO ISZERO ISZERO DUP2 MSTORE PUSH1 0x20 ADD PUSH1 0x5 DUP3 ADD PUSH1 0x40 MLOAD DUP1 PUSH1 0x80 ADD PUSH1 0x40 MSTORE SWAP1 DUP2 PUSH1 0x0 DUP3 ADD PUSH1 0x0 SWAP1 SLOAD SWAP1 PUSH2 0x100 EXP SWAP1 DIV PUSH1 0xFF AND ISZERO ISZERO ISZERO ISZERO DUP2 MSTORE PUSH1 0x20 ADD PUSH1 0x0 DUP3 ADD PUSH1 0x1 SWAP1 SLOAD SWAP1 PUSH2 0x100 EXP SWAP1 DIV PUSH1 0xFF AND ISZERO ISZERO ISZERO ISZERO DUP2 MSTORE PUSH1 0x20 ADD PUSH1 0x0 DUP3 ADD PUSH1 0x2 SWAP1 SLOAD SWAP1 PUSH2 0x100 EXP SWAP1 DIV PUSH1 0xFF AND ISZERO ISZERO ISZERO ISZERO DUP2 MSTORE PUSH1 0x20 ADD PUSH1 0x0 DUP3 ADD PUSH1 0x3 SWAP1 SLOAD SWAP1 PUSH2 0x100 EXP SWAP1 DIV PUSH1 0xFF AND ISZERO ISZERO ISZERO ISZERO DUP2 MSTORE POP POP DUP2 MSTORE POP POP SWAP1 POP PUSH1 0x0 PUSH20 0xFFFFFFFFFFFFFFFFFFFFFFFFFFFFFFFFFFFFFFFF AND DUP2 PUSH1 0x0 ADD MLOAD PUSH20 0xFFFFFFFFFFFFFFFFFFFFFFFFFFFFFFFFFFFFFFFF AND EQ PUSH2 0x71B JUMPI DUP1 PUSH1 0x80 ADD MLOAD DUP1 ISZERO PUSH2 0x70B JUMPI POP DUP1 PUSH1 0xA0 ADD MLOAD PUSH1 0x0 ADD MLOAD DUP1 PUSH2 0x6FA JUMPI POP DUP1 PUSH1 0xA0 ADD MLOAD PUSH1 0x20 ADD MLOAD JUMPDEST DUP1 PUSH2 0x70A JUMPI POP DUP1 PUSH1 0xA0 ADD MLOAD PUSH1 0x40 ADD MLOAD JUMPDEST JUMPDEST ISZERO PUSH2 0x71A JUMPI PUSH1 0x1 SWAP2 POP POP PUSH2 0x721 JUMP JUMPDEST JUMPDEST PUSH1 0x0 SWAP2 POP POP JUMPDEST SWAP2 SWAP1 POP JUMP JUMPDEST PUSH1 0x0 PUSH2 0x733 DUP3 PUSH1 0x2 PUSH2 0x2CF4 JUMP JUMPDEST SWAP1 POP SWAP2 SWAP1 POP JUMP JUMPDEST PUSH1 0x0 DUP1 SLOAD SWAP1 POP SWAP1 JUMP JUMPDEST PUSH1 0x0 PUSH1 0x40 MLOAD DUP1 PUSH2 0x140 ADD PUSH1 0x40 MSTORE DUP1 PUSH20 0xAB8483F64D9C6D1ECF9B849AE677DD3315835CB2 PUSH20 0xFFFFFFFFFFFFFFFFFFFFFFFFFFFFFFFFFFFFFFFF AND PUSH20 0xFFFFFFFFFFFFFFFFFFFFFFFFFFFFFFFFFFFFFFFF AND DUP2 MSTORE PUSH1 0x20 ADD PUSH20 0x4B20993BC481177EC7E8F571CECAE8A9E22C02DB PUSH20 0xFFFFFFFFFFFFFFFFFFFFFFFFFFFFFFFFFFFFFFFF AND PUSH20 0xFFFFFFFFFFFFFFFFFFFFFFFFFFFFFFFFFFFFFFFF AND DUP2 MSTORE PUSH1 0x20 ADD PUSH20 0x78731D3CA6B7E34AC0F824C42A7CC18A495CABAB PUSH20 0xFFFFFFFFFFFFFFFFFFFFFFFFFFFFFFFFFFFFFFFF AND PUSH20 0xFFFFFFFFFFFFFFFFFFFFFFFFFFFFFFFFFFFFFFFF AND DUP2 MSTORE PUSH1 0x20 ADD PUSH20 0x617F2E2FD72FD9D5503197092AC168C91465E7F2 PUSH20 0xFFFFFFFFFFFFFFFFFFFFFFFFFFFFFFFFFFFFFFFF AND PUSH20 0xFFFFFFFFFFFFFFFFFFFFFFFFFFFFFFFFFFFFFFFF AND DUP2 MSTORE PUSH1 0x20 ADD PUSH20 0x17F6AD8EF982297579C203069C1DBFFE4348C372 PUSH20 0xFFFFFFFFFFFFFFFFFFFFFFFFFFFFFFFFFFFFFFFF AND PUSH20 0xFFFFFFFFFFFFFFFFFFFFFFFFFFFFFFFFFFFFFFFF AND DUP2 MSTORE PUSH1 0x20 ADD PUSH20 0x5C6B0F7BF3E7CE046039BD8FABDFD3F9F5021678 PUSH20 0xFFFFFFFFFFFFFFFFFFFFFFFFFFFFFFFFFFFFFFFF AND PUSH20 0xFFFFFFFFFFFFFFFFFFFFFFFFFFFFFFFFFFFFFFFF AND DUP2 MSTORE PUSH1 0x20 ADD PUSH20 0x3C6FCED478CBBC9A4FAB34EF9F40767739D1FF7 PUSH20 0xFFFFFFFFFFFFFFFFFFFFFFFFFFFFFFFFFFFFFFFF AND PUSH20 0xFFFFFFFFFFFFFFFFFFFFFFFFFFFFFFFFFFFFFFFF AND DUP2 MSTORE PUSH1 0x20 ADD PUSH20 0x1AE0EA34A72D944A8C7603FFB3EC30A6669E454C PUSH20 0xFFFFFFFFFFFFFFFFFFFFFFFFFFFFFFFFFFFFFFFF AND PUSH20 0xFFFFFFFFFFFFFFFFFFFFFFFFFFFFFFFFFFFFFFFF AND DUP2 MSTORE PUSH1 0x20 ADD PUSH20 0xCA35B7D915458EF540ADE6068DFE2F44E8FA733C PUSH20 0xFFFFFFFFFFFFFFFFFFFFFFFFFFFFFFFFFFFFFFFF AND PUSH20 0xFFFFFFFFFFFFFFFFFFFFFFFFFFFFFFFFFFFFFFFF AND DUP2 MSTORE PUSH1 0x20 ADD PUSH20 0x14723A09ACFF6D2A60DCDF7AA4AFF308FDDC160C PUSH20 0xFFFFFFFFFFFFFFFFFFFFFFFFFFFFFFFFFFFFFFFF AND PUSH20 0xFFFFFFFFFFFFFFFFFFFFFFFFFFFFFFFFFFFFFFFF AND DUP2 MSTORE POP SWAP1 POP PUSH1 0x0 PUSH1 0x40 MLOAD DUP1 PUSH2 0x140 ADD PUSH1 0x40 MSTORE DUP1 PUSH1 0x40 MLOAD DUP1 PUSH1 0x40 ADD PUSH1 0x40 MSTORE DUP1 PUSH1 0x4 DUP2 MSTORE PUSH1 0x20 ADD PUSH32 0x5269636B00000000000000000000000000000000000000000000000000000000 DUP2 MSTORE POP DUP2 MSTORE PUSH1 0x20 ADD PUSH1 0x40 MLOAD DUP1 PUSH1 0x40 ADD PUSH1 0x40 MSTORE DUP1 PUSH1 0x7 DUP2 MSTORE PUSH1 0x20 ADD PUSH32 0x56616E6573736100000000000000000000000000000000000000000000000000 DUP2 MSTORE POP DUP2 MSTORE PUSH1 0x20 ADD PUSH1 0x40 MLOAD DUP1 PUSH1 0x40 ADD PUSH1 0x40 MSTORE DUP1 PUSH1 0x4 DUP2 MSTORE PUSH1 0x20 ADD PUSH32 0x416C657800000000000000000000000000000000000000000000000000000000 DUP2 MSTORE POP DUP2 MSTORE PUSH1 0x20 ADD PUSH1 0x40 MLOAD DUP1 PUSH1 0x40 ADD PUSH1 0x40 MSTORE DUP1 PUSH1 0x4 DUP2 MSTORE PUSH1 0x20 ADD PUSH32 0x5669636900000000000000000000000000000000000000000000000000000000 DUP2 MSTORE POP DUP2 MSTORE PUSH1 0x20 ADD PUSH1 0x40 MLOAD DUP1 PUSH1 0x40 ADD PUSH1 0x40 MSTORE DUP1 PUSH1 0x2 DUP2 MSTORE PUSH1 0x20 ADD PUSH32 0x4C75000000000000000000000000000000000000000000000000000000000000 DUP2 MSTORE POP DUP2 MSTORE PUSH1 0x20 ADD PUSH1 0x40 MLOAD DUP1 PUSH1 0x40 ADD PUSH1 0x40 MSTORE DUP1 PUSH1 0x4 DUP2 MSTORE PUSH1 0x20 ADD PUSH32 0x4A6F686E00000000000000000000000000000000000000000000000000000000 DUP2 MSTORE POP DUP2 MSTORE PUSH1 0x20 ADD PUSH1 0x40 MLOAD DUP1 PUSH1 0x40 ADD PUSH1 0x40 MSTORE DUP1 PUSH1 0x5 DUP2 MSTORE PUSH1 0x20 ADD PUSH32 0x5361726168000000000000000000000000000000000000000000000000000000 DUP2 MSTORE POP DUP2 MSTORE PUSH1 0x20 ADD PUSH1 0x40 MLOAD DUP1 PUSH1 0x40 ADD PUSH1 0x40 MSTORE DUP1 PUSH1 0x8 DUP2 MSTORE PUSH1 0x20 ADD PUSH32 0x53616D616E746861000000000000000000000000000000000000000000000000 DUP2 MSTORE POP DUP2 MSTORE PUSH1 0x20 ADD PUSH1 0x40 MLOAD DUP1 PUSH1 0x40 ADD PUSH1 0x40 MSTORE DUP1 PUSH1 0x5 DUP2 MSTORE PUSH1 0x20 ADD PUSH32 0x5065746572000000000000000000000000000000000000000000000000000000 DUP2 MSTORE POP DUP2 MSTORE PUSH1 0x20 ADD PUSH1 0x40 MLOAD DUP1 PUSH1 0x40 ADD PUSH1 0x40 MSTORE DUP1 PUSH1 0x5 DUP2 MSTORE PUSH1 0x20 ADD PUSH32 0x4461766964000000000000000000000000000000000000000000000000000000 DUP2 MSTORE POP DUP2 MSTORE POP SWAP1 POP PUSH1 0x0 PUSH1 0x40 MLOAD DUP1 PUSH2 0x140 ADD PUSH1 0x40 MSTORE DUP1 PUSH1 0x40 MLOAD DUP1 PUSH1 0x40 ADD PUSH1 0x40 MSTORE DUP1 PUSH1 0x5 DUP2 MSTORE PUSH1 0x20 ADD PUSH32 0x506174656C000000000000000000000000000000000000000000000000000000 DUP2 MSTORE POP DUP2 MSTORE PUSH1 0x20 ADD PUSH1 0x40 MLOAD DUP1 PUSH1 0x40 ADD PUSH1 0x40 MSTORE DUP1 PUSH1 0x3 DUP2 MSTORE PUSH1 0x20 ADD PUSH32 0x4B696D0000000000000000000000000000000000000000000000000000000000 DUP2 MSTORE POP DUP2 MSTORE PUSH1 0x20 ADD PUSH1 0x40 MLOAD DUP1 PUSH1 0x40 ADD PUSH1 0x40 MSTORE DUP1 PUSH1 0x5 DUP2 MSTORE PUSH1 0x20 ADD PUSH32 0x42726F776E000000000000000000000000000000000000000000000000000000 DUP2 MSTORE POP DUP2 MSTORE PUSH1 0x20 ADD PUSH1 0x40 MLOAD DUP1 PUSH1 0x40 ADD PUSH1 0x40 MSTORE DUP1 PUSH1 0x5 DUP2 MSTORE PUSH1 0x20 ADD PUSH32 0x4461766973000000000000000000000000000000000000000000000000000000 DUP2 MSTORE POP DUP2 MSTORE PUSH1 0x20 ADD PUSH1 0x40 MLOAD DUP1 PUSH1 0x40 ADD PUSH1 0x40 MSTORE DUP1 PUSH1 0x8 DUP2 MSTORE PUSH1 0x20 ADD PUSH32 0x4D617274696E657A000000000000000000000000000000000000000000000000 DUP2 MSTORE POP DUP2 MSTORE PUSH1 0x20 ADD PUSH1 0x40 MLOAD DUP1 PUSH1 0x40 ADD PUSH1 0x40 MSTORE DUP1 PUSH1 0x6 DUP2 MSTORE PUSH1 0x20 ADD PUSH32 0x57696C736F6E0000000000000000000000000000000000000000000000000000 DUP2 MSTORE POP DUP2 MSTORE PUSH1 0x20 ADD PUSH1 0x40 MLOAD DUP1 PUSH1 0x40 ADD PUSH1 0x40 MSTORE DUP1 PUSH1 0x6 DUP2 MSTORE PUSH1 0x20 ADD PUSH32 0x4761726369610000000000000000000000000000000000000000000000000000 DUP2 MSTORE POP DUP2 MSTORE PUSH1 0x20 ADD PUSH1 0x40 MLOAD DUP1 PUSH1 0x40 ADD PUSH1 0x40 MSTORE DUP1 PUSH1 0x5 DUP2 MSTORE PUSH1 0x20 ADD PUSH32 0x4A6F6E6573000000000000000000000000000000000000000000000000000000 DUP2 MSTORE POP DUP2 MSTORE PUSH1 0x20 ADD PUSH1 0x40 MLOAD DUP1 PUSH1 0x40 ADD PUSH1 0x40 MSTORE DUP1 PUSH1 0x7 DUP2 MSTORE PUSH1 0x20 ADD PUSH32 0x4A61636B736F6E00000000000000000000000000000000000000000000000000 DUP2 MSTORE POP DUP2 MSTORE PUSH1 0x20 ADD PUSH1 0x40 MLOAD DUP1 PUSH1 0x40 ADD PUSH1 0x40 MSTORE DUP1 PUSH1 0x5 DUP2 MSTORE PUSH1 0x20 ADD PUSH32 0x536D697468000000000000000000000000000000000000000000000000000000 DUP2 MSTORE POP DUP2 MSTORE POP SWAP1 POP PUSH1 0x0 PUSH1 0x40 MLOAD DUP1 PUSH2 0x140 ADD PUSH1 0x40 MSTORE DUP1 PUSH1 0x40 MLOAD DUP1 PUSH1 0x40 ADD PUSH1 0x40 MSTORE DUP1 PUSH1 0x12 DUP2 MSTORE PUSH1 0x20 ADD PUSH32 0x5269636B2E506174656C40706F722E636F6D0000000000000000000000000000 DUP2 MSTORE POP DUP2 MSTORE PUSH1 0x20 ADD PUSH1 0x40 MLOAD DUP1 PUSH1 0x40 ADD PUSH1 0x40 MSTORE DUP1 PUSH1 0x13 DUP2 MSTORE PUSH1 0x20 ADD PUSH32 0x56616E657373612E4B696D40706F722E636F6D00000000000000000000000000 DUP2 MSTORE POP DUP2 MSTORE PUSH1 0x20 ADD PUSH1 0x40 MLOAD DUP1 PUSH1 0x40 ADD PUSH1 0x40 MSTORE DUP1 PUSH1 0x12 DUP2 MSTORE PUSH1 0x20 ADD PUSH32 0x416C65782E42726F776E40706F722E636F6D0000000000000000000000000000 DUP2 MSTORE POP DUP2 MSTORE PUSH1 0x20 ADD PUSH1 0x40 MLOAD DUP1 PUSH1 0x40 ADD PUSH1 0x40 MSTORE DUP1 PUSH1 0x12 DUP2 MSTORE PUSH1 0x20 ADD PUSH32 0x566963692E446176697340706F722E636F6D0000000000000000000000000000 DUP2 MSTORE POP DUP2 MSTORE PUSH1 0x20 ADD PUSH1 0x40 MLOAD DUP1 PUSH1 0x40 ADD PUSH1 0x40 MSTORE DUP1 PUSH1 0x13 DUP2 MSTORE PUSH1 0x20 ADD PUSH32 0x4C752E4D617274696E657A40706F722E636F6D00000000000000000000000000 DUP2 MSTORE POP DUP2 MSTORE PUSH1 0x20 ADD PUSH1 0x40 MLOAD DUP1 PUSH1 0x40 ADD PUSH1 0x40 MSTORE DUP1 PUSH1 0x13 DUP2 MSTORE PUSH1 0x20 ADD PUSH32 0x4A6F686E2E57696C736F6E40706F722E636F6D00000000000000000000000000 DUP2 MSTORE POP DUP2 MSTORE PUSH1 0x20 ADD PUSH1 0x40 MLOAD DUP1 PUSH1 0x40 ADD PUSH1 0x40 MSTORE DUP1 PUSH1 0x14 DUP2 MSTORE PUSH1 0x20 ADD PUSH32 0x53617261682E47617263696140706F722E636F6D000000000000000000000000 DUP2 MSTORE POP DUP2 MSTORE PUSH1 0x20 ADD PUSH1 0x40 MLOAD DUP1 PUSH1 0x40 ADD PUSH1 0x40 MSTORE DUP1 PUSH1 0x16 DUP2 MSTORE PUSH1 0x20 ADD PUSH32 0x53616D616E7468612E4A6F6E657340706F722E636F6D00000000000000000000 DUP2 MSTORE POP DUP2 MSTORE PUSH1 0x20 ADD PUSH1 0x40 MLOAD DUP1 PUSH1 0x40 ADD PUSH1 0x40 MSTORE DUP1 PUSH1 0x15 DUP2 MSTORE PUSH1 0x20 ADD PUSH32 0x50657465722E4A61636B736F6E40706F722E636F6D0000000000000000000000 DUP2 MSTORE POP DUP2 MSTORE PUSH1 0x20 ADD PUSH1 0x40 MLOAD DUP1 PUSH1 0x40 ADD PUSH1 0x40 MSTORE DUP1 PUSH1 0x13 DUP2 MSTORE PUSH1 0x20 ADD PUSH32 0x44617669642E536D69746840706F722E636F6D00000000000000000000000000 DUP2 MSTORE POP DUP2 MSTORE POP SWAP1 POP PUSH1 0x0 JUMPDEST PUSH1 0xA DUP2 LT ISZERO PUSH2 0x11CD JUMPI PUSH1 0x0 DUP6 DUP3 PUSH1 0xA DUP2 LT PUSH2 0x1142 JUMPI PUSH2 0x1141 PUSH2 0x3801 JUMP JUMPDEST JUMPDEST PUSH1 0x20 MUL ADD MLOAD SWAP1 POP PUSH2 0x119A DUP2 DUP7 DUP5 PUSH1 0xA DUP2 LT PUSH2 0x1160 JUMPI PUSH2 0x115F PUSH2 0x3801 JUMP JUMPDEST JUMPDEST PUSH1 0x20 MUL ADD MLOAD DUP7 DUP6 PUSH1 0xA DUP2 LT PUSH2 0x1178 JUMPI PUSH2 0x1177 PUSH2 0x3801 JUMP JUMPDEST JUMPDEST PUSH1 0x20 MUL ADD MLOAD DUP7 DUP7 PUSH1 0xA DUP2 LT PUSH2 0x1190 JUMPI PUSH2 0x118F PUSH2 0x3801 JUMP JUMPDEST JUMPDEST PUSH1 0x20 MUL ADD MLOAD PUSH2 0x29EA JUMP JUMPDEST PUSH2 0x11A5 DUP2 PUSH1 0x2 PUSH2 0x13E8 JUMP JUMPDEST PUSH2 0x11B0 DUP2 PUSH1 0x3 PUSH2 0x2117 JUMP JUMPDEST PUSH2 0x11B9 DUP2 PUSH2 0x1E7B JUMP JUMPDEST POP DUP1 DUP1 PUSH2 0x11C5 SWAP1 PUSH2 0x385F JUMP JUMPDEST SWAP2 POP POP PUSH2 0x1124 JUMP JUMPDEST POP POP POP POP POP JUMP JUMPDEST PUSH1 0x0 PUSH2 0x11E1 DUP3 PUSH1 0x0 PUSH2 0x2CF4 JUMP JUMPDEST SWAP1 POP SWAP2 SWAP1 POP JUMP JUMPDEST DUP1 PUSH1 0x0 PUSH20 0xFFFFFFFFFFFFFFFFFFFFFFFFFFFFFFFFFFFFFFFF AND PUSH1 0x2 PUSH1 0x0 DUP4 PUSH20 0xFFFFFFFFFFFFFFFFFFFFFFFFFFFFFFFFFFFFFFFF AND PUSH20 0xFFFFFFFFFFFFFFFFFFFFFFFFFFFFFFFFFFFFFFFF AND DUP2 MSTORE PUSH1 0x20 ADD SWAP1 DUP2 MSTORE PUSH1 0x20 ADD PUSH1 0x0 KECCAK256 PUSH1 0x0 ADD PUSH1 0x0 SWAP1 SLOAD SWAP1 PUSH2 0x100 EXP SWAP1 DIV PUSH20 0xFFFFFFFFFFFFFFFFFFFFFFFFFFFFFFFFFFFFFFFF AND PUSH20 0xFFFFFFFFFFFFFFFFFFFFFFFFFFFFFFFFFFFFFFFF AND EQ ISZERO PUSH2 0x12BB JUMPI PUSH1 0x40 MLOAD PUSH32 0x8C379A000000000000000000000000000000000000000000000000000000000 DUP2 MSTORE PUSH1 0x4 ADD PUSH2 0x12B2 SWAP1 PUSH2 0x3905 JUMP JUMPDEST PUSH1 0x40 MLOAD DUP1 SWAP2 SUB SWAP1 REVERT JUMPDEST PUSH1 0x3 PUSH1 0x0 DUP4 PUSH20 0xFFFFFFFFFFFFFFFFFFFFFFFFFFFFFFFFFFFFFFFF AND PUSH20 0xFFFFFFFFFFFFFFFFFFFFFFFFFFFFFFFFFFFFFFFF AND DUP2 MSTORE PUSH1 0x20 ADD SWAP1 DUP2 MSTORE PUSH1 0x20 ADD PUSH1 0x0 KECCAK256 PUSH1 0x0 SWAP1 SLOAD SWAP1 PUSH2 0x100 EXP SWAP1 DIV PUSH1 0xFF AND ISZERO PUSH2 0x13DE JUMPI PUSH1 0x0 PUSH1 0x2 PUSH1 0x0 DUP5 PUSH20 0xFFFFFFFFFFFFFFFFFFFFFFFFFFFFFFFFFFFFFFFF AND PUSH20 0xFFFFFFFFFFFFFFFFFFFFFFFFFFFFFFFFFFFFFFFF AND DUP2 MSTORE PUSH1 0x20 ADD SWAP1 DUP2 MSTORE PUSH1 0x20 ADD PUSH1 0x0 KECCAK256 SWAP1 POP PUSH1 0x0 DUP2 PUSH1 0x4 ADD PUSH1 0x0 PUSH2 0x100 EXP DUP2 SLOAD DUP2 PUSH1 0xFF MUL NOT AND SWAP1 DUP4 ISZERO ISZERO MUL OR SWAP1 SSTORE POP PUSH1 0x0 PUSH1 0x3 PUSH1 0x0 DUP6 PUSH20 0xFFFFFFFFFFFFFFFFFFFFFFFFFFFFFFFFFFFFFFFF AND PUSH20 0xFFFFFFFFFFFFFFFFFFFFFFFFFFFFFFFFFFFFFFFF AND DUP2 MSTORE PUSH1 0x20 ADD SWAP1 DUP2 MSTORE PUSH1 0x20 ADD PUSH1 0x0 KECCAK256 PUSH1 0x0 PUSH2 0x100 EXP DUP2 SLOAD DUP2 PUSH1 0xFF MUL NOT AND SWAP1 DUP4 ISZERO ISZERO MUL OR SWAP1 SSTORE POP PUSH1 0x0 DUP1 DUP2 SLOAD DUP1 SWAP3 SWAP2 SWAP1 PUSH2 0x13D7 SWAP1 PUSH2 0x3925 JUMP JUMPDEST SWAP2 SWAP1 POP SSTORE POP POP JUMPDEST POP POP JUMP JUMPDEST PUSH1 0x0 SLOAD DUP2 JUMP JUMPDEST PUSH1 0x1 PUSH1 0x0 SWAP1 SLOAD SWAP1 PUSH2 0x100 EXP SWAP1 DIV PUSH20 0xFFFFFFFFFFFFFFFFFFFFFFFFFFFFFFFFFFFFFFFF AND PUSH20 0xFFFFFFFFFFFFFFFFFFFFFFFFFFFFFFFFFFFFFFFF AND CALLER PUSH20 0xFFFFFFFFFFFFFFFFFFFFFFFFFFFFFFFFFFFFFFFF AND EQ DUP1 PUSH2 0x14BA JUMPI POP ADDRESS PUSH20 0xFFFFFFFFFFFFFFFFFFFFFFFFFFFFFFFFFFFFFFFF AND PUSH4 0x297027D5 CALLER PUSH1 0x40 MLOAD DUP3 PUSH4 0xFFFFFFFF AND PUSH1 0xE0 SHL DUP2 MSTORE PUSH1 0x4 ADD PUSH2 0x1478 SWAP2 SWAP1 PUSH2 0x3595 JUMP JUMPDEST PUSH1 0x20 PUSH1 0x40 MLOAD DUP1 DUP4 SUB DUP2 DUP7 GAS STATICCALL ISZERO DUP1 ISZERO PUSH2 0x1495 JUMPI RETURNDATASIZE PUSH1 0x0 DUP1 RETURNDATACOPY RETURNDATASIZE PUSH1 0x0 REVERT JUMPDEST POP POP POP POP PUSH1 0x40 MLOAD RETURNDATASIZE PUSH1 0x1F NOT PUSH1 0x1F DUP3 ADD AND DUP3 ADD DUP1 PUSH1 0x40 MSTORE POP DUP2 ADD SWAP1 PUSH2 0x14B9 SWAP2 SWAP1 PUSH2 0x397B JUMP JUMPDEST JUMPDEST PUSH2 0x14F9 JUMPI PUSH1 0x40 MLOAD PUSH32 0x8C379A000000000000000000000000000000000000000000000000000000000 DUP2 MSTORE PUSH1 0x4 ADD PUSH2 0x14F0 SWAP1 PUSH2 0x3A1A JUMP JUMPDEST PUSH1 0x40 MLOAD DUP1 SWAP2 SUB SWAP1 REVERT JUMPDEST DUP2 PUSH1 0x0 PUSH20 0xFFFFFFFFFFFFFFFFFFFFFFFFFFFFFFFFFFFFFFFF AND PUSH1 0x2 PUSH1 0x0 DUP4 PUSH20 0xFFFFFFFFFFFFFFFFFFFFFFFFFFFFFFFFFFFFFFFF AND PUSH20 0xFFFFFFFFFFFFFFFFFFFFFFFFFFFFFFFFFFFFFFFF AND DUP2 MSTORE PUSH1 0x20 ADD SWAP1 DUP2 MSTORE PUSH1 0x20 ADD PUSH1 0x0 KECCAK256 PUSH1 0x0 ADD PUSH1 0x0 SWAP1 SLOAD SWAP1 PUSH2 0x100 EXP SWAP1 DIV PUSH20 0xFFFFFFFFFFFFFFFFFFFFFFFFFFFFFFFFFFFFFFFF AND PUSH20 0xFFFFFFFFFFFFFFFFFFFFFFFFFFFFFFFFFFFFFFFF AND EQ ISZERO PUSH2 0x15CC JUMPI PUSH1 0x40 MLOAD PUSH32 0x8C379A000000000000000000000000000000000000000000000000000000000 DUP2 MSTORE PUSH1 0x4 ADD PUSH2 0x15C3 SWAP1 PUSH2 0x3905 JUMP JUMPDEST PUSH1 0x40 MLOAD DUP1 SWAP2 SUB SWAP1 REVERT JUMPDEST PUSH1 0x0 PUSH1 0x2 PUSH1 0x0 DUP6 PUSH20 0xFFFFFFFFFFFFFFFFFFFFFFFFFFFFFFFFFFFFFFFF AND PUSH20 0xFFFFFFFFFFFFFFFFFFFFFFFFFFFFFFFFFFFFFFFF AND DUP2 MSTORE PUSH1 0x20 ADD SWAP1 DUP2 MSTORE PUSH1 0x20 ADD PUSH1 0x0 KECCAK256 SWAP1 POP PUSH1 0x0 DUP2 PUSH1 0x5 ADD SWAP1 POP PUSH1 0x0 PUSH1 0x3 DUP2 GT ISZERO PUSH2 0x162B JUMPI PUSH2 0x162A PUSH2 0x3A3A JUMP JUMPDEST JUMPDEST DUP5 PUSH1 0x3 DUP2 GT ISZERO PUSH2 0x163E JUMPI PUSH2 0x163D PUSH2 0x3A3A JUMP JUMPDEST JUMPDEST EQ ISZERO PUSH2 0x1666 JUMPI PUSH1 0x1 DUP2 PUSH1 0x0 ADD PUSH1 0x0 PUSH2 0x100 EXP DUP2 SLOAD DUP2 PUSH1 0xFF MUL NOT AND SWAP1 DUP4 ISZERO ISZERO MUL OR SWAP1 SSTORE POP PUSH2 0x1751 JUMP JUMPDEST PUSH1 0x1 PUSH1 0x3 DUP2 GT ISZERO PUSH2 0x167A JUMPI PUSH2 0x1679 PUSH2 0x3A3A JUMP JUMPDEST JUMPDEST DUP5 PUSH1 0x3 DUP2 GT ISZERO PUSH2 0x168D JUMPI PUSH2 0x168C PUSH2 0x3A3A JUMP JUMPDEST JUMPDEST EQ ISZERO PUSH2 0x16B5 JUMPI PUSH1 0x1 DUP2 PUSH1 0x0 ADD PUSH1 0x1 PUSH2 0x100 EXP DUP2 SLOAD DUP2 PUSH1 0xFF MUL NOT AND SWAP1 DUP4 ISZERO ISZERO MUL OR SWAP1 SSTORE POP PUSH2 0x1750 JUMP JUMPDEST PUSH1 0x2 PUSH1 0x3 DUP2 GT ISZERO PUSH2 0x16C9 JUMPI PUSH2 0x16C8 PUSH2 0x3A3A JUMP JUMPDEST JUMPDEST DUP5 PUSH1 0x3 DUP2 GT ISZERO PUSH2 0x16DC JUMPI PUSH2 0x16DB PUSH2 0x3A3A JUMP JUMPDEST JUMPDEST EQ ISZERO PUSH2 0x1704 JUMPI PUSH1 0x1 DUP2 PUSH1 0x0 ADD PUSH1 0x2 PUSH2 0x100 EXP DUP2 SLOAD DUP2 PUSH1 0xFF MUL NOT AND SWAP1 DUP4 ISZERO ISZERO MUL OR SWAP1 SSTORE POP PUSH2 0x174F JUMP JUMPDEST PUSH1 0x3 DUP1 DUP2 GT ISZERO PUSH2 0x1717 JUMPI PUSH2 0x1716 PUSH2 0x3A3A JUMP JUMPDEST JUMPDEST DUP5 PUSH1 0x3 DUP2 GT ISZERO PUSH2 0x172A JUMPI PUSH2 0x1729 PUSH2 0x3A3A JUMP JUMPDEST JUMPDEST EQ ISZERO PUSH2 0x174E JUMPI PUSH1 0x1 DUP2 PUSH1 0x0 ADD PUSH1 0x3 PUSH2 0x100 EXP DUP2 SLOAD DUP2 PUSH1 0xFF MUL NOT AND SWAP1 DUP4 ISZERO ISZERO MUL OR SWAP1 SSTORE POP JUMPDEST JUMPDEST JUMPDEST JUMPDEST POP POP POP POP POP JUMP JUMPDEST PUSH1 0x0 DUP1 PUSH1 0x2 PUSH1 0x0 DUP5 PUSH20 0xFFFFFFFFFFFFFFFFFFFFFFFFFFFFFFFFFFFFFFFF AND PUSH20 0xFFFFFFFFFFFFFFFFFFFFFFFFFFFFFFFFFFFFFFFF AND DUP2 MSTORE PUSH1 0x20 ADD SWAP1 DUP2 MSTORE PUSH1 0x20 ADD PUSH1 0x0 KECCAK256 PUSH1 0x40 MLOAD DUP1 PUSH1 0xC0 ADD PUSH1 0x40 MSTORE SWAP1 DUP2 PUSH1 0x0 DUP3 ADD PUSH1 0x0 SWAP1 SLOAD SWAP1 PUSH2 0x100 EXP SWAP1 DIV PUSH20 0xFFFFFFFFFFFFFFFFFFFFFFFFFFFFFFFFFFFFFFFF AND PUSH20 0xFFFFFFFFFFFFFFFFFFFFFFFFFFFFFFFFFFFFFFFF AND PUSH20 0xFFFFFFFFFFFFFFFFFFFFFFFFFFFFFFFFFFFFFFFF AND DUP2 MSTORE PUSH1 0x20 ADD PUSH1 0x1 DUP3 ADD DUP1 SLOAD PUSH2 0x180B SWAP1 PUSH2 0x37CF JUMP JUMPDEST DUP1 PUSH1 0x1F ADD PUSH1 0x20 DUP1 SWAP2 DIV MUL PUSH1 0x20 ADD PUSH1 0x40 MLOAD SWAP1 DUP2 ADD PUSH1 0x40 MSTORE DUP1 SWAP3 SWAP2 SWAP1 DUP2 DUP2 MSTORE PUSH1 0x20 ADD DUP3 DUP1 SLOAD PUSH2 0x1837 SWAP1 PUSH2 0x37CF JUMP JUMPDEST DUP1 ISZERO PUSH2 0x1884 JUMPI DUP1 PUSH1 0x1F LT PUSH2 0x1859 JUMPI PUSH2 0x100 DUP1 DUP4 SLOAD DIV MUL DUP4 MSTORE SWAP2 PUSH1 0x20 ADD SWAP2 PUSH2 0x1884 JUMP JUMPDEST DUP3 ADD SWAP2 SWAP1 PUSH1 0x0 MSTORE PUSH1 0x20 PUSH1 0x0 KECCAK256 SWAP1 JUMPDEST DUP2 SLOAD DUP2 MSTORE SWAP1 PUSH1 0x1 ADD SWAP1 PUSH1 0x20 ADD DUP1 DUP4 GT PUSH2 0x1867 JUMPI DUP3 SWAP1 SUB PUSH1 0x1F AND DUP3 ADD SWAP2 JUMPDEST POP POP POP POP POP DUP2 MSTORE PUSH1 0x20 ADD PUSH1 0x2 DUP3 ADD DUP1 SLOAD PUSH2 0x189D SWAP1 PUSH2 0x37CF JUMP JUMPDEST DUP1 PUSH1 0x1F ADD PUSH1 0x20 DUP1 SWAP2 DIV MUL PUSH1 0x20 ADD PUSH1 0x40 MLOAD SWAP1 DUP2 ADD PUSH1 0x40 MSTORE DUP1 SWAP3 SWAP2 SWAP1 DUP2 DUP2 MSTORE PUSH1 0x20 ADD DUP3 DUP1 SLOAD PUSH2 0x18C9 SWAP1 PUSH2 0x37CF JUMP JUMPDEST DUP1 ISZERO PUSH2 0x1916 JUMPI DUP1 PUSH1 0x1F LT PUSH2 0x18EB JUMPI PUSH2 0x100 DUP1 DUP4 SLOAD DIV MUL DUP4 MSTORE SWAP2 PUSH1 0x20 ADD SWAP2 PUSH2 0x1916 JUMP JUMPDEST DUP3 ADD SWAP2 SWAP1 PUSH1 0x0 MSTORE PUSH1 0x20 PUSH1 0x0 KECCAK256 SWAP1 JUMPDEST DUP2 SLOAD DUP2 MSTORE SWAP1 PUSH1 0x1 ADD SWAP1 PUSH1 0x20 ADD DUP1 DUP4 GT PUSH2 0x18F9 JUMPI DUP3 SWAP1 SUB PUSH1 0x1F AND DUP3 ADD SWAP2 JUMPDEST POP POP POP POP POP DUP2 MSTORE PUSH1 0x20 ADD PUSH1 0x3 DUP3 ADD DUP1 SLOAD PUSH2 0x192F SWAP1 PUSH2 0x37CF JUMP JUMPDEST DUP1 PUSH1 0x1F ADD PUSH1 0x20 DUP1 SWAP2 DIV MUL PUSH1 0x20 ADD PUSH1 0x40 MLOAD SWAP1 DUP2 ADD PUSH1 0x40 MSTORE DUP1 SWAP3 SWAP2 SWAP1 DUP2 DUP2 MSTORE PUSH1 0x20 ADD DUP3 DUP1 SLOAD PUSH2 0x195B SWAP1 PUSH2 0x37CF JUMP JUMPDEST DUP1 ISZERO PUSH2 0x19A8 JUMPI DUP1 PUSH1 0x1F LT PUSH2 0x197D JUMPI PUSH2 0x100 DUP1 DUP4 SLOAD DIV MUL DUP4 MSTORE SWAP2 PUSH1 0x20 ADD SWAP2 PUSH2 0x19A8 JUMP JUMPDEST DUP3 ADD SWAP2 SWAP1 PUSH1 0x0 MSTORE PUSH1 0x20 PUSH1 0x0 KECCAK256 SWAP1 JUMPDEST DUP2 SLOAD DUP2 MSTORE SWAP1 PUSH1 0x1 ADD SWAP1 PUSH1 0x20 ADD DUP1 DUP4 GT PUSH2 0x198B JUMPI DUP3 SWAP1 SUB PUSH1 0x1F AND DUP3 ADD SWAP2 JUMPDEST POP POP POP POP POP DUP2 MSTORE PUSH1 0x20 ADD PUSH1 0x4 DUP3 ADD PUSH1 0x0 SWAP1 SLOAD SWAP1 PUSH2 0x100 EXP SWAP1 DIV PUSH1 0xFF AND ISZERO ISZERO ISZERO ISZERO DUP2 MSTORE PUSH1 0x20 ADD PUSH1 0x5 DUP3 ADD PUSH1 0x40 MLOAD DUP1 PUSH1 0x80 ADD PUSH1 0x40 MSTORE SWAP1 DUP2 PUSH1 0x0 DUP3 ADD PUSH1 0x0 SWAP1 SLOAD SWAP1 PUSH2 0x100 EXP SWAP1 DIV PUSH1 0xFF AND ISZERO ISZERO ISZERO ISZERO DUP2 MSTORE PUSH1 0x20 ADD PUSH1 0x0 DUP3 ADD PUSH1 0x1 SWAP1 SLOAD SWAP1 PUSH2 0x100 EXP SWAP1 DIV PUSH1 0xFF AND ISZERO ISZERO ISZERO ISZERO DUP2 MSTORE PUSH1 0x20 ADD PUSH1 0x0 DUP3 ADD PUSH1 0x2 SWAP1 SLOAD SWAP1 PUSH2 0x100 EXP SWAP1 DIV PUSH1 0xFF AND ISZERO ISZERO ISZERO ISZERO DUP2 MSTORE PUSH1 0x20 ADD PUSH1 0x0 DUP3 ADD PUSH1 0x3 SWAP1 SLOAD SWAP1 PUSH2 0x100 EXP SWAP1 DIV PUSH1 0xFF AND ISZERO ISZERO ISZERO ISZERO DUP2 MSTORE POP POP DUP2 MSTORE POP POP SWAP1 POP PUSH1 0x0 PUSH20 0xFFFFFFFFFFFFFFFFFFFFFFFFFFFFFFFFFFFFFFFF AND DUP2 PUSH1 0x0 ADD MLOAD PUSH20 0xFFFFFFFFFFFFFFFFFFFFFFFFFFFFFFFFFFFFFFFF AND EQ PUSH2 0x1ACC JUMPI DUP1 PUSH1 0x80 ADD MLOAD DUP1 ISZERO PUSH2 0x1ABC JUMPI POP DUP1 PUSH1 0xA0 ADD MLOAD PUSH1 0x0 ADD MLOAD DUP1 PUSH2 0x1AAB JUMPI POP DUP1 PUSH1 0xA0 ADD MLOAD PUSH1 0x20 ADD MLOAD JUMPDEST DUP1 PUSH2 0x1ABB JUMPI POP DUP1 PUSH1 0xA0 ADD MLOAD PUSH1 0x40 ADD MLOAD JUMPDEST JUMPDEST ISZERO PUSH2 0x1ACB JUMPI PUSH1 0x1 SWAP2 POP POP PUSH2 0x1AD2 JUMP JUMPDEST JUMPDEST PUSH1 0x0 SWAP2 POP POP JUMPDEST SWAP2 SWAP1 POP JUMP JUMPDEST PUSH2 0x1ADF PUSH2 0x30EB JUMP JUMPDEST PUSH1 0x0 PUSH1 0x2 PUSH1 0x0 DUP5 PUSH20 0xFFFFFFFFFFFFFFFFFFFFFFFFFFFFFFFFFFFFFFFF AND PUSH20 0xFFFFFFFFFFFFFFFFFFFFFFFFFFFFFFFFFFFFFFFF AND DUP2 MSTORE PUSH1 0x20 ADD SWAP1 DUP2 MSTORE PUSH1 0x20 ADD PUSH1 0x0 KECCAK256 PUSH1 0x40 MLOAD DUP1 PUSH1 0xC0 ADD PUSH1 0x40 MSTORE SWAP1 DUP2 PUSH1 0x0 DUP3 ADD PUSH1 0x0 SWAP1 SLOAD SWAP1 PUSH2 0x100 EXP SWAP1 DIV PUSH20 0xFFFFFFFFFFFFFFFFFFFFFFFFFFFFFFFFFFFFFFFF AND PUSH20 0xFFFFFFFFFFFFFFFFFFFFFFFFFFFFFFFFFFFFFFFF AND PUSH20 0xFFFFFFFFFFFFFFFFFFFFFFFFFFFFFFFFFFFFFFFF AND DUP2 MSTORE PUSH1 0x20 ADD PUSH1 0x1 DUP3 ADD DUP1 SLOAD PUSH2 0x1B91 SWAP1 PUSH2 0x37CF JUMP JUMPDEST DUP1 PUSH1 0x1F ADD PUSH1 0x20 DUP1 SWAP2 DIV MUL PUSH1 0x20 ADD PUSH1 0x40 MLOAD SWAP1 DUP2 ADD PUSH1 0x40 MSTORE DUP1 SWAP3 SWAP2 SWAP1 DUP2 DUP2 MSTORE PUSH1 0x20 ADD DUP3 DUP1 SLOAD PUSH2 0x1BBD SWAP1 PUSH2 0x37CF JUMP JUMPDEST DUP1 ISZERO PUSH2 0x1C0A JUMPI DUP1 PUSH1 0x1F LT PUSH2 0x1BDF JUMPI PUSH2 0x100 DUP1 DUP4 SLOAD DIV MUL DUP4 MSTORE SWAP2 PUSH1 0x20 ADD SWAP2 PUSH2 0x1C0A JUMP JUMPDEST DUP3 ADD SWAP2 SWAP1 PUSH1 0x0 MSTORE PUSH1 0x20 PUSH1 0x0 KECCAK256 SWAP1 JUMPDEST DUP2 SLOAD DUP2 MSTORE SWAP1 PUSH1 0x1 ADD SWAP1 PUSH1 0x20 ADD DUP1 DUP4 GT PUSH2 0x1BED JUMPI DUP3 SWAP1 SUB PUSH1 0x1F AND DUP3 ADD SWAP2 JUMPDEST POP POP POP POP POP DUP2 MSTORE PUSH1 0x20 ADD PUSH1 0x2 DUP3 ADD DUP1 SLOAD PUSH2 0x1C23 SWAP1 PUSH2 0x37CF JUMP JUMPDEST DUP1 PUSH1 0x1F ADD PUSH1 0x20 DUP1 SWAP2 DIV MUL PUSH1 0x20 ADD PUSH1 0x40 MLOAD SWAP1 DUP2 ADD PUSH1 0x40 MSTORE DUP1 SWAP3 SWAP2 SWAP1 DUP2 DUP2 MSTORE PUSH1 0x20 ADD DUP3 DUP1 SLOAD PUSH2 0x1C4F SWAP1 PUSH2 0x37CF JUMP JUMPDEST DUP1 ISZERO PUSH2 0x1C9C JUMPI DUP1 PUSH1 0x1F LT PUSH2 0x1C71 JUMPI PUSH2 0x100 DUP1 DUP4 SLOAD DIV MUL DUP4 MSTORE SWAP2 PUSH1 0x20 ADD SWAP2 PUSH2 0x1C9C JUMP JUMPDEST DUP3 ADD SWAP2 SWAP1 PUSH1 0x0 MSTORE PUSH1 0x20 PUSH1 0x0 KECCAK256 SWAP1 JUMPDEST DUP2 SLOAD DUP2 MSTORE SWAP1 PUSH1 0x1 ADD SWAP1 PUSH1 0x20 ADD DUP1 DUP4 GT PUSH2 0x1C7F JUMPI DUP3 SWAP1 SUB PUSH1 0x1F AND DUP3 ADD SWAP2 JUMPDEST POP POP POP POP POP DUP2 MSTORE PUSH1 0x20 ADD PUSH1 0x3 DUP3 ADD DUP1 SLOAD PUSH2 0x1CB5 SWAP1 PUSH2 0x37CF JUMP JUMPDEST DUP1 PUSH1 0x1F ADD PUSH1 0x20 DUP1 SWAP2 DIV MUL PUSH1 0x20 ADD PUSH1 0x40 MLOAD SWAP1 DUP2 ADD PUSH1 0x40 MSTORE DUP1 SWAP3 SWAP2 SWAP1 DUP2 DUP2 MSTORE PUSH1 0x20 ADD DUP3 DUP1 SLOAD PUSH2 0x1CE1 SWAP1 PUSH2 0x37CF JUMP JUMPDEST DUP1 ISZERO PUSH2 0x1D2E JUMPI DUP1 PUSH1 0x1F LT PUSH2 0x1D03 JUMPI PUSH2 0x100 DUP1 DUP4 SLOAD DIV MUL DUP4 MSTORE SWAP2 PUSH1 0x20 ADD SWAP2 PUSH2 0x1D2E JUMP JUMPDEST DUP3 ADD SWAP2 SWAP1 PUSH1 0x0 MSTORE PUSH1 0x20 PUSH1 0x0 KECCAK256 SWAP1 JUMPDEST DUP2 SLOAD DUP2 MSTORE SWAP1 PUSH1 0x1 ADD SWAP1 PUSH1 0x20 ADD DUP1 DUP4 GT PUSH2 0x1D11 JUMPI DUP3 SWAP1 SUB PUSH1 0x1F AND DUP3 ADD SWAP2 JUMPDEST POP POP POP POP POP DUP2 MSTORE PUSH1 0x20 ADD PUSH1 0x4 DUP3 ADD PUSH1 0x0 SWAP1 SLOAD SWAP1 PUSH2 0x100 EXP SWAP1 DIV PUSH1 0xFF AND ISZERO ISZERO ISZERO ISZERO DUP2 MSTORE PUSH1 0x20 ADD PUSH1 0x5 DUP3 ADD PUSH1 0x40 MLOAD DUP1 PUSH1 0x80 ADD PUSH1 0x40 MSTORE SWAP1 DUP2 PUSH1 0x0 DUP3 ADD PUSH1 0x0 SWAP1 SLOAD SWAP1 PUSH2 0x100 EXP SWAP1 DIV PUSH1 0xFF AND ISZERO ISZERO ISZERO ISZERO DUP2 MSTORE PUSH1 0x20 ADD PUSH1 0x0 DUP3 ADD PUSH1 0x1 SWAP1 SLOAD SWAP1 PUSH2 0x100 EXP SWAP1 DIV PUSH1 0xFF AND ISZERO ISZERO ISZERO ISZERO DUP2 MSTORE PUSH1 0x20 ADD PUSH1 0x0 DUP3 ADD PUSH1 0x2 SWAP1 SLOAD SWAP1 PUSH2 0x100 EXP SWAP1 DIV PUSH1 0xFF AND ISZERO ISZERO ISZERO ISZERO DUP2 MSTORE PUSH1 0x20 ADD PUSH1 0x0 DUP3 ADD PUSH1 0x3 SWAP1 SLOAD SWAP1 PUSH2 0x100 EXP SWAP1 DIV PUSH1 0xFF AND ISZERO ISZERO ISZERO ISZERO DUP2 MSTORE POP POP DUP2 MSTORE POP POP SWAP1 POP PUSH1 0x0 PUSH20 0xFFFFFFFFFFFFFFFFFFFFFFFFFFFFFFFFFFFFFFFF AND DUP2 PUSH1 0x0 ADD MLOAD PUSH20 0xFFFFFFFFFFFFFFFFFFFFFFFFFFFFFFFFFFFFFFFF AND EQ PUSH2 0x1E15 JUMPI DUP1 SWAP2 POP POP PUSH2 0x1E50 JUMP JUMPDEST PUSH1 0x40 MLOAD PUSH32 0x8C379A000000000000000000000000000000000000000000000000000000000 DUP2 MSTORE PUSH1 0x4 ADD PUSH2 0x1E47 SWAP1 PUSH2 0x3AB5 JUMP JUMPDEST PUSH1 0x40 MLOAD DUP1 SWAP2 SUB SWAP1 REVERT JUMPDEST SWAP2 SWAP1 POP JUMP JUMPDEST PUSH1 0x1 PUSH1 0x0 SWAP1 SLOAD SWAP1 PUSH2 0x100 EXP SWAP1 DIV PUSH20 0xFFFFFFFFFFFFFFFFFFFFFFFFFFFFFFFFFFFFFFFF AND DUP2 JUMP JUMPDEST DUP1 PUSH1 0x0 PUSH20 0xFFFFFFFFFFFFFFFFFFFFFFFFFFFFFFFFFFFFFFFF AND PUSH1 0x2 PUSH1 0x0 DUP4 PUSH20 0xFFFFFFFFFFFFFFFFFFFFFFFFFFFFFFFFFFFFFFFF AND PUSH20 0xFFFFFFFFFFFFFFFFFFFFFFFFFFFFFFFFFFFFFFFF AND DUP2 MSTORE PUSH1 0x20 ADD SWAP1 DUP2 MSTORE PUSH1 0x20 ADD PUSH1 0x0 KECCAK256 PUSH1 0x0 ADD PUSH1 0x0 SWAP1 SLOAD SWAP1 PUSH2 0x100 EXP SWAP1 DIV PUSH20 0xFFFFFFFFFFFFFFFFFFFFFFFFFFFFFFFFFFFFFFFF AND PUSH20 0xFFFFFFFFFFFFFFFFFFFFFFFFFFFFFFFFFFFFFFFF AND EQ ISZERO PUSH2 0x1F4E JUMPI PUSH1 0x40 MLOAD PUSH32 0x8C379A000000000000000000000000000000000000000000000000000000000 DUP2 MSTORE PUSH1 0x4 ADD PUSH2 0x1F45 SWAP1 PUSH2 0x3905 JUMP JUMPDEST PUSH1 0x40 MLOAD DUP1 SWAP2 SUB SWAP1 REVERT JUMPDEST PUSH1 0x3 PUSH1 0x0 DUP4 PUSH20 0xFFFFFFFFFFFFFFFFFFFFFFFFFFFFFFFFFFFFFFFF AND PUSH20 0xFFFFFFFFFFFFFFFFFFFFFFFFFFFFFFFFFFFFFFFF AND DUP2 MSTORE PUSH1 0x20 ADD SWAP1 DUP2 MSTORE PUSH1 0x20 ADD PUSH1 0x0 KECCAK256 PUSH1 0x0 SWAP1 SLOAD SWAP1 PUSH2 0x100 EXP SWAP1 DIV PUSH1 0xFF AND PUSH2 0x2113 JUMPI PUSH1 0x0 PUSH1 0x2 PUSH1 0x0 DUP5 PUSH20 0xFFFFFFFFFFFFFFFFFFFFFFFFFFFFFFFFFFFFFFFF AND PUSH20 0xFFFFFFFFFFFFFFFFFFFFFFFFFFFFFFFFFFFFFFFF AND DUP2 MSTORE PUSH1 0x20 ADD SWAP1 DUP2 MSTORE PUSH1 0x20 ADD PUSH1 0x0 KECCAK256 SWAP1 POP PUSH1 0x1 DUP2 PUSH1 0x4 ADD PUSH1 0x0 PUSH2 0x100 EXP DUP2 SLOAD DUP2 PUSH1 0xFF MUL NOT AND SWAP1 DUP4 ISZERO ISZERO MUL OR SWAP1 SSTORE POP PUSH1 0x0 DUP2 PUSH1 0x5 ADD PUSH1 0x40 MLOAD DUP1 PUSH1 0x80 ADD PUSH1 0x40 MSTORE SWAP1 DUP2 PUSH1 0x0 DUP3 ADD PUSH1 0x0 SWAP1 SLOAD SWAP1 PUSH2 0x100 EXP SWAP1 DIV PUSH1 0xFF AND ISZERO ISZERO ISZERO ISZERO DUP2 MSTORE PUSH1 0x20 ADD PUSH1 0x0 DUP3 ADD PUSH1 0x1 SWAP1 SLOAD SWAP1 PUSH2 0x100 EXP SWAP1 DIV PUSH1 0xFF AND ISZERO ISZERO ISZERO ISZERO DUP2 MSTORE PUSH1 0x20 ADD PUSH1 0x0 DUP3 ADD PUSH1 0x2 SWAP1 SLOAD SWAP1 PUSH2 0x100 EXP SWAP1 DIV PUSH1 0xFF AND ISZERO ISZERO ISZERO ISZERO DUP2 MSTORE PUSH1 0x20 ADD PUSH1 0x0 DUP3 ADD PUSH1 0x3 SWAP1 SLOAD SWAP1 PUSH2 0x100 EXP SWAP1 DIV PUSH1 0xFF AND ISZERO ISZERO ISZERO ISZERO DUP2 MSTORE POP POP SWAP1 POP DUP1 PUSH1 0x0 ADD MLOAD DUP1 PUSH2 0x208F JUMPI POP DUP1 PUSH1 0x20 ADD MLOAD JUMPDEST DUP1 PUSH2 0x209B JUMPI POP DUP1 PUSH1 0x40 ADD MLOAD JUMPDEST ISZERO PUSH2 0x2110 JUMPI PUSH1 0x1 PUSH1 0x3 PUSH1 0x0 DUP7 PUSH20 0xFFFFFFFFFFFFFFFFFFFFFFFFFFFFFFFFFFFFFFFF AND PUSH20 0xFFFFFFFFFFFFFFFFFFFFFFFFFFFFFFFFFFFFFFFF AND DUP2 MSTORE PUSH1 0x20 ADD SWAP1 DUP2 MSTORE PUSH1 0x20 ADD PUSH1 0x0 KECCAK256 PUSH1 0x0 PUSH2 0x100 EXP DUP2 SLOAD DUP2 PUSH1 0xFF MUL NOT AND SWAP1 DUP4 ISZERO ISZERO MUL OR SWAP1 SSTORE POP PUSH1 0x0 DUP1 DUP2 SLOAD DUP1 SWAP3 SWAP2 SWAP1 PUSH2 0x210A SWAP1 PUSH2 0x385F JUMP JUMPDEST SWAP2 SWAP1 POP SSTORE POP JUMPDEST POP POP JUMPDEST POP POP JUMP JUMPDEST PUSH1 0x1 PUSH1 0x0 SWAP1 SLOAD SWAP1 PUSH2 0x100 EXP SWAP1 DIV PUSH20 0xFFFFFFFFFFFFFFFFFFFFFFFFFFFFFFFFFFFFFFFF AND PUSH20 0xFFFFFFFFFFFFFFFFFFFFFFFFFFFFFFFFFFFFFFFF AND CALLER PUSH20 0xFFFFFFFFFFFFFFFFFFFFFFFFFFFFFFFFFFFFFFFF AND EQ DUP1 PUSH2 0x21E9 JUMPI POP ADDRESS PUSH20 0xFFFFFFFFFFFFFFFFFFFFFFFFFFFFFFFFFFFFFFFF AND PUSH4 0x297027D5 CALLER PUSH1 0x40 MLOAD DUP3 PUSH4 0xFFFFFFFF AND PUSH1 0xE0 SHL DUP2 MSTORE PUSH1 0x4 ADD PUSH2 0x21A7 SWAP2 SWAP1 PUSH2 0x3595 JUMP JUMPDEST PUSH1 0x20 PUSH1 0x40 MLOAD DUP1 DUP4 SUB DUP2 DUP7 GAS STATICCALL ISZERO DUP1 ISZERO PUSH2 0x21C4 JUMPI RETURNDATASIZE PUSH1 0x0 DUP1 RETURNDATACOPY RETURNDATASIZE PUSH1 0x0 REVERT JUMPDEST POP POP POP POP PUSH1 0x40 MLOAD RETURNDATASIZE PUSH1 0x1F NOT PUSH1 0x1F DUP3 ADD AND DUP3 ADD DUP1 PUSH1 0x40 MSTORE POP DUP2 ADD SWAP1 PUSH2 0x21E8 SWAP2 SWAP1 PUSH2 0x397B JUMP JUMPDEST JUMPDEST PUSH2 0x2228 JUMPI PUSH1 0x40 MLOAD PUSH32 0x8C379A000000000000000000000000000000000000000000000000000000000 DUP2 MSTORE PUSH1 0x4 ADD PUSH2 0x221F SWAP1 PUSH2 0x3A1A JUMP JUMPDEST PUSH1 0x40 MLOAD DUP1 SWAP2 SUB SWAP1 REVERT JUMPDEST DUP2 PUSH1 0x0 PUSH20 0xFFFFFFFFFFFFFFFFFFFFFFFFFFFFFFFFFFFFFFFF AND PUSH1 0x2 PUSH1 0x0 DUP4 PUSH20 0xFFFFFFFFFFFFFFFFFFFFFFFFFFFFFFFFFFFFFFFF AND PUSH20 0xFFFFFFFFFFFFFFFFFFFFFFFFFFFFFFFFFFFFFFFF AND DUP2 MSTORE PUSH1 0x20 ADD SWAP1 DUP2 MSTORE PUSH1 0x20 ADD PUSH1 0x0 KECCAK256 PUSH1 0x0 ADD PUSH1 0x0 SWAP1 SLOAD SWAP1 PUSH2 0x100 EXP SWAP1 DIV PUSH20 0xFFFFFFFFFFFFFFFFFFFFFFFFFFFFFFFFFFFFFFFF AND PUSH20 0xFFFFFFFFFFFFFFFFFFFFFFFFFFFFFFFFFFFFFFFF AND EQ ISZERO PUSH2 0x22FB JUMPI PUSH1 0x40 MLOAD PUSH32 0x8C379A000000000000000000000000000000000000000000000000000000000 DUP2 MSTORE PUSH1 0x4 ADD PUSH2 0x22F2 SWAP1 PUSH2 0x3905 JUMP JUMPDEST PUSH1 0x40 MLOAD DUP1 SWAP2 SUB SWAP1 REVERT JUMPDEST PUSH1 0x0 PUSH1 0x2 PUSH1 0x0 DUP6 PUSH20 0xFFFFFFFFFFFFFFFFFFFFFFFFFFFFFFFFFFFFFFFF AND PUSH20 0xFFFFFFFFFFFFFFFFFFFFFFFFFFFFFFFFFFFFFFFF AND DUP2 MSTORE PUSH1 0x20 ADD SWAP1 DUP2 MSTORE PUSH1 0x20 ADD PUSH1 0x0 KECCAK256 SWAP1 POP PUSH1 0x0 DUP2 PUSH1 0x5 ADD SWAP1 POP PUSH1 0x0 PUSH1 0x3 DUP2 GT ISZERO PUSH2 0x235A JUMPI PUSH2 0x2359 PUSH2 0x3A3A JUMP JUMPDEST JUMPDEST DUP5 PUSH1 0x3 DUP2 GT ISZERO PUSH2 0x236D JUMPI PUSH2 0x236C PUSH2 0x3A3A JUMP JUMPDEST JUMPDEST EQ ISZERO PUSH2 0x2395 JUMPI PUSH1 0x0 DUP2 PUSH1 0x0 ADD PUSH1 0x0 PUSH2 0x100 EXP DUP2 SLOAD DUP2 PUSH1 0xFF MUL NOT AND SWAP1 DUP4 ISZERO ISZERO MUL OR SWAP1 SSTORE POP PUSH2 0x2480 JUMP JUMPDEST PUSH1 0x1 PUSH1 0x3 DUP2 GT ISZERO PUSH2 0x23A9 JUMPI PUSH2 0x23A8 PUSH2 0x3A3A JUMP JUMPDEST JUMPDEST DUP5 PUSH1 0x3 DUP2 GT ISZERO PUSH2 0x23BC JUMPI PUSH2 0x23BB PUSH2 0x3A3A JUMP JUMPDEST JUMPDEST EQ ISZERO PUSH2 0x23E4 JUMPI PUSH1 0x0 DUP2 PUSH1 0x0 ADD PUSH1 0x1 PUSH2 0x100 EXP DUP2 SLOAD DUP2 PUSH1 0xFF MUL NOT AND SWAP1 DUP4 ISZERO ISZERO MUL OR SWAP1 SSTORE POP PUSH2 0x247F JUMP JUMPDEST PUSH1 0x2 PUSH1 0x3 DUP2 GT ISZERO PUSH2 0x23F8 JUMPI PUSH2 0x23F7 PUSH2 0x3A3A JUMP JUMPDEST JUMPDEST DUP5 PUSH1 0x3 DUP2 GT ISZERO PUSH2 0x240B JUMPI PUSH2 0x240A PUSH2 0x3A3A JUMP JUMPDEST JUMPDEST EQ ISZERO PUSH2 0x2433 JUMPI PUSH1 0x0 DUP2 PUSH1 0x0 ADD PUSH1 0x2 PUSH2 0x100 EXP DUP2 SLOAD DUP2 PUSH1 0xFF MUL NOT AND SWAP1 DUP4 ISZERO ISZERO MUL OR SWAP1 SSTORE POP PUSH2 0x247E JUMP JUMPDEST PUSH1 0x3 DUP1 DUP2 GT ISZERO PUSH2 0x2446 JUMPI PUSH2 0x2445 PUSH2 0x3A3A JUMP JUMPDEST JUMPDEST DUP5 PUSH1 0x3 DUP2 GT ISZERO PUSH2 0x2459 JUMPI PUSH2 0x2458 PUSH2 0x3A3A JUMP JUMPDEST JUMPDEST EQ ISZERO PUSH2 0x247D JUMPI PUSH1 0x0 DUP2 PUSH1 0x0 ADD PUSH1 0x3 PUSH2 0x100 EXP DUP2 SLOAD DUP2 PUSH1 0xFF MUL NOT AND SWAP1 DUP4 ISZERO ISZERO MUL OR SWAP1 SSTORE POP JUMPDEST JUMPDEST JUMPDEST JUMPDEST POP POP POP POP POP JUMP JUMPDEST PUSH1 0x0 DUP1 PUSH1 0x2 PUSH1 0x0 DUP5 PUSH20 0xFFFFFFFFFFFFFFFFFFFFFFFFFFFFFFFFFFFFFFFF AND PUSH20 0xFFFFFFFFFFFFFFFFFFFFFFFFFFFFFFFFFFFFFFFF AND DUP2 MSTORE PUSH1 0x20 ADD SWAP1 DUP2 MSTORE PUSH1 0x20 ADD PUSH1 0x0 KECCAK256 PUSH1 0x40 MLOAD DUP1 PUSH1 0xC0 ADD PUSH1 0x40 MSTORE SWAP1 DUP2 PUSH1 0x0 DUP3 ADD PUSH1 0x0 SWAP1 SLOAD SWAP1 PUSH2 0x100 EXP SWAP1 DIV PUSH20 0xFFFFFFFFFFFFFFFFFFFFFFFFFFFFFFFFFFFFFFFF AND PUSH20 0xFFFFFFFFFFFFFFFFFFFFFFFFFFFFFFFFFFFFFFFF AND PUSH20 0xFFFFFFFFFFFFFFFFFFFFFFFFFFFFFFFFFFFFFFFF AND DUP2 MSTORE PUSH1 0x20 ADD PUSH1 0x1 DUP3 ADD DUP1 SLOAD PUSH2 0x253A SWAP1 PUSH2 0x37CF JUMP JUMPDEST DUP1 PUSH1 0x1F ADD PUSH1 0x20 DUP1 SWAP2 DIV MUL PUSH1 0x20 ADD PUSH1 0x40 MLOAD SWAP1 DUP2 ADD PUSH1 0x40 MSTORE DUP1 SWAP3 SWAP2 SWAP1 DUP2 DUP2 MSTORE PUSH1 0x20 ADD DUP3 DUP1 SLOAD PUSH2 0x2566 SWAP1 PUSH2 0x37CF JUMP JUMPDEST DUP1 ISZERO PUSH2 0x25B3 JUMPI DUP1 PUSH1 0x1F LT PUSH2 0x2588 JUMPI PUSH2 0x100 DUP1 DUP4 SLOAD DIV MUL DUP4 MSTORE SWAP2 PUSH1 0x20 ADD SWAP2 PUSH2 0x25B3 JUMP JUMPDEST DUP3 ADD SWAP2 SWAP1 PUSH1 0x0 MSTORE PUSH1 0x20 PUSH1 0x0 KECCAK256 SWAP1 JUMPDEST DUP2 SLOAD DUP2 MSTORE SWAP1 PUSH1 0x1 ADD SWAP1 PUSH1 0x20 ADD DUP1 DUP4 GT PUSH2 0x2596 JUMPI DUP3 SWAP1 SUB PUSH1 0x1F AND DUP3 ADD SWAP2 JUMPDEST POP POP POP POP POP DUP2 MSTORE PUSH1 0x20 ADD PUSH1 0x2 DUP3 ADD DUP1 SLOAD PUSH2 0x25CC SWAP1 PUSH2 0x37CF JUMP JUMPDEST DUP1 PUSH1 0x1F ADD PUSH1 0x20 DUP1 SWAP2 DIV MUL PUSH1 0x20 ADD PUSH1 0x40 MLOAD SWAP1 DUP2 ADD PUSH1 0x40 MSTORE DUP1 SWAP3 SWAP2 SWAP1 DUP2 DUP2 MSTORE PUSH1 0x20 ADD DUP3 DUP1 SLOAD PUSH2 0x25F8 SWAP1 PUSH2 0x37CF JUMP JUMPDEST DUP1 ISZERO PUSH2 0x2645 JUMPI DUP1 PUSH1 0x1F LT PUSH2 0x261A JUMPI PUSH2 0x100 DUP1 DUP4 SLOAD DIV MUL DUP4 MSTORE SWAP2 PUSH1 0x20 ADD SWAP2 PUSH2 0x2645 JUMP JUMPDEST DUP3 ADD SWAP2 SWAP1 PUSH1 0x0 MSTORE PUSH1 0x20 PUSH1 0x0 KECCAK256 SWAP1 JUMPDEST DUP2 SLOAD DUP2 MSTORE SWAP1 PUSH1 0x1 ADD SWAP1 PUSH1 0x20 ADD DUP1 DUP4 GT PUSH2 0x2628 JUMPI DUP3 SWAP1 SUB PUSH1 0x1F AND DUP3 ADD SWAP2 JUMPDEST POP POP POP POP POP DUP2 MSTORE PUSH1 0x20 ADD PUSH1 0x3 DUP3 ADD DUP1 SLOAD PUSH2 0x265E SWAP1 PUSH2 0x37CF JUMP JUMPDEST DUP1 PUSH1 0x1F ADD PUSH1 0x20 DUP1 SWAP2 DIV MUL PUSH1 0x20 ADD PUSH1 0x40 MLOAD SWAP1 DUP2 ADD PUSH1 0x40 MSTORE DUP1 SWAP3 SWAP2 SWAP1 DUP2 DUP2 MSTORE PUSH1 0x20 ADD DUP3 DUP1 SLOAD PUSH2 0x268A SWAP1 PUSH2 0x37CF JUMP JUMPDEST DUP1 ISZERO PUSH2 0x26D7 JUMPI DUP1 PUSH1 0x1F LT PUSH2 0x26AC JUMPI PUSH2 0x100 DUP1 DUP4 SLOAD DIV MUL DUP4 MSTORE SWAP2 PUSH1 0x20 ADD SWAP2 PUSH2 0x26D7 JUMP JUMPDEST DUP3 ADD SWAP2 SWAP1 PUSH1 0x0 MSTORE PUSH1 0x20 PUSH1 0x0 KECCAK256 SWAP1 JUMPDEST DUP2 SLOAD DUP2 MSTORE SWAP1 PUSH1 0x1 ADD SWAP1 PUSH1 0x20 ADD DUP1 DUP4 GT PUSH2 0x26BA JUMPI DUP3 SWAP1 SUB PUSH1 0x1F AND DUP3 ADD SWAP2 JUMPDEST POP POP POP POP POP DUP2 MSTORE PUSH1 0x20 ADD PUSH1 0x4 DUP3 ADD PUSH1 0x0 SWAP1 SLOAD SWAP1 PUSH2 0x100 EXP SWAP1 DIV PUSH1 0xFF AND ISZERO ISZERO ISZERO ISZERO DUP2 MSTORE PUSH1 0x20 ADD PUSH1 0x5 DUP3 ADD PUSH1 0x40 MLOAD DUP1 PUSH1 0x80 ADD PUSH1 0x40 MSTORE SWAP1 DUP2 PUSH1 0x0 DUP3 ADD PUSH1 0x0 SWAP1 SLOAD SWAP1 PUSH2 0x100 EXP SWAP1 DIV PUSH1 0xFF AND ISZERO ISZERO ISZERO ISZERO DUP2 MSTORE PUSH1 0x20 ADD PUSH1 0x0 DUP3 ADD PUSH1 0x1 SWAP1 SLOAD SWAP1 PUSH2 0x100 EXP SWAP1 DIV PUSH1 0xFF AND ISZERO ISZERO ISZERO ISZERO DUP2 MSTORE PUSH1 0x20 ADD PUSH1 0x0 DUP3 ADD PUSH1 0x2 SWAP1 SLOAD SWAP1 PUSH2 0x100 EXP SWAP1 DIV PUSH1 0xFF AND ISZERO ISZERO ISZERO ISZERO DUP2 MSTORE PUSH1 0x20 ADD PUSH1 0x0 DUP3 ADD PUSH1 0x3 SWAP1 SLOAD SWAP1 PUSH2 0x100 EXP SWAP1 DIV PUSH1 0xFF AND ISZERO ISZERO ISZERO ISZERO DUP2 MSTORE POP POP DUP2 MSTORE POP POP SWAP1 POP PUSH1 0x0 PUSH20 0xFFFFFFFFFFFFFFFFFFFFFFFFFFFFFFFFFFFFFFFF AND DUP2 PUSH1 0x0 ADD MLOAD PUSH20 0xFFFFFFFFFFFFFFFFFFFFFFFFFFFFFFFFFFFFFFFF AND EQ PUSH2 0x27FB JUMPI DUP1 PUSH1 0x80 ADD MLOAD DUP1 ISZERO PUSH2 0x27EB JUMPI POP DUP1 PUSH1 0xA0 ADD MLOAD PUSH1 0x0 ADD MLOAD DUP1 PUSH2 0x27DA JUMPI POP DUP1 PUSH1 0xA0 ADD MLOAD PUSH1 0x20 ADD MLOAD JUMPDEST DUP1 PUSH2 0x27EA JUMPI POP DUP1 PUSH1 0xA0 ADD MLOAD PUSH1 0x40 ADD MLOAD JUMPDEST JUMPDEST ISZERO PUSH2 0x27FA JUMPI PUSH1 0x1 SWAP2 POP POP PUSH2 0x2801 JUMP JUMPDEST JUMPDEST PUSH1 0x0 SWAP2 POP POP JUMPDEST SWAP2 SWAP1 POP JUMP JUMPDEST DUP1 PUSH1 0x0 PUSH20 0xFFFFFFFFFFFFFFFFFFFFFFFFFFFFFFFFFFFFFFFF AND PUSH1 0x2 PUSH1 0x0 DUP4 PUSH20 0xFFFFFFFFFFFFFFFFFFFFFFFFFFFFFFFFFFFFFFFF AND PUSH20 0xFFFFFFFFFFFFFFFFFFFFFFFFFFFFFFFFFFFFFFFF AND DUP2 MSTORE PUSH1 0x20 ADD SWAP1 DUP2 MSTORE PUSH1 0x20 ADD PUSH1 0x0 KECCAK256 PUSH1 0x0 ADD PUSH1 0x0 SWAP1 SLOAD SWAP1 PUSH2 0x100 EXP SWAP1 DIV PUSH20 0xFFFFFFFFFFFFFFFFFFFFFFFFFFFFFFFFFFFFFFFF AND PUSH20 0xFFFFFFFFFFFFFFFFFFFFFFFFFFFFFFFFFFFFFFFF AND EQ ISZERO PUSH2 0x28D9 JUMPI PUSH1 0x40 MLOAD PUSH32 0x8C379A000000000000000000000000000000000000000000000000000000000 DUP2 MSTORE PUSH1 0x4 ADD PUSH2 0x28D0 SWAP1 PUSH2 0x3905 JUMP JUMPDEST PUSH1 0x40 MLOAD DUP1 SWAP2 SUB SWAP1 REVERT JUMPDEST PUSH2 0x28E2 DUP3 PUSH2 0x11E8 JUMP JUMPDEST PUSH1 0x2 PUSH1 0x0 DUP4 PUSH20 0xFFFFFFFFFFFFFFFFFFFFFFFFFFFFFFFFFFFFFFFF AND PUSH20 0xFFFFFFFFFFFFFFFFFFFFFFFFFFFFFFFFFFFFFFFF AND DUP2 MSTORE PUSH1 0x20 ADD SWAP1 DUP2 MSTORE PUSH1 0x20 ADD PUSH1 0x0 KECCAK256 PUSH1 0x0 DUP1 DUP3 ADD PUSH1 0x0 PUSH2 0x100 EXP DUP2 SLOAD SWAP1 PUSH20 0xFFFFFFFFFFFFFFFFFFFFFFFFFFFFFFFFFFFFFFFF MUL NOT AND SWAP1 SSTORE PUSH1 0x1 DUP3 ADD PUSH1 0x0 PUSH2 0x2959 SWAP2 SWAP1 PUSH2 0x313F JUMP JUMPDEST PUSH1 0x2 DUP3 ADD PUSH1 0x0 PUSH2 0x2969 SWAP2 SWAP1 PUSH2 0x313F JUMP JUMPDEST PUSH1 0x3 DUP3 ADD PUSH1 0x0 PUSH2 0x2979 SWAP2 SWAP1 PUSH2 0x313F JUMP JUMPDEST PUSH1 0x4 DUP3 ADD PUSH1 0x0 PUSH2 0x100 EXP DUP2 SLOAD SWAP1 PUSH1 0xFF MUL NOT AND SWAP1 SSTORE PUSH1 0x5 DUP3 ADD PUSH1 0x0 DUP1 DUP3 ADD PUSH1 0x0 PUSH2 0x100 EXP DUP2 SLOAD SWAP1 PUSH1 0xFF MUL NOT AND SWAP1 SSTORE PUSH1 0x0 DUP3 ADD PUSH1 0x1 PUSH2 0x100 EXP DUP2 SLOAD SWAP1 PUSH1 0xFF MUL NOT AND SWAP1 SSTORE PUSH1 0x0 DUP3 ADD PUSH1 0x2 PUSH2 0x100 EXP DUP2 SLOAD SWAP1 PUSH1 0xFF MUL NOT AND SWAP1 SSTORE PUSH1 0x0 DUP3 ADD PUSH1 0x3 PUSH2 0x100 EXP DUP2 SLOAD SWAP1 PUSH1 0xFF MUL NOT AND SWAP1 SSTORE POP POP POP POP POP POP JUMP JUMPDEST DUP4 PUSH1 0x0 PUSH20 0xFFFFFFFFFFFFFFFFFFFFFFFFFFFFFFFFFFFFFFFF AND PUSH1 0x2 PUSH1 0x0 DUP4 PUSH20 0xFFFFFFFFFFFFFFFFFFFFFFFFFFFFFFFFFFFFFFFF AND PUSH20 0xFFFFFFFFFFFFFFFFFFFFFFFFFFFFFFFFFFFFFFFF AND DUP2 MSTORE PUSH1 0x20 ADD SWAP1 DUP2 MSTORE PUSH1 0x20 ADD PUSH1 0x0 KECCAK256 PUSH1 0x0 ADD PUSH1 0x0 SWAP1 SLOAD SWAP1 PUSH2 0x100 EXP SWAP1 DIV PUSH20 0xFFFFFFFFFFFFFFFFFFFFFFFFFFFFFFFFFFFFFFFF AND PUSH20 0xFFFFFFFFFFFFFFFFFFFFFFFFFFFFFFFFFFFFFFFF AND EQ PUSH2 0x2ABC JUMPI PUSH1 0x40 MLOAD PUSH32 0x8C379A000000000000000000000000000000000000000000000000000000000 DUP2 MSTORE PUSH1 0x4 ADD PUSH2 0x2AB3 SWAP1 PUSH2 0x3B21 JUMP JUMPDEST PUSH1 0x40 MLOAD DUP1 SWAP2 SUB SWAP1 REVERT JUMPDEST PUSH1 0x0 PUSH1 0x40 MLOAD DUP1 PUSH1 0x80 ADD PUSH1 0x40 MSTORE DUP1 PUSH1 0x0 ISZERO ISZERO DUP2 MSTORE PUSH1 0x20 ADD PUSH1 0x0 ISZERO ISZERO DUP2 MSTORE PUSH1 0x20 ADD PUSH1 0x0 ISZERO ISZERO DUP2 MSTORE PUSH1 0x20 ADD PUSH1 0x1 ISZERO ISZERO DUP2 MSTORE POP SWAP1 POP PUSH1 0x0 PUSH1 0x40 MLOAD DUP1 PUSH1 0xC0 ADD PUSH1 0x40 MSTORE DUP1 DUP9 PUSH20 0xFFFFFFFFFFFFFFFFFFFFFFFFFFFFFFFFFFFFFFFF AND DUP2 MSTORE PUSH1 0x20 ADD DUP8 DUP2 MSTORE PUSH1 0x20 ADD DUP7 DUP2 MSTORE PUSH1 0x20 ADD DUP6 DUP2 MSTORE PUSH1 0x20 ADD PUSH1 0x0 ISZERO ISZERO DUP2 MSTORE PUSH1 0x20 ADD DUP4 DUP2 MSTORE POP SWAP1 POP DUP1 PUSH1 0x2 PUSH1 0x0 DUP10 PUSH20 0xFFFFFFFFFFFFFFFFFFFFFFFFFFFFFFFFFFFFFFFF AND PUSH20 0xFFFFFFFFFFFFFFFFFFFFFFFFFFFFFFFFFFFFFFFF AND DUP2 MSTORE PUSH1 0x20 ADD SWAP1 DUP2 MSTORE PUSH1 0x20 ADD PUSH1 0x0 KECCAK256 PUSH1 0x0 DUP3 ADD MLOAD DUP2 PUSH1 0x0 ADD PUSH1 0x0 PUSH2 0x100 EXP DUP2 SLOAD DUP2 PUSH20 0xFFFFFFFFFFFFFFFFFFFFFFFFFFFFFFFFFFFFFFFF MUL NOT AND SWAP1 DUP4 PUSH20 0xFFFFFFFFFFFFFFFFFFFFFFFFFFFFFFFFFFFFFFFF AND MUL OR SWAP1 SSTORE POP PUSH1 0x20 DUP3 ADD MLOAD DUP2 PUSH1 0x1 ADD SWAP1 DUP1 MLOAD SWAP1 PUSH1 0x20 ADD SWAP1 PUSH2 0x2BDA SWAP3 SWAP2 SWAP1 PUSH2 0x317F JUMP JUMPDEST POP PUSH1 0x40 DUP3 ADD MLOAD DUP2 PUSH1 0x2 ADD SWAP1 DUP1 MLOAD SWAP1 PUSH1 0x20 ADD SWAP1 PUSH2 0x2BF7 SWAP3 SWAP2 SWAP1 PUSH2 0x317F JUMP JUMPDEST POP PUSH1 0x60 DUP3 ADD MLOAD DUP2 PUSH1 0x3 ADD SWAP1 DUP1 MLOAD SWAP1 PUSH1 0x20 ADD SWAP1 PUSH2 0x2C14 SWAP3 SWAP2 SWAP1 PUSH2 0x317F JUMP JUMPDEST POP PUSH1 0x80 DUP3 ADD MLOAD DUP2 PUSH1 0x4 ADD PUSH1 0x0 PUSH2 0x100 EXP DUP2 SLOAD DUP2 PUSH1 0xFF MUL NOT AND SWAP1 DUP4 ISZERO ISZERO MUL OR SWAP1 SSTORE POP PUSH1 0xA0 DUP3 ADD MLOAD DUP2 PUSH1 0x5 ADD PUSH1 0x0 DUP3 ADD MLOAD DUP2 PUSH1 0x0 ADD PUSH1 0x0 PUSH2 0x100 EXP DUP2 SLOAD DUP2 PUSH1 0xFF MUL NOT AND SWAP1 DUP4 ISZERO ISZERO MUL OR SWAP1 SSTORE POP PUSH1 0x20 DUP3 ADD MLOAD DUP2 PUSH1 0x0 ADD PUSH1 0x1 PUSH2 0x100 EXP DUP2 SLOAD DUP2 PUSH1 0xFF MUL NOT AND SWAP1 DUP4 ISZERO ISZERO MUL OR SWAP1 SSTORE POP PUSH1 0x40 DUP3 ADD MLOAD DUP2 PUSH1 0x0 ADD PUSH1 0x2 PUSH2 0x100 EXP DUP2 SLOAD DUP2 PUSH1 0xFF MUL NOT AND SWAP1 DUP4 ISZERO ISZERO MUL OR SWAP1 SSTORE POP PUSH1 0x60 DUP3 ADD MLOAD DUP2 PUSH1 0x0 ADD PUSH1 0x3 PUSH2 0x100 EXP DUP2 SLOAD DUP2 PUSH1 0xFF MUL NOT AND SWAP1 DUP4 ISZERO ISZERO MUL OR SWAP1 SSTORE POP POP POP SWAP1 POP POP POP POP POP POP POP POP POP JUMP JUMPDEST PUSH1 0x0 PUSH2 0x2CD9 DUP3 PUSH1 0x3 PUSH2 0x2CF4 JUMP JUMPDEST SWAP1 POP SWAP2 SWAP1 POP JUMP JUMPDEST PUSH1 0x0 PUSH2 0x2CED DUP3 PUSH1 0x1 PUSH2 0x2CF4 JUMP JUMPDEST SWAP1 POP SWAP2 SWAP1 POP JUMP JUMPDEST PUSH1 0x0 DUP1 PUSH1 0x2 PUSH1 0x0 DUP6 PUSH20 0xFFFFFFFFFFFFFFFFFFFFFFFFFFFFFFFFFFFFFFFF AND PUSH20 0xFFFFFFFFFFFFFFFFFFFFFFFFFFFFFFFFFFFFFFFF AND DUP2 MSTORE PUSH1 0x20 ADD SWAP1 DUP2 MSTORE PUSH1 0x20 ADD PUSH1 0x0 KECCAK256 PUSH1 0x40 MLOAD DUP1 PUSH1 0xC0 ADD PUSH1 0x40 MSTORE SWAP1 DUP2 PUSH1 0x0 DUP3 ADD PUSH1 0x0 SWAP1 SLOAD SWAP1 PUSH2 0x100 EXP SWAP1 DIV PUSH20 0xFFFFFFFFFFFFFFFFFFFFFFFFFFFFFFFFFFFFFFFF AND PUSH20 0xFFFFFFFFFFFFFFFFFFFFFFFFFFFFFFFFFFFFFFFF AND PUSH20 0xFFFFFFFFFFFFFFFFFFFFFFFFFFFFFFFFFFFFFFFF AND DUP2 MSTORE PUSH1 0x20 ADD PUSH1 0x1 DUP3 ADD DUP1 SLOAD PUSH2 0x2DA7 SWAP1 PUSH2 0x37CF JUMP JUMPDEST DUP1 PUSH1 0x1F ADD PUSH1 0x20 DUP1 SWAP2 DIV MUL PUSH1 0x20 ADD PUSH1 0x40 MLOAD SWAP1 DUP2 ADD PUSH1 0x40 MSTORE DUP1 SWAP3 SWAP2 SWAP1 DUP2 DUP2 MSTORE PUSH1 0x20 ADD DUP3 DUP1 SLOAD PUSH2 0x2DD3 SWAP1 PUSH2 0x37CF JUMP JUMPDEST DUP1 ISZERO PUSH2 0x2E20 JUMPI DUP1 PUSH1 0x1F LT PUSH2 0x2DF5 JUMPI PUSH2 0x100 DUP1 DUP4 SLOAD DIV MUL DUP4 MSTORE SWAP2 PUSH1 0x20 ADD SWAP2 PUSH2 0x2E20 JUMP JUMPDEST DUP3 ADD SWAP2 SWAP1 PUSH1 0x0 MSTORE PUSH1 0x20 PUSH1 0x0 KECCAK256 SWAP1 JUMPDEST DUP2 SLOAD DUP2 MSTORE SWAP1 PUSH1 0x1 ADD SWAP1 PUSH1 0x20 ADD DUP1 DUP4 GT PUSH2 0x2E03 JUMPI DUP3 SWAP1 SUB PUSH1 0x1F AND DUP3 ADD SWAP2 JUMPDEST POP POP POP POP POP DUP2 MSTORE PUSH1 0x20 ADD PUSH1 0x2 DUP3 ADD DUP1 SLOAD PUSH2 0x2E39 SWAP1 PUSH2 0x37CF JUMP JUMPDEST DUP1 PUSH1 0x1F ADD PUSH1 0x20 DUP1 SWAP2 DIV MUL PUSH1 0x20 ADD PUSH1 0x40 MLOAD SWAP1 DUP2 ADD PUSH1 0x40 MSTORE DUP1 SWAP3 SWAP2 SWAP1 DUP2 DUP2 MSTORE PUSH1 0x20 ADD DUP3 DUP1 SLOAD PUSH2 0x2E65 SWAP1 PUSH2 0x37CF JUMP JUMPDEST DUP1 ISZERO PUSH2 0x2EB2 JUMPI DUP1 PUSH1 0x1F LT PUSH2 0x2E87 JUMPI PUSH2 0x100 DUP1 DUP4 SLOAD DIV MUL DUP4 MSTORE SWAP2 PUSH1 0x20 ADD SWAP2 PUSH2 0x2EB2 JUMP JUMPDEST DUP3 ADD SWAP2 SWAP1 PUSH1 0x0 MSTORE PUSH1 0x20 PUSH1 0x0 KECCAK256 SWAP1 JUMPDEST DUP2 SLOAD DUP2 MSTORE SWAP1 PUSH1 0x1 ADD SWAP1 PUSH1 0x20 ADD DUP1 DUP4 GT PUSH2 0x2E95 JUMPI DUP3 SWAP1 SUB PUSH1 0x1F AND DUP3 ADD SWAP2 JUMPDEST POP POP POP POP POP DUP2 MSTORE PUSH1 0x20 ADD PUSH1 0x3 DUP3 ADD DUP1 SLOAD PUSH2 0x2ECB SWAP1 PUSH2 0x37CF JUMP JUMPDEST DUP1 PUSH1 0x1F ADD PUSH1 0x20 DUP1 SWAP2 DIV MUL PUSH1 0x20 ADD PUSH1 0x40 MLOAD SWAP1 DUP2 ADD PUSH1 0x40 MSTORE DUP1 SWAP3 SWAP2 SWAP1 DUP2 DUP2 MSTORE PUSH1 0x20 ADD DUP3 DUP1 SLOAD PUSH2 0x2EF7 SWAP1 PUSH2 0x37CF JUMP JUMPDEST DUP1 ISZERO PUSH2 0x2F44 JUMPI DUP1 PUSH1 0x1F LT PUSH2 0x2F19 JUMPI PUSH2 0x100 DUP1 DUP4 SLOAD DIV MUL DUP4 MSTORE SWAP2 PUSH1 0x20 ADD SWAP2 PUSH2 0x2F44 JUMP JUMPDEST DUP3 ADD SWAP2 SWAP1 PUSH1 0x0 MSTORE PUSH1 0x20 PUSH1 0x0 KECCAK256 SWAP1 JUMPDEST DUP2 SLOAD DUP2 MSTORE SWAP1 PUSH1 0x1 ADD SWAP1 PUSH1 0x20 ADD DUP1 DUP4 GT PUSH2 0x2F27 JUMPI DUP3 SWAP1 SUB PUSH1 0x1F AND DUP3 ADD SWAP2 JUMPDEST POP POP POP POP POP DUP2 MSTORE PUSH1 0x20 ADD PUSH1 0x4 DUP3 ADD PUSH1 0x0 SWAP1 SLOAD SWAP1 PUSH2 0x100 EXP SWAP1 DIV PUSH1 0xFF AND ISZERO ISZERO ISZERO ISZERO DUP2 MSTORE PUSH1 0x20 ADD PUSH1 0x5 DUP3 ADD PUSH1 0x40 MLOAD DUP1 PUSH1 0x80 ADD PUSH1 0x40 MSTORE SWAP1 DUP2 PUSH1 0x0 DUP3 ADD PUSH1 0x0 SWAP1 SLOAD SWAP1 PUSH2 0x100 EXP SWAP1 DIV PUSH1 0xFF AND ISZERO ISZERO ISZERO ISZERO DUP2 MSTORE PUSH1 0x20 ADD PUSH1 0x0 DUP3 ADD PUSH1 0x1 SWAP1 SLOAD SWAP1 PUSH2 0x100 EXP SWAP1 DIV PUSH1 0xFF AND ISZERO ISZERO ISZERO ISZERO DUP2 MSTORE PUSH1 0x20 ADD PUSH1 0x0 DUP3 ADD PUSH1 0x2 SWAP1 SLOAD SWAP1 PUSH2 0x100 EXP SWAP1 DIV PUSH1 0xFF AND ISZERO ISZERO ISZERO ISZERO DUP2 MSTORE PUSH1 0x20 ADD PUSH1 0x0 DUP3 ADD PUSH1 0x3 SWAP1 SLOAD SWAP1 PUSH2 0x100 EXP SWAP1 DIV PUSH1 0xFF AND ISZERO ISZERO ISZERO ISZERO DUP2 MSTORE POP POP DUP2 MSTORE POP POP SWAP1 POP PUSH1 0x0 DUP2 PUSH1 0xA0 ADD MLOAD SWAP1 POP PUSH1 0x0 PUSH1 0x3 DUP2 GT ISZERO PUSH2 0x3007 JUMPI PUSH2 0x3006 PUSH2 0x3A3A JUMP JUMPDEST JUMPDEST DUP5 PUSH1 0x3 DUP2 GT ISZERO PUSH2 0x301A JUMPI PUSH2 0x3019 PUSH2 0x3A3A JUMP JUMPDEST JUMPDEST EQ ISZERO PUSH2 0x302E JUMPI DUP1 PUSH1 0x0 ADD MLOAD SWAP3 POP POP POP PUSH2 0x30E5 JUMP JUMPDEST PUSH1 0x1 PUSH1 0x3 DUP2 GT ISZERO PUSH2 0x3042 JUMPI PUSH2 0x3041 PUSH2 0x3A3A JUMP JUMPDEST JUMPDEST DUP5 PUSH1 0x3 DUP2 GT ISZERO PUSH2 0x3055 JUMPI PUSH2 0x3054 PUSH2 0x3A3A JUMP JUMPDEST JUMPDEST EQ ISZERO PUSH2 0x3069 JUMPI DUP1 PUSH1 0x20 ADD MLOAD SWAP3 POP POP POP PUSH2 0x30E5 JUMP JUMPDEST PUSH1 0x2 PUSH1 0x3 DUP2 GT ISZERO PUSH2 0x307D JUMPI PUSH2 0x307C PUSH2 0x3A3A JUMP JUMPDEST JUMPDEST DUP5 PUSH1 0x3 DUP2 GT ISZERO PUSH2 0x3090 JUMPI PUSH2 0x308F PUSH2 0x3A3A JUMP JUMPDEST JUMPDEST EQ ISZERO PUSH2 0x30A4 JUMPI DUP1 PUSH1 0x40 ADD MLOAD SWAP3 POP POP POP PUSH2 0x30E5 JUMP JUMPDEST PUSH1 0x3 DUP1 DUP2 GT ISZERO PUSH2 0x30B7 JUMPI PUSH2 0x30B6 PUSH2 0x3A3A JUMP JUMPDEST JUMPDEST DUP5 PUSH1 0x3 DUP2 GT ISZERO PUSH2 0x30CA JUMPI PUSH2 0x30C9 PUSH2 0x3A3A JUMP JUMPDEST JUMPDEST EQ ISZERO PUSH2 0x30DE JUMPI DUP1 PUSH1 0x60 ADD MLOAD SWAP3 POP POP POP PUSH2 0x30E5 JUMP JUMPDEST PUSH1 0x0 SWAP3 POP POP POP JUMPDEST SWAP3 SWAP2 POP POP JUMP JUMPDEST PUSH1 0x40 MLOAD DUP1 PUSH1 0xC0 ADD PUSH1 0x40 MSTORE DUP1 PUSH1 0x0 PUSH20 0xFFFFFFFFFFFFFFFFFFFFFFFFFFFFFFFFFFFFFFFF AND DUP2 MSTORE PUSH1 0x20 ADD PUSH1 0x60 DUP2 MSTORE PUSH1 0x20 ADD PUSH1 0x60 DUP2 MSTORE PUSH1 0x20 ADD PUSH1 0x60 DUP2 MSTORE PUSH1 0x20 ADD PUSH1 0x0 ISZERO ISZERO DUP2 MSTORE PUSH1 0x20 ADD PUSH2 0x3139 PUSH2 0x3205 JUMP JUMPDEST DUP2 MSTORE POP SWAP1 JUMP JUMPDEST POP DUP1 SLOAD PUSH2 0x314B SWAP1 PUSH2 0x37CF JUMP JUMPDEST PUSH1 0x0 DUP3 SSTORE DUP1 PUSH1 0x1F LT PUSH2 0x315D JUMPI POP PUSH2 0x317C JUMP JUMPDEST PUSH1 0x1F ADD PUSH1 0x20 SWAP1 DIV SWAP1 PUSH1 0x0 MSTORE PUSH1 0x20 PUSH1 0x0 KECCAK256 SWAP1 DUP2 ADD SWAP1 PUSH2 0x317B SWAP2 SWAP1 PUSH2 0x3235 JUMP JUMPDEST JUMPDEST POP JUMP JUMPDEST DUP3 DUP1 SLOAD PUSH2 0x318B SWAP1 PUSH2 0x37CF JUMP JUMPDEST SWAP1 PUSH1 0x0 MSTORE PUSH1 0x20 PUSH1 0x0 KECCAK256 SWAP1 PUSH1 0x1F ADD PUSH1 0x20 SWAP1 DIV DUP2 ADD SWAP3 DUP3 PUSH2 0x31AD JUMPI PUSH1 0x0 DUP6 SSTORE PUSH2 0x31F4 JUMP JUMPDEST DUP3 PUSH1 0x1F LT PUSH2 0x31C6 JUMPI DUP1 MLOAD PUSH1 0xFF NOT AND DUP4 DUP1 ADD OR DUP6 SSTORE PUSH2 0x31F4 JUMP JUMPDEST DUP3 DUP1 ADD PUSH1 0x1 ADD DUP6 SSTORE DUP3 ISZERO PUSH2 0x31F4 JUMPI SWAP2 DUP3 ADD JUMPDEST DUP3 DUP2 GT ISZERO PUSH2 0x31F3 JUMPI DUP3 MLOAD DUP3 SSTORE SWAP2 PUSH1 0x20 ADD SWAP2 SWAP1 PUSH1 0x1 ADD SWAP1 PUSH2 0x31D8 JUMP JUMPDEST JUMPDEST POP SWAP1 POP PUSH2 0x3201 SWAP2 SWAP1 PUSH2 0x3235 JUMP JUMPDEST POP SWAP1 JUMP JUMPDEST PUSH1 0x40 MLOAD DUP1 PUSH1 0x80 ADD PUSH1 0x40 MSTORE DUP1 PUSH1 0x0 ISZERO ISZERO DUP2 MSTORE PUSH1 0x20 ADD PUSH1 0x0 ISZERO ISZERO DUP2 MSTORE PUSH1 0x20 ADD PUSH1 0x0 ISZERO ISZERO DUP2 MSTORE PUSH1 0x20 ADD PUSH1 0x0 ISZERO ISZERO DUP2 MSTORE POP SWAP1 JUMP JUMPDEST JUMPDEST DUP1 DUP3 GT ISZERO PUSH2 0x324E JUMPI PUSH1 0x0 DUP2 PUSH1 0x0 SWAP1 SSTORE POP PUSH1 0x1 ADD PUSH2 0x3236 JUMP JUMPDEST POP SWAP1 JUMP JUMPDEST PUSH1 0x0 PUSH1 0x40 MLOAD SWAP1 POP SWAP1 JUMP JUMPDEST PUSH1 0x0 DUP1 REVERT JUMPDEST PUSH1 0x0 DUP1 REVERT JUMPDEST PUSH1 0x0 PUSH20 0xFFFFFFFFFFFFFFFFFFFFFFFFFFFFFFFFFFFFFFFF DUP3 AND SWAP1 POP SWAP2 SWAP1 POP JUMP JUMPDEST PUSH1 0x0 PUSH2 0x3291 DUP3 PUSH2 0x3266 JUMP JUMPDEST SWAP1 POP SWAP2 SWAP1 POP JUMP JUMPDEST PUSH2 0x32A1 DUP2 PUSH2 0x3286 JUMP JUMPDEST DUP2 EQ PUSH2 0x32AC JUMPI PUSH1 0x0 DUP1 REVERT JUMPDEST POP JUMP JUMPDEST PUSH1 0x0 DUP2 CALLDATALOAD SWAP1 POP PUSH2 0x32BE DUP2 PUSH2 0x3298 JUMP JUMPDEST SWAP3 SWAP2 POP POP JUMP JUMPDEST PUSH1 0x0 PUSH1 0x20 DUP3 DUP5 SUB SLT ISZERO PUSH2 0x32DA JUMPI PUSH2 0x32D9 PUSH2 0x325C JUMP JUMPDEST JUMPDEST PUSH1 0x0 PUSH2 0x32E8 DUP5 DUP3 DUP6 ADD PUSH2 0x32AF JUMP JUMPDEST SWAP2 POP POP SWAP3 SWAP2 POP POP JUMP JUMPDEST PUSH1 0x0 DUP2 ISZERO ISZERO SWAP1 POP SWAP2 SWAP1 POP JUMP JUMPDEST PUSH2 0x3306 DUP2 PUSH2 0x32F1 JUMP JUMPDEST DUP3 MSTORE POP POP JUMP JUMPDEST PUSH1 0x0 PUSH1 0x20 DUP3 ADD SWAP1 POP PUSH2 0x3321 PUSH1 0x0 DUP4 ADD DUP5 PUSH2 0x32FD JUMP JUMPDEST SWAP3 SWAP2 POP POP JUMP JUMPDEST PUSH1 0x0 DUP2 SWAP1 POP SWAP2 SWAP1 POP JUMP JUMPDEST PUSH2 0x333A DUP2 PUSH2 0x3327 JUMP JUMPDEST DUP3 MSTORE POP POP JUMP JUMPDEST PUSH1 0x0 PUSH1 0x20 DUP3 ADD SWAP1 POP PUSH2 0x3355 PUSH1 0x0 DUP4 ADD DUP5 PUSH2 0x3331 JUMP JUMPDEST SWAP3 SWAP2 POP POP JUMP JUMPDEST PUSH1 0x4 DUP2 LT PUSH2 0x3368 JUMPI PUSH1 0x0 DUP1 REVERT JUMPDEST POP JUMP JUMPDEST PUSH1 0x0 DUP2 CALLDATALOAD SWAP1 POP PUSH2 0x337A DUP2 PUSH2 0x335B JUMP JUMPDEST SWAP3 SWAP2 POP POP JUMP JUMPDEST PUSH1 0x0 DUP1 PUSH1 0x40 DUP4 DUP6 SUB SLT ISZERO PUSH2 0x3397 JUMPI PUSH2 0x3396 PUSH2 0x325C JUMP JUMPDEST JUMPDEST PUSH1 0x0 PUSH2 0x33A5 DUP6 DUP3 DUP7 ADD PUSH2 0x32AF JUMP JUMPDEST SWAP3 POP POP PUSH1 0x20 PUSH2 0x33B6 DUP6 DUP3 DUP7 ADD PUSH2 0x336B JUMP JUMPDEST SWAP2 POP POP SWAP3 POP SWAP3 SWAP1 POP JUMP JUMPDEST PUSH2 0x33C9 DUP2 PUSH2 0x3286 JUMP JUMPDEST DUP3 MSTORE POP POP JUMP JUMPDEST PUSH1 0x0 DUP2 MLOAD SWAP1 POP SWAP2 SWAP1 POP JUMP JUMPDEST PUSH1 0x0 DUP3 DUP3 MSTORE PUSH1 0x20 DUP3 ADD SWAP1 POP SWAP3 SWAP2 POP POP JUMP JUMPDEST PUSH1 0x0 JUMPDEST DUP4 DUP2 LT ISZERO PUSH2 0x3409 JUMPI DUP1 DUP3 ADD MLOAD DUP2 DUP5 ADD MSTORE PUSH1 0x20 DUP2 ADD SWAP1 POP PUSH2 0x33EE JUMP JUMPDEST DUP4 DUP2 GT ISZERO PUSH2 0x3418 JUMPI PUSH1 0x0 DUP5 DUP5 ADD MSTORE JUMPDEST POP POP POP POP JUMP JUMPDEST PUSH1 0x0 PUSH1 0x1F NOT PUSH1 0x1F DUP4 ADD AND SWAP1 POP SWAP2 SWAP1 POP JUMP JUMPDEST PUSH1 0x0 PUSH2 0x343A DUP3 PUSH2 0x33CF JUMP JUMPDEST PUSH2 0x3444 DUP2 DUP6 PUSH2 0x33DA JUMP JUMPDEST SWAP4 POP PUSH2 0x3454 DUP2 DUP6 PUSH1 0x20 DUP7 ADD PUSH2 0x33EB JUMP JUMPDEST PUSH2 0x345D DUP2 PUSH2 0x341E JUMP JUMPDEST DUP5 ADD SWAP2 POP POP SWAP3 SWAP2 POP POP JUMP JUMPDEST PUSH2 0x3471 DUP2 PUSH2 0x32F1 JUMP JUMPDEST DUP3 MSTORE POP POP JUMP JUMPDEST PUSH1 0x80 DUP3 ADD PUSH1 0x0 DUP3 ADD MLOAD PUSH2 0x348D PUSH1 0x0 DUP6 ADD DUP3 PUSH2 0x3468 JUMP JUMPDEST POP PUSH1 0x20 DUP3 ADD MLOAD PUSH2 0x34A0 PUSH1 0x20 DUP6 ADD DUP3 PUSH2 0x3468 JUMP JUMPDEST POP PUSH1 0x40 DUP3 ADD MLOAD PUSH2 0x34B3 PUSH1 0x40 DUP6 ADD DUP3 PUSH2 0x3468 JUMP JUMPDEST POP PUSH1 0x60 DUP3 ADD MLOAD PUSH2 0x34C6 PUSH1 0x60 DUP6 ADD DUP3 PUSH2 0x3468 JUMP JUMPDEST POP POP POP POP JUMP JUMPDEST PUSH1 0x0 PUSH2 0x120 DUP4 ADD PUSH1 0x0 DUP4 ADD MLOAD PUSH2 0x34E5 PUSH1 0x0 DUP7 ADD DUP3 PUSH2 0x33C0 JUMP JUMPDEST POP PUSH1 0x20 DUP4 ADD MLOAD DUP5 DUP3 SUB PUSH1 0x20 DUP7 ADD MSTORE PUSH2 0x34FD DUP3 DUP3 PUSH2 0x342F JUMP JUMPDEST SWAP2 POP POP PUSH1 0x40 DUP4 ADD MLOAD DUP5 DUP3 SUB PUSH1 0x40 DUP7 ADD MSTORE PUSH2 0x3517 DUP3 DUP3 PUSH2 0x342F JUMP JUMPDEST SWAP2 POP POP PUSH1 0x60 DUP4 ADD MLOAD DUP5 DUP3 SUB PUSH1 0x60 DUP7 ADD MSTORE PUSH2 0x3531 DUP3 DUP3 PUSH2 0x342F JUMP JUMPDEST SWAP2 POP POP PUSH1 0x80 DUP4 ADD MLOAD PUSH2 0x3546 PUSH1 0x80 DUP7 ADD DUP3 PUSH2 0x3468 JUMP JUMPDEST POP PUSH1 0xA0 DUP4 ADD MLOAD PUSH2 0x3559 PUSH1 0xA0 DUP7 ADD DUP3 PUSH2 0x3477 JUMP JUMPDEST POP DUP1 SWAP2 POP POP SWAP3 SWAP2 POP POP JUMP JUMPDEST PUSH1 0x0 PUSH1 0x20 DUP3 ADD SWAP1 POP DUP2 DUP2 SUB PUSH1 0x0 DUP4 ADD MSTORE PUSH2 0x357E DUP2 DUP5 PUSH2 0x34CC JUMP JUMPDEST SWAP1 POP SWAP3 SWAP2 POP POP JUMP JUMPDEST PUSH2 0x358F DUP2 PUSH2 0x3286 JUMP JUMPDEST DUP3 MSTORE POP POP JUMP JUMPDEST PUSH1 0x0 PUSH1 0x20 DUP3 ADD SWAP1 POP PUSH2 0x35AA PUSH1 0x0 DUP4 ADD DUP5 PUSH2 0x3586 JUMP JUMPDEST SWAP3 SWAP2 POP POP JUMP JUMPDEST PUSH1 0x0 DUP1 REVERT JUMPDEST PUSH1 0x0 DUP1 REVERT JUMPDEST PUSH32 0x4E487B7100000000000000000000000000000000000000000000000000000000 PUSH1 0x0 MSTORE PUSH1 0x41 PUSH1 0x4 MSTORE PUSH1 0x24 PUSH1 0x0 REVERT JUMPDEST PUSH2 0x35F2 DUP3 PUSH2 0x341E JUMP JUMPDEST DUP2 ADD DUP2 DUP2 LT PUSH8 0xFFFFFFFFFFFFFFFF DUP3 GT OR ISZERO PUSH2 0x3611 JUMPI PUSH2 0x3610 PUSH2 0x35BA JUMP JUMPDEST JUMPDEST DUP1 PUSH1 0x40 MSTORE POP POP POP JUMP JUMPDEST PUSH1 0x0 PUSH2 0x3624 PUSH2 0x3252 JUMP JUMPDEST SWAP1 POP PUSH2 0x3630 DUP3 DUP3 PUSH2 0x35E9 JUMP JUMPDEST SWAP2 SWAP1 POP JUMP JUMPDEST PUSH1 0x0 PUSH8 0xFFFFFFFFFFFFFFFF DUP3 GT ISZERO PUSH2 0x3650 JUMPI PUSH2 0x364F PUSH2 0x35BA JUMP JUMPDEST JUMPDEST PUSH2 0x3659 DUP3 PUSH2 0x341E JUMP JUMPDEST SWAP1 POP PUSH1 0x20 DUP2 ADD SWAP1 POP SWAP2 SWAP1 POP JUMP JUMPDEST DUP3 DUP2 DUP4 CALLDATACOPY PUSH1 0x0 DUP4 DUP4 ADD MSTORE POP POP POP JUMP JUMPDEST PUSH1 0x0 PUSH2 0x3688 PUSH2 0x3683 DUP5 PUSH2 0x3635 JUMP JUMPDEST PUSH2 0x361A JUMP JUMPDEST SWAP1 POP DUP3 DUP2 MSTORE PUSH1 0x20 DUP2 ADD DUP5 DUP5 DUP5 ADD GT ISZERO PUSH2 0x36A4 JUMPI PUSH2 0x36A3 PUSH2 0x35B5 JUMP JUMPDEST JUMPDEST PUSH2 0x36AF DUP5 DUP3 DUP6 PUSH2 0x3666 JUMP JUMPDEST POP SWAP4 SWAP3 POP POP POP JUMP JUMPDEST PUSH1 0x0 DUP3 PUSH1 0x1F DUP4 ADD SLT PUSH2 0x36CC JUMPI PUSH2 0x36CB PUSH2 0x35B0 JUMP JUMPDEST JUMPDEST DUP2 CALLDATALOAD PUSH2 0x36DC DUP5 DUP3 PUSH1 0x20 DUP7 ADD PUSH2 0x3675 JUMP JUMPDEST SWAP2 POP POP SWAP3 SWAP2 POP POP JUMP JUMPDEST PUSH1 0x0 DUP1 PUSH1 0x0 DUP1 PUSH1 0x80 DUP6 DUP8 SUB SLT ISZERO PUSH2 0x36FF JUMPI PUSH2 0x36FE PUSH2 0x325C JUMP JUMPDEST JUMPDEST PUSH1 0x0 PUSH2 0x370D DUP8 DUP3 DUP9 ADD PUSH2 0x32AF JUMP JUMPDEST SWAP5 POP POP PUSH1 0x20 DUP6 ADD CALLDATALOAD PUSH8 0xFFFFFFFFFFFFFFFF DUP2 GT ISZERO PUSH2 0x372E JUMPI PUSH2 0x372D PUSH2 0x3261 JUMP JUMPDEST JUMPDEST PUSH2 0x373A DUP8 DUP3 DUP9 ADD PUSH2 0x36B7 JUMP JUMPDEST SWAP4 POP POP PUSH1 0x40 DUP6 ADD CALLDATALOAD PUSH8 0xFFFFFFFFFFFFFFFF DUP2 GT ISZERO PUSH2 0x375B JUMPI PUSH2 0x375A PUSH2 0x3261 JUMP JUMPDEST JUMPDEST PUSH2 0x3767 DUP8 DUP3 DUP9 ADD PUSH2 0x36B7 JUMP JUMPDEST SWAP3 POP POP PUSH1 0x60 DUP6 ADD CALLDATALOAD PUSH8 0xFFFFFFFFFFFFFFFF DUP2 GT ISZERO PUSH2 0x3788 JUMPI PUSH2 0x3787 PUSH2 0x3261 JUMP JUMPDEST JUMPDEST PUSH2 0x3794 DUP8 DUP3 DUP9 ADD PUSH2 0x36B7 JUMP JUMPDEST SWAP2 POP POP SWAP3 SWAP6 SWAP2 SWAP5 POP SWAP3 POP JUMP JUMPDEST PUSH32 0x4E487B7100000000000000000000000000000000000000000000000000000000 PUSH1 0x0 MSTORE PUSH1 0x22 PUSH1 0x4 MSTORE PUSH1 0x24 PUSH1 0x0 REVERT JUMPDEST PUSH1 0x0 PUSH1 0x2 DUP3 DIV SWAP1 POP PUSH1 0x1 DUP3 AND DUP1 PUSH2 0x37E7 JUMPI PUSH1 0x7F DUP3 AND SWAP2 POP JUMPDEST PUSH1 0x20 DUP3 LT DUP2 EQ ISZERO PUSH2 0x37FB JUMPI PUSH2 0x37FA PUSH2 0x37A0 JUMP JUMPDEST JUMPDEST POP SWAP2 SWAP1 POP JUMP JUMPDEST PUSH32 0x4E487B7100000000000000000000000000000000000000000000000000000000 PUSH1 0x0 MSTORE PUSH1 0x32 PUSH1 0x4 MSTORE PUSH1 0x24 PUSH1 0x0 REVERT JUMPDEST PUSH32 0x4E487B7100000000000000000000000000000000000000000000000000000000 PUSH1 0x0 MSTORE PUSH1 0x11 PUSH1 0x4 MSTORE PUSH1 0x24 PUSH1 0x0 REVERT JUMPDEST PUSH1 0x0 PUSH2 0x386A DUP3 PUSH2 0x3327 JUMP JUMPDEST SWAP2 POP PUSH32 0xFFFFFFFFFFFFFFFFFFFFFFFFFFFFFFFFFFFFFFFFFFFFFFFFFFFFFFFFFFFFFFFF DUP3 EQ ISZERO PUSH2 0x389D JUMPI PUSH2 0x389C PUSH2 0x3830 JUMP JUMPDEST JUMPDEST PUSH1 0x1 DUP3 ADD SWAP1 POP SWAP2 SWAP1 POP JUMP JUMPDEST PUSH1 0x0 DUP3 DUP3 MSTORE PUSH1 0x20 DUP3 ADD SWAP1 POP SWAP3 SWAP2 POP POP JUMP JUMPDEST PUSH32 0x4163636F756E7420646F65736E27742065786973740000000000000000000000 PUSH1 0x0 DUP3 ADD MSTORE POP JUMP JUMPDEST PUSH1 0x0 PUSH2 0x38EF PUSH1 0x15 DUP4 PUSH2 0x38A8 JUMP JUMPDEST SWAP2 POP PUSH2 0x38FA DUP3 PUSH2 0x38B9 JUMP JUMPDEST PUSH1 0x20 DUP3 ADD SWAP1 POP SWAP2 SWAP1 POP JUMP JUMPDEST PUSH1 0x0 PUSH1 0x20 DUP3 ADD SWAP1 POP DUP2 DUP2 SUB PUSH1 0x0 DUP4 ADD MSTORE PUSH2 0x391E DUP2 PUSH2 0x38E2 JUMP JUMPDEST SWAP1 POP SWAP2 SWAP1 POP JUMP JUMPDEST PUSH1 0x0 PUSH2 0x3930 DUP3 PUSH2 0x3327 JUMP JUMPDEST SWAP2 POP PUSH1 0x0 DUP3 EQ ISZERO PUSH2 0x3944 JUMPI PUSH2 0x3943 PUSH2 0x3830 JUMP JUMPDEST JUMPDEST PUSH1 0x1 DUP3 SUB SWAP1 POP SWAP2 SWAP1 POP JUMP JUMPDEST PUSH2 0x3958 DUP2 PUSH2 0x32F1 JUMP JUMPDEST DUP2 EQ PUSH2 0x3963 JUMPI PUSH1 0x0 DUP1 REVERT JUMPDEST POP JUMP JUMPDEST PUSH1 0x0 DUP2 MLOAD SWAP1 POP PUSH2 0x3975 DUP2 PUSH2 0x394F JUMP JUMPDEST SWAP3 SWAP2 POP POP JUMP JUMPDEST PUSH1 0x0 PUSH1 0x20 DUP3 DUP5 SUB SLT ISZERO PUSH2 0x3991 JUMPI PUSH2 0x3990 PUSH2 0x325C JUMP JUMPDEST JUMPDEST PUSH1 0x0 PUSH2 0x399F DUP5 DUP3 DUP6 ADD PUSH2 0x3966 JUMP JUMPDEST SWAP2 POP POP SWAP3 SWAP2 POP POP JUMP JUMPDEST PUSH32 0x4F6E6C79206F776E65722063616E2063616C6C20746869732066756E6374696F PUSH1 0x0 DUP3 ADD MSTORE PUSH32 0x6E2E000000000000000000000000000000000000000000000000000000000000 PUSH1 0x20 DUP3 ADD MSTORE POP JUMP JUMPDEST PUSH1 0x0 PUSH2 0x3A04 PUSH1 0x22 DUP4 PUSH2 0x38A8 JUMP JUMPDEST SWAP2 POP PUSH2 0x3A0F DUP3 PUSH2 0x39A8 JUMP JUMPDEST PUSH1 0x40 DUP3 ADD SWAP1 POP SWAP2 SWAP1 POP JUMP JUMPDEST PUSH1 0x0 PUSH1 0x20 DUP3 ADD SWAP1 POP DUP2 DUP2 SUB PUSH1 0x0 DUP4 ADD MSTORE PUSH2 0x3A33 DUP2 PUSH2 0x39F7 JUMP JUMPDEST SWAP1 POP SWAP2 SWAP1 POP JUMP JUMPDEST PUSH32 0x4E487B7100000000000000000000000000000000000000000000000000000000 PUSH1 0x0 MSTORE PUSH1 0x21 PUSH1 0x4 MSTORE PUSH1 0x24 PUSH1 0x0 REVERT JUMPDEST PUSH32 0x55736572206E6F7420666F756E64210000000000000000000000000000000000 PUSH1 0x0 DUP3 ADD MSTORE POP JUMP JUMPDEST PUSH1 0x0 PUSH2 0x3A9F PUSH1 0xF DUP4 PUSH2 0x38A8 JUMP JUMPDEST SWAP2 POP PUSH2 0x3AAA DUP3 PUSH2 0x3A69 JUMP JUMPDEST PUSH1 0x20 DUP3 ADD SWAP1 POP SWAP2 SWAP1 POP JUMP JUMPDEST PUSH1 0x0 PUSH1 0x20 DUP3 ADD SWAP1 POP DUP2 DUP2 SUB PUSH1 0x0 DUP4 ADD MSTORE PUSH2 0x3ACE DUP2 PUSH2 0x3A92 JUMP JUMPDEST SWAP1 POP SWAP2 SWAP1 POP JUMP JUMPDEST PUSH32 0x4163636F756E7420616C72656164792065786973747300000000000000000000 PUSH1 0x0 DUP3 ADD MSTORE POP JUMP JUMPDEST PUSH1 0x0 PUSH2 0x3B0B PUSH1 0x16 DUP4 PUSH2 0x38A8 JUMP JUMPDEST SWAP2 POP PUSH2 0x3B16 DUP3 PUSH2 0x3AD5 JUMP JUMPDEST PUSH1 0x20 DUP3 ADD SWAP1 POP SWAP2 SWAP1 POP JUMP JUMPDEST PUSH1 0x0 PUSH1 0x20 DUP3 ADD SWAP1 POP DUP2 DUP2 SUB PUSH1 0x0 DUP4 ADD MSTORE PUSH2 0x3B3A DUP2 PUSH2 0x3AFE JUMP JUMPDEST SWAP1 POP SWAP2 SWAP1 POP JUMP INVALID LOG2 PUSH5 0x6970667358 0x22 SLT KECCAK256 REVERT SDIV PUSH15 0xC8305B359BD17B3531CA5D461AD3AD SWAP8 0xD3 0xB8 0xB0 0xCF 0x24 BALANCE SELFDESTRUCT 0xEB INVALID ADDRESS MULMOD CREATE EXTCODEHASH PUSH5 0x736F6C6343 STOP ADDMOD 0xC STOP CALLER "
				},
				"gasEstimates": {
					"creation": {
						"codeDepositCost": "3044600",
						"executionCost": "infinite",
						"totalCost": "infinite"
					},
					"external": {
						"activeMemberCount()": "2496",
						"assignRole(address,uint8)": "infinite",
						"burnAccount(address)": "infinite",
						"createAccount(address,string,string,string)": "infinite",
						"getActiveMemberCount()": "2505",
						"getUser(address)": "infinite",
						"hasCouncilMemberRole(address)": "infinite",
						"hasGuestRole(address)": "infinite",
						"hasLeaderRole(address)": "infinite",
						"hasMemberRole(address)": "infinite",
						"hasRightToCreateReferendum(address)": "infinite",
						"hasRightToSupport(address)": "infinite",
						"hasRightToVote(address)": "infinite",
						"makeAccountActive(address)": "87109",
						"makeAccountPassive(address)": "78114",
						"owner()": "2559",
						"removeRole(address,uint8)": "infinite",
						"testAccountManagement()": "infinite"
					},
					"internal": {
						"assignCouncilMember(address)": "infinite",
						"assignGuest(address)": "infinite",
						"assignLeader(address)": "infinite",
						"assignMember(address)": "infinite",
						"hasRole(address,enum AccountManagement.Role)": "infinite",
						"removeCouncilMember(address)": "infinite",
						"removeGuest(address)": "infinite",
						"removeLeader(address)": "infinite",
						"removeMember(address)": "infinite"
					}
				},
				"methodIdentifiers": {
					"activeMemberCount()": "5fb6c6ed",
					"assignRole(address,uint8)": "630a195b",
					"burnAccount(address)": "d3a5059a",
					"createAccount(address,string,string,string)": "dee94b4a",
					"getActiveMemberCount()": "22faa41f",
					"getUser(address)": "6f77926b",
					"hasCouncilMemberRole(address)": "fa4d7aae",
					"hasGuestRole(address)": "e8621e59",
					"hasLeaderRole(address)": "297027d5",
					"hasMemberRole(address)": "056909b7",
					"hasRightToCreateReferendum(address)": "01eb0857",
					"hasRightToSupport(address)": "c2b7d948",
					"hasRightToVote(address)": "65c93769",
					"makeAccountActive(address)": "a1aea04a",
					"makeAccountPassive(address)": "49587281",
					"owner()": "8da5cb5b",
					"removeRole(address,uint8)": "b74866fb",
					"testAccountManagement()": "247ae7a3"
				}
			},
			"storageLayout": {
				"storage": [
					{
						"astId": 47,
						"contract": "OnDemo/contracts/AccountManagement.sol:AccountManagement",
						"label": "activeMemberCount",
						"offset": 0,
						"slot": "0",
						"type": "t_uint256"
					},
					{
						"astId": 49,
						"contract": "OnDemo/contracts/AccountManagement.sol:AccountManagement",
						"label": "owner",
						"offset": 0,
						"slot": "1",
						"type": "t_address"
					},
					{
						"astId": 54,
						"contract": "OnDemo/contracts/AccountManagement.sol:AccountManagement",
						"label": "users",
						"offset": 0,
						"slot": "2",
						"type": "t_mapping(t_address,t_struct(User)20_storage)"
					},
					{
						"astId": 58,
						"contract": "OnDemo/contracts/AccountManagement.sol:AccountManagement",
						"label": "activeMembers",
						"offset": 0,
						"slot": "3",
						"type": "t_mapping(t_address,t_bool)"
					}
				],
				"types": {
					"t_address": {
						"encoding": "inplace",
						"label": "address",
						"numberOfBytes": "20"
					},
					"t_bool": {
						"encoding": "inplace",
						"label": "bool",
						"numberOfBytes": "1"
					},
					"t_mapping(t_address,t_bool)": {
						"encoding": "mapping",
						"key": "t_address",
						"label": "mapping(address => bool)",
						"numberOfBytes": "32",
						"value": "t_bool"
					},
					"t_mapping(t_address,t_struct(User)20_storage)": {
						"encoding": "mapping",
						"key": "t_address",
						"label": "mapping(address => struct AccountManagement.User)",
						"numberOfBytes": "32",
						"value": "t_struct(User)20_storage"
					},
					"t_string_storage": {
						"encoding": "bytes",
						"label": "string",
						"numberOfBytes": "32"
					},
					"t_struct(RoleMap)29_storage": {
						"encoding": "inplace",
						"label": "struct AccountManagement.RoleMap",
						"members": [
							{
								"astId": 22,
								"contract": "OnDemo/contracts/AccountManagement.sol:AccountManagement",
								"label": "isLeader",
								"offset": 0,
								"slot": "0",
								"type": "t_bool"
							},
							{
								"astId": 24,
								"contract": "OnDemo/contracts/AccountManagement.sol:AccountManagement",
								"label": "isCouncilMember",
								"offset": 1,
								"slot": "0",
								"type": "t_bool"
							},
							{
								"astId": 26,
								"contract": "OnDemo/contracts/AccountManagement.sol:AccountManagement",
								"label": "isMember",
								"offset": 2,
								"slot": "0",
								"type": "t_bool"
							},
							{
								"astId": 28,
								"contract": "OnDemo/contracts/AccountManagement.sol:AccountManagement",
								"label": "isGuest",
								"offset": 3,
								"slot": "0",
								"type": "t_bool"
							}
						],
						"numberOfBytes": "32"
					},
					"t_struct(User)20_storage": {
						"encoding": "inplace",
						"label": "struct AccountManagement.User",
						"members": [
							{
								"astId": 8,
								"contract": "OnDemo/contracts/AccountManagement.sol:AccountManagement",
								"label": "userAddress",
								"offset": 0,
								"slot": "0",
								"type": "t_address"
							},
							{
								"astId": 10,
								"contract": "OnDemo/contracts/AccountManagement.sol:AccountManagement",
								"label": "firstName",
								"offset": 0,
								"slot": "1",
								"type": "t_string_storage"
							},
							{
								"astId": 12,
								"contract": "OnDemo/contracts/AccountManagement.sol:AccountManagement",
								"label": "secondName",
								"offset": 0,
								"slot": "2",
								"type": "t_string_storage"
							},
							{
								"astId": 14,
								"contract": "OnDemo/contracts/AccountManagement.sol:AccountManagement",
								"label": "mailAdress",
								"offset": 0,
								"slot": "3",
								"type": "t_string_storage"
							},
							{
								"astId": 16,
								"contract": "OnDemo/contracts/AccountManagement.sol:AccountManagement",
								"label": "isActive",
								"offset": 0,
								"slot": "4",
								"type": "t_bool"
							},
							{
								"astId": 19,
								"contract": "OnDemo/contracts/AccountManagement.sol:AccountManagement",
								"label": "roleMap",
								"offset": 0,
								"slot": "5",
								"type": "t_struct(RoleMap)29_storage"
							}
						],
						"numberOfBytes": "192"
					},
					"t_uint256": {
						"encoding": "inplace",
						"label": "uint256",
						"numberOfBytes": "32"
					}
				}
			},
			"userdoc": {
				"kind": "user",
				"methods": {},
				"version": 1
			}
		}
	}
}