{
	"contracts/Consultation.sol": {
		"Consultation": {
			"abi": [
				{
					"inputs": [
						{
							"internalType": "uint256",
							"name": "_index",
							"type": "uint256"
						},
						{
							"internalType": "string",
							"name": "_title",
							"type": "string"
						},
						{
							"internalType": "string",
							"name": "_description",
							"type": "string"
						}
					],
					"stateMutability": "nonpayable",
					"type": "constructor"
				},
				{
					"inputs": [
						{
							"internalType": "string",
							"name": "_newDscription",
							"type": "string"
						}
					],
					"name": "changeDescription",
					"outputs": [],
					"stateMutability": "nonpayable",
					"type": "function"
				},
				{
					"inputs": [
						{
							"internalType": "string",
							"name": "_newTitle",
							"type": "string"
						}
					],
					"name": "changeTitle",
					"outputs": [],
					"stateMutability": "nonpayable",
					"type": "function"
				},
				{
					"inputs": [],
					"name": "description",
					"outputs": [
						{
							"internalType": "string",
							"name": "",
							"type": "string"
						}
					],
					"stateMutability": "view",
					"type": "function"
				},
				{
					"inputs": [],
					"name": "disable",
					"outputs": [],
					"stateMutability": "nonpayable",
					"type": "function"
				},
				{
					"inputs": [],
					"name": "getResult",
					"outputs": [
						{
							"internalType": "string",
							"name": "",
							"type": "string"
						}
					],
					"stateMutability": "view",
					"type": "function"
				},
				{
					"inputs": [],
					"name": "index",
					"outputs": [
						{
							"internalType": "uint256",
							"name": "",
							"type": "uint256"
						}
					],
					"stateMutability": "view",
					"type": "function"
				},
				{
					"inputs": [],
					"name": "title",
					"outputs": [
						{
							"internalType": "string",
							"name": "",
							"type": "string"
						}
					],
					"stateMutability": "view",
					"type": "function"
				},
				{
					"inputs": [],
					"name": "voteAgainst",
					"outputs": [],
					"stateMutability": "nonpayable",
					"type": "function"
				},
				{
					"inputs": [],
					"name": "voteAgainstCount",
					"outputs": [
						{
							"internalType": "int256",
							"name": "",
							"type": "int256"
						}
					],
					"stateMutability": "view",
					"type": "function"
				},
				{
					"inputs": [],
					"name": "votePro",
					"outputs": [],
					"stateMutability": "nonpayable",
					"type": "function"
				},
				{
					"inputs": [],
					"name": "voteProCount",
					"outputs": [
						{
							"internalType": "int256",
							"name": "",
							"type": "int256"
						}
					],
					"stateMutability": "view",
					"type": "function"
				}
			],
			"devdoc": {
				"kind": "dev",
				"methods": {},
				"version": 1
			},
			"evm": {
				"assembly": "    /* \"contracts/Consultation.sol\":1233:3114  contract Consultation {\r... */\n  mstore(0x40, 0x80)\n    /* \"contracts/Consultation.sol\":1431:1432  0 */\n  0x00\n    /* \"contracts/Consultation.sol\":1405:1432  int public voteProCount = 0 */\n  0x05\n  sstore\n    /* \"contracts/Consultation.sol\":1469:1470  0 */\n  0x00\n    /* \"contracts/Consultation.sol\":1439:1470  int public voteAgainstCount = 0 */\n  0x06\n  sstore\n    /* \"contracts/Consultation.sol\":1494:1498  true */\n  0x01\n    /* \"contracts/Consultation.sol\":1477:1498  bool isEnabled = true */\n  0x07\n  exp(0x0100, 0x00)\n  dup2\n  sload\n  dup2\n  0xff\n  mul\n  not\n  and\n  swap1\n  dup4\n  iszero\n  iszero\n  mul\n  or\n  swap1\n  sstore\n  pop\n    /* \"contracts/Consultation.sol\":1507:1733  constructor(uint _index, string memory _title, string memory _description) {\r... */\n  callvalue\n  dup1\n  iszero\n  tag_1\n  jumpi\n  0x00\n  dup1\n  revert\ntag_1:\n  pop\n  mload(0x40)\n  sub(codesize, bytecodeSize)\n  dup1\n  bytecodeSize\n  dup4\n  codecopy\n  dup2\n  dup2\n  add\n  0x40\n  mstore\n  dup2\n  add\n  swap1\n  tag_2\n  swap2\n  swap1\n  tag_3\n  jump\t// in\ntag_2:\n    /* \"contracts/Consultation.sol\":1601:1611  msg.sender */\n  caller\n    /* \"contracts/Consultation.sol\":1593:1598  owner */\n  0x00\n  dup1\n    /* \"contracts/Consultation.sol\":1593:1611  owner = msg.sender */\n  0x0100\n  exp\n  dup2\n  sload\n  dup2\n  0xffffffffffffffffffffffffffffffffffffffff\n  mul\n  not\n  and\n  swap1\n  dup4\n  0xffffffffffffffffffffffffffffffffffffffff\n  and\n  mul\n  or\n  swap1\n  sstore\n  pop\n    /* \"contracts/Consultation.sol\":1630:1636  _index */\n  dup3\n    /* \"contracts/Consultation.sol\":1622:1627  index */\n  0x01\n    /* \"contracts/Consultation.sol\":1622:1636  index = _index */\n  dup2\n  swap1\n  sstore\n  pop\n    /* \"contracts/Consultation.sol\":1655:1661  _title */\n  dup2\n    /* \"contracts/Consultation.sol\":1647:1652  title */\n  0x02\n    /* \"contracts/Consultation.sol\":1647:1661  title = _title */\n  swap1\n  dup1\n  mload\n  swap1\n  0x20\n  add\n  swap1\n  tag_6\n  swap3\n  swap2\n  swap1\n  tag_7\n  jump\t// in\ntag_6:\n  pop\n    /* \"contracts/Consultation.sol\":1686:1698  _description */\n  dup1\n    /* \"contracts/Consultation.sol\":1672:1683  description */\n  0x03\n    /* \"contracts/Consultation.sol\":1672:1698  description = _description */\n  swap1\n  dup1\n  mload\n  swap1\n  0x20\n  add\n  swap1\n  tag_8\n  swap3\n  swap2\n  swap1\n  tag_7\n  jump\t// in\ntag_8:\n  pop\n    /* \"contracts/Consultation.sol\":1721:1725  true */\n  0x01\n    /* \"contracts/Consultation.sol\":1709:1718  isEnabled */\n  0x07\n  0x00\n    /* \"contracts/Consultation.sol\":1709:1725  isEnabled = true */\n  0x0100\n  exp\n  dup2\n  sload\n  dup2\n  0xff\n  mul\n  not\n  and\n  swap1\n  dup4\n  iszero\n  iszero\n  mul\n  or\n  swap1\n  sstore\n  pop\n    /* \"contracts/Consultation.sol\":1507:1733  constructor(uint _index, string memory _title, string memory _description) {\r... */\n  pop\n  pop\n  pop\n    /* \"contracts/Consultation.sol\":1233:3114  contract Consultation {\r... */\n  jump(tag_9)\ntag_7:\n  dup3\n  dup1\n  sload\n  tag_10\n  swap1\n  tag_11\n  jump\t// in\ntag_10:\n  swap1\n  0x00\n  mstore\n  keccak256(0x00, 0x20)\n  swap1\n  0x1f\n  add\n  0x20\n  swap1\n  div\n  dup2\n  add\n  swap3\n  dup3\n  tag_13\n  jumpi\n  0x00\n  dup6\n  sstore\n  jump(tag_12)\ntag_13:\n  dup3\n  0x1f\n  lt\n  tag_14\n  jumpi\n  dup1\n  mload\n  not(0xff)\n  and\n  dup4\n  dup1\n  add\n  or\n  dup6\n  sstore\n  jump(tag_12)\ntag_14:\n  dup3\n  dup1\n  add\n  0x01\n  add\n  dup6\n  sstore\n  dup3\n  iszero\n  tag_12\n  jumpi\n  swap2\n  dup3\n  add\ntag_15:\n  dup3\n  dup2\n  gt\n  iszero\n  tag_16\n  jumpi\n  dup3\n  mload\n  dup3\n  sstore\n  swap2\n  0x20\n  add\n  swap2\n  swap1\n  0x01\n  add\n  swap1\n  jump(tag_15)\ntag_16:\ntag_12:\n  pop\n  swap1\n  pop\n  tag_17\n  swap2\n  swap1\n  tag_18\n  jump\t// in\ntag_17:\n  pop\n  swap1\n  jump\t// out\ntag_18:\ntag_19:\n  dup1\n  dup3\n  gt\n  iszero\n  tag_20\n  jumpi\n  0x00\n  dup2\n  0x00\n  swap1\n  sstore\n  pop\n  0x01\n  add\n  jump(tag_19)\ntag_20:\n  pop\n  swap1\n  jump\t// out\n    /* \"#utility.yul\":7:361   */\ntag_22:\n  0x00\n    /* \"#utility.yul\":121:187   */\n  tag_24\n    /* \"#utility.yul\":137:186   */\n  tag_25\n    /* \"#utility.yul\":179:185   */\n  dup5\n    /* \"#utility.yul\":137:186   */\n  tag_26\n  jump\t// in\ntag_25:\n    /* \"#utility.yul\":121:187   */\n  tag_27\n  jump\t// in\ntag_24:\n    /* \"#utility.yul\":112:187   */\n  swap1\n  pop\n    /* \"#utility.yul\":210:216   */\n  dup3\n    /* \"#utility.yul\":203:208   */\n  dup2\n    /* \"#utility.yul\":196:217   */\n  mstore\n    /* \"#utility.yul\":248:252   */\n  0x20\n    /* \"#utility.yul\":241:246   */\n  dup2\n    /* \"#utility.yul\":237:253   */\n  add\n    /* \"#utility.yul\":286:289   */\n  dup5\n    /* \"#utility.yul\":277:283   */\n  dup5\n    /* \"#utility.yul\":272:275   */\n  dup5\n    /* \"#utility.yul\":268:284   */\n  add\n    /* \"#utility.yul\":265:290   */\n  gt\n    /* \"#utility.yul\":262:264   */\n  iszero\n  tag_28\n  jumpi\n    /* \"#utility.yul\":303:304   */\n  0x00\n    /* \"#utility.yul\":300:301   */\n  dup1\n    /* \"#utility.yul\":293:305   */\n  revert\n    /* \"#utility.yul\":262:264   */\ntag_28:\n    /* \"#utility.yul\":316:355   */\n  tag_29\n    /* \"#utility.yul\":348:354   */\n  dup5\n    /* \"#utility.yul\":343:346   */\n  dup3\n    /* \"#utility.yul\":338:341   */\n  dup6\n    /* \"#utility.yul\":316:355   */\n  tag_30\n  jump\t// in\ntag_29:\n    /* \"#utility.yul\":102:361   */\n  pop\n  swap4\n  swap3\n  pop\n  pop\n  pop\n  jump\t// out\n    /* \"#utility.yul\":381:669   */\ntag_31:\n  0x00\n    /* \"#utility.yul\":497:500   */\n  dup3\n    /* \"#utility.yul\":490:494   */\n  0x1f\n    /* \"#utility.yul\":482:488   */\n  dup4\n    /* \"#utility.yul\":478:495   */\n  add\n    /* \"#utility.yul\":474:501   */\n  slt\n    /* \"#utility.yul\":464:466   */\n  tag_33\n  jumpi\n    /* \"#utility.yul\":515:516   */\n  0x00\n    /* \"#utility.yul\":512:513   */\n  dup1\n    /* \"#utility.yul\":505:517   */\n  revert\n    /* \"#utility.yul\":464:466   */\ntag_33:\n    /* \"#utility.yul\":548:554   */\n  dup2\n    /* \"#utility.yul\":542:555   */\n  mload\n    /* \"#utility.yul\":573:663   */\n  tag_34\n    /* \"#utility.yul\":659:662   */\n  dup5\n    /* \"#utility.yul\":651:657   */\n  dup3\n    /* \"#utility.yul\":644:648   */\n  0x20\n    /* \"#utility.yul\":636:642   */\n  dup7\n    /* \"#utility.yul\":632:649   */\n  add\n    /* \"#utility.yul\":573:663   */\n  tag_22\n  jump\t// in\ntag_34:\n    /* \"#utility.yul\":564:663   */\n  swap2\n  pop\n    /* \"#utility.yul\":454:669   */\n  pop\n  swap3\n  swap2\n  pop\n  pop\n  jump\t// out\n    /* \"#utility.yul\":675:818   */\ntag_35:\n  0x00\n    /* \"#utility.yul\":763:769   */\n  dup2\n    /* \"#utility.yul\":757:770   */\n  mload\n    /* \"#utility.yul\":748:770   */\n  swap1\n  pop\n    /* \"#utility.yul\":779:812   */\n  tag_37\n    /* \"#utility.yul\":806:811   */\n  dup2\n    /* \"#utility.yul\":779:812   */\n  tag_38\n  jump\t// in\ntag_37:\n    /* \"#utility.yul\":738:818   */\n  swap3\n  swap2\n  pop\n  pop\n  jump\t// out\n    /* \"#utility.yul\":824:1632   */\ntag_3:\n  0x00\n  dup1\n  0x00\n    /* \"#utility.yul\":997:999   */\n  0x60\n    /* \"#utility.yul\":985:994   */\n  dup5\n    /* \"#utility.yul\":976:983   */\n  dup7\n    /* \"#utility.yul\":972:995   */\n  sub\n    /* \"#utility.yul\":968:1000   */\n  slt\n    /* \"#utility.yul\":965:967   */\n  iszero\n  tag_40\n  jumpi\n    /* \"#utility.yul\":1013:1014   */\n  0x00\n    /* \"#utility.yul\":1010:1011   */\n  dup1\n    /* \"#utility.yul\":1003:1015   */\n  revert\n    /* \"#utility.yul\":965:967   */\ntag_40:\n    /* \"#utility.yul\":1056:1057   */\n  0x00\n    /* \"#utility.yul\":1081:1145   */\n  tag_41\n    /* \"#utility.yul\":1137:1144   */\n  dup7\n    /* \"#utility.yul\":1128:1134   */\n  dup3\n    /* \"#utility.yul\":1117:1126   */\n  dup8\n    /* \"#utility.yul\":1113:1135   */\n  add\n    /* \"#utility.yul\":1081:1145   */\n  tag_35\n  jump\t// in\ntag_41:\n    /* \"#utility.yul\":1071:1145   */\n  swap4\n  pop\n    /* \"#utility.yul\":1027:1155   */\n  pop\n    /* \"#utility.yul\":1215:1217   */\n  0x20\n    /* \"#utility.yul\":1204:1213   */\n  dup5\n    /* \"#utility.yul\":1200:1218   */\n  add\n    /* \"#utility.yul\":1194:1219   */\n  mload\n    /* \"#utility.yul\":1246:1264   */\n  0xffffffffffffffff\n    /* \"#utility.yul\":1238:1244   */\n  dup2\n    /* \"#utility.yul\":1235:1265   */\n  gt\n    /* \"#utility.yul\":1232:1234   */\n  iszero\n  tag_42\n  jumpi\n    /* \"#utility.yul\":1278:1279   */\n  0x00\n    /* \"#utility.yul\":1275:1276   */\n  dup1\n    /* \"#utility.yul\":1268:1280   */\n  revert\n    /* \"#utility.yul\":1232:1234   */\ntag_42:\n    /* \"#utility.yul\":1306:1380   */\n  tag_43\n    /* \"#utility.yul\":1372:1379   */\n  dup7\n    /* \"#utility.yul\":1363:1369   */\n  dup3\n    /* \"#utility.yul\":1352:1361   */\n  dup8\n    /* \"#utility.yul\":1348:1370   */\n  add\n    /* \"#utility.yul\":1306:1380   */\n  tag_31\n  jump\t// in\ntag_43:\n    /* \"#utility.yul\":1296:1380   */\n  swap3\n  pop\n    /* \"#utility.yul\":1165:1390   */\n  pop\n    /* \"#utility.yul\":1450:1452   */\n  0x40\n    /* \"#utility.yul\":1439:1448   */\n  dup5\n    /* \"#utility.yul\":1435:1453   */\n  add\n    /* \"#utility.yul\":1429:1454   */\n  mload\n    /* \"#utility.yul\":1481:1499   */\n  0xffffffffffffffff\n    /* \"#utility.yul\":1473:1479   */\n  dup2\n    /* \"#utility.yul\":1470:1500   */\n  gt\n    /* \"#utility.yul\":1467:1469   */\n  iszero\n  tag_44\n  jumpi\n    /* \"#utility.yul\":1513:1514   */\n  0x00\n    /* \"#utility.yul\":1510:1511   */\n  dup1\n    /* \"#utility.yul\":1503:1515   */\n  revert\n    /* \"#utility.yul\":1467:1469   */\ntag_44:\n    /* \"#utility.yul\":1541:1615   */\n  tag_45\n    /* \"#utility.yul\":1607:1614   */\n  dup7\n    /* \"#utility.yul\":1598:1604   */\n  dup3\n    /* \"#utility.yul\":1587:1596   */\n  dup8\n    /* \"#utility.yul\":1583:1605   */\n  add\n    /* \"#utility.yul\":1541:1615   */\n  tag_31\n  jump\t// in\ntag_45:\n    /* \"#utility.yul\":1531:1615   */\n  swap2\n  pop\n    /* \"#utility.yul\":1400:1625   */\n  pop\n    /* \"#utility.yul\":955:1632   */\n  swap3\n  pop\n  swap3\n  pop\n  swap3\n  jump\t// out\n    /* \"#utility.yul\":1638:1767   */\ntag_27:\n  0x00\n    /* \"#utility.yul\":1699:1719   */\n  tag_47\n  tag_48\n  jump\t// in\ntag_47:\n    /* \"#utility.yul\":1689:1719   */\n  swap1\n  pop\n    /* \"#utility.yul\":1728:1761   */\n  tag_49\n    /* \"#utility.yul\":1756:1760   */\n  dup3\n    /* \"#utility.yul\":1748:1754   */\n  dup3\n    /* \"#utility.yul\":1728:1761   */\n  tag_50\n  jump\t// in\ntag_49:\n    /* \"#utility.yul\":1679:1767   */\n  swap2\n  swap1\n  pop\n  jump\t// out\n    /* \"#utility.yul\":1773:1848   */\ntag_48:\n  0x00\n    /* \"#utility.yul\":1839:1841   */\n  0x40\n    /* \"#utility.yul\":1833:1842   */\n  mload\n    /* \"#utility.yul\":1823:1842   */\n  swap1\n  pop\n    /* \"#utility.yul\":1813:1848   */\n  swap1\n  jump\t// out\n    /* \"#utility.yul\":1854:2162   */\ntag_26:\n  0x00\n    /* \"#utility.yul\":2006:2024   */\n  0xffffffffffffffff\n    /* \"#utility.yul\":1998:2004   */\n  dup3\n    /* \"#utility.yul\":1995:2025   */\n  gt\n    /* \"#utility.yul\":1992:1994   */\n  iszero\n  tag_53\n  jumpi\n    /* \"#utility.yul\":2028:2046   */\n  tag_54\n  tag_55\n  jump\t// in\ntag_54:\n    /* \"#utility.yul\":1992:1994   */\ntag_53:\n    /* \"#utility.yul\":2066:2095   */\n  tag_56\n    /* \"#utility.yul\":2088:2094   */\n  dup3\n    /* \"#utility.yul\":2066:2095   */\n  tag_57\n  jump\t// in\ntag_56:\n    /* \"#utility.yul\":2058:2095   */\n  swap1\n  pop\n    /* \"#utility.yul\":2150:2154   */\n  0x20\n    /* \"#utility.yul\":2144:2148   */\n  dup2\n    /* \"#utility.yul\":2140:2155   */\n  add\n    /* \"#utility.yul\":2132:2155   */\n  swap1\n  pop\n    /* \"#utility.yul\":1921:2162   */\n  swap2\n  swap1\n  pop\n  jump\t// out\n    /* \"#utility.yul\":2168:2245   */\ntag_58:\n  0x00\n    /* \"#utility.yul\":2234:2239   */\n  dup2\n    /* \"#utility.yul\":2223:2239   */\n  swap1\n  pop\n    /* \"#utility.yul\":2213:2245   */\n  swap2\n  swap1\n  pop\n  jump\t// out\n    /* \"#utility.yul\":2251:2558   */\ntag_30:\n    /* \"#utility.yul\":2319:2320   */\n  0x00\n    /* \"#utility.yul\":2329:2442   */\ntag_61:\n    /* \"#utility.yul\":2343:2349   */\n  dup4\n    /* \"#utility.yul\":2340:2341   */\n  dup2\n    /* \"#utility.yul\":2337:2350   */\n  lt\n    /* \"#utility.yul\":2329:2442   */\n  iszero\n  tag_63\n  jumpi\n    /* \"#utility.yul\":2428:2429   */\n  dup1\n    /* \"#utility.yul\":2423:2426   */\n  dup3\n    /* \"#utility.yul\":2419:2430   */\n  add\n    /* \"#utility.yul\":2413:2431   */\n  mload\n    /* \"#utility.yul\":2409:2410   */\n  dup2\n    /* \"#utility.yul\":2404:2407   */\n  dup5\n    /* \"#utility.yul\":2400:2411   */\n  add\n    /* \"#utility.yul\":2393:2432   */\n  mstore\n    /* \"#utility.yul\":2365:2367   */\n  0x20\n    /* \"#utility.yul\":2362:2363   */\n  dup2\n    /* \"#utility.yul\":2358:2368   */\n  add\n    /* \"#utility.yul\":2353:2368   */\n  swap1\n  pop\n    /* \"#utility.yul\":2329:2442   */\n  jump(tag_61)\ntag_63:\n    /* \"#utility.yul\":2460:2466   */\n  dup4\n    /* \"#utility.yul\":2457:2458   */\n  dup2\n    /* \"#utility.yul\":2454:2467   */\n  gt\n    /* \"#utility.yul\":2451:2453   */\n  iszero\n  tag_64\n  jumpi\n    /* \"#utility.yul\":2540:2541   */\n  0x00\n    /* \"#utility.yul\":2531:2537   */\n  dup5\n    /* \"#utility.yul\":2526:2529   */\n  dup5\n    /* \"#utility.yul\":2522:2538   */\n  add\n    /* \"#utility.yul\":2515:2542   */\n  mstore\n    /* \"#utility.yul\":2451:2453   */\ntag_64:\n    /* \"#utility.yul\":2300:2558   */\n  pop\n  pop\n  pop\n  pop\n  jump\t// out\n    /* \"#utility.yul\":2564:2884   */\ntag_11:\n  0x00\n    /* \"#utility.yul\":2645:2646   */\n  0x02\n    /* \"#utility.yul\":2639:2643   */\n  dup3\n    /* \"#utility.yul\":2635:2647   */\n  div\n    /* \"#utility.yul\":2625:2647   */\n  swap1\n  pop\n    /* \"#utility.yul\":2692:2693   */\n  0x01\n    /* \"#utility.yul\":2686:2690   */\n  dup3\n    /* \"#utility.yul\":2682:2694   */\n  and\n    /* \"#utility.yul\":2713:2731   */\n  dup1\n    /* \"#utility.yul\":2703:2705   */\n  tag_66\n  jumpi\n    /* \"#utility.yul\":2769:2773   */\n  0x7f\n    /* \"#utility.yul\":2761:2767   */\n  dup3\n    /* \"#utility.yul\":2757:2774   */\n  and\n    /* \"#utility.yul\":2747:2774   */\n  swap2\n  pop\n    /* \"#utility.yul\":2703:2705   */\ntag_66:\n    /* \"#utility.yul\":2831:2833   */\n  0x20\n    /* \"#utility.yul\":2823:2829   */\n  dup3\n    /* \"#utility.yul\":2820:2834   */\n  lt\n    /* \"#utility.yul\":2800:2818   */\n  dup2\n    /* \"#utility.yul\":2797:2835   */\n  eq\n    /* \"#utility.yul\":2794:2796   */\n  iszero\n  tag_67\n  jumpi\n    /* \"#utility.yul\":2850:2868   */\n  tag_68\n  tag_69\n  jump\t// in\ntag_68:\n    /* \"#utility.yul\":2794:2796   */\ntag_67:\n    /* \"#utility.yul\":2615:2884   */\n  pop\n  swap2\n  swap1\n  pop\n  jump\t// out\n    /* \"#utility.yul\":2890:3171   */\ntag_50:\n    /* \"#utility.yul\":2973:3000   */\n  tag_71\n    /* \"#utility.yul\":2995:2999   */\n  dup3\n    /* \"#utility.yul\":2973:3000   */\n  tag_57\n  jump\t// in\ntag_71:\n    /* \"#utility.yul\":2965:2971   */\n  dup2\n    /* \"#utility.yul\":2961:3001   */\n  add\n    /* \"#utility.yul\":3103:3109   */\n  dup2\n    /* \"#utility.yul\":3091:3101   */\n  dup2\n    /* \"#utility.yul\":3088:3110   */\n  lt\n    /* \"#utility.yul\":3067:3085   */\n  0xffffffffffffffff\n    /* \"#utility.yul\":3055:3065   */\n  dup3\n    /* \"#utility.yul\":3052:3086   */\n  gt\n    /* \"#utility.yul\":3049:3111   */\n  or\n    /* \"#utility.yul\":3046:3048   */\n  iszero\n  tag_72\n  jumpi\n    /* \"#utility.yul\":3114:3132   */\n  tag_73\n  tag_55\n  jump\t// in\ntag_73:\n    /* \"#utility.yul\":3046:3048   */\ntag_72:\n    /* \"#utility.yul\":3154:3164   */\n  dup1\n    /* \"#utility.yul\":3150:3152   */\n  0x40\n    /* \"#utility.yul\":3143:3165   */\n  mstore\n    /* \"#utility.yul\":2933:3171   */\n  pop\n  pop\n  pop\n  jump\t// out\n    /* \"#utility.yul\":3177:3357   */\ntag_69:\n    /* \"#utility.yul\":3225:3302   */\n  0x4e487b7100000000000000000000000000000000000000000000000000000000\n    /* \"#utility.yul\":3222:3223   */\n  0x00\n    /* \"#utility.yul\":3215:3303   */\n  mstore\n    /* \"#utility.yul\":3322:3326   */\n  0x22\n    /* \"#utility.yul\":3319:3320   */\n  0x04\n    /* \"#utility.yul\":3312:3327   */\n  mstore\n    /* \"#utility.yul\":3346:3350   */\n  0x24\n    /* \"#utility.yul\":3343:3344   */\n  0x00\n    /* \"#utility.yul\":3336:3351   */\n  revert\n    /* \"#utility.yul\":3363:3543   */\ntag_55:\n    /* \"#utility.yul\":3411:3488   */\n  0x4e487b7100000000000000000000000000000000000000000000000000000000\n    /* \"#utility.yul\":3408:3409   */\n  0x00\n    /* \"#utility.yul\":3401:3489   */\n  mstore\n    /* \"#utility.yul\":3508:3512   */\n  0x41\n    /* \"#utility.yul\":3505:3506   */\n  0x04\n    /* \"#utility.yul\":3498:3513   */\n  mstore\n    /* \"#utility.yul\":3532:3536   */\n  0x24\n    /* \"#utility.yul\":3529:3530   */\n  0x00\n    /* \"#utility.yul\":3522:3537   */\n  revert\n    /* \"#utility.yul\":3549:3651   */\ntag_57:\n  0x00\n    /* \"#utility.yul\":3641:3643   */\n  0x1f\n    /* \"#utility.yul\":3637:3644   */\n  not\n    /* \"#utility.yul\":3632:3634   */\n  0x1f\n    /* \"#utility.yul\":3625:3630   */\n  dup4\n    /* \"#utility.yul\":3621:3635   */\n  add\n    /* \"#utility.yul\":3617:3645   */\n  and\n    /* \"#utility.yul\":3607:3645   */\n  swap1\n  pop\n    /* \"#utility.yul\":3597:3651   */\n  swap2\n  swap1\n  pop\n  jump\t// out\n    /* \"#utility.yul\":3657:3779   */\ntag_38:\n    /* \"#utility.yul\":3730:3754   */\n  tag_78\n    /* \"#utility.yul\":3748:3753   */\n  dup2\n    /* \"#utility.yul\":3730:3754   */\n  tag_58\n  jump\t// in\ntag_78:\n    /* \"#utility.yul\":3723:3728   */\n  dup2\n    /* \"#utility.yul\":3720:3755   */\n  eq\n    /* \"#utility.yul\":3710:3712   */\n  tag_79\n  jumpi\n    /* \"#utility.yul\":3769:3770   */\n  0x00\n    /* \"#utility.yul\":3766:3767   */\n  dup1\n    /* \"#utility.yul\":3759:3771   */\n  revert\n    /* \"#utility.yul\":3710:3712   */\ntag_79:\n    /* \"#utility.yul\":3700:3779   */\n  pop\n  jump\t// out\n    /* \"contracts/Consultation.sol\":1233:3114  contract Consultation {\r... */\ntag_9:\n  dataSize(sub_0)\n  dup1\n  dataOffset(sub_0)\n  0x00\n  codecopy\n  0x00\n  return\nstop\n\nsub_0: assembly {\n        /* \"contracts/Consultation.sol\":1233:3114  contract Consultation {\r... */\n      mstore(0x40, 0x80)\n      callvalue\n      dup1\n      iszero\n      tag_1\n      jumpi\n      0x00\n      dup1\n      revert\n    tag_1:\n      pop\n      jumpi(tag_2, lt(calldatasize, 0x04))\n      shr(0xe0, calldataload(0x00))\n      dup1\n      0x710e24ee\n      gt\n      tag_14\n      jumpi\n      dup1\n      0x710e24ee\n      eq\n      tag_8\n      jumpi\n      dup1\n      0x7284e416\n      eq\n      tag_9\n      jumpi\n      dup1\n      0x9f396cff\n      eq\n      tag_10\n      jumpi\n      dup1\n      0xde292789\n      eq\n      tag_11\n      jumpi\n      dup1\n      0xe6120413\n      eq\n      tag_12\n      jumpi\n      dup1\n      0xfdbec445\n      eq\n      tag_13\n      jumpi\n      jump(tag_2)\n    tag_14:\n      dup1\n      0x2986c0e5\n      eq\n      tag_3\n      jumpi\n      dup1\n      0x2dbe07c7\n      eq\n      tag_4\n      jumpi\n      dup1\n      0x2f2770db\n      eq\n      tag_5\n      jumpi\n      dup1\n      0x4a79d50c\n      eq\n      tag_6\n      jumpi\n      dup1\n      0x6f0aa449\n      eq\n      tag_7\n      jumpi\n    tag_2:\n      0x00\n      dup1\n      revert\n        /* \"contracts/Consultation.sol\":1290:1307  uint public index */\n    tag_3:\n      tag_15\n      tag_16\n      jump\t// in\n    tag_15:\n      mload(0x40)\n      tag_17\n      swap2\n      swap1\n      tag_18\n      jump\t// in\n    tag_17:\n      mload(0x40)\n      dup1\n      swap2\n      sub\n      swap1\n      return\n        /* \"contracts/Consultation.sol\":2144:2245  function changeTitle ( string memory _newTitle) onlyOwner public {\r... */\n    tag_4:\n      tag_19\n      0x04\n      dup1\n      calldatasize\n      sub\n      dup2\n      add\n      swap1\n      tag_20\n      swap2\n      swap1\n      tag_21\n      jump\t// in\n    tag_20:\n      tag_22\n      jump\t// in\n    tag_19:\n      stop\n        /* \"contracts/Consultation.sol\":3048:3111  function disable() external{\r... */\n    tag_5:\n      tag_23\n      tag_24\n      jump\t// in\n    tag_23:\n      stop\n        /* \"contracts/Consultation.sol\":1314:1333  string public title */\n    tag_6:\n      tag_25\n      tag_26\n      jump\t// in\n    tag_25:\n      mload(0x40)\n      tag_27\n      swap2\n      swap1\n      tag_28\n      jump\t// in\n    tag_27:\n      mload(0x40)\n      dup1\n      swap2\n      sub\n      swap1\n      return\n        /* \"contracts/Consultation.sol\":1405:1432  int public voteProCount = 0 */\n    tag_7:\n      tag_29\n      tag_30\n      jump\t// in\n    tag_29:\n      mload(0x40)\n      tag_31\n      swap2\n      swap1\n      tag_32\n      jump\t// in\n    tag_31:\n      mload(0x40)\n      dup1\n      swap2\n      sub\n      swap1\n      return\n        /* \"contracts/Consultation.sol\":1439:1470  int public voteAgainstCount = 0 */\n    tag_8:\n      tag_33\n      tag_34\n      jump\t// in\n    tag_33:\n      mload(0x40)\n      tag_35\n      swap2\n      swap1\n      tag_32\n      jump\t// in\n    tag_35:\n      mload(0x40)\n      dup1\n      swap2\n      sub\n      swap1\n      return\n        /* \"contracts/Consultation.sol\":1340:1365  string public description */\n    tag_9:\n      tag_36\n      tag_37\n      jump\t// in\n    tag_36:\n      mload(0x40)\n      tag_38\n      swap2\n      swap1\n      tag_28\n      jump\t// in\n    tag_38:\n      mload(0x40)\n      dup1\n      swap2\n      sub\n      swap1\n      return\n        /* \"contracts/Consultation.sol\":2506:2628  function voteAgainst () onlyIfNotVotedYet external {\r... */\n    tag_10:\n      tag_39\n      tag_40\n      jump\t// in\n    tag_39:\n      stop\n        /* \"contracts/Consultation.sol\":2636:3040  function getResult () public view returns (string memory) {\r... */\n    tag_11:\n      tag_41\n      tag_42\n      jump\t// in\n    tag_41:\n      mload(0x40)\n      tag_43\n      swap2\n      swap1\n      tag_28\n      jump\t// in\n    tag_43:\n      mload(0x40)\n      dup1\n      swap2\n      sub\n      swap1\n      return\n        /* \"contracts/Consultation.sol\":2253:2376  function changeDescription ( string memory _newDscription) onlyOwner public {\r... */\n    tag_12:\n      tag_44\n      0x04\n      dup1\n      calldatasize\n      sub\n      dup2\n      add\n      swap1\n      tag_45\n      swap2\n      swap1\n      tag_21\n      jump\t// in\n    tag_45:\n      tag_46\n      jump\t// in\n    tag_44:\n      stop\n        /* \"contracts/Consultation.sol\":2384:2498  function votePro () onlyIfNotVotedYet external {\r... */\n    tag_13:\n      tag_47\n      tag_48\n      jump\t// in\n    tag_47:\n      stop\n        /* \"contracts/Consultation.sol\":1290:1307  uint public index */\n    tag_16:\n      sload(0x01)\n      dup2\n      jump\t// out\n        /* \"contracts/Consultation.sol\":2144:2245  function changeTitle ( string memory _newTitle) onlyOwner public {\r... */\n    tag_22:\n        /* \"contracts/Consultation.sol\":1794:1799  owner */\n      0x00\n      dup1\n      sload\n      swap1\n      0x0100\n      exp\n      swap1\n      div\n      0xffffffffffffffffffffffffffffffffffffffff\n      and\n        /* \"contracts/Consultation.sol\":1780:1799  msg.sender == owner */\n      0xffffffffffffffffffffffffffffffffffffffff\n      and\n        /* \"contracts/Consultation.sol\":1780:1790  msg.sender */\n      caller\n        /* \"contracts/Consultation.sol\":1780:1799  msg.sender == owner */\n      0xffffffffffffffffffffffffffffffffffffffff\n      and\n      eq\n        /* \"contracts/Consultation.sol\":1772:1817  require(msg.sender == owner, \"must be owner\") */\n      tag_50\n      jumpi\n      mload(0x40)\n      0x08c379a000000000000000000000000000000000000000000000000000000000\n      dup2\n      mstore\n      0x04\n      add\n      tag_51\n      swap1\n      tag_52\n      jump\t// in\n    tag_51:\n      mload(0x40)\n      dup1\n      swap2\n      sub\n      swap1\n      revert\n    tag_50:\n        /* \"contracts/Consultation.sol\":2228:2237  _newTitle */\n      dup1\n        /* \"contracts/Consultation.sol\":2220:2225  title */\n      0x02\n        /* \"contracts/Consultation.sol\":2220:2237  title = _newTitle */\n      swap1\n      dup1\n      mload\n      swap1\n      0x20\n      add\n      swap1\n      tag_54\n      swap3\n      swap2\n      swap1\n      tag_55\n      jump\t// in\n    tag_54:\n      pop\n        /* \"contracts/Consultation.sol\":2144:2245  function changeTitle ( string memory _newTitle) onlyOwner public {\r... */\n      pop\n      jump\t// out\n        /* \"contracts/Consultation.sol\":3048:3111  function disable() external{\r... */\n    tag_24:\n        /* \"contracts/Consultation.sol\":3098:3103  false */\n      0x00\n        /* \"contracts/Consultation.sol\":3086:3095  isEnabled */\n      0x07\n      0x00\n        /* \"contracts/Consultation.sol\":3086:3103  isEnabled = false */\n      0x0100\n      exp\n      dup2\n      sload\n      dup2\n      0xff\n      mul\n      not\n      and\n      swap1\n      dup4\n      iszero\n      iszero\n      mul\n      or\n      swap1\n      sstore\n      pop\n        /* \"contracts/Consultation.sol\":3048:3111  function disable() external{\r... */\n      jump\t// out\n        /* \"contracts/Consultation.sol\":1314:1333  string public title */\n    tag_26:\n      0x02\n      dup1\n      sload\n      tag_57\n      swap1\n      tag_58\n      jump\t// in\n    tag_57:\n      dup1\n      0x1f\n      add\n      0x20\n      dup1\n      swap2\n      div\n      mul\n      0x20\n      add\n      mload(0x40)\n      swap1\n      dup2\n      add\n      0x40\n      mstore\n      dup1\n      swap3\n      swap2\n      swap1\n      dup2\n      dup2\n      mstore\n      0x20\n      add\n      dup3\n      dup1\n      sload\n      tag_59\n      swap1\n      tag_58\n      jump\t// in\n    tag_59:\n      dup1\n      iszero\n      tag_60\n      jumpi\n      dup1\n      0x1f\n      lt\n      tag_61\n      jumpi\n      0x0100\n      dup1\n      dup4\n      sload\n      div\n      mul\n      dup4\n      mstore\n      swap2\n      0x20\n      add\n      swap2\n      jump(tag_60)\n    tag_61:\n      dup3\n      add\n      swap2\n      swap1\n      0x00\n      mstore\n      keccak256(0x00, 0x20)\n      swap1\n    tag_62:\n      dup2\n      sload\n      dup2\n      mstore\n      swap1\n      0x01\n      add\n      swap1\n      0x20\n      add\n      dup1\n      dup4\n      gt\n      tag_62\n      jumpi\n      dup3\n      swap1\n      sub\n      0x1f\n      and\n      dup3\n      add\n      swap2\n    tag_60:\n      pop\n      pop\n      pop\n      pop\n      pop\n      dup2\n      jump\t// out\n        /* \"contracts/Consultation.sol\":1405:1432  int public voteProCount = 0 */\n    tag_30:\n      sload(0x05)\n      dup2\n      jump\t// out\n        /* \"contracts/Consultation.sol\":1439:1470  int public voteAgainstCount = 0 */\n    tag_34:\n      sload(0x06)\n      dup2\n      jump\t// out\n        /* \"contracts/Consultation.sol\":1340:1365  string public description */\n    tag_37:\n      0x03\n      dup1\n      sload\n      tag_63\n      swap1\n      tag_58\n      jump\t// in\n    tag_63:\n      dup1\n      0x1f\n      add\n      0x20\n      dup1\n      swap2\n      div\n      mul\n      0x20\n      add\n      mload(0x40)\n      swap1\n      dup2\n      add\n      0x40\n      mstore\n      dup1\n      swap3\n      swap2\n      swap1\n      dup2\n      dup2\n      mstore\n      0x20\n      add\n      dup3\n      dup1\n      sload\n      tag_64\n      swap1\n      tag_58\n      jump\t// in\n    tag_64:\n      dup1\n      iszero\n      tag_65\n      jumpi\n      dup1\n      0x1f\n      lt\n      tag_66\n      jumpi\n      0x0100\n      dup1\n      dup4\n      sload\n      div\n      mul\n      dup4\n      mstore\n      swap2\n      0x20\n      add\n      swap2\n      jump(tag_65)\n    tag_66:\n      dup3\n      add\n      swap2\n      swap1\n      0x00\n      mstore\n      keccak256(0x00, 0x20)\n      swap1\n    tag_67:\n      dup2\n      sload\n      dup2\n      mstore\n      swap1\n      0x01\n      add\n      swap1\n      0x20\n      add\n      dup1\n      dup4\n      gt\n      tag_67\n      jumpi\n      dup3\n      swap1\n      sub\n      0x1f\n      and\n      dup3\n      add\n      swap2\n    tag_65:\n      pop\n      pop\n      pop\n      pop\n      pop\n      dup2\n      jump\t// out\n        /* \"contracts/Consultation.sol\":2506:2628  function voteAgainst () onlyIfNotVotedYet external {\r... */\n    tag_40:\n        /* \"contracts/Consultation.sol\":1884:1897  bool hasVoted */\n      0x00\n        /* \"contracts/Consultation.sol\":1920:1926  uint i */\n      dup1\n        /* \"contracts/Consultation.sol\":1916:2094  for(uint i = 0; i < voters.length; i++)\r... */\n    tag_69:\n        /* \"contracts/Consultation.sol\":1936:1942  voters */\n      0x04\n        /* \"contracts/Consultation.sol\":1936:1949  voters.length */\n      dup1\n      sload\n      swap1\n      pop\n        /* \"contracts/Consultation.sol\":1932:1933  i */\n      dup2\n        /* \"contracts/Consultation.sol\":1932:1949  i < voters.length */\n      lt\n        /* \"contracts/Consultation.sol\":1916:2094  for(uint i = 0; i < voters.length; i++)\r... */\n      iszero\n      tag_70\n      jumpi\n        /* \"contracts/Consultation.sol\":1996:2006  msg.sender */\n      caller\n        /* \"contracts/Consultation.sol\":1983:2006  voters[i] == msg.sender */\n      0xffffffffffffffffffffffffffffffffffffffff\n      and\n        /* \"contracts/Consultation.sol\":1983:1989  voters */\n      0x04\n        /* \"contracts/Consultation.sol\":1990:1991  i */\n      dup3\n        /* \"contracts/Consultation.sol\":1983:1992  voters[i] */\n      dup2\n      sload\n      dup2\n      lt\n      tag_72\n      jumpi\n      mstore(0x00, 0x4e487b7100000000000000000000000000000000000000000000000000000000)\n      mstore(0x04, 0x32)\n      revert(0x00, 0x24)\n    tag_72:\n      swap1\n      0x00\n      mstore\n      keccak256(0x00, 0x20)\n      add\n      0x00\n      swap1\n      sload\n      swap1\n      0x0100\n      exp\n      swap1\n      div\n      0xffffffffffffffffffffffffffffffffffffffff\n      and\n        /* \"contracts/Consultation.sol\":1983:2006  voters[i] == msg.sender */\n      0xffffffffffffffffffffffffffffffffffffffff\n      and\n      eq\n        /* \"contracts/Consultation.sol\":1980:2083  if(voters[i] == msg.sender){\r... */\n      iszero\n      tag_74\n      jumpi\n        /* \"contracts/Consultation.sol\":2034:2039  false */\n      0x00\n        /* \"contracts/Consultation.sol\":2026:2067  require(false, \"Voter has already voted\") */\n      tag_75\n      jumpi\n      mload(0x40)\n      0x08c379a000000000000000000000000000000000000000000000000000000000\n      dup2\n      mstore\n      0x04\n      add\n      tag_76\n      swap1\n      tag_77\n      jump\t// in\n    tag_76:\n      mload(0x40)\n      dup1\n      swap2\n      sub\n      swap1\n      revert\n    tag_75:\n        /* \"contracts/Consultation.sol\":1980:2083  if(voters[i] == msg.sender){\r... */\n    tag_74:\n        /* \"contracts/Consultation.sol\":1951:1954  i++ */\n      dup1\n      dup1\n      tag_78\n      swap1\n      tag_79\n      jump\t// in\n    tag_78:\n      swap2\n      pop\n      pop\n        /* \"contracts/Consultation.sol\":1916:2094  for(uint i = 0; i < voters.length; i++)\r... */\n      jump(tag_69)\n    tag_70:\n      pop\n        /* \"contracts/Consultation.sol\":2111:2115  true */\n      0x01\n        /* \"contracts/Consultation.sol\":2104:2116  assert(true) */\n      tag_80\n      jumpi\n      mstore(0x00, 0x4e487b7100000000000000000000000000000000000000000000000000000000)\n      mstore(0x04, 0x01)\n      revert(0x00, 0x24)\n    tag_80:\n        /* \"contracts/Consultation.sol\":2568:2574  voters */\n      0x04\n        /* \"contracts/Consultation.sol\":2580:2590  msg.sender */\n      caller\n        /* \"contracts/Consultation.sol\":2568:2591  voters.push(msg.sender) */\n      swap1\n      dup1\n      0x01\n      dup2\n      sload\n      add\n      dup1\n      dup3\n      sstore\n      dup1\n      swap2\n      pop\n      pop\n      0x01\n      swap1\n      sub\n      swap1\n      0x00\n      mstore\n      keccak256(0x00, 0x20)\n      add\n      0x00\n      swap1\n      swap2\n      swap1\n      swap2\n      swap1\n      swap2\n      0x0100\n      exp\n      dup2\n      sload\n      dup2\n      0xffffffffffffffffffffffffffffffffffffffff\n      mul\n      not\n      and\n      swap1\n      dup4\n      0xffffffffffffffffffffffffffffffffffffffff\n      and\n      mul\n      or\n      swap1\n      sstore\n      pop\n        /* \"contracts/Consultation.sol\":2602:2618  voteAgainstCount */\n      0x06\n      0x00\n        /* \"contracts/Consultation.sol\":2602:2620  voteAgainstCount++ */\n      dup2\n      sload\n      dup1\n      swap3\n      swap2\n      swap1\n      tag_83\n      swap1\n      tag_84\n      jump\t// in\n    tag_83:\n      swap2\n      swap1\n      pop\n      sstore\n      pop\n        /* \"contracts/Consultation.sol\":2506:2628  function voteAgainst () onlyIfNotVotedYet external {\r... */\n      pop\n      jump\t// out\n        /* \"contracts/Consultation.sol\":2636:3040  function getResult () public view returns (string memory) {\r... */\n    tag_42:\n        /* \"contracts/Consultation.sol\":2679:2692  string memory */\n      0x60\n        /* \"contracts/Consultation.sol\":2724:2740  voteAgainstCount */\n      sload(0x06)\n        /* \"contracts/Consultation.sol\":2708:2720  voteProCount */\n      sload(0x05)\n        /* \"contracts/Consultation.sol\":2708:2740  voteProCount == voteAgainstCount */\n      eq\n        /* \"contracts/Consultation.sol\":2705:3033  if(voteProCount == voteAgainstCount){\r... */\n      iszero\n      tag_86\n      jumpi\n        /* \"contracts/Consultation.sol\":2756:2806  return \"The Consultation has concluded to a draw!\" */\n      mload(0x40)\n      dup1\n      0x60\n      add\n      0x40\n      mstore\n      dup1\n      0x29\n      dup2\n      mstore\n      0x20\n      add\n      data_197b13caf8cf784818f79a00cca54d27d780456cbc842cc3e0aa65859694a6dd\n      0x29\n      swap2\n      codecopy\n      swap1\n      pop\n      jump(tag_85)\n        /* \"contracts/Consultation.sol\":2705:3033  if(voteProCount == voteAgainstCount){\r... */\n    tag_86:\n        /* \"contracts/Consultation.sol\":2851:2867  voteAgainstCount */\n      sload(0x06)\n        /* \"contracts/Consultation.sol\":2836:2848  voteProCount */\n      sload(0x05)\n        /* \"contracts/Consultation.sol\":2836:2867  voteProCount > voteAgainstCount */\n      sgt\n        /* \"contracts/Consultation.sol\":2833:3033  if(voteProCount > voteAgainstCount)\r... */\n      iszero\n      tag_88\n      jumpi\n        /* \"contracts/Consultation.sol\":2893:2937  return \"The Consultation has been accepted!\" */\n      mload(0x40)\n      dup1\n      0x60\n      add\n      0x40\n      mstore\n      dup1\n      0x23\n      dup2\n      mstore\n      0x20\n      add\n      data_6e8fd11359c6e92756e65ea236cf6013961e0e5d55e0f7ca71fb4e5a87d28264\n      0x23\n      swap2\n      codecopy\n      swap1\n      pop\n      jump(tag_85)\n        /* \"contracts/Consultation.sol\":2833:3033  if(voteProCount > voteAgainstCount)\r... */\n    tag_88:\n        /* \"contracts/Consultation.sol\":2978:3021  return \"The Consultation has been negated!\" */\n      mload(0x40)\n      dup1\n      0x60\n      add\n      0x40\n      mstore\n      dup1\n      0x22\n      dup2\n      mstore\n      0x20\n      add\n      data_6cff7d91c2ae8fa06e7253e0edaf5debccaa2a62b24ad9957420fca33be0d303\n      0x22\n      swap2\n      codecopy\n      swap1\n      pop\n        /* \"contracts/Consultation.sol\":2636:3040  function getResult () public view returns (string memory) {\r... */\n    tag_85:\n      swap1\n      jump\t// out\n        /* \"contracts/Consultation.sol\":2253:2376  function changeDescription ( string memory _newDscription) onlyOwner public {\r... */\n    tag_46:\n        /* \"contracts/Consultation.sol\":1794:1799  owner */\n      0x00\n      dup1\n      sload\n      swap1\n      0x0100\n      exp\n      swap1\n      div\n      0xffffffffffffffffffffffffffffffffffffffff\n      and\n        /* \"contracts/Consultation.sol\":1780:1799  msg.sender == owner */\n      0xffffffffffffffffffffffffffffffffffffffff\n      and\n        /* \"contracts/Consultation.sol\":1780:1790  msg.sender */\n      caller\n        /* \"contracts/Consultation.sol\":1780:1799  msg.sender == owner */\n      0xffffffffffffffffffffffffffffffffffffffff\n      and\n      eq\n        /* \"contracts/Consultation.sol\":1772:1817  require(msg.sender == owner, \"must be owner\") */\n      tag_91\n      jumpi\n      mload(0x40)\n      0x08c379a000000000000000000000000000000000000000000000000000000000\n      dup2\n      mstore\n      0x04\n      add\n      tag_92\n      swap1\n      tag_52\n      jump\t// in\n    tag_92:\n      mload(0x40)\n      dup1\n      swap2\n      sub\n      swap1\n      revert\n    tag_91:\n        /* \"contracts/Consultation.sol\":2354:2368  _newDscription */\n      dup1\n        /* \"contracts/Consultation.sol\":2340:2351  description */\n      0x03\n        /* \"contracts/Consultation.sol\":2340:2368  description = _newDscription */\n      swap1\n      dup1\n      mload\n      swap1\n      0x20\n      add\n      swap1\n      tag_94\n      swap3\n      swap2\n      swap1\n      tag_55\n      jump\t// in\n    tag_94:\n      pop\n        /* \"contracts/Consultation.sol\":2253:2376  function changeDescription ( string memory _newDscription) onlyOwner public {\r... */\n      pop\n      jump\t// out\n        /* \"contracts/Consultation.sol\":2384:2498  function votePro () onlyIfNotVotedYet external {\r... */\n    tag_48:\n        /* \"contracts/Consultation.sol\":1884:1897  bool hasVoted */\n      0x00\n        /* \"contracts/Consultation.sol\":1920:1926  uint i */\n      dup1\n        /* \"contracts/Consultation.sol\":1916:2094  for(uint i = 0; i < voters.length; i++)\r... */\n    tag_96:\n        /* \"contracts/Consultation.sol\":1936:1942  voters */\n      0x04\n        /* \"contracts/Consultation.sol\":1936:1949  voters.length */\n      dup1\n      sload\n      swap1\n      pop\n        /* \"contracts/Consultation.sol\":1932:1933  i */\n      dup2\n        /* \"contracts/Consultation.sol\":1932:1949  i < voters.length */\n      lt\n        /* \"contracts/Consultation.sol\":1916:2094  for(uint i = 0; i < voters.length; i++)\r... */\n      iszero\n      tag_97\n      jumpi\n        /* \"contracts/Consultation.sol\":1996:2006  msg.sender */\n      caller\n        /* \"contracts/Consultation.sol\":1983:2006  voters[i] == msg.sender */\n      0xffffffffffffffffffffffffffffffffffffffff\n      and\n        /* \"contracts/Consultation.sol\":1983:1989  voters */\n      0x04\n        /* \"contracts/Consultation.sol\":1990:1991  i */\n      dup3\n        /* \"contracts/Consultation.sol\":1983:1992  voters[i] */\n      dup2\n      sload\n      dup2\n      lt\n      tag_99\n      jumpi\n      mstore(0x00, 0x4e487b7100000000000000000000000000000000000000000000000000000000)\n      mstore(0x04, 0x32)\n      revert(0x00, 0x24)\n    tag_99:\n      swap1\n      0x00\n      mstore\n      keccak256(0x00, 0x20)\n      add\n      0x00\n      swap1\n      sload\n      swap1\n      0x0100\n      exp\n      swap1\n      div\n      0xffffffffffffffffffffffffffffffffffffffff\n      and\n        /* \"contracts/Consultation.sol\":1983:2006  voters[i] == msg.sender */\n      0xffffffffffffffffffffffffffffffffffffffff\n      and\n      eq\n        /* \"contracts/Consultation.sol\":1980:2083  if(voters[i] == msg.sender){\r... */\n      iszero\n      tag_101\n      jumpi\n        /* \"contracts/Consultation.sol\":2034:2039  false */\n      0x00\n        /* \"contracts/Consultation.sol\":2026:2067  require(false, \"Voter has already voted\") */\n      tag_102\n      jumpi\n      mload(0x40)\n      0x08c379a000000000000000000000000000000000000000000000000000000000\n      dup2\n      mstore\n      0x04\n      add\n      tag_103\n      swap1\n      tag_77\n      jump\t// in\n    tag_103:\n      mload(0x40)\n      dup1\n      swap2\n      sub\n      swap1\n      revert\n    tag_102:\n        /* \"contracts/Consultation.sol\":1980:2083  if(voters[i] == msg.sender){\r... */\n    tag_101:\n        /* \"contracts/Consultation.sol\":1951:1954  i++ */\n      dup1\n      dup1\n      tag_104\n      swap1\n      tag_79\n      jump\t// in\n    tag_104:\n      swap2\n      pop\n      pop\n        /* \"contracts/Consultation.sol\":1916:2094  for(uint i = 0; i < voters.length; i++)\r... */\n      jump(tag_96)\n    tag_97:\n      pop\n        /* \"contracts/Consultation.sol\":2111:2115  true */\n      0x01\n        /* \"contracts/Consultation.sol\":2104:2116  assert(true) */\n      tag_105\n      jumpi\n      mstore(0x00, 0x4e487b7100000000000000000000000000000000000000000000000000000000)\n      mstore(0x04, 0x01)\n      revert(0x00, 0x24)\n    tag_105:\n        /* \"contracts/Consultation.sol\":2442:2448  voters */\n      0x04\n        /* \"contracts/Consultation.sol\":2454:2464  msg.sender */\n      caller\n        /* \"contracts/Consultation.sol\":2442:2465  voters.push(msg.sender) */\n      swap1\n      dup1\n      0x01\n      dup2\n      sload\n      add\n      dup1\n      dup3\n      sstore\n      dup1\n      swap2\n      pop\n      pop\n      0x01\n      swap1\n      sub\n      swap1\n      0x00\n      mstore\n      keccak256(0x00, 0x20)\n      add\n      0x00\n      swap1\n      swap2\n      swap1\n      swap2\n      swap1\n      swap2\n      0x0100\n      exp\n      dup2\n      sload\n      dup2\n      0xffffffffffffffffffffffffffffffffffffffff\n      mul\n      not\n      and\n      swap1\n      dup4\n      0xffffffffffffffffffffffffffffffffffffffff\n      and\n      mul\n      or\n      swap1\n      sstore\n      pop\n        /* \"contracts/Consultation.sol\":2476:2488  voteProCount */\n      0x05\n      0x00\n        /* \"contracts/Consultation.sol\":2476:2490  voteProCount++ */\n      dup2\n      sload\n      dup1\n      swap3\n      swap2\n      swap1\n      tag_108\n      swap1\n      tag_84\n      jump\t// in\n    tag_108:\n      swap2\n      swap1\n      pop\n      sstore\n      pop\n        /* \"contracts/Consultation.sol\":2384:2498  function votePro () onlyIfNotVotedYet external {\r... */\n      pop\n      jump\t// out\n    tag_55:\n      dup3\n      dup1\n      sload\n      tag_109\n      swap1\n      tag_58\n      jump\t// in\n    tag_109:\n      swap1\n      0x00\n      mstore\n      keccak256(0x00, 0x20)\n      swap1\n      0x1f\n      add\n      0x20\n      swap1\n      div\n      dup2\n      add\n      swap3\n      dup3\n      tag_111\n      jumpi\n      0x00\n      dup6\n      sstore\n      jump(tag_110)\n    tag_111:\n      dup3\n      0x1f\n      lt\n      tag_112\n      jumpi\n      dup1\n      mload\n      not(0xff)\n      and\n      dup4\n      dup1\n      add\n      or\n      dup6\n      sstore\n      jump(tag_110)\n    tag_112:\n      dup3\n      dup1\n      add\n      0x01\n      add\n      dup6\n      sstore\n      dup3\n      iszero\n      tag_110\n      jumpi\n      swap2\n      dup3\n      add\n    tag_113:\n      dup3\n      dup2\n      gt\n      iszero\n      tag_114\n      jumpi\n      dup3\n      mload\n      dup3\n      sstore\n      swap2\n      0x20\n      add\n      swap2\n      swap1\n      0x01\n      add\n      swap1\n      jump(tag_113)\n    tag_114:\n    tag_110:\n      pop\n      swap1\n      pop\n      tag_115\n      swap2\n      swap1\n      tag_116\n      jump\t// in\n    tag_115:\n      pop\n      swap1\n      jump\t// out\n    tag_116:\n    tag_117:\n      dup1\n      dup3\n      gt\n      iszero\n      tag_118\n      jumpi\n      0x00\n      dup2\n      0x00\n      swap1\n      sstore\n      pop\n      0x01\n      add\n      jump(tag_117)\n    tag_118:\n      pop\n      swap1\n      jump\t// out\n        /* \"#utility.yul\":7:352   */\n    tag_120:\n      0x00\n        /* \"#utility.yul\":110:176   */\n      tag_122\n        /* \"#utility.yul\":126:175   */\n      tag_123\n        /* \"#utility.yul\":168:174   */\n      dup5\n        /* \"#utility.yul\":126:175   */\n      tag_124\n      jump\t// in\n    tag_123:\n        /* \"#utility.yul\":110:176   */\n      tag_125\n      jump\t// in\n    tag_122:\n        /* \"#utility.yul\":101:176   */\n      swap1\n      pop\n        /* \"#utility.yul\":199:205   */\n      dup3\n        /* \"#utility.yul\":192:197   */\n      dup2\n        /* \"#utility.yul\":185:206   */\n      mstore\n        /* \"#utility.yul\":237:241   */\n      0x20\n        /* \"#utility.yul\":230:235   */\n      dup2\n        /* \"#utility.yul\":226:242   */\n      add\n        /* \"#utility.yul\":275:278   */\n      dup5\n        /* \"#utility.yul\":266:272   */\n      dup5\n        /* \"#utility.yul\":261:264   */\n      dup5\n        /* \"#utility.yul\":257:273   */\n      add\n        /* \"#utility.yul\":254:279   */\n      gt\n        /* \"#utility.yul\":251:253   */\n      iszero\n      tag_126\n      jumpi\n        /* \"#utility.yul\":292:293   */\n      0x00\n        /* \"#utility.yul\":289:290   */\n      dup1\n        /* \"#utility.yul\":282:294   */\n      revert\n        /* \"#utility.yul\":251:253   */\n    tag_126:\n        /* \"#utility.yul\":305:346   */\n      tag_127\n        /* \"#utility.yul\":339:345   */\n      dup5\n        /* \"#utility.yul\":334:337   */\n      dup3\n        /* \"#utility.yul\":329:332   */\n      dup6\n        /* \"#utility.yul\":305:346   */\n      tag_128\n      jump\t// in\n    tag_127:\n        /* \"#utility.yul\":91:352   */\n      pop\n      swap4\n      swap3\n      pop\n      pop\n      pop\n      jump\t// out\n        /* \"#utility.yul\":372:645   */\n    tag_129:\n      0x00\n        /* \"#utility.yul\":477:480   */\n      dup3\n        /* \"#utility.yul\":470:474   */\n      0x1f\n        /* \"#utility.yul\":462:468   */\n      dup4\n        /* \"#utility.yul\":458:475   */\n      add\n        /* \"#utility.yul\":454:481   */\n      slt\n        /* \"#utility.yul\":444:446   */\n      tag_131\n      jumpi\n        /* \"#utility.yul\":495:496   */\n      0x00\n        /* \"#utility.yul\":492:493   */\n      dup1\n        /* \"#utility.yul\":485:497   */\n      revert\n        /* \"#utility.yul\":444:446   */\n    tag_131:\n        /* \"#utility.yul\":535:541   */\n      dup2\n        /* \"#utility.yul\":522:542   */\n      calldataload\n        /* \"#utility.yul\":560:639   */\n      tag_132\n        /* \"#utility.yul\":635:638   */\n      dup5\n        /* \"#utility.yul\":627:633   */\n      dup3\n        /* \"#utility.yul\":620:624   */\n      0x20\n        /* \"#utility.yul\":612:618   */\n      dup7\n        /* \"#utility.yul\":608:625   */\n      add\n        /* \"#utility.yul\":560:639   */\n      tag_120\n      jump\t// in\n    tag_132:\n        /* \"#utility.yul\":551:639   */\n      swap2\n      pop\n        /* \"#utility.yul\":434:645   */\n      pop\n      swap3\n      swap2\n      pop\n      pop\n      jump\t// out\n        /* \"#utility.yul\":651:1026   */\n    tag_21:\n      0x00\n        /* \"#utility.yul\":769:771   */\n      0x20\n        /* \"#utility.yul\":757:766   */\n      dup3\n        /* \"#utility.yul\":748:755   */\n      dup5\n        /* \"#utility.yul\":744:767   */\n      sub\n        /* \"#utility.yul\":740:772   */\n      slt\n        /* \"#utility.yul\":737:739   */\n      iszero\n      tag_134\n      jumpi\n        /* \"#utility.yul\":785:786   */\n      0x00\n        /* \"#utility.yul\":782:783   */\n      dup1\n        /* \"#utility.yul\":775:787   */\n      revert\n        /* \"#utility.yul\":737:739   */\n    tag_134:\n        /* \"#utility.yul\":856:857   */\n      0x00\n        /* \"#utility.yul\":845:854   */\n      dup3\n        /* \"#utility.yul\":841:858   */\n      add\n        /* \"#utility.yul\":828:859   */\n      calldataload\n        /* \"#utility.yul\":886:904   */\n      0xffffffffffffffff\n        /* \"#utility.yul\":878:884   */\n      dup2\n        /* \"#utility.yul\":875:905   */\n      gt\n        /* \"#utility.yul\":872:874   */\n      iszero\n      tag_135\n      jumpi\n        /* \"#utility.yul\":918:919   */\n      0x00\n        /* \"#utility.yul\":915:916   */\n      dup1\n        /* \"#utility.yul\":908:920   */\n      revert\n        /* \"#utility.yul\":872:874   */\n    tag_135:\n        /* \"#utility.yul\":946:1009   */\n      tag_136\n        /* \"#utility.yul\":1001:1008   */\n      dup5\n        /* \"#utility.yul\":992:998   */\n      dup3\n        /* \"#utility.yul\":981:990   */\n      dup6\n        /* \"#utility.yul\":977:999   */\n      add\n        /* \"#utility.yul\":946:1009   */\n      tag_129\n      jump\t// in\n    tag_136:\n        /* \"#utility.yul\":936:1009   */\n      swap2\n      pop\n        /* \"#utility.yul\":799:1019   */\n      pop\n        /* \"#utility.yul\":727:1026   */\n      swap3\n      swap2\n      pop\n      pop\n      jump\t// out\n        /* \"#utility.yul\":1032:1147   */\n    tag_137:\n        /* \"#utility.yul\":1117:1140   */\n      tag_139\n        /* \"#utility.yul\":1134:1139   */\n      dup2\n        /* \"#utility.yul\":1117:1140   */\n      tag_140\n      jump\t// in\n    tag_139:\n        /* \"#utility.yul\":1112:1115   */\n      dup3\n        /* \"#utility.yul\":1105:1141   */\n      mstore\n        /* \"#utility.yul\":1095:1147   */\n      pop\n      pop\n      jump\t// out\n        /* \"#utility.yul\":1153:1517   */\n    tag_141:\n      0x00\n        /* \"#utility.yul\":1269:1308   */\n      tag_143\n        /* \"#utility.yul\":1302:1307   */\n      dup3\n        /* \"#utility.yul\":1269:1308   */\n      tag_144\n      jump\t// in\n    tag_143:\n        /* \"#utility.yul\":1324:1395   */\n      tag_145\n        /* \"#utility.yul\":1388:1394   */\n      dup2\n        /* \"#utility.yul\":1383:1386   */\n      dup6\n        /* \"#utility.yul\":1324:1395   */\n      tag_146\n      jump\t// in\n    tag_145:\n        /* \"#utility.yul\":1317:1395   */\n      swap4\n      pop\n        /* \"#utility.yul\":1404:1456   */\n      tag_147\n        /* \"#utility.yul\":1449:1455   */\n      dup2\n        /* \"#utility.yul\":1444:1447   */\n      dup6\n        /* \"#utility.yul\":1437:1441   */\n      0x20\n        /* \"#utility.yul\":1430:1435   */\n      dup7\n        /* \"#utility.yul\":1426:1442   */\n      add\n        /* \"#utility.yul\":1404:1456   */\n      tag_148\n      jump\t// in\n    tag_147:\n        /* \"#utility.yul\":1481:1510   */\n      tag_149\n        /* \"#utility.yul\":1503:1509   */\n      dup2\n        /* \"#utility.yul\":1481:1510   */\n      tag_150\n      jump\t// in\n    tag_149:\n        /* \"#utility.yul\":1476:1479   */\n      dup5\n        /* \"#utility.yul\":1472:1511   */\n      add\n        /* \"#utility.yul\":1465:1511   */\n      swap2\n      pop\n        /* \"#utility.yul\":1245:1517   */\n      pop\n      swap3\n      swap2\n      pop\n      pop\n      jump\t// out\n        /* \"#utility.yul\":1523:1889   */\n    tag_151:\n      0x00\n        /* \"#utility.yul\":1686:1753   */\n      tag_153\n        /* \"#utility.yul\":1750:1752   */\n      0x0d\n        /* \"#utility.yul\":1745:1748   */\n      dup4\n        /* \"#utility.yul\":1686:1753   */\n      tag_146\n      jump\t// in\n    tag_153:\n        /* \"#utility.yul\":1679:1753   */\n      swap2\n      pop\n        /* \"#utility.yul\":1762:1855   */\n      tag_154\n        /* \"#utility.yul\":1851:1854   */\n      dup3\n        /* \"#utility.yul\":1762:1855   */\n      tag_155\n      jump\t// in\n    tag_154:\n        /* \"#utility.yul\":1880:1882   */\n      0x20\n        /* \"#utility.yul\":1875:1878   */\n      dup3\n        /* \"#utility.yul\":1871:1883   */\n      add\n        /* \"#utility.yul\":1864:1883   */\n      swap1\n      pop\n        /* \"#utility.yul\":1669:1889   */\n      swap2\n      swap1\n      pop\n      jump\t// out\n        /* \"#utility.yul\":1895:2261   */\n    tag_156:\n      0x00\n        /* \"#utility.yul\":2058:2125   */\n      tag_158\n        /* \"#utility.yul\":2122:2124   */\n      0x17\n        /* \"#utility.yul\":2117:2120   */\n      dup4\n        /* \"#utility.yul\":2058:2125   */\n      tag_146\n      jump\t// in\n    tag_158:\n        /* \"#utility.yul\":2051:2125   */\n      swap2\n      pop\n        /* \"#utility.yul\":2134:2227   */\n      tag_159\n        /* \"#utility.yul\":2223:2226   */\n      dup3\n        /* \"#utility.yul\":2134:2227   */\n      tag_160\n      jump\t// in\n    tag_159:\n        /* \"#utility.yul\":2252:2254   */\n      0x20\n        /* \"#utility.yul\":2247:2250   */\n      dup3\n        /* \"#utility.yul\":2243:2255   */\n      add\n        /* \"#utility.yul\":2236:2255   */\n      swap1\n      pop\n        /* \"#utility.yul\":2041:2261   */\n      swap2\n      swap1\n      pop\n      jump\t// out\n        /* \"#utility.yul\":2267:2385   */\n    tag_161:\n        /* \"#utility.yul\":2354:2378   */\n      tag_163\n        /* \"#utility.yul\":2372:2377   */\n      dup2\n        /* \"#utility.yul\":2354:2378   */\n      tag_164\n      jump\t// in\n    tag_163:\n        /* \"#utility.yul\":2349:2352   */\n      dup3\n        /* \"#utility.yul\":2342:2379   */\n      mstore\n        /* \"#utility.yul\":2332:2385   */\n      pop\n      pop\n      jump\t// out\n        /* \"#utility.yul\":2391:2609   */\n    tag_32:\n      0x00\n        /* \"#utility.yul\":2520:2522   */\n      0x20\n        /* \"#utility.yul\":2509:2518   */\n      dup3\n        /* \"#utility.yul\":2505:2523   */\n      add\n        /* \"#utility.yul\":2497:2523   */\n      swap1\n      pop\n        /* \"#utility.yul\":2533:2602   */\n      tag_166\n        /* \"#utility.yul\":2599:2600   */\n      0x00\n        /* \"#utility.yul\":2588:2597   */\n      dup4\n        /* \"#utility.yul\":2584:2601   */\n      add\n        /* \"#utility.yul\":2575:2581   */\n      dup5\n        /* \"#utility.yul\":2533:2602   */\n      tag_137\n      jump\t// in\n    tag_166:\n        /* \"#utility.yul\":2487:2609   */\n      swap3\n      swap2\n      pop\n      pop\n      jump\t// out\n        /* \"#utility.yul\":2615:2928   */\n    tag_28:\n      0x00\n        /* \"#utility.yul\":2766:2768   */\n      0x20\n        /* \"#utility.yul\":2755:2764   */\n      dup3\n        /* \"#utility.yul\":2751:2769   */\n      add\n        /* \"#utility.yul\":2743:2769   */\n      swap1\n      pop\n        /* \"#utility.yul\":2815:2824   */\n      dup2\n        /* \"#utility.yul\":2809:2813   */\n      dup2\n        /* \"#utility.yul\":2805:2825   */\n      sub\n        /* \"#utility.yul\":2801:2802   */\n      0x00\n        /* \"#utility.yul\":2790:2799   */\n      dup4\n        /* \"#utility.yul\":2786:2803   */\n      add\n        /* \"#utility.yul\":2779:2826   */\n      mstore\n        /* \"#utility.yul\":2843:2921   */\n      tag_168\n        /* \"#utility.yul\":2916:2920   */\n      dup2\n        /* \"#utility.yul\":2907:2913   */\n      dup5\n        /* \"#utility.yul\":2843:2921   */\n      tag_141\n      jump\t// in\n    tag_168:\n        /* \"#utility.yul\":2835:2921   */\n      swap1\n      pop\n        /* \"#utility.yul\":2733:2928   */\n      swap3\n      swap2\n      pop\n      pop\n      jump\t// out\n        /* \"#utility.yul\":2934:3353   */\n    tag_52:\n      0x00\n        /* \"#utility.yul\":3138:3140   */\n      0x20\n        /* \"#utility.yul\":3127:3136   */\n      dup3\n        /* \"#utility.yul\":3123:3141   */\n      add\n        /* \"#utility.yul\":3115:3141   */\n      swap1\n      pop\n        /* \"#utility.yul\":3187:3196   */\n      dup2\n        /* \"#utility.yul\":3181:3185   */\n      dup2\n        /* \"#utility.yul\":3177:3197   */\n      sub\n        /* \"#utility.yul\":3173:3174   */\n      0x00\n        /* \"#utility.yul\":3162:3171   */\n      dup4\n        /* \"#utility.yul\":3158:3175   */\n      add\n        /* \"#utility.yul\":3151:3198   */\n      mstore\n        /* \"#utility.yul\":3215:3346   */\n      tag_170\n        /* \"#utility.yul\":3341:3345   */\n      dup2\n        /* \"#utility.yul\":3215:3346   */\n      tag_151\n      jump\t// in\n    tag_170:\n        /* \"#utility.yul\":3207:3346   */\n      swap1\n      pop\n        /* \"#utility.yul\":3105:3353   */\n      swap2\n      swap1\n      pop\n      jump\t// out\n        /* \"#utility.yul\":3359:3778   */\n    tag_77:\n      0x00\n        /* \"#utility.yul\":3563:3565   */\n      0x20\n        /* \"#utility.yul\":3552:3561   */\n      dup3\n        /* \"#utility.yul\":3548:3566   */\n      add\n        /* \"#utility.yul\":3540:3566   */\n      swap1\n      pop\n        /* \"#utility.yul\":3612:3621   */\n      dup2\n        /* \"#utility.yul\":3606:3610   */\n      dup2\n        /* \"#utility.yul\":3602:3622   */\n      sub\n        /* \"#utility.yul\":3598:3599   */\n      0x00\n        /* \"#utility.yul\":3587:3596   */\n      dup4\n        /* \"#utility.yul\":3583:3600   */\n      add\n        /* \"#utility.yul\":3576:3623   */\n      mstore\n        /* \"#utility.yul\":3640:3771   */\n      tag_172\n        /* \"#utility.yul\":3766:3770   */\n      dup2\n        /* \"#utility.yul\":3640:3771   */\n      tag_156\n      jump\t// in\n    tag_172:\n        /* \"#utility.yul\":3632:3771   */\n      swap1\n      pop\n        /* \"#utility.yul\":3530:3778   */\n      swap2\n      swap1\n      pop\n      jump\t// out\n        /* \"#utility.yul\":3784:4006   */\n    tag_18:\n      0x00\n        /* \"#utility.yul\":3915:3917   */\n      0x20\n        /* \"#utility.yul\":3904:3913   */\n      dup3\n        /* \"#utility.yul\":3900:3918   */\n      add\n        /* \"#utility.yul\":3892:3918   */\n      swap1\n      pop\n        /* \"#utility.yul\":3928:3999   */\n      tag_174\n        /* \"#utility.yul\":3996:3997   */\n      0x00\n        /* \"#utility.yul\":3985:3994   */\n      dup4\n        /* \"#utility.yul\":3981:3998   */\n      add\n        /* \"#utility.yul\":3972:3978   */\n      dup5\n        /* \"#utility.yul\":3928:3999   */\n      tag_161\n      jump\t// in\n    tag_174:\n        /* \"#utility.yul\":3882:4006   */\n      swap3\n      swap2\n      pop\n      pop\n      jump\t// out\n        /* \"#utility.yul\":4012:4141   */\n    tag_125:\n      0x00\n        /* \"#utility.yul\":4073:4093   */\n      tag_176\n      tag_177\n      jump\t// in\n    tag_176:\n        /* \"#utility.yul\":4063:4093   */\n      swap1\n      pop\n        /* \"#utility.yul\":4102:4135   */\n      tag_178\n        /* \"#utility.yul\":4130:4134   */\n      dup3\n        /* \"#utility.yul\":4122:4128   */\n      dup3\n        /* \"#utility.yul\":4102:4135   */\n      tag_179\n      jump\t// in\n    tag_178:\n        /* \"#utility.yul\":4053:4141   */\n      swap2\n      swap1\n      pop\n      jump\t// out\n        /* \"#utility.yul\":4147:4222   */\n    tag_177:\n      0x00\n        /* \"#utility.yul\":4213:4215   */\n      0x40\n        /* \"#utility.yul\":4207:4216   */\n      mload\n        /* \"#utility.yul\":4197:4216   */\n      swap1\n      pop\n        /* \"#utility.yul\":4187:4222   */\n      swap1\n      jump\t// out\n        /* \"#utility.yul\":4228:4536   */\n    tag_124:\n      0x00\n        /* \"#utility.yul\":4380:4398   */\n      0xffffffffffffffff\n        /* \"#utility.yul\":4372:4378   */\n      dup3\n        /* \"#utility.yul\":4369:4399   */\n      gt\n        /* \"#utility.yul\":4366:4368   */\n      iszero\n      tag_182\n      jumpi\n        /* \"#utility.yul\":4402:4420   */\n      tag_183\n      tag_184\n      jump\t// in\n    tag_183:\n        /* \"#utility.yul\":4366:4368   */\n    tag_182:\n        /* \"#utility.yul\":4440:4469   */\n      tag_185\n        /* \"#utility.yul\":4462:4468   */\n      dup3\n        /* \"#utility.yul\":4440:4469   */\n      tag_150\n      jump\t// in\n    tag_185:\n        /* \"#utility.yul\":4432:4469   */\n      swap1\n      pop\n        /* \"#utility.yul\":4524:4528   */\n      0x20\n        /* \"#utility.yul\":4518:4522   */\n      dup2\n        /* \"#utility.yul\":4514:4529   */\n      add\n        /* \"#utility.yul\":4506:4529   */\n      swap1\n      pop\n        /* \"#utility.yul\":4295:4536   */\n      swap2\n      swap1\n      pop\n      jump\t// out\n        /* \"#utility.yul\":4542:4641   */\n    tag_144:\n      0x00\n        /* \"#utility.yul\":4628:4633   */\n      dup2\n        /* \"#utility.yul\":4622:4634   */\n      mload\n        /* \"#utility.yul\":4612:4634   */\n      swap1\n      pop\n        /* \"#utility.yul\":4601:4641   */\n      swap2\n      swap1\n      pop\n      jump\t// out\n        /* \"#utility.yul\":4647:4816   */\n    tag_146:\n      0x00\n        /* \"#utility.yul\":4765:4771   */\n      dup3\n        /* \"#utility.yul\":4760:4763   */\n      dup3\n        /* \"#utility.yul\":4753:4772   */\n      mstore\n        /* \"#utility.yul\":4805:4809   */\n      0x20\n        /* \"#utility.yul\":4800:4803   */\n      dup3\n        /* \"#utility.yul\":4796:4810   */\n      add\n        /* \"#utility.yul\":4781:4810   */\n      swap1\n      pop\n        /* \"#utility.yul\":4743:4816   */\n      swap3\n      swap2\n      pop\n      pop\n      jump\t// out\n        /* \"#utility.yul\":4822:4898   */\n    tag_140:\n      0x00\n        /* \"#utility.yul\":4887:4892   */\n      dup2\n        /* \"#utility.yul\":4876:4892   */\n      swap1\n      pop\n        /* \"#utility.yul\":4866:4898   */\n      swap2\n      swap1\n      pop\n      jump\t// out\n        /* \"#utility.yul\":4904:4981   */\n    tag_164:\n      0x00\n        /* \"#utility.yul\":4970:4975   */\n      dup2\n        /* \"#utility.yul\":4959:4975   */\n      swap1\n      pop\n        /* \"#utility.yul\":4949:4981   */\n      swap2\n      swap1\n      pop\n      jump\t// out\n        /* \"#utility.yul\":4987:5141   */\n    tag_128:\n        /* \"#utility.yul\":5071:5077   */\n      dup3\n        /* \"#utility.yul\":5066:5069   */\n      dup2\n        /* \"#utility.yul\":5061:5064   */\n      dup4\n        /* \"#utility.yul\":5048:5078   */\n      calldatacopy\n        /* \"#utility.yul\":5133:5134   */\n      0x00\n        /* \"#utility.yul\":5124:5130   */\n      dup4\n        /* \"#utility.yul\":5119:5122   */\n      dup4\n        /* \"#utility.yul\":5115:5131   */\n      add\n        /* \"#utility.yul\":5108:5135   */\n      mstore\n        /* \"#utility.yul\":5038:5141   */\n      pop\n      pop\n      pop\n      jump\t// out\n        /* \"#utility.yul\":5147:5454   */\n    tag_148:\n        /* \"#utility.yul\":5215:5216   */\n      0x00\n        /* \"#utility.yul\":5225:5338   */\n    tag_192:\n        /* \"#utility.yul\":5239:5245   */\n      dup4\n        /* \"#utility.yul\":5236:5237   */\n      dup2\n        /* \"#utility.yul\":5233:5246   */\n      lt\n        /* \"#utility.yul\":5225:5338   */\n      iszero\n      tag_194\n      jumpi\n        /* \"#utility.yul\":5324:5325   */\n      dup1\n        /* \"#utility.yul\":5319:5322   */\n      dup3\n        /* \"#utility.yul\":5315:5326   */\n      add\n        /* \"#utility.yul\":5309:5327   */\n      mload\n        /* \"#utility.yul\":5305:5306   */\n      dup2\n        /* \"#utility.yul\":5300:5303   */\n      dup5\n        /* \"#utility.yul\":5296:5307   */\n      add\n        /* \"#utility.yul\":5289:5328   */\n      mstore\n        /* \"#utility.yul\":5261:5263   */\n      0x20\n        /* \"#utility.yul\":5258:5259   */\n      dup2\n        /* \"#utility.yul\":5254:5264   */\n      add\n        /* \"#utility.yul\":5249:5264   */\n      swap1\n      pop\n        /* \"#utility.yul\":5225:5338   */\n      jump(tag_192)\n    tag_194:\n        /* \"#utility.yul\":5356:5362   */\n      dup4\n        /* \"#utility.yul\":5353:5354   */\n      dup2\n        /* \"#utility.yul\":5350:5363   */\n      gt\n        /* \"#utility.yul\":5347:5349   */\n      iszero\n      tag_195\n      jumpi\n        /* \"#utility.yul\":5436:5437   */\n      0x00\n        /* \"#utility.yul\":5427:5433   */\n      dup5\n        /* \"#utility.yul\":5422:5425   */\n      dup5\n        /* \"#utility.yul\":5418:5434   */\n      add\n        /* \"#utility.yul\":5411:5438   */\n      mstore\n        /* \"#utility.yul\":5347:5349   */\n    tag_195:\n        /* \"#utility.yul\":5196:5454   */\n      pop\n      pop\n      pop\n      pop\n      jump\t// out\n        /* \"#utility.yul\":5460:5780   */\n    tag_58:\n      0x00\n        /* \"#utility.yul\":5541:5542   */\n      0x02\n        /* \"#utility.yul\":5535:5539   */\n      dup3\n        /* \"#utility.yul\":5531:5543   */\n      div\n        /* \"#utility.yul\":5521:5543   */\n      swap1\n      pop\n        /* \"#utility.yul\":5588:5589   */\n      0x01\n        /* \"#utility.yul\":5582:5586   */\n      dup3\n        /* \"#utility.yul\":5578:5590   */\n      and\n        /* \"#utility.yul\":5609:5627   */\n      dup1\n        /* \"#utility.yul\":5599:5601   */\n      tag_197\n      jumpi\n        /* \"#utility.yul\":5665:5669   */\n      0x7f\n        /* \"#utility.yul\":5657:5663   */\n      dup3\n        /* \"#utility.yul\":5653:5670   */\n      and\n        /* \"#utility.yul\":5643:5670   */\n      swap2\n      pop\n        /* \"#utility.yul\":5599:5601   */\n    tag_197:\n        /* \"#utility.yul\":5727:5729   */\n      0x20\n        /* \"#utility.yul\":5719:5725   */\n      dup3\n        /* \"#utility.yul\":5716:5730   */\n      lt\n        /* \"#utility.yul\":5696:5714   */\n      dup2\n        /* \"#utility.yul\":5693:5731   */\n      eq\n        /* \"#utility.yul\":5690:5692   */\n      iszero\n      tag_198\n      jumpi\n        /* \"#utility.yul\":5746:5764   */\n      tag_199\n      tag_200\n      jump\t// in\n    tag_199:\n        /* \"#utility.yul\":5690:5692   */\n    tag_198:\n        /* \"#utility.yul\":5511:5780   */\n      pop\n      swap2\n      swap1\n      pop\n      jump\t// out\n        /* \"#utility.yul\":5786:6067   */\n    tag_179:\n        /* \"#utility.yul\":5869:5896   */\n      tag_202\n        /* \"#utility.yul\":5891:5895   */\n      dup3\n        /* \"#utility.yul\":5869:5896   */\n      tag_150\n      jump\t// in\n    tag_202:\n        /* \"#utility.yul\":5861:5867   */\n      dup2\n        /* \"#utility.yul\":5857:5897   */\n      add\n        /* \"#utility.yul\":5999:6005   */\n      dup2\n        /* \"#utility.yul\":5987:5997   */\n      dup2\n        /* \"#utility.yul\":5984:6006   */\n      lt\n        /* \"#utility.yul\":5963:5981   */\n      0xffffffffffffffff\n        /* \"#utility.yul\":5951:5961   */\n      dup3\n        /* \"#utility.yul\":5948:5982   */\n      gt\n        /* \"#utility.yul\":5945:6007   */\n      or\n        /* \"#utility.yul\":5942:5944   */\n      iszero\n      tag_203\n      jumpi\n        /* \"#utility.yul\":6010:6028   */\n      tag_204\n      tag_184\n      jump\t// in\n    tag_204:\n        /* \"#utility.yul\":5942:5944   */\n    tag_203:\n        /* \"#utility.yul\":6050:6060   */\n      dup1\n        /* \"#utility.yul\":6046:6048   */\n      0x40\n        /* \"#utility.yul\":6039:6061   */\n      mstore\n        /* \"#utility.yul\":5829:6067   */\n      pop\n      pop\n      pop\n      jump\t// out\n        /* \"#utility.yul\":6073:6304   */\n    tag_84:\n      0x00\n        /* \"#utility.yul\":6134:6157   */\n      tag_206\n        /* \"#utility.yul\":6151:6156   */\n      dup3\n        /* \"#utility.yul\":6134:6157   */\n      tag_140\n      jump\t// in\n    tag_206:\n        /* \"#utility.yul\":6125:6157   */\n      swap2\n      pop\n        /* \"#utility.yul\":6179:6245   */\n      0x7fffffffffffffffffffffffffffffffffffffffffffffffffffffffffffffff\n        /* \"#utility.yul\":6172:6177   */\n      dup3\n        /* \"#utility.yul\":6169:6246   */\n      eq\n        /* \"#utility.yul\":6166:6168   */\n      iszero\n      tag_207\n      jumpi\n        /* \"#utility.yul\":6249:6267   */\n      tag_208\n      tag_209\n      jump\t// in\n    tag_208:\n        /* \"#utility.yul\":6166:6168   */\n    tag_207:\n        /* \"#utility.yul\":6296:6297   */\n      0x01\n        /* \"#utility.yul\":6289:6294   */\n      dup3\n        /* \"#utility.yul\":6285:6298   */\n      add\n        /* \"#utility.yul\":6278:6298   */\n      swap1\n      pop\n        /* \"#utility.yul\":6115:6304   */\n      swap2\n      swap1\n      pop\n      jump\t// out\n        /* \"#utility.yul\":6310:6543   */\n    tag_79:\n      0x00\n        /* \"#utility.yul\":6372:6396   */\n      tag_211\n        /* \"#utility.yul\":6390:6395   */\n      dup3\n        /* \"#utility.yul\":6372:6396   */\n      tag_164\n      jump\t// in\n    tag_211:\n        /* \"#utility.yul\":6363:6396   */\n      swap2\n      pop\n        /* \"#utility.yul\":6418:6484   */\n      0xffffffffffffffffffffffffffffffffffffffffffffffffffffffffffffffff\n        /* \"#utility.yul\":6411:6416   */\n      dup3\n        /* \"#utility.yul\":6408:6485   */\n      eq\n        /* \"#utility.yul\":6405:6407   */\n      iszero\n      tag_212\n      jumpi\n        /* \"#utility.yul\":6488:6506   */\n      tag_213\n      tag_209\n      jump\t// in\n    tag_213:\n        /* \"#utility.yul\":6405:6407   */\n    tag_212:\n        /* \"#utility.yul\":6535:6536   */\n      0x01\n        /* \"#utility.yul\":6528:6533   */\n      dup3\n        /* \"#utility.yul\":6524:6537   */\n      add\n        /* \"#utility.yul\":6517:6537   */\n      swap1\n      pop\n        /* \"#utility.yul\":6353:6543   */\n      swap2\n      swap1\n      pop\n      jump\t// out\n        /* \"#utility.yul\":6549:6729   */\n    tag_209:\n        /* \"#utility.yul\":6597:6674   */\n      0x4e487b7100000000000000000000000000000000000000000000000000000000\n        /* \"#utility.yul\":6594:6595   */\n      0x00\n        /* \"#utility.yul\":6587:6675   */\n      mstore\n        /* \"#utility.yul\":6694:6698   */\n      0x11\n        /* \"#utility.yul\":6691:6692   */\n      0x04\n        /* \"#utility.yul\":6684:6699   */\n      mstore\n        /* \"#utility.yul\":6718:6722   */\n      0x24\n        /* \"#utility.yul\":6715:6716   */\n      0x00\n        /* \"#utility.yul\":6708:6723   */\n      revert\n        /* \"#utility.yul\":6735:6915   */\n    tag_200:\n        /* \"#utility.yul\":6783:6860   */\n      0x4e487b7100000000000000000000000000000000000000000000000000000000\n        /* \"#utility.yul\":6780:6781   */\n      0x00\n        /* \"#utility.yul\":6773:6861   */\n      mstore\n        /* \"#utility.yul\":6880:6884   */\n      0x22\n        /* \"#utility.yul\":6877:6878   */\n      0x04\n        /* \"#utility.yul\":6870:6885   */\n      mstore\n        /* \"#utility.yul\":6904:6908   */\n      0x24\n        /* \"#utility.yul\":6901:6902   */\n      0x00\n        /* \"#utility.yul\":6894:6909   */\n      revert\n        /* \"#utility.yul\":6921:7101   */\n    tag_184:\n        /* \"#utility.yul\":6969:7046   */\n      0x4e487b7100000000000000000000000000000000000000000000000000000000\n        /* \"#utility.yul\":6966:6967   */\n      0x00\n        /* \"#utility.yul\":6959:7047   */\n      mstore\n        /* \"#utility.yul\":7066:7070   */\n      0x41\n        /* \"#utility.yul\":7063:7064   */\n      0x04\n        /* \"#utility.yul\":7056:7071   */\n      mstore\n        /* \"#utility.yul\":7090:7094   */\n      0x24\n        /* \"#utility.yul\":7087:7088   */\n      0x00\n        /* \"#utility.yul\":7080:7095   */\n      revert\n        /* \"#utility.yul\":7107:7209   */\n    tag_150:\n      0x00\n        /* \"#utility.yul\":7199:7201   */\n      0x1f\n        /* \"#utility.yul\":7195:7202   */\n      not\n        /* \"#utility.yul\":7190:7192   */\n      0x1f\n        /* \"#utility.yul\":7183:7188   */\n      dup4\n        /* \"#utility.yul\":7179:7193   */\n      add\n        /* \"#utility.yul\":7175:7203   */\n      and\n        /* \"#utility.yul\":7165:7203   */\n      swap1\n      pop\n        /* \"#utility.yul\":7155:7209   */\n      swap2\n      swap1\n      pop\n      jump\t// out\n        /* \"#utility.yul\":7215:7378   */\n    tag_155:\n        /* \"#utility.yul\":7355:7370   */\n      0x6d757374206265206f776e657200000000000000000000000000000000000000\n        /* \"#utility.yul\":7351:7352   */\n      0x00\n        /* \"#utility.yul\":7343:7349   */\n      dup3\n        /* \"#utility.yul\":7339:7353   */\n      add\n        /* \"#utility.yul\":7332:7371   */\n      mstore\n        /* \"#utility.yul\":7321:7378   */\n      pop\n      jump\t// out\n        /* \"#utility.yul\":7384:7557   */\n    tag_160:\n        /* \"#utility.yul\":7524:7549   */\n      0x566f7465722068617320616c726561647920766f746564000000000000000000\n        /* \"#utility.yul\":7520:7521   */\n      0x00\n        /* \"#utility.yul\":7512:7518   */\n      dup3\n        /* \"#utility.yul\":7508:7522   */\n      add\n        /* \"#utility.yul\":7501:7550   */\n      mstore\n        /* \"#utility.yul\":7490:7557   */\n      pop\n      jump\t// out\n    stop\n    data_197b13caf8cf784818f79a00cca54d27d780456cbc842cc3e0aa65859694a6dd 54686520436f6e73756c746174696f6e2068617320636f6e636c7564656420746f2061206472617721\n    data_6cff7d91c2ae8fa06e7253e0edaf5debccaa2a62b24ad9957420fca33be0d303 54686520436f6e73756c746174696f6e20686173206265656e206e65676174656421\n    data_6e8fd11359c6e92756e65ea236cf6013961e0e5d55e0f7ca71fb4e5a87d28264 54686520436f6e73756c746174696f6e20686173206265656e20616363657074656421\n\n    auxdata: 0xa264697066735822122040dc77d5d696436a6c3cacb747a4c7aa890a06776dea6938bd6df3466335acb864736f6c63430008010033\n}\n",
				"bytecode": {
					"linkReferences": {},
					"object": "6080604052600060055560006006556001600760006101000a81548160ff0219169083151502179055503480156200003657600080fd5b50604051620012603803806200126083398181016040528101906200005c919062000232565b336000806101000a81548173ffffffffffffffffffffffffffffffffffffffff021916908373ffffffffffffffffffffffffffffffffffffffff160217905550826001819055508160029080519060200190620000bb929190620000f9565b508060039080519060200190620000d4929190620000f9565b506001600760006101000a81548160ff0219169083151502179055505050506200044e565b828054620001079062000359565b90600052602060002090601f0160209004810192826200012b576000855562000177565b82601f106200014657805160ff191683800117855562000177565b8280016001018555821562000177579182015b828111156200017657825182559160200191906001019062000159565b5b5090506200018691906200018a565b5090565b5b80821115620001a55760008160009055506001016200018b565b5090565b6000620001c0620001ba84620002e3565b620002ba565b905082815260208101848484011115620001d957600080fd5b620001e684828562000323565b509392505050565b600082601f8301126200020057600080fd5b815162000212848260208601620001a9565b91505092915050565b6000815190506200022c8162000434565b92915050565b6000806000606084860312156200024857600080fd5b600062000258868287016200021b565b935050602084015167ffffffffffffffff8111156200027657600080fd5b6200028486828701620001ee565b925050604084015167ffffffffffffffff811115620002a257600080fd5b620002b086828701620001ee565b9150509250925092565b6000620002c6620002d9565b9050620002d482826200038f565b919050565b6000604051905090565b600067ffffffffffffffff821115620003015762000300620003f4565b5b6200030c8262000423565b9050602081019050919050565b6000819050919050565b60005b838110156200034357808201518184015260208101905062000326565b8381111562000353576000848401525b50505050565b600060028204905060018216806200037257607f821691505b60208210811415620003895762000388620003c5565b5b50919050565b6200039a8262000423565b810181811067ffffffffffffffff82111715620003bc57620003bb620003f4565b5b80604052505050565b7f4e487b7100000000000000000000000000000000000000000000000000000000600052602260045260246000fd5b7f4e487b7100000000000000000000000000000000000000000000000000000000600052604160045260246000fd5b6000601f19601f8301169050919050565b6200043f8162000319565b81146200044b57600080fd5b50565b610e02806200045e6000396000f3fe608060405234801561001057600080fd5b50600436106100a95760003560e01c8063710e24ee11610071578063710e24ee1461012e5780637284e4161461014c5780639f396cff1461016a578063de29278914610174578063e612041314610192578063fdbec445146101ae576100a9565b80632986c0e5146100ae5780632dbe07c7146100cc5780632f2770db146100e85780634a79d50c146100f25780636f0aa44914610110575b600080fd5b6100b66101b8565b6040516100c39190610a96565b60405180910390f35b6100e660048036038101906100e1919061093b565b6101be565b005b6100f0610266565b005b6100fa610283565b6040516101079190610a34565b60405180910390f35b610118610311565b6040516101259190610a19565b60405180910390f35b610136610317565b6040516101439190610a19565b60405180910390f35b61015461031d565b6040516101619190610a34565b60405180910390f35b6101726103ab565b005b61017c61055d565b6040516101899190610a34565b60405180910390f35b6101ac60048036038101906101a7919061093b565b6105d6565b005b6101b661067e565b005b60015481565b60008054906101000a900473ffffffffffffffffffffffffffffffffffffffff1673ffffffffffffffffffffffffffffffffffffffff163373ffffffffffffffffffffffffffffffffffffffff161461024c576040517f08c379a000000000000000000000000000000000000000000000000000000000815260040161024390610a56565b60405180910390fd5b8060029080519060200190610262929190610830565b5050565b6000600760006101000a81548160ff021916908315150217905550565b6002805461029090610b79565b80601f01602080910402602001604051908101604052809291908181526020018280546102bc90610b79565b80156103095780601f106102de57610100808354040283529160200191610309565b820191906000526020600020905b8154815290600101906020018083116102ec57829003601f168201915b505050505081565b60055481565b60065481565b6003805461032a90610b79565b80601f016020809104026020016040519081016040528092919081815260200182805461035690610b79565b80156103a35780601f10610378576101008083540402835291602001916103a3565b820191906000526020600020905b81548152906001019060200180831161038657829003601f168201915b505050505081565b6000805b6004805490508110156104a9573373ffffffffffffffffffffffffffffffffffffffff166004828154811061040d577f4e487b7100000000000000000000000000000000000000000000000000000000600052603260045260246000fd5b9060005260206000200160009054906101000a900473ffffffffffffffffffffffffffffffffffffffff1673ffffffffffffffffffffffffffffffffffffffff161415610496576000610495576040517f08c379a000000000000000000000000000000000000000000000000000000000815260040161048c90610a76565b60405180910390fd5b5b80806104a190610c25565b9150506103af565b5060016104df577f4e487b7100000000000000000000000000000000000000000000000000000000600052600160045260246000fd5b6004339080600181540180825580915050600190039060005260206000200160009091909190916101000a81548173ffffffffffffffffffffffffffffffffffffffff021916908373ffffffffffffffffffffffffffffffffffffffff1602179055506006600081548092919061055590610bdc565b919050555050565b6060600654600554141561058b57604051806060016040528060298152602001610d5f6029913990506105d3565b60065460055413156105b757604051806060016040528060238152602001610daa6023913990506105d3565b604051806060016040528060228152602001610d886022913990505b90565b60008054906101000a900473ffffffffffffffffffffffffffffffffffffffff1673ffffffffffffffffffffffffffffffffffffffff163373ffffffffffffffffffffffffffffffffffffffff1614610664576040517f08c379a000000000000000000000000000000000000000000000000000000000815260040161065b90610a56565b60405180910390fd5b806003908051906020019061067a929190610830565b5050565b6000805b60048054905081101561077c573373ffffffffffffffffffffffffffffffffffffffff16600482815481106106e0577f4e487b7100000000000000000000000000000000000000000000000000000000600052603260045260246000fd5b9060005260206000200160009054906101000a900473ffffffffffffffffffffffffffffffffffffffff1673ffffffffffffffffffffffffffffffffffffffff161415610769576000610768576040517f08c379a000000000000000000000000000000000000000000000000000000000815260040161075f90610a76565b60405180910390fd5b5b808061077490610c25565b915050610682565b5060016107b2577f4e487b7100000000000000000000000000000000000000000000000000000000600052600160045260246000fd5b6004339080600181540180825580915050600190039060005260206000200160009091909190916101000a81548173ffffffffffffffffffffffffffffffffffffffff021916908373ffffffffffffffffffffffffffffffffffffffff1602179055506005600081548092919061082890610bdc565b919050555050565b82805461083c90610b79565b90600052602060002090601f01602090048101928261085e57600085556108a5565b82601f1061087757805160ff19168380011785556108a5565b828001600101855582156108a5579182015b828111156108a4578251825591602001919060010190610889565b5b5090506108b291906108b6565b5090565b5b808211156108cf5760008160009055506001016108b7565b5090565b60006108e66108e184610ad6565b610ab1565b9050828152602081018484840111156108fe57600080fd5b610909848285610b37565b509392505050565b600082601f83011261092257600080fd5b81356109328482602086016108d3565b91505092915050565b60006020828403121561094d57600080fd5b600082013567ffffffffffffffff81111561096757600080fd5b61097384828501610911565b91505092915050565b61098581610b23565b82525050565b600061099682610b07565b6109a08185610b12565b93506109b0818560208601610b46565b6109b981610cfb565b840191505092915050565b60006109d1600d83610b12565b91506109dc82610d0c565b602082019050919050565b60006109f4601783610b12565b91506109ff82610d35565b602082019050919050565b610a1381610b2d565b82525050565b6000602082019050610a2e600083018461097c565b92915050565b60006020820190508181036000830152610a4e818461098b565b905092915050565b60006020820190508181036000830152610a6f816109c4565b9050919050565b60006020820190508181036000830152610a8f816109e7565b9050919050565b6000602082019050610aab6000830184610a0a565b92915050565b6000610abb610acc565b9050610ac78282610bab565b919050565b6000604051905090565b600067ffffffffffffffff821115610af157610af0610ccc565b5b610afa82610cfb565b9050602081019050919050565b600081519050919050565b600082825260208201905092915050565b6000819050919050565b6000819050919050565b82818337600083830152505050565b60005b83811015610b64578082015181840152602081019050610b49565b83811115610b73576000848401525b50505050565b60006002820490506001821680610b9157607f821691505b60208210811415610ba557610ba4610c9d565b5b50919050565b610bb482610cfb565b810181811067ffffffffffffffff82111715610bd357610bd2610ccc565b5b80604052505050565b6000610be782610b23565b91507f7fffffffffffffffffffffffffffffffffffffffffffffffffffffffffffffff821415610c1a57610c19610c6e565b5b600182019050919050565b6000610c3082610b2d565b91507fffffffffffffffffffffffffffffffffffffffffffffffffffffffffffffffff821415610c6357610c62610c6e565b5b600182019050919050565b7f4e487b7100000000000000000000000000000000000000000000000000000000600052601160045260246000fd5b7f4e487b7100000000000000000000000000000000000000000000000000000000600052602260045260246000fd5b7f4e487b7100000000000000000000000000000000000000000000000000000000600052604160045260246000fd5b6000601f19601f8301169050919050565b7f6d757374206265206f776e657200000000000000000000000000000000000000600082015250565b7f566f7465722068617320616c726561647920766f74656400000000000000000060008201525056fe54686520436f6e73756c746174696f6e2068617320636f6e636c7564656420746f206120647261772154686520436f6e73756c746174696f6e20686173206265656e206e6567617465642154686520436f6e73756c746174696f6e20686173206265656e20616363657074656421a264697066735822122040dc77d5d696436a6c3cacb747a4c7aa890a06776dea6938bd6df3466335acb864736f6c63430008010033",
					"opcodes": "PUSH1 0x80 PUSH1 0x40 MSTORE PUSH1 0x0 PUSH1 0x5 SSTORE PUSH1 0x0 PUSH1 0x6 SSTORE PUSH1 0x1 PUSH1 0x7 PUSH1 0x0 PUSH2 0x100 EXP DUP2 SLOAD DUP2 PUSH1 0xFF MUL NOT AND SWAP1 DUP4 ISZERO ISZERO MUL OR SWAP1 SSTORE POP CALLVALUE DUP1 ISZERO PUSH3 0x36 JUMPI PUSH1 0x0 DUP1 REVERT JUMPDEST POP PUSH1 0x40 MLOAD PUSH3 0x1260 CODESIZE SUB DUP1 PUSH3 0x1260 DUP4 CODECOPY DUP2 DUP2 ADD PUSH1 0x40 MSTORE DUP2 ADD SWAP1 PUSH3 0x5C SWAP2 SWAP1 PUSH3 0x232 JUMP JUMPDEST CALLER PUSH1 0x0 DUP1 PUSH2 0x100 EXP DUP2 SLOAD DUP2 PUSH20 0xFFFFFFFFFFFFFFFFFFFFFFFFFFFFFFFFFFFFFFFF MUL NOT AND SWAP1 DUP4 PUSH20 0xFFFFFFFFFFFFFFFFFFFFFFFFFFFFFFFFFFFFFFFF AND MUL OR SWAP1 SSTORE POP DUP3 PUSH1 0x1 DUP2 SWAP1 SSTORE POP DUP2 PUSH1 0x2 SWAP1 DUP1 MLOAD SWAP1 PUSH1 0x20 ADD SWAP1 PUSH3 0xBB SWAP3 SWAP2 SWAP1 PUSH3 0xF9 JUMP JUMPDEST POP DUP1 PUSH1 0x3 SWAP1 DUP1 MLOAD SWAP1 PUSH1 0x20 ADD SWAP1 PUSH3 0xD4 SWAP3 SWAP2 SWAP1 PUSH3 0xF9 JUMP JUMPDEST POP PUSH1 0x1 PUSH1 0x7 PUSH1 0x0 PUSH2 0x100 EXP DUP2 SLOAD DUP2 PUSH1 0xFF MUL NOT AND SWAP1 DUP4 ISZERO ISZERO MUL OR SWAP1 SSTORE POP POP POP POP PUSH3 0x44E JUMP JUMPDEST DUP3 DUP1 SLOAD PUSH3 0x107 SWAP1 PUSH3 0x359 JUMP JUMPDEST SWAP1 PUSH1 0x0 MSTORE PUSH1 0x20 PUSH1 0x0 KECCAK256 SWAP1 PUSH1 0x1F ADD PUSH1 0x20 SWAP1 DIV DUP2 ADD SWAP3 DUP3 PUSH3 0x12B JUMPI PUSH1 0x0 DUP6 SSTORE PUSH3 0x177 JUMP JUMPDEST DUP3 PUSH1 0x1F LT PUSH3 0x146 JUMPI DUP1 MLOAD PUSH1 0xFF NOT AND DUP4 DUP1 ADD OR DUP6 SSTORE PUSH3 0x177 JUMP JUMPDEST DUP3 DUP1 ADD PUSH1 0x1 ADD DUP6 SSTORE DUP3 ISZERO PUSH3 0x177 JUMPI SWAP2 DUP3 ADD JUMPDEST DUP3 DUP2 GT ISZERO PUSH3 0x176 JUMPI DUP3 MLOAD DUP3 SSTORE SWAP2 PUSH1 0x20 ADD SWAP2 SWAP1 PUSH1 0x1 ADD SWAP1 PUSH3 0x159 JUMP JUMPDEST JUMPDEST POP SWAP1 POP PUSH3 0x186 SWAP2 SWAP1 PUSH3 0x18A JUMP JUMPDEST POP SWAP1 JUMP JUMPDEST JUMPDEST DUP1 DUP3 GT ISZERO PUSH3 0x1A5 JUMPI PUSH1 0x0 DUP2 PUSH1 0x0 SWAP1 SSTORE POP PUSH1 0x1 ADD PUSH3 0x18B JUMP JUMPDEST POP SWAP1 JUMP JUMPDEST PUSH1 0x0 PUSH3 0x1C0 PUSH3 0x1BA DUP5 PUSH3 0x2E3 JUMP JUMPDEST PUSH3 0x2BA JUMP JUMPDEST SWAP1 POP DUP3 DUP2 MSTORE PUSH1 0x20 DUP2 ADD DUP5 DUP5 DUP5 ADD GT ISZERO PUSH3 0x1D9 JUMPI PUSH1 0x0 DUP1 REVERT JUMPDEST PUSH3 0x1E6 DUP5 DUP3 DUP6 PUSH3 0x323 JUMP JUMPDEST POP SWAP4 SWAP3 POP POP POP JUMP JUMPDEST PUSH1 0x0 DUP3 PUSH1 0x1F DUP4 ADD SLT PUSH3 0x200 JUMPI PUSH1 0x0 DUP1 REVERT JUMPDEST DUP2 MLOAD PUSH3 0x212 DUP5 DUP3 PUSH1 0x20 DUP7 ADD PUSH3 0x1A9 JUMP JUMPDEST SWAP2 POP POP SWAP3 SWAP2 POP POP JUMP JUMPDEST PUSH1 0x0 DUP2 MLOAD SWAP1 POP PUSH3 0x22C DUP2 PUSH3 0x434 JUMP JUMPDEST SWAP3 SWAP2 POP POP JUMP JUMPDEST PUSH1 0x0 DUP1 PUSH1 0x0 PUSH1 0x60 DUP5 DUP7 SUB SLT ISZERO PUSH3 0x248 JUMPI PUSH1 0x0 DUP1 REVERT JUMPDEST PUSH1 0x0 PUSH3 0x258 DUP7 DUP3 DUP8 ADD PUSH3 0x21B JUMP JUMPDEST SWAP4 POP POP PUSH1 0x20 DUP5 ADD MLOAD PUSH8 0xFFFFFFFFFFFFFFFF DUP2 GT ISZERO PUSH3 0x276 JUMPI PUSH1 0x0 DUP1 REVERT JUMPDEST PUSH3 0x284 DUP7 DUP3 DUP8 ADD PUSH3 0x1EE JUMP JUMPDEST SWAP3 POP POP PUSH1 0x40 DUP5 ADD MLOAD PUSH8 0xFFFFFFFFFFFFFFFF DUP2 GT ISZERO PUSH3 0x2A2 JUMPI PUSH1 0x0 DUP1 REVERT JUMPDEST PUSH3 0x2B0 DUP7 DUP3 DUP8 ADD PUSH3 0x1EE JUMP JUMPDEST SWAP2 POP POP SWAP3 POP SWAP3 POP SWAP3 JUMP JUMPDEST PUSH1 0x0 PUSH3 0x2C6 PUSH3 0x2D9 JUMP JUMPDEST SWAP1 POP PUSH3 0x2D4 DUP3 DUP3 PUSH3 0x38F JUMP JUMPDEST SWAP2 SWAP1 POP JUMP JUMPDEST PUSH1 0x0 PUSH1 0x40 MLOAD SWAP1 POP SWAP1 JUMP JUMPDEST PUSH1 0x0 PUSH8 0xFFFFFFFFFFFFFFFF DUP3 GT ISZERO PUSH3 0x301 JUMPI PUSH3 0x300 PUSH3 0x3F4 JUMP JUMPDEST JUMPDEST PUSH3 0x30C DUP3 PUSH3 0x423 JUMP JUMPDEST SWAP1 POP PUSH1 0x20 DUP2 ADD SWAP1 POP SWAP2 SWAP1 POP JUMP JUMPDEST PUSH1 0x0 DUP2 SWAP1 POP SWAP2 SWAP1 POP JUMP JUMPDEST PUSH1 0x0 JUMPDEST DUP4 DUP2 LT ISZERO PUSH3 0x343 JUMPI DUP1 DUP3 ADD MLOAD DUP2 DUP5 ADD MSTORE PUSH1 0x20 DUP2 ADD SWAP1 POP PUSH3 0x326 JUMP JUMPDEST DUP4 DUP2 GT ISZERO PUSH3 0x353 JUMPI PUSH1 0x0 DUP5 DUP5 ADD MSTORE JUMPDEST POP POP POP POP JUMP JUMPDEST PUSH1 0x0 PUSH1 0x2 DUP3 DIV SWAP1 POP PUSH1 0x1 DUP3 AND DUP1 PUSH3 0x372 JUMPI PUSH1 0x7F DUP3 AND SWAP2 POP JUMPDEST PUSH1 0x20 DUP3 LT DUP2 EQ ISZERO PUSH3 0x389 JUMPI PUSH3 0x388 PUSH3 0x3C5 JUMP JUMPDEST JUMPDEST POP SWAP2 SWAP1 POP JUMP JUMPDEST PUSH3 0x39A DUP3 PUSH3 0x423 JUMP JUMPDEST DUP2 ADD DUP2 DUP2 LT PUSH8 0xFFFFFFFFFFFFFFFF DUP3 GT OR ISZERO PUSH3 0x3BC JUMPI PUSH3 0x3BB PUSH3 0x3F4 JUMP JUMPDEST JUMPDEST DUP1 PUSH1 0x40 MSTORE POP POP POP JUMP JUMPDEST PUSH32 0x4E487B7100000000000000000000000000000000000000000000000000000000 PUSH1 0x0 MSTORE PUSH1 0x22 PUSH1 0x4 MSTORE PUSH1 0x24 PUSH1 0x0 REVERT JUMPDEST PUSH32 0x4E487B7100000000000000000000000000000000000000000000000000000000 PUSH1 0x0 MSTORE PUSH1 0x41 PUSH1 0x4 MSTORE PUSH1 0x24 PUSH1 0x0 REVERT JUMPDEST PUSH1 0x0 PUSH1 0x1F NOT PUSH1 0x1F DUP4 ADD AND SWAP1 POP SWAP2 SWAP1 POP JUMP JUMPDEST PUSH3 0x43F DUP2 PUSH3 0x319 JUMP JUMPDEST DUP2 EQ PUSH3 0x44B JUMPI PUSH1 0x0 DUP1 REVERT JUMPDEST POP JUMP JUMPDEST PUSH2 0xE02 DUP1 PUSH3 0x45E PUSH1 0x0 CODECOPY PUSH1 0x0 RETURN INVALID PUSH1 0x80 PUSH1 0x40 MSTORE CALLVALUE DUP1 ISZERO PUSH2 0x10 JUMPI PUSH1 0x0 DUP1 REVERT JUMPDEST POP PUSH1 0x4 CALLDATASIZE LT PUSH2 0xA9 JUMPI PUSH1 0x0 CALLDATALOAD PUSH1 0xE0 SHR DUP1 PUSH4 0x710E24EE GT PUSH2 0x71 JUMPI DUP1 PUSH4 0x710E24EE EQ PUSH2 0x12E JUMPI DUP1 PUSH4 0x7284E416 EQ PUSH2 0x14C JUMPI DUP1 PUSH4 0x9F396CFF EQ PUSH2 0x16A JUMPI DUP1 PUSH4 0xDE292789 EQ PUSH2 0x174 JUMPI DUP1 PUSH4 0xE6120413 EQ PUSH2 0x192 JUMPI DUP1 PUSH4 0xFDBEC445 EQ PUSH2 0x1AE JUMPI PUSH2 0xA9 JUMP JUMPDEST DUP1 PUSH4 0x2986C0E5 EQ PUSH2 0xAE JUMPI DUP1 PUSH4 0x2DBE07C7 EQ PUSH2 0xCC JUMPI DUP1 PUSH4 0x2F2770DB EQ PUSH2 0xE8 JUMPI DUP1 PUSH4 0x4A79D50C EQ PUSH2 0xF2 JUMPI DUP1 PUSH4 0x6F0AA449 EQ PUSH2 0x110 JUMPI JUMPDEST PUSH1 0x0 DUP1 REVERT JUMPDEST PUSH2 0xB6 PUSH2 0x1B8 JUMP JUMPDEST PUSH1 0x40 MLOAD PUSH2 0xC3 SWAP2 SWAP1 PUSH2 0xA96 JUMP JUMPDEST PUSH1 0x40 MLOAD DUP1 SWAP2 SUB SWAP1 RETURN JUMPDEST PUSH2 0xE6 PUSH1 0x4 DUP1 CALLDATASIZE SUB DUP2 ADD SWAP1 PUSH2 0xE1 SWAP2 SWAP1 PUSH2 0x93B JUMP JUMPDEST PUSH2 0x1BE JUMP JUMPDEST STOP JUMPDEST PUSH2 0xF0 PUSH2 0x266 JUMP JUMPDEST STOP JUMPDEST PUSH2 0xFA PUSH2 0x283 JUMP JUMPDEST PUSH1 0x40 MLOAD PUSH2 0x107 SWAP2 SWAP1 PUSH2 0xA34 JUMP JUMPDEST PUSH1 0x40 MLOAD DUP1 SWAP2 SUB SWAP1 RETURN JUMPDEST PUSH2 0x118 PUSH2 0x311 JUMP JUMPDEST PUSH1 0x40 MLOAD PUSH2 0x125 SWAP2 SWAP1 PUSH2 0xA19 JUMP JUMPDEST PUSH1 0x40 MLOAD DUP1 SWAP2 SUB SWAP1 RETURN JUMPDEST PUSH2 0x136 PUSH2 0x317 JUMP JUMPDEST PUSH1 0x40 MLOAD PUSH2 0x143 SWAP2 SWAP1 PUSH2 0xA19 JUMP JUMPDEST PUSH1 0x40 MLOAD DUP1 SWAP2 SUB SWAP1 RETURN JUMPDEST PUSH2 0x154 PUSH2 0x31D JUMP JUMPDEST PUSH1 0x40 MLOAD PUSH2 0x161 SWAP2 SWAP1 PUSH2 0xA34 JUMP JUMPDEST PUSH1 0x40 MLOAD DUP1 SWAP2 SUB SWAP1 RETURN JUMPDEST PUSH2 0x172 PUSH2 0x3AB JUMP JUMPDEST STOP JUMPDEST PUSH2 0x17C PUSH2 0x55D JUMP JUMPDEST PUSH1 0x40 MLOAD PUSH2 0x189 SWAP2 SWAP1 PUSH2 0xA34 JUMP JUMPDEST PUSH1 0x40 MLOAD DUP1 SWAP2 SUB SWAP1 RETURN JUMPDEST PUSH2 0x1AC PUSH1 0x4 DUP1 CALLDATASIZE SUB DUP2 ADD SWAP1 PUSH2 0x1A7 SWAP2 SWAP1 PUSH2 0x93B JUMP JUMPDEST PUSH2 0x5D6 JUMP JUMPDEST STOP JUMPDEST PUSH2 0x1B6 PUSH2 0x67E JUMP JUMPDEST STOP JUMPDEST PUSH1 0x1 SLOAD DUP2 JUMP JUMPDEST PUSH1 0x0 DUP1 SLOAD SWAP1 PUSH2 0x100 EXP SWAP1 DIV PUSH20 0xFFFFFFFFFFFFFFFFFFFFFFFFFFFFFFFFFFFFFFFF AND PUSH20 0xFFFFFFFFFFFFFFFFFFFFFFFFFFFFFFFFFFFFFFFF AND CALLER PUSH20 0xFFFFFFFFFFFFFFFFFFFFFFFFFFFFFFFFFFFFFFFF AND EQ PUSH2 0x24C JUMPI PUSH1 0x40 MLOAD PUSH32 0x8C379A000000000000000000000000000000000000000000000000000000000 DUP2 MSTORE PUSH1 0x4 ADD PUSH2 0x243 SWAP1 PUSH2 0xA56 JUMP JUMPDEST PUSH1 0x40 MLOAD DUP1 SWAP2 SUB SWAP1 REVERT JUMPDEST DUP1 PUSH1 0x2 SWAP1 DUP1 MLOAD SWAP1 PUSH1 0x20 ADD SWAP1 PUSH2 0x262 SWAP3 SWAP2 SWAP1 PUSH2 0x830 JUMP JUMPDEST POP POP JUMP JUMPDEST PUSH1 0x0 PUSH1 0x7 PUSH1 0x0 PUSH2 0x100 EXP DUP2 SLOAD DUP2 PUSH1 0xFF MUL NOT AND SWAP1 DUP4 ISZERO ISZERO MUL OR SWAP1 SSTORE POP JUMP JUMPDEST PUSH1 0x2 DUP1 SLOAD PUSH2 0x290 SWAP1 PUSH2 0xB79 JUMP JUMPDEST DUP1 PUSH1 0x1F ADD PUSH1 0x20 DUP1 SWAP2 DIV MUL PUSH1 0x20 ADD PUSH1 0x40 MLOAD SWAP1 DUP2 ADD PUSH1 0x40 MSTORE DUP1 SWAP3 SWAP2 SWAP1 DUP2 DUP2 MSTORE PUSH1 0x20 ADD DUP3 DUP1 SLOAD PUSH2 0x2BC SWAP1 PUSH2 0xB79 JUMP JUMPDEST DUP1 ISZERO PUSH2 0x309 JUMPI DUP1 PUSH1 0x1F LT PUSH2 0x2DE JUMPI PUSH2 0x100 DUP1 DUP4 SLOAD DIV MUL DUP4 MSTORE SWAP2 PUSH1 0x20 ADD SWAP2 PUSH2 0x309 JUMP JUMPDEST DUP3 ADD SWAP2 SWAP1 PUSH1 0x0 MSTORE PUSH1 0x20 PUSH1 0x0 KECCAK256 SWAP1 JUMPDEST DUP2 SLOAD DUP2 MSTORE SWAP1 PUSH1 0x1 ADD SWAP1 PUSH1 0x20 ADD DUP1 DUP4 GT PUSH2 0x2EC JUMPI DUP3 SWAP1 SUB PUSH1 0x1F AND DUP3 ADD SWAP2 JUMPDEST POP POP POP POP POP DUP2 JUMP JUMPDEST PUSH1 0x5 SLOAD DUP2 JUMP JUMPDEST PUSH1 0x6 SLOAD DUP2 JUMP JUMPDEST PUSH1 0x3 DUP1 SLOAD PUSH2 0x32A SWAP1 PUSH2 0xB79 JUMP JUMPDEST DUP1 PUSH1 0x1F ADD PUSH1 0x20 DUP1 SWAP2 DIV MUL PUSH1 0x20 ADD PUSH1 0x40 MLOAD SWAP1 DUP2 ADD PUSH1 0x40 MSTORE DUP1 SWAP3 SWAP2 SWAP1 DUP2 DUP2 MSTORE PUSH1 0x20 ADD DUP3 DUP1 SLOAD PUSH2 0x356 SWAP1 PUSH2 0xB79 JUMP JUMPDEST DUP1 ISZERO PUSH2 0x3A3 JUMPI DUP1 PUSH1 0x1F LT PUSH2 0x378 JUMPI PUSH2 0x100 DUP1 DUP4 SLOAD DIV MUL DUP4 MSTORE SWAP2 PUSH1 0x20 ADD SWAP2 PUSH2 0x3A3 JUMP JUMPDEST DUP3 ADD SWAP2 SWAP1 PUSH1 0x0 MSTORE PUSH1 0x20 PUSH1 0x0 KECCAK256 SWAP1 JUMPDEST DUP2 SLOAD DUP2 MSTORE SWAP1 PUSH1 0x1 ADD SWAP1 PUSH1 0x20 ADD DUP1 DUP4 GT PUSH2 0x386 JUMPI DUP3 SWAP1 SUB PUSH1 0x1F AND DUP3 ADD SWAP2 JUMPDEST POP POP POP POP POP DUP2 JUMP JUMPDEST PUSH1 0x0 DUP1 JUMPDEST PUSH1 0x4 DUP1 SLOAD SWAP1 POP DUP2 LT ISZERO PUSH2 0x4A9 JUMPI CALLER PUSH20 0xFFFFFFFFFFFFFFFFFFFFFFFFFFFFFFFFFFFFFFFF AND PUSH1 0x4 DUP3 DUP2 SLOAD DUP2 LT PUSH2 0x40D JUMPI PUSH32 0x4E487B7100000000000000000000000000000000000000000000000000000000 PUSH1 0x0 MSTORE PUSH1 0x32 PUSH1 0x4 MSTORE PUSH1 0x24 PUSH1 0x0 REVERT JUMPDEST SWAP1 PUSH1 0x0 MSTORE PUSH1 0x20 PUSH1 0x0 KECCAK256 ADD PUSH1 0x0 SWAP1 SLOAD SWAP1 PUSH2 0x100 EXP SWAP1 DIV PUSH20 0xFFFFFFFFFFFFFFFFFFFFFFFFFFFFFFFFFFFFFFFF AND PUSH20 0xFFFFFFFFFFFFFFFFFFFFFFFFFFFFFFFFFFFFFFFF AND EQ ISZERO PUSH2 0x496 JUMPI PUSH1 0x0 PUSH2 0x495 JUMPI PUSH1 0x40 MLOAD PUSH32 0x8C379A000000000000000000000000000000000000000000000000000000000 DUP2 MSTORE PUSH1 0x4 ADD PUSH2 0x48C SWAP1 PUSH2 0xA76 JUMP JUMPDEST PUSH1 0x40 MLOAD DUP1 SWAP2 SUB SWAP1 REVERT JUMPDEST JUMPDEST DUP1 DUP1 PUSH2 0x4A1 SWAP1 PUSH2 0xC25 JUMP JUMPDEST SWAP2 POP POP PUSH2 0x3AF JUMP JUMPDEST POP PUSH1 0x1 PUSH2 0x4DF JUMPI PUSH32 0x4E487B7100000000000000000000000000000000000000000000000000000000 PUSH1 0x0 MSTORE PUSH1 0x1 PUSH1 0x4 MSTORE PUSH1 0x24 PUSH1 0x0 REVERT JUMPDEST PUSH1 0x4 CALLER SWAP1 DUP1 PUSH1 0x1 DUP2 SLOAD ADD DUP1 DUP3 SSTORE DUP1 SWAP2 POP POP PUSH1 0x1 SWAP1 SUB SWAP1 PUSH1 0x0 MSTORE PUSH1 0x20 PUSH1 0x0 KECCAK256 ADD PUSH1 0x0 SWAP1 SWAP2 SWAP1 SWAP2 SWAP1 SWAP2 PUSH2 0x100 EXP DUP2 SLOAD DUP2 PUSH20 0xFFFFFFFFFFFFFFFFFFFFFFFFFFFFFFFFFFFFFFFF MUL NOT AND SWAP1 DUP4 PUSH20 0xFFFFFFFFFFFFFFFFFFFFFFFFFFFFFFFFFFFFFFFF AND MUL OR SWAP1 SSTORE POP PUSH1 0x6 PUSH1 0x0 DUP2 SLOAD DUP1 SWAP3 SWAP2 SWAP1 PUSH2 0x555 SWAP1 PUSH2 0xBDC JUMP JUMPDEST SWAP2 SWAP1 POP SSTORE POP POP JUMP JUMPDEST PUSH1 0x60 PUSH1 0x6 SLOAD PUSH1 0x5 SLOAD EQ ISZERO PUSH2 0x58B JUMPI PUSH1 0x40 MLOAD DUP1 PUSH1 0x60 ADD PUSH1 0x40 MSTORE DUP1 PUSH1 0x29 DUP2 MSTORE PUSH1 0x20 ADD PUSH2 0xD5F PUSH1 0x29 SWAP2 CODECOPY SWAP1 POP PUSH2 0x5D3 JUMP JUMPDEST PUSH1 0x6 SLOAD PUSH1 0x5 SLOAD SGT ISZERO PUSH2 0x5B7 JUMPI PUSH1 0x40 MLOAD DUP1 PUSH1 0x60 ADD PUSH1 0x40 MSTORE DUP1 PUSH1 0x23 DUP2 MSTORE PUSH1 0x20 ADD PUSH2 0xDAA PUSH1 0x23 SWAP2 CODECOPY SWAP1 POP PUSH2 0x5D3 JUMP JUMPDEST PUSH1 0x40 MLOAD DUP1 PUSH1 0x60 ADD PUSH1 0x40 MSTORE DUP1 PUSH1 0x22 DUP2 MSTORE PUSH1 0x20 ADD PUSH2 0xD88 PUSH1 0x22 SWAP2 CODECOPY SWAP1 POP JUMPDEST SWAP1 JUMP JUMPDEST PUSH1 0x0 DUP1 SLOAD SWAP1 PUSH2 0x100 EXP SWAP1 DIV PUSH20 0xFFFFFFFFFFFFFFFFFFFFFFFFFFFFFFFFFFFFFFFF AND PUSH20 0xFFFFFFFFFFFFFFFFFFFFFFFFFFFFFFFFFFFFFFFF AND CALLER PUSH20 0xFFFFFFFFFFFFFFFFFFFFFFFFFFFFFFFFFFFFFFFF AND EQ PUSH2 0x664 JUMPI PUSH1 0x40 MLOAD PUSH32 0x8C379A000000000000000000000000000000000000000000000000000000000 DUP2 MSTORE PUSH1 0x4 ADD PUSH2 0x65B SWAP1 PUSH2 0xA56 JUMP JUMPDEST PUSH1 0x40 MLOAD DUP1 SWAP2 SUB SWAP1 REVERT JUMPDEST DUP1 PUSH1 0x3 SWAP1 DUP1 MLOAD SWAP1 PUSH1 0x20 ADD SWAP1 PUSH2 0x67A SWAP3 SWAP2 SWAP1 PUSH2 0x830 JUMP JUMPDEST POP POP JUMP JUMPDEST PUSH1 0x0 DUP1 JUMPDEST PUSH1 0x4 DUP1 SLOAD SWAP1 POP DUP2 LT ISZERO PUSH2 0x77C JUMPI CALLER PUSH20 0xFFFFFFFFFFFFFFFFFFFFFFFFFFFFFFFFFFFFFFFF AND PUSH1 0x4 DUP3 DUP2 SLOAD DUP2 LT PUSH2 0x6E0 JUMPI PUSH32 0x4E487B7100000000000000000000000000000000000000000000000000000000 PUSH1 0x0 MSTORE PUSH1 0x32 PUSH1 0x4 MSTORE PUSH1 0x24 PUSH1 0x0 REVERT JUMPDEST SWAP1 PUSH1 0x0 MSTORE PUSH1 0x20 PUSH1 0x0 KECCAK256 ADD PUSH1 0x0 SWAP1 SLOAD SWAP1 PUSH2 0x100 EXP SWAP1 DIV PUSH20 0xFFFFFFFFFFFFFFFFFFFFFFFFFFFFFFFFFFFFFFFF AND PUSH20 0xFFFFFFFFFFFFFFFFFFFFFFFFFFFFFFFFFFFFFFFF AND EQ ISZERO PUSH2 0x769 JUMPI PUSH1 0x0 PUSH2 0x768 JUMPI PUSH1 0x40 MLOAD PUSH32 0x8C379A000000000000000000000000000000000000000000000000000000000 DUP2 MSTORE PUSH1 0x4 ADD PUSH2 0x75F SWAP1 PUSH2 0xA76 JUMP JUMPDEST PUSH1 0x40 MLOAD DUP1 SWAP2 SUB SWAP1 REVERT JUMPDEST JUMPDEST DUP1 DUP1 PUSH2 0x774 SWAP1 PUSH2 0xC25 JUMP JUMPDEST SWAP2 POP POP PUSH2 0x682 JUMP JUMPDEST POP PUSH1 0x1 PUSH2 0x7B2 JUMPI PUSH32 0x4E487B7100000000000000000000000000000000000000000000000000000000 PUSH1 0x0 MSTORE PUSH1 0x1 PUSH1 0x4 MSTORE PUSH1 0x24 PUSH1 0x0 REVERT JUMPDEST PUSH1 0x4 CALLER SWAP1 DUP1 PUSH1 0x1 DUP2 SLOAD ADD DUP1 DUP3 SSTORE DUP1 SWAP2 POP POP PUSH1 0x1 SWAP1 SUB SWAP1 PUSH1 0x0 MSTORE PUSH1 0x20 PUSH1 0x0 KECCAK256 ADD PUSH1 0x0 SWAP1 SWAP2 SWAP1 SWAP2 SWAP1 SWAP2 PUSH2 0x100 EXP DUP2 SLOAD DUP2 PUSH20 0xFFFFFFFFFFFFFFFFFFFFFFFFFFFFFFFFFFFFFFFF MUL NOT AND SWAP1 DUP4 PUSH20 0xFFFFFFFFFFFFFFFFFFFFFFFFFFFFFFFFFFFFFFFF AND MUL OR SWAP1 SSTORE POP PUSH1 0x5 PUSH1 0x0 DUP2 SLOAD DUP1 SWAP3 SWAP2 SWAP1 PUSH2 0x828 SWAP1 PUSH2 0xBDC JUMP JUMPDEST SWAP2 SWAP1 POP SSTORE POP POP JUMP JUMPDEST DUP3 DUP1 SLOAD PUSH2 0x83C SWAP1 PUSH2 0xB79 JUMP JUMPDEST SWAP1 PUSH1 0x0 MSTORE PUSH1 0x20 PUSH1 0x0 KECCAK256 SWAP1 PUSH1 0x1F ADD PUSH1 0x20 SWAP1 DIV DUP2 ADD SWAP3 DUP3 PUSH2 0x85E JUMPI PUSH1 0x0 DUP6 SSTORE PUSH2 0x8A5 JUMP JUMPDEST DUP3 PUSH1 0x1F LT PUSH2 0x877 JUMPI DUP1 MLOAD PUSH1 0xFF NOT AND DUP4 DUP1 ADD OR DUP6 SSTORE PUSH2 0x8A5 JUMP JUMPDEST DUP3 DUP1 ADD PUSH1 0x1 ADD DUP6 SSTORE DUP3 ISZERO PUSH2 0x8A5 JUMPI SWAP2 DUP3 ADD JUMPDEST DUP3 DUP2 GT ISZERO PUSH2 0x8A4 JUMPI DUP3 MLOAD DUP3 SSTORE SWAP2 PUSH1 0x20 ADD SWAP2 SWAP1 PUSH1 0x1 ADD SWAP1 PUSH2 0x889 JUMP JUMPDEST JUMPDEST POP SWAP1 POP PUSH2 0x8B2 SWAP2 SWAP1 PUSH2 0x8B6 JUMP JUMPDEST POP SWAP1 JUMP JUMPDEST JUMPDEST DUP1 DUP3 GT ISZERO PUSH2 0x8CF JUMPI PUSH1 0x0 DUP2 PUSH1 0x0 SWAP1 SSTORE POP PUSH1 0x1 ADD PUSH2 0x8B7 JUMP JUMPDEST POP SWAP1 JUMP JUMPDEST PUSH1 0x0 PUSH2 0x8E6 PUSH2 0x8E1 DUP5 PUSH2 0xAD6 JUMP JUMPDEST PUSH2 0xAB1 JUMP JUMPDEST SWAP1 POP DUP3 DUP2 MSTORE PUSH1 0x20 DUP2 ADD DUP5 DUP5 DUP5 ADD GT ISZERO PUSH2 0x8FE JUMPI PUSH1 0x0 DUP1 REVERT JUMPDEST PUSH2 0x909 DUP5 DUP3 DUP6 PUSH2 0xB37 JUMP JUMPDEST POP SWAP4 SWAP3 POP POP POP JUMP JUMPDEST PUSH1 0x0 DUP3 PUSH1 0x1F DUP4 ADD SLT PUSH2 0x922 JUMPI PUSH1 0x0 DUP1 REVERT JUMPDEST DUP2 CALLDATALOAD PUSH2 0x932 DUP5 DUP3 PUSH1 0x20 DUP7 ADD PUSH2 0x8D3 JUMP JUMPDEST SWAP2 POP POP SWAP3 SWAP2 POP POP JUMP JUMPDEST PUSH1 0x0 PUSH1 0x20 DUP3 DUP5 SUB SLT ISZERO PUSH2 0x94D JUMPI PUSH1 0x0 DUP1 REVERT JUMPDEST PUSH1 0x0 DUP3 ADD CALLDATALOAD PUSH8 0xFFFFFFFFFFFFFFFF DUP2 GT ISZERO PUSH2 0x967 JUMPI PUSH1 0x0 DUP1 REVERT JUMPDEST PUSH2 0x973 DUP5 DUP3 DUP6 ADD PUSH2 0x911 JUMP JUMPDEST SWAP2 POP POP SWAP3 SWAP2 POP POP JUMP JUMPDEST PUSH2 0x985 DUP2 PUSH2 0xB23 JUMP JUMPDEST DUP3 MSTORE POP POP JUMP JUMPDEST PUSH1 0x0 PUSH2 0x996 DUP3 PUSH2 0xB07 JUMP JUMPDEST PUSH2 0x9A0 DUP2 DUP6 PUSH2 0xB12 JUMP JUMPDEST SWAP4 POP PUSH2 0x9B0 DUP2 DUP6 PUSH1 0x20 DUP7 ADD PUSH2 0xB46 JUMP JUMPDEST PUSH2 0x9B9 DUP2 PUSH2 0xCFB JUMP JUMPDEST DUP5 ADD SWAP2 POP POP SWAP3 SWAP2 POP POP JUMP JUMPDEST PUSH1 0x0 PUSH2 0x9D1 PUSH1 0xD DUP4 PUSH2 0xB12 JUMP JUMPDEST SWAP2 POP PUSH2 0x9DC DUP3 PUSH2 0xD0C JUMP JUMPDEST PUSH1 0x20 DUP3 ADD SWAP1 POP SWAP2 SWAP1 POP JUMP JUMPDEST PUSH1 0x0 PUSH2 0x9F4 PUSH1 0x17 DUP4 PUSH2 0xB12 JUMP JUMPDEST SWAP2 POP PUSH2 0x9FF DUP3 PUSH2 0xD35 JUMP JUMPDEST PUSH1 0x20 DUP3 ADD SWAP1 POP SWAP2 SWAP1 POP JUMP JUMPDEST PUSH2 0xA13 DUP2 PUSH2 0xB2D JUMP JUMPDEST DUP3 MSTORE POP POP JUMP JUMPDEST PUSH1 0x0 PUSH1 0x20 DUP3 ADD SWAP1 POP PUSH2 0xA2E PUSH1 0x0 DUP4 ADD DUP5 PUSH2 0x97C JUMP JUMPDEST SWAP3 SWAP2 POP POP JUMP JUMPDEST PUSH1 0x0 PUSH1 0x20 DUP3 ADD SWAP1 POP DUP2 DUP2 SUB PUSH1 0x0 DUP4 ADD MSTORE PUSH2 0xA4E DUP2 DUP5 PUSH2 0x98B JUMP JUMPDEST SWAP1 POP SWAP3 SWAP2 POP POP JUMP JUMPDEST PUSH1 0x0 PUSH1 0x20 DUP3 ADD SWAP1 POP DUP2 DUP2 SUB PUSH1 0x0 DUP4 ADD MSTORE PUSH2 0xA6F DUP2 PUSH2 0x9C4 JUMP JUMPDEST SWAP1 POP SWAP2 SWAP1 POP JUMP JUMPDEST PUSH1 0x0 PUSH1 0x20 DUP3 ADD SWAP1 POP DUP2 DUP2 SUB PUSH1 0x0 DUP4 ADD MSTORE PUSH2 0xA8F DUP2 PUSH2 0x9E7 JUMP JUMPDEST SWAP1 POP SWAP2 SWAP1 POP JUMP JUMPDEST PUSH1 0x0 PUSH1 0x20 DUP3 ADD SWAP1 POP PUSH2 0xAAB PUSH1 0x0 DUP4 ADD DUP5 PUSH2 0xA0A JUMP JUMPDEST SWAP3 SWAP2 POP POP JUMP JUMPDEST PUSH1 0x0 PUSH2 0xABB PUSH2 0xACC JUMP JUMPDEST SWAP1 POP PUSH2 0xAC7 DUP3 DUP3 PUSH2 0xBAB JUMP JUMPDEST SWAP2 SWAP1 POP JUMP JUMPDEST PUSH1 0x0 PUSH1 0x40 MLOAD SWAP1 POP SWAP1 JUMP JUMPDEST PUSH1 0x0 PUSH8 0xFFFFFFFFFFFFFFFF DUP3 GT ISZERO PUSH2 0xAF1 JUMPI PUSH2 0xAF0 PUSH2 0xCCC JUMP JUMPDEST JUMPDEST PUSH2 0xAFA DUP3 PUSH2 0xCFB JUMP JUMPDEST SWAP1 POP PUSH1 0x20 DUP2 ADD SWAP1 POP SWAP2 SWAP1 POP JUMP JUMPDEST PUSH1 0x0 DUP2 MLOAD SWAP1 POP SWAP2 SWAP1 POP JUMP JUMPDEST PUSH1 0x0 DUP3 DUP3 MSTORE PUSH1 0x20 DUP3 ADD SWAP1 POP SWAP3 SWAP2 POP POP JUMP JUMPDEST PUSH1 0x0 DUP2 SWAP1 POP SWAP2 SWAP1 POP JUMP JUMPDEST PUSH1 0x0 DUP2 SWAP1 POP SWAP2 SWAP1 POP JUMP JUMPDEST DUP3 DUP2 DUP4 CALLDATACOPY PUSH1 0x0 DUP4 DUP4 ADD MSTORE POP POP POP JUMP JUMPDEST PUSH1 0x0 JUMPDEST DUP4 DUP2 LT ISZERO PUSH2 0xB64 JUMPI DUP1 DUP3 ADD MLOAD DUP2 DUP5 ADD MSTORE PUSH1 0x20 DUP2 ADD SWAP1 POP PUSH2 0xB49 JUMP JUMPDEST DUP4 DUP2 GT ISZERO PUSH2 0xB73 JUMPI PUSH1 0x0 DUP5 DUP5 ADD MSTORE JUMPDEST POP POP POP POP JUMP JUMPDEST PUSH1 0x0 PUSH1 0x2 DUP3 DIV SWAP1 POP PUSH1 0x1 DUP3 AND DUP1 PUSH2 0xB91 JUMPI PUSH1 0x7F DUP3 AND SWAP2 POP JUMPDEST PUSH1 0x20 DUP3 LT DUP2 EQ ISZERO PUSH2 0xBA5 JUMPI PUSH2 0xBA4 PUSH2 0xC9D JUMP JUMPDEST JUMPDEST POP SWAP2 SWAP1 POP JUMP JUMPDEST PUSH2 0xBB4 DUP3 PUSH2 0xCFB JUMP JUMPDEST DUP2 ADD DUP2 DUP2 LT PUSH8 0xFFFFFFFFFFFFFFFF DUP3 GT OR ISZERO PUSH2 0xBD3 JUMPI PUSH2 0xBD2 PUSH2 0xCCC JUMP JUMPDEST JUMPDEST DUP1 PUSH1 0x40 MSTORE POP POP POP JUMP JUMPDEST PUSH1 0x0 PUSH2 0xBE7 DUP3 PUSH2 0xB23 JUMP JUMPDEST SWAP2 POP PUSH32 0x7FFFFFFFFFFFFFFFFFFFFFFFFFFFFFFFFFFFFFFFFFFFFFFFFFFFFFFFFFFFFFFF DUP3 EQ ISZERO PUSH2 0xC1A JUMPI PUSH2 0xC19 PUSH2 0xC6E JUMP JUMPDEST JUMPDEST PUSH1 0x1 DUP3 ADD SWAP1 POP SWAP2 SWAP1 POP JUMP JUMPDEST PUSH1 0x0 PUSH2 0xC30 DUP3 PUSH2 0xB2D JUMP JUMPDEST SWAP2 POP PUSH32 0xFFFFFFFFFFFFFFFFFFFFFFFFFFFFFFFFFFFFFFFFFFFFFFFFFFFFFFFFFFFFFFFF DUP3 EQ ISZERO PUSH2 0xC63 JUMPI PUSH2 0xC62 PUSH2 0xC6E JUMP JUMPDEST JUMPDEST PUSH1 0x1 DUP3 ADD SWAP1 POP SWAP2 SWAP1 POP JUMP JUMPDEST PUSH32 0x4E487B7100000000000000000000000000000000000000000000000000000000 PUSH1 0x0 MSTORE PUSH1 0x11 PUSH1 0x4 MSTORE PUSH1 0x24 PUSH1 0x0 REVERT JUMPDEST PUSH32 0x4E487B7100000000000000000000000000000000000000000000000000000000 PUSH1 0x0 MSTORE PUSH1 0x22 PUSH1 0x4 MSTORE PUSH1 0x24 PUSH1 0x0 REVERT JUMPDEST PUSH32 0x4E487B7100000000000000000000000000000000000000000000000000000000 PUSH1 0x0 MSTORE PUSH1 0x41 PUSH1 0x4 MSTORE PUSH1 0x24 PUSH1 0x0 REVERT JUMPDEST PUSH1 0x0 PUSH1 0x1F NOT PUSH1 0x1F DUP4 ADD AND SWAP1 POP SWAP2 SWAP1 POP JUMP JUMPDEST PUSH32 0x6D757374206265206F776E657200000000000000000000000000000000000000 PUSH1 0x0 DUP3 ADD MSTORE POP JUMP JUMPDEST PUSH32 0x566F7465722068617320616C726561647920766F746564000000000000000000 PUSH1 0x0 DUP3 ADD MSTORE POP JUMP INVALID SLOAD PUSH9 0x6520436F6E73756C74 PUSH2 0x7469 PUSH16 0x6E2068617320636F6E636C7564656420 PUSH21 0x6F206120647261772154686520436F6E73756C7461 PUSH21 0x696F6E20686173206265656E206E65676174656421 SLOAD PUSH9 0x6520436F6E73756C74 PUSH2 0x7469 PUSH16 0x6E20686173206265656E206163636570 PUSH21 0x656421A264697066735822122040DC77D5D696436A PUSH13 0x3CACB747A4C7AA890A06776DEA PUSH10 0x38BD6DF3466335ACB864 PUSH20 0x6F6C634300080100330000000000000000000000 "
				},
				"gasEstimates": {
					"creation": {
						"codeDepositCost": "717200",
						"executionCost": "infinite",
						"totalCost": "infinite"
					},
					"external": {
						"changeDescription(string)": "infinite",
						"changeTitle(string)": "infinite",
						"description()": "infinite",
						"disable()": "21056",
						"getResult()": "infinite",
						"index()": "1130",
						"title()": "infinite",
						"voteAgainst()": "infinite",
						"voteAgainstCount()": "1129",
						"votePro()": "infinite",
						"voteProCount()": "1218"
					}
				},
				"methodIdentifiers": {
					"changeDescription(string)": "e6120413",
					"changeTitle(string)": "2dbe07c7",
					"description()": "7284e416",
					"disable()": "2f2770db",
					"getResult()": "de292789",
					"index()": "2986c0e5",
					"title()": "4a79d50c",
					"voteAgainst()": "9f396cff",
					"voteAgainstCount()": "710e24ee",
					"votePro()": "fdbec445",
					"voteProCount()": "6f0aa449"
				}
			},
			"storageLayout": {
				"storage": [
					{
						"astId": 128,
						"contract": "contracts/Consultation.sol:Consultation",
						"label": "owner",
						"offset": 0,
						"slot": "0",
						"type": "t_address"
					},
					{
						"astId": 130,
						"contract": "contracts/Consultation.sol:Consultation",
						"label": "index",
						"offset": 0,
						"slot": "1",
						"type": "t_uint256"
					},
					{
						"astId": 132,
						"contract": "contracts/Consultation.sol:Consultation",
						"label": "title",
						"offset": 0,
						"slot": "2",
						"type": "t_string_storage"
					},
					{
						"astId": 134,
						"contract": "contracts/Consultation.sol:Consultation",
						"label": "description",
						"offset": 0,
						"slot": "3",
						"type": "t_string_storage"
					},
					{
						"astId": 137,
						"contract": "contracts/Consultation.sol:Consultation",
						"label": "voters",
						"offset": 0,
						"slot": "4",
						"type": "t_array(t_address)dyn_storage"
					},
					{
						"astId": 140,
						"contract": "contracts/Consultation.sol:Consultation",
						"label": "voteProCount",
						"offset": 0,
						"slot": "5",
						"type": "t_int256"
					},
					{
						"astId": 143,
						"contract": "contracts/Consultation.sol:Consultation",
						"label": "voteAgainstCount",
						"offset": 0,
						"slot": "6",
						"type": "t_int256"
					},
					{
						"astId": 146,
						"contract": "contracts/Consultation.sol:Consultation",
						"label": "isEnabled",
						"offset": 0,
						"slot": "7",
						"type": "t_bool"
					}
				],
				"types": {
					"t_address": {
						"encoding": "inplace",
						"label": "address",
						"numberOfBytes": "20"
					},
					"t_array(t_address)dyn_storage": {
						"base": "t_address",
						"encoding": "dynamic_array",
						"label": "address[]",
						"numberOfBytes": "32"
					},
					"t_bool": {
						"encoding": "inplace",
						"label": "bool",
						"numberOfBytes": "1"
					},
					"t_int256": {
						"encoding": "inplace",
						"label": "int256",
						"numberOfBytes": "32"
					},
					"t_string_storage": {
						"encoding": "bytes",
						"label": "string",
						"numberOfBytes": "32"
					},
					"t_uint256": {
						"encoding": "inplace",
						"label": "uint256",
						"numberOfBytes": "32"
					}
				}
			},
			"userdoc": {
				"kind": "user",
				"methods": {},
				"version": 1
			}
		}
	}
}