{
	"OnDemo/contracts/RoleManagement.sol": {
		"AccountManagement": {
			"abi": [
				{
					"inputs": [
						{
							"internalType": "string",
							"name": "_firstName",
							"type": "string"
						},
						{
							"internalType": "string",
							"name": "_secondName",
							"type": "string"
						},
						{
							"internalType": "string",
							"name": "_mailAdress",
							"type": "string"
						}
					],
					"stateMutability": "nonpayable",
					"type": "constructor"
				},
				{
					"inputs": [
						{
							"internalType": "address",
							"name": "",
							"type": "address"
						}
					],
					"name": "activeMembers",
					"outputs": [
						{
							"internalType": "bool",
							"name": "",
							"type": "bool"
						}
					],
					"stateMutability": "view",
					"type": "function"
				},
				{
					"inputs": [
						{
							"internalType": "address",
							"name": "_address",
							"type": "address"
						},
						{
							"internalType": "enum AccountManagement.Role",
							"name": "_role",
							"type": "uint8"
						}
					],
					"name": "assignRole",
					"outputs": [],
					"stateMutability": "nonpayable",
					"type": "function"
				},
				{
					"inputs": [
						{
							"internalType": "address",
							"name": "_address",
							"type": "address"
						}
					],
					"name": "burnAccount",
					"outputs": [],
					"stateMutability": "nonpayable",
					"type": "function"
				},
				{
					"inputs": [
						{
							"internalType": "address",
							"name": "_address",
							"type": "address"
						},
						{
							"internalType": "string",
							"name": "_firstName",
							"type": "string"
						},
						{
							"internalType": "string",
							"name": "_secondName",
							"type": "string"
						},
						{
							"internalType": "string",
							"name": "_mailAdress",
							"type": "string"
						}
					],
					"name": "createAccount",
					"outputs": [],
					"stateMutability": "nonpayable",
					"type": "function"
				},
				{
					"inputs": [
						{
							"internalType": "address",
							"name": "_address",
							"type": "address"
						}
					],
					"name": "hasCouncilMemberRole",
					"outputs": [
						{
							"internalType": "bool",
							"name": "",
							"type": "bool"
						}
					],
					"stateMutability": "view",
					"type": "function"
				},
				{
					"inputs": [
						{
							"internalType": "address",
							"name": "_address",
							"type": "address"
						}
					],
					"name": "hasGuestRole",
					"outputs": [
						{
							"internalType": "bool",
							"name": "",
							"type": "bool"
						}
					],
					"stateMutability": "view",
					"type": "function"
				},
				{
					"inputs": [
						{
							"internalType": "address",
							"name": "_address",
							"type": "address"
						}
					],
					"name": "hasLeaderRole",
					"outputs": [
						{
							"internalType": "bool",
							"name": "",
							"type": "bool"
						}
					],
					"stateMutability": "view",
					"type": "function"
				},
				{
					"inputs": [
						{
							"internalType": "address",
							"name": "_address",
							"type": "address"
						}
					],
					"name": "hasMemberRole",
					"outputs": [
						{
							"internalType": "bool",
							"name": "",
							"type": "bool"
						}
					],
					"stateMutability": "view",
					"type": "function"
				},
				{
					"inputs": [
						{
							"internalType": "address",
							"name": "_address",
							"type": "address"
						}
					],
					"name": "makeAccountActive",
					"outputs": [],
					"stateMutability": "nonpayable",
					"type": "function"
				},
				{
					"inputs": [
						{
							"internalType": "address",
							"name": "_address",
							"type": "address"
						}
					],
					"name": "makeAccountPassive",
					"outputs": [],
					"stateMutability": "nonpayable",
					"type": "function"
				},
				{
					"inputs": [],
					"name": "owner",
					"outputs": [
						{
							"internalType": "address",
							"name": "",
							"type": "address"
						}
					],
					"stateMutability": "view",
					"type": "function"
				},
				{
					"inputs": [
						{
							"internalType": "address",
							"name": "_address",
							"type": "address"
						},
						{
							"internalType": "enum AccountManagement.Role",
							"name": "_role",
							"type": "uint8"
						}
					],
					"name": "removeRole",
					"outputs": [],
					"stateMutability": "nonpayable",
					"type": "function"
				},
				{
					"inputs": [
						{
							"internalType": "address",
							"name": "",
							"type": "address"
						}
					],
					"name": "users",
					"outputs": [
						{
							"internalType": "address",
							"name": "userAddress",
							"type": "address"
						},
						{
							"internalType": "string",
							"name": "firstName",
							"type": "string"
						},
						{
							"internalType": "string",
							"name": "secondName",
							"type": "string"
						},
						{
							"internalType": "string",
							"name": "mailAdress",
							"type": "string"
						},
						{
							"internalType": "bool",
							"name": "isActive",
							"type": "bool"
						},
						{
							"components": [
								{
									"internalType": "bool",
									"name": "isLeader",
									"type": "bool"
								},
								{
									"internalType": "bool",
									"name": "isCouncilMember",
									"type": "bool"
								},
								{
									"internalType": "bool",
									"name": "isMember",
									"type": "bool"
								},
								{
									"internalType": "bool",
									"name": "isGuest",
									"type": "bool"
								}
							],
							"internalType": "struct AccountManagement.RoleMap",
							"name": "roleMap",
							"type": "tuple"
						}
					],
					"stateMutability": "view",
					"type": "function"
				}
			],
			"devdoc": {
				"kind": "dev",
				"methods": {},
				"version": 1
			},
			"evm": {
				"assembly": "    /* \"OnDemo/contracts/RoleManagement.sol\":74:6722  contract AccountManagement {\r... */\n  mstore(0x40, 0x80)\n    /* \"OnDemo/contracts/RoleManagement.sol\":870:1172  constructor(string memory _firstName, string memory _secondName, string memory _mailAdress) {\r... */\n  callvalue\n  dup1\n  iszero\n  tag_1\n  jumpi\n  0x00\n  dup1\n  revert\ntag_1:\n  pop\n  mload(0x40)\n  sub(codesize, bytecodeSize)\n  dup1\n  bytecodeSize\n  dup4\n  codecopy\n  dup2\n  dup2\n  add\n  0x40\n  mstore\n  dup2\n  add\n  swap1\n  tag_2\n  swap2\n  swap1\n  tag_3\n  jump\t// in\ntag_2:\n    /* \"OnDemo/contracts/RoleManagement.sol\":981:991  msg.sender */\n  caller\n    /* \"OnDemo/contracts/RoleManagement.sol\":973:978  owner */\n  0x00\n  dup1\n    /* \"OnDemo/contracts/RoleManagement.sol\":973:991  owner = msg.sender */\n  0x0100\n  exp\n  dup2\n  sload\n  dup2\n  0xffffffffffffffffffffffffffffffffffffffff\n  mul\n  not\n  and\n  swap1\n  dup4\n  0xffffffffffffffffffffffffffffffffffffffff\n  and\n  mul\n  or\n  swap1\n  sstore\n  pop\n    /* \"OnDemo/contracts/RoleManagement.sol\":1002:1065  createAccount(msg.sender, _firstName, _secondName, _mailAdress) */\n  tag_6\n    /* \"OnDemo/contracts/RoleManagement.sol\":1016:1026  msg.sender */\n  caller\n    /* \"OnDemo/contracts/RoleManagement.sol\":1028:1038  _firstName */\n  dup5\n    /* \"OnDemo/contracts/RoleManagement.sol\":1040:1051  _secondName */\n  dup5\n    /* \"OnDemo/contracts/RoleManagement.sol\":1053:1064  _mailAdress */\n  dup5\n    /* \"OnDemo/contracts/RoleManagement.sol\":1002:1015  createAccount */\n  shl(0x20, tag_7)\n    /* \"OnDemo/contracts/RoleManagement.sol\":1002:1065  createAccount(msg.sender, _firstName, _secondName, _mailAdress) */\n  0x20\n  shr\n  jump\t// in\ntag_6:\n    /* \"OnDemo/contracts/RoleManagement.sol\":1082:1117  assignRole(msg.sender, Role.LEADER) */\n  tag_8\n    /* \"OnDemo/contracts/RoleManagement.sol\":1093:1103  msg.sender */\n  caller\n    /* \"OnDemo/contracts/RoleManagement.sol\":1105:1116  Role.LEADER */\n  0x00\n    /* \"OnDemo/contracts/RoleManagement.sol\":1082:1092  assignRole */\n  shl(0x20, tag_9)\n    /* \"OnDemo/contracts/RoleManagement.sol\":1082:1117  assignRole(msg.sender, Role.LEADER) */\n  0x20\n  shr\n  jump\t// in\ntag_8:\n    /* \"OnDemo/contracts/RoleManagement.sol\":1128:1162  removeRole(msg.sender, Role.GUEST) */\n  tag_10\n    /* \"OnDemo/contracts/RoleManagement.sol\":1139:1149  msg.sender */\n  caller\n    /* \"OnDemo/contracts/RoleManagement.sol\":1151:1161  Role.GUEST */\n  0x03\n    /* \"OnDemo/contracts/RoleManagement.sol\":1128:1138  removeRole */\n  shl(0x20, tag_11)\n    /* \"OnDemo/contracts/RoleManagement.sol\":1128:1162  removeRole(msg.sender, Role.GUEST) */\n  0x20\n  shr\n  jump\t// in\ntag_10:\n    /* \"OnDemo/contracts/RoleManagement.sol\":870:1172  constructor(string memory _firstName, string memory _secondName, string memory _mailAdress) {\r... */\n  pop\n  pop\n  pop\n    /* \"OnDemo/contracts/RoleManagement.sol\":74:6722  contract AccountManagement {\r... */\n  jump(tag_12)\n    /* \"OnDemo/contracts/RoleManagement.sol\":1821:2185  function createAccount(address _address, string memory _firstName, string memory _secondName, string memory _mailAdress) public userNotExists(_address){\r... */\ntag_7:\n    /* \"OnDemo/contracts/RoleManagement.sol\":1963:1971  _address */\n  dup4\n    /* \"OnDemo/contracts/RoleManagement.sol\":1735:1736  0 */\n  0x00\n    /* \"OnDemo/contracts/RoleManagement.sol\":1696:1737  users[_address].userAddress == address(0) */\n  0xffffffffffffffffffffffffffffffffffffffff\n  and\n    /* \"OnDemo/contracts/RoleManagement.sol\":1696:1701  users */\n  0x01\n    /* \"OnDemo/contracts/RoleManagement.sol\":1696:1711  users[_address] */\n  0x00\n    /* \"OnDemo/contracts/RoleManagement.sol\":1702:1710  _address */\n  dup4\n    /* \"OnDemo/contracts/RoleManagement.sol\":1696:1711  users[_address] */\n  0xffffffffffffffffffffffffffffffffffffffff\n  and\n  0xffffffffffffffffffffffffffffffffffffffff\n  and\n  dup2\n  mstore\n  0x20\n  add\n  swap1\n  dup2\n  mstore\n  0x20\n  add\n  0x00\n  keccak256\n    /* \"OnDemo/contracts/RoleManagement.sol\":1696:1723  users[_address].userAddress */\n  0x00\n  add\n  0x00\n  swap1\n  sload\n  swap1\n  0x0100\n  exp\n  swap1\n  div\n  0xffffffffffffffffffffffffffffffffffffffff\n  and\n    /* \"OnDemo/contracts/RoleManagement.sol\":1696:1737  users[_address].userAddress == address(0) */\n  0xffffffffffffffffffffffffffffffffffffffff\n  and\n  eq\n    /* \"OnDemo/contracts/RoleManagement.sol\":1688:1764  require(users[_address].userAddress == address(0), \"Account already exists\") */\n  tag_14\n  jumpi\n  mload(0x40)\n  0x08c379a000000000000000000000000000000000000000000000000000000000\n  dup2\n  mstore\n  0x04\n  add\n  tag_15\n  swap1\n  tag_16\n  jump\t// in\ntag_15:\n  mload(0x40)\n  dup1\n  swap2\n  sub\n  swap1\n  revert\ntag_14:\n    /* \"OnDemo/contracts/RoleManagement.sol\":1983:2005  RoleMap memory roleMap */\n  0x00\n    /* \"OnDemo/contracts/RoleManagement.sol\":2008:2042  RoleMap(false, false, false, true) */\n  mload(0x40)\n  dup1\n  0x80\n  add\n  0x40\n  mstore\n  dup1\n    /* \"OnDemo/contracts/RoleManagement.sol\":2016:2021  false */\n  0x00\n    /* \"OnDemo/contracts/RoleManagement.sol\":2008:2042  RoleMap(false, false, false, true) */\n  iszero\n  iszero\n  dup2\n  mstore\n  0x20\n  add\n    /* \"OnDemo/contracts/RoleManagement.sol\":2023:2028  false */\n  0x00\n    /* \"OnDemo/contracts/RoleManagement.sol\":2008:2042  RoleMap(false, false, false, true) */\n  iszero\n  iszero\n  dup2\n  mstore\n  0x20\n  add\n    /* \"OnDemo/contracts/RoleManagement.sol\":2030:2035  false */\n  0x00\n    /* \"OnDemo/contracts/RoleManagement.sol\":2008:2042  RoleMap(false, false, false, true) */\n  iszero\n  iszero\n  dup2\n  mstore\n  0x20\n  add\n    /* \"OnDemo/contracts/RoleManagement.sol\":2037:2041  true */\n  0x01\n    /* \"OnDemo/contracts/RoleManagement.sol\":2008:2042  RoleMap(false, false, false, true) */\n  iszero\n  iszero\n  dup2\n  mstore\n  pop\n    /* \"OnDemo/contracts/RoleManagement.sol\":1983:2042  RoleMap memory roleMap = RoleMap(false, false, false, true) */\n  swap1\n  pop\n    /* \"OnDemo/contracts/RoleManagement.sol\":2053:2069  User memory user */\n  0x00\n    /* \"OnDemo/contracts/RoleManagement.sol\":2072:2139  User(_address, _firstName, _secondName, _mailAdress, true, roleMap) */\n  mload(0x40)\n  dup1\n  0xc0\n  add\n  0x40\n  mstore\n  dup1\n    /* \"OnDemo/contracts/RoleManagement.sol\":2077:2085  _address */\n  dup9\n    /* \"OnDemo/contracts/RoleManagement.sol\":2072:2139  User(_address, _firstName, _secondName, _mailAdress, true, roleMap) */\n  0xffffffffffffffffffffffffffffffffffffffff\n  and\n  dup2\n  mstore\n  0x20\n  add\n    /* \"OnDemo/contracts/RoleManagement.sol\":2087:2097  _firstName */\n  dup8\n    /* \"OnDemo/contracts/RoleManagement.sol\":2072:2139  User(_address, _firstName, _secondName, _mailAdress, true, roleMap) */\n  dup2\n  mstore\n  0x20\n  add\n    /* \"OnDemo/contracts/RoleManagement.sol\":2099:2110  _secondName */\n  dup7\n    /* \"OnDemo/contracts/RoleManagement.sol\":2072:2139  User(_address, _firstName, _secondName, _mailAdress, true, roleMap) */\n  dup2\n  mstore\n  0x20\n  add\n    /* \"OnDemo/contracts/RoleManagement.sol\":2112:2123  _mailAdress */\n  dup6\n    /* \"OnDemo/contracts/RoleManagement.sol\":2072:2139  User(_address, _firstName, _secondName, _mailAdress, true, roleMap) */\n  dup2\n  mstore\n  0x20\n  add\n    /* \"OnDemo/contracts/RoleManagement.sol\":2125:2129  true */\n  0x01\n    /* \"OnDemo/contracts/RoleManagement.sol\":2072:2139  User(_address, _firstName, _secondName, _mailAdress, true, roleMap) */\n  iszero\n  iszero\n  dup2\n  mstore\n  0x20\n  add\n    /* \"OnDemo/contracts/RoleManagement.sol\":2131:2138  roleMap */\n  dup4\n    /* \"OnDemo/contracts/RoleManagement.sol\":2072:2139  User(_address, _firstName, _secondName, _mailAdress, true, roleMap) */\n  dup2\n  mstore\n  pop\n    /* \"OnDemo/contracts/RoleManagement.sol\":2053:2139  User memory user = User(_address, _firstName, _secondName, _mailAdress, true, roleMap) */\n  swap1\n  pop\n    /* \"OnDemo/contracts/RoleManagement.sol\":2168:2172  user */\n  dup1\n    /* \"OnDemo/contracts/RoleManagement.sol\":2150:2155  users */\n  0x01\n    /* \"OnDemo/contracts/RoleManagement.sol\":2150:2165  users[_address] */\n  0x00\n    /* \"OnDemo/contracts/RoleManagement.sol\":2156:2164  _address */\n  dup10\n    /* \"OnDemo/contracts/RoleManagement.sol\":2150:2165  users[_address] */\n  0xffffffffffffffffffffffffffffffffffffffff\n  and\n  0xffffffffffffffffffffffffffffffffffffffff\n  and\n  dup2\n  mstore\n  0x20\n  add\n  swap1\n  dup2\n  mstore\n  0x20\n  add\n  0x00\n  keccak256\n    /* \"OnDemo/contracts/RoleManagement.sol\":2150:2172  users[_address] = user */\n  0x00\n  dup3\n  add\n  mload\n  dup2\n  0x00\n  add\n  exp(0x0100, 0x00)\n  dup2\n  sload\n  dup2\n  0xffffffffffffffffffffffffffffffffffffffff\n  mul\n  not\n  and\n  swap1\n  dup4\n  0xffffffffffffffffffffffffffffffffffffffff\n  and\n  mul\n  or\n  swap1\n  sstore\n  pop\n  0x20\n  dup3\n  add\n  mload\n  dup2\n  0x01\n  add\n  swap1\n  dup1\n  mload\n  swap1\n  0x20\n  add\n  swap1\n  tag_18\n  swap3\n  swap2\n  swap1\n  tag_19\n  jump\t// in\ntag_18:\n  pop\n  0x40\n  dup3\n  add\n  mload\n  dup2\n  0x02\n  add\n  swap1\n  dup1\n  mload\n  swap1\n  0x20\n  add\n  swap1\n  tag_20\n  swap3\n  swap2\n  swap1\n  tag_19\n  jump\t// in\ntag_20:\n  pop\n  0x60\n  dup3\n  add\n  mload\n  dup2\n  0x03\n  add\n  swap1\n  dup1\n  mload\n  swap1\n  0x20\n  add\n  swap1\n  tag_21\n  swap3\n  swap2\n  swap1\n  tag_19\n  jump\t// in\ntag_21:\n  pop\n  0x80\n  dup3\n  add\n  mload\n  dup2\n  0x04\n  add\n  exp(0x0100, 0x00)\n  dup2\n  sload\n  dup2\n  0xff\n  mul\n  not\n  and\n  swap1\n  dup4\n  iszero\n  iszero\n  mul\n  or\n  swap1\n  sstore\n  pop\n  0xa0\n  dup3\n  add\n  mload\n  dup2\n  0x05\n  add\n  0x00\n  dup3\n  add\n  mload\n  dup2\n  0x00\n  add\n  exp(0x0100, 0x00)\n  dup2\n  sload\n  dup2\n  0xff\n  mul\n  not\n  and\n  swap1\n  dup4\n  iszero\n  iszero\n  mul\n  or\n  swap1\n  sstore\n  pop\n  0x20\n  dup3\n  add\n  mload\n  dup2\n  0x00\n  add\n  exp(0x0100, 0x01)\n  dup2\n  sload\n  dup2\n  0xff\n  mul\n  not\n  and\n  swap1\n  dup4\n  iszero\n  iszero\n  mul\n  or\n  swap1\n  sstore\n  pop\n  0x40\n  dup3\n  add\n  mload\n  dup2\n  0x00\n  add\n  exp(0x0100, 0x02)\n  dup2\n  sload\n  dup2\n  0xff\n  mul\n  not\n  and\n  swap1\n  dup4\n  iszero\n  iszero\n  mul\n  or\n  swap1\n  sstore\n  pop\n  0x60\n  dup3\n  add\n  mload\n  dup2\n  0x00\n  add\n  exp(0x0100, 0x03)\n  dup2\n  sload\n  dup2\n  0xff\n  mul\n  not\n  and\n  swap1\n  dup4\n  iszero\n  iszero\n  mul\n  or\n  swap1\n  sstore\n  pop\n  pop\n  pop\n  swap1\n  pop\n  pop\n    /* \"OnDemo/contracts/RoleManagement.sol\":1775:1776  _ */\n  pop\n  pop\n    /* \"OnDemo/contracts/RoleManagement.sol\":1821:2185  function createAccount(address _address, string memory _firstName, string memory _secondName, string memory _mailAdress) public userNotExists(_address){\r... */\n  pop\n  pop\n  pop\n  pop\n  pop\n  jump\t// out\n    /* \"OnDemo/contracts/RoleManagement.sol\":2999:3562  function assignRole(address _address, Role _role) public onlyLeader userExists(_address){\r... */\ntag_9:\n    /* \"OnDemo/contracts/RoleManagement.sol\":1385:1390  owner */\n  0x00\n  dup1\n  sload\n  swap1\n  0x0100\n  exp\n  swap1\n  div\n  0xffffffffffffffffffffffffffffffffffffffff\n  and\n    /* \"OnDemo/contracts/RoleManagement.sol\":1371:1390  msg.sender == owner */\n  0xffffffffffffffffffffffffffffffffffffffff\n  and\n    /* \"OnDemo/contracts/RoleManagement.sol\":1371:1381  msg.sender */\n  caller\n    /* \"OnDemo/contracts/RoleManagement.sol\":1371:1390  msg.sender == owner */\n  0xffffffffffffffffffffffffffffffffffffffff\n  and\n  eq\n    /* \"OnDemo/contracts/RoleManagement.sol\":1371:1419  msg.sender == owner || hasLeaderRole(msg.sender) */\n  dup1\n  tag_23\n  jumpi\n  pop\n    /* \"OnDemo/contracts/RoleManagement.sol\":1394:1419  hasLeaderRole(msg.sender) */\n  tag_24\n    /* \"OnDemo/contracts/RoleManagement.sol\":1408:1418  msg.sender */\n  caller\n    /* \"OnDemo/contracts/RoleManagement.sol\":1394:1407  hasLeaderRole */\n  shl(0x20, tag_25)\n    /* \"OnDemo/contracts/RoleManagement.sol\":1394:1419  hasLeaderRole(msg.sender) */\n  0x20\n  shr\n  jump\t// in\ntag_24:\n    /* \"OnDemo/contracts/RoleManagement.sol\":1371:1419  msg.sender == owner || hasLeaderRole(msg.sender) */\ntag_23:\n    /* \"OnDemo/contracts/RoleManagement.sol\":1363:1458  require(msg.sender == owner || hasLeaderRole(msg.sender), \"Only owner can call this function.\") */\n  tag_26\n  jumpi\n  mload(0x40)\n  0x08c379a000000000000000000000000000000000000000000000000000000000\n  dup2\n  mstore\n  0x04\n  add\n  tag_27\n  swap1\n  tag_28\n  jump\t// in\ntag_27:\n  mload(0x40)\n  dup1\n  swap2\n  sub\n  swap1\n  revert\ntag_26:\n    /* \"OnDemo/contracts/RoleManagement.sol\":3078:3086  _address */\n  dup2\n    /* \"OnDemo/contracts/RoleManagement.sol\":1581:1582  0 */\n  0x00\n    /* \"OnDemo/contracts/RoleManagement.sol\":1542:1583  users[_address].userAddress != address(0) */\n  0xffffffffffffffffffffffffffffffffffffffff\n  and\n    /* \"OnDemo/contracts/RoleManagement.sol\":1542:1547  users */\n  0x01\n    /* \"OnDemo/contracts/RoleManagement.sol\":1542:1557  users[_address] */\n  0x00\n    /* \"OnDemo/contracts/RoleManagement.sol\":1548:1556  _address */\n  dup4\n    /* \"OnDemo/contracts/RoleManagement.sol\":1542:1557  users[_address] */\n  0xffffffffffffffffffffffffffffffffffffffff\n  and\n  0xffffffffffffffffffffffffffffffffffffffff\n  and\n  dup2\n  mstore\n  0x20\n  add\n  swap1\n  dup2\n  mstore\n  0x20\n  add\n  0x00\n  keccak256\n    /* \"OnDemo/contracts/RoleManagement.sol\":1542:1569  users[_address].userAddress */\n  0x00\n  add\n  0x00\n  swap1\n  sload\n  swap1\n  0x0100\n  exp\n  swap1\n  div\n  0xffffffffffffffffffffffffffffffffffffffff\n  and\n    /* \"OnDemo/contracts/RoleManagement.sol\":1542:1583  users[_address].userAddress != address(0) */\n  0xffffffffffffffffffffffffffffffffffffffff\n  and\n  eq\n  iszero\n    /* \"OnDemo/contracts/RoleManagement.sol\":1534:1609  require(users[_address].userAddress != address(0), \"Account doesn't exist\") */\n  tag_30\n  jumpi\n  mload(0x40)\n  0x08c379a000000000000000000000000000000000000000000000000000000000\n  dup2\n  mstore\n  0x04\n  add\n  tag_31\n  swap1\n  tag_32\n  jump\t// in\ntag_31:\n  mload(0x40)\n  dup1\n  swap2\n  sub\n  swap1\n  revert\ntag_30:\n    /* \"OnDemo/contracts/RoleManagement.sol\":3098:3115  User storage user */\n  0x00\n    /* \"OnDemo/contracts/RoleManagement.sol\":3118:3123  users */\n  0x01\n    /* \"OnDemo/contracts/RoleManagement.sol\":3118:3133  users[_address] */\n  0x00\n    /* \"OnDemo/contracts/RoleManagement.sol\":3124:3132  _address */\n  dup6\n    /* \"OnDemo/contracts/RoleManagement.sol\":3118:3133  users[_address] */\n  0xffffffffffffffffffffffffffffffffffffffff\n  and\n  0xffffffffffffffffffffffffffffffffffffffff\n  and\n  dup2\n  mstore\n  0x20\n  add\n  swap1\n  dup2\n  mstore\n  0x20\n  add\n  0x00\n  keccak256\n    /* \"OnDemo/contracts/RoleManagement.sol\":3098:3133  User storage user = users[_address] */\n  swap1\n  pop\n    /* \"OnDemo/contracts/RoleManagement.sol\":3144:3167  RoleMap storage roleMap */\n  0x00\n    /* \"OnDemo/contracts/RoleManagement.sol\":3170:3174  user */\n  dup2\n    /* \"OnDemo/contracts/RoleManagement.sol\":3170:3182  user.roleMap */\n  0x05\n  add\n    /* \"OnDemo/contracts/RoleManagement.sol\":3144:3182  RoleMap storage roleMap = user.roleMap */\n  swap1\n  pop\n    /* \"OnDemo/contracts/RoleManagement.sol\":3207:3218  Role.LEADER */\n  0x00\n    /* \"OnDemo/contracts/RoleManagement.sol\":3198:3218  _role == Role.LEADER */\n  0x03\n  dup2\n  gt\n  iszero\n  tag_34\n  jumpi\n  mstore(0x00, 0x4e487b7100000000000000000000000000000000000000000000000000000000)\n  mstore(0x04, 0x21)\n  revert(0x00, 0x24)\ntag_34:\n    /* \"OnDemo/contracts/RoleManagement.sol\":3198:3203  _role */\n  dup5\n    /* \"OnDemo/contracts/RoleManagement.sol\":3198:3218  _role == Role.LEADER */\n  0x03\n  dup2\n  gt\n  iszero\n  tag_35\n  jumpi\n  mstore(0x00, 0x4e487b7100000000000000000000000000000000000000000000000000000000)\n  mstore(0x04, 0x21)\n  revert(0x00, 0x24)\ntag_35:\n  eq\n    /* \"OnDemo/contracts/RoleManagement.sol\":3195:3555  if(_role == Role.LEADER){\r... */\n  iszero\n  tag_36\n  jumpi\n    /* \"OnDemo/contracts/RoleManagement.sol\":3253:3257  true */\n  0x01\n    /* \"OnDemo/contracts/RoleManagement.sol\":3234:3241  roleMap */\n  dup2\n    /* \"OnDemo/contracts/RoleManagement.sol\":3234:3250  roleMap.isLeader */\n  0x00\n  add\n  0x00\n    /* \"OnDemo/contracts/RoleManagement.sol\":3234:3257  roleMap.isLeader = true */\n  0x0100\n  exp\n  dup2\n  sload\n  dup2\n  0xff\n  mul\n  not\n  and\n  swap1\n  dup4\n  iszero\n  iszero\n  mul\n  or\n  swap1\n  sstore\n  pop\n    /* \"OnDemo/contracts/RoleManagement.sol\":3195:3555  if(_role == Role.LEADER){\r... */\n  jump(tag_37)\ntag_36:\n    /* \"OnDemo/contracts/RoleManagement.sol\":3296:3314  Role.COUNCILMEMBER */\n  0x01\n    /* \"OnDemo/contracts/RoleManagement.sol\":3287:3314  _role == Role.COUNCILMEMBER */\n  0x03\n  dup2\n  gt\n  iszero\n  tag_38\n  jumpi\n  mstore(0x00, 0x4e487b7100000000000000000000000000000000000000000000000000000000)\n  mstore(0x04, 0x21)\n  revert(0x00, 0x24)\ntag_38:\n    /* \"OnDemo/contracts/RoleManagement.sol\":3287:3292  _role */\n  dup5\n    /* \"OnDemo/contracts/RoleManagement.sol\":3287:3314  _role == Role.COUNCILMEMBER */\n  0x03\n  dup2\n  gt\n  iszero\n  tag_39\n  jumpi\n  mstore(0x00, 0x4e487b7100000000000000000000000000000000000000000000000000000000)\n  mstore(0x04, 0x21)\n  revert(0x00, 0x24)\ntag_39:\n  eq\n    /* \"OnDemo/contracts/RoleManagement.sol\":3284:3555  if(_role == Role.COUNCILMEMBER){\r... */\n  iszero\n  tag_40\n  jumpi\n    /* \"OnDemo/contracts/RoleManagement.sol\":3356:3360  true */\n  0x01\n    /* \"OnDemo/contracts/RoleManagement.sol\":3330:3337  roleMap */\n  dup2\n    /* \"OnDemo/contracts/RoleManagement.sol\":3330:3353  roleMap.isCouncilMember */\n  0x00\n  add\n  0x01\n    /* \"OnDemo/contracts/RoleManagement.sol\":3330:3360  roleMap.isCouncilMember = true */\n  0x0100\n  exp\n  dup2\n  sload\n  dup2\n  0xff\n  mul\n  not\n  and\n  swap1\n  dup4\n  iszero\n  iszero\n  mul\n  or\n  swap1\n  sstore\n  pop\n    /* \"OnDemo/contracts/RoleManagement.sol\":3284:3555  if(_role == Role.COUNCILMEMBER){\r... */\n  jump(tag_41)\ntag_40:\n    /* \"OnDemo/contracts/RoleManagement.sol\":3406:3417  Role.MEMBER */\n  0x02\n    /* \"OnDemo/contracts/RoleManagement.sol\":3397:3417  _role == Role.MEMBER */\n  0x03\n  dup2\n  gt\n  iszero\n  tag_42\n  jumpi\n  mstore(0x00, 0x4e487b7100000000000000000000000000000000000000000000000000000000)\n  mstore(0x04, 0x21)\n  revert(0x00, 0x24)\ntag_42:\n    /* \"OnDemo/contracts/RoleManagement.sol\":3397:3402  _role */\n  dup5\n    /* \"OnDemo/contracts/RoleManagement.sol\":3397:3417  _role == Role.MEMBER */\n  0x03\n  dup2\n  gt\n  iszero\n  tag_43\n  jumpi\n  mstore(0x00, 0x4e487b7100000000000000000000000000000000000000000000000000000000)\n  mstore(0x04, 0x21)\n  revert(0x00, 0x24)\ntag_43:\n  eq\n    /* \"OnDemo/contracts/RoleManagement.sol\":3394:3555  if(_role == Role.MEMBER){\r... */\n  iszero\n  tag_44\n  jumpi\n    /* \"OnDemo/contracts/RoleManagement.sol\":3452:3456  true */\n  0x01\n    /* \"OnDemo/contracts/RoleManagement.sol\":3433:3440  roleMap */\n  dup2\n    /* \"OnDemo/contracts/RoleManagement.sol\":3433:3449  roleMap.isMember */\n  0x00\n  add\n  0x02\n    /* \"OnDemo/contracts/RoleManagement.sol\":3433:3456  roleMap.isMember = true */\n  0x0100\n  exp\n  dup2\n  sload\n  dup2\n  0xff\n  mul\n  not\n  and\n  swap1\n  dup4\n  iszero\n  iszero\n  mul\n  or\n  swap1\n  sstore\n  pop\n    /* \"OnDemo/contracts/RoleManagement.sol\":3394:3555  if(_role == Role.MEMBER){\r... */\n  jump(tag_45)\ntag_44:\n    /* \"OnDemo/contracts/RoleManagement.sol\":3495:3505  Role.GUEST */\n  0x03\n    /* \"OnDemo/contracts/RoleManagement.sol\":3486:3505  _role == Role.GUEST */\n  dup1\n  dup2\n  gt\n  iszero\n  tag_46\n  jumpi\n  mstore(0x00, 0x4e487b7100000000000000000000000000000000000000000000000000000000)\n  mstore(0x04, 0x21)\n  revert(0x00, 0x24)\ntag_46:\n    /* \"OnDemo/contracts/RoleManagement.sol\":3486:3491  _role */\n  dup5\n    /* \"OnDemo/contracts/RoleManagement.sol\":3486:3505  _role == Role.GUEST */\n  0x03\n  dup2\n  gt\n  iszero\n  tag_47\n  jumpi\n  mstore(0x00, 0x4e487b7100000000000000000000000000000000000000000000000000000000)\n  mstore(0x04, 0x21)\n  revert(0x00, 0x24)\ntag_47:\n  eq\n    /* \"OnDemo/contracts/RoleManagement.sol\":3483:3555  if(_role == Role.GUEST){\r... */\n  iszero\n  tag_48\n  jumpi\n    /* \"OnDemo/contracts/RoleManagement.sol\":3539:3543  true */\n  0x01\n    /* \"OnDemo/contracts/RoleManagement.sol\":3521:3528  roleMap */\n  dup2\n    /* \"OnDemo/contracts/RoleManagement.sol\":3521:3536  roleMap.isGuest */\n  0x00\n  add\n  0x03\n    /* \"OnDemo/contracts/RoleManagement.sol\":3521:3543  roleMap.isGuest = true */\n  0x0100\n  exp\n  dup2\n  sload\n  dup2\n  0xff\n  mul\n  not\n  and\n  swap1\n  dup4\n  iszero\n  iszero\n  mul\n  or\n  swap1\n  sstore\n  pop\n    /* \"OnDemo/contracts/RoleManagement.sol\":3483:3555  if(_role == Role.GUEST){\r... */\ntag_48:\n    /* \"OnDemo/contracts/RoleManagement.sol\":3394:3555  if(_role == Role.MEMBER){\r... */\ntag_45:\n    /* \"OnDemo/contracts/RoleManagement.sol\":3284:3555  if(_role == Role.COUNCILMEMBER){\r... */\ntag_41:\n    /* \"OnDemo/contracts/RoleManagement.sol\":3195:3555  if(_role == Role.LEADER){\r... */\ntag_37:\n    /* \"OnDemo/contracts/RoleManagement.sol\":1620:1621  _ */\n  pop\n  pop\n    /* \"OnDemo/contracts/RoleManagement.sol\":1469:1470  _ */\n  pop\n    /* \"OnDemo/contracts/RoleManagement.sol\":2999:3562  function assignRole(address _address, Role _role) public onlyLeader userExists(_address){\r... */\n  pop\n  pop\n  jump\t// out\n    /* \"OnDemo/contracts/RoleManagement.sol\":3570:4349  function removeRole(address _address, Role _role) public onlyLeader userExists(_address){\r... */\ntag_11:\n    /* \"OnDemo/contracts/RoleManagement.sol\":1385:1390  owner */\n  0x00\n  dup1\n  sload\n  swap1\n  0x0100\n  exp\n  swap1\n  div\n  0xffffffffffffffffffffffffffffffffffffffff\n  and\n    /* \"OnDemo/contracts/RoleManagement.sol\":1371:1390  msg.sender == owner */\n  0xffffffffffffffffffffffffffffffffffffffff\n  and\n    /* \"OnDemo/contracts/RoleManagement.sol\":1371:1381  msg.sender */\n  caller\n    /* \"OnDemo/contracts/RoleManagement.sol\":1371:1390  msg.sender == owner */\n  0xffffffffffffffffffffffffffffffffffffffff\n  and\n  eq\n    /* \"OnDemo/contracts/RoleManagement.sol\":1371:1419  msg.sender == owner || hasLeaderRole(msg.sender) */\n  dup1\n  tag_50\n  jumpi\n  pop\n    /* \"OnDemo/contracts/RoleManagement.sol\":1394:1419  hasLeaderRole(msg.sender) */\n  tag_51\n    /* \"OnDemo/contracts/RoleManagement.sol\":1408:1418  msg.sender */\n  caller\n    /* \"OnDemo/contracts/RoleManagement.sol\":1394:1407  hasLeaderRole */\n  shl(0x20, tag_25)\n    /* \"OnDemo/contracts/RoleManagement.sol\":1394:1419  hasLeaderRole(msg.sender) */\n  0x20\n  shr\n  jump\t// in\ntag_51:\n    /* \"OnDemo/contracts/RoleManagement.sol\":1371:1419  msg.sender == owner || hasLeaderRole(msg.sender) */\ntag_50:\n    /* \"OnDemo/contracts/RoleManagement.sol\":1363:1458  require(msg.sender == owner || hasLeaderRole(msg.sender), \"Only owner can call this function.\") */\n  tag_52\n  jumpi\n  mload(0x40)\n  0x08c379a000000000000000000000000000000000000000000000000000000000\n  dup2\n  mstore\n  0x04\n  add\n  tag_53\n  swap1\n  tag_28\n  jump\t// in\ntag_53:\n  mload(0x40)\n  dup1\n  swap2\n  sub\n  swap1\n  revert\ntag_52:\n    /* \"OnDemo/contracts/RoleManagement.sol\":3649:3657  _address */\n  dup2\n    /* \"OnDemo/contracts/RoleManagement.sol\":1581:1582  0 */\n  0x00\n    /* \"OnDemo/contracts/RoleManagement.sol\":1542:1583  users[_address].userAddress != address(0) */\n  0xffffffffffffffffffffffffffffffffffffffff\n  and\n    /* \"OnDemo/contracts/RoleManagement.sol\":1542:1547  users */\n  0x01\n    /* \"OnDemo/contracts/RoleManagement.sol\":1542:1557  users[_address] */\n  0x00\n    /* \"OnDemo/contracts/RoleManagement.sol\":1548:1556  _address */\n  dup4\n    /* \"OnDemo/contracts/RoleManagement.sol\":1542:1557  users[_address] */\n  0xffffffffffffffffffffffffffffffffffffffff\n  and\n  0xffffffffffffffffffffffffffffffffffffffff\n  and\n  dup2\n  mstore\n  0x20\n  add\n  swap1\n  dup2\n  mstore\n  0x20\n  add\n  0x00\n  keccak256\n    /* \"OnDemo/contracts/RoleManagement.sol\":1542:1569  users[_address].userAddress */\n  0x00\n  add\n  0x00\n  swap1\n  sload\n  swap1\n  0x0100\n  exp\n  swap1\n  div\n  0xffffffffffffffffffffffffffffffffffffffff\n  and\n    /* \"OnDemo/contracts/RoleManagement.sol\":1542:1583  users[_address].userAddress != address(0) */\n  0xffffffffffffffffffffffffffffffffffffffff\n  and\n  eq\n  iszero\n    /* \"OnDemo/contracts/RoleManagement.sol\":1534:1609  require(users[_address].userAddress != address(0), \"Account doesn't exist\") */\n  tag_55\n  jumpi\n  mload(0x40)\n  0x08c379a000000000000000000000000000000000000000000000000000000000\n  dup2\n  mstore\n  0x04\n  add\n  tag_56\n  swap1\n  tag_32\n  jump\t// in\ntag_56:\n  mload(0x40)\n  dup1\n  swap2\n  sub\n  swap1\n  revert\ntag_55:\n    /* \"OnDemo/contracts/RoleManagement.sol\":3669:3686  User storage user */\n  0x00\n    /* \"OnDemo/contracts/RoleManagement.sol\":3689:3694  users */\n  0x01\n    /* \"OnDemo/contracts/RoleManagement.sol\":3689:3704  users[_address] */\n  0x00\n    /* \"OnDemo/contracts/RoleManagement.sol\":3695:3703  _address */\n  dup6\n    /* \"OnDemo/contracts/RoleManagement.sol\":3689:3704  users[_address] */\n  0xffffffffffffffffffffffffffffffffffffffff\n  and\n  0xffffffffffffffffffffffffffffffffffffffff\n  and\n  dup2\n  mstore\n  0x20\n  add\n  swap1\n  dup2\n  mstore\n  0x20\n  add\n  0x00\n  keccak256\n    /* \"OnDemo/contracts/RoleManagement.sol\":3669:3704  User storage user = users[_address] */\n  swap1\n  pop\n    /* \"OnDemo/contracts/RoleManagement.sol\":3715:3738  RoleMap storage roleMap */\n  0x00\n    /* \"OnDemo/contracts/RoleManagement.sol\":3741:3745  user */\n  dup2\n    /* \"OnDemo/contracts/RoleManagement.sol\":3741:3753  user.roleMap */\n  0x05\n  add\n    /* \"OnDemo/contracts/RoleManagement.sol\":3715:3753  RoleMap storage roleMap = user.roleMap */\n  swap1\n  pop\n    /* \"OnDemo/contracts/RoleManagement.sol\":3778:3789  Role.LEADER */\n  0x00\n    /* \"OnDemo/contracts/RoleManagement.sol\":3769:3789  _role == Role.LEADER */\n  0x03\n  dup2\n  gt\n  iszero\n  tag_58\n  jumpi\n  mstore(0x00, 0x4e487b7100000000000000000000000000000000000000000000000000000000)\n  mstore(0x04, 0x21)\n  revert(0x00, 0x24)\ntag_58:\n    /* \"OnDemo/contracts/RoleManagement.sol\":3769:3774  _role */\n  dup5\n    /* \"OnDemo/contracts/RoleManagement.sol\":3769:3789  _role == Role.LEADER */\n  0x03\n  dup2\n  gt\n  iszero\n  tag_59\n  jumpi\n  mstore(0x00, 0x4e487b7100000000000000000000000000000000000000000000000000000000)\n  mstore(0x04, 0x21)\n  revert(0x00, 0x24)\ntag_59:\n  eq\n    /* \"OnDemo/contracts/RoleManagement.sol\":3766:4142  if(_role == Role.LEADER){\r... */\n  iszero\n  tag_60\n  jumpi\n    /* \"OnDemo/contracts/RoleManagement.sol\":3824:3829  false */\n  0x00\n    /* \"OnDemo/contracts/RoleManagement.sol\":3805:3812  roleMap */\n  dup2\n    /* \"OnDemo/contracts/RoleManagement.sol\":3805:3821  roleMap.isLeader */\n  0x00\n  add\n  0x00\n    /* \"OnDemo/contracts/RoleManagement.sol\":3805:3829  roleMap.isLeader = false */\n  0x0100\n  exp\n  dup2\n  sload\n  dup2\n  0xff\n  mul\n  not\n  and\n  swap1\n  dup4\n  iszero\n  iszero\n  mul\n  or\n  swap1\n  sstore\n  pop\n    /* \"OnDemo/contracts/RoleManagement.sol\":3766:4142  if(_role == Role.LEADER){\r... */\n  jump(tag_61)\ntag_60:\n    /* \"OnDemo/contracts/RoleManagement.sol\":3868:3886  Role.COUNCILMEMBER */\n  0x01\n    /* \"OnDemo/contracts/RoleManagement.sol\":3859:3886  _role == Role.COUNCILMEMBER */\n  0x03\n  dup2\n  gt\n  iszero\n  tag_62\n  jumpi\n  mstore(0x00, 0x4e487b7100000000000000000000000000000000000000000000000000000000)\n  mstore(0x04, 0x21)\n  revert(0x00, 0x24)\ntag_62:\n    /* \"OnDemo/contracts/RoleManagement.sol\":3859:3864  _role */\n  dup5\n    /* \"OnDemo/contracts/RoleManagement.sol\":3859:3886  _role == Role.COUNCILMEMBER */\n  0x03\n  dup2\n  gt\n  iszero\n  tag_63\n  jumpi\n  mstore(0x00, 0x4e487b7100000000000000000000000000000000000000000000000000000000)\n  mstore(0x04, 0x21)\n  revert(0x00, 0x24)\ntag_63:\n  eq\n    /* \"OnDemo/contracts/RoleManagement.sol\":3856:4142  if(_role == Role.COUNCILMEMBER){\r... */\n  iszero\n  tag_64\n  jumpi\n    /* \"OnDemo/contracts/RoleManagement.sol\":3928:3933  false */\n  0x00\n    /* \"OnDemo/contracts/RoleManagement.sol\":3902:3909  roleMap */\n  dup2\n    /* \"OnDemo/contracts/RoleManagement.sol\":3902:3925  roleMap.isCouncilMember */\n  0x00\n  add\n  0x01\n    /* \"OnDemo/contracts/RoleManagement.sol\":3902:3933  roleMap.isCouncilMember = false */\n  0x0100\n  exp\n  dup2\n  sload\n  dup2\n  0xff\n  mul\n  not\n  and\n  swap1\n  dup4\n  iszero\n  iszero\n  mul\n  or\n  swap1\n  sstore\n  pop\n    /* \"OnDemo/contracts/RoleManagement.sol\":3856:4142  if(_role == Role.COUNCILMEMBER){\r... */\n  jump(tag_65)\ntag_64:\n    /* \"OnDemo/contracts/RoleManagement.sol\":3979:3990  Role.MEMBER */\n  0x02\n    /* \"OnDemo/contracts/RoleManagement.sol\":3970:3990  _role == Role.MEMBER */\n  0x03\n  dup2\n  gt\n  iszero\n  tag_66\n  jumpi\n  mstore(0x00, 0x4e487b7100000000000000000000000000000000000000000000000000000000)\n  mstore(0x04, 0x21)\n  revert(0x00, 0x24)\ntag_66:\n    /* \"OnDemo/contracts/RoleManagement.sol\":3970:3975  _role */\n  dup5\n    /* \"OnDemo/contracts/RoleManagement.sol\":3970:3990  _role == Role.MEMBER */\n  0x03\n  dup2\n  gt\n  iszero\n  tag_67\n  jumpi\n  mstore(0x00, 0x4e487b7100000000000000000000000000000000000000000000000000000000)\n  mstore(0x04, 0x21)\n  revert(0x00, 0x24)\ntag_67:\n  eq\n    /* \"OnDemo/contracts/RoleManagement.sol\":3967:4142  if(_role == Role.MEMBER){\r... */\n  iszero\n  tag_68\n  jumpi\n    /* \"OnDemo/contracts/RoleManagement.sol\":4025:4030  false */\n  0x00\n    /* \"OnDemo/contracts/RoleManagement.sol\":4006:4013  roleMap */\n  dup2\n    /* \"OnDemo/contracts/RoleManagement.sol\":4006:4022  roleMap.isMember */\n  0x00\n  add\n  0x02\n    /* \"OnDemo/contracts/RoleManagement.sol\":4006:4030  roleMap.isMember = false */\n  0x0100\n  exp\n  dup2\n  sload\n  dup2\n  0xff\n  mul\n  not\n  and\n  swap1\n  dup4\n  iszero\n  iszero\n  mul\n  or\n  swap1\n  sstore\n  pop\n    /* \"OnDemo/contracts/RoleManagement.sol\":3967:4142  if(_role == Role.MEMBER){\r... */\n  jump(tag_69)\ntag_68:\n    /* \"OnDemo/contracts/RoleManagement.sol\":4069:4079  Role.GUEST */\n  0x03\n    /* \"OnDemo/contracts/RoleManagement.sol\":4060:4079  _role == Role.GUEST */\n  dup1\n  dup2\n  gt\n  iszero\n  tag_70\n  jumpi\n  mstore(0x00, 0x4e487b7100000000000000000000000000000000000000000000000000000000)\n  mstore(0x04, 0x21)\n  revert(0x00, 0x24)\ntag_70:\n    /* \"OnDemo/contracts/RoleManagement.sol\":4060:4065  _role */\n  dup5\n    /* \"OnDemo/contracts/RoleManagement.sol\":4060:4079  _role == Role.GUEST */\n  0x03\n  dup2\n  gt\n  iszero\n  tag_71\n  jumpi\n  mstore(0x00, 0x4e487b7100000000000000000000000000000000000000000000000000000000)\n  mstore(0x04, 0x21)\n  revert(0x00, 0x24)\ntag_71:\n  eq\n    /* \"OnDemo/contracts/RoleManagement.sol\":4057:4142  if(_role == Role.GUEST){\r... */\n  iszero\n  tag_72\n  jumpi\n    /* \"OnDemo/contracts/RoleManagement.sol\":4113:4118  false */\n  0x00\n    /* \"OnDemo/contracts/RoleManagement.sol\":4095:4102  roleMap */\n  dup2\n    /* \"OnDemo/contracts/RoleManagement.sol\":4095:4110  roleMap.isGuest */\n  0x00\n  add\n  0x03\n    /* \"OnDemo/contracts/RoleManagement.sol\":4095:4118  roleMap.isGuest = false */\n  0x0100\n  exp\n  dup2\n  sload\n  dup2\n  0xff\n  mul\n  not\n  and\n  swap1\n  dup4\n  iszero\n  iszero\n  mul\n  or\n  swap1\n  sstore\n  pop\n    /* \"OnDemo/contracts/RoleManagement.sol\":4057:4142  if(_role == Role.GUEST){\r... */\ntag_72:\n    /* \"OnDemo/contracts/RoleManagement.sol\":3967:4142  if(_role == Role.MEMBER){\r... */\ntag_69:\n    /* \"OnDemo/contracts/RoleManagement.sol\":3856:4142  if(_role == Role.COUNCILMEMBER){\r... */\ntag_65:\n    /* \"OnDemo/contracts/RoleManagement.sol\":3766:4142  if(_role == Role.LEADER){\r... */\ntag_61:\n    /* \"OnDemo/contracts/RoleManagement.sol\":4158:4165  roleMap */\n  dup1\n    /* \"OnDemo/contracts/RoleManagement.sol\":4158:4174  roleMap.isLeader */\n  0x00\n  add\n  0x00\n  swap1\n  sload\n  swap1\n  0x0100\n  exp\n  swap1\n  div\n  0xff\n  and\n    /* \"OnDemo/contracts/RoleManagement.sol\":4157:4174  !roleMap.isLeader */\n  iszero\n    /* \"OnDemo/contracts/RoleManagement.sol\":4157:4202  !roleMap.isLeader && !roleMap.isCouncilMember */\n  dup1\n  iszero\n  tag_73\n  jumpi\n  pop\n    /* \"OnDemo/contracts/RoleManagement.sol\":4179:4186  roleMap */\n  dup1\n    /* \"OnDemo/contracts/RoleManagement.sol\":4179:4202  roleMap.isCouncilMember */\n  0x00\n  add\n  0x01\n  swap1\n  sload\n  swap1\n  0x0100\n  exp\n  swap1\n  div\n  0xff\n  and\n    /* \"OnDemo/contracts/RoleManagement.sol\":4178:4202  !roleMap.isCouncilMember */\n  iszero\n    /* \"OnDemo/contracts/RoleManagement.sol\":4157:4202  !roleMap.isLeader && !roleMap.isCouncilMember */\ntag_73:\n    /* \"OnDemo/contracts/RoleManagement.sol\":4157:4223  !roleMap.isLeader && !roleMap.isCouncilMember && !roleMap.isMember */\n  dup1\n  iszero\n  tag_74\n  jumpi\n  pop\n    /* \"OnDemo/contracts/RoleManagement.sol\":4207:4214  roleMap */\n  dup1\n    /* \"OnDemo/contracts/RoleManagement.sol\":4207:4223  roleMap.isMember */\n  0x00\n  add\n  0x02\n  swap1\n  sload\n  swap1\n  0x0100\n  exp\n  swap1\n  div\n  0xff\n  and\n    /* \"OnDemo/contracts/RoleManagement.sol\":4206:4223  !roleMap.isMember */\n  iszero\n    /* \"OnDemo/contracts/RoleManagement.sol\":4157:4223  !roleMap.isLeader && !roleMap.isCouncilMember && !roleMap.isMember */\ntag_74:\n    /* \"OnDemo/contracts/RoleManagement.sol\":4154:4342  if(!roleMap.isLeader && !roleMap.isCouncilMember && !roleMap.isMember)\r... */\n  iszero\n  tag_75\n  jumpi\n    /* \"OnDemo/contracts/RoleManagement.sol\":4325:4330  false */\n  0x00\n    /* \"OnDemo/contracts/RoleManagement.sol\":4299:4312  activeMembers */\n  0x02\n    /* \"OnDemo/contracts/RoleManagement.sol\":4299:4322  activeMembers[_address] */\n  0x00\n    /* \"OnDemo/contracts/RoleManagement.sol\":4313:4321  _address */\n  dup8\n    /* \"OnDemo/contracts/RoleManagement.sol\":4299:4322  activeMembers[_address] */\n  0xffffffffffffffffffffffffffffffffffffffff\n  and\n  0xffffffffffffffffffffffffffffffffffffffff\n  and\n  dup2\n  mstore\n  0x20\n  add\n  swap1\n  dup2\n  mstore\n  0x20\n  add\n  0x00\n  keccak256\n  0x00\n    /* \"OnDemo/contracts/RoleManagement.sol\":4299:4330  activeMembers[_address] = false */\n  0x0100\n  exp\n  dup2\n  sload\n  dup2\n  0xff\n  mul\n  not\n  and\n  swap1\n  dup4\n  iszero\n  iszero\n  mul\n  or\n  swap1\n  sstore\n  pop\n    /* \"OnDemo/contracts/RoleManagement.sol\":4154:4342  if(!roleMap.isLeader && !roleMap.isCouncilMember && !roleMap.isMember)\r... */\ntag_75:\n    /* \"OnDemo/contracts/RoleManagement.sol\":1620:1621  _ */\n  pop\n  pop\n    /* \"OnDemo/contracts/RoleManagement.sol\":1469:1470  _ */\n  pop\n    /* \"OnDemo/contracts/RoleManagement.sol\":3570:4349  function removeRole(address _address, Role _role) public onlyLeader userExists(_address){\r... */\n  pop\n  pop\n  jump\t// out\n    /* \"OnDemo/contracts/RoleManagement.sol\":6179:6303  function hasLeaderRole(address _address) public view returns (bool) {\r... */\ntag_25:\n    /* \"OnDemo/contracts/RoleManagement.sol\":6241:6245  bool */\n  0x00\n    /* \"OnDemo/contracts/RoleManagement.sol\":6265:6295  hasRole(_address, Role.LEADER) */\n  tag_77\n    /* \"OnDemo/contracts/RoleManagement.sol\":6273:6281  _address */\n  dup3\n    /* \"OnDemo/contracts/RoleManagement.sol\":6283:6294  Role.LEADER */\n  0x00\n    /* \"OnDemo/contracts/RoleManagement.sol\":6265:6272  hasRole */\n  shl(0x20, tag_78)\n    /* \"OnDemo/contracts/RoleManagement.sol\":6265:6295  hasRole(_address, Role.LEADER) */\n  0x20\n  shr\n  jump\t// in\ntag_77:\n    /* \"OnDemo/contracts/RoleManagement.sol\":6258:6295  return hasRole(_address, Role.LEADER) */\n  swap1\n  pop\n    /* \"OnDemo/contracts/RoleManagement.sol\":6179:6303  function hasLeaderRole(address _address) public view returns (bool) {\r... */\n  swap2\n  swap1\n  pop\n  jump\t// out\n    /* \"OnDemo/contracts/RoleManagement.sol\":5597:6167  function hasRole(address _address, Role _role) private view returns (bool){\r... */\ntag_78:\n    /* \"OnDemo/contracts/RoleManagement.sol\":5666:5670  bool */\n  0x00\n    /* \"OnDemo/contracts/RoleManagement.sol\":5682:5698  User memory user */\n  dup1\n    /* \"OnDemo/contracts/RoleManagement.sol\":5701:5706  users */\n  0x01\n    /* \"OnDemo/contracts/RoleManagement.sol\":5701:5716  users[_address] */\n  0x00\n    /* \"OnDemo/contracts/RoleManagement.sol\":5707:5715  _address */\n  dup6\n    /* \"OnDemo/contracts/RoleManagement.sol\":5701:5716  users[_address] */\n  0xffffffffffffffffffffffffffffffffffffffff\n  and\n  0xffffffffffffffffffffffffffffffffffffffff\n  and\n  dup2\n  mstore\n  0x20\n  add\n  swap1\n  dup2\n  mstore\n  0x20\n  add\n  0x00\n  keccak256\n    /* \"OnDemo/contracts/RoleManagement.sol\":5682:5716  User memory user = users[_address] */\n  mload(0x40)\n  dup1\n  0xc0\n  add\n  0x40\n  mstore\n  swap1\n  dup2\n  0x00\n  dup3\n  add\n  0x00\n  swap1\n  sload\n  swap1\n  0x0100\n  exp\n  swap1\n  div\n  0xffffffffffffffffffffffffffffffffffffffff\n  and\n  0xffffffffffffffffffffffffffffffffffffffff\n  and\n  0xffffffffffffffffffffffffffffffffffffffff\n  and\n  dup2\n  mstore\n  0x20\n  add\n  0x01\n  dup3\n  add\n  dup1\n  sload\n  tag_80\n  swap1\n  tag_81\n  jump\t// in\ntag_80:\n  dup1\n  0x1f\n  add\n  0x20\n  dup1\n  swap2\n  div\n  mul\n  0x20\n  add\n  mload(0x40)\n  swap1\n  dup2\n  add\n  0x40\n  mstore\n  dup1\n  swap3\n  swap2\n  swap1\n  dup2\n  dup2\n  mstore\n  0x20\n  add\n  dup3\n  dup1\n  sload\n  tag_82\n  swap1\n  tag_81\n  jump\t// in\ntag_82:\n  dup1\n  iszero\n  tag_83\n  jumpi\n  dup1\n  0x1f\n  lt\n  tag_84\n  jumpi\n  0x0100\n  dup1\n  dup4\n  sload\n  div\n  mul\n  dup4\n  mstore\n  swap2\n  0x20\n  add\n  swap2\n  jump(tag_83)\ntag_84:\n  dup3\n  add\n  swap2\n  swap1\n  0x00\n  mstore\n  keccak256(0x00, 0x20)\n  swap1\ntag_85:\n  dup2\n  sload\n  dup2\n  mstore\n  swap1\n  0x01\n  add\n  swap1\n  0x20\n  add\n  dup1\n  dup4\n  gt\n  tag_85\n  jumpi\n  dup3\n  swap1\n  sub\n  0x1f\n  and\n  dup3\n  add\n  swap2\ntag_83:\n  pop\n  pop\n  pop\n  pop\n  pop\n  dup2\n  mstore\n  0x20\n  add\n  0x02\n  dup3\n  add\n  dup1\n  sload\n  tag_86\n  swap1\n  tag_81\n  jump\t// in\ntag_86:\n  dup1\n  0x1f\n  add\n  0x20\n  dup1\n  swap2\n  div\n  mul\n  0x20\n  add\n  mload(0x40)\n  swap1\n  dup2\n  add\n  0x40\n  mstore\n  dup1\n  swap3\n  swap2\n  swap1\n  dup2\n  dup2\n  mstore\n  0x20\n  add\n  dup3\n  dup1\n  sload\n  tag_87\n  swap1\n  tag_81\n  jump\t// in\ntag_87:\n  dup1\n  iszero\n  tag_88\n  jumpi\n  dup1\n  0x1f\n  lt\n  tag_89\n  jumpi\n  0x0100\n  dup1\n  dup4\n  sload\n  div\n  mul\n  dup4\n  mstore\n  swap2\n  0x20\n  add\n  swap2\n  jump(tag_88)\ntag_89:\n  dup3\n  add\n  swap2\n  swap1\n  0x00\n  mstore\n  keccak256(0x00, 0x20)\n  swap1\ntag_90:\n  dup2\n  sload\n  dup2\n  mstore\n  swap1\n  0x01\n  add\n  swap1\n  0x20\n  add\n  dup1\n  dup4\n  gt\n  tag_90\n  jumpi\n  dup3\n  swap1\n  sub\n  0x1f\n  and\n  dup3\n  add\n  swap2\ntag_88:\n  pop\n  pop\n  pop\n  pop\n  pop\n  dup2\n  mstore\n  0x20\n  add\n  0x03\n  dup3\n  add\n  dup1\n  sload\n  tag_91\n  swap1\n  tag_81\n  jump\t// in\ntag_91:\n  dup1\n  0x1f\n  add\n  0x20\n  dup1\n  swap2\n  div\n  mul\n  0x20\n  add\n  mload(0x40)\n  swap1\n  dup2\n  add\n  0x40\n  mstore\n  dup1\n  swap3\n  swap2\n  swap1\n  dup2\n  dup2\n  mstore\n  0x20\n  add\n  dup3\n  dup1\n  sload\n  tag_92\n  swap1\n  tag_81\n  jump\t// in\ntag_92:\n  dup1\n  iszero\n  tag_93\n  jumpi\n  dup1\n  0x1f\n  lt\n  tag_94\n  jumpi\n  0x0100\n  dup1\n  dup4\n  sload\n  div\n  mul\n  dup4\n  mstore\n  swap2\n  0x20\n  add\n  swap2\n  jump(tag_93)\ntag_94:\n  dup3\n  add\n  swap2\n  swap1\n  0x00\n  mstore\n  keccak256(0x00, 0x20)\n  swap1\ntag_95:\n  dup2\n  sload\n  dup2\n  mstore\n  swap1\n  0x01\n  add\n  swap1\n  0x20\n  add\n  dup1\n  dup4\n  gt\n  tag_95\n  jumpi\n  dup3\n  swap1\n  sub\n  0x1f\n  and\n  dup3\n  add\n  swap2\ntag_93:\n  pop\n  pop\n  pop\n  pop\n  pop\n  dup2\n  mstore\n  0x20\n  add\n  0x04\n  dup3\n  add\n  0x00\n  swap1\n  sload\n  swap1\n  0x0100\n  exp\n  swap1\n  div\n  0xff\n  and\n  iszero\n  iszero\n  iszero\n  iszero\n  dup2\n  mstore\n  0x20\n  add\n  0x05\n  dup3\n  add\n  mload(0x40)\n  dup1\n  0x80\n  add\n  0x40\n  mstore\n  swap1\n  dup2\n  0x00\n  dup3\n  add\n  0x00\n  swap1\n  sload\n  swap1\n  0x0100\n  exp\n  swap1\n  div\n  0xff\n  and\n  iszero\n  iszero\n  iszero\n  iszero\n  dup2\n  mstore\n  0x20\n  add\n  0x00\n  dup3\n  add\n  0x01\n  swap1\n  sload\n  swap1\n  0x0100\n  exp\n  swap1\n  div\n  0xff\n  and\n  iszero\n  iszero\n  iszero\n  iszero\n  dup2\n  mstore\n  0x20\n  add\n  0x00\n  dup3\n  add\n  0x02\n  swap1\n  sload\n  swap1\n  0x0100\n  exp\n  swap1\n  div\n  0xff\n  and\n  iszero\n  iszero\n  iszero\n  iszero\n  dup2\n  mstore\n  0x20\n  add\n  0x00\n  dup3\n  add\n  0x03\n  swap1\n  sload\n  swap1\n  0x0100\n  exp\n  swap1\n  div\n  0xff\n  and\n  iszero\n  iszero\n  iszero\n  iszero\n  dup2\n  mstore\n  pop\n  pop\n  dup2\n  mstore\n  pop\n  pop\n  swap1\n  pop\n    /* \"OnDemo/contracts/RoleManagement.sol\":5727:5749  RoleMap memory roleMap */\n  0x00\n    /* \"OnDemo/contracts/RoleManagement.sol\":5752:5756  user */\n  dup2\n    /* \"OnDemo/contracts/RoleManagement.sol\":5752:5764  user.roleMap */\n  0xa0\n  add\n  mload\n    /* \"OnDemo/contracts/RoleManagement.sol\":5727:5764  RoleMap memory roleMap = user.roleMap */\n  swap1\n  pop\n    /* \"OnDemo/contracts/RoleManagement.sol\":5789:5800  Role.LEADER */\n  0x00\n    /* \"OnDemo/contracts/RoleManagement.sol\":5780:5800  _role == Role.LEADER */\n  0x03\n  dup2\n  gt\n  iszero\n  tag_96\n  jumpi\n  mstore(0x00, 0x4e487b7100000000000000000000000000000000000000000000000000000000)\n  mstore(0x04, 0x21)\n  revert(0x00, 0x24)\ntag_96:\n    /* \"OnDemo/contracts/RoleManagement.sol\":5780:5785  _role */\n  dup5\n    /* \"OnDemo/contracts/RoleManagement.sol\":5780:5800  _role == Role.LEADER */\n  0x03\n  dup2\n  gt\n  iszero\n  tag_97\n  jumpi\n  mstore(0x00, 0x4e487b7100000000000000000000000000000000000000000000000000000000)\n  mstore(0x04, 0x21)\n  revert(0x00, 0x24)\ntag_97:\n  eq\n    /* \"OnDemo/contracts/RoleManagement.sol\":5777:6137  if(_role == Role.LEADER){\r... */\n  iszero\n  tag_98\n  jumpi\n    /* \"OnDemo/contracts/RoleManagement.sol\":5823:5830  roleMap */\n  dup1\n    /* \"OnDemo/contracts/RoleManagement.sol\":5823:5839  roleMap.isLeader */\n  0x00\n  add\n  mload\n    /* \"OnDemo/contracts/RoleManagement.sol\":5816:5839  return roleMap.isLeader */\n  swap3\n  pop\n  pop\n  pop\n  jump(tag_79)\n    /* \"OnDemo/contracts/RoleManagement.sol\":5777:6137  if(_role == Role.LEADER){\r... */\ntag_98:\n    /* \"OnDemo/contracts/RoleManagement.sol\":5878:5896  Role.COUNCILMEMBER */\n  0x01\n    /* \"OnDemo/contracts/RoleManagement.sol\":5869:5896  _role == Role.COUNCILMEMBER */\n  0x03\n  dup2\n  gt\n  iszero\n  tag_100\n  jumpi\n  mstore(0x00, 0x4e487b7100000000000000000000000000000000000000000000000000000000)\n  mstore(0x04, 0x21)\n  revert(0x00, 0x24)\ntag_100:\n    /* \"OnDemo/contracts/RoleManagement.sol\":5869:5874  _role */\n  dup5\n    /* \"OnDemo/contracts/RoleManagement.sol\":5869:5896  _role == Role.COUNCILMEMBER */\n  0x03\n  dup2\n  gt\n  iszero\n  tag_101\n  jumpi\n  mstore(0x00, 0x4e487b7100000000000000000000000000000000000000000000000000000000)\n  mstore(0x04, 0x21)\n  revert(0x00, 0x24)\ntag_101:\n  eq\n    /* \"OnDemo/contracts/RoleManagement.sol\":5866:6137  if(_role == Role.COUNCILMEMBER){\r... */\n  iszero\n  tag_102\n  jumpi\n    /* \"OnDemo/contracts/RoleManagement.sol\":5919:5926  roleMap */\n  dup1\n    /* \"OnDemo/contracts/RoleManagement.sol\":5919:5942  roleMap.isCouncilMember */\n  0x20\n  add\n  mload\n    /* \"OnDemo/contracts/RoleManagement.sol\":5912:5942  return roleMap.isCouncilMember */\n  swap3\n  pop\n  pop\n  pop\n  jump(tag_79)\n    /* \"OnDemo/contracts/RoleManagement.sol\":5866:6137  if(_role == Role.COUNCILMEMBER){\r... */\ntag_102:\n    /* \"OnDemo/contracts/RoleManagement.sol\":5988:5999  Role.MEMBER */\n  0x02\n    /* \"OnDemo/contracts/RoleManagement.sol\":5979:5999  _role == Role.MEMBER */\n  0x03\n  dup2\n  gt\n  iszero\n  tag_104\n  jumpi\n  mstore(0x00, 0x4e487b7100000000000000000000000000000000000000000000000000000000)\n  mstore(0x04, 0x21)\n  revert(0x00, 0x24)\ntag_104:\n    /* \"OnDemo/contracts/RoleManagement.sol\":5979:5984  _role */\n  dup5\n    /* \"OnDemo/contracts/RoleManagement.sol\":5979:5999  _role == Role.MEMBER */\n  0x03\n  dup2\n  gt\n  iszero\n  tag_105\n  jumpi\n  mstore(0x00, 0x4e487b7100000000000000000000000000000000000000000000000000000000)\n  mstore(0x04, 0x21)\n  revert(0x00, 0x24)\ntag_105:\n  eq\n    /* \"OnDemo/contracts/RoleManagement.sol\":5976:6137  if(_role == Role.MEMBER){\r... */\n  iszero\n  tag_106\n  jumpi\n    /* \"OnDemo/contracts/RoleManagement.sol\":6022:6029  roleMap */\n  dup1\n    /* \"OnDemo/contracts/RoleManagement.sol\":6022:6038  roleMap.isMember */\n  0x40\n  add\n  mload\n    /* \"OnDemo/contracts/RoleManagement.sol\":6015:6038  return roleMap.isMember */\n  swap3\n  pop\n  pop\n  pop\n  jump(tag_79)\n    /* \"OnDemo/contracts/RoleManagement.sol\":5976:6137  if(_role == Role.MEMBER){\r... */\ntag_106:\n    /* \"OnDemo/contracts/RoleManagement.sol\":6077:6087  Role.GUEST */\n  0x03\n    /* \"OnDemo/contracts/RoleManagement.sol\":6068:6087  _role == Role.GUEST */\n  dup1\n  dup2\n  gt\n  iszero\n  tag_108\n  jumpi\n  mstore(0x00, 0x4e487b7100000000000000000000000000000000000000000000000000000000)\n  mstore(0x04, 0x21)\n  revert(0x00, 0x24)\ntag_108:\n    /* \"OnDemo/contracts/RoleManagement.sol\":6068:6073  _role */\n  dup5\n    /* \"OnDemo/contracts/RoleManagement.sol\":6068:6087  _role == Role.GUEST */\n  0x03\n  dup2\n  gt\n  iszero\n  tag_109\n  jumpi\n  mstore(0x00, 0x4e487b7100000000000000000000000000000000000000000000000000000000)\n  mstore(0x04, 0x21)\n  revert(0x00, 0x24)\ntag_109:\n  eq\n    /* \"OnDemo/contracts/RoleManagement.sol\":6065:6137  if(_role == Role.GUEST){\r... */\n  iszero\n  tag_110\n  jumpi\n    /* \"OnDemo/contracts/RoleManagement.sol\":6110:6117  roleMap */\n  dup1\n    /* \"OnDemo/contracts/RoleManagement.sol\":6110:6125  roleMap.isGuest */\n  0x60\n  add\n  mload\n    /* \"OnDemo/contracts/RoleManagement.sol\":6103:6125  return roleMap.isGuest */\n  swap3\n  pop\n  pop\n  pop\n  jump(tag_79)\n    /* \"OnDemo/contracts/RoleManagement.sol\":6065:6137  if(_role == Role.GUEST){\r... */\ntag_110:\n    /* \"OnDemo/contracts/RoleManagement.sol\":6154:6159  false */\n  0x00\n    /* \"OnDemo/contracts/RoleManagement.sol\":6147:6159  return false */\n  swap3\n  pop\n  pop\n  pop\n    /* \"OnDemo/contracts/RoleManagement.sol\":5597:6167  function hasRole(address _address, Role _role) private view returns (bool){\r... */\ntag_79:\n  swap3\n  swap2\n  pop\n  pop\n  jump\t// out\n    /* \"OnDemo/contracts/RoleManagement.sol\":74:6722  contract AccountManagement {\r... */\ntag_19:\n  dup3\n  dup1\n  sload\n  tag_111\n  swap1\n  tag_81\n  jump\t// in\ntag_111:\n  swap1\n  0x00\n  mstore\n  keccak256(0x00, 0x20)\n  swap1\n  0x1f\n  add\n  0x20\n  swap1\n  div\n  dup2\n  add\n  swap3\n  dup3\n  tag_113\n  jumpi\n  0x00\n  dup6\n  sstore\n  jump(tag_112)\ntag_113:\n  dup3\n  0x1f\n  lt\n  tag_114\n  jumpi\n  dup1\n  mload\n  not(0xff)\n  and\n  dup4\n  dup1\n  add\n  or\n  dup6\n  sstore\n  jump(tag_112)\ntag_114:\n  dup3\n  dup1\n  add\n  0x01\n  add\n  dup6\n  sstore\n  dup3\n  iszero\n  tag_112\n  jumpi\n  swap2\n  dup3\n  add\ntag_115:\n  dup3\n  dup2\n  gt\n  iszero\n  tag_116\n  jumpi\n  dup3\n  mload\n  dup3\n  sstore\n  swap2\n  0x20\n  add\n  swap2\n  swap1\n  0x01\n  add\n  swap1\n  jump(tag_115)\ntag_116:\ntag_112:\n  pop\n  swap1\n  pop\n  tag_117\n  swap2\n  swap1\n  tag_118\n  jump\t// in\ntag_117:\n  pop\n  swap1\n  jump\t// out\ntag_118:\ntag_119:\n  dup1\n  dup3\n  gt\n  iszero\n  tag_120\n  jumpi\n  0x00\n  dup2\n  0x00\n  swap1\n  sstore\n  pop\n  0x01\n  add\n  jump(tag_119)\ntag_120:\n  pop\n  swap1\n  jump\t// out\n    /* \"#utility.yul\":7:361   */\ntag_122:\n  0x00\n    /* \"#utility.yul\":121:187   */\n  tag_124\n    /* \"#utility.yul\":137:186   */\n  tag_125\n    /* \"#utility.yul\":179:185   */\n  dup5\n    /* \"#utility.yul\":137:186   */\n  tag_126\n  jump\t// in\ntag_125:\n    /* \"#utility.yul\":121:187   */\n  tag_127\n  jump\t// in\ntag_124:\n    /* \"#utility.yul\":112:187   */\n  swap1\n  pop\n    /* \"#utility.yul\":210:216   */\n  dup3\n    /* \"#utility.yul\":203:208   */\n  dup2\n    /* \"#utility.yul\":196:217   */\n  mstore\n    /* \"#utility.yul\":248:252   */\n  0x20\n    /* \"#utility.yul\":241:246   */\n  dup2\n    /* \"#utility.yul\":237:253   */\n  add\n    /* \"#utility.yul\":286:289   */\n  dup5\n    /* \"#utility.yul\":277:283   */\n  dup5\n    /* \"#utility.yul\":272:275   */\n  dup5\n    /* \"#utility.yul\":268:284   */\n  add\n    /* \"#utility.yul\":265:290   */\n  gt\n    /* \"#utility.yul\":262:264   */\n  iszero\n  tag_128\n  jumpi\n    /* \"#utility.yul\":303:304   */\n  0x00\n    /* \"#utility.yul\":300:301   */\n  dup1\n    /* \"#utility.yul\":293:305   */\n  revert\n    /* \"#utility.yul\":262:264   */\ntag_128:\n    /* \"#utility.yul\":316:355   */\n  tag_129\n    /* \"#utility.yul\":348:354   */\n  dup5\n    /* \"#utility.yul\":343:346   */\n  dup3\n    /* \"#utility.yul\":338:341   */\n  dup6\n    /* \"#utility.yul\":316:355   */\n  tag_130\n  jump\t// in\ntag_129:\n    /* \"#utility.yul\":102:361   */\n  pop\n  swap4\n  swap3\n  pop\n  pop\n  pop\n  jump\t// out\n    /* \"#utility.yul\":381:669   */\ntag_131:\n  0x00\n    /* \"#utility.yul\":497:500   */\n  dup3\n    /* \"#utility.yul\":490:494   */\n  0x1f\n    /* \"#utility.yul\":482:488   */\n  dup4\n    /* \"#utility.yul\":478:495   */\n  add\n    /* \"#utility.yul\":474:501   */\n  slt\n    /* \"#utility.yul\":464:466   */\n  tag_133\n  jumpi\n    /* \"#utility.yul\":515:516   */\n  0x00\n    /* \"#utility.yul\":512:513   */\n  dup1\n    /* \"#utility.yul\":505:517   */\n  revert\n    /* \"#utility.yul\":464:466   */\ntag_133:\n    /* \"#utility.yul\":548:554   */\n  dup2\n    /* \"#utility.yul\":542:555   */\n  mload\n    /* \"#utility.yul\":573:663   */\n  tag_134\n    /* \"#utility.yul\":659:662   */\n  dup5\n    /* \"#utility.yul\":651:657   */\n  dup3\n    /* \"#utility.yul\":644:648   */\n  0x20\n    /* \"#utility.yul\":636:642   */\n  dup7\n    /* \"#utility.yul\":632:649   */\n  add\n    /* \"#utility.yul\":573:663   */\n  tag_122\n  jump\t// in\ntag_134:\n    /* \"#utility.yul\":564:663   */\n  swap2\n  pop\n    /* \"#utility.yul\":454:669   */\n  pop\n  swap3\n  swap2\n  pop\n  pop\n  jump\t// out\n    /* \"#utility.yul\":675:1589   */\ntag_3:\n  0x00\n  dup1\n  0x00\n    /* \"#utility.yul\":858:860   */\n  0x60\n    /* \"#utility.yul\":846:855   */\n  dup5\n    /* \"#utility.yul\":837:844   */\n  dup7\n    /* \"#utility.yul\":833:856   */\n  sub\n    /* \"#utility.yul\":829:861   */\n  slt\n    /* \"#utility.yul\":826:828   */\n  iszero\n  tag_136\n  jumpi\n    /* \"#utility.yul\":874:875   */\n  0x00\n    /* \"#utility.yul\":871:872   */\n  dup1\n    /* \"#utility.yul\":864:876   */\n  revert\n    /* \"#utility.yul\":826:828   */\ntag_136:\n    /* \"#utility.yul\":938:939   */\n  0x00\n    /* \"#utility.yul\":927:936   */\n  dup5\n    /* \"#utility.yul\":923:940   */\n  add\n    /* \"#utility.yul\":917:941   */\n  mload\n    /* \"#utility.yul\":968:986   */\n  0xffffffffffffffff\n    /* \"#utility.yul\":960:966   */\n  dup2\n    /* \"#utility.yul\":957:987   */\n  gt\n    /* \"#utility.yul\":954:956   */\n  iszero\n  tag_137\n  jumpi\n    /* \"#utility.yul\":1000:1001   */\n  0x00\n    /* \"#utility.yul\":997:998   */\n  dup1\n    /* \"#utility.yul\":990:1002   */\n  revert\n    /* \"#utility.yul\":954:956   */\ntag_137:\n    /* \"#utility.yul\":1028:1102   */\n  tag_138\n    /* \"#utility.yul\":1094:1101   */\n  dup7\n    /* \"#utility.yul\":1085:1091   */\n  dup3\n    /* \"#utility.yul\":1074:1083   */\n  dup8\n    /* \"#utility.yul\":1070:1092   */\n  add\n    /* \"#utility.yul\":1028:1102   */\n  tag_131\n  jump\t// in\ntag_138:\n    /* \"#utility.yul\":1018:1102   */\n  swap4\n  pop\n    /* \"#utility.yul\":888:1112   */\n  pop\n    /* \"#utility.yul\":1172:1174   */\n  0x20\n    /* \"#utility.yul\":1161:1170   */\n  dup5\n    /* \"#utility.yul\":1157:1175   */\n  add\n    /* \"#utility.yul\":1151:1176   */\n  mload\n    /* \"#utility.yul\":1203:1221   */\n  0xffffffffffffffff\n    /* \"#utility.yul\":1195:1201   */\n  dup2\n    /* \"#utility.yul\":1192:1222   */\n  gt\n    /* \"#utility.yul\":1189:1191   */\n  iszero\n  tag_139\n  jumpi\n    /* \"#utility.yul\":1235:1236   */\n  0x00\n    /* \"#utility.yul\":1232:1233   */\n  dup1\n    /* \"#utility.yul\":1225:1237   */\n  revert\n    /* \"#utility.yul\":1189:1191   */\ntag_139:\n    /* \"#utility.yul\":1263:1337   */\n  tag_140\n    /* \"#utility.yul\":1329:1336   */\n  dup7\n    /* \"#utility.yul\":1320:1326   */\n  dup3\n    /* \"#utility.yul\":1309:1318   */\n  dup8\n    /* \"#utility.yul\":1305:1327   */\n  add\n    /* \"#utility.yul\":1263:1337   */\n  tag_131\n  jump\t// in\ntag_140:\n    /* \"#utility.yul\":1253:1337   */\n  swap3\n  pop\n    /* \"#utility.yul\":1122:1347   */\n  pop\n    /* \"#utility.yul\":1407:1409   */\n  0x40\n    /* \"#utility.yul\":1396:1405   */\n  dup5\n    /* \"#utility.yul\":1392:1410   */\n  add\n    /* \"#utility.yul\":1386:1411   */\n  mload\n    /* \"#utility.yul\":1438:1456   */\n  0xffffffffffffffff\n    /* \"#utility.yul\":1430:1436   */\n  dup2\n    /* \"#utility.yul\":1427:1457   */\n  gt\n    /* \"#utility.yul\":1424:1426   */\n  iszero\n  tag_141\n  jumpi\n    /* \"#utility.yul\":1470:1471   */\n  0x00\n    /* \"#utility.yul\":1467:1468   */\n  dup1\n    /* \"#utility.yul\":1460:1472   */\n  revert\n    /* \"#utility.yul\":1424:1426   */\ntag_141:\n    /* \"#utility.yul\":1498:1572   */\n  tag_142\n    /* \"#utility.yul\":1564:1571   */\n  dup7\n    /* \"#utility.yul\":1555:1561   */\n  dup3\n    /* \"#utility.yul\":1544:1553   */\n  dup8\n    /* \"#utility.yul\":1540:1562   */\n  add\n    /* \"#utility.yul\":1498:1572   */\n  tag_131\n  jump\t// in\ntag_142:\n    /* \"#utility.yul\":1488:1572   */\n  swap2\n  pop\n    /* \"#utility.yul\":1357:1582   */\n  pop\n    /* \"#utility.yul\":816:1589   */\n  swap3\n  pop\n  swap3\n  pop\n  swap3\n  jump\t// out\n    /* \"#utility.yul\":1595:1961   */\ntag_143:\n  0x00\n    /* \"#utility.yul\":1758:1825   */\n  tag_145\n    /* \"#utility.yul\":1822:1824   */\n  0x22\n    /* \"#utility.yul\":1817:1820   */\n  dup4\n    /* \"#utility.yul\":1758:1825   */\n  tag_146\n  jump\t// in\ntag_145:\n    /* \"#utility.yul\":1751:1825   */\n  swap2\n  pop\n    /* \"#utility.yul\":1834:1927   */\n  tag_147\n    /* \"#utility.yul\":1923:1926   */\n  dup3\n    /* \"#utility.yul\":1834:1927   */\n  tag_148\n  jump\t// in\ntag_147:\n    /* \"#utility.yul\":1952:1954   */\n  0x40\n    /* \"#utility.yul\":1947:1950   */\n  dup3\n    /* \"#utility.yul\":1943:1955   */\n  add\n    /* \"#utility.yul\":1936:1955   */\n  swap1\n  pop\n    /* \"#utility.yul\":1741:1961   */\n  swap2\n  swap1\n  pop\n  jump\t// out\n    /* \"#utility.yul\":1967:2333   */\ntag_149:\n  0x00\n    /* \"#utility.yul\":2130:2197   */\n  tag_151\n    /* \"#utility.yul\":2194:2196   */\n  0x15\n    /* \"#utility.yul\":2189:2192   */\n  dup4\n    /* \"#utility.yul\":2130:2197   */\n  tag_146\n  jump\t// in\ntag_151:\n    /* \"#utility.yul\":2123:2197   */\n  swap2\n  pop\n    /* \"#utility.yul\":2206:2299   */\n  tag_152\n    /* \"#utility.yul\":2295:2298   */\n  dup3\n    /* \"#utility.yul\":2206:2299   */\n  tag_153\n  jump\t// in\ntag_152:\n    /* \"#utility.yul\":2324:2326   */\n  0x20\n    /* \"#utility.yul\":2319:2322   */\n  dup3\n    /* \"#utility.yul\":2315:2327   */\n  add\n    /* \"#utility.yul\":2308:2327   */\n  swap1\n  pop\n    /* \"#utility.yul\":2113:2333   */\n  swap2\n  swap1\n  pop\n  jump\t// out\n    /* \"#utility.yul\":2339:2705   */\ntag_154:\n  0x00\n    /* \"#utility.yul\":2502:2569   */\n  tag_156\n    /* \"#utility.yul\":2566:2568   */\n  0x16\n    /* \"#utility.yul\":2561:2564   */\n  dup4\n    /* \"#utility.yul\":2502:2569   */\n  tag_146\n  jump\t// in\ntag_156:\n    /* \"#utility.yul\":2495:2569   */\n  swap2\n  pop\n    /* \"#utility.yul\":2578:2671   */\n  tag_157\n    /* \"#utility.yul\":2667:2670   */\n  dup3\n    /* \"#utility.yul\":2578:2671   */\n  tag_158\n  jump\t// in\ntag_157:\n    /* \"#utility.yul\":2696:2698   */\n  0x20\n    /* \"#utility.yul\":2691:2694   */\n  dup3\n    /* \"#utility.yul\":2687:2699   */\n  add\n    /* \"#utility.yul\":2680:2699   */\n  swap1\n  pop\n    /* \"#utility.yul\":2485:2705   */\n  swap2\n  swap1\n  pop\n  jump\t// out\n    /* \"#utility.yul\":2711:3130   */\ntag_28:\n  0x00\n    /* \"#utility.yul\":2915:2917   */\n  0x20\n    /* \"#utility.yul\":2904:2913   */\n  dup3\n    /* \"#utility.yul\":2900:2918   */\n  add\n    /* \"#utility.yul\":2892:2918   */\n  swap1\n  pop\n    /* \"#utility.yul\":2964:2973   */\n  dup2\n    /* \"#utility.yul\":2958:2962   */\n  dup2\n    /* \"#utility.yul\":2954:2974   */\n  sub\n    /* \"#utility.yul\":2950:2951   */\n  0x00\n    /* \"#utility.yul\":2939:2948   */\n  dup4\n    /* \"#utility.yul\":2935:2952   */\n  add\n    /* \"#utility.yul\":2928:2975   */\n  mstore\n    /* \"#utility.yul\":2992:3123   */\n  tag_160\n    /* \"#utility.yul\":3118:3122   */\n  dup2\n    /* \"#utility.yul\":2992:3123   */\n  tag_143\n  jump\t// in\ntag_160:\n    /* \"#utility.yul\":2984:3123   */\n  swap1\n  pop\n    /* \"#utility.yul\":2882:3130   */\n  swap2\n  swap1\n  pop\n  jump\t// out\n    /* \"#utility.yul\":3136:3555   */\ntag_32:\n  0x00\n    /* \"#utility.yul\":3340:3342   */\n  0x20\n    /* \"#utility.yul\":3329:3338   */\n  dup3\n    /* \"#utility.yul\":3325:3343   */\n  add\n    /* \"#utility.yul\":3317:3343   */\n  swap1\n  pop\n    /* \"#utility.yul\":3389:3398   */\n  dup2\n    /* \"#utility.yul\":3383:3387   */\n  dup2\n    /* \"#utility.yul\":3379:3399   */\n  sub\n    /* \"#utility.yul\":3375:3376   */\n  0x00\n    /* \"#utility.yul\":3364:3373   */\n  dup4\n    /* \"#utility.yul\":3360:3377   */\n  add\n    /* \"#utility.yul\":3353:3400   */\n  mstore\n    /* \"#utility.yul\":3417:3548   */\n  tag_162\n    /* \"#utility.yul\":3543:3547   */\n  dup2\n    /* \"#utility.yul\":3417:3548   */\n  tag_149\n  jump\t// in\ntag_162:\n    /* \"#utility.yul\":3409:3548   */\n  swap1\n  pop\n    /* \"#utility.yul\":3307:3555   */\n  swap2\n  swap1\n  pop\n  jump\t// out\n    /* \"#utility.yul\":3561:3980   */\ntag_16:\n  0x00\n    /* \"#utility.yul\":3765:3767   */\n  0x20\n    /* \"#utility.yul\":3754:3763   */\n  dup3\n    /* \"#utility.yul\":3750:3768   */\n  add\n    /* \"#utility.yul\":3742:3768   */\n  swap1\n  pop\n    /* \"#utility.yul\":3814:3823   */\n  dup2\n    /* \"#utility.yul\":3808:3812   */\n  dup2\n    /* \"#utility.yul\":3804:3824   */\n  sub\n    /* \"#utility.yul\":3800:3801   */\n  0x00\n    /* \"#utility.yul\":3789:3798   */\n  dup4\n    /* \"#utility.yul\":3785:3802   */\n  add\n    /* \"#utility.yul\":3778:3825   */\n  mstore\n    /* \"#utility.yul\":3842:3973   */\n  tag_164\n    /* \"#utility.yul\":3968:3972   */\n  dup2\n    /* \"#utility.yul\":3842:3973   */\n  tag_154\n  jump\t// in\ntag_164:\n    /* \"#utility.yul\":3834:3973   */\n  swap1\n  pop\n    /* \"#utility.yul\":3732:3980   */\n  swap2\n  swap1\n  pop\n  jump\t// out\n    /* \"#utility.yul\":3986:4115   */\ntag_127:\n  0x00\n    /* \"#utility.yul\":4047:4067   */\n  tag_166\n  tag_167\n  jump\t// in\ntag_166:\n    /* \"#utility.yul\":4037:4067   */\n  swap1\n  pop\n    /* \"#utility.yul\":4076:4109   */\n  tag_168\n    /* \"#utility.yul\":4104:4108   */\n  dup3\n    /* \"#utility.yul\":4096:4102   */\n  dup3\n    /* \"#utility.yul\":4076:4109   */\n  tag_169\n  jump\t// in\ntag_168:\n    /* \"#utility.yul\":4027:4115   */\n  swap2\n  swap1\n  pop\n  jump\t// out\n    /* \"#utility.yul\":4121:4196   */\ntag_167:\n  0x00\n    /* \"#utility.yul\":4187:4189   */\n  0x40\n    /* \"#utility.yul\":4181:4190   */\n  mload\n    /* \"#utility.yul\":4171:4190   */\n  swap1\n  pop\n    /* \"#utility.yul\":4161:4196   */\n  swap1\n  jump\t// out\n    /* \"#utility.yul\":4202:4510   */\ntag_126:\n  0x00\n    /* \"#utility.yul\":4354:4372   */\n  0xffffffffffffffff\n    /* \"#utility.yul\":4346:4352   */\n  dup3\n    /* \"#utility.yul\":4343:4373   */\n  gt\n    /* \"#utility.yul\":4340:4342   */\n  iszero\n  tag_172\n  jumpi\n    /* \"#utility.yul\":4376:4394   */\n  tag_173\n  tag_174\n  jump\t// in\ntag_173:\n    /* \"#utility.yul\":4340:4342   */\ntag_172:\n    /* \"#utility.yul\":4414:4443   */\n  tag_175\n    /* \"#utility.yul\":4436:4442   */\n  dup3\n    /* \"#utility.yul\":4414:4443   */\n  tag_176\n  jump\t// in\ntag_175:\n    /* \"#utility.yul\":4406:4443   */\n  swap1\n  pop\n    /* \"#utility.yul\":4498:4502   */\n  0x20\n    /* \"#utility.yul\":4492:4496   */\n  dup2\n    /* \"#utility.yul\":4488:4503   */\n  add\n    /* \"#utility.yul\":4480:4503   */\n  swap1\n  pop\n    /* \"#utility.yul\":4269:4510   */\n  swap2\n  swap1\n  pop\n  jump\t// out\n    /* \"#utility.yul\":4516:4685   */\ntag_146:\n  0x00\n    /* \"#utility.yul\":4634:4640   */\n  dup3\n    /* \"#utility.yul\":4629:4632   */\n  dup3\n    /* \"#utility.yul\":4622:4641   */\n  mstore\n    /* \"#utility.yul\":4674:4678   */\n  0x20\n    /* \"#utility.yul\":4669:4672   */\n  dup3\n    /* \"#utility.yul\":4665:4679   */\n  add\n    /* \"#utility.yul\":4650:4679   */\n  swap1\n  pop\n    /* \"#utility.yul\":4612:4685   */\n  swap3\n  swap2\n  pop\n  pop\n  jump\t// out\n    /* \"#utility.yul\":4691:4998   */\ntag_130:\n    /* \"#utility.yul\":4759:4760   */\n  0x00\n    /* \"#utility.yul\":4769:4882   */\ntag_179:\n    /* \"#utility.yul\":4783:4789   */\n  dup4\n    /* \"#utility.yul\":4780:4781   */\n  dup2\n    /* \"#utility.yul\":4777:4790   */\n  lt\n    /* \"#utility.yul\":4769:4882   */\n  iszero\n  tag_181\n  jumpi\n    /* \"#utility.yul\":4868:4869   */\n  dup1\n    /* \"#utility.yul\":4863:4866   */\n  dup3\n    /* \"#utility.yul\":4859:4870   */\n  add\n    /* \"#utility.yul\":4853:4871   */\n  mload\n    /* \"#utility.yul\":4849:4850   */\n  dup2\n    /* \"#utility.yul\":4844:4847   */\n  dup5\n    /* \"#utility.yul\":4840:4851   */\n  add\n    /* \"#utility.yul\":4833:4872   */\n  mstore\n    /* \"#utility.yul\":4805:4807   */\n  0x20\n    /* \"#utility.yul\":4802:4803   */\n  dup2\n    /* \"#utility.yul\":4798:4808   */\n  add\n    /* \"#utility.yul\":4793:4808   */\n  swap1\n  pop\n    /* \"#utility.yul\":4769:4882   */\n  jump(tag_179)\ntag_181:\n    /* \"#utility.yul\":4900:4906   */\n  dup4\n    /* \"#utility.yul\":4897:4898   */\n  dup2\n    /* \"#utility.yul\":4894:4907   */\n  gt\n    /* \"#utility.yul\":4891:4893   */\n  iszero\n  tag_182\n  jumpi\n    /* \"#utility.yul\":4980:4981   */\n  0x00\n    /* \"#utility.yul\":4971:4977   */\n  dup5\n    /* \"#utility.yul\":4966:4969   */\n  dup5\n    /* \"#utility.yul\":4962:4978   */\n  add\n    /* \"#utility.yul\":4955:4982   */\n  mstore\n    /* \"#utility.yul\":4891:4893   */\ntag_182:\n    /* \"#utility.yul\":4740:4998   */\n  pop\n  pop\n  pop\n  pop\n  jump\t// out\n    /* \"#utility.yul\":5004:5324   */\ntag_81:\n  0x00\n    /* \"#utility.yul\":5085:5086   */\n  0x02\n    /* \"#utility.yul\":5079:5083   */\n  dup3\n    /* \"#utility.yul\":5075:5087   */\n  div\n    /* \"#utility.yul\":5065:5087   */\n  swap1\n  pop\n    /* \"#utility.yul\":5132:5133   */\n  0x01\n    /* \"#utility.yul\":5126:5130   */\n  dup3\n    /* \"#utility.yul\":5122:5134   */\n  and\n    /* \"#utility.yul\":5153:5171   */\n  dup1\n    /* \"#utility.yul\":5143:5145   */\n  tag_184\n  jumpi\n    /* \"#utility.yul\":5209:5213   */\n  0x7f\n    /* \"#utility.yul\":5201:5207   */\n  dup3\n    /* \"#utility.yul\":5197:5214   */\n  and\n    /* \"#utility.yul\":5187:5214   */\n  swap2\n  pop\n    /* \"#utility.yul\":5143:5145   */\ntag_184:\n    /* \"#utility.yul\":5271:5273   */\n  0x20\n    /* \"#utility.yul\":5263:5269   */\n  dup3\n    /* \"#utility.yul\":5260:5274   */\n  lt\n    /* \"#utility.yul\":5240:5258   */\n  dup2\n    /* \"#utility.yul\":5237:5275   */\n  eq\n    /* \"#utility.yul\":5234:5236   */\n  iszero\n  tag_185\n  jumpi\n    /* \"#utility.yul\":5290:5308   */\n  tag_186\n  tag_187\n  jump\t// in\ntag_186:\n    /* \"#utility.yul\":5234:5236   */\ntag_185:\n    /* \"#utility.yul\":5055:5324   */\n  pop\n  swap2\n  swap1\n  pop\n  jump\t// out\n    /* \"#utility.yul\":5330:5611   */\ntag_169:\n    /* \"#utility.yul\":5413:5440   */\n  tag_189\n    /* \"#utility.yul\":5435:5439   */\n  dup3\n    /* \"#utility.yul\":5413:5440   */\n  tag_176\n  jump\t// in\ntag_189:\n    /* \"#utility.yul\":5405:5411   */\n  dup2\n    /* \"#utility.yul\":5401:5441   */\n  add\n    /* \"#utility.yul\":5543:5549   */\n  dup2\n    /* \"#utility.yul\":5531:5541   */\n  dup2\n    /* \"#utility.yul\":5528:5550   */\n  lt\n    /* \"#utility.yul\":5507:5525   */\n  0xffffffffffffffff\n    /* \"#utility.yul\":5495:5505   */\n  dup3\n    /* \"#utility.yul\":5492:5526   */\n  gt\n    /* \"#utility.yul\":5489:5551   */\n  or\n    /* \"#utility.yul\":5486:5488   */\n  iszero\n  tag_190\n  jumpi\n    /* \"#utility.yul\":5554:5572   */\n  tag_191\n  tag_174\n  jump\t// in\ntag_191:\n    /* \"#utility.yul\":5486:5488   */\ntag_190:\n    /* \"#utility.yul\":5594:5604   */\n  dup1\n    /* \"#utility.yul\":5590:5592   */\n  0x40\n    /* \"#utility.yul\":5583:5605   */\n  mstore\n    /* \"#utility.yul\":5373:5611   */\n  pop\n  pop\n  pop\n  jump\t// out\n    /* \"#utility.yul\":5617:5797   */\ntag_187:\n    /* \"#utility.yul\":5665:5742   */\n  0x4e487b7100000000000000000000000000000000000000000000000000000000\n    /* \"#utility.yul\":5662:5663   */\n  0x00\n    /* \"#utility.yul\":5655:5743   */\n  mstore\n    /* \"#utility.yul\":5762:5766   */\n  0x22\n    /* \"#utility.yul\":5759:5760   */\n  0x04\n    /* \"#utility.yul\":5752:5767   */\n  mstore\n    /* \"#utility.yul\":5786:5790   */\n  0x24\n    /* \"#utility.yul\":5783:5784   */\n  0x00\n    /* \"#utility.yul\":5776:5791   */\n  revert\n    /* \"#utility.yul\":5803:5983   */\ntag_174:\n    /* \"#utility.yul\":5851:5928   */\n  0x4e487b7100000000000000000000000000000000000000000000000000000000\n    /* \"#utility.yul\":5848:5849   */\n  0x00\n    /* \"#utility.yul\":5841:5929   */\n  mstore\n    /* \"#utility.yul\":5948:5952   */\n  0x41\n    /* \"#utility.yul\":5945:5946   */\n  0x04\n    /* \"#utility.yul\":5938:5953   */\n  mstore\n    /* \"#utility.yul\":5972:5976   */\n  0x24\n    /* \"#utility.yul\":5969:5970   */\n  0x00\n    /* \"#utility.yul\":5962:5977   */\n  revert\n    /* \"#utility.yul\":5989:6091   */\ntag_176:\n  0x00\n    /* \"#utility.yul\":6081:6083   */\n  0x1f\n    /* \"#utility.yul\":6077:6084   */\n  not\n    /* \"#utility.yul\":6072:6074   */\n  0x1f\n    /* \"#utility.yul\":6065:6070   */\n  dup4\n    /* \"#utility.yul\":6061:6075   */\n  add\n    /* \"#utility.yul\":6057:6085   */\n  and\n    /* \"#utility.yul\":6047:6085   */\n  swap1\n  pop\n    /* \"#utility.yul\":6037:6091   */\n  swap2\n  swap1\n  pop\n  jump\t// out\n    /* \"#utility.yul\":6097:6318   */\ntag_148:\n    /* \"#utility.yul\":6237:6271   */\n  0x4f6e6c79206f776e65722063616e2063616c6c20746869732066756e6374696f\n    /* \"#utility.yul\":6233:6234   */\n  0x00\n    /* \"#utility.yul\":6225:6231   */\n  dup3\n    /* \"#utility.yul\":6221:6235   */\n  add\n    /* \"#utility.yul\":6214:6272   */\n  mstore\n    /* \"#utility.yul\":6306:6310   */\n  0x6e2e000000000000000000000000000000000000000000000000000000000000\n    /* \"#utility.yul\":6301:6303   */\n  0x20\n    /* \"#utility.yul\":6293:6299   */\n  dup3\n    /* \"#utility.yul\":6289:6304   */\n  add\n    /* \"#utility.yul\":6282:6311   */\n  mstore\n    /* \"#utility.yul\":6203:6318   */\n  pop\n  jump\t// out\n    /* \"#utility.yul\":6324:6495   */\ntag_153:\n    /* \"#utility.yul\":6464:6487   */\n  0x4163636f756e7420646f65736e27742065786973740000000000000000000000\n    /* \"#utility.yul\":6460:6461   */\n  0x00\n    /* \"#utility.yul\":6452:6458   */\n  dup3\n    /* \"#utility.yul\":6448:6462   */\n  add\n    /* \"#utility.yul\":6441:6488   */\n  mstore\n    /* \"#utility.yul\":6430:6495   */\n  pop\n  jump\t// out\n    /* \"#utility.yul\":6501:6673   */\ntag_158:\n    /* \"#utility.yul\":6641:6665   */\n  0x4163636f756e7420616c72656164792065786973747300000000000000000000\n    /* \"#utility.yul\":6637:6638   */\n  0x00\n    /* \"#utility.yul\":6629:6635   */\n  dup3\n    /* \"#utility.yul\":6625:6639   */\n  add\n    /* \"#utility.yul\":6618:6666   */\n  mstore\n    /* \"#utility.yul\":6607:6673   */\n  pop\n  jump\t// out\n    /* \"OnDemo/contracts/RoleManagement.sol\":74:6722  contract AccountManagement {\r... */\ntag_12:\n  dataSize(sub_0)\n  dup1\n  dataOffset(sub_0)\n  0x00\n  codecopy\n  0x00\n  return\nstop\n\nsub_0: assembly {\n        /* \"OnDemo/contracts/RoleManagement.sol\":74:6722  contract AccountManagement {\r... */\n      mstore(0x40, 0x80)\n      callvalue\n      dup1\n      iszero\n      tag_1\n      jumpi\n      0x00\n      dup1\n      revert\n    tag_1:\n      pop\n      jumpi(tag_2, lt(calldatasize, 0x04))\n      shr(0xe0, calldataload(0x00))\n      dup1\n      0xa1aea04a\n      gt\n      tag_16\n      jumpi\n      dup1\n      0xd3a5059a\n      gt\n      tag_17\n      jumpi\n      dup1\n      0xd3a5059a\n      eq\n      tag_12\n      jumpi\n      dup1\n      0xdee94b4a\n      eq\n      tag_13\n      jumpi\n      dup1\n      0xe8621e59\n      eq\n      tag_14\n      jumpi\n      dup1\n      0xfa4d7aae\n      eq\n      tag_15\n      jumpi\n      jump(tag_2)\n    tag_17:\n      dup1\n      0xa1aea04a\n      eq\n      tag_9\n      jumpi\n      dup1\n      0xa87430ba\n      eq\n      tag_10\n      jumpi\n      dup1\n      0xb74866fb\n      eq\n      tag_11\n      jumpi\n      jump(tag_2)\n    tag_16:\n      dup1\n      0x056909b7\n      eq\n      tag_3\n      jumpi\n      dup1\n      0x297027d5\n      eq\n      tag_4\n      jumpi\n      dup1\n      0x49587281\n      eq\n      tag_5\n      jumpi\n      dup1\n      0x5d3694b9\n      eq\n      tag_6\n      jumpi\n      dup1\n      0x630a195b\n      eq\n      tag_7\n      jumpi\n      dup1\n      0x8da5cb5b\n      eq\n      tag_8\n      jumpi\n    tag_2:\n      0x00\n      dup1\n      revert\n        /* \"OnDemo/contracts/RoleManagement.sol\":6461:6585  function hasMemberRole(address _address) public view returns (bool) {\r... */\n    tag_3:\n      tag_18\n      0x04\n      dup1\n      calldatasize\n      sub\n      dup2\n      add\n      swap1\n      tag_19\n      swap2\n      swap1\n      tag_20\n      jump\t// in\n    tag_19:\n      tag_21\n      jump\t// in\n    tag_18:\n      mload(0x40)\n      tag_22\n      swap2\n      swap1\n      tag_23\n      jump\t// in\n    tag_22:\n      mload(0x40)\n      dup1\n      swap2\n      sub\n      swap1\n      return\n        /* \"OnDemo/contracts/RoleManagement.sol\":6179:6303  function hasLeaderRole(address _address) public view returns (bool) {\r... */\n    tag_4:\n      tag_24\n      0x04\n      dup1\n      calldatasize\n      sub\n      dup2\n      add\n      swap1\n      tag_25\n      swap2\n      swap1\n      tag_20\n      jump\t// in\n    tag_25:\n      tag_26\n      jump\t// in\n    tag_24:\n      mload(0x40)\n      tag_27\n      swap2\n      swap1\n      tag_23\n      jump\t// in\n    tag_27:\n      mload(0x40)\n      dup1\n      swap2\n      sub\n      swap1\n      return\n        /* \"OnDemo/contracts/RoleManagement.sol\":2593:2842  function makeAccountPassive(address _address) public userExists(_address){\r... */\n    tag_5:\n      tag_28\n      0x04\n      dup1\n      calldatasize\n      sub\n      dup2\n      add\n      swap1\n      tag_29\n      swap2\n      swap1\n      tag_20\n      jump\t// in\n    tag_29:\n      tag_30\n      jump\t// in\n    tag_28:\n      stop\n        /* \"OnDemo/contracts/RoleManagement.sol\":699:744  mapping(address => bool) public activeMembers */\n    tag_6:\n      tag_31\n      0x04\n      dup1\n      calldatasize\n      sub\n      dup2\n      add\n      swap1\n      tag_32\n      swap2\n      swap1\n      tag_20\n      jump\t// in\n    tag_32:\n      tag_33\n      jump\t// in\n    tag_31:\n      mload(0x40)\n      tag_34\n      swap2\n      swap1\n      tag_23\n      jump\t// in\n    tag_34:\n      mload(0x40)\n      dup1\n      swap2\n      sub\n      swap1\n      return\n        /* \"OnDemo/contracts/RoleManagement.sol\":2999:3562  function assignRole(address _address, Role _role) public onlyLeader userExists(_address){\r... */\n    tag_7:\n      tag_35\n      0x04\n      dup1\n      calldatasize\n      sub\n      dup2\n      add\n      swap1\n      tag_36\n      swap2\n      swap1\n      tag_37\n      jump\t// in\n    tag_36:\n      tag_38\n      jump\t// in\n    tag_35:\n      stop\n        /* \"OnDemo/contracts/RoleManagement.sol\":604:624  address public owner */\n    tag_8:\n      tag_39\n      tag_40\n      jump\t// in\n    tag_39:\n      mload(0x40)\n      tag_41\n      swap2\n      swap1\n      tag_42\n      jump\t// in\n    tag_41:\n      mload(0x40)\n      dup1\n      swap2\n      sub\n      swap1\n      return\n        /* \"OnDemo/contracts/RoleManagement.sol\":2193:2585  function makeAccountActive(address _address) public userExists(_address){\r... */\n    tag_9:\n      tag_43\n      0x04\n      dup1\n      calldatasize\n      sub\n      dup2\n      add\n      swap1\n      tag_44\n      swap2\n      swap1\n      tag_20\n      jump\t// in\n    tag_44:\n      tag_45\n      jump\t// in\n    tag_43:\n      stop\n        /* \"OnDemo/contracts/RoleManagement.sol\":631:668  mapping(address => User) public users */\n    tag_10:\n      tag_46\n      0x04\n      dup1\n      calldatasize\n      sub\n      dup2\n      add\n      swap1\n      tag_47\n      swap2\n      swap1\n      tag_20\n      jump\t// in\n    tag_47:\n      tag_48\n      jump\t// in\n    tag_46:\n      mload(0x40)\n      tag_49\n      swap7\n      swap6\n      swap5\n      swap4\n      swap3\n      swap2\n      swap1\n      tag_50\n      jump\t// in\n    tag_49:\n      mload(0x40)\n      dup1\n      swap2\n      sub\n      swap1\n      return\n        /* \"OnDemo/contracts/RoleManagement.sol\":3570:4349  function removeRole(address _address, Role _role) public onlyLeader userExists(_address){\r... */\n    tag_11:\n      tag_51\n      0x04\n      dup1\n      calldatasize\n      sub\n      dup2\n      add\n      swap1\n      tag_52\n      swap2\n      swap1\n      tag_37\n      jump\t// in\n    tag_52:\n      tag_53\n      jump\t// in\n    tag_51:\n      stop\n        /* \"OnDemo/contracts/RoleManagement.sol\":2850:2965  function burnAccount(address _address) public userExists(_address){\r... */\n    tag_12:\n      tag_54\n      0x04\n      dup1\n      calldatasize\n      sub\n      dup2\n      add\n      swap1\n      tag_55\n      swap2\n      swap1\n      tag_20\n      jump\t// in\n    tag_55:\n      tag_56\n      jump\t// in\n    tag_54:\n      stop\n        /* \"OnDemo/contracts/RoleManagement.sol\":1821:2185  function createAccount(address _address, string memory _firstName, string memory _secondName, string memory _mailAdress) public userNotExists(_address){\r... */\n    tag_13:\n      tag_57\n      0x04\n      dup1\n      calldatasize\n      sub\n      dup2\n      add\n      swap1\n      tag_58\n      swap2\n      swap1\n      tag_59\n      jump\t// in\n    tag_58:\n      tag_60\n      jump\t// in\n    tag_57:\n      stop\n        /* \"OnDemo/contracts/RoleManagement.sol\":6597:6719  function hasGuestRole(address _address) public view returns (bool) {\r... */\n    tag_14:\n      tag_61\n      0x04\n      dup1\n      calldatasize\n      sub\n      dup2\n      add\n      swap1\n      tag_62\n      swap2\n      swap1\n      tag_20\n      jump\t// in\n    tag_62:\n      tag_63\n      jump\t// in\n    tag_61:\n      mload(0x40)\n      tag_64\n      swap2\n      swap1\n      tag_23\n      jump\t// in\n    tag_64:\n      mload(0x40)\n      dup1\n      swap2\n      sub\n      swap1\n      return\n        /* \"OnDemo/contracts/RoleManagement.sol\":6311:6449  function hasCouncilMemberRole(address _address) public view returns (bool) {\r... */\n    tag_15:\n      tag_65\n      0x04\n      dup1\n      calldatasize\n      sub\n      dup2\n      add\n      swap1\n      tag_66\n      swap2\n      swap1\n      tag_20\n      jump\t// in\n    tag_66:\n      tag_67\n      jump\t// in\n    tag_65:\n      mload(0x40)\n      tag_68\n      swap2\n      swap1\n      tag_23\n      jump\t// in\n    tag_68:\n      mload(0x40)\n      dup1\n      swap2\n      sub\n      swap1\n      return\n        /* \"OnDemo/contracts/RoleManagement.sol\":6461:6585  function hasMemberRole(address _address) public view returns (bool) {\r... */\n    tag_21:\n        /* \"OnDemo/contracts/RoleManagement.sol\":6523:6527  bool */\n      0x00\n        /* \"OnDemo/contracts/RoleManagement.sol\":6547:6577  hasRole(_address, Role.MEMBER) */\n      tag_70\n        /* \"OnDemo/contracts/RoleManagement.sol\":6555:6563  _address */\n      dup3\n        /* \"OnDemo/contracts/RoleManagement.sol\":6565:6576  Role.MEMBER */\n      0x02\n        /* \"OnDemo/contracts/RoleManagement.sol\":6547:6554  hasRole */\n      tag_71\n        /* \"OnDemo/contracts/RoleManagement.sol\":6547:6577  hasRole(_address, Role.MEMBER) */\n      jump\t// in\n    tag_70:\n        /* \"OnDemo/contracts/RoleManagement.sol\":6540:6577  return hasRole(_address, Role.MEMBER) */\n      swap1\n      pop\n        /* \"OnDemo/contracts/RoleManagement.sol\":6461:6585  function hasMemberRole(address _address) public view returns (bool) {\r... */\n      swap2\n      swap1\n      pop\n      jump\t// out\n        /* \"OnDemo/contracts/RoleManagement.sol\":6179:6303  function hasLeaderRole(address _address) public view returns (bool) {\r... */\n    tag_26:\n        /* \"OnDemo/contracts/RoleManagement.sol\":6241:6245  bool */\n      0x00\n        /* \"OnDemo/contracts/RoleManagement.sol\":6265:6295  hasRole(_address, Role.LEADER) */\n      tag_73\n        /* \"OnDemo/contracts/RoleManagement.sol\":6273:6281  _address */\n      dup3\n        /* \"OnDemo/contracts/RoleManagement.sol\":6283:6294  Role.LEADER */\n      0x00\n        /* \"OnDemo/contracts/RoleManagement.sol\":6265:6272  hasRole */\n      tag_71\n        /* \"OnDemo/contracts/RoleManagement.sol\":6265:6295  hasRole(_address, Role.LEADER) */\n      jump\t// in\n    tag_73:\n        /* \"OnDemo/contracts/RoleManagement.sol\":6258:6295  return hasRole(_address, Role.LEADER) */\n      swap1\n      pop\n        /* \"OnDemo/contracts/RoleManagement.sol\":6179:6303  function hasLeaderRole(address _address) public view returns (bool) {\r... */\n      swap2\n      swap1\n      pop\n      jump\t// out\n        /* \"OnDemo/contracts/RoleManagement.sol\":2593:2842  function makeAccountPassive(address _address) public userExists(_address){\r... */\n    tag_30:\n        /* \"OnDemo/contracts/RoleManagement.sol\":2657:2665  _address */\n      dup1\n        /* \"OnDemo/contracts/RoleManagement.sol\":1581:1582  0 */\n      0x00\n        /* \"OnDemo/contracts/RoleManagement.sol\":1542:1583  users[_address].userAddress != address(0) */\n      0xffffffffffffffffffffffffffffffffffffffff\n      and\n        /* \"OnDemo/contracts/RoleManagement.sol\":1542:1547  users */\n      0x01\n        /* \"OnDemo/contracts/RoleManagement.sol\":1542:1557  users[_address] */\n      0x00\n        /* \"OnDemo/contracts/RoleManagement.sol\":1548:1556  _address */\n      dup4\n        /* \"OnDemo/contracts/RoleManagement.sol\":1542:1557  users[_address] */\n      0xffffffffffffffffffffffffffffffffffffffff\n      and\n      0xffffffffffffffffffffffffffffffffffffffff\n      and\n      dup2\n      mstore\n      0x20\n      add\n      swap1\n      dup2\n      mstore\n      0x20\n      add\n      0x00\n      keccak256\n        /* \"OnDemo/contracts/RoleManagement.sol\":1542:1569  users[_address].userAddress */\n      0x00\n      add\n      0x00\n      swap1\n      sload\n      swap1\n      0x0100\n      exp\n      swap1\n      div\n      0xffffffffffffffffffffffffffffffffffffffff\n      and\n        /* \"OnDemo/contracts/RoleManagement.sol\":1542:1583  users[_address].userAddress != address(0) */\n      0xffffffffffffffffffffffffffffffffffffffff\n      and\n      eq\n      iszero\n        /* \"OnDemo/contracts/RoleManagement.sol\":1534:1609  require(users[_address].userAddress != address(0), \"Account doesn't exist\") */\n      tag_75\n      jumpi\n      mload(0x40)\n      0x08c379a000000000000000000000000000000000000000000000000000000000\n      dup2\n      mstore\n      0x04\n      add\n      tag_76\n      swap1\n      tag_77\n      jump\t// in\n    tag_76:\n      mload(0x40)\n      dup1\n      swap2\n      sub\n      swap1\n      revert\n    tag_75:\n        /* \"OnDemo/contracts/RoleManagement.sol\":2677:2694  User storage user */\n      0x00\n        /* \"OnDemo/contracts/RoleManagement.sol\":2697:2702  users */\n      0x01\n        /* \"OnDemo/contracts/RoleManagement.sol\":2697:2712  users[_address] */\n      0x00\n        /* \"OnDemo/contracts/RoleManagement.sol\":2703:2711  _address */\n      dup5\n        /* \"OnDemo/contracts/RoleManagement.sol\":2697:2712  users[_address] */\n      0xffffffffffffffffffffffffffffffffffffffff\n      and\n      0xffffffffffffffffffffffffffffffffffffffff\n      and\n      dup2\n      mstore\n      0x20\n      add\n      swap1\n      dup2\n      mstore\n      0x20\n      add\n      0x00\n      keccak256\n        /* \"OnDemo/contracts/RoleManagement.sol\":2677:2712  User storage user = users[_address] */\n      swap1\n      pop\n        /* \"OnDemo/contracts/RoleManagement.sol\":2739:2744  false */\n      0x00\n        /* \"OnDemo/contracts/RoleManagement.sol\":2723:2727  user */\n      dup2\n        /* \"OnDemo/contracts/RoleManagement.sol\":2723:2736  user.isActive */\n      0x04\n      add\n      0x00\n        /* \"OnDemo/contracts/RoleManagement.sol\":2723:2744  user.isActive = false */\n      0x0100\n      exp\n      dup2\n      sload\n      dup2\n      0xff\n      mul\n      not\n      and\n      swap1\n      dup4\n      iszero\n      iszero\n      mul\n      or\n      swap1\n      sstore\n      pop\n        /* \"OnDemo/contracts/RoleManagement.sol\":2829:2834  false */\n      0x00\n        /* \"OnDemo/contracts/RoleManagement.sol\":2803:2816  activeMembers */\n      0x02\n        /* \"OnDemo/contracts/RoleManagement.sol\":2803:2826  activeMembers[_address] */\n      0x00\n        /* \"OnDemo/contracts/RoleManagement.sol\":2817:2825  _address */\n      dup6\n        /* \"OnDemo/contracts/RoleManagement.sol\":2803:2826  activeMembers[_address] */\n      0xffffffffffffffffffffffffffffffffffffffff\n      and\n      0xffffffffffffffffffffffffffffffffffffffff\n      and\n      dup2\n      mstore\n      0x20\n      add\n      swap1\n      dup2\n      mstore\n      0x20\n      add\n      0x00\n      keccak256\n      0x00\n        /* \"OnDemo/contracts/RoleManagement.sol\":2803:2834  activeMembers[_address] = false */\n      0x0100\n      exp\n      dup2\n      sload\n      dup2\n      0xff\n      mul\n      not\n      and\n      swap1\n      dup4\n      iszero\n      iszero\n      mul\n      or\n      swap1\n      sstore\n      pop\n        /* \"OnDemo/contracts/RoleManagement.sol\":1620:1621  _ */\n      pop\n        /* \"OnDemo/contracts/RoleManagement.sol\":2593:2842  function makeAccountPassive(address _address) public userExists(_address){\r... */\n      pop\n      pop\n      jump\t// out\n        /* \"OnDemo/contracts/RoleManagement.sol\":699:744  mapping(address => bool) public activeMembers */\n    tag_33:\n      mstore(0x20, 0x02)\n      dup1\n      0x00\n      mstore\n      keccak256(0x00, 0x40)\n      0x00\n      swap2\n      pop\n      sload\n      swap1\n      0x0100\n      exp\n      swap1\n      div\n      0xff\n      and\n      dup2\n      jump\t// out\n        /* \"OnDemo/contracts/RoleManagement.sol\":2999:3562  function assignRole(address _address, Role _role) public onlyLeader userExists(_address){\r... */\n    tag_38:\n        /* \"OnDemo/contracts/RoleManagement.sol\":1385:1390  owner */\n      0x00\n      dup1\n      sload\n      swap1\n      0x0100\n      exp\n      swap1\n      div\n      0xffffffffffffffffffffffffffffffffffffffff\n      and\n        /* \"OnDemo/contracts/RoleManagement.sol\":1371:1390  msg.sender == owner */\n      0xffffffffffffffffffffffffffffffffffffffff\n      and\n        /* \"OnDemo/contracts/RoleManagement.sol\":1371:1381  msg.sender */\n      caller\n        /* \"OnDemo/contracts/RoleManagement.sol\":1371:1390  msg.sender == owner */\n      0xffffffffffffffffffffffffffffffffffffffff\n      and\n      eq\n        /* \"OnDemo/contracts/RoleManagement.sol\":1371:1419  msg.sender == owner || hasLeaderRole(msg.sender) */\n      dup1\n      tag_80\n      jumpi\n      pop\n        /* \"OnDemo/contracts/RoleManagement.sol\":1394:1419  hasLeaderRole(msg.sender) */\n      tag_81\n        /* \"OnDemo/contracts/RoleManagement.sol\":1408:1418  msg.sender */\n      caller\n        /* \"OnDemo/contracts/RoleManagement.sol\":1394:1407  hasLeaderRole */\n      tag_26\n        /* \"OnDemo/contracts/RoleManagement.sol\":1394:1419  hasLeaderRole(msg.sender) */\n      jump\t// in\n    tag_81:\n        /* \"OnDemo/contracts/RoleManagement.sol\":1371:1419  msg.sender == owner || hasLeaderRole(msg.sender) */\n    tag_80:\n        /* \"OnDemo/contracts/RoleManagement.sol\":1363:1458  require(msg.sender == owner || hasLeaderRole(msg.sender), \"Only owner can call this function.\") */\n      tag_82\n      jumpi\n      mload(0x40)\n      0x08c379a000000000000000000000000000000000000000000000000000000000\n      dup2\n      mstore\n      0x04\n      add\n      tag_83\n      swap1\n      tag_84\n      jump\t// in\n    tag_83:\n      mload(0x40)\n      dup1\n      swap2\n      sub\n      swap1\n      revert\n    tag_82:\n        /* \"OnDemo/contracts/RoleManagement.sol\":3078:3086  _address */\n      dup2\n        /* \"OnDemo/contracts/RoleManagement.sol\":1581:1582  0 */\n      0x00\n        /* \"OnDemo/contracts/RoleManagement.sol\":1542:1583  users[_address].userAddress != address(0) */\n      0xffffffffffffffffffffffffffffffffffffffff\n      and\n        /* \"OnDemo/contracts/RoleManagement.sol\":1542:1547  users */\n      0x01\n        /* \"OnDemo/contracts/RoleManagement.sol\":1542:1557  users[_address] */\n      0x00\n        /* \"OnDemo/contracts/RoleManagement.sol\":1548:1556  _address */\n      dup4\n        /* \"OnDemo/contracts/RoleManagement.sol\":1542:1557  users[_address] */\n      0xffffffffffffffffffffffffffffffffffffffff\n      and\n      0xffffffffffffffffffffffffffffffffffffffff\n      and\n      dup2\n      mstore\n      0x20\n      add\n      swap1\n      dup2\n      mstore\n      0x20\n      add\n      0x00\n      keccak256\n        /* \"OnDemo/contracts/RoleManagement.sol\":1542:1569  users[_address].userAddress */\n      0x00\n      add\n      0x00\n      swap1\n      sload\n      swap1\n      0x0100\n      exp\n      swap1\n      div\n      0xffffffffffffffffffffffffffffffffffffffff\n      and\n        /* \"OnDemo/contracts/RoleManagement.sol\":1542:1583  users[_address].userAddress != address(0) */\n      0xffffffffffffffffffffffffffffffffffffffff\n      and\n      eq\n      iszero\n        /* \"OnDemo/contracts/RoleManagement.sol\":1534:1609  require(users[_address].userAddress != address(0), \"Account doesn't exist\") */\n      tag_86\n      jumpi\n      mload(0x40)\n      0x08c379a000000000000000000000000000000000000000000000000000000000\n      dup2\n      mstore\n      0x04\n      add\n      tag_87\n      swap1\n      tag_77\n      jump\t// in\n    tag_87:\n      mload(0x40)\n      dup1\n      swap2\n      sub\n      swap1\n      revert\n    tag_86:\n        /* \"OnDemo/contracts/RoleManagement.sol\":3098:3115  User storage user */\n      0x00\n        /* \"OnDemo/contracts/RoleManagement.sol\":3118:3123  users */\n      0x01\n        /* \"OnDemo/contracts/RoleManagement.sol\":3118:3133  users[_address] */\n      0x00\n        /* \"OnDemo/contracts/RoleManagement.sol\":3124:3132  _address */\n      dup6\n        /* \"OnDemo/contracts/RoleManagement.sol\":3118:3133  users[_address] */\n      0xffffffffffffffffffffffffffffffffffffffff\n      and\n      0xffffffffffffffffffffffffffffffffffffffff\n      and\n      dup2\n      mstore\n      0x20\n      add\n      swap1\n      dup2\n      mstore\n      0x20\n      add\n      0x00\n      keccak256\n        /* \"OnDemo/contracts/RoleManagement.sol\":3098:3133  User storage user = users[_address] */\n      swap1\n      pop\n        /* \"OnDemo/contracts/RoleManagement.sol\":3144:3167  RoleMap storage roleMap */\n      0x00\n        /* \"OnDemo/contracts/RoleManagement.sol\":3170:3174  user */\n      dup2\n        /* \"OnDemo/contracts/RoleManagement.sol\":3170:3182  user.roleMap */\n      0x05\n      add\n        /* \"OnDemo/contracts/RoleManagement.sol\":3144:3182  RoleMap storage roleMap = user.roleMap */\n      swap1\n      pop\n        /* \"OnDemo/contracts/RoleManagement.sol\":3207:3218  Role.LEADER */\n      0x00\n        /* \"OnDemo/contracts/RoleManagement.sol\":3198:3218  _role == Role.LEADER */\n      0x03\n      dup2\n      gt\n      iszero\n      tag_89\n      jumpi\n      mstore(0x00, 0x4e487b7100000000000000000000000000000000000000000000000000000000)\n      mstore(0x04, 0x21)\n      revert(0x00, 0x24)\n    tag_89:\n        /* \"OnDemo/contracts/RoleManagement.sol\":3198:3203  _role */\n      dup5\n        /* \"OnDemo/contracts/RoleManagement.sol\":3198:3218  _role == Role.LEADER */\n      0x03\n      dup2\n      gt\n      iszero\n      tag_90\n      jumpi\n      mstore(0x00, 0x4e487b7100000000000000000000000000000000000000000000000000000000)\n      mstore(0x04, 0x21)\n      revert(0x00, 0x24)\n    tag_90:\n      eq\n        /* \"OnDemo/contracts/RoleManagement.sol\":3195:3555  if(_role == Role.LEADER){\r... */\n      iszero\n      tag_91\n      jumpi\n        /* \"OnDemo/contracts/RoleManagement.sol\":3253:3257  true */\n      0x01\n        /* \"OnDemo/contracts/RoleManagement.sol\":3234:3241  roleMap */\n      dup2\n        /* \"OnDemo/contracts/RoleManagement.sol\":3234:3250  roleMap.isLeader */\n      0x00\n      add\n      0x00\n        /* \"OnDemo/contracts/RoleManagement.sol\":3234:3257  roleMap.isLeader = true */\n      0x0100\n      exp\n      dup2\n      sload\n      dup2\n      0xff\n      mul\n      not\n      and\n      swap1\n      dup4\n      iszero\n      iszero\n      mul\n      or\n      swap1\n      sstore\n      pop\n        /* \"OnDemo/contracts/RoleManagement.sol\":3195:3555  if(_role == Role.LEADER){\r... */\n      jump(tag_92)\n    tag_91:\n        /* \"OnDemo/contracts/RoleManagement.sol\":3296:3314  Role.COUNCILMEMBER */\n      0x01\n        /* \"OnDemo/contracts/RoleManagement.sol\":3287:3314  _role == Role.COUNCILMEMBER */\n      0x03\n      dup2\n      gt\n      iszero\n      tag_93\n      jumpi\n      mstore(0x00, 0x4e487b7100000000000000000000000000000000000000000000000000000000)\n      mstore(0x04, 0x21)\n      revert(0x00, 0x24)\n    tag_93:\n        /* \"OnDemo/contracts/RoleManagement.sol\":3287:3292  _role */\n      dup5\n        /* \"OnDemo/contracts/RoleManagement.sol\":3287:3314  _role == Role.COUNCILMEMBER */\n      0x03\n      dup2\n      gt\n      iszero\n      tag_94\n      jumpi\n      mstore(0x00, 0x4e487b7100000000000000000000000000000000000000000000000000000000)\n      mstore(0x04, 0x21)\n      revert(0x00, 0x24)\n    tag_94:\n      eq\n        /* \"OnDemo/contracts/RoleManagement.sol\":3284:3555  if(_role == Role.COUNCILMEMBER){\r... */\n      iszero\n      tag_95\n      jumpi\n        /* \"OnDemo/contracts/RoleManagement.sol\":3356:3360  true */\n      0x01\n        /* \"OnDemo/contracts/RoleManagement.sol\":3330:3337  roleMap */\n      dup2\n        /* \"OnDemo/contracts/RoleManagement.sol\":3330:3353  roleMap.isCouncilMember */\n      0x00\n      add\n      0x01\n        /* \"OnDemo/contracts/RoleManagement.sol\":3330:3360  roleMap.isCouncilMember = true */\n      0x0100\n      exp\n      dup2\n      sload\n      dup2\n      0xff\n      mul\n      not\n      and\n      swap1\n      dup4\n      iszero\n      iszero\n      mul\n      or\n      swap1\n      sstore\n      pop\n        /* \"OnDemo/contracts/RoleManagement.sol\":3284:3555  if(_role == Role.COUNCILMEMBER){\r... */\n      jump(tag_96)\n    tag_95:\n        /* \"OnDemo/contracts/RoleManagement.sol\":3406:3417  Role.MEMBER */\n      0x02\n        /* \"OnDemo/contracts/RoleManagement.sol\":3397:3417  _role == Role.MEMBER */\n      0x03\n      dup2\n      gt\n      iszero\n      tag_97\n      jumpi\n      mstore(0x00, 0x4e487b7100000000000000000000000000000000000000000000000000000000)\n      mstore(0x04, 0x21)\n      revert(0x00, 0x24)\n    tag_97:\n        /* \"OnDemo/contracts/RoleManagement.sol\":3397:3402  _role */\n      dup5\n        /* \"OnDemo/contracts/RoleManagement.sol\":3397:3417  _role == Role.MEMBER */\n      0x03\n      dup2\n      gt\n      iszero\n      tag_98\n      jumpi\n      mstore(0x00, 0x4e487b7100000000000000000000000000000000000000000000000000000000)\n      mstore(0x04, 0x21)\n      revert(0x00, 0x24)\n    tag_98:\n      eq\n        /* \"OnDemo/contracts/RoleManagement.sol\":3394:3555  if(_role == Role.MEMBER){\r... */\n      iszero\n      tag_99\n      jumpi\n        /* \"OnDemo/contracts/RoleManagement.sol\":3452:3456  true */\n      0x01\n        /* \"OnDemo/contracts/RoleManagement.sol\":3433:3440  roleMap */\n      dup2\n        /* \"OnDemo/contracts/RoleManagement.sol\":3433:3449  roleMap.isMember */\n      0x00\n      add\n      0x02\n        /* \"OnDemo/contracts/RoleManagement.sol\":3433:3456  roleMap.isMember = true */\n      0x0100\n      exp\n      dup2\n      sload\n      dup2\n      0xff\n      mul\n      not\n      and\n      swap1\n      dup4\n      iszero\n      iszero\n      mul\n      or\n      swap1\n      sstore\n      pop\n        /* \"OnDemo/contracts/RoleManagement.sol\":3394:3555  if(_role == Role.MEMBER){\r... */\n      jump(tag_100)\n    tag_99:\n        /* \"OnDemo/contracts/RoleManagement.sol\":3495:3505  Role.GUEST */\n      0x03\n        /* \"OnDemo/contracts/RoleManagement.sol\":3486:3505  _role == Role.GUEST */\n      dup1\n      dup2\n      gt\n      iszero\n      tag_101\n      jumpi\n      mstore(0x00, 0x4e487b7100000000000000000000000000000000000000000000000000000000)\n      mstore(0x04, 0x21)\n      revert(0x00, 0x24)\n    tag_101:\n        /* \"OnDemo/contracts/RoleManagement.sol\":3486:3491  _role */\n      dup5\n        /* \"OnDemo/contracts/RoleManagement.sol\":3486:3505  _role == Role.GUEST */\n      0x03\n      dup2\n      gt\n      iszero\n      tag_102\n      jumpi\n      mstore(0x00, 0x4e487b7100000000000000000000000000000000000000000000000000000000)\n      mstore(0x04, 0x21)\n      revert(0x00, 0x24)\n    tag_102:\n      eq\n        /* \"OnDemo/contracts/RoleManagement.sol\":3483:3555  if(_role == Role.GUEST){\r... */\n      iszero\n      tag_103\n      jumpi\n        /* \"OnDemo/contracts/RoleManagement.sol\":3539:3543  true */\n      0x01\n        /* \"OnDemo/contracts/RoleManagement.sol\":3521:3528  roleMap */\n      dup2\n        /* \"OnDemo/contracts/RoleManagement.sol\":3521:3536  roleMap.isGuest */\n      0x00\n      add\n      0x03\n        /* \"OnDemo/contracts/RoleManagement.sol\":3521:3543  roleMap.isGuest = true */\n      0x0100\n      exp\n      dup2\n      sload\n      dup2\n      0xff\n      mul\n      not\n      and\n      swap1\n      dup4\n      iszero\n      iszero\n      mul\n      or\n      swap1\n      sstore\n      pop\n        /* \"OnDemo/contracts/RoleManagement.sol\":3483:3555  if(_role == Role.GUEST){\r... */\n    tag_103:\n        /* \"OnDemo/contracts/RoleManagement.sol\":3394:3555  if(_role == Role.MEMBER){\r... */\n    tag_100:\n        /* \"OnDemo/contracts/RoleManagement.sol\":3284:3555  if(_role == Role.COUNCILMEMBER){\r... */\n    tag_96:\n        /* \"OnDemo/contracts/RoleManagement.sol\":3195:3555  if(_role == Role.LEADER){\r... */\n    tag_92:\n        /* \"OnDemo/contracts/RoleManagement.sol\":1620:1621  _ */\n      pop\n      pop\n        /* \"OnDemo/contracts/RoleManagement.sol\":1469:1470  _ */\n      pop\n        /* \"OnDemo/contracts/RoleManagement.sol\":2999:3562  function assignRole(address _address, Role _role) public onlyLeader userExists(_address){\r... */\n      pop\n      pop\n      jump\t// out\n        /* \"OnDemo/contracts/RoleManagement.sol\":604:624  address public owner */\n    tag_40:\n      0x00\n      dup1\n      sload\n      swap1\n      0x0100\n      exp\n      swap1\n      div\n      0xffffffffffffffffffffffffffffffffffffffff\n      and\n      dup2\n      jump\t// out\n        /* \"OnDemo/contracts/RoleManagement.sol\":2193:2585  function makeAccountActive(address _address) public userExists(_address){\r... */\n    tag_45:\n        /* \"OnDemo/contracts/RoleManagement.sol\":2256:2264  _address */\n      dup1\n        /* \"OnDemo/contracts/RoleManagement.sol\":1581:1582  0 */\n      0x00\n        /* \"OnDemo/contracts/RoleManagement.sol\":1542:1583  users[_address].userAddress != address(0) */\n      0xffffffffffffffffffffffffffffffffffffffff\n      and\n        /* \"OnDemo/contracts/RoleManagement.sol\":1542:1547  users */\n      0x01\n        /* \"OnDemo/contracts/RoleManagement.sol\":1542:1557  users[_address] */\n      0x00\n        /* \"OnDemo/contracts/RoleManagement.sol\":1548:1556  _address */\n      dup4\n        /* \"OnDemo/contracts/RoleManagement.sol\":1542:1557  users[_address] */\n      0xffffffffffffffffffffffffffffffffffffffff\n      and\n      0xffffffffffffffffffffffffffffffffffffffff\n      and\n      dup2\n      mstore\n      0x20\n      add\n      swap1\n      dup2\n      mstore\n      0x20\n      add\n      0x00\n      keccak256\n        /* \"OnDemo/contracts/RoleManagement.sol\":1542:1569  users[_address].userAddress */\n      0x00\n      add\n      0x00\n      swap1\n      sload\n      swap1\n      0x0100\n      exp\n      swap1\n      div\n      0xffffffffffffffffffffffffffffffffffffffff\n      and\n        /* \"OnDemo/contracts/RoleManagement.sol\":1542:1583  users[_address].userAddress != address(0) */\n      0xffffffffffffffffffffffffffffffffffffffff\n      and\n      eq\n      iszero\n        /* \"OnDemo/contracts/RoleManagement.sol\":1534:1609  require(users[_address].userAddress != address(0), \"Account doesn't exist\") */\n      tag_105\n      jumpi\n      mload(0x40)\n      0x08c379a000000000000000000000000000000000000000000000000000000000\n      dup2\n      mstore\n      0x04\n      add\n      tag_106\n      swap1\n      tag_77\n      jump\t// in\n    tag_106:\n      mload(0x40)\n      dup1\n      swap2\n      sub\n      swap1\n      revert\n    tag_105:\n        /* \"OnDemo/contracts/RoleManagement.sol\":2276:2293  User storage user */\n      0x00\n        /* \"OnDemo/contracts/RoleManagement.sol\":2296:2301  users */\n      0x01\n        /* \"OnDemo/contracts/RoleManagement.sol\":2296:2311  users[_address] */\n      0x00\n        /* \"OnDemo/contracts/RoleManagement.sol\":2302:2310  _address */\n      dup5\n        /* \"OnDemo/contracts/RoleManagement.sol\":2296:2311  users[_address] */\n      0xffffffffffffffffffffffffffffffffffffffff\n      and\n      0xffffffffffffffffffffffffffffffffffffffff\n      and\n      dup2\n      mstore\n      0x20\n      add\n      swap1\n      dup2\n      mstore\n      0x20\n      add\n      0x00\n      keccak256\n        /* \"OnDemo/contracts/RoleManagement.sol\":2276:2311  User storage user = users[_address] */\n      swap1\n      pop\n        /* \"OnDemo/contracts/RoleManagement.sol\":2338:2342  true */\n      0x01\n        /* \"OnDemo/contracts/RoleManagement.sol\":2322:2326  user */\n      dup2\n        /* \"OnDemo/contracts/RoleManagement.sol\":2322:2335  user.isActive */\n      0x04\n      add\n      0x00\n        /* \"OnDemo/contracts/RoleManagement.sol\":2322:2342  user.isActive = true */\n      0x0100\n      exp\n      dup2\n      sload\n      dup2\n      0xff\n      mul\n      not\n      and\n      swap1\n      dup4\n      iszero\n      iszero\n      mul\n      or\n      swap1\n      sstore\n      pop\n        /* \"OnDemo/contracts/RoleManagement.sol\":2396:2418  RoleMap memory roleMap */\n      0x00\n        /* \"OnDemo/contracts/RoleManagement.sol\":2421:2425  user */\n      dup2\n        /* \"OnDemo/contracts/RoleManagement.sol\":2421:2433  user.roleMap */\n      0x05\n      add\n        /* \"OnDemo/contracts/RoleManagement.sol\":2396:2433  RoleMap memory roleMap = user.roleMap */\n      mload(0x40)\n      dup1\n      0x80\n      add\n      0x40\n      mstore\n      swap1\n      dup2\n      0x00\n      dup3\n      add\n      0x00\n      swap1\n      sload\n      swap1\n      0x0100\n      exp\n      swap1\n      div\n      0xff\n      and\n      iszero\n      iszero\n      iszero\n      iszero\n      dup2\n      mstore\n      0x20\n      add\n      0x00\n      dup3\n      add\n      0x01\n      swap1\n      sload\n      swap1\n      0x0100\n      exp\n      swap1\n      div\n      0xff\n      and\n      iszero\n      iszero\n      iszero\n      iszero\n      dup2\n      mstore\n      0x20\n      add\n      0x00\n      dup3\n      add\n      0x02\n      swap1\n      sload\n      swap1\n      0x0100\n      exp\n      swap1\n      div\n      0xff\n      and\n      iszero\n      iszero\n      iszero\n      iszero\n      dup2\n      mstore\n      0x20\n      add\n      0x00\n      dup3\n      add\n      0x03\n      swap1\n      sload\n      swap1\n      0x0100\n      exp\n      swap1\n      div\n      0xff\n      and\n      iszero\n      iszero\n      iszero\n      iszero\n      dup2\n      mstore\n      pop\n      pop\n      swap1\n      pop\n        /* \"OnDemo/contracts/RoleManagement.sol\":2447:2454  roleMap */\n      dup1\n        /* \"OnDemo/contracts/RoleManagement.sol\":2447:2463  roleMap.isLeader */\n      0x00\n      add\n      mload\n        /* \"OnDemo/contracts/RoleManagement.sol\":2447:2490  roleMap.isLeader || roleMap.isCouncilMember */\n      dup1\n      tag_108\n      jumpi\n      pop\n        /* \"OnDemo/contracts/RoleManagement.sol\":2467:2474  roleMap */\n      dup1\n        /* \"OnDemo/contracts/RoleManagement.sol\":2467:2490  roleMap.isCouncilMember */\n      0x20\n      add\n      mload\n        /* \"OnDemo/contracts/RoleManagement.sol\":2447:2490  roleMap.isLeader || roleMap.isCouncilMember */\n    tag_108:\n        /* \"OnDemo/contracts/RoleManagement.sol\":2447:2510  roleMap.isLeader || roleMap.isCouncilMember || roleMap.isMember */\n      dup1\n      tag_109\n      jumpi\n      pop\n        /* \"OnDemo/contracts/RoleManagement.sol\":2494:2501  roleMap */\n      dup1\n        /* \"OnDemo/contracts/RoleManagement.sol\":2494:2510  roleMap.isMember */\n      0x40\n      add\n      mload\n        /* \"OnDemo/contracts/RoleManagement.sol\":2447:2510  roleMap.isLeader || roleMap.isCouncilMember || roleMap.isMember */\n    tag_109:\n        /* \"OnDemo/contracts/RoleManagement.sol\":2444:2578  if(roleMap.isLeader || roleMap.isCouncilMember || roleMap.isMember)\r... */\n      iszero\n      tag_110\n      jumpi\n        /* \"OnDemo/contracts/RoleManagement.sol\":2562:2566  true */\n      0x01\n        /* \"OnDemo/contracts/RoleManagement.sol\":2536:2549  activeMembers */\n      0x02\n        /* \"OnDemo/contracts/RoleManagement.sol\":2536:2559  activeMembers[_address] */\n      0x00\n        /* \"OnDemo/contracts/RoleManagement.sol\":2550:2558  _address */\n      dup7\n        /* \"OnDemo/contracts/RoleManagement.sol\":2536:2559  activeMembers[_address] */\n      0xffffffffffffffffffffffffffffffffffffffff\n      and\n      0xffffffffffffffffffffffffffffffffffffffff\n      and\n      dup2\n      mstore\n      0x20\n      add\n      swap1\n      dup2\n      mstore\n      0x20\n      add\n      0x00\n      keccak256\n      0x00\n        /* \"OnDemo/contracts/RoleManagement.sol\":2536:2566  activeMembers[_address] = true */\n      0x0100\n      exp\n      dup2\n      sload\n      dup2\n      0xff\n      mul\n      not\n      and\n      swap1\n      dup4\n      iszero\n      iszero\n      mul\n      or\n      swap1\n      sstore\n      pop\n        /* \"OnDemo/contracts/RoleManagement.sol\":2444:2578  if(roleMap.isLeader || roleMap.isCouncilMember || roleMap.isMember)\r... */\n    tag_110:\n        /* \"OnDemo/contracts/RoleManagement.sol\":1620:1621  _ */\n      pop\n      pop\n        /* \"OnDemo/contracts/RoleManagement.sol\":2193:2585  function makeAccountActive(address _address) public userExists(_address){\r... */\n      pop\n      pop\n      jump\t// out\n        /* \"OnDemo/contracts/RoleManagement.sol\":631:668  mapping(address => User) public users */\n    tag_48:\n      mstore(0x20, 0x01)\n      dup1\n      0x00\n      mstore\n      keccak256(0x00, 0x40)\n      0x00\n      swap2\n      pop\n      swap1\n      pop\n      dup1\n      0x00\n      add\n      0x00\n      swap1\n      sload\n      swap1\n      0x0100\n      exp\n      swap1\n      div\n      0xffffffffffffffffffffffffffffffffffffffff\n      and\n      swap1\n      dup1\n      0x01\n      add\n      dup1\n      sload\n      tag_111\n      swap1\n      tag_112\n      jump\t// in\n    tag_111:\n      dup1\n      0x1f\n      add\n      0x20\n      dup1\n      swap2\n      div\n      mul\n      0x20\n      add\n      mload(0x40)\n      swap1\n      dup2\n      add\n      0x40\n      mstore\n      dup1\n      swap3\n      swap2\n      swap1\n      dup2\n      dup2\n      mstore\n      0x20\n      add\n      dup3\n      dup1\n      sload\n      tag_113\n      swap1\n      tag_112\n      jump\t// in\n    tag_113:\n      dup1\n      iszero\n      tag_114\n      jumpi\n      dup1\n      0x1f\n      lt\n      tag_115\n      jumpi\n      0x0100\n      dup1\n      dup4\n      sload\n      div\n      mul\n      dup4\n      mstore\n      swap2\n      0x20\n      add\n      swap2\n      jump(tag_114)\n    tag_115:\n      dup3\n      add\n      swap2\n      swap1\n      0x00\n      mstore\n      keccak256(0x00, 0x20)\n      swap1\n    tag_116:\n      dup2\n      sload\n      dup2\n      mstore\n      swap1\n      0x01\n      add\n      swap1\n      0x20\n      add\n      dup1\n      dup4\n      gt\n      tag_116\n      jumpi\n      dup3\n      swap1\n      sub\n      0x1f\n      and\n      dup3\n      add\n      swap2\n    tag_114:\n      pop\n      pop\n      pop\n      pop\n      pop\n      swap1\n      dup1\n      0x02\n      add\n      dup1\n      sload\n      tag_117\n      swap1\n      tag_112\n      jump\t// in\n    tag_117:\n      dup1\n      0x1f\n      add\n      0x20\n      dup1\n      swap2\n      div\n      mul\n      0x20\n      add\n      mload(0x40)\n      swap1\n      dup2\n      add\n      0x40\n      mstore\n      dup1\n      swap3\n      swap2\n      swap1\n      dup2\n      dup2\n      mstore\n      0x20\n      add\n      dup3\n      dup1\n      sload\n      tag_118\n      swap1\n      tag_112\n      jump\t// in\n    tag_118:\n      dup1\n      iszero\n      tag_119\n      jumpi\n      dup1\n      0x1f\n      lt\n      tag_120\n      jumpi\n      0x0100\n      dup1\n      dup4\n      sload\n      div\n      mul\n      dup4\n      mstore\n      swap2\n      0x20\n      add\n      swap2\n      jump(tag_119)\n    tag_120:\n      dup3\n      add\n      swap2\n      swap1\n      0x00\n      mstore\n      keccak256(0x00, 0x20)\n      swap1\n    tag_121:\n      dup2\n      sload\n      dup2\n      mstore\n      swap1\n      0x01\n      add\n      swap1\n      0x20\n      add\n      dup1\n      dup4\n      gt\n      tag_121\n      jumpi\n      dup3\n      swap1\n      sub\n      0x1f\n      and\n      dup3\n      add\n      swap2\n    tag_119:\n      pop\n      pop\n      pop\n      pop\n      pop\n      swap1\n      dup1\n      0x03\n      add\n      dup1\n      sload\n      tag_122\n      swap1\n      tag_112\n      jump\t// in\n    tag_122:\n      dup1\n      0x1f\n      add\n      0x20\n      dup1\n      swap2\n      div\n      mul\n      0x20\n      add\n      mload(0x40)\n      swap1\n      dup2\n      add\n      0x40\n      mstore\n      dup1\n      swap3\n      swap2\n      swap1\n      dup2\n      dup2\n      mstore\n      0x20\n      add\n      dup3\n      dup1\n      sload\n      tag_123\n      swap1\n      tag_112\n      jump\t// in\n    tag_123:\n      dup1\n      iszero\n      tag_124\n      jumpi\n      dup1\n      0x1f\n      lt\n      tag_125\n      jumpi\n      0x0100\n      dup1\n      dup4\n      sload\n      div\n      mul\n      dup4\n      mstore\n      swap2\n      0x20\n      add\n      swap2\n      jump(tag_124)\n    tag_125:\n      dup3\n      add\n      swap2\n      swap1\n      0x00\n      mstore\n      keccak256(0x00, 0x20)\n      swap1\n    tag_126:\n      dup2\n      sload\n      dup2\n      mstore\n      swap1\n      0x01\n      add\n      swap1\n      0x20\n      add\n      dup1\n      dup4\n      gt\n      tag_126\n      jumpi\n      dup3\n      swap1\n      sub\n      0x1f\n      and\n      dup3\n      add\n      swap2\n    tag_124:\n      pop\n      pop\n      pop\n      pop\n      pop\n      swap1\n      dup1\n      0x04\n      add\n      0x00\n      swap1\n      sload\n      swap1\n      0x0100\n      exp\n      swap1\n      div\n      0xff\n      and\n      swap1\n      dup1\n      0x05\n      add\n      mload(0x40)\n      dup1\n      0x80\n      add\n      0x40\n      mstore\n      swap1\n      dup2\n      0x00\n      dup3\n      add\n      0x00\n      swap1\n      sload\n      swap1\n      0x0100\n      exp\n      swap1\n      div\n      0xff\n      and\n      iszero\n      iszero\n      iszero\n      iszero\n      dup2\n      mstore\n      0x20\n      add\n      0x00\n      dup3\n      add\n      0x01\n      swap1\n      sload\n      swap1\n      0x0100\n      exp\n      swap1\n      div\n      0xff\n      and\n      iszero\n      iszero\n      iszero\n      iszero\n      dup2\n      mstore\n      0x20\n      add\n      0x00\n      dup3\n      add\n      0x02\n      swap1\n      sload\n      swap1\n      0x0100\n      exp\n      swap1\n      div\n      0xff\n      and\n      iszero\n      iszero\n      iszero\n      iszero\n      dup2\n      mstore\n      0x20\n      add\n      0x00\n      dup3\n      add\n      0x03\n      swap1\n      sload\n      swap1\n      0x0100\n      exp\n      swap1\n      div\n      0xff\n      and\n      iszero\n      iszero\n      iszero\n      iszero\n      dup2\n      mstore\n      pop\n      pop\n      swap1\n      pop\n      dup7\n      jump\t// out\n        /* \"OnDemo/contracts/RoleManagement.sol\":3570:4349  function removeRole(address _address, Role _role) public onlyLeader userExists(_address){\r... */\n    tag_53:\n        /* \"OnDemo/contracts/RoleManagement.sol\":1385:1390  owner */\n      0x00\n      dup1\n      sload\n      swap1\n      0x0100\n      exp\n      swap1\n      div\n      0xffffffffffffffffffffffffffffffffffffffff\n      and\n        /* \"OnDemo/contracts/RoleManagement.sol\":1371:1390  msg.sender == owner */\n      0xffffffffffffffffffffffffffffffffffffffff\n      and\n        /* \"OnDemo/contracts/RoleManagement.sol\":1371:1381  msg.sender */\n      caller\n        /* \"OnDemo/contracts/RoleManagement.sol\":1371:1390  msg.sender == owner */\n      0xffffffffffffffffffffffffffffffffffffffff\n      and\n      eq\n        /* \"OnDemo/contracts/RoleManagement.sol\":1371:1419  msg.sender == owner || hasLeaderRole(msg.sender) */\n      dup1\n      tag_128\n      jumpi\n      pop\n        /* \"OnDemo/contracts/RoleManagement.sol\":1394:1419  hasLeaderRole(msg.sender) */\n      tag_129\n        /* \"OnDemo/contracts/RoleManagement.sol\":1408:1418  msg.sender */\n      caller\n        /* \"OnDemo/contracts/RoleManagement.sol\":1394:1407  hasLeaderRole */\n      tag_26\n        /* \"OnDemo/contracts/RoleManagement.sol\":1394:1419  hasLeaderRole(msg.sender) */\n      jump\t// in\n    tag_129:\n        /* \"OnDemo/contracts/RoleManagement.sol\":1371:1419  msg.sender == owner || hasLeaderRole(msg.sender) */\n    tag_128:\n        /* \"OnDemo/contracts/RoleManagement.sol\":1363:1458  require(msg.sender == owner || hasLeaderRole(msg.sender), \"Only owner can call this function.\") */\n      tag_130\n      jumpi\n      mload(0x40)\n      0x08c379a000000000000000000000000000000000000000000000000000000000\n      dup2\n      mstore\n      0x04\n      add\n      tag_131\n      swap1\n      tag_84\n      jump\t// in\n    tag_131:\n      mload(0x40)\n      dup1\n      swap2\n      sub\n      swap1\n      revert\n    tag_130:\n        /* \"OnDemo/contracts/RoleManagement.sol\":3649:3657  _address */\n      dup2\n        /* \"OnDemo/contracts/RoleManagement.sol\":1581:1582  0 */\n      0x00\n        /* \"OnDemo/contracts/RoleManagement.sol\":1542:1583  users[_address].userAddress != address(0) */\n      0xffffffffffffffffffffffffffffffffffffffff\n      and\n        /* \"OnDemo/contracts/RoleManagement.sol\":1542:1547  users */\n      0x01\n        /* \"OnDemo/contracts/RoleManagement.sol\":1542:1557  users[_address] */\n      0x00\n        /* \"OnDemo/contracts/RoleManagement.sol\":1548:1556  _address */\n      dup4\n        /* \"OnDemo/contracts/RoleManagement.sol\":1542:1557  users[_address] */\n      0xffffffffffffffffffffffffffffffffffffffff\n      and\n      0xffffffffffffffffffffffffffffffffffffffff\n      and\n      dup2\n      mstore\n      0x20\n      add\n      swap1\n      dup2\n      mstore\n      0x20\n      add\n      0x00\n      keccak256\n        /* \"OnDemo/contracts/RoleManagement.sol\":1542:1569  users[_address].userAddress */\n      0x00\n      add\n      0x00\n      swap1\n      sload\n      swap1\n      0x0100\n      exp\n      swap1\n      div\n      0xffffffffffffffffffffffffffffffffffffffff\n      and\n        /* \"OnDemo/contracts/RoleManagement.sol\":1542:1583  users[_address].userAddress != address(0) */\n      0xffffffffffffffffffffffffffffffffffffffff\n      and\n      eq\n      iszero\n        /* \"OnDemo/contracts/RoleManagement.sol\":1534:1609  require(users[_address].userAddress != address(0), \"Account doesn't exist\") */\n      tag_133\n      jumpi\n      mload(0x40)\n      0x08c379a000000000000000000000000000000000000000000000000000000000\n      dup2\n      mstore\n      0x04\n      add\n      tag_134\n      swap1\n      tag_77\n      jump\t// in\n    tag_134:\n      mload(0x40)\n      dup1\n      swap2\n      sub\n      swap1\n      revert\n    tag_133:\n        /* \"OnDemo/contracts/RoleManagement.sol\":3669:3686  User storage user */\n      0x00\n        /* \"OnDemo/contracts/RoleManagement.sol\":3689:3694  users */\n      0x01\n        /* \"OnDemo/contracts/RoleManagement.sol\":3689:3704  users[_address] */\n      0x00\n        /* \"OnDemo/contracts/RoleManagement.sol\":3695:3703  _address */\n      dup6\n        /* \"OnDemo/contracts/RoleManagement.sol\":3689:3704  users[_address] */\n      0xffffffffffffffffffffffffffffffffffffffff\n      and\n      0xffffffffffffffffffffffffffffffffffffffff\n      and\n      dup2\n      mstore\n      0x20\n      add\n      swap1\n      dup2\n      mstore\n      0x20\n      add\n      0x00\n      keccak256\n        /* \"OnDemo/contracts/RoleManagement.sol\":3669:3704  User storage user = users[_address] */\n      swap1\n      pop\n        /* \"OnDemo/contracts/RoleManagement.sol\":3715:3738  RoleMap storage roleMap */\n      0x00\n        /* \"OnDemo/contracts/RoleManagement.sol\":3741:3745  user */\n      dup2\n        /* \"OnDemo/contracts/RoleManagement.sol\":3741:3753  user.roleMap */\n      0x05\n      add\n        /* \"OnDemo/contracts/RoleManagement.sol\":3715:3753  RoleMap storage roleMap = user.roleMap */\n      swap1\n      pop\n        /* \"OnDemo/contracts/RoleManagement.sol\":3778:3789  Role.LEADER */\n      0x00\n        /* \"OnDemo/contracts/RoleManagement.sol\":3769:3789  _role == Role.LEADER */\n      0x03\n      dup2\n      gt\n      iszero\n      tag_136\n      jumpi\n      mstore(0x00, 0x4e487b7100000000000000000000000000000000000000000000000000000000)\n      mstore(0x04, 0x21)\n      revert(0x00, 0x24)\n    tag_136:\n        /* \"OnDemo/contracts/RoleManagement.sol\":3769:3774  _role */\n      dup5\n        /* \"OnDemo/contracts/RoleManagement.sol\":3769:3789  _role == Role.LEADER */\n      0x03\n      dup2\n      gt\n      iszero\n      tag_137\n      jumpi\n      mstore(0x00, 0x4e487b7100000000000000000000000000000000000000000000000000000000)\n      mstore(0x04, 0x21)\n      revert(0x00, 0x24)\n    tag_137:\n      eq\n        /* \"OnDemo/contracts/RoleManagement.sol\":3766:4142  if(_role == Role.LEADER){\r... */\n      iszero\n      tag_138\n      jumpi\n        /* \"OnDemo/contracts/RoleManagement.sol\":3824:3829  false */\n      0x00\n        /* \"OnDemo/contracts/RoleManagement.sol\":3805:3812  roleMap */\n      dup2\n        /* \"OnDemo/contracts/RoleManagement.sol\":3805:3821  roleMap.isLeader */\n      0x00\n      add\n      0x00\n        /* \"OnDemo/contracts/RoleManagement.sol\":3805:3829  roleMap.isLeader = false */\n      0x0100\n      exp\n      dup2\n      sload\n      dup2\n      0xff\n      mul\n      not\n      and\n      swap1\n      dup4\n      iszero\n      iszero\n      mul\n      or\n      swap1\n      sstore\n      pop\n        /* \"OnDemo/contracts/RoleManagement.sol\":3766:4142  if(_role == Role.LEADER){\r... */\n      jump(tag_139)\n    tag_138:\n        /* \"OnDemo/contracts/RoleManagement.sol\":3868:3886  Role.COUNCILMEMBER */\n      0x01\n        /* \"OnDemo/contracts/RoleManagement.sol\":3859:3886  _role == Role.COUNCILMEMBER */\n      0x03\n      dup2\n      gt\n      iszero\n      tag_140\n      jumpi\n      mstore(0x00, 0x4e487b7100000000000000000000000000000000000000000000000000000000)\n      mstore(0x04, 0x21)\n      revert(0x00, 0x24)\n    tag_140:\n        /* \"OnDemo/contracts/RoleManagement.sol\":3859:3864  _role */\n      dup5\n        /* \"OnDemo/contracts/RoleManagement.sol\":3859:3886  _role == Role.COUNCILMEMBER */\n      0x03\n      dup2\n      gt\n      iszero\n      tag_141\n      jumpi\n      mstore(0x00, 0x4e487b7100000000000000000000000000000000000000000000000000000000)\n      mstore(0x04, 0x21)\n      revert(0x00, 0x24)\n    tag_141:\n      eq\n        /* \"OnDemo/contracts/RoleManagement.sol\":3856:4142  if(_role == Role.COUNCILMEMBER){\r... */\n      iszero\n      tag_142\n      jumpi\n        /* \"OnDemo/contracts/RoleManagement.sol\":3928:3933  false */\n      0x00\n        /* \"OnDemo/contracts/RoleManagement.sol\":3902:3909  roleMap */\n      dup2\n        /* \"OnDemo/contracts/RoleManagement.sol\":3902:3925  roleMap.isCouncilMember */\n      0x00\n      add\n      0x01\n        /* \"OnDemo/contracts/RoleManagement.sol\":3902:3933  roleMap.isCouncilMember = false */\n      0x0100\n      exp\n      dup2\n      sload\n      dup2\n      0xff\n      mul\n      not\n      and\n      swap1\n      dup4\n      iszero\n      iszero\n      mul\n      or\n      swap1\n      sstore\n      pop\n        /* \"OnDemo/contracts/RoleManagement.sol\":3856:4142  if(_role == Role.COUNCILMEMBER){\r... */\n      jump(tag_143)\n    tag_142:\n        /* \"OnDemo/contracts/RoleManagement.sol\":3979:3990  Role.MEMBER */\n      0x02\n        /* \"OnDemo/contracts/RoleManagement.sol\":3970:3990  _role == Role.MEMBER */\n      0x03\n      dup2\n      gt\n      iszero\n      tag_144\n      jumpi\n      mstore(0x00, 0x4e487b7100000000000000000000000000000000000000000000000000000000)\n      mstore(0x04, 0x21)\n      revert(0x00, 0x24)\n    tag_144:\n        /* \"OnDemo/contracts/RoleManagement.sol\":3970:3975  _role */\n      dup5\n        /* \"OnDemo/contracts/RoleManagement.sol\":3970:3990  _role == Role.MEMBER */\n      0x03\n      dup2\n      gt\n      iszero\n      tag_145\n      jumpi\n      mstore(0x00, 0x4e487b7100000000000000000000000000000000000000000000000000000000)\n      mstore(0x04, 0x21)\n      revert(0x00, 0x24)\n    tag_145:\n      eq\n        /* \"OnDemo/contracts/RoleManagement.sol\":3967:4142  if(_role == Role.MEMBER){\r... */\n      iszero\n      tag_146\n      jumpi\n        /* \"OnDemo/contracts/RoleManagement.sol\":4025:4030  false */\n      0x00\n        /* \"OnDemo/contracts/RoleManagement.sol\":4006:4013  roleMap */\n      dup2\n        /* \"OnDemo/contracts/RoleManagement.sol\":4006:4022  roleMap.isMember */\n      0x00\n      add\n      0x02\n        /* \"OnDemo/contracts/RoleManagement.sol\":4006:4030  roleMap.isMember = false */\n      0x0100\n      exp\n      dup2\n      sload\n      dup2\n      0xff\n      mul\n      not\n      and\n      swap1\n      dup4\n      iszero\n      iszero\n      mul\n      or\n      swap1\n      sstore\n      pop\n        /* \"OnDemo/contracts/RoleManagement.sol\":3967:4142  if(_role == Role.MEMBER){\r... */\n      jump(tag_147)\n    tag_146:\n        /* \"OnDemo/contracts/RoleManagement.sol\":4069:4079  Role.GUEST */\n      0x03\n        /* \"OnDemo/contracts/RoleManagement.sol\":4060:4079  _role == Role.GUEST */\n      dup1\n      dup2\n      gt\n      iszero\n      tag_148\n      jumpi\n      mstore(0x00, 0x4e487b7100000000000000000000000000000000000000000000000000000000)\n      mstore(0x04, 0x21)\n      revert(0x00, 0x24)\n    tag_148:\n        /* \"OnDemo/contracts/RoleManagement.sol\":4060:4065  _role */\n      dup5\n        /* \"OnDemo/contracts/RoleManagement.sol\":4060:4079  _role == Role.GUEST */\n      0x03\n      dup2\n      gt\n      iszero\n      tag_149\n      jumpi\n      mstore(0x00, 0x4e487b7100000000000000000000000000000000000000000000000000000000)\n      mstore(0x04, 0x21)\n      revert(0x00, 0x24)\n    tag_149:\n      eq\n        /* \"OnDemo/contracts/RoleManagement.sol\":4057:4142  if(_role == Role.GUEST){\r... */\n      iszero\n      tag_150\n      jumpi\n        /* \"OnDemo/contracts/RoleManagement.sol\":4113:4118  false */\n      0x00\n        /* \"OnDemo/contracts/RoleManagement.sol\":4095:4102  roleMap */\n      dup2\n        /* \"OnDemo/contracts/RoleManagement.sol\":4095:4110  roleMap.isGuest */\n      0x00\n      add\n      0x03\n        /* \"OnDemo/contracts/RoleManagement.sol\":4095:4118  roleMap.isGuest = false */\n      0x0100\n      exp\n      dup2\n      sload\n      dup2\n      0xff\n      mul\n      not\n      and\n      swap1\n      dup4\n      iszero\n      iszero\n      mul\n      or\n      swap1\n      sstore\n      pop\n        /* \"OnDemo/contracts/RoleManagement.sol\":4057:4142  if(_role == Role.GUEST){\r... */\n    tag_150:\n        /* \"OnDemo/contracts/RoleManagement.sol\":3967:4142  if(_role == Role.MEMBER){\r... */\n    tag_147:\n        /* \"OnDemo/contracts/RoleManagement.sol\":3856:4142  if(_role == Role.COUNCILMEMBER){\r... */\n    tag_143:\n        /* \"OnDemo/contracts/RoleManagement.sol\":3766:4142  if(_role == Role.LEADER){\r... */\n    tag_139:\n        /* \"OnDemo/contracts/RoleManagement.sol\":4158:4165  roleMap */\n      dup1\n        /* \"OnDemo/contracts/RoleManagement.sol\":4158:4174  roleMap.isLeader */\n      0x00\n      add\n      0x00\n      swap1\n      sload\n      swap1\n      0x0100\n      exp\n      swap1\n      div\n      0xff\n      and\n        /* \"OnDemo/contracts/RoleManagement.sol\":4157:4174  !roleMap.isLeader */\n      iszero\n        /* \"OnDemo/contracts/RoleManagement.sol\":4157:4202  !roleMap.isLeader && !roleMap.isCouncilMember */\n      dup1\n      iszero\n      tag_151\n      jumpi\n      pop\n        /* \"OnDemo/contracts/RoleManagement.sol\":4179:4186  roleMap */\n      dup1\n        /* \"OnDemo/contracts/RoleManagement.sol\":4179:4202  roleMap.isCouncilMember */\n      0x00\n      add\n      0x01\n      swap1\n      sload\n      swap1\n      0x0100\n      exp\n      swap1\n      div\n      0xff\n      and\n        /* \"OnDemo/contracts/RoleManagement.sol\":4178:4202  !roleMap.isCouncilMember */\n      iszero\n        /* \"OnDemo/contracts/RoleManagement.sol\":4157:4202  !roleMap.isLeader && !roleMap.isCouncilMember */\n    tag_151:\n        /* \"OnDemo/contracts/RoleManagement.sol\":4157:4223  !roleMap.isLeader && !roleMap.isCouncilMember && !roleMap.isMember */\n      dup1\n      iszero\n      tag_152\n      jumpi\n      pop\n        /* \"OnDemo/contracts/RoleManagement.sol\":4207:4214  roleMap */\n      dup1\n        /* \"OnDemo/contracts/RoleManagement.sol\":4207:4223  roleMap.isMember */\n      0x00\n      add\n      0x02\n      swap1\n      sload\n      swap1\n      0x0100\n      exp\n      swap1\n      div\n      0xff\n      and\n        /* \"OnDemo/contracts/RoleManagement.sol\":4206:4223  !roleMap.isMember */\n      iszero\n        /* \"OnDemo/contracts/RoleManagement.sol\":4157:4223  !roleMap.isLeader && !roleMap.isCouncilMember && !roleMap.isMember */\n    tag_152:\n        /* \"OnDemo/contracts/RoleManagement.sol\":4154:4342  if(!roleMap.isLeader && !roleMap.isCouncilMember && !roleMap.isMember)\r... */\n      iszero\n      tag_153\n      jumpi\n        /* \"OnDemo/contracts/RoleManagement.sol\":4325:4330  false */\n      0x00\n        /* \"OnDemo/contracts/RoleManagement.sol\":4299:4312  activeMembers */\n      0x02\n        /* \"OnDemo/contracts/RoleManagement.sol\":4299:4322  activeMembers[_address] */\n      0x00\n        /* \"OnDemo/contracts/RoleManagement.sol\":4313:4321  _address */\n      dup8\n        /* \"OnDemo/contracts/RoleManagement.sol\":4299:4322  activeMembers[_address] */\n      0xffffffffffffffffffffffffffffffffffffffff\n      and\n      0xffffffffffffffffffffffffffffffffffffffff\n      and\n      dup2\n      mstore\n      0x20\n      add\n      swap1\n      dup2\n      mstore\n      0x20\n      add\n      0x00\n      keccak256\n      0x00\n        /* \"OnDemo/contracts/RoleManagement.sol\":4299:4330  activeMembers[_address] = false */\n      0x0100\n      exp\n      dup2\n      sload\n      dup2\n      0xff\n      mul\n      not\n      and\n      swap1\n      dup4\n      iszero\n      iszero\n      mul\n      or\n      swap1\n      sstore\n      pop\n        /* \"OnDemo/contracts/RoleManagement.sol\":4154:4342  if(!roleMap.isLeader && !roleMap.isCouncilMember && !roleMap.isMember)\r... */\n    tag_153:\n        /* \"OnDemo/contracts/RoleManagement.sol\":1620:1621  _ */\n      pop\n      pop\n        /* \"OnDemo/contracts/RoleManagement.sol\":1469:1470  _ */\n      pop\n        /* \"OnDemo/contracts/RoleManagement.sol\":3570:4349  function removeRole(address _address, Role _role) public onlyLeader userExists(_address){\r... */\n      pop\n      pop\n      jump\t// out\n        /* \"OnDemo/contracts/RoleManagement.sol\":2850:2965  function burnAccount(address _address) public userExists(_address){\r... */\n    tag_56:\n        /* \"OnDemo/contracts/RoleManagement.sol\":2907:2915  _address */\n      dup1\n        /* \"OnDemo/contracts/RoleManagement.sol\":1581:1582  0 */\n      0x00\n        /* \"OnDemo/contracts/RoleManagement.sol\":1542:1583  users[_address].userAddress != address(0) */\n      0xffffffffffffffffffffffffffffffffffffffff\n      and\n        /* \"OnDemo/contracts/RoleManagement.sol\":1542:1547  users */\n      0x01\n        /* \"OnDemo/contracts/RoleManagement.sol\":1542:1557  users[_address] */\n      0x00\n        /* \"OnDemo/contracts/RoleManagement.sol\":1548:1556  _address */\n      dup4\n        /* \"OnDemo/contracts/RoleManagement.sol\":1542:1557  users[_address] */\n      0xffffffffffffffffffffffffffffffffffffffff\n      and\n      0xffffffffffffffffffffffffffffffffffffffff\n      and\n      dup2\n      mstore\n      0x20\n      add\n      swap1\n      dup2\n      mstore\n      0x20\n      add\n      0x00\n      keccak256\n        /* \"OnDemo/contracts/RoleManagement.sol\":1542:1569  users[_address].userAddress */\n      0x00\n      add\n      0x00\n      swap1\n      sload\n      swap1\n      0x0100\n      exp\n      swap1\n      div\n      0xffffffffffffffffffffffffffffffffffffffff\n      and\n        /* \"OnDemo/contracts/RoleManagement.sol\":1542:1583  users[_address].userAddress != address(0) */\n      0xffffffffffffffffffffffffffffffffffffffff\n      and\n      eq\n      iszero\n        /* \"OnDemo/contracts/RoleManagement.sol\":1534:1609  require(users[_address].userAddress != address(0), \"Account doesn't exist\") */\n      tag_155\n      jumpi\n      mload(0x40)\n      0x08c379a000000000000000000000000000000000000000000000000000000000\n      dup2\n      mstore\n      0x04\n      add\n      tag_156\n      swap1\n      tag_77\n      jump\t// in\n    tag_156:\n      mload(0x40)\n      dup1\n      swap2\n      sub\n      swap1\n      revert\n    tag_155:\n        /* \"OnDemo/contracts/RoleManagement.sol\":2934:2939  users */\n      0x01\n        /* \"OnDemo/contracts/RoleManagement.sol\":2934:2949  users[_address] */\n      0x00\n        /* \"OnDemo/contracts/RoleManagement.sol\":2940:2948  _address */\n      dup4\n        /* \"OnDemo/contracts/RoleManagement.sol\":2934:2949  users[_address] */\n      0xffffffffffffffffffffffffffffffffffffffff\n      and\n      0xffffffffffffffffffffffffffffffffffffffff\n      and\n      dup2\n      mstore\n      0x20\n      add\n      swap1\n      dup2\n      mstore\n      0x20\n      add\n      0x00\n      keccak256\n      0x00\n        /* \"OnDemo/contracts/RoleManagement.sol\":2927:2949  delete users[_address] */\n      dup1\n      dup3\n      add\n      exp(0x0100, 0x00)\n      dup2\n      sload\n      swap1\n      0xffffffffffffffffffffffffffffffffffffffff\n      mul\n      not\n      and\n      swap1\n      sstore\n      0x01\n      dup3\n      add\n      0x00\n      tag_158\n      swap2\n      swap1\n      tag_159\n      jump\t// in\n    tag_158:\n      0x02\n      dup3\n      add\n      0x00\n      tag_160\n      swap2\n      swap1\n      tag_159\n      jump\t// in\n    tag_160:\n      0x03\n      dup3\n      add\n      0x00\n      tag_161\n      swap2\n      swap1\n      tag_159\n      jump\t// in\n    tag_161:\n      0x04\n      dup3\n      add\n      exp(0x0100, 0x00)\n      dup2\n      sload\n      swap1\n      0xff\n      mul\n      not\n      and\n      swap1\n      sstore\n      0x05\n      dup3\n      add\n      0x00\n      dup1\n      dup3\n      add\n      exp(0x0100, 0x00)\n      dup2\n      sload\n      swap1\n      0xff\n      mul\n      not\n      and\n      swap1\n      sstore\n      0x00\n      dup3\n      add\n      exp(0x0100, 0x01)\n      dup2\n      sload\n      swap1\n      0xff\n      mul\n      not\n      and\n      swap1\n      sstore\n      0x00\n      dup3\n      add\n      exp(0x0100, 0x02)\n      dup2\n      sload\n      swap1\n      0xff\n      mul\n      not\n      and\n      swap1\n      sstore\n      0x00\n      dup3\n      add\n      exp(0x0100, 0x03)\n      dup2\n      sload\n      swap1\n      0xff\n      mul\n      not\n      and\n      swap1\n      sstore\n      pop\n      pop\n      pop\n      pop\n        /* \"OnDemo/contracts/RoleManagement.sol\":2850:2965  function burnAccount(address _address) public userExists(_address){\r... */\n      pop\n      pop\n      jump\t// out\n        /* \"OnDemo/contracts/RoleManagement.sol\":1821:2185  function createAccount(address _address, string memory _firstName, string memory _secondName, string memory _mailAdress) public userNotExists(_address){\r... */\n    tag_60:\n        /* \"OnDemo/contracts/RoleManagement.sol\":1963:1971  _address */\n      dup4\n        /* \"OnDemo/contracts/RoleManagement.sol\":1735:1736  0 */\n      0x00\n        /* \"OnDemo/contracts/RoleManagement.sol\":1696:1737  users[_address].userAddress == address(0) */\n      0xffffffffffffffffffffffffffffffffffffffff\n      and\n        /* \"OnDemo/contracts/RoleManagement.sol\":1696:1701  users */\n      0x01\n        /* \"OnDemo/contracts/RoleManagement.sol\":1696:1711  users[_address] */\n      0x00\n        /* \"OnDemo/contracts/RoleManagement.sol\":1702:1710  _address */\n      dup4\n        /* \"OnDemo/contracts/RoleManagement.sol\":1696:1711  users[_address] */\n      0xffffffffffffffffffffffffffffffffffffffff\n      and\n      0xffffffffffffffffffffffffffffffffffffffff\n      and\n      dup2\n      mstore\n      0x20\n      add\n      swap1\n      dup2\n      mstore\n      0x20\n      add\n      0x00\n      keccak256\n        /* \"OnDemo/contracts/RoleManagement.sol\":1696:1723  users[_address].userAddress */\n      0x00\n      add\n      0x00\n      swap1\n      sload\n      swap1\n      0x0100\n      exp\n      swap1\n      div\n      0xffffffffffffffffffffffffffffffffffffffff\n      and\n        /* \"OnDemo/contracts/RoleManagement.sol\":1696:1737  users[_address].userAddress == address(0) */\n      0xffffffffffffffffffffffffffffffffffffffff\n      and\n      eq\n        /* \"OnDemo/contracts/RoleManagement.sol\":1688:1764  require(users[_address].userAddress == address(0), \"Account already exists\") */\n      tag_163\n      jumpi\n      mload(0x40)\n      0x08c379a000000000000000000000000000000000000000000000000000000000\n      dup2\n      mstore\n      0x04\n      add\n      tag_164\n      swap1\n      tag_165\n      jump\t// in\n    tag_164:\n      mload(0x40)\n      dup1\n      swap2\n      sub\n      swap1\n      revert\n    tag_163:\n        /* \"OnDemo/contracts/RoleManagement.sol\":1983:2005  RoleMap memory roleMap */\n      0x00\n        /* \"OnDemo/contracts/RoleManagement.sol\":2008:2042  RoleMap(false, false, false, true) */\n      mload(0x40)\n      dup1\n      0x80\n      add\n      0x40\n      mstore\n      dup1\n        /* \"OnDemo/contracts/RoleManagement.sol\":2016:2021  false */\n      0x00\n        /* \"OnDemo/contracts/RoleManagement.sol\":2008:2042  RoleMap(false, false, false, true) */\n      iszero\n      iszero\n      dup2\n      mstore\n      0x20\n      add\n        /* \"OnDemo/contracts/RoleManagement.sol\":2023:2028  false */\n      0x00\n        /* \"OnDemo/contracts/RoleManagement.sol\":2008:2042  RoleMap(false, false, false, true) */\n      iszero\n      iszero\n      dup2\n      mstore\n      0x20\n      add\n        /* \"OnDemo/contracts/RoleManagement.sol\":2030:2035  false */\n      0x00\n        /* \"OnDemo/contracts/RoleManagement.sol\":2008:2042  RoleMap(false, false, false, true) */\n      iszero\n      iszero\n      dup2\n      mstore\n      0x20\n      add\n        /* \"OnDemo/contracts/RoleManagement.sol\":2037:2041  true */\n      0x01\n        /* \"OnDemo/contracts/RoleManagement.sol\":2008:2042  RoleMap(false, false, false, true) */\n      iszero\n      iszero\n      dup2\n      mstore\n      pop\n        /* \"OnDemo/contracts/RoleManagement.sol\":1983:2042  RoleMap memory roleMap = RoleMap(false, false, false, true) */\n      swap1\n      pop\n        /* \"OnDemo/contracts/RoleManagement.sol\":2053:2069  User memory user */\n      0x00\n        /* \"OnDemo/contracts/RoleManagement.sol\":2072:2139  User(_address, _firstName, _secondName, _mailAdress, true, roleMap) */\n      mload(0x40)\n      dup1\n      0xc0\n      add\n      0x40\n      mstore\n      dup1\n        /* \"OnDemo/contracts/RoleManagement.sol\":2077:2085  _address */\n      dup9\n        /* \"OnDemo/contracts/RoleManagement.sol\":2072:2139  User(_address, _firstName, _secondName, _mailAdress, true, roleMap) */\n      0xffffffffffffffffffffffffffffffffffffffff\n      and\n      dup2\n      mstore\n      0x20\n      add\n        /* \"OnDemo/contracts/RoleManagement.sol\":2087:2097  _firstName */\n      dup8\n        /* \"OnDemo/contracts/RoleManagement.sol\":2072:2139  User(_address, _firstName, _secondName, _mailAdress, true, roleMap) */\n      dup2\n      mstore\n      0x20\n      add\n        /* \"OnDemo/contracts/RoleManagement.sol\":2099:2110  _secondName */\n      dup7\n        /* \"OnDemo/contracts/RoleManagement.sol\":2072:2139  User(_address, _firstName, _secondName, _mailAdress, true, roleMap) */\n      dup2\n      mstore\n      0x20\n      add\n        /* \"OnDemo/contracts/RoleManagement.sol\":2112:2123  _mailAdress */\n      dup6\n        /* \"OnDemo/contracts/RoleManagement.sol\":2072:2139  User(_address, _firstName, _secondName, _mailAdress, true, roleMap) */\n      dup2\n      mstore\n      0x20\n      add\n        /* \"OnDemo/contracts/RoleManagement.sol\":2125:2129  true */\n      0x01\n        /* \"OnDemo/contracts/RoleManagement.sol\":2072:2139  User(_address, _firstName, _secondName, _mailAdress, true, roleMap) */\n      iszero\n      iszero\n      dup2\n      mstore\n      0x20\n      add\n        /* \"OnDemo/contracts/RoleManagement.sol\":2131:2138  roleMap */\n      dup4\n        /* \"OnDemo/contracts/RoleManagement.sol\":2072:2139  User(_address, _firstName, _secondName, _mailAdress, true, roleMap) */\n      dup2\n      mstore\n      pop\n        /* \"OnDemo/contracts/RoleManagement.sol\":2053:2139  User memory user = User(_address, _firstName, _secondName, _mailAdress, true, roleMap) */\n      swap1\n      pop\n        /* \"OnDemo/contracts/RoleManagement.sol\":2168:2172  user */\n      dup1\n        /* \"OnDemo/contracts/RoleManagement.sol\":2150:2155  users */\n      0x01\n        /* \"OnDemo/contracts/RoleManagement.sol\":2150:2165  users[_address] */\n      0x00\n        /* \"OnDemo/contracts/RoleManagement.sol\":2156:2164  _address */\n      dup10\n        /* \"OnDemo/contracts/RoleManagement.sol\":2150:2165  users[_address] */\n      0xffffffffffffffffffffffffffffffffffffffff\n      and\n      0xffffffffffffffffffffffffffffffffffffffff\n      and\n      dup2\n      mstore\n      0x20\n      add\n      swap1\n      dup2\n      mstore\n      0x20\n      add\n      0x00\n      keccak256\n        /* \"OnDemo/contracts/RoleManagement.sol\":2150:2172  users[_address] = user */\n      0x00\n      dup3\n      add\n      mload\n      dup2\n      0x00\n      add\n      exp(0x0100, 0x00)\n      dup2\n      sload\n      dup2\n      0xffffffffffffffffffffffffffffffffffffffff\n      mul\n      not\n      and\n      swap1\n      dup4\n      0xffffffffffffffffffffffffffffffffffffffff\n      and\n      mul\n      or\n      swap1\n      sstore\n      pop\n      0x20\n      dup3\n      add\n      mload\n      dup2\n      0x01\n      add\n      swap1\n      dup1\n      mload\n      swap1\n      0x20\n      add\n      swap1\n      tag_167\n      swap3\n      swap2\n      swap1\n      tag_168\n      jump\t// in\n    tag_167:\n      pop\n      0x40\n      dup3\n      add\n      mload\n      dup2\n      0x02\n      add\n      swap1\n      dup1\n      mload\n      swap1\n      0x20\n      add\n      swap1\n      tag_169\n      swap3\n      swap2\n      swap1\n      tag_168\n      jump\t// in\n    tag_169:\n      pop\n      0x60\n      dup3\n      add\n      mload\n      dup2\n      0x03\n      add\n      swap1\n      dup1\n      mload\n      swap1\n      0x20\n      add\n      swap1\n      tag_170\n      swap3\n      swap2\n      swap1\n      tag_168\n      jump\t// in\n    tag_170:\n      pop\n      0x80\n      dup3\n      add\n      mload\n      dup2\n      0x04\n      add\n      exp(0x0100, 0x00)\n      dup2\n      sload\n      dup2\n      0xff\n      mul\n      not\n      and\n      swap1\n      dup4\n      iszero\n      iszero\n      mul\n      or\n      swap1\n      sstore\n      pop\n      0xa0\n      dup3\n      add\n      mload\n      dup2\n      0x05\n      add\n      0x00\n      dup3\n      add\n      mload\n      dup2\n      0x00\n      add\n      exp(0x0100, 0x00)\n      dup2\n      sload\n      dup2\n      0xff\n      mul\n      not\n      and\n      swap1\n      dup4\n      iszero\n      iszero\n      mul\n      or\n      swap1\n      sstore\n      pop\n      0x20\n      dup3\n      add\n      mload\n      dup2\n      0x00\n      add\n      exp(0x0100, 0x01)\n      dup2\n      sload\n      dup2\n      0xff\n      mul\n      not\n      and\n      swap1\n      dup4\n      iszero\n      iszero\n      mul\n      or\n      swap1\n      sstore\n      pop\n      0x40\n      dup3\n      add\n      mload\n      dup2\n      0x00\n      add\n      exp(0x0100, 0x02)\n      dup2\n      sload\n      dup2\n      0xff\n      mul\n      not\n      and\n      swap1\n      dup4\n      iszero\n      iszero\n      mul\n      or\n      swap1\n      sstore\n      pop\n      0x60\n      dup3\n      add\n      mload\n      dup2\n      0x00\n      add\n      exp(0x0100, 0x03)\n      dup2\n      sload\n      dup2\n      0xff\n      mul\n      not\n      and\n      swap1\n      dup4\n      iszero\n      iszero\n      mul\n      or\n      swap1\n      sstore\n      pop\n      pop\n      pop\n      swap1\n      pop\n      pop\n        /* \"OnDemo/contracts/RoleManagement.sol\":1775:1776  _ */\n      pop\n      pop\n        /* \"OnDemo/contracts/RoleManagement.sol\":1821:2185  function createAccount(address _address, string memory _firstName, string memory _secondName, string memory _mailAdress) public userNotExists(_address){\r... */\n      pop\n      pop\n      pop\n      pop\n      pop\n      jump\t// out\n        /* \"OnDemo/contracts/RoleManagement.sol\":6597:6719  function hasGuestRole(address _address) public view returns (bool) {\r... */\n    tag_63:\n        /* \"OnDemo/contracts/RoleManagement.sol\":6658:6662  bool */\n      0x00\n        /* \"OnDemo/contracts/RoleManagement.sol\":6682:6711  hasRole(_address, Role.GUEST) */\n      tag_172\n        /* \"OnDemo/contracts/RoleManagement.sol\":6690:6698  _address */\n      dup3\n        /* \"OnDemo/contracts/RoleManagement.sol\":6700:6710  Role.GUEST */\n      0x03\n        /* \"OnDemo/contracts/RoleManagement.sol\":6682:6689  hasRole */\n      tag_71\n        /* \"OnDemo/contracts/RoleManagement.sol\":6682:6711  hasRole(_address, Role.GUEST) */\n      jump\t// in\n    tag_172:\n        /* \"OnDemo/contracts/RoleManagement.sol\":6675:6711  return hasRole(_address, Role.GUEST) */\n      swap1\n      pop\n        /* \"OnDemo/contracts/RoleManagement.sol\":6597:6719  function hasGuestRole(address _address) public view returns (bool) {\r... */\n      swap2\n      swap1\n      pop\n      jump\t// out\n        /* \"OnDemo/contracts/RoleManagement.sol\":6311:6449  function hasCouncilMemberRole(address _address) public view returns (bool) {\r... */\n    tag_67:\n        /* \"OnDemo/contracts/RoleManagement.sol\":6380:6384  bool */\n      0x00\n        /* \"OnDemo/contracts/RoleManagement.sol\":6404:6441  hasRole(_address, Role.COUNCILMEMBER) */\n      tag_174\n        /* \"OnDemo/contracts/RoleManagement.sol\":6412:6420  _address */\n      dup3\n        /* \"OnDemo/contracts/RoleManagement.sol\":6422:6440  Role.COUNCILMEMBER */\n      0x01\n        /* \"OnDemo/contracts/RoleManagement.sol\":6404:6411  hasRole */\n      tag_71\n        /* \"OnDemo/contracts/RoleManagement.sol\":6404:6441  hasRole(_address, Role.COUNCILMEMBER) */\n      jump\t// in\n    tag_174:\n        /* \"OnDemo/contracts/RoleManagement.sol\":6397:6441  return hasRole(_address, Role.COUNCILMEMBER) */\n      swap1\n      pop\n        /* \"OnDemo/contracts/RoleManagement.sol\":6311:6449  function hasCouncilMemberRole(address _address) public view returns (bool) {\r... */\n      swap2\n      swap1\n      pop\n      jump\t// out\n        /* \"OnDemo/contracts/RoleManagement.sol\":5597:6167  function hasRole(address _address, Role _role) private view returns (bool){\r... */\n    tag_71:\n        /* \"OnDemo/contracts/RoleManagement.sol\":5666:5670  bool */\n      0x00\n        /* \"OnDemo/contracts/RoleManagement.sol\":5682:5698  User memory user */\n      dup1\n        /* \"OnDemo/contracts/RoleManagement.sol\":5701:5706  users */\n      0x01\n        /* \"OnDemo/contracts/RoleManagement.sol\":5701:5716  users[_address] */\n      0x00\n        /* \"OnDemo/contracts/RoleManagement.sol\":5707:5715  _address */\n      dup6\n        /* \"OnDemo/contracts/RoleManagement.sol\":5701:5716  users[_address] */\n      0xffffffffffffffffffffffffffffffffffffffff\n      and\n      0xffffffffffffffffffffffffffffffffffffffff\n      and\n      dup2\n      mstore\n      0x20\n      add\n      swap1\n      dup2\n      mstore\n      0x20\n      add\n      0x00\n      keccak256\n        /* \"OnDemo/contracts/RoleManagement.sol\":5682:5716  User memory user = users[_address] */\n      mload(0x40)\n      dup1\n      0xc0\n      add\n      0x40\n      mstore\n      swap1\n      dup2\n      0x00\n      dup3\n      add\n      0x00\n      swap1\n      sload\n      swap1\n      0x0100\n      exp\n      swap1\n      div\n      0xffffffffffffffffffffffffffffffffffffffff\n      and\n      0xffffffffffffffffffffffffffffffffffffffff\n      and\n      0xffffffffffffffffffffffffffffffffffffffff\n      and\n      dup2\n      mstore\n      0x20\n      add\n      0x01\n      dup3\n      add\n      dup1\n      sload\n      tag_176\n      swap1\n      tag_112\n      jump\t// in\n    tag_176:\n      dup1\n      0x1f\n      add\n      0x20\n      dup1\n      swap2\n      div\n      mul\n      0x20\n      add\n      mload(0x40)\n      swap1\n      dup2\n      add\n      0x40\n      mstore\n      dup1\n      swap3\n      swap2\n      swap1\n      dup2\n      dup2\n      mstore\n      0x20\n      add\n      dup3\n      dup1\n      sload\n      tag_177\n      swap1\n      tag_112\n      jump\t// in\n    tag_177:\n      dup1\n      iszero\n      tag_178\n      jumpi\n      dup1\n      0x1f\n      lt\n      tag_179\n      jumpi\n      0x0100\n      dup1\n      dup4\n      sload\n      div\n      mul\n      dup4\n      mstore\n      swap2\n      0x20\n      add\n      swap2\n      jump(tag_178)\n    tag_179:\n      dup3\n      add\n      swap2\n      swap1\n      0x00\n      mstore\n      keccak256(0x00, 0x20)\n      swap1\n    tag_180:\n      dup2\n      sload\n      dup2\n      mstore\n      swap1\n      0x01\n      add\n      swap1\n      0x20\n      add\n      dup1\n      dup4\n      gt\n      tag_180\n      jumpi\n      dup3\n      swap1\n      sub\n      0x1f\n      and\n      dup3\n      add\n      swap2\n    tag_178:\n      pop\n      pop\n      pop\n      pop\n      pop\n      dup2\n      mstore\n      0x20\n      add\n      0x02\n      dup3\n      add\n      dup1\n      sload\n      tag_181\n      swap1\n      tag_112\n      jump\t// in\n    tag_181:\n      dup1\n      0x1f\n      add\n      0x20\n      dup1\n      swap2\n      div\n      mul\n      0x20\n      add\n      mload(0x40)\n      swap1\n      dup2\n      add\n      0x40\n      mstore\n      dup1\n      swap3\n      swap2\n      swap1\n      dup2\n      dup2\n      mstore\n      0x20\n      add\n      dup3\n      dup1\n      sload\n      tag_182\n      swap1\n      tag_112\n      jump\t// in\n    tag_182:\n      dup1\n      iszero\n      tag_183\n      jumpi\n      dup1\n      0x1f\n      lt\n      tag_184\n      jumpi\n      0x0100\n      dup1\n      dup4\n      sload\n      div\n      mul\n      dup4\n      mstore\n      swap2\n      0x20\n      add\n      swap2\n      jump(tag_183)\n    tag_184:\n      dup3\n      add\n      swap2\n      swap1\n      0x00\n      mstore\n      keccak256(0x00, 0x20)\n      swap1\n    tag_185:\n      dup2\n      sload\n      dup2\n      mstore\n      swap1\n      0x01\n      add\n      swap1\n      0x20\n      add\n      dup1\n      dup4\n      gt\n      tag_185\n      jumpi\n      dup3\n      swap1\n      sub\n      0x1f\n      and\n      dup3\n      add\n      swap2\n    tag_183:\n      pop\n      pop\n      pop\n      pop\n      pop\n      dup2\n      mstore\n      0x20\n      add\n      0x03\n      dup3\n      add\n      dup1\n      sload\n      tag_186\n      swap1\n      tag_112\n      jump\t// in\n    tag_186:\n      dup1\n      0x1f\n      add\n      0x20\n      dup1\n      swap2\n      div\n      mul\n      0x20\n      add\n      mload(0x40)\n      swap1\n      dup2\n      add\n      0x40\n      mstore\n      dup1\n      swap3\n      swap2\n      swap1\n      dup2\n      dup2\n      mstore\n      0x20\n      add\n      dup3\n      dup1\n      sload\n      tag_187\n      swap1\n      tag_112\n      jump\t// in\n    tag_187:\n      dup1\n      iszero\n      tag_188\n      jumpi\n      dup1\n      0x1f\n      lt\n      tag_189\n      jumpi\n      0x0100\n      dup1\n      dup4\n      sload\n      div\n      mul\n      dup4\n      mstore\n      swap2\n      0x20\n      add\n      swap2\n      jump(tag_188)\n    tag_189:\n      dup3\n      add\n      swap2\n      swap1\n      0x00\n      mstore\n      keccak256(0x00, 0x20)\n      swap1\n    tag_190:\n      dup2\n      sload\n      dup2\n      mstore\n      swap1\n      0x01\n      add\n      swap1\n      0x20\n      add\n      dup1\n      dup4\n      gt\n      tag_190\n      jumpi\n      dup3\n      swap1\n      sub\n      0x1f\n      and\n      dup3\n      add\n      swap2\n    tag_188:\n      pop\n      pop\n      pop\n      pop\n      pop\n      dup2\n      mstore\n      0x20\n      add\n      0x04\n      dup3\n      add\n      0x00\n      swap1\n      sload\n      swap1\n      0x0100\n      exp\n      swap1\n      div\n      0xff\n      and\n      iszero\n      iszero\n      iszero\n      iszero\n      dup2\n      mstore\n      0x20\n      add\n      0x05\n      dup3\n      add\n      mload(0x40)\n      dup1\n      0x80\n      add\n      0x40\n      mstore\n      swap1\n      dup2\n      0x00\n      dup3\n      add\n      0x00\n      swap1\n      sload\n      swap1\n      0x0100\n      exp\n      swap1\n      div\n      0xff\n      and\n      iszero\n      iszero\n      iszero\n      iszero\n      dup2\n      mstore\n      0x20\n      add\n      0x00\n      dup3\n      add\n      0x01\n      swap1\n      sload\n      swap1\n      0x0100\n      exp\n      swap1\n      div\n      0xff\n      and\n      iszero\n      iszero\n      iszero\n      iszero\n      dup2\n      mstore\n      0x20\n      add\n      0x00\n      dup3\n      add\n      0x02\n      swap1\n      sload\n      swap1\n      0x0100\n      exp\n      swap1\n      div\n      0xff\n      and\n      iszero\n      iszero\n      iszero\n      iszero\n      dup2\n      mstore\n      0x20\n      add\n      0x00\n      dup3\n      add\n      0x03\n      swap1\n      sload\n      swap1\n      0x0100\n      exp\n      swap1\n      div\n      0xff\n      and\n      iszero\n      iszero\n      iszero\n      iszero\n      dup2\n      mstore\n      pop\n      pop\n      dup2\n      mstore\n      pop\n      pop\n      swap1\n      pop\n        /* \"OnDemo/contracts/RoleManagement.sol\":5727:5749  RoleMap memory roleMap */\n      0x00\n        /* \"OnDemo/contracts/RoleManagement.sol\":5752:5756  user */\n      dup2\n        /* \"OnDemo/contracts/RoleManagement.sol\":5752:5764  user.roleMap */\n      0xa0\n      add\n      mload\n        /* \"OnDemo/contracts/RoleManagement.sol\":5727:5764  RoleMap memory roleMap = user.roleMap */\n      swap1\n      pop\n        /* \"OnDemo/contracts/RoleManagement.sol\":5789:5800  Role.LEADER */\n      0x00\n        /* \"OnDemo/contracts/RoleManagement.sol\":5780:5800  _role == Role.LEADER */\n      0x03\n      dup2\n      gt\n      iszero\n      tag_191\n      jumpi\n      mstore(0x00, 0x4e487b7100000000000000000000000000000000000000000000000000000000)\n      mstore(0x04, 0x21)\n      revert(0x00, 0x24)\n    tag_191:\n        /* \"OnDemo/contracts/RoleManagement.sol\":5780:5785  _role */\n      dup5\n        /* \"OnDemo/contracts/RoleManagement.sol\":5780:5800  _role == Role.LEADER */\n      0x03\n      dup2\n      gt\n      iszero\n      tag_192\n      jumpi\n      mstore(0x00, 0x4e487b7100000000000000000000000000000000000000000000000000000000)\n      mstore(0x04, 0x21)\n      revert(0x00, 0x24)\n    tag_192:\n      eq\n        /* \"OnDemo/contracts/RoleManagement.sol\":5777:6137  if(_role == Role.LEADER){\r... */\n      iszero\n      tag_193\n      jumpi\n        /* \"OnDemo/contracts/RoleManagement.sol\":5823:5830  roleMap */\n      dup1\n        /* \"OnDemo/contracts/RoleManagement.sol\":5823:5839  roleMap.isLeader */\n      0x00\n      add\n      mload\n        /* \"OnDemo/contracts/RoleManagement.sol\":5816:5839  return roleMap.isLeader */\n      swap3\n      pop\n      pop\n      pop\n      jump(tag_175)\n        /* \"OnDemo/contracts/RoleManagement.sol\":5777:6137  if(_role == Role.LEADER){\r... */\n    tag_193:\n        /* \"OnDemo/contracts/RoleManagement.sol\":5878:5896  Role.COUNCILMEMBER */\n      0x01\n        /* \"OnDemo/contracts/RoleManagement.sol\":5869:5896  _role == Role.COUNCILMEMBER */\n      0x03\n      dup2\n      gt\n      iszero\n      tag_195\n      jumpi\n      mstore(0x00, 0x4e487b7100000000000000000000000000000000000000000000000000000000)\n      mstore(0x04, 0x21)\n      revert(0x00, 0x24)\n    tag_195:\n        /* \"OnDemo/contracts/RoleManagement.sol\":5869:5874  _role */\n      dup5\n        /* \"OnDemo/contracts/RoleManagement.sol\":5869:5896  _role == Role.COUNCILMEMBER */\n      0x03\n      dup2\n      gt\n      iszero\n      tag_196\n      jumpi\n      mstore(0x00, 0x4e487b7100000000000000000000000000000000000000000000000000000000)\n      mstore(0x04, 0x21)\n      revert(0x00, 0x24)\n    tag_196:\n      eq\n        /* \"OnDemo/contracts/RoleManagement.sol\":5866:6137  if(_role == Role.COUNCILMEMBER){\r... */\n      iszero\n      tag_197\n      jumpi\n        /* \"OnDemo/contracts/RoleManagement.sol\":5919:5926  roleMap */\n      dup1\n        /* \"OnDemo/contracts/RoleManagement.sol\":5919:5942  roleMap.isCouncilMember */\n      0x20\n      add\n      mload\n        /* \"OnDemo/contracts/RoleManagement.sol\":5912:5942  return roleMap.isCouncilMember */\n      swap3\n      pop\n      pop\n      pop\n      jump(tag_175)\n        /* \"OnDemo/contracts/RoleManagement.sol\":5866:6137  if(_role == Role.COUNCILMEMBER){\r... */\n    tag_197:\n        /* \"OnDemo/contracts/RoleManagement.sol\":5988:5999  Role.MEMBER */\n      0x02\n        /* \"OnDemo/contracts/RoleManagement.sol\":5979:5999  _role == Role.MEMBER */\n      0x03\n      dup2\n      gt\n      iszero\n      tag_199\n      jumpi\n      mstore(0x00, 0x4e487b7100000000000000000000000000000000000000000000000000000000)\n      mstore(0x04, 0x21)\n      revert(0x00, 0x24)\n    tag_199:\n        /* \"OnDemo/contracts/RoleManagement.sol\":5979:5984  _role */\n      dup5\n        /* \"OnDemo/contracts/RoleManagement.sol\":5979:5999  _role == Role.MEMBER */\n      0x03\n      dup2\n      gt\n      iszero\n      tag_200\n      jumpi\n      mstore(0x00, 0x4e487b7100000000000000000000000000000000000000000000000000000000)\n      mstore(0x04, 0x21)\n      revert(0x00, 0x24)\n    tag_200:\n      eq\n        /* \"OnDemo/contracts/RoleManagement.sol\":5976:6137  if(_role == Role.MEMBER){\r... */\n      iszero\n      tag_201\n      jumpi\n        /* \"OnDemo/contracts/RoleManagement.sol\":6022:6029  roleMap */\n      dup1\n        /* \"OnDemo/contracts/RoleManagement.sol\":6022:6038  roleMap.isMember */\n      0x40\n      add\n      mload\n        /* \"OnDemo/contracts/RoleManagement.sol\":6015:6038  return roleMap.isMember */\n      swap3\n      pop\n      pop\n      pop\n      jump(tag_175)\n        /* \"OnDemo/contracts/RoleManagement.sol\":5976:6137  if(_role == Role.MEMBER){\r... */\n    tag_201:\n        /* \"OnDemo/contracts/RoleManagement.sol\":6077:6087  Role.GUEST */\n      0x03\n        /* \"OnDemo/contracts/RoleManagement.sol\":6068:6087  _role == Role.GUEST */\n      dup1\n      dup2\n      gt\n      iszero\n      tag_203\n      jumpi\n      mstore(0x00, 0x4e487b7100000000000000000000000000000000000000000000000000000000)\n      mstore(0x04, 0x21)\n      revert(0x00, 0x24)\n    tag_203:\n        /* \"OnDemo/contracts/RoleManagement.sol\":6068:6073  _role */\n      dup5\n        /* \"OnDemo/contracts/RoleManagement.sol\":6068:6087  _role == Role.GUEST */\n      0x03\n      dup2\n      gt\n      iszero\n      tag_204\n      jumpi\n      mstore(0x00, 0x4e487b7100000000000000000000000000000000000000000000000000000000)\n      mstore(0x04, 0x21)\n      revert(0x00, 0x24)\n    tag_204:\n      eq\n        /* \"OnDemo/contracts/RoleManagement.sol\":6065:6137  if(_role == Role.GUEST){\r... */\n      iszero\n      tag_205\n      jumpi\n        /* \"OnDemo/contracts/RoleManagement.sol\":6110:6117  roleMap */\n      dup1\n        /* \"OnDemo/contracts/RoleManagement.sol\":6110:6125  roleMap.isGuest */\n      0x60\n      add\n      mload\n        /* \"OnDemo/contracts/RoleManagement.sol\":6103:6125  return roleMap.isGuest */\n      swap3\n      pop\n      pop\n      pop\n      jump(tag_175)\n        /* \"OnDemo/contracts/RoleManagement.sol\":6065:6137  if(_role == Role.GUEST){\r... */\n    tag_205:\n        /* \"OnDemo/contracts/RoleManagement.sol\":6154:6159  false */\n      0x00\n        /* \"OnDemo/contracts/RoleManagement.sol\":6147:6159  return false */\n      swap3\n      pop\n      pop\n      pop\n        /* \"OnDemo/contracts/RoleManagement.sol\":5597:6167  function hasRole(address _address, Role _role) private view returns (bool){\r... */\n    tag_175:\n      swap3\n      swap2\n      pop\n      pop\n      jump\t// out\n    tag_159:\n      pop\n      dup1\n      sload\n      tag_206\n      swap1\n      tag_112\n      jump\t// in\n    tag_206:\n      0x00\n      dup3\n      sstore\n      dup1\n      0x1f\n      lt\n      tag_208\n      jumpi\n      pop\n      jump(tag_207)\n    tag_208:\n      0x1f\n      add\n      0x20\n      swap1\n      div\n      swap1\n      0x00\n      mstore\n      keccak256(0x00, 0x20)\n      swap1\n      dup2\n      add\n      swap1\n      tag_209\n      swap2\n      swap1\n      tag_210\n      jump\t// in\n    tag_209:\n    tag_207:\n      pop\n      jump\t// out\n    tag_168:\n      dup3\n      dup1\n      sload\n      tag_211\n      swap1\n      tag_112\n      jump\t// in\n    tag_211:\n      swap1\n      0x00\n      mstore\n      keccak256(0x00, 0x20)\n      swap1\n      0x1f\n      add\n      0x20\n      swap1\n      div\n      dup2\n      add\n      swap3\n      dup3\n      tag_213\n      jumpi\n      0x00\n      dup6\n      sstore\n      jump(tag_212)\n    tag_213:\n      dup3\n      0x1f\n      lt\n      tag_214\n      jumpi\n      dup1\n      mload\n      not(0xff)\n      and\n      dup4\n      dup1\n      add\n      or\n      dup6\n      sstore\n      jump(tag_212)\n    tag_214:\n      dup3\n      dup1\n      add\n      0x01\n      add\n      dup6\n      sstore\n      dup3\n      iszero\n      tag_212\n      jumpi\n      swap2\n      dup3\n      add\n    tag_215:\n      dup3\n      dup2\n      gt\n      iszero\n      tag_216\n      jumpi\n      dup3\n      mload\n      dup3\n      sstore\n      swap2\n      0x20\n      add\n      swap2\n      swap1\n      0x01\n      add\n      swap1\n      jump(tag_215)\n    tag_216:\n    tag_212:\n      pop\n      swap1\n      pop\n      tag_217\n      swap2\n      swap1\n      tag_210\n      jump\t// in\n    tag_217:\n      pop\n      swap1\n      jump\t// out\n    tag_210:\n    tag_218:\n      dup1\n      dup3\n      gt\n      iszero\n      tag_219\n      jumpi\n      0x00\n      dup2\n      0x00\n      swap1\n      sstore\n      pop\n      0x01\n      add\n      jump(tag_218)\n    tag_219:\n      pop\n      swap1\n      jump\t// out\n        /* \"#utility.yul\":7:352   */\n    tag_221:\n      0x00\n        /* \"#utility.yul\":110:176   */\n      tag_223\n        /* \"#utility.yul\":126:175   */\n      tag_224\n        /* \"#utility.yul\":168:174   */\n      dup5\n        /* \"#utility.yul\":126:175   */\n      tag_225\n      jump\t// in\n    tag_224:\n        /* \"#utility.yul\":110:176   */\n      tag_226\n      jump\t// in\n    tag_223:\n        /* \"#utility.yul\":101:176   */\n      swap1\n      pop\n        /* \"#utility.yul\":199:205   */\n      dup3\n        /* \"#utility.yul\":192:197   */\n      dup2\n        /* \"#utility.yul\":185:206   */\n      mstore\n        /* \"#utility.yul\":237:241   */\n      0x20\n        /* \"#utility.yul\":230:235   */\n      dup2\n        /* \"#utility.yul\":226:242   */\n      add\n        /* \"#utility.yul\":275:278   */\n      dup5\n        /* \"#utility.yul\":266:272   */\n      dup5\n        /* \"#utility.yul\":261:264   */\n      dup5\n        /* \"#utility.yul\":257:273   */\n      add\n        /* \"#utility.yul\":254:279   */\n      gt\n        /* \"#utility.yul\":251:253   */\n      iszero\n      tag_227\n      jumpi\n        /* \"#utility.yul\":292:293   */\n      0x00\n        /* \"#utility.yul\":289:290   */\n      dup1\n        /* \"#utility.yul\":282:294   */\n      revert\n        /* \"#utility.yul\":251:253   */\n    tag_227:\n        /* \"#utility.yul\":305:346   */\n      tag_228\n        /* \"#utility.yul\":339:345   */\n      dup5\n        /* \"#utility.yul\":334:337   */\n      dup3\n        /* \"#utility.yul\":329:332   */\n      dup6\n        /* \"#utility.yul\":305:346   */\n      tag_229\n      jump\t// in\n    tag_228:\n        /* \"#utility.yul\":91:352   */\n      pop\n      swap4\n      swap3\n      pop\n      pop\n      pop\n      jump\t// out\n        /* \"#utility.yul\":358:497   */\n    tag_230:\n      0x00\n        /* \"#utility.yul\":442:448   */\n      dup2\n        /* \"#utility.yul\":429:449   */\n      calldataload\n        /* \"#utility.yul\":420:449   */\n      swap1\n      pop\n        /* \"#utility.yul\":458:491   */\n      tag_232\n        /* \"#utility.yul\":485:490   */\n      dup2\n        /* \"#utility.yul\":458:491   */\n      tag_233\n      jump\t// in\n    tag_232:\n        /* \"#utility.yul\":410:497   */\n      swap3\n      swap2\n      pop\n      pop\n      jump\t// out\n        /* \"#utility.yul\":503:654   */\n    tag_234:\n      0x00\n        /* \"#utility.yul\":593:599   */\n      dup2\n        /* \"#utility.yul\":580:600   */\n      calldataload\n        /* \"#utility.yul\":571:600   */\n      swap1\n      pop\n        /* \"#utility.yul\":609:648   */\n      tag_236\n        /* \"#utility.yul\":642:647   */\n      dup2\n        /* \"#utility.yul\":609:648   */\n      tag_237\n      jump\t// in\n    tag_236:\n        /* \"#utility.yul\":561:654   */\n      swap3\n      swap2\n      pop\n      pop\n      jump\t// out\n        /* \"#utility.yul\":674:947   */\n    tag_238:\n      0x00\n        /* \"#utility.yul\":779:782   */\n      dup3\n        /* \"#utility.yul\":772:776   */\n      0x1f\n        /* \"#utility.yul\":764:770   */\n      dup4\n        /* \"#utility.yul\":760:777   */\n      add\n        /* \"#utility.yul\":756:783   */\n      slt\n        /* \"#utility.yul\":746:748   */\n      tag_240\n      jumpi\n        /* \"#utility.yul\":797:798   */\n      0x00\n        /* \"#utility.yul\":794:795   */\n      dup1\n        /* \"#utility.yul\":787:799   */\n      revert\n        /* \"#utility.yul\":746:748   */\n    tag_240:\n        /* \"#utility.yul\":837:843   */\n      dup2\n        /* \"#utility.yul\":824:844   */\n      calldataload\n        /* \"#utility.yul\":862:941   */\n      tag_241\n        /* \"#utility.yul\":937:940   */\n      dup5\n        /* \"#utility.yul\":929:935   */\n      dup3\n        /* \"#utility.yul\":922:926   */\n      0x20\n        /* \"#utility.yul\":914:920   */\n      dup7\n        /* \"#utility.yul\":910:927   */\n      add\n        /* \"#utility.yul\":862:941   */\n      tag_221\n      jump\t// in\n    tag_241:\n        /* \"#utility.yul\":853:941   */\n      swap2\n      pop\n        /* \"#utility.yul\":736:947   */\n      pop\n      swap3\n      swap2\n      pop\n      pop\n      jump\t// out\n        /* \"#utility.yul\":953:1215   */\n    tag_20:\n      0x00\n        /* \"#utility.yul\":1061:1063   */\n      0x20\n        /* \"#utility.yul\":1049:1058   */\n      dup3\n        /* \"#utility.yul\":1040:1047   */\n      dup5\n        /* \"#utility.yul\":1036:1059   */\n      sub\n        /* \"#utility.yul\":1032:1064   */\n      slt\n        /* \"#utility.yul\":1029:1031   */\n      iszero\n      tag_243\n      jumpi\n        /* \"#utility.yul\":1077:1078   */\n      0x00\n        /* \"#utility.yul\":1074:1075   */\n      dup1\n        /* \"#utility.yul\":1067:1079   */\n      revert\n        /* \"#utility.yul\":1029:1031   */\n    tag_243:\n        /* \"#utility.yul\":1120:1121   */\n      0x00\n        /* \"#utility.yul\":1145:1198   */\n      tag_244\n        /* \"#utility.yul\":1190:1197   */\n      dup5\n        /* \"#utility.yul\":1181:1187   */\n      dup3\n        /* \"#utility.yul\":1170:1179   */\n      dup6\n        /* \"#utility.yul\":1166:1188   */\n      add\n        /* \"#utility.yul\":1145:1198   */\n      tag_230\n      jump\t// in\n    tag_244:\n        /* \"#utility.yul\":1135:1198   */\n      swap2\n      pop\n        /* \"#utility.yul\":1091:1208   */\n      pop\n        /* \"#utility.yul\":1019:1215   */\n      swap3\n      swap2\n      pop\n      pop\n      jump\t// out\n        /* \"#utility.yul\":1221:1640   */\n    tag_37:\n      0x00\n      dup1\n        /* \"#utility.yul\":1352:1354   */\n      0x40\n        /* \"#utility.yul\":1340:1349   */\n      dup4\n        /* \"#utility.yul\":1331:1338   */\n      dup6\n        /* \"#utility.yul\":1327:1350   */\n      sub\n        /* \"#utility.yul\":1323:1355   */\n      slt\n        /* \"#utility.yul\":1320:1322   */\n      iszero\n      tag_246\n      jumpi\n        /* \"#utility.yul\":1368:1369   */\n      0x00\n        /* \"#utility.yul\":1365:1366   */\n      dup1\n        /* \"#utility.yul\":1358:1370   */\n      revert\n        /* \"#utility.yul\":1320:1322   */\n    tag_246:\n        /* \"#utility.yul\":1411:1412   */\n      0x00\n        /* \"#utility.yul\":1436:1489   */\n      tag_247\n        /* \"#utility.yul\":1481:1488   */\n      dup6\n        /* \"#utility.yul\":1472:1478   */\n      dup3\n        /* \"#utility.yul\":1461:1470   */\n      dup7\n        /* \"#utility.yul\":1457:1479   */\n      add\n        /* \"#utility.yul\":1436:1489   */\n      tag_230\n      jump\t// in\n    tag_247:\n        /* \"#utility.yul\":1426:1489   */\n      swap3\n      pop\n        /* \"#utility.yul\":1382:1499   */\n      pop\n        /* \"#utility.yul\":1538:1540   */\n      0x20\n        /* \"#utility.yul\":1564:1623   */\n      tag_248\n        /* \"#utility.yul\":1615:1622   */\n      dup6\n        /* \"#utility.yul\":1606:1612   */\n      dup3\n        /* \"#utility.yul\":1595:1604   */\n      dup7\n        /* \"#utility.yul\":1591:1613   */\n      add\n        /* \"#utility.yul\":1564:1623   */\n      tag_234\n      jump\t// in\n    tag_248:\n        /* \"#utility.yul\":1554:1623   */\n      swap2\n      pop\n        /* \"#utility.yul\":1509:1633   */\n      pop\n        /* \"#utility.yul\":1310:1640   */\n      swap3\n      pop\n      swap3\n      swap1\n      pop\n      jump\t// out\n        /* \"#utility.yul\":1646:2683   */\n    tag_59:\n      0x00\n      dup1\n      0x00\n      dup1\n        /* \"#utility.yul\":1835:1838   */\n      0x80\n        /* \"#utility.yul\":1823:1832   */\n      dup6\n        /* \"#utility.yul\":1814:1821   */\n      dup8\n        /* \"#utility.yul\":1810:1833   */\n      sub\n        /* \"#utility.yul\":1806:1839   */\n      slt\n        /* \"#utility.yul\":1803:1805   */\n      iszero\n      tag_250\n      jumpi\n        /* \"#utility.yul\":1852:1853   */\n      0x00\n        /* \"#utility.yul\":1849:1850   */\n      dup1\n        /* \"#utility.yul\":1842:1854   */\n      revert\n        /* \"#utility.yul\":1803:1805   */\n    tag_250:\n        /* \"#utility.yul\":1895:1896   */\n      0x00\n        /* \"#utility.yul\":1920:1973   */\n      tag_251\n        /* \"#utility.yul\":1965:1972   */\n      dup8\n        /* \"#utility.yul\":1956:1962   */\n      dup3\n        /* \"#utility.yul\":1945:1954   */\n      dup9\n        /* \"#utility.yul\":1941:1963   */\n      add\n        /* \"#utility.yul\":1920:1973   */\n      tag_230\n      jump\t// in\n    tag_251:\n        /* \"#utility.yul\":1910:1973   */\n      swap5\n      pop\n        /* \"#utility.yul\":1866:1983   */\n      pop\n        /* \"#utility.yul\":2050:2052   */\n      0x20\n        /* \"#utility.yul\":2039:2048   */\n      dup6\n        /* \"#utility.yul\":2035:2053   */\n      add\n        /* \"#utility.yul\":2022:2054   */\n      calldataload\n        /* \"#utility.yul\":2081:2099   */\n      0xffffffffffffffff\n        /* \"#utility.yul\":2073:2079   */\n      dup2\n        /* \"#utility.yul\":2070:2100   */\n      gt\n        /* \"#utility.yul\":2067:2069   */\n      iszero\n      tag_252\n      jumpi\n        /* \"#utility.yul\":2113:2114   */\n      0x00\n        /* \"#utility.yul\":2110:2111   */\n      dup1\n        /* \"#utility.yul\":2103:2115   */\n      revert\n        /* \"#utility.yul\":2067:2069   */\n    tag_252:\n        /* \"#utility.yul\":2141:2204   */\n      tag_253\n        /* \"#utility.yul\":2196:2203   */\n      dup8\n        /* \"#utility.yul\":2187:2193   */\n      dup3\n        /* \"#utility.yul\":2176:2185   */\n      dup9\n        /* \"#utility.yul\":2172:2194   */\n      add\n        /* \"#utility.yul\":2141:2204   */\n      tag_238\n      jump\t// in\n    tag_253:\n        /* \"#utility.yul\":2131:2204   */\n      swap4\n      pop\n        /* \"#utility.yul\":1993:2214   */\n      pop\n        /* \"#utility.yul\":2281:2283   */\n      0x40\n        /* \"#utility.yul\":2270:2279   */\n      dup6\n        /* \"#utility.yul\":2266:2284   */\n      add\n        /* \"#utility.yul\":2253:2285   */\n      calldataload\n        /* \"#utility.yul\":2312:2330   */\n      0xffffffffffffffff\n        /* \"#utility.yul\":2304:2310   */\n      dup2\n        /* \"#utility.yul\":2301:2331   */\n      gt\n        /* \"#utility.yul\":2298:2300   */\n      iszero\n      tag_254\n      jumpi\n        /* \"#utility.yul\":2344:2345   */\n      0x00\n        /* \"#utility.yul\":2341:2342   */\n      dup1\n        /* \"#utility.yul\":2334:2346   */\n      revert\n        /* \"#utility.yul\":2298:2300   */\n    tag_254:\n        /* \"#utility.yul\":2372:2435   */\n      tag_255\n        /* \"#utility.yul\":2427:2434   */\n      dup8\n        /* \"#utility.yul\":2418:2424   */\n      dup3\n        /* \"#utility.yul\":2407:2416   */\n      dup9\n        /* \"#utility.yul\":2403:2425   */\n      add\n        /* \"#utility.yul\":2372:2435   */\n      tag_238\n      jump\t// in\n    tag_255:\n        /* \"#utility.yul\":2362:2435   */\n      swap3\n      pop\n        /* \"#utility.yul\":2224:2445   */\n      pop\n        /* \"#utility.yul\":2512:2514   */\n      0x60\n        /* \"#utility.yul\":2501:2510   */\n      dup6\n        /* \"#utility.yul\":2497:2515   */\n      add\n        /* \"#utility.yul\":2484:2516   */\n      calldataload\n        /* \"#utility.yul\":2543:2561   */\n      0xffffffffffffffff\n        /* \"#utility.yul\":2535:2541   */\n      dup2\n        /* \"#utility.yul\":2532:2562   */\n      gt\n        /* \"#utility.yul\":2529:2531   */\n      iszero\n      tag_256\n      jumpi\n        /* \"#utility.yul\":2575:2576   */\n      0x00\n        /* \"#utility.yul\":2572:2573   */\n      dup1\n        /* \"#utility.yul\":2565:2577   */\n      revert\n        /* \"#utility.yul\":2529:2531   */\n    tag_256:\n        /* \"#utility.yul\":2603:2666   */\n      tag_257\n        /* \"#utility.yul\":2658:2665   */\n      dup8\n        /* \"#utility.yul\":2649:2655   */\n      dup3\n        /* \"#utility.yul\":2638:2647   */\n      dup9\n        /* \"#utility.yul\":2634:2656   */\n      add\n        /* \"#utility.yul\":2603:2666   */\n      tag_238\n      jump\t// in\n    tag_257:\n        /* \"#utility.yul\":2593:2666   */\n      swap2\n      pop\n        /* \"#utility.yul\":2455:2676   */\n      pop\n        /* \"#utility.yul\":1793:2683   */\n      swap3\n      swap6\n      swap2\n      swap5\n      pop\n      swap3\n      pop\n      jump\t// out\n        /* \"#utility.yul\":2689:2807   */\n    tag_258:\n        /* \"#utility.yul\":2776:2800   */\n      tag_260\n        /* \"#utility.yul\":2794:2799   */\n      dup2\n        /* \"#utility.yul\":2776:2800   */\n      tag_261\n      jump\t// in\n    tag_260:\n        /* \"#utility.yul\":2771:2774   */\n      dup3\n        /* \"#utility.yul\":2764:2801   */\n      mstore\n        /* \"#utility.yul\":2754:2807   */\n      pop\n      pop\n      jump\t// out\n        /* \"#utility.yul\":2813:2912   */\n    tag_262:\n        /* \"#utility.yul\":2884:2905   */\n      tag_264\n        /* \"#utility.yul\":2899:2904   */\n      dup2\n        /* \"#utility.yul\":2884:2905   */\n      tag_265\n      jump\t// in\n    tag_264:\n        /* \"#utility.yul\":2879:2882   */\n      dup3\n        /* \"#utility.yul\":2872:2906   */\n      mstore\n        /* \"#utility.yul\":2862:2912   */\n      pop\n      pop\n      jump\t// out\n        /* \"#utility.yul\":2918:3027   */\n    tag_266:\n        /* \"#utility.yul\":2999:3020   */\n      tag_268\n        /* \"#utility.yul\":3014:3019   */\n      dup2\n        /* \"#utility.yul\":2999:3020   */\n      tag_265\n      jump\t// in\n    tag_268:\n        /* \"#utility.yul\":2994:2997   */\n      dup3\n        /* \"#utility.yul\":2987:3021   */\n      mstore\n        /* \"#utility.yul\":2977:3027   */\n      pop\n      pop\n      jump\t// out\n        /* \"#utility.yul\":3033:3397   */\n    tag_269:\n      0x00\n        /* \"#utility.yul\":3149:3188   */\n      tag_271\n        /* \"#utility.yul\":3182:3187   */\n      dup3\n        /* \"#utility.yul\":3149:3188   */\n      tag_272\n      jump\t// in\n    tag_271:\n        /* \"#utility.yul\":3204:3275   */\n      tag_273\n        /* \"#utility.yul\":3268:3274   */\n      dup2\n        /* \"#utility.yul\":3263:3266   */\n      dup6\n        /* \"#utility.yul\":3204:3275   */\n      tag_274\n      jump\t// in\n    tag_273:\n        /* \"#utility.yul\":3197:3275   */\n      swap4\n      pop\n        /* \"#utility.yul\":3284:3336   */\n      tag_275\n        /* \"#utility.yul\":3329:3335   */\n      dup2\n        /* \"#utility.yul\":3324:3327   */\n      dup6\n        /* \"#utility.yul\":3317:3321   */\n      0x20\n        /* \"#utility.yul\":3310:3315   */\n      dup7\n        /* \"#utility.yul\":3306:3322   */\n      add\n        /* \"#utility.yul\":3284:3336   */\n      tag_276\n      jump\t// in\n    tag_275:\n        /* \"#utility.yul\":3361:3390   */\n      tag_277\n        /* \"#utility.yul\":3383:3389   */\n      dup2\n        /* \"#utility.yul\":3361:3390   */\n      tag_278\n      jump\t// in\n    tag_277:\n        /* \"#utility.yul\":3356:3359   */\n      dup5\n        /* \"#utility.yul\":3352:3391   */\n      add\n        /* \"#utility.yul\":3345:3391   */\n      swap2\n      pop\n        /* \"#utility.yul\":3125:3397   */\n      pop\n      swap3\n      swap2\n      pop\n      pop\n      jump\t// out\n        /* \"#utility.yul\":3403:3769   */\n    tag_279:\n      0x00\n        /* \"#utility.yul\":3566:3633   */\n      tag_281\n        /* \"#utility.yul\":3630:3632   */\n      0x22\n        /* \"#utility.yul\":3625:3628   */\n      dup4\n        /* \"#utility.yul\":3566:3633   */\n      tag_274\n      jump\t// in\n    tag_281:\n        /* \"#utility.yul\":3559:3633   */\n      swap2\n      pop\n        /* \"#utility.yul\":3642:3735   */\n      tag_282\n        /* \"#utility.yul\":3731:3734   */\n      dup3\n        /* \"#utility.yul\":3642:3735   */\n      tag_283\n      jump\t// in\n    tag_282:\n        /* \"#utility.yul\":3760:3762   */\n      0x40\n        /* \"#utility.yul\":3755:3758   */\n      dup3\n        /* \"#utility.yul\":3751:3763   */\n      add\n        /* \"#utility.yul\":3744:3763   */\n      swap1\n      pop\n        /* \"#utility.yul\":3549:3769   */\n      swap2\n      swap1\n      pop\n      jump\t// out\n        /* \"#utility.yul\":3775:4141   */\n    tag_284:\n      0x00\n        /* \"#utility.yul\":3938:4005   */\n      tag_286\n        /* \"#utility.yul\":4002:4004   */\n      0x15\n        /* \"#utility.yul\":3997:4000   */\n      dup4\n        /* \"#utility.yul\":3938:4005   */\n      tag_274\n      jump\t// in\n    tag_286:\n        /* \"#utility.yul\":3931:4005   */\n      swap2\n      pop\n        /* \"#utility.yul\":4014:4107   */\n      tag_287\n        /* \"#utility.yul\":4103:4106   */\n      dup3\n        /* \"#utility.yul\":4014:4107   */\n      tag_288\n      jump\t// in\n    tag_287:\n        /* \"#utility.yul\":4132:4134   */\n      0x20\n        /* \"#utility.yul\":4127:4130   */\n      dup3\n        /* \"#utility.yul\":4123:4135   */\n      add\n        /* \"#utility.yul\":4116:4135   */\n      swap1\n      pop\n        /* \"#utility.yul\":3921:4141   */\n      swap2\n      swap1\n      pop\n      jump\t// out\n        /* \"#utility.yul\":4147:4513   */\n    tag_289:\n      0x00\n        /* \"#utility.yul\":4310:4377   */\n      tag_291\n        /* \"#utility.yul\":4374:4376   */\n      0x16\n        /* \"#utility.yul\":4369:4372   */\n      dup4\n        /* \"#utility.yul\":4310:4377   */\n      tag_274\n      jump\t// in\n    tag_291:\n        /* \"#utility.yul\":4303:4377   */\n      swap2\n      pop\n        /* \"#utility.yul\":4386:4479   */\n      tag_292\n        /* \"#utility.yul\":4475:4478   */\n      dup3\n        /* \"#utility.yul\":4386:4479   */\n      tag_293\n      jump\t// in\n    tag_292:\n        /* \"#utility.yul\":4504:4506   */\n      0x20\n        /* \"#utility.yul\":4499:4502   */\n      dup3\n        /* \"#utility.yul\":4495:4507   */\n      add\n        /* \"#utility.yul\":4488:4507   */\n      swap1\n      pop\n        /* \"#utility.yul\":4293:4513   */\n      swap2\n      swap1\n      pop\n      jump\t// out\n        /* \"#utility.yul\":4595:5444   */\n    tag_294:\n        /* \"#utility.yul\":4738:4742   */\n      0x80\n        /* \"#utility.yul\":4733:4736   */\n      dup3\n        /* \"#utility.yul\":4729:4743   */\n      add\n        /* \"#utility.yul\":4829:4833   */\n      0x00\n        /* \"#utility.yul\":4822:4827   */\n      dup3\n        /* \"#utility.yul\":4818:4834   */\n      add\n        /* \"#utility.yul\":4812:4835   */\n      mload\n        /* \"#utility.yul\":4848:4905   */\n      tag_296\n        /* \"#utility.yul\":4899:4903   */\n      0x00\n        /* \"#utility.yul\":4894:4897   */\n      dup6\n        /* \"#utility.yul\":4890:4904   */\n      add\n        /* \"#utility.yul\":4876:4888   */\n      dup3\n        /* \"#utility.yul\":4848:4905   */\n      tag_262\n      jump\t// in\n    tag_296:\n        /* \"#utility.yul\":4753:4915   */\n      pop\n        /* \"#utility.yul\":5008:5012   */\n      0x20\n        /* \"#utility.yul\":5001:5006   */\n      dup3\n        /* \"#utility.yul\":4997:5013   */\n      add\n        /* \"#utility.yul\":4991:5014   */\n      mload\n        /* \"#utility.yul\":5027:5084   */\n      tag_297\n        /* \"#utility.yul\":5078:5082   */\n      0x20\n        /* \"#utility.yul\":5073:5076   */\n      dup6\n        /* \"#utility.yul\":5069:5083   */\n      add\n        /* \"#utility.yul\":5055:5067   */\n      dup3\n        /* \"#utility.yul\":5027:5084   */\n      tag_262\n      jump\t// in\n    tag_297:\n        /* \"#utility.yul\":4925:5094   */\n      pop\n        /* \"#utility.yul\":5180:5184   */\n      0x40\n        /* \"#utility.yul\":5173:5178   */\n      dup3\n        /* \"#utility.yul\":5169:5185   */\n      add\n        /* \"#utility.yul\":5163:5186   */\n      mload\n        /* \"#utility.yul\":5199:5256   */\n      tag_298\n        /* \"#utility.yul\":5250:5254   */\n      0x40\n        /* \"#utility.yul\":5245:5248   */\n      dup6\n        /* \"#utility.yul\":5241:5255   */\n      add\n        /* \"#utility.yul\":5227:5239   */\n      dup3\n        /* \"#utility.yul\":5199:5256   */\n      tag_262\n      jump\t// in\n    tag_298:\n        /* \"#utility.yul\":5104:5266   */\n      pop\n        /* \"#utility.yul\":5351:5355   */\n      0x60\n        /* \"#utility.yul\":5344:5349   */\n      dup3\n        /* \"#utility.yul\":5340:5356   */\n      add\n        /* \"#utility.yul\":5334:5357   */\n      mload\n        /* \"#utility.yul\":5370:5427   */\n      tag_299\n        /* \"#utility.yul\":5421:5425   */\n      0x60\n        /* \"#utility.yul\":5416:5419   */\n      dup6\n        /* \"#utility.yul\":5412:5426   */\n      add\n        /* \"#utility.yul\":5398:5410   */\n      dup3\n        /* \"#utility.yul\":5370:5427   */\n      tag_262\n      jump\t// in\n    tag_299:\n        /* \"#utility.yul\":5276:5437   */\n      pop\n        /* \"#utility.yul\":4707:5444   */\n      pop\n      pop\n      pop\n      jump\t// out\n        /* \"#utility.yul\":5450:5672   */\n    tag_42:\n      0x00\n        /* \"#utility.yul\":5581:5583   */\n      0x20\n        /* \"#utility.yul\":5570:5579   */\n      dup3\n        /* \"#utility.yul\":5566:5584   */\n      add\n        /* \"#utility.yul\":5558:5584   */\n      swap1\n      pop\n        /* \"#utility.yul\":5594:5665   */\n      tag_301\n        /* \"#utility.yul\":5662:5663   */\n      0x00\n        /* \"#utility.yul\":5651:5660   */\n      dup4\n        /* \"#utility.yul\":5647:5664   */\n      add\n        /* \"#utility.yul\":5638:5644   */\n      dup5\n        /* \"#utility.yul\":5594:5665   */\n      tag_258\n      jump\t// in\n    tag_301:\n        /* \"#utility.yul\":5548:5672   */\n      swap3\n      swap2\n      pop\n      pop\n      jump\t// out\n        /* \"#utility.yul\":5678:6806   */\n    tag_50:\n      0x00\n        /* \"#utility.yul\":6049:6052   */\n      0x0120\n        /* \"#utility.yul\":6038:6047   */\n      dup3\n        /* \"#utility.yul\":6034:6053   */\n      add\n        /* \"#utility.yul\":6026:6053   */\n      swap1\n      pop\n        /* \"#utility.yul\":6063:6134   */\n      tag_303\n        /* \"#utility.yul\":6131:6132   */\n      0x00\n        /* \"#utility.yul\":6120:6129   */\n      dup4\n        /* \"#utility.yul\":6116:6133   */\n      add\n        /* \"#utility.yul\":6107:6113   */\n      dup10\n        /* \"#utility.yul\":6063:6134   */\n      tag_258\n      jump\t// in\n    tag_303:\n        /* \"#utility.yul\":6181:6190   */\n      dup2\n        /* \"#utility.yul\":6175:6179   */\n      dup2\n        /* \"#utility.yul\":6171:6191   */\n      sub\n        /* \"#utility.yul\":6166:6168   */\n      0x20\n        /* \"#utility.yul\":6155:6164   */\n      dup4\n        /* \"#utility.yul\":6151:6169   */\n      add\n        /* \"#utility.yul\":6144:6192   */\n      mstore\n        /* \"#utility.yul\":6209:6287   */\n      tag_304\n        /* \"#utility.yul\":6282:6286   */\n      dup2\n        /* \"#utility.yul\":6273:6279   */\n      dup9\n        /* \"#utility.yul\":6209:6287   */\n      tag_269\n      jump\t// in\n    tag_304:\n        /* \"#utility.yul\":6201:6287   */\n      swap1\n      pop\n        /* \"#utility.yul\":6334:6343   */\n      dup2\n        /* \"#utility.yul\":6328:6332   */\n      dup2\n        /* \"#utility.yul\":6324:6344   */\n      sub\n        /* \"#utility.yul\":6319:6321   */\n      0x40\n        /* \"#utility.yul\":6308:6317   */\n      dup4\n        /* \"#utility.yul\":6304:6322   */\n      add\n        /* \"#utility.yul\":6297:6345   */\n      mstore\n        /* \"#utility.yul\":6362:6440   */\n      tag_305\n        /* \"#utility.yul\":6435:6439   */\n      dup2\n        /* \"#utility.yul\":6426:6432   */\n      dup8\n        /* \"#utility.yul\":6362:6440   */\n      tag_269\n      jump\t// in\n    tag_305:\n        /* \"#utility.yul\":6354:6440   */\n      swap1\n      pop\n        /* \"#utility.yul\":6487:6496   */\n      dup2\n        /* \"#utility.yul\":6481:6485   */\n      dup2\n        /* \"#utility.yul\":6477:6497   */\n      sub\n        /* \"#utility.yul\":6472:6474   */\n      0x60\n        /* \"#utility.yul\":6461:6470   */\n      dup4\n        /* \"#utility.yul\":6457:6475   */\n      add\n        /* \"#utility.yul\":6450:6498   */\n      mstore\n        /* \"#utility.yul\":6515:6593   */\n      tag_306\n        /* \"#utility.yul\":6588:6592   */\n      dup2\n        /* \"#utility.yul\":6579:6585   */\n      dup7\n        /* \"#utility.yul\":6515:6593   */\n      tag_269\n      jump\t// in\n    tag_306:\n        /* \"#utility.yul\":6507:6593   */\n      swap1\n      pop\n        /* \"#utility.yul\":6603:6670   */\n      tag_307\n        /* \"#utility.yul\":6665:6668   */\n      0x80\n        /* \"#utility.yul\":6654:6663   */\n      dup4\n        /* \"#utility.yul\":6650:6669   */\n      add\n        /* \"#utility.yul\":6641:6647   */\n      dup6\n        /* \"#utility.yul\":6603:6670   */\n      tag_266\n      jump\t// in\n    tag_307:\n        /* \"#utility.yul\":6680:6799   */\n      tag_308\n        /* \"#utility.yul\":6794:6797   */\n      0xa0\n        /* \"#utility.yul\":6783:6792   */\n      dup4\n        /* \"#utility.yul\":6779:6798   */\n      add\n        /* \"#utility.yul\":6770:6776   */\n      dup5\n        /* \"#utility.yul\":6680:6799   */\n      tag_294\n      jump\t// in\n    tag_308:\n        /* \"#utility.yul\":6016:6806   */\n      swap8\n      swap7\n      pop\n      pop\n      pop\n      pop\n      pop\n      pop\n      pop\n      jump\t// out\n        /* \"#utility.yul\":6812:7022   */\n    tag_23:\n      0x00\n        /* \"#utility.yul\":6937:6939   */\n      0x20\n        /* \"#utility.yul\":6926:6935   */\n      dup3\n        /* \"#utility.yul\":6922:6940   */\n      add\n        /* \"#utility.yul\":6914:6940   */\n      swap1\n      pop\n        /* \"#utility.yul\":6950:7015   */\n      tag_310\n        /* \"#utility.yul\":7012:7013   */\n      0x00\n        /* \"#utility.yul\":7001:7010   */\n      dup4\n        /* \"#utility.yul\":6997:7014   */\n      add\n        /* \"#utility.yul\":6988:6994   */\n      dup5\n        /* \"#utility.yul\":6950:7015   */\n      tag_266\n      jump\t// in\n    tag_310:\n        /* \"#utility.yul\":6904:7022   */\n      swap3\n      swap2\n      pop\n      pop\n      jump\t// out\n        /* \"#utility.yul\":7028:7447   */\n    tag_84:\n      0x00\n        /* \"#utility.yul\":7232:7234   */\n      0x20\n        /* \"#utility.yul\":7221:7230   */\n      dup3\n        /* \"#utility.yul\":7217:7235   */\n      add\n        /* \"#utility.yul\":7209:7235   */\n      swap1\n      pop\n        /* \"#utility.yul\":7281:7290   */\n      dup2\n        /* \"#utility.yul\":7275:7279   */\n      dup2\n        /* \"#utility.yul\":7271:7291   */\n      sub\n        /* \"#utility.yul\":7267:7268   */\n      0x00\n        /* \"#utility.yul\":7256:7265   */\n      dup4\n        /* \"#utility.yul\":7252:7269   */\n      add\n        /* \"#utility.yul\":7245:7292   */\n      mstore\n        /* \"#utility.yul\":7309:7440   */\n      tag_312\n        /* \"#utility.yul\":7435:7439   */\n      dup2\n        /* \"#utility.yul\":7309:7440   */\n      tag_279\n      jump\t// in\n    tag_312:\n        /* \"#utility.yul\":7301:7440   */\n      swap1\n      pop\n        /* \"#utility.yul\":7199:7447   */\n      swap2\n      swap1\n      pop\n      jump\t// out\n        /* \"#utility.yul\":7453:7872   */\n    tag_77:\n      0x00\n        /* \"#utility.yul\":7657:7659   */\n      0x20\n        /* \"#utility.yul\":7646:7655   */\n      dup3\n        /* \"#utility.yul\":7642:7660   */\n      add\n        /* \"#utility.yul\":7634:7660   */\n      swap1\n      pop\n        /* \"#utility.yul\":7706:7715   */\n      dup2\n        /* \"#utility.yul\":7700:7704   */\n      dup2\n        /* \"#utility.yul\":7696:7716   */\n      sub\n        /* \"#utility.yul\":7692:7693   */\n      0x00\n        /* \"#utility.yul\":7681:7690   */\n      dup4\n        /* \"#utility.yul\":7677:7694   */\n      add\n        /* \"#utility.yul\":7670:7717   */\n      mstore\n        /* \"#utility.yul\":7734:7865   */\n      tag_314\n        /* \"#utility.yul\":7860:7864   */\n      dup2\n        /* \"#utility.yul\":7734:7865   */\n      tag_284\n      jump\t// in\n    tag_314:\n        /* \"#utility.yul\":7726:7865   */\n      swap1\n      pop\n        /* \"#utility.yul\":7624:7872   */\n      swap2\n      swap1\n      pop\n      jump\t// out\n        /* \"#utility.yul\":7878:8297   */\n    tag_165:\n      0x00\n        /* \"#utility.yul\":8082:8084   */\n      0x20\n        /* \"#utility.yul\":8071:8080   */\n      dup3\n        /* \"#utility.yul\":8067:8085   */\n      add\n        /* \"#utility.yul\":8059:8085   */\n      swap1\n      pop\n        /* \"#utility.yul\":8131:8140   */\n      dup2\n        /* \"#utility.yul\":8125:8129   */\n      dup2\n        /* \"#utility.yul\":8121:8141   */\n      sub\n        /* \"#utility.yul\":8117:8118   */\n      0x00\n        /* \"#utility.yul\":8106:8115   */\n      dup4\n        /* \"#utility.yul\":8102:8119   */\n      add\n        /* \"#utility.yul\":8095:8142   */\n      mstore\n        /* \"#utility.yul\":8159:8290   */\n      tag_316\n        /* \"#utility.yul\":8285:8289   */\n      dup2\n        /* \"#utility.yul\":8159:8290   */\n      tag_289\n      jump\t// in\n    tag_316:\n        /* \"#utility.yul\":8151:8290   */\n      swap1\n      pop\n        /* \"#utility.yul\":8049:8297   */\n      swap2\n      swap1\n      pop\n      jump\t// out\n        /* \"#utility.yul\":8303:8432   */\n    tag_226:\n      0x00\n        /* \"#utility.yul\":8364:8384   */\n      tag_318\n      tag_319\n      jump\t// in\n    tag_318:\n        /* \"#utility.yul\":8354:8384   */\n      swap1\n      pop\n        /* \"#utility.yul\":8393:8426   */\n      tag_320\n        /* \"#utility.yul\":8421:8425   */\n      dup3\n        /* \"#utility.yul\":8413:8419   */\n      dup3\n        /* \"#utility.yul\":8393:8426   */\n      tag_321\n      jump\t// in\n    tag_320:\n        /* \"#utility.yul\":8344:8432   */\n      swap2\n      swap1\n      pop\n      jump\t// out\n        /* \"#utility.yul\":8438:8513   */\n    tag_319:\n      0x00\n        /* \"#utility.yul\":8504:8506   */\n      0x40\n        /* \"#utility.yul\":8498:8507   */\n      mload\n        /* \"#utility.yul\":8488:8507   */\n      swap1\n      pop\n        /* \"#utility.yul\":8478:8513   */\n      swap1\n      jump\t// out\n        /* \"#utility.yul\":8519:8827   */\n    tag_225:\n      0x00\n        /* \"#utility.yul\":8671:8689   */\n      0xffffffffffffffff\n        /* \"#utility.yul\":8663:8669   */\n      dup3\n        /* \"#utility.yul\":8660:8690   */\n      gt\n        /* \"#utility.yul\":8657:8659   */\n      iszero\n      tag_324\n      jumpi\n        /* \"#utility.yul\":8693:8711   */\n      tag_325\n      tag_326\n      jump\t// in\n    tag_325:\n        /* \"#utility.yul\":8657:8659   */\n    tag_324:\n        /* \"#utility.yul\":8731:8760   */\n      tag_327\n        /* \"#utility.yul\":8753:8759   */\n      dup3\n        /* \"#utility.yul\":8731:8760   */\n      tag_278\n      jump\t// in\n    tag_327:\n        /* \"#utility.yul\":8723:8760   */\n      swap1\n      pop\n        /* \"#utility.yul\":8815:8819   */\n      0x20\n        /* \"#utility.yul\":8809:8813   */\n      dup2\n        /* \"#utility.yul\":8805:8820   */\n      add\n        /* \"#utility.yul\":8797:8820   */\n      swap1\n      pop\n        /* \"#utility.yul\":8586:8827   */\n      swap2\n      swap1\n      pop\n      jump\t// out\n        /* \"#utility.yul\":8833:8932   */\n    tag_272:\n      0x00\n        /* \"#utility.yul\":8919:8924   */\n      dup2\n        /* \"#utility.yul\":8913:8925   */\n      mload\n        /* \"#utility.yul\":8903:8925   */\n      swap1\n      pop\n        /* \"#utility.yul\":8892:8932   */\n      swap2\n      swap1\n      pop\n      jump\t// out\n        /* \"#utility.yul\":8938:9107   */\n    tag_274:\n      0x00\n        /* \"#utility.yul\":9056:9062   */\n      dup3\n        /* \"#utility.yul\":9051:9054   */\n      dup3\n        /* \"#utility.yul\":9044:9063   */\n      mstore\n        /* \"#utility.yul\":9096:9100   */\n      0x20\n        /* \"#utility.yul\":9091:9094   */\n      dup3\n        /* \"#utility.yul\":9087:9101   */\n      add\n        /* \"#utility.yul\":9072:9101   */\n      swap1\n      pop\n        /* \"#utility.yul\":9034:9107   */\n      swap3\n      swap2\n      pop\n      pop\n      jump\t// out\n        /* \"#utility.yul\":9113:9209   */\n    tag_261:\n      0x00\n        /* \"#utility.yul\":9179:9203   */\n      tag_331\n        /* \"#utility.yul\":9197:9202   */\n      dup3\n        /* \"#utility.yul\":9179:9203   */\n      tag_332\n      jump\t// in\n    tag_331:\n        /* \"#utility.yul\":9168:9203   */\n      swap1\n      pop\n        /* \"#utility.yul\":9158:9209   */\n      swap2\n      swap1\n      pop\n      jump\t// out\n        /* \"#utility.yul\":9215:9305   */\n    tag_265:\n      0x00\n        /* \"#utility.yul\":9292:9297   */\n      dup2\n        /* \"#utility.yul\":9285:9298   */\n      iszero\n        /* \"#utility.yul\":9278:9299   */\n      iszero\n        /* \"#utility.yul\":9267:9299   */\n      swap1\n      pop\n        /* \"#utility.yul\":9257:9305   */\n      swap2\n      swap1\n      pop\n      jump\t// out\n        /* \"#utility.yul\":9311:9437   */\n    tag_332:\n      0x00\n        /* \"#utility.yul\":9388:9430   */\n      0xffffffffffffffffffffffffffffffffffffffff\n        /* \"#utility.yul\":9381:9386   */\n      dup3\n        /* \"#utility.yul\":9377:9431   */\n      and\n        /* \"#utility.yul\":9366:9431   */\n      swap1\n      pop\n        /* \"#utility.yul\":9356:9437   */\n      swap2\n      swap1\n      pop\n      jump\t// out\n        /* \"#utility.yul\":9443:9597   */\n    tag_229:\n        /* \"#utility.yul\":9527:9533   */\n      dup3\n        /* \"#utility.yul\":9522:9525   */\n      dup2\n        /* \"#utility.yul\":9517:9520   */\n      dup4\n        /* \"#utility.yul\":9504:9534   */\n      calldatacopy\n        /* \"#utility.yul\":9589:9590   */\n      0x00\n        /* \"#utility.yul\":9580:9586   */\n      dup4\n        /* \"#utility.yul\":9575:9578   */\n      dup4\n        /* \"#utility.yul\":9571:9587   */\n      add\n        /* \"#utility.yul\":9564:9591   */\n      mstore\n        /* \"#utility.yul\":9494:9597   */\n      pop\n      pop\n      pop\n      jump\t// out\n        /* \"#utility.yul\":9603:9910   */\n    tag_276:\n        /* \"#utility.yul\":9671:9672   */\n      0x00\n        /* \"#utility.yul\":9681:9794   */\n    tag_337:\n        /* \"#utility.yul\":9695:9701   */\n      dup4\n        /* \"#utility.yul\":9692:9693   */\n      dup2\n        /* \"#utility.yul\":9689:9702   */\n      lt\n        /* \"#utility.yul\":9681:9794   */\n      iszero\n      tag_339\n      jumpi\n        /* \"#utility.yul\":9780:9781   */\n      dup1\n        /* \"#utility.yul\":9775:9778   */\n      dup3\n        /* \"#utility.yul\":9771:9782   */\n      add\n        /* \"#utility.yul\":9765:9783   */\n      mload\n        /* \"#utility.yul\":9761:9762   */\n      dup2\n        /* \"#utility.yul\":9756:9759   */\n      dup5\n        /* \"#utility.yul\":9752:9763   */\n      add\n        /* \"#utility.yul\":9745:9784   */\n      mstore\n        /* \"#utility.yul\":9717:9719   */\n      0x20\n        /* \"#utility.yul\":9714:9715   */\n      dup2\n        /* \"#utility.yul\":9710:9720   */\n      add\n        /* \"#utility.yul\":9705:9720   */\n      swap1\n      pop\n        /* \"#utility.yul\":9681:9794   */\n      jump(tag_337)\n    tag_339:\n        /* \"#utility.yul\":9812:9818   */\n      dup4\n        /* \"#utility.yul\":9809:9810   */\n      dup2\n        /* \"#utility.yul\":9806:9819   */\n      gt\n        /* \"#utility.yul\":9803:9805   */\n      iszero\n      tag_340\n      jumpi\n        /* \"#utility.yul\":9892:9893   */\n      0x00\n        /* \"#utility.yul\":9883:9889   */\n      dup5\n        /* \"#utility.yul\":9878:9881   */\n      dup5\n        /* \"#utility.yul\":9874:9890   */\n      add\n        /* \"#utility.yul\":9867:9894   */\n      mstore\n        /* \"#utility.yul\":9803:9805   */\n    tag_340:\n        /* \"#utility.yul\":9652:9910   */\n      pop\n      pop\n      pop\n      pop\n      jump\t// out\n        /* \"#utility.yul\":9916:10236   */\n    tag_112:\n      0x00\n        /* \"#utility.yul\":9997:9998   */\n      0x02\n        /* \"#utility.yul\":9991:9995   */\n      dup3\n        /* \"#utility.yul\":9987:9999   */\n      div\n        /* \"#utility.yul\":9977:9999   */\n      swap1\n      pop\n        /* \"#utility.yul\":10044:10045   */\n      0x01\n        /* \"#utility.yul\":10038:10042   */\n      dup3\n        /* \"#utility.yul\":10034:10046   */\n      and\n        /* \"#utility.yul\":10065:10083   */\n      dup1\n        /* \"#utility.yul\":10055:10057   */\n      tag_342\n      jumpi\n        /* \"#utility.yul\":10121:10125   */\n      0x7f\n        /* \"#utility.yul\":10113:10119   */\n      dup3\n        /* \"#utility.yul\":10109:10126   */\n      and\n        /* \"#utility.yul\":10099:10126   */\n      swap2\n      pop\n        /* \"#utility.yul\":10055:10057   */\n    tag_342:\n        /* \"#utility.yul\":10183:10185   */\n      0x20\n        /* \"#utility.yul\":10175:10181   */\n      dup3\n        /* \"#utility.yul\":10172:10186   */\n      lt\n        /* \"#utility.yul\":10152:10170   */\n      dup2\n        /* \"#utility.yul\":10149:10187   */\n      eq\n        /* \"#utility.yul\":10146:10148   */\n      iszero\n      tag_343\n      jumpi\n        /* \"#utility.yul\":10202:10220   */\n      tag_344\n      tag_345\n      jump\t// in\n    tag_344:\n        /* \"#utility.yul\":10146:10148   */\n    tag_343:\n        /* \"#utility.yul\":9967:10236   */\n      pop\n      swap2\n      swap1\n      pop\n      jump\t// out\n        /* \"#utility.yul\":10242:10523   */\n    tag_321:\n        /* \"#utility.yul\":10325:10352   */\n      tag_347\n        /* \"#utility.yul\":10347:10351   */\n      dup3\n        /* \"#utility.yul\":10325:10352   */\n      tag_278\n      jump\t// in\n    tag_347:\n        /* \"#utility.yul\":10317:10323   */\n      dup2\n        /* \"#utility.yul\":10313:10353   */\n      add\n        /* \"#utility.yul\":10455:10461   */\n      dup2\n        /* \"#utility.yul\":10443:10453   */\n      dup2\n        /* \"#utility.yul\":10440:10462   */\n      lt\n        /* \"#utility.yul\":10419:10437   */\n      0xffffffffffffffff\n        /* \"#utility.yul\":10407:10417   */\n      dup3\n        /* \"#utility.yul\":10404:10438   */\n      gt\n        /* \"#utility.yul\":10401:10463   */\n      or\n        /* \"#utility.yul\":10398:10400   */\n      iszero\n      tag_348\n      jumpi\n        /* \"#utility.yul\":10466:10484   */\n      tag_349\n      tag_326\n      jump\t// in\n    tag_349:\n        /* \"#utility.yul\":10398:10400   */\n    tag_348:\n        /* \"#utility.yul\":10506:10516   */\n      dup1\n        /* \"#utility.yul\":10502:10504   */\n      0x40\n        /* \"#utility.yul\":10495:10517   */\n      mstore\n        /* \"#utility.yul\":10285:10523   */\n      pop\n      pop\n      pop\n      jump\t// out\n        /* \"#utility.yul\":10529:10709   */\n    tag_345:\n        /* \"#utility.yul\":10577:10654   */\n      0x4e487b7100000000000000000000000000000000000000000000000000000000\n        /* \"#utility.yul\":10574:10575   */\n      0x00\n        /* \"#utility.yul\":10567:10655   */\n      mstore\n        /* \"#utility.yul\":10674:10678   */\n      0x22\n        /* \"#utility.yul\":10671:10672   */\n      0x04\n        /* \"#utility.yul\":10664:10679   */\n      mstore\n        /* \"#utility.yul\":10698:10702   */\n      0x24\n        /* \"#utility.yul\":10695:10696   */\n      0x00\n        /* \"#utility.yul\":10688:10703   */\n      revert\n        /* \"#utility.yul\":10715:10895   */\n    tag_326:\n        /* \"#utility.yul\":10763:10840   */\n      0x4e487b7100000000000000000000000000000000000000000000000000000000\n        /* \"#utility.yul\":10760:10761   */\n      0x00\n        /* \"#utility.yul\":10753:10841   */\n      mstore\n        /* \"#utility.yul\":10860:10864   */\n      0x41\n        /* \"#utility.yul\":10857:10858   */\n      0x04\n        /* \"#utility.yul\":10850:10865   */\n      mstore\n        /* \"#utility.yul\":10884:10888   */\n      0x24\n        /* \"#utility.yul\":10881:10882   */\n      0x00\n        /* \"#utility.yul\":10874:10889   */\n      revert\n        /* \"#utility.yul\":10901:11003   */\n    tag_278:\n      0x00\n        /* \"#utility.yul\":10993:10995   */\n      0x1f\n        /* \"#utility.yul\":10989:10996   */\n      not\n        /* \"#utility.yul\":10984:10986   */\n      0x1f\n        /* \"#utility.yul\":10977:10982   */\n      dup4\n        /* \"#utility.yul\":10973:10987   */\n      add\n        /* \"#utility.yul\":10969:10997   */\n      and\n        /* \"#utility.yul\":10959:10997   */\n      swap1\n      pop\n        /* \"#utility.yul\":10949:11003   */\n      swap2\n      swap1\n      pop\n      jump\t// out\n        /* \"#utility.yul\":11009:11230   */\n    tag_283:\n        /* \"#utility.yul\":11149:11183   */\n      0x4f6e6c79206f776e65722063616e2063616c6c20746869732066756e6374696f\n        /* \"#utility.yul\":11145:11146   */\n      0x00\n        /* \"#utility.yul\":11137:11143   */\n      dup3\n        /* \"#utility.yul\":11133:11147   */\n      add\n        /* \"#utility.yul\":11126:11184   */\n      mstore\n        /* \"#utility.yul\":11218:11222   */\n      0x6e2e000000000000000000000000000000000000000000000000000000000000\n        /* \"#utility.yul\":11213:11215   */\n      0x20\n        /* \"#utility.yul\":11205:11211   */\n      dup3\n        /* \"#utility.yul\":11201:11216   */\n      add\n        /* \"#utility.yul\":11194:11223   */\n      mstore\n        /* \"#utility.yul\":11115:11230   */\n      pop\n      jump\t// out\n        /* \"#utility.yul\":11236:11407   */\n    tag_288:\n        /* \"#utility.yul\":11376:11399   */\n      0x4163636f756e7420646f65736e27742065786973740000000000000000000000\n        /* \"#utility.yul\":11372:11373   */\n      0x00\n        /* \"#utility.yul\":11364:11370   */\n      dup3\n        /* \"#utility.yul\":11360:11374   */\n      add\n        /* \"#utility.yul\":11353:11400   */\n      mstore\n        /* \"#utility.yul\":11342:11407   */\n      pop\n      jump\t// out\n        /* \"#utility.yul\":11413:11585   */\n    tag_293:\n        /* \"#utility.yul\":11553:11577   */\n      0x4163636f756e7420616c72656164792065786973747300000000000000000000\n        /* \"#utility.yul\":11549:11550   */\n      0x00\n        /* \"#utility.yul\":11541:11547   */\n      dup3\n        /* \"#utility.yul\":11537:11551   */\n      add\n        /* \"#utility.yul\":11530:11578   */\n      mstore\n        /* \"#utility.yul\":11519:11585   */\n      pop\n      jump\t// out\n        /* \"#utility.yul\":11591:11713   */\n    tag_233:\n        /* \"#utility.yul\":11664:11688   */\n      tag_357\n        /* \"#utility.yul\":11682:11687   */\n      dup2\n        /* \"#utility.yul\":11664:11688   */\n      tag_261\n      jump\t// in\n    tag_357:\n        /* \"#utility.yul\":11657:11662   */\n      dup2\n        /* \"#utility.yul\":11654:11689   */\n      eq\n        /* \"#utility.yul\":11644:11646   */\n      tag_358\n      jumpi\n        /* \"#utility.yul\":11703:11704   */\n      0x00\n        /* \"#utility.yul\":11700:11701   */\n      dup1\n        /* \"#utility.yul\":11693:11705   */\n      revert\n        /* \"#utility.yul\":11644:11646   */\n    tag_358:\n        /* \"#utility.yul\":11634:11713   */\n      pop\n      jump\t// out\n        /* \"#utility.yul\":11719:11824   */\n    tag_237:\n        /* \"#utility.yul\":11798:11799   */\n      0x04\n        /* \"#utility.yul\":11791:11796   */\n      dup2\n        /* \"#utility.yul\":11788:11800   */\n      lt\n        /* \"#utility.yul\":11778:11780   */\n      tag_360\n      jumpi\n        /* \"#utility.yul\":11814:11815   */\n      0x00\n        /* \"#utility.yul\":11811:11812   */\n      dup1\n        /* \"#utility.yul\":11804:11816   */\n      revert\n        /* \"#utility.yul\":11778:11780   */\n    tag_360:\n        /* \"#utility.yul\":11768:11824   */\n      pop\n      jump\t// out\n\n    auxdata: 0xa2646970667358221220e289b816f68bf9987c724f3c818eda2f513363cf1a799e3d07b53583e78c246a64736f6c63430008010033\n}\n",
				"bytecode": {
					"linkReferences": {},
					"object": "60806040523480156200001157600080fd5b5060405162003b0a38038062003b0a833981810160405281019062000037919062001372565b336000806101000a81548173ffffffffffffffffffffffffffffffffffffffff021916908373ffffffffffffffffffffffffffffffffffffffff1602179055506200008b33848484620000ba60201b60201c565b6200009e336000620003a560201b60201c565b620000b1336003620007f060201b60201c565b50505062001710565b83600073ffffffffffffffffffffffffffffffffffffffff16600160008373ffffffffffffffffffffffffffffffffffffffff1673ffffffffffffffffffffffffffffffffffffffff16815260200190815260200160002060000160009054906101000a900473ffffffffffffffffffffffffffffffffffffffff1673ffffffffffffffffffffffffffffffffffffffff16146200018f576040517f08c379a00000000000000000000000000000000000000000000000000000000081526004016200018690620014cc565b60405180910390fd5b6000604051806080016040528060001515815260200160001515815260200160001515815260200160011515815250905060006040518060c001604052808873ffffffffffffffffffffffffffffffffffffffff16815260200187815260200186815260200185815260200160011515815260200183815250905080600160008973ffffffffffffffffffffffffffffffffffffffff1673ffffffffffffffffffffffffffffffffffffffff16815260200190815260200160002060008201518160000160006101000a81548173ffffffffffffffffffffffffffffffffffffffff021916908373ffffffffffffffffffffffffffffffffffffffff1602179055506020820151816001019080519060200190620002af92919062001250565b506040820151816002019080519060200190620002ce92919062001250565b506060820151816003019080519060200190620002ed92919062001250565b5060808201518160040160006101000a81548160ff02191690831515021790555060a08201518160050160008201518160000160006101000a81548160ff02191690831515021790555060208201518160000160016101000a81548160ff02191690831515021790555060408201518160000160026101000a81548160ff02191690831515021790555060608201518160000160036101000a81548160ff021916908315150217905550505090505050505050505050565b60008054906101000a900473ffffffffffffffffffffffffffffffffffffffff1673ffffffffffffffffffffffffffffffffffffffff163373ffffffffffffffffffffffffffffffffffffffff1614806200040d57506200040c3362000ce560201b60201c565b5b6200044f576040517f08c379a0000000000000000000000000000000000000000000000000000000008152600401620004469062001488565b60405180910390fd5b81600073ffffffffffffffffffffffffffffffffffffffff16600160008373ffffffffffffffffffffffffffffffffffffffff1673ffffffffffffffffffffffffffffffffffffffff16815260200190815260200160002060000160009054906101000a900473ffffffffffffffffffffffffffffffffffffffff1673ffffffffffffffffffffffffffffffffffffffff16141562000525576040517f08c379a00000000000000000000000000000000000000000000000000000000081526004016200051c90620014aa565b60405180910390fd5b6000600160008573ffffffffffffffffffffffffffffffffffffffff1673ffffffffffffffffffffffffffffffffffffffff1681526020019081526020016000209050600081600501905060006003811115620005ab577f4e487b7100000000000000000000000000000000000000000000000000000000600052602160045260246000fd5b846003811115620005e5577f4e487b7100000000000000000000000000000000000000000000000000000000600052602160045260246000fd5b14156200060f5760018160000160006101000a81548160ff021916908315150217905550620007e9565b600160038111156200064a577f4e487b7100000000000000000000000000000000000000000000000000000000600052602160045260246000fd5b84600381111562000684577f4e487b7100000000000000000000000000000000000000000000000000000000600052602160045260246000fd5b1415620006ae5760018160000160016101000a81548160ff021916908315150217905550620007e8565b60026003811115620006e9577f4e487b7100000000000000000000000000000000000000000000000000000000600052602160045260246000fd5b84600381111562000723577f4e487b7100000000000000000000000000000000000000000000000000000000600052602160045260246000fd5b14156200074d5760018160000160026101000a81548160ff021916908315150217905550620007e7565b60038081111562000787577f4e487b7100000000000000000000000000000000000000000000000000000000600052602160045260246000fd5b846003811115620007c1577f4e487b7100000000000000000000000000000000000000000000000000000000600052602160045260246000fd5b1415620007e65760018160000160036101000a81548160ff0219169083151502179055505b5b5b5b5050505050565b60008054906101000a900473ffffffffffffffffffffffffffffffffffffffff1673ffffffffffffffffffffffffffffffffffffffff163373ffffffffffffffffffffffffffffffffffffffff161480620008585750620008573362000ce560201b60201c565b5b6200089a576040517f08c379a0000000000000000000000000000000000000000000000000000000008152600401620008919062001488565b60405180910390fd5b81600073ffffffffffffffffffffffffffffffffffffffff16600160008373ffffffffffffffffffffffffffffffffffffffff1673ffffffffffffffffffffffffffffffffffffffff16815260200190815260200160002060000160009054906101000a900473ffffffffffffffffffffffffffffffffffffffff1673ffffffffffffffffffffffffffffffffffffffff16141562000970576040517f08c379a00000000000000000000000000000000000000000000000000000000081526004016200096790620014aa565b60405180910390fd5b6000600160008573ffffffffffffffffffffffffffffffffffffffff1673ffffffffffffffffffffffffffffffffffffffff1681526020019081526020016000209050600081600501905060006003811115620009f6577f4e487b7100000000000000000000000000000000000000000000000000000000600052602160045260246000fd5b84600381111562000a30577f4e487b7100000000000000000000000000000000000000000000000000000000600052602160045260246000fd5b141562000a5a5760008160000160006101000a81548160ff02191690831515021790555062000c34565b6001600381111562000a95577f4e487b7100000000000000000000000000000000000000000000000000000000600052602160045260246000fd5b84600381111562000acf577f4e487b7100000000000000000000000000000000000000000000000000000000600052602160045260246000fd5b141562000af95760008160000160016101000a81548160ff02191690831515021790555062000c33565b6002600381111562000b34577f4e487b7100000000000000000000000000000000000000000000000000000000600052602160045260246000fd5b84600381111562000b6e577f4e487b7100000000000000000000000000000000000000000000000000000000600052602160045260246000fd5b141562000b985760008160000160026101000a81548160ff02191690831515021790555062000c32565b60038081111562000bd2577f4e487b7100000000000000000000000000000000000000000000000000000000600052602160045260246000fd5b84600381111562000c0c577f4e487b7100000000000000000000000000000000000000000000000000000000600052602160045260246000fd5b141562000c315760008160000160036101000a81548160ff0219169083151502179055505b5b5b5b8060000160009054906101000a900460ff1615801562000c6357508060000160019054906101000a900460ff16155b801562000c7f57508060000160029054906101000a900460ff16155b1562000cde576000600260008773ffffffffffffffffffffffffffffffffffffffff1673ffffffffffffffffffffffffffffffffffffffff16815260200190815260200160002060006101000a81548160ff0219169083151502179055505b5050505050565b600062000cfa82600062000d0160201b60201c565b9050919050565b600080600160008573ffffffffffffffffffffffffffffffffffffffff1673ffffffffffffffffffffffffffffffffffffffff1681526020019081526020016000206040518060c00160405290816000820160009054906101000a900473ffffffffffffffffffffffffffffffffffffffff1673ffffffffffffffffffffffffffffffffffffffff1673ffffffffffffffffffffffffffffffffffffffff16815260200160018201805462000db69062001594565b80601f016020809104026020016040519081016040528092919081815260200182805462000de49062001594565b801562000e355780601f1062000e095761010080835404028352916020019162000e35565b820191906000526020600020905b81548152906001019060200180831162000e1757829003601f168201915b5050505050815260200160028201805462000e509062001594565b80601f016020809104026020016040519081016040528092919081815260200182805462000e7e9062001594565b801562000ecf5780601f1062000ea35761010080835404028352916020019162000ecf565b820191906000526020600020905b81548152906001019060200180831162000eb157829003601f168201915b5050505050815260200160038201805462000eea9062001594565b80601f016020809104026020016040519081016040528092919081815260200182805462000f189062001594565b801562000f695780601f1062000f3d5761010080835404028352916020019162000f69565b820191906000526020600020905b81548152906001019060200180831162000f4b57829003601f168201915b505050505081526020016004820160009054906101000a900460ff16151515158152602001600582016040518060800160405290816000820160009054906101000a900460ff161515151581526020016000820160019054906101000a900460ff161515151581526020016000820160029054906101000a900460ff161515151581526020016000820160039054906101000a900460ff16151515158152505081525050905060008160a0015190506000600381111562001053577f4e487b7100000000000000000000000000000000000000000000000000000000600052602160045260246000fd5b8460038111156200108d577f4e487b7100000000000000000000000000000000000000000000000000000000600052602160045260246000fd5b1415620010a3578060000151925050506200124a565b60016003811115620010de577f4e487b7100000000000000000000000000000000000000000000000000000000600052602160045260246000fd5b84600381111562001118577f4e487b7100000000000000000000000000000000000000000000000000000000600052602160045260246000fd5b14156200112e578060200151925050506200124a565b6002600381111562001169577f4e487b7100000000000000000000000000000000000000000000000000000000600052602160045260246000fd5b846003811115620011a3577f4e487b7100000000000000000000000000000000000000000000000000000000600052602160045260246000fd5b1415620011b9578060400151925050506200124a565b600380811115620011f3577f4e487b7100000000000000000000000000000000000000000000000000000000600052602160045260246000fd5b8460038111156200122d577f4e487b7100000000000000000000000000000000000000000000000000000000600052602160045260246000fd5b141562001243578060600151925050506200124a565b6000925050505b92915050565b8280546200125e9062001594565b90600052602060002090601f016020900481019282620012825760008555620012ce565b82601f106200129d57805160ff1916838001178555620012ce565b82800160010185558215620012ce579182015b82811115620012cd578251825591602001919060010190620012b0565b5b509050620012dd9190620012e1565b5090565b5b80821115620012fc576000816000905550600101620012e2565b5090565b600062001317620013118462001517565b620014ee565b9050828152602081018484840111156200133057600080fd5b6200133d8482856200155e565b509392505050565b600082601f8301126200135757600080fd5b81516200136984826020860162001300565b91505092915050565b6000806000606084860312156200138857600080fd5b600084015167ffffffffffffffff811115620013a357600080fd5b620013b18682870162001345565b935050602084015167ffffffffffffffff811115620013cf57600080fd5b620013dd8682870162001345565b925050604084015167ffffffffffffffff811115620013fb57600080fd5b620014098682870162001345565b9150509250925092565b6000620014226022836200154d565b91506200142f826200166f565b604082019050919050565b6000620014496015836200154d565b91506200145682620016be565b602082019050919050565b6000620014706016836200154d565b91506200147d82620016e7565b602082019050919050565b60006020820190508181036000830152620014a38162001413565b9050919050565b60006020820190508181036000830152620014c5816200143a565b9050919050565b60006020820190508181036000830152620014e78162001461565b9050919050565b6000620014fa6200150d565b9050620015088282620015ca565b919050565b6000604051905090565b600067ffffffffffffffff8211156200153557620015346200162f565b5b62001540826200165e565b9050602081019050919050565b600082825260208201905092915050565b60005b838110156200157e57808201518184015260208101905062001561565b838111156200158e576000848401525b50505050565b60006002820490506001821680620015ad57607f821691505b60208210811415620015c457620015c362001600565b5b50919050565b620015d5826200165e565b810181811067ffffffffffffffff82111715620015f757620015f66200162f565b5b80604052505050565b7f4e487b7100000000000000000000000000000000000000000000000000000000600052602260045260246000fd5b7f4e487b7100000000000000000000000000000000000000000000000000000000600052604160045260246000fd5b6000601f19601f8301169050919050565b7f4f6e6c79206f776e65722063616e2063616c6c20746869732066756e6374696f60008201527f6e2e000000000000000000000000000000000000000000000000000000000000602082015250565b7f4163636f756e7420646f65736e27742065786973740000000000000000000000600082015250565b7f4163636f756e7420616c72656164792065786973747300000000000000000000600082015250565b6123ea80620017206000396000f3fe608060405234801561001057600080fd5b50600436106100cf5760003560e01c8063a1aea04a1161008c578063d3a5059a11610066578063d3a5059a14610227578063dee94b4a14610243578063e8621e591461025f578063fa4d7aae1461028f576100cf565b8063a1aea04a146101ba578063a87430ba146101d6578063b74866fb1461020b576100cf565b8063056909b7146100d4578063297027d51461010457806349587281146101345780635d3694b914610150578063630a195b146101805780638da5cb5b1461019c575b600080fd5b6100ee60048036038101906100e99190611de7565b6102bf565b6040516100fb91906120ad565b60405180910390f35b61011e60048036038101906101199190611de7565b6102d3565b60405161012b91906120ad565b60405180910390f35b61014e60048036038101906101499190611de7565b6102e7565b005b61016a60048036038101906101659190611de7565b610477565b60405161017791906120ad565b60405180910390f35b61019a60048036038101906101959190611e10565b610497565b005b6101a46108c4565b6040516101b1919061201b565b60405180910390f35b6101d460048036038101906101cf9190611de7565b6108e8565b005b6101f060048036038101906101eb9190611de7565b610b1b565b60405161020296959493929190612036565b60405180910390f35b61022560048036038101906102209190611e10565b610d92565b005b610241600480360381019061023c9190611de7565b611266565b005b61025d60048036038101906102589190611e4c565b611441565b005b61027960048036038101906102749190611de7565b611723565b60405161028691906120ad565b60405180910390f35b6102a960048036038101906102a49190611de7565b611737565b6040516102b691906120ad565b60405180910390f35b60006102cc82600261174b565b9050919050565b60006102e082600061174b565b9050919050565b80600073ffffffffffffffffffffffffffffffffffffffff16600160008373ffffffffffffffffffffffffffffffffffffffff1673ffffffffffffffffffffffffffffffffffffffff16815260200190815260200160002060000160009054906101000a900473ffffffffffffffffffffffffffffffffffffffff1673ffffffffffffffffffffffffffffffffffffffff1614156103ba576040517f08c379a00000000000000000000000000000000000000000000000000000000081526004016103b1906120e8565b60405180910390fd5b6000600160008473ffffffffffffffffffffffffffffffffffffffff1673ffffffffffffffffffffffffffffffffffffffff168152602001908152602001600020905060008160040160006101000a81548160ff0219169083151502179055506000600260008573ffffffffffffffffffffffffffffffffffffffff1673ffffffffffffffffffffffffffffffffffffffff16815260200190815260200160002060006101000a81548160ff021916908315150217905550505050565b60026020528060005260406000206000915054906101000a900460ff1681565b60008054906101000a900473ffffffffffffffffffffffffffffffffffffffff1673ffffffffffffffffffffffffffffffffffffffff163373ffffffffffffffffffffffffffffffffffffffff1614806104f657506104f5336102d3565b5b610535576040517f08c379a000000000000000000000000000000000000000000000000000000000815260040161052c906120c8565b60405180910390fd5b81600073ffffffffffffffffffffffffffffffffffffffff16600160008373ffffffffffffffffffffffffffffffffffffffff1673ffffffffffffffffffffffffffffffffffffffff16815260200190815260200160002060000160009054906101000a900473ffffffffffffffffffffffffffffffffffffffff1673ffffffffffffffffffffffffffffffffffffffff161415610608576040517f08c379a00000000000000000000000000000000000000000000000000000000081526004016105ff906120e8565b60405180910390fd5b6000600160008573ffffffffffffffffffffffffffffffffffffffff1673ffffffffffffffffffffffffffffffffffffffff168152602001908152602001600020905060008160050190506000600381111561068d577f4e487b7100000000000000000000000000000000000000000000000000000000600052602160045260246000fd5b8460038111156106c6577f4e487b7100000000000000000000000000000000000000000000000000000000600052602160045260246000fd5b14156106ee5760018160000160006101000a81548160ff0219169083151502179055506108bd565b60016003811115610728577f4e487b7100000000000000000000000000000000000000000000000000000000600052602160045260246000fd5b846003811115610761577f4e487b7100000000000000000000000000000000000000000000000000000000600052602160045260246000fd5b14156107895760018160000160016101000a81548160ff0219169083151502179055506108bc565b600260038111156107c3577f4e487b7100000000000000000000000000000000000000000000000000000000600052602160045260246000fd5b8460038111156107fc577f4e487b7100000000000000000000000000000000000000000000000000000000600052602160045260246000fd5b14156108245760018160000160026101000a81548160ff0219169083151502179055506108bb565b60038081111561085d577f4e487b7100000000000000000000000000000000000000000000000000000000600052602160045260246000fd5b846003811115610896577f4e487b7100000000000000000000000000000000000000000000000000000000600052602160045260246000fd5b14156108ba5760018160000160036101000a81548160ff0219169083151502179055505b5b5b5b5050505050565b60008054906101000a900473ffffffffffffffffffffffffffffffffffffffff1681565b80600073ffffffffffffffffffffffffffffffffffffffff16600160008373ffffffffffffffffffffffffffffffffffffffff1673ffffffffffffffffffffffffffffffffffffffff16815260200190815260200160002060000160009054906101000a900473ffffffffffffffffffffffffffffffffffffffff1673ffffffffffffffffffffffffffffffffffffffff1614156109bb576040517f08c379a00000000000000000000000000000000000000000000000000000000081526004016109b2906120e8565b60405180910390fd5b6000600160008473ffffffffffffffffffffffffffffffffffffffff1673ffffffffffffffffffffffffffffffffffffffff168152602001908152602001600020905060018160040160006101000a81548160ff0219169083151502179055506000816005016040518060800160405290816000820160009054906101000a900460ff161515151581526020016000820160019054906101000a900460ff161515151581526020016000820160029054906101000a900460ff161515151581526020016000820160039054906101000a900460ff1615151515815250509050806000015180610aab575080602001515b80610ab7575080604001515b15610b15576001600260008673ffffffffffffffffffffffffffffffffffffffff1673ffffffffffffffffffffffffffffffffffffffff16815260200190815260200160002060006101000a81548160ff0219169083151502179055505b50505050565b60016020528060005260406000206000915090508060000160009054906101000a900473ffffffffffffffffffffffffffffffffffffffff1690806001018054610b649061221a565b80601f0160208091040260200160405190810160405280929190818152602001828054610b909061221a565b8015610bdd5780601f10610bb257610100808354040283529160200191610bdd565b820191906000526020600020905b815481529060010190602001808311610bc057829003601f168201915b505050505090806002018054610bf29061221a565b80601f0160208091040260200160405190810160405280929190818152602001828054610c1e9061221a565b8015610c6b5780601f10610c4057610100808354040283529160200191610c6b565b820191906000526020600020905b815481529060010190602001808311610c4e57829003601f168201915b505050505090806003018054610c809061221a565b80601f0160208091040260200160405190810160405280929190818152602001828054610cac9061221a565b8015610cf95780601f10610cce57610100808354040283529160200191610cf9565b820191906000526020600020905b815481529060010190602001808311610cdc57829003601f168201915b5050505050908060040160009054906101000a900460ff1690806005016040518060800160405290816000820160009054906101000a900460ff161515151581526020016000820160019054906101000a900460ff161515151581526020016000820160029054906101000a900460ff161515151581526020016000820160039054906101000a900460ff161515151581525050905086565b60008054906101000a900473ffffffffffffffffffffffffffffffffffffffff1673ffffffffffffffffffffffffffffffffffffffff163373ffffffffffffffffffffffffffffffffffffffff161480610df15750610df0336102d3565b5b610e30576040517f08c379a0000000000000000000000000000000000000000000000000000000008152600401610e27906120c8565b60405180910390fd5b81600073ffffffffffffffffffffffffffffffffffffffff16600160008373ffffffffffffffffffffffffffffffffffffffff1673ffffffffffffffffffffffffffffffffffffffff16815260200190815260200160002060000160009054906101000a900473ffffffffffffffffffffffffffffffffffffffff1673ffffffffffffffffffffffffffffffffffffffff161415610f03576040517f08c379a0000000000000000000000000000000000000000000000000000000008152600401610efa906120e8565b60405180910390fd5b6000600160008573ffffffffffffffffffffffffffffffffffffffff1673ffffffffffffffffffffffffffffffffffffffff1681526020019081526020016000209050600081600501905060006003811115610f88577f4e487b7100000000000000000000000000000000000000000000000000000000600052602160045260246000fd5b846003811115610fc1577f4e487b7100000000000000000000000000000000000000000000000000000000600052602160045260246000fd5b1415610fe95760008160000160006101000a81548160ff0219169083151502179055506111b8565b60016003811115611023577f4e487b7100000000000000000000000000000000000000000000000000000000600052602160045260246000fd5b84600381111561105c577f4e487b7100000000000000000000000000000000000000000000000000000000600052602160045260246000fd5b14156110845760008160000160016101000a81548160ff0219169083151502179055506111b7565b600260038111156110be577f4e487b7100000000000000000000000000000000000000000000000000000000600052602160045260246000fd5b8460038111156110f7577f4e487b7100000000000000000000000000000000000000000000000000000000600052602160045260246000fd5b141561111f5760008160000160026101000a81548160ff0219169083151502179055506111b6565b600380811115611158577f4e487b7100000000000000000000000000000000000000000000000000000000600052602160045260246000fd5b846003811115611191577f4e487b7100000000000000000000000000000000000000000000000000000000600052602160045260246000fd5b14156111b55760008160000160036101000a81548160ff0219169083151502179055505b5b5b5b8060000160009054906101000a900460ff161580156111e657508060000160019054906101000a900460ff16155b801561120157508060000160029054906101000a900460ff16155b1561125f576000600260008773ffffffffffffffffffffffffffffffffffffffff1673ffffffffffffffffffffffffffffffffffffffff16815260200190815260200160002060006101000a81548160ff0219169083151502179055505b5050505050565b80600073ffffffffffffffffffffffffffffffffffffffff16600160008373ffffffffffffffffffffffffffffffffffffffff1673ffffffffffffffffffffffffffffffffffffffff16815260200190815260200160002060000160009054906101000a900473ffffffffffffffffffffffffffffffffffffffff1673ffffffffffffffffffffffffffffffffffffffff161415611339576040517f08c379a0000000000000000000000000000000000000000000000000000000008152600401611330906120e8565b60405180910390fd5b600160008373ffffffffffffffffffffffffffffffffffffffff1673ffffffffffffffffffffffffffffffffffffffff168152602001908152602001600020600080820160006101000a81549073ffffffffffffffffffffffffffffffffffffffff02191690556001820160006113b09190611c72565b6002820160006113c09190611c72565b6003820160006113d09190611c72565b6004820160006101000a81549060ff021916905560058201600080820160006101000a81549060ff02191690556000820160016101000a81549060ff02191690556000820160026101000a81549060ff02191690556000820160036101000a81549060ff0219169055505050505050565b83600073ffffffffffffffffffffffffffffffffffffffff16600160008373ffffffffffffffffffffffffffffffffffffffff1673ffffffffffffffffffffffffffffffffffffffff16815260200190815260200160002060000160009054906101000a900473ffffffffffffffffffffffffffffffffffffffff1673ffffffffffffffffffffffffffffffffffffffff1614611513576040517f08c379a000000000000000000000000000000000000000000000000000000000815260040161150a90612108565b60405180910390fd5b6000604051806080016040528060001515815260200160001515815260200160001515815260200160011515815250905060006040518060c001604052808873ffffffffffffffffffffffffffffffffffffffff16815260200187815260200186815260200185815260200160011515815260200183815250905080600160008973ffffffffffffffffffffffffffffffffffffffff1673ffffffffffffffffffffffffffffffffffffffff16815260200190815260200160002060008201518160000160006101000a81548173ffffffffffffffffffffffffffffffffffffffff021916908373ffffffffffffffffffffffffffffffffffffffff1602179055506020820151816001019080519060200190611631929190611cb2565b50604082015181600201908051906020019061164e929190611cb2565b50606082015181600301908051906020019061166b929190611cb2565b5060808201518160040160006101000a81548160ff02191690831515021790555060a08201518160050160008201518160000160006101000a81548160ff02191690831515021790555060208201518160000160016101000a81548160ff02191690831515021790555060408201518160000160026101000a81548160ff02191690831515021790555060608201518160000160036101000a81548160ff021916908315150217905550505090505050505050505050565b600061173082600361174b565b9050919050565b600061174482600161174b565b9050919050565b600080600160008573ffffffffffffffffffffffffffffffffffffffff1673ffffffffffffffffffffffffffffffffffffffff1681526020019081526020016000206040518060c00160405290816000820160009054906101000a900473ffffffffffffffffffffffffffffffffffffffff1673ffffffffffffffffffffffffffffffffffffffff1673ffffffffffffffffffffffffffffffffffffffff1681526020016001820180546117fe9061221a565b80601f016020809104026020016040519081016040528092919081815260200182805461182a9061221a565b80156118775780601f1061184c57610100808354040283529160200191611877565b820191906000526020600020905b81548152906001019060200180831161185a57829003601f168201915b505050505081526020016002820180546118909061221a565b80601f01602080910402602001604051908101604052809291908181526020018280546118bc9061221a565b80156119095780601f106118de57610100808354040283529160200191611909565b820191906000526020600020905b8154815290600101906020018083116118ec57829003601f168201915b505050505081526020016003820180546119229061221a565b80601f016020809104026020016040519081016040528092919081815260200182805461194e9061221a565b801561199b5780601f106119705761010080835404028352916020019161199b565b820191906000526020600020905b81548152906001019060200180831161197e57829003601f168201915b505050505081526020016004820160009054906101000a900460ff16151515158152602001600582016040518060800160405290816000820160009054906101000a900460ff161515151581526020016000820160019054906101000a900460ff161515151581526020016000820160029054906101000a900460ff161515151581526020016000820160039054906101000a900460ff16151515158152505081525050905060008160a00151905060006003811115611a84577f4e487b7100000000000000000000000000000000000000000000000000000000600052602160045260246000fd5b846003811115611abd577f4e487b7100000000000000000000000000000000000000000000000000000000600052602160045260246000fd5b1415611ad157806000015192505050611c6c565b60016003811115611b0b577f4e487b7100000000000000000000000000000000000000000000000000000000600052602160045260246000fd5b846003811115611b44577f4e487b7100000000000000000000000000000000000000000000000000000000600052602160045260246000fd5b1415611b5857806020015192505050611c6c565b60026003811115611b92577f4e487b7100000000000000000000000000000000000000000000000000000000600052602160045260246000fd5b846003811115611bcb577f4e487b7100000000000000000000000000000000000000000000000000000000600052602160045260246000fd5b1415611bdf57806040015192505050611c6c565b600380811115611c18577f4e487b7100000000000000000000000000000000000000000000000000000000600052602160045260246000fd5b846003811115611c51577f4e487b7100000000000000000000000000000000000000000000000000000000600052602160045260246000fd5b1415611c6557806060015192505050611c6c565b6000925050505b92915050565b508054611c7e9061221a565b6000825580601f10611c905750611caf565b601f016020900490600052602060002090810190611cae9190611d38565b5b50565b828054611cbe9061221a565b90600052602060002090601f016020900481019282611ce05760008555611d27565b82601f10611cf957805160ff1916838001178555611d27565b82800160010185558215611d27579182015b82811115611d26578251825591602001919060010190611d0b565b5b509050611d349190611d38565b5090565b5b80821115611d51576000816000905550600101611d39565b5090565b6000611d68611d638461214d565b612128565b905082815260208101848484011115611d8057600080fd5b611d8b8482856121d8565b509392505050565b600081359050611da28161238d565b92915050565b600081359050611db7816123a4565b92915050565b600082601f830112611dce57600080fd5b8135611dde848260208601611d55565b91505092915050565b600060208284031215611df957600080fd5b6000611e0784828501611d93565b91505092915050565b60008060408385031215611e2357600080fd5b6000611e3185828601611d93565b9250506020611e4285828601611da8565b9150509250929050565b60008060008060808587031215611e6257600080fd5b6000611e7087828801611d93565b945050602085013567ffffffffffffffff811115611e8d57600080fd5b611e9987828801611dbd565b935050604085013567ffffffffffffffff811115611eb657600080fd5b611ec287828801611dbd565b925050606085013567ffffffffffffffff811115611edf57600080fd5b611eeb87828801611dbd565b91505092959194509250565b611f008161219a565b82525050565b611f0f816121ac565b82525050565b611f1e816121ac565b82525050565b6000611f2f8261217e565b611f398185612189565b9350611f498185602086016121e7565b611f52816122db565b840191505092915050565b6000611f6a602283612189565b9150611f75826122ec565b604082019050919050565b6000611f8d601583612189565b9150611f988261233b565b602082019050919050565b6000611fb0601683612189565b9150611fbb82612364565b602082019050919050565b608082016000820151611fdc6000850182611f06565b506020820151611fef6020850182611f06565b5060408201516120026040850182611f06565b5060608201516120156060850182611f06565b50505050565b60006020820190506120306000830184611ef7565b92915050565b60006101208201905061204c6000830189611ef7565b818103602083015261205e8188611f24565b905081810360408301526120728187611f24565b905081810360608301526120868186611f24565b90506120956080830185611f15565b6120a260a0830184611fc6565b979650505050505050565b60006020820190506120c26000830184611f15565b92915050565b600060208201905081810360008301526120e181611f5d565b9050919050565b6000602082019050818103600083015261210181611f80565b9050919050565b6000602082019050818103600083015261212181611fa3565b9050919050565b6000612132612143565b905061213e828261224c565b919050565b6000604051905090565b600067ffffffffffffffff821115612168576121676122ac565b5b612171826122db565b9050602081019050919050565b600081519050919050565b600082825260208201905092915050565b60006121a5826121b8565b9050919050565b60008115159050919050565b600073ffffffffffffffffffffffffffffffffffffffff82169050919050565b82818337600083830152505050565b60005b838110156122055780820151818401526020810190506121ea565b83811115612214576000848401525b50505050565b6000600282049050600182168061223257607f821691505b602082108114156122465761224561227d565b5b50919050565b612255826122db565b810181811067ffffffffffffffff82111715612274576122736122ac565b5b80604052505050565b7f4e487b7100000000000000000000000000000000000000000000000000000000600052602260045260246000fd5b7f4e487b7100000000000000000000000000000000000000000000000000000000600052604160045260246000fd5b6000601f19601f8301169050919050565b7f4f6e6c79206f776e65722063616e2063616c6c20746869732066756e6374696f60008201527f6e2e000000000000000000000000000000000000000000000000000000000000602082015250565b7f4163636f756e7420646f65736e27742065786973740000000000000000000000600082015250565b7f4163636f756e7420616c72656164792065786973747300000000000000000000600082015250565b6123968161219a565b81146123a157600080fd5b50565b600481106123b157600080fd5b5056fea2646970667358221220e289b816f68bf9987c724f3c818eda2f513363cf1a799e3d07b53583e78c246a64736f6c63430008010033",
					"opcodes": "PUSH1 0x80 PUSH1 0x40 MSTORE CALLVALUE DUP1 ISZERO PUSH3 0x11 JUMPI PUSH1 0x0 DUP1 REVERT JUMPDEST POP PUSH1 0x40 MLOAD PUSH3 0x3B0A CODESIZE SUB DUP1 PUSH3 0x3B0A DUP4 CODECOPY DUP2 DUP2 ADD PUSH1 0x40 MSTORE DUP2 ADD SWAP1 PUSH3 0x37 SWAP2 SWAP1 PUSH3 0x1372 JUMP JUMPDEST CALLER PUSH1 0x0 DUP1 PUSH2 0x100 EXP DUP2 SLOAD DUP2 PUSH20 0xFFFFFFFFFFFFFFFFFFFFFFFFFFFFFFFFFFFFFFFF MUL NOT AND SWAP1 DUP4 PUSH20 0xFFFFFFFFFFFFFFFFFFFFFFFFFFFFFFFFFFFFFFFF AND MUL OR SWAP1 SSTORE POP PUSH3 0x8B CALLER DUP5 DUP5 DUP5 PUSH3 0xBA PUSH1 0x20 SHL PUSH1 0x20 SHR JUMP JUMPDEST PUSH3 0x9E CALLER PUSH1 0x0 PUSH3 0x3A5 PUSH1 0x20 SHL PUSH1 0x20 SHR JUMP JUMPDEST PUSH3 0xB1 CALLER PUSH1 0x3 PUSH3 0x7F0 PUSH1 0x20 SHL PUSH1 0x20 SHR JUMP JUMPDEST POP POP POP PUSH3 0x1710 JUMP JUMPDEST DUP4 PUSH1 0x0 PUSH20 0xFFFFFFFFFFFFFFFFFFFFFFFFFFFFFFFFFFFFFFFF AND PUSH1 0x1 PUSH1 0x0 DUP4 PUSH20 0xFFFFFFFFFFFFFFFFFFFFFFFFFFFFFFFFFFFFFFFF AND PUSH20 0xFFFFFFFFFFFFFFFFFFFFFFFFFFFFFFFFFFFFFFFF AND DUP2 MSTORE PUSH1 0x20 ADD SWAP1 DUP2 MSTORE PUSH1 0x20 ADD PUSH1 0x0 KECCAK256 PUSH1 0x0 ADD PUSH1 0x0 SWAP1 SLOAD SWAP1 PUSH2 0x100 EXP SWAP1 DIV PUSH20 0xFFFFFFFFFFFFFFFFFFFFFFFFFFFFFFFFFFFFFFFF AND PUSH20 0xFFFFFFFFFFFFFFFFFFFFFFFFFFFFFFFFFFFFFFFF AND EQ PUSH3 0x18F JUMPI PUSH1 0x40 MLOAD PUSH32 0x8C379A000000000000000000000000000000000000000000000000000000000 DUP2 MSTORE PUSH1 0x4 ADD PUSH3 0x186 SWAP1 PUSH3 0x14CC JUMP JUMPDEST PUSH1 0x40 MLOAD DUP1 SWAP2 SUB SWAP1 REVERT JUMPDEST PUSH1 0x0 PUSH1 0x40 MLOAD DUP1 PUSH1 0x80 ADD PUSH1 0x40 MSTORE DUP1 PUSH1 0x0 ISZERO ISZERO DUP2 MSTORE PUSH1 0x20 ADD PUSH1 0x0 ISZERO ISZERO DUP2 MSTORE PUSH1 0x20 ADD PUSH1 0x0 ISZERO ISZERO DUP2 MSTORE PUSH1 0x20 ADD PUSH1 0x1 ISZERO ISZERO DUP2 MSTORE POP SWAP1 POP PUSH1 0x0 PUSH1 0x40 MLOAD DUP1 PUSH1 0xC0 ADD PUSH1 0x40 MSTORE DUP1 DUP9 PUSH20 0xFFFFFFFFFFFFFFFFFFFFFFFFFFFFFFFFFFFFFFFF AND DUP2 MSTORE PUSH1 0x20 ADD DUP8 DUP2 MSTORE PUSH1 0x20 ADD DUP7 DUP2 MSTORE PUSH1 0x20 ADD DUP6 DUP2 MSTORE PUSH1 0x20 ADD PUSH1 0x1 ISZERO ISZERO DUP2 MSTORE PUSH1 0x20 ADD DUP4 DUP2 MSTORE POP SWAP1 POP DUP1 PUSH1 0x1 PUSH1 0x0 DUP10 PUSH20 0xFFFFFFFFFFFFFFFFFFFFFFFFFFFFFFFFFFFFFFFF AND PUSH20 0xFFFFFFFFFFFFFFFFFFFFFFFFFFFFFFFFFFFFFFFF AND DUP2 MSTORE PUSH1 0x20 ADD SWAP1 DUP2 MSTORE PUSH1 0x20 ADD PUSH1 0x0 KECCAK256 PUSH1 0x0 DUP3 ADD MLOAD DUP2 PUSH1 0x0 ADD PUSH1 0x0 PUSH2 0x100 EXP DUP2 SLOAD DUP2 PUSH20 0xFFFFFFFFFFFFFFFFFFFFFFFFFFFFFFFFFFFFFFFF MUL NOT AND SWAP1 DUP4 PUSH20 0xFFFFFFFFFFFFFFFFFFFFFFFFFFFFFFFFFFFFFFFF AND MUL OR SWAP1 SSTORE POP PUSH1 0x20 DUP3 ADD MLOAD DUP2 PUSH1 0x1 ADD SWAP1 DUP1 MLOAD SWAP1 PUSH1 0x20 ADD SWAP1 PUSH3 0x2AF SWAP3 SWAP2 SWAP1 PUSH3 0x1250 JUMP JUMPDEST POP PUSH1 0x40 DUP3 ADD MLOAD DUP2 PUSH1 0x2 ADD SWAP1 DUP1 MLOAD SWAP1 PUSH1 0x20 ADD SWAP1 PUSH3 0x2CE SWAP3 SWAP2 SWAP1 PUSH3 0x1250 JUMP JUMPDEST POP PUSH1 0x60 DUP3 ADD MLOAD DUP2 PUSH1 0x3 ADD SWAP1 DUP1 MLOAD SWAP1 PUSH1 0x20 ADD SWAP1 PUSH3 0x2ED SWAP3 SWAP2 SWAP1 PUSH3 0x1250 JUMP JUMPDEST POP PUSH1 0x80 DUP3 ADD MLOAD DUP2 PUSH1 0x4 ADD PUSH1 0x0 PUSH2 0x100 EXP DUP2 SLOAD DUP2 PUSH1 0xFF MUL NOT AND SWAP1 DUP4 ISZERO ISZERO MUL OR SWAP1 SSTORE POP PUSH1 0xA0 DUP3 ADD MLOAD DUP2 PUSH1 0x5 ADD PUSH1 0x0 DUP3 ADD MLOAD DUP2 PUSH1 0x0 ADD PUSH1 0x0 PUSH2 0x100 EXP DUP2 SLOAD DUP2 PUSH1 0xFF MUL NOT AND SWAP1 DUP4 ISZERO ISZERO MUL OR SWAP1 SSTORE POP PUSH1 0x20 DUP3 ADD MLOAD DUP2 PUSH1 0x0 ADD PUSH1 0x1 PUSH2 0x100 EXP DUP2 SLOAD DUP2 PUSH1 0xFF MUL NOT AND SWAP1 DUP4 ISZERO ISZERO MUL OR SWAP1 SSTORE POP PUSH1 0x40 DUP3 ADD MLOAD DUP2 PUSH1 0x0 ADD PUSH1 0x2 PUSH2 0x100 EXP DUP2 SLOAD DUP2 PUSH1 0xFF MUL NOT AND SWAP1 DUP4 ISZERO ISZERO MUL OR SWAP1 SSTORE POP PUSH1 0x60 DUP3 ADD MLOAD DUP2 PUSH1 0x0 ADD PUSH1 0x3 PUSH2 0x100 EXP DUP2 SLOAD DUP2 PUSH1 0xFF MUL NOT AND SWAP1 DUP4 ISZERO ISZERO MUL OR SWAP1 SSTORE POP POP POP SWAP1 POP POP POP POP POP POP POP POP POP JUMP JUMPDEST PUSH1 0x0 DUP1 SLOAD SWAP1 PUSH2 0x100 EXP SWAP1 DIV PUSH20 0xFFFFFFFFFFFFFFFFFFFFFFFFFFFFFFFFFFFFFFFF AND PUSH20 0xFFFFFFFFFFFFFFFFFFFFFFFFFFFFFFFFFFFFFFFF AND CALLER PUSH20 0xFFFFFFFFFFFFFFFFFFFFFFFFFFFFFFFFFFFFFFFF AND EQ DUP1 PUSH3 0x40D JUMPI POP PUSH3 0x40C CALLER PUSH3 0xCE5 PUSH1 0x20 SHL PUSH1 0x20 SHR JUMP JUMPDEST JUMPDEST PUSH3 0x44F JUMPI PUSH1 0x40 MLOAD PUSH32 0x8C379A000000000000000000000000000000000000000000000000000000000 DUP2 MSTORE PUSH1 0x4 ADD PUSH3 0x446 SWAP1 PUSH3 0x1488 JUMP JUMPDEST PUSH1 0x40 MLOAD DUP1 SWAP2 SUB SWAP1 REVERT JUMPDEST DUP2 PUSH1 0x0 PUSH20 0xFFFFFFFFFFFFFFFFFFFFFFFFFFFFFFFFFFFFFFFF AND PUSH1 0x1 PUSH1 0x0 DUP4 PUSH20 0xFFFFFFFFFFFFFFFFFFFFFFFFFFFFFFFFFFFFFFFF AND PUSH20 0xFFFFFFFFFFFFFFFFFFFFFFFFFFFFFFFFFFFFFFFF AND DUP2 MSTORE PUSH1 0x20 ADD SWAP1 DUP2 MSTORE PUSH1 0x20 ADD PUSH1 0x0 KECCAK256 PUSH1 0x0 ADD PUSH1 0x0 SWAP1 SLOAD SWAP1 PUSH2 0x100 EXP SWAP1 DIV PUSH20 0xFFFFFFFFFFFFFFFFFFFFFFFFFFFFFFFFFFFFFFFF AND PUSH20 0xFFFFFFFFFFFFFFFFFFFFFFFFFFFFFFFFFFFFFFFF AND EQ ISZERO PUSH3 0x525 JUMPI PUSH1 0x40 MLOAD PUSH32 0x8C379A000000000000000000000000000000000000000000000000000000000 DUP2 MSTORE PUSH1 0x4 ADD PUSH3 0x51C SWAP1 PUSH3 0x14AA JUMP JUMPDEST PUSH1 0x40 MLOAD DUP1 SWAP2 SUB SWAP1 REVERT JUMPDEST PUSH1 0x0 PUSH1 0x1 PUSH1 0x0 DUP6 PUSH20 0xFFFFFFFFFFFFFFFFFFFFFFFFFFFFFFFFFFFFFFFF AND PUSH20 0xFFFFFFFFFFFFFFFFFFFFFFFFFFFFFFFFFFFFFFFF AND DUP2 MSTORE PUSH1 0x20 ADD SWAP1 DUP2 MSTORE PUSH1 0x20 ADD PUSH1 0x0 KECCAK256 SWAP1 POP PUSH1 0x0 DUP2 PUSH1 0x5 ADD SWAP1 POP PUSH1 0x0 PUSH1 0x3 DUP2 GT ISZERO PUSH3 0x5AB JUMPI PUSH32 0x4E487B7100000000000000000000000000000000000000000000000000000000 PUSH1 0x0 MSTORE PUSH1 0x21 PUSH1 0x4 MSTORE PUSH1 0x24 PUSH1 0x0 REVERT JUMPDEST DUP5 PUSH1 0x3 DUP2 GT ISZERO PUSH3 0x5E5 JUMPI PUSH32 0x4E487B7100000000000000000000000000000000000000000000000000000000 PUSH1 0x0 MSTORE PUSH1 0x21 PUSH1 0x4 MSTORE PUSH1 0x24 PUSH1 0x0 REVERT JUMPDEST EQ ISZERO PUSH3 0x60F JUMPI PUSH1 0x1 DUP2 PUSH1 0x0 ADD PUSH1 0x0 PUSH2 0x100 EXP DUP2 SLOAD DUP2 PUSH1 0xFF MUL NOT AND SWAP1 DUP4 ISZERO ISZERO MUL OR SWAP1 SSTORE POP PUSH3 0x7E9 JUMP JUMPDEST PUSH1 0x1 PUSH1 0x3 DUP2 GT ISZERO PUSH3 0x64A JUMPI PUSH32 0x4E487B7100000000000000000000000000000000000000000000000000000000 PUSH1 0x0 MSTORE PUSH1 0x21 PUSH1 0x4 MSTORE PUSH1 0x24 PUSH1 0x0 REVERT JUMPDEST DUP5 PUSH1 0x3 DUP2 GT ISZERO PUSH3 0x684 JUMPI PUSH32 0x4E487B7100000000000000000000000000000000000000000000000000000000 PUSH1 0x0 MSTORE PUSH1 0x21 PUSH1 0x4 MSTORE PUSH1 0x24 PUSH1 0x0 REVERT JUMPDEST EQ ISZERO PUSH3 0x6AE JUMPI PUSH1 0x1 DUP2 PUSH1 0x0 ADD PUSH1 0x1 PUSH2 0x100 EXP DUP2 SLOAD DUP2 PUSH1 0xFF MUL NOT AND SWAP1 DUP4 ISZERO ISZERO MUL OR SWAP1 SSTORE POP PUSH3 0x7E8 JUMP JUMPDEST PUSH1 0x2 PUSH1 0x3 DUP2 GT ISZERO PUSH3 0x6E9 JUMPI PUSH32 0x4E487B7100000000000000000000000000000000000000000000000000000000 PUSH1 0x0 MSTORE PUSH1 0x21 PUSH1 0x4 MSTORE PUSH1 0x24 PUSH1 0x0 REVERT JUMPDEST DUP5 PUSH1 0x3 DUP2 GT ISZERO PUSH3 0x723 JUMPI PUSH32 0x4E487B7100000000000000000000000000000000000000000000000000000000 PUSH1 0x0 MSTORE PUSH1 0x21 PUSH1 0x4 MSTORE PUSH1 0x24 PUSH1 0x0 REVERT JUMPDEST EQ ISZERO PUSH3 0x74D JUMPI PUSH1 0x1 DUP2 PUSH1 0x0 ADD PUSH1 0x2 PUSH2 0x100 EXP DUP2 SLOAD DUP2 PUSH1 0xFF MUL NOT AND SWAP1 DUP4 ISZERO ISZERO MUL OR SWAP1 SSTORE POP PUSH3 0x7E7 JUMP JUMPDEST PUSH1 0x3 DUP1 DUP2 GT ISZERO PUSH3 0x787 JUMPI PUSH32 0x4E487B7100000000000000000000000000000000000000000000000000000000 PUSH1 0x0 MSTORE PUSH1 0x21 PUSH1 0x4 MSTORE PUSH1 0x24 PUSH1 0x0 REVERT JUMPDEST DUP5 PUSH1 0x3 DUP2 GT ISZERO PUSH3 0x7C1 JUMPI PUSH32 0x4E487B7100000000000000000000000000000000000000000000000000000000 PUSH1 0x0 MSTORE PUSH1 0x21 PUSH1 0x4 MSTORE PUSH1 0x24 PUSH1 0x0 REVERT JUMPDEST EQ ISZERO PUSH3 0x7E6 JUMPI PUSH1 0x1 DUP2 PUSH1 0x0 ADD PUSH1 0x3 PUSH2 0x100 EXP DUP2 SLOAD DUP2 PUSH1 0xFF MUL NOT AND SWAP1 DUP4 ISZERO ISZERO MUL OR SWAP1 SSTORE POP JUMPDEST JUMPDEST JUMPDEST JUMPDEST POP POP POP POP POP JUMP JUMPDEST PUSH1 0x0 DUP1 SLOAD SWAP1 PUSH2 0x100 EXP SWAP1 DIV PUSH20 0xFFFFFFFFFFFFFFFFFFFFFFFFFFFFFFFFFFFFFFFF AND PUSH20 0xFFFFFFFFFFFFFFFFFFFFFFFFFFFFFFFFFFFFFFFF AND CALLER PUSH20 0xFFFFFFFFFFFFFFFFFFFFFFFFFFFFFFFFFFFFFFFF AND EQ DUP1 PUSH3 0x858 JUMPI POP PUSH3 0x857 CALLER PUSH3 0xCE5 PUSH1 0x20 SHL PUSH1 0x20 SHR JUMP JUMPDEST JUMPDEST PUSH3 0x89A JUMPI PUSH1 0x40 MLOAD PUSH32 0x8C379A000000000000000000000000000000000000000000000000000000000 DUP2 MSTORE PUSH1 0x4 ADD PUSH3 0x891 SWAP1 PUSH3 0x1488 JUMP JUMPDEST PUSH1 0x40 MLOAD DUP1 SWAP2 SUB SWAP1 REVERT JUMPDEST DUP2 PUSH1 0x0 PUSH20 0xFFFFFFFFFFFFFFFFFFFFFFFFFFFFFFFFFFFFFFFF AND PUSH1 0x1 PUSH1 0x0 DUP4 PUSH20 0xFFFFFFFFFFFFFFFFFFFFFFFFFFFFFFFFFFFFFFFF AND PUSH20 0xFFFFFFFFFFFFFFFFFFFFFFFFFFFFFFFFFFFFFFFF AND DUP2 MSTORE PUSH1 0x20 ADD SWAP1 DUP2 MSTORE PUSH1 0x20 ADD PUSH1 0x0 KECCAK256 PUSH1 0x0 ADD PUSH1 0x0 SWAP1 SLOAD SWAP1 PUSH2 0x100 EXP SWAP1 DIV PUSH20 0xFFFFFFFFFFFFFFFFFFFFFFFFFFFFFFFFFFFFFFFF AND PUSH20 0xFFFFFFFFFFFFFFFFFFFFFFFFFFFFFFFFFFFFFFFF AND EQ ISZERO PUSH3 0x970 JUMPI PUSH1 0x40 MLOAD PUSH32 0x8C379A000000000000000000000000000000000000000000000000000000000 DUP2 MSTORE PUSH1 0x4 ADD PUSH3 0x967 SWAP1 PUSH3 0x14AA JUMP JUMPDEST PUSH1 0x40 MLOAD DUP1 SWAP2 SUB SWAP1 REVERT JUMPDEST PUSH1 0x0 PUSH1 0x1 PUSH1 0x0 DUP6 PUSH20 0xFFFFFFFFFFFFFFFFFFFFFFFFFFFFFFFFFFFFFFFF AND PUSH20 0xFFFFFFFFFFFFFFFFFFFFFFFFFFFFFFFFFFFFFFFF AND DUP2 MSTORE PUSH1 0x20 ADD SWAP1 DUP2 MSTORE PUSH1 0x20 ADD PUSH1 0x0 KECCAK256 SWAP1 POP PUSH1 0x0 DUP2 PUSH1 0x5 ADD SWAP1 POP PUSH1 0x0 PUSH1 0x3 DUP2 GT ISZERO PUSH3 0x9F6 JUMPI PUSH32 0x4E487B7100000000000000000000000000000000000000000000000000000000 PUSH1 0x0 MSTORE PUSH1 0x21 PUSH1 0x4 MSTORE PUSH1 0x24 PUSH1 0x0 REVERT JUMPDEST DUP5 PUSH1 0x3 DUP2 GT ISZERO PUSH3 0xA30 JUMPI PUSH32 0x4E487B7100000000000000000000000000000000000000000000000000000000 PUSH1 0x0 MSTORE PUSH1 0x21 PUSH1 0x4 MSTORE PUSH1 0x24 PUSH1 0x0 REVERT JUMPDEST EQ ISZERO PUSH3 0xA5A JUMPI PUSH1 0x0 DUP2 PUSH1 0x0 ADD PUSH1 0x0 PUSH2 0x100 EXP DUP2 SLOAD DUP2 PUSH1 0xFF MUL NOT AND SWAP1 DUP4 ISZERO ISZERO MUL OR SWAP1 SSTORE POP PUSH3 0xC34 JUMP JUMPDEST PUSH1 0x1 PUSH1 0x3 DUP2 GT ISZERO PUSH3 0xA95 JUMPI PUSH32 0x4E487B7100000000000000000000000000000000000000000000000000000000 PUSH1 0x0 MSTORE PUSH1 0x21 PUSH1 0x4 MSTORE PUSH1 0x24 PUSH1 0x0 REVERT JUMPDEST DUP5 PUSH1 0x3 DUP2 GT ISZERO PUSH3 0xACF JUMPI PUSH32 0x4E487B7100000000000000000000000000000000000000000000000000000000 PUSH1 0x0 MSTORE PUSH1 0x21 PUSH1 0x4 MSTORE PUSH1 0x24 PUSH1 0x0 REVERT JUMPDEST EQ ISZERO PUSH3 0xAF9 JUMPI PUSH1 0x0 DUP2 PUSH1 0x0 ADD PUSH1 0x1 PUSH2 0x100 EXP DUP2 SLOAD DUP2 PUSH1 0xFF MUL NOT AND SWAP1 DUP4 ISZERO ISZERO MUL OR SWAP1 SSTORE POP PUSH3 0xC33 JUMP JUMPDEST PUSH1 0x2 PUSH1 0x3 DUP2 GT ISZERO PUSH3 0xB34 JUMPI PUSH32 0x4E487B7100000000000000000000000000000000000000000000000000000000 PUSH1 0x0 MSTORE PUSH1 0x21 PUSH1 0x4 MSTORE PUSH1 0x24 PUSH1 0x0 REVERT JUMPDEST DUP5 PUSH1 0x3 DUP2 GT ISZERO PUSH3 0xB6E JUMPI PUSH32 0x4E487B7100000000000000000000000000000000000000000000000000000000 PUSH1 0x0 MSTORE PUSH1 0x21 PUSH1 0x4 MSTORE PUSH1 0x24 PUSH1 0x0 REVERT JUMPDEST EQ ISZERO PUSH3 0xB98 JUMPI PUSH1 0x0 DUP2 PUSH1 0x0 ADD PUSH1 0x2 PUSH2 0x100 EXP DUP2 SLOAD DUP2 PUSH1 0xFF MUL NOT AND SWAP1 DUP4 ISZERO ISZERO MUL OR SWAP1 SSTORE POP PUSH3 0xC32 JUMP JUMPDEST PUSH1 0x3 DUP1 DUP2 GT ISZERO PUSH3 0xBD2 JUMPI PUSH32 0x4E487B7100000000000000000000000000000000000000000000000000000000 PUSH1 0x0 MSTORE PUSH1 0x21 PUSH1 0x4 MSTORE PUSH1 0x24 PUSH1 0x0 REVERT JUMPDEST DUP5 PUSH1 0x3 DUP2 GT ISZERO PUSH3 0xC0C JUMPI PUSH32 0x4E487B7100000000000000000000000000000000000000000000000000000000 PUSH1 0x0 MSTORE PUSH1 0x21 PUSH1 0x4 MSTORE PUSH1 0x24 PUSH1 0x0 REVERT JUMPDEST EQ ISZERO PUSH3 0xC31 JUMPI PUSH1 0x0 DUP2 PUSH1 0x0 ADD PUSH1 0x3 PUSH2 0x100 EXP DUP2 SLOAD DUP2 PUSH1 0xFF MUL NOT AND SWAP1 DUP4 ISZERO ISZERO MUL OR SWAP1 SSTORE POP JUMPDEST JUMPDEST JUMPDEST JUMPDEST DUP1 PUSH1 0x0 ADD PUSH1 0x0 SWAP1 SLOAD SWAP1 PUSH2 0x100 EXP SWAP1 DIV PUSH1 0xFF AND ISZERO DUP1 ISZERO PUSH3 0xC63 JUMPI POP DUP1 PUSH1 0x0 ADD PUSH1 0x1 SWAP1 SLOAD SWAP1 PUSH2 0x100 EXP SWAP1 DIV PUSH1 0xFF AND ISZERO JUMPDEST DUP1 ISZERO PUSH3 0xC7F JUMPI POP DUP1 PUSH1 0x0 ADD PUSH1 0x2 SWAP1 SLOAD SWAP1 PUSH2 0x100 EXP SWAP1 DIV PUSH1 0xFF AND ISZERO JUMPDEST ISZERO PUSH3 0xCDE JUMPI PUSH1 0x0 PUSH1 0x2 PUSH1 0x0 DUP8 PUSH20 0xFFFFFFFFFFFFFFFFFFFFFFFFFFFFFFFFFFFFFFFF AND PUSH20 0xFFFFFFFFFFFFFFFFFFFFFFFFFFFFFFFFFFFFFFFF AND DUP2 MSTORE PUSH1 0x20 ADD SWAP1 DUP2 MSTORE PUSH1 0x20 ADD PUSH1 0x0 KECCAK256 PUSH1 0x0 PUSH2 0x100 EXP DUP2 SLOAD DUP2 PUSH1 0xFF MUL NOT AND SWAP1 DUP4 ISZERO ISZERO MUL OR SWAP1 SSTORE POP JUMPDEST POP POP POP POP POP JUMP JUMPDEST PUSH1 0x0 PUSH3 0xCFA DUP3 PUSH1 0x0 PUSH3 0xD01 PUSH1 0x20 SHL PUSH1 0x20 SHR JUMP JUMPDEST SWAP1 POP SWAP2 SWAP1 POP JUMP JUMPDEST PUSH1 0x0 DUP1 PUSH1 0x1 PUSH1 0x0 DUP6 PUSH20 0xFFFFFFFFFFFFFFFFFFFFFFFFFFFFFFFFFFFFFFFF AND PUSH20 0xFFFFFFFFFFFFFFFFFFFFFFFFFFFFFFFFFFFFFFFF AND DUP2 MSTORE PUSH1 0x20 ADD SWAP1 DUP2 MSTORE PUSH1 0x20 ADD PUSH1 0x0 KECCAK256 PUSH1 0x40 MLOAD DUP1 PUSH1 0xC0 ADD PUSH1 0x40 MSTORE SWAP1 DUP2 PUSH1 0x0 DUP3 ADD PUSH1 0x0 SWAP1 SLOAD SWAP1 PUSH2 0x100 EXP SWAP1 DIV PUSH20 0xFFFFFFFFFFFFFFFFFFFFFFFFFFFFFFFFFFFFFFFF AND PUSH20 0xFFFFFFFFFFFFFFFFFFFFFFFFFFFFFFFFFFFFFFFF AND PUSH20 0xFFFFFFFFFFFFFFFFFFFFFFFFFFFFFFFFFFFFFFFF AND DUP2 MSTORE PUSH1 0x20 ADD PUSH1 0x1 DUP3 ADD DUP1 SLOAD PUSH3 0xDB6 SWAP1 PUSH3 0x1594 JUMP JUMPDEST DUP1 PUSH1 0x1F ADD PUSH1 0x20 DUP1 SWAP2 DIV MUL PUSH1 0x20 ADD PUSH1 0x40 MLOAD SWAP1 DUP2 ADD PUSH1 0x40 MSTORE DUP1 SWAP3 SWAP2 SWAP1 DUP2 DUP2 MSTORE PUSH1 0x20 ADD DUP3 DUP1 SLOAD PUSH3 0xDE4 SWAP1 PUSH3 0x1594 JUMP JUMPDEST DUP1 ISZERO PUSH3 0xE35 JUMPI DUP1 PUSH1 0x1F LT PUSH3 0xE09 JUMPI PUSH2 0x100 DUP1 DUP4 SLOAD DIV MUL DUP4 MSTORE SWAP2 PUSH1 0x20 ADD SWAP2 PUSH3 0xE35 JUMP JUMPDEST DUP3 ADD SWAP2 SWAP1 PUSH1 0x0 MSTORE PUSH1 0x20 PUSH1 0x0 KECCAK256 SWAP1 JUMPDEST DUP2 SLOAD DUP2 MSTORE SWAP1 PUSH1 0x1 ADD SWAP1 PUSH1 0x20 ADD DUP1 DUP4 GT PUSH3 0xE17 JUMPI DUP3 SWAP1 SUB PUSH1 0x1F AND DUP3 ADD SWAP2 JUMPDEST POP POP POP POP POP DUP2 MSTORE PUSH1 0x20 ADD PUSH1 0x2 DUP3 ADD DUP1 SLOAD PUSH3 0xE50 SWAP1 PUSH3 0x1594 JUMP JUMPDEST DUP1 PUSH1 0x1F ADD PUSH1 0x20 DUP1 SWAP2 DIV MUL PUSH1 0x20 ADD PUSH1 0x40 MLOAD SWAP1 DUP2 ADD PUSH1 0x40 MSTORE DUP1 SWAP3 SWAP2 SWAP1 DUP2 DUP2 MSTORE PUSH1 0x20 ADD DUP3 DUP1 SLOAD PUSH3 0xE7E SWAP1 PUSH3 0x1594 JUMP JUMPDEST DUP1 ISZERO PUSH3 0xECF JUMPI DUP1 PUSH1 0x1F LT PUSH3 0xEA3 JUMPI PUSH2 0x100 DUP1 DUP4 SLOAD DIV MUL DUP4 MSTORE SWAP2 PUSH1 0x20 ADD SWAP2 PUSH3 0xECF JUMP JUMPDEST DUP3 ADD SWAP2 SWAP1 PUSH1 0x0 MSTORE PUSH1 0x20 PUSH1 0x0 KECCAK256 SWAP1 JUMPDEST DUP2 SLOAD DUP2 MSTORE SWAP1 PUSH1 0x1 ADD SWAP1 PUSH1 0x20 ADD DUP1 DUP4 GT PUSH3 0xEB1 JUMPI DUP3 SWAP1 SUB PUSH1 0x1F AND DUP3 ADD SWAP2 JUMPDEST POP POP POP POP POP DUP2 MSTORE PUSH1 0x20 ADD PUSH1 0x3 DUP3 ADD DUP1 SLOAD PUSH3 0xEEA SWAP1 PUSH3 0x1594 JUMP JUMPDEST DUP1 PUSH1 0x1F ADD PUSH1 0x20 DUP1 SWAP2 DIV MUL PUSH1 0x20 ADD PUSH1 0x40 MLOAD SWAP1 DUP2 ADD PUSH1 0x40 MSTORE DUP1 SWAP3 SWAP2 SWAP1 DUP2 DUP2 MSTORE PUSH1 0x20 ADD DUP3 DUP1 SLOAD PUSH3 0xF18 SWAP1 PUSH3 0x1594 JUMP JUMPDEST DUP1 ISZERO PUSH3 0xF69 JUMPI DUP1 PUSH1 0x1F LT PUSH3 0xF3D JUMPI PUSH2 0x100 DUP1 DUP4 SLOAD DIV MUL DUP4 MSTORE SWAP2 PUSH1 0x20 ADD SWAP2 PUSH3 0xF69 JUMP JUMPDEST DUP3 ADD SWAP2 SWAP1 PUSH1 0x0 MSTORE PUSH1 0x20 PUSH1 0x0 KECCAK256 SWAP1 JUMPDEST DUP2 SLOAD DUP2 MSTORE SWAP1 PUSH1 0x1 ADD SWAP1 PUSH1 0x20 ADD DUP1 DUP4 GT PUSH3 0xF4B JUMPI DUP3 SWAP1 SUB PUSH1 0x1F AND DUP3 ADD SWAP2 JUMPDEST POP POP POP POP POP DUP2 MSTORE PUSH1 0x20 ADD PUSH1 0x4 DUP3 ADD PUSH1 0x0 SWAP1 SLOAD SWAP1 PUSH2 0x100 EXP SWAP1 DIV PUSH1 0xFF AND ISZERO ISZERO ISZERO ISZERO DUP2 MSTORE PUSH1 0x20 ADD PUSH1 0x5 DUP3 ADD PUSH1 0x40 MLOAD DUP1 PUSH1 0x80 ADD PUSH1 0x40 MSTORE SWAP1 DUP2 PUSH1 0x0 DUP3 ADD PUSH1 0x0 SWAP1 SLOAD SWAP1 PUSH2 0x100 EXP SWAP1 DIV PUSH1 0xFF AND ISZERO ISZERO ISZERO ISZERO DUP2 MSTORE PUSH1 0x20 ADD PUSH1 0x0 DUP3 ADD PUSH1 0x1 SWAP1 SLOAD SWAP1 PUSH2 0x100 EXP SWAP1 DIV PUSH1 0xFF AND ISZERO ISZERO ISZERO ISZERO DUP2 MSTORE PUSH1 0x20 ADD PUSH1 0x0 DUP3 ADD PUSH1 0x2 SWAP1 SLOAD SWAP1 PUSH2 0x100 EXP SWAP1 DIV PUSH1 0xFF AND ISZERO ISZERO ISZERO ISZERO DUP2 MSTORE PUSH1 0x20 ADD PUSH1 0x0 DUP3 ADD PUSH1 0x3 SWAP1 SLOAD SWAP1 PUSH2 0x100 EXP SWAP1 DIV PUSH1 0xFF AND ISZERO ISZERO ISZERO ISZERO DUP2 MSTORE POP POP DUP2 MSTORE POP POP SWAP1 POP PUSH1 0x0 DUP2 PUSH1 0xA0 ADD MLOAD SWAP1 POP PUSH1 0x0 PUSH1 0x3 DUP2 GT ISZERO PUSH3 0x1053 JUMPI PUSH32 0x4E487B7100000000000000000000000000000000000000000000000000000000 PUSH1 0x0 MSTORE PUSH1 0x21 PUSH1 0x4 MSTORE PUSH1 0x24 PUSH1 0x0 REVERT JUMPDEST DUP5 PUSH1 0x3 DUP2 GT ISZERO PUSH3 0x108D JUMPI PUSH32 0x4E487B7100000000000000000000000000000000000000000000000000000000 PUSH1 0x0 MSTORE PUSH1 0x21 PUSH1 0x4 MSTORE PUSH1 0x24 PUSH1 0x0 REVERT JUMPDEST EQ ISZERO PUSH3 0x10A3 JUMPI DUP1 PUSH1 0x0 ADD MLOAD SWAP3 POP POP POP PUSH3 0x124A JUMP JUMPDEST PUSH1 0x1 PUSH1 0x3 DUP2 GT ISZERO PUSH3 0x10DE JUMPI PUSH32 0x4E487B7100000000000000000000000000000000000000000000000000000000 PUSH1 0x0 MSTORE PUSH1 0x21 PUSH1 0x4 MSTORE PUSH1 0x24 PUSH1 0x0 REVERT JUMPDEST DUP5 PUSH1 0x3 DUP2 GT ISZERO PUSH3 0x1118 JUMPI PUSH32 0x4E487B7100000000000000000000000000000000000000000000000000000000 PUSH1 0x0 MSTORE PUSH1 0x21 PUSH1 0x4 MSTORE PUSH1 0x24 PUSH1 0x0 REVERT JUMPDEST EQ ISZERO PUSH3 0x112E JUMPI DUP1 PUSH1 0x20 ADD MLOAD SWAP3 POP POP POP PUSH3 0x124A JUMP JUMPDEST PUSH1 0x2 PUSH1 0x3 DUP2 GT ISZERO PUSH3 0x1169 JUMPI PUSH32 0x4E487B7100000000000000000000000000000000000000000000000000000000 PUSH1 0x0 MSTORE PUSH1 0x21 PUSH1 0x4 MSTORE PUSH1 0x24 PUSH1 0x0 REVERT JUMPDEST DUP5 PUSH1 0x3 DUP2 GT ISZERO PUSH3 0x11A3 JUMPI PUSH32 0x4E487B7100000000000000000000000000000000000000000000000000000000 PUSH1 0x0 MSTORE PUSH1 0x21 PUSH1 0x4 MSTORE PUSH1 0x24 PUSH1 0x0 REVERT JUMPDEST EQ ISZERO PUSH3 0x11B9 JUMPI DUP1 PUSH1 0x40 ADD MLOAD SWAP3 POP POP POP PUSH3 0x124A JUMP JUMPDEST PUSH1 0x3 DUP1 DUP2 GT ISZERO PUSH3 0x11F3 JUMPI PUSH32 0x4E487B7100000000000000000000000000000000000000000000000000000000 PUSH1 0x0 MSTORE PUSH1 0x21 PUSH1 0x4 MSTORE PUSH1 0x24 PUSH1 0x0 REVERT JUMPDEST DUP5 PUSH1 0x3 DUP2 GT ISZERO PUSH3 0x122D JUMPI PUSH32 0x4E487B7100000000000000000000000000000000000000000000000000000000 PUSH1 0x0 MSTORE PUSH1 0x21 PUSH1 0x4 MSTORE PUSH1 0x24 PUSH1 0x0 REVERT JUMPDEST EQ ISZERO PUSH3 0x1243 JUMPI DUP1 PUSH1 0x60 ADD MLOAD SWAP3 POP POP POP PUSH3 0x124A JUMP JUMPDEST PUSH1 0x0 SWAP3 POP POP POP JUMPDEST SWAP3 SWAP2 POP POP JUMP JUMPDEST DUP3 DUP1 SLOAD PUSH3 0x125E SWAP1 PUSH3 0x1594 JUMP JUMPDEST SWAP1 PUSH1 0x0 MSTORE PUSH1 0x20 PUSH1 0x0 KECCAK256 SWAP1 PUSH1 0x1F ADD PUSH1 0x20 SWAP1 DIV DUP2 ADD SWAP3 DUP3 PUSH3 0x1282 JUMPI PUSH1 0x0 DUP6 SSTORE PUSH3 0x12CE JUMP JUMPDEST DUP3 PUSH1 0x1F LT PUSH3 0x129D JUMPI DUP1 MLOAD PUSH1 0xFF NOT AND DUP4 DUP1 ADD OR DUP6 SSTORE PUSH3 0x12CE JUMP JUMPDEST DUP3 DUP1 ADD PUSH1 0x1 ADD DUP6 SSTORE DUP3 ISZERO PUSH3 0x12CE JUMPI SWAP2 DUP3 ADD JUMPDEST DUP3 DUP2 GT ISZERO PUSH3 0x12CD JUMPI DUP3 MLOAD DUP3 SSTORE SWAP2 PUSH1 0x20 ADD SWAP2 SWAP1 PUSH1 0x1 ADD SWAP1 PUSH3 0x12B0 JUMP JUMPDEST JUMPDEST POP SWAP1 POP PUSH3 0x12DD SWAP2 SWAP1 PUSH3 0x12E1 JUMP JUMPDEST POP SWAP1 JUMP JUMPDEST JUMPDEST DUP1 DUP3 GT ISZERO PUSH3 0x12FC JUMPI PUSH1 0x0 DUP2 PUSH1 0x0 SWAP1 SSTORE POP PUSH1 0x1 ADD PUSH3 0x12E2 JUMP JUMPDEST POP SWAP1 JUMP JUMPDEST PUSH1 0x0 PUSH3 0x1317 PUSH3 0x1311 DUP5 PUSH3 0x1517 JUMP JUMPDEST PUSH3 0x14EE JUMP JUMPDEST SWAP1 POP DUP3 DUP2 MSTORE PUSH1 0x20 DUP2 ADD DUP5 DUP5 DUP5 ADD GT ISZERO PUSH3 0x1330 JUMPI PUSH1 0x0 DUP1 REVERT JUMPDEST PUSH3 0x133D DUP5 DUP3 DUP6 PUSH3 0x155E JUMP JUMPDEST POP SWAP4 SWAP3 POP POP POP JUMP JUMPDEST PUSH1 0x0 DUP3 PUSH1 0x1F DUP4 ADD SLT PUSH3 0x1357 JUMPI PUSH1 0x0 DUP1 REVERT JUMPDEST DUP2 MLOAD PUSH3 0x1369 DUP5 DUP3 PUSH1 0x20 DUP7 ADD PUSH3 0x1300 JUMP JUMPDEST SWAP2 POP POP SWAP3 SWAP2 POP POP JUMP JUMPDEST PUSH1 0x0 DUP1 PUSH1 0x0 PUSH1 0x60 DUP5 DUP7 SUB SLT ISZERO PUSH3 0x1388 JUMPI PUSH1 0x0 DUP1 REVERT JUMPDEST PUSH1 0x0 DUP5 ADD MLOAD PUSH8 0xFFFFFFFFFFFFFFFF DUP2 GT ISZERO PUSH3 0x13A3 JUMPI PUSH1 0x0 DUP1 REVERT JUMPDEST PUSH3 0x13B1 DUP7 DUP3 DUP8 ADD PUSH3 0x1345 JUMP JUMPDEST SWAP4 POP POP PUSH1 0x20 DUP5 ADD MLOAD PUSH8 0xFFFFFFFFFFFFFFFF DUP2 GT ISZERO PUSH3 0x13CF JUMPI PUSH1 0x0 DUP1 REVERT JUMPDEST PUSH3 0x13DD DUP7 DUP3 DUP8 ADD PUSH3 0x1345 JUMP JUMPDEST SWAP3 POP POP PUSH1 0x40 DUP5 ADD MLOAD PUSH8 0xFFFFFFFFFFFFFFFF DUP2 GT ISZERO PUSH3 0x13FB JUMPI PUSH1 0x0 DUP1 REVERT JUMPDEST PUSH3 0x1409 DUP7 DUP3 DUP8 ADD PUSH3 0x1345 JUMP JUMPDEST SWAP2 POP POP SWAP3 POP SWAP3 POP SWAP3 JUMP JUMPDEST PUSH1 0x0 PUSH3 0x1422 PUSH1 0x22 DUP4 PUSH3 0x154D JUMP JUMPDEST SWAP2 POP PUSH3 0x142F DUP3 PUSH3 0x166F JUMP JUMPDEST PUSH1 0x40 DUP3 ADD SWAP1 POP SWAP2 SWAP1 POP JUMP JUMPDEST PUSH1 0x0 PUSH3 0x1449 PUSH1 0x15 DUP4 PUSH3 0x154D JUMP JUMPDEST SWAP2 POP PUSH3 0x1456 DUP3 PUSH3 0x16BE JUMP JUMPDEST PUSH1 0x20 DUP3 ADD SWAP1 POP SWAP2 SWAP1 POP JUMP JUMPDEST PUSH1 0x0 PUSH3 0x1470 PUSH1 0x16 DUP4 PUSH3 0x154D JUMP JUMPDEST SWAP2 POP PUSH3 0x147D DUP3 PUSH3 0x16E7 JUMP JUMPDEST PUSH1 0x20 DUP3 ADD SWAP1 POP SWAP2 SWAP1 POP JUMP JUMPDEST PUSH1 0x0 PUSH1 0x20 DUP3 ADD SWAP1 POP DUP2 DUP2 SUB PUSH1 0x0 DUP4 ADD MSTORE PUSH3 0x14A3 DUP2 PUSH3 0x1413 JUMP JUMPDEST SWAP1 POP SWAP2 SWAP1 POP JUMP JUMPDEST PUSH1 0x0 PUSH1 0x20 DUP3 ADD SWAP1 POP DUP2 DUP2 SUB PUSH1 0x0 DUP4 ADD MSTORE PUSH3 0x14C5 DUP2 PUSH3 0x143A JUMP JUMPDEST SWAP1 POP SWAP2 SWAP1 POP JUMP JUMPDEST PUSH1 0x0 PUSH1 0x20 DUP3 ADD SWAP1 POP DUP2 DUP2 SUB PUSH1 0x0 DUP4 ADD MSTORE PUSH3 0x14E7 DUP2 PUSH3 0x1461 JUMP JUMPDEST SWAP1 POP SWAP2 SWAP1 POP JUMP JUMPDEST PUSH1 0x0 PUSH3 0x14FA PUSH3 0x150D JUMP JUMPDEST SWAP1 POP PUSH3 0x1508 DUP3 DUP3 PUSH3 0x15CA JUMP JUMPDEST SWAP2 SWAP1 POP JUMP JUMPDEST PUSH1 0x0 PUSH1 0x40 MLOAD SWAP1 POP SWAP1 JUMP JUMPDEST PUSH1 0x0 PUSH8 0xFFFFFFFFFFFFFFFF DUP3 GT ISZERO PUSH3 0x1535 JUMPI PUSH3 0x1534 PUSH3 0x162F JUMP JUMPDEST JUMPDEST PUSH3 0x1540 DUP3 PUSH3 0x165E JUMP JUMPDEST SWAP1 POP PUSH1 0x20 DUP2 ADD SWAP1 POP SWAP2 SWAP1 POP JUMP JUMPDEST PUSH1 0x0 DUP3 DUP3 MSTORE PUSH1 0x20 DUP3 ADD SWAP1 POP SWAP3 SWAP2 POP POP JUMP JUMPDEST PUSH1 0x0 JUMPDEST DUP4 DUP2 LT ISZERO PUSH3 0x157E JUMPI DUP1 DUP3 ADD MLOAD DUP2 DUP5 ADD MSTORE PUSH1 0x20 DUP2 ADD SWAP1 POP PUSH3 0x1561 JUMP JUMPDEST DUP4 DUP2 GT ISZERO PUSH3 0x158E JUMPI PUSH1 0x0 DUP5 DUP5 ADD MSTORE JUMPDEST POP POP POP POP JUMP JUMPDEST PUSH1 0x0 PUSH1 0x2 DUP3 DIV SWAP1 POP PUSH1 0x1 DUP3 AND DUP1 PUSH3 0x15AD JUMPI PUSH1 0x7F DUP3 AND SWAP2 POP JUMPDEST PUSH1 0x20 DUP3 LT DUP2 EQ ISZERO PUSH3 0x15C4 JUMPI PUSH3 0x15C3 PUSH3 0x1600 JUMP JUMPDEST JUMPDEST POP SWAP2 SWAP1 POP JUMP JUMPDEST PUSH3 0x15D5 DUP3 PUSH3 0x165E JUMP JUMPDEST DUP2 ADD DUP2 DUP2 LT PUSH8 0xFFFFFFFFFFFFFFFF DUP3 GT OR ISZERO PUSH3 0x15F7 JUMPI PUSH3 0x15F6 PUSH3 0x162F JUMP JUMPDEST JUMPDEST DUP1 PUSH1 0x40 MSTORE POP POP POP JUMP JUMPDEST PUSH32 0x4E487B7100000000000000000000000000000000000000000000000000000000 PUSH1 0x0 MSTORE PUSH1 0x22 PUSH1 0x4 MSTORE PUSH1 0x24 PUSH1 0x0 REVERT JUMPDEST PUSH32 0x4E487B7100000000000000000000000000000000000000000000000000000000 PUSH1 0x0 MSTORE PUSH1 0x41 PUSH1 0x4 MSTORE PUSH1 0x24 PUSH1 0x0 REVERT JUMPDEST PUSH1 0x0 PUSH1 0x1F NOT PUSH1 0x1F DUP4 ADD AND SWAP1 POP SWAP2 SWAP1 POP JUMP JUMPDEST PUSH32 0x4F6E6C79206F776E65722063616E2063616C6C20746869732066756E6374696F PUSH1 0x0 DUP3 ADD MSTORE PUSH32 0x6E2E000000000000000000000000000000000000000000000000000000000000 PUSH1 0x20 DUP3 ADD MSTORE POP JUMP JUMPDEST PUSH32 0x4163636F756E7420646F65736E27742065786973740000000000000000000000 PUSH1 0x0 DUP3 ADD MSTORE POP JUMP JUMPDEST PUSH32 0x4163636F756E7420616C72656164792065786973747300000000000000000000 PUSH1 0x0 DUP3 ADD MSTORE POP JUMP JUMPDEST PUSH2 0x23EA DUP1 PUSH3 0x1720 PUSH1 0x0 CODECOPY PUSH1 0x0 RETURN INVALID PUSH1 0x80 PUSH1 0x40 MSTORE CALLVALUE DUP1 ISZERO PUSH2 0x10 JUMPI PUSH1 0x0 DUP1 REVERT JUMPDEST POP PUSH1 0x4 CALLDATASIZE LT PUSH2 0xCF JUMPI PUSH1 0x0 CALLDATALOAD PUSH1 0xE0 SHR DUP1 PUSH4 0xA1AEA04A GT PUSH2 0x8C JUMPI DUP1 PUSH4 0xD3A5059A GT PUSH2 0x66 JUMPI DUP1 PUSH4 0xD3A5059A EQ PUSH2 0x227 JUMPI DUP1 PUSH4 0xDEE94B4A EQ PUSH2 0x243 JUMPI DUP1 PUSH4 0xE8621E59 EQ PUSH2 0x25F JUMPI DUP1 PUSH4 0xFA4D7AAE EQ PUSH2 0x28F JUMPI PUSH2 0xCF JUMP JUMPDEST DUP1 PUSH4 0xA1AEA04A EQ PUSH2 0x1BA JUMPI DUP1 PUSH4 0xA87430BA EQ PUSH2 0x1D6 JUMPI DUP1 PUSH4 0xB74866FB EQ PUSH2 0x20B JUMPI PUSH2 0xCF JUMP JUMPDEST DUP1 PUSH4 0x56909B7 EQ PUSH2 0xD4 JUMPI DUP1 PUSH4 0x297027D5 EQ PUSH2 0x104 JUMPI DUP1 PUSH4 0x49587281 EQ PUSH2 0x134 JUMPI DUP1 PUSH4 0x5D3694B9 EQ PUSH2 0x150 JUMPI DUP1 PUSH4 0x630A195B EQ PUSH2 0x180 JUMPI DUP1 PUSH4 0x8DA5CB5B EQ PUSH2 0x19C JUMPI JUMPDEST PUSH1 0x0 DUP1 REVERT JUMPDEST PUSH2 0xEE PUSH1 0x4 DUP1 CALLDATASIZE SUB DUP2 ADD SWAP1 PUSH2 0xE9 SWAP2 SWAP1 PUSH2 0x1DE7 JUMP JUMPDEST PUSH2 0x2BF JUMP JUMPDEST PUSH1 0x40 MLOAD PUSH2 0xFB SWAP2 SWAP1 PUSH2 0x20AD JUMP JUMPDEST PUSH1 0x40 MLOAD DUP1 SWAP2 SUB SWAP1 RETURN JUMPDEST PUSH2 0x11E PUSH1 0x4 DUP1 CALLDATASIZE SUB DUP2 ADD SWAP1 PUSH2 0x119 SWAP2 SWAP1 PUSH2 0x1DE7 JUMP JUMPDEST PUSH2 0x2D3 JUMP JUMPDEST PUSH1 0x40 MLOAD PUSH2 0x12B SWAP2 SWAP1 PUSH2 0x20AD JUMP JUMPDEST PUSH1 0x40 MLOAD DUP1 SWAP2 SUB SWAP1 RETURN JUMPDEST PUSH2 0x14E PUSH1 0x4 DUP1 CALLDATASIZE SUB DUP2 ADD SWAP1 PUSH2 0x149 SWAP2 SWAP1 PUSH2 0x1DE7 JUMP JUMPDEST PUSH2 0x2E7 JUMP JUMPDEST STOP JUMPDEST PUSH2 0x16A PUSH1 0x4 DUP1 CALLDATASIZE SUB DUP2 ADD SWAP1 PUSH2 0x165 SWAP2 SWAP1 PUSH2 0x1DE7 JUMP JUMPDEST PUSH2 0x477 JUMP JUMPDEST PUSH1 0x40 MLOAD PUSH2 0x177 SWAP2 SWAP1 PUSH2 0x20AD JUMP JUMPDEST PUSH1 0x40 MLOAD DUP1 SWAP2 SUB SWAP1 RETURN JUMPDEST PUSH2 0x19A PUSH1 0x4 DUP1 CALLDATASIZE SUB DUP2 ADD SWAP1 PUSH2 0x195 SWAP2 SWAP1 PUSH2 0x1E10 JUMP JUMPDEST PUSH2 0x497 JUMP JUMPDEST STOP JUMPDEST PUSH2 0x1A4 PUSH2 0x8C4 JUMP JUMPDEST PUSH1 0x40 MLOAD PUSH2 0x1B1 SWAP2 SWAP1 PUSH2 0x201B JUMP JUMPDEST PUSH1 0x40 MLOAD DUP1 SWAP2 SUB SWAP1 RETURN JUMPDEST PUSH2 0x1D4 PUSH1 0x4 DUP1 CALLDATASIZE SUB DUP2 ADD SWAP1 PUSH2 0x1CF SWAP2 SWAP1 PUSH2 0x1DE7 JUMP JUMPDEST PUSH2 0x8E8 JUMP JUMPDEST STOP JUMPDEST PUSH2 0x1F0 PUSH1 0x4 DUP1 CALLDATASIZE SUB DUP2 ADD SWAP1 PUSH2 0x1EB SWAP2 SWAP1 PUSH2 0x1DE7 JUMP JUMPDEST PUSH2 0xB1B JUMP JUMPDEST PUSH1 0x40 MLOAD PUSH2 0x202 SWAP7 SWAP6 SWAP5 SWAP4 SWAP3 SWAP2 SWAP1 PUSH2 0x2036 JUMP JUMPDEST PUSH1 0x40 MLOAD DUP1 SWAP2 SUB SWAP1 RETURN JUMPDEST PUSH2 0x225 PUSH1 0x4 DUP1 CALLDATASIZE SUB DUP2 ADD SWAP1 PUSH2 0x220 SWAP2 SWAP1 PUSH2 0x1E10 JUMP JUMPDEST PUSH2 0xD92 JUMP JUMPDEST STOP JUMPDEST PUSH2 0x241 PUSH1 0x4 DUP1 CALLDATASIZE SUB DUP2 ADD SWAP1 PUSH2 0x23C SWAP2 SWAP1 PUSH2 0x1DE7 JUMP JUMPDEST PUSH2 0x1266 JUMP JUMPDEST STOP JUMPDEST PUSH2 0x25D PUSH1 0x4 DUP1 CALLDATASIZE SUB DUP2 ADD SWAP1 PUSH2 0x258 SWAP2 SWAP1 PUSH2 0x1E4C JUMP JUMPDEST PUSH2 0x1441 JUMP JUMPDEST STOP JUMPDEST PUSH2 0x279 PUSH1 0x4 DUP1 CALLDATASIZE SUB DUP2 ADD SWAP1 PUSH2 0x274 SWAP2 SWAP1 PUSH2 0x1DE7 JUMP JUMPDEST PUSH2 0x1723 JUMP JUMPDEST PUSH1 0x40 MLOAD PUSH2 0x286 SWAP2 SWAP1 PUSH2 0x20AD JUMP JUMPDEST PUSH1 0x40 MLOAD DUP1 SWAP2 SUB SWAP1 RETURN JUMPDEST PUSH2 0x2A9 PUSH1 0x4 DUP1 CALLDATASIZE SUB DUP2 ADD SWAP1 PUSH2 0x2A4 SWAP2 SWAP1 PUSH2 0x1DE7 JUMP JUMPDEST PUSH2 0x1737 JUMP JUMPDEST PUSH1 0x40 MLOAD PUSH2 0x2B6 SWAP2 SWAP1 PUSH2 0x20AD JUMP JUMPDEST PUSH1 0x40 MLOAD DUP1 SWAP2 SUB SWAP1 RETURN JUMPDEST PUSH1 0x0 PUSH2 0x2CC DUP3 PUSH1 0x2 PUSH2 0x174B JUMP JUMPDEST SWAP1 POP SWAP2 SWAP1 POP JUMP JUMPDEST PUSH1 0x0 PUSH2 0x2E0 DUP3 PUSH1 0x0 PUSH2 0x174B JUMP JUMPDEST SWAP1 POP SWAP2 SWAP1 POP JUMP JUMPDEST DUP1 PUSH1 0x0 PUSH20 0xFFFFFFFFFFFFFFFFFFFFFFFFFFFFFFFFFFFFFFFF AND PUSH1 0x1 PUSH1 0x0 DUP4 PUSH20 0xFFFFFFFFFFFFFFFFFFFFFFFFFFFFFFFFFFFFFFFF AND PUSH20 0xFFFFFFFFFFFFFFFFFFFFFFFFFFFFFFFFFFFFFFFF AND DUP2 MSTORE PUSH1 0x20 ADD SWAP1 DUP2 MSTORE PUSH1 0x20 ADD PUSH1 0x0 KECCAK256 PUSH1 0x0 ADD PUSH1 0x0 SWAP1 SLOAD SWAP1 PUSH2 0x100 EXP SWAP1 DIV PUSH20 0xFFFFFFFFFFFFFFFFFFFFFFFFFFFFFFFFFFFFFFFF AND PUSH20 0xFFFFFFFFFFFFFFFFFFFFFFFFFFFFFFFFFFFFFFFF AND EQ ISZERO PUSH2 0x3BA JUMPI PUSH1 0x40 MLOAD PUSH32 0x8C379A000000000000000000000000000000000000000000000000000000000 DUP2 MSTORE PUSH1 0x4 ADD PUSH2 0x3B1 SWAP1 PUSH2 0x20E8 JUMP JUMPDEST PUSH1 0x40 MLOAD DUP1 SWAP2 SUB SWAP1 REVERT JUMPDEST PUSH1 0x0 PUSH1 0x1 PUSH1 0x0 DUP5 PUSH20 0xFFFFFFFFFFFFFFFFFFFFFFFFFFFFFFFFFFFFFFFF AND PUSH20 0xFFFFFFFFFFFFFFFFFFFFFFFFFFFFFFFFFFFFFFFF AND DUP2 MSTORE PUSH1 0x20 ADD SWAP1 DUP2 MSTORE PUSH1 0x20 ADD PUSH1 0x0 KECCAK256 SWAP1 POP PUSH1 0x0 DUP2 PUSH1 0x4 ADD PUSH1 0x0 PUSH2 0x100 EXP DUP2 SLOAD DUP2 PUSH1 0xFF MUL NOT AND SWAP1 DUP4 ISZERO ISZERO MUL OR SWAP1 SSTORE POP PUSH1 0x0 PUSH1 0x2 PUSH1 0x0 DUP6 PUSH20 0xFFFFFFFFFFFFFFFFFFFFFFFFFFFFFFFFFFFFFFFF AND PUSH20 0xFFFFFFFFFFFFFFFFFFFFFFFFFFFFFFFFFFFFFFFF AND DUP2 MSTORE PUSH1 0x20 ADD SWAP1 DUP2 MSTORE PUSH1 0x20 ADD PUSH1 0x0 KECCAK256 PUSH1 0x0 PUSH2 0x100 EXP DUP2 SLOAD DUP2 PUSH1 0xFF MUL NOT AND SWAP1 DUP4 ISZERO ISZERO MUL OR SWAP1 SSTORE POP POP POP POP JUMP JUMPDEST PUSH1 0x2 PUSH1 0x20 MSTORE DUP1 PUSH1 0x0 MSTORE PUSH1 0x40 PUSH1 0x0 KECCAK256 PUSH1 0x0 SWAP2 POP SLOAD SWAP1 PUSH2 0x100 EXP SWAP1 DIV PUSH1 0xFF AND DUP2 JUMP JUMPDEST PUSH1 0x0 DUP1 SLOAD SWAP1 PUSH2 0x100 EXP SWAP1 DIV PUSH20 0xFFFFFFFFFFFFFFFFFFFFFFFFFFFFFFFFFFFFFFFF AND PUSH20 0xFFFFFFFFFFFFFFFFFFFFFFFFFFFFFFFFFFFFFFFF AND CALLER PUSH20 0xFFFFFFFFFFFFFFFFFFFFFFFFFFFFFFFFFFFFFFFF AND EQ DUP1 PUSH2 0x4F6 JUMPI POP PUSH2 0x4F5 CALLER PUSH2 0x2D3 JUMP JUMPDEST JUMPDEST PUSH2 0x535 JUMPI PUSH1 0x40 MLOAD PUSH32 0x8C379A000000000000000000000000000000000000000000000000000000000 DUP2 MSTORE PUSH1 0x4 ADD PUSH2 0x52C SWAP1 PUSH2 0x20C8 JUMP JUMPDEST PUSH1 0x40 MLOAD DUP1 SWAP2 SUB SWAP1 REVERT JUMPDEST DUP2 PUSH1 0x0 PUSH20 0xFFFFFFFFFFFFFFFFFFFFFFFFFFFFFFFFFFFFFFFF AND PUSH1 0x1 PUSH1 0x0 DUP4 PUSH20 0xFFFFFFFFFFFFFFFFFFFFFFFFFFFFFFFFFFFFFFFF AND PUSH20 0xFFFFFFFFFFFFFFFFFFFFFFFFFFFFFFFFFFFFFFFF AND DUP2 MSTORE PUSH1 0x20 ADD SWAP1 DUP2 MSTORE PUSH1 0x20 ADD PUSH1 0x0 KECCAK256 PUSH1 0x0 ADD PUSH1 0x0 SWAP1 SLOAD SWAP1 PUSH2 0x100 EXP SWAP1 DIV PUSH20 0xFFFFFFFFFFFFFFFFFFFFFFFFFFFFFFFFFFFFFFFF AND PUSH20 0xFFFFFFFFFFFFFFFFFFFFFFFFFFFFFFFFFFFFFFFF AND EQ ISZERO PUSH2 0x608 JUMPI PUSH1 0x40 MLOAD PUSH32 0x8C379A000000000000000000000000000000000000000000000000000000000 DUP2 MSTORE PUSH1 0x4 ADD PUSH2 0x5FF SWAP1 PUSH2 0x20E8 JUMP JUMPDEST PUSH1 0x40 MLOAD DUP1 SWAP2 SUB SWAP1 REVERT JUMPDEST PUSH1 0x0 PUSH1 0x1 PUSH1 0x0 DUP6 PUSH20 0xFFFFFFFFFFFFFFFFFFFFFFFFFFFFFFFFFFFFFFFF AND PUSH20 0xFFFFFFFFFFFFFFFFFFFFFFFFFFFFFFFFFFFFFFFF AND DUP2 MSTORE PUSH1 0x20 ADD SWAP1 DUP2 MSTORE PUSH1 0x20 ADD PUSH1 0x0 KECCAK256 SWAP1 POP PUSH1 0x0 DUP2 PUSH1 0x5 ADD SWAP1 POP PUSH1 0x0 PUSH1 0x3 DUP2 GT ISZERO PUSH2 0x68D JUMPI PUSH32 0x4E487B7100000000000000000000000000000000000000000000000000000000 PUSH1 0x0 MSTORE PUSH1 0x21 PUSH1 0x4 MSTORE PUSH1 0x24 PUSH1 0x0 REVERT JUMPDEST DUP5 PUSH1 0x3 DUP2 GT ISZERO PUSH2 0x6C6 JUMPI PUSH32 0x4E487B7100000000000000000000000000000000000000000000000000000000 PUSH1 0x0 MSTORE PUSH1 0x21 PUSH1 0x4 MSTORE PUSH1 0x24 PUSH1 0x0 REVERT JUMPDEST EQ ISZERO PUSH2 0x6EE JUMPI PUSH1 0x1 DUP2 PUSH1 0x0 ADD PUSH1 0x0 PUSH2 0x100 EXP DUP2 SLOAD DUP2 PUSH1 0xFF MUL NOT AND SWAP1 DUP4 ISZERO ISZERO MUL OR SWAP1 SSTORE POP PUSH2 0x8BD JUMP JUMPDEST PUSH1 0x1 PUSH1 0x3 DUP2 GT ISZERO PUSH2 0x728 JUMPI PUSH32 0x4E487B7100000000000000000000000000000000000000000000000000000000 PUSH1 0x0 MSTORE PUSH1 0x21 PUSH1 0x4 MSTORE PUSH1 0x24 PUSH1 0x0 REVERT JUMPDEST DUP5 PUSH1 0x3 DUP2 GT ISZERO PUSH2 0x761 JUMPI PUSH32 0x4E487B7100000000000000000000000000000000000000000000000000000000 PUSH1 0x0 MSTORE PUSH1 0x21 PUSH1 0x4 MSTORE PUSH1 0x24 PUSH1 0x0 REVERT JUMPDEST EQ ISZERO PUSH2 0x789 JUMPI PUSH1 0x1 DUP2 PUSH1 0x0 ADD PUSH1 0x1 PUSH2 0x100 EXP DUP2 SLOAD DUP2 PUSH1 0xFF MUL NOT AND SWAP1 DUP4 ISZERO ISZERO MUL OR SWAP1 SSTORE POP PUSH2 0x8BC JUMP JUMPDEST PUSH1 0x2 PUSH1 0x3 DUP2 GT ISZERO PUSH2 0x7C3 JUMPI PUSH32 0x4E487B7100000000000000000000000000000000000000000000000000000000 PUSH1 0x0 MSTORE PUSH1 0x21 PUSH1 0x4 MSTORE PUSH1 0x24 PUSH1 0x0 REVERT JUMPDEST DUP5 PUSH1 0x3 DUP2 GT ISZERO PUSH2 0x7FC JUMPI PUSH32 0x4E487B7100000000000000000000000000000000000000000000000000000000 PUSH1 0x0 MSTORE PUSH1 0x21 PUSH1 0x4 MSTORE PUSH1 0x24 PUSH1 0x0 REVERT JUMPDEST EQ ISZERO PUSH2 0x824 JUMPI PUSH1 0x1 DUP2 PUSH1 0x0 ADD PUSH1 0x2 PUSH2 0x100 EXP DUP2 SLOAD DUP2 PUSH1 0xFF MUL NOT AND SWAP1 DUP4 ISZERO ISZERO MUL OR SWAP1 SSTORE POP PUSH2 0x8BB JUMP JUMPDEST PUSH1 0x3 DUP1 DUP2 GT ISZERO PUSH2 0x85D JUMPI PUSH32 0x4E487B7100000000000000000000000000000000000000000000000000000000 PUSH1 0x0 MSTORE PUSH1 0x21 PUSH1 0x4 MSTORE PUSH1 0x24 PUSH1 0x0 REVERT JUMPDEST DUP5 PUSH1 0x3 DUP2 GT ISZERO PUSH2 0x896 JUMPI PUSH32 0x4E487B7100000000000000000000000000000000000000000000000000000000 PUSH1 0x0 MSTORE PUSH1 0x21 PUSH1 0x4 MSTORE PUSH1 0x24 PUSH1 0x0 REVERT JUMPDEST EQ ISZERO PUSH2 0x8BA JUMPI PUSH1 0x1 DUP2 PUSH1 0x0 ADD PUSH1 0x3 PUSH2 0x100 EXP DUP2 SLOAD DUP2 PUSH1 0xFF MUL NOT AND SWAP1 DUP4 ISZERO ISZERO MUL OR SWAP1 SSTORE POP JUMPDEST JUMPDEST JUMPDEST JUMPDEST POP POP POP POP POP JUMP JUMPDEST PUSH1 0x0 DUP1 SLOAD SWAP1 PUSH2 0x100 EXP SWAP1 DIV PUSH20 0xFFFFFFFFFFFFFFFFFFFFFFFFFFFFFFFFFFFFFFFF AND DUP2 JUMP JUMPDEST DUP1 PUSH1 0x0 PUSH20 0xFFFFFFFFFFFFFFFFFFFFFFFFFFFFFFFFFFFFFFFF AND PUSH1 0x1 PUSH1 0x0 DUP4 PUSH20 0xFFFFFFFFFFFFFFFFFFFFFFFFFFFFFFFFFFFFFFFF AND PUSH20 0xFFFFFFFFFFFFFFFFFFFFFFFFFFFFFFFFFFFFFFFF AND DUP2 MSTORE PUSH1 0x20 ADD SWAP1 DUP2 MSTORE PUSH1 0x20 ADD PUSH1 0x0 KECCAK256 PUSH1 0x0 ADD PUSH1 0x0 SWAP1 SLOAD SWAP1 PUSH2 0x100 EXP SWAP1 DIV PUSH20 0xFFFFFFFFFFFFFFFFFFFFFFFFFFFFFFFFFFFFFFFF AND PUSH20 0xFFFFFFFFFFFFFFFFFFFFFFFFFFFFFFFFFFFFFFFF AND EQ ISZERO PUSH2 0x9BB JUMPI PUSH1 0x40 MLOAD PUSH32 0x8C379A000000000000000000000000000000000000000000000000000000000 DUP2 MSTORE PUSH1 0x4 ADD PUSH2 0x9B2 SWAP1 PUSH2 0x20E8 JUMP JUMPDEST PUSH1 0x40 MLOAD DUP1 SWAP2 SUB SWAP1 REVERT JUMPDEST PUSH1 0x0 PUSH1 0x1 PUSH1 0x0 DUP5 PUSH20 0xFFFFFFFFFFFFFFFFFFFFFFFFFFFFFFFFFFFFFFFF AND PUSH20 0xFFFFFFFFFFFFFFFFFFFFFFFFFFFFFFFFFFFFFFFF AND DUP2 MSTORE PUSH1 0x20 ADD SWAP1 DUP2 MSTORE PUSH1 0x20 ADD PUSH1 0x0 KECCAK256 SWAP1 POP PUSH1 0x1 DUP2 PUSH1 0x4 ADD PUSH1 0x0 PUSH2 0x100 EXP DUP2 SLOAD DUP2 PUSH1 0xFF MUL NOT AND SWAP1 DUP4 ISZERO ISZERO MUL OR SWAP1 SSTORE POP PUSH1 0x0 DUP2 PUSH1 0x5 ADD PUSH1 0x40 MLOAD DUP1 PUSH1 0x80 ADD PUSH1 0x40 MSTORE SWAP1 DUP2 PUSH1 0x0 DUP3 ADD PUSH1 0x0 SWAP1 SLOAD SWAP1 PUSH2 0x100 EXP SWAP1 DIV PUSH1 0xFF AND ISZERO ISZERO ISZERO ISZERO DUP2 MSTORE PUSH1 0x20 ADD PUSH1 0x0 DUP3 ADD PUSH1 0x1 SWAP1 SLOAD SWAP1 PUSH2 0x100 EXP SWAP1 DIV PUSH1 0xFF AND ISZERO ISZERO ISZERO ISZERO DUP2 MSTORE PUSH1 0x20 ADD PUSH1 0x0 DUP3 ADD PUSH1 0x2 SWAP1 SLOAD SWAP1 PUSH2 0x100 EXP SWAP1 DIV PUSH1 0xFF AND ISZERO ISZERO ISZERO ISZERO DUP2 MSTORE PUSH1 0x20 ADD PUSH1 0x0 DUP3 ADD PUSH1 0x3 SWAP1 SLOAD SWAP1 PUSH2 0x100 EXP SWAP1 DIV PUSH1 0xFF AND ISZERO ISZERO ISZERO ISZERO DUP2 MSTORE POP POP SWAP1 POP DUP1 PUSH1 0x0 ADD MLOAD DUP1 PUSH2 0xAAB JUMPI POP DUP1 PUSH1 0x20 ADD MLOAD JUMPDEST DUP1 PUSH2 0xAB7 JUMPI POP DUP1 PUSH1 0x40 ADD MLOAD JUMPDEST ISZERO PUSH2 0xB15 JUMPI PUSH1 0x1 PUSH1 0x2 PUSH1 0x0 DUP7 PUSH20 0xFFFFFFFFFFFFFFFFFFFFFFFFFFFFFFFFFFFFFFFF AND PUSH20 0xFFFFFFFFFFFFFFFFFFFFFFFFFFFFFFFFFFFFFFFF AND DUP2 MSTORE PUSH1 0x20 ADD SWAP1 DUP2 MSTORE PUSH1 0x20 ADD PUSH1 0x0 KECCAK256 PUSH1 0x0 PUSH2 0x100 EXP DUP2 SLOAD DUP2 PUSH1 0xFF MUL NOT AND SWAP1 DUP4 ISZERO ISZERO MUL OR SWAP1 SSTORE POP JUMPDEST POP POP POP POP JUMP JUMPDEST PUSH1 0x1 PUSH1 0x20 MSTORE DUP1 PUSH1 0x0 MSTORE PUSH1 0x40 PUSH1 0x0 KECCAK256 PUSH1 0x0 SWAP2 POP SWAP1 POP DUP1 PUSH1 0x0 ADD PUSH1 0x0 SWAP1 SLOAD SWAP1 PUSH2 0x100 EXP SWAP1 DIV PUSH20 0xFFFFFFFFFFFFFFFFFFFFFFFFFFFFFFFFFFFFFFFF AND SWAP1 DUP1 PUSH1 0x1 ADD DUP1 SLOAD PUSH2 0xB64 SWAP1 PUSH2 0x221A JUMP JUMPDEST DUP1 PUSH1 0x1F ADD PUSH1 0x20 DUP1 SWAP2 DIV MUL PUSH1 0x20 ADD PUSH1 0x40 MLOAD SWAP1 DUP2 ADD PUSH1 0x40 MSTORE DUP1 SWAP3 SWAP2 SWAP1 DUP2 DUP2 MSTORE PUSH1 0x20 ADD DUP3 DUP1 SLOAD PUSH2 0xB90 SWAP1 PUSH2 0x221A JUMP JUMPDEST DUP1 ISZERO PUSH2 0xBDD JUMPI DUP1 PUSH1 0x1F LT PUSH2 0xBB2 JUMPI PUSH2 0x100 DUP1 DUP4 SLOAD DIV MUL DUP4 MSTORE SWAP2 PUSH1 0x20 ADD SWAP2 PUSH2 0xBDD JUMP JUMPDEST DUP3 ADD SWAP2 SWAP1 PUSH1 0x0 MSTORE PUSH1 0x20 PUSH1 0x0 KECCAK256 SWAP1 JUMPDEST DUP2 SLOAD DUP2 MSTORE SWAP1 PUSH1 0x1 ADD SWAP1 PUSH1 0x20 ADD DUP1 DUP4 GT PUSH2 0xBC0 JUMPI DUP3 SWAP1 SUB PUSH1 0x1F AND DUP3 ADD SWAP2 JUMPDEST POP POP POP POP POP SWAP1 DUP1 PUSH1 0x2 ADD DUP1 SLOAD PUSH2 0xBF2 SWAP1 PUSH2 0x221A JUMP JUMPDEST DUP1 PUSH1 0x1F ADD PUSH1 0x20 DUP1 SWAP2 DIV MUL PUSH1 0x20 ADD PUSH1 0x40 MLOAD SWAP1 DUP2 ADD PUSH1 0x40 MSTORE DUP1 SWAP3 SWAP2 SWAP1 DUP2 DUP2 MSTORE PUSH1 0x20 ADD DUP3 DUP1 SLOAD PUSH2 0xC1E SWAP1 PUSH2 0x221A JUMP JUMPDEST DUP1 ISZERO PUSH2 0xC6B JUMPI DUP1 PUSH1 0x1F LT PUSH2 0xC40 JUMPI PUSH2 0x100 DUP1 DUP4 SLOAD DIV MUL DUP4 MSTORE SWAP2 PUSH1 0x20 ADD SWAP2 PUSH2 0xC6B JUMP JUMPDEST DUP3 ADD SWAP2 SWAP1 PUSH1 0x0 MSTORE PUSH1 0x20 PUSH1 0x0 KECCAK256 SWAP1 JUMPDEST DUP2 SLOAD DUP2 MSTORE SWAP1 PUSH1 0x1 ADD SWAP1 PUSH1 0x20 ADD DUP1 DUP4 GT PUSH2 0xC4E JUMPI DUP3 SWAP1 SUB PUSH1 0x1F AND DUP3 ADD SWAP2 JUMPDEST POP POP POP POP POP SWAP1 DUP1 PUSH1 0x3 ADD DUP1 SLOAD PUSH2 0xC80 SWAP1 PUSH2 0x221A JUMP JUMPDEST DUP1 PUSH1 0x1F ADD PUSH1 0x20 DUP1 SWAP2 DIV MUL PUSH1 0x20 ADD PUSH1 0x40 MLOAD SWAP1 DUP2 ADD PUSH1 0x40 MSTORE DUP1 SWAP3 SWAP2 SWAP1 DUP2 DUP2 MSTORE PUSH1 0x20 ADD DUP3 DUP1 SLOAD PUSH2 0xCAC SWAP1 PUSH2 0x221A JUMP JUMPDEST DUP1 ISZERO PUSH2 0xCF9 JUMPI DUP1 PUSH1 0x1F LT PUSH2 0xCCE JUMPI PUSH2 0x100 DUP1 DUP4 SLOAD DIV MUL DUP4 MSTORE SWAP2 PUSH1 0x20 ADD SWAP2 PUSH2 0xCF9 JUMP JUMPDEST DUP3 ADD SWAP2 SWAP1 PUSH1 0x0 MSTORE PUSH1 0x20 PUSH1 0x0 KECCAK256 SWAP1 JUMPDEST DUP2 SLOAD DUP2 MSTORE SWAP1 PUSH1 0x1 ADD SWAP1 PUSH1 0x20 ADD DUP1 DUP4 GT PUSH2 0xCDC JUMPI DUP3 SWAP1 SUB PUSH1 0x1F AND DUP3 ADD SWAP2 JUMPDEST POP POP POP POP POP SWAP1 DUP1 PUSH1 0x4 ADD PUSH1 0x0 SWAP1 SLOAD SWAP1 PUSH2 0x100 EXP SWAP1 DIV PUSH1 0xFF AND SWAP1 DUP1 PUSH1 0x5 ADD PUSH1 0x40 MLOAD DUP1 PUSH1 0x80 ADD PUSH1 0x40 MSTORE SWAP1 DUP2 PUSH1 0x0 DUP3 ADD PUSH1 0x0 SWAP1 SLOAD SWAP1 PUSH2 0x100 EXP SWAP1 DIV PUSH1 0xFF AND ISZERO ISZERO ISZERO ISZERO DUP2 MSTORE PUSH1 0x20 ADD PUSH1 0x0 DUP3 ADD PUSH1 0x1 SWAP1 SLOAD SWAP1 PUSH2 0x100 EXP SWAP1 DIV PUSH1 0xFF AND ISZERO ISZERO ISZERO ISZERO DUP2 MSTORE PUSH1 0x20 ADD PUSH1 0x0 DUP3 ADD PUSH1 0x2 SWAP1 SLOAD SWAP1 PUSH2 0x100 EXP SWAP1 DIV PUSH1 0xFF AND ISZERO ISZERO ISZERO ISZERO DUP2 MSTORE PUSH1 0x20 ADD PUSH1 0x0 DUP3 ADD PUSH1 0x3 SWAP1 SLOAD SWAP1 PUSH2 0x100 EXP SWAP1 DIV PUSH1 0xFF AND ISZERO ISZERO ISZERO ISZERO DUP2 MSTORE POP POP SWAP1 POP DUP7 JUMP JUMPDEST PUSH1 0x0 DUP1 SLOAD SWAP1 PUSH2 0x100 EXP SWAP1 DIV PUSH20 0xFFFFFFFFFFFFFFFFFFFFFFFFFFFFFFFFFFFFFFFF AND PUSH20 0xFFFFFFFFFFFFFFFFFFFFFFFFFFFFFFFFFFFFFFFF AND CALLER PUSH20 0xFFFFFFFFFFFFFFFFFFFFFFFFFFFFFFFFFFFFFFFF AND EQ DUP1 PUSH2 0xDF1 JUMPI POP PUSH2 0xDF0 CALLER PUSH2 0x2D3 JUMP JUMPDEST JUMPDEST PUSH2 0xE30 JUMPI PUSH1 0x40 MLOAD PUSH32 0x8C379A000000000000000000000000000000000000000000000000000000000 DUP2 MSTORE PUSH1 0x4 ADD PUSH2 0xE27 SWAP1 PUSH2 0x20C8 JUMP JUMPDEST PUSH1 0x40 MLOAD DUP1 SWAP2 SUB SWAP1 REVERT JUMPDEST DUP2 PUSH1 0x0 PUSH20 0xFFFFFFFFFFFFFFFFFFFFFFFFFFFFFFFFFFFFFFFF AND PUSH1 0x1 PUSH1 0x0 DUP4 PUSH20 0xFFFFFFFFFFFFFFFFFFFFFFFFFFFFFFFFFFFFFFFF AND PUSH20 0xFFFFFFFFFFFFFFFFFFFFFFFFFFFFFFFFFFFFFFFF AND DUP2 MSTORE PUSH1 0x20 ADD SWAP1 DUP2 MSTORE PUSH1 0x20 ADD PUSH1 0x0 KECCAK256 PUSH1 0x0 ADD PUSH1 0x0 SWAP1 SLOAD SWAP1 PUSH2 0x100 EXP SWAP1 DIV PUSH20 0xFFFFFFFFFFFFFFFFFFFFFFFFFFFFFFFFFFFFFFFF AND PUSH20 0xFFFFFFFFFFFFFFFFFFFFFFFFFFFFFFFFFFFFFFFF AND EQ ISZERO PUSH2 0xF03 JUMPI PUSH1 0x40 MLOAD PUSH32 0x8C379A000000000000000000000000000000000000000000000000000000000 DUP2 MSTORE PUSH1 0x4 ADD PUSH2 0xEFA SWAP1 PUSH2 0x20E8 JUMP JUMPDEST PUSH1 0x40 MLOAD DUP1 SWAP2 SUB SWAP1 REVERT JUMPDEST PUSH1 0x0 PUSH1 0x1 PUSH1 0x0 DUP6 PUSH20 0xFFFFFFFFFFFFFFFFFFFFFFFFFFFFFFFFFFFFFFFF AND PUSH20 0xFFFFFFFFFFFFFFFFFFFFFFFFFFFFFFFFFFFFFFFF AND DUP2 MSTORE PUSH1 0x20 ADD SWAP1 DUP2 MSTORE PUSH1 0x20 ADD PUSH1 0x0 KECCAK256 SWAP1 POP PUSH1 0x0 DUP2 PUSH1 0x5 ADD SWAP1 POP PUSH1 0x0 PUSH1 0x3 DUP2 GT ISZERO PUSH2 0xF88 JUMPI PUSH32 0x4E487B7100000000000000000000000000000000000000000000000000000000 PUSH1 0x0 MSTORE PUSH1 0x21 PUSH1 0x4 MSTORE PUSH1 0x24 PUSH1 0x0 REVERT JUMPDEST DUP5 PUSH1 0x3 DUP2 GT ISZERO PUSH2 0xFC1 JUMPI PUSH32 0x4E487B7100000000000000000000000000000000000000000000000000000000 PUSH1 0x0 MSTORE PUSH1 0x21 PUSH1 0x4 MSTORE PUSH1 0x24 PUSH1 0x0 REVERT JUMPDEST EQ ISZERO PUSH2 0xFE9 JUMPI PUSH1 0x0 DUP2 PUSH1 0x0 ADD PUSH1 0x0 PUSH2 0x100 EXP DUP2 SLOAD DUP2 PUSH1 0xFF MUL NOT AND SWAP1 DUP4 ISZERO ISZERO MUL OR SWAP1 SSTORE POP PUSH2 0x11B8 JUMP JUMPDEST PUSH1 0x1 PUSH1 0x3 DUP2 GT ISZERO PUSH2 0x1023 JUMPI PUSH32 0x4E487B7100000000000000000000000000000000000000000000000000000000 PUSH1 0x0 MSTORE PUSH1 0x21 PUSH1 0x4 MSTORE PUSH1 0x24 PUSH1 0x0 REVERT JUMPDEST DUP5 PUSH1 0x3 DUP2 GT ISZERO PUSH2 0x105C JUMPI PUSH32 0x4E487B7100000000000000000000000000000000000000000000000000000000 PUSH1 0x0 MSTORE PUSH1 0x21 PUSH1 0x4 MSTORE PUSH1 0x24 PUSH1 0x0 REVERT JUMPDEST EQ ISZERO PUSH2 0x1084 JUMPI PUSH1 0x0 DUP2 PUSH1 0x0 ADD PUSH1 0x1 PUSH2 0x100 EXP DUP2 SLOAD DUP2 PUSH1 0xFF MUL NOT AND SWAP1 DUP4 ISZERO ISZERO MUL OR SWAP1 SSTORE POP PUSH2 0x11B7 JUMP JUMPDEST PUSH1 0x2 PUSH1 0x3 DUP2 GT ISZERO PUSH2 0x10BE JUMPI PUSH32 0x4E487B7100000000000000000000000000000000000000000000000000000000 PUSH1 0x0 MSTORE PUSH1 0x21 PUSH1 0x4 MSTORE PUSH1 0x24 PUSH1 0x0 REVERT JUMPDEST DUP5 PUSH1 0x3 DUP2 GT ISZERO PUSH2 0x10F7 JUMPI PUSH32 0x4E487B7100000000000000000000000000000000000000000000000000000000 PUSH1 0x0 MSTORE PUSH1 0x21 PUSH1 0x4 MSTORE PUSH1 0x24 PUSH1 0x0 REVERT JUMPDEST EQ ISZERO PUSH2 0x111F JUMPI PUSH1 0x0 DUP2 PUSH1 0x0 ADD PUSH1 0x2 PUSH2 0x100 EXP DUP2 SLOAD DUP2 PUSH1 0xFF MUL NOT AND SWAP1 DUP4 ISZERO ISZERO MUL OR SWAP1 SSTORE POP PUSH2 0x11B6 JUMP JUMPDEST PUSH1 0x3 DUP1 DUP2 GT ISZERO PUSH2 0x1158 JUMPI PUSH32 0x4E487B7100000000000000000000000000000000000000000000000000000000 PUSH1 0x0 MSTORE PUSH1 0x21 PUSH1 0x4 MSTORE PUSH1 0x24 PUSH1 0x0 REVERT JUMPDEST DUP5 PUSH1 0x3 DUP2 GT ISZERO PUSH2 0x1191 JUMPI PUSH32 0x4E487B7100000000000000000000000000000000000000000000000000000000 PUSH1 0x0 MSTORE PUSH1 0x21 PUSH1 0x4 MSTORE PUSH1 0x24 PUSH1 0x0 REVERT JUMPDEST EQ ISZERO PUSH2 0x11B5 JUMPI PUSH1 0x0 DUP2 PUSH1 0x0 ADD PUSH1 0x3 PUSH2 0x100 EXP DUP2 SLOAD DUP2 PUSH1 0xFF MUL NOT AND SWAP1 DUP4 ISZERO ISZERO MUL OR SWAP1 SSTORE POP JUMPDEST JUMPDEST JUMPDEST JUMPDEST DUP1 PUSH1 0x0 ADD PUSH1 0x0 SWAP1 SLOAD SWAP1 PUSH2 0x100 EXP SWAP1 DIV PUSH1 0xFF AND ISZERO DUP1 ISZERO PUSH2 0x11E6 JUMPI POP DUP1 PUSH1 0x0 ADD PUSH1 0x1 SWAP1 SLOAD SWAP1 PUSH2 0x100 EXP SWAP1 DIV PUSH1 0xFF AND ISZERO JUMPDEST DUP1 ISZERO PUSH2 0x1201 JUMPI POP DUP1 PUSH1 0x0 ADD PUSH1 0x2 SWAP1 SLOAD SWAP1 PUSH2 0x100 EXP SWAP1 DIV PUSH1 0xFF AND ISZERO JUMPDEST ISZERO PUSH2 0x125F JUMPI PUSH1 0x0 PUSH1 0x2 PUSH1 0x0 DUP8 PUSH20 0xFFFFFFFFFFFFFFFFFFFFFFFFFFFFFFFFFFFFFFFF AND PUSH20 0xFFFFFFFFFFFFFFFFFFFFFFFFFFFFFFFFFFFFFFFF AND DUP2 MSTORE PUSH1 0x20 ADD SWAP1 DUP2 MSTORE PUSH1 0x20 ADD PUSH1 0x0 KECCAK256 PUSH1 0x0 PUSH2 0x100 EXP DUP2 SLOAD DUP2 PUSH1 0xFF MUL NOT AND SWAP1 DUP4 ISZERO ISZERO MUL OR SWAP1 SSTORE POP JUMPDEST POP POP POP POP POP JUMP JUMPDEST DUP1 PUSH1 0x0 PUSH20 0xFFFFFFFFFFFFFFFFFFFFFFFFFFFFFFFFFFFFFFFF AND PUSH1 0x1 PUSH1 0x0 DUP4 PUSH20 0xFFFFFFFFFFFFFFFFFFFFFFFFFFFFFFFFFFFFFFFF AND PUSH20 0xFFFFFFFFFFFFFFFFFFFFFFFFFFFFFFFFFFFFFFFF AND DUP2 MSTORE PUSH1 0x20 ADD SWAP1 DUP2 MSTORE PUSH1 0x20 ADD PUSH1 0x0 KECCAK256 PUSH1 0x0 ADD PUSH1 0x0 SWAP1 SLOAD SWAP1 PUSH2 0x100 EXP SWAP1 DIV PUSH20 0xFFFFFFFFFFFFFFFFFFFFFFFFFFFFFFFFFFFFFFFF AND PUSH20 0xFFFFFFFFFFFFFFFFFFFFFFFFFFFFFFFFFFFFFFFF AND EQ ISZERO PUSH2 0x1339 JUMPI PUSH1 0x40 MLOAD PUSH32 0x8C379A000000000000000000000000000000000000000000000000000000000 DUP2 MSTORE PUSH1 0x4 ADD PUSH2 0x1330 SWAP1 PUSH2 0x20E8 JUMP JUMPDEST PUSH1 0x40 MLOAD DUP1 SWAP2 SUB SWAP1 REVERT JUMPDEST PUSH1 0x1 PUSH1 0x0 DUP4 PUSH20 0xFFFFFFFFFFFFFFFFFFFFFFFFFFFFFFFFFFFFFFFF AND PUSH20 0xFFFFFFFFFFFFFFFFFFFFFFFFFFFFFFFFFFFFFFFF AND DUP2 MSTORE PUSH1 0x20 ADD SWAP1 DUP2 MSTORE PUSH1 0x20 ADD PUSH1 0x0 KECCAK256 PUSH1 0x0 DUP1 DUP3 ADD PUSH1 0x0 PUSH2 0x100 EXP DUP2 SLOAD SWAP1 PUSH20 0xFFFFFFFFFFFFFFFFFFFFFFFFFFFFFFFFFFFFFFFF MUL NOT AND SWAP1 SSTORE PUSH1 0x1 DUP3 ADD PUSH1 0x0 PUSH2 0x13B0 SWAP2 SWAP1 PUSH2 0x1C72 JUMP JUMPDEST PUSH1 0x2 DUP3 ADD PUSH1 0x0 PUSH2 0x13C0 SWAP2 SWAP1 PUSH2 0x1C72 JUMP JUMPDEST PUSH1 0x3 DUP3 ADD PUSH1 0x0 PUSH2 0x13D0 SWAP2 SWAP1 PUSH2 0x1C72 JUMP JUMPDEST PUSH1 0x4 DUP3 ADD PUSH1 0x0 PUSH2 0x100 EXP DUP2 SLOAD SWAP1 PUSH1 0xFF MUL NOT AND SWAP1 SSTORE PUSH1 0x5 DUP3 ADD PUSH1 0x0 DUP1 DUP3 ADD PUSH1 0x0 PUSH2 0x100 EXP DUP2 SLOAD SWAP1 PUSH1 0xFF MUL NOT AND SWAP1 SSTORE PUSH1 0x0 DUP3 ADD PUSH1 0x1 PUSH2 0x100 EXP DUP2 SLOAD SWAP1 PUSH1 0xFF MUL NOT AND SWAP1 SSTORE PUSH1 0x0 DUP3 ADD PUSH1 0x2 PUSH2 0x100 EXP DUP2 SLOAD SWAP1 PUSH1 0xFF MUL NOT AND SWAP1 SSTORE PUSH1 0x0 DUP3 ADD PUSH1 0x3 PUSH2 0x100 EXP DUP2 SLOAD SWAP1 PUSH1 0xFF MUL NOT AND SWAP1 SSTORE POP POP POP POP POP POP JUMP JUMPDEST DUP4 PUSH1 0x0 PUSH20 0xFFFFFFFFFFFFFFFFFFFFFFFFFFFFFFFFFFFFFFFF AND PUSH1 0x1 PUSH1 0x0 DUP4 PUSH20 0xFFFFFFFFFFFFFFFFFFFFFFFFFFFFFFFFFFFFFFFF AND PUSH20 0xFFFFFFFFFFFFFFFFFFFFFFFFFFFFFFFFFFFFFFFF AND DUP2 MSTORE PUSH1 0x20 ADD SWAP1 DUP2 MSTORE PUSH1 0x20 ADD PUSH1 0x0 KECCAK256 PUSH1 0x0 ADD PUSH1 0x0 SWAP1 SLOAD SWAP1 PUSH2 0x100 EXP SWAP1 DIV PUSH20 0xFFFFFFFFFFFFFFFFFFFFFFFFFFFFFFFFFFFFFFFF AND PUSH20 0xFFFFFFFFFFFFFFFFFFFFFFFFFFFFFFFFFFFFFFFF AND EQ PUSH2 0x1513 JUMPI PUSH1 0x40 MLOAD PUSH32 0x8C379A000000000000000000000000000000000000000000000000000000000 DUP2 MSTORE PUSH1 0x4 ADD PUSH2 0x150A SWAP1 PUSH2 0x2108 JUMP JUMPDEST PUSH1 0x40 MLOAD DUP1 SWAP2 SUB SWAP1 REVERT JUMPDEST PUSH1 0x0 PUSH1 0x40 MLOAD DUP1 PUSH1 0x80 ADD PUSH1 0x40 MSTORE DUP1 PUSH1 0x0 ISZERO ISZERO DUP2 MSTORE PUSH1 0x20 ADD PUSH1 0x0 ISZERO ISZERO DUP2 MSTORE PUSH1 0x20 ADD PUSH1 0x0 ISZERO ISZERO DUP2 MSTORE PUSH1 0x20 ADD PUSH1 0x1 ISZERO ISZERO DUP2 MSTORE POP SWAP1 POP PUSH1 0x0 PUSH1 0x40 MLOAD DUP1 PUSH1 0xC0 ADD PUSH1 0x40 MSTORE DUP1 DUP9 PUSH20 0xFFFFFFFFFFFFFFFFFFFFFFFFFFFFFFFFFFFFFFFF AND DUP2 MSTORE PUSH1 0x20 ADD DUP8 DUP2 MSTORE PUSH1 0x20 ADD DUP7 DUP2 MSTORE PUSH1 0x20 ADD DUP6 DUP2 MSTORE PUSH1 0x20 ADD PUSH1 0x1 ISZERO ISZERO DUP2 MSTORE PUSH1 0x20 ADD DUP4 DUP2 MSTORE POP SWAP1 POP DUP1 PUSH1 0x1 PUSH1 0x0 DUP10 PUSH20 0xFFFFFFFFFFFFFFFFFFFFFFFFFFFFFFFFFFFFFFFF AND PUSH20 0xFFFFFFFFFFFFFFFFFFFFFFFFFFFFFFFFFFFFFFFF AND DUP2 MSTORE PUSH1 0x20 ADD SWAP1 DUP2 MSTORE PUSH1 0x20 ADD PUSH1 0x0 KECCAK256 PUSH1 0x0 DUP3 ADD MLOAD DUP2 PUSH1 0x0 ADD PUSH1 0x0 PUSH2 0x100 EXP DUP2 SLOAD DUP2 PUSH20 0xFFFFFFFFFFFFFFFFFFFFFFFFFFFFFFFFFFFFFFFF MUL NOT AND SWAP1 DUP4 PUSH20 0xFFFFFFFFFFFFFFFFFFFFFFFFFFFFFFFFFFFFFFFF AND MUL OR SWAP1 SSTORE POP PUSH1 0x20 DUP3 ADD MLOAD DUP2 PUSH1 0x1 ADD SWAP1 DUP1 MLOAD SWAP1 PUSH1 0x20 ADD SWAP1 PUSH2 0x1631 SWAP3 SWAP2 SWAP1 PUSH2 0x1CB2 JUMP JUMPDEST POP PUSH1 0x40 DUP3 ADD MLOAD DUP2 PUSH1 0x2 ADD SWAP1 DUP1 MLOAD SWAP1 PUSH1 0x20 ADD SWAP1 PUSH2 0x164E SWAP3 SWAP2 SWAP1 PUSH2 0x1CB2 JUMP JUMPDEST POP PUSH1 0x60 DUP3 ADD MLOAD DUP2 PUSH1 0x3 ADD SWAP1 DUP1 MLOAD SWAP1 PUSH1 0x20 ADD SWAP1 PUSH2 0x166B SWAP3 SWAP2 SWAP1 PUSH2 0x1CB2 JUMP JUMPDEST POP PUSH1 0x80 DUP3 ADD MLOAD DUP2 PUSH1 0x4 ADD PUSH1 0x0 PUSH2 0x100 EXP DUP2 SLOAD DUP2 PUSH1 0xFF MUL NOT AND SWAP1 DUP4 ISZERO ISZERO MUL OR SWAP1 SSTORE POP PUSH1 0xA0 DUP3 ADD MLOAD DUP2 PUSH1 0x5 ADD PUSH1 0x0 DUP3 ADD MLOAD DUP2 PUSH1 0x0 ADD PUSH1 0x0 PUSH2 0x100 EXP DUP2 SLOAD DUP2 PUSH1 0xFF MUL NOT AND SWAP1 DUP4 ISZERO ISZERO MUL OR SWAP1 SSTORE POP PUSH1 0x20 DUP3 ADD MLOAD DUP2 PUSH1 0x0 ADD PUSH1 0x1 PUSH2 0x100 EXP DUP2 SLOAD DUP2 PUSH1 0xFF MUL NOT AND SWAP1 DUP4 ISZERO ISZERO MUL OR SWAP1 SSTORE POP PUSH1 0x40 DUP3 ADD MLOAD DUP2 PUSH1 0x0 ADD PUSH1 0x2 PUSH2 0x100 EXP DUP2 SLOAD DUP2 PUSH1 0xFF MUL NOT AND SWAP1 DUP4 ISZERO ISZERO MUL OR SWAP1 SSTORE POP PUSH1 0x60 DUP3 ADD MLOAD DUP2 PUSH1 0x0 ADD PUSH1 0x3 PUSH2 0x100 EXP DUP2 SLOAD DUP2 PUSH1 0xFF MUL NOT AND SWAP1 DUP4 ISZERO ISZERO MUL OR SWAP1 SSTORE POP POP POP SWAP1 POP POP POP POP POP POP POP POP POP JUMP JUMPDEST PUSH1 0x0 PUSH2 0x1730 DUP3 PUSH1 0x3 PUSH2 0x174B JUMP JUMPDEST SWAP1 POP SWAP2 SWAP1 POP JUMP JUMPDEST PUSH1 0x0 PUSH2 0x1744 DUP3 PUSH1 0x1 PUSH2 0x174B JUMP JUMPDEST SWAP1 POP SWAP2 SWAP1 POP JUMP JUMPDEST PUSH1 0x0 DUP1 PUSH1 0x1 PUSH1 0x0 DUP6 PUSH20 0xFFFFFFFFFFFFFFFFFFFFFFFFFFFFFFFFFFFFFFFF AND PUSH20 0xFFFFFFFFFFFFFFFFFFFFFFFFFFFFFFFFFFFFFFFF AND DUP2 MSTORE PUSH1 0x20 ADD SWAP1 DUP2 MSTORE PUSH1 0x20 ADD PUSH1 0x0 KECCAK256 PUSH1 0x40 MLOAD DUP1 PUSH1 0xC0 ADD PUSH1 0x40 MSTORE SWAP1 DUP2 PUSH1 0x0 DUP3 ADD PUSH1 0x0 SWAP1 SLOAD SWAP1 PUSH2 0x100 EXP SWAP1 DIV PUSH20 0xFFFFFFFFFFFFFFFFFFFFFFFFFFFFFFFFFFFFFFFF AND PUSH20 0xFFFFFFFFFFFFFFFFFFFFFFFFFFFFFFFFFFFFFFFF AND PUSH20 0xFFFFFFFFFFFFFFFFFFFFFFFFFFFFFFFFFFFFFFFF AND DUP2 MSTORE PUSH1 0x20 ADD PUSH1 0x1 DUP3 ADD DUP1 SLOAD PUSH2 0x17FE SWAP1 PUSH2 0x221A JUMP JUMPDEST DUP1 PUSH1 0x1F ADD PUSH1 0x20 DUP1 SWAP2 DIV MUL PUSH1 0x20 ADD PUSH1 0x40 MLOAD SWAP1 DUP2 ADD PUSH1 0x40 MSTORE DUP1 SWAP3 SWAP2 SWAP1 DUP2 DUP2 MSTORE PUSH1 0x20 ADD DUP3 DUP1 SLOAD PUSH2 0x182A SWAP1 PUSH2 0x221A JUMP JUMPDEST DUP1 ISZERO PUSH2 0x1877 JUMPI DUP1 PUSH1 0x1F LT PUSH2 0x184C JUMPI PUSH2 0x100 DUP1 DUP4 SLOAD DIV MUL DUP4 MSTORE SWAP2 PUSH1 0x20 ADD SWAP2 PUSH2 0x1877 JUMP JUMPDEST DUP3 ADD SWAP2 SWAP1 PUSH1 0x0 MSTORE PUSH1 0x20 PUSH1 0x0 KECCAK256 SWAP1 JUMPDEST DUP2 SLOAD DUP2 MSTORE SWAP1 PUSH1 0x1 ADD SWAP1 PUSH1 0x20 ADD DUP1 DUP4 GT PUSH2 0x185A JUMPI DUP3 SWAP1 SUB PUSH1 0x1F AND DUP3 ADD SWAP2 JUMPDEST POP POP POP POP POP DUP2 MSTORE PUSH1 0x20 ADD PUSH1 0x2 DUP3 ADD DUP1 SLOAD PUSH2 0x1890 SWAP1 PUSH2 0x221A JUMP JUMPDEST DUP1 PUSH1 0x1F ADD PUSH1 0x20 DUP1 SWAP2 DIV MUL PUSH1 0x20 ADD PUSH1 0x40 MLOAD SWAP1 DUP2 ADD PUSH1 0x40 MSTORE DUP1 SWAP3 SWAP2 SWAP1 DUP2 DUP2 MSTORE PUSH1 0x20 ADD DUP3 DUP1 SLOAD PUSH2 0x18BC SWAP1 PUSH2 0x221A JUMP JUMPDEST DUP1 ISZERO PUSH2 0x1909 JUMPI DUP1 PUSH1 0x1F LT PUSH2 0x18DE JUMPI PUSH2 0x100 DUP1 DUP4 SLOAD DIV MUL DUP4 MSTORE SWAP2 PUSH1 0x20 ADD SWAP2 PUSH2 0x1909 JUMP JUMPDEST DUP3 ADD SWAP2 SWAP1 PUSH1 0x0 MSTORE PUSH1 0x20 PUSH1 0x0 KECCAK256 SWAP1 JUMPDEST DUP2 SLOAD DUP2 MSTORE SWAP1 PUSH1 0x1 ADD SWAP1 PUSH1 0x20 ADD DUP1 DUP4 GT PUSH2 0x18EC JUMPI DUP3 SWAP1 SUB PUSH1 0x1F AND DUP3 ADD SWAP2 JUMPDEST POP POP POP POP POP DUP2 MSTORE PUSH1 0x20 ADD PUSH1 0x3 DUP3 ADD DUP1 SLOAD PUSH2 0x1922 SWAP1 PUSH2 0x221A JUMP JUMPDEST DUP1 PUSH1 0x1F ADD PUSH1 0x20 DUP1 SWAP2 DIV MUL PUSH1 0x20 ADD PUSH1 0x40 MLOAD SWAP1 DUP2 ADD PUSH1 0x40 MSTORE DUP1 SWAP3 SWAP2 SWAP1 DUP2 DUP2 MSTORE PUSH1 0x20 ADD DUP3 DUP1 SLOAD PUSH2 0x194E SWAP1 PUSH2 0x221A JUMP JUMPDEST DUP1 ISZERO PUSH2 0x199B JUMPI DUP1 PUSH1 0x1F LT PUSH2 0x1970 JUMPI PUSH2 0x100 DUP1 DUP4 SLOAD DIV MUL DUP4 MSTORE SWAP2 PUSH1 0x20 ADD SWAP2 PUSH2 0x199B JUMP JUMPDEST DUP3 ADD SWAP2 SWAP1 PUSH1 0x0 MSTORE PUSH1 0x20 PUSH1 0x0 KECCAK256 SWAP1 JUMPDEST DUP2 SLOAD DUP2 MSTORE SWAP1 PUSH1 0x1 ADD SWAP1 PUSH1 0x20 ADD DUP1 DUP4 GT PUSH2 0x197E JUMPI DUP3 SWAP1 SUB PUSH1 0x1F AND DUP3 ADD SWAP2 JUMPDEST POP POP POP POP POP DUP2 MSTORE PUSH1 0x20 ADD PUSH1 0x4 DUP3 ADD PUSH1 0x0 SWAP1 SLOAD SWAP1 PUSH2 0x100 EXP SWAP1 DIV PUSH1 0xFF AND ISZERO ISZERO ISZERO ISZERO DUP2 MSTORE PUSH1 0x20 ADD PUSH1 0x5 DUP3 ADD PUSH1 0x40 MLOAD DUP1 PUSH1 0x80 ADD PUSH1 0x40 MSTORE SWAP1 DUP2 PUSH1 0x0 DUP3 ADD PUSH1 0x0 SWAP1 SLOAD SWAP1 PUSH2 0x100 EXP SWAP1 DIV PUSH1 0xFF AND ISZERO ISZERO ISZERO ISZERO DUP2 MSTORE PUSH1 0x20 ADD PUSH1 0x0 DUP3 ADD PUSH1 0x1 SWAP1 SLOAD SWAP1 PUSH2 0x100 EXP SWAP1 DIV PUSH1 0xFF AND ISZERO ISZERO ISZERO ISZERO DUP2 MSTORE PUSH1 0x20 ADD PUSH1 0x0 DUP3 ADD PUSH1 0x2 SWAP1 SLOAD SWAP1 PUSH2 0x100 EXP SWAP1 DIV PUSH1 0xFF AND ISZERO ISZERO ISZERO ISZERO DUP2 MSTORE PUSH1 0x20 ADD PUSH1 0x0 DUP3 ADD PUSH1 0x3 SWAP1 SLOAD SWAP1 PUSH2 0x100 EXP SWAP1 DIV PUSH1 0xFF AND ISZERO ISZERO ISZERO ISZERO DUP2 MSTORE POP POP DUP2 MSTORE POP POP SWAP1 POP PUSH1 0x0 DUP2 PUSH1 0xA0 ADD MLOAD SWAP1 POP PUSH1 0x0 PUSH1 0x3 DUP2 GT ISZERO PUSH2 0x1A84 JUMPI PUSH32 0x4E487B7100000000000000000000000000000000000000000000000000000000 PUSH1 0x0 MSTORE PUSH1 0x21 PUSH1 0x4 MSTORE PUSH1 0x24 PUSH1 0x0 REVERT JUMPDEST DUP5 PUSH1 0x3 DUP2 GT ISZERO PUSH2 0x1ABD JUMPI PUSH32 0x4E487B7100000000000000000000000000000000000000000000000000000000 PUSH1 0x0 MSTORE PUSH1 0x21 PUSH1 0x4 MSTORE PUSH1 0x24 PUSH1 0x0 REVERT JUMPDEST EQ ISZERO PUSH2 0x1AD1 JUMPI DUP1 PUSH1 0x0 ADD MLOAD SWAP3 POP POP POP PUSH2 0x1C6C JUMP JUMPDEST PUSH1 0x1 PUSH1 0x3 DUP2 GT ISZERO PUSH2 0x1B0B JUMPI PUSH32 0x4E487B7100000000000000000000000000000000000000000000000000000000 PUSH1 0x0 MSTORE PUSH1 0x21 PUSH1 0x4 MSTORE PUSH1 0x24 PUSH1 0x0 REVERT JUMPDEST DUP5 PUSH1 0x3 DUP2 GT ISZERO PUSH2 0x1B44 JUMPI PUSH32 0x4E487B7100000000000000000000000000000000000000000000000000000000 PUSH1 0x0 MSTORE PUSH1 0x21 PUSH1 0x4 MSTORE PUSH1 0x24 PUSH1 0x0 REVERT JUMPDEST EQ ISZERO PUSH2 0x1B58 JUMPI DUP1 PUSH1 0x20 ADD MLOAD SWAP3 POP POP POP PUSH2 0x1C6C JUMP JUMPDEST PUSH1 0x2 PUSH1 0x3 DUP2 GT ISZERO PUSH2 0x1B92 JUMPI PUSH32 0x4E487B7100000000000000000000000000000000000000000000000000000000 PUSH1 0x0 MSTORE PUSH1 0x21 PUSH1 0x4 MSTORE PUSH1 0x24 PUSH1 0x0 REVERT JUMPDEST DUP5 PUSH1 0x3 DUP2 GT ISZERO PUSH2 0x1BCB JUMPI PUSH32 0x4E487B7100000000000000000000000000000000000000000000000000000000 PUSH1 0x0 MSTORE PUSH1 0x21 PUSH1 0x4 MSTORE PUSH1 0x24 PUSH1 0x0 REVERT JUMPDEST EQ ISZERO PUSH2 0x1BDF JUMPI DUP1 PUSH1 0x40 ADD MLOAD SWAP3 POP POP POP PUSH2 0x1C6C JUMP JUMPDEST PUSH1 0x3 DUP1 DUP2 GT ISZERO PUSH2 0x1C18 JUMPI PUSH32 0x4E487B7100000000000000000000000000000000000000000000000000000000 PUSH1 0x0 MSTORE PUSH1 0x21 PUSH1 0x4 MSTORE PUSH1 0x24 PUSH1 0x0 REVERT JUMPDEST DUP5 PUSH1 0x3 DUP2 GT ISZERO PUSH2 0x1C51 JUMPI PUSH32 0x4E487B7100000000000000000000000000000000000000000000000000000000 PUSH1 0x0 MSTORE PUSH1 0x21 PUSH1 0x4 MSTORE PUSH1 0x24 PUSH1 0x0 REVERT JUMPDEST EQ ISZERO PUSH2 0x1C65 JUMPI DUP1 PUSH1 0x60 ADD MLOAD SWAP3 POP POP POP PUSH2 0x1C6C JUMP JUMPDEST PUSH1 0x0 SWAP3 POP POP POP JUMPDEST SWAP3 SWAP2 POP POP JUMP JUMPDEST POP DUP1 SLOAD PUSH2 0x1C7E SWAP1 PUSH2 0x221A JUMP JUMPDEST PUSH1 0x0 DUP3 SSTORE DUP1 PUSH1 0x1F LT PUSH2 0x1C90 JUMPI POP PUSH2 0x1CAF JUMP JUMPDEST PUSH1 0x1F ADD PUSH1 0x20 SWAP1 DIV SWAP1 PUSH1 0x0 MSTORE PUSH1 0x20 PUSH1 0x0 KECCAK256 SWAP1 DUP2 ADD SWAP1 PUSH2 0x1CAE SWAP2 SWAP1 PUSH2 0x1D38 JUMP JUMPDEST JUMPDEST POP JUMP JUMPDEST DUP3 DUP1 SLOAD PUSH2 0x1CBE SWAP1 PUSH2 0x221A JUMP JUMPDEST SWAP1 PUSH1 0x0 MSTORE PUSH1 0x20 PUSH1 0x0 KECCAK256 SWAP1 PUSH1 0x1F ADD PUSH1 0x20 SWAP1 DIV DUP2 ADD SWAP3 DUP3 PUSH2 0x1CE0 JUMPI PUSH1 0x0 DUP6 SSTORE PUSH2 0x1D27 JUMP JUMPDEST DUP3 PUSH1 0x1F LT PUSH2 0x1CF9 JUMPI DUP1 MLOAD PUSH1 0xFF NOT AND DUP4 DUP1 ADD OR DUP6 SSTORE PUSH2 0x1D27 JUMP JUMPDEST DUP3 DUP1 ADD PUSH1 0x1 ADD DUP6 SSTORE DUP3 ISZERO PUSH2 0x1D27 JUMPI SWAP2 DUP3 ADD JUMPDEST DUP3 DUP2 GT ISZERO PUSH2 0x1D26 JUMPI DUP3 MLOAD DUP3 SSTORE SWAP2 PUSH1 0x20 ADD SWAP2 SWAP1 PUSH1 0x1 ADD SWAP1 PUSH2 0x1D0B JUMP JUMPDEST JUMPDEST POP SWAP1 POP PUSH2 0x1D34 SWAP2 SWAP1 PUSH2 0x1D38 JUMP JUMPDEST POP SWAP1 JUMP JUMPDEST JUMPDEST DUP1 DUP3 GT ISZERO PUSH2 0x1D51 JUMPI PUSH1 0x0 DUP2 PUSH1 0x0 SWAP1 SSTORE POP PUSH1 0x1 ADD PUSH2 0x1D39 JUMP JUMPDEST POP SWAP1 JUMP JUMPDEST PUSH1 0x0 PUSH2 0x1D68 PUSH2 0x1D63 DUP5 PUSH2 0x214D JUMP JUMPDEST PUSH2 0x2128 JUMP JUMPDEST SWAP1 POP DUP3 DUP2 MSTORE PUSH1 0x20 DUP2 ADD DUP5 DUP5 DUP5 ADD GT ISZERO PUSH2 0x1D80 JUMPI PUSH1 0x0 DUP1 REVERT JUMPDEST PUSH2 0x1D8B DUP5 DUP3 DUP6 PUSH2 0x21D8 JUMP JUMPDEST POP SWAP4 SWAP3 POP POP POP JUMP JUMPDEST PUSH1 0x0 DUP2 CALLDATALOAD SWAP1 POP PUSH2 0x1DA2 DUP2 PUSH2 0x238D JUMP JUMPDEST SWAP3 SWAP2 POP POP JUMP JUMPDEST PUSH1 0x0 DUP2 CALLDATALOAD SWAP1 POP PUSH2 0x1DB7 DUP2 PUSH2 0x23A4 JUMP JUMPDEST SWAP3 SWAP2 POP POP JUMP JUMPDEST PUSH1 0x0 DUP3 PUSH1 0x1F DUP4 ADD SLT PUSH2 0x1DCE JUMPI PUSH1 0x0 DUP1 REVERT JUMPDEST DUP2 CALLDATALOAD PUSH2 0x1DDE DUP5 DUP3 PUSH1 0x20 DUP7 ADD PUSH2 0x1D55 JUMP JUMPDEST SWAP2 POP POP SWAP3 SWAP2 POP POP JUMP JUMPDEST PUSH1 0x0 PUSH1 0x20 DUP3 DUP5 SUB SLT ISZERO PUSH2 0x1DF9 JUMPI PUSH1 0x0 DUP1 REVERT JUMPDEST PUSH1 0x0 PUSH2 0x1E07 DUP5 DUP3 DUP6 ADD PUSH2 0x1D93 JUMP JUMPDEST SWAP2 POP POP SWAP3 SWAP2 POP POP JUMP JUMPDEST PUSH1 0x0 DUP1 PUSH1 0x40 DUP4 DUP6 SUB SLT ISZERO PUSH2 0x1E23 JUMPI PUSH1 0x0 DUP1 REVERT JUMPDEST PUSH1 0x0 PUSH2 0x1E31 DUP6 DUP3 DUP7 ADD PUSH2 0x1D93 JUMP JUMPDEST SWAP3 POP POP PUSH1 0x20 PUSH2 0x1E42 DUP6 DUP3 DUP7 ADD PUSH2 0x1DA8 JUMP JUMPDEST SWAP2 POP POP SWAP3 POP SWAP3 SWAP1 POP JUMP JUMPDEST PUSH1 0x0 DUP1 PUSH1 0x0 DUP1 PUSH1 0x80 DUP6 DUP8 SUB SLT ISZERO PUSH2 0x1E62 JUMPI PUSH1 0x0 DUP1 REVERT JUMPDEST PUSH1 0x0 PUSH2 0x1E70 DUP8 DUP3 DUP9 ADD PUSH2 0x1D93 JUMP JUMPDEST SWAP5 POP POP PUSH1 0x20 DUP6 ADD CALLDATALOAD PUSH8 0xFFFFFFFFFFFFFFFF DUP2 GT ISZERO PUSH2 0x1E8D JUMPI PUSH1 0x0 DUP1 REVERT JUMPDEST PUSH2 0x1E99 DUP8 DUP3 DUP9 ADD PUSH2 0x1DBD JUMP JUMPDEST SWAP4 POP POP PUSH1 0x40 DUP6 ADD CALLDATALOAD PUSH8 0xFFFFFFFFFFFFFFFF DUP2 GT ISZERO PUSH2 0x1EB6 JUMPI PUSH1 0x0 DUP1 REVERT JUMPDEST PUSH2 0x1EC2 DUP8 DUP3 DUP9 ADD PUSH2 0x1DBD JUMP JUMPDEST SWAP3 POP POP PUSH1 0x60 DUP6 ADD CALLDATALOAD PUSH8 0xFFFFFFFFFFFFFFFF DUP2 GT ISZERO PUSH2 0x1EDF JUMPI PUSH1 0x0 DUP1 REVERT JUMPDEST PUSH2 0x1EEB DUP8 DUP3 DUP9 ADD PUSH2 0x1DBD JUMP JUMPDEST SWAP2 POP POP SWAP3 SWAP6 SWAP2 SWAP5 POP SWAP3 POP JUMP JUMPDEST PUSH2 0x1F00 DUP2 PUSH2 0x219A JUMP JUMPDEST DUP3 MSTORE POP POP JUMP JUMPDEST PUSH2 0x1F0F DUP2 PUSH2 0x21AC JUMP JUMPDEST DUP3 MSTORE POP POP JUMP JUMPDEST PUSH2 0x1F1E DUP2 PUSH2 0x21AC JUMP JUMPDEST DUP3 MSTORE POP POP JUMP JUMPDEST PUSH1 0x0 PUSH2 0x1F2F DUP3 PUSH2 0x217E JUMP JUMPDEST PUSH2 0x1F39 DUP2 DUP6 PUSH2 0x2189 JUMP JUMPDEST SWAP4 POP PUSH2 0x1F49 DUP2 DUP6 PUSH1 0x20 DUP7 ADD PUSH2 0x21E7 JUMP JUMPDEST PUSH2 0x1F52 DUP2 PUSH2 0x22DB JUMP JUMPDEST DUP5 ADD SWAP2 POP POP SWAP3 SWAP2 POP POP JUMP JUMPDEST PUSH1 0x0 PUSH2 0x1F6A PUSH1 0x22 DUP4 PUSH2 0x2189 JUMP JUMPDEST SWAP2 POP PUSH2 0x1F75 DUP3 PUSH2 0x22EC JUMP JUMPDEST PUSH1 0x40 DUP3 ADD SWAP1 POP SWAP2 SWAP1 POP JUMP JUMPDEST PUSH1 0x0 PUSH2 0x1F8D PUSH1 0x15 DUP4 PUSH2 0x2189 JUMP JUMPDEST SWAP2 POP PUSH2 0x1F98 DUP3 PUSH2 0x233B JUMP JUMPDEST PUSH1 0x20 DUP3 ADD SWAP1 POP SWAP2 SWAP1 POP JUMP JUMPDEST PUSH1 0x0 PUSH2 0x1FB0 PUSH1 0x16 DUP4 PUSH2 0x2189 JUMP JUMPDEST SWAP2 POP PUSH2 0x1FBB DUP3 PUSH2 0x2364 JUMP JUMPDEST PUSH1 0x20 DUP3 ADD SWAP1 POP SWAP2 SWAP1 POP JUMP JUMPDEST PUSH1 0x80 DUP3 ADD PUSH1 0x0 DUP3 ADD MLOAD PUSH2 0x1FDC PUSH1 0x0 DUP6 ADD DUP3 PUSH2 0x1F06 JUMP JUMPDEST POP PUSH1 0x20 DUP3 ADD MLOAD PUSH2 0x1FEF PUSH1 0x20 DUP6 ADD DUP3 PUSH2 0x1F06 JUMP JUMPDEST POP PUSH1 0x40 DUP3 ADD MLOAD PUSH2 0x2002 PUSH1 0x40 DUP6 ADD DUP3 PUSH2 0x1F06 JUMP JUMPDEST POP PUSH1 0x60 DUP3 ADD MLOAD PUSH2 0x2015 PUSH1 0x60 DUP6 ADD DUP3 PUSH2 0x1F06 JUMP JUMPDEST POP POP POP POP JUMP JUMPDEST PUSH1 0x0 PUSH1 0x20 DUP3 ADD SWAP1 POP PUSH2 0x2030 PUSH1 0x0 DUP4 ADD DUP5 PUSH2 0x1EF7 JUMP JUMPDEST SWAP3 SWAP2 POP POP JUMP JUMPDEST PUSH1 0x0 PUSH2 0x120 DUP3 ADD SWAP1 POP PUSH2 0x204C PUSH1 0x0 DUP4 ADD DUP10 PUSH2 0x1EF7 JUMP JUMPDEST DUP2 DUP2 SUB PUSH1 0x20 DUP4 ADD MSTORE PUSH2 0x205E DUP2 DUP9 PUSH2 0x1F24 JUMP JUMPDEST SWAP1 POP DUP2 DUP2 SUB PUSH1 0x40 DUP4 ADD MSTORE PUSH2 0x2072 DUP2 DUP8 PUSH2 0x1F24 JUMP JUMPDEST SWAP1 POP DUP2 DUP2 SUB PUSH1 0x60 DUP4 ADD MSTORE PUSH2 0x2086 DUP2 DUP7 PUSH2 0x1F24 JUMP JUMPDEST SWAP1 POP PUSH2 0x2095 PUSH1 0x80 DUP4 ADD DUP6 PUSH2 0x1F15 JUMP JUMPDEST PUSH2 0x20A2 PUSH1 0xA0 DUP4 ADD DUP5 PUSH2 0x1FC6 JUMP JUMPDEST SWAP8 SWAP7 POP POP POP POP POP POP POP JUMP JUMPDEST PUSH1 0x0 PUSH1 0x20 DUP3 ADD SWAP1 POP PUSH2 0x20C2 PUSH1 0x0 DUP4 ADD DUP5 PUSH2 0x1F15 JUMP JUMPDEST SWAP3 SWAP2 POP POP JUMP JUMPDEST PUSH1 0x0 PUSH1 0x20 DUP3 ADD SWAP1 POP DUP2 DUP2 SUB PUSH1 0x0 DUP4 ADD MSTORE PUSH2 0x20E1 DUP2 PUSH2 0x1F5D JUMP JUMPDEST SWAP1 POP SWAP2 SWAP1 POP JUMP JUMPDEST PUSH1 0x0 PUSH1 0x20 DUP3 ADD SWAP1 POP DUP2 DUP2 SUB PUSH1 0x0 DUP4 ADD MSTORE PUSH2 0x2101 DUP2 PUSH2 0x1F80 JUMP JUMPDEST SWAP1 POP SWAP2 SWAP1 POP JUMP JUMPDEST PUSH1 0x0 PUSH1 0x20 DUP3 ADD SWAP1 POP DUP2 DUP2 SUB PUSH1 0x0 DUP4 ADD MSTORE PUSH2 0x2121 DUP2 PUSH2 0x1FA3 JUMP JUMPDEST SWAP1 POP SWAP2 SWAP1 POP JUMP JUMPDEST PUSH1 0x0 PUSH2 0x2132 PUSH2 0x2143 JUMP JUMPDEST SWAP1 POP PUSH2 0x213E DUP3 DUP3 PUSH2 0x224C JUMP JUMPDEST SWAP2 SWAP1 POP JUMP JUMPDEST PUSH1 0x0 PUSH1 0x40 MLOAD SWAP1 POP SWAP1 JUMP JUMPDEST PUSH1 0x0 PUSH8 0xFFFFFFFFFFFFFFFF DUP3 GT ISZERO PUSH2 0x2168 JUMPI PUSH2 0x2167 PUSH2 0x22AC JUMP JUMPDEST JUMPDEST PUSH2 0x2171 DUP3 PUSH2 0x22DB JUMP JUMPDEST SWAP1 POP PUSH1 0x20 DUP2 ADD SWAP1 POP SWAP2 SWAP1 POP JUMP JUMPDEST PUSH1 0x0 DUP2 MLOAD SWAP1 POP SWAP2 SWAP1 POP JUMP JUMPDEST PUSH1 0x0 DUP3 DUP3 MSTORE PUSH1 0x20 DUP3 ADD SWAP1 POP SWAP3 SWAP2 POP POP JUMP JUMPDEST PUSH1 0x0 PUSH2 0x21A5 DUP3 PUSH2 0x21B8 JUMP JUMPDEST SWAP1 POP SWAP2 SWAP1 POP JUMP JUMPDEST PUSH1 0x0 DUP2 ISZERO ISZERO SWAP1 POP SWAP2 SWAP1 POP JUMP JUMPDEST PUSH1 0x0 PUSH20 0xFFFFFFFFFFFFFFFFFFFFFFFFFFFFFFFFFFFFFFFF DUP3 AND SWAP1 POP SWAP2 SWAP1 POP JUMP JUMPDEST DUP3 DUP2 DUP4 CALLDATACOPY PUSH1 0x0 DUP4 DUP4 ADD MSTORE POP POP POP JUMP JUMPDEST PUSH1 0x0 JUMPDEST DUP4 DUP2 LT ISZERO PUSH2 0x2205 JUMPI DUP1 DUP3 ADD MLOAD DUP2 DUP5 ADD MSTORE PUSH1 0x20 DUP2 ADD SWAP1 POP PUSH2 0x21EA JUMP JUMPDEST DUP4 DUP2 GT ISZERO PUSH2 0x2214 JUMPI PUSH1 0x0 DUP5 DUP5 ADD MSTORE JUMPDEST POP POP POP POP JUMP JUMPDEST PUSH1 0x0 PUSH1 0x2 DUP3 DIV SWAP1 POP PUSH1 0x1 DUP3 AND DUP1 PUSH2 0x2232 JUMPI PUSH1 0x7F DUP3 AND SWAP2 POP JUMPDEST PUSH1 0x20 DUP3 LT DUP2 EQ ISZERO PUSH2 0x2246 JUMPI PUSH2 0x2245 PUSH2 0x227D JUMP JUMPDEST JUMPDEST POP SWAP2 SWAP1 POP JUMP JUMPDEST PUSH2 0x2255 DUP3 PUSH2 0x22DB JUMP JUMPDEST DUP2 ADD DUP2 DUP2 LT PUSH8 0xFFFFFFFFFFFFFFFF DUP3 GT OR ISZERO PUSH2 0x2274 JUMPI PUSH2 0x2273 PUSH2 0x22AC JUMP JUMPDEST JUMPDEST DUP1 PUSH1 0x40 MSTORE POP POP POP JUMP JUMPDEST PUSH32 0x4E487B7100000000000000000000000000000000000000000000000000000000 PUSH1 0x0 MSTORE PUSH1 0x22 PUSH1 0x4 MSTORE PUSH1 0x24 PUSH1 0x0 REVERT JUMPDEST PUSH32 0x4E487B7100000000000000000000000000000000000000000000000000000000 PUSH1 0x0 MSTORE PUSH1 0x41 PUSH1 0x4 MSTORE PUSH1 0x24 PUSH1 0x0 REVERT JUMPDEST PUSH1 0x0 PUSH1 0x1F NOT PUSH1 0x1F DUP4 ADD AND SWAP1 POP SWAP2 SWAP1 POP JUMP JUMPDEST PUSH32 0x4F6E6C79206F776E65722063616E2063616C6C20746869732066756E6374696F PUSH1 0x0 DUP3 ADD MSTORE PUSH32 0x6E2E000000000000000000000000000000000000000000000000000000000000 PUSH1 0x20 DUP3 ADD MSTORE POP JUMP JUMPDEST PUSH32 0x4163636F756E7420646F65736E27742065786973740000000000000000000000 PUSH1 0x0 DUP3 ADD MSTORE POP JUMP JUMPDEST PUSH32 0x4163636F756E7420616C72656164792065786973747300000000000000000000 PUSH1 0x0 DUP3 ADD MSTORE POP JUMP JUMPDEST PUSH2 0x2396 DUP2 PUSH2 0x219A JUMP JUMPDEST DUP2 EQ PUSH2 0x23A1 JUMPI PUSH1 0x0 DUP1 REVERT JUMPDEST POP JUMP JUMPDEST PUSH1 0x4 DUP2 LT PUSH2 0x23B1 JUMPI PUSH1 0x0 DUP1 REVERT JUMPDEST POP JUMP INVALID LOG2 PUSH5 0x6970667358 0x22 SLT KECCAK256 0xE2 DUP10 0xB8 AND 0xF6 DUP12 0xF9 SWAP9 PUSH29 0x724F3C818EDA2F513363CF1A799E3D07B53583E78C246A64736F6C6343 STOP ADDMOD ADD STOP CALLER "
				},
				"gasEstimates": {
					"creation": {
						"codeDepositCost": "1838800",
						"executionCost": "infinite",
						"totalCost": "infinite"
					},
					"external": {
						"activeMembers(address)": "1612",
						"assignRole(address,uint8)": "infinite",
						"burnAccount(address)": "infinite",
						"createAccount(address,string,string,string)": "infinite",
						"hasCouncilMemberRole(address)": "infinite",
						"hasGuestRole(address)": "infinite",
						"hasLeaderRole(address)": "infinite",
						"hasMemberRole(address)": "infinite",
						"makeAccountActive(address)": "47162",
						"makeAccountPassive(address)": "43408",
						"owner()": "1322",
						"removeRole(address,uint8)": "infinite",
						"users(address)": "infinite"
					},
					"internal": {
						"assignCouncilMember(address)": "infinite",
						"assignGuest(address)": "infinite",
						"assignLeader(address)": "infinite",
						"assignMember(address)": "infinite",
						"hasRole(address,enum AccountManagement.Role)": "infinite",
						"removeCouncilMember(address)": "infinite",
						"removeGuest(address)": "infinite",
						"removeLeader(address)": "infinite",
						"removeMember(address)": "infinite"
					}
				},
				"methodIdentifiers": {
					"activeMembers(address)": "5d3694b9",
					"assignRole(address,uint8)": "630a195b",
					"burnAccount(address)": "d3a5059a",
					"createAccount(address,string,string,string)": "dee94b4a",
					"hasCouncilMemberRole(address)": "fa4d7aae",
					"hasGuestRole(address)": "e8621e59",
					"hasLeaderRole(address)": "297027d5",
					"hasMemberRole(address)": "056909b7",
					"makeAccountActive(address)": "a1aea04a",
					"makeAccountPassive(address)": "49587281",
					"owner()": "8da5cb5b",
					"removeRole(address,uint8)": "b74866fb",
					"users(address)": "a87430ba"
				}
			},
			"storageLayout": {
				"storage": [
					{
						"astId": 31,
						"contract": "OnDemo/contracts/RoleManagement.sol:AccountManagement",
						"label": "owner",
						"offset": 0,
						"slot": "0",
						"type": "t_address"
					},
					{
						"astId": 36,
						"contract": "OnDemo/contracts/RoleManagement.sol:AccountManagement",
						"label": "users",
						"offset": 0,
						"slot": "1",
						"type": "t_mapping(t_address,t_struct(User)20_storage)"
					},
					{
						"astId": 40,
						"contract": "OnDemo/contracts/RoleManagement.sol:AccountManagement",
						"label": "activeMembers",
						"offset": 0,
						"slot": "2",
						"type": "t_mapping(t_address,t_bool)"
					}
				],
				"types": {
					"t_address": {
						"encoding": "inplace",
						"label": "address",
						"numberOfBytes": "20"
					},
					"t_bool": {
						"encoding": "inplace",
						"label": "bool",
						"numberOfBytes": "1"
					},
					"t_mapping(t_address,t_bool)": {
						"encoding": "mapping",
						"key": "t_address",
						"label": "mapping(address => bool)",
						"numberOfBytes": "32",
						"value": "t_bool"
					},
					"t_mapping(t_address,t_struct(User)20_storage)": {
						"encoding": "mapping",
						"key": "t_address",
						"label": "mapping(address => struct AccountManagement.User)",
						"numberOfBytes": "32",
						"value": "t_struct(User)20_storage"
					},
					"t_string_storage": {
						"encoding": "bytes",
						"label": "string",
						"numberOfBytes": "32"
					},
					"t_struct(RoleMap)29_storage": {
						"encoding": "inplace",
						"label": "struct AccountManagement.RoleMap",
						"members": [
							{
								"astId": 22,
								"contract": "OnDemo/contracts/RoleManagement.sol:AccountManagement",
								"label": "isLeader",
								"offset": 0,
								"slot": "0",
								"type": "t_bool"
							},
							{
								"astId": 24,
								"contract": "OnDemo/contracts/RoleManagement.sol:AccountManagement",
								"label": "isCouncilMember",
								"offset": 1,
								"slot": "0",
								"type": "t_bool"
							},
							{
								"astId": 26,
								"contract": "OnDemo/contracts/RoleManagement.sol:AccountManagement",
								"label": "isMember",
								"offset": 2,
								"slot": "0",
								"type": "t_bool"
							},
							{
								"astId": 28,
								"contract": "OnDemo/contracts/RoleManagement.sol:AccountManagement",
								"label": "isGuest",
								"offset": 3,
								"slot": "0",
								"type": "t_bool"
							}
						],
						"numberOfBytes": "32"
					},
					"t_struct(User)20_storage": {
						"encoding": "inplace",
						"label": "struct AccountManagement.User",
						"members": [
							{
								"astId": 8,
								"contract": "OnDemo/contracts/RoleManagement.sol:AccountManagement",
								"label": "userAddress",
								"offset": 0,
								"slot": "0",
								"type": "t_address"
							},
							{
								"astId": 10,
								"contract": "OnDemo/contracts/RoleManagement.sol:AccountManagement",
								"label": "firstName",
								"offset": 0,
								"slot": "1",
								"type": "t_string_storage"
							},
							{
								"astId": 12,
								"contract": "OnDemo/contracts/RoleManagement.sol:AccountManagement",
								"label": "secondName",
								"offset": 0,
								"slot": "2",
								"type": "t_string_storage"
							},
							{
								"astId": 14,
								"contract": "OnDemo/contracts/RoleManagement.sol:AccountManagement",
								"label": "mailAdress",
								"offset": 0,
								"slot": "3",
								"type": "t_string_storage"
							},
							{
								"astId": 16,
								"contract": "OnDemo/contracts/RoleManagement.sol:AccountManagement",
								"label": "isActive",
								"offset": 0,
								"slot": "4",
								"type": "t_bool"
							},
							{
								"astId": 19,
								"contract": "OnDemo/contracts/RoleManagement.sol:AccountManagement",
								"label": "roleMap",
								"offset": 0,
								"slot": "5",
								"type": "t_struct(RoleMap)29_storage"
							}
						],
						"numberOfBytes": "192"
					}
				}
			},
			"userdoc": {
				"kind": "user",
				"methods": {},
				"version": 1
			}
		}
	}
}