{
	"OnDemo/contracts/AccountManagement.sol": {
		"AccountManagement": {
			"abi": [
				{
					"inputs": [
						{
							"internalType": "string",
							"name": "_firstName",
							"type": "string"
						},
						{
							"internalType": "string",
							"name": "_secondName",
							"type": "string"
						},
						{
							"internalType": "string",
							"name": "_mailAdress",
							"type": "string"
						}
					],
					"stateMutability": "nonpayable",
					"type": "constructor"
				},
				{
					"inputs": [],
					"name": "activeMemberCount",
					"outputs": [
						{
							"internalType": "uint256",
							"name": "",
							"type": "uint256"
						}
					],
					"stateMutability": "view",
					"type": "function"
				},
				{
					"inputs": [
						{
							"internalType": "address",
							"name": "_address",
							"type": "address"
						},
						{
							"internalType": "enum AccountManagement.Role",
							"name": "_role",
							"type": "uint8"
						}
					],
					"name": "assignRole",
					"outputs": [],
					"stateMutability": "nonpayable",
					"type": "function"
				},
				{
					"inputs": [
						{
							"internalType": "address",
							"name": "_address",
							"type": "address"
						}
					],
					"name": "burnAccount",
					"outputs": [],
					"stateMutability": "nonpayable",
					"type": "function"
				},
				{
					"inputs": [
						{
							"internalType": "address",
							"name": "_address",
							"type": "address"
						},
						{
							"internalType": "string",
							"name": "_firstName",
							"type": "string"
						},
						{
							"internalType": "string",
							"name": "_secondName",
							"type": "string"
						},
						{
							"internalType": "string",
							"name": "_mailAdress",
							"type": "string"
						}
					],
					"name": "createAccount",
					"outputs": [],
					"stateMutability": "nonpayable",
					"type": "function"
				},
				{
					"inputs": [],
					"name": "getActiveMemberCount",
					"outputs": [
						{
							"internalType": "uint256",
							"name": "",
							"type": "uint256"
						}
					],
					"stateMutability": "view",
					"type": "function"
				},
				{
					"inputs": [
						{
							"internalType": "address",
							"name": "_address",
							"type": "address"
						}
					],
					"name": "hasCouncilMemberRole",
					"outputs": [
						{
							"internalType": "bool",
							"name": "",
							"type": "bool"
						}
					],
					"stateMutability": "view",
					"type": "function"
				},
				{
					"inputs": [
						{
							"internalType": "address",
							"name": "_address",
							"type": "address"
						}
					],
					"name": "hasGuestRole",
					"outputs": [
						{
							"internalType": "bool",
							"name": "",
							"type": "bool"
						}
					],
					"stateMutability": "view",
					"type": "function"
				},
				{
					"inputs": [
						{
							"internalType": "address",
							"name": "_address",
							"type": "address"
						}
					],
					"name": "hasLeaderRole",
					"outputs": [
						{
							"internalType": "bool",
							"name": "",
							"type": "bool"
						}
					],
					"stateMutability": "view",
					"type": "function"
				},
				{
					"inputs": [
						{
							"internalType": "address",
							"name": "_address",
							"type": "address"
						}
					],
					"name": "hasMemberRole",
					"outputs": [
						{
							"internalType": "bool",
							"name": "",
							"type": "bool"
						}
					],
					"stateMutability": "view",
					"type": "function"
				},
				{
					"inputs": [
						{
							"internalType": "address",
							"name": "_address",
							"type": "address"
						}
					],
					"name": "hasRightToCreateReferendum",
					"outputs": [
						{
							"internalType": "bool",
							"name": "",
							"type": "bool"
						}
					],
					"stateMutability": "view",
					"type": "function"
				},
				{
					"inputs": [
						{
							"internalType": "address",
							"name": "_address",
							"type": "address"
						}
					],
					"name": "hasRightToSupport",
					"outputs": [
						{
							"internalType": "bool",
							"name": "",
							"type": "bool"
						}
					],
					"stateMutability": "view",
					"type": "function"
				},
				{
					"inputs": [
						{
							"internalType": "address",
							"name": "_address",
							"type": "address"
						}
					],
					"name": "hasRightToVote",
					"outputs": [
						{
							"internalType": "bool",
							"name": "",
							"type": "bool"
						}
					],
					"stateMutability": "view",
					"type": "function"
				},
				{
					"inputs": [
						{
							"internalType": "address",
							"name": "_address",
							"type": "address"
						}
					],
					"name": "makeAccountActive",
					"outputs": [],
					"stateMutability": "nonpayable",
					"type": "function"
				},
				{
					"inputs": [
						{
							"internalType": "address",
							"name": "_address",
							"type": "address"
						}
					],
					"name": "makeAccountPassive",
					"outputs": [],
					"stateMutability": "nonpayable",
					"type": "function"
				},
				{
					"inputs": [],
					"name": "owner",
					"outputs": [
						{
							"internalType": "address",
							"name": "",
							"type": "address"
						}
					],
					"stateMutability": "view",
					"type": "function"
				},
				{
					"inputs": [
						{
							"internalType": "address",
							"name": "_address",
							"type": "address"
						},
						{
							"internalType": "enum AccountManagement.Role",
							"name": "_role",
							"type": "uint8"
						}
					],
					"name": "removeRole",
					"outputs": [],
					"stateMutability": "nonpayable",
					"type": "function"
				},
				{
					"inputs": [],
					"name": "testAccountManagement",
					"outputs": [],
					"stateMutability": "nonpayable",
					"type": "function"
				}
			],
			"devdoc": {
				"kind": "dev",
				"methods": {},
				"version": 1
			},
			"evm": {
				"assembly": "    /* \"OnDemo/contracts/AccountManagement.sol\":74:10504  contract AccountManagement {... */\n  mstore(0x40, 0x80)\n    /* \"OnDemo/contracts/AccountManagement.sol\":1138:1480  constructor(string memory _firstName, string memory _secondName, string memory _mailAdress) {... */\n  callvalue\n  dup1\n  iszero\n  tag_1\n  jumpi\n  0x00\n  dup1\n  revert\ntag_1:\n  pop\n  mload(0x40)\n  sub(codesize, bytecodeSize)\n  dup1\n  bytecodeSize\n  dup4\n  codecopy\n  dup2\n  dup2\n  add\n  0x40\n  mstore\n  dup2\n  add\n  swap1\n  tag_2\n  swap2\n  swap1\n  tag_3\n  jump\t// in\ntag_2:\n    /* \"OnDemo/contracts/AccountManagement.sol\":1249:1259  msg.sender */\n  caller\n    /* \"OnDemo/contracts/AccountManagement.sol\":1241:1246  owner */\n  0x01\n  0x00\n    /* \"OnDemo/contracts/AccountManagement.sol\":1241:1259  owner = msg.sender */\n  0x0100\n  exp\n  dup2\n  sload\n  dup2\n  0xffffffffffffffffffffffffffffffffffffffff\n  mul\n  not\n  and\n  swap1\n  dup4\n  0xffffffffffffffffffffffffffffffffffffffff\n  and\n  mul\n  or\n  swap1\n  sstore\n  pop\n    /* \"OnDemo/contracts/AccountManagement.sol\":1270:1333  createAccount(msg.sender, _firstName, _secondName, _mailAdress) */\n  tag_6\n    /* \"OnDemo/contracts/AccountManagement.sol\":1284:1294  msg.sender */\n  caller\n    /* \"OnDemo/contracts/AccountManagement.sol\":1296:1306  _firstName */\n  dup5\n    /* \"OnDemo/contracts/AccountManagement.sol\":1308:1319  _secondName */\n  dup5\n    /* \"OnDemo/contracts/AccountManagement.sol\":1321:1332  _mailAdress */\n  dup5\n    /* \"OnDemo/contracts/AccountManagement.sol\":1270:1283  createAccount */\n  shl(0x20, tag_7)\n    /* \"OnDemo/contracts/AccountManagement.sol\":1270:1333  createAccount(msg.sender, _firstName, _secondName, _mailAdress) */\n  0x20\n  shr\n  jump\t// in\ntag_6:\n    /* \"OnDemo/contracts/AccountManagement.sol\":1350:1385  assignRole(msg.sender, Role.LEADER) */\n  tag_8\n    /* \"OnDemo/contracts/AccountManagement.sol\":1361:1371  msg.sender */\n  caller\n    /* \"OnDemo/contracts/AccountManagement.sol\":1373:1384  Role.LEADER */\n  0x00\n    /* \"OnDemo/contracts/AccountManagement.sol\":1350:1360  assignRole */\n  shl(0x20, tag_9)\n    /* \"OnDemo/contracts/AccountManagement.sol\":1350:1385  assignRole(msg.sender, Role.LEADER) */\n  0x20\n  shr\n  jump\t// in\ntag_8:\n    /* \"OnDemo/contracts/AccountManagement.sol\":1396:1430  removeRole(msg.sender, Role.GUEST) */\n  tag_10\n    /* \"OnDemo/contracts/AccountManagement.sol\":1407:1417  msg.sender */\n  caller\n    /* \"OnDemo/contracts/AccountManagement.sol\":1419:1429  Role.GUEST */\n  0x03\n    /* \"OnDemo/contracts/AccountManagement.sol\":1396:1406  removeRole */\n  shl(0x20, tag_11)\n    /* \"OnDemo/contracts/AccountManagement.sol\":1396:1430  removeRole(msg.sender, Role.GUEST) */\n  0x20\n  shr\n  jump\t// in\ntag_10:\n    /* \"OnDemo/contracts/AccountManagement.sol\":1443:1472  makeAccountActive(msg.sender) */\n  tag_12\n    /* \"OnDemo/contracts/AccountManagement.sol\":1461:1471  msg.sender */\n  caller\n    /* \"OnDemo/contracts/AccountManagement.sol\":1443:1460  makeAccountActive */\n  shl(0x20, tag_13)\n    /* \"OnDemo/contracts/AccountManagement.sol\":1443:1472  makeAccountActive(msg.sender) */\n  0x20\n  shr\n  jump\t// in\ntag_12:\n    /* \"OnDemo/contracts/AccountManagement.sol\":1138:1480  constructor(string memory _firstName, string memory _secondName, string memory _mailAdress) {... */\n  pop\n  pop\n  pop\n    /* \"OnDemo/contracts/AccountManagement.sol\":74:10504  contract AccountManagement {... */\n  jump(tag_14)\n    /* \"OnDemo/contracts/AccountManagement.sol\":2356:2721  function createAccount(address _address, string memory _firstName, string memory _secondName, string memory _mailAdress) public userNotExists(_address){... */\ntag_7:\n    /* \"OnDemo/contracts/AccountManagement.sol\":2498:2506  _address */\n  dup4\n    /* \"OnDemo/contracts/AccountManagement.sol\":2160:2161  0 */\n  0x00\n    /* \"OnDemo/contracts/AccountManagement.sol\":2121:2162  users[_address].userAddress == address(0) */\n  0xffffffffffffffffffffffffffffffffffffffff\n  and\n    /* \"OnDemo/contracts/AccountManagement.sol\":2121:2126  users */\n  0x02\n    /* \"OnDemo/contracts/AccountManagement.sol\":2121:2136  users[_address] */\n  0x00\n    /* \"OnDemo/contracts/AccountManagement.sol\":2127:2135  _address */\n  dup4\n    /* \"OnDemo/contracts/AccountManagement.sol\":2121:2136  users[_address] */\n  0xffffffffffffffffffffffffffffffffffffffff\n  and\n  0xffffffffffffffffffffffffffffffffffffffff\n  and\n  dup2\n  mstore\n  0x20\n  add\n  swap1\n  dup2\n  mstore\n  0x20\n  add\n  0x00\n  keccak256\n    /* \"OnDemo/contracts/AccountManagement.sol\":2121:2148  users[_address].userAddress */\n  0x00\n  add\n  0x00\n  swap1\n  sload\n  swap1\n  0x0100\n  exp\n  swap1\n  div\n  0xffffffffffffffffffffffffffffffffffffffff\n  and\n    /* \"OnDemo/contracts/AccountManagement.sol\":2121:2162  users[_address].userAddress == address(0) */\n  0xffffffffffffffffffffffffffffffffffffffff\n  and\n  eq\n    /* \"OnDemo/contracts/AccountManagement.sol\":2113:2189  require(users[_address].userAddress == address(0), \"Account already exists\") */\n  tag_16\n  jumpi\n  mload(0x40)\n  0x08c379a000000000000000000000000000000000000000000000000000000000\n  dup2\n  mstore\n  0x04\n  add\n  tag_17\n  swap1\n  tag_18\n  jump\t// in\ntag_17:\n  mload(0x40)\n  dup1\n  swap2\n  sub\n  swap1\n  revert\ntag_16:\n    /* \"OnDemo/contracts/AccountManagement.sol\":2518:2540  RoleMap memory roleMap */\n  0x00\n    /* \"OnDemo/contracts/AccountManagement.sol\":2543:2577  RoleMap(false, false, false, true) */\n  mload(0x40)\n  dup1\n  0x80\n  add\n  0x40\n  mstore\n  dup1\n    /* \"OnDemo/contracts/AccountManagement.sol\":2551:2556  false */\n  0x00\n    /* \"OnDemo/contracts/AccountManagement.sol\":2543:2577  RoleMap(false, false, false, true) */\n  iszero\n  iszero\n  dup2\n  mstore\n  0x20\n  add\n    /* \"OnDemo/contracts/AccountManagement.sol\":2558:2563  false */\n  0x00\n    /* \"OnDemo/contracts/AccountManagement.sol\":2543:2577  RoleMap(false, false, false, true) */\n  iszero\n  iszero\n  dup2\n  mstore\n  0x20\n  add\n    /* \"OnDemo/contracts/AccountManagement.sol\":2565:2570  false */\n  0x00\n    /* \"OnDemo/contracts/AccountManagement.sol\":2543:2577  RoleMap(false, false, false, true) */\n  iszero\n  iszero\n  dup2\n  mstore\n  0x20\n  add\n    /* \"OnDemo/contracts/AccountManagement.sol\":2572:2576  true */\n  0x01\n    /* \"OnDemo/contracts/AccountManagement.sol\":2543:2577  RoleMap(false, false, false, true) */\n  iszero\n  iszero\n  dup2\n  mstore\n  pop\n    /* \"OnDemo/contracts/AccountManagement.sol\":2518:2577  RoleMap memory roleMap = RoleMap(false, false, false, true) */\n  swap1\n  pop\n    /* \"OnDemo/contracts/AccountManagement.sol\":2588:2604  User memory user */\n  0x00\n    /* \"OnDemo/contracts/AccountManagement.sol\":2607:2675  User(_address, _firstName, _secondName, _mailAdress, false, roleMap) */\n  mload(0x40)\n  dup1\n  0xc0\n  add\n  0x40\n  mstore\n  dup1\n    /* \"OnDemo/contracts/AccountManagement.sol\":2612:2620  _address */\n  dup9\n    /* \"OnDemo/contracts/AccountManagement.sol\":2607:2675  User(_address, _firstName, _secondName, _mailAdress, false, roleMap) */\n  0xffffffffffffffffffffffffffffffffffffffff\n  and\n  dup2\n  mstore\n  0x20\n  add\n    /* \"OnDemo/contracts/AccountManagement.sol\":2622:2632  _firstName */\n  dup8\n    /* \"OnDemo/contracts/AccountManagement.sol\":2607:2675  User(_address, _firstName, _secondName, _mailAdress, false, roleMap) */\n  dup2\n  mstore\n  0x20\n  add\n    /* \"OnDemo/contracts/AccountManagement.sol\":2634:2645  _secondName */\n  dup7\n    /* \"OnDemo/contracts/AccountManagement.sol\":2607:2675  User(_address, _firstName, _secondName, _mailAdress, false, roleMap) */\n  dup2\n  mstore\n  0x20\n  add\n    /* \"OnDemo/contracts/AccountManagement.sol\":2647:2658  _mailAdress */\n  dup6\n    /* \"OnDemo/contracts/AccountManagement.sol\":2607:2675  User(_address, _firstName, _secondName, _mailAdress, false, roleMap) */\n  dup2\n  mstore\n  0x20\n  add\n    /* \"OnDemo/contracts/AccountManagement.sol\":2660:2665  false */\n  0x00\n    /* \"OnDemo/contracts/AccountManagement.sol\":2607:2675  User(_address, _firstName, _secondName, _mailAdress, false, roleMap) */\n  iszero\n  iszero\n  dup2\n  mstore\n  0x20\n  add\n    /* \"OnDemo/contracts/AccountManagement.sol\":2667:2674  roleMap */\n  dup4\n    /* \"OnDemo/contracts/AccountManagement.sol\":2607:2675  User(_address, _firstName, _secondName, _mailAdress, false, roleMap) */\n  dup2\n  mstore\n  pop\n    /* \"OnDemo/contracts/AccountManagement.sol\":2588:2675  User memory user = User(_address, _firstName, _secondName, _mailAdress, false, roleMap) */\n  swap1\n  pop\n    /* \"OnDemo/contracts/AccountManagement.sol\":2704:2708  user */\n  dup1\n    /* \"OnDemo/contracts/AccountManagement.sol\":2686:2691  users */\n  0x02\n    /* \"OnDemo/contracts/AccountManagement.sol\":2686:2701  users[_address] */\n  0x00\n    /* \"OnDemo/contracts/AccountManagement.sol\":2692:2700  _address */\n  dup10\n    /* \"OnDemo/contracts/AccountManagement.sol\":2686:2701  users[_address] */\n  0xffffffffffffffffffffffffffffffffffffffff\n  and\n  0xffffffffffffffffffffffffffffffffffffffff\n  and\n  dup2\n  mstore\n  0x20\n  add\n  swap1\n  dup2\n  mstore\n  0x20\n  add\n  0x00\n  keccak256\n    /* \"OnDemo/contracts/AccountManagement.sol\":2686:2708  users[_address] = user */\n  0x00\n  dup3\n  add\n  mload\n  dup2\n  0x00\n  add\n  exp(0x0100, 0x00)\n  dup2\n  sload\n  dup2\n  0xffffffffffffffffffffffffffffffffffffffff\n  mul\n  not\n  and\n  swap1\n  dup4\n  0xffffffffffffffffffffffffffffffffffffffff\n  and\n  mul\n  or\n  swap1\n  sstore\n  pop\n  0x20\n  dup3\n  add\n  mload\n  dup2\n  0x01\n  add\n  swap1\n  dup1\n  mload\n  swap1\n  0x20\n  add\n  swap1\n  tag_20\n  swap3\n  swap2\n  swap1\n  tag_21\n  jump\t// in\ntag_20:\n  pop\n  0x40\n  dup3\n  add\n  mload\n  dup2\n  0x02\n  add\n  swap1\n  dup1\n  mload\n  swap1\n  0x20\n  add\n  swap1\n  tag_22\n  swap3\n  swap2\n  swap1\n  tag_21\n  jump\t// in\ntag_22:\n  pop\n  0x60\n  dup3\n  add\n  mload\n  dup2\n  0x03\n  add\n  swap1\n  dup1\n  mload\n  swap1\n  0x20\n  add\n  swap1\n  tag_23\n  swap3\n  swap2\n  swap1\n  tag_21\n  jump\t// in\ntag_23:\n  pop\n  0x80\n  dup3\n  add\n  mload\n  dup2\n  0x04\n  add\n  exp(0x0100, 0x00)\n  dup2\n  sload\n  dup2\n  0xff\n  mul\n  not\n  and\n  swap1\n  dup4\n  iszero\n  iszero\n  mul\n  or\n  swap1\n  sstore\n  pop\n  0xa0\n  dup3\n  add\n  mload\n  dup2\n  0x05\n  add\n  0x00\n  dup3\n  add\n  mload\n  dup2\n  0x00\n  add\n  exp(0x0100, 0x00)\n  dup2\n  sload\n  dup2\n  0xff\n  mul\n  not\n  and\n  swap1\n  dup4\n  iszero\n  iszero\n  mul\n  or\n  swap1\n  sstore\n  pop\n  0x20\n  dup3\n  add\n  mload\n  dup2\n  0x00\n  add\n  exp(0x0100, 0x01)\n  dup2\n  sload\n  dup2\n  0xff\n  mul\n  not\n  and\n  swap1\n  dup4\n  iszero\n  iszero\n  mul\n  or\n  swap1\n  sstore\n  pop\n  0x40\n  dup3\n  add\n  mload\n  dup2\n  0x00\n  add\n  exp(0x0100, 0x02)\n  dup2\n  sload\n  dup2\n  0xff\n  mul\n  not\n  and\n  swap1\n  dup4\n  iszero\n  iszero\n  mul\n  or\n  swap1\n  sstore\n  pop\n  0x60\n  dup3\n  add\n  mload\n  dup2\n  0x00\n  add\n  exp(0x0100, 0x03)\n  dup2\n  sload\n  dup2\n  0xff\n  mul\n  not\n  and\n  swap1\n  dup4\n  iszero\n  iszero\n  mul\n  or\n  swap1\n  sstore\n  pop\n  pop\n  pop\n  swap1\n  pop\n  pop\n    /* \"OnDemo/contracts/AccountManagement.sol\":2507:2721  {... */\n  pop\n  pop\n    /* \"OnDemo/contracts/AccountManagement.sol\":2356:2721  function createAccount(address _address, string memory _firstName, string memory _secondName, string memory _mailAdress) public userNotExists(_address){... */\n  pop\n  pop\n  pop\n  pop\n  pop\n  jump\t// out\n    /* \"OnDemo/contracts/AccountManagement.sol\":3924:4487  function assignRole(address _address, Role _role) public onlyLeader userExists(_address){... */\ntag_9:\n    /* \"OnDemo/contracts/AccountManagement.sol\":1810:1815  owner */\n  0x01\n  0x00\n  swap1\n  sload\n  swap1\n  0x0100\n  exp\n  swap1\n  div\n  0xffffffffffffffffffffffffffffffffffffffff\n  and\n    /* \"OnDemo/contracts/AccountManagement.sol\":1796:1815  msg.sender == owner */\n  0xffffffffffffffffffffffffffffffffffffffff\n  and\n    /* \"OnDemo/contracts/AccountManagement.sol\":1796:1806  msg.sender */\n  caller\n    /* \"OnDemo/contracts/AccountManagement.sol\":1796:1815  msg.sender == owner */\n  0xffffffffffffffffffffffffffffffffffffffff\n  and\n  eq\n    /* \"OnDemo/contracts/AccountManagement.sol\":1796:1844  msg.sender == owner || hasLeaderRole(msg.sender) */\n  dup1\n  tag_25\n  jumpi\n  pop\n    /* \"OnDemo/contracts/AccountManagement.sol\":1819:1844  hasLeaderRole(msg.sender) */\n  tag_26\n    /* \"OnDemo/contracts/AccountManagement.sol\":1833:1843  msg.sender */\n  caller\n    /* \"OnDemo/contracts/AccountManagement.sol\":1819:1832  hasLeaderRole */\n  shl(0x20, tag_27)\n    /* \"OnDemo/contracts/AccountManagement.sol\":1819:1844  hasLeaderRole(msg.sender) */\n  0x20\n  shr\n  jump\t// in\ntag_26:\n    /* \"OnDemo/contracts/AccountManagement.sol\":1796:1844  msg.sender == owner || hasLeaderRole(msg.sender) */\ntag_25:\n    /* \"OnDemo/contracts/AccountManagement.sol\":1788:1883  require(msg.sender == owner || hasLeaderRole(msg.sender), \"Only owner can call this function.\") */\n  tag_28\n  jumpi\n  mload(0x40)\n  0x08c379a000000000000000000000000000000000000000000000000000000000\n  dup2\n  mstore\n  0x04\n  add\n  tag_29\n  swap1\n  tag_30\n  jump\t// in\ntag_29:\n  mload(0x40)\n  dup1\n  swap2\n  sub\n  swap1\n  revert\ntag_28:\n    /* \"OnDemo/contracts/AccountManagement.sol\":4003:4011  _address */\n  dup2\n    /* \"OnDemo/contracts/AccountManagement.sol\":2006:2007  0 */\n  0x00\n    /* \"OnDemo/contracts/AccountManagement.sol\":1967:2008  users[_address].userAddress != address(0) */\n  0xffffffffffffffffffffffffffffffffffffffff\n  and\n    /* \"OnDemo/contracts/AccountManagement.sol\":1967:1972  users */\n  0x02\n    /* \"OnDemo/contracts/AccountManagement.sol\":1967:1982  users[_address] */\n  0x00\n    /* \"OnDemo/contracts/AccountManagement.sol\":1973:1981  _address */\n  dup4\n    /* \"OnDemo/contracts/AccountManagement.sol\":1967:1982  users[_address] */\n  0xffffffffffffffffffffffffffffffffffffffff\n  and\n  0xffffffffffffffffffffffffffffffffffffffff\n  and\n  dup2\n  mstore\n  0x20\n  add\n  swap1\n  dup2\n  mstore\n  0x20\n  add\n  0x00\n  keccak256\n    /* \"OnDemo/contracts/AccountManagement.sol\":1967:1994  users[_address].userAddress */\n  0x00\n  add\n  0x00\n  swap1\n  sload\n  swap1\n  0x0100\n  exp\n  swap1\n  div\n  0xffffffffffffffffffffffffffffffffffffffff\n  and\n    /* \"OnDemo/contracts/AccountManagement.sol\":1967:2008  users[_address].userAddress != address(0) */\n  0xffffffffffffffffffffffffffffffffffffffff\n  and\n  eq\n  iszero\n    /* \"OnDemo/contracts/AccountManagement.sol\":1959:2034  require(users[_address].userAddress != address(0), \"Account doesn't exist\") */\n  tag_32\n  jumpi\n  mload(0x40)\n  0x08c379a000000000000000000000000000000000000000000000000000000000\n  dup2\n  mstore\n  0x04\n  add\n  tag_33\n  swap1\n  tag_34\n  jump\t// in\ntag_33:\n  mload(0x40)\n  dup1\n  swap2\n  sub\n  swap1\n  revert\ntag_32:\n    /* \"OnDemo/contracts/AccountManagement.sol\":4023:4040  User storage user */\n  0x00\n    /* \"OnDemo/contracts/AccountManagement.sol\":4043:4048  users */\n  0x02\n    /* \"OnDemo/contracts/AccountManagement.sol\":4043:4058  users[_address] */\n  0x00\n    /* \"OnDemo/contracts/AccountManagement.sol\":4049:4057  _address */\n  dup6\n    /* \"OnDemo/contracts/AccountManagement.sol\":4043:4058  users[_address] */\n  0xffffffffffffffffffffffffffffffffffffffff\n  and\n  0xffffffffffffffffffffffffffffffffffffffff\n  and\n  dup2\n  mstore\n  0x20\n  add\n  swap1\n  dup2\n  mstore\n  0x20\n  add\n  0x00\n  keccak256\n    /* \"OnDemo/contracts/AccountManagement.sol\":4023:4058  User storage user = users[_address] */\n  swap1\n  pop\n    /* \"OnDemo/contracts/AccountManagement.sol\":4069:4092  RoleMap storage roleMap */\n  0x00\n    /* \"OnDemo/contracts/AccountManagement.sol\":4095:4099  user */\n  dup2\n    /* \"OnDemo/contracts/AccountManagement.sol\":4095:4107  user.roleMap */\n  0x05\n  add\n    /* \"OnDemo/contracts/AccountManagement.sol\":4069:4107  RoleMap storage roleMap = user.roleMap */\n  swap1\n  pop\n    /* \"OnDemo/contracts/AccountManagement.sol\":4132:4143  Role.LEADER */\n  0x00\n    /* \"OnDemo/contracts/AccountManagement.sol\":4123:4143  _role == Role.LEADER */\n  0x03\n  dup2\n  gt\n  iszero\n  tag_36\n  jumpi\n  tag_37\n  tag_38\n  jump\t// in\ntag_37:\ntag_36:\n    /* \"OnDemo/contracts/AccountManagement.sol\":4123:4128  _role */\n  dup5\n    /* \"OnDemo/contracts/AccountManagement.sol\":4123:4143  _role == Role.LEADER */\n  0x03\n  dup2\n  gt\n  iszero\n  tag_39\n  jumpi\n  tag_40\n  tag_38\n  jump\t// in\ntag_40:\ntag_39:\n  eq\n    /* \"OnDemo/contracts/AccountManagement.sol\":4120:4480  if(_role == Role.LEADER){... */\n  iszero\n  tag_41\n  jumpi\n    /* \"OnDemo/contracts/AccountManagement.sol\":4178:4182  true */\n  0x01\n    /* \"OnDemo/contracts/AccountManagement.sol\":4159:4166  roleMap */\n  dup2\n    /* \"OnDemo/contracts/AccountManagement.sol\":4159:4175  roleMap.isLeader */\n  0x00\n  add\n  0x00\n    /* \"OnDemo/contracts/AccountManagement.sol\":4159:4182  roleMap.isLeader = true */\n  0x0100\n  exp\n  dup2\n  sload\n  dup2\n  0xff\n  mul\n  not\n  and\n  swap1\n  dup4\n  iszero\n  iszero\n  mul\n  or\n  swap1\n  sstore\n  pop\n    /* \"OnDemo/contracts/AccountManagement.sol\":4120:4480  if(_role == Role.LEADER){... */\n  jump(tag_42)\ntag_41:\n    /* \"OnDemo/contracts/AccountManagement.sol\":4221:4239  Role.COUNCILMEMBER */\n  0x01\n    /* \"OnDemo/contracts/AccountManagement.sol\":4212:4239  _role == Role.COUNCILMEMBER */\n  0x03\n  dup2\n  gt\n  iszero\n  tag_43\n  jumpi\n  tag_44\n  tag_38\n  jump\t// in\ntag_44:\ntag_43:\n    /* \"OnDemo/contracts/AccountManagement.sol\":4212:4217  _role */\n  dup5\n    /* \"OnDemo/contracts/AccountManagement.sol\":4212:4239  _role == Role.COUNCILMEMBER */\n  0x03\n  dup2\n  gt\n  iszero\n  tag_45\n  jumpi\n  tag_46\n  tag_38\n  jump\t// in\ntag_46:\ntag_45:\n  eq\n    /* \"OnDemo/contracts/AccountManagement.sol\":4209:4480  if(_role == Role.COUNCILMEMBER){... */\n  iszero\n  tag_47\n  jumpi\n    /* \"OnDemo/contracts/AccountManagement.sol\":4281:4285  true */\n  0x01\n    /* \"OnDemo/contracts/AccountManagement.sol\":4255:4262  roleMap */\n  dup2\n    /* \"OnDemo/contracts/AccountManagement.sol\":4255:4278  roleMap.isCouncilMember */\n  0x00\n  add\n  0x01\n    /* \"OnDemo/contracts/AccountManagement.sol\":4255:4285  roleMap.isCouncilMember = true */\n  0x0100\n  exp\n  dup2\n  sload\n  dup2\n  0xff\n  mul\n  not\n  and\n  swap1\n  dup4\n  iszero\n  iszero\n  mul\n  or\n  swap1\n  sstore\n  pop\n    /* \"OnDemo/contracts/AccountManagement.sol\":4209:4480  if(_role == Role.COUNCILMEMBER){... */\n  jump(tag_48)\ntag_47:\n    /* \"OnDemo/contracts/AccountManagement.sol\":4331:4342  Role.MEMBER */\n  0x02\n    /* \"OnDemo/contracts/AccountManagement.sol\":4322:4342  _role == Role.MEMBER */\n  0x03\n  dup2\n  gt\n  iszero\n  tag_49\n  jumpi\n  tag_50\n  tag_38\n  jump\t// in\ntag_50:\ntag_49:\n    /* \"OnDemo/contracts/AccountManagement.sol\":4322:4327  _role */\n  dup5\n    /* \"OnDemo/contracts/AccountManagement.sol\":4322:4342  _role == Role.MEMBER */\n  0x03\n  dup2\n  gt\n  iszero\n  tag_51\n  jumpi\n  tag_52\n  tag_38\n  jump\t// in\ntag_52:\ntag_51:\n  eq\n    /* \"OnDemo/contracts/AccountManagement.sol\":4319:4480  if(_role == Role.MEMBER){... */\n  iszero\n  tag_53\n  jumpi\n    /* \"OnDemo/contracts/AccountManagement.sol\":4377:4381  true */\n  0x01\n    /* \"OnDemo/contracts/AccountManagement.sol\":4358:4365  roleMap */\n  dup2\n    /* \"OnDemo/contracts/AccountManagement.sol\":4358:4374  roleMap.isMember */\n  0x00\n  add\n  0x02\n    /* \"OnDemo/contracts/AccountManagement.sol\":4358:4381  roleMap.isMember = true */\n  0x0100\n  exp\n  dup2\n  sload\n  dup2\n  0xff\n  mul\n  not\n  and\n  swap1\n  dup4\n  iszero\n  iszero\n  mul\n  or\n  swap1\n  sstore\n  pop\n    /* \"OnDemo/contracts/AccountManagement.sol\":4319:4480  if(_role == Role.MEMBER){... */\n  jump(tag_54)\ntag_53:\n    /* \"OnDemo/contracts/AccountManagement.sol\":4420:4430  Role.GUEST */\n  0x03\n    /* \"OnDemo/contracts/AccountManagement.sol\":4411:4430  _role == Role.GUEST */\n  dup1\n  dup2\n  gt\n  iszero\n  tag_55\n  jumpi\n  tag_56\n  tag_38\n  jump\t// in\ntag_56:\ntag_55:\n    /* \"OnDemo/contracts/AccountManagement.sol\":4411:4416  _role */\n  dup5\n    /* \"OnDemo/contracts/AccountManagement.sol\":4411:4430  _role == Role.GUEST */\n  0x03\n  dup2\n  gt\n  iszero\n  tag_57\n  jumpi\n  tag_58\n  tag_38\n  jump\t// in\ntag_58:\ntag_57:\n  eq\n    /* \"OnDemo/contracts/AccountManagement.sol\":4408:4480  if(_role == Role.GUEST){... */\n  iszero\n  tag_59\n  jumpi\n    /* \"OnDemo/contracts/AccountManagement.sol\":4464:4468  true */\n  0x01\n    /* \"OnDemo/contracts/AccountManagement.sol\":4446:4453  roleMap */\n  dup2\n    /* \"OnDemo/contracts/AccountManagement.sol\":4446:4461  roleMap.isGuest */\n  0x00\n  add\n  0x03\n    /* \"OnDemo/contracts/AccountManagement.sol\":4446:4468  roleMap.isGuest = true */\n  0x0100\n  exp\n  dup2\n  sload\n  dup2\n  0xff\n  mul\n  not\n  and\n  swap1\n  dup4\n  iszero\n  iszero\n  mul\n  or\n  swap1\n  sstore\n  pop\n    /* \"OnDemo/contracts/AccountManagement.sol\":4408:4480  if(_role == Role.GUEST){... */\ntag_59:\n    /* \"OnDemo/contracts/AccountManagement.sol\":4319:4480  if(_role == Role.MEMBER){... */\ntag_54:\n    /* \"OnDemo/contracts/AccountManagement.sol\":4209:4480  if(_role == Role.COUNCILMEMBER){... */\ntag_48:\n    /* \"OnDemo/contracts/AccountManagement.sol\":4120:4480  if(_role == Role.LEADER){... */\ntag_42:\n    /* \"OnDemo/contracts/AccountManagement.sol\":4012:4487  {... */\n  pop\n  pop\n    /* \"OnDemo/contracts/AccountManagement.sol\":1894:1895  _ */\n  pop\n    /* \"OnDemo/contracts/AccountManagement.sol\":3924:4487  function assignRole(address _address, Role _role) public onlyLeader userExists(_address){... */\n  pop\n  pop\n  jump\t// out\n    /* \"OnDemo/contracts/AccountManagement.sol\":4495:5072  function removeRole(address _address, Role _role) public onlyLeader userExists(_address){... */\ntag_11:\n    /* \"OnDemo/contracts/AccountManagement.sol\":1810:1815  owner */\n  0x01\n  0x00\n  swap1\n  sload\n  swap1\n  0x0100\n  exp\n  swap1\n  div\n  0xffffffffffffffffffffffffffffffffffffffff\n  and\n    /* \"OnDemo/contracts/AccountManagement.sol\":1796:1815  msg.sender == owner */\n  0xffffffffffffffffffffffffffffffffffffffff\n  and\n    /* \"OnDemo/contracts/AccountManagement.sol\":1796:1806  msg.sender */\n  caller\n    /* \"OnDemo/contracts/AccountManagement.sol\":1796:1815  msg.sender == owner */\n  0xffffffffffffffffffffffffffffffffffffffff\n  and\n  eq\n    /* \"OnDemo/contracts/AccountManagement.sol\":1796:1844  msg.sender == owner || hasLeaderRole(msg.sender) */\n  dup1\n  tag_61\n  jumpi\n  pop\n    /* \"OnDemo/contracts/AccountManagement.sol\":1819:1844  hasLeaderRole(msg.sender) */\n  tag_62\n    /* \"OnDemo/contracts/AccountManagement.sol\":1833:1843  msg.sender */\n  caller\n    /* \"OnDemo/contracts/AccountManagement.sol\":1819:1832  hasLeaderRole */\n  shl(0x20, tag_27)\n    /* \"OnDemo/contracts/AccountManagement.sol\":1819:1844  hasLeaderRole(msg.sender) */\n  0x20\n  shr\n  jump\t// in\ntag_62:\n    /* \"OnDemo/contracts/AccountManagement.sol\":1796:1844  msg.sender == owner || hasLeaderRole(msg.sender) */\ntag_61:\n    /* \"OnDemo/contracts/AccountManagement.sol\":1788:1883  require(msg.sender == owner || hasLeaderRole(msg.sender), \"Only owner can call this function.\") */\n  tag_63\n  jumpi\n  mload(0x40)\n  0x08c379a000000000000000000000000000000000000000000000000000000000\n  dup2\n  mstore\n  0x04\n  add\n  tag_64\n  swap1\n  tag_30\n  jump\t// in\ntag_64:\n  mload(0x40)\n  dup1\n  swap2\n  sub\n  swap1\n  revert\ntag_63:\n    /* \"OnDemo/contracts/AccountManagement.sol\":4574:4582  _address */\n  dup2\n    /* \"OnDemo/contracts/AccountManagement.sol\":2006:2007  0 */\n  0x00\n    /* \"OnDemo/contracts/AccountManagement.sol\":1967:2008  users[_address].userAddress != address(0) */\n  0xffffffffffffffffffffffffffffffffffffffff\n  and\n    /* \"OnDemo/contracts/AccountManagement.sol\":1967:1972  users */\n  0x02\n    /* \"OnDemo/contracts/AccountManagement.sol\":1967:1982  users[_address] */\n  0x00\n    /* \"OnDemo/contracts/AccountManagement.sol\":1973:1981  _address */\n  dup4\n    /* \"OnDemo/contracts/AccountManagement.sol\":1967:1982  users[_address] */\n  0xffffffffffffffffffffffffffffffffffffffff\n  and\n  0xffffffffffffffffffffffffffffffffffffffff\n  and\n  dup2\n  mstore\n  0x20\n  add\n  swap1\n  dup2\n  mstore\n  0x20\n  add\n  0x00\n  keccak256\n    /* \"OnDemo/contracts/AccountManagement.sol\":1967:1994  users[_address].userAddress */\n  0x00\n  add\n  0x00\n  swap1\n  sload\n  swap1\n  0x0100\n  exp\n  swap1\n  div\n  0xffffffffffffffffffffffffffffffffffffffff\n  and\n    /* \"OnDemo/contracts/AccountManagement.sol\":1967:2008  users[_address].userAddress != address(0) */\n  0xffffffffffffffffffffffffffffffffffffffff\n  and\n  eq\n  iszero\n    /* \"OnDemo/contracts/AccountManagement.sol\":1959:2034  require(users[_address].userAddress != address(0), \"Account doesn't exist\") */\n  tag_66\n  jumpi\n  mload(0x40)\n  0x08c379a000000000000000000000000000000000000000000000000000000000\n  dup2\n  mstore\n  0x04\n  add\n  tag_67\n  swap1\n  tag_34\n  jump\t// in\ntag_67:\n  mload(0x40)\n  dup1\n  swap2\n  sub\n  swap1\n  revert\ntag_66:\n    /* \"OnDemo/contracts/AccountManagement.sol\":4594:4611  User storage user */\n  0x00\n    /* \"OnDemo/contracts/AccountManagement.sol\":4614:4619  users */\n  0x02\n    /* \"OnDemo/contracts/AccountManagement.sol\":4614:4629  users[_address] */\n  0x00\n    /* \"OnDemo/contracts/AccountManagement.sol\":4620:4628  _address */\n  dup6\n    /* \"OnDemo/contracts/AccountManagement.sol\":4614:4629  users[_address] */\n  0xffffffffffffffffffffffffffffffffffffffff\n  and\n  0xffffffffffffffffffffffffffffffffffffffff\n  and\n  dup2\n  mstore\n  0x20\n  add\n  swap1\n  dup2\n  mstore\n  0x20\n  add\n  0x00\n  keccak256\n    /* \"OnDemo/contracts/AccountManagement.sol\":4594:4629  User storage user = users[_address] */\n  swap1\n  pop\n    /* \"OnDemo/contracts/AccountManagement.sol\":4640:4663  RoleMap storage roleMap */\n  0x00\n    /* \"OnDemo/contracts/AccountManagement.sol\":4666:4670  user */\n  dup2\n    /* \"OnDemo/contracts/AccountManagement.sol\":4666:4678  user.roleMap */\n  0x05\n  add\n    /* \"OnDemo/contracts/AccountManagement.sol\":4640:4678  RoleMap storage roleMap = user.roleMap */\n  swap1\n  pop\n    /* \"OnDemo/contracts/AccountManagement.sol\":4703:4714  Role.LEADER */\n  0x00\n    /* \"OnDemo/contracts/AccountManagement.sol\":4694:4714  _role == Role.LEADER */\n  0x03\n  dup2\n  gt\n  iszero\n  tag_69\n  jumpi\n  tag_70\n  tag_38\n  jump\t// in\ntag_70:\ntag_69:\n    /* \"OnDemo/contracts/AccountManagement.sol\":4694:4699  _role */\n  dup5\n    /* \"OnDemo/contracts/AccountManagement.sol\":4694:4714  _role == Role.LEADER */\n  0x03\n  dup2\n  gt\n  iszero\n  tag_71\n  jumpi\n  tag_72\n  tag_38\n  jump\t// in\ntag_72:\ntag_71:\n  eq\n    /* \"OnDemo/contracts/AccountManagement.sol\":4691:5065  if(_role == Role.LEADER){... */\n  iszero\n  tag_73\n  jumpi\n    /* \"OnDemo/contracts/AccountManagement.sol\":4749:4754  false */\n  0x00\n    /* \"OnDemo/contracts/AccountManagement.sol\":4730:4737  roleMap */\n  dup2\n    /* \"OnDemo/contracts/AccountManagement.sol\":4730:4746  roleMap.isLeader */\n  0x00\n  add\n  0x00\n    /* \"OnDemo/contracts/AccountManagement.sol\":4730:4754  roleMap.isLeader = false */\n  0x0100\n  exp\n  dup2\n  sload\n  dup2\n  0xff\n  mul\n  not\n  and\n  swap1\n  dup4\n  iszero\n  iszero\n  mul\n  or\n  swap1\n  sstore\n  pop\n    /* \"OnDemo/contracts/AccountManagement.sol\":4691:5065  if(_role == Role.LEADER){... */\n  jump(tag_74)\ntag_73:\n    /* \"OnDemo/contracts/AccountManagement.sol\":4793:4811  Role.COUNCILMEMBER */\n  0x01\n    /* \"OnDemo/contracts/AccountManagement.sol\":4784:4811  _role == Role.COUNCILMEMBER */\n  0x03\n  dup2\n  gt\n  iszero\n  tag_75\n  jumpi\n  tag_76\n  tag_38\n  jump\t// in\ntag_76:\ntag_75:\n    /* \"OnDemo/contracts/AccountManagement.sol\":4784:4789  _role */\n  dup5\n    /* \"OnDemo/contracts/AccountManagement.sol\":4784:4811  _role == Role.COUNCILMEMBER */\n  0x03\n  dup2\n  gt\n  iszero\n  tag_77\n  jumpi\n  tag_78\n  tag_38\n  jump\t// in\ntag_78:\ntag_77:\n  eq\n    /* \"OnDemo/contracts/AccountManagement.sol\":4781:5065  if(_role == Role.COUNCILMEMBER){... */\n  iszero\n  tag_79\n  jumpi\n    /* \"OnDemo/contracts/AccountManagement.sol\":4853:4858  false */\n  0x00\n    /* \"OnDemo/contracts/AccountManagement.sol\":4827:4834  roleMap */\n  dup2\n    /* \"OnDemo/contracts/AccountManagement.sol\":4827:4850  roleMap.isCouncilMember */\n  0x00\n  add\n  0x01\n    /* \"OnDemo/contracts/AccountManagement.sol\":4827:4858  roleMap.isCouncilMember = false */\n  0x0100\n  exp\n  dup2\n  sload\n  dup2\n  0xff\n  mul\n  not\n  and\n  swap1\n  dup4\n  iszero\n  iszero\n  mul\n  or\n  swap1\n  sstore\n  pop\n    /* \"OnDemo/contracts/AccountManagement.sol\":4781:5065  if(_role == Role.COUNCILMEMBER){... */\n  jump(tag_80)\ntag_79:\n    /* \"OnDemo/contracts/AccountManagement.sol\":4902:4913  Role.MEMBER */\n  0x02\n    /* \"OnDemo/contracts/AccountManagement.sol\":4893:4913  _role == Role.MEMBER */\n  0x03\n  dup2\n  gt\n  iszero\n  tag_81\n  jumpi\n  tag_82\n  tag_38\n  jump\t// in\ntag_82:\ntag_81:\n    /* \"OnDemo/contracts/AccountManagement.sol\":4893:4898  _role */\n  dup5\n    /* \"OnDemo/contracts/AccountManagement.sol\":4893:4913  _role == Role.MEMBER */\n  0x03\n  dup2\n  gt\n  iszero\n  tag_83\n  jumpi\n  tag_84\n  tag_38\n  jump\t// in\ntag_84:\ntag_83:\n  eq\n    /* \"OnDemo/contracts/AccountManagement.sol\":4890:5065  if(_role == Role.MEMBER){... */\n  iszero\n  tag_85\n  jumpi\n    /* \"OnDemo/contracts/AccountManagement.sol\":4948:4953  false */\n  0x00\n    /* \"OnDemo/contracts/AccountManagement.sol\":4929:4936  roleMap */\n  dup2\n    /* \"OnDemo/contracts/AccountManagement.sol\":4929:4945  roleMap.isMember */\n  0x00\n  add\n  0x02\n    /* \"OnDemo/contracts/AccountManagement.sol\":4929:4953  roleMap.isMember = false */\n  0x0100\n  exp\n  dup2\n  sload\n  dup2\n  0xff\n  mul\n  not\n  and\n  swap1\n  dup4\n  iszero\n  iszero\n  mul\n  or\n  swap1\n  sstore\n  pop\n    /* \"OnDemo/contracts/AccountManagement.sol\":4890:5065  if(_role == Role.MEMBER){... */\n  jump(tag_86)\ntag_85:\n    /* \"OnDemo/contracts/AccountManagement.sol\":4992:5002  Role.GUEST */\n  0x03\n    /* \"OnDemo/contracts/AccountManagement.sol\":4983:5002  _role == Role.GUEST */\n  dup1\n  dup2\n  gt\n  iszero\n  tag_87\n  jumpi\n  tag_88\n  tag_38\n  jump\t// in\ntag_88:\ntag_87:\n    /* \"OnDemo/contracts/AccountManagement.sol\":4983:4988  _role */\n  dup5\n    /* \"OnDemo/contracts/AccountManagement.sol\":4983:5002  _role == Role.GUEST */\n  0x03\n  dup2\n  gt\n  iszero\n  tag_89\n  jumpi\n  tag_90\n  tag_38\n  jump\t// in\ntag_90:\ntag_89:\n  eq\n    /* \"OnDemo/contracts/AccountManagement.sol\":4980:5065  if(_role == Role.GUEST){... */\n  iszero\n  tag_91\n  jumpi\n    /* \"OnDemo/contracts/AccountManagement.sol\":5036:5041  false */\n  0x00\n    /* \"OnDemo/contracts/AccountManagement.sol\":5018:5025  roleMap */\n  dup2\n    /* \"OnDemo/contracts/AccountManagement.sol\":5018:5033  roleMap.isGuest */\n  0x00\n  add\n  0x03\n    /* \"OnDemo/contracts/AccountManagement.sol\":5018:5041  roleMap.isGuest = false */\n  0x0100\n  exp\n  dup2\n  sload\n  dup2\n  0xff\n  mul\n  not\n  and\n  swap1\n  dup4\n  iszero\n  iszero\n  mul\n  or\n  swap1\n  sstore\n  pop\n    /* \"OnDemo/contracts/AccountManagement.sol\":4980:5065  if(_role == Role.GUEST){... */\ntag_91:\n    /* \"OnDemo/contracts/AccountManagement.sol\":4890:5065  if(_role == Role.MEMBER){... */\ntag_86:\n    /* \"OnDemo/contracts/AccountManagement.sol\":4781:5065  if(_role == Role.COUNCILMEMBER){... */\ntag_80:\n    /* \"OnDemo/contracts/AccountManagement.sol\":4691:5065  if(_role == Role.LEADER){... */\ntag_74:\n    /* \"OnDemo/contracts/AccountManagement.sol\":4583:5072  {... */\n  pop\n  pop\n    /* \"OnDemo/contracts/AccountManagement.sol\":1894:1895  _ */\n  pop\n    /* \"OnDemo/contracts/AccountManagement.sol\":4495:5072  function removeRole(address _address, Role _role) public onlyLeader userExists(_address){... */\n  pop\n  pop\n  jump\t// out\n    /* \"OnDemo/contracts/AccountManagement.sol\":2729:3241  function makeAccountActive(address _address) public userExists(_address){... */\ntag_13:\n    /* \"OnDemo/contracts/AccountManagement.sol\":2792:2800  _address */\n  dup1\n    /* \"OnDemo/contracts/AccountManagement.sol\":2006:2007  0 */\n  0x00\n    /* \"OnDemo/contracts/AccountManagement.sol\":1967:2008  users[_address].userAddress != address(0) */\n  0xffffffffffffffffffffffffffffffffffffffff\n  and\n    /* \"OnDemo/contracts/AccountManagement.sol\":1967:1972  users */\n  0x02\n    /* \"OnDemo/contracts/AccountManagement.sol\":1967:1982  users[_address] */\n  0x00\n    /* \"OnDemo/contracts/AccountManagement.sol\":1973:1981  _address */\n  dup4\n    /* \"OnDemo/contracts/AccountManagement.sol\":1967:1982  users[_address] */\n  0xffffffffffffffffffffffffffffffffffffffff\n  and\n  0xffffffffffffffffffffffffffffffffffffffff\n  and\n  dup2\n  mstore\n  0x20\n  add\n  swap1\n  dup2\n  mstore\n  0x20\n  add\n  0x00\n  keccak256\n    /* \"OnDemo/contracts/AccountManagement.sol\":1967:1994  users[_address].userAddress */\n  0x00\n  add\n  0x00\n  swap1\n  sload\n  swap1\n  0x0100\n  exp\n  swap1\n  div\n  0xffffffffffffffffffffffffffffffffffffffff\n  and\n    /* \"OnDemo/contracts/AccountManagement.sol\":1967:2008  users[_address].userAddress != address(0) */\n  0xffffffffffffffffffffffffffffffffffffffff\n  and\n  eq\n  iszero\n    /* \"OnDemo/contracts/AccountManagement.sol\":1959:2034  require(users[_address].userAddress != address(0), \"Account doesn't exist\") */\n  tag_93\n  jumpi\n  mload(0x40)\n  0x08c379a000000000000000000000000000000000000000000000000000000000\n  dup2\n  mstore\n  0x04\n  add\n  tag_94\n  swap1\n  tag_34\n  jump\t// in\ntag_94:\n  mload(0x40)\n  dup1\n  swap2\n  sub\n  swap1\n  revert\ntag_93:\n    /* \"OnDemo/contracts/AccountManagement.sol\":2816:2829  activeMembers */\n  0x03\n    /* \"OnDemo/contracts/AccountManagement.sol\":2816:2839  activeMembers[_address] */\n  0x00\n    /* \"OnDemo/contracts/AccountManagement.sol\":2830:2838  _address */\n  dup4\n    /* \"OnDemo/contracts/AccountManagement.sol\":2816:2839  activeMembers[_address] */\n  0xffffffffffffffffffffffffffffffffffffffff\n  and\n  0xffffffffffffffffffffffffffffffffffffffff\n  and\n  dup2\n  mstore\n  0x20\n  add\n  swap1\n  dup2\n  mstore\n  0x20\n  add\n  0x00\n  keccak256\n  0x00\n  swap1\n  sload\n  swap1\n  0x0100\n  exp\n  swap1\n  div\n  0xff\n  and\n    /* \"OnDemo/contracts/AccountManagement.sol\":2812:3234  if(!activeMembers[_address]){... */\n  tag_96\n  jumpi\n    /* \"OnDemo/contracts/AccountManagement.sol\":2855:2872  User storage user */\n  0x00\n    /* \"OnDemo/contracts/AccountManagement.sol\":2875:2880  users */\n  0x02\n    /* \"OnDemo/contracts/AccountManagement.sol\":2875:2890  users[_address] */\n  0x00\n    /* \"OnDemo/contracts/AccountManagement.sol\":2881:2889  _address */\n  dup5\n    /* \"OnDemo/contracts/AccountManagement.sol\":2875:2890  users[_address] */\n  0xffffffffffffffffffffffffffffffffffffffff\n  and\n  0xffffffffffffffffffffffffffffffffffffffff\n  and\n  dup2\n  mstore\n  0x20\n  add\n  swap1\n  dup2\n  mstore\n  0x20\n  add\n  0x00\n  keccak256\n    /* \"OnDemo/contracts/AccountManagement.sol\":2855:2890  User storage user = users[_address] */\n  swap1\n  pop\n    /* \"OnDemo/contracts/AccountManagement.sol\":2921:2925  true */\n  0x01\n    /* \"OnDemo/contracts/AccountManagement.sol\":2905:2909  user */\n  dup2\n    /* \"OnDemo/contracts/AccountManagement.sol\":2905:2918  user.isActive */\n  0x04\n  add\n  0x00\n    /* \"OnDemo/contracts/AccountManagement.sol\":2905:2925  user.isActive = true */\n  0x0100\n  exp\n  dup2\n  sload\n  dup2\n  0xff\n  mul\n  not\n  and\n  swap1\n  dup4\n  iszero\n  iszero\n  mul\n  or\n  swap1\n  sstore\n  pop\n    /* \"OnDemo/contracts/AccountManagement.sol\":2987:3009  RoleMap memory roleMap */\n  0x00\n    /* \"OnDemo/contracts/AccountManagement.sol\":3012:3016  user */\n  dup2\n    /* \"OnDemo/contracts/AccountManagement.sol\":3012:3024  user.roleMap */\n  0x05\n  add\n    /* \"OnDemo/contracts/AccountManagement.sol\":2987:3024  RoleMap memory roleMap = user.roleMap */\n  mload(0x40)\n  dup1\n  0x80\n  add\n  0x40\n  mstore\n  swap1\n  dup2\n  0x00\n  dup3\n  add\n  0x00\n  swap1\n  sload\n  swap1\n  0x0100\n  exp\n  swap1\n  div\n  0xff\n  and\n  iszero\n  iszero\n  iszero\n  iszero\n  dup2\n  mstore\n  0x20\n  add\n  0x00\n  dup3\n  add\n  0x01\n  swap1\n  sload\n  swap1\n  0x0100\n  exp\n  swap1\n  div\n  0xff\n  and\n  iszero\n  iszero\n  iszero\n  iszero\n  dup2\n  mstore\n  0x20\n  add\n  0x00\n  dup3\n  add\n  0x02\n  swap1\n  sload\n  swap1\n  0x0100\n  exp\n  swap1\n  div\n  0xff\n  and\n  iszero\n  iszero\n  iszero\n  iszero\n  dup2\n  mstore\n  0x20\n  add\n  0x00\n  dup3\n  add\n  0x03\n  swap1\n  sload\n  swap1\n  0x0100\n  exp\n  swap1\n  div\n  0xff\n  and\n  iszero\n  iszero\n  iszero\n  iszero\n  dup2\n  mstore\n  pop\n  pop\n  swap1\n  pop\n    /* \"OnDemo/contracts/AccountManagement.sol\":3042:3049  roleMap */\n  dup1\n    /* \"OnDemo/contracts/AccountManagement.sol\":3042:3058  roleMap.isLeader */\n  0x00\n  add\n  mload\n    /* \"OnDemo/contracts/AccountManagement.sol\":3042:3085  roleMap.isLeader || roleMap.isCouncilMember */\n  dup1\n  tag_97\n  jumpi\n  pop\n    /* \"OnDemo/contracts/AccountManagement.sol\":3062:3069  roleMap */\n  dup1\n    /* \"OnDemo/contracts/AccountManagement.sol\":3062:3085  roleMap.isCouncilMember */\n  0x20\n  add\n  mload\n    /* \"OnDemo/contracts/AccountManagement.sol\":3042:3085  roleMap.isLeader || roleMap.isCouncilMember */\ntag_97:\n    /* \"OnDemo/contracts/AccountManagement.sol\":3042:3105  roleMap.isLeader || roleMap.isCouncilMember || roleMap.isMember */\n  dup1\n  tag_98\n  jumpi\n  pop\n    /* \"OnDemo/contracts/AccountManagement.sol\":3089:3096  roleMap */\n  dup1\n    /* \"OnDemo/contracts/AccountManagement.sol\":3089:3105  roleMap.isMember */\n  0x40\n  add\n  mload\n    /* \"OnDemo/contracts/AccountManagement.sol\":3042:3105  roleMap.isLeader || roleMap.isCouncilMember || roleMap.isMember */\ntag_98:\n    /* \"OnDemo/contracts/AccountManagement.sol\":3039:3223  if(roleMap.isLeader || roleMap.isCouncilMember || roleMap.isMember)... */\n  iszero\n  tag_99\n  jumpi\n    /* \"OnDemo/contracts/AccountManagement.sol\":3165:3169  true */\n  0x01\n    /* \"OnDemo/contracts/AccountManagement.sol\":3139:3152  activeMembers */\n  0x03\n    /* \"OnDemo/contracts/AccountManagement.sol\":3139:3162  activeMembers[_address] */\n  0x00\n    /* \"OnDemo/contracts/AccountManagement.sol\":3153:3161  _address */\n  dup7\n    /* \"OnDemo/contracts/AccountManagement.sol\":3139:3162  activeMembers[_address] */\n  0xffffffffffffffffffffffffffffffffffffffff\n  and\n  0xffffffffffffffffffffffffffffffffffffffff\n  and\n  dup2\n  mstore\n  0x20\n  add\n  swap1\n  dup2\n  mstore\n  0x20\n  add\n  0x00\n  keccak256\n  0x00\n    /* \"OnDemo/contracts/AccountManagement.sol\":3139:3169  activeMembers[_address] = true */\n  0x0100\n  exp\n  dup2\n  sload\n  dup2\n  0xff\n  mul\n  not\n  and\n  swap1\n  dup4\n  iszero\n  iszero\n  mul\n  or\n  swap1\n  sstore\n  pop\n    /* \"OnDemo/contracts/AccountManagement.sol\":3188:3205  activeMemberCount */\n  0x00\n  dup1\n    /* \"OnDemo/contracts/AccountManagement.sol\":3188:3207  activeMemberCount++ */\n  dup2\n  sload\n  dup1\n  swap3\n  swap2\n  swap1\n  tag_100\n  swap1\n  tag_101\n  jump\t// in\ntag_100:\n  swap2\n  swap1\n  pop\n  sstore\n  pop\n    /* \"OnDemo/contracts/AccountManagement.sol\":3039:3223  if(roleMap.isLeader || roleMap.isCouncilMember || roleMap.isMember)... */\ntag_99:\n    /* \"OnDemo/contracts/AccountManagement.sol\":2840:3234  {... */\n  pop\n  pop\n    /* \"OnDemo/contracts/AccountManagement.sol\":2812:3234  if(!activeMembers[_address]){... */\ntag_96:\n    /* \"OnDemo/contracts/AccountManagement.sol\":2729:3241  function makeAccountActive(address _address) public userExists(_address){... */\n  pop\n  pop\n  jump\t// out\n    /* \"OnDemo/contracts/AccountManagement.sol\":7011:7135  function hasLeaderRole(address _address) public view returns (bool) {... */\ntag_27:\n    /* \"OnDemo/contracts/AccountManagement.sol\":7073:7077  bool */\n  0x00\n    /* \"OnDemo/contracts/AccountManagement.sol\":7097:7127  hasRole(_address, Role.LEADER) */\n  tag_103\n    /* \"OnDemo/contracts/AccountManagement.sol\":7105:7113  _address */\n  dup3\n    /* \"OnDemo/contracts/AccountManagement.sol\":7115:7126  Role.LEADER */\n  0x00\n    /* \"OnDemo/contracts/AccountManagement.sol\":7097:7104  hasRole */\n  shl(0x20, tag_104)\n    /* \"OnDemo/contracts/AccountManagement.sol\":7097:7127  hasRole(_address, Role.LEADER) */\n  0x20\n  shr\n  jump\t// in\ntag_103:\n    /* \"OnDemo/contracts/AccountManagement.sol\":7090:7127  return hasRole(_address, Role.LEADER) */\n  swap1\n  pop\n    /* \"OnDemo/contracts/AccountManagement.sol\":7011:7135  function hasLeaderRole(address _address) public view returns (bool) {... */\n  swap2\n  swap1\n  pop\n  jump\t// out\n    /* \"OnDemo/contracts/AccountManagement.sol\":6429:6999  function hasRole(address _address, Role _role) private view returns (bool){... */\ntag_104:\n    /* \"OnDemo/contracts/AccountManagement.sol\":6498:6502  bool */\n  0x00\n    /* \"OnDemo/contracts/AccountManagement.sol\":6514:6530  User memory user */\n  dup1\n    /* \"OnDemo/contracts/AccountManagement.sol\":6533:6538  users */\n  0x02\n    /* \"OnDemo/contracts/AccountManagement.sol\":6533:6548  users[_address] */\n  0x00\n    /* \"OnDemo/contracts/AccountManagement.sol\":6539:6547  _address */\n  dup6\n    /* \"OnDemo/contracts/AccountManagement.sol\":6533:6548  users[_address] */\n  0xffffffffffffffffffffffffffffffffffffffff\n  and\n  0xffffffffffffffffffffffffffffffffffffffff\n  and\n  dup2\n  mstore\n  0x20\n  add\n  swap1\n  dup2\n  mstore\n  0x20\n  add\n  0x00\n  keccak256\n    /* \"OnDemo/contracts/AccountManagement.sol\":6514:6548  User memory user = users[_address] */\n  mload(0x40)\n  dup1\n  0xc0\n  add\n  0x40\n  mstore\n  swap1\n  dup2\n  0x00\n  dup3\n  add\n  0x00\n  swap1\n  sload\n  swap1\n  0x0100\n  exp\n  swap1\n  div\n  0xffffffffffffffffffffffffffffffffffffffff\n  and\n  0xffffffffffffffffffffffffffffffffffffffff\n  and\n  0xffffffffffffffffffffffffffffffffffffffff\n  and\n  dup2\n  mstore\n  0x20\n  add\n  0x01\n  dup3\n  add\n  dup1\n  sload\n  tag_106\n  swap1\n  tag_107\n  jump\t// in\ntag_106:\n  dup1\n  0x1f\n  add\n  0x20\n  dup1\n  swap2\n  div\n  mul\n  0x20\n  add\n  mload(0x40)\n  swap1\n  dup2\n  add\n  0x40\n  mstore\n  dup1\n  swap3\n  swap2\n  swap1\n  dup2\n  dup2\n  mstore\n  0x20\n  add\n  dup3\n  dup1\n  sload\n  tag_108\n  swap1\n  tag_107\n  jump\t// in\ntag_108:\n  dup1\n  iszero\n  tag_109\n  jumpi\n  dup1\n  0x1f\n  lt\n  tag_110\n  jumpi\n  0x0100\n  dup1\n  dup4\n  sload\n  div\n  mul\n  dup4\n  mstore\n  swap2\n  0x20\n  add\n  swap2\n  jump(tag_109)\ntag_110:\n  dup3\n  add\n  swap2\n  swap1\n  0x00\n  mstore\n  keccak256(0x00, 0x20)\n  swap1\ntag_111:\n  dup2\n  sload\n  dup2\n  mstore\n  swap1\n  0x01\n  add\n  swap1\n  0x20\n  add\n  dup1\n  dup4\n  gt\n  tag_111\n  jumpi\n  dup3\n  swap1\n  sub\n  0x1f\n  and\n  dup3\n  add\n  swap2\ntag_109:\n  pop\n  pop\n  pop\n  pop\n  pop\n  dup2\n  mstore\n  0x20\n  add\n  0x02\n  dup3\n  add\n  dup1\n  sload\n  tag_112\n  swap1\n  tag_107\n  jump\t// in\ntag_112:\n  dup1\n  0x1f\n  add\n  0x20\n  dup1\n  swap2\n  div\n  mul\n  0x20\n  add\n  mload(0x40)\n  swap1\n  dup2\n  add\n  0x40\n  mstore\n  dup1\n  swap3\n  swap2\n  swap1\n  dup2\n  dup2\n  mstore\n  0x20\n  add\n  dup3\n  dup1\n  sload\n  tag_113\n  swap1\n  tag_107\n  jump\t// in\ntag_113:\n  dup1\n  iszero\n  tag_114\n  jumpi\n  dup1\n  0x1f\n  lt\n  tag_115\n  jumpi\n  0x0100\n  dup1\n  dup4\n  sload\n  div\n  mul\n  dup4\n  mstore\n  swap2\n  0x20\n  add\n  swap2\n  jump(tag_114)\ntag_115:\n  dup3\n  add\n  swap2\n  swap1\n  0x00\n  mstore\n  keccak256(0x00, 0x20)\n  swap1\ntag_116:\n  dup2\n  sload\n  dup2\n  mstore\n  swap1\n  0x01\n  add\n  swap1\n  0x20\n  add\n  dup1\n  dup4\n  gt\n  tag_116\n  jumpi\n  dup3\n  swap1\n  sub\n  0x1f\n  and\n  dup3\n  add\n  swap2\ntag_114:\n  pop\n  pop\n  pop\n  pop\n  pop\n  dup2\n  mstore\n  0x20\n  add\n  0x03\n  dup3\n  add\n  dup1\n  sload\n  tag_117\n  swap1\n  tag_107\n  jump\t// in\ntag_117:\n  dup1\n  0x1f\n  add\n  0x20\n  dup1\n  swap2\n  div\n  mul\n  0x20\n  add\n  mload(0x40)\n  swap1\n  dup2\n  add\n  0x40\n  mstore\n  dup1\n  swap3\n  swap2\n  swap1\n  dup2\n  dup2\n  mstore\n  0x20\n  add\n  dup3\n  dup1\n  sload\n  tag_118\n  swap1\n  tag_107\n  jump\t// in\ntag_118:\n  dup1\n  iszero\n  tag_119\n  jumpi\n  dup1\n  0x1f\n  lt\n  tag_120\n  jumpi\n  0x0100\n  dup1\n  dup4\n  sload\n  div\n  mul\n  dup4\n  mstore\n  swap2\n  0x20\n  add\n  swap2\n  jump(tag_119)\ntag_120:\n  dup3\n  add\n  swap2\n  swap1\n  0x00\n  mstore\n  keccak256(0x00, 0x20)\n  swap1\ntag_121:\n  dup2\n  sload\n  dup2\n  mstore\n  swap1\n  0x01\n  add\n  swap1\n  0x20\n  add\n  dup1\n  dup4\n  gt\n  tag_121\n  jumpi\n  dup3\n  swap1\n  sub\n  0x1f\n  and\n  dup3\n  add\n  swap2\ntag_119:\n  pop\n  pop\n  pop\n  pop\n  pop\n  dup2\n  mstore\n  0x20\n  add\n  0x04\n  dup3\n  add\n  0x00\n  swap1\n  sload\n  swap1\n  0x0100\n  exp\n  swap1\n  div\n  0xff\n  and\n  iszero\n  iszero\n  iszero\n  iszero\n  dup2\n  mstore\n  0x20\n  add\n  0x05\n  dup3\n  add\n  mload(0x40)\n  dup1\n  0x80\n  add\n  0x40\n  mstore\n  swap1\n  dup2\n  0x00\n  dup3\n  add\n  0x00\n  swap1\n  sload\n  swap1\n  0x0100\n  exp\n  swap1\n  div\n  0xff\n  and\n  iszero\n  iszero\n  iszero\n  iszero\n  dup2\n  mstore\n  0x20\n  add\n  0x00\n  dup3\n  add\n  0x01\n  swap1\n  sload\n  swap1\n  0x0100\n  exp\n  swap1\n  div\n  0xff\n  and\n  iszero\n  iszero\n  iszero\n  iszero\n  dup2\n  mstore\n  0x20\n  add\n  0x00\n  dup3\n  add\n  0x02\n  swap1\n  sload\n  swap1\n  0x0100\n  exp\n  swap1\n  div\n  0xff\n  and\n  iszero\n  iszero\n  iszero\n  iszero\n  dup2\n  mstore\n  0x20\n  add\n  0x00\n  dup3\n  add\n  0x03\n  swap1\n  sload\n  swap1\n  0x0100\n  exp\n  swap1\n  div\n  0xff\n  and\n  iszero\n  iszero\n  iszero\n  iszero\n  dup2\n  mstore\n  pop\n  pop\n  dup2\n  mstore\n  pop\n  pop\n  swap1\n  pop\n    /* \"OnDemo/contracts/AccountManagement.sol\":6559:6581  RoleMap memory roleMap */\n  0x00\n    /* \"OnDemo/contracts/AccountManagement.sol\":6584:6588  user */\n  dup2\n    /* \"OnDemo/contracts/AccountManagement.sol\":6584:6596  user.roleMap */\n  0xa0\n  add\n  mload\n    /* \"OnDemo/contracts/AccountManagement.sol\":6559:6596  RoleMap memory roleMap = user.roleMap */\n  swap1\n  pop\n    /* \"OnDemo/contracts/AccountManagement.sol\":6621:6632  Role.LEADER */\n  0x00\n    /* \"OnDemo/contracts/AccountManagement.sol\":6612:6632  _role == Role.LEADER */\n  0x03\n  dup2\n  gt\n  iszero\n  tag_122\n  jumpi\n  tag_123\n  tag_38\n  jump\t// in\ntag_123:\ntag_122:\n    /* \"OnDemo/contracts/AccountManagement.sol\":6612:6617  _role */\n  dup5\n    /* \"OnDemo/contracts/AccountManagement.sol\":6612:6632  _role == Role.LEADER */\n  0x03\n  dup2\n  gt\n  iszero\n  tag_124\n  jumpi\n  tag_125\n  tag_38\n  jump\t// in\ntag_125:\ntag_124:\n  eq\n    /* \"OnDemo/contracts/AccountManagement.sol\":6609:6969  if(_role == Role.LEADER){... */\n  iszero\n  tag_126\n  jumpi\n    /* \"OnDemo/contracts/AccountManagement.sol\":6655:6662  roleMap */\n  dup1\n    /* \"OnDemo/contracts/AccountManagement.sol\":6655:6671  roleMap.isLeader */\n  0x00\n  add\n  mload\n    /* \"OnDemo/contracts/AccountManagement.sol\":6648:6671  return roleMap.isLeader */\n  swap3\n  pop\n  pop\n  pop\n  jump(tag_105)\n    /* \"OnDemo/contracts/AccountManagement.sol\":6609:6969  if(_role == Role.LEADER){... */\ntag_126:\n    /* \"OnDemo/contracts/AccountManagement.sol\":6710:6728  Role.COUNCILMEMBER */\n  0x01\n    /* \"OnDemo/contracts/AccountManagement.sol\":6701:6728  _role == Role.COUNCILMEMBER */\n  0x03\n  dup2\n  gt\n  iszero\n  tag_128\n  jumpi\n  tag_129\n  tag_38\n  jump\t// in\ntag_129:\ntag_128:\n    /* \"OnDemo/contracts/AccountManagement.sol\":6701:6706  _role */\n  dup5\n    /* \"OnDemo/contracts/AccountManagement.sol\":6701:6728  _role == Role.COUNCILMEMBER */\n  0x03\n  dup2\n  gt\n  iszero\n  tag_130\n  jumpi\n  tag_131\n  tag_38\n  jump\t// in\ntag_131:\ntag_130:\n  eq\n    /* \"OnDemo/contracts/AccountManagement.sol\":6698:6969  if(_role == Role.COUNCILMEMBER){... */\n  iszero\n  tag_132\n  jumpi\n    /* \"OnDemo/contracts/AccountManagement.sol\":6751:6758  roleMap */\n  dup1\n    /* \"OnDemo/contracts/AccountManagement.sol\":6751:6774  roleMap.isCouncilMember */\n  0x20\n  add\n  mload\n    /* \"OnDemo/contracts/AccountManagement.sol\":6744:6774  return roleMap.isCouncilMember */\n  swap3\n  pop\n  pop\n  pop\n  jump(tag_105)\n    /* \"OnDemo/contracts/AccountManagement.sol\":6698:6969  if(_role == Role.COUNCILMEMBER){... */\ntag_132:\n    /* \"OnDemo/contracts/AccountManagement.sol\":6820:6831  Role.MEMBER */\n  0x02\n    /* \"OnDemo/contracts/AccountManagement.sol\":6811:6831  _role == Role.MEMBER */\n  0x03\n  dup2\n  gt\n  iszero\n  tag_134\n  jumpi\n  tag_135\n  tag_38\n  jump\t// in\ntag_135:\ntag_134:\n    /* \"OnDemo/contracts/AccountManagement.sol\":6811:6816  _role */\n  dup5\n    /* \"OnDemo/contracts/AccountManagement.sol\":6811:6831  _role == Role.MEMBER */\n  0x03\n  dup2\n  gt\n  iszero\n  tag_136\n  jumpi\n  tag_137\n  tag_38\n  jump\t// in\ntag_137:\ntag_136:\n  eq\n    /* \"OnDemo/contracts/AccountManagement.sol\":6808:6969  if(_role == Role.MEMBER){... */\n  iszero\n  tag_138\n  jumpi\n    /* \"OnDemo/contracts/AccountManagement.sol\":6854:6861  roleMap */\n  dup1\n    /* \"OnDemo/contracts/AccountManagement.sol\":6854:6870  roleMap.isMember */\n  0x40\n  add\n  mload\n    /* \"OnDemo/contracts/AccountManagement.sol\":6847:6870  return roleMap.isMember */\n  swap3\n  pop\n  pop\n  pop\n  jump(tag_105)\n    /* \"OnDemo/contracts/AccountManagement.sol\":6808:6969  if(_role == Role.MEMBER){... */\ntag_138:\n    /* \"OnDemo/contracts/AccountManagement.sol\":6909:6919  Role.GUEST */\n  0x03\n    /* \"OnDemo/contracts/AccountManagement.sol\":6900:6919  _role == Role.GUEST */\n  dup1\n  dup2\n  gt\n  iszero\n  tag_140\n  jumpi\n  tag_141\n  tag_38\n  jump\t// in\ntag_141:\ntag_140:\n    /* \"OnDemo/contracts/AccountManagement.sol\":6900:6905  _role */\n  dup5\n    /* \"OnDemo/contracts/AccountManagement.sol\":6900:6919  _role == Role.GUEST */\n  0x03\n  dup2\n  gt\n  iszero\n  tag_142\n  jumpi\n  tag_143\n  tag_38\n  jump\t// in\ntag_143:\ntag_142:\n  eq\n    /* \"OnDemo/contracts/AccountManagement.sol\":6897:6969  if(_role == Role.GUEST){... */\n  iszero\n  tag_144\n  jumpi\n    /* \"OnDemo/contracts/AccountManagement.sol\":6942:6949  roleMap */\n  dup1\n    /* \"OnDemo/contracts/AccountManagement.sol\":6942:6957  roleMap.isGuest */\n  0x60\n  add\n  mload\n    /* \"OnDemo/contracts/AccountManagement.sol\":6935:6957  return roleMap.isGuest */\n  swap3\n  pop\n  pop\n  pop\n  jump(tag_105)\n    /* \"OnDemo/contracts/AccountManagement.sol\":6897:6969  if(_role == Role.GUEST){... */\ntag_144:\n    /* \"OnDemo/contracts/AccountManagement.sol\":6986:6991  false */\n  0x00\n    /* \"OnDemo/contracts/AccountManagement.sol\":6979:6991  return false */\n  swap3\n  pop\n  pop\n  pop\n    /* \"OnDemo/contracts/AccountManagement.sol\":6429:6999  function hasRole(address _address, Role _role) private view returns (bool){... */\ntag_105:\n  swap3\n  swap2\n  pop\n  pop\n  jump\t// out\n    /* \"OnDemo/contracts/AccountManagement.sol\":74:10504  contract AccountManagement {... */\ntag_21:\n  dup3\n  dup1\n  sload\n  tag_145\n  swap1\n  tag_107\n  jump\t// in\ntag_145:\n  swap1\n  0x00\n  mstore\n  keccak256(0x00, 0x20)\n  swap1\n  0x1f\n  add\n  0x20\n  swap1\n  div\n  dup2\n  add\n  swap3\n  dup3\n  tag_147\n  jumpi\n  0x00\n  dup6\n  sstore\n  jump(tag_146)\ntag_147:\n  dup3\n  0x1f\n  lt\n  tag_148\n  jumpi\n  dup1\n  mload\n  not(0xff)\n  and\n  dup4\n  dup1\n  add\n  or\n  dup6\n  sstore\n  jump(tag_146)\ntag_148:\n  dup3\n  dup1\n  add\n  0x01\n  add\n  dup6\n  sstore\n  dup3\n  iszero\n  tag_146\n  jumpi\n  swap2\n  dup3\n  add\ntag_149:\n  dup3\n  dup2\n  gt\n  iszero\n  tag_150\n  jumpi\n  dup3\n  mload\n  dup3\n  sstore\n  swap2\n  0x20\n  add\n  swap2\n  swap1\n  0x01\n  add\n  swap1\n  jump(tag_149)\ntag_150:\ntag_146:\n  pop\n  swap1\n  pop\n  tag_151\n  swap2\n  swap1\n  tag_152\n  jump\t// in\ntag_151:\n  pop\n  swap1\n  jump\t// out\ntag_152:\ntag_153:\n  dup1\n  dup3\n  gt\n  iszero\n  tag_154\n  jumpi\n  0x00\n  dup2\n  0x00\n  swap1\n  sstore\n  pop\n  0x01\n  add\n  jump(tag_153)\ntag_154:\n  pop\n  swap1\n  jump\t// out\n    /* \"#utility.yul\":7:82   */\ntag_155:\n    /* \"#utility.yul\":40:46   */\n  0x00\n    /* \"#utility.yul\":73:75   */\n  0x40\n    /* \"#utility.yul\":67:76   */\n  mload\n    /* \"#utility.yul\":57:76   */\n  swap1\n  pop\n    /* \"#utility.yul\":7:82   */\n  swap1\n  jump\t// out\n    /* \"#utility.yul\":88:205   */\ntag_156:\n    /* \"#utility.yul\":197:198   */\n  0x00\n    /* \"#utility.yul\":194:195   */\n  dup1\n    /* \"#utility.yul\":187:199   */\n  revert\n    /* \"#utility.yul\":211:328   */\ntag_157:\n    /* \"#utility.yul\":320:321   */\n  0x00\n    /* \"#utility.yul\":317:318   */\n  dup1\n    /* \"#utility.yul\":310:322   */\n  revert\n    /* \"#utility.yul\":334:451   */\ntag_158:\n    /* \"#utility.yul\":443:444   */\n  0x00\n    /* \"#utility.yul\":440:441   */\n  dup1\n    /* \"#utility.yul\":433:445   */\n  revert\n    /* \"#utility.yul\":457:574   */\ntag_159:\n    /* \"#utility.yul\":566:567   */\n  0x00\n    /* \"#utility.yul\":563:564   */\n  dup1\n    /* \"#utility.yul\":556:568   */\n  revert\n    /* \"#utility.yul\":580:682   */\ntag_160:\n    /* \"#utility.yul\":621:627   */\n  0x00\n    /* \"#utility.yul\":672:674   */\n  0x1f\n    /* \"#utility.yul\":668:675   */\n  not\n    /* \"#utility.yul\":663:665   */\n  0x1f\n    /* \"#utility.yul\":656:661   */\n  dup4\n    /* \"#utility.yul\":652:666   */\n  add\n    /* \"#utility.yul\":648:676   */\n  and\n    /* \"#utility.yul\":638:676   */\n  swap1\n  pop\n    /* \"#utility.yul\":580:682   */\n  swap2\n  swap1\n  pop\n  jump\t// out\n    /* \"#utility.yul\":688:868   */\ntag_161:\n    /* \"#utility.yul\":736:813   */\n  0x4e487b7100000000000000000000000000000000000000000000000000000000\n    /* \"#utility.yul\":733:734   */\n  0x00\n    /* \"#utility.yul\":726:814   */\n  mstore\n    /* \"#utility.yul\":833:837   */\n  0x41\n    /* \"#utility.yul\":830:831   */\n  0x04\n    /* \"#utility.yul\":823:838   */\n  mstore\n    /* \"#utility.yul\":857:861   */\n  0x24\n    /* \"#utility.yul\":854:855   */\n  0x00\n    /* \"#utility.yul\":847:862   */\n  revert\n    /* \"#utility.yul\":874:1155   */\ntag_162:\n    /* \"#utility.yul\":957:984   */\n  tag_187\n    /* \"#utility.yul\":979:983   */\n  dup3\n    /* \"#utility.yul\":957:984   */\n  tag_160\n  jump\t// in\ntag_187:\n    /* \"#utility.yul\":949:955   */\n  dup2\n    /* \"#utility.yul\":945:985   */\n  add\n    /* \"#utility.yul\":1087:1093   */\n  dup2\n    /* \"#utility.yul\":1075:1085   */\n  dup2\n    /* \"#utility.yul\":1072:1094   */\n  lt\n    /* \"#utility.yul\":1051:1069   */\n  0xffffffffffffffff\n    /* \"#utility.yul\":1039:1049   */\n  dup3\n    /* \"#utility.yul\":1036:1070   */\n  gt\n    /* \"#utility.yul\":1033:1095   */\n  or\n    /* \"#utility.yul\":1030:1118   */\n  iszero\n  tag_188\n  jumpi\n    /* \"#utility.yul\":1098:1116   */\n  tag_189\n  tag_161\n  jump\t// in\ntag_189:\n    /* \"#utility.yul\":1030:1118   */\ntag_188:\n    /* \"#utility.yul\":1138:1148   */\n  dup1\n    /* \"#utility.yul\":1134:1136   */\n  0x40\n    /* \"#utility.yul\":1127:1149   */\n  mstore\n    /* \"#utility.yul\":917:1155   */\n  pop\n    /* \"#utility.yul\":874:1155   */\n  pop\n  pop\n  jump\t// out\n    /* \"#utility.yul\":1161:1290   */\ntag_163:\n    /* \"#utility.yul\":1195:1201   */\n  0x00\n    /* \"#utility.yul\":1222:1242   */\n  tag_191\n  tag_155\n  jump\t// in\ntag_191:\n    /* \"#utility.yul\":1212:1242   */\n  swap1\n  pop\n    /* \"#utility.yul\":1251:1284   */\n  tag_192\n    /* \"#utility.yul\":1279:1283   */\n  dup3\n    /* \"#utility.yul\":1271:1277   */\n  dup3\n    /* \"#utility.yul\":1251:1284   */\n  tag_162\n  jump\t// in\ntag_192:\n    /* \"#utility.yul\":1161:1290   */\n  swap2\n  swap1\n  pop\n  jump\t// out\n    /* \"#utility.yul\":1296:1604   */\ntag_164:\n    /* \"#utility.yul\":1358:1362   */\n  0x00\n    /* \"#utility.yul\":1448:1466   */\n  0xffffffffffffffff\n    /* \"#utility.yul\":1440:1446   */\n  dup3\n    /* \"#utility.yul\":1437:1467   */\n  gt\n    /* \"#utility.yul\":1434:1490   */\n  iszero\n  tag_194\n  jumpi\n    /* \"#utility.yul\":1470:1488   */\n  tag_195\n  tag_161\n  jump\t// in\ntag_195:\n    /* \"#utility.yul\":1434:1490   */\ntag_194:\n    /* \"#utility.yul\":1508:1537   */\n  tag_196\n    /* \"#utility.yul\":1530:1536   */\n  dup3\n    /* \"#utility.yul\":1508:1537   */\n  tag_160\n  jump\t// in\ntag_196:\n    /* \"#utility.yul\":1500:1537   */\n  swap1\n  pop\n    /* \"#utility.yul\":1592:1596   */\n  0x20\n    /* \"#utility.yul\":1586:1590   */\n  dup2\n    /* \"#utility.yul\":1582:1597   */\n  add\n    /* \"#utility.yul\":1574:1597   */\n  swap1\n  pop\n    /* \"#utility.yul\":1296:1604   */\n  swap2\n  swap1\n  pop\n  jump\t// out\n    /* \"#utility.yul\":1610:1917   */\ntag_165:\n    /* \"#utility.yul\":1678:1679   */\n  0x00\n    /* \"#utility.yul\":1688:1801   */\ntag_198:\n    /* \"#utility.yul\":1702:1708   */\n  dup4\n    /* \"#utility.yul\":1699:1700   */\n  dup2\n    /* \"#utility.yul\":1696:1709   */\n  lt\n    /* \"#utility.yul\":1688:1801   */\n  iszero\n  tag_200\n  jumpi\n    /* \"#utility.yul\":1787:1788   */\n  dup1\n    /* \"#utility.yul\":1782:1785   */\n  dup3\n    /* \"#utility.yul\":1778:1789   */\n  add\n    /* \"#utility.yul\":1772:1790   */\n  mload\n    /* \"#utility.yul\":1768:1769   */\n  dup2\n    /* \"#utility.yul\":1763:1766   */\n  dup5\n    /* \"#utility.yul\":1759:1770   */\n  add\n    /* \"#utility.yul\":1752:1791   */\n  mstore\n    /* \"#utility.yul\":1724:1726   */\n  0x20\n    /* \"#utility.yul\":1721:1722   */\n  dup2\n    /* \"#utility.yul\":1717:1727   */\n  add\n    /* \"#utility.yul\":1712:1727   */\n  swap1\n  pop\n    /* \"#utility.yul\":1688:1801   */\n  jump(tag_198)\ntag_200:\n    /* \"#utility.yul\":1819:1825   */\n  dup4\n    /* \"#utility.yul\":1816:1817   */\n  dup2\n    /* \"#utility.yul\":1813:1826   */\n  gt\n    /* \"#utility.yul\":1810:1911   */\n  iszero\n  tag_201\n  jumpi\n    /* \"#utility.yul\":1899:1900   */\n  0x00\n    /* \"#utility.yul\":1890:1896   */\n  dup5\n    /* \"#utility.yul\":1885:1888   */\n  dup5\n    /* \"#utility.yul\":1881:1897   */\n  add\n    /* \"#utility.yul\":1874:1901   */\n  mstore\n    /* \"#utility.yul\":1810:1911   */\ntag_201:\n    /* \"#utility.yul\":1659:1917   */\n  pop\n    /* \"#utility.yul\":1610:1917   */\n  pop\n  pop\n  pop\n  jump\t// out\n    /* \"#utility.yul\":1923:2344   */\ntag_166:\n    /* \"#utility.yul\":2012:2017   */\n  0x00\n    /* \"#utility.yul\":2037:2103   */\n  tag_203\n    /* \"#utility.yul\":2053:2102   */\n  tag_204\n    /* \"#utility.yul\":2095:2101   */\n  dup5\n    /* \"#utility.yul\":2053:2102   */\n  tag_164\n  jump\t// in\ntag_204:\n    /* \"#utility.yul\":2037:2103   */\n  tag_163\n  jump\t// in\ntag_203:\n    /* \"#utility.yul\":2028:2103   */\n  swap1\n  pop\n    /* \"#utility.yul\":2126:2132   */\n  dup3\n    /* \"#utility.yul\":2119:2124   */\n  dup2\n    /* \"#utility.yul\":2112:2133   */\n  mstore\n    /* \"#utility.yul\":2164:2168   */\n  0x20\n    /* \"#utility.yul\":2157:2162   */\n  dup2\n    /* \"#utility.yul\":2153:2169   */\n  add\n    /* \"#utility.yul\":2202:2205   */\n  dup5\n    /* \"#utility.yul\":2193:2199   */\n  dup5\n    /* \"#utility.yul\":2188:2191   */\n  dup5\n    /* \"#utility.yul\":2184:2200   */\n  add\n    /* \"#utility.yul\":2181:2206   */\n  gt\n    /* \"#utility.yul\":2178:2290   */\n  iszero\n  tag_205\n  jumpi\n    /* \"#utility.yul\":2209:2288   */\n  tag_206\n  tag_159\n  jump\t// in\ntag_206:\n    /* \"#utility.yul\":2178:2290   */\ntag_205:\n    /* \"#utility.yul\":2299:2338   */\n  tag_207\n    /* \"#utility.yul\":2331:2337   */\n  dup5\n    /* \"#utility.yul\":2326:2329   */\n  dup3\n    /* \"#utility.yul\":2321:2324   */\n  dup6\n    /* \"#utility.yul\":2299:2338   */\n  tag_165\n  jump\t// in\ntag_207:\n    /* \"#utility.yul\":2018:2344   */\n  pop\n    /* \"#utility.yul\":1923:2344   */\n  swap4\n  swap3\n  pop\n  pop\n  pop\n  jump\t// out\n    /* \"#utility.yul\":2364:2719   */\ntag_167:\n    /* \"#utility.yul\":2431:2436   */\n  0x00\n    /* \"#utility.yul\":2480:2483   */\n  dup3\n    /* \"#utility.yul\":2473:2477   */\n  0x1f\n    /* \"#utility.yul\":2465:2471   */\n  dup4\n    /* \"#utility.yul\":2461:2478   */\n  add\n    /* \"#utility.yul\":2457:2484   */\n  slt\n    /* \"#utility.yul\":2447:2569   */\n  tag_209\n  jumpi\n    /* \"#utility.yul\":2488:2567   */\n  tag_210\n  tag_158\n  jump\t// in\ntag_210:\n    /* \"#utility.yul\":2447:2569   */\ntag_209:\n    /* \"#utility.yul\":2598:2604   */\n  dup2\n    /* \"#utility.yul\":2592:2605   */\n  mload\n    /* \"#utility.yul\":2623:2713   */\n  tag_211\n    /* \"#utility.yul\":2709:2712   */\n  dup5\n    /* \"#utility.yul\":2701:2707   */\n  dup3\n    /* \"#utility.yul\":2694:2698   */\n  0x20\n    /* \"#utility.yul\":2686:2692   */\n  dup7\n    /* \"#utility.yul\":2682:2699   */\n  add\n    /* \"#utility.yul\":2623:2713   */\n  tag_166\n  jump\t// in\ntag_211:\n    /* \"#utility.yul\":2614:2713   */\n  swap2\n  pop\n    /* \"#utility.yul\":2437:2719   */\n  pop\n    /* \"#utility.yul\":2364:2719   */\n  swap3\n  swap2\n  pop\n  pop\n  jump\t// out\n    /* \"#utility.yul\":2725:3907   */\ntag_3:\n    /* \"#utility.yul\":2843:2849   */\n  0x00\n    /* \"#utility.yul\":2851:2857   */\n  dup1\n    /* \"#utility.yul\":2859:2865   */\n  0x00\n    /* \"#utility.yul\":2908:2910   */\n  0x60\n    /* \"#utility.yul\":2896:2905   */\n  dup5\n    /* \"#utility.yul\":2887:2894   */\n  dup7\n    /* \"#utility.yul\":2883:2906   */\n  sub\n    /* \"#utility.yul\":2879:2911   */\n  slt\n    /* \"#utility.yul\":2876:2995   */\n  iszero\n  tag_213\n  jumpi\n    /* \"#utility.yul\":2914:2993   */\n  tag_214\n  tag_156\n  jump\t// in\ntag_214:\n    /* \"#utility.yul\":2876:2995   */\ntag_213:\n    /* \"#utility.yul\":3055:3056   */\n  0x00\n    /* \"#utility.yul\":3044:3053   */\n  dup5\n    /* \"#utility.yul\":3040:3057   */\n  add\n    /* \"#utility.yul\":3034:3058   */\n  mload\n    /* \"#utility.yul\":3085:3103   */\n  0xffffffffffffffff\n    /* \"#utility.yul\":3077:3083   */\n  dup2\n    /* \"#utility.yul\":3074:3104   */\n  gt\n    /* \"#utility.yul\":3071:3188   */\n  iszero\n  tag_215\n  jumpi\n    /* \"#utility.yul\":3107:3186   */\n  tag_216\n  tag_157\n  jump\t// in\ntag_216:\n    /* \"#utility.yul\":3071:3188   */\ntag_215:\n    /* \"#utility.yul\":3212:3286   */\n  tag_217\n    /* \"#utility.yul\":3278:3285   */\n  dup7\n    /* \"#utility.yul\":3269:3275   */\n  dup3\n    /* \"#utility.yul\":3258:3267   */\n  dup8\n    /* \"#utility.yul\":3254:3276   */\n  add\n    /* \"#utility.yul\":3212:3286   */\n  tag_167\n  jump\t// in\ntag_217:\n    /* \"#utility.yul\":3202:3286   */\n  swap4\n  pop\n    /* \"#utility.yul\":3005:3296   */\n  pop\n    /* \"#utility.yul\":3356:3358   */\n  0x20\n    /* \"#utility.yul\":3345:3354   */\n  dup5\n    /* \"#utility.yul\":3341:3359   */\n  add\n    /* \"#utility.yul\":3335:3360   */\n  mload\n    /* \"#utility.yul\":3387:3405   */\n  0xffffffffffffffff\n    /* \"#utility.yul\":3379:3385   */\n  dup2\n    /* \"#utility.yul\":3376:3406   */\n  gt\n    /* \"#utility.yul\":3373:3490   */\n  iszero\n  tag_218\n  jumpi\n    /* \"#utility.yul\":3409:3488   */\n  tag_219\n  tag_157\n  jump\t// in\ntag_219:\n    /* \"#utility.yul\":3373:3490   */\ntag_218:\n    /* \"#utility.yul\":3514:3588   */\n  tag_220\n    /* \"#utility.yul\":3580:3587   */\n  dup7\n    /* \"#utility.yul\":3571:3577   */\n  dup3\n    /* \"#utility.yul\":3560:3569   */\n  dup8\n    /* \"#utility.yul\":3556:3578   */\n  add\n    /* \"#utility.yul\":3514:3588   */\n  tag_167\n  jump\t// in\ntag_220:\n    /* \"#utility.yul\":3504:3588   */\n  swap3\n  pop\n    /* \"#utility.yul\":3306:3598   */\n  pop\n    /* \"#utility.yul\":3658:3660   */\n  0x40\n    /* \"#utility.yul\":3647:3656   */\n  dup5\n    /* \"#utility.yul\":3643:3661   */\n  add\n    /* \"#utility.yul\":3637:3662   */\n  mload\n    /* \"#utility.yul\":3689:3707   */\n  0xffffffffffffffff\n    /* \"#utility.yul\":3681:3687   */\n  dup2\n    /* \"#utility.yul\":3678:3708   */\n  gt\n    /* \"#utility.yul\":3675:3792   */\n  iszero\n  tag_221\n  jumpi\n    /* \"#utility.yul\":3711:3790   */\n  tag_222\n  tag_157\n  jump\t// in\ntag_222:\n    /* \"#utility.yul\":3675:3792   */\ntag_221:\n    /* \"#utility.yul\":3816:3890   */\n  tag_223\n    /* \"#utility.yul\":3882:3889   */\n  dup7\n    /* \"#utility.yul\":3873:3879   */\n  dup3\n    /* \"#utility.yul\":3862:3871   */\n  dup8\n    /* \"#utility.yul\":3858:3880   */\n  add\n    /* \"#utility.yul\":3816:3890   */\n  tag_167\n  jump\t// in\ntag_223:\n    /* \"#utility.yul\":3806:3890   */\n  swap2\n  pop\n    /* \"#utility.yul\":3608:3900   */\n  pop\n    /* \"#utility.yul\":2725:3907   */\n  swap3\n  pop\n  swap3\n  pop\n  swap3\n  jump\t// out\n    /* \"#utility.yul\":3913:4082   */\ntag_168:\n    /* \"#utility.yul\":3997:4008   */\n  0x00\n    /* \"#utility.yul\":4031:4037   */\n  dup3\n    /* \"#utility.yul\":4026:4029   */\n  dup3\n    /* \"#utility.yul\":4019:4038   */\n  mstore\n    /* \"#utility.yul\":4071:4075   */\n  0x20\n    /* \"#utility.yul\":4066:4069   */\n  dup3\n    /* \"#utility.yul\":4062:4076   */\n  add\n    /* \"#utility.yul\":4047:4076   */\n  swap1\n  pop\n    /* \"#utility.yul\":3913:4082   */\n  swap3\n  swap2\n  pop\n  pop\n  jump\t// out\n    /* \"#utility.yul\":4088:4260   */\ntag_169:\n    /* \"#utility.yul\":4228:4252   */\n  0x4163636f756e7420616c72656164792065786973747300000000000000000000\n    /* \"#utility.yul\":4224:4225   */\n  0x00\n    /* \"#utility.yul\":4216:4222   */\n  dup3\n    /* \"#utility.yul\":4212:4226   */\n  add\n    /* \"#utility.yul\":4205:4253   */\n  mstore\n    /* \"#utility.yul\":4088:4260   */\n  pop\n  jump\t// out\n    /* \"#utility.yul\":4266:4632   */\ntag_170:\n    /* \"#utility.yul\":4408:4411   */\n  0x00\n    /* \"#utility.yul\":4429:4496   */\n  tag_227\n    /* \"#utility.yul\":4493:4495   */\n  0x16\n    /* \"#utility.yul\":4488:4491   */\n  dup4\n    /* \"#utility.yul\":4429:4496   */\n  tag_168\n  jump\t// in\ntag_227:\n    /* \"#utility.yul\":4422:4496   */\n  swap2\n  pop\n    /* \"#utility.yul\":4505:4598   */\n  tag_228\n    /* \"#utility.yul\":4594:4597   */\n  dup3\n    /* \"#utility.yul\":4505:4598   */\n  tag_169\n  jump\t// in\ntag_228:\n    /* \"#utility.yul\":4623:4625   */\n  0x20\n    /* \"#utility.yul\":4618:4621   */\n  dup3\n    /* \"#utility.yul\":4614:4626   */\n  add\n    /* \"#utility.yul\":4607:4626   */\n  swap1\n  pop\n    /* \"#utility.yul\":4266:4632   */\n  swap2\n  swap1\n  pop\n  jump\t// out\n    /* \"#utility.yul\":4638:5057   */\ntag_18:\n    /* \"#utility.yul\":4804:4808   */\n  0x00\n    /* \"#utility.yul\":4842:4844   */\n  0x20\n    /* \"#utility.yul\":4831:4840   */\n  dup3\n    /* \"#utility.yul\":4827:4845   */\n  add\n    /* \"#utility.yul\":4819:4845   */\n  swap1\n  pop\n    /* \"#utility.yul\":4891:4900   */\n  dup2\n    /* \"#utility.yul\":4885:4889   */\n  dup2\n    /* \"#utility.yul\":4881:4901   */\n  sub\n    /* \"#utility.yul\":4877:4878   */\n  0x00\n    /* \"#utility.yul\":4866:4875   */\n  dup4\n    /* \"#utility.yul\":4862:4879   */\n  add\n    /* \"#utility.yul\":4855:4902   */\n  mstore\n    /* \"#utility.yul\":4919:5050   */\n  tag_230\n    /* \"#utility.yul\":5045:5049   */\n  dup2\n    /* \"#utility.yul\":4919:5050   */\n  tag_170\n  jump\t// in\ntag_230:\n    /* \"#utility.yul\":4911:5050   */\n  swap1\n  pop\n    /* \"#utility.yul\":4638:5057   */\n  swap2\n  swap1\n  pop\n  jump\t// out\n    /* \"#utility.yul\":5063:5284   */\ntag_171:\n    /* \"#utility.yul\":5203:5237   */\n  0x4f6e6c79206f776e65722063616e2063616c6c20746869732066756e6374696f\n    /* \"#utility.yul\":5199:5200   */\n  0x00\n    /* \"#utility.yul\":5191:5197   */\n  dup3\n    /* \"#utility.yul\":5187:5201   */\n  add\n    /* \"#utility.yul\":5180:5238   */\n  mstore\n    /* \"#utility.yul\":5272:5276   */\n  0x6e2e000000000000000000000000000000000000000000000000000000000000\n    /* \"#utility.yul\":5267:5269   */\n  0x20\n    /* \"#utility.yul\":5259:5265   */\n  dup3\n    /* \"#utility.yul\":5255:5270   */\n  add\n    /* \"#utility.yul\":5248:5277   */\n  mstore\n    /* \"#utility.yul\":5063:5284   */\n  pop\n  jump\t// out\n    /* \"#utility.yul\":5290:5656   */\ntag_172:\n    /* \"#utility.yul\":5432:5435   */\n  0x00\n    /* \"#utility.yul\":5453:5520   */\n  tag_233\n    /* \"#utility.yul\":5517:5519   */\n  0x22\n    /* \"#utility.yul\":5512:5515   */\n  dup4\n    /* \"#utility.yul\":5453:5520   */\n  tag_168\n  jump\t// in\ntag_233:\n    /* \"#utility.yul\":5446:5520   */\n  swap2\n  pop\n    /* \"#utility.yul\":5529:5622   */\n  tag_234\n    /* \"#utility.yul\":5618:5621   */\n  dup3\n    /* \"#utility.yul\":5529:5622   */\n  tag_171\n  jump\t// in\ntag_234:\n    /* \"#utility.yul\":5647:5649   */\n  0x40\n    /* \"#utility.yul\":5642:5645   */\n  dup3\n    /* \"#utility.yul\":5638:5650   */\n  add\n    /* \"#utility.yul\":5631:5650   */\n  swap1\n  pop\n    /* \"#utility.yul\":5290:5656   */\n  swap2\n  swap1\n  pop\n  jump\t// out\n    /* \"#utility.yul\":5662:6081   */\ntag_30:\n    /* \"#utility.yul\":5828:5832   */\n  0x00\n    /* \"#utility.yul\":5866:5868   */\n  0x20\n    /* \"#utility.yul\":5855:5864   */\n  dup3\n    /* \"#utility.yul\":5851:5869   */\n  add\n    /* \"#utility.yul\":5843:5869   */\n  swap1\n  pop\n    /* \"#utility.yul\":5915:5924   */\n  dup2\n    /* \"#utility.yul\":5909:5913   */\n  dup2\n    /* \"#utility.yul\":5905:5925   */\n  sub\n    /* \"#utility.yul\":5901:5902   */\n  0x00\n    /* \"#utility.yul\":5890:5899   */\n  dup4\n    /* \"#utility.yul\":5886:5903   */\n  add\n    /* \"#utility.yul\":5879:5926   */\n  mstore\n    /* \"#utility.yul\":5943:6074   */\n  tag_236\n    /* \"#utility.yul\":6069:6073   */\n  dup2\n    /* \"#utility.yul\":5943:6074   */\n  tag_172\n  jump\t// in\ntag_236:\n    /* \"#utility.yul\":5935:6074   */\n  swap1\n  pop\n    /* \"#utility.yul\":5662:6081   */\n  swap2\n  swap1\n  pop\n  jump\t// out\n    /* \"#utility.yul\":6087:6258   */\ntag_173:\n    /* \"#utility.yul\":6227:6250   */\n  0x4163636f756e7420646f65736e27742065786973740000000000000000000000\n    /* \"#utility.yul\":6223:6224   */\n  0x00\n    /* \"#utility.yul\":6215:6221   */\n  dup3\n    /* \"#utility.yul\":6211:6225   */\n  add\n    /* \"#utility.yul\":6204:6251   */\n  mstore\n    /* \"#utility.yul\":6087:6258   */\n  pop\n  jump\t// out\n    /* \"#utility.yul\":6264:6630   */\ntag_174:\n    /* \"#utility.yul\":6406:6409   */\n  0x00\n    /* \"#utility.yul\":6427:6494   */\n  tag_239\n    /* \"#utility.yul\":6491:6493   */\n  0x15\n    /* \"#utility.yul\":6486:6489   */\n  dup4\n    /* \"#utility.yul\":6427:6494   */\n  tag_168\n  jump\t// in\ntag_239:\n    /* \"#utility.yul\":6420:6494   */\n  swap2\n  pop\n    /* \"#utility.yul\":6503:6596   */\n  tag_240\n    /* \"#utility.yul\":6592:6595   */\n  dup3\n    /* \"#utility.yul\":6503:6596   */\n  tag_173\n  jump\t// in\ntag_240:\n    /* \"#utility.yul\":6621:6623   */\n  0x20\n    /* \"#utility.yul\":6616:6619   */\n  dup3\n    /* \"#utility.yul\":6612:6624   */\n  add\n    /* \"#utility.yul\":6605:6624   */\n  swap1\n  pop\n    /* \"#utility.yul\":6264:6630   */\n  swap2\n  swap1\n  pop\n  jump\t// out\n    /* \"#utility.yul\":6636:7055   */\ntag_34:\n    /* \"#utility.yul\":6802:6806   */\n  0x00\n    /* \"#utility.yul\":6840:6842   */\n  0x20\n    /* \"#utility.yul\":6829:6838   */\n  dup3\n    /* \"#utility.yul\":6825:6843   */\n  add\n    /* \"#utility.yul\":6817:6843   */\n  swap1\n  pop\n    /* \"#utility.yul\":6889:6898   */\n  dup2\n    /* \"#utility.yul\":6883:6887   */\n  dup2\n    /* \"#utility.yul\":6879:6899   */\n  sub\n    /* \"#utility.yul\":6875:6876   */\n  0x00\n    /* \"#utility.yul\":6864:6873   */\n  dup4\n    /* \"#utility.yul\":6860:6877   */\n  add\n    /* \"#utility.yul\":6853:6900   */\n  mstore\n    /* \"#utility.yul\":6917:7048   */\n  tag_242\n    /* \"#utility.yul\":7043:7047   */\n  dup2\n    /* \"#utility.yul\":6917:7048   */\n  tag_174\n  jump\t// in\ntag_242:\n    /* \"#utility.yul\":6909:7048   */\n  swap1\n  pop\n    /* \"#utility.yul\":6636:7055   */\n  swap2\n  swap1\n  pop\n  jump\t// out\n    /* \"#utility.yul\":7061:7241   */\ntag_38:\n    /* \"#utility.yul\":7109:7186   */\n  0x4e487b7100000000000000000000000000000000000000000000000000000000\n    /* \"#utility.yul\":7106:7107   */\n  0x00\n    /* \"#utility.yul\":7099:7187   */\n  mstore\n    /* \"#utility.yul\":7206:7210   */\n  0x21\n    /* \"#utility.yul\":7203:7204   */\n  0x04\n    /* \"#utility.yul\":7196:7211   */\n  mstore\n    /* \"#utility.yul\":7230:7234   */\n  0x24\n    /* \"#utility.yul\":7227:7228   */\n  0x00\n    /* \"#utility.yul\":7220:7235   */\n  revert\n    /* \"#utility.yul\":7247:7427   */\ntag_175:\n    /* \"#utility.yul\":7295:7372   */\n  0x4e487b7100000000000000000000000000000000000000000000000000000000\n    /* \"#utility.yul\":7292:7293   */\n  0x00\n    /* \"#utility.yul\":7285:7373   */\n  mstore\n    /* \"#utility.yul\":7392:7396   */\n  0x11\n    /* \"#utility.yul\":7389:7390   */\n  0x04\n    /* \"#utility.yul\":7382:7397   */\n  mstore\n    /* \"#utility.yul\":7416:7420   */\n  0x24\n    /* \"#utility.yul\":7413:7414   */\n  0x00\n    /* \"#utility.yul\":7406:7421   */\n  revert\n    /* \"#utility.yul\":7433:7510   */\ntag_176:\n    /* \"#utility.yul\":7470:7477   */\n  0x00\n    /* \"#utility.yul\":7499:7504   */\n  dup2\n    /* \"#utility.yul\":7488:7504   */\n  swap1\n  pop\n    /* \"#utility.yul\":7433:7510   */\n  swap2\n  swap1\n  pop\n  jump\t// out\n    /* \"#utility.yul\":7516:7749   */\ntag_101:\n    /* \"#utility.yul\":7555:7558   */\n  0x00\n    /* \"#utility.yul\":7578:7602   */\n  tag_247\n    /* \"#utility.yul\":7596:7601   */\n  dup3\n    /* \"#utility.yul\":7578:7602   */\n  tag_176\n  jump\t// in\ntag_247:\n    /* \"#utility.yul\":7569:7602   */\n  swap2\n  pop\n    /* \"#utility.yul\":7624:7690   */\n  0xffffffffffffffffffffffffffffffffffffffffffffffffffffffffffffffff\n    /* \"#utility.yul\":7617:7622   */\n  dup3\n    /* \"#utility.yul\":7614:7691   */\n  eq\n    /* \"#utility.yul\":7611:7714   */\n  iszero\n  tag_248\n  jumpi\n    /* \"#utility.yul\":7694:7712   */\n  tag_249\n  tag_175\n  jump\t// in\ntag_249:\n    /* \"#utility.yul\":7611:7714   */\ntag_248:\n    /* \"#utility.yul\":7741:7742   */\n  0x01\n    /* \"#utility.yul\":7734:7739   */\n  dup3\n    /* \"#utility.yul\":7730:7743   */\n  add\n    /* \"#utility.yul\":7723:7743   */\n  swap1\n  pop\n    /* \"#utility.yul\":7516:7749   */\n  swap2\n  swap1\n  pop\n  jump\t// out\n    /* \"#utility.yul\":7755:7935   */\ntag_177:\n    /* \"#utility.yul\":7803:7880   */\n  0x4e487b7100000000000000000000000000000000000000000000000000000000\n    /* \"#utility.yul\":7800:7801   */\n  0x00\n    /* \"#utility.yul\":7793:7881   */\n  mstore\n    /* \"#utility.yul\":7900:7904   */\n  0x22\n    /* \"#utility.yul\":7897:7898   */\n  0x04\n    /* \"#utility.yul\":7890:7905   */\n  mstore\n    /* \"#utility.yul\":7924:7928   */\n  0x24\n    /* \"#utility.yul\":7921:7922   */\n  0x00\n    /* \"#utility.yul\":7914:7929   */\n  revert\n    /* \"#utility.yul\":7941:8261   */\ntag_107:\n    /* \"#utility.yul\":7985:7991   */\n  0x00\n    /* \"#utility.yul\":8022:8023   */\n  0x02\n    /* \"#utility.yul\":8016:8020   */\n  dup3\n    /* \"#utility.yul\":8012:8024   */\n  div\n    /* \"#utility.yul\":8002:8024   */\n  swap1\n  pop\n    /* \"#utility.yul\":8069:8070   */\n  0x01\n    /* \"#utility.yul\":8063:8067   */\n  dup3\n    /* \"#utility.yul\":8059:8071   */\n  and\n    /* \"#utility.yul\":8090:8108   */\n  dup1\n    /* \"#utility.yul\":8080:8161   */\n  tag_252\n  jumpi\n    /* \"#utility.yul\":8146:8150   */\n  0x7f\n    /* \"#utility.yul\":8138:8144   */\n  dup3\n    /* \"#utility.yul\":8134:8151   */\n  and\n    /* \"#utility.yul\":8124:8151   */\n  swap2\n  pop\n    /* \"#utility.yul\":8080:8161   */\ntag_252:\n    /* \"#utility.yul\":8208:8210   */\n  0x20\n    /* \"#utility.yul\":8200:8206   */\n  dup3\n    /* \"#utility.yul\":8197:8211   */\n  lt\n    /* \"#utility.yul\":8177:8195   */\n  dup2\n    /* \"#utility.yul\":8174:8212   */\n  eq\n    /* \"#utility.yul\":8171:8255   */\n  iszero\n  tag_253\n  jumpi\n    /* \"#utility.yul\":8227:8245   */\n  tag_254\n  tag_177\n  jump\t// in\ntag_254:\n    /* \"#utility.yul\":8171:8255   */\ntag_253:\n    /* \"#utility.yul\":7992:8261   */\n  pop\n    /* \"#utility.yul\":7941:8261   */\n  swap2\n  swap1\n  pop\n  jump\t// out\n    /* \"OnDemo/contracts/AccountManagement.sol\":74:10504  contract AccountManagement {... */\ntag_14:\n  dataSize(sub_0)\n  dup1\n  dataOffset(sub_0)\n  0x00\n  codecopy\n  0x00\n  return\nstop\n\nsub_0: assembly {\n        /* \"OnDemo/contracts/AccountManagement.sol\":74:10504  contract AccountManagement {... */\n      mstore(0x40, 0x80)\n      callvalue\n      dup1\n      iszero\n      tag_1\n      jumpi\n      0x00\n      dup1\n      revert\n    tag_1:\n      pop\n      jumpi(tag_2, lt(calldatasize, 0x04))\n      shr(0xe0, calldataload(0x00))\n      dup1\n      0x65c93769\n      gt\n      tag_20\n      jumpi\n      dup1\n      0xc2b7d948\n      gt\n      tag_21\n      jumpi\n      dup1\n      0xc2b7d948\n      eq\n      tag_15\n      jumpi\n      dup1\n      0xd3a5059a\n      eq\n      tag_16\n      jumpi\n      dup1\n      0xdee94b4a\n      eq\n      tag_17\n      jumpi\n      dup1\n      0xe8621e59\n      eq\n      tag_18\n      jumpi\n      dup1\n      0xfa4d7aae\n      eq\n      tag_19\n      jumpi\n      jump(tag_2)\n    tag_21:\n      dup1\n      0x65c93769\n      eq\n      tag_11\n      jumpi\n      dup1\n      0x8da5cb5b\n      eq\n      tag_12\n      jumpi\n      dup1\n      0xa1aea04a\n      eq\n      tag_13\n      jumpi\n      dup1\n      0xb74866fb\n      eq\n      tag_14\n      jumpi\n      jump(tag_2)\n    tag_20:\n      dup1\n      0x297027d5\n      gt\n      tag_22\n      jumpi\n      dup1\n      0x297027d5\n      eq\n      tag_7\n      jumpi\n      dup1\n      0x49587281\n      eq\n      tag_8\n      jumpi\n      dup1\n      0x5fb6c6ed\n      eq\n      tag_9\n      jumpi\n      dup1\n      0x630a195b\n      eq\n      tag_10\n      jumpi\n      jump(tag_2)\n    tag_22:\n      dup1\n      0x01eb0857\n      eq\n      tag_3\n      jumpi\n      dup1\n      0x056909b7\n      eq\n      tag_4\n      jumpi\n      dup1\n      0x22faa41f\n      eq\n      tag_5\n      jumpi\n      dup1\n      0x247ae7a3\n      eq\n      tag_6\n      jumpi\n    tag_2:\n      0x00\n      dup1\n      revert\n        /* \"OnDemo/contracts/AccountManagement.sol\":7811:8198  function hasRightToCreateReferendum(address _address) external view returns (bool) {... */\n    tag_3:\n      tag_23\n      0x04\n      dup1\n      calldatasize\n      sub\n      dup2\n      add\n      swap1\n      tag_24\n      swap2\n      swap1\n      tag_25\n      jump\t// in\n    tag_24:\n      tag_26\n      jump\t// in\n    tag_23:\n      mload(0x40)\n      tag_27\n      swap2\n      swap1\n      tag_28\n      jump\t// in\n    tag_27:\n      mload(0x40)\n      dup1\n      swap2\n      sub\n      swap1\n      return\n        /* \"OnDemo/contracts/AccountManagement.sol\":7293:7417  function hasMemberRole(address _address) public view returns (bool) {... */\n    tag_4:\n      tag_29\n      0x04\n      dup1\n      calldatasize\n      sub\n      dup2\n      add\n      swap1\n      tag_30\n      swap2\n      swap1\n      tag_25\n      jump\t// in\n    tag_30:\n      tag_31\n      jump\t// in\n    tag_29:\n      mload(0x40)\n      tag_32\n      swap2\n      swap1\n      tag_28\n      jump\t// in\n    tag_32:\n      mload(0x40)\n      dup1\n      swap2\n      sub\n      swap1\n      return\n        /* \"OnDemo/contracts/AccountManagement.sol\":7701:7803  function getActiveMemberCount() public view returns (uint) {... */\n    tag_5:\n      tag_33\n      tag_34\n      jump\t// in\n    tag_33:\n      mload(0x40)\n      tag_35\n      swap2\n      swap1\n      tag_36\n      jump\t// in\n    tag_35:\n      mload(0x40)\n      dup1\n      swap2\n      sub\n      swap1\n      return\n        /* \"OnDemo/contracts/AccountManagement.sol\":8979:10499  function testAccountManagement() public{... */\n    tag_6:\n      tag_37\n      tag_38\n      jump\t// in\n    tag_37:\n      stop\n        /* \"OnDemo/contracts/AccountManagement.sol\":7011:7135  function hasLeaderRole(address _address) public view returns (bool) {... */\n    tag_7:\n      tag_39\n      0x04\n      dup1\n      calldatasize\n      sub\n      dup2\n      add\n      swap1\n      tag_40\n      swap2\n      swap1\n      tag_25\n      jump\t// in\n    tag_40:\n      tag_41\n      jump\t// in\n    tag_39:\n      mload(0x40)\n      tag_42\n      swap2\n      swap1\n      tag_28\n      jump\t// in\n    tag_42:\n      mload(0x40)\n      dup1\n      swap2\n      sub\n      swap1\n      return\n        /* \"OnDemo/contracts/AccountManagement.sol\":3249:3610  function makeAccountPassive(address _address) public userExists(_address){... */\n    tag_8:\n      tag_43\n      0x04\n      dup1\n      calldatasize\n      sub\n      dup2\n      add\n      swap1\n      tag_44\n      swap2\n      swap1\n      tag_25\n      jump\t// in\n    tag_44:\n      tag_45\n      jump\t// in\n    tag_43:\n      stop\n        /* \"OnDemo/contracts/AccountManagement.sol\":832:861  uint public activeMemberCount */\n    tag_9:\n      tag_46\n      tag_47\n      jump\t// in\n    tag_46:\n      mload(0x40)\n      tag_48\n      swap2\n      swap1\n      tag_36\n      jump\t// in\n    tag_48:\n      mload(0x40)\n      dup1\n      swap2\n      sub\n      swap1\n      return\n        /* \"OnDemo/contracts/AccountManagement.sol\":3924:4487  function assignRole(address _address, Role _role) public onlyLeader userExists(_address){... */\n    tag_10:\n      tag_49\n      0x04\n      dup1\n      calldatasize\n      sub\n      dup2\n      add\n      swap1\n      tag_50\n      swap2\n      swap1\n      tag_51\n      jump\t// in\n    tag_50:\n      tag_52\n      jump\t// in\n    tag_49:\n      stop\n        /* \"OnDemo/contracts/AccountManagement.sol\":8206:8581  function hasRightToVote(address _address) external view returns (bool) {... */\n    tag_11:\n      tag_53\n      0x04\n      dup1\n      calldatasize\n      sub\n      dup2\n      add\n      swap1\n      tag_54\n      swap2\n      swap1\n      tag_25\n      jump\t// in\n    tag_54:\n      tag_55\n      jump\t// in\n    tag_53:\n      mload(0x40)\n      tag_56\n      swap2\n      swap1\n      tag_28\n      jump\t// in\n    tag_56:\n      mload(0x40)\n      dup1\n      swap2\n      sub\n      swap1\n      return\n        /* \"OnDemo/contracts/AccountManagement.sol\":868:888  address public owner */\n    tag_12:\n      tag_57\n      tag_58\n      jump\t// in\n    tag_57:\n      mload(0x40)\n      tag_59\n      swap2\n      swap1\n      tag_60\n      jump\t// in\n    tag_59:\n      mload(0x40)\n      dup1\n      swap2\n      sub\n      swap1\n      return\n        /* \"OnDemo/contracts/AccountManagement.sol\":2729:3241  function makeAccountActive(address _address) public userExists(_address){... */\n    tag_13:\n      tag_61\n      0x04\n      dup1\n      calldatasize\n      sub\n      dup2\n      add\n      swap1\n      tag_62\n      swap2\n      swap1\n      tag_25\n      jump\t// in\n    tag_62:\n      tag_63\n      jump\t// in\n    tag_61:\n      stop\n        /* \"OnDemo/contracts/AccountManagement.sol\":4495:5072  function removeRole(address _address, Role _role) public onlyLeader userExists(_address){... */\n    tag_14:\n      tag_64\n      0x04\n      dup1\n      calldatasize\n      sub\n      dup2\n      add\n      swap1\n      tag_65\n      swap2\n      swap1\n      tag_51\n      jump\t// in\n    tag_65:\n      tag_66\n      jump\t// in\n    tag_64:\n      stop\n        /* \"OnDemo/contracts/AccountManagement.sol\":8589:8967  function hasRightToSupport(address _address) external view returns (bool) {... */\n    tag_15:\n      tag_67\n      0x04\n      dup1\n      calldatasize\n      sub\n      dup2\n      add\n      swap1\n      tag_68\n      swap2\n      swap1\n      tag_25\n      jump\t// in\n    tag_68:\n      tag_69\n      jump\t// in\n    tag_67:\n      mload(0x40)\n      tag_70\n      swap2\n      swap1\n      tag_28\n      jump\t// in\n    tag_70:\n      mload(0x40)\n      dup1\n      swap2\n      sub\n      swap1\n      return\n        /* \"OnDemo/contracts/AccountManagement.sol\":3618:3782  function burnAccount(address _address) public userExists(_address){  ... */\n    tag_16:\n      tag_71\n      0x04\n      dup1\n      calldatasize\n      sub\n      dup2\n      add\n      swap1\n      tag_72\n      swap2\n      swap1\n      tag_25\n      jump\t// in\n    tag_72:\n      tag_73\n      jump\t// in\n    tag_71:\n      stop\n        /* \"OnDemo/contracts/AccountManagement.sol\":2356:2721  function createAccount(address _address, string memory _firstName, string memory _secondName, string memory _mailAdress) public userNotExists(_address){... */\n    tag_17:\n      tag_74\n      0x04\n      dup1\n      calldatasize\n      sub\n      dup2\n      add\n      swap1\n      tag_75\n      swap2\n      swap1\n      tag_76\n      jump\t// in\n    tag_75:\n      tag_77\n      jump\t// in\n    tag_74:\n      stop\n        /* \"OnDemo/contracts/AccountManagement.sol\":7429:7551  function hasGuestRole(address _address) public view returns (bool) {... */\n    tag_18:\n      tag_78\n      0x04\n      dup1\n      calldatasize\n      sub\n      dup2\n      add\n      swap1\n      tag_79\n      swap2\n      swap1\n      tag_25\n      jump\t// in\n    tag_79:\n      tag_80\n      jump\t// in\n    tag_78:\n      mload(0x40)\n      tag_81\n      swap2\n      swap1\n      tag_28\n      jump\t// in\n    tag_81:\n      mload(0x40)\n      dup1\n      swap2\n      sub\n      swap1\n      return\n        /* \"OnDemo/contracts/AccountManagement.sol\":7143:7281  function hasCouncilMemberRole(address _address) public view returns (bool) {... */\n    tag_19:\n      tag_82\n      0x04\n      dup1\n      calldatasize\n      sub\n      dup2\n      add\n      swap1\n      tag_83\n      swap2\n      swap1\n      tag_25\n      jump\t// in\n    tag_83:\n      tag_84\n      jump\t// in\n    tag_82:\n      mload(0x40)\n      tag_85\n      swap2\n      swap1\n      tag_28\n      jump\t// in\n    tag_85:\n      mload(0x40)\n      dup1\n      swap2\n      sub\n      swap1\n      return\n        /* \"OnDemo/contracts/AccountManagement.sol\":7811:8198  function hasRightToCreateReferendum(address _address) external view returns (bool) {... */\n    tag_26:\n        /* \"OnDemo/contracts/AccountManagement.sol\":7888:7892  bool */\n      0x00\n        /* \"OnDemo/contracts/AccountManagement.sol\":7905:7921  User memory user */\n      dup1\n        /* \"OnDemo/contracts/AccountManagement.sol\":7924:7929  users */\n      0x02\n        /* \"OnDemo/contracts/AccountManagement.sol\":7924:7939  users[_address] */\n      0x00\n        /* \"OnDemo/contracts/AccountManagement.sol\":7930:7938  _address */\n      dup5\n        /* \"OnDemo/contracts/AccountManagement.sol\":7924:7939  users[_address] */\n      0xffffffffffffffffffffffffffffffffffffffff\n      and\n      0xffffffffffffffffffffffffffffffffffffffff\n      and\n      dup2\n      mstore\n      0x20\n      add\n      swap1\n      dup2\n      mstore\n      0x20\n      add\n      0x00\n      keccak256\n        /* \"OnDemo/contracts/AccountManagement.sol\":7905:7939  User memory user = users[_address] */\n      mload(0x40)\n      dup1\n      0xc0\n      add\n      0x40\n      mstore\n      swap1\n      dup2\n      0x00\n      dup3\n      add\n      0x00\n      swap1\n      sload\n      swap1\n      0x0100\n      exp\n      swap1\n      div\n      0xffffffffffffffffffffffffffffffffffffffff\n      and\n      0xffffffffffffffffffffffffffffffffffffffff\n      and\n      0xffffffffffffffffffffffffffffffffffffffff\n      and\n      dup2\n      mstore\n      0x20\n      add\n      0x01\n      dup3\n      add\n      dup1\n      sload\n      tag_87\n      swap1\n      tag_88\n      jump\t// in\n    tag_87:\n      dup1\n      0x1f\n      add\n      0x20\n      dup1\n      swap2\n      div\n      mul\n      0x20\n      add\n      mload(0x40)\n      swap1\n      dup2\n      add\n      0x40\n      mstore\n      dup1\n      swap3\n      swap2\n      swap1\n      dup2\n      dup2\n      mstore\n      0x20\n      add\n      dup3\n      dup1\n      sload\n      tag_89\n      swap1\n      tag_88\n      jump\t// in\n    tag_89:\n      dup1\n      iszero\n      tag_90\n      jumpi\n      dup1\n      0x1f\n      lt\n      tag_91\n      jumpi\n      0x0100\n      dup1\n      dup4\n      sload\n      div\n      mul\n      dup4\n      mstore\n      swap2\n      0x20\n      add\n      swap2\n      jump(tag_90)\n    tag_91:\n      dup3\n      add\n      swap2\n      swap1\n      0x00\n      mstore\n      keccak256(0x00, 0x20)\n      swap1\n    tag_92:\n      dup2\n      sload\n      dup2\n      mstore\n      swap1\n      0x01\n      add\n      swap1\n      0x20\n      add\n      dup1\n      dup4\n      gt\n      tag_92\n      jumpi\n      dup3\n      swap1\n      sub\n      0x1f\n      and\n      dup3\n      add\n      swap2\n    tag_90:\n      pop\n      pop\n      pop\n      pop\n      pop\n      dup2\n      mstore\n      0x20\n      add\n      0x02\n      dup3\n      add\n      dup1\n      sload\n      tag_93\n      swap1\n      tag_88\n      jump\t// in\n    tag_93:\n      dup1\n      0x1f\n      add\n      0x20\n      dup1\n      swap2\n      div\n      mul\n      0x20\n      add\n      mload(0x40)\n      swap1\n      dup2\n      add\n      0x40\n      mstore\n      dup1\n      swap3\n      swap2\n      swap1\n      dup2\n      dup2\n      mstore\n      0x20\n      add\n      dup3\n      dup1\n      sload\n      tag_94\n      swap1\n      tag_88\n      jump\t// in\n    tag_94:\n      dup1\n      iszero\n      tag_95\n      jumpi\n      dup1\n      0x1f\n      lt\n      tag_96\n      jumpi\n      0x0100\n      dup1\n      dup4\n      sload\n      div\n      mul\n      dup4\n      mstore\n      swap2\n      0x20\n      add\n      swap2\n      jump(tag_95)\n    tag_96:\n      dup3\n      add\n      swap2\n      swap1\n      0x00\n      mstore\n      keccak256(0x00, 0x20)\n      swap1\n    tag_97:\n      dup2\n      sload\n      dup2\n      mstore\n      swap1\n      0x01\n      add\n      swap1\n      0x20\n      add\n      dup1\n      dup4\n      gt\n      tag_97\n      jumpi\n      dup3\n      swap1\n      sub\n      0x1f\n      and\n      dup3\n      add\n      swap2\n    tag_95:\n      pop\n      pop\n      pop\n      pop\n      pop\n      dup2\n      mstore\n      0x20\n      add\n      0x03\n      dup3\n      add\n      dup1\n      sload\n      tag_98\n      swap1\n      tag_88\n      jump\t// in\n    tag_98:\n      dup1\n      0x1f\n      add\n      0x20\n      dup1\n      swap2\n      div\n      mul\n      0x20\n      add\n      mload(0x40)\n      swap1\n      dup2\n      add\n      0x40\n      mstore\n      dup1\n      swap3\n      swap2\n      swap1\n      dup2\n      dup2\n      mstore\n      0x20\n      add\n      dup3\n      dup1\n      sload\n      tag_99\n      swap1\n      tag_88\n      jump\t// in\n    tag_99:\n      dup1\n      iszero\n      tag_100\n      jumpi\n      dup1\n      0x1f\n      lt\n      tag_101\n      jumpi\n      0x0100\n      dup1\n      dup4\n      sload\n      div\n      mul\n      dup4\n      mstore\n      swap2\n      0x20\n      add\n      swap2\n      jump(tag_100)\n    tag_101:\n      dup3\n      add\n      swap2\n      swap1\n      0x00\n      mstore\n      keccak256(0x00, 0x20)\n      swap1\n    tag_102:\n      dup2\n      sload\n      dup2\n      mstore\n      swap1\n      0x01\n      add\n      swap1\n      0x20\n      add\n      dup1\n      dup4\n      gt\n      tag_102\n      jumpi\n      dup3\n      swap1\n      sub\n      0x1f\n      and\n      dup3\n      add\n      swap2\n    tag_100:\n      pop\n      pop\n      pop\n      pop\n      pop\n      dup2\n      mstore\n      0x20\n      add\n      0x04\n      dup3\n      add\n      0x00\n      swap1\n      sload\n      swap1\n      0x0100\n      exp\n      swap1\n      div\n      0xff\n      and\n      iszero\n      iszero\n      iszero\n      iszero\n      dup2\n      mstore\n      0x20\n      add\n      0x05\n      dup3\n      add\n      mload(0x40)\n      dup1\n      0x80\n      add\n      0x40\n      mstore\n      swap1\n      dup2\n      0x00\n      dup3\n      add\n      0x00\n      swap1\n      sload\n      swap1\n      0x0100\n      exp\n      swap1\n      div\n      0xff\n      and\n      iszero\n      iszero\n      iszero\n      iszero\n      dup2\n      mstore\n      0x20\n      add\n      0x00\n      dup3\n      add\n      0x01\n      swap1\n      sload\n      swap1\n      0x0100\n      exp\n      swap1\n      div\n      0xff\n      and\n      iszero\n      iszero\n      iszero\n      iszero\n      dup2\n      mstore\n      0x20\n      add\n      0x00\n      dup3\n      add\n      0x02\n      swap1\n      sload\n      swap1\n      0x0100\n      exp\n      swap1\n      div\n      0xff\n      and\n      iszero\n      iszero\n      iszero\n      iszero\n      dup2\n      mstore\n      0x20\n      add\n      0x00\n      dup3\n      add\n      0x03\n      swap1\n      sload\n      swap1\n      0x0100\n      exp\n      swap1\n      div\n      0xff\n      and\n      iszero\n      iszero\n      iszero\n      iszero\n      dup2\n      mstore\n      pop\n      pop\n      dup2\n      mstore\n      pop\n      pop\n      swap1\n      pop\n        /* \"OnDemo/contracts/AccountManagement.sol\":7981:7982  0 */\n      0x00\n        /* \"OnDemo/contracts/AccountManagement.sol\":7953:7983  user.userAddress != address(0) */\n      0xffffffffffffffffffffffffffffffffffffffff\n      and\n        /* \"OnDemo/contracts/AccountManagement.sol\":7953:7957  user */\n      dup2\n        /* \"OnDemo/contracts/AccountManagement.sol\":7953:7969  user.userAddress */\n      0x00\n      add\n      mload\n        /* \"OnDemo/contracts/AccountManagement.sol\":7953:7983  user.userAddress != address(0) */\n      0xffffffffffffffffffffffffffffffffffffffff\n      and\n      eq\n        /* \"OnDemo/contracts/AccountManagement.sol\":7950:8167  if(user.userAddress != address(0))... */\n      tag_103\n      jumpi\n        /* \"OnDemo/contracts/AccountManagement.sol\":8012:8016  user */\n      dup1\n        /* \"OnDemo/contracts/AccountManagement.sol\":8012:8025  user.isActive */\n      0x80\n      add\n      mload\n        /* \"OnDemo/contracts/AccountManagement.sol\":8012:8109  user.isActive && (user.roleMap.isLeader || user.roleMap.isCouncilMember || user.roleMap.isMember) */\n      dup1\n      iszero\n      tag_104\n      jumpi\n      pop\n        /* \"OnDemo/contracts/AccountManagement.sol\":8030:8034  user */\n      dup1\n        /* \"OnDemo/contracts/AccountManagement.sol\":8030:8042  user.roleMap */\n      0xa0\n      add\n      mload\n        /* \"OnDemo/contracts/AccountManagement.sol\":8030:8051  user.roleMap.isLeader */\n      0x00\n      add\n      mload\n        /* \"OnDemo/contracts/AccountManagement.sol\":8030:8083  user.roleMap.isLeader || user.roleMap.isCouncilMember */\n      dup1\n      tag_105\n      jumpi\n      pop\n        /* \"OnDemo/contracts/AccountManagement.sol\":8055:8059  user */\n      dup1\n        /* \"OnDemo/contracts/AccountManagement.sol\":8055:8067  user.roleMap */\n      0xa0\n      add\n      mload\n        /* \"OnDemo/contracts/AccountManagement.sol\":8055:8083  user.roleMap.isCouncilMember */\n      0x20\n      add\n      mload\n        /* \"OnDemo/contracts/AccountManagement.sol\":8030:8083  user.roleMap.isLeader || user.roleMap.isCouncilMember */\n    tag_105:\n        /* \"OnDemo/contracts/AccountManagement.sol\":8030:8108  user.roleMap.isLeader || user.roleMap.isCouncilMember || user.roleMap.isMember */\n      dup1\n      tag_106\n      jumpi\n      pop\n        /* \"OnDemo/contracts/AccountManagement.sol\":8087:8091  user */\n      dup1\n        /* \"OnDemo/contracts/AccountManagement.sol\":8087:8099  user.roleMap */\n      0xa0\n      add\n      mload\n        /* \"OnDemo/contracts/AccountManagement.sol\":8087:8108  user.roleMap.isMember */\n      0x40\n      add\n      mload\n        /* \"OnDemo/contracts/AccountManagement.sol\":8030:8108  user.roleMap.isLeader || user.roleMap.isCouncilMember || user.roleMap.isMember */\n    tag_106:\n        /* \"OnDemo/contracts/AccountManagement.sol\":8012:8109  user.isActive && (user.roleMap.isLeader || user.roleMap.isCouncilMember || user.roleMap.isMember) */\n    tag_104:\n        /* \"OnDemo/contracts/AccountManagement.sol\":8009:8156  if(user.isActive && (user.roleMap.isLeader || user.roleMap.isCouncilMember || user.roleMap.isMember)){... */\n      iszero\n      tag_107\n      jumpi\n        /* \"OnDemo/contracts/AccountManagement.sol\":8136:8140  true */\n      0x01\n        /* \"OnDemo/contracts/AccountManagement.sol\":8129:8140  return true */\n      swap2\n      pop\n      pop\n      jump(tag_86)\n        /* \"OnDemo/contracts/AccountManagement.sol\":8009:8156  if(user.isActive && (user.roleMap.isLeader || user.roleMap.isCouncilMember || user.roleMap.isMember)){... */\n    tag_107:\n        /* \"OnDemo/contracts/AccountManagement.sol\":7950:8167  if(user.userAddress != address(0))... */\n    tag_103:\n        /* \"OnDemo/contracts/AccountManagement.sol\":8185:8190  false */\n      0x00\n        /* \"OnDemo/contracts/AccountManagement.sol\":8177:8190  return  false */\n      swap2\n      pop\n      pop\n        /* \"OnDemo/contracts/AccountManagement.sol\":7811:8198  function hasRightToCreateReferendum(address _address) external view returns (bool) {... */\n    tag_86:\n      swap2\n      swap1\n      pop\n      jump\t// out\n        /* \"OnDemo/contracts/AccountManagement.sol\":7293:7417  function hasMemberRole(address _address) public view returns (bool) {... */\n    tag_31:\n        /* \"OnDemo/contracts/AccountManagement.sol\":7355:7359  bool */\n      0x00\n        /* \"OnDemo/contracts/AccountManagement.sol\":7379:7409  hasRole(_address, Role.MEMBER) */\n      tag_109\n        /* \"OnDemo/contracts/AccountManagement.sol\":7387:7395  _address */\n      dup3\n        /* \"OnDemo/contracts/AccountManagement.sol\":7397:7408  Role.MEMBER */\n      0x02\n        /* \"OnDemo/contracts/AccountManagement.sol\":7379:7386  hasRole */\n      tag_110\n        /* \"OnDemo/contracts/AccountManagement.sol\":7379:7409  hasRole(_address, Role.MEMBER) */\n      jump\t// in\n    tag_109:\n        /* \"OnDemo/contracts/AccountManagement.sol\":7372:7409  return hasRole(_address, Role.MEMBER) */\n      swap1\n      pop\n        /* \"OnDemo/contracts/AccountManagement.sol\":7293:7417  function hasMemberRole(address _address) public view returns (bool) {... */\n      swap2\n      swap1\n      pop\n      jump\t// out\n        /* \"OnDemo/contracts/AccountManagement.sol\":7701:7803  function getActiveMemberCount() public view returns (uint) {... */\n    tag_34:\n        /* \"OnDemo/contracts/AccountManagement.sol\":7754:7758  uint */\n      0x00\n        /* \"OnDemo/contracts/AccountManagement.sol\":7778:7795  activeMemberCount */\n      dup1\n      sload\n        /* \"OnDemo/contracts/AccountManagement.sol\":7771:7795  return activeMemberCount */\n      swap1\n      pop\n        /* \"OnDemo/contracts/AccountManagement.sol\":7701:7803  function getActiveMemberCount() public view returns (uint) {... */\n      swap1\n      jump\t// out\n        /* \"OnDemo/contracts/AccountManagement.sol\":8979:10499  function testAccountManagement() public{... */\n    tag_38:\n        /* \"OnDemo/contracts/AccountManagement.sol\":9031:9062  address[10] memory testAccounts */\n      0x00\n        /* \"OnDemo/contracts/AccountManagement.sol\":9031:9637  address[10] memory testAccounts = [ ... */\n      mload(0x40)\n      dup1\n      0x0140\n      add\n      0x40\n      mstore\n      dup1\n        /* \"OnDemo/contracts/AccountManagement.sol\":9081:9123  0xAb8483F64d9C6d1EcF9b849Ae677dD3315835cb2 */\n      0xab8483f64d9c6d1ecf9b849ae677dd3315835cb2\n        /* \"OnDemo/contracts/AccountManagement.sol\":9031:9637  address[10] memory testAccounts = [ ... */\n      0xffffffffffffffffffffffffffffffffffffffff\n      and\n      0xffffffffffffffffffffffffffffffffffffffff\n      and\n      dup2\n      mstore\n      0x20\n      add\n        /* \"OnDemo/contracts/AccountManagement.sol\":9138:9180  0x4B20993Bc481177ec7E8f571ceCaE8A9e22C02db */\n      0x4b20993bc481177ec7e8f571cecae8a9e22c02db\n        /* \"OnDemo/contracts/AccountManagement.sol\":9031:9637  address[10] memory testAccounts = [ ... */\n      0xffffffffffffffffffffffffffffffffffffffff\n      and\n      0xffffffffffffffffffffffffffffffffffffffff\n      and\n      dup2\n      mstore\n      0x20\n      add\n        /* \"OnDemo/contracts/AccountManagement.sol\":9195:9237  0x78731D3Ca6b7E34aC0F824c42a7cC18A495cabaB */\n      0x78731d3ca6b7e34ac0f824c42a7cc18a495cabab\n        /* \"OnDemo/contracts/AccountManagement.sol\":9031:9637  address[10] memory testAccounts = [ ... */\n      0xffffffffffffffffffffffffffffffffffffffff\n      and\n      0xffffffffffffffffffffffffffffffffffffffff\n      and\n      dup2\n      mstore\n      0x20\n      add\n        /* \"OnDemo/contracts/AccountManagement.sol\":9252:9294  0x617F2E2fD72FD9D5503197092aC168c91465E7f2 */\n      0x617f2e2fd72fd9d5503197092ac168c91465e7f2\n        /* \"OnDemo/contracts/AccountManagement.sol\":9031:9637  address[10] memory testAccounts = [ ... */\n      0xffffffffffffffffffffffffffffffffffffffff\n      and\n      0xffffffffffffffffffffffffffffffffffffffff\n      and\n      dup2\n      mstore\n      0x20\n      add\n        /* \"OnDemo/contracts/AccountManagement.sol\":9309:9351  0x17F6AD8Ef982297579C203069C1DbfFE4348c372 */\n      0x17f6ad8ef982297579c203069c1dbffe4348c372\n        /* \"OnDemo/contracts/AccountManagement.sol\":9031:9637  address[10] memory testAccounts = [ ... */\n      0xffffffffffffffffffffffffffffffffffffffff\n      and\n      0xffffffffffffffffffffffffffffffffffffffff\n      and\n      dup2\n      mstore\n      0x20\n      add\n        /* \"OnDemo/contracts/AccountManagement.sol\":9366:9408  0x5c6B0f7Bf3E7ce046039Bd8FABdfD3f9F5021678 */\n      0x5c6b0f7bf3e7ce046039bd8fabdfd3f9f5021678\n        /* \"OnDemo/contracts/AccountManagement.sol\":9031:9637  address[10] memory testAccounts = [ ... */\n      0xffffffffffffffffffffffffffffffffffffffff\n      and\n      0xffffffffffffffffffffffffffffffffffffffff\n      and\n      dup2\n      mstore\n      0x20\n      add\n        /* \"OnDemo/contracts/AccountManagement.sol\":9423:9465  0x03C6FcED478cBbC9a4FAB34eF9f40767739D1Ff7 */\n      0x03c6fced478cbbc9a4fab34ef9f40767739d1ff7\n        /* \"OnDemo/contracts/AccountManagement.sol\":9031:9637  address[10] memory testAccounts = [ ... */\n      0xffffffffffffffffffffffffffffffffffffffff\n      and\n      0xffffffffffffffffffffffffffffffffffffffff\n      and\n      dup2\n      mstore\n      0x20\n      add\n        /* \"OnDemo/contracts/AccountManagement.sol\":9480:9522  0x1aE0EA34a72D944a8C7603FfB3eC30a6669E454C */\n      0x1ae0ea34a72d944a8c7603ffb3ec30a6669e454c\n        /* \"OnDemo/contracts/AccountManagement.sol\":9031:9637  address[10] memory testAccounts = [ ... */\n      0xffffffffffffffffffffffffffffffffffffffff\n      and\n      0xffffffffffffffffffffffffffffffffffffffff\n      and\n      dup2\n      mstore\n      0x20\n      add\n        /* \"OnDemo/contracts/AccountManagement.sol\":9537:9579  0xCA35b7d915458EF540aDe6068dFe2F44E8fa733c */\n      0xca35b7d915458ef540ade6068dfe2f44e8fa733c\n        /* \"OnDemo/contracts/AccountManagement.sol\":9031:9637  address[10] memory testAccounts = [ ... */\n      0xffffffffffffffffffffffffffffffffffffffff\n      and\n      0xffffffffffffffffffffffffffffffffffffffff\n      and\n      dup2\n      mstore\n      0x20\n      add\n        /* \"OnDemo/contracts/AccountManagement.sol\":9594:9636  0x14723A09ACff6D2A60DcdF7aA4AFf308FDDC160C */\n      0x14723a09acff6d2a60dcdf7aa4aff308fddc160c\n        /* \"OnDemo/contracts/AccountManagement.sol\":9031:9637  address[10] memory testAccounts = [ ... */\n      0xffffffffffffffffffffffffffffffffffffffff\n      and\n      0xffffffffffffffffffffffffffffffffffffffff\n      and\n      dup2\n      mstore\n      pop\n      swap1\n      pop\n        /* \"OnDemo/contracts/AccountManagement.sol\":9650:9678  string[10] memory firstNames */\n      0x00\n        /* \"OnDemo/contracts/AccountManagement.sol\":9650:9769  string[10] memory firstNames = [\"Rick\", \"Vanessa\", \"Alex\", \"Vici\", \"Lu\", \"John\", \"Sarah\", \"Samantha\", \"Peter\", \"David\"] */\n      mload(0x40)\n      dup1\n      0x0140\n      add\n      0x40\n      mstore\n      dup1\n      mload(0x40)\n      dup1\n      0x40\n      add\n      0x40\n      mstore\n      dup1\n      0x04\n      dup2\n      mstore\n      0x20\n      add\n      0x5269636b00000000000000000000000000000000000000000000000000000000\n      dup2\n      mstore\n      pop\n      dup2\n      mstore\n      0x20\n      add\n      mload(0x40)\n      dup1\n      0x40\n      add\n      0x40\n      mstore\n      dup1\n      0x07\n      dup2\n      mstore\n      0x20\n      add\n      0x56616e6573736100000000000000000000000000000000000000000000000000\n      dup2\n      mstore\n      pop\n      dup2\n      mstore\n      0x20\n      add\n      mload(0x40)\n      dup1\n      0x40\n      add\n      0x40\n      mstore\n      dup1\n      0x04\n      dup2\n      mstore\n      0x20\n      add\n      0x416c657800000000000000000000000000000000000000000000000000000000\n      dup2\n      mstore\n      pop\n      dup2\n      mstore\n      0x20\n      add\n      mload(0x40)\n      dup1\n      0x40\n      add\n      0x40\n      mstore\n      dup1\n      0x04\n      dup2\n      mstore\n      0x20\n      add\n      0x5669636900000000000000000000000000000000000000000000000000000000\n      dup2\n      mstore\n      pop\n      dup2\n      mstore\n      0x20\n      add\n      mload(0x40)\n      dup1\n      0x40\n      add\n      0x40\n      mstore\n      dup1\n      0x02\n      dup2\n      mstore\n      0x20\n      add\n      0x4c75000000000000000000000000000000000000000000000000000000000000\n      dup2\n      mstore\n      pop\n      dup2\n      mstore\n      0x20\n      add\n      mload(0x40)\n      dup1\n      0x40\n      add\n      0x40\n      mstore\n      dup1\n      0x04\n      dup2\n      mstore\n      0x20\n      add\n      0x4a6f686e00000000000000000000000000000000000000000000000000000000\n      dup2\n      mstore\n      pop\n      dup2\n      mstore\n      0x20\n      add\n      mload(0x40)\n      dup1\n      0x40\n      add\n      0x40\n      mstore\n      dup1\n      0x05\n      dup2\n      mstore\n      0x20\n      add\n      0x5361726168000000000000000000000000000000000000000000000000000000\n      dup2\n      mstore\n      pop\n      dup2\n      mstore\n      0x20\n      add\n      mload(0x40)\n      dup1\n      0x40\n      add\n      0x40\n      mstore\n      dup1\n      0x08\n      dup2\n      mstore\n      0x20\n      add\n      0x53616d616e746861000000000000000000000000000000000000000000000000\n      dup2\n      mstore\n      pop\n      dup2\n      mstore\n      0x20\n      add\n      mload(0x40)\n      dup1\n      0x40\n      add\n      0x40\n      mstore\n      dup1\n      0x05\n      dup2\n      mstore\n      0x20\n      add\n      0x5065746572000000000000000000000000000000000000000000000000000000\n      dup2\n      mstore\n      pop\n      dup2\n      mstore\n      0x20\n      add\n      mload(0x40)\n      dup1\n      0x40\n      add\n      0x40\n      mstore\n      dup1\n      0x05\n      dup2\n      mstore\n      0x20\n      add\n      0x4461766964000000000000000000000000000000000000000000000000000000\n      dup2\n      mstore\n      pop\n      dup2\n      mstore\n      pop\n      swap1\n      pop\n        /* \"OnDemo/contracts/AccountManagement.sol\":9780:9807  string[10] memory lastNames */\n      0x00\n        /* \"OnDemo/contracts/AccountManagement.sol\":9780:9896  string[10] memory lastNames = [\"Patel\",\"Kim\",\"Brown\",\"Davis\",\"Martinez\",\"Wilson\",\"Garcia\",\"Jones\",\"Jackson\",\"Smith\"] */\n      mload(0x40)\n      dup1\n      0x0140\n      add\n      0x40\n      mstore\n      dup1\n      mload(0x40)\n      dup1\n      0x40\n      add\n      0x40\n      mstore\n      dup1\n      0x05\n      dup2\n      mstore\n      0x20\n      add\n      0x506174656c000000000000000000000000000000000000000000000000000000\n      dup2\n      mstore\n      pop\n      dup2\n      mstore\n      0x20\n      add\n      mload(0x40)\n      dup1\n      0x40\n      add\n      0x40\n      mstore\n      dup1\n      0x03\n      dup2\n      mstore\n      0x20\n      add\n      0x4b696d0000000000000000000000000000000000000000000000000000000000\n      dup2\n      mstore\n      pop\n      dup2\n      mstore\n      0x20\n      add\n      mload(0x40)\n      dup1\n      0x40\n      add\n      0x40\n      mstore\n      dup1\n      0x05\n      dup2\n      mstore\n      0x20\n      add\n      0x42726f776e000000000000000000000000000000000000000000000000000000\n      dup2\n      mstore\n      pop\n      dup2\n      mstore\n      0x20\n      add\n      mload(0x40)\n      dup1\n      0x40\n      add\n      0x40\n      mstore\n      dup1\n      0x05\n      dup2\n      mstore\n      0x20\n      add\n      0x4461766973000000000000000000000000000000000000000000000000000000\n      dup2\n      mstore\n      pop\n      dup2\n      mstore\n      0x20\n      add\n      mload(0x40)\n      dup1\n      0x40\n      add\n      0x40\n      mstore\n      dup1\n      0x08\n      dup2\n      mstore\n      0x20\n      add\n      0x4d617274696e657a000000000000000000000000000000000000000000000000\n      dup2\n      mstore\n      pop\n      dup2\n      mstore\n      0x20\n      add\n      mload(0x40)\n      dup1\n      0x40\n      add\n      0x40\n      mstore\n      dup1\n      0x06\n      dup2\n      mstore\n      0x20\n      add\n      0x57696c736f6e0000000000000000000000000000000000000000000000000000\n      dup2\n      mstore\n      pop\n      dup2\n      mstore\n      0x20\n      add\n      mload(0x40)\n      dup1\n      0x40\n      add\n      0x40\n      mstore\n      dup1\n      0x06\n      dup2\n      mstore\n      0x20\n      add\n      0x4761726369610000000000000000000000000000000000000000000000000000\n      dup2\n      mstore\n      pop\n      dup2\n      mstore\n      0x20\n      add\n      mload(0x40)\n      dup1\n      0x40\n      add\n      0x40\n      mstore\n      dup1\n      0x05\n      dup2\n      mstore\n      0x20\n      add\n      0x4a6f6e6573000000000000000000000000000000000000000000000000000000\n      dup2\n      mstore\n      pop\n      dup2\n      mstore\n      0x20\n      add\n      mload(0x40)\n      dup1\n      0x40\n      add\n      0x40\n      mstore\n      dup1\n      0x07\n      dup2\n      mstore\n      0x20\n      add\n      0x4a61636b736f6e00000000000000000000000000000000000000000000000000\n      dup2\n      mstore\n      pop\n      dup2\n      mstore\n      0x20\n      add\n      mload(0x40)\n      dup1\n      0x40\n      add\n      0x40\n      mstore\n      dup1\n      0x05\n      dup2\n      mstore\n      0x20\n      add\n      0x536d697468000000000000000000000000000000000000000000000000000000\n      dup2\n      mstore\n      pop\n      dup2\n      mstore\n      pop\n      swap1\n      pop\n        /* \"OnDemo/contracts/AccountManagement.sol\":9907:9937  string[10] memory mailAdresses */\n      0x00\n        /* \"OnDemo/contracts/AccountManagement.sol\":9907:10166  string[10] memory mailAdresses = [ \"Rick.Patel@por.com\",\"Vanessa.Kim@por.com\", \"Alex.Brown@por.com\",\"Vici.Davis@por.com\",\"Lu.Martinez@por.com\",\"John.Wilson@por.com\",\"Sarah.Garcia@por.com\",\"Samantha.Jones@por.com\",\"Peter.Jackson@por.com\",\"David.Smith@por.com\"] */\n      mload(0x40)\n      dup1\n      0x0140\n      add\n      0x40\n      mstore\n      dup1\n      mload(0x40)\n      dup1\n      0x40\n      add\n      0x40\n      mstore\n      dup1\n      0x12\n      dup2\n      mstore\n      0x20\n      add\n      0x5269636b2e506174656c40706f722e636f6d0000000000000000000000000000\n      dup2\n      mstore\n      pop\n      dup2\n      mstore\n      0x20\n      add\n      mload(0x40)\n      dup1\n      0x40\n      add\n      0x40\n      mstore\n      dup1\n      0x13\n      dup2\n      mstore\n      0x20\n      add\n      0x56616e657373612e4b696d40706f722e636f6d00000000000000000000000000\n      dup2\n      mstore\n      pop\n      dup2\n      mstore\n      0x20\n      add\n      mload(0x40)\n      dup1\n      0x40\n      add\n      0x40\n      mstore\n      dup1\n      0x12\n      dup2\n      mstore\n      0x20\n      add\n      0x416c65782e42726f776e40706f722e636f6d0000000000000000000000000000\n      dup2\n      mstore\n      pop\n      dup2\n      mstore\n      0x20\n      add\n      mload(0x40)\n      dup1\n      0x40\n      add\n      0x40\n      mstore\n      dup1\n      0x12\n      dup2\n      mstore\n      0x20\n      add\n      0x566963692e446176697340706f722e636f6d0000000000000000000000000000\n      dup2\n      mstore\n      pop\n      dup2\n      mstore\n      0x20\n      add\n      mload(0x40)\n      dup1\n      0x40\n      add\n      0x40\n      mstore\n      dup1\n      0x13\n      dup2\n      mstore\n      0x20\n      add\n      0x4c752e4d617274696e657a40706f722e636f6d00000000000000000000000000\n      dup2\n      mstore\n      pop\n      dup2\n      mstore\n      0x20\n      add\n      mload(0x40)\n      dup1\n      0x40\n      add\n      0x40\n      mstore\n      dup1\n      0x13\n      dup2\n      mstore\n      0x20\n      add\n      0x4a6f686e2e57696c736f6e40706f722e636f6d00000000000000000000000000\n      dup2\n      mstore\n      pop\n      dup2\n      mstore\n      0x20\n      add\n      mload(0x40)\n      dup1\n      0x40\n      add\n      0x40\n      mstore\n      dup1\n      0x14\n      dup2\n      mstore\n      0x20\n      add\n      0x53617261682e47617263696140706f722e636f6d000000000000000000000000\n      dup2\n      mstore\n      pop\n      dup2\n      mstore\n      0x20\n      add\n      mload(0x40)\n      dup1\n      0x40\n      add\n      0x40\n      mstore\n      dup1\n      0x16\n      dup2\n      mstore\n      0x20\n      add\n      0x53616d616e7468612e4a6f6e657340706f722e636f6d00000000000000000000\n      dup2\n      mstore\n      pop\n      dup2\n      mstore\n      0x20\n      add\n      mload(0x40)\n      dup1\n      0x40\n      add\n      0x40\n      mstore\n      dup1\n      0x15\n      dup2\n      mstore\n      0x20\n      add\n      0x50657465722e4a61636b736f6e40706f722e636f6d0000000000000000000000\n      dup2\n      mstore\n      pop\n      dup2\n      mstore\n      0x20\n      add\n      mload(0x40)\n      dup1\n      0x40\n      add\n      0x40\n      mstore\n      dup1\n      0x13\n      dup2\n      mstore\n      0x20\n      add\n      0x44617669642e536d69746840706f722e636f6d00000000000000000000000000\n      dup2\n      mstore\n      pop\n      dup2\n      mstore\n      pop\n      swap1\n      pop\n        /* \"OnDemo/contracts/AccountManagement.sol\":10182:10188  uint i */\n      0x00\n        /* \"OnDemo/contracts/AccountManagement.sol\":10178:10492  for(uint i = 0; i < testAccounts.length; i++)... */\n    tag_113:\n        /* \"OnDemo/contracts/AccountManagement.sol\":10198:10217  testAccounts.length */\n      0x0a\n        /* \"OnDemo/contracts/AccountManagement.sol\":10194:10195  i */\n      dup2\n        /* \"OnDemo/contracts/AccountManagement.sol\":10194:10217  i < testAccounts.length */\n      lt\n        /* \"OnDemo/contracts/AccountManagement.sol\":10178:10492  for(uint i = 0; i < testAccounts.length; i++)... */\n      iszero\n      tag_114\n      jumpi\n        /* \"OnDemo/contracts/AccountManagement.sol\":10248:10259  address acc */\n      0x00\n        /* \"OnDemo/contracts/AccountManagement.sol\":10262:10274  testAccounts */\n      dup6\n        /* \"OnDemo/contracts/AccountManagement.sol\":10275:10276  i */\n      dup3\n        /* \"OnDemo/contracts/AccountManagement.sol\":10262:10277  testAccounts[i] */\n      0x0a\n      dup2\n      lt\n      tag_116\n      jumpi\n      tag_117\n      tag_118\n      jump\t// in\n    tag_117:\n    tag_116:\n      0x20\n      mul\n      add\n      mload\n        /* \"OnDemo/contracts/AccountManagement.sol\":10248:10277  address acc = testAccounts[i] */\n      swap1\n      pop\n        /* \"OnDemo/contracts/AccountManagement.sol\":10292:10356  createAccount(acc, firstNames[i], lastNames[i], mailAdresses[i]) */\n      tag_119\n        /* \"OnDemo/contracts/AccountManagement.sol\":10306:10309  acc */\n      dup2\n        /* \"OnDemo/contracts/AccountManagement.sol\":10311:10321  firstNames */\n      dup7\n        /* \"OnDemo/contracts/AccountManagement.sol\":10322:10323  i */\n      dup5\n        /* \"OnDemo/contracts/AccountManagement.sol\":10311:10324  firstNames[i] */\n      0x0a\n      dup2\n      lt\n      tag_120\n      jumpi\n      tag_121\n      tag_118\n      jump\t// in\n    tag_121:\n    tag_120:\n      0x20\n      mul\n      add\n      mload\n        /* \"OnDemo/contracts/AccountManagement.sol\":10326:10335  lastNames */\n      dup7\n        /* \"OnDemo/contracts/AccountManagement.sol\":10336:10337  i */\n      dup6\n        /* \"OnDemo/contracts/AccountManagement.sol\":10326:10338  lastNames[i] */\n      0x0a\n      dup2\n      lt\n      tag_122\n      jumpi\n      tag_123\n      tag_118\n      jump\t// in\n    tag_123:\n    tag_122:\n      0x20\n      mul\n      add\n      mload\n        /* \"OnDemo/contracts/AccountManagement.sol\":10340:10352  mailAdresses */\n      dup7\n        /* \"OnDemo/contracts/AccountManagement.sol\":10353:10354  i */\n      dup7\n        /* \"OnDemo/contracts/AccountManagement.sol\":10340:10355  mailAdresses[i] */\n      0x0a\n      dup2\n      lt\n      tag_124\n      jumpi\n      tag_125\n      tag_118\n      jump\t// in\n    tag_125:\n    tag_124:\n      0x20\n      mul\n      add\n      mload\n        /* \"OnDemo/contracts/AccountManagement.sol\":10292:10305  createAccount */\n      tag_77\n        /* \"OnDemo/contracts/AccountManagement.sol\":10292:10356  createAccount(acc, firstNames[i], lastNames[i], mailAdresses[i]) */\n      jump\t// in\n    tag_119:\n        /* \"OnDemo/contracts/AccountManagement.sol\":10371:10399  assignRole(acc, Role.MEMBER) */\n      tag_126\n        /* \"OnDemo/contracts/AccountManagement.sol\":10382:10385  acc */\n      dup2\n        /* \"OnDemo/contracts/AccountManagement.sol\":10387:10398  Role.MEMBER */\n      0x02\n        /* \"OnDemo/contracts/AccountManagement.sol\":10371:10381  assignRole */\n      tag_52\n        /* \"OnDemo/contracts/AccountManagement.sol\":10371:10399  assignRole(acc, Role.MEMBER) */\n      jump\t// in\n    tag_126:\n        /* \"OnDemo/contracts/AccountManagement.sol\":10414:10441  removeRole(acc, Role.GUEST) */\n      tag_127\n        /* \"OnDemo/contracts/AccountManagement.sol\":10425:10428  acc */\n      dup2\n        /* \"OnDemo/contracts/AccountManagement.sol\":10430:10440  Role.GUEST */\n      0x03\n        /* \"OnDemo/contracts/AccountManagement.sol\":10414:10424  removeRole */\n      tag_66\n        /* \"OnDemo/contracts/AccountManagement.sol\":10414:10441  removeRole(acc, Role.GUEST) */\n      jump\t// in\n    tag_127:\n        /* \"OnDemo/contracts/AccountManagement.sol\":10458:10480  makeAccountActive(acc) */\n      tag_128\n        /* \"OnDemo/contracts/AccountManagement.sol\":10476:10479  acc */\n      dup2\n        /* \"OnDemo/contracts/AccountManagement.sol\":10458:10475  makeAccountActive */\n      tag_63\n        /* \"OnDemo/contracts/AccountManagement.sol\":10458:10480  makeAccountActive(acc) */\n      jump\t// in\n    tag_128:\n        /* \"OnDemo/contracts/AccountManagement.sol\":10233:10492  {... */\n      pop\n        /* \"OnDemo/contracts/AccountManagement.sol\":10219:10222  i++ */\n      dup1\n      dup1\n      tag_129\n      swap1\n      tag_130\n      jump\t// in\n    tag_129:\n      swap2\n      pop\n      pop\n        /* \"OnDemo/contracts/AccountManagement.sol\":10178:10492  for(uint i = 0; i < testAccounts.length; i++)... */\n      jump(tag_113)\n    tag_114:\n      pop\n        /* \"OnDemo/contracts/AccountManagement.sol\":9018:10499  {... */\n      pop\n      pop\n      pop\n      pop\n        /* \"OnDemo/contracts/AccountManagement.sol\":8979:10499  function testAccountManagement() public{... */\n      jump\t// out\n        /* \"OnDemo/contracts/AccountManagement.sol\":7011:7135  function hasLeaderRole(address _address) public view returns (bool) {... */\n    tag_41:\n        /* \"OnDemo/contracts/AccountManagement.sol\":7073:7077  bool */\n      0x00\n        /* \"OnDemo/contracts/AccountManagement.sol\":7097:7127  hasRole(_address, Role.LEADER) */\n      tag_132\n        /* \"OnDemo/contracts/AccountManagement.sol\":7105:7113  _address */\n      dup3\n        /* \"OnDemo/contracts/AccountManagement.sol\":7115:7126  Role.LEADER */\n      0x00\n        /* \"OnDemo/contracts/AccountManagement.sol\":7097:7104  hasRole */\n      tag_110\n        /* \"OnDemo/contracts/AccountManagement.sol\":7097:7127  hasRole(_address, Role.LEADER) */\n      jump\t// in\n    tag_132:\n        /* \"OnDemo/contracts/AccountManagement.sol\":7090:7127  return hasRole(_address, Role.LEADER) */\n      swap1\n      pop\n        /* \"OnDemo/contracts/AccountManagement.sol\":7011:7135  function hasLeaderRole(address _address) public view returns (bool) {... */\n      swap2\n      swap1\n      pop\n      jump\t// out\n        /* \"OnDemo/contracts/AccountManagement.sol\":3249:3610  function makeAccountPassive(address _address) public userExists(_address){... */\n    tag_45:\n        /* \"OnDemo/contracts/AccountManagement.sol\":3313:3321  _address */\n      dup1\n        /* \"OnDemo/contracts/AccountManagement.sol\":2006:2007  0 */\n      0x00\n        /* \"OnDemo/contracts/AccountManagement.sol\":1967:2008  users[_address].userAddress != address(0) */\n      0xffffffffffffffffffffffffffffffffffffffff\n      and\n        /* \"OnDemo/contracts/AccountManagement.sol\":1967:1972  users */\n      0x02\n        /* \"OnDemo/contracts/AccountManagement.sol\":1967:1982  users[_address] */\n      0x00\n        /* \"OnDemo/contracts/AccountManagement.sol\":1973:1981  _address */\n      dup4\n        /* \"OnDemo/contracts/AccountManagement.sol\":1967:1982  users[_address] */\n      0xffffffffffffffffffffffffffffffffffffffff\n      and\n      0xffffffffffffffffffffffffffffffffffffffff\n      and\n      dup2\n      mstore\n      0x20\n      add\n      swap1\n      dup2\n      mstore\n      0x20\n      add\n      0x00\n      keccak256\n        /* \"OnDemo/contracts/AccountManagement.sol\":1967:1994  users[_address].userAddress */\n      0x00\n      add\n      0x00\n      swap1\n      sload\n      swap1\n      0x0100\n      exp\n      swap1\n      div\n      0xffffffffffffffffffffffffffffffffffffffff\n      and\n        /* \"OnDemo/contracts/AccountManagement.sol\":1967:2008  users[_address].userAddress != address(0) */\n      0xffffffffffffffffffffffffffffffffffffffff\n      and\n      eq\n      iszero\n        /* \"OnDemo/contracts/AccountManagement.sol\":1959:2034  require(users[_address].userAddress != address(0), \"Account doesn't exist\") */\n      tag_134\n      jumpi\n      mload(0x40)\n      0x08c379a000000000000000000000000000000000000000000000000000000000\n      dup2\n      mstore\n      0x04\n      add\n      tag_135\n      swap1\n      tag_136\n      jump\t// in\n    tag_135:\n      mload(0x40)\n      dup1\n      swap2\n      sub\n      swap1\n      revert\n    tag_134:\n        /* \"OnDemo/contracts/AccountManagement.sol\":3336:3349  activeMembers */\n      0x03\n        /* \"OnDemo/contracts/AccountManagement.sol\":3336:3359  activeMembers[_address] */\n      0x00\n        /* \"OnDemo/contracts/AccountManagement.sol\":3350:3358  _address */\n      dup4\n        /* \"OnDemo/contracts/AccountManagement.sol\":3336:3359  activeMembers[_address] */\n      0xffffffffffffffffffffffffffffffffffffffff\n      and\n      0xffffffffffffffffffffffffffffffffffffffff\n      and\n      dup2\n      mstore\n      0x20\n      add\n      swap1\n      dup2\n      mstore\n      0x20\n      add\n      0x00\n      keccak256\n      0x00\n      swap1\n      sload\n      swap1\n      0x0100\n      exp\n      swap1\n      div\n      0xff\n      and\n        /* \"OnDemo/contracts/AccountManagement.sol\":3333:3590  if(activeMembers[_address]){... */\n      iszero\n      tag_138\n      jumpi\n        /* \"OnDemo/contracts/AccountManagement.sol\":3375:3392  User storage user */\n      0x00\n        /* \"OnDemo/contracts/AccountManagement.sol\":3395:3400  users */\n      0x02\n        /* \"OnDemo/contracts/AccountManagement.sol\":3395:3410  users[_address] */\n      0x00\n        /* \"OnDemo/contracts/AccountManagement.sol\":3401:3409  _address */\n      dup5\n        /* \"OnDemo/contracts/AccountManagement.sol\":3395:3410  users[_address] */\n      0xffffffffffffffffffffffffffffffffffffffff\n      and\n      0xffffffffffffffffffffffffffffffffffffffff\n      and\n      dup2\n      mstore\n      0x20\n      add\n      swap1\n      dup2\n      mstore\n      0x20\n      add\n      0x00\n      keccak256\n        /* \"OnDemo/contracts/AccountManagement.sol\":3375:3410  User storage user = users[_address] */\n      swap1\n      pop\n        /* \"OnDemo/contracts/AccountManagement.sol\":3441:3446  false */\n      0x00\n        /* \"OnDemo/contracts/AccountManagement.sol\":3425:3429  user */\n      dup2\n        /* \"OnDemo/contracts/AccountManagement.sol\":3425:3438  user.isActive */\n      0x04\n      add\n      0x00\n        /* \"OnDemo/contracts/AccountManagement.sol\":3425:3446  user.isActive = false */\n      0x0100\n      exp\n      dup2\n      sload\n      dup2\n      0xff\n      mul\n      not\n      and\n      swap1\n      dup4\n      iszero\n      iszero\n      mul\n      or\n      swap1\n      sstore\n      pop\n        /* \"OnDemo/contracts/AccountManagement.sol\":3539:3544  false */\n      0x00\n        /* \"OnDemo/contracts/AccountManagement.sol\":3513:3526  activeMembers */\n      0x03\n        /* \"OnDemo/contracts/AccountManagement.sol\":3513:3536  activeMembers[_address] */\n      0x00\n        /* \"OnDemo/contracts/AccountManagement.sol\":3527:3535  _address */\n      dup6\n        /* \"OnDemo/contracts/AccountManagement.sol\":3513:3536  activeMembers[_address] */\n      0xffffffffffffffffffffffffffffffffffffffff\n      and\n      0xffffffffffffffffffffffffffffffffffffffff\n      and\n      dup2\n      mstore\n      0x20\n      add\n      swap1\n      dup2\n      mstore\n      0x20\n      add\n      0x00\n      keccak256\n      0x00\n        /* \"OnDemo/contracts/AccountManagement.sol\":3513:3544  activeMembers[_address] = false */\n      0x0100\n      exp\n      dup2\n      sload\n      dup2\n      0xff\n      mul\n      not\n      and\n      swap1\n      dup4\n      iszero\n      iszero\n      mul\n      or\n      swap1\n      sstore\n      pop\n        /* \"OnDemo/contracts/AccountManagement.sol\":3559:3576  activeMemberCount */\n      0x00\n      dup1\n        /* \"OnDemo/contracts/AccountManagement.sol\":3559:3578  activeMemberCount-- */\n      dup2\n      sload\n      dup1\n      swap3\n      swap2\n      swap1\n      tag_139\n      swap1\n      tag_140\n      jump\t// in\n    tag_139:\n      swap2\n      swap1\n      pop\n      sstore\n      pop\n        /* \"OnDemo/contracts/AccountManagement.sol\":3360:3590  {... */\n      pop\n        /* \"OnDemo/contracts/AccountManagement.sol\":3333:3590  if(activeMembers[_address]){... */\n    tag_138:\n        /* \"OnDemo/contracts/AccountManagement.sol\":3249:3610  function makeAccountPassive(address _address) public userExists(_address){... */\n      pop\n      pop\n      jump\t// out\n        /* \"OnDemo/contracts/AccountManagement.sol\":832:861  uint public activeMemberCount */\n    tag_47:\n      sload(0x00)\n      dup2\n      jump\t// out\n        /* \"OnDemo/contracts/AccountManagement.sol\":3924:4487  function assignRole(address _address, Role _role) public onlyLeader userExists(_address){... */\n    tag_52:\n        /* \"OnDemo/contracts/AccountManagement.sol\":1810:1815  owner */\n      0x01\n      0x00\n      swap1\n      sload\n      swap1\n      0x0100\n      exp\n      swap1\n      div\n      0xffffffffffffffffffffffffffffffffffffffff\n      and\n        /* \"OnDemo/contracts/AccountManagement.sol\":1796:1815  msg.sender == owner */\n      0xffffffffffffffffffffffffffffffffffffffff\n      and\n        /* \"OnDemo/contracts/AccountManagement.sol\":1796:1806  msg.sender */\n      caller\n        /* \"OnDemo/contracts/AccountManagement.sol\":1796:1815  msg.sender == owner */\n      0xffffffffffffffffffffffffffffffffffffffff\n      and\n      eq\n        /* \"OnDemo/contracts/AccountManagement.sol\":1796:1844  msg.sender == owner || hasLeaderRole(msg.sender) */\n      dup1\n      tag_142\n      jumpi\n      pop\n        /* \"OnDemo/contracts/AccountManagement.sol\":1819:1844  hasLeaderRole(msg.sender) */\n      tag_143\n        /* \"OnDemo/contracts/AccountManagement.sol\":1833:1843  msg.sender */\n      caller\n        /* \"OnDemo/contracts/AccountManagement.sol\":1819:1832  hasLeaderRole */\n      tag_41\n        /* \"OnDemo/contracts/AccountManagement.sol\":1819:1844  hasLeaderRole(msg.sender) */\n      jump\t// in\n    tag_143:\n        /* \"OnDemo/contracts/AccountManagement.sol\":1796:1844  msg.sender == owner || hasLeaderRole(msg.sender) */\n    tag_142:\n        /* \"OnDemo/contracts/AccountManagement.sol\":1788:1883  require(msg.sender == owner || hasLeaderRole(msg.sender), \"Only owner can call this function.\") */\n      tag_144\n      jumpi\n      mload(0x40)\n      0x08c379a000000000000000000000000000000000000000000000000000000000\n      dup2\n      mstore\n      0x04\n      add\n      tag_145\n      swap1\n      tag_146\n      jump\t// in\n    tag_145:\n      mload(0x40)\n      dup1\n      swap2\n      sub\n      swap1\n      revert\n    tag_144:\n        /* \"OnDemo/contracts/AccountManagement.sol\":4003:4011  _address */\n      dup2\n        /* \"OnDemo/contracts/AccountManagement.sol\":2006:2007  0 */\n      0x00\n        /* \"OnDemo/contracts/AccountManagement.sol\":1967:2008  users[_address].userAddress != address(0) */\n      0xffffffffffffffffffffffffffffffffffffffff\n      and\n        /* \"OnDemo/contracts/AccountManagement.sol\":1967:1972  users */\n      0x02\n        /* \"OnDemo/contracts/AccountManagement.sol\":1967:1982  users[_address] */\n      0x00\n        /* \"OnDemo/contracts/AccountManagement.sol\":1973:1981  _address */\n      dup4\n        /* \"OnDemo/contracts/AccountManagement.sol\":1967:1982  users[_address] */\n      0xffffffffffffffffffffffffffffffffffffffff\n      and\n      0xffffffffffffffffffffffffffffffffffffffff\n      and\n      dup2\n      mstore\n      0x20\n      add\n      swap1\n      dup2\n      mstore\n      0x20\n      add\n      0x00\n      keccak256\n        /* \"OnDemo/contracts/AccountManagement.sol\":1967:1994  users[_address].userAddress */\n      0x00\n      add\n      0x00\n      swap1\n      sload\n      swap1\n      0x0100\n      exp\n      swap1\n      div\n      0xffffffffffffffffffffffffffffffffffffffff\n      and\n        /* \"OnDemo/contracts/AccountManagement.sol\":1967:2008  users[_address].userAddress != address(0) */\n      0xffffffffffffffffffffffffffffffffffffffff\n      and\n      eq\n      iszero\n        /* \"OnDemo/contracts/AccountManagement.sol\":1959:2034  require(users[_address].userAddress != address(0), \"Account doesn't exist\") */\n      tag_148\n      jumpi\n      mload(0x40)\n      0x08c379a000000000000000000000000000000000000000000000000000000000\n      dup2\n      mstore\n      0x04\n      add\n      tag_149\n      swap1\n      tag_136\n      jump\t// in\n    tag_149:\n      mload(0x40)\n      dup1\n      swap2\n      sub\n      swap1\n      revert\n    tag_148:\n        /* \"OnDemo/contracts/AccountManagement.sol\":4023:4040  User storage user */\n      0x00\n        /* \"OnDemo/contracts/AccountManagement.sol\":4043:4048  users */\n      0x02\n        /* \"OnDemo/contracts/AccountManagement.sol\":4043:4058  users[_address] */\n      0x00\n        /* \"OnDemo/contracts/AccountManagement.sol\":4049:4057  _address */\n      dup6\n        /* \"OnDemo/contracts/AccountManagement.sol\":4043:4058  users[_address] */\n      0xffffffffffffffffffffffffffffffffffffffff\n      and\n      0xffffffffffffffffffffffffffffffffffffffff\n      and\n      dup2\n      mstore\n      0x20\n      add\n      swap1\n      dup2\n      mstore\n      0x20\n      add\n      0x00\n      keccak256\n        /* \"OnDemo/contracts/AccountManagement.sol\":4023:4058  User storage user = users[_address] */\n      swap1\n      pop\n        /* \"OnDemo/contracts/AccountManagement.sol\":4069:4092  RoleMap storage roleMap */\n      0x00\n        /* \"OnDemo/contracts/AccountManagement.sol\":4095:4099  user */\n      dup2\n        /* \"OnDemo/contracts/AccountManagement.sol\":4095:4107  user.roleMap */\n      0x05\n      add\n        /* \"OnDemo/contracts/AccountManagement.sol\":4069:4107  RoleMap storage roleMap = user.roleMap */\n      swap1\n      pop\n        /* \"OnDemo/contracts/AccountManagement.sol\":4132:4143  Role.LEADER */\n      0x00\n        /* \"OnDemo/contracts/AccountManagement.sol\":4123:4143  _role == Role.LEADER */\n      0x03\n      dup2\n      gt\n      iszero\n      tag_151\n      jumpi\n      tag_152\n      tag_153\n      jump\t// in\n    tag_152:\n    tag_151:\n        /* \"OnDemo/contracts/AccountManagement.sol\":4123:4128  _role */\n      dup5\n        /* \"OnDemo/contracts/AccountManagement.sol\":4123:4143  _role == Role.LEADER */\n      0x03\n      dup2\n      gt\n      iszero\n      tag_154\n      jumpi\n      tag_155\n      tag_153\n      jump\t// in\n    tag_155:\n    tag_154:\n      eq\n        /* \"OnDemo/contracts/AccountManagement.sol\":4120:4480  if(_role == Role.LEADER){... */\n      iszero\n      tag_156\n      jumpi\n        /* \"OnDemo/contracts/AccountManagement.sol\":4178:4182  true */\n      0x01\n        /* \"OnDemo/contracts/AccountManagement.sol\":4159:4166  roleMap */\n      dup2\n        /* \"OnDemo/contracts/AccountManagement.sol\":4159:4175  roleMap.isLeader */\n      0x00\n      add\n      0x00\n        /* \"OnDemo/contracts/AccountManagement.sol\":4159:4182  roleMap.isLeader = true */\n      0x0100\n      exp\n      dup2\n      sload\n      dup2\n      0xff\n      mul\n      not\n      and\n      swap1\n      dup4\n      iszero\n      iszero\n      mul\n      or\n      swap1\n      sstore\n      pop\n        /* \"OnDemo/contracts/AccountManagement.sol\":4120:4480  if(_role == Role.LEADER){... */\n      jump(tag_157)\n    tag_156:\n        /* \"OnDemo/contracts/AccountManagement.sol\":4221:4239  Role.COUNCILMEMBER */\n      0x01\n        /* \"OnDemo/contracts/AccountManagement.sol\":4212:4239  _role == Role.COUNCILMEMBER */\n      0x03\n      dup2\n      gt\n      iszero\n      tag_158\n      jumpi\n      tag_159\n      tag_153\n      jump\t// in\n    tag_159:\n    tag_158:\n        /* \"OnDemo/contracts/AccountManagement.sol\":4212:4217  _role */\n      dup5\n        /* \"OnDemo/contracts/AccountManagement.sol\":4212:4239  _role == Role.COUNCILMEMBER */\n      0x03\n      dup2\n      gt\n      iszero\n      tag_160\n      jumpi\n      tag_161\n      tag_153\n      jump\t// in\n    tag_161:\n    tag_160:\n      eq\n        /* \"OnDemo/contracts/AccountManagement.sol\":4209:4480  if(_role == Role.COUNCILMEMBER){... */\n      iszero\n      tag_162\n      jumpi\n        /* \"OnDemo/contracts/AccountManagement.sol\":4281:4285  true */\n      0x01\n        /* \"OnDemo/contracts/AccountManagement.sol\":4255:4262  roleMap */\n      dup2\n        /* \"OnDemo/contracts/AccountManagement.sol\":4255:4278  roleMap.isCouncilMember */\n      0x00\n      add\n      0x01\n        /* \"OnDemo/contracts/AccountManagement.sol\":4255:4285  roleMap.isCouncilMember = true */\n      0x0100\n      exp\n      dup2\n      sload\n      dup2\n      0xff\n      mul\n      not\n      and\n      swap1\n      dup4\n      iszero\n      iszero\n      mul\n      or\n      swap1\n      sstore\n      pop\n        /* \"OnDemo/contracts/AccountManagement.sol\":4209:4480  if(_role == Role.COUNCILMEMBER){... */\n      jump(tag_163)\n    tag_162:\n        /* \"OnDemo/contracts/AccountManagement.sol\":4331:4342  Role.MEMBER */\n      0x02\n        /* \"OnDemo/contracts/AccountManagement.sol\":4322:4342  _role == Role.MEMBER */\n      0x03\n      dup2\n      gt\n      iszero\n      tag_164\n      jumpi\n      tag_165\n      tag_153\n      jump\t// in\n    tag_165:\n    tag_164:\n        /* \"OnDemo/contracts/AccountManagement.sol\":4322:4327  _role */\n      dup5\n        /* \"OnDemo/contracts/AccountManagement.sol\":4322:4342  _role == Role.MEMBER */\n      0x03\n      dup2\n      gt\n      iszero\n      tag_166\n      jumpi\n      tag_167\n      tag_153\n      jump\t// in\n    tag_167:\n    tag_166:\n      eq\n        /* \"OnDemo/contracts/AccountManagement.sol\":4319:4480  if(_role == Role.MEMBER){... */\n      iszero\n      tag_168\n      jumpi\n        /* \"OnDemo/contracts/AccountManagement.sol\":4377:4381  true */\n      0x01\n        /* \"OnDemo/contracts/AccountManagement.sol\":4358:4365  roleMap */\n      dup2\n        /* \"OnDemo/contracts/AccountManagement.sol\":4358:4374  roleMap.isMember */\n      0x00\n      add\n      0x02\n        /* \"OnDemo/contracts/AccountManagement.sol\":4358:4381  roleMap.isMember = true */\n      0x0100\n      exp\n      dup2\n      sload\n      dup2\n      0xff\n      mul\n      not\n      and\n      swap1\n      dup4\n      iszero\n      iszero\n      mul\n      or\n      swap1\n      sstore\n      pop\n        /* \"OnDemo/contracts/AccountManagement.sol\":4319:4480  if(_role == Role.MEMBER){... */\n      jump(tag_169)\n    tag_168:\n        /* \"OnDemo/contracts/AccountManagement.sol\":4420:4430  Role.GUEST */\n      0x03\n        /* \"OnDemo/contracts/AccountManagement.sol\":4411:4430  _role == Role.GUEST */\n      dup1\n      dup2\n      gt\n      iszero\n      tag_170\n      jumpi\n      tag_171\n      tag_153\n      jump\t// in\n    tag_171:\n    tag_170:\n        /* \"OnDemo/contracts/AccountManagement.sol\":4411:4416  _role */\n      dup5\n        /* \"OnDemo/contracts/AccountManagement.sol\":4411:4430  _role == Role.GUEST */\n      0x03\n      dup2\n      gt\n      iszero\n      tag_172\n      jumpi\n      tag_173\n      tag_153\n      jump\t// in\n    tag_173:\n    tag_172:\n      eq\n        /* \"OnDemo/contracts/AccountManagement.sol\":4408:4480  if(_role == Role.GUEST){... */\n      iszero\n      tag_174\n      jumpi\n        /* \"OnDemo/contracts/AccountManagement.sol\":4464:4468  true */\n      0x01\n        /* \"OnDemo/contracts/AccountManagement.sol\":4446:4453  roleMap */\n      dup2\n        /* \"OnDemo/contracts/AccountManagement.sol\":4446:4461  roleMap.isGuest */\n      0x00\n      add\n      0x03\n        /* \"OnDemo/contracts/AccountManagement.sol\":4446:4468  roleMap.isGuest = true */\n      0x0100\n      exp\n      dup2\n      sload\n      dup2\n      0xff\n      mul\n      not\n      and\n      swap1\n      dup4\n      iszero\n      iszero\n      mul\n      or\n      swap1\n      sstore\n      pop\n        /* \"OnDemo/contracts/AccountManagement.sol\":4408:4480  if(_role == Role.GUEST){... */\n    tag_174:\n        /* \"OnDemo/contracts/AccountManagement.sol\":4319:4480  if(_role == Role.MEMBER){... */\n    tag_169:\n        /* \"OnDemo/contracts/AccountManagement.sol\":4209:4480  if(_role == Role.COUNCILMEMBER){... */\n    tag_163:\n        /* \"OnDemo/contracts/AccountManagement.sol\":4120:4480  if(_role == Role.LEADER){... */\n    tag_157:\n        /* \"OnDemo/contracts/AccountManagement.sol\":4012:4487  {... */\n      pop\n      pop\n        /* \"OnDemo/contracts/AccountManagement.sol\":1894:1895  _ */\n      pop\n        /* \"OnDemo/contracts/AccountManagement.sol\":3924:4487  function assignRole(address _address, Role _role) public onlyLeader userExists(_address){... */\n      pop\n      pop\n      jump\t// out\n        /* \"OnDemo/contracts/AccountManagement.sol\":8206:8581  function hasRightToVote(address _address) external view returns (bool) {... */\n    tag_55:\n        /* \"OnDemo/contracts/AccountManagement.sol\":8271:8275  bool */\n      0x00\n        /* \"OnDemo/contracts/AccountManagement.sol\":8288:8304  User memory user */\n      dup1\n        /* \"OnDemo/contracts/AccountManagement.sol\":8307:8312  users */\n      0x02\n        /* \"OnDemo/contracts/AccountManagement.sol\":8307:8322  users[_address] */\n      0x00\n        /* \"OnDemo/contracts/AccountManagement.sol\":8313:8321  _address */\n      dup5\n        /* \"OnDemo/contracts/AccountManagement.sol\":8307:8322  users[_address] */\n      0xffffffffffffffffffffffffffffffffffffffff\n      and\n      0xffffffffffffffffffffffffffffffffffffffff\n      and\n      dup2\n      mstore\n      0x20\n      add\n      swap1\n      dup2\n      mstore\n      0x20\n      add\n      0x00\n      keccak256\n        /* \"OnDemo/contracts/AccountManagement.sol\":8288:8322  User memory user = users[_address] */\n      mload(0x40)\n      dup1\n      0xc0\n      add\n      0x40\n      mstore\n      swap1\n      dup2\n      0x00\n      dup3\n      add\n      0x00\n      swap1\n      sload\n      swap1\n      0x0100\n      exp\n      swap1\n      div\n      0xffffffffffffffffffffffffffffffffffffffff\n      and\n      0xffffffffffffffffffffffffffffffffffffffff\n      and\n      0xffffffffffffffffffffffffffffffffffffffff\n      and\n      dup2\n      mstore\n      0x20\n      add\n      0x01\n      dup3\n      add\n      dup1\n      sload\n      tag_176\n      swap1\n      tag_88\n      jump\t// in\n    tag_176:\n      dup1\n      0x1f\n      add\n      0x20\n      dup1\n      swap2\n      div\n      mul\n      0x20\n      add\n      mload(0x40)\n      swap1\n      dup2\n      add\n      0x40\n      mstore\n      dup1\n      swap3\n      swap2\n      swap1\n      dup2\n      dup2\n      mstore\n      0x20\n      add\n      dup3\n      dup1\n      sload\n      tag_177\n      swap1\n      tag_88\n      jump\t// in\n    tag_177:\n      dup1\n      iszero\n      tag_178\n      jumpi\n      dup1\n      0x1f\n      lt\n      tag_179\n      jumpi\n      0x0100\n      dup1\n      dup4\n      sload\n      div\n      mul\n      dup4\n      mstore\n      swap2\n      0x20\n      add\n      swap2\n      jump(tag_178)\n    tag_179:\n      dup3\n      add\n      swap2\n      swap1\n      0x00\n      mstore\n      keccak256(0x00, 0x20)\n      swap1\n    tag_180:\n      dup2\n      sload\n      dup2\n      mstore\n      swap1\n      0x01\n      add\n      swap1\n      0x20\n      add\n      dup1\n      dup4\n      gt\n      tag_180\n      jumpi\n      dup3\n      swap1\n      sub\n      0x1f\n      and\n      dup3\n      add\n      swap2\n    tag_178:\n      pop\n      pop\n      pop\n      pop\n      pop\n      dup2\n      mstore\n      0x20\n      add\n      0x02\n      dup3\n      add\n      dup1\n      sload\n      tag_181\n      swap1\n      tag_88\n      jump\t// in\n    tag_181:\n      dup1\n      0x1f\n      add\n      0x20\n      dup1\n      swap2\n      div\n      mul\n      0x20\n      add\n      mload(0x40)\n      swap1\n      dup2\n      add\n      0x40\n      mstore\n      dup1\n      swap3\n      swap2\n      swap1\n      dup2\n      dup2\n      mstore\n      0x20\n      add\n      dup3\n      dup1\n      sload\n      tag_182\n      swap1\n      tag_88\n      jump\t// in\n    tag_182:\n      dup1\n      iszero\n      tag_183\n      jumpi\n      dup1\n      0x1f\n      lt\n      tag_184\n      jumpi\n      0x0100\n      dup1\n      dup4\n      sload\n      div\n      mul\n      dup4\n      mstore\n      swap2\n      0x20\n      add\n      swap2\n      jump(tag_183)\n    tag_184:\n      dup3\n      add\n      swap2\n      swap1\n      0x00\n      mstore\n      keccak256(0x00, 0x20)\n      swap1\n    tag_185:\n      dup2\n      sload\n      dup2\n      mstore\n      swap1\n      0x01\n      add\n      swap1\n      0x20\n      add\n      dup1\n      dup4\n      gt\n      tag_185\n      jumpi\n      dup3\n      swap1\n      sub\n      0x1f\n      and\n      dup3\n      add\n      swap2\n    tag_183:\n      pop\n      pop\n      pop\n      pop\n      pop\n      dup2\n      mstore\n      0x20\n      add\n      0x03\n      dup3\n      add\n      dup1\n      sload\n      tag_186\n      swap1\n      tag_88\n      jump\t// in\n    tag_186:\n      dup1\n      0x1f\n      add\n      0x20\n      dup1\n      swap2\n      div\n      mul\n      0x20\n      add\n      mload(0x40)\n      swap1\n      dup2\n      add\n      0x40\n      mstore\n      dup1\n      swap3\n      swap2\n      swap1\n      dup2\n      dup2\n      mstore\n      0x20\n      add\n      dup3\n      dup1\n      sload\n      tag_187\n      swap1\n      tag_88\n      jump\t// in\n    tag_187:\n      dup1\n      iszero\n      tag_188\n      jumpi\n      dup1\n      0x1f\n      lt\n      tag_189\n      jumpi\n      0x0100\n      dup1\n      dup4\n      sload\n      div\n      mul\n      dup4\n      mstore\n      swap2\n      0x20\n      add\n      swap2\n      jump(tag_188)\n    tag_189:\n      dup3\n      add\n      swap2\n      swap1\n      0x00\n      mstore\n      keccak256(0x00, 0x20)\n      swap1\n    tag_190:\n      dup2\n      sload\n      dup2\n      mstore\n      swap1\n      0x01\n      add\n      swap1\n      0x20\n      add\n      dup1\n      dup4\n      gt\n      tag_190\n      jumpi\n      dup3\n      swap1\n      sub\n      0x1f\n      and\n      dup3\n      add\n      swap2\n    tag_188:\n      pop\n      pop\n      pop\n      pop\n      pop\n      dup2\n      mstore\n      0x20\n      add\n      0x04\n      dup3\n      add\n      0x00\n      swap1\n      sload\n      swap1\n      0x0100\n      exp\n      swap1\n      div\n      0xff\n      and\n      iszero\n      iszero\n      iszero\n      iszero\n      dup2\n      mstore\n      0x20\n      add\n      0x05\n      dup3\n      add\n      mload(0x40)\n      dup1\n      0x80\n      add\n      0x40\n      mstore\n      swap1\n      dup2\n      0x00\n      dup3\n      add\n      0x00\n      swap1\n      sload\n      swap1\n      0x0100\n      exp\n      swap1\n      div\n      0xff\n      and\n      iszero\n      iszero\n      iszero\n      iszero\n      dup2\n      mstore\n      0x20\n      add\n      0x00\n      dup3\n      add\n      0x01\n      swap1\n      sload\n      swap1\n      0x0100\n      exp\n      swap1\n      div\n      0xff\n      and\n      iszero\n      iszero\n      iszero\n      iszero\n      dup2\n      mstore\n      0x20\n      add\n      0x00\n      dup3\n      add\n      0x02\n      swap1\n      sload\n      swap1\n      0x0100\n      exp\n      swap1\n      div\n      0xff\n      and\n      iszero\n      iszero\n      iszero\n      iszero\n      dup2\n      mstore\n      0x20\n      add\n      0x00\n      dup3\n      add\n      0x03\n      swap1\n      sload\n      swap1\n      0x0100\n      exp\n      swap1\n      div\n      0xff\n      and\n      iszero\n      iszero\n      iszero\n      iszero\n      dup2\n      mstore\n      pop\n      pop\n      dup2\n      mstore\n      pop\n      pop\n      swap1\n      pop\n        /* \"OnDemo/contracts/AccountManagement.sol\":8364:8365  0 */\n      0x00\n        /* \"OnDemo/contracts/AccountManagement.sol\":8336:8366  user.userAddress != address(0) */\n      0xffffffffffffffffffffffffffffffffffffffff\n      and\n        /* \"OnDemo/contracts/AccountManagement.sol\":8336:8340  user */\n      dup2\n        /* \"OnDemo/contracts/AccountManagement.sol\":8336:8352  user.userAddress */\n      0x00\n      add\n      mload\n        /* \"OnDemo/contracts/AccountManagement.sol\":8336:8366  user.userAddress != address(0) */\n      0xffffffffffffffffffffffffffffffffffffffff\n      and\n      eq\n        /* \"OnDemo/contracts/AccountManagement.sol\":8333:8550  if(user.userAddress != address(0))... */\n      tag_191\n      jumpi\n        /* \"OnDemo/contracts/AccountManagement.sol\":8395:8399  user */\n      dup1\n        /* \"OnDemo/contracts/AccountManagement.sol\":8395:8408  user.isActive */\n      0x80\n      add\n      mload\n        /* \"OnDemo/contracts/AccountManagement.sol\":8395:8492  user.isActive && (user.roleMap.isLeader || user.roleMap.isCouncilMember || user.roleMap.isMember) */\n      dup1\n      iszero\n      tag_192\n      jumpi\n      pop\n        /* \"OnDemo/contracts/AccountManagement.sol\":8413:8417  user */\n      dup1\n        /* \"OnDemo/contracts/AccountManagement.sol\":8413:8425  user.roleMap */\n      0xa0\n      add\n      mload\n        /* \"OnDemo/contracts/AccountManagement.sol\":8413:8434  user.roleMap.isLeader */\n      0x00\n      add\n      mload\n        /* \"OnDemo/contracts/AccountManagement.sol\":8413:8466  user.roleMap.isLeader || user.roleMap.isCouncilMember */\n      dup1\n      tag_193\n      jumpi\n      pop\n        /* \"OnDemo/contracts/AccountManagement.sol\":8438:8442  user */\n      dup1\n        /* \"OnDemo/contracts/AccountManagement.sol\":8438:8450  user.roleMap */\n      0xa0\n      add\n      mload\n        /* \"OnDemo/contracts/AccountManagement.sol\":8438:8466  user.roleMap.isCouncilMember */\n      0x20\n      add\n      mload\n        /* \"OnDemo/contracts/AccountManagement.sol\":8413:8466  user.roleMap.isLeader || user.roleMap.isCouncilMember */\n    tag_193:\n        /* \"OnDemo/contracts/AccountManagement.sol\":8413:8491  user.roleMap.isLeader || user.roleMap.isCouncilMember || user.roleMap.isMember */\n      dup1\n      tag_194\n      jumpi\n      pop\n        /* \"OnDemo/contracts/AccountManagement.sol\":8470:8474  user */\n      dup1\n        /* \"OnDemo/contracts/AccountManagement.sol\":8470:8482  user.roleMap */\n      0xa0\n      add\n      mload\n        /* \"OnDemo/contracts/AccountManagement.sol\":8470:8491  user.roleMap.isMember */\n      0x40\n      add\n      mload\n        /* \"OnDemo/contracts/AccountManagement.sol\":8413:8491  user.roleMap.isLeader || user.roleMap.isCouncilMember || user.roleMap.isMember */\n    tag_194:\n        /* \"OnDemo/contracts/AccountManagement.sol\":8395:8492  user.isActive && (user.roleMap.isLeader || user.roleMap.isCouncilMember || user.roleMap.isMember) */\n    tag_192:\n        /* \"OnDemo/contracts/AccountManagement.sol\":8392:8539  if(user.isActive && (user.roleMap.isLeader || user.roleMap.isCouncilMember || user.roleMap.isMember)){... */\n      iszero\n      tag_195\n      jumpi\n        /* \"OnDemo/contracts/AccountManagement.sol\":8519:8523  true */\n      0x01\n        /* \"OnDemo/contracts/AccountManagement.sol\":8512:8523  return true */\n      swap2\n      pop\n      pop\n      jump(tag_175)\n        /* \"OnDemo/contracts/AccountManagement.sol\":8392:8539  if(user.isActive && (user.roleMap.isLeader || user.roleMap.isCouncilMember || user.roleMap.isMember)){... */\n    tag_195:\n        /* \"OnDemo/contracts/AccountManagement.sol\":8333:8550  if(user.userAddress != address(0))... */\n    tag_191:\n        /* \"OnDemo/contracts/AccountManagement.sol\":8568:8573  false */\n      0x00\n        /* \"OnDemo/contracts/AccountManagement.sol\":8560:8573  return  false */\n      swap2\n      pop\n      pop\n        /* \"OnDemo/contracts/AccountManagement.sol\":8206:8581  function hasRightToVote(address _address) external view returns (bool) {... */\n    tag_175:\n      swap2\n      swap1\n      pop\n      jump\t// out\n        /* \"OnDemo/contracts/AccountManagement.sol\":868:888  address public owner */\n    tag_58:\n      0x01\n      0x00\n      swap1\n      sload\n      swap1\n      0x0100\n      exp\n      swap1\n      div\n      0xffffffffffffffffffffffffffffffffffffffff\n      and\n      dup2\n      jump\t// out\n        /* \"OnDemo/contracts/AccountManagement.sol\":2729:3241  function makeAccountActive(address _address) public userExists(_address){... */\n    tag_63:\n        /* \"OnDemo/contracts/AccountManagement.sol\":2792:2800  _address */\n      dup1\n        /* \"OnDemo/contracts/AccountManagement.sol\":2006:2007  0 */\n      0x00\n        /* \"OnDemo/contracts/AccountManagement.sol\":1967:2008  users[_address].userAddress != address(0) */\n      0xffffffffffffffffffffffffffffffffffffffff\n      and\n        /* \"OnDemo/contracts/AccountManagement.sol\":1967:1972  users */\n      0x02\n        /* \"OnDemo/contracts/AccountManagement.sol\":1967:1982  users[_address] */\n      0x00\n        /* \"OnDemo/contracts/AccountManagement.sol\":1973:1981  _address */\n      dup4\n        /* \"OnDemo/contracts/AccountManagement.sol\":1967:1982  users[_address] */\n      0xffffffffffffffffffffffffffffffffffffffff\n      and\n      0xffffffffffffffffffffffffffffffffffffffff\n      and\n      dup2\n      mstore\n      0x20\n      add\n      swap1\n      dup2\n      mstore\n      0x20\n      add\n      0x00\n      keccak256\n        /* \"OnDemo/contracts/AccountManagement.sol\":1967:1994  users[_address].userAddress */\n      0x00\n      add\n      0x00\n      swap1\n      sload\n      swap1\n      0x0100\n      exp\n      swap1\n      div\n      0xffffffffffffffffffffffffffffffffffffffff\n      and\n        /* \"OnDemo/contracts/AccountManagement.sol\":1967:2008  users[_address].userAddress != address(0) */\n      0xffffffffffffffffffffffffffffffffffffffff\n      and\n      eq\n      iszero\n        /* \"OnDemo/contracts/AccountManagement.sol\":1959:2034  require(users[_address].userAddress != address(0), \"Account doesn't exist\") */\n      tag_197\n      jumpi\n      mload(0x40)\n      0x08c379a000000000000000000000000000000000000000000000000000000000\n      dup2\n      mstore\n      0x04\n      add\n      tag_198\n      swap1\n      tag_136\n      jump\t// in\n    tag_198:\n      mload(0x40)\n      dup1\n      swap2\n      sub\n      swap1\n      revert\n    tag_197:\n        /* \"OnDemo/contracts/AccountManagement.sol\":2816:2829  activeMembers */\n      0x03\n        /* \"OnDemo/contracts/AccountManagement.sol\":2816:2839  activeMembers[_address] */\n      0x00\n        /* \"OnDemo/contracts/AccountManagement.sol\":2830:2838  _address */\n      dup4\n        /* \"OnDemo/contracts/AccountManagement.sol\":2816:2839  activeMembers[_address] */\n      0xffffffffffffffffffffffffffffffffffffffff\n      and\n      0xffffffffffffffffffffffffffffffffffffffff\n      and\n      dup2\n      mstore\n      0x20\n      add\n      swap1\n      dup2\n      mstore\n      0x20\n      add\n      0x00\n      keccak256\n      0x00\n      swap1\n      sload\n      swap1\n      0x0100\n      exp\n      swap1\n      div\n      0xff\n      and\n        /* \"OnDemo/contracts/AccountManagement.sol\":2812:3234  if(!activeMembers[_address]){... */\n      tag_200\n      jumpi\n        /* \"OnDemo/contracts/AccountManagement.sol\":2855:2872  User storage user */\n      0x00\n        /* \"OnDemo/contracts/AccountManagement.sol\":2875:2880  users */\n      0x02\n        /* \"OnDemo/contracts/AccountManagement.sol\":2875:2890  users[_address] */\n      0x00\n        /* \"OnDemo/contracts/AccountManagement.sol\":2881:2889  _address */\n      dup5\n        /* \"OnDemo/contracts/AccountManagement.sol\":2875:2890  users[_address] */\n      0xffffffffffffffffffffffffffffffffffffffff\n      and\n      0xffffffffffffffffffffffffffffffffffffffff\n      and\n      dup2\n      mstore\n      0x20\n      add\n      swap1\n      dup2\n      mstore\n      0x20\n      add\n      0x00\n      keccak256\n        /* \"OnDemo/contracts/AccountManagement.sol\":2855:2890  User storage user = users[_address] */\n      swap1\n      pop\n        /* \"OnDemo/contracts/AccountManagement.sol\":2921:2925  true */\n      0x01\n        /* \"OnDemo/contracts/AccountManagement.sol\":2905:2909  user */\n      dup2\n        /* \"OnDemo/contracts/AccountManagement.sol\":2905:2918  user.isActive */\n      0x04\n      add\n      0x00\n        /* \"OnDemo/contracts/AccountManagement.sol\":2905:2925  user.isActive = true */\n      0x0100\n      exp\n      dup2\n      sload\n      dup2\n      0xff\n      mul\n      not\n      and\n      swap1\n      dup4\n      iszero\n      iszero\n      mul\n      or\n      swap1\n      sstore\n      pop\n        /* \"OnDemo/contracts/AccountManagement.sol\":2987:3009  RoleMap memory roleMap */\n      0x00\n        /* \"OnDemo/contracts/AccountManagement.sol\":3012:3016  user */\n      dup2\n        /* \"OnDemo/contracts/AccountManagement.sol\":3012:3024  user.roleMap */\n      0x05\n      add\n        /* \"OnDemo/contracts/AccountManagement.sol\":2987:3024  RoleMap memory roleMap = user.roleMap */\n      mload(0x40)\n      dup1\n      0x80\n      add\n      0x40\n      mstore\n      swap1\n      dup2\n      0x00\n      dup3\n      add\n      0x00\n      swap1\n      sload\n      swap1\n      0x0100\n      exp\n      swap1\n      div\n      0xff\n      and\n      iszero\n      iszero\n      iszero\n      iszero\n      dup2\n      mstore\n      0x20\n      add\n      0x00\n      dup3\n      add\n      0x01\n      swap1\n      sload\n      swap1\n      0x0100\n      exp\n      swap1\n      div\n      0xff\n      and\n      iszero\n      iszero\n      iszero\n      iszero\n      dup2\n      mstore\n      0x20\n      add\n      0x00\n      dup3\n      add\n      0x02\n      swap1\n      sload\n      swap1\n      0x0100\n      exp\n      swap1\n      div\n      0xff\n      and\n      iszero\n      iszero\n      iszero\n      iszero\n      dup2\n      mstore\n      0x20\n      add\n      0x00\n      dup3\n      add\n      0x03\n      swap1\n      sload\n      swap1\n      0x0100\n      exp\n      swap1\n      div\n      0xff\n      and\n      iszero\n      iszero\n      iszero\n      iszero\n      dup2\n      mstore\n      pop\n      pop\n      swap1\n      pop\n        /* \"OnDemo/contracts/AccountManagement.sol\":3042:3049  roleMap */\n      dup1\n        /* \"OnDemo/contracts/AccountManagement.sol\":3042:3058  roleMap.isLeader */\n      0x00\n      add\n      mload\n        /* \"OnDemo/contracts/AccountManagement.sol\":3042:3085  roleMap.isLeader || roleMap.isCouncilMember */\n      dup1\n      tag_201\n      jumpi\n      pop\n        /* \"OnDemo/contracts/AccountManagement.sol\":3062:3069  roleMap */\n      dup1\n        /* \"OnDemo/contracts/AccountManagement.sol\":3062:3085  roleMap.isCouncilMember */\n      0x20\n      add\n      mload\n        /* \"OnDemo/contracts/AccountManagement.sol\":3042:3085  roleMap.isLeader || roleMap.isCouncilMember */\n    tag_201:\n        /* \"OnDemo/contracts/AccountManagement.sol\":3042:3105  roleMap.isLeader || roleMap.isCouncilMember || roleMap.isMember */\n      dup1\n      tag_202\n      jumpi\n      pop\n        /* \"OnDemo/contracts/AccountManagement.sol\":3089:3096  roleMap */\n      dup1\n        /* \"OnDemo/contracts/AccountManagement.sol\":3089:3105  roleMap.isMember */\n      0x40\n      add\n      mload\n        /* \"OnDemo/contracts/AccountManagement.sol\":3042:3105  roleMap.isLeader || roleMap.isCouncilMember || roleMap.isMember */\n    tag_202:\n        /* \"OnDemo/contracts/AccountManagement.sol\":3039:3223  if(roleMap.isLeader || roleMap.isCouncilMember || roleMap.isMember)... */\n      iszero\n      tag_203\n      jumpi\n        /* \"OnDemo/contracts/AccountManagement.sol\":3165:3169  true */\n      0x01\n        /* \"OnDemo/contracts/AccountManagement.sol\":3139:3152  activeMembers */\n      0x03\n        /* \"OnDemo/contracts/AccountManagement.sol\":3139:3162  activeMembers[_address] */\n      0x00\n        /* \"OnDemo/contracts/AccountManagement.sol\":3153:3161  _address */\n      dup7\n        /* \"OnDemo/contracts/AccountManagement.sol\":3139:3162  activeMembers[_address] */\n      0xffffffffffffffffffffffffffffffffffffffff\n      and\n      0xffffffffffffffffffffffffffffffffffffffff\n      and\n      dup2\n      mstore\n      0x20\n      add\n      swap1\n      dup2\n      mstore\n      0x20\n      add\n      0x00\n      keccak256\n      0x00\n        /* \"OnDemo/contracts/AccountManagement.sol\":3139:3169  activeMembers[_address] = true */\n      0x0100\n      exp\n      dup2\n      sload\n      dup2\n      0xff\n      mul\n      not\n      and\n      swap1\n      dup4\n      iszero\n      iszero\n      mul\n      or\n      swap1\n      sstore\n      pop\n        /* \"OnDemo/contracts/AccountManagement.sol\":3188:3205  activeMemberCount */\n      0x00\n      dup1\n        /* \"OnDemo/contracts/AccountManagement.sol\":3188:3207  activeMemberCount++ */\n      dup2\n      sload\n      dup1\n      swap3\n      swap2\n      swap1\n      tag_204\n      swap1\n      tag_130\n      jump\t// in\n    tag_204:\n      swap2\n      swap1\n      pop\n      sstore\n      pop\n        /* \"OnDemo/contracts/AccountManagement.sol\":3039:3223  if(roleMap.isLeader || roleMap.isCouncilMember || roleMap.isMember)... */\n    tag_203:\n        /* \"OnDemo/contracts/AccountManagement.sol\":2840:3234  {... */\n      pop\n      pop\n        /* \"OnDemo/contracts/AccountManagement.sol\":2812:3234  if(!activeMembers[_address]){... */\n    tag_200:\n        /* \"OnDemo/contracts/AccountManagement.sol\":2729:3241  function makeAccountActive(address _address) public userExists(_address){... */\n      pop\n      pop\n      jump\t// out\n        /* \"OnDemo/contracts/AccountManagement.sol\":4495:5072  function removeRole(address _address, Role _role) public onlyLeader userExists(_address){... */\n    tag_66:\n        /* \"OnDemo/contracts/AccountManagement.sol\":1810:1815  owner */\n      0x01\n      0x00\n      swap1\n      sload\n      swap1\n      0x0100\n      exp\n      swap1\n      div\n      0xffffffffffffffffffffffffffffffffffffffff\n      and\n        /* \"OnDemo/contracts/AccountManagement.sol\":1796:1815  msg.sender == owner */\n      0xffffffffffffffffffffffffffffffffffffffff\n      and\n        /* \"OnDemo/contracts/AccountManagement.sol\":1796:1806  msg.sender */\n      caller\n        /* \"OnDemo/contracts/AccountManagement.sol\":1796:1815  msg.sender == owner */\n      0xffffffffffffffffffffffffffffffffffffffff\n      and\n      eq\n        /* \"OnDemo/contracts/AccountManagement.sol\":1796:1844  msg.sender == owner || hasLeaderRole(msg.sender) */\n      dup1\n      tag_206\n      jumpi\n      pop\n        /* \"OnDemo/contracts/AccountManagement.sol\":1819:1844  hasLeaderRole(msg.sender) */\n      tag_207\n        /* \"OnDemo/contracts/AccountManagement.sol\":1833:1843  msg.sender */\n      caller\n        /* \"OnDemo/contracts/AccountManagement.sol\":1819:1832  hasLeaderRole */\n      tag_41\n        /* \"OnDemo/contracts/AccountManagement.sol\":1819:1844  hasLeaderRole(msg.sender) */\n      jump\t// in\n    tag_207:\n        /* \"OnDemo/contracts/AccountManagement.sol\":1796:1844  msg.sender == owner || hasLeaderRole(msg.sender) */\n    tag_206:\n        /* \"OnDemo/contracts/AccountManagement.sol\":1788:1883  require(msg.sender == owner || hasLeaderRole(msg.sender), \"Only owner can call this function.\") */\n      tag_208\n      jumpi\n      mload(0x40)\n      0x08c379a000000000000000000000000000000000000000000000000000000000\n      dup2\n      mstore\n      0x04\n      add\n      tag_209\n      swap1\n      tag_146\n      jump\t// in\n    tag_209:\n      mload(0x40)\n      dup1\n      swap2\n      sub\n      swap1\n      revert\n    tag_208:\n        /* \"OnDemo/contracts/AccountManagement.sol\":4574:4582  _address */\n      dup2\n        /* \"OnDemo/contracts/AccountManagement.sol\":2006:2007  0 */\n      0x00\n        /* \"OnDemo/contracts/AccountManagement.sol\":1967:2008  users[_address].userAddress != address(0) */\n      0xffffffffffffffffffffffffffffffffffffffff\n      and\n        /* \"OnDemo/contracts/AccountManagement.sol\":1967:1972  users */\n      0x02\n        /* \"OnDemo/contracts/AccountManagement.sol\":1967:1982  users[_address] */\n      0x00\n        /* \"OnDemo/contracts/AccountManagement.sol\":1973:1981  _address */\n      dup4\n        /* \"OnDemo/contracts/AccountManagement.sol\":1967:1982  users[_address] */\n      0xffffffffffffffffffffffffffffffffffffffff\n      and\n      0xffffffffffffffffffffffffffffffffffffffff\n      and\n      dup2\n      mstore\n      0x20\n      add\n      swap1\n      dup2\n      mstore\n      0x20\n      add\n      0x00\n      keccak256\n        /* \"OnDemo/contracts/AccountManagement.sol\":1967:1994  users[_address].userAddress */\n      0x00\n      add\n      0x00\n      swap1\n      sload\n      swap1\n      0x0100\n      exp\n      swap1\n      div\n      0xffffffffffffffffffffffffffffffffffffffff\n      and\n        /* \"OnDemo/contracts/AccountManagement.sol\":1967:2008  users[_address].userAddress != address(0) */\n      0xffffffffffffffffffffffffffffffffffffffff\n      and\n      eq\n      iszero\n        /* \"OnDemo/contracts/AccountManagement.sol\":1959:2034  require(users[_address].userAddress != address(0), \"Account doesn't exist\") */\n      tag_211\n      jumpi\n      mload(0x40)\n      0x08c379a000000000000000000000000000000000000000000000000000000000\n      dup2\n      mstore\n      0x04\n      add\n      tag_212\n      swap1\n      tag_136\n      jump\t// in\n    tag_212:\n      mload(0x40)\n      dup1\n      swap2\n      sub\n      swap1\n      revert\n    tag_211:\n        /* \"OnDemo/contracts/AccountManagement.sol\":4594:4611  User storage user */\n      0x00\n        /* \"OnDemo/contracts/AccountManagement.sol\":4614:4619  users */\n      0x02\n        /* \"OnDemo/contracts/AccountManagement.sol\":4614:4629  users[_address] */\n      0x00\n        /* \"OnDemo/contracts/AccountManagement.sol\":4620:4628  _address */\n      dup6\n        /* \"OnDemo/contracts/AccountManagement.sol\":4614:4629  users[_address] */\n      0xffffffffffffffffffffffffffffffffffffffff\n      and\n      0xffffffffffffffffffffffffffffffffffffffff\n      and\n      dup2\n      mstore\n      0x20\n      add\n      swap1\n      dup2\n      mstore\n      0x20\n      add\n      0x00\n      keccak256\n        /* \"OnDemo/contracts/AccountManagement.sol\":4594:4629  User storage user = users[_address] */\n      swap1\n      pop\n        /* \"OnDemo/contracts/AccountManagement.sol\":4640:4663  RoleMap storage roleMap */\n      0x00\n        /* \"OnDemo/contracts/AccountManagement.sol\":4666:4670  user */\n      dup2\n        /* \"OnDemo/contracts/AccountManagement.sol\":4666:4678  user.roleMap */\n      0x05\n      add\n        /* \"OnDemo/contracts/AccountManagement.sol\":4640:4678  RoleMap storage roleMap = user.roleMap */\n      swap1\n      pop\n        /* \"OnDemo/contracts/AccountManagement.sol\":4703:4714  Role.LEADER */\n      0x00\n        /* \"OnDemo/contracts/AccountManagement.sol\":4694:4714  _role == Role.LEADER */\n      0x03\n      dup2\n      gt\n      iszero\n      tag_214\n      jumpi\n      tag_215\n      tag_153\n      jump\t// in\n    tag_215:\n    tag_214:\n        /* \"OnDemo/contracts/AccountManagement.sol\":4694:4699  _role */\n      dup5\n        /* \"OnDemo/contracts/AccountManagement.sol\":4694:4714  _role == Role.LEADER */\n      0x03\n      dup2\n      gt\n      iszero\n      tag_216\n      jumpi\n      tag_217\n      tag_153\n      jump\t// in\n    tag_217:\n    tag_216:\n      eq\n        /* \"OnDemo/contracts/AccountManagement.sol\":4691:5065  if(_role == Role.LEADER){... */\n      iszero\n      tag_218\n      jumpi\n        /* \"OnDemo/contracts/AccountManagement.sol\":4749:4754  false */\n      0x00\n        /* \"OnDemo/contracts/AccountManagement.sol\":4730:4737  roleMap */\n      dup2\n        /* \"OnDemo/contracts/AccountManagement.sol\":4730:4746  roleMap.isLeader */\n      0x00\n      add\n      0x00\n        /* \"OnDemo/contracts/AccountManagement.sol\":4730:4754  roleMap.isLeader = false */\n      0x0100\n      exp\n      dup2\n      sload\n      dup2\n      0xff\n      mul\n      not\n      and\n      swap1\n      dup4\n      iszero\n      iszero\n      mul\n      or\n      swap1\n      sstore\n      pop\n        /* \"OnDemo/contracts/AccountManagement.sol\":4691:5065  if(_role == Role.LEADER){... */\n      jump(tag_219)\n    tag_218:\n        /* \"OnDemo/contracts/AccountManagement.sol\":4793:4811  Role.COUNCILMEMBER */\n      0x01\n        /* \"OnDemo/contracts/AccountManagement.sol\":4784:4811  _role == Role.COUNCILMEMBER */\n      0x03\n      dup2\n      gt\n      iszero\n      tag_220\n      jumpi\n      tag_221\n      tag_153\n      jump\t// in\n    tag_221:\n    tag_220:\n        /* \"OnDemo/contracts/AccountManagement.sol\":4784:4789  _role */\n      dup5\n        /* \"OnDemo/contracts/AccountManagement.sol\":4784:4811  _role == Role.COUNCILMEMBER */\n      0x03\n      dup2\n      gt\n      iszero\n      tag_222\n      jumpi\n      tag_223\n      tag_153\n      jump\t// in\n    tag_223:\n    tag_222:\n      eq\n        /* \"OnDemo/contracts/AccountManagement.sol\":4781:5065  if(_role == Role.COUNCILMEMBER){... */\n      iszero\n      tag_224\n      jumpi\n        /* \"OnDemo/contracts/AccountManagement.sol\":4853:4858  false */\n      0x00\n        /* \"OnDemo/contracts/AccountManagement.sol\":4827:4834  roleMap */\n      dup2\n        /* \"OnDemo/contracts/AccountManagement.sol\":4827:4850  roleMap.isCouncilMember */\n      0x00\n      add\n      0x01\n        /* \"OnDemo/contracts/AccountManagement.sol\":4827:4858  roleMap.isCouncilMember = false */\n      0x0100\n      exp\n      dup2\n      sload\n      dup2\n      0xff\n      mul\n      not\n      and\n      swap1\n      dup4\n      iszero\n      iszero\n      mul\n      or\n      swap1\n      sstore\n      pop\n        /* \"OnDemo/contracts/AccountManagement.sol\":4781:5065  if(_role == Role.COUNCILMEMBER){... */\n      jump(tag_225)\n    tag_224:\n        /* \"OnDemo/contracts/AccountManagement.sol\":4902:4913  Role.MEMBER */\n      0x02\n        /* \"OnDemo/contracts/AccountManagement.sol\":4893:4913  _role == Role.MEMBER */\n      0x03\n      dup2\n      gt\n      iszero\n      tag_226\n      jumpi\n      tag_227\n      tag_153\n      jump\t// in\n    tag_227:\n    tag_226:\n        /* \"OnDemo/contracts/AccountManagement.sol\":4893:4898  _role */\n      dup5\n        /* \"OnDemo/contracts/AccountManagement.sol\":4893:4913  _role == Role.MEMBER */\n      0x03\n      dup2\n      gt\n      iszero\n      tag_228\n      jumpi\n      tag_229\n      tag_153\n      jump\t// in\n    tag_229:\n    tag_228:\n      eq\n        /* \"OnDemo/contracts/AccountManagement.sol\":4890:5065  if(_role == Role.MEMBER){... */\n      iszero\n      tag_230\n      jumpi\n        /* \"OnDemo/contracts/AccountManagement.sol\":4948:4953  false */\n      0x00\n        /* \"OnDemo/contracts/AccountManagement.sol\":4929:4936  roleMap */\n      dup2\n        /* \"OnDemo/contracts/AccountManagement.sol\":4929:4945  roleMap.isMember */\n      0x00\n      add\n      0x02\n        /* \"OnDemo/contracts/AccountManagement.sol\":4929:4953  roleMap.isMember = false */\n      0x0100\n      exp\n      dup2\n      sload\n      dup2\n      0xff\n      mul\n      not\n      and\n      swap1\n      dup4\n      iszero\n      iszero\n      mul\n      or\n      swap1\n      sstore\n      pop\n        /* \"OnDemo/contracts/AccountManagement.sol\":4890:5065  if(_role == Role.MEMBER){... */\n      jump(tag_231)\n    tag_230:\n        /* \"OnDemo/contracts/AccountManagement.sol\":4992:5002  Role.GUEST */\n      0x03\n        /* \"OnDemo/contracts/AccountManagement.sol\":4983:5002  _role == Role.GUEST */\n      dup1\n      dup2\n      gt\n      iszero\n      tag_232\n      jumpi\n      tag_233\n      tag_153\n      jump\t// in\n    tag_233:\n    tag_232:\n        /* \"OnDemo/contracts/AccountManagement.sol\":4983:4988  _role */\n      dup5\n        /* \"OnDemo/contracts/AccountManagement.sol\":4983:5002  _role == Role.GUEST */\n      0x03\n      dup2\n      gt\n      iszero\n      tag_234\n      jumpi\n      tag_235\n      tag_153\n      jump\t// in\n    tag_235:\n    tag_234:\n      eq\n        /* \"OnDemo/contracts/AccountManagement.sol\":4980:5065  if(_role == Role.GUEST){... */\n      iszero\n      tag_236\n      jumpi\n        /* \"OnDemo/contracts/AccountManagement.sol\":5036:5041  false */\n      0x00\n        /* \"OnDemo/contracts/AccountManagement.sol\":5018:5025  roleMap */\n      dup2\n        /* \"OnDemo/contracts/AccountManagement.sol\":5018:5033  roleMap.isGuest */\n      0x00\n      add\n      0x03\n        /* \"OnDemo/contracts/AccountManagement.sol\":5018:5041  roleMap.isGuest = false */\n      0x0100\n      exp\n      dup2\n      sload\n      dup2\n      0xff\n      mul\n      not\n      and\n      swap1\n      dup4\n      iszero\n      iszero\n      mul\n      or\n      swap1\n      sstore\n      pop\n        /* \"OnDemo/contracts/AccountManagement.sol\":4980:5065  if(_role == Role.GUEST){... */\n    tag_236:\n        /* \"OnDemo/contracts/AccountManagement.sol\":4890:5065  if(_role == Role.MEMBER){... */\n    tag_231:\n        /* \"OnDemo/contracts/AccountManagement.sol\":4781:5065  if(_role == Role.COUNCILMEMBER){... */\n    tag_225:\n        /* \"OnDemo/contracts/AccountManagement.sol\":4691:5065  if(_role == Role.LEADER){... */\n    tag_219:\n        /* \"OnDemo/contracts/AccountManagement.sol\":4583:5072  {... */\n      pop\n      pop\n        /* \"OnDemo/contracts/AccountManagement.sol\":1894:1895  _ */\n      pop\n        /* \"OnDemo/contracts/AccountManagement.sol\":4495:5072  function removeRole(address _address, Role _role) public onlyLeader userExists(_address){... */\n      pop\n      pop\n      jump\t// out\n        /* \"OnDemo/contracts/AccountManagement.sol\":8589:8967  function hasRightToSupport(address _address) external view returns (bool) {... */\n    tag_69:\n        /* \"OnDemo/contracts/AccountManagement.sol\":8657:8661  bool */\n      0x00\n        /* \"OnDemo/contracts/AccountManagement.sol\":8674:8690  User memory user */\n      dup1\n        /* \"OnDemo/contracts/AccountManagement.sol\":8693:8698  users */\n      0x02\n        /* \"OnDemo/contracts/AccountManagement.sol\":8693:8708  users[_address] */\n      0x00\n        /* \"OnDemo/contracts/AccountManagement.sol\":8699:8707  _address */\n      dup5\n        /* \"OnDemo/contracts/AccountManagement.sol\":8693:8708  users[_address] */\n      0xffffffffffffffffffffffffffffffffffffffff\n      and\n      0xffffffffffffffffffffffffffffffffffffffff\n      and\n      dup2\n      mstore\n      0x20\n      add\n      swap1\n      dup2\n      mstore\n      0x20\n      add\n      0x00\n      keccak256\n        /* \"OnDemo/contracts/AccountManagement.sol\":8674:8708  User memory user = users[_address] */\n      mload(0x40)\n      dup1\n      0xc0\n      add\n      0x40\n      mstore\n      swap1\n      dup2\n      0x00\n      dup3\n      add\n      0x00\n      swap1\n      sload\n      swap1\n      0x0100\n      exp\n      swap1\n      div\n      0xffffffffffffffffffffffffffffffffffffffff\n      and\n      0xffffffffffffffffffffffffffffffffffffffff\n      and\n      0xffffffffffffffffffffffffffffffffffffffff\n      and\n      dup2\n      mstore\n      0x20\n      add\n      0x01\n      dup3\n      add\n      dup1\n      sload\n      tag_238\n      swap1\n      tag_88\n      jump\t// in\n    tag_238:\n      dup1\n      0x1f\n      add\n      0x20\n      dup1\n      swap2\n      div\n      mul\n      0x20\n      add\n      mload(0x40)\n      swap1\n      dup2\n      add\n      0x40\n      mstore\n      dup1\n      swap3\n      swap2\n      swap1\n      dup2\n      dup2\n      mstore\n      0x20\n      add\n      dup3\n      dup1\n      sload\n      tag_239\n      swap1\n      tag_88\n      jump\t// in\n    tag_239:\n      dup1\n      iszero\n      tag_240\n      jumpi\n      dup1\n      0x1f\n      lt\n      tag_241\n      jumpi\n      0x0100\n      dup1\n      dup4\n      sload\n      div\n      mul\n      dup4\n      mstore\n      swap2\n      0x20\n      add\n      swap2\n      jump(tag_240)\n    tag_241:\n      dup3\n      add\n      swap2\n      swap1\n      0x00\n      mstore\n      keccak256(0x00, 0x20)\n      swap1\n    tag_242:\n      dup2\n      sload\n      dup2\n      mstore\n      swap1\n      0x01\n      add\n      swap1\n      0x20\n      add\n      dup1\n      dup4\n      gt\n      tag_242\n      jumpi\n      dup3\n      swap1\n      sub\n      0x1f\n      and\n      dup3\n      add\n      swap2\n    tag_240:\n      pop\n      pop\n      pop\n      pop\n      pop\n      dup2\n      mstore\n      0x20\n      add\n      0x02\n      dup3\n      add\n      dup1\n      sload\n      tag_243\n      swap1\n      tag_88\n      jump\t// in\n    tag_243:\n      dup1\n      0x1f\n      add\n      0x20\n      dup1\n      swap2\n      div\n      mul\n      0x20\n      add\n      mload(0x40)\n      swap1\n      dup2\n      add\n      0x40\n      mstore\n      dup1\n      swap3\n      swap2\n      swap1\n      dup2\n      dup2\n      mstore\n      0x20\n      add\n      dup3\n      dup1\n      sload\n      tag_244\n      swap1\n      tag_88\n      jump\t// in\n    tag_244:\n      dup1\n      iszero\n      tag_245\n      jumpi\n      dup1\n      0x1f\n      lt\n      tag_246\n      jumpi\n      0x0100\n      dup1\n      dup4\n      sload\n      div\n      mul\n      dup4\n      mstore\n      swap2\n      0x20\n      add\n      swap2\n      jump(tag_245)\n    tag_246:\n      dup3\n      add\n      swap2\n      swap1\n      0x00\n      mstore\n      keccak256(0x00, 0x20)\n      swap1\n    tag_247:\n      dup2\n      sload\n      dup2\n      mstore\n      swap1\n      0x01\n      add\n      swap1\n      0x20\n      add\n      dup1\n      dup4\n      gt\n      tag_247\n      jumpi\n      dup3\n      swap1\n      sub\n      0x1f\n      and\n      dup3\n      add\n      swap2\n    tag_245:\n      pop\n      pop\n      pop\n      pop\n      pop\n      dup2\n      mstore\n      0x20\n      add\n      0x03\n      dup3\n      add\n      dup1\n      sload\n      tag_248\n      swap1\n      tag_88\n      jump\t// in\n    tag_248:\n      dup1\n      0x1f\n      add\n      0x20\n      dup1\n      swap2\n      div\n      mul\n      0x20\n      add\n      mload(0x40)\n      swap1\n      dup2\n      add\n      0x40\n      mstore\n      dup1\n      swap3\n      swap2\n      swap1\n      dup2\n      dup2\n      mstore\n      0x20\n      add\n      dup3\n      dup1\n      sload\n      tag_249\n      swap1\n      tag_88\n      jump\t// in\n    tag_249:\n      dup1\n      iszero\n      tag_250\n      jumpi\n      dup1\n      0x1f\n      lt\n      tag_251\n      jumpi\n      0x0100\n      dup1\n      dup4\n      sload\n      div\n      mul\n      dup4\n      mstore\n      swap2\n      0x20\n      add\n      swap2\n      jump(tag_250)\n    tag_251:\n      dup3\n      add\n      swap2\n      swap1\n      0x00\n      mstore\n      keccak256(0x00, 0x20)\n      swap1\n    tag_252:\n      dup2\n      sload\n      dup2\n      mstore\n      swap1\n      0x01\n      add\n      swap1\n      0x20\n      add\n      dup1\n      dup4\n      gt\n      tag_252\n      jumpi\n      dup3\n      swap1\n      sub\n      0x1f\n      and\n      dup3\n      add\n      swap2\n    tag_250:\n      pop\n      pop\n      pop\n      pop\n      pop\n      dup2\n      mstore\n      0x20\n      add\n      0x04\n      dup3\n      add\n      0x00\n      swap1\n      sload\n      swap1\n      0x0100\n      exp\n      swap1\n      div\n      0xff\n      and\n      iszero\n      iszero\n      iszero\n      iszero\n      dup2\n      mstore\n      0x20\n      add\n      0x05\n      dup3\n      add\n      mload(0x40)\n      dup1\n      0x80\n      add\n      0x40\n      mstore\n      swap1\n      dup2\n      0x00\n      dup3\n      add\n      0x00\n      swap1\n      sload\n      swap1\n      0x0100\n      exp\n      swap1\n      div\n      0xff\n      and\n      iszero\n      iszero\n      iszero\n      iszero\n      dup2\n      mstore\n      0x20\n      add\n      0x00\n      dup3\n      add\n      0x01\n      swap1\n      sload\n      swap1\n      0x0100\n      exp\n      swap1\n      div\n      0xff\n      and\n      iszero\n      iszero\n      iszero\n      iszero\n      dup2\n      mstore\n      0x20\n      add\n      0x00\n      dup3\n      add\n      0x02\n      swap1\n      sload\n      swap1\n      0x0100\n      exp\n      swap1\n      div\n      0xff\n      and\n      iszero\n      iszero\n      iszero\n      iszero\n      dup2\n      mstore\n      0x20\n      add\n      0x00\n      dup3\n      add\n      0x03\n      swap1\n      sload\n      swap1\n      0x0100\n      exp\n      swap1\n      div\n      0xff\n      and\n      iszero\n      iszero\n      iszero\n      iszero\n      dup2\n      mstore\n      pop\n      pop\n      dup2\n      mstore\n      pop\n      pop\n      swap1\n      pop\n        /* \"OnDemo/contracts/AccountManagement.sol\":8750:8751  0 */\n      0x00\n        /* \"OnDemo/contracts/AccountManagement.sol\":8722:8752  user.userAddress != address(0) */\n      0xffffffffffffffffffffffffffffffffffffffff\n      and\n        /* \"OnDemo/contracts/AccountManagement.sol\":8722:8726  user */\n      dup2\n        /* \"OnDemo/contracts/AccountManagement.sol\":8722:8738  user.userAddress */\n      0x00\n      add\n      mload\n        /* \"OnDemo/contracts/AccountManagement.sol\":8722:8752  user.userAddress != address(0) */\n      0xffffffffffffffffffffffffffffffffffffffff\n      and\n      eq\n        /* \"OnDemo/contracts/AccountManagement.sol\":8719:8936  if(user.userAddress != address(0))... */\n      tag_253\n      jumpi\n        /* \"OnDemo/contracts/AccountManagement.sol\":8781:8785  user */\n      dup1\n        /* \"OnDemo/contracts/AccountManagement.sol\":8781:8794  user.isActive */\n      0x80\n      add\n      mload\n        /* \"OnDemo/contracts/AccountManagement.sol\":8781:8878  user.isActive && (user.roleMap.isLeader || user.roleMap.isCouncilMember || user.roleMap.isMember) */\n      dup1\n      iszero\n      tag_254\n      jumpi\n      pop\n        /* \"OnDemo/contracts/AccountManagement.sol\":8799:8803  user */\n      dup1\n        /* \"OnDemo/contracts/AccountManagement.sol\":8799:8811  user.roleMap */\n      0xa0\n      add\n      mload\n        /* \"OnDemo/contracts/AccountManagement.sol\":8799:8820  user.roleMap.isLeader */\n      0x00\n      add\n      mload\n        /* \"OnDemo/contracts/AccountManagement.sol\":8799:8852  user.roleMap.isLeader || user.roleMap.isCouncilMember */\n      dup1\n      tag_255\n      jumpi\n      pop\n        /* \"OnDemo/contracts/AccountManagement.sol\":8824:8828  user */\n      dup1\n        /* \"OnDemo/contracts/AccountManagement.sol\":8824:8836  user.roleMap */\n      0xa0\n      add\n      mload\n        /* \"OnDemo/contracts/AccountManagement.sol\":8824:8852  user.roleMap.isCouncilMember */\n      0x20\n      add\n      mload\n        /* \"OnDemo/contracts/AccountManagement.sol\":8799:8852  user.roleMap.isLeader || user.roleMap.isCouncilMember */\n    tag_255:\n        /* \"OnDemo/contracts/AccountManagement.sol\":8799:8877  user.roleMap.isLeader || user.roleMap.isCouncilMember || user.roleMap.isMember */\n      dup1\n      tag_256\n      jumpi\n      pop\n        /* \"OnDemo/contracts/AccountManagement.sol\":8856:8860  user */\n      dup1\n        /* \"OnDemo/contracts/AccountManagement.sol\":8856:8868  user.roleMap */\n      0xa0\n      add\n      mload\n        /* \"OnDemo/contracts/AccountManagement.sol\":8856:8877  user.roleMap.isMember */\n      0x40\n      add\n      mload\n        /* \"OnDemo/contracts/AccountManagement.sol\":8799:8877  user.roleMap.isLeader || user.roleMap.isCouncilMember || user.roleMap.isMember */\n    tag_256:\n        /* \"OnDemo/contracts/AccountManagement.sol\":8781:8878  user.isActive && (user.roleMap.isLeader || user.roleMap.isCouncilMember || user.roleMap.isMember) */\n    tag_254:\n        /* \"OnDemo/contracts/AccountManagement.sol\":8778:8925  if(user.isActive && (user.roleMap.isLeader || user.roleMap.isCouncilMember || user.roleMap.isMember)){... */\n      iszero\n      tag_257\n      jumpi\n        /* \"OnDemo/contracts/AccountManagement.sol\":8905:8909  true */\n      0x01\n        /* \"OnDemo/contracts/AccountManagement.sol\":8898:8909  return true */\n      swap2\n      pop\n      pop\n      jump(tag_237)\n        /* \"OnDemo/contracts/AccountManagement.sol\":8778:8925  if(user.isActive && (user.roleMap.isLeader || user.roleMap.isCouncilMember || user.roleMap.isMember)){... */\n    tag_257:\n        /* \"OnDemo/contracts/AccountManagement.sol\":8719:8936  if(user.userAddress != address(0))... */\n    tag_253:\n        /* \"OnDemo/contracts/AccountManagement.sol\":8954:8959  false */\n      0x00\n        /* \"OnDemo/contracts/AccountManagement.sol\":8946:8959  return  false */\n      swap2\n      pop\n      pop\n        /* \"OnDemo/contracts/AccountManagement.sol\":8589:8967  function hasRightToSupport(address _address) external view returns (bool) {... */\n    tag_237:\n      swap2\n      swap1\n      pop\n      jump\t// out\n        /* \"OnDemo/contracts/AccountManagement.sol\":3618:3782  function burnAccount(address _address) public userExists(_address){  ... */\n    tag_73:\n        /* \"OnDemo/contracts/AccountManagement.sol\":3675:3683  _address */\n      dup1\n        /* \"OnDemo/contracts/AccountManagement.sol\":2006:2007  0 */\n      0x00\n        /* \"OnDemo/contracts/AccountManagement.sol\":1967:2008  users[_address].userAddress != address(0) */\n      0xffffffffffffffffffffffffffffffffffffffff\n      and\n        /* \"OnDemo/contracts/AccountManagement.sol\":1967:1972  users */\n      0x02\n        /* \"OnDemo/contracts/AccountManagement.sol\":1967:1982  users[_address] */\n      0x00\n        /* \"OnDemo/contracts/AccountManagement.sol\":1973:1981  _address */\n      dup4\n        /* \"OnDemo/contracts/AccountManagement.sol\":1967:1982  users[_address] */\n      0xffffffffffffffffffffffffffffffffffffffff\n      and\n      0xffffffffffffffffffffffffffffffffffffffff\n      and\n      dup2\n      mstore\n      0x20\n      add\n      swap1\n      dup2\n      mstore\n      0x20\n      add\n      0x00\n      keccak256\n        /* \"OnDemo/contracts/AccountManagement.sol\":1967:1994  users[_address].userAddress */\n      0x00\n      add\n      0x00\n      swap1\n      sload\n      swap1\n      0x0100\n      exp\n      swap1\n      div\n      0xffffffffffffffffffffffffffffffffffffffff\n      and\n        /* \"OnDemo/contracts/AccountManagement.sol\":1967:2008  users[_address].userAddress != address(0) */\n      0xffffffffffffffffffffffffffffffffffffffff\n      and\n      eq\n      iszero\n        /* \"OnDemo/contracts/AccountManagement.sol\":1959:2034  require(users[_address].userAddress != address(0), \"Account doesn't exist\") */\n      tag_259\n      jumpi\n      mload(0x40)\n      0x08c379a000000000000000000000000000000000000000000000000000000000\n      dup2\n      mstore\n      0x04\n      add\n      tag_260\n      swap1\n      tag_136\n      jump\t// in\n    tag_260:\n      mload(0x40)\n      dup1\n      swap2\n      sub\n      swap1\n      revert\n    tag_259:\n        /* \"OnDemo/contracts/AccountManagement.sol\":3697:3725  makeAccountPassive(_address) */\n      tag_262\n        /* \"OnDemo/contracts/AccountManagement.sol\":3716:3724  _address */\n      dup3\n        /* \"OnDemo/contracts/AccountManagement.sol\":3697:3715  makeAccountPassive */\n      tag_45\n        /* \"OnDemo/contracts/AccountManagement.sol\":3697:3725  makeAccountPassive(_address) */\n      jump\t// in\n    tag_262:\n        /* \"OnDemo/contracts/AccountManagement.sol\":3750:3755  users */\n      0x02\n        /* \"OnDemo/contracts/AccountManagement.sol\":3750:3765  users[_address] */\n      0x00\n        /* \"OnDemo/contracts/AccountManagement.sol\":3756:3764  _address */\n      dup4\n        /* \"OnDemo/contracts/AccountManagement.sol\":3750:3765  users[_address] */\n      0xffffffffffffffffffffffffffffffffffffffff\n      and\n      0xffffffffffffffffffffffffffffffffffffffff\n      and\n      dup2\n      mstore\n      0x20\n      add\n      swap1\n      dup2\n      mstore\n      0x20\n      add\n      0x00\n      keccak256\n      0x00\n        /* \"OnDemo/contracts/AccountManagement.sol\":3743:3765  delete users[_address] */\n      dup1\n      dup3\n      add\n      exp(0x0100, 0x00)\n      dup2\n      sload\n      swap1\n      0xffffffffffffffffffffffffffffffffffffffff\n      mul\n      not\n      and\n      swap1\n      sstore\n      0x01\n      dup3\n      add\n      0x00\n      tag_263\n      swap2\n      swap1\n      tag_264\n      jump\t// in\n    tag_263:\n      0x02\n      dup3\n      add\n      0x00\n      tag_265\n      swap2\n      swap1\n      tag_264\n      jump\t// in\n    tag_265:\n      0x03\n      dup3\n      add\n      0x00\n      tag_266\n      swap2\n      swap1\n      tag_264\n      jump\t// in\n    tag_266:\n      0x04\n      dup3\n      add\n      exp(0x0100, 0x00)\n      dup2\n      sload\n      swap1\n      0xff\n      mul\n      not\n      and\n      swap1\n      sstore\n      0x05\n      dup3\n      add\n      0x00\n      dup1\n      dup3\n      add\n      exp(0x0100, 0x00)\n      dup2\n      sload\n      swap1\n      0xff\n      mul\n      not\n      and\n      swap1\n      sstore\n      0x00\n      dup3\n      add\n      exp(0x0100, 0x01)\n      dup2\n      sload\n      swap1\n      0xff\n      mul\n      not\n      and\n      swap1\n      sstore\n      0x00\n      dup3\n      add\n      exp(0x0100, 0x02)\n      dup2\n      sload\n      swap1\n      0xff\n      mul\n      not\n      and\n      swap1\n      sstore\n      0x00\n      dup3\n      add\n      exp(0x0100, 0x03)\n      dup2\n      sload\n      swap1\n      0xff\n      mul\n      not\n      and\n      swap1\n      sstore\n      pop\n      pop\n      pop\n      pop\n        /* \"OnDemo/contracts/AccountManagement.sol\":3618:3782  function burnAccount(address _address) public userExists(_address){  ... */\n      pop\n      pop\n      jump\t// out\n        /* \"OnDemo/contracts/AccountManagement.sol\":2356:2721  function createAccount(address _address, string memory _firstName, string memory _secondName, string memory _mailAdress) public userNotExists(_address){... */\n    tag_77:\n        /* \"OnDemo/contracts/AccountManagement.sol\":2498:2506  _address */\n      dup4\n        /* \"OnDemo/contracts/AccountManagement.sol\":2160:2161  0 */\n      0x00\n        /* \"OnDemo/contracts/AccountManagement.sol\":2121:2162  users[_address].userAddress == address(0) */\n      0xffffffffffffffffffffffffffffffffffffffff\n      and\n        /* \"OnDemo/contracts/AccountManagement.sol\":2121:2126  users */\n      0x02\n        /* \"OnDemo/contracts/AccountManagement.sol\":2121:2136  users[_address] */\n      0x00\n        /* \"OnDemo/contracts/AccountManagement.sol\":2127:2135  _address */\n      dup4\n        /* \"OnDemo/contracts/AccountManagement.sol\":2121:2136  users[_address] */\n      0xffffffffffffffffffffffffffffffffffffffff\n      and\n      0xffffffffffffffffffffffffffffffffffffffff\n      and\n      dup2\n      mstore\n      0x20\n      add\n      swap1\n      dup2\n      mstore\n      0x20\n      add\n      0x00\n      keccak256\n        /* \"OnDemo/contracts/AccountManagement.sol\":2121:2148  users[_address].userAddress */\n      0x00\n      add\n      0x00\n      swap1\n      sload\n      swap1\n      0x0100\n      exp\n      swap1\n      div\n      0xffffffffffffffffffffffffffffffffffffffff\n      and\n        /* \"OnDemo/contracts/AccountManagement.sol\":2121:2162  users[_address].userAddress == address(0) */\n      0xffffffffffffffffffffffffffffffffffffffff\n      and\n      eq\n        /* \"OnDemo/contracts/AccountManagement.sol\":2113:2189  require(users[_address].userAddress == address(0), \"Account already exists\") */\n      tag_268\n      jumpi\n      mload(0x40)\n      0x08c379a000000000000000000000000000000000000000000000000000000000\n      dup2\n      mstore\n      0x04\n      add\n      tag_269\n      swap1\n      tag_270\n      jump\t// in\n    tag_269:\n      mload(0x40)\n      dup1\n      swap2\n      sub\n      swap1\n      revert\n    tag_268:\n        /* \"OnDemo/contracts/AccountManagement.sol\":2518:2540  RoleMap memory roleMap */\n      0x00\n        /* \"OnDemo/contracts/AccountManagement.sol\":2543:2577  RoleMap(false, false, false, true) */\n      mload(0x40)\n      dup1\n      0x80\n      add\n      0x40\n      mstore\n      dup1\n        /* \"OnDemo/contracts/AccountManagement.sol\":2551:2556  false */\n      0x00\n        /* \"OnDemo/contracts/AccountManagement.sol\":2543:2577  RoleMap(false, false, false, true) */\n      iszero\n      iszero\n      dup2\n      mstore\n      0x20\n      add\n        /* \"OnDemo/contracts/AccountManagement.sol\":2558:2563  false */\n      0x00\n        /* \"OnDemo/contracts/AccountManagement.sol\":2543:2577  RoleMap(false, false, false, true) */\n      iszero\n      iszero\n      dup2\n      mstore\n      0x20\n      add\n        /* \"OnDemo/contracts/AccountManagement.sol\":2565:2570  false */\n      0x00\n        /* \"OnDemo/contracts/AccountManagement.sol\":2543:2577  RoleMap(false, false, false, true) */\n      iszero\n      iszero\n      dup2\n      mstore\n      0x20\n      add\n        /* \"OnDemo/contracts/AccountManagement.sol\":2572:2576  true */\n      0x01\n        /* \"OnDemo/contracts/AccountManagement.sol\":2543:2577  RoleMap(false, false, false, true) */\n      iszero\n      iszero\n      dup2\n      mstore\n      pop\n        /* \"OnDemo/contracts/AccountManagement.sol\":2518:2577  RoleMap memory roleMap = RoleMap(false, false, false, true) */\n      swap1\n      pop\n        /* \"OnDemo/contracts/AccountManagement.sol\":2588:2604  User memory user */\n      0x00\n        /* \"OnDemo/contracts/AccountManagement.sol\":2607:2675  User(_address, _firstName, _secondName, _mailAdress, false, roleMap) */\n      mload(0x40)\n      dup1\n      0xc0\n      add\n      0x40\n      mstore\n      dup1\n        /* \"OnDemo/contracts/AccountManagement.sol\":2612:2620  _address */\n      dup9\n        /* \"OnDemo/contracts/AccountManagement.sol\":2607:2675  User(_address, _firstName, _secondName, _mailAdress, false, roleMap) */\n      0xffffffffffffffffffffffffffffffffffffffff\n      and\n      dup2\n      mstore\n      0x20\n      add\n        /* \"OnDemo/contracts/AccountManagement.sol\":2622:2632  _firstName */\n      dup8\n        /* \"OnDemo/contracts/AccountManagement.sol\":2607:2675  User(_address, _firstName, _secondName, _mailAdress, false, roleMap) */\n      dup2\n      mstore\n      0x20\n      add\n        /* \"OnDemo/contracts/AccountManagement.sol\":2634:2645  _secondName */\n      dup7\n        /* \"OnDemo/contracts/AccountManagement.sol\":2607:2675  User(_address, _firstName, _secondName, _mailAdress, false, roleMap) */\n      dup2\n      mstore\n      0x20\n      add\n        /* \"OnDemo/contracts/AccountManagement.sol\":2647:2658  _mailAdress */\n      dup6\n        /* \"OnDemo/contracts/AccountManagement.sol\":2607:2675  User(_address, _firstName, _secondName, _mailAdress, false, roleMap) */\n      dup2\n      mstore\n      0x20\n      add\n        /* \"OnDemo/contracts/AccountManagement.sol\":2660:2665  false */\n      0x00\n        /* \"OnDemo/contracts/AccountManagement.sol\":2607:2675  User(_address, _firstName, _secondName, _mailAdress, false, roleMap) */\n      iszero\n      iszero\n      dup2\n      mstore\n      0x20\n      add\n        /* \"OnDemo/contracts/AccountManagement.sol\":2667:2674  roleMap */\n      dup4\n        /* \"OnDemo/contracts/AccountManagement.sol\":2607:2675  User(_address, _firstName, _secondName, _mailAdress, false, roleMap) */\n      dup2\n      mstore\n      pop\n        /* \"OnDemo/contracts/AccountManagement.sol\":2588:2675  User memory user = User(_address, _firstName, _secondName, _mailAdress, false, roleMap) */\n      swap1\n      pop\n        /* \"OnDemo/contracts/AccountManagement.sol\":2704:2708  user */\n      dup1\n        /* \"OnDemo/contracts/AccountManagement.sol\":2686:2691  users */\n      0x02\n        /* \"OnDemo/contracts/AccountManagement.sol\":2686:2701  users[_address] */\n      0x00\n        /* \"OnDemo/contracts/AccountManagement.sol\":2692:2700  _address */\n      dup10\n        /* \"OnDemo/contracts/AccountManagement.sol\":2686:2701  users[_address] */\n      0xffffffffffffffffffffffffffffffffffffffff\n      and\n      0xffffffffffffffffffffffffffffffffffffffff\n      and\n      dup2\n      mstore\n      0x20\n      add\n      swap1\n      dup2\n      mstore\n      0x20\n      add\n      0x00\n      keccak256\n        /* \"OnDemo/contracts/AccountManagement.sol\":2686:2708  users[_address] = user */\n      0x00\n      dup3\n      add\n      mload\n      dup2\n      0x00\n      add\n      exp(0x0100, 0x00)\n      dup2\n      sload\n      dup2\n      0xffffffffffffffffffffffffffffffffffffffff\n      mul\n      not\n      and\n      swap1\n      dup4\n      0xffffffffffffffffffffffffffffffffffffffff\n      and\n      mul\n      or\n      swap1\n      sstore\n      pop\n      0x20\n      dup3\n      add\n      mload\n      dup2\n      0x01\n      add\n      swap1\n      dup1\n      mload\n      swap1\n      0x20\n      add\n      swap1\n      tag_272\n      swap3\n      swap2\n      swap1\n      tag_273\n      jump\t// in\n    tag_272:\n      pop\n      0x40\n      dup3\n      add\n      mload\n      dup2\n      0x02\n      add\n      swap1\n      dup1\n      mload\n      swap1\n      0x20\n      add\n      swap1\n      tag_274\n      swap3\n      swap2\n      swap1\n      tag_273\n      jump\t// in\n    tag_274:\n      pop\n      0x60\n      dup3\n      add\n      mload\n      dup2\n      0x03\n      add\n      swap1\n      dup1\n      mload\n      swap1\n      0x20\n      add\n      swap1\n      tag_275\n      swap3\n      swap2\n      swap1\n      tag_273\n      jump\t// in\n    tag_275:\n      pop\n      0x80\n      dup3\n      add\n      mload\n      dup2\n      0x04\n      add\n      exp(0x0100, 0x00)\n      dup2\n      sload\n      dup2\n      0xff\n      mul\n      not\n      and\n      swap1\n      dup4\n      iszero\n      iszero\n      mul\n      or\n      swap1\n      sstore\n      pop\n      0xa0\n      dup3\n      add\n      mload\n      dup2\n      0x05\n      add\n      0x00\n      dup3\n      add\n      mload\n      dup2\n      0x00\n      add\n      exp(0x0100, 0x00)\n      dup2\n      sload\n      dup2\n      0xff\n      mul\n      not\n      and\n      swap1\n      dup4\n      iszero\n      iszero\n      mul\n      or\n      swap1\n      sstore\n      pop\n      0x20\n      dup3\n      add\n      mload\n      dup2\n      0x00\n      add\n      exp(0x0100, 0x01)\n      dup2\n      sload\n      dup2\n      0xff\n      mul\n      not\n      and\n      swap1\n      dup4\n      iszero\n      iszero\n      mul\n      or\n      swap1\n      sstore\n      pop\n      0x40\n      dup3\n      add\n      mload\n      dup2\n      0x00\n      add\n      exp(0x0100, 0x02)\n      dup2\n      sload\n      dup2\n      0xff\n      mul\n      not\n      and\n      swap1\n      dup4\n      iszero\n      iszero\n      mul\n      or\n      swap1\n      sstore\n      pop\n      0x60\n      dup3\n      add\n      mload\n      dup2\n      0x00\n      add\n      exp(0x0100, 0x03)\n      dup2\n      sload\n      dup2\n      0xff\n      mul\n      not\n      and\n      swap1\n      dup4\n      iszero\n      iszero\n      mul\n      or\n      swap1\n      sstore\n      pop\n      pop\n      pop\n      swap1\n      pop\n      pop\n        /* \"OnDemo/contracts/AccountManagement.sol\":2507:2721  {... */\n      pop\n      pop\n        /* \"OnDemo/contracts/AccountManagement.sol\":2356:2721  function createAccount(address _address, string memory _firstName, string memory _secondName, string memory _mailAdress) public userNotExists(_address){... */\n      pop\n      pop\n      pop\n      pop\n      pop\n      jump\t// out\n        /* \"OnDemo/contracts/AccountManagement.sol\":7429:7551  function hasGuestRole(address _address) public view returns (bool) {... */\n    tag_80:\n        /* \"OnDemo/contracts/AccountManagement.sol\":7490:7494  bool */\n      0x00\n        /* \"OnDemo/contracts/AccountManagement.sol\":7514:7543  hasRole(_address, Role.GUEST) */\n      tag_277\n        /* \"OnDemo/contracts/AccountManagement.sol\":7522:7530  _address */\n      dup3\n        /* \"OnDemo/contracts/AccountManagement.sol\":7532:7542  Role.GUEST */\n      0x03\n        /* \"OnDemo/contracts/AccountManagement.sol\":7514:7521  hasRole */\n      tag_110\n        /* \"OnDemo/contracts/AccountManagement.sol\":7514:7543  hasRole(_address, Role.GUEST) */\n      jump\t// in\n    tag_277:\n        /* \"OnDemo/contracts/AccountManagement.sol\":7507:7543  return hasRole(_address, Role.GUEST) */\n      swap1\n      pop\n        /* \"OnDemo/contracts/AccountManagement.sol\":7429:7551  function hasGuestRole(address _address) public view returns (bool) {... */\n      swap2\n      swap1\n      pop\n      jump\t// out\n        /* \"OnDemo/contracts/AccountManagement.sol\":7143:7281  function hasCouncilMemberRole(address _address) public view returns (bool) {... */\n    tag_84:\n        /* \"OnDemo/contracts/AccountManagement.sol\":7212:7216  bool */\n      0x00\n        /* \"OnDemo/contracts/AccountManagement.sol\":7236:7273  hasRole(_address, Role.COUNCILMEMBER) */\n      tag_279\n        /* \"OnDemo/contracts/AccountManagement.sol\":7244:7252  _address */\n      dup3\n        /* \"OnDemo/contracts/AccountManagement.sol\":7254:7272  Role.COUNCILMEMBER */\n      0x01\n        /* \"OnDemo/contracts/AccountManagement.sol\":7236:7243  hasRole */\n      tag_110\n        /* \"OnDemo/contracts/AccountManagement.sol\":7236:7273  hasRole(_address, Role.COUNCILMEMBER) */\n      jump\t// in\n    tag_279:\n        /* \"OnDemo/contracts/AccountManagement.sol\":7229:7273  return hasRole(_address, Role.COUNCILMEMBER) */\n      swap1\n      pop\n        /* \"OnDemo/contracts/AccountManagement.sol\":7143:7281  function hasCouncilMemberRole(address _address) public view returns (bool) {... */\n      swap2\n      swap1\n      pop\n      jump\t// out\n        /* \"OnDemo/contracts/AccountManagement.sol\":6429:6999  function hasRole(address _address, Role _role) private view returns (bool){... */\n    tag_110:\n        /* \"OnDemo/contracts/AccountManagement.sol\":6498:6502  bool */\n      0x00\n        /* \"OnDemo/contracts/AccountManagement.sol\":6514:6530  User memory user */\n      dup1\n        /* \"OnDemo/contracts/AccountManagement.sol\":6533:6538  users */\n      0x02\n        /* \"OnDemo/contracts/AccountManagement.sol\":6533:6548  users[_address] */\n      0x00\n        /* \"OnDemo/contracts/AccountManagement.sol\":6539:6547  _address */\n      dup6\n        /* \"OnDemo/contracts/AccountManagement.sol\":6533:6548  users[_address] */\n      0xffffffffffffffffffffffffffffffffffffffff\n      and\n      0xffffffffffffffffffffffffffffffffffffffff\n      and\n      dup2\n      mstore\n      0x20\n      add\n      swap1\n      dup2\n      mstore\n      0x20\n      add\n      0x00\n      keccak256\n        /* \"OnDemo/contracts/AccountManagement.sol\":6514:6548  User memory user = users[_address] */\n      mload(0x40)\n      dup1\n      0xc0\n      add\n      0x40\n      mstore\n      swap1\n      dup2\n      0x00\n      dup3\n      add\n      0x00\n      swap1\n      sload\n      swap1\n      0x0100\n      exp\n      swap1\n      div\n      0xffffffffffffffffffffffffffffffffffffffff\n      and\n      0xffffffffffffffffffffffffffffffffffffffff\n      and\n      0xffffffffffffffffffffffffffffffffffffffff\n      and\n      dup2\n      mstore\n      0x20\n      add\n      0x01\n      dup3\n      add\n      dup1\n      sload\n      tag_281\n      swap1\n      tag_88\n      jump\t// in\n    tag_281:\n      dup1\n      0x1f\n      add\n      0x20\n      dup1\n      swap2\n      div\n      mul\n      0x20\n      add\n      mload(0x40)\n      swap1\n      dup2\n      add\n      0x40\n      mstore\n      dup1\n      swap3\n      swap2\n      swap1\n      dup2\n      dup2\n      mstore\n      0x20\n      add\n      dup3\n      dup1\n      sload\n      tag_282\n      swap1\n      tag_88\n      jump\t// in\n    tag_282:\n      dup1\n      iszero\n      tag_283\n      jumpi\n      dup1\n      0x1f\n      lt\n      tag_284\n      jumpi\n      0x0100\n      dup1\n      dup4\n      sload\n      div\n      mul\n      dup4\n      mstore\n      swap2\n      0x20\n      add\n      swap2\n      jump(tag_283)\n    tag_284:\n      dup3\n      add\n      swap2\n      swap1\n      0x00\n      mstore\n      keccak256(0x00, 0x20)\n      swap1\n    tag_285:\n      dup2\n      sload\n      dup2\n      mstore\n      swap1\n      0x01\n      add\n      swap1\n      0x20\n      add\n      dup1\n      dup4\n      gt\n      tag_285\n      jumpi\n      dup3\n      swap1\n      sub\n      0x1f\n      and\n      dup3\n      add\n      swap2\n    tag_283:\n      pop\n      pop\n      pop\n      pop\n      pop\n      dup2\n      mstore\n      0x20\n      add\n      0x02\n      dup3\n      add\n      dup1\n      sload\n      tag_286\n      swap1\n      tag_88\n      jump\t// in\n    tag_286:\n      dup1\n      0x1f\n      add\n      0x20\n      dup1\n      swap2\n      div\n      mul\n      0x20\n      add\n      mload(0x40)\n      swap1\n      dup2\n      add\n      0x40\n      mstore\n      dup1\n      swap3\n      swap2\n      swap1\n      dup2\n      dup2\n      mstore\n      0x20\n      add\n      dup3\n      dup1\n      sload\n      tag_287\n      swap1\n      tag_88\n      jump\t// in\n    tag_287:\n      dup1\n      iszero\n      tag_288\n      jumpi\n      dup1\n      0x1f\n      lt\n      tag_289\n      jumpi\n      0x0100\n      dup1\n      dup4\n      sload\n      div\n      mul\n      dup4\n      mstore\n      swap2\n      0x20\n      add\n      swap2\n      jump(tag_288)\n    tag_289:\n      dup3\n      add\n      swap2\n      swap1\n      0x00\n      mstore\n      keccak256(0x00, 0x20)\n      swap1\n    tag_290:\n      dup2\n      sload\n      dup2\n      mstore\n      swap1\n      0x01\n      add\n      swap1\n      0x20\n      add\n      dup1\n      dup4\n      gt\n      tag_290\n      jumpi\n      dup3\n      swap1\n      sub\n      0x1f\n      and\n      dup3\n      add\n      swap2\n    tag_288:\n      pop\n      pop\n      pop\n      pop\n      pop\n      dup2\n      mstore\n      0x20\n      add\n      0x03\n      dup3\n      add\n      dup1\n      sload\n      tag_291\n      swap1\n      tag_88\n      jump\t// in\n    tag_291:\n      dup1\n      0x1f\n      add\n      0x20\n      dup1\n      swap2\n      div\n      mul\n      0x20\n      add\n      mload(0x40)\n      swap1\n      dup2\n      add\n      0x40\n      mstore\n      dup1\n      swap3\n      swap2\n      swap1\n      dup2\n      dup2\n      mstore\n      0x20\n      add\n      dup3\n      dup1\n      sload\n      tag_292\n      swap1\n      tag_88\n      jump\t// in\n    tag_292:\n      dup1\n      iszero\n      tag_293\n      jumpi\n      dup1\n      0x1f\n      lt\n      tag_294\n      jumpi\n      0x0100\n      dup1\n      dup4\n      sload\n      div\n      mul\n      dup4\n      mstore\n      swap2\n      0x20\n      add\n      swap2\n      jump(tag_293)\n    tag_294:\n      dup3\n      add\n      swap2\n      swap1\n      0x00\n      mstore\n      keccak256(0x00, 0x20)\n      swap1\n    tag_295:\n      dup2\n      sload\n      dup2\n      mstore\n      swap1\n      0x01\n      add\n      swap1\n      0x20\n      add\n      dup1\n      dup4\n      gt\n      tag_295\n      jumpi\n      dup3\n      swap1\n      sub\n      0x1f\n      and\n      dup3\n      add\n      swap2\n    tag_293:\n      pop\n      pop\n      pop\n      pop\n      pop\n      dup2\n      mstore\n      0x20\n      add\n      0x04\n      dup3\n      add\n      0x00\n      swap1\n      sload\n      swap1\n      0x0100\n      exp\n      swap1\n      div\n      0xff\n      and\n      iszero\n      iszero\n      iszero\n      iszero\n      dup2\n      mstore\n      0x20\n      add\n      0x05\n      dup3\n      add\n      mload(0x40)\n      dup1\n      0x80\n      add\n      0x40\n      mstore\n      swap1\n      dup2\n      0x00\n      dup3\n      add\n      0x00\n      swap1\n      sload\n      swap1\n      0x0100\n      exp\n      swap1\n      div\n      0xff\n      and\n      iszero\n      iszero\n      iszero\n      iszero\n      dup2\n      mstore\n      0x20\n      add\n      0x00\n      dup3\n      add\n      0x01\n      swap1\n      sload\n      swap1\n      0x0100\n      exp\n      swap1\n      div\n      0xff\n      and\n      iszero\n      iszero\n      iszero\n      iszero\n      dup2\n      mstore\n      0x20\n      add\n      0x00\n      dup3\n      add\n      0x02\n      swap1\n      sload\n      swap1\n      0x0100\n      exp\n      swap1\n      div\n      0xff\n      and\n      iszero\n      iszero\n      iszero\n      iszero\n      dup2\n      mstore\n      0x20\n      add\n      0x00\n      dup3\n      add\n      0x03\n      swap1\n      sload\n      swap1\n      0x0100\n      exp\n      swap1\n      div\n      0xff\n      and\n      iszero\n      iszero\n      iszero\n      iszero\n      dup2\n      mstore\n      pop\n      pop\n      dup2\n      mstore\n      pop\n      pop\n      swap1\n      pop\n        /* \"OnDemo/contracts/AccountManagement.sol\":6559:6581  RoleMap memory roleMap */\n      0x00\n        /* \"OnDemo/contracts/AccountManagement.sol\":6584:6588  user */\n      dup2\n        /* \"OnDemo/contracts/AccountManagement.sol\":6584:6596  user.roleMap */\n      0xa0\n      add\n      mload\n        /* \"OnDemo/contracts/AccountManagement.sol\":6559:6596  RoleMap memory roleMap = user.roleMap */\n      swap1\n      pop\n        /* \"OnDemo/contracts/AccountManagement.sol\":6621:6632  Role.LEADER */\n      0x00\n        /* \"OnDemo/contracts/AccountManagement.sol\":6612:6632  _role == Role.LEADER */\n      0x03\n      dup2\n      gt\n      iszero\n      tag_296\n      jumpi\n      tag_297\n      tag_153\n      jump\t// in\n    tag_297:\n    tag_296:\n        /* \"OnDemo/contracts/AccountManagement.sol\":6612:6617  _role */\n      dup5\n        /* \"OnDemo/contracts/AccountManagement.sol\":6612:6632  _role == Role.LEADER */\n      0x03\n      dup2\n      gt\n      iszero\n      tag_298\n      jumpi\n      tag_299\n      tag_153\n      jump\t// in\n    tag_299:\n    tag_298:\n      eq\n        /* \"OnDemo/contracts/AccountManagement.sol\":6609:6969  if(_role == Role.LEADER){... */\n      iszero\n      tag_300\n      jumpi\n        /* \"OnDemo/contracts/AccountManagement.sol\":6655:6662  roleMap */\n      dup1\n        /* \"OnDemo/contracts/AccountManagement.sol\":6655:6671  roleMap.isLeader */\n      0x00\n      add\n      mload\n        /* \"OnDemo/contracts/AccountManagement.sol\":6648:6671  return roleMap.isLeader */\n      swap3\n      pop\n      pop\n      pop\n      jump(tag_280)\n        /* \"OnDemo/contracts/AccountManagement.sol\":6609:6969  if(_role == Role.LEADER){... */\n    tag_300:\n        /* \"OnDemo/contracts/AccountManagement.sol\":6710:6728  Role.COUNCILMEMBER */\n      0x01\n        /* \"OnDemo/contracts/AccountManagement.sol\":6701:6728  _role == Role.COUNCILMEMBER */\n      0x03\n      dup2\n      gt\n      iszero\n      tag_302\n      jumpi\n      tag_303\n      tag_153\n      jump\t// in\n    tag_303:\n    tag_302:\n        /* \"OnDemo/contracts/AccountManagement.sol\":6701:6706  _role */\n      dup5\n        /* \"OnDemo/contracts/AccountManagement.sol\":6701:6728  _role == Role.COUNCILMEMBER */\n      0x03\n      dup2\n      gt\n      iszero\n      tag_304\n      jumpi\n      tag_305\n      tag_153\n      jump\t// in\n    tag_305:\n    tag_304:\n      eq\n        /* \"OnDemo/contracts/AccountManagement.sol\":6698:6969  if(_role == Role.COUNCILMEMBER){... */\n      iszero\n      tag_306\n      jumpi\n        /* \"OnDemo/contracts/AccountManagement.sol\":6751:6758  roleMap */\n      dup1\n        /* \"OnDemo/contracts/AccountManagement.sol\":6751:6774  roleMap.isCouncilMember */\n      0x20\n      add\n      mload\n        /* \"OnDemo/contracts/AccountManagement.sol\":6744:6774  return roleMap.isCouncilMember */\n      swap3\n      pop\n      pop\n      pop\n      jump(tag_280)\n        /* \"OnDemo/contracts/AccountManagement.sol\":6698:6969  if(_role == Role.COUNCILMEMBER){... */\n    tag_306:\n        /* \"OnDemo/contracts/AccountManagement.sol\":6820:6831  Role.MEMBER */\n      0x02\n        /* \"OnDemo/contracts/AccountManagement.sol\":6811:6831  _role == Role.MEMBER */\n      0x03\n      dup2\n      gt\n      iszero\n      tag_308\n      jumpi\n      tag_309\n      tag_153\n      jump\t// in\n    tag_309:\n    tag_308:\n        /* \"OnDemo/contracts/AccountManagement.sol\":6811:6816  _role */\n      dup5\n        /* \"OnDemo/contracts/AccountManagement.sol\":6811:6831  _role == Role.MEMBER */\n      0x03\n      dup2\n      gt\n      iszero\n      tag_310\n      jumpi\n      tag_311\n      tag_153\n      jump\t// in\n    tag_311:\n    tag_310:\n      eq\n        /* \"OnDemo/contracts/AccountManagement.sol\":6808:6969  if(_role == Role.MEMBER){... */\n      iszero\n      tag_312\n      jumpi\n        /* \"OnDemo/contracts/AccountManagement.sol\":6854:6861  roleMap */\n      dup1\n        /* \"OnDemo/contracts/AccountManagement.sol\":6854:6870  roleMap.isMember */\n      0x40\n      add\n      mload\n        /* \"OnDemo/contracts/AccountManagement.sol\":6847:6870  return roleMap.isMember */\n      swap3\n      pop\n      pop\n      pop\n      jump(tag_280)\n        /* \"OnDemo/contracts/AccountManagement.sol\":6808:6969  if(_role == Role.MEMBER){... */\n    tag_312:\n        /* \"OnDemo/contracts/AccountManagement.sol\":6909:6919  Role.GUEST */\n      0x03\n        /* \"OnDemo/contracts/AccountManagement.sol\":6900:6919  _role == Role.GUEST */\n      dup1\n      dup2\n      gt\n      iszero\n      tag_314\n      jumpi\n      tag_315\n      tag_153\n      jump\t// in\n    tag_315:\n    tag_314:\n        /* \"OnDemo/contracts/AccountManagement.sol\":6900:6905  _role */\n      dup5\n        /* \"OnDemo/contracts/AccountManagement.sol\":6900:6919  _role == Role.GUEST */\n      0x03\n      dup2\n      gt\n      iszero\n      tag_316\n      jumpi\n      tag_317\n      tag_153\n      jump\t// in\n    tag_317:\n    tag_316:\n      eq\n        /* \"OnDemo/contracts/AccountManagement.sol\":6897:6969  if(_role == Role.GUEST){... */\n      iszero\n      tag_318\n      jumpi\n        /* \"OnDemo/contracts/AccountManagement.sol\":6942:6949  roleMap */\n      dup1\n        /* \"OnDemo/contracts/AccountManagement.sol\":6942:6957  roleMap.isGuest */\n      0x60\n      add\n      mload\n        /* \"OnDemo/contracts/AccountManagement.sol\":6935:6957  return roleMap.isGuest */\n      swap3\n      pop\n      pop\n      pop\n      jump(tag_280)\n        /* \"OnDemo/contracts/AccountManagement.sol\":6897:6969  if(_role == Role.GUEST){... */\n    tag_318:\n        /* \"OnDemo/contracts/AccountManagement.sol\":6986:6991  false */\n      0x00\n        /* \"OnDemo/contracts/AccountManagement.sol\":6979:6991  return false */\n      swap3\n      pop\n      pop\n      pop\n        /* \"OnDemo/contracts/AccountManagement.sol\":6429:6999  function hasRole(address _address, Role _role) private view returns (bool){... */\n    tag_280:\n      swap3\n      swap2\n      pop\n      pop\n      jump\t// out\n    tag_264:\n      pop\n      dup1\n      sload\n      tag_319\n      swap1\n      tag_88\n      jump\t// in\n    tag_319:\n      0x00\n      dup3\n      sstore\n      dup1\n      0x1f\n      lt\n      tag_321\n      jumpi\n      pop\n      jump(tag_320)\n    tag_321:\n      0x1f\n      add\n      0x20\n      swap1\n      div\n      swap1\n      0x00\n      mstore\n      keccak256(0x00, 0x20)\n      swap1\n      dup2\n      add\n      swap1\n      tag_322\n      swap2\n      swap1\n      tag_323\n      jump\t// in\n    tag_322:\n    tag_320:\n      pop\n      jump\t// out\n    tag_273:\n      dup3\n      dup1\n      sload\n      tag_324\n      swap1\n      tag_88\n      jump\t// in\n    tag_324:\n      swap1\n      0x00\n      mstore\n      keccak256(0x00, 0x20)\n      swap1\n      0x1f\n      add\n      0x20\n      swap1\n      div\n      dup2\n      add\n      swap3\n      dup3\n      tag_326\n      jumpi\n      0x00\n      dup6\n      sstore\n      jump(tag_325)\n    tag_326:\n      dup3\n      0x1f\n      lt\n      tag_327\n      jumpi\n      dup1\n      mload\n      not(0xff)\n      and\n      dup4\n      dup1\n      add\n      or\n      dup6\n      sstore\n      jump(tag_325)\n    tag_327:\n      dup3\n      dup1\n      add\n      0x01\n      add\n      dup6\n      sstore\n      dup3\n      iszero\n      tag_325\n      jumpi\n      swap2\n      dup3\n      add\n    tag_328:\n      dup3\n      dup2\n      gt\n      iszero\n      tag_329\n      jumpi\n      dup3\n      mload\n      dup3\n      sstore\n      swap2\n      0x20\n      add\n      swap2\n      swap1\n      0x01\n      add\n      swap1\n      jump(tag_328)\n    tag_329:\n    tag_325:\n      pop\n      swap1\n      pop\n      tag_330\n      swap2\n      swap1\n      tag_323\n      jump\t// in\n    tag_330:\n      pop\n      swap1\n      jump\t// out\n    tag_323:\n    tag_331:\n      dup1\n      dup3\n      gt\n      iszero\n      tag_332\n      jumpi\n      0x00\n      dup2\n      0x00\n      swap1\n      sstore\n      pop\n      0x01\n      add\n      jump(tag_331)\n    tag_332:\n      pop\n      swap1\n      jump\t// out\n        /* \"#utility.yul\":7:82   */\n    tag_333:\n        /* \"#utility.yul\":40:46   */\n      0x00\n        /* \"#utility.yul\":73:75   */\n      0x40\n        /* \"#utility.yul\":67:76   */\n      mload\n        /* \"#utility.yul\":57:76   */\n      swap1\n      pop\n        /* \"#utility.yul\":7:82   */\n      swap1\n      jump\t// out\n        /* \"#utility.yul\":88:205   */\n    tag_334:\n        /* \"#utility.yul\":197:198   */\n      0x00\n        /* \"#utility.yul\":194:195   */\n      dup1\n        /* \"#utility.yul\":187:199   */\n      revert\n        /* \"#utility.yul\":211:328   */\n    tag_335:\n        /* \"#utility.yul\":320:321   */\n      0x00\n        /* \"#utility.yul\":317:318   */\n      dup1\n        /* \"#utility.yul\":310:322   */\n      revert\n        /* \"#utility.yul\":334:460   */\n    tag_336:\n        /* \"#utility.yul\":371:378   */\n      0x00\n        /* \"#utility.yul\":411:453   */\n      0xffffffffffffffffffffffffffffffffffffffff\n        /* \"#utility.yul\":404:409   */\n      dup3\n        /* \"#utility.yul\":400:454   */\n      and\n        /* \"#utility.yul\":389:454   */\n      swap1\n      pop\n        /* \"#utility.yul\":334:460   */\n      swap2\n      swap1\n      pop\n      jump\t// out\n        /* \"#utility.yul\":466:562   */\n    tag_337:\n        /* \"#utility.yul\":503:510   */\n      0x00\n        /* \"#utility.yul\":532:556   */\n      tag_372\n        /* \"#utility.yul\":550:555   */\n      dup3\n        /* \"#utility.yul\":532:556   */\n      tag_336\n      jump\t// in\n    tag_372:\n        /* \"#utility.yul\":521:556   */\n      swap1\n      pop\n        /* \"#utility.yul\":466:562   */\n      swap2\n      swap1\n      pop\n      jump\t// out\n        /* \"#utility.yul\":568:690   */\n    tag_338:\n        /* \"#utility.yul\":641:665   */\n      tag_374\n        /* \"#utility.yul\":659:664   */\n      dup2\n        /* \"#utility.yul\":641:665   */\n      tag_337\n      jump\t// in\n    tag_374:\n        /* \"#utility.yul\":634:639   */\n      dup2\n        /* \"#utility.yul\":631:666   */\n      eq\n        /* \"#utility.yul\":621:684   */\n      tag_375\n      jumpi\n        /* \"#utility.yul\":680:681   */\n      0x00\n        /* \"#utility.yul\":677:678   */\n      dup1\n        /* \"#utility.yul\":670:682   */\n      revert\n        /* \"#utility.yul\":621:684   */\n    tag_375:\n        /* \"#utility.yul\":568:690   */\n      pop\n      jump\t// out\n        /* \"#utility.yul\":696:835   */\n    tag_339:\n        /* \"#utility.yul\":742:747   */\n      0x00\n        /* \"#utility.yul\":780:786   */\n      dup2\n        /* \"#utility.yul\":767:787   */\n      calldataload\n        /* \"#utility.yul\":758:787   */\n      swap1\n      pop\n        /* \"#utility.yul\":796:829   */\n      tag_377\n        /* \"#utility.yul\":823:828   */\n      dup2\n        /* \"#utility.yul\":796:829   */\n      tag_338\n      jump\t// in\n    tag_377:\n        /* \"#utility.yul\":696:835   */\n      swap3\n      swap2\n      pop\n      pop\n      jump\t// out\n        /* \"#utility.yul\":841:1170   */\n    tag_25:\n        /* \"#utility.yul\":900:906   */\n      0x00\n        /* \"#utility.yul\":949:951   */\n      0x20\n        /* \"#utility.yul\":937:946   */\n      dup3\n        /* \"#utility.yul\":928:935   */\n      dup5\n        /* \"#utility.yul\":924:947   */\n      sub\n        /* \"#utility.yul\":920:952   */\n      slt\n        /* \"#utility.yul\":917:1036   */\n      iszero\n      tag_379\n      jumpi\n        /* \"#utility.yul\":955:1034   */\n      tag_380\n      tag_334\n      jump\t// in\n    tag_380:\n        /* \"#utility.yul\":917:1036   */\n    tag_379:\n        /* \"#utility.yul\":1075:1076   */\n      0x00\n        /* \"#utility.yul\":1100:1153   */\n      tag_381\n        /* \"#utility.yul\":1145:1152   */\n      dup5\n        /* \"#utility.yul\":1136:1142   */\n      dup3\n        /* \"#utility.yul\":1125:1134   */\n      dup6\n        /* \"#utility.yul\":1121:1143   */\n      add\n        /* \"#utility.yul\":1100:1153   */\n      tag_339\n      jump\t// in\n    tag_381:\n        /* \"#utility.yul\":1090:1153   */\n      swap2\n      pop\n        /* \"#utility.yul\":1046:1163   */\n      pop\n        /* \"#utility.yul\":841:1170   */\n      swap3\n      swap2\n      pop\n      pop\n      jump\t// out\n        /* \"#utility.yul\":1176:1266   */\n    tag_340:\n        /* \"#utility.yul\":1210:1217   */\n      0x00\n        /* \"#utility.yul\":1253:1258   */\n      dup2\n        /* \"#utility.yul\":1246:1259   */\n      iszero\n        /* \"#utility.yul\":1239:1260   */\n      iszero\n        /* \"#utility.yul\":1228:1260   */\n      swap1\n      pop\n        /* \"#utility.yul\":1176:1266   */\n      swap2\n      swap1\n      pop\n      jump\t// out\n        /* \"#utility.yul\":1272:1381   */\n    tag_341:\n        /* \"#utility.yul\":1353:1374   */\n      tag_384\n        /* \"#utility.yul\":1368:1373   */\n      dup2\n        /* \"#utility.yul\":1353:1374   */\n      tag_340\n      jump\t// in\n    tag_384:\n        /* \"#utility.yul\":1348:1351   */\n      dup3\n        /* \"#utility.yul\":1341:1375   */\n      mstore\n        /* \"#utility.yul\":1272:1381   */\n      pop\n      pop\n      jump\t// out\n        /* \"#utility.yul\":1387:1597   */\n    tag_28:\n        /* \"#utility.yul\":1474:1478   */\n      0x00\n        /* \"#utility.yul\":1512:1514   */\n      0x20\n        /* \"#utility.yul\":1501:1510   */\n      dup3\n        /* \"#utility.yul\":1497:1515   */\n      add\n        /* \"#utility.yul\":1489:1515   */\n      swap1\n      pop\n        /* \"#utility.yul\":1525:1590   */\n      tag_386\n        /* \"#utility.yul\":1587:1588   */\n      0x00\n        /* \"#utility.yul\":1576:1585   */\n      dup4\n        /* \"#utility.yul\":1572:1589   */\n      add\n        /* \"#utility.yul\":1563:1569   */\n      dup5\n        /* \"#utility.yul\":1525:1590   */\n      tag_341\n      jump\t// in\n    tag_386:\n        /* \"#utility.yul\":1387:1597   */\n      swap3\n      swap2\n      pop\n      pop\n      jump\t// out\n        /* \"#utility.yul\":1603:1680   */\n    tag_342:\n        /* \"#utility.yul\":1640:1647   */\n      0x00\n        /* \"#utility.yul\":1669:1674   */\n      dup2\n        /* \"#utility.yul\":1658:1674   */\n      swap1\n      pop\n        /* \"#utility.yul\":1603:1680   */\n      swap2\n      swap1\n      pop\n      jump\t// out\n        /* \"#utility.yul\":1686:1804   */\n    tag_343:\n        /* \"#utility.yul\":1773:1797   */\n      tag_389\n        /* \"#utility.yul\":1791:1796   */\n      dup2\n        /* \"#utility.yul\":1773:1797   */\n      tag_342\n      jump\t// in\n    tag_389:\n        /* \"#utility.yul\":1768:1771   */\n      dup3\n        /* \"#utility.yul\":1761:1798   */\n      mstore\n        /* \"#utility.yul\":1686:1804   */\n      pop\n      pop\n      jump\t// out\n        /* \"#utility.yul\":1810:2032   */\n    tag_36:\n        /* \"#utility.yul\":1903:1907   */\n      0x00\n        /* \"#utility.yul\":1941:1943   */\n      0x20\n        /* \"#utility.yul\":1930:1939   */\n      dup3\n        /* \"#utility.yul\":1926:1944   */\n      add\n        /* \"#utility.yul\":1918:1944   */\n      swap1\n      pop\n        /* \"#utility.yul\":1954:2025   */\n      tag_391\n        /* \"#utility.yul\":2022:2023   */\n      0x00\n        /* \"#utility.yul\":2011:2020   */\n      dup4\n        /* \"#utility.yul\":2007:2024   */\n      add\n        /* \"#utility.yul\":1998:2004   */\n      dup5\n        /* \"#utility.yul\":1954:2025   */\n      tag_343\n      jump\t// in\n    tag_391:\n        /* \"#utility.yul\":1810:2032   */\n      swap3\n      swap2\n      pop\n      pop\n      jump\t// out\n        /* \"#utility.yul\":2038:2143   */\n    tag_344:\n        /* \"#utility.yul\":2117:2118   */\n      0x04\n        /* \"#utility.yul\":2110:2115   */\n      dup2\n        /* \"#utility.yul\":2107:2119   */\n      lt\n        /* \"#utility.yul\":2097:2137   */\n      tag_393\n      jumpi\n        /* \"#utility.yul\":2133:2134   */\n      0x00\n        /* \"#utility.yul\":2130:2131   */\n      dup1\n        /* \"#utility.yul\":2123:2135   */\n      revert\n        /* \"#utility.yul\":2097:2137   */\n    tag_393:\n        /* \"#utility.yul\":2038:2143   */\n      pop\n      jump\t// out\n        /* \"#utility.yul\":2149:2300   */\n    tag_345:\n        /* \"#utility.yul\":2201:2206   */\n      0x00\n        /* \"#utility.yul\":2239:2245   */\n      dup2\n        /* \"#utility.yul\":2226:2246   */\n      calldataload\n        /* \"#utility.yul\":2217:2246   */\n      swap1\n      pop\n        /* \"#utility.yul\":2255:2294   */\n      tag_395\n        /* \"#utility.yul\":2288:2293   */\n      dup2\n        /* \"#utility.yul\":2255:2294   */\n      tag_344\n      jump\t// in\n    tag_395:\n        /* \"#utility.yul\":2149:2300   */\n      swap3\n      swap2\n      pop\n      pop\n      jump\t// out\n        /* \"#utility.yul\":2306:2792   */\n    tag_51:\n        /* \"#utility.yul\":2380:2386   */\n      0x00\n        /* \"#utility.yul\":2388:2394   */\n      dup1\n        /* \"#utility.yul\":2437:2439   */\n      0x40\n        /* \"#utility.yul\":2425:2434   */\n      dup4\n        /* \"#utility.yul\":2416:2423   */\n      dup6\n        /* \"#utility.yul\":2412:2435   */\n      sub\n        /* \"#utility.yul\":2408:2440   */\n      slt\n        /* \"#utility.yul\":2405:2524   */\n      iszero\n      tag_397\n      jumpi\n        /* \"#utility.yul\":2443:2522   */\n      tag_398\n      tag_334\n      jump\t// in\n    tag_398:\n        /* \"#utility.yul\":2405:2524   */\n    tag_397:\n        /* \"#utility.yul\":2563:2564   */\n      0x00\n        /* \"#utility.yul\":2588:2641   */\n      tag_399\n        /* \"#utility.yul\":2633:2640   */\n      dup6\n        /* \"#utility.yul\":2624:2630   */\n      dup3\n        /* \"#utility.yul\":2613:2622   */\n      dup7\n        /* \"#utility.yul\":2609:2631   */\n      add\n        /* \"#utility.yul\":2588:2641   */\n      tag_339\n      jump\t// in\n    tag_399:\n        /* \"#utility.yul\":2578:2641   */\n      swap3\n      pop\n        /* \"#utility.yul\":2534:2651   */\n      pop\n        /* \"#utility.yul\":2690:2692   */\n      0x20\n        /* \"#utility.yul\":2716:2775   */\n      tag_400\n        /* \"#utility.yul\":2767:2774   */\n      dup6\n        /* \"#utility.yul\":2758:2764   */\n      dup3\n        /* \"#utility.yul\":2747:2756   */\n      dup7\n        /* \"#utility.yul\":2743:2765   */\n      add\n        /* \"#utility.yul\":2716:2775   */\n      tag_345\n      jump\t// in\n    tag_400:\n        /* \"#utility.yul\":2706:2775   */\n      swap2\n      pop\n        /* \"#utility.yul\":2661:2785   */\n      pop\n        /* \"#utility.yul\":2306:2792   */\n      swap3\n      pop\n      swap3\n      swap1\n      pop\n      jump\t// out\n        /* \"#utility.yul\":2798:2916   */\n    tag_346:\n        /* \"#utility.yul\":2885:2909   */\n      tag_402\n        /* \"#utility.yul\":2903:2908   */\n      dup2\n        /* \"#utility.yul\":2885:2909   */\n      tag_337\n      jump\t// in\n    tag_402:\n        /* \"#utility.yul\":2880:2883   */\n      dup3\n        /* \"#utility.yul\":2873:2910   */\n      mstore\n        /* \"#utility.yul\":2798:2916   */\n      pop\n      pop\n      jump\t// out\n        /* \"#utility.yul\":2922:3144   */\n    tag_60:\n        /* \"#utility.yul\":3015:3019   */\n      0x00\n        /* \"#utility.yul\":3053:3055   */\n      0x20\n        /* \"#utility.yul\":3042:3051   */\n      dup3\n        /* \"#utility.yul\":3038:3056   */\n      add\n        /* \"#utility.yul\":3030:3056   */\n      swap1\n      pop\n        /* \"#utility.yul\":3066:3137   */\n      tag_404\n        /* \"#utility.yul\":3134:3135   */\n      0x00\n        /* \"#utility.yul\":3123:3132   */\n      dup4\n        /* \"#utility.yul\":3119:3136   */\n      add\n        /* \"#utility.yul\":3110:3116   */\n      dup5\n        /* \"#utility.yul\":3066:3137   */\n      tag_346\n      jump\t// in\n    tag_404:\n        /* \"#utility.yul\":2922:3144   */\n      swap3\n      swap2\n      pop\n      pop\n      jump\t// out\n        /* \"#utility.yul\":3150:3267   */\n    tag_347:\n        /* \"#utility.yul\":3259:3260   */\n      0x00\n        /* \"#utility.yul\":3256:3257   */\n      dup1\n        /* \"#utility.yul\":3249:3261   */\n      revert\n        /* \"#utility.yul\":3273:3390   */\n    tag_348:\n        /* \"#utility.yul\":3382:3383   */\n      0x00\n        /* \"#utility.yul\":3379:3380   */\n      dup1\n        /* \"#utility.yul\":3372:3384   */\n      revert\n        /* \"#utility.yul\":3396:3498   */\n    tag_349:\n        /* \"#utility.yul\":3437:3443   */\n      0x00\n        /* \"#utility.yul\":3488:3490   */\n      0x1f\n        /* \"#utility.yul\":3484:3491   */\n      not\n        /* \"#utility.yul\":3479:3481   */\n      0x1f\n        /* \"#utility.yul\":3472:3477   */\n      dup4\n        /* \"#utility.yul\":3468:3482   */\n      add\n        /* \"#utility.yul\":3464:3492   */\n      and\n        /* \"#utility.yul\":3454:3492   */\n      swap1\n      pop\n        /* \"#utility.yul\":3396:3498   */\n      swap2\n      swap1\n      pop\n      jump\t// out\n        /* \"#utility.yul\":3504:3684   */\n    tag_350:\n        /* \"#utility.yul\":3552:3629   */\n      0x4e487b7100000000000000000000000000000000000000000000000000000000\n        /* \"#utility.yul\":3549:3550   */\n      0x00\n        /* \"#utility.yul\":3542:3630   */\n      mstore\n        /* \"#utility.yul\":3649:3653   */\n      0x41\n        /* \"#utility.yul\":3646:3647   */\n      0x04\n        /* \"#utility.yul\":3639:3654   */\n      mstore\n        /* \"#utility.yul\":3673:3677   */\n      0x24\n        /* \"#utility.yul\":3670:3671   */\n      0x00\n        /* \"#utility.yul\":3663:3678   */\n      revert\n        /* \"#utility.yul\":3690:3971   */\n    tag_351:\n        /* \"#utility.yul\":3773:3800   */\n      tag_410\n        /* \"#utility.yul\":3795:3799   */\n      dup3\n        /* \"#utility.yul\":3773:3800   */\n      tag_349\n      jump\t// in\n    tag_410:\n        /* \"#utility.yul\":3765:3771   */\n      dup2\n        /* \"#utility.yul\":3761:3801   */\n      add\n        /* \"#utility.yul\":3903:3909   */\n      dup2\n        /* \"#utility.yul\":3891:3901   */\n      dup2\n        /* \"#utility.yul\":3888:3910   */\n      lt\n        /* \"#utility.yul\":3867:3885   */\n      0xffffffffffffffff\n        /* \"#utility.yul\":3855:3865   */\n      dup3\n        /* \"#utility.yul\":3852:3886   */\n      gt\n        /* \"#utility.yul\":3849:3911   */\n      or\n        /* \"#utility.yul\":3846:3934   */\n      iszero\n      tag_411\n      jumpi\n        /* \"#utility.yul\":3914:3932   */\n      tag_412\n      tag_350\n      jump\t// in\n    tag_412:\n        /* \"#utility.yul\":3846:3934   */\n    tag_411:\n        /* \"#utility.yul\":3954:3964   */\n      dup1\n        /* \"#utility.yul\":3950:3952   */\n      0x40\n        /* \"#utility.yul\":3943:3965   */\n      mstore\n        /* \"#utility.yul\":3733:3971   */\n      pop\n        /* \"#utility.yul\":3690:3971   */\n      pop\n      pop\n      jump\t// out\n        /* \"#utility.yul\":3977:4106   */\n    tag_352:\n        /* \"#utility.yul\":4011:4017   */\n      0x00\n        /* \"#utility.yul\":4038:4058   */\n      tag_414\n      tag_333\n      jump\t// in\n    tag_414:\n        /* \"#utility.yul\":4028:4058   */\n      swap1\n      pop\n        /* \"#utility.yul\":4067:4100   */\n      tag_415\n        /* \"#utility.yul\":4095:4099   */\n      dup3\n        /* \"#utility.yul\":4087:4093   */\n      dup3\n        /* \"#utility.yul\":4067:4100   */\n      tag_351\n      jump\t// in\n    tag_415:\n        /* \"#utility.yul\":3977:4106   */\n      swap2\n      swap1\n      pop\n      jump\t// out\n        /* \"#utility.yul\":4112:4420   */\n    tag_353:\n        /* \"#utility.yul\":4174:4178   */\n      0x00\n        /* \"#utility.yul\":4264:4282   */\n      0xffffffffffffffff\n        /* \"#utility.yul\":4256:4262   */\n      dup3\n        /* \"#utility.yul\":4253:4283   */\n      gt\n        /* \"#utility.yul\":4250:4306   */\n      iszero\n      tag_417\n      jumpi\n        /* \"#utility.yul\":4286:4304   */\n      tag_418\n      tag_350\n      jump\t// in\n    tag_418:\n        /* \"#utility.yul\":4250:4306   */\n    tag_417:\n        /* \"#utility.yul\":4324:4353   */\n      tag_419\n        /* \"#utility.yul\":4346:4352   */\n      dup3\n        /* \"#utility.yul\":4324:4353   */\n      tag_349\n      jump\t// in\n    tag_419:\n        /* \"#utility.yul\":4316:4353   */\n      swap1\n      pop\n        /* \"#utility.yul\":4408:4412   */\n      0x20\n        /* \"#utility.yul\":4402:4406   */\n      dup2\n        /* \"#utility.yul\":4398:4413   */\n      add\n        /* \"#utility.yul\":4390:4413   */\n      swap1\n      pop\n        /* \"#utility.yul\":4112:4420   */\n      swap2\n      swap1\n      pop\n      jump\t// out\n        /* \"#utility.yul\":4426:4580   */\n    tag_354:\n        /* \"#utility.yul\":4510:4516   */\n      dup3\n        /* \"#utility.yul\":4505:4508   */\n      dup2\n        /* \"#utility.yul\":4500:4503   */\n      dup4\n        /* \"#utility.yul\":4487:4517   */\n      calldatacopy\n        /* \"#utility.yul\":4572:4573   */\n      0x00\n        /* \"#utility.yul\":4563:4569   */\n      dup4\n        /* \"#utility.yul\":4558:4561   */\n      dup4\n        /* \"#utility.yul\":4554:4570   */\n      add\n        /* \"#utility.yul\":4547:4574   */\n      mstore\n        /* \"#utility.yul\":4426:4580   */\n      pop\n      pop\n      pop\n      jump\t// out\n        /* \"#utility.yul\":4586:4998   */\n    tag_355:\n        /* \"#utility.yul\":4664:4669   */\n      0x00\n        /* \"#utility.yul\":4689:4755   */\n      tag_422\n        /* \"#utility.yul\":4705:4754   */\n      tag_423\n        /* \"#utility.yul\":4747:4753   */\n      dup5\n        /* \"#utility.yul\":4705:4754   */\n      tag_353\n      jump\t// in\n    tag_423:\n        /* \"#utility.yul\":4689:4755   */\n      tag_352\n      jump\t// in\n    tag_422:\n        /* \"#utility.yul\":4680:4755   */\n      swap1\n      pop\n        /* \"#utility.yul\":4778:4784   */\n      dup3\n        /* \"#utility.yul\":4771:4776   */\n      dup2\n        /* \"#utility.yul\":4764:4785   */\n      mstore\n        /* \"#utility.yul\":4816:4820   */\n      0x20\n        /* \"#utility.yul\":4809:4814   */\n      dup2\n        /* \"#utility.yul\":4805:4821   */\n      add\n        /* \"#utility.yul\":4854:4857   */\n      dup5\n        /* \"#utility.yul\":4845:4851   */\n      dup5\n        /* \"#utility.yul\":4840:4843   */\n      dup5\n        /* \"#utility.yul\":4836:4852   */\n      add\n        /* \"#utility.yul\":4833:4858   */\n      gt\n        /* \"#utility.yul\":4830:4942   */\n      iszero\n      tag_424\n      jumpi\n        /* \"#utility.yul\":4861:4940   */\n      tag_425\n      tag_348\n      jump\t// in\n    tag_425:\n        /* \"#utility.yul\":4830:4942   */\n    tag_424:\n        /* \"#utility.yul\":4951:4992   */\n      tag_426\n        /* \"#utility.yul\":4985:4991   */\n      dup5\n        /* \"#utility.yul\":4980:4983   */\n      dup3\n        /* \"#utility.yul\":4975:4978   */\n      dup6\n        /* \"#utility.yul\":4951:4992   */\n      tag_354\n      jump\t// in\n    tag_426:\n        /* \"#utility.yul\":4670:4998   */\n      pop\n        /* \"#utility.yul\":4586:4998   */\n      swap4\n      swap3\n      pop\n      pop\n      pop\n      jump\t// out\n        /* \"#utility.yul\":5018:5358   */\n    tag_356:\n        /* \"#utility.yul\":5074:5079   */\n      0x00\n        /* \"#utility.yul\":5123:5126   */\n      dup3\n        /* \"#utility.yul\":5116:5120   */\n      0x1f\n        /* \"#utility.yul\":5108:5114   */\n      dup4\n        /* \"#utility.yul\":5104:5121   */\n      add\n        /* \"#utility.yul\":5100:5127   */\n      slt\n        /* \"#utility.yul\":5090:5212   */\n      tag_428\n      jumpi\n        /* \"#utility.yul\":5131:5210   */\n      tag_429\n      tag_347\n      jump\t// in\n    tag_429:\n        /* \"#utility.yul\":5090:5212   */\n    tag_428:\n        /* \"#utility.yul\":5248:5254   */\n      dup2\n        /* \"#utility.yul\":5235:5255   */\n      calldataload\n        /* \"#utility.yul\":5273:5352   */\n      tag_430\n        /* \"#utility.yul\":5348:5351   */\n      dup5\n        /* \"#utility.yul\":5340:5346   */\n      dup3\n        /* \"#utility.yul\":5333:5337   */\n      0x20\n        /* \"#utility.yul\":5325:5331   */\n      dup7\n        /* \"#utility.yul\":5321:5338   */\n      add\n        /* \"#utility.yul\":5273:5352   */\n      tag_355\n      jump\t// in\n    tag_430:\n        /* \"#utility.yul\":5264:5352   */\n      swap2\n      pop\n        /* \"#utility.yul\":5080:5358   */\n      pop\n        /* \"#utility.yul\":5018:5358   */\n      swap3\n      swap2\n      pop\n      pop\n      jump\t// out\n        /* \"#utility.yul\":5364:6669   */\n    tag_76:\n        /* \"#utility.yul\":5480:5486   */\n      0x00\n        /* \"#utility.yul\":5488:5494   */\n      dup1\n        /* \"#utility.yul\":5496:5502   */\n      0x00\n        /* \"#utility.yul\":5504:5510   */\n      dup1\n        /* \"#utility.yul\":5553:5556   */\n      0x80\n        /* \"#utility.yul\":5541:5550   */\n      dup6\n        /* \"#utility.yul\":5532:5539   */\n      dup8\n        /* \"#utility.yul\":5528:5551   */\n      sub\n        /* \"#utility.yul\":5524:5557   */\n      slt\n        /* \"#utility.yul\":5521:5641   */\n      iszero\n      tag_432\n      jumpi\n        /* \"#utility.yul\":5560:5639   */\n      tag_433\n      tag_334\n      jump\t// in\n    tag_433:\n        /* \"#utility.yul\":5521:5641   */\n    tag_432:\n        /* \"#utility.yul\":5680:5681   */\n      0x00\n        /* \"#utility.yul\":5705:5758   */\n      tag_434\n        /* \"#utility.yul\":5750:5757   */\n      dup8\n        /* \"#utility.yul\":5741:5747   */\n      dup3\n        /* \"#utility.yul\":5730:5739   */\n      dup9\n        /* \"#utility.yul\":5726:5748   */\n      add\n        /* \"#utility.yul\":5705:5758   */\n      tag_339\n      jump\t// in\n    tag_434:\n        /* \"#utility.yul\":5695:5758   */\n      swap5\n      pop\n        /* \"#utility.yul\":5651:5768   */\n      pop\n        /* \"#utility.yul\":5835:5837   */\n      0x20\n        /* \"#utility.yul\":5824:5833   */\n      dup6\n        /* \"#utility.yul\":5820:5838   */\n      add\n        /* \"#utility.yul\":5807:5839   */\n      calldataload\n        /* \"#utility.yul\":5866:5884   */\n      0xffffffffffffffff\n        /* \"#utility.yul\":5858:5864   */\n      dup2\n        /* \"#utility.yul\":5855:5885   */\n      gt\n        /* \"#utility.yul\":5852:5969   */\n      iszero\n      tag_435\n      jumpi\n        /* \"#utility.yul\":5888:5967   */\n      tag_436\n      tag_335\n      jump\t// in\n    tag_436:\n        /* \"#utility.yul\":5852:5969   */\n    tag_435:\n        /* \"#utility.yul\":5993:6056   */\n      tag_437\n        /* \"#utility.yul\":6048:6055   */\n      dup8\n        /* \"#utility.yul\":6039:6045   */\n      dup3\n        /* \"#utility.yul\":6028:6037   */\n      dup9\n        /* \"#utility.yul\":6024:6046   */\n      add\n        /* \"#utility.yul\":5993:6056   */\n      tag_356\n      jump\t// in\n    tag_437:\n        /* \"#utility.yul\":5983:6056   */\n      swap4\n      pop\n        /* \"#utility.yul\":5778:6066   */\n      pop\n        /* \"#utility.yul\":6133:6135   */\n      0x40\n        /* \"#utility.yul\":6122:6131   */\n      dup6\n        /* \"#utility.yul\":6118:6136   */\n      add\n        /* \"#utility.yul\":6105:6137   */\n      calldataload\n        /* \"#utility.yul\":6164:6182   */\n      0xffffffffffffffff\n        /* \"#utility.yul\":6156:6162   */\n      dup2\n        /* \"#utility.yul\":6153:6183   */\n      gt\n        /* \"#utility.yul\":6150:6267   */\n      iszero\n      tag_438\n      jumpi\n        /* \"#utility.yul\":6186:6265   */\n      tag_439\n      tag_335\n      jump\t// in\n    tag_439:\n        /* \"#utility.yul\":6150:6267   */\n    tag_438:\n        /* \"#utility.yul\":6291:6354   */\n      tag_440\n        /* \"#utility.yul\":6346:6353   */\n      dup8\n        /* \"#utility.yul\":6337:6343   */\n      dup3\n        /* \"#utility.yul\":6326:6335   */\n      dup9\n        /* \"#utility.yul\":6322:6344   */\n      add\n        /* \"#utility.yul\":6291:6354   */\n      tag_356\n      jump\t// in\n    tag_440:\n        /* \"#utility.yul\":6281:6354   */\n      swap3\n      pop\n        /* \"#utility.yul\":6076:6364   */\n      pop\n        /* \"#utility.yul\":6431:6433   */\n      0x60\n        /* \"#utility.yul\":6420:6429   */\n      dup6\n        /* \"#utility.yul\":6416:6434   */\n      add\n        /* \"#utility.yul\":6403:6435   */\n      calldataload\n        /* \"#utility.yul\":6462:6480   */\n      0xffffffffffffffff\n        /* \"#utility.yul\":6454:6460   */\n      dup2\n        /* \"#utility.yul\":6451:6481   */\n      gt\n        /* \"#utility.yul\":6448:6565   */\n      iszero\n      tag_441\n      jumpi\n        /* \"#utility.yul\":6484:6563   */\n      tag_442\n      tag_335\n      jump\t// in\n    tag_442:\n        /* \"#utility.yul\":6448:6565   */\n    tag_441:\n        /* \"#utility.yul\":6589:6652   */\n      tag_443\n        /* \"#utility.yul\":6644:6651   */\n      dup8\n        /* \"#utility.yul\":6635:6641   */\n      dup3\n        /* \"#utility.yul\":6624:6633   */\n      dup9\n        /* \"#utility.yul\":6620:6642   */\n      add\n        /* \"#utility.yul\":6589:6652   */\n      tag_356\n      jump\t// in\n    tag_443:\n        /* \"#utility.yul\":6579:6652   */\n      swap2\n      pop\n        /* \"#utility.yul\":6374:6662   */\n      pop\n        /* \"#utility.yul\":5364:6669   */\n      swap3\n      swap6\n      swap2\n      swap5\n      pop\n      swap3\n      pop\n      jump\t// out\n        /* \"#utility.yul\":6675:6855   */\n    tag_357:\n        /* \"#utility.yul\":6723:6800   */\n      0x4e487b7100000000000000000000000000000000000000000000000000000000\n        /* \"#utility.yul\":6720:6721   */\n      0x00\n        /* \"#utility.yul\":6713:6801   */\n      mstore\n        /* \"#utility.yul\":6820:6824   */\n      0x22\n        /* \"#utility.yul\":6817:6818   */\n      0x04\n        /* \"#utility.yul\":6810:6825   */\n      mstore\n        /* \"#utility.yul\":6844:6848   */\n      0x24\n        /* \"#utility.yul\":6841:6842   */\n      0x00\n        /* \"#utility.yul\":6834:6849   */\n      revert\n        /* \"#utility.yul\":6861:7181   */\n    tag_88:\n        /* \"#utility.yul\":6905:6911   */\n      0x00\n        /* \"#utility.yul\":6942:6943   */\n      0x02\n        /* \"#utility.yul\":6936:6940   */\n      dup3\n        /* \"#utility.yul\":6932:6944   */\n      div\n        /* \"#utility.yul\":6922:6944   */\n      swap1\n      pop\n        /* \"#utility.yul\":6989:6990   */\n      0x01\n        /* \"#utility.yul\":6983:6987   */\n      dup3\n        /* \"#utility.yul\":6979:6991   */\n      and\n        /* \"#utility.yul\":7010:7028   */\n      dup1\n        /* \"#utility.yul\":7000:7081   */\n      tag_446\n      jumpi\n        /* \"#utility.yul\":7066:7070   */\n      0x7f\n        /* \"#utility.yul\":7058:7064   */\n      dup3\n        /* \"#utility.yul\":7054:7071   */\n      and\n        /* \"#utility.yul\":7044:7071   */\n      swap2\n      pop\n        /* \"#utility.yul\":7000:7081   */\n    tag_446:\n        /* \"#utility.yul\":7128:7130   */\n      0x20\n        /* \"#utility.yul\":7120:7126   */\n      dup3\n        /* \"#utility.yul\":7117:7131   */\n      lt\n        /* \"#utility.yul\":7097:7115   */\n      dup2\n        /* \"#utility.yul\":7094:7132   */\n      eq\n        /* \"#utility.yul\":7091:7175   */\n      iszero\n      tag_447\n      jumpi\n        /* \"#utility.yul\":7147:7165   */\n      tag_448\n      tag_357\n      jump\t// in\n    tag_448:\n        /* \"#utility.yul\":7091:7175   */\n    tag_447:\n        /* \"#utility.yul\":6912:7181   */\n      pop\n        /* \"#utility.yul\":6861:7181   */\n      swap2\n      swap1\n      pop\n      jump\t// out\n        /* \"#utility.yul\":7187:7367   */\n    tag_118:\n        /* \"#utility.yul\":7235:7312   */\n      0x4e487b7100000000000000000000000000000000000000000000000000000000\n        /* \"#utility.yul\":7232:7233   */\n      0x00\n        /* \"#utility.yul\":7225:7313   */\n      mstore\n        /* \"#utility.yul\":7332:7336   */\n      0x32\n        /* \"#utility.yul\":7329:7330   */\n      0x04\n        /* \"#utility.yul\":7322:7337   */\n      mstore\n        /* \"#utility.yul\":7356:7360   */\n      0x24\n        /* \"#utility.yul\":7353:7354   */\n      0x00\n        /* \"#utility.yul\":7346:7361   */\n      revert\n        /* \"#utility.yul\":7373:7553   */\n    tag_358:\n        /* \"#utility.yul\":7421:7498   */\n      0x4e487b7100000000000000000000000000000000000000000000000000000000\n        /* \"#utility.yul\":7418:7419   */\n      0x00\n        /* \"#utility.yul\":7411:7499   */\n      mstore\n        /* \"#utility.yul\":7518:7522   */\n      0x11\n        /* \"#utility.yul\":7515:7516   */\n      0x04\n        /* \"#utility.yul\":7508:7523   */\n      mstore\n        /* \"#utility.yul\":7542:7546   */\n      0x24\n        /* \"#utility.yul\":7539:7540   */\n      0x00\n        /* \"#utility.yul\":7532:7547   */\n      revert\n        /* \"#utility.yul\":7559:7792   */\n    tag_130:\n        /* \"#utility.yul\":7598:7601   */\n      0x00\n        /* \"#utility.yul\":7621:7645   */\n      tag_452\n        /* \"#utility.yul\":7639:7644   */\n      dup3\n        /* \"#utility.yul\":7621:7645   */\n      tag_342\n      jump\t// in\n    tag_452:\n        /* \"#utility.yul\":7612:7645   */\n      swap2\n      pop\n        /* \"#utility.yul\":7667:7733   */\n      0xffffffffffffffffffffffffffffffffffffffffffffffffffffffffffffffff\n        /* \"#utility.yul\":7660:7665   */\n      dup3\n        /* \"#utility.yul\":7657:7734   */\n      eq\n        /* \"#utility.yul\":7654:7757   */\n      iszero\n      tag_453\n      jumpi\n        /* \"#utility.yul\":7737:7755   */\n      tag_454\n      tag_358\n      jump\t// in\n    tag_454:\n        /* \"#utility.yul\":7654:7757   */\n    tag_453:\n        /* \"#utility.yul\":7784:7785   */\n      0x01\n        /* \"#utility.yul\":7777:7782   */\n      dup3\n        /* \"#utility.yul\":7773:7786   */\n      add\n        /* \"#utility.yul\":7766:7786   */\n      swap1\n      pop\n        /* \"#utility.yul\":7559:7792   */\n      swap2\n      swap1\n      pop\n      jump\t// out\n        /* \"#utility.yul\":7798:7967   */\n    tag_359:\n        /* \"#utility.yul\":7882:7893   */\n      0x00\n        /* \"#utility.yul\":7916:7922   */\n      dup3\n        /* \"#utility.yul\":7911:7914   */\n      dup3\n        /* \"#utility.yul\":7904:7923   */\n      mstore\n        /* \"#utility.yul\":7956:7960   */\n      0x20\n        /* \"#utility.yul\":7951:7954   */\n      dup3\n        /* \"#utility.yul\":7947:7961   */\n      add\n        /* \"#utility.yul\":7932:7961   */\n      swap1\n      pop\n        /* \"#utility.yul\":7798:7967   */\n      swap3\n      swap2\n      pop\n      pop\n      jump\t// out\n        /* \"#utility.yul\":7973:8144   */\n    tag_360:\n        /* \"#utility.yul\":8113:8136   */\n      0x4163636f756e7420646f65736e27742065786973740000000000000000000000\n        /* \"#utility.yul\":8109:8110   */\n      0x00\n        /* \"#utility.yul\":8101:8107   */\n      dup3\n        /* \"#utility.yul\":8097:8111   */\n      add\n        /* \"#utility.yul\":8090:8137   */\n      mstore\n        /* \"#utility.yul\":7973:8144   */\n      pop\n      jump\t// out\n        /* \"#utility.yul\":8150:8516   */\n    tag_361:\n        /* \"#utility.yul\":8292:8295   */\n      0x00\n        /* \"#utility.yul\":8313:8380   */\n      tag_458\n        /* \"#utility.yul\":8377:8379   */\n      0x15\n        /* \"#utility.yul\":8372:8375   */\n      dup4\n        /* \"#utility.yul\":8313:8380   */\n      tag_359\n      jump\t// in\n    tag_458:\n        /* \"#utility.yul\":8306:8380   */\n      swap2\n      pop\n        /* \"#utility.yul\":8389:8482   */\n      tag_459\n        /* \"#utility.yul\":8478:8481   */\n      dup3\n        /* \"#utility.yul\":8389:8482   */\n      tag_360\n      jump\t// in\n    tag_459:\n        /* \"#utility.yul\":8507:8509   */\n      0x20\n        /* \"#utility.yul\":8502:8505   */\n      dup3\n        /* \"#utility.yul\":8498:8510   */\n      add\n        /* \"#utility.yul\":8491:8510   */\n      swap1\n      pop\n        /* \"#utility.yul\":8150:8516   */\n      swap2\n      swap1\n      pop\n      jump\t// out\n        /* \"#utility.yul\":8522:8941   */\n    tag_136:\n        /* \"#utility.yul\":8688:8692   */\n      0x00\n        /* \"#utility.yul\":8726:8728   */\n      0x20\n        /* \"#utility.yul\":8715:8724   */\n      dup3\n        /* \"#utility.yul\":8711:8729   */\n      add\n        /* \"#utility.yul\":8703:8729   */\n      swap1\n      pop\n        /* \"#utility.yul\":8775:8784   */\n      dup2\n        /* \"#utility.yul\":8769:8773   */\n      dup2\n        /* \"#utility.yul\":8765:8785   */\n      sub\n        /* \"#utility.yul\":8761:8762   */\n      0x00\n        /* \"#utility.yul\":8750:8759   */\n      dup4\n        /* \"#utility.yul\":8746:8763   */\n      add\n        /* \"#utility.yul\":8739:8786   */\n      mstore\n        /* \"#utility.yul\":8803:8934   */\n      tag_461\n        /* \"#utility.yul\":8929:8933   */\n      dup2\n        /* \"#utility.yul\":8803:8934   */\n      tag_361\n      jump\t// in\n    tag_461:\n        /* \"#utility.yul\":8795:8934   */\n      swap1\n      pop\n        /* \"#utility.yul\":8522:8941   */\n      swap2\n      swap1\n      pop\n      jump\t// out\n        /* \"#utility.yul\":8947:9118   */\n    tag_140:\n        /* \"#utility.yul\":8986:8989   */\n      0x00\n        /* \"#utility.yul\":9009:9033   */\n      tag_463\n        /* \"#utility.yul\":9027:9032   */\n      dup3\n        /* \"#utility.yul\":9009:9033   */\n      tag_342\n      jump\t// in\n    tag_463:\n        /* \"#utility.yul\":9000:9033   */\n      swap2\n      pop\n        /* \"#utility.yul\":9055:9059   */\n      0x00\n        /* \"#utility.yul\":9048:9053   */\n      dup3\n        /* \"#utility.yul\":9045:9060   */\n      eq\n        /* \"#utility.yul\":9042:9083   */\n      iszero\n      tag_464\n      jumpi\n        /* \"#utility.yul\":9063:9081   */\n      tag_465\n      tag_358\n      jump\t// in\n    tag_465:\n        /* \"#utility.yul\":9042:9083   */\n    tag_464:\n        /* \"#utility.yul\":9110:9111   */\n      0x01\n        /* \"#utility.yul\":9103:9108   */\n      dup3\n        /* \"#utility.yul\":9099:9112   */\n      sub\n        /* \"#utility.yul\":9092:9112   */\n      swap1\n      pop\n        /* \"#utility.yul\":8947:9118   */\n      swap2\n      swap1\n      pop\n      jump\t// out\n        /* \"#utility.yul\":9124:9345   */\n    tag_362:\n        /* \"#utility.yul\":9264:9298   */\n      0x4f6e6c79206f776e65722063616e2063616c6c20746869732066756e6374696f\n        /* \"#utility.yul\":9260:9261   */\n      0x00\n        /* \"#utility.yul\":9252:9258   */\n      dup3\n        /* \"#utility.yul\":9248:9262   */\n      add\n        /* \"#utility.yul\":9241:9299   */\n      mstore\n        /* \"#utility.yul\":9333:9337   */\n      0x6e2e000000000000000000000000000000000000000000000000000000000000\n        /* \"#utility.yul\":9328:9330   */\n      0x20\n        /* \"#utility.yul\":9320:9326   */\n      dup3\n        /* \"#utility.yul\":9316:9331   */\n      add\n        /* \"#utility.yul\":9309:9338   */\n      mstore\n        /* \"#utility.yul\":9124:9345   */\n      pop\n      jump\t// out\n        /* \"#utility.yul\":9351:9717   */\n    tag_363:\n        /* \"#utility.yul\":9493:9496   */\n      0x00\n        /* \"#utility.yul\":9514:9581   */\n      tag_468\n        /* \"#utility.yul\":9578:9580   */\n      0x22\n        /* \"#utility.yul\":9573:9576   */\n      dup4\n        /* \"#utility.yul\":9514:9581   */\n      tag_359\n      jump\t// in\n    tag_468:\n        /* \"#utility.yul\":9507:9581   */\n      swap2\n      pop\n        /* \"#utility.yul\":9590:9683   */\n      tag_469\n        /* \"#utility.yul\":9679:9682   */\n      dup3\n        /* \"#utility.yul\":9590:9683   */\n      tag_362\n      jump\t// in\n    tag_469:\n        /* \"#utility.yul\":9708:9710   */\n      0x40\n        /* \"#utility.yul\":9703:9706   */\n      dup3\n        /* \"#utility.yul\":9699:9711   */\n      add\n        /* \"#utility.yul\":9692:9711   */\n      swap1\n      pop\n        /* \"#utility.yul\":9351:9717   */\n      swap2\n      swap1\n      pop\n      jump\t// out\n        /* \"#utility.yul\":9723:10142   */\n    tag_146:\n        /* \"#utility.yul\":9889:9893   */\n      0x00\n        /* \"#utility.yul\":9927:9929   */\n      0x20\n        /* \"#utility.yul\":9916:9925   */\n      dup3\n        /* \"#utility.yul\":9912:9930   */\n      add\n        /* \"#utility.yul\":9904:9930   */\n      swap1\n      pop\n        /* \"#utility.yul\":9976:9985   */\n      dup2\n        /* \"#utility.yul\":9970:9974   */\n      dup2\n        /* \"#utility.yul\":9966:9986   */\n      sub\n        /* \"#utility.yul\":9962:9963   */\n      0x00\n        /* \"#utility.yul\":9951:9960   */\n      dup4\n        /* \"#utility.yul\":9947:9964   */\n      add\n        /* \"#utility.yul\":9940:9987   */\n      mstore\n        /* \"#utility.yul\":10004:10135   */\n      tag_471\n        /* \"#utility.yul\":10130:10134   */\n      dup2\n        /* \"#utility.yul\":10004:10135   */\n      tag_363\n      jump\t// in\n    tag_471:\n        /* \"#utility.yul\":9996:10135   */\n      swap1\n      pop\n        /* \"#utility.yul\":9723:10142   */\n      swap2\n      swap1\n      pop\n      jump\t// out\n        /* \"#utility.yul\":10148:10328   */\n    tag_153:\n        /* \"#utility.yul\":10196:10273   */\n      0x4e487b7100000000000000000000000000000000000000000000000000000000\n        /* \"#utility.yul\":10193:10194   */\n      0x00\n        /* \"#utility.yul\":10186:10274   */\n      mstore\n        /* \"#utility.yul\":10293:10297   */\n      0x21\n        /* \"#utility.yul\":10290:10291   */\n      0x04\n        /* \"#utility.yul\":10283:10298   */\n      mstore\n        /* \"#utility.yul\":10317:10321   */\n      0x24\n        /* \"#utility.yul\":10314:10315   */\n      0x00\n        /* \"#utility.yul\":10307:10322   */\n      revert\n        /* \"#utility.yul\":10334:10506   */\n    tag_364:\n        /* \"#utility.yul\":10474:10498   */\n      0x4163636f756e7420616c72656164792065786973747300000000000000000000\n        /* \"#utility.yul\":10470:10471   */\n      0x00\n        /* \"#utility.yul\":10462:10468   */\n      dup3\n        /* \"#utility.yul\":10458:10472   */\n      add\n        /* \"#utility.yul\":10451:10499   */\n      mstore\n        /* \"#utility.yul\":10334:10506   */\n      pop\n      jump\t// out\n        /* \"#utility.yul\":10512:10878   */\n    tag_365:\n        /* \"#utility.yul\":10654:10657   */\n      0x00\n        /* \"#utility.yul\":10675:10742   */\n      tag_475\n        /* \"#utility.yul\":10739:10741   */\n      0x16\n        /* \"#utility.yul\":10734:10737   */\n      dup4\n        /* \"#utility.yul\":10675:10742   */\n      tag_359\n      jump\t// in\n    tag_475:\n        /* \"#utility.yul\":10668:10742   */\n      swap2\n      pop\n        /* \"#utility.yul\":10751:10844   */\n      tag_476\n        /* \"#utility.yul\":10840:10843   */\n      dup3\n        /* \"#utility.yul\":10751:10844   */\n      tag_364\n      jump\t// in\n    tag_476:\n        /* \"#utility.yul\":10869:10871   */\n      0x20\n        /* \"#utility.yul\":10864:10867   */\n      dup3\n        /* \"#utility.yul\":10860:10872   */\n      add\n        /* \"#utility.yul\":10853:10872   */\n      swap1\n      pop\n        /* \"#utility.yul\":10512:10878   */\n      swap2\n      swap1\n      pop\n      jump\t// out\n        /* \"#utility.yul\":10884:11303   */\n    tag_270:\n        /* \"#utility.yul\":11050:11054   */\n      0x00\n        /* \"#utility.yul\":11088:11090   */\n      0x20\n        /* \"#utility.yul\":11077:11086   */\n      dup3\n        /* \"#utility.yul\":11073:11091   */\n      add\n        /* \"#utility.yul\":11065:11091   */\n      swap1\n      pop\n        /* \"#utility.yul\":11137:11146   */\n      dup2\n        /* \"#utility.yul\":11131:11135   */\n      dup2\n        /* \"#utility.yul\":11127:11147   */\n      sub\n        /* \"#utility.yul\":11123:11124   */\n      0x00\n        /* \"#utility.yul\":11112:11121   */\n      dup4\n        /* \"#utility.yul\":11108:11125   */\n      add\n        /* \"#utility.yul\":11101:11148   */\n      mstore\n        /* \"#utility.yul\":11165:11296   */\n      tag_478\n        /* \"#utility.yul\":11291:11295   */\n      dup2\n        /* \"#utility.yul\":11165:11296   */\n      tag_365\n      jump\t// in\n    tag_478:\n        /* \"#utility.yul\":11157:11296   */\n      swap1\n      pop\n        /* \"#utility.yul\":10884:11303   */\n      swap2\n      swap1\n      pop\n      jump\t// out\n\n    auxdata: 0xa2646970667358221220e243433943d564c522174e53a395d319b2b7c9deccaf806c8af7c81d8ddce67264736f6c634300080c0033\n}\n",
				"bytecode": {
					"linkReferences": {},
					"object": "60806040523480156200001157600080fd5b5060405162004a9d38038062004a9d83398181016040528101906200003791906200134e565b33600160006101000a81548173ffffffffffffffffffffffffffffffffffffffff021916908373ffffffffffffffffffffffffffffffffffffffff1602179055506200008c33848484620000cc60201b60201c565b6200009f336000620003b760201b60201c565b620000b2336003620006e460201b60201c565b620000c33362000a1160201b60201c565b505050620016af565b83600073ffffffffffffffffffffffffffffffffffffffff16600260008373ffffffffffffffffffffffffffffffffffffffff1673ffffffffffffffffffffffffffffffffffffffff16815260200190815260200160002060000160009054906101000a900473ffffffffffffffffffffffffffffffffffffffff1673ffffffffffffffffffffffffffffffffffffffff1614620001a1576040517f08c379a0000000000000000000000000000000000000000000000000000000008152600401620001989062001468565b60405180910390fd5b6000604051806080016040528060001515815260200160001515815260200160001515815260200160011515815250905060006040518060c001604052808873ffffffffffffffffffffffffffffffffffffffff16815260200187815260200186815260200185815260200160001515815260200183815250905080600260008973ffffffffffffffffffffffffffffffffffffffff1673ffffffffffffffffffffffffffffffffffffffff16815260200190815260200160002060008201518160000160006101000a81548173ffffffffffffffffffffffffffffffffffffffff021916908373ffffffffffffffffffffffffffffffffffffffff1602179055506020820151816001019080519060200190620002c192919062001101565b506040820151816002019080519060200190620002e092919062001101565b506060820151816003019080519060200190620002ff92919062001101565b5060808201518160040160006101000a81548160ff02191690831515021790555060a08201518160050160008201518160000160006101000a81548160ff02191690831515021790555060208201518160000160016101000a81548160ff02191690831515021790555060408201518160000160026101000a81548160ff02191690831515021790555060608201518160000160036101000a81548160ff021916908315150217905550505090505050505050505050565b600160009054906101000a900473ffffffffffffffffffffffffffffffffffffffff1673ffffffffffffffffffffffffffffffffffffffff163373ffffffffffffffffffffffffffffffffffffffff161480620004215750620004203362000cb660201b60201c565b5b62000463576040517f08c379a00000000000000000000000000000000000000000000000000000000081526004016200045a9062001500565b60405180910390fd5b81600073ffffffffffffffffffffffffffffffffffffffff16600260008373ffffffffffffffffffffffffffffffffffffffff1673ffffffffffffffffffffffffffffffffffffffff16815260200190815260200160002060000160009054906101000a900473ffffffffffffffffffffffffffffffffffffffff1673ffffffffffffffffffffffffffffffffffffffff16141562000539576040517f08c379a0000000000000000000000000000000000000000000000000000000008152600401620005309062001572565b60405180910390fd5b6000600260008573ffffffffffffffffffffffffffffffffffffffff1673ffffffffffffffffffffffffffffffffffffffff16815260200190815260200160002090506000816005019050600060038111156200059b576200059a62001594565b5b846003811115620005b157620005b062001594565b5b1415620005db5760018160000160006101000a81548160ff021916908315150217905550620006dd565b60016003811115620005f257620005f162001594565b5b84600381111562000608576200060762001594565b5b1415620006325760018160000160016101000a81548160ff021916908315150217905550620006dc565b6002600381111562000649576200064862001594565b5b8460038111156200065f576200065e62001594565b5b1415620006895760018160000160026101000a81548160ff021916908315150217905550620006db565b6003808111156200069f576200069e62001594565b5b846003811115620006b557620006b462001594565b5b1415620006da5760018160000160036101000a81548160ff0219169083151502179055505b5b5b5b5050505050565b600160009054906101000a900473ffffffffffffffffffffffffffffffffffffffff1673ffffffffffffffffffffffffffffffffffffffff163373ffffffffffffffffffffffffffffffffffffffff1614806200074e57506200074d3362000cb660201b60201c565b5b62000790576040517f08c379a0000000000000000000000000000000000000000000000000000000008152600401620007879062001500565b60405180910390fd5b81600073ffffffffffffffffffffffffffffffffffffffff16600260008373ffffffffffffffffffffffffffffffffffffffff1673ffffffffffffffffffffffffffffffffffffffff16815260200190815260200160002060000160009054906101000a900473ffffffffffffffffffffffffffffffffffffffff1673ffffffffffffffffffffffffffffffffffffffff16141562000866576040517f08c379a00000000000000000000000000000000000000000000000000000000081526004016200085d9062001572565b60405180910390fd5b6000600260008573ffffffffffffffffffffffffffffffffffffffff1673ffffffffffffffffffffffffffffffffffffffff1681526020019081526020016000209050600081600501905060006003811115620008c857620008c762001594565b5b846003811115620008de57620008dd62001594565b5b1415620009085760008160000160006101000a81548160ff02191690831515021790555062000a0a565b600160038111156200091f576200091e62001594565b5b84600381111562000935576200093462001594565b5b14156200095f5760008160000160016101000a81548160ff02191690831515021790555062000a09565b6002600381111562000976576200097562001594565b5b8460038111156200098c576200098b62001594565b5b1415620009b65760008160000160026101000a81548160ff02191690831515021790555062000a08565b600380811115620009cc57620009cb62001594565b5b846003811115620009e257620009e162001594565b5b141562000a075760008160000160036101000a81548160ff0219169083151502179055505b5b5b5b5050505050565b80600073ffffffffffffffffffffffffffffffffffffffff16600260008373ffffffffffffffffffffffffffffffffffffffff1673ffffffffffffffffffffffffffffffffffffffff16815260200190815260200160002060000160009054906101000a900473ffffffffffffffffffffffffffffffffffffffff1673ffffffffffffffffffffffffffffffffffffffff16141562000ae7576040517f08c379a000000000000000000000000000000000000000000000000000000000815260040162000ade9062001572565b60405180910390fd5b600360008373ffffffffffffffffffffffffffffffffffffffff1673ffffffffffffffffffffffffffffffffffffffff16815260200190815260200160002060009054906101000a900460ff1662000cb2576000600260008473ffffffffffffffffffffffffffffffffffffffff1673ffffffffffffffffffffffffffffffffffffffff168152602001908152602001600020905060018160040160006101000a81548160ff0219169083151502179055506000816005016040518060800160405290816000820160009054906101000a900460ff161515151581526020016000820160019054906101000a900460ff161515151581526020016000820160029054906101000a900460ff161515151581526020016000820160039054906101000a900460ff161515151581525050905080600001518062000c2a575080602001515b8062000c37575080604001515b1562000caf576001600360008673ffffffffffffffffffffffffffffffffffffffff1673ffffffffffffffffffffffffffffffffffffffff16815260200190815260200160002060006101000a81548160ff02191690831515021790555060008081548092919062000ca990620015fc565b91905055505b50505b5050565b600062000ccb82600062000cd260201b60201c565b9050919050565b600080600260008573ffffffffffffffffffffffffffffffffffffffff1673ffffffffffffffffffffffffffffffffffffffff1681526020019081526020016000206040518060c00160405290816000820160009054906101000a900473ffffffffffffffffffffffffffffffffffffffff1673ffffffffffffffffffffffffffffffffffffffff1673ffffffffffffffffffffffffffffffffffffffff16815260200160018201805462000d879062001679565b80601f016020809104026020016040519081016040528092919081815260200182805462000db59062001679565b801562000e065780601f1062000dda5761010080835404028352916020019162000e06565b820191906000526020600020905b81548152906001019060200180831162000de857829003601f168201915b5050505050815260200160028201805462000e219062001679565b80601f016020809104026020016040519081016040528092919081815260200182805462000e4f9062001679565b801562000ea05780601f1062000e745761010080835404028352916020019162000ea0565b820191906000526020600020905b81548152906001019060200180831162000e8257829003601f168201915b5050505050815260200160038201805462000ebb9062001679565b80601f016020809104026020016040519081016040528092919081815260200182805462000ee99062001679565b801562000f3a5780601f1062000f0e5761010080835404028352916020019162000f3a565b820191906000526020600020905b81548152906001019060200180831162000f1c57829003601f168201915b505050505081526020016004820160009054906101000a900460ff16151515158152602001600582016040518060800160405290816000820160009054906101000a900460ff161515151581526020016000820160019054906101000a900460ff161515151581526020016000820160029054906101000a900460ff161515151581526020016000820160039054906101000a900460ff16151515158152505081525050905060008160a00151905060006003811115620010005762000fff62001594565b5b84600381111562001016576200101562001594565b5b14156200102c57806000015192505050620010fb565b6001600381111562001043576200104262001594565b5b84600381111562001059576200105862001594565b5b14156200106f57806020015192505050620010fb565b6002600381111562001086576200108562001594565b5b8460038111156200109c576200109b62001594565b5b1415620010b257806040015192505050620010fb565b600380811115620010c857620010c762001594565b5b846003811115620010de57620010dd62001594565b5b1415620010f457806060015192505050620010fb565b6000925050505b92915050565b8280546200110f9062001679565b90600052602060002090601f0160209004810192826200113357600085556200117f565b82601f106200114e57805160ff19168380011785556200117f565b828001600101855582156200117f579182015b828111156200117e57825182559160200191906001019062001161565b5b5090506200118e919062001192565b5090565b5b80821115620011ad57600081600090555060010162001193565b5090565b6000604051905090565b600080fd5b600080fd5b600080fd5b600080fd5b6000601f19601f8301169050919050565b7f4e487b7100000000000000000000000000000000000000000000000000000000600052604160045260246000fd5b6200121a82620011cf565b810181811067ffffffffffffffff821117156200123c576200123b620011e0565b5b80604052505050565b600062001251620011b1565b90506200125f82826200120f565b919050565b600067ffffffffffffffff821115620012825762001281620011e0565b5b6200128d82620011cf565b9050602081019050919050565b60005b83811015620012ba5780820151818401526020810190506200129d565b83811115620012ca576000848401525b50505050565b6000620012e7620012e18462001264565b62001245565b905082815260208101848484011115620013065762001305620011ca565b5b620013138482856200129a565b509392505050565b600082601f830112620013335762001332620011c5565b5b815162001345848260208601620012d0565b91505092915050565b6000806000606084860312156200136a5762001369620011bb565b5b600084015167ffffffffffffffff8111156200138b576200138a620011c0565b5b62001399868287016200131b565b935050602084015167ffffffffffffffff811115620013bd57620013bc620011c0565b5b620013cb868287016200131b565b925050604084015167ffffffffffffffff811115620013ef57620013ee620011c0565b5b620013fd868287016200131b565b9150509250925092565b600082825260208201905092915050565b7f4163636f756e7420616c72656164792065786973747300000000000000000000600082015250565b60006200145060168362001407565b91506200145d8262001418565b602082019050919050565b60006020820190508181036000830152620014838162001441565b9050919050565b7f4f6e6c79206f776e65722063616e2063616c6c20746869732066756e6374696f60008201527f6e2e000000000000000000000000000000000000000000000000000000000000602082015250565b6000620014e860228362001407565b9150620014f5826200148a565b604082019050919050565b600060208201905081810360008301526200151b81620014d9565b9050919050565b7f4163636f756e7420646f65736e27742065786973740000000000000000000000600082015250565b60006200155a60158362001407565b9150620015678262001522565b602082019050919050565b600060208201905081810360008301526200158d816200154b565b9050919050565b7f4e487b7100000000000000000000000000000000000000000000000000000000600052602160045260246000fd5b7f4e487b7100000000000000000000000000000000000000000000000000000000600052601160045260246000fd5b6000819050919050565b60006200160982620015f2565b91507fffffffffffffffffffffffffffffffffffffffffffffffffffffffffffffffff8214156200163f576200163e620015c3565b5b600182019050919050565b7f4e487b7100000000000000000000000000000000000000000000000000000000600052602260045260246000fd5b600060028204905060018216806200169257607f821691505b60208210811415620016a957620016a86200164a565b5b50919050565b6133de80620016bf6000396000f3fe608060405234801561001057600080fd5b506004361061010b5760003560e01c806365c93769116100a2578063c2b7d94811610071578063c2b7d948146102a4578063d3a5059a146102d4578063dee94b4a146102f0578063e8621e591461030c578063fa4d7aae1461033c5761010b565b806365c937691461021e5780638da5cb5b1461024e578063a1aea04a1461026c578063b74866fb146102885761010b565b8063297027d5116100de578063297027d51461019857806349587281146101c85780635fb6c6ed146101e4578063630a195b146102025761010b565b806301eb085714610110578063056909b71461014057806322faa41f14610170578063247ae7a31461018e575b600080fd5b61012a60048036038101906101259190612da5565b61036c565b6040516101379190612ded565b60405180910390f35b61015a60048036038101906101559190612da5565b6106eb565b6040516101679190612ded565b60405180910390f35b6101786106ff565b6040516101859190612e21565b60405180910390f35b610196610708565b005b6101b260048036038101906101ad9190612da5565b611199565b6040516101bf9190612ded565b60405180910390f35b6101e260048036038101906101dd9190612da5565b6111ad565b005b6101ec6113a7565b6040516101f99190612e21565b60405180910390f35b61021c60048036038101906102179190612e61565b6113ad565b005b61023860048036038101906102339190612da5565b6116ac565b6040516102459190612ded565b60405180910390f35b610256611a2b565b6040516102639190612eb0565b60405180910390f35b61028660048036038101906102819190612da5565b611a51565b005b6102a2600480360381019061029d9190612e61565b611ced565b005b6102be60048036038101906102b99190612da5565b611fec565b6040516102cb9190612ded565b60405180910390f35b6102ee60048036038101906102e99190612da5565b61236b565b005b61030a60048036038101906103059190613011565b61254f565b005b61032660048036038101906103219190612da5565b612831565b6040516103339190612ded565b60405180910390f35b61035660048036038101906103519190612da5565b612845565b6040516103639190612ded565b60405180910390f35b600080600260008473ffffffffffffffffffffffffffffffffffffffff1673ffffffffffffffffffffffffffffffffffffffff1681526020019081526020016000206040518060c00160405290816000820160009054906101000a900473ffffffffffffffffffffffffffffffffffffffff1673ffffffffffffffffffffffffffffffffffffffff1673ffffffffffffffffffffffffffffffffffffffff16815260200160018201805461041f906130fb565b80601f016020809104026020016040519081016040528092919081815260200182805461044b906130fb565b80156104985780601f1061046d57610100808354040283529160200191610498565b820191906000526020600020905b81548152906001019060200180831161047b57829003601f168201915b505050505081526020016002820180546104b1906130fb565b80601f01602080910402602001604051908101604052809291908181526020018280546104dd906130fb565b801561052a5780601f106104ff5761010080835404028352916020019161052a565b820191906000526020600020905b81548152906001019060200180831161050d57829003601f168201915b50505050508152602001600382018054610543906130fb565b80601f016020809104026020016040519081016040528092919081815260200182805461056f906130fb565b80156105bc5780601f10610591576101008083540402835291602001916105bc565b820191906000526020600020905b81548152906001019060200180831161059f57829003601f168201915b505050505081526020016004820160009054906101000a900460ff16151515158152602001600582016040518060800160405290816000820160009054906101000a900460ff161515151581526020016000820160019054906101000a900460ff161515151581526020016000820160029054906101000a900460ff161515151581526020016000820160039054906101000a900460ff161515151581525050815250509050600073ffffffffffffffffffffffffffffffffffffffff16816000015173ffffffffffffffffffffffffffffffffffffffff16146106e057806080015180156106d057508060a0015160000151806106bf57508060a00151602001515b806106cf57508060a00151604001515b5b156106df5760019150506106e6565b5b60009150505b919050565b60006106f8826002612859565b9050919050565b60008054905090565b600060405180610140016040528073ab8483f64d9c6d1ecf9b849ae677dd3315835cb273ffffffffffffffffffffffffffffffffffffffff1673ffffffffffffffffffffffffffffffffffffffff168152602001734b20993bc481177ec7e8f571cecae8a9e22c02db73ffffffffffffffffffffffffffffffffffffffff1673ffffffffffffffffffffffffffffffffffffffff1681526020017378731d3ca6b7e34ac0f824c42a7cc18a495cabab73ffffffffffffffffffffffffffffffffffffffff1673ffffffffffffffffffffffffffffffffffffffff16815260200173617f2e2fd72fd9d5503197092ac168c91465e7f273ffffffffffffffffffffffffffffffffffffffff1673ffffffffffffffffffffffffffffffffffffffff1681526020017317f6ad8ef982297579c203069c1dbffe4348c37273ffffffffffffffffffffffffffffffffffffffff1673ffffffffffffffffffffffffffffffffffffffff168152602001735c6b0f7bf3e7ce046039bd8fabdfd3f9f502167873ffffffffffffffffffffffffffffffffffffffff1673ffffffffffffffffffffffffffffffffffffffff1681526020017303c6fced478cbbc9a4fab34ef9f40767739d1ff773ffffffffffffffffffffffffffffffffffffffff1673ffffffffffffffffffffffffffffffffffffffff168152602001731ae0ea34a72d944a8c7603ffb3ec30a6669e454c73ffffffffffffffffffffffffffffffffffffffff1673ffffffffffffffffffffffffffffffffffffffff16815260200173ca35b7d915458ef540ade6068dfe2f44e8fa733c73ffffffffffffffffffffffffffffffffffffffff1673ffffffffffffffffffffffffffffffffffffffff1681526020017314723a09acff6d2a60dcdf7aa4aff308fddc160c73ffffffffffffffffffffffffffffffffffffffff1673ffffffffffffffffffffffffffffffffffffffff16815250905060006040518061014001604052806040518060400160405280600481526020017f5269636b0000000000000000000000000000000000000000000000000000000081525081526020016040518060400160405280600781526020017f56616e657373610000000000000000000000000000000000000000000000000081525081526020016040518060400160405280600481526020017f416c65780000000000000000000000000000000000000000000000000000000081525081526020016040518060400160405280600481526020017f566963690000000000000000000000000000000000000000000000000000000081525081526020016040518060400160405280600281526020017f4c7500000000000000000000000000000000000000000000000000000000000081525081526020016040518060400160405280600481526020017f4a6f686e0000000000000000000000000000000000000000000000000000000081525081526020016040518060400160405280600581526020017f536172616800000000000000000000000000000000000000000000000000000081525081526020016040518060400160405280600881526020017f53616d616e74686100000000000000000000000000000000000000000000000081525081526020016040518060400160405280600581526020017f506574657200000000000000000000000000000000000000000000000000000081525081526020016040518060400160405280600581526020017f4461766964000000000000000000000000000000000000000000000000000000815250815250905060006040518061014001604052806040518060400160405280600581526020017f506174656c00000000000000000000000000000000000000000000000000000081525081526020016040518060400160405280600381526020017f4b696d000000000000000000000000000000000000000000000000000000000081525081526020016040518060400160405280600581526020017f42726f776e00000000000000000000000000000000000000000000000000000081525081526020016040518060400160405280600581526020017f446176697300000000000000000000000000000000000000000000000000000081525081526020016040518060400160405280600881526020017f4d617274696e657a00000000000000000000000000000000000000000000000081525081526020016040518060400160405280600681526020017f57696c736f6e000000000000000000000000000000000000000000000000000081525081526020016040518060400160405280600681526020017f476172636961000000000000000000000000000000000000000000000000000081525081526020016040518060400160405280600581526020017f4a6f6e657300000000000000000000000000000000000000000000000000000081525081526020016040518060400160405280600781526020017f4a61636b736f6e0000000000000000000000000000000000000000000000000081525081526020016040518060400160405280600581526020017f536d697468000000000000000000000000000000000000000000000000000000815250815250905060006040518061014001604052806040518060400160405280601281526020017f5269636b2e506174656c40706f722e636f6d000000000000000000000000000081525081526020016040518060400160405280601381526020017f56616e657373612e4b696d40706f722e636f6d0000000000000000000000000081525081526020016040518060400160405280601281526020017f416c65782e42726f776e40706f722e636f6d000000000000000000000000000081525081526020016040518060400160405280601281526020017f566963692e446176697340706f722e636f6d000000000000000000000000000081525081526020016040518060400160405280601381526020017f4c752e4d617274696e657a40706f722e636f6d0000000000000000000000000081525081526020016040518060400160405280601381526020017f4a6f686e2e57696c736f6e40706f722e636f6d0000000000000000000000000081525081526020016040518060400160405280601481526020017f53617261682e47617263696140706f722e636f6d00000000000000000000000081525081526020016040518060400160405280601681526020017f53616d616e7468612e4a6f6e657340706f722e636f6d0000000000000000000081525081526020016040518060400160405280601581526020017f50657465722e4a61636b736f6e40706f722e636f6d000000000000000000000081525081526020016040518060400160405280601381526020017f44617669642e536d69746840706f722e636f6d00000000000000000000000000815250815250905060005b600a8110156111925760008582600a81106111075761110661312d565b5b6020020151905061115f818684600a81106111255761112461312d565b5b60200201518685600a811061113d5761113c61312d565b5b60200201518686600a81106111555761115461312d565b5b602002015161254f565b61116a8160026113ad565b611175816003611ced565b61117e81611a51565b50808061118a9061318b565b9150506110e9565b5050505050565b60006111a6826000612859565b9050919050565b80600073ffffffffffffffffffffffffffffffffffffffff16600260008373ffffffffffffffffffffffffffffffffffffffff1673ffffffffffffffffffffffffffffffffffffffff16815260200190815260200160002060000160009054906101000a900473ffffffffffffffffffffffffffffffffffffffff1673ffffffffffffffffffffffffffffffffffffffff161415611280576040517f08c379a000000000000000000000000000000000000000000000000000000000815260040161127790613231565b60405180910390fd5b600360008373ffffffffffffffffffffffffffffffffffffffff1673ffffffffffffffffffffffffffffffffffffffff16815260200190815260200160002060009054906101000a900460ff16156113a3576000600260008473ffffffffffffffffffffffffffffffffffffffff1673ffffffffffffffffffffffffffffffffffffffff168152602001908152602001600020905060008160040160006101000a81548160ff0219169083151502179055506000600360008573ffffffffffffffffffffffffffffffffffffffff1673ffffffffffffffffffffffffffffffffffffffff16815260200190815260200160002060006101000a81548160ff02191690831515021790555060008081548092919061139c90613251565b9190505550505b5050565b60005481565b600160009054906101000a900473ffffffffffffffffffffffffffffffffffffffff1673ffffffffffffffffffffffffffffffffffffffff163373ffffffffffffffffffffffffffffffffffffffff16148061140e575061140d33611199565b5b61144d576040517f08c379a0000000000000000000000000000000000000000000000000000000008152600401611444906132ed565b60405180910390fd5b81600073ffffffffffffffffffffffffffffffffffffffff16600260008373ffffffffffffffffffffffffffffffffffffffff1673ffffffffffffffffffffffffffffffffffffffff16815260200190815260200160002060000160009054906101000a900473ffffffffffffffffffffffffffffffffffffffff1673ffffffffffffffffffffffffffffffffffffffff161415611520576040517f08c379a000000000000000000000000000000000000000000000000000000000815260040161151790613231565b60405180910390fd5b6000600260008573ffffffffffffffffffffffffffffffffffffffff1673ffffffffffffffffffffffffffffffffffffffff168152602001908152602001600020905060008160050190506000600381111561157f5761157e61330d565b5b8460038111156115925761159161330d565b5b14156115ba5760018160000160006101000a81548160ff0219169083151502179055506116a5565b600160038111156115ce576115cd61330d565b5b8460038111156115e1576115e061330d565b5b14156116095760018160000160016101000a81548160ff0219169083151502179055506116a4565b6002600381111561161d5761161c61330d565b5b8460038111156116305761162f61330d565b5b14156116585760018160000160026101000a81548160ff0219169083151502179055506116a3565b60038081111561166b5761166a61330d565b5b84600381111561167e5761167d61330d565b5b14156116a25760018160000160036101000a81548160ff0219169083151502179055505b5b5b5b5050505050565b600080600260008473ffffffffffffffffffffffffffffffffffffffff1673ffffffffffffffffffffffffffffffffffffffff1681526020019081526020016000206040518060c00160405290816000820160009054906101000a900473ffffffffffffffffffffffffffffffffffffffff1673ffffffffffffffffffffffffffffffffffffffff1673ffffffffffffffffffffffffffffffffffffffff16815260200160018201805461175f906130fb565b80601f016020809104026020016040519081016040528092919081815260200182805461178b906130fb565b80156117d85780601f106117ad576101008083540402835291602001916117d8565b820191906000526020600020905b8154815290600101906020018083116117bb57829003601f168201915b505050505081526020016002820180546117f1906130fb565b80601f016020809104026020016040519081016040528092919081815260200182805461181d906130fb565b801561186a5780601f1061183f5761010080835404028352916020019161186a565b820191906000526020600020905b81548152906001019060200180831161184d57829003601f168201915b50505050508152602001600382018054611883906130fb565b80601f01602080910402602001604051908101604052809291908181526020018280546118af906130fb565b80156118fc5780601f106118d1576101008083540402835291602001916118fc565b820191906000526020600020905b8154815290600101906020018083116118df57829003601f168201915b505050505081526020016004820160009054906101000a900460ff16151515158152602001600582016040518060800160405290816000820160009054906101000a900460ff161515151581526020016000820160019054906101000a900460ff161515151581526020016000820160029054906101000a900460ff161515151581526020016000820160039054906101000a900460ff161515151581525050815250509050600073ffffffffffffffffffffffffffffffffffffffff16816000015173ffffffffffffffffffffffffffffffffffffffff1614611a205780608001518015611a1057508060a0015160000151806119ff57508060a00151602001515b80611a0f57508060a00151604001515b5b15611a1f576001915050611a26565b5b60009150505b919050565b600160009054906101000a900473ffffffffffffffffffffffffffffffffffffffff1681565b80600073ffffffffffffffffffffffffffffffffffffffff16600260008373ffffffffffffffffffffffffffffffffffffffff1673ffffffffffffffffffffffffffffffffffffffff16815260200190815260200160002060000160009054906101000a900473ffffffffffffffffffffffffffffffffffffffff1673ffffffffffffffffffffffffffffffffffffffff161415611b24576040517f08c379a0000000000000000000000000000000000000000000000000000000008152600401611b1b90613231565b60405180910390fd5b600360008373ffffffffffffffffffffffffffffffffffffffff1673ffffffffffffffffffffffffffffffffffffffff16815260200190815260200160002060009054906101000a900460ff16611ce9576000600260008473ffffffffffffffffffffffffffffffffffffffff1673ffffffffffffffffffffffffffffffffffffffff168152602001908152602001600020905060018160040160006101000a81548160ff0219169083151502179055506000816005016040518060800160405290816000820160009054906101000a900460ff161515151581526020016000820160019054906101000a900460ff161515151581526020016000820160029054906101000a900460ff161515151581526020016000820160039054906101000a900460ff1615151515815250509050806000015180611c65575080602001515b80611c71575080604001515b15611ce6576001600360008673ffffffffffffffffffffffffffffffffffffffff1673ffffffffffffffffffffffffffffffffffffffff16815260200190815260200160002060006101000a81548160ff021916908315150217905550600080815480929190611ce09061318b565b91905055505b50505b5050565b600160009054906101000a900473ffffffffffffffffffffffffffffffffffffffff1673ffffffffffffffffffffffffffffffffffffffff163373ffffffffffffffffffffffffffffffffffffffff161480611d4e5750611d4d33611199565b5b611d8d576040517f08c379a0000000000000000000000000000000000000000000000000000000008152600401611d84906132ed565b60405180910390fd5b81600073ffffffffffffffffffffffffffffffffffffffff16600260008373ffffffffffffffffffffffffffffffffffffffff1673ffffffffffffffffffffffffffffffffffffffff16815260200190815260200160002060000160009054906101000a900473ffffffffffffffffffffffffffffffffffffffff1673ffffffffffffffffffffffffffffffffffffffff161415611e60576040517f08c379a0000000000000000000000000000000000000000000000000000000008152600401611e5790613231565b60405180910390fd5b6000600260008573ffffffffffffffffffffffffffffffffffffffff1673ffffffffffffffffffffffffffffffffffffffff1681526020019081526020016000209050600081600501905060006003811115611ebf57611ebe61330d565b5b846003811115611ed257611ed161330d565b5b1415611efa5760008160000160006101000a81548160ff021916908315150217905550611fe5565b60016003811115611f0e57611f0d61330d565b5b846003811115611f2157611f2061330d565b5b1415611f495760008160000160016101000a81548160ff021916908315150217905550611fe4565b60026003811115611f5d57611f5c61330d565b5b846003811115611f7057611f6f61330d565b5b1415611f985760008160000160026101000a81548160ff021916908315150217905550611fe3565b600380811115611fab57611faa61330d565b5b846003811115611fbe57611fbd61330d565b5b1415611fe25760008160000160036101000a81548160ff0219169083151502179055505b5b5b5b5050505050565b600080600260008473ffffffffffffffffffffffffffffffffffffffff1673ffffffffffffffffffffffffffffffffffffffff1681526020019081526020016000206040518060c00160405290816000820160009054906101000a900473ffffffffffffffffffffffffffffffffffffffff1673ffffffffffffffffffffffffffffffffffffffff1673ffffffffffffffffffffffffffffffffffffffff16815260200160018201805461209f906130fb565b80601f01602080910402602001604051908101604052809291908181526020018280546120cb906130fb565b80156121185780601f106120ed57610100808354040283529160200191612118565b820191906000526020600020905b8154815290600101906020018083116120fb57829003601f168201915b50505050508152602001600282018054612131906130fb565b80601f016020809104026020016040519081016040528092919081815260200182805461215d906130fb565b80156121aa5780601f1061217f576101008083540402835291602001916121aa565b820191906000526020600020905b81548152906001019060200180831161218d57829003601f168201915b505050505081526020016003820180546121c3906130fb565b80601f01602080910402602001604051908101604052809291908181526020018280546121ef906130fb565b801561223c5780601f106122115761010080835404028352916020019161223c565b820191906000526020600020905b81548152906001019060200180831161221f57829003601f168201915b505050505081526020016004820160009054906101000a900460ff16151515158152602001600582016040518060800160405290816000820160009054906101000a900460ff161515151581526020016000820160019054906101000a900460ff161515151581526020016000820160029054906101000a900460ff161515151581526020016000820160039054906101000a900460ff161515151581525050815250509050600073ffffffffffffffffffffffffffffffffffffffff16816000015173ffffffffffffffffffffffffffffffffffffffff1614612360578060800151801561235057508060a00151600001518061233f57508060a00151602001515b8061234f57508060a00151604001515b5b1561235f576001915050612366565b5b60009150505b919050565b80600073ffffffffffffffffffffffffffffffffffffffff16600260008373ffffffffffffffffffffffffffffffffffffffff1673ffffffffffffffffffffffffffffffffffffffff16815260200190815260200160002060000160009054906101000a900473ffffffffffffffffffffffffffffffffffffffff1673ffffffffffffffffffffffffffffffffffffffff16141561243e576040517f08c379a000000000000000000000000000000000000000000000000000000000815260040161243590613231565b60405180910390fd5b612447826111ad565b600260008373ffffffffffffffffffffffffffffffffffffffff1673ffffffffffffffffffffffffffffffffffffffff168152602001908152602001600020600080820160006101000a81549073ffffffffffffffffffffffffffffffffffffffff02191690556001820160006124be9190612c50565b6002820160006124ce9190612c50565b6003820160006124de9190612c50565b6004820160006101000a81549060ff021916905560058201600080820160006101000a81549060ff02191690556000820160016101000a81549060ff02191690556000820160026101000a81549060ff02191690556000820160036101000a81549060ff0219169055505050505050565b83600073ffffffffffffffffffffffffffffffffffffffff16600260008373ffffffffffffffffffffffffffffffffffffffff1673ffffffffffffffffffffffffffffffffffffffff16815260200190815260200160002060000160009054906101000a900473ffffffffffffffffffffffffffffffffffffffff1673ffffffffffffffffffffffffffffffffffffffff1614612621576040517f08c379a000000000000000000000000000000000000000000000000000000000815260040161261890613388565b60405180910390fd5b6000604051806080016040528060001515815260200160001515815260200160001515815260200160011515815250905060006040518060c001604052808873ffffffffffffffffffffffffffffffffffffffff16815260200187815260200186815260200185815260200160001515815260200183815250905080600260008973ffffffffffffffffffffffffffffffffffffffff1673ffffffffffffffffffffffffffffffffffffffff16815260200190815260200160002060008201518160000160006101000a81548173ffffffffffffffffffffffffffffffffffffffff021916908373ffffffffffffffffffffffffffffffffffffffff160217905550602082015181600101908051906020019061273f929190612c90565b50604082015181600201908051906020019061275c929190612c90565b506060820151816003019080519060200190612779929190612c90565b5060808201518160040160006101000a81548160ff02191690831515021790555060a08201518160050160008201518160000160006101000a81548160ff02191690831515021790555060208201518160000160016101000a81548160ff02191690831515021790555060408201518160000160026101000a81548160ff02191690831515021790555060608201518160000160036101000a81548160ff021916908315150217905550505090505050505050505050565b600061283e826003612859565b9050919050565b6000612852826001612859565b9050919050565b600080600260008573ffffffffffffffffffffffffffffffffffffffff1673ffffffffffffffffffffffffffffffffffffffff1681526020019081526020016000206040518060c00160405290816000820160009054906101000a900473ffffffffffffffffffffffffffffffffffffffff1673ffffffffffffffffffffffffffffffffffffffff1673ffffffffffffffffffffffffffffffffffffffff16815260200160018201805461290c906130fb565b80601f0160208091040260200160405190810160405280929190818152602001828054612938906130fb565b80156129855780601f1061295a57610100808354040283529160200191612985565b820191906000526020600020905b81548152906001019060200180831161296857829003601f168201915b5050505050815260200160028201805461299e906130fb565b80601f01602080910402602001604051908101604052809291908181526020018280546129ca906130fb565b8015612a175780601f106129ec57610100808354040283529160200191612a17565b820191906000526020600020905b8154815290600101906020018083116129fa57829003601f168201915b50505050508152602001600382018054612a30906130fb565b80601f0160208091040260200160405190810160405280929190818152602001828054612a5c906130fb565b8015612aa95780601f10612a7e57610100808354040283529160200191612aa9565b820191906000526020600020905b815481529060010190602001808311612a8c57829003601f168201915b505050505081526020016004820160009054906101000a900460ff16151515158152602001600582016040518060800160405290816000820160009054906101000a900460ff161515151581526020016000820160019054906101000a900460ff161515151581526020016000820160029054906101000a900460ff161515151581526020016000820160039054906101000a900460ff16151515158152505081525050905060008160a00151905060006003811115612b6c57612b6b61330d565b5b846003811115612b7f57612b7e61330d565b5b1415612b9357806000015192505050612c4a565b60016003811115612ba757612ba661330d565b5b846003811115612bba57612bb961330d565b5b1415612bce57806020015192505050612c4a565b60026003811115612be257612be161330d565b5b846003811115612bf557612bf461330d565b5b1415612c0957806040015192505050612c4a565b600380811115612c1c57612c1b61330d565b5b846003811115612c2f57612c2e61330d565b5b1415612c4357806060015192505050612c4a565b6000925050505b92915050565b508054612c5c906130fb565b6000825580601f10612c6e5750612c8d565b601f016020900490600052602060002090810190612c8c9190612d16565b5b50565b828054612c9c906130fb565b90600052602060002090601f016020900481019282612cbe5760008555612d05565b82601f10612cd757805160ff1916838001178555612d05565b82800160010185558215612d05579182015b82811115612d04578251825591602001919060010190612ce9565b5b509050612d129190612d16565b5090565b5b80821115612d2f576000816000905550600101612d17565b5090565b6000604051905090565b600080fd5b600080fd5b600073ffffffffffffffffffffffffffffffffffffffff82169050919050565b6000612d7282612d47565b9050919050565b612d8281612d67565b8114612d8d57600080fd5b50565b600081359050612d9f81612d79565b92915050565b600060208284031215612dbb57612dba612d3d565b5b6000612dc984828501612d90565b91505092915050565b60008115159050919050565b612de781612dd2565b82525050565b6000602082019050612e026000830184612dde565b92915050565b6000819050919050565b612e1b81612e08565b82525050565b6000602082019050612e366000830184612e12565b92915050565b60048110612e4957600080fd5b50565b600081359050612e5b81612e3c565b92915050565b60008060408385031215612e7857612e77612d3d565b5b6000612e8685828601612d90565b9250506020612e9785828601612e4c565b9150509250929050565b612eaa81612d67565b82525050565b6000602082019050612ec56000830184612ea1565b92915050565b600080fd5b600080fd5b6000601f19601f8301169050919050565b7f4e487b7100000000000000000000000000000000000000000000000000000000600052604160045260246000fd5b612f1e82612ed5565b810181811067ffffffffffffffff82111715612f3d57612f3c612ee6565b5b80604052505050565b6000612f50612d33565b9050612f5c8282612f15565b919050565b600067ffffffffffffffff821115612f7c57612f7b612ee6565b5b612f8582612ed5565b9050602081019050919050565b82818337600083830152505050565b6000612fb4612faf84612f61565b612f46565b905082815260208101848484011115612fd057612fcf612ed0565b5b612fdb848285612f92565b509392505050565b600082601f830112612ff857612ff7612ecb565b5b8135613008848260208601612fa1565b91505092915050565b6000806000806080858703121561302b5761302a612d3d565b5b600061303987828801612d90565b945050602085013567ffffffffffffffff81111561305a57613059612d42565b5b61306687828801612fe3565b935050604085013567ffffffffffffffff81111561308757613086612d42565b5b61309387828801612fe3565b925050606085013567ffffffffffffffff8111156130b4576130b3612d42565b5b6130c087828801612fe3565b91505092959194509250565b7f4e487b7100000000000000000000000000000000000000000000000000000000600052602260045260246000fd5b6000600282049050600182168061311357607f821691505b60208210811415613127576131266130cc565b5b50919050565b7f4e487b7100000000000000000000000000000000000000000000000000000000600052603260045260246000fd5b7f4e487b7100000000000000000000000000000000000000000000000000000000600052601160045260246000fd5b600061319682612e08565b91507fffffffffffffffffffffffffffffffffffffffffffffffffffffffffffffffff8214156131c9576131c861315c565b5b600182019050919050565b600082825260208201905092915050565b7f4163636f756e7420646f65736e27742065786973740000000000000000000000600082015250565b600061321b6015836131d4565b9150613226826131e5565b602082019050919050565b6000602082019050818103600083015261324a8161320e565b9050919050565b600061325c82612e08565b915060008214156132705761326f61315c565b5b600182039050919050565b7f4f6e6c79206f776e65722063616e2063616c6c20746869732066756e6374696f60008201527f6e2e000000000000000000000000000000000000000000000000000000000000602082015250565b60006132d76022836131d4565b91506132e28261327b565b604082019050919050565b60006020820190508181036000830152613306816132ca565b9050919050565b7f4e487b7100000000000000000000000000000000000000000000000000000000600052602160045260246000fd5b7f4163636f756e7420616c72656164792065786973747300000000000000000000600082015250565b60006133726016836131d4565b915061337d8261333c565b602082019050919050565b600060208201905081810360008301526133a181613365565b905091905056fea2646970667358221220e243433943d564c522174e53a395d319b2b7c9deccaf806c8af7c81d8ddce67264736f6c634300080c0033",
					"opcodes": "PUSH1 0x80 PUSH1 0x40 MSTORE CALLVALUE DUP1 ISZERO PUSH3 0x11 JUMPI PUSH1 0x0 DUP1 REVERT JUMPDEST POP PUSH1 0x40 MLOAD PUSH3 0x4A9D CODESIZE SUB DUP1 PUSH3 0x4A9D DUP4 CODECOPY DUP2 DUP2 ADD PUSH1 0x40 MSTORE DUP2 ADD SWAP1 PUSH3 0x37 SWAP2 SWAP1 PUSH3 0x134E JUMP JUMPDEST CALLER PUSH1 0x1 PUSH1 0x0 PUSH2 0x100 EXP DUP2 SLOAD DUP2 PUSH20 0xFFFFFFFFFFFFFFFFFFFFFFFFFFFFFFFFFFFFFFFF MUL NOT AND SWAP1 DUP4 PUSH20 0xFFFFFFFFFFFFFFFFFFFFFFFFFFFFFFFFFFFFFFFF AND MUL OR SWAP1 SSTORE POP PUSH3 0x8C CALLER DUP5 DUP5 DUP5 PUSH3 0xCC PUSH1 0x20 SHL PUSH1 0x20 SHR JUMP JUMPDEST PUSH3 0x9F CALLER PUSH1 0x0 PUSH3 0x3B7 PUSH1 0x20 SHL PUSH1 0x20 SHR JUMP JUMPDEST PUSH3 0xB2 CALLER PUSH1 0x3 PUSH3 0x6E4 PUSH1 0x20 SHL PUSH1 0x20 SHR JUMP JUMPDEST PUSH3 0xC3 CALLER PUSH3 0xA11 PUSH1 0x20 SHL PUSH1 0x20 SHR JUMP JUMPDEST POP POP POP PUSH3 0x16AF JUMP JUMPDEST DUP4 PUSH1 0x0 PUSH20 0xFFFFFFFFFFFFFFFFFFFFFFFFFFFFFFFFFFFFFFFF AND PUSH1 0x2 PUSH1 0x0 DUP4 PUSH20 0xFFFFFFFFFFFFFFFFFFFFFFFFFFFFFFFFFFFFFFFF AND PUSH20 0xFFFFFFFFFFFFFFFFFFFFFFFFFFFFFFFFFFFFFFFF AND DUP2 MSTORE PUSH1 0x20 ADD SWAP1 DUP2 MSTORE PUSH1 0x20 ADD PUSH1 0x0 KECCAK256 PUSH1 0x0 ADD PUSH1 0x0 SWAP1 SLOAD SWAP1 PUSH2 0x100 EXP SWAP1 DIV PUSH20 0xFFFFFFFFFFFFFFFFFFFFFFFFFFFFFFFFFFFFFFFF AND PUSH20 0xFFFFFFFFFFFFFFFFFFFFFFFFFFFFFFFFFFFFFFFF AND EQ PUSH3 0x1A1 JUMPI PUSH1 0x40 MLOAD PUSH32 0x8C379A000000000000000000000000000000000000000000000000000000000 DUP2 MSTORE PUSH1 0x4 ADD PUSH3 0x198 SWAP1 PUSH3 0x1468 JUMP JUMPDEST PUSH1 0x40 MLOAD DUP1 SWAP2 SUB SWAP1 REVERT JUMPDEST PUSH1 0x0 PUSH1 0x40 MLOAD DUP1 PUSH1 0x80 ADD PUSH1 0x40 MSTORE DUP1 PUSH1 0x0 ISZERO ISZERO DUP2 MSTORE PUSH1 0x20 ADD PUSH1 0x0 ISZERO ISZERO DUP2 MSTORE PUSH1 0x20 ADD PUSH1 0x0 ISZERO ISZERO DUP2 MSTORE PUSH1 0x20 ADD PUSH1 0x1 ISZERO ISZERO DUP2 MSTORE POP SWAP1 POP PUSH1 0x0 PUSH1 0x40 MLOAD DUP1 PUSH1 0xC0 ADD PUSH1 0x40 MSTORE DUP1 DUP9 PUSH20 0xFFFFFFFFFFFFFFFFFFFFFFFFFFFFFFFFFFFFFFFF AND DUP2 MSTORE PUSH1 0x20 ADD DUP8 DUP2 MSTORE PUSH1 0x20 ADD DUP7 DUP2 MSTORE PUSH1 0x20 ADD DUP6 DUP2 MSTORE PUSH1 0x20 ADD PUSH1 0x0 ISZERO ISZERO DUP2 MSTORE PUSH1 0x20 ADD DUP4 DUP2 MSTORE POP SWAP1 POP DUP1 PUSH1 0x2 PUSH1 0x0 DUP10 PUSH20 0xFFFFFFFFFFFFFFFFFFFFFFFFFFFFFFFFFFFFFFFF AND PUSH20 0xFFFFFFFFFFFFFFFFFFFFFFFFFFFFFFFFFFFFFFFF AND DUP2 MSTORE PUSH1 0x20 ADD SWAP1 DUP2 MSTORE PUSH1 0x20 ADD PUSH1 0x0 KECCAK256 PUSH1 0x0 DUP3 ADD MLOAD DUP2 PUSH1 0x0 ADD PUSH1 0x0 PUSH2 0x100 EXP DUP2 SLOAD DUP2 PUSH20 0xFFFFFFFFFFFFFFFFFFFFFFFFFFFFFFFFFFFFFFFF MUL NOT AND SWAP1 DUP4 PUSH20 0xFFFFFFFFFFFFFFFFFFFFFFFFFFFFFFFFFFFFFFFF AND MUL OR SWAP1 SSTORE POP PUSH1 0x20 DUP3 ADD MLOAD DUP2 PUSH1 0x1 ADD SWAP1 DUP1 MLOAD SWAP1 PUSH1 0x20 ADD SWAP1 PUSH3 0x2C1 SWAP3 SWAP2 SWAP1 PUSH3 0x1101 JUMP JUMPDEST POP PUSH1 0x40 DUP3 ADD MLOAD DUP2 PUSH1 0x2 ADD SWAP1 DUP1 MLOAD SWAP1 PUSH1 0x20 ADD SWAP1 PUSH3 0x2E0 SWAP3 SWAP2 SWAP1 PUSH3 0x1101 JUMP JUMPDEST POP PUSH1 0x60 DUP3 ADD MLOAD DUP2 PUSH1 0x3 ADD SWAP1 DUP1 MLOAD SWAP1 PUSH1 0x20 ADD SWAP1 PUSH3 0x2FF SWAP3 SWAP2 SWAP1 PUSH3 0x1101 JUMP JUMPDEST POP PUSH1 0x80 DUP3 ADD MLOAD DUP2 PUSH1 0x4 ADD PUSH1 0x0 PUSH2 0x100 EXP DUP2 SLOAD DUP2 PUSH1 0xFF MUL NOT AND SWAP1 DUP4 ISZERO ISZERO MUL OR SWAP1 SSTORE POP PUSH1 0xA0 DUP3 ADD MLOAD DUP2 PUSH1 0x5 ADD PUSH1 0x0 DUP3 ADD MLOAD DUP2 PUSH1 0x0 ADD PUSH1 0x0 PUSH2 0x100 EXP DUP2 SLOAD DUP2 PUSH1 0xFF MUL NOT AND SWAP1 DUP4 ISZERO ISZERO MUL OR SWAP1 SSTORE POP PUSH1 0x20 DUP3 ADD MLOAD DUP2 PUSH1 0x0 ADD PUSH1 0x1 PUSH2 0x100 EXP DUP2 SLOAD DUP2 PUSH1 0xFF MUL NOT AND SWAP1 DUP4 ISZERO ISZERO MUL OR SWAP1 SSTORE POP PUSH1 0x40 DUP3 ADD MLOAD DUP2 PUSH1 0x0 ADD PUSH1 0x2 PUSH2 0x100 EXP DUP2 SLOAD DUP2 PUSH1 0xFF MUL NOT AND SWAP1 DUP4 ISZERO ISZERO MUL OR SWAP1 SSTORE POP PUSH1 0x60 DUP3 ADD MLOAD DUP2 PUSH1 0x0 ADD PUSH1 0x3 PUSH2 0x100 EXP DUP2 SLOAD DUP2 PUSH1 0xFF MUL NOT AND SWAP1 DUP4 ISZERO ISZERO MUL OR SWAP1 SSTORE POP POP POP SWAP1 POP POP POP POP POP POP POP POP POP JUMP JUMPDEST PUSH1 0x1 PUSH1 0x0 SWAP1 SLOAD SWAP1 PUSH2 0x100 EXP SWAP1 DIV PUSH20 0xFFFFFFFFFFFFFFFFFFFFFFFFFFFFFFFFFFFFFFFF AND PUSH20 0xFFFFFFFFFFFFFFFFFFFFFFFFFFFFFFFFFFFFFFFF AND CALLER PUSH20 0xFFFFFFFFFFFFFFFFFFFFFFFFFFFFFFFFFFFFFFFF AND EQ DUP1 PUSH3 0x421 JUMPI POP PUSH3 0x420 CALLER PUSH3 0xCB6 PUSH1 0x20 SHL PUSH1 0x20 SHR JUMP JUMPDEST JUMPDEST PUSH3 0x463 JUMPI PUSH1 0x40 MLOAD PUSH32 0x8C379A000000000000000000000000000000000000000000000000000000000 DUP2 MSTORE PUSH1 0x4 ADD PUSH3 0x45A SWAP1 PUSH3 0x1500 JUMP JUMPDEST PUSH1 0x40 MLOAD DUP1 SWAP2 SUB SWAP1 REVERT JUMPDEST DUP2 PUSH1 0x0 PUSH20 0xFFFFFFFFFFFFFFFFFFFFFFFFFFFFFFFFFFFFFFFF AND PUSH1 0x2 PUSH1 0x0 DUP4 PUSH20 0xFFFFFFFFFFFFFFFFFFFFFFFFFFFFFFFFFFFFFFFF AND PUSH20 0xFFFFFFFFFFFFFFFFFFFFFFFFFFFFFFFFFFFFFFFF AND DUP2 MSTORE PUSH1 0x20 ADD SWAP1 DUP2 MSTORE PUSH1 0x20 ADD PUSH1 0x0 KECCAK256 PUSH1 0x0 ADD PUSH1 0x0 SWAP1 SLOAD SWAP1 PUSH2 0x100 EXP SWAP1 DIV PUSH20 0xFFFFFFFFFFFFFFFFFFFFFFFFFFFFFFFFFFFFFFFF AND PUSH20 0xFFFFFFFFFFFFFFFFFFFFFFFFFFFFFFFFFFFFFFFF AND EQ ISZERO PUSH3 0x539 JUMPI PUSH1 0x40 MLOAD PUSH32 0x8C379A000000000000000000000000000000000000000000000000000000000 DUP2 MSTORE PUSH1 0x4 ADD PUSH3 0x530 SWAP1 PUSH3 0x1572 JUMP JUMPDEST PUSH1 0x40 MLOAD DUP1 SWAP2 SUB SWAP1 REVERT JUMPDEST PUSH1 0x0 PUSH1 0x2 PUSH1 0x0 DUP6 PUSH20 0xFFFFFFFFFFFFFFFFFFFFFFFFFFFFFFFFFFFFFFFF AND PUSH20 0xFFFFFFFFFFFFFFFFFFFFFFFFFFFFFFFFFFFFFFFF AND DUP2 MSTORE PUSH1 0x20 ADD SWAP1 DUP2 MSTORE PUSH1 0x20 ADD PUSH1 0x0 KECCAK256 SWAP1 POP PUSH1 0x0 DUP2 PUSH1 0x5 ADD SWAP1 POP PUSH1 0x0 PUSH1 0x3 DUP2 GT ISZERO PUSH3 0x59B JUMPI PUSH3 0x59A PUSH3 0x1594 JUMP JUMPDEST JUMPDEST DUP5 PUSH1 0x3 DUP2 GT ISZERO PUSH3 0x5B1 JUMPI PUSH3 0x5B0 PUSH3 0x1594 JUMP JUMPDEST JUMPDEST EQ ISZERO PUSH3 0x5DB JUMPI PUSH1 0x1 DUP2 PUSH1 0x0 ADD PUSH1 0x0 PUSH2 0x100 EXP DUP2 SLOAD DUP2 PUSH1 0xFF MUL NOT AND SWAP1 DUP4 ISZERO ISZERO MUL OR SWAP1 SSTORE POP PUSH3 0x6DD JUMP JUMPDEST PUSH1 0x1 PUSH1 0x3 DUP2 GT ISZERO PUSH3 0x5F2 JUMPI PUSH3 0x5F1 PUSH3 0x1594 JUMP JUMPDEST JUMPDEST DUP5 PUSH1 0x3 DUP2 GT ISZERO PUSH3 0x608 JUMPI PUSH3 0x607 PUSH3 0x1594 JUMP JUMPDEST JUMPDEST EQ ISZERO PUSH3 0x632 JUMPI PUSH1 0x1 DUP2 PUSH1 0x0 ADD PUSH1 0x1 PUSH2 0x100 EXP DUP2 SLOAD DUP2 PUSH1 0xFF MUL NOT AND SWAP1 DUP4 ISZERO ISZERO MUL OR SWAP1 SSTORE POP PUSH3 0x6DC JUMP JUMPDEST PUSH1 0x2 PUSH1 0x3 DUP2 GT ISZERO PUSH3 0x649 JUMPI PUSH3 0x648 PUSH3 0x1594 JUMP JUMPDEST JUMPDEST DUP5 PUSH1 0x3 DUP2 GT ISZERO PUSH3 0x65F JUMPI PUSH3 0x65E PUSH3 0x1594 JUMP JUMPDEST JUMPDEST EQ ISZERO PUSH3 0x689 JUMPI PUSH1 0x1 DUP2 PUSH1 0x0 ADD PUSH1 0x2 PUSH2 0x100 EXP DUP2 SLOAD DUP2 PUSH1 0xFF MUL NOT AND SWAP1 DUP4 ISZERO ISZERO MUL OR SWAP1 SSTORE POP PUSH3 0x6DB JUMP JUMPDEST PUSH1 0x3 DUP1 DUP2 GT ISZERO PUSH3 0x69F JUMPI PUSH3 0x69E PUSH3 0x1594 JUMP JUMPDEST JUMPDEST DUP5 PUSH1 0x3 DUP2 GT ISZERO PUSH3 0x6B5 JUMPI PUSH3 0x6B4 PUSH3 0x1594 JUMP JUMPDEST JUMPDEST EQ ISZERO PUSH3 0x6DA JUMPI PUSH1 0x1 DUP2 PUSH1 0x0 ADD PUSH1 0x3 PUSH2 0x100 EXP DUP2 SLOAD DUP2 PUSH1 0xFF MUL NOT AND SWAP1 DUP4 ISZERO ISZERO MUL OR SWAP1 SSTORE POP JUMPDEST JUMPDEST JUMPDEST JUMPDEST POP POP POP POP POP JUMP JUMPDEST PUSH1 0x1 PUSH1 0x0 SWAP1 SLOAD SWAP1 PUSH2 0x100 EXP SWAP1 DIV PUSH20 0xFFFFFFFFFFFFFFFFFFFFFFFFFFFFFFFFFFFFFFFF AND PUSH20 0xFFFFFFFFFFFFFFFFFFFFFFFFFFFFFFFFFFFFFFFF AND CALLER PUSH20 0xFFFFFFFFFFFFFFFFFFFFFFFFFFFFFFFFFFFFFFFF AND EQ DUP1 PUSH3 0x74E JUMPI POP PUSH3 0x74D CALLER PUSH3 0xCB6 PUSH1 0x20 SHL PUSH1 0x20 SHR JUMP JUMPDEST JUMPDEST PUSH3 0x790 JUMPI PUSH1 0x40 MLOAD PUSH32 0x8C379A000000000000000000000000000000000000000000000000000000000 DUP2 MSTORE PUSH1 0x4 ADD PUSH3 0x787 SWAP1 PUSH3 0x1500 JUMP JUMPDEST PUSH1 0x40 MLOAD DUP1 SWAP2 SUB SWAP1 REVERT JUMPDEST DUP2 PUSH1 0x0 PUSH20 0xFFFFFFFFFFFFFFFFFFFFFFFFFFFFFFFFFFFFFFFF AND PUSH1 0x2 PUSH1 0x0 DUP4 PUSH20 0xFFFFFFFFFFFFFFFFFFFFFFFFFFFFFFFFFFFFFFFF AND PUSH20 0xFFFFFFFFFFFFFFFFFFFFFFFFFFFFFFFFFFFFFFFF AND DUP2 MSTORE PUSH1 0x20 ADD SWAP1 DUP2 MSTORE PUSH1 0x20 ADD PUSH1 0x0 KECCAK256 PUSH1 0x0 ADD PUSH1 0x0 SWAP1 SLOAD SWAP1 PUSH2 0x100 EXP SWAP1 DIV PUSH20 0xFFFFFFFFFFFFFFFFFFFFFFFFFFFFFFFFFFFFFFFF AND PUSH20 0xFFFFFFFFFFFFFFFFFFFFFFFFFFFFFFFFFFFFFFFF AND EQ ISZERO PUSH3 0x866 JUMPI PUSH1 0x40 MLOAD PUSH32 0x8C379A000000000000000000000000000000000000000000000000000000000 DUP2 MSTORE PUSH1 0x4 ADD PUSH3 0x85D SWAP1 PUSH3 0x1572 JUMP JUMPDEST PUSH1 0x40 MLOAD DUP1 SWAP2 SUB SWAP1 REVERT JUMPDEST PUSH1 0x0 PUSH1 0x2 PUSH1 0x0 DUP6 PUSH20 0xFFFFFFFFFFFFFFFFFFFFFFFFFFFFFFFFFFFFFFFF AND PUSH20 0xFFFFFFFFFFFFFFFFFFFFFFFFFFFFFFFFFFFFFFFF AND DUP2 MSTORE PUSH1 0x20 ADD SWAP1 DUP2 MSTORE PUSH1 0x20 ADD PUSH1 0x0 KECCAK256 SWAP1 POP PUSH1 0x0 DUP2 PUSH1 0x5 ADD SWAP1 POP PUSH1 0x0 PUSH1 0x3 DUP2 GT ISZERO PUSH3 0x8C8 JUMPI PUSH3 0x8C7 PUSH3 0x1594 JUMP JUMPDEST JUMPDEST DUP5 PUSH1 0x3 DUP2 GT ISZERO PUSH3 0x8DE JUMPI PUSH3 0x8DD PUSH3 0x1594 JUMP JUMPDEST JUMPDEST EQ ISZERO PUSH3 0x908 JUMPI PUSH1 0x0 DUP2 PUSH1 0x0 ADD PUSH1 0x0 PUSH2 0x100 EXP DUP2 SLOAD DUP2 PUSH1 0xFF MUL NOT AND SWAP1 DUP4 ISZERO ISZERO MUL OR SWAP1 SSTORE POP PUSH3 0xA0A JUMP JUMPDEST PUSH1 0x1 PUSH1 0x3 DUP2 GT ISZERO PUSH3 0x91F JUMPI PUSH3 0x91E PUSH3 0x1594 JUMP JUMPDEST JUMPDEST DUP5 PUSH1 0x3 DUP2 GT ISZERO PUSH3 0x935 JUMPI PUSH3 0x934 PUSH3 0x1594 JUMP JUMPDEST JUMPDEST EQ ISZERO PUSH3 0x95F JUMPI PUSH1 0x0 DUP2 PUSH1 0x0 ADD PUSH1 0x1 PUSH2 0x100 EXP DUP2 SLOAD DUP2 PUSH1 0xFF MUL NOT AND SWAP1 DUP4 ISZERO ISZERO MUL OR SWAP1 SSTORE POP PUSH3 0xA09 JUMP JUMPDEST PUSH1 0x2 PUSH1 0x3 DUP2 GT ISZERO PUSH3 0x976 JUMPI PUSH3 0x975 PUSH3 0x1594 JUMP JUMPDEST JUMPDEST DUP5 PUSH1 0x3 DUP2 GT ISZERO PUSH3 0x98C JUMPI PUSH3 0x98B PUSH3 0x1594 JUMP JUMPDEST JUMPDEST EQ ISZERO PUSH3 0x9B6 JUMPI PUSH1 0x0 DUP2 PUSH1 0x0 ADD PUSH1 0x2 PUSH2 0x100 EXP DUP2 SLOAD DUP2 PUSH1 0xFF MUL NOT AND SWAP1 DUP4 ISZERO ISZERO MUL OR SWAP1 SSTORE POP PUSH3 0xA08 JUMP JUMPDEST PUSH1 0x3 DUP1 DUP2 GT ISZERO PUSH3 0x9CC JUMPI PUSH3 0x9CB PUSH3 0x1594 JUMP JUMPDEST JUMPDEST DUP5 PUSH1 0x3 DUP2 GT ISZERO PUSH3 0x9E2 JUMPI PUSH3 0x9E1 PUSH3 0x1594 JUMP JUMPDEST JUMPDEST EQ ISZERO PUSH3 0xA07 JUMPI PUSH1 0x0 DUP2 PUSH1 0x0 ADD PUSH1 0x3 PUSH2 0x100 EXP DUP2 SLOAD DUP2 PUSH1 0xFF MUL NOT AND SWAP1 DUP4 ISZERO ISZERO MUL OR SWAP1 SSTORE POP JUMPDEST JUMPDEST JUMPDEST JUMPDEST POP POP POP POP POP JUMP JUMPDEST DUP1 PUSH1 0x0 PUSH20 0xFFFFFFFFFFFFFFFFFFFFFFFFFFFFFFFFFFFFFFFF AND PUSH1 0x2 PUSH1 0x0 DUP4 PUSH20 0xFFFFFFFFFFFFFFFFFFFFFFFFFFFFFFFFFFFFFFFF AND PUSH20 0xFFFFFFFFFFFFFFFFFFFFFFFFFFFFFFFFFFFFFFFF AND DUP2 MSTORE PUSH1 0x20 ADD SWAP1 DUP2 MSTORE PUSH1 0x20 ADD PUSH1 0x0 KECCAK256 PUSH1 0x0 ADD PUSH1 0x0 SWAP1 SLOAD SWAP1 PUSH2 0x100 EXP SWAP1 DIV PUSH20 0xFFFFFFFFFFFFFFFFFFFFFFFFFFFFFFFFFFFFFFFF AND PUSH20 0xFFFFFFFFFFFFFFFFFFFFFFFFFFFFFFFFFFFFFFFF AND EQ ISZERO PUSH3 0xAE7 JUMPI PUSH1 0x40 MLOAD PUSH32 0x8C379A000000000000000000000000000000000000000000000000000000000 DUP2 MSTORE PUSH1 0x4 ADD PUSH3 0xADE SWAP1 PUSH3 0x1572 JUMP JUMPDEST PUSH1 0x40 MLOAD DUP1 SWAP2 SUB SWAP1 REVERT JUMPDEST PUSH1 0x3 PUSH1 0x0 DUP4 PUSH20 0xFFFFFFFFFFFFFFFFFFFFFFFFFFFFFFFFFFFFFFFF AND PUSH20 0xFFFFFFFFFFFFFFFFFFFFFFFFFFFFFFFFFFFFFFFF AND DUP2 MSTORE PUSH1 0x20 ADD SWAP1 DUP2 MSTORE PUSH1 0x20 ADD PUSH1 0x0 KECCAK256 PUSH1 0x0 SWAP1 SLOAD SWAP1 PUSH2 0x100 EXP SWAP1 DIV PUSH1 0xFF AND PUSH3 0xCB2 JUMPI PUSH1 0x0 PUSH1 0x2 PUSH1 0x0 DUP5 PUSH20 0xFFFFFFFFFFFFFFFFFFFFFFFFFFFFFFFFFFFFFFFF AND PUSH20 0xFFFFFFFFFFFFFFFFFFFFFFFFFFFFFFFFFFFFFFFF AND DUP2 MSTORE PUSH1 0x20 ADD SWAP1 DUP2 MSTORE PUSH1 0x20 ADD PUSH1 0x0 KECCAK256 SWAP1 POP PUSH1 0x1 DUP2 PUSH1 0x4 ADD PUSH1 0x0 PUSH2 0x100 EXP DUP2 SLOAD DUP2 PUSH1 0xFF MUL NOT AND SWAP1 DUP4 ISZERO ISZERO MUL OR SWAP1 SSTORE POP PUSH1 0x0 DUP2 PUSH1 0x5 ADD PUSH1 0x40 MLOAD DUP1 PUSH1 0x80 ADD PUSH1 0x40 MSTORE SWAP1 DUP2 PUSH1 0x0 DUP3 ADD PUSH1 0x0 SWAP1 SLOAD SWAP1 PUSH2 0x100 EXP SWAP1 DIV PUSH1 0xFF AND ISZERO ISZERO ISZERO ISZERO DUP2 MSTORE PUSH1 0x20 ADD PUSH1 0x0 DUP3 ADD PUSH1 0x1 SWAP1 SLOAD SWAP1 PUSH2 0x100 EXP SWAP1 DIV PUSH1 0xFF AND ISZERO ISZERO ISZERO ISZERO DUP2 MSTORE PUSH1 0x20 ADD PUSH1 0x0 DUP3 ADD PUSH1 0x2 SWAP1 SLOAD SWAP1 PUSH2 0x100 EXP SWAP1 DIV PUSH1 0xFF AND ISZERO ISZERO ISZERO ISZERO DUP2 MSTORE PUSH1 0x20 ADD PUSH1 0x0 DUP3 ADD PUSH1 0x3 SWAP1 SLOAD SWAP1 PUSH2 0x100 EXP SWAP1 DIV PUSH1 0xFF AND ISZERO ISZERO ISZERO ISZERO DUP2 MSTORE POP POP SWAP1 POP DUP1 PUSH1 0x0 ADD MLOAD DUP1 PUSH3 0xC2A JUMPI POP DUP1 PUSH1 0x20 ADD MLOAD JUMPDEST DUP1 PUSH3 0xC37 JUMPI POP DUP1 PUSH1 0x40 ADD MLOAD JUMPDEST ISZERO PUSH3 0xCAF JUMPI PUSH1 0x1 PUSH1 0x3 PUSH1 0x0 DUP7 PUSH20 0xFFFFFFFFFFFFFFFFFFFFFFFFFFFFFFFFFFFFFFFF AND PUSH20 0xFFFFFFFFFFFFFFFFFFFFFFFFFFFFFFFFFFFFFFFF AND DUP2 MSTORE PUSH1 0x20 ADD SWAP1 DUP2 MSTORE PUSH1 0x20 ADD PUSH1 0x0 KECCAK256 PUSH1 0x0 PUSH2 0x100 EXP DUP2 SLOAD DUP2 PUSH1 0xFF MUL NOT AND SWAP1 DUP4 ISZERO ISZERO MUL OR SWAP1 SSTORE POP PUSH1 0x0 DUP1 DUP2 SLOAD DUP1 SWAP3 SWAP2 SWAP1 PUSH3 0xCA9 SWAP1 PUSH3 0x15FC JUMP JUMPDEST SWAP2 SWAP1 POP SSTORE POP JUMPDEST POP POP JUMPDEST POP POP JUMP JUMPDEST PUSH1 0x0 PUSH3 0xCCB DUP3 PUSH1 0x0 PUSH3 0xCD2 PUSH1 0x20 SHL PUSH1 0x20 SHR JUMP JUMPDEST SWAP1 POP SWAP2 SWAP1 POP JUMP JUMPDEST PUSH1 0x0 DUP1 PUSH1 0x2 PUSH1 0x0 DUP6 PUSH20 0xFFFFFFFFFFFFFFFFFFFFFFFFFFFFFFFFFFFFFFFF AND PUSH20 0xFFFFFFFFFFFFFFFFFFFFFFFFFFFFFFFFFFFFFFFF AND DUP2 MSTORE PUSH1 0x20 ADD SWAP1 DUP2 MSTORE PUSH1 0x20 ADD PUSH1 0x0 KECCAK256 PUSH1 0x40 MLOAD DUP1 PUSH1 0xC0 ADD PUSH1 0x40 MSTORE SWAP1 DUP2 PUSH1 0x0 DUP3 ADD PUSH1 0x0 SWAP1 SLOAD SWAP1 PUSH2 0x100 EXP SWAP1 DIV PUSH20 0xFFFFFFFFFFFFFFFFFFFFFFFFFFFFFFFFFFFFFFFF AND PUSH20 0xFFFFFFFFFFFFFFFFFFFFFFFFFFFFFFFFFFFFFFFF AND PUSH20 0xFFFFFFFFFFFFFFFFFFFFFFFFFFFFFFFFFFFFFFFF AND DUP2 MSTORE PUSH1 0x20 ADD PUSH1 0x1 DUP3 ADD DUP1 SLOAD PUSH3 0xD87 SWAP1 PUSH3 0x1679 JUMP JUMPDEST DUP1 PUSH1 0x1F ADD PUSH1 0x20 DUP1 SWAP2 DIV MUL PUSH1 0x20 ADD PUSH1 0x40 MLOAD SWAP1 DUP2 ADD PUSH1 0x40 MSTORE DUP1 SWAP3 SWAP2 SWAP1 DUP2 DUP2 MSTORE PUSH1 0x20 ADD DUP3 DUP1 SLOAD PUSH3 0xDB5 SWAP1 PUSH3 0x1679 JUMP JUMPDEST DUP1 ISZERO PUSH3 0xE06 JUMPI DUP1 PUSH1 0x1F LT PUSH3 0xDDA JUMPI PUSH2 0x100 DUP1 DUP4 SLOAD DIV MUL DUP4 MSTORE SWAP2 PUSH1 0x20 ADD SWAP2 PUSH3 0xE06 JUMP JUMPDEST DUP3 ADD SWAP2 SWAP1 PUSH1 0x0 MSTORE PUSH1 0x20 PUSH1 0x0 KECCAK256 SWAP1 JUMPDEST DUP2 SLOAD DUP2 MSTORE SWAP1 PUSH1 0x1 ADD SWAP1 PUSH1 0x20 ADD DUP1 DUP4 GT PUSH3 0xDE8 JUMPI DUP3 SWAP1 SUB PUSH1 0x1F AND DUP3 ADD SWAP2 JUMPDEST POP POP POP POP POP DUP2 MSTORE PUSH1 0x20 ADD PUSH1 0x2 DUP3 ADD DUP1 SLOAD PUSH3 0xE21 SWAP1 PUSH3 0x1679 JUMP JUMPDEST DUP1 PUSH1 0x1F ADD PUSH1 0x20 DUP1 SWAP2 DIV MUL PUSH1 0x20 ADD PUSH1 0x40 MLOAD SWAP1 DUP2 ADD PUSH1 0x40 MSTORE DUP1 SWAP3 SWAP2 SWAP1 DUP2 DUP2 MSTORE PUSH1 0x20 ADD DUP3 DUP1 SLOAD PUSH3 0xE4F SWAP1 PUSH3 0x1679 JUMP JUMPDEST DUP1 ISZERO PUSH3 0xEA0 JUMPI DUP1 PUSH1 0x1F LT PUSH3 0xE74 JUMPI PUSH2 0x100 DUP1 DUP4 SLOAD DIV MUL DUP4 MSTORE SWAP2 PUSH1 0x20 ADD SWAP2 PUSH3 0xEA0 JUMP JUMPDEST DUP3 ADD SWAP2 SWAP1 PUSH1 0x0 MSTORE PUSH1 0x20 PUSH1 0x0 KECCAK256 SWAP1 JUMPDEST DUP2 SLOAD DUP2 MSTORE SWAP1 PUSH1 0x1 ADD SWAP1 PUSH1 0x20 ADD DUP1 DUP4 GT PUSH3 0xE82 JUMPI DUP3 SWAP1 SUB PUSH1 0x1F AND DUP3 ADD SWAP2 JUMPDEST POP POP POP POP POP DUP2 MSTORE PUSH1 0x20 ADD PUSH1 0x3 DUP3 ADD DUP1 SLOAD PUSH3 0xEBB SWAP1 PUSH3 0x1679 JUMP JUMPDEST DUP1 PUSH1 0x1F ADD PUSH1 0x20 DUP1 SWAP2 DIV MUL PUSH1 0x20 ADD PUSH1 0x40 MLOAD SWAP1 DUP2 ADD PUSH1 0x40 MSTORE DUP1 SWAP3 SWAP2 SWAP1 DUP2 DUP2 MSTORE PUSH1 0x20 ADD DUP3 DUP1 SLOAD PUSH3 0xEE9 SWAP1 PUSH3 0x1679 JUMP JUMPDEST DUP1 ISZERO PUSH3 0xF3A JUMPI DUP1 PUSH1 0x1F LT PUSH3 0xF0E JUMPI PUSH2 0x100 DUP1 DUP4 SLOAD DIV MUL DUP4 MSTORE SWAP2 PUSH1 0x20 ADD SWAP2 PUSH3 0xF3A JUMP JUMPDEST DUP3 ADD SWAP2 SWAP1 PUSH1 0x0 MSTORE PUSH1 0x20 PUSH1 0x0 KECCAK256 SWAP1 JUMPDEST DUP2 SLOAD DUP2 MSTORE SWAP1 PUSH1 0x1 ADD SWAP1 PUSH1 0x20 ADD DUP1 DUP4 GT PUSH3 0xF1C JUMPI DUP3 SWAP1 SUB PUSH1 0x1F AND DUP3 ADD SWAP2 JUMPDEST POP POP POP POP POP DUP2 MSTORE PUSH1 0x20 ADD PUSH1 0x4 DUP3 ADD PUSH1 0x0 SWAP1 SLOAD SWAP1 PUSH2 0x100 EXP SWAP1 DIV PUSH1 0xFF AND ISZERO ISZERO ISZERO ISZERO DUP2 MSTORE PUSH1 0x20 ADD PUSH1 0x5 DUP3 ADD PUSH1 0x40 MLOAD DUP1 PUSH1 0x80 ADD PUSH1 0x40 MSTORE SWAP1 DUP2 PUSH1 0x0 DUP3 ADD PUSH1 0x0 SWAP1 SLOAD SWAP1 PUSH2 0x100 EXP SWAP1 DIV PUSH1 0xFF AND ISZERO ISZERO ISZERO ISZERO DUP2 MSTORE PUSH1 0x20 ADD PUSH1 0x0 DUP3 ADD PUSH1 0x1 SWAP1 SLOAD SWAP1 PUSH2 0x100 EXP SWAP1 DIV PUSH1 0xFF AND ISZERO ISZERO ISZERO ISZERO DUP2 MSTORE PUSH1 0x20 ADD PUSH1 0x0 DUP3 ADD PUSH1 0x2 SWAP1 SLOAD SWAP1 PUSH2 0x100 EXP SWAP1 DIV PUSH1 0xFF AND ISZERO ISZERO ISZERO ISZERO DUP2 MSTORE PUSH1 0x20 ADD PUSH1 0x0 DUP3 ADD PUSH1 0x3 SWAP1 SLOAD SWAP1 PUSH2 0x100 EXP SWAP1 DIV PUSH1 0xFF AND ISZERO ISZERO ISZERO ISZERO DUP2 MSTORE POP POP DUP2 MSTORE POP POP SWAP1 POP PUSH1 0x0 DUP2 PUSH1 0xA0 ADD MLOAD SWAP1 POP PUSH1 0x0 PUSH1 0x3 DUP2 GT ISZERO PUSH3 0x1000 JUMPI PUSH3 0xFFF PUSH3 0x1594 JUMP JUMPDEST JUMPDEST DUP5 PUSH1 0x3 DUP2 GT ISZERO PUSH3 0x1016 JUMPI PUSH3 0x1015 PUSH3 0x1594 JUMP JUMPDEST JUMPDEST EQ ISZERO PUSH3 0x102C JUMPI DUP1 PUSH1 0x0 ADD MLOAD SWAP3 POP POP POP PUSH3 0x10FB JUMP JUMPDEST PUSH1 0x1 PUSH1 0x3 DUP2 GT ISZERO PUSH3 0x1043 JUMPI PUSH3 0x1042 PUSH3 0x1594 JUMP JUMPDEST JUMPDEST DUP5 PUSH1 0x3 DUP2 GT ISZERO PUSH3 0x1059 JUMPI PUSH3 0x1058 PUSH3 0x1594 JUMP JUMPDEST JUMPDEST EQ ISZERO PUSH3 0x106F JUMPI DUP1 PUSH1 0x20 ADD MLOAD SWAP3 POP POP POP PUSH3 0x10FB JUMP JUMPDEST PUSH1 0x2 PUSH1 0x3 DUP2 GT ISZERO PUSH3 0x1086 JUMPI PUSH3 0x1085 PUSH3 0x1594 JUMP JUMPDEST JUMPDEST DUP5 PUSH1 0x3 DUP2 GT ISZERO PUSH3 0x109C JUMPI PUSH3 0x109B PUSH3 0x1594 JUMP JUMPDEST JUMPDEST EQ ISZERO PUSH3 0x10B2 JUMPI DUP1 PUSH1 0x40 ADD MLOAD SWAP3 POP POP POP PUSH3 0x10FB JUMP JUMPDEST PUSH1 0x3 DUP1 DUP2 GT ISZERO PUSH3 0x10C8 JUMPI PUSH3 0x10C7 PUSH3 0x1594 JUMP JUMPDEST JUMPDEST DUP5 PUSH1 0x3 DUP2 GT ISZERO PUSH3 0x10DE JUMPI PUSH3 0x10DD PUSH3 0x1594 JUMP JUMPDEST JUMPDEST EQ ISZERO PUSH3 0x10F4 JUMPI DUP1 PUSH1 0x60 ADD MLOAD SWAP3 POP POP POP PUSH3 0x10FB JUMP JUMPDEST PUSH1 0x0 SWAP3 POP POP POP JUMPDEST SWAP3 SWAP2 POP POP JUMP JUMPDEST DUP3 DUP1 SLOAD PUSH3 0x110F SWAP1 PUSH3 0x1679 JUMP JUMPDEST SWAP1 PUSH1 0x0 MSTORE PUSH1 0x20 PUSH1 0x0 KECCAK256 SWAP1 PUSH1 0x1F ADD PUSH1 0x20 SWAP1 DIV DUP2 ADD SWAP3 DUP3 PUSH3 0x1133 JUMPI PUSH1 0x0 DUP6 SSTORE PUSH3 0x117F JUMP JUMPDEST DUP3 PUSH1 0x1F LT PUSH3 0x114E JUMPI DUP1 MLOAD PUSH1 0xFF NOT AND DUP4 DUP1 ADD OR DUP6 SSTORE PUSH3 0x117F JUMP JUMPDEST DUP3 DUP1 ADD PUSH1 0x1 ADD DUP6 SSTORE DUP3 ISZERO PUSH3 0x117F JUMPI SWAP2 DUP3 ADD JUMPDEST DUP3 DUP2 GT ISZERO PUSH3 0x117E JUMPI DUP3 MLOAD DUP3 SSTORE SWAP2 PUSH1 0x20 ADD SWAP2 SWAP1 PUSH1 0x1 ADD SWAP1 PUSH3 0x1161 JUMP JUMPDEST JUMPDEST POP SWAP1 POP PUSH3 0x118E SWAP2 SWAP1 PUSH3 0x1192 JUMP JUMPDEST POP SWAP1 JUMP JUMPDEST JUMPDEST DUP1 DUP3 GT ISZERO PUSH3 0x11AD JUMPI PUSH1 0x0 DUP2 PUSH1 0x0 SWAP1 SSTORE POP PUSH1 0x1 ADD PUSH3 0x1193 JUMP JUMPDEST POP SWAP1 JUMP JUMPDEST PUSH1 0x0 PUSH1 0x40 MLOAD SWAP1 POP SWAP1 JUMP JUMPDEST PUSH1 0x0 DUP1 REVERT JUMPDEST PUSH1 0x0 DUP1 REVERT JUMPDEST PUSH1 0x0 DUP1 REVERT JUMPDEST PUSH1 0x0 DUP1 REVERT JUMPDEST PUSH1 0x0 PUSH1 0x1F NOT PUSH1 0x1F DUP4 ADD AND SWAP1 POP SWAP2 SWAP1 POP JUMP JUMPDEST PUSH32 0x4E487B7100000000000000000000000000000000000000000000000000000000 PUSH1 0x0 MSTORE PUSH1 0x41 PUSH1 0x4 MSTORE PUSH1 0x24 PUSH1 0x0 REVERT JUMPDEST PUSH3 0x121A DUP3 PUSH3 0x11CF JUMP JUMPDEST DUP2 ADD DUP2 DUP2 LT PUSH8 0xFFFFFFFFFFFFFFFF DUP3 GT OR ISZERO PUSH3 0x123C JUMPI PUSH3 0x123B PUSH3 0x11E0 JUMP JUMPDEST JUMPDEST DUP1 PUSH1 0x40 MSTORE POP POP POP JUMP JUMPDEST PUSH1 0x0 PUSH3 0x1251 PUSH3 0x11B1 JUMP JUMPDEST SWAP1 POP PUSH3 0x125F DUP3 DUP3 PUSH3 0x120F JUMP JUMPDEST SWAP2 SWAP1 POP JUMP JUMPDEST PUSH1 0x0 PUSH8 0xFFFFFFFFFFFFFFFF DUP3 GT ISZERO PUSH3 0x1282 JUMPI PUSH3 0x1281 PUSH3 0x11E0 JUMP JUMPDEST JUMPDEST PUSH3 0x128D DUP3 PUSH3 0x11CF JUMP JUMPDEST SWAP1 POP PUSH1 0x20 DUP2 ADD SWAP1 POP SWAP2 SWAP1 POP JUMP JUMPDEST PUSH1 0x0 JUMPDEST DUP4 DUP2 LT ISZERO PUSH3 0x12BA JUMPI DUP1 DUP3 ADD MLOAD DUP2 DUP5 ADD MSTORE PUSH1 0x20 DUP2 ADD SWAP1 POP PUSH3 0x129D JUMP JUMPDEST DUP4 DUP2 GT ISZERO PUSH3 0x12CA JUMPI PUSH1 0x0 DUP5 DUP5 ADD MSTORE JUMPDEST POP POP POP POP JUMP JUMPDEST PUSH1 0x0 PUSH3 0x12E7 PUSH3 0x12E1 DUP5 PUSH3 0x1264 JUMP JUMPDEST PUSH3 0x1245 JUMP JUMPDEST SWAP1 POP DUP3 DUP2 MSTORE PUSH1 0x20 DUP2 ADD DUP5 DUP5 DUP5 ADD GT ISZERO PUSH3 0x1306 JUMPI PUSH3 0x1305 PUSH3 0x11CA JUMP JUMPDEST JUMPDEST PUSH3 0x1313 DUP5 DUP3 DUP6 PUSH3 0x129A JUMP JUMPDEST POP SWAP4 SWAP3 POP POP POP JUMP JUMPDEST PUSH1 0x0 DUP3 PUSH1 0x1F DUP4 ADD SLT PUSH3 0x1333 JUMPI PUSH3 0x1332 PUSH3 0x11C5 JUMP JUMPDEST JUMPDEST DUP2 MLOAD PUSH3 0x1345 DUP5 DUP3 PUSH1 0x20 DUP7 ADD PUSH3 0x12D0 JUMP JUMPDEST SWAP2 POP POP SWAP3 SWAP2 POP POP JUMP JUMPDEST PUSH1 0x0 DUP1 PUSH1 0x0 PUSH1 0x60 DUP5 DUP7 SUB SLT ISZERO PUSH3 0x136A JUMPI PUSH3 0x1369 PUSH3 0x11BB JUMP JUMPDEST JUMPDEST PUSH1 0x0 DUP5 ADD MLOAD PUSH8 0xFFFFFFFFFFFFFFFF DUP2 GT ISZERO PUSH3 0x138B JUMPI PUSH3 0x138A PUSH3 0x11C0 JUMP JUMPDEST JUMPDEST PUSH3 0x1399 DUP7 DUP3 DUP8 ADD PUSH3 0x131B JUMP JUMPDEST SWAP4 POP POP PUSH1 0x20 DUP5 ADD MLOAD PUSH8 0xFFFFFFFFFFFFFFFF DUP2 GT ISZERO PUSH3 0x13BD JUMPI PUSH3 0x13BC PUSH3 0x11C0 JUMP JUMPDEST JUMPDEST PUSH3 0x13CB DUP7 DUP3 DUP8 ADD PUSH3 0x131B JUMP JUMPDEST SWAP3 POP POP PUSH1 0x40 DUP5 ADD MLOAD PUSH8 0xFFFFFFFFFFFFFFFF DUP2 GT ISZERO PUSH3 0x13EF JUMPI PUSH3 0x13EE PUSH3 0x11C0 JUMP JUMPDEST JUMPDEST PUSH3 0x13FD DUP7 DUP3 DUP8 ADD PUSH3 0x131B JUMP JUMPDEST SWAP2 POP POP SWAP3 POP SWAP3 POP SWAP3 JUMP JUMPDEST PUSH1 0x0 DUP3 DUP3 MSTORE PUSH1 0x20 DUP3 ADD SWAP1 POP SWAP3 SWAP2 POP POP JUMP JUMPDEST PUSH32 0x4163636F756E7420616C72656164792065786973747300000000000000000000 PUSH1 0x0 DUP3 ADD MSTORE POP JUMP JUMPDEST PUSH1 0x0 PUSH3 0x1450 PUSH1 0x16 DUP4 PUSH3 0x1407 JUMP JUMPDEST SWAP2 POP PUSH3 0x145D DUP3 PUSH3 0x1418 JUMP JUMPDEST PUSH1 0x20 DUP3 ADD SWAP1 POP SWAP2 SWAP1 POP JUMP JUMPDEST PUSH1 0x0 PUSH1 0x20 DUP3 ADD SWAP1 POP DUP2 DUP2 SUB PUSH1 0x0 DUP4 ADD MSTORE PUSH3 0x1483 DUP2 PUSH3 0x1441 JUMP JUMPDEST SWAP1 POP SWAP2 SWAP1 POP JUMP JUMPDEST PUSH32 0x4F6E6C79206F776E65722063616E2063616C6C20746869732066756E6374696F PUSH1 0x0 DUP3 ADD MSTORE PUSH32 0x6E2E000000000000000000000000000000000000000000000000000000000000 PUSH1 0x20 DUP3 ADD MSTORE POP JUMP JUMPDEST PUSH1 0x0 PUSH3 0x14E8 PUSH1 0x22 DUP4 PUSH3 0x1407 JUMP JUMPDEST SWAP2 POP PUSH3 0x14F5 DUP3 PUSH3 0x148A JUMP JUMPDEST PUSH1 0x40 DUP3 ADD SWAP1 POP SWAP2 SWAP1 POP JUMP JUMPDEST PUSH1 0x0 PUSH1 0x20 DUP3 ADD SWAP1 POP DUP2 DUP2 SUB PUSH1 0x0 DUP4 ADD MSTORE PUSH3 0x151B DUP2 PUSH3 0x14D9 JUMP JUMPDEST SWAP1 POP SWAP2 SWAP1 POP JUMP JUMPDEST PUSH32 0x4163636F756E7420646F65736E27742065786973740000000000000000000000 PUSH1 0x0 DUP3 ADD MSTORE POP JUMP JUMPDEST PUSH1 0x0 PUSH3 0x155A PUSH1 0x15 DUP4 PUSH3 0x1407 JUMP JUMPDEST SWAP2 POP PUSH3 0x1567 DUP3 PUSH3 0x1522 JUMP JUMPDEST PUSH1 0x20 DUP3 ADD SWAP1 POP SWAP2 SWAP1 POP JUMP JUMPDEST PUSH1 0x0 PUSH1 0x20 DUP3 ADD SWAP1 POP DUP2 DUP2 SUB PUSH1 0x0 DUP4 ADD MSTORE PUSH3 0x158D DUP2 PUSH3 0x154B JUMP JUMPDEST SWAP1 POP SWAP2 SWAP1 POP JUMP JUMPDEST PUSH32 0x4E487B7100000000000000000000000000000000000000000000000000000000 PUSH1 0x0 MSTORE PUSH1 0x21 PUSH1 0x4 MSTORE PUSH1 0x24 PUSH1 0x0 REVERT JUMPDEST PUSH32 0x4E487B7100000000000000000000000000000000000000000000000000000000 PUSH1 0x0 MSTORE PUSH1 0x11 PUSH1 0x4 MSTORE PUSH1 0x24 PUSH1 0x0 REVERT JUMPDEST PUSH1 0x0 DUP2 SWAP1 POP SWAP2 SWAP1 POP JUMP JUMPDEST PUSH1 0x0 PUSH3 0x1609 DUP3 PUSH3 0x15F2 JUMP JUMPDEST SWAP2 POP PUSH32 0xFFFFFFFFFFFFFFFFFFFFFFFFFFFFFFFFFFFFFFFFFFFFFFFFFFFFFFFFFFFFFFFF DUP3 EQ ISZERO PUSH3 0x163F JUMPI PUSH3 0x163E PUSH3 0x15C3 JUMP JUMPDEST JUMPDEST PUSH1 0x1 DUP3 ADD SWAP1 POP SWAP2 SWAP1 POP JUMP JUMPDEST PUSH32 0x4E487B7100000000000000000000000000000000000000000000000000000000 PUSH1 0x0 MSTORE PUSH1 0x22 PUSH1 0x4 MSTORE PUSH1 0x24 PUSH1 0x0 REVERT JUMPDEST PUSH1 0x0 PUSH1 0x2 DUP3 DIV SWAP1 POP PUSH1 0x1 DUP3 AND DUP1 PUSH3 0x1692 JUMPI PUSH1 0x7F DUP3 AND SWAP2 POP JUMPDEST PUSH1 0x20 DUP3 LT DUP2 EQ ISZERO PUSH3 0x16A9 JUMPI PUSH3 0x16A8 PUSH3 0x164A JUMP JUMPDEST JUMPDEST POP SWAP2 SWAP1 POP JUMP JUMPDEST PUSH2 0x33DE DUP1 PUSH3 0x16BF PUSH1 0x0 CODECOPY PUSH1 0x0 RETURN INVALID PUSH1 0x80 PUSH1 0x40 MSTORE CALLVALUE DUP1 ISZERO PUSH2 0x10 JUMPI PUSH1 0x0 DUP1 REVERT JUMPDEST POP PUSH1 0x4 CALLDATASIZE LT PUSH2 0x10B JUMPI PUSH1 0x0 CALLDATALOAD PUSH1 0xE0 SHR DUP1 PUSH4 0x65C93769 GT PUSH2 0xA2 JUMPI DUP1 PUSH4 0xC2B7D948 GT PUSH2 0x71 JUMPI DUP1 PUSH4 0xC2B7D948 EQ PUSH2 0x2A4 JUMPI DUP1 PUSH4 0xD3A5059A EQ PUSH2 0x2D4 JUMPI DUP1 PUSH4 0xDEE94B4A EQ PUSH2 0x2F0 JUMPI DUP1 PUSH4 0xE8621E59 EQ PUSH2 0x30C JUMPI DUP1 PUSH4 0xFA4D7AAE EQ PUSH2 0x33C JUMPI PUSH2 0x10B JUMP JUMPDEST DUP1 PUSH4 0x65C93769 EQ PUSH2 0x21E JUMPI DUP1 PUSH4 0x8DA5CB5B EQ PUSH2 0x24E JUMPI DUP1 PUSH4 0xA1AEA04A EQ PUSH2 0x26C JUMPI DUP1 PUSH4 0xB74866FB EQ PUSH2 0x288 JUMPI PUSH2 0x10B JUMP JUMPDEST DUP1 PUSH4 0x297027D5 GT PUSH2 0xDE JUMPI DUP1 PUSH4 0x297027D5 EQ PUSH2 0x198 JUMPI DUP1 PUSH4 0x49587281 EQ PUSH2 0x1C8 JUMPI DUP1 PUSH4 0x5FB6C6ED EQ PUSH2 0x1E4 JUMPI DUP1 PUSH4 0x630A195B EQ PUSH2 0x202 JUMPI PUSH2 0x10B JUMP JUMPDEST DUP1 PUSH4 0x1EB0857 EQ PUSH2 0x110 JUMPI DUP1 PUSH4 0x56909B7 EQ PUSH2 0x140 JUMPI DUP1 PUSH4 0x22FAA41F EQ PUSH2 0x170 JUMPI DUP1 PUSH4 0x247AE7A3 EQ PUSH2 0x18E JUMPI JUMPDEST PUSH1 0x0 DUP1 REVERT JUMPDEST PUSH2 0x12A PUSH1 0x4 DUP1 CALLDATASIZE SUB DUP2 ADD SWAP1 PUSH2 0x125 SWAP2 SWAP1 PUSH2 0x2DA5 JUMP JUMPDEST PUSH2 0x36C JUMP JUMPDEST PUSH1 0x40 MLOAD PUSH2 0x137 SWAP2 SWAP1 PUSH2 0x2DED JUMP JUMPDEST PUSH1 0x40 MLOAD DUP1 SWAP2 SUB SWAP1 RETURN JUMPDEST PUSH2 0x15A PUSH1 0x4 DUP1 CALLDATASIZE SUB DUP2 ADD SWAP1 PUSH2 0x155 SWAP2 SWAP1 PUSH2 0x2DA5 JUMP JUMPDEST PUSH2 0x6EB JUMP JUMPDEST PUSH1 0x40 MLOAD PUSH2 0x167 SWAP2 SWAP1 PUSH2 0x2DED JUMP JUMPDEST PUSH1 0x40 MLOAD DUP1 SWAP2 SUB SWAP1 RETURN JUMPDEST PUSH2 0x178 PUSH2 0x6FF JUMP JUMPDEST PUSH1 0x40 MLOAD PUSH2 0x185 SWAP2 SWAP1 PUSH2 0x2E21 JUMP JUMPDEST PUSH1 0x40 MLOAD DUP1 SWAP2 SUB SWAP1 RETURN JUMPDEST PUSH2 0x196 PUSH2 0x708 JUMP JUMPDEST STOP JUMPDEST PUSH2 0x1B2 PUSH1 0x4 DUP1 CALLDATASIZE SUB DUP2 ADD SWAP1 PUSH2 0x1AD SWAP2 SWAP1 PUSH2 0x2DA5 JUMP JUMPDEST PUSH2 0x1199 JUMP JUMPDEST PUSH1 0x40 MLOAD PUSH2 0x1BF SWAP2 SWAP1 PUSH2 0x2DED JUMP JUMPDEST PUSH1 0x40 MLOAD DUP1 SWAP2 SUB SWAP1 RETURN JUMPDEST PUSH2 0x1E2 PUSH1 0x4 DUP1 CALLDATASIZE SUB DUP2 ADD SWAP1 PUSH2 0x1DD SWAP2 SWAP1 PUSH2 0x2DA5 JUMP JUMPDEST PUSH2 0x11AD JUMP JUMPDEST STOP JUMPDEST PUSH2 0x1EC PUSH2 0x13A7 JUMP JUMPDEST PUSH1 0x40 MLOAD PUSH2 0x1F9 SWAP2 SWAP1 PUSH2 0x2E21 JUMP JUMPDEST PUSH1 0x40 MLOAD DUP1 SWAP2 SUB SWAP1 RETURN JUMPDEST PUSH2 0x21C PUSH1 0x4 DUP1 CALLDATASIZE SUB DUP2 ADD SWAP1 PUSH2 0x217 SWAP2 SWAP1 PUSH2 0x2E61 JUMP JUMPDEST PUSH2 0x13AD JUMP JUMPDEST STOP JUMPDEST PUSH2 0x238 PUSH1 0x4 DUP1 CALLDATASIZE SUB DUP2 ADD SWAP1 PUSH2 0x233 SWAP2 SWAP1 PUSH2 0x2DA5 JUMP JUMPDEST PUSH2 0x16AC JUMP JUMPDEST PUSH1 0x40 MLOAD PUSH2 0x245 SWAP2 SWAP1 PUSH2 0x2DED JUMP JUMPDEST PUSH1 0x40 MLOAD DUP1 SWAP2 SUB SWAP1 RETURN JUMPDEST PUSH2 0x256 PUSH2 0x1A2B JUMP JUMPDEST PUSH1 0x40 MLOAD PUSH2 0x263 SWAP2 SWAP1 PUSH2 0x2EB0 JUMP JUMPDEST PUSH1 0x40 MLOAD DUP1 SWAP2 SUB SWAP1 RETURN JUMPDEST PUSH2 0x286 PUSH1 0x4 DUP1 CALLDATASIZE SUB DUP2 ADD SWAP1 PUSH2 0x281 SWAP2 SWAP1 PUSH2 0x2DA5 JUMP JUMPDEST PUSH2 0x1A51 JUMP JUMPDEST STOP JUMPDEST PUSH2 0x2A2 PUSH1 0x4 DUP1 CALLDATASIZE SUB DUP2 ADD SWAP1 PUSH2 0x29D SWAP2 SWAP1 PUSH2 0x2E61 JUMP JUMPDEST PUSH2 0x1CED JUMP JUMPDEST STOP JUMPDEST PUSH2 0x2BE PUSH1 0x4 DUP1 CALLDATASIZE SUB DUP2 ADD SWAP1 PUSH2 0x2B9 SWAP2 SWAP1 PUSH2 0x2DA5 JUMP JUMPDEST PUSH2 0x1FEC JUMP JUMPDEST PUSH1 0x40 MLOAD PUSH2 0x2CB SWAP2 SWAP1 PUSH2 0x2DED JUMP JUMPDEST PUSH1 0x40 MLOAD DUP1 SWAP2 SUB SWAP1 RETURN JUMPDEST PUSH2 0x2EE PUSH1 0x4 DUP1 CALLDATASIZE SUB DUP2 ADD SWAP1 PUSH2 0x2E9 SWAP2 SWAP1 PUSH2 0x2DA5 JUMP JUMPDEST PUSH2 0x236B JUMP JUMPDEST STOP JUMPDEST PUSH2 0x30A PUSH1 0x4 DUP1 CALLDATASIZE SUB DUP2 ADD SWAP1 PUSH2 0x305 SWAP2 SWAP1 PUSH2 0x3011 JUMP JUMPDEST PUSH2 0x254F JUMP JUMPDEST STOP JUMPDEST PUSH2 0x326 PUSH1 0x4 DUP1 CALLDATASIZE SUB DUP2 ADD SWAP1 PUSH2 0x321 SWAP2 SWAP1 PUSH2 0x2DA5 JUMP JUMPDEST PUSH2 0x2831 JUMP JUMPDEST PUSH1 0x40 MLOAD PUSH2 0x333 SWAP2 SWAP1 PUSH2 0x2DED JUMP JUMPDEST PUSH1 0x40 MLOAD DUP1 SWAP2 SUB SWAP1 RETURN JUMPDEST PUSH2 0x356 PUSH1 0x4 DUP1 CALLDATASIZE SUB DUP2 ADD SWAP1 PUSH2 0x351 SWAP2 SWAP1 PUSH2 0x2DA5 JUMP JUMPDEST PUSH2 0x2845 JUMP JUMPDEST PUSH1 0x40 MLOAD PUSH2 0x363 SWAP2 SWAP1 PUSH2 0x2DED JUMP JUMPDEST PUSH1 0x40 MLOAD DUP1 SWAP2 SUB SWAP1 RETURN JUMPDEST PUSH1 0x0 DUP1 PUSH1 0x2 PUSH1 0x0 DUP5 PUSH20 0xFFFFFFFFFFFFFFFFFFFFFFFFFFFFFFFFFFFFFFFF AND PUSH20 0xFFFFFFFFFFFFFFFFFFFFFFFFFFFFFFFFFFFFFFFF AND DUP2 MSTORE PUSH1 0x20 ADD SWAP1 DUP2 MSTORE PUSH1 0x20 ADD PUSH1 0x0 KECCAK256 PUSH1 0x40 MLOAD DUP1 PUSH1 0xC0 ADD PUSH1 0x40 MSTORE SWAP1 DUP2 PUSH1 0x0 DUP3 ADD PUSH1 0x0 SWAP1 SLOAD SWAP1 PUSH2 0x100 EXP SWAP1 DIV PUSH20 0xFFFFFFFFFFFFFFFFFFFFFFFFFFFFFFFFFFFFFFFF AND PUSH20 0xFFFFFFFFFFFFFFFFFFFFFFFFFFFFFFFFFFFFFFFF AND PUSH20 0xFFFFFFFFFFFFFFFFFFFFFFFFFFFFFFFFFFFFFFFF AND DUP2 MSTORE PUSH1 0x20 ADD PUSH1 0x1 DUP3 ADD DUP1 SLOAD PUSH2 0x41F SWAP1 PUSH2 0x30FB JUMP JUMPDEST DUP1 PUSH1 0x1F ADD PUSH1 0x20 DUP1 SWAP2 DIV MUL PUSH1 0x20 ADD PUSH1 0x40 MLOAD SWAP1 DUP2 ADD PUSH1 0x40 MSTORE DUP1 SWAP3 SWAP2 SWAP1 DUP2 DUP2 MSTORE PUSH1 0x20 ADD DUP3 DUP1 SLOAD PUSH2 0x44B SWAP1 PUSH2 0x30FB JUMP JUMPDEST DUP1 ISZERO PUSH2 0x498 JUMPI DUP1 PUSH1 0x1F LT PUSH2 0x46D JUMPI PUSH2 0x100 DUP1 DUP4 SLOAD DIV MUL DUP4 MSTORE SWAP2 PUSH1 0x20 ADD SWAP2 PUSH2 0x498 JUMP JUMPDEST DUP3 ADD SWAP2 SWAP1 PUSH1 0x0 MSTORE PUSH1 0x20 PUSH1 0x0 KECCAK256 SWAP1 JUMPDEST DUP2 SLOAD DUP2 MSTORE SWAP1 PUSH1 0x1 ADD SWAP1 PUSH1 0x20 ADD DUP1 DUP4 GT PUSH2 0x47B JUMPI DUP3 SWAP1 SUB PUSH1 0x1F AND DUP3 ADD SWAP2 JUMPDEST POP POP POP POP POP DUP2 MSTORE PUSH1 0x20 ADD PUSH1 0x2 DUP3 ADD DUP1 SLOAD PUSH2 0x4B1 SWAP1 PUSH2 0x30FB JUMP JUMPDEST DUP1 PUSH1 0x1F ADD PUSH1 0x20 DUP1 SWAP2 DIV MUL PUSH1 0x20 ADD PUSH1 0x40 MLOAD SWAP1 DUP2 ADD PUSH1 0x40 MSTORE DUP1 SWAP3 SWAP2 SWAP1 DUP2 DUP2 MSTORE PUSH1 0x20 ADD DUP3 DUP1 SLOAD PUSH2 0x4DD SWAP1 PUSH2 0x30FB JUMP JUMPDEST DUP1 ISZERO PUSH2 0x52A JUMPI DUP1 PUSH1 0x1F LT PUSH2 0x4FF JUMPI PUSH2 0x100 DUP1 DUP4 SLOAD DIV MUL DUP4 MSTORE SWAP2 PUSH1 0x20 ADD SWAP2 PUSH2 0x52A JUMP JUMPDEST DUP3 ADD SWAP2 SWAP1 PUSH1 0x0 MSTORE PUSH1 0x20 PUSH1 0x0 KECCAK256 SWAP1 JUMPDEST DUP2 SLOAD DUP2 MSTORE SWAP1 PUSH1 0x1 ADD SWAP1 PUSH1 0x20 ADD DUP1 DUP4 GT PUSH2 0x50D JUMPI DUP3 SWAP1 SUB PUSH1 0x1F AND DUP3 ADD SWAP2 JUMPDEST POP POP POP POP POP DUP2 MSTORE PUSH1 0x20 ADD PUSH1 0x3 DUP3 ADD DUP1 SLOAD PUSH2 0x543 SWAP1 PUSH2 0x30FB JUMP JUMPDEST DUP1 PUSH1 0x1F ADD PUSH1 0x20 DUP1 SWAP2 DIV MUL PUSH1 0x20 ADD PUSH1 0x40 MLOAD SWAP1 DUP2 ADD PUSH1 0x40 MSTORE DUP1 SWAP3 SWAP2 SWAP1 DUP2 DUP2 MSTORE PUSH1 0x20 ADD DUP3 DUP1 SLOAD PUSH2 0x56F SWAP1 PUSH2 0x30FB JUMP JUMPDEST DUP1 ISZERO PUSH2 0x5BC JUMPI DUP1 PUSH1 0x1F LT PUSH2 0x591 JUMPI PUSH2 0x100 DUP1 DUP4 SLOAD DIV MUL DUP4 MSTORE SWAP2 PUSH1 0x20 ADD SWAP2 PUSH2 0x5BC JUMP JUMPDEST DUP3 ADD SWAP2 SWAP1 PUSH1 0x0 MSTORE PUSH1 0x20 PUSH1 0x0 KECCAK256 SWAP1 JUMPDEST DUP2 SLOAD DUP2 MSTORE SWAP1 PUSH1 0x1 ADD SWAP1 PUSH1 0x20 ADD DUP1 DUP4 GT PUSH2 0x59F JUMPI DUP3 SWAP1 SUB PUSH1 0x1F AND DUP3 ADD SWAP2 JUMPDEST POP POP POP POP POP DUP2 MSTORE PUSH1 0x20 ADD PUSH1 0x4 DUP3 ADD PUSH1 0x0 SWAP1 SLOAD SWAP1 PUSH2 0x100 EXP SWAP1 DIV PUSH1 0xFF AND ISZERO ISZERO ISZERO ISZERO DUP2 MSTORE PUSH1 0x20 ADD PUSH1 0x5 DUP3 ADD PUSH1 0x40 MLOAD DUP1 PUSH1 0x80 ADD PUSH1 0x40 MSTORE SWAP1 DUP2 PUSH1 0x0 DUP3 ADD PUSH1 0x0 SWAP1 SLOAD SWAP1 PUSH2 0x100 EXP SWAP1 DIV PUSH1 0xFF AND ISZERO ISZERO ISZERO ISZERO DUP2 MSTORE PUSH1 0x20 ADD PUSH1 0x0 DUP3 ADD PUSH1 0x1 SWAP1 SLOAD SWAP1 PUSH2 0x100 EXP SWAP1 DIV PUSH1 0xFF AND ISZERO ISZERO ISZERO ISZERO DUP2 MSTORE PUSH1 0x20 ADD PUSH1 0x0 DUP3 ADD PUSH1 0x2 SWAP1 SLOAD SWAP1 PUSH2 0x100 EXP SWAP1 DIV PUSH1 0xFF AND ISZERO ISZERO ISZERO ISZERO DUP2 MSTORE PUSH1 0x20 ADD PUSH1 0x0 DUP3 ADD PUSH1 0x3 SWAP1 SLOAD SWAP1 PUSH2 0x100 EXP SWAP1 DIV PUSH1 0xFF AND ISZERO ISZERO ISZERO ISZERO DUP2 MSTORE POP POP DUP2 MSTORE POP POP SWAP1 POP PUSH1 0x0 PUSH20 0xFFFFFFFFFFFFFFFFFFFFFFFFFFFFFFFFFFFFFFFF AND DUP2 PUSH1 0x0 ADD MLOAD PUSH20 0xFFFFFFFFFFFFFFFFFFFFFFFFFFFFFFFFFFFFFFFF AND EQ PUSH2 0x6E0 JUMPI DUP1 PUSH1 0x80 ADD MLOAD DUP1 ISZERO PUSH2 0x6D0 JUMPI POP DUP1 PUSH1 0xA0 ADD MLOAD PUSH1 0x0 ADD MLOAD DUP1 PUSH2 0x6BF JUMPI POP DUP1 PUSH1 0xA0 ADD MLOAD PUSH1 0x20 ADD MLOAD JUMPDEST DUP1 PUSH2 0x6CF JUMPI POP DUP1 PUSH1 0xA0 ADD MLOAD PUSH1 0x40 ADD MLOAD JUMPDEST JUMPDEST ISZERO PUSH2 0x6DF JUMPI PUSH1 0x1 SWAP2 POP POP PUSH2 0x6E6 JUMP JUMPDEST JUMPDEST PUSH1 0x0 SWAP2 POP POP JUMPDEST SWAP2 SWAP1 POP JUMP JUMPDEST PUSH1 0x0 PUSH2 0x6F8 DUP3 PUSH1 0x2 PUSH2 0x2859 JUMP JUMPDEST SWAP1 POP SWAP2 SWAP1 POP JUMP JUMPDEST PUSH1 0x0 DUP1 SLOAD SWAP1 POP SWAP1 JUMP JUMPDEST PUSH1 0x0 PUSH1 0x40 MLOAD DUP1 PUSH2 0x140 ADD PUSH1 0x40 MSTORE DUP1 PUSH20 0xAB8483F64D9C6D1ECF9B849AE677DD3315835CB2 PUSH20 0xFFFFFFFFFFFFFFFFFFFFFFFFFFFFFFFFFFFFFFFF AND PUSH20 0xFFFFFFFFFFFFFFFFFFFFFFFFFFFFFFFFFFFFFFFF AND DUP2 MSTORE PUSH1 0x20 ADD PUSH20 0x4B20993BC481177EC7E8F571CECAE8A9E22C02DB PUSH20 0xFFFFFFFFFFFFFFFFFFFFFFFFFFFFFFFFFFFFFFFF AND PUSH20 0xFFFFFFFFFFFFFFFFFFFFFFFFFFFFFFFFFFFFFFFF AND DUP2 MSTORE PUSH1 0x20 ADD PUSH20 0x78731D3CA6B7E34AC0F824C42A7CC18A495CABAB PUSH20 0xFFFFFFFFFFFFFFFFFFFFFFFFFFFFFFFFFFFFFFFF AND PUSH20 0xFFFFFFFFFFFFFFFFFFFFFFFFFFFFFFFFFFFFFFFF AND DUP2 MSTORE PUSH1 0x20 ADD PUSH20 0x617F2E2FD72FD9D5503197092AC168C91465E7F2 PUSH20 0xFFFFFFFFFFFFFFFFFFFFFFFFFFFFFFFFFFFFFFFF AND PUSH20 0xFFFFFFFFFFFFFFFFFFFFFFFFFFFFFFFFFFFFFFFF AND DUP2 MSTORE PUSH1 0x20 ADD PUSH20 0x17F6AD8EF982297579C203069C1DBFFE4348C372 PUSH20 0xFFFFFFFFFFFFFFFFFFFFFFFFFFFFFFFFFFFFFFFF AND PUSH20 0xFFFFFFFFFFFFFFFFFFFFFFFFFFFFFFFFFFFFFFFF AND DUP2 MSTORE PUSH1 0x20 ADD PUSH20 0x5C6B0F7BF3E7CE046039BD8FABDFD3F9F5021678 PUSH20 0xFFFFFFFFFFFFFFFFFFFFFFFFFFFFFFFFFFFFFFFF AND PUSH20 0xFFFFFFFFFFFFFFFFFFFFFFFFFFFFFFFFFFFFFFFF AND DUP2 MSTORE PUSH1 0x20 ADD PUSH20 0x3C6FCED478CBBC9A4FAB34EF9F40767739D1FF7 PUSH20 0xFFFFFFFFFFFFFFFFFFFFFFFFFFFFFFFFFFFFFFFF AND PUSH20 0xFFFFFFFFFFFFFFFFFFFFFFFFFFFFFFFFFFFFFFFF AND DUP2 MSTORE PUSH1 0x20 ADD PUSH20 0x1AE0EA34A72D944A8C7603FFB3EC30A6669E454C PUSH20 0xFFFFFFFFFFFFFFFFFFFFFFFFFFFFFFFFFFFFFFFF AND PUSH20 0xFFFFFFFFFFFFFFFFFFFFFFFFFFFFFFFFFFFFFFFF AND DUP2 MSTORE PUSH1 0x20 ADD PUSH20 0xCA35B7D915458EF540ADE6068DFE2F44E8FA733C PUSH20 0xFFFFFFFFFFFFFFFFFFFFFFFFFFFFFFFFFFFFFFFF AND PUSH20 0xFFFFFFFFFFFFFFFFFFFFFFFFFFFFFFFFFFFFFFFF AND DUP2 MSTORE PUSH1 0x20 ADD PUSH20 0x14723A09ACFF6D2A60DCDF7AA4AFF308FDDC160C PUSH20 0xFFFFFFFFFFFFFFFFFFFFFFFFFFFFFFFFFFFFFFFF AND PUSH20 0xFFFFFFFFFFFFFFFFFFFFFFFFFFFFFFFFFFFFFFFF AND DUP2 MSTORE POP SWAP1 POP PUSH1 0x0 PUSH1 0x40 MLOAD DUP1 PUSH2 0x140 ADD PUSH1 0x40 MSTORE DUP1 PUSH1 0x40 MLOAD DUP1 PUSH1 0x40 ADD PUSH1 0x40 MSTORE DUP1 PUSH1 0x4 DUP2 MSTORE PUSH1 0x20 ADD PUSH32 0x5269636B00000000000000000000000000000000000000000000000000000000 DUP2 MSTORE POP DUP2 MSTORE PUSH1 0x20 ADD PUSH1 0x40 MLOAD DUP1 PUSH1 0x40 ADD PUSH1 0x40 MSTORE DUP1 PUSH1 0x7 DUP2 MSTORE PUSH1 0x20 ADD PUSH32 0x56616E6573736100000000000000000000000000000000000000000000000000 DUP2 MSTORE POP DUP2 MSTORE PUSH1 0x20 ADD PUSH1 0x40 MLOAD DUP1 PUSH1 0x40 ADD PUSH1 0x40 MSTORE DUP1 PUSH1 0x4 DUP2 MSTORE PUSH1 0x20 ADD PUSH32 0x416C657800000000000000000000000000000000000000000000000000000000 DUP2 MSTORE POP DUP2 MSTORE PUSH1 0x20 ADD PUSH1 0x40 MLOAD DUP1 PUSH1 0x40 ADD PUSH1 0x40 MSTORE DUP1 PUSH1 0x4 DUP2 MSTORE PUSH1 0x20 ADD PUSH32 0x5669636900000000000000000000000000000000000000000000000000000000 DUP2 MSTORE POP DUP2 MSTORE PUSH1 0x20 ADD PUSH1 0x40 MLOAD DUP1 PUSH1 0x40 ADD PUSH1 0x40 MSTORE DUP1 PUSH1 0x2 DUP2 MSTORE PUSH1 0x20 ADD PUSH32 0x4C75000000000000000000000000000000000000000000000000000000000000 DUP2 MSTORE POP DUP2 MSTORE PUSH1 0x20 ADD PUSH1 0x40 MLOAD DUP1 PUSH1 0x40 ADD PUSH1 0x40 MSTORE DUP1 PUSH1 0x4 DUP2 MSTORE PUSH1 0x20 ADD PUSH32 0x4A6F686E00000000000000000000000000000000000000000000000000000000 DUP2 MSTORE POP DUP2 MSTORE PUSH1 0x20 ADD PUSH1 0x40 MLOAD DUP1 PUSH1 0x40 ADD PUSH1 0x40 MSTORE DUP1 PUSH1 0x5 DUP2 MSTORE PUSH1 0x20 ADD PUSH32 0x5361726168000000000000000000000000000000000000000000000000000000 DUP2 MSTORE POP DUP2 MSTORE PUSH1 0x20 ADD PUSH1 0x40 MLOAD DUP1 PUSH1 0x40 ADD PUSH1 0x40 MSTORE DUP1 PUSH1 0x8 DUP2 MSTORE PUSH1 0x20 ADD PUSH32 0x53616D616E746861000000000000000000000000000000000000000000000000 DUP2 MSTORE POP DUP2 MSTORE PUSH1 0x20 ADD PUSH1 0x40 MLOAD DUP1 PUSH1 0x40 ADD PUSH1 0x40 MSTORE DUP1 PUSH1 0x5 DUP2 MSTORE PUSH1 0x20 ADD PUSH32 0x5065746572000000000000000000000000000000000000000000000000000000 DUP2 MSTORE POP DUP2 MSTORE PUSH1 0x20 ADD PUSH1 0x40 MLOAD DUP1 PUSH1 0x40 ADD PUSH1 0x40 MSTORE DUP1 PUSH1 0x5 DUP2 MSTORE PUSH1 0x20 ADD PUSH32 0x4461766964000000000000000000000000000000000000000000000000000000 DUP2 MSTORE POP DUP2 MSTORE POP SWAP1 POP PUSH1 0x0 PUSH1 0x40 MLOAD DUP1 PUSH2 0x140 ADD PUSH1 0x40 MSTORE DUP1 PUSH1 0x40 MLOAD DUP1 PUSH1 0x40 ADD PUSH1 0x40 MSTORE DUP1 PUSH1 0x5 DUP2 MSTORE PUSH1 0x20 ADD PUSH32 0x506174656C000000000000000000000000000000000000000000000000000000 DUP2 MSTORE POP DUP2 MSTORE PUSH1 0x20 ADD PUSH1 0x40 MLOAD DUP1 PUSH1 0x40 ADD PUSH1 0x40 MSTORE DUP1 PUSH1 0x3 DUP2 MSTORE PUSH1 0x20 ADD PUSH32 0x4B696D0000000000000000000000000000000000000000000000000000000000 DUP2 MSTORE POP DUP2 MSTORE PUSH1 0x20 ADD PUSH1 0x40 MLOAD DUP1 PUSH1 0x40 ADD PUSH1 0x40 MSTORE DUP1 PUSH1 0x5 DUP2 MSTORE PUSH1 0x20 ADD PUSH32 0x42726F776E000000000000000000000000000000000000000000000000000000 DUP2 MSTORE POP DUP2 MSTORE PUSH1 0x20 ADD PUSH1 0x40 MLOAD DUP1 PUSH1 0x40 ADD PUSH1 0x40 MSTORE DUP1 PUSH1 0x5 DUP2 MSTORE PUSH1 0x20 ADD PUSH32 0x4461766973000000000000000000000000000000000000000000000000000000 DUP2 MSTORE POP DUP2 MSTORE PUSH1 0x20 ADD PUSH1 0x40 MLOAD DUP1 PUSH1 0x40 ADD PUSH1 0x40 MSTORE DUP1 PUSH1 0x8 DUP2 MSTORE PUSH1 0x20 ADD PUSH32 0x4D617274696E657A000000000000000000000000000000000000000000000000 DUP2 MSTORE POP DUP2 MSTORE PUSH1 0x20 ADD PUSH1 0x40 MLOAD DUP1 PUSH1 0x40 ADD PUSH1 0x40 MSTORE DUP1 PUSH1 0x6 DUP2 MSTORE PUSH1 0x20 ADD PUSH32 0x57696C736F6E0000000000000000000000000000000000000000000000000000 DUP2 MSTORE POP DUP2 MSTORE PUSH1 0x20 ADD PUSH1 0x40 MLOAD DUP1 PUSH1 0x40 ADD PUSH1 0x40 MSTORE DUP1 PUSH1 0x6 DUP2 MSTORE PUSH1 0x20 ADD PUSH32 0x4761726369610000000000000000000000000000000000000000000000000000 DUP2 MSTORE POP DUP2 MSTORE PUSH1 0x20 ADD PUSH1 0x40 MLOAD DUP1 PUSH1 0x40 ADD PUSH1 0x40 MSTORE DUP1 PUSH1 0x5 DUP2 MSTORE PUSH1 0x20 ADD PUSH32 0x4A6F6E6573000000000000000000000000000000000000000000000000000000 DUP2 MSTORE POP DUP2 MSTORE PUSH1 0x20 ADD PUSH1 0x40 MLOAD DUP1 PUSH1 0x40 ADD PUSH1 0x40 MSTORE DUP1 PUSH1 0x7 DUP2 MSTORE PUSH1 0x20 ADD PUSH32 0x4A61636B736F6E00000000000000000000000000000000000000000000000000 DUP2 MSTORE POP DUP2 MSTORE PUSH1 0x20 ADD PUSH1 0x40 MLOAD DUP1 PUSH1 0x40 ADD PUSH1 0x40 MSTORE DUP1 PUSH1 0x5 DUP2 MSTORE PUSH1 0x20 ADD PUSH32 0x536D697468000000000000000000000000000000000000000000000000000000 DUP2 MSTORE POP DUP2 MSTORE POP SWAP1 POP PUSH1 0x0 PUSH1 0x40 MLOAD DUP1 PUSH2 0x140 ADD PUSH1 0x40 MSTORE DUP1 PUSH1 0x40 MLOAD DUP1 PUSH1 0x40 ADD PUSH1 0x40 MSTORE DUP1 PUSH1 0x12 DUP2 MSTORE PUSH1 0x20 ADD PUSH32 0x5269636B2E506174656C40706F722E636F6D0000000000000000000000000000 DUP2 MSTORE POP DUP2 MSTORE PUSH1 0x20 ADD PUSH1 0x40 MLOAD DUP1 PUSH1 0x40 ADD PUSH1 0x40 MSTORE DUP1 PUSH1 0x13 DUP2 MSTORE PUSH1 0x20 ADD PUSH32 0x56616E657373612E4B696D40706F722E636F6D00000000000000000000000000 DUP2 MSTORE POP DUP2 MSTORE PUSH1 0x20 ADD PUSH1 0x40 MLOAD DUP1 PUSH1 0x40 ADD PUSH1 0x40 MSTORE DUP1 PUSH1 0x12 DUP2 MSTORE PUSH1 0x20 ADD PUSH32 0x416C65782E42726F776E40706F722E636F6D0000000000000000000000000000 DUP2 MSTORE POP DUP2 MSTORE PUSH1 0x20 ADD PUSH1 0x40 MLOAD DUP1 PUSH1 0x40 ADD PUSH1 0x40 MSTORE DUP1 PUSH1 0x12 DUP2 MSTORE PUSH1 0x20 ADD PUSH32 0x566963692E446176697340706F722E636F6D0000000000000000000000000000 DUP2 MSTORE POP DUP2 MSTORE PUSH1 0x20 ADD PUSH1 0x40 MLOAD DUP1 PUSH1 0x40 ADD PUSH1 0x40 MSTORE DUP1 PUSH1 0x13 DUP2 MSTORE PUSH1 0x20 ADD PUSH32 0x4C752E4D617274696E657A40706F722E636F6D00000000000000000000000000 DUP2 MSTORE POP DUP2 MSTORE PUSH1 0x20 ADD PUSH1 0x40 MLOAD DUP1 PUSH1 0x40 ADD PUSH1 0x40 MSTORE DUP1 PUSH1 0x13 DUP2 MSTORE PUSH1 0x20 ADD PUSH32 0x4A6F686E2E57696C736F6E40706F722E636F6D00000000000000000000000000 DUP2 MSTORE POP DUP2 MSTORE PUSH1 0x20 ADD PUSH1 0x40 MLOAD DUP1 PUSH1 0x40 ADD PUSH1 0x40 MSTORE DUP1 PUSH1 0x14 DUP2 MSTORE PUSH1 0x20 ADD PUSH32 0x53617261682E47617263696140706F722E636F6D000000000000000000000000 DUP2 MSTORE POP DUP2 MSTORE PUSH1 0x20 ADD PUSH1 0x40 MLOAD DUP1 PUSH1 0x40 ADD PUSH1 0x40 MSTORE DUP1 PUSH1 0x16 DUP2 MSTORE PUSH1 0x20 ADD PUSH32 0x53616D616E7468612E4A6F6E657340706F722E636F6D00000000000000000000 DUP2 MSTORE POP DUP2 MSTORE PUSH1 0x20 ADD PUSH1 0x40 MLOAD DUP1 PUSH1 0x40 ADD PUSH1 0x40 MSTORE DUP1 PUSH1 0x15 DUP2 MSTORE PUSH1 0x20 ADD PUSH32 0x50657465722E4A61636B736F6E40706F722E636F6D0000000000000000000000 DUP2 MSTORE POP DUP2 MSTORE PUSH1 0x20 ADD PUSH1 0x40 MLOAD DUP1 PUSH1 0x40 ADD PUSH1 0x40 MSTORE DUP1 PUSH1 0x13 DUP2 MSTORE PUSH1 0x20 ADD PUSH32 0x44617669642E536D69746840706F722E636F6D00000000000000000000000000 DUP2 MSTORE POP DUP2 MSTORE POP SWAP1 POP PUSH1 0x0 JUMPDEST PUSH1 0xA DUP2 LT ISZERO PUSH2 0x1192 JUMPI PUSH1 0x0 DUP6 DUP3 PUSH1 0xA DUP2 LT PUSH2 0x1107 JUMPI PUSH2 0x1106 PUSH2 0x312D JUMP JUMPDEST JUMPDEST PUSH1 0x20 MUL ADD MLOAD SWAP1 POP PUSH2 0x115F DUP2 DUP7 DUP5 PUSH1 0xA DUP2 LT PUSH2 0x1125 JUMPI PUSH2 0x1124 PUSH2 0x312D JUMP JUMPDEST JUMPDEST PUSH1 0x20 MUL ADD MLOAD DUP7 DUP6 PUSH1 0xA DUP2 LT PUSH2 0x113D JUMPI PUSH2 0x113C PUSH2 0x312D JUMP JUMPDEST JUMPDEST PUSH1 0x20 MUL ADD MLOAD DUP7 DUP7 PUSH1 0xA DUP2 LT PUSH2 0x1155 JUMPI PUSH2 0x1154 PUSH2 0x312D JUMP JUMPDEST JUMPDEST PUSH1 0x20 MUL ADD MLOAD PUSH2 0x254F JUMP JUMPDEST PUSH2 0x116A DUP2 PUSH1 0x2 PUSH2 0x13AD JUMP JUMPDEST PUSH2 0x1175 DUP2 PUSH1 0x3 PUSH2 0x1CED JUMP JUMPDEST PUSH2 0x117E DUP2 PUSH2 0x1A51 JUMP JUMPDEST POP DUP1 DUP1 PUSH2 0x118A SWAP1 PUSH2 0x318B JUMP JUMPDEST SWAP2 POP POP PUSH2 0x10E9 JUMP JUMPDEST POP POP POP POP POP JUMP JUMPDEST PUSH1 0x0 PUSH2 0x11A6 DUP3 PUSH1 0x0 PUSH2 0x2859 JUMP JUMPDEST SWAP1 POP SWAP2 SWAP1 POP JUMP JUMPDEST DUP1 PUSH1 0x0 PUSH20 0xFFFFFFFFFFFFFFFFFFFFFFFFFFFFFFFFFFFFFFFF AND PUSH1 0x2 PUSH1 0x0 DUP4 PUSH20 0xFFFFFFFFFFFFFFFFFFFFFFFFFFFFFFFFFFFFFFFF AND PUSH20 0xFFFFFFFFFFFFFFFFFFFFFFFFFFFFFFFFFFFFFFFF AND DUP2 MSTORE PUSH1 0x20 ADD SWAP1 DUP2 MSTORE PUSH1 0x20 ADD PUSH1 0x0 KECCAK256 PUSH1 0x0 ADD PUSH1 0x0 SWAP1 SLOAD SWAP1 PUSH2 0x100 EXP SWAP1 DIV PUSH20 0xFFFFFFFFFFFFFFFFFFFFFFFFFFFFFFFFFFFFFFFF AND PUSH20 0xFFFFFFFFFFFFFFFFFFFFFFFFFFFFFFFFFFFFFFFF AND EQ ISZERO PUSH2 0x1280 JUMPI PUSH1 0x40 MLOAD PUSH32 0x8C379A000000000000000000000000000000000000000000000000000000000 DUP2 MSTORE PUSH1 0x4 ADD PUSH2 0x1277 SWAP1 PUSH2 0x3231 JUMP JUMPDEST PUSH1 0x40 MLOAD DUP1 SWAP2 SUB SWAP1 REVERT JUMPDEST PUSH1 0x3 PUSH1 0x0 DUP4 PUSH20 0xFFFFFFFFFFFFFFFFFFFFFFFFFFFFFFFFFFFFFFFF AND PUSH20 0xFFFFFFFFFFFFFFFFFFFFFFFFFFFFFFFFFFFFFFFF AND DUP2 MSTORE PUSH1 0x20 ADD SWAP1 DUP2 MSTORE PUSH1 0x20 ADD PUSH1 0x0 KECCAK256 PUSH1 0x0 SWAP1 SLOAD SWAP1 PUSH2 0x100 EXP SWAP1 DIV PUSH1 0xFF AND ISZERO PUSH2 0x13A3 JUMPI PUSH1 0x0 PUSH1 0x2 PUSH1 0x0 DUP5 PUSH20 0xFFFFFFFFFFFFFFFFFFFFFFFFFFFFFFFFFFFFFFFF AND PUSH20 0xFFFFFFFFFFFFFFFFFFFFFFFFFFFFFFFFFFFFFFFF AND DUP2 MSTORE PUSH1 0x20 ADD SWAP1 DUP2 MSTORE PUSH1 0x20 ADD PUSH1 0x0 KECCAK256 SWAP1 POP PUSH1 0x0 DUP2 PUSH1 0x4 ADD PUSH1 0x0 PUSH2 0x100 EXP DUP2 SLOAD DUP2 PUSH1 0xFF MUL NOT AND SWAP1 DUP4 ISZERO ISZERO MUL OR SWAP1 SSTORE POP PUSH1 0x0 PUSH1 0x3 PUSH1 0x0 DUP6 PUSH20 0xFFFFFFFFFFFFFFFFFFFFFFFFFFFFFFFFFFFFFFFF AND PUSH20 0xFFFFFFFFFFFFFFFFFFFFFFFFFFFFFFFFFFFFFFFF AND DUP2 MSTORE PUSH1 0x20 ADD SWAP1 DUP2 MSTORE PUSH1 0x20 ADD PUSH1 0x0 KECCAK256 PUSH1 0x0 PUSH2 0x100 EXP DUP2 SLOAD DUP2 PUSH1 0xFF MUL NOT AND SWAP1 DUP4 ISZERO ISZERO MUL OR SWAP1 SSTORE POP PUSH1 0x0 DUP1 DUP2 SLOAD DUP1 SWAP3 SWAP2 SWAP1 PUSH2 0x139C SWAP1 PUSH2 0x3251 JUMP JUMPDEST SWAP2 SWAP1 POP SSTORE POP POP JUMPDEST POP POP JUMP JUMPDEST PUSH1 0x0 SLOAD DUP2 JUMP JUMPDEST PUSH1 0x1 PUSH1 0x0 SWAP1 SLOAD SWAP1 PUSH2 0x100 EXP SWAP1 DIV PUSH20 0xFFFFFFFFFFFFFFFFFFFFFFFFFFFFFFFFFFFFFFFF AND PUSH20 0xFFFFFFFFFFFFFFFFFFFFFFFFFFFFFFFFFFFFFFFF AND CALLER PUSH20 0xFFFFFFFFFFFFFFFFFFFFFFFFFFFFFFFFFFFFFFFF AND EQ DUP1 PUSH2 0x140E JUMPI POP PUSH2 0x140D CALLER PUSH2 0x1199 JUMP JUMPDEST JUMPDEST PUSH2 0x144D JUMPI PUSH1 0x40 MLOAD PUSH32 0x8C379A000000000000000000000000000000000000000000000000000000000 DUP2 MSTORE PUSH1 0x4 ADD PUSH2 0x1444 SWAP1 PUSH2 0x32ED JUMP JUMPDEST PUSH1 0x40 MLOAD DUP1 SWAP2 SUB SWAP1 REVERT JUMPDEST DUP2 PUSH1 0x0 PUSH20 0xFFFFFFFFFFFFFFFFFFFFFFFFFFFFFFFFFFFFFFFF AND PUSH1 0x2 PUSH1 0x0 DUP4 PUSH20 0xFFFFFFFFFFFFFFFFFFFFFFFFFFFFFFFFFFFFFFFF AND PUSH20 0xFFFFFFFFFFFFFFFFFFFFFFFFFFFFFFFFFFFFFFFF AND DUP2 MSTORE PUSH1 0x20 ADD SWAP1 DUP2 MSTORE PUSH1 0x20 ADD PUSH1 0x0 KECCAK256 PUSH1 0x0 ADD PUSH1 0x0 SWAP1 SLOAD SWAP1 PUSH2 0x100 EXP SWAP1 DIV PUSH20 0xFFFFFFFFFFFFFFFFFFFFFFFFFFFFFFFFFFFFFFFF AND PUSH20 0xFFFFFFFFFFFFFFFFFFFFFFFFFFFFFFFFFFFFFFFF AND EQ ISZERO PUSH2 0x1520 JUMPI PUSH1 0x40 MLOAD PUSH32 0x8C379A000000000000000000000000000000000000000000000000000000000 DUP2 MSTORE PUSH1 0x4 ADD PUSH2 0x1517 SWAP1 PUSH2 0x3231 JUMP JUMPDEST PUSH1 0x40 MLOAD DUP1 SWAP2 SUB SWAP1 REVERT JUMPDEST PUSH1 0x0 PUSH1 0x2 PUSH1 0x0 DUP6 PUSH20 0xFFFFFFFFFFFFFFFFFFFFFFFFFFFFFFFFFFFFFFFF AND PUSH20 0xFFFFFFFFFFFFFFFFFFFFFFFFFFFFFFFFFFFFFFFF AND DUP2 MSTORE PUSH1 0x20 ADD SWAP1 DUP2 MSTORE PUSH1 0x20 ADD PUSH1 0x0 KECCAK256 SWAP1 POP PUSH1 0x0 DUP2 PUSH1 0x5 ADD SWAP1 POP PUSH1 0x0 PUSH1 0x3 DUP2 GT ISZERO PUSH2 0x157F JUMPI PUSH2 0x157E PUSH2 0x330D JUMP JUMPDEST JUMPDEST DUP5 PUSH1 0x3 DUP2 GT ISZERO PUSH2 0x1592 JUMPI PUSH2 0x1591 PUSH2 0x330D JUMP JUMPDEST JUMPDEST EQ ISZERO PUSH2 0x15BA JUMPI PUSH1 0x1 DUP2 PUSH1 0x0 ADD PUSH1 0x0 PUSH2 0x100 EXP DUP2 SLOAD DUP2 PUSH1 0xFF MUL NOT AND SWAP1 DUP4 ISZERO ISZERO MUL OR SWAP1 SSTORE POP PUSH2 0x16A5 JUMP JUMPDEST PUSH1 0x1 PUSH1 0x3 DUP2 GT ISZERO PUSH2 0x15CE JUMPI PUSH2 0x15CD PUSH2 0x330D JUMP JUMPDEST JUMPDEST DUP5 PUSH1 0x3 DUP2 GT ISZERO PUSH2 0x15E1 JUMPI PUSH2 0x15E0 PUSH2 0x330D JUMP JUMPDEST JUMPDEST EQ ISZERO PUSH2 0x1609 JUMPI PUSH1 0x1 DUP2 PUSH1 0x0 ADD PUSH1 0x1 PUSH2 0x100 EXP DUP2 SLOAD DUP2 PUSH1 0xFF MUL NOT AND SWAP1 DUP4 ISZERO ISZERO MUL OR SWAP1 SSTORE POP PUSH2 0x16A4 JUMP JUMPDEST PUSH1 0x2 PUSH1 0x3 DUP2 GT ISZERO PUSH2 0x161D JUMPI PUSH2 0x161C PUSH2 0x330D JUMP JUMPDEST JUMPDEST DUP5 PUSH1 0x3 DUP2 GT ISZERO PUSH2 0x1630 JUMPI PUSH2 0x162F PUSH2 0x330D JUMP JUMPDEST JUMPDEST EQ ISZERO PUSH2 0x1658 JUMPI PUSH1 0x1 DUP2 PUSH1 0x0 ADD PUSH1 0x2 PUSH2 0x100 EXP DUP2 SLOAD DUP2 PUSH1 0xFF MUL NOT AND SWAP1 DUP4 ISZERO ISZERO MUL OR SWAP1 SSTORE POP PUSH2 0x16A3 JUMP JUMPDEST PUSH1 0x3 DUP1 DUP2 GT ISZERO PUSH2 0x166B JUMPI PUSH2 0x166A PUSH2 0x330D JUMP JUMPDEST JUMPDEST DUP5 PUSH1 0x3 DUP2 GT ISZERO PUSH2 0x167E JUMPI PUSH2 0x167D PUSH2 0x330D JUMP JUMPDEST JUMPDEST EQ ISZERO PUSH2 0x16A2 JUMPI PUSH1 0x1 DUP2 PUSH1 0x0 ADD PUSH1 0x3 PUSH2 0x100 EXP DUP2 SLOAD DUP2 PUSH1 0xFF MUL NOT AND SWAP1 DUP4 ISZERO ISZERO MUL OR SWAP1 SSTORE POP JUMPDEST JUMPDEST JUMPDEST JUMPDEST POP POP POP POP POP JUMP JUMPDEST PUSH1 0x0 DUP1 PUSH1 0x2 PUSH1 0x0 DUP5 PUSH20 0xFFFFFFFFFFFFFFFFFFFFFFFFFFFFFFFFFFFFFFFF AND PUSH20 0xFFFFFFFFFFFFFFFFFFFFFFFFFFFFFFFFFFFFFFFF AND DUP2 MSTORE PUSH1 0x20 ADD SWAP1 DUP2 MSTORE PUSH1 0x20 ADD PUSH1 0x0 KECCAK256 PUSH1 0x40 MLOAD DUP1 PUSH1 0xC0 ADD PUSH1 0x40 MSTORE SWAP1 DUP2 PUSH1 0x0 DUP3 ADD PUSH1 0x0 SWAP1 SLOAD SWAP1 PUSH2 0x100 EXP SWAP1 DIV PUSH20 0xFFFFFFFFFFFFFFFFFFFFFFFFFFFFFFFFFFFFFFFF AND PUSH20 0xFFFFFFFFFFFFFFFFFFFFFFFFFFFFFFFFFFFFFFFF AND PUSH20 0xFFFFFFFFFFFFFFFFFFFFFFFFFFFFFFFFFFFFFFFF AND DUP2 MSTORE PUSH1 0x20 ADD PUSH1 0x1 DUP3 ADD DUP1 SLOAD PUSH2 0x175F SWAP1 PUSH2 0x30FB JUMP JUMPDEST DUP1 PUSH1 0x1F ADD PUSH1 0x20 DUP1 SWAP2 DIV MUL PUSH1 0x20 ADD PUSH1 0x40 MLOAD SWAP1 DUP2 ADD PUSH1 0x40 MSTORE DUP1 SWAP3 SWAP2 SWAP1 DUP2 DUP2 MSTORE PUSH1 0x20 ADD DUP3 DUP1 SLOAD PUSH2 0x178B SWAP1 PUSH2 0x30FB JUMP JUMPDEST DUP1 ISZERO PUSH2 0x17D8 JUMPI DUP1 PUSH1 0x1F LT PUSH2 0x17AD JUMPI PUSH2 0x100 DUP1 DUP4 SLOAD DIV MUL DUP4 MSTORE SWAP2 PUSH1 0x20 ADD SWAP2 PUSH2 0x17D8 JUMP JUMPDEST DUP3 ADD SWAP2 SWAP1 PUSH1 0x0 MSTORE PUSH1 0x20 PUSH1 0x0 KECCAK256 SWAP1 JUMPDEST DUP2 SLOAD DUP2 MSTORE SWAP1 PUSH1 0x1 ADD SWAP1 PUSH1 0x20 ADD DUP1 DUP4 GT PUSH2 0x17BB JUMPI DUP3 SWAP1 SUB PUSH1 0x1F AND DUP3 ADD SWAP2 JUMPDEST POP POP POP POP POP DUP2 MSTORE PUSH1 0x20 ADD PUSH1 0x2 DUP3 ADD DUP1 SLOAD PUSH2 0x17F1 SWAP1 PUSH2 0x30FB JUMP JUMPDEST DUP1 PUSH1 0x1F ADD PUSH1 0x20 DUP1 SWAP2 DIV MUL PUSH1 0x20 ADD PUSH1 0x40 MLOAD SWAP1 DUP2 ADD PUSH1 0x40 MSTORE DUP1 SWAP3 SWAP2 SWAP1 DUP2 DUP2 MSTORE PUSH1 0x20 ADD DUP3 DUP1 SLOAD PUSH2 0x181D SWAP1 PUSH2 0x30FB JUMP JUMPDEST DUP1 ISZERO PUSH2 0x186A JUMPI DUP1 PUSH1 0x1F LT PUSH2 0x183F JUMPI PUSH2 0x100 DUP1 DUP4 SLOAD DIV MUL DUP4 MSTORE SWAP2 PUSH1 0x20 ADD SWAP2 PUSH2 0x186A JUMP JUMPDEST DUP3 ADD SWAP2 SWAP1 PUSH1 0x0 MSTORE PUSH1 0x20 PUSH1 0x0 KECCAK256 SWAP1 JUMPDEST DUP2 SLOAD DUP2 MSTORE SWAP1 PUSH1 0x1 ADD SWAP1 PUSH1 0x20 ADD DUP1 DUP4 GT PUSH2 0x184D JUMPI DUP3 SWAP1 SUB PUSH1 0x1F AND DUP3 ADD SWAP2 JUMPDEST POP POP POP POP POP DUP2 MSTORE PUSH1 0x20 ADD PUSH1 0x3 DUP3 ADD DUP1 SLOAD PUSH2 0x1883 SWAP1 PUSH2 0x30FB JUMP JUMPDEST DUP1 PUSH1 0x1F ADD PUSH1 0x20 DUP1 SWAP2 DIV MUL PUSH1 0x20 ADD PUSH1 0x40 MLOAD SWAP1 DUP2 ADD PUSH1 0x40 MSTORE DUP1 SWAP3 SWAP2 SWAP1 DUP2 DUP2 MSTORE PUSH1 0x20 ADD DUP3 DUP1 SLOAD PUSH2 0x18AF SWAP1 PUSH2 0x30FB JUMP JUMPDEST DUP1 ISZERO PUSH2 0x18FC JUMPI DUP1 PUSH1 0x1F LT PUSH2 0x18D1 JUMPI PUSH2 0x100 DUP1 DUP4 SLOAD DIV MUL DUP4 MSTORE SWAP2 PUSH1 0x20 ADD SWAP2 PUSH2 0x18FC JUMP JUMPDEST DUP3 ADD SWAP2 SWAP1 PUSH1 0x0 MSTORE PUSH1 0x20 PUSH1 0x0 KECCAK256 SWAP1 JUMPDEST DUP2 SLOAD DUP2 MSTORE SWAP1 PUSH1 0x1 ADD SWAP1 PUSH1 0x20 ADD DUP1 DUP4 GT PUSH2 0x18DF JUMPI DUP3 SWAP1 SUB PUSH1 0x1F AND DUP3 ADD SWAP2 JUMPDEST POP POP POP POP POP DUP2 MSTORE PUSH1 0x20 ADD PUSH1 0x4 DUP3 ADD PUSH1 0x0 SWAP1 SLOAD SWAP1 PUSH2 0x100 EXP SWAP1 DIV PUSH1 0xFF AND ISZERO ISZERO ISZERO ISZERO DUP2 MSTORE PUSH1 0x20 ADD PUSH1 0x5 DUP3 ADD PUSH1 0x40 MLOAD DUP1 PUSH1 0x80 ADD PUSH1 0x40 MSTORE SWAP1 DUP2 PUSH1 0x0 DUP3 ADD PUSH1 0x0 SWAP1 SLOAD SWAP1 PUSH2 0x100 EXP SWAP1 DIV PUSH1 0xFF AND ISZERO ISZERO ISZERO ISZERO DUP2 MSTORE PUSH1 0x20 ADD PUSH1 0x0 DUP3 ADD PUSH1 0x1 SWAP1 SLOAD SWAP1 PUSH2 0x100 EXP SWAP1 DIV PUSH1 0xFF AND ISZERO ISZERO ISZERO ISZERO DUP2 MSTORE PUSH1 0x20 ADD PUSH1 0x0 DUP3 ADD PUSH1 0x2 SWAP1 SLOAD SWAP1 PUSH2 0x100 EXP SWAP1 DIV PUSH1 0xFF AND ISZERO ISZERO ISZERO ISZERO DUP2 MSTORE PUSH1 0x20 ADD PUSH1 0x0 DUP3 ADD PUSH1 0x3 SWAP1 SLOAD SWAP1 PUSH2 0x100 EXP SWAP1 DIV PUSH1 0xFF AND ISZERO ISZERO ISZERO ISZERO DUP2 MSTORE POP POP DUP2 MSTORE POP POP SWAP1 POP PUSH1 0x0 PUSH20 0xFFFFFFFFFFFFFFFFFFFFFFFFFFFFFFFFFFFFFFFF AND DUP2 PUSH1 0x0 ADD MLOAD PUSH20 0xFFFFFFFFFFFFFFFFFFFFFFFFFFFFFFFFFFFFFFFF AND EQ PUSH2 0x1A20 JUMPI DUP1 PUSH1 0x80 ADD MLOAD DUP1 ISZERO PUSH2 0x1A10 JUMPI POP DUP1 PUSH1 0xA0 ADD MLOAD PUSH1 0x0 ADD MLOAD DUP1 PUSH2 0x19FF JUMPI POP DUP1 PUSH1 0xA0 ADD MLOAD PUSH1 0x20 ADD MLOAD JUMPDEST DUP1 PUSH2 0x1A0F JUMPI POP DUP1 PUSH1 0xA0 ADD MLOAD PUSH1 0x40 ADD MLOAD JUMPDEST JUMPDEST ISZERO PUSH2 0x1A1F JUMPI PUSH1 0x1 SWAP2 POP POP PUSH2 0x1A26 JUMP JUMPDEST JUMPDEST PUSH1 0x0 SWAP2 POP POP JUMPDEST SWAP2 SWAP1 POP JUMP JUMPDEST PUSH1 0x1 PUSH1 0x0 SWAP1 SLOAD SWAP1 PUSH2 0x100 EXP SWAP1 DIV PUSH20 0xFFFFFFFFFFFFFFFFFFFFFFFFFFFFFFFFFFFFFFFF AND DUP2 JUMP JUMPDEST DUP1 PUSH1 0x0 PUSH20 0xFFFFFFFFFFFFFFFFFFFFFFFFFFFFFFFFFFFFFFFF AND PUSH1 0x2 PUSH1 0x0 DUP4 PUSH20 0xFFFFFFFFFFFFFFFFFFFFFFFFFFFFFFFFFFFFFFFF AND PUSH20 0xFFFFFFFFFFFFFFFFFFFFFFFFFFFFFFFFFFFFFFFF AND DUP2 MSTORE PUSH1 0x20 ADD SWAP1 DUP2 MSTORE PUSH1 0x20 ADD PUSH1 0x0 KECCAK256 PUSH1 0x0 ADD PUSH1 0x0 SWAP1 SLOAD SWAP1 PUSH2 0x100 EXP SWAP1 DIV PUSH20 0xFFFFFFFFFFFFFFFFFFFFFFFFFFFFFFFFFFFFFFFF AND PUSH20 0xFFFFFFFFFFFFFFFFFFFFFFFFFFFFFFFFFFFFFFFF AND EQ ISZERO PUSH2 0x1B24 JUMPI PUSH1 0x40 MLOAD PUSH32 0x8C379A000000000000000000000000000000000000000000000000000000000 DUP2 MSTORE PUSH1 0x4 ADD PUSH2 0x1B1B SWAP1 PUSH2 0x3231 JUMP JUMPDEST PUSH1 0x40 MLOAD DUP1 SWAP2 SUB SWAP1 REVERT JUMPDEST PUSH1 0x3 PUSH1 0x0 DUP4 PUSH20 0xFFFFFFFFFFFFFFFFFFFFFFFFFFFFFFFFFFFFFFFF AND PUSH20 0xFFFFFFFFFFFFFFFFFFFFFFFFFFFFFFFFFFFFFFFF AND DUP2 MSTORE PUSH1 0x20 ADD SWAP1 DUP2 MSTORE PUSH1 0x20 ADD PUSH1 0x0 KECCAK256 PUSH1 0x0 SWAP1 SLOAD SWAP1 PUSH2 0x100 EXP SWAP1 DIV PUSH1 0xFF AND PUSH2 0x1CE9 JUMPI PUSH1 0x0 PUSH1 0x2 PUSH1 0x0 DUP5 PUSH20 0xFFFFFFFFFFFFFFFFFFFFFFFFFFFFFFFFFFFFFFFF AND PUSH20 0xFFFFFFFFFFFFFFFFFFFFFFFFFFFFFFFFFFFFFFFF AND DUP2 MSTORE PUSH1 0x20 ADD SWAP1 DUP2 MSTORE PUSH1 0x20 ADD PUSH1 0x0 KECCAK256 SWAP1 POP PUSH1 0x1 DUP2 PUSH1 0x4 ADD PUSH1 0x0 PUSH2 0x100 EXP DUP2 SLOAD DUP2 PUSH1 0xFF MUL NOT AND SWAP1 DUP4 ISZERO ISZERO MUL OR SWAP1 SSTORE POP PUSH1 0x0 DUP2 PUSH1 0x5 ADD PUSH1 0x40 MLOAD DUP1 PUSH1 0x80 ADD PUSH1 0x40 MSTORE SWAP1 DUP2 PUSH1 0x0 DUP3 ADD PUSH1 0x0 SWAP1 SLOAD SWAP1 PUSH2 0x100 EXP SWAP1 DIV PUSH1 0xFF AND ISZERO ISZERO ISZERO ISZERO DUP2 MSTORE PUSH1 0x20 ADD PUSH1 0x0 DUP3 ADD PUSH1 0x1 SWAP1 SLOAD SWAP1 PUSH2 0x100 EXP SWAP1 DIV PUSH1 0xFF AND ISZERO ISZERO ISZERO ISZERO DUP2 MSTORE PUSH1 0x20 ADD PUSH1 0x0 DUP3 ADD PUSH1 0x2 SWAP1 SLOAD SWAP1 PUSH2 0x100 EXP SWAP1 DIV PUSH1 0xFF AND ISZERO ISZERO ISZERO ISZERO DUP2 MSTORE PUSH1 0x20 ADD PUSH1 0x0 DUP3 ADD PUSH1 0x3 SWAP1 SLOAD SWAP1 PUSH2 0x100 EXP SWAP1 DIV PUSH1 0xFF AND ISZERO ISZERO ISZERO ISZERO DUP2 MSTORE POP POP SWAP1 POP DUP1 PUSH1 0x0 ADD MLOAD DUP1 PUSH2 0x1C65 JUMPI POP DUP1 PUSH1 0x20 ADD MLOAD JUMPDEST DUP1 PUSH2 0x1C71 JUMPI POP DUP1 PUSH1 0x40 ADD MLOAD JUMPDEST ISZERO PUSH2 0x1CE6 JUMPI PUSH1 0x1 PUSH1 0x3 PUSH1 0x0 DUP7 PUSH20 0xFFFFFFFFFFFFFFFFFFFFFFFFFFFFFFFFFFFFFFFF AND PUSH20 0xFFFFFFFFFFFFFFFFFFFFFFFFFFFFFFFFFFFFFFFF AND DUP2 MSTORE PUSH1 0x20 ADD SWAP1 DUP2 MSTORE PUSH1 0x20 ADD PUSH1 0x0 KECCAK256 PUSH1 0x0 PUSH2 0x100 EXP DUP2 SLOAD DUP2 PUSH1 0xFF MUL NOT AND SWAP1 DUP4 ISZERO ISZERO MUL OR SWAP1 SSTORE POP PUSH1 0x0 DUP1 DUP2 SLOAD DUP1 SWAP3 SWAP2 SWAP1 PUSH2 0x1CE0 SWAP1 PUSH2 0x318B JUMP JUMPDEST SWAP2 SWAP1 POP SSTORE POP JUMPDEST POP POP JUMPDEST POP POP JUMP JUMPDEST PUSH1 0x1 PUSH1 0x0 SWAP1 SLOAD SWAP1 PUSH2 0x100 EXP SWAP1 DIV PUSH20 0xFFFFFFFFFFFFFFFFFFFFFFFFFFFFFFFFFFFFFFFF AND PUSH20 0xFFFFFFFFFFFFFFFFFFFFFFFFFFFFFFFFFFFFFFFF AND CALLER PUSH20 0xFFFFFFFFFFFFFFFFFFFFFFFFFFFFFFFFFFFFFFFF AND EQ DUP1 PUSH2 0x1D4E JUMPI POP PUSH2 0x1D4D CALLER PUSH2 0x1199 JUMP JUMPDEST JUMPDEST PUSH2 0x1D8D JUMPI PUSH1 0x40 MLOAD PUSH32 0x8C379A000000000000000000000000000000000000000000000000000000000 DUP2 MSTORE PUSH1 0x4 ADD PUSH2 0x1D84 SWAP1 PUSH2 0x32ED JUMP JUMPDEST PUSH1 0x40 MLOAD DUP1 SWAP2 SUB SWAP1 REVERT JUMPDEST DUP2 PUSH1 0x0 PUSH20 0xFFFFFFFFFFFFFFFFFFFFFFFFFFFFFFFFFFFFFFFF AND PUSH1 0x2 PUSH1 0x0 DUP4 PUSH20 0xFFFFFFFFFFFFFFFFFFFFFFFFFFFFFFFFFFFFFFFF AND PUSH20 0xFFFFFFFFFFFFFFFFFFFFFFFFFFFFFFFFFFFFFFFF AND DUP2 MSTORE PUSH1 0x20 ADD SWAP1 DUP2 MSTORE PUSH1 0x20 ADD PUSH1 0x0 KECCAK256 PUSH1 0x0 ADD PUSH1 0x0 SWAP1 SLOAD SWAP1 PUSH2 0x100 EXP SWAP1 DIV PUSH20 0xFFFFFFFFFFFFFFFFFFFFFFFFFFFFFFFFFFFFFFFF AND PUSH20 0xFFFFFFFFFFFFFFFFFFFFFFFFFFFFFFFFFFFFFFFF AND EQ ISZERO PUSH2 0x1E60 JUMPI PUSH1 0x40 MLOAD PUSH32 0x8C379A000000000000000000000000000000000000000000000000000000000 DUP2 MSTORE PUSH1 0x4 ADD PUSH2 0x1E57 SWAP1 PUSH2 0x3231 JUMP JUMPDEST PUSH1 0x40 MLOAD DUP1 SWAP2 SUB SWAP1 REVERT JUMPDEST PUSH1 0x0 PUSH1 0x2 PUSH1 0x0 DUP6 PUSH20 0xFFFFFFFFFFFFFFFFFFFFFFFFFFFFFFFFFFFFFFFF AND PUSH20 0xFFFFFFFFFFFFFFFFFFFFFFFFFFFFFFFFFFFFFFFF AND DUP2 MSTORE PUSH1 0x20 ADD SWAP1 DUP2 MSTORE PUSH1 0x20 ADD PUSH1 0x0 KECCAK256 SWAP1 POP PUSH1 0x0 DUP2 PUSH1 0x5 ADD SWAP1 POP PUSH1 0x0 PUSH1 0x3 DUP2 GT ISZERO PUSH2 0x1EBF JUMPI PUSH2 0x1EBE PUSH2 0x330D JUMP JUMPDEST JUMPDEST DUP5 PUSH1 0x3 DUP2 GT ISZERO PUSH2 0x1ED2 JUMPI PUSH2 0x1ED1 PUSH2 0x330D JUMP JUMPDEST JUMPDEST EQ ISZERO PUSH2 0x1EFA JUMPI PUSH1 0x0 DUP2 PUSH1 0x0 ADD PUSH1 0x0 PUSH2 0x100 EXP DUP2 SLOAD DUP2 PUSH1 0xFF MUL NOT AND SWAP1 DUP4 ISZERO ISZERO MUL OR SWAP1 SSTORE POP PUSH2 0x1FE5 JUMP JUMPDEST PUSH1 0x1 PUSH1 0x3 DUP2 GT ISZERO PUSH2 0x1F0E JUMPI PUSH2 0x1F0D PUSH2 0x330D JUMP JUMPDEST JUMPDEST DUP5 PUSH1 0x3 DUP2 GT ISZERO PUSH2 0x1F21 JUMPI PUSH2 0x1F20 PUSH2 0x330D JUMP JUMPDEST JUMPDEST EQ ISZERO PUSH2 0x1F49 JUMPI PUSH1 0x0 DUP2 PUSH1 0x0 ADD PUSH1 0x1 PUSH2 0x100 EXP DUP2 SLOAD DUP2 PUSH1 0xFF MUL NOT AND SWAP1 DUP4 ISZERO ISZERO MUL OR SWAP1 SSTORE POP PUSH2 0x1FE4 JUMP JUMPDEST PUSH1 0x2 PUSH1 0x3 DUP2 GT ISZERO PUSH2 0x1F5D JUMPI PUSH2 0x1F5C PUSH2 0x330D JUMP JUMPDEST JUMPDEST DUP5 PUSH1 0x3 DUP2 GT ISZERO PUSH2 0x1F70 JUMPI PUSH2 0x1F6F PUSH2 0x330D JUMP JUMPDEST JUMPDEST EQ ISZERO PUSH2 0x1F98 JUMPI PUSH1 0x0 DUP2 PUSH1 0x0 ADD PUSH1 0x2 PUSH2 0x100 EXP DUP2 SLOAD DUP2 PUSH1 0xFF MUL NOT AND SWAP1 DUP4 ISZERO ISZERO MUL OR SWAP1 SSTORE POP PUSH2 0x1FE3 JUMP JUMPDEST PUSH1 0x3 DUP1 DUP2 GT ISZERO PUSH2 0x1FAB JUMPI PUSH2 0x1FAA PUSH2 0x330D JUMP JUMPDEST JUMPDEST DUP5 PUSH1 0x3 DUP2 GT ISZERO PUSH2 0x1FBE JUMPI PUSH2 0x1FBD PUSH2 0x330D JUMP JUMPDEST JUMPDEST EQ ISZERO PUSH2 0x1FE2 JUMPI PUSH1 0x0 DUP2 PUSH1 0x0 ADD PUSH1 0x3 PUSH2 0x100 EXP DUP2 SLOAD DUP2 PUSH1 0xFF MUL NOT AND SWAP1 DUP4 ISZERO ISZERO MUL OR SWAP1 SSTORE POP JUMPDEST JUMPDEST JUMPDEST JUMPDEST POP POP POP POP POP JUMP JUMPDEST PUSH1 0x0 DUP1 PUSH1 0x2 PUSH1 0x0 DUP5 PUSH20 0xFFFFFFFFFFFFFFFFFFFFFFFFFFFFFFFFFFFFFFFF AND PUSH20 0xFFFFFFFFFFFFFFFFFFFFFFFFFFFFFFFFFFFFFFFF AND DUP2 MSTORE PUSH1 0x20 ADD SWAP1 DUP2 MSTORE PUSH1 0x20 ADD PUSH1 0x0 KECCAK256 PUSH1 0x40 MLOAD DUP1 PUSH1 0xC0 ADD PUSH1 0x40 MSTORE SWAP1 DUP2 PUSH1 0x0 DUP3 ADD PUSH1 0x0 SWAP1 SLOAD SWAP1 PUSH2 0x100 EXP SWAP1 DIV PUSH20 0xFFFFFFFFFFFFFFFFFFFFFFFFFFFFFFFFFFFFFFFF AND PUSH20 0xFFFFFFFFFFFFFFFFFFFFFFFFFFFFFFFFFFFFFFFF AND PUSH20 0xFFFFFFFFFFFFFFFFFFFFFFFFFFFFFFFFFFFFFFFF AND DUP2 MSTORE PUSH1 0x20 ADD PUSH1 0x1 DUP3 ADD DUP1 SLOAD PUSH2 0x209F SWAP1 PUSH2 0x30FB JUMP JUMPDEST DUP1 PUSH1 0x1F ADD PUSH1 0x20 DUP1 SWAP2 DIV MUL PUSH1 0x20 ADD PUSH1 0x40 MLOAD SWAP1 DUP2 ADD PUSH1 0x40 MSTORE DUP1 SWAP3 SWAP2 SWAP1 DUP2 DUP2 MSTORE PUSH1 0x20 ADD DUP3 DUP1 SLOAD PUSH2 0x20CB SWAP1 PUSH2 0x30FB JUMP JUMPDEST DUP1 ISZERO PUSH2 0x2118 JUMPI DUP1 PUSH1 0x1F LT PUSH2 0x20ED JUMPI PUSH2 0x100 DUP1 DUP4 SLOAD DIV MUL DUP4 MSTORE SWAP2 PUSH1 0x20 ADD SWAP2 PUSH2 0x2118 JUMP JUMPDEST DUP3 ADD SWAP2 SWAP1 PUSH1 0x0 MSTORE PUSH1 0x20 PUSH1 0x0 KECCAK256 SWAP1 JUMPDEST DUP2 SLOAD DUP2 MSTORE SWAP1 PUSH1 0x1 ADD SWAP1 PUSH1 0x20 ADD DUP1 DUP4 GT PUSH2 0x20FB JUMPI DUP3 SWAP1 SUB PUSH1 0x1F AND DUP3 ADD SWAP2 JUMPDEST POP POP POP POP POP DUP2 MSTORE PUSH1 0x20 ADD PUSH1 0x2 DUP3 ADD DUP1 SLOAD PUSH2 0x2131 SWAP1 PUSH2 0x30FB JUMP JUMPDEST DUP1 PUSH1 0x1F ADD PUSH1 0x20 DUP1 SWAP2 DIV MUL PUSH1 0x20 ADD PUSH1 0x40 MLOAD SWAP1 DUP2 ADD PUSH1 0x40 MSTORE DUP1 SWAP3 SWAP2 SWAP1 DUP2 DUP2 MSTORE PUSH1 0x20 ADD DUP3 DUP1 SLOAD PUSH2 0x215D SWAP1 PUSH2 0x30FB JUMP JUMPDEST DUP1 ISZERO PUSH2 0x21AA JUMPI DUP1 PUSH1 0x1F LT PUSH2 0x217F JUMPI PUSH2 0x100 DUP1 DUP4 SLOAD DIV MUL DUP4 MSTORE SWAP2 PUSH1 0x20 ADD SWAP2 PUSH2 0x21AA JUMP JUMPDEST DUP3 ADD SWAP2 SWAP1 PUSH1 0x0 MSTORE PUSH1 0x20 PUSH1 0x0 KECCAK256 SWAP1 JUMPDEST DUP2 SLOAD DUP2 MSTORE SWAP1 PUSH1 0x1 ADD SWAP1 PUSH1 0x20 ADD DUP1 DUP4 GT PUSH2 0x218D JUMPI DUP3 SWAP1 SUB PUSH1 0x1F AND DUP3 ADD SWAP2 JUMPDEST POP POP POP POP POP DUP2 MSTORE PUSH1 0x20 ADD PUSH1 0x3 DUP3 ADD DUP1 SLOAD PUSH2 0x21C3 SWAP1 PUSH2 0x30FB JUMP JUMPDEST DUP1 PUSH1 0x1F ADD PUSH1 0x20 DUP1 SWAP2 DIV MUL PUSH1 0x20 ADD PUSH1 0x40 MLOAD SWAP1 DUP2 ADD PUSH1 0x40 MSTORE DUP1 SWAP3 SWAP2 SWAP1 DUP2 DUP2 MSTORE PUSH1 0x20 ADD DUP3 DUP1 SLOAD PUSH2 0x21EF SWAP1 PUSH2 0x30FB JUMP JUMPDEST DUP1 ISZERO PUSH2 0x223C JUMPI DUP1 PUSH1 0x1F LT PUSH2 0x2211 JUMPI PUSH2 0x100 DUP1 DUP4 SLOAD DIV MUL DUP4 MSTORE SWAP2 PUSH1 0x20 ADD SWAP2 PUSH2 0x223C JUMP JUMPDEST DUP3 ADD SWAP2 SWAP1 PUSH1 0x0 MSTORE PUSH1 0x20 PUSH1 0x0 KECCAK256 SWAP1 JUMPDEST DUP2 SLOAD DUP2 MSTORE SWAP1 PUSH1 0x1 ADD SWAP1 PUSH1 0x20 ADD DUP1 DUP4 GT PUSH2 0x221F JUMPI DUP3 SWAP1 SUB PUSH1 0x1F AND DUP3 ADD SWAP2 JUMPDEST POP POP POP POP POP DUP2 MSTORE PUSH1 0x20 ADD PUSH1 0x4 DUP3 ADD PUSH1 0x0 SWAP1 SLOAD SWAP1 PUSH2 0x100 EXP SWAP1 DIV PUSH1 0xFF AND ISZERO ISZERO ISZERO ISZERO DUP2 MSTORE PUSH1 0x20 ADD PUSH1 0x5 DUP3 ADD PUSH1 0x40 MLOAD DUP1 PUSH1 0x80 ADD PUSH1 0x40 MSTORE SWAP1 DUP2 PUSH1 0x0 DUP3 ADD PUSH1 0x0 SWAP1 SLOAD SWAP1 PUSH2 0x100 EXP SWAP1 DIV PUSH1 0xFF AND ISZERO ISZERO ISZERO ISZERO DUP2 MSTORE PUSH1 0x20 ADD PUSH1 0x0 DUP3 ADD PUSH1 0x1 SWAP1 SLOAD SWAP1 PUSH2 0x100 EXP SWAP1 DIV PUSH1 0xFF AND ISZERO ISZERO ISZERO ISZERO DUP2 MSTORE PUSH1 0x20 ADD PUSH1 0x0 DUP3 ADD PUSH1 0x2 SWAP1 SLOAD SWAP1 PUSH2 0x100 EXP SWAP1 DIV PUSH1 0xFF AND ISZERO ISZERO ISZERO ISZERO DUP2 MSTORE PUSH1 0x20 ADD PUSH1 0x0 DUP3 ADD PUSH1 0x3 SWAP1 SLOAD SWAP1 PUSH2 0x100 EXP SWAP1 DIV PUSH1 0xFF AND ISZERO ISZERO ISZERO ISZERO DUP2 MSTORE POP POP DUP2 MSTORE POP POP SWAP1 POP PUSH1 0x0 PUSH20 0xFFFFFFFFFFFFFFFFFFFFFFFFFFFFFFFFFFFFFFFF AND DUP2 PUSH1 0x0 ADD MLOAD PUSH20 0xFFFFFFFFFFFFFFFFFFFFFFFFFFFFFFFFFFFFFFFF AND EQ PUSH2 0x2360 JUMPI DUP1 PUSH1 0x80 ADD MLOAD DUP1 ISZERO PUSH2 0x2350 JUMPI POP DUP1 PUSH1 0xA0 ADD MLOAD PUSH1 0x0 ADD MLOAD DUP1 PUSH2 0x233F JUMPI POP DUP1 PUSH1 0xA0 ADD MLOAD PUSH1 0x20 ADD MLOAD JUMPDEST DUP1 PUSH2 0x234F JUMPI POP DUP1 PUSH1 0xA0 ADD MLOAD PUSH1 0x40 ADD MLOAD JUMPDEST JUMPDEST ISZERO PUSH2 0x235F JUMPI PUSH1 0x1 SWAP2 POP POP PUSH2 0x2366 JUMP JUMPDEST JUMPDEST PUSH1 0x0 SWAP2 POP POP JUMPDEST SWAP2 SWAP1 POP JUMP JUMPDEST DUP1 PUSH1 0x0 PUSH20 0xFFFFFFFFFFFFFFFFFFFFFFFFFFFFFFFFFFFFFFFF AND PUSH1 0x2 PUSH1 0x0 DUP4 PUSH20 0xFFFFFFFFFFFFFFFFFFFFFFFFFFFFFFFFFFFFFFFF AND PUSH20 0xFFFFFFFFFFFFFFFFFFFFFFFFFFFFFFFFFFFFFFFF AND DUP2 MSTORE PUSH1 0x20 ADD SWAP1 DUP2 MSTORE PUSH1 0x20 ADD PUSH1 0x0 KECCAK256 PUSH1 0x0 ADD PUSH1 0x0 SWAP1 SLOAD SWAP1 PUSH2 0x100 EXP SWAP1 DIV PUSH20 0xFFFFFFFFFFFFFFFFFFFFFFFFFFFFFFFFFFFFFFFF AND PUSH20 0xFFFFFFFFFFFFFFFFFFFFFFFFFFFFFFFFFFFFFFFF AND EQ ISZERO PUSH2 0x243E JUMPI PUSH1 0x40 MLOAD PUSH32 0x8C379A000000000000000000000000000000000000000000000000000000000 DUP2 MSTORE PUSH1 0x4 ADD PUSH2 0x2435 SWAP1 PUSH2 0x3231 JUMP JUMPDEST PUSH1 0x40 MLOAD DUP1 SWAP2 SUB SWAP1 REVERT JUMPDEST PUSH2 0x2447 DUP3 PUSH2 0x11AD JUMP JUMPDEST PUSH1 0x2 PUSH1 0x0 DUP4 PUSH20 0xFFFFFFFFFFFFFFFFFFFFFFFFFFFFFFFFFFFFFFFF AND PUSH20 0xFFFFFFFFFFFFFFFFFFFFFFFFFFFFFFFFFFFFFFFF AND DUP2 MSTORE PUSH1 0x20 ADD SWAP1 DUP2 MSTORE PUSH1 0x20 ADD PUSH1 0x0 KECCAK256 PUSH1 0x0 DUP1 DUP3 ADD PUSH1 0x0 PUSH2 0x100 EXP DUP2 SLOAD SWAP1 PUSH20 0xFFFFFFFFFFFFFFFFFFFFFFFFFFFFFFFFFFFFFFFF MUL NOT AND SWAP1 SSTORE PUSH1 0x1 DUP3 ADD PUSH1 0x0 PUSH2 0x24BE SWAP2 SWAP1 PUSH2 0x2C50 JUMP JUMPDEST PUSH1 0x2 DUP3 ADD PUSH1 0x0 PUSH2 0x24CE SWAP2 SWAP1 PUSH2 0x2C50 JUMP JUMPDEST PUSH1 0x3 DUP3 ADD PUSH1 0x0 PUSH2 0x24DE SWAP2 SWAP1 PUSH2 0x2C50 JUMP JUMPDEST PUSH1 0x4 DUP3 ADD PUSH1 0x0 PUSH2 0x100 EXP DUP2 SLOAD SWAP1 PUSH1 0xFF MUL NOT AND SWAP1 SSTORE PUSH1 0x5 DUP3 ADD PUSH1 0x0 DUP1 DUP3 ADD PUSH1 0x0 PUSH2 0x100 EXP DUP2 SLOAD SWAP1 PUSH1 0xFF MUL NOT AND SWAP1 SSTORE PUSH1 0x0 DUP3 ADD PUSH1 0x1 PUSH2 0x100 EXP DUP2 SLOAD SWAP1 PUSH1 0xFF MUL NOT AND SWAP1 SSTORE PUSH1 0x0 DUP3 ADD PUSH1 0x2 PUSH2 0x100 EXP DUP2 SLOAD SWAP1 PUSH1 0xFF MUL NOT AND SWAP1 SSTORE PUSH1 0x0 DUP3 ADD PUSH1 0x3 PUSH2 0x100 EXP DUP2 SLOAD SWAP1 PUSH1 0xFF MUL NOT AND SWAP1 SSTORE POP POP POP POP POP POP JUMP JUMPDEST DUP4 PUSH1 0x0 PUSH20 0xFFFFFFFFFFFFFFFFFFFFFFFFFFFFFFFFFFFFFFFF AND PUSH1 0x2 PUSH1 0x0 DUP4 PUSH20 0xFFFFFFFFFFFFFFFFFFFFFFFFFFFFFFFFFFFFFFFF AND PUSH20 0xFFFFFFFFFFFFFFFFFFFFFFFFFFFFFFFFFFFFFFFF AND DUP2 MSTORE PUSH1 0x20 ADD SWAP1 DUP2 MSTORE PUSH1 0x20 ADD PUSH1 0x0 KECCAK256 PUSH1 0x0 ADD PUSH1 0x0 SWAP1 SLOAD SWAP1 PUSH2 0x100 EXP SWAP1 DIV PUSH20 0xFFFFFFFFFFFFFFFFFFFFFFFFFFFFFFFFFFFFFFFF AND PUSH20 0xFFFFFFFFFFFFFFFFFFFFFFFFFFFFFFFFFFFFFFFF AND EQ PUSH2 0x2621 JUMPI PUSH1 0x40 MLOAD PUSH32 0x8C379A000000000000000000000000000000000000000000000000000000000 DUP2 MSTORE PUSH1 0x4 ADD PUSH2 0x2618 SWAP1 PUSH2 0x3388 JUMP JUMPDEST PUSH1 0x40 MLOAD DUP1 SWAP2 SUB SWAP1 REVERT JUMPDEST PUSH1 0x0 PUSH1 0x40 MLOAD DUP1 PUSH1 0x80 ADD PUSH1 0x40 MSTORE DUP1 PUSH1 0x0 ISZERO ISZERO DUP2 MSTORE PUSH1 0x20 ADD PUSH1 0x0 ISZERO ISZERO DUP2 MSTORE PUSH1 0x20 ADD PUSH1 0x0 ISZERO ISZERO DUP2 MSTORE PUSH1 0x20 ADD PUSH1 0x1 ISZERO ISZERO DUP2 MSTORE POP SWAP1 POP PUSH1 0x0 PUSH1 0x40 MLOAD DUP1 PUSH1 0xC0 ADD PUSH1 0x40 MSTORE DUP1 DUP9 PUSH20 0xFFFFFFFFFFFFFFFFFFFFFFFFFFFFFFFFFFFFFFFF AND DUP2 MSTORE PUSH1 0x20 ADD DUP8 DUP2 MSTORE PUSH1 0x20 ADD DUP7 DUP2 MSTORE PUSH1 0x20 ADD DUP6 DUP2 MSTORE PUSH1 0x20 ADD PUSH1 0x0 ISZERO ISZERO DUP2 MSTORE PUSH1 0x20 ADD DUP4 DUP2 MSTORE POP SWAP1 POP DUP1 PUSH1 0x2 PUSH1 0x0 DUP10 PUSH20 0xFFFFFFFFFFFFFFFFFFFFFFFFFFFFFFFFFFFFFFFF AND PUSH20 0xFFFFFFFFFFFFFFFFFFFFFFFFFFFFFFFFFFFFFFFF AND DUP2 MSTORE PUSH1 0x20 ADD SWAP1 DUP2 MSTORE PUSH1 0x20 ADD PUSH1 0x0 KECCAK256 PUSH1 0x0 DUP3 ADD MLOAD DUP2 PUSH1 0x0 ADD PUSH1 0x0 PUSH2 0x100 EXP DUP2 SLOAD DUP2 PUSH20 0xFFFFFFFFFFFFFFFFFFFFFFFFFFFFFFFFFFFFFFFF MUL NOT AND SWAP1 DUP4 PUSH20 0xFFFFFFFFFFFFFFFFFFFFFFFFFFFFFFFFFFFFFFFF AND MUL OR SWAP1 SSTORE POP PUSH1 0x20 DUP3 ADD MLOAD DUP2 PUSH1 0x1 ADD SWAP1 DUP1 MLOAD SWAP1 PUSH1 0x20 ADD SWAP1 PUSH2 0x273F SWAP3 SWAP2 SWAP1 PUSH2 0x2C90 JUMP JUMPDEST POP PUSH1 0x40 DUP3 ADD MLOAD DUP2 PUSH1 0x2 ADD SWAP1 DUP1 MLOAD SWAP1 PUSH1 0x20 ADD SWAP1 PUSH2 0x275C SWAP3 SWAP2 SWAP1 PUSH2 0x2C90 JUMP JUMPDEST POP PUSH1 0x60 DUP3 ADD MLOAD DUP2 PUSH1 0x3 ADD SWAP1 DUP1 MLOAD SWAP1 PUSH1 0x20 ADD SWAP1 PUSH2 0x2779 SWAP3 SWAP2 SWAP1 PUSH2 0x2C90 JUMP JUMPDEST POP PUSH1 0x80 DUP3 ADD MLOAD DUP2 PUSH1 0x4 ADD PUSH1 0x0 PUSH2 0x100 EXP DUP2 SLOAD DUP2 PUSH1 0xFF MUL NOT AND SWAP1 DUP4 ISZERO ISZERO MUL OR SWAP1 SSTORE POP PUSH1 0xA0 DUP3 ADD MLOAD DUP2 PUSH1 0x5 ADD PUSH1 0x0 DUP3 ADD MLOAD DUP2 PUSH1 0x0 ADD PUSH1 0x0 PUSH2 0x100 EXP DUP2 SLOAD DUP2 PUSH1 0xFF MUL NOT AND SWAP1 DUP4 ISZERO ISZERO MUL OR SWAP1 SSTORE POP PUSH1 0x20 DUP3 ADD MLOAD DUP2 PUSH1 0x0 ADD PUSH1 0x1 PUSH2 0x100 EXP DUP2 SLOAD DUP2 PUSH1 0xFF MUL NOT AND SWAP1 DUP4 ISZERO ISZERO MUL OR SWAP1 SSTORE POP PUSH1 0x40 DUP3 ADD MLOAD DUP2 PUSH1 0x0 ADD PUSH1 0x2 PUSH2 0x100 EXP DUP2 SLOAD DUP2 PUSH1 0xFF MUL NOT AND SWAP1 DUP4 ISZERO ISZERO MUL OR SWAP1 SSTORE POP PUSH1 0x60 DUP3 ADD MLOAD DUP2 PUSH1 0x0 ADD PUSH1 0x3 PUSH2 0x100 EXP DUP2 SLOAD DUP2 PUSH1 0xFF MUL NOT AND SWAP1 DUP4 ISZERO ISZERO MUL OR SWAP1 SSTORE POP POP POP SWAP1 POP POP POP POP POP POP POP POP POP JUMP JUMPDEST PUSH1 0x0 PUSH2 0x283E DUP3 PUSH1 0x3 PUSH2 0x2859 JUMP JUMPDEST SWAP1 POP SWAP2 SWAP1 POP JUMP JUMPDEST PUSH1 0x0 PUSH2 0x2852 DUP3 PUSH1 0x1 PUSH2 0x2859 JUMP JUMPDEST SWAP1 POP SWAP2 SWAP1 POP JUMP JUMPDEST PUSH1 0x0 DUP1 PUSH1 0x2 PUSH1 0x0 DUP6 PUSH20 0xFFFFFFFFFFFFFFFFFFFFFFFFFFFFFFFFFFFFFFFF AND PUSH20 0xFFFFFFFFFFFFFFFFFFFFFFFFFFFFFFFFFFFFFFFF AND DUP2 MSTORE PUSH1 0x20 ADD SWAP1 DUP2 MSTORE PUSH1 0x20 ADD PUSH1 0x0 KECCAK256 PUSH1 0x40 MLOAD DUP1 PUSH1 0xC0 ADD PUSH1 0x40 MSTORE SWAP1 DUP2 PUSH1 0x0 DUP3 ADD PUSH1 0x0 SWAP1 SLOAD SWAP1 PUSH2 0x100 EXP SWAP1 DIV PUSH20 0xFFFFFFFFFFFFFFFFFFFFFFFFFFFFFFFFFFFFFFFF AND PUSH20 0xFFFFFFFFFFFFFFFFFFFFFFFFFFFFFFFFFFFFFFFF AND PUSH20 0xFFFFFFFFFFFFFFFFFFFFFFFFFFFFFFFFFFFFFFFF AND DUP2 MSTORE PUSH1 0x20 ADD PUSH1 0x1 DUP3 ADD DUP1 SLOAD PUSH2 0x290C SWAP1 PUSH2 0x30FB JUMP JUMPDEST DUP1 PUSH1 0x1F ADD PUSH1 0x20 DUP1 SWAP2 DIV MUL PUSH1 0x20 ADD PUSH1 0x40 MLOAD SWAP1 DUP2 ADD PUSH1 0x40 MSTORE DUP1 SWAP3 SWAP2 SWAP1 DUP2 DUP2 MSTORE PUSH1 0x20 ADD DUP3 DUP1 SLOAD PUSH2 0x2938 SWAP1 PUSH2 0x30FB JUMP JUMPDEST DUP1 ISZERO PUSH2 0x2985 JUMPI DUP1 PUSH1 0x1F LT PUSH2 0x295A JUMPI PUSH2 0x100 DUP1 DUP4 SLOAD DIV MUL DUP4 MSTORE SWAP2 PUSH1 0x20 ADD SWAP2 PUSH2 0x2985 JUMP JUMPDEST DUP3 ADD SWAP2 SWAP1 PUSH1 0x0 MSTORE PUSH1 0x20 PUSH1 0x0 KECCAK256 SWAP1 JUMPDEST DUP2 SLOAD DUP2 MSTORE SWAP1 PUSH1 0x1 ADD SWAP1 PUSH1 0x20 ADD DUP1 DUP4 GT PUSH2 0x2968 JUMPI DUP3 SWAP1 SUB PUSH1 0x1F AND DUP3 ADD SWAP2 JUMPDEST POP POP POP POP POP DUP2 MSTORE PUSH1 0x20 ADD PUSH1 0x2 DUP3 ADD DUP1 SLOAD PUSH2 0x299E SWAP1 PUSH2 0x30FB JUMP JUMPDEST DUP1 PUSH1 0x1F ADD PUSH1 0x20 DUP1 SWAP2 DIV MUL PUSH1 0x20 ADD PUSH1 0x40 MLOAD SWAP1 DUP2 ADD PUSH1 0x40 MSTORE DUP1 SWAP3 SWAP2 SWAP1 DUP2 DUP2 MSTORE PUSH1 0x20 ADD DUP3 DUP1 SLOAD PUSH2 0x29CA SWAP1 PUSH2 0x30FB JUMP JUMPDEST DUP1 ISZERO PUSH2 0x2A17 JUMPI DUP1 PUSH1 0x1F LT PUSH2 0x29EC JUMPI PUSH2 0x100 DUP1 DUP4 SLOAD DIV MUL DUP4 MSTORE SWAP2 PUSH1 0x20 ADD SWAP2 PUSH2 0x2A17 JUMP JUMPDEST DUP3 ADD SWAP2 SWAP1 PUSH1 0x0 MSTORE PUSH1 0x20 PUSH1 0x0 KECCAK256 SWAP1 JUMPDEST DUP2 SLOAD DUP2 MSTORE SWAP1 PUSH1 0x1 ADD SWAP1 PUSH1 0x20 ADD DUP1 DUP4 GT PUSH2 0x29FA JUMPI DUP3 SWAP1 SUB PUSH1 0x1F AND DUP3 ADD SWAP2 JUMPDEST POP POP POP POP POP DUP2 MSTORE PUSH1 0x20 ADD PUSH1 0x3 DUP3 ADD DUP1 SLOAD PUSH2 0x2A30 SWAP1 PUSH2 0x30FB JUMP JUMPDEST DUP1 PUSH1 0x1F ADD PUSH1 0x20 DUP1 SWAP2 DIV MUL PUSH1 0x20 ADD PUSH1 0x40 MLOAD SWAP1 DUP2 ADD PUSH1 0x40 MSTORE DUP1 SWAP3 SWAP2 SWAP1 DUP2 DUP2 MSTORE PUSH1 0x20 ADD DUP3 DUP1 SLOAD PUSH2 0x2A5C SWAP1 PUSH2 0x30FB JUMP JUMPDEST DUP1 ISZERO PUSH2 0x2AA9 JUMPI DUP1 PUSH1 0x1F LT PUSH2 0x2A7E JUMPI PUSH2 0x100 DUP1 DUP4 SLOAD DIV MUL DUP4 MSTORE SWAP2 PUSH1 0x20 ADD SWAP2 PUSH2 0x2AA9 JUMP JUMPDEST DUP3 ADD SWAP2 SWAP1 PUSH1 0x0 MSTORE PUSH1 0x20 PUSH1 0x0 KECCAK256 SWAP1 JUMPDEST DUP2 SLOAD DUP2 MSTORE SWAP1 PUSH1 0x1 ADD SWAP1 PUSH1 0x20 ADD DUP1 DUP4 GT PUSH2 0x2A8C JUMPI DUP3 SWAP1 SUB PUSH1 0x1F AND DUP3 ADD SWAP2 JUMPDEST POP POP POP POP POP DUP2 MSTORE PUSH1 0x20 ADD PUSH1 0x4 DUP3 ADD PUSH1 0x0 SWAP1 SLOAD SWAP1 PUSH2 0x100 EXP SWAP1 DIV PUSH1 0xFF AND ISZERO ISZERO ISZERO ISZERO DUP2 MSTORE PUSH1 0x20 ADD PUSH1 0x5 DUP3 ADD PUSH1 0x40 MLOAD DUP1 PUSH1 0x80 ADD PUSH1 0x40 MSTORE SWAP1 DUP2 PUSH1 0x0 DUP3 ADD PUSH1 0x0 SWAP1 SLOAD SWAP1 PUSH2 0x100 EXP SWAP1 DIV PUSH1 0xFF AND ISZERO ISZERO ISZERO ISZERO DUP2 MSTORE PUSH1 0x20 ADD PUSH1 0x0 DUP3 ADD PUSH1 0x1 SWAP1 SLOAD SWAP1 PUSH2 0x100 EXP SWAP1 DIV PUSH1 0xFF AND ISZERO ISZERO ISZERO ISZERO DUP2 MSTORE PUSH1 0x20 ADD PUSH1 0x0 DUP3 ADD PUSH1 0x2 SWAP1 SLOAD SWAP1 PUSH2 0x100 EXP SWAP1 DIV PUSH1 0xFF AND ISZERO ISZERO ISZERO ISZERO DUP2 MSTORE PUSH1 0x20 ADD PUSH1 0x0 DUP3 ADD PUSH1 0x3 SWAP1 SLOAD SWAP1 PUSH2 0x100 EXP SWAP1 DIV PUSH1 0xFF AND ISZERO ISZERO ISZERO ISZERO DUP2 MSTORE POP POP DUP2 MSTORE POP POP SWAP1 POP PUSH1 0x0 DUP2 PUSH1 0xA0 ADD MLOAD SWAP1 POP PUSH1 0x0 PUSH1 0x3 DUP2 GT ISZERO PUSH2 0x2B6C JUMPI PUSH2 0x2B6B PUSH2 0x330D JUMP JUMPDEST JUMPDEST DUP5 PUSH1 0x3 DUP2 GT ISZERO PUSH2 0x2B7F JUMPI PUSH2 0x2B7E PUSH2 0x330D JUMP JUMPDEST JUMPDEST EQ ISZERO PUSH2 0x2B93 JUMPI DUP1 PUSH1 0x0 ADD MLOAD SWAP3 POP POP POP PUSH2 0x2C4A JUMP JUMPDEST PUSH1 0x1 PUSH1 0x3 DUP2 GT ISZERO PUSH2 0x2BA7 JUMPI PUSH2 0x2BA6 PUSH2 0x330D JUMP JUMPDEST JUMPDEST DUP5 PUSH1 0x3 DUP2 GT ISZERO PUSH2 0x2BBA JUMPI PUSH2 0x2BB9 PUSH2 0x330D JUMP JUMPDEST JUMPDEST EQ ISZERO PUSH2 0x2BCE JUMPI DUP1 PUSH1 0x20 ADD MLOAD SWAP3 POP POP POP PUSH2 0x2C4A JUMP JUMPDEST PUSH1 0x2 PUSH1 0x3 DUP2 GT ISZERO PUSH2 0x2BE2 JUMPI PUSH2 0x2BE1 PUSH2 0x330D JUMP JUMPDEST JUMPDEST DUP5 PUSH1 0x3 DUP2 GT ISZERO PUSH2 0x2BF5 JUMPI PUSH2 0x2BF4 PUSH2 0x330D JUMP JUMPDEST JUMPDEST EQ ISZERO PUSH2 0x2C09 JUMPI DUP1 PUSH1 0x40 ADD MLOAD SWAP3 POP POP POP PUSH2 0x2C4A JUMP JUMPDEST PUSH1 0x3 DUP1 DUP2 GT ISZERO PUSH2 0x2C1C JUMPI PUSH2 0x2C1B PUSH2 0x330D JUMP JUMPDEST JUMPDEST DUP5 PUSH1 0x3 DUP2 GT ISZERO PUSH2 0x2C2F JUMPI PUSH2 0x2C2E PUSH2 0x330D JUMP JUMPDEST JUMPDEST EQ ISZERO PUSH2 0x2C43 JUMPI DUP1 PUSH1 0x60 ADD MLOAD SWAP3 POP POP POP PUSH2 0x2C4A JUMP JUMPDEST PUSH1 0x0 SWAP3 POP POP POP JUMPDEST SWAP3 SWAP2 POP POP JUMP JUMPDEST POP DUP1 SLOAD PUSH2 0x2C5C SWAP1 PUSH2 0x30FB JUMP JUMPDEST PUSH1 0x0 DUP3 SSTORE DUP1 PUSH1 0x1F LT PUSH2 0x2C6E JUMPI POP PUSH2 0x2C8D JUMP JUMPDEST PUSH1 0x1F ADD PUSH1 0x20 SWAP1 DIV SWAP1 PUSH1 0x0 MSTORE PUSH1 0x20 PUSH1 0x0 KECCAK256 SWAP1 DUP2 ADD SWAP1 PUSH2 0x2C8C SWAP2 SWAP1 PUSH2 0x2D16 JUMP JUMPDEST JUMPDEST POP JUMP JUMPDEST DUP3 DUP1 SLOAD PUSH2 0x2C9C SWAP1 PUSH2 0x30FB JUMP JUMPDEST SWAP1 PUSH1 0x0 MSTORE PUSH1 0x20 PUSH1 0x0 KECCAK256 SWAP1 PUSH1 0x1F ADD PUSH1 0x20 SWAP1 DIV DUP2 ADD SWAP3 DUP3 PUSH2 0x2CBE JUMPI PUSH1 0x0 DUP6 SSTORE PUSH2 0x2D05 JUMP JUMPDEST DUP3 PUSH1 0x1F LT PUSH2 0x2CD7 JUMPI DUP1 MLOAD PUSH1 0xFF NOT AND DUP4 DUP1 ADD OR DUP6 SSTORE PUSH2 0x2D05 JUMP JUMPDEST DUP3 DUP1 ADD PUSH1 0x1 ADD DUP6 SSTORE DUP3 ISZERO PUSH2 0x2D05 JUMPI SWAP2 DUP3 ADD JUMPDEST DUP3 DUP2 GT ISZERO PUSH2 0x2D04 JUMPI DUP3 MLOAD DUP3 SSTORE SWAP2 PUSH1 0x20 ADD SWAP2 SWAP1 PUSH1 0x1 ADD SWAP1 PUSH2 0x2CE9 JUMP JUMPDEST JUMPDEST POP SWAP1 POP PUSH2 0x2D12 SWAP2 SWAP1 PUSH2 0x2D16 JUMP JUMPDEST POP SWAP1 JUMP JUMPDEST JUMPDEST DUP1 DUP3 GT ISZERO PUSH2 0x2D2F JUMPI PUSH1 0x0 DUP2 PUSH1 0x0 SWAP1 SSTORE POP PUSH1 0x1 ADD PUSH2 0x2D17 JUMP JUMPDEST POP SWAP1 JUMP JUMPDEST PUSH1 0x0 PUSH1 0x40 MLOAD SWAP1 POP SWAP1 JUMP JUMPDEST PUSH1 0x0 DUP1 REVERT JUMPDEST PUSH1 0x0 DUP1 REVERT JUMPDEST PUSH1 0x0 PUSH20 0xFFFFFFFFFFFFFFFFFFFFFFFFFFFFFFFFFFFFFFFF DUP3 AND SWAP1 POP SWAP2 SWAP1 POP JUMP JUMPDEST PUSH1 0x0 PUSH2 0x2D72 DUP3 PUSH2 0x2D47 JUMP JUMPDEST SWAP1 POP SWAP2 SWAP1 POP JUMP JUMPDEST PUSH2 0x2D82 DUP2 PUSH2 0x2D67 JUMP JUMPDEST DUP2 EQ PUSH2 0x2D8D JUMPI PUSH1 0x0 DUP1 REVERT JUMPDEST POP JUMP JUMPDEST PUSH1 0x0 DUP2 CALLDATALOAD SWAP1 POP PUSH2 0x2D9F DUP2 PUSH2 0x2D79 JUMP JUMPDEST SWAP3 SWAP2 POP POP JUMP JUMPDEST PUSH1 0x0 PUSH1 0x20 DUP3 DUP5 SUB SLT ISZERO PUSH2 0x2DBB JUMPI PUSH2 0x2DBA PUSH2 0x2D3D JUMP JUMPDEST JUMPDEST PUSH1 0x0 PUSH2 0x2DC9 DUP5 DUP3 DUP6 ADD PUSH2 0x2D90 JUMP JUMPDEST SWAP2 POP POP SWAP3 SWAP2 POP POP JUMP JUMPDEST PUSH1 0x0 DUP2 ISZERO ISZERO SWAP1 POP SWAP2 SWAP1 POP JUMP JUMPDEST PUSH2 0x2DE7 DUP2 PUSH2 0x2DD2 JUMP JUMPDEST DUP3 MSTORE POP POP JUMP JUMPDEST PUSH1 0x0 PUSH1 0x20 DUP3 ADD SWAP1 POP PUSH2 0x2E02 PUSH1 0x0 DUP4 ADD DUP5 PUSH2 0x2DDE JUMP JUMPDEST SWAP3 SWAP2 POP POP JUMP JUMPDEST PUSH1 0x0 DUP2 SWAP1 POP SWAP2 SWAP1 POP JUMP JUMPDEST PUSH2 0x2E1B DUP2 PUSH2 0x2E08 JUMP JUMPDEST DUP3 MSTORE POP POP JUMP JUMPDEST PUSH1 0x0 PUSH1 0x20 DUP3 ADD SWAP1 POP PUSH2 0x2E36 PUSH1 0x0 DUP4 ADD DUP5 PUSH2 0x2E12 JUMP JUMPDEST SWAP3 SWAP2 POP POP JUMP JUMPDEST PUSH1 0x4 DUP2 LT PUSH2 0x2E49 JUMPI PUSH1 0x0 DUP1 REVERT JUMPDEST POP JUMP JUMPDEST PUSH1 0x0 DUP2 CALLDATALOAD SWAP1 POP PUSH2 0x2E5B DUP2 PUSH2 0x2E3C JUMP JUMPDEST SWAP3 SWAP2 POP POP JUMP JUMPDEST PUSH1 0x0 DUP1 PUSH1 0x40 DUP4 DUP6 SUB SLT ISZERO PUSH2 0x2E78 JUMPI PUSH2 0x2E77 PUSH2 0x2D3D JUMP JUMPDEST JUMPDEST PUSH1 0x0 PUSH2 0x2E86 DUP6 DUP3 DUP7 ADD PUSH2 0x2D90 JUMP JUMPDEST SWAP3 POP POP PUSH1 0x20 PUSH2 0x2E97 DUP6 DUP3 DUP7 ADD PUSH2 0x2E4C JUMP JUMPDEST SWAP2 POP POP SWAP3 POP SWAP3 SWAP1 POP JUMP JUMPDEST PUSH2 0x2EAA DUP2 PUSH2 0x2D67 JUMP JUMPDEST DUP3 MSTORE POP POP JUMP JUMPDEST PUSH1 0x0 PUSH1 0x20 DUP3 ADD SWAP1 POP PUSH2 0x2EC5 PUSH1 0x0 DUP4 ADD DUP5 PUSH2 0x2EA1 JUMP JUMPDEST SWAP3 SWAP2 POP POP JUMP JUMPDEST PUSH1 0x0 DUP1 REVERT JUMPDEST PUSH1 0x0 DUP1 REVERT JUMPDEST PUSH1 0x0 PUSH1 0x1F NOT PUSH1 0x1F DUP4 ADD AND SWAP1 POP SWAP2 SWAP1 POP JUMP JUMPDEST PUSH32 0x4E487B7100000000000000000000000000000000000000000000000000000000 PUSH1 0x0 MSTORE PUSH1 0x41 PUSH1 0x4 MSTORE PUSH1 0x24 PUSH1 0x0 REVERT JUMPDEST PUSH2 0x2F1E DUP3 PUSH2 0x2ED5 JUMP JUMPDEST DUP2 ADD DUP2 DUP2 LT PUSH8 0xFFFFFFFFFFFFFFFF DUP3 GT OR ISZERO PUSH2 0x2F3D JUMPI PUSH2 0x2F3C PUSH2 0x2EE6 JUMP JUMPDEST JUMPDEST DUP1 PUSH1 0x40 MSTORE POP POP POP JUMP JUMPDEST PUSH1 0x0 PUSH2 0x2F50 PUSH2 0x2D33 JUMP JUMPDEST SWAP1 POP PUSH2 0x2F5C DUP3 DUP3 PUSH2 0x2F15 JUMP JUMPDEST SWAP2 SWAP1 POP JUMP JUMPDEST PUSH1 0x0 PUSH8 0xFFFFFFFFFFFFFFFF DUP3 GT ISZERO PUSH2 0x2F7C JUMPI PUSH2 0x2F7B PUSH2 0x2EE6 JUMP JUMPDEST JUMPDEST PUSH2 0x2F85 DUP3 PUSH2 0x2ED5 JUMP JUMPDEST SWAP1 POP PUSH1 0x20 DUP2 ADD SWAP1 POP SWAP2 SWAP1 POP JUMP JUMPDEST DUP3 DUP2 DUP4 CALLDATACOPY PUSH1 0x0 DUP4 DUP4 ADD MSTORE POP POP POP JUMP JUMPDEST PUSH1 0x0 PUSH2 0x2FB4 PUSH2 0x2FAF DUP5 PUSH2 0x2F61 JUMP JUMPDEST PUSH2 0x2F46 JUMP JUMPDEST SWAP1 POP DUP3 DUP2 MSTORE PUSH1 0x20 DUP2 ADD DUP5 DUP5 DUP5 ADD GT ISZERO PUSH2 0x2FD0 JUMPI PUSH2 0x2FCF PUSH2 0x2ED0 JUMP JUMPDEST JUMPDEST PUSH2 0x2FDB DUP5 DUP3 DUP6 PUSH2 0x2F92 JUMP JUMPDEST POP SWAP4 SWAP3 POP POP POP JUMP JUMPDEST PUSH1 0x0 DUP3 PUSH1 0x1F DUP4 ADD SLT PUSH2 0x2FF8 JUMPI PUSH2 0x2FF7 PUSH2 0x2ECB JUMP JUMPDEST JUMPDEST DUP2 CALLDATALOAD PUSH2 0x3008 DUP5 DUP3 PUSH1 0x20 DUP7 ADD PUSH2 0x2FA1 JUMP JUMPDEST SWAP2 POP POP SWAP3 SWAP2 POP POP JUMP JUMPDEST PUSH1 0x0 DUP1 PUSH1 0x0 DUP1 PUSH1 0x80 DUP6 DUP8 SUB SLT ISZERO PUSH2 0x302B JUMPI PUSH2 0x302A PUSH2 0x2D3D JUMP JUMPDEST JUMPDEST PUSH1 0x0 PUSH2 0x3039 DUP8 DUP3 DUP9 ADD PUSH2 0x2D90 JUMP JUMPDEST SWAP5 POP POP PUSH1 0x20 DUP6 ADD CALLDATALOAD PUSH8 0xFFFFFFFFFFFFFFFF DUP2 GT ISZERO PUSH2 0x305A JUMPI PUSH2 0x3059 PUSH2 0x2D42 JUMP JUMPDEST JUMPDEST PUSH2 0x3066 DUP8 DUP3 DUP9 ADD PUSH2 0x2FE3 JUMP JUMPDEST SWAP4 POP POP PUSH1 0x40 DUP6 ADD CALLDATALOAD PUSH8 0xFFFFFFFFFFFFFFFF DUP2 GT ISZERO PUSH2 0x3087 JUMPI PUSH2 0x3086 PUSH2 0x2D42 JUMP JUMPDEST JUMPDEST PUSH2 0x3093 DUP8 DUP3 DUP9 ADD PUSH2 0x2FE3 JUMP JUMPDEST SWAP3 POP POP PUSH1 0x60 DUP6 ADD CALLDATALOAD PUSH8 0xFFFFFFFFFFFFFFFF DUP2 GT ISZERO PUSH2 0x30B4 JUMPI PUSH2 0x30B3 PUSH2 0x2D42 JUMP JUMPDEST JUMPDEST PUSH2 0x30C0 DUP8 DUP3 DUP9 ADD PUSH2 0x2FE3 JUMP JUMPDEST SWAP2 POP POP SWAP3 SWAP6 SWAP2 SWAP5 POP SWAP3 POP JUMP JUMPDEST PUSH32 0x4E487B7100000000000000000000000000000000000000000000000000000000 PUSH1 0x0 MSTORE PUSH1 0x22 PUSH1 0x4 MSTORE PUSH1 0x24 PUSH1 0x0 REVERT JUMPDEST PUSH1 0x0 PUSH1 0x2 DUP3 DIV SWAP1 POP PUSH1 0x1 DUP3 AND DUP1 PUSH2 0x3113 JUMPI PUSH1 0x7F DUP3 AND SWAP2 POP JUMPDEST PUSH1 0x20 DUP3 LT DUP2 EQ ISZERO PUSH2 0x3127 JUMPI PUSH2 0x3126 PUSH2 0x30CC JUMP JUMPDEST JUMPDEST POP SWAP2 SWAP1 POP JUMP JUMPDEST PUSH32 0x4E487B7100000000000000000000000000000000000000000000000000000000 PUSH1 0x0 MSTORE PUSH1 0x32 PUSH1 0x4 MSTORE PUSH1 0x24 PUSH1 0x0 REVERT JUMPDEST PUSH32 0x4E487B7100000000000000000000000000000000000000000000000000000000 PUSH1 0x0 MSTORE PUSH1 0x11 PUSH1 0x4 MSTORE PUSH1 0x24 PUSH1 0x0 REVERT JUMPDEST PUSH1 0x0 PUSH2 0x3196 DUP3 PUSH2 0x2E08 JUMP JUMPDEST SWAP2 POP PUSH32 0xFFFFFFFFFFFFFFFFFFFFFFFFFFFFFFFFFFFFFFFFFFFFFFFFFFFFFFFFFFFFFFFF DUP3 EQ ISZERO PUSH2 0x31C9 JUMPI PUSH2 0x31C8 PUSH2 0x315C JUMP JUMPDEST JUMPDEST PUSH1 0x1 DUP3 ADD SWAP1 POP SWAP2 SWAP1 POP JUMP JUMPDEST PUSH1 0x0 DUP3 DUP3 MSTORE PUSH1 0x20 DUP3 ADD SWAP1 POP SWAP3 SWAP2 POP POP JUMP JUMPDEST PUSH32 0x4163636F756E7420646F65736E27742065786973740000000000000000000000 PUSH1 0x0 DUP3 ADD MSTORE POP JUMP JUMPDEST PUSH1 0x0 PUSH2 0x321B PUSH1 0x15 DUP4 PUSH2 0x31D4 JUMP JUMPDEST SWAP2 POP PUSH2 0x3226 DUP3 PUSH2 0x31E5 JUMP JUMPDEST PUSH1 0x20 DUP3 ADD SWAP1 POP SWAP2 SWAP1 POP JUMP JUMPDEST PUSH1 0x0 PUSH1 0x20 DUP3 ADD SWAP1 POP DUP2 DUP2 SUB PUSH1 0x0 DUP4 ADD MSTORE PUSH2 0x324A DUP2 PUSH2 0x320E JUMP JUMPDEST SWAP1 POP SWAP2 SWAP1 POP JUMP JUMPDEST PUSH1 0x0 PUSH2 0x325C DUP3 PUSH2 0x2E08 JUMP JUMPDEST SWAP2 POP PUSH1 0x0 DUP3 EQ ISZERO PUSH2 0x3270 JUMPI PUSH2 0x326F PUSH2 0x315C JUMP JUMPDEST JUMPDEST PUSH1 0x1 DUP3 SUB SWAP1 POP SWAP2 SWAP1 POP JUMP JUMPDEST PUSH32 0x4F6E6C79206F776E65722063616E2063616C6C20746869732066756E6374696F PUSH1 0x0 DUP3 ADD MSTORE PUSH32 0x6E2E000000000000000000000000000000000000000000000000000000000000 PUSH1 0x20 DUP3 ADD MSTORE POP JUMP JUMPDEST PUSH1 0x0 PUSH2 0x32D7 PUSH1 0x22 DUP4 PUSH2 0x31D4 JUMP JUMPDEST SWAP2 POP PUSH2 0x32E2 DUP3 PUSH2 0x327B JUMP JUMPDEST PUSH1 0x40 DUP3 ADD SWAP1 POP SWAP2 SWAP1 POP JUMP JUMPDEST PUSH1 0x0 PUSH1 0x20 DUP3 ADD SWAP1 POP DUP2 DUP2 SUB PUSH1 0x0 DUP4 ADD MSTORE PUSH2 0x3306 DUP2 PUSH2 0x32CA JUMP JUMPDEST SWAP1 POP SWAP2 SWAP1 POP JUMP JUMPDEST PUSH32 0x4E487B7100000000000000000000000000000000000000000000000000000000 PUSH1 0x0 MSTORE PUSH1 0x21 PUSH1 0x4 MSTORE PUSH1 0x24 PUSH1 0x0 REVERT JUMPDEST PUSH32 0x4163636F756E7420616C72656164792065786973747300000000000000000000 PUSH1 0x0 DUP3 ADD MSTORE POP JUMP JUMPDEST PUSH1 0x0 PUSH2 0x3372 PUSH1 0x16 DUP4 PUSH2 0x31D4 JUMP JUMPDEST SWAP2 POP PUSH2 0x337D DUP3 PUSH2 0x333C JUMP JUMPDEST PUSH1 0x20 DUP3 ADD SWAP1 POP SWAP2 SWAP1 POP JUMP JUMPDEST PUSH1 0x0 PUSH1 0x20 DUP3 ADD SWAP1 POP DUP2 DUP2 SUB PUSH1 0x0 DUP4 ADD MSTORE PUSH2 0x33A1 DUP2 PUSH2 0x3365 JUMP JUMPDEST SWAP1 POP SWAP2 SWAP1 POP JUMP INVALID LOG2 PUSH5 0x6970667358 0x22 SLT KECCAK256 0xE2 NUMBER NUMBER CODECOPY NUMBER 0xD5 PUSH5 0xC522174E53 LOG3 SWAP6 0xD3 NOT 0xB2 0xB7 0xC9 0xDE 0xCC 0xAF DUP1 PUSH13 0x8AF7C81D8DDCE67264736F6C63 NUMBER STOP ADDMOD 0xC STOP CALLER "
				},
				"gasEstimates": {
					"creation": {
						"codeDepositCost": "2655600",
						"executionCost": "infinite",
						"totalCost": "infinite"
					},
					"external": {
						"activeMemberCount()": "2496",
						"assignRole(address,uint8)": "infinite",
						"burnAccount(address)": "infinite",
						"createAccount(address,string,string,string)": "infinite",
						"getActiveMemberCount()": "2505",
						"hasCouncilMemberRole(address)": "infinite",
						"hasGuestRole(address)": "infinite",
						"hasLeaderRole(address)": "infinite",
						"hasMemberRole(address)": "infinite",
						"hasRightToCreateReferendum(address)": "infinite",
						"hasRightToSupport(address)": "infinite",
						"hasRightToVote(address)": "infinite",
						"makeAccountActive(address)": "87109",
						"makeAccountPassive(address)": "78114",
						"owner()": "2559",
						"removeRole(address,uint8)": "infinite",
						"testAccountManagement()": "infinite"
					},
					"internal": {
						"assignCouncilMember(address)": "infinite",
						"assignGuest(address)": "infinite",
						"assignLeader(address)": "infinite",
						"assignMember(address)": "infinite",
						"hasRole(address,enum AccountManagement.Role)": "infinite",
						"removeCouncilMember(address)": "infinite",
						"removeGuest(address)": "infinite",
						"removeLeader(address)": "infinite",
						"removeMember(address)": "infinite"
					}
				},
				"methodIdentifiers": {
					"activeMemberCount()": "5fb6c6ed",
					"assignRole(address,uint8)": "630a195b",
					"burnAccount(address)": "d3a5059a",
					"createAccount(address,string,string,string)": "dee94b4a",
					"getActiveMemberCount()": "22faa41f",
					"hasCouncilMemberRole(address)": "fa4d7aae",
					"hasGuestRole(address)": "e8621e59",
					"hasLeaderRole(address)": "297027d5",
					"hasMemberRole(address)": "056909b7",
					"hasRightToCreateReferendum(address)": "01eb0857",
					"hasRightToSupport(address)": "c2b7d948",
					"hasRightToVote(address)": "65c93769",
					"makeAccountActive(address)": "a1aea04a",
					"makeAccountPassive(address)": "49587281",
					"owner()": "8da5cb5b",
					"removeRole(address,uint8)": "b74866fb",
					"testAccountManagement()": "247ae7a3"
				}
			},
			"storageLayout": {
				"storage": [
					{
						"astId": 47,
						"contract": "OnDemo/contracts/AccountManagement.sol:AccountManagement",
						"label": "activeMemberCount",
						"offset": 0,
						"slot": "0",
						"type": "t_uint256"
					},
					{
						"astId": 49,
						"contract": "OnDemo/contracts/AccountManagement.sol:AccountManagement",
						"label": "owner",
						"offset": 0,
						"slot": "1",
						"type": "t_address"
					},
					{
						"astId": 54,
						"contract": "OnDemo/contracts/AccountManagement.sol:AccountManagement",
						"label": "users",
						"offset": 0,
						"slot": "2",
						"type": "t_mapping(t_address,t_struct(User)20_storage)"
					},
					{
						"astId": 58,
						"contract": "OnDemo/contracts/AccountManagement.sol:AccountManagement",
						"label": "activeMembers",
						"offset": 0,
						"slot": "3",
						"type": "t_mapping(t_address,t_bool)"
					}
				],
				"types": {
					"t_address": {
						"encoding": "inplace",
						"label": "address",
						"numberOfBytes": "20"
					},
					"t_bool": {
						"encoding": "inplace",
						"label": "bool",
						"numberOfBytes": "1"
					},
					"t_mapping(t_address,t_bool)": {
						"encoding": "mapping",
						"key": "t_address",
						"label": "mapping(address => bool)",
						"numberOfBytes": "32",
						"value": "t_bool"
					},
					"t_mapping(t_address,t_struct(User)20_storage)": {
						"encoding": "mapping",
						"key": "t_address",
						"label": "mapping(address => struct AccountManagement.User)",
						"numberOfBytes": "32",
						"value": "t_struct(User)20_storage"
					},
					"t_string_storage": {
						"encoding": "bytes",
						"label": "string",
						"numberOfBytes": "32"
					},
					"t_struct(RoleMap)29_storage": {
						"encoding": "inplace",
						"label": "struct AccountManagement.RoleMap",
						"members": [
							{
								"astId": 22,
								"contract": "OnDemo/contracts/AccountManagement.sol:AccountManagement",
								"label": "isLeader",
								"offset": 0,
								"slot": "0",
								"type": "t_bool"
							},
							{
								"astId": 24,
								"contract": "OnDemo/contracts/AccountManagement.sol:AccountManagement",
								"label": "isCouncilMember",
								"offset": 1,
								"slot": "0",
								"type": "t_bool"
							},
							{
								"astId": 26,
								"contract": "OnDemo/contracts/AccountManagement.sol:AccountManagement",
								"label": "isMember",
								"offset": 2,
								"slot": "0",
								"type": "t_bool"
							},
							{
								"astId": 28,
								"contract": "OnDemo/contracts/AccountManagement.sol:AccountManagement",
								"label": "isGuest",
								"offset": 3,
								"slot": "0",
								"type": "t_bool"
							}
						],
						"numberOfBytes": "32"
					},
					"t_struct(User)20_storage": {
						"encoding": "inplace",
						"label": "struct AccountManagement.User",
						"members": [
							{
								"astId": 8,
								"contract": "OnDemo/contracts/AccountManagement.sol:AccountManagement",
								"label": "userAddress",
								"offset": 0,
								"slot": "0",
								"type": "t_address"
							},
							{
								"astId": 10,
								"contract": "OnDemo/contracts/AccountManagement.sol:AccountManagement",
								"label": "firstName",
								"offset": 0,
								"slot": "1",
								"type": "t_string_storage"
							},
							{
								"astId": 12,
								"contract": "OnDemo/contracts/AccountManagement.sol:AccountManagement",
								"label": "secondName",
								"offset": 0,
								"slot": "2",
								"type": "t_string_storage"
							},
							{
								"astId": 14,
								"contract": "OnDemo/contracts/AccountManagement.sol:AccountManagement",
								"label": "mailAdress",
								"offset": 0,
								"slot": "3",
								"type": "t_string_storage"
							},
							{
								"astId": 16,
								"contract": "OnDemo/contracts/AccountManagement.sol:AccountManagement",
								"label": "isActive",
								"offset": 0,
								"slot": "4",
								"type": "t_bool"
							},
							{
								"astId": 19,
								"contract": "OnDemo/contracts/AccountManagement.sol:AccountManagement",
								"label": "roleMap",
								"offset": 0,
								"slot": "5",
								"type": "t_struct(RoleMap)29_storage"
							}
						],
						"numberOfBytes": "192"
					},
					"t_uint256": {
						"encoding": "inplace",
						"label": "uint256",
						"numberOfBytes": "32"
					}
				}
			},
			"userdoc": {
				"kind": "user",
				"methods": {},
				"version": 1
			}
		}
	}
}