{
	"OnDemo/contracts/Roles.sol": {
		"RoleAssignment": {
			"abi": [
				{
					"inputs": [],
					"stateMutability": "nonpayable",
					"type": "constructor"
				},
				{
					"inputs": [
						{
							"internalType": "address",
							"name": "_user",
							"type": "address"
						}
					],
					"name": "assignAdmin",
					"outputs": [],
					"stateMutability": "nonpayable",
					"type": "function"
				},
				{
					"inputs": [
						{
							"internalType": "address",
							"name": "_user",
							"type": "address"
						}
					],
					"name": "assignCouncilMember",
					"outputs": [],
					"stateMutability": "nonpayable",
					"type": "function"
				},
				{
					"inputs": [
						{
							"internalType": "address",
							"name": "_user",
							"type": "address"
						}
					],
					"name": "assignGuest",
					"outputs": [],
					"stateMutability": "nonpayable",
					"type": "function"
				},
				{
					"inputs": [
						{
							"internalType": "address",
							"name": "_user",
							"type": "address"
						}
					],
					"name": "assignMember",
					"outputs": [],
					"stateMutability": "nonpayable",
					"type": "function"
				},
				{
					"inputs": [
						{
							"internalType": "address",
							"name": "_user",
							"type": "address"
						}
					],
					"name": "hasAdminRole",
					"outputs": [
						{
							"internalType": "bool",
							"name": "",
							"type": "bool"
						}
					],
					"stateMutability": "view",
					"type": "function"
				},
				{
					"inputs": [
						{
							"internalType": "address",
							"name": "_user",
							"type": "address"
						}
					],
					"name": "hasCouncilMemberRole",
					"outputs": [
						{
							"internalType": "bool",
							"name": "",
							"type": "bool"
						}
					],
					"stateMutability": "view",
					"type": "function"
				},
				{
					"inputs": [
						{
							"internalType": "address",
							"name": "_user",
							"type": "address"
						}
					],
					"name": "hasGuestRole",
					"outputs": [
						{
							"internalType": "bool",
							"name": "",
							"type": "bool"
						}
					],
					"stateMutability": "view",
					"type": "function"
				},
				{
					"inputs": [
						{
							"internalType": "address",
							"name": "_user",
							"type": "address"
						}
					],
					"name": "hasMemberRole",
					"outputs": [
						{
							"internalType": "bool",
							"name": "",
							"type": "bool"
						}
					],
					"stateMutability": "view",
					"type": "function"
				},
				{
					"inputs": [
						{
							"internalType": "address",
							"name": "",
							"type": "address"
						}
					],
					"name": "isAdmin",
					"outputs": [
						{
							"internalType": "bool",
							"name": "",
							"type": "bool"
						}
					],
					"stateMutability": "view",
					"type": "function"
				},
				{
					"inputs": [
						{
							"internalType": "address",
							"name": "",
							"type": "address"
						}
					],
					"name": "isCouncilMember",
					"outputs": [
						{
							"internalType": "bool",
							"name": "",
							"type": "bool"
						}
					],
					"stateMutability": "view",
					"type": "function"
				},
				{
					"inputs": [
						{
							"internalType": "address",
							"name": "",
							"type": "address"
						}
					],
					"name": "isGuest",
					"outputs": [
						{
							"internalType": "bool",
							"name": "",
							"type": "bool"
						}
					],
					"stateMutability": "view",
					"type": "function"
				},
				{
					"inputs": [
						{
							"internalType": "address",
							"name": "",
							"type": "address"
						}
					],
					"name": "isMember",
					"outputs": [
						{
							"internalType": "bool",
							"name": "",
							"type": "bool"
						}
					],
					"stateMutability": "view",
					"type": "function"
				},
				{
					"inputs": [],
					"name": "owner",
					"outputs": [
						{
							"internalType": "address",
							"name": "",
							"type": "address"
						}
					],
					"stateMutability": "view",
					"type": "function"
				},
				{
					"inputs": [
						{
							"internalType": "address",
							"name": "_user",
							"type": "address"
						}
					],
					"name": "removeRole",
					"outputs": [],
					"stateMutability": "nonpayable",
					"type": "function"
				}
			],
			"devdoc": {
				"kind": "dev",
				"methods": {},
				"version": 1
			},
			"evm": {
				"assembly": "    /* \"OnDemo/contracts/Roles.sol\":27:2388  contract RoleAssignment {\r... */\n  mstore(0x40, 0x80)\n    /* \"OnDemo/contracts/Roles.sol\":409:492  constructor() {\r... */\n  callvalue\n  dup1\n  iszero\n  tag_1\n  jumpi\n  0x00\n  dup1\n  revert\ntag_1:\n  pop\n    /* \"OnDemo/contracts/Roles.sol\":442:452  msg.sender */\n  caller\n    /* \"OnDemo/contracts/Roles.sol\":434:439  owner */\n  0x00\n  dup1\n    /* \"OnDemo/contracts/Roles.sol\":434:452  owner = msg.sender */\n  0x0100\n  exp\n  dup2\n  sload\n  dup2\n  0xffffffffffffffffffffffffffffffffffffffff\n  mul\n  not\n  and\n  swap1\n  dup4\n  0xffffffffffffffffffffffffffffffffffffffff\n  and\n  mul\n  or\n  swap1\n  sstore\n  pop\n    /* \"OnDemo/contracts/Roles.sol\":480:484  true */\n  0x01\n    /* \"OnDemo/contracts/Roles.sol\":463:470  isAdmin */\n  dup1\n    /* \"OnDemo/contracts/Roles.sol\":463:477  isAdmin[owner] */\n  0x00\n    /* \"OnDemo/contracts/Roles.sol\":471:476  owner */\n  dup1\n  0x00\n  swap1\n  sload\n  swap1\n  0x0100\n  exp\n  swap1\n  div\n  0xffffffffffffffffffffffffffffffffffffffff\n  and\n    /* \"OnDemo/contracts/Roles.sol\":463:477  isAdmin[owner] */\n  0xffffffffffffffffffffffffffffffffffffffff\n  and\n  0xffffffffffffffffffffffffffffffffffffffff\n  and\n  dup2\n  mstore\n  0x20\n  add\n  swap1\n  dup2\n  mstore\n  0x20\n  add\n  0x00\n  keccak256\n  0x00\n    /* \"OnDemo/contracts/Roles.sol\":463:484  isAdmin[owner] = true */\n  0x0100\n  exp\n  dup2\n  sload\n  dup2\n  0xff\n  mul\n  not\n  and\n  swap1\n  dup4\n  iszero\n  iszero\n  mul\n  or\n  swap1\n  sstore\n  pop\n    /* \"OnDemo/contracts/Roles.sol\":27:2388  contract RoleAssignment {\r... */\n  dataSize(sub_0)\n  dup1\n  dataOffset(sub_0)\n  0x00\n  codecopy\n  0x00\n  return\nstop\n\nsub_0: assembly {\n        /* \"OnDemo/contracts/Roles.sol\":27:2388  contract RoleAssignment {\r... */\n      mstore(0x40, 0x80)\n      callvalue\n      dup1\n      iszero\n      tag_1\n      jumpi\n      0x00\n      dup1\n      revert\n    tag_1:\n      pop\n      jumpi(tag_2, lt(calldatasize, 0x04))\n      shr(0xe0, calldataload(0x00))\n      dup1\n      0xa230c524\n      gt\n      tag_17\n      jumpi\n      dup1\n      0xe8621e59\n      gt\n      tag_18\n      jumpi\n      dup1\n      0xe8621e59\n      eq\n      tag_13\n      jumpi\n      dup1\n      0xebd7dc52\n      eq\n      tag_14\n      jumpi\n      dup1\n      0xfa4d7aae\n      eq\n      tag_15\n      jumpi\n      dup1\n      0xfce7789f\n      eq\n      tag_16\n      jumpi\n      jump(tag_2)\n    tag_18:\n      dup1\n      0xa230c524\n      eq\n      tag_10\n      jumpi\n      dup1\n      0xa9a96ab6\n      eq\n      tag_11\n      jumpi\n      dup1\n      0xc395fcb3\n      eq\n      tag_12\n      jumpi\n      jump(tag_2)\n    tag_17:\n      dup1\n      0x3da7d2ed\n      gt\n      tag_19\n      jumpi\n      dup1\n      0x3da7d2ed\n      eq\n      tag_6\n      jumpi\n      dup1\n      0x4762155d\n      eq\n      tag_7\n      jumpi\n      dup1\n      0x6329b13f\n      eq\n      tag_8\n      jumpi\n      dup1\n      0x8da5cb5b\n      eq\n      tag_9\n      jumpi\n      jump(tag_2)\n    tag_19:\n      dup1\n      0x056909b7\n      eq\n      tag_3\n      jumpi\n      dup1\n      0x24d7806c\n      eq\n      tag_4\n      jumpi\n      dup1\n      0x297ed882\n      eq\n      tag_5\n      jumpi\n    tag_2:\n      0x00\n      dup1\n      revert\n        /* \"OnDemo/contracts/Roles.sol\":2163:2269  function hasMemberRole(address _user) public view returns (bool) {\r... */\n    tag_3:\n      tag_20\n      0x04\n      dup1\n      calldatasize\n      sub\n      dup2\n      add\n      swap1\n      tag_21\n      swap2\n      swap1\n      tag_22\n      jump\t// in\n    tag_21:\n      tag_23\n      jump\t// in\n    tag_20:\n      mload(0x40)\n      tag_24\n      swap2\n      swap1\n      tag_25\n      jump\t// in\n    tag_24:\n      mload(0x40)\n      dup1\n      swap2\n      sub\n      swap1\n      return\n        /* \"OnDemo/contracts/Roles.sol\":85:124  mapping(address => bool) public isAdmin */\n    tag_4:\n      tag_26\n      0x04\n      dup1\n      calldatasize\n      sub\n      dup2\n      add\n      swap1\n      tag_27\n      swap2\n      swap1\n      tag_22\n      jump\t// in\n    tag_27:\n      tag_28\n      jump\t// in\n    tag_26:\n      mload(0x40)\n      tag_29\n      swap2\n      swap1\n      tag_25\n      jump\t// in\n    tag_29:\n      mload(0x40)\n      dup1\n      swap2\n      sub\n      swap1\n      return\n        /* \"OnDemo/contracts/Roles.sol\":1692:1794  function assignGuest(address _user) public onlyAdmin {\r... */\n    tag_5:\n      tag_30\n      0x04\n      dup1\n      calldatasize\n      sub\n      dup2\n      add\n      swap1\n      tag_31\n      swap2\n      swap1\n      tag_22\n      jump\t// in\n    tag_31:\n      tag_32\n      jump\t// in\n    tag_30:\n      stop\n        /* \"OnDemo/contracts/Roles.sol\":1336:1438  function assignAdmin(address _user) public onlyAdmin {\r... */\n    tag_6:\n      tag_33\n      0x04\n      dup1\n      calldatasize\n      sub\n      dup2\n      add\n      swap1\n      tag_34\n      swap2\n      swap1\n      tag_22\n      jump\t// in\n    tag_34:\n      tag_35\n      jump\t// in\n    tag_33:\n      stop\n        /* \"OnDemo/contracts/Roles.sol\":1806:1907  function removeRole(address _user) public onlyAdmin {\r... */\n    tag_7:\n      tag_36\n      0x04\n      dup1\n      calldatasize\n      sub\n      dup2\n      add\n      swap1\n      tag_37\n      swap2\n      swap1\n      tag_22\n      jump\t// in\n    tag_37:\n      tag_38\n      jump\t// in\n    tag_36:\n      stop\n        /* \"OnDemo/contracts/Roles.sol\":1576:1680  function assignMember(address _user) public onlyAdmin {\r... */\n    tag_8:\n      tag_39\n      0x04\n      dup1\n      calldatasize\n      sub\n      dup2\n      add\n      swap1\n      tag_40\n      swap2\n      swap1\n      tag_22\n      jump\t// in\n    tag_40:\n      tag_41\n      jump\t// in\n    tag_39:\n      stop\n        /* \"OnDemo/contracts/Roles.sol\":58:78  address public owner */\n    tag_9:\n      tag_42\n      tag_43\n      jump\t// in\n    tag_42:\n      mload(0x40)\n      tag_44\n      swap2\n      swap1\n      tag_45\n      jump\t// in\n    tag_44:\n      mload(0x40)\n      dup1\n      swap2\n      sub\n      swap1\n      return\n        /* \"OnDemo/contracts/Roles.sol\":185:225  mapping(address => bool) public isMember */\n    tag_10:\n      tag_46\n      0x04\n      dup1\n      calldatasize\n      sub\n      dup2\n      add\n      swap1\n      tag_47\n      swap2\n      swap1\n      tag_22\n      jump\t// in\n    tag_47:\n      tag_48\n      jump\t// in\n    tag_46:\n      mload(0x40)\n      tag_49\n      swap2\n      swap1\n      tag_25\n      jump\t// in\n    tag_49:\n      mload(0x40)\n      dup1\n      swap2\n      sub\n      swap1\n      return\n        /* \"OnDemo/contracts/Roles.sol\":232:271  mapping(address => bool) public isGuest */\n    tag_11:\n      tag_50\n      0x04\n      dup1\n      calldatasize\n      sub\n      dup2\n      add\n      swap1\n      tag_51\n      swap2\n      swap1\n      tag_22\n      jump\t// in\n    tag_51:\n      tag_52\n      jump\t// in\n    tag_50:\n      mload(0x40)\n      tag_53\n      swap2\n      swap1\n      tag_25\n      jump\t// in\n    tag_53:\n      mload(0x40)\n      dup1\n      swap2\n      sub\n      swap1\n      return\n        /* \"OnDemo/contracts/Roles.sol\":1919:2023  function hasAdminRole(address _user) public view returns (bool) {\r... */\n    tag_12:\n      tag_54\n      0x04\n      dup1\n      calldatasize\n      sub\n      dup2\n      add\n      swap1\n      tag_55\n      swap2\n      swap1\n      tag_22\n      jump\t// in\n    tag_55:\n      tag_56\n      jump\t// in\n    tag_54:\n      mload(0x40)\n      tag_57\n      swap2\n      swap1\n      tag_25\n      jump\t// in\n    tag_57:\n      mload(0x40)\n      dup1\n      swap2\n      sub\n      swap1\n      return\n        /* \"OnDemo/contracts/Roles.sol\":2281:2385  function hasGuestRole(address _user) public view returns (bool) {\r... */\n    tag_13:\n      tag_58\n      0x04\n      dup1\n      calldatasize\n      sub\n      dup2\n      add\n      swap1\n      tag_59\n      swap2\n      swap1\n      tag_22\n      jump\t// in\n    tag_59:\n      tag_60\n      jump\t// in\n    tag_58:\n      mload(0x40)\n      tag_61\n      swap2\n      swap1\n      tag_25\n      jump\t// in\n    tag_61:\n      mload(0x40)\n      dup1\n      swap2\n      sub\n      swap1\n      return\n        /* \"OnDemo/contracts/Roles.sol\":131:178  mapping(address => bool) public isCouncilMember */\n    tag_14:\n      tag_62\n      0x04\n      dup1\n      calldatasize\n      sub\n      dup2\n      add\n      swap1\n      tag_63\n      swap2\n      swap1\n      tag_22\n      jump\t// in\n    tag_63:\n      tag_64\n      jump\t// in\n    tag_62:\n      mload(0x40)\n      tag_65\n      swap2\n      swap1\n      tag_25\n      jump\t// in\n    tag_65:\n      mload(0x40)\n      dup1\n      swap2\n      sub\n      swap1\n      return\n        /* \"OnDemo/contracts/Roles.sol\":2031:2151  function hasCouncilMemberRole(address _user) public view returns (bool) {\r... */\n    tag_15:\n      tag_66\n      0x04\n      dup1\n      calldatasize\n      sub\n      dup2\n      add\n      swap1\n      tag_67\n      swap2\n      swap1\n      tag_22\n      jump\t// in\n    tag_67:\n      tag_68\n      jump\t// in\n    tag_66:\n      mload(0x40)\n      tag_69\n      swap2\n      swap1\n      tag_25\n      jump\t// in\n    tag_69:\n      mload(0x40)\n      dup1\n      swap2\n      sub\n      swap1\n      return\n        /* \"OnDemo/contracts/Roles.sol\":1450:1568  function assignCouncilMember(address _user) public onlyAdmin {\r... */\n    tag_16:\n      tag_70\n      0x04\n      dup1\n      calldatasize\n      sub\n      dup2\n      add\n      swap1\n      tag_71\n      swap2\n      swap1\n      tag_22\n      jump\t// in\n    tag_71:\n      tag_72\n      jump\t// in\n    tag_70:\n      stop\n        /* \"OnDemo/contracts/Roles.sol\":2163:2269  function hasMemberRole(address _user) public view returns (bool) {\r... */\n    tag_23:\n        /* \"OnDemo/contracts/Roles.sol\":2222:2226  bool */\n      0x00\n        /* \"OnDemo/contracts/Roles.sol\":2246:2254  isMember */\n      0x03\n        /* \"OnDemo/contracts/Roles.sol\":2246:2261  isMember[_user] */\n      0x00\n        /* \"OnDemo/contracts/Roles.sol\":2255:2260  _user */\n      dup4\n        /* \"OnDemo/contracts/Roles.sol\":2246:2261  isMember[_user] */\n      0xffffffffffffffffffffffffffffffffffffffff\n      and\n      0xffffffffffffffffffffffffffffffffffffffff\n      and\n      dup2\n      mstore\n      0x20\n      add\n      swap1\n      dup2\n      mstore\n      0x20\n      add\n      0x00\n      keccak256\n      0x00\n      swap1\n      sload\n      swap1\n      0x0100\n      exp\n      swap1\n      div\n      0xff\n      and\n        /* \"OnDemo/contracts/Roles.sol\":2239:2261  return isMember[_user] */\n      swap1\n      pop\n        /* \"OnDemo/contracts/Roles.sol\":2163:2269  function hasMemberRole(address _user) public view returns (bool) {\r... */\n      swap2\n      swap1\n      pop\n      jump\t// out\n        /* \"OnDemo/contracts/Roles.sol\":85:124  mapping(address => bool) public isAdmin */\n    tag_28:\n      mstore(0x20, 0x01)\n      dup1\n      0x00\n      mstore\n      keccak256(0x00, 0x40)\n      0x00\n      swap2\n      pop\n      sload\n      swap1\n      0x0100\n      exp\n      swap1\n      div\n      0xff\n      and\n      dup2\n      jump\t// out\n        /* \"OnDemo/contracts/Roles.sol\":1692:1794  function assignGuest(address _user) public onlyAdmin {\r... */\n    tag_32:\n        /* \"OnDemo/contracts/Roles.sol\":684:689  owner */\n      0x00\n      dup1\n      sload\n      swap1\n      0x0100\n      exp\n      swap1\n      div\n      0xffffffffffffffffffffffffffffffffffffffff\n      and\n        /* \"OnDemo/contracts/Roles.sol\":670:689  msg.sender == owner */\n      0xffffffffffffffffffffffffffffffffffffffff\n      and\n        /* \"OnDemo/contracts/Roles.sol\":670:680  msg.sender */\n      caller\n        /* \"OnDemo/contracts/Roles.sol\":670:689  msg.sender == owner */\n      0xffffffffffffffffffffffffffffffffffffffff\n      and\n      eq\n        /* \"OnDemo/contracts/Roles.sol\":670:717  msg.sender == owner || hasAdminRole(msg.sender) */\n      dup1\n      tag_75\n      jumpi\n      pop\n        /* \"OnDemo/contracts/Roles.sol\":693:717  hasAdminRole(msg.sender) */\n      tag_76\n        /* \"OnDemo/contracts/Roles.sol\":706:716  msg.sender */\n      caller\n        /* \"OnDemo/contracts/Roles.sol\":693:705  hasAdminRole */\n      tag_56\n        /* \"OnDemo/contracts/Roles.sol\":693:717  hasAdminRole(msg.sender) */\n      jump\t// in\n    tag_76:\n        /* \"OnDemo/contracts/Roles.sol\":670:717  msg.sender == owner || hasAdminRole(msg.sender) */\n    tag_75:\n        /* \"OnDemo/contracts/Roles.sol\":662:756  require(msg.sender == owner || hasAdminRole(msg.sender), \"Only owner can call this function.\") */\n      tag_77\n      jumpi\n      mload(0x40)\n      0x08c379a000000000000000000000000000000000000000000000000000000000\n      dup2\n      mstore\n      0x04\n      add\n      tag_78\n      swap1\n      tag_79\n      jump\t// in\n    tag_78:\n      mload(0x40)\n      dup1\n      swap2\n      sub\n      swap1\n      revert\n    tag_77:\n        /* \"OnDemo/contracts/Roles.sol\":1756:1786  assignRole(Roles.GUEST, _user) */\n      tag_81\n        /* \"OnDemo/contracts/Roles.sol\":1767:1778  Roles.GUEST */\n      0x03\n        /* \"OnDemo/contracts/Roles.sol\":1780:1785  _user */\n      dup3\n        /* \"OnDemo/contracts/Roles.sol\":1756:1766  assignRole */\n      tag_82\n        /* \"OnDemo/contracts/Roles.sol\":1756:1786  assignRole(Roles.GUEST, _user) */\n      jump\t// in\n    tag_81:\n        /* \"OnDemo/contracts/Roles.sol\":1692:1794  function assignGuest(address _user) public onlyAdmin {\r... */\n      pop\n      jump\t// out\n        /* \"OnDemo/contracts/Roles.sol\":1336:1438  function assignAdmin(address _user) public onlyAdmin {\r... */\n    tag_35:\n        /* \"OnDemo/contracts/Roles.sol\":684:689  owner */\n      0x00\n      dup1\n      sload\n      swap1\n      0x0100\n      exp\n      swap1\n      div\n      0xffffffffffffffffffffffffffffffffffffffff\n      and\n        /* \"OnDemo/contracts/Roles.sol\":670:689  msg.sender == owner */\n      0xffffffffffffffffffffffffffffffffffffffff\n      and\n        /* \"OnDemo/contracts/Roles.sol\":670:680  msg.sender */\n      caller\n        /* \"OnDemo/contracts/Roles.sol\":670:689  msg.sender == owner */\n      0xffffffffffffffffffffffffffffffffffffffff\n      and\n      eq\n        /* \"OnDemo/contracts/Roles.sol\":670:717  msg.sender == owner || hasAdminRole(msg.sender) */\n      dup1\n      tag_84\n      jumpi\n      pop\n        /* \"OnDemo/contracts/Roles.sol\":693:717  hasAdminRole(msg.sender) */\n      tag_85\n        /* \"OnDemo/contracts/Roles.sol\":706:716  msg.sender */\n      caller\n        /* \"OnDemo/contracts/Roles.sol\":693:705  hasAdminRole */\n      tag_56\n        /* \"OnDemo/contracts/Roles.sol\":693:717  hasAdminRole(msg.sender) */\n      jump\t// in\n    tag_85:\n        /* \"OnDemo/contracts/Roles.sol\":670:717  msg.sender == owner || hasAdminRole(msg.sender) */\n    tag_84:\n        /* \"OnDemo/contracts/Roles.sol\":662:756  require(msg.sender == owner || hasAdminRole(msg.sender), \"Only owner can call this function.\") */\n      tag_86\n      jumpi\n      mload(0x40)\n      0x08c379a000000000000000000000000000000000000000000000000000000000\n      dup2\n      mstore\n      0x04\n      add\n      tag_87\n      swap1\n      tag_79\n      jump\t// in\n    tag_87:\n      mload(0x40)\n      dup1\n      swap2\n      sub\n      swap1\n      revert\n    tag_86:\n        /* \"OnDemo/contracts/Roles.sol\":1400:1430  assignRole(Roles.ADMIN, _user) */\n      tag_89\n        /* \"OnDemo/contracts/Roles.sol\":1411:1422  Roles.ADMIN */\n      0x00\n        /* \"OnDemo/contracts/Roles.sol\":1424:1429  _user */\n      dup3\n        /* \"OnDemo/contracts/Roles.sol\":1400:1410  assignRole */\n      tag_82\n        /* \"OnDemo/contracts/Roles.sol\":1400:1430  assignRole(Roles.ADMIN, _user) */\n      jump\t// in\n    tag_89:\n        /* \"OnDemo/contracts/Roles.sol\":1336:1438  function assignAdmin(address _user) public onlyAdmin {\r... */\n      pop\n      jump\t// out\n        /* \"OnDemo/contracts/Roles.sol\":1806:1907  function removeRole(address _user) public onlyAdmin {\r... */\n    tag_38:\n        /* \"OnDemo/contracts/Roles.sol\":684:689  owner */\n      0x00\n      dup1\n      sload\n      swap1\n      0x0100\n      exp\n      swap1\n      div\n      0xffffffffffffffffffffffffffffffffffffffff\n      and\n        /* \"OnDemo/contracts/Roles.sol\":670:689  msg.sender == owner */\n      0xffffffffffffffffffffffffffffffffffffffff\n      and\n        /* \"OnDemo/contracts/Roles.sol\":670:680  msg.sender */\n      caller\n        /* \"OnDemo/contracts/Roles.sol\":670:689  msg.sender == owner */\n      0xffffffffffffffffffffffffffffffffffffffff\n      and\n      eq\n        /* \"OnDemo/contracts/Roles.sol\":670:717  msg.sender == owner || hasAdminRole(msg.sender) */\n      dup1\n      tag_91\n      jumpi\n      pop\n        /* \"OnDemo/contracts/Roles.sol\":693:717  hasAdminRole(msg.sender) */\n      tag_92\n        /* \"OnDemo/contracts/Roles.sol\":706:716  msg.sender */\n      caller\n        /* \"OnDemo/contracts/Roles.sol\":693:705  hasAdminRole */\n      tag_56\n        /* \"OnDemo/contracts/Roles.sol\":693:717  hasAdminRole(msg.sender) */\n      jump\t// in\n    tag_92:\n        /* \"OnDemo/contracts/Roles.sol\":670:717  msg.sender == owner || hasAdminRole(msg.sender) */\n    tag_91:\n        /* \"OnDemo/contracts/Roles.sol\":662:756  require(msg.sender == owner || hasAdminRole(msg.sender), \"Only owner can call this function.\") */\n      tag_93\n      jumpi\n      mload(0x40)\n      0x08c379a000000000000000000000000000000000000000000000000000000000\n      dup2\n      mstore\n      0x04\n      add\n      tag_94\n      swap1\n      tag_79\n      jump\t// in\n    tag_94:\n      mload(0x40)\n      dup1\n      swap2\n      sub\n      swap1\n      revert\n    tag_93:\n        /* \"OnDemo/contracts/Roles.sol\":1869:1899  assignRole(Roles.GUEST, _user) */\n      tag_96\n        /* \"OnDemo/contracts/Roles.sol\":1880:1891  Roles.GUEST */\n      0x03\n        /* \"OnDemo/contracts/Roles.sol\":1893:1898  _user */\n      dup3\n        /* \"OnDemo/contracts/Roles.sol\":1869:1879  assignRole */\n      tag_82\n        /* \"OnDemo/contracts/Roles.sol\":1869:1899  assignRole(Roles.GUEST, _user) */\n      jump\t// in\n    tag_96:\n        /* \"OnDemo/contracts/Roles.sol\":1806:1907  function removeRole(address _user) public onlyAdmin {\r... */\n      pop\n      jump\t// out\n        /* \"OnDemo/contracts/Roles.sol\":1576:1680  function assignMember(address _user) public onlyAdmin {\r... */\n    tag_41:\n        /* \"OnDemo/contracts/Roles.sol\":684:689  owner */\n      0x00\n      dup1\n      sload\n      swap1\n      0x0100\n      exp\n      swap1\n      div\n      0xffffffffffffffffffffffffffffffffffffffff\n      and\n        /* \"OnDemo/contracts/Roles.sol\":670:689  msg.sender == owner */\n      0xffffffffffffffffffffffffffffffffffffffff\n      and\n        /* \"OnDemo/contracts/Roles.sol\":670:680  msg.sender */\n      caller\n        /* \"OnDemo/contracts/Roles.sol\":670:689  msg.sender == owner */\n      0xffffffffffffffffffffffffffffffffffffffff\n      and\n      eq\n        /* \"OnDemo/contracts/Roles.sol\":670:717  msg.sender == owner || hasAdminRole(msg.sender) */\n      dup1\n      tag_98\n      jumpi\n      pop\n        /* \"OnDemo/contracts/Roles.sol\":693:717  hasAdminRole(msg.sender) */\n      tag_99\n        /* \"OnDemo/contracts/Roles.sol\":706:716  msg.sender */\n      caller\n        /* \"OnDemo/contracts/Roles.sol\":693:705  hasAdminRole */\n      tag_56\n        /* \"OnDemo/contracts/Roles.sol\":693:717  hasAdminRole(msg.sender) */\n      jump\t// in\n    tag_99:\n        /* \"OnDemo/contracts/Roles.sol\":670:717  msg.sender == owner || hasAdminRole(msg.sender) */\n    tag_98:\n        /* \"OnDemo/contracts/Roles.sol\":662:756  require(msg.sender == owner || hasAdminRole(msg.sender), \"Only owner can call this function.\") */\n      tag_100\n      jumpi\n      mload(0x40)\n      0x08c379a000000000000000000000000000000000000000000000000000000000\n      dup2\n      mstore\n      0x04\n      add\n      tag_101\n      swap1\n      tag_79\n      jump\t// in\n    tag_101:\n      mload(0x40)\n      dup1\n      swap2\n      sub\n      swap1\n      revert\n    tag_100:\n        /* \"OnDemo/contracts/Roles.sol\":1641:1672  assignRole(Roles.MEMBER, _user) */\n      tag_103\n        /* \"OnDemo/contracts/Roles.sol\":1652:1664  Roles.MEMBER */\n      0x02\n        /* \"OnDemo/contracts/Roles.sol\":1666:1671  _user */\n      dup3\n        /* \"OnDemo/contracts/Roles.sol\":1641:1651  assignRole */\n      tag_82\n        /* \"OnDemo/contracts/Roles.sol\":1641:1672  assignRole(Roles.MEMBER, _user) */\n      jump\t// in\n    tag_103:\n        /* \"OnDemo/contracts/Roles.sol\":1576:1680  function assignMember(address _user) public onlyAdmin {\r... */\n      pop\n      jump\t// out\n        /* \"OnDemo/contracts/Roles.sol\":58:78  address public owner */\n    tag_43:\n      0x00\n      dup1\n      sload\n      swap1\n      0x0100\n      exp\n      swap1\n      div\n      0xffffffffffffffffffffffffffffffffffffffff\n      and\n      dup2\n      jump\t// out\n        /* \"OnDemo/contracts/Roles.sol\":185:225  mapping(address => bool) public isMember */\n    tag_48:\n      mstore(0x20, 0x03)\n      dup1\n      0x00\n      mstore\n      keccak256(0x00, 0x40)\n      0x00\n      swap2\n      pop\n      sload\n      swap1\n      0x0100\n      exp\n      swap1\n      div\n      0xff\n      and\n      dup2\n      jump\t// out\n        /* \"OnDemo/contracts/Roles.sol\":232:271  mapping(address => bool) public isGuest */\n    tag_52:\n      mstore(0x20, 0x04)\n      dup1\n      0x00\n      mstore\n      keccak256(0x00, 0x40)\n      0x00\n      swap2\n      pop\n      sload\n      swap1\n      0x0100\n      exp\n      swap1\n      div\n      0xff\n      and\n      dup2\n      jump\t// out\n        /* \"OnDemo/contracts/Roles.sol\":1919:2023  function hasAdminRole(address _user) public view returns (bool) {\r... */\n    tag_56:\n        /* \"OnDemo/contracts/Roles.sol\":1977:1981  bool */\n      0x00\n        /* \"OnDemo/contracts/Roles.sol\":2001:2008  isAdmin */\n      0x01\n        /* \"OnDemo/contracts/Roles.sol\":2001:2015  isAdmin[_user] */\n      0x00\n        /* \"OnDemo/contracts/Roles.sol\":2009:2014  _user */\n      dup4\n        /* \"OnDemo/contracts/Roles.sol\":2001:2015  isAdmin[_user] */\n      0xffffffffffffffffffffffffffffffffffffffff\n      and\n      0xffffffffffffffffffffffffffffffffffffffff\n      and\n      dup2\n      mstore\n      0x20\n      add\n      swap1\n      dup2\n      mstore\n      0x20\n      add\n      0x00\n      keccak256\n      0x00\n      swap1\n      sload\n      swap1\n      0x0100\n      exp\n      swap1\n      div\n      0xff\n      and\n        /* \"OnDemo/contracts/Roles.sol\":1994:2015  return isAdmin[_user] */\n      swap1\n      pop\n        /* \"OnDemo/contracts/Roles.sol\":1919:2023  function hasAdminRole(address _user) public view returns (bool) {\r... */\n      swap2\n      swap1\n      pop\n      jump\t// out\n        /* \"OnDemo/contracts/Roles.sol\":2281:2385  function hasGuestRole(address _user) public view returns (bool) {\r... */\n    tag_60:\n        /* \"OnDemo/contracts/Roles.sol\":2339:2343  bool */\n      0x00\n        /* \"OnDemo/contracts/Roles.sol\":2363:2370  isGuest */\n      0x04\n        /* \"OnDemo/contracts/Roles.sol\":2363:2377  isGuest[_user] */\n      0x00\n        /* \"OnDemo/contracts/Roles.sol\":2371:2376  _user */\n      dup4\n        /* \"OnDemo/contracts/Roles.sol\":2363:2377  isGuest[_user] */\n      0xffffffffffffffffffffffffffffffffffffffff\n      and\n      0xffffffffffffffffffffffffffffffffffffffff\n      and\n      dup2\n      mstore\n      0x20\n      add\n      swap1\n      dup2\n      mstore\n      0x20\n      add\n      0x00\n      keccak256\n      0x00\n      swap1\n      sload\n      swap1\n      0x0100\n      exp\n      swap1\n      div\n      0xff\n      and\n        /* \"OnDemo/contracts/Roles.sol\":2356:2377  return isGuest[_user] */\n      swap1\n      pop\n        /* \"OnDemo/contracts/Roles.sol\":2281:2385  function hasGuestRole(address _user) public view returns (bool) {\r... */\n      swap2\n      swap1\n      pop\n      jump\t// out\n        /* \"OnDemo/contracts/Roles.sol\":131:178  mapping(address => bool) public isCouncilMember */\n    tag_64:\n      mstore(0x20, 0x02)\n      dup1\n      0x00\n      mstore\n      keccak256(0x00, 0x40)\n      0x00\n      swap2\n      pop\n      sload\n      swap1\n      0x0100\n      exp\n      swap1\n      div\n      0xff\n      and\n      dup2\n      jump\t// out\n        /* \"OnDemo/contracts/Roles.sol\":2031:2151  function hasCouncilMemberRole(address _user) public view returns (bool) {\r... */\n    tag_68:\n        /* \"OnDemo/contracts/Roles.sol\":2097:2101  bool */\n      0x00\n        /* \"OnDemo/contracts/Roles.sol\":2121:2136  isCouncilMember */\n      0x02\n        /* \"OnDemo/contracts/Roles.sol\":2121:2143  isCouncilMember[_user] */\n      0x00\n        /* \"OnDemo/contracts/Roles.sol\":2137:2142  _user */\n      dup4\n        /* \"OnDemo/contracts/Roles.sol\":2121:2143  isCouncilMember[_user] */\n      0xffffffffffffffffffffffffffffffffffffffff\n      and\n      0xffffffffffffffffffffffffffffffffffffffff\n      and\n      dup2\n      mstore\n      0x20\n      add\n      swap1\n      dup2\n      mstore\n      0x20\n      add\n      0x00\n      keccak256\n      0x00\n      swap1\n      sload\n      swap1\n      0x0100\n      exp\n      swap1\n      div\n      0xff\n      and\n        /* \"OnDemo/contracts/Roles.sol\":2114:2143  return isCouncilMember[_user] */\n      swap1\n      pop\n        /* \"OnDemo/contracts/Roles.sol\":2031:2151  function hasCouncilMemberRole(address _user) public view returns (bool) {\r... */\n      swap2\n      swap1\n      pop\n      jump\t// out\n        /* \"OnDemo/contracts/Roles.sol\":1450:1568  function assignCouncilMember(address _user) public onlyAdmin {\r... */\n    tag_72:\n        /* \"OnDemo/contracts/Roles.sol\":684:689  owner */\n      0x00\n      dup1\n      sload\n      swap1\n      0x0100\n      exp\n      swap1\n      div\n      0xffffffffffffffffffffffffffffffffffffffff\n      and\n        /* \"OnDemo/contracts/Roles.sol\":670:689  msg.sender == owner */\n      0xffffffffffffffffffffffffffffffffffffffff\n      and\n        /* \"OnDemo/contracts/Roles.sol\":670:680  msg.sender */\n      caller\n        /* \"OnDemo/contracts/Roles.sol\":670:689  msg.sender == owner */\n      0xffffffffffffffffffffffffffffffffffffffff\n      and\n      eq\n        /* \"OnDemo/contracts/Roles.sol\":670:717  msg.sender == owner || hasAdminRole(msg.sender) */\n      dup1\n      tag_108\n      jumpi\n      pop\n        /* \"OnDemo/contracts/Roles.sol\":693:717  hasAdminRole(msg.sender) */\n      tag_109\n        /* \"OnDemo/contracts/Roles.sol\":706:716  msg.sender */\n      caller\n        /* \"OnDemo/contracts/Roles.sol\":693:705  hasAdminRole */\n      tag_56\n        /* \"OnDemo/contracts/Roles.sol\":693:717  hasAdminRole(msg.sender) */\n      jump\t// in\n    tag_109:\n        /* \"OnDemo/contracts/Roles.sol\":670:717  msg.sender == owner || hasAdminRole(msg.sender) */\n    tag_108:\n        /* \"OnDemo/contracts/Roles.sol\":662:756  require(msg.sender == owner || hasAdminRole(msg.sender), \"Only owner can call this function.\") */\n      tag_110\n      jumpi\n      mload(0x40)\n      0x08c379a000000000000000000000000000000000000000000000000000000000\n      dup2\n      mstore\n      0x04\n      add\n      tag_111\n      swap1\n      tag_79\n      jump\t// in\n    tag_111:\n      mload(0x40)\n      dup1\n      swap2\n      sub\n      swap1\n      revert\n    tag_110:\n        /* \"OnDemo/contracts/Roles.sol\":1522:1560  assignRole(Roles.COUNCILMEMBER, _user) */\n      tag_113\n        /* \"OnDemo/contracts/Roles.sol\":1533:1552  Roles.COUNCILMEMBER */\n      0x01\n        /* \"OnDemo/contracts/Roles.sol\":1554:1559  _user */\n      dup3\n        /* \"OnDemo/contracts/Roles.sol\":1522:1532  assignRole */\n      tag_82\n        /* \"OnDemo/contracts/Roles.sol\":1522:1560  assignRole(Roles.COUNCILMEMBER, _user) */\n      jump\t// in\n    tag_113:\n        /* \"OnDemo/contracts/Roles.sol\":1450:1568  function assignCouncilMember(address _user) public onlyAdmin {\r... */\n      pop\n      jump\t// out\n        /* \"OnDemo/contracts/Roles.sol\":784:1324  function assignRole(Roles _role, address _user) private onlyAdmin {\r... */\n    tag_82:\n        /* \"OnDemo/contracts/Roles.sol\":684:689  owner */\n      0x00\n      dup1\n      sload\n      swap1\n      0x0100\n      exp\n      swap1\n      div\n      0xffffffffffffffffffffffffffffffffffffffff\n      and\n        /* \"OnDemo/contracts/Roles.sol\":670:689  msg.sender == owner */\n      0xffffffffffffffffffffffffffffffffffffffff\n      and\n        /* \"OnDemo/contracts/Roles.sol\":670:680  msg.sender */\n      caller\n        /* \"OnDemo/contracts/Roles.sol\":670:689  msg.sender == owner */\n      0xffffffffffffffffffffffffffffffffffffffff\n      and\n      eq\n        /* \"OnDemo/contracts/Roles.sol\":670:717  msg.sender == owner || hasAdminRole(msg.sender) */\n      dup1\n      tag_115\n      jumpi\n      pop\n        /* \"OnDemo/contracts/Roles.sol\":693:717  hasAdminRole(msg.sender) */\n      tag_116\n        /* \"OnDemo/contracts/Roles.sol\":706:716  msg.sender */\n      caller\n        /* \"OnDemo/contracts/Roles.sol\":693:705  hasAdminRole */\n      tag_56\n        /* \"OnDemo/contracts/Roles.sol\":693:717  hasAdminRole(msg.sender) */\n      jump\t// in\n    tag_116:\n        /* \"OnDemo/contracts/Roles.sol\":670:717  msg.sender == owner || hasAdminRole(msg.sender) */\n    tag_115:\n        /* \"OnDemo/contracts/Roles.sol\":662:756  require(msg.sender == owner || hasAdminRole(msg.sender), \"Only owner can call this function.\") */\n      tag_117\n      jumpi\n      mload(0x40)\n      0x08c379a000000000000000000000000000000000000000000000000000000000\n      dup2\n      mstore\n      0x04\n      add\n      tag_118\n      swap1\n      tag_79\n      jump\t// in\n    tag_118:\n      mload(0x40)\n      dup1\n      swap2\n      sub\n      swap1\n      revert\n    tag_117:\n        /* \"OnDemo/contracts/Roles.sol\":888:893  false */\n      0x00\n        /* \"OnDemo/contracts/Roles.sol\":871:878  isAdmin */\n      0x01\n        /* \"OnDemo/contracts/Roles.sol\":871:885  isAdmin[_user] */\n      0x00\n        /* \"OnDemo/contracts/Roles.sol\":879:884  _user */\n      dup4\n        /* \"OnDemo/contracts/Roles.sol\":871:885  isAdmin[_user] */\n      0xffffffffffffffffffffffffffffffffffffffff\n      and\n      0xffffffffffffffffffffffffffffffffffffffff\n      and\n      dup2\n      mstore\n      0x20\n      add\n      swap1\n      dup2\n      mstore\n      0x20\n      add\n      0x00\n      keccak256\n      0x00\n        /* \"OnDemo/contracts/Roles.sol\":871:893  isAdmin[_user] = false */\n      0x0100\n      exp\n      dup2\n      sload\n      dup2\n      0xff\n      mul\n      not\n      and\n      swap1\n      dup4\n      iszero\n      iszero\n      mul\n      or\n      swap1\n      sstore\n      pop\n        /* \"OnDemo/contracts/Roles.sol\":929:934  false */\n      0x00\n        /* \"OnDemo/contracts/Roles.sol\":904:919  isCouncilMember */\n      0x02\n        /* \"OnDemo/contracts/Roles.sol\":904:926  isCouncilMember[_user] */\n      0x00\n        /* \"OnDemo/contracts/Roles.sol\":920:925  _user */\n      dup4\n        /* \"OnDemo/contracts/Roles.sol\":904:926  isCouncilMember[_user] */\n      0xffffffffffffffffffffffffffffffffffffffff\n      and\n      0xffffffffffffffffffffffffffffffffffffffff\n      and\n      dup2\n      mstore\n      0x20\n      add\n      swap1\n      dup2\n      mstore\n      0x20\n      add\n      0x00\n      keccak256\n      0x00\n        /* \"OnDemo/contracts/Roles.sol\":904:934  isCouncilMember[_user] = false */\n      0x0100\n      exp\n      dup2\n      sload\n      dup2\n      0xff\n      mul\n      not\n      and\n      swap1\n      dup4\n      iszero\n      iszero\n      mul\n      or\n      swap1\n      sstore\n      pop\n        /* \"OnDemo/contracts/Roles.sol\":963:968  false */\n      0x00\n        /* \"OnDemo/contracts/Roles.sol\":945:953  isMember */\n      0x03\n        /* \"OnDemo/contracts/Roles.sol\":945:960  isMember[_user] */\n      0x00\n        /* \"OnDemo/contracts/Roles.sol\":954:959  _user */\n      dup4\n        /* \"OnDemo/contracts/Roles.sol\":945:960  isMember[_user] */\n      0xffffffffffffffffffffffffffffffffffffffff\n      and\n      0xffffffffffffffffffffffffffffffffffffffff\n      and\n      dup2\n      mstore\n      0x20\n      add\n      swap1\n      dup2\n      mstore\n      0x20\n      add\n      0x00\n      keccak256\n      0x00\n        /* \"OnDemo/contracts/Roles.sol\":945:968  isMember[_user] = false */\n      0x0100\n      exp\n      dup2\n      sload\n      dup2\n      0xff\n      mul\n      not\n      and\n      swap1\n      dup4\n      iszero\n      iszero\n      mul\n      or\n      swap1\n      sstore\n      pop\n        /* \"OnDemo/contracts/Roles.sol\":996:1001  false */\n      0x00\n        /* \"OnDemo/contracts/Roles.sol\":979:986  isGuest */\n      0x04\n        /* \"OnDemo/contracts/Roles.sol\":979:993  isGuest[_user] */\n      0x00\n        /* \"OnDemo/contracts/Roles.sol\":987:992  _user */\n      dup4\n        /* \"OnDemo/contracts/Roles.sol\":979:993  isGuest[_user] */\n      0xffffffffffffffffffffffffffffffffffffffff\n      and\n      0xffffffffffffffffffffffffffffffffffffffff\n      and\n      dup2\n      mstore\n      0x20\n      add\n      swap1\n      dup2\n      mstore\n      0x20\n      add\n      0x00\n      keccak256\n      0x00\n        /* \"OnDemo/contracts/Roles.sol\":979:1001  isGuest[_user] = false */\n      0x0100\n      exp\n      dup2\n      sload\n      dup2\n      0xff\n      mul\n      not\n      and\n      swap1\n      dup4\n      iszero\n      iszero\n      mul\n      or\n      swap1\n      sstore\n      pop\n        /* \"OnDemo/contracts/Roles.sol\":1026:1037  Roles.ADMIN */\n      0x00\n        /* \"OnDemo/contracts/Roles.sol\":1017:1037  _role == Roles.ADMIN */\n      0x03\n      dup2\n      gt\n      iszero\n      tag_120\n      jumpi\n      mstore(0x00, 0x4e487b7100000000000000000000000000000000000000000000000000000000)\n      mstore(0x04, 0x21)\n      revert(0x00, 0x24)\n    tag_120:\n        /* \"OnDemo/contracts/Roles.sol\":1017:1022  _role */\n      dup3\n        /* \"OnDemo/contracts/Roles.sol\":1017:1037  _role == Roles.ADMIN */\n      0x03\n      dup2\n      gt\n      iszero\n      tag_121\n      jumpi\n      mstore(0x00, 0x4e487b7100000000000000000000000000000000000000000000000000000000)\n      mstore(0x04, 0x21)\n      revert(0x00, 0x24)\n    tag_121:\n      eq\n        /* \"OnDemo/contracts/Roles.sol\":1014:1317  if(_role == Roles.ADMIN) {\r... */\n      iszero\n      tag_122\n      jumpi\n        /* \"OnDemo/contracts/Roles.sol\":1071:1075  true */\n      0x01\n        /* \"OnDemo/contracts/Roles.sol\":1054:1061  isAdmin */\n      dup1\n        /* \"OnDemo/contracts/Roles.sol\":1054:1068  isAdmin[_user] */\n      0x00\n        /* \"OnDemo/contracts/Roles.sol\":1062:1067  _user */\n      dup4\n        /* \"OnDemo/contracts/Roles.sol\":1054:1068  isAdmin[_user] */\n      0xffffffffffffffffffffffffffffffffffffffff\n      and\n      0xffffffffffffffffffffffffffffffffffffffff\n      and\n      dup2\n      mstore\n      0x20\n      add\n      swap1\n      dup2\n      mstore\n      0x20\n      add\n      0x00\n      keccak256\n      0x00\n        /* \"OnDemo/contracts/Roles.sol\":1054:1075  isAdmin[_user] = true */\n      0x0100\n      exp\n      dup2\n      sload\n      dup2\n      0xff\n      mul\n      not\n      and\n      swap1\n      dup4\n      iszero\n      iszero\n      mul\n      or\n      swap1\n      sstore\n      pop\n        /* \"OnDemo/contracts/Roles.sol\":1014:1317  if(_role == Roles.ADMIN) {\r... */\n      jump(tag_123)\n    tag_122:\n        /* \"OnDemo/contracts/Roles.sol\":1105:1124  Roles.COUNCILMEMBER */\n      0x01\n        /* \"OnDemo/contracts/Roles.sol\":1096:1124  _role == Roles.COUNCILMEMBER */\n      0x03\n      dup2\n      gt\n      iszero\n      tag_124\n      jumpi\n      mstore(0x00, 0x4e487b7100000000000000000000000000000000000000000000000000000000)\n      mstore(0x04, 0x21)\n      revert(0x00, 0x24)\n    tag_124:\n        /* \"OnDemo/contracts/Roles.sol\":1096:1101  _role */\n      dup3\n        /* \"OnDemo/contracts/Roles.sol\":1096:1124  _role == Roles.COUNCILMEMBER */\n      0x03\n      dup2\n      gt\n      iszero\n      tag_125\n      jumpi\n      mstore(0x00, 0x4e487b7100000000000000000000000000000000000000000000000000000000)\n      mstore(0x04, 0x21)\n      revert(0x00, 0x24)\n    tag_125:\n      eq\n        /* \"OnDemo/contracts/Roles.sol\":1093:1317  if(_role == Roles.COUNCILMEMBER) {\r... */\n      iszero\n      tag_126\n      jumpi\n        /* \"OnDemo/contracts/Roles.sol\":1166:1170  true */\n      0x01\n        /* \"OnDemo/contracts/Roles.sol\":1141:1156  isCouncilMember */\n      0x02\n        /* \"OnDemo/contracts/Roles.sol\":1141:1163  isCouncilMember[_user] */\n      0x00\n        /* \"OnDemo/contracts/Roles.sol\":1157:1162  _user */\n      dup4\n        /* \"OnDemo/contracts/Roles.sol\":1141:1163  isCouncilMember[_user] */\n      0xffffffffffffffffffffffffffffffffffffffff\n      and\n      0xffffffffffffffffffffffffffffffffffffffff\n      and\n      dup2\n      mstore\n      0x20\n      add\n      swap1\n      dup2\n      mstore\n      0x20\n      add\n      0x00\n      keccak256\n      0x00\n        /* \"OnDemo/contracts/Roles.sol\":1141:1170  isCouncilMember[_user] = true */\n      0x0100\n      exp\n      dup2\n      sload\n      dup2\n      0xff\n      mul\n      not\n      and\n      swap1\n      dup4\n      iszero\n      iszero\n      mul\n      or\n      swap1\n      sstore\n      pop\n        /* \"OnDemo/contracts/Roles.sol\":1093:1317  if(_role == Roles.COUNCILMEMBER) {\r... */\n      jump(tag_127)\n    tag_126:\n        /* \"OnDemo/contracts/Roles.sol\":1200:1212  Roles.MEMBER */\n      0x02\n        /* \"OnDemo/contracts/Roles.sol\":1191:1212  _role == Roles.MEMBER */\n      0x03\n      dup2\n      gt\n      iszero\n      tag_128\n      jumpi\n      mstore(0x00, 0x4e487b7100000000000000000000000000000000000000000000000000000000)\n      mstore(0x04, 0x21)\n      revert(0x00, 0x24)\n    tag_128:\n        /* \"OnDemo/contracts/Roles.sol\":1191:1196  _role */\n      dup3\n        /* \"OnDemo/contracts/Roles.sol\":1191:1212  _role == Roles.MEMBER */\n      0x03\n      dup2\n      gt\n      iszero\n      tag_129\n      jumpi\n      mstore(0x00, 0x4e487b7100000000000000000000000000000000000000000000000000000000)\n      mstore(0x04, 0x21)\n      revert(0x00, 0x24)\n    tag_129:\n      eq\n        /* \"OnDemo/contracts/Roles.sol\":1188:1317  if(_role == Roles.MEMBER) {\r... */\n      iszero\n      tag_130\n      jumpi\n        /* \"OnDemo/contracts/Roles.sol\":1247:1251  true */\n      0x01\n        /* \"OnDemo/contracts/Roles.sol\":1229:1237  isMember */\n      0x03\n        /* \"OnDemo/contracts/Roles.sol\":1229:1244  isMember[_user] */\n      0x00\n        /* \"OnDemo/contracts/Roles.sol\":1238:1243  _user */\n      dup4\n        /* \"OnDemo/contracts/Roles.sol\":1229:1244  isMember[_user] */\n      0xffffffffffffffffffffffffffffffffffffffff\n      and\n      0xffffffffffffffffffffffffffffffffffffffff\n      and\n      dup2\n      mstore\n      0x20\n      add\n      swap1\n      dup2\n      mstore\n      0x20\n      add\n      0x00\n      keccak256\n      0x00\n        /* \"OnDemo/contracts/Roles.sol\":1229:1251  isMember[_user] = true */\n      0x0100\n      exp\n      dup2\n      sload\n      dup2\n      0xff\n      mul\n      not\n      and\n      swap1\n      dup4\n      iszero\n      iszero\n      mul\n      or\n      swap1\n      sstore\n      pop\n        /* \"OnDemo/contracts/Roles.sol\":1188:1317  if(_role == Roles.MEMBER) {\r... */\n      jump(tag_131)\n    tag_130:\n        /* \"OnDemo/contracts/Roles.sol\":1301:1305  true */\n      0x01\n        /* \"OnDemo/contracts/Roles.sol\":1284:1291  isGuest */\n      0x04\n        /* \"OnDemo/contracts/Roles.sol\":1284:1298  isGuest[_user] */\n      0x00\n        /* \"OnDemo/contracts/Roles.sol\":1292:1297  _user */\n      dup4\n        /* \"OnDemo/contracts/Roles.sol\":1284:1298  isGuest[_user] */\n      0xffffffffffffffffffffffffffffffffffffffff\n      and\n      0xffffffffffffffffffffffffffffffffffffffff\n      and\n      dup2\n      mstore\n      0x20\n      add\n      swap1\n      dup2\n      mstore\n      0x20\n      add\n      0x00\n      keccak256\n      0x00\n        /* \"OnDemo/contracts/Roles.sol\":1284:1305  isGuest[_user] = true */\n      0x0100\n      exp\n      dup2\n      sload\n      dup2\n      0xff\n      mul\n      not\n      and\n      swap1\n      dup4\n      iszero\n      iszero\n      mul\n      or\n      swap1\n      sstore\n      pop\n        /* \"OnDemo/contracts/Roles.sol\":1188:1317  if(_role == Roles.MEMBER) {\r... */\n    tag_131:\n        /* \"OnDemo/contracts/Roles.sol\":1093:1317  if(_role == Roles.COUNCILMEMBER) {\r... */\n    tag_127:\n        /* \"OnDemo/contracts/Roles.sol\":1014:1317  if(_role == Roles.ADMIN) {\r... */\n    tag_123:\n        /* \"OnDemo/contracts/Roles.sol\":784:1324  function assignRole(Roles _role, address _user) private onlyAdmin {\r... */\n      pop\n      pop\n      jump\t// out\n        /* \"#utility.yul\":7:146   */\n    tag_133:\n      0x00\n        /* \"#utility.yul\":91:97   */\n      dup2\n        /* \"#utility.yul\":78:98   */\n      calldataload\n        /* \"#utility.yul\":69:98   */\n      swap1\n      pop\n        /* \"#utility.yul\":107:140   */\n      tag_135\n        /* \"#utility.yul\":134:139   */\n      dup2\n        /* \"#utility.yul\":107:140   */\n      tag_136\n      jump\t// in\n    tag_135:\n        /* \"#utility.yul\":59:146   */\n      swap3\n      swap2\n      pop\n      pop\n      jump\t// out\n        /* \"#utility.yul\":152:414   */\n    tag_22:\n      0x00\n        /* \"#utility.yul\":260:262   */\n      0x20\n        /* \"#utility.yul\":248:257   */\n      dup3\n        /* \"#utility.yul\":239:246   */\n      dup5\n        /* \"#utility.yul\":235:258   */\n      sub\n        /* \"#utility.yul\":231:263   */\n      slt\n        /* \"#utility.yul\":228:230   */\n      iszero\n      tag_138\n      jumpi\n        /* \"#utility.yul\":276:277   */\n      0x00\n        /* \"#utility.yul\":273:274   */\n      dup1\n        /* \"#utility.yul\":266:278   */\n      revert\n        /* \"#utility.yul\":228:230   */\n    tag_138:\n        /* \"#utility.yul\":319:320   */\n      0x00\n        /* \"#utility.yul\":344:397   */\n      tag_139\n        /* \"#utility.yul\":389:396   */\n      dup5\n        /* \"#utility.yul\":380:386   */\n      dup3\n        /* \"#utility.yul\":369:378   */\n      dup6\n        /* \"#utility.yul\":365:387   */\n      add\n        /* \"#utility.yul\":344:397   */\n      tag_133\n      jump\t// in\n    tag_139:\n        /* \"#utility.yul\":334:397   */\n      swap2\n      pop\n        /* \"#utility.yul\":290:407   */\n      pop\n        /* \"#utility.yul\":218:414   */\n      swap3\n      swap2\n      pop\n      pop\n      jump\t// out\n        /* \"#utility.yul\":420:538   */\n    tag_140:\n        /* \"#utility.yul\":507:531   */\n      tag_142\n        /* \"#utility.yul\":525:530   */\n      dup2\n        /* \"#utility.yul\":507:531   */\n      tag_143\n      jump\t// in\n    tag_142:\n        /* \"#utility.yul\":502:505   */\n      dup3\n        /* \"#utility.yul\":495:532   */\n      mstore\n        /* \"#utility.yul\":485:538   */\n      pop\n      pop\n      jump\t// out\n        /* \"#utility.yul\":544:653   */\n    tag_144:\n        /* \"#utility.yul\":625:646   */\n      tag_146\n        /* \"#utility.yul\":640:645   */\n      dup2\n        /* \"#utility.yul\":625:646   */\n      tag_147\n      jump\t// in\n    tag_146:\n        /* \"#utility.yul\":620:623   */\n      dup3\n        /* \"#utility.yul\":613:647   */\n      mstore\n        /* \"#utility.yul\":603:653   */\n      pop\n      pop\n      jump\t// out\n        /* \"#utility.yul\":659:1025   */\n    tag_148:\n      0x00\n        /* \"#utility.yul\":822:889   */\n      tag_150\n        /* \"#utility.yul\":886:888   */\n      0x22\n        /* \"#utility.yul\":881:884   */\n      dup4\n        /* \"#utility.yul\":822:889   */\n      tag_151\n      jump\t// in\n    tag_150:\n        /* \"#utility.yul\":815:889   */\n      swap2\n      pop\n        /* \"#utility.yul\":898:991   */\n      tag_152\n        /* \"#utility.yul\":987:990   */\n      dup3\n        /* \"#utility.yul\":898:991   */\n      tag_153\n      jump\t// in\n    tag_152:\n        /* \"#utility.yul\":1016:1018   */\n      0x40\n        /* \"#utility.yul\":1011:1014   */\n      dup3\n        /* \"#utility.yul\":1007:1019   */\n      add\n        /* \"#utility.yul\":1000:1019   */\n      swap1\n      pop\n        /* \"#utility.yul\":805:1025   */\n      swap2\n      swap1\n      pop\n      jump\t// out\n        /* \"#utility.yul\":1031:1253   */\n    tag_45:\n      0x00\n        /* \"#utility.yul\":1162:1164   */\n      0x20\n        /* \"#utility.yul\":1151:1160   */\n      dup3\n        /* \"#utility.yul\":1147:1165   */\n      add\n        /* \"#utility.yul\":1139:1165   */\n      swap1\n      pop\n        /* \"#utility.yul\":1175:1246   */\n      tag_155\n        /* \"#utility.yul\":1243:1244   */\n      0x00\n        /* \"#utility.yul\":1232:1241   */\n      dup4\n        /* \"#utility.yul\":1228:1245   */\n      add\n        /* \"#utility.yul\":1219:1225   */\n      dup5\n        /* \"#utility.yul\":1175:1246   */\n      tag_140\n      jump\t// in\n    tag_155:\n        /* \"#utility.yul\":1129:1253   */\n      swap3\n      swap2\n      pop\n      pop\n      jump\t// out\n        /* \"#utility.yul\":1259:1469   */\n    tag_25:\n      0x00\n        /* \"#utility.yul\":1384:1386   */\n      0x20\n        /* \"#utility.yul\":1373:1382   */\n      dup3\n        /* \"#utility.yul\":1369:1387   */\n      add\n        /* \"#utility.yul\":1361:1387   */\n      swap1\n      pop\n        /* \"#utility.yul\":1397:1462   */\n      tag_157\n        /* \"#utility.yul\":1459:1460   */\n      0x00\n        /* \"#utility.yul\":1448:1457   */\n      dup4\n        /* \"#utility.yul\":1444:1461   */\n      add\n        /* \"#utility.yul\":1435:1441   */\n      dup5\n        /* \"#utility.yul\":1397:1462   */\n      tag_144\n      jump\t// in\n    tag_157:\n        /* \"#utility.yul\":1351:1469   */\n      swap3\n      swap2\n      pop\n      pop\n      jump\t// out\n        /* \"#utility.yul\":1475:1894   */\n    tag_79:\n      0x00\n        /* \"#utility.yul\":1679:1681   */\n      0x20\n        /* \"#utility.yul\":1668:1677   */\n      dup3\n        /* \"#utility.yul\":1664:1682   */\n      add\n        /* \"#utility.yul\":1656:1682   */\n      swap1\n      pop\n        /* \"#utility.yul\":1728:1737   */\n      dup2\n        /* \"#utility.yul\":1722:1726   */\n      dup2\n        /* \"#utility.yul\":1718:1738   */\n      sub\n        /* \"#utility.yul\":1714:1715   */\n      0x00\n        /* \"#utility.yul\":1703:1712   */\n      dup4\n        /* \"#utility.yul\":1699:1716   */\n      add\n        /* \"#utility.yul\":1692:1739   */\n      mstore\n        /* \"#utility.yul\":1756:1887   */\n      tag_159\n        /* \"#utility.yul\":1882:1886   */\n      dup2\n        /* \"#utility.yul\":1756:1887   */\n      tag_148\n      jump\t// in\n    tag_159:\n        /* \"#utility.yul\":1748:1887   */\n      swap1\n      pop\n        /* \"#utility.yul\":1646:1894   */\n      swap2\n      swap1\n      pop\n      jump\t// out\n        /* \"#utility.yul\":1900:2069   */\n    tag_151:\n      0x00\n        /* \"#utility.yul\":2018:2024   */\n      dup3\n        /* \"#utility.yul\":2013:2016   */\n      dup3\n        /* \"#utility.yul\":2006:2025   */\n      mstore\n        /* \"#utility.yul\":2058:2062   */\n      0x20\n        /* \"#utility.yul\":2053:2056   */\n      dup3\n        /* \"#utility.yul\":2049:2063   */\n      add\n        /* \"#utility.yul\":2034:2063   */\n      swap1\n      pop\n        /* \"#utility.yul\":1996:2069   */\n      swap3\n      swap2\n      pop\n      pop\n      jump\t// out\n        /* \"#utility.yul\":2075:2171   */\n    tag_143:\n      0x00\n        /* \"#utility.yul\":2141:2165   */\n      tag_162\n        /* \"#utility.yul\":2159:2164   */\n      dup3\n        /* \"#utility.yul\":2141:2165   */\n      tag_163\n      jump\t// in\n    tag_162:\n        /* \"#utility.yul\":2130:2165   */\n      swap1\n      pop\n        /* \"#utility.yul\":2120:2171   */\n      swap2\n      swap1\n      pop\n      jump\t// out\n        /* \"#utility.yul\":2177:2267   */\n    tag_147:\n      0x00\n        /* \"#utility.yul\":2254:2259   */\n      dup2\n        /* \"#utility.yul\":2247:2260   */\n      iszero\n        /* \"#utility.yul\":2240:2261   */\n      iszero\n        /* \"#utility.yul\":2229:2261   */\n      swap1\n      pop\n        /* \"#utility.yul\":2219:2267   */\n      swap2\n      swap1\n      pop\n      jump\t// out\n        /* \"#utility.yul\":2273:2399   */\n    tag_163:\n      0x00\n        /* \"#utility.yul\":2350:2392   */\n      0xffffffffffffffffffffffffffffffffffffffff\n        /* \"#utility.yul\":2343:2348   */\n      dup3\n        /* \"#utility.yul\":2339:2393   */\n      and\n        /* \"#utility.yul\":2328:2393   */\n      swap1\n      pop\n        /* \"#utility.yul\":2318:2399   */\n      swap2\n      swap1\n      pop\n      jump\t// out\n        /* \"#utility.yul\":2405:2626   */\n    tag_153:\n        /* \"#utility.yul\":2545:2579   */\n      0x4f6e6c79206f776e65722063616e2063616c6c20746869732066756e6374696f\n        /* \"#utility.yul\":2541:2542   */\n      0x00\n        /* \"#utility.yul\":2533:2539   */\n      dup3\n        /* \"#utility.yul\":2529:2543   */\n      add\n        /* \"#utility.yul\":2522:2580   */\n      mstore\n        /* \"#utility.yul\":2614:2618   */\n      0x6e2e000000000000000000000000000000000000000000000000000000000000\n        /* \"#utility.yul\":2609:2611   */\n      0x20\n        /* \"#utility.yul\":2601:2607   */\n      dup3\n        /* \"#utility.yul\":2597:2612   */\n      add\n        /* \"#utility.yul\":2590:2619   */\n      mstore\n        /* \"#utility.yul\":2511:2626   */\n      pop\n      jump\t// out\n        /* \"#utility.yul\":2632:2754   */\n    tag_136:\n        /* \"#utility.yul\":2705:2729   */\n      tag_168\n        /* \"#utility.yul\":2723:2728   */\n      dup2\n        /* \"#utility.yul\":2705:2729   */\n      tag_143\n      jump\t// in\n    tag_168:\n        /* \"#utility.yul\":2698:2703   */\n      dup2\n        /* \"#utility.yul\":2695:2730   */\n      eq\n        /* \"#utility.yul\":2685:2687   */\n      tag_169\n      jumpi\n        /* \"#utility.yul\":2744:2745   */\n      0x00\n        /* \"#utility.yul\":2741:2742   */\n      dup1\n        /* \"#utility.yul\":2734:2746   */\n      revert\n        /* \"#utility.yul\":2685:2687   */\n    tag_169:\n        /* \"#utility.yul\":2675:2754   */\n      pop\n      jump\t// out\n\n    auxdata: 0xa2646970667358221220c49abfa1736628ce6c9c104e2adca6c73e929fbc0d3f3f8d36cbe4de2c39db3464736f6c63430008010033\n}\n",
				"bytecode": {
					"linkReferences": {},
					"object": "608060405234801561001057600080fd5b50336000806101000a81548173ffffffffffffffffffffffffffffffffffffffff021916908373ffffffffffffffffffffffffffffffffffffffff16021790555060018060008060009054906101000a900473ffffffffffffffffffffffffffffffffffffffff1673ffffffffffffffffffffffffffffffffffffffff1673ffffffffffffffffffffffffffffffffffffffff16815260200190815260200160002060006101000a81548160ff021916908315150217905550610f0f806100d86000396000f3fe608060405234801561001057600080fd5b50600436106100ea5760003560e01c8063a230c5241161008c578063e8621e5911610066578063e8621e591461026d578063ebd7dc521461029d578063fa4d7aae146102cd578063fce7789f146102fd576100ea565b8063a230c524146101dd578063a9a96ab61461020d578063c395fcb31461023d576100ea565b80633da7d2ed116100c85780633da7d2ed1461016b5780634762155d146101875780636329b13f146101a35780638da5cb5b146101bf576100ea565b8063056909b7146100ef57806324d7806c1461011f578063297ed8821461014f575b600080fd5b61010960048036038101906101049190610d64565b610319565b6040516101169190610de9565b60405180910390f35b61013960048036038101906101349190610d64565b61036f565b6040516101469190610de9565b60405180910390f35b61016960048036038101906101649190610d64565b61038f565b005b61018560048036038101906101809190610d64565b61043b565b005b6101a1600480360381019061019c9190610d64565b6104e7565b005b6101bd60048036038101906101b89190610d64565b610593565b005b6101c761063f565b6040516101d49190610dce565b60405180910390f35b6101f760048036038101906101f29190610d64565b610663565b6040516102049190610de9565b60405180910390f35b61022760048036038101906102229190610d64565b610683565b6040516102349190610de9565b60405180910390f35b61025760048036038101906102529190610d64565b6106a3565b6040516102649190610de9565b60405180910390f35b61028760048036038101906102829190610d64565b6106f9565b6040516102949190610de9565b60405180910390f35b6102b760048036038101906102b29190610d64565b61074f565b6040516102c49190610de9565b60405180910390f35b6102e760048036038101906102e29190610d64565b61076f565b6040516102f49190610de9565b60405180910390f35b61031760048036038101906103129190610d64565b6107c5565b005b6000600360008373ffffffffffffffffffffffffffffffffffffffff1673ffffffffffffffffffffffffffffffffffffffff16815260200190815260200160002060009054906101000a900460ff169050919050565b60016020528060005260406000206000915054906101000a900460ff1681565b60008054906101000a900473ffffffffffffffffffffffffffffffffffffffff1673ffffffffffffffffffffffffffffffffffffffff163373ffffffffffffffffffffffffffffffffffffffff1614806103ee57506103ed336106a3565b5b61042d576040517f08c379a000000000000000000000000000000000000000000000000000000000815260040161042490610e04565b60405180910390fd5b610438600382610871565b50565b60008054906101000a900473ffffffffffffffffffffffffffffffffffffffff1673ffffffffffffffffffffffffffffffffffffffff163373ffffffffffffffffffffffffffffffffffffffff16148061049a5750610499336106a3565b5b6104d9576040517f08c379a00000000000000000000000000000000000000000000000000000000081526004016104d090610e04565b60405180910390fd5b6104e4600082610871565b50565b60008054906101000a900473ffffffffffffffffffffffffffffffffffffffff1673ffffffffffffffffffffffffffffffffffffffff163373ffffffffffffffffffffffffffffffffffffffff1614806105465750610545336106a3565b5b610585576040517f08c379a000000000000000000000000000000000000000000000000000000000815260040161057c90610e04565b60405180910390fd5b610590600382610871565b50565b60008054906101000a900473ffffffffffffffffffffffffffffffffffffffff1673ffffffffffffffffffffffffffffffffffffffff163373ffffffffffffffffffffffffffffffffffffffff1614806105f257506105f1336106a3565b5b610631576040517f08c379a000000000000000000000000000000000000000000000000000000000815260040161062890610e04565b60405180910390fd5b61063c600282610871565b50565b60008054906101000a900473ffffffffffffffffffffffffffffffffffffffff1681565b60036020528060005260406000206000915054906101000a900460ff1681565b60046020528060005260406000206000915054906101000a900460ff1681565b6000600160008373ffffffffffffffffffffffffffffffffffffffff1673ffffffffffffffffffffffffffffffffffffffff16815260200190815260200160002060009054906101000a900460ff169050919050565b6000600460008373ffffffffffffffffffffffffffffffffffffffff1673ffffffffffffffffffffffffffffffffffffffff16815260200190815260200160002060009054906101000a900460ff169050919050565b60026020528060005260406000206000915054906101000a900460ff1681565b6000600260008373ffffffffffffffffffffffffffffffffffffffff1673ffffffffffffffffffffffffffffffffffffffff16815260200190815260200160002060009054906101000a900460ff169050919050565b60008054906101000a900473ffffffffffffffffffffffffffffffffffffffff1673ffffffffffffffffffffffffffffffffffffffff163373ffffffffffffffffffffffffffffffffffffffff1614806108245750610823336106a3565b5b610863576040517f08c379a000000000000000000000000000000000000000000000000000000000815260040161085a90610e04565b60405180910390fd5b61086e600182610871565b50565b60008054906101000a900473ffffffffffffffffffffffffffffffffffffffff1673ffffffffffffffffffffffffffffffffffffffff163373ffffffffffffffffffffffffffffffffffffffff1614806108d057506108cf336106a3565b5b61090f576040517f08c379a000000000000000000000000000000000000000000000000000000000815260040161090690610e04565b60405180910390fd5b6000600160008373ffffffffffffffffffffffffffffffffffffffff1673ffffffffffffffffffffffffffffffffffffffff16815260200190815260200160002060006101000a81548160ff0219169083151502179055506000600260008373ffffffffffffffffffffffffffffffffffffffff1673ffffffffffffffffffffffffffffffffffffffff16815260200190815260200160002060006101000a81548160ff0219169083151502179055506000600360008373ffffffffffffffffffffffffffffffffffffffff1673ffffffffffffffffffffffffffffffffffffffff16815260200190815260200160002060006101000a81548160ff0219169083151502179055506000600460008373ffffffffffffffffffffffffffffffffffffffff1673ffffffffffffffffffffffffffffffffffffffff16815260200190815260200160002060006101000a81548160ff02191690831515021790555060006003811115610aa9577f4e487b7100000000000000000000000000000000000000000000000000000000600052602160045260246000fd5b826003811115610ae2577f4e487b7100000000000000000000000000000000000000000000000000000000600052602160045260246000fd5b1415610b445760018060008373ffffffffffffffffffffffffffffffffffffffff1673ffffffffffffffffffffffffffffffffffffffff16815260200190815260200160002060006101000a81548160ff021916908315150217905550610d4b565b60016003811115610b7e577f4e487b7100000000000000000000000000000000000000000000000000000000600052602160045260246000fd5b826003811115610bb7577f4e487b7100000000000000000000000000000000000000000000000000000000600052602160045260246000fd5b1415610c1a576001600260008373ffffffffffffffffffffffffffffffffffffffff1673ffffffffffffffffffffffffffffffffffffffff16815260200190815260200160002060006101000a81548160ff021916908315150217905550610d4a565b60026003811115610c54577f4e487b7100000000000000000000000000000000000000000000000000000000600052602160045260246000fd5b826003811115610c8d577f4e487b7100000000000000000000000000000000000000000000000000000000600052602160045260246000fd5b1415610cf0576001600360008373ffffffffffffffffffffffffffffffffffffffff1673ffffffffffffffffffffffffffffffffffffffff16815260200190815260200160002060006101000a81548160ff021916908315150217905550610d49565b6001600460008373ffffffffffffffffffffffffffffffffffffffff1673ffffffffffffffffffffffffffffffffffffffff16815260200190815260200160002060006101000a81548160ff0219169083151502179055505b5b5b5050565b600081359050610d5e81610ec2565b92915050565b600060208284031215610d7657600080fd5b6000610d8484828501610d4f565b91505092915050565b610d9681610e35565b82525050565b610da581610e47565b82525050565b6000610db8602283610e24565b9150610dc382610e73565b604082019050919050565b6000602082019050610de36000830184610d8d565b92915050565b6000602082019050610dfe6000830184610d9c565b92915050565b60006020820190508181036000830152610e1d81610dab565b9050919050565b600082825260208201905092915050565b6000610e4082610e53565b9050919050565b60008115159050919050565b600073ffffffffffffffffffffffffffffffffffffffff82169050919050565b7f4f6e6c79206f776e65722063616e2063616c6c20746869732066756e6374696f60008201527f6e2e000000000000000000000000000000000000000000000000000000000000602082015250565b610ecb81610e35565b8114610ed657600080fd5b5056fea2646970667358221220c49abfa1736628ce6c9c104e2adca6c73e929fbc0d3f3f8d36cbe4de2c39db3464736f6c63430008010033",
					"opcodes": "PUSH1 0x80 PUSH1 0x40 MSTORE CALLVALUE DUP1 ISZERO PUSH2 0x10 JUMPI PUSH1 0x0 DUP1 REVERT JUMPDEST POP CALLER PUSH1 0x0 DUP1 PUSH2 0x100 EXP DUP2 SLOAD DUP2 PUSH20 0xFFFFFFFFFFFFFFFFFFFFFFFFFFFFFFFFFFFFFFFF MUL NOT AND SWAP1 DUP4 PUSH20 0xFFFFFFFFFFFFFFFFFFFFFFFFFFFFFFFFFFFFFFFF AND MUL OR SWAP1 SSTORE POP PUSH1 0x1 DUP1 PUSH1 0x0 DUP1 PUSH1 0x0 SWAP1 SLOAD SWAP1 PUSH2 0x100 EXP SWAP1 DIV PUSH20 0xFFFFFFFFFFFFFFFFFFFFFFFFFFFFFFFFFFFFFFFF AND PUSH20 0xFFFFFFFFFFFFFFFFFFFFFFFFFFFFFFFFFFFFFFFF AND PUSH20 0xFFFFFFFFFFFFFFFFFFFFFFFFFFFFFFFFFFFFFFFF AND DUP2 MSTORE PUSH1 0x20 ADD SWAP1 DUP2 MSTORE PUSH1 0x20 ADD PUSH1 0x0 KECCAK256 PUSH1 0x0 PUSH2 0x100 EXP DUP2 SLOAD DUP2 PUSH1 0xFF MUL NOT AND SWAP1 DUP4 ISZERO ISZERO MUL OR SWAP1 SSTORE POP PUSH2 0xF0F DUP1 PUSH2 0xD8 PUSH1 0x0 CODECOPY PUSH1 0x0 RETURN INVALID PUSH1 0x80 PUSH1 0x40 MSTORE CALLVALUE DUP1 ISZERO PUSH2 0x10 JUMPI PUSH1 0x0 DUP1 REVERT JUMPDEST POP PUSH1 0x4 CALLDATASIZE LT PUSH2 0xEA JUMPI PUSH1 0x0 CALLDATALOAD PUSH1 0xE0 SHR DUP1 PUSH4 0xA230C524 GT PUSH2 0x8C JUMPI DUP1 PUSH4 0xE8621E59 GT PUSH2 0x66 JUMPI DUP1 PUSH4 0xE8621E59 EQ PUSH2 0x26D JUMPI DUP1 PUSH4 0xEBD7DC52 EQ PUSH2 0x29D JUMPI DUP1 PUSH4 0xFA4D7AAE EQ PUSH2 0x2CD JUMPI DUP1 PUSH4 0xFCE7789F EQ PUSH2 0x2FD JUMPI PUSH2 0xEA JUMP JUMPDEST DUP1 PUSH4 0xA230C524 EQ PUSH2 0x1DD JUMPI DUP1 PUSH4 0xA9A96AB6 EQ PUSH2 0x20D JUMPI DUP1 PUSH4 0xC395FCB3 EQ PUSH2 0x23D JUMPI PUSH2 0xEA JUMP JUMPDEST DUP1 PUSH4 0x3DA7D2ED GT PUSH2 0xC8 JUMPI DUP1 PUSH4 0x3DA7D2ED EQ PUSH2 0x16B JUMPI DUP1 PUSH4 0x4762155D EQ PUSH2 0x187 JUMPI DUP1 PUSH4 0x6329B13F EQ PUSH2 0x1A3 JUMPI DUP1 PUSH4 0x8DA5CB5B EQ PUSH2 0x1BF JUMPI PUSH2 0xEA JUMP JUMPDEST DUP1 PUSH4 0x56909B7 EQ PUSH2 0xEF JUMPI DUP1 PUSH4 0x24D7806C EQ PUSH2 0x11F JUMPI DUP1 PUSH4 0x297ED882 EQ PUSH2 0x14F JUMPI JUMPDEST PUSH1 0x0 DUP1 REVERT JUMPDEST PUSH2 0x109 PUSH1 0x4 DUP1 CALLDATASIZE SUB DUP2 ADD SWAP1 PUSH2 0x104 SWAP2 SWAP1 PUSH2 0xD64 JUMP JUMPDEST PUSH2 0x319 JUMP JUMPDEST PUSH1 0x40 MLOAD PUSH2 0x116 SWAP2 SWAP1 PUSH2 0xDE9 JUMP JUMPDEST PUSH1 0x40 MLOAD DUP1 SWAP2 SUB SWAP1 RETURN JUMPDEST PUSH2 0x139 PUSH1 0x4 DUP1 CALLDATASIZE SUB DUP2 ADD SWAP1 PUSH2 0x134 SWAP2 SWAP1 PUSH2 0xD64 JUMP JUMPDEST PUSH2 0x36F JUMP JUMPDEST PUSH1 0x40 MLOAD PUSH2 0x146 SWAP2 SWAP1 PUSH2 0xDE9 JUMP JUMPDEST PUSH1 0x40 MLOAD DUP1 SWAP2 SUB SWAP1 RETURN JUMPDEST PUSH2 0x169 PUSH1 0x4 DUP1 CALLDATASIZE SUB DUP2 ADD SWAP1 PUSH2 0x164 SWAP2 SWAP1 PUSH2 0xD64 JUMP JUMPDEST PUSH2 0x38F JUMP JUMPDEST STOP JUMPDEST PUSH2 0x185 PUSH1 0x4 DUP1 CALLDATASIZE SUB DUP2 ADD SWAP1 PUSH2 0x180 SWAP2 SWAP1 PUSH2 0xD64 JUMP JUMPDEST PUSH2 0x43B JUMP JUMPDEST STOP JUMPDEST PUSH2 0x1A1 PUSH1 0x4 DUP1 CALLDATASIZE SUB DUP2 ADD SWAP1 PUSH2 0x19C SWAP2 SWAP1 PUSH2 0xD64 JUMP JUMPDEST PUSH2 0x4E7 JUMP JUMPDEST STOP JUMPDEST PUSH2 0x1BD PUSH1 0x4 DUP1 CALLDATASIZE SUB DUP2 ADD SWAP1 PUSH2 0x1B8 SWAP2 SWAP1 PUSH2 0xD64 JUMP JUMPDEST PUSH2 0x593 JUMP JUMPDEST STOP JUMPDEST PUSH2 0x1C7 PUSH2 0x63F JUMP JUMPDEST PUSH1 0x40 MLOAD PUSH2 0x1D4 SWAP2 SWAP1 PUSH2 0xDCE JUMP JUMPDEST PUSH1 0x40 MLOAD DUP1 SWAP2 SUB SWAP1 RETURN JUMPDEST PUSH2 0x1F7 PUSH1 0x4 DUP1 CALLDATASIZE SUB DUP2 ADD SWAP1 PUSH2 0x1F2 SWAP2 SWAP1 PUSH2 0xD64 JUMP JUMPDEST PUSH2 0x663 JUMP JUMPDEST PUSH1 0x40 MLOAD PUSH2 0x204 SWAP2 SWAP1 PUSH2 0xDE9 JUMP JUMPDEST PUSH1 0x40 MLOAD DUP1 SWAP2 SUB SWAP1 RETURN JUMPDEST PUSH2 0x227 PUSH1 0x4 DUP1 CALLDATASIZE SUB DUP2 ADD SWAP1 PUSH2 0x222 SWAP2 SWAP1 PUSH2 0xD64 JUMP JUMPDEST PUSH2 0x683 JUMP JUMPDEST PUSH1 0x40 MLOAD PUSH2 0x234 SWAP2 SWAP1 PUSH2 0xDE9 JUMP JUMPDEST PUSH1 0x40 MLOAD DUP1 SWAP2 SUB SWAP1 RETURN JUMPDEST PUSH2 0x257 PUSH1 0x4 DUP1 CALLDATASIZE SUB DUP2 ADD SWAP1 PUSH2 0x252 SWAP2 SWAP1 PUSH2 0xD64 JUMP JUMPDEST PUSH2 0x6A3 JUMP JUMPDEST PUSH1 0x40 MLOAD PUSH2 0x264 SWAP2 SWAP1 PUSH2 0xDE9 JUMP JUMPDEST PUSH1 0x40 MLOAD DUP1 SWAP2 SUB SWAP1 RETURN JUMPDEST PUSH2 0x287 PUSH1 0x4 DUP1 CALLDATASIZE SUB DUP2 ADD SWAP1 PUSH2 0x282 SWAP2 SWAP1 PUSH2 0xD64 JUMP JUMPDEST PUSH2 0x6F9 JUMP JUMPDEST PUSH1 0x40 MLOAD PUSH2 0x294 SWAP2 SWAP1 PUSH2 0xDE9 JUMP JUMPDEST PUSH1 0x40 MLOAD DUP1 SWAP2 SUB SWAP1 RETURN JUMPDEST PUSH2 0x2B7 PUSH1 0x4 DUP1 CALLDATASIZE SUB DUP2 ADD SWAP1 PUSH2 0x2B2 SWAP2 SWAP1 PUSH2 0xD64 JUMP JUMPDEST PUSH2 0x74F JUMP JUMPDEST PUSH1 0x40 MLOAD PUSH2 0x2C4 SWAP2 SWAP1 PUSH2 0xDE9 JUMP JUMPDEST PUSH1 0x40 MLOAD DUP1 SWAP2 SUB SWAP1 RETURN JUMPDEST PUSH2 0x2E7 PUSH1 0x4 DUP1 CALLDATASIZE SUB DUP2 ADD SWAP1 PUSH2 0x2E2 SWAP2 SWAP1 PUSH2 0xD64 JUMP JUMPDEST PUSH2 0x76F JUMP JUMPDEST PUSH1 0x40 MLOAD PUSH2 0x2F4 SWAP2 SWAP1 PUSH2 0xDE9 JUMP JUMPDEST PUSH1 0x40 MLOAD DUP1 SWAP2 SUB SWAP1 RETURN JUMPDEST PUSH2 0x317 PUSH1 0x4 DUP1 CALLDATASIZE SUB DUP2 ADD SWAP1 PUSH2 0x312 SWAP2 SWAP1 PUSH2 0xD64 JUMP JUMPDEST PUSH2 0x7C5 JUMP JUMPDEST STOP JUMPDEST PUSH1 0x0 PUSH1 0x3 PUSH1 0x0 DUP4 PUSH20 0xFFFFFFFFFFFFFFFFFFFFFFFFFFFFFFFFFFFFFFFF AND PUSH20 0xFFFFFFFFFFFFFFFFFFFFFFFFFFFFFFFFFFFFFFFF AND DUP2 MSTORE PUSH1 0x20 ADD SWAP1 DUP2 MSTORE PUSH1 0x20 ADD PUSH1 0x0 KECCAK256 PUSH1 0x0 SWAP1 SLOAD SWAP1 PUSH2 0x100 EXP SWAP1 DIV PUSH1 0xFF AND SWAP1 POP SWAP2 SWAP1 POP JUMP JUMPDEST PUSH1 0x1 PUSH1 0x20 MSTORE DUP1 PUSH1 0x0 MSTORE PUSH1 0x40 PUSH1 0x0 KECCAK256 PUSH1 0x0 SWAP2 POP SLOAD SWAP1 PUSH2 0x100 EXP SWAP1 DIV PUSH1 0xFF AND DUP2 JUMP JUMPDEST PUSH1 0x0 DUP1 SLOAD SWAP1 PUSH2 0x100 EXP SWAP1 DIV PUSH20 0xFFFFFFFFFFFFFFFFFFFFFFFFFFFFFFFFFFFFFFFF AND PUSH20 0xFFFFFFFFFFFFFFFFFFFFFFFFFFFFFFFFFFFFFFFF AND CALLER PUSH20 0xFFFFFFFFFFFFFFFFFFFFFFFFFFFFFFFFFFFFFFFF AND EQ DUP1 PUSH2 0x3EE JUMPI POP PUSH2 0x3ED CALLER PUSH2 0x6A3 JUMP JUMPDEST JUMPDEST PUSH2 0x42D JUMPI PUSH1 0x40 MLOAD PUSH32 0x8C379A000000000000000000000000000000000000000000000000000000000 DUP2 MSTORE PUSH1 0x4 ADD PUSH2 0x424 SWAP1 PUSH2 0xE04 JUMP JUMPDEST PUSH1 0x40 MLOAD DUP1 SWAP2 SUB SWAP1 REVERT JUMPDEST PUSH2 0x438 PUSH1 0x3 DUP3 PUSH2 0x871 JUMP JUMPDEST POP JUMP JUMPDEST PUSH1 0x0 DUP1 SLOAD SWAP1 PUSH2 0x100 EXP SWAP1 DIV PUSH20 0xFFFFFFFFFFFFFFFFFFFFFFFFFFFFFFFFFFFFFFFF AND PUSH20 0xFFFFFFFFFFFFFFFFFFFFFFFFFFFFFFFFFFFFFFFF AND CALLER PUSH20 0xFFFFFFFFFFFFFFFFFFFFFFFFFFFFFFFFFFFFFFFF AND EQ DUP1 PUSH2 0x49A JUMPI POP PUSH2 0x499 CALLER PUSH2 0x6A3 JUMP JUMPDEST JUMPDEST PUSH2 0x4D9 JUMPI PUSH1 0x40 MLOAD PUSH32 0x8C379A000000000000000000000000000000000000000000000000000000000 DUP2 MSTORE PUSH1 0x4 ADD PUSH2 0x4D0 SWAP1 PUSH2 0xE04 JUMP JUMPDEST PUSH1 0x40 MLOAD DUP1 SWAP2 SUB SWAP1 REVERT JUMPDEST PUSH2 0x4E4 PUSH1 0x0 DUP3 PUSH2 0x871 JUMP JUMPDEST POP JUMP JUMPDEST PUSH1 0x0 DUP1 SLOAD SWAP1 PUSH2 0x100 EXP SWAP1 DIV PUSH20 0xFFFFFFFFFFFFFFFFFFFFFFFFFFFFFFFFFFFFFFFF AND PUSH20 0xFFFFFFFFFFFFFFFFFFFFFFFFFFFFFFFFFFFFFFFF AND CALLER PUSH20 0xFFFFFFFFFFFFFFFFFFFFFFFFFFFFFFFFFFFFFFFF AND EQ DUP1 PUSH2 0x546 JUMPI POP PUSH2 0x545 CALLER PUSH2 0x6A3 JUMP JUMPDEST JUMPDEST PUSH2 0x585 JUMPI PUSH1 0x40 MLOAD PUSH32 0x8C379A000000000000000000000000000000000000000000000000000000000 DUP2 MSTORE PUSH1 0x4 ADD PUSH2 0x57C SWAP1 PUSH2 0xE04 JUMP JUMPDEST PUSH1 0x40 MLOAD DUP1 SWAP2 SUB SWAP1 REVERT JUMPDEST PUSH2 0x590 PUSH1 0x3 DUP3 PUSH2 0x871 JUMP JUMPDEST POP JUMP JUMPDEST PUSH1 0x0 DUP1 SLOAD SWAP1 PUSH2 0x100 EXP SWAP1 DIV PUSH20 0xFFFFFFFFFFFFFFFFFFFFFFFFFFFFFFFFFFFFFFFF AND PUSH20 0xFFFFFFFFFFFFFFFFFFFFFFFFFFFFFFFFFFFFFFFF AND CALLER PUSH20 0xFFFFFFFFFFFFFFFFFFFFFFFFFFFFFFFFFFFFFFFF AND EQ DUP1 PUSH2 0x5F2 JUMPI POP PUSH2 0x5F1 CALLER PUSH2 0x6A3 JUMP JUMPDEST JUMPDEST PUSH2 0x631 JUMPI PUSH1 0x40 MLOAD PUSH32 0x8C379A000000000000000000000000000000000000000000000000000000000 DUP2 MSTORE PUSH1 0x4 ADD PUSH2 0x628 SWAP1 PUSH2 0xE04 JUMP JUMPDEST PUSH1 0x40 MLOAD DUP1 SWAP2 SUB SWAP1 REVERT JUMPDEST PUSH2 0x63C PUSH1 0x2 DUP3 PUSH2 0x871 JUMP JUMPDEST POP JUMP JUMPDEST PUSH1 0x0 DUP1 SLOAD SWAP1 PUSH2 0x100 EXP SWAP1 DIV PUSH20 0xFFFFFFFFFFFFFFFFFFFFFFFFFFFFFFFFFFFFFFFF AND DUP2 JUMP JUMPDEST PUSH1 0x3 PUSH1 0x20 MSTORE DUP1 PUSH1 0x0 MSTORE PUSH1 0x40 PUSH1 0x0 KECCAK256 PUSH1 0x0 SWAP2 POP SLOAD SWAP1 PUSH2 0x100 EXP SWAP1 DIV PUSH1 0xFF AND DUP2 JUMP JUMPDEST PUSH1 0x4 PUSH1 0x20 MSTORE DUP1 PUSH1 0x0 MSTORE PUSH1 0x40 PUSH1 0x0 KECCAK256 PUSH1 0x0 SWAP2 POP SLOAD SWAP1 PUSH2 0x100 EXP SWAP1 DIV PUSH1 0xFF AND DUP2 JUMP JUMPDEST PUSH1 0x0 PUSH1 0x1 PUSH1 0x0 DUP4 PUSH20 0xFFFFFFFFFFFFFFFFFFFFFFFFFFFFFFFFFFFFFFFF AND PUSH20 0xFFFFFFFFFFFFFFFFFFFFFFFFFFFFFFFFFFFFFFFF AND DUP2 MSTORE PUSH1 0x20 ADD SWAP1 DUP2 MSTORE PUSH1 0x20 ADD PUSH1 0x0 KECCAK256 PUSH1 0x0 SWAP1 SLOAD SWAP1 PUSH2 0x100 EXP SWAP1 DIV PUSH1 0xFF AND SWAP1 POP SWAP2 SWAP1 POP JUMP JUMPDEST PUSH1 0x0 PUSH1 0x4 PUSH1 0x0 DUP4 PUSH20 0xFFFFFFFFFFFFFFFFFFFFFFFFFFFFFFFFFFFFFFFF AND PUSH20 0xFFFFFFFFFFFFFFFFFFFFFFFFFFFFFFFFFFFFFFFF AND DUP2 MSTORE PUSH1 0x20 ADD SWAP1 DUP2 MSTORE PUSH1 0x20 ADD PUSH1 0x0 KECCAK256 PUSH1 0x0 SWAP1 SLOAD SWAP1 PUSH2 0x100 EXP SWAP1 DIV PUSH1 0xFF AND SWAP1 POP SWAP2 SWAP1 POP JUMP JUMPDEST PUSH1 0x2 PUSH1 0x20 MSTORE DUP1 PUSH1 0x0 MSTORE PUSH1 0x40 PUSH1 0x0 KECCAK256 PUSH1 0x0 SWAP2 POP SLOAD SWAP1 PUSH2 0x100 EXP SWAP1 DIV PUSH1 0xFF AND DUP2 JUMP JUMPDEST PUSH1 0x0 PUSH1 0x2 PUSH1 0x0 DUP4 PUSH20 0xFFFFFFFFFFFFFFFFFFFFFFFFFFFFFFFFFFFFFFFF AND PUSH20 0xFFFFFFFFFFFFFFFFFFFFFFFFFFFFFFFFFFFFFFFF AND DUP2 MSTORE PUSH1 0x20 ADD SWAP1 DUP2 MSTORE PUSH1 0x20 ADD PUSH1 0x0 KECCAK256 PUSH1 0x0 SWAP1 SLOAD SWAP1 PUSH2 0x100 EXP SWAP1 DIV PUSH1 0xFF AND SWAP1 POP SWAP2 SWAP1 POP JUMP JUMPDEST PUSH1 0x0 DUP1 SLOAD SWAP1 PUSH2 0x100 EXP SWAP1 DIV PUSH20 0xFFFFFFFFFFFFFFFFFFFFFFFFFFFFFFFFFFFFFFFF AND PUSH20 0xFFFFFFFFFFFFFFFFFFFFFFFFFFFFFFFFFFFFFFFF AND CALLER PUSH20 0xFFFFFFFFFFFFFFFFFFFFFFFFFFFFFFFFFFFFFFFF AND EQ DUP1 PUSH2 0x824 JUMPI POP PUSH2 0x823 CALLER PUSH2 0x6A3 JUMP JUMPDEST JUMPDEST PUSH2 0x863 JUMPI PUSH1 0x40 MLOAD PUSH32 0x8C379A000000000000000000000000000000000000000000000000000000000 DUP2 MSTORE PUSH1 0x4 ADD PUSH2 0x85A SWAP1 PUSH2 0xE04 JUMP JUMPDEST PUSH1 0x40 MLOAD DUP1 SWAP2 SUB SWAP1 REVERT JUMPDEST PUSH2 0x86E PUSH1 0x1 DUP3 PUSH2 0x871 JUMP JUMPDEST POP JUMP JUMPDEST PUSH1 0x0 DUP1 SLOAD SWAP1 PUSH2 0x100 EXP SWAP1 DIV PUSH20 0xFFFFFFFFFFFFFFFFFFFFFFFFFFFFFFFFFFFFFFFF AND PUSH20 0xFFFFFFFFFFFFFFFFFFFFFFFFFFFFFFFFFFFFFFFF AND CALLER PUSH20 0xFFFFFFFFFFFFFFFFFFFFFFFFFFFFFFFFFFFFFFFF AND EQ DUP1 PUSH2 0x8D0 JUMPI POP PUSH2 0x8CF CALLER PUSH2 0x6A3 JUMP JUMPDEST JUMPDEST PUSH2 0x90F JUMPI PUSH1 0x40 MLOAD PUSH32 0x8C379A000000000000000000000000000000000000000000000000000000000 DUP2 MSTORE PUSH1 0x4 ADD PUSH2 0x906 SWAP1 PUSH2 0xE04 JUMP JUMPDEST PUSH1 0x40 MLOAD DUP1 SWAP2 SUB SWAP1 REVERT JUMPDEST PUSH1 0x0 PUSH1 0x1 PUSH1 0x0 DUP4 PUSH20 0xFFFFFFFFFFFFFFFFFFFFFFFFFFFFFFFFFFFFFFFF AND PUSH20 0xFFFFFFFFFFFFFFFFFFFFFFFFFFFFFFFFFFFFFFFF AND DUP2 MSTORE PUSH1 0x20 ADD SWAP1 DUP2 MSTORE PUSH1 0x20 ADD PUSH1 0x0 KECCAK256 PUSH1 0x0 PUSH2 0x100 EXP DUP2 SLOAD DUP2 PUSH1 0xFF MUL NOT AND SWAP1 DUP4 ISZERO ISZERO MUL OR SWAP1 SSTORE POP PUSH1 0x0 PUSH1 0x2 PUSH1 0x0 DUP4 PUSH20 0xFFFFFFFFFFFFFFFFFFFFFFFFFFFFFFFFFFFFFFFF AND PUSH20 0xFFFFFFFFFFFFFFFFFFFFFFFFFFFFFFFFFFFFFFFF AND DUP2 MSTORE PUSH1 0x20 ADD SWAP1 DUP2 MSTORE PUSH1 0x20 ADD PUSH1 0x0 KECCAK256 PUSH1 0x0 PUSH2 0x100 EXP DUP2 SLOAD DUP2 PUSH1 0xFF MUL NOT AND SWAP1 DUP4 ISZERO ISZERO MUL OR SWAP1 SSTORE POP PUSH1 0x0 PUSH1 0x3 PUSH1 0x0 DUP4 PUSH20 0xFFFFFFFFFFFFFFFFFFFFFFFFFFFFFFFFFFFFFFFF AND PUSH20 0xFFFFFFFFFFFFFFFFFFFFFFFFFFFFFFFFFFFFFFFF AND DUP2 MSTORE PUSH1 0x20 ADD SWAP1 DUP2 MSTORE PUSH1 0x20 ADD PUSH1 0x0 KECCAK256 PUSH1 0x0 PUSH2 0x100 EXP DUP2 SLOAD DUP2 PUSH1 0xFF MUL NOT AND SWAP1 DUP4 ISZERO ISZERO MUL OR SWAP1 SSTORE POP PUSH1 0x0 PUSH1 0x4 PUSH1 0x0 DUP4 PUSH20 0xFFFFFFFFFFFFFFFFFFFFFFFFFFFFFFFFFFFFFFFF AND PUSH20 0xFFFFFFFFFFFFFFFFFFFFFFFFFFFFFFFFFFFFFFFF AND DUP2 MSTORE PUSH1 0x20 ADD SWAP1 DUP2 MSTORE PUSH1 0x20 ADD PUSH1 0x0 KECCAK256 PUSH1 0x0 PUSH2 0x100 EXP DUP2 SLOAD DUP2 PUSH1 0xFF MUL NOT AND SWAP1 DUP4 ISZERO ISZERO MUL OR SWAP1 SSTORE POP PUSH1 0x0 PUSH1 0x3 DUP2 GT ISZERO PUSH2 0xAA9 JUMPI PUSH32 0x4E487B7100000000000000000000000000000000000000000000000000000000 PUSH1 0x0 MSTORE PUSH1 0x21 PUSH1 0x4 MSTORE PUSH1 0x24 PUSH1 0x0 REVERT JUMPDEST DUP3 PUSH1 0x3 DUP2 GT ISZERO PUSH2 0xAE2 JUMPI PUSH32 0x4E487B7100000000000000000000000000000000000000000000000000000000 PUSH1 0x0 MSTORE PUSH1 0x21 PUSH1 0x4 MSTORE PUSH1 0x24 PUSH1 0x0 REVERT JUMPDEST EQ ISZERO PUSH2 0xB44 JUMPI PUSH1 0x1 DUP1 PUSH1 0x0 DUP4 PUSH20 0xFFFFFFFFFFFFFFFFFFFFFFFFFFFFFFFFFFFFFFFF AND PUSH20 0xFFFFFFFFFFFFFFFFFFFFFFFFFFFFFFFFFFFFFFFF AND DUP2 MSTORE PUSH1 0x20 ADD SWAP1 DUP2 MSTORE PUSH1 0x20 ADD PUSH1 0x0 KECCAK256 PUSH1 0x0 PUSH2 0x100 EXP DUP2 SLOAD DUP2 PUSH1 0xFF MUL NOT AND SWAP1 DUP4 ISZERO ISZERO MUL OR SWAP1 SSTORE POP PUSH2 0xD4B JUMP JUMPDEST PUSH1 0x1 PUSH1 0x3 DUP2 GT ISZERO PUSH2 0xB7E JUMPI PUSH32 0x4E487B7100000000000000000000000000000000000000000000000000000000 PUSH1 0x0 MSTORE PUSH1 0x21 PUSH1 0x4 MSTORE PUSH1 0x24 PUSH1 0x0 REVERT JUMPDEST DUP3 PUSH1 0x3 DUP2 GT ISZERO PUSH2 0xBB7 JUMPI PUSH32 0x4E487B7100000000000000000000000000000000000000000000000000000000 PUSH1 0x0 MSTORE PUSH1 0x21 PUSH1 0x4 MSTORE PUSH1 0x24 PUSH1 0x0 REVERT JUMPDEST EQ ISZERO PUSH2 0xC1A JUMPI PUSH1 0x1 PUSH1 0x2 PUSH1 0x0 DUP4 PUSH20 0xFFFFFFFFFFFFFFFFFFFFFFFFFFFFFFFFFFFFFFFF AND PUSH20 0xFFFFFFFFFFFFFFFFFFFFFFFFFFFFFFFFFFFFFFFF AND DUP2 MSTORE PUSH1 0x20 ADD SWAP1 DUP2 MSTORE PUSH1 0x20 ADD PUSH1 0x0 KECCAK256 PUSH1 0x0 PUSH2 0x100 EXP DUP2 SLOAD DUP2 PUSH1 0xFF MUL NOT AND SWAP1 DUP4 ISZERO ISZERO MUL OR SWAP1 SSTORE POP PUSH2 0xD4A JUMP JUMPDEST PUSH1 0x2 PUSH1 0x3 DUP2 GT ISZERO PUSH2 0xC54 JUMPI PUSH32 0x4E487B7100000000000000000000000000000000000000000000000000000000 PUSH1 0x0 MSTORE PUSH1 0x21 PUSH1 0x4 MSTORE PUSH1 0x24 PUSH1 0x0 REVERT JUMPDEST DUP3 PUSH1 0x3 DUP2 GT ISZERO PUSH2 0xC8D JUMPI PUSH32 0x4E487B7100000000000000000000000000000000000000000000000000000000 PUSH1 0x0 MSTORE PUSH1 0x21 PUSH1 0x4 MSTORE PUSH1 0x24 PUSH1 0x0 REVERT JUMPDEST EQ ISZERO PUSH2 0xCF0 JUMPI PUSH1 0x1 PUSH1 0x3 PUSH1 0x0 DUP4 PUSH20 0xFFFFFFFFFFFFFFFFFFFFFFFFFFFFFFFFFFFFFFFF AND PUSH20 0xFFFFFFFFFFFFFFFFFFFFFFFFFFFFFFFFFFFFFFFF AND DUP2 MSTORE PUSH1 0x20 ADD SWAP1 DUP2 MSTORE PUSH1 0x20 ADD PUSH1 0x0 KECCAK256 PUSH1 0x0 PUSH2 0x100 EXP DUP2 SLOAD DUP2 PUSH1 0xFF MUL NOT AND SWAP1 DUP4 ISZERO ISZERO MUL OR SWAP1 SSTORE POP PUSH2 0xD49 JUMP JUMPDEST PUSH1 0x1 PUSH1 0x4 PUSH1 0x0 DUP4 PUSH20 0xFFFFFFFFFFFFFFFFFFFFFFFFFFFFFFFFFFFFFFFF AND PUSH20 0xFFFFFFFFFFFFFFFFFFFFFFFFFFFFFFFFFFFFFFFF AND DUP2 MSTORE PUSH1 0x20 ADD SWAP1 DUP2 MSTORE PUSH1 0x20 ADD PUSH1 0x0 KECCAK256 PUSH1 0x0 PUSH2 0x100 EXP DUP2 SLOAD DUP2 PUSH1 0xFF MUL NOT AND SWAP1 DUP4 ISZERO ISZERO MUL OR SWAP1 SSTORE POP JUMPDEST JUMPDEST JUMPDEST POP POP JUMP JUMPDEST PUSH1 0x0 DUP2 CALLDATALOAD SWAP1 POP PUSH2 0xD5E DUP2 PUSH2 0xEC2 JUMP JUMPDEST SWAP3 SWAP2 POP POP JUMP JUMPDEST PUSH1 0x0 PUSH1 0x20 DUP3 DUP5 SUB SLT ISZERO PUSH2 0xD76 JUMPI PUSH1 0x0 DUP1 REVERT JUMPDEST PUSH1 0x0 PUSH2 0xD84 DUP5 DUP3 DUP6 ADD PUSH2 0xD4F JUMP JUMPDEST SWAP2 POP POP SWAP3 SWAP2 POP POP JUMP JUMPDEST PUSH2 0xD96 DUP2 PUSH2 0xE35 JUMP JUMPDEST DUP3 MSTORE POP POP JUMP JUMPDEST PUSH2 0xDA5 DUP2 PUSH2 0xE47 JUMP JUMPDEST DUP3 MSTORE POP POP JUMP JUMPDEST PUSH1 0x0 PUSH2 0xDB8 PUSH1 0x22 DUP4 PUSH2 0xE24 JUMP JUMPDEST SWAP2 POP PUSH2 0xDC3 DUP3 PUSH2 0xE73 JUMP JUMPDEST PUSH1 0x40 DUP3 ADD SWAP1 POP SWAP2 SWAP1 POP JUMP JUMPDEST PUSH1 0x0 PUSH1 0x20 DUP3 ADD SWAP1 POP PUSH2 0xDE3 PUSH1 0x0 DUP4 ADD DUP5 PUSH2 0xD8D JUMP JUMPDEST SWAP3 SWAP2 POP POP JUMP JUMPDEST PUSH1 0x0 PUSH1 0x20 DUP3 ADD SWAP1 POP PUSH2 0xDFE PUSH1 0x0 DUP4 ADD DUP5 PUSH2 0xD9C JUMP JUMPDEST SWAP3 SWAP2 POP POP JUMP JUMPDEST PUSH1 0x0 PUSH1 0x20 DUP3 ADD SWAP1 POP DUP2 DUP2 SUB PUSH1 0x0 DUP4 ADD MSTORE PUSH2 0xE1D DUP2 PUSH2 0xDAB JUMP JUMPDEST SWAP1 POP SWAP2 SWAP1 POP JUMP JUMPDEST PUSH1 0x0 DUP3 DUP3 MSTORE PUSH1 0x20 DUP3 ADD SWAP1 POP SWAP3 SWAP2 POP POP JUMP JUMPDEST PUSH1 0x0 PUSH2 0xE40 DUP3 PUSH2 0xE53 JUMP JUMPDEST SWAP1 POP SWAP2 SWAP1 POP JUMP JUMPDEST PUSH1 0x0 DUP2 ISZERO ISZERO SWAP1 POP SWAP2 SWAP1 POP JUMP JUMPDEST PUSH1 0x0 PUSH20 0xFFFFFFFFFFFFFFFFFFFFFFFFFFFFFFFFFFFFFFFF DUP3 AND SWAP1 POP SWAP2 SWAP1 POP JUMP JUMPDEST PUSH32 0x4F6E6C79206F776E65722063616E2063616C6C20746869732066756E6374696F PUSH1 0x0 DUP3 ADD MSTORE PUSH32 0x6E2E000000000000000000000000000000000000000000000000000000000000 PUSH1 0x20 DUP3 ADD MSTORE POP JUMP JUMPDEST PUSH2 0xECB DUP2 PUSH2 0xE35 JUMP JUMPDEST DUP2 EQ PUSH2 0xED6 JUMPI PUSH1 0x0 DUP1 REVERT JUMPDEST POP JUMP INVALID LOG2 PUSH5 0x6970667358 0x22 SLT KECCAK256 0xC4 SWAP11 0xBF LOG1 PUSH20 0x6628CE6C9C104E2ADCA6C73E929FBC0D3F3F8D36 0xCB 0xE4 0xDE 0x2C CODECOPY 0xDB CALLVALUE PUSH5 0x736F6C6343 STOP ADDMOD ADD STOP CALLER "
				},
				"gasEstimates": {
					"creation": {
						"codeDepositCost": "771000",
						"executionCost": "43464",
						"totalCost": "814464"
					},
					"external": {
						"assignAdmin(address)": "infinite",
						"assignCouncilMember(address)": "108271",
						"assignGuest(address)": "infinite",
						"assignMember(address)": "infinite",
						"hasAdminRole(address)": "1650",
						"hasCouncilMemberRole(address)": "1649",
						"hasGuestRole(address)": "1605",
						"hasMemberRole(address)": "1607",
						"isAdmin(address)": "1591",
						"isCouncilMember(address)": "1589",
						"isGuest(address)": "1590",
						"isMember(address)": "1568",
						"owner()": "1300",
						"removeRole(address)": "infinite"
					},
					"internal": {
						"assignRole(enum RoleAssignment.Roles,address)": "infinite"
					}
				},
				"methodIdentifiers": {
					"assignAdmin(address)": "3da7d2ed",
					"assignCouncilMember(address)": "fce7789f",
					"assignGuest(address)": "297ed882",
					"assignMember(address)": "6329b13f",
					"hasAdminRole(address)": "c395fcb3",
					"hasCouncilMemberRole(address)": "fa4d7aae",
					"hasGuestRole(address)": "e8621e59",
					"hasMemberRole(address)": "056909b7",
					"isAdmin(address)": "24d7806c",
					"isCouncilMember(address)": "ebd7dc52",
					"isGuest(address)": "a9a96ab6",
					"isMember(address)": "a230c524",
					"owner()": "8da5cb5b",
					"removeRole(address)": "4762155d"
				}
			},
			"storageLayout": {
				"storage": [
					{
						"astId": 3,
						"contract": "OnDemo/contracts/Roles.sol:RoleAssignment",
						"label": "owner",
						"offset": 0,
						"slot": "0",
						"type": "t_address"
					},
					{
						"astId": 7,
						"contract": "OnDemo/contracts/Roles.sol:RoleAssignment",
						"label": "isAdmin",
						"offset": 0,
						"slot": "1",
						"type": "t_mapping(t_address,t_bool)"
					},
					{
						"astId": 11,
						"contract": "OnDemo/contracts/Roles.sol:RoleAssignment",
						"label": "isCouncilMember",
						"offset": 0,
						"slot": "2",
						"type": "t_mapping(t_address,t_bool)"
					},
					{
						"astId": 15,
						"contract": "OnDemo/contracts/Roles.sol:RoleAssignment",
						"label": "isMember",
						"offset": 0,
						"slot": "3",
						"type": "t_mapping(t_address,t_bool)"
					},
					{
						"astId": 19,
						"contract": "OnDemo/contracts/Roles.sol:RoleAssignment",
						"label": "isGuest",
						"offset": 0,
						"slot": "4",
						"type": "t_mapping(t_address,t_bool)"
					}
				],
				"types": {
					"t_address": {
						"encoding": "inplace",
						"label": "address",
						"numberOfBytes": "20"
					},
					"t_bool": {
						"encoding": "inplace",
						"label": "bool",
						"numberOfBytes": "1"
					},
					"t_mapping(t_address,t_bool)": {
						"encoding": "mapping",
						"key": "t_address",
						"label": "mapping(address => bool)",
						"numberOfBytes": "32",
						"value": "t_bool"
					}
				}
			},
			"userdoc": {
				"kind": "user",
				"methods": {},
				"version": 1
			}
		}
	}
}