{
	"OnDemo/contracts/AccountManagement.sol": {
		"AccountManagement": {
			"abi": [
				{
					"inputs": [
						{
							"internalType": "string",
							"name": "_firstName",
							"type": "string"
						},
						{
							"internalType": "string",
							"name": "_lastName",
							"type": "string"
						},
						{
							"internalType": "string",
							"name": "_mailAdress",
							"type": "string"
						}
					],
					"stateMutability": "nonpayable",
					"type": "constructor"
				},
				{
					"inputs": [
						{
							"internalType": "address",
							"name": "_address",
							"type": "address"
						}
					],
					"name": "activateAccount",
					"outputs": [],
					"stateMutability": "nonpayable",
					"type": "function"
				},
				{
					"inputs": [
						{
							"internalType": "address",
							"name": "_address",
							"type": "address"
						},
						{
							"internalType": "enum AccountManagement.Role",
							"name": "_role",
							"type": "uint8"
						}
					],
					"name": "assignRole",
					"outputs": [],
					"stateMutability": "nonpayable",
					"type": "function"
				},
				{
					"inputs": [
						{
							"internalType": "address",
							"name": "_address",
							"type": "address"
						}
					],
					"name": "burnAccount",
					"outputs": [],
					"stateMutability": "nonpayable",
					"type": "function"
				},
				{
					"inputs": [
						{
							"internalType": "address",
							"name": "_address",
							"type": "address"
						},
						{
							"internalType": "string",
							"name": "_firstName",
							"type": "string"
						},
						{
							"internalType": "string",
							"name": "_lastName",
							"type": "string"
						},
						{
							"internalType": "string",
							"name": "_mailAdress",
							"type": "string"
						}
					],
					"name": "createAccount",
					"outputs": [],
					"stateMutability": "nonpayable",
					"type": "function"
				},
				{
					"inputs": [
						{
							"internalType": "address",
							"name": "_address",
							"type": "address"
						}
					],
					"name": "deactivateAccount",
					"outputs": [],
					"stateMutability": "nonpayable",
					"type": "function"
				},
				{
					"inputs": [],
					"name": "getActiveMemberCount",
					"outputs": [
						{
							"internalType": "uint256",
							"name": "",
							"type": "uint256"
						}
					],
					"stateMutability": "view",
					"type": "function"
				},
				{
					"inputs": [
						{
							"internalType": "address",
							"name": "_address",
							"type": "address"
						}
					],
					"name": "getUser",
					"outputs": [
						{
							"components": [
								{
									"internalType": "address",
									"name": "userAddress",
									"type": "address"
								},
								{
									"internalType": "string",
									"name": "firstName",
									"type": "string"
								},
								{
									"internalType": "string",
									"name": "lastName",
									"type": "string"
								},
								{
									"internalType": "string",
									"name": "mailAdress",
									"type": "string"
								},
								{
									"internalType": "bool",
									"name": "isActive",
									"type": "bool"
								},
								{
									"components": [
										{
											"internalType": "bool",
											"name": "isLeader",
											"type": "bool"
										},
										{
											"internalType": "bool",
											"name": "isCouncilMember",
											"type": "bool"
										},
										{
											"internalType": "bool",
											"name": "isMember",
											"type": "bool"
										},
										{
											"internalType": "bool",
											"name": "isGuest",
											"type": "bool"
										}
									],
									"internalType": "struct AccountManagement.RoleMap",
									"name": "roleMap",
									"type": "tuple"
								}
							],
							"internalType": "struct AccountManagement.User",
							"name": "",
							"type": "tuple"
						}
					],
					"stateMutability": "view",
					"type": "function"
				},
				{
					"inputs": [
						{
							"internalType": "address",
							"name": "_address",
							"type": "address"
						}
					],
					"name": "hasCouncilMemberRole",
					"outputs": [
						{
							"internalType": "bool",
							"name": "",
							"type": "bool"
						}
					],
					"stateMutability": "view",
					"type": "function"
				},
				{
					"inputs": [
						{
							"internalType": "address",
							"name": "_address",
							"type": "address"
						}
					],
					"name": "hasGuestRole",
					"outputs": [
						{
							"internalType": "bool",
							"name": "",
							"type": "bool"
						}
					],
					"stateMutability": "view",
					"type": "function"
				},
				{
					"inputs": [
						{
							"internalType": "address",
							"name": "_address",
							"type": "address"
						}
					],
					"name": "hasLeaderRole",
					"outputs": [
						{
							"internalType": "bool",
							"name": "",
							"type": "bool"
						}
					],
					"stateMutability": "view",
					"type": "function"
				},
				{
					"inputs": [
						{
							"internalType": "address",
							"name": "_address",
							"type": "address"
						}
					],
					"name": "hasMemberRole",
					"outputs": [
						{
							"internalType": "bool",
							"name": "",
							"type": "bool"
						}
					],
					"stateMutability": "view",
					"type": "function"
				},
				{
					"inputs": [],
					"name": "owner",
					"outputs": [
						{
							"internalType": "address",
							"name": "",
							"type": "address"
						}
					],
					"stateMutability": "view",
					"type": "function"
				},
				{
					"inputs": [
						{
							"internalType": "address",
							"name": "_address",
							"type": "address"
						},
						{
							"internalType": "enum AccountManagement.Role",
							"name": "_role",
							"type": "uint8"
						}
					],
					"name": "removeRole",
					"outputs": [],
					"stateMutability": "nonpayable",
					"type": "function"
				},
				{
					"inputs": [],
					"name": "testAccountManagement",
					"outputs": [],
					"stateMutability": "nonpayable",
					"type": "function"
				},
				{
					"inputs": [
						{
							"internalType": "address",
							"name": "_address",
							"type": "address"
						}
					],
					"name": "userExists",
					"outputs": [
						{
							"internalType": "bool",
							"name": "",
							"type": "bool"
						}
					],
					"stateMutability": "view",
					"type": "function"
				}
			],
			"devdoc": {
				"kind": "dev",
				"methods": {},
				"version": 1
			},
			"evm": {
				"assembly": "    /* \"OnDemo/contracts/AccountManagement.sol\":66:10672  contract AccountManagement {... */\n  mstore(0x40, 0x80)\n    /* \"OnDemo/contracts/AccountManagement.sol\":1349:1685  constructor(string memory _firstName, string memory _lastName, string memory _mailAdress) {... */\n  callvalue\n  dup1\n  iszero\n  tag_1\n  jumpi\n  0x00\n  dup1\n  revert\ntag_1:\n  pop\n  mload(0x40)\n  sub(codesize, bytecodeSize)\n  dup1\n  bytecodeSize\n  dup4\n  codecopy\n  dup2\n  add\n  0x40\n  dup2\n  swap1\n  mstore\n  tag_2\n  swap2\n  tag_3\n  jump\t// in\ntag_2:\n    /* \"OnDemo/contracts/AccountManagement.sol\":1450:1455  owner */\n  0x01\n    /* \"OnDemo/contracts/AccountManagement.sol\":1450:1468  owner = msg.sender */\n  dup1\n  sload\n  not(sub(shl(0xa0, 0x01), 0x01))\n  and\n    /* \"OnDemo/contracts/AccountManagement.sol\":1458:1468  msg.sender */\n  caller\n    /* \"OnDemo/contracts/AccountManagement.sol\":1450:1468  owner = msg.sender */\n  swap1\n  dup2\n  or\n  swap1\n  swap2\n  sstore\n    /* \"OnDemo/contracts/AccountManagement.sol\":1479:1540  createAccount(msg.sender, _firstName, _lastName, _mailAdress) */\n  tag_6\n  swap1\n    /* \"OnDemo/contracts/AccountManagement.sol\":1505:1515  _firstName */\n  dup5\n    /* \"OnDemo/contracts/AccountManagement.sol\":1517:1526  _lastName */\n  dup5\n    /* \"OnDemo/contracts/AccountManagement.sol\":1528:1539  _mailAdress */\n  dup5\n    /* \"OnDemo/contracts/AccountManagement.sol\":1479:1492  createAccount */\n  tag_7\n    /* \"OnDemo/contracts/AccountManagement.sol\":1479:1540  createAccount(msg.sender, _firstName, _lastName, _mailAdress) */\n  jump\t// in\ntag_6:\n    /* \"OnDemo/contracts/AccountManagement.sol\":1557:1592  assignRole(msg.sender, Role.LEADER) */\n  tag_8\n    /* \"OnDemo/contracts/AccountManagement.sol\":1568:1578  msg.sender */\n  caller\n    /* \"OnDemo/contracts/AccountManagement.sol\":1580:1591  Role.LEADER */\n  0x00\n    /* \"OnDemo/contracts/AccountManagement.sol\":1557:1567  assignRole */\n  tag_9\n    /* \"OnDemo/contracts/AccountManagement.sol\":1557:1592  assignRole(msg.sender, Role.LEADER) */\n  jump\t// in\ntag_8:\n    /* \"OnDemo/contracts/AccountManagement.sol\":1603:1637  removeRole(msg.sender, Role.GUEST) */\n  tag_10\n    /* \"OnDemo/contracts/AccountManagement.sol\":1614:1624  msg.sender */\n  caller\n    /* \"OnDemo/contracts/AccountManagement.sol\":1626:1636  Role.GUEST */\n  0x03\n    /* \"OnDemo/contracts/AccountManagement.sol\":1603:1613  removeRole */\n  tag_11\n    /* \"OnDemo/contracts/AccountManagement.sol\":1603:1637  removeRole(msg.sender, Role.GUEST) */\n  jump\t// in\ntag_10:\n    /* \"OnDemo/contracts/AccountManagement.sol\":1650:1677  activateAccount(msg.sender) */\n  tag_12\n    /* \"OnDemo/contracts/AccountManagement.sol\":1666:1676  msg.sender */\n  caller\n    /* \"OnDemo/contracts/AccountManagement.sol\":1650:1665  activateAccount */\n  tag_13\n    /* \"OnDemo/contracts/AccountManagement.sol\":1650:1677  activateAccount(msg.sender) */\n  jump\t// in\ntag_12:\n    /* \"OnDemo/contracts/AccountManagement.sol\":1349:1685  constructor(string memory _firstName, string memory _lastName, string memory _mailAdress) {... */\n  pop\n  pop\n  pop\n    /* \"OnDemo/contracts/AccountManagement.sol\":66:10672  contract AccountManagement {... */\n  jump(tag_122)\n    /* \"OnDemo/contracts/AccountManagement.sol\":2578:2945  function createAccount(address _address, string memory _firstName, string memory _lastName, string memory _mailAdress) public onlyIfUserNotExists(_address){... */\ntag_7:\n  sub(shl(0xa0, 0x01), 0x01)\n    /* \"OnDemo/contracts/AccountManagement.sol\":2343:2358  users[_address] */\n  dup1\n  dup6\n  and\n    /* \"OnDemo/contracts/AccountManagement.sol\":2382:2383  0 */\n  0x00\n    /* \"OnDemo/contracts/AccountManagement.sol\":2343:2358  users[_address] */\n  swap1\n  dup2\n  mstore\n    /* \"OnDemo/contracts/AccountManagement.sol\":2343:2348  users */\n  0x02\n    /* \"OnDemo/contracts/AccountManagement.sol\":2343:2358  users[_address] */\n  0x20\n  mstore\n  0x40\n  swap1\n  keccak256\n    /* \"OnDemo/contracts/AccountManagement.sol\":2343:2370  users[_address].userAddress */\n  sload\n    /* \"OnDemo/contracts/AccountManagement.sol\":2724:2732  _address */\n  dup6\n  swap2\n    /* \"OnDemo/contracts/AccountManagement.sol\":2343:2370  users[_address].userAddress */\n  and\n    /* \"OnDemo/contracts/AccountManagement.sol\":2343:2384  users[_address].userAddress == address(0) */\n  iszero\n    /* \"OnDemo/contracts/AccountManagement.sol\":2335:2411  require(users[_address].userAddress == address(0), \"Account already exists\") */\n  tag_16\n  jumpi\n  mload(0x40)\n  shl(0xe5, 0x461bcd)\n  dup2\n  mstore\n    /* \"#utility.yul\":2009:2011   */\n  0x20\n    /* \"OnDemo/contracts/AccountManagement.sol\":2335:2411  require(users[_address].userAddress == address(0), \"Account already exists\") */\n  0x04\n  dup3\n  add\n    /* \"#utility.yul\":1991:2012   */\n  mstore\n    /* \"#utility.yul\":2048:2050   */\n  0x16\n    /* \"#utility.yul\":2028:2046   */\n  0x24\n  dup3\n  add\n    /* \"#utility.yul\":2021:2051   */\n  mstore\n    /* \"#utility.yul\":2087:2111   */\n  0x4163636f756e7420616c72656164792065786973747300000000000000000000\n    /* \"#utility.yul\":2067:2085   */\n  0x44\n  dup3\n  add\n    /* \"#utility.yul\":2060:2112   */\n  mstore\n    /* \"#utility.yul\":2129:2147   */\n  0x64\n  add\n    /* \"OnDemo/contracts/AccountManagement.sol\":2335:2411  require(users[_address].userAddress == address(0), \"Account already exists\") */\ntag_17:\n  mload(0x40)\n  dup1\n  swap2\n  sub\n  swap1\n  revert\ntag_16:\n    /* \"OnDemo/contracts/AccountManagement.sol\":2769:2803  RoleMap(false, false, false, true) */\n  0x40\n  dup1\n  mload\n  0x80\n  dup1\n  dup3\n  add\n  dup4\n  mstore\n  0x00\n  dup1\n  dup4\n  mstore\n  0x20\n  dup1\n  dup5\n  add\n  dup3\n  swap1\n  mstore\n  dup4\n  dup6\n  add\n  dup3\n  swap1\n  mstore\n  0x01\n  0x60\n  dup1\n  dup7\n  add\n  dup3\n  swap1\n  mstore\n    /* \"OnDemo/contracts/AccountManagement.sol\":2833:2899  User(_address, _firstName, _lastName, _mailAdress, false, roleMap) */\n  dup7\n  mload\n  0xc0\n  dup2\n  add\n  dup9\n  mstore\n  sub(shl(0xa0, 0x01), 0x01)\n  dup14\n  dup2\n  and\n  dup1\n  dup4\n  mstore\n  dup3\n  dup7\n  add\n  dup15\n  dup2\n  mstore\n  dup4\n  dup12\n  add\n  dup15\n  swap1\n  mstore\n  swap4\n  dup4\n  add\n  dup13\n  swap1\n  mstore\n  swap7\n  dup3\n  add\n  dup7\n  swap1\n  mstore\n  0xa0\n  dup3\n  add\n  dup9\n  swap1\n  mstore\n    /* \"OnDemo/contracts/AccountManagement.sol\":2910:2925  users[_address] */\n  swap6\n  dup6\n  mstore\n    /* \"OnDemo/contracts/AccountManagement.sol\":2910:2915  users */\n  0x02\n    /* \"OnDemo/contracts/AccountManagement.sol\":2910:2925  users[_address] */\n  dup5\n  mstore\n  swap7\n  swap1\n  swap4\n  keccak256\n    /* \"OnDemo/contracts/AccountManagement.sol\":2910:2932  users[_address] = user */\n  dup7\n  mload\n  dup2\n  sload\n  not(sub(shl(0xa0, 0x01), 0x01))\n  and\n  swap6\n  and\n  swap5\n  swap1\n  swap5\n  or\n  dup5\n  sstore\n  swap2\n  mload\n  dup1\n  mload\n    /* \"OnDemo/contracts/AccountManagement.sol\":2769:2803  RoleMap(false, false, false, true) */\n  swap5\n  swap6\n    /* \"OnDemo/contracts/AccountManagement.sol\":2833:2899  User(_address, _firstName, _lastName, _mailAdress, false, roleMap) */\n  swap5\n  dup6\n  swap5\n    /* \"OnDemo/contracts/AccountManagement.sol\":2910:2925  users[_address] */\n  swap4\n    /* \"OnDemo/contracts/AccountManagement.sol\":2910:2932  users[_address] = user */\n  tag_20\n  swap4\n  swap1\n  dup6\n  add\n  swap3\n  add\n  swap1\n  tag_21\n  jump\t// in\ntag_20:\n  pop\n  0x40\n  dup3\n  add\n  mload\n  dup1\n  mload\n  tag_22\n  swap2\n  0x02\n  dup5\n  add\n  swap2\n  0x20\n  swap1\n  swap2\n  add\n  swap1\n  tag_21\n  jump\t// in\ntag_22:\n  pop\n  0x60\n  dup3\n  add\n  mload\n  dup1\n  mload\n  tag_23\n  swap2\n  0x03\n  dup5\n  add\n  swap2\n  0x20\n  swap1\n  swap2\n  add\n  swap1\n  tag_21\n  jump\t// in\ntag_23:\n  pop\n  0x80\n  dup3\n  add\n  mload\n  0x04\n  dup3\n  add\n  dup1\n  sload\n  swap2\n  iszero\n  iszero\n  not(0xff)\n  swap1\n  swap3\n  and\n  swap2\n  swap1\n  swap2\n  or\n  swap1\n  sstore\n  0xa0\n  swap1\n  swap2\n  add\n  mload\n  dup1\n  mload\n  0x05\n  swap1\n  swap3\n  add\n  dup1\n  sload\n  0x20\n  dup4\n  add\n  mload\n  0x40\n  dup5\n  add\n  mload\n  0x60\n  swap1\n  swap5\n  add\n  mload\n  iszero\n  iszero\n  0x01000000\n  mul\n  not(0xff000000)\n  swap5\n  iszero\n  iszero\n  0x010000\n  mul\n  swap5\n  swap1\n  swap5\n  and\n  not(0xffff0000)\n  swap2\n  iszero\n  iszero\n  0x0100\n  mul\n  not(0xff00)\n  swap7\n  iszero\n  iszero\n  swap7\n  swap1\n  swap7\n  and\n  not(0xffff)\n  swap1\n  swap4\n  and\n  swap3\n  swap1\n  swap3\n  or\n  swap5\n  swap1\n  swap5\n  or\n  swap4\n  swap1\n  swap4\n  and\n  swap3\n  swap1\n  swap3\n  or\n  or\n  swap1\n  sstore\n  pop\n  pop\n  pop\n  pop\n  pop\n  pop\n  pop\n    /* \"OnDemo/contracts/AccountManagement.sol\":2578:2945  function createAccount(address _address, string memory _firstName, string memory _lastName, string memory _mailAdress) public onlyIfUserNotExists(_address){... */\n  jump\t// out\n    /* \"OnDemo/contracts/AccountManagement.sol\":4403:5009  function assignRole(address _address, Role _role) public onlyLeader onlyIfUserExists(_address){... */\ntag_9:\n    /* \"OnDemo/contracts/AccountManagement.sol\":2015:2020  owner */\n  and(sub(shl(0xa0, 0x01), 0x01), sload(0x01))\n    /* \"OnDemo/contracts/AccountManagement.sol\":2001:2011  msg.sender */\n  caller\n    /* \"OnDemo/contracts/AccountManagement.sol\":2001:2020  msg.sender == owner */\n  eq\n  dup1\n    /* \"OnDemo/contracts/AccountManagement.sol\":2001:2054  msg.sender == owner || this.hasLeaderRole(msg.sender) */\n  tag_30\n  jumpi\n  pop\n    /* \"OnDemo/contracts/AccountManagement.sol\":2024:2054  this.hasLeaderRole(msg.sender) */\n  mload(0x40)\n  shl(0xe0, 0x297027d5)\n  dup2\n  mstore\n    /* \"OnDemo/contracts/AccountManagement.sol\":2043:2053  msg.sender */\n  caller\n    /* \"OnDemo/contracts/AccountManagement.sol\":2024:2054  this.hasLeaderRole(msg.sender) */\n  0x04\n  dup3\n  add\n    /* \"#utility.yul\":2304:2355   */\n  mstore\n    /* \"OnDemo/contracts/AccountManagement.sol\":2024:2028  this */\n  address\n  swap1\n    /* \"OnDemo/contracts/AccountManagement.sol\":2024:2042  this.hasLeaderRole */\n  0x297027d5\n  swap1\n    /* \"#utility.yul\":2277:2295   */\n  0x24\n  add\n    /* \"OnDemo/contracts/AccountManagement.sol\":2024:2054  this.hasLeaderRole(msg.sender) */\n  0x20\n  mload(0x40)\n  dup1\n  dup4\n  sub\n  dup2\n  dup7\n  gas\n  staticcall\n  iszero\n  dup1\n  iszero\n  tag_29\n  jumpi\n  returndatasize\n  0x00\n  dup1\n  returndatacopy\n  revert(0x00, returndatasize)\ntag_29:\n  pop\n  pop\n  pop\n  pop\n  mload(0x40)\n  returndatasize\n  not(0x1f)\n  0x1f\n  dup3\n  add\n  and\n  dup3\n  add\n  dup1\n  0x40\n  mstore\n  pop\n  dup2\n  add\n  swap1\n  tag_30\n  swap2\n  swap1\n  tag_31\n  jump\t// in\ntag_30:\n    /* \"OnDemo/contracts/AccountManagement.sol\":1993:2093  require(msg.sender == owner || this.hasLeaderRole(msg.sender), \"Only owner can call this function.\") */\n  tag_32\n  jumpi\n  mload(0x40)\n  shl(0xe5, 0x461bcd)\n  dup2\n  mstore\n    /* \"#utility.yul\":2850:2852   */\n  0x20\n    /* \"OnDemo/contracts/AccountManagement.sol\":1993:2093  require(msg.sender == owner || this.hasLeaderRole(msg.sender), \"Only owner can call this function.\") */\n  0x04\n  dup3\n  add\n    /* \"#utility.yul\":2832:2853   */\n  mstore\n    /* \"#utility.yul\":2889:2891   */\n  0x22\n    /* \"#utility.yul\":2869:2887   */\n  0x24\n  dup3\n  add\n    /* \"#utility.yul\":2862:2892   */\n  mstore\n  0x00\n  dup1\n  mload\n  0x20\n  data_d8d1e0a5e7ccd4410122177f5a0c0af4074aba49fe37d9f918e1c314da792c7b\n  dup4\n  codecopy\n  dup2\n  mload\n  swap2\n  mstore\n    /* \"#utility.yul\":2908:2926   */\n  0x44\n  dup3\n  add\n    /* \"#utility.yul\":2901:2963   */\n  mstore\n  shl(0xf1, 0x3717)\n    /* \"#utility.yul\":2979:2997   */\n  0x64\n  dup3\n  add\n    /* \"#utility.yul\":2972:3004   */\n  mstore\n    /* \"#utility.yul\":3021:3040   */\n  0x84\n  add\n    /* \"OnDemo/contracts/AccountManagement.sol\":1993:2093  require(msg.sender == owner || this.hasLeaderRole(msg.sender), \"Only owner can call this function.\") */\n  tag_17\n    /* \"#utility.yul\":2648:3046   */\n  jump\n    /* \"OnDemo/contracts/AccountManagement.sol\":1993:2093  require(msg.sender == owner || this.hasLeaderRole(msg.sender), \"Only owner can call this function.\") */\ntag_32:\n  sub(shl(0xa0, 0x01), 0x01)\n    /* \"OnDemo/contracts/AccountManagement.sol\":2183:2198  users[_address] */\n  dup1\n  dup4\n  and\n    /* \"OnDemo/contracts/AccountManagement.sol\":2222:2223  0 */\n  0x00\n    /* \"OnDemo/contracts/AccountManagement.sol\":2183:2198  users[_address] */\n  swap1\n  dup2\n  mstore\n    /* \"OnDemo/contracts/AccountManagement.sol\":2183:2188  users */\n  0x02\n    /* \"OnDemo/contracts/AccountManagement.sol\":2183:2198  users[_address] */\n  0x20\n  mstore\n  0x40\n  swap1\n  keccak256\n    /* \"OnDemo/contracts/AccountManagement.sol\":2183:2210  users[_address].userAddress */\n  sload\n    /* \"OnDemo/contracts/AccountManagement.sol\":4488:4496  _address */\n  dup4\n  swap2\n    /* \"OnDemo/contracts/AccountManagement.sol\":2183:2210  users[_address].userAddress */\n  and\n    /* \"OnDemo/contracts/AccountManagement.sol\":2175:2250  require(users[_address].userAddress != address(0), \"Account doesn't exist\") */\n  tag_36\n  jumpi\n  mload(0x40)\n  shl(0xe5, 0x461bcd)\n  dup2\n  mstore\n    /* \"#utility.yul\":3253:3255   */\n  0x20\n    /* \"OnDemo/contracts/AccountManagement.sol\":2175:2250  require(users[_address].userAddress != address(0), \"Account doesn't exist\") */\n  0x04\n  dup3\n  add\n    /* \"#utility.yul\":3235:3256   */\n  mstore\n    /* \"#utility.yul\":3292:3294   */\n  0x15\n    /* \"#utility.yul\":3272:3290   */\n  0x24\n  dup3\n  add\n    /* \"#utility.yul\":3265:3295   */\n  mstore\n  0x00\n  dup1\n  mload\n  0x20\n  data_e6ed72e17aa5bbc2733e407a8a5ce240e643cb97c5489a8df4628b43507de669\n  dup4\n  codecopy\n  dup2\n  mload\n  swap2\n  mstore\n    /* \"#utility.yul\":3311:3329   */\n  0x44\n  dup3\n  add\n    /* \"#utility.yul\":3304:3355   */\n  mstore\n    /* \"#utility.yul\":3372:3390   */\n  0x64\n  add\n    /* \"OnDemo/contracts/AccountManagement.sol\":2175:2250  require(users[_address].userAddress != address(0), \"Account doesn't exist\") */\n  tag_17\n    /* \"#utility.yul\":3051:3396   */\n  jump\n    /* \"OnDemo/contracts/AccountManagement.sol\":2175:2250  require(users[_address].userAddress != address(0), \"Account doesn't exist\") */\ntag_36:\n  sub(shl(0xa0, 0x01), 0x01)\n    /* \"OnDemo/contracts/AccountManagement.sol\":4565:4580  users[_address] */\n  dup4\n  and\n    /* \"OnDemo/contracts/AccountManagement.sol\":4545:4562  User storage user */\n  0x00\n    /* \"OnDemo/contracts/AccountManagement.sol\":4565:4580  users[_address] */\n  swap1\n  dup2\n  mstore\n    /* \"OnDemo/contracts/AccountManagement.sol\":4565:4570  users */\n  0x02\n    /* \"OnDemo/contracts/AccountManagement.sol\":4565:4580  users[_address] */\n  0x20\n  mstore\n  0x40\n  dup2\n  keccak256\n  swap1\n    /* \"OnDemo/contracts/AccountManagement.sol\":4617:4629  user.roleMap */\n  0x05\n  dup3\n  add\n  swap1\n    /* \"OnDemo/contracts/AccountManagement.sol\":4645:4650  _role */\n  dup5\n    /* \"OnDemo/contracts/AccountManagement.sol\":4645:4665  _role == Role.LEADER */\n  0x03\n  dup2\n  gt\n  iszero\n  tag_44\n  jumpi\n  tag_44\n  tag_42\n  jump\t// in\ntag_44:\n  eq\n    /* \"OnDemo/contracts/AccountManagement.sol\":4642:5002  if(_role == Role.LEADER){... */\n  iszero\n  tag_45\n  jumpi\n    /* \"OnDemo/contracts/AccountManagement.sol\":4681:4704  roleMap.isLeader = true */\n  dup1\n  sload\n  not(0xff)\n  and\n    /* \"OnDemo/contracts/AccountManagement.sol\":4700:4704  true */\n  0x01\n    /* \"OnDemo/contracts/AccountManagement.sol\":4681:4704  roleMap.isLeader = true */\n  or\n  dup2\n  sstore\n    /* \"OnDemo/contracts/AccountManagement.sol\":4642:5002  if(_role == Role.LEADER){... */\n  jump(tag_63)\ntag_45:\n    /* \"OnDemo/contracts/AccountManagement.sol\":4743:4761  Role.COUNCILMEMBER */\n  0x01\n    /* \"OnDemo/contracts/AccountManagement.sol\":4734:4739  _role */\n  dup5\n    /* \"OnDemo/contracts/AccountManagement.sol\":4734:4761  _role == Role.COUNCILMEMBER */\n  0x03\n  dup2\n  gt\n  iszero\n  tag_50\n  jumpi\n  tag_50\n  tag_42\n  jump\t// in\ntag_50:\n  eq\n    /* \"OnDemo/contracts/AccountManagement.sol\":4731:5002  if(_role == Role.COUNCILMEMBER){... */\n  iszero\n  tag_51\n  jumpi\n    /* \"OnDemo/contracts/AccountManagement.sol\":4777:4807  roleMap.isCouncilMember = true */\n  dup1\n  sload\n  not(0xff00)\n  and\n  0x0100\n  or\n  dup2\n  sstore\n    /* \"OnDemo/contracts/AccountManagement.sol\":4731:5002  if(_role == Role.COUNCILMEMBER){... */\n  jump(tag_63)\ntag_51:\n    /* \"OnDemo/contracts/AccountManagement.sol\":4853:4864  Role.MEMBER */\n  0x02\n    /* \"OnDemo/contracts/AccountManagement.sol\":4844:4849  _role */\n  dup5\n    /* \"OnDemo/contracts/AccountManagement.sol\":4844:4864  _role == Role.MEMBER */\n  0x03\n  dup2\n  gt\n  iszero\n  tag_56\n  jumpi\n  tag_56\n  tag_42\n  jump\t// in\ntag_56:\n  eq\n    /* \"OnDemo/contracts/AccountManagement.sol\":4841:5002  if(_role == Role.MEMBER){... */\n  iszero\n  tag_57\n  jumpi\n    /* \"OnDemo/contracts/AccountManagement.sol\":4880:4903  roleMap.isMember = true */\n  dup1\n  sload\n  not(0xff0000)\n  and\n  0x010000\n  or\n  dup2\n  sstore\n    /* \"OnDemo/contracts/AccountManagement.sol\":4841:5002  if(_role == Role.MEMBER){... */\n  jump(tag_63)\ntag_57:\n    /* \"OnDemo/contracts/AccountManagement.sol\":4942:4952  Role.GUEST */\n  0x03\n    /* \"OnDemo/contracts/AccountManagement.sol\":4933:4938  _role */\n  dup5\n    /* \"OnDemo/contracts/AccountManagement.sol\":4933:4952  _role == Role.GUEST */\n  0x03\n  dup2\n  gt\n  iszero\n  tag_62\n  jumpi\n  tag_62\n  tag_42\n  jump\t// in\ntag_62:\n  eq\n    /* \"OnDemo/contracts/AccountManagement.sol\":4930:5002  if(_role == Role.GUEST){... */\n  iszero\n  tag_63\n  jumpi\n    /* \"OnDemo/contracts/AccountManagement.sol\":4968:4990  roleMap.isGuest = true */\n  dup1\n  sload\n  not(0xff000000)\n  and\n  0x01000000\n  or\n  dup2\n  sstore\n    /* \"OnDemo/contracts/AccountManagement.sol\":4930:5002  if(_role == Role.GUEST){... */\ntag_63:\n    /* \"OnDemo/contracts/AccountManagement.sol\":4497:5009  {... */\n  pop\n  pop\n    /* \"OnDemo/contracts/AccountManagement.sol\":2104:2105  _ */\n  pop\n    /* \"OnDemo/contracts/AccountManagement.sol\":4403:5009  function assignRole(address _address, Role _role) public onlyLeader onlyIfUserExists(_address){... */\n  pop\n  pop\n  jump\t// out\n    /* \"OnDemo/contracts/AccountManagement.sol\":5017:5639  function removeRole(address _address, Role _role) public onlyLeader onlyIfUserExists(_address){... */\ntag_11:\n    /* \"OnDemo/contracts/AccountManagement.sol\":2015:2020  owner */\n  and(sub(shl(0xa0, 0x01), 0x01), sload(0x01))\n    /* \"OnDemo/contracts/AccountManagement.sol\":2001:2011  msg.sender */\n  caller\n    /* \"OnDemo/contracts/AccountManagement.sol\":2001:2020  msg.sender == owner */\n  eq\n  dup1\n    /* \"OnDemo/contracts/AccountManagement.sol\":2001:2054  msg.sender == owner || this.hasLeaderRole(msg.sender) */\n  tag_69\n  jumpi\n  pop\n    /* \"OnDemo/contracts/AccountManagement.sol\":2024:2054  this.hasLeaderRole(msg.sender) */\n  mload(0x40)\n  shl(0xe0, 0x297027d5)\n  dup2\n  mstore\n    /* \"OnDemo/contracts/AccountManagement.sol\":2043:2053  msg.sender */\n  caller\n    /* \"OnDemo/contracts/AccountManagement.sol\":2024:2054  this.hasLeaderRole(msg.sender) */\n  0x04\n  dup3\n  add\n    /* \"#utility.yul\":2304:2355   */\n  mstore\n    /* \"OnDemo/contracts/AccountManagement.sol\":2024:2028  this */\n  address\n  swap1\n    /* \"OnDemo/contracts/AccountManagement.sol\":2024:2042  this.hasLeaderRole */\n  0x297027d5\n  swap1\n    /* \"#utility.yul\":2277:2295   */\n  0x24\n  add\n    /* \"OnDemo/contracts/AccountManagement.sol\":2024:2054  this.hasLeaderRole(msg.sender) */\n  0x20\n  mload(0x40)\n  dup1\n  dup4\n  sub\n  dup2\n  dup7\n  gas\n  staticcall\n  iszero\n  dup1\n  iszero\n  tag_68\n  jumpi\n  returndatasize\n  0x00\n  dup1\n  returndatacopy\n  revert(0x00, returndatasize)\ntag_68:\n  pop\n  pop\n  pop\n  pop\n  mload(0x40)\n  returndatasize\n  not(0x1f)\n  0x1f\n  dup3\n  add\n  and\n  dup3\n  add\n  dup1\n  0x40\n  mstore\n  pop\n  dup2\n  add\n  swap1\n  tag_69\n  swap2\n  swap1\n  tag_31\n  jump\t// in\ntag_69:\n    /* \"OnDemo/contracts/AccountManagement.sol\":1993:2093  require(msg.sender == owner || this.hasLeaderRole(msg.sender), \"Only owner can call this function.\") */\n  tag_70\n  jumpi\n  mload(0x40)\n  shl(0xe5, 0x461bcd)\n  dup2\n  mstore\n    /* \"#utility.yul\":2850:2852   */\n  0x20\n    /* \"OnDemo/contracts/AccountManagement.sol\":1993:2093  require(msg.sender == owner || this.hasLeaderRole(msg.sender), \"Only owner can call this function.\") */\n  0x04\n  dup3\n  add\n    /* \"#utility.yul\":2832:2853   */\n  mstore\n    /* \"#utility.yul\":2889:2891   */\n  0x22\n    /* \"#utility.yul\":2869:2887   */\n  0x24\n  dup3\n  add\n    /* \"#utility.yul\":2862:2892   */\n  mstore\n  0x00\n  dup1\n  mload\n  0x20\n  data_d8d1e0a5e7ccd4410122177f5a0c0af4074aba49fe37d9f918e1c314da792c7b\n  dup4\n  codecopy\n  dup2\n  mload\n  swap2\n  mstore\n    /* \"#utility.yul\":2908:2926   */\n  0x44\n  dup3\n  add\n    /* \"#utility.yul\":2901:2963   */\n  mstore\n  shl(0xf1, 0x3717)\n    /* \"#utility.yul\":2979:2997   */\n  0x64\n  dup3\n  add\n    /* \"#utility.yul\":2972:3004   */\n  mstore\n    /* \"#utility.yul\":3021:3040   */\n  0x84\n  add\n    /* \"OnDemo/contracts/AccountManagement.sol\":1993:2093  require(msg.sender == owner || this.hasLeaderRole(msg.sender), \"Only owner can call this function.\") */\n  tag_17\n    /* \"#utility.yul\":2648:3046   */\n  jump\n    /* \"OnDemo/contracts/AccountManagement.sol\":1993:2093  require(msg.sender == owner || this.hasLeaderRole(msg.sender), \"Only owner can call this function.\") */\ntag_70:\n  sub(shl(0xa0, 0x01), 0x01)\n    /* \"OnDemo/contracts/AccountManagement.sol\":2183:2198  users[_address] */\n  dup1\n  dup4\n  and\n    /* \"OnDemo/contracts/AccountManagement.sol\":2222:2223  0 */\n  0x00\n    /* \"OnDemo/contracts/AccountManagement.sol\":2183:2198  users[_address] */\n  swap1\n  dup2\n  mstore\n    /* \"OnDemo/contracts/AccountManagement.sol\":2183:2188  users */\n  0x02\n    /* \"OnDemo/contracts/AccountManagement.sol\":2183:2198  users[_address] */\n  0x20\n  mstore\n  0x40\n  swap1\n  keccak256\n    /* \"OnDemo/contracts/AccountManagement.sol\":2183:2210  users[_address].userAddress */\n  sload\n    /* \"OnDemo/contracts/AccountManagement.sol\":5102:5110  _address */\n  dup4\n  swap2\n    /* \"OnDemo/contracts/AccountManagement.sol\":2183:2210  users[_address].userAddress */\n  and\n    /* \"OnDemo/contracts/AccountManagement.sol\":2175:2250  require(users[_address].userAddress != address(0), \"Account doesn't exist\") */\n  tag_73\n  jumpi\n  mload(0x40)\n  shl(0xe5, 0x461bcd)\n  dup2\n  mstore\n    /* \"#utility.yul\":3253:3255   */\n  0x20\n    /* \"OnDemo/contracts/AccountManagement.sol\":2175:2250  require(users[_address].userAddress != address(0), \"Account doesn't exist\") */\n  0x04\n  dup3\n  add\n    /* \"#utility.yul\":3235:3256   */\n  mstore\n    /* \"#utility.yul\":3292:3294   */\n  0x15\n    /* \"#utility.yul\":3272:3290   */\n  0x24\n  dup3\n  add\n    /* \"#utility.yul\":3265:3295   */\n  mstore\n  0x00\n  dup1\n  mload\n  0x20\n  data_e6ed72e17aa5bbc2733e407a8a5ce240e643cb97c5489a8df4628b43507de669\n  dup4\n  codecopy\n  dup2\n  mload\n  swap2\n  mstore\n    /* \"#utility.yul\":3311:3329   */\n  0x44\n  dup3\n  add\n    /* \"#utility.yul\":3304:3355   */\n  mstore\n    /* \"#utility.yul\":3372:3390   */\n  0x64\n  add\n    /* \"OnDemo/contracts/AccountManagement.sol\":2175:2250  require(users[_address].userAddress != address(0), \"Account doesn't exist\") */\n  tag_17\n    /* \"#utility.yul\":3051:3396   */\n  jump\n    /* \"OnDemo/contracts/AccountManagement.sol\":2175:2250  require(users[_address].userAddress != address(0), \"Account doesn't exist\") */\ntag_73:\n  sub(shl(0xa0, 0x01), 0x01)\n    /* \"OnDemo/contracts/AccountManagement.sol\":5181:5196  users[_address] */\n  dup4\n  and\n    /* \"OnDemo/contracts/AccountManagement.sol\":5161:5178  User storage user */\n  0x00\n    /* \"OnDemo/contracts/AccountManagement.sol\":5181:5196  users[_address] */\n  swap1\n  dup2\n  mstore\n    /* \"OnDemo/contracts/AccountManagement.sol\":5181:5186  users */\n  0x02\n    /* \"OnDemo/contracts/AccountManagement.sol\":5181:5196  users[_address] */\n  0x20\n  mstore\n  0x40\n  dup2\n  keccak256\n  swap1\n    /* \"OnDemo/contracts/AccountManagement.sol\":5233:5245  user.roleMap */\n  0x05\n  dup3\n  add\n  swap1\n    /* \"OnDemo/contracts/AccountManagement.sol\":5261:5266  _role */\n  dup5\n    /* \"OnDemo/contracts/AccountManagement.sol\":5261:5281  _role == Role.LEADER */\n  0x03\n  dup2\n  gt\n  iszero\n  tag_79\n  jumpi\n  tag_79\n  tag_42\n  jump\t// in\ntag_79:\n  eq\n    /* \"OnDemo/contracts/AccountManagement.sol\":5258:5632  if(_role == Role.LEADER){... */\n  iszero\n  tag_80\n  jumpi\n    /* \"OnDemo/contracts/AccountManagement.sol\":5297:5321  roleMap.isLeader = false */\n  dup1\n  sload\n  not(0xff)\n  and\n  dup2\n  sstore\n    /* \"OnDemo/contracts/AccountManagement.sol\":5258:5632  if(_role == Role.LEADER){... */\n  jump(tag_63)\ntag_80:\n    /* \"OnDemo/contracts/AccountManagement.sol\":5360:5378  Role.COUNCILMEMBER */\n  0x01\n    /* \"OnDemo/contracts/AccountManagement.sol\":5351:5356  _role */\n  dup5\n    /* \"OnDemo/contracts/AccountManagement.sol\":5351:5378  _role == Role.COUNCILMEMBER */\n  0x03\n  dup2\n  gt\n  iszero\n  tag_85\n  jumpi\n  tag_85\n  tag_42\n  jump\t// in\ntag_85:\n  eq\n    /* \"OnDemo/contracts/AccountManagement.sol\":5348:5632  if(_role == Role.COUNCILMEMBER){... */\n  iszero\n  tag_86\n  jumpi\n    /* \"OnDemo/contracts/AccountManagement.sol\":5394:5425  roleMap.isCouncilMember = false */\n  dup1\n  sload\n  not(0xff00)\n  and\n  dup2\n  sstore\n    /* \"OnDemo/contracts/AccountManagement.sol\":5348:5632  if(_role == Role.COUNCILMEMBER){... */\n  jump(tag_63)\ntag_86:\n    /* \"OnDemo/contracts/AccountManagement.sol\":5469:5480  Role.MEMBER */\n  0x02\n    /* \"OnDemo/contracts/AccountManagement.sol\":5460:5465  _role */\n  dup5\n    /* \"OnDemo/contracts/AccountManagement.sol\":5460:5480  _role == Role.MEMBER */\n  0x03\n  dup2\n  gt\n  iszero\n  tag_91\n  jumpi\n  tag_91\n  tag_42\n  jump\t// in\ntag_91:\n  eq\n    /* \"OnDemo/contracts/AccountManagement.sol\":5457:5632  if(_role == Role.MEMBER){... */\n  iszero\n  tag_92\n  jumpi\n    /* \"OnDemo/contracts/AccountManagement.sol\":5496:5520  roleMap.isMember = false */\n  dup1\n  sload\n  not(0xff0000)\n  and\n  dup2\n  sstore\n    /* \"OnDemo/contracts/AccountManagement.sol\":5457:5632  if(_role == Role.MEMBER){... */\n  jump(tag_63)\ntag_92:\n    /* \"OnDemo/contracts/AccountManagement.sol\":5559:5569  Role.GUEST */\n  0x03\n    /* \"OnDemo/contracts/AccountManagement.sol\":5550:5555  _role */\n  dup5\n    /* \"OnDemo/contracts/AccountManagement.sol\":5550:5569  _role == Role.GUEST */\n  0x03\n  dup2\n  gt\n  iszero\n  tag_97\n  jumpi\n  tag_97\n  tag_42\n  jump\t// in\ntag_97:\n  eq\n    /* \"OnDemo/contracts/AccountManagement.sol\":5547:5632  if(_role == Role.GUEST){... */\n  iszero\n  tag_63\n  jumpi\n    /* \"OnDemo/contracts/AccountManagement.sol\":5585:5608  roleMap.isGuest = false */\n  dup1\n  sload\n  not(0xff000000)\n  and\n  swap1\n  sstore\n  pop\n  pop\n  pop\n  pop\n    /* \"OnDemo/contracts/AccountManagement.sol\":5017:5639  function removeRole(address _address, Role _role) public onlyLeader onlyIfUserExists(_address){... */\n  jump\t// out\n    /* \"OnDemo/contracts/AccountManagement.sol\":2953:3551  function activateAccount(address _address) public onlyIfUserExists(_address){... */\ntag_13:\n  sub(shl(0xa0, 0x01), 0x01)\n    /* \"OnDemo/contracts/AccountManagement.sol\":2183:2198  users[_address] */\n  dup1\n  dup3\n  and\n    /* \"OnDemo/contracts/AccountManagement.sol\":2222:2223  0 */\n  0x00\n    /* \"OnDemo/contracts/AccountManagement.sol\":2183:2198  users[_address] */\n  swap1\n  dup2\n  mstore\n    /* \"OnDemo/contracts/AccountManagement.sol\":2183:2188  users */\n  0x02\n    /* \"OnDemo/contracts/AccountManagement.sol\":2183:2198  users[_address] */\n  0x20\n  mstore\n  0x40\n  swap1\n  keccak256\n    /* \"OnDemo/contracts/AccountManagement.sol\":2183:2210  users[_address].userAddress */\n  sload\n    /* \"OnDemo/contracts/AccountManagement.sol\":3020:3028  _address */\n  dup3\n  swap2\n    /* \"OnDemo/contracts/AccountManagement.sol\":2183:2210  users[_address].userAddress */\n  and\n    /* \"OnDemo/contracts/AccountManagement.sol\":2175:2250  require(users[_address].userAddress != address(0), \"Account doesn't exist\") */\n  tag_100\n  jumpi\n  mload(0x40)\n  shl(0xe5, 0x461bcd)\n  dup2\n  mstore\n    /* \"#utility.yul\":3253:3255   */\n  0x20\n    /* \"OnDemo/contracts/AccountManagement.sol\":2175:2250  require(users[_address].userAddress != address(0), \"Account doesn't exist\") */\n  0x04\n  dup3\n  add\n    /* \"#utility.yul\":3235:3256   */\n  mstore\n    /* \"#utility.yul\":3292:3294   */\n  0x15\n    /* \"#utility.yul\":3272:3290   */\n  0x24\n  dup3\n  add\n    /* \"#utility.yul\":3265:3295   */\n  mstore\n  0x00\n  dup1\n  mload\n  0x20\n  data_e6ed72e17aa5bbc2733e407a8a5ce240e643cb97c5489a8df4628b43507de669\n  dup4\n  codecopy\n  dup2\n  mload\n  swap2\n  mstore\n    /* \"#utility.yul\":3311:3329   */\n  0x44\n  dup3\n  add\n    /* \"#utility.yul\":3304:3355   */\n  mstore\n    /* \"#utility.yul\":3372:3390   */\n  0x64\n  add\n    /* \"OnDemo/contracts/AccountManagement.sol\":2175:2250  require(users[_address].userAddress != address(0), \"Account doesn't exist\") */\n  tag_17\n    /* \"#utility.yul\":3051:3396   */\n  jump\n    /* \"OnDemo/contracts/AccountManagement.sol\":2175:2250  require(users[_address].userAddress != address(0), \"Account doesn't exist\") */\ntag_100:\n  sub(shl(0xa0, 0x01), 0x01)\n    /* \"OnDemo/contracts/AccountManagement.sol\":3126:3149  activeMembers[_address] */\n  dup3\n  and\n  0x00\n  swap1\n  dup2\n  mstore\n    /* \"OnDemo/contracts/AccountManagement.sol\":3126:3139  activeMembers */\n  0x03\n    /* \"OnDemo/contracts/AccountManagement.sol\":3126:3149  activeMembers[_address] */\n  0x20\n  mstore\n  0x40\n  swap1\n  keccak256\n  sload\n  0xff\n  and\n    /* \"OnDemo/contracts/AccountManagement.sol\":3122:3544  if(!activeMembers[_address]){... */\n  tag_103\n  jumpi\n  sub(shl(0xa0, 0x01), 0x01)\n    /* \"OnDemo/contracts/AccountManagement.sol\":3185:3200  users[_address] */\n  dup3\n  and\n    /* \"OnDemo/contracts/AccountManagement.sol\":3165:3182  User storage user */\n  0x00\n    /* \"OnDemo/contracts/AccountManagement.sol\":3185:3200  users[_address] */\n  swap1\n  dup2\n  mstore\n    /* \"OnDemo/contracts/AccountManagement.sol\":3185:3190  users */\n  0x02\n    /* \"OnDemo/contracts/AccountManagement.sol\":3185:3200  users[_address] */\n  0x20\n  swap1\n  dup2\n  mstore\n  0x40\n  swap2\n  dup3\n  swap1\n  keccak256\n    /* \"OnDemo/contracts/AccountManagement.sol\":3215:3228  user.isActive */\n  0x04\n  dup2\n  add\n    /* \"OnDemo/contracts/AccountManagement.sol\":3215:3235  user.isActive = true */\n  dup1\n  sload\n  not(0xff)\n  and\n    /* \"OnDemo/contracts/AccountManagement.sol\":3231:3235  true */\n  0x01\n    /* \"OnDemo/contracts/AccountManagement.sol\":3215:3235  user.isActive = true */\n  or\n  swap1\n  sstore\n    /* \"OnDemo/contracts/AccountManagement.sol\":3297:3334  RoleMap memory roleMap = user.roleMap */\n  dup3\n  mload\n  0x80\n  dup2\n  add\n  dup5\n  mstore\n    /* \"OnDemo/contracts/AccountManagement.sol\":3322:3334  user.roleMap */\n  0x05\n  dup3\n  add\n    /* \"OnDemo/contracts/AccountManagement.sol\":3297:3334  RoleMap memory roleMap = user.roleMap */\n  sload\n    /* \"OnDemo/contracts/AccountManagement.sol\":3215:3235  user.isActive = true */\n  0xff\n    /* \"OnDemo/contracts/AccountManagement.sol\":3297:3334  RoleMap memory roleMap = user.roleMap */\n  dup2\n  dup2\n  and\n  iszero\n  iszero\n  dup1\n  dup5\n  mstore\n    /* \"OnDemo/contracts/AccountManagement.sol\":3215:3235  user.isActive = true */\n  0x0100\n    /* \"OnDemo/contracts/AccountManagement.sol\":3297:3334  RoleMap memory roleMap = user.roleMap */\n  dup4\n  div\n  dup3\n  and\n  iszero\n  iszero\n  swap6\n  dup5\n  add\n  swap6\n  swap1\n  swap6\n  mstore\n  0x010000\n  dup3\n  div\n  dup2\n  and\n  iszero\n  iszero\n  swap6\n  dup4\n  add\n  swap6\n  swap1\n  swap6\n  mstore\n  0x01000000\n  swap1\n  div\n  swap1\n  swap4\n  and\n  iszero\n  iszero\n  0x60\n  dup5\n  add\n  mstore\n    /* \"OnDemo/contracts/AccountManagement.sol\":3185:3200  users[_address] */\n  swap2\n    /* \"OnDemo/contracts/AccountManagement.sol\":3297:3334  RoleMap memory roleMap = user.roleMap */\n  swap1\n  dup1\n    /* \"OnDemo/contracts/AccountManagement.sol\":3352:3395  roleMap.isLeader || roleMap.isCouncilMember */\n  tag_104\n  jumpi\n  pop\n    /* \"OnDemo/contracts/AccountManagement.sol\":3372:3379  roleMap */\n  dup1\n    /* \"OnDemo/contracts/AccountManagement.sol\":3372:3395  roleMap.isCouncilMember */\n  0x20\n  add\n  mload\n    /* \"OnDemo/contracts/AccountManagement.sol\":3352:3395  roleMap.isLeader || roleMap.isCouncilMember */\ntag_104:\n    /* \"OnDemo/contracts/AccountManagement.sol\":3352:3415  roleMap.isLeader || roleMap.isCouncilMember || roleMap.isMember */\n  dup1\n  tag_105\n  jumpi\n  pop\n    /* \"OnDemo/contracts/AccountManagement.sol\":3399:3406  roleMap */\n  dup1\n    /* \"OnDemo/contracts/AccountManagement.sol\":3399:3415  roleMap.isMember */\n  0x40\n  add\n  mload\n    /* \"OnDemo/contracts/AccountManagement.sol\":3352:3415  roleMap.isLeader || roleMap.isCouncilMember || roleMap.isMember */\ntag_105:\n    /* \"OnDemo/contracts/AccountManagement.sol\":3349:3533  if(roleMap.isLeader || roleMap.isCouncilMember || roleMap.isMember)... */\n  iszero\n  tag_106\n  jumpi\n  sub(shl(0xa0, 0x01), 0x01)\n    /* \"OnDemo/contracts/AccountManagement.sol\":3449:3472  activeMembers[_address] */\n  dup5\n  and\n  0x00\n  swap1\n  dup2\n  mstore\n    /* \"OnDemo/contracts/AccountManagement.sol\":3449:3462  activeMembers */\n  0x03\n    /* \"OnDemo/contracts/AccountManagement.sol\":3449:3472  activeMembers[_address] */\n  0x20\n  mstore\n  0x40\n  dup2\n  keccak256\n    /* \"OnDemo/contracts/AccountManagement.sol\":3449:3479  activeMembers[_address] = true */\n  dup1\n  sload\n  not(0xff)\n  and\n    /* \"OnDemo/contracts/AccountManagement.sol\":3475:3479  true */\n  0x01\n    /* \"OnDemo/contracts/AccountManagement.sol\":3449:3479  activeMembers[_address] = true */\n  or\n  swap1\n  sstore\n    /* \"OnDemo/contracts/AccountManagement.sol\":3498:3517  activeMemberCount++ */\n  dup1\n  sload\n  swap1\n    /* \"OnDemo/contracts/AccountManagement.sol\":3449:3472  activeMembers[_address] */\n  dup1\n    /* \"OnDemo/contracts/AccountManagement.sol\":3498:3517  activeMemberCount++ */\n  tag_107\n  dup4\n  tag_108\n  jump\t// in\ntag_107:\n  swap2\n  swap1\n  pop\n  sstore\n  pop\n    /* \"OnDemo/contracts/AccountManagement.sol\":3349:3533  if(roleMap.isLeader || roleMap.isCouncilMember || roleMap.isMember)... */\ntag_106:\n    /* \"OnDemo/contracts/AccountManagement.sol\":3150:3544  {... */\n  pop\n  pop\n    /* \"OnDemo/contracts/AccountManagement.sol\":3122:3544  if(!activeMembers[_address]){... */\ntag_103:\n    /* \"OnDemo/contracts/AccountManagement.sol\":2953:3551  function activateAccount(address _address) public onlyIfUserExists(_address){... */\n  pop\n  pop\n  jump\t// out\n    /* \"OnDemo/contracts/AccountManagement.sol\":66:10672  contract AccountManagement {... */\ntag_21:\n  dup3\n  dup1\n  sload\n  tag_109\n  swap1\n  tag_110\n  jump\t// in\ntag_109:\n  swap1\n  0x00\n  mstore\n  keccak256(0x00, 0x20)\n  swap1\n  0x1f\n  add\n  0x20\n  swap1\n  div\n  dup2\n  add\n  swap3\n  dup3\n  tag_112\n  jumpi\n  0x00\n  dup6\n  sstore\n  jump(tag_115)\ntag_112:\n  dup3\n  0x1f\n  lt\n  tag_113\n  jumpi\n  dup1\n  mload\n  not(0xff)\n  and\n  dup4\n  dup1\n  add\n  or\n  dup6\n  sstore\n  jump(tag_115)\ntag_113:\n  dup3\n  dup1\n  add\n  0x01\n  add\n  dup6\n  sstore\n  dup3\n  iszero\n  tag_115\n  jumpi\n  swap2\n  dup3\n  add\ntag_114:\n  dup3\n  dup2\n  gt\n  iszero\n  tag_115\n  jumpi\n  dup3\n  mload\n  dup3\n  sstore\n  swap2\n  0x20\n  add\n  swap2\n  swap1\n  0x01\n  add\n  swap1\n  jump(tag_114)\ntag_115:\n  pop\n  tag_116\n  swap3\n  swap2\n  pop\n  tag_117\n  jump\t// in\ntag_116:\n  pop\n  swap1\n  jump\t// out\ntag_117:\ntag_118:\n  dup1\n  dup3\n  gt\n  iszero\n  tag_116\n  jumpi\n  0x00\n  dup2\n  sstore\n  0x01\n  add\n  jump(tag_118)\n    /* \"#utility.yul\":14:141   */\ntag_120:\n    /* \"#utility.yul\":75:85   */\n  0x4e487b71\n    /* \"#utility.yul\":70:73   */\n  0xe0\n    /* \"#utility.yul\":66:86   */\n  shl\n    /* \"#utility.yul\":63:64   */\n  0x00\n    /* \"#utility.yul\":56:87   */\n  mstore\n    /* \"#utility.yul\":106:110   */\n  0x41\n    /* \"#utility.yul\":103:104   */\n  0x04\n    /* \"#utility.yul\":96:111   */\n  mstore\n    /* \"#utility.yul\":130:134   */\n  0x24\n    /* \"#utility.yul\":127:128   */\n  0x00\n    /* \"#utility.yul\":120:135   */\n  revert\n    /* \"#utility.yul\":146:1031   */\ntag_121:\n    /* \"#utility.yul\":200:205   */\n  0x00\n    /* \"#utility.yul\":253:256   */\n  dup3\n    /* \"#utility.yul\":246:250   */\n  0x1f\n    /* \"#utility.yul\":238:244   */\n  dup4\n    /* \"#utility.yul\":234:251   */\n  add\n    /* \"#utility.yul\":230:257   */\n  slt\n    /* \"#utility.yul\":220:275   */\n  tag_125\n  jumpi\n    /* \"#utility.yul\":271:272   */\n  0x00\n    /* \"#utility.yul\":268:269   */\n  dup1\n    /* \"#utility.yul\":261:273   */\n  revert\n    /* \"#utility.yul\":220:275   */\ntag_125:\n    /* \"#utility.yul\":294:307   */\n  dup2\n  mload\n  sub(shl(0x40, 0x01), 0x01)\n    /* \"#utility.yul\":356:366   */\n  dup1\n  dup3\n  gt\n    /* \"#utility.yul\":353:389   */\n  iszero\n  tag_127\n  jumpi\n    /* \"#utility.yul\":369:387   */\n  tag_127\n  tag_120\n  jump\t// in\ntag_127:\n    /* \"#utility.yul\":444:446   */\n  0x40\n    /* \"#utility.yul\":438:447   */\n  mload\n    /* \"#utility.yul\":412:414   */\n  0x1f\n    /* \"#utility.yul\":498:511   */\n  dup4\n  add\n  not(0x1f)\n    /* \"#utility.yul\":494:516   */\n  swap1\n  dup2\n  and\n    /* \"#utility.yul\":518:520   */\n  0x3f\n    /* \"#utility.yul\":490:521   */\n  add\n    /* \"#utility.yul\":486:526   */\n  and\n    /* \"#utility.yul\":474:527   */\n  dup2\n  add\n  swap1\n    /* \"#utility.yul\":542:560   */\n  dup3\n  dup3\n  gt\n    /* \"#utility.yul\":562:584   */\n  dup2\n  dup4\n  lt\n    /* \"#utility.yul\":539:585   */\n  or\n    /* \"#utility.yul\":536:608   */\n  iszero\n  tag_129\n  jumpi\n    /* \"#utility.yul\":588:606   */\n  tag_129\n  tag_120\n  jump\t// in\ntag_129:\n    /* \"#utility.yul\":628:638   */\n  dup2\n    /* \"#utility.yul\":624:626   */\n  0x40\n    /* \"#utility.yul\":617:639   */\n  mstore\n    /* \"#utility.yul\":663:665   */\n  dup4\n    /* \"#utility.yul\":655:661   */\n  dup2\n    /* \"#utility.yul\":648:666   */\n  mstore\n    /* \"#utility.yul\":685:689   */\n  0x20\n    /* \"#utility.yul\":675:689   */\n  swap3\n  pop\n    /* \"#utility.yul\":730:733   */\n  dup7\n    /* \"#utility.yul\":725:727   */\n  dup4\n    /* \"#utility.yul\":720:722   */\n  dup6\n    /* \"#utility.yul\":712:718   */\n  dup9\n    /* \"#utility.yul\":708:723   */\n  add\n    /* \"#utility.yul\":704:728   */\n  add\n    /* \"#utility.yul\":701:734   */\n  gt\n    /* \"#utility.yul\":698:751   */\n  iszero\n  tag_130\n  jumpi\n    /* \"#utility.yul\":747:748   */\n  0x00\n    /* \"#utility.yul\":744:745   */\n  dup1\n    /* \"#utility.yul\":737:749   */\n  revert\n    /* \"#utility.yul\":698:751   */\ntag_130:\n    /* \"#utility.yul\":769:770   */\n  0x00\n    /* \"#utility.yul\":760:770   */\n  swap2\n  pop\n    /* \"#utility.yul\":779:912   */\ntag_131:\n    /* \"#utility.yul\":793:795   */\n  dup4\n    /* \"#utility.yul\":790:791   */\n  dup3\n    /* \"#utility.yul\":787:796   */\n  lt\n    /* \"#utility.yul\":779:912   */\n  iszero\n  tag_133\n  jumpi\n    /* \"#utility.yul\":881:895   */\n  dup6\n  dup3\n  add\n    /* \"#utility.yul\":877:900   */\n  dup4\n  add\n    /* \"#utility.yul\":871:901   */\n  mload\n    /* \"#utility.yul\":850:864   */\n  dup2\n  dup4\n  add\n    /* \"#utility.yul\":846:869   */\n  dup5\n  add\n    /* \"#utility.yul\":839:902   */\n  mstore\n    /* \"#utility.yul\":804:814   */\n  swap1\n  dup3\n  add\n  swap1\n    /* \"#utility.yul\":779:912   */\n  jump(tag_131)\ntag_133:\n    /* \"#utility.yul\":930:932   */\n  dup4\n    /* \"#utility.yul\":927:928   */\n  dup3\n    /* \"#utility.yul\":924:933   */\n  gt\n    /* \"#utility.yul\":921:1001   */\n  iszero\n  tag_134\n  jumpi\n    /* \"#utility.yul\":989:990   */\n  0x00\n    /* \"#utility.yul\":984:986   */\n  dup4\n    /* \"#utility.yul\":979:981   */\n  dup6\n    /* \"#utility.yul\":971:977   */\n  dup4\n    /* \"#utility.yul\":967:982   */\n  add\n    /* \"#utility.yul\":963:987   */\n  add\n    /* \"#utility.yul\":956:991   */\n  mstore\n    /* \"#utility.yul\":921:1001   */\ntag_134:\n    /* \"#utility.yul\":1019:1025   */\n  swap7\n    /* \"#utility.yul\":146:1031   */\n  swap6\n  pop\n  pop\n  pop\n  pop\n  pop\n  pop\n  jump\t// out\n    /* \"#utility.yul\":1036:1802   */\ntag_3:\n    /* \"#utility.yul\":1154:1160   */\n  0x00\n    /* \"#utility.yul\":1162:1168   */\n  dup1\n    /* \"#utility.yul\":1170:1176   */\n  0x00\n    /* \"#utility.yul\":1223:1225   */\n  0x60\n    /* \"#utility.yul\":1211:1220   */\n  dup5\n    /* \"#utility.yul\":1202:1209   */\n  dup7\n    /* \"#utility.yul\":1198:1221   */\n  sub\n    /* \"#utility.yul\":1194:1226   */\n  slt\n    /* \"#utility.yul\":1191:1243   */\n  iszero\n  tag_136\n  jumpi\n    /* \"#utility.yul\":1239:1240   */\n  0x00\n    /* \"#utility.yul\":1236:1237   */\n  dup1\n    /* \"#utility.yul\":1229:1241   */\n  revert\n    /* \"#utility.yul\":1191:1243   */\ntag_136:\n    /* \"#utility.yul\":1266:1282   */\n  dup4\n  mload\n  sub(shl(0x40, 0x01), 0x01)\n    /* \"#utility.yul\":1331:1345   */\n  dup1\n  dup3\n  gt\n    /* \"#utility.yul\":1328:1362   */\n  iszero\n  tag_137\n  jumpi\n    /* \"#utility.yul\":1358:1359   */\n  0x00\n    /* \"#utility.yul\":1355:1356   */\n  dup1\n    /* \"#utility.yul\":1348:1360   */\n  revert\n    /* \"#utility.yul\":1328:1362   */\ntag_137:\n    /* \"#utility.yul\":1381:1442   */\n  tag_138\n    /* \"#utility.yul\":1434:1441   */\n  dup8\n    /* \"#utility.yul\":1425:1431   */\n  dup4\n    /* \"#utility.yul\":1414:1423   */\n  dup9\n    /* \"#utility.yul\":1410:1432   */\n  add\n    /* \"#utility.yul\":1381:1442   */\n  tag_121\n  jump\t// in\ntag_138:\n    /* \"#utility.yul\":1371:1442   */\n  swap5\n  pop\n    /* \"#utility.yul\":1488:1490   */\n  0x20\n    /* \"#utility.yul\":1477:1486   */\n  dup7\n    /* \"#utility.yul\":1473:1491   */\n  add\n    /* \"#utility.yul\":1467:1492   */\n  mload\n    /* \"#utility.yul\":1451:1492   */\n  swap2\n  pop\n    /* \"#utility.yul\":1517:1519   */\n  dup1\n    /* \"#utility.yul\":1507:1515   */\n  dup3\n    /* \"#utility.yul\":1504:1520   */\n  gt\n    /* \"#utility.yul\":1501:1537   */\n  iszero\n  tag_139\n  jumpi\n    /* \"#utility.yul\":1533:1534   */\n  0x00\n    /* \"#utility.yul\":1530:1531   */\n  dup1\n    /* \"#utility.yul\":1523:1535   */\n  revert\n    /* \"#utility.yul\":1501:1537   */\ntag_139:\n    /* \"#utility.yul\":1556:1619   */\n  tag_140\n    /* \"#utility.yul\":1611:1618   */\n  dup8\n    /* \"#utility.yul\":1600:1608   */\n  dup4\n    /* \"#utility.yul\":1589:1598   */\n  dup9\n    /* \"#utility.yul\":1585:1609   */\n  add\n    /* \"#utility.yul\":1556:1619   */\n  tag_121\n  jump\t// in\ntag_140:\n    /* \"#utility.yul\":1546:1619   */\n  swap4\n  pop\n    /* \"#utility.yul\":1665:1667   */\n  0x40\n    /* \"#utility.yul\":1654:1663   */\n  dup7\n    /* \"#utility.yul\":1650:1668   */\n  add\n    /* \"#utility.yul\":1644:1669   */\n  mload\n    /* \"#utility.yul\":1628:1669   */\n  swap2\n  pop\n    /* \"#utility.yul\":1694:1696   */\n  dup1\n    /* \"#utility.yul\":1684:1692   */\n  dup3\n    /* \"#utility.yul\":1681:1697   */\n  gt\n    /* \"#utility.yul\":1678:1714   */\n  iszero\n  tag_141\n  jumpi\n    /* \"#utility.yul\":1710:1711   */\n  0x00\n    /* \"#utility.yul\":1707:1708   */\n  dup1\n    /* \"#utility.yul\":1700:1712   */\n  revert\n    /* \"#utility.yul\":1678:1714   */\ntag_141:\n  pop\n    /* \"#utility.yul\":1733:1796   */\n  tag_142\n    /* \"#utility.yul\":1788:1795   */\n  dup7\n    /* \"#utility.yul\":1777:1785   */\n  dup3\n    /* \"#utility.yul\":1766:1775   */\n  dup8\n    /* \"#utility.yul\":1762:1786   */\n  add\n    /* \"#utility.yul\":1733:1796   */\n  tag_121\n  jump\t// in\ntag_142:\n    /* \"#utility.yul\":1723:1796   */\n  swap2\n  pop\n  pop\n    /* \"#utility.yul\":1036:1802   */\n  swap3\n  pop\n  swap3\n  pop\n  swap3\n  jump\t// out\n    /* \"#utility.yul\":2366:2643   */\ntag_31:\n    /* \"#utility.yul\":2433:2439   */\n  0x00\n    /* \"#utility.yul\":2486:2488   */\n  0x20\n    /* \"#utility.yul\":2474:2483   */\n  dup3\n    /* \"#utility.yul\":2465:2472   */\n  dup5\n    /* \"#utility.yul\":2461:2484   */\n  sub\n    /* \"#utility.yul\":2457:2489   */\n  slt\n    /* \"#utility.yul\":2454:2506   */\n  iszero\n  tag_146\n  jumpi\n    /* \"#utility.yul\":2502:2503   */\n  0x00\n    /* \"#utility.yul\":2499:2500   */\n  dup1\n    /* \"#utility.yul\":2492:2504   */\n  revert\n    /* \"#utility.yul\":2454:2506   */\ntag_146:\n    /* \"#utility.yul\":2534:2543   */\n  dup2\n    /* \"#utility.yul\":2528:2544   */\n  mload\n    /* \"#utility.yul\":2587:2592   */\n  dup1\n    /* \"#utility.yul\":2580:2593   */\n  iszero\n    /* \"#utility.yul\":2573:2594   */\n  iszero\n    /* \"#utility.yul\":2566:2571   */\n  dup2\n    /* \"#utility.yul\":2563:2595   */\n  eq\n    /* \"#utility.yul\":2553:2613   */\n  tag_147\n  jumpi\n    /* \"#utility.yul\":2609:2610   */\n  0x00\n    /* \"#utility.yul\":2606:2607   */\n  dup1\n    /* \"#utility.yul\":2599:2611   */\n  revert\n    /* \"#utility.yul\":2553:2613   */\ntag_147:\n    /* \"#utility.yul\":2632:2637   */\n  swap4\n    /* \"#utility.yul\":2366:2643   */\n  swap3\n  pop\n  pop\n  pop\n  jump\t// out\n    /* \"#utility.yul\":3401:3528   */\ntag_42:\n    /* \"#utility.yul\":3462:3472   */\n  0x4e487b71\n    /* \"#utility.yul\":3457:3460   */\n  0xe0\n    /* \"#utility.yul\":3453:3473   */\n  shl\n    /* \"#utility.yul\":3450:3451   */\n  0x00\n    /* \"#utility.yul\":3443:3474   */\n  mstore\n    /* \"#utility.yul\":3493:3497   */\n  0x21\n    /* \"#utility.yul\":3490:3491   */\n  0x04\n    /* \"#utility.yul\":3483:3498   */\n  mstore\n    /* \"#utility.yul\":3517:3521   */\n  0x24\n    /* \"#utility.yul\":3514:3515   */\n  0x00\n    /* \"#utility.yul\":3507:3522   */\n  revert\n    /* \"#utility.yul\":3533:3765   */\ntag_108:\n    /* \"#utility.yul\":3572:3575   */\n  0x00\n  not(0x00)\n    /* \"#utility.yul\":3593:3610   */\n  dup3\n  eq\n    /* \"#utility.yul\":3590:3730   */\n  iszero\n  tag_152\n  jumpi\n    /* \"#utility.yul\":3652:3662   */\n  0x4e487b71\n    /* \"#utility.yul\":3647:3650   */\n  0xe0\n    /* \"#utility.yul\":3643:3663   */\n  shl\n    /* \"#utility.yul\":3640:3641   */\n  0x00\n    /* \"#utility.yul\":3633:3664   */\n  mstore\n    /* \"#utility.yul\":3687:3691   */\n  0x11\n    /* \"#utility.yul\":3684:3685   */\n  0x04\n    /* \"#utility.yul\":3677:3692   */\n  mstore\n    /* \"#utility.yul\":3715:3719   */\n  0x24\n    /* \"#utility.yul\":3712:3713   */\n  0x00\n    /* \"#utility.yul\":3705:3720   */\n  revert\n    /* \"#utility.yul\":3590:3730   */\ntag_152:\n  pop\n    /* \"#utility.yul\":3757:3758   */\n  0x01\n    /* \"#utility.yul\":3746:3759   */\n  add\n  swap1\n    /* \"#utility.yul\":3533:3765   */\n  jump\t// out\n    /* \"#utility.yul\":3770:4150   */\ntag_110:\n    /* \"#utility.yul\":3849:3850   */\n  0x01\n    /* \"#utility.yul\":3845:3857   */\n  dup2\n  dup2\n  shr\n  swap1\n    /* \"#utility.yul\":3892:3904   */\n  dup3\n  and\n  dup1\n    /* \"#utility.yul\":3913:3974   */\n  tag_154\n  jumpi\n    /* \"#utility.yul\":3967:3971   */\n  0x7f\n    /* \"#utility.yul\":3959:3965   */\n  dup3\n    /* \"#utility.yul\":3955:3972   */\n  and\n    /* \"#utility.yul\":3945:3972   */\n  swap2\n  pop\n    /* \"#utility.yul\":3913:3974   */\ntag_154:\n    /* \"#utility.yul\":4020:4022   */\n  0x20\n    /* \"#utility.yul\":4012:4018   */\n  dup3\n    /* \"#utility.yul\":4009:4023   */\n  lt\n    /* \"#utility.yul\":3989:4007   */\n  dup2\n    /* \"#utility.yul\":3986:4024   */\n  eq\n    /* \"#utility.yul\":3983:4144   */\n  iszero\n  tag_155\n  jumpi\n    /* \"#utility.yul\":4066:4076   */\n  0x4e487b71\n    /* \"#utility.yul\":4061:4064   */\n  0xe0\n    /* \"#utility.yul\":4057:4077   */\n  shl\n    /* \"#utility.yul\":4054:4055   */\n  0x00\n    /* \"#utility.yul\":4047:4078   */\n  mstore\n    /* \"#utility.yul\":4101:4105   */\n  0x22\n    /* \"#utility.yul\":4098:4099   */\n  0x04\n    /* \"#utility.yul\":4091:4106   */\n  mstore\n    /* \"#utility.yul\":4129:4133   */\n  0x24\n    /* \"#utility.yul\":4126:4127   */\n  0x00\n    /* \"#utility.yul\":4119:4134   */\n  revert\n    /* \"#utility.yul\":3983:4144   */\ntag_155:\n  pop\n    /* \"#utility.yul\":3770:4150   */\n  swap2\n  swap1\n  pop\n  jump\t// out\ntag_122:\n    /* \"OnDemo/contracts/AccountManagement.sol\":66:10672  contract AccountManagement {... */\n  dataSize(sub_0)\n  dup1\n  dataOffset(sub_0)\n  0x00\n  codecopy\n  0x00\n  return\nstop\ndata_d8d1e0a5e7ccd4410122177f5a0c0af4074aba49fe37d9f918e1c314da792c7b 4f6e6c79206f776e65722063616e2063616c6c20746869732066756e6374696f\ndata_e6ed72e17aa5bbc2733e407a8a5ce240e643cb97c5489a8df4628b43507de669 4163636f756e7420646f65736e27742065786973740000000000000000000000\n\nsub_0: assembly {\n        /* \"OnDemo/contracts/AccountManagement.sol\":66:10672  contract AccountManagement {... */\n      mstore(0x40, 0x80)\n      callvalue\n      dup1\n      iszero\n      tag_1\n      jumpi\n      0x00\n      dup1\n      revert\n    tag_1:\n      pop\n      jumpi(tag_2, lt(calldatasize, 0x04))\n      shr(0xe0, calldataload(0x00))\n      dup1\n      0x6f77926b\n      gt\n      tag_18\n      jumpi\n      dup1\n      0xd3a5059a\n      gt\n      tag_19\n      jumpi\n      dup1\n      0xd3a5059a\n      eq\n      tag_14\n      jumpi\n      dup1\n      0xdee94b4a\n      eq\n      tag_15\n      jumpi\n      dup1\n      0xe8621e59\n      eq\n      tag_16\n      jumpi\n      dup1\n      0xfa4d7aae\n      eq\n      tag_17\n      jumpi\n      0x00\n      dup1\n      revert\n    tag_19:\n      dup1\n      0x6f77926b\n      eq\n      tag_10\n      jumpi\n      dup1\n      0x82a62137\n      eq\n      tag_11\n      jumpi\n      dup1\n      0x8da5cb5b\n      eq\n      tag_12\n      jumpi\n      dup1\n      0xb74866fb\n      eq\n      tag_13\n      jumpi\n      0x00\n      dup1\n      revert\n    tag_18:\n      dup1\n      0x22faa41f\n      gt\n      tag_20\n      jumpi\n      dup1\n      0x22faa41f\n      eq\n      tag_6\n      jumpi\n      dup1\n      0x247ae7a3\n      eq\n      tag_7\n      jumpi\n      dup1\n      0x297027d5\n      eq\n      tag_8\n      jumpi\n      dup1\n      0x630a195b\n      eq\n      tag_9\n      jumpi\n      0x00\n      dup1\n      revert\n    tag_20:\n      dup1\n      0x056909b7\n      eq\n      tag_3\n      jumpi\n      dup1\n      0x0e666e49\n      eq\n      tag_4\n      jumpi\n      dup1\n      0x130cb5f0\n      eq\n      tag_5\n      jumpi\n    tag_2:\n      0x00\n      dup1\n      revert\n        /* \"OnDemo/contracts/AccountManagement.sol\":8054:8180  function hasMemberRole(address _address) external view returns (bool) {... */\n    tag_3:\n      tag_21\n      tag_22\n      calldatasize\n      0x04\n      tag_23\n      jump\t// in\n    tag_22:\n      tag_24\n      jump\t// in\n    tag_21:\n      mload(0x40)\n        /* \"#utility.yul\":548:562   */\n      swap1\n      iszero\n        /* \"#utility.yul\":541:563   */\n      iszero\n        /* \"#utility.yul\":523:564   */\n      dup2\n      mstore\n        /* \"#utility.yul\":511:513   */\n      0x20\n        /* \"#utility.yul\":496:514   */\n      add\n        /* \"OnDemo/contracts/AccountManagement.sol\":8054:8180  function hasMemberRole(address _address) external view returns (bool) {... */\n    tag_25:\n      mload(0x40)\n      dup1\n      swap2\n      sub\n      swap1\n      return\n        /* \"OnDemo/contracts/AccountManagement.sol\":8685:8845  function userExists(address _address) external view returns(bool){... */\n    tag_4:\n      tag_21\n      tag_28\n      calldatasize\n      0x04\n      tag_23\n      jump\t// in\n    tag_28:\n      tag_29\n      jump\t// in\n        /* \"OnDemo/contracts/AccountManagement.sol\":3559:4036  function deactivateAccount(address _address) public onlyIfUserExists(_address){... */\n    tag_5:\n      tag_31\n      tag_32\n      calldatasize\n      0x04\n      tag_23\n      jump\t// in\n    tag_32:\n      tag_33\n      jump\t// in\n    tag_31:\n      stop\n        /* \"OnDemo/contracts/AccountManagement.sol\":8573:8677  function getActiveMemberCount() external view returns (uint) {... */\n    tag_6:\n        /* \"OnDemo/contracts/AccountManagement.sol\":8628:8632  uint */\n      0x00\n        /* \"OnDemo/contracts/AccountManagement.sol\":8652:8669  activeMemberCount */\n      sload\n        /* \"OnDemo/contracts/AccountManagement.sol\":8573:8677  function getActiveMemberCount() external view returns (uint) {... */\n      mload(0x40)\n        /* \"#utility.yul\":721:746   */\n      swap1\n      dup2\n      mstore\n        /* \"#utility.yul\":709:711   */\n      0x20\n        /* \"#utility.yul\":694:712   */\n      add\n        /* \"OnDemo/contracts/AccountManagement.sol\":8573:8677  function getActiveMemberCount() external view returns (uint) {... */\n      tag_25\n        /* \"#utility.yul\":575:752   */\n      jump\n        /* \"OnDemo/contracts/AccountManagement.sol\":8853:10667  function testAccountManagement() public{... */\n    tag_7:\n      tag_31\n      tag_39\n      jump\t// in\n        /* \"OnDemo/contracts/AccountManagement.sol\":7768:7894  function hasLeaderRole(address _address) external view returns (bool) {... */\n    tag_8:\n      tag_21\n      tag_41\n      calldatasize\n      0x04\n      tag_23\n      jump\t// in\n    tag_41:\n      tag_42\n      jump\t// in\n        /* \"OnDemo/contracts/AccountManagement.sol\":4403:5009  function assignRole(address _address, Role _role) public onlyLeader onlyIfUserExists(_address){... */\n    tag_9:\n      tag_31\n      tag_45\n      calldatasize\n      0x04\n      tag_46\n      jump\t// in\n    tag_45:\n      tag_47\n      jump\t// in\n        /* \"OnDemo/contracts/AccountManagement.sol\":8324:8565  function getUser(address _address) external view returns(User memory){... */\n    tag_10:\n      tag_48\n      tag_49\n      calldatasize\n      0x04\n      tag_23\n      jump\t// in\n    tag_49:\n      tag_50\n      jump\t// in\n    tag_48:\n      mload(0x40)\n      tag_25\n      swap2\n      swap1\n      tag_52\n      jump\t// in\n        /* \"OnDemo/contracts/AccountManagement.sol\":2953:3551  function activateAccount(address _address) public onlyIfUserExists(_address){... */\n    tag_11:\n      tag_31\n      tag_54\n      calldatasize\n      0x04\n      tag_23\n      jump\t// in\n    tag_54:\n      tag_55\n      jump\t// in\n        /* \"OnDemo/contracts/AccountManagement.sol\":1079:1099  address public owner */\n    tag_12:\n      sload(0x01)\n      tag_56\n      swap1\n      sub(shl(0xa0, 0x01), 0x01)\n      and\n      dup2\n      jump\n    tag_56:\n      mload(0x40)\n      sub(shl(0xa0, 0x01), 0x01)\n        /* \"#utility.yul\":3065:3097   */\n      swap1\n      swap2\n      and\n        /* \"#utility.yul\":3047:3098   */\n      dup2\n      mstore\n        /* \"#utility.yul\":3035:3037   */\n      0x20\n        /* \"#utility.yul\":3020:3038   */\n      add\n        /* \"OnDemo/contracts/AccountManagement.sol\":1079:1099  address public owner */\n      tag_25\n        /* \"#utility.yul\":2901:3104   */\n      jump\n        /* \"OnDemo/contracts/AccountManagement.sol\":5017:5639  function removeRole(address _address, Role _role) public onlyLeader onlyIfUserExists(_address){... */\n    tag_13:\n      tag_31\n      tag_61\n      calldatasize\n      0x04\n      tag_46\n      jump\t// in\n    tag_61:\n      tag_62\n      jump\t// in\n        /* \"OnDemo/contracts/AccountManagement.sol\":4044:4261  function burnAccount(address _address) public onlyIfUserExists(_address){  ... */\n    tag_14:\n      tag_31\n      tag_64\n      calldatasize\n      0x04\n      tag_23\n      jump\t// in\n    tag_64:\n      tag_65\n      jump\t// in\n        /* \"OnDemo/contracts/AccountManagement.sol\":2578:2945  function createAccount(address _address, string memory _firstName, string memory _lastName, string memory _mailAdress) public onlyIfUserNotExists(_address){... */\n    tag_15:\n      tag_31\n      tag_67\n      calldatasize\n      0x04\n      tag_68\n      jump\t// in\n    tag_67:\n      tag_69\n      jump\t// in\n        /* \"OnDemo/contracts/AccountManagement.sol\":8192:8316  function hasGuestRole(address _address) external view returns (bool) {... */\n    tag_16:\n      tag_21\n      tag_71\n      calldatasize\n      0x04\n      tag_23\n      jump\t// in\n    tag_71:\n      tag_72\n      jump\t// in\n        /* \"OnDemo/contracts/AccountManagement.sol\":7902:8042  function hasCouncilMemberRole(address _address) external view returns (bool) {... */\n    tag_17:\n      tag_21\n      tag_75\n      calldatasize\n      0x04\n      tag_23\n      jump\t// in\n    tag_75:\n      tag_76\n      jump\t// in\n        /* \"OnDemo/contracts/AccountManagement.sol\":8054:8180  function hasMemberRole(address _address) external view returns (bool) {... */\n    tag_24:\n        /* \"OnDemo/contracts/AccountManagement.sol\":8118:8122  bool */\n      0x00\n        /* \"OnDemo/contracts/AccountManagement.sol\":8142:8172  hasRole(_address, Role.MEMBER) */\n      tag_79\n        /* \"OnDemo/contracts/AccountManagement.sol\":8150:8158  _address */\n      dup3\n        /* \"OnDemo/contracts/AccountManagement.sol\":8160:8171  Role.MEMBER */\n      0x02\n        /* \"OnDemo/contracts/AccountManagement.sol\":8142:8149  hasRole */\n      tag_80\n        /* \"OnDemo/contracts/AccountManagement.sol\":8142:8172  hasRole(_address, Role.MEMBER) */\n      jump\t// in\n    tag_79:\n        /* \"OnDemo/contracts/AccountManagement.sol\":8135:8172  return hasRole(_address, Role.MEMBER) */\n      swap3\n        /* \"OnDemo/contracts/AccountManagement.sol\":8054:8180  function hasMemberRole(address _address) external view returns (bool) {... */\n      swap2\n      pop\n      pop\n      jump\t// out\n        /* \"OnDemo/contracts/AccountManagement.sol\":8685:8845  function userExists(address _address) external view returns(bool){... */\n    tag_29:\n      sub(shl(0xa0, 0x01), 0x01)\n        /* \"OnDemo/contracts/AccountManagement.sol\":8777:8792  users[_address] */\n      dup1\n      dup3\n      and\n        /* \"OnDemo/contracts/AccountManagement.sol\":8745:8749  bool */\n      0x00\n        /* \"OnDemo/contracts/AccountManagement.sol\":8777:8792  users[_address] */\n      swap1\n      dup2\n      mstore\n        /* \"OnDemo/contracts/AccountManagement.sol\":8777:8782  users */\n      0x02\n        /* \"OnDemo/contracts/AccountManagement.sol\":8777:8792  users[_address] */\n      0x20\n      swap1\n      dup2\n      mstore\n      0x40\n      dup1\n      dup4\n      keccak256\n        /* \"OnDemo/contracts/AccountManagement.sol\":8761:8792  User memory u = users[_address] */\n      dup2\n      mload\n      0xc0\n      dup2\n      add\n      swap1\n      swap3\n      mstore\n      dup1\n      sload\n      swap1\n      swap5\n      and\n      dup2\n      mstore\n      0x01\n      dup5\n      add\n      dup1\n      sload\n        /* \"OnDemo/contracts/AccountManagement.sol\":8745:8749  bool */\n      swap4\n      swap5\n      dup6\n      swap5\n        /* \"OnDemo/contracts/AccountManagement.sol\":8761:8792  User memory u = users[_address] */\n      swap3\n      swap4\n        /* \"OnDemo/contracts/AccountManagement.sol\":8777:8792  users[_address] */\n      swap1\n      swap3\n        /* \"OnDemo/contracts/AccountManagement.sol\":8761:8792  User memory u = users[_address] */\n      swap1\n      dup5\n      add\n      swap2\n      swap1\n      tag_82\n      swap1\n      tag_83\n      jump\t// in\n    tag_82:\n      dup1\n      0x1f\n      add\n      0x20\n      dup1\n      swap2\n      div\n      mul\n      0x20\n      add\n      mload(0x40)\n      swap1\n      dup2\n      add\n      0x40\n      mstore\n      dup1\n      swap3\n      swap2\n      swap1\n      dup2\n      dup2\n      mstore\n      0x20\n      add\n      dup3\n      dup1\n      sload\n      tag_84\n      swap1\n      tag_83\n      jump\t// in\n    tag_84:\n      dup1\n      iszero\n      tag_85\n      jumpi\n      dup1\n      0x1f\n      lt\n      tag_86\n      jumpi\n      0x0100\n      dup1\n      dup4\n      sload\n      div\n      mul\n      dup4\n      mstore\n      swap2\n      0x20\n      add\n      swap2\n      jump(tag_85)\n    tag_86:\n      dup3\n      add\n      swap2\n      swap1\n      0x00\n      mstore\n      keccak256(0x00, 0x20)\n      swap1\n    tag_87:\n      dup2\n      sload\n      dup2\n      mstore\n      swap1\n      0x01\n      add\n      swap1\n      0x20\n      add\n      dup1\n      dup4\n      gt\n      tag_87\n      jumpi\n      dup3\n      swap1\n      sub\n      0x1f\n      and\n      dup3\n      add\n      swap2\n    tag_85:\n      pop\n      pop\n      pop\n      pop\n      pop\n      dup2\n      mstore\n      0x20\n      add\n      0x02\n      dup3\n      add\n      dup1\n      sload\n      tag_88\n      swap1\n      tag_83\n      jump\t// in\n    tag_88:\n      dup1\n      0x1f\n      add\n      0x20\n      dup1\n      swap2\n      div\n      mul\n      0x20\n      add\n      mload(0x40)\n      swap1\n      dup2\n      add\n      0x40\n      mstore\n      dup1\n      swap3\n      swap2\n      swap1\n      dup2\n      dup2\n      mstore\n      0x20\n      add\n      dup3\n      dup1\n      sload\n      tag_89\n      swap1\n      tag_83\n      jump\t// in\n    tag_89:\n      dup1\n      iszero\n      tag_90\n      jumpi\n      dup1\n      0x1f\n      lt\n      tag_91\n      jumpi\n      0x0100\n      dup1\n      dup4\n      sload\n      div\n      mul\n      dup4\n      mstore\n      swap2\n      0x20\n      add\n      swap2\n      jump(tag_90)\n    tag_91:\n      dup3\n      add\n      swap2\n      swap1\n      0x00\n      mstore\n      keccak256(0x00, 0x20)\n      swap1\n    tag_92:\n      dup2\n      sload\n      dup2\n      mstore\n      swap1\n      0x01\n      add\n      swap1\n      0x20\n      add\n      dup1\n      dup4\n      gt\n      tag_92\n      jumpi\n      dup3\n      swap1\n      sub\n      0x1f\n      and\n      dup3\n      add\n      swap2\n    tag_90:\n      pop\n      pop\n      pop\n      pop\n      pop\n      dup2\n      mstore\n      0x20\n      add\n      0x03\n      dup3\n      add\n      dup1\n      sload\n      tag_93\n      swap1\n      tag_83\n      jump\t// in\n    tag_93:\n      dup1\n      0x1f\n      add\n      0x20\n      dup1\n      swap2\n      div\n      mul\n      0x20\n      add\n      mload(0x40)\n      swap1\n      dup2\n      add\n      0x40\n      mstore\n      dup1\n      swap3\n      swap2\n      swap1\n      dup2\n      dup2\n      mstore\n      0x20\n      add\n      dup3\n      dup1\n      sload\n      tag_94\n      swap1\n      tag_83\n      jump\t// in\n    tag_94:\n      dup1\n      iszero\n      tag_95\n      jumpi\n      dup1\n      0x1f\n      lt\n      tag_96\n      jumpi\n      0x0100\n      dup1\n      dup4\n      sload\n      div\n      mul\n      dup4\n      mstore\n      swap2\n      0x20\n      add\n      swap2\n      jump(tag_95)\n    tag_96:\n      dup3\n      add\n      swap2\n      swap1\n      0x00\n      mstore\n      keccak256(0x00, 0x20)\n      swap1\n    tag_97:\n      dup2\n      sload\n      dup2\n      mstore\n      swap1\n      0x01\n      add\n      swap1\n      0x20\n      add\n      dup1\n      dup4\n      gt\n      tag_97\n      jumpi\n      dup3\n      swap1\n      sub\n      0x1f\n      and\n      dup3\n      add\n      swap2\n    tag_95:\n      pop\n      pop\n      pop\n      swap2\n      dup4\n      mstore\n      pop\n      pop\n      0x04\n      dup3\n      add\n      sload\n      0xff\n      swap1\n      dup2\n      and\n      iszero\n      iszero\n      0x20\n      dup1\n      dup5\n      add\n      swap2\n      swap1\n      swap2\n      mstore\n      0x40\n      dup1\n      mload\n      0x80\n      dup2\n      add\n      dup3\n      mstore\n      0x05\n      swap1\n      swap6\n      add\n      sload\n      dup1\n      dup5\n      and\n      iszero\n      iszero\n      dup7\n      mstore\n      0x0100\n      dup2\n      div\n      dup5\n      and\n      iszero\n      iszero\n      swap3\n      dup7\n      add\n      swap3\n      swap1\n      swap3\n      mstore\n      0x010000\n      dup3\n      div\n      dup4\n      and\n      iszero\n      iszero\n      dup6\n      dup3\n      add\n      mstore\n      0x01000000\n      swap1\n      swap2\n      div\n      swap1\n      swap2\n      and\n      iszero\n      iszero\n      0x60\n      dup5\n      add\n      mstore\n      add\n      mstore\n        /* \"OnDemo/contracts/AccountManagement.sol\":8810:8823  u.userAddress */\n      mload\n      sub(shl(0xa0, 0x01), 0x01)\n        /* \"OnDemo/contracts/AccountManagement.sol\":8810:8837  u.userAddress != address(0) */\n      and\n      iszero\n      iszero\n      swap4\n        /* \"OnDemo/contracts/AccountManagement.sol\":8685:8845  function userExists(address _address) external view returns(bool){... */\n      swap3\n      pop\n      pop\n      pop\n      jump\t// out\n        /* \"OnDemo/contracts/AccountManagement.sol\":3559:4036  function deactivateAccount(address _address) public onlyIfUserExists(_address){... */\n    tag_33:\n      sub(shl(0xa0, 0x01), 0x01)\n        /* \"OnDemo/contracts/AccountManagement.sol\":2183:2198  users[_address] */\n      dup1\n      dup3\n      and\n        /* \"OnDemo/contracts/AccountManagement.sol\":2222:2223  0 */\n      0x00\n        /* \"OnDemo/contracts/AccountManagement.sol\":2183:2198  users[_address] */\n      swap1\n      dup2\n      mstore\n        /* \"OnDemo/contracts/AccountManagement.sol\":2183:2188  users */\n      0x02\n        /* \"OnDemo/contracts/AccountManagement.sol\":2183:2198  users[_address] */\n      0x20\n      mstore\n      0x40\n      swap1\n      keccak256\n        /* \"OnDemo/contracts/AccountManagement.sol\":2183:2210  users[_address].userAddress */\n      sload\n        /* \"OnDemo/contracts/AccountManagement.sol\":3628:3636  _address */\n      dup3\n      swap2\n        /* \"OnDemo/contracts/AccountManagement.sol\":2183:2210  users[_address].userAddress */\n      and\n        /* \"OnDemo/contracts/AccountManagement.sol\":2175:2250  require(users[_address].userAddress != address(0), \"Account doesn't exist\") */\n      tag_99\n      jumpi\n      mload(0x40)\n      shl(0xe5, 0x461bcd)\n      dup2\n      mstore\n      0x04\n      add\n      tag_100\n      swap1\n      tag_101\n      jump\t// in\n    tag_100:\n      mload(0x40)\n      dup1\n      swap2\n      sub\n      swap1\n      revert\n    tag_99:\n      sub(shl(0xa0, 0x01), 0x01)\n        /* \"OnDemo/contracts/AccountManagement.sol\":3762:3785  activeMembers[_address] */\n      dup3\n      and\n      0x00\n      swap1\n      dup2\n      mstore\n        /* \"OnDemo/contracts/AccountManagement.sol\":3762:3775  activeMembers */\n      0x03\n        /* \"OnDemo/contracts/AccountManagement.sol\":3762:3785  activeMembers[_address] */\n      0x20\n      mstore\n      0x40\n      swap1\n      keccak256\n      sload\n      0xff\n      and\n        /* \"OnDemo/contracts/AccountManagement.sol\":3759:4016  if(activeMembers[_address]){... */\n      iszero\n      tag_103\n      jumpi\n      sub(shl(0xa0, 0x01), 0x01)\n        /* \"OnDemo/contracts/AccountManagement.sol\":3821:3836  users[_address] */\n      dup3\n      and\n        /* \"OnDemo/contracts/AccountManagement.sol\":3801:3818  User storage user */\n      0x00\n        /* \"OnDemo/contracts/AccountManagement.sol\":3821:3836  users[_address] */\n      swap1\n      dup2\n      mstore\n        /* \"OnDemo/contracts/AccountManagement.sol\":3821:3826  users */\n      0x02\n        /* \"OnDemo/contracts/AccountManagement.sol\":3821:3836  users[_address] */\n      0x20\n      swap1\n      dup2\n      mstore\n      0x40\n      dup1\n      dup4\n      keccak256\n        /* \"OnDemo/contracts/AccountManagement.sol\":3851:3864  user.isActive */\n      0x04\n      dup2\n      add\n        /* \"OnDemo/contracts/AccountManagement.sol\":3851:3872  user.isActive = false */\n      dup1\n      sload\n      not(0xff)\n      swap1\n      dup2\n      and\n      swap1\n      swap2\n      sstore\n        /* \"OnDemo/contracts/AccountManagement.sol\":3939:3952  activeMembers */\n      0x03\n        /* \"OnDemo/contracts/AccountManagement.sol\":3939:3962  activeMembers[_address] */\n      swap1\n      swap4\n      mstore\n      swap1\n      dup4\n      keccak256\n        /* \"OnDemo/contracts/AccountManagement.sol\":3939:3970  activeMembers[_address] = false */\n      dup1\n      sload\n      swap1\n      swap3\n      and\n      swap1\n      swap2\n      sstore\n        /* \"OnDemo/contracts/AccountManagement.sol\":3985:4004  activeMemberCount-- */\n      dup2\n      sload\n        /* \"OnDemo/contracts/AccountManagement.sol\":3821:3836  users[_address] */\n      swap1\n      swap2\n        /* \"OnDemo/contracts/AccountManagement.sol\":3801:3818  User storage user */\n      dup1\n        /* \"OnDemo/contracts/AccountManagement.sol\":3985:4004  activeMemberCount-- */\n      tag_104\n      dup4\n      tag_105\n      jump\t// in\n    tag_104:\n      swap2\n      swap1\n      pop\n      sstore\n      pop\n        /* \"OnDemo/contracts/AccountManagement.sol\":3786:4016  {... */\n      pop\n        /* \"OnDemo/contracts/AccountManagement.sol\":3759:4016  if(activeMembers[_address]){... */\n    tag_103:\n        /* \"OnDemo/contracts/AccountManagement.sol\":3559:4036  function deactivateAccount(address _address) public onlyIfUserExists(_address){... */\n      pop\n      pop\n      jump\t// out\n        /* \"OnDemo/contracts/AccountManagement.sol\":8853:10667  function testAccountManagement() public{... */\n    tag_39:\n        /* \"OnDemo/contracts/AccountManagement.sol\":8905:8936  address[10] memory testAccounts */\n      0x00\n        /* \"OnDemo/contracts/AccountManagement.sol\":8905:9511  address[10] memory testAccounts = [ ... */\n      mload(0x40)\n      dup1\n      0x0140\n      add\n      0x40\n      mstore\n      dup1\n        /* \"OnDemo/contracts/AccountManagement.sol\":8955:8997  0xAb8483F64d9C6d1EcF9b849Ae677dD3315835cb2 */\n      0xab8483f64d9c6d1ecf9b849ae677dd3315835cb2\n      sub(shl(0xa0, 0x01), 0x01)\n        /* \"OnDemo/contracts/AccountManagement.sol\":8905:9511  address[10] memory testAccounts = [ ... */\n      and\n      sub(shl(0xa0, 0x01), 0x01)\n      and\n      dup2\n      mstore\n      0x20\n      add\n        /* \"OnDemo/contracts/AccountManagement.sol\":9012:9054  0x4B20993Bc481177ec7E8f571ceCaE8A9e22C02db */\n      0x4b20993bc481177ec7e8f571cecae8a9e22c02db\n      sub(shl(0xa0, 0x01), 0x01)\n        /* \"OnDemo/contracts/AccountManagement.sol\":8905:9511  address[10] memory testAccounts = [ ... */\n      and\n      sub(shl(0xa0, 0x01), 0x01)\n      and\n      dup2\n      mstore\n      0x20\n      add\n        /* \"OnDemo/contracts/AccountManagement.sol\":9069:9111  0x78731D3Ca6b7E34aC0F824c42a7cC18A495cabaB */\n      0x78731d3ca6b7e34ac0f824c42a7cc18a495cabab\n      sub(shl(0xa0, 0x01), 0x01)\n        /* \"OnDemo/contracts/AccountManagement.sol\":8905:9511  address[10] memory testAccounts = [ ... */\n      and\n      sub(shl(0xa0, 0x01), 0x01)\n      and\n      dup2\n      mstore\n      0x20\n      add\n        /* \"OnDemo/contracts/AccountManagement.sol\":9126:9168  0x617F2E2fD72FD9D5503197092aC168c91465E7f2 */\n      0x617f2e2fd72fd9d5503197092ac168c91465e7f2\n      sub(shl(0xa0, 0x01), 0x01)\n        /* \"OnDemo/contracts/AccountManagement.sol\":8905:9511  address[10] memory testAccounts = [ ... */\n      and\n      sub(shl(0xa0, 0x01), 0x01)\n      and\n      dup2\n      mstore\n      0x20\n      add\n        /* \"OnDemo/contracts/AccountManagement.sol\":9183:9225  0x17F6AD8Ef982297579C203069C1DbfFE4348c372 */\n      0x17f6ad8ef982297579c203069c1dbffe4348c372\n      sub(shl(0xa0, 0x01), 0x01)\n        /* \"OnDemo/contracts/AccountManagement.sol\":8905:9511  address[10] memory testAccounts = [ ... */\n      and\n      sub(shl(0xa0, 0x01), 0x01)\n      and\n      dup2\n      mstore\n      0x20\n      add\n        /* \"OnDemo/contracts/AccountManagement.sol\":9240:9282  0x5c6B0f7Bf3E7ce046039Bd8FABdfD3f9F5021678 */\n      0x5c6b0f7bf3e7ce046039bd8fabdfd3f9f5021678\n      sub(shl(0xa0, 0x01), 0x01)\n        /* \"OnDemo/contracts/AccountManagement.sol\":8905:9511  address[10] memory testAccounts = [ ... */\n      and\n      sub(shl(0xa0, 0x01), 0x01)\n      and\n      dup2\n      mstore\n      0x20\n      add\n        /* \"OnDemo/contracts/AccountManagement.sol\":9297:9339  0x03C6FcED478cBbC9a4FAB34eF9f40767739D1Ff7 */\n      0x03c6fced478cbbc9a4fab34ef9f40767739d1ff7\n      sub(shl(0xa0, 0x01), 0x01)\n        /* \"OnDemo/contracts/AccountManagement.sol\":8905:9511  address[10] memory testAccounts = [ ... */\n      and\n      sub(shl(0xa0, 0x01), 0x01)\n      and\n      dup2\n      mstore\n      0x20\n      add\n        /* \"OnDemo/contracts/AccountManagement.sol\":9354:9396  0x1aE0EA34a72D944a8C7603FfB3eC30a6669E454C */\n      0x1ae0ea34a72d944a8c7603ffb3ec30a6669e454c\n      sub(shl(0xa0, 0x01), 0x01)\n        /* \"OnDemo/contracts/AccountManagement.sol\":8905:9511  address[10] memory testAccounts = [ ... */\n      and\n      sub(shl(0xa0, 0x01), 0x01)\n      and\n      dup2\n      mstore\n      0x20\n      add\n        /* \"OnDemo/contracts/AccountManagement.sol\":9411:9453  0xCA35b7d915458EF540aDe6068dFe2F44E8fa733c */\n      0xca35b7d915458ef540ade6068dfe2f44e8fa733c\n      sub(shl(0xa0, 0x01), 0x01)\n        /* \"OnDemo/contracts/AccountManagement.sol\":8905:9511  address[10] memory testAccounts = [ ... */\n      and\n      sub(shl(0xa0, 0x01), 0x01)\n      and\n      dup2\n      mstore\n      0x20\n      add\n        /* \"OnDemo/contracts/AccountManagement.sol\":9468:9510  0x14723A09ACff6D2A60DcdF7aA4AFf308FDDC160C */\n      0x14723a09acff6d2a60dcdf7aa4aff308fddc160c\n      sub(shl(0xa0, 0x01), 0x01)\n        /* \"OnDemo/contracts/AccountManagement.sol\":8905:9511  address[10] memory testAccounts = [ ... */\n      and\n      sub(shl(0xa0, 0x01), 0x01)\n      and\n      dup2\n      mstore\n      pop\n      swap1\n      pop\n        /* \"OnDemo/contracts/AccountManagement.sol\":9524:9552  string[10] memory firstNames */\n      0x00\n        /* \"OnDemo/contracts/AccountManagement.sol\":9524:9643  string[10] memory firstNames = [\"Rick\", \"Vanessa\", \"Alex\", \"Vici\", \"Lu\", \"John\", \"Sarah\", \"Samantha\", \"Peter\", \"David\"] */\n      mload(0x40)\n      dup1\n      0x0140\n      add\n      0x40\n      mstore\n      dup1\n      mload(0x40)\n      dup1\n      0x40\n      add\n      0x40\n      mstore\n      dup1\n      0x04\n      dup2\n      mstore\n      0x20\n      add\n      shl(0xe0, 0x5269636b)\n      dup2\n      mstore\n      pop\n      dup2\n      mstore\n      0x20\n      add\n      mload(0x40)\n      dup1\n      0x40\n      add\n      0x40\n      mstore\n      dup1\n      0x07\n      dup2\n      mstore\n      0x20\n      add\n      shl(0xc8, 0x56616e65737361)\n      dup2\n      mstore\n      pop\n      dup2\n      mstore\n      0x20\n      add\n      mload(0x40)\n      dup1\n      0x40\n      add\n      0x40\n      mstore\n      dup1\n      0x04\n      dup2\n      mstore\n      0x20\n      add\n      shl(0xe3, 0x082d8caf)\n      dup2\n      mstore\n      pop\n      dup2\n      mstore\n      0x20\n      add\n      mload(0x40)\n      dup1\n      0x40\n      add\n      0x40\n      mstore\n      dup1\n      0x04\n      dup2\n      mstore\n      0x20\n      add\n      shl(0xe0, 0x56696369)\n      dup2\n      mstore\n      pop\n      dup2\n      mstore\n      0x20\n      add\n      mload(0x40)\n      dup1\n      0x40\n      add\n      0x40\n      mstore\n      dup1\n      0x02\n      dup2\n      mstore\n      0x20\n      add\n      shl(0xf0, 0x4c75)\n      dup2\n      mstore\n      pop\n      dup2\n      mstore\n      0x20\n      add\n      mload(0x40)\n      dup1\n      0x40\n      add\n      0x40\n      mstore\n      dup1\n      0x04\n      dup2\n      mstore\n      0x20\n      add\n      shl(0xe1, 0x2537b437)\n      dup2\n      mstore\n      pop\n      dup2\n      mstore\n      0x20\n      add\n      mload(0x40)\n      dup1\n      0x40\n      add\n      0x40\n      mstore\n      dup1\n      0x05\n      dup2\n      mstore\n      0x20\n      add\n      shl(0xdb, 0x0a6c2e4c2d)\n      dup2\n      mstore\n      pop\n      dup2\n      mstore\n      0x20\n      add\n      mload(0x40)\n      dup1\n      0x40\n      add\n      0x40\n      mstore\n      dup1\n      0x08\n      dup2\n      mstore\n      0x20\n      add\n      shl(0xc0, 0x53616d616e746861)\n      dup2\n      mstore\n      pop\n      dup2\n      mstore\n      0x20\n      add\n      mload(0x40)\n      dup1\n      0x40\n      add\n      0x40\n      mstore\n      dup1\n      0x05\n      dup2\n      mstore\n      0x20\n      add\n      shl(0xd9, 0x2832ba32b9)\n      dup2\n      mstore\n      pop\n      dup2\n      mstore\n      0x20\n      add\n      mload(0x40)\n      dup1\n      0x40\n      add\n      0x40\n      mstore\n      dup1\n      0x05\n      dup2\n      mstore\n      0x20\n      add\n      shl(0xda, 0x11185d9a59)\n      dup2\n      mstore\n      pop\n      dup2\n      mstore\n      pop\n      swap1\n      pop\n        /* \"OnDemo/contracts/AccountManagement.sol\":9654:9681  string[10] memory lastNames */\n      0x00\n        /* \"OnDemo/contracts/AccountManagement.sol\":9654:9770  string[10] memory lastNames = [\"Patel\",\"Kim\",\"Brown\",\"Davis\",\"Martinez\",\"Wilson\",\"Garcia\",\"Jones\",\"Jackson\",\"Smith\"] */\n      mload(0x40)\n      dup1\n      0x0140\n      add\n      0x40\n      mstore\n      dup1\n      mload(0x40)\n      dup1\n      0x40\n      add\n      0x40\n      mstore\n      dup1\n      0x05\n      dup2\n      mstore\n      0x20\n      add\n      shl(0xda, 0x14185d195b)\n      dup2\n      mstore\n      pop\n      dup2\n      mstore\n      0x20\n      add\n      mload(0x40)\n      dup1\n      0x40\n      add\n      0x40\n      mstore\n      dup1\n      0x03\n      dup2\n      mstore\n      0x20\n      add\n      shl(0xe8, 0x4b696d)\n      dup2\n      mstore\n      pop\n      dup2\n      mstore\n      0x20\n      add\n      mload(0x40)\n      dup1\n      0x40\n      add\n      0x40\n      mstore\n      dup1\n      0x05\n      dup2\n      mstore\n      0x20\n      add\n      shl(0xd9, 0x213937bbb7)\n      dup2\n      mstore\n      pop\n      dup2\n      mstore\n      0x20\n      add\n      mload(0x40)\n      dup1\n      0x40\n      add\n      0x40\n      mstore\n      dup1\n      0x05\n      dup2\n      mstore\n      0x20\n      add\n      shl(0xd8, 0x4461766973)\n      dup2\n      mstore\n      pop\n      dup2\n      mstore\n      0x20\n      add\n      mload(0x40)\n      dup1\n      0x40\n      add\n      0x40\n      mstore\n      dup1\n      0x08\n      dup2\n      mstore\n      0x20\n      add\n      shl(0xc1, 0x26b0b93a34b732bd)\n      dup2\n      mstore\n      pop\n      dup2\n      mstore\n      0x20\n      add\n      mload(0x40)\n      dup1\n      0x40\n      add\n      0x40\n      mstore\n      dup1\n      0x06\n      dup2\n      mstore\n      0x20\n      add\n      shl(0xd1, 0x2bb4b639b7b7)\n      dup2\n      mstore\n      pop\n      dup2\n      mstore\n      0x20\n      add\n      mload(0x40)\n      dup1\n      0x40\n      add\n      0x40\n      mstore\n      dup1\n      0x06\n      dup2\n      mstore\n      0x20\n      add\n      shl(0xd0, 0x476172636961)\n      dup2\n      mstore\n      pop\n      dup2\n      mstore\n      0x20\n      add\n      mload(0x40)\n      dup1\n      0x40\n      add\n      0x40\n      mstore\n      dup1\n      0x05\n      dup2\n      mstore\n      0x20\n      add\n      shl(0xd8, 0x4a6f6e6573)\n      dup2\n      mstore\n      pop\n      dup2\n      mstore\n      0x20\n      add\n      mload(0x40)\n      dup1\n      0x40\n      add\n      0x40\n      mstore\n      dup1\n      0x07\n      dup2\n      mstore\n      0x20\n      add\n      shl(0xc9, 0x2530b1b5b9b7b7)\n      dup2\n      mstore\n      pop\n      dup2\n      mstore\n      0x20\n      add\n      mload(0x40)\n      dup1\n      0x40\n      add\n      0x40\n      mstore\n      dup1\n      0x05\n      dup2\n      mstore\n      0x20\n      add\n      shl(0xdb, 0x0a6dad2e8d)\n      dup2\n      mstore\n      pop\n      dup2\n      mstore\n      pop\n      swap1\n      pop\n        /* \"OnDemo/contracts/AccountManagement.sol\":9781:9811  string[10] memory mailAdresses */\n      0x00\n        /* \"OnDemo/contracts/AccountManagement.sol\":9781:10040  string[10] memory mailAdresses = [ \"Rick.Patel@por.com\",\"Vanessa.Kim@por.com\", \"Alex.Brown@por.com\",\"Vici.Davis@por.com\",\"Lu.Martinez@por.com\",\"John.Wilson@por.com\",\"Sarah.Garcia@por.com\",\"Samantha.Jones@por.com\",\"Peter.Jackson@por.com\",\"David.Smith@por.com\"] */\n      mload(0x40)\n      dup1\n      0x0140\n      add\n      0x40\n      mstore\n      dup1\n      mload(0x40)\n      dup1\n      0x40\n      add\n      0x40\n      mstore\n      dup1\n      0x12\n      dup2\n      mstore\n      0x20\n      add\n      shl(0x70, 0x5269636b2e506174656c40706f722e636f6d)\n      dup2\n      mstore\n      pop\n      dup2\n      mstore\n      0x20\n      add\n      mload(0x40)\n      dup1\n      0x40\n      add\n      0x40\n      mstore\n      dup1\n      0x13\n      dup2\n      mstore\n      0x20\n      add\n      shl(0x68, 0x56616e657373612e4b696d40706f722e636f6d)\n      dup2\n      mstore\n      pop\n      dup2\n      mstore\n      0x20\n      add\n      mload(0x40)\n      dup1\n      0x40\n      add\n      0x40\n      mstore\n      dup1\n      0x12\n      dup2\n      mstore\n      0x20\n      add\n      shl(0x70, 0x416c65782e42726f776e40706f722e636f6d)\n      dup2\n      mstore\n      pop\n      dup2\n      mstore\n      0x20\n      add\n      mload(0x40)\n      dup1\n      0x40\n      add\n      0x40\n      mstore\n      dup1\n      0x12\n      dup2\n      mstore\n      0x20\n      add\n      shl(0x70, 0x566963692e446176697340706f722e636f6d)\n      dup2\n      mstore\n      pop\n      dup2\n      mstore\n      0x20\n      add\n      mload(0x40)\n      dup1\n      0x40\n      add\n      0x40\n      mstore\n      dup1\n      0x13\n      dup2\n      mstore\n      0x20\n      add\n      shl(0x68, 0x4c752e4d617274696e657a40706f722e636f6d)\n      dup2\n      mstore\n      pop\n      dup2\n      mstore\n      0x20\n      add\n      mload(0x40)\n      dup1\n      0x40\n      add\n      0x40\n      mstore\n      dup1\n      0x13\n      dup2\n      mstore\n      0x20\n      add\n      shl(0x68, 0x4a6f686e2e57696c736f6e40706f722e636f6d)\n      dup2\n      mstore\n      pop\n      dup2\n      mstore\n      0x20\n      add\n      mload(0x40)\n      dup1\n      0x40\n      add\n      0x40\n      mstore\n      dup1\n      0x14\n      dup2\n      mstore\n      0x20\n      add\n      shl(0x60, 0x53617261682e47617263696140706f722e636f6d)\n      dup2\n      mstore\n      pop\n      dup2\n      mstore\n      0x20\n      add\n      mload(0x40)\n      dup1\n      0x40\n      add\n      0x40\n      mstore\n      dup1\n      0x16\n      dup2\n      mstore\n      0x20\n      add\n      shl(0x50, 0x53616d616e7468612e4a6f6e657340706f722e636f6d)\n      dup2\n      mstore\n      pop\n      dup2\n      mstore\n      0x20\n      add\n      mload(0x40)\n      dup1\n      0x40\n      add\n      0x40\n      mstore\n      dup1\n      0x15\n      dup2\n      mstore\n      0x20\n      add\n      shl(0x58, 0x50657465722e4a61636b736f6e40706f722e636f6d)\n      dup2\n      mstore\n      pop\n      dup2\n      mstore\n      0x20\n      add\n      mload(0x40)\n      dup1\n      0x40\n      add\n      0x40\n      mstore\n      dup1\n      0x13\n      dup2\n      mstore\n      0x20\n      add\n      shl(0x68, 0x44617669642e536d69746840706f722e636f6d)\n      dup2\n      mstore\n      pop\n      dup2\n      mstore\n      pop\n      swap1\n      pop\n        /* \"OnDemo/contracts/AccountManagement.sol\":10055:10061  uint i */\n      0x00\n        /* \"OnDemo/contracts/AccountManagement.sol\":10051:10660  for(uint i = 0; i < testAccounts.length; i++)... */\n    tag_108:\n        /* \"OnDemo/contracts/AccountManagement.sol\":10071:10090  testAccounts.length */\n      0x0a\n        /* \"OnDemo/contracts/AccountManagement.sol\":10067:10068  i */\n      dup2\n        /* \"OnDemo/contracts/AccountManagement.sol\":10067:10090  i < testAccounts.length */\n      lt\n        /* \"OnDemo/contracts/AccountManagement.sol\":10051:10660  for(uint i = 0; i < testAccounts.length; i++)... */\n      iszero\n      tag_109\n      jumpi\n        /* \"OnDemo/contracts/AccountManagement.sol\":10121:10132  address acc */\n      0x00\n        /* \"OnDemo/contracts/AccountManagement.sol\":10135:10147  testAccounts */\n      dup6\n        /* \"OnDemo/contracts/AccountManagement.sol\":10148:10149  i */\n      dup3\n        /* \"OnDemo/contracts/AccountManagement.sol\":10135:10150  testAccounts[i] */\n      0x0a\n      dup2\n      lt\n      tag_112\n      jumpi\n      tag_112\n      tag_113\n      jump\t// in\n    tag_112:\n      0x20\n      mul\n      add\n      mload\n        /* \"OnDemo/contracts/AccountManagement.sol\":10169:10189  this.userExists(acc) */\n      mload(0x40)\n      shl(0xe0, 0x0e666e49)\n      dup2\n      mstore\n      sub(shl(0xa0, 0x01), 0x01)\n        /* \"#utility.yul\":3065:3097   */\n      dup3\n      and\n        /* \"OnDemo/contracts/AccountManagement.sol\":10169:10189  this.userExists(acc) */\n      0x04\n      dup3\n      add\n        /* \"#utility.yul\":3047:3098   */\n      mstore\n        /* \"OnDemo/contracts/AccountManagement.sol\":10135:10150  testAccounts[i] */\n      swap1\n      swap2\n      pop\n        /* \"OnDemo/contracts/AccountManagement.sol\":10169:10173  this */\n      address\n      swap1\n        /* \"OnDemo/contracts/AccountManagement.sol\":10169:10184  this.userExists */\n      0x0e666e49\n      swap1\n        /* \"#utility.yul\":3020:3038   */\n      0x24\n      add\n        /* \"OnDemo/contracts/AccountManagement.sol\":10169:10189  this.userExists(acc) */\n      0x20\n      mload(0x40)\n      dup1\n      dup4\n      sub\n      dup2\n      dup7\n      gas\n      staticcall\n      iszero\n      dup1\n      iszero\n      tag_116\n      jumpi\n      returndatasize\n      0x00\n      dup1\n      returndatacopy\n      revert(0x00, returndatasize)\n    tag_116:\n      pop\n      pop\n      pop\n      pop\n      mload(0x40)\n      returndatasize\n      not(0x1f)\n      0x1f\n      dup3\n      add\n      and\n      dup3\n      add\n      dup1\n      0x40\n      mstore\n      pop\n      dup2\n      add\n      swap1\n      tag_117\n      swap2\n      swap1\n      tag_118\n      jump\t// in\n    tag_117:\n        /* \"OnDemo/contracts/AccountManagement.sol\":10165:10649  if(!this.userExists(acc))... */\n      tag_134\n      jumpi\n        /* \"OnDemo/contracts/AccountManagement.sol\":10223:10287  createAccount(acc, firstNames[i], lastNames[i], mailAdresses[i]) */\n      tag_120\n        /* \"OnDemo/contracts/AccountManagement.sol\":10237:10240  acc */\n      dup2\n        /* \"OnDemo/contracts/AccountManagement.sol\":10242:10252  firstNames */\n      dup7\n        /* \"OnDemo/contracts/AccountManagement.sol\":10253:10254  i */\n      dup5\n        /* \"OnDemo/contracts/AccountManagement.sol\":10242:10255  firstNames[i] */\n      0x0a\n      dup2\n      lt\n      tag_122\n      jumpi\n      tag_122\n      tag_113\n      jump\t// in\n    tag_122:\n      0x20\n      mul\n      add\n      mload\n        /* \"OnDemo/contracts/AccountManagement.sol\":10257:10266  lastNames */\n      dup7\n        /* \"OnDemo/contracts/AccountManagement.sol\":10267:10268  i */\n      dup6\n        /* \"OnDemo/contracts/AccountManagement.sol\":10257:10269  lastNames[i] */\n      0x0a\n      dup2\n      lt\n      tag_124\n      jumpi\n      tag_124\n      tag_113\n      jump\t// in\n    tag_124:\n      0x20\n      mul\n      add\n      mload\n        /* \"OnDemo/contracts/AccountManagement.sol\":10271:10283  mailAdresses */\n      dup7\n        /* \"OnDemo/contracts/AccountManagement.sol\":10284:10285  i */\n      dup7\n        /* \"OnDemo/contracts/AccountManagement.sol\":10271:10286  mailAdresses[i] */\n      0x0a\n      dup2\n      lt\n      tag_126\n      jumpi\n      tag_126\n      tag_113\n      jump\t// in\n    tag_126:\n      0x20\n      mul\n      add\n      mload\n        /* \"OnDemo/contracts/AccountManagement.sol\":10223:10236  createAccount */\n      tag_69\n        /* \"OnDemo/contracts/AccountManagement.sol\":10223:10287  createAccount(acc, firstNames[i], lastNames[i], mailAdresses[i]) */\n      jump\t// in\n    tag_120:\n        /* \"OnDemo/contracts/AccountManagement.sol\":10306:10334  assignRole(acc, Role.MEMBER) */\n      tag_127\n        /* \"OnDemo/contracts/AccountManagement.sol\":10317:10320  acc */\n      dup2\n        /* \"OnDemo/contracts/AccountManagement.sol\":10322:10333  Role.MEMBER */\n      0x02\n        /* \"OnDemo/contracts/AccountManagement.sol\":10306:10316  assignRole */\n      tag_47\n        /* \"OnDemo/contracts/AccountManagement.sol\":10306:10334  assignRole(acc, Role.MEMBER) */\n      jump\t// in\n    tag_127:\n        /* \"OnDemo/contracts/AccountManagement.sol\":10353:10380  removeRole(acc, Role.GUEST) */\n      tag_128\n        /* \"OnDemo/contracts/AccountManagement.sol\":10364:10367  acc */\n      dup2\n        /* \"OnDemo/contracts/AccountManagement.sol\":10369:10379  Role.GUEST */\n      0x03\n        /* \"OnDemo/contracts/AccountManagement.sol\":10353:10363  removeRole */\n      tag_62\n        /* \"OnDemo/contracts/AccountManagement.sol\":10353:10380  removeRole(acc, Role.GUEST) */\n      jump\t// in\n    tag_128:\n        /* \"OnDemo/contracts/AccountManagement.sol\":10410:10411  2 */\n      0x02\n        /* \"OnDemo/contracts/AccountManagement.sol\":10406:10407  i */\n      dup3\n        /* \"OnDemo/contracts/AccountManagement.sol\":10406:10411  i < 2 */\n      lt\n        /* \"OnDemo/contracts/AccountManagement.sol\":10403:10593  if(i < 2){... */\n      iszero\n      tag_129\n      jumpi\n        /* \"OnDemo/contracts/AccountManagement.sol\":10435:10463  assignRole(acc, Role.LEADER) */\n      tag_130\n        /* \"OnDemo/contracts/AccountManagement.sol\":10446:10449  acc */\n      dup2\n        /* \"OnDemo/contracts/AccountManagement.sol\":10451:10462  Role.LEADER */\n      0x00\n        /* \"OnDemo/contracts/AccountManagement.sol\":10435:10445  assignRole */\n      tag_47\n        /* \"OnDemo/contracts/AccountManagement.sol\":10435:10463  assignRole(acc, Role.LEADER) */\n      jump\t// in\n    tag_130:\n        /* \"OnDemo/contracts/AccountManagement.sol\":10403:10593  if(i < 2){... */\n      jump(tag_133)\n    tag_129:\n        /* \"OnDemo/contracts/AccountManagement.sol\":10513:10514  4 */\n      0x04\n        /* \"OnDemo/contracts/AccountManagement.sol\":10509:10510  i */\n      dup3\n        /* \"OnDemo/contracts/AccountManagement.sol\":10509:10514  i < 4 */\n      lt\n        /* \"OnDemo/contracts/AccountManagement.sol\":10506:10593  if(i < 4){... */\n      iszero\n      tag_133\n      jumpi\n        /* \"OnDemo/contracts/AccountManagement.sol\":10538:10573  assignRole(acc, Role.COUNCILMEMBER) */\n      tag_133\n        /* \"OnDemo/contracts/AccountManagement.sol\":10549:10552  acc */\n      dup2\n        /* \"OnDemo/contracts/AccountManagement.sol\":10554:10572  Role.COUNCILMEMBER */\n      0x01\n        /* \"OnDemo/contracts/AccountManagement.sol\":10538:10548  assignRole */\n      tag_47\n        /* \"OnDemo/contracts/AccountManagement.sol\":10538:10573  assignRole(acc, Role.COUNCILMEMBER) */\n      jump\t// in\n    tag_133:\n        /* \"OnDemo/contracts/AccountManagement.sol\":10613:10633  activateAccount(acc) */\n      tag_134\n        /* \"OnDemo/contracts/AccountManagement.sol\":10629:10632  acc */\n      dup2\n        /* \"OnDemo/contracts/AccountManagement.sol\":10613:10628  activateAccount */\n      tag_55\n        /* \"OnDemo/contracts/AccountManagement.sol\":10613:10633  activateAccount(acc) */\n      jump\t// in\n    tag_134:\n      pop\n        /* \"OnDemo/contracts/AccountManagement.sol\":10092:10095  i++ */\n      dup1\n      tag_135\n      dup2\n      tag_136\n      jump\t// in\n    tag_135:\n      swap2\n      pop\n      pop\n        /* \"OnDemo/contracts/AccountManagement.sol\":10051:10660  for(uint i = 0; i < testAccounts.length; i++)... */\n      jump(tag_108)\n    tag_109:\n      pop\n        /* \"OnDemo/contracts/AccountManagement.sol\":8892:10667  {... */\n      pop\n      pop\n      pop\n      pop\n        /* \"OnDemo/contracts/AccountManagement.sol\":8853:10667  function testAccountManagement() public{... */\n      jump\t// out\n        /* \"OnDemo/contracts/AccountManagement.sol\":7768:7894  function hasLeaderRole(address _address) external view returns (bool) {... */\n    tag_42:\n        /* \"OnDemo/contracts/AccountManagement.sol\":7832:7836  bool */\n      0x00\n        /* \"OnDemo/contracts/AccountManagement.sol\":7856:7886  hasRole(_address, Role.LEADER) */\n      tag_79\n        /* \"OnDemo/contracts/AccountManagement.sol\":7864:7872  _address */\n      dup3\n        /* \"OnDemo/contracts/AccountManagement.sol\":7874:7885  Role.LEADER */\n      0x00\n        /* \"OnDemo/contracts/AccountManagement.sol\":7856:7863  hasRole */\n      tag_80\n        /* \"OnDemo/contracts/AccountManagement.sol\":7856:7886  hasRole(_address, Role.LEADER) */\n      jump\t// in\n        /* \"OnDemo/contracts/AccountManagement.sol\":4403:5009  function assignRole(address _address, Role _role) public onlyLeader onlyIfUserExists(_address){... */\n    tag_47:\n        /* \"OnDemo/contracts/AccountManagement.sol\":2015:2020  owner */\n      and(sub(shl(0xa0, 0x01), 0x01), sload(0x01))\n        /* \"OnDemo/contracts/AccountManagement.sol\":2001:2011  msg.sender */\n      caller\n        /* \"OnDemo/contracts/AccountManagement.sol\":2001:2020  msg.sender == owner */\n      eq\n      dup1\n        /* \"OnDemo/contracts/AccountManagement.sol\":2001:2054  msg.sender == owner || this.hasLeaderRole(msg.sender) */\n      tag_144\n      jumpi\n      pop\n        /* \"OnDemo/contracts/AccountManagement.sol\":2024:2054  this.hasLeaderRole(msg.sender) */\n      mload(0x40)\n      shl(0xe0, 0x297027d5)\n      dup2\n      mstore\n        /* \"OnDemo/contracts/AccountManagement.sol\":2043:2053  msg.sender */\n      caller\n        /* \"OnDemo/contracts/AccountManagement.sol\":2024:2054  this.hasLeaderRole(msg.sender) */\n      0x04\n      dup3\n      add\n        /* \"#utility.yul\":3047:3098   */\n      mstore\n        /* \"OnDemo/contracts/AccountManagement.sol\":2024:2028  this */\n      address\n      swap1\n        /* \"OnDemo/contracts/AccountManagement.sol\":2024:2042  this.hasLeaderRole */\n      0x297027d5\n      swap1\n        /* \"#utility.yul\":3020:3038   */\n      0x24\n      add\n        /* \"OnDemo/contracts/AccountManagement.sol\":2024:2054  this.hasLeaderRole(msg.sender) */\n      0x20\n      mload(0x40)\n      dup1\n      dup4\n      sub\n      dup2\n      dup7\n      gas\n      staticcall\n      iszero\n      dup1\n      iszero\n      tag_143\n      jumpi\n      returndatasize\n      0x00\n      dup1\n      returndatacopy\n      revert(0x00, returndatasize)\n    tag_143:\n      pop\n      pop\n      pop\n      pop\n      mload(0x40)\n      returndatasize\n      not(0x1f)\n      0x1f\n      dup3\n      add\n      and\n      dup3\n      add\n      dup1\n      0x40\n      mstore\n      pop\n      dup2\n      add\n      swap1\n      tag_144\n      swap2\n      swap1\n      tag_118\n      jump\t// in\n    tag_144:\n        /* \"OnDemo/contracts/AccountManagement.sol\":1993:2093  require(msg.sender == owner || this.hasLeaderRole(msg.sender), \"Only owner can call this function.\") */\n      tag_145\n      jumpi\n      mload(0x40)\n      shl(0xe5, 0x461bcd)\n      dup2\n      mstore\n      0x04\n      add\n      tag_100\n      swap1\n      tag_147\n      jump\t// in\n    tag_145:\n      sub(shl(0xa0, 0x01), 0x01)\n        /* \"OnDemo/contracts/AccountManagement.sol\":2183:2198  users[_address] */\n      dup1\n      dup4\n      and\n        /* \"OnDemo/contracts/AccountManagement.sol\":2222:2223  0 */\n      0x00\n        /* \"OnDemo/contracts/AccountManagement.sol\":2183:2198  users[_address] */\n      swap1\n      dup2\n      mstore\n        /* \"OnDemo/contracts/AccountManagement.sol\":2183:2188  users */\n      0x02\n        /* \"OnDemo/contracts/AccountManagement.sol\":2183:2198  users[_address] */\n      0x20\n      mstore\n      0x40\n      swap1\n      keccak256\n        /* \"OnDemo/contracts/AccountManagement.sol\":2183:2210  users[_address].userAddress */\n      sload\n        /* \"OnDemo/contracts/AccountManagement.sol\":4488:4496  _address */\n      dup4\n      swap2\n        /* \"OnDemo/contracts/AccountManagement.sol\":2183:2210  users[_address].userAddress */\n      and\n        /* \"OnDemo/contracts/AccountManagement.sol\":2175:2250  require(users[_address].userAddress != address(0), \"Account doesn't exist\") */\n      tag_149\n      jumpi\n      mload(0x40)\n      shl(0xe5, 0x461bcd)\n      dup2\n      mstore\n      0x04\n      add\n      tag_100\n      swap1\n      tag_101\n      jump\t// in\n    tag_149:\n      sub(shl(0xa0, 0x01), 0x01)\n        /* \"OnDemo/contracts/AccountManagement.sol\":4565:4580  users[_address] */\n      dup4\n      and\n        /* \"OnDemo/contracts/AccountManagement.sol\":4545:4562  User storage user */\n      0x00\n        /* \"OnDemo/contracts/AccountManagement.sol\":4565:4580  users[_address] */\n      swap1\n      dup2\n      mstore\n        /* \"OnDemo/contracts/AccountManagement.sol\":4565:4570  users */\n      0x02\n        /* \"OnDemo/contracts/AccountManagement.sol\":4565:4580  users[_address] */\n      0x20\n      mstore\n      0x40\n      dup2\n      keccak256\n      swap1\n        /* \"OnDemo/contracts/AccountManagement.sol\":4617:4629  user.roleMap */\n      0x05\n      dup3\n      add\n      swap1\n        /* \"OnDemo/contracts/AccountManagement.sol\":4645:4650  _role */\n      dup5\n        /* \"OnDemo/contracts/AccountManagement.sol\":4645:4665  _role == Role.LEADER */\n      0x03\n      dup2\n      gt\n      iszero\n      tag_156\n      jumpi\n      tag_156\n      tag_154\n      jump\t// in\n    tag_156:\n      eq\n        /* \"OnDemo/contracts/AccountManagement.sol\":4642:5002  if(_role == Role.LEADER){... */\n      iszero\n      tag_157\n      jumpi\n        /* \"OnDemo/contracts/AccountManagement.sol\":4681:4704  roleMap.isLeader = true */\n      dup1\n      sload\n      not(0xff)\n      and\n        /* \"OnDemo/contracts/AccountManagement.sol\":4700:4704  true */\n      0x01\n        /* \"OnDemo/contracts/AccountManagement.sol\":4681:4704  roleMap.isLeader = true */\n      or\n      dup2\n      sstore\n        /* \"OnDemo/contracts/AccountManagement.sol\":4642:5002  if(_role == Role.LEADER){... */\n      jump(tag_109)\n    tag_157:\n        /* \"OnDemo/contracts/AccountManagement.sol\":4743:4761  Role.COUNCILMEMBER */\n      0x01\n        /* \"OnDemo/contracts/AccountManagement.sol\":4734:4739  _role */\n      dup5\n        /* \"OnDemo/contracts/AccountManagement.sol\":4734:4761  _role == Role.COUNCILMEMBER */\n      0x03\n      dup2\n      gt\n      iszero\n      tag_162\n      jumpi\n      tag_162\n      tag_154\n      jump\t// in\n    tag_162:\n      eq\n        /* \"OnDemo/contracts/AccountManagement.sol\":4731:5002  if(_role == Role.COUNCILMEMBER){... */\n      iszero\n      tag_163\n      jumpi\n        /* \"OnDemo/contracts/AccountManagement.sol\":4777:4807  roleMap.isCouncilMember = true */\n      dup1\n      sload\n      not(0xff00)\n      and\n      0x0100\n      or\n      dup2\n      sstore\n        /* \"OnDemo/contracts/AccountManagement.sol\":4731:5002  if(_role == Role.COUNCILMEMBER){... */\n      jump(tag_109)\n    tag_163:\n        /* \"OnDemo/contracts/AccountManagement.sol\":4853:4864  Role.MEMBER */\n      0x02\n        /* \"OnDemo/contracts/AccountManagement.sol\":4844:4849  _role */\n      dup5\n        /* \"OnDemo/contracts/AccountManagement.sol\":4844:4864  _role == Role.MEMBER */\n      0x03\n      dup2\n      gt\n      iszero\n      tag_168\n      jumpi\n      tag_168\n      tag_154\n      jump\t// in\n    tag_168:\n      eq\n        /* \"OnDemo/contracts/AccountManagement.sol\":4841:5002  if(_role == Role.MEMBER){... */\n      iszero\n      tag_169\n      jumpi\n        /* \"OnDemo/contracts/AccountManagement.sol\":4880:4903  roleMap.isMember = true */\n      dup1\n      sload\n      not(0xff0000)\n      and\n      0x010000\n      or\n      dup2\n      sstore\n        /* \"OnDemo/contracts/AccountManagement.sol\":4841:5002  if(_role == Role.MEMBER){... */\n      jump(tag_109)\n    tag_169:\n        /* \"OnDemo/contracts/AccountManagement.sol\":4942:4952  Role.GUEST */\n      0x03\n        /* \"OnDemo/contracts/AccountManagement.sol\":4933:4938  _role */\n      dup5\n        /* \"OnDemo/contracts/AccountManagement.sol\":4933:4952  _role == Role.GUEST */\n      0x03\n      dup2\n      gt\n      iszero\n      tag_174\n      jumpi\n      tag_174\n      tag_154\n      jump\t// in\n    tag_174:\n      eq\n        /* \"OnDemo/contracts/AccountManagement.sol\":4930:5002  if(_role == Role.GUEST){... */\n      iszero\n      tag_109\n      jumpi\n        /* \"OnDemo/contracts/AccountManagement.sol\":4968:4990  roleMap.isGuest = true */\n      dup1\n      sload\n      not(0xff000000)\n      and\n      0x01000000\n      or\n      dup2\n      sstore\n        /* \"OnDemo/contracts/AccountManagement.sol\":4497:5009  {... */\n      pop\n      pop\n        /* \"OnDemo/contracts/AccountManagement.sol\":2104:2105  _ */\n      pop\n        /* \"OnDemo/contracts/AccountManagement.sol\":4403:5009  function assignRole(address _address, Role _role) public onlyLeader onlyIfUserExists(_address){... */\n      pop\n      pop\n      jump\t// out\n        /* \"OnDemo/contracts/AccountManagement.sol\":8324:8565  function getUser(address _address) external view returns(User memory){... */\n    tag_50:\n        /* \"OnDemo/contracts/AccountManagement.sol\":8381:8392  User memory */\n      tag_176\n      0x40\n      dup1\n      mload\n      0xc0\n      dup2\n      add\n      dup3\n      mstore\n      0x00\n      dup1\n      dup3\n      mstore\n      0x60\n      0x20\n      dup1\n      dup5\n      add\n      dup3\n      swap1\n      mstore\n      dup4\n      dup6\n      add\n      dup3\n      swap1\n      mstore\n      dup2\n      dup5\n      add\n      dup3\n      swap1\n      mstore\n      0x80\n      dup1\n      dup6\n      add\n      dup5\n      swap1\n      mstore\n      dup6\n      mload\n      swap1\n      dup2\n      add\n      dup7\n      mstore\n      dup4\n      dup2\n      mstore\n      swap1\n      dup2\n      add\n      dup4\n      swap1\n      mstore\n      swap4\n      dup5\n      add\n      dup3\n      swap1\n      mstore\n      dup4\n      add\n      mstore\n      swap1\n      0xa0\n      dup3\n      add\n      mstore\n      swap1\n      jump\n    tag_176:\n      sub(shl(0xa0, 0x01), 0x01)\n        /* \"OnDemo/contracts/AccountManagement.sol\":8420:8435  users[_address] */\n      dup1\n      dup4\n      and\n        /* \"OnDemo/contracts/AccountManagement.sol\":8404:8417  User memory u */\n      0x00\n        /* \"OnDemo/contracts/AccountManagement.sol\":8420:8435  users[_address] */\n      swap1\n      dup2\n      mstore\n        /* \"OnDemo/contracts/AccountManagement.sol\":8420:8425  users */\n      0x02\n        /* \"OnDemo/contracts/AccountManagement.sol\":8420:8435  users[_address] */\n      0x20\n      swap1\n      dup2\n      mstore\n      0x40\n      dup1\n      dup4\n      keccak256\n        /* \"OnDemo/contracts/AccountManagement.sol\":8404:8435  User memory u = users[_address] */\n      dup2\n      mload\n      0xc0\n      dup2\n      add\n      swap1\n      swap3\n      mstore\n      dup1\n      sload\n      swap1\n      swap5\n      and\n      dup2\n      mstore\n      0x01\n      dup5\n      add\n      dup1\n      sload\n        /* \"OnDemo/contracts/AccountManagement.sol\":8404:8417  User memory u */\n      swap4\n      swap5\n        /* \"OnDemo/contracts/AccountManagement.sol\":8404:8435  User memory u = users[_address] */\n      swap2\n      swap4\n        /* \"OnDemo/contracts/AccountManagement.sol\":8420:8435  users[_address] */\n      swap2\n      swap3\n        /* \"OnDemo/contracts/AccountManagement.sol\":8404:8435  User memory u = users[_address] */\n      dup5\n      add\n      swap2\n      tag_179\n      swap1\n      tag_83\n      jump\t// in\n    tag_179:\n      dup1\n      0x1f\n      add\n      0x20\n      dup1\n      swap2\n      div\n      mul\n      0x20\n      add\n      mload(0x40)\n      swap1\n      dup2\n      add\n      0x40\n      mstore\n      dup1\n      swap3\n      swap2\n      swap1\n      dup2\n      dup2\n      mstore\n      0x20\n      add\n      dup3\n      dup1\n      sload\n      tag_180\n      swap1\n      tag_83\n      jump\t// in\n    tag_180:\n      dup1\n      iszero\n      tag_181\n      jumpi\n      dup1\n      0x1f\n      lt\n      tag_182\n      jumpi\n      0x0100\n      dup1\n      dup4\n      sload\n      div\n      mul\n      dup4\n      mstore\n      swap2\n      0x20\n      add\n      swap2\n      jump(tag_181)\n    tag_182:\n      dup3\n      add\n      swap2\n      swap1\n      0x00\n      mstore\n      keccak256(0x00, 0x20)\n      swap1\n    tag_183:\n      dup2\n      sload\n      dup2\n      mstore\n      swap1\n      0x01\n      add\n      swap1\n      0x20\n      add\n      dup1\n      dup4\n      gt\n      tag_183\n      jumpi\n      dup3\n      swap1\n      sub\n      0x1f\n      and\n      dup3\n      add\n      swap2\n    tag_181:\n      pop\n      pop\n      pop\n      pop\n      pop\n      dup2\n      mstore\n      0x20\n      add\n      0x02\n      dup3\n      add\n      dup1\n      sload\n      tag_184\n      swap1\n      tag_83\n      jump\t// in\n    tag_184:\n      dup1\n      0x1f\n      add\n      0x20\n      dup1\n      swap2\n      div\n      mul\n      0x20\n      add\n      mload(0x40)\n      swap1\n      dup2\n      add\n      0x40\n      mstore\n      dup1\n      swap3\n      swap2\n      swap1\n      dup2\n      dup2\n      mstore\n      0x20\n      add\n      dup3\n      dup1\n      sload\n      tag_185\n      swap1\n      tag_83\n      jump\t// in\n    tag_185:\n      dup1\n      iszero\n      tag_186\n      jumpi\n      dup1\n      0x1f\n      lt\n      tag_187\n      jumpi\n      0x0100\n      dup1\n      dup4\n      sload\n      div\n      mul\n      dup4\n      mstore\n      swap2\n      0x20\n      add\n      swap2\n      jump(tag_186)\n    tag_187:\n      dup3\n      add\n      swap2\n      swap1\n      0x00\n      mstore\n      keccak256(0x00, 0x20)\n      swap1\n    tag_188:\n      dup2\n      sload\n      dup2\n      mstore\n      swap1\n      0x01\n      add\n      swap1\n      0x20\n      add\n      dup1\n      dup4\n      gt\n      tag_188\n      jumpi\n      dup3\n      swap1\n      sub\n      0x1f\n      and\n      dup3\n      add\n      swap2\n    tag_186:\n      pop\n      pop\n      pop\n      pop\n      pop\n      dup2\n      mstore\n      0x20\n      add\n      0x03\n      dup3\n      add\n      dup1\n      sload\n      tag_189\n      swap1\n      tag_83\n      jump\t// in\n    tag_189:\n      dup1\n      0x1f\n      add\n      0x20\n      dup1\n      swap2\n      div\n      mul\n      0x20\n      add\n      mload(0x40)\n      swap1\n      dup2\n      add\n      0x40\n      mstore\n      dup1\n      swap3\n      swap2\n      swap1\n      dup2\n      dup2\n      mstore\n      0x20\n      add\n      dup3\n      dup1\n      sload\n      tag_190\n      swap1\n      tag_83\n      jump\t// in\n    tag_190:\n      dup1\n      iszero\n      tag_191\n      jumpi\n      dup1\n      0x1f\n      lt\n      tag_192\n      jumpi\n      0x0100\n      dup1\n      dup4\n      sload\n      div\n      mul\n      dup4\n      mstore\n      swap2\n      0x20\n      add\n      swap2\n      jump(tag_191)\n    tag_192:\n      dup3\n      add\n      swap2\n      swap1\n      0x00\n      mstore\n      keccak256(0x00, 0x20)\n      swap1\n    tag_193:\n      dup2\n      sload\n      dup2\n      mstore\n      swap1\n      0x01\n      add\n      swap1\n      0x20\n      add\n      dup1\n      dup4\n      gt\n      tag_193\n      jumpi\n      dup3\n      swap1\n      sub\n      0x1f\n      and\n      dup3\n      add\n      swap2\n    tag_191:\n      pop\n      pop\n      pop\n      swap2\n      dup4\n      mstore\n      pop\n      pop\n      0x04\n      dup3\n      add\n      sload\n      0xff\n      swap1\n      dup2\n      and\n      iszero\n      iszero\n      0x20\n      dup1\n      dup5\n      add\n      swap2\n      swap1\n      swap2\n      mstore\n      0x40\n      dup1\n      mload\n      0x80\n      dup2\n      add\n      dup3\n      mstore\n      0x05\n      swap1\n      swap6\n      add\n      sload\n      dup1\n      dup5\n      and\n      iszero\n      iszero\n      dup7\n      mstore\n      0x0100\n      dup2\n      div\n      dup5\n      and\n      iszero\n      iszero\n      swap3\n      dup7\n      add\n      swap3\n      swap1\n      swap3\n      mstore\n      0x010000\n      dup3\n      div\n      dup4\n      and\n      iszero\n      iszero\n      dup6\n      dup3\n      add\n      mstore\n      0x01000000\n      swap1\n      swap2\n      div\n      swap1\n      swap2\n      and\n      iszero\n      iszero\n      0x60\n      dup5\n      add\n      mstore\n      add\n      mstore\n        /* \"OnDemo/contracts/AccountManagement.sol\":8449:8462  u.userAddress */\n      dup1\n      mload\n        /* \"OnDemo/contracts/AccountManagement.sol\":8404:8435  User memory u = users[_address] */\n      swap1\n      swap2\n      pop\n      sub(shl(0xa0, 0x01), 0x01)\n        /* \"OnDemo/contracts/AccountManagement.sol\":8449:8476  u.userAddress != address(0) */\n      and\n      iszero\n        /* \"OnDemo/contracts/AccountManagement.sol\":8446:8522  if(u.userAddress != address(0))... */\n      tag_194\n      jumpi\n        /* \"OnDemo/contracts/AccountManagement.sol\":8509:8510  u */\n      swap3\n        /* \"OnDemo/contracts/AccountManagement.sol\":8324:8565  function getUser(address _address) external view returns(User memory){... */\n      swap2\n      pop\n      pop\n      jump\t// out\n        /* \"OnDemo/contracts/AccountManagement.sol\":8446:8522  if(u.userAddress != address(0))... */\n    tag_194:\n        /* \"OnDemo/contracts/AccountManagement.sol\":8532:8557  revert(\"User not found!\") */\n      mload(0x40)\n      shl(0xe5, 0x461bcd)\n      dup2\n      mstore\n        /* \"#utility.yul\":7087:7089   */\n      0x20\n        /* \"OnDemo/contracts/AccountManagement.sol\":8532:8557  revert(\"User not found!\") */\n      0x04\n      dup3\n      add\n        /* \"#utility.yul\":7069:7090   */\n      mstore\n        /* \"#utility.yul\":7126:7128   */\n      0x0f\n        /* \"#utility.yul\":7106:7124   */\n      0x24\n      dup3\n      add\n        /* \"#utility.yul\":7099:7129   */\n      mstore\n      shl(0x88, 0x55736572206e6f7420666f756e6421)\n        /* \"#utility.yul\":7145:7163   */\n      0x44\n      dup3\n      add\n        /* \"#utility.yul\":7138:7183   */\n      mstore\n        /* \"#utility.yul\":7200:7218   */\n      0x64\n      add\n        /* \"OnDemo/contracts/AccountManagement.sol\":8532:8557  revert(\"User not found!\") */\n      tag_100\n        /* \"#utility.yul\":6885:7224   */\n      jump\n        /* \"OnDemo/contracts/AccountManagement.sol\":2953:3551  function activateAccount(address _address) public onlyIfUserExists(_address){... */\n    tag_55:\n      sub(shl(0xa0, 0x01), 0x01)\n        /* \"OnDemo/contracts/AccountManagement.sol\":2183:2198  users[_address] */\n      dup1\n      dup3\n      and\n        /* \"OnDemo/contracts/AccountManagement.sol\":2222:2223  0 */\n      0x00\n        /* \"OnDemo/contracts/AccountManagement.sol\":2183:2198  users[_address] */\n      swap1\n      dup2\n      mstore\n        /* \"OnDemo/contracts/AccountManagement.sol\":2183:2188  users */\n      0x02\n        /* \"OnDemo/contracts/AccountManagement.sol\":2183:2198  users[_address] */\n      0x20\n      mstore\n      0x40\n      swap1\n      keccak256\n        /* \"OnDemo/contracts/AccountManagement.sol\":2183:2210  users[_address].userAddress */\n      sload\n        /* \"OnDemo/contracts/AccountManagement.sol\":3020:3028  _address */\n      dup3\n      swap2\n        /* \"OnDemo/contracts/AccountManagement.sol\":2183:2210  users[_address].userAddress */\n      and\n        /* \"OnDemo/contracts/AccountManagement.sol\":2175:2250  require(users[_address].userAddress != address(0), \"Account doesn't exist\") */\n      tag_198\n      jumpi\n      mload(0x40)\n      shl(0xe5, 0x461bcd)\n      dup2\n      mstore\n      0x04\n      add\n      tag_100\n      swap1\n      tag_101\n      jump\t// in\n    tag_198:\n      sub(shl(0xa0, 0x01), 0x01)\n        /* \"OnDemo/contracts/AccountManagement.sol\":3126:3149  activeMembers[_address] */\n      dup3\n      and\n      0x00\n      swap1\n      dup2\n      mstore\n        /* \"OnDemo/contracts/AccountManagement.sol\":3126:3139  activeMembers */\n      0x03\n        /* \"OnDemo/contracts/AccountManagement.sol\":3126:3149  activeMembers[_address] */\n      0x20\n      mstore\n      0x40\n      swap1\n      keccak256\n      sload\n      0xff\n      and\n        /* \"OnDemo/contracts/AccountManagement.sol\":3122:3544  if(!activeMembers[_address]){... */\n      tag_103\n      jumpi\n      sub(shl(0xa0, 0x01), 0x01)\n        /* \"OnDemo/contracts/AccountManagement.sol\":3185:3200  users[_address] */\n      dup3\n      and\n        /* \"OnDemo/contracts/AccountManagement.sol\":3165:3182  User storage user */\n      0x00\n        /* \"OnDemo/contracts/AccountManagement.sol\":3185:3200  users[_address] */\n      swap1\n      dup2\n      mstore\n        /* \"OnDemo/contracts/AccountManagement.sol\":3185:3190  users */\n      0x02\n        /* \"OnDemo/contracts/AccountManagement.sol\":3185:3200  users[_address] */\n      0x20\n      swap1\n      dup2\n      mstore\n      0x40\n      swap2\n      dup3\n      swap1\n      keccak256\n        /* \"OnDemo/contracts/AccountManagement.sol\":3215:3228  user.isActive */\n      0x04\n      dup2\n      add\n        /* \"OnDemo/contracts/AccountManagement.sol\":3215:3235  user.isActive = true */\n      dup1\n      sload\n      not(0xff)\n      and\n        /* \"OnDemo/contracts/AccountManagement.sol\":3231:3235  true */\n      0x01\n        /* \"OnDemo/contracts/AccountManagement.sol\":3215:3235  user.isActive = true */\n      or\n      swap1\n      sstore\n        /* \"OnDemo/contracts/AccountManagement.sol\":3297:3334  RoleMap memory roleMap = user.roleMap */\n      dup3\n      mload\n      0x80\n      dup2\n      add\n      dup5\n      mstore\n        /* \"OnDemo/contracts/AccountManagement.sol\":3322:3334  user.roleMap */\n      0x05\n      dup3\n      add\n        /* \"OnDemo/contracts/AccountManagement.sol\":3297:3334  RoleMap memory roleMap = user.roleMap */\n      sload\n        /* \"OnDemo/contracts/AccountManagement.sol\":3215:3235  user.isActive = true */\n      0xff\n        /* \"OnDemo/contracts/AccountManagement.sol\":3297:3334  RoleMap memory roleMap = user.roleMap */\n      dup2\n      dup2\n      and\n      iszero\n      iszero\n      dup1\n      dup5\n      mstore\n        /* \"OnDemo/contracts/AccountManagement.sol\":3215:3235  user.isActive = true */\n      0x0100\n        /* \"OnDemo/contracts/AccountManagement.sol\":3297:3334  RoleMap memory roleMap = user.roleMap */\n      dup4\n      div\n      dup3\n      and\n      iszero\n      iszero\n      swap6\n      dup5\n      add\n      swap6\n      swap1\n      swap6\n      mstore\n      0x010000\n      dup3\n      div\n      dup2\n      and\n      iszero\n      iszero\n      swap6\n      dup4\n      add\n      swap6\n      swap1\n      swap6\n      mstore\n      0x01000000\n      swap1\n      div\n      swap1\n      swap4\n      and\n      iszero\n      iszero\n      0x60\n      dup5\n      add\n      mstore\n        /* \"OnDemo/contracts/AccountManagement.sol\":3185:3200  users[_address] */\n      swap2\n        /* \"OnDemo/contracts/AccountManagement.sol\":3297:3334  RoleMap memory roleMap = user.roleMap */\n      swap1\n      dup1\n        /* \"OnDemo/contracts/AccountManagement.sol\":3352:3395  roleMap.isLeader || roleMap.isCouncilMember */\n      tag_202\n      jumpi\n      pop\n        /* \"OnDemo/contracts/AccountManagement.sol\":3372:3379  roleMap */\n      dup1\n        /* \"OnDemo/contracts/AccountManagement.sol\":3372:3395  roleMap.isCouncilMember */\n      0x20\n      add\n      mload\n        /* \"OnDemo/contracts/AccountManagement.sol\":3352:3395  roleMap.isLeader || roleMap.isCouncilMember */\n    tag_202:\n        /* \"OnDemo/contracts/AccountManagement.sol\":3352:3415  roleMap.isLeader || roleMap.isCouncilMember || roleMap.isMember */\n      dup1\n      tag_203\n      jumpi\n      pop\n        /* \"OnDemo/contracts/AccountManagement.sol\":3399:3406  roleMap */\n      dup1\n        /* \"OnDemo/contracts/AccountManagement.sol\":3399:3415  roleMap.isMember */\n      0x40\n      add\n      mload\n        /* \"OnDemo/contracts/AccountManagement.sol\":3352:3415  roleMap.isLeader || roleMap.isCouncilMember || roleMap.isMember */\n    tag_203:\n        /* \"OnDemo/contracts/AccountManagement.sol\":3349:3533  if(roleMap.isLeader || roleMap.isCouncilMember || roleMap.isMember)... */\n      iszero\n      tag_204\n      jumpi\n      sub(shl(0xa0, 0x01), 0x01)\n        /* \"OnDemo/contracts/AccountManagement.sol\":3449:3472  activeMembers[_address] */\n      dup5\n      and\n      0x00\n      swap1\n      dup2\n      mstore\n        /* \"OnDemo/contracts/AccountManagement.sol\":3449:3462  activeMembers */\n      0x03\n        /* \"OnDemo/contracts/AccountManagement.sol\":3449:3472  activeMembers[_address] */\n      0x20\n      mstore\n      0x40\n      dup2\n      keccak256\n        /* \"OnDemo/contracts/AccountManagement.sol\":3449:3479  activeMembers[_address] = true */\n      dup1\n      sload\n      not(0xff)\n      and\n        /* \"OnDemo/contracts/AccountManagement.sol\":3475:3479  true */\n      0x01\n        /* \"OnDemo/contracts/AccountManagement.sol\":3449:3479  activeMembers[_address] = true */\n      or\n      swap1\n      sstore\n        /* \"OnDemo/contracts/AccountManagement.sol\":3498:3517  activeMemberCount++ */\n      dup1\n      sload\n      swap1\n        /* \"OnDemo/contracts/AccountManagement.sol\":3449:3472  activeMembers[_address] */\n      dup1\n        /* \"OnDemo/contracts/AccountManagement.sol\":3498:3517  activeMemberCount++ */\n      tag_205\n      dup4\n      tag_136\n      jump\t// in\n    tag_205:\n      swap2\n      swap1\n      pop\n      sstore\n      pop\n        /* \"OnDemo/contracts/AccountManagement.sol\":3349:3533  if(roleMap.isLeader || roleMap.isCouncilMember || roleMap.isMember)... */\n    tag_204:\n        /* \"OnDemo/contracts/AccountManagement.sol\":3150:3544  {... */\n      pop\n      pop\n        /* \"OnDemo/contracts/AccountManagement.sol\":2953:3551  function activateAccount(address _address) public onlyIfUserExists(_address){... */\n      pop\n      pop\n      jump\t// out\n        /* \"OnDemo/contracts/AccountManagement.sol\":5017:5639  function removeRole(address _address, Role _role) public onlyLeader onlyIfUserExists(_address){... */\n    tag_62:\n        /* \"OnDemo/contracts/AccountManagement.sol\":2015:2020  owner */\n      and(sub(shl(0xa0, 0x01), 0x01), sload(0x01))\n        /* \"OnDemo/contracts/AccountManagement.sol\":2001:2011  msg.sender */\n      caller\n        /* \"OnDemo/contracts/AccountManagement.sol\":2001:2020  msg.sender == owner */\n      eq\n      dup1\n        /* \"OnDemo/contracts/AccountManagement.sol\":2001:2054  msg.sender == owner || this.hasLeaderRole(msg.sender) */\n      tag_211\n      jumpi\n      pop\n        /* \"OnDemo/contracts/AccountManagement.sol\":2024:2054  this.hasLeaderRole(msg.sender) */\n      mload(0x40)\n      shl(0xe0, 0x297027d5)\n      dup2\n      mstore\n        /* \"OnDemo/contracts/AccountManagement.sol\":2043:2053  msg.sender */\n      caller\n        /* \"OnDemo/contracts/AccountManagement.sol\":2024:2054  this.hasLeaderRole(msg.sender) */\n      0x04\n      dup3\n      add\n        /* \"#utility.yul\":3047:3098   */\n      mstore\n        /* \"OnDemo/contracts/AccountManagement.sol\":2024:2028  this */\n      address\n      swap1\n        /* \"OnDemo/contracts/AccountManagement.sol\":2024:2042  this.hasLeaderRole */\n      0x297027d5\n      swap1\n        /* \"#utility.yul\":3020:3038   */\n      0x24\n      add\n        /* \"OnDemo/contracts/AccountManagement.sol\":2024:2054  this.hasLeaderRole(msg.sender) */\n      0x20\n      mload(0x40)\n      dup1\n      dup4\n      sub\n      dup2\n      dup7\n      gas\n      staticcall\n      iszero\n      dup1\n      iszero\n      tag_210\n      jumpi\n      returndatasize\n      0x00\n      dup1\n      returndatacopy\n      revert(0x00, returndatasize)\n    tag_210:\n      pop\n      pop\n      pop\n      pop\n      mload(0x40)\n      returndatasize\n      not(0x1f)\n      0x1f\n      dup3\n      add\n      and\n      dup3\n      add\n      dup1\n      0x40\n      mstore\n      pop\n      dup2\n      add\n      swap1\n      tag_211\n      swap2\n      swap1\n      tag_118\n      jump\t// in\n    tag_211:\n        /* \"OnDemo/contracts/AccountManagement.sol\":1993:2093  require(msg.sender == owner || this.hasLeaderRole(msg.sender), \"Only owner can call this function.\") */\n      tag_212\n      jumpi\n      mload(0x40)\n      shl(0xe5, 0x461bcd)\n      dup2\n      mstore\n      0x04\n      add\n      tag_100\n      swap1\n      tag_147\n      jump\t// in\n    tag_212:\n      sub(shl(0xa0, 0x01), 0x01)\n        /* \"OnDemo/contracts/AccountManagement.sol\":2183:2198  users[_address] */\n      dup1\n      dup4\n      and\n        /* \"OnDemo/contracts/AccountManagement.sol\":2222:2223  0 */\n      0x00\n        /* \"OnDemo/contracts/AccountManagement.sol\":2183:2198  users[_address] */\n      swap1\n      dup2\n      mstore\n        /* \"OnDemo/contracts/AccountManagement.sol\":2183:2188  users */\n      0x02\n        /* \"OnDemo/contracts/AccountManagement.sol\":2183:2198  users[_address] */\n      0x20\n      mstore\n      0x40\n      swap1\n      keccak256\n        /* \"OnDemo/contracts/AccountManagement.sol\":2183:2210  users[_address].userAddress */\n      sload\n        /* \"OnDemo/contracts/AccountManagement.sol\":5102:5110  _address */\n      dup4\n      swap2\n        /* \"OnDemo/contracts/AccountManagement.sol\":2183:2210  users[_address].userAddress */\n      and\n        /* \"OnDemo/contracts/AccountManagement.sol\":2175:2250  require(users[_address].userAddress != address(0), \"Account doesn't exist\") */\n      tag_215\n      jumpi\n      mload(0x40)\n      shl(0xe5, 0x461bcd)\n      dup2\n      mstore\n      0x04\n      add\n      tag_100\n      swap1\n      tag_101\n      jump\t// in\n    tag_215:\n      sub(shl(0xa0, 0x01), 0x01)\n        /* \"OnDemo/contracts/AccountManagement.sol\":5181:5196  users[_address] */\n      dup4\n      and\n        /* \"OnDemo/contracts/AccountManagement.sol\":5161:5178  User storage user */\n      0x00\n        /* \"OnDemo/contracts/AccountManagement.sol\":5181:5196  users[_address] */\n      swap1\n      dup2\n      mstore\n        /* \"OnDemo/contracts/AccountManagement.sol\":5181:5186  users */\n      0x02\n        /* \"OnDemo/contracts/AccountManagement.sol\":5181:5196  users[_address] */\n      0x20\n      mstore\n      0x40\n      dup2\n      keccak256\n      swap1\n        /* \"OnDemo/contracts/AccountManagement.sol\":5233:5245  user.roleMap */\n      0x05\n      dup3\n      add\n      swap1\n        /* \"OnDemo/contracts/AccountManagement.sol\":5261:5266  _role */\n      dup5\n        /* \"OnDemo/contracts/AccountManagement.sol\":5261:5281  _role == Role.LEADER */\n      0x03\n      dup2\n      gt\n      iszero\n      tag_221\n      jumpi\n      tag_221\n      tag_154\n      jump\t// in\n    tag_221:\n      eq\n        /* \"OnDemo/contracts/AccountManagement.sol\":5258:5632  if(_role == Role.LEADER){... */\n      iszero\n      tag_222\n      jumpi\n        /* \"OnDemo/contracts/AccountManagement.sol\":5297:5321  roleMap.isLeader = false */\n      dup1\n      sload\n      not(0xff)\n      and\n      dup2\n      sstore\n        /* \"OnDemo/contracts/AccountManagement.sol\":5258:5632  if(_role == Role.LEADER){... */\n      jump(tag_109)\n    tag_222:\n        /* \"OnDemo/contracts/AccountManagement.sol\":5360:5378  Role.COUNCILMEMBER */\n      0x01\n        /* \"OnDemo/contracts/AccountManagement.sol\":5351:5356  _role */\n      dup5\n        /* \"OnDemo/contracts/AccountManagement.sol\":5351:5378  _role == Role.COUNCILMEMBER */\n      0x03\n      dup2\n      gt\n      iszero\n      tag_227\n      jumpi\n      tag_227\n      tag_154\n      jump\t// in\n    tag_227:\n      eq\n        /* \"OnDemo/contracts/AccountManagement.sol\":5348:5632  if(_role == Role.COUNCILMEMBER){... */\n      iszero\n      tag_228\n      jumpi\n        /* \"OnDemo/contracts/AccountManagement.sol\":5394:5425  roleMap.isCouncilMember = false */\n      dup1\n      sload\n      not(0xff00)\n      and\n      dup2\n      sstore\n        /* \"OnDemo/contracts/AccountManagement.sol\":5348:5632  if(_role == Role.COUNCILMEMBER){... */\n      jump(tag_109)\n    tag_228:\n        /* \"OnDemo/contracts/AccountManagement.sol\":5469:5480  Role.MEMBER */\n      0x02\n        /* \"OnDemo/contracts/AccountManagement.sol\":5460:5465  _role */\n      dup5\n        /* \"OnDemo/contracts/AccountManagement.sol\":5460:5480  _role == Role.MEMBER */\n      0x03\n      dup2\n      gt\n      iszero\n      tag_233\n      jumpi\n      tag_233\n      tag_154\n      jump\t// in\n    tag_233:\n      eq\n        /* \"OnDemo/contracts/AccountManagement.sol\":5457:5632  if(_role == Role.MEMBER){... */\n      iszero\n      tag_234\n      jumpi\n        /* \"OnDemo/contracts/AccountManagement.sol\":5496:5520  roleMap.isMember = false */\n      dup1\n      sload\n      not(0xff0000)\n      and\n      dup2\n      sstore\n        /* \"OnDemo/contracts/AccountManagement.sol\":5457:5632  if(_role == Role.MEMBER){... */\n      jump(tag_109)\n    tag_234:\n        /* \"OnDemo/contracts/AccountManagement.sol\":5559:5569  Role.GUEST */\n      0x03\n        /* \"OnDemo/contracts/AccountManagement.sol\":5550:5555  _role */\n      dup5\n        /* \"OnDemo/contracts/AccountManagement.sol\":5550:5569  _role == Role.GUEST */\n      0x03\n      dup2\n      gt\n      iszero\n      tag_239\n      jumpi\n      tag_239\n      tag_154\n      jump\t// in\n    tag_239:\n      eq\n        /* \"OnDemo/contracts/AccountManagement.sol\":5547:5632  if(_role == Role.GUEST){... */\n      iszero\n      tag_109\n      jumpi\n        /* \"OnDemo/contracts/AccountManagement.sol\":5585:5608  roleMap.isGuest = false */\n      dup1\n      sload\n      not(0xff000000)\n      and\n      swap1\n      sstore\n      pop\n      pop\n      pop\n      pop\n        /* \"OnDemo/contracts/AccountManagement.sol\":5017:5639  function removeRole(address _address, Role _role) public onlyLeader onlyIfUserExists(_address){... */\n      jump\t// out\n        /* \"OnDemo/contracts/AccountManagement.sol\":4044:4261  function burnAccount(address _address) public onlyIfUserExists(_address){  ... */\n    tag_65:\n      sub(shl(0xa0, 0x01), 0x01)\n        /* \"OnDemo/contracts/AccountManagement.sol\":2183:2198  users[_address] */\n      dup1\n      dup3\n      and\n        /* \"OnDemo/contracts/AccountManagement.sol\":2222:2223  0 */\n      0x00\n        /* \"OnDemo/contracts/AccountManagement.sol\":2183:2198  users[_address] */\n      swap1\n      dup2\n      mstore\n        /* \"OnDemo/contracts/AccountManagement.sol\":2183:2188  users */\n      0x02\n        /* \"OnDemo/contracts/AccountManagement.sol\":2183:2198  users[_address] */\n      0x20\n      mstore\n      0x40\n      swap1\n      keccak256\n        /* \"OnDemo/contracts/AccountManagement.sol\":2183:2210  users[_address].userAddress */\n      sload\n        /* \"OnDemo/contracts/AccountManagement.sol\":4107:4115  _address */\n      dup3\n      swap2\n        /* \"OnDemo/contracts/AccountManagement.sol\":2183:2210  users[_address].userAddress */\n      and\n        /* \"OnDemo/contracts/AccountManagement.sol\":2175:2250  require(users[_address].userAddress != address(0), \"Account doesn't exist\") */\n      tag_242\n      jumpi\n      mload(0x40)\n      shl(0xe5, 0x461bcd)\n      dup2\n      mstore\n      0x04\n      add\n      tag_100\n      swap1\n      tag_101\n      jump\t// in\n    tag_242:\n        /* \"OnDemo/contracts/AccountManagement.sol\":4177:4204  deactivateAccount(_address) */\n      tag_245\n        /* \"OnDemo/contracts/AccountManagement.sol\":4195:4203  _address */\n      dup3\n        /* \"OnDemo/contracts/AccountManagement.sol\":4177:4194  deactivateAccount */\n      tag_33\n        /* \"OnDemo/contracts/AccountManagement.sol\":4177:4204  deactivateAccount(_address) */\n      jump\t// in\n    tag_245:\n      sub(shl(0xa0, 0x01), 0x01)\n        /* \"OnDemo/contracts/AccountManagement.sol\":4229:4244  users[_address] */\n      dup3\n      and\n      0x00\n      swap1\n      dup2\n      mstore\n        /* \"OnDemo/contracts/AccountManagement.sol\":4229:4234  users */\n      0x02\n        /* \"OnDemo/contracts/AccountManagement.sol\":4229:4244  users[_address] */\n      0x20\n      mstore\n      0x40\n      dup2\n      keccak256\n        /* \"OnDemo/contracts/AccountManagement.sol\":4222:4244  delete users[_address] */\n      dup1\n      sload\n      not(sub(shl(0xa0, 0x01), 0x01))\n      and\n      dup2\n      sstore\n        /* \"OnDemo/contracts/AccountManagement.sol\":4229:4244  users[_address] */\n      swap1\n        /* \"OnDemo/contracts/AccountManagement.sol\":4222:4244  delete users[_address] */\n      tag_246\n      0x01\n      dup4\n      add\n        /* \"OnDemo/contracts/AccountManagement.sol\":4229:4244  users[_address] */\n      dup3\n        /* \"OnDemo/contracts/AccountManagement.sol\":4222:4244  delete users[_address] */\n      tag_247\n      jump\t// in\n    tag_246:\n      tag_248\n      0x02\n      dup4\n      add\n      0x00\n      tag_247\n      jump\t// in\n    tag_248:\n      tag_249\n      0x03\n      dup4\n      add\n      0x00\n      tag_247\n      jump\t// in\n    tag_249:\n      pop\n      0x04\n      dup2\n      add\n      dup1\n      sload\n      not(0xff)\n      and\n      swap1\n      sstore\n      0x05\n      add\n      dup1\n      sload\n      not(0xffffffff)\n      and\n      swap1\n      sstore\n      pop\n      pop\n        /* \"OnDemo/contracts/AccountManagement.sol\":4044:4261  function burnAccount(address _address) public onlyIfUserExists(_address){  ... */\n      jump\t// out\n        /* \"OnDemo/contracts/AccountManagement.sol\":2578:2945  function createAccount(address _address, string memory _firstName, string memory _lastName, string memory _mailAdress) public onlyIfUserNotExists(_address){... */\n    tag_69:\n      sub(shl(0xa0, 0x01), 0x01)\n        /* \"OnDemo/contracts/AccountManagement.sol\":2343:2358  users[_address] */\n      dup1\n      dup6\n      and\n        /* \"OnDemo/contracts/AccountManagement.sol\":2382:2383  0 */\n      0x00\n        /* \"OnDemo/contracts/AccountManagement.sol\":2343:2358  users[_address] */\n      swap1\n      dup2\n      mstore\n        /* \"OnDemo/contracts/AccountManagement.sol\":2343:2348  users */\n      0x02\n        /* \"OnDemo/contracts/AccountManagement.sol\":2343:2358  users[_address] */\n      0x20\n      mstore\n      0x40\n      swap1\n      keccak256\n        /* \"OnDemo/contracts/AccountManagement.sol\":2343:2370  users[_address].userAddress */\n      sload\n        /* \"OnDemo/contracts/AccountManagement.sol\":2724:2732  _address */\n      dup6\n      swap2\n        /* \"OnDemo/contracts/AccountManagement.sol\":2343:2370  users[_address].userAddress */\n      and\n        /* \"OnDemo/contracts/AccountManagement.sol\":2343:2384  users[_address].userAddress == address(0) */\n      iszero\n        /* \"OnDemo/contracts/AccountManagement.sol\":2335:2411  require(users[_address].userAddress == address(0), \"Account already exists\") */\n      tag_251\n      jumpi\n      mload(0x40)\n      shl(0xe5, 0x461bcd)\n      dup2\n      mstore\n        /* \"#utility.yul\":7431:7433   */\n      0x20\n        /* \"OnDemo/contracts/AccountManagement.sol\":2335:2411  require(users[_address].userAddress == address(0), \"Account already exists\") */\n      0x04\n      dup3\n      add\n        /* \"#utility.yul\":7413:7434   */\n      mstore\n        /* \"#utility.yul\":7470:7472   */\n      0x16\n        /* \"#utility.yul\":7450:7468   */\n      0x24\n      dup3\n      add\n        /* \"#utility.yul\":7443:7473   */\n      mstore\n      shl(0x50, 0x4163636f756e7420616c726561647920657869737473)\n        /* \"#utility.yul\":7489:7507   */\n      0x44\n      dup3\n      add\n        /* \"#utility.yul\":7482:7534   */\n      mstore\n        /* \"#utility.yul\":7551:7569   */\n      0x64\n      add\n        /* \"OnDemo/contracts/AccountManagement.sol\":2335:2411  require(users[_address].userAddress == address(0), \"Account already exists\") */\n      tag_100\n        /* \"#utility.yul\":7229:7575   */\n      jump\n        /* \"OnDemo/contracts/AccountManagement.sol\":2335:2411  require(users[_address].userAddress == address(0), \"Account already exists\") */\n    tag_251:\n        /* \"OnDemo/contracts/AccountManagement.sol\":2769:2803  RoleMap(false, false, false, true) */\n      0x40\n      dup1\n      mload\n      0x80\n      dup1\n      dup3\n      add\n      dup4\n      mstore\n      0x00\n      dup1\n      dup4\n      mstore\n      0x20\n      dup1\n      dup5\n      add\n      dup3\n      swap1\n      mstore\n      dup4\n      dup6\n      add\n      dup3\n      swap1\n      mstore\n      0x01\n      0x60\n      dup1\n      dup7\n      add\n      dup3\n      swap1\n      mstore\n        /* \"OnDemo/contracts/AccountManagement.sol\":2833:2899  User(_address, _firstName, _lastName, _mailAdress, false, roleMap) */\n      dup7\n      mload\n      0xc0\n      dup2\n      add\n      dup9\n      mstore\n      sub(shl(0xa0, 0x01), 0x01)\n      dup14\n      dup2\n      and\n      dup1\n      dup4\n      mstore\n      dup3\n      dup7\n      add\n      dup15\n      dup2\n      mstore\n      dup4\n      dup12\n      add\n      dup15\n      swap1\n      mstore\n      swap4\n      dup4\n      add\n      dup13\n      swap1\n      mstore\n      swap7\n      dup3\n      add\n      dup7\n      swap1\n      mstore\n      0xa0\n      dup3\n      add\n      dup9\n      swap1\n      mstore\n        /* \"OnDemo/contracts/AccountManagement.sol\":2910:2925  users[_address] */\n      swap6\n      dup6\n      mstore\n        /* \"OnDemo/contracts/AccountManagement.sol\":2910:2915  users */\n      0x02\n        /* \"OnDemo/contracts/AccountManagement.sol\":2910:2925  users[_address] */\n      dup5\n      mstore\n      swap7\n      swap1\n      swap4\n      keccak256\n        /* \"OnDemo/contracts/AccountManagement.sol\":2910:2932  users[_address] = user */\n      dup7\n      mload\n      dup2\n      sload\n      not(sub(shl(0xa0, 0x01), 0x01))\n      and\n      swap6\n      and\n      swap5\n      swap1\n      swap5\n      or\n      dup5\n      sstore\n      swap2\n      mload\n      dup1\n      mload\n        /* \"OnDemo/contracts/AccountManagement.sol\":2769:2803  RoleMap(false, false, false, true) */\n      swap5\n      swap6\n        /* \"OnDemo/contracts/AccountManagement.sol\":2833:2899  User(_address, _firstName, _lastName, _mailAdress, false, roleMap) */\n      swap5\n      dup6\n      swap5\n        /* \"OnDemo/contracts/AccountManagement.sol\":2910:2925  users[_address] */\n      swap4\n        /* \"OnDemo/contracts/AccountManagement.sol\":2910:2932  users[_address] = user */\n      tag_255\n      swap4\n      swap1\n      dup6\n      add\n      swap3\n      add\n      swap1\n      tag_256\n      jump\t// in\n    tag_255:\n      pop\n      0x40\n      dup3\n      add\n      mload\n      dup1\n      mload\n      tag_257\n      swap2\n      0x02\n      dup5\n      add\n      swap2\n      0x20\n      swap1\n      swap2\n      add\n      swap1\n      tag_256\n      jump\t// in\n    tag_257:\n      pop\n      0x60\n      dup3\n      add\n      mload\n      dup1\n      mload\n      tag_258\n      swap2\n      0x03\n      dup5\n      add\n      swap2\n      0x20\n      swap1\n      swap2\n      add\n      swap1\n      tag_256\n      jump\t// in\n    tag_258:\n      pop\n      0x80\n      dup3\n      add\n      mload\n      0x04\n      dup3\n      add\n      dup1\n      sload\n      swap2\n      iszero\n      iszero\n      not(0xff)\n      swap1\n      swap3\n      and\n      swap2\n      swap1\n      swap2\n      or\n      swap1\n      sstore\n      0xa0\n      swap1\n      swap2\n      add\n      mload\n      dup1\n      mload\n      0x05\n      swap1\n      swap3\n      add\n      dup1\n      sload\n      0x20\n      dup4\n      add\n      mload\n      0x40\n      dup5\n      add\n      mload\n      0x60\n      swap1\n      swap5\n      add\n      mload\n      iszero\n      iszero\n      0x01000000\n      mul\n      not(0xff000000)\n      swap5\n      iszero\n      iszero\n      0x010000\n      mul\n      swap5\n      swap1\n      swap5\n      and\n      not(0xffff0000)\n      swap2\n      iszero\n      iszero\n      0x0100\n      mul\n      not(0xff00)\n      swap7\n      iszero\n      iszero\n      swap7\n      swap1\n      swap7\n      and\n      not(0xffff)\n      swap1\n      swap4\n      and\n      swap3\n      swap1\n      swap3\n      or\n      swap5\n      swap1\n      swap5\n      or\n      swap4\n      swap1\n      swap4\n      and\n      swap3\n      swap1\n      swap3\n      or\n      or\n      swap1\n      sstore\n      pop\n      pop\n      pop\n      pop\n      pop\n      pop\n      pop\n        /* \"OnDemo/contracts/AccountManagement.sol\":2578:2945  function createAccount(address _address, string memory _firstName, string memory _lastName, string memory _mailAdress) public onlyIfUserNotExists(_address){... */\n      jump\t// out\n        /* \"OnDemo/contracts/AccountManagement.sol\":8192:8316  function hasGuestRole(address _address) external view returns (bool) {... */\n    tag_72:\n        /* \"OnDemo/contracts/AccountManagement.sol\":8255:8259  bool */\n      0x00\n        /* \"OnDemo/contracts/AccountManagement.sol\":8279:8308  hasRole(_address, Role.GUEST) */\n      tag_79\n        /* \"OnDemo/contracts/AccountManagement.sol\":8287:8295  _address */\n      dup3\n        /* \"OnDemo/contracts/AccountManagement.sol\":8297:8307  Role.GUEST */\n      0x03\n        /* \"OnDemo/contracts/AccountManagement.sol\":8279:8286  hasRole */\n      tag_80\n        /* \"OnDemo/contracts/AccountManagement.sol\":8279:8308  hasRole(_address, Role.GUEST) */\n      jump\t// in\n        /* \"OnDemo/contracts/AccountManagement.sol\":7902:8042  function hasCouncilMemberRole(address _address) external view returns (bool) {... */\n    tag_76:\n        /* \"OnDemo/contracts/AccountManagement.sol\":7973:7977  bool */\n      0x00\n        /* \"OnDemo/contracts/AccountManagement.sol\":7997:8034  hasRole(_address, Role.COUNCILMEMBER) */\n      tag_79\n        /* \"OnDemo/contracts/AccountManagement.sol\":8005:8013  _address */\n      dup3\n        /* \"OnDemo/contracts/AccountManagement.sol\":8015:8033  Role.COUNCILMEMBER */\n      0x01\n        /* \"OnDemo/contracts/AccountManagement.sol\":7052:7622  function hasRole(address _address, Role _role) private view returns (bool){... */\n    tag_80:\n      sub(shl(0xa0, 0x01), 0x01)\n        /* \"OnDemo/contracts/AccountManagement.sol\":7156:7171  users[_address] */\n      dup1\n      dup4\n      and\n        /* \"OnDemo/contracts/AccountManagement.sol\":7121:7125  bool */\n      0x00\n        /* \"OnDemo/contracts/AccountManagement.sol\":7156:7171  users[_address] */\n      swap1\n      dup2\n      mstore\n        /* \"OnDemo/contracts/AccountManagement.sol\":7156:7161  users */\n      0x02\n        /* \"OnDemo/contracts/AccountManagement.sol\":7156:7171  users[_address] */\n      0x20\n      swap1\n      dup2\n      mstore\n      0x40\n      dup1\n      dup4\n      keccak256\n        /* \"OnDemo/contracts/AccountManagement.sol\":7137:7171  User memory user = users[_address] */\n      dup2\n      mload\n      0xc0\n      dup2\n      add\n      swap1\n      swap3\n      mstore\n      dup1\n      sload\n      swap1\n      swap5\n      and\n      dup2\n      mstore\n      0x01\n      dup5\n      add\n      dup1\n      sload\n        /* \"OnDemo/contracts/AccountManagement.sol\":7121:7125  bool */\n      swap4\n      swap5\n      dup6\n      swap5\n        /* \"OnDemo/contracts/AccountManagement.sol\":7137:7171  User memory user = users[_address] */\n      swap3\n      swap4\n        /* \"OnDemo/contracts/AccountManagement.sol\":7156:7171  users[_address] */\n      swap1\n      swap3\n        /* \"OnDemo/contracts/AccountManagement.sol\":7137:7171  User memory user = users[_address] */\n      swap1\n      dup5\n      add\n      swap2\n      swap1\n      tag_264\n      swap1\n      tag_83\n      jump\t// in\n    tag_264:\n      dup1\n      0x1f\n      add\n      0x20\n      dup1\n      swap2\n      div\n      mul\n      0x20\n      add\n      mload(0x40)\n      swap1\n      dup2\n      add\n      0x40\n      mstore\n      dup1\n      swap3\n      swap2\n      swap1\n      dup2\n      dup2\n      mstore\n      0x20\n      add\n      dup3\n      dup1\n      sload\n      tag_265\n      swap1\n      tag_83\n      jump\t// in\n    tag_265:\n      dup1\n      iszero\n      tag_266\n      jumpi\n      dup1\n      0x1f\n      lt\n      tag_267\n      jumpi\n      0x0100\n      dup1\n      dup4\n      sload\n      div\n      mul\n      dup4\n      mstore\n      swap2\n      0x20\n      add\n      swap2\n      jump(tag_266)\n    tag_267:\n      dup3\n      add\n      swap2\n      swap1\n      0x00\n      mstore\n      keccak256(0x00, 0x20)\n      swap1\n    tag_268:\n      dup2\n      sload\n      dup2\n      mstore\n      swap1\n      0x01\n      add\n      swap1\n      0x20\n      add\n      dup1\n      dup4\n      gt\n      tag_268\n      jumpi\n      dup3\n      swap1\n      sub\n      0x1f\n      and\n      dup3\n      add\n      swap2\n    tag_266:\n      pop\n      pop\n      pop\n      pop\n      pop\n      dup2\n      mstore\n      0x20\n      add\n      0x02\n      dup3\n      add\n      dup1\n      sload\n      tag_269\n      swap1\n      tag_83\n      jump\t// in\n    tag_269:\n      dup1\n      0x1f\n      add\n      0x20\n      dup1\n      swap2\n      div\n      mul\n      0x20\n      add\n      mload(0x40)\n      swap1\n      dup2\n      add\n      0x40\n      mstore\n      dup1\n      swap3\n      swap2\n      swap1\n      dup2\n      dup2\n      mstore\n      0x20\n      add\n      dup3\n      dup1\n      sload\n      tag_270\n      swap1\n      tag_83\n      jump\t// in\n    tag_270:\n      dup1\n      iszero\n      tag_271\n      jumpi\n      dup1\n      0x1f\n      lt\n      tag_272\n      jumpi\n      0x0100\n      dup1\n      dup4\n      sload\n      div\n      mul\n      dup4\n      mstore\n      swap2\n      0x20\n      add\n      swap2\n      jump(tag_271)\n    tag_272:\n      dup3\n      add\n      swap2\n      swap1\n      0x00\n      mstore\n      keccak256(0x00, 0x20)\n      swap1\n    tag_273:\n      dup2\n      sload\n      dup2\n      mstore\n      swap1\n      0x01\n      add\n      swap1\n      0x20\n      add\n      dup1\n      dup4\n      gt\n      tag_273\n      jumpi\n      dup3\n      swap1\n      sub\n      0x1f\n      and\n      dup3\n      add\n      swap2\n    tag_271:\n      pop\n      pop\n      pop\n      pop\n      pop\n      dup2\n      mstore\n      0x20\n      add\n      0x03\n      dup3\n      add\n      dup1\n      sload\n      tag_274\n      swap1\n      tag_83\n      jump\t// in\n    tag_274:\n      dup1\n      0x1f\n      add\n      0x20\n      dup1\n      swap2\n      div\n      mul\n      0x20\n      add\n      mload(0x40)\n      swap1\n      dup2\n      add\n      0x40\n      mstore\n      dup1\n      swap3\n      swap2\n      swap1\n      dup2\n      dup2\n      mstore\n      0x20\n      add\n      dup3\n      dup1\n      sload\n      tag_275\n      swap1\n      tag_83\n      jump\t// in\n    tag_275:\n      dup1\n      iszero\n      tag_276\n      jumpi\n      dup1\n      0x1f\n      lt\n      tag_277\n      jumpi\n      0x0100\n      dup1\n      dup4\n      sload\n      div\n      mul\n      dup4\n      mstore\n      swap2\n      0x20\n      add\n      swap2\n      jump(tag_276)\n    tag_277:\n      dup3\n      add\n      swap2\n      swap1\n      0x00\n      mstore\n      keccak256(0x00, 0x20)\n      swap1\n    tag_278:\n      dup2\n      sload\n      dup2\n      mstore\n      swap1\n      0x01\n      add\n      swap1\n      0x20\n      add\n      dup1\n      dup4\n      gt\n      tag_278\n      jumpi\n      dup3\n      swap1\n      sub\n      0x1f\n      and\n      dup3\n      add\n      swap2\n    tag_276:\n      pop\n      pop\n      pop\n      swap2\n      dup4\n      mstore\n      pop\n      pop\n      0x04\n      dup3\n      add\n      sload\n      0xff\n      swap1\n      dup2\n      and\n      iszero\n      iszero\n      0x20\n      dup1\n      dup5\n      add\n      swap2\n      swap1\n      swap2\n      mstore\n      0x40\n      dup1\n      mload\n      0x80\n      dup2\n      add\n      dup3\n      mstore\n      0x05\n      swap1\n      swap6\n      add\n      sload\n      dup1\n      dup5\n      and\n      iszero\n      iszero\n      dup7\n      mstore\n      0x0100\n      dup2\n      div\n      dup5\n      and\n      iszero\n      iszero\n      swap3\n      dup7\n      add\n      swap3\n      swap1\n      swap3\n      mstore\n      0x010000\n      dup3\n      div\n      dup4\n      and\n      iszero\n      iszero\n      dup6\n      dup3\n      add\n      mstore\n      0x01000000\n      swap1\n      swap2\n      div\n      swap1\n      swap2\n      and\n      iszero\n      iszero\n      0x60\n      dup5\n      add\n      mstore\n      add\n      mstore\n        /* \"OnDemo/contracts/AccountManagement.sol\":7207:7219  user.roleMap */\n      0xa0\n      dup2\n      add\n      mload\n        /* \"OnDemo/contracts/AccountManagement.sol\":7137:7171  User memory user = users[_address] */\n      swap1\n      swap2\n      pop\n      0x00\n        /* \"OnDemo/contracts/AccountManagement.sol\":7235:7240  _role */\n      dup5\n        /* \"OnDemo/contracts/AccountManagement.sol\":7235:7255  _role == Role.LEADER */\n      0x03\n      dup2\n      gt\n      iszero\n      tag_282\n      jumpi\n      tag_282\n      tag_154\n      jump\t// in\n    tag_282:\n      eq\n        /* \"OnDemo/contracts/AccountManagement.sol\":7232:7592  if(_role == Role.LEADER){... */\n      iszero\n      tag_283\n      jumpi\n        /* \"OnDemo/contracts/AccountManagement.sol\":7278:7294  roleMap.isLeader */\n      mload\n      swap2\n      pop\n        /* \"OnDemo/contracts/AccountManagement.sol\":7271:7294  return roleMap.isLeader */\n      tag_79\n      swap1\n      pop\n      jump\n        /* \"OnDemo/contracts/AccountManagement.sol\":7232:7592  if(_role == Role.LEADER){... */\n    tag_283:\n        /* \"OnDemo/contracts/AccountManagement.sol\":7333:7351  Role.COUNCILMEMBER */\n      0x01\n        /* \"OnDemo/contracts/AccountManagement.sol\":7324:7329  _role */\n      dup5\n        /* \"OnDemo/contracts/AccountManagement.sol\":7324:7351  _role == Role.COUNCILMEMBER */\n      0x03\n      dup2\n      gt\n      iszero\n      tag_288\n      jumpi\n      tag_288\n      tag_154\n      jump\t// in\n    tag_288:\n      eq\n        /* \"OnDemo/contracts/AccountManagement.sol\":7321:7592  if(_role == Role.COUNCILMEMBER){... */\n      iszero\n      tag_289\n      jumpi\n        /* \"OnDemo/contracts/AccountManagement.sol\":7374:7397  roleMap.isCouncilMember */\n      0x20\n      add\n      mload\n      swap2\n      pop\n        /* \"OnDemo/contracts/AccountManagement.sol\":7367:7397  return roleMap.isCouncilMember */\n      tag_79\n      swap1\n      pop\n      jump\n        /* \"OnDemo/contracts/AccountManagement.sol\":7321:7592  if(_role == Role.COUNCILMEMBER){... */\n    tag_289:\n        /* \"OnDemo/contracts/AccountManagement.sol\":7443:7454  Role.MEMBER */\n      0x02\n        /* \"OnDemo/contracts/AccountManagement.sol\":7434:7439  _role */\n      dup5\n        /* \"OnDemo/contracts/AccountManagement.sol\":7434:7454  _role == Role.MEMBER */\n      0x03\n      dup2\n      gt\n      iszero\n      tag_294\n      jumpi\n      tag_294\n      tag_154\n      jump\t// in\n    tag_294:\n      eq\n        /* \"OnDemo/contracts/AccountManagement.sol\":7431:7592  if(_role == Role.MEMBER){... */\n      iszero\n      tag_295\n      jumpi\n        /* \"OnDemo/contracts/AccountManagement.sol\":7477:7493  roleMap.isMember */\n      0x40\n      add\n      mload\n      swap2\n      pop\n        /* \"OnDemo/contracts/AccountManagement.sol\":7470:7493  return roleMap.isMember */\n      tag_79\n      swap1\n      pop\n      jump\n        /* \"OnDemo/contracts/AccountManagement.sol\":7431:7592  if(_role == Role.MEMBER){... */\n    tag_295:\n        /* \"OnDemo/contracts/AccountManagement.sol\":7532:7542  Role.GUEST */\n      0x03\n        /* \"OnDemo/contracts/AccountManagement.sol\":7523:7528  _role */\n      dup5\n        /* \"OnDemo/contracts/AccountManagement.sol\":7523:7542  _role == Role.GUEST */\n      0x03\n      dup2\n      gt\n      iszero\n      tag_300\n      jumpi\n      tag_300\n      tag_154\n      jump\t// in\n    tag_300:\n      eq\n        /* \"OnDemo/contracts/AccountManagement.sol\":7520:7592  if(_role == Role.GUEST){... */\n      iszero\n      tag_301\n      jumpi\n        /* \"OnDemo/contracts/AccountManagement.sol\":7565:7580  roleMap.isGuest */\n      0x60\n      add\n      mload\n      swap2\n      pop\n        /* \"OnDemo/contracts/AccountManagement.sol\":7558:7580  return roleMap.isGuest */\n      tag_79\n      swap1\n      pop\n      jump\n        /* \"OnDemo/contracts/AccountManagement.sol\":7520:7592  if(_role == Role.GUEST){... */\n    tag_301:\n      pop\n        /* \"OnDemo/contracts/AccountManagement.sol\":7609:7614  false */\n      0x00\n      swap5\n        /* \"OnDemo/contracts/AccountManagement.sol\":7052:7622  function hasRole(address _address, Role _role) private view returns (bool){... */\n      swap4\n      pop\n      pop\n      pop\n      pop\n      jump\t// out\n    tag_247:\n      pop\n      dup1\n      sload\n      tag_304\n      swap1\n      tag_83\n      jump\t// in\n    tag_304:\n      0x00\n      dup3\n      sstore\n      dup1\n      0x1f\n      lt\n      tag_306\n      jumpi\n      pop\n      pop\n      jump\t// out\n    tag_306:\n      0x1f\n      add\n      0x20\n      swap1\n      div\n      swap1\n      0x00\n      mstore\n      keccak256(0x00, 0x20)\n      swap1\n      dup2\n      add\n      swap1\n      tag_307\n      swap2\n      swap1\n      tag_308\n      jump\t// in\n    tag_307:\n      pop\n      jump\t// out\n    tag_256:\n      dup3\n      dup1\n      sload\n      tag_309\n      swap1\n      tag_83\n      jump\t// in\n    tag_309:\n      swap1\n      0x00\n      mstore\n      keccak256(0x00, 0x20)\n      swap1\n      0x1f\n      add\n      0x20\n      swap1\n      div\n      dup2\n      add\n      swap3\n      dup3\n      tag_311\n      jumpi\n      0x00\n      dup6\n      sstore\n      jump(tag_314)\n    tag_311:\n      dup3\n      0x1f\n      lt\n      tag_312\n      jumpi\n      dup1\n      mload\n      not(0xff)\n      and\n      dup4\n      dup1\n      add\n      or\n      dup6\n      sstore\n      jump(tag_314)\n    tag_312:\n      dup3\n      dup1\n      add\n      0x01\n      add\n      dup6\n      sstore\n      dup3\n      iszero\n      tag_314\n      jumpi\n      swap2\n      dup3\n      add\n    tag_313:\n      dup3\n      dup2\n      gt\n      iszero\n      tag_314\n      jumpi\n      dup3\n      mload\n      dup3\n      sstore\n      swap2\n      0x20\n      add\n      swap2\n      swap1\n      0x01\n      add\n      swap1\n      jump(tag_313)\n    tag_314:\n      pop\n      tag_315\n      swap3\n      swap2\n      pop\n      tag_308\n      jump\t// in\n    tag_315:\n      pop\n      swap1\n      jump\t// out\n    tag_308:\n    tag_316:\n      dup1\n      dup3\n      gt\n      iszero\n      tag_315\n      jumpi\n      0x00\n      dup2\n      sstore\n      0x01\n      add\n      jump(tag_316)\n        /* \"#utility.yul\":14:187   */\n    tag_318:\n        /* \"#utility.yul\":82:102   */\n      dup1\n      calldataload\n      sub(shl(0xa0, 0x01), 0x01)\n        /* \"#utility.yul\":131:162   */\n      dup2\n      and\n        /* \"#utility.yul\":121:163   */\n      dup2\n      eq\n        /* \"#utility.yul\":111:181   */\n      tag_325\n      jumpi\n        /* \"#utility.yul\":177:178   */\n      0x00\n        /* \"#utility.yul\":174:175   */\n      dup1\n        /* \"#utility.yul\":167:179   */\n      revert\n        /* \"#utility.yul\":111:181   */\n    tag_325:\n        /* \"#utility.yul\":14:187   */\n      swap2\n      swap1\n      pop\n      jump\t// out\n        /* \"#utility.yul\":192:378   */\n    tag_23:\n        /* \"#utility.yul\":251:257   */\n      0x00\n        /* \"#utility.yul\":304:306   */\n      0x20\n        /* \"#utility.yul\":292:301   */\n      dup3\n        /* \"#utility.yul\":283:290   */\n      dup5\n        /* \"#utility.yul\":279:302   */\n      sub\n        /* \"#utility.yul\":275:307   */\n      slt\n        /* \"#utility.yul\":272:324   */\n      iszero\n      tag_327\n      jumpi\n        /* \"#utility.yul\":320:321   */\n      0x00\n        /* \"#utility.yul\":317:318   */\n      dup1\n        /* \"#utility.yul\":310:322   */\n      revert\n        /* \"#utility.yul\":272:324   */\n    tag_327:\n        /* \"#utility.yul\":343:372   */\n      tag_328\n        /* \"#utility.yul\":362:371   */\n      dup3\n        /* \"#utility.yul\":343:372   */\n      tag_318\n      jump\t// in\n    tag_328:\n        /* \"#utility.yul\":333:372   */\n      swap4\n        /* \"#utility.yul\":192:378   */\n      swap3\n      pop\n      pop\n      pop\n      jump\t// out\n        /* \"#utility.yul\":757:1093   */\n    tag_46:\n        /* \"#utility.yul\":831:837   */\n      0x00\n        /* \"#utility.yul\":839:845   */\n      dup1\n        /* \"#utility.yul\":892:894   */\n      0x40\n        /* \"#utility.yul\":880:889   */\n      dup4\n        /* \"#utility.yul\":871:878   */\n      dup6\n        /* \"#utility.yul\":867:890   */\n      sub\n        /* \"#utility.yul\":863:895   */\n      slt\n        /* \"#utility.yul\":860:912   */\n      iszero\n      tag_332\n      jumpi\n        /* \"#utility.yul\":908:909   */\n      0x00\n        /* \"#utility.yul\":905:906   */\n      dup1\n        /* \"#utility.yul\":898:910   */\n      revert\n        /* \"#utility.yul\":860:912   */\n    tag_332:\n        /* \"#utility.yul\":931:960   */\n      tag_333\n        /* \"#utility.yul\":950:959   */\n      dup4\n        /* \"#utility.yul\":931:960   */\n      tag_318\n      jump\t// in\n    tag_333:\n        /* \"#utility.yul\":921:960   */\n      swap2\n      pop\n        /* \"#utility.yul\":1010:1012   */\n      0x20\n        /* \"#utility.yul\":999:1008   */\n      dup4\n        /* \"#utility.yul\":995:1013   */\n      add\n        /* \"#utility.yul\":982:1014   */\n      calldataload\n        /* \"#utility.yul\":1043:1044   */\n      0x04\n        /* \"#utility.yul\":1036:1041   */\n      dup2\n        /* \"#utility.yul\":1033:1045   */\n      lt\n        /* \"#utility.yul\":1023:1063   */\n      tag_334\n      jumpi\n        /* \"#utility.yul\":1059:1060   */\n      0x00\n        /* \"#utility.yul\":1056:1057   */\n      dup1\n        /* \"#utility.yul\":1049:1061   */\n      revert\n        /* \"#utility.yul\":1023:1063   */\n    tag_334:\n        /* \"#utility.yul\":1082:1087   */\n      dup1\n        /* \"#utility.yul\":1072:1087   */\n      swap2\n      pop\n      pop\n        /* \"#utility.yul\":757:1093   */\n      swap3\n      pop\n      swap3\n      swap1\n      pop\n      jump\t// out\n        /* \"#utility.yul\":1098:1570   */\n    tag_319:\n        /* \"#utility.yul\":1140:1143   */\n      0x00\n        /* \"#utility.yul\":1178:1183   */\n      dup2\n        /* \"#utility.yul\":1172:1184   */\n      mload\n        /* \"#utility.yul\":1205:1211   */\n      dup1\n        /* \"#utility.yul\":1200:1203   */\n      dup5\n        /* \"#utility.yul\":1193:1212   */\n      mstore\n        /* \"#utility.yul\":1230:1231   */\n      0x00\n        /* \"#utility.yul\":1240:1402   */\n    tag_336:\n        /* \"#utility.yul\":1254:1260   */\n      dup2\n        /* \"#utility.yul\":1251:1252   */\n      dup2\n        /* \"#utility.yul\":1248:1261   */\n      lt\n        /* \"#utility.yul\":1240:1402   */\n      iszero\n      tag_338\n      jumpi\n        /* \"#utility.yul\":1316:1320   */\n      0x20\n        /* \"#utility.yul\":1372:1385   */\n      dup2\n      dup6\n      add\n        /* \"#utility.yul\":1368:1390   */\n      dup2\n      add\n        /* \"#utility.yul\":1362:1391   */\n      mload\n        /* \"#utility.yul\":1344:1355   */\n      dup7\n      dup4\n      add\n        /* \"#utility.yul\":1340:1360   */\n      dup3\n      add\n        /* \"#utility.yul\":1333:1392   */\n      mstore\n        /* \"#utility.yul\":1269:1281   */\n      add\n        /* \"#utility.yul\":1240:1402   */\n      jump(tag_336)\n    tag_338:\n        /* \"#utility.yul\":1420:1426   */\n      dup2\n        /* \"#utility.yul\":1417:1418   */\n      dup2\n        /* \"#utility.yul\":1414:1427   */\n      gt\n        /* \"#utility.yul\":1411:1498   */\n      iszero\n      tag_339\n      jumpi\n        /* \"#utility.yul\":1486:1487   */\n      0x00\n        /* \"#utility.yul\":1479:1483   */\n      0x20\n        /* \"#utility.yul\":1470:1476   */\n      dup4\n        /* \"#utility.yul\":1465:1468   */\n      dup8\n        /* \"#utility.yul\":1461:1477   */\n      add\n        /* \"#utility.yul\":1457:1484   */\n      add\n        /* \"#utility.yul\":1450:1488   */\n      mstore\n        /* \"#utility.yul\":1411:1498   */\n    tag_339:\n      pop\n        /* \"#utility.yul\":1552:1554   */\n      0x1f\n        /* \"#utility.yul\":1531:1546   */\n      add\n      not(0x1f)\n        /* \"#utility.yul\":1527:1556   */\n      and\n        /* \"#utility.yul\":1518:1557   */\n      swap3\n      swap1\n      swap3\n      add\n        /* \"#utility.yul\":1559:1563   */\n      0x20\n        /* \"#utility.yul\":1514:1564   */\n      add\n      swap3\n        /* \"#utility.yul\":1098:1570   */\n      swap2\n      pop\n      pop\n      jump\t// out\n        /* \"#utility.yul\":1575:2896   */\n    tag_52:\n        /* \"#utility.yul\":1744:1746   */\n      0x20\n        /* \"#utility.yul\":1726:1747   */\n      dup1\n      dup3\n      mstore\n        /* \"#utility.yul\":1787:1800   */\n      dup3\n      mload\n      sub(shl(0xa0, 0x01), 0x01)\n        /* \"#utility.yul\":1783:1822   */\n      and\n        /* \"#utility.yul\":1763:1781   */\n      dup3\n      dup3\n      add\n        /* \"#utility.yul\":1756:1823   */\n      mstore\n        /* \"#utility.yul\":1858:1873   */\n      dup3\n      add\n        /* \"#utility.yul\":1852:1874   */\n      mload\n        /* \"#utility.yul\":1893:1899   */\n      0x0120\n        /* \"#utility.yul\":1930:1932   */\n      0x40\n        /* \"#utility.yul\":1915:1933   */\n      dup4\n      add\n        /* \"#utility.yul\":1908:1938   */\n      dup2\n      swap1\n      mstore\n      0x00\n      swap2\n        /* \"#utility.yul\":1852:1874   */\n      swap1\n        /* \"#utility.yul\":1961:2013   */\n      tag_341\n        /* \"#utility.yul\":2008:2011   */\n      0x0140\n        /* \"#utility.yul\":1993:2012   */\n      dup6\n      add\n        /* \"#utility.yul\":1852:1874   */\n      dup4\n        /* \"#utility.yul\":1961:2013   */\n      tag_319\n      jump\t// in\n    tag_341:\n        /* \"#utility.yul\":1947:2013   */\n      swap2\n      pop\n        /* \"#utility.yul\":2062:2064   */\n      0x40\n        /* \"#utility.yul\":2054:2060   */\n      dup6\n        /* \"#utility.yul\":2050:2065   */\n      add\n        /* \"#utility.yul\":2044:2066   */\n      mload\n        /* \"#utility.yul\":2089:2091   */\n      0x1f\n        /* \"#utility.yul\":2085:2092   */\n      not\n        /* \"#utility.yul\":2156:2158   */\n      dup1\n        /* \"#utility.yul\":2144:2153   */\n      dup7\n        /* \"#utility.yul\":2136:2142   */\n      dup6\n        /* \"#utility.yul\":2132:2154   */\n      sub\n        /* \"#utility.yul\":2128:2159   */\n      add\n        /* \"#utility.yul\":2123:2125   */\n      0x60\n        /* \"#utility.yul\":2112:2121   */\n      dup8\n        /* \"#utility.yul\":2108:2126   */\n      add\n        /* \"#utility.yul\":2101:2160   */\n      mstore\n        /* \"#utility.yul\":2183:2224   */\n      tag_342\n        /* \"#utility.yul\":2217:2223   */\n      dup5\n        /* \"#utility.yul\":2201:2215   */\n      dup4\n        /* \"#utility.yul\":2183:2224   */\n      tag_319\n      jump\t// in\n    tag_342:\n        /* \"#utility.yul\":2169:2224   */\n      swap4\n      pop\n        /* \"#utility.yul\":2273:2275   */\n      0x60\n        /* \"#utility.yul\":2265:2271   */\n      dup8\n        /* \"#utility.yul\":2261:2276   */\n      add\n        /* \"#utility.yul\":2255:2277   */\n      mload\n        /* \"#utility.yul\":2233:2277   */\n      swap2\n      pop\n        /* \"#utility.yul\":2342:2344   */\n      dup1\n        /* \"#utility.yul\":2330:2339   */\n      dup7\n        /* \"#utility.yul\":2322:2328   */\n      dup6\n        /* \"#utility.yul\":2318:2340   */\n      sub\n        /* \"#utility.yul\":2314:2345   */\n      add\n        /* \"#utility.yul\":2308:2311   */\n      0x80\n        /* \"#utility.yul\":2297:2306   */\n      dup8\n        /* \"#utility.yul\":2293:2312   */\n      add\n        /* \"#utility.yul\":2286:2346   */\n      mstore\n      pop\n        /* \"#utility.yul\":2369:2410   */\n      tag_343\n        /* \"#utility.yul\":2403:2409   */\n      dup4\n        /* \"#utility.yul\":2387:2401   */\n      dup3\n        /* \"#utility.yul\":2369:2410   */\n      tag_319\n      jump\t// in\n    tag_343:\n        /* \"#utility.yul\":2479:2482   */\n      0x80\n        /* \"#utility.yul\":2467:2483   */\n      dup8\n      add\n        /* \"#utility.yul\":2461:2484   */\n      mload\n        /* \"#utility.yul\":2454:2485   */\n      iszero\n        /* \"#utility.yul\":2447:2486   */\n      iszero\n        /* \"#utility.yul\":2441:2444   */\n      0xa0\n        /* \"#utility.yul\":2426:2445   */\n      dup8\n      dup2\n      add\n        /* \"#utility.yul\":2419:2487   */\n      swap2\n      swap1\n      swap2\n      mstore\n        /* \"#utility.yul\":2524:2540   */\n      swap1\n      swap7\n      add\n        /* \"#utility.yul\":2518:2541   */\n      mload\n        /* \"#utility.yul\":2592:2613   */\n      dup1\n      mload\n        /* \"#utility.yul\":2585:2614   */\n      iszero\n        /* \"#utility.yul\":2578:2615   */\n      iszero\n        /* \"#utility.yul\":2572:2575   */\n      0xc0\n        /* \"#utility.yul\":2557:2576   */\n      dup8\n      add\n        /* \"#utility.yul\":2550:2616   */\n      mstore\n        /* \"#utility.yul\":2693:2695   */\n      0x20\n        /* \"#utility.yul\":2673:2696   */\n      dup2\n      add\n        /* \"#utility.yul\":2667:2697   */\n      mload\n        /* \"#utility.yul\":2660:2698   */\n      iszero\n        /* \"#utility.yul\":2653:2699   */\n      iszero\n        /* \"#utility.yul\":2647:2650   */\n      0xe0\n        /* \"#utility.yul\":2632:2651   */\n      dup8\n      add\n        /* \"#utility.yul\":2625:2700   */\n      mstore\n        /* \"#utility.yul\":2777:2779   */\n      0x40\n        /* \"#utility.yul\":2757:2780   */\n      dup2\n      add\n        /* \"#utility.yul\":2751:2781   */\n      mload\n        /* \"#utility.yul\":2744:2782   */\n      iszero\n        /* \"#utility.yul\":2737:2783   */\n      iszero\n        /* \"#utility.yul\":2731:2734   */\n      0x0100\n        /* \"#utility.yul\":2716:2735   */\n      dup8\n      add\n        /* \"#utility.yul\":2709:2784   */\n      mstore\n        /* \"#utility.yul\":2860:2862   */\n      0x60\n        /* \"#utility.yul\":2840:2863   */\n      add\n        /* \"#utility.yul\":2834:2864   */\n      mload\n        /* \"#utility.yul\":2827:2865   */\n      iszero\n        /* \"#utility.yul\":2820:2866   */\n      iszero\n        /* \"#utility.yul\":2800:2818   */\n      swap2\n      swap1\n      swap5\n      add\n        /* \"#utility.yul\":2793:2867   */\n      mstore\n      pop\n        /* \"#utility.yul\":2355:2410   */\n      swap2\n      swap3\n        /* \"#utility.yul\":1575:2896   */\n      swap2\n      pop\n      pop\n      jump\t// out\n        /* \"#utility.yul\":3109:3236   */\n    tag_320:\n        /* \"#utility.yul\":3170:3180   */\n      0x4e487b71\n        /* \"#utility.yul\":3165:3168   */\n      0xe0\n        /* \"#utility.yul\":3161:3181   */\n      shl\n        /* \"#utility.yul\":3158:3159   */\n      0x00\n        /* \"#utility.yul\":3151:3182   */\n      mstore\n        /* \"#utility.yul\":3201:3205   */\n      0x41\n        /* \"#utility.yul\":3198:3199   */\n      0x04\n        /* \"#utility.yul\":3191:3206   */\n      mstore\n        /* \"#utility.yul\":3225:3229   */\n      0x24\n        /* \"#utility.yul\":3222:3223   */\n      0x00\n        /* \"#utility.yul\":3215:3230   */\n      revert\n        /* \"#utility.yul\":3241:3960   */\n    tag_321:\n        /* \"#utility.yul\":3284:3289   */\n      0x00\n        /* \"#utility.yul\":3337:3340   */\n      dup3\n        /* \"#utility.yul\":3330:3334   */\n      0x1f\n        /* \"#utility.yul\":3322:3328   */\n      dup4\n        /* \"#utility.yul\":3318:3335   */\n      add\n        /* \"#utility.yul\":3314:3341   */\n      slt\n        /* \"#utility.yul\":3304:3359   */\n      tag_347\n      jumpi\n        /* \"#utility.yul\":3355:3356   */\n      0x00\n        /* \"#utility.yul\":3352:3353   */\n      dup1\n        /* \"#utility.yul\":3345:3357   */\n      revert\n        /* \"#utility.yul\":3304:3359   */\n    tag_347:\n        /* \"#utility.yul\":3391:3397   */\n      dup2\n        /* \"#utility.yul\":3378:3398   */\n      calldataload\n        /* \"#utility.yul\":3417:3435   */\n      0xffffffffffffffff\n        /* \"#utility.yul\":3454:3456   */\n      dup1\n        /* \"#utility.yul\":3450:3452   */\n      dup3\n        /* \"#utility.yul\":3447:3457   */\n      gt\n        /* \"#utility.yul\":3444:3480   */\n      iszero\n      tag_349\n      jumpi\n        /* \"#utility.yul\":3460:3478   */\n      tag_349\n      tag_320\n      jump\t// in\n    tag_349:\n        /* \"#utility.yul\":3535:3537   */\n      0x40\n        /* \"#utility.yul\":3529:3538   */\n      mload\n        /* \"#utility.yul\":3503:3505   */\n      0x1f\n        /* \"#utility.yul\":3589:3602   */\n      dup4\n      add\n      not(0x1f)\n        /* \"#utility.yul\":3585:3607   */\n      swap1\n      dup2\n      and\n        /* \"#utility.yul\":3609:3611   */\n      0x3f\n        /* \"#utility.yul\":3581:3612   */\n      add\n        /* \"#utility.yul\":3577:3617   */\n      and\n        /* \"#utility.yul\":3565:3618   */\n      dup2\n      add\n      swap1\n        /* \"#utility.yul\":3633:3651   */\n      dup3\n      dup3\n      gt\n        /* \"#utility.yul\":3653:3675   */\n      dup2\n      dup4\n      lt\n        /* \"#utility.yul\":3630:3676   */\n      or\n        /* \"#utility.yul\":3627:3699   */\n      iszero\n      tag_351\n      jumpi\n        /* \"#utility.yul\":3679:3697   */\n      tag_351\n      tag_320\n      jump\t// in\n    tag_351:\n        /* \"#utility.yul\":3719:3729   */\n      dup2\n        /* \"#utility.yul\":3715:3717   */\n      0x40\n        /* \"#utility.yul\":3708:3730   */\n      mstore\n        /* \"#utility.yul\":3754:3756   */\n      dup4\n        /* \"#utility.yul\":3746:3752   */\n      dup2\n        /* \"#utility.yul\":3739:3757   */\n      mstore\n        /* \"#utility.yul\":3800:3803   */\n      dup7\n        /* \"#utility.yul\":3793:3797   */\n      0x20\n        /* \"#utility.yul\":3788:3790   */\n      dup6\n        /* \"#utility.yul\":3780:3786   */\n      dup9\n        /* \"#utility.yul\":3776:3791   */\n      add\n        /* \"#utility.yul\":3772:3798   */\n      add\n        /* \"#utility.yul\":3769:3804   */\n      gt\n        /* \"#utility.yul\":3766:3821   */\n      iszero\n      tag_352\n      jumpi\n        /* \"#utility.yul\":3817:3818   */\n      0x00\n        /* \"#utility.yul\":3814:3815   */\n      dup1\n        /* \"#utility.yul\":3807:3819   */\n      revert\n        /* \"#utility.yul\":3766:3821   */\n    tag_352:\n        /* \"#utility.yul\":3881:3883   */\n      dup4\n        /* \"#utility.yul\":3874:3878   */\n      0x20\n        /* \"#utility.yul\":3866:3872   */\n      dup8\n        /* \"#utility.yul\":3862:3879   */\n      add\n        /* \"#utility.yul\":3855:3859   */\n      0x20\n        /* \"#utility.yul\":3847:3853   */\n      dup4\n        /* \"#utility.yul\":3843:3860   */\n      add\n        /* \"#utility.yul\":3830:3884   */\n      calldatacopy\n        /* \"#utility.yul\":3928:3929   */\n      0x00\n        /* \"#utility.yul\":3921:3925   */\n      0x20\n        /* \"#utility.yul\":3916:3918   */\n      dup6\n        /* \"#utility.yul\":3908:3914   */\n      dup4\n        /* \"#utility.yul\":3904:3919   */\n      add\n        /* \"#utility.yul\":3900:3926   */\n      add\n        /* \"#utility.yul\":3893:3930   */\n      mstore\n        /* \"#utility.yul\":3948:3954   */\n      dup1\n        /* \"#utility.yul\":3939:3954   */\n      swap5\n      pop\n      pop\n      pop\n      pop\n      pop\n        /* \"#utility.yul\":3241:3960   */\n      swap3\n      swap2\n      pop\n      pop\n      jump\t// out\n        /* \"#utility.yul\":3965:4783   */\n    tag_68:\n        /* \"#utility.yul\":4081:4087   */\n      0x00\n        /* \"#utility.yul\":4089:4095   */\n      dup1\n        /* \"#utility.yul\":4097:4103   */\n      0x00\n        /* \"#utility.yul\":4105:4111   */\n      dup1\n        /* \"#utility.yul\":4158:4161   */\n      0x80\n        /* \"#utility.yul\":4146:4155   */\n      dup6\n        /* \"#utility.yul\":4137:4144   */\n      dup8\n        /* \"#utility.yul\":4133:4156   */\n      sub\n        /* \"#utility.yul\":4129:4162   */\n      slt\n        /* \"#utility.yul\":4126:4179   */\n      iszero\n      tag_354\n      jumpi\n        /* \"#utility.yul\":4175:4176   */\n      0x00\n        /* \"#utility.yul\":4172:4173   */\n      dup1\n        /* \"#utility.yul\":4165:4177   */\n      revert\n        /* \"#utility.yul\":4126:4179   */\n    tag_354:\n        /* \"#utility.yul\":4198:4227   */\n      tag_355\n        /* \"#utility.yul\":4217:4226   */\n      dup6\n        /* \"#utility.yul\":4198:4227   */\n      tag_318\n      jump\t// in\n    tag_355:\n        /* \"#utility.yul\":4188:4227   */\n      swap4\n      pop\n        /* \"#utility.yul\":4278:4280   */\n      0x20\n        /* \"#utility.yul\":4267:4276   */\n      dup6\n        /* \"#utility.yul\":4263:4281   */\n      add\n        /* \"#utility.yul\":4250:4282   */\n      calldataload\n        /* \"#utility.yul\":4301:4319   */\n      0xffffffffffffffff\n        /* \"#utility.yul\":4342:4344   */\n      dup1\n        /* \"#utility.yul\":4334:4340   */\n      dup3\n        /* \"#utility.yul\":4331:4345   */\n      gt\n        /* \"#utility.yul\":4328:4362   */\n      iszero\n      tag_356\n      jumpi\n        /* \"#utility.yul\":4358:4359   */\n      0x00\n        /* \"#utility.yul\":4355:4356   */\n      dup1\n        /* \"#utility.yul\":4348:4360   */\n      revert\n        /* \"#utility.yul\":4328:4362   */\n    tag_356:\n        /* \"#utility.yul\":4381:4431   */\n      tag_357\n        /* \"#utility.yul\":4423:4430   */\n      dup9\n        /* \"#utility.yul\":4414:4420   */\n      dup4\n        /* \"#utility.yul\":4403:4412   */\n      dup10\n        /* \"#utility.yul\":4399:4421   */\n      add\n        /* \"#utility.yul\":4381:4431   */\n      tag_321\n      jump\t// in\n    tag_357:\n        /* \"#utility.yul\":4371:4431   */\n      swap5\n      pop\n        /* \"#utility.yul\":4484:4486   */\n      0x40\n        /* \"#utility.yul\":4473:4482   */\n      dup8\n        /* \"#utility.yul\":4469:4487   */\n      add\n        /* \"#utility.yul\":4456:4488   */\n      calldataload\n        /* \"#utility.yul\":4440:4488   */\n      swap2\n      pop\n        /* \"#utility.yul\":4513:4515   */\n      dup1\n        /* \"#utility.yul\":4503:4511   */\n      dup3\n        /* \"#utility.yul\":4500:4516   */\n      gt\n        /* \"#utility.yul\":4497:4533   */\n      iszero\n      tag_358\n      jumpi\n        /* \"#utility.yul\":4529:4530   */\n      0x00\n        /* \"#utility.yul\":4526:4527   */\n      dup1\n        /* \"#utility.yul\":4519:4531   */\n      revert\n        /* \"#utility.yul\":4497:4533   */\n    tag_358:\n        /* \"#utility.yul\":4552:4604   */\n      tag_359\n        /* \"#utility.yul\":4596:4603   */\n      dup9\n        /* \"#utility.yul\":4585:4593   */\n      dup4\n        /* \"#utility.yul\":4574:4583   */\n      dup10\n        /* \"#utility.yul\":4570:4594   */\n      add\n        /* \"#utility.yul\":4552:4604   */\n      tag_321\n      jump\t// in\n    tag_359:\n        /* \"#utility.yul\":4542:4604   */\n      swap4\n      pop\n        /* \"#utility.yul\":4657:4659   */\n      0x60\n        /* \"#utility.yul\":4646:4655   */\n      dup8\n        /* \"#utility.yul\":4642:4660   */\n      add\n        /* \"#utility.yul\":4629:4661   */\n      calldataload\n        /* \"#utility.yul\":4613:4661   */\n      swap2\n      pop\n        /* \"#utility.yul\":4686:4688   */\n      dup1\n        /* \"#utility.yul\":4676:4684   */\n      dup3\n        /* \"#utility.yul\":4673:4689   */\n      gt\n        /* \"#utility.yul\":4670:4706   */\n      iszero\n      tag_360\n      jumpi\n        /* \"#utility.yul\":4702:4703   */\n      0x00\n        /* \"#utility.yul\":4699:4700   */\n      dup1\n        /* \"#utility.yul\":4692:4704   */\n      revert\n        /* \"#utility.yul\":4670:4706   */\n    tag_360:\n      pop\n        /* \"#utility.yul\":4725:4777   */\n      tag_361\n        /* \"#utility.yul\":4769:4776   */\n      dup8\n        /* \"#utility.yul\":4758:4766   */\n      dup3\n        /* \"#utility.yul\":4747:4756   */\n      dup9\n        /* \"#utility.yul\":4743:4767   */\n      add\n        /* \"#utility.yul\":4725:4777   */\n      tag_321\n      jump\t// in\n    tag_361:\n        /* \"#utility.yul\":4715:4777   */\n      swap2\n      pop\n      pop\n        /* \"#utility.yul\":3965:4783   */\n      swap3\n      swap6\n      swap2\n      swap5\n      pop\n      swap3\n      pop\n      jump\t// out\n        /* \"#utility.yul\":4788:5168   */\n    tag_83:\n        /* \"#utility.yul\":4867:4868   */\n      0x01\n        /* \"#utility.yul\":4863:4875   */\n      dup2\n      dup2\n      shr\n      swap1\n        /* \"#utility.yul\":4910:4922   */\n      dup3\n      and\n      dup1\n        /* \"#utility.yul\":4931:4992   */\n      tag_363\n      jumpi\n        /* \"#utility.yul\":4985:4989   */\n      0x7f\n        /* \"#utility.yul\":4977:4983   */\n      dup3\n        /* \"#utility.yul\":4973:4990   */\n      and\n        /* \"#utility.yul\":4963:4990   */\n      swap2\n      pop\n        /* \"#utility.yul\":4931:4992   */\n    tag_363:\n        /* \"#utility.yul\":5038:5040   */\n      0x20\n        /* \"#utility.yul\":5030:5036   */\n      dup3\n        /* \"#utility.yul\":5027:5041   */\n      lt\n        /* \"#utility.yul\":5007:5025   */\n      dup2\n        /* \"#utility.yul\":5004:5042   */\n      eq\n        /* \"#utility.yul\":5001:5162   */\n      iszero\n      tag_364\n      jumpi\n        /* \"#utility.yul\":5084:5094   */\n      0x4e487b71\n        /* \"#utility.yul\":5079:5082   */\n      0xe0\n        /* \"#utility.yul\":5075:5095   */\n      shl\n        /* \"#utility.yul\":5072:5073   */\n      0x00\n        /* \"#utility.yul\":5065:5096   */\n      mstore\n        /* \"#utility.yul\":5119:5123   */\n      0x22\n        /* \"#utility.yul\":5116:5117   */\n      0x04\n        /* \"#utility.yul\":5109:5124   */\n      mstore\n        /* \"#utility.yul\":5147:5151   */\n      0x24\n        /* \"#utility.yul\":5144:5145   */\n      0x00\n        /* \"#utility.yul\":5137:5152   */\n      revert\n        /* \"#utility.yul\":5001:5162   */\n    tag_364:\n      pop\n        /* \"#utility.yul\":4788:5168   */\n      swap2\n      swap1\n      pop\n      jump\t// out\n        /* \"#utility.yul\":5173:5518   */\n    tag_101:\n        /* \"#utility.yul\":5375:5377   */\n      0x20\n        /* \"#utility.yul\":5357:5378   */\n      dup1\n      dup3\n      mstore\n        /* \"#utility.yul\":5414:5416   */\n      0x15\n        /* \"#utility.yul\":5394:5412   */\n      swap1\n      dup3\n      add\n        /* \"#utility.yul\":5387:5417   */\n      mstore\n      shl(0x5a, 0x1058d8dbdd5b9d08191bd95cdb89dd08195e1a5cdd)\n        /* \"#utility.yul\":5448:5450   */\n      0x40\n        /* \"#utility.yul\":5433:5451   */\n      dup3\n      add\n        /* \"#utility.yul\":5426:5477   */\n      mstore\n        /* \"#utility.yul\":5509:5511   */\n      0x60\n        /* \"#utility.yul\":5494:5512   */\n      add\n      swap1\n        /* \"#utility.yul\":5173:5518   */\n      jump\t// out\n        /* \"#utility.yul\":5523:5650   */\n    tag_322:\n        /* \"#utility.yul\":5584:5594   */\n      0x4e487b71\n        /* \"#utility.yul\":5579:5582   */\n      0xe0\n        /* \"#utility.yul\":5575:5595   */\n      shl\n        /* \"#utility.yul\":5572:5573   */\n      0x00\n        /* \"#utility.yul\":5565:5596   */\n      mstore\n        /* \"#utility.yul\":5615:5619   */\n      0x11\n        /* \"#utility.yul\":5612:5613   */\n      0x04\n        /* \"#utility.yul\":5605:5620   */\n      mstore\n        /* \"#utility.yul\":5639:5643   */\n      0x24\n        /* \"#utility.yul\":5636:5637   */\n      0x00\n        /* \"#utility.yul\":5629:5644   */\n      revert\n        /* \"#utility.yul\":5655:5791   */\n    tag_105:\n        /* \"#utility.yul\":5694:5697   */\n      0x00\n        /* \"#utility.yul\":5722:5727   */\n      dup2\n        /* \"#utility.yul\":5712:5751   */\n      tag_369\n      jumpi\n        /* \"#utility.yul\":5731:5749   */\n      tag_369\n      tag_322\n      jump\t// in\n    tag_369:\n      pop\n      not(0x00)\n        /* \"#utility.yul\":5767:5785   */\n      add\n      swap1\n        /* \"#utility.yul\":5655:5791   */\n      jump\t// out\n        /* \"#utility.yul\":5796:5923   */\n    tag_113:\n        /* \"#utility.yul\":5857:5867   */\n      0x4e487b71\n        /* \"#utility.yul\":5852:5855   */\n      0xe0\n        /* \"#utility.yul\":5848:5868   */\n      shl\n        /* \"#utility.yul\":5845:5846   */\n      0x00\n        /* \"#utility.yul\":5838:5869   */\n      mstore\n        /* \"#utility.yul\":5888:5892   */\n      0x32\n        /* \"#utility.yul\":5885:5886   */\n      0x04\n        /* \"#utility.yul\":5878:5893   */\n      mstore\n        /* \"#utility.yul\":5912:5916   */\n      0x24\n        /* \"#utility.yul\":5909:5910   */\n      0x00\n        /* \"#utility.yul\":5902:5917   */\n      revert\n        /* \"#utility.yul\":5928:6205   */\n    tag_118:\n        /* \"#utility.yul\":5995:6001   */\n      0x00\n        /* \"#utility.yul\":6048:6050   */\n      0x20\n        /* \"#utility.yul\":6036:6045   */\n      dup3\n        /* \"#utility.yul\":6027:6034   */\n      dup5\n        /* \"#utility.yul\":6023:6046   */\n      sub\n        /* \"#utility.yul\":6019:6051   */\n      slt\n        /* \"#utility.yul\":6016:6068   */\n      iszero\n      tag_372\n      jumpi\n        /* \"#utility.yul\":6064:6065   */\n      0x00\n        /* \"#utility.yul\":6061:6062   */\n      dup1\n        /* \"#utility.yul\":6054:6066   */\n      revert\n        /* \"#utility.yul\":6016:6068   */\n    tag_372:\n        /* \"#utility.yul\":6096:6105   */\n      dup2\n        /* \"#utility.yul\":6090:6106   */\n      mload\n        /* \"#utility.yul\":6149:6154   */\n      dup1\n        /* \"#utility.yul\":6142:6155   */\n      iszero\n        /* \"#utility.yul\":6135:6156   */\n      iszero\n        /* \"#utility.yul\":6128:6133   */\n      dup2\n        /* \"#utility.yul\":6125:6157   */\n      eq\n        /* \"#utility.yul\":6115:6175   */\n      tag_328\n      jumpi\n        /* \"#utility.yul\":6171:6172   */\n      0x00\n        /* \"#utility.yul\":6168:6169   */\n      dup1\n        /* \"#utility.yul\":6161:6173   */\n      revert\n        /* \"#utility.yul\":6210:6345   */\n    tag_136:\n        /* \"#utility.yul\":6249:6252   */\n      0x00\n      not(0x00)\n        /* \"#utility.yul\":6270:6287   */\n      dup3\n      eq\n        /* \"#utility.yul\":6267:6310   */\n      iszero\n      tag_376\n      jumpi\n        /* \"#utility.yul\":6290:6308   */\n      tag_376\n      tag_322\n      jump\t// in\n    tag_376:\n      pop\n        /* \"#utility.yul\":6337:6338   */\n      0x01\n        /* \"#utility.yul\":6326:6339   */\n      add\n      swap1\n        /* \"#utility.yul\":6210:6345   */\n      jump\t// out\n        /* \"#utility.yul\":6350:6748   */\n    tag_147:\n        /* \"#utility.yul\":6552:6554   */\n      0x20\n        /* \"#utility.yul\":6534:6555   */\n      dup1\n      dup3\n      mstore\n        /* \"#utility.yul\":6591:6593   */\n      0x22\n        /* \"#utility.yul\":6571:6589   */\n      swap1\n      dup3\n      add\n        /* \"#utility.yul\":6564:6594   */\n      mstore\n        /* \"#utility.yul\":6630:6664   */\n      0x4f6e6c79206f776e65722063616e2063616c6c20746869732066756e6374696f\n        /* \"#utility.yul\":6625:6627   */\n      0x40\n        /* \"#utility.yul\":6610:6628   */\n      dup3\n      add\n        /* \"#utility.yul\":6603:6665   */\n      mstore\n      shl(0xf1, 0x3717)\n        /* \"#utility.yul\":6696:6698   */\n      0x60\n        /* \"#utility.yul\":6681:6699   */\n      dup3\n      add\n        /* \"#utility.yul\":6674:6706   */\n      mstore\n        /* \"#utility.yul\":6738:6741   */\n      0x80\n        /* \"#utility.yul\":6723:6742   */\n      add\n      swap1\n        /* \"#utility.yul\":6350:6748   */\n      jump\t// out\n        /* \"#utility.yul\":6753:6880   */\n    tag_154:\n        /* \"#utility.yul\":6814:6824   */\n      0x4e487b71\n        /* \"#utility.yul\":6809:6812   */\n      0xe0\n        /* \"#utility.yul\":6805:6825   */\n      shl\n        /* \"#utility.yul\":6802:6803   */\n      0x00\n        /* \"#utility.yul\":6795:6826   */\n      mstore\n        /* \"#utility.yul\":6845:6849   */\n      0x21\n        /* \"#utility.yul\":6842:6843   */\n      0x04\n        /* \"#utility.yul\":6835:6850   */\n      mstore\n        /* \"#utility.yul\":6869:6873   */\n      0x24\n        /* \"#utility.yul\":6866:6867   */\n      0x00\n        /* \"#utility.yul\":6859:6874   */\n      revert\n\n    auxdata: 0xa2646970667358221220237444ec2bfd8b262f25fbe3c22febda03332eab8e43a0ec4c0a050f25d5ff1764736f6c634300080c0033\n}\n",
				"bytecode": {
					"linkReferences": {},
					"object": "60806040523480156200001157600080fd5b50604051620029a9380380620029a9833981016040819052620000349162000906565b600180546001600160a01b03191633908117909155620000579084848462000085565b6200006433600062000259565b6200007133600362000458565b6200007c3362000643565b50505062000a3f565b6001600160a01b0380851660009081526002602052604090205485911615620000f55760405162461bcd60e51b815260206004820152601660248201527f4163636f756e7420616c7265616479206578697374730000000000000000000060448201526064015b60405180910390fd5b60408051608080820183526000808352602080840182905283850182905260016060808601829052865160c0810188526001600160a01b038d81168083528286018e8152838b018e90529383018c905296820186905260a082018890529585526002845296909320865181546001600160a01b0319169516949094178455915180519495948594936200018e9390850192019062000793565b5060408201518051620001ac91600284019160209091019062000793565b5060608201518051620001ca91600384019160209091019062000793565b50608082015160048201805491151560ff1990921691909117905560a09091015180516005909201805460208301516040840151606090940151151563010000000263ff0000001994151562010000029490941663ffff0000199115156101000261ff00199615159690961661ffff199093169290921794909417939093169290921717905550505050505050565b6001546001600160a01b0316331480620002d0575060405163297027d560e01b8152336004820152309063297027d590602401602060405180830381865afa158015620002aa573d6000803e3d6000fd5b505050506040513d601f19601f82011682018060405250810190620002d0919062000997565b620003185760405162461bcd60e51b8152602060048201526022602482015260008051602062002969833981519152604482015261371760f11b6064820152608401620000ec565b6001600160a01b03808316600090815260026020526040902054839116620003725760405162461bcd60e51b81526020600482015260156024820152600080516020620029898339815191526044820152606401620000ec565b6001600160a01b0383166000908152600260205260408120906005820190846003811115620003a557620003a5620009c2565b1415620003bd57805460ff1916600117815562000451565b6001846003811115620003d457620003d4620009c2565b1415620003ee57805461ff00191661010017815562000451565b6002846003811115620004055762000405620009c2565b14156200042157805462ff000019166201000017815562000451565b6003846003811115620004385762000438620009c2565b14156200045157805463ff000000191663010000001781555b5050505050565b6001546001600160a01b0316331480620004cf575060405163297027d560e01b8152336004820152309063297027d590602401602060405180830381865afa158015620004a9573d6000803e3d6000fd5b505050506040513d601f19601f82011682018060405250810190620004cf919062000997565b620005175760405162461bcd60e51b8152602060048201526022602482015260008051602062002969833981519152604482015261371760f11b6064820152608401620000ec565b6001600160a01b03808316600090815260026020526040902054839116620005715760405162461bcd60e51b81526020600482015260156024820152600080516020620029898339815191526044820152606401620000ec565b6001600160a01b0383166000908152600260205260408120906005820190846003811115620005a457620005a4620009c2565b1415620005b957805460ff1916815562000451565b6001846003811115620005d057620005d0620009c2565b1415620005e657805461ff001916815562000451565b6002846003811115620005fd57620005fd620009c2565b14156200061457805462ff00001916815562000451565b60038460038111156200062b576200062b620009c2565b14156200045157805463ff0000001916905550505050565b6001600160a01b038082166000908152600260205260409020548291166200069d5760405162461bcd60e51b81526020600482015260156024820152600080516020620029898339815191526044820152606401620000ec565b6001600160a01b03821660009081526003602052604090205460ff166200078f576001600160a01b03821660009081526002602090815260409182902060048101805460ff191660011790558251608081018452600582015460ff8181161515808452610100830482161515958401959095526201000082048116151595830195909552630100000090049093161515606084015291908062000741575080602001515b806200074e575080604001515b156200078c576001600160a01b0384166000908152600360205260408120805460ff19166001179055805490806200078683620009d8565b91905055505b50505b5050565b828054620007a19062000a02565b90600052602060002090601f016020900481019282620007c5576000855562000810565b82601f10620007e057805160ff191683800117855562000810565b8280016001018555821562000810579182015b8281111562000810578251825591602001919060010190620007f3565b506200081e92915062000822565b5090565b5b808211156200081e576000815560010162000823565b634e487b7160e01b600052604160045260246000fd5b600082601f8301126200086157600080fd5b81516001600160401b03808211156200087e576200087e62000839565b604051601f8301601f19908116603f01168101908282118183101715620008a957620008a962000839565b81604052838152602092508683858801011115620008c657600080fd5b600091505b83821015620008ea5785820183015181830184015290820190620008cb565b83821115620008fc5760008385830101525b9695505050505050565b6000806000606084860312156200091c57600080fd5b83516001600160401b03808211156200093457600080fd5b62000942878388016200084f565b945060208601519150808211156200095957600080fd5b62000967878388016200084f565b935060408601519150808211156200097e57600080fd5b506200098d868287016200084f565b9150509250925092565b600060208284031215620009aa57600080fd5b81518015158114620009bb57600080fd5b9392505050565b634e487b7160e01b600052602160045260246000fd5b6000600019821415620009fb57634e487b7160e01b600052601160045260246000fd5b5060010190565b600181811c9082168062000a1757607f821691505b6020821081141562000a3957634e487b7160e01b600052602260045260246000fd5b50919050565b611f1a8062000a4f6000396000f3fe608060405234801561001057600080fd5b50600436106100f55760003560e01c80636f77926b11610097578063d3a5059a11610066578063d3a5059a146101fa578063dee94b4a1461020d578063e8621e5914610220578063fa4d7aae1461023357600080fd5b80636f77926b1461018957806382a62137146101a95780638da5cb5b146101bc578063b74866fb146101e757600080fd5b806322faa41f116100d357806322faa41f1461014a578063247ae7a31461015b578063297027d514610163578063630a195b1461017657600080fd5b8063056909b7146100fa5780630e666e4914610122578063130cb5f014610135575b600080fd5b61010d610108366004611b04565b610246565b60405190151581526020015b60405180910390f35b61010d610130366004611b04565b610259565b610148610143366004611b04565b6104b7565b005b600054604051908152602001610119565b61014861056d565b61010d610171366004611b04565b610d51565b610148610184366004611b26565b610d5e565b61019c610197366004611b04565b610ef8565b6040516101199190611bae565b6101486101b7366004611b04565b6111e4565b6001546101cf906001600160a01b031681565b6040516001600160a01b039091168152602001610119565b6101486101f5366004611b26565b61130c565b610148610208366004611b04565b611493565b61014861021b366004611d09565b611544565b61010d61022e366004611b04565b611705565b61010d610241366004611b04565b611712565b600061025382600261171b565b92915050565b6001600160a01b038082166000908152600260209081526040808320815160c0810190925280549094168152600184018054939485949293909290840191906102a190611da2565b80601f01602080910402602001604051908101604052809291908181526020018280546102cd90611da2565b801561031a5780601f106102ef5761010080835404028352916020019161031a565b820191906000526020600020905b8154815290600101906020018083116102fd57829003601f168201915b5050505050815260200160028201805461033390611da2565b80601f016020809104026020016040519081016040528092919081815260200182805461035f90611da2565b80156103ac5780601f10610381576101008083540402835291602001916103ac565b820191906000526020600020905b81548152906001019060200180831161038f57829003601f168201915b505050505081526020016003820180546103c590611da2565b80601f01602080910402602001604051908101604052809291908181526020018280546103f190611da2565b801561043e5780601f106104135761010080835404028352916020019161043e565b820191906000526020600020905b81548152906001019060200180831161042157829003601f168201915b5050509183525050600482015460ff908116151560208084019190915260408051608081018252600590950154808416151586526101008104841615159286019290925262010000820483161515858201526301000000909104909116151560608401520152516001600160a01b031615159392505050565b6001600160a01b038082166000908152600260205260409020548291166104f95760405162461bcd60e51b81526004016104f090611ddd565b60405180910390fd5b6001600160a01b03821660009081526003602052604090205460ff1615610569576001600160a01b038216600090815260026020908152604080832060048101805460ff1990811690915560039093529083208054909216909155815490918061056283611e22565b9190505550505b5050565b600060405180610140016040528073ab8483f64d9c6d1ecf9b849ae677dd3315835cb26001600160a01b03166001600160a01b03168152602001734b20993bc481177ec7e8f571cecae8a9e22c02db6001600160a01b03166001600160a01b031681526020017378731d3ca6b7e34ac0f824c42a7cc18a495cabab6001600160a01b03166001600160a01b0316815260200173617f2e2fd72fd9d5503197092ac168c91465e7f26001600160a01b03166001600160a01b031681526020017317f6ad8ef982297579c203069c1dbffe4348c3726001600160a01b03166001600160a01b03168152602001735c6b0f7bf3e7ce046039bd8fabdfd3f9f50216786001600160a01b03166001600160a01b031681526020017303c6fced478cbbc9a4fab34ef9f40767739d1ff76001600160a01b03166001600160a01b03168152602001731ae0ea34a72d944a8c7603ffb3ec30a6669e454c6001600160a01b03166001600160a01b0316815260200173ca35b7d915458ef540ade6068dfe2f44e8fa733c6001600160a01b03166001600160a01b031681526020017314723a09acff6d2a60dcdf7aa4aff308fddc160c6001600160a01b03166001600160a01b031681525090506000604051806101400160405280604051806040016040528060048152602001635269636b60e01b81525081526020016040518060400160405280600781526020016656616e6573736160c81b815250815260200160405180604001604052806004815260200163082d8caf60e31b8152508152602001604051806040016040528060048152602001635669636960e01b8152508152602001604051806040016040528060028152602001614c7560f01b8152508152602001604051806040016040528060048152602001632537b43760e11b8152508152602001604051806040016040528060058152602001640a6c2e4c2d60db1b81525081526020016040518060400160405280600881526020016753616d616e74686160c01b8152508152602001604051806040016040528060058152602001642832ba32b960d91b81525081526020016040518060400160405280600581526020016411185d9a5960da1b815250815250905060006040518061014001604052806040518060400160405280600581526020016414185d195b60da1b8152508152602001604051806040016040528060038152602001624b696d60e81b815250815260200160405180604001604052806005815260200164213937bbb760d91b815250815260200160405180604001604052806005815260200164446176697360d81b81525081526020016040518060400160405280600881526020016726b0b93a34b732bd60c11b8152508152602001604051806040016040528060068152602001652bb4b639b7b760d11b81525081526020016040518060400160405280600681526020016547617263696160d01b8152508152602001604051806040016040528060058152602001644a6f6e657360d81b8152508152602001604051806040016040528060078152602001662530b1b5b9b7b760c91b8152508152602001604051806040016040528060058152602001640a6dad2e8d60db1b81525081525090506000604051806101400160405280604051806040016040528060128152602001715269636b2e506174656c40706f722e636f6d60701b81525081526020016040518060400160405280601381526020017256616e657373612e4b696d40706f722e636f6d60681b815250815260200160405180604001604052806012815260200171416c65782e42726f776e40706f722e636f6d60701b815250815260200160405180604001604052806012815260200171566963692e446176697340706f722e636f6d60701b8152508152602001604051806040016040528060138152602001724c752e4d617274696e657a40706f722e636f6d60681b8152508152602001604051806040016040528060138152602001724a6f686e2e57696c736f6e40706f722e636f6d60681b81525081526020016040518060400160405280601481526020017353617261682e47617263696140706f722e636f6d60601b81525081526020016040518060400160405280601681526020017553616d616e7468612e4a6f6e657340706f722e636f6d60501b81525081526020016040518060400160405280601581526020017450657465722e4a61636b736f6e40706f722e636f6d60581b81525081526020016040518060400160405280601381526020017244617669642e536d69746840706f722e636f6d60681b815250815250905060005b600a811015610d4a5760008582600a8110610c2957610c29611e39565b6020020151604051630e666e4960e01b81526001600160a01b03821660048201529091503090630e666e4990602401602060405180830381865afa158015610c75573d6000803e3d6000fd5b505050506040513d601f19601f82011682018060405250810190610c999190611e4f565b610d3757610ceb818684600a8110610cb357610cb3611e39565b60200201518685600a8110610cca57610cca611e39565b60200201518686600a8110610ce157610ce1611e39565b6020020151611544565b610cf6816002610d5e565b610d0181600361130c565b6002821015610d1a57610d15816000610d5e565b610d2e565b6004821015610d2e57610d2e816001610d5e565b610d37816111e4565b5080610d4281611e71565b915050610c0c565b5050505050565b600061025382600061171b565b6001546001600160a01b0316331480610dd1575060405163297027d560e01b8152336004820152309063297027d590602401602060405180830381865afa158015610dad573d6000803e3d6000fd5b505050506040513d601f19601f82011682018060405250810190610dd19190611e4f565b610ded5760405162461bcd60e51b81526004016104f090611e8c565b6001600160a01b03808316600090815260026020526040902054839116610e265760405162461bcd60e51b81526004016104f090611ddd565b6001600160a01b0383166000908152600260205260408120906005820190846003811115610e5657610e56611ece565b1415610e6c57805460ff19166001178155610d4a565b6001846003811115610e8057610e80611ece565b1415610e9857805461ff001916610100178155610d4a565b6002846003811115610eac57610eac611ece565b1415610ec657805462ff0000191662010000178155610d4a565b6003846003811115610eda57610eda611ece565b1415610d4a57805463ff000000191663010000001781555050505050565b610f4a6040805160c0810182526000808252606060208084018290528385018290528184018290526080808501849052855190810186528381529081018390529384018290528301529060a082015290565b6001600160a01b038083166000908152600260209081526040808320815160c0810190925280549094168152600184018054939491939192840191610f8e90611da2565b80601f0160208091040260200160405190810160405280929190818152602001828054610fba90611da2565b80156110075780601f10610fdc57610100808354040283529160200191611007565b820191906000526020600020905b815481529060010190602001808311610fea57829003601f168201915b5050505050815260200160028201805461102090611da2565b80601f016020809104026020016040519081016040528092919081815260200182805461104c90611da2565b80156110995780601f1061106e57610100808354040283529160200191611099565b820191906000526020600020905b81548152906001019060200180831161107c57829003601f168201915b505050505081526020016003820180546110b290611da2565b80601f01602080910402602001604051908101604052809291908181526020018280546110de90611da2565b801561112b5780601f106111005761010080835404028352916020019161112b565b820191906000526020600020905b81548152906001019060200180831161110e57829003601f168201915b5050509183525050600482015460ff90811615156020808401919091526040805160808101825260059095015480841615158652610100810484161515928601929092526201000082048316151585820152630100000090910490911615156060840152015280519091506001600160a01b0316156111aa5792915050565b60405162461bcd60e51b815260206004820152600f60248201526e55736572206e6f7420666f756e642160881b60448201526064016104f0565b6001600160a01b0380821660009081526002602052604090205482911661121d5760405162461bcd60e51b81526004016104f090611ddd565b6001600160a01b03821660009081526003602052604090205460ff16610569576001600160a01b03821660009081526002602090815260409182902060048101805460ff191660011790558251608081018452600582015460ff818116151580845261010083048216151595840195909552620100008204811615159583019590955263010000009004909316151560608401529190806112bf575080602001515b806112cb575080604001515b15611306576001600160a01b0384166000908152600360205260408120805460ff191660011790558054908061130083611e71565b91905055505b50505050565b6001546001600160a01b031633148061137f575060405163297027d560e01b8152336004820152309063297027d590602401602060405180830381865afa15801561135b573d6000803e3d6000fd5b505050506040513d601f19601f8201168201806040525081019061137f9190611e4f565b61139b5760405162461bcd60e51b81526004016104f090611e8c565b6001600160a01b038083166000908152600260205260409020548391166113d45760405162461bcd60e51b81526004016104f090611ddd565b6001600160a01b038316600090815260026020526040812090600582019084600381111561140457611404611ece565b141561141757805460ff19168155610d4a565b600184600381111561142b5761142b611ece565b141561143f57805461ff0019168155610d4a565b600284600381111561145357611453611ece565b141561146857805462ff000019168155610d4a565b600384600381111561147c5761147c611ece565b1415610d4a57805463ff0000001916905550505050565b6001600160a01b038082166000908152600260205260409020548291166114cc5760405162461bcd60e51b81526004016104f090611ddd565b6114d5826104b7565b6001600160a01b038216600090815260026020526040812080546001600160a01b0319168155906115096001830182611a12565b611517600283016000611a12565b611525600383016000611a12565b5060048101805460ff19169055600501805463ffffffff191690555050565b6001600160a01b03808516600090815260026020526040902054859116156115a75760405162461bcd60e51b81526020600482015260166024820152754163636f756e7420616c72656164792065786973747360501b60448201526064016104f0565b60408051608080820183526000808352602080840182905283850182905260016060808601829052865160c0810188526001600160a01b038d81168083528286018e8152838b018e90529383018c905296820186905260a082018890529585526002845296909320865181546001600160a01b03191695169490941784559151805194959485949361163e93908501920190611a4f565b506040820151805161165a916002840191602090910190611a4f565b5060608201518051611676916003840191602090910190611a4f565b50608082015160048201805491151560ff1990921691909117905560a09091015180516005909201805460208301516040840151606090940151151563010000000263ff0000001994151562010000029490941663ffff0000199115156101000261ff00199615159690961661ffff199093169290921794909417939093169290921717905550505050505050565b600061025382600361171b565b60006102538260015b6001600160a01b038083166000908152600260209081526040808320815160c08101909252805490941681526001840180549394859492939092908401919061176390611da2565b80601f016020809104026020016040519081016040528092919081815260200182805461178f90611da2565b80156117dc5780601f106117b1576101008083540402835291602001916117dc565b820191906000526020600020905b8154815290600101906020018083116117bf57829003601f168201915b505050505081526020016002820180546117f590611da2565b80601f016020809104026020016040519081016040528092919081815260200182805461182190611da2565b801561186e5780601f106118435761010080835404028352916020019161186e565b820191906000526020600020905b81548152906001019060200180831161185157829003601f168201915b5050505050815260200160038201805461188790611da2565b80601f01602080910402602001604051908101604052809291908181526020018280546118b390611da2565b80156119005780601f106118d557610100808354040283529160200191611900565b820191906000526020600020905b8154815290600101906020018083116118e357829003601f168201915b5050509183525050600482015460ff90811615156020808401919091526040805160808101825260059095015480841615158652610100810484161515928601929092526201000082048316151585820152630100000090910490911615156060840152015260a0810151909150600084600381111561198257611982611ece565b1415611992575191506102539050565b60018460038111156119a6576119a6611ece565b14156119b9576020015191506102539050565b60028460038111156119cd576119cd611ece565b14156119e0576040015191506102539050565b60038460038111156119f4576119f4611ece565b1415611a07576060015191506102539050565b506000949350505050565b508054611a1e90611da2565b6000825580601f10611a2e575050565b601f016020900490600052602060002090810190611a4c9190611ad3565b50565b828054611a5b90611da2565b90600052602060002090601f016020900481019282611a7d5760008555611ac3565b82601f10611a9657805160ff1916838001178555611ac3565b82800160010185558215611ac3579182015b82811115611ac3578251825591602001919060010190611aa8565b50611acf929150611ad3565b5090565b5b80821115611acf5760008155600101611ad4565b80356001600160a01b0381168114611aff57600080fd5b919050565b600060208284031215611b1657600080fd5b611b1f82611ae8565b9392505050565b60008060408385031215611b3957600080fd5b611b4283611ae8565b9150602083013560048110611b5657600080fd5b809150509250929050565b6000815180845260005b81811015611b8757602081850181015186830182015201611b6b565b81811115611b99576000602083870101525b50601f01601f19169290920160200192915050565b602080825282516001600160a01b0316828201528201516101206040830181905260009190611be1610140850183611b61565b91506040850151601f1980868503016060870152611bff8483611b61565b9350606087015191508086850301608087015250611c1d8382611b61565b6080870151151560a087810191909152909601518051151560c08701526020810151151560e0870152604081015115156101008701526060015115159190940152509192915050565b634e487b7160e01b600052604160045260246000fd5b600082601f830112611c8d57600080fd5b813567ffffffffffffffff80821115611ca857611ca8611c66565b604051601f8301601f19908116603f01168101908282118183101715611cd057611cd0611c66565b81604052838152866020858801011115611ce957600080fd5b836020870160208301376000602085830101528094505050505092915050565b60008060008060808587031215611d1f57600080fd5b611d2885611ae8565b9350602085013567ffffffffffffffff80821115611d4557600080fd5b611d5188838901611c7c565b94506040870135915080821115611d6757600080fd5b611d7388838901611c7c565b93506060870135915080821115611d8957600080fd5b50611d9687828801611c7c565b91505092959194509250565b600181811c90821680611db657607f821691505b60208210811415611dd757634e487b7160e01b600052602260045260246000fd5b50919050565b6020808252601590820152741058d8dbdd5b9d08191bd95cdb89dd08195e1a5cdd605a1b604082015260600190565b634e487b7160e01b600052601160045260246000fd5b600081611e3157611e31611e0c565b506000190190565b634e487b7160e01b600052603260045260246000fd5b600060208284031215611e6157600080fd5b81518015158114611b1f57600080fd5b6000600019821415611e8557611e85611e0c565b5060010190565b60208082526022908201527f4f6e6c79206f776e65722063616e2063616c6c20746869732066756e6374696f604082015261371760f11b606082015260800190565b634e487b7160e01b600052602160045260246000fdfea2646970667358221220237444ec2bfd8b262f25fbe3c22febda03332eab8e43a0ec4c0a050f25d5ff1764736f6c634300080c00334f6e6c79206f776e65722063616e2063616c6c20746869732066756e6374696f4163636f756e7420646f65736e27742065786973740000000000000000000000",
					"opcodes": "PUSH1 0x80 PUSH1 0x40 MSTORE CALLVALUE DUP1 ISZERO PUSH3 0x11 JUMPI PUSH1 0x0 DUP1 REVERT JUMPDEST POP PUSH1 0x40 MLOAD PUSH3 0x29A9 CODESIZE SUB DUP1 PUSH3 0x29A9 DUP4 CODECOPY DUP2 ADD PUSH1 0x40 DUP2 SWAP1 MSTORE PUSH3 0x34 SWAP2 PUSH3 0x906 JUMP JUMPDEST PUSH1 0x1 DUP1 SLOAD PUSH1 0x1 PUSH1 0x1 PUSH1 0xA0 SHL SUB NOT AND CALLER SWAP1 DUP2 OR SWAP1 SWAP2 SSTORE PUSH3 0x57 SWAP1 DUP5 DUP5 DUP5 PUSH3 0x85 JUMP JUMPDEST PUSH3 0x64 CALLER PUSH1 0x0 PUSH3 0x259 JUMP JUMPDEST PUSH3 0x71 CALLER PUSH1 0x3 PUSH3 0x458 JUMP JUMPDEST PUSH3 0x7C CALLER PUSH3 0x643 JUMP JUMPDEST POP POP POP PUSH3 0xA3F JUMP JUMPDEST PUSH1 0x1 PUSH1 0x1 PUSH1 0xA0 SHL SUB DUP1 DUP6 AND PUSH1 0x0 SWAP1 DUP2 MSTORE PUSH1 0x2 PUSH1 0x20 MSTORE PUSH1 0x40 SWAP1 KECCAK256 SLOAD DUP6 SWAP2 AND ISZERO PUSH3 0xF5 JUMPI PUSH1 0x40 MLOAD PUSH3 0x461BCD PUSH1 0xE5 SHL DUP2 MSTORE PUSH1 0x20 PUSH1 0x4 DUP3 ADD MSTORE PUSH1 0x16 PUSH1 0x24 DUP3 ADD MSTORE PUSH32 0x4163636F756E7420616C72656164792065786973747300000000000000000000 PUSH1 0x44 DUP3 ADD MSTORE PUSH1 0x64 ADD JUMPDEST PUSH1 0x40 MLOAD DUP1 SWAP2 SUB SWAP1 REVERT JUMPDEST PUSH1 0x40 DUP1 MLOAD PUSH1 0x80 DUP1 DUP3 ADD DUP4 MSTORE PUSH1 0x0 DUP1 DUP4 MSTORE PUSH1 0x20 DUP1 DUP5 ADD DUP3 SWAP1 MSTORE DUP4 DUP6 ADD DUP3 SWAP1 MSTORE PUSH1 0x1 PUSH1 0x60 DUP1 DUP7 ADD DUP3 SWAP1 MSTORE DUP7 MLOAD PUSH1 0xC0 DUP2 ADD DUP9 MSTORE PUSH1 0x1 PUSH1 0x1 PUSH1 0xA0 SHL SUB DUP14 DUP2 AND DUP1 DUP4 MSTORE DUP3 DUP7 ADD DUP15 DUP2 MSTORE DUP4 DUP12 ADD DUP15 SWAP1 MSTORE SWAP4 DUP4 ADD DUP13 SWAP1 MSTORE SWAP7 DUP3 ADD DUP7 SWAP1 MSTORE PUSH1 0xA0 DUP3 ADD DUP9 SWAP1 MSTORE SWAP6 DUP6 MSTORE PUSH1 0x2 DUP5 MSTORE SWAP7 SWAP1 SWAP4 KECCAK256 DUP7 MLOAD DUP2 SLOAD PUSH1 0x1 PUSH1 0x1 PUSH1 0xA0 SHL SUB NOT AND SWAP6 AND SWAP5 SWAP1 SWAP5 OR DUP5 SSTORE SWAP2 MLOAD DUP1 MLOAD SWAP5 SWAP6 SWAP5 DUP6 SWAP5 SWAP4 PUSH3 0x18E SWAP4 SWAP1 DUP6 ADD SWAP3 ADD SWAP1 PUSH3 0x793 JUMP JUMPDEST POP PUSH1 0x40 DUP3 ADD MLOAD DUP1 MLOAD PUSH3 0x1AC SWAP2 PUSH1 0x2 DUP5 ADD SWAP2 PUSH1 0x20 SWAP1 SWAP2 ADD SWAP1 PUSH3 0x793 JUMP JUMPDEST POP PUSH1 0x60 DUP3 ADD MLOAD DUP1 MLOAD PUSH3 0x1CA SWAP2 PUSH1 0x3 DUP5 ADD SWAP2 PUSH1 0x20 SWAP1 SWAP2 ADD SWAP1 PUSH3 0x793 JUMP JUMPDEST POP PUSH1 0x80 DUP3 ADD MLOAD PUSH1 0x4 DUP3 ADD DUP1 SLOAD SWAP2 ISZERO ISZERO PUSH1 0xFF NOT SWAP1 SWAP3 AND SWAP2 SWAP1 SWAP2 OR SWAP1 SSTORE PUSH1 0xA0 SWAP1 SWAP2 ADD MLOAD DUP1 MLOAD PUSH1 0x5 SWAP1 SWAP3 ADD DUP1 SLOAD PUSH1 0x20 DUP4 ADD MLOAD PUSH1 0x40 DUP5 ADD MLOAD PUSH1 0x60 SWAP1 SWAP5 ADD MLOAD ISZERO ISZERO PUSH4 0x1000000 MUL PUSH4 0xFF000000 NOT SWAP5 ISZERO ISZERO PUSH3 0x10000 MUL SWAP5 SWAP1 SWAP5 AND PUSH4 0xFFFF0000 NOT SWAP2 ISZERO ISZERO PUSH2 0x100 MUL PUSH2 0xFF00 NOT SWAP7 ISZERO ISZERO SWAP7 SWAP1 SWAP7 AND PUSH2 0xFFFF NOT SWAP1 SWAP4 AND SWAP3 SWAP1 SWAP3 OR SWAP5 SWAP1 SWAP5 OR SWAP4 SWAP1 SWAP4 AND SWAP3 SWAP1 SWAP3 OR OR SWAP1 SSTORE POP POP POP POP POP POP POP JUMP JUMPDEST PUSH1 0x1 SLOAD PUSH1 0x1 PUSH1 0x1 PUSH1 0xA0 SHL SUB AND CALLER EQ DUP1 PUSH3 0x2D0 JUMPI POP PUSH1 0x40 MLOAD PUSH4 0x297027D5 PUSH1 0xE0 SHL DUP2 MSTORE CALLER PUSH1 0x4 DUP3 ADD MSTORE ADDRESS SWAP1 PUSH4 0x297027D5 SWAP1 PUSH1 0x24 ADD PUSH1 0x20 PUSH1 0x40 MLOAD DUP1 DUP4 SUB DUP2 DUP7 GAS STATICCALL ISZERO DUP1 ISZERO PUSH3 0x2AA JUMPI RETURNDATASIZE PUSH1 0x0 DUP1 RETURNDATACOPY RETURNDATASIZE PUSH1 0x0 REVERT JUMPDEST POP POP POP POP PUSH1 0x40 MLOAD RETURNDATASIZE PUSH1 0x1F NOT PUSH1 0x1F DUP3 ADD AND DUP3 ADD DUP1 PUSH1 0x40 MSTORE POP DUP2 ADD SWAP1 PUSH3 0x2D0 SWAP2 SWAP1 PUSH3 0x997 JUMP JUMPDEST PUSH3 0x318 JUMPI PUSH1 0x40 MLOAD PUSH3 0x461BCD PUSH1 0xE5 SHL DUP2 MSTORE PUSH1 0x20 PUSH1 0x4 DUP3 ADD MSTORE PUSH1 0x22 PUSH1 0x24 DUP3 ADD MSTORE PUSH1 0x0 DUP1 MLOAD PUSH1 0x20 PUSH3 0x2969 DUP4 CODECOPY DUP2 MLOAD SWAP2 MSTORE PUSH1 0x44 DUP3 ADD MSTORE PUSH2 0x3717 PUSH1 0xF1 SHL PUSH1 0x64 DUP3 ADD MSTORE PUSH1 0x84 ADD PUSH3 0xEC JUMP JUMPDEST PUSH1 0x1 PUSH1 0x1 PUSH1 0xA0 SHL SUB DUP1 DUP4 AND PUSH1 0x0 SWAP1 DUP2 MSTORE PUSH1 0x2 PUSH1 0x20 MSTORE PUSH1 0x40 SWAP1 KECCAK256 SLOAD DUP4 SWAP2 AND PUSH3 0x372 JUMPI PUSH1 0x40 MLOAD PUSH3 0x461BCD PUSH1 0xE5 SHL DUP2 MSTORE PUSH1 0x20 PUSH1 0x4 DUP3 ADD MSTORE PUSH1 0x15 PUSH1 0x24 DUP3 ADD MSTORE PUSH1 0x0 DUP1 MLOAD PUSH1 0x20 PUSH3 0x2989 DUP4 CODECOPY DUP2 MLOAD SWAP2 MSTORE PUSH1 0x44 DUP3 ADD MSTORE PUSH1 0x64 ADD PUSH3 0xEC JUMP JUMPDEST PUSH1 0x1 PUSH1 0x1 PUSH1 0xA0 SHL SUB DUP4 AND PUSH1 0x0 SWAP1 DUP2 MSTORE PUSH1 0x2 PUSH1 0x20 MSTORE PUSH1 0x40 DUP2 KECCAK256 SWAP1 PUSH1 0x5 DUP3 ADD SWAP1 DUP5 PUSH1 0x3 DUP2 GT ISZERO PUSH3 0x3A5 JUMPI PUSH3 0x3A5 PUSH3 0x9C2 JUMP JUMPDEST EQ ISZERO PUSH3 0x3BD JUMPI DUP1 SLOAD PUSH1 0xFF NOT AND PUSH1 0x1 OR DUP2 SSTORE PUSH3 0x451 JUMP JUMPDEST PUSH1 0x1 DUP5 PUSH1 0x3 DUP2 GT ISZERO PUSH3 0x3D4 JUMPI PUSH3 0x3D4 PUSH3 0x9C2 JUMP JUMPDEST EQ ISZERO PUSH3 0x3EE JUMPI DUP1 SLOAD PUSH2 0xFF00 NOT AND PUSH2 0x100 OR DUP2 SSTORE PUSH3 0x451 JUMP JUMPDEST PUSH1 0x2 DUP5 PUSH1 0x3 DUP2 GT ISZERO PUSH3 0x405 JUMPI PUSH3 0x405 PUSH3 0x9C2 JUMP JUMPDEST EQ ISZERO PUSH3 0x421 JUMPI DUP1 SLOAD PUSH3 0xFF0000 NOT AND PUSH3 0x10000 OR DUP2 SSTORE PUSH3 0x451 JUMP JUMPDEST PUSH1 0x3 DUP5 PUSH1 0x3 DUP2 GT ISZERO PUSH3 0x438 JUMPI PUSH3 0x438 PUSH3 0x9C2 JUMP JUMPDEST EQ ISZERO PUSH3 0x451 JUMPI DUP1 SLOAD PUSH4 0xFF000000 NOT AND PUSH4 0x1000000 OR DUP2 SSTORE JUMPDEST POP POP POP POP POP JUMP JUMPDEST PUSH1 0x1 SLOAD PUSH1 0x1 PUSH1 0x1 PUSH1 0xA0 SHL SUB AND CALLER EQ DUP1 PUSH3 0x4CF JUMPI POP PUSH1 0x40 MLOAD PUSH4 0x297027D5 PUSH1 0xE0 SHL DUP2 MSTORE CALLER PUSH1 0x4 DUP3 ADD MSTORE ADDRESS SWAP1 PUSH4 0x297027D5 SWAP1 PUSH1 0x24 ADD PUSH1 0x20 PUSH1 0x40 MLOAD DUP1 DUP4 SUB DUP2 DUP7 GAS STATICCALL ISZERO DUP1 ISZERO PUSH3 0x4A9 JUMPI RETURNDATASIZE PUSH1 0x0 DUP1 RETURNDATACOPY RETURNDATASIZE PUSH1 0x0 REVERT JUMPDEST POP POP POP POP PUSH1 0x40 MLOAD RETURNDATASIZE PUSH1 0x1F NOT PUSH1 0x1F DUP3 ADD AND DUP3 ADD DUP1 PUSH1 0x40 MSTORE POP DUP2 ADD SWAP1 PUSH3 0x4CF SWAP2 SWAP1 PUSH3 0x997 JUMP JUMPDEST PUSH3 0x517 JUMPI PUSH1 0x40 MLOAD PUSH3 0x461BCD PUSH1 0xE5 SHL DUP2 MSTORE PUSH1 0x20 PUSH1 0x4 DUP3 ADD MSTORE PUSH1 0x22 PUSH1 0x24 DUP3 ADD MSTORE PUSH1 0x0 DUP1 MLOAD PUSH1 0x20 PUSH3 0x2969 DUP4 CODECOPY DUP2 MLOAD SWAP2 MSTORE PUSH1 0x44 DUP3 ADD MSTORE PUSH2 0x3717 PUSH1 0xF1 SHL PUSH1 0x64 DUP3 ADD MSTORE PUSH1 0x84 ADD PUSH3 0xEC JUMP JUMPDEST PUSH1 0x1 PUSH1 0x1 PUSH1 0xA0 SHL SUB DUP1 DUP4 AND PUSH1 0x0 SWAP1 DUP2 MSTORE PUSH1 0x2 PUSH1 0x20 MSTORE PUSH1 0x40 SWAP1 KECCAK256 SLOAD DUP4 SWAP2 AND PUSH3 0x571 JUMPI PUSH1 0x40 MLOAD PUSH3 0x461BCD PUSH1 0xE5 SHL DUP2 MSTORE PUSH1 0x20 PUSH1 0x4 DUP3 ADD MSTORE PUSH1 0x15 PUSH1 0x24 DUP3 ADD MSTORE PUSH1 0x0 DUP1 MLOAD PUSH1 0x20 PUSH3 0x2989 DUP4 CODECOPY DUP2 MLOAD SWAP2 MSTORE PUSH1 0x44 DUP3 ADD MSTORE PUSH1 0x64 ADD PUSH3 0xEC JUMP JUMPDEST PUSH1 0x1 PUSH1 0x1 PUSH1 0xA0 SHL SUB DUP4 AND PUSH1 0x0 SWAP1 DUP2 MSTORE PUSH1 0x2 PUSH1 0x20 MSTORE PUSH1 0x40 DUP2 KECCAK256 SWAP1 PUSH1 0x5 DUP3 ADD SWAP1 DUP5 PUSH1 0x3 DUP2 GT ISZERO PUSH3 0x5A4 JUMPI PUSH3 0x5A4 PUSH3 0x9C2 JUMP JUMPDEST EQ ISZERO PUSH3 0x5B9 JUMPI DUP1 SLOAD PUSH1 0xFF NOT AND DUP2 SSTORE PUSH3 0x451 JUMP JUMPDEST PUSH1 0x1 DUP5 PUSH1 0x3 DUP2 GT ISZERO PUSH3 0x5D0 JUMPI PUSH3 0x5D0 PUSH3 0x9C2 JUMP JUMPDEST EQ ISZERO PUSH3 0x5E6 JUMPI DUP1 SLOAD PUSH2 0xFF00 NOT AND DUP2 SSTORE PUSH3 0x451 JUMP JUMPDEST PUSH1 0x2 DUP5 PUSH1 0x3 DUP2 GT ISZERO PUSH3 0x5FD JUMPI PUSH3 0x5FD PUSH3 0x9C2 JUMP JUMPDEST EQ ISZERO PUSH3 0x614 JUMPI DUP1 SLOAD PUSH3 0xFF0000 NOT AND DUP2 SSTORE PUSH3 0x451 JUMP JUMPDEST PUSH1 0x3 DUP5 PUSH1 0x3 DUP2 GT ISZERO PUSH3 0x62B JUMPI PUSH3 0x62B PUSH3 0x9C2 JUMP JUMPDEST EQ ISZERO PUSH3 0x451 JUMPI DUP1 SLOAD PUSH4 0xFF000000 NOT AND SWAP1 SSTORE POP POP POP POP JUMP JUMPDEST PUSH1 0x1 PUSH1 0x1 PUSH1 0xA0 SHL SUB DUP1 DUP3 AND PUSH1 0x0 SWAP1 DUP2 MSTORE PUSH1 0x2 PUSH1 0x20 MSTORE PUSH1 0x40 SWAP1 KECCAK256 SLOAD DUP3 SWAP2 AND PUSH3 0x69D JUMPI PUSH1 0x40 MLOAD PUSH3 0x461BCD PUSH1 0xE5 SHL DUP2 MSTORE PUSH1 0x20 PUSH1 0x4 DUP3 ADD MSTORE PUSH1 0x15 PUSH1 0x24 DUP3 ADD MSTORE PUSH1 0x0 DUP1 MLOAD PUSH1 0x20 PUSH3 0x2989 DUP4 CODECOPY DUP2 MLOAD SWAP2 MSTORE PUSH1 0x44 DUP3 ADD MSTORE PUSH1 0x64 ADD PUSH3 0xEC JUMP JUMPDEST PUSH1 0x1 PUSH1 0x1 PUSH1 0xA0 SHL SUB DUP3 AND PUSH1 0x0 SWAP1 DUP2 MSTORE PUSH1 0x3 PUSH1 0x20 MSTORE PUSH1 0x40 SWAP1 KECCAK256 SLOAD PUSH1 0xFF AND PUSH3 0x78F JUMPI PUSH1 0x1 PUSH1 0x1 PUSH1 0xA0 SHL SUB DUP3 AND PUSH1 0x0 SWAP1 DUP2 MSTORE PUSH1 0x2 PUSH1 0x20 SWAP1 DUP2 MSTORE PUSH1 0x40 SWAP2 DUP3 SWAP1 KECCAK256 PUSH1 0x4 DUP2 ADD DUP1 SLOAD PUSH1 0xFF NOT AND PUSH1 0x1 OR SWAP1 SSTORE DUP3 MLOAD PUSH1 0x80 DUP2 ADD DUP5 MSTORE PUSH1 0x5 DUP3 ADD SLOAD PUSH1 0xFF DUP2 DUP2 AND ISZERO ISZERO DUP1 DUP5 MSTORE PUSH2 0x100 DUP4 DIV DUP3 AND ISZERO ISZERO SWAP6 DUP5 ADD SWAP6 SWAP1 SWAP6 MSTORE PUSH3 0x10000 DUP3 DIV DUP2 AND ISZERO ISZERO SWAP6 DUP4 ADD SWAP6 SWAP1 SWAP6 MSTORE PUSH4 0x1000000 SWAP1 DIV SWAP1 SWAP4 AND ISZERO ISZERO PUSH1 0x60 DUP5 ADD MSTORE SWAP2 SWAP1 DUP1 PUSH3 0x741 JUMPI POP DUP1 PUSH1 0x20 ADD MLOAD JUMPDEST DUP1 PUSH3 0x74E JUMPI POP DUP1 PUSH1 0x40 ADD MLOAD JUMPDEST ISZERO PUSH3 0x78C JUMPI PUSH1 0x1 PUSH1 0x1 PUSH1 0xA0 SHL SUB DUP5 AND PUSH1 0x0 SWAP1 DUP2 MSTORE PUSH1 0x3 PUSH1 0x20 MSTORE PUSH1 0x40 DUP2 KECCAK256 DUP1 SLOAD PUSH1 0xFF NOT AND PUSH1 0x1 OR SWAP1 SSTORE DUP1 SLOAD SWAP1 DUP1 PUSH3 0x786 DUP4 PUSH3 0x9D8 JUMP JUMPDEST SWAP2 SWAP1 POP SSTORE POP JUMPDEST POP POP JUMPDEST POP POP JUMP JUMPDEST DUP3 DUP1 SLOAD PUSH3 0x7A1 SWAP1 PUSH3 0xA02 JUMP JUMPDEST SWAP1 PUSH1 0x0 MSTORE PUSH1 0x20 PUSH1 0x0 KECCAK256 SWAP1 PUSH1 0x1F ADD PUSH1 0x20 SWAP1 DIV DUP2 ADD SWAP3 DUP3 PUSH3 0x7C5 JUMPI PUSH1 0x0 DUP6 SSTORE PUSH3 0x810 JUMP JUMPDEST DUP3 PUSH1 0x1F LT PUSH3 0x7E0 JUMPI DUP1 MLOAD PUSH1 0xFF NOT AND DUP4 DUP1 ADD OR DUP6 SSTORE PUSH3 0x810 JUMP JUMPDEST DUP3 DUP1 ADD PUSH1 0x1 ADD DUP6 SSTORE DUP3 ISZERO PUSH3 0x810 JUMPI SWAP2 DUP3 ADD JUMPDEST DUP3 DUP2 GT ISZERO PUSH3 0x810 JUMPI DUP3 MLOAD DUP3 SSTORE SWAP2 PUSH1 0x20 ADD SWAP2 SWAP1 PUSH1 0x1 ADD SWAP1 PUSH3 0x7F3 JUMP JUMPDEST POP PUSH3 0x81E SWAP3 SWAP2 POP PUSH3 0x822 JUMP JUMPDEST POP SWAP1 JUMP JUMPDEST JUMPDEST DUP1 DUP3 GT ISZERO PUSH3 0x81E JUMPI PUSH1 0x0 DUP2 SSTORE PUSH1 0x1 ADD PUSH3 0x823 JUMP JUMPDEST PUSH4 0x4E487B71 PUSH1 0xE0 SHL PUSH1 0x0 MSTORE PUSH1 0x41 PUSH1 0x4 MSTORE PUSH1 0x24 PUSH1 0x0 REVERT JUMPDEST PUSH1 0x0 DUP3 PUSH1 0x1F DUP4 ADD SLT PUSH3 0x861 JUMPI PUSH1 0x0 DUP1 REVERT JUMPDEST DUP2 MLOAD PUSH1 0x1 PUSH1 0x1 PUSH1 0x40 SHL SUB DUP1 DUP3 GT ISZERO PUSH3 0x87E JUMPI PUSH3 0x87E PUSH3 0x839 JUMP JUMPDEST PUSH1 0x40 MLOAD PUSH1 0x1F DUP4 ADD PUSH1 0x1F NOT SWAP1 DUP2 AND PUSH1 0x3F ADD AND DUP2 ADD SWAP1 DUP3 DUP3 GT DUP2 DUP4 LT OR ISZERO PUSH3 0x8A9 JUMPI PUSH3 0x8A9 PUSH3 0x839 JUMP JUMPDEST DUP2 PUSH1 0x40 MSTORE DUP4 DUP2 MSTORE PUSH1 0x20 SWAP3 POP DUP7 DUP4 DUP6 DUP9 ADD ADD GT ISZERO PUSH3 0x8C6 JUMPI PUSH1 0x0 DUP1 REVERT JUMPDEST PUSH1 0x0 SWAP2 POP JUMPDEST DUP4 DUP3 LT ISZERO PUSH3 0x8EA JUMPI DUP6 DUP3 ADD DUP4 ADD MLOAD DUP2 DUP4 ADD DUP5 ADD MSTORE SWAP1 DUP3 ADD SWAP1 PUSH3 0x8CB JUMP JUMPDEST DUP4 DUP3 GT ISZERO PUSH3 0x8FC JUMPI PUSH1 0x0 DUP4 DUP6 DUP4 ADD ADD MSTORE JUMPDEST SWAP7 SWAP6 POP POP POP POP POP POP JUMP JUMPDEST PUSH1 0x0 DUP1 PUSH1 0x0 PUSH1 0x60 DUP5 DUP7 SUB SLT ISZERO PUSH3 0x91C JUMPI PUSH1 0x0 DUP1 REVERT JUMPDEST DUP4 MLOAD PUSH1 0x1 PUSH1 0x1 PUSH1 0x40 SHL SUB DUP1 DUP3 GT ISZERO PUSH3 0x934 JUMPI PUSH1 0x0 DUP1 REVERT JUMPDEST PUSH3 0x942 DUP8 DUP4 DUP9 ADD PUSH3 0x84F JUMP JUMPDEST SWAP5 POP PUSH1 0x20 DUP7 ADD MLOAD SWAP2 POP DUP1 DUP3 GT ISZERO PUSH3 0x959 JUMPI PUSH1 0x0 DUP1 REVERT JUMPDEST PUSH3 0x967 DUP8 DUP4 DUP9 ADD PUSH3 0x84F JUMP JUMPDEST SWAP4 POP PUSH1 0x40 DUP7 ADD MLOAD SWAP2 POP DUP1 DUP3 GT ISZERO PUSH3 0x97E JUMPI PUSH1 0x0 DUP1 REVERT JUMPDEST POP PUSH3 0x98D DUP7 DUP3 DUP8 ADD PUSH3 0x84F JUMP JUMPDEST SWAP2 POP POP SWAP3 POP SWAP3 POP SWAP3 JUMP JUMPDEST PUSH1 0x0 PUSH1 0x20 DUP3 DUP5 SUB SLT ISZERO PUSH3 0x9AA JUMPI PUSH1 0x0 DUP1 REVERT JUMPDEST DUP2 MLOAD DUP1 ISZERO ISZERO DUP2 EQ PUSH3 0x9BB JUMPI PUSH1 0x0 DUP1 REVERT JUMPDEST SWAP4 SWAP3 POP POP POP JUMP JUMPDEST PUSH4 0x4E487B71 PUSH1 0xE0 SHL PUSH1 0x0 MSTORE PUSH1 0x21 PUSH1 0x4 MSTORE PUSH1 0x24 PUSH1 0x0 REVERT JUMPDEST PUSH1 0x0 PUSH1 0x0 NOT DUP3 EQ ISZERO PUSH3 0x9FB JUMPI PUSH4 0x4E487B71 PUSH1 0xE0 SHL PUSH1 0x0 MSTORE PUSH1 0x11 PUSH1 0x4 MSTORE PUSH1 0x24 PUSH1 0x0 REVERT JUMPDEST POP PUSH1 0x1 ADD SWAP1 JUMP JUMPDEST PUSH1 0x1 DUP2 DUP2 SHR SWAP1 DUP3 AND DUP1 PUSH3 0xA17 JUMPI PUSH1 0x7F DUP3 AND SWAP2 POP JUMPDEST PUSH1 0x20 DUP3 LT DUP2 EQ ISZERO PUSH3 0xA39 JUMPI PUSH4 0x4E487B71 PUSH1 0xE0 SHL PUSH1 0x0 MSTORE PUSH1 0x22 PUSH1 0x4 MSTORE PUSH1 0x24 PUSH1 0x0 REVERT JUMPDEST POP SWAP2 SWAP1 POP JUMP JUMPDEST PUSH2 0x1F1A DUP1 PUSH3 0xA4F PUSH1 0x0 CODECOPY PUSH1 0x0 RETURN INVALID PUSH1 0x80 PUSH1 0x40 MSTORE CALLVALUE DUP1 ISZERO PUSH2 0x10 JUMPI PUSH1 0x0 DUP1 REVERT JUMPDEST POP PUSH1 0x4 CALLDATASIZE LT PUSH2 0xF5 JUMPI PUSH1 0x0 CALLDATALOAD PUSH1 0xE0 SHR DUP1 PUSH4 0x6F77926B GT PUSH2 0x97 JUMPI DUP1 PUSH4 0xD3A5059A GT PUSH2 0x66 JUMPI DUP1 PUSH4 0xD3A5059A EQ PUSH2 0x1FA JUMPI DUP1 PUSH4 0xDEE94B4A EQ PUSH2 0x20D JUMPI DUP1 PUSH4 0xE8621E59 EQ PUSH2 0x220 JUMPI DUP1 PUSH4 0xFA4D7AAE EQ PUSH2 0x233 JUMPI PUSH1 0x0 DUP1 REVERT JUMPDEST DUP1 PUSH4 0x6F77926B EQ PUSH2 0x189 JUMPI DUP1 PUSH4 0x82A62137 EQ PUSH2 0x1A9 JUMPI DUP1 PUSH4 0x8DA5CB5B EQ PUSH2 0x1BC JUMPI DUP1 PUSH4 0xB74866FB EQ PUSH2 0x1E7 JUMPI PUSH1 0x0 DUP1 REVERT JUMPDEST DUP1 PUSH4 0x22FAA41F GT PUSH2 0xD3 JUMPI DUP1 PUSH4 0x22FAA41F EQ PUSH2 0x14A JUMPI DUP1 PUSH4 0x247AE7A3 EQ PUSH2 0x15B JUMPI DUP1 PUSH4 0x297027D5 EQ PUSH2 0x163 JUMPI DUP1 PUSH4 0x630A195B EQ PUSH2 0x176 JUMPI PUSH1 0x0 DUP1 REVERT JUMPDEST DUP1 PUSH4 0x56909B7 EQ PUSH2 0xFA JUMPI DUP1 PUSH4 0xE666E49 EQ PUSH2 0x122 JUMPI DUP1 PUSH4 0x130CB5F0 EQ PUSH2 0x135 JUMPI JUMPDEST PUSH1 0x0 DUP1 REVERT JUMPDEST PUSH2 0x10D PUSH2 0x108 CALLDATASIZE PUSH1 0x4 PUSH2 0x1B04 JUMP JUMPDEST PUSH2 0x246 JUMP JUMPDEST PUSH1 0x40 MLOAD SWAP1 ISZERO ISZERO DUP2 MSTORE PUSH1 0x20 ADD JUMPDEST PUSH1 0x40 MLOAD DUP1 SWAP2 SUB SWAP1 RETURN JUMPDEST PUSH2 0x10D PUSH2 0x130 CALLDATASIZE PUSH1 0x4 PUSH2 0x1B04 JUMP JUMPDEST PUSH2 0x259 JUMP JUMPDEST PUSH2 0x148 PUSH2 0x143 CALLDATASIZE PUSH1 0x4 PUSH2 0x1B04 JUMP JUMPDEST PUSH2 0x4B7 JUMP JUMPDEST STOP JUMPDEST PUSH1 0x0 SLOAD PUSH1 0x40 MLOAD SWAP1 DUP2 MSTORE PUSH1 0x20 ADD PUSH2 0x119 JUMP JUMPDEST PUSH2 0x148 PUSH2 0x56D JUMP JUMPDEST PUSH2 0x10D PUSH2 0x171 CALLDATASIZE PUSH1 0x4 PUSH2 0x1B04 JUMP JUMPDEST PUSH2 0xD51 JUMP JUMPDEST PUSH2 0x148 PUSH2 0x184 CALLDATASIZE PUSH1 0x4 PUSH2 0x1B26 JUMP JUMPDEST PUSH2 0xD5E JUMP JUMPDEST PUSH2 0x19C PUSH2 0x197 CALLDATASIZE PUSH1 0x4 PUSH2 0x1B04 JUMP JUMPDEST PUSH2 0xEF8 JUMP JUMPDEST PUSH1 0x40 MLOAD PUSH2 0x119 SWAP2 SWAP1 PUSH2 0x1BAE JUMP JUMPDEST PUSH2 0x148 PUSH2 0x1B7 CALLDATASIZE PUSH1 0x4 PUSH2 0x1B04 JUMP JUMPDEST PUSH2 0x11E4 JUMP JUMPDEST PUSH1 0x1 SLOAD PUSH2 0x1CF SWAP1 PUSH1 0x1 PUSH1 0x1 PUSH1 0xA0 SHL SUB AND DUP2 JUMP JUMPDEST PUSH1 0x40 MLOAD PUSH1 0x1 PUSH1 0x1 PUSH1 0xA0 SHL SUB SWAP1 SWAP2 AND DUP2 MSTORE PUSH1 0x20 ADD PUSH2 0x119 JUMP JUMPDEST PUSH2 0x148 PUSH2 0x1F5 CALLDATASIZE PUSH1 0x4 PUSH2 0x1B26 JUMP JUMPDEST PUSH2 0x130C JUMP JUMPDEST PUSH2 0x148 PUSH2 0x208 CALLDATASIZE PUSH1 0x4 PUSH2 0x1B04 JUMP JUMPDEST PUSH2 0x1493 JUMP JUMPDEST PUSH2 0x148 PUSH2 0x21B CALLDATASIZE PUSH1 0x4 PUSH2 0x1D09 JUMP JUMPDEST PUSH2 0x1544 JUMP JUMPDEST PUSH2 0x10D PUSH2 0x22E CALLDATASIZE PUSH1 0x4 PUSH2 0x1B04 JUMP JUMPDEST PUSH2 0x1705 JUMP JUMPDEST PUSH2 0x10D PUSH2 0x241 CALLDATASIZE PUSH1 0x4 PUSH2 0x1B04 JUMP JUMPDEST PUSH2 0x1712 JUMP JUMPDEST PUSH1 0x0 PUSH2 0x253 DUP3 PUSH1 0x2 PUSH2 0x171B JUMP JUMPDEST SWAP3 SWAP2 POP POP JUMP JUMPDEST PUSH1 0x1 PUSH1 0x1 PUSH1 0xA0 SHL SUB DUP1 DUP3 AND PUSH1 0x0 SWAP1 DUP2 MSTORE PUSH1 0x2 PUSH1 0x20 SWAP1 DUP2 MSTORE PUSH1 0x40 DUP1 DUP4 KECCAK256 DUP2 MLOAD PUSH1 0xC0 DUP2 ADD SWAP1 SWAP3 MSTORE DUP1 SLOAD SWAP1 SWAP5 AND DUP2 MSTORE PUSH1 0x1 DUP5 ADD DUP1 SLOAD SWAP4 SWAP5 DUP6 SWAP5 SWAP3 SWAP4 SWAP1 SWAP3 SWAP1 DUP5 ADD SWAP2 SWAP1 PUSH2 0x2A1 SWAP1 PUSH2 0x1DA2 JUMP JUMPDEST DUP1 PUSH1 0x1F ADD PUSH1 0x20 DUP1 SWAP2 DIV MUL PUSH1 0x20 ADD PUSH1 0x40 MLOAD SWAP1 DUP2 ADD PUSH1 0x40 MSTORE DUP1 SWAP3 SWAP2 SWAP1 DUP2 DUP2 MSTORE PUSH1 0x20 ADD DUP3 DUP1 SLOAD PUSH2 0x2CD SWAP1 PUSH2 0x1DA2 JUMP JUMPDEST DUP1 ISZERO PUSH2 0x31A JUMPI DUP1 PUSH1 0x1F LT PUSH2 0x2EF JUMPI PUSH2 0x100 DUP1 DUP4 SLOAD DIV MUL DUP4 MSTORE SWAP2 PUSH1 0x20 ADD SWAP2 PUSH2 0x31A JUMP JUMPDEST DUP3 ADD SWAP2 SWAP1 PUSH1 0x0 MSTORE PUSH1 0x20 PUSH1 0x0 KECCAK256 SWAP1 JUMPDEST DUP2 SLOAD DUP2 MSTORE SWAP1 PUSH1 0x1 ADD SWAP1 PUSH1 0x20 ADD DUP1 DUP4 GT PUSH2 0x2FD JUMPI DUP3 SWAP1 SUB PUSH1 0x1F AND DUP3 ADD SWAP2 JUMPDEST POP POP POP POP POP DUP2 MSTORE PUSH1 0x20 ADD PUSH1 0x2 DUP3 ADD DUP1 SLOAD PUSH2 0x333 SWAP1 PUSH2 0x1DA2 JUMP JUMPDEST DUP1 PUSH1 0x1F ADD PUSH1 0x20 DUP1 SWAP2 DIV MUL PUSH1 0x20 ADD PUSH1 0x40 MLOAD SWAP1 DUP2 ADD PUSH1 0x40 MSTORE DUP1 SWAP3 SWAP2 SWAP1 DUP2 DUP2 MSTORE PUSH1 0x20 ADD DUP3 DUP1 SLOAD PUSH2 0x35F SWAP1 PUSH2 0x1DA2 JUMP JUMPDEST DUP1 ISZERO PUSH2 0x3AC JUMPI DUP1 PUSH1 0x1F LT PUSH2 0x381 JUMPI PUSH2 0x100 DUP1 DUP4 SLOAD DIV MUL DUP4 MSTORE SWAP2 PUSH1 0x20 ADD SWAP2 PUSH2 0x3AC JUMP JUMPDEST DUP3 ADD SWAP2 SWAP1 PUSH1 0x0 MSTORE PUSH1 0x20 PUSH1 0x0 KECCAK256 SWAP1 JUMPDEST DUP2 SLOAD DUP2 MSTORE SWAP1 PUSH1 0x1 ADD SWAP1 PUSH1 0x20 ADD DUP1 DUP4 GT PUSH2 0x38F JUMPI DUP3 SWAP1 SUB PUSH1 0x1F AND DUP3 ADD SWAP2 JUMPDEST POP POP POP POP POP DUP2 MSTORE PUSH1 0x20 ADD PUSH1 0x3 DUP3 ADD DUP1 SLOAD PUSH2 0x3C5 SWAP1 PUSH2 0x1DA2 JUMP JUMPDEST DUP1 PUSH1 0x1F ADD PUSH1 0x20 DUP1 SWAP2 DIV MUL PUSH1 0x20 ADD PUSH1 0x40 MLOAD SWAP1 DUP2 ADD PUSH1 0x40 MSTORE DUP1 SWAP3 SWAP2 SWAP1 DUP2 DUP2 MSTORE PUSH1 0x20 ADD DUP3 DUP1 SLOAD PUSH2 0x3F1 SWAP1 PUSH2 0x1DA2 JUMP JUMPDEST DUP1 ISZERO PUSH2 0x43E JUMPI DUP1 PUSH1 0x1F LT PUSH2 0x413 JUMPI PUSH2 0x100 DUP1 DUP4 SLOAD DIV MUL DUP4 MSTORE SWAP2 PUSH1 0x20 ADD SWAP2 PUSH2 0x43E JUMP JUMPDEST DUP3 ADD SWAP2 SWAP1 PUSH1 0x0 MSTORE PUSH1 0x20 PUSH1 0x0 KECCAK256 SWAP1 JUMPDEST DUP2 SLOAD DUP2 MSTORE SWAP1 PUSH1 0x1 ADD SWAP1 PUSH1 0x20 ADD DUP1 DUP4 GT PUSH2 0x421 JUMPI DUP3 SWAP1 SUB PUSH1 0x1F AND DUP3 ADD SWAP2 JUMPDEST POP POP POP SWAP2 DUP4 MSTORE POP POP PUSH1 0x4 DUP3 ADD SLOAD PUSH1 0xFF SWAP1 DUP2 AND ISZERO ISZERO PUSH1 0x20 DUP1 DUP5 ADD SWAP2 SWAP1 SWAP2 MSTORE PUSH1 0x40 DUP1 MLOAD PUSH1 0x80 DUP2 ADD DUP3 MSTORE PUSH1 0x5 SWAP1 SWAP6 ADD SLOAD DUP1 DUP5 AND ISZERO ISZERO DUP7 MSTORE PUSH2 0x100 DUP2 DIV DUP5 AND ISZERO ISZERO SWAP3 DUP7 ADD SWAP3 SWAP1 SWAP3 MSTORE PUSH3 0x10000 DUP3 DIV DUP4 AND ISZERO ISZERO DUP6 DUP3 ADD MSTORE PUSH4 0x1000000 SWAP1 SWAP2 DIV SWAP1 SWAP2 AND ISZERO ISZERO PUSH1 0x60 DUP5 ADD MSTORE ADD MSTORE MLOAD PUSH1 0x1 PUSH1 0x1 PUSH1 0xA0 SHL SUB AND ISZERO ISZERO SWAP4 SWAP3 POP POP POP JUMP JUMPDEST PUSH1 0x1 PUSH1 0x1 PUSH1 0xA0 SHL SUB DUP1 DUP3 AND PUSH1 0x0 SWAP1 DUP2 MSTORE PUSH1 0x2 PUSH1 0x20 MSTORE PUSH1 0x40 SWAP1 KECCAK256 SLOAD DUP3 SWAP2 AND PUSH2 0x4F9 JUMPI PUSH1 0x40 MLOAD PUSH3 0x461BCD PUSH1 0xE5 SHL DUP2 MSTORE PUSH1 0x4 ADD PUSH2 0x4F0 SWAP1 PUSH2 0x1DDD JUMP JUMPDEST PUSH1 0x40 MLOAD DUP1 SWAP2 SUB SWAP1 REVERT JUMPDEST PUSH1 0x1 PUSH1 0x1 PUSH1 0xA0 SHL SUB DUP3 AND PUSH1 0x0 SWAP1 DUP2 MSTORE PUSH1 0x3 PUSH1 0x20 MSTORE PUSH1 0x40 SWAP1 KECCAK256 SLOAD PUSH1 0xFF AND ISZERO PUSH2 0x569 JUMPI PUSH1 0x1 PUSH1 0x1 PUSH1 0xA0 SHL SUB DUP3 AND PUSH1 0x0 SWAP1 DUP2 MSTORE PUSH1 0x2 PUSH1 0x20 SWAP1 DUP2 MSTORE PUSH1 0x40 DUP1 DUP4 KECCAK256 PUSH1 0x4 DUP2 ADD DUP1 SLOAD PUSH1 0xFF NOT SWAP1 DUP2 AND SWAP1 SWAP2 SSTORE PUSH1 0x3 SWAP1 SWAP4 MSTORE SWAP1 DUP4 KECCAK256 DUP1 SLOAD SWAP1 SWAP3 AND SWAP1 SWAP2 SSTORE DUP2 SLOAD SWAP1 SWAP2 DUP1 PUSH2 0x562 DUP4 PUSH2 0x1E22 JUMP JUMPDEST SWAP2 SWAP1 POP SSTORE POP POP JUMPDEST POP POP JUMP JUMPDEST PUSH1 0x0 PUSH1 0x40 MLOAD DUP1 PUSH2 0x140 ADD PUSH1 0x40 MSTORE DUP1 PUSH20 0xAB8483F64D9C6D1ECF9B849AE677DD3315835CB2 PUSH1 0x1 PUSH1 0x1 PUSH1 0xA0 SHL SUB AND PUSH1 0x1 PUSH1 0x1 PUSH1 0xA0 SHL SUB AND DUP2 MSTORE PUSH1 0x20 ADD PUSH20 0x4B20993BC481177EC7E8F571CECAE8A9E22C02DB PUSH1 0x1 PUSH1 0x1 PUSH1 0xA0 SHL SUB AND PUSH1 0x1 PUSH1 0x1 PUSH1 0xA0 SHL SUB AND DUP2 MSTORE PUSH1 0x20 ADD PUSH20 0x78731D3CA6B7E34AC0F824C42A7CC18A495CABAB PUSH1 0x1 PUSH1 0x1 PUSH1 0xA0 SHL SUB AND PUSH1 0x1 PUSH1 0x1 PUSH1 0xA0 SHL SUB AND DUP2 MSTORE PUSH1 0x20 ADD PUSH20 0x617F2E2FD72FD9D5503197092AC168C91465E7F2 PUSH1 0x1 PUSH1 0x1 PUSH1 0xA0 SHL SUB AND PUSH1 0x1 PUSH1 0x1 PUSH1 0xA0 SHL SUB AND DUP2 MSTORE PUSH1 0x20 ADD PUSH20 0x17F6AD8EF982297579C203069C1DBFFE4348C372 PUSH1 0x1 PUSH1 0x1 PUSH1 0xA0 SHL SUB AND PUSH1 0x1 PUSH1 0x1 PUSH1 0xA0 SHL SUB AND DUP2 MSTORE PUSH1 0x20 ADD PUSH20 0x5C6B0F7BF3E7CE046039BD8FABDFD3F9F5021678 PUSH1 0x1 PUSH1 0x1 PUSH1 0xA0 SHL SUB AND PUSH1 0x1 PUSH1 0x1 PUSH1 0xA0 SHL SUB AND DUP2 MSTORE PUSH1 0x20 ADD PUSH20 0x3C6FCED478CBBC9A4FAB34EF9F40767739D1FF7 PUSH1 0x1 PUSH1 0x1 PUSH1 0xA0 SHL SUB AND PUSH1 0x1 PUSH1 0x1 PUSH1 0xA0 SHL SUB AND DUP2 MSTORE PUSH1 0x20 ADD PUSH20 0x1AE0EA34A72D944A8C7603FFB3EC30A6669E454C PUSH1 0x1 PUSH1 0x1 PUSH1 0xA0 SHL SUB AND PUSH1 0x1 PUSH1 0x1 PUSH1 0xA0 SHL SUB AND DUP2 MSTORE PUSH1 0x20 ADD PUSH20 0xCA35B7D915458EF540ADE6068DFE2F44E8FA733C PUSH1 0x1 PUSH1 0x1 PUSH1 0xA0 SHL SUB AND PUSH1 0x1 PUSH1 0x1 PUSH1 0xA0 SHL SUB AND DUP2 MSTORE PUSH1 0x20 ADD PUSH20 0x14723A09ACFF6D2A60DCDF7AA4AFF308FDDC160C PUSH1 0x1 PUSH1 0x1 PUSH1 0xA0 SHL SUB AND PUSH1 0x1 PUSH1 0x1 PUSH1 0xA0 SHL SUB AND DUP2 MSTORE POP SWAP1 POP PUSH1 0x0 PUSH1 0x40 MLOAD DUP1 PUSH2 0x140 ADD PUSH1 0x40 MSTORE DUP1 PUSH1 0x40 MLOAD DUP1 PUSH1 0x40 ADD PUSH1 0x40 MSTORE DUP1 PUSH1 0x4 DUP2 MSTORE PUSH1 0x20 ADD PUSH4 0x5269636B PUSH1 0xE0 SHL DUP2 MSTORE POP DUP2 MSTORE PUSH1 0x20 ADD PUSH1 0x40 MLOAD DUP1 PUSH1 0x40 ADD PUSH1 0x40 MSTORE DUP1 PUSH1 0x7 DUP2 MSTORE PUSH1 0x20 ADD PUSH7 0x56616E65737361 PUSH1 0xC8 SHL DUP2 MSTORE POP DUP2 MSTORE PUSH1 0x20 ADD PUSH1 0x40 MLOAD DUP1 PUSH1 0x40 ADD PUSH1 0x40 MSTORE DUP1 PUSH1 0x4 DUP2 MSTORE PUSH1 0x20 ADD PUSH4 0x82D8CAF PUSH1 0xE3 SHL DUP2 MSTORE POP DUP2 MSTORE PUSH1 0x20 ADD PUSH1 0x40 MLOAD DUP1 PUSH1 0x40 ADD PUSH1 0x40 MSTORE DUP1 PUSH1 0x4 DUP2 MSTORE PUSH1 0x20 ADD PUSH4 0x56696369 PUSH1 0xE0 SHL DUP2 MSTORE POP DUP2 MSTORE PUSH1 0x20 ADD PUSH1 0x40 MLOAD DUP1 PUSH1 0x40 ADD PUSH1 0x40 MSTORE DUP1 PUSH1 0x2 DUP2 MSTORE PUSH1 0x20 ADD PUSH2 0x4C75 PUSH1 0xF0 SHL DUP2 MSTORE POP DUP2 MSTORE PUSH1 0x20 ADD PUSH1 0x40 MLOAD DUP1 PUSH1 0x40 ADD PUSH1 0x40 MSTORE DUP1 PUSH1 0x4 DUP2 MSTORE PUSH1 0x20 ADD PUSH4 0x2537B437 PUSH1 0xE1 SHL DUP2 MSTORE POP DUP2 MSTORE PUSH1 0x20 ADD PUSH1 0x40 MLOAD DUP1 PUSH1 0x40 ADD PUSH1 0x40 MSTORE DUP1 PUSH1 0x5 DUP2 MSTORE PUSH1 0x20 ADD PUSH5 0xA6C2E4C2D PUSH1 0xDB SHL DUP2 MSTORE POP DUP2 MSTORE PUSH1 0x20 ADD PUSH1 0x40 MLOAD DUP1 PUSH1 0x40 ADD PUSH1 0x40 MSTORE DUP1 PUSH1 0x8 DUP2 MSTORE PUSH1 0x20 ADD PUSH8 0x53616D616E746861 PUSH1 0xC0 SHL DUP2 MSTORE POP DUP2 MSTORE PUSH1 0x20 ADD PUSH1 0x40 MLOAD DUP1 PUSH1 0x40 ADD PUSH1 0x40 MSTORE DUP1 PUSH1 0x5 DUP2 MSTORE PUSH1 0x20 ADD PUSH5 0x2832BA32B9 PUSH1 0xD9 SHL DUP2 MSTORE POP DUP2 MSTORE PUSH1 0x20 ADD PUSH1 0x40 MLOAD DUP1 PUSH1 0x40 ADD PUSH1 0x40 MSTORE DUP1 PUSH1 0x5 DUP2 MSTORE PUSH1 0x20 ADD PUSH5 0x11185D9A59 PUSH1 0xDA SHL DUP2 MSTORE POP DUP2 MSTORE POP SWAP1 POP PUSH1 0x0 PUSH1 0x40 MLOAD DUP1 PUSH2 0x140 ADD PUSH1 0x40 MSTORE DUP1 PUSH1 0x40 MLOAD DUP1 PUSH1 0x40 ADD PUSH1 0x40 MSTORE DUP1 PUSH1 0x5 DUP2 MSTORE PUSH1 0x20 ADD PUSH5 0x14185D195B PUSH1 0xDA SHL DUP2 MSTORE POP DUP2 MSTORE PUSH1 0x20 ADD PUSH1 0x40 MLOAD DUP1 PUSH1 0x40 ADD PUSH1 0x40 MSTORE DUP1 PUSH1 0x3 DUP2 MSTORE PUSH1 0x20 ADD PUSH3 0x4B696D PUSH1 0xE8 SHL DUP2 MSTORE POP DUP2 MSTORE PUSH1 0x20 ADD PUSH1 0x40 MLOAD DUP1 PUSH1 0x40 ADD PUSH1 0x40 MSTORE DUP1 PUSH1 0x5 DUP2 MSTORE PUSH1 0x20 ADD PUSH5 0x213937BBB7 PUSH1 0xD9 SHL DUP2 MSTORE POP DUP2 MSTORE PUSH1 0x20 ADD PUSH1 0x40 MLOAD DUP1 PUSH1 0x40 ADD PUSH1 0x40 MSTORE DUP1 PUSH1 0x5 DUP2 MSTORE PUSH1 0x20 ADD PUSH5 0x4461766973 PUSH1 0xD8 SHL DUP2 MSTORE POP DUP2 MSTORE PUSH1 0x20 ADD PUSH1 0x40 MLOAD DUP1 PUSH1 0x40 ADD PUSH1 0x40 MSTORE DUP1 PUSH1 0x8 DUP2 MSTORE PUSH1 0x20 ADD PUSH8 0x26B0B93A34B732BD PUSH1 0xC1 SHL DUP2 MSTORE POP DUP2 MSTORE PUSH1 0x20 ADD PUSH1 0x40 MLOAD DUP1 PUSH1 0x40 ADD PUSH1 0x40 MSTORE DUP1 PUSH1 0x6 DUP2 MSTORE PUSH1 0x20 ADD PUSH6 0x2BB4B639B7B7 PUSH1 0xD1 SHL DUP2 MSTORE POP DUP2 MSTORE PUSH1 0x20 ADD PUSH1 0x40 MLOAD DUP1 PUSH1 0x40 ADD PUSH1 0x40 MSTORE DUP1 PUSH1 0x6 DUP2 MSTORE PUSH1 0x20 ADD PUSH6 0x476172636961 PUSH1 0xD0 SHL DUP2 MSTORE POP DUP2 MSTORE PUSH1 0x20 ADD PUSH1 0x40 MLOAD DUP1 PUSH1 0x40 ADD PUSH1 0x40 MSTORE DUP1 PUSH1 0x5 DUP2 MSTORE PUSH1 0x20 ADD PUSH5 0x4A6F6E6573 PUSH1 0xD8 SHL DUP2 MSTORE POP DUP2 MSTORE PUSH1 0x20 ADD PUSH1 0x40 MLOAD DUP1 PUSH1 0x40 ADD PUSH1 0x40 MSTORE DUP1 PUSH1 0x7 DUP2 MSTORE PUSH1 0x20 ADD PUSH7 0x2530B1B5B9B7B7 PUSH1 0xC9 SHL DUP2 MSTORE POP DUP2 MSTORE PUSH1 0x20 ADD PUSH1 0x40 MLOAD DUP1 PUSH1 0x40 ADD PUSH1 0x40 MSTORE DUP1 PUSH1 0x5 DUP2 MSTORE PUSH1 0x20 ADD PUSH5 0xA6DAD2E8D PUSH1 0xDB SHL DUP2 MSTORE POP DUP2 MSTORE POP SWAP1 POP PUSH1 0x0 PUSH1 0x40 MLOAD DUP1 PUSH2 0x140 ADD PUSH1 0x40 MSTORE DUP1 PUSH1 0x40 MLOAD DUP1 PUSH1 0x40 ADD PUSH1 0x40 MSTORE DUP1 PUSH1 0x12 DUP2 MSTORE PUSH1 0x20 ADD PUSH18 0x5269636B2E506174656C40706F722E636F6D PUSH1 0x70 SHL DUP2 MSTORE POP DUP2 MSTORE PUSH1 0x20 ADD PUSH1 0x40 MLOAD DUP1 PUSH1 0x40 ADD PUSH1 0x40 MSTORE DUP1 PUSH1 0x13 DUP2 MSTORE PUSH1 0x20 ADD PUSH19 0x56616E657373612E4B696D40706F722E636F6D PUSH1 0x68 SHL DUP2 MSTORE POP DUP2 MSTORE PUSH1 0x20 ADD PUSH1 0x40 MLOAD DUP1 PUSH1 0x40 ADD PUSH1 0x40 MSTORE DUP1 PUSH1 0x12 DUP2 MSTORE PUSH1 0x20 ADD PUSH18 0x416C65782E42726F776E40706F722E636F6D PUSH1 0x70 SHL DUP2 MSTORE POP DUP2 MSTORE PUSH1 0x20 ADD PUSH1 0x40 MLOAD DUP1 PUSH1 0x40 ADD PUSH1 0x40 MSTORE DUP1 PUSH1 0x12 DUP2 MSTORE PUSH1 0x20 ADD PUSH18 0x566963692E446176697340706F722E636F6D PUSH1 0x70 SHL DUP2 MSTORE POP DUP2 MSTORE PUSH1 0x20 ADD PUSH1 0x40 MLOAD DUP1 PUSH1 0x40 ADD PUSH1 0x40 MSTORE DUP1 PUSH1 0x13 DUP2 MSTORE PUSH1 0x20 ADD PUSH19 0x4C752E4D617274696E657A40706F722E636F6D PUSH1 0x68 SHL DUP2 MSTORE POP DUP2 MSTORE PUSH1 0x20 ADD PUSH1 0x40 MLOAD DUP1 PUSH1 0x40 ADD PUSH1 0x40 MSTORE DUP1 PUSH1 0x13 DUP2 MSTORE PUSH1 0x20 ADD PUSH19 0x4A6F686E2E57696C736F6E40706F722E636F6D PUSH1 0x68 SHL DUP2 MSTORE POP DUP2 MSTORE PUSH1 0x20 ADD PUSH1 0x40 MLOAD DUP1 PUSH1 0x40 ADD PUSH1 0x40 MSTORE DUP1 PUSH1 0x14 DUP2 MSTORE PUSH1 0x20 ADD PUSH20 0x53617261682E47617263696140706F722E636F6D PUSH1 0x60 SHL DUP2 MSTORE POP DUP2 MSTORE PUSH1 0x20 ADD PUSH1 0x40 MLOAD DUP1 PUSH1 0x40 ADD PUSH1 0x40 MSTORE DUP1 PUSH1 0x16 DUP2 MSTORE PUSH1 0x20 ADD PUSH22 0x53616D616E7468612E4A6F6E657340706F722E636F6D PUSH1 0x50 SHL DUP2 MSTORE POP DUP2 MSTORE PUSH1 0x20 ADD PUSH1 0x40 MLOAD DUP1 PUSH1 0x40 ADD PUSH1 0x40 MSTORE DUP1 PUSH1 0x15 DUP2 MSTORE PUSH1 0x20 ADD PUSH21 0x50657465722E4A61636B736F6E40706F722E636F6D PUSH1 0x58 SHL DUP2 MSTORE POP DUP2 MSTORE PUSH1 0x20 ADD PUSH1 0x40 MLOAD DUP1 PUSH1 0x40 ADD PUSH1 0x40 MSTORE DUP1 PUSH1 0x13 DUP2 MSTORE PUSH1 0x20 ADD PUSH19 0x44617669642E536D69746840706F722E636F6D PUSH1 0x68 SHL DUP2 MSTORE POP DUP2 MSTORE POP SWAP1 POP PUSH1 0x0 JUMPDEST PUSH1 0xA DUP2 LT ISZERO PUSH2 0xD4A JUMPI PUSH1 0x0 DUP6 DUP3 PUSH1 0xA DUP2 LT PUSH2 0xC29 JUMPI PUSH2 0xC29 PUSH2 0x1E39 JUMP JUMPDEST PUSH1 0x20 MUL ADD MLOAD PUSH1 0x40 MLOAD PUSH4 0xE666E49 PUSH1 0xE0 SHL DUP2 MSTORE PUSH1 0x1 PUSH1 0x1 PUSH1 0xA0 SHL SUB DUP3 AND PUSH1 0x4 DUP3 ADD MSTORE SWAP1 SWAP2 POP ADDRESS SWAP1 PUSH4 0xE666E49 SWAP1 PUSH1 0x24 ADD PUSH1 0x20 PUSH1 0x40 MLOAD DUP1 DUP4 SUB DUP2 DUP7 GAS STATICCALL ISZERO DUP1 ISZERO PUSH2 0xC75 JUMPI RETURNDATASIZE PUSH1 0x0 DUP1 RETURNDATACOPY RETURNDATASIZE PUSH1 0x0 REVERT JUMPDEST POP POP POP POP PUSH1 0x40 MLOAD RETURNDATASIZE PUSH1 0x1F NOT PUSH1 0x1F DUP3 ADD AND DUP3 ADD DUP1 PUSH1 0x40 MSTORE POP DUP2 ADD SWAP1 PUSH2 0xC99 SWAP2 SWAP1 PUSH2 0x1E4F JUMP JUMPDEST PUSH2 0xD37 JUMPI PUSH2 0xCEB DUP2 DUP7 DUP5 PUSH1 0xA DUP2 LT PUSH2 0xCB3 JUMPI PUSH2 0xCB3 PUSH2 0x1E39 JUMP JUMPDEST PUSH1 0x20 MUL ADD MLOAD DUP7 DUP6 PUSH1 0xA DUP2 LT PUSH2 0xCCA JUMPI PUSH2 0xCCA PUSH2 0x1E39 JUMP JUMPDEST PUSH1 0x20 MUL ADD MLOAD DUP7 DUP7 PUSH1 0xA DUP2 LT PUSH2 0xCE1 JUMPI PUSH2 0xCE1 PUSH2 0x1E39 JUMP JUMPDEST PUSH1 0x20 MUL ADD MLOAD PUSH2 0x1544 JUMP JUMPDEST PUSH2 0xCF6 DUP2 PUSH1 0x2 PUSH2 0xD5E JUMP JUMPDEST PUSH2 0xD01 DUP2 PUSH1 0x3 PUSH2 0x130C JUMP JUMPDEST PUSH1 0x2 DUP3 LT ISZERO PUSH2 0xD1A JUMPI PUSH2 0xD15 DUP2 PUSH1 0x0 PUSH2 0xD5E JUMP JUMPDEST PUSH2 0xD2E JUMP JUMPDEST PUSH1 0x4 DUP3 LT ISZERO PUSH2 0xD2E JUMPI PUSH2 0xD2E DUP2 PUSH1 0x1 PUSH2 0xD5E JUMP JUMPDEST PUSH2 0xD37 DUP2 PUSH2 0x11E4 JUMP JUMPDEST POP DUP1 PUSH2 0xD42 DUP2 PUSH2 0x1E71 JUMP JUMPDEST SWAP2 POP POP PUSH2 0xC0C JUMP JUMPDEST POP POP POP POP POP JUMP JUMPDEST PUSH1 0x0 PUSH2 0x253 DUP3 PUSH1 0x0 PUSH2 0x171B JUMP JUMPDEST PUSH1 0x1 SLOAD PUSH1 0x1 PUSH1 0x1 PUSH1 0xA0 SHL SUB AND CALLER EQ DUP1 PUSH2 0xDD1 JUMPI POP PUSH1 0x40 MLOAD PUSH4 0x297027D5 PUSH1 0xE0 SHL DUP2 MSTORE CALLER PUSH1 0x4 DUP3 ADD MSTORE ADDRESS SWAP1 PUSH4 0x297027D5 SWAP1 PUSH1 0x24 ADD PUSH1 0x20 PUSH1 0x40 MLOAD DUP1 DUP4 SUB DUP2 DUP7 GAS STATICCALL ISZERO DUP1 ISZERO PUSH2 0xDAD JUMPI RETURNDATASIZE PUSH1 0x0 DUP1 RETURNDATACOPY RETURNDATASIZE PUSH1 0x0 REVERT JUMPDEST POP POP POP POP PUSH1 0x40 MLOAD RETURNDATASIZE PUSH1 0x1F NOT PUSH1 0x1F DUP3 ADD AND DUP3 ADD DUP1 PUSH1 0x40 MSTORE POP DUP2 ADD SWAP1 PUSH2 0xDD1 SWAP2 SWAP1 PUSH2 0x1E4F JUMP JUMPDEST PUSH2 0xDED JUMPI PUSH1 0x40 MLOAD PUSH3 0x461BCD PUSH1 0xE5 SHL DUP2 MSTORE PUSH1 0x4 ADD PUSH2 0x4F0 SWAP1 PUSH2 0x1E8C JUMP JUMPDEST PUSH1 0x1 PUSH1 0x1 PUSH1 0xA0 SHL SUB DUP1 DUP4 AND PUSH1 0x0 SWAP1 DUP2 MSTORE PUSH1 0x2 PUSH1 0x20 MSTORE PUSH1 0x40 SWAP1 KECCAK256 SLOAD DUP4 SWAP2 AND PUSH2 0xE26 JUMPI PUSH1 0x40 MLOAD PUSH3 0x461BCD PUSH1 0xE5 SHL DUP2 MSTORE PUSH1 0x4 ADD PUSH2 0x4F0 SWAP1 PUSH2 0x1DDD JUMP JUMPDEST PUSH1 0x1 PUSH1 0x1 PUSH1 0xA0 SHL SUB DUP4 AND PUSH1 0x0 SWAP1 DUP2 MSTORE PUSH1 0x2 PUSH1 0x20 MSTORE PUSH1 0x40 DUP2 KECCAK256 SWAP1 PUSH1 0x5 DUP3 ADD SWAP1 DUP5 PUSH1 0x3 DUP2 GT ISZERO PUSH2 0xE56 JUMPI PUSH2 0xE56 PUSH2 0x1ECE JUMP JUMPDEST EQ ISZERO PUSH2 0xE6C JUMPI DUP1 SLOAD PUSH1 0xFF NOT AND PUSH1 0x1 OR DUP2 SSTORE PUSH2 0xD4A JUMP JUMPDEST PUSH1 0x1 DUP5 PUSH1 0x3 DUP2 GT ISZERO PUSH2 0xE80 JUMPI PUSH2 0xE80 PUSH2 0x1ECE JUMP JUMPDEST EQ ISZERO PUSH2 0xE98 JUMPI DUP1 SLOAD PUSH2 0xFF00 NOT AND PUSH2 0x100 OR DUP2 SSTORE PUSH2 0xD4A JUMP JUMPDEST PUSH1 0x2 DUP5 PUSH1 0x3 DUP2 GT ISZERO PUSH2 0xEAC JUMPI PUSH2 0xEAC PUSH2 0x1ECE JUMP JUMPDEST EQ ISZERO PUSH2 0xEC6 JUMPI DUP1 SLOAD PUSH3 0xFF0000 NOT AND PUSH3 0x10000 OR DUP2 SSTORE PUSH2 0xD4A JUMP JUMPDEST PUSH1 0x3 DUP5 PUSH1 0x3 DUP2 GT ISZERO PUSH2 0xEDA JUMPI PUSH2 0xEDA PUSH2 0x1ECE JUMP JUMPDEST EQ ISZERO PUSH2 0xD4A JUMPI DUP1 SLOAD PUSH4 0xFF000000 NOT AND PUSH4 0x1000000 OR DUP2 SSTORE POP POP POP POP POP JUMP JUMPDEST PUSH2 0xF4A PUSH1 0x40 DUP1 MLOAD PUSH1 0xC0 DUP2 ADD DUP3 MSTORE PUSH1 0x0 DUP1 DUP3 MSTORE PUSH1 0x60 PUSH1 0x20 DUP1 DUP5 ADD DUP3 SWAP1 MSTORE DUP4 DUP6 ADD DUP3 SWAP1 MSTORE DUP2 DUP5 ADD DUP3 SWAP1 MSTORE PUSH1 0x80 DUP1 DUP6 ADD DUP5 SWAP1 MSTORE DUP6 MLOAD SWAP1 DUP2 ADD DUP7 MSTORE DUP4 DUP2 MSTORE SWAP1 DUP2 ADD DUP4 SWAP1 MSTORE SWAP4 DUP5 ADD DUP3 SWAP1 MSTORE DUP4 ADD MSTORE SWAP1 PUSH1 0xA0 DUP3 ADD MSTORE SWAP1 JUMP JUMPDEST PUSH1 0x1 PUSH1 0x1 PUSH1 0xA0 SHL SUB DUP1 DUP4 AND PUSH1 0x0 SWAP1 DUP2 MSTORE PUSH1 0x2 PUSH1 0x20 SWAP1 DUP2 MSTORE PUSH1 0x40 DUP1 DUP4 KECCAK256 DUP2 MLOAD PUSH1 0xC0 DUP2 ADD SWAP1 SWAP3 MSTORE DUP1 SLOAD SWAP1 SWAP5 AND DUP2 MSTORE PUSH1 0x1 DUP5 ADD DUP1 SLOAD SWAP4 SWAP5 SWAP2 SWAP4 SWAP2 SWAP3 DUP5 ADD SWAP2 PUSH2 0xF8E SWAP1 PUSH2 0x1DA2 JUMP JUMPDEST DUP1 PUSH1 0x1F ADD PUSH1 0x20 DUP1 SWAP2 DIV MUL PUSH1 0x20 ADD PUSH1 0x40 MLOAD SWAP1 DUP2 ADD PUSH1 0x40 MSTORE DUP1 SWAP3 SWAP2 SWAP1 DUP2 DUP2 MSTORE PUSH1 0x20 ADD DUP3 DUP1 SLOAD PUSH2 0xFBA SWAP1 PUSH2 0x1DA2 JUMP JUMPDEST DUP1 ISZERO PUSH2 0x1007 JUMPI DUP1 PUSH1 0x1F LT PUSH2 0xFDC JUMPI PUSH2 0x100 DUP1 DUP4 SLOAD DIV MUL DUP4 MSTORE SWAP2 PUSH1 0x20 ADD SWAP2 PUSH2 0x1007 JUMP JUMPDEST DUP3 ADD SWAP2 SWAP1 PUSH1 0x0 MSTORE PUSH1 0x20 PUSH1 0x0 KECCAK256 SWAP1 JUMPDEST DUP2 SLOAD DUP2 MSTORE SWAP1 PUSH1 0x1 ADD SWAP1 PUSH1 0x20 ADD DUP1 DUP4 GT PUSH2 0xFEA JUMPI DUP3 SWAP1 SUB PUSH1 0x1F AND DUP3 ADD SWAP2 JUMPDEST POP POP POP POP POP DUP2 MSTORE PUSH1 0x20 ADD PUSH1 0x2 DUP3 ADD DUP1 SLOAD PUSH2 0x1020 SWAP1 PUSH2 0x1DA2 JUMP JUMPDEST DUP1 PUSH1 0x1F ADD PUSH1 0x20 DUP1 SWAP2 DIV MUL PUSH1 0x20 ADD PUSH1 0x40 MLOAD SWAP1 DUP2 ADD PUSH1 0x40 MSTORE DUP1 SWAP3 SWAP2 SWAP1 DUP2 DUP2 MSTORE PUSH1 0x20 ADD DUP3 DUP1 SLOAD PUSH2 0x104C SWAP1 PUSH2 0x1DA2 JUMP JUMPDEST DUP1 ISZERO PUSH2 0x1099 JUMPI DUP1 PUSH1 0x1F LT PUSH2 0x106E JUMPI PUSH2 0x100 DUP1 DUP4 SLOAD DIV MUL DUP4 MSTORE SWAP2 PUSH1 0x20 ADD SWAP2 PUSH2 0x1099 JUMP JUMPDEST DUP3 ADD SWAP2 SWAP1 PUSH1 0x0 MSTORE PUSH1 0x20 PUSH1 0x0 KECCAK256 SWAP1 JUMPDEST DUP2 SLOAD DUP2 MSTORE SWAP1 PUSH1 0x1 ADD SWAP1 PUSH1 0x20 ADD DUP1 DUP4 GT PUSH2 0x107C JUMPI DUP3 SWAP1 SUB PUSH1 0x1F AND DUP3 ADD SWAP2 JUMPDEST POP POP POP POP POP DUP2 MSTORE PUSH1 0x20 ADD PUSH1 0x3 DUP3 ADD DUP1 SLOAD PUSH2 0x10B2 SWAP1 PUSH2 0x1DA2 JUMP JUMPDEST DUP1 PUSH1 0x1F ADD PUSH1 0x20 DUP1 SWAP2 DIV MUL PUSH1 0x20 ADD PUSH1 0x40 MLOAD SWAP1 DUP2 ADD PUSH1 0x40 MSTORE DUP1 SWAP3 SWAP2 SWAP1 DUP2 DUP2 MSTORE PUSH1 0x20 ADD DUP3 DUP1 SLOAD PUSH2 0x10DE SWAP1 PUSH2 0x1DA2 JUMP JUMPDEST DUP1 ISZERO PUSH2 0x112B JUMPI DUP1 PUSH1 0x1F LT PUSH2 0x1100 JUMPI PUSH2 0x100 DUP1 DUP4 SLOAD DIV MUL DUP4 MSTORE SWAP2 PUSH1 0x20 ADD SWAP2 PUSH2 0x112B JUMP JUMPDEST DUP3 ADD SWAP2 SWAP1 PUSH1 0x0 MSTORE PUSH1 0x20 PUSH1 0x0 KECCAK256 SWAP1 JUMPDEST DUP2 SLOAD DUP2 MSTORE SWAP1 PUSH1 0x1 ADD SWAP1 PUSH1 0x20 ADD DUP1 DUP4 GT PUSH2 0x110E JUMPI DUP3 SWAP1 SUB PUSH1 0x1F AND DUP3 ADD SWAP2 JUMPDEST POP POP POP SWAP2 DUP4 MSTORE POP POP PUSH1 0x4 DUP3 ADD SLOAD PUSH1 0xFF SWAP1 DUP2 AND ISZERO ISZERO PUSH1 0x20 DUP1 DUP5 ADD SWAP2 SWAP1 SWAP2 MSTORE PUSH1 0x40 DUP1 MLOAD PUSH1 0x80 DUP2 ADD DUP3 MSTORE PUSH1 0x5 SWAP1 SWAP6 ADD SLOAD DUP1 DUP5 AND ISZERO ISZERO DUP7 MSTORE PUSH2 0x100 DUP2 DIV DUP5 AND ISZERO ISZERO SWAP3 DUP7 ADD SWAP3 SWAP1 SWAP3 MSTORE PUSH3 0x10000 DUP3 DIV DUP4 AND ISZERO ISZERO DUP6 DUP3 ADD MSTORE PUSH4 0x1000000 SWAP1 SWAP2 DIV SWAP1 SWAP2 AND ISZERO ISZERO PUSH1 0x60 DUP5 ADD MSTORE ADD MSTORE DUP1 MLOAD SWAP1 SWAP2 POP PUSH1 0x1 PUSH1 0x1 PUSH1 0xA0 SHL SUB AND ISZERO PUSH2 0x11AA JUMPI SWAP3 SWAP2 POP POP JUMP JUMPDEST PUSH1 0x40 MLOAD PUSH3 0x461BCD PUSH1 0xE5 SHL DUP2 MSTORE PUSH1 0x20 PUSH1 0x4 DUP3 ADD MSTORE PUSH1 0xF PUSH1 0x24 DUP3 ADD MSTORE PUSH15 0x55736572206E6F7420666F756E6421 PUSH1 0x88 SHL PUSH1 0x44 DUP3 ADD MSTORE PUSH1 0x64 ADD PUSH2 0x4F0 JUMP JUMPDEST PUSH1 0x1 PUSH1 0x1 PUSH1 0xA0 SHL SUB DUP1 DUP3 AND PUSH1 0x0 SWAP1 DUP2 MSTORE PUSH1 0x2 PUSH1 0x20 MSTORE PUSH1 0x40 SWAP1 KECCAK256 SLOAD DUP3 SWAP2 AND PUSH2 0x121D JUMPI PUSH1 0x40 MLOAD PUSH3 0x461BCD PUSH1 0xE5 SHL DUP2 MSTORE PUSH1 0x4 ADD PUSH2 0x4F0 SWAP1 PUSH2 0x1DDD JUMP JUMPDEST PUSH1 0x1 PUSH1 0x1 PUSH1 0xA0 SHL SUB DUP3 AND PUSH1 0x0 SWAP1 DUP2 MSTORE PUSH1 0x3 PUSH1 0x20 MSTORE PUSH1 0x40 SWAP1 KECCAK256 SLOAD PUSH1 0xFF AND PUSH2 0x569 JUMPI PUSH1 0x1 PUSH1 0x1 PUSH1 0xA0 SHL SUB DUP3 AND PUSH1 0x0 SWAP1 DUP2 MSTORE PUSH1 0x2 PUSH1 0x20 SWAP1 DUP2 MSTORE PUSH1 0x40 SWAP2 DUP3 SWAP1 KECCAK256 PUSH1 0x4 DUP2 ADD DUP1 SLOAD PUSH1 0xFF NOT AND PUSH1 0x1 OR SWAP1 SSTORE DUP3 MLOAD PUSH1 0x80 DUP2 ADD DUP5 MSTORE PUSH1 0x5 DUP3 ADD SLOAD PUSH1 0xFF DUP2 DUP2 AND ISZERO ISZERO DUP1 DUP5 MSTORE PUSH2 0x100 DUP4 DIV DUP3 AND ISZERO ISZERO SWAP6 DUP5 ADD SWAP6 SWAP1 SWAP6 MSTORE PUSH3 0x10000 DUP3 DIV DUP2 AND ISZERO ISZERO SWAP6 DUP4 ADD SWAP6 SWAP1 SWAP6 MSTORE PUSH4 0x1000000 SWAP1 DIV SWAP1 SWAP4 AND ISZERO ISZERO PUSH1 0x60 DUP5 ADD MSTORE SWAP2 SWAP1 DUP1 PUSH2 0x12BF JUMPI POP DUP1 PUSH1 0x20 ADD MLOAD JUMPDEST DUP1 PUSH2 0x12CB JUMPI POP DUP1 PUSH1 0x40 ADD MLOAD JUMPDEST ISZERO PUSH2 0x1306 JUMPI PUSH1 0x1 PUSH1 0x1 PUSH1 0xA0 SHL SUB DUP5 AND PUSH1 0x0 SWAP1 DUP2 MSTORE PUSH1 0x3 PUSH1 0x20 MSTORE PUSH1 0x40 DUP2 KECCAK256 DUP1 SLOAD PUSH1 0xFF NOT AND PUSH1 0x1 OR SWAP1 SSTORE DUP1 SLOAD SWAP1 DUP1 PUSH2 0x1300 DUP4 PUSH2 0x1E71 JUMP JUMPDEST SWAP2 SWAP1 POP SSTORE POP JUMPDEST POP POP POP POP JUMP JUMPDEST PUSH1 0x1 SLOAD PUSH1 0x1 PUSH1 0x1 PUSH1 0xA0 SHL SUB AND CALLER EQ DUP1 PUSH2 0x137F JUMPI POP PUSH1 0x40 MLOAD PUSH4 0x297027D5 PUSH1 0xE0 SHL DUP2 MSTORE CALLER PUSH1 0x4 DUP3 ADD MSTORE ADDRESS SWAP1 PUSH4 0x297027D5 SWAP1 PUSH1 0x24 ADD PUSH1 0x20 PUSH1 0x40 MLOAD DUP1 DUP4 SUB DUP2 DUP7 GAS STATICCALL ISZERO DUP1 ISZERO PUSH2 0x135B JUMPI RETURNDATASIZE PUSH1 0x0 DUP1 RETURNDATACOPY RETURNDATASIZE PUSH1 0x0 REVERT JUMPDEST POP POP POP POP PUSH1 0x40 MLOAD RETURNDATASIZE PUSH1 0x1F NOT PUSH1 0x1F DUP3 ADD AND DUP3 ADD DUP1 PUSH1 0x40 MSTORE POP DUP2 ADD SWAP1 PUSH2 0x137F SWAP2 SWAP1 PUSH2 0x1E4F JUMP JUMPDEST PUSH2 0x139B JUMPI PUSH1 0x40 MLOAD PUSH3 0x461BCD PUSH1 0xE5 SHL DUP2 MSTORE PUSH1 0x4 ADD PUSH2 0x4F0 SWAP1 PUSH2 0x1E8C JUMP JUMPDEST PUSH1 0x1 PUSH1 0x1 PUSH1 0xA0 SHL SUB DUP1 DUP4 AND PUSH1 0x0 SWAP1 DUP2 MSTORE PUSH1 0x2 PUSH1 0x20 MSTORE PUSH1 0x40 SWAP1 KECCAK256 SLOAD DUP4 SWAP2 AND PUSH2 0x13D4 JUMPI PUSH1 0x40 MLOAD PUSH3 0x461BCD PUSH1 0xE5 SHL DUP2 MSTORE PUSH1 0x4 ADD PUSH2 0x4F0 SWAP1 PUSH2 0x1DDD JUMP JUMPDEST PUSH1 0x1 PUSH1 0x1 PUSH1 0xA0 SHL SUB DUP4 AND PUSH1 0x0 SWAP1 DUP2 MSTORE PUSH1 0x2 PUSH1 0x20 MSTORE PUSH1 0x40 DUP2 KECCAK256 SWAP1 PUSH1 0x5 DUP3 ADD SWAP1 DUP5 PUSH1 0x3 DUP2 GT ISZERO PUSH2 0x1404 JUMPI PUSH2 0x1404 PUSH2 0x1ECE JUMP JUMPDEST EQ ISZERO PUSH2 0x1417 JUMPI DUP1 SLOAD PUSH1 0xFF NOT AND DUP2 SSTORE PUSH2 0xD4A JUMP JUMPDEST PUSH1 0x1 DUP5 PUSH1 0x3 DUP2 GT ISZERO PUSH2 0x142B JUMPI PUSH2 0x142B PUSH2 0x1ECE JUMP JUMPDEST EQ ISZERO PUSH2 0x143F JUMPI DUP1 SLOAD PUSH2 0xFF00 NOT AND DUP2 SSTORE PUSH2 0xD4A JUMP JUMPDEST PUSH1 0x2 DUP5 PUSH1 0x3 DUP2 GT ISZERO PUSH2 0x1453 JUMPI PUSH2 0x1453 PUSH2 0x1ECE JUMP JUMPDEST EQ ISZERO PUSH2 0x1468 JUMPI DUP1 SLOAD PUSH3 0xFF0000 NOT AND DUP2 SSTORE PUSH2 0xD4A JUMP JUMPDEST PUSH1 0x3 DUP5 PUSH1 0x3 DUP2 GT ISZERO PUSH2 0x147C JUMPI PUSH2 0x147C PUSH2 0x1ECE JUMP JUMPDEST EQ ISZERO PUSH2 0xD4A JUMPI DUP1 SLOAD PUSH4 0xFF000000 NOT AND SWAP1 SSTORE POP POP POP POP JUMP JUMPDEST PUSH1 0x1 PUSH1 0x1 PUSH1 0xA0 SHL SUB DUP1 DUP3 AND PUSH1 0x0 SWAP1 DUP2 MSTORE PUSH1 0x2 PUSH1 0x20 MSTORE PUSH1 0x40 SWAP1 KECCAK256 SLOAD DUP3 SWAP2 AND PUSH2 0x14CC JUMPI PUSH1 0x40 MLOAD PUSH3 0x461BCD PUSH1 0xE5 SHL DUP2 MSTORE PUSH1 0x4 ADD PUSH2 0x4F0 SWAP1 PUSH2 0x1DDD JUMP JUMPDEST PUSH2 0x14D5 DUP3 PUSH2 0x4B7 JUMP JUMPDEST PUSH1 0x1 PUSH1 0x1 PUSH1 0xA0 SHL SUB DUP3 AND PUSH1 0x0 SWAP1 DUP2 MSTORE PUSH1 0x2 PUSH1 0x20 MSTORE PUSH1 0x40 DUP2 KECCAK256 DUP1 SLOAD PUSH1 0x1 PUSH1 0x1 PUSH1 0xA0 SHL SUB NOT AND DUP2 SSTORE SWAP1 PUSH2 0x1509 PUSH1 0x1 DUP4 ADD DUP3 PUSH2 0x1A12 JUMP JUMPDEST PUSH2 0x1517 PUSH1 0x2 DUP4 ADD PUSH1 0x0 PUSH2 0x1A12 JUMP JUMPDEST PUSH2 0x1525 PUSH1 0x3 DUP4 ADD PUSH1 0x0 PUSH2 0x1A12 JUMP JUMPDEST POP PUSH1 0x4 DUP2 ADD DUP1 SLOAD PUSH1 0xFF NOT AND SWAP1 SSTORE PUSH1 0x5 ADD DUP1 SLOAD PUSH4 0xFFFFFFFF NOT AND SWAP1 SSTORE POP POP JUMP JUMPDEST PUSH1 0x1 PUSH1 0x1 PUSH1 0xA0 SHL SUB DUP1 DUP6 AND PUSH1 0x0 SWAP1 DUP2 MSTORE PUSH1 0x2 PUSH1 0x20 MSTORE PUSH1 0x40 SWAP1 KECCAK256 SLOAD DUP6 SWAP2 AND ISZERO PUSH2 0x15A7 JUMPI PUSH1 0x40 MLOAD PUSH3 0x461BCD PUSH1 0xE5 SHL DUP2 MSTORE PUSH1 0x20 PUSH1 0x4 DUP3 ADD MSTORE PUSH1 0x16 PUSH1 0x24 DUP3 ADD MSTORE PUSH22 0x4163636F756E7420616C726561647920657869737473 PUSH1 0x50 SHL PUSH1 0x44 DUP3 ADD MSTORE PUSH1 0x64 ADD PUSH2 0x4F0 JUMP JUMPDEST PUSH1 0x40 DUP1 MLOAD PUSH1 0x80 DUP1 DUP3 ADD DUP4 MSTORE PUSH1 0x0 DUP1 DUP4 MSTORE PUSH1 0x20 DUP1 DUP5 ADD DUP3 SWAP1 MSTORE DUP4 DUP6 ADD DUP3 SWAP1 MSTORE PUSH1 0x1 PUSH1 0x60 DUP1 DUP7 ADD DUP3 SWAP1 MSTORE DUP7 MLOAD PUSH1 0xC0 DUP2 ADD DUP9 MSTORE PUSH1 0x1 PUSH1 0x1 PUSH1 0xA0 SHL SUB DUP14 DUP2 AND DUP1 DUP4 MSTORE DUP3 DUP7 ADD DUP15 DUP2 MSTORE DUP4 DUP12 ADD DUP15 SWAP1 MSTORE SWAP4 DUP4 ADD DUP13 SWAP1 MSTORE SWAP7 DUP3 ADD DUP7 SWAP1 MSTORE PUSH1 0xA0 DUP3 ADD DUP9 SWAP1 MSTORE SWAP6 DUP6 MSTORE PUSH1 0x2 DUP5 MSTORE SWAP7 SWAP1 SWAP4 KECCAK256 DUP7 MLOAD DUP2 SLOAD PUSH1 0x1 PUSH1 0x1 PUSH1 0xA0 SHL SUB NOT AND SWAP6 AND SWAP5 SWAP1 SWAP5 OR DUP5 SSTORE SWAP2 MLOAD DUP1 MLOAD SWAP5 SWAP6 SWAP5 DUP6 SWAP5 SWAP4 PUSH2 0x163E SWAP4 SWAP1 DUP6 ADD SWAP3 ADD SWAP1 PUSH2 0x1A4F JUMP JUMPDEST POP PUSH1 0x40 DUP3 ADD MLOAD DUP1 MLOAD PUSH2 0x165A SWAP2 PUSH1 0x2 DUP5 ADD SWAP2 PUSH1 0x20 SWAP1 SWAP2 ADD SWAP1 PUSH2 0x1A4F JUMP JUMPDEST POP PUSH1 0x60 DUP3 ADD MLOAD DUP1 MLOAD PUSH2 0x1676 SWAP2 PUSH1 0x3 DUP5 ADD SWAP2 PUSH1 0x20 SWAP1 SWAP2 ADD SWAP1 PUSH2 0x1A4F JUMP JUMPDEST POP PUSH1 0x80 DUP3 ADD MLOAD PUSH1 0x4 DUP3 ADD DUP1 SLOAD SWAP2 ISZERO ISZERO PUSH1 0xFF NOT SWAP1 SWAP3 AND SWAP2 SWAP1 SWAP2 OR SWAP1 SSTORE PUSH1 0xA0 SWAP1 SWAP2 ADD MLOAD DUP1 MLOAD PUSH1 0x5 SWAP1 SWAP3 ADD DUP1 SLOAD PUSH1 0x20 DUP4 ADD MLOAD PUSH1 0x40 DUP5 ADD MLOAD PUSH1 0x60 SWAP1 SWAP5 ADD MLOAD ISZERO ISZERO PUSH4 0x1000000 MUL PUSH4 0xFF000000 NOT SWAP5 ISZERO ISZERO PUSH3 0x10000 MUL SWAP5 SWAP1 SWAP5 AND PUSH4 0xFFFF0000 NOT SWAP2 ISZERO ISZERO PUSH2 0x100 MUL PUSH2 0xFF00 NOT SWAP7 ISZERO ISZERO SWAP7 SWAP1 SWAP7 AND PUSH2 0xFFFF NOT SWAP1 SWAP4 AND SWAP3 SWAP1 SWAP3 OR SWAP5 SWAP1 SWAP5 OR SWAP4 SWAP1 SWAP4 AND SWAP3 SWAP1 SWAP3 OR OR SWAP1 SSTORE POP POP POP POP POP POP POP JUMP JUMPDEST PUSH1 0x0 PUSH2 0x253 DUP3 PUSH1 0x3 PUSH2 0x171B JUMP JUMPDEST PUSH1 0x0 PUSH2 0x253 DUP3 PUSH1 0x1 JUMPDEST PUSH1 0x1 PUSH1 0x1 PUSH1 0xA0 SHL SUB DUP1 DUP4 AND PUSH1 0x0 SWAP1 DUP2 MSTORE PUSH1 0x2 PUSH1 0x20 SWAP1 DUP2 MSTORE PUSH1 0x40 DUP1 DUP4 KECCAK256 DUP2 MLOAD PUSH1 0xC0 DUP2 ADD SWAP1 SWAP3 MSTORE DUP1 SLOAD SWAP1 SWAP5 AND DUP2 MSTORE PUSH1 0x1 DUP5 ADD DUP1 SLOAD SWAP4 SWAP5 DUP6 SWAP5 SWAP3 SWAP4 SWAP1 SWAP3 SWAP1 DUP5 ADD SWAP2 SWAP1 PUSH2 0x1763 SWAP1 PUSH2 0x1DA2 JUMP JUMPDEST DUP1 PUSH1 0x1F ADD PUSH1 0x20 DUP1 SWAP2 DIV MUL PUSH1 0x20 ADD PUSH1 0x40 MLOAD SWAP1 DUP2 ADD PUSH1 0x40 MSTORE DUP1 SWAP3 SWAP2 SWAP1 DUP2 DUP2 MSTORE PUSH1 0x20 ADD DUP3 DUP1 SLOAD PUSH2 0x178F SWAP1 PUSH2 0x1DA2 JUMP JUMPDEST DUP1 ISZERO PUSH2 0x17DC JUMPI DUP1 PUSH1 0x1F LT PUSH2 0x17B1 JUMPI PUSH2 0x100 DUP1 DUP4 SLOAD DIV MUL DUP4 MSTORE SWAP2 PUSH1 0x20 ADD SWAP2 PUSH2 0x17DC JUMP JUMPDEST DUP3 ADD SWAP2 SWAP1 PUSH1 0x0 MSTORE PUSH1 0x20 PUSH1 0x0 KECCAK256 SWAP1 JUMPDEST DUP2 SLOAD DUP2 MSTORE SWAP1 PUSH1 0x1 ADD SWAP1 PUSH1 0x20 ADD DUP1 DUP4 GT PUSH2 0x17BF JUMPI DUP3 SWAP1 SUB PUSH1 0x1F AND DUP3 ADD SWAP2 JUMPDEST POP POP POP POP POP DUP2 MSTORE PUSH1 0x20 ADD PUSH1 0x2 DUP3 ADD DUP1 SLOAD PUSH2 0x17F5 SWAP1 PUSH2 0x1DA2 JUMP JUMPDEST DUP1 PUSH1 0x1F ADD PUSH1 0x20 DUP1 SWAP2 DIV MUL PUSH1 0x20 ADD PUSH1 0x40 MLOAD SWAP1 DUP2 ADD PUSH1 0x40 MSTORE DUP1 SWAP3 SWAP2 SWAP1 DUP2 DUP2 MSTORE PUSH1 0x20 ADD DUP3 DUP1 SLOAD PUSH2 0x1821 SWAP1 PUSH2 0x1DA2 JUMP JUMPDEST DUP1 ISZERO PUSH2 0x186E JUMPI DUP1 PUSH1 0x1F LT PUSH2 0x1843 JUMPI PUSH2 0x100 DUP1 DUP4 SLOAD DIV MUL DUP4 MSTORE SWAP2 PUSH1 0x20 ADD SWAP2 PUSH2 0x186E JUMP JUMPDEST DUP3 ADD SWAP2 SWAP1 PUSH1 0x0 MSTORE PUSH1 0x20 PUSH1 0x0 KECCAK256 SWAP1 JUMPDEST DUP2 SLOAD DUP2 MSTORE SWAP1 PUSH1 0x1 ADD SWAP1 PUSH1 0x20 ADD DUP1 DUP4 GT PUSH2 0x1851 JUMPI DUP3 SWAP1 SUB PUSH1 0x1F AND DUP3 ADD SWAP2 JUMPDEST POP POP POP POP POP DUP2 MSTORE PUSH1 0x20 ADD PUSH1 0x3 DUP3 ADD DUP1 SLOAD PUSH2 0x1887 SWAP1 PUSH2 0x1DA2 JUMP JUMPDEST DUP1 PUSH1 0x1F ADD PUSH1 0x20 DUP1 SWAP2 DIV MUL PUSH1 0x20 ADD PUSH1 0x40 MLOAD SWAP1 DUP2 ADD PUSH1 0x40 MSTORE DUP1 SWAP3 SWAP2 SWAP1 DUP2 DUP2 MSTORE PUSH1 0x20 ADD DUP3 DUP1 SLOAD PUSH2 0x18B3 SWAP1 PUSH2 0x1DA2 JUMP JUMPDEST DUP1 ISZERO PUSH2 0x1900 JUMPI DUP1 PUSH1 0x1F LT PUSH2 0x18D5 JUMPI PUSH2 0x100 DUP1 DUP4 SLOAD DIV MUL DUP4 MSTORE SWAP2 PUSH1 0x20 ADD SWAP2 PUSH2 0x1900 JUMP JUMPDEST DUP3 ADD SWAP2 SWAP1 PUSH1 0x0 MSTORE PUSH1 0x20 PUSH1 0x0 KECCAK256 SWAP1 JUMPDEST DUP2 SLOAD DUP2 MSTORE SWAP1 PUSH1 0x1 ADD SWAP1 PUSH1 0x20 ADD DUP1 DUP4 GT PUSH2 0x18E3 JUMPI DUP3 SWAP1 SUB PUSH1 0x1F AND DUP3 ADD SWAP2 JUMPDEST POP POP POP SWAP2 DUP4 MSTORE POP POP PUSH1 0x4 DUP3 ADD SLOAD PUSH1 0xFF SWAP1 DUP2 AND ISZERO ISZERO PUSH1 0x20 DUP1 DUP5 ADD SWAP2 SWAP1 SWAP2 MSTORE PUSH1 0x40 DUP1 MLOAD PUSH1 0x80 DUP2 ADD DUP3 MSTORE PUSH1 0x5 SWAP1 SWAP6 ADD SLOAD DUP1 DUP5 AND ISZERO ISZERO DUP7 MSTORE PUSH2 0x100 DUP2 DIV DUP5 AND ISZERO ISZERO SWAP3 DUP7 ADD SWAP3 SWAP1 SWAP3 MSTORE PUSH3 0x10000 DUP3 DIV DUP4 AND ISZERO ISZERO DUP6 DUP3 ADD MSTORE PUSH4 0x1000000 SWAP1 SWAP2 DIV SWAP1 SWAP2 AND ISZERO ISZERO PUSH1 0x60 DUP5 ADD MSTORE ADD MSTORE PUSH1 0xA0 DUP2 ADD MLOAD SWAP1 SWAP2 POP PUSH1 0x0 DUP5 PUSH1 0x3 DUP2 GT ISZERO PUSH2 0x1982 JUMPI PUSH2 0x1982 PUSH2 0x1ECE JUMP JUMPDEST EQ ISZERO PUSH2 0x1992 JUMPI MLOAD SWAP2 POP PUSH2 0x253 SWAP1 POP JUMP JUMPDEST PUSH1 0x1 DUP5 PUSH1 0x3 DUP2 GT ISZERO PUSH2 0x19A6 JUMPI PUSH2 0x19A6 PUSH2 0x1ECE JUMP JUMPDEST EQ ISZERO PUSH2 0x19B9 JUMPI PUSH1 0x20 ADD MLOAD SWAP2 POP PUSH2 0x253 SWAP1 POP JUMP JUMPDEST PUSH1 0x2 DUP5 PUSH1 0x3 DUP2 GT ISZERO PUSH2 0x19CD JUMPI PUSH2 0x19CD PUSH2 0x1ECE JUMP JUMPDEST EQ ISZERO PUSH2 0x19E0 JUMPI PUSH1 0x40 ADD MLOAD SWAP2 POP PUSH2 0x253 SWAP1 POP JUMP JUMPDEST PUSH1 0x3 DUP5 PUSH1 0x3 DUP2 GT ISZERO PUSH2 0x19F4 JUMPI PUSH2 0x19F4 PUSH2 0x1ECE JUMP JUMPDEST EQ ISZERO PUSH2 0x1A07 JUMPI PUSH1 0x60 ADD MLOAD SWAP2 POP PUSH2 0x253 SWAP1 POP JUMP JUMPDEST POP PUSH1 0x0 SWAP5 SWAP4 POP POP POP POP JUMP JUMPDEST POP DUP1 SLOAD PUSH2 0x1A1E SWAP1 PUSH2 0x1DA2 JUMP JUMPDEST PUSH1 0x0 DUP3 SSTORE DUP1 PUSH1 0x1F LT PUSH2 0x1A2E JUMPI POP POP JUMP JUMPDEST PUSH1 0x1F ADD PUSH1 0x20 SWAP1 DIV SWAP1 PUSH1 0x0 MSTORE PUSH1 0x20 PUSH1 0x0 KECCAK256 SWAP1 DUP2 ADD SWAP1 PUSH2 0x1A4C SWAP2 SWAP1 PUSH2 0x1AD3 JUMP JUMPDEST POP JUMP JUMPDEST DUP3 DUP1 SLOAD PUSH2 0x1A5B SWAP1 PUSH2 0x1DA2 JUMP JUMPDEST SWAP1 PUSH1 0x0 MSTORE PUSH1 0x20 PUSH1 0x0 KECCAK256 SWAP1 PUSH1 0x1F ADD PUSH1 0x20 SWAP1 DIV DUP2 ADD SWAP3 DUP3 PUSH2 0x1A7D JUMPI PUSH1 0x0 DUP6 SSTORE PUSH2 0x1AC3 JUMP JUMPDEST DUP3 PUSH1 0x1F LT PUSH2 0x1A96 JUMPI DUP1 MLOAD PUSH1 0xFF NOT AND DUP4 DUP1 ADD OR DUP6 SSTORE PUSH2 0x1AC3 JUMP JUMPDEST DUP3 DUP1 ADD PUSH1 0x1 ADD DUP6 SSTORE DUP3 ISZERO PUSH2 0x1AC3 JUMPI SWAP2 DUP3 ADD JUMPDEST DUP3 DUP2 GT ISZERO PUSH2 0x1AC3 JUMPI DUP3 MLOAD DUP3 SSTORE SWAP2 PUSH1 0x20 ADD SWAP2 SWAP1 PUSH1 0x1 ADD SWAP1 PUSH2 0x1AA8 JUMP JUMPDEST POP PUSH2 0x1ACF SWAP3 SWAP2 POP PUSH2 0x1AD3 JUMP JUMPDEST POP SWAP1 JUMP JUMPDEST JUMPDEST DUP1 DUP3 GT ISZERO PUSH2 0x1ACF JUMPI PUSH1 0x0 DUP2 SSTORE PUSH1 0x1 ADD PUSH2 0x1AD4 JUMP JUMPDEST DUP1 CALLDATALOAD PUSH1 0x1 PUSH1 0x1 PUSH1 0xA0 SHL SUB DUP2 AND DUP2 EQ PUSH2 0x1AFF JUMPI PUSH1 0x0 DUP1 REVERT JUMPDEST SWAP2 SWAP1 POP JUMP JUMPDEST PUSH1 0x0 PUSH1 0x20 DUP3 DUP5 SUB SLT ISZERO PUSH2 0x1B16 JUMPI PUSH1 0x0 DUP1 REVERT JUMPDEST PUSH2 0x1B1F DUP3 PUSH2 0x1AE8 JUMP JUMPDEST SWAP4 SWAP3 POP POP POP JUMP JUMPDEST PUSH1 0x0 DUP1 PUSH1 0x40 DUP4 DUP6 SUB SLT ISZERO PUSH2 0x1B39 JUMPI PUSH1 0x0 DUP1 REVERT JUMPDEST PUSH2 0x1B42 DUP4 PUSH2 0x1AE8 JUMP JUMPDEST SWAP2 POP PUSH1 0x20 DUP4 ADD CALLDATALOAD PUSH1 0x4 DUP2 LT PUSH2 0x1B56 JUMPI PUSH1 0x0 DUP1 REVERT JUMPDEST DUP1 SWAP2 POP POP SWAP3 POP SWAP3 SWAP1 POP JUMP JUMPDEST PUSH1 0x0 DUP2 MLOAD DUP1 DUP5 MSTORE PUSH1 0x0 JUMPDEST DUP2 DUP2 LT ISZERO PUSH2 0x1B87 JUMPI PUSH1 0x20 DUP2 DUP6 ADD DUP2 ADD MLOAD DUP7 DUP4 ADD DUP3 ADD MSTORE ADD PUSH2 0x1B6B JUMP JUMPDEST DUP2 DUP2 GT ISZERO PUSH2 0x1B99 JUMPI PUSH1 0x0 PUSH1 0x20 DUP4 DUP8 ADD ADD MSTORE JUMPDEST POP PUSH1 0x1F ADD PUSH1 0x1F NOT AND SWAP3 SWAP1 SWAP3 ADD PUSH1 0x20 ADD SWAP3 SWAP2 POP POP JUMP JUMPDEST PUSH1 0x20 DUP1 DUP3 MSTORE DUP3 MLOAD PUSH1 0x1 PUSH1 0x1 PUSH1 0xA0 SHL SUB AND DUP3 DUP3 ADD MSTORE DUP3 ADD MLOAD PUSH2 0x120 PUSH1 0x40 DUP4 ADD DUP2 SWAP1 MSTORE PUSH1 0x0 SWAP2 SWAP1 PUSH2 0x1BE1 PUSH2 0x140 DUP6 ADD DUP4 PUSH2 0x1B61 JUMP JUMPDEST SWAP2 POP PUSH1 0x40 DUP6 ADD MLOAD PUSH1 0x1F NOT DUP1 DUP7 DUP6 SUB ADD PUSH1 0x60 DUP8 ADD MSTORE PUSH2 0x1BFF DUP5 DUP4 PUSH2 0x1B61 JUMP JUMPDEST SWAP4 POP PUSH1 0x60 DUP8 ADD MLOAD SWAP2 POP DUP1 DUP7 DUP6 SUB ADD PUSH1 0x80 DUP8 ADD MSTORE POP PUSH2 0x1C1D DUP4 DUP3 PUSH2 0x1B61 JUMP JUMPDEST PUSH1 0x80 DUP8 ADD MLOAD ISZERO ISZERO PUSH1 0xA0 DUP8 DUP2 ADD SWAP2 SWAP1 SWAP2 MSTORE SWAP1 SWAP7 ADD MLOAD DUP1 MLOAD ISZERO ISZERO PUSH1 0xC0 DUP8 ADD MSTORE PUSH1 0x20 DUP2 ADD MLOAD ISZERO ISZERO PUSH1 0xE0 DUP8 ADD MSTORE PUSH1 0x40 DUP2 ADD MLOAD ISZERO ISZERO PUSH2 0x100 DUP8 ADD MSTORE PUSH1 0x60 ADD MLOAD ISZERO ISZERO SWAP2 SWAP1 SWAP5 ADD MSTORE POP SWAP2 SWAP3 SWAP2 POP POP JUMP JUMPDEST PUSH4 0x4E487B71 PUSH1 0xE0 SHL PUSH1 0x0 MSTORE PUSH1 0x41 PUSH1 0x4 MSTORE PUSH1 0x24 PUSH1 0x0 REVERT JUMPDEST PUSH1 0x0 DUP3 PUSH1 0x1F DUP4 ADD SLT PUSH2 0x1C8D JUMPI PUSH1 0x0 DUP1 REVERT JUMPDEST DUP2 CALLDATALOAD PUSH8 0xFFFFFFFFFFFFFFFF DUP1 DUP3 GT ISZERO PUSH2 0x1CA8 JUMPI PUSH2 0x1CA8 PUSH2 0x1C66 JUMP JUMPDEST PUSH1 0x40 MLOAD PUSH1 0x1F DUP4 ADD PUSH1 0x1F NOT SWAP1 DUP2 AND PUSH1 0x3F ADD AND DUP2 ADD SWAP1 DUP3 DUP3 GT DUP2 DUP4 LT OR ISZERO PUSH2 0x1CD0 JUMPI PUSH2 0x1CD0 PUSH2 0x1C66 JUMP JUMPDEST DUP2 PUSH1 0x40 MSTORE DUP4 DUP2 MSTORE DUP7 PUSH1 0x20 DUP6 DUP9 ADD ADD GT ISZERO PUSH2 0x1CE9 JUMPI PUSH1 0x0 DUP1 REVERT JUMPDEST DUP4 PUSH1 0x20 DUP8 ADD PUSH1 0x20 DUP4 ADD CALLDATACOPY PUSH1 0x0 PUSH1 0x20 DUP6 DUP4 ADD ADD MSTORE DUP1 SWAP5 POP POP POP POP POP SWAP3 SWAP2 POP POP JUMP JUMPDEST PUSH1 0x0 DUP1 PUSH1 0x0 DUP1 PUSH1 0x80 DUP6 DUP8 SUB SLT ISZERO PUSH2 0x1D1F JUMPI PUSH1 0x0 DUP1 REVERT JUMPDEST PUSH2 0x1D28 DUP6 PUSH2 0x1AE8 JUMP JUMPDEST SWAP4 POP PUSH1 0x20 DUP6 ADD CALLDATALOAD PUSH8 0xFFFFFFFFFFFFFFFF DUP1 DUP3 GT ISZERO PUSH2 0x1D45 JUMPI PUSH1 0x0 DUP1 REVERT JUMPDEST PUSH2 0x1D51 DUP9 DUP4 DUP10 ADD PUSH2 0x1C7C JUMP JUMPDEST SWAP5 POP PUSH1 0x40 DUP8 ADD CALLDATALOAD SWAP2 POP DUP1 DUP3 GT ISZERO PUSH2 0x1D67 JUMPI PUSH1 0x0 DUP1 REVERT JUMPDEST PUSH2 0x1D73 DUP9 DUP4 DUP10 ADD PUSH2 0x1C7C JUMP JUMPDEST SWAP4 POP PUSH1 0x60 DUP8 ADD CALLDATALOAD SWAP2 POP DUP1 DUP3 GT ISZERO PUSH2 0x1D89 JUMPI PUSH1 0x0 DUP1 REVERT JUMPDEST POP PUSH2 0x1D96 DUP8 DUP3 DUP9 ADD PUSH2 0x1C7C JUMP JUMPDEST SWAP2 POP POP SWAP3 SWAP6 SWAP2 SWAP5 POP SWAP3 POP JUMP JUMPDEST PUSH1 0x1 DUP2 DUP2 SHR SWAP1 DUP3 AND DUP1 PUSH2 0x1DB6 JUMPI PUSH1 0x7F DUP3 AND SWAP2 POP JUMPDEST PUSH1 0x20 DUP3 LT DUP2 EQ ISZERO PUSH2 0x1DD7 JUMPI PUSH4 0x4E487B71 PUSH1 0xE0 SHL PUSH1 0x0 MSTORE PUSH1 0x22 PUSH1 0x4 MSTORE PUSH1 0x24 PUSH1 0x0 REVERT JUMPDEST POP SWAP2 SWAP1 POP JUMP JUMPDEST PUSH1 0x20 DUP1 DUP3 MSTORE PUSH1 0x15 SWAP1 DUP3 ADD MSTORE PUSH21 0x1058D8DBDD5B9D08191BD95CDB89DD08195E1A5CDD PUSH1 0x5A SHL PUSH1 0x40 DUP3 ADD MSTORE PUSH1 0x60 ADD SWAP1 JUMP JUMPDEST PUSH4 0x4E487B71 PUSH1 0xE0 SHL PUSH1 0x0 MSTORE PUSH1 0x11 PUSH1 0x4 MSTORE PUSH1 0x24 PUSH1 0x0 REVERT JUMPDEST PUSH1 0x0 DUP2 PUSH2 0x1E31 JUMPI PUSH2 0x1E31 PUSH2 0x1E0C JUMP JUMPDEST POP PUSH1 0x0 NOT ADD SWAP1 JUMP JUMPDEST PUSH4 0x4E487B71 PUSH1 0xE0 SHL PUSH1 0x0 MSTORE PUSH1 0x32 PUSH1 0x4 MSTORE PUSH1 0x24 PUSH1 0x0 REVERT JUMPDEST PUSH1 0x0 PUSH1 0x20 DUP3 DUP5 SUB SLT ISZERO PUSH2 0x1E61 JUMPI PUSH1 0x0 DUP1 REVERT JUMPDEST DUP2 MLOAD DUP1 ISZERO ISZERO DUP2 EQ PUSH2 0x1B1F JUMPI PUSH1 0x0 DUP1 REVERT JUMPDEST PUSH1 0x0 PUSH1 0x0 NOT DUP3 EQ ISZERO PUSH2 0x1E85 JUMPI PUSH2 0x1E85 PUSH2 0x1E0C JUMP JUMPDEST POP PUSH1 0x1 ADD SWAP1 JUMP JUMPDEST PUSH1 0x20 DUP1 DUP3 MSTORE PUSH1 0x22 SWAP1 DUP3 ADD MSTORE PUSH32 0x4F6E6C79206F776E65722063616E2063616C6C20746869732066756E6374696F PUSH1 0x40 DUP3 ADD MSTORE PUSH2 0x3717 PUSH1 0xF1 SHL PUSH1 0x60 DUP3 ADD MSTORE PUSH1 0x80 ADD SWAP1 JUMP JUMPDEST PUSH4 0x4E487B71 PUSH1 0xE0 SHL PUSH1 0x0 MSTORE PUSH1 0x21 PUSH1 0x4 MSTORE PUSH1 0x24 PUSH1 0x0 REVERT INVALID LOG2 PUSH5 0x6970667358 0x22 SLT KECCAK256 0x23 PUSH21 0x44EC2BFD8B262F25FBE3C22FEBDA03332EAB8E43A0 0xEC 0x4C EXP SDIV 0xF 0x25 0xD5 SELFDESTRUCT OR PUSH5 0x736F6C6343 STOP ADDMOD 0xC STOP CALLER 0x4F PUSH15 0x6C79206F776E65722063616E206361 PUSH13 0x6C20746869732066756E637469 PUSH16 0x4163636F756E7420646F65736E277420 PUSH6 0x786973740000 STOP STOP STOP STOP STOP STOP STOP STOP STOP "
				},
				"gasEstimates": {
					"creation": {
						"codeDepositCost": "1592400",
						"executionCost": "infinite",
						"totalCost": "infinite"
					},
					"external": {
						"activateAccount(address)": "80095",
						"assignRole(address,uint8)": "infinite",
						"burnAccount(address)": "infinite",
						"createAccount(address,string,string,string)": "infinite",
						"deactivateAccount(address)": "77698",
						"getActiveMemberCount()": "2303",
						"getUser(address)": "infinite",
						"hasCouncilMemberRole(address)": "infinite",
						"hasGuestRole(address)": "infinite",
						"hasLeaderRole(address)": "infinite",
						"hasMemberRole(address)": "infinite",
						"owner()": "2404",
						"removeRole(address,uint8)": "infinite",
						"testAccountManagement()": "infinite",
						"userExists(address)": "infinite"
					},
					"internal": {
						"assignCouncilMember(address)": "infinite",
						"assignGuest(address)": "infinite",
						"assignLeader(address)": "infinite",
						"assignMember(address)": "infinite",
						"hasRole(address,enum AccountManagement.Role)": "infinite",
						"removeCouncilMember(address)": "infinite",
						"removeGuest(address)": "infinite",
						"removeLeader(address)": "infinite",
						"removeMember(address)": "infinite"
					}
				},
				"methodIdentifiers": {
					"activateAccount(address)": "82a62137",
					"assignRole(address,uint8)": "630a195b",
					"burnAccount(address)": "d3a5059a",
					"createAccount(address,string,string,string)": "dee94b4a",
					"deactivateAccount(address)": "130cb5f0",
					"getActiveMemberCount()": "22faa41f",
					"getUser(address)": "6f77926b",
					"hasCouncilMemberRole(address)": "fa4d7aae",
					"hasGuestRole(address)": "e8621e59",
					"hasLeaderRole(address)": "297027d5",
					"hasMemberRole(address)": "056909b7",
					"owner()": "8da5cb5b",
					"removeRole(address,uint8)": "b74866fb",
					"testAccountManagement()": "247ae7a3",
					"userExists(address)": "0e666e49"
				}
			},
			"storageLayout": {
				"storage": [
					{
						"astId": 47,
						"contract": "OnDemo/contracts/AccountManagement.sol:AccountManagement",
						"label": "activeMemberCount",
						"offset": 0,
						"slot": "0",
						"type": "t_uint256"
					},
					{
						"astId": 49,
						"contract": "OnDemo/contracts/AccountManagement.sol:AccountManagement",
						"label": "owner",
						"offset": 0,
						"slot": "1",
						"type": "t_address"
					},
					{
						"astId": 54,
						"contract": "OnDemo/contracts/AccountManagement.sol:AccountManagement",
						"label": "users",
						"offset": 0,
						"slot": "2",
						"type": "t_mapping(t_address,t_struct(User)20_storage)"
					},
					{
						"astId": 58,
						"contract": "OnDemo/contracts/AccountManagement.sol:AccountManagement",
						"label": "activeMembers",
						"offset": 0,
						"slot": "3",
						"type": "t_mapping(t_address,t_bool)"
					}
				],
				"types": {
					"t_address": {
						"encoding": "inplace",
						"label": "address",
						"numberOfBytes": "20"
					},
					"t_bool": {
						"encoding": "inplace",
						"label": "bool",
						"numberOfBytes": "1"
					},
					"t_mapping(t_address,t_bool)": {
						"encoding": "mapping",
						"key": "t_address",
						"label": "mapping(address => bool)",
						"numberOfBytes": "32",
						"value": "t_bool"
					},
					"t_mapping(t_address,t_struct(User)20_storage)": {
						"encoding": "mapping",
						"key": "t_address",
						"label": "mapping(address => struct AccountManagement.User)",
						"numberOfBytes": "32",
						"value": "t_struct(User)20_storage"
					},
					"t_string_storage": {
						"encoding": "bytes",
						"label": "string",
						"numberOfBytes": "32"
					},
					"t_struct(RoleMap)29_storage": {
						"encoding": "inplace",
						"label": "struct AccountManagement.RoleMap",
						"members": [
							{
								"astId": 22,
								"contract": "OnDemo/contracts/AccountManagement.sol:AccountManagement",
								"label": "isLeader",
								"offset": 0,
								"slot": "0",
								"type": "t_bool"
							},
							{
								"astId": 24,
								"contract": "OnDemo/contracts/AccountManagement.sol:AccountManagement",
								"label": "isCouncilMember",
								"offset": 1,
								"slot": "0",
								"type": "t_bool"
							},
							{
								"astId": 26,
								"contract": "OnDemo/contracts/AccountManagement.sol:AccountManagement",
								"label": "isMember",
								"offset": 2,
								"slot": "0",
								"type": "t_bool"
							},
							{
								"astId": 28,
								"contract": "OnDemo/contracts/AccountManagement.sol:AccountManagement",
								"label": "isGuest",
								"offset": 3,
								"slot": "0",
								"type": "t_bool"
							}
						],
						"numberOfBytes": "32"
					},
					"t_struct(User)20_storage": {
						"encoding": "inplace",
						"label": "struct AccountManagement.User",
						"members": [
							{
								"astId": 8,
								"contract": "OnDemo/contracts/AccountManagement.sol:AccountManagement",
								"label": "userAddress",
								"offset": 0,
								"slot": "0",
								"type": "t_address"
							},
							{
								"astId": 10,
								"contract": "OnDemo/contracts/AccountManagement.sol:AccountManagement",
								"label": "firstName",
								"offset": 0,
								"slot": "1",
								"type": "t_string_storage"
							},
							{
								"astId": 12,
								"contract": "OnDemo/contracts/AccountManagement.sol:AccountManagement",
								"label": "lastName",
								"offset": 0,
								"slot": "2",
								"type": "t_string_storage"
							},
							{
								"astId": 14,
								"contract": "OnDemo/contracts/AccountManagement.sol:AccountManagement",
								"label": "mailAdress",
								"offset": 0,
								"slot": "3",
								"type": "t_string_storage"
							},
							{
								"astId": 16,
								"contract": "OnDemo/contracts/AccountManagement.sol:AccountManagement",
								"label": "isActive",
								"offset": 0,
								"slot": "4",
								"type": "t_bool"
							},
							{
								"astId": 19,
								"contract": "OnDemo/contracts/AccountManagement.sol:AccountManagement",
								"label": "roleMap",
								"offset": 0,
								"slot": "5",
								"type": "t_struct(RoleMap)29_storage"
							}
						],
						"numberOfBytes": "192"
					},
					"t_uint256": {
						"encoding": "inplace",
						"label": "uint256",
						"numberOfBytes": "32"
					}
				}
			},
			"userdoc": {
				"kind": "user",
				"methods": {},
				"version": 1
			}
		}
	}
}