{
	"data": {
		"bytecode": {
			"linkReferences": {},
			"object": "6080604052601c6002556032600355600160045534801561001f57600080fd5b5061b6be80620000306000396000f3fe60806040523480156200001157600080fd5b5060043610620002385760003560e01c80639c1624091162000135578063d0f3725f11620000bd578063e13466551162000087578063e134665514620005d9578063e53d8f1d14620005e5578063ed57bcb71462000607578063f53cabf61462000629578063f7e5b82b146200065f5762000238565b8063d0f3725f146200057d578063d5bc1a00146200059f578063de20b4f114620005ab578063defb4dd614620005b75762000238565b8063c026a05e11620000ff578063c026a05e14620004cd578063c19d93fb14620004ef578063c2e862b41462000511578063c36e4e6c14620005475762000238565b80639c1624091462000433578063a49da4b31462000453578063ada896161462000475578063bea3ff4414620004975762000238565b806349aa4ee211620001c55780636c6c32d0116200018f5780636c6c32d014620003a35780637aa485d014620003af5780637dd4a94514620003cf5780637fe63d7014620003db57806396e3f4c514620004115762000238565b806349aa4ee2146200034757806358e549f0146200035357806362d73eb81462000375578063687b995d14620003815762000238565b80632fd0d87011620002075780632fd0d87014620002c357806336c8c5ee14620002e55780633acd75f814620003055780633e422f5f14620003255762000238565b8063025e7c27146200023d578063107d40351462000273578063159e7064146200027f5780631f164aa714620002a1575b600080fd5b6200025b600480360381019062000255919062004253565b62000681565b6040516200026a9190620042ca565b60405180910390f35b6200027d620006c1565b005b6200028962000852565b60405162000298919062004304565b60405180910390f35b620002ab62000a65565b604051620002ba919062004579565b60405180910390f35b620002cd62000b05565b604051620002dc9190620045ae565b60405180910390f35b620003036004803603810190620002fd919062004253565b62000ba0565b005b6200032360048036038101906200031d9190620045fc565b62000ce5565b005b6200032f62000f78565b6040516200033e9190620046ae565b60405180910390f35b6200035162000f8b565b005b6200035d620010bc565b6040516200036c919062004304565b60405180910390f35b6200037f620012cf565b005b6200038b620014fb565b6040516200039a919062004579565b60405180910390f35b620003ad620016a3565b005b620003cd6004803603810190620003c7919062004253565b62001834565b005b620003d962001968565b005b620003f96004803603810190620003f391906200482f565b62001fc8565b60405162000408919062004304565b60405180910390f35b6200041b620020c4565b6040516200042a919062004304565b60405180910390f35b6200045160048036038101906200044b919062004253565b6200219e565b005b6200045d620022e3565b6040516200046c9190620045ae565b60405180910390f35b6200047f620022e9565b6040516200048e919062004304565b60405180910390f35b620004b56004803603810190620004af9190620045fc565b620024fc565b604051620004c4919062004304565b60405180910390f35b620004d76200262b565b604051620004e6919062004579565b60405180910390f35b620004f9620027aa565b604051620005089190620048d1565b60405180910390f35b6200052f600480360381019062000529919062004253565b620027bd565b6040516200053e9190620042ca565b60405180910390f35b6200056560048036038101906200055f91906200482f565b620027fd565b60405162000574919062004304565b60405180910390f35b62000587620028f9565b60405162000596919062004304565b60405180910390f35b620005a9620029ba565b005b620005b562002e44565b005b620005c16200306f565b604051620005d09190620045ae565b60405180910390f35b620005e362003137565b005b620005ef62003448565b604051620005fe919062004304565b60405180910390f35b620006116200346f565b60405162000620919062004579565b60405180910390f35b6200064760048036038101906200064191906200482f565b62003592565b60405162000656919062004304565b60405180910390f35b620006696200368e565b60405162000678919062004579565b60405180910390f35b600081815481106200069257600080fd5b906000526020600020016000915054906101000a900473ffffffffffffffffffffffffffffffffffffffff1681565b600660039054906101000a900473ffffffffffffffffffffffffffffffffffffffff1673ffffffffffffffffffffffffffffffffffffffff1663fa4d7aae336040518263ffffffff1660e01b81526004016200071e9190620042ca565b602060405180830381865afa1580156200073c573d6000803e3d6000fd5b505050506040513d601f19601f820116820180604052508101906200076291906200491f565b620007a4576040517f08c379a00000000000000000000000000000000000000000000000000000000081526004016200079b90620049d8565b60405180910390fd5b60006005811115620007bb57620007ba6200462e565b5b600660019054906101000a900460ff166005811115620007e057620007df6200462e565b5b141562000813576200080d60016040518060600160405280602481526020016200b60260249139620038e9565b62000850565b6040517f08c379a0000000000000000000000000000000000000000000000000000000008152600401620008479062004a96565b60405180910390fd5b565b600080339050600660039054906101000a900473ffffffffffffffffffffffffffffffffffffffff1673ffffffffffffffffffffffffffffffffffffffff1663056909b7826040518263ffffffff1660e01b8152600401620008b59190620042ca565b602060405180830381865afa158015620008d3573d6000803e3d6000fd5b505050506040513d601f19601f82011682018060405250810190620008f991906200491f565b80620009a25750600660039054906101000a900473ffffffffffffffffffffffffffffffffffffffff1673ffffffffffffffffffffffffffffffffffffffff1663fa4d7aae826040518263ffffffff1660e01b81526004016200095d9190620042ca565b602060405180830381865afa1580156200097b573d6000803e3d6000fd5b505050506040513d601f19601f82011682018060405250810190620009a191906200491f565b5b8062000a4b5750600660039054906101000a900473ffffffffffffffffffffffffffffffffffffffff1673ffffffffffffffffffffffffffffffffffffffff1663297027d5826040518263ffffffff1660e01b815260040162000a069190620042ca565b602060405180830381865afa15801562000a24573d6000803e3d6000fd5b505050506040513d601f19601f8201168201806040525081019062000a4a91906200491f565b5b1562000a5c57600191505062000a62565b60009150505b90565b6060600760009054906101000a900473ffffffffffffffffffffffffffffffffffffffff1673ffffffffffffffffffffffffffffffffffffffff1663cc2ee1966040518163ffffffff1660e01b8152600401600060405180830381865afa15801562000ad5573d6000803e3d6000fd5b505050506040513d6000823e3d601f19601f8201168201806040525081019062000b00919062004da5565b905090565b6000600760009054906101000a900473ffffffffffffffffffffffffffffffffffffffff1673ffffffffffffffffffffffffffffffffffffffff166311174a296040518163ffffffff1660e01b8152600401602060405180830381865afa15801562000b75573d6000803e3d6000fd5b505050506040513d601f19601f8201168201806040525081019062000b9b919062004df6565b905090565b60006002600581111562000bb95762000bb86200462e565b5b600660019054906101000a900460ff16600581111562000bde5762000bdd6200462e565b5b141562000bfa5762000bef620020c4565b62000bf957600190505b5b8062000c3d576040517f08c379a000000000000000000000000000000000000000000000000000000000815260040162000c349062004e9e565b60405180910390fd5b62000c4762000852565b1562000ce157600860009054906101000a900473ffffffffffffffffffffffffffffffffffffffff1673ffffffffffffffffffffffffffffffffffffffff166344d5e03c33846040518363ffffffff1660e01b815260040162000cac92919062004ec0565b600060405180830381600087803b15801562000cc757600080fd5b505af115801562000cdc573d6000803e3d6000fd5b505050505b5050565b600080600581111562000cfd5762000cfc6200462e565b5b600660019054906101000a900460ff16600581111562000d225762000d216200462e565b5b141562000d3e5762000d33620020c4565b62000d3d57600190505b5b8062000d81576040517f08c379a000000000000000000000000000000000000000000000000000000000815260040162000d789062004f63565b60405180910390fd5b62000d8b620010bc565b1562000f375762000d9c82620024fc565b62000ef4576000600660039054906101000a900473ffffffffffffffffffffffffffffffffffffffff1673ffffffffffffffffffffffffffffffffffffffff16636f77926b846040518263ffffffff1660e01b815260040162000e009190620042ca565b600060405180830381865afa15801562000e1e573d6000803e3d6000fd5b505050506040513d6000823e3d601f19601f8201168201806040525081019062000e49919062005119565b9050600760009054906101000a900473ffffffffffffffffffffffffffffffffffffffff1673ffffffffffffffffffffffffffffffffffffffff1663dfecf96b33856000856020015186604001516040518663ffffffff1660e01b815260040162000eb9959493929190620051ab565b600060405180830381600087803b15801562000ed457600080fd5b505af115801562000ee9573d6000803e3d6000fd5b505050505062000f31565b6040517f08c379a000000000000000000000000000000000000000000000000000000000815260040162000f289062005266565b60405180910390fd5b62000f74565b6040517f08c379a000000000000000000000000000000000000000000000000000000000815260040162000f6b90620052d8565b60405180910390fd5b5050565b600660029054906101000a900460ff1681565b60006002600581111562000fa45762000fa36200462e565b5b600660019054906101000a900460ff16600581111562000fc95762000fc86200462e565b5b141562000fe55762000fda620020c4565b62000fe457600190505b5b8062001028576040517f08c379a00000000000000000000000000000000000000000000000000000000081526004016200101f9062004e9e565b60405180910390fd5b600760009054906101000a900473ffffffffffffffffffffffffffffffffffffffff1673ffffffffffffffffffffffffffffffffffffffff16633fd00b0d336040518263ffffffff1660e01b8152600401620010859190620042ca565b600060405180830381600087803b158015620010a057600080fd5b505af1158015620010b5573d6000803e3d6000fd5b5050505050565b600080339050600660039054906101000a900473ffffffffffffffffffffffffffffffffffffffff1673ffffffffffffffffffffffffffffffffffffffff1663056909b7826040518263ffffffff1660e01b81526004016200111f9190620042ca565b602060405180830381865afa1580156200113d573d6000803e3d6000fd5b505050506040513d601f19601f820116820180604052508101906200116391906200491f565b806200120c5750600660039054906101000a900473ffffffffffffffffffffffffffffffffffffffff1673ffffffffffffffffffffffffffffffffffffffff1663fa4d7aae826040518263ffffffff1660e01b8152600401620011c79190620042ca565b602060405180830381865afa158015620011e5573d6000803e3d6000fd5b505050506040513d601f19601f820116820180604052508101906200120b91906200491f565b5b80620012b55750600660039054906101000a900473ffffffffffffffffffffffffffffffffffffffff1673ffffffffffffffffffffffffffffffffffffffff1663297027d5826040518263ffffffff1660e01b8152600401620012709190620042ca565b602060405180830381865afa1580156200128e573d6000803e3d6000fd5b505050506040513d601f19601f82011682018060405250810190620012b491906200491f565b5b15620012c6576001915050620012cc565b60009150505b90565b600660039054906101000a900473ffffffffffffffffffffffffffffffffffffffff1673ffffffffffffffffffffffffffffffffffffffff1663fa4d7aae336040518263ffffffff1660e01b81526004016200132c9190620042ca565b602060405180830381865afa1580156200134a573d6000803e3d6000fd5b505050506040513d601f19601f820116820180604052508101906200137091906200491f565b620013b2576040517f08c379a0000000000000000000000000000000000000000000000000000000008152600401620013a990620049d8565b60405180910390fd5b60016005811115620013c957620013c86200462e565b5b600660019054906101000a900460ff166005811115620013ee57620013ed6200462e565b5b1415620014bc57620013ff6200397d565b600760009054906101000a900473ffffffffffffffffffffffffffffffffffffffff1673ffffffffffffffffffffffffffffffffffffffff1663e6c09edf336040518263ffffffff1660e01b81526004016200145c9190620042ca565b600060405180830381600087803b1580156200147757600080fd5b505af11580156200148c573d6000803e3d6000fd5b50505050620014b660026040518060600160405280602481526020016200b60260249139620038e9565b620014f9565b6040517f08c379a0000000000000000000000000000000000000000000000000000000008152600401620014f09062004a96565b60405180910390fd5b565b60606000600760009054906101000a900473ffffffffffffffffffffffffffffffffffffffff1673ffffffffffffffffffffffffffffffffffffffff1663cc2ee1966040518163ffffffff1660e01b8152600401600060405180830381865afa1580156200156d573d6000803e3d6000fd5b505050506040513d6000823e3d601f19601f8201168201806040525081019062001598919062004da5565b90506000815167ffffffffffffffff811115620015ba57620015b9620046d0565b5b604051908082528060200260200182016040528015620015f757816020015b620015e3620040cf565b815260200190600190039081620015d95790505b5090506000805b835181101562001696578381815181106200161e576200161d620052fa565b5b602002602001015160600151156200168057838181518110620016465762001645620052fa565b5b6020026020010151838381518110620016645762001663620052fa565b5b602002602001018190525081806200167c9062005358565b9250505b80806200168d9062005358565b915050620015fe565b5080825281935050505090565b600660039054906101000a900473ffffffffffffffffffffffffffffffffffffffff1673ffffffffffffffffffffffffffffffffffffffff1663fa4d7aae336040518263ffffffff1660e01b8152600401620017009190620042ca565b602060405180830381865afa1580156200171e573d6000803e3d6000fd5b505050506040513d601f19601f820116820180604052508101906200174491906200491f565b62001786576040517f08c379a00000000000000000000000000000000000000000000000000000000081526004016200177d90620049d8565b60405180910390fd5b600360058111156200179d576200179c6200462e565b5b600660019054906101000a900460ff166005811115620017c257620017c16200462e565b5b1415620017f557620017ef60046040518060600160405280602481526020016200b60260249139620038e9565b62001832565b6040517f08c379a000000000000000000000000000000000000000000000000000000000815260040162001829906200541c565b60405180910390fd5b565b6000600160058111156200184d576200184c6200462e565b5b600660019054906101000a900460ff1660058111156200187257620018716200462e565b5b14156200188e5762001883620020c4565b6200188d57600190505b5b80620018d1576040517f08c379a0000000000000000000000000000000000000000000000000000000008152600401620018c89062004e9e565b60405180910390fd5b600760009054906101000a900473ffffffffffffffffffffffffffffffffffffffff1673ffffffffffffffffffffffffffffffffffffffff166316db2a7a33846040518363ffffffff1660e01b81526004016200193092919062004ec0565b600060405180830381600087803b1580156200194b57600080fd5b505af115801562001960573d6000803e3d6000fd5b505050505050565b6000604051806101400160405280735b38da6a701c568545dcfcb03fcb875f56beddc473ffffffffffffffffffffffffffffffffffffffff1673ffffffffffffffffffffffffffffffffffffffff16815260200173ab8483f64d9c6d1ecf9b849ae677dd3315835cb273ffffffffffffffffffffffffffffffffffffffff1673ffffffffffffffffffffffffffffffffffffffff168152602001734b20993bc481177ec7e8f571cecae8a9e22c02db73ffffffffffffffffffffffffffffffffffffffff1673ffffffffffffffffffffffffffffffffffffffff1681526020017378731d3ca6b7e34ac0f824c42a7cc18a495cabab73ffffffffffffffffffffffffffffffffffffffff1673ffffffffffffffffffffffffffffffffffffffff16815260200173617f2e2fd72fd9d5503197092ac168c91465e7f273ffffffffffffffffffffffffffffffffffffffff1673ffffffffffffffffffffffffffffffffffffffff1681526020017317f6ad8ef982297579c203069c1dbffe4348c37273ffffffffffffffffffffffffffffffffffffffff1673ffffffffffffffffffffffffffffffffffffffff168152602001735c6b0f7bf3e7ce046039bd8fabdfd3f9f502167873ffffffffffffffffffffffffffffffffffffffff1673ffffffffffffffffffffffffffffffffffffffff1681526020017303c6fced478cbbc9a4fab34ef9f40767739d1ff773ffffffffffffffffffffffffffffffffffffffff1673ffffffffffffffffffffffffffffffffffffffff168152602001731ae0ea34a72d944a8c7603ffb3ec30a6669e454c73ffffffffffffffffffffffffffffffffffffffff1673ffffffffffffffffffffffffffffffffffffffff16815260200173ca35b7d915458ef540ade6068dfe2f44e8fa733c73ffffffffffffffffffffffffffffffffffffffff1673ffffffffffffffffffffffffffffffffffffffff1681525090506000600367ffffffffffffffff81111562001c525762001c51620046d0565b5b60405190808252806020026020018201604052801562001c815781602001602082028036833780820191505090505b50905073617f2e2fd72fd9d5503197092ac168c91465e7f28160008151811062001cb05762001caf620052fa565b5b602002602001019073ffffffffffffffffffffffffffffffffffffffff16908173ffffffffffffffffffffffffffffffffffffffff16815250507317f6ad8ef982297579c203069c1dbffe4348c3728160018151811062001d165762001d15620052fa565b5b602002602001019073ffffffffffffffffffffffffffffffffffffffff16908173ffffffffffffffffffffffffffffffffffffffff1681525050735c6b0f7bf3e7ce046039bd8fabdfd3f9f50216788160028151811062001d7c5762001d7b620052fa565b5b602002602001019073ffffffffffffffffffffffffffffffffffffffff16908173ffffffffffffffffffffffffffffffffffffffff168152505073d9145cce52d386f254917e481eb44e9943f39138600660036101000a81548173ffffffffffffffffffffffffffffffffffffffff021916908373ffffffffffffffffffffffffffffffffffffffff16021790555060006040518060400160405280601481526020017f456c656374206e6577206c656164657273686970000000000000000000000000815250905060006040518060600160405280602b81526020016200b65e602b91399050600080600290506000600167ffffffffffffffff81111562001e8a5762001e89620046d0565b5b60405190808252806020026020018201604052801562001eb95781602001602082028036833780820191505090505b509050735b38da6a701c568545dcfcb03fcb875f56beddc48160008151811062001ee85762001ee7620052fa565b5b602002602001019073ffffffffffffffffffffffffffffffffffffffff16908173ffffffffffffffffffffffffffffffffffffffff168152505062001f31818686868662003d37565b62001f7360006040518060400160405280601581526020017f436f6e73756c746174696f6e2063726561746564210000000000000000000000815250620038e9565b60005b865181101562001fbe5762001fa887828151811062001f9a5762001f99620052fa565b5b602002602001015162000ce5565b808062001fb59062005358565b91505062001f76565b5050505050505050565b6000806001905060005b8351811015620020ba57600660039054906101000a900473ffffffffffffffffffffffffffffffffffffffff1673ffffffffffffffffffffffffffffffffffffffff1663fa4d7aae85838151811062002030576200202f620052fa565b5b60200260200101516040518263ffffffff1660e01b8152600401620020569190620042ca565b602060405180830381865afa15801562002074573d6000803e3d6000fd5b505050506040513d601f19601f820116820180604052508101906200209a91906200491f565b620020a457600091505b8080620020b19062005358565b91505062001fd2565b5080915050919050565b600080600090506000429050600062015180600254620020e591906200543e565b600760009054906101000a900473ffffffffffffffffffffffffffffffffffffffff1673ffffffffffffffffffffffffffffffffffffffff1663b90c1dbb6040518163ffffffff1660e01b8152600401602060405180830381865afa15801562002153573d6000803e3d6000fd5b505050506040513d601f19601f8201168201806040525081019062002179919062004df6565b6200218591906200549f565b9050808211156200219557600192505b82935050505090565b600060016005811115620021b757620021b66200462e565b5b600660019054906101000a900460ff166005811115620021dc57620021db6200462e565b5b1415620021f857620021ed620020c4565b620021f757600190505b5b806200223b576040517f08c379a0000000000000000000000000000000000000000000000000000000008152600401620022329062004e9e565b60405180910390fd5b62002245620022e9565b15620022df57600760009054906101000a900473ffffffffffffffffffffffffffffffffffffffff1673ffffffffffffffffffffffffffffffffffffffff166344d5e03c33846040518363ffffffff1660e01b8152600401620022aa92919062004ec0565b600060405180830381600087803b158015620022c557600080fd5b505af1158015620022da573d6000803e3d6000fd5b505050505b5050565b60025481565b600080339050600660039054906101000a900473ffffffffffffffffffffffffffffffffffffffff1673ffffffffffffffffffffffffffffffffffffffff1663056909b7826040518263ffffffff1660e01b81526004016200234c9190620042ca565b602060405180830381865afa1580156200236a573d6000803e3d6000fd5b505050506040513d601f19601f820116820180604052508101906200239091906200491f565b80620024395750600660039054906101000a900473ffffffffffffffffffffffffffffffffffffffff1673ffffffffffffffffffffffffffffffffffffffff1663fa4d7aae826040518263ffffffff1660e01b8152600401620023f49190620042ca565b602060405180830381865afa15801562002412573d6000803e3d6000fd5b505050506040513d601f19601f820116820180604052508101906200243891906200491f565b5b80620024e25750600660039054906101000a900473ffffffffffffffffffffffffffffffffffffffff1673ffffffffffffffffffffffffffffffffffffffff1663297027d5826040518263ffffffff1660e01b81526004016200249d9190620042ca565b602060405180830381865afa158015620024bb573d6000803e3d6000fd5b505050506040513d601f19601f82011682018060405250810190620024e191906200491f565b5b15620024f3576001915050620024f9565b60009150505b90565b600080600760009054906101000a900473ffffffffffffffffffffffffffffffffffffffff1673ffffffffffffffffffffffffffffffffffffffff1663cc2ee1966040518163ffffffff1660e01b8152600401600060405180830381865afa1580156200256d573d6000803e3d6000fd5b505050506040513d6000823e3d601f19601f8201168201806040525081019062002598919062004da5565b905060005b81518110156200261f57818181518110620025bd57620025bc620052fa565b5b60200260200101516020015173ffffffffffffffffffffffffffffffffffffffff168473ffffffffffffffffffffffffffffffffffffffff161415620026095760019250505062002626565b8080620026169062005358565b9150506200259d565b5060009150505b919050565b6060600860009054906101000a900473ffffffffffffffffffffffffffffffffffffffff1673ffffffffffffffffffffffffffffffffffffffff1663c467a69c6040518163ffffffff1660e01b81526004016020604051808303816000875af11580156200269d573d6000803e3d6000fd5b505050506040513d601f19601f82011682018060405250810190620026c391906200491f565b156200276a57600860009054906101000a900473ffffffffffffffffffffffffffffffffffffffff1673ffffffffffffffffffffffffffffffffffffffff1663cc2ee1966040518163ffffffff1660e01b8152600401600060405180830381865afa15801562002737573d6000803e3d6000fd5b505050506040513d6000823e3d601f19601f8201168201806040525081019062002762919062004da5565b9050620027a7565b6040517f08c379a00000000000000000000000000000000000000000000000000000000081526004016200279e906200554c565b60405180910390fd5b90565b600660019054906101000a900460ff1681565b60018181548110620027ce57600080fd5b906000526020600020016000915054906101000a900473ffffffffffffffffffffffffffffffffffffffff1681565b6000806001905060005b8351811015620028ef57600660039054906101000a900473ffffffffffffffffffffffffffffffffffffffff1673ffffffffffffffffffffffffffffffffffffffff1663fa4d7aae858381518110620028655762002864620052fa565b5b60200260200101516040518263ffffffff1660e01b81526004016200288b9190620042ca565b602060405180830381865afa158015620028a9573d6000803e3d6000fd5b505050506040513d601f19601f82011682018060405250810190620028cf91906200491f565b620028d957600091505b8080620028e69062005358565b91505062002807565b5080915050919050565b600080339050600660039054906101000a900473ffffffffffffffffffffffffffffffffffffffff1673ffffffffffffffffffffffffffffffffffffffff1663fa4d7aae826040518263ffffffff1660e01b81526004016200295c9190620042ca565b602060405180830381865afa1580156200297a573d6000803e3d6000fd5b505050506040513d601f19601f82011682018060405250810190620029a091906200491f565b15620029b1576001915050620029b7565b60009150505b90565b60036005811115620029d157620029d06200462e565b5b600660019054906101000a900460ff166005811115620029f657620029f56200462e565b5b141562002e0557600062002a096200368e565b90506000815167ffffffffffffffff81111562002a2b5762002a2a620046d0565b5b60405190808252806020026020018201604052801562002a5a5781602001602082028036833780820191505090505b50905060005b825181101562002af25782818151811062002a805762002a7f620052fa565b5b60200260200101516020015182828151811062002aa25762002aa1620052fa565b5b602002602001019073ffffffffffffffffffffffffffffffffffffffff16908173ffffffffffffffffffffffffffffffffffffffff1681525050808062002ae99062005358565b91505062002a60565b506000600381111562002b0a5762002b096200462e565b5b600660009054906101000a900460ff16600381111562002b2f5762002b2e6200462e565b5b141562002c7a576000600660039054906101000a900473ffffffffffffffffffffffffffffffffffffffff1673ffffffffffffffffffffffffffffffffffffffff166320e05d9c836040518263ffffffff1660e01b815260040162002b9591906200562b565b600060405180830381865afa15801562002bb3573d6000803e3d6000fd5b505050506040513d6000823e3d601f19601f8201168201806040525081019062002bde919062005784565b9050600660039054906101000a900473ffffffffffffffffffffffffffffffffffffffff1673ffffffffffffffffffffffffffffffffffffffff16633d0a8a3433836040518363ffffffff1660e01b815260040162002c3f929190620058a6565b600060405180830381600087803b15801562002c5a57600080fd5b505af115801562002c6f573d6000803e3d6000fd5b505050505062002dfd565b6001600381111562002c915762002c906200462e565b5b600660009054906101000a900460ff16600381111562002cb65762002cb56200462e565b5b141562002dfc576000600660039054906101000a900473ffffffffffffffffffffffffffffffffffffffff1673ffffffffffffffffffffffffffffffffffffffff1663d41450b6836040518263ffffffff1660e01b815260040162002d1c91906200562b565b600060405180830381865afa15801562002d3a573d6000803e3d6000fd5b505050506040513d6000823e3d601f19601f8201168201806040525081019062002d65919062005968565b9050600660039054906101000a900473ffffffffffffffffffffffffffffffffffffffff1673ffffffffffffffffffffffffffffffffffffffff16638ad63c0133836040518363ffffffff1660e01b815260040162002dc692919062005a0f565b600060405180830381600087803b15801562002de157600080fd5b505af115801562002df6573d6000803e3d6000fd5b50505050505b5b505062002e42565b6040517f08c379a000000000000000000000000000000000000000000000000000000000815260040162002e399062005ab9565b60405180910390fd5b565b600660039054906101000a900473ffffffffffffffffffffffffffffffffffffffff1673ffffffffffffffffffffffffffffffffffffffff1663fa4d7aae336040518263ffffffff1660e01b815260040162002ea19190620042ca565b602060405180830381865afa15801562002ebf573d6000803e3d6000fd5b505050506040513d601f19601f8201168201806040525081019062002ee591906200491f565b62002f27576040517f08c379a000000000000000000000000000000000000000000000000000000000815260040162002f1e90620049d8565b60405180910390fd5b6002600581111562002f3e5762002f3d6200462e565b5b600660019054906101000a900460ff16600581111562002f635762002f626200462e565b5b1415620030305762002f7462003448565b1562002fb05762002f84620029ba565b62002faa60036040518060600160405280602481526020016200b60260249139620038e9565b6200302a565b62002fba620020c4565b1562002fec5762002fe660016040518060600160405280603881526020016200b6266038913962003fae565b62003029565b6040517f08c379a0000000000000000000000000000000000000000000000000000000008152600401620030209062005b51565b60405180910390fd5b5b6200306d565b6040517f08c379a0000000000000000000000000000000000000000000000000000000008152600401620030649062005be9565b60405180910390fd5b565b6000806200307c62000b05565b9050600960009054906101000a900473ffffffffffffffffffffffffffffffffffffffff1673ffffffffffffffffffffffffffffffffffffffff1663fd3bad5260035483620030cc91906200543e565b60646040518363ffffffff1660e01b8152600401620030ed92919062005c58565b602060405180830381865afa1580156200310b573d6000803e3d6000fd5b505050506040513d601f19601f8201168201806040525081019062003131919062004df6565b91505090565b60008060058111156200314f576200314e6200462e565b5b600660019054906101000a900460ff1660058111156200317457620031736200462e565b5b1415620031905762003185620020c4565b6200318f57600190505b5b80620031d3576040517f08c379a0000000000000000000000000000000000000000000000000000000008152600401620031ca9062004f63565b60405180910390fd5b6000600760009054906101000a900473ffffffffffffffffffffffffffffffffffffffff1673ffffffffffffffffffffffffffffffffffffffff1663cc2ee1966040518163ffffffff1660e01b8152600401600060405180830381865afa15801562003243573d6000803e3d6000fd5b505050506040513d6000823e3d601f19601f820116820180604052508101906200326e919062004da5565b905060005b81518110156200340757818181518110620032935762003292620052fa565b5b60200260200101516020015173ffffffffffffffffffffffffffffffffffffffff163373ffffffffffffffffffffffffffffffffffffffff161415620033f157818181518110620032e957620032e8620052fa565b5b602002602001015160600151620033b457600760009054906101000a900473ffffffffffffffffffffffffffffffffffffffff1673ffffffffffffffffffffffffffffffffffffffff1663ddd7531b8383815181106200334e576200334d620052fa565b5b6020026020010151600001516040518263ffffffff1660e01b8152600401620033789190620045ae565b600060405180830381600087803b1580156200339357600080fd5b505af1158015620033a8573d6000803e3d6000fd5b50505050505062003445565b6040517f08c379a0000000000000000000000000000000000000000000000000000000008152600401620033e89062005cfb565b60405180910390fd5b8080620033fe9062005358565b91505062003273565b506040517f08c379a00000000000000000000000000000000000000000000000000000000081526004016200343c9062005d6d565b60405180910390fd5b50565b6000806200345562000b05565b90506000620034636200306f565b90508082119250505090565b606060006200347d620014fb565b90506000815167ffffffffffffffff8111156200349f576200349e620046d0565b5b604051908082528060200260200182016040528015620034dc57816020015b620034c8620040cf565b815260200190600190039081620034be5790505b5090506000805b835181101562003585576000848281518110620035055762003504620052fa565b5b602002602001015160c0015190506004548111156200356e57848281518110620035345762003533620052fa565b5b6020026020010151848481518110620035525762003551620052fa565b5b602002602001018190525082806200356a9062005358565b9350505b5080806200357c9062005358565b915050620034e3565b5080825281935050505090565b6000806001905060005b83518110156200368457600660039054906101000a900473ffffffffffffffffffffffffffffffffffffffff1673ffffffffffffffffffffffffffffffffffffffff1663297027d5858381518110620035fa57620035f9620052fa565b5b60200260200101516040518263ffffffff1660e01b8152600401620036209190620042ca565b602060405180830381865afa1580156200363e573d6000803e3d6000fd5b505050506040513d601f19601f820116820180604052508101906200366491906200491f565b6200366e57600091505b80806200367b9062005358565b9150506200359c565b5080915050919050565b6060600860009054906101000a900473ffffffffffffffffffffffffffffffffffffffff1673ffffffffffffffffffffffffffffffffffffffff1663c467a69c6040518163ffffffff1660e01b81526004016020604051808303816000875af115801562003700573d6000803e3d6000fd5b505050506040513d601f19601f820116820180604052508101906200372691906200491f565b62003768576040517f08c379a00000000000000000000000000000000000000000000000000000000081526004016200375f906200554c565b60405180910390fd5b6000620037746200262b565b90506000815167ffffffffffffffff811115620037965762003795620046d0565b5b604051908082528060200260200182016040528015620037d357816020015b620037bf620040cf565b815260200190600190039081620037b55790505b509050620037e0620040cf565b60008060005b8551811015620038da576000868281518110620038085762003807620052fa565b5b602002602001015160c001519050600554831062003873578460c001518111156200386d57868281518110620038435762003842620052fa565b5b6020026020010151868581518110620038615762003860620052fa565b5b60200260200101819052505b620038c3565b868281518110620038895762003888620052fa565b5b6020026020010151868481518110620038a757620038a6620052fa565b5b60200260200101819052508280620038bf9062005358565b9350505b508080620038d19062005358565b915050620037e6565b50808452839550505050505090565b3373ffffffffffffffffffffffffffffffffffffffff167ffc6f5e211098b443015ccb625104a41f61e97a80dd9b8734242a9a8c3eecc8dc600660019054906101000a900460ff168484604051620039449392919062005d8f565b60405180910390a281600660016101000a81548160ff021916908360058111156200397457620039736200462e565b5b02179055505050565b600660039054906101000a900473ffffffffffffffffffffffffffffffffffffffff1673ffffffffffffffffffffffffffffffffffffffff1663fa4d7aae336040518263ffffffff1660e01b8152600401620039da9190620042ca565b602060405180830381865afa158015620039f8573d6000803e3d6000fd5b505050506040513d601f19601f8201168201806040525081019062003a1e91906200491f565b62003a60576040517f08c379a000000000000000000000000000000000000000000000000000000000815260040162003a5790620049d8565b60405180910390fd5b6000600760009054906101000a900473ffffffffffffffffffffffffffffffffffffffff1673ffffffffffffffffffffffffffffffffffffffff1663ff3c1a8f6040518163ffffffff1660e01b8152600401600060405180830381865afa15801562003ad0573d6000803e3d6000fd5b505050506040513d6000823e3d601f19601f8201168201806040525081019062003afb919062005dd3565b90506000600760009054906101000a900473ffffffffffffffffffffffffffffffffffffffff1673ffffffffffffffffffffffffffffffffffffffff16631a0925416040518163ffffffff1660e01b8152600401600060405180830381865afa15801562003b6d573d6000803e3d6000fd5b505050506040513d6000823e3d601f19601f8201168201806040525081019062003b98919062005dd3565b905060008282600160405162003bae906200413a565b62003bbd949392919062005f24565b604051809103906000f08015801562003bda573d6000803e3d6000fd5b50600860006101000a81548173ffffffffffffffffffffffffffffffffffffffff021916908373ffffffffffffffffffffffffffffffffffffffff160217905550600062003c276200346f565b905060005b815181101562003d3157600082828151811062003c4e5762003c4d620052fa565b5b6020026020010151905060008160200151905060008260200151905060008360800151905060008460a001519050600860009054906101000a900473ffffffffffffffffffffffffffffffffffffffff1673ffffffffffffffffffffffffffffffffffffffff1663dfecf96b8486600186866040518663ffffffff1660e01b815260040162003ce2959493929190620051ab565b600060405180830381600087803b15801562003cfd57600080fd5b505af115801562003d12573d6000803e3d6000fd5b505050505050505050808062003d289062005358565b91505062003c2c565b50505050565b600660039054906101000a900473ffffffffffffffffffffffffffffffffffffffff1673ffffffffffffffffffffffffffffffffffffffff1663fa4d7aae336040518263ffffffff1660e01b815260040162003d949190620042ca565b602060405180830381865afa15801562003db2573d6000803e3d6000fd5b505050506040513d601f19601f8201168201806040525081019062003dd891906200491f565b62003e1a576040517f08c379a000000000000000000000000000000000000000000000000000000000815260040162003e1190620049d8565b60405180910390fd5b62003e258562003592565b1562003f6a5760405162003e399062004148565b604051809103906000f08015801562003e56573d6000803e3d6000fd5b50600960006101000a81548173ffffffffffffffffffffffffffffffffffffffff021916908373ffffffffffffffffffffffffffffffffffffffff160217905550848484600060405162003eaa906200413a565b62003eb9949392919062005f86565b604051809103906000f08015801562003ed6573d6000803e3d6000fd5b50600760006101000a81548173ffffffffffffffffffffffffffffffffffffffff021916908373ffffffffffffffffffffffffffffffffffffffff160217905550846000908051906020019062003f2f92919062004156565b5081600660006101000a81548160ff0219169083600381111562003f585762003f576200462e565b5b02179055508060058190555062003fa7565b6040517f08c379a000000000000000000000000000000000000000000000000000000000815260040162003f9e906200605e565b60405180910390fd5b5050505050565b600660039054906101000a900473ffffffffffffffffffffffffffffffffffffffff1673ffffffffffffffffffffffffffffffffffffffff1663fa4d7aae336040518263ffffffff1660e01b81526004016200400b9190620042ca565b602060405180830381865afa15801562004029573d6000803e3d6000fd5b505050506040513d601f19601f820116820180604052508101906200404f91906200491f565b62004091576040517f08c379a00000000000000000000000000000000000000000000000000000000081526004016200408890620049d8565b60405180910390fd5b6200409e600582620038e9565b81600660026101000a81548160ff02191690836002811115620040c657620040c56200462e565b5b02179055505050565b6040518060e0016040528060008152602001600073ffffffffffffffffffffffffffffffffffffffff168152602001600073ffffffffffffffffffffffffffffffffffffffff1681526020016000151581526020016060815260200160608152602001600081525090565b614829806200608183390190565b610d58806200a8aa83390190565b828054828255906000526020600020908101928215620041d2579160200282015b82811115620041d15782518260006101000a81548173ffffffffffffffffffffffffffffffffffffffff021916908373ffffffffffffffffffffffffffffffffffffffff1602179055509160200191906001019062004177565b5b509050620041e19190620041e5565b5090565b5b8082111562004200576000816000905550600101620041e6565b5090565b6000604051905090565b600080fd5b600080fd5b6000819050919050565b6200422d8162004218565b81146200423957600080fd5b50565b6000813590506200424d8162004222565b92915050565b6000602082840312156200426c576200426b6200420e565b5b60006200427c848285016200423c565b91505092915050565b600073ffffffffffffffffffffffffffffffffffffffff82169050919050565b6000620042b28262004285565b9050919050565b620042c481620042a5565b82525050565b6000602082019050620042e16000830184620042b9565b92915050565b60008115159050919050565b620042fe81620042e7565b82525050565b60006020820190506200431b6000830184620042f3565b92915050565b600081519050919050565b600082825260208201905092915050565b6000819050602082019050919050565b620043588162004218565b82525050565b6200436981620042a5565b82525050565b6200437a81620042e7565b82525050565b600081519050919050565b600082825260208201905092915050565b60005b83811015620043bc5780820151818401526020810190506200439f565b83811115620043cc576000848401525b50505050565b6000601f19601f8301169050919050565b6000620043f08262004380565b620043fc81856200438b565b93506200440e8185602086016200439c565b6200441981620043d2565b840191505092915050565b600060e0830160008301516200443e60008601826200434d565b5060208301516200445360208601826200435e565b5060408301516200446860408601826200435e565b5060608301516200447d60608601826200436f565b5060808301518482036080860152620044978282620043e3565b91505060a083015184820360a0860152620044b38282620043e3565b91505060c0830151620044ca60c08601826200434d565b508091505092915050565b6000620044e3838362004424565b905092915050565b6000602082019050919050565b6000620045058262004321565b6200451181856200432c565b93508360208202850162004525856200433d565b8060005b85811015620045675784840389528151620045458582620044d5565b94506200455283620044eb565b925060208a0199505060018101905062004529565b50829750879550505050505092915050565b60006020820190508181036000830152620045958184620044f8565b905092915050565b620045a88162004218565b82525050565b6000602082019050620045c560008301846200459d565b92915050565b620045d681620042a5565b8114620045e257600080fd5b50565b600081359050620045f681620045cb565b92915050565b6000602082840312156200461557620046146200420e565b5b60006200462584828501620045e5565b91505092915050565b7f4e487b7100000000000000000000000000000000000000000000000000000000600052602160045260246000fd5b600381106200467157620046706200462e565b5b50565b600081905062004684826200465d565b919050565b6000620046968262004674565b9050919050565b620046a88162004689565b82525050565b6000602082019050620046c560008301846200469d565b92915050565b600080fd5b7f4e487b7100000000000000000000000000000000000000000000000000000000600052604160045260246000fd5b6200470a82620043d2565b810181811067ffffffffffffffff821117156200472c576200472b620046d0565b5b80604052505050565b60006200474162004204565b90506200474f8282620046ff565b919050565b600067ffffffffffffffff821115620047725762004771620046d0565b5b602082029050602081019050919050565b600080fd5b60006200479f620047998462004754565b62004735565b90508083825260208201905060208402830185811115620047c557620047c462004783565b5b835b81811015620047f25780620047dd8882620045e5565b845260208401935050602081019050620047c7565b5050509392505050565b600082601f830112620048145762004813620046cb565b5b81356200482684826020860162004788565b91505092915050565b6000602082840312156200484857620048476200420e565b5b600082013567ffffffffffffffff81111562004869576200486862004213565b5b6200487784828501620047fc565b91505092915050565b600681106200489457620048936200462e565b5b50565b6000819050620048a78262004880565b919050565b6000620048b98262004897565b9050919050565b620048cb81620048ac565b82525050565b6000602082019050620048e86000830184620048c0565b92915050565b620048f981620042e7565b81146200490557600080fd5b50565b6000815190506200491981620048ee565b92915050565b6000602082840312156200493857620049376200420e565b5b6000620049488482850162004908565b91505092915050565b600082825260208201905092915050565b7f4f6e6c7920636f756e63656c6f72732063616e2075736520746869732066756e60008201527f6374696f6e000000000000000000000000000000000000000000000000000000602082015250565b6000620049c060258362004951565b9150620049cd8262004962565b604082019050919050565b60006020820190508181036000830152620049f381620049b1565b9050919050565b7f436f6e73756c746174696f6e206973206e6f7420696e2074686520274170707260008201527f6f7665642720737461746520616e642063616e207468657265666f7265206e6f60208201527f7420626520737461727465642e00000000000000000000000000000000000000604082015250565b600062004a7e604d8362004951565b915062004a8b82620049fa565b606082019050919050565b6000602082019050818103600083015262004ab18162004a6f565b9050919050565b600067ffffffffffffffff82111562004ad65762004ad5620046d0565b5b602082029050602081019050919050565b600080fd5b600080fd5b60008151905062004b028162004222565b92915050565b60008151905062004b1981620045cb565b92915050565b600080fd5b600067ffffffffffffffff82111562004b425762004b41620046d0565b5b62004b4d82620043d2565b9050602081019050919050565b600062004b7162004b6b8462004b24565b62004735565b90508281526020810184848401111562004b905762004b8f62004b1f565b5b62004b9d8482856200439c565b509392505050565b600082601f83011262004bbd5762004bbc620046cb565b5b815162004bcf84826020860162004b5a565b91505092915050565b600060e0828403121562004bf15762004bf062004ae7565b5b62004bfd60e062004735565b9050600062004c0f8482850162004af1565b600083015250602062004c258482850162004b08565b602083015250604062004c3b8482850162004b08565b604083015250606062004c518482850162004908565b606083015250608082015167ffffffffffffffff81111562004c785762004c7762004aec565b5b62004c868482850162004ba5565b60808301525060a082015167ffffffffffffffff81111562004cad5762004cac62004aec565b5b62004cbb8482850162004ba5565b60a08301525060c062004cd18482850162004af1565b60c08301525092915050565b600062004cf462004cee8462004ab8565b62004735565b9050808382526020820190506020840283018581111562004d1a5762004d1962004783565b5b835b8181101562004d6857805167ffffffffffffffff81111562004d435762004d42620046cb565b5b80860162004d52898262004bd8565b8552602085019450505060208101905062004d1c565b5050509392505050565b600082601f83011262004d8a5762004d89620046cb565b5b815162004d9c84826020860162004cdd565b91505092915050565b60006020828403121562004dbe5762004dbd6200420e565b5b600082015167ffffffffffffffff81111562004ddf5762004dde62004213565b5b62004ded8482850162004d72565b91505092915050565b60006020828403121562004e0f5762004e0e6200420e565b5b600062004e1f8482850162004af1565b91505092915050565b7f54686520706f6c6c206d757374206265206e6f6d696e6174696f6e207374617460008201527f6521000000000000000000000000000000000000000000000000000000000000602082015250565b600062004e8660228362004951565b915062004e938262004e28565b604082019050919050565b6000602082019050818103600083015262004eb98162004e77565b9050919050565b600060408201905062004ed76000830185620042b9565b62004ee660208301846200459d565b9392505050565b7f54686520706f6c6c206d75737420626520696e20616e2061637469766520737460008201527f6174652100000000000000000000000000000000000000000000000000000000602082015250565b600062004f4b60248362004951565b915062004f588262004eed565b604082019050919050565b6000602082019050818103600083015262004f7e8162004f3c565b9050919050565b60006080828403121562004f9e5762004f9d62004ae7565b5b62004faa608062004735565b9050600062004fbc8482850162004908565b600083015250602062004fd28482850162004908565b602083015250604062004fe88482850162004908565b604083015250606062004ffe8482850162004908565b60608301525092915050565b6000610120828403121562005024576200502362004ae7565b5b6200503060c062004735565b90506000620050428482850162004b08565b600083015250602082015167ffffffffffffffff81111562005069576200506862004aec565b5b620050778482850162004ba5565b602083015250604082015167ffffffffffffffff8111156200509e576200509d62004aec565b5b620050ac8482850162004ba5565b604083015250606082015167ffffffffffffffff811115620050d357620050d262004aec565b5b620050e18482850162004ba5565b6060830152506080620050f78482850162004908565b60808301525060a06200510d8482850162004f85565b60a08301525092915050565b6000602082840312156200513257620051316200420e565b5b600082015167ffffffffffffffff81111562005153576200515262004213565b5b62005161848285016200500a565b91505092915050565b6000620051778262004380565b62005183818562004951565b9350620051958185602086016200439c565b620051a081620043d2565b840191505092915050565b600060a082019050620051c26000830188620042b9565b620051d16020830187620042b9565b620051e06040830186620042f3565b8181036060830152620051f481856200516a565b905081810360808301526200520a81846200516a565b90509695505050505050565b7f43616e64696461746520616c7265616479206e6f6d696e617465642100000000600082015250565b60006200524e601c8362004951565b91506200525b8262005216565b602082019050919050565b6000602082019050818103600083015262005281816200523f565b9050919050565b7f4e6f2073756666696369656e7420726967687473210000000000000000000000600082015250565b6000620052c060158362004951565b9150620052cd8262005288565b602082019050919050565b60006020820190508181036000830152620052f381620052b1565b9050919050565b7f4e487b7100000000000000000000000000000000000000000000000000000000600052603260045260246000fd5b7f4e487b7100000000000000000000000000000000000000000000000000000000600052601160045260246000fd5b6000620053658262004218565b91507fffffffffffffffffffffffffffffffffffffffffffffffffffffffffffffffff8214156200539b576200539a62005329565b5b600182019050919050565b7f436f6e73756c746174696f6e206973206e6f7420696e207468652027494e415560008201527f4755524154494f4e272073746174652e00000000000000000000000000000000602082015250565b60006200540460308362004951565b91506200541182620053a6565b604082019050919050565b600060208201905081810360008301526200543781620053f5565b9050919050565b60006200544b8262004218565b9150620054588362004218565b9250817fffffffffffffffffffffffffffffffffffffffffffffffffffffffffffffffff048311821515161562005494576200549362005329565b5b828202905092915050565b6000620054ac8262004218565b9150620054b98362004218565b9250827fffffffffffffffffffffffffffffffffffffffffffffffffffffffffffffffff03821115620054f157620054f062005329565b5b828201905092915050565b7f456c656374696f6e20686173206e6f7420737461727465640000000000000000600082015250565b60006200553460188362004951565b91506200554182620054fc565b602082019050919050565b60006020820190508181036000830152620055678162005525565b9050919050565b600081519050919050565b600082825260208201905092915050565b6000819050602082019050919050565b6000620055a883836200435e565b60208301905092915050565b6000602082019050919050565b6000620055ce826200556e565b620055da818562005579565b9350620055e7836200558a565b8060005b838110156200561e5781516200560288826200559a565b97506200560f83620055b4565b925050600181019050620055eb565b5085935050505092915050565b60006020820190508181036000830152620056478184620055c1565b905092915050565b600062005666620056608462004754565b62004735565b905080838252602082019050602084028301858111156200568c576200568b62004783565b5b835b81811015620056b95780620056a4888262004b08565b8452602084019350506020810190506200568e565b5050509392505050565b600082601f830112620056db57620056da620046cb565b5b8151620056ed8482602086016200564f565b91505092915050565b6000606082840312156200570f576200570e62004ae7565b5b6200571b606062004735565b9050600082015167ffffffffffffffff8111156200573e576200573d62004aec565b5b6200574c84828501620056c3565b6000830152506020620057628482850162004af1565b6020830152506040620057788482850162004908565b60408301525092915050565b6000602082840312156200579d576200579c6200420e565b5b600082015167ffffffffffffffff811115620057be57620057bd62004213565b5b620057cc84828501620056f6565b91505092915050565b600082825260208201905092915050565b6000620057f3826200556e565b620057ff8185620057d5565b93506200580c836200558a565b8060005b83811015620058435781516200582788826200559a565b97506200583483620055b4565b92505060018101905062005810565b5085935050505092915050565b600060608301600083015184820360008601526200586f8282620057e6565b91505060208301516200588660208601826200434d565b5060408301516200589b60408601826200436f565b508091505092915050565b6000604082019050620058bd6000830185620042b9565b8181036020830152620058d1818462005850565b90509392505050565b600060608284031215620058f357620058f262004ae7565b5b620058ff606062004735565b9050600082015167ffffffffffffffff81111562005922576200592162004aec565b5b6200593084828501620056c3565b6000830152506020620059468482850162004af1565b60208301525060406200595c8482850162004908565b60408301525092915050565b6000602082840312156200598157620059806200420e565b5b600082015167ffffffffffffffff811115620059a257620059a162004213565b5b620059b084828501620058da565b91505092915050565b60006060830160008301518482036000860152620059d88282620057e6565b9150506020830151620059ef60208601826200434d565b50604083015162005a0460408601826200436f565b508091505092915050565b600060408201905062005a266000830185620042b9565b818103602083015262005a3a8184620059b9565b90509392505050565b7f456c656374696f6e206973206e6f7420696e20737461746520494e415547555260008201527f4154494f4e000000000000000000000000000000000000000000000000000000602082015250565b600062005aa160258362004951565b915062005aae8262005a43565b604082019050919050565b6000602082019050818103600083015262005ad48162005a92565b9050919050565b7f436f6e73756c746174696f6e20686173206e6f742072656163686564206d696e60008201527f696d756d20766f746572207475726e6f75742e00000000000000000000000000602082015250565b600062005b3960338362004951565b915062005b468262005adb565b604082019050919050565b6000602082019050818103600083015262005b6c8162005b2a565b9050919050565b7f436f6e73756c746174696f6e206973206e6f7420696e207468652027454c454360008201527f54494f4e272073746174652e0000000000000000000000000000000000000000602082015250565b600062005bd1602c8362004951565b915062005bde8262005b73565b604082019050919050565b6000602082019050818103600083015262005c048162005bc2565b9050919050565b6000819050919050565b6000819050919050565b600062005c4062005c3a62005c348462005c0b565b62005c15565b62004218565b9050919050565b62005c528162005c1f565b82525050565b600060408201905062005c6f60008301856200459d565b62005c7e602083018462005c47565b9392505050565b7f43616e64696461747572652077617320616c726561647920616363657074656460008201527f2100000000000000000000000000000000000000000000000000000000000000602082015250565b600062005ce360218362004951565b915062005cf08262005c85565b604082019050919050565b6000602082019050818103600083015262005d168162005cd4565b9050919050565b7f43616e646964617465206973206e6f74206e6f6d696e61746564210000000000600082015250565b600062005d55601b8362004951565b915062005d628262005d1d565b602082019050919050565b6000602082019050818103600083015262005d888162005d46565b9050919050565b600060608201905062005da66000830186620048c0565b62005db56020830185620048c0565b818103604083015262005dc981846200516a565b9050949350505050565b60006020828403121562005dec5762005deb6200420e565b5b600082015167ffffffffffffffff81111562005e0d5762005e0c62004213565b5b62005e1b8482850162004ba5565b91505092915050565b600081549050919050565b60008190508160005260206000209050919050565b60008160001c9050919050565b600073ffffffffffffffffffffffffffffffffffffffff82169050919050565b600062005e8862005e828362005e44565b62005e51565b9050919050565b600062005e9d825462005e71565b9050919050565b6000600182019050919050565b600062005ebe8262005e24565b62005eca818562005579565b935062005ed78362005e2f565b8060005b8381101562005f175762005eef8262005e8f565b62005efb88826200559a565b975062005f088362005ea4565b92505060018101905062005edb565b5085935050505092915050565b6000608082019050818103600083015262005f40818762005eb1565b9050818103602083015262005f5681866200516a565b9050818103604083015262005f6c81856200516a565b905062005f7d6060830184620042f3565b95945050505050565b6000608082019050818103600083015262005fa28187620055c1565b9050818103602083015262005fb881866200516a565b9050818103604083015262005fce81856200516a565b905062005fdf6060830184620042f3565b95945050505050565b7f4f6e65206f72206d6f72652075736572732063616e277420637265617465206160008201527f20636f6e73756c746174696f6e21000000000000000000000000000000000000602082015250565b600062006046602e8362004951565b9150620060538262005fe8565b604082019050919050565b60006020820190508181036000830152620060798162006037565b905091905056fe60806040523480156200001157600080fd5b5060405162004829380380620048298339818101604052810190620000379190620007cc565b604051620000459062000365565b604051809103906000f08015801562000062573d6000803e3d6000fd5b50600960006101000a81548173ffffffffffffffffffffffffffffffffffffffff021916908373ffffffffffffffffffffffffffffffffffffffff160217905550620000b784848484620000c260201b60201c565b505050505062000b26565b6000600960009054906101000a900473ffffffffffffffffffffffffffffffffffffffff1673ffffffffffffffffffffffffffffffffffffffff1663efc6c18c6040518163ffffffff1660e01b8152600401602060405180830381865afa15801562000132573d6000803e3d6000fd5b505050506040513d601f19601f82011682018060405250810190620001589190620008d6565b60008190555083600290805190602001906200017692919062000373565b5082600390805190602001906200018f92919062000373565b50426004819055508460019080519060200190620001af92919062000404565b506000600760006101000a81548160ff02191690836002811115620001d957620001d862000908565b5b021790555081600760016101000a81548160ff0219169083151502179055506200024060016040518060400160405280600d81526020017f506f6c6c206372656174656421000000000000000000000000000000000000008152506200024d60201b60201c565b6000549050949350505050565b81600281111562000263576200026262000908565b5b600760009054906101000a900460ff16600281111562000288576200028762000908565b5b1462000324573373ffffffffffffffffffffffffffffffffffffffff167ffc6f5e211098b443015ccb625104a41f61e97a80dd9b8734242a9a8c3eecc8dc600760009054906101000a900460ff168484604051620002e993929190620009e5565b60405180910390a281600760006101000a81548160ff0219169083600281111562000319576200031862000908565b5b021790555062000361565b6040517f08c379a0000000000000000000000000000000000000000000000000000000008152600401620003589062000a9f565b60405180910390fd5b5050565b610d588062003ad183390190565b828054620003819062000af0565b90600052602060002090601f016020900481019282620003a55760008555620003f1565b82601f10620003c057805160ff1916838001178555620003f1565b82800160010185558215620003f1579182015b82811115620003f0578251825591602001919060010190620003d3565b5b50905062000400919062000493565b5090565b82805482825590600052602060002090810192821562000480579160200282015b828111156200047f5782518260006101000a81548173ffffffffffffffffffffffffffffffffffffffff021916908373ffffffffffffffffffffffffffffffffffffffff1602179055509160200191906001019062000425565b5b5090506200048f919062000493565b5090565b5b80821115620004ae57600081600090555060010162000494565b5090565b6000604051905090565b600080fd5b600080fd5b600080fd5b6000601f19601f8301169050919050565b7f4e487b7100000000000000000000000000000000000000000000000000000000600052604160045260246000fd5b6200051682620004cb565b810181811067ffffffffffffffff82111715620005385762000537620004dc565b5b80604052505050565b60006200054d620004b2565b90506200055b82826200050b565b919050565b600067ffffffffffffffff8211156200057e576200057d620004dc565b5b602082029050602081019050919050565b600080fd5b600073ffffffffffffffffffffffffffffffffffffffff82169050919050565b6000620005c18262000594565b9050919050565b620005d381620005b4565b8114620005df57600080fd5b50565b600081519050620005f381620005c8565b92915050565b6000620006106200060a8462000560565b62000541565b905080838252602082019050602084028301858111156200063657620006356200058f565b5b835b818110156200066357806200064e8882620005e2565b84526020840193505060208101905062000638565b5050509392505050565b600082601f830112620006855762000684620004c6565b5b815162000697848260208601620005f9565b91505092915050565b600080fd5b600067ffffffffffffffff821115620006c357620006c2620004dc565b5b620006ce82620004cb565b9050602081019050919050565b60005b83811015620006fb578082015181840152602081019050620006de565b838111156200070b576000848401525b50505050565b6000620007286200072284620006a5565b62000541565b905082815260208101848484011115620007475762000746620006a0565b5b62000754848285620006db565b509392505050565b600082601f830112620007745762000773620004c6565b5b81516200078684826020860162000711565b91505092915050565b60008115159050919050565b620007a6816200078f565b8114620007b257600080fd5b50565b600081519050620007c6816200079b565b92915050565b60008060008060808587031215620007e957620007e8620004bc565b5b600085015167ffffffffffffffff8111156200080a5762000809620004c1565b5b62000818878288016200066d565b945050602085015167ffffffffffffffff8111156200083c576200083b620004c1565b5b6200084a878288016200075c565b935050604085015167ffffffffffffffff8111156200086e576200086d620004c1565b5b6200087c878288016200075c565b92505060606200088f87828801620007b5565b91505092959194509250565b6000819050919050565b620008b0816200089b565b8114620008bc57600080fd5b50565b600081519050620008d081620008a5565b92915050565b600060208284031215620008ef57620008ee620004bc565b5b6000620008ff84828501620008bf565b91505092915050565b7f4e487b7100000000000000000000000000000000000000000000000000000000600052602160045260246000fd5b600381106200094b576200094a62000908565b5b50565b60008190506200095e8262000937565b919050565b600062000970826200094e565b9050919050565b620009828162000963565b82525050565b600081519050919050565b600082825260208201905092915050565b6000620009b18262000988565b620009bd818562000993565b9350620009cf818560208601620006db565b620009da81620004cb565b840191505092915050565b6000606082019050620009fc600083018662000977565b62000a0b602083018562000977565b818103604083015262000a1f8184620009a4565b9050949350505050565b7f5374617465206e6f74206368616e6765642e204e65772073746174652069732060008201527f7468652073616d65206173206f6c642073746174652100000000000000000000602082015250565b600062000a8760368362000993565b915062000a948262000a29565b604082019050919050565b6000602082019050818103600083015262000aba8162000a78565b9050919050565b7f4e487b7100000000000000000000000000000000000000000000000000000000600052602260045260246000fd5b6000600282049050600182168062000b0957607f821691505b6020821081141562000b205762000b1f62000ac1565b5b50919050565b612f9b8062000b366000396000f3fe608060405234801561001057600080fd5b50600436106101585760003560e01c8063af640d0f116100c3578063ddd7531b1161007c578063ddd7531b1461037f578063dfecf96b1461039b578063e6c09edf146103b7578063fc55e4e8146103d3578063fc81897714610403578063ff3c1a8f1461041f57610158565b8063af640d0f146102cb578063b90c1dbb146102e9578063c19d93fb14610307578063c467a69c14610325578063cc2ee19614610343578063d4b5f16a1461036157610158565b806342169e481161011557806342169e481461021d57806344d5e03c1461023b5780634a79d50c146102575780634f4a3115146102755780637284e4161461029157806373b1a0f1146102af57610158565b8063025e7c271461015d57806311174a291461018d57806316db2a7a146101ab5780631a092541146101c75780631c5a9d9c146101e55780633fd00b0d14610201575b600080fd5b61017760048036038101906101729190612075565b61043d565b60405161018491906120e3565b60405180910390f35b61019561047c565b6040516101a2919061210d565b60405180910390f35b6101c560048036038101906101c09190612154565b610486565b005b6101cf610825565b6040516101dc919061222d565b60405180910390f35b6101ff60048036038101906101fa919061224f565b6108b7565b005b61021b6004803603810190610216919061224f565b6109e9565b005b610225610b69565b604051610232919061210d565b60405180910390f35b61025560048036038101906102509190612154565b610b6f565b005b61025f610f53565b60405161026c919061222d565b60405180910390f35b61028f600480360381019061028a9190612075565b610fe1565b005b6102996110b4565b6040516102a6919061222d565b60405180910390f35b6102c960048036038101906102c4919061224f565b611142565b005b6102d36111b0565b6040516102e09190612295565b60405180910390f35b6102f16111b6565b6040516102fe919061210d565b60405180910390f35b61030f6111c0565b60405161031c9190612327565b60405180910390f35b61032d6111d3565b60405161033a919061235d565b60405180910390f35b61034b611211565b6040516103589190612554565b60405180910390f35b61036961146f565b604051610376919061235d565b60405180910390f35b61039960048036038101906103949190612075565b611482565b005b6103b560048036038101906103b091906126d7565b611555565b005b6103d160048036038101906103cc919061224f565b61186a565b005b6103ed60048036038101906103e89190612075565b61199c565b6040516103fa919061282d565b60405180910390f35b61041d6004803603810190610418919061224f565b611bbe565b005b610427611c2c565b604051610434919061222d565b60405180910390f35b6001818154811061044d57600080fd5b906000526020600020016000915054906101000a900473ffffffffffffffffffffffffffffffffffffffff1681565b6000600654905090565b6001600281111561049a576104996122b0565b5b600760009054906101000a900460ff1660028111156104bc576104bb6122b0565b5b146104fc576040517f08c379a00000000000000000000000000000000000000000000000000000000081526004016104f3906128c1565b60405180910390fd5b600080600860008573ffffffffffffffffffffffffffffffffffffffff1673ffffffffffffffffffffffffffffffffffffffff16815260200190815260200160002080548060200260200160405190810160405280929190818152602001828054801561058857602002820191906000526020600020905b815481526020019060010190808311610574575b505050505090506000815114156105d4576040517f08c379a00000000000000000000000000000000000000000000000000000000081526004016105cb9061292d565b60405180910390fd5b600760019054906101000a900460ff161561063a57600067ffffffffffffffff811115610604576106036125ac565b5b6040519080825280602002602001820160405280156106325781602001602082028036833780820191505090505b50905061073c565b6000805b82518110156106dd5782818151811061065a5761065961294d565b5b60200260200101518514156106ca57600191506001835161067b91906129ab565b8110156106c9578260018261069091906129df565b815181106106a1576106a061294d565b5b60200260200101518382815181106106bc576106bb61294d565b5b6020026020010181815250505b5b80806106d590612a35565b91505061063e565b81156106fe576000600184516106f391906129ab565b905080845250610739565b6040517f08c379a000000000000000000000000000000000000000000000000000000000815260040161073090612af0565b60405180910390fd5b50505b600061074784611cbe565b905080600501600081548092919061075e90612b10565b9190505550600082511415610786576006600081548092919061078090612b10565b91905055505b81600860008773ffffffffffffffffffffffffffffffffffffffff1673ffffffffffffffffffffffffffffffffffffffff16815260200190815260200160002090805190602001906107d9929190611e83565b5060019250508161081f576040517f08c379a000000000000000000000000000000000000000000000000000000000815260040161081690612b86565b60405180910390fd5b50505050565b60606003805461083490612bd5565b80601f016020809104026020016040519081016040528092919081815260200182805461086090612bd5565b80156108ad5780601f10610882576101008083540402835291602001916108ad565b820191906000526020600020905b81548152906001019060200180831161089057829003601f168201915b5050505050905090565b8060006001905060005b60018054905081101561095c57600181815481106108e2576108e161294d565b5b9060005260206000200160009054906101000a900473ffffffffffffffffffffffffffffffffffffffff1673ffffffffffffffffffffffffffffffffffffffff168373ffffffffffffffffffffffffffffffffffffffff161415610949576001915061095c565b808061095490612a35565b9150506108c1565b5060011515811515146109a4576040517f08c379a000000000000000000000000000000000000000000000000000000000815260040161099b90612c79565b60405180910390fd5b6109e460016040518060400160405280600f81526020017f506f6c6c20616374697661746564210000000000000000000000000000000000815250611d7a565b505050565b600160028111156109fd576109fc6122b0565b5b600760009054906101000a900460ff166002811115610a1f57610a1e6122b0565b5b14610a5f576040517f08c379a0000000000000000000000000000000000000000000000000000000008152600401610a56906128c1565b60405180910390fd5b600760019054906101000a900460ff16610aae576040517f08c379a0000000000000000000000000000000000000000000000000000000008152600401610aa590612d0b565b60405180910390fd5b6000600860008373ffffffffffffffffffffffffffffffffffffffff1673ffffffffffffffffffffffffffffffffffffffff168152602001908152602001600020805480602002602001604051908101604052809291908181526020018280548015610b3957602002820191906000526020600020905b815481526020019060010190808311610b25575b50505050509050610b658282600081518110610b5857610b5761294d565b5b6020026020010151610486565b5050565b60065481565b60016002811115610b8357610b826122b0565b5b600760009054906101000a900460ff166002811115610ba557610ba46122b0565b5b14610be5576040517f08c379a0000000000000000000000000000000000000000000000000000000008152600401610bdc906128c1565b60405180910390fd5b6000610bf082611cbe565b90508060020160149054906101000a900460ff1615610f13576000600860008573ffffffffffffffffffffffffffffffffffffffff1673ffffffffffffffffffffffffffffffffffffffff1681526020019081526020016000209050600081805490501415610d3a576000600167ffffffffffffffff811115610c7657610c756125ac565b5b604051908082528060200260200182016040528015610ca45781602001602082028036833780820191505090505b5090508381600081518110610cbc57610cbb61294d565b5b60200260200101818152505080600860008773ffffffffffffffffffffffffffffffffffffffff1673ffffffffffffffffffffffffffffffffffffffff1681526020019081526020016000209080519060200190610d1b929190611e83565b5060066000815480929190610d2f90612a35565b919050555050610ef3565b600760019054906101000a900460ff1615610e4057600081600081548110610d6557610d6461294d565b5b906000526020600020015490506000610d7d82611cbe565b905081851415610dc2576040517f08c379a0000000000000000000000000000000000000000000000000000000008152600401610db990612d9d565b60405180910390fd5b806005016000815480929190610dd790612b10565b9190505550604051806020016040528086815250600860008873ffffffffffffffffffffffffffffffffffffffff1673ffffffffffffffffffffffffffffffffffffffff168152602001908152602001600020906001610e38929190611ed0565b505050610ef2565b60005b8180549050811015610ec8576000828281548110610e6457610e6361294d565b5b9060005260206000200154905084811415610eb4576040517f08c379a0000000000000000000000000000000000000000000000000000000008152600401610eab90612d9d565b60405180910390fd5b508080610ec090612a35565b915050610e43565b50808390806001815401808255809150506001900390600052602060002001600090919091909150555b5b816005016000815480929190610f0890612a35565b919050555050610f4e565b6040517f08c379a0000000000000000000000000000000000000000000000000000000008152600401610f4590612e09565b60405180910390fd5b505050565b60028054610f6090612bd5565b80601f0160208091040260200160405190810160405280929190818152602001828054610f8c90612bd5565b8015610fd95780601f10610fae57610100808354040283529160200191610fd9565b820191906000526020600020905b815481529060010190602001808311610fbc57829003601f168201915b505050505081565b60005b6005805490508110156110755781600582815481106110065761100561294d565b5b9060005260206000209060060201600001541415611062576000600582815481106110345761103361294d565b5b906000526020600020906006020160020160146101000a81548160ff021916908315150217905550506110b1565b808061106d90612a35565b915050610fe4565b506040517f08c379a00000000000000000000000000000000000000000000000000000000081526004016110a890612e75565b60405180910390fd5b50565b600380546110c190612bd5565b80601f01602080910402602001604051908101604052809291908181526020018280546110ed90612bd5565b801561113a5780601f1061110f5761010080835404028352916020019161113a565b820191906000526020600020905b81548152906001019060200180831161111d57829003601f168201915b505050505081565b3073ffffffffffffffffffffffffffffffffffffffff1663e6c09edf826040518263ffffffff1660e01b815260040161117b91906120e3565b600060405180830381600087803b15801561119557600080fd5b505af11580156111a9573d6000803e3d6000fd5b5050505050565b60005481565b6000600454905090565b600760009054906101000a900460ff1681565b6000600160028111156111e9576111e86122b0565b5b600760009054906101000a900460ff16600281111561120b5761120a6122b0565b5b14905090565b60606005805480602002602001604051908101604052809291908181526020016000905b8282101561146657838290600052602060002090600602016040518060e0016040529081600082015481526020016001820160009054906101000a900473ffffffffffffffffffffffffffffffffffffffff1673ffffffffffffffffffffffffffffffffffffffff1673ffffffffffffffffffffffffffffffffffffffff1681526020016002820160009054906101000a900473ffffffffffffffffffffffffffffffffffffffff1673ffffffffffffffffffffffffffffffffffffffff1673ffffffffffffffffffffffffffffffffffffffff1681526020016002820160149054906101000a900460ff1615151515815260200160038201805461133990612bd5565b80601f016020809104026020016040519081016040528092919081815260200182805461136590612bd5565b80156113b25780601f10611387576101008083540402835291602001916113b2565b820191906000526020600020905b81548152906001019060200180831161139557829003601f168201915b505050505081526020016004820180546113cb90612bd5565b80601f01602080910402602001604051908101604052809291908181526020018280546113f790612bd5565b80156114445780601f1061141957610100808354040283529160200191611444565b820191906000526020600020905b81548152906001019060200180831161142757829003601f168201915b5050505050815260200160058201548152505081526020019060010190611235565b50505050905090565b600760019054906101000a900460ff1681565b60005b6005805490508110156115165781600582815481106114a7576114a661294d565b5b9060005260206000209060060201600001541415611503576001600582815481106114d5576114d461294d565b5b906000526020600020906006020160020160146101000a81548160ff02191690831515021790555050611552565b808061150e90612a35565b915050611485565b506040517f08c379a000000000000000000000000000000000000000000000000000000000815260040161154990612e75565b60405180910390fd5b50565b60016002811115611569576115686122b0565b5b600760009054906101000a900460ff16600281111561158b5761158a6122b0565b5b146115cb576040517f08c379a00000000000000000000000000000000000000000000000000000000081526004016115c2906128c1565b60405180910390fd5b8460006001905060005b60018054905081101561167057600181815481106115f6576115f561294d565b5b9060005260206000200160009054906101000a900473ffffffffffffffffffffffffffffffffffffffff1673ffffffffffffffffffffffffffffffffffffffff168373ffffffffffffffffffffffffffffffffffffffff16141561165d5760019150611670565b808061166890612a35565b9150506115d5565b5060011515811515146116b8576040517f08c379a00000000000000000000000000000000000000000000000000000000081526004016116af90612c79565b60405180910390fd5b60006103e86005805490506116cd91906129df565b905060006040518060e001604052808381526020018973ffffffffffffffffffffffffffffffffffffffff1681526020018a73ffffffffffffffffffffffffffffffffffffffff16815260200188151581526020018781526020018681526020016000815250905060058190806001815401808255809150506001900390600052602060002090600602016000909190919091506000820151816000015560208201518160010160006101000a81548173ffffffffffffffffffffffffffffffffffffffff021916908373ffffffffffffffffffffffffffffffffffffffff16021790555060408201518160020160006101000a81548173ffffffffffffffffffffffffffffffffffffffff021916908373ffffffffffffffffffffffffffffffffffffffff16021790555060608201518160020160146101000a81548160ff0219169083151502179055506080820151816003019080519060200190611835929190611f1d565b5060a0820151816004019080519060200190611852929190611f1d565b5060c082015181600501555050505050505050505050565b8060006001905060005b60018054905081101561190f57600181815481106118955761189461294d565b5b9060005260206000200160009054906101000a900473ffffffffffffffffffffffffffffffffffffffff1673ffffffffffffffffffffffffffffffffffffffff168373ffffffffffffffffffffffffffffffffffffffff1614156118fc576001915061190f565b808061190790612a35565b915050611874565b506001151581151514611957576040517f08c379a000000000000000000000000000000000000000000000000000000000815260040161194e90612c79565b60405180910390fd5b61199760026040518060400160405280600e81526020017f506f6c6c2064697361626c656421000000000000000000000000000000000000815250611d7a565b505050565b6119a4611fa3565b6119ad82611cbe565b6040518060e0016040529081600082015481526020016001820160009054906101000a900473ffffffffffffffffffffffffffffffffffffffff1673ffffffffffffffffffffffffffffffffffffffff1673ffffffffffffffffffffffffffffffffffffffff1681526020016002820160009054906101000a900473ffffffffffffffffffffffffffffffffffffffff1673ffffffffffffffffffffffffffffffffffffffff1673ffffffffffffffffffffffffffffffffffffffff1681526020016002820160149054906101000a900460ff16151515158152602001600382018054611a9990612bd5565b80601f0160208091040260200160405190810160405280929190818152602001828054611ac590612bd5565b8015611b125780601f10611ae757610100808354040283529160200191611b12565b820191906000526020600020905b815481529060010190602001808311611af557829003601f168201915b50505050508152602001600482018054611b2b90612bd5565b80601f0160208091040260200160405190810160405280929190818152602001828054611b5790612bd5565b8015611ba45780601f10611b7957610100808354040283529160200191611ba4565b820191906000526020600020905b815481529060010190602001808311611b8757829003601f168201915b505050505081526020016005820154815250509050919050565b3073ffffffffffffffffffffffffffffffffffffffff16631c5a9d9c826040518263ffffffff1660e01b8152600401611bf791906120e3565b600060405180830381600087803b158015611c1157600080fd5b505af1158015611c25573d6000803e3d6000fd5b5050505050565b606060028054611c3b90612bd5565b80601f0160208091040260200160405190810160405280929190818152602001828054611c6790612bd5565b8015611cb45780601f10611c8957610100808354040283529160200191611cb4565b820191906000526020600020905b815481529060010190602001808311611c9757829003601f168201915b5050505050905090565b6000805b600580549050811015611d39578260058281548110611ce457611ce361294d565b5b9060005260206000209060060201600001541415611d265760058181548110611d1057611d0f61294d565b5b9060005260206000209060060201915050611d75565b8080611d3190612a35565b915050611cc2565b506040517f08c379a0000000000000000000000000000000000000000000000000000000008152600401611d6c90612e75565b60405180910390fd5b919050565b816002811115611d8d57611d8c6122b0565b5b600760009054906101000a900460ff166002811115611daf57611dae6122b0565b5b14611e44573373ffffffffffffffffffffffffffffffffffffffff167ffc6f5e211098b443015ccb625104a41f61e97a80dd9b8734242a9a8c3eecc8dc600760009054906101000a900460ff168484604051611e0d93929190612e95565b60405180910390a281600760006101000a81548160ff02191690836002811115611e3a57611e396122b0565b5b0217905550611e7f565b6040517f08c379a0000000000000000000000000000000000000000000000000000000008152600401611e7690612f45565b60405180910390fd5b5050565b828054828255906000526020600020908101928215611ebf579160200282015b82811115611ebe578251825591602001919060010190611ea3565b5b509050611ecc919061200e565b5090565b828054828255906000526020600020908101928215611f0c579160200282015b82811115611f0b578251825591602001919060010190611ef0565b5b509050611f19919061200e565b5090565b828054611f2990612bd5565b90600052602060002090601f016020900481019282611f4b5760008555611f92565b82601f10611f6457805160ff1916838001178555611f92565b82800160010185558215611f92579182015b82811115611f91578251825591602001919060010190611f76565b5b509050611f9f919061200e565b5090565b6040518060e0016040528060008152602001600073ffffffffffffffffffffffffffffffffffffffff168152602001600073ffffffffffffffffffffffffffffffffffffffff1681526020016000151581526020016060815260200160608152602001600081525090565b5b8082111561202757600081600090555060010161200f565b5090565b6000604051905090565b600080fd5b600080fd5b6000819050919050565b6120528161203f565b811461205d57600080fd5b50565b60008135905061206f81612049565b92915050565b60006020828403121561208b5761208a612035565b5b600061209984828501612060565b91505092915050565b600073ffffffffffffffffffffffffffffffffffffffff82169050919050565b60006120cd826120a2565b9050919050565b6120dd816120c2565b82525050565b60006020820190506120f860008301846120d4565b92915050565b6121078161203f565b82525050565b600060208201905061212260008301846120fe565b92915050565b612131816120c2565b811461213c57600080fd5b50565b60008135905061214e81612128565b92915050565b6000806040838503121561216b5761216a612035565b5b60006121798582860161213f565b925050602061218a85828601612060565b9150509250929050565b600081519050919050565b600082825260208201905092915050565b60005b838110156121ce5780820151818401526020810190506121b3565b838111156121dd576000848401525b50505050565b6000601f19601f8301169050919050565b60006121ff82612194565b612209818561219f565b93506122198185602086016121b0565b612222816121e3565b840191505092915050565b6000602082019050818103600083015261224781846121f4565b905092915050565b60006020828403121561226557612264612035565b5b60006122738482850161213f565b91505092915050565b6000819050919050565b61228f8161227c565b82525050565b60006020820190506122aa6000830184612286565b92915050565b7f4e487b7100000000000000000000000000000000000000000000000000000000600052602160045260246000fd5b600381106122f0576122ef6122b0565b5b50565b6000819050612301826122df565b919050565b6000612311826122f3565b9050919050565b61232181612306565b82525050565b600060208201905061233c6000830184612318565b92915050565b60008115159050919050565b61235781612342565b82525050565b6000602082019050612372600083018461234e565b92915050565b600081519050919050565b600082825260208201905092915050565b6000819050602082019050919050565b6123ad8161203f565b82525050565b6123bc816120c2565b82525050565b6123cb81612342565b82525050565b600082825260208201905092915050565b60006123ed82612194565b6123f781856123d1565b93506124078185602086016121b0565b612410816121e3565b840191505092915050565b600060e08301600083015161243360008601826123a4565b50602083015161244660208601826123b3565b50604083015161245960408601826123b3565b50606083015161246c60608601826123c2565b506080830151848203608086015261248482826123e2565b91505060a083015184820360a086015261249e82826123e2565b91505060c08301516124b360c08601826123a4565b508091505092915050565b60006124ca838361241b565b905092915050565b6000602082019050919050565b60006124ea82612378565b6124f48185612383565b93508360208202850161250685612394565b8060005b85811015612542578484038952815161252385826124be565b945061252e836124d2565b925060208a0199505060018101905061250a565b50829750879550505050505092915050565b6000602082019050818103600083015261256e81846124df565b905092915050565b61257f81612342565b811461258a57600080fd5b50565b60008135905061259c81612576565b92915050565b600080fd5b600080fd5b7f4e487b7100000000000000000000000000000000000000000000000000000000600052604160045260246000fd5b6125e4826121e3565b810181811067ffffffffffffffff82111715612603576126026125ac565b5b80604052505050565b600061261661202b565b905061262282826125db565b919050565b600067ffffffffffffffff821115612642576126416125ac565b5b61264b826121e3565b9050602081019050919050565b82818337600083830152505050565b600061267a61267584612627565b61260c565b905082815260208101848484011115612696576126956125a7565b5b6126a1848285612658565b509392505050565b600082601f8301126126be576126bd6125a2565b5b81356126ce848260208601612667565b91505092915050565b600080600080600060a086880312156126f3576126f2612035565b5b60006127018882890161213f565b95505060206127128882890161213f565b94505060406127238882890161258d565b935050606086013567ffffffffffffffff8111156127445761274361203a565b5b612750888289016126a9565b925050608086013567ffffffffffffffff8111156127715761277061203a565b5b61277d888289016126a9565b9150509295509295909350565b600060e0830160008301516127a260008601826123a4565b5060208301516127b560208601826123b3565b5060408301516127c860408601826123b3565b5060608301516127db60608601826123c2565b50608083015184820360808601526127f382826123e2565b91505060a083015184820360a086015261280d82826123e2565b91505060c083015161282260c08601826123a4565b508091505092915050565b60006020820190508181036000830152612847818461278a565b905092915050565b7f54686520706f6c6c206d75737420626520696e20616e2061637469766520737460008201527f6174652e00000000000000000000000000000000000000000000000000000000602082015250565b60006128ab60248361219f565b91506128b68261284f565b604082019050919050565b600060208201905081810360008301526128da8161289e565b9050919050565b7f5573657220646964206e6f7420766f7465207965740000000000000000000000600082015250565b600061291760158361219f565b9150612922826128e1565b602082019050919050565b600060208201905081810360008301526129468161290a565b9050919050565b7f4e487b7100000000000000000000000000000000000000000000000000000000600052603260045260246000fd5b7f4e487b7100000000000000000000000000000000000000000000000000000000600052601160045260246000fd5b60006129b68261203f565b91506129c18361203f565b9250828210156129d4576129d361297c565b5b828203905092915050565b60006129ea8261203f565b91506129f58361203f565b9250827fffffffffffffffffffffffffffffffffffffffffffffffffffffffffffffffff03821115612a2a57612a2961297c565b5b828201905092915050565b6000612a408261203f565b91507fffffffffffffffffffffffffffffffffffffffffffffffffffffffffffffffff821415612a7357612a7261297c565b5b600182019050919050565b7f5573657220646964206e6f7420766f746520666f722074686973206f7074696f60008201527f6e207965742e0000000000000000000000000000000000000000000000000000602082015250565b6000612ada60268361219f565b9150612ae582612a7e565b604082019050919050565b60006020820190508181036000830152612b0981612acd565b9050919050565b6000612b1b8261203f565b91506000821415612b2f57612b2e61297c565b5b600182039050919050565b7f556e61626c6520746f2072656d6f766520766f74650000000000000000000000600082015250565b6000612b7060158361219f565b9150612b7b82612b3a565b602082019050919050565b60006020820190508181036000830152612b9f81612b63565b9050919050565b7f4e487b7100000000000000000000000000000000000000000000000000000000600052602260045260246000fd5b60006002820490506001821680612bed57607f821691505b60208210811415612c0157612c00612ba6565b5b50919050565b7f4f6e6c79206f776e6572732063616e2063616c6c20746869732066756e63746960008201527f6f6e000000000000000000000000000000000000000000000000000000000000602082015250565b6000612c6360228361219f565b9150612c6e82612c07565b604082019050919050565b60006020820190508181036000830152612c9281612c56565b9050919050565b7f506c656173652070726f7669646520776869636820766f74652073686f756c6460008201527f2062652072656d6f766564000000000000000000000000000000000000000000602082015250565b6000612cf5602b8361219f565b9150612d0082612c99565b604082019050919050565b60006020820190508181036000830152612d2481612ce8565b9050919050565b7f5573657220616c726561647920766f74656420666f722074686973206f70746960008201527f6f6e000000000000000000000000000000000000000000000000000000000000602082015250565b6000612d8760228361219f565b9150612d9282612d2b565b604082019050919050565b60006020820190508181036000830152612db681612d7a565b9050919050565b7f4f7074696f6e206973206e6f7420616374697665210000000000000000000000600082015250565b6000612df360158361219f565b9150612dfe82612dbd565b602082019050919050565b60006020820190508181036000830152612e2281612de6565b9050919050565b7f4e6f7420666f756e640000000000000000000000000000000000000000000000600082015250565b6000612e5f60098361219f565b9150612e6a82612e29565b602082019050919050565b60006020820190508181036000830152612e8e81612e52565b9050919050565b6000606082019050612eaa6000830186612318565b612eb76020830185612318565b8181036040830152612ec981846121f4565b9050949350505050565b7f5374617465206e6f74206368616e6765642e204e65772073746174652069732060008201527f7468652073616d65206173206f6c642073746174652100000000000000000000602082015250565b6000612f2f60368361219f565b9150612f3a82612ed3565b604082019050919050565b60006020820190508181036000830152612f5e81612f22565b905091905056fea264697066735822122058aad7758e7d25ae698e72ebd42bfbf39961975b12c969e8c6956bd0874e01eb64736f6c634300080c0033608060405234801561001057600080fd5b50610d38806100206000396000f3fe608060405234801561001057600080fd5b506004361061004c5760003560e01c80632c6e75981461005157806369f9ad2f14610081578063efc6c18c146100b1578063fd3bad52146100cf575b600080fd5b61006b600480360381019061006691906104df565b6100ff565b60405161007891906105a5565b60405180910390f35b61009b6004803603810190610096919061061f565b6103a4565b6040516100a8919061065b565b60405180910390f35b6100b96103ea565b6040516100c6919061068f565b60405180910390f35b6100e960048036038101906100e491906106e0565b61043e565b6040516100f6919061072f565b60405180910390f35b60606000602867ffffffffffffffff81111561011e5761011d61074a565b5b6040519080825280601f01601f1916602001820160405280156101505781602001600182028036833780820191505090505b50905060005b601481101561039a57600081601361016e91906107a8565b600861017a91906107dc565b60026101869190610969565b8573ffffffffffffffffffffffffffffffffffffffff166101a791906109e3565b60f81b9050600060108260f81c6101be9190610a21565b60f81b905060008160f81c60106101d59190610a52565b8360f81c6101e39190610a8d565b60f81b90503073ffffffffffffffffffffffffffffffffffffffff166369f9ad2f836040518263ffffffff1660e01b8152600401610221919061065b565b602060405180830381865afa15801561023e573d6000803e3d6000fd5b505050506040513d601f19601f820116820180604052508101906102629190610ad6565b8585600261027091906107dc565b8151811061028157610280610b03565b5b60200101907effffffffffffffffffffffffffffffffffffffffffffffffffffffffffffff1916908160001a9053503073ffffffffffffffffffffffffffffffffffffffff166369f9ad2f826040518263ffffffff1660e01b81526004016102e9919061065b565b602060405180830381865afa158015610306573d6000803e3d6000fd5b505050506040513d601f19601f8201168201806040525081019061032a9190610ad6565b85600186600261033a91906107dc565b6103449190610b32565b8151811061035557610354610b03565b5b60200101907effffffffffffffffffffffffffffffffffffffffffffffffffffffffffffff1916908160001a905350505050808061039290610b88565b915050610156565b5080915050919050565b6000600a8260f81c60ff1610156103cf5760308260f81c6103c59190610bd1565b60f81b90506103e5565b60578260f81c6103df9190610bd1565b60f81b90505b919050565b6000806000905060008142444160405160200161040a9493929190610c83565b6040516020818303038152906040528051906020012060001c9050818061043090610b88565b9250508060001b9250505090565b600080828461044d91906109e3565b90506000838561045d9190610cd1565b146104725760018161046f9190610b32565b90505b8091505092915050565b600080fd5b600073ffffffffffffffffffffffffffffffffffffffff82169050919050565b60006104ac82610481565b9050919050565b6104bc816104a1565b81146104c757600080fd5b50565b6000813590506104d9816104b3565b92915050565b6000602082840312156104f5576104f461047c565b5b6000610503848285016104ca565b91505092915050565b600081519050919050565b600082825260208201905092915050565b60005b8381101561054657808201518184015260208101905061052b565b83811115610555576000848401525b50505050565b6000601f19601f8301169050919050565b60006105778261050c565b6105818185610517565b9350610591818560208601610528565b61059a8161055b565b840191505092915050565b600060208201905081810360008301526105bf818461056c565b905092915050565b60007fff0000000000000000000000000000000000000000000000000000000000000082169050919050565b6105fc816105c7565b811461060757600080fd5b50565b600081359050610619816105f3565b92915050565b6000602082840312156106355761063461047c565b5b60006106438482850161060a565b91505092915050565b610655816105c7565b82525050565b6000602082019050610670600083018461064c565b92915050565b6000819050919050565b61068981610676565b82525050565b60006020820190506106a46000830184610680565b92915050565b6000819050919050565b6106bd816106aa565b81146106c857600080fd5b50565b6000813590506106da816106b4565b92915050565b600080604083850312156106f7576106f661047c565b5b6000610705858286016106cb565b9250506020610716858286016106cb565b9150509250929050565b610729816106aa565b82525050565b60006020820190506107446000830184610720565b92915050565b7f4e487b7100000000000000000000000000000000000000000000000000000000600052604160045260246000fd5b7f4e487b7100000000000000000000000000000000000000000000000000000000600052601160045260246000fd5b60006107b3826106aa565b91506107be836106aa565b9250828210156107d1576107d0610779565b5b828203905092915050565b60006107e7826106aa565b91506107f2836106aa565b9250817fffffffffffffffffffffffffffffffffffffffffffffffffffffffffffffffff048311821515161561082b5761082a610779565b5b828202905092915050565b60008160011c9050919050565b6000808291508390505b600185111561088d5780860481111561086957610868610779565b5b60018516156108785780820291505b808102905061088685610836565b945061084d565b94509492505050565b6000826108a65760019050610962565b816108b45760009050610962565b81600181146108ca57600281146108d457610903565b6001915050610962565b60ff8411156108e6576108e5610779565b5b8360020a9150848211156108fd576108fc610779565b5b50610962565b5060208310610133831016604e8410600b84101617156109385782820a90508381111561093357610932610779565b5b610962565b6109458484846001610843565b9250905081840481111561095c5761095b610779565b5b81810290505b9392505050565b6000610974826106aa565b915061097f836106aa565b92506109ac7fffffffffffffffffffffffffffffffffffffffffffffffffffffffffffffffff8484610896565b905092915050565b7f4e487b7100000000000000000000000000000000000000000000000000000000600052601260045260246000fd5b60006109ee826106aa565b91506109f9836106aa565b925082610a0957610a086109b4565b5b828204905092915050565b600060ff82169050919050565b6000610a2c82610a14565b9150610a3783610a14565b925082610a4757610a466109b4565b5b828204905092915050565b6000610a5d82610a14565b9150610a6883610a14565b92508160ff0483118215151615610a8257610a81610779565b5b828202905092915050565b6000610a9882610a14565b9150610aa383610a14565b925082821015610ab657610ab5610779565b5b828203905092915050565b600081519050610ad0816105f3565b92915050565b600060208284031215610aec57610aeb61047c565b5b6000610afa84828501610ac1565b91505092915050565b7f4e487b7100000000000000000000000000000000000000000000000000000000600052603260045260246000fd5b6000610b3d826106aa565b9150610b48836106aa565b9250827fffffffffffffffffffffffffffffffffffffffffffffffffffffffffffffffff03821115610b7d57610b7c610779565b5b828201905092915050565b6000610b93826106aa565b91507fffffffffffffffffffffffffffffffffffffffffffffffffffffffffffffffff821415610bc657610bc5610779565b5b600182019050919050565b6000610bdc82610a14565b9150610be783610a14565b92508260ff03821115610bfd57610bfc610779565b5b828201905092915050565b6000819050919050565b610c23610c1e826106aa565b610c08565b82525050565b6000610c3482610481565b9050919050565b60008160601b9050919050565b6000610c5382610c3b565b9050919050565b6000610c6582610c48565b9050919050565b610c7d610c7882610c29565b610c5a565b82525050565b6000610c8f8287610c12565b602082019150610c9f8286610c12565b602082019150610caf8285610c12565b602082019150610cbf8284610c6c565b60148201915081905095945050505050565b6000610cdc826106aa565b9150610ce7836106aa565b925082610cf757610cf66109b4565b5b82820690509291505056fea2646970667358221220afdabdb32a7fce47c4c67b84dd14c00ddd90189c2e876036d806ed9ae30bf64264736f6c634300080c0033608060405234801561001057600080fd5b50610d38806100206000396000f3fe608060405234801561001057600080fd5b506004361061004c5760003560e01c80632c6e75981461005157806369f9ad2f14610081578063efc6c18c146100b1578063fd3bad52146100cf575b600080fd5b61006b600480360381019061006691906104df565b6100ff565b60405161007891906105a5565b60405180910390f35b61009b6004803603810190610096919061061f565b6103a4565b6040516100a8919061065b565b60405180910390f35b6100b96103ea565b6040516100c6919061068f565b60405180910390f35b6100e960048036038101906100e491906106e0565b61043e565b6040516100f6919061072f565b60405180910390f35b60606000602867ffffffffffffffff81111561011e5761011d61074a565b5b6040519080825280601f01601f1916602001820160405280156101505781602001600182028036833780820191505090505b50905060005b601481101561039a57600081601361016e91906107a8565b600861017a91906107dc565b60026101869190610969565b8573ffffffffffffffffffffffffffffffffffffffff166101a791906109e3565b60f81b9050600060108260f81c6101be9190610a21565b60f81b905060008160f81c60106101d59190610a52565b8360f81c6101e39190610a8d565b60f81b90503073ffffffffffffffffffffffffffffffffffffffff166369f9ad2f836040518263ffffffff1660e01b8152600401610221919061065b565b602060405180830381865afa15801561023e573d6000803e3d6000fd5b505050506040513d601f19601f820116820180604052508101906102629190610ad6565b8585600261027091906107dc565b8151811061028157610280610b03565b5b60200101907effffffffffffffffffffffffffffffffffffffffffffffffffffffffffffff1916908160001a9053503073ffffffffffffffffffffffffffffffffffffffff166369f9ad2f826040518263ffffffff1660e01b81526004016102e9919061065b565b602060405180830381865afa158015610306573d6000803e3d6000fd5b505050506040513d601f19601f8201168201806040525081019061032a9190610ad6565b85600186600261033a91906107dc565b6103449190610b32565b8151811061035557610354610b03565b5b60200101907effffffffffffffffffffffffffffffffffffffffffffffffffffffffffffff1916908160001a905350505050808061039290610b88565b915050610156565b5080915050919050565b6000600a8260f81c60ff1610156103cf5760308260f81c6103c59190610bd1565b60f81b90506103e5565b60578260f81c6103df9190610bd1565b60f81b90505b919050565b6000806000905060008142444160405160200161040a9493929190610c83565b6040516020818303038152906040528051906020012060001c9050818061043090610b88565b9250508060001b9250505090565b600080828461044d91906109e3565b90506000838561045d9190610cd1565b146104725760018161046f9190610b32565b90505b8091505092915050565b600080fd5b600073ffffffffffffffffffffffffffffffffffffffff82169050919050565b60006104ac82610481565b9050919050565b6104bc816104a1565b81146104c757600080fd5b50565b6000813590506104d9816104b3565b92915050565b6000602082840312156104f5576104f461047c565b5b6000610503848285016104ca565b91505092915050565b600081519050919050565b600082825260208201905092915050565b60005b8381101561054657808201518184015260208101905061052b565b83811115610555576000848401525b50505050565b6000601f19601f8301169050919050565b60006105778261050c565b6105818185610517565b9350610591818560208601610528565b61059a8161055b565b840191505092915050565b600060208201905081810360008301526105bf818461056c565b905092915050565b60007fff0000000000000000000000000000000000000000000000000000000000000082169050919050565b6105fc816105c7565b811461060757600080fd5b50565b600081359050610619816105f3565b92915050565b6000602082840312156106355761063461047c565b5b60006106438482850161060a565b91505092915050565b610655816105c7565b82525050565b6000602082019050610670600083018461064c565b92915050565b6000819050919050565b61068981610676565b82525050565b60006020820190506106a46000830184610680565b92915050565b6000819050919050565b6106bd816106aa565b81146106c857600080fd5b50565b6000813590506106da816106b4565b92915050565b600080604083850312156106f7576106f661047c565b5b6000610705858286016106cb565b9250506020610716858286016106cb565b9150509250929050565b610729816106aa565b82525050565b60006020820190506107446000830184610720565b92915050565b7f4e487b7100000000000000000000000000000000000000000000000000000000600052604160045260246000fd5b7f4e487b7100000000000000000000000000000000000000000000000000000000600052601160045260246000fd5b60006107b3826106aa565b91506107be836106aa565b9250828210156107d1576107d0610779565b5b828203905092915050565b60006107e7826106aa565b91506107f2836106aa565b9250817fffffffffffffffffffffffffffffffffffffffffffffffffffffffffffffffff048311821515161561082b5761082a610779565b5b828202905092915050565b60008160011c9050919050565b6000808291508390505b600185111561088d5780860481111561086957610868610779565b5b60018516156108785780820291505b808102905061088685610836565b945061084d565b94509492505050565b6000826108a65760019050610962565b816108b45760009050610962565b81600181146108ca57600281146108d457610903565b6001915050610962565b60ff8411156108e6576108e5610779565b5b8360020a9150848211156108fd576108fc610779565b5b50610962565b5060208310610133831016604e8410600b84101617156109385782820a90508381111561093357610932610779565b5b610962565b6109458484846001610843565b9250905081840481111561095c5761095b610779565b5b81810290505b9392505050565b6000610974826106aa565b915061097f836106aa565b92506109ac7fffffffffffffffffffffffffffffffffffffffffffffffffffffffffffffffff8484610896565b905092915050565b7f4e487b7100000000000000000000000000000000000000000000000000000000600052601260045260246000fd5b60006109ee826106aa565b91506109f9836106aa565b925082610a0957610a086109b4565b5b828204905092915050565b600060ff82169050919050565b6000610a2c82610a14565b9150610a3783610a14565b925082610a4757610a466109b4565b5b828204905092915050565b6000610a5d82610a14565b9150610a6883610a14565b92508160ff0483118215151615610a8257610a81610779565b5b828202905092915050565b6000610a9882610a14565b9150610aa383610a14565b925082821015610ab657610ab5610779565b5b828203905092915050565b600081519050610ad0816105f3565b92915050565b600060208284031215610aec57610aeb61047c565b5b6000610afa84828501610ac1565b91505092915050565b7f4e487b7100000000000000000000000000000000000000000000000000000000600052603260045260246000fd5b6000610b3d826106aa565b9150610b48836106aa565b9250827fffffffffffffffffffffffffffffffffffffffffffffffffffffffffffffffff03821115610b7d57610b7c610779565b5b828201905092915050565b6000610b93826106aa565b91507fffffffffffffffffffffffffffffffffffffffffffffffffffffffffffffffff821415610bc657610bc5610779565b5b600182019050919050565b6000610bdc82610a14565b9150610be783610a14565b92508260ff03821115610bfd57610bfc610779565b5b828201905092915050565b6000819050919050565b610c23610c1e826106aa565b610c08565b82525050565b6000610c3482610481565b9050919050565b60008160601b9050919050565b6000610c5382610c3b565b9050919050565b6000610c6582610c48565b9050919050565b610c7d610c7882610c29565b610c5a565b82525050565b6000610c8f8287610c12565b602082019150610c9f8286610c12565b602082019150610caf8285610c12565b602082019150610cbf8284610c6c565b60148201915081905095945050505050565b6000610cdc826106aa565b9150610ce7836106aa565b925082610cf757610cf66109b4565b5b82820690509291505056fea2646970667358221220afdabdb32a7fce47c4c67b84dd14c00ddd90189c2e876036d806ed9ae30bf64264736f6c634300080c0033436f756e63696c2068617320617070726f76656420746865207265666572656e64756d21436f6e73756c746174696f6e2063616e63656c65643a20566f746572207475726e6f757420686173206265656e20746f6f20736d616c6c2141206e6577206c65616465727368697020626f6172642073686f756c6420626520696e7374697475746564a2646970667358221220fd1178b06ff21f9ecd9c59bf09e938141ab50c4b7603e8b7c10d531440096e2264736f6c634300080c0033",
			"opcodes": "PUSH1 0x80 PUSH1 0x40 MSTORE PUSH1 0x1C PUSH1 0x2 SSTORE PUSH1 0x32 PUSH1 0x3 SSTORE PUSH1 0x1 PUSH1 0x4 SSTORE CALLVALUE DUP1 ISZERO PUSH2 0x1F JUMPI PUSH1 0x0 DUP1 REVERT JUMPDEST POP PUSH2 0xB6BE DUP1 PUSH3 0x30 PUSH1 0x0 CODECOPY PUSH1 0x0 RETURN INVALID PUSH1 0x80 PUSH1 0x40 MSTORE CALLVALUE DUP1 ISZERO PUSH3 0x11 JUMPI PUSH1 0x0 DUP1 REVERT JUMPDEST POP PUSH1 0x4 CALLDATASIZE LT PUSH3 0x238 JUMPI PUSH1 0x0 CALLDATALOAD PUSH1 0xE0 SHR DUP1 PUSH4 0x9C162409 GT PUSH3 0x135 JUMPI DUP1 PUSH4 0xD0F3725F GT PUSH3 0xBD JUMPI DUP1 PUSH4 0xE1346655 GT PUSH3 0x87 JUMPI DUP1 PUSH4 0xE1346655 EQ PUSH3 0x5D9 JUMPI DUP1 PUSH4 0xE53D8F1D EQ PUSH3 0x5E5 JUMPI DUP1 PUSH4 0xED57BCB7 EQ PUSH3 0x607 JUMPI DUP1 PUSH4 0xF53CABF6 EQ PUSH3 0x629 JUMPI DUP1 PUSH4 0xF7E5B82B EQ PUSH3 0x65F JUMPI PUSH3 0x238 JUMP JUMPDEST DUP1 PUSH4 0xD0F3725F EQ PUSH3 0x57D JUMPI DUP1 PUSH4 0xD5BC1A00 EQ PUSH3 0x59F JUMPI DUP1 PUSH4 0xDE20B4F1 EQ PUSH3 0x5AB JUMPI DUP1 PUSH4 0xDEFB4DD6 EQ PUSH3 0x5B7 JUMPI PUSH3 0x238 JUMP JUMPDEST DUP1 PUSH4 0xC026A05E GT PUSH3 0xFF JUMPI DUP1 PUSH4 0xC026A05E EQ PUSH3 0x4CD JUMPI DUP1 PUSH4 0xC19D93FB EQ PUSH3 0x4EF JUMPI DUP1 PUSH4 0xC2E862B4 EQ PUSH3 0x511 JUMPI DUP1 PUSH4 0xC36E4E6C EQ PUSH3 0x547 JUMPI PUSH3 0x238 JUMP JUMPDEST DUP1 PUSH4 0x9C162409 EQ PUSH3 0x433 JUMPI DUP1 PUSH4 0xA49DA4B3 EQ PUSH3 0x453 JUMPI DUP1 PUSH4 0xADA89616 EQ PUSH3 0x475 JUMPI DUP1 PUSH4 0xBEA3FF44 EQ PUSH3 0x497 JUMPI PUSH3 0x238 JUMP JUMPDEST DUP1 PUSH4 0x49AA4EE2 GT PUSH3 0x1C5 JUMPI DUP1 PUSH4 0x6C6C32D0 GT PUSH3 0x18F JUMPI DUP1 PUSH4 0x6C6C32D0 EQ PUSH3 0x3A3 JUMPI DUP1 PUSH4 0x7AA485D0 EQ PUSH3 0x3AF JUMPI DUP1 PUSH4 0x7DD4A945 EQ PUSH3 0x3CF JUMPI DUP1 PUSH4 0x7FE63D70 EQ PUSH3 0x3DB JUMPI DUP1 PUSH4 0x96E3F4C5 EQ PUSH3 0x411 JUMPI PUSH3 0x238 JUMP JUMPDEST DUP1 PUSH4 0x49AA4EE2 EQ PUSH3 0x347 JUMPI DUP1 PUSH4 0x58E549F0 EQ PUSH3 0x353 JUMPI DUP1 PUSH4 0x62D73EB8 EQ PUSH3 0x375 JUMPI DUP1 PUSH4 0x687B995D EQ PUSH3 0x381 JUMPI PUSH3 0x238 JUMP JUMPDEST DUP1 PUSH4 0x2FD0D870 GT PUSH3 0x207 JUMPI DUP1 PUSH4 0x2FD0D870 EQ PUSH3 0x2C3 JUMPI DUP1 PUSH4 0x36C8C5EE EQ PUSH3 0x2E5 JUMPI DUP1 PUSH4 0x3ACD75F8 EQ PUSH3 0x305 JUMPI DUP1 PUSH4 0x3E422F5F EQ PUSH3 0x325 JUMPI PUSH3 0x238 JUMP JUMPDEST DUP1 PUSH4 0x25E7C27 EQ PUSH3 0x23D JUMPI DUP1 PUSH4 0x107D4035 EQ PUSH3 0x273 JUMPI DUP1 PUSH4 0x159E7064 EQ PUSH3 0x27F JUMPI DUP1 PUSH4 0x1F164AA7 EQ PUSH3 0x2A1 JUMPI JUMPDEST PUSH1 0x0 DUP1 REVERT JUMPDEST PUSH3 0x25B PUSH1 0x4 DUP1 CALLDATASIZE SUB DUP2 ADD SWAP1 PUSH3 0x255 SWAP2 SWAP1 PUSH3 0x4253 JUMP JUMPDEST PUSH3 0x681 JUMP JUMPDEST PUSH1 0x40 MLOAD PUSH3 0x26A SWAP2 SWAP1 PUSH3 0x42CA JUMP JUMPDEST PUSH1 0x40 MLOAD DUP1 SWAP2 SUB SWAP1 RETURN JUMPDEST PUSH3 0x27D PUSH3 0x6C1 JUMP JUMPDEST STOP JUMPDEST PUSH3 0x289 PUSH3 0x852 JUMP JUMPDEST PUSH1 0x40 MLOAD PUSH3 0x298 SWAP2 SWAP1 PUSH3 0x4304 JUMP JUMPDEST PUSH1 0x40 MLOAD DUP1 SWAP2 SUB SWAP1 RETURN JUMPDEST PUSH3 0x2AB PUSH3 0xA65 JUMP JUMPDEST PUSH1 0x40 MLOAD PUSH3 0x2BA SWAP2 SWAP1 PUSH3 0x4579 JUMP JUMPDEST PUSH1 0x40 MLOAD DUP1 SWAP2 SUB SWAP1 RETURN JUMPDEST PUSH3 0x2CD PUSH3 0xB05 JUMP JUMPDEST PUSH1 0x40 MLOAD PUSH3 0x2DC SWAP2 SWAP1 PUSH3 0x45AE JUMP JUMPDEST PUSH1 0x40 MLOAD DUP1 SWAP2 SUB SWAP1 RETURN JUMPDEST PUSH3 0x303 PUSH1 0x4 DUP1 CALLDATASIZE SUB DUP2 ADD SWAP1 PUSH3 0x2FD SWAP2 SWAP1 PUSH3 0x4253 JUMP JUMPDEST PUSH3 0xBA0 JUMP JUMPDEST STOP JUMPDEST PUSH3 0x323 PUSH1 0x4 DUP1 CALLDATASIZE SUB DUP2 ADD SWAP1 PUSH3 0x31D SWAP2 SWAP1 PUSH3 0x45FC JUMP JUMPDEST PUSH3 0xCE5 JUMP JUMPDEST STOP JUMPDEST PUSH3 0x32F PUSH3 0xF78 JUMP JUMPDEST PUSH1 0x40 MLOAD PUSH3 0x33E SWAP2 SWAP1 PUSH3 0x46AE JUMP JUMPDEST PUSH1 0x40 MLOAD DUP1 SWAP2 SUB SWAP1 RETURN JUMPDEST PUSH3 0x351 PUSH3 0xF8B JUMP JUMPDEST STOP JUMPDEST PUSH3 0x35D PUSH3 0x10BC JUMP JUMPDEST PUSH1 0x40 MLOAD PUSH3 0x36C SWAP2 SWAP1 PUSH3 0x4304 JUMP JUMPDEST PUSH1 0x40 MLOAD DUP1 SWAP2 SUB SWAP1 RETURN JUMPDEST PUSH3 0x37F PUSH3 0x12CF JUMP JUMPDEST STOP JUMPDEST PUSH3 0x38B PUSH3 0x14FB JUMP JUMPDEST PUSH1 0x40 MLOAD PUSH3 0x39A SWAP2 SWAP1 PUSH3 0x4579 JUMP JUMPDEST PUSH1 0x40 MLOAD DUP1 SWAP2 SUB SWAP1 RETURN JUMPDEST PUSH3 0x3AD PUSH3 0x16A3 JUMP JUMPDEST STOP JUMPDEST PUSH3 0x3CD PUSH1 0x4 DUP1 CALLDATASIZE SUB DUP2 ADD SWAP1 PUSH3 0x3C7 SWAP2 SWAP1 PUSH3 0x4253 JUMP JUMPDEST PUSH3 0x1834 JUMP JUMPDEST STOP JUMPDEST PUSH3 0x3D9 PUSH3 0x1968 JUMP JUMPDEST STOP JUMPDEST PUSH3 0x3F9 PUSH1 0x4 DUP1 CALLDATASIZE SUB DUP2 ADD SWAP1 PUSH3 0x3F3 SWAP2 SWAP1 PUSH3 0x482F JUMP JUMPDEST PUSH3 0x1FC8 JUMP JUMPDEST PUSH1 0x40 MLOAD PUSH3 0x408 SWAP2 SWAP1 PUSH3 0x4304 JUMP JUMPDEST PUSH1 0x40 MLOAD DUP1 SWAP2 SUB SWAP1 RETURN JUMPDEST PUSH3 0x41B PUSH3 0x20C4 JUMP JUMPDEST PUSH1 0x40 MLOAD PUSH3 0x42A SWAP2 SWAP1 PUSH3 0x4304 JUMP JUMPDEST PUSH1 0x40 MLOAD DUP1 SWAP2 SUB SWAP1 RETURN JUMPDEST PUSH3 0x451 PUSH1 0x4 DUP1 CALLDATASIZE SUB DUP2 ADD SWAP1 PUSH3 0x44B SWAP2 SWAP1 PUSH3 0x4253 JUMP JUMPDEST PUSH3 0x219E JUMP JUMPDEST STOP JUMPDEST PUSH3 0x45D PUSH3 0x22E3 JUMP JUMPDEST PUSH1 0x40 MLOAD PUSH3 0x46C SWAP2 SWAP1 PUSH3 0x45AE JUMP JUMPDEST PUSH1 0x40 MLOAD DUP1 SWAP2 SUB SWAP1 RETURN JUMPDEST PUSH3 0x47F PUSH3 0x22E9 JUMP JUMPDEST PUSH1 0x40 MLOAD PUSH3 0x48E SWAP2 SWAP1 PUSH3 0x4304 JUMP JUMPDEST PUSH1 0x40 MLOAD DUP1 SWAP2 SUB SWAP1 RETURN JUMPDEST PUSH3 0x4B5 PUSH1 0x4 DUP1 CALLDATASIZE SUB DUP2 ADD SWAP1 PUSH3 0x4AF SWAP2 SWAP1 PUSH3 0x45FC JUMP JUMPDEST PUSH3 0x24FC JUMP JUMPDEST PUSH1 0x40 MLOAD PUSH3 0x4C4 SWAP2 SWAP1 PUSH3 0x4304 JUMP JUMPDEST PUSH1 0x40 MLOAD DUP1 SWAP2 SUB SWAP1 RETURN JUMPDEST PUSH3 0x4D7 PUSH3 0x262B JUMP JUMPDEST PUSH1 0x40 MLOAD PUSH3 0x4E6 SWAP2 SWAP1 PUSH3 0x4579 JUMP JUMPDEST PUSH1 0x40 MLOAD DUP1 SWAP2 SUB SWAP1 RETURN JUMPDEST PUSH3 0x4F9 PUSH3 0x27AA JUMP JUMPDEST PUSH1 0x40 MLOAD PUSH3 0x508 SWAP2 SWAP1 PUSH3 0x48D1 JUMP JUMPDEST PUSH1 0x40 MLOAD DUP1 SWAP2 SUB SWAP1 RETURN JUMPDEST PUSH3 0x52F PUSH1 0x4 DUP1 CALLDATASIZE SUB DUP2 ADD SWAP1 PUSH3 0x529 SWAP2 SWAP1 PUSH3 0x4253 JUMP JUMPDEST PUSH3 0x27BD JUMP JUMPDEST PUSH1 0x40 MLOAD PUSH3 0x53E SWAP2 SWAP1 PUSH3 0x42CA JUMP JUMPDEST PUSH1 0x40 MLOAD DUP1 SWAP2 SUB SWAP1 RETURN JUMPDEST PUSH3 0x565 PUSH1 0x4 DUP1 CALLDATASIZE SUB DUP2 ADD SWAP1 PUSH3 0x55F SWAP2 SWAP1 PUSH3 0x482F JUMP JUMPDEST PUSH3 0x27FD JUMP JUMPDEST PUSH1 0x40 MLOAD PUSH3 0x574 SWAP2 SWAP1 PUSH3 0x4304 JUMP JUMPDEST PUSH1 0x40 MLOAD DUP1 SWAP2 SUB SWAP1 RETURN JUMPDEST PUSH3 0x587 PUSH3 0x28F9 JUMP JUMPDEST PUSH1 0x40 MLOAD PUSH3 0x596 SWAP2 SWAP1 PUSH3 0x4304 JUMP JUMPDEST PUSH1 0x40 MLOAD DUP1 SWAP2 SUB SWAP1 RETURN JUMPDEST PUSH3 0x5A9 PUSH3 0x29BA JUMP JUMPDEST STOP JUMPDEST PUSH3 0x5B5 PUSH3 0x2E44 JUMP JUMPDEST STOP JUMPDEST PUSH3 0x5C1 PUSH3 0x306F JUMP JUMPDEST PUSH1 0x40 MLOAD PUSH3 0x5D0 SWAP2 SWAP1 PUSH3 0x45AE JUMP JUMPDEST PUSH1 0x40 MLOAD DUP1 SWAP2 SUB SWAP1 RETURN JUMPDEST PUSH3 0x5E3 PUSH3 0x3137 JUMP JUMPDEST STOP JUMPDEST PUSH3 0x5EF PUSH3 0x3448 JUMP JUMPDEST PUSH1 0x40 MLOAD PUSH3 0x5FE SWAP2 SWAP1 PUSH3 0x4304 JUMP JUMPDEST PUSH1 0x40 MLOAD DUP1 SWAP2 SUB SWAP1 RETURN JUMPDEST PUSH3 0x611 PUSH3 0x346F JUMP JUMPDEST PUSH1 0x40 MLOAD PUSH3 0x620 SWAP2 SWAP1 PUSH3 0x4579 JUMP JUMPDEST PUSH1 0x40 MLOAD DUP1 SWAP2 SUB SWAP1 RETURN JUMPDEST PUSH3 0x647 PUSH1 0x4 DUP1 CALLDATASIZE SUB DUP2 ADD SWAP1 PUSH3 0x641 SWAP2 SWAP1 PUSH3 0x482F JUMP JUMPDEST PUSH3 0x3592 JUMP JUMPDEST PUSH1 0x40 MLOAD PUSH3 0x656 SWAP2 SWAP1 PUSH3 0x4304 JUMP JUMPDEST PUSH1 0x40 MLOAD DUP1 SWAP2 SUB SWAP1 RETURN JUMPDEST PUSH3 0x669 PUSH3 0x368E JUMP JUMPDEST PUSH1 0x40 MLOAD PUSH3 0x678 SWAP2 SWAP1 PUSH3 0x4579 JUMP JUMPDEST PUSH1 0x40 MLOAD DUP1 SWAP2 SUB SWAP1 RETURN JUMPDEST PUSH1 0x0 DUP2 DUP2 SLOAD DUP2 LT PUSH3 0x692 JUMPI PUSH1 0x0 DUP1 REVERT JUMPDEST SWAP1 PUSH1 0x0 MSTORE PUSH1 0x20 PUSH1 0x0 KECCAK256 ADD PUSH1 0x0 SWAP2 POP SLOAD SWAP1 PUSH2 0x100 EXP SWAP1 DIV PUSH20 0xFFFFFFFFFFFFFFFFFFFFFFFFFFFFFFFFFFFFFFFF AND DUP2 JUMP JUMPDEST PUSH1 0x6 PUSH1 0x3 SWAP1 SLOAD SWAP1 PUSH2 0x100 EXP SWAP1 DIV PUSH20 0xFFFFFFFFFFFFFFFFFFFFFFFFFFFFFFFFFFFFFFFF AND PUSH20 0xFFFFFFFFFFFFFFFFFFFFFFFFFFFFFFFFFFFFFFFF AND PUSH4 0xFA4D7AAE CALLER PUSH1 0x40 MLOAD DUP3 PUSH4 0xFFFFFFFF AND PUSH1 0xE0 SHL DUP2 MSTORE PUSH1 0x4 ADD PUSH3 0x71E SWAP2 SWAP1 PUSH3 0x42CA JUMP JUMPDEST PUSH1 0x20 PUSH1 0x40 MLOAD DUP1 DUP4 SUB DUP2 DUP7 GAS STATICCALL ISZERO DUP1 ISZERO PUSH3 0x73C JUMPI RETURNDATASIZE PUSH1 0x0 DUP1 RETURNDATACOPY RETURNDATASIZE PUSH1 0x0 REVERT JUMPDEST POP POP POP POP PUSH1 0x40 MLOAD RETURNDATASIZE PUSH1 0x1F NOT PUSH1 0x1F DUP3 ADD AND DUP3 ADD DUP1 PUSH1 0x40 MSTORE POP DUP2 ADD SWAP1 PUSH3 0x762 SWAP2 SWAP1 PUSH3 0x491F JUMP JUMPDEST PUSH3 0x7A4 JUMPI PUSH1 0x40 MLOAD PUSH32 0x8C379A000000000000000000000000000000000000000000000000000000000 DUP2 MSTORE PUSH1 0x4 ADD PUSH3 0x79B SWAP1 PUSH3 0x49D8 JUMP JUMPDEST PUSH1 0x40 MLOAD DUP1 SWAP2 SUB SWAP1 REVERT JUMPDEST PUSH1 0x0 PUSH1 0x5 DUP2 GT ISZERO PUSH3 0x7BB JUMPI PUSH3 0x7BA PUSH3 0x462E JUMP JUMPDEST JUMPDEST PUSH1 0x6 PUSH1 0x1 SWAP1 SLOAD SWAP1 PUSH2 0x100 EXP SWAP1 DIV PUSH1 0xFF AND PUSH1 0x5 DUP2 GT ISZERO PUSH3 0x7E0 JUMPI PUSH3 0x7DF PUSH3 0x462E JUMP JUMPDEST JUMPDEST EQ ISZERO PUSH3 0x813 JUMPI PUSH3 0x80D PUSH1 0x1 PUSH1 0x40 MLOAD DUP1 PUSH1 0x60 ADD PUSH1 0x40 MSTORE DUP1 PUSH1 0x24 DUP2 MSTORE PUSH1 0x20 ADD PUSH3 0xB602 PUSH1 0x24 SWAP2 CODECOPY PUSH3 0x38E9 JUMP JUMPDEST PUSH3 0x850 JUMP JUMPDEST PUSH1 0x40 MLOAD PUSH32 0x8C379A000000000000000000000000000000000000000000000000000000000 DUP2 MSTORE PUSH1 0x4 ADD PUSH3 0x847 SWAP1 PUSH3 0x4A96 JUMP JUMPDEST PUSH1 0x40 MLOAD DUP1 SWAP2 SUB SWAP1 REVERT JUMPDEST JUMP JUMPDEST PUSH1 0x0 DUP1 CALLER SWAP1 POP PUSH1 0x6 PUSH1 0x3 SWAP1 SLOAD SWAP1 PUSH2 0x100 EXP SWAP1 DIV PUSH20 0xFFFFFFFFFFFFFFFFFFFFFFFFFFFFFFFFFFFFFFFF AND PUSH20 0xFFFFFFFFFFFFFFFFFFFFFFFFFFFFFFFFFFFFFFFF AND PUSH4 0x56909B7 DUP3 PUSH1 0x40 MLOAD DUP3 PUSH4 0xFFFFFFFF AND PUSH1 0xE0 SHL DUP2 MSTORE PUSH1 0x4 ADD PUSH3 0x8B5 SWAP2 SWAP1 PUSH3 0x42CA JUMP JUMPDEST PUSH1 0x20 PUSH1 0x40 MLOAD DUP1 DUP4 SUB DUP2 DUP7 GAS STATICCALL ISZERO DUP1 ISZERO PUSH3 0x8D3 JUMPI RETURNDATASIZE PUSH1 0x0 DUP1 RETURNDATACOPY RETURNDATASIZE PUSH1 0x0 REVERT JUMPDEST POP POP POP POP PUSH1 0x40 MLOAD RETURNDATASIZE PUSH1 0x1F NOT PUSH1 0x1F DUP3 ADD AND DUP3 ADD DUP1 PUSH1 0x40 MSTORE POP DUP2 ADD SWAP1 PUSH3 0x8F9 SWAP2 SWAP1 PUSH3 0x491F JUMP JUMPDEST DUP1 PUSH3 0x9A2 JUMPI POP PUSH1 0x6 PUSH1 0x3 SWAP1 SLOAD SWAP1 PUSH2 0x100 EXP SWAP1 DIV PUSH20 0xFFFFFFFFFFFFFFFFFFFFFFFFFFFFFFFFFFFFFFFF AND PUSH20 0xFFFFFFFFFFFFFFFFFFFFFFFFFFFFFFFFFFFFFFFF AND PUSH4 0xFA4D7AAE DUP3 PUSH1 0x40 MLOAD DUP3 PUSH4 0xFFFFFFFF AND PUSH1 0xE0 SHL DUP2 MSTORE PUSH1 0x4 ADD PUSH3 0x95D SWAP2 SWAP1 PUSH3 0x42CA JUMP JUMPDEST PUSH1 0x20 PUSH1 0x40 MLOAD DUP1 DUP4 SUB DUP2 DUP7 GAS STATICCALL ISZERO DUP1 ISZERO PUSH3 0x97B JUMPI RETURNDATASIZE PUSH1 0x0 DUP1 RETURNDATACOPY RETURNDATASIZE PUSH1 0x0 REVERT JUMPDEST POP POP POP POP PUSH1 0x40 MLOAD RETURNDATASIZE PUSH1 0x1F NOT PUSH1 0x1F DUP3 ADD AND DUP3 ADD DUP1 PUSH1 0x40 MSTORE POP DUP2 ADD SWAP1 PUSH3 0x9A1 SWAP2 SWAP1 PUSH3 0x491F JUMP JUMPDEST JUMPDEST DUP1 PUSH3 0xA4B JUMPI POP PUSH1 0x6 PUSH1 0x3 SWAP1 SLOAD SWAP1 PUSH2 0x100 EXP SWAP1 DIV PUSH20 0xFFFFFFFFFFFFFFFFFFFFFFFFFFFFFFFFFFFFFFFF AND PUSH20 0xFFFFFFFFFFFFFFFFFFFFFFFFFFFFFFFFFFFFFFFF AND PUSH4 0x297027D5 DUP3 PUSH1 0x40 MLOAD DUP3 PUSH4 0xFFFFFFFF AND PUSH1 0xE0 SHL DUP2 MSTORE PUSH1 0x4 ADD PUSH3 0xA06 SWAP2 SWAP1 PUSH3 0x42CA JUMP JUMPDEST PUSH1 0x20 PUSH1 0x40 MLOAD DUP1 DUP4 SUB DUP2 DUP7 GAS STATICCALL ISZERO DUP1 ISZERO PUSH3 0xA24 JUMPI RETURNDATASIZE PUSH1 0x0 DUP1 RETURNDATACOPY RETURNDATASIZE PUSH1 0x0 REVERT JUMPDEST POP POP POP POP PUSH1 0x40 MLOAD RETURNDATASIZE PUSH1 0x1F NOT PUSH1 0x1F DUP3 ADD AND DUP3 ADD DUP1 PUSH1 0x40 MSTORE POP DUP2 ADD SWAP1 PUSH3 0xA4A SWAP2 SWAP1 PUSH3 0x491F JUMP JUMPDEST JUMPDEST ISZERO PUSH3 0xA5C JUMPI PUSH1 0x1 SWAP2 POP POP PUSH3 0xA62 JUMP JUMPDEST PUSH1 0x0 SWAP2 POP POP JUMPDEST SWAP1 JUMP JUMPDEST PUSH1 0x60 PUSH1 0x7 PUSH1 0x0 SWAP1 SLOAD SWAP1 PUSH2 0x100 EXP SWAP1 DIV PUSH20 0xFFFFFFFFFFFFFFFFFFFFFFFFFFFFFFFFFFFFFFFF AND PUSH20 0xFFFFFFFFFFFFFFFFFFFFFFFFFFFFFFFFFFFFFFFF AND PUSH4 0xCC2EE196 PUSH1 0x40 MLOAD DUP2 PUSH4 0xFFFFFFFF AND PUSH1 0xE0 SHL DUP2 MSTORE PUSH1 0x4 ADD PUSH1 0x0 PUSH1 0x40 MLOAD DUP1 DUP4 SUB DUP2 DUP7 GAS STATICCALL ISZERO DUP1 ISZERO PUSH3 0xAD5 JUMPI RETURNDATASIZE PUSH1 0x0 DUP1 RETURNDATACOPY RETURNDATASIZE PUSH1 0x0 REVERT JUMPDEST POP POP POP POP PUSH1 0x40 MLOAD RETURNDATASIZE PUSH1 0x0 DUP3 RETURNDATACOPY RETURNDATASIZE PUSH1 0x1F NOT PUSH1 0x1F DUP3 ADD AND DUP3 ADD DUP1 PUSH1 0x40 MSTORE POP DUP2 ADD SWAP1 PUSH3 0xB00 SWAP2 SWAP1 PUSH3 0x4DA5 JUMP JUMPDEST SWAP1 POP SWAP1 JUMP JUMPDEST PUSH1 0x0 PUSH1 0x7 PUSH1 0x0 SWAP1 SLOAD SWAP1 PUSH2 0x100 EXP SWAP1 DIV PUSH20 0xFFFFFFFFFFFFFFFFFFFFFFFFFFFFFFFFFFFFFFFF AND PUSH20 0xFFFFFFFFFFFFFFFFFFFFFFFFFFFFFFFFFFFFFFFF AND PUSH4 0x11174A29 PUSH1 0x40 MLOAD DUP2 PUSH4 0xFFFFFFFF AND PUSH1 0xE0 SHL DUP2 MSTORE PUSH1 0x4 ADD PUSH1 0x20 PUSH1 0x40 MLOAD DUP1 DUP4 SUB DUP2 DUP7 GAS STATICCALL ISZERO DUP1 ISZERO PUSH3 0xB75 JUMPI RETURNDATASIZE PUSH1 0x0 DUP1 RETURNDATACOPY RETURNDATASIZE PUSH1 0x0 REVERT JUMPDEST POP POP POP POP PUSH1 0x40 MLOAD RETURNDATASIZE PUSH1 0x1F NOT PUSH1 0x1F DUP3 ADD AND DUP3 ADD DUP1 PUSH1 0x40 MSTORE POP DUP2 ADD SWAP1 PUSH3 0xB9B SWAP2 SWAP1 PUSH3 0x4DF6 JUMP JUMPDEST SWAP1 POP SWAP1 JUMP JUMPDEST PUSH1 0x0 PUSH1 0x2 PUSH1 0x5 DUP2 GT ISZERO PUSH3 0xBB9 JUMPI PUSH3 0xBB8 PUSH3 0x462E JUMP JUMPDEST JUMPDEST PUSH1 0x6 PUSH1 0x1 SWAP1 SLOAD SWAP1 PUSH2 0x100 EXP SWAP1 DIV PUSH1 0xFF AND PUSH1 0x5 DUP2 GT ISZERO PUSH3 0xBDE JUMPI PUSH3 0xBDD PUSH3 0x462E JUMP JUMPDEST JUMPDEST EQ ISZERO PUSH3 0xBFA JUMPI PUSH3 0xBEF PUSH3 0x20C4 JUMP JUMPDEST PUSH3 0xBF9 JUMPI PUSH1 0x1 SWAP1 POP JUMPDEST JUMPDEST DUP1 PUSH3 0xC3D JUMPI PUSH1 0x40 MLOAD PUSH32 0x8C379A000000000000000000000000000000000000000000000000000000000 DUP2 MSTORE PUSH1 0x4 ADD PUSH3 0xC34 SWAP1 PUSH3 0x4E9E JUMP JUMPDEST PUSH1 0x40 MLOAD DUP1 SWAP2 SUB SWAP1 REVERT JUMPDEST PUSH3 0xC47 PUSH3 0x852 JUMP JUMPDEST ISZERO PUSH3 0xCE1 JUMPI PUSH1 0x8 PUSH1 0x0 SWAP1 SLOAD SWAP1 PUSH2 0x100 EXP SWAP1 DIV PUSH20 0xFFFFFFFFFFFFFFFFFFFFFFFFFFFFFFFFFFFFFFFF AND PUSH20 0xFFFFFFFFFFFFFFFFFFFFFFFFFFFFFFFFFFFFFFFF AND PUSH4 0x44D5E03C CALLER DUP5 PUSH1 0x40 MLOAD DUP4 PUSH4 0xFFFFFFFF AND PUSH1 0xE0 SHL DUP2 MSTORE PUSH1 0x4 ADD PUSH3 0xCAC SWAP3 SWAP2 SWAP1 PUSH3 0x4EC0 JUMP JUMPDEST PUSH1 0x0 PUSH1 0x40 MLOAD DUP1 DUP4 SUB DUP2 PUSH1 0x0 DUP8 DUP1 EXTCODESIZE ISZERO DUP1 ISZERO PUSH3 0xCC7 JUMPI PUSH1 0x0 DUP1 REVERT JUMPDEST POP GAS CALL ISZERO DUP1 ISZERO PUSH3 0xCDC JUMPI RETURNDATASIZE PUSH1 0x0 DUP1 RETURNDATACOPY RETURNDATASIZE PUSH1 0x0 REVERT JUMPDEST POP POP POP POP JUMPDEST POP POP JUMP JUMPDEST PUSH1 0x0 DUP1 PUSH1 0x5 DUP2 GT ISZERO PUSH3 0xCFD JUMPI PUSH3 0xCFC PUSH3 0x462E JUMP JUMPDEST JUMPDEST PUSH1 0x6 PUSH1 0x1 SWAP1 SLOAD SWAP1 PUSH2 0x100 EXP SWAP1 DIV PUSH1 0xFF AND PUSH1 0x5 DUP2 GT ISZERO PUSH3 0xD22 JUMPI PUSH3 0xD21 PUSH3 0x462E JUMP JUMPDEST JUMPDEST EQ ISZERO PUSH3 0xD3E JUMPI PUSH3 0xD33 PUSH3 0x20C4 JUMP JUMPDEST PUSH3 0xD3D JUMPI PUSH1 0x1 SWAP1 POP JUMPDEST JUMPDEST DUP1 PUSH3 0xD81 JUMPI PUSH1 0x40 MLOAD PUSH32 0x8C379A000000000000000000000000000000000000000000000000000000000 DUP2 MSTORE PUSH1 0x4 ADD PUSH3 0xD78 SWAP1 PUSH3 0x4F63 JUMP JUMPDEST PUSH1 0x40 MLOAD DUP1 SWAP2 SUB SWAP1 REVERT JUMPDEST PUSH3 0xD8B PUSH3 0x10BC JUMP JUMPDEST ISZERO PUSH3 0xF37 JUMPI PUSH3 0xD9C DUP3 PUSH3 0x24FC JUMP JUMPDEST PUSH3 0xEF4 JUMPI PUSH1 0x0 PUSH1 0x6 PUSH1 0x3 SWAP1 SLOAD SWAP1 PUSH2 0x100 EXP SWAP1 DIV PUSH20 0xFFFFFFFFFFFFFFFFFFFFFFFFFFFFFFFFFFFFFFFF AND PUSH20 0xFFFFFFFFFFFFFFFFFFFFFFFFFFFFFFFFFFFFFFFF AND PUSH4 0x6F77926B DUP5 PUSH1 0x40 MLOAD DUP3 PUSH4 0xFFFFFFFF AND PUSH1 0xE0 SHL DUP2 MSTORE PUSH1 0x4 ADD PUSH3 0xE00 SWAP2 SWAP1 PUSH3 0x42CA JUMP JUMPDEST PUSH1 0x0 PUSH1 0x40 MLOAD DUP1 DUP4 SUB DUP2 DUP7 GAS STATICCALL ISZERO DUP1 ISZERO PUSH3 0xE1E JUMPI RETURNDATASIZE PUSH1 0x0 DUP1 RETURNDATACOPY RETURNDATASIZE PUSH1 0x0 REVERT JUMPDEST POP POP POP POP PUSH1 0x40 MLOAD RETURNDATASIZE PUSH1 0x0 DUP3 RETURNDATACOPY RETURNDATASIZE PUSH1 0x1F NOT PUSH1 0x1F DUP3 ADD AND DUP3 ADD DUP1 PUSH1 0x40 MSTORE POP DUP2 ADD SWAP1 PUSH3 0xE49 SWAP2 SWAP1 PUSH3 0x5119 JUMP JUMPDEST SWAP1 POP PUSH1 0x7 PUSH1 0x0 SWAP1 SLOAD SWAP1 PUSH2 0x100 EXP SWAP1 DIV PUSH20 0xFFFFFFFFFFFFFFFFFFFFFFFFFFFFFFFFFFFFFFFF AND PUSH20 0xFFFFFFFFFFFFFFFFFFFFFFFFFFFFFFFFFFFFFFFF AND PUSH4 0xDFECF96B CALLER DUP6 PUSH1 0x0 DUP6 PUSH1 0x20 ADD MLOAD DUP7 PUSH1 0x40 ADD MLOAD PUSH1 0x40 MLOAD DUP7 PUSH4 0xFFFFFFFF AND PUSH1 0xE0 SHL DUP2 MSTORE PUSH1 0x4 ADD PUSH3 0xEB9 SWAP6 SWAP5 SWAP4 SWAP3 SWAP2 SWAP1 PUSH3 0x51AB JUMP JUMPDEST PUSH1 0x0 PUSH1 0x40 MLOAD DUP1 DUP4 SUB DUP2 PUSH1 0x0 DUP8 DUP1 EXTCODESIZE ISZERO DUP1 ISZERO PUSH3 0xED4 JUMPI PUSH1 0x0 DUP1 REVERT JUMPDEST POP GAS CALL ISZERO DUP1 ISZERO PUSH3 0xEE9 JUMPI RETURNDATASIZE PUSH1 0x0 DUP1 RETURNDATACOPY RETURNDATASIZE PUSH1 0x0 REVERT JUMPDEST POP POP POP POP POP PUSH3 0xF31 JUMP JUMPDEST PUSH1 0x40 MLOAD PUSH32 0x8C379A000000000000000000000000000000000000000000000000000000000 DUP2 MSTORE PUSH1 0x4 ADD PUSH3 0xF28 SWAP1 PUSH3 0x5266 JUMP JUMPDEST PUSH1 0x40 MLOAD DUP1 SWAP2 SUB SWAP1 REVERT JUMPDEST PUSH3 0xF74 JUMP JUMPDEST PUSH1 0x40 MLOAD PUSH32 0x8C379A000000000000000000000000000000000000000000000000000000000 DUP2 MSTORE PUSH1 0x4 ADD PUSH3 0xF6B SWAP1 PUSH3 0x52D8 JUMP JUMPDEST PUSH1 0x40 MLOAD DUP1 SWAP2 SUB SWAP1 REVERT JUMPDEST POP POP JUMP JUMPDEST PUSH1 0x6 PUSH1 0x2 SWAP1 SLOAD SWAP1 PUSH2 0x100 EXP SWAP1 DIV PUSH1 0xFF AND DUP2 JUMP JUMPDEST PUSH1 0x0 PUSH1 0x2 PUSH1 0x5 DUP2 GT ISZERO PUSH3 0xFA4 JUMPI PUSH3 0xFA3 PUSH3 0x462E JUMP JUMPDEST JUMPDEST PUSH1 0x6 PUSH1 0x1 SWAP1 SLOAD SWAP1 PUSH2 0x100 EXP SWAP1 DIV PUSH1 0xFF AND PUSH1 0x5 DUP2 GT ISZERO PUSH3 0xFC9 JUMPI PUSH3 0xFC8 PUSH3 0x462E JUMP JUMPDEST JUMPDEST EQ ISZERO PUSH3 0xFE5 JUMPI PUSH3 0xFDA PUSH3 0x20C4 JUMP JUMPDEST PUSH3 0xFE4 JUMPI PUSH1 0x1 SWAP1 POP JUMPDEST JUMPDEST DUP1 PUSH3 0x1028 JUMPI PUSH1 0x40 MLOAD PUSH32 0x8C379A000000000000000000000000000000000000000000000000000000000 DUP2 MSTORE PUSH1 0x4 ADD PUSH3 0x101F SWAP1 PUSH3 0x4E9E JUMP JUMPDEST PUSH1 0x40 MLOAD DUP1 SWAP2 SUB SWAP1 REVERT JUMPDEST PUSH1 0x7 PUSH1 0x0 SWAP1 SLOAD SWAP1 PUSH2 0x100 EXP SWAP1 DIV PUSH20 0xFFFFFFFFFFFFFFFFFFFFFFFFFFFFFFFFFFFFFFFF AND PUSH20 0xFFFFFFFFFFFFFFFFFFFFFFFFFFFFFFFFFFFFFFFF AND PUSH4 0x3FD00B0D CALLER PUSH1 0x40 MLOAD DUP3 PUSH4 0xFFFFFFFF AND PUSH1 0xE0 SHL DUP2 MSTORE PUSH1 0x4 ADD PUSH3 0x1085 SWAP2 SWAP1 PUSH3 0x42CA JUMP JUMPDEST PUSH1 0x0 PUSH1 0x40 MLOAD DUP1 DUP4 SUB DUP2 PUSH1 0x0 DUP8 DUP1 EXTCODESIZE ISZERO DUP1 ISZERO PUSH3 0x10A0 JUMPI PUSH1 0x0 DUP1 REVERT JUMPDEST POP GAS CALL ISZERO DUP1 ISZERO PUSH3 0x10B5 JUMPI RETURNDATASIZE PUSH1 0x0 DUP1 RETURNDATACOPY RETURNDATASIZE PUSH1 0x0 REVERT JUMPDEST POP POP POP POP POP JUMP JUMPDEST PUSH1 0x0 DUP1 CALLER SWAP1 POP PUSH1 0x6 PUSH1 0x3 SWAP1 SLOAD SWAP1 PUSH2 0x100 EXP SWAP1 DIV PUSH20 0xFFFFFFFFFFFFFFFFFFFFFFFFFFFFFFFFFFFFFFFF AND PUSH20 0xFFFFFFFFFFFFFFFFFFFFFFFFFFFFFFFFFFFFFFFF AND PUSH4 0x56909B7 DUP3 PUSH1 0x40 MLOAD DUP3 PUSH4 0xFFFFFFFF AND PUSH1 0xE0 SHL DUP2 MSTORE PUSH1 0x4 ADD PUSH3 0x111F SWAP2 SWAP1 PUSH3 0x42CA JUMP JUMPDEST PUSH1 0x20 PUSH1 0x40 MLOAD DUP1 DUP4 SUB DUP2 DUP7 GAS STATICCALL ISZERO DUP1 ISZERO PUSH3 0x113D JUMPI RETURNDATASIZE PUSH1 0x0 DUP1 RETURNDATACOPY RETURNDATASIZE PUSH1 0x0 REVERT JUMPDEST POP POP POP POP PUSH1 0x40 MLOAD RETURNDATASIZE PUSH1 0x1F NOT PUSH1 0x1F DUP3 ADD AND DUP3 ADD DUP1 PUSH1 0x40 MSTORE POP DUP2 ADD SWAP1 PUSH3 0x1163 SWAP2 SWAP1 PUSH3 0x491F JUMP JUMPDEST DUP1 PUSH3 0x120C JUMPI POP PUSH1 0x6 PUSH1 0x3 SWAP1 SLOAD SWAP1 PUSH2 0x100 EXP SWAP1 DIV PUSH20 0xFFFFFFFFFFFFFFFFFFFFFFFFFFFFFFFFFFFFFFFF AND PUSH20 0xFFFFFFFFFFFFFFFFFFFFFFFFFFFFFFFFFFFFFFFF AND PUSH4 0xFA4D7AAE DUP3 PUSH1 0x40 MLOAD DUP3 PUSH4 0xFFFFFFFF AND PUSH1 0xE0 SHL DUP2 MSTORE PUSH1 0x4 ADD PUSH3 0x11C7 SWAP2 SWAP1 PUSH3 0x42CA JUMP JUMPDEST PUSH1 0x20 PUSH1 0x40 MLOAD DUP1 DUP4 SUB DUP2 DUP7 GAS STATICCALL ISZERO DUP1 ISZERO PUSH3 0x11E5 JUMPI RETURNDATASIZE PUSH1 0x0 DUP1 RETURNDATACOPY RETURNDATASIZE PUSH1 0x0 REVERT JUMPDEST POP POP POP POP PUSH1 0x40 MLOAD RETURNDATASIZE PUSH1 0x1F NOT PUSH1 0x1F DUP3 ADD AND DUP3 ADD DUP1 PUSH1 0x40 MSTORE POP DUP2 ADD SWAP1 PUSH3 0x120B SWAP2 SWAP1 PUSH3 0x491F JUMP JUMPDEST JUMPDEST DUP1 PUSH3 0x12B5 JUMPI POP PUSH1 0x6 PUSH1 0x3 SWAP1 SLOAD SWAP1 PUSH2 0x100 EXP SWAP1 DIV PUSH20 0xFFFFFFFFFFFFFFFFFFFFFFFFFFFFFFFFFFFFFFFF AND PUSH20 0xFFFFFFFFFFFFFFFFFFFFFFFFFFFFFFFFFFFFFFFF AND PUSH4 0x297027D5 DUP3 PUSH1 0x40 MLOAD DUP3 PUSH4 0xFFFFFFFF AND PUSH1 0xE0 SHL DUP2 MSTORE PUSH1 0x4 ADD PUSH3 0x1270 SWAP2 SWAP1 PUSH3 0x42CA JUMP JUMPDEST PUSH1 0x20 PUSH1 0x40 MLOAD DUP1 DUP4 SUB DUP2 DUP7 GAS STATICCALL ISZERO DUP1 ISZERO PUSH3 0x128E JUMPI RETURNDATASIZE PUSH1 0x0 DUP1 RETURNDATACOPY RETURNDATASIZE PUSH1 0x0 REVERT JUMPDEST POP POP POP POP PUSH1 0x40 MLOAD RETURNDATASIZE PUSH1 0x1F NOT PUSH1 0x1F DUP3 ADD AND DUP3 ADD DUP1 PUSH1 0x40 MSTORE POP DUP2 ADD SWAP1 PUSH3 0x12B4 SWAP2 SWAP1 PUSH3 0x491F JUMP JUMPDEST JUMPDEST ISZERO PUSH3 0x12C6 JUMPI PUSH1 0x1 SWAP2 POP POP PUSH3 0x12CC JUMP JUMPDEST PUSH1 0x0 SWAP2 POP POP JUMPDEST SWAP1 JUMP JUMPDEST PUSH1 0x6 PUSH1 0x3 SWAP1 SLOAD SWAP1 PUSH2 0x100 EXP SWAP1 DIV PUSH20 0xFFFFFFFFFFFFFFFFFFFFFFFFFFFFFFFFFFFFFFFF AND PUSH20 0xFFFFFFFFFFFFFFFFFFFFFFFFFFFFFFFFFFFFFFFF AND PUSH4 0xFA4D7AAE CALLER PUSH1 0x40 MLOAD DUP3 PUSH4 0xFFFFFFFF AND PUSH1 0xE0 SHL DUP2 MSTORE PUSH1 0x4 ADD PUSH3 0x132C SWAP2 SWAP1 PUSH3 0x42CA JUMP JUMPDEST PUSH1 0x20 PUSH1 0x40 MLOAD DUP1 DUP4 SUB DUP2 DUP7 GAS STATICCALL ISZERO DUP1 ISZERO PUSH3 0x134A JUMPI RETURNDATASIZE PUSH1 0x0 DUP1 RETURNDATACOPY RETURNDATASIZE PUSH1 0x0 REVERT JUMPDEST POP POP POP POP PUSH1 0x40 MLOAD RETURNDATASIZE PUSH1 0x1F NOT PUSH1 0x1F DUP3 ADD AND DUP3 ADD DUP1 PUSH1 0x40 MSTORE POP DUP2 ADD SWAP1 PUSH3 0x1370 SWAP2 SWAP1 PUSH3 0x491F JUMP JUMPDEST PUSH3 0x13B2 JUMPI PUSH1 0x40 MLOAD PUSH32 0x8C379A000000000000000000000000000000000000000000000000000000000 DUP2 MSTORE PUSH1 0x4 ADD PUSH3 0x13A9 SWAP1 PUSH3 0x49D8 JUMP JUMPDEST PUSH1 0x40 MLOAD DUP1 SWAP2 SUB SWAP1 REVERT JUMPDEST PUSH1 0x1 PUSH1 0x5 DUP2 GT ISZERO PUSH3 0x13C9 JUMPI PUSH3 0x13C8 PUSH3 0x462E JUMP JUMPDEST JUMPDEST PUSH1 0x6 PUSH1 0x1 SWAP1 SLOAD SWAP1 PUSH2 0x100 EXP SWAP1 DIV PUSH1 0xFF AND PUSH1 0x5 DUP2 GT ISZERO PUSH3 0x13EE JUMPI PUSH3 0x13ED PUSH3 0x462E JUMP JUMPDEST JUMPDEST EQ ISZERO PUSH3 0x14BC JUMPI PUSH3 0x13FF PUSH3 0x397D JUMP JUMPDEST PUSH1 0x7 PUSH1 0x0 SWAP1 SLOAD SWAP1 PUSH2 0x100 EXP SWAP1 DIV PUSH20 0xFFFFFFFFFFFFFFFFFFFFFFFFFFFFFFFFFFFFFFFF AND PUSH20 0xFFFFFFFFFFFFFFFFFFFFFFFFFFFFFFFFFFFFFFFF AND PUSH4 0xE6C09EDF CALLER PUSH1 0x40 MLOAD DUP3 PUSH4 0xFFFFFFFF AND PUSH1 0xE0 SHL DUP2 MSTORE PUSH1 0x4 ADD PUSH3 0x145C SWAP2 SWAP1 PUSH3 0x42CA JUMP JUMPDEST PUSH1 0x0 PUSH1 0x40 MLOAD DUP1 DUP4 SUB DUP2 PUSH1 0x0 DUP8 DUP1 EXTCODESIZE ISZERO DUP1 ISZERO PUSH3 0x1477 JUMPI PUSH1 0x0 DUP1 REVERT JUMPDEST POP GAS CALL ISZERO DUP1 ISZERO PUSH3 0x148C JUMPI RETURNDATASIZE PUSH1 0x0 DUP1 RETURNDATACOPY RETURNDATASIZE PUSH1 0x0 REVERT JUMPDEST POP POP POP POP PUSH3 0x14B6 PUSH1 0x2 PUSH1 0x40 MLOAD DUP1 PUSH1 0x60 ADD PUSH1 0x40 MSTORE DUP1 PUSH1 0x24 DUP2 MSTORE PUSH1 0x20 ADD PUSH3 0xB602 PUSH1 0x24 SWAP2 CODECOPY PUSH3 0x38E9 JUMP JUMPDEST PUSH3 0x14F9 JUMP JUMPDEST PUSH1 0x40 MLOAD PUSH32 0x8C379A000000000000000000000000000000000000000000000000000000000 DUP2 MSTORE PUSH1 0x4 ADD PUSH3 0x14F0 SWAP1 PUSH3 0x4A96 JUMP JUMPDEST PUSH1 0x40 MLOAD DUP1 SWAP2 SUB SWAP1 REVERT JUMPDEST JUMP JUMPDEST PUSH1 0x60 PUSH1 0x0 PUSH1 0x7 PUSH1 0x0 SWAP1 SLOAD SWAP1 PUSH2 0x100 EXP SWAP1 DIV PUSH20 0xFFFFFFFFFFFFFFFFFFFFFFFFFFFFFFFFFFFFFFFF AND PUSH20 0xFFFFFFFFFFFFFFFFFFFFFFFFFFFFFFFFFFFFFFFF AND PUSH4 0xCC2EE196 PUSH1 0x40 MLOAD DUP2 PUSH4 0xFFFFFFFF AND PUSH1 0xE0 SHL DUP2 MSTORE PUSH1 0x4 ADD PUSH1 0x0 PUSH1 0x40 MLOAD DUP1 DUP4 SUB DUP2 DUP7 GAS STATICCALL ISZERO DUP1 ISZERO PUSH3 0x156D JUMPI RETURNDATASIZE PUSH1 0x0 DUP1 RETURNDATACOPY RETURNDATASIZE PUSH1 0x0 REVERT JUMPDEST POP POP POP POP PUSH1 0x40 MLOAD RETURNDATASIZE PUSH1 0x0 DUP3 RETURNDATACOPY RETURNDATASIZE PUSH1 0x1F NOT PUSH1 0x1F DUP3 ADD AND DUP3 ADD DUP1 PUSH1 0x40 MSTORE POP DUP2 ADD SWAP1 PUSH3 0x1598 SWAP2 SWAP1 PUSH3 0x4DA5 JUMP JUMPDEST SWAP1 POP PUSH1 0x0 DUP2 MLOAD PUSH8 0xFFFFFFFFFFFFFFFF DUP2 GT ISZERO PUSH3 0x15BA JUMPI PUSH3 0x15B9 PUSH3 0x46D0 JUMP JUMPDEST JUMPDEST PUSH1 0x40 MLOAD SWAP1 DUP1 DUP3 MSTORE DUP1 PUSH1 0x20 MUL PUSH1 0x20 ADD DUP3 ADD PUSH1 0x40 MSTORE DUP1 ISZERO PUSH3 0x15F7 JUMPI DUP2 PUSH1 0x20 ADD JUMPDEST PUSH3 0x15E3 PUSH3 0x40CF JUMP JUMPDEST DUP2 MSTORE PUSH1 0x20 ADD SWAP1 PUSH1 0x1 SWAP1 SUB SWAP1 DUP2 PUSH3 0x15D9 JUMPI SWAP1 POP JUMPDEST POP SWAP1 POP PUSH1 0x0 DUP1 JUMPDEST DUP4 MLOAD DUP2 LT ISZERO PUSH3 0x1696 JUMPI DUP4 DUP2 DUP2 MLOAD DUP2 LT PUSH3 0x161E JUMPI PUSH3 0x161D PUSH3 0x52FA JUMP JUMPDEST JUMPDEST PUSH1 0x20 MUL PUSH1 0x20 ADD ADD MLOAD PUSH1 0x60 ADD MLOAD ISZERO PUSH3 0x1680 JUMPI DUP4 DUP2 DUP2 MLOAD DUP2 LT PUSH3 0x1646 JUMPI PUSH3 0x1645 PUSH3 0x52FA JUMP JUMPDEST JUMPDEST PUSH1 0x20 MUL PUSH1 0x20 ADD ADD MLOAD DUP4 DUP4 DUP2 MLOAD DUP2 LT PUSH3 0x1664 JUMPI PUSH3 0x1663 PUSH3 0x52FA JUMP JUMPDEST JUMPDEST PUSH1 0x20 MUL PUSH1 0x20 ADD ADD DUP2 SWAP1 MSTORE POP DUP2 DUP1 PUSH3 0x167C SWAP1 PUSH3 0x5358 JUMP JUMPDEST SWAP3 POP POP JUMPDEST DUP1 DUP1 PUSH3 0x168D SWAP1 PUSH3 0x5358 JUMP JUMPDEST SWAP2 POP POP PUSH3 0x15FE JUMP JUMPDEST POP DUP1 DUP3 MSTORE DUP2 SWAP4 POP POP POP POP SWAP1 JUMP JUMPDEST PUSH1 0x6 PUSH1 0x3 SWAP1 SLOAD SWAP1 PUSH2 0x100 EXP SWAP1 DIV PUSH20 0xFFFFFFFFFFFFFFFFFFFFFFFFFFFFFFFFFFFFFFFF AND PUSH20 0xFFFFFFFFFFFFFFFFFFFFFFFFFFFFFFFFFFFFFFFF AND PUSH4 0xFA4D7AAE CALLER PUSH1 0x40 MLOAD DUP3 PUSH4 0xFFFFFFFF AND PUSH1 0xE0 SHL DUP2 MSTORE PUSH1 0x4 ADD PUSH3 0x1700 SWAP2 SWAP1 PUSH3 0x42CA JUMP JUMPDEST PUSH1 0x20 PUSH1 0x40 MLOAD DUP1 DUP4 SUB DUP2 DUP7 GAS STATICCALL ISZERO DUP1 ISZERO PUSH3 0x171E JUMPI RETURNDATASIZE PUSH1 0x0 DUP1 RETURNDATACOPY RETURNDATASIZE PUSH1 0x0 REVERT JUMPDEST POP POP POP POP PUSH1 0x40 MLOAD RETURNDATASIZE PUSH1 0x1F NOT PUSH1 0x1F DUP3 ADD AND DUP3 ADD DUP1 PUSH1 0x40 MSTORE POP DUP2 ADD SWAP1 PUSH3 0x1744 SWAP2 SWAP1 PUSH3 0x491F JUMP JUMPDEST PUSH3 0x1786 JUMPI PUSH1 0x40 MLOAD PUSH32 0x8C379A000000000000000000000000000000000000000000000000000000000 DUP2 MSTORE PUSH1 0x4 ADD PUSH3 0x177D SWAP1 PUSH3 0x49D8 JUMP JUMPDEST PUSH1 0x40 MLOAD DUP1 SWAP2 SUB SWAP1 REVERT JUMPDEST PUSH1 0x3 PUSH1 0x5 DUP2 GT ISZERO PUSH3 0x179D JUMPI PUSH3 0x179C PUSH3 0x462E JUMP JUMPDEST JUMPDEST PUSH1 0x6 PUSH1 0x1 SWAP1 SLOAD SWAP1 PUSH2 0x100 EXP SWAP1 DIV PUSH1 0xFF AND PUSH1 0x5 DUP2 GT ISZERO PUSH3 0x17C2 JUMPI PUSH3 0x17C1 PUSH3 0x462E JUMP JUMPDEST JUMPDEST EQ ISZERO PUSH3 0x17F5 JUMPI PUSH3 0x17EF PUSH1 0x4 PUSH1 0x40 MLOAD DUP1 PUSH1 0x60 ADD PUSH1 0x40 MSTORE DUP1 PUSH1 0x24 DUP2 MSTORE PUSH1 0x20 ADD PUSH3 0xB602 PUSH1 0x24 SWAP2 CODECOPY PUSH3 0x38E9 JUMP JUMPDEST PUSH3 0x1832 JUMP JUMPDEST PUSH1 0x40 MLOAD PUSH32 0x8C379A000000000000000000000000000000000000000000000000000000000 DUP2 MSTORE PUSH1 0x4 ADD PUSH3 0x1829 SWAP1 PUSH3 0x541C JUMP JUMPDEST PUSH1 0x40 MLOAD DUP1 SWAP2 SUB SWAP1 REVERT JUMPDEST JUMP JUMPDEST PUSH1 0x0 PUSH1 0x1 PUSH1 0x5 DUP2 GT ISZERO PUSH3 0x184D JUMPI PUSH3 0x184C PUSH3 0x462E JUMP JUMPDEST JUMPDEST PUSH1 0x6 PUSH1 0x1 SWAP1 SLOAD SWAP1 PUSH2 0x100 EXP SWAP1 DIV PUSH1 0xFF AND PUSH1 0x5 DUP2 GT ISZERO PUSH3 0x1872 JUMPI PUSH3 0x1871 PUSH3 0x462E JUMP JUMPDEST JUMPDEST EQ ISZERO PUSH3 0x188E JUMPI PUSH3 0x1883 PUSH3 0x20C4 JUMP JUMPDEST PUSH3 0x188D JUMPI PUSH1 0x1 SWAP1 POP JUMPDEST JUMPDEST DUP1 PUSH3 0x18D1 JUMPI PUSH1 0x40 MLOAD PUSH32 0x8C379A000000000000000000000000000000000000000000000000000000000 DUP2 MSTORE PUSH1 0x4 ADD PUSH3 0x18C8 SWAP1 PUSH3 0x4E9E JUMP JUMPDEST PUSH1 0x40 MLOAD DUP1 SWAP2 SUB SWAP1 REVERT JUMPDEST PUSH1 0x7 PUSH1 0x0 SWAP1 SLOAD SWAP1 PUSH2 0x100 EXP SWAP1 DIV PUSH20 0xFFFFFFFFFFFFFFFFFFFFFFFFFFFFFFFFFFFFFFFF AND PUSH20 0xFFFFFFFFFFFFFFFFFFFFFFFFFFFFFFFFFFFFFFFF AND PUSH4 0x16DB2A7A CALLER DUP5 PUSH1 0x40 MLOAD DUP4 PUSH4 0xFFFFFFFF AND PUSH1 0xE0 SHL DUP2 MSTORE PUSH1 0x4 ADD PUSH3 0x1930 SWAP3 SWAP2 SWAP1 PUSH3 0x4EC0 JUMP JUMPDEST PUSH1 0x0 PUSH1 0x40 MLOAD DUP1 DUP4 SUB DUP2 PUSH1 0x0 DUP8 DUP1 EXTCODESIZE ISZERO DUP1 ISZERO PUSH3 0x194B JUMPI PUSH1 0x0 DUP1 REVERT JUMPDEST POP GAS CALL ISZERO DUP1 ISZERO PUSH3 0x1960 JUMPI RETURNDATASIZE PUSH1 0x0 DUP1 RETURNDATACOPY RETURNDATASIZE PUSH1 0x0 REVERT JUMPDEST POP POP POP POP POP POP JUMP JUMPDEST PUSH1 0x0 PUSH1 0x40 MLOAD DUP1 PUSH2 0x140 ADD PUSH1 0x40 MSTORE DUP1 PUSH20 0x5B38DA6A701C568545DCFCB03FCB875F56BEDDC4 PUSH20 0xFFFFFFFFFFFFFFFFFFFFFFFFFFFFFFFFFFFFFFFF AND PUSH20 0xFFFFFFFFFFFFFFFFFFFFFFFFFFFFFFFFFFFFFFFF AND DUP2 MSTORE PUSH1 0x20 ADD PUSH20 0xAB8483F64D9C6D1ECF9B849AE677DD3315835CB2 PUSH20 0xFFFFFFFFFFFFFFFFFFFFFFFFFFFFFFFFFFFFFFFF AND PUSH20 0xFFFFFFFFFFFFFFFFFFFFFFFFFFFFFFFFFFFFFFFF AND DUP2 MSTORE PUSH1 0x20 ADD PUSH20 0x4B20993BC481177EC7E8F571CECAE8A9E22C02DB PUSH20 0xFFFFFFFFFFFFFFFFFFFFFFFFFFFFFFFFFFFFFFFF AND PUSH20 0xFFFFFFFFFFFFFFFFFFFFFFFFFFFFFFFFFFFFFFFF AND DUP2 MSTORE PUSH1 0x20 ADD PUSH20 0x78731D3CA6B7E34AC0F824C42A7CC18A495CABAB PUSH20 0xFFFFFFFFFFFFFFFFFFFFFFFFFFFFFFFFFFFFFFFF AND PUSH20 0xFFFFFFFFFFFFFFFFFFFFFFFFFFFFFFFFFFFFFFFF AND DUP2 MSTORE PUSH1 0x20 ADD PUSH20 0x617F2E2FD72FD9D5503197092AC168C91465E7F2 PUSH20 0xFFFFFFFFFFFFFFFFFFFFFFFFFFFFFFFFFFFFFFFF AND PUSH20 0xFFFFFFFFFFFFFFFFFFFFFFFFFFFFFFFFFFFFFFFF AND DUP2 MSTORE PUSH1 0x20 ADD PUSH20 0x17F6AD8EF982297579C203069C1DBFFE4348C372 PUSH20 0xFFFFFFFFFFFFFFFFFFFFFFFFFFFFFFFFFFFFFFFF AND PUSH20 0xFFFFFFFFFFFFFFFFFFFFFFFFFFFFFFFFFFFFFFFF AND DUP2 MSTORE PUSH1 0x20 ADD PUSH20 0x5C6B0F7BF3E7CE046039BD8FABDFD3F9F5021678 PUSH20 0xFFFFFFFFFFFFFFFFFFFFFFFFFFFFFFFFFFFFFFFF AND PUSH20 0xFFFFFFFFFFFFFFFFFFFFFFFFFFFFFFFFFFFFFFFF AND DUP2 MSTORE PUSH1 0x20 ADD PUSH20 0x3C6FCED478CBBC9A4FAB34EF9F40767739D1FF7 PUSH20 0xFFFFFFFFFFFFFFFFFFFFFFFFFFFFFFFFFFFFFFFF AND PUSH20 0xFFFFFFFFFFFFFFFFFFFFFFFFFFFFFFFFFFFFFFFF AND DUP2 MSTORE PUSH1 0x20 ADD PUSH20 0x1AE0EA34A72D944A8C7603FFB3EC30A6669E454C PUSH20 0xFFFFFFFFFFFFFFFFFFFFFFFFFFFFFFFFFFFFFFFF AND PUSH20 0xFFFFFFFFFFFFFFFFFFFFFFFFFFFFFFFFFFFFFFFF AND DUP2 MSTORE PUSH1 0x20 ADD PUSH20 0xCA35B7D915458EF540ADE6068DFE2F44E8FA733C PUSH20 0xFFFFFFFFFFFFFFFFFFFFFFFFFFFFFFFFFFFFFFFF AND PUSH20 0xFFFFFFFFFFFFFFFFFFFFFFFFFFFFFFFFFFFFFFFF AND DUP2 MSTORE POP SWAP1 POP PUSH1 0x0 PUSH1 0x3 PUSH8 0xFFFFFFFFFFFFFFFF DUP2 GT ISZERO PUSH3 0x1C52 JUMPI PUSH3 0x1C51 PUSH3 0x46D0 JUMP JUMPDEST JUMPDEST PUSH1 0x40 MLOAD SWAP1 DUP1 DUP3 MSTORE DUP1 PUSH1 0x20 MUL PUSH1 0x20 ADD DUP3 ADD PUSH1 0x40 MSTORE DUP1 ISZERO PUSH3 0x1C81 JUMPI DUP2 PUSH1 0x20 ADD PUSH1 0x20 DUP3 MUL DUP1 CALLDATASIZE DUP4 CALLDATACOPY DUP1 DUP3 ADD SWAP2 POP POP SWAP1 POP JUMPDEST POP SWAP1 POP PUSH20 0x617F2E2FD72FD9D5503197092AC168C91465E7F2 DUP2 PUSH1 0x0 DUP2 MLOAD DUP2 LT PUSH3 0x1CB0 JUMPI PUSH3 0x1CAF PUSH3 0x52FA JUMP JUMPDEST JUMPDEST PUSH1 0x20 MUL PUSH1 0x20 ADD ADD SWAP1 PUSH20 0xFFFFFFFFFFFFFFFFFFFFFFFFFFFFFFFFFFFFFFFF AND SWAP1 DUP2 PUSH20 0xFFFFFFFFFFFFFFFFFFFFFFFFFFFFFFFFFFFFFFFF AND DUP2 MSTORE POP POP PUSH20 0x17F6AD8EF982297579C203069C1DBFFE4348C372 DUP2 PUSH1 0x1 DUP2 MLOAD DUP2 LT PUSH3 0x1D16 JUMPI PUSH3 0x1D15 PUSH3 0x52FA JUMP JUMPDEST JUMPDEST PUSH1 0x20 MUL PUSH1 0x20 ADD ADD SWAP1 PUSH20 0xFFFFFFFFFFFFFFFFFFFFFFFFFFFFFFFFFFFFFFFF AND SWAP1 DUP2 PUSH20 0xFFFFFFFFFFFFFFFFFFFFFFFFFFFFFFFFFFFFFFFF AND DUP2 MSTORE POP POP PUSH20 0x5C6B0F7BF3E7CE046039BD8FABDFD3F9F5021678 DUP2 PUSH1 0x2 DUP2 MLOAD DUP2 LT PUSH3 0x1D7C JUMPI PUSH3 0x1D7B PUSH3 0x52FA JUMP JUMPDEST JUMPDEST PUSH1 0x20 MUL PUSH1 0x20 ADD ADD SWAP1 PUSH20 0xFFFFFFFFFFFFFFFFFFFFFFFFFFFFFFFFFFFFFFFF AND SWAP1 DUP2 PUSH20 0xFFFFFFFFFFFFFFFFFFFFFFFFFFFFFFFFFFFFFFFF AND DUP2 MSTORE POP POP PUSH20 0xD9145CCE52D386F254917E481EB44E9943F39138 PUSH1 0x6 PUSH1 0x3 PUSH2 0x100 EXP DUP2 SLOAD DUP2 PUSH20 0xFFFFFFFFFFFFFFFFFFFFFFFFFFFFFFFFFFFFFFFF MUL NOT AND SWAP1 DUP4 PUSH20 0xFFFFFFFFFFFFFFFFFFFFFFFFFFFFFFFFFFFFFFFF AND MUL OR SWAP1 SSTORE POP PUSH1 0x0 PUSH1 0x40 MLOAD DUP1 PUSH1 0x40 ADD PUSH1 0x40 MSTORE DUP1 PUSH1 0x14 DUP2 MSTORE PUSH1 0x20 ADD PUSH32 0x456C656374206E6577206C656164657273686970000000000000000000000000 DUP2 MSTORE POP SWAP1 POP PUSH1 0x0 PUSH1 0x40 MLOAD DUP1 PUSH1 0x60 ADD PUSH1 0x40 MSTORE DUP1 PUSH1 0x2B DUP2 MSTORE PUSH1 0x20 ADD PUSH3 0xB65E PUSH1 0x2B SWAP2 CODECOPY SWAP1 POP PUSH1 0x0 DUP1 PUSH1 0x2 SWAP1 POP PUSH1 0x0 PUSH1 0x1 PUSH8 0xFFFFFFFFFFFFFFFF DUP2 GT ISZERO PUSH3 0x1E8A JUMPI PUSH3 0x1E89 PUSH3 0x46D0 JUMP JUMPDEST JUMPDEST PUSH1 0x40 MLOAD SWAP1 DUP1 DUP3 MSTORE DUP1 PUSH1 0x20 MUL PUSH1 0x20 ADD DUP3 ADD PUSH1 0x40 MSTORE DUP1 ISZERO PUSH3 0x1EB9 JUMPI DUP2 PUSH1 0x20 ADD PUSH1 0x20 DUP3 MUL DUP1 CALLDATASIZE DUP4 CALLDATACOPY DUP1 DUP3 ADD SWAP2 POP POP SWAP1 POP JUMPDEST POP SWAP1 POP PUSH20 0x5B38DA6A701C568545DCFCB03FCB875F56BEDDC4 DUP2 PUSH1 0x0 DUP2 MLOAD DUP2 LT PUSH3 0x1EE8 JUMPI PUSH3 0x1EE7 PUSH3 0x52FA JUMP JUMPDEST JUMPDEST PUSH1 0x20 MUL PUSH1 0x20 ADD ADD SWAP1 PUSH20 0xFFFFFFFFFFFFFFFFFFFFFFFFFFFFFFFFFFFFFFFF AND SWAP1 DUP2 PUSH20 0xFFFFFFFFFFFFFFFFFFFFFFFFFFFFFFFFFFFFFFFF AND DUP2 MSTORE POP POP PUSH3 0x1F31 DUP2 DUP7 DUP7 DUP7 DUP7 PUSH3 0x3D37 JUMP JUMPDEST PUSH3 0x1F73 PUSH1 0x0 PUSH1 0x40 MLOAD DUP1 PUSH1 0x40 ADD PUSH1 0x40 MSTORE DUP1 PUSH1 0x15 DUP2 MSTORE PUSH1 0x20 ADD PUSH32 0x436F6E73756C746174696F6E2063726561746564210000000000000000000000 DUP2 MSTORE POP PUSH3 0x38E9 JUMP JUMPDEST PUSH1 0x0 JUMPDEST DUP7 MLOAD DUP2 LT ISZERO PUSH3 0x1FBE JUMPI PUSH3 0x1FA8 DUP8 DUP3 DUP2 MLOAD DUP2 LT PUSH3 0x1F9A JUMPI PUSH3 0x1F99 PUSH3 0x52FA JUMP JUMPDEST JUMPDEST PUSH1 0x20 MUL PUSH1 0x20 ADD ADD MLOAD PUSH3 0xCE5 JUMP JUMPDEST DUP1 DUP1 PUSH3 0x1FB5 SWAP1 PUSH3 0x5358 JUMP JUMPDEST SWAP2 POP POP PUSH3 0x1F76 JUMP JUMPDEST POP POP POP POP POP POP POP POP JUMP JUMPDEST PUSH1 0x0 DUP1 PUSH1 0x1 SWAP1 POP PUSH1 0x0 JUMPDEST DUP4 MLOAD DUP2 LT ISZERO PUSH3 0x20BA JUMPI PUSH1 0x6 PUSH1 0x3 SWAP1 SLOAD SWAP1 PUSH2 0x100 EXP SWAP1 DIV PUSH20 0xFFFFFFFFFFFFFFFFFFFFFFFFFFFFFFFFFFFFFFFF AND PUSH20 0xFFFFFFFFFFFFFFFFFFFFFFFFFFFFFFFFFFFFFFFF AND PUSH4 0xFA4D7AAE DUP6 DUP4 DUP2 MLOAD DUP2 LT PUSH3 0x2030 JUMPI PUSH3 0x202F PUSH3 0x52FA JUMP JUMPDEST JUMPDEST PUSH1 0x20 MUL PUSH1 0x20 ADD ADD MLOAD PUSH1 0x40 MLOAD DUP3 PUSH4 0xFFFFFFFF AND PUSH1 0xE0 SHL DUP2 MSTORE PUSH1 0x4 ADD PUSH3 0x2056 SWAP2 SWAP1 PUSH3 0x42CA JUMP JUMPDEST PUSH1 0x20 PUSH1 0x40 MLOAD DUP1 DUP4 SUB DUP2 DUP7 GAS STATICCALL ISZERO DUP1 ISZERO PUSH3 0x2074 JUMPI RETURNDATASIZE PUSH1 0x0 DUP1 RETURNDATACOPY RETURNDATASIZE PUSH1 0x0 REVERT JUMPDEST POP POP POP POP PUSH1 0x40 MLOAD RETURNDATASIZE PUSH1 0x1F NOT PUSH1 0x1F DUP3 ADD AND DUP3 ADD DUP1 PUSH1 0x40 MSTORE POP DUP2 ADD SWAP1 PUSH3 0x209A SWAP2 SWAP1 PUSH3 0x491F JUMP JUMPDEST PUSH3 0x20A4 JUMPI PUSH1 0x0 SWAP2 POP JUMPDEST DUP1 DUP1 PUSH3 0x20B1 SWAP1 PUSH3 0x5358 JUMP JUMPDEST SWAP2 POP POP PUSH3 0x1FD2 JUMP JUMPDEST POP DUP1 SWAP2 POP POP SWAP2 SWAP1 POP JUMP JUMPDEST PUSH1 0x0 DUP1 PUSH1 0x0 SWAP1 POP PUSH1 0x0 TIMESTAMP SWAP1 POP PUSH1 0x0 PUSH3 0x15180 PUSH1 0x2 SLOAD PUSH3 0x20E5 SWAP2 SWAP1 PUSH3 0x543E JUMP JUMPDEST PUSH1 0x7 PUSH1 0x0 SWAP1 SLOAD SWAP1 PUSH2 0x100 EXP SWAP1 DIV PUSH20 0xFFFFFFFFFFFFFFFFFFFFFFFFFFFFFFFFFFFFFFFF AND PUSH20 0xFFFFFFFFFFFFFFFFFFFFFFFFFFFFFFFFFFFFFFFF AND PUSH4 0xB90C1DBB PUSH1 0x40 MLOAD DUP2 PUSH4 0xFFFFFFFF AND PUSH1 0xE0 SHL DUP2 MSTORE PUSH1 0x4 ADD PUSH1 0x20 PUSH1 0x40 MLOAD DUP1 DUP4 SUB DUP2 DUP7 GAS STATICCALL ISZERO DUP1 ISZERO PUSH3 0x2153 JUMPI RETURNDATASIZE PUSH1 0x0 DUP1 RETURNDATACOPY RETURNDATASIZE PUSH1 0x0 REVERT JUMPDEST POP POP POP POP PUSH1 0x40 MLOAD RETURNDATASIZE PUSH1 0x1F NOT PUSH1 0x1F DUP3 ADD AND DUP3 ADD DUP1 PUSH1 0x40 MSTORE POP DUP2 ADD SWAP1 PUSH3 0x2179 SWAP2 SWAP1 PUSH3 0x4DF6 JUMP JUMPDEST PUSH3 0x2185 SWAP2 SWAP1 PUSH3 0x549F JUMP JUMPDEST SWAP1 POP DUP1 DUP3 GT ISZERO PUSH3 0x2195 JUMPI PUSH1 0x1 SWAP3 POP JUMPDEST DUP3 SWAP4 POP POP POP POP SWAP1 JUMP JUMPDEST PUSH1 0x0 PUSH1 0x1 PUSH1 0x5 DUP2 GT ISZERO PUSH3 0x21B7 JUMPI PUSH3 0x21B6 PUSH3 0x462E JUMP JUMPDEST JUMPDEST PUSH1 0x6 PUSH1 0x1 SWAP1 SLOAD SWAP1 PUSH2 0x100 EXP SWAP1 DIV PUSH1 0xFF AND PUSH1 0x5 DUP2 GT ISZERO PUSH3 0x21DC JUMPI PUSH3 0x21DB PUSH3 0x462E JUMP JUMPDEST JUMPDEST EQ ISZERO PUSH3 0x21F8 JUMPI PUSH3 0x21ED PUSH3 0x20C4 JUMP JUMPDEST PUSH3 0x21F7 JUMPI PUSH1 0x1 SWAP1 POP JUMPDEST JUMPDEST DUP1 PUSH3 0x223B JUMPI PUSH1 0x40 MLOAD PUSH32 0x8C379A000000000000000000000000000000000000000000000000000000000 DUP2 MSTORE PUSH1 0x4 ADD PUSH3 0x2232 SWAP1 PUSH3 0x4E9E JUMP JUMPDEST PUSH1 0x40 MLOAD DUP1 SWAP2 SUB SWAP1 REVERT JUMPDEST PUSH3 0x2245 PUSH3 0x22E9 JUMP JUMPDEST ISZERO PUSH3 0x22DF JUMPI PUSH1 0x7 PUSH1 0x0 SWAP1 SLOAD SWAP1 PUSH2 0x100 EXP SWAP1 DIV PUSH20 0xFFFFFFFFFFFFFFFFFFFFFFFFFFFFFFFFFFFFFFFF AND PUSH20 0xFFFFFFFFFFFFFFFFFFFFFFFFFFFFFFFFFFFFFFFF AND PUSH4 0x44D5E03C CALLER DUP5 PUSH1 0x40 MLOAD DUP4 PUSH4 0xFFFFFFFF AND PUSH1 0xE0 SHL DUP2 MSTORE PUSH1 0x4 ADD PUSH3 0x22AA SWAP3 SWAP2 SWAP1 PUSH3 0x4EC0 JUMP JUMPDEST PUSH1 0x0 PUSH1 0x40 MLOAD DUP1 DUP4 SUB DUP2 PUSH1 0x0 DUP8 DUP1 EXTCODESIZE ISZERO DUP1 ISZERO PUSH3 0x22C5 JUMPI PUSH1 0x0 DUP1 REVERT JUMPDEST POP GAS CALL ISZERO DUP1 ISZERO PUSH3 0x22DA JUMPI RETURNDATASIZE PUSH1 0x0 DUP1 RETURNDATACOPY RETURNDATASIZE PUSH1 0x0 REVERT JUMPDEST POP POP POP POP JUMPDEST POP POP JUMP JUMPDEST PUSH1 0x2 SLOAD DUP2 JUMP JUMPDEST PUSH1 0x0 DUP1 CALLER SWAP1 POP PUSH1 0x6 PUSH1 0x3 SWAP1 SLOAD SWAP1 PUSH2 0x100 EXP SWAP1 DIV PUSH20 0xFFFFFFFFFFFFFFFFFFFFFFFFFFFFFFFFFFFFFFFF AND PUSH20 0xFFFFFFFFFFFFFFFFFFFFFFFFFFFFFFFFFFFFFFFF AND PUSH4 0x56909B7 DUP3 PUSH1 0x40 MLOAD DUP3 PUSH4 0xFFFFFFFF AND PUSH1 0xE0 SHL DUP2 MSTORE PUSH1 0x4 ADD PUSH3 0x234C SWAP2 SWAP1 PUSH3 0x42CA JUMP JUMPDEST PUSH1 0x20 PUSH1 0x40 MLOAD DUP1 DUP4 SUB DUP2 DUP7 GAS STATICCALL ISZERO DUP1 ISZERO PUSH3 0x236A JUMPI RETURNDATASIZE PUSH1 0x0 DUP1 RETURNDATACOPY RETURNDATASIZE PUSH1 0x0 REVERT JUMPDEST POP POP POP POP PUSH1 0x40 MLOAD RETURNDATASIZE PUSH1 0x1F NOT PUSH1 0x1F DUP3 ADD AND DUP3 ADD DUP1 PUSH1 0x40 MSTORE POP DUP2 ADD SWAP1 PUSH3 0x2390 SWAP2 SWAP1 PUSH3 0x491F JUMP JUMPDEST DUP1 PUSH3 0x2439 JUMPI POP PUSH1 0x6 PUSH1 0x3 SWAP1 SLOAD SWAP1 PUSH2 0x100 EXP SWAP1 DIV PUSH20 0xFFFFFFFFFFFFFFFFFFFFFFFFFFFFFFFFFFFFFFFF AND PUSH20 0xFFFFFFFFFFFFFFFFFFFFFFFFFFFFFFFFFFFFFFFF AND PUSH4 0xFA4D7AAE DUP3 PUSH1 0x40 MLOAD DUP3 PUSH4 0xFFFFFFFF AND PUSH1 0xE0 SHL DUP2 MSTORE PUSH1 0x4 ADD PUSH3 0x23F4 SWAP2 SWAP1 PUSH3 0x42CA JUMP JUMPDEST PUSH1 0x20 PUSH1 0x40 MLOAD DUP1 DUP4 SUB DUP2 DUP7 GAS STATICCALL ISZERO DUP1 ISZERO PUSH3 0x2412 JUMPI RETURNDATASIZE PUSH1 0x0 DUP1 RETURNDATACOPY RETURNDATASIZE PUSH1 0x0 REVERT JUMPDEST POP POP POP POP PUSH1 0x40 MLOAD RETURNDATASIZE PUSH1 0x1F NOT PUSH1 0x1F DUP3 ADD AND DUP3 ADD DUP1 PUSH1 0x40 MSTORE POP DUP2 ADD SWAP1 PUSH3 0x2438 SWAP2 SWAP1 PUSH3 0x491F JUMP JUMPDEST JUMPDEST DUP1 PUSH3 0x24E2 JUMPI POP PUSH1 0x6 PUSH1 0x3 SWAP1 SLOAD SWAP1 PUSH2 0x100 EXP SWAP1 DIV PUSH20 0xFFFFFFFFFFFFFFFFFFFFFFFFFFFFFFFFFFFFFFFF AND PUSH20 0xFFFFFFFFFFFFFFFFFFFFFFFFFFFFFFFFFFFFFFFF AND PUSH4 0x297027D5 DUP3 PUSH1 0x40 MLOAD DUP3 PUSH4 0xFFFFFFFF AND PUSH1 0xE0 SHL DUP2 MSTORE PUSH1 0x4 ADD PUSH3 0x249D SWAP2 SWAP1 PUSH3 0x42CA JUMP JUMPDEST PUSH1 0x20 PUSH1 0x40 MLOAD DUP1 DUP4 SUB DUP2 DUP7 GAS STATICCALL ISZERO DUP1 ISZERO PUSH3 0x24BB JUMPI RETURNDATASIZE PUSH1 0x0 DUP1 RETURNDATACOPY RETURNDATASIZE PUSH1 0x0 REVERT JUMPDEST POP POP POP POP PUSH1 0x40 MLOAD RETURNDATASIZE PUSH1 0x1F NOT PUSH1 0x1F DUP3 ADD AND DUP3 ADD DUP1 PUSH1 0x40 MSTORE POP DUP2 ADD SWAP1 PUSH3 0x24E1 SWAP2 SWAP1 PUSH3 0x491F JUMP JUMPDEST JUMPDEST ISZERO PUSH3 0x24F3 JUMPI PUSH1 0x1 SWAP2 POP POP PUSH3 0x24F9 JUMP JUMPDEST PUSH1 0x0 SWAP2 POP POP JUMPDEST SWAP1 JUMP JUMPDEST PUSH1 0x0 DUP1 PUSH1 0x7 PUSH1 0x0 SWAP1 SLOAD SWAP1 PUSH2 0x100 EXP SWAP1 DIV PUSH20 0xFFFFFFFFFFFFFFFFFFFFFFFFFFFFFFFFFFFFFFFF AND PUSH20 0xFFFFFFFFFFFFFFFFFFFFFFFFFFFFFFFFFFFFFFFF AND PUSH4 0xCC2EE196 PUSH1 0x40 MLOAD DUP2 PUSH4 0xFFFFFFFF AND PUSH1 0xE0 SHL DUP2 MSTORE PUSH1 0x4 ADD PUSH1 0x0 PUSH1 0x40 MLOAD DUP1 DUP4 SUB DUP2 DUP7 GAS STATICCALL ISZERO DUP1 ISZERO PUSH3 0x256D JUMPI RETURNDATASIZE PUSH1 0x0 DUP1 RETURNDATACOPY RETURNDATASIZE PUSH1 0x0 REVERT JUMPDEST POP POP POP POP PUSH1 0x40 MLOAD RETURNDATASIZE PUSH1 0x0 DUP3 RETURNDATACOPY RETURNDATASIZE PUSH1 0x1F NOT PUSH1 0x1F DUP3 ADD AND DUP3 ADD DUP1 PUSH1 0x40 MSTORE POP DUP2 ADD SWAP1 PUSH3 0x2598 SWAP2 SWAP1 PUSH3 0x4DA5 JUMP JUMPDEST SWAP1 POP PUSH1 0x0 JUMPDEST DUP2 MLOAD DUP2 LT ISZERO PUSH3 0x261F JUMPI DUP2 DUP2 DUP2 MLOAD DUP2 LT PUSH3 0x25BD JUMPI PUSH3 0x25BC PUSH3 0x52FA JUMP JUMPDEST JUMPDEST PUSH1 0x20 MUL PUSH1 0x20 ADD ADD MLOAD PUSH1 0x20 ADD MLOAD PUSH20 0xFFFFFFFFFFFFFFFFFFFFFFFFFFFFFFFFFFFFFFFF AND DUP5 PUSH20 0xFFFFFFFFFFFFFFFFFFFFFFFFFFFFFFFFFFFFFFFF AND EQ ISZERO PUSH3 0x2609 JUMPI PUSH1 0x1 SWAP3 POP POP POP PUSH3 0x2626 JUMP JUMPDEST DUP1 DUP1 PUSH3 0x2616 SWAP1 PUSH3 0x5358 JUMP JUMPDEST SWAP2 POP POP PUSH3 0x259D JUMP JUMPDEST POP PUSH1 0x0 SWAP2 POP POP JUMPDEST SWAP2 SWAP1 POP JUMP JUMPDEST PUSH1 0x60 PUSH1 0x8 PUSH1 0x0 SWAP1 SLOAD SWAP1 PUSH2 0x100 EXP SWAP1 DIV PUSH20 0xFFFFFFFFFFFFFFFFFFFFFFFFFFFFFFFFFFFFFFFF AND PUSH20 0xFFFFFFFFFFFFFFFFFFFFFFFFFFFFFFFFFFFFFFFF AND PUSH4 0xC467A69C PUSH1 0x40 MLOAD DUP2 PUSH4 0xFFFFFFFF AND PUSH1 0xE0 SHL DUP2 MSTORE PUSH1 0x4 ADD PUSH1 0x20 PUSH1 0x40 MLOAD DUP1 DUP4 SUB DUP2 PUSH1 0x0 DUP8 GAS CALL ISZERO DUP1 ISZERO PUSH3 0x269D JUMPI RETURNDATASIZE PUSH1 0x0 DUP1 RETURNDATACOPY RETURNDATASIZE PUSH1 0x0 REVERT JUMPDEST POP POP POP POP PUSH1 0x40 MLOAD RETURNDATASIZE PUSH1 0x1F NOT PUSH1 0x1F DUP3 ADD AND DUP3 ADD DUP1 PUSH1 0x40 MSTORE POP DUP2 ADD SWAP1 PUSH3 0x26C3 SWAP2 SWAP1 PUSH3 0x491F JUMP JUMPDEST ISZERO PUSH3 0x276A JUMPI PUSH1 0x8 PUSH1 0x0 SWAP1 SLOAD SWAP1 PUSH2 0x100 EXP SWAP1 DIV PUSH20 0xFFFFFFFFFFFFFFFFFFFFFFFFFFFFFFFFFFFFFFFF AND PUSH20 0xFFFFFFFFFFFFFFFFFFFFFFFFFFFFFFFFFFFFFFFF AND PUSH4 0xCC2EE196 PUSH1 0x40 MLOAD DUP2 PUSH4 0xFFFFFFFF AND PUSH1 0xE0 SHL DUP2 MSTORE PUSH1 0x4 ADD PUSH1 0x0 PUSH1 0x40 MLOAD DUP1 DUP4 SUB DUP2 DUP7 GAS STATICCALL ISZERO DUP1 ISZERO PUSH3 0x2737 JUMPI RETURNDATASIZE PUSH1 0x0 DUP1 RETURNDATACOPY RETURNDATASIZE PUSH1 0x0 REVERT JUMPDEST POP POP POP POP PUSH1 0x40 MLOAD RETURNDATASIZE PUSH1 0x0 DUP3 RETURNDATACOPY RETURNDATASIZE PUSH1 0x1F NOT PUSH1 0x1F DUP3 ADD AND DUP3 ADD DUP1 PUSH1 0x40 MSTORE POP DUP2 ADD SWAP1 PUSH3 0x2762 SWAP2 SWAP1 PUSH3 0x4DA5 JUMP JUMPDEST SWAP1 POP PUSH3 0x27A7 JUMP JUMPDEST PUSH1 0x40 MLOAD PUSH32 0x8C379A000000000000000000000000000000000000000000000000000000000 DUP2 MSTORE PUSH1 0x4 ADD PUSH3 0x279E SWAP1 PUSH3 0x554C JUMP JUMPDEST PUSH1 0x40 MLOAD DUP1 SWAP2 SUB SWAP1 REVERT JUMPDEST SWAP1 JUMP JUMPDEST PUSH1 0x6 PUSH1 0x1 SWAP1 SLOAD SWAP1 PUSH2 0x100 EXP SWAP1 DIV PUSH1 0xFF AND DUP2 JUMP JUMPDEST PUSH1 0x1 DUP2 DUP2 SLOAD DUP2 LT PUSH3 0x27CE JUMPI PUSH1 0x0 DUP1 REVERT JUMPDEST SWAP1 PUSH1 0x0 MSTORE PUSH1 0x20 PUSH1 0x0 KECCAK256 ADD PUSH1 0x0 SWAP2 POP SLOAD SWAP1 PUSH2 0x100 EXP SWAP1 DIV PUSH20 0xFFFFFFFFFFFFFFFFFFFFFFFFFFFFFFFFFFFFFFFF AND DUP2 JUMP JUMPDEST PUSH1 0x0 DUP1 PUSH1 0x1 SWAP1 POP PUSH1 0x0 JUMPDEST DUP4 MLOAD DUP2 LT ISZERO PUSH3 0x28EF JUMPI PUSH1 0x6 PUSH1 0x3 SWAP1 SLOAD SWAP1 PUSH2 0x100 EXP SWAP1 DIV PUSH20 0xFFFFFFFFFFFFFFFFFFFFFFFFFFFFFFFFFFFFFFFF AND PUSH20 0xFFFFFFFFFFFFFFFFFFFFFFFFFFFFFFFFFFFFFFFF AND PUSH4 0xFA4D7AAE DUP6 DUP4 DUP2 MLOAD DUP2 LT PUSH3 0x2865 JUMPI PUSH3 0x2864 PUSH3 0x52FA JUMP JUMPDEST JUMPDEST PUSH1 0x20 MUL PUSH1 0x20 ADD ADD MLOAD PUSH1 0x40 MLOAD DUP3 PUSH4 0xFFFFFFFF AND PUSH1 0xE0 SHL DUP2 MSTORE PUSH1 0x4 ADD PUSH3 0x288B SWAP2 SWAP1 PUSH3 0x42CA JUMP JUMPDEST PUSH1 0x20 PUSH1 0x40 MLOAD DUP1 DUP4 SUB DUP2 DUP7 GAS STATICCALL ISZERO DUP1 ISZERO PUSH3 0x28A9 JUMPI RETURNDATASIZE PUSH1 0x0 DUP1 RETURNDATACOPY RETURNDATASIZE PUSH1 0x0 REVERT JUMPDEST POP POP POP POP PUSH1 0x40 MLOAD RETURNDATASIZE PUSH1 0x1F NOT PUSH1 0x1F DUP3 ADD AND DUP3 ADD DUP1 PUSH1 0x40 MSTORE POP DUP2 ADD SWAP1 PUSH3 0x28CF SWAP2 SWAP1 PUSH3 0x491F JUMP JUMPDEST PUSH3 0x28D9 JUMPI PUSH1 0x0 SWAP2 POP JUMPDEST DUP1 DUP1 PUSH3 0x28E6 SWAP1 PUSH3 0x5358 JUMP JUMPDEST SWAP2 POP POP PUSH3 0x2807 JUMP JUMPDEST POP DUP1 SWAP2 POP POP SWAP2 SWAP1 POP JUMP JUMPDEST PUSH1 0x0 DUP1 CALLER SWAP1 POP PUSH1 0x6 PUSH1 0x3 SWAP1 SLOAD SWAP1 PUSH2 0x100 EXP SWAP1 DIV PUSH20 0xFFFFFFFFFFFFFFFFFFFFFFFFFFFFFFFFFFFFFFFF AND PUSH20 0xFFFFFFFFFFFFFFFFFFFFFFFFFFFFFFFFFFFFFFFF AND PUSH4 0xFA4D7AAE DUP3 PUSH1 0x40 MLOAD DUP3 PUSH4 0xFFFFFFFF AND PUSH1 0xE0 SHL DUP2 MSTORE PUSH1 0x4 ADD PUSH3 0x295C SWAP2 SWAP1 PUSH3 0x42CA JUMP JUMPDEST PUSH1 0x20 PUSH1 0x40 MLOAD DUP1 DUP4 SUB DUP2 DUP7 GAS STATICCALL ISZERO DUP1 ISZERO PUSH3 0x297A JUMPI RETURNDATASIZE PUSH1 0x0 DUP1 RETURNDATACOPY RETURNDATASIZE PUSH1 0x0 REVERT JUMPDEST POP POP POP POP PUSH1 0x40 MLOAD RETURNDATASIZE PUSH1 0x1F NOT PUSH1 0x1F DUP3 ADD AND DUP3 ADD DUP1 PUSH1 0x40 MSTORE POP DUP2 ADD SWAP1 PUSH3 0x29A0 SWAP2 SWAP1 PUSH3 0x491F JUMP JUMPDEST ISZERO PUSH3 0x29B1 JUMPI PUSH1 0x1 SWAP2 POP POP PUSH3 0x29B7 JUMP JUMPDEST PUSH1 0x0 SWAP2 POP POP JUMPDEST SWAP1 JUMP JUMPDEST PUSH1 0x3 PUSH1 0x5 DUP2 GT ISZERO PUSH3 0x29D1 JUMPI PUSH3 0x29D0 PUSH3 0x462E JUMP JUMPDEST JUMPDEST PUSH1 0x6 PUSH1 0x1 SWAP1 SLOAD SWAP1 PUSH2 0x100 EXP SWAP1 DIV PUSH1 0xFF AND PUSH1 0x5 DUP2 GT ISZERO PUSH3 0x29F6 JUMPI PUSH3 0x29F5 PUSH3 0x462E JUMP JUMPDEST JUMPDEST EQ ISZERO PUSH3 0x2E05 JUMPI PUSH1 0x0 PUSH3 0x2A09 PUSH3 0x368E JUMP JUMPDEST SWAP1 POP PUSH1 0x0 DUP2 MLOAD PUSH8 0xFFFFFFFFFFFFFFFF DUP2 GT ISZERO PUSH3 0x2A2B JUMPI PUSH3 0x2A2A PUSH3 0x46D0 JUMP JUMPDEST JUMPDEST PUSH1 0x40 MLOAD SWAP1 DUP1 DUP3 MSTORE DUP1 PUSH1 0x20 MUL PUSH1 0x20 ADD DUP3 ADD PUSH1 0x40 MSTORE DUP1 ISZERO PUSH3 0x2A5A JUMPI DUP2 PUSH1 0x20 ADD PUSH1 0x20 DUP3 MUL DUP1 CALLDATASIZE DUP4 CALLDATACOPY DUP1 DUP3 ADD SWAP2 POP POP SWAP1 POP JUMPDEST POP SWAP1 POP PUSH1 0x0 JUMPDEST DUP3 MLOAD DUP2 LT ISZERO PUSH3 0x2AF2 JUMPI DUP3 DUP2 DUP2 MLOAD DUP2 LT PUSH3 0x2A80 JUMPI PUSH3 0x2A7F PUSH3 0x52FA JUMP JUMPDEST JUMPDEST PUSH1 0x20 MUL PUSH1 0x20 ADD ADD MLOAD PUSH1 0x20 ADD MLOAD DUP3 DUP3 DUP2 MLOAD DUP2 LT PUSH3 0x2AA2 JUMPI PUSH3 0x2AA1 PUSH3 0x52FA JUMP JUMPDEST JUMPDEST PUSH1 0x20 MUL PUSH1 0x20 ADD ADD SWAP1 PUSH20 0xFFFFFFFFFFFFFFFFFFFFFFFFFFFFFFFFFFFFFFFF AND SWAP1 DUP2 PUSH20 0xFFFFFFFFFFFFFFFFFFFFFFFFFFFFFFFFFFFFFFFF AND DUP2 MSTORE POP POP DUP1 DUP1 PUSH3 0x2AE9 SWAP1 PUSH3 0x5358 JUMP JUMPDEST SWAP2 POP POP PUSH3 0x2A60 JUMP JUMPDEST POP PUSH1 0x0 PUSH1 0x3 DUP2 GT ISZERO PUSH3 0x2B0A JUMPI PUSH3 0x2B09 PUSH3 0x462E JUMP JUMPDEST JUMPDEST PUSH1 0x6 PUSH1 0x0 SWAP1 SLOAD SWAP1 PUSH2 0x100 EXP SWAP1 DIV PUSH1 0xFF AND PUSH1 0x3 DUP2 GT ISZERO PUSH3 0x2B2F JUMPI PUSH3 0x2B2E PUSH3 0x462E JUMP JUMPDEST JUMPDEST EQ ISZERO PUSH3 0x2C7A JUMPI PUSH1 0x0 PUSH1 0x6 PUSH1 0x3 SWAP1 SLOAD SWAP1 PUSH2 0x100 EXP SWAP1 DIV PUSH20 0xFFFFFFFFFFFFFFFFFFFFFFFFFFFFFFFFFFFFFFFF AND PUSH20 0xFFFFFFFFFFFFFFFFFFFFFFFFFFFFFFFFFFFFFFFF AND PUSH4 0x20E05D9C DUP4 PUSH1 0x40 MLOAD DUP3 PUSH4 0xFFFFFFFF AND PUSH1 0xE0 SHL DUP2 MSTORE PUSH1 0x4 ADD PUSH3 0x2B95 SWAP2 SWAP1 PUSH3 0x562B JUMP JUMPDEST PUSH1 0x0 PUSH1 0x40 MLOAD DUP1 DUP4 SUB DUP2 DUP7 GAS STATICCALL ISZERO DUP1 ISZERO PUSH3 0x2BB3 JUMPI RETURNDATASIZE PUSH1 0x0 DUP1 RETURNDATACOPY RETURNDATASIZE PUSH1 0x0 REVERT JUMPDEST POP POP POP POP PUSH1 0x40 MLOAD RETURNDATASIZE PUSH1 0x0 DUP3 RETURNDATACOPY RETURNDATASIZE PUSH1 0x1F NOT PUSH1 0x1F DUP3 ADD AND DUP3 ADD DUP1 PUSH1 0x40 MSTORE POP DUP2 ADD SWAP1 PUSH3 0x2BDE SWAP2 SWAP1 PUSH3 0x5784 JUMP JUMPDEST SWAP1 POP PUSH1 0x6 PUSH1 0x3 SWAP1 SLOAD SWAP1 PUSH2 0x100 EXP SWAP1 DIV PUSH20 0xFFFFFFFFFFFFFFFFFFFFFFFFFFFFFFFFFFFFFFFF AND PUSH20 0xFFFFFFFFFFFFFFFFFFFFFFFFFFFFFFFFFFFFFFFF AND PUSH4 0x3D0A8A34 CALLER DUP4 PUSH1 0x40 MLOAD DUP4 PUSH4 0xFFFFFFFF AND PUSH1 0xE0 SHL DUP2 MSTORE PUSH1 0x4 ADD PUSH3 0x2C3F SWAP3 SWAP2 SWAP1 PUSH3 0x58A6 JUMP JUMPDEST PUSH1 0x0 PUSH1 0x40 MLOAD DUP1 DUP4 SUB DUP2 PUSH1 0x0 DUP8 DUP1 EXTCODESIZE ISZERO DUP1 ISZERO PUSH3 0x2C5A JUMPI PUSH1 0x0 DUP1 REVERT JUMPDEST POP GAS CALL ISZERO DUP1 ISZERO PUSH3 0x2C6F JUMPI RETURNDATASIZE PUSH1 0x0 DUP1 RETURNDATACOPY RETURNDATASIZE PUSH1 0x0 REVERT JUMPDEST POP POP POP POP POP PUSH3 0x2DFD JUMP JUMPDEST PUSH1 0x1 PUSH1 0x3 DUP2 GT ISZERO PUSH3 0x2C91 JUMPI PUSH3 0x2C90 PUSH3 0x462E JUMP JUMPDEST JUMPDEST PUSH1 0x6 PUSH1 0x0 SWAP1 SLOAD SWAP1 PUSH2 0x100 EXP SWAP1 DIV PUSH1 0xFF AND PUSH1 0x3 DUP2 GT ISZERO PUSH3 0x2CB6 JUMPI PUSH3 0x2CB5 PUSH3 0x462E JUMP JUMPDEST JUMPDEST EQ ISZERO PUSH3 0x2DFC JUMPI PUSH1 0x0 PUSH1 0x6 PUSH1 0x3 SWAP1 SLOAD SWAP1 PUSH2 0x100 EXP SWAP1 DIV PUSH20 0xFFFFFFFFFFFFFFFFFFFFFFFFFFFFFFFFFFFFFFFF AND PUSH20 0xFFFFFFFFFFFFFFFFFFFFFFFFFFFFFFFFFFFFFFFF AND PUSH4 0xD41450B6 DUP4 PUSH1 0x40 MLOAD DUP3 PUSH4 0xFFFFFFFF AND PUSH1 0xE0 SHL DUP2 MSTORE PUSH1 0x4 ADD PUSH3 0x2D1C SWAP2 SWAP1 PUSH3 0x562B JUMP JUMPDEST PUSH1 0x0 PUSH1 0x40 MLOAD DUP1 DUP4 SUB DUP2 DUP7 GAS STATICCALL ISZERO DUP1 ISZERO PUSH3 0x2D3A JUMPI RETURNDATASIZE PUSH1 0x0 DUP1 RETURNDATACOPY RETURNDATASIZE PUSH1 0x0 REVERT JUMPDEST POP POP POP POP PUSH1 0x40 MLOAD RETURNDATASIZE PUSH1 0x0 DUP3 RETURNDATACOPY RETURNDATASIZE PUSH1 0x1F NOT PUSH1 0x1F DUP3 ADD AND DUP3 ADD DUP1 PUSH1 0x40 MSTORE POP DUP2 ADD SWAP1 PUSH3 0x2D65 SWAP2 SWAP1 PUSH3 0x5968 JUMP JUMPDEST SWAP1 POP PUSH1 0x6 PUSH1 0x3 SWAP1 SLOAD SWAP1 PUSH2 0x100 EXP SWAP1 DIV PUSH20 0xFFFFFFFFFFFFFFFFFFFFFFFFFFFFFFFFFFFFFFFF AND PUSH20 0xFFFFFFFFFFFFFFFFFFFFFFFFFFFFFFFFFFFFFFFF AND PUSH4 0x8AD63C01 CALLER DUP4 PUSH1 0x40 MLOAD DUP4 PUSH4 0xFFFFFFFF AND PUSH1 0xE0 SHL DUP2 MSTORE PUSH1 0x4 ADD PUSH3 0x2DC6 SWAP3 SWAP2 SWAP1 PUSH3 0x5A0F JUMP JUMPDEST PUSH1 0x0 PUSH1 0x40 MLOAD DUP1 DUP4 SUB DUP2 PUSH1 0x0 DUP8 DUP1 EXTCODESIZE ISZERO DUP1 ISZERO PUSH3 0x2DE1 JUMPI PUSH1 0x0 DUP1 REVERT JUMPDEST POP GAS CALL ISZERO DUP1 ISZERO PUSH3 0x2DF6 JUMPI RETURNDATASIZE PUSH1 0x0 DUP1 RETURNDATACOPY RETURNDATASIZE PUSH1 0x0 REVERT JUMPDEST POP POP POP POP POP JUMPDEST JUMPDEST POP POP PUSH3 0x2E42 JUMP JUMPDEST PUSH1 0x40 MLOAD PUSH32 0x8C379A000000000000000000000000000000000000000000000000000000000 DUP2 MSTORE PUSH1 0x4 ADD PUSH3 0x2E39 SWAP1 PUSH3 0x5AB9 JUMP JUMPDEST PUSH1 0x40 MLOAD DUP1 SWAP2 SUB SWAP1 REVERT JUMPDEST JUMP JUMPDEST PUSH1 0x6 PUSH1 0x3 SWAP1 SLOAD SWAP1 PUSH2 0x100 EXP SWAP1 DIV PUSH20 0xFFFFFFFFFFFFFFFFFFFFFFFFFFFFFFFFFFFFFFFF AND PUSH20 0xFFFFFFFFFFFFFFFFFFFFFFFFFFFFFFFFFFFFFFFF AND PUSH4 0xFA4D7AAE CALLER PUSH1 0x40 MLOAD DUP3 PUSH4 0xFFFFFFFF AND PUSH1 0xE0 SHL DUP2 MSTORE PUSH1 0x4 ADD PUSH3 0x2EA1 SWAP2 SWAP1 PUSH3 0x42CA JUMP JUMPDEST PUSH1 0x20 PUSH1 0x40 MLOAD DUP1 DUP4 SUB DUP2 DUP7 GAS STATICCALL ISZERO DUP1 ISZERO PUSH3 0x2EBF JUMPI RETURNDATASIZE PUSH1 0x0 DUP1 RETURNDATACOPY RETURNDATASIZE PUSH1 0x0 REVERT JUMPDEST POP POP POP POP PUSH1 0x40 MLOAD RETURNDATASIZE PUSH1 0x1F NOT PUSH1 0x1F DUP3 ADD AND DUP3 ADD DUP1 PUSH1 0x40 MSTORE POP DUP2 ADD SWAP1 PUSH3 0x2EE5 SWAP2 SWAP1 PUSH3 0x491F JUMP JUMPDEST PUSH3 0x2F27 JUMPI PUSH1 0x40 MLOAD PUSH32 0x8C379A000000000000000000000000000000000000000000000000000000000 DUP2 MSTORE PUSH1 0x4 ADD PUSH3 0x2F1E SWAP1 PUSH3 0x49D8 JUMP JUMPDEST PUSH1 0x40 MLOAD DUP1 SWAP2 SUB SWAP1 REVERT JUMPDEST PUSH1 0x2 PUSH1 0x5 DUP2 GT ISZERO PUSH3 0x2F3E JUMPI PUSH3 0x2F3D PUSH3 0x462E JUMP JUMPDEST JUMPDEST PUSH1 0x6 PUSH1 0x1 SWAP1 SLOAD SWAP1 PUSH2 0x100 EXP SWAP1 DIV PUSH1 0xFF AND PUSH1 0x5 DUP2 GT ISZERO PUSH3 0x2F63 JUMPI PUSH3 0x2F62 PUSH3 0x462E JUMP JUMPDEST JUMPDEST EQ ISZERO PUSH3 0x3030 JUMPI PUSH3 0x2F74 PUSH3 0x3448 JUMP JUMPDEST ISZERO PUSH3 0x2FB0 JUMPI PUSH3 0x2F84 PUSH3 0x29BA JUMP JUMPDEST PUSH3 0x2FAA PUSH1 0x3 PUSH1 0x40 MLOAD DUP1 PUSH1 0x60 ADD PUSH1 0x40 MSTORE DUP1 PUSH1 0x24 DUP2 MSTORE PUSH1 0x20 ADD PUSH3 0xB602 PUSH1 0x24 SWAP2 CODECOPY PUSH3 0x38E9 JUMP JUMPDEST PUSH3 0x302A JUMP JUMPDEST PUSH3 0x2FBA PUSH3 0x20C4 JUMP JUMPDEST ISZERO PUSH3 0x2FEC JUMPI PUSH3 0x2FE6 PUSH1 0x1 PUSH1 0x40 MLOAD DUP1 PUSH1 0x60 ADD PUSH1 0x40 MSTORE DUP1 PUSH1 0x38 DUP2 MSTORE PUSH1 0x20 ADD PUSH3 0xB626 PUSH1 0x38 SWAP2 CODECOPY PUSH3 0x3FAE JUMP JUMPDEST PUSH3 0x3029 JUMP JUMPDEST PUSH1 0x40 MLOAD PUSH32 0x8C379A000000000000000000000000000000000000000000000000000000000 DUP2 MSTORE PUSH1 0x4 ADD PUSH3 0x3020 SWAP1 PUSH3 0x5B51 JUMP JUMPDEST PUSH1 0x40 MLOAD DUP1 SWAP2 SUB SWAP1 REVERT JUMPDEST JUMPDEST PUSH3 0x306D JUMP JUMPDEST PUSH1 0x40 MLOAD PUSH32 0x8C379A000000000000000000000000000000000000000000000000000000000 DUP2 MSTORE PUSH1 0x4 ADD PUSH3 0x3064 SWAP1 PUSH3 0x5BE9 JUMP JUMPDEST PUSH1 0x40 MLOAD DUP1 SWAP2 SUB SWAP1 REVERT JUMPDEST JUMP JUMPDEST PUSH1 0x0 DUP1 PUSH3 0x307C PUSH3 0xB05 JUMP JUMPDEST SWAP1 POP PUSH1 0x9 PUSH1 0x0 SWAP1 SLOAD SWAP1 PUSH2 0x100 EXP SWAP1 DIV PUSH20 0xFFFFFFFFFFFFFFFFFFFFFFFFFFFFFFFFFFFFFFFF AND PUSH20 0xFFFFFFFFFFFFFFFFFFFFFFFFFFFFFFFFFFFFFFFF AND PUSH4 0xFD3BAD52 PUSH1 0x3 SLOAD DUP4 PUSH3 0x30CC SWAP2 SWAP1 PUSH3 0x543E JUMP JUMPDEST PUSH1 0x64 PUSH1 0x40 MLOAD DUP4 PUSH4 0xFFFFFFFF AND PUSH1 0xE0 SHL DUP2 MSTORE PUSH1 0x4 ADD PUSH3 0x30ED SWAP3 SWAP2 SWAP1 PUSH3 0x5C58 JUMP JUMPDEST PUSH1 0x20 PUSH1 0x40 MLOAD DUP1 DUP4 SUB DUP2 DUP7 GAS STATICCALL ISZERO DUP1 ISZERO PUSH3 0x310B JUMPI RETURNDATASIZE PUSH1 0x0 DUP1 RETURNDATACOPY RETURNDATASIZE PUSH1 0x0 REVERT JUMPDEST POP POP POP POP PUSH1 0x40 MLOAD RETURNDATASIZE PUSH1 0x1F NOT PUSH1 0x1F DUP3 ADD AND DUP3 ADD DUP1 PUSH1 0x40 MSTORE POP DUP2 ADD SWAP1 PUSH3 0x3131 SWAP2 SWAP1 PUSH3 0x4DF6 JUMP JUMPDEST SWAP2 POP POP SWAP1 JUMP JUMPDEST PUSH1 0x0 DUP1 PUSH1 0x5 DUP2 GT ISZERO PUSH3 0x314F JUMPI PUSH3 0x314E PUSH3 0x462E JUMP JUMPDEST JUMPDEST PUSH1 0x6 PUSH1 0x1 SWAP1 SLOAD SWAP1 PUSH2 0x100 EXP SWAP1 DIV PUSH1 0xFF AND PUSH1 0x5 DUP2 GT ISZERO PUSH3 0x3174 JUMPI PUSH3 0x3173 PUSH3 0x462E JUMP JUMPDEST JUMPDEST EQ ISZERO PUSH3 0x3190 JUMPI PUSH3 0x3185 PUSH3 0x20C4 JUMP JUMPDEST PUSH3 0x318F JUMPI PUSH1 0x1 SWAP1 POP JUMPDEST JUMPDEST DUP1 PUSH3 0x31D3 JUMPI PUSH1 0x40 MLOAD PUSH32 0x8C379A000000000000000000000000000000000000000000000000000000000 DUP2 MSTORE PUSH1 0x4 ADD PUSH3 0x31CA SWAP1 PUSH3 0x4F63 JUMP JUMPDEST PUSH1 0x40 MLOAD DUP1 SWAP2 SUB SWAP1 REVERT JUMPDEST PUSH1 0x0 PUSH1 0x7 PUSH1 0x0 SWAP1 SLOAD SWAP1 PUSH2 0x100 EXP SWAP1 DIV PUSH20 0xFFFFFFFFFFFFFFFFFFFFFFFFFFFFFFFFFFFFFFFF AND PUSH20 0xFFFFFFFFFFFFFFFFFFFFFFFFFFFFFFFFFFFFFFFF AND PUSH4 0xCC2EE196 PUSH1 0x40 MLOAD DUP2 PUSH4 0xFFFFFFFF AND PUSH1 0xE0 SHL DUP2 MSTORE PUSH1 0x4 ADD PUSH1 0x0 PUSH1 0x40 MLOAD DUP1 DUP4 SUB DUP2 DUP7 GAS STATICCALL ISZERO DUP1 ISZERO PUSH3 0x3243 JUMPI RETURNDATASIZE PUSH1 0x0 DUP1 RETURNDATACOPY RETURNDATASIZE PUSH1 0x0 REVERT JUMPDEST POP POP POP POP PUSH1 0x40 MLOAD RETURNDATASIZE PUSH1 0x0 DUP3 RETURNDATACOPY RETURNDATASIZE PUSH1 0x1F NOT PUSH1 0x1F DUP3 ADD AND DUP3 ADD DUP1 PUSH1 0x40 MSTORE POP DUP2 ADD SWAP1 PUSH3 0x326E SWAP2 SWAP1 PUSH3 0x4DA5 JUMP JUMPDEST SWAP1 POP PUSH1 0x0 JUMPDEST DUP2 MLOAD DUP2 LT ISZERO PUSH3 0x3407 JUMPI DUP2 DUP2 DUP2 MLOAD DUP2 LT PUSH3 0x3293 JUMPI PUSH3 0x3292 PUSH3 0x52FA JUMP JUMPDEST JUMPDEST PUSH1 0x20 MUL PUSH1 0x20 ADD ADD MLOAD PUSH1 0x20 ADD MLOAD PUSH20 0xFFFFFFFFFFFFFFFFFFFFFFFFFFFFFFFFFFFFFFFF AND CALLER PUSH20 0xFFFFFFFFFFFFFFFFFFFFFFFFFFFFFFFFFFFFFFFF AND EQ ISZERO PUSH3 0x33F1 JUMPI DUP2 DUP2 DUP2 MLOAD DUP2 LT PUSH3 0x32E9 JUMPI PUSH3 0x32E8 PUSH3 0x52FA JUMP JUMPDEST JUMPDEST PUSH1 0x20 MUL PUSH1 0x20 ADD ADD MLOAD PUSH1 0x60 ADD MLOAD PUSH3 0x33B4 JUMPI PUSH1 0x7 PUSH1 0x0 SWAP1 SLOAD SWAP1 PUSH2 0x100 EXP SWAP1 DIV PUSH20 0xFFFFFFFFFFFFFFFFFFFFFFFFFFFFFFFFFFFFFFFF AND PUSH20 0xFFFFFFFFFFFFFFFFFFFFFFFFFFFFFFFFFFFFFFFF AND PUSH4 0xDDD7531B DUP4 DUP4 DUP2 MLOAD DUP2 LT PUSH3 0x334E JUMPI PUSH3 0x334D PUSH3 0x52FA JUMP JUMPDEST JUMPDEST PUSH1 0x20 MUL PUSH1 0x20 ADD ADD MLOAD PUSH1 0x0 ADD MLOAD PUSH1 0x40 MLOAD DUP3 PUSH4 0xFFFFFFFF AND PUSH1 0xE0 SHL DUP2 MSTORE PUSH1 0x4 ADD PUSH3 0x3378 SWAP2 SWAP1 PUSH3 0x45AE JUMP JUMPDEST PUSH1 0x0 PUSH1 0x40 MLOAD DUP1 DUP4 SUB DUP2 PUSH1 0x0 DUP8 DUP1 EXTCODESIZE ISZERO DUP1 ISZERO PUSH3 0x3393 JUMPI PUSH1 0x0 DUP1 REVERT JUMPDEST POP GAS CALL ISZERO DUP1 ISZERO PUSH3 0x33A8 JUMPI RETURNDATASIZE PUSH1 0x0 DUP1 RETURNDATACOPY RETURNDATASIZE PUSH1 0x0 REVERT JUMPDEST POP POP POP POP POP POP PUSH3 0x3445 JUMP JUMPDEST PUSH1 0x40 MLOAD PUSH32 0x8C379A000000000000000000000000000000000000000000000000000000000 DUP2 MSTORE PUSH1 0x4 ADD PUSH3 0x33E8 SWAP1 PUSH3 0x5CFB JUMP JUMPDEST PUSH1 0x40 MLOAD DUP1 SWAP2 SUB SWAP1 REVERT JUMPDEST DUP1 DUP1 PUSH3 0x33FE SWAP1 PUSH3 0x5358 JUMP JUMPDEST SWAP2 POP POP PUSH3 0x3273 JUMP JUMPDEST POP PUSH1 0x40 MLOAD PUSH32 0x8C379A000000000000000000000000000000000000000000000000000000000 DUP2 MSTORE PUSH1 0x4 ADD PUSH3 0x343C SWAP1 PUSH3 0x5D6D JUMP JUMPDEST PUSH1 0x40 MLOAD DUP1 SWAP2 SUB SWAP1 REVERT JUMPDEST POP JUMP JUMPDEST PUSH1 0x0 DUP1 PUSH3 0x3455 PUSH3 0xB05 JUMP JUMPDEST SWAP1 POP PUSH1 0x0 PUSH3 0x3463 PUSH3 0x306F JUMP JUMPDEST SWAP1 POP DUP1 DUP3 GT SWAP3 POP POP POP SWAP1 JUMP JUMPDEST PUSH1 0x60 PUSH1 0x0 PUSH3 0x347D PUSH3 0x14FB JUMP JUMPDEST SWAP1 POP PUSH1 0x0 DUP2 MLOAD PUSH8 0xFFFFFFFFFFFFFFFF DUP2 GT ISZERO PUSH3 0x349F JUMPI PUSH3 0x349E PUSH3 0x46D0 JUMP JUMPDEST JUMPDEST PUSH1 0x40 MLOAD SWAP1 DUP1 DUP3 MSTORE DUP1 PUSH1 0x20 MUL PUSH1 0x20 ADD DUP3 ADD PUSH1 0x40 MSTORE DUP1 ISZERO PUSH3 0x34DC JUMPI DUP2 PUSH1 0x20 ADD JUMPDEST PUSH3 0x34C8 PUSH3 0x40CF JUMP JUMPDEST DUP2 MSTORE PUSH1 0x20 ADD SWAP1 PUSH1 0x1 SWAP1 SUB SWAP1 DUP2 PUSH3 0x34BE JUMPI SWAP1 POP JUMPDEST POP SWAP1 POP PUSH1 0x0 DUP1 JUMPDEST DUP4 MLOAD DUP2 LT ISZERO PUSH3 0x3585 JUMPI PUSH1 0x0 DUP5 DUP3 DUP2 MLOAD DUP2 LT PUSH3 0x3505 JUMPI PUSH3 0x3504 PUSH3 0x52FA JUMP JUMPDEST JUMPDEST PUSH1 0x20 MUL PUSH1 0x20 ADD ADD MLOAD PUSH1 0xC0 ADD MLOAD SWAP1 POP PUSH1 0x4 SLOAD DUP2 GT ISZERO PUSH3 0x356E JUMPI DUP5 DUP3 DUP2 MLOAD DUP2 LT PUSH3 0x3534 JUMPI PUSH3 0x3533 PUSH3 0x52FA JUMP JUMPDEST JUMPDEST PUSH1 0x20 MUL PUSH1 0x20 ADD ADD MLOAD DUP5 DUP5 DUP2 MLOAD DUP2 LT PUSH3 0x3552 JUMPI PUSH3 0x3551 PUSH3 0x52FA JUMP JUMPDEST JUMPDEST PUSH1 0x20 MUL PUSH1 0x20 ADD ADD DUP2 SWAP1 MSTORE POP DUP3 DUP1 PUSH3 0x356A SWAP1 PUSH3 0x5358 JUMP JUMPDEST SWAP4 POP POP JUMPDEST POP DUP1 DUP1 PUSH3 0x357C SWAP1 PUSH3 0x5358 JUMP JUMPDEST SWAP2 POP POP PUSH3 0x34E3 JUMP JUMPDEST POP DUP1 DUP3 MSTORE DUP2 SWAP4 POP POP POP POP SWAP1 JUMP JUMPDEST PUSH1 0x0 DUP1 PUSH1 0x1 SWAP1 POP PUSH1 0x0 JUMPDEST DUP4 MLOAD DUP2 LT ISZERO PUSH3 0x3684 JUMPI PUSH1 0x6 PUSH1 0x3 SWAP1 SLOAD SWAP1 PUSH2 0x100 EXP SWAP1 DIV PUSH20 0xFFFFFFFFFFFFFFFFFFFFFFFFFFFFFFFFFFFFFFFF AND PUSH20 0xFFFFFFFFFFFFFFFFFFFFFFFFFFFFFFFFFFFFFFFF AND PUSH4 0x297027D5 DUP6 DUP4 DUP2 MLOAD DUP2 LT PUSH3 0x35FA JUMPI PUSH3 0x35F9 PUSH3 0x52FA JUMP JUMPDEST JUMPDEST PUSH1 0x20 MUL PUSH1 0x20 ADD ADD MLOAD PUSH1 0x40 MLOAD DUP3 PUSH4 0xFFFFFFFF AND PUSH1 0xE0 SHL DUP2 MSTORE PUSH1 0x4 ADD PUSH3 0x3620 SWAP2 SWAP1 PUSH3 0x42CA JUMP JUMPDEST PUSH1 0x20 PUSH1 0x40 MLOAD DUP1 DUP4 SUB DUP2 DUP7 GAS STATICCALL ISZERO DUP1 ISZERO PUSH3 0x363E JUMPI RETURNDATASIZE PUSH1 0x0 DUP1 RETURNDATACOPY RETURNDATASIZE PUSH1 0x0 REVERT JUMPDEST POP POP POP POP PUSH1 0x40 MLOAD RETURNDATASIZE PUSH1 0x1F NOT PUSH1 0x1F DUP3 ADD AND DUP3 ADD DUP1 PUSH1 0x40 MSTORE POP DUP2 ADD SWAP1 PUSH3 0x3664 SWAP2 SWAP1 PUSH3 0x491F JUMP JUMPDEST PUSH3 0x366E JUMPI PUSH1 0x0 SWAP2 POP JUMPDEST DUP1 DUP1 PUSH3 0x367B SWAP1 PUSH3 0x5358 JUMP JUMPDEST SWAP2 POP POP PUSH3 0x359C JUMP JUMPDEST POP DUP1 SWAP2 POP POP SWAP2 SWAP1 POP JUMP JUMPDEST PUSH1 0x60 PUSH1 0x8 PUSH1 0x0 SWAP1 SLOAD SWAP1 PUSH2 0x100 EXP SWAP1 DIV PUSH20 0xFFFFFFFFFFFFFFFFFFFFFFFFFFFFFFFFFFFFFFFF AND PUSH20 0xFFFFFFFFFFFFFFFFFFFFFFFFFFFFFFFFFFFFFFFF AND PUSH4 0xC467A69C PUSH1 0x40 MLOAD DUP2 PUSH4 0xFFFFFFFF AND PUSH1 0xE0 SHL DUP2 MSTORE PUSH1 0x4 ADD PUSH1 0x20 PUSH1 0x40 MLOAD DUP1 DUP4 SUB DUP2 PUSH1 0x0 DUP8 GAS CALL ISZERO DUP1 ISZERO PUSH3 0x3700 JUMPI RETURNDATASIZE PUSH1 0x0 DUP1 RETURNDATACOPY RETURNDATASIZE PUSH1 0x0 REVERT JUMPDEST POP POP POP POP PUSH1 0x40 MLOAD RETURNDATASIZE PUSH1 0x1F NOT PUSH1 0x1F DUP3 ADD AND DUP3 ADD DUP1 PUSH1 0x40 MSTORE POP DUP2 ADD SWAP1 PUSH3 0x3726 SWAP2 SWAP1 PUSH3 0x491F JUMP JUMPDEST PUSH3 0x3768 JUMPI PUSH1 0x40 MLOAD PUSH32 0x8C379A000000000000000000000000000000000000000000000000000000000 DUP2 MSTORE PUSH1 0x4 ADD PUSH3 0x375F SWAP1 PUSH3 0x554C JUMP JUMPDEST PUSH1 0x40 MLOAD DUP1 SWAP2 SUB SWAP1 REVERT JUMPDEST PUSH1 0x0 PUSH3 0x3774 PUSH3 0x262B JUMP JUMPDEST SWAP1 POP PUSH1 0x0 DUP2 MLOAD PUSH8 0xFFFFFFFFFFFFFFFF DUP2 GT ISZERO PUSH3 0x3796 JUMPI PUSH3 0x3795 PUSH3 0x46D0 JUMP JUMPDEST JUMPDEST PUSH1 0x40 MLOAD SWAP1 DUP1 DUP3 MSTORE DUP1 PUSH1 0x20 MUL PUSH1 0x20 ADD DUP3 ADD PUSH1 0x40 MSTORE DUP1 ISZERO PUSH3 0x37D3 JUMPI DUP2 PUSH1 0x20 ADD JUMPDEST PUSH3 0x37BF PUSH3 0x40CF JUMP JUMPDEST DUP2 MSTORE PUSH1 0x20 ADD SWAP1 PUSH1 0x1 SWAP1 SUB SWAP1 DUP2 PUSH3 0x37B5 JUMPI SWAP1 POP JUMPDEST POP SWAP1 POP PUSH3 0x37E0 PUSH3 0x40CF JUMP JUMPDEST PUSH1 0x0 DUP1 PUSH1 0x0 JUMPDEST DUP6 MLOAD DUP2 LT ISZERO PUSH3 0x38DA JUMPI PUSH1 0x0 DUP7 DUP3 DUP2 MLOAD DUP2 LT PUSH3 0x3808 JUMPI PUSH3 0x3807 PUSH3 0x52FA JUMP JUMPDEST JUMPDEST PUSH1 0x20 MUL PUSH1 0x20 ADD ADD MLOAD PUSH1 0xC0 ADD MLOAD SWAP1 POP PUSH1 0x5 SLOAD DUP4 LT PUSH3 0x3873 JUMPI DUP5 PUSH1 0xC0 ADD MLOAD DUP2 GT ISZERO PUSH3 0x386D JUMPI DUP7 DUP3 DUP2 MLOAD DUP2 LT PUSH3 0x3843 JUMPI PUSH3 0x3842 PUSH3 0x52FA JUMP JUMPDEST JUMPDEST PUSH1 0x20 MUL PUSH1 0x20 ADD ADD MLOAD DUP7 DUP6 DUP2 MLOAD DUP2 LT PUSH3 0x3861 JUMPI PUSH3 0x3860 PUSH3 0x52FA JUMP JUMPDEST JUMPDEST PUSH1 0x20 MUL PUSH1 0x20 ADD ADD DUP2 SWAP1 MSTORE POP JUMPDEST PUSH3 0x38C3 JUMP JUMPDEST DUP7 DUP3 DUP2 MLOAD DUP2 LT PUSH3 0x3889 JUMPI PUSH3 0x3888 PUSH3 0x52FA JUMP JUMPDEST JUMPDEST PUSH1 0x20 MUL PUSH1 0x20 ADD ADD MLOAD DUP7 DUP5 DUP2 MLOAD DUP2 LT PUSH3 0x38A7 JUMPI PUSH3 0x38A6 PUSH3 0x52FA JUMP JUMPDEST JUMPDEST PUSH1 0x20 MUL PUSH1 0x20 ADD ADD DUP2 SWAP1 MSTORE POP DUP3 DUP1 PUSH3 0x38BF SWAP1 PUSH3 0x5358 JUMP JUMPDEST SWAP4 POP POP JUMPDEST POP DUP1 DUP1 PUSH3 0x38D1 SWAP1 PUSH3 0x5358 JUMP JUMPDEST SWAP2 POP POP PUSH3 0x37E6 JUMP JUMPDEST POP DUP1 DUP5 MSTORE DUP4 SWAP6 POP POP POP POP POP POP SWAP1 JUMP JUMPDEST CALLER PUSH20 0xFFFFFFFFFFFFFFFFFFFFFFFFFFFFFFFFFFFFFFFF AND PUSH32 0xFC6F5E211098B443015CCB625104A41F61E97A80DD9B8734242A9A8C3EECC8DC PUSH1 0x6 PUSH1 0x1 SWAP1 SLOAD SWAP1 PUSH2 0x100 EXP SWAP1 DIV PUSH1 0xFF AND DUP5 DUP5 PUSH1 0x40 MLOAD PUSH3 0x3944 SWAP4 SWAP3 SWAP2 SWAP1 PUSH3 0x5D8F JUMP JUMPDEST PUSH1 0x40 MLOAD DUP1 SWAP2 SUB SWAP1 LOG2 DUP2 PUSH1 0x6 PUSH1 0x1 PUSH2 0x100 EXP DUP2 SLOAD DUP2 PUSH1 0xFF MUL NOT AND SWAP1 DUP4 PUSH1 0x5 DUP2 GT ISZERO PUSH3 0x3974 JUMPI PUSH3 0x3973 PUSH3 0x462E JUMP JUMPDEST JUMPDEST MUL OR SWAP1 SSTORE POP POP POP JUMP JUMPDEST PUSH1 0x6 PUSH1 0x3 SWAP1 SLOAD SWAP1 PUSH2 0x100 EXP SWAP1 DIV PUSH20 0xFFFFFFFFFFFFFFFFFFFFFFFFFFFFFFFFFFFFFFFF AND PUSH20 0xFFFFFFFFFFFFFFFFFFFFFFFFFFFFFFFFFFFFFFFF AND PUSH4 0xFA4D7AAE CALLER PUSH1 0x40 MLOAD DUP3 PUSH4 0xFFFFFFFF AND PUSH1 0xE0 SHL DUP2 MSTORE PUSH1 0x4 ADD PUSH3 0x39DA SWAP2 SWAP1 PUSH3 0x42CA JUMP JUMPDEST PUSH1 0x20 PUSH1 0x40 MLOAD DUP1 DUP4 SUB DUP2 DUP7 GAS STATICCALL ISZERO DUP1 ISZERO PUSH3 0x39F8 JUMPI RETURNDATASIZE PUSH1 0x0 DUP1 RETURNDATACOPY RETURNDATASIZE PUSH1 0x0 REVERT JUMPDEST POP POP POP POP PUSH1 0x40 MLOAD RETURNDATASIZE PUSH1 0x1F NOT PUSH1 0x1F DUP3 ADD AND DUP3 ADD DUP1 PUSH1 0x40 MSTORE POP DUP2 ADD SWAP1 PUSH3 0x3A1E SWAP2 SWAP1 PUSH3 0x491F JUMP JUMPDEST PUSH3 0x3A60 JUMPI PUSH1 0x40 MLOAD PUSH32 0x8C379A000000000000000000000000000000000000000000000000000000000 DUP2 MSTORE PUSH1 0x4 ADD PUSH3 0x3A57 SWAP1 PUSH3 0x49D8 JUMP JUMPDEST PUSH1 0x40 MLOAD DUP1 SWAP2 SUB SWAP1 REVERT JUMPDEST PUSH1 0x0 PUSH1 0x7 PUSH1 0x0 SWAP1 SLOAD SWAP1 PUSH2 0x100 EXP SWAP1 DIV PUSH20 0xFFFFFFFFFFFFFFFFFFFFFFFFFFFFFFFFFFFFFFFF AND PUSH20 0xFFFFFFFFFFFFFFFFFFFFFFFFFFFFFFFFFFFFFFFF AND PUSH4 0xFF3C1A8F PUSH1 0x40 MLOAD DUP2 PUSH4 0xFFFFFFFF AND PUSH1 0xE0 SHL DUP2 MSTORE PUSH1 0x4 ADD PUSH1 0x0 PUSH1 0x40 MLOAD DUP1 DUP4 SUB DUP2 DUP7 GAS STATICCALL ISZERO DUP1 ISZERO PUSH3 0x3AD0 JUMPI RETURNDATASIZE PUSH1 0x0 DUP1 RETURNDATACOPY RETURNDATASIZE PUSH1 0x0 REVERT JUMPDEST POP POP POP POP PUSH1 0x40 MLOAD RETURNDATASIZE PUSH1 0x0 DUP3 RETURNDATACOPY RETURNDATASIZE PUSH1 0x1F NOT PUSH1 0x1F DUP3 ADD AND DUP3 ADD DUP1 PUSH1 0x40 MSTORE POP DUP2 ADD SWAP1 PUSH3 0x3AFB SWAP2 SWAP1 PUSH3 0x5DD3 JUMP JUMPDEST SWAP1 POP PUSH1 0x0 PUSH1 0x7 PUSH1 0x0 SWAP1 SLOAD SWAP1 PUSH2 0x100 EXP SWAP1 DIV PUSH20 0xFFFFFFFFFFFFFFFFFFFFFFFFFFFFFFFFFFFFFFFF AND PUSH20 0xFFFFFFFFFFFFFFFFFFFFFFFFFFFFFFFFFFFFFFFF AND PUSH4 0x1A092541 PUSH1 0x40 MLOAD DUP2 PUSH4 0xFFFFFFFF AND PUSH1 0xE0 SHL DUP2 MSTORE PUSH1 0x4 ADD PUSH1 0x0 PUSH1 0x40 MLOAD DUP1 DUP4 SUB DUP2 DUP7 GAS STATICCALL ISZERO DUP1 ISZERO PUSH3 0x3B6D JUMPI RETURNDATASIZE PUSH1 0x0 DUP1 RETURNDATACOPY RETURNDATASIZE PUSH1 0x0 REVERT JUMPDEST POP POP POP POP PUSH1 0x40 MLOAD RETURNDATASIZE PUSH1 0x0 DUP3 RETURNDATACOPY RETURNDATASIZE PUSH1 0x1F NOT PUSH1 0x1F DUP3 ADD AND DUP3 ADD DUP1 PUSH1 0x40 MSTORE POP DUP2 ADD SWAP1 PUSH3 0x3B98 SWAP2 SWAP1 PUSH3 0x5DD3 JUMP JUMPDEST SWAP1 POP PUSH1 0x0 DUP3 DUP3 PUSH1 0x1 PUSH1 0x40 MLOAD PUSH3 0x3BAE SWAP1 PUSH3 0x413A JUMP JUMPDEST PUSH3 0x3BBD SWAP5 SWAP4 SWAP3 SWAP2 SWAP1 PUSH3 0x5F24 JUMP JUMPDEST PUSH1 0x40 MLOAD DUP1 SWAP2 SUB SWAP1 PUSH1 0x0 CREATE DUP1 ISZERO DUP1 ISZERO PUSH3 0x3BDA JUMPI RETURNDATASIZE PUSH1 0x0 DUP1 RETURNDATACOPY RETURNDATASIZE PUSH1 0x0 REVERT JUMPDEST POP PUSH1 0x8 PUSH1 0x0 PUSH2 0x100 EXP DUP2 SLOAD DUP2 PUSH20 0xFFFFFFFFFFFFFFFFFFFFFFFFFFFFFFFFFFFFFFFF MUL NOT AND SWAP1 DUP4 PUSH20 0xFFFFFFFFFFFFFFFFFFFFFFFFFFFFFFFFFFFFFFFF AND MUL OR SWAP1 SSTORE POP PUSH1 0x0 PUSH3 0x3C27 PUSH3 0x346F JUMP JUMPDEST SWAP1 POP PUSH1 0x0 JUMPDEST DUP2 MLOAD DUP2 LT ISZERO PUSH3 0x3D31 JUMPI PUSH1 0x0 DUP3 DUP3 DUP2 MLOAD DUP2 LT PUSH3 0x3C4E JUMPI PUSH3 0x3C4D PUSH3 0x52FA JUMP JUMPDEST JUMPDEST PUSH1 0x20 MUL PUSH1 0x20 ADD ADD MLOAD SWAP1 POP PUSH1 0x0 DUP2 PUSH1 0x20 ADD MLOAD SWAP1 POP PUSH1 0x0 DUP3 PUSH1 0x20 ADD MLOAD SWAP1 POP PUSH1 0x0 DUP4 PUSH1 0x80 ADD MLOAD SWAP1 POP PUSH1 0x0 DUP5 PUSH1 0xA0 ADD MLOAD SWAP1 POP PUSH1 0x8 PUSH1 0x0 SWAP1 SLOAD SWAP1 PUSH2 0x100 EXP SWAP1 DIV PUSH20 0xFFFFFFFFFFFFFFFFFFFFFFFFFFFFFFFFFFFFFFFF AND PUSH20 0xFFFFFFFFFFFFFFFFFFFFFFFFFFFFFFFFFFFFFFFF AND PUSH4 0xDFECF96B DUP5 DUP7 PUSH1 0x1 DUP7 DUP7 PUSH1 0x40 MLOAD DUP7 PUSH4 0xFFFFFFFF AND PUSH1 0xE0 SHL DUP2 MSTORE PUSH1 0x4 ADD PUSH3 0x3CE2 SWAP6 SWAP5 SWAP4 SWAP3 SWAP2 SWAP1 PUSH3 0x51AB JUMP JUMPDEST PUSH1 0x0 PUSH1 0x40 MLOAD DUP1 DUP4 SUB DUP2 PUSH1 0x0 DUP8 DUP1 EXTCODESIZE ISZERO DUP1 ISZERO PUSH3 0x3CFD JUMPI PUSH1 0x0 DUP1 REVERT JUMPDEST POP GAS CALL ISZERO DUP1 ISZERO PUSH3 0x3D12 JUMPI RETURNDATASIZE PUSH1 0x0 DUP1 RETURNDATACOPY RETURNDATASIZE PUSH1 0x0 REVERT JUMPDEST POP POP POP POP POP POP POP POP POP DUP1 DUP1 PUSH3 0x3D28 SWAP1 PUSH3 0x5358 JUMP JUMPDEST SWAP2 POP POP PUSH3 0x3C2C JUMP JUMPDEST POP POP POP POP JUMP JUMPDEST PUSH1 0x6 PUSH1 0x3 SWAP1 SLOAD SWAP1 PUSH2 0x100 EXP SWAP1 DIV PUSH20 0xFFFFFFFFFFFFFFFFFFFFFFFFFFFFFFFFFFFFFFFF AND PUSH20 0xFFFFFFFFFFFFFFFFFFFFFFFFFFFFFFFFFFFFFFFF AND PUSH4 0xFA4D7AAE CALLER PUSH1 0x40 MLOAD DUP3 PUSH4 0xFFFFFFFF AND PUSH1 0xE0 SHL DUP2 MSTORE PUSH1 0x4 ADD PUSH3 0x3D94 SWAP2 SWAP1 PUSH3 0x42CA JUMP JUMPDEST PUSH1 0x20 PUSH1 0x40 MLOAD DUP1 DUP4 SUB DUP2 DUP7 GAS STATICCALL ISZERO DUP1 ISZERO PUSH3 0x3DB2 JUMPI RETURNDATASIZE PUSH1 0x0 DUP1 RETURNDATACOPY RETURNDATASIZE PUSH1 0x0 REVERT JUMPDEST POP POP POP POP PUSH1 0x40 MLOAD RETURNDATASIZE PUSH1 0x1F NOT PUSH1 0x1F DUP3 ADD AND DUP3 ADD DUP1 PUSH1 0x40 MSTORE POP DUP2 ADD SWAP1 PUSH3 0x3DD8 SWAP2 SWAP1 PUSH3 0x491F JUMP JUMPDEST PUSH3 0x3E1A JUMPI PUSH1 0x40 MLOAD PUSH32 0x8C379A000000000000000000000000000000000000000000000000000000000 DUP2 MSTORE PUSH1 0x4 ADD PUSH3 0x3E11 SWAP1 PUSH3 0x49D8 JUMP JUMPDEST PUSH1 0x40 MLOAD DUP1 SWAP2 SUB SWAP1 REVERT JUMPDEST PUSH3 0x3E25 DUP6 PUSH3 0x3592 JUMP JUMPDEST ISZERO PUSH3 0x3F6A JUMPI PUSH1 0x40 MLOAD PUSH3 0x3E39 SWAP1 PUSH3 0x4148 JUMP JUMPDEST PUSH1 0x40 MLOAD DUP1 SWAP2 SUB SWAP1 PUSH1 0x0 CREATE DUP1 ISZERO DUP1 ISZERO PUSH3 0x3E56 JUMPI RETURNDATASIZE PUSH1 0x0 DUP1 RETURNDATACOPY RETURNDATASIZE PUSH1 0x0 REVERT JUMPDEST POP PUSH1 0x9 PUSH1 0x0 PUSH2 0x100 EXP DUP2 SLOAD DUP2 PUSH20 0xFFFFFFFFFFFFFFFFFFFFFFFFFFFFFFFFFFFFFFFF MUL NOT AND SWAP1 DUP4 PUSH20 0xFFFFFFFFFFFFFFFFFFFFFFFFFFFFFFFFFFFFFFFF AND MUL OR SWAP1 SSTORE POP DUP5 DUP5 DUP5 PUSH1 0x0 PUSH1 0x40 MLOAD PUSH3 0x3EAA SWAP1 PUSH3 0x413A JUMP JUMPDEST PUSH3 0x3EB9 SWAP5 SWAP4 SWAP3 SWAP2 SWAP1 PUSH3 0x5F86 JUMP JUMPDEST PUSH1 0x40 MLOAD DUP1 SWAP2 SUB SWAP1 PUSH1 0x0 CREATE DUP1 ISZERO DUP1 ISZERO PUSH3 0x3ED6 JUMPI RETURNDATASIZE PUSH1 0x0 DUP1 RETURNDATACOPY RETURNDATASIZE PUSH1 0x0 REVERT JUMPDEST POP PUSH1 0x7 PUSH1 0x0 PUSH2 0x100 EXP DUP2 SLOAD DUP2 PUSH20 0xFFFFFFFFFFFFFFFFFFFFFFFFFFFFFFFFFFFFFFFF MUL NOT AND SWAP1 DUP4 PUSH20 0xFFFFFFFFFFFFFFFFFFFFFFFFFFFFFFFFFFFFFFFF AND MUL OR SWAP1 SSTORE POP DUP5 PUSH1 0x0 SWAP1 DUP1 MLOAD SWAP1 PUSH1 0x20 ADD SWAP1 PUSH3 0x3F2F SWAP3 SWAP2 SWAP1 PUSH3 0x4156 JUMP JUMPDEST POP DUP2 PUSH1 0x6 PUSH1 0x0 PUSH2 0x100 EXP DUP2 SLOAD DUP2 PUSH1 0xFF MUL NOT AND SWAP1 DUP4 PUSH1 0x3 DUP2 GT ISZERO PUSH3 0x3F58 JUMPI PUSH3 0x3F57 PUSH3 0x462E JUMP JUMPDEST JUMPDEST MUL OR SWAP1 SSTORE POP DUP1 PUSH1 0x5 DUP2 SWAP1 SSTORE POP PUSH3 0x3FA7 JUMP JUMPDEST PUSH1 0x40 MLOAD PUSH32 0x8C379A000000000000000000000000000000000000000000000000000000000 DUP2 MSTORE PUSH1 0x4 ADD PUSH3 0x3F9E SWAP1 PUSH3 0x605E JUMP JUMPDEST PUSH1 0x40 MLOAD DUP1 SWAP2 SUB SWAP1 REVERT JUMPDEST POP POP POP POP POP JUMP JUMPDEST PUSH1 0x6 PUSH1 0x3 SWAP1 SLOAD SWAP1 PUSH2 0x100 EXP SWAP1 DIV PUSH20 0xFFFFFFFFFFFFFFFFFFFFFFFFFFFFFFFFFFFFFFFF AND PUSH20 0xFFFFFFFFFFFFFFFFFFFFFFFFFFFFFFFFFFFFFFFF AND PUSH4 0xFA4D7AAE CALLER PUSH1 0x40 MLOAD DUP3 PUSH4 0xFFFFFFFF AND PUSH1 0xE0 SHL DUP2 MSTORE PUSH1 0x4 ADD PUSH3 0x400B SWAP2 SWAP1 PUSH3 0x42CA JUMP JUMPDEST PUSH1 0x20 PUSH1 0x40 MLOAD DUP1 DUP4 SUB DUP2 DUP7 GAS STATICCALL ISZERO DUP1 ISZERO PUSH3 0x4029 JUMPI RETURNDATASIZE PUSH1 0x0 DUP1 RETURNDATACOPY RETURNDATASIZE PUSH1 0x0 REVERT JUMPDEST POP POP POP POP PUSH1 0x40 MLOAD RETURNDATASIZE PUSH1 0x1F NOT PUSH1 0x1F DUP3 ADD AND DUP3 ADD DUP1 PUSH1 0x40 MSTORE POP DUP2 ADD SWAP1 PUSH3 0x404F SWAP2 SWAP1 PUSH3 0x491F JUMP JUMPDEST PUSH3 0x4091 JUMPI PUSH1 0x40 MLOAD PUSH32 0x8C379A000000000000000000000000000000000000000000000000000000000 DUP2 MSTORE PUSH1 0x4 ADD PUSH3 0x4088 SWAP1 PUSH3 0x49D8 JUMP JUMPDEST PUSH1 0x40 MLOAD DUP1 SWAP2 SUB SWAP1 REVERT JUMPDEST PUSH3 0x409E PUSH1 0x5 DUP3 PUSH3 0x38E9 JUMP JUMPDEST DUP2 PUSH1 0x6 PUSH1 0x2 PUSH2 0x100 EXP DUP2 SLOAD DUP2 PUSH1 0xFF MUL NOT AND SWAP1 DUP4 PUSH1 0x2 DUP2 GT ISZERO PUSH3 0x40C6 JUMPI PUSH3 0x40C5 PUSH3 0x462E JUMP JUMPDEST JUMPDEST MUL OR SWAP1 SSTORE POP POP POP JUMP JUMPDEST PUSH1 0x40 MLOAD DUP1 PUSH1 0xE0 ADD PUSH1 0x40 MSTORE DUP1 PUSH1 0x0 DUP2 MSTORE PUSH1 0x20 ADD PUSH1 0x0 PUSH20 0xFFFFFFFFFFFFFFFFFFFFFFFFFFFFFFFFFFFFFFFF AND DUP2 MSTORE PUSH1 0x20 ADD PUSH1 0x0 PUSH20 0xFFFFFFFFFFFFFFFFFFFFFFFFFFFFFFFFFFFFFFFF AND DUP2 MSTORE PUSH1 0x20 ADD PUSH1 0x0 ISZERO ISZERO DUP2 MSTORE PUSH1 0x20 ADD PUSH1 0x60 DUP2 MSTORE PUSH1 0x20 ADD PUSH1 0x60 DUP2 MSTORE PUSH1 0x20 ADD PUSH1 0x0 DUP2 MSTORE POP SWAP1 JUMP JUMPDEST PUSH2 0x4829 DUP1 PUSH3 0x6081 DUP4 CODECOPY ADD SWAP1 JUMP JUMPDEST PUSH2 0xD58 DUP1 PUSH3 0xA8AA DUP4 CODECOPY ADD SWAP1 JUMP JUMPDEST DUP3 DUP1 SLOAD DUP3 DUP3 SSTORE SWAP1 PUSH1 0x0 MSTORE PUSH1 0x20 PUSH1 0x0 KECCAK256 SWAP1 DUP2 ADD SWAP3 DUP3 ISZERO PUSH3 0x41D2 JUMPI SWAP2 PUSH1 0x20 MUL DUP3 ADD JUMPDEST DUP3 DUP2 GT ISZERO PUSH3 0x41D1 JUMPI DUP3 MLOAD DUP3 PUSH1 0x0 PUSH2 0x100 EXP DUP2 SLOAD DUP2 PUSH20 0xFFFFFFFFFFFFFFFFFFFFFFFFFFFFFFFFFFFFFFFF MUL NOT AND SWAP1 DUP4 PUSH20 0xFFFFFFFFFFFFFFFFFFFFFFFFFFFFFFFFFFFFFFFF AND MUL OR SWAP1 SSTORE POP SWAP2 PUSH1 0x20 ADD SWAP2 SWAP1 PUSH1 0x1 ADD SWAP1 PUSH3 0x4177 JUMP JUMPDEST JUMPDEST POP SWAP1 POP PUSH3 0x41E1 SWAP2 SWAP1 PUSH3 0x41E5 JUMP JUMPDEST POP SWAP1 JUMP JUMPDEST JUMPDEST DUP1 DUP3 GT ISZERO PUSH3 0x4200 JUMPI PUSH1 0x0 DUP2 PUSH1 0x0 SWAP1 SSTORE POP PUSH1 0x1 ADD PUSH3 0x41E6 JUMP JUMPDEST POP SWAP1 JUMP JUMPDEST PUSH1 0x0 PUSH1 0x40 MLOAD SWAP1 POP SWAP1 JUMP JUMPDEST PUSH1 0x0 DUP1 REVERT JUMPDEST PUSH1 0x0 DUP1 REVERT JUMPDEST PUSH1 0x0 DUP2 SWAP1 POP SWAP2 SWAP1 POP JUMP JUMPDEST PUSH3 0x422D DUP2 PUSH3 0x4218 JUMP JUMPDEST DUP2 EQ PUSH3 0x4239 JUMPI PUSH1 0x0 DUP1 REVERT JUMPDEST POP JUMP JUMPDEST PUSH1 0x0 DUP2 CALLDATALOAD SWAP1 POP PUSH3 0x424D DUP2 PUSH3 0x4222 JUMP JUMPDEST SWAP3 SWAP2 POP POP JUMP JUMPDEST PUSH1 0x0 PUSH1 0x20 DUP3 DUP5 SUB SLT ISZERO PUSH3 0x426C JUMPI PUSH3 0x426B PUSH3 0x420E JUMP JUMPDEST JUMPDEST PUSH1 0x0 PUSH3 0x427C DUP5 DUP3 DUP6 ADD PUSH3 0x423C JUMP JUMPDEST SWAP2 POP POP SWAP3 SWAP2 POP POP JUMP JUMPDEST PUSH1 0x0 PUSH20 0xFFFFFFFFFFFFFFFFFFFFFFFFFFFFFFFFFFFFFFFF DUP3 AND SWAP1 POP SWAP2 SWAP1 POP JUMP JUMPDEST PUSH1 0x0 PUSH3 0x42B2 DUP3 PUSH3 0x4285 JUMP JUMPDEST SWAP1 POP SWAP2 SWAP1 POP JUMP JUMPDEST PUSH3 0x42C4 DUP2 PUSH3 0x42A5 JUMP JUMPDEST DUP3 MSTORE POP POP JUMP JUMPDEST PUSH1 0x0 PUSH1 0x20 DUP3 ADD SWAP1 POP PUSH3 0x42E1 PUSH1 0x0 DUP4 ADD DUP5 PUSH3 0x42B9 JUMP JUMPDEST SWAP3 SWAP2 POP POP JUMP JUMPDEST PUSH1 0x0 DUP2 ISZERO ISZERO SWAP1 POP SWAP2 SWAP1 POP JUMP JUMPDEST PUSH3 0x42FE DUP2 PUSH3 0x42E7 JUMP JUMPDEST DUP3 MSTORE POP POP JUMP JUMPDEST PUSH1 0x0 PUSH1 0x20 DUP3 ADD SWAP1 POP PUSH3 0x431B PUSH1 0x0 DUP4 ADD DUP5 PUSH3 0x42F3 JUMP JUMPDEST SWAP3 SWAP2 POP POP JUMP JUMPDEST PUSH1 0x0 DUP2 MLOAD SWAP1 POP SWAP2 SWAP1 POP JUMP JUMPDEST PUSH1 0x0 DUP3 DUP3 MSTORE PUSH1 0x20 DUP3 ADD SWAP1 POP SWAP3 SWAP2 POP POP JUMP JUMPDEST PUSH1 0x0 DUP2 SWAP1 POP PUSH1 0x20 DUP3 ADD SWAP1 POP SWAP2 SWAP1 POP JUMP JUMPDEST PUSH3 0x4358 DUP2 PUSH3 0x4218 JUMP JUMPDEST DUP3 MSTORE POP POP JUMP JUMPDEST PUSH3 0x4369 DUP2 PUSH3 0x42A5 JUMP JUMPDEST DUP3 MSTORE POP POP JUMP JUMPDEST PUSH3 0x437A DUP2 PUSH3 0x42E7 JUMP JUMPDEST DUP3 MSTORE POP POP JUMP JUMPDEST PUSH1 0x0 DUP2 MLOAD SWAP1 POP SWAP2 SWAP1 POP JUMP JUMPDEST PUSH1 0x0 DUP3 DUP3 MSTORE PUSH1 0x20 DUP3 ADD SWAP1 POP SWAP3 SWAP2 POP POP JUMP JUMPDEST PUSH1 0x0 JUMPDEST DUP4 DUP2 LT ISZERO PUSH3 0x43BC JUMPI DUP1 DUP3 ADD MLOAD DUP2 DUP5 ADD MSTORE PUSH1 0x20 DUP2 ADD SWAP1 POP PUSH3 0x439F JUMP JUMPDEST DUP4 DUP2 GT ISZERO PUSH3 0x43CC JUMPI PUSH1 0x0 DUP5 DUP5 ADD MSTORE JUMPDEST POP POP POP POP JUMP JUMPDEST PUSH1 0x0 PUSH1 0x1F NOT PUSH1 0x1F DUP4 ADD AND SWAP1 POP SWAP2 SWAP1 POP JUMP JUMPDEST PUSH1 0x0 PUSH3 0x43F0 DUP3 PUSH3 0x4380 JUMP JUMPDEST PUSH3 0x43FC DUP2 DUP6 PUSH3 0x438B JUMP JUMPDEST SWAP4 POP PUSH3 0x440E DUP2 DUP6 PUSH1 0x20 DUP7 ADD PUSH3 0x439C JUMP JUMPDEST PUSH3 0x4419 DUP2 PUSH3 0x43D2 JUMP JUMPDEST DUP5 ADD SWAP2 POP POP SWAP3 SWAP2 POP POP JUMP JUMPDEST PUSH1 0x0 PUSH1 0xE0 DUP4 ADD PUSH1 0x0 DUP4 ADD MLOAD PUSH3 0x443E PUSH1 0x0 DUP7 ADD DUP3 PUSH3 0x434D JUMP JUMPDEST POP PUSH1 0x20 DUP4 ADD MLOAD PUSH3 0x4453 PUSH1 0x20 DUP7 ADD DUP3 PUSH3 0x435E JUMP JUMPDEST POP PUSH1 0x40 DUP4 ADD MLOAD PUSH3 0x4468 PUSH1 0x40 DUP7 ADD DUP3 PUSH3 0x435E JUMP JUMPDEST POP PUSH1 0x60 DUP4 ADD MLOAD PUSH3 0x447D PUSH1 0x60 DUP7 ADD DUP3 PUSH3 0x436F JUMP JUMPDEST POP PUSH1 0x80 DUP4 ADD MLOAD DUP5 DUP3 SUB PUSH1 0x80 DUP7 ADD MSTORE PUSH3 0x4497 DUP3 DUP3 PUSH3 0x43E3 JUMP JUMPDEST SWAP2 POP POP PUSH1 0xA0 DUP4 ADD MLOAD DUP5 DUP3 SUB PUSH1 0xA0 DUP7 ADD MSTORE PUSH3 0x44B3 DUP3 DUP3 PUSH3 0x43E3 JUMP JUMPDEST SWAP2 POP POP PUSH1 0xC0 DUP4 ADD MLOAD PUSH3 0x44CA PUSH1 0xC0 DUP7 ADD DUP3 PUSH3 0x434D JUMP JUMPDEST POP DUP1 SWAP2 POP POP SWAP3 SWAP2 POP POP JUMP JUMPDEST PUSH1 0x0 PUSH3 0x44E3 DUP4 DUP4 PUSH3 0x4424 JUMP JUMPDEST SWAP1 POP SWAP3 SWAP2 POP POP JUMP JUMPDEST PUSH1 0x0 PUSH1 0x20 DUP3 ADD SWAP1 POP SWAP2 SWAP1 POP JUMP JUMPDEST PUSH1 0x0 PUSH3 0x4505 DUP3 PUSH3 0x4321 JUMP JUMPDEST PUSH3 0x4511 DUP2 DUP6 PUSH3 0x432C JUMP JUMPDEST SWAP4 POP DUP4 PUSH1 0x20 DUP3 MUL DUP6 ADD PUSH3 0x4525 DUP6 PUSH3 0x433D JUMP JUMPDEST DUP1 PUSH1 0x0 JUMPDEST DUP6 DUP2 LT ISZERO PUSH3 0x4567 JUMPI DUP5 DUP5 SUB DUP10 MSTORE DUP2 MLOAD PUSH3 0x4545 DUP6 DUP3 PUSH3 0x44D5 JUMP JUMPDEST SWAP5 POP PUSH3 0x4552 DUP4 PUSH3 0x44EB JUMP JUMPDEST SWAP3 POP PUSH1 0x20 DUP11 ADD SWAP10 POP POP PUSH1 0x1 DUP2 ADD SWAP1 POP PUSH3 0x4529 JUMP JUMPDEST POP DUP3 SWAP8 POP DUP8 SWAP6 POP POP POP POP POP POP SWAP3 SWAP2 POP POP JUMP JUMPDEST PUSH1 0x0 PUSH1 0x20 DUP3 ADD SWAP1 POP DUP2 DUP2 SUB PUSH1 0x0 DUP4 ADD MSTORE PUSH3 0x4595 DUP2 DUP5 PUSH3 0x44F8 JUMP JUMPDEST SWAP1 POP SWAP3 SWAP2 POP POP JUMP JUMPDEST PUSH3 0x45A8 DUP2 PUSH3 0x4218 JUMP JUMPDEST DUP3 MSTORE POP POP JUMP JUMPDEST PUSH1 0x0 PUSH1 0x20 DUP3 ADD SWAP1 POP PUSH3 0x45C5 PUSH1 0x0 DUP4 ADD DUP5 PUSH3 0x459D JUMP JUMPDEST SWAP3 SWAP2 POP POP JUMP JUMPDEST PUSH3 0x45D6 DUP2 PUSH3 0x42A5 JUMP JUMPDEST DUP2 EQ PUSH3 0x45E2 JUMPI PUSH1 0x0 DUP1 REVERT JUMPDEST POP JUMP JUMPDEST PUSH1 0x0 DUP2 CALLDATALOAD SWAP1 POP PUSH3 0x45F6 DUP2 PUSH3 0x45CB JUMP JUMPDEST SWAP3 SWAP2 POP POP JUMP JUMPDEST PUSH1 0x0 PUSH1 0x20 DUP3 DUP5 SUB SLT ISZERO PUSH3 0x4615 JUMPI PUSH3 0x4614 PUSH3 0x420E JUMP JUMPDEST JUMPDEST PUSH1 0x0 PUSH3 0x4625 DUP5 DUP3 DUP6 ADD PUSH3 0x45E5 JUMP JUMPDEST SWAP2 POP POP SWAP3 SWAP2 POP POP JUMP JUMPDEST PUSH32 0x4E487B7100000000000000000000000000000000000000000000000000000000 PUSH1 0x0 MSTORE PUSH1 0x21 PUSH1 0x4 MSTORE PUSH1 0x24 PUSH1 0x0 REVERT JUMPDEST PUSH1 0x3 DUP2 LT PUSH3 0x4671 JUMPI PUSH3 0x4670 PUSH3 0x462E JUMP JUMPDEST JUMPDEST POP JUMP JUMPDEST PUSH1 0x0 DUP2 SWAP1 POP PUSH3 0x4684 DUP3 PUSH3 0x465D JUMP JUMPDEST SWAP2 SWAP1 POP JUMP JUMPDEST PUSH1 0x0 PUSH3 0x4696 DUP3 PUSH3 0x4674 JUMP JUMPDEST SWAP1 POP SWAP2 SWAP1 POP JUMP JUMPDEST PUSH3 0x46A8 DUP2 PUSH3 0x4689 JUMP JUMPDEST DUP3 MSTORE POP POP JUMP JUMPDEST PUSH1 0x0 PUSH1 0x20 DUP3 ADD SWAP1 POP PUSH3 0x46C5 PUSH1 0x0 DUP4 ADD DUP5 PUSH3 0x469D JUMP JUMPDEST SWAP3 SWAP2 POP POP JUMP JUMPDEST PUSH1 0x0 DUP1 REVERT JUMPDEST PUSH32 0x4E487B7100000000000000000000000000000000000000000000000000000000 PUSH1 0x0 MSTORE PUSH1 0x41 PUSH1 0x4 MSTORE PUSH1 0x24 PUSH1 0x0 REVERT JUMPDEST PUSH3 0x470A DUP3 PUSH3 0x43D2 JUMP JUMPDEST DUP2 ADD DUP2 DUP2 LT PUSH8 0xFFFFFFFFFFFFFFFF DUP3 GT OR ISZERO PUSH3 0x472C JUMPI PUSH3 0x472B PUSH3 0x46D0 JUMP JUMPDEST JUMPDEST DUP1 PUSH1 0x40 MSTORE POP POP POP JUMP JUMPDEST PUSH1 0x0 PUSH3 0x4741 PUSH3 0x4204 JUMP JUMPDEST SWAP1 POP PUSH3 0x474F DUP3 DUP3 PUSH3 0x46FF JUMP JUMPDEST SWAP2 SWAP1 POP JUMP JUMPDEST PUSH1 0x0 PUSH8 0xFFFFFFFFFFFFFFFF DUP3 GT ISZERO PUSH3 0x4772 JUMPI PUSH3 0x4771 PUSH3 0x46D0 JUMP JUMPDEST JUMPDEST PUSH1 0x20 DUP3 MUL SWAP1 POP PUSH1 0x20 DUP2 ADD SWAP1 POP SWAP2 SWAP1 POP JUMP JUMPDEST PUSH1 0x0 DUP1 REVERT JUMPDEST PUSH1 0x0 PUSH3 0x479F PUSH3 0x4799 DUP5 PUSH3 0x4754 JUMP JUMPDEST PUSH3 0x4735 JUMP JUMPDEST SWAP1 POP DUP1 DUP4 DUP3 MSTORE PUSH1 0x20 DUP3 ADD SWAP1 POP PUSH1 0x20 DUP5 MUL DUP4 ADD DUP6 DUP2 GT ISZERO PUSH3 0x47C5 JUMPI PUSH3 0x47C4 PUSH3 0x4783 JUMP JUMPDEST JUMPDEST DUP4 JUMPDEST DUP2 DUP2 LT ISZERO PUSH3 0x47F2 JUMPI DUP1 PUSH3 0x47DD DUP9 DUP3 PUSH3 0x45E5 JUMP JUMPDEST DUP5 MSTORE PUSH1 0x20 DUP5 ADD SWAP4 POP POP PUSH1 0x20 DUP2 ADD SWAP1 POP PUSH3 0x47C7 JUMP JUMPDEST POP POP POP SWAP4 SWAP3 POP POP POP JUMP JUMPDEST PUSH1 0x0 DUP3 PUSH1 0x1F DUP4 ADD SLT PUSH3 0x4814 JUMPI PUSH3 0x4813 PUSH3 0x46CB JUMP JUMPDEST JUMPDEST DUP2 CALLDATALOAD PUSH3 0x4826 DUP5 DUP3 PUSH1 0x20 DUP7 ADD PUSH3 0x4788 JUMP JUMPDEST SWAP2 POP POP SWAP3 SWAP2 POP POP JUMP JUMPDEST PUSH1 0x0 PUSH1 0x20 DUP3 DUP5 SUB SLT ISZERO PUSH3 0x4848 JUMPI PUSH3 0x4847 PUSH3 0x420E JUMP JUMPDEST JUMPDEST PUSH1 0x0 DUP3 ADD CALLDATALOAD PUSH8 0xFFFFFFFFFFFFFFFF DUP2 GT ISZERO PUSH3 0x4869 JUMPI PUSH3 0x4868 PUSH3 0x4213 JUMP JUMPDEST JUMPDEST PUSH3 0x4877 DUP5 DUP3 DUP6 ADD PUSH3 0x47FC JUMP JUMPDEST SWAP2 POP POP SWAP3 SWAP2 POP POP JUMP JUMPDEST PUSH1 0x6 DUP2 LT PUSH3 0x4894 JUMPI PUSH3 0x4893 PUSH3 0x462E JUMP JUMPDEST JUMPDEST POP JUMP JUMPDEST PUSH1 0x0 DUP2 SWAP1 POP PUSH3 0x48A7 DUP3 PUSH3 0x4880 JUMP JUMPDEST SWAP2 SWAP1 POP JUMP JUMPDEST PUSH1 0x0 PUSH3 0x48B9 DUP3 PUSH3 0x4897 JUMP JUMPDEST SWAP1 POP SWAP2 SWAP1 POP JUMP JUMPDEST PUSH3 0x48CB DUP2 PUSH3 0x48AC JUMP JUMPDEST DUP3 MSTORE POP POP JUMP JUMPDEST PUSH1 0x0 PUSH1 0x20 DUP3 ADD SWAP1 POP PUSH3 0x48E8 PUSH1 0x0 DUP4 ADD DUP5 PUSH3 0x48C0 JUMP JUMPDEST SWAP3 SWAP2 POP POP JUMP JUMPDEST PUSH3 0x48F9 DUP2 PUSH3 0x42E7 JUMP JUMPDEST DUP2 EQ PUSH3 0x4905 JUMPI PUSH1 0x0 DUP1 REVERT JUMPDEST POP JUMP JUMPDEST PUSH1 0x0 DUP2 MLOAD SWAP1 POP PUSH3 0x4919 DUP2 PUSH3 0x48EE JUMP JUMPDEST SWAP3 SWAP2 POP POP JUMP JUMPDEST PUSH1 0x0 PUSH1 0x20 DUP3 DUP5 SUB SLT ISZERO PUSH3 0x4938 JUMPI PUSH3 0x4937 PUSH3 0x420E JUMP JUMPDEST JUMPDEST PUSH1 0x0 PUSH3 0x4948 DUP5 DUP3 DUP6 ADD PUSH3 0x4908 JUMP JUMPDEST SWAP2 POP POP SWAP3 SWAP2 POP POP JUMP JUMPDEST PUSH1 0x0 DUP3 DUP3 MSTORE PUSH1 0x20 DUP3 ADD SWAP1 POP SWAP3 SWAP2 POP POP JUMP JUMPDEST PUSH32 0x4F6E6C7920636F756E63656C6F72732063616E2075736520746869732066756E PUSH1 0x0 DUP3 ADD MSTORE PUSH32 0x6374696F6E000000000000000000000000000000000000000000000000000000 PUSH1 0x20 DUP3 ADD MSTORE POP JUMP JUMPDEST PUSH1 0x0 PUSH3 0x49C0 PUSH1 0x25 DUP4 PUSH3 0x4951 JUMP JUMPDEST SWAP2 POP PUSH3 0x49CD DUP3 PUSH3 0x4962 JUMP JUMPDEST PUSH1 0x40 DUP3 ADD SWAP1 POP SWAP2 SWAP1 POP JUMP JUMPDEST PUSH1 0x0 PUSH1 0x20 DUP3 ADD SWAP1 POP DUP2 DUP2 SUB PUSH1 0x0 DUP4 ADD MSTORE PUSH3 0x49F3 DUP2 PUSH3 0x49B1 JUMP JUMPDEST SWAP1 POP SWAP2 SWAP1 POP JUMP JUMPDEST PUSH32 0x436F6E73756C746174696F6E206973206E6F7420696E20746865202741707072 PUSH1 0x0 DUP3 ADD MSTORE PUSH32 0x6F7665642720737461746520616E642063616E207468657265666F7265206E6F PUSH1 0x20 DUP3 ADD MSTORE PUSH32 0x7420626520737461727465642E00000000000000000000000000000000000000 PUSH1 0x40 DUP3 ADD MSTORE POP JUMP JUMPDEST PUSH1 0x0 PUSH3 0x4A7E PUSH1 0x4D DUP4 PUSH3 0x4951 JUMP JUMPDEST SWAP2 POP PUSH3 0x4A8B DUP3 PUSH3 0x49FA JUMP JUMPDEST PUSH1 0x60 DUP3 ADD SWAP1 POP SWAP2 SWAP1 POP JUMP JUMPDEST PUSH1 0x0 PUSH1 0x20 DUP3 ADD SWAP1 POP DUP2 DUP2 SUB PUSH1 0x0 DUP4 ADD MSTORE PUSH3 0x4AB1 DUP2 PUSH3 0x4A6F JUMP JUMPDEST SWAP1 POP SWAP2 SWAP1 POP JUMP JUMPDEST PUSH1 0x0 PUSH8 0xFFFFFFFFFFFFFFFF DUP3 GT ISZERO PUSH3 0x4AD6 JUMPI PUSH3 0x4AD5 PUSH3 0x46D0 JUMP JUMPDEST JUMPDEST PUSH1 0x20 DUP3 MUL SWAP1 POP PUSH1 0x20 DUP2 ADD SWAP1 POP SWAP2 SWAP1 POP JUMP JUMPDEST PUSH1 0x0 DUP1 REVERT JUMPDEST PUSH1 0x0 DUP1 REVERT JUMPDEST PUSH1 0x0 DUP2 MLOAD SWAP1 POP PUSH3 0x4B02 DUP2 PUSH3 0x4222 JUMP JUMPDEST SWAP3 SWAP2 POP POP JUMP JUMPDEST PUSH1 0x0 DUP2 MLOAD SWAP1 POP PUSH3 0x4B19 DUP2 PUSH3 0x45CB JUMP JUMPDEST SWAP3 SWAP2 POP POP JUMP JUMPDEST PUSH1 0x0 DUP1 REVERT JUMPDEST PUSH1 0x0 PUSH8 0xFFFFFFFFFFFFFFFF DUP3 GT ISZERO PUSH3 0x4B42 JUMPI PUSH3 0x4B41 PUSH3 0x46D0 JUMP JUMPDEST JUMPDEST PUSH3 0x4B4D DUP3 PUSH3 0x43D2 JUMP JUMPDEST SWAP1 POP PUSH1 0x20 DUP2 ADD SWAP1 POP SWAP2 SWAP1 POP JUMP JUMPDEST PUSH1 0x0 PUSH3 0x4B71 PUSH3 0x4B6B DUP5 PUSH3 0x4B24 JUMP JUMPDEST PUSH3 0x4735 JUMP JUMPDEST SWAP1 POP DUP3 DUP2 MSTORE PUSH1 0x20 DUP2 ADD DUP5 DUP5 DUP5 ADD GT ISZERO PUSH3 0x4B90 JUMPI PUSH3 0x4B8F PUSH3 0x4B1F JUMP JUMPDEST JUMPDEST PUSH3 0x4B9D DUP5 DUP3 DUP6 PUSH3 0x439C JUMP JUMPDEST POP SWAP4 SWAP3 POP POP POP JUMP JUMPDEST PUSH1 0x0 DUP3 PUSH1 0x1F DUP4 ADD SLT PUSH3 0x4BBD JUMPI PUSH3 0x4BBC PUSH3 0x46CB JUMP JUMPDEST JUMPDEST DUP2 MLOAD PUSH3 0x4BCF DUP5 DUP3 PUSH1 0x20 DUP7 ADD PUSH3 0x4B5A JUMP JUMPDEST SWAP2 POP POP SWAP3 SWAP2 POP POP JUMP JUMPDEST PUSH1 0x0 PUSH1 0xE0 DUP3 DUP5 SUB SLT ISZERO PUSH3 0x4BF1 JUMPI PUSH3 0x4BF0 PUSH3 0x4AE7 JUMP JUMPDEST JUMPDEST PUSH3 0x4BFD PUSH1 0xE0 PUSH3 0x4735 JUMP JUMPDEST SWAP1 POP PUSH1 0x0 PUSH3 0x4C0F DUP5 DUP3 DUP6 ADD PUSH3 0x4AF1 JUMP JUMPDEST PUSH1 0x0 DUP4 ADD MSTORE POP PUSH1 0x20 PUSH3 0x4C25 DUP5 DUP3 DUP6 ADD PUSH3 0x4B08 JUMP JUMPDEST PUSH1 0x20 DUP4 ADD MSTORE POP PUSH1 0x40 PUSH3 0x4C3B DUP5 DUP3 DUP6 ADD PUSH3 0x4B08 JUMP JUMPDEST PUSH1 0x40 DUP4 ADD MSTORE POP PUSH1 0x60 PUSH3 0x4C51 DUP5 DUP3 DUP6 ADD PUSH3 0x4908 JUMP JUMPDEST PUSH1 0x60 DUP4 ADD MSTORE POP PUSH1 0x80 DUP3 ADD MLOAD PUSH8 0xFFFFFFFFFFFFFFFF DUP2 GT ISZERO PUSH3 0x4C78 JUMPI PUSH3 0x4C77 PUSH3 0x4AEC JUMP JUMPDEST JUMPDEST PUSH3 0x4C86 DUP5 DUP3 DUP6 ADD PUSH3 0x4BA5 JUMP JUMPDEST PUSH1 0x80 DUP4 ADD MSTORE POP PUSH1 0xA0 DUP3 ADD MLOAD PUSH8 0xFFFFFFFFFFFFFFFF DUP2 GT ISZERO PUSH3 0x4CAD JUMPI PUSH3 0x4CAC PUSH3 0x4AEC JUMP JUMPDEST JUMPDEST PUSH3 0x4CBB DUP5 DUP3 DUP6 ADD PUSH3 0x4BA5 JUMP JUMPDEST PUSH1 0xA0 DUP4 ADD MSTORE POP PUSH1 0xC0 PUSH3 0x4CD1 DUP5 DUP3 DUP6 ADD PUSH3 0x4AF1 JUMP JUMPDEST PUSH1 0xC0 DUP4 ADD MSTORE POP SWAP3 SWAP2 POP POP JUMP JUMPDEST PUSH1 0x0 PUSH3 0x4CF4 PUSH3 0x4CEE DUP5 PUSH3 0x4AB8 JUMP JUMPDEST PUSH3 0x4735 JUMP JUMPDEST SWAP1 POP DUP1 DUP4 DUP3 MSTORE PUSH1 0x20 DUP3 ADD SWAP1 POP PUSH1 0x20 DUP5 MUL DUP4 ADD DUP6 DUP2 GT ISZERO PUSH3 0x4D1A JUMPI PUSH3 0x4D19 PUSH3 0x4783 JUMP JUMPDEST JUMPDEST DUP4 JUMPDEST DUP2 DUP2 LT ISZERO PUSH3 0x4D68 JUMPI DUP1 MLOAD PUSH8 0xFFFFFFFFFFFFFFFF DUP2 GT ISZERO PUSH3 0x4D43 JUMPI PUSH3 0x4D42 PUSH3 0x46CB JUMP JUMPDEST JUMPDEST DUP1 DUP7 ADD PUSH3 0x4D52 DUP10 DUP3 PUSH3 0x4BD8 JUMP JUMPDEST DUP6 MSTORE PUSH1 0x20 DUP6 ADD SWAP5 POP POP POP PUSH1 0x20 DUP2 ADD SWAP1 POP PUSH3 0x4D1C JUMP JUMPDEST POP POP POP SWAP4 SWAP3 POP POP POP JUMP JUMPDEST PUSH1 0x0 DUP3 PUSH1 0x1F DUP4 ADD SLT PUSH3 0x4D8A JUMPI PUSH3 0x4D89 PUSH3 0x46CB JUMP JUMPDEST JUMPDEST DUP2 MLOAD PUSH3 0x4D9C DUP5 DUP3 PUSH1 0x20 DUP7 ADD PUSH3 0x4CDD JUMP JUMPDEST SWAP2 POP POP SWAP3 SWAP2 POP POP JUMP JUMPDEST PUSH1 0x0 PUSH1 0x20 DUP3 DUP5 SUB SLT ISZERO PUSH3 0x4DBE JUMPI PUSH3 0x4DBD PUSH3 0x420E JUMP JUMPDEST JUMPDEST PUSH1 0x0 DUP3 ADD MLOAD PUSH8 0xFFFFFFFFFFFFFFFF DUP2 GT ISZERO PUSH3 0x4DDF JUMPI PUSH3 0x4DDE PUSH3 0x4213 JUMP JUMPDEST JUMPDEST PUSH3 0x4DED DUP5 DUP3 DUP6 ADD PUSH3 0x4D72 JUMP JUMPDEST SWAP2 POP POP SWAP3 SWAP2 POP POP JUMP JUMPDEST PUSH1 0x0 PUSH1 0x20 DUP3 DUP5 SUB SLT ISZERO PUSH3 0x4E0F JUMPI PUSH3 0x4E0E PUSH3 0x420E JUMP JUMPDEST JUMPDEST PUSH1 0x0 PUSH3 0x4E1F DUP5 DUP3 DUP6 ADD PUSH3 0x4AF1 JUMP JUMPDEST SWAP2 POP POP SWAP3 SWAP2 POP POP JUMP JUMPDEST PUSH32 0x54686520706F6C6C206D757374206265206E6F6D696E6174696F6E2073746174 PUSH1 0x0 DUP3 ADD MSTORE PUSH32 0x6521000000000000000000000000000000000000000000000000000000000000 PUSH1 0x20 DUP3 ADD MSTORE POP JUMP JUMPDEST PUSH1 0x0 PUSH3 0x4E86 PUSH1 0x22 DUP4 PUSH3 0x4951 JUMP JUMPDEST SWAP2 POP PUSH3 0x4E93 DUP3 PUSH3 0x4E28 JUMP JUMPDEST PUSH1 0x40 DUP3 ADD SWAP1 POP SWAP2 SWAP1 POP JUMP JUMPDEST PUSH1 0x0 PUSH1 0x20 DUP3 ADD SWAP1 POP DUP2 DUP2 SUB PUSH1 0x0 DUP4 ADD MSTORE PUSH3 0x4EB9 DUP2 PUSH3 0x4E77 JUMP JUMPDEST SWAP1 POP SWAP2 SWAP1 POP JUMP JUMPDEST PUSH1 0x0 PUSH1 0x40 DUP3 ADD SWAP1 POP PUSH3 0x4ED7 PUSH1 0x0 DUP4 ADD DUP6 PUSH3 0x42B9 JUMP JUMPDEST PUSH3 0x4EE6 PUSH1 0x20 DUP4 ADD DUP5 PUSH3 0x459D JUMP JUMPDEST SWAP4 SWAP3 POP POP POP JUMP JUMPDEST PUSH32 0x54686520706F6C6C206D75737420626520696E20616E20616374697665207374 PUSH1 0x0 DUP3 ADD MSTORE PUSH32 0x6174652100000000000000000000000000000000000000000000000000000000 PUSH1 0x20 DUP3 ADD MSTORE POP JUMP JUMPDEST PUSH1 0x0 PUSH3 0x4F4B PUSH1 0x24 DUP4 PUSH3 0x4951 JUMP JUMPDEST SWAP2 POP PUSH3 0x4F58 DUP3 PUSH3 0x4EED JUMP JUMPDEST PUSH1 0x40 DUP3 ADD SWAP1 POP SWAP2 SWAP1 POP JUMP JUMPDEST PUSH1 0x0 PUSH1 0x20 DUP3 ADD SWAP1 POP DUP2 DUP2 SUB PUSH1 0x0 DUP4 ADD MSTORE PUSH3 0x4F7E DUP2 PUSH3 0x4F3C JUMP JUMPDEST SWAP1 POP SWAP2 SWAP1 POP JUMP JUMPDEST PUSH1 0x0 PUSH1 0x80 DUP3 DUP5 SUB SLT ISZERO PUSH3 0x4F9E JUMPI PUSH3 0x4F9D PUSH3 0x4AE7 JUMP JUMPDEST JUMPDEST PUSH3 0x4FAA PUSH1 0x80 PUSH3 0x4735 JUMP JUMPDEST SWAP1 POP PUSH1 0x0 PUSH3 0x4FBC DUP5 DUP3 DUP6 ADD PUSH3 0x4908 JUMP JUMPDEST PUSH1 0x0 DUP4 ADD MSTORE POP PUSH1 0x20 PUSH3 0x4FD2 DUP5 DUP3 DUP6 ADD PUSH3 0x4908 JUMP JUMPDEST PUSH1 0x20 DUP4 ADD MSTORE POP PUSH1 0x40 PUSH3 0x4FE8 DUP5 DUP3 DUP6 ADD PUSH3 0x4908 JUMP JUMPDEST PUSH1 0x40 DUP4 ADD MSTORE POP PUSH1 0x60 PUSH3 0x4FFE DUP5 DUP3 DUP6 ADD PUSH3 0x4908 JUMP JUMPDEST PUSH1 0x60 DUP4 ADD MSTORE POP SWAP3 SWAP2 POP POP JUMP JUMPDEST PUSH1 0x0 PUSH2 0x120 DUP3 DUP5 SUB SLT ISZERO PUSH3 0x5024 JUMPI PUSH3 0x5023 PUSH3 0x4AE7 JUMP JUMPDEST JUMPDEST PUSH3 0x5030 PUSH1 0xC0 PUSH3 0x4735 JUMP JUMPDEST SWAP1 POP PUSH1 0x0 PUSH3 0x5042 DUP5 DUP3 DUP6 ADD PUSH3 0x4B08 JUMP JUMPDEST PUSH1 0x0 DUP4 ADD MSTORE POP PUSH1 0x20 DUP3 ADD MLOAD PUSH8 0xFFFFFFFFFFFFFFFF DUP2 GT ISZERO PUSH3 0x5069 JUMPI PUSH3 0x5068 PUSH3 0x4AEC JUMP JUMPDEST JUMPDEST PUSH3 0x5077 DUP5 DUP3 DUP6 ADD PUSH3 0x4BA5 JUMP JUMPDEST PUSH1 0x20 DUP4 ADD MSTORE POP PUSH1 0x40 DUP3 ADD MLOAD PUSH8 0xFFFFFFFFFFFFFFFF DUP2 GT ISZERO PUSH3 0x509E JUMPI PUSH3 0x509D PUSH3 0x4AEC JUMP JUMPDEST JUMPDEST PUSH3 0x50AC DUP5 DUP3 DUP6 ADD PUSH3 0x4BA5 JUMP JUMPDEST PUSH1 0x40 DUP4 ADD MSTORE POP PUSH1 0x60 DUP3 ADD MLOAD PUSH8 0xFFFFFFFFFFFFFFFF DUP2 GT ISZERO PUSH3 0x50D3 JUMPI PUSH3 0x50D2 PUSH3 0x4AEC JUMP JUMPDEST JUMPDEST PUSH3 0x50E1 DUP5 DUP3 DUP6 ADD PUSH3 0x4BA5 JUMP JUMPDEST PUSH1 0x60 DUP4 ADD MSTORE POP PUSH1 0x80 PUSH3 0x50F7 DUP5 DUP3 DUP6 ADD PUSH3 0x4908 JUMP JUMPDEST PUSH1 0x80 DUP4 ADD MSTORE POP PUSH1 0xA0 PUSH3 0x510D DUP5 DUP3 DUP6 ADD PUSH3 0x4F85 JUMP JUMPDEST PUSH1 0xA0 DUP4 ADD MSTORE POP SWAP3 SWAP2 POP POP JUMP JUMPDEST PUSH1 0x0 PUSH1 0x20 DUP3 DUP5 SUB SLT ISZERO PUSH3 0x5132 JUMPI PUSH3 0x5131 PUSH3 0x420E JUMP JUMPDEST JUMPDEST PUSH1 0x0 DUP3 ADD MLOAD PUSH8 0xFFFFFFFFFFFFFFFF DUP2 GT ISZERO PUSH3 0x5153 JUMPI PUSH3 0x5152 PUSH3 0x4213 JUMP JUMPDEST JUMPDEST PUSH3 0x5161 DUP5 DUP3 DUP6 ADD PUSH3 0x500A JUMP JUMPDEST SWAP2 POP POP SWAP3 SWAP2 POP POP JUMP JUMPDEST PUSH1 0x0 PUSH3 0x5177 DUP3 PUSH3 0x4380 JUMP JUMPDEST PUSH3 0x5183 DUP2 DUP6 PUSH3 0x4951 JUMP JUMPDEST SWAP4 POP PUSH3 0x5195 DUP2 DUP6 PUSH1 0x20 DUP7 ADD PUSH3 0x439C JUMP JUMPDEST PUSH3 0x51A0 DUP2 PUSH3 0x43D2 JUMP JUMPDEST DUP5 ADD SWAP2 POP POP SWAP3 SWAP2 POP POP JUMP JUMPDEST PUSH1 0x0 PUSH1 0xA0 DUP3 ADD SWAP1 POP PUSH3 0x51C2 PUSH1 0x0 DUP4 ADD DUP9 PUSH3 0x42B9 JUMP JUMPDEST PUSH3 0x51D1 PUSH1 0x20 DUP4 ADD DUP8 PUSH3 0x42B9 JUMP JUMPDEST PUSH3 0x51E0 PUSH1 0x40 DUP4 ADD DUP7 PUSH3 0x42F3 JUMP JUMPDEST DUP2 DUP2 SUB PUSH1 0x60 DUP4 ADD MSTORE PUSH3 0x51F4 DUP2 DUP6 PUSH3 0x516A JUMP JUMPDEST SWAP1 POP DUP2 DUP2 SUB PUSH1 0x80 DUP4 ADD MSTORE PUSH3 0x520A DUP2 DUP5 PUSH3 0x516A JUMP JUMPDEST SWAP1 POP SWAP7 SWAP6 POP POP POP POP POP POP JUMP JUMPDEST PUSH32 0x43616E64696461746520616C7265616479206E6F6D696E617465642100000000 PUSH1 0x0 DUP3 ADD MSTORE POP JUMP JUMPDEST PUSH1 0x0 PUSH3 0x524E PUSH1 0x1C DUP4 PUSH3 0x4951 JUMP JUMPDEST SWAP2 POP PUSH3 0x525B DUP3 PUSH3 0x5216 JUMP JUMPDEST PUSH1 0x20 DUP3 ADD SWAP1 POP SWAP2 SWAP1 POP JUMP JUMPDEST PUSH1 0x0 PUSH1 0x20 DUP3 ADD SWAP1 POP DUP2 DUP2 SUB PUSH1 0x0 DUP4 ADD MSTORE PUSH3 0x5281 DUP2 PUSH3 0x523F JUMP JUMPDEST SWAP1 POP SWAP2 SWAP1 POP JUMP JUMPDEST PUSH32 0x4E6F2073756666696369656E7420726967687473210000000000000000000000 PUSH1 0x0 DUP3 ADD MSTORE POP JUMP JUMPDEST PUSH1 0x0 PUSH3 0x52C0 PUSH1 0x15 DUP4 PUSH3 0x4951 JUMP JUMPDEST SWAP2 POP PUSH3 0x52CD DUP3 PUSH3 0x5288 JUMP JUMPDEST PUSH1 0x20 DUP3 ADD SWAP1 POP SWAP2 SWAP1 POP JUMP JUMPDEST PUSH1 0x0 PUSH1 0x20 DUP3 ADD SWAP1 POP DUP2 DUP2 SUB PUSH1 0x0 DUP4 ADD MSTORE PUSH3 0x52F3 DUP2 PUSH3 0x52B1 JUMP JUMPDEST SWAP1 POP SWAP2 SWAP1 POP JUMP JUMPDEST PUSH32 0x4E487B7100000000000000000000000000000000000000000000000000000000 PUSH1 0x0 MSTORE PUSH1 0x32 PUSH1 0x4 MSTORE PUSH1 0x24 PUSH1 0x0 REVERT JUMPDEST PUSH32 0x4E487B7100000000000000000000000000000000000000000000000000000000 PUSH1 0x0 MSTORE PUSH1 0x11 PUSH1 0x4 MSTORE PUSH1 0x24 PUSH1 0x0 REVERT JUMPDEST PUSH1 0x0 PUSH3 0x5365 DUP3 PUSH3 0x4218 JUMP JUMPDEST SWAP2 POP PUSH32 0xFFFFFFFFFFFFFFFFFFFFFFFFFFFFFFFFFFFFFFFFFFFFFFFFFFFFFFFFFFFFFFFF DUP3 EQ ISZERO PUSH3 0x539B JUMPI PUSH3 0x539A PUSH3 0x5329 JUMP JUMPDEST JUMPDEST PUSH1 0x1 DUP3 ADD SWAP1 POP SWAP2 SWAP1 POP JUMP JUMPDEST PUSH32 0x436F6E73756C746174696F6E206973206E6F7420696E207468652027494E4155 PUSH1 0x0 DUP3 ADD MSTORE PUSH32 0x4755524154494F4E272073746174652E00000000000000000000000000000000 PUSH1 0x20 DUP3 ADD MSTORE POP JUMP JUMPDEST PUSH1 0x0 PUSH3 0x5404 PUSH1 0x30 DUP4 PUSH3 0x4951 JUMP JUMPDEST SWAP2 POP PUSH3 0x5411 DUP3 PUSH3 0x53A6 JUMP JUMPDEST PUSH1 0x40 DUP3 ADD SWAP1 POP SWAP2 SWAP1 POP JUMP JUMPDEST PUSH1 0x0 PUSH1 0x20 DUP3 ADD SWAP1 POP DUP2 DUP2 SUB PUSH1 0x0 DUP4 ADD MSTORE PUSH3 0x5437 DUP2 PUSH3 0x53F5 JUMP JUMPDEST SWAP1 POP SWAP2 SWAP1 POP JUMP JUMPDEST PUSH1 0x0 PUSH3 0x544B DUP3 PUSH3 0x4218 JUMP JUMPDEST SWAP2 POP PUSH3 0x5458 DUP4 PUSH3 0x4218 JUMP JUMPDEST SWAP3 POP DUP2 PUSH32 0xFFFFFFFFFFFFFFFFFFFFFFFFFFFFFFFFFFFFFFFFFFFFFFFFFFFFFFFFFFFFFFFF DIV DUP4 GT DUP3 ISZERO ISZERO AND ISZERO PUSH3 0x5494 JUMPI PUSH3 0x5493 PUSH3 0x5329 JUMP JUMPDEST JUMPDEST DUP3 DUP3 MUL SWAP1 POP SWAP3 SWAP2 POP POP JUMP JUMPDEST PUSH1 0x0 PUSH3 0x54AC DUP3 PUSH3 0x4218 JUMP JUMPDEST SWAP2 POP PUSH3 0x54B9 DUP4 PUSH3 0x4218 JUMP JUMPDEST SWAP3 POP DUP3 PUSH32 0xFFFFFFFFFFFFFFFFFFFFFFFFFFFFFFFFFFFFFFFFFFFFFFFFFFFFFFFFFFFFFFFF SUB DUP3 GT ISZERO PUSH3 0x54F1 JUMPI PUSH3 0x54F0 PUSH3 0x5329 JUMP JUMPDEST JUMPDEST DUP3 DUP3 ADD SWAP1 POP SWAP3 SWAP2 POP POP JUMP JUMPDEST PUSH32 0x456C656374696F6E20686173206E6F7420737461727465640000000000000000 PUSH1 0x0 DUP3 ADD MSTORE POP JUMP JUMPDEST PUSH1 0x0 PUSH3 0x5534 PUSH1 0x18 DUP4 PUSH3 0x4951 JUMP JUMPDEST SWAP2 POP PUSH3 0x5541 DUP3 PUSH3 0x54FC JUMP JUMPDEST PUSH1 0x20 DUP3 ADD SWAP1 POP SWAP2 SWAP1 POP JUMP JUMPDEST PUSH1 0x0 PUSH1 0x20 DUP3 ADD SWAP1 POP DUP2 DUP2 SUB PUSH1 0x0 DUP4 ADD MSTORE PUSH3 0x5567 DUP2 PUSH3 0x5525 JUMP JUMPDEST SWAP1 POP SWAP2 SWAP1 POP JUMP JUMPDEST PUSH1 0x0 DUP2 MLOAD SWAP1 POP SWAP2 SWAP1 POP JUMP JUMPDEST PUSH1 0x0 DUP3 DUP3 MSTORE PUSH1 0x20 DUP3 ADD SWAP1 POP SWAP3 SWAP2 POP POP JUMP JUMPDEST PUSH1 0x0 DUP2 SWAP1 POP PUSH1 0x20 DUP3 ADD SWAP1 POP SWAP2 SWAP1 POP JUMP JUMPDEST PUSH1 0x0 PUSH3 0x55A8 DUP4 DUP4 PUSH3 0x435E JUMP JUMPDEST PUSH1 0x20 DUP4 ADD SWAP1 POP SWAP3 SWAP2 POP POP JUMP JUMPDEST PUSH1 0x0 PUSH1 0x20 DUP3 ADD SWAP1 POP SWAP2 SWAP1 POP JUMP JUMPDEST PUSH1 0x0 PUSH3 0x55CE DUP3 PUSH3 0x556E JUMP JUMPDEST PUSH3 0x55DA DUP2 DUP6 PUSH3 0x5579 JUMP JUMPDEST SWAP4 POP PUSH3 0x55E7 DUP4 PUSH3 0x558A JUMP JUMPDEST DUP1 PUSH1 0x0 JUMPDEST DUP4 DUP2 LT ISZERO PUSH3 0x561E JUMPI DUP2 MLOAD PUSH3 0x5602 DUP9 DUP3 PUSH3 0x559A JUMP JUMPDEST SWAP8 POP PUSH3 0x560F DUP4 PUSH3 0x55B4 JUMP JUMPDEST SWAP3 POP POP PUSH1 0x1 DUP2 ADD SWAP1 POP PUSH3 0x55EB JUMP JUMPDEST POP DUP6 SWAP4 POP POP POP POP SWAP3 SWAP2 POP POP JUMP JUMPDEST PUSH1 0x0 PUSH1 0x20 DUP3 ADD SWAP1 POP DUP2 DUP2 SUB PUSH1 0x0 DUP4 ADD MSTORE PUSH3 0x5647 DUP2 DUP5 PUSH3 0x55C1 JUMP JUMPDEST SWAP1 POP SWAP3 SWAP2 POP POP JUMP JUMPDEST PUSH1 0x0 PUSH3 0x5666 PUSH3 0x5660 DUP5 PUSH3 0x4754 JUMP JUMPDEST PUSH3 0x4735 JUMP JUMPDEST SWAP1 POP DUP1 DUP4 DUP3 MSTORE PUSH1 0x20 DUP3 ADD SWAP1 POP PUSH1 0x20 DUP5 MUL DUP4 ADD DUP6 DUP2 GT ISZERO PUSH3 0x568C JUMPI PUSH3 0x568B PUSH3 0x4783 JUMP JUMPDEST JUMPDEST DUP4 JUMPDEST DUP2 DUP2 LT ISZERO PUSH3 0x56B9 JUMPI DUP1 PUSH3 0x56A4 DUP9 DUP3 PUSH3 0x4B08 JUMP JUMPDEST DUP5 MSTORE PUSH1 0x20 DUP5 ADD SWAP4 POP POP PUSH1 0x20 DUP2 ADD SWAP1 POP PUSH3 0x568E JUMP JUMPDEST POP POP POP SWAP4 SWAP3 POP POP POP JUMP JUMPDEST PUSH1 0x0 DUP3 PUSH1 0x1F DUP4 ADD SLT PUSH3 0x56DB JUMPI PUSH3 0x56DA PUSH3 0x46CB JUMP JUMPDEST JUMPDEST DUP2 MLOAD PUSH3 0x56ED DUP5 DUP3 PUSH1 0x20 DUP7 ADD PUSH3 0x564F JUMP JUMPDEST SWAP2 POP POP SWAP3 SWAP2 POP POP JUMP JUMPDEST PUSH1 0x0 PUSH1 0x60 DUP3 DUP5 SUB SLT ISZERO PUSH3 0x570F JUMPI PUSH3 0x570E PUSH3 0x4AE7 JUMP JUMPDEST JUMPDEST PUSH3 0x571B PUSH1 0x60 PUSH3 0x4735 JUMP JUMPDEST SWAP1 POP PUSH1 0x0 DUP3 ADD MLOAD PUSH8 0xFFFFFFFFFFFFFFFF DUP2 GT ISZERO PUSH3 0x573E JUMPI PUSH3 0x573D PUSH3 0x4AEC JUMP JUMPDEST JUMPDEST PUSH3 0x574C DUP5 DUP3 DUP6 ADD PUSH3 0x56C3 JUMP JUMPDEST PUSH1 0x0 DUP4 ADD MSTORE POP PUSH1 0x20 PUSH3 0x5762 DUP5 DUP3 DUP6 ADD PUSH3 0x4AF1 JUMP JUMPDEST PUSH1 0x20 DUP4 ADD MSTORE POP PUSH1 0x40 PUSH3 0x5778 DUP5 DUP3 DUP6 ADD PUSH3 0x4908 JUMP JUMPDEST PUSH1 0x40 DUP4 ADD MSTORE POP SWAP3 SWAP2 POP POP JUMP JUMPDEST PUSH1 0x0 PUSH1 0x20 DUP3 DUP5 SUB SLT ISZERO PUSH3 0x579D JUMPI PUSH3 0x579C PUSH3 0x420E JUMP JUMPDEST JUMPDEST PUSH1 0x0 DUP3 ADD MLOAD PUSH8 0xFFFFFFFFFFFFFFFF DUP2 GT ISZERO PUSH3 0x57BE JUMPI PUSH3 0x57BD PUSH3 0x4213 JUMP JUMPDEST JUMPDEST PUSH3 0x57CC DUP5 DUP3 DUP6 ADD PUSH3 0x56F6 JUMP JUMPDEST SWAP2 POP POP SWAP3 SWAP2 POP POP JUMP JUMPDEST PUSH1 0x0 DUP3 DUP3 MSTORE PUSH1 0x20 DUP3 ADD SWAP1 POP SWAP3 SWAP2 POP POP JUMP JUMPDEST PUSH1 0x0 PUSH3 0x57F3 DUP3 PUSH3 0x556E JUMP JUMPDEST PUSH3 0x57FF DUP2 DUP6 PUSH3 0x57D5 JUMP JUMPDEST SWAP4 POP PUSH3 0x580C DUP4 PUSH3 0x558A JUMP JUMPDEST DUP1 PUSH1 0x0 JUMPDEST DUP4 DUP2 LT ISZERO PUSH3 0x5843 JUMPI DUP2 MLOAD PUSH3 0x5827 DUP9 DUP3 PUSH3 0x559A JUMP JUMPDEST SWAP8 POP PUSH3 0x5834 DUP4 PUSH3 0x55B4 JUMP JUMPDEST SWAP3 POP POP PUSH1 0x1 DUP2 ADD SWAP1 POP PUSH3 0x5810 JUMP JUMPDEST POP DUP6 SWAP4 POP POP POP POP SWAP3 SWAP2 POP POP JUMP JUMPDEST PUSH1 0x0 PUSH1 0x60 DUP4 ADD PUSH1 0x0 DUP4 ADD MLOAD DUP5 DUP3 SUB PUSH1 0x0 DUP7 ADD MSTORE PUSH3 0x586F DUP3 DUP3 PUSH3 0x57E6 JUMP JUMPDEST SWAP2 POP POP PUSH1 0x20 DUP4 ADD MLOAD PUSH3 0x5886 PUSH1 0x20 DUP7 ADD DUP3 PUSH3 0x434D JUMP JUMPDEST POP PUSH1 0x40 DUP4 ADD MLOAD PUSH3 0x589B PUSH1 0x40 DUP7 ADD DUP3 PUSH3 0x436F JUMP JUMPDEST POP DUP1 SWAP2 POP POP SWAP3 SWAP2 POP POP JUMP JUMPDEST PUSH1 0x0 PUSH1 0x40 DUP3 ADD SWAP1 POP PUSH3 0x58BD PUSH1 0x0 DUP4 ADD DUP6 PUSH3 0x42B9 JUMP JUMPDEST DUP2 DUP2 SUB PUSH1 0x20 DUP4 ADD MSTORE PUSH3 0x58D1 DUP2 DUP5 PUSH3 0x5850 JUMP JUMPDEST SWAP1 POP SWAP4 SWAP3 POP POP POP JUMP JUMPDEST PUSH1 0x0 PUSH1 0x60 DUP3 DUP5 SUB SLT ISZERO PUSH3 0x58F3 JUMPI PUSH3 0x58F2 PUSH3 0x4AE7 JUMP JUMPDEST JUMPDEST PUSH3 0x58FF PUSH1 0x60 PUSH3 0x4735 JUMP JUMPDEST SWAP1 POP PUSH1 0x0 DUP3 ADD MLOAD PUSH8 0xFFFFFFFFFFFFFFFF DUP2 GT ISZERO PUSH3 0x5922 JUMPI PUSH3 0x5921 PUSH3 0x4AEC JUMP JUMPDEST JUMPDEST PUSH3 0x5930 DUP5 DUP3 DUP6 ADD PUSH3 0x56C3 JUMP JUMPDEST PUSH1 0x0 DUP4 ADD MSTORE POP PUSH1 0x20 PUSH3 0x5946 DUP5 DUP3 DUP6 ADD PUSH3 0x4AF1 JUMP JUMPDEST PUSH1 0x20 DUP4 ADD MSTORE POP PUSH1 0x40 PUSH3 0x595C DUP5 DUP3 DUP6 ADD PUSH3 0x4908 JUMP JUMPDEST PUSH1 0x40 DUP4 ADD MSTORE POP SWAP3 SWAP2 POP POP JUMP JUMPDEST PUSH1 0x0 PUSH1 0x20 DUP3 DUP5 SUB SLT ISZERO PUSH3 0x5981 JUMPI PUSH3 0x5980 PUSH3 0x420E JUMP JUMPDEST JUMPDEST PUSH1 0x0 DUP3 ADD MLOAD PUSH8 0xFFFFFFFFFFFFFFFF DUP2 GT ISZERO PUSH3 0x59A2 JUMPI PUSH3 0x59A1 PUSH3 0x4213 JUMP JUMPDEST JUMPDEST PUSH3 0x59B0 DUP5 DUP3 DUP6 ADD PUSH3 0x58DA JUMP JUMPDEST SWAP2 POP POP SWAP3 SWAP2 POP POP JUMP JUMPDEST PUSH1 0x0 PUSH1 0x60 DUP4 ADD PUSH1 0x0 DUP4 ADD MLOAD DUP5 DUP3 SUB PUSH1 0x0 DUP7 ADD MSTORE PUSH3 0x59D8 DUP3 DUP3 PUSH3 0x57E6 JUMP JUMPDEST SWAP2 POP POP PUSH1 0x20 DUP4 ADD MLOAD PUSH3 0x59EF PUSH1 0x20 DUP7 ADD DUP3 PUSH3 0x434D JUMP JUMPDEST POP PUSH1 0x40 DUP4 ADD MLOAD PUSH3 0x5A04 PUSH1 0x40 DUP7 ADD DUP3 PUSH3 0x436F JUMP JUMPDEST POP DUP1 SWAP2 POP POP SWAP3 SWAP2 POP POP JUMP JUMPDEST PUSH1 0x0 PUSH1 0x40 DUP3 ADD SWAP1 POP PUSH3 0x5A26 PUSH1 0x0 DUP4 ADD DUP6 PUSH3 0x42B9 JUMP JUMPDEST DUP2 DUP2 SUB PUSH1 0x20 DUP4 ADD MSTORE PUSH3 0x5A3A DUP2 DUP5 PUSH3 0x59B9 JUMP JUMPDEST SWAP1 POP SWAP4 SWAP3 POP POP POP JUMP JUMPDEST PUSH32 0x456C656374696F6E206973206E6F7420696E20737461746520494E4155475552 PUSH1 0x0 DUP3 ADD MSTORE PUSH32 0x4154494F4E000000000000000000000000000000000000000000000000000000 PUSH1 0x20 DUP3 ADD MSTORE POP JUMP JUMPDEST PUSH1 0x0 PUSH3 0x5AA1 PUSH1 0x25 DUP4 PUSH3 0x4951 JUMP JUMPDEST SWAP2 POP PUSH3 0x5AAE DUP3 PUSH3 0x5A43 JUMP JUMPDEST PUSH1 0x40 DUP3 ADD SWAP1 POP SWAP2 SWAP1 POP JUMP JUMPDEST PUSH1 0x0 PUSH1 0x20 DUP3 ADD SWAP1 POP DUP2 DUP2 SUB PUSH1 0x0 DUP4 ADD MSTORE PUSH3 0x5AD4 DUP2 PUSH3 0x5A92 JUMP JUMPDEST SWAP1 POP SWAP2 SWAP1 POP JUMP JUMPDEST PUSH32 0x436F6E73756C746174696F6E20686173206E6F742072656163686564206D696E PUSH1 0x0 DUP3 ADD MSTORE PUSH32 0x696D756D20766F746572207475726E6F75742E00000000000000000000000000 PUSH1 0x20 DUP3 ADD MSTORE POP JUMP JUMPDEST PUSH1 0x0 PUSH3 0x5B39 PUSH1 0x33 DUP4 PUSH3 0x4951 JUMP JUMPDEST SWAP2 POP PUSH3 0x5B46 DUP3 PUSH3 0x5ADB JUMP JUMPDEST PUSH1 0x40 DUP3 ADD SWAP1 POP SWAP2 SWAP1 POP JUMP JUMPDEST PUSH1 0x0 PUSH1 0x20 DUP3 ADD SWAP1 POP DUP2 DUP2 SUB PUSH1 0x0 DUP4 ADD MSTORE PUSH3 0x5B6C DUP2 PUSH3 0x5B2A JUMP JUMPDEST SWAP1 POP SWAP2 SWAP1 POP JUMP JUMPDEST PUSH32 0x436F6E73756C746174696F6E206973206E6F7420696E207468652027454C4543 PUSH1 0x0 DUP3 ADD MSTORE PUSH32 0x54494F4E272073746174652E0000000000000000000000000000000000000000 PUSH1 0x20 DUP3 ADD MSTORE POP JUMP JUMPDEST PUSH1 0x0 PUSH3 0x5BD1 PUSH1 0x2C DUP4 PUSH3 0x4951 JUMP JUMPDEST SWAP2 POP PUSH3 0x5BDE DUP3 PUSH3 0x5B73 JUMP JUMPDEST PUSH1 0x40 DUP3 ADD SWAP1 POP SWAP2 SWAP1 POP JUMP JUMPDEST PUSH1 0x0 PUSH1 0x20 DUP3 ADD SWAP1 POP DUP2 DUP2 SUB PUSH1 0x0 DUP4 ADD MSTORE PUSH3 0x5C04 DUP2 PUSH3 0x5BC2 JUMP JUMPDEST SWAP1 POP SWAP2 SWAP1 POP JUMP JUMPDEST PUSH1 0x0 DUP2 SWAP1 POP SWAP2 SWAP1 POP JUMP JUMPDEST PUSH1 0x0 DUP2 SWAP1 POP SWAP2 SWAP1 POP JUMP JUMPDEST PUSH1 0x0 PUSH3 0x5C40 PUSH3 0x5C3A PUSH3 0x5C34 DUP5 PUSH3 0x5C0B JUMP JUMPDEST PUSH3 0x5C15 JUMP JUMPDEST PUSH3 0x4218 JUMP JUMPDEST SWAP1 POP SWAP2 SWAP1 POP JUMP JUMPDEST PUSH3 0x5C52 DUP2 PUSH3 0x5C1F JUMP JUMPDEST DUP3 MSTORE POP POP JUMP JUMPDEST PUSH1 0x0 PUSH1 0x40 DUP3 ADD SWAP1 POP PUSH3 0x5C6F PUSH1 0x0 DUP4 ADD DUP6 PUSH3 0x459D JUMP JUMPDEST PUSH3 0x5C7E PUSH1 0x20 DUP4 ADD DUP5 PUSH3 0x5C47 JUMP JUMPDEST SWAP4 SWAP3 POP POP POP JUMP JUMPDEST PUSH32 0x43616E64696461747572652077617320616C7265616479206163636570746564 PUSH1 0x0 DUP3 ADD MSTORE PUSH32 0x2100000000000000000000000000000000000000000000000000000000000000 PUSH1 0x20 DUP3 ADD MSTORE POP JUMP JUMPDEST PUSH1 0x0 PUSH3 0x5CE3 PUSH1 0x21 DUP4 PUSH3 0x4951 JUMP JUMPDEST SWAP2 POP PUSH3 0x5CF0 DUP3 PUSH3 0x5C85 JUMP JUMPDEST PUSH1 0x40 DUP3 ADD SWAP1 POP SWAP2 SWAP1 POP JUMP JUMPDEST PUSH1 0x0 PUSH1 0x20 DUP3 ADD SWAP1 POP DUP2 DUP2 SUB PUSH1 0x0 DUP4 ADD MSTORE PUSH3 0x5D16 DUP2 PUSH3 0x5CD4 JUMP JUMPDEST SWAP1 POP SWAP2 SWAP1 POP JUMP JUMPDEST PUSH32 0x43616E646964617465206973206E6F74206E6F6D696E61746564210000000000 PUSH1 0x0 DUP3 ADD MSTORE POP JUMP JUMPDEST PUSH1 0x0 PUSH3 0x5D55 PUSH1 0x1B DUP4 PUSH3 0x4951 JUMP JUMPDEST SWAP2 POP PUSH3 0x5D62 DUP3 PUSH3 0x5D1D JUMP JUMPDEST PUSH1 0x20 DUP3 ADD SWAP1 POP SWAP2 SWAP1 POP JUMP JUMPDEST PUSH1 0x0 PUSH1 0x20 DUP3 ADD SWAP1 POP DUP2 DUP2 SUB PUSH1 0x0 DUP4 ADD MSTORE PUSH3 0x5D88 DUP2 PUSH3 0x5D46 JUMP JUMPDEST SWAP1 POP SWAP2 SWAP1 POP JUMP JUMPDEST PUSH1 0x0 PUSH1 0x60 DUP3 ADD SWAP1 POP PUSH3 0x5DA6 PUSH1 0x0 DUP4 ADD DUP7 PUSH3 0x48C0 JUMP JUMPDEST PUSH3 0x5DB5 PUSH1 0x20 DUP4 ADD DUP6 PUSH3 0x48C0 JUMP JUMPDEST DUP2 DUP2 SUB PUSH1 0x40 DUP4 ADD MSTORE PUSH3 0x5DC9 DUP2 DUP5 PUSH3 0x516A JUMP JUMPDEST SWAP1 POP SWAP5 SWAP4 POP POP POP POP JUMP JUMPDEST PUSH1 0x0 PUSH1 0x20 DUP3 DUP5 SUB SLT ISZERO PUSH3 0x5DEC JUMPI PUSH3 0x5DEB PUSH3 0x420E JUMP JUMPDEST JUMPDEST PUSH1 0x0 DUP3 ADD MLOAD PUSH8 0xFFFFFFFFFFFFFFFF DUP2 GT ISZERO PUSH3 0x5E0D JUMPI PUSH3 0x5E0C PUSH3 0x4213 JUMP JUMPDEST JUMPDEST PUSH3 0x5E1B DUP5 DUP3 DUP6 ADD PUSH3 0x4BA5 JUMP JUMPDEST SWAP2 POP POP SWAP3 SWAP2 POP POP JUMP JUMPDEST PUSH1 0x0 DUP2 SLOAD SWAP1 POP SWAP2 SWAP1 POP JUMP JUMPDEST PUSH1 0x0 DUP2 SWAP1 POP DUP2 PUSH1 0x0 MSTORE PUSH1 0x20 PUSH1 0x0 KECCAK256 SWAP1 POP SWAP2 SWAP1 POP JUMP JUMPDEST PUSH1 0x0 DUP2 PUSH1 0x0 SHR SWAP1 POP SWAP2 SWAP1 POP JUMP JUMPDEST PUSH1 0x0 PUSH20 0xFFFFFFFFFFFFFFFFFFFFFFFFFFFFFFFFFFFFFFFF DUP3 AND SWAP1 POP SWAP2 SWAP1 POP JUMP JUMPDEST PUSH1 0x0 PUSH3 0x5E88 PUSH3 0x5E82 DUP4 PUSH3 0x5E44 JUMP JUMPDEST PUSH3 0x5E51 JUMP JUMPDEST SWAP1 POP SWAP2 SWAP1 POP JUMP JUMPDEST PUSH1 0x0 PUSH3 0x5E9D DUP3 SLOAD PUSH3 0x5E71 JUMP JUMPDEST SWAP1 POP SWAP2 SWAP1 POP JUMP JUMPDEST PUSH1 0x0 PUSH1 0x1 DUP3 ADD SWAP1 POP SWAP2 SWAP1 POP JUMP JUMPDEST PUSH1 0x0 PUSH3 0x5EBE DUP3 PUSH3 0x5E24 JUMP JUMPDEST PUSH3 0x5ECA DUP2 DUP6 PUSH3 0x5579 JUMP JUMPDEST SWAP4 POP PUSH3 0x5ED7 DUP4 PUSH3 0x5E2F JUMP JUMPDEST DUP1 PUSH1 0x0 JUMPDEST DUP4 DUP2 LT ISZERO PUSH3 0x5F17 JUMPI PUSH3 0x5EEF DUP3 PUSH3 0x5E8F JUMP JUMPDEST PUSH3 0x5EFB DUP9 DUP3 PUSH3 0x559A JUMP JUMPDEST SWAP8 POP PUSH3 0x5F08 DUP4 PUSH3 0x5EA4 JUMP JUMPDEST SWAP3 POP POP PUSH1 0x1 DUP2 ADD SWAP1 POP PUSH3 0x5EDB JUMP JUMPDEST POP DUP6 SWAP4 POP POP POP POP SWAP3 SWAP2 POP POP JUMP JUMPDEST PUSH1 0x0 PUSH1 0x80 DUP3 ADD SWAP1 POP DUP2 DUP2 SUB PUSH1 0x0 DUP4 ADD MSTORE PUSH3 0x5F40 DUP2 DUP8 PUSH3 0x5EB1 JUMP JUMPDEST SWAP1 POP DUP2 DUP2 SUB PUSH1 0x20 DUP4 ADD MSTORE PUSH3 0x5F56 DUP2 DUP7 PUSH3 0x516A JUMP JUMPDEST SWAP1 POP DUP2 DUP2 SUB PUSH1 0x40 DUP4 ADD MSTORE PUSH3 0x5F6C DUP2 DUP6 PUSH3 0x516A JUMP JUMPDEST SWAP1 POP PUSH3 0x5F7D PUSH1 0x60 DUP4 ADD DUP5 PUSH3 0x42F3 JUMP JUMPDEST SWAP6 SWAP5 POP POP POP POP POP JUMP JUMPDEST PUSH1 0x0 PUSH1 0x80 DUP3 ADD SWAP1 POP DUP2 DUP2 SUB PUSH1 0x0 DUP4 ADD MSTORE PUSH3 0x5FA2 DUP2 DUP8 PUSH3 0x55C1 JUMP JUMPDEST SWAP1 POP DUP2 DUP2 SUB PUSH1 0x20 DUP4 ADD MSTORE PUSH3 0x5FB8 DUP2 DUP7 PUSH3 0x516A JUMP JUMPDEST SWAP1 POP DUP2 DUP2 SUB PUSH1 0x40 DUP4 ADD MSTORE PUSH3 0x5FCE DUP2 DUP6 PUSH3 0x516A JUMP JUMPDEST SWAP1 POP PUSH3 0x5FDF PUSH1 0x60 DUP4 ADD DUP5 PUSH3 0x42F3 JUMP JUMPDEST SWAP6 SWAP5 POP POP POP POP POP JUMP JUMPDEST PUSH32 0x4F6E65206F72206D6F72652075736572732063616E2774206372656174652061 PUSH1 0x0 DUP3 ADD MSTORE PUSH32 0x20636F6E73756C746174696F6E21000000000000000000000000000000000000 PUSH1 0x20 DUP3 ADD MSTORE POP JUMP JUMPDEST PUSH1 0x0 PUSH3 0x6046 PUSH1 0x2E DUP4 PUSH3 0x4951 JUMP JUMPDEST SWAP2 POP PUSH3 0x6053 DUP3 PUSH3 0x5FE8 JUMP JUMPDEST PUSH1 0x40 DUP3 ADD SWAP1 POP SWAP2 SWAP1 POP JUMP JUMPDEST PUSH1 0x0 PUSH1 0x20 DUP3 ADD SWAP1 POP DUP2 DUP2 SUB PUSH1 0x0 DUP4 ADD MSTORE PUSH3 0x6079 DUP2 PUSH3 0x6037 JUMP JUMPDEST SWAP1 POP SWAP2 SWAP1 POP JUMP INVALID PUSH1 0x80 PUSH1 0x40 MSTORE CALLVALUE DUP1 ISZERO PUSH3 0x11 JUMPI PUSH1 0x0 DUP1 REVERT JUMPDEST POP PUSH1 0x40 MLOAD PUSH3 0x4829 CODESIZE SUB DUP1 PUSH3 0x4829 DUP4 CODECOPY DUP2 DUP2 ADD PUSH1 0x40 MSTORE DUP2 ADD SWAP1 PUSH3 0x37 SWAP2 SWAP1 PUSH3 0x7CC JUMP JUMPDEST PUSH1 0x40 MLOAD PUSH3 0x45 SWAP1 PUSH3 0x365 JUMP JUMPDEST PUSH1 0x40 MLOAD DUP1 SWAP2 SUB SWAP1 PUSH1 0x0 CREATE DUP1 ISZERO DUP1 ISZERO PUSH3 0x62 JUMPI RETURNDATASIZE PUSH1 0x0 DUP1 RETURNDATACOPY RETURNDATASIZE PUSH1 0x0 REVERT JUMPDEST POP PUSH1 0x9 PUSH1 0x0 PUSH2 0x100 EXP DUP2 SLOAD DUP2 PUSH20 0xFFFFFFFFFFFFFFFFFFFFFFFFFFFFFFFFFFFFFFFF MUL NOT AND SWAP1 DUP4 PUSH20 0xFFFFFFFFFFFFFFFFFFFFFFFFFFFFFFFFFFFFFFFF AND MUL OR SWAP1 SSTORE POP PUSH3 0xB7 DUP5 DUP5 DUP5 DUP5 PUSH3 0xC2 PUSH1 0x20 SHL PUSH1 0x20 SHR JUMP JUMPDEST POP POP POP POP POP PUSH3 0xB26 JUMP JUMPDEST PUSH1 0x0 PUSH1 0x9 PUSH1 0x0 SWAP1 SLOAD SWAP1 PUSH2 0x100 EXP SWAP1 DIV PUSH20 0xFFFFFFFFFFFFFFFFFFFFFFFFFFFFFFFFFFFFFFFF AND PUSH20 0xFFFFFFFFFFFFFFFFFFFFFFFFFFFFFFFFFFFFFFFF AND PUSH4 0xEFC6C18C PUSH1 0x40 MLOAD DUP2 PUSH4 0xFFFFFFFF AND PUSH1 0xE0 SHL DUP2 MSTORE PUSH1 0x4 ADD PUSH1 0x20 PUSH1 0x40 MLOAD DUP1 DUP4 SUB DUP2 DUP7 GAS STATICCALL ISZERO DUP1 ISZERO PUSH3 0x132 JUMPI RETURNDATASIZE PUSH1 0x0 DUP1 RETURNDATACOPY RETURNDATASIZE PUSH1 0x0 REVERT JUMPDEST POP POP POP POP PUSH1 0x40 MLOAD RETURNDATASIZE PUSH1 0x1F NOT PUSH1 0x1F DUP3 ADD AND DUP3 ADD DUP1 PUSH1 0x40 MSTORE POP DUP2 ADD SWAP1 PUSH3 0x158 SWAP2 SWAP1 PUSH3 0x8D6 JUMP JUMPDEST PUSH1 0x0 DUP2 SWAP1 SSTORE POP DUP4 PUSH1 0x2 SWAP1 DUP1 MLOAD SWAP1 PUSH1 0x20 ADD SWAP1 PUSH3 0x176 SWAP3 SWAP2 SWAP1 PUSH3 0x373 JUMP JUMPDEST POP DUP3 PUSH1 0x3 SWAP1 DUP1 MLOAD SWAP1 PUSH1 0x20 ADD SWAP1 PUSH3 0x18F SWAP3 SWAP2 SWAP1 PUSH3 0x373 JUMP JUMPDEST POP TIMESTAMP PUSH1 0x4 DUP2 SWAP1 SSTORE POP DUP5 PUSH1 0x1 SWAP1 DUP1 MLOAD SWAP1 PUSH1 0x20 ADD SWAP1 PUSH3 0x1AF SWAP3 SWAP2 SWAP1 PUSH3 0x404 JUMP JUMPDEST POP PUSH1 0x0 PUSH1 0x7 PUSH1 0x0 PUSH2 0x100 EXP DUP2 SLOAD DUP2 PUSH1 0xFF MUL NOT AND SWAP1 DUP4 PUSH1 0x2 DUP2 GT ISZERO PUSH3 0x1D9 JUMPI PUSH3 0x1D8 PUSH3 0x908 JUMP JUMPDEST JUMPDEST MUL OR SWAP1 SSTORE POP DUP2 PUSH1 0x7 PUSH1 0x1 PUSH2 0x100 EXP DUP2 SLOAD DUP2 PUSH1 0xFF MUL NOT AND SWAP1 DUP4 ISZERO ISZERO MUL OR SWAP1 SSTORE POP PUSH3 0x240 PUSH1 0x1 PUSH1 0x40 MLOAD DUP1 PUSH1 0x40 ADD PUSH1 0x40 MSTORE DUP1 PUSH1 0xD DUP2 MSTORE PUSH1 0x20 ADD PUSH32 0x506F6C6C20637265617465642100000000000000000000000000000000000000 DUP2 MSTORE POP PUSH3 0x24D PUSH1 0x20 SHL PUSH1 0x20 SHR JUMP JUMPDEST PUSH1 0x0 SLOAD SWAP1 POP SWAP5 SWAP4 POP POP POP POP JUMP JUMPDEST DUP2 PUSH1 0x2 DUP2 GT ISZERO PUSH3 0x263 JUMPI PUSH3 0x262 PUSH3 0x908 JUMP JUMPDEST JUMPDEST PUSH1 0x7 PUSH1 0x0 SWAP1 SLOAD SWAP1 PUSH2 0x100 EXP SWAP1 DIV PUSH1 0xFF AND PUSH1 0x2 DUP2 GT ISZERO PUSH3 0x288 JUMPI PUSH3 0x287 PUSH3 0x908 JUMP JUMPDEST JUMPDEST EQ PUSH3 0x324 JUMPI CALLER PUSH20 0xFFFFFFFFFFFFFFFFFFFFFFFFFFFFFFFFFFFFFFFF AND PUSH32 0xFC6F5E211098B443015CCB625104A41F61E97A80DD9B8734242A9A8C3EECC8DC PUSH1 0x7 PUSH1 0x0 SWAP1 SLOAD SWAP1 PUSH2 0x100 EXP SWAP1 DIV PUSH1 0xFF AND DUP5 DUP5 PUSH1 0x40 MLOAD PUSH3 0x2E9 SWAP4 SWAP3 SWAP2 SWAP1 PUSH3 0x9E5 JUMP JUMPDEST PUSH1 0x40 MLOAD DUP1 SWAP2 SUB SWAP1 LOG2 DUP2 PUSH1 0x7 PUSH1 0x0 PUSH2 0x100 EXP DUP2 SLOAD DUP2 PUSH1 0xFF MUL NOT AND SWAP1 DUP4 PUSH1 0x2 DUP2 GT ISZERO PUSH3 0x319 JUMPI PUSH3 0x318 PUSH3 0x908 JUMP JUMPDEST JUMPDEST MUL OR SWAP1 SSTORE POP PUSH3 0x361 JUMP JUMPDEST PUSH1 0x40 MLOAD PUSH32 0x8C379A000000000000000000000000000000000000000000000000000000000 DUP2 MSTORE PUSH1 0x4 ADD PUSH3 0x358 SWAP1 PUSH3 0xA9F JUMP JUMPDEST PUSH1 0x40 MLOAD DUP1 SWAP2 SUB SWAP1 REVERT JUMPDEST POP POP JUMP JUMPDEST PUSH2 0xD58 DUP1 PUSH3 0x3AD1 DUP4 CODECOPY ADD SWAP1 JUMP JUMPDEST DUP3 DUP1 SLOAD PUSH3 0x381 SWAP1 PUSH3 0xAF0 JUMP JUMPDEST SWAP1 PUSH1 0x0 MSTORE PUSH1 0x20 PUSH1 0x0 KECCAK256 SWAP1 PUSH1 0x1F ADD PUSH1 0x20 SWAP1 DIV DUP2 ADD SWAP3 DUP3 PUSH3 0x3A5 JUMPI PUSH1 0x0 DUP6 SSTORE PUSH3 0x3F1 JUMP JUMPDEST DUP3 PUSH1 0x1F LT PUSH3 0x3C0 JUMPI DUP1 MLOAD PUSH1 0xFF NOT AND DUP4 DUP1 ADD OR DUP6 SSTORE PUSH3 0x3F1 JUMP JUMPDEST DUP3 DUP1 ADD PUSH1 0x1 ADD DUP6 SSTORE DUP3 ISZERO PUSH3 0x3F1 JUMPI SWAP2 DUP3 ADD JUMPDEST DUP3 DUP2 GT ISZERO PUSH3 0x3F0 JUMPI DUP3 MLOAD DUP3 SSTORE SWAP2 PUSH1 0x20 ADD SWAP2 SWAP1 PUSH1 0x1 ADD SWAP1 PUSH3 0x3D3 JUMP JUMPDEST JUMPDEST POP SWAP1 POP PUSH3 0x400 SWAP2 SWAP1 PUSH3 0x493 JUMP JUMPDEST POP SWAP1 JUMP JUMPDEST DUP3 DUP1 SLOAD DUP3 DUP3 SSTORE SWAP1 PUSH1 0x0 MSTORE PUSH1 0x20 PUSH1 0x0 KECCAK256 SWAP1 DUP2 ADD SWAP3 DUP3 ISZERO PUSH3 0x480 JUMPI SWAP2 PUSH1 0x20 MUL DUP3 ADD JUMPDEST DUP3 DUP2 GT ISZERO PUSH3 0x47F JUMPI DUP3 MLOAD DUP3 PUSH1 0x0 PUSH2 0x100 EXP DUP2 SLOAD DUP2 PUSH20 0xFFFFFFFFFFFFFFFFFFFFFFFFFFFFFFFFFFFFFFFF MUL NOT AND SWAP1 DUP4 PUSH20 0xFFFFFFFFFFFFFFFFFFFFFFFFFFFFFFFFFFFFFFFF AND MUL OR SWAP1 SSTORE POP SWAP2 PUSH1 0x20 ADD SWAP2 SWAP1 PUSH1 0x1 ADD SWAP1 PUSH3 0x425 JUMP JUMPDEST JUMPDEST POP SWAP1 POP PUSH3 0x48F SWAP2 SWAP1 PUSH3 0x493 JUMP JUMPDEST POP SWAP1 JUMP JUMPDEST JUMPDEST DUP1 DUP3 GT ISZERO PUSH3 0x4AE JUMPI PUSH1 0x0 DUP2 PUSH1 0x0 SWAP1 SSTORE POP PUSH1 0x1 ADD PUSH3 0x494 JUMP JUMPDEST POP SWAP1 JUMP JUMPDEST PUSH1 0x0 PUSH1 0x40 MLOAD SWAP1 POP SWAP1 JUMP JUMPDEST PUSH1 0x0 DUP1 REVERT JUMPDEST PUSH1 0x0 DUP1 REVERT JUMPDEST PUSH1 0x0 DUP1 REVERT JUMPDEST PUSH1 0x0 PUSH1 0x1F NOT PUSH1 0x1F DUP4 ADD AND SWAP1 POP SWAP2 SWAP1 POP JUMP JUMPDEST PUSH32 0x4E487B7100000000000000000000000000000000000000000000000000000000 PUSH1 0x0 MSTORE PUSH1 0x41 PUSH1 0x4 MSTORE PUSH1 0x24 PUSH1 0x0 REVERT JUMPDEST PUSH3 0x516 DUP3 PUSH3 0x4CB JUMP JUMPDEST DUP2 ADD DUP2 DUP2 LT PUSH8 0xFFFFFFFFFFFFFFFF DUP3 GT OR ISZERO PUSH3 0x538 JUMPI PUSH3 0x537 PUSH3 0x4DC JUMP JUMPDEST JUMPDEST DUP1 PUSH1 0x40 MSTORE POP POP POP JUMP JUMPDEST PUSH1 0x0 PUSH3 0x54D PUSH3 0x4B2 JUMP JUMPDEST SWAP1 POP PUSH3 0x55B DUP3 DUP3 PUSH3 0x50B JUMP JUMPDEST SWAP2 SWAP1 POP JUMP JUMPDEST PUSH1 0x0 PUSH8 0xFFFFFFFFFFFFFFFF DUP3 GT ISZERO PUSH3 0x57E JUMPI PUSH3 0x57D PUSH3 0x4DC JUMP JUMPDEST JUMPDEST PUSH1 0x20 DUP3 MUL SWAP1 POP PUSH1 0x20 DUP2 ADD SWAP1 POP SWAP2 SWAP1 POP JUMP JUMPDEST PUSH1 0x0 DUP1 REVERT JUMPDEST PUSH1 0x0 PUSH20 0xFFFFFFFFFFFFFFFFFFFFFFFFFFFFFFFFFFFFFFFF DUP3 AND SWAP1 POP SWAP2 SWAP1 POP JUMP JUMPDEST PUSH1 0x0 PUSH3 0x5C1 DUP3 PUSH3 0x594 JUMP JUMPDEST SWAP1 POP SWAP2 SWAP1 POP JUMP JUMPDEST PUSH3 0x5D3 DUP2 PUSH3 0x5B4 JUMP JUMPDEST DUP2 EQ PUSH3 0x5DF JUMPI PUSH1 0x0 DUP1 REVERT JUMPDEST POP JUMP JUMPDEST PUSH1 0x0 DUP2 MLOAD SWAP1 POP PUSH3 0x5F3 DUP2 PUSH3 0x5C8 JUMP JUMPDEST SWAP3 SWAP2 POP POP JUMP JUMPDEST PUSH1 0x0 PUSH3 0x610 PUSH3 0x60A DUP5 PUSH3 0x560 JUMP JUMPDEST PUSH3 0x541 JUMP JUMPDEST SWAP1 POP DUP1 DUP4 DUP3 MSTORE PUSH1 0x20 DUP3 ADD SWAP1 POP PUSH1 0x20 DUP5 MUL DUP4 ADD DUP6 DUP2 GT ISZERO PUSH3 0x636 JUMPI PUSH3 0x635 PUSH3 0x58F JUMP JUMPDEST JUMPDEST DUP4 JUMPDEST DUP2 DUP2 LT ISZERO PUSH3 0x663 JUMPI DUP1 PUSH3 0x64E DUP9 DUP3 PUSH3 0x5E2 JUMP JUMPDEST DUP5 MSTORE PUSH1 0x20 DUP5 ADD SWAP4 POP POP PUSH1 0x20 DUP2 ADD SWAP1 POP PUSH3 0x638 JUMP JUMPDEST POP POP POP SWAP4 SWAP3 POP POP POP JUMP JUMPDEST PUSH1 0x0 DUP3 PUSH1 0x1F DUP4 ADD SLT PUSH3 0x685 JUMPI PUSH3 0x684 PUSH3 0x4C6 JUMP JUMPDEST JUMPDEST DUP2 MLOAD PUSH3 0x697 DUP5 DUP3 PUSH1 0x20 DUP7 ADD PUSH3 0x5F9 JUMP JUMPDEST SWAP2 POP POP SWAP3 SWAP2 POP POP JUMP JUMPDEST PUSH1 0x0 DUP1 REVERT JUMPDEST PUSH1 0x0 PUSH8 0xFFFFFFFFFFFFFFFF DUP3 GT ISZERO PUSH3 0x6C3 JUMPI PUSH3 0x6C2 PUSH3 0x4DC JUMP JUMPDEST JUMPDEST PUSH3 0x6CE DUP3 PUSH3 0x4CB JUMP JUMPDEST SWAP1 POP PUSH1 0x20 DUP2 ADD SWAP1 POP SWAP2 SWAP1 POP JUMP JUMPDEST PUSH1 0x0 JUMPDEST DUP4 DUP2 LT ISZERO PUSH3 0x6FB JUMPI DUP1 DUP3 ADD MLOAD DUP2 DUP5 ADD MSTORE PUSH1 0x20 DUP2 ADD SWAP1 POP PUSH3 0x6DE JUMP JUMPDEST DUP4 DUP2 GT ISZERO PUSH3 0x70B JUMPI PUSH1 0x0 DUP5 DUP5 ADD MSTORE JUMPDEST POP POP POP POP JUMP JUMPDEST PUSH1 0x0 PUSH3 0x728 PUSH3 0x722 DUP5 PUSH3 0x6A5 JUMP JUMPDEST PUSH3 0x541 JUMP JUMPDEST SWAP1 POP DUP3 DUP2 MSTORE PUSH1 0x20 DUP2 ADD DUP5 DUP5 DUP5 ADD GT ISZERO PUSH3 0x747 JUMPI PUSH3 0x746 PUSH3 0x6A0 JUMP JUMPDEST JUMPDEST PUSH3 0x754 DUP5 DUP3 DUP6 PUSH3 0x6DB JUMP JUMPDEST POP SWAP4 SWAP3 POP POP POP JUMP JUMPDEST PUSH1 0x0 DUP3 PUSH1 0x1F DUP4 ADD SLT PUSH3 0x774 JUMPI PUSH3 0x773 PUSH3 0x4C6 JUMP JUMPDEST JUMPDEST DUP2 MLOAD PUSH3 0x786 DUP5 DUP3 PUSH1 0x20 DUP7 ADD PUSH3 0x711 JUMP JUMPDEST SWAP2 POP POP SWAP3 SWAP2 POP POP JUMP JUMPDEST PUSH1 0x0 DUP2 ISZERO ISZERO SWAP1 POP SWAP2 SWAP1 POP JUMP JUMPDEST PUSH3 0x7A6 DUP2 PUSH3 0x78F JUMP JUMPDEST DUP2 EQ PUSH3 0x7B2 JUMPI PUSH1 0x0 DUP1 REVERT JUMPDEST POP JUMP JUMPDEST PUSH1 0x0 DUP2 MLOAD SWAP1 POP PUSH3 0x7C6 DUP2 PUSH3 0x79B JUMP JUMPDEST SWAP3 SWAP2 POP POP JUMP JUMPDEST PUSH1 0x0 DUP1 PUSH1 0x0 DUP1 PUSH1 0x80 DUP6 DUP8 SUB SLT ISZERO PUSH3 0x7E9 JUMPI PUSH3 0x7E8 PUSH3 0x4BC JUMP JUMPDEST JUMPDEST PUSH1 0x0 DUP6 ADD MLOAD PUSH8 0xFFFFFFFFFFFFFFFF DUP2 GT ISZERO PUSH3 0x80A JUMPI PUSH3 0x809 PUSH3 0x4C1 JUMP JUMPDEST JUMPDEST PUSH3 0x818 DUP8 DUP3 DUP9 ADD PUSH3 0x66D JUMP JUMPDEST SWAP5 POP POP PUSH1 0x20 DUP6 ADD MLOAD PUSH8 0xFFFFFFFFFFFFFFFF DUP2 GT ISZERO PUSH3 0x83C JUMPI PUSH3 0x83B PUSH3 0x4C1 JUMP JUMPDEST JUMPDEST PUSH3 0x84A DUP8 DUP3 DUP9 ADD PUSH3 0x75C JUMP JUMPDEST SWAP4 POP POP PUSH1 0x40 DUP6 ADD MLOAD PUSH8 0xFFFFFFFFFFFFFFFF DUP2 GT ISZERO PUSH3 0x86E JUMPI PUSH3 0x86D PUSH3 0x4C1 JUMP JUMPDEST JUMPDEST PUSH3 0x87C DUP8 DUP3 DUP9 ADD PUSH3 0x75C JUMP JUMPDEST SWAP3 POP POP PUSH1 0x60 PUSH3 0x88F DUP8 DUP3 DUP9 ADD PUSH3 0x7B5 JUMP JUMPDEST SWAP2 POP POP SWAP3 SWAP6 SWAP2 SWAP5 POP SWAP3 POP JUMP JUMPDEST PUSH1 0x0 DUP2 SWAP1 POP SWAP2 SWAP1 POP JUMP JUMPDEST PUSH3 0x8B0 DUP2 PUSH3 0x89B JUMP JUMPDEST DUP2 EQ PUSH3 0x8BC JUMPI PUSH1 0x0 DUP1 REVERT JUMPDEST POP JUMP JUMPDEST PUSH1 0x0 DUP2 MLOAD SWAP1 POP PUSH3 0x8D0 DUP2 PUSH3 0x8A5 JUMP JUMPDEST SWAP3 SWAP2 POP POP JUMP JUMPDEST PUSH1 0x0 PUSH1 0x20 DUP3 DUP5 SUB SLT ISZERO PUSH3 0x8EF JUMPI PUSH3 0x8EE PUSH3 0x4BC JUMP JUMPDEST JUMPDEST PUSH1 0x0 PUSH3 0x8FF DUP5 DUP3 DUP6 ADD PUSH3 0x8BF JUMP JUMPDEST SWAP2 POP POP SWAP3 SWAP2 POP POP JUMP JUMPDEST PUSH32 0x4E487B7100000000000000000000000000000000000000000000000000000000 PUSH1 0x0 MSTORE PUSH1 0x21 PUSH1 0x4 MSTORE PUSH1 0x24 PUSH1 0x0 REVERT JUMPDEST PUSH1 0x3 DUP2 LT PUSH3 0x94B JUMPI PUSH3 0x94A PUSH3 0x908 JUMP JUMPDEST JUMPDEST POP JUMP JUMPDEST PUSH1 0x0 DUP2 SWAP1 POP PUSH3 0x95E DUP3 PUSH3 0x937 JUMP JUMPDEST SWAP2 SWAP1 POP JUMP JUMPDEST PUSH1 0x0 PUSH3 0x970 DUP3 PUSH3 0x94E JUMP JUMPDEST SWAP1 POP SWAP2 SWAP1 POP JUMP JUMPDEST PUSH3 0x982 DUP2 PUSH3 0x963 JUMP JUMPDEST DUP3 MSTORE POP POP JUMP JUMPDEST PUSH1 0x0 DUP2 MLOAD SWAP1 POP SWAP2 SWAP1 POP JUMP JUMPDEST PUSH1 0x0 DUP3 DUP3 MSTORE PUSH1 0x20 DUP3 ADD SWAP1 POP SWAP3 SWAP2 POP POP JUMP JUMPDEST PUSH1 0x0 PUSH3 0x9B1 DUP3 PUSH3 0x988 JUMP JUMPDEST PUSH3 0x9BD DUP2 DUP6 PUSH3 0x993 JUMP JUMPDEST SWAP4 POP PUSH3 0x9CF DUP2 DUP6 PUSH1 0x20 DUP7 ADD PUSH3 0x6DB JUMP JUMPDEST PUSH3 0x9DA DUP2 PUSH3 0x4CB JUMP JUMPDEST DUP5 ADD SWAP2 POP POP SWAP3 SWAP2 POP POP JUMP JUMPDEST PUSH1 0x0 PUSH1 0x60 DUP3 ADD SWAP1 POP PUSH3 0x9FC PUSH1 0x0 DUP4 ADD DUP7 PUSH3 0x977 JUMP JUMPDEST PUSH3 0xA0B PUSH1 0x20 DUP4 ADD DUP6 PUSH3 0x977 JUMP JUMPDEST DUP2 DUP2 SUB PUSH1 0x40 DUP4 ADD MSTORE PUSH3 0xA1F DUP2 DUP5 PUSH3 0x9A4 JUMP JUMPDEST SWAP1 POP SWAP5 SWAP4 POP POP POP POP JUMP JUMPDEST PUSH32 0x5374617465206E6F74206368616E6765642E204E657720737461746520697320 PUSH1 0x0 DUP3 ADD MSTORE PUSH32 0x7468652073616D65206173206F6C642073746174652100000000000000000000 PUSH1 0x20 DUP3 ADD MSTORE POP JUMP JUMPDEST PUSH1 0x0 PUSH3 0xA87 PUSH1 0x36 DUP4 PUSH3 0x993 JUMP JUMPDEST SWAP2 POP PUSH3 0xA94 DUP3 PUSH3 0xA29 JUMP JUMPDEST PUSH1 0x40 DUP3 ADD SWAP1 POP SWAP2 SWAP1 POP JUMP JUMPDEST PUSH1 0x0 PUSH1 0x20 DUP3 ADD SWAP1 POP DUP2 DUP2 SUB PUSH1 0x0 DUP4 ADD MSTORE PUSH3 0xABA DUP2 PUSH3 0xA78 JUMP JUMPDEST SWAP1 POP SWAP2 SWAP1 POP JUMP JUMPDEST PUSH32 0x4E487B7100000000000000000000000000000000000000000000000000000000 PUSH1 0x0 MSTORE PUSH1 0x22 PUSH1 0x4 MSTORE PUSH1 0x24 PUSH1 0x0 REVERT JUMPDEST PUSH1 0x0 PUSH1 0x2 DUP3 DIV SWAP1 POP PUSH1 0x1 DUP3 AND DUP1 PUSH3 0xB09 JUMPI PUSH1 0x7F DUP3 AND SWAP2 POP JUMPDEST PUSH1 0x20 DUP3 LT DUP2 EQ ISZERO PUSH3 0xB20 JUMPI PUSH3 0xB1F PUSH3 0xAC1 JUMP JUMPDEST JUMPDEST POP SWAP2 SWAP1 POP JUMP JUMPDEST PUSH2 0x2F9B DUP1 PUSH3 0xB36 PUSH1 0x0 CODECOPY PUSH1 0x0 RETURN INVALID PUSH1 0x80 PUSH1 0x40 MSTORE CALLVALUE DUP1 ISZERO PUSH2 0x10 JUMPI PUSH1 0x0 DUP1 REVERT JUMPDEST POP PUSH1 0x4 CALLDATASIZE LT PUSH2 0x158 JUMPI PUSH1 0x0 CALLDATALOAD PUSH1 0xE0 SHR DUP1 PUSH4 0xAF640D0F GT PUSH2 0xC3 JUMPI DUP1 PUSH4 0xDDD7531B GT PUSH2 0x7C JUMPI DUP1 PUSH4 0xDDD7531B EQ PUSH2 0x37F JUMPI DUP1 PUSH4 0xDFECF96B EQ PUSH2 0x39B JUMPI DUP1 PUSH4 0xE6C09EDF EQ PUSH2 0x3B7 JUMPI DUP1 PUSH4 0xFC55E4E8 EQ PUSH2 0x3D3 JUMPI DUP1 PUSH4 0xFC818977 EQ PUSH2 0x403 JUMPI DUP1 PUSH4 0xFF3C1A8F EQ PUSH2 0x41F JUMPI PUSH2 0x158 JUMP JUMPDEST DUP1 PUSH4 0xAF640D0F EQ PUSH2 0x2CB JUMPI DUP1 PUSH4 0xB90C1DBB EQ PUSH2 0x2E9 JUMPI DUP1 PUSH4 0xC19D93FB EQ PUSH2 0x307 JUMPI DUP1 PUSH4 0xC467A69C EQ PUSH2 0x325 JUMPI DUP1 PUSH4 0xCC2EE196 EQ PUSH2 0x343 JUMPI DUP1 PUSH4 0xD4B5F16A EQ PUSH2 0x361 JUMPI PUSH2 0x158 JUMP JUMPDEST DUP1 PUSH4 0x42169E48 GT PUSH2 0x115 JUMPI DUP1 PUSH4 0x42169E48 EQ PUSH2 0x21D JUMPI DUP1 PUSH4 0x44D5E03C EQ PUSH2 0x23B JUMPI DUP1 PUSH4 0x4A79D50C EQ PUSH2 0x257 JUMPI DUP1 PUSH4 0x4F4A3115 EQ PUSH2 0x275 JUMPI DUP1 PUSH4 0x7284E416 EQ PUSH2 0x291 JUMPI DUP1 PUSH4 0x73B1A0F1 EQ PUSH2 0x2AF JUMPI PUSH2 0x158 JUMP JUMPDEST DUP1 PUSH4 0x25E7C27 EQ PUSH2 0x15D JUMPI DUP1 PUSH4 0x11174A29 EQ PUSH2 0x18D JUMPI DUP1 PUSH4 0x16DB2A7A EQ PUSH2 0x1AB JUMPI DUP1 PUSH4 0x1A092541 EQ PUSH2 0x1C7 JUMPI DUP1 PUSH4 0x1C5A9D9C EQ PUSH2 0x1E5 JUMPI DUP1 PUSH4 0x3FD00B0D EQ PUSH2 0x201 JUMPI JUMPDEST PUSH1 0x0 DUP1 REVERT JUMPDEST PUSH2 0x177 PUSH1 0x4 DUP1 CALLDATASIZE SUB DUP2 ADD SWAP1 PUSH2 0x172 SWAP2 SWAP1 PUSH2 0x2075 JUMP JUMPDEST PUSH2 0x43D JUMP JUMPDEST PUSH1 0x40 MLOAD PUSH2 0x184 SWAP2 SWAP1 PUSH2 0x20E3 JUMP JUMPDEST PUSH1 0x40 MLOAD DUP1 SWAP2 SUB SWAP1 RETURN JUMPDEST PUSH2 0x195 PUSH2 0x47C JUMP JUMPDEST PUSH1 0x40 MLOAD PUSH2 0x1A2 SWAP2 SWAP1 PUSH2 0x210D JUMP JUMPDEST PUSH1 0x40 MLOAD DUP1 SWAP2 SUB SWAP1 RETURN JUMPDEST PUSH2 0x1C5 PUSH1 0x4 DUP1 CALLDATASIZE SUB DUP2 ADD SWAP1 PUSH2 0x1C0 SWAP2 SWAP1 PUSH2 0x2154 JUMP JUMPDEST PUSH2 0x486 JUMP JUMPDEST STOP JUMPDEST PUSH2 0x1CF PUSH2 0x825 JUMP JUMPDEST PUSH1 0x40 MLOAD PUSH2 0x1DC SWAP2 SWAP1 PUSH2 0x222D JUMP JUMPDEST PUSH1 0x40 MLOAD DUP1 SWAP2 SUB SWAP1 RETURN JUMPDEST PUSH2 0x1FF PUSH1 0x4 DUP1 CALLDATASIZE SUB DUP2 ADD SWAP1 PUSH2 0x1FA SWAP2 SWAP1 PUSH2 0x224F JUMP JUMPDEST PUSH2 0x8B7 JUMP JUMPDEST STOP JUMPDEST PUSH2 0x21B PUSH1 0x4 DUP1 CALLDATASIZE SUB DUP2 ADD SWAP1 PUSH2 0x216 SWAP2 SWAP1 PUSH2 0x224F JUMP JUMPDEST PUSH2 0x9E9 JUMP JUMPDEST STOP JUMPDEST PUSH2 0x225 PUSH2 0xB69 JUMP JUMPDEST PUSH1 0x40 MLOAD PUSH2 0x232 SWAP2 SWAP1 PUSH2 0x210D JUMP JUMPDEST PUSH1 0x40 MLOAD DUP1 SWAP2 SUB SWAP1 RETURN JUMPDEST PUSH2 0x255 PUSH1 0x4 DUP1 CALLDATASIZE SUB DUP2 ADD SWAP1 PUSH2 0x250 SWAP2 SWAP1 PUSH2 0x2154 JUMP JUMPDEST PUSH2 0xB6F JUMP JUMPDEST STOP JUMPDEST PUSH2 0x25F PUSH2 0xF53 JUMP JUMPDEST PUSH1 0x40 MLOAD PUSH2 0x26C SWAP2 SWAP1 PUSH2 0x222D JUMP JUMPDEST PUSH1 0x40 MLOAD DUP1 SWAP2 SUB SWAP1 RETURN JUMPDEST PUSH2 0x28F PUSH1 0x4 DUP1 CALLDATASIZE SUB DUP2 ADD SWAP1 PUSH2 0x28A SWAP2 SWAP1 PUSH2 0x2075 JUMP JUMPDEST PUSH2 0xFE1 JUMP JUMPDEST STOP JUMPDEST PUSH2 0x299 PUSH2 0x10B4 JUMP JUMPDEST PUSH1 0x40 MLOAD PUSH2 0x2A6 SWAP2 SWAP1 PUSH2 0x222D JUMP JUMPDEST PUSH1 0x40 MLOAD DUP1 SWAP2 SUB SWAP1 RETURN JUMPDEST PUSH2 0x2C9 PUSH1 0x4 DUP1 CALLDATASIZE SUB DUP2 ADD SWAP1 PUSH2 0x2C4 SWAP2 SWAP1 PUSH2 0x224F JUMP JUMPDEST PUSH2 0x1142 JUMP JUMPDEST STOP JUMPDEST PUSH2 0x2D3 PUSH2 0x11B0 JUMP JUMPDEST PUSH1 0x40 MLOAD PUSH2 0x2E0 SWAP2 SWAP1 PUSH2 0x2295 JUMP JUMPDEST PUSH1 0x40 MLOAD DUP1 SWAP2 SUB SWAP1 RETURN JUMPDEST PUSH2 0x2F1 PUSH2 0x11B6 JUMP JUMPDEST PUSH1 0x40 MLOAD PUSH2 0x2FE SWAP2 SWAP1 PUSH2 0x210D JUMP JUMPDEST PUSH1 0x40 MLOAD DUP1 SWAP2 SUB SWAP1 RETURN JUMPDEST PUSH2 0x30F PUSH2 0x11C0 JUMP JUMPDEST PUSH1 0x40 MLOAD PUSH2 0x31C SWAP2 SWAP1 PUSH2 0x2327 JUMP JUMPDEST PUSH1 0x40 MLOAD DUP1 SWAP2 SUB SWAP1 RETURN JUMPDEST PUSH2 0x32D PUSH2 0x11D3 JUMP JUMPDEST PUSH1 0x40 MLOAD PUSH2 0x33A SWAP2 SWAP1 PUSH2 0x235D JUMP JUMPDEST PUSH1 0x40 MLOAD DUP1 SWAP2 SUB SWAP1 RETURN JUMPDEST PUSH2 0x34B PUSH2 0x1211 JUMP JUMPDEST PUSH1 0x40 MLOAD PUSH2 0x358 SWAP2 SWAP1 PUSH2 0x2554 JUMP JUMPDEST PUSH1 0x40 MLOAD DUP1 SWAP2 SUB SWAP1 RETURN JUMPDEST PUSH2 0x369 PUSH2 0x146F JUMP JUMPDEST PUSH1 0x40 MLOAD PUSH2 0x376 SWAP2 SWAP1 PUSH2 0x235D JUMP JUMPDEST PUSH1 0x40 MLOAD DUP1 SWAP2 SUB SWAP1 RETURN JUMPDEST PUSH2 0x399 PUSH1 0x4 DUP1 CALLDATASIZE SUB DUP2 ADD SWAP1 PUSH2 0x394 SWAP2 SWAP1 PUSH2 0x2075 JUMP JUMPDEST PUSH2 0x1482 JUMP JUMPDEST STOP JUMPDEST PUSH2 0x3B5 PUSH1 0x4 DUP1 CALLDATASIZE SUB DUP2 ADD SWAP1 PUSH2 0x3B0 SWAP2 SWAP1 PUSH2 0x26D7 JUMP JUMPDEST PUSH2 0x1555 JUMP JUMPDEST STOP JUMPDEST PUSH2 0x3D1 PUSH1 0x4 DUP1 CALLDATASIZE SUB DUP2 ADD SWAP1 PUSH2 0x3CC SWAP2 SWAP1 PUSH2 0x224F JUMP JUMPDEST PUSH2 0x186A JUMP JUMPDEST STOP JUMPDEST PUSH2 0x3ED PUSH1 0x4 DUP1 CALLDATASIZE SUB DUP2 ADD SWAP1 PUSH2 0x3E8 SWAP2 SWAP1 PUSH2 0x2075 JUMP JUMPDEST PUSH2 0x199C JUMP JUMPDEST PUSH1 0x40 MLOAD PUSH2 0x3FA SWAP2 SWAP1 PUSH2 0x282D JUMP JUMPDEST PUSH1 0x40 MLOAD DUP1 SWAP2 SUB SWAP1 RETURN JUMPDEST PUSH2 0x41D PUSH1 0x4 DUP1 CALLDATASIZE SUB DUP2 ADD SWAP1 PUSH2 0x418 SWAP2 SWAP1 PUSH2 0x224F JUMP JUMPDEST PUSH2 0x1BBE JUMP JUMPDEST STOP JUMPDEST PUSH2 0x427 PUSH2 0x1C2C JUMP JUMPDEST PUSH1 0x40 MLOAD PUSH2 0x434 SWAP2 SWAP1 PUSH2 0x222D JUMP JUMPDEST PUSH1 0x40 MLOAD DUP1 SWAP2 SUB SWAP1 RETURN JUMPDEST PUSH1 0x1 DUP2 DUP2 SLOAD DUP2 LT PUSH2 0x44D JUMPI PUSH1 0x0 DUP1 REVERT JUMPDEST SWAP1 PUSH1 0x0 MSTORE PUSH1 0x20 PUSH1 0x0 KECCAK256 ADD PUSH1 0x0 SWAP2 POP SLOAD SWAP1 PUSH2 0x100 EXP SWAP1 DIV PUSH20 0xFFFFFFFFFFFFFFFFFFFFFFFFFFFFFFFFFFFFFFFF AND DUP2 JUMP JUMPDEST PUSH1 0x0 PUSH1 0x6 SLOAD SWAP1 POP SWAP1 JUMP JUMPDEST PUSH1 0x1 PUSH1 0x2 DUP2 GT ISZERO PUSH2 0x49A JUMPI PUSH2 0x499 PUSH2 0x22B0 JUMP JUMPDEST JUMPDEST PUSH1 0x7 PUSH1 0x0 SWAP1 SLOAD SWAP1 PUSH2 0x100 EXP SWAP1 DIV PUSH1 0xFF AND PUSH1 0x2 DUP2 GT ISZERO PUSH2 0x4BC JUMPI PUSH2 0x4BB PUSH2 0x22B0 JUMP JUMPDEST JUMPDEST EQ PUSH2 0x4FC JUMPI PUSH1 0x40 MLOAD PUSH32 0x8C379A000000000000000000000000000000000000000000000000000000000 DUP2 MSTORE PUSH1 0x4 ADD PUSH2 0x4F3 SWAP1 PUSH2 0x28C1 JUMP JUMPDEST PUSH1 0x40 MLOAD DUP1 SWAP2 SUB SWAP1 REVERT JUMPDEST PUSH1 0x0 DUP1 PUSH1 0x8 PUSH1 0x0 DUP6 PUSH20 0xFFFFFFFFFFFFFFFFFFFFFFFFFFFFFFFFFFFFFFFF AND PUSH20 0xFFFFFFFFFFFFFFFFFFFFFFFFFFFFFFFFFFFFFFFF AND DUP2 MSTORE PUSH1 0x20 ADD SWAP1 DUP2 MSTORE PUSH1 0x20 ADD PUSH1 0x0 KECCAK256 DUP1 SLOAD DUP1 PUSH1 0x20 MUL PUSH1 0x20 ADD PUSH1 0x40 MLOAD SWAP1 DUP2 ADD PUSH1 0x40 MSTORE DUP1 SWAP3 SWAP2 SWAP1 DUP2 DUP2 MSTORE PUSH1 0x20 ADD DUP3 DUP1 SLOAD DUP1 ISZERO PUSH2 0x588 JUMPI PUSH1 0x20 MUL DUP3 ADD SWAP2 SWAP1 PUSH1 0x0 MSTORE PUSH1 0x20 PUSH1 0x0 KECCAK256 SWAP1 JUMPDEST DUP2 SLOAD DUP2 MSTORE PUSH1 0x20 ADD SWAP1 PUSH1 0x1 ADD SWAP1 DUP1 DUP4 GT PUSH2 0x574 JUMPI JUMPDEST POP POP POP POP POP SWAP1 POP PUSH1 0x0 DUP2 MLOAD EQ ISZERO PUSH2 0x5D4 JUMPI PUSH1 0x40 MLOAD PUSH32 0x8C379A000000000000000000000000000000000000000000000000000000000 DUP2 MSTORE PUSH1 0x4 ADD PUSH2 0x5CB SWAP1 PUSH2 0x292D JUMP JUMPDEST PUSH1 0x40 MLOAD DUP1 SWAP2 SUB SWAP1 REVERT JUMPDEST PUSH1 0x7 PUSH1 0x1 SWAP1 SLOAD SWAP1 PUSH2 0x100 EXP SWAP1 DIV PUSH1 0xFF AND ISZERO PUSH2 0x63A JUMPI PUSH1 0x0 PUSH8 0xFFFFFFFFFFFFFFFF DUP2 GT ISZERO PUSH2 0x604 JUMPI PUSH2 0x603 PUSH2 0x25AC JUMP JUMPDEST JUMPDEST PUSH1 0x40 MLOAD SWAP1 DUP1 DUP3 MSTORE DUP1 PUSH1 0x20 MUL PUSH1 0x20 ADD DUP3 ADD PUSH1 0x40 MSTORE DUP1 ISZERO PUSH2 0x632 JUMPI DUP2 PUSH1 0x20 ADD PUSH1 0x20 DUP3 MUL DUP1 CALLDATASIZE DUP4 CALLDATACOPY DUP1 DUP3 ADD SWAP2 POP POP SWAP1 POP JUMPDEST POP SWAP1 POP PUSH2 0x73C JUMP JUMPDEST PUSH1 0x0 DUP1 JUMPDEST DUP3 MLOAD DUP2 LT ISZERO PUSH2 0x6DD JUMPI DUP3 DUP2 DUP2 MLOAD DUP2 LT PUSH2 0x65A JUMPI PUSH2 0x659 PUSH2 0x294D JUMP JUMPDEST JUMPDEST PUSH1 0x20 MUL PUSH1 0x20 ADD ADD MLOAD DUP6 EQ ISZERO PUSH2 0x6CA JUMPI PUSH1 0x1 SWAP2 POP PUSH1 0x1 DUP4 MLOAD PUSH2 0x67B SWAP2 SWAP1 PUSH2 0x29AB JUMP JUMPDEST DUP2 LT ISZERO PUSH2 0x6C9 JUMPI DUP3 PUSH1 0x1 DUP3 PUSH2 0x690 SWAP2 SWAP1 PUSH2 0x29DF JUMP JUMPDEST DUP2 MLOAD DUP2 LT PUSH2 0x6A1 JUMPI PUSH2 0x6A0 PUSH2 0x294D JUMP JUMPDEST JUMPDEST PUSH1 0x20 MUL PUSH1 0x20 ADD ADD MLOAD DUP4 DUP3 DUP2 MLOAD DUP2 LT PUSH2 0x6BC JUMPI PUSH2 0x6BB PUSH2 0x294D JUMP JUMPDEST JUMPDEST PUSH1 0x20 MUL PUSH1 0x20 ADD ADD DUP2 DUP2 MSTORE POP POP JUMPDEST JUMPDEST DUP1 DUP1 PUSH2 0x6D5 SWAP1 PUSH2 0x2A35 JUMP JUMPDEST SWAP2 POP POP PUSH2 0x63E JUMP JUMPDEST DUP2 ISZERO PUSH2 0x6FE JUMPI PUSH1 0x0 PUSH1 0x1 DUP5 MLOAD PUSH2 0x6F3 SWAP2 SWAP1 PUSH2 0x29AB JUMP JUMPDEST SWAP1 POP DUP1 DUP5 MSTORE POP PUSH2 0x739 JUMP JUMPDEST PUSH1 0x40 MLOAD PUSH32 0x8C379A000000000000000000000000000000000000000000000000000000000 DUP2 MSTORE PUSH1 0x4 ADD PUSH2 0x730 SWAP1 PUSH2 0x2AF0 JUMP JUMPDEST PUSH1 0x40 MLOAD DUP1 SWAP2 SUB SWAP1 REVERT JUMPDEST POP POP JUMPDEST PUSH1 0x0 PUSH2 0x747 DUP5 PUSH2 0x1CBE JUMP JUMPDEST SWAP1 POP DUP1 PUSH1 0x5 ADD PUSH1 0x0 DUP2 SLOAD DUP1 SWAP3 SWAP2 SWAP1 PUSH2 0x75E SWAP1 PUSH2 0x2B10 JUMP JUMPDEST SWAP2 SWAP1 POP SSTORE POP PUSH1 0x0 DUP3 MLOAD EQ ISZERO PUSH2 0x786 JUMPI PUSH1 0x6 PUSH1 0x0 DUP2 SLOAD DUP1 SWAP3 SWAP2 SWAP1 PUSH2 0x780 SWAP1 PUSH2 0x2B10 JUMP JUMPDEST SWAP2 SWAP1 POP SSTORE POP JUMPDEST DUP2 PUSH1 0x8 PUSH1 0x0 DUP8 PUSH20 0xFFFFFFFFFFFFFFFFFFFFFFFFFFFFFFFFFFFFFFFF AND PUSH20 0xFFFFFFFFFFFFFFFFFFFFFFFFFFFFFFFFFFFFFFFF AND DUP2 MSTORE PUSH1 0x20 ADD SWAP1 DUP2 MSTORE PUSH1 0x20 ADD PUSH1 0x0 KECCAK256 SWAP1 DUP1 MLOAD SWAP1 PUSH1 0x20 ADD SWAP1 PUSH2 0x7D9 SWAP3 SWAP2 SWAP1 PUSH2 0x1E83 JUMP JUMPDEST POP PUSH1 0x1 SWAP3 POP POP DUP2 PUSH2 0x81F JUMPI PUSH1 0x40 MLOAD PUSH32 0x8C379A000000000000000000000000000000000000000000000000000000000 DUP2 MSTORE PUSH1 0x4 ADD PUSH2 0x816 SWAP1 PUSH2 0x2B86 JUMP JUMPDEST PUSH1 0x40 MLOAD DUP1 SWAP2 SUB SWAP1 REVERT JUMPDEST POP POP POP POP JUMP JUMPDEST PUSH1 0x60 PUSH1 0x3 DUP1 SLOAD PUSH2 0x834 SWAP1 PUSH2 0x2BD5 JUMP JUMPDEST DUP1 PUSH1 0x1F ADD PUSH1 0x20 DUP1 SWAP2 DIV MUL PUSH1 0x20 ADD PUSH1 0x40 MLOAD SWAP1 DUP2 ADD PUSH1 0x40 MSTORE DUP1 SWAP3 SWAP2 SWAP1 DUP2 DUP2 MSTORE PUSH1 0x20 ADD DUP3 DUP1 SLOAD PUSH2 0x860 SWAP1 PUSH2 0x2BD5 JUMP JUMPDEST DUP1 ISZERO PUSH2 0x8AD JUMPI DUP1 PUSH1 0x1F LT PUSH2 0x882 JUMPI PUSH2 0x100 DUP1 DUP4 SLOAD DIV MUL DUP4 MSTORE SWAP2 PUSH1 0x20 ADD SWAP2 PUSH2 0x8AD JUMP JUMPDEST DUP3 ADD SWAP2 SWAP1 PUSH1 0x0 MSTORE PUSH1 0x20 PUSH1 0x0 KECCAK256 SWAP1 JUMPDEST DUP2 SLOAD DUP2 MSTORE SWAP1 PUSH1 0x1 ADD SWAP1 PUSH1 0x20 ADD DUP1 DUP4 GT PUSH2 0x890 JUMPI DUP3 SWAP1 SUB PUSH1 0x1F AND DUP3 ADD SWAP2 JUMPDEST POP POP POP POP POP SWAP1 POP SWAP1 JUMP JUMPDEST DUP1 PUSH1 0x0 PUSH1 0x1 SWAP1 POP PUSH1 0x0 JUMPDEST PUSH1 0x1 DUP1 SLOAD SWAP1 POP DUP2 LT ISZERO PUSH2 0x95C JUMPI PUSH1 0x1 DUP2 DUP2 SLOAD DUP2 LT PUSH2 0x8E2 JUMPI PUSH2 0x8E1 PUSH2 0x294D JUMP JUMPDEST JUMPDEST SWAP1 PUSH1 0x0 MSTORE PUSH1 0x20 PUSH1 0x0 KECCAK256 ADD PUSH1 0x0 SWAP1 SLOAD SWAP1 PUSH2 0x100 EXP SWAP1 DIV PUSH20 0xFFFFFFFFFFFFFFFFFFFFFFFFFFFFFFFFFFFFFFFF AND PUSH20 0xFFFFFFFFFFFFFFFFFFFFFFFFFFFFFFFFFFFFFFFF AND DUP4 PUSH20 0xFFFFFFFFFFFFFFFFFFFFFFFFFFFFFFFFFFFFFFFF AND EQ ISZERO PUSH2 0x949 JUMPI PUSH1 0x1 SWAP2 POP PUSH2 0x95C JUMP JUMPDEST DUP1 DUP1 PUSH2 0x954 SWAP1 PUSH2 0x2A35 JUMP JUMPDEST SWAP2 POP POP PUSH2 0x8C1 JUMP JUMPDEST POP PUSH1 0x1 ISZERO ISZERO DUP2 ISZERO ISZERO EQ PUSH2 0x9A4 JUMPI PUSH1 0x40 MLOAD PUSH32 0x8C379A000000000000000000000000000000000000000000000000000000000 DUP2 MSTORE PUSH1 0x4 ADD PUSH2 0x99B SWAP1 PUSH2 0x2C79 JUMP JUMPDEST PUSH1 0x40 MLOAD DUP1 SWAP2 SUB SWAP1 REVERT JUMPDEST PUSH2 0x9E4 PUSH1 0x1 PUSH1 0x40 MLOAD DUP1 PUSH1 0x40 ADD PUSH1 0x40 MSTORE DUP1 PUSH1 0xF DUP2 MSTORE PUSH1 0x20 ADD PUSH32 0x506F6C6C20616374697661746564210000000000000000000000000000000000 DUP2 MSTORE POP PUSH2 0x1D7A JUMP JUMPDEST POP POP POP JUMP JUMPDEST PUSH1 0x1 PUSH1 0x2 DUP2 GT ISZERO PUSH2 0x9FD JUMPI PUSH2 0x9FC PUSH2 0x22B0 JUMP JUMPDEST JUMPDEST PUSH1 0x7 PUSH1 0x0 SWAP1 SLOAD SWAP1 PUSH2 0x100 EXP SWAP1 DIV PUSH1 0xFF AND PUSH1 0x2 DUP2 GT ISZERO PUSH2 0xA1F JUMPI PUSH2 0xA1E PUSH2 0x22B0 JUMP JUMPDEST JUMPDEST EQ PUSH2 0xA5F JUMPI PUSH1 0x40 MLOAD PUSH32 0x8C379A000000000000000000000000000000000000000000000000000000000 DUP2 MSTORE PUSH1 0x4 ADD PUSH2 0xA56 SWAP1 PUSH2 0x28C1 JUMP JUMPDEST PUSH1 0x40 MLOAD DUP1 SWAP2 SUB SWAP1 REVERT JUMPDEST PUSH1 0x7 PUSH1 0x1 SWAP1 SLOAD SWAP1 PUSH2 0x100 EXP SWAP1 DIV PUSH1 0xFF AND PUSH2 0xAAE JUMPI PUSH1 0x40 MLOAD PUSH32 0x8C379A000000000000000000000000000000000000000000000000000000000 DUP2 MSTORE PUSH1 0x4 ADD PUSH2 0xAA5 SWAP1 PUSH2 0x2D0B JUMP JUMPDEST PUSH1 0x40 MLOAD DUP1 SWAP2 SUB SWAP1 REVERT JUMPDEST PUSH1 0x0 PUSH1 0x8 PUSH1 0x0 DUP4 PUSH20 0xFFFFFFFFFFFFFFFFFFFFFFFFFFFFFFFFFFFFFFFF AND PUSH20 0xFFFFFFFFFFFFFFFFFFFFFFFFFFFFFFFFFFFFFFFF AND DUP2 MSTORE PUSH1 0x20 ADD SWAP1 DUP2 MSTORE PUSH1 0x20 ADD PUSH1 0x0 KECCAK256 DUP1 SLOAD DUP1 PUSH1 0x20 MUL PUSH1 0x20 ADD PUSH1 0x40 MLOAD SWAP1 DUP2 ADD PUSH1 0x40 MSTORE DUP1 SWAP3 SWAP2 SWAP1 DUP2 DUP2 MSTORE PUSH1 0x20 ADD DUP3 DUP1 SLOAD DUP1 ISZERO PUSH2 0xB39 JUMPI PUSH1 0x20 MUL DUP3 ADD SWAP2 SWAP1 PUSH1 0x0 MSTORE PUSH1 0x20 PUSH1 0x0 KECCAK256 SWAP1 JUMPDEST DUP2 SLOAD DUP2 MSTORE PUSH1 0x20 ADD SWAP1 PUSH1 0x1 ADD SWAP1 DUP1 DUP4 GT PUSH2 0xB25 JUMPI JUMPDEST POP POP POP POP POP SWAP1 POP PUSH2 0xB65 DUP3 DUP3 PUSH1 0x0 DUP2 MLOAD DUP2 LT PUSH2 0xB58 JUMPI PUSH2 0xB57 PUSH2 0x294D JUMP JUMPDEST JUMPDEST PUSH1 0x20 MUL PUSH1 0x20 ADD ADD MLOAD PUSH2 0x486 JUMP JUMPDEST POP POP JUMP JUMPDEST PUSH1 0x6 SLOAD DUP2 JUMP JUMPDEST PUSH1 0x1 PUSH1 0x2 DUP2 GT ISZERO PUSH2 0xB83 JUMPI PUSH2 0xB82 PUSH2 0x22B0 JUMP JUMPDEST JUMPDEST PUSH1 0x7 PUSH1 0x0 SWAP1 SLOAD SWAP1 PUSH2 0x100 EXP SWAP1 DIV PUSH1 0xFF AND PUSH1 0x2 DUP2 GT ISZERO PUSH2 0xBA5 JUMPI PUSH2 0xBA4 PUSH2 0x22B0 JUMP JUMPDEST JUMPDEST EQ PUSH2 0xBE5 JUMPI PUSH1 0x40 MLOAD PUSH32 0x8C379A000000000000000000000000000000000000000000000000000000000 DUP2 MSTORE PUSH1 0x4 ADD PUSH2 0xBDC SWAP1 PUSH2 0x28C1 JUMP JUMPDEST PUSH1 0x40 MLOAD DUP1 SWAP2 SUB SWAP1 REVERT JUMPDEST PUSH1 0x0 PUSH2 0xBF0 DUP3 PUSH2 0x1CBE JUMP JUMPDEST SWAP1 POP DUP1 PUSH1 0x2 ADD PUSH1 0x14 SWAP1 SLOAD SWAP1 PUSH2 0x100 EXP SWAP1 DIV PUSH1 0xFF AND ISZERO PUSH2 0xF13 JUMPI PUSH1 0x0 PUSH1 0x8 PUSH1 0x0 DUP6 PUSH20 0xFFFFFFFFFFFFFFFFFFFFFFFFFFFFFFFFFFFFFFFF AND PUSH20 0xFFFFFFFFFFFFFFFFFFFFFFFFFFFFFFFFFFFFFFFF AND DUP2 MSTORE PUSH1 0x20 ADD SWAP1 DUP2 MSTORE PUSH1 0x20 ADD PUSH1 0x0 KECCAK256 SWAP1 POP PUSH1 0x0 DUP2 DUP1 SLOAD SWAP1 POP EQ ISZERO PUSH2 0xD3A JUMPI PUSH1 0x0 PUSH1 0x1 PUSH8 0xFFFFFFFFFFFFFFFF DUP2 GT ISZERO PUSH2 0xC76 JUMPI PUSH2 0xC75 PUSH2 0x25AC JUMP JUMPDEST JUMPDEST PUSH1 0x40 MLOAD SWAP1 DUP1 DUP3 MSTORE DUP1 PUSH1 0x20 MUL PUSH1 0x20 ADD DUP3 ADD PUSH1 0x40 MSTORE DUP1 ISZERO PUSH2 0xCA4 JUMPI DUP2 PUSH1 0x20 ADD PUSH1 0x20 DUP3 MUL DUP1 CALLDATASIZE DUP4 CALLDATACOPY DUP1 DUP3 ADD SWAP2 POP POP SWAP1 POP JUMPDEST POP SWAP1 POP DUP4 DUP2 PUSH1 0x0 DUP2 MLOAD DUP2 LT PUSH2 0xCBC JUMPI PUSH2 0xCBB PUSH2 0x294D JUMP JUMPDEST JUMPDEST PUSH1 0x20 MUL PUSH1 0x20 ADD ADD DUP2 DUP2 MSTORE POP POP DUP1 PUSH1 0x8 PUSH1 0x0 DUP8 PUSH20 0xFFFFFFFFFFFFFFFFFFFFFFFFFFFFFFFFFFFFFFFF AND PUSH20 0xFFFFFFFFFFFFFFFFFFFFFFFFFFFFFFFFFFFFFFFF AND DUP2 MSTORE PUSH1 0x20 ADD SWAP1 DUP2 MSTORE PUSH1 0x20 ADD PUSH1 0x0 KECCAK256 SWAP1 DUP1 MLOAD SWAP1 PUSH1 0x20 ADD SWAP1 PUSH2 0xD1B SWAP3 SWAP2 SWAP1 PUSH2 0x1E83 JUMP JUMPDEST POP PUSH1 0x6 PUSH1 0x0 DUP2 SLOAD DUP1 SWAP3 SWAP2 SWAP1 PUSH2 0xD2F SWAP1 PUSH2 0x2A35 JUMP JUMPDEST SWAP2 SWAP1 POP SSTORE POP POP PUSH2 0xEF3 JUMP JUMPDEST PUSH1 0x7 PUSH1 0x1 SWAP1 SLOAD SWAP1 PUSH2 0x100 EXP SWAP1 DIV PUSH1 0xFF AND ISZERO PUSH2 0xE40 JUMPI PUSH1 0x0 DUP2 PUSH1 0x0 DUP2 SLOAD DUP2 LT PUSH2 0xD65 JUMPI PUSH2 0xD64 PUSH2 0x294D JUMP JUMPDEST JUMPDEST SWAP1 PUSH1 0x0 MSTORE PUSH1 0x20 PUSH1 0x0 KECCAK256 ADD SLOAD SWAP1 POP PUSH1 0x0 PUSH2 0xD7D DUP3 PUSH2 0x1CBE JUMP JUMPDEST SWAP1 POP DUP2 DUP6 EQ ISZERO PUSH2 0xDC2 JUMPI PUSH1 0x40 MLOAD PUSH32 0x8C379A000000000000000000000000000000000000000000000000000000000 DUP2 MSTORE PUSH1 0x4 ADD PUSH2 0xDB9 SWAP1 PUSH2 0x2D9D JUMP JUMPDEST PUSH1 0x40 MLOAD DUP1 SWAP2 SUB SWAP1 REVERT JUMPDEST DUP1 PUSH1 0x5 ADD PUSH1 0x0 DUP2 SLOAD DUP1 SWAP3 SWAP2 SWAP1 PUSH2 0xDD7 SWAP1 PUSH2 0x2B10 JUMP JUMPDEST SWAP2 SWAP1 POP SSTORE POP PUSH1 0x40 MLOAD DUP1 PUSH1 0x20 ADD PUSH1 0x40 MSTORE DUP1 DUP7 DUP2 MSTORE POP PUSH1 0x8 PUSH1 0x0 DUP9 PUSH20 0xFFFFFFFFFFFFFFFFFFFFFFFFFFFFFFFFFFFFFFFF AND PUSH20 0xFFFFFFFFFFFFFFFFFFFFFFFFFFFFFFFFFFFFFFFF AND DUP2 MSTORE PUSH1 0x20 ADD SWAP1 DUP2 MSTORE PUSH1 0x20 ADD PUSH1 0x0 KECCAK256 SWAP1 PUSH1 0x1 PUSH2 0xE38 SWAP3 SWAP2 SWAP1 PUSH2 0x1ED0 JUMP JUMPDEST POP POP POP PUSH2 0xEF2 JUMP JUMPDEST PUSH1 0x0 JUMPDEST DUP2 DUP1 SLOAD SWAP1 POP DUP2 LT ISZERO PUSH2 0xEC8 JUMPI PUSH1 0x0 DUP3 DUP3 DUP2 SLOAD DUP2 LT PUSH2 0xE64 JUMPI PUSH2 0xE63 PUSH2 0x294D JUMP JUMPDEST JUMPDEST SWAP1 PUSH1 0x0 MSTORE PUSH1 0x20 PUSH1 0x0 KECCAK256 ADD SLOAD SWAP1 POP DUP5 DUP2 EQ ISZERO PUSH2 0xEB4 JUMPI PUSH1 0x40 MLOAD PUSH32 0x8C379A000000000000000000000000000000000000000000000000000000000 DUP2 MSTORE PUSH1 0x4 ADD PUSH2 0xEAB SWAP1 PUSH2 0x2D9D JUMP JUMPDEST PUSH1 0x40 MLOAD DUP1 SWAP2 SUB SWAP1 REVERT JUMPDEST POP DUP1 DUP1 PUSH2 0xEC0 SWAP1 PUSH2 0x2A35 JUMP JUMPDEST SWAP2 POP POP PUSH2 0xE43 JUMP JUMPDEST POP DUP1 DUP4 SWAP1 DUP1 PUSH1 0x1 DUP2 SLOAD ADD DUP1 DUP3 SSTORE DUP1 SWAP2 POP POP PUSH1 0x1 SWAP1 SUB SWAP1 PUSH1 0x0 MSTORE PUSH1 0x20 PUSH1 0x0 KECCAK256 ADD PUSH1 0x0 SWAP1 SWAP2 SWAP1 SWAP2 SWAP1 SWAP2 POP SSTORE JUMPDEST JUMPDEST DUP2 PUSH1 0x5 ADD PUSH1 0x0 DUP2 SLOAD DUP1 SWAP3 SWAP2 SWAP1 PUSH2 0xF08 SWAP1 PUSH2 0x2A35 JUMP JUMPDEST SWAP2 SWAP1 POP SSTORE POP POP PUSH2 0xF4E JUMP JUMPDEST PUSH1 0x40 MLOAD PUSH32 0x8C379A000000000000000000000000000000000000000000000000000000000 DUP2 MSTORE PUSH1 0x4 ADD PUSH2 0xF45 SWAP1 PUSH2 0x2E09 JUMP JUMPDEST PUSH1 0x40 MLOAD DUP1 SWAP2 SUB SWAP1 REVERT JUMPDEST POP POP POP JUMP JUMPDEST PUSH1 0x2 DUP1 SLOAD PUSH2 0xF60 SWAP1 PUSH2 0x2BD5 JUMP JUMPDEST DUP1 PUSH1 0x1F ADD PUSH1 0x20 DUP1 SWAP2 DIV MUL PUSH1 0x20 ADD PUSH1 0x40 MLOAD SWAP1 DUP2 ADD PUSH1 0x40 MSTORE DUP1 SWAP3 SWAP2 SWAP1 DUP2 DUP2 MSTORE PUSH1 0x20 ADD DUP3 DUP1 SLOAD PUSH2 0xF8C SWAP1 PUSH2 0x2BD5 JUMP JUMPDEST DUP1 ISZERO PUSH2 0xFD9 JUMPI DUP1 PUSH1 0x1F LT PUSH2 0xFAE JUMPI PUSH2 0x100 DUP1 DUP4 SLOAD DIV MUL DUP4 MSTORE SWAP2 PUSH1 0x20 ADD SWAP2 PUSH2 0xFD9 JUMP JUMPDEST DUP3 ADD SWAP2 SWAP1 PUSH1 0x0 MSTORE PUSH1 0x20 PUSH1 0x0 KECCAK256 SWAP1 JUMPDEST DUP2 SLOAD DUP2 MSTORE SWAP1 PUSH1 0x1 ADD SWAP1 PUSH1 0x20 ADD DUP1 DUP4 GT PUSH2 0xFBC JUMPI DUP3 SWAP1 SUB PUSH1 0x1F AND DUP3 ADD SWAP2 JUMPDEST POP POP POP POP POP DUP2 JUMP JUMPDEST PUSH1 0x0 JUMPDEST PUSH1 0x5 DUP1 SLOAD SWAP1 POP DUP2 LT ISZERO PUSH2 0x1075 JUMPI DUP2 PUSH1 0x5 DUP3 DUP2 SLOAD DUP2 LT PUSH2 0x1006 JUMPI PUSH2 0x1005 PUSH2 0x294D JUMP JUMPDEST JUMPDEST SWAP1 PUSH1 0x0 MSTORE PUSH1 0x20 PUSH1 0x0 KECCAK256 SWAP1 PUSH1 0x6 MUL ADD PUSH1 0x0 ADD SLOAD EQ ISZERO PUSH2 0x1062 JUMPI PUSH1 0x0 PUSH1 0x5 DUP3 DUP2 SLOAD DUP2 LT PUSH2 0x1034 JUMPI PUSH2 0x1033 PUSH2 0x294D JUMP JUMPDEST JUMPDEST SWAP1 PUSH1 0x0 MSTORE PUSH1 0x20 PUSH1 0x0 KECCAK256 SWAP1 PUSH1 0x6 MUL ADD PUSH1 0x2 ADD PUSH1 0x14 PUSH2 0x100 EXP DUP2 SLOAD DUP2 PUSH1 0xFF MUL NOT AND SWAP1 DUP4 ISZERO ISZERO MUL OR SWAP1 SSTORE POP POP PUSH2 0x10B1 JUMP JUMPDEST DUP1 DUP1 PUSH2 0x106D SWAP1 PUSH2 0x2A35 JUMP JUMPDEST SWAP2 POP POP PUSH2 0xFE4 JUMP JUMPDEST POP PUSH1 0x40 MLOAD PUSH32 0x8C379A000000000000000000000000000000000000000000000000000000000 DUP2 MSTORE PUSH1 0x4 ADD PUSH2 0x10A8 SWAP1 PUSH2 0x2E75 JUMP JUMPDEST PUSH1 0x40 MLOAD DUP1 SWAP2 SUB SWAP1 REVERT JUMPDEST POP JUMP JUMPDEST PUSH1 0x3 DUP1 SLOAD PUSH2 0x10C1 SWAP1 PUSH2 0x2BD5 JUMP JUMPDEST DUP1 PUSH1 0x1F ADD PUSH1 0x20 DUP1 SWAP2 DIV MUL PUSH1 0x20 ADD PUSH1 0x40 MLOAD SWAP1 DUP2 ADD PUSH1 0x40 MSTORE DUP1 SWAP3 SWAP2 SWAP1 DUP2 DUP2 MSTORE PUSH1 0x20 ADD DUP3 DUP1 SLOAD PUSH2 0x10ED SWAP1 PUSH2 0x2BD5 JUMP JUMPDEST DUP1 ISZERO PUSH2 0x113A JUMPI DUP1 PUSH1 0x1F LT PUSH2 0x110F JUMPI PUSH2 0x100 DUP1 DUP4 SLOAD DIV MUL DUP4 MSTORE SWAP2 PUSH1 0x20 ADD SWAP2 PUSH2 0x113A JUMP JUMPDEST DUP3 ADD SWAP2 SWAP1 PUSH1 0x0 MSTORE PUSH1 0x20 PUSH1 0x0 KECCAK256 SWAP1 JUMPDEST DUP2 SLOAD DUP2 MSTORE SWAP1 PUSH1 0x1 ADD SWAP1 PUSH1 0x20 ADD DUP1 DUP4 GT PUSH2 0x111D JUMPI DUP3 SWAP1 SUB PUSH1 0x1F AND DUP3 ADD SWAP2 JUMPDEST POP POP POP POP POP DUP2 JUMP JUMPDEST ADDRESS PUSH20 0xFFFFFFFFFFFFFFFFFFFFFFFFFFFFFFFFFFFFFFFF AND PUSH4 0xE6C09EDF DUP3 PUSH1 0x40 MLOAD DUP3 PUSH4 0xFFFFFFFF AND PUSH1 0xE0 SHL DUP2 MSTORE PUSH1 0x4 ADD PUSH2 0x117B SWAP2 SWAP1 PUSH2 0x20E3 JUMP JUMPDEST PUSH1 0x0 PUSH1 0x40 MLOAD DUP1 DUP4 SUB DUP2 PUSH1 0x0 DUP8 DUP1 EXTCODESIZE ISZERO DUP1 ISZERO PUSH2 0x1195 JUMPI PUSH1 0x0 DUP1 REVERT JUMPDEST POP GAS CALL ISZERO DUP1 ISZERO PUSH2 0x11A9 JUMPI RETURNDATASIZE PUSH1 0x0 DUP1 RETURNDATACOPY RETURNDATASIZE PUSH1 0x0 REVERT JUMPDEST POP POP POP POP POP JUMP JUMPDEST PUSH1 0x0 SLOAD DUP2 JUMP JUMPDEST PUSH1 0x0 PUSH1 0x4 SLOAD SWAP1 POP SWAP1 JUMP JUMPDEST PUSH1 0x7 PUSH1 0x0 SWAP1 SLOAD SWAP1 PUSH2 0x100 EXP SWAP1 DIV PUSH1 0xFF AND DUP2 JUMP JUMPDEST PUSH1 0x0 PUSH1 0x1 PUSH1 0x2 DUP2 GT ISZERO PUSH2 0x11E9 JUMPI PUSH2 0x11E8 PUSH2 0x22B0 JUMP JUMPDEST JUMPDEST PUSH1 0x7 PUSH1 0x0 SWAP1 SLOAD SWAP1 PUSH2 0x100 EXP SWAP1 DIV PUSH1 0xFF AND PUSH1 0x2 DUP2 GT ISZERO PUSH2 0x120B JUMPI PUSH2 0x120A PUSH2 0x22B0 JUMP JUMPDEST JUMPDEST EQ SWAP1 POP SWAP1 JUMP JUMPDEST PUSH1 0x60 PUSH1 0x5 DUP1 SLOAD DUP1 PUSH1 0x20 MUL PUSH1 0x20 ADD PUSH1 0x40 MLOAD SWAP1 DUP2 ADD PUSH1 0x40 MSTORE DUP1 SWAP3 SWAP2 SWAP1 DUP2 DUP2 MSTORE PUSH1 0x20 ADD PUSH1 0x0 SWAP1 JUMPDEST DUP3 DUP3 LT ISZERO PUSH2 0x1466 JUMPI DUP4 DUP3 SWAP1 PUSH1 0x0 MSTORE PUSH1 0x20 PUSH1 0x0 KECCAK256 SWAP1 PUSH1 0x6 MUL ADD PUSH1 0x40 MLOAD DUP1 PUSH1 0xE0 ADD PUSH1 0x40 MSTORE SWAP1 DUP2 PUSH1 0x0 DUP3 ADD SLOAD DUP2 MSTORE PUSH1 0x20 ADD PUSH1 0x1 DUP3 ADD PUSH1 0x0 SWAP1 SLOAD SWAP1 PUSH2 0x100 EXP SWAP1 DIV PUSH20 0xFFFFFFFFFFFFFFFFFFFFFFFFFFFFFFFFFFFFFFFF AND PUSH20 0xFFFFFFFFFFFFFFFFFFFFFFFFFFFFFFFFFFFFFFFF AND PUSH20 0xFFFFFFFFFFFFFFFFFFFFFFFFFFFFFFFFFFFFFFFF AND DUP2 MSTORE PUSH1 0x20 ADD PUSH1 0x2 DUP3 ADD PUSH1 0x0 SWAP1 SLOAD SWAP1 PUSH2 0x100 EXP SWAP1 DIV PUSH20 0xFFFFFFFFFFFFFFFFFFFFFFFFFFFFFFFFFFFFFFFF AND PUSH20 0xFFFFFFFFFFFFFFFFFFFFFFFFFFFFFFFFFFFFFFFF AND PUSH20 0xFFFFFFFFFFFFFFFFFFFFFFFFFFFFFFFFFFFFFFFF AND DUP2 MSTORE PUSH1 0x20 ADD PUSH1 0x2 DUP3 ADD PUSH1 0x14 SWAP1 SLOAD SWAP1 PUSH2 0x100 EXP SWAP1 DIV PUSH1 0xFF AND ISZERO ISZERO ISZERO ISZERO DUP2 MSTORE PUSH1 0x20 ADD PUSH1 0x3 DUP3 ADD DUP1 SLOAD PUSH2 0x1339 SWAP1 PUSH2 0x2BD5 JUMP JUMPDEST DUP1 PUSH1 0x1F ADD PUSH1 0x20 DUP1 SWAP2 DIV MUL PUSH1 0x20 ADD PUSH1 0x40 MLOAD SWAP1 DUP2 ADD PUSH1 0x40 MSTORE DUP1 SWAP3 SWAP2 SWAP1 DUP2 DUP2 MSTORE PUSH1 0x20 ADD DUP3 DUP1 SLOAD PUSH2 0x1365 SWAP1 PUSH2 0x2BD5 JUMP JUMPDEST DUP1 ISZERO PUSH2 0x13B2 JUMPI DUP1 PUSH1 0x1F LT PUSH2 0x1387 JUMPI PUSH2 0x100 DUP1 DUP4 SLOAD DIV MUL DUP4 MSTORE SWAP2 PUSH1 0x20 ADD SWAP2 PUSH2 0x13B2 JUMP JUMPDEST DUP3 ADD SWAP2 SWAP1 PUSH1 0x0 MSTORE PUSH1 0x20 PUSH1 0x0 KECCAK256 SWAP1 JUMPDEST DUP2 SLOAD DUP2 MSTORE SWAP1 PUSH1 0x1 ADD SWAP1 PUSH1 0x20 ADD DUP1 DUP4 GT PUSH2 0x1395 JUMPI DUP3 SWAP1 SUB PUSH1 0x1F AND DUP3 ADD SWAP2 JUMPDEST POP POP POP POP POP DUP2 MSTORE PUSH1 0x20 ADD PUSH1 0x4 DUP3 ADD DUP1 SLOAD PUSH2 0x13CB SWAP1 PUSH2 0x2BD5 JUMP JUMPDEST DUP1 PUSH1 0x1F ADD PUSH1 0x20 DUP1 SWAP2 DIV MUL PUSH1 0x20 ADD PUSH1 0x40 MLOAD SWAP1 DUP2 ADD PUSH1 0x40 MSTORE DUP1 SWAP3 SWAP2 SWAP1 DUP2 DUP2 MSTORE PUSH1 0x20 ADD DUP3 DUP1 SLOAD PUSH2 0x13F7 SWAP1 PUSH2 0x2BD5 JUMP JUMPDEST DUP1 ISZERO PUSH2 0x1444 JUMPI DUP1 PUSH1 0x1F LT PUSH2 0x1419 JUMPI PUSH2 0x100 DUP1 DUP4 SLOAD DIV MUL DUP4 MSTORE SWAP2 PUSH1 0x20 ADD SWAP2 PUSH2 0x1444 JUMP JUMPDEST DUP3 ADD SWAP2 SWAP1 PUSH1 0x0 MSTORE PUSH1 0x20 PUSH1 0x0 KECCAK256 SWAP1 JUMPDEST DUP2 SLOAD DUP2 MSTORE SWAP1 PUSH1 0x1 ADD SWAP1 PUSH1 0x20 ADD DUP1 DUP4 GT PUSH2 0x1427 JUMPI DUP3 SWAP1 SUB PUSH1 0x1F AND DUP3 ADD SWAP2 JUMPDEST POP POP POP POP POP DUP2 MSTORE PUSH1 0x20 ADD PUSH1 0x5 DUP3 ADD SLOAD DUP2 MSTORE POP POP DUP2 MSTORE PUSH1 0x20 ADD SWAP1 PUSH1 0x1 ADD SWAP1 PUSH2 0x1235 JUMP JUMPDEST POP POP POP POP SWAP1 POP SWAP1 JUMP JUMPDEST PUSH1 0x7 PUSH1 0x1 SWAP1 SLOAD SWAP1 PUSH2 0x100 EXP SWAP1 DIV PUSH1 0xFF AND DUP2 JUMP JUMPDEST PUSH1 0x0 JUMPDEST PUSH1 0x5 DUP1 SLOAD SWAP1 POP DUP2 LT ISZERO PUSH2 0x1516 JUMPI DUP2 PUSH1 0x5 DUP3 DUP2 SLOAD DUP2 LT PUSH2 0x14A7 JUMPI PUSH2 0x14A6 PUSH2 0x294D JUMP JUMPDEST JUMPDEST SWAP1 PUSH1 0x0 MSTORE PUSH1 0x20 PUSH1 0x0 KECCAK256 SWAP1 PUSH1 0x6 MUL ADD PUSH1 0x0 ADD SLOAD EQ ISZERO PUSH2 0x1503 JUMPI PUSH1 0x1 PUSH1 0x5 DUP3 DUP2 SLOAD DUP2 LT PUSH2 0x14D5 JUMPI PUSH2 0x14D4 PUSH2 0x294D JUMP JUMPDEST JUMPDEST SWAP1 PUSH1 0x0 MSTORE PUSH1 0x20 PUSH1 0x0 KECCAK256 SWAP1 PUSH1 0x6 MUL ADD PUSH1 0x2 ADD PUSH1 0x14 PUSH2 0x100 EXP DUP2 SLOAD DUP2 PUSH1 0xFF MUL NOT AND SWAP1 DUP4 ISZERO ISZERO MUL OR SWAP1 SSTORE POP POP PUSH2 0x1552 JUMP JUMPDEST DUP1 DUP1 PUSH2 0x150E SWAP1 PUSH2 0x2A35 JUMP JUMPDEST SWAP2 POP POP PUSH2 0x1485 JUMP JUMPDEST POP PUSH1 0x40 MLOAD PUSH32 0x8C379A000000000000000000000000000000000000000000000000000000000 DUP2 MSTORE PUSH1 0x4 ADD PUSH2 0x1549 SWAP1 PUSH2 0x2E75 JUMP JUMPDEST PUSH1 0x40 MLOAD DUP1 SWAP2 SUB SWAP1 REVERT JUMPDEST POP JUMP JUMPDEST PUSH1 0x1 PUSH1 0x2 DUP2 GT ISZERO PUSH2 0x1569 JUMPI PUSH2 0x1568 PUSH2 0x22B0 JUMP JUMPDEST JUMPDEST PUSH1 0x7 PUSH1 0x0 SWAP1 SLOAD SWAP1 PUSH2 0x100 EXP SWAP1 DIV PUSH1 0xFF AND PUSH1 0x2 DUP2 GT ISZERO PUSH2 0x158B JUMPI PUSH2 0x158A PUSH2 0x22B0 JUMP JUMPDEST JUMPDEST EQ PUSH2 0x15CB JUMPI PUSH1 0x40 MLOAD PUSH32 0x8C379A000000000000000000000000000000000000000000000000000000000 DUP2 MSTORE PUSH1 0x4 ADD PUSH2 0x15C2 SWAP1 PUSH2 0x28C1 JUMP JUMPDEST PUSH1 0x40 MLOAD DUP1 SWAP2 SUB SWAP1 REVERT JUMPDEST DUP5 PUSH1 0x0 PUSH1 0x1 SWAP1 POP PUSH1 0x0 JUMPDEST PUSH1 0x1 DUP1 SLOAD SWAP1 POP DUP2 LT ISZERO PUSH2 0x1670 JUMPI PUSH1 0x1 DUP2 DUP2 SLOAD DUP2 LT PUSH2 0x15F6 JUMPI PUSH2 0x15F5 PUSH2 0x294D JUMP JUMPDEST JUMPDEST SWAP1 PUSH1 0x0 MSTORE PUSH1 0x20 PUSH1 0x0 KECCAK256 ADD PUSH1 0x0 SWAP1 SLOAD SWAP1 PUSH2 0x100 EXP SWAP1 DIV PUSH20 0xFFFFFFFFFFFFFFFFFFFFFFFFFFFFFFFFFFFFFFFF AND PUSH20 0xFFFFFFFFFFFFFFFFFFFFFFFFFFFFFFFFFFFFFFFF AND DUP4 PUSH20 0xFFFFFFFFFFFFFFFFFFFFFFFFFFFFFFFFFFFFFFFF AND EQ ISZERO PUSH2 0x165D JUMPI PUSH1 0x1 SWAP2 POP PUSH2 0x1670 JUMP JUMPDEST DUP1 DUP1 PUSH2 0x1668 SWAP1 PUSH2 0x2A35 JUMP JUMPDEST SWAP2 POP POP PUSH2 0x15D5 JUMP JUMPDEST POP PUSH1 0x1 ISZERO ISZERO DUP2 ISZERO ISZERO EQ PUSH2 0x16B8 JUMPI PUSH1 0x40 MLOAD PUSH32 0x8C379A000000000000000000000000000000000000000000000000000000000 DUP2 MSTORE PUSH1 0x4 ADD PUSH2 0x16AF SWAP1 PUSH2 0x2C79 JUMP JUMPDEST PUSH1 0x40 MLOAD DUP1 SWAP2 SUB SWAP1 REVERT JUMPDEST PUSH1 0x0 PUSH2 0x3E8 PUSH1 0x5 DUP1 SLOAD SWAP1 POP PUSH2 0x16CD SWAP2 SWAP1 PUSH2 0x29DF JUMP JUMPDEST SWAP1 POP PUSH1 0x0 PUSH1 0x40 MLOAD DUP1 PUSH1 0xE0 ADD PUSH1 0x40 MSTORE DUP1 DUP4 DUP2 MSTORE PUSH1 0x20 ADD DUP10 PUSH20 0xFFFFFFFFFFFFFFFFFFFFFFFFFFFFFFFFFFFFFFFF AND DUP2 MSTORE PUSH1 0x20 ADD DUP11 PUSH20 0xFFFFFFFFFFFFFFFFFFFFFFFFFFFFFFFFFFFFFFFF AND DUP2 MSTORE PUSH1 0x20 ADD DUP9 ISZERO ISZERO DUP2 MSTORE PUSH1 0x20 ADD DUP8 DUP2 MSTORE PUSH1 0x20 ADD DUP7 DUP2 MSTORE PUSH1 0x20 ADD PUSH1 0x0 DUP2 MSTORE POP SWAP1 POP PUSH1 0x5 DUP2 SWAP1 DUP1 PUSH1 0x1 DUP2 SLOAD ADD DUP1 DUP3 SSTORE DUP1 SWAP2 POP POP PUSH1 0x1 SWAP1 SUB SWAP1 PUSH1 0x0 MSTORE PUSH1 0x20 PUSH1 0x0 KECCAK256 SWAP1 PUSH1 0x6 MUL ADD PUSH1 0x0 SWAP1 SWAP2 SWAP1 SWAP2 SWAP1 SWAP2 POP PUSH1 0x0 DUP3 ADD MLOAD DUP2 PUSH1 0x0 ADD SSTORE PUSH1 0x20 DUP3 ADD MLOAD DUP2 PUSH1 0x1 ADD PUSH1 0x0 PUSH2 0x100 EXP DUP2 SLOAD DUP2 PUSH20 0xFFFFFFFFFFFFFFFFFFFFFFFFFFFFFFFFFFFFFFFF MUL NOT AND SWAP1 DUP4 PUSH20 0xFFFFFFFFFFFFFFFFFFFFFFFFFFFFFFFFFFFFFFFF AND MUL OR SWAP1 SSTORE POP PUSH1 0x40 DUP3 ADD MLOAD DUP2 PUSH1 0x2 ADD PUSH1 0x0 PUSH2 0x100 EXP DUP2 SLOAD DUP2 PUSH20 0xFFFFFFFFFFFFFFFFFFFFFFFFFFFFFFFFFFFFFFFF MUL NOT AND SWAP1 DUP4 PUSH20 0xFFFFFFFFFFFFFFFFFFFFFFFFFFFFFFFFFFFFFFFF AND MUL OR SWAP1 SSTORE POP PUSH1 0x60 DUP3 ADD MLOAD DUP2 PUSH1 0x2 ADD PUSH1 0x14 PUSH2 0x100 EXP DUP2 SLOAD DUP2 PUSH1 0xFF MUL NOT AND SWAP1 DUP4 ISZERO ISZERO MUL OR SWAP1 SSTORE POP PUSH1 0x80 DUP3 ADD MLOAD DUP2 PUSH1 0x3 ADD SWAP1 DUP1 MLOAD SWAP1 PUSH1 0x20 ADD SWAP1 PUSH2 0x1835 SWAP3 SWAP2 SWAP1 PUSH2 0x1F1D JUMP JUMPDEST POP PUSH1 0xA0 DUP3 ADD MLOAD DUP2 PUSH1 0x4 ADD SWAP1 DUP1 MLOAD SWAP1 PUSH1 0x20 ADD SWAP1 PUSH2 0x1852 SWAP3 SWAP2 SWAP1 PUSH2 0x1F1D JUMP JUMPDEST POP PUSH1 0xC0 DUP3 ADD MLOAD DUP2 PUSH1 0x5 ADD SSTORE POP POP POP POP POP POP POP POP POP POP POP JUMP JUMPDEST DUP1 PUSH1 0x0 PUSH1 0x1 SWAP1 POP PUSH1 0x0 JUMPDEST PUSH1 0x1 DUP1 SLOAD SWAP1 POP DUP2 LT ISZERO PUSH2 0x190F JUMPI PUSH1 0x1 DUP2 DUP2 SLOAD DUP2 LT PUSH2 0x1895 JUMPI PUSH2 0x1894 PUSH2 0x294D JUMP JUMPDEST JUMPDEST SWAP1 PUSH1 0x0 MSTORE PUSH1 0x20 PUSH1 0x0 KECCAK256 ADD PUSH1 0x0 SWAP1 SLOAD SWAP1 PUSH2 0x100 EXP SWAP1 DIV PUSH20 0xFFFFFFFFFFFFFFFFFFFFFFFFFFFFFFFFFFFFFFFF AND PUSH20 0xFFFFFFFFFFFFFFFFFFFFFFFFFFFFFFFFFFFFFFFF AND DUP4 PUSH20 0xFFFFFFFFFFFFFFFFFFFFFFFFFFFFFFFFFFFFFFFF AND EQ ISZERO PUSH2 0x18FC JUMPI PUSH1 0x1 SWAP2 POP PUSH2 0x190F JUMP JUMPDEST DUP1 DUP1 PUSH2 0x1907 SWAP1 PUSH2 0x2A35 JUMP JUMPDEST SWAP2 POP POP PUSH2 0x1874 JUMP JUMPDEST POP PUSH1 0x1 ISZERO ISZERO DUP2 ISZERO ISZERO EQ PUSH2 0x1957 JUMPI PUSH1 0x40 MLOAD PUSH32 0x8C379A000000000000000000000000000000000000000000000000000000000 DUP2 MSTORE PUSH1 0x4 ADD PUSH2 0x194E SWAP1 PUSH2 0x2C79 JUMP JUMPDEST PUSH1 0x40 MLOAD DUP1 SWAP2 SUB SWAP1 REVERT JUMPDEST PUSH2 0x1997 PUSH1 0x2 PUSH1 0x40 MLOAD DUP1 PUSH1 0x40 ADD PUSH1 0x40 MSTORE DUP1 PUSH1 0xE DUP2 MSTORE PUSH1 0x20 ADD PUSH32 0x506F6C6C2064697361626C656421000000000000000000000000000000000000 DUP2 MSTORE POP PUSH2 0x1D7A JUMP JUMPDEST POP POP POP JUMP JUMPDEST PUSH2 0x19A4 PUSH2 0x1FA3 JUMP JUMPDEST PUSH2 0x19AD DUP3 PUSH2 0x1CBE JUMP JUMPDEST PUSH1 0x40 MLOAD DUP1 PUSH1 0xE0 ADD PUSH1 0x40 MSTORE SWAP1 DUP2 PUSH1 0x0 DUP3 ADD SLOAD DUP2 MSTORE PUSH1 0x20 ADD PUSH1 0x1 DUP3 ADD PUSH1 0x0 SWAP1 SLOAD SWAP1 PUSH2 0x100 EXP SWAP1 DIV PUSH20 0xFFFFFFFFFFFFFFFFFFFFFFFFFFFFFFFFFFFFFFFF AND PUSH20 0xFFFFFFFFFFFFFFFFFFFFFFFFFFFFFFFFFFFFFFFF AND PUSH20 0xFFFFFFFFFFFFFFFFFFFFFFFFFFFFFFFFFFFFFFFF AND DUP2 MSTORE PUSH1 0x20 ADD PUSH1 0x2 DUP3 ADD PUSH1 0x0 SWAP1 SLOAD SWAP1 PUSH2 0x100 EXP SWAP1 DIV PUSH20 0xFFFFFFFFFFFFFFFFFFFFFFFFFFFFFFFFFFFFFFFF AND PUSH20 0xFFFFFFFFFFFFFFFFFFFFFFFFFFFFFFFFFFFFFFFF AND PUSH20 0xFFFFFFFFFFFFFFFFFFFFFFFFFFFFFFFFFFFFFFFF AND DUP2 MSTORE PUSH1 0x20 ADD PUSH1 0x2 DUP3 ADD PUSH1 0x14 SWAP1 SLOAD SWAP1 PUSH2 0x100 EXP SWAP1 DIV PUSH1 0xFF AND ISZERO ISZERO ISZERO ISZERO DUP2 MSTORE PUSH1 0x20 ADD PUSH1 0x3 DUP3 ADD DUP1 SLOAD PUSH2 0x1A99 SWAP1 PUSH2 0x2BD5 JUMP JUMPDEST DUP1 PUSH1 0x1F ADD PUSH1 0x20 DUP1 SWAP2 DIV MUL PUSH1 0x20 ADD PUSH1 0x40 MLOAD SWAP1 DUP2 ADD PUSH1 0x40 MSTORE DUP1 SWAP3 SWAP2 SWAP1 DUP2 DUP2 MSTORE PUSH1 0x20 ADD DUP3 DUP1 SLOAD PUSH2 0x1AC5 SWAP1 PUSH2 0x2BD5 JUMP JUMPDEST DUP1 ISZERO PUSH2 0x1B12 JUMPI DUP1 PUSH1 0x1F LT PUSH2 0x1AE7 JUMPI PUSH2 0x100 DUP1 DUP4 SLOAD DIV MUL DUP4 MSTORE SWAP2 PUSH1 0x20 ADD SWAP2 PUSH2 0x1B12 JUMP JUMPDEST DUP3 ADD SWAP2 SWAP1 PUSH1 0x0 MSTORE PUSH1 0x20 PUSH1 0x0 KECCAK256 SWAP1 JUMPDEST DUP2 SLOAD DUP2 MSTORE SWAP1 PUSH1 0x1 ADD SWAP1 PUSH1 0x20 ADD DUP1 DUP4 GT PUSH2 0x1AF5 JUMPI DUP3 SWAP1 SUB PUSH1 0x1F AND DUP3 ADD SWAP2 JUMPDEST POP POP POP POP POP DUP2 MSTORE PUSH1 0x20 ADD PUSH1 0x4 DUP3 ADD DUP1 SLOAD PUSH2 0x1B2B SWAP1 PUSH2 0x2BD5 JUMP JUMPDEST DUP1 PUSH1 0x1F ADD PUSH1 0x20 DUP1 SWAP2 DIV MUL PUSH1 0x20 ADD PUSH1 0x40 MLOAD SWAP1 DUP2 ADD PUSH1 0x40 MSTORE DUP1 SWAP3 SWAP2 SWAP1 DUP2 DUP2 MSTORE PUSH1 0x20 ADD DUP3 DUP1 SLOAD PUSH2 0x1B57 SWAP1 PUSH2 0x2BD5 JUMP JUMPDEST DUP1 ISZERO PUSH2 0x1BA4 JUMPI DUP1 PUSH1 0x1F LT PUSH2 0x1B79 JUMPI PUSH2 0x100 DUP1 DUP4 SLOAD DIV MUL DUP4 MSTORE SWAP2 PUSH1 0x20 ADD SWAP2 PUSH2 0x1BA4 JUMP JUMPDEST DUP3 ADD SWAP2 SWAP1 PUSH1 0x0 MSTORE PUSH1 0x20 PUSH1 0x0 KECCAK256 SWAP1 JUMPDEST DUP2 SLOAD DUP2 MSTORE SWAP1 PUSH1 0x1 ADD SWAP1 PUSH1 0x20 ADD DUP1 DUP4 GT PUSH2 0x1B87 JUMPI DUP3 SWAP1 SUB PUSH1 0x1F AND DUP3 ADD SWAP2 JUMPDEST POP POP POP POP POP DUP2 MSTORE PUSH1 0x20 ADD PUSH1 0x5 DUP3 ADD SLOAD DUP2 MSTORE POP POP SWAP1 POP SWAP2 SWAP1 POP JUMP JUMPDEST ADDRESS PUSH20 0xFFFFFFFFFFFFFFFFFFFFFFFFFFFFFFFFFFFFFFFF AND PUSH4 0x1C5A9D9C DUP3 PUSH1 0x40 MLOAD DUP3 PUSH4 0xFFFFFFFF AND PUSH1 0xE0 SHL DUP2 MSTORE PUSH1 0x4 ADD PUSH2 0x1BF7 SWAP2 SWAP1 PUSH2 0x20E3 JUMP JUMPDEST PUSH1 0x0 PUSH1 0x40 MLOAD DUP1 DUP4 SUB DUP2 PUSH1 0x0 DUP8 DUP1 EXTCODESIZE ISZERO DUP1 ISZERO PUSH2 0x1C11 JUMPI PUSH1 0x0 DUP1 REVERT JUMPDEST POP GAS CALL ISZERO DUP1 ISZERO PUSH2 0x1C25 JUMPI RETURNDATASIZE PUSH1 0x0 DUP1 RETURNDATACOPY RETURNDATASIZE PUSH1 0x0 REVERT JUMPDEST POP POP POP POP POP JUMP JUMPDEST PUSH1 0x60 PUSH1 0x2 DUP1 SLOAD PUSH2 0x1C3B SWAP1 PUSH2 0x2BD5 JUMP JUMPDEST DUP1 PUSH1 0x1F ADD PUSH1 0x20 DUP1 SWAP2 DIV MUL PUSH1 0x20 ADD PUSH1 0x40 MLOAD SWAP1 DUP2 ADD PUSH1 0x40 MSTORE DUP1 SWAP3 SWAP2 SWAP1 DUP2 DUP2 MSTORE PUSH1 0x20 ADD DUP3 DUP1 SLOAD PUSH2 0x1C67 SWAP1 PUSH2 0x2BD5 JUMP JUMPDEST DUP1 ISZERO PUSH2 0x1CB4 JUMPI DUP1 PUSH1 0x1F LT PUSH2 0x1C89 JUMPI PUSH2 0x100 DUP1 DUP4 SLOAD DIV MUL DUP4 MSTORE SWAP2 PUSH1 0x20 ADD SWAP2 PUSH2 0x1CB4 JUMP JUMPDEST DUP3 ADD SWAP2 SWAP1 PUSH1 0x0 MSTORE PUSH1 0x20 PUSH1 0x0 KECCAK256 SWAP1 JUMPDEST DUP2 SLOAD DUP2 MSTORE SWAP1 PUSH1 0x1 ADD SWAP1 PUSH1 0x20 ADD DUP1 DUP4 GT PUSH2 0x1C97 JUMPI DUP3 SWAP1 SUB PUSH1 0x1F AND DUP3 ADD SWAP2 JUMPDEST POP POP POP POP POP SWAP1 POP SWAP1 JUMP JUMPDEST PUSH1 0x0 DUP1 JUMPDEST PUSH1 0x5 DUP1 SLOAD SWAP1 POP DUP2 LT ISZERO PUSH2 0x1D39 JUMPI DUP3 PUSH1 0x5 DUP3 DUP2 SLOAD DUP2 LT PUSH2 0x1CE4 JUMPI PUSH2 0x1CE3 PUSH2 0x294D JUMP JUMPDEST JUMPDEST SWAP1 PUSH1 0x0 MSTORE PUSH1 0x20 PUSH1 0x0 KECCAK256 SWAP1 PUSH1 0x6 MUL ADD PUSH1 0x0 ADD SLOAD EQ ISZERO PUSH2 0x1D26 JUMPI PUSH1 0x5 DUP2 DUP2 SLOAD DUP2 LT PUSH2 0x1D10 JUMPI PUSH2 0x1D0F PUSH2 0x294D JUMP JUMPDEST JUMPDEST SWAP1 PUSH1 0x0 MSTORE PUSH1 0x20 PUSH1 0x0 KECCAK256 SWAP1 PUSH1 0x6 MUL ADD SWAP2 POP POP PUSH2 0x1D75 JUMP JUMPDEST DUP1 DUP1 PUSH2 0x1D31 SWAP1 PUSH2 0x2A35 JUMP JUMPDEST SWAP2 POP POP PUSH2 0x1CC2 JUMP JUMPDEST POP PUSH1 0x40 MLOAD PUSH32 0x8C379A000000000000000000000000000000000000000000000000000000000 DUP2 MSTORE PUSH1 0x4 ADD PUSH2 0x1D6C SWAP1 PUSH2 0x2E75 JUMP JUMPDEST PUSH1 0x40 MLOAD DUP1 SWAP2 SUB SWAP1 REVERT JUMPDEST SWAP2 SWAP1 POP JUMP JUMPDEST DUP2 PUSH1 0x2 DUP2 GT ISZERO PUSH2 0x1D8D JUMPI PUSH2 0x1D8C PUSH2 0x22B0 JUMP JUMPDEST JUMPDEST PUSH1 0x7 PUSH1 0x0 SWAP1 SLOAD SWAP1 PUSH2 0x100 EXP SWAP1 DIV PUSH1 0xFF AND PUSH1 0x2 DUP2 GT ISZERO PUSH2 0x1DAF JUMPI PUSH2 0x1DAE PUSH2 0x22B0 JUMP JUMPDEST JUMPDEST EQ PUSH2 0x1E44 JUMPI CALLER PUSH20 0xFFFFFFFFFFFFFFFFFFFFFFFFFFFFFFFFFFFFFFFF AND PUSH32 0xFC6F5E211098B443015CCB625104A41F61E97A80DD9B8734242A9A8C3EECC8DC PUSH1 0x7 PUSH1 0x0 SWAP1 SLOAD SWAP1 PUSH2 0x100 EXP SWAP1 DIV PUSH1 0xFF AND DUP5 DUP5 PUSH1 0x40 MLOAD PUSH2 0x1E0D SWAP4 SWAP3 SWAP2 SWAP1 PUSH2 0x2E95 JUMP JUMPDEST PUSH1 0x40 MLOAD DUP1 SWAP2 SUB SWAP1 LOG2 DUP2 PUSH1 0x7 PUSH1 0x0 PUSH2 0x100 EXP DUP2 SLOAD DUP2 PUSH1 0xFF MUL NOT AND SWAP1 DUP4 PUSH1 0x2 DUP2 GT ISZERO PUSH2 0x1E3A JUMPI PUSH2 0x1E39 PUSH2 0x22B0 JUMP JUMPDEST JUMPDEST MUL OR SWAP1 SSTORE POP PUSH2 0x1E7F JUMP JUMPDEST PUSH1 0x40 MLOAD PUSH32 0x8C379A000000000000000000000000000000000000000000000000000000000 DUP2 MSTORE PUSH1 0x4 ADD PUSH2 0x1E76 SWAP1 PUSH2 0x2F45 JUMP JUMPDEST PUSH1 0x40 MLOAD DUP1 SWAP2 SUB SWAP1 REVERT JUMPDEST POP POP JUMP JUMPDEST DUP3 DUP1 SLOAD DUP3 DUP3 SSTORE SWAP1 PUSH1 0x0 MSTORE PUSH1 0x20 PUSH1 0x0 KECCAK256 SWAP1 DUP2 ADD SWAP3 DUP3 ISZERO PUSH2 0x1EBF JUMPI SWAP2 PUSH1 0x20 MUL DUP3 ADD JUMPDEST DUP3 DUP2 GT ISZERO PUSH2 0x1EBE JUMPI DUP3 MLOAD DUP3 SSTORE SWAP2 PUSH1 0x20 ADD SWAP2 SWAP1 PUSH1 0x1 ADD SWAP1 PUSH2 0x1EA3 JUMP JUMPDEST JUMPDEST POP SWAP1 POP PUSH2 0x1ECC SWAP2 SWAP1 PUSH2 0x200E JUMP JUMPDEST POP SWAP1 JUMP JUMPDEST DUP3 DUP1 SLOAD DUP3 DUP3 SSTORE SWAP1 PUSH1 0x0 MSTORE PUSH1 0x20 PUSH1 0x0 KECCAK256 SWAP1 DUP2 ADD SWAP3 DUP3 ISZERO PUSH2 0x1F0C JUMPI SWAP2 PUSH1 0x20 MUL DUP3 ADD JUMPDEST DUP3 DUP2 GT ISZERO PUSH2 0x1F0B JUMPI DUP3 MLOAD DUP3 SSTORE SWAP2 PUSH1 0x20 ADD SWAP2 SWAP1 PUSH1 0x1 ADD SWAP1 PUSH2 0x1EF0 JUMP JUMPDEST JUMPDEST POP SWAP1 POP PUSH2 0x1F19 SWAP2 SWAP1 PUSH2 0x200E JUMP JUMPDEST POP SWAP1 JUMP JUMPDEST DUP3 DUP1 SLOAD PUSH2 0x1F29 SWAP1 PUSH2 0x2BD5 JUMP JUMPDEST SWAP1 PUSH1 0x0 MSTORE PUSH1 0x20 PUSH1 0x0 KECCAK256 SWAP1 PUSH1 0x1F ADD PUSH1 0x20 SWAP1 DIV DUP2 ADD SWAP3 DUP3 PUSH2 0x1F4B JUMPI PUSH1 0x0 DUP6 SSTORE PUSH2 0x1F92 JUMP JUMPDEST DUP3 PUSH1 0x1F LT PUSH2 0x1F64 JUMPI DUP1 MLOAD PUSH1 0xFF NOT AND DUP4 DUP1 ADD OR DUP6 SSTORE PUSH2 0x1F92 JUMP JUMPDEST DUP3 DUP1 ADD PUSH1 0x1 ADD DUP6 SSTORE DUP3 ISZERO PUSH2 0x1F92 JUMPI SWAP2 DUP3 ADD JUMPDEST DUP3 DUP2 GT ISZERO PUSH2 0x1F91 JUMPI DUP3 MLOAD DUP3 SSTORE SWAP2 PUSH1 0x20 ADD SWAP2 SWAP1 PUSH1 0x1 ADD SWAP1 PUSH2 0x1F76 JUMP JUMPDEST JUMPDEST POP SWAP1 POP PUSH2 0x1F9F SWAP2 SWAP1 PUSH2 0x200E JUMP JUMPDEST POP SWAP1 JUMP JUMPDEST PUSH1 0x40 MLOAD DUP1 PUSH1 0xE0 ADD PUSH1 0x40 MSTORE DUP1 PUSH1 0x0 DUP2 MSTORE PUSH1 0x20 ADD PUSH1 0x0 PUSH20 0xFFFFFFFFFFFFFFFFFFFFFFFFFFFFFFFFFFFFFFFF AND DUP2 MSTORE PUSH1 0x20 ADD PUSH1 0x0 PUSH20 0xFFFFFFFFFFFFFFFFFFFFFFFFFFFFFFFFFFFFFFFF AND DUP2 MSTORE PUSH1 0x20 ADD PUSH1 0x0 ISZERO ISZERO DUP2 MSTORE PUSH1 0x20 ADD PUSH1 0x60 DUP2 MSTORE PUSH1 0x20 ADD PUSH1 0x60 DUP2 MSTORE PUSH1 0x20 ADD PUSH1 0x0 DUP2 MSTORE POP SWAP1 JUMP JUMPDEST JUMPDEST DUP1 DUP3 GT ISZERO PUSH2 0x2027 JUMPI PUSH1 0x0 DUP2 PUSH1 0x0 SWAP1 SSTORE POP PUSH1 0x1 ADD PUSH2 0x200F JUMP JUMPDEST POP SWAP1 JUMP JUMPDEST PUSH1 0x0 PUSH1 0x40 MLOAD SWAP1 POP SWAP1 JUMP JUMPDEST PUSH1 0x0 DUP1 REVERT JUMPDEST PUSH1 0x0 DUP1 REVERT JUMPDEST PUSH1 0x0 DUP2 SWAP1 POP SWAP2 SWAP1 POP JUMP JUMPDEST PUSH2 0x2052 DUP2 PUSH2 0x203F JUMP JUMPDEST DUP2 EQ PUSH2 0x205D JUMPI PUSH1 0x0 DUP1 REVERT JUMPDEST POP JUMP JUMPDEST PUSH1 0x0 DUP2 CALLDATALOAD SWAP1 POP PUSH2 0x206F DUP2 PUSH2 0x2049 JUMP JUMPDEST SWAP3 SWAP2 POP POP JUMP JUMPDEST PUSH1 0x0 PUSH1 0x20 DUP3 DUP5 SUB SLT ISZERO PUSH2 0x208B JUMPI PUSH2 0x208A PUSH2 0x2035 JUMP JUMPDEST JUMPDEST PUSH1 0x0 PUSH2 0x2099 DUP5 DUP3 DUP6 ADD PUSH2 0x2060 JUMP JUMPDEST SWAP2 POP POP SWAP3 SWAP2 POP POP JUMP JUMPDEST PUSH1 0x0 PUSH20 0xFFFFFFFFFFFFFFFFFFFFFFFFFFFFFFFFFFFFFFFF DUP3 AND SWAP1 POP SWAP2 SWAP1 POP JUMP JUMPDEST PUSH1 0x0 PUSH2 0x20CD DUP3 PUSH2 0x20A2 JUMP JUMPDEST SWAP1 POP SWAP2 SWAP1 POP JUMP JUMPDEST PUSH2 0x20DD DUP2 PUSH2 0x20C2 JUMP JUMPDEST DUP3 MSTORE POP POP JUMP JUMPDEST PUSH1 0x0 PUSH1 0x20 DUP3 ADD SWAP1 POP PUSH2 0x20F8 PUSH1 0x0 DUP4 ADD DUP5 PUSH2 0x20D4 JUMP JUMPDEST SWAP3 SWAP2 POP POP JUMP JUMPDEST PUSH2 0x2107 DUP2 PUSH2 0x203F JUMP JUMPDEST DUP3 MSTORE POP POP JUMP JUMPDEST PUSH1 0x0 PUSH1 0x20 DUP3 ADD SWAP1 POP PUSH2 0x2122 PUSH1 0x0 DUP4 ADD DUP5 PUSH2 0x20FE JUMP JUMPDEST SWAP3 SWAP2 POP POP JUMP JUMPDEST PUSH2 0x2131 DUP2 PUSH2 0x20C2 JUMP JUMPDEST DUP2 EQ PUSH2 0x213C JUMPI PUSH1 0x0 DUP1 REVERT JUMPDEST POP JUMP JUMPDEST PUSH1 0x0 DUP2 CALLDATALOAD SWAP1 POP PUSH2 0x214E DUP2 PUSH2 0x2128 JUMP JUMPDEST SWAP3 SWAP2 POP POP JUMP JUMPDEST PUSH1 0x0 DUP1 PUSH1 0x40 DUP4 DUP6 SUB SLT ISZERO PUSH2 0x216B JUMPI PUSH2 0x216A PUSH2 0x2035 JUMP JUMPDEST JUMPDEST PUSH1 0x0 PUSH2 0x2179 DUP6 DUP3 DUP7 ADD PUSH2 0x213F JUMP JUMPDEST SWAP3 POP POP PUSH1 0x20 PUSH2 0x218A DUP6 DUP3 DUP7 ADD PUSH2 0x2060 JUMP JUMPDEST SWAP2 POP POP SWAP3 POP SWAP3 SWAP1 POP JUMP JUMPDEST PUSH1 0x0 DUP2 MLOAD SWAP1 POP SWAP2 SWAP1 POP JUMP JUMPDEST PUSH1 0x0 DUP3 DUP3 MSTORE PUSH1 0x20 DUP3 ADD SWAP1 POP SWAP3 SWAP2 POP POP JUMP JUMPDEST PUSH1 0x0 JUMPDEST DUP4 DUP2 LT ISZERO PUSH2 0x21CE JUMPI DUP1 DUP3 ADD MLOAD DUP2 DUP5 ADD MSTORE PUSH1 0x20 DUP2 ADD SWAP1 POP PUSH2 0x21B3 JUMP JUMPDEST DUP4 DUP2 GT ISZERO PUSH2 0x21DD JUMPI PUSH1 0x0 DUP5 DUP5 ADD MSTORE JUMPDEST POP POP POP POP JUMP JUMPDEST PUSH1 0x0 PUSH1 0x1F NOT PUSH1 0x1F DUP4 ADD AND SWAP1 POP SWAP2 SWAP1 POP JUMP JUMPDEST PUSH1 0x0 PUSH2 0x21FF DUP3 PUSH2 0x2194 JUMP JUMPDEST PUSH2 0x2209 DUP2 DUP6 PUSH2 0x219F JUMP JUMPDEST SWAP4 POP PUSH2 0x2219 DUP2 DUP6 PUSH1 0x20 DUP7 ADD PUSH2 0x21B0 JUMP JUMPDEST PUSH2 0x2222 DUP2 PUSH2 0x21E3 JUMP JUMPDEST DUP5 ADD SWAP2 POP POP SWAP3 SWAP2 POP POP JUMP JUMPDEST PUSH1 0x0 PUSH1 0x20 DUP3 ADD SWAP1 POP DUP2 DUP2 SUB PUSH1 0x0 DUP4 ADD MSTORE PUSH2 0x2247 DUP2 DUP5 PUSH2 0x21F4 JUMP JUMPDEST SWAP1 POP SWAP3 SWAP2 POP POP JUMP JUMPDEST PUSH1 0x0 PUSH1 0x20 DUP3 DUP5 SUB SLT ISZERO PUSH2 0x2265 JUMPI PUSH2 0x2264 PUSH2 0x2035 JUMP JUMPDEST JUMPDEST PUSH1 0x0 PUSH2 0x2273 DUP5 DUP3 DUP6 ADD PUSH2 0x213F JUMP JUMPDEST SWAP2 POP POP SWAP3 SWAP2 POP POP JUMP JUMPDEST PUSH1 0x0 DUP2 SWAP1 POP SWAP2 SWAP1 POP JUMP JUMPDEST PUSH2 0x228F DUP2 PUSH2 0x227C JUMP JUMPDEST DUP3 MSTORE POP POP JUMP JUMPDEST PUSH1 0x0 PUSH1 0x20 DUP3 ADD SWAP1 POP PUSH2 0x22AA PUSH1 0x0 DUP4 ADD DUP5 PUSH2 0x2286 JUMP JUMPDEST SWAP3 SWAP2 POP POP JUMP JUMPDEST PUSH32 0x4E487B7100000000000000000000000000000000000000000000000000000000 PUSH1 0x0 MSTORE PUSH1 0x21 PUSH1 0x4 MSTORE PUSH1 0x24 PUSH1 0x0 REVERT JUMPDEST PUSH1 0x3 DUP2 LT PUSH2 0x22F0 JUMPI PUSH2 0x22EF PUSH2 0x22B0 JUMP JUMPDEST JUMPDEST POP JUMP JUMPDEST PUSH1 0x0 DUP2 SWAP1 POP PUSH2 0x2301 DUP3 PUSH2 0x22DF JUMP JUMPDEST SWAP2 SWAP1 POP JUMP JUMPDEST PUSH1 0x0 PUSH2 0x2311 DUP3 PUSH2 0x22F3 JUMP JUMPDEST SWAP1 POP SWAP2 SWAP1 POP JUMP JUMPDEST PUSH2 0x2321 DUP2 PUSH2 0x2306 JUMP JUMPDEST DUP3 MSTORE POP POP JUMP JUMPDEST PUSH1 0x0 PUSH1 0x20 DUP3 ADD SWAP1 POP PUSH2 0x233C PUSH1 0x0 DUP4 ADD DUP5 PUSH2 0x2318 JUMP JUMPDEST SWAP3 SWAP2 POP POP JUMP JUMPDEST PUSH1 0x0 DUP2 ISZERO ISZERO SWAP1 POP SWAP2 SWAP1 POP JUMP JUMPDEST PUSH2 0x2357 DUP2 PUSH2 0x2342 JUMP JUMPDEST DUP3 MSTORE POP POP JUMP JUMPDEST PUSH1 0x0 PUSH1 0x20 DUP3 ADD SWAP1 POP PUSH2 0x2372 PUSH1 0x0 DUP4 ADD DUP5 PUSH2 0x234E JUMP JUMPDEST SWAP3 SWAP2 POP POP JUMP JUMPDEST PUSH1 0x0 DUP2 MLOAD SWAP1 POP SWAP2 SWAP1 POP JUMP JUMPDEST PUSH1 0x0 DUP3 DUP3 MSTORE PUSH1 0x20 DUP3 ADD SWAP1 POP SWAP3 SWAP2 POP POP JUMP JUMPDEST PUSH1 0x0 DUP2 SWAP1 POP PUSH1 0x20 DUP3 ADD SWAP1 POP SWAP2 SWAP1 POP JUMP JUMPDEST PUSH2 0x23AD DUP2 PUSH2 0x203F JUMP JUMPDEST DUP3 MSTORE POP POP JUMP JUMPDEST PUSH2 0x23BC DUP2 PUSH2 0x20C2 JUMP JUMPDEST DUP3 MSTORE POP POP JUMP JUMPDEST PUSH2 0x23CB DUP2 PUSH2 0x2342 JUMP JUMPDEST DUP3 MSTORE POP POP JUMP JUMPDEST PUSH1 0x0 DUP3 DUP3 MSTORE PUSH1 0x20 DUP3 ADD SWAP1 POP SWAP3 SWAP2 POP POP JUMP JUMPDEST PUSH1 0x0 PUSH2 0x23ED DUP3 PUSH2 0x2194 JUMP JUMPDEST PUSH2 0x23F7 DUP2 DUP6 PUSH2 0x23D1 JUMP JUMPDEST SWAP4 POP PUSH2 0x2407 DUP2 DUP6 PUSH1 0x20 DUP7 ADD PUSH2 0x21B0 JUMP JUMPDEST PUSH2 0x2410 DUP2 PUSH2 0x21E3 JUMP JUMPDEST DUP5 ADD SWAP2 POP POP SWAP3 SWAP2 POP POP JUMP JUMPDEST PUSH1 0x0 PUSH1 0xE0 DUP4 ADD PUSH1 0x0 DUP4 ADD MLOAD PUSH2 0x2433 PUSH1 0x0 DUP7 ADD DUP3 PUSH2 0x23A4 JUMP JUMPDEST POP PUSH1 0x20 DUP4 ADD MLOAD PUSH2 0x2446 PUSH1 0x20 DUP7 ADD DUP3 PUSH2 0x23B3 JUMP JUMPDEST POP PUSH1 0x40 DUP4 ADD MLOAD PUSH2 0x2459 PUSH1 0x40 DUP7 ADD DUP3 PUSH2 0x23B3 JUMP JUMPDEST POP PUSH1 0x60 DUP4 ADD MLOAD PUSH2 0x246C PUSH1 0x60 DUP7 ADD DUP3 PUSH2 0x23C2 JUMP JUMPDEST POP PUSH1 0x80 DUP4 ADD MLOAD DUP5 DUP3 SUB PUSH1 0x80 DUP7 ADD MSTORE PUSH2 0x2484 DUP3 DUP3 PUSH2 0x23E2 JUMP JUMPDEST SWAP2 POP POP PUSH1 0xA0 DUP4 ADD MLOAD DUP5 DUP3 SUB PUSH1 0xA0 DUP7 ADD MSTORE PUSH2 0x249E DUP3 DUP3 PUSH2 0x23E2 JUMP JUMPDEST SWAP2 POP POP PUSH1 0xC0 DUP4 ADD MLOAD PUSH2 0x24B3 PUSH1 0xC0 DUP7 ADD DUP3 PUSH2 0x23A4 JUMP JUMPDEST POP DUP1 SWAP2 POP POP SWAP3 SWAP2 POP POP JUMP JUMPDEST PUSH1 0x0 PUSH2 0x24CA DUP4 DUP4 PUSH2 0x241B JUMP JUMPDEST SWAP1 POP SWAP3 SWAP2 POP POP JUMP JUMPDEST PUSH1 0x0 PUSH1 0x20 DUP3 ADD SWAP1 POP SWAP2 SWAP1 POP JUMP JUMPDEST PUSH1 0x0 PUSH2 0x24EA DUP3 PUSH2 0x2378 JUMP JUMPDEST PUSH2 0x24F4 DUP2 DUP6 PUSH2 0x2383 JUMP JUMPDEST SWAP4 POP DUP4 PUSH1 0x20 DUP3 MUL DUP6 ADD PUSH2 0x2506 DUP6 PUSH2 0x2394 JUMP JUMPDEST DUP1 PUSH1 0x0 JUMPDEST DUP6 DUP2 LT ISZERO PUSH2 0x2542 JUMPI DUP5 DUP5 SUB DUP10 MSTORE DUP2 MLOAD PUSH2 0x2523 DUP6 DUP3 PUSH2 0x24BE JUMP JUMPDEST SWAP5 POP PUSH2 0x252E DUP4 PUSH2 0x24D2 JUMP JUMPDEST SWAP3 POP PUSH1 0x20 DUP11 ADD SWAP10 POP POP PUSH1 0x1 DUP2 ADD SWAP1 POP PUSH2 0x250A JUMP JUMPDEST POP DUP3 SWAP8 POP DUP8 SWAP6 POP POP POP POP POP POP SWAP3 SWAP2 POP POP JUMP JUMPDEST PUSH1 0x0 PUSH1 0x20 DUP3 ADD SWAP1 POP DUP2 DUP2 SUB PUSH1 0x0 DUP4 ADD MSTORE PUSH2 0x256E DUP2 DUP5 PUSH2 0x24DF JUMP JUMPDEST SWAP1 POP SWAP3 SWAP2 POP POP JUMP JUMPDEST PUSH2 0x257F DUP2 PUSH2 0x2342 JUMP JUMPDEST DUP2 EQ PUSH2 0x258A JUMPI PUSH1 0x0 DUP1 REVERT JUMPDEST POP JUMP JUMPDEST PUSH1 0x0 DUP2 CALLDATALOAD SWAP1 POP PUSH2 0x259C DUP2 PUSH2 0x2576 JUMP JUMPDEST SWAP3 SWAP2 POP POP JUMP JUMPDEST PUSH1 0x0 DUP1 REVERT JUMPDEST PUSH1 0x0 DUP1 REVERT JUMPDEST PUSH32 0x4E487B7100000000000000000000000000000000000000000000000000000000 PUSH1 0x0 MSTORE PUSH1 0x41 PUSH1 0x4 MSTORE PUSH1 0x24 PUSH1 0x0 REVERT JUMPDEST PUSH2 0x25E4 DUP3 PUSH2 0x21E3 JUMP JUMPDEST DUP2 ADD DUP2 DUP2 LT PUSH8 0xFFFFFFFFFFFFFFFF DUP3 GT OR ISZERO PUSH2 0x2603 JUMPI PUSH2 0x2602 PUSH2 0x25AC JUMP JUMPDEST JUMPDEST DUP1 PUSH1 0x40 MSTORE POP POP POP JUMP JUMPDEST PUSH1 0x0 PUSH2 0x2616 PUSH2 0x202B JUMP JUMPDEST SWAP1 POP PUSH2 0x2622 DUP3 DUP3 PUSH2 0x25DB JUMP JUMPDEST SWAP2 SWAP1 POP JUMP JUMPDEST PUSH1 0x0 PUSH8 0xFFFFFFFFFFFFFFFF DUP3 GT ISZERO PUSH2 0x2642 JUMPI PUSH2 0x2641 PUSH2 0x25AC JUMP JUMPDEST JUMPDEST PUSH2 0x264B DUP3 PUSH2 0x21E3 JUMP JUMPDEST SWAP1 POP PUSH1 0x20 DUP2 ADD SWAP1 POP SWAP2 SWAP1 POP JUMP JUMPDEST DUP3 DUP2 DUP4 CALLDATACOPY PUSH1 0x0 DUP4 DUP4 ADD MSTORE POP POP POP JUMP JUMPDEST PUSH1 0x0 PUSH2 0x267A PUSH2 0x2675 DUP5 PUSH2 0x2627 JUMP JUMPDEST PUSH2 0x260C JUMP JUMPDEST SWAP1 POP DUP3 DUP2 MSTORE PUSH1 0x20 DUP2 ADD DUP5 DUP5 DUP5 ADD GT ISZERO PUSH2 0x2696 JUMPI PUSH2 0x2695 PUSH2 0x25A7 JUMP JUMPDEST JUMPDEST PUSH2 0x26A1 DUP5 DUP3 DUP6 PUSH2 0x2658 JUMP JUMPDEST POP SWAP4 SWAP3 POP POP POP JUMP JUMPDEST PUSH1 0x0 DUP3 PUSH1 0x1F DUP4 ADD SLT PUSH2 0x26BE JUMPI PUSH2 0x26BD PUSH2 0x25A2 JUMP JUMPDEST JUMPDEST DUP2 CALLDATALOAD PUSH2 0x26CE DUP5 DUP3 PUSH1 0x20 DUP7 ADD PUSH2 0x2667 JUMP JUMPDEST SWAP2 POP POP SWAP3 SWAP2 POP POP JUMP JUMPDEST PUSH1 0x0 DUP1 PUSH1 0x0 DUP1 PUSH1 0x0 PUSH1 0xA0 DUP7 DUP9 SUB SLT ISZERO PUSH2 0x26F3 JUMPI PUSH2 0x26F2 PUSH2 0x2035 JUMP JUMPDEST JUMPDEST PUSH1 0x0 PUSH2 0x2701 DUP9 DUP3 DUP10 ADD PUSH2 0x213F JUMP JUMPDEST SWAP6 POP POP PUSH1 0x20 PUSH2 0x2712 DUP9 DUP3 DUP10 ADD PUSH2 0x213F JUMP JUMPDEST SWAP5 POP POP PUSH1 0x40 PUSH2 0x2723 DUP9 DUP3 DUP10 ADD PUSH2 0x258D JUMP JUMPDEST SWAP4 POP POP PUSH1 0x60 DUP7 ADD CALLDATALOAD PUSH8 0xFFFFFFFFFFFFFFFF DUP2 GT ISZERO PUSH2 0x2744 JUMPI PUSH2 0x2743 PUSH2 0x203A JUMP JUMPDEST JUMPDEST PUSH2 0x2750 DUP9 DUP3 DUP10 ADD PUSH2 0x26A9 JUMP JUMPDEST SWAP3 POP POP PUSH1 0x80 DUP7 ADD CALLDATALOAD PUSH8 0xFFFFFFFFFFFFFFFF DUP2 GT ISZERO PUSH2 0x2771 JUMPI PUSH2 0x2770 PUSH2 0x203A JUMP JUMPDEST JUMPDEST PUSH2 0x277D DUP9 DUP3 DUP10 ADD PUSH2 0x26A9 JUMP JUMPDEST SWAP2 POP POP SWAP3 SWAP6 POP SWAP3 SWAP6 SWAP1 SWAP4 POP JUMP JUMPDEST PUSH1 0x0 PUSH1 0xE0 DUP4 ADD PUSH1 0x0 DUP4 ADD MLOAD PUSH2 0x27A2 PUSH1 0x0 DUP7 ADD DUP3 PUSH2 0x23A4 JUMP JUMPDEST POP PUSH1 0x20 DUP4 ADD MLOAD PUSH2 0x27B5 PUSH1 0x20 DUP7 ADD DUP3 PUSH2 0x23B3 JUMP JUMPDEST POP PUSH1 0x40 DUP4 ADD MLOAD PUSH2 0x27C8 PUSH1 0x40 DUP7 ADD DUP3 PUSH2 0x23B3 JUMP JUMPDEST POP PUSH1 0x60 DUP4 ADD MLOAD PUSH2 0x27DB PUSH1 0x60 DUP7 ADD DUP3 PUSH2 0x23C2 JUMP JUMPDEST POP PUSH1 0x80 DUP4 ADD MLOAD DUP5 DUP3 SUB PUSH1 0x80 DUP7 ADD MSTORE PUSH2 0x27F3 DUP3 DUP3 PUSH2 0x23E2 JUMP JUMPDEST SWAP2 POP POP PUSH1 0xA0 DUP4 ADD MLOAD DUP5 DUP3 SUB PUSH1 0xA0 DUP7 ADD MSTORE PUSH2 0x280D DUP3 DUP3 PUSH2 0x23E2 JUMP JUMPDEST SWAP2 POP POP PUSH1 0xC0 DUP4 ADD MLOAD PUSH2 0x2822 PUSH1 0xC0 DUP7 ADD DUP3 PUSH2 0x23A4 JUMP JUMPDEST POP DUP1 SWAP2 POP POP SWAP3 SWAP2 POP POP JUMP JUMPDEST PUSH1 0x0 PUSH1 0x20 DUP3 ADD SWAP1 POP DUP2 DUP2 SUB PUSH1 0x0 DUP4 ADD MSTORE PUSH2 0x2847 DUP2 DUP5 PUSH2 0x278A JUMP JUMPDEST SWAP1 POP SWAP3 SWAP2 POP POP JUMP JUMPDEST PUSH32 0x54686520706F6C6C206D75737420626520696E20616E20616374697665207374 PUSH1 0x0 DUP3 ADD MSTORE PUSH32 0x6174652E00000000000000000000000000000000000000000000000000000000 PUSH1 0x20 DUP3 ADD MSTORE POP JUMP JUMPDEST PUSH1 0x0 PUSH2 0x28AB PUSH1 0x24 DUP4 PUSH2 0x219F JUMP JUMPDEST SWAP2 POP PUSH2 0x28B6 DUP3 PUSH2 0x284F JUMP JUMPDEST PUSH1 0x40 DUP3 ADD SWAP1 POP SWAP2 SWAP1 POP JUMP JUMPDEST PUSH1 0x0 PUSH1 0x20 DUP3 ADD SWAP1 POP DUP2 DUP2 SUB PUSH1 0x0 DUP4 ADD MSTORE PUSH2 0x28DA DUP2 PUSH2 0x289E JUMP JUMPDEST SWAP1 POP SWAP2 SWAP1 POP JUMP JUMPDEST PUSH32 0x5573657220646964206E6F7420766F7465207965740000000000000000000000 PUSH1 0x0 DUP3 ADD MSTORE POP JUMP JUMPDEST PUSH1 0x0 PUSH2 0x2917 PUSH1 0x15 DUP4 PUSH2 0x219F JUMP JUMPDEST SWAP2 POP PUSH2 0x2922 DUP3 PUSH2 0x28E1 JUMP JUMPDEST PUSH1 0x20 DUP3 ADD SWAP1 POP SWAP2 SWAP1 POP JUMP JUMPDEST PUSH1 0x0 PUSH1 0x20 DUP3 ADD SWAP1 POP DUP2 DUP2 SUB PUSH1 0x0 DUP4 ADD MSTORE PUSH2 0x2946 DUP2 PUSH2 0x290A JUMP JUMPDEST SWAP1 POP SWAP2 SWAP1 POP JUMP JUMPDEST PUSH32 0x4E487B7100000000000000000000000000000000000000000000000000000000 PUSH1 0x0 MSTORE PUSH1 0x32 PUSH1 0x4 MSTORE PUSH1 0x24 PUSH1 0x0 REVERT JUMPDEST PUSH32 0x4E487B7100000000000000000000000000000000000000000000000000000000 PUSH1 0x0 MSTORE PUSH1 0x11 PUSH1 0x4 MSTORE PUSH1 0x24 PUSH1 0x0 REVERT JUMPDEST PUSH1 0x0 PUSH2 0x29B6 DUP3 PUSH2 0x203F JUMP JUMPDEST SWAP2 POP PUSH2 0x29C1 DUP4 PUSH2 0x203F JUMP JUMPDEST SWAP3 POP DUP3 DUP3 LT ISZERO PUSH2 0x29D4 JUMPI PUSH2 0x29D3 PUSH2 0x297C JUMP JUMPDEST JUMPDEST DUP3 DUP3 SUB SWAP1 POP SWAP3 SWAP2 POP POP JUMP JUMPDEST PUSH1 0x0 PUSH2 0x29EA DUP3 PUSH2 0x203F JUMP JUMPDEST SWAP2 POP PUSH2 0x29F5 DUP4 PUSH2 0x203F JUMP JUMPDEST SWAP3 POP DUP3 PUSH32 0xFFFFFFFFFFFFFFFFFFFFFFFFFFFFFFFFFFFFFFFFFFFFFFFFFFFFFFFFFFFFFFFF SUB DUP3 GT ISZERO PUSH2 0x2A2A JUMPI PUSH2 0x2A29 PUSH2 0x297C JUMP JUMPDEST JUMPDEST DUP3 DUP3 ADD SWAP1 POP SWAP3 SWAP2 POP POP JUMP JUMPDEST PUSH1 0x0 PUSH2 0x2A40 DUP3 PUSH2 0x203F JUMP JUMPDEST SWAP2 POP PUSH32 0xFFFFFFFFFFFFFFFFFFFFFFFFFFFFFFFFFFFFFFFFFFFFFFFFFFFFFFFFFFFFFFFF DUP3 EQ ISZERO PUSH2 0x2A73 JUMPI PUSH2 0x2A72 PUSH2 0x297C JUMP JUMPDEST JUMPDEST PUSH1 0x1 DUP3 ADD SWAP1 POP SWAP2 SWAP1 POP JUMP JUMPDEST PUSH32 0x5573657220646964206E6F7420766F746520666F722074686973206F7074696F PUSH1 0x0 DUP3 ADD MSTORE PUSH32 0x6E207965742E0000000000000000000000000000000000000000000000000000 PUSH1 0x20 DUP3 ADD MSTORE POP JUMP JUMPDEST PUSH1 0x0 PUSH2 0x2ADA PUSH1 0x26 DUP4 PUSH2 0x219F JUMP JUMPDEST SWAP2 POP PUSH2 0x2AE5 DUP3 PUSH2 0x2A7E JUMP JUMPDEST PUSH1 0x40 DUP3 ADD SWAP1 POP SWAP2 SWAP1 POP JUMP JUMPDEST PUSH1 0x0 PUSH1 0x20 DUP3 ADD SWAP1 POP DUP2 DUP2 SUB PUSH1 0x0 DUP4 ADD MSTORE PUSH2 0x2B09 DUP2 PUSH2 0x2ACD JUMP JUMPDEST SWAP1 POP SWAP2 SWAP1 POP JUMP JUMPDEST PUSH1 0x0 PUSH2 0x2B1B DUP3 PUSH2 0x203F JUMP JUMPDEST SWAP2 POP PUSH1 0x0 DUP3 EQ ISZERO PUSH2 0x2B2F JUMPI PUSH2 0x2B2E PUSH2 0x297C JUMP JUMPDEST JUMPDEST PUSH1 0x1 DUP3 SUB SWAP1 POP SWAP2 SWAP1 POP JUMP JUMPDEST PUSH32 0x556E61626C6520746F2072656D6F766520766F74650000000000000000000000 PUSH1 0x0 DUP3 ADD MSTORE POP JUMP JUMPDEST PUSH1 0x0 PUSH2 0x2B70 PUSH1 0x15 DUP4 PUSH2 0x219F JUMP JUMPDEST SWAP2 POP PUSH2 0x2B7B DUP3 PUSH2 0x2B3A JUMP JUMPDEST PUSH1 0x20 DUP3 ADD SWAP1 POP SWAP2 SWAP1 POP JUMP JUMPDEST PUSH1 0x0 PUSH1 0x20 DUP3 ADD SWAP1 POP DUP2 DUP2 SUB PUSH1 0x0 DUP4 ADD MSTORE PUSH2 0x2B9F DUP2 PUSH2 0x2B63 JUMP JUMPDEST SWAP1 POP SWAP2 SWAP1 POP JUMP JUMPDEST PUSH32 0x4E487B7100000000000000000000000000000000000000000000000000000000 PUSH1 0x0 MSTORE PUSH1 0x22 PUSH1 0x4 MSTORE PUSH1 0x24 PUSH1 0x0 REVERT JUMPDEST PUSH1 0x0 PUSH1 0x2 DUP3 DIV SWAP1 POP PUSH1 0x1 DUP3 AND DUP1 PUSH2 0x2BED JUMPI PUSH1 0x7F DUP3 AND SWAP2 POP JUMPDEST PUSH1 0x20 DUP3 LT DUP2 EQ ISZERO PUSH2 0x2C01 JUMPI PUSH2 0x2C00 PUSH2 0x2BA6 JUMP JUMPDEST JUMPDEST POP SWAP2 SWAP1 POP JUMP JUMPDEST PUSH32 0x4F6E6C79206F776E6572732063616E2063616C6C20746869732066756E637469 PUSH1 0x0 DUP3 ADD MSTORE PUSH32 0x6F6E000000000000000000000000000000000000000000000000000000000000 PUSH1 0x20 DUP3 ADD MSTORE POP JUMP JUMPDEST PUSH1 0x0 PUSH2 0x2C63 PUSH1 0x22 DUP4 PUSH2 0x219F JUMP JUMPDEST SWAP2 POP PUSH2 0x2C6E DUP3 PUSH2 0x2C07 JUMP JUMPDEST PUSH1 0x40 DUP3 ADD SWAP1 POP SWAP2 SWAP1 POP JUMP JUMPDEST PUSH1 0x0 PUSH1 0x20 DUP3 ADD SWAP1 POP DUP2 DUP2 SUB PUSH1 0x0 DUP4 ADD MSTORE PUSH2 0x2C92 DUP2 PUSH2 0x2C56 JUMP JUMPDEST SWAP1 POP SWAP2 SWAP1 POP JUMP JUMPDEST PUSH32 0x506C656173652070726F7669646520776869636820766F74652073686F756C64 PUSH1 0x0 DUP3 ADD MSTORE PUSH32 0x2062652072656D6F766564000000000000000000000000000000000000000000 PUSH1 0x20 DUP3 ADD MSTORE POP JUMP JUMPDEST PUSH1 0x0 PUSH2 0x2CF5 PUSH1 0x2B DUP4 PUSH2 0x219F JUMP JUMPDEST SWAP2 POP PUSH2 0x2D00 DUP3 PUSH2 0x2C99 JUMP JUMPDEST PUSH1 0x40 DUP3 ADD SWAP1 POP SWAP2 SWAP1 POP JUMP JUMPDEST PUSH1 0x0 PUSH1 0x20 DUP3 ADD SWAP1 POP DUP2 DUP2 SUB PUSH1 0x0 DUP4 ADD MSTORE PUSH2 0x2D24 DUP2 PUSH2 0x2CE8 JUMP JUMPDEST SWAP1 POP SWAP2 SWAP1 POP JUMP JUMPDEST PUSH32 0x5573657220616C726561647920766F74656420666F722074686973206F707469 PUSH1 0x0 DUP3 ADD MSTORE PUSH32 0x6F6E000000000000000000000000000000000000000000000000000000000000 PUSH1 0x20 DUP3 ADD MSTORE POP JUMP JUMPDEST PUSH1 0x0 PUSH2 0x2D87 PUSH1 0x22 DUP4 PUSH2 0x219F JUMP JUMPDEST SWAP2 POP PUSH2 0x2D92 DUP3 PUSH2 0x2D2B JUMP JUMPDEST PUSH1 0x40 DUP3 ADD SWAP1 POP SWAP2 SWAP1 POP JUMP JUMPDEST PUSH1 0x0 PUSH1 0x20 DUP3 ADD SWAP1 POP DUP2 DUP2 SUB PUSH1 0x0 DUP4 ADD MSTORE PUSH2 0x2DB6 DUP2 PUSH2 0x2D7A JUMP JUMPDEST SWAP1 POP SWAP2 SWAP1 POP JUMP JUMPDEST PUSH32 0x4F7074696F6E206973206E6F7420616374697665210000000000000000000000 PUSH1 0x0 DUP3 ADD MSTORE POP JUMP JUMPDEST PUSH1 0x0 PUSH2 0x2DF3 PUSH1 0x15 DUP4 PUSH2 0x219F JUMP JUMPDEST SWAP2 POP PUSH2 0x2DFE DUP3 PUSH2 0x2DBD JUMP JUMPDEST PUSH1 0x20 DUP3 ADD SWAP1 POP SWAP2 SWAP1 POP JUMP JUMPDEST PUSH1 0x0 PUSH1 0x20 DUP3 ADD SWAP1 POP DUP2 DUP2 SUB PUSH1 0x0 DUP4 ADD MSTORE PUSH2 0x2E22 DUP2 PUSH2 0x2DE6 JUMP JUMPDEST SWAP1 POP SWAP2 SWAP1 POP JUMP JUMPDEST PUSH32 0x4E6F7420666F756E640000000000000000000000000000000000000000000000 PUSH1 0x0 DUP3 ADD MSTORE POP JUMP JUMPDEST PUSH1 0x0 PUSH2 0x2E5F PUSH1 0x9 DUP4 PUSH2 0x219F JUMP JUMPDEST SWAP2 POP PUSH2 0x2E6A DUP3 PUSH2 0x2E29 JUMP JUMPDEST PUSH1 0x20 DUP3 ADD SWAP1 POP SWAP2 SWAP1 POP JUMP JUMPDEST PUSH1 0x0 PUSH1 0x20 DUP3 ADD SWAP1 POP DUP2 DUP2 SUB PUSH1 0x0 DUP4 ADD MSTORE PUSH2 0x2E8E DUP2 PUSH2 0x2E52 JUMP JUMPDEST SWAP1 POP SWAP2 SWAP1 POP JUMP JUMPDEST PUSH1 0x0 PUSH1 0x60 DUP3 ADD SWAP1 POP PUSH2 0x2EAA PUSH1 0x0 DUP4 ADD DUP7 PUSH2 0x2318 JUMP JUMPDEST PUSH2 0x2EB7 PUSH1 0x20 DUP4 ADD DUP6 PUSH2 0x2318 JUMP JUMPDEST DUP2 DUP2 SUB PUSH1 0x40 DUP4 ADD MSTORE PUSH2 0x2EC9 DUP2 DUP5 PUSH2 0x21F4 JUMP JUMPDEST SWAP1 POP SWAP5 SWAP4 POP POP POP POP JUMP JUMPDEST PUSH32 0x5374617465206E6F74206368616E6765642E204E657720737461746520697320 PUSH1 0x0 DUP3 ADD MSTORE PUSH32 0x7468652073616D65206173206F6C642073746174652100000000000000000000 PUSH1 0x20 DUP3 ADD MSTORE POP JUMP JUMPDEST PUSH1 0x0 PUSH2 0x2F2F PUSH1 0x36 DUP4 PUSH2 0x219F JUMP JUMPDEST SWAP2 POP PUSH2 0x2F3A DUP3 PUSH2 0x2ED3 JUMP JUMPDEST PUSH1 0x40 DUP3 ADD SWAP1 POP SWAP2 SWAP1 POP JUMP JUMPDEST PUSH1 0x0 PUSH1 0x20 DUP3 ADD SWAP1 POP DUP2 DUP2 SUB PUSH1 0x0 DUP4 ADD MSTORE PUSH2 0x2F5E DUP2 PUSH2 0x2F22 JUMP JUMPDEST SWAP1 POP SWAP2 SWAP1 POP JUMP INVALID LOG2 PUSH5 0x6970667358 0x22 SLT KECCAK256 PC 0xAA 0xD7 PUSH22 0x8E7D25AE698E72EBD42BFBF39961975B12C969E8C695 PUSH12 0xD0874E01EB64736F6C634300 ADDMOD 0xC STOP CALLER PUSH1 0x80 PUSH1 0x40 MSTORE CALLVALUE DUP1 ISZERO PUSH2 0x10 JUMPI PUSH1 0x0 DUP1 REVERT JUMPDEST POP PUSH2 0xD38 DUP1 PUSH2 0x20 PUSH1 0x0 CODECOPY PUSH1 0x0 RETURN INVALID PUSH1 0x80 PUSH1 0x40 MSTORE CALLVALUE DUP1 ISZERO PUSH2 0x10 JUMPI PUSH1 0x0 DUP1 REVERT JUMPDEST POP PUSH1 0x4 CALLDATASIZE LT PUSH2 0x4C JUMPI PUSH1 0x0 CALLDATALOAD PUSH1 0xE0 SHR DUP1 PUSH4 0x2C6E7598 EQ PUSH2 0x51 JUMPI DUP1 PUSH4 0x69F9AD2F EQ PUSH2 0x81 JUMPI DUP1 PUSH4 0xEFC6C18C EQ PUSH2 0xB1 JUMPI DUP1 PUSH4 0xFD3BAD52 EQ PUSH2 0xCF JUMPI JUMPDEST PUSH1 0x0 DUP1 REVERT JUMPDEST PUSH2 0x6B PUSH1 0x4 DUP1 CALLDATASIZE SUB DUP2 ADD SWAP1 PUSH2 0x66 SWAP2 SWAP1 PUSH2 0x4DF JUMP JUMPDEST PUSH2 0xFF JUMP JUMPDEST PUSH1 0x40 MLOAD PUSH2 0x78 SWAP2 SWAP1 PUSH2 0x5A5 JUMP JUMPDEST PUSH1 0x40 MLOAD DUP1 SWAP2 SUB SWAP1 RETURN JUMPDEST PUSH2 0x9B PUSH1 0x4 DUP1 CALLDATASIZE SUB DUP2 ADD SWAP1 PUSH2 0x96 SWAP2 SWAP1 PUSH2 0x61F JUMP JUMPDEST PUSH2 0x3A4 JUMP JUMPDEST PUSH1 0x40 MLOAD PUSH2 0xA8 SWAP2 SWAP1 PUSH2 0x65B JUMP JUMPDEST PUSH1 0x40 MLOAD DUP1 SWAP2 SUB SWAP1 RETURN JUMPDEST PUSH2 0xB9 PUSH2 0x3EA JUMP JUMPDEST PUSH1 0x40 MLOAD PUSH2 0xC6 SWAP2 SWAP1 PUSH2 0x68F JUMP JUMPDEST PUSH1 0x40 MLOAD DUP1 SWAP2 SUB SWAP1 RETURN JUMPDEST PUSH2 0xE9 PUSH1 0x4 DUP1 CALLDATASIZE SUB DUP2 ADD SWAP1 PUSH2 0xE4 SWAP2 SWAP1 PUSH2 0x6E0 JUMP JUMPDEST PUSH2 0x43E JUMP JUMPDEST PUSH1 0x40 MLOAD PUSH2 0xF6 SWAP2 SWAP1 PUSH2 0x72F JUMP JUMPDEST PUSH1 0x40 MLOAD DUP1 SWAP2 SUB SWAP1 RETURN JUMPDEST PUSH1 0x60 PUSH1 0x0 PUSH1 0x28 PUSH8 0xFFFFFFFFFFFFFFFF DUP2 GT ISZERO PUSH2 0x11E JUMPI PUSH2 0x11D PUSH2 0x74A JUMP JUMPDEST JUMPDEST PUSH1 0x40 MLOAD SWAP1 DUP1 DUP3 MSTORE DUP1 PUSH1 0x1F ADD PUSH1 0x1F NOT AND PUSH1 0x20 ADD DUP3 ADD PUSH1 0x40 MSTORE DUP1 ISZERO PUSH2 0x150 JUMPI DUP2 PUSH1 0x20 ADD PUSH1 0x1 DUP3 MUL DUP1 CALLDATASIZE DUP4 CALLDATACOPY DUP1 DUP3 ADD SWAP2 POP POP SWAP1 POP JUMPDEST POP SWAP1 POP PUSH1 0x0 JUMPDEST PUSH1 0x14 DUP2 LT ISZERO PUSH2 0x39A JUMPI PUSH1 0x0 DUP2 PUSH1 0x13 PUSH2 0x16E SWAP2 SWAP1 PUSH2 0x7A8 JUMP JUMPDEST PUSH1 0x8 PUSH2 0x17A SWAP2 SWAP1 PUSH2 0x7DC JUMP JUMPDEST PUSH1 0x2 PUSH2 0x186 SWAP2 SWAP1 PUSH2 0x969 JUMP JUMPDEST DUP6 PUSH20 0xFFFFFFFFFFFFFFFFFFFFFFFFFFFFFFFFFFFFFFFF AND PUSH2 0x1A7 SWAP2 SWAP1 PUSH2 0x9E3 JUMP JUMPDEST PUSH1 0xF8 SHL SWAP1 POP PUSH1 0x0 PUSH1 0x10 DUP3 PUSH1 0xF8 SHR PUSH2 0x1BE SWAP2 SWAP1 PUSH2 0xA21 JUMP JUMPDEST PUSH1 0xF8 SHL SWAP1 POP PUSH1 0x0 DUP2 PUSH1 0xF8 SHR PUSH1 0x10 PUSH2 0x1D5 SWAP2 SWAP1 PUSH2 0xA52 JUMP JUMPDEST DUP4 PUSH1 0xF8 SHR PUSH2 0x1E3 SWAP2 SWAP1 PUSH2 0xA8D JUMP JUMPDEST PUSH1 0xF8 SHL SWAP1 POP ADDRESS PUSH20 0xFFFFFFFFFFFFFFFFFFFFFFFFFFFFFFFFFFFFFFFF AND PUSH4 0x69F9AD2F DUP4 PUSH1 0x40 MLOAD DUP3 PUSH4 0xFFFFFFFF AND PUSH1 0xE0 SHL DUP2 MSTORE PUSH1 0x4 ADD PUSH2 0x221 SWAP2 SWAP1 PUSH2 0x65B JUMP JUMPDEST PUSH1 0x20 PUSH1 0x40 MLOAD DUP1 DUP4 SUB DUP2 DUP7 GAS STATICCALL ISZERO DUP1 ISZERO PUSH2 0x23E JUMPI RETURNDATASIZE PUSH1 0x0 DUP1 RETURNDATACOPY RETURNDATASIZE PUSH1 0x0 REVERT JUMPDEST POP POP POP POP PUSH1 0x40 MLOAD RETURNDATASIZE PUSH1 0x1F NOT PUSH1 0x1F DUP3 ADD AND DUP3 ADD DUP1 PUSH1 0x40 MSTORE POP DUP2 ADD SWAP1 PUSH2 0x262 SWAP2 SWAP1 PUSH2 0xAD6 JUMP JUMPDEST DUP6 DUP6 PUSH1 0x2 PUSH2 0x270 SWAP2 SWAP1 PUSH2 0x7DC JUMP JUMPDEST DUP2 MLOAD DUP2 LT PUSH2 0x281 JUMPI PUSH2 0x280 PUSH2 0xB03 JUMP JUMPDEST JUMPDEST PUSH1 0x20 ADD ADD SWAP1 PUSH31 0xFFFFFFFFFFFFFFFFFFFFFFFFFFFFFFFFFFFFFFFFFFFFFFFFFFFFFFFFFFFFFF NOT AND SWAP1 DUP2 PUSH1 0x0 BYTE SWAP1 MSTORE8 POP ADDRESS PUSH20 0xFFFFFFFFFFFFFFFFFFFFFFFFFFFFFFFFFFFFFFFF AND PUSH4 0x69F9AD2F DUP3 PUSH1 0x40 MLOAD DUP3 PUSH4 0xFFFFFFFF AND PUSH1 0xE0 SHL DUP2 MSTORE PUSH1 0x4 ADD PUSH2 0x2E9 SWAP2 SWAP1 PUSH2 0x65B JUMP JUMPDEST PUSH1 0x20 PUSH1 0x40 MLOAD DUP1 DUP4 SUB DUP2 DUP7 GAS STATICCALL ISZERO DUP1 ISZERO PUSH2 0x306 JUMPI RETURNDATASIZE PUSH1 0x0 DUP1 RETURNDATACOPY RETURNDATASIZE PUSH1 0x0 REVERT JUMPDEST POP POP POP POP PUSH1 0x40 MLOAD RETURNDATASIZE PUSH1 0x1F NOT PUSH1 0x1F DUP3 ADD AND DUP3 ADD DUP1 PUSH1 0x40 MSTORE POP DUP2 ADD SWAP1 PUSH2 0x32A SWAP2 SWAP1 PUSH2 0xAD6 JUMP JUMPDEST DUP6 PUSH1 0x1 DUP7 PUSH1 0x2 PUSH2 0x33A SWAP2 SWAP1 PUSH2 0x7DC JUMP JUMPDEST PUSH2 0x344 SWAP2 SWAP1 PUSH2 0xB32 JUMP JUMPDEST DUP2 MLOAD DUP2 LT PUSH2 0x355 JUMPI PUSH2 0x354 PUSH2 0xB03 JUMP JUMPDEST JUMPDEST PUSH1 0x20 ADD ADD SWAP1 PUSH31 0xFFFFFFFFFFFFFFFFFFFFFFFFFFFFFFFFFFFFFFFFFFFFFFFFFFFFFFFFFFFFFF NOT AND SWAP1 DUP2 PUSH1 0x0 BYTE SWAP1 MSTORE8 POP POP POP POP DUP1 DUP1 PUSH2 0x392 SWAP1 PUSH2 0xB88 JUMP JUMPDEST SWAP2 POP POP PUSH2 0x156 JUMP JUMPDEST POP DUP1 SWAP2 POP POP SWAP2 SWAP1 POP JUMP JUMPDEST PUSH1 0x0 PUSH1 0xA DUP3 PUSH1 0xF8 SHR PUSH1 0xFF AND LT ISZERO PUSH2 0x3CF JUMPI PUSH1 0x30 DUP3 PUSH1 0xF8 SHR PUSH2 0x3C5 SWAP2 SWAP1 PUSH2 0xBD1 JUMP JUMPDEST PUSH1 0xF8 SHL SWAP1 POP PUSH2 0x3E5 JUMP JUMPDEST PUSH1 0x57 DUP3 PUSH1 0xF8 SHR PUSH2 0x3DF SWAP2 SWAP1 PUSH2 0xBD1 JUMP JUMPDEST PUSH1 0xF8 SHL SWAP1 POP JUMPDEST SWAP2 SWAP1 POP JUMP JUMPDEST PUSH1 0x0 DUP1 PUSH1 0x0 SWAP1 POP PUSH1 0x0 DUP2 TIMESTAMP DIFFICULTY COINBASE PUSH1 0x40 MLOAD PUSH1 0x20 ADD PUSH2 0x40A SWAP5 SWAP4 SWAP3 SWAP2 SWAP1 PUSH2 0xC83 JUMP JUMPDEST PUSH1 0x40 MLOAD PUSH1 0x20 DUP2 DUP4 SUB SUB DUP2 MSTORE SWAP1 PUSH1 0x40 MSTORE DUP1 MLOAD SWAP1 PUSH1 0x20 ADD KECCAK256 PUSH1 0x0 SHR SWAP1 POP DUP2 DUP1 PUSH2 0x430 SWAP1 PUSH2 0xB88 JUMP JUMPDEST SWAP3 POP POP DUP1 PUSH1 0x0 SHL SWAP3 POP POP POP SWAP1 JUMP JUMPDEST PUSH1 0x0 DUP1 DUP3 DUP5 PUSH2 0x44D SWAP2 SWAP1 PUSH2 0x9E3 JUMP JUMPDEST SWAP1 POP PUSH1 0x0 DUP4 DUP6 PUSH2 0x45D SWAP2 SWAP1 PUSH2 0xCD1 JUMP JUMPDEST EQ PUSH2 0x472 JUMPI PUSH1 0x1 DUP2 PUSH2 0x46F SWAP2 SWAP1 PUSH2 0xB32 JUMP JUMPDEST SWAP1 POP JUMPDEST DUP1 SWAP2 POP POP SWAP3 SWAP2 POP POP JUMP JUMPDEST PUSH1 0x0 DUP1 REVERT JUMPDEST PUSH1 0x0 PUSH20 0xFFFFFFFFFFFFFFFFFFFFFFFFFFFFFFFFFFFFFFFF DUP3 AND SWAP1 POP SWAP2 SWAP1 POP JUMP JUMPDEST PUSH1 0x0 PUSH2 0x4AC DUP3 PUSH2 0x481 JUMP JUMPDEST SWAP1 POP SWAP2 SWAP1 POP JUMP JUMPDEST PUSH2 0x4BC DUP2 PUSH2 0x4A1 JUMP JUMPDEST DUP2 EQ PUSH2 0x4C7 JUMPI PUSH1 0x0 DUP1 REVERT JUMPDEST POP JUMP JUMPDEST PUSH1 0x0 DUP2 CALLDATALOAD SWAP1 POP PUSH2 0x4D9 DUP2 PUSH2 0x4B3 JUMP JUMPDEST SWAP3 SWAP2 POP POP JUMP JUMPDEST PUSH1 0x0 PUSH1 0x20 DUP3 DUP5 SUB SLT ISZERO PUSH2 0x4F5 JUMPI PUSH2 0x4F4 PUSH2 0x47C JUMP JUMPDEST JUMPDEST PUSH1 0x0 PUSH2 0x503 DUP5 DUP3 DUP6 ADD PUSH2 0x4CA JUMP JUMPDEST SWAP2 POP POP SWAP3 SWAP2 POP POP JUMP JUMPDEST PUSH1 0x0 DUP2 MLOAD SWAP1 POP SWAP2 SWAP1 POP JUMP JUMPDEST PUSH1 0x0 DUP3 DUP3 MSTORE PUSH1 0x20 DUP3 ADD SWAP1 POP SWAP3 SWAP2 POP POP JUMP JUMPDEST PUSH1 0x0 JUMPDEST DUP4 DUP2 LT ISZERO PUSH2 0x546 JUMPI DUP1 DUP3 ADD MLOAD DUP2 DUP5 ADD MSTORE PUSH1 0x20 DUP2 ADD SWAP1 POP PUSH2 0x52B JUMP JUMPDEST DUP4 DUP2 GT ISZERO PUSH2 0x555 JUMPI PUSH1 0x0 DUP5 DUP5 ADD MSTORE JUMPDEST POP POP POP POP JUMP JUMPDEST PUSH1 0x0 PUSH1 0x1F NOT PUSH1 0x1F DUP4 ADD AND SWAP1 POP SWAP2 SWAP1 POP JUMP JUMPDEST PUSH1 0x0 PUSH2 0x577 DUP3 PUSH2 0x50C JUMP JUMPDEST PUSH2 0x581 DUP2 DUP6 PUSH2 0x517 JUMP JUMPDEST SWAP4 POP PUSH2 0x591 DUP2 DUP6 PUSH1 0x20 DUP7 ADD PUSH2 0x528 JUMP JUMPDEST PUSH2 0x59A DUP2 PUSH2 0x55B JUMP JUMPDEST DUP5 ADD SWAP2 POP POP SWAP3 SWAP2 POP POP JUMP JUMPDEST PUSH1 0x0 PUSH1 0x20 DUP3 ADD SWAP1 POP DUP2 DUP2 SUB PUSH1 0x0 DUP4 ADD MSTORE PUSH2 0x5BF DUP2 DUP5 PUSH2 0x56C JUMP JUMPDEST SWAP1 POP SWAP3 SWAP2 POP POP JUMP JUMPDEST PUSH1 0x0 PUSH32 0xFF00000000000000000000000000000000000000000000000000000000000000 DUP3 AND SWAP1 POP SWAP2 SWAP1 POP JUMP JUMPDEST PUSH2 0x5FC DUP2 PUSH2 0x5C7 JUMP JUMPDEST DUP2 EQ PUSH2 0x607 JUMPI PUSH1 0x0 DUP1 REVERT JUMPDEST POP JUMP JUMPDEST PUSH1 0x0 DUP2 CALLDATALOAD SWAP1 POP PUSH2 0x619 DUP2 PUSH2 0x5F3 JUMP JUMPDEST SWAP3 SWAP2 POP POP JUMP JUMPDEST PUSH1 0x0 PUSH1 0x20 DUP3 DUP5 SUB SLT ISZERO PUSH2 0x635 JUMPI PUSH2 0x634 PUSH2 0x47C JUMP JUMPDEST JUMPDEST PUSH1 0x0 PUSH2 0x643 DUP5 DUP3 DUP6 ADD PUSH2 0x60A JUMP JUMPDEST SWAP2 POP POP SWAP3 SWAP2 POP POP JUMP JUMPDEST PUSH2 0x655 DUP2 PUSH2 0x5C7 JUMP JUMPDEST DUP3 MSTORE POP POP JUMP JUMPDEST PUSH1 0x0 PUSH1 0x20 DUP3 ADD SWAP1 POP PUSH2 0x670 PUSH1 0x0 DUP4 ADD DUP5 PUSH2 0x64C JUMP JUMPDEST SWAP3 SWAP2 POP POP JUMP JUMPDEST PUSH1 0x0 DUP2 SWAP1 POP SWAP2 SWAP1 POP JUMP JUMPDEST PUSH2 0x689 DUP2 PUSH2 0x676 JUMP JUMPDEST DUP3 MSTORE POP POP JUMP JUMPDEST PUSH1 0x0 PUSH1 0x20 DUP3 ADD SWAP1 POP PUSH2 0x6A4 PUSH1 0x0 DUP4 ADD DUP5 PUSH2 0x680 JUMP JUMPDEST SWAP3 SWAP2 POP POP JUMP JUMPDEST PUSH1 0x0 DUP2 SWAP1 POP SWAP2 SWAP1 POP JUMP JUMPDEST PUSH2 0x6BD DUP2 PUSH2 0x6AA JUMP JUMPDEST DUP2 EQ PUSH2 0x6C8 JUMPI PUSH1 0x0 DUP1 REVERT JUMPDEST POP JUMP JUMPDEST PUSH1 0x0 DUP2 CALLDATALOAD SWAP1 POP PUSH2 0x6DA DUP2 PUSH2 0x6B4 JUMP JUMPDEST SWAP3 SWAP2 POP POP JUMP JUMPDEST PUSH1 0x0 DUP1 PUSH1 0x40 DUP4 DUP6 SUB SLT ISZERO PUSH2 0x6F7 JUMPI PUSH2 0x6F6 PUSH2 0x47C JUMP JUMPDEST JUMPDEST PUSH1 0x0 PUSH2 0x705 DUP6 DUP3 DUP7 ADD PUSH2 0x6CB JUMP JUMPDEST SWAP3 POP POP PUSH1 0x20 PUSH2 0x716 DUP6 DUP3 DUP7 ADD PUSH2 0x6CB JUMP JUMPDEST SWAP2 POP POP SWAP3 POP SWAP3 SWAP1 POP JUMP JUMPDEST PUSH2 0x729 DUP2 PUSH2 0x6AA JUMP JUMPDEST DUP3 MSTORE POP POP JUMP JUMPDEST PUSH1 0x0 PUSH1 0x20 DUP3 ADD SWAP1 POP PUSH2 0x744 PUSH1 0x0 DUP4 ADD DUP5 PUSH2 0x720 JUMP JUMPDEST SWAP3 SWAP2 POP POP JUMP JUMPDEST PUSH32 0x4E487B7100000000000000000000000000000000000000000000000000000000 PUSH1 0x0 MSTORE PUSH1 0x41 PUSH1 0x4 MSTORE PUSH1 0x24 PUSH1 0x0 REVERT JUMPDEST PUSH32 0x4E487B7100000000000000000000000000000000000000000000000000000000 PUSH1 0x0 MSTORE PUSH1 0x11 PUSH1 0x4 MSTORE PUSH1 0x24 PUSH1 0x0 REVERT JUMPDEST PUSH1 0x0 PUSH2 0x7B3 DUP3 PUSH2 0x6AA JUMP JUMPDEST SWAP2 POP PUSH2 0x7BE DUP4 PUSH2 0x6AA JUMP JUMPDEST SWAP3 POP DUP3 DUP3 LT ISZERO PUSH2 0x7D1 JUMPI PUSH2 0x7D0 PUSH2 0x779 JUMP JUMPDEST JUMPDEST DUP3 DUP3 SUB SWAP1 POP SWAP3 SWAP2 POP POP JUMP JUMPDEST PUSH1 0x0 PUSH2 0x7E7 DUP3 PUSH2 0x6AA JUMP JUMPDEST SWAP2 POP PUSH2 0x7F2 DUP4 PUSH2 0x6AA JUMP JUMPDEST SWAP3 POP DUP2 PUSH32 0xFFFFFFFFFFFFFFFFFFFFFFFFFFFFFFFFFFFFFFFFFFFFFFFFFFFFFFFFFFFFFFFF DIV DUP4 GT DUP3 ISZERO ISZERO AND ISZERO PUSH2 0x82B JUMPI PUSH2 0x82A PUSH2 0x779 JUMP JUMPDEST JUMPDEST DUP3 DUP3 MUL SWAP1 POP SWAP3 SWAP2 POP POP JUMP JUMPDEST PUSH1 0x0 DUP2 PUSH1 0x1 SHR SWAP1 POP SWAP2 SWAP1 POP JUMP JUMPDEST PUSH1 0x0 DUP1 DUP3 SWAP2 POP DUP4 SWAP1 POP JUMPDEST PUSH1 0x1 DUP6 GT ISZERO PUSH2 0x88D JUMPI DUP1 DUP7 DIV DUP2 GT ISZERO PUSH2 0x869 JUMPI PUSH2 0x868 PUSH2 0x779 JUMP JUMPDEST JUMPDEST PUSH1 0x1 DUP6 AND ISZERO PUSH2 0x878 JUMPI DUP1 DUP3 MUL SWAP2 POP JUMPDEST DUP1 DUP2 MUL SWAP1 POP PUSH2 0x886 DUP6 PUSH2 0x836 JUMP JUMPDEST SWAP5 POP PUSH2 0x84D JUMP JUMPDEST SWAP5 POP SWAP5 SWAP3 POP POP POP JUMP JUMPDEST PUSH1 0x0 DUP3 PUSH2 0x8A6 JUMPI PUSH1 0x1 SWAP1 POP PUSH2 0x962 JUMP JUMPDEST DUP2 PUSH2 0x8B4 JUMPI PUSH1 0x0 SWAP1 POP PUSH2 0x962 JUMP JUMPDEST DUP2 PUSH1 0x1 DUP2 EQ PUSH2 0x8CA JUMPI PUSH1 0x2 DUP2 EQ PUSH2 0x8D4 JUMPI PUSH2 0x903 JUMP JUMPDEST PUSH1 0x1 SWAP2 POP POP PUSH2 0x962 JUMP JUMPDEST PUSH1 0xFF DUP5 GT ISZERO PUSH2 0x8E6 JUMPI PUSH2 0x8E5 PUSH2 0x779 JUMP JUMPDEST JUMPDEST DUP4 PUSH1 0x2 EXP SWAP2 POP DUP5 DUP3 GT ISZERO PUSH2 0x8FD JUMPI PUSH2 0x8FC PUSH2 0x779 JUMP JUMPDEST JUMPDEST POP PUSH2 0x962 JUMP JUMPDEST POP PUSH1 0x20 DUP4 LT PUSH2 0x133 DUP4 LT AND PUSH1 0x4E DUP5 LT PUSH1 0xB DUP5 LT AND OR ISZERO PUSH2 0x938 JUMPI DUP3 DUP3 EXP SWAP1 POP DUP4 DUP2 GT ISZERO PUSH2 0x933 JUMPI PUSH2 0x932 PUSH2 0x779 JUMP JUMPDEST JUMPDEST PUSH2 0x962 JUMP JUMPDEST PUSH2 0x945 DUP5 DUP5 DUP5 PUSH1 0x1 PUSH2 0x843 JUMP JUMPDEST SWAP3 POP SWAP1 POP DUP2 DUP5 DIV DUP2 GT ISZERO PUSH2 0x95C JUMPI PUSH2 0x95B PUSH2 0x779 JUMP JUMPDEST JUMPDEST DUP2 DUP2 MUL SWAP1 POP JUMPDEST SWAP4 SWAP3 POP POP POP JUMP JUMPDEST PUSH1 0x0 PUSH2 0x974 DUP3 PUSH2 0x6AA JUMP JUMPDEST SWAP2 POP PUSH2 0x97F DUP4 PUSH2 0x6AA JUMP JUMPDEST SWAP3 POP PUSH2 0x9AC PUSH32 0xFFFFFFFFFFFFFFFFFFFFFFFFFFFFFFFFFFFFFFFFFFFFFFFFFFFFFFFFFFFFFFFF DUP5 DUP5 PUSH2 0x896 JUMP JUMPDEST SWAP1 POP SWAP3 SWAP2 POP POP JUMP JUMPDEST PUSH32 0x4E487B7100000000000000000000000000000000000000000000000000000000 PUSH1 0x0 MSTORE PUSH1 0x12 PUSH1 0x4 MSTORE PUSH1 0x24 PUSH1 0x0 REVERT JUMPDEST PUSH1 0x0 PUSH2 0x9EE DUP3 PUSH2 0x6AA JUMP JUMPDEST SWAP2 POP PUSH2 0x9F9 DUP4 PUSH2 0x6AA JUMP JUMPDEST SWAP3 POP DUP3 PUSH2 0xA09 JUMPI PUSH2 0xA08 PUSH2 0x9B4 JUMP JUMPDEST JUMPDEST DUP3 DUP3 DIV SWAP1 POP SWAP3 SWAP2 POP POP JUMP JUMPDEST PUSH1 0x0 PUSH1 0xFF DUP3 AND SWAP1 POP SWAP2 SWAP1 POP JUMP JUMPDEST PUSH1 0x0 PUSH2 0xA2C DUP3 PUSH2 0xA14 JUMP JUMPDEST SWAP2 POP PUSH2 0xA37 DUP4 PUSH2 0xA14 JUMP JUMPDEST SWAP3 POP DUP3 PUSH2 0xA47 JUMPI PUSH2 0xA46 PUSH2 0x9B4 JUMP JUMPDEST JUMPDEST DUP3 DUP3 DIV SWAP1 POP SWAP3 SWAP2 POP POP JUMP JUMPDEST PUSH1 0x0 PUSH2 0xA5D DUP3 PUSH2 0xA14 JUMP JUMPDEST SWAP2 POP PUSH2 0xA68 DUP4 PUSH2 0xA14 JUMP JUMPDEST SWAP3 POP DUP2 PUSH1 0xFF DIV DUP4 GT DUP3 ISZERO ISZERO AND ISZERO PUSH2 0xA82 JUMPI PUSH2 0xA81 PUSH2 0x779 JUMP JUMPDEST JUMPDEST DUP3 DUP3 MUL SWAP1 POP SWAP3 SWAP2 POP POP JUMP JUMPDEST PUSH1 0x0 PUSH2 0xA98 DUP3 PUSH2 0xA14 JUMP JUMPDEST SWAP2 POP PUSH2 0xAA3 DUP4 PUSH2 0xA14 JUMP JUMPDEST SWAP3 POP DUP3 DUP3 LT ISZERO PUSH2 0xAB6 JUMPI PUSH2 0xAB5 PUSH2 0x779 JUMP JUMPDEST JUMPDEST DUP3 DUP3 SUB SWAP1 POP SWAP3 SWAP2 POP POP JUMP JUMPDEST PUSH1 0x0 DUP2 MLOAD SWAP1 POP PUSH2 0xAD0 DUP2 PUSH2 0x5F3 JUMP JUMPDEST SWAP3 SWAP2 POP POP JUMP JUMPDEST PUSH1 0x0 PUSH1 0x20 DUP3 DUP5 SUB SLT ISZERO PUSH2 0xAEC JUMPI PUSH2 0xAEB PUSH2 0x47C JUMP JUMPDEST JUMPDEST PUSH1 0x0 PUSH2 0xAFA DUP5 DUP3 DUP6 ADD PUSH2 0xAC1 JUMP JUMPDEST SWAP2 POP POP SWAP3 SWAP2 POP POP JUMP JUMPDEST PUSH32 0x4E487B7100000000000000000000000000000000000000000000000000000000 PUSH1 0x0 MSTORE PUSH1 0x32 PUSH1 0x4 MSTORE PUSH1 0x24 PUSH1 0x0 REVERT JUMPDEST PUSH1 0x0 PUSH2 0xB3D DUP3 PUSH2 0x6AA JUMP JUMPDEST SWAP2 POP PUSH2 0xB48 DUP4 PUSH2 0x6AA JUMP JUMPDEST SWAP3 POP DUP3 PUSH32 0xFFFFFFFFFFFFFFFFFFFFFFFFFFFFFFFFFFFFFFFFFFFFFFFFFFFFFFFFFFFFFFFF SUB DUP3 GT ISZERO PUSH2 0xB7D JUMPI PUSH2 0xB7C PUSH2 0x779 JUMP JUMPDEST JUMPDEST DUP3 DUP3 ADD SWAP1 POP SWAP3 SWAP2 POP POP JUMP JUMPDEST PUSH1 0x0 PUSH2 0xB93 DUP3 PUSH2 0x6AA JUMP JUMPDEST SWAP2 POP PUSH32 0xFFFFFFFFFFFFFFFFFFFFFFFFFFFFFFFFFFFFFFFFFFFFFFFFFFFFFFFFFFFFFFFF DUP3 EQ ISZERO PUSH2 0xBC6 JUMPI PUSH2 0xBC5 PUSH2 0x779 JUMP JUMPDEST JUMPDEST PUSH1 0x1 DUP3 ADD SWAP1 POP SWAP2 SWAP1 POP JUMP JUMPDEST PUSH1 0x0 PUSH2 0xBDC DUP3 PUSH2 0xA14 JUMP JUMPDEST SWAP2 POP PUSH2 0xBE7 DUP4 PUSH2 0xA14 JUMP JUMPDEST SWAP3 POP DUP3 PUSH1 0xFF SUB DUP3 GT ISZERO PUSH2 0xBFD JUMPI PUSH2 0xBFC PUSH2 0x779 JUMP JUMPDEST JUMPDEST DUP3 DUP3 ADD SWAP1 POP SWAP3 SWAP2 POP POP JUMP JUMPDEST PUSH1 0x0 DUP2 SWAP1 POP SWAP2 SWAP1 POP JUMP JUMPDEST PUSH2 0xC23 PUSH2 0xC1E DUP3 PUSH2 0x6AA JUMP JUMPDEST PUSH2 0xC08 JUMP JUMPDEST DUP3 MSTORE POP POP JUMP JUMPDEST PUSH1 0x0 PUSH2 0xC34 DUP3 PUSH2 0x481 JUMP JUMPDEST SWAP1 POP SWAP2 SWAP1 POP JUMP JUMPDEST PUSH1 0x0 DUP2 PUSH1 0x60 SHL SWAP1 POP SWAP2 SWAP1 POP JUMP JUMPDEST PUSH1 0x0 PUSH2 0xC53 DUP3 PUSH2 0xC3B JUMP JUMPDEST SWAP1 POP SWAP2 SWAP1 POP JUMP JUMPDEST PUSH1 0x0 PUSH2 0xC65 DUP3 PUSH2 0xC48 JUMP JUMPDEST SWAP1 POP SWAP2 SWAP1 POP JUMP JUMPDEST PUSH2 0xC7D PUSH2 0xC78 DUP3 PUSH2 0xC29 JUMP JUMPDEST PUSH2 0xC5A JUMP JUMPDEST DUP3 MSTORE POP POP JUMP JUMPDEST PUSH1 0x0 PUSH2 0xC8F DUP3 DUP8 PUSH2 0xC12 JUMP JUMPDEST PUSH1 0x20 DUP3 ADD SWAP2 POP PUSH2 0xC9F DUP3 DUP7 PUSH2 0xC12 JUMP JUMPDEST PUSH1 0x20 DUP3 ADD SWAP2 POP PUSH2 0xCAF DUP3 DUP6 PUSH2 0xC12 JUMP JUMPDEST PUSH1 0x20 DUP3 ADD SWAP2 POP PUSH2 0xCBF DUP3 DUP5 PUSH2 0xC6C JUMP JUMPDEST PUSH1 0x14 DUP3 ADD SWAP2 POP DUP2 SWAP1 POP SWAP6 SWAP5 POP POP POP POP POP JUMP JUMPDEST PUSH1 0x0 PUSH2 0xCDC DUP3 PUSH2 0x6AA JUMP JUMPDEST SWAP2 POP PUSH2 0xCE7 DUP4 PUSH2 0x6AA JUMP JUMPDEST SWAP3 POP DUP3 PUSH2 0xCF7 JUMPI PUSH2 0xCF6 PUSH2 0x9B4 JUMP JUMPDEST JUMPDEST DUP3 DUP3 MOD SWAP1 POP SWAP3 SWAP2 POP POP JUMP INVALID LOG2 PUSH5 0x6970667358 0x22 SLT KECCAK256 0xAF 0xDA 0xBD 0xB3 0x2A PUSH32 0xCE47C4C67B84DD14C00DDD90189C2E876036D806ED9AE30BF64264736F6C6343 STOP ADDMOD 0xC STOP CALLER PUSH1 0x80 PUSH1 0x40 MSTORE CALLVALUE DUP1 ISZERO PUSH2 0x10 JUMPI PUSH1 0x0 DUP1 REVERT JUMPDEST POP PUSH2 0xD38 DUP1 PUSH2 0x20 PUSH1 0x0 CODECOPY PUSH1 0x0 RETURN INVALID PUSH1 0x80 PUSH1 0x40 MSTORE CALLVALUE DUP1 ISZERO PUSH2 0x10 JUMPI PUSH1 0x0 DUP1 REVERT JUMPDEST POP PUSH1 0x4 CALLDATASIZE LT PUSH2 0x4C JUMPI PUSH1 0x0 CALLDATALOAD PUSH1 0xE0 SHR DUP1 PUSH4 0x2C6E7598 EQ PUSH2 0x51 JUMPI DUP1 PUSH4 0x69F9AD2F EQ PUSH2 0x81 JUMPI DUP1 PUSH4 0xEFC6C18C EQ PUSH2 0xB1 JUMPI DUP1 PUSH4 0xFD3BAD52 EQ PUSH2 0xCF JUMPI JUMPDEST PUSH1 0x0 DUP1 REVERT JUMPDEST PUSH2 0x6B PUSH1 0x4 DUP1 CALLDATASIZE SUB DUP2 ADD SWAP1 PUSH2 0x66 SWAP2 SWAP1 PUSH2 0x4DF JUMP JUMPDEST PUSH2 0xFF JUMP JUMPDEST PUSH1 0x40 MLOAD PUSH2 0x78 SWAP2 SWAP1 PUSH2 0x5A5 JUMP JUMPDEST PUSH1 0x40 MLOAD DUP1 SWAP2 SUB SWAP1 RETURN JUMPDEST PUSH2 0x9B PUSH1 0x4 DUP1 CALLDATASIZE SUB DUP2 ADD SWAP1 PUSH2 0x96 SWAP2 SWAP1 PUSH2 0x61F JUMP JUMPDEST PUSH2 0x3A4 JUMP JUMPDEST PUSH1 0x40 MLOAD PUSH2 0xA8 SWAP2 SWAP1 PUSH2 0x65B JUMP JUMPDEST PUSH1 0x40 MLOAD DUP1 SWAP2 SUB SWAP1 RETURN JUMPDEST PUSH2 0xB9 PUSH2 0x3EA JUMP JUMPDEST PUSH1 0x40 MLOAD PUSH2 0xC6 SWAP2 SWAP1 PUSH2 0x68F JUMP JUMPDEST PUSH1 0x40 MLOAD DUP1 SWAP2 SUB SWAP1 RETURN JUMPDEST PUSH2 0xE9 PUSH1 0x4 DUP1 CALLDATASIZE SUB DUP2 ADD SWAP1 PUSH2 0xE4 SWAP2 SWAP1 PUSH2 0x6E0 JUMP JUMPDEST PUSH2 0x43E JUMP JUMPDEST PUSH1 0x40 MLOAD PUSH2 0xF6 SWAP2 SWAP1 PUSH2 0x72F JUMP JUMPDEST PUSH1 0x40 MLOAD DUP1 SWAP2 SUB SWAP1 RETURN JUMPDEST PUSH1 0x60 PUSH1 0x0 PUSH1 0x28 PUSH8 0xFFFFFFFFFFFFFFFF DUP2 GT ISZERO PUSH2 0x11E JUMPI PUSH2 0x11D PUSH2 0x74A JUMP JUMPDEST JUMPDEST PUSH1 0x40 MLOAD SWAP1 DUP1 DUP3 MSTORE DUP1 PUSH1 0x1F ADD PUSH1 0x1F NOT AND PUSH1 0x20 ADD DUP3 ADD PUSH1 0x40 MSTORE DUP1 ISZERO PUSH2 0x150 JUMPI DUP2 PUSH1 0x20 ADD PUSH1 0x1 DUP3 MUL DUP1 CALLDATASIZE DUP4 CALLDATACOPY DUP1 DUP3 ADD SWAP2 POP POP SWAP1 POP JUMPDEST POP SWAP1 POP PUSH1 0x0 JUMPDEST PUSH1 0x14 DUP2 LT ISZERO PUSH2 0x39A JUMPI PUSH1 0x0 DUP2 PUSH1 0x13 PUSH2 0x16E SWAP2 SWAP1 PUSH2 0x7A8 JUMP JUMPDEST PUSH1 0x8 PUSH2 0x17A SWAP2 SWAP1 PUSH2 0x7DC JUMP JUMPDEST PUSH1 0x2 PUSH2 0x186 SWAP2 SWAP1 PUSH2 0x969 JUMP JUMPDEST DUP6 PUSH20 0xFFFFFFFFFFFFFFFFFFFFFFFFFFFFFFFFFFFFFFFF AND PUSH2 0x1A7 SWAP2 SWAP1 PUSH2 0x9E3 JUMP JUMPDEST PUSH1 0xF8 SHL SWAP1 POP PUSH1 0x0 PUSH1 0x10 DUP3 PUSH1 0xF8 SHR PUSH2 0x1BE SWAP2 SWAP1 PUSH2 0xA21 JUMP JUMPDEST PUSH1 0xF8 SHL SWAP1 POP PUSH1 0x0 DUP2 PUSH1 0xF8 SHR PUSH1 0x10 PUSH2 0x1D5 SWAP2 SWAP1 PUSH2 0xA52 JUMP JUMPDEST DUP4 PUSH1 0xF8 SHR PUSH2 0x1E3 SWAP2 SWAP1 PUSH2 0xA8D JUMP JUMPDEST PUSH1 0xF8 SHL SWAP1 POP ADDRESS PUSH20 0xFFFFFFFFFFFFFFFFFFFFFFFFFFFFFFFFFFFFFFFF AND PUSH4 0x69F9AD2F DUP4 PUSH1 0x40 MLOAD DUP3 PUSH4 0xFFFFFFFF AND PUSH1 0xE0 SHL DUP2 MSTORE PUSH1 0x4 ADD PUSH2 0x221 SWAP2 SWAP1 PUSH2 0x65B JUMP JUMPDEST PUSH1 0x20 PUSH1 0x40 MLOAD DUP1 DUP4 SUB DUP2 DUP7 GAS STATICCALL ISZERO DUP1 ISZERO PUSH2 0x23E JUMPI RETURNDATASIZE PUSH1 0x0 DUP1 RETURNDATACOPY RETURNDATASIZE PUSH1 0x0 REVERT JUMPDEST POP POP POP POP PUSH1 0x40 MLOAD RETURNDATASIZE PUSH1 0x1F NOT PUSH1 0x1F DUP3 ADD AND DUP3 ADD DUP1 PUSH1 0x40 MSTORE POP DUP2 ADD SWAP1 PUSH2 0x262 SWAP2 SWAP1 PUSH2 0xAD6 JUMP JUMPDEST DUP6 DUP6 PUSH1 0x2 PUSH2 0x270 SWAP2 SWAP1 PUSH2 0x7DC JUMP JUMPDEST DUP2 MLOAD DUP2 LT PUSH2 0x281 JUMPI PUSH2 0x280 PUSH2 0xB03 JUMP JUMPDEST JUMPDEST PUSH1 0x20 ADD ADD SWAP1 PUSH31 0xFFFFFFFFFFFFFFFFFFFFFFFFFFFFFFFFFFFFFFFFFFFFFFFFFFFFFFFFFFFFFF NOT AND SWAP1 DUP2 PUSH1 0x0 BYTE SWAP1 MSTORE8 POP ADDRESS PUSH20 0xFFFFFFFFFFFFFFFFFFFFFFFFFFFFFFFFFFFFFFFF AND PUSH4 0x69F9AD2F DUP3 PUSH1 0x40 MLOAD DUP3 PUSH4 0xFFFFFFFF AND PUSH1 0xE0 SHL DUP2 MSTORE PUSH1 0x4 ADD PUSH2 0x2E9 SWAP2 SWAP1 PUSH2 0x65B JUMP JUMPDEST PUSH1 0x20 PUSH1 0x40 MLOAD DUP1 DUP4 SUB DUP2 DUP7 GAS STATICCALL ISZERO DUP1 ISZERO PUSH2 0x306 JUMPI RETURNDATASIZE PUSH1 0x0 DUP1 RETURNDATACOPY RETURNDATASIZE PUSH1 0x0 REVERT JUMPDEST POP POP POP POP PUSH1 0x40 MLOAD RETURNDATASIZE PUSH1 0x1F NOT PUSH1 0x1F DUP3 ADD AND DUP3 ADD DUP1 PUSH1 0x40 MSTORE POP DUP2 ADD SWAP1 PUSH2 0x32A SWAP2 SWAP1 PUSH2 0xAD6 JUMP JUMPDEST DUP6 PUSH1 0x1 DUP7 PUSH1 0x2 PUSH2 0x33A SWAP2 SWAP1 PUSH2 0x7DC JUMP JUMPDEST PUSH2 0x344 SWAP2 SWAP1 PUSH2 0xB32 JUMP JUMPDEST DUP2 MLOAD DUP2 LT PUSH2 0x355 JUMPI PUSH2 0x354 PUSH2 0xB03 JUMP JUMPDEST JUMPDEST PUSH1 0x20 ADD ADD SWAP1 PUSH31 0xFFFFFFFFFFFFFFFFFFFFFFFFFFFFFFFFFFFFFFFFFFFFFFFFFFFFFFFFFFFFFF NOT AND SWAP1 DUP2 PUSH1 0x0 BYTE SWAP1 MSTORE8 POP POP POP POP DUP1 DUP1 PUSH2 0x392 SWAP1 PUSH2 0xB88 JUMP JUMPDEST SWAP2 POP POP PUSH2 0x156 JUMP JUMPDEST POP DUP1 SWAP2 POP POP SWAP2 SWAP1 POP JUMP JUMPDEST PUSH1 0x0 PUSH1 0xA DUP3 PUSH1 0xF8 SHR PUSH1 0xFF AND LT ISZERO PUSH2 0x3CF JUMPI PUSH1 0x30 DUP3 PUSH1 0xF8 SHR PUSH2 0x3C5 SWAP2 SWAP1 PUSH2 0xBD1 JUMP JUMPDEST PUSH1 0xF8 SHL SWAP1 POP PUSH2 0x3E5 JUMP JUMPDEST PUSH1 0x57 DUP3 PUSH1 0xF8 SHR PUSH2 0x3DF SWAP2 SWAP1 PUSH2 0xBD1 JUMP JUMPDEST PUSH1 0xF8 SHL SWAP1 POP JUMPDEST SWAP2 SWAP1 POP JUMP JUMPDEST PUSH1 0x0 DUP1 PUSH1 0x0 SWAP1 POP PUSH1 0x0 DUP2 TIMESTAMP DIFFICULTY COINBASE PUSH1 0x40 MLOAD PUSH1 0x20 ADD PUSH2 0x40A SWAP5 SWAP4 SWAP3 SWAP2 SWAP1 PUSH2 0xC83 JUMP JUMPDEST PUSH1 0x40 MLOAD PUSH1 0x20 DUP2 DUP4 SUB SUB DUP2 MSTORE SWAP1 PUSH1 0x40 MSTORE DUP1 MLOAD SWAP1 PUSH1 0x20 ADD KECCAK256 PUSH1 0x0 SHR SWAP1 POP DUP2 DUP1 PUSH2 0x430 SWAP1 PUSH2 0xB88 JUMP JUMPDEST SWAP3 POP POP DUP1 PUSH1 0x0 SHL SWAP3 POP POP POP SWAP1 JUMP JUMPDEST PUSH1 0x0 DUP1 DUP3 DUP5 PUSH2 0x44D SWAP2 SWAP1 PUSH2 0x9E3 JUMP JUMPDEST SWAP1 POP PUSH1 0x0 DUP4 DUP6 PUSH2 0x45D SWAP2 SWAP1 PUSH2 0xCD1 JUMP JUMPDEST EQ PUSH2 0x472 JUMPI PUSH1 0x1 DUP2 PUSH2 0x46F SWAP2 SWAP1 PUSH2 0xB32 JUMP JUMPDEST SWAP1 POP JUMPDEST DUP1 SWAP2 POP POP SWAP3 SWAP2 POP POP JUMP JUMPDEST PUSH1 0x0 DUP1 REVERT JUMPDEST PUSH1 0x0 PUSH20 0xFFFFFFFFFFFFFFFFFFFFFFFFFFFFFFFFFFFFFFFF DUP3 AND SWAP1 POP SWAP2 SWAP1 POP JUMP JUMPDEST PUSH1 0x0 PUSH2 0x4AC DUP3 PUSH2 0x481 JUMP JUMPDEST SWAP1 POP SWAP2 SWAP1 POP JUMP JUMPDEST PUSH2 0x4BC DUP2 PUSH2 0x4A1 JUMP JUMPDEST DUP2 EQ PUSH2 0x4C7 JUMPI PUSH1 0x0 DUP1 REVERT JUMPDEST POP JUMP JUMPDEST PUSH1 0x0 DUP2 CALLDATALOAD SWAP1 POP PUSH2 0x4D9 DUP2 PUSH2 0x4B3 JUMP JUMPDEST SWAP3 SWAP2 POP POP JUMP JUMPDEST PUSH1 0x0 PUSH1 0x20 DUP3 DUP5 SUB SLT ISZERO PUSH2 0x4F5 JUMPI PUSH2 0x4F4 PUSH2 0x47C JUMP JUMPDEST JUMPDEST PUSH1 0x0 PUSH2 0x503 DUP5 DUP3 DUP6 ADD PUSH2 0x4CA JUMP JUMPDEST SWAP2 POP POP SWAP3 SWAP2 POP POP JUMP JUMPDEST PUSH1 0x0 DUP2 MLOAD SWAP1 POP SWAP2 SWAP1 POP JUMP JUMPDEST PUSH1 0x0 DUP3 DUP3 MSTORE PUSH1 0x20 DUP3 ADD SWAP1 POP SWAP3 SWAP2 POP POP JUMP JUMPDEST PUSH1 0x0 JUMPDEST DUP4 DUP2 LT ISZERO PUSH2 0x546 JUMPI DUP1 DUP3 ADD MLOAD DUP2 DUP5 ADD MSTORE PUSH1 0x20 DUP2 ADD SWAP1 POP PUSH2 0x52B JUMP JUMPDEST DUP4 DUP2 GT ISZERO PUSH2 0x555 JUMPI PUSH1 0x0 DUP5 DUP5 ADD MSTORE JUMPDEST POP POP POP POP JUMP JUMPDEST PUSH1 0x0 PUSH1 0x1F NOT PUSH1 0x1F DUP4 ADD AND SWAP1 POP SWAP2 SWAP1 POP JUMP JUMPDEST PUSH1 0x0 PUSH2 0x577 DUP3 PUSH2 0x50C JUMP JUMPDEST PUSH2 0x581 DUP2 DUP6 PUSH2 0x517 JUMP JUMPDEST SWAP4 POP PUSH2 0x591 DUP2 DUP6 PUSH1 0x20 DUP7 ADD PUSH2 0x528 JUMP JUMPDEST PUSH2 0x59A DUP2 PUSH2 0x55B JUMP JUMPDEST DUP5 ADD SWAP2 POP POP SWAP3 SWAP2 POP POP JUMP JUMPDEST PUSH1 0x0 PUSH1 0x20 DUP3 ADD SWAP1 POP DUP2 DUP2 SUB PUSH1 0x0 DUP4 ADD MSTORE PUSH2 0x5BF DUP2 DUP5 PUSH2 0x56C JUMP JUMPDEST SWAP1 POP SWAP3 SWAP2 POP POP JUMP JUMPDEST PUSH1 0x0 PUSH32 0xFF00000000000000000000000000000000000000000000000000000000000000 DUP3 AND SWAP1 POP SWAP2 SWAP1 POP JUMP JUMPDEST PUSH2 0x5FC DUP2 PUSH2 0x5C7 JUMP JUMPDEST DUP2 EQ PUSH2 0x607 JUMPI PUSH1 0x0 DUP1 REVERT JUMPDEST POP JUMP JUMPDEST PUSH1 0x0 DUP2 CALLDATALOAD SWAP1 POP PUSH2 0x619 DUP2 PUSH2 0x5F3 JUMP JUMPDEST SWAP3 SWAP2 POP POP JUMP JUMPDEST PUSH1 0x0 PUSH1 0x20 DUP3 DUP5 SUB SLT ISZERO PUSH2 0x635 JUMPI PUSH2 0x634 PUSH2 0x47C JUMP JUMPDEST JUMPDEST PUSH1 0x0 PUSH2 0x643 DUP5 DUP3 DUP6 ADD PUSH2 0x60A JUMP JUMPDEST SWAP2 POP POP SWAP3 SWAP2 POP POP JUMP JUMPDEST PUSH2 0x655 DUP2 PUSH2 0x5C7 JUMP JUMPDEST DUP3 MSTORE POP POP JUMP JUMPDEST PUSH1 0x0 PUSH1 0x20 DUP3 ADD SWAP1 POP PUSH2 0x670 PUSH1 0x0 DUP4 ADD DUP5 PUSH2 0x64C JUMP JUMPDEST SWAP3 SWAP2 POP POP JUMP JUMPDEST PUSH1 0x0 DUP2 SWAP1 POP SWAP2 SWAP1 POP JUMP JUMPDEST PUSH2 0x689 DUP2 PUSH2 0x676 JUMP JUMPDEST DUP3 MSTORE POP POP JUMP JUMPDEST PUSH1 0x0 PUSH1 0x20 DUP3 ADD SWAP1 POP PUSH2 0x6A4 PUSH1 0x0 DUP4 ADD DUP5 PUSH2 0x680 JUMP JUMPDEST SWAP3 SWAP2 POP POP JUMP JUMPDEST PUSH1 0x0 DUP2 SWAP1 POP SWAP2 SWAP1 POP JUMP JUMPDEST PUSH2 0x6BD DUP2 PUSH2 0x6AA JUMP JUMPDEST DUP2 EQ PUSH2 0x6C8 JUMPI PUSH1 0x0 DUP1 REVERT JUMPDEST POP JUMP JUMPDEST PUSH1 0x0 DUP2 CALLDATALOAD SWAP1 POP PUSH2 0x6DA DUP2 PUSH2 0x6B4 JUMP JUMPDEST SWAP3 SWAP2 POP POP JUMP JUMPDEST PUSH1 0x0 DUP1 PUSH1 0x40 DUP4 DUP6 SUB SLT ISZERO PUSH2 0x6F7 JUMPI PUSH2 0x6F6 PUSH2 0x47C JUMP JUMPDEST JUMPDEST PUSH1 0x0 PUSH2 0x705 DUP6 DUP3 DUP7 ADD PUSH2 0x6CB JUMP JUMPDEST SWAP3 POP POP PUSH1 0x20 PUSH2 0x716 DUP6 DUP3 DUP7 ADD PUSH2 0x6CB JUMP JUMPDEST SWAP2 POP POP SWAP3 POP SWAP3 SWAP1 POP JUMP JUMPDEST PUSH2 0x729 DUP2 PUSH2 0x6AA JUMP JUMPDEST DUP3 MSTORE POP POP JUMP JUMPDEST PUSH1 0x0 PUSH1 0x20 DUP3 ADD SWAP1 POP PUSH2 0x744 PUSH1 0x0 DUP4 ADD DUP5 PUSH2 0x720 JUMP JUMPDEST SWAP3 SWAP2 POP POP JUMP JUMPDEST PUSH32 0x4E487B7100000000000000000000000000000000000000000000000000000000 PUSH1 0x0 MSTORE PUSH1 0x41 PUSH1 0x4 MSTORE PUSH1 0x24 PUSH1 0x0 REVERT JUMPDEST PUSH32 0x4E487B7100000000000000000000000000000000000000000000000000000000 PUSH1 0x0 MSTORE PUSH1 0x11 PUSH1 0x4 MSTORE PUSH1 0x24 PUSH1 0x0 REVERT JUMPDEST PUSH1 0x0 PUSH2 0x7B3 DUP3 PUSH2 0x6AA JUMP JUMPDEST SWAP2 POP PUSH2 0x7BE DUP4 PUSH2 0x6AA JUMP JUMPDEST SWAP3 POP DUP3 DUP3 LT ISZERO PUSH2 0x7D1 JUMPI PUSH2 0x7D0 PUSH2 0x779 JUMP JUMPDEST JUMPDEST DUP3 DUP3 SUB SWAP1 POP SWAP3 SWAP2 POP POP JUMP JUMPDEST PUSH1 0x0 PUSH2 0x7E7 DUP3 PUSH2 0x6AA JUMP JUMPDEST SWAP2 POP PUSH2 0x7F2 DUP4 PUSH2 0x6AA JUMP JUMPDEST SWAP3 POP DUP2 PUSH32 0xFFFFFFFFFFFFFFFFFFFFFFFFFFFFFFFFFFFFFFFFFFFFFFFFFFFFFFFFFFFFFFFF DIV DUP4 GT DUP3 ISZERO ISZERO AND ISZERO PUSH2 0x82B JUMPI PUSH2 0x82A PUSH2 0x779 JUMP JUMPDEST JUMPDEST DUP3 DUP3 MUL SWAP1 POP SWAP3 SWAP2 POP POP JUMP JUMPDEST PUSH1 0x0 DUP2 PUSH1 0x1 SHR SWAP1 POP SWAP2 SWAP1 POP JUMP JUMPDEST PUSH1 0x0 DUP1 DUP3 SWAP2 POP DUP4 SWAP1 POP JUMPDEST PUSH1 0x1 DUP6 GT ISZERO PUSH2 0x88D JUMPI DUP1 DUP7 DIV DUP2 GT ISZERO PUSH2 0x869 JUMPI PUSH2 0x868 PUSH2 0x779 JUMP JUMPDEST JUMPDEST PUSH1 0x1 DUP6 AND ISZERO PUSH2 0x878 JUMPI DUP1 DUP3 MUL SWAP2 POP JUMPDEST DUP1 DUP2 MUL SWAP1 POP PUSH2 0x886 DUP6 PUSH2 0x836 JUMP JUMPDEST SWAP5 POP PUSH2 0x84D JUMP JUMPDEST SWAP5 POP SWAP5 SWAP3 POP POP POP JUMP JUMPDEST PUSH1 0x0 DUP3 PUSH2 0x8A6 JUMPI PUSH1 0x1 SWAP1 POP PUSH2 0x962 JUMP JUMPDEST DUP2 PUSH2 0x8B4 JUMPI PUSH1 0x0 SWAP1 POP PUSH2 0x962 JUMP JUMPDEST DUP2 PUSH1 0x1 DUP2 EQ PUSH2 0x8CA JUMPI PUSH1 0x2 DUP2 EQ PUSH2 0x8D4 JUMPI PUSH2 0x903 JUMP JUMPDEST PUSH1 0x1 SWAP2 POP POP PUSH2 0x962 JUMP JUMPDEST PUSH1 0xFF DUP5 GT ISZERO PUSH2 0x8E6 JUMPI PUSH2 0x8E5 PUSH2 0x779 JUMP JUMPDEST JUMPDEST DUP4 PUSH1 0x2 EXP SWAP2 POP DUP5 DUP3 GT ISZERO PUSH2 0x8FD JUMPI PUSH2 0x8FC PUSH2 0x779 JUMP JUMPDEST JUMPDEST POP PUSH2 0x962 JUMP JUMPDEST POP PUSH1 0x20 DUP4 LT PUSH2 0x133 DUP4 LT AND PUSH1 0x4E DUP5 LT PUSH1 0xB DUP5 LT AND OR ISZERO PUSH2 0x938 JUMPI DUP3 DUP3 EXP SWAP1 POP DUP4 DUP2 GT ISZERO PUSH2 0x933 JUMPI PUSH2 0x932 PUSH2 0x779 JUMP JUMPDEST JUMPDEST PUSH2 0x962 JUMP JUMPDEST PUSH2 0x945 DUP5 DUP5 DUP5 PUSH1 0x1 PUSH2 0x843 JUMP JUMPDEST SWAP3 POP SWAP1 POP DUP2 DUP5 DIV DUP2 GT ISZERO PUSH2 0x95C JUMPI PUSH2 0x95B PUSH2 0x779 JUMP JUMPDEST JUMPDEST DUP2 DUP2 MUL SWAP1 POP JUMPDEST SWAP4 SWAP3 POP POP POP JUMP JUMPDEST PUSH1 0x0 PUSH2 0x974 DUP3 PUSH2 0x6AA JUMP JUMPDEST SWAP2 POP PUSH2 0x97F DUP4 PUSH2 0x6AA JUMP JUMPDEST SWAP3 POP PUSH2 0x9AC PUSH32 0xFFFFFFFFFFFFFFFFFFFFFFFFFFFFFFFFFFFFFFFFFFFFFFFFFFFFFFFFFFFFFFFF DUP5 DUP5 PUSH2 0x896 JUMP JUMPDEST SWAP1 POP SWAP3 SWAP2 POP POP JUMP JUMPDEST PUSH32 0x4E487B7100000000000000000000000000000000000000000000000000000000 PUSH1 0x0 MSTORE PUSH1 0x12 PUSH1 0x4 MSTORE PUSH1 0x24 PUSH1 0x0 REVERT JUMPDEST PUSH1 0x0 PUSH2 0x9EE DUP3 PUSH2 0x6AA JUMP JUMPDEST SWAP2 POP PUSH2 0x9F9 DUP4 PUSH2 0x6AA JUMP JUMPDEST SWAP3 POP DUP3 PUSH2 0xA09 JUMPI PUSH2 0xA08 PUSH2 0x9B4 JUMP JUMPDEST JUMPDEST DUP3 DUP3 DIV SWAP1 POP SWAP3 SWAP2 POP POP JUMP JUMPDEST PUSH1 0x0 PUSH1 0xFF DUP3 AND SWAP1 POP SWAP2 SWAP1 POP JUMP JUMPDEST PUSH1 0x0 PUSH2 0xA2C DUP3 PUSH2 0xA14 JUMP JUMPDEST SWAP2 POP PUSH2 0xA37 DUP4 PUSH2 0xA14 JUMP JUMPDEST SWAP3 POP DUP3 PUSH2 0xA47 JUMPI PUSH2 0xA46 PUSH2 0x9B4 JUMP JUMPDEST JUMPDEST DUP3 DUP3 DIV SWAP1 POP SWAP3 SWAP2 POP POP JUMP JUMPDEST PUSH1 0x0 PUSH2 0xA5D DUP3 PUSH2 0xA14 JUMP JUMPDEST SWAP2 POP PUSH2 0xA68 DUP4 PUSH2 0xA14 JUMP JUMPDEST SWAP3 POP DUP2 PUSH1 0xFF DIV DUP4 GT DUP3 ISZERO ISZERO AND ISZERO PUSH2 0xA82 JUMPI PUSH2 0xA81 PUSH2 0x779 JUMP JUMPDEST JUMPDEST DUP3 DUP3 MUL SWAP1 POP SWAP3 SWAP2 POP POP JUMP JUMPDEST PUSH1 0x0 PUSH2 0xA98 DUP3 PUSH2 0xA14 JUMP JUMPDEST SWAP2 POP PUSH2 0xAA3 DUP4 PUSH2 0xA14 JUMP JUMPDEST SWAP3 POP DUP3 DUP3 LT ISZERO PUSH2 0xAB6 JUMPI PUSH2 0xAB5 PUSH2 0x779 JUMP JUMPDEST JUMPDEST DUP3 DUP3 SUB SWAP1 POP SWAP3 SWAP2 POP POP JUMP JUMPDEST PUSH1 0x0 DUP2 MLOAD SWAP1 POP PUSH2 0xAD0 DUP2 PUSH2 0x5F3 JUMP JUMPDEST SWAP3 SWAP2 POP POP JUMP JUMPDEST PUSH1 0x0 PUSH1 0x20 DUP3 DUP5 SUB SLT ISZERO PUSH2 0xAEC JUMPI PUSH2 0xAEB PUSH2 0x47C JUMP JUMPDEST JUMPDEST PUSH1 0x0 PUSH2 0xAFA DUP5 DUP3 DUP6 ADD PUSH2 0xAC1 JUMP JUMPDEST SWAP2 POP POP SWAP3 SWAP2 POP POP JUMP JUMPDEST PUSH32 0x4E487B7100000000000000000000000000000000000000000000000000000000 PUSH1 0x0 MSTORE PUSH1 0x32 PUSH1 0x4 MSTORE PUSH1 0x24 PUSH1 0x0 REVERT JUMPDEST PUSH1 0x0 PUSH2 0xB3D DUP3 PUSH2 0x6AA JUMP JUMPDEST SWAP2 POP PUSH2 0xB48 DUP4 PUSH2 0x6AA JUMP JUMPDEST SWAP3 POP DUP3 PUSH32 0xFFFFFFFFFFFFFFFFFFFFFFFFFFFFFFFFFFFFFFFFFFFFFFFFFFFFFFFFFFFFFFFF SUB DUP3 GT ISZERO PUSH2 0xB7D JUMPI PUSH2 0xB7C PUSH2 0x779 JUMP JUMPDEST JUMPDEST DUP3 DUP3 ADD SWAP1 POP SWAP3 SWAP2 POP POP JUMP JUMPDEST PUSH1 0x0 PUSH2 0xB93 DUP3 PUSH2 0x6AA JUMP JUMPDEST SWAP2 POP PUSH32 0xFFFFFFFFFFFFFFFFFFFFFFFFFFFFFFFFFFFFFFFFFFFFFFFFFFFFFFFFFFFFFFFF DUP3 EQ ISZERO PUSH2 0xBC6 JUMPI PUSH2 0xBC5 PUSH2 0x779 JUMP JUMPDEST JUMPDEST PUSH1 0x1 DUP3 ADD SWAP1 POP SWAP2 SWAP1 POP JUMP JUMPDEST PUSH1 0x0 PUSH2 0xBDC DUP3 PUSH2 0xA14 JUMP JUMPDEST SWAP2 POP PUSH2 0xBE7 DUP4 PUSH2 0xA14 JUMP JUMPDEST SWAP3 POP DUP3 PUSH1 0xFF SUB DUP3 GT ISZERO PUSH2 0xBFD JUMPI PUSH2 0xBFC PUSH2 0x779 JUMP JUMPDEST JUMPDEST DUP3 DUP3 ADD SWAP1 POP SWAP3 SWAP2 POP POP JUMP JUMPDEST PUSH1 0x0 DUP2 SWAP1 POP SWAP2 SWAP1 POP JUMP JUMPDEST PUSH2 0xC23 PUSH2 0xC1E DUP3 PUSH2 0x6AA JUMP JUMPDEST PUSH2 0xC08 JUMP JUMPDEST DUP3 MSTORE POP POP JUMP JUMPDEST PUSH1 0x0 PUSH2 0xC34 DUP3 PUSH2 0x481 JUMP JUMPDEST SWAP1 POP SWAP2 SWAP1 POP JUMP JUMPDEST PUSH1 0x0 DUP2 PUSH1 0x60 SHL SWAP1 POP SWAP2 SWAP1 POP JUMP JUMPDEST PUSH1 0x0 PUSH2 0xC53 DUP3 PUSH2 0xC3B JUMP JUMPDEST SWAP1 POP SWAP2 SWAP1 POP JUMP JUMPDEST PUSH1 0x0 PUSH2 0xC65 DUP3 PUSH2 0xC48 JUMP JUMPDEST SWAP1 POP SWAP2 SWAP1 POP JUMP JUMPDEST PUSH2 0xC7D PUSH2 0xC78 DUP3 PUSH2 0xC29 JUMP JUMPDEST PUSH2 0xC5A JUMP JUMPDEST DUP3 MSTORE POP POP JUMP JUMPDEST PUSH1 0x0 PUSH2 0xC8F DUP3 DUP8 PUSH2 0xC12 JUMP JUMPDEST PUSH1 0x20 DUP3 ADD SWAP2 POP PUSH2 0xC9F DUP3 DUP7 PUSH2 0xC12 JUMP JUMPDEST PUSH1 0x20 DUP3 ADD SWAP2 POP PUSH2 0xCAF DUP3 DUP6 PUSH2 0xC12 JUMP JUMPDEST PUSH1 0x20 DUP3 ADD SWAP2 POP PUSH2 0xCBF DUP3 DUP5 PUSH2 0xC6C JUMP JUMPDEST PUSH1 0x14 DUP3 ADD SWAP2 POP DUP2 SWAP1 POP SWAP6 SWAP5 POP POP POP POP POP JUMP JUMPDEST PUSH1 0x0 PUSH2 0xCDC DUP3 PUSH2 0x6AA JUMP JUMPDEST SWAP2 POP PUSH2 0xCE7 DUP4 PUSH2 0x6AA JUMP JUMPDEST SWAP3 POP DUP3 PUSH2 0xCF7 JUMPI PUSH2 0xCF6 PUSH2 0x9B4 JUMP JUMPDEST JUMPDEST DUP3 DUP3 MOD SWAP1 POP SWAP3 SWAP2 POP POP JUMP INVALID LOG2 PUSH5 0x6970667358 0x22 SLT KECCAK256 0xAF 0xDA 0xBD 0xB3 0x2A PUSH32 0xCE47C4C67B84DD14C00DDD90189C2E876036D806ED9AE30BF64264736F6C6343 STOP ADDMOD 0xC STOP CALLER NUMBER PUSH16 0x756E63696C2068617320617070726F76 PUSH6 0x642074686520 PUSH19 0x65666572656E64756D21436F6E73756C746174 PUSH10 0x6F6E2063616E63656C65 PUSH5 0x3A20566F74 PUSH6 0x72207475726E PUSH16 0x757420686173206265656E20746F6F20 PUSH20 0x6D616C6C2141206E6577206C6561646572736869 PUSH17 0x20626F6172642073686F756C6420626520 PUSH10 0x6E7374697475746564A2 PUSH5 0x6970667358 0x22 SLT KECCAK256 REVERT GT PUSH25 0xB06FF21F9ECD9C59BF09E938141AB50C4B7603E8B7C10D5314 BLOCKHASH MULMOD PUSH15 0x2264736F6C634300080C0033000000 "
		},
		"gasEstimates": {
			"creation": {
				"codeDepositCost": "9356400",
				"executionCost": "79315",
				"totalCost": "9435715"
			},
			"external": {
				"_testElection()": "infinite",
				"acceptCandidature()": "infinite",
				"addCandidate(address)": "infinite",
				"assignToBoard()": "infinite",
				"canAddCandidate()": "infinite",
				"canApprove(address[])": "infinite",
				"canCancel()": "infinite",
				"canCreate(address[])": "infinite",
				"canStart(address[])": "infinite",
				"canSupport()": "infinite",
				"canVote()": "infinite",
				"cancelationReason()": "2722",
				"closeElection()": "infinite",
				"daysOpen()": "2497",
				"getElectableCandidates()": "infinite",
				"getMinimalVoterTurnout()": "infinite",
				"getNominatedCandidates()": "infinite",
				"getQualifiedCandidates()": "infinite",
				"getRunningCandidates()": "infinite",
				"getVoterTurnout()": "infinite",
				"getWinningCandidates()": "infinite",
				"guaranteers(uint256)": "5045",
				"hasDeadlinePassed()": "infinite",
				"hasMinimumVoterTurnout()": "infinite",
				"inaugurateElected()": "infinite",
				"isCandidateAlreadyNominated(address)": "infinite",
				"owners(uint256)": "5003",
				"removeSupportFromCandidate(uint256)": "infinite",
				"removeVote()": "infinite",
				"startElection()": "infinite",
				"startPreselection()": "infinite",
				"state()": "2677",
				"supportCandidate(uint256)": "infinite",
				"voteForCandidate(uint256)": "infinite"
			},
			"internal": {
				"cancel(enum Election.CancelReason,string memory)": "infinite",
				"createElection()": "infinite",
				"createPreselection(address[] memory,string memory,string memory,enum AccountManagement.Role,uint256)": "infinite",
				"setState(enum Election.State,string memory)": "infinite"
			}
		},
		"methodIdentifiers": {
			"_testElection()": "7dd4a945",
			"acceptCandidature()": "e1346655",
			"addCandidate(address)": "3acd75f8",
			"assignToBoard()": "d5bc1a00",
			"canAddCandidate()": "58e549f0",
			"canApprove(address[])": "7fe63d70",
			"canCancel()": "d0f3725f",
			"canCreate(address[])": "f53cabf6",
			"canStart(address[])": "c36e4e6c",
			"canSupport()": "ada89616",
			"canVote()": "159e7064",
			"cancelationReason()": "3e422f5f",
			"closeElection()": "6c6c32d0",
			"daysOpen()": "a49da4b3",
			"getElectableCandidates()": "c026a05e",
			"getMinimalVoterTurnout()": "defb4dd6",
			"getNominatedCandidates()": "1f164aa7",
			"getQualifiedCandidates()": "ed57bcb7",
			"getRunningCandidates()": "687b995d",
			"getVoterTurnout()": "2fd0d870",
			"getWinningCandidates()": "f7e5b82b",
			"guaranteers(uint256)": "c2e862b4",
			"hasDeadlinePassed()": "96e3f4c5",
			"hasMinimumVoterTurnout()": "e53d8f1d",
			"inaugurateElected()": "de20b4f1",
			"isCandidateAlreadyNominated(address)": "bea3ff44",
			"owners(uint256)": "025e7c27",
			"removeSupportFromCandidate(uint256)": "7aa485d0",
			"removeVote()": "49aa4ee2",
			"startElection()": "62d73eb8",
			"startPreselection()": "107d4035",
			"state()": "c19d93fb",
			"supportCandidate(uint256)": "9c162409",
			"voteForCandidate(uint256)": "36c8c5ee"
		}
	},
	"abi": [
		{
			"inputs": [],
			"stateMutability": "nonpayable",
			"type": "constructor"
		},
		{
			"anonymous": false,
			"inputs": [
				{
					"indexed": true,
					"internalType": "address",
					"name": "_by",
					"type": "address"
				},
				{
					"indexed": false,
					"internalType": "enum Election.State",
					"name": "oldState",
					"type": "uint8"
				},
				{
					"indexed": false,
					"internalType": "enum Election.State",
					"name": "newState",
					"type": "uint8"
				},
				{
					"indexed": false,
					"internalType": "string",
					"name": "description",
					"type": "string"
				}
			],
			"name": "StateChanged",
			"type": "event"
		},
		{
			"inputs": [],
			"name": "_testElection",
			"outputs": [],
			"stateMutability": "nonpayable",
			"type": "function"
		},
		{
			"inputs": [],
			"name": "acceptCandidature",
			"outputs": [],
			"stateMutability": "nonpayable",
			"type": "function"
		},
		{
			"inputs": [
				{
					"internalType": "address",
					"name": "_candidate",
					"type": "address"
				}
			],
			"name": "addCandidate",
			"outputs": [],
			"stateMutability": "nonpayable",
			"type": "function"
		},
		{
			"inputs": [],
			"name": "assignToBoard",
			"outputs": [],
			"stateMutability": "nonpayable",
			"type": "function"
		},
		{
			"inputs": [],
			"name": "canAddCandidate",
			"outputs": [
				{
					"internalType": "bool",
					"name": "",
					"type": "bool"
				}
			],
			"stateMutability": "view",
			"type": "function"
		},
		{
			"inputs": [
				{
					"internalType": "address[]",
					"name": "_guaranteers",
					"type": "address[]"
				}
			],
			"name": "canApprove",
			"outputs": [
				{
					"internalType": "bool",
					"name": "",
					"type": "bool"
				}
			],
			"stateMutability": "view",
			"type": "function"
		},
		{
			"inputs": [],
			"name": "canCancel",
			"outputs": [
				{
					"internalType": "bool",
					"name": "",
					"type": "bool"
				}
			],
			"stateMutability": "view",
			"type": "function"
		},
		{
			"inputs": [
				{
					"internalType": "address[]",
					"name": "_creators",
					"type": "address[]"
				}
			],
			"name": "canCreate",
			"outputs": [
				{
					"internalType": "bool",
					"name": "",
					"type": "bool"
				}
			],
			"stateMutability": "view",
			"type": "function"
		},
		{
			"inputs": [
				{
					"internalType": "address[]",
					"name": "_creators",
					"type": "address[]"
				}
			],
			"name": "canStart",
			"outputs": [
				{
					"internalType": "bool",
					"name": "",
					"type": "bool"
				}
			],
			"stateMutability": "view",
			"type": "function"
		},
		{
			"inputs": [],
			"name": "canSupport",
			"outputs": [
				{
					"internalType": "bool",
					"name": "",
					"type": "bool"
				}
			],
			"stateMutability": "view",
			"type": "function"
		},
		{
			"inputs": [],
			"name": "canVote",
			"outputs": [
				{
					"internalType": "bool",
					"name": "",
					"type": "bool"
				}
			],
			"stateMutability": "view",
			"type": "function"
		},
		{
			"inputs": [],
			"name": "cancelationReason",
			"outputs": [
				{
					"internalType": "enum Election.CancelReason",
					"name": "",
					"type": "uint8"
				}
			],
			"stateMutability": "view",
			"type": "function"
		},
		{
			"inputs": [],
			"name": "closeElection",
			"outputs": [],
			"stateMutability": "nonpayable",
			"type": "function"
		},
		{
			"inputs": [],
			"name": "daysOpen",
			"outputs": [
				{
					"internalType": "uint256",
					"name": "",
					"type": "uint256"
				}
			],
			"stateMutability": "view",
			"type": "function"
		},
		{
			"inputs": [],
			"name": "getElectableCandidates",
			"outputs": [
				{
					"components": [
						{
							"internalType": "uint256",
							"name": "id",
							"type": "uint256"
						},
						{
							"internalType": "address",
							"name": "owner",
							"type": "address"
						},
						{
							"internalType": "address",
							"name": "creator",
							"type": "address"
						},
						{
							"internalType": "bool",
							"name": "isActive",
							"type": "bool"
						},
						{
							"internalType": "string",
							"name": "title",
							"type": "string"
						},
						{
							"internalType": "string",
							"name": "description",
							"type": "string"
						},
						{
							"internalType": "uint256",
							"name": "voterCount",
							"type": "uint256"
						}
					],
					"internalType": "struct Poll.Option[]",
					"name": "",
					"type": "tuple[]"
				}
			],
			"stateMutability": "nonpayable",
			"type": "function"
		},
		{
			"inputs": [],
			"name": "getMinimalVoterTurnout",
			"outputs": [
				{
					"internalType": "uint256",
					"name": "",
					"type": "uint256"
				}
			],
			"stateMutability": "view",
			"type": "function"
		},
		{
			"inputs": [],
			"name": "getNominatedCandidates",
			"outputs": [
				{
					"components": [
						{
							"internalType": "uint256",
							"name": "id",
							"type": "uint256"
						},
						{
							"internalType": "address",
							"name": "owner",
							"type": "address"
						},
						{
							"internalType": "address",
							"name": "creator",
							"type": "address"
						},
						{
							"internalType": "bool",
							"name": "isActive",
							"type": "bool"
						},
						{
							"internalType": "string",
							"name": "title",
							"type": "string"
						},
						{
							"internalType": "string",
							"name": "description",
							"type": "string"
						},
						{
							"internalType": "uint256",
							"name": "voterCount",
							"type": "uint256"
						}
					],
					"internalType": "struct Poll.Option[]",
					"name": "",
					"type": "tuple[]"
				}
			],
			"stateMutability": "view",
			"type": "function"
		},
		{
			"inputs": [],
			"name": "getQualifiedCandidates",
			"outputs": [
				{
					"components": [
						{
							"internalType": "uint256",
							"name": "id",
							"type": "uint256"
						},
						{
							"internalType": "address",
							"name": "owner",
							"type": "address"
						},
						{
							"internalType": "address",
							"name": "creator",
							"type": "address"
						},
						{
							"internalType": "bool",
							"name": "isActive",
							"type": "bool"
						},
						{
							"internalType": "string",
							"name": "title",
							"type": "string"
						},
						{
							"internalType": "string",
							"name": "description",
							"type": "string"
						},
						{
							"internalType": "uint256",
							"name": "voterCount",
							"type": "uint256"
						}
					],
					"internalType": "struct Poll.Option[]",
					"name": "",
					"type": "tuple[]"
				}
			],
			"stateMutability": "view",
			"type": "function"
		},
		{
			"inputs": [],
			"name": "getRunningCandidates",
			"outputs": [
				{
					"components": [
						{
							"internalType": "uint256",
							"name": "id",
							"type": "uint256"
						},
						{
							"internalType": "address",
							"name": "owner",
							"type": "address"
						},
						{
							"internalType": "address",
							"name": "creator",
							"type": "address"
						},
						{
							"internalType": "bool",
							"name": "isActive",
							"type": "bool"
						},
						{
							"internalType": "string",
							"name": "title",
							"type": "string"
						},
						{
							"internalType": "string",
							"name": "description",
							"type": "string"
						},
						{
							"internalType": "uint256",
							"name": "voterCount",
							"type": "uint256"
						}
					],
					"internalType": "struct Poll.Option[]",
					"name": "",
					"type": "tuple[]"
				}
			],
			"stateMutability": "view",
			"type": "function"
		},
		{
			"inputs": [],
			"name": "getVoterTurnout",
			"outputs": [
				{
					"internalType": "uint256",
					"name": "",
					"type": "uint256"
				}
			],
			"stateMutability": "view",
			"type": "function"
		},
		{
			"inputs": [],
			"name": "getWinningCandidates",
			"outputs": [
				{
					"components": [
						{
							"internalType": "uint256",
							"name": "id",
							"type": "uint256"
						},
						{
							"internalType": "address",
							"name": "owner",
							"type": "address"
						},
						{
							"internalType": "address",
							"name": "creator",
							"type": "address"
						},
						{
							"internalType": "bool",
							"name": "isActive",
							"type": "bool"
						},
						{
							"internalType": "string",
							"name": "title",
							"type": "string"
						},
						{
							"internalType": "string",
							"name": "description",
							"type": "string"
						},
						{
							"internalType": "uint256",
							"name": "voterCount",
							"type": "uint256"
						}
					],
					"internalType": "struct Poll.Option[]",
					"name": "",
					"type": "tuple[]"
				}
			],
			"stateMutability": "nonpayable",
			"type": "function"
		},
		{
			"inputs": [
				{
					"internalType": "uint256",
					"name": "",
					"type": "uint256"
				}
			],
			"name": "guaranteers",
			"outputs": [
				{
					"internalType": "address",
					"name": "",
					"type": "address"
				}
			],
			"stateMutability": "view",
			"type": "function"
		},
		{
			"inputs": [],
			"name": "hasDeadlinePassed",
			"outputs": [
				{
					"internalType": "bool",
					"name": "",
					"type": "bool"
				}
			],
			"stateMutability": "view",
			"type": "function"
		},
		{
			"inputs": [],
			"name": "hasMinimumVoterTurnout",
			"outputs": [
				{
					"internalType": "bool",
					"name": "",
					"type": "bool"
				}
			],
			"stateMutability": "view",
			"type": "function"
		},
		{
			"inputs": [],
			"name": "inaugurateElected",
			"outputs": [],
			"stateMutability": "nonpayable",
			"type": "function"
		},
		{
			"inputs": [
				{
					"internalType": "address",
					"name": "_candidate",
					"type": "address"
				}
			],
			"name": "isCandidateAlreadyNominated",
			"outputs": [
				{
					"internalType": "bool",
					"name": "",
					"type": "bool"
				}
			],
			"stateMutability": "view",
			"type": "function"
		},
		{
			"inputs": [
				{
					"internalType": "uint256",
					"name": "",
					"type": "uint256"
				}
			],
			"name": "owners",
			"outputs": [
				{
					"internalType": "address",
					"name": "",
					"type": "address"
				}
			],
			"stateMutability": "view",
			"type": "function"
		},
		{
			"inputs": [
				{
					"internalType": "uint256",
					"name": "_optionId",
					"type": "uint256"
				}
			],
			"name": "removeSupportFromCandidate",
			"outputs": [],
			"stateMutability": "nonpayable",
			"type": "function"
		},
		{
			"inputs": [],
			"name": "removeVote",
			"outputs": [],
			"stateMutability": "nonpayable",
			"type": "function"
		},
		{
			"inputs": [],
			"name": "startElection",
			"outputs": [],
			"stateMutability": "nonpayable",
			"type": "function"
		},
		{
			"inputs": [],
			"name": "startPreselection",
			"outputs": [],
			"stateMutability": "nonpayable",
			"type": "function"
		},
		{
			"inputs": [],
			"name": "state",
			"outputs": [
				{
					"internalType": "enum Election.State",
					"name": "",
					"type": "uint8"
				}
			],
			"stateMutability": "view",
			"type": "function"
		},
		{
			"inputs": [
				{
					"internalType": "uint256",
					"name": "_optionId",
					"type": "uint256"
				}
			],
			"name": "supportCandidate",
			"outputs": [],
			"stateMutability": "nonpayable",
			"type": "function"
		},
		{
			"inputs": [
				{
					"internalType": "uint256",
					"name": "_optionId",
					"type": "uint256"
				}
			],
			"name": "voteForCandidate",
			"outputs": [],
			"stateMutability": "nonpayable",
			"type": "function"
		}
	]
}